{
	"contracts/Shops.sol": {
		"ShopsSystem": {
			"abi": [
				{
					"inputs": [],
					"stateMutability": "nonpayable",
					"type": "constructor"
				},
				{
					"inputs": [
						{
							"internalType": "string",
							"name": "id",
							"type": "string"
						},
						{
							"internalType": "bool",
							"name": "isAccept",
							"type": "bool"
						}
					],
					"name": "checkRequest",
					"outputs": [],
					"stateMutability": "nonpayable",
					"type": "function"
				},
				{
					"inputs": [
						{
							"internalType": "address",
							"name": "shopAddr",
							"type": "address"
						},
						{
							"internalType": "string",
							"name": "userMessage",
							"type": "string"
						},
						{
							"internalType": "string",
							"name": "id",
							"type": "string"
						},
						{
							"internalType": "int256",
							"name": "grade",
							"type": "int256"
						}
					],
					"name": "createReview",
					"outputs": [],
					"stateMutability": "nonpayable",
					"type": "function"
				},
				{
					"inputs": [
						{
							"internalType": "address",
							"name": "shopAddr",
							"type": "address"
						}
					],
					"name": "deleteShop",
					"outputs": [],
					"stateMutability": "nonpayable",
					"type": "function"
				},
				{
					"inputs": [
						{
							"internalType": "string",
							"name": "id",
							"type": "string"
						}
					],
					"name": "disLikeReview",
					"outputs": [],
					"stateMutability": "nonpayable",
					"type": "function"
				},
				{
					"inputs": [
						{
							"internalType": "address payable",
							"name": "shopAddr",
							"type": "address"
						}
					],
					"name": "doShopDebt",
					"outputs": [],
					"stateMutability": "nonpayable",
					"type": "function"
				},
				{
					"inputs": [
						{
							"internalType": "string",
							"name": "id",
							"type": "string"
						}
					],
					"name": "downRequestToByer",
					"outputs": [],
					"stateMutability": "nonpayable",
					"type": "function"
				},
				{
					"inputs": [],
					"name": "getAdminInfo",
					"outputs": [
						{
							"internalType": "string",
							"name": "login",
							"type": "string"
						},
						{
							"internalType": "string[]",
							"name": "userRequests",
							"type": "string[]"
						},
						{
							"internalType": "string[]",
							"name": "adminList",
							"type": "string[]"
						},
						{
							"internalType": "address[]",
							"name": "sellersAddr",
							"type": "address[]"
						}
					],
					"stateMutability": "view",
					"type": "function"
				},
				{
					"inputs": [],
					"name": "getAllRequests",
					"outputs": [
						{
							"internalType": "string[]",
							"name": "requestsId",
							"type": "string[]"
						}
					],
					"stateMutability": "view",
					"type": "function"
				},
				{
					"inputs": [],
					"name": "getBuyerInfo",
					"outputs": [
						{
							"internalType": "string",
							"name": "userLogin",
							"type": "string"
						},
						{
							"internalType": "string",
							"name": "fio",
							"type": "string"
						},
						{
							"internalType": "uint256",
							"name": "balance",
							"type": "uint256"
						},
						{
							"internalType": "string[]",
							"name": "reviews",
							"type": "string[]"
						}
					],
					"stateMutability": "view",
					"type": "function"
				},
				{
					"inputs": [
						{
							"internalType": "string",
							"name": "id",
							"type": "string"
						}
					],
					"name": "getRequestById",
					"outputs": [
						{
							"internalType": "address",
							"name": "userAddr",
							"type": "address"
						},
						{
							"internalType": "string",
							"name": "currentRole",
							"type": "string"
						},
						{
							"internalType": "string",
							"name": "desiredRole",
							"type": "string"
						}
					],
					"stateMutability": "view",
					"type": "function"
				},
				{
					"inputs": [
						{
							"internalType": "string",
							"name": "id",
							"type": "string"
						}
					],
					"name": "getReviewById",
					"outputs": [
						{
							"internalType": "address",
							"name": "autorAddr",
							"type": "address"
						},
						{
							"internalType": "address",
							"name": "shopAddr",
							"type": "address"
						},
						{
							"internalType": "string",
							"name": "reviewMessage",
							"type": "string"
						},
						{
							"internalType": "uint256",
							"name": "likeCount",
							"type": "uint256"
						},
						{
							"internalType": "uint256",
							"name": "disLikeCount",
							"type": "uint256"
						},
						{
							"internalType": "int256",
							"name": "grade",
							"type": "int256"
						}
					],
					"stateMutability": "view",
					"type": "function"
				},
				{
					"inputs": [],
					"name": "getSellerInfo",
					"outputs": [
						{
							"internalType": "string",
							"name": "sellerLogin",
							"type": "string"
						},
						{
							"internalType": "string",
							"name": "fio",
							"type": "string"
						},
						{
							"internalType": "string",
							"name": "city",
							"type": "string"
						},
						{
							"internalType": "string",
							"name": "shopNumber",
							"type": "string"
						},
						{
							"internalType": "string[]",
							"name": "reviews",
							"type": "string[]"
						}
					],
					"stateMutability": "view",
					"type": "function"
				},
				{
					"inputs": [
						{
							"internalType": "address",
							"name": "sellerAddr",
							"type": "address"
						}
					],
					"name": "getSellerInfoByAddr",
					"outputs": [
						{
							"internalType": "string",
							"name": "sellerLogin",
							"type": "string"
						},
						{
							"internalType": "string",
							"name": "fio",
							"type": "string"
						},
						{
							"internalType": "string",
							"name": "city",
							"type": "string"
						},
						{
							"internalType": "string",
							"name": "shopNumber",
							"type": "string"
						},
						{
							"internalType": "string[]",
							"name": "reviews",
							"type": "string[]"
						}
					],
					"stateMutability": "view",
					"type": "function"
				},
				{
					"inputs": [
						{
							"internalType": "string",
							"name": "id",
							"type": "string"
						}
					],
					"name": "likeReview",
					"outputs": [],
					"stateMutability": "nonpayable",
					"type": "function"
				},
				{
					"inputs": [
						{
							"internalType": "string",
							"name": "userLogin",
							"type": "string"
						}
					],
					"name": "login",
					"outputs": [
						{
							"internalType": "address",
							"name": "userAddress",
							"type": "address"
						},
						{
							"internalType": "string",
							"name": "status",
							"type": "string"
						}
					],
					"stateMutability": "view",
					"type": "function"
				},
				{
					"inputs": [
						{
							"internalType": "address",
							"name": "adminAddr",
							"type": "address"
						},
						{
							"internalType": "string",
							"name": "fio",
							"type": "string"
						},
						{
							"internalType": "string",
							"name": "userLogin",
							"type": "string"
						}
					],
					"name": "regAdmin",
					"outputs": [],
					"stateMutability": "nonpayable",
					"type": "function"
				},
				{
					"inputs": [
						{
							"internalType": "string",
							"name": "fio",
							"type": "string"
						},
						{
							"internalType": "string",
							"name": "userLogin",
							"type": "string"
						}
					],
					"name": "registerAdmin",
					"outputs": [],
					"stateMutability": "nonpayable",
					"type": "function"
				},
				{
					"inputs": [
						{
							"internalType": "string",
							"name": "bankLogin",
							"type": "string"
						},
						{
							"internalType": "address",
							"name": "bankAddr",
							"type": "address"
						}
					],
					"name": "registerBank",
					"outputs": [],
					"stateMutability": "nonpayable",
					"type": "function"
				},
				{
					"inputs": [
						{
							"internalType": "string",
							"name": "fio",
							"type": "string"
						},
						{
							"internalType": "string",
							"name": "userLogin",
							"type": "string"
						},
						{
							"internalType": "address",
							"name": "userAddr",
							"type": "address"
						}
					],
					"name": "registerBuyer",
					"outputs": [],
					"stateMutability": "nonpayable",
					"type": "function"
				},
				{
					"inputs": [
						{
							"internalType": "string",
							"name": "providerLogin",
							"type": "string"
						},
						{
							"internalType": "address",
							"name": "providerAddr",
							"type": "address"
						}
					],
					"name": "registerProvider",
					"outputs": [],
					"stateMutability": "nonpayable",
					"type": "function"
				},
				{
					"inputs": [
						{
							"internalType": "string",
							"name": "fio",
							"type": "string"
						},
						{
							"internalType": "string",
							"name": "userLogin",
							"type": "string"
						},
						{
							"internalType": "address",
							"name": "userAddress",
							"type": "address"
						},
						{
							"internalType": "address",
							"name": "shopAddr",
							"type": "address"
						}
					],
					"name": "registerSeller",
					"outputs": [],
					"stateMutability": "nonpayable",
					"type": "function"
				},
				{
					"inputs": [
						{
							"internalType": "address",
							"name": "shopAddr",
							"type": "address"
						},
						{
							"internalType": "string",
							"name": "number",
							"type": "string"
						},
						{
							"internalType": "string",
							"name": "city",
							"type": "string"
						},
						{
							"internalType": "string",
							"name": "shopLogin",
							"type": "string"
						}
					],
					"name": "registerShop",
					"outputs": [],
					"stateMutability": "nonpayable",
					"type": "function"
				},
				{
					"inputs": [
						{
							"internalType": "string",
							"name": "id",
							"type": "string"
						}
					],
					"name": "requestToSeller",
					"outputs": [],
					"stateMutability": "nonpayable",
					"type": "function"
				}
			],
			"devdoc": {
				"kind": "dev",
				"methods": {},
				"version": 1
			},
			"evm": {
				"assembly": "    /* \"contracts/Shops.sol\":265:9169  contract ShopsSystem is AuthService{... */\n  mstore(0x40, 0x80)\n    /* \"contracts/Shops.sol\":961:1009  constructor(){... */\n  callvalue\n  dup1\n  iszero\n  tag_1\n  jumpi\n  0x00\n  dup1\n  revert\ntag_1:\n  pop\n    /* \"contracts/AuthService.sol\":576:599  userStatus[0] = \"buyer\" */\n  mload(0x40)\n  dup1\n  0x40\n  add\n  0x40\n  mstore\n  dup1\n  0x05\n  dup2\n  mstore\n  0x20\n  add\n  0x6275796572000000000000000000000000000000000000000000000000000000\n  dup2\n  mstore\n  pop\n    /* \"contracts/AuthService.sol\":576:586  userStatus */\n  0x00\n    /* \"contracts/AuthService.sol\":576:589  userStatus[0] */\n  dup1\n    /* \"contracts/AuthService.sol\":587:588  0 */\n  dup1\n    /* \"contracts/AuthService.sol\":576:589  userStatus[0] */\n  dup2\n  mstore\n  0x20\n  add\n  swap1\n  dup2\n  mstore\n  0x20\n  add\n  0x00\n  keccak256\n    /* \"contracts/AuthService.sol\":576:599  userStatus[0] = \"buyer\" */\n  swap1\n  dup1\n  mload\n  swap1\n  0x20\n  add\n  swap1\n  tag_5\n  swap3\n  swap2\n  swap1\n  tag_6\n  jump\t// in\ntag_5:\n  pop\n    /* \"contracts/AuthService.sol\":609:633  userStatus[1] = \"seller\" */\n  mload(0x40)\n  dup1\n  0x40\n  add\n  0x40\n  mstore\n  dup1\n  0x06\n  dup2\n  mstore\n  0x20\n  add\n  0x73656c6c65720000000000000000000000000000000000000000000000000000\n  dup2\n  mstore\n  pop\n    /* \"contracts/AuthService.sol\":609:619  userStatus */\n  0x00\n    /* \"contracts/AuthService.sol\":609:622  userStatus[1] */\n  dup1\n    /* \"contracts/AuthService.sol\":620:621  1 */\n  0x01\n    /* \"contracts/AuthService.sol\":609:622  userStatus[1] */\n  dup2\n  mstore\n  0x20\n  add\n  swap1\n  dup2\n  mstore\n  0x20\n  add\n  0x00\n  keccak256\n    /* \"contracts/AuthService.sol\":609:633  userStatus[1] = \"seller\" */\n  swap1\n  dup1\n  mload\n  swap1\n  0x20\n  add\n  swap1\n  tag_7\n  swap3\n  swap2\n  swap1\n  tag_6\n  jump\t// in\ntag_7:\n  pop\n    /* \"contracts/AuthService.sol\":643:665  userStatus[2] = \"shop\" */\n  mload(0x40)\n  dup1\n  0x40\n  add\n  0x40\n  mstore\n  dup1\n  0x04\n  dup2\n  mstore\n  0x20\n  add\n  0x73686f7000000000000000000000000000000000000000000000000000000000\n  dup2\n  mstore\n  pop\n    /* \"contracts/AuthService.sol\":643:653  userStatus */\n  0x00\n    /* \"contracts/AuthService.sol\":643:656  userStatus[2] */\n  dup1\n    /* \"contracts/AuthService.sol\":654:655  2 */\n  0x02\n    /* \"contracts/AuthService.sol\":643:656  userStatus[2] */\n  dup2\n  mstore\n  0x20\n  add\n  swap1\n  dup2\n  mstore\n  0x20\n  add\n  0x00\n  keccak256\n    /* \"contracts/AuthService.sol\":643:665  userStatus[2] = \"shop\" */\n  swap1\n  dup1\n  mload\n  swap1\n  0x20\n  add\n  swap1\n  tag_8\n  swap3\n  swap2\n  swap1\n  tag_6\n  jump\t// in\ntag_8:\n  pop\n    /* \"contracts/AuthService.sol\":675:698  userStatus[3] = \"admin\" */\n  mload(0x40)\n  dup1\n  0x40\n  add\n  0x40\n  mstore\n  dup1\n  0x05\n  dup2\n  mstore\n  0x20\n  add\n  0x61646d696e000000000000000000000000000000000000000000000000000000\n  dup2\n  mstore\n  pop\n    /* \"contracts/AuthService.sol\":675:685  userStatus */\n  0x00\n    /* \"contracts/AuthService.sol\":675:688  userStatus[3] */\n  dup1\n    /* \"contracts/AuthService.sol\":686:687  3 */\n  0x03\n    /* \"contracts/AuthService.sol\":675:688  userStatus[3] */\n  dup2\n  mstore\n  0x20\n  add\n  swap1\n  dup2\n  mstore\n  0x20\n  add\n  0x00\n  keccak256\n    /* \"contracts/AuthService.sol\":675:698  userStatus[3] = \"admin\" */\n  swap1\n  dup1\n  mload\n  swap1\n  0x20\n  add\n  swap1\n  tag_9\n  swap3\n  swap2\n  swap1\n  tag_6\n  jump\t// in\ntag_9:\n  pop\n    /* \"contracts/AuthService.sol\":708:734  userStatus[4] = \"provider\" */\n  mload(0x40)\n  dup1\n  0x40\n  add\n  0x40\n  mstore\n  dup1\n  0x08\n  dup2\n  mstore\n  0x20\n  add\n  0x70726f7669646572000000000000000000000000000000000000000000000000\n  dup2\n  mstore\n  pop\n    /* \"contracts/AuthService.sol\":708:718  userStatus */\n  0x00\n    /* \"contracts/AuthService.sol\":708:721  userStatus[4] */\n  dup1\n    /* \"contracts/AuthService.sol\":719:720  4 */\n  0x04\n    /* \"contracts/AuthService.sol\":708:721  userStatus[4] */\n  dup2\n  mstore\n  0x20\n  add\n  swap1\n  dup2\n  mstore\n  0x20\n  add\n  0x00\n  keccak256\n    /* \"contracts/AuthService.sol\":708:734  userStatus[4] = \"provider\" */\n  swap1\n  dup1\n  mload\n  swap1\n  0x20\n  add\n  swap1\n  tag_10\n  swap3\n  swap2\n  swap1\n  tag_6\n  jump\t// in\ntag_10:\n  pop\n    /* \"contracts/AuthService.sol\":744:766  userStatus[5] = \"bank\" */\n  mload(0x40)\n  dup1\n  0x40\n  add\n  0x40\n  mstore\n  dup1\n  0x04\n  dup2\n  mstore\n  0x20\n  add\n  0x62616e6b00000000000000000000000000000000000000000000000000000000\n  dup2\n  mstore\n  pop\n    /* \"contracts/AuthService.sol\":744:754  userStatus */\n  0x00\n    /* \"contracts/AuthService.sol\":744:757  userStatus[5] */\n  dup1\n    /* \"contracts/AuthService.sol\":755:756  5 */\n  0x05\n    /* \"contracts/AuthService.sol\":744:757  userStatus[5] */\n  dup2\n  mstore\n  0x20\n  add\n  swap1\n  dup2\n  mstore\n  0x20\n  add\n  0x00\n  keccak256\n    /* \"contracts/AuthService.sol\":744:766  userStatus[5] = \"bank\" */\n  swap1\n  dup1\n  mload\n  swap1\n  0x20\n  add\n  swap1\n  tag_11\n  swap3\n  swap2\n  swap1\n  tag_6\n  jump\t// in\ntag_11:\n  pop\n    /* \"contracts/Shops.sol\":992:1002  msg.sender */\n  caller\n    /* \"contracts/Shops.sol\":984:989  admin */\n  0x05\n  0x00\n    /* \"contracts/Shops.sol\":984:1002  admin = msg.sender */\n  0x0100\n  exp\n  dup2\n  sload\n  dup2\n  0xffffffffffffffffffffffffffffffffffffffff\n  mul\n  not\n  and\n  swap1\n  dup4\n  0xffffffffffffffffffffffffffffffffffffffff\n  and\n  mul\n  or\n  swap1\n  sstore\n  pop\n    /* \"contracts/Shops.sol\":265:9169  contract ShopsSystem is AuthService{... */\n  jump(tag_13)\ntag_6:\n  dup3\n  dup1\n  sload\n  tag_14\n  swap1\n  tag_15\n  jump\t// in\ntag_14:\n  swap1\n  0x00\n  mstore\n  keccak256(0x00, 0x20)\n  swap1\n  0x1f\n  add\n  0x20\n  swap1\n  div\n  dup2\n  add\n  swap3\n  dup3\n  tag_17\n  jumpi\n  0x00\n  dup6\n  sstore\n  jump(tag_16)\ntag_17:\n  dup3\n  0x1f\n  lt\n  tag_18\n  jumpi\n  dup1\n  mload\n  not(0xff)\n  and\n  dup4\n  dup1\n  add\n  or\n  dup6\n  sstore\n  jump(tag_16)\ntag_18:\n  dup3\n  dup1\n  add\n  0x01\n  add\n  dup6\n  sstore\n  dup3\n  iszero\n  tag_16\n  jumpi\n  swap2\n  dup3\n  add\ntag_19:\n  dup3\n  dup2\n  gt\n  iszero\n  tag_20\n  jumpi\n  dup3\n  mload\n  dup3\n  sstore\n  swap2\n  0x20\n  add\n  swap2\n  swap1\n  0x01\n  add\n  swap1\n  jump(tag_19)\ntag_20:\ntag_16:\n  pop\n  swap1\n  pop\n  tag_21\n  swap2\n  swap1\n  tag_22\n  jump\t// in\ntag_21:\n  pop\n  swap1\n  jump\t// out\ntag_22:\ntag_23:\n  dup1\n  dup3\n  gt\n  iszero\n  tag_24\n  jumpi\n  0x00\n  dup2\n  0x00\n  swap1\n  sstore\n  pop\n  0x01\n  add\n  jump(tag_23)\ntag_24:\n  pop\n  swap1\n  jump\t// out\n    /* \"#utility.yul\":7:327   */\ntag_15:\n    /* \"#utility.yul\":51:57   */\n  0x00\n    /* \"#utility.yul\":88:89   */\n  0x02\n    /* \"#utility.yul\":82:86   */\n  dup3\n    /* \"#utility.yul\":78:90   */\n  div\n    /* \"#utility.yul\":68:90   */\n  swap1\n  pop\n    /* \"#utility.yul\":135:136   */\n  0x01\n    /* \"#utility.yul\":129:133   */\n  dup3\n    /* \"#utility.yul\":125:137   */\n  and\n    /* \"#utility.yul\":156:174   */\n  dup1\n    /* \"#utility.yul\":146:227   */\n  tag_27\n  jumpi\n    /* \"#utility.yul\":212:216   */\n  0x7f\n    /* \"#utility.yul\":204:210   */\n  dup3\n    /* \"#utility.yul\":200:217   */\n  and\n    /* \"#utility.yul\":190:217   */\n  swap2\n  pop\n    /* \"#utility.yul\":146:227   */\ntag_27:\n    /* \"#utility.yul\":274:276   */\n  0x20\n    /* \"#utility.yul\":266:272   */\n  dup3\n    /* \"#utility.yul\":263:277   */\n  lt\n    /* \"#utility.yul\":243:261   */\n  dup2\n    /* \"#utility.yul\":240:278   */\n  eq\n    /* \"#utility.yul\":237:321   */\n  iszero\n  tag_28\n  jumpi\n    /* \"#utility.yul\":293:311   */\n  tag_29\n  tag_30\n  jump\t// in\ntag_29:\n    /* \"#utility.yul\":237:321   */\ntag_28:\n    /* \"#utility.yul\":58:327   */\n  pop\n    /* \"#utility.yul\":7:327   */\n  swap2\n  swap1\n  pop\n  jump\t// out\n    /* \"#utility.yul\":333:513   */\ntag_30:\n    /* \"#utility.yul\":381:458   */\n  0x4e487b7100000000000000000000000000000000000000000000000000000000\n    /* \"#utility.yul\":378:379   */\n  0x00\n    /* \"#utility.yul\":371:459   */\n  mstore\n    /* \"#utility.yul\":478:482   */\n  0x22\n    /* \"#utility.yul\":475:476   */\n  0x04\n    /* \"#utility.yul\":468:483   */\n  mstore\n    /* \"#utility.yul\":502:506   */\n  0x24\n    /* \"#utility.yul\":499:500   */\n  0x00\n    /* \"#utility.yul\":492:507   */\n  revert\n    /* \"contracts/Shops.sol\":265:9169  contract ShopsSystem is AuthService{... */\ntag_13:\n  dataSize(sub_0)\n  dup1\n  dataOffset(sub_0)\n  0x00\n  codecopy\n  0x00\n  return\nstop\n\nsub_0: assembly {\n        /* \"contracts/Shops.sol\":265:9169  contract ShopsSystem is AuthService{... */\n      mstore(0x40, 0x80)\n      callvalue\n      dup1\n      iszero\n      tag_1\n      jumpi\n      0x00\n      dup1\n      revert\n    tag_1:\n      pop\n      jumpi(tag_2, lt(calldatasize, 0x04))\n      shr(0xe0, calldataload(0x00))\n      dup1\n      0x8403f848\n      gt\n      tag_26\n      jumpi\n      dup1\n      0xbce62a74\n      gt\n      tag_27\n      jumpi\n      dup1\n      0xbce62a74\n      eq\n      tag_20\n      jumpi\n      dup1\n      0xc3d5fd39\n      eq\n      tag_21\n      jumpi\n      dup1\n      0xdffc8b06\n      eq\n      tag_22\n      jumpi\n      dup1\n      0xe7bfea50\n      eq\n      tag_23\n      jumpi\n      dup1\n      0xf8f98b79\n      eq\n      tag_24\n      jumpi\n      dup1\n      0xfb1a002a\n      eq\n      tag_25\n      jumpi\n      jump(tag_2)\n    tag_27:\n      dup1\n      0x8403f848\n      eq\n      tag_14\n      jumpi\n      dup1\n      0x99b958ee\n      eq\n      tag_15\n      jumpi\n      dup1\n      0x9d344d10\n      eq\n      tag_16\n      jumpi\n      dup1\n      0xa59d105f\n      eq\n      tag_17\n      jumpi\n      dup1\n      0xac6fa7c3\n      eq\n      tag_18\n      jumpi\n      dup1\n      0xb038316c\n      eq\n      tag_19\n      jumpi\n      jump(tag_2)\n    tag_26:\n      dup1\n      0x3a7d280c\n      gt\n      tag_28\n      jumpi\n      dup1\n      0x3a7d280c\n      eq\n      tag_8\n      jumpi\n      dup1\n      0x54504c12\n      eq\n      tag_9\n      jumpi\n      dup1\n      0x7558b2f8\n      eq\n      tag_10\n      jumpi\n      dup1\n      0x7b3c7488\n      eq\n      tag_11\n      jumpi\n      dup1\n      0x7ccb2bd8\n      eq\n      tag_12\n      jumpi\n      dup1\n      0x83db0f6d\n      eq\n      tag_13\n      jumpi\n      jump(tag_2)\n    tag_28:\n      dup1\n      0x08e74858\n      eq\n      tag_3\n      jumpi\n      dup1\n      0x2059b7ad\n      eq\n      tag_4\n      jumpi\n      dup1\n      0x2156a781\n      eq\n      tag_5\n      jumpi\n      dup1\n      0x2d6abf59\n      eq\n      tag_6\n      jumpi\n      dup1\n      0x2f0185c4\n      eq\n      tag_7\n      jumpi\n    tag_2:\n      0x00\n      dup1\n      revert\n        /* \"contracts/Shops.sol\":5342:5955  function getSellerInfoByAddr(address sellerAddr) public view isUserStatus(UserRoles.admin)returns(... */\n    tag_3:\n      tag_29\n      0x04\n      dup1\n      calldatasize\n      sub\n      dup2\n      add\n      swap1\n      tag_30\n      swap2\n      swap1\n      tag_31\n      jump\t// in\n    tag_30:\n      tag_32\n      jump\t// in\n    tag_29:\n      mload(0x40)\n      tag_33\n      swap6\n      swap5\n      swap4\n      swap3\n      swap2\n      swap1\n      tag_34\n      jump\t// in\n    tag_33:\n      mload(0x40)\n      dup1\n      swap2\n      sub\n      swap1\n      return\n        /* \"contracts/Shops.sol\":8016:8318  function checkRequest(string memory id,bool isAccept) public isUserStatus(UserRoles.admin) {... */\n    tag_4:\n      tag_35\n      0x04\n      dup1\n      calldatasize\n      sub\n      dup2\n      add\n      swap1\n      tag_36\n      swap2\n      swap1\n      tag_37\n      jump\t// in\n    tag_36:\n      tag_38\n      jump\t// in\n    tag_35:\n      stop\n        /* \"contracts/Shops.sol\":2527:2714  function registerBank(string memory bankLogin,address bankAddr) public isAdmin {... */\n    tag_5:\n      tag_39\n      0x04\n      dup1\n      calldatasize\n      sub\n      dup2\n      add\n      swap1\n      tag_40\n      swap2\n      swap1\n      tag_41\n      jump\t// in\n    tag_40:\n      tag_42\n      jump\t// in\n    tag_39:\n      stop\n        /* \"contracts/Shops.sol\":5961:6415  function createReview(... */\n    tag_6:\n      tag_43\n      0x04\n      dup1\n      calldatasize\n      sub\n      dup2\n      add\n      swap1\n      tag_44\n      swap2\n      swap1\n      tag_45\n      jump\t// in\n    tag_44:\n      tag_46\n      jump\t// in\n    tag_43:\n      stop\n        /* \"contracts/Shops.sol\":6905:7391  function getReviewById(string memory id) public view returns(... */\n    tag_7:\n      tag_47\n      0x04\n      dup1\n      calldatasize\n      sub\n      dup2\n      add\n      swap1\n      tag_48\n      swap2\n      swap1\n      tag_49\n      jump\t// in\n    tag_48:\n      tag_50\n      jump\t// in\n    tag_47:\n      mload(0x40)\n      tag_51\n      swap7\n      swap6\n      swap5\n      swap4\n      swap3\n      swap2\n      swap1\n      tag_52\n      jump\t// in\n    tag_51:\n      mload(0x40)\n      dup1\n      swap2\n      sub\n      swap1\n      return\n        /* \"contracts/AuthService.sol\":2255:2555  function login(string memory userLogin) public view isRegistered(userLogin) returns(address userAddress,string memory status){... */\n    tag_8:\n      tag_53\n      0x04\n      dup1\n      calldatasize\n      sub\n      dup2\n      add\n      swap1\n      tag_54\n      swap2\n      swap1\n      tag_49\n      jump\t// in\n    tag_54:\n      tag_55\n      jump\t// in\n    tag_53:\n      mload(0x40)\n      tag_56\n      swap3\n      swap2\n      swap1\n      tag_57\n      jump\t// in\n    tag_56:\n      mload(0x40)\n      dup1\n      swap2\n      sub\n      swap1\n      return\n        /* \"contracts/Shops.sol\":3723:4314  function getSellerInfo() public view isUserStatus(UserRoles.seller) returns(... */\n    tag_9:\n      tag_58\n      tag_59\n      jump\t// in\n    tag_58:\n      mload(0x40)\n      tag_60\n      swap6\n      swap5\n      swap4\n      swap3\n      swap2\n      swap1\n      tag_34\n      jump\t// in\n    tag_60:\n      mload(0x40)\n      dup1\n      swap2\n      sub\n      swap1\n      return\n        /* \"contracts/Shops.sol\":1858:2108  function registerShop(address shopAddr,string memory number,string memory city,string memory shopLogin) public isUserStatus(UserRoles.admin){... */\n    tag_10:\n      tag_61\n      0x04\n      dup1\n      calldatasize\n      sub\n      dup2\n      add\n      swap1\n      tag_62\n      swap2\n      swap1\n      tag_63\n      jump\t// in\n    tag_62:\n      tag_64\n      jump\t// in\n    tag_61:\n      stop\n        /* \"contracts/Shops.sol\":6421:6654  function likeReview(string memory id) public isUser {... */\n    tag_11:\n      tag_65\n      0x04\n      dup1\n      calldatasize\n      sub\n      dup2\n      add\n      swap1\n      tag_66\n      swap2\n      swap1\n      tag_49\n      jump\t// in\n    tag_66:\n      tag_67\n      jump\t// in\n    tag_65:\n      stop\n        /* \"contracts/Shops.sol\":2208:2452  function registerProvider(string memory providerLogin,address providerAddr) public isAdmin {... */\n    tag_12:\n      tag_68\n      0x04\n      dup1\n      calldatasize\n      sub\n      dup2\n      add\n      swap1\n      tag_69\n      swap2\n      swap1\n      tag_41\n      jump\t// in\n    tag_69:\n      tag_70\n      jump\t// in\n    tag_68:\n      stop\n        /* \"contracts/Shops.sol\":3444:3647  function doShopDebt(address payable shopAddr) public isUserStatus(UserRoles.bank) {... */\n    tag_13:\n      tag_71\n      0x04\n      dup1\n      calldatasize\n      sub\n      dup2\n      add\n      swap1\n      tag_72\n      swap2\n      swap1\n      tag_73\n      jump\t// in\n    tag_72:\n      tag_74\n      jump\t// in\n    tag_71:\n      stop\n        /* \"contracts/Shops.sol\":2777:3083  function registerSeller(string memory fio,string memory userLogin,address userAddress,address shopAddr) public {... */\n    tag_14:\n      tag_75\n      0x04\n      dup1\n      calldatasize\n      sub\n      dup2\n      add\n      swap1\n      tag_76\n      swap2\n      swap1\n      tag_77\n      jump\t// in\n    tag_76:\n      tag_78\n      jump\t// in\n    tag_75:\n      stop\n        /* \"contracts/Shops.sol\":4413:4777  function getBuyerInfo() public view isUser returns(... */\n    tag_15:\n      tag_79\n      tag_80\n      jump\t// in\n    tag_79:\n      mload(0x40)\n      tag_81\n      swap5\n      swap4\n      swap3\n      swap2\n      swap1\n      tag_82\n      jump\t// in\n    tag_81:\n      mload(0x40)\n      dup1\n      swap2\n      sub\n      swap1\n      return\n        /* \"contracts/Shops.sol\":3150:3349  function registerBuyer(string memory fio,string memory userLogin,address userAddr) public{... */\n    tag_16:\n      tag_83\n      0x04\n      dup1\n      calldatasize\n      sub\n      dup2\n      add\n      swap1\n      tag_84\n      swap2\n      swap1\n      tag_85\n      jump\t// in\n    tag_84:\n      tag_86\n      jump\t// in\n    tag_83:\n      stop\n        /* \"contracts/Shops.sol\":1539:1797  function regAdmin(address adminAddr,string memory fio,string memory userLogin) public isUserStatus(UserRoles.admin){... */\n    tag_17:\n      tag_87\n      0x04\n      dup1\n      calldatasize\n      sub\n      dup2\n      add\n      swap1\n      tag_88\n      swap2\n      swap1\n      tag_89\n      jump\t// in\n    tag_88:\n      tag_90\n      jump\t// in\n    tag_87:\n      stop\n        /* \"contracts/Shops.sol\":7397:7699  function requestToSeller(string memory id) public isUserStatus(UserRoles.buyer){... */\n    tag_18:\n      tag_91\n      0x04\n      dup1\n      calldatasize\n      sub\n      dup2\n      add\n      swap1\n      tag_92\n      swap2\n      swap1\n      tag_49\n      jump\t// in\n    tag_92:\n      tag_93\n      jump\t// in\n    tag_91:\n      stop\n        /* \"contracts/Shops.sol\":7705:8010  function downRequestToByer(string memory id) public isUserStatus(UserRoles.seller){... */\n    tag_19:\n      tag_94\n      0x04\n      dup1\n      calldatasize\n      sub\n      dup2\n      add\n      swap1\n      tag_95\n      swap2\n      swap1\n      tag_49\n      jump\t// in\n    tag_95:\n      tag_96\n      jump\t// in\n    tag_94:\n      stop\n        /* \"contracts/Shops.sol\":6660:6899  function disLikeReview(string memory id) public isUser {... */\n    tag_20:\n      tag_97\n      0x04\n      dup1\n      calldatasize\n      sub\n      dup2\n      add\n      swap1\n      tag_98\n      swap2\n      swap1\n      tag_49\n      jump\t// in\n    tag_98:\n      tag_99\n      jump\t// in\n    tag_97:\n      stop\n        /* \"contracts/Shops.sol\":4847:5245  function getAdminInfo() public view isUserStatus(UserRoles.admin) returns(... */\n    tag_21:\n      tag_100\n      tag_101\n      jump\t// in\n    tag_100:\n      mload(0x40)\n      tag_102\n      swap5\n      swap4\n      swap3\n      swap2\n      swap1\n      tag_103\n      jump\t// in\n    tag_102:\n      mload(0x40)\n      dup1\n      swap2\n      sub\n      swap1\n      return\n        /* \"contracts/Shops.sol\":8760:9105  function getRequestById(string memory id) public view returns(... */\n    tag_22:\n      tag_104\n      0x04\n      dup1\n      calldatasize\n      sub\n      dup2\n      add\n      swap1\n      tag_105\n      swap2\n      swap1\n      tag_49\n      jump\t// in\n    tag_105:\n      tag_106\n      jump\t// in\n    tag_104:\n      mload(0x40)\n      tag_107\n      swap4\n      swap3\n      swap2\n      swap1\n      tag_108\n      jump\t// in\n    tag_107:\n      mload(0x40)\n      dup1\n      swap2\n      sub\n      swap1\n      return\n        /* \"contracts/Shops.sol\":8465:8754  function deleteShop(address shopAddr) public isUserStatus(UserRoles.admin) {... */\n    tag_23:\n      tag_109\n      0x04\n      dup1\n      calldatasize\n      sub\n      dup2\n      add\n      swap1\n      tag_110\n      swap2\n      swap1\n      tag_31\n      jump\t// in\n    tag_110:\n      tag_111\n      jump\t// in\n    tag_109:\n      stop\n        /* \"contracts/Shops.sol\":1223:1448  function registerAdmin(string memory fio,string memory userLogin) isAdmin public {... */\n    tag_24:\n      tag_112\n      0x04\n      dup1\n      calldatasize\n      sub\n      dup2\n      add\n      swap1\n      tag_113\n      swap2\n      swap1\n      tag_114\n      jump\t// in\n    tag_113:\n      tag_115\n      jump\t// in\n    tag_112:\n      stop\n        /* \"contracts/Shops.sol\":8324:8459  function getAllRequests() public view isUserStatus(UserRoles.admin) returns(string[] memory requestsId){... */\n    tag_25:\n      tag_116\n      tag_117\n      jump\t// in\n    tag_116:\n      mload(0x40)\n      tag_118\n      swap2\n      swap1\n      tag_119\n      jump\t// in\n    tag_118:\n      mload(0x40)\n      dup1\n      swap2\n      sub\n      swap1\n      return\n        /* \"contracts/Shops.sol\":5342:5955  function getSellerInfoByAddr(address sellerAddr) public view isUserStatus(UserRoles.admin)returns(... */\n    tag_32:\n        /* \"contracts/Shops.sol\":5449:5474  string memory sellerLogin */\n      0x60\n        /* \"contracts/Shops.sol\":5484:5501  string memory fio */\n      dup1\n        /* \"contracts/Shops.sol\":5511:5529  string memory city */\n      0x60\n        /* \"contracts/Shops.sol\":5539:5563  string memory shopNumber */\n      dup1\n        /* \"contracts/Shops.sol\":5573:5596  string[] memory reviews */\n      0x60\n        /* \"contracts/Shops.sol\":5416:5431  UserRoles.admin */\n      0x03\n        /* \"contracts/AuthService.sol\":1616:1621  users */\n      0x02\n        /* \"contracts/AuthService.sol\":1616:1633  users[msg.sender] */\n      0x00\n        /* \"contracts/AuthService.sol\":1622:1632  msg.sender */\n      caller\n        /* \"contracts/AuthService.sol\":1616:1633  users[msg.sender] */\n      0xffffffffffffffffffffffffffffffffffffffff\n      and\n      0xffffffffffffffffffffffffffffffffffffffff\n      and\n      dup2\n      mstore\n      0x20\n      add\n      swap1\n      dup2\n      mstore\n      0x20\n      add\n      0x00\n      keccak256\n        /* \"contracts/AuthService.sol\":1616:1640  users[msg.sender].status */\n      0x00\n      add\n      sload\n        /* \"contracts/AuthService.sol\":1605:1611  status */\n      dup2\n        /* \"contracts/AuthService.sol\":1600:1612  uint(status) */\n      0x05\n      dup2\n      gt\n      iszero\n      tag_121\n      jumpi\n      tag_122\n      tag_123\n      jump\t// in\n    tag_122:\n    tag_121:\n        /* \"contracts/AuthService.sol\":1600:1640  uint(status) == users[msg.sender].status */\n      eq\n        /* \"contracts/AuthService.sol\":1592:1653  require(uint(status) == users[msg.sender].status,\"Forbidden\") */\n      tag_124\n      jumpi\n      mload(0x40)\n      0x08c379a000000000000000000000000000000000000000000000000000000000\n      dup2\n      mstore\n      0x04\n      add\n      tag_125\n      swap1\n      tag_126\n      jump\t// in\n    tag_125:\n      mload(0x40)\n      dup1\n      swap2\n      sub\n      swap1\n      revert\n    tag_124:\n        /* \"contracts/Shops.sol\":5612:5632  User memory sellUser */\n      0x00\n        /* \"contracts/Shops.sol\":5635:5640  users */\n      0x02\n        /* \"contracts/Shops.sol\":5635:5652  users[sellerAddr] */\n      0x00\n        /* \"contracts/Shops.sol\":5641:5651  sellerAddr */\n      dup10\n        /* \"contracts/Shops.sol\":5635:5652  users[sellerAddr] */\n      0xffffffffffffffffffffffffffffffffffffffff\n      and\n      0xffffffffffffffffffffffffffffffffffffffff\n      and\n      dup2\n      mstore\n      0x20\n      add\n      swap1\n      dup2\n      mstore\n      0x20\n      add\n      0x00\n      keccak256\n        /* \"contracts/Shops.sol\":5612:5652  User memory sellUser = users[sellerAddr] */\n      mload(0x40)\n      dup1\n      0x80\n      add\n      0x40\n      mstore\n      swap1\n      dup2\n      0x00\n      dup3\n      add\n      sload\n      dup2\n      mstore\n      0x20\n      add\n      0x01\n      dup3\n      add\n      dup1\n      sload\n      tag_128\n      swap1\n      tag_129\n      jump\t// in\n    tag_128:\n      dup1\n      0x1f\n      add\n      0x20\n      dup1\n      swap2\n      div\n      mul\n      0x20\n      add\n      mload(0x40)\n      swap1\n      dup2\n      add\n      0x40\n      mstore\n      dup1\n      swap3\n      swap2\n      swap1\n      dup2\n      dup2\n      mstore\n      0x20\n      add\n      dup3\n      dup1\n      sload\n      tag_130\n      swap1\n      tag_129\n      jump\t// in\n    tag_130:\n      dup1\n      iszero\n      tag_131\n      jumpi\n      dup1\n      0x1f\n      lt\n      tag_132\n      jumpi\n      0x0100\n      dup1\n      dup4\n      sload\n      div\n      mul\n      dup4\n      mstore\n      swap2\n      0x20\n      add\n      swap2\n      jump(tag_131)\n    tag_132:\n      dup3\n      add\n      swap2\n      swap1\n      0x00\n      mstore\n      keccak256(0x00, 0x20)\n      swap1\n    tag_133:\n      dup2\n      sload\n      dup2\n      mstore\n      swap1\n      0x01\n      add\n      swap1\n      0x20\n      add\n      dup1\n      dup4\n      gt\n      tag_133\n      jumpi\n      dup3\n      swap1\n      sub\n      0x1f\n      and\n      dup3\n      add\n      swap2\n    tag_131:\n      pop\n      pop\n      pop\n      pop\n      pop\n      dup2\n      mstore\n      0x20\n      add\n      0x02\n      dup3\n      add\n      dup1\n      sload\n      tag_134\n      swap1\n      tag_129\n      jump\t// in\n    tag_134:\n      dup1\n      0x1f\n      add\n      0x20\n      dup1\n      swap2\n      div\n      mul\n      0x20\n      add\n      mload(0x40)\n      swap1\n      dup2\n      add\n      0x40\n      mstore\n      dup1\n      swap3\n      swap2\n      swap1\n      dup2\n      dup2\n      mstore\n      0x20\n      add\n      dup3\n      dup1\n      sload\n      tag_135\n      swap1\n      tag_129\n      jump\t// in\n    tag_135:\n      dup1\n      iszero\n      tag_136\n      jumpi\n      dup1\n      0x1f\n      lt\n      tag_137\n      jumpi\n      0x0100\n      dup1\n      dup4\n      sload\n      div\n      mul\n      dup4\n      mstore\n      swap2\n      0x20\n      add\n      swap2\n      jump(tag_136)\n    tag_137:\n      dup3\n      add\n      swap2\n      swap1\n      0x00\n      mstore\n      keccak256(0x00, 0x20)\n      swap1\n    tag_138:\n      dup2\n      sload\n      dup2\n      mstore\n      swap1\n      0x01\n      add\n      swap1\n      0x20\n      add\n      dup1\n      dup4\n      gt\n      tag_138\n      jumpi\n      dup3\n      swap1\n      sub\n      0x1f\n      and\n      dup3\n      add\n      swap2\n    tag_136:\n      pop\n      pop\n      pop\n      pop\n      pop\n      dup2\n      mstore\n      0x20\n      add\n      0x03\n      dup3\n      add\n      dup1\n      sload\n      dup1\n      0x20\n      mul\n      0x20\n      add\n      mload(0x40)\n      swap1\n      dup2\n      add\n      0x40\n      mstore\n      dup1\n      swap3\n      swap2\n      swap1\n      dup2\n      dup2\n      mstore\n      0x20\n      add\n      0x00\n      swap1\n    tag_139:\n      dup3\n      dup3\n      lt\n      iszero\n      tag_140\n      jumpi\n      dup4\n      dup3\n      swap1\n      0x00\n      mstore\n      keccak256(0x00, 0x20)\n      add\n      dup1\n      sload\n      tag_142\n      swap1\n      tag_129\n      jump\t// in\n    tag_142:\n      dup1\n      0x1f\n      add\n      0x20\n      dup1\n      swap2\n      div\n      mul\n      0x20\n      add\n      mload(0x40)\n      swap1\n      dup2\n      add\n      0x40\n      mstore\n      dup1\n      swap3\n      swap2\n      swap1\n      dup2\n      dup2\n      mstore\n      0x20\n      add\n      dup3\n      dup1\n      sload\n      tag_143\n      swap1\n      tag_129\n      jump\t// in\n    tag_143:\n      dup1\n      iszero\n      tag_144\n      jumpi\n      dup1\n      0x1f\n      lt\n      tag_145\n      jumpi\n      0x0100\n      dup1\n      dup4\n      sload\n      div\n      mul\n      dup4\n      mstore\n      swap2\n      0x20\n      add\n      swap2\n      jump(tag_144)\n    tag_145:\n      dup3\n      add\n      swap2\n      swap1\n      0x00\n      mstore\n      keccak256(0x00, 0x20)\n      swap1\n    tag_146:\n      dup2\n      sload\n      dup2\n      mstore\n      swap1\n      0x01\n      add\n      swap1\n      0x20\n      add\n      dup1\n      dup4\n      gt\n      tag_146\n      jumpi\n      dup3\n      swap1\n      sub\n      0x1f\n      and\n      dup3\n      add\n      swap2\n    tag_144:\n      pop\n      pop\n      pop\n      pop\n      pop\n      dup2\n      mstore\n      0x20\n      add\n      swap1\n      0x01\n      add\n      swap1\n      jump(tag_139)\n    tag_140:\n      pop\n      pop\n      pop\n      pop\n      dup2\n      mstore\n      pop\n      pop\n      swap1\n      pop\n        /* \"contracts/Shops.sol\":5662:5682  address sellShopAddr */\n      0x00\n        /* \"contracts/Shops.sol\":5685:5697  salesmanShop */\n      0x0b\n        /* \"contracts/Shops.sol\":5685:5709  salesmanShop[sellerAddr] */\n      0x00\n        /* \"contracts/Shops.sol\":5698:5708  sellerAddr */\n      dup11\n        /* \"contracts/Shops.sol\":5685:5709  salesmanShop[sellerAddr] */\n      0xffffffffffffffffffffffffffffffffffffffff\n      and\n      0xffffffffffffffffffffffffffffffffffffffff\n      and\n      dup2\n      mstore\n      0x20\n      add\n      swap1\n      dup2\n      mstore\n      0x20\n      add\n      0x00\n      keccak256\n      0x00\n      swap1\n      sload\n      swap1\n      0x0100\n      exp\n      swap1\n      div\n      0xffffffffffffffffffffffffffffffffffffffff\n      and\n        /* \"contracts/Shops.sol\":5662:5709  address sellShopAddr = salesmanShop[sellerAddr] */\n      swap1\n      pop\n        /* \"contracts/Shops.sol\":5719:5739  Shop memory sellShop */\n      0x00\n        /* \"contracts/Shops.sol\":5742:5751  ShopsList */\n      0x0a\n        /* \"contracts/Shops.sol\":5742:5765  ShopsList[sellShopAddr] */\n      0x00\n        /* \"contracts/Shops.sol\":5752:5764  sellShopAddr */\n      dup4\n        /* \"contracts/Shops.sol\":5742:5765  ShopsList[sellShopAddr] */\n      0xffffffffffffffffffffffffffffffffffffffff\n      and\n      0xffffffffffffffffffffffffffffffffffffffff\n      and\n      dup2\n      mstore\n      0x20\n      add\n      swap1\n      dup2\n      mstore\n      0x20\n      add\n      0x00\n      keccak256\n        /* \"contracts/Shops.sol\":5719:5765  Shop memory sellShop = ShopsList[sellShopAddr] */\n      mload(0x40)\n      dup1\n      0x60\n      add\n      0x40\n      mstore\n      swap1\n      dup2\n      0x00\n      dup3\n      add\n      dup1\n      sload\n      tag_147\n      swap1\n      tag_129\n      jump\t// in\n    tag_147:\n      dup1\n      0x1f\n      add\n      0x20\n      dup1\n      swap2\n      div\n      mul\n      0x20\n      add\n      mload(0x40)\n      swap1\n      dup2\n      add\n      0x40\n      mstore\n      dup1\n      swap3\n      swap2\n      swap1\n      dup2\n      dup2\n      mstore\n      0x20\n      add\n      dup3\n      dup1\n      sload\n      tag_148\n      swap1\n      tag_129\n      jump\t// in\n    tag_148:\n      dup1\n      iszero\n      tag_149\n      jumpi\n      dup1\n      0x1f\n      lt\n      tag_150\n      jumpi\n      0x0100\n      dup1\n      dup4\n      sload\n      div\n      mul\n      dup4\n      mstore\n      swap2\n      0x20\n      add\n      swap2\n      jump(tag_149)\n    tag_150:\n      dup3\n      add\n      swap2\n      swap1\n      0x00\n      mstore\n      keccak256(0x00, 0x20)\n      swap1\n    tag_151:\n      dup2\n      sload\n      dup2\n      mstore\n      swap1\n      0x01\n      add\n      swap1\n      0x20\n      add\n      dup1\n      dup4\n      gt\n      tag_151\n      jumpi\n      dup3\n      swap1\n      sub\n      0x1f\n      and\n      dup3\n      add\n      swap2\n    tag_149:\n      pop\n      pop\n      pop\n      pop\n      pop\n      dup2\n      mstore\n      0x20\n      add\n      0x01\n      dup3\n      add\n      dup1\n      sload\n      tag_152\n      swap1\n      tag_129\n      jump\t// in\n    tag_152:\n      dup1\n      0x1f\n      add\n      0x20\n      dup1\n      swap2\n      div\n      mul\n      0x20\n      add\n      mload(0x40)\n      swap1\n      dup2\n      add\n      0x40\n      mstore\n      dup1\n      swap3\n      swap2\n      swap1\n      dup2\n      dup2\n      mstore\n      0x20\n      add\n      dup3\n      dup1\n      sload\n      tag_153\n      swap1\n      tag_129\n      jump\t// in\n    tag_153:\n      dup1\n      iszero\n      tag_154\n      jumpi\n      dup1\n      0x1f\n      lt\n      tag_155\n      jumpi\n      0x0100\n      dup1\n      dup4\n      sload\n      div\n      mul\n      dup4\n      mstore\n      swap2\n      0x20\n      add\n      swap2\n      jump(tag_154)\n    tag_155:\n      dup3\n      add\n      swap2\n      swap1\n      0x00\n      mstore\n      keccak256(0x00, 0x20)\n      swap1\n    tag_156:\n      dup2\n      sload\n      dup2\n      mstore\n      swap1\n      0x01\n      add\n      swap1\n      0x20\n      add\n      dup1\n      dup4\n      gt\n      tag_156\n      jumpi\n      dup3\n      swap1\n      sub\n      0x1f\n      and\n      dup3\n      add\n      swap2\n    tag_154:\n      pop\n      pop\n      pop\n      pop\n      pop\n      dup2\n      mstore\n      0x20\n      add\n      0x02\n      dup3\n      add\n      sload\n      dup2\n      mstore\n      pop\n      pop\n      swap1\n      pop\n        /* \"contracts/Shops.sol\":5798:5806  sellUser */\n      dup3\n        /* \"contracts/Shops.sol\":5798:5816  sellUser.userLogin */\n      0x20\n      add\n      mload\n        /* \"contracts/Shops.sol\":5784:5816  sellerLogin = sellUser.userLogin */\n      swap9\n      pop\n        /* \"contracts/Shops.sol\":5832:5840  sellUser */\n      dup3\n        /* \"contracts/Shops.sol\":5832:5844  sellUser.fio */\n      0x40\n      add\n      mload\n        /* \"contracts/Shops.sol\":5826:5844  fio = sellUser.fio */\n      swap8\n      pop\n        /* \"contracts/Shops.sol\":5861:5869  sellShop */\n      dup1\n        /* \"contracts/Shops.sol\":5861:5874  sellShop.city */\n      0x20\n      add\n      mload\n        /* \"contracts/Shops.sol\":5854:5874  city = sellShop.city */\n      swap7\n      pop\n        /* \"contracts/Shops.sol\":5897:5905  sellShop */\n      dup1\n        /* \"contracts/Shops.sol\":5897:5912  sellShop.number */\n      0x00\n      add\n      mload\n        /* \"contracts/Shops.sol\":5884:5912  shopNumber = sellShop.number */\n      swap6\n      pop\n        /* \"contracts/Shops.sol\":5932:5940  sellUser */\n      dup3\n        /* \"contracts/Shops.sol\":5932:5948  sellUser.reviews */\n      0x60\n      add\n      mload\n        /* \"contracts/Shops.sol\":5922:5948  reviews = sellUser.reviews */\n      swap5\n      pop\n        /* \"contracts/Shops.sol\":5602:5955  {... */\n      pop\n      pop\n      pop\n        /* \"contracts/Shops.sol\":5342:5955  function getSellerInfoByAddr(address sellerAddr) public view isUserStatus(UserRoles.admin)returns(... */\n      pop\n      swap2\n      swap4\n      swap6\n      swap1\n      swap3\n      swap5\n      pop\n      jump\t// out\n        /* \"contracts/Shops.sol\":8016:8318  function checkRequest(string memory id,bool isAccept) public isUserStatus(UserRoles.admin) {... */\n    tag_38:\n        /* \"contracts/Shops.sol\":8090:8105  UserRoles.admin */\n      0x03\n        /* \"contracts/AuthService.sol\":1616:1621  users */\n      0x02\n        /* \"contracts/AuthService.sol\":1616:1633  users[msg.sender] */\n      0x00\n        /* \"contracts/AuthService.sol\":1622:1632  msg.sender */\n      caller\n        /* \"contracts/AuthService.sol\":1616:1633  users[msg.sender] */\n      0xffffffffffffffffffffffffffffffffffffffff\n      and\n      0xffffffffffffffffffffffffffffffffffffffff\n      and\n      dup2\n      mstore\n      0x20\n      add\n      swap1\n      dup2\n      mstore\n      0x20\n      add\n      0x00\n      keccak256\n        /* \"contracts/AuthService.sol\":1616:1640  users[msg.sender].status */\n      0x00\n      add\n      sload\n        /* \"contracts/AuthService.sol\":1605:1611  status */\n      dup2\n        /* \"contracts/AuthService.sol\":1600:1612  uint(status) */\n      0x05\n      dup2\n      gt\n      iszero\n      tag_158\n      jumpi\n      tag_159\n      tag_123\n      jump\t// in\n    tag_159:\n    tag_158:\n        /* \"contracts/AuthService.sol\":1600:1640  uint(status) == users[msg.sender].status */\n      eq\n        /* \"contracts/AuthService.sol\":1592:1653  require(uint(status) == users[msg.sender].status,\"Forbidden\") */\n      tag_160\n      jumpi\n      mload(0x40)\n      0x08c379a000000000000000000000000000000000000000000000000000000000\n      dup2\n      mstore\n      0x04\n      add\n      tag_161\n      swap1\n      tag_126\n      jump\t// in\n    tag_161:\n      mload(0x40)\n      dup1\n      swap2\n      sub\n      swap1\n      revert\n    tag_160:\n        /* \"contracts/Shops.sol\":8117:8134  Request memory rq */\n      0x00\n        /* \"contracts/Shops.sol\":8137:8146  requestId */\n      0x0f\n        /* \"contracts/Shops.sol\":8147:8149  id */\n      dup5\n        /* \"contracts/Shops.sol\":8137:8150  requestId[id] */\n      mload(0x40)\n      tag_163\n      swap2\n      swap1\n      tag_164\n      jump\t// in\n    tag_163:\n      swap1\n      dup2\n      mstore\n      0x20\n      add\n      mload(0x40)\n      dup1\n      swap2\n      sub\n      swap1\n      keccak256\n        /* \"contracts/Shops.sol\":8117:8150  Request memory rq = requestId[id] */\n      mload(0x40)\n      dup1\n      0x80\n      add\n      0x40\n      mstore\n      swap1\n      dup2\n      0x00\n      dup3\n      add\n      0x00\n      swap1\n      sload\n      swap1\n      0x0100\n      exp\n      swap1\n      div\n      0xffffffffffffffffffffffffffffffffffffffff\n      and\n      0xffffffffffffffffffffffffffffffffffffffff\n      and\n      0xffffffffffffffffffffffffffffffffffffffff\n      and\n      dup2\n      mstore\n      0x20\n      add\n      0x01\n      dup3\n      add\n      sload\n      dup2\n      mstore\n      0x20\n      add\n      0x02\n      dup3\n      add\n      sload\n      dup2\n      mstore\n      0x20\n      add\n      0x03\n      dup3\n      add\n      0x00\n      swap1\n      sload\n      swap1\n      0x0100\n      exp\n      swap1\n      div\n      0xff\n      and\n      iszero\n      iszero\n      iszero\n      iszero\n      dup2\n      mstore\n      pop\n      pop\n      swap1\n      pop\n        /* \"contracts/Shops.sol\":8160:8173  uint userRole */\n      0x00\n        /* \"contracts/Shops.sol\":8176:8178  rq */\n      dup2\n        /* \"contracts/Shops.sol\":8176:8190  rq.desiredRole */\n      0x40\n      add\n      mload\n        /* \"contracts/Shops.sol\":8160:8190  uint userRole = rq.desiredRole */\n      swap1\n      pop\n        /* \"contracts/Shops.sol\":8204:8212  isAccept */\n      dup4\n        /* \"contracts/Shops.sol\":8200:8274  if (isAccept){... */\n      iszero\n      tag_165\n      jumpi\n        /* \"contracts/Shops.sol\":8255:8263  userRole */\n      dup1\n        /* \"contracts/Shops.sol\":8227:8232  users */\n      0x02\n        /* \"contracts/Shops.sol\":8227:8245  users[rq.userAddr] */\n      0x00\n        /* \"contracts/Shops.sol\":8233:8235  rq */\n      dup5\n        /* \"contracts/Shops.sol\":8233:8244  rq.userAddr */\n      0x00\n      add\n      mload\n        /* \"contracts/Shops.sol\":8227:8245  users[rq.userAddr] */\n      0xffffffffffffffffffffffffffffffffffffffff\n      and\n      0xffffffffffffffffffffffffffffffffffffffff\n      and\n      dup2\n      mstore\n      0x20\n      add\n      swap1\n      dup2\n      mstore\n      0x20\n      add\n      0x00\n      keccak256\n        /* \"contracts/Shops.sol\":8227:8252  users[rq.userAddr].status */\n      0x00\n      add\n        /* \"contracts/Shops.sol\":8227:8263  users[rq.userAddr].status = userRole */\n      dup2\n      swap1\n      sstore\n      pop\n        /* \"contracts/Shops.sol\":8200:8274  if (isAccept){... */\n    tag_165:\n        /* \"contracts/Shops.sol\":8307:8311  true */\n      0x01\n        /* \"contracts/Shops.sol\":8283:8292  requestId */\n      0x0f\n        /* \"contracts/Shops.sol\":8293:8295  id */\n      dup7\n        /* \"contracts/Shops.sol\":8283:8296  requestId[id] */\n      mload(0x40)\n      tag_166\n      swap2\n      swap1\n      tag_164\n      jump\t// in\n    tag_166:\n      swap1\n      dup2\n      mstore\n      0x20\n      add\n      mload(0x40)\n      dup1\n      swap2\n      sub\n      swap1\n      keccak256\n        /* \"contracts/Shops.sol\":8283:8304  requestId[id].checked */\n      0x03\n      add\n      0x00\n        /* \"contracts/Shops.sol\":8283:8311  requestId[id].checked = true */\n      0x0100\n      exp\n      dup2\n      sload\n      dup2\n      0xff\n      mul\n      not\n      and\n      swap1\n      dup4\n      iszero\n      iszero\n      mul\n      or\n      swap1\n      sstore\n      pop\n        /* \"contracts/Shops.sol\":8107:8318  {... */\n      pop\n      pop\n        /* \"contracts/Shops.sol\":8016:8318  function checkRequest(string memory id,bool isAccept) public isUserStatus(UserRoles.admin) {... */\n      pop\n      pop\n      pop\n      jump\t// out\n        /* \"contracts/Shops.sol\":2527:2714  function registerBank(string memory bankLogin,address bankAddr) public isAdmin {... */\n    tag_42:\n        /* \"contracts/Shops.sol\":1065:1070  admin */\n      0x05\n      0x00\n      swap1\n      sload\n      swap1\n      0x0100\n      exp\n      swap1\n      div\n      0xffffffffffffffffffffffffffffffffffffffff\n      and\n        /* \"contracts/Shops.sol\":1051:1070  msg.sender == admin */\n      0xffffffffffffffffffffffffffffffffffffffff\n      and\n        /* \"contracts/Shops.sol\":1051:1061  msg.sender */\n      caller\n        /* \"contracts/Shops.sol\":1051:1070  msg.sender == admin */\n      0xffffffffffffffffffffffffffffffffffffffff\n      and\n      eq\n        /* \"contracts/Shops.sol\":1043:1087  require(msg.sender == admin,\"You not admin\") */\n      tag_168\n      jumpi\n      mload(0x40)\n      0x08c379a000000000000000000000000000000000000000000000000000000000\n      dup2\n      mstore\n      0x04\n      add\n      tag_169\n      swap1\n      tag_170\n      jump\t// in\n    tag_169:\n      mload(0x40)\n      dup1\n      swap2\n      sub\n      swap1\n      revert\n    tag_168:\n        /* \"contracts/Shops.sol\":2616:2627  uint status */\n      0x00\n        /* \"contracts/Shops.sol\":2635:2649  UserRoles.bank */\n      0x05\n        /* \"contracts/Shops.sol\":2630:2650  uint(UserRoles.bank) */\n      dup1\n      dup2\n      gt\n      iszero\n      tag_172\n      jumpi\n      tag_173\n      tag_123\n      jump\t// in\n    tag_173:\n    tag_172:\n        /* \"contracts/Shops.sol\":2616:2650  uint status = uint(UserRoles.bank) */\n      swap1\n      pop\n        /* \"contracts/Shops.sol\":2660:2707  registerFromAdmin(\"\",bankLogin,status,bankAddr) */\n      tag_174\n      mload(0x40)\n      dup1\n      0x20\n      add\n      0x40\n      mstore\n      dup1\n      0x00\n      dup2\n      mstore\n      pop\n        /* \"contracts/Shops.sol\":2681:2690  bankLogin */\n      dup5\n        /* \"contracts/Shops.sol\":2691:2697  status */\n      dup4\n        /* \"contracts/Shops.sol\":2698:2706  bankAddr */\n      dup6\n        /* \"contracts/Shops.sol\":2660:2677  registerFromAdmin */\n      tag_175\n        /* \"contracts/Shops.sol\":2660:2707  registerFromAdmin(\"\",bankLogin,status,bankAddr) */\n      jump\t// in\n    tag_174:\n        /* \"contracts/Shops.sol\":2606:2714  {... */\n      pop\n        /* \"contracts/Shops.sol\":2527:2714  function registerBank(string memory bankLogin,address bankAddr) public isAdmin {... */\n      pop\n      pop\n      jump\t// out\n        /* \"contracts/Shops.sol\":5961:6415  function createReview(... */\n    tag_46:\n        /* \"contracts/AuthService.sol\":1464:1503  compare(users[msg.sender].userLogin,\"\") */\n      tag_177\n        /* \"contracts/AuthService.sol\":1472:1477  users */\n      0x02\n        /* \"contracts/AuthService.sol\":1472:1489  users[msg.sender] */\n      0x00\n        /* \"contracts/AuthService.sol\":1478:1488  msg.sender */\n      caller\n        /* \"contracts/AuthService.sol\":1472:1489  users[msg.sender] */\n      0xffffffffffffffffffffffffffffffffffffffff\n      and\n      0xffffffffffffffffffffffffffffffffffffffff\n      and\n      dup2\n      mstore\n      0x20\n      add\n      swap1\n      dup2\n      mstore\n      0x20\n      add\n      0x00\n      keccak256\n        /* \"contracts/AuthService.sol\":1472:1499  users[msg.sender].userLogin */\n      0x01\n      add\n        /* \"contracts/AuthService.sol\":1464:1503  compare(users[msg.sender].userLogin,\"\") */\n      dup1\n      sload\n      tag_178\n      swap1\n      tag_129\n      jump\t// in\n    tag_178:\n      dup1\n      0x1f\n      add\n      0x20\n      dup1\n      swap2\n      div\n      mul\n      0x20\n      add\n      mload(0x40)\n      swap1\n      dup2\n      add\n      0x40\n      mstore\n      dup1\n      swap3\n      swap2\n      swap1\n      dup2\n      dup2\n      mstore\n      0x20\n      add\n      dup3\n      dup1\n      sload\n      tag_179\n      swap1\n      tag_129\n      jump\t// in\n    tag_179:\n      dup1\n      iszero\n      tag_180\n      jumpi\n      dup1\n      0x1f\n      lt\n      tag_181\n      jumpi\n      0x0100\n      dup1\n      dup4\n      sload\n      div\n      mul\n      dup4\n      mstore\n      swap2\n      0x20\n      add\n      swap2\n      jump(tag_180)\n    tag_181:\n      dup3\n      add\n      swap2\n      swap1\n      0x00\n      mstore\n      keccak256(0x00, 0x20)\n      swap1\n    tag_182:\n      dup2\n      sload\n      dup2\n      mstore\n      swap1\n      0x01\n      add\n      swap1\n      0x20\n      add\n      dup1\n      dup4\n      gt\n      tag_182\n      jumpi\n      dup3\n      swap1\n      sub\n      0x1f\n      and\n      dup3\n      add\n      swap2\n    tag_180:\n      pop\n      pop\n      pop\n      pop\n      pop\n      mload(0x40)\n      dup1\n      0x20\n      add\n      0x40\n      mstore\n      dup1\n      0x00\n      dup2\n      mstore\n      pop\n        /* \"contracts/AuthService.sol\":1464:1471  compare */\n      tag_183\n        /* \"contracts/AuthService.sol\":1464:1503  compare(users[msg.sender].userLogin,\"\") */\n      jump\t// in\n    tag_177:\n        /* \"contracts/AuthService.sol\":1463:1503  !compare(users[msg.sender].userLogin,\"\") */\n      iszero\n        /* \"contracts/AuthService.sol\":1455:1519  require(!compare(users[msg.sender].userLogin,\"\"),\"You not user\") */\n      tag_184\n      jumpi\n      mload(0x40)\n      0x08c379a000000000000000000000000000000000000000000000000000000000\n      dup2\n      mstore\n      0x04\n      add\n      tag_185\n      swap1\n      tag_186\n      jump\t// in\n    tag_185:\n      mload(0x40)\n      dup1\n      swap2\n      sub\n      swap1\n      revert\n    tag_184:\n        /* \"contracts/Shops.sol\":6119:6145  address[] memory likeCount */\n      0x60\n        /* \"contracts/Shops.sol\":6155:6184  address[] memory disLikeCount */\n      dup1\n        /* \"contracts/Shops.sol\":6194:6218  Review memory userReview */\n      0x00\n        /* \"contracts/Shops.sol\":6221:6289  Review(msg.sender,shopAddr,userMessage,likeCount,disLikeCount,grade) */\n      mload(0x40)\n      dup1\n      0xc0\n      add\n      0x40\n      mstore\n      dup1\n        /* \"contracts/Shops.sol\":6228:6238  msg.sender */\n      caller\n        /* \"contracts/Shops.sol\":6221:6289  Review(msg.sender,shopAddr,userMessage,likeCount,disLikeCount,grade) */\n      0xffffffffffffffffffffffffffffffffffffffff\n      and\n      dup2\n      mstore\n      0x20\n      add\n        /* \"contracts/Shops.sol\":6239:6247  shopAddr */\n      dup9\n        /* \"contracts/Shops.sol\":6221:6289  Review(msg.sender,shopAddr,userMessage,likeCount,disLikeCount,grade) */\n      0xffffffffffffffffffffffffffffffffffffffff\n      and\n      dup2\n      mstore\n      0x20\n      add\n        /* \"contracts/Shops.sol\":6248:6259  userMessage */\n      dup8\n        /* \"contracts/Shops.sol\":6221:6289  Review(msg.sender,shopAddr,userMessage,likeCount,disLikeCount,grade) */\n      dup2\n      mstore\n      0x20\n      add\n        /* \"contracts/Shops.sol\":6260:6269  likeCount */\n      dup5\n        /* \"contracts/Shops.sol\":6221:6289  Review(msg.sender,shopAddr,userMessage,likeCount,disLikeCount,grade) */\n      dup2\n      mstore\n      0x20\n      add\n        /* \"contracts/Shops.sol\":6270:6282  disLikeCount */\n      dup4\n        /* \"contracts/Shops.sol\":6221:6289  Review(msg.sender,shopAddr,userMessage,likeCount,disLikeCount,grade) */\n      dup2\n      mstore\n      0x20\n      add\n        /* \"contracts/Shops.sol\":6283:6288  grade */\n      dup6\n        /* \"contracts/Shops.sol\":6221:6289  Review(msg.sender,shopAddr,userMessage,likeCount,disLikeCount,grade) */\n      dup2\n      mstore\n      pop\n        /* \"contracts/Shops.sol\":6194:6289  Review memory userReview = Review(msg.sender,shopAddr,userMessage,likeCount,disLikeCount,grade) */\n      swap1\n      pop\n        /* \"contracts/Shops.sol\":6299:6310  shopReviews */\n      0x0d\n        /* \"contracts/Shops.sol\":6299:6320  shopReviews[shopAddr] */\n      0x00\n        /* \"contracts/Shops.sol\":6311:6319  shopAddr */\n      dup9\n        /* \"contracts/Shops.sol\":6299:6320  shopReviews[shopAddr] */\n      0xffffffffffffffffffffffffffffffffffffffff\n      and\n      0xffffffffffffffffffffffffffffffffffffffff\n      and\n      dup2\n      mstore\n      0x20\n      add\n      swap1\n      dup2\n      mstore\n      0x20\n      add\n      0x00\n      keccak256\n        /* \"contracts/Shops.sol\":6326:6328  id */\n      dup6\n        /* \"contracts/Shops.sol\":6299:6329  shopReviews[shopAddr].push(id) */\n      swap1\n      dup1\n      0x01\n      dup2\n      sload\n      add\n      dup1\n      dup3\n      sstore\n      dup1\n      swap2\n      pop\n      pop\n      0x01\n      swap1\n      sub\n      swap1\n      0x00\n      mstore\n      keccak256(0x00, 0x20)\n      add\n      0x00\n      swap1\n      swap2\n      swap1\n      swap2\n      swap1\n      swap2\n      pop\n      swap1\n      dup1\n      mload\n      swap1\n      0x20\n      add\n      swap1\n      tag_189\n      swap3\n      swap2\n      swap1\n      tag_190\n      jump\t// in\n    tag_189:\n      pop\n        /* \"contracts/Shops.sol\":6339:6344  users */\n      0x02\n        /* \"contracts/Shops.sol\":6339:6356  users[msg.sender] */\n      0x00\n        /* \"contracts/Shops.sol\":6345:6355  msg.sender */\n      caller\n        /* \"contracts/Shops.sol\":6339:6356  users[msg.sender] */\n      0xffffffffffffffffffffffffffffffffffffffff\n      and\n      0xffffffffffffffffffffffffffffffffffffffff\n      and\n      dup2\n      mstore\n      0x20\n      add\n      swap1\n      dup2\n      mstore\n      0x20\n      add\n      0x00\n      keccak256\n        /* \"contracts/Shops.sol\":6339:6364  users[msg.sender].reviews */\n      0x03\n      add\n        /* \"contracts/Shops.sol\":6370:6372  id */\n      dup6\n        /* \"contracts/Shops.sol\":6339:6373  users[msg.sender].reviews.push(id) */\n      swap1\n      dup1\n      0x01\n      dup2\n      sload\n      add\n      dup1\n      dup3\n      sstore\n      dup1\n      swap2\n      pop\n      pop\n      0x01\n      swap1\n      sub\n      swap1\n      0x00\n      mstore\n      keccak256(0x00, 0x20)\n      add\n      0x00\n      swap1\n      swap2\n      swap1\n      swap2\n      swap1\n      swap2\n      pop\n      swap1\n      dup1\n      mload\n      swap1\n      0x20\n      add\n      swap1\n      tag_192\n      swap3\n      swap2\n      swap1\n      tag_190\n      jump\t// in\n    tag_192:\n      pop\n        /* \"contracts/Shops.sol\":6398:6408  userReview */\n      dup1\n        /* \"contracts/Shops.sol\":6383:6391  reviewId */\n      0x0e\n        /* \"contracts/Shops.sol\":6392:6394  id */\n      dup7\n        /* \"contracts/Shops.sol\":6383:6395  reviewId[id] */\n      mload(0x40)\n      tag_193\n      swap2\n      swap1\n      tag_164\n      jump\t// in\n    tag_193:\n      swap1\n      dup2\n      mstore\n      0x20\n      add\n      mload(0x40)\n      dup1\n      swap2\n      sub\n      swap1\n      keccak256\n        /* \"contracts/Shops.sol\":6383:6408  reviewId[id] = userReview */\n      0x00\n      dup3\n      add\n      mload\n      dup2\n      0x00\n      add\n      exp(0x0100, 0x00)\n      dup2\n      sload\n      dup2\n      0xffffffffffffffffffffffffffffffffffffffff\n      mul\n      not\n      and\n      swap1\n      dup4\n      0xffffffffffffffffffffffffffffffffffffffff\n      and\n      mul\n      or\n      swap1\n      sstore\n      pop\n      0x20\n      dup3\n      add\n      mload\n      dup2\n      0x01\n      add\n      exp(0x0100, 0x00)\n      dup2\n      sload\n      dup2\n      0xffffffffffffffffffffffffffffffffffffffff\n      mul\n      not\n      and\n      swap1\n      dup4\n      0xffffffffffffffffffffffffffffffffffffffff\n      and\n      mul\n      or\n      swap1\n      sstore\n      pop\n      0x40\n      dup3\n      add\n      mload\n      dup2\n      0x02\n      add\n      swap1\n      dup1\n      mload\n      swap1\n      0x20\n      add\n      swap1\n      tag_194\n      swap3\n      swap2\n      swap1\n      tag_190\n      jump\t// in\n    tag_194:\n      pop\n      0x60\n      dup3\n      add\n      mload\n      dup2\n      0x03\n      add\n      swap1\n      dup1\n      mload\n      swap1\n      0x20\n      add\n      swap1\n      tag_195\n      swap3\n      swap2\n      swap1\n      tag_196\n      jump\t// in\n    tag_195:\n      pop\n      0x80\n      dup3\n      add\n      mload\n      dup2\n      0x04\n      add\n      swap1\n      dup1\n      mload\n      swap1\n      0x20\n      add\n      swap1\n      tag_197\n      swap3\n      swap2\n      swap1\n      tag_196\n      jump\t// in\n    tag_197:\n      pop\n      0xa0\n      dup3\n      add\n      mload\n      dup2\n      0x05\n      add\n      sstore\n      swap1\n      pop\n      pop\n        /* \"contracts/Shops.sol\":6109:6415  {... */\n      pop\n      pop\n      pop\n        /* \"contracts/Shops.sol\":5961:6415  function createReview(... */\n      pop\n      pop\n      pop\n      pop\n      jump\t// out\n        /* \"contracts/Shops.sol\":6905:7391  function getReviewById(string memory id) public view returns(... */\n    tag_50:\n        /* \"contracts/Shops.sol\":6975:6992  address autorAddr */\n      0x00\n        /* \"contracts/Shops.sol\":7002:7018  address shopAddr */\n      dup1\n        /* \"contracts/Shops.sol\":7028:7055  string memory reviewMessage */\n      0x60\n        /* \"contracts/Shops.sol\":7065:7079  uint likeCount */\n      0x00\n        /* \"contracts/Shops.sol\":7089:7106  uint disLikeCount */\n      dup1\n        /* \"contracts/Shops.sol\":7116:7125  int grade */\n      0x00\n        /* \"contracts/Shops.sol\":7141:7156  Review memory r */\n      dup1\n        /* \"contracts/Shops.sol\":7159:7167  reviewId */\n      0x0e\n        /* \"contracts/Shops.sol\":7168:7170  id */\n      dup9\n        /* \"contracts/Shops.sol\":7159:7171  reviewId[id] */\n      mload(0x40)\n      tag_199\n      swap2\n      swap1\n      tag_164\n      jump\t// in\n    tag_199:\n      swap1\n      dup2\n      mstore\n      0x20\n      add\n      mload(0x40)\n      dup1\n      swap2\n      sub\n      swap1\n      keccak256\n        /* \"contracts/Shops.sol\":7141:7171  Review memory r = reviewId[id] */\n      mload(0x40)\n      dup1\n      0xc0\n      add\n      0x40\n      mstore\n      swap1\n      dup2\n      0x00\n      dup3\n      add\n      0x00\n      swap1\n      sload\n      swap1\n      0x0100\n      exp\n      swap1\n      div\n      0xffffffffffffffffffffffffffffffffffffffff\n      and\n      0xffffffffffffffffffffffffffffffffffffffff\n      and\n      0xffffffffffffffffffffffffffffffffffffffff\n      and\n      dup2\n      mstore\n      0x20\n      add\n      0x01\n      dup3\n      add\n      0x00\n      swap1\n      sload\n      swap1\n      0x0100\n      exp\n      swap1\n      div\n      0xffffffffffffffffffffffffffffffffffffffff\n      and\n      0xffffffffffffffffffffffffffffffffffffffff\n      and\n      0xffffffffffffffffffffffffffffffffffffffff\n      and\n      dup2\n      mstore\n      0x20\n      add\n      0x02\n      dup3\n      add\n      dup1\n      sload\n      tag_200\n      swap1\n      tag_129\n      jump\t// in\n    tag_200:\n      dup1\n      0x1f\n      add\n      0x20\n      dup1\n      swap2\n      div\n      mul\n      0x20\n      add\n      mload(0x40)\n      swap1\n      dup2\n      add\n      0x40\n      mstore\n      dup1\n      swap3\n      swap2\n      swap1\n      dup2\n      dup2\n      mstore\n      0x20\n      add\n      dup3\n      dup1\n      sload\n      tag_201\n      swap1\n      tag_129\n      jump\t// in\n    tag_201:\n      dup1\n      iszero\n      tag_202\n      jumpi\n      dup1\n      0x1f\n      lt\n      tag_203\n      jumpi\n      0x0100\n      dup1\n      dup4\n      sload\n      div\n      mul\n      dup4\n      mstore\n      swap2\n      0x20\n      add\n      swap2\n      jump(tag_202)\n    tag_203:\n      dup3\n      add\n      swap2\n      swap1\n      0x00\n      mstore\n      keccak256(0x00, 0x20)\n      swap1\n    tag_204:\n      dup2\n      sload\n      dup2\n      mstore\n      swap1\n      0x01\n      add\n      swap1\n      0x20\n      add\n      dup1\n      dup4\n      gt\n      tag_204\n      jumpi\n      dup3\n      swap1\n      sub\n      0x1f\n      and\n      dup3\n      add\n      swap2\n    tag_202:\n      pop\n      pop\n      pop\n      pop\n      pop\n      dup2\n      mstore\n      0x20\n      add\n      0x03\n      dup3\n      add\n      dup1\n      sload\n      dup1\n      0x20\n      mul\n      0x20\n      add\n      mload(0x40)\n      swap1\n      dup2\n      add\n      0x40\n      mstore\n      dup1\n      swap3\n      swap2\n      swap1\n      dup2\n      dup2\n      mstore\n      0x20\n      add\n      dup3\n      dup1\n      sload\n      dup1\n      iszero\n      tag_205\n      jumpi\n      0x20\n      mul\n      dup3\n      add\n      swap2\n      swap1\n      0x00\n      mstore\n      keccak256(0x00, 0x20)\n      swap1\n    tag_206:\n      dup2\n      0x00\n      swap1\n      sload\n      swap1\n      0x0100\n      exp\n      swap1\n      div\n      0xffffffffffffffffffffffffffffffffffffffff\n      and\n      0xffffffffffffffffffffffffffffffffffffffff\n      and\n      dup2\n      mstore\n      0x20\n      add\n      swap1\n      0x01\n      add\n      swap1\n      dup1\n      dup4\n      gt\n      tag_206\n      jumpi\n    tag_205:\n      pop\n      pop\n      pop\n      pop\n      pop\n      dup2\n      mstore\n      0x20\n      add\n      0x04\n      dup3\n      add\n      dup1\n      sload\n      dup1\n      0x20\n      mul\n      0x20\n      add\n      mload(0x40)\n      swap1\n      dup2\n      add\n      0x40\n      mstore\n      dup1\n      swap3\n      swap2\n      swap1\n      dup2\n      dup2\n      mstore\n      0x20\n      add\n      dup3\n      dup1\n      sload\n      dup1\n      iszero\n      tag_207\n      jumpi\n      0x20\n      mul\n      dup3\n      add\n      swap2\n      swap1\n      0x00\n      mstore\n      keccak256(0x00, 0x20)\n      swap1\n    tag_208:\n      dup2\n      0x00\n      swap1\n      sload\n      swap1\n      0x0100\n      exp\n      swap1\n      div\n      0xffffffffffffffffffffffffffffffffffffffff\n      and\n      0xffffffffffffffffffffffffffffffffffffffff\n      and\n      dup2\n      mstore\n      0x20\n      add\n      swap1\n      0x01\n      add\n      swap1\n      dup1\n      dup4\n      gt\n      tag_208\n      jumpi\n    tag_207:\n      pop\n      pop\n      pop\n      pop\n      pop\n      dup2\n      mstore\n      0x20\n      add\n      0x05\n      dup3\n      add\n      sload\n      dup2\n      mstore\n      pop\n      pop\n      swap1\n      pop\n        /* \"contracts/Shops.sol\":7193:7194  r */\n      dup1\n        /* \"contracts/Shops.sol\":7193:7207  r.autorAddress */\n      0x00\n      add\n      mload\n        /* \"contracts/Shops.sol\":7181:7207  autorAddr = r.autorAddress */\n      swap7\n      pop\n        /* \"contracts/Shops.sol\":7228:7229  r */\n      dup1\n        /* \"contracts/Shops.sol\":7228:7238  r.shopAddr */\n      0x20\n      add\n      mload\n        /* \"contracts/Shops.sol\":7217:7238  shopAddr = r.shopAddr */\n      swap6\n      pop\n        /* \"contracts/Shops.sol\":7264:7265  r */\n      dup1\n        /* \"contracts/Shops.sol\":7264:7273  r.message */\n      0x40\n      add\n      mload\n        /* \"contracts/Shops.sol\":7248:7273  reviewMessage = r.message */\n      swap5\n      pop\n        /* \"contracts/Shops.sol\":7295:7296  r */\n      dup1\n        /* \"contracts/Shops.sol\":7295:7306  r.likeCount */\n      0x60\n      add\n      mload\n        /* \"contracts/Shops.sol\":7295:7313  r.likeCount.length */\n      mload\n        /* \"contracts/Shops.sol\":7283:7313  likeCount = r.likeCount.length */\n      swap4\n      pop\n        /* \"contracts/Shops.sol\":7338:7339  r */\n      dup1\n        /* \"contracts/Shops.sol\":7338:7352  r.disLikeCount */\n      0x80\n      add\n      mload\n        /* \"contracts/Shops.sol\":7338:7359  r.disLikeCount.length */\n      mload\n        /* \"contracts/Shops.sol\":7323:7359  disLikeCount = r.disLikeCount.length */\n      swap3\n      pop\n        /* \"contracts/Shops.sol\":7377:7378  r */\n      dup1\n        /* \"contracts/Shops.sol\":7377:7384  r.grade */\n      0xa0\n      add\n      mload\n        /* \"contracts/Shops.sol\":7369:7384  grade = r.grade */\n      swap2\n      pop\n        /* \"contracts/Shops.sol\":7131:7391  {... */\n      pop\n        /* \"contracts/Shops.sol\":6905:7391  function getReviewById(string memory id) public view returns(... */\n      swap2\n      swap4\n      swap6\n      pop\n      swap2\n      swap4\n      swap6\n      jump\t// out\n        /* \"contracts/AuthService.sol\":2255:2555  function login(string memory userLogin) public view isRegistered(userLogin) returns(address userAddress,string memory status){... */\n    tag_55:\n        /* \"contracts/AuthService.sol\":2339:2358  address userAddress */\n      0x00\n        /* \"contracts/AuthService.sol\":2359:2379  string memory status */\n      0x60\n        /* \"contracts/AuthService.sol\":2320:2329  userLogin */\n      dup3\n        /* \"contracts/AuthService.sol\":1387:1388  0 */\n      0x00\n        /* \"contracts/AuthService.sol\":1354:1389  userLogins[userLogin] != address(0) */\n      0xffffffffffffffffffffffffffffffffffffffff\n      and\n        /* \"contracts/AuthService.sol\":1354:1364  userLogins */\n      0x01\n        /* \"contracts/AuthService.sol\":1365:1374  userLogin */\n      dup3\n        /* \"contracts/AuthService.sol\":1354:1375  userLogins[userLogin] */\n      mload(0x40)\n      tag_210\n      swap2\n      swap1\n      tag_164\n      jump\t// in\n    tag_210:\n      swap1\n      dup2\n      mstore\n      0x20\n      add\n      mload(0x40)\n      dup1\n      swap2\n      sub\n      swap1\n      keccak256\n      0x00\n      swap1\n      sload\n      swap1\n      0x0100\n      exp\n      swap1\n      div\n      0xffffffffffffffffffffffffffffffffffffffff\n      and\n        /* \"contracts/AuthService.sol\":1354:1389  userLogins[userLogin] != address(0) */\n      0xffffffffffffffffffffffffffffffffffffffff\n      and\n      eq\n      iszero\n        /* \"contracts/AuthService.sol\":1346:1404  require(userLogins[userLogin] != address(0),\"Wrong Login\") */\n      tag_211\n      jumpi\n      mload(0x40)\n      0x08c379a000000000000000000000000000000000000000000000000000000000\n      dup2\n      mstore\n      0x04\n      add\n      tag_212\n      swap1\n      tag_213\n      jump\t// in\n    tag_212:\n      mload(0x40)\n      dup1\n      swap2\n      sub\n      swap1\n      revert\n    tag_211:\n        /* \"contracts/AuthService.sol\":2390:2406  address userAddr */\n      0x00\n        /* \"contracts/AuthService.sol\":2409:2419  userLogins */\n      0x01\n        /* \"contracts/AuthService.sol\":2420:2429  userLogin */\n      dup6\n        /* \"contracts/AuthService.sol\":2409:2430  userLogins[userLogin] */\n      mload(0x40)\n      tag_215\n      swap2\n      swap1\n      tag_164\n      jump\t// in\n    tag_215:\n      swap1\n      dup2\n      mstore\n      0x20\n      add\n      mload(0x40)\n      dup1\n      swap2\n      sub\n      swap1\n      keccak256\n      0x00\n      swap1\n      sload\n      swap1\n      0x0100\n      exp\n      swap1\n      div\n      0xffffffffffffffffffffffffffffffffffffffff\n      and\n        /* \"contracts/AuthService.sol\":2390:2430  address userAddr = userLogins[userLogin] */\n      swap1\n      pop\n        /* \"contracts/AuthService.sol\":2440:2456  User memory user */\n      0x00\n        /* \"contracts/AuthService.sol\":2459:2464  users */\n      0x02\n        /* \"contracts/AuthService.sol\":2459:2474  users[userAddr] */\n      0x00\n        /* \"contracts/AuthService.sol\":2465:2473  userAddr */\n      dup4\n        /* \"contracts/AuthService.sol\":2459:2474  users[userAddr] */\n      0xffffffffffffffffffffffffffffffffffffffff\n      and\n      0xffffffffffffffffffffffffffffffffffffffff\n      and\n      dup2\n      mstore\n      0x20\n      add\n      swap1\n      dup2\n      mstore\n      0x20\n      add\n      0x00\n      keccak256\n        /* \"contracts/AuthService.sol\":2440:2474  User memory user = users[userAddr] */\n      mload(0x40)\n      dup1\n      0x80\n      add\n      0x40\n      mstore\n      swap1\n      dup2\n      0x00\n      dup3\n      add\n      sload\n      dup2\n      mstore\n      0x20\n      add\n      0x01\n      dup3\n      add\n      dup1\n      sload\n      tag_216\n      swap1\n      tag_129\n      jump\t// in\n    tag_216:\n      dup1\n      0x1f\n      add\n      0x20\n      dup1\n      swap2\n      div\n      mul\n      0x20\n      add\n      mload(0x40)\n      swap1\n      dup2\n      add\n      0x40\n      mstore\n      dup1\n      swap3\n      swap2\n      swap1\n      dup2\n      dup2\n      mstore\n      0x20\n      add\n      dup3\n      dup1\n      sload\n      tag_217\n      swap1\n      tag_129\n      jump\t// in\n    tag_217:\n      dup1\n      iszero\n      tag_218\n      jumpi\n      dup1\n      0x1f\n      lt\n      tag_219\n      jumpi\n      0x0100\n      dup1\n      dup4\n      sload\n      div\n      mul\n      dup4\n      mstore\n      swap2\n      0x20\n      add\n      swap2\n      jump(tag_218)\n    tag_219:\n      dup3\n      add\n      swap2\n      swap1\n      0x00\n      mstore\n      keccak256(0x00, 0x20)\n      swap1\n    tag_220:\n      dup2\n      sload\n      dup2\n      mstore\n      swap1\n      0x01\n      add\n      swap1\n      0x20\n      add\n      dup1\n      dup4\n      gt\n      tag_220\n      jumpi\n      dup3\n      swap1\n      sub\n      0x1f\n      and\n      dup3\n      add\n      swap2\n    tag_218:\n      pop\n      pop\n      pop\n      pop\n      pop\n      dup2\n      mstore\n      0x20\n      add\n      0x02\n      dup3\n      add\n      dup1\n      sload\n      tag_221\n      swap1\n      tag_129\n      jump\t// in\n    tag_221:\n      dup1\n      0x1f\n      add\n      0x20\n      dup1\n      swap2\n      div\n      mul\n      0x20\n      add\n      mload(0x40)\n      swap1\n      dup2\n      add\n      0x40\n      mstore\n      dup1\n      swap3\n      swap2\n      swap1\n      dup2\n      dup2\n      mstore\n      0x20\n      add\n      dup3\n      dup1\n      sload\n      tag_222\n      swap1\n      tag_129\n      jump\t// in\n    tag_222:\n      dup1\n      iszero\n      tag_223\n      jumpi\n      dup1\n      0x1f\n      lt\n      tag_224\n      jumpi\n      0x0100\n      dup1\n      dup4\n      sload\n      div\n      mul\n      dup4\n      mstore\n      swap2\n      0x20\n      add\n      swap2\n      jump(tag_223)\n    tag_224:\n      dup3\n      add\n      swap2\n      swap1\n      0x00\n      mstore\n      keccak256(0x00, 0x20)\n      swap1\n    tag_225:\n      dup2\n      sload\n      dup2\n      mstore\n      swap1\n      0x01\n      add\n      swap1\n      0x20\n      add\n      dup1\n      dup4\n      gt\n      tag_225\n      jumpi\n      dup3\n      swap1\n      sub\n      0x1f\n      and\n      dup3\n      add\n      swap2\n    tag_223:\n      pop\n      pop\n      pop\n      pop\n      pop\n      dup2\n      mstore\n      0x20\n      add\n      0x03\n      dup3\n      add\n      dup1\n      sload\n      dup1\n      0x20\n      mul\n      0x20\n      add\n      mload(0x40)\n      swap1\n      dup2\n      add\n      0x40\n      mstore\n      dup1\n      swap3\n      swap2\n      swap1\n      dup2\n      dup2\n      mstore\n      0x20\n      add\n      0x00\n      swap1\n    tag_226:\n      dup3\n      dup3\n      lt\n      iszero\n      tag_227\n      jumpi\n      dup4\n      dup3\n      swap1\n      0x00\n      mstore\n      keccak256(0x00, 0x20)\n      add\n      dup1\n      sload\n      tag_229\n      swap1\n      tag_129\n      jump\t// in\n    tag_229:\n      dup1\n      0x1f\n      add\n      0x20\n      dup1\n      swap2\n      div\n      mul\n      0x20\n      add\n      mload(0x40)\n      swap1\n      dup2\n      add\n      0x40\n      mstore\n      dup1\n      swap3\n      swap2\n      swap1\n      dup2\n      dup2\n      mstore\n      0x20\n      add\n      dup3\n      dup1\n      sload\n      tag_230\n      swap1\n      tag_129\n      jump\t// in\n    tag_230:\n      dup1\n      iszero\n      tag_231\n      jumpi\n      dup1\n      0x1f\n      lt\n      tag_232\n      jumpi\n      0x0100\n      dup1\n      dup4\n      sload\n      div\n      mul\n      dup4\n      mstore\n      swap2\n      0x20\n      add\n      swap2\n      jump(tag_231)\n    tag_232:\n      dup3\n      add\n      swap2\n      swap1\n      0x00\n      mstore\n      keccak256(0x00, 0x20)\n      swap1\n    tag_233:\n      dup2\n      sload\n      dup2\n      mstore\n      swap1\n      0x01\n      add\n      swap1\n      0x20\n      add\n      dup1\n      dup4\n      gt\n      tag_233\n      jumpi\n      dup3\n      swap1\n      sub\n      0x1f\n      and\n      dup3\n      add\n      swap2\n    tag_231:\n      pop\n      pop\n      pop\n      pop\n      pop\n      dup2\n      mstore\n      0x20\n      add\n      swap1\n      0x01\n      add\n      swap1\n      jump(tag_226)\n    tag_227:\n      pop\n      pop\n      pop\n      pop\n      dup2\n      mstore\n      pop\n      pop\n      swap1\n      pop\n        /* \"contracts/AuthService.sol\":2498:2506  userAddr */\n      dup2\n        /* \"contracts/AuthService.sol\":2484:2506  userAddress = userAddr */\n      swap5\n      pop\n        /* \"contracts/AuthService.sol\":2525:2535  userStatus */\n      0x00\n        /* \"contracts/AuthService.sol\":2525:2548  userStatus[user.status] */\n      dup1\n        /* \"contracts/AuthService.sol\":2536:2540  user */\n      dup3\n        /* \"contracts/AuthService.sol\":2536:2547  user.status */\n      0x00\n      add\n      mload\n        /* \"contracts/AuthService.sol\":2525:2548  userStatus[user.status] */\n      dup2\n      mstore\n      0x20\n      add\n      swap1\n      dup2\n      mstore\n      0x20\n      add\n      0x00\n      keccak256\n        /* \"contracts/AuthService.sol\":2516:2548  status = userStatus[user.status] */\n      dup1\n      sload\n      tag_234\n      swap1\n      tag_129\n      jump\t// in\n    tag_234:\n      dup1\n      0x1f\n      add\n      0x20\n      dup1\n      swap2\n      div\n      mul\n      0x20\n      add\n      mload(0x40)\n      swap1\n      dup2\n      add\n      0x40\n      mstore\n      dup1\n      swap3\n      swap2\n      swap1\n      dup2\n      dup2\n      mstore\n      0x20\n      add\n      dup3\n      dup1\n      sload\n      tag_235\n      swap1\n      tag_129\n      jump\t// in\n    tag_235:\n      dup1\n      iszero\n      tag_236\n      jumpi\n      dup1\n      0x1f\n      lt\n      tag_237\n      jumpi\n      0x0100\n      dup1\n      dup4\n      sload\n      div\n      mul\n      dup4\n      mstore\n      swap2\n      0x20\n      add\n      swap2\n      jump(tag_236)\n    tag_237:\n      dup3\n      add\n      swap2\n      swap1\n      0x00\n      mstore\n      keccak256(0x00, 0x20)\n      swap1\n    tag_238:\n      dup2\n      sload\n      dup2\n      mstore\n      swap1\n      0x01\n      add\n      swap1\n      0x20\n      add\n      dup1\n      dup4\n      gt\n      tag_238\n      jumpi\n      dup3\n      swap1\n      sub\n      0x1f\n      and\n      dup3\n      add\n      swap2\n    tag_236:\n      pop\n      pop\n      pop\n      pop\n      pop\n      swap4\n      pop\n        /* \"contracts/AuthService.sol\":2380:2555  {... */\n      pop\n      pop\n        /* \"contracts/AuthService.sol\":2255:2555  function login(string memory userLogin) public view isRegistered(userLogin) returns(address userAddress,string memory status){... */\n      pop\n      swap2\n      pop\n      swap2\n      jump\t// out\n        /* \"contracts/Shops.sol\":3723:4314  function getSellerInfo() public view isUserStatus(UserRoles.seller) returns(... */\n    tag_59:\n        /* \"contracts/Shops.sol\":3808:3833  string memory sellerLogin */\n      0x60\n        /* \"contracts/Shops.sol\":3843:3860  string memory fio */\n      dup1\n        /* \"contracts/Shops.sol\":3870:3888  string memory city */\n      0x60\n        /* \"contracts/Shops.sol\":3898:3922  string memory shopNumber */\n      dup1\n        /* \"contracts/Shops.sol\":3932:3955  string[] memory reviews */\n      0x60\n        /* \"contracts/Shops.sol\":3773:3789  UserRoles.seller */\n      0x01\n        /* \"contracts/AuthService.sol\":1616:1621  users */\n      0x02\n        /* \"contracts/AuthService.sol\":1616:1633  users[msg.sender] */\n      0x00\n        /* \"contracts/AuthService.sol\":1622:1632  msg.sender */\n      caller\n        /* \"contracts/AuthService.sol\":1616:1633  users[msg.sender] */\n      0xffffffffffffffffffffffffffffffffffffffff\n      and\n      0xffffffffffffffffffffffffffffffffffffffff\n      and\n      dup2\n      mstore\n      0x20\n      add\n      swap1\n      dup2\n      mstore\n      0x20\n      add\n      0x00\n      keccak256\n        /* \"contracts/AuthService.sol\":1616:1640  users[msg.sender].status */\n      0x00\n      add\n      sload\n        /* \"contracts/AuthService.sol\":1605:1611  status */\n      dup2\n        /* \"contracts/AuthService.sol\":1600:1612  uint(status) */\n      0x05\n      dup2\n      gt\n      iszero\n      tag_240\n      jumpi\n      tag_241\n      tag_123\n      jump\t// in\n    tag_241:\n    tag_240:\n        /* \"contracts/AuthService.sol\":1600:1640  uint(status) == users[msg.sender].status */\n      eq\n        /* \"contracts/AuthService.sol\":1592:1653  require(uint(status) == users[msg.sender].status,\"Forbidden\") */\n      tag_242\n      jumpi\n      mload(0x40)\n      0x08c379a000000000000000000000000000000000000000000000000000000000\n      dup2\n      mstore\n      0x04\n      add\n      tag_243\n      swap1\n      tag_126\n      jump\t// in\n    tag_243:\n      mload(0x40)\n      dup1\n      swap2\n      sub\n      swap1\n      revert\n    tag_242:\n        /* \"contracts/Shops.sol\":3971:3991  User memory sellUser */\n      0x00\n        /* \"contracts/Shops.sol\":3994:3999  users */\n      0x02\n        /* \"contracts/Shops.sol\":3994:4011  users[msg.sender] */\n      0x00\n        /* \"contracts/Shops.sol\":4000:4010  msg.sender */\n      caller\n        /* \"contracts/Shops.sol\":3994:4011  users[msg.sender] */\n      0xffffffffffffffffffffffffffffffffffffffff\n      and\n      0xffffffffffffffffffffffffffffffffffffffff\n      and\n      dup2\n      mstore\n      0x20\n      add\n      swap1\n      dup2\n      mstore\n      0x20\n      add\n      0x00\n      keccak256\n        /* \"contracts/Shops.sol\":3971:4011  User memory sellUser = users[msg.sender] */\n      mload(0x40)\n      dup1\n      0x80\n      add\n      0x40\n      mstore\n      swap1\n      dup2\n      0x00\n      dup3\n      add\n      sload\n      dup2\n      mstore\n      0x20\n      add\n      0x01\n      dup3\n      add\n      dup1\n      sload\n      tag_245\n      swap1\n      tag_129\n      jump\t// in\n    tag_245:\n      dup1\n      0x1f\n      add\n      0x20\n      dup1\n      swap2\n      div\n      mul\n      0x20\n      add\n      mload(0x40)\n      swap1\n      dup2\n      add\n      0x40\n      mstore\n      dup1\n      swap3\n      swap2\n      swap1\n      dup2\n      dup2\n      mstore\n      0x20\n      add\n      dup3\n      dup1\n      sload\n      tag_246\n      swap1\n      tag_129\n      jump\t// in\n    tag_246:\n      dup1\n      iszero\n      tag_247\n      jumpi\n      dup1\n      0x1f\n      lt\n      tag_248\n      jumpi\n      0x0100\n      dup1\n      dup4\n      sload\n      div\n      mul\n      dup4\n      mstore\n      swap2\n      0x20\n      add\n      swap2\n      jump(tag_247)\n    tag_248:\n      dup3\n      add\n      swap2\n      swap1\n      0x00\n      mstore\n      keccak256(0x00, 0x20)\n      swap1\n    tag_249:\n      dup2\n      sload\n      dup2\n      mstore\n      swap1\n      0x01\n      add\n      swap1\n      0x20\n      add\n      dup1\n      dup4\n      gt\n      tag_249\n      jumpi\n      dup3\n      swap1\n      sub\n      0x1f\n      and\n      dup3\n      add\n      swap2\n    tag_247:\n      pop\n      pop\n      pop\n      pop\n      pop\n      dup2\n      mstore\n      0x20\n      add\n      0x02\n      dup3\n      add\n      dup1\n      sload\n      tag_250\n      swap1\n      tag_129\n      jump\t// in\n    tag_250:\n      dup1\n      0x1f\n      add\n      0x20\n      dup1\n      swap2\n      div\n      mul\n      0x20\n      add\n      mload(0x40)\n      swap1\n      dup2\n      add\n      0x40\n      mstore\n      dup1\n      swap3\n      swap2\n      swap1\n      dup2\n      dup2\n      mstore\n      0x20\n      add\n      dup3\n      dup1\n      sload\n      tag_251\n      swap1\n      tag_129\n      jump\t// in\n    tag_251:\n      dup1\n      iszero\n      tag_252\n      jumpi\n      dup1\n      0x1f\n      lt\n      tag_253\n      jumpi\n      0x0100\n      dup1\n      dup4\n      sload\n      div\n      mul\n      dup4\n      mstore\n      swap2\n      0x20\n      add\n      swap2\n      jump(tag_252)\n    tag_253:\n      dup3\n      add\n      swap2\n      swap1\n      0x00\n      mstore\n      keccak256(0x00, 0x20)\n      swap1\n    tag_254:\n      dup2\n      sload\n      dup2\n      mstore\n      swap1\n      0x01\n      add\n      swap1\n      0x20\n      add\n      dup1\n      dup4\n      gt\n      tag_254\n      jumpi\n      dup3\n      swap1\n      sub\n      0x1f\n      and\n      dup3\n      add\n      swap2\n    tag_252:\n      pop\n      pop\n      pop\n      pop\n      pop\n      dup2\n      mstore\n      0x20\n      add\n      0x03\n      dup3\n      add\n      dup1\n      sload\n      dup1\n      0x20\n      mul\n      0x20\n      add\n      mload(0x40)\n      swap1\n      dup2\n      add\n      0x40\n      mstore\n      dup1\n      swap3\n      swap2\n      swap1\n      dup2\n      dup2\n      mstore\n      0x20\n      add\n      0x00\n      swap1\n    tag_255:\n      dup3\n      dup3\n      lt\n      iszero\n      tag_256\n      jumpi\n      dup4\n      dup3\n      swap1\n      0x00\n      mstore\n      keccak256(0x00, 0x20)\n      add\n      dup1\n      sload\n      tag_258\n      swap1\n      tag_129\n      jump\t// in\n    tag_258:\n      dup1\n      0x1f\n      add\n      0x20\n      dup1\n      swap2\n      div\n      mul\n      0x20\n      add\n      mload(0x40)\n      swap1\n      dup2\n      add\n      0x40\n      mstore\n      dup1\n      swap3\n      swap2\n      swap1\n      dup2\n      dup2\n      mstore\n      0x20\n      add\n      dup3\n      dup1\n      sload\n      tag_259\n      swap1\n      tag_129\n      jump\t// in\n    tag_259:\n      dup1\n      iszero\n      tag_260\n      jumpi\n      dup1\n      0x1f\n      lt\n      tag_261\n      jumpi\n      0x0100\n      dup1\n      dup4\n      sload\n      div\n      mul\n      dup4\n      mstore\n      swap2\n      0x20\n      add\n      swap2\n      jump(tag_260)\n    tag_261:\n      dup3\n      add\n      swap2\n      swap1\n      0x00\n      mstore\n      keccak256(0x00, 0x20)\n      swap1\n    tag_262:\n      dup2\n      sload\n      dup2\n      mstore\n      swap1\n      0x01\n      add\n      swap1\n      0x20\n      add\n      dup1\n      dup4\n      gt\n      tag_262\n      jumpi\n      dup3\n      swap1\n      sub\n      0x1f\n      and\n      dup3\n      add\n      swap2\n    tag_260:\n      pop\n      pop\n      pop\n      pop\n      pop\n      dup2\n      mstore\n      0x20\n      add\n      swap1\n      0x01\n      add\n      swap1\n      jump(tag_255)\n    tag_256:\n      pop\n      pop\n      pop\n      pop\n      dup2\n      mstore\n      pop\n      pop\n      swap1\n      pop\n        /* \"contracts/Shops.sol\":4021:4041  address sellShopAddr */\n      0x00\n        /* \"contracts/Shops.sol\":4044:4056  salesmanShop */\n      0x0b\n        /* \"contracts/Shops.sol\":4044:4068  salesmanShop[msg.sender] */\n      0x00\n        /* \"contracts/Shops.sol\":4057:4067  msg.sender */\n      caller\n        /* \"contracts/Shops.sol\":4044:4068  salesmanShop[msg.sender] */\n      0xffffffffffffffffffffffffffffffffffffffff\n      and\n      0xffffffffffffffffffffffffffffffffffffffff\n      and\n      dup2\n      mstore\n      0x20\n      add\n      swap1\n      dup2\n      mstore\n      0x20\n      add\n      0x00\n      keccak256\n      0x00\n      swap1\n      sload\n      swap1\n      0x0100\n      exp\n      swap1\n      div\n      0xffffffffffffffffffffffffffffffffffffffff\n      and\n        /* \"contracts/Shops.sol\":4021:4068  address sellShopAddr = salesmanShop[msg.sender] */\n      swap1\n      pop\n        /* \"contracts/Shops.sol\":4078:4098  Shop memory sellShop */\n      0x00\n        /* \"contracts/Shops.sol\":4101:4110  ShopsList */\n      0x0a\n        /* \"contracts/Shops.sol\":4101:4124  ShopsList[sellShopAddr] */\n      0x00\n        /* \"contracts/Shops.sol\":4111:4123  sellShopAddr */\n      dup4\n        /* \"contracts/Shops.sol\":4101:4124  ShopsList[sellShopAddr] */\n      0xffffffffffffffffffffffffffffffffffffffff\n      and\n      0xffffffffffffffffffffffffffffffffffffffff\n      and\n      dup2\n      mstore\n      0x20\n      add\n      swap1\n      dup2\n      mstore\n      0x20\n      add\n      0x00\n      keccak256\n        /* \"contracts/Shops.sol\":4078:4124  Shop memory sellShop = ShopsList[sellShopAddr] */\n      mload(0x40)\n      dup1\n      0x60\n      add\n      0x40\n      mstore\n      swap1\n      dup2\n      0x00\n      dup3\n      add\n      dup1\n      sload\n      tag_263\n      swap1\n      tag_129\n      jump\t// in\n    tag_263:\n      dup1\n      0x1f\n      add\n      0x20\n      dup1\n      swap2\n      div\n      mul\n      0x20\n      add\n      mload(0x40)\n      swap1\n      dup2\n      add\n      0x40\n      mstore\n      dup1\n      swap3\n      swap2\n      swap1\n      dup2\n      dup2\n      mstore\n      0x20\n      add\n      dup3\n      dup1\n      sload\n      tag_264\n      swap1\n      tag_129\n      jump\t// in\n    tag_264:\n      dup1\n      iszero\n      tag_265\n      jumpi\n      dup1\n      0x1f\n      lt\n      tag_266\n      jumpi\n      0x0100\n      dup1\n      dup4\n      sload\n      div\n      mul\n      dup4\n      mstore\n      swap2\n      0x20\n      add\n      swap2\n      jump(tag_265)\n    tag_266:\n      dup3\n      add\n      swap2\n      swap1\n      0x00\n      mstore\n      keccak256(0x00, 0x20)\n      swap1\n    tag_267:\n      dup2\n      sload\n      dup2\n      mstore\n      swap1\n      0x01\n      add\n      swap1\n      0x20\n      add\n      dup1\n      dup4\n      gt\n      tag_267\n      jumpi\n      dup3\n      swap1\n      sub\n      0x1f\n      and\n      dup3\n      add\n      swap2\n    tag_265:\n      pop\n      pop\n      pop\n      pop\n      pop\n      dup2\n      mstore\n      0x20\n      add\n      0x01\n      dup3\n      add\n      dup1\n      sload\n      tag_268\n      swap1\n      tag_129\n      jump\t// in\n    tag_268:\n      dup1\n      0x1f\n      add\n      0x20\n      dup1\n      swap2\n      div\n      mul\n      0x20\n      add\n      mload(0x40)\n      swap1\n      dup2\n      add\n      0x40\n      mstore\n      dup1\n      swap3\n      swap2\n      swap1\n      dup2\n      dup2\n      mstore\n      0x20\n      add\n      dup3\n      dup1\n      sload\n      tag_269\n      swap1\n      tag_129\n      jump\t// in\n    tag_269:\n      dup1\n      iszero\n      tag_270\n      jumpi\n      dup1\n      0x1f\n      lt\n      tag_271\n      jumpi\n      0x0100\n      dup1\n      dup4\n      sload\n      div\n      mul\n      dup4\n      mstore\n      swap2\n      0x20\n      add\n      swap2\n      jump(tag_270)\n    tag_271:\n      dup3\n      add\n      swap2\n      swap1\n      0x00\n      mstore\n      keccak256(0x00, 0x20)\n      swap1\n    tag_272:\n      dup2\n      sload\n      dup2\n      mstore\n      swap1\n      0x01\n      add\n      swap1\n      0x20\n      add\n      dup1\n      dup4\n      gt\n      tag_272\n      jumpi\n      dup3\n      swap1\n      sub\n      0x1f\n      and\n      dup3\n      add\n      swap2\n    tag_270:\n      pop\n      pop\n      pop\n      pop\n      pop\n      dup2\n      mstore\n      0x20\n      add\n      0x02\n      dup3\n      add\n      sload\n      dup2\n      mstore\n      pop\n      pop\n      swap1\n      pop\n        /* \"contracts/Shops.sol\":4157:4165  sellUser */\n      dup3\n        /* \"contracts/Shops.sol\":4157:4175  sellUser.userLogin */\n      0x20\n      add\n      mload\n        /* \"contracts/Shops.sol\":4143:4175  sellerLogin = sellUser.userLogin */\n      swap9\n      pop\n        /* \"contracts/Shops.sol\":4191:4199  sellUser */\n      dup3\n        /* \"contracts/Shops.sol\":4191:4203  sellUser.fio */\n      0x40\n      add\n      mload\n        /* \"contracts/Shops.sol\":4185:4203  fio = sellUser.fio */\n      swap8\n      pop\n        /* \"contracts/Shops.sol\":4220:4228  sellShop */\n      dup1\n        /* \"contracts/Shops.sol\":4220:4233  sellShop.city */\n      0x20\n      add\n      mload\n        /* \"contracts/Shops.sol\":4213:4233  city = sellShop.city */\n      swap7\n      pop\n        /* \"contracts/Shops.sol\":4256:4264  sellShop */\n      dup1\n        /* \"contracts/Shops.sol\":4256:4271  sellShop.number */\n      0x00\n      add\n      mload\n        /* \"contracts/Shops.sol\":4243:4271  shopNumber = sellShop.number */\n      swap6\n      pop\n        /* \"contracts/Shops.sol\":4291:4299  sellUser */\n      dup3\n        /* \"contracts/Shops.sol\":4291:4307  sellUser.reviews */\n      0x60\n      add\n      mload\n        /* \"contracts/Shops.sol\":4281:4307  reviews = sellUser.reviews */\n      swap5\n      pop\n        /* \"contracts/Shops.sol\":3961:4314  {... */\n      pop\n      pop\n      pop\n        /* \"contracts/Shops.sol\":3723:4314  function getSellerInfo() public view isUserStatus(UserRoles.seller) returns(... */\n      pop\n      swap1\n      swap2\n      swap3\n      swap4\n      swap5\n      jump\t// out\n        /* \"contracts/Shops.sol\":1858:2108  function registerShop(address shopAddr,string memory number,string memory city,string memory shopLogin) public isUserStatus(UserRoles.admin){... */\n    tag_64:\n        /* \"contracts/Shops.sol\":1982:1997  UserRoles.admin */\n      0x03\n        /* \"contracts/AuthService.sol\":1616:1621  users */\n      0x02\n        /* \"contracts/AuthService.sol\":1616:1633  users[msg.sender] */\n      0x00\n        /* \"contracts/AuthService.sol\":1622:1632  msg.sender */\n      caller\n        /* \"contracts/AuthService.sol\":1616:1633  users[msg.sender] */\n      0xffffffffffffffffffffffffffffffffffffffff\n      and\n      0xffffffffffffffffffffffffffffffffffffffff\n      and\n      dup2\n      mstore\n      0x20\n      add\n      swap1\n      dup2\n      mstore\n      0x20\n      add\n      0x00\n      keccak256\n        /* \"contracts/AuthService.sol\":1616:1640  users[msg.sender].status */\n      0x00\n      add\n      sload\n        /* \"contracts/AuthService.sol\":1605:1611  status */\n      dup2\n        /* \"contracts/AuthService.sol\":1600:1612  uint(status) */\n      0x05\n      dup2\n      gt\n      iszero\n      tag_274\n      jumpi\n      tag_275\n      tag_123\n      jump\t// in\n    tag_275:\n    tag_274:\n        /* \"contracts/AuthService.sol\":1600:1640  uint(status) == users[msg.sender].status */\n      eq\n        /* \"contracts/AuthService.sol\":1592:1653  require(uint(status) == users[msg.sender].status,\"Forbidden\") */\n      tag_276\n      jumpi\n      mload(0x40)\n      0x08c379a000000000000000000000000000000000000000000000000000000000\n      dup2\n      mstore\n      0x04\n      add\n      tag_277\n      swap1\n      tag_126\n      jump\t// in\n    tag_277:\n      mload(0x40)\n      dup1\n      swap2\n      sub\n      swap1\n      revert\n    tag_276:\n        /* \"contracts/Shops.sol\":2008:2024  Shop memory shop */\n      0x00\n        /* \"contracts/Shops.sol\":2027:2065  Shop({number:number,city:city,debt:0}) */\n      mload(0x40)\n      dup1\n      0x60\n      add\n      0x40\n      mstore\n      dup1\n        /* \"contracts/Shops.sol\":2040:2046  number */\n      dup7\n        /* \"contracts/Shops.sol\":2027:2065  Shop({number:number,city:city,debt:0}) */\n      dup2\n      mstore\n      0x20\n      add\n        /* \"contracts/Shops.sol\":2052:2056  city */\n      dup6\n        /* \"contracts/Shops.sol\":2027:2065  Shop({number:number,city:city,debt:0}) */\n      dup2\n      mstore\n      0x20\n      add\n        /* \"contracts/Shops.sol\":2062:2063  0 */\n      0x00\n        /* \"contracts/Shops.sol\":2027:2065  Shop({number:number,city:city,debt:0}) */\n      dup2\n      mstore\n      pop\n        /* \"contracts/Shops.sol\":2008:2065  Shop memory shop = Shop({number:number,city:city,debt:0}) */\n      swap1\n      pop\n        /* \"contracts/Shops.sol\":2097:2101  shop */\n      dup1\n        /* \"contracts/Shops.sol\":2075:2084  ShopsList */\n      0x0a\n        /* \"contracts/Shops.sol\":2075:2094  ShopsList[shopAddr] */\n      0x00\n        /* \"contracts/Shops.sol\":2085:2093  shopAddr */\n      dup9\n        /* \"contracts/Shops.sol\":2075:2094  ShopsList[shopAddr] */\n      0xffffffffffffffffffffffffffffffffffffffff\n      and\n      0xffffffffffffffffffffffffffffffffffffffff\n      and\n      dup2\n      mstore\n      0x20\n      add\n      swap1\n      dup2\n      mstore\n      0x20\n      add\n      0x00\n      keccak256\n        /* \"contracts/Shops.sol\":2075:2101  ShopsList[shopAddr] = shop */\n      0x00\n      dup3\n      add\n      mload\n      dup2\n      0x00\n      add\n      swap1\n      dup1\n      mload\n      swap1\n      0x20\n      add\n      swap1\n      tag_279\n      swap3\n      swap2\n      swap1\n      tag_190\n      jump\t// in\n    tag_279:\n      pop\n      0x20\n      dup3\n      add\n      mload\n      dup2\n      0x01\n      add\n      swap1\n      dup1\n      mload\n      swap1\n      0x20\n      add\n      swap1\n      tag_280\n      swap3\n      swap2\n      swap1\n      tag_190\n      jump\t// in\n    tag_280:\n      pop\n      0x40\n      dup3\n      add\n      mload\n      dup2\n      0x02\n      add\n      sstore\n      swap1\n      pop\n      pop\n        /* \"contracts/Shops.sol\":1998:2108  {... */\n      pop\n        /* \"contracts/Shops.sol\":1858:2108  function registerShop(address shopAddr,string memory number,string memory city,string memory shopLogin) public isUserStatus(UserRoles.admin){... */\n      pop\n      pop\n      pop\n      pop\n      pop\n      jump\t// out\n        /* \"contracts/Shops.sol\":6421:6654  function likeReview(string memory id) public isUser {... */\n    tag_67:\n        /* \"contracts/AuthService.sol\":1464:1503  compare(users[msg.sender].userLogin,\"\") */\n      tag_282\n        /* \"contracts/AuthService.sol\":1472:1477  users */\n      0x02\n        /* \"contracts/AuthService.sol\":1472:1489  users[msg.sender] */\n      0x00\n        /* \"contracts/AuthService.sol\":1478:1488  msg.sender */\n      caller\n        /* \"contracts/AuthService.sol\":1472:1489  users[msg.sender] */\n      0xffffffffffffffffffffffffffffffffffffffff\n      and\n      0xffffffffffffffffffffffffffffffffffffffff\n      and\n      dup2\n      mstore\n      0x20\n      add\n      swap1\n      dup2\n      mstore\n      0x20\n      add\n      0x00\n      keccak256\n        /* \"contracts/AuthService.sol\":1472:1499  users[msg.sender].userLogin */\n      0x01\n      add\n        /* \"contracts/AuthService.sol\":1464:1503  compare(users[msg.sender].userLogin,\"\") */\n      dup1\n      sload\n      tag_283\n      swap1\n      tag_129\n      jump\t// in\n    tag_283:\n      dup1\n      0x1f\n      add\n      0x20\n      dup1\n      swap2\n      div\n      mul\n      0x20\n      add\n      mload(0x40)\n      swap1\n      dup2\n      add\n      0x40\n      mstore\n      dup1\n      swap3\n      swap2\n      swap1\n      dup2\n      dup2\n      mstore\n      0x20\n      add\n      dup3\n      dup1\n      sload\n      tag_284\n      swap1\n      tag_129\n      jump\t// in\n    tag_284:\n      dup1\n      iszero\n      tag_285\n      jumpi\n      dup1\n      0x1f\n      lt\n      tag_286\n      jumpi\n      0x0100\n      dup1\n      dup4\n      sload\n      div\n      mul\n      dup4\n      mstore\n      swap2\n      0x20\n      add\n      swap2\n      jump(tag_285)\n    tag_286:\n      dup3\n      add\n      swap2\n      swap1\n      0x00\n      mstore\n      keccak256(0x00, 0x20)\n      swap1\n    tag_287:\n      dup2\n      sload\n      dup2\n      mstore\n      swap1\n      0x01\n      add\n      swap1\n      0x20\n      add\n      dup1\n      dup4\n      gt\n      tag_287\n      jumpi\n      dup3\n      swap1\n      sub\n      0x1f\n      and\n      dup3\n      add\n      swap2\n    tag_285:\n      pop\n      pop\n      pop\n      pop\n      pop\n      mload(0x40)\n      dup1\n      0x20\n      add\n      0x40\n      mstore\n      dup1\n      0x00\n      dup2\n      mstore\n      pop\n        /* \"contracts/AuthService.sol\":1464:1471  compare */\n      tag_183\n        /* \"contracts/AuthService.sol\":1464:1503  compare(users[msg.sender].userLogin,\"\") */\n      jump\t// in\n    tag_282:\n        /* \"contracts/AuthService.sol\":1463:1503  !compare(users[msg.sender].userLogin,\"\") */\n      iszero\n        /* \"contracts/AuthService.sol\":1455:1519  require(!compare(users[msg.sender].userLogin,\"\"),\"You not user\") */\n      tag_288\n      jumpi\n      mload(0x40)\n      0x08c379a000000000000000000000000000000000000000000000000000000000\n      dup2\n      mstore\n      0x04\n      add\n      tag_289\n      swap1\n      tag_186\n      jump\t// in\n    tag_289:\n      mload(0x40)\n      dup1\n      swap2\n      sub\n      swap1\n      revert\n    tag_288:\n        /* \"contracts/Shops.sol\":6520:6525  false */\n      0x00\n        /* \"contracts/Shops.sol\":6491:6525  reviewCom[id][msg.sender] == false */\n      iszero\n      iszero\n        /* \"contracts/Shops.sol\":6491:6500  reviewCom */\n      0x10\n        /* \"contracts/Shops.sol\":6501:6503  id */\n      dup3\n        /* \"contracts/Shops.sol\":6491:6504  reviewCom[id] */\n      mload(0x40)\n      tag_291\n      swap2\n      swap1\n      tag_164\n      jump\t// in\n    tag_291:\n      swap1\n      dup2\n      mstore\n      0x20\n      add\n      mload(0x40)\n      dup1\n      swap2\n      sub\n      swap1\n      keccak256\n        /* \"contracts/Shops.sol\":6491:6516  reviewCom[id][msg.sender] */\n      0x00\n        /* \"contracts/Shops.sol\":6505:6515  msg.sender */\n      caller\n        /* \"contracts/Shops.sol\":6491:6516  reviewCom[id][msg.sender] */\n      0xffffffffffffffffffffffffffffffffffffffff\n      and\n      0xffffffffffffffffffffffffffffffffffffffff\n      and\n      dup2\n      mstore\n      0x20\n      add\n      swap1\n      dup2\n      mstore\n      0x20\n      add\n      0x00\n      keccak256\n      0x00\n      swap1\n      sload\n      swap1\n      0x0100\n      exp\n      swap1\n      div\n      0xff\n      and\n        /* \"contracts/Shops.sol\":6491:6525  reviewCom[id][msg.sender] == false */\n      iszero\n      iszero\n      eq\n        /* \"contracts/Shops.sol\":6483:6556  require(reviewCom[id][msg.sender] == false,\"You already check this case\") */\n      tag_292\n      jumpi\n      mload(0x40)\n      0x08c379a000000000000000000000000000000000000000000000000000000000\n      dup2\n      mstore\n      0x04\n      add\n      tag_293\n      swap1\n      tag_294\n      jump\t// in\n    tag_293:\n      mload(0x40)\n      dup1\n      swap2\n      sub\n      swap1\n      revert\n    tag_292:\n        /* \"contracts/Shops.sol\":6566:6574  reviewId */\n      0x0e\n        /* \"contracts/Shops.sol\":6575:6577  id */\n      dup2\n        /* \"contracts/Shops.sol\":6566:6578  reviewId[id] */\n      mload(0x40)\n      tag_295\n      swap2\n      swap1\n      tag_164\n      jump\t// in\n    tag_295:\n      swap1\n      dup2\n      mstore\n      0x20\n      add\n      mload(0x40)\n      dup1\n      swap2\n      sub\n      swap1\n      keccak256\n        /* \"contracts/Shops.sol\":6566:6588  reviewId[id].likeCount */\n      0x03\n      add\n        /* \"contracts/Shops.sol\":6594:6604  msg.sender */\n      caller\n        /* \"contracts/Shops.sol\":6566:6605  reviewId[id].likeCount.push(msg.sender) */\n      swap1\n      dup1\n      0x01\n      dup2\n      sload\n      add\n      dup1\n      dup3\n      sstore\n      dup1\n      swap2\n      pop\n      pop\n      0x01\n      swap1\n      sub\n      swap1\n      0x00\n      mstore\n      keccak256(0x00, 0x20)\n      add\n      0x00\n      swap1\n      swap2\n      swap1\n      swap2\n      swap1\n      swap2\n      0x0100\n      exp\n      dup2\n      sload\n      dup2\n      0xffffffffffffffffffffffffffffffffffffffff\n      mul\n      not\n      and\n      swap1\n      dup4\n      0xffffffffffffffffffffffffffffffffffffffff\n      and\n      mul\n      or\n      swap1\n      sstore\n      pop\n        /* \"contracts/Shops.sol\":6643:6647  true */\n      0x01\n        /* \"contracts/Shops.sol\":6615:6624  reviewCom */\n      0x10\n        /* \"contracts/Shops.sol\":6625:6627  id */\n      dup3\n        /* \"contracts/Shops.sol\":6615:6628  reviewCom[id] */\n      mload(0x40)\n      tag_297\n      swap2\n      swap1\n      tag_164\n      jump\t// in\n    tag_297:\n      swap1\n      dup2\n      mstore\n      0x20\n      add\n      mload(0x40)\n      dup1\n      swap2\n      sub\n      swap1\n      keccak256\n        /* \"contracts/Shops.sol\":6615:6640  reviewCom[id][msg.sender] */\n      0x00\n        /* \"contracts/Shops.sol\":6629:6639  msg.sender */\n      caller\n        /* \"contracts/Shops.sol\":6615:6640  reviewCom[id][msg.sender] */\n      0xffffffffffffffffffffffffffffffffffffffff\n      and\n      0xffffffffffffffffffffffffffffffffffffffff\n      and\n      dup2\n      mstore\n      0x20\n      add\n      swap1\n      dup2\n      mstore\n      0x20\n      add\n      0x00\n      keccak256\n      0x00\n        /* \"contracts/Shops.sol\":6615:6647  reviewCom[id][msg.sender] = true */\n      0x0100\n      exp\n      dup2\n      sload\n      dup2\n      0xff\n      mul\n      not\n      and\n      swap1\n      dup4\n      iszero\n      iszero\n      mul\n      or\n      swap1\n      sstore\n      pop\n        /* \"contracts/Shops.sol\":6421:6654  function likeReview(string memory id) public isUser {... */\n      pop\n      jump\t// out\n        /* \"contracts/Shops.sol\":2208:2452  function registerProvider(string memory providerLogin,address providerAddr) public isAdmin {... */\n    tag_70:\n        /* \"contracts/Shops.sol\":1065:1070  admin */\n      0x05\n      0x00\n      swap1\n      sload\n      swap1\n      0x0100\n      exp\n      swap1\n      div\n      0xffffffffffffffffffffffffffffffffffffffff\n      and\n        /* \"contracts/Shops.sol\":1051:1070  msg.sender == admin */\n      0xffffffffffffffffffffffffffffffffffffffff\n      and\n        /* \"contracts/Shops.sol\":1051:1061  msg.sender */\n      caller\n        /* \"contracts/Shops.sol\":1051:1070  msg.sender == admin */\n      0xffffffffffffffffffffffffffffffffffffffff\n      and\n      eq\n        /* \"contracts/Shops.sol\":1043:1087  require(msg.sender == admin,\"You not admin\") */\n      tag_299\n      jumpi\n      mload(0x40)\n      0x08c379a000000000000000000000000000000000000000000000000000000000\n      dup2\n      mstore\n      0x04\n      add\n      tag_300\n      swap1\n      tag_170\n      jump\t// in\n    tag_300:\n      mload(0x40)\n      dup1\n      swap2\n      sub\n      swap1\n      revert\n    tag_299:\n        /* \"contracts/Shops.sol\":2309:2320  uint status */\n      0x00\n        /* \"contracts/Shops.sol\":2328:2346  UserRoles.provider */\n      0x04\n        /* \"contracts/Shops.sol\":2323:2347  uint(UserRoles.provider) */\n      0x05\n      dup2\n      gt\n      iszero\n      tag_302\n      jumpi\n      tag_303\n      tag_123\n      jump\t// in\n    tag_303:\n    tag_302:\n        /* \"contracts/Shops.sol\":2309:2347  uint status = uint(UserRoles.provider) */\n      swap1\n      pop\n        /* \"contracts/Shops.sol\":2357:2412  registerFromAdmin(\"\",providerLogin,status,providerAddr) */\n      tag_304\n      mload(0x40)\n      dup1\n      0x20\n      add\n      0x40\n      mstore\n      dup1\n      0x00\n      dup2\n      mstore\n      pop\n        /* \"contracts/Shops.sol\":2378:2391  providerLogin */\n      dup5\n        /* \"contracts/Shops.sol\":2392:2398  status */\n      dup4\n        /* \"contracts/Shops.sol\":2399:2411  providerAddr */\n      dup6\n        /* \"contracts/Shops.sol\":2357:2374  registerFromAdmin */\n      tag_175\n        /* \"contracts/Shops.sol\":2357:2412  registerFromAdmin(\"\",providerLogin,status,providerAddr) */\n      jump\t// in\n    tag_304:\n        /* \"contracts/Shops.sol\":2433:2445  providerAddr */\n      dup2\n        /* \"contracts/Shops.sol\":2422:2430  provider */\n      0x04\n      0x00\n        /* \"contracts/Shops.sol\":2422:2445  provider = providerAddr */\n      0x0100\n      exp\n      dup2\n      sload\n      dup2\n      0xffffffffffffffffffffffffffffffffffffffff\n      mul\n      not\n      and\n      swap1\n      dup4\n      0xffffffffffffffffffffffffffffffffffffffff\n      and\n      mul\n      or\n      swap1\n      sstore\n      pop\n        /* \"contracts/Shops.sol\":2299:2452  {... */\n      pop\n        /* \"contracts/Shops.sol\":2208:2452  function registerProvider(string memory providerLogin,address providerAddr) public isAdmin {... */\n      pop\n      pop\n      jump\t// out\n        /* \"contracts/Shops.sol\":3444:3647  function doShopDebt(address payable shopAddr) public isUserStatus(UserRoles.bank) {... */\n    tag_74:\n        /* \"contracts/Shops.sol\":3510:3524  UserRoles.bank */\n      0x05\n        /* \"contracts/AuthService.sol\":1616:1621  users */\n      0x02\n        /* \"contracts/AuthService.sol\":1616:1633  users[msg.sender] */\n      0x00\n        /* \"contracts/AuthService.sol\":1622:1632  msg.sender */\n      caller\n        /* \"contracts/AuthService.sol\":1616:1633  users[msg.sender] */\n      0xffffffffffffffffffffffffffffffffffffffff\n      and\n      0xffffffffffffffffffffffffffffffffffffffff\n      and\n      dup2\n      mstore\n      0x20\n      add\n      swap1\n      dup2\n      mstore\n      0x20\n      add\n      0x00\n      keccak256\n        /* \"contracts/AuthService.sol\":1616:1640  users[msg.sender].status */\n      0x00\n      add\n      sload\n        /* \"contracts/AuthService.sol\":1605:1611  status */\n      dup2\n        /* \"contracts/AuthService.sol\":1600:1612  uint(status) */\n      0x05\n      dup2\n      gt\n      iszero\n      tag_306\n      jumpi\n      tag_307\n      tag_123\n      jump\t// in\n    tag_307:\n    tag_306:\n        /* \"contracts/AuthService.sol\":1600:1640  uint(status) == users[msg.sender].status */\n      eq\n        /* \"contracts/AuthService.sol\":1592:1653  require(uint(status) == users[msg.sender].status,\"Forbidden\") */\n      tag_308\n      jumpi\n      mload(0x40)\n      0x08c379a000000000000000000000000000000000000000000000000000000000\n      dup2\n      mstore\n      0x04\n      add\n      tag_309\n      swap1\n      tag_126\n      jump\t// in\n    tag_309:\n      mload(0x40)\n      dup1\n      swap2\n      sub\n      swap1\n      revert\n    tag_308:\n        /* \"contracts/Shops.sol\":3575:3585  1000 ether */\n      0x3635c9adc5dea00000\n        /* \"contracts/Shops.sol\":3552:3562  msg.sender */\n      caller\n        /* \"contracts/Shops.sol\":3544:3571  payable(msg.sender).balance */\n      0xffffffffffffffffffffffffffffffffffffffff\n      and\n      balance\n        /* \"contracts/Shops.sol\":3544:3585  payable(msg.sender).balance >= 1000 ether */\n      lt\n      iszero\n        /* \"contracts/Shops.sol\":3536:3600  require(payable(msg.sender).balance >= 1000 ether,\"Low balance\") */\n      tag_311\n      jumpi\n      mload(0x40)\n      0x08c379a000000000000000000000000000000000000000000000000000000000\n      dup2\n      mstore\n      0x04\n      add\n      tag_312\n      swap1\n      tag_313\n      jump\t// in\n    tag_312:\n      mload(0x40)\n      dup1\n      swap2\n      sub\n      swap1\n      revert\n    tag_311:\n        /* \"contracts/Shops.sol\":3610:3618  shopAddr */\n      dup2\n        /* \"contracts/Shops.sol\":3610:3627  shopAddr.transfer */\n      0xffffffffffffffffffffffffffffffffffffffff\n      and\n        /* \"contracts/Shops.sol\":3610:3639  shopAddr.transfer(1000 ether) */\n      0x08fc\n        /* \"contracts/Shops.sol\":3628:3638  1000 ether */\n      0x3635c9adc5dea00000\n        /* \"contracts/Shops.sol\":3610:3639  shopAddr.transfer(1000 ether) */\n      swap1\n      dup2\n      iszero\n      mul\n      swap1\n      mload(0x40)\n      0x00\n      mload(0x40)\n      dup1\n      dup4\n      sub\n      dup2\n      dup6\n      dup9\n      dup9\n      call\n      swap4\n      pop\n      pop\n      pop\n      pop\n      iszero\n      dup1\n      iszero\n      tag_315\n      jumpi\n      returndatasize\n      0x00\n      dup1\n      returndatacopy\n      revert(0x00, returndatasize)\n    tag_315:\n      pop\n        /* \"contracts/Shops.sol\":3444:3647  function doShopDebt(address payable shopAddr) public isUserStatus(UserRoles.bank) {... */\n      pop\n      pop\n      jump\t// out\n        /* \"contracts/Shops.sol\":2777:3083  function registerSeller(string memory fio,string memory userLogin,address userAddress,address shopAddr) public {... */\n    tag_78:\n        /* \"contracts/Shops.sol\":2898:2909  uint status */\n      0x00\n        /* \"contracts/Shops.sol\":2917:2933  UserRoles.seller */\n      0x01\n        /* \"contracts/Shops.sol\":2912:2934  uint(UserRoles.seller) */\n      0x05\n      dup2\n      gt\n      iszero\n      tag_317\n      jumpi\n      tag_318\n      tag_123\n      jump\t// in\n    tag_318:\n    tag_317:\n        /* \"contracts/Shops.sol\":2898:2934  uint status = uint(UserRoles.seller) */\n      swap1\n      pop\n        /* \"contracts/Shops.sol\":2944:2995  registerFromAdmin(fio,userLogin,status,userAddress) */\n      tag_319\n        /* \"contracts/Shops.sol\":2962:2965  fio */\n      dup6\n        /* \"contracts/Shops.sol\":2966:2975  userLogin */\n      dup6\n        /* \"contracts/Shops.sol\":2976:2982  status */\n      dup4\n        /* \"contracts/Shops.sol\":2983:2994  userAddress */\n      dup7\n        /* \"contracts/Shops.sol\":2944:2961  registerFromAdmin */\n      tag_175\n        /* \"contracts/Shops.sol\":2944:2995  registerFromAdmin(fio,userLogin,status,userAddress) */\n      jump\t// in\n    tag_319:\n        /* \"contracts/Shops.sol\":3005:3012  sellers */\n      0x08\n        /* \"contracts/Shops.sol\":3018:3029  userAddress */\n      dup4\n        /* \"contracts/Shops.sol\":3005:3030  sellers.push(userAddress) */\n      swap1\n      dup1\n      0x01\n      dup2\n      sload\n      add\n      dup1\n      dup3\n      sstore\n      dup1\n      swap2\n      pop\n      pop\n      0x01\n      swap1\n      sub\n      swap1\n      0x00\n      mstore\n      keccak256(0x00, 0x20)\n      add\n      0x00\n      swap1\n      swap2\n      swap1\n      swap2\n      swap1\n      swap2\n      0x0100\n      exp\n      dup2\n      sload\n      dup2\n      0xffffffffffffffffffffffffffffffffffffffff\n      mul\n      not\n      and\n      swap1\n      dup4\n      0xffffffffffffffffffffffffffffffffffffffff\n      and\n      mul\n      or\n      swap1\n      sstore\n      pop\n        /* \"contracts/Shops.sol\":3040:3048  salesmen */\n      0x0c\n        /* \"contracts/Shops.sol\":3040:3058  salesmen[shopAddr] */\n      0x00\n        /* \"contracts/Shops.sol\":3049:3057  shopAddr */\n      dup4\n        /* \"contracts/Shops.sol\":3040:3058  salesmen[shopAddr] */\n      0xffffffffffffffffffffffffffffffffffffffff\n      and\n      0xffffffffffffffffffffffffffffffffffffffff\n      and\n      dup2\n      mstore\n      0x20\n      add\n      swap1\n      dup2\n      mstore\n      0x20\n      add\n      0x00\n      keccak256\n        /* \"contracts/Shops.sol\":3064:3075  userAddress */\n      dup4\n        /* \"contracts/Shops.sol\":3040:3076  salesmen[shopAddr].push(userAddress) */\n      swap1\n      dup1\n      0x01\n      dup2\n      sload\n      add\n      dup1\n      dup3\n      sstore\n      dup1\n      swap2\n      pop\n      pop\n      0x01\n      swap1\n      sub\n      swap1\n      0x00\n      mstore\n      keccak256(0x00, 0x20)\n      add\n      0x00\n      swap1\n      swap2\n      swap1\n      swap2\n      swap1\n      swap2\n      0x0100\n      exp\n      dup2\n      sload\n      dup2\n      0xffffffffffffffffffffffffffffffffffffffff\n      mul\n      not\n      and\n      swap1\n      dup4\n      0xffffffffffffffffffffffffffffffffffffffff\n      and\n      mul\n      or\n      swap1\n      sstore\n      pop\n        /* \"contracts/Shops.sol\":2888:3083  {... */\n      pop\n        /* \"contracts/Shops.sol\":2777:3083  function registerSeller(string memory fio,string memory userLogin,address userAddress,address shopAddr) public {... */\n      pop\n      pop\n      pop\n      pop\n      jump\t// out\n        /* \"contracts/Shops.sol\":4413:4777  function getBuyerInfo() public view isUser returns(... */\n    tag_80:\n        /* \"contracts/Shops.sol\":4473:4496  string memory userLogin */\n      0x60\n        /* \"contracts/Shops.sol\":4506:4523  string memory fio */\n      dup1\n        /* \"contracts/Shops.sol\":4533:4545  uint balance */\n      0x00\n        /* \"contracts/Shops.sol\":4555:4578  string[] memory reviews */\n      0x60\n        /* \"contracts/AuthService.sol\":1464:1503  compare(users[msg.sender].userLogin,\"\") */\n      tag_323\n        /* \"contracts/AuthService.sol\":1472:1477  users */\n      0x02\n        /* \"contracts/AuthService.sol\":1472:1489  users[msg.sender] */\n      0x00\n        /* \"contracts/AuthService.sol\":1478:1488  msg.sender */\n      caller\n        /* \"contracts/AuthService.sol\":1472:1489  users[msg.sender] */\n      0xffffffffffffffffffffffffffffffffffffffff\n      and\n      0xffffffffffffffffffffffffffffffffffffffff\n      and\n      dup2\n      mstore\n      0x20\n      add\n      swap1\n      dup2\n      mstore\n      0x20\n      add\n      0x00\n      keccak256\n        /* \"contracts/AuthService.sol\":1472:1499  users[msg.sender].userLogin */\n      0x01\n      add\n        /* \"contracts/AuthService.sol\":1464:1503  compare(users[msg.sender].userLogin,\"\") */\n      dup1\n      sload\n      tag_324\n      swap1\n      tag_129\n      jump\t// in\n    tag_324:\n      dup1\n      0x1f\n      add\n      0x20\n      dup1\n      swap2\n      div\n      mul\n      0x20\n      add\n      mload(0x40)\n      swap1\n      dup2\n      add\n      0x40\n      mstore\n      dup1\n      swap3\n      swap2\n      swap1\n      dup2\n      dup2\n      mstore\n      0x20\n      add\n      dup3\n      dup1\n      sload\n      tag_325\n      swap1\n      tag_129\n      jump\t// in\n    tag_325:\n      dup1\n      iszero\n      tag_326\n      jumpi\n      dup1\n      0x1f\n      lt\n      tag_327\n      jumpi\n      0x0100\n      dup1\n      dup4\n      sload\n      div\n      mul\n      dup4\n      mstore\n      swap2\n      0x20\n      add\n      swap2\n      jump(tag_326)\n    tag_327:\n      dup3\n      add\n      swap2\n      swap1\n      0x00\n      mstore\n      keccak256(0x00, 0x20)\n      swap1\n    tag_328:\n      dup2\n      sload\n      dup2\n      mstore\n      swap1\n      0x01\n      add\n      swap1\n      0x20\n      add\n      dup1\n      dup4\n      gt\n      tag_328\n      jumpi\n      dup3\n      swap1\n      sub\n      0x1f\n      and\n      dup3\n      add\n      swap2\n    tag_326:\n      pop\n      pop\n      pop\n      pop\n      pop\n      mload(0x40)\n      dup1\n      0x20\n      add\n      0x40\n      mstore\n      dup1\n      0x00\n      dup2\n      mstore\n      pop\n        /* \"contracts/AuthService.sol\":1464:1471  compare */\n      tag_183\n        /* \"contracts/AuthService.sol\":1464:1503  compare(users[msg.sender].userLogin,\"\") */\n      jump\t// in\n    tag_323:\n        /* \"contracts/AuthService.sol\":1463:1503  !compare(users[msg.sender].userLogin,\"\") */\n      iszero\n        /* \"contracts/AuthService.sol\":1455:1519  require(!compare(users[msg.sender].userLogin,\"\"),\"You not user\") */\n      tag_329\n      jumpi\n      mload(0x40)\n      0x08c379a000000000000000000000000000000000000000000000000000000000\n      dup2\n      mstore\n      0x04\n      add\n      tag_330\n      swap1\n      tag_186\n      jump\t// in\n    tag_330:\n      mload(0x40)\n      dup1\n      swap2\n      sub\n      swap1\n      revert\n    tag_329:\n        /* \"contracts/Shops.sol\":4594:4610  User memory user */\n      0x00\n        /* \"contracts/Shops.sol\":4613:4618  users */\n      0x02\n        /* \"contracts/Shops.sol\":4613:4630  users[msg.sender] */\n      0x00\n        /* \"contracts/Shops.sol\":4619:4629  msg.sender */\n      caller\n        /* \"contracts/Shops.sol\":4613:4630  users[msg.sender] */\n      0xffffffffffffffffffffffffffffffffffffffff\n      and\n      0xffffffffffffffffffffffffffffffffffffffff\n      and\n      dup2\n      mstore\n      0x20\n      add\n      swap1\n      dup2\n      mstore\n      0x20\n      add\n      0x00\n      keccak256\n        /* \"contracts/Shops.sol\":4594:4630  User memory user = users[msg.sender] */\n      mload(0x40)\n      dup1\n      0x80\n      add\n      0x40\n      mstore\n      swap1\n      dup2\n      0x00\n      dup3\n      add\n      sload\n      dup2\n      mstore\n      0x20\n      add\n      0x01\n      dup3\n      add\n      dup1\n      sload\n      tag_332\n      swap1\n      tag_129\n      jump\t// in\n    tag_332:\n      dup1\n      0x1f\n      add\n      0x20\n      dup1\n      swap2\n      div\n      mul\n      0x20\n      add\n      mload(0x40)\n      swap1\n      dup2\n      add\n      0x40\n      mstore\n      dup1\n      swap3\n      swap2\n      swap1\n      dup2\n      dup2\n      mstore\n      0x20\n      add\n      dup3\n      dup1\n      sload\n      tag_333\n      swap1\n      tag_129\n      jump\t// in\n    tag_333:\n      dup1\n      iszero\n      tag_334\n      jumpi\n      dup1\n      0x1f\n      lt\n      tag_335\n      jumpi\n      0x0100\n      dup1\n      dup4\n      sload\n      div\n      mul\n      dup4\n      mstore\n      swap2\n      0x20\n      add\n      swap2\n      jump(tag_334)\n    tag_335:\n      dup3\n      add\n      swap2\n      swap1\n      0x00\n      mstore\n      keccak256(0x00, 0x20)\n      swap1\n    tag_336:\n      dup2\n      sload\n      dup2\n      mstore\n      swap1\n      0x01\n      add\n      swap1\n      0x20\n      add\n      dup1\n      dup4\n      gt\n      tag_336\n      jumpi\n      dup3\n      swap1\n      sub\n      0x1f\n      and\n      dup3\n      add\n      swap2\n    tag_334:\n      pop\n      pop\n      pop\n      pop\n      pop\n      dup2\n      mstore\n      0x20\n      add\n      0x02\n      dup3\n      add\n      dup1\n      sload\n      tag_337\n      swap1\n      tag_129\n      jump\t// in\n    tag_337:\n      dup1\n      0x1f\n      add\n      0x20\n      dup1\n      swap2\n      div\n      mul\n      0x20\n      add\n      mload(0x40)\n      swap1\n      dup2\n      add\n      0x40\n      mstore\n      dup1\n      swap3\n      swap2\n      swap1\n      dup2\n      dup2\n      mstore\n      0x20\n      add\n      dup3\n      dup1\n      sload\n      tag_338\n      swap1\n      tag_129\n      jump\t// in\n    tag_338:\n      dup1\n      iszero\n      tag_339\n      jumpi\n      dup1\n      0x1f\n      lt\n      tag_340\n      jumpi\n      0x0100\n      dup1\n      dup4\n      sload\n      div\n      mul\n      dup4\n      mstore\n      swap2\n      0x20\n      add\n      swap2\n      jump(tag_339)\n    tag_340:\n      dup3\n      add\n      swap2\n      swap1\n      0x00\n      mstore\n      keccak256(0x00, 0x20)\n      swap1\n    tag_341:\n      dup2\n      sload\n      dup2\n      mstore\n      swap1\n      0x01\n      add\n      swap1\n      0x20\n      add\n      dup1\n      dup4\n      gt\n      tag_341\n      jumpi\n      dup3\n      swap1\n      sub\n      0x1f\n      and\n      dup3\n      add\n      swap2\n    tag_339:\n      pop\n      pop\n      pop\n      pop\n      pop\n      dup2\n      mstore\n      0x20\n      add\n      0x03\n      dup3\n      add\n      dup1\n      sload\n      dup1\n      0x20\n      mul\n      0x20\n      add\n      mload(0x40)\n      swap1\n      dup2\n      add\n      0x40\n      mstore\n      dup1\n      swap3\n      swap2\n      swap1\n      dup2\n      dup2\n      mstore\n      0x20\n      add\n      0x00\n      swap1\n    tag_342:\n      dup3\n      dup3\n      lt\n      iszero\n      tag_343\n      jumpi\n      dup4\n      dup3\n      swap1\n      0x00\n      mstore\n      keccak256(0x00, 0x20)\n      add\n      dup1\n      sload\n      tag_345\n      swap1\n      tag_129\n      jump\t// in\n    tag_345:\n      dup1\n      0x1f\n      add\n      0x20\n      dup1\n      swap2\n      div\n      mul\n      0x20\n      add\n      mload(0x40)\n      swap1\n      dup2\n      add\n      0x40\n      mstore\n      dup1\n      swap3\n      swap2\n      swap1\n      dup2\n      dup2\n      mstore\n      0x20\n      add\n      dup3\n      dup1\n      sload\n      tag_346\n      swap1\n      tag_129\n      jump\t// in\n    tag_346:\n      dup1\n      iszero\n      tag_347\n      jumpi\n      dup1\n      0x1f\n      lt\n      tag_348\n      jumpi\n      0x0100\n      dup1\n      dup4\n      sload\n      div\n      mul\n      dup4\n      mstore\n      swap2\n      0x20\n      add\n      swap2\n      jump(tag_347)\n    tag_348:\n      dup3\n      add\n      swap2\n      swap1\n      0x00\n      mstore\n      keccak256(0x00, 0x20)\n      swap1\n    tag_349:\n      dup2\n      sload\n      dup2\n      mstore\n      swap1\n      0x01\n      add\n      swap1\n      0x20\n      add\n      dup1\n      dup4\n      gt\n      tag_349\n      jumpi\n      dup3\n      swap1\n      sub\n      0x1f\n      and\n      dup3\n      add\n      swap2\n    tag_347:\n      pop\n      pop\n      pop\n      pop\n      pop\n      dup2\n      mstore\n      0x20\n      add\n      swap1\n      0x01\n      add\n      swap1\n      jump(tag_342)\n    tag_343:\n      pop\n      pop\n      pop\n      pop\n      dup2\n      mstore\n      pop\n      pop\n      swap1\n      pop\n        /* \"contracts/Shops.sol\":4653:4657  user */\n      dup1\n        /* \"contracts/Shops.sol\":4653:4667  user.userLogin */\n      0x20\n      add\n      mload\n        /* \"contracts/Shops.sol\":4641:4667  userLogin = user.userLogin */\n      swap5\n      pop\n        /* \"contracts/Shops.sol\":4683:4687  user */\n      dup1\n        /* \"contracts/Shops.sol\":4683:4691  user.fio */\n      0x40\n      add\n      mload\n        /* \"contracts/Shops.sol\":4677:4691  fio = user.fio */\n      swap4\n      pop\n        /* \"contracts/Shops.sol\":4719:4729  msg.sender */\n      caller\n        /* \"contracts/Shops.sol\":4711:4738  payable(msg.sender).balance */\n      0xffffffffffffffffffffffffffffffffffffffff\n      and\n      balance\n        /* \"contracts/Shops.sol\":4701:4738  balance = payable(msg.sender).balance */\n      swap3\n      pop\n        /* \"contracts/Shops.sol\":4758:4762  user */\n      dup1\n        /* \"contracts/Shops.sol\":4758:4770  user.reviews */\n      0x60\n      add\n      mload\n        /* \"contracts/Shops.sol\":4748:4770  reviews = user.reviews */\n      swap2\n      pop\n        /* \"contracts/Shops.sol\":4584:4777  {... */\n      pop\n        /* \"contracts/Shops.sol\":4413:4777  function getBuyerInfo() public view isUser returns(... */\n      swap1\n      swap2\n      swap3\n      swap4\n      jump\t// out\n        /* \"contracts/Shops.sol\":3150:3349  function registerBuyer(string memory fio,string memory userLogin,address userAddr) public{... */\n    tag_86:\n        /* \"contracts/Shops.sol\":3249:3260  uint status */\n      0x00\n        /* \"contracts/Shops.sol\":3268:3283  UserRoles.buyer */\n      dup1\n        /* \"contracts/Shops.sol\":3263:3284  uint(UserRoles.buyer) */\n      0x05\n      dup2\n      gt\n      iszero\n      tag_351\n      jumpi\n      tag_352\n      tag_123\n      jump\t// in\n    tag_352:\n    tag_351:\n        /* \"contracts/Shops.sol\":3249:3284  uint status = uint(UserRoles.buyer) */\n      swap1\n      pop\n        /* \"contracts/Shops.sol\":3294:3342  registerFromAdmin(fio,userLogin,status,userAddr) */\n      tag_353\n        /* \"contracts/Shops.sol\":3312:3315  fio */\n      dup5\n        /* \"contracts/Shops.sol\":3316:3325  userLogin */\n      dup5\n        /* \"contracts/Shops.sol\":3326:3332  status */\n      dup4\n        /* \"contracts/Shops.sol\":3333:3341  userAddr */\n      dup6\n        /* \"contracts/Shops.sol\":3294:3311  registerFromAdmin */\n      tag_175\n        /* \"contracts/Shops.sol\":3294:3342  registerFromAdmin(fio,userLogin,status,userAddr) */\n      jump\t// in\n    tag_353:\n        /* \"contracts/Shops.sol\":3239:3349  {... */\n      pop\n        /* \"contracts/Shops.sol\":3150:3349  function registerBuyer(string memory fio,string memory userLogin,address userAddr) public{... */\n      pop\n      pop\n      pop\n      jump\t// out\n        /* \"contracts/Shops.sol\":1539:1797  function regAdmin(address adminAddr,string memory fio,string memory userLogin) public isUserStatus(UserRoles.admin){... */\n    tag_90:\n        /* \"contracts/Shops.sol\":1638:1653  UserRoles.admin */\n      0x03\n        /* \"contracts/AuthService.sol\":1616:1621  users */\n      0x02\n        /* \"contracts/AuthService.sol\":1616:1633  users[msg.sender] */\n      0x00\n        /* \"contracts/AuthService.sol\":1622:1632  msg.sender */\n      caller\n        /* \"contracts/AuthService.sol\":1616:1633  users[msg.sender] */\n      0xffffffffffffffffffffffffffffffffffffffff\n      and\n      0xffffffffffffffffffffffffffffffffffffffff\n      and\n      dup2\n      mstore\n      0x20\n      add\n      swap1\n      dup2\n      mstore\n      0x20\n      add\n      0x00\n      keccak256\n        /* \"contracts/AuthService.sol\":1616:1640  users[msg.sender].status */\n      0x00\n      add\n      sload\n        /* \"contracts/AuthService.sol\":1605:1611  status */\n      dup2\n        /* \"contracts/AuthService.sol\":1600:1612  uint(status) */\n      0x05\n      dup2\n      gt\n      iszero\n      tag_355\n      jumpi\n      tag_356\n      tag_123\n      jump\t// in\n    tag_356:\n    tag_355:\n        /* \"contracts/AuthService.sol\":1600:1640  uint(status) == users[msg.sender].status */\n      eq\n        /* \"contracts/AuthService.sol\":1592:1653  require(uint(status) == users[msg.sender].status,\"Forbidden\") */\n      tag_357\n      jumpi\n      mload(0x40)\n      0x08c379a000000000000000000000000000000000000000000000000000000000\n      dup2\n      mstore\n      0x04\n      add\n      tag_358\n      swap1\n      tag_126\n      jump\t// in\n    tag_358:\n      mload(0x40)\n      dup1\n      swap2\n      sub\n      swap1\n      revert\n    tag_357:\n        /* \"contracts/Shops.sol\":1664:1675  uint status */\n      0x00\n        /* \"contracts/Shops.sol\":1683:1698  UserRoles.admin */\n      0x03\n        /* \"contracts/Shops.sol\":1678:1699  uint(UserRoles.admin) */\n      0x05\n      dup2\n      gt\n      iszero\n      tag_360\n      jumpi\n      tag_361\n      tag_123\n      jump\t// in\n    tag_361:\n    tag_360:\n        /* \"contracts/Shops.sol\":1664:1699  uint status = uint(UserRoles.admin) */\n      swap1\n      pop\n        /* \"contracts/Shops.sol\":1709:1758  registerFromAdmin(fio,userLogin,status,adminAddr) */\n      tag_362\n        /* \"contracts/Shops.sol\":1727:1730  fio */\n      dup5\n        /* \"contracts/Shops.sol\":1731:1740  userLogin */\n      dup5\n        /* \"contracts/Shops.sol\":1741:1747  status */\n      dup4\n        /* \"contracts/Shops.sol\":1748:1757  adminAddr */\n      dup9\n        /* \"contracts/Shops.sol\":1709:1726  registerFromAdmin */\n      tag_175\n        /* \"contracts/Shops.sol\":1709:1758  registerFromAdmin(fio,userLogin,status,adminAddr) */\n      jump\t// in\n    tag_362:\n        /* \"contracts/Shops.sol\":1768:1774  admins */\n      0x06\n        /* \"contracts/Shops.sol\":1780:1789  userLogin */\n      dup4\n        /* \"contracts/Shops.sol\":1768:1790  admins.push(userLogin) */\n      swap1\n      dup1\n      0x01\n      dup2\n      sload\n      add\n      dup1\n      dup3\n      sstore\n      dup1\n      swap2\n      pop\n      pop\n      0x01\n      swap1\n      sub\n      swap1\n      0x00\n      mstore\n      keccak256(0x00, 0x20)\n      add\n      0x00\n      swap1\n      swap2\n      swap1\n      swap2\n      swap1\n      swap2\n      pop\n      swap1\n      dup1\n      mload\n      swap1\n      0x20\n      add\n      swap1\n      tag_364\n      swap3\n      swap2\n      swap1\n      tag_190\n      jump\t// in\n    tag_364:\n      pop\n        /* \"contracts/Shops.sol\":1654:1797  {... */\n      pop\n        /* \"contracts/Shops.sol\":1539:1797  function regAdmin(address adminAddr,string memory fio,string memory userLogin) public isUserStatus(UserRoles.admin){... */\n      pop\n      pop\n      pop\n      pop\n      jump\t// out\n        /* \"contracts/Shops.sol\":7397:7699  function requestToSeller(string memory id) public isUserStatus(UserRoles.buyer){... */\n    tag_93:\n        /* \"contracts/Shops.sol\":7460:7475  UserRoles.buyer */\n      0x00\n        /* \"contracts/AuthService.sol\":1616:1621  users */\n      0x02\n        /* \"contracts/AuthService.sol\":1616:1633  users[msg.sender] */\n      0x00\n        /* \"contracts/AuthService.sol\":1622:1632  msg.sender */\n      caller\n        /* \"contracts/AuthService.sol\":1616:1633  users[msg.sender] */\n      0xffffffffffffffffffffffffffffffffffffffff\n      and\n      0xffffffffffffffffffffffffffffffffffffffff\n      and\n      dup2\n      mstore\n      0x20\n      add\n      swap1\n      dup2\n      mstore\n      0x20\n      add\n      0x00\n      keccak256\n        /* \"contracts/AuthService.sol\":1616:1640  users[msg.sender].status */\n      0x00\n      add\n      sload\n        /* \"contracts/AuthService.sol\":1605:1611  status */\n      dup2\n        /* \"contracts/AuthService.sol\":1600:1612  uint(status) */\n      0x05\n      dup2\n      gt\n      iszero\n      tag_366\n      jumpi\n      tag_367\n      tag_123\n      jump\t// in\n    tag_367:\n    tag_366:\n        /* \"contracts/AuthService.sol\":1600:1640  uint(status) == users[msg.sender].status */\n      eq\n        /* \"contracts/AuthService.sol\":1592:1653  require(uint(status) == users[msg.sender].status,\"Forbidden\") */\n      tag_368\n      jumpi\n      mload(0x40)\n      0x08c379a000000000000000000000000000000000000000000000000000000000\n      dup2\n      mstore\n      0x04\n      add\n      tag_369\n      swap1\n      tag_126\n      jump\t// in\n    tag_369:\n      mload(0x40)\n      dup1\n      swap2\n      sub\n      swap1\n      revert\n    tag_368:\n        /* \"contracts/Shops.sol\":7486:7503  Request memory rq */\n      0x00\n        /* \"contracts/Shops.sol\":7506:7637  Request(... */\n      mload(0x40)\n      dup1\n      0x80\n      add\n      0x40\n      mstore\n      dup1\n        /* \"contracts/Shops.sol\":7527:7537  msg.sender */\n      caller\n        /* \"contracts/Shops.sol\":7506:7637  Request(... */\n      0xffffffffffffffffffffffffffffffffffffffff\n      and\n      dup2\n      mstore\n      0x20\n      add\n        /* \"contracts/Shops.sol\":7556:7571  UserRoles.buyer */\n      0x00\n        /* \"contracts/Shops.sol\":7551:7572  uint(UserRoles.buyer) */\n      0x05\n      dup2\n      gt\n      iszero\n      tag_371\n      jumpi\n      tag_372\n      tag_123\n      jump\t// in\n    tag_372:\n    tag_371:\n        /* \"contracts/Shops.sol\":7506:7637  Request(... */\n      dup2\n      mstore\n      0x20\n      add\n        /* \"contracts/Shops.sol\":7591:7607  UserRoles.seller */\n      0x01\n        /* \"contracts/Shops.sol\":7586:7608  uint(UserRoles.seller) */\n      0x05\n      dup2\n      gt\n      iszero\n      tag_373\n      jumpi\n      tag_374\n      tag_123\n      jump\t// in\n    tag_374:\n    tag_373:\n        /* \"contracts/Shops.sol\":7506:7637  Request(... */\n      dup2\n      mstore\n      0x20\n      add\n        /* \"contracts/Shops.sol\":7622:7627  false */\n      0x00\n        /* \"contracts/Shops.sol\":7506:7637  Request(... */\n      iszero\n      iszero\n      dup2\n      mstore\n      pop\n        /* \"contracts/Shops.sol\":7486:7637  Request memory rq = Request(... */\n      swap1\n      pop\n        /* \"contracts/Shops.sol\":7663:7665  rq */\n      dup1\n        /* \"contracts/Shops.sol\":7647:7656  requestId */\n      0x0f\n        /* \"contracts/Shops.sol\":7657:7659  id */\n      dup5\n        /* \"contracts/Shops.sol\":7647:7660  requestId[id] */\n      mload(0x40)\n      tag_375\n      swap2\n      swap1\n      tag_164\n      jump\t// in\n    tag_375:\n      swap1\n      dup2\n      mstore\n      0x20\n      add\n      mload(0x40)\n      dup1\n      swap2\n      sub\n      swap1\n      keccak256\n        /* \"contracts/Shops.sol\":7647:7665  requestId[id] = rq */\n      0x00\n      dup3\n      add\n      mload\n      dup2\n      0x00\n      add\n      exp(0x0100, 0x00)\n      dup2\n      sload\n      dup2\n      0xffffffffffffffffffffffffffffffffffffffff\n      mul\n      not\n      and\n      swap1\n      dup4\n      0xffffffffffffffffffffffffffffffffffffffff\n      and\n      mul\n      or\n      swap1\n      sstore\n      pop\n      0x20\n      dup3\n      add\n      mload\n      dup2\n      0x01\n      add\n      sstore\n      0x40\n      dup3\n      add\n      mload\n      dup2\n      0x02\n      add\n      sstore\n      0x60\n      dup3\n      add\n      mload\n      dup2\n      0x03\n      add\n      exp(0x0100, 0x00)\n      dup2\n      sload\n      dup2\n      0xff\n      mul\n      not\n      and\n      swap1\n      dup4\n      iszero\n      iszero\n      mul\n      or\n      swap1\n      sstore\n      pop\n      swap1\n      pop\n      pop\n        /* \"contracts/Shops.sol\":7675:7683  requests */\n      0x09\n        /* \"contracts/Shops.sol\":7689:7691  id */\n      dup4\n        /* \"contracts/Shops.sol\":7675:7692  requests.push(id) */\n      swap1\n      dup1\n      0x01\n      dup2\n      sload\n      add\n      dup1\n      dup3\n      sstore\n      dup1\n      swap2\n      pop\n      pop\n      0x01\n      swap1\n      sub\n      swap1\n      0x00\n      mstore\n      keccak256(0x00, 0x20)\n      add\n      0x00\n      swap1\n      swap2\n      swap1\n      swap2\n      swap1\n      swap2\n      pop\n      swap1\n      dup1\n      mload\n      swap1\n      0x20\n      add\n      swap1\n      tag_377\n      swap3\n      swap2\n      swap1\n      tag_190\n      jump\t// in\n    tag_377:\n      pop\n        /* \"contracts/Shops.sol\":7476:7699  {... */\n      pop\n        /* \"contracts/Shops.sol\":7397:7699  function requestToSeller(string memory id) public isUserStatus(UserRoles.buyer){... */\n      pop\n      pop\n      jump\t// out\n        /* \"contracts/Shops.sol\":7705:8010  function downRequestToByer(string memory id) public isUserStatus(UserRoles.seller){... */\n    tag_96:\n        /* \"contracts/Shops.sol\":7770:7786  UserRoles.seller */\n      0x01\n        /* \"contracts/AuthService.sol\":1616:1621  users */\n      0x02\n        /* \"contracts/AuthService.sol\":1616:1633  users[msg.sender] */\n      0x00\n        /* \"contracts/AuthService.sol\":1622:1632  msg.sender */\n      caller\n        /* \"contracts/AuthService.sol\":1616:1633  users[msg.sender] */\n      0xffffffffffffffffffffffffffffffffffffffff\n      and\n      0xffffffffffffffffffffffffffffffffffffffff\n      and\n      dup2\n      mstore\n      0x20\n      add\n      swap1\n      dup2\n      mstore\n      0x20\n      add\n      0x00\n      keccak256\n        /* \"contracts/AuthService.sol\":1616:1640  users[msg.sender].status */\n      0x00\n      add\n      sload\n        /* \"contracts/AuthService.sol\":1605:1611  status */\n      dup2\n        /* \"contracts/AuthService.sol\":1600:1612  uint(status) */\n      0x05\n      dup2\n      gt\n      iszero\n      tag_379\n      jumpi\n      tag_380\n      tag_123\n      jump\t// in\n    tag_380:\n    tag_379:\n        /* \"contracts/AuthService.sol\":1600:1640  uint(status) == users[msg.sender].status */\n      eq\n        /* \"contracts/AuthService.sol\":1592:1653  require(uint(status) == users[msg.sender].status,\"Forbidden\") */\n      tag_381\n      jumpi\n      mload(0x40)\n      0x08c379a000000000000000000000000000000000000000000000000000000000\n      dup2\n      mstore\n      0x04\n      add\n      tag_382\n      swap1\n      tag_126\n      jump\t// in\n    tag_382:\n      mload(0x40)\n      dup1\n      swap2\n      sub\n      swap1\n      revert\n    tag_381:\n        /* \"contracts/Shops.sol\":7797:7814  Request memory rq */\n      0x00\n        /* \"contracts/Shops.sol\":7817:7948  Request(... */\n      mload(0x40)\n      dup1\n      0x80\n      add\n      0x40\n      mstore\n      dup1\n        /* \"contracts/Shops.sol\":7838:7848  msg.sender */\n      caller\n        /* \"contracts/Shops.sol\":7817:7948  Request(... */\n      0xffffffffffffffffffffffffffffffffffffffff\n      and\n      dup2\n      mstore\n      0x20\n      add\n        /* \"contracts/Shops.sol\":7867:7883  UserRoles.seller */\n      0x01\n        /* \"contracts/Shops.sol\":7862:7884  uint(UserRoles.seller) */\n      0x05\n      dup2\n      gt\n      iszero\n      tag_384\n      jumpi\n      tag_385\n      tag_123\n      jump\t// in\n    tag_385:\n    tag_384:\n        /* \"contracts/Shops.sol\":7817:7948  Request(... */\n      dup2\n      mstore\n      0x20\n      add\n        /* \"contracts/Shops.sol\":7903:7918  UserRoles.buyer */\n      0x00\n        /* \"contracts/Shops.sol\":7898:7919  uint(UserRoles.buyer) */\n      0x05\n      dup2\n      gt\n      iszero\n      tag_386\n      jumpi\n      tag_387\n      tag_123\n      jump\t// in\n    tag_387:\n    tag_386:\n        /* \"contracts/Shops.sol\":7817:7948  Request(... */\n      dup2\n      mstore\n      0x20\n      add\n        /* \"contracts/Shops.sol\":7933:7938  false */\n      0x00\n        /* \"contracts/Shops.sol\":7817:7948  Request(... */\n      iszero\n      iszero\n      dup2\n      mstore\n      pop\n        /* \"contracts/Shops.sol\":7797:7948  Request memory rq = Request(... */\n      swap1\n      pop\n        /* \"contracts/Shops.sol\":7974:7976  rq */\n      dup1\n        /* \"contracts/Shops.sol\":7958:7967  requestId */\n      0x0f\n        /* \"contracts/Shops.sol\":7968:7970  id */\n      dup5\n        /* \"contracts/Shops.sol\":7958:7971  requestId[id] */\n      mload(0x40)\n      tag_388\n      swap2\n      swap1\n      tag_164\n      jump\t// in\n    tag_388:\n      swap1\n      dup2\n      mstore\n      0x20\n      add\n      mload(0x40)\n      dup1\n      swap2\n      sub\n      swap1\n      keccak256\n        /* \"contracts/Shops.sol\":7958:7976  requestId[id] = rq */\n      0x00\n      dup3\n      add\n      mload\n      dup2\n      0x00\n      add\n      exp(0x0100, 0x00)\n      dup2\n      sload\n      dup2\n      0xffffffffffffffffffffffffffffffffffffffff\n      mul\n      not\n      and\n      swap1\n      dup4\n      0xffffffffffffffffffffffffffffffffffffffff\n      and\n      mul\n      or\n      swap1\n      sstore\n      pop\n      0x20\n      dup3\n      add\n      mload\n      dup2\n      0x01\n      add\n      sstore\n      0x40\n      dup3\n      add\n      mload\n      dup2\n      0x02\n      add\n      sstore\n      0x60\n      dup3\n      add\n      mload\n      dup2\n      0x03\n      add\n      exp(0x0100, 0x00)\n      dup2\n      sload\n      dup2\n      0xff\n      mul\n      not\n      and\n      swap1\n      dup4\n      iszero\n      iszero\n      mul\n      or\n      swap1\n      sstore\n      pop\n      swap1\n      pop\n      pop\n        /* \"contracts/Shops.sol\":7986:7994  requests */\n      0x09\n        /* \"contracts/Shops.sol\":8000:8002  id */\n      dup4\n        /* \"contracts/Shops.sol\":7986:8003  requests.push(id) */\n      swap1\n      dup1\n      0x01\n      dup2\n      sload\n      add\n      dup1\n      dup3\n      sstore\n      dup1\n      swap2\n      pop\n      pop\n      0x01\n      swap1\n      sub\n      swap1\n      0x00\n      mstore\n      keccak256(0x00, 0x20)\n      add\n      0x00\n      swap1\n      swap2\n      swap1\n      swap2\n      swap1\n      swap2\n      pop\n      swap1\n      dup1\n      mload\n      swap1\n      0x20\n      add\n      swap1\n      tag_390\n      swap3\n      swap2\n      swap1\n      tag_190\n      jump\t// in\n    tag_390:\n      pop\n        /* \"contracts/Shops.sol\":7787:8010  {... */\n      pop\n        /* \"contracts/Shops.sol\":7705:8010  function downRequestToByer(string memory id) public isUserStatus(UserRoles.seller){... */\n      pop\n      pop\n      jump\t// out\n        /* \"contracts/Shops.sol\":6660:6899  function disLikeReview(string memory id) public isUser {... */\n    tag_99:\n        /* \"contracts/AuthService.sol\":1464:1503  compare(users[msg.sender].userLogin,\"\") */\n      tag_392\n        /* \"contracts/AuthService.sol\":1472:1477  users */\n      0x02\n        /* \"contracts/AuthService.sol\":1472:1489  users[msg.sender] */\n      0x00\n        /* \"contracts/AuthService.sol\":1478:1488  msg.sender */\n      caller\n        /* \"contracts/AuthService.sol\":1472:1489  users[msg.sender] */\n      0xffffffffffffffffffffffffffffffffffffffff\n      and\n      0xffffffffffffffffffffffffffffffffffffffff\n      and\n      dup2\n      mstore\n      0x20\n      add\n      swap1\n      dup2\n      mstore\n      0x20\n      add\n      0x00\n      keccak256\n        /* \"contracts/AuthService.sol\":1472:1499  users[msg.sender].userLogin */\n      0x01\n      add\n        /* \"contracts/AuthService.sol\":1464:1503  compare(users[msg.sender].userLogin,\"\") */\n      dup1\n      sload\n      tag_393\n      swap1\n      tag_129\n      jump\t// in\n    tag_393:\n      dup1\n      0x1f\n      add\n      0x20\n      dup1\n      swap2\n      div\n      mul\n      0x20\n      add\n      mload(0x40)\n      swap1\n      dup2\n      add\n      0x40\n      mstore\n      dup1\n      swap3\n      swap2\n      swap1\n      dup2\n      dup2\n      mstore\n      0x20\n      add\n      dup3\n      dup1\n      sload\n      tag_394\n      swap1\n      tag_129\n      jump\t// in\n    tag_394:\n      dup1\n      iszero\n      tag_395\n      jumpi\n      dup1\n      0x1f\n      lt\n      tag_396\n      jumpi\n      0x0100\n      dup1\n      dup4\n      sload\n      div\n      mul\n      dup4\n      mstore\n      swap2\n      0x20\n      add\n      swap2\n      jump(tag_395)\n    tag_396:\n      dup3\n      add\n      swap2\n      swap1\n      0x00\n      mstore\n      keccak256(0x00, 0x20)\n      swap1\n    tag_397:\n      dup2\n      sload\n      dup2\n      mstore\n      swap1\n      0x01\n      add\n      swap1\n      0x20\n      add\n      dup1\n      dup4\n      gt\n      tag_397\n      jumpi\n      dup3\n      swap1\n      sub\n      0x1f\n      and\n      dup3\n      add\n      swap2\n    tag_395:\n      pop\n      pop\n      pop\n      pop\n      pop\n      mload(0x40)\n      dup1\n      0x20\n      add\n      0x40\n      mstore\n      dup1\n      0x00\n      dup2\n      mstore\n      pop\n        /* \"contracts/AuthService.sol\":1464:1471  compare */\n      tag_183\n        /* \"contracts/AuthService.sol\":1464:1503  compare(users[msg.sender].userLogin,\"\") */\n      jump\t// in\n    tag_392:\n        /* \"contracts/AuthService.sol\":1463:1503  !compare(users[msg.sender].userLogin,\"\") */\n      iszero\n        /* \"contracts/AuthService.sol\":1455:1519  require(!compare(users[msg.sender].userLogin,\"\"),\"You not user\") */\n      tag_398\n      jumpi\n      mload(0x40)\n      0x08c379a000000000000000000000000000000000000000000000000000000000\n      dup2\n      mstore\n      0x04\n      add\n      tag_399\n      swap1\n      tag_186\n      jump\t// in\n    tag_399:\n      mload(0x40)\n      dup1\n      swap2\n      sub\n      swap1\n      revert\n    tag_398:\n        /* \"contracts/Shops.sol\":6762:6767  false */\n      0x00\n        /* \"contracts/Shops.sol\":6733:6767  reviewCom[id][msg.sender] == false */\n      iszero\n      iszero\n        /* \"contracts/Shops.sol\":6733:6742  reviewCom */\n      0x10\n        /* \"contracts/Shops.sol\":6743:6745  id */\n      dup3\n        /* \"contracts/Shops.sol\":6733:6746  reviewCom[id] */\n      mload(0x40)\n      tag_401\n      swap2\n      swap1\n      tag_164\n      jump\t// in\n    tag_401:\n      swap1\n      dup2\n      mstore\n      0x20\n      add\n      mload(0x40)\n      dup1\n      swap2\n      sub\n      swap1\n      keccak256\n        /* \"contracts/Shops.sol\":6733:6758  reviewCom[id][msg.sender] */\n      0x00\n        /* \"contracts/Shops.sol\":6747:6757  msg.sender */\n      caller\n        /* \"contracts/Shops.sol\":6733:6758  reviewCom[id][msg.sender] */\n      0xffffffffffffffffffffffffffffffffffffffff\n      and\n      0xffffffffffffffffffffffffffffffffffffffff\n      and\n      dup2\n      mstore\n      0x20\n      add\n      swap1\n      dup2\n      mstore\n      0x20\n      add\n      0x00\n      keccak256\n      0x00\n      swap1\n      sload\n      swap1\n      0x0100\n      exp\n      swap1\n      div\n      0xff\n      and\n        /* \"contracts/Shops.sol\":6733:6767  reviewCom[id][msg.sender] == false */\n      iszero\n      iszero\n      eq\n        /* \"contracts/Shops.sol\":6725:6798  require(reviewCom[id][msg.sender] == false,\"You already check this case\") */\n      tag_402\n      jumpi\n      mload(0x40)\n      0x08c379a000000000000000000000000000000000000000000000000000000000\n      dup2\n      mstore\n      0x04\n      add\n      tag_403\n      swap1\n      tag_294\n      jump\t// in\n    tag_403:\n      mload(0x40)\n      dup1\n      swap2\n      sub\n      swap1\n      revert\n    tag_402:\n        /* \"contracts/Shops.sol\":6808:6816  reviewId */\n      0x0e\n        /* \"contracts/Shops.sol\":6817:6819  id */\n      dup2\n        /* \"contracts/Shops.sol\":6808:6820  reviewId[id] */\n      mload(0x40)\n      tag_404\n      swap2\n      swap1\n      tag_164\n      jump\t// in\n    tag_404:\n      swap1\n      dup2\n      mstore\n      0x20\n      add\n      mload(0x40)\n      dup1\n      swap2\n      sub\n      swap1\n      keccak256\n        /* \"contracts/Shops.sol\":6808:6833  reviewId[id].disLikeCount */\n      0x04\n      add\n        /* \"contracts/Shops.sol\":6839:6849  msg.sender */\n      caller\n        /* \"contracts/Shops.sol\":6808:6850  reviewId[id].disLikeCount.push(msg.sender) */\n      swap1\n      dup1\n      0x01\n      dup2\n      sload\n      add\n      dup1\n      dup3\n      sstore\n      dup1\n      swap2\n      pop\n      pop\n      0x01\n      swap1\n      sub\n      swap1\n      0x00\n      mstore\n      keccak256(0x00, 0x20)\n      add\n      0x00\n      swap1\n      swap2\n      swap1\n      swap2\n      swap1\n      swap2\n      0x0100\n      exp\n      dup2\n      sload\n      dup2\n      0xffffffffffffffffffffffffffffffffffffffff\n      mul\n      not\n      and\n      swap1\n      dup4\n      0xffffffffffffffffffffffffffffffffffffffff\n      and\n      mul\n      or\n      swap1\n      sstore\n      pop\n        /* \"contracts/Shops.sol\":6888:6892  true */\n      0x01\n        /* \"contracts/Shops.sol\":6860:6869  reviewCom */\n      0x10\n        /* \"contracts/Shops.sol\":6870:6872  id */\n      dup3\n        /* \"contracts/Shops.sol\":6860:6873  reviewCom[id] */\n      mload(0x40)\n      tag_406\n      swap2\n      swap1\n      tag_164\n      jump\t// in\n    tag_406:\n      swap1\n      dup2\n      mstore\n      0x20\n      add\n      mload(0x40)\n      dup1\n      swap2\n      sub\n      swap1\n      keccak256\n        /* \"contracts/Shops.sol\":6860:6885  reviewCom[id][msg.sender] */\n      0x00\n        /* \"contracts/Shops.sol\":6874:6884  msg.sender */\n      caller\n        /* \"contracts/Shops.sol\":6860:6885  reviewCom[id][msg.sender] */\n      0xffffffffffffffffffffffffffffffffffffffff\n      and\n      0xffffffffffffffffffffffffffffffffffffffff\n      and\n      dup2\n      mstore\n      0x20\n      add\n      swap1\n      dup2\n      mstore\n      0x20\n      add\n      0x00\n      keccak256\n      0x00\n        /* \"contracts/Shops.sol\":6860:6892  reviewCom[id][msg.sender] = true */\n      0x0100\n      exp\n      dup2\n      sload\n      dup2\n      0xff\n      mul\n      not\n      and\n      swap1\n      dup4\n      iszero\n      iszero\n      mul\n      or\n      swap1\n      sstore\n      pop\n        /* \"contracts/Shops.sol\":6660:6899  function disLikeReview(string memory id) public isUser {... */\n      pop\n      jump\t// out\n        /* \"contracts/Shops.sol\":4847:5245  function getAdminInfo() public view isUserStatus(UserRoles.admin) returns(... */\n    tag_101:\n        /* \"contracts/Shops.sol\":4930:4949  string memory login */\n      0x60\n        /* \"contracts/Shops.sol\":4959:4987  string[] memory userRequests */\n      dup1\n        /* \"contracts/Shops.sol\":4997:5022  string[] memory adminList */\n      0x60\n        /* \"contracts/Shops.sol\":5032:5060  address[] memory sellersAddr */\n      dup1\n        /* \"contracts/Shops.sol\":4896:4911  UserRoles.admin */\n      0x03\n        /* \"contracts/AuthService.sol\":1616:1621  users */\n      0x02\n        /* \"contracts/AuthService.sol\":1616:1633  users[msg.sender] */\n      0x00\n        /* \"contracts/AuthService.sol\":1622:1632  msg.sender */\n      caller\n        /* \"contracts/AuthService.sol\":1616:1633  users[msg.sender] */\n      0xffffffffffffffffffffffffffffffffffffffff\n      and\n      0xffffffffffffffffffffffffffffffffffffffff\n      and\n      dup2\n      mstore\n      0x20\n      add\n      swap1\n      dup2\n      mstore\n      0x20\n      add\n      0x00\n      keccak256\n        /* \"contracts/AuthService.sol\":1616:1640  users[msg.sender].status */\n      0x00\n      add\n      sload\n        /* \"contracts/AuthService.sol\":1605:1611  status */\n      dup2\n        /* \"contracts/AuthService.sol\":1600:1612  uint(status) */\n      0x05\n      dup2\n      gt\n      iszero\n      tag_408\n      jumpi\n      tag_409\n      tag_123\n      jump\t// in\n    tag_409:\n    tag_408:\n        /* \"contracts/AuthService.sol\":1600:1640  uint(status) == users[msg.sender].status */\n      eq\n        /* \"contracts/AuthService.sol\":1592:1653  require(uint(status) == users[msg.sender].status,\"Forbidden\") */\n      tag_410\n      jumpi\n      mload(0x40)\n      0x08c379a000000000000000000000000000000000000000000000000000000000\n      dup2\n      mstore\n      0x04\n      add\n      tag_411\n      swap1\n      tag_126\n      jump\t// in\n    tag_411:\n      mload(0x40)\n      dup1\n      swap2\n      sub\n      swap1\n      revert\n    tag_410:\n        /* \"contracts/Shops.sol\":5077:5093  User memory user */\n      0x00\n        /* \"contracts/Shops.sol\":5096:5101  users */\n      0x02\n        /* \"contracts/Shops.sol\":5096:5113  users[msg.sender] */\n      0x00\n        /* \"contracts/Shops.sol\":5102:5112  msg.sender */\n      caller\n        /* \"contracts/Shops.sol\":5096:5113  users[msg.sender] */\n      0xffffffffffffffffffffffffffffffffffffffff\n      and\n      0xffffffffffffffffffffffffffffffffffffffff\n      and\n      dup2\n      mstore\n      0x20\n      add\n      swap1\n      dup2\n      mstore\n      0x20\n      add\n      0x00\n      keccak256\n        /* \"contracts/Shops.sol\":5077:5113  User memory user = users[msg.sender] */\n      mload(0x40)\n      dup1\n      0x80\n      add\n      0x40\n      mstore\n      swap1\n      dup2\n      0x00\n      dup3\n      add\n      sload\n      dup2\n      mstore\n      0x20\n      add\n      0x01\n      dup3\n      add\n      dup1\n      sload\n      tag_413\n      swap1\n      tag_129\n      jump\t// in\n    tag_413:\n      dup1\n      0x1f\n      add\n      0x20\n      dup1\n      swap2\n      div\n      mul\n      0x20\n      add\n      mload(0x40)\n      swap1\n      dup2\n      add\n      0x40\n      mstore\n      dup1\n      swap3\n      swap2\n      swap1\n      dup2\n      dup2\n      mstore\n      0x20\n      add\n      dup3\n      dup1\n      sload\n      tag_414\n      swap1\n      tag_129\n      jump\t// in\n    tag_414:\n      dup1\n      iszero\n      tag_415\n      jumpi\n      dup1\n      0x1f\n      lt\n      tag_416\n      jumpi\n      0x0100\n      dup1\n      dup4\n      sload\n      div\n      mul\n      dup4\n      mstore\n      swap2\n      0x20\n      add\n      swap2\n      jump(tag_415)\n    tag_416:\n      dup3\n      add\n      swap2\n      swap1\n      0x00\n      mstore\n      keccak256(0x00, 0x20)\n      swap1\n    tag_417:\n      dup2\n      sload\n      dup2\n      mstore\n      swap1\n      0x01\n      add\n      swap1\n      0x20\n      add\n      dup1\n      dup4\n      gt\n      tag_417\n      jumpi\n      dup3\n      swap1\n      sub\n      0x1f\n      and\n      dup3\n      add\n      swap2\n    tag_415:\n      pop\n      pop\n      pop\n      pop\n      pop\n      dup2\n      mstore\n      0x20\n      add\n      0x02\n      dup3\n      add\n      dup1\n      sload\n      tag_418\n      swap1\n      tag_129\n      jump\t// in\n    tag_418:\n      dup1\n      0x1f\n      add\n      0x20\n      dup1\n      swap2\n      div\n      mul\n      0x20\n      add\n      mload(0x40)\n      swap1\n      dup2\n      add\n      0x40\n      mstore\n      dup1\n      swap3\n      swap2\n      swap1\n      dup2\n      dup2\n      mstore\n      0x20\n      add\n      dup3\n      dup1\n      sload\n      tag_419\n      swap1\n      tag_129\n      jump\t// in\n    tag_419:\n      dup1\n      iszero\n      tag_420\n      jumpi\n      dup1\n      0x1f\n      lt\n      tag_421\n      jumpi\n      0x0100\n      dup1\n      dup4\n      sload\n      div\n      mul\n      dup4\n      mstore\n      swap2\n      0x20\n      add\n      swap2\n      jump(tag_420)\n    tag_421:\n      dup3\n      add\n      swap2\n      swap1\n      0x00\n      mstore\n      keccak256(0x00, 0x20)\n      swap1\n    tag_422:\n      dup2\n      sload\n      dup2\n      mstore\n      swap1\n      0x01\n      add\n      swap1\n      0x20\n      add\n      dup1\n      dup4\n      gt\n      tag_422\n      jumpi\n      dup3\n      swap1\n      sub\n      0x1f\n      and\n      dup3\n      add\n      swap2\n    tag_420:\n      pop\n      pop\n      pop\n      pop\n      pop\n      dup2\n      mstore\n      0x20\n      add\n      0x03\n      dup3\n      add\n      dup1\n      sload\n      dup1\n      0x20\n      mul\n      0x20\n      add\n      mload(0x40)\n      swap1\n      dup2\n      add\n      0x40\n      mstore\n      dup1\n      swap3\n      swap2\n      swap1\n      dup2\n      dup2\n      mstore\n      0x20\n      add\n      0x00\n      swap1\n    tag_423:\n      dup3\n      dup3\n      lt\n      iszero\n      tag_424\n      jumpi\n      dup4\n      dup3\n      swap1\n      0x00\n      mstore\n      keccak256(0x00, 0x20)\n      add\n      dup1\n      sload\n      tag_426\n      swap1\n      tag_129\n      jump\t// in\n    tag_426:\n      dup1\n      0x1f\n      add\n      0x20\n      dup1\n      swap2\n      div\n      mul\n      0x20\n      add\n      mload(0x40)\n      swap1\n      dup2\n      add\n      0x40\n      mstore\n      dup1\n      swap3\n      swap2\n      swap1\n      dup2\n      dup2\n      mstore\n      0x20\n      add\n      dup3\n      dup1\n      sload\n      tag_427\n      swap1\n      tag_129\n      jump\t// in\n    tag_427:\n      dup1\n      iszero\n      tag_428\n      jumpi\n      dup1\n      0x1f\n      lt\n      tag_429\n      jumpi\n      0x0100\n      dup1\n      dup4\n      sload\n      div\n      mul\n      dup4\n      mstore\n      swap2\n      0x20\n      add\n      swap2\n      jump(tag_428)\n    tag_429:\n      dup3\n      add\n      swap2\n      swap1\n      0x00\n      mstore\n      keccak256(0x00, 0x20)\n      swap1\n    tag_430:\n      dup2\n      sload\n      dup2\n      mstore\n      swap1\n      0x01\n      add\n      swap1\n      0x20\n      add\n      dup1\n      dup4\n      gt\n      tag_430\n      jumpi\n      dup3\n      swap1\n      sub\n      0x1f\n      and\n      dup3\n      add\n      swap2\n    tag_428:\n      pop\n      pop\n      pop\n      pop\n      pop\n      dup2\n      mstore\n      0x20\n      add\n      swap1\n      0x01\n      add\n      swap1\n      jump(tag_423)\n    tag_424:\n      pop\n      pop\n      pop\n      pop\n      dup2\n      mstore\n      pop\n      pop\n      swap1\n      pop\n        /* \"contracts/Shops.sol\":5132:5136  user */\n      dup1\n        /* \"contracts/Shops.sol\":5132:5146  user.userLogin */\n      0x20\n      add\n      mload\n        /* \"contracts/Shops.sol\":5124:5146  login = user.userLogin */\n      swap6\n      pop\n        /* \"contracts/Shops.sol\":5171:5179  requests */\n      0x09\n        /* \"contracts/Shops.sol\":5156:5179  userRequests = requests */\n      dup1\n      sload\n      dup1\n      0x20\n      mul\n      0x20\n      add\n      mload(0x40)\n      swap1\n      dup2\n      add\n      0x40\n      mstore\n      dup1\n      swap3\n      swap2\n      swap1\n      dup2\n      dup2\n      mstore\n      0x20\n      add\n      0x00\n      swap1\n    tag_431:\n      dup3\n      dup3\n      lt\n      iszero\n      tag_432\n      jumpi\n      dup4\n      dup3\n      swap1\n      0x00\n      mstore\n      keccak256(0x00, 0x20)\n      add\n      dup1\n      sload\n      tag_434\n      swap1\n      tag_129\n      jump\t// in\n    tag_434:\n      dup1\n      0x1f\n      add\n      0x20\n      dup1\n      swap2\n      div\n      mul\n      0x20\n      add\n      mload(0x40)\n      swap1\n      dup2\n      add\n      0x40\n      mstore\n      dup1\n      swap3\n      swap2\n      swap1\n      dup2\n      dup2\n      mstore\n      0x20\n      add\n      dup3\n      dup1\n      sload\n      tag_435\n      swap1\n      tag_129\n      jump\t// in\n    tag_435:\n      dup1\n      iszero\n      tag_436\n      jumpi\n      dup1\n      0x1f\n      lt\n      tag_437\n      jumpi\n      0x0100\n      dup1\n      dup4\n      sload\n      div\n      mul\n      dup4\n      mstore\n      swap2\n      0x20\n      add\n      swap2\n      jump(tag_436)\n    tag_437:\n      dup3\n      add\n      swap2\n      swap1\n      0x00\n      mstore\n      keccak256(0x00, 0x20)\n      swap1\n    tag_438:\n      dup2\n      sload\n      dup2\n      mstore\n      swap1\n      0x01\n      add\n      swap1\n      0x20\n      add\n      dup1\n      dup4\n      gt\n      tag_438\n      jumpi\n      dup3\n      swap1\n      sub\n      0x1f\n      and\n      dup3\n      add\n      swap2\n    tag_436:\n      pop\n      pop\n      pop\n      pop\n      pop\n      dup2\n      mstore\n      0x20\n      add\n      swap1\n      0x01\n      add\n      swap1\n      jump(tag_431)\n    tag_432:\n      pop\n      pop\n      pop\n      pop\n      swap5\n      pop\n        /* \"contracts/Shops.sol\":5201:5207  admins */\n      0x06\n        /* \"contracts/Shops.sol\":5189:5207  adminList = admins */\n      dup1\n      sload\n      dup1\n      0x20\n      mul\n      0x20\n      add\n      mload(0x40)\n      swap1\n      dup2\n      add\n      0x40\n      mstore\n      dup1\n      swap3\n      swap2\n      swap1\n      dup2\n      dup2\n      mstore\n      0x20\n      add\n      0x00\n      swap1\n    tag_439:\n      dup3\n      dup3\n      lt\n      iszero\n      tag_440\n      jumpi\n      dup4\n      dup3\n      swap1\n      0x00\n      mstore\n      keccak256(0x00, 0x20)\n      add\n      dup1\n      sload\n      tag_442\n      swap1\n      tag_129\n      jump\t// in\n    tag_442:\n      dup1\n      0x1f\n      add\n      0x20\n      dup1\n      swap2\n      div\n      mul\n      0x20\n      add\n      mload(0x40)\n      swap1\n      dup2\n      add\n      0x40\n      mstore\n      dup1\n      swap3\n      swap2\n      swap1\n      dup2\n      dup2\n      mstore\n      0x20\n      add\n      dup3\n      dup1\n      sload\n      tag_443\n      swap1\n      tag_129\n      jump\t// in\n    tag_443:\n      dup1\n      iszero\n      tag_444\n      jumpi\n      dup1\n      0x1f\n      lt\n      tag_445\n      jumpi\n      0x0100\n      dup1\n      dup4\n      sload\n      div\n      mul\n      dup4\n      mstore\n      swap2\n      0x20\n      add\n      swap2\n      jump(tag_444)\n    tag_445:\n      dup3\n      add\n      swap2\n      swap1\n      0x00\n      mstore\n      keccak256(0x00, 0x20)\n      swap1\n    tag_446:\n      dup2\n      sload\n      dup2\n      mstore\n      swap1\n      0x01\n      add\n      swap1\n      0x20\n      add\n      dup1\n      dup4\n      gt\n      tag_446\n      jumpi\n      dup3\n      swap1\n      sub\n      0x1f\n      and\n      dup3\n      add\n      swap2\n    tag_444:\n      pop\n      pop\n      pop\n      pop\n      pop\n      dup2\n      mstore\n      0x20\n      add\n      swap1\n      0x01\n      add\n      swap1\n      jump(tag_439)\n    tag_440:\n      pop\n      pop\n      pop\n      pop\n      swap4\n      pop\n        /* \"contracts/Shops.sol\":5231:5238  sellers */\n      0x08\n        /* \"contracts/Shops.sol\":5217:5238  sellersAddr = sellers */\n      dup1\n      sload\n      dup1\n      0x20\n      mul\n      0x20\n      add\n      mload(0x40)\n      swap1\n      dup2\n      add\n      0x40\n      mstore\n      dup1\n      swap3\n      swap2\n      swap1\n      dup2\n      dup2\n      mstore\n      0x20\n      add\n      dup3\n      dup1\n      sload\n      dup1\n      iszero\n      tag_447\n      jumpi\n      0x20\n      mul\n      dup3\n      add\n      swap2\n      swap1\n      0x00\n      mstore\n      keccak256(0x00, 0x20)\n      swap1\n    tag_448:\n      dup2\n      0x00\n      swap1\n      sload\n      swap1\n      0x0100\n      exp\n      swap1\n      div\n      0xffffffffffffffffffffffffffffffffffffffff\n      and\n      0xffffffffffffffffffffffffffffffffffffffff\n      and\n      dup2\n      mstore\n      0x20\n      add\n      swap1\n      0x01\n      add\n      swap1\n      dup1\n      dup4\n      gt\n      tag_448\n      jumpi\n    tag_447:\n      pop\n      pop\n      pop\n      pop\n      pop\n      swap3\n      pop\n        /* \"contracts/Shops.sol\":5067:5245  {... */\n      pop\n        /* \"contracts/Shops.sol\":4847:5245  function getAdminInfo() public view isUserStatus(UserRoles.admin) returns(... */\n      pop\n      swap1\n      swap2\n      swap3\n      swap4\n      jump\t// out\n        /* \"contracts/Shops.sol\":8760:9105  function getRequestById(string memory id) public view returns(... */\n    tag_106:\n        /* \"contracts/Shops.sol\":8831:8847  address userAddr */\n      0x00\n        /* \"contracts/Shops.sol\":8857:8882  string memory currentRole */\n      0x60\n        /* \"contracts/Shops.sol\":8892:8917  string memory desiredRole */\n      dup1\n        /* \"contracts/Shops.sol\":8933:8950  Request memory rq */\n      0x00\n        /* \"contracts/Shops.sol\":8953:8962  requestId */\n      0x0f\n        /* \"contracts/Shops.sol\":8963:8965  id */\n      dup6\n        /* \"contracts/Shops.sol\":8953:8966  requestId[id] */\n      mload(0x40)\n      tag_450\n      swap2\n      swap1\n      tag_164\n      jump\t// in\n    tag_450:\n      swap1\n      dup2\n      mstore\n      0x20\n      add\n      mload(0x40)\n      dup1\n      swap2\n      sub\n      swap1\n      keccak256\n        /* \"contracts/Shops.sol\":8933:8966  Request memory rq = requestId[id] */\n      mload(0x40)\n      dup1\n      0x80\n      add\n      0x40\n      mstore\n      swap1\n      dup2\n      0x00\n      dup3\n      add\n      0x00\n      swap1\n      sload\n      swap1\n      0x0100\n      exp\n      swap1\n      div\n      0xffffffffffffffffffffffffffffffffffffffff\n      and\n      0xffffffffffffffffffffffffffffffffffffffff\n      and\n      0xffffffffffffffffffffffffffffffffffffffff\n      and\n      dup2\n      mstore\n      0x20\n      add\n      0x01\n      dup3\n      add\n      sload\n      dup2\n      mstore\n      0x20\n      add\n      0x02\n      dup3\n      add\n      sload\n      dup2\n      mstore\n      0x20\n      add\n      0x03\n      dup3\n      add\n      0x00\n      swap1\n      sload\n      swap1\n      0x0100\n      exp\n      swap1\n      div\n      0xff\n      and\n      iszero\n      iszero\n      iszero\n      iszero\n      dup2\n      mstore\n      pop\n      pop\n      swap1\n      pop\n        /* \"contracts/Shops.sol\":8987:8989  rq */\n      dup1\n        /* \"contracts/Shops.sol\":8987:8998  rq.userAddr */\n      0x00\n      add\n      mload\n        /* \"contracts/Shops.sol\":8976:8998  userAddr = rq.userAddr */\n      swap4\n      pop\n        /* \"contracts/Shops.sol\":9022:9032  userStatus */\n      0x00\n        /* \"contracts/Shops.sol\":9022:9048  userStatus[rq.currentRole] */\n      dup1\n        /* \"contracts/Shops.sol\":9033:9035  rq */\n      dup3\n        /* \"contracts/Shops.sol\":9033:9047  rq.currentRole */\n      0x20\n      add\n      mload\n        /* \"contracts/Shops.sol\":9022:9048  userStatus[rq.currentRole] */\n      dup2\n      mstore\n      0x20\n      add\n      swap1\n      dup2\n      mstore\n      0x20\n      add\n      0x00\n      keccak256\n        /* \"contracts/Shops.sol\":9008:9048  currentRole = userStatus[rq.currentRole] */\n      dup1\n      sload\n      tag_451\n      swap1\n      tag_129\n      jump\t// in\n    tag_451:\n      dup1\n      0x1f\n      add\n      0x20\n      dup1\n      swap2\n      div\n      mul\n      0x20\n      add\n      mload(0x40)\n      swap1\n      dup2\n      add\n      0x40\n      mstore\n      dup1\n      swap3\n      swap2\n      swap1\n      dup2\n      dup2\n      mstore\n      0x20\n      add\n      dup3\n      dup1\n      sload\n      tag_452\n      swap1\n      tag_129\n      jump\t// in\n    tag_452:\n      dup1\n      iszero\n      tag_453\n      jumpi\n      dup1\n      0x1f\n      lt\n      tag_454\n      jumpi\n      0x0100\n      dup1\n      dup4\n      sload\n      div\n      mul\n      dup4\n      mstore\n      swap2\n      0x20\n      add\n      swap2\n      jump(tag_453)\n    tag_454:\n      dup3\n      add\n      swap2\n      swap1\n      0x00\n      mstore\n      keccak256(0x00, 0x20)\n      swap1\n    tag_455:\n      dup2\n      sload\n      dup2\n      mstore\n      swap1\n      0x01\n      add\n      swap1\n      0x20\n      add\n      dup1\n      dup4\n      gt\n      tag_455\n      jumpi\n      dup3\n      swap1\n      sub\n      0x1f\n      and\n      dup3\n      add\n      swap2\n    tag_453:\n      pop\n      pop\n      pop\n      pop\n      pop\n      swap3\n      pop\n        /* \"contracts/Shops.sol\":9072:9082  userStatus */\n      0x00\n        /* \"contracts/Shops.sol\":9072:9098  userStatus[rq.desiredRole] */\n      dup1\n        /* \"contracts/Shops.sol\":9083:9085  rq */\n      dup3\n        /* \"contracts/Shops.sol\":9083:9097  rq.desiredRole */\n      0x40\n      add\n      mload\n        /* \"contracts/Shops.sol\":9072:9098  userStatus[rq.desiredRole] */\n      dup2\n      mstore\n      0x20\n      add\n      swap1\n      dup2\n      mstore\n      0x20\n      add\n      0x00\n      keccak256\n        /* \"contracts/Shops.sol\":9058:9098  desiredRole = userStatus[rq.desiredRole] */\n      dup1\n      sload\n      tag_456\n      swap1\n      tag_129\n      jump\t// in\n    tag_456:\n      dup1\n      0x1f\n      add\n      0x20\n      dup1\n      swap2\n      div\n      mul\n      0x20\n      add\n      mload(0x40)\n      swap1\n      dup2\n      add\n      0x40\n      mstore\n      dup1\n      swap3\n      swap2\n      swap1\n      dup2\n      dup2\n      mstore\n      0x20\n      add\n      dup3\n      dup1\n      sload\n      tag_457\n      swap1\n      tag_129\n      jump\t// in\n    tag_457:\n      dup1\n      iszero\n      tag_458\n      jumpi\n      dup1\n      0x1f\n      lt\n      tag_459\n      jumpi\n      0x0100\n      dup1\n      dup4\n      sload\n      div\n      mul\n      dup4\n      mstore\n      swap2\n      0x20\n      add\n      swap2\n      jump(tag_458)\n    tag_459:\n      dup3\n      add\n      swap2\n      swap1\n      0x00\n      mstore\n      keccak256(0x00, 0x20)\n      swap1\n    tag_460:\n      dup2\n      sload\n      dup2\n      mstore\n      swap1\n      0x01\n      add\n      swap1\n      0x20\n      add\n      dup1\n      dup4\n      gt\n      tag_460\n      jumpi\n      dup3\n      swap1\n      sub\n      0x1f\n      and\n      dup3\n      add\n      swap2\n    tag_458:\n      pop\n      pop\n      pop\n      pop\n      pop\n      swap2\n      pop\n        /* \"contracts/Shops.sol\":8923:9105  {... */\n      pop\n        /* \"contracts/Shops.sol\":8760:9105  function getRequestById(string memory id) public view returns(... */\n      swap2\n      swap4\n      swap1\n      swap3\n      pop\n      jump\t// out\n        /* \"contracts/Shops.sol\":8465:8754  function deleteShop(address shopAddr) public isUserStatus(UserRoles.admin) {... */\n    tag_111:\n        /* \"contracts/Shops.sol\":8523:8538  UserRoles.admin */\n      0x03\n        /* \"contracts/AuthService.sol\":1616:1621  users */\n      0x02\n        /* \"contracts/AuthService.sol\":1616:1633  users[msg.sender] */\n      0x00\n        /* \"contracts/AuthService.sol\":1622:1632  msg.sender */\n      caller\n        /* \"contracts/AuthService.sol\":1616:1633  users[msg.sender] */\n      0xffffffffffffffffffffffffffffffffffffffff\n      and\n      0xffffffffffffffffffffffffffffffffffffffff\n      and\n      dup2\n      mstore\n      0x20\n      add\n      swap1\n      dup2\n      mstore\n      0x20\n      add\n      0x00\n      keccak256\n        /* \"contracts/AuthService.sol\":1616:1640  users[msg.sender].status */\n      0x00\n      add\n      sload\n        /* \"contracts/AuthService.sol\":1605:1611  status */\n      dup2\n        /* \"contracts/AuthService.sol\":1600:1612  uint(status) */\n      0x05\n      dup2\n      gt\n      iszero\n      tag_462\n      jumpi\n      tag_463\n      tag_123\n      jump\t// in\n    tag_463:\n    tag_462:\n        /* \"contracts/AuthService.sol\":1600:1640  uint(status) == users[msg.sender].status */\n      eq\n        /* \"contracts/AuthService.sol\":1592:1653  require(uint(status) == users[msg.sender].status,\"Forbidden\") */\n      tag_464\n      jumpi\n      mload(0x40)\n      0x08c379a000000000000000000000000000000000000000000000000000000000\n      dup2\n      mstore\n      0x04\n      add\n      tag_465\n      swap1\n      tag_126\n      jump\t// in\n    tag_465:\n      mload(0x40)\n      dup1\n      swap2\n      sub\n      swap1\n      revert\n    tag_464:\n        /* \"contracts/Shops.sol\":8550:8578  address[] memory shopSellers */\n      0x00\n        /* \"contracts/Shops.sol\":8581:8589  salesmen */\n      0x0c\n        /* \"contracts/Shops.sol\":8581:8599  salesmen[shopAddr] */\n      0x00\n        /* \"contracts/Shops.sol\":8590:8598  shopAddr */\n      dup5\n        /* \"contracts/Shops.sol\":8581:8599  salesmen[shopAddr] */\n      0xffffffffffffffffffffffffffffffffffffffff\n      and\n      0xffffffffffffffffffffffffffffffffffffffff\n      and\n      dup2\n      mstore\n      0x20\n      add\n      swap1\n      dup2\n      mstore\n      0x20\n      add\n      0x00\n      keccak256\n        /* \"contracts/Shops.sol\":8550:8599  address[] memory shopSellers = salesmen[shopAddr] */\n      dup1\n      sload\n      dup1\n      0x20\n      mul\n      0x20\n      add\n      mload(0x40)\n      swap1\n      dup2\n      add\n      0x40\n      mstore\n      dup1\n      swap3\n      swap2\n      swap1\n      dup2\n      dup2\n      mstore\n      0x20\n      add\n      dup3\n      dup1\n      sload\n      dup1\n      iszero\n      tag_467\n      jumpi\n      0x20\n      mul\n      dup3\n      add\n      swap2\n      swap1\n      0x00\n      mstore\n      keccak256(0x00, 0x20)\n      swap1\n    tag_468:\n      dup2\n      0x00\n      swap1\n      sload\n      swap1\n      0x0100\n      exp\n      swap1\n      div\n      0xffffffffffffffffffffffffffffffffffffffff\n      and\n      0xffffffffffffffffffffffffffffffffffffffff\n      and\n      dup2\n      mstore\n      0x20\n      add\n      swap1\n      0x01\n      add\n      swap1\n      dup1\n      dup4\n      gt\n      tag_468\n      jumpi\n    tag_467:\n      pop\n      pop\n      pop\n      pop\n      pop\n      swap1\n      pop\n        /* \"contracts/Shops.sol\":8613:8619  uint i */\n      0x00\n        /* \"contracts/Shops.sol\":8609:8747  for(uint i;i<shopSellers.length;i++){... */\n    tag_469:\n        /* \"contracts/Shops.sol\":8622:8633  shopSellers */\n      dup2\n        /* \"contracts/Shops.sol\":8622:8640  shopSellers.length */\n      mload\n        /* \"contracts/Shops.sol\":8620:8621  i */\n      dup2\n        /* \"contracts/Shops.sol\":8620:8640  i<shopSellers.length */\n      lt\n        /* \"contracts/Shops.sol\":8609:8747  for(uint i;i<shopSellers.length;i++){... */\n      iszero\n      tag_470\n      jumpi\n        /* \"contracts/Shops.sol\":8659:8677  address sellerAddr */\n      0x00\n        /* \"contracts/Shops.sol\":8680:8691  shopSellers */\n      dup3\n        /* \"contracts/Shops.sol\":8692:8693  i */\n      dup3\n        /* \"contracts/Shops.sol\":8680:8694  shopSellers[i] */\n      dup2\n      mload\n      dup2\n      lt\n      tag_472\n      jumpi\n      tag_473\n      tag_474\n      jump\t// in\n    tag_473:\n    tag_472:\n      0x20\n      mul\n      0x20\n      add\n      add\n      mload\n        /* \"contracts/Shops.sol\":8659:8694  address sellerAddr = shopSellers[i] */\n      swap1\n      pop\n        /* \"contracts/Shops.sol\":8735:8736  0 */\n      0x00\n        /* \"contracts/Shops.sol\":8708:8713  users */\n      0x02\n        /* \"contracts/Shops.sol\":8708:8725  users[sellerAddr] */\n      0x00\n        /* \"contracts/Shops.sol\":8714:8724  sellerAddr */\n      dup4\n        /* \"contracts/Shops.sol\":8708:8725  users[sellerAddr] */\n      0xffffffffffffffffffffffffffffffffffffffff\n      and\n      0xffffffffffffffffffffffffffffffffffffffff\n      and\n      dup2\n      mstore\n      0x20\n      add\n      swap1\n      dup2\n      mstore\n      0x20\n      add\n      0x00\n      keccak256\n        /* \"contracts/Shops.sol\":8708:8732  users[sellerAddr].status */\n      0x00\n      add\n        /* \"contracts/Shops.sol\":8708:8736  users[sellerAddr].status = 0 */\n      dup2\n      swap1\n      sstore\n      pop\n        /* \"contracts/Shops.sol\":8645:8747  {... */\n      pop\n        /* \"contracts/Shops.sol\":8641:8644  i++ */\n      dup1\n      dup1\n      tag_475\n      swap1\n      tag_476\n      jump\t// in\n    tag_475:\n      swap2\n      pop\n      pop\n        /* \"contracts/Shops.sol\":8609:8747  for(uint i;i<shopSellers.length;i++){... */\n      jump(tag_469)\n    tag_470:\n      pop\n        /* \"contracts/Shops.sol\":8540:8754  {... */\n      pop\n        /* \"contracts/Shops.sol\":8465:8754  function deleteShop(address shopAddr) public isUserStatus(UserRoles.admin) {... */\n      pop\n      pop\n      jump\t// out\n        /* \"contracts/Shops.sol\":1223:1448  function registerAdmin(string memory fio,string memory userLogin) isAdmin public {... */\n    tag_115:\n        /* \"contracts/Shops.sol\":1065:1070  admin */\n      0x05\n      0x00\n      swap1\n      sload\n      swap1\n      0x0100\n      exp\n      swap1\n      div\n      0xffffffffffffffffffffffffffffffffffffffff\n      and\n        /* \"contracts/Shops.sol\":1051:1070  msg.sender == admin */\n      0xffffffffffffffffffffffffffffffffffffffff\n      and\n        /* \"contracts/Shops.sol\":1051:1061  msg.sender */\n      caller\n        /* \"contracts/Shops.sol\":1051:1070  msg.sender == admin */\n      0xffffffffffffffffffffffffffffffffffffffff\n      and\n      eq\n        /* \"contracts/Shops.sol\":1043:1087  require(msg.sender == admin,\"You not admin\") */\n      tag_478\n      jumpi\n      mload(0x40)\n      0x08c379a000000000000000000000000000000000000000000000000000000000\n      dup2\n      mstore\n      0x04\n      add\n      tag_479\n      swap1\n      tag_170\n      jump\t// in\n    tag_479:\n      mload(0x40)\n      dup1\n      swap2\n      sub\n      swap1\n      revert\n    tag_478:\n        /* \"contracts/Shops.sol\":1314:1325  uint status */\n      0x00\n        /* \"contracts/Shops.sol\":1333:1348  UserRoles.admin */\n      0x03\n        /* \"contracts/Shops.sol\":1328:1349  uint(UserRoles.admin) */\n      0x05\n      dup2\n      gt\n      iszero\n      tag_481\n      jumpi\n      tag_482\n      tag_123\n      jump\t// in\n    tag_482:\n    tag_481:\n        /* \"contracts/Shops.sol\":1314:1349  uint status = uint(UserRoles.admin) */\n      swap1\n      pop\n        /* \"contracts/Shops.sol\":1359:1409  registerFromAdmin(fio,userLogin,status,msg.sender) */\n      tag_483\n        /* \"contracts/Shops.sol\":1377:1380  fio */\n      dup4\n        /* \"contracts/Shops.sol\":1381:1390  userLogin */\n      dup4\n        /* \"contracts/Shops.sol\":1391:1397  status */\n      dup4\n        /* \"contracts/Shops.sol\":1398:1408  msg.sender */\n      caller\n        /* \"contracts/Shops.sol\":1359:1376  registerFromAdmin */\n      tag_175\n        /* \"contracts/Shops.sol\":1359:1409  registerFromAdmin(fio,userLogin,status,msg.sender) */\n      jump\t// in\n    tag_483:\n        /* \"contracts/Shops.sol\":1419:1425  admins */\n      0x06\n        /* \"contracts/Shops.sol\":1431:1440  userLogin */\n      dup3\n        /* \"contracts/Shops.sol\":1419:1441  admins.push(userLogin) */\n      swap1\n      dup1\n      0x01\n      dup2\n      sload\n      add\n      dup1\n      dup3\n      sstore\n      dup1\n      swap2\n      pop\n      pop\n      0x01\n      swap1\n      sub\n      swap1\n      0x00\n      mstore\n      keccak256(0x00, 0x20)\n      add\n      0x00\n      swap1\n      swap2\n      swap1\n      swap2\n      swap1\n      swap2\n      pop\n      swap1\n      dup1\n      mload\n      swap1\n      0x20\n      add\n      swap1\n      tag_485\n      swap3\n      swap2\n      swap1\n      tag_190\n      jump\t// in\n    tag_485:\n      pop\n        /* \"contracts/Shops.sol\":1304:1448  {... */\n      pop\n        /* \"contracts/Shops.sol\":1223:1448  function registerAdmin(string memory fio,string memory userLogin) isAdmin public {... */\n      pop\n      pop\n      jump\t// out\n        /* \"contracts/Shops.sol\":8324:8459  function getAllRequests() public view isUserStatus(UserRoles.admin) returns(string[] memory requestsId){... */\n    tag_117:\n        /* \"contracts/Shops.sol\":8400:8426  string[] memory requestsId */\n      0x60\n        /* \"contracts/Shops.sol\":8375:8390  UserRoles.admin */\n      0x03\n        /* \"contracts/AuthService.sol\":1616:1621  users */\n      0x02\n        /* \"contracts/AuthService.sol\":1616:1633  users[msg.sender] */\n      0x00\n        /* \"contracts/AuthService.sol\":1622:1632  msg.sender */\n      caller\n        /* \"contracts/AuthService.sol\":1616:1633  users[msg.sender] */\n      0xffffffffffffffffffffffffffffffffffffffff\n      and\n      0xffffffffffffffffffffffffffffffffffffffff\n      and\n      dup2\n      mstore\n      0x20\n      add\n      swap1\n      dup2\n      mstore\n      0x20\n      add\n      0x00\n      keccak256\n        /* \"contracts/AuthService.sol\":1616:1640  users[msg.sender].status */\n      0x00\n      add\n      sload\n        /* \"contracts/AuthService.sol\":1605:1611  status */\n      dup2\n        /* \"contracts/AuthService.sol\":1600:1612  uint(status) */\n      0x05\n      dup2\n      gt\n      iszero\n      tag_487\n      jumpi\n      tag_488\n      tag_123\n      jump\t// in\n    tag_488:\n    tag_487:\n        /* \"contracts/AuthService.sol\":1600:1640  uint(status) == users[msg.sender].status */\n      eq\n        /* \"contracts/AuthService.sol\":1592:1653  require(uint(status) == users[msg.sender].status,\"Forbidden\") */\n      tag_489\n      jumpi\n      mload(0x40)\n      0x08c379a000000000000000000000000000000000000000000000000000000000\n      dup2\n      mstore\n      0x04\n      add\n      tag_490\n      swap1\n      tag_126\n      jump\t// in\n    tag_490:\n      mload(0x40)\n      dup1\n      swap2\n      sub\n      swap1\n      revert\n    tag_489:\n        /* \"contracts/Shops.sol\":8444:8452  requests */\n      0x09\n        /* \"contracts/Shops.sol\":8437:8452  return requests */\n      dup1\n      sload\n      dup1\n      0x20\n      mul\n      0x20\n      add\n      mload(0x40)\n      swap1\n      dup2\n      add\n      0x40\n      mstore\n      dup1\n      swap3\n      swap2\n      swap1\n      dup2\n      dup2\n      mstore\n      0x20\n      add\n      0x00\n      swap1\n    tag_492:\n      dup3\n      dup3\n      lt\n      iszero\n      tag_493\n      jumpi\n      dup4\n      dup3\n      swap1\n      0x00\n      mstore\n      keccak256(0x00, 0x20)\n      add\n      dup1\n      sload\n      tag_495\n      swap1\n      tag_129\n      jump\t// in\n    tag_495:\n      dup1\n      0x1f\n      add\n      0x20\n      dup1\n      swap2\n      div\n      mul\n      0x20\n      add\n      mload(0x40)\n      swap1\n      dup2\n      add\n      0x40\n      mstore\n      dup1\n      swap3\n      swap2\n      swap1\n      dup2\n      dup2\n      mstore\n      0x20\n      add\n      dup3\n      dup1\n      sload\n      tag_496\n      swap1\n      tag_129\n      jump\t// in\n    tag_496:\n      dup1\n      iszero\n      tag_497\n      jumpi\n      dup1\n      0x1f\n      lt\n      tag_498\n      jumpi\n      0x0100\n      dup1\n      dup4\n      sload\n      div\n      mul\n      dup4\n      mstore\n      swap2\n      0x20\n      add\n      swap2\n      jump(tag_497)\n    tag_498:\n      dup3\n      add\n      swap2\n      swap1\n      0x00\n      mstore\n      keccak256(0x00, 0x20)\n      swap1\n    tag_499:\n      dup2\n      sload\n      dup2\n      mstore\n      swap1\n      0x01\n      add\n      swap1\n      0x20\n      add\n      dup1\n      dup4\n      gt\n      tag_499\n      jumpi\n      dup3\n      swap1\n      sub\n      0x1f\n      and\n      dup3\n      add\n      swap2\n    tag_497:\n      pop\n      pop\n      pop\n      pop\n      pop\n      dup2\n      mstore\n      0x20\n      add\n      swap1\n      0x01\n      add\n      swap1\n      jump(tag_492)\n    tag_493:\n      pop\n      pop\n      pop\n      pop\n      swap2\n      pop\n        /* \"contracts/Shops.sol\":8324:8459  function getAllRequests() public view isUserStatus(UserRoles.admin) returns(string[] memory requestsId){... */\n      pop\n      swap1\n      jump\t// out\n        /* \"contracts/AuthService.sol\":1874:2249  function registerFromAdmin(string memory fio,string memory userLogin,uint status,address userAddress) internal isNotRegistered(userAddress,userLogin){... */\n    tag_175:\n        /* \"contracts/AuthService.sol\":2001:2012  userAddress */\n      dup1\n        /* \"contracts/AuthService.sol\":2013:2022  userLogin */\n      dup4\n        /* \"contracts/AuthService.sol\":1038:1072  compare(users[userAddress].fio,\"\") */\n      tag_501\n        /* \"contracts/AuthService.sol\":1046:1051  users */\n      0x02\n        /* \"contracts/AuthService.sol\":1046:1064  users[userAddress] */\n      0x00\n        /* \"contracts/AuthService.sol\":1052:1063  userAddress */\n      dup5\n        /* \"contracts/AuthService.sol\":1046:1064  users[userAddress] */\n      0xffffffffffffffffffffffffffffffffffffffff\n      and\n      0xffffffffffffffffffffffffffffffffffffffff\n      and\n      dup2\n      mstore\n      0x20\n      add\n      swap1\n      dup2\n      mstore\n      0x20\n      add\n      0x00\n      keccak256\n        /* \"contracts/AuthService.sol\":1046:1068  users[userAddress].fio */\n      0x02\n      add\n        /* \"contracts/AuthService.sol\":1038:1072  compare(users[userAddress].fio,\"\") */\n      dup1\n      sload\n      tag_502\n      swap1\n      tag_129\n      jump\t// in\n    tag_502:\n      dup1\n      0x1f\n      add\n      0x20\n      dup1\n      swap2\n      div\n      mul\n      0x20\n      add\n      mload(0x40)\n      swap1\n      dup2\n      add\n      0x40\n      mstore\n      dup1\n      swap3\n      swap2\n      swap1\n      dup2\n      dup2\n      mstore\n      0x20\n      add\n      dup3\n      dup1\n      sload\n      tag_503\n      swap1\n      tag_129\n      jump\t// in\n    tag_503:\n      dup1\n      iszero\n      tag_504\n      jumpi\n      dup1\n      0x1f\n      lt\n      tag_505\n      jumpi\n      0x0100\n      dup1\n      dup4\n      sload\n      div\n      mul\n      dup4\n      mstore\n      swap2\n      0x20\n      add\n      swap2\n      jump(tag_504)\n    tag_505:\n      dup3\n      add\n      swap2\n      swap1\n      0x00\n      mstore\n      keccak256(0x00, 0x20)\n      swap1\n    tag_506:\n      dup2\n      sload\n      dup2\n      mstore\n      swap1\n      0x01\n      add\n      swap1\n      0x20\n      add\n      dup1\n      dup4\n      gt\n      tag_506\n      jumpi\n      dup3\n      swap1\n      sub\n      0x1f\n      and\n      dup3\n      add\n      swap2\n    tag_504:\n      pop\n      pop\n      pop\n      pop\n      pop\n      mload(0x40)\n      dup1\n      0x20\n      add\n      0x40\n      mstore\n      dup1\n      0x00\n      dup2\n      mstore\n      pop\n        /* \"contracts/AuthService.sol\":1038:1045  compare */\n      tag_183\n        /* \"contracts/AuthService.sol\":1038:1072  compare(users[userAddress].fio,\"\") */\n      jump\t// in\n    tag_501:\n        /* \"contracts/AuthService.sol\":1030:1098  require(compare(users[userAddress].fio,\"\"),\"You already registered\") */\n      tag_507\n      jumpi\n      mload(0x40)\n      0x08c379a000000000000000000000000000000000000000000000000000000000\n      dup2\n      mstore\n      0x04\n      add\n      tag_508\n      swap1\n      tag_509\n      jump\t// in\n    tag_508:\n      mload(0x40)\n      dup1\n      swap2\n      sub\n      swap1\n      revert\n    tag_507:\n        /* \"contracts/AuthService.sol\":1149:1150  0 */\n      0x00\n        /* \"contracts/AuthService.sol\":1116:1151  userLogins[userLogin] == address(0) */\n      0xffffffffffffffffffffffffffffffffffffffff\n      and\n        /* \"contracts/AuthService.sol\":1116:1126  userLogins */\n      0x01\n        /* \"contracts/AuthService.sol\":1127:1136  userLogin */\n      dup3\n        /* \"contracts/AuthService.sol\":1116:1137  userLogins[userLogin] */\n      mload(0x40)\n      tag_510\n      swap2\n      swap1\n      tag_164\n      jump\t// in\n    tag_510:\n      swap1\n      dup2\n      mstore\n      0x20\n      add\n      mload(0x40)\n      dup1\n      swap2\n      sub\n      swap1\n      keccak256\n      0x00\n      swap1\n      sload\n      swap1\n      0x0100\n      exp\n      swap1\n      div\n      0xffffffffffffffffffffffffffffffffffffffff\n      and\n        /* \"contracts/AuthService.sol\":1116:1151  userLogins[userLogin] == address(0) */\n      0xffffffffffffffffffffffffffffffffffffffff\n      and\n      eq\n        /* \"contracts/AuthService.sol\":1108:1189  require(userLogins[userLogin] == address(0),\"Your login already exist in system\") */\n      tag_511\n      jumpi\n      mload(0x40)\n      0x08c379a000000000000000000000000000000000000000000000000000000000\n      dup2\n      mstore\n      0x04\n      add\n      tag_512\n      swap1\n      tag_513\n      jump\t// in\n    tag_512:\n      mload(0x40)\n      dup1\n      swap2\n      sub\n      swap1\n      revert\n    tag_511:\n        /* \"contracts/AuthService.sol\":2033:2059  string[] memory reviewList */\n      0x60\n        /* \"contracts/AuthService.sol\":2069:2088  User memory newUser */\n      0x00\n        /* \"contracts/AuthService.sol\":2091:2159  User({fio:fio,userLogin:userLogin,status:status,reviews:reviewList}) */\n      mload(0x40)\n      dup1\n      0x80\n      add\n      0x40\n      mstore\n      dup1\n        /* \"contracts/AuthService.sol\":2132:2138  status */\n      dup8\n        /* \"contracts/AuthService.sol\":2091:2159  User({fio:fio,userLogin:userLogin,status:status,reviews:reviewList}) */\n      dup2\n      mstore\n      0x20\n      add\n        /* \"contracts/AuthService.sol\":2115:2124  userLogin */\n      dup9\n        /* \"contracts/AuthService.sol\":2091:2159  User({fio:fio,userLogin:userLogin,status:status,reviews:reviewList}) */\n      dup2\n      mstore\n      0x20\n      add\n        /* \"contracts/AuthService.sol\":2101:2104  fio */\n      dup10\n        /* \"contracts/AuthService.sol\":2091:2159  User({fio:fio,userLogin:userLogin,status:status,reviews:reviewList}) */\n      dup2\n      mstore\n      0x20\n      add\n        /* \"contracts/AuthService.sol\":2147:2157  reviewList */\n      dup4\n        /* \"contracts/AuthService.sol\":2091:2159  User({fio:fio,userLogin:userLogin,status:status,reviews:reviewList}) */\n      dup2\n      mstore\n      pop\n        /* \"contracts/AuthService.sol\":2069:2159  User memory newUser = User({fio:fio,userLogin:userLogin,status:status,reviews:reviewList}) */\n      swap1\n      pop\n        /* \"contracts/AuthService.sol\":2193:2204  userAddress */\n      dup5\n        /* \"contracts/AuthService.sol\":2169:2179  userLogins */\n      0x01\n        /* \"contracts/AuthService.sol\":2180:2189  userLogin */\n      dup9\n        /* \"contracts/AuthService.sol\":2169:2190  userLogins[userLogin] */\n      mload(0x40)\n      tag_515\n      swap2\n      swap1\n      tag_164\n      jump\t// in\n    tag_515:\n      swap1\n      dup2\n      mstore\n      0x20\n      add\n      mload(0x40)\n      dup1\n      swap2\n      sub\n      swap1\n      keccak256\n      0x00\n        /* \"contracts/AuthService.sol\":2169:2204  userLogins[userLogin] = userAddress */\n      0x0100\n      exp\n      dup2\n      sload\n      dup2\n      0xffffffffffffffffffffffffffffffffffffffff\n      mul\n      not\n      and\n      swap1\n      dup4\n      0xffffffffffffffffffffffffffffffffffffffff\n      and\n      mul\n      or\n      swap1\n      sstore\n      pop\n        /* \"contracts/AuthService.sol\":2235:2242  newUser */\n      dup1\n        /* \"contracts/AuthService.sol\":2214:2219  users */\n      0x02\n        /* \"contracts/AuthService.sol\":2214:2232  users[userAddress] */\n      0x00\n        /* \"contracts/AuthService.sol\":2220:2231  userAddress */\n      dup8\n        /* \"contracts/AuthService.sol\":2214:2232  users[userAddress] */\n      0xffffffffffffffffffffffffffffffffffffffff\n      and\n      0xffffffffffffffffffffffffffffffffffffffff\n      and\n      dup2\n      mstore\n      0x20\n      add\n      swap1\n      dup2\n      mstore\n      0x20\n      add\n      0x00\n      keccak256\n        /* \"contracts/AuthService.sol\":2214:2242  users[userAddress] = newUser */\n      0x00\n      dup3\n      add\n      mload\n      dup2\n      0x00\n      add\n      sstore\n      0x20\n      dup3\n      add\n      mload\n      dup2\n      0x01\n      add\n      swap1\n      dup1\n      mload\n      swap1\n      0x20\n      add\n      swap1\n      tag_516\n      swap3\n      swap2\n      swap1\n      tag_190\n      jump\t// in\n    tag_516:\n      pop\n      0x40\n      dup3\n      add\n      mload\n      dup2\n      0x02\n      add\n      swap1\n      dup1\n      mload\n      swap1\n      0x20\n      add\n      swap1\n      tag_517\n      swap3\n      swap2\n      swap1\n      tag_190\n      jump\t// in\n    tag_517:\n      pop\n      0x60\n      dup3\n      add\n      mload\n      dup2\n      0x03\n      add\n      swap1\n      dup1\n      mload\n      swap1\n      0x20\n      add\n      swap1\n      tag_518\n      swap3\n      swap2\n      swap1\n      tag_519\n      jump\t// in\n    tag_518:\n      pop\n      swap1\n      pop\n      pop\n        /* \"contracts/AuthService.sol\":2023:2249  {... */\n      pop\n      pop\n        /* \"contracts/AuthService.sol\":1874:2249  function registerFromAdmin(string memory fio,string memory userLogin,uint status,address userAddress) internal isNotRegistered(userAddress,userLogin){... */\n      pop\n      pop\n      pop\n      pop\n      pop\n      pop\n      jump\t// out\n        /* \"contracts/AuthService.sol\":779:945  function compare(string memory a,string memory b) internal pure returns (bool){... */\n    tag_183:\n        /* \"contracts/AuthService.sol\":852:856  bool */\n      0x00\n        /* \"contracts/AuthService.sol\":935:936  b */\n      dup2\n        /* \"contracts/AuthService.sol\":918:937  abi.encodePacked(b) */\n      add(0x20, mload(0x40))\n      tag_521\n      swap2\n      swap1\n      tag_164\n      jump\t// in\n    tag_521:\n      mload(0x40)\n      0x20\n      dup2\n      dup4\n      sub\n      sub\n      dup2\n      mstore\n      swap1\n      0x40\n      mstore\n        /* \"contracts/AuthService.sol\":908:938  keccak256(abi.encodePacked(b)) */\n      dup1\n      mload\n      swap1\n      0x20\n      add\n      keccak256\n        /* \"contracts/AuthService.sol\":901:902  a */\n      dup4\n        /* \"contracts/AuthService.sol\":884:903  abi.encodePacked(a) */\n      add(0x20, mload(0x40))\n      tag_522\n      swap2\n      swap1\n      tag_164\n      jump\t// in\n    tag_522:\n      mload(0x40)\n      0x20\n      dup2\n      dup4\n      sub\n      sub\n      dup2\n      mstore\n      swap1\n      0x40\n      mstore\n        /* \"contracts/AuthService.sol\":874:904  keccak256(abi.encodePacked(a)) */\n      dup1\n      mload\n      swap1\n      0x20\n      add\n      keccak256\n        /* \"contracts/AuthService.sol\":874:938  keccak256(abi.encodePacked(a)) == keccak256(abi.encodePacked(b)) */\n      eq\n        /* \"contracts/AuthService.sol\":867:938  return keccak256(abi.encodePacked(a)) == keccak256(abi.encodePacked(b)) */\n      swap1\n      pop\n        /* \"contracts/AuthService.sol\":779:945  function compare(string memory a,string memory b) internal pure returns (bool){... */\n      swap3\n      swap2\n      pop\n      pop\n      jump\t// out\n    tag_190:\n      dup3\n      dup1\n      sload\n      tag_523\n      swap1\n      tag_129\n      jump\t// in\n    tag_523:\n      swap1\n      0x00\n      mstore\n      keccak256(0x00, 0x20)\n      swap1\n      0x1f\n      add\n      0x20\n      swap1\n      div\n      dup2\n      add\n      swap3\n      dup3\n      tag_525\n      jumpi\n      0x00\n      dup6\n      sstore\n      jump(tag_524)\n    tag_525:\n      dup3\n      0x1f\n      lt\n      tag_526\n      jumpi\n      dup1\n      mload\n      not(0xff)\n      and\n      dup4\n      dup1\n      add\n      or\n      dup6\n      sstore\n      jump(tag_524)\n    tag_526:\n      dup3\n      dup1\n      add\n      0x01\n      add\n      dup6\n      sstore\n      dup3\n      iszero\n      tag_524\n      jumpi\n      swap2\n      dup3\n      add\n    tag_527:\n      dup3\n      dup2\n      gt\n      iszero\n      tag_528\n      jumpi\n      dup3\n      mload\n      dup3\n      sstore\n      swap2\n      0x20\n      add\n      swap2\n      swap1\n      0x01\n      add\n      swap1\n      jump(tag_527)\n    tag_528:\n    tag_524:\n      pop\n      swap1\n      pop\n      tag_529\n      swap2\n      swap1\n      tag_530\n      jump\t// in\n    tag_529:\n      pop\n      swap1\n      jump\t// out\n    tag_196:\n      dup3\n      dup1\n      sload\n      dup3\n      dup3\n      sstore\n      swap1\n      0x00\n      mstore\n      keccak256(0x00, 0x20)\n      swap1\n      dup2\n      add\n      swap3\n      dup3\n      iszero\n      tag_531\n      jumpi\n      swap2\n      0x20\n      mul\n      dup3\n      add\n    tag_532:\n      dup3\n      dup2\n      gt\n      iszero\n      tag_533\n      jumpi\n      dup3\n      mload\n      dup3\n      exp(0x0100, 0x00)\n      dup2\n      sload\n      dup2\n      0xffffffffffffffffffffffffffffffffffffffff\n      mul\n      not\n      and\n      swap1\n      dup4\n      0xffffffffffffffffffffffffffffffffffffffff\n      and\n      mul\n      or\n      swap1\n      sstore\n      pop\n      swap2\n      0x20\n      add\n      swap2\n      swap1\n      0x01\n      add\n      swap1\n      jump(tag_532)\n    tag_533:\n    tag_531:\n      pop\n      swap1\n      pop\n      tag_534\n      swap2\n      swap1\n      tag_530\n      jump\t// in\n    tag_534:\n      pop\n      swap1\n      jump\t// out\n    tag_519:\n      dup3\n      dup1\n      sload\n      dup3\n      dup3\n      sstore\n      swap1\n      0x00\n      mstore\n      keccak256(0x00, 0x20)\n      swap1\n      dup2\n      add\n      swap3\n      dup3\n      iszero\n      tag_535\n      jumpi\n      swap2\n      0x20\n      mul\n      dup3\n      add\n    tag_536:\n      dup3\n      dup2\n      gt\n      iszero\n      tag_537\n      jumpi\n      dup3\n      mload\n      dup3\n      swap1\n      dup1\n      mload\n      swap1\n      0x20\n      add\n      swap1\n      tag_538\n      swap3\n      swap2\n      swap1\n      tag_190\n      jump\t// in\n    tag_538:\n      pop\n      swap2\n      0x20\n      add\n      swap2\n      swap1\n      0x01\n      add\n      swap1\n      jump(tag_536)\n    tag_537:\n    tag_535:\n      pop\n      swap1\n      pop\n      tag_539\n      swap2\n      swap1\n      tag_540\n      jump\t// in\n    tag_539:\n      pop\n      swap1\n      jump\t// out\n    tag_530:\n    tag_541:\n      dup1\n      dup3\n      gt\n      iszero\n      tag_542\n      jumpi\n      0x00\n      dup2\n      0x00\n      swap1\n      sstore\n      pop\n      0x01\n      add\n      jump(tag_541)\n    tag_542:\n      pop\n      swap1\n      jump\t// out\n    tag_540:\n    tag_543:\n      dup1\n      dup3\n      gt\n      iszero\n      tag_544\n      jumpi\n      0x00\n      dup2\n      dup2\n      tag_545\n      swap2\n      swap1\n      tag_546\n      jump\t// in\n    tag_545:\n      pop\n      0x01\n      add\n      jump(tag_543)\n    tag_544:\n      pop\n      swap1\n      jump\t// out\n    tag_546:\n      pop\n      dup1\n      sload\n      tag_547\n      swap1\n      tag_129\n      jump\t// in\n    tag_547:\n      0x00\n      dup3\n      sstore\n      dup1\n      0x1f\n      lt\n      tag_549\n      jumpi\n      pop\n      jump(tag_548)\n    tag_549:\n      0x1f\n      add\n      0x20\n      swap1\n      div\n      swap1\n      0x00\n      mstore\n      keccak256(0x00, 0x20)\n      swap1\n      dup2\n      add\n      swap1\n      tag_550\n      swap2\n      swap1\n      tag_530\n      jump\t// in\n    tag_550:\n    tag_548:\n      pop\n      jump\t// out\n        /* \"#utility.yul\":7:419   */\n    tag_552:\n        /* \"#utility.yul\":85:90   */\n      0x00\n        /* \"#utility.yul\":110:176   */\n      tag_554\n        /* \"#utility.yul\":126:175   */\n      tag_555\n        /* \"#utility.yul\":168:174   */\n      dup5\n        /* \"#utility.yul\":126:175   */\n      tag_556\n      jump\t// in\n    tag_555:\n        /* \"#utility.yul\":110:176   */\n      tag_557\n      jump\t// in\n    tag_554:\n        /* \"#utility.yul\":101:176   */\n      swap1\n      pop\n        /* \"#utility.yul\":199:205   */\n      dup3\n        /* \"#utility.yul\":192:197   */\n      dup2\n        /* \"#utility.yul\":185:206   */\n      mstore\n        /* \"#utility.yul\":237:241   */\n      0x20\n        /* \"#utility.yul\":230:235   */\n      dup2\n        /* \"#utility.yul\":226:242   */\n      add\n        /* \"#utility.yul\":275:278   */\n      dup5\n        /* \"#utility.yul\":266:272   */\n      dup5\n        /* \"#utility.yul\":261:264   */\n      dup5\n        /* \"#utility.yul\":257:273   */\n      add\n        /* \"#utility.yul\":254:279   */\n      gt\n        /* \"#utility.yul\":251:363   */\n      iszero\n      tag_558\n      jumpi\n        /* \"#utility.yul\":282:361   */\n      tag_559\n      tag_560\n      jump\t// in\n    tag_559:\n        /* \"#utility.yul\":251:363   */\n    tag_558:\n        /* \"#utility.yul\":372:413   */\n      tag_561\n        /* \"#utility.yul\":406:412   */\n      dup5\n        /* \"#utility.yul\":401:404   */\n      dup3\n        /* \"#utility.yul\":396:399   */\n      dup6\n        /* \"#utility.yul\":372:413   */\n      tag_562\n      jump\t// in\n    tag_561:\n        /* \"#utility.yul\":91:419   */\n      pop\n        /* \"#utility.yul\":7:419   */\n      swap4\n      swap3\n      pop\n      pop\n      pop\n      jump\t// out\n        /* \"#utility.yul\":425:564   */\n    tag_563:\n        /* \"#utility.yul\":471:476   */\n      0x00\n        /* \"#utility.yul\":509:515   */\n      dup2\n        /* \"#utility.yul\":496:516   */\n      calldataload\n        /* \"#utility.yul\":487:516   */\n      swap1\n      pop\n        /* \"#utility.yul\":525:558   */\n      tag_565\n        /* \"#utility.yul\":552:557   */\n      dup2\n        /* \"#utility.yul\":525:558   */\n      tag_566\n      jump\t// in\n    tag_565:\n        /* \"#utility.yul\":425:564   */\n      swap3\n      swap2\n      pop\n      pop\n      jump\t// out\n        /* \"#utility.yul\":570:725   */\n    tag_567:\n        /* \"#utility.yul\":624:629   */\n      0x00\n        /* \"#utility.yul\":662:668   */\n      dup2\n        /* \"#utility.yul\":649:669   */\n      calldataload\n        /* \"#utility.yul\":640:669   */\n      swap1\n      pop\n        /* \"#utility.yul\":678:719   */\n      tag_569\n        /* \"#utility.yul\":713:718   */\n      dup2\n        /* \"#utility.yul\":678:719   */\n      tag_570\n      jump\t// in\n    tag_569:\n        /* \"#utility.yul\":570:725   */\n      swap3\n      swap2\n      pop\n      pop\n      jump\t// out\n        /* \"#utility.yul\":731:864   */\n    tag_571:\n        /* \"#utility.yul\":774:779   */\n      0x00\n        /* \"#utility.yul\":812:818   */\n      dup2\n        /* \"#utility.yul\":799:819   */\n      calldataload\n        /* \"#utility.yul\":790:819   */\n      swap1\n      pop\n        /* \"#utility.yul\":828:858   */\n      tag_573\n        /* \"#utility.yul\":852:857   */\n      dup2\n        /* \"#utility.yul\":828:858   */\n      tag_574\n      jump\t// in\n    tag_573:\n        /* \"#utility.yul\":731:864   */\n      swap3\n      swap2\n      pop\n      pop\n      jump\t// out\n        /* \"#utility.yul\":870:1007   */\n    tag_575:\n        /* \"#utility.yul\":915:920   */\n      0x00\n        /* \"#utility.yul\":953:959   */\n      dup2\n        /* \"#utility.yul\":940:960   */\n      calldataload\n        /* \"#utility.yul\":931:960   */\n      swap1\n      pop\n        /* \"#utility.yul\":969:1001   */\n      tag_577\n        /* \"#utility.yul\":995:1000   */\n      dup2\n        /* \"#utility.yul\":969:1001   */\n      tag_578\n      jump\t// in\n    tag_577:\n        /* \"#utility.yul\":870:1007   */\n      swap3\n      swap2\n      pop\n      pop\n      jump\t// out\n        /* \"#utility.yul\":1027:1367   */\n    tag_579:\n        /* \"#utility.yul\":1083:1088   */\n      0x00\n        /* \"#utility.yul\":1132:1135   */\n      dup3\n        /* \"#utility.yul\":1125:1129   */\n      0x1f\n        /* \"#utility.yul\":1117:1123   */\n      dup4\n        /* \"#utility.yul\":1113:1130   */\n      add\n        /* \"#utility.yul\":1109:1136   */\n      slt\n        /* \"#utility.yul\":1099:1221   */\n      tag_581\n      jumpi\n        /* \"#utility.yul\":1140:1219   */\n      tag_582\n      tag_583\n      jump\t// in\n    tag_582:\n        /* \"#utility.yul\":1099:1221   */\n    tag_581:\n        /* \"#utility.yul\":1257:1263   */\n      dup2\n        /* \"#utility.yul\":1244:1264   */\n      calldataload\n        /* \"#utility.yul\":1282:1361   */\n      tag_584\n        /* \"#utility.yul\":1357:1360   */\n      dup5\n        /* \"#utility.yul\":1349:1355   */\n      dup3\n        /* \"#utility.yul\":1342:1346   */\n      0x20\n        /* \"#utility.yul\":1334:1340   */\n      dup7\n        /* \"#utility.yul\":1330:1347   */\n      add\n        /* \"#utility.yul\":1282:1361   */\n      tag_552\n      jump\t// in\n    tag_584:\n        /* \"#utility.yul\":1273:1361   */\n      swap2\n      pop\n        /* \"#utility.yul\":1089:1367   */\n      pop\n        /* \"#utility.yul\":1027:1367   */\n      swap3\n      swap2\n      pop\n      pop\n      jump\t// out\n        /* \"#utility.yul\":1373:1702   */\n    tag_31:\n        /* \"#utility.yul\":1432:1438   */\n      0x00\n        /* \"#utility.yul\":1481:1483   */\n      0x20\n        /* \"#utility.yul\":1469:1478   */\n      dup3\n        /* \"#utility.yul\":1460:1467   */\n      dup5\n        /* \"#utility.yul\":1456:1479   */\n      sub\n        /* \"#utility.yul\":1452:1484   */\n      slt\n        /* \"#utility.yul\":1449:1568   */\n      iszero\n      tag_586\n      jumpi\n        /* \"#utility.yul\":1487:1566   */\n      tag_587\n      tag_588\n      jump\t// in\n    tag_587:\n        /* \"#utility.yul\":1449:1568   */\n    tag_586:\n        /* \"#utility.yul\":1607:1608   */\n      0x00\n        /* \"#utility.yul\":1632:1685   */\n      tag_589\n        /* \"#utility.yul\":1677:1684   */\n      dup5\n        /* \"#utility.yul\":1668:1674   */\n      dup3\n        /* \"#utility.yul\":1657:1666   */\n      dup6\n        /* \"#utility.yul\":1653:1675   */\n      add\n        /* \"#utility.yul\":1632:1685   */\n      tag_563\n      jump\t// in\n    tag_589:\n        /* \"#utility.yul\":1622:1685   */\n      swap2\n      pop\n        /* \"#utility.yul\":1578:1695   */\n      pop\n        /* \"#utility.yul\":1373:1702   */\n      swap3\n      swap2\n      pop\n      pop\n      jump\t// out\n        /* \"#utility.yul\":1708:2053   */\n    tag_73:\n        /* \"#utility.yul\":1775:1781   */\n      0x00\n        /* \"#utility.yul\":1824:1826   */\n      0x20\n        /* \"#utility.yul\":1812:1821   */\n      dup3\n        /* \"#utility.yul\":1803:1810   */\n      dup5\n        /* \"#utility.yul\":1799:1822   */\n      sub\n        /* \"#utility.yul\":1795:1827   */\n      slt\n        /* \"#utility.yul\":1792:1911   */\n      iszero\n      tag_591\n      jumpi\n        /* \"#utility.yul\":1830:1909   */\n      tag_592\n      tag_588\n      jump\t// in\n    tag_592:\n        /* \"#utility.yul\":1792:1911   */\n    tag_591:\n        /* \"#utility.yul\":1950:1951   */\n      0x00\n        /* \"#utility.yul\":1975:2036   */\n      tag_593\n        /* \"#utility.yul\":2028:2035   */\n      dup5\n        /* \"#utility.yul\":2019:2025   */\n      dup3\n        /* \"#utility.yul\":2008:2017   */\n      dup6\n        /* \"#utility.yul\":2004:2026   */\n      add\n        /* \"#utility.yul\":1975:2036   */\n      tag_567\n      jump\t// in\n    tag_593:\n        /* \"#utility.yul\":1965:2036   */\n      swap2\n      pop\n        /* \"#utility.yul\":1921:2046   */\n      pop\n        /* \"#utility.yul\":1708:2053   */\n      swap3\n      swap2\n      pop\n      pop\n      jump\t// out\n        /* \"#utility.yul\":2059:3038   */\n    tag_89:\n        /* \"#utility.yul\":2156:2162   */\n      0x00\n        /* \"#utility.yul\":2164:2170   */\n      dup1\n        /* \"#utility.yul\":2172:2178   */\n      0x00\n        /* \"#utility.yul\":2221:2223   */\n      0x60\n        /* \"#utility.yul\":2209:2218   */\n      dup5\n        /* \"#utility.yul\":2200:2207   */\n      dup7\n        /* \"#utility.yul\":2196:2219   */\n      sub\n        /* \"#utility.yul\":2192:2224   */\n      slt\n        /* \"#utility.yul\":2189:2308   */\n      iszero\n      tag_595\n      jumpi\n        /* \"#utility.yul\":2227:2306   */\n      tag_596\n      tag_588\n      jump\t// in\n    tag_596:\n        /* \"#utility.yul\":2189:2308   */\n    tag_595:\n        /* \"#utility.yul\":2347:2348   */\n      0x00\n        /* \"#utility.yul\":2372:2425   */\n      tag_597\n        /* \"#utility.yul\":2417:2424   */\n      dup7\n        /* \"#utility.yul\":2408:2414   */\n      dup3\n        /* \"#utility.yul\":2397:2406   */\n      dup8\n        /* \"#utility.yul\":2393:2415   */\n      add\n        /* \"#utility.yul\":2372:2425   */\n      tag_563\n      jump\t// in\n    tag_597:\n        /* \"#utility.yul\":2362:2425   */\n      swap4\n      pop\n        /* \"#utility.yul\":2318:2435   */\n      pop\n        /* \"#utility.yul\":2502:2504   */\n      0x20\n        /* \"#utility.yul\":2491:2500   */\n      dup5\n        /* \"#utility.yul\":2487:2505   */\n      add\n        /* \"#utility.yul\":2474:2506   */\n      calldataload\n        /* \"#utility.yul\":2533:2551   */\n      0xffffffffffffffff\n        /* \"#utility.yul\":2525:2531   */\n      dup2\n        /* \"#utility.yul\":2522:2552   */\n      gt\n        /* \"#utility.yul\":2519:2636   */\n      iszero\n      tag_598\n      jumpi\n        /* \"#utility.yul\":2555:2634   */\n      tag_599\n      tag_600\n      jump\t// in\n    tag_599:\n        /* \"#utility.yul\":2519:2636   */\n    tag_598:\n        /* \"#utility.yul\":2660:2723   */\n      tag_601\n        /* \"#utility.yul\":2715:2722   */\n      dup7\n        /* \"#utility.yul\":2706:2712   */\n      dup3\n        /* \"#utility.yul\":2695:2704   */\n      dup8\n        /* \"#utility.yul\":2691:2713   */\n      add\n        /* \"#utility.yul\":2660:2723   */\n      tag_579\n      jump\t// in\n    tag_601:\n        /* \"#utility.yul\":2650:2723   */\n      swap3\n      pop\n        /* \"#utility.yul\":2445:2733   */\n      pop\n        /* \"#utility.yul\":2800:2802   */\n      0x40\n        /* \"#utility.yul\":2789:2798   */\n      dup5\n        /* \"#utility.yul\":2785:2803   */\n      add\n        /* \"#utility.yul\":2772:2804   */\n      calldataload\n        /* \"#utility.yul\":2831:2849   */\n      0xffffffffffffffff\n        /* \"#utility.yul\":2823:2829   */\n      dup2\n        /* \"#utility.yul\":2820:2850   */\n      gt\n        /* \"#utility.yul\":2817:2934   */\n      iszero\n      tag_602\n      jumpi\n        /* \"#utility.yul\":2853:2932   */\n      tag_603\n      tag_600\n      jump\t// in\n    tag_603:\n        /* \"#utility.yul\":2817:2934   */\n    tag_602:\n        /* \"#utility.yul\":2958:3021   */\n      tag_604\n        /* \"#utility.yul\":3013:3020   */\n      dup7\n        /* \"#utility.yul\":3004:3010   */\n      dup3\n        /* \"#utility.yul\":2993:3002   */\n      dup8\n        /* \"#utility.yul\":2989:3011   */\n      add\n        /* \"#utility.yul\":2958:3021   */\n      tag_579\n      jump\t// in\n    tag_604:\n        /* \"#utility.yul\":2948:3021   */\n      swap2\n      pop\n        /* \"#utility.yul\":2743:3031   */\n      pop\n        /* \"#utility.yul\":2059:3038   */\n      swap3\n      pop\n      swap3\n      pop\n      swap3\n      jump\t// out\n        /* \"#utility.yul\":3044:4167   */\n    tag_45:\n        /* \"#utility.yul\":3149:3155   */\n      0x00\n        /* \"#utility.yul\":3157:3163   */\n      dup1\n        /* \"#utility.yul\":3165:3171   */\n      0x00\n        /* \"#utility.yul\":3173:3179   */\n      dup1\n        /* \"#utility.yul\":3222:3225   */\n      0x80\n        /* \"#utility.yul\":3210:3219   */\n      dup6\n        /* \"#utility.yul\":3201:3208   */\n      dup8\n        /* \"#utility.yul\":3197:3220   */\n      sub\n        /* \"#utility.yul\":3193:3226   */\n      slt\n        /* \"#utility.yul\":3190:3310   */\n      iszero\n      tag_606\n      jumpi\n        /* \"#utility.yul\":3229:3308   */\n      tag_607\n      tag_588\n      jump\t// in\n    tag_607:\n        /* \"#utility.yul\":3190:3310   */\n    tag_606:\n        /* \"#utility.yul\":3349:3350   */\n      0x00\n        /* \"#utility.yul\":3374:3427   */\n      tag_608\n        /* \"#utility.yul\":3419:3426   */\n      dup8\n        /* \"#utility.yul\":3410:3416   */\n      dup3\n        /* \"#utility.yul\":3399:3408   */\n      dup9\n        /* \"#utility.yul\":3395:3417   */\n      add\n        /* \"#utility.yul\":3374:3427   */\n      tag_563\n      jump\t// in\n    tag_608:\n        /* \"#utility.yul\":3364:3427   */\n      swap5\n      pop\n        /* \"#utility.yul\":3320:3437   */\n      pop\n        /* \"#utility.yul\":3504:3506   */\n      0x20\n        /* \"#utility.yul\":3493:3502   */\n      dup6\n        /* \"#utility.yul\":3489:3507   */\n      add\n        /* \"#utility.yul\":3476:3508   */\n      calldataload\n        /* \"#utility.yul\":3535:3553   */\n      0xffffffffffffffff\n        /* \"#utility.yul\":3527:3533   */\n      dup2\n        /* \"#utility.yul\":3524:3554   */\n      gt\n        /* \"#utility.yul\":3521:3638   */\n      iszero\n      tag_609\n      jumpi\n        /* \"#utility.yul\":3557:3636   */\n      tag_610\n      tag_600\n      jump\t// in\n    tag_610:\n        /* \"#utility.yul\":3521:3638   */\n    tag_609:\n        /* \"#utility.yul\":3662:3725   */\n      tag_611\n        /* \"#utility.yul\":3717:3724   */\n      dup8\n        /* \"#utility.yul\":3708:3714   */\n      dup3\n        /* \"#utility.yul\":3697:3706   */\n      dup9\n        /* \"#utility.yul\":3693:3715   */\n      add\n        /* \"#utility.yul\":3662:3725   */\n      tag_579\n      jump\t// in\n    tag_611:\n        /* \"#utility.yul\":3652:3725   */\n      swap4\n      pop\n        /* \"#utility.yul\":3447:3735   */\n      pop\n        /* \"#utility.yul\":3802:3804   */\n      0x40\n        /* \"#utility.yul\":3791:3800   */\n      dup6\n        /* \"#utility.yul\":3787:3805   */\n      add\n        /* \"#utility.yul\":3774:3806   */\n      calldataload\n        /* \"#utility.yul\":3833:3851   */\n      0xffffffffffffffff\n        /* \"#utility.yul\":3825:3831   */\n      dup2\n        /* \"#utility.yul\":3822:3852   */\n      gt\n        /* \"#utility.yul\":3819:3936   */\n      iszero\n      tag_612\n      jumpi\n        /* \"#utility.yul\":3855:3934   */\n      tag_613\n      tag_600\n      jump\t// in\n    tag_613:\n        /* \"#utility.yul\":3819:3936   */\n    tag_612:\n        /* \"#utility.yul\":3960:4023   */\n      tag_614\n        /* \"#utility.yul\":4015:4022   */\n      dup8\n        /* \"#utility.yul\":4006:4012   */\n      dup3\n        /* \"#utility.yul\":3995:4004   */\n      dup9\n        /* \"#utility.yul\":3991:4013   */\n      add\n        /* \"#utility.yul\":3960:4023   */\n      tag_579\n      jump\t// in\n    tag_614:\n        /* \"#utility.yul\":3950:4023   */\n      swap3\n      pop\n        /* \"#utility.yul\":3745:4033   */\n      pop\n        /* \"#utility.yul\":4072:4074   */\n      0x60\n        /* \"#utility.yul\":4098:4150   */\n      tag_615\n        /* \"#utility.yul\":4142:4149   */\n      dup8\n        /* \"#utility.yul\":4133:4139   */\n      dup3\n        /* \"#utility.yul\":4122:4131   */\n      dup9\n        /* \"#utility.yul\":4118:4140   */\n      add\n        /* \"#utility.yul\":4098:4150   */\n      tag_575\n      jump\t// in\n    tag_615:\n        /* \"#utility.yul\":4088:4150   */\n      swap2\n      pop\n        /* \"#utility.yul\":4043:4160   */\n      pop\n        /* \"#utility.yul\":3044:4167   */\n      swap3\n      swap6\n      swap2\n      swap5\n      pop\n      swap3\n      pop\n      jump\t// out\n        /* \"#utility.yul\":4173:5478   */\n    tag_63:\n        /* \"#utility.yul\":4289:4295   */\n      0x00\n        /* \"#utility.yul\":4297:4303   */\n      dup1\n        /* \"#utility.yul\":4305:4311   */\n      0x00\n        /* \"#utility.yul\":4313:4319   */\n      dup1\n        /* \"#utility.yul\":4362:4365   */\n      0x80\n        /* \"#utility.yul\":4350:4359   */\n      dup6\n        /* \"#utility.yul\":4341:4348   */\n      dup8\n        /* \"#utility.yul\":4337:4360   */\n      sub\n        /* \"#utility.yul\":4333:4366   */\n      slt\n        /* \"#utility.yul\":4330:4450   */\n      iszero\n      tag_617\n      jumpi\n        /* \"#utility.yul\":4369:4448   */\n      tag_618\n      tag_588\n      jump\t// in\n    tag_618:\n        /* \"#utility.yul\":4330:4450   */\n    tag_617:\n        /* \"#utility.yul\":4489:4490   */\n      0x00\n        /* \"#utility.yul\":4514:4567   */\n      tag_619\n        /* \"#utility.yul\":4559:4566   */\n      dup8\n        /* \"#utility.yul\":4550:4556   */\n      dup3\n        /* \"#utility.yul\":4539:4548   */\n      dup9\n        /* \"#utility.yul\":4535:4557   */\n      add\n        /* \"#utility.yul\":4514:4567   */\n      tag_563\n      jump\t// in\n    tag_619:\n        /* \"#utility.yul\":4504:4567   */\n      swap5\n      pop\n        /* \"#utility.yul\":4460:4577   */\n      pop\n        /* \"#utility.yul\":4644:4646   */\n      0x20\n        /* \"#utility.yul\":4633:4642   */\n      dup6\n        /* \"#utility.yul\":4629:4647   */\n      add\n        /* \"#utility.yul\":4616:4648   */\n      calldataload\n        /* \"#utility.yul\":4675:4693   */\n      0xffffffffffffffff\n        /* \"#utility.yul\":4667:4673   */\n      dup2\n        /* \"#utility.yul\":4664:4694   */\n      gt\n        /* \"#utility.yul\":4661:4778   */\n      iszero\n      tag_620\n      jumpi\n        /* \"#utility.yul\":4697:4776   */\n      tag_621\n      tag_600\n      jump\t// in\n    tag_621:\n        /* \"#utility.yul\":4661:4778   */\n    tag_620:\n        /* \"#utility.yul\":4802:4865   */\n      tag_622\n        /* \"#utility.yul\":4857:4864   */\n      dup8\n        /* \"#utility.yul\":4848:4854   */\n      dup3\n        /* \"#utility.yul\":4837:4846   */\n      dup9\n        /* \"#utility.yul\":4833:4855   */\n      add\n        /* \"#utility.yul\":4802:4865   */\n      tag_579\n      jump\t// in\n    tag_622:\n        /* \"#utility.yul\":4792:4865   */\n      swap4\n      pop\n        /* \"#utility.yul\":4587:4875   */\n      pop\n        /* \"#utility.yul\":4942:4944   */\n      0x40\n        /* \"#utility.yul\":4931:4940   */\n      dup6\n        /* \"#utility.yul\":4927:4945   */\n      add\n        /* \"#utility.yul\":4914:4946   */\n      calldataload\n        /* \"#utility.yul\":4973:4991   */\n      0xffffffffffffffff\n        /* \"#utility.yul\":4965:4971   */\n      dup2\n        /* \"#utility.yul\":4962:4992   */\n      gt\n        /* \"#utility.yul\":4959:5076   */\n      iszero\n      tag_623\n      jumpi\n        /* \"#utility.yul\":4995:5074   */\n      tag_624\n      tag_600\n      jump\t// in\n    tag_624:\n        /* \"#utility.yul\":4959:5076   */\n    tag_623:\n        /* \"#utility.yul\":5100:5163   */\n      tag_625\n        /* \"#utility.yul\":5155:5162   */\n      dup8\n        /* \"#utility.yul\":5146:5152   */\n      dup3\n        /* \"#utility.yul\":5135:5144   */\n      dup9\n        /* \"#utility.yul\":5131:5153   */\n      add\n        /* \"#utility.yul\":5100:5163   */\n      tag_579\n      jump\t// in\n    tag_625:\n        /* \"#utility.yul\":5090:5163   */\n      swap3\n      pop\n        /* \"#utility.yul\":4885:5173   */\n      pop\n        /* \"#utility.yul\":5240:5242   */\n      0x60\n        /* \"#utility.yul\":5229:5238   */\n      dup6\n        /* \"#utility.yul\":5225:5243   */\n      add\n        /* \"#utility.yul\":5212:5244   */\n      calldataload\n        /* \"#utility.yul\":5271:5289   */\n      0xffffffffffffffff\n        /* \"#utility.yul\":5263:5269   */\n      dup2\n        /* \"#utility.yul\":5260:5290   */\n      gt\n        /* \"#utility.yul\":5257:5374   */\n      iszero\n      tag_626\n      jumpi\n        /* \"#utility.yul\":5293:5372   */\n      tag_627\n      tag_600\n      jump\t// in\n    tag_627:\n        /* \"#utility.yul\":5257:5374   */\n    tag_626:\n        /* \"#utility.yul\":5398:5461   */\n      tag_628\n        /* \"#utility.yul\":5453:5460   */\n      dup8\n        /* \"#utility.yul\":5444:5450   */\n      dup3\n        /* \"#utility.yul\":5433:5442   */\n      dup9\n        /* \"#utility.yul\":5429:5451   */\n      add\n        /* \"#utility.yul\":5398:5461   */\n      tag_579\n      jump\t// in\n    tag_628:\n        /* \"#utility.yul\":5388:5461   */\n      swap2\n      pop\n        /* \"#utility.yul\":5183:5471   */\n      pop\n        /* \"#utility.yul\":4173:5478   */\n      swap3\n      swap6\n      swap2\n      swap5\n      pop\n      swap3\n      pop\n      jump\t// out\n        /* \"#utility.yul\":5484:5993   */\n    tag_49:\n        /* \"#utility.yul\":5553:5559   */\n      0x00\n        /* \"#utility.yul\":5602:5604   */\n      0x20\n        /* \"#utility.yul\":5590:5599   */\n      dup3\n        /* \"#utility.yul\":5581:5588   */\n      dup5\n        /* \"#utility.yul\":5577:5600   */\n      sub\n        /* \"#utility.yul\":5573:5605   */\n      slt\n        /* \"#utility.yul\":5570:5689   */\n      iszero\n      tag_630\n      jumpi\n        /* \"#utility.yul\":5608:5687   */\n      tag_631\n      tag_588\n      jump\t// in\n    tag_631:\n        /* \"#utility.yul\":5570:5689   */\n    tag_630:\n        /* \"#utility.yul\":5756:5757   */\n      0x00\n        /* \"#utility.yul\":5745:5754   */\n      dup3\n        /* \"#utility.yul\":5741:5758   */\n      add\n        /* \"#utility.yul\":5728:5759   */\n      calldataload\n        /* \"#utility.yul\":5786:5804   */\n      0xffffffffffffffff\n        /* \"#utility.yul\":5778:5784   */\n      dup2\n        /* \"#utility.yul\":5775:5805   */\n      gt\n        /* \"#utility.yul\":5772:5889   */\n      iszero\n      tag_632\n      jumpi\n        /* \"#utility.yul\":5808:5887   */\n      tag_633\n      tag_600\n      jump\t// in\n    tag_633:\n        /* \"#utility.yul\":5772:5889   */\n    tag_632:\n        /* \"#utility.yul\":5913:5976   */\n      tag_634\n        /* \"#utility.yul\":5968:5975   */\n      dup5\n        /* \"#utility.yul\":5959:5965   */\n      dup3\n        /* \"#utility.yul\":5948:5957   */\n      dup6\n        /* \"#utility.yul\":5944:5966   */\n      add\n        /* \"#utility.yul\":5913:5976   */\n      tag_579\n      jump\t// in\n    tag_634:\n        /* \"#utility.yul\":5903:5976   */\n      swap2\n      pop\n        /* \"#utility.yul\":5699:5986   */\n      pop\n        /* \"#utility.yul\":5484:5993   */\n      swap3\n      swap2\n      pop\n      pop\n      jump\t// out\n        /* \"#utility.yul\":5999:6653   */\n    tag_41:\n        /* \"#utility.yul\":6077:6083   */\n      0x00\n        /* \"#utility.yul\":6085:6091   */\n      dup1\n        /* \"#utility.yul\":6134:6136   */\n      0x40\n        /* \"#utility.yul\":6122:6131   */\n      dup4\n        /* \"#utility.yul\":6113:6120   */\n      dup6\n        /* \"#utility.yul\":6109:6132   */\n      sub\n        /* \"#utility.yul\":6105:6137   */\n      slt\n        /* \"#utility.yul\":6102:6221   */\n      iszero\n      tag_636\n      jumpi\n        /* \"#utility.yul\":6140:6219   */\n      tag_637\n      tag_588\n      jump\t// in\n    tag_637:\n        /* \"#utility.yul\":6102:6221   */\n    tag_636:\n        /* \"#utility.yul\":6288:6289   */\n      0x00\n        /* \"#utility.yul\":6277:6286   */\n      dup4\n        /* \"#utility.yul\":6273:6290   */\n      add\n        /* \"#utility.yul\":6260:6291   */\n      calldataload\n        /* \"#utility.yul\":6318:6336   */\n      0xffffffffffffffff\n        /* \"#utility.yul\":6310:6316   */\n      dup2\n        /* \"#utility.yul\":6307:6337   */\n      gt\n        /* \"#utility.yul\":6304:6421   */\n      iszero\n      tag_638\n      jumpi\n        /* \"#utility.yul\":6340:6419   */\n      tag_639\n      tag_600\n      jump\t// in\n    tag_639:\n        /* \"#utility.yul\":6304:6421   */\n    tag_638:\n        /* \"#utility.yul\":6445:6508   */\n      tag_640\n        /* \"#utility.yul\":6500:6507   */\n      dup6\n        /* \"#utility.yul\":6491:6497   */\n      dup3\n        /* \"#utility.yul\":6480:6489   */\n      dup7\n        /* \"#utility.yul\":6476:6498   */\n      add\n        /* \"#utility.yul\":6445:6508   */\n      tag_579\n      jump\t// in\n    tag_640:\n        /* \"#utility.yul\":6435:6508   */\n      swap3\n      pop\n        /* \"#utility.yul\":6231:6518   */\n      pop\n        /* \"#utility.yul\":6557:6559   */\n      0x20\n        /* \"#utility.yul\":6583:6636   */\n      tag_641\n        /* \"#utility.yul\":6628:6635   */\n      dup6\n        /* \"#utility.yul\":6619:6625   */\n      dup3\n        /* \"#utility.yul\":6608:6617   */\n      dup7\n        /* \"#utility.yul\":6604:6626   */\n      add\n        /* \"#utility.yul\":6583:6636   */\n      tag_563\n      jump\t// in\n    tag_641:\n        /* \"#utility.yul\":6573:6636   */\n      swap2\n      pop\n        /* \"#utility.yul\":6528:6646   */\n      pop\n        /* \"#utility.yul\":5999:6653   */\n      swap3\n      pop\n      swap3\n      swap1\n      pop\n      jump\t// out\n        /* \"#utility.yul\":6659:7307   */\n    tag_37:\n        /* \"#utility.yul\":6734:6740   */\n      0x00\n        /* \"#utility.yul\":6742:6748   */\n      dup1\n        /* \"#utility.yul\":6791:6793   */\n      0x40\n        /* \"#utility.yul\":6779:6788   */\n      dup4\n        /* \"#utility.yul\":6770:6777   */\n      dup6\n        /* \"#utility.yul\":6766:6789   */\n      sub\n        /* \"#utility.yul\":6762:6794   */\n      slt\n        /* \"#utility.yul\":6759:6878   */\n      iszero\n      tag_643\n      jumpi\n        /* \"#utility.yul\":6797:6876   */\n      tag_644\n      tag_588\n      jump\t// in\n    tag_644:\n        /* \"#utility.yul\":6759:6878   */\n    tag_643:\n        /* \"#utility.yul\":6945:6946   */\n      0x00\n        /* \"#utility.yul\":6934:6943   */\n      dup4\n        /* \"#utility.yul\":6930:6947   */\n      add\n        /* \"#utility.yul\":6917:6948   */\n      calldataload\n        /* \"#utility.yul\":6975:6993   */\n      0xffffffffffffffff\n        /* \"#utility.yul\":6967:6973   */\n      dup2\n        /* \"#utility.yul\":6964:6994   */\n      gt\n        /* \"#utility.yul\":6961:7078   */\n      iszero\n      tag_645\n      jumpi\n        /* \"#utility.yul\":6997:7076   */\n      tag_646\n      tag_600\n      jump\t// in\n    tag_646:\n        /* \"#utility.yul\":6961:7078   */\n    tag_645:\n        /* \"#utility.yul\":7102:7165   */\n      tag_647\n        /* \"#utility.yul\":7157:7164   */\n      dup6\n        /* \"#utility.yul\":7148:7154   */\n      dup3\n        /* \"#utility.yul\":7137:7146   */\n      dup7\n        /* \"#utility.yul\":7133:7155   */\n      add\n        /* \"#utility.yul\":7102:7165   */\n      tag_579\n      jump\t// in\n    tag_647:\n        /* \"#utility.yul\":7092:7165   */\n      swap3\n      pop\n        /* \"#utility.yul\":6888:7175   */\n      pop\n        /* \"#utility.yul\":7214:7216   */\n      0x20\n        /* \"#utility.yul\":7240:7290   */\n      tag_648\n        /* \"#utility.yul\":7282:7289   */\n      dup6\n        /* \"#utility.yul\":7273:7279   */\n      dup3\n        /* \"#utility.yul\":7262:7271   */\n      dup7\n        /* \"#utility.yul\":7258:7280   */\n      add\n        /* \"#utility.yul\":7240:7290   */\n      tag_571\n      jump\t// in\n    tag_648:\n        /* \"#utility.yul\":7230:7290   */\n      swap2\n      pop\n        /* \"#utility.yul\":7185:7300   */\n      pop\n        /* \"#utility.yul\":6659:7307   */\n      swap3\n      pop\n      swap3\n      swap1\n      pop\n      jump\t// out\n        /* \"#utility.yul\":7313:8147   */\n    tag_114:\n        /* \"#utility.yul\":7401:7407   */\n      0x00\n        /* \"#utility.yul\":7409:7415   */\n      dup1\n        /* \"#utility.yul\":7458:7460   */\n      0x40\n        /* \"#utility.yul\":7446:7455   */\n      dup4\n        /* \"#utility.yul\":7437:7444   */\n      dup6\n        /* \"#utility.yul\":7433:7456   */\n      sub\n        /* \"#utility.yul\":7429:7461   */\n      slt\n        /* \"#utility.yul\":7426:7545   */\n      iszero\n      tag_650\n      jumpi\n        /* \"#utility.yul\":7464:7543   */\n      tag_651\n      tag_588\n      jump\t// in\n    tag_651:\n        /* \"#utility.yul\":7426:7545   */\n    tag_650:\n        /* \"#utility.yul\":7612:7613   */\n      0x00\n        /* \"#utility.yul\":7601:7610   */\n      dup4\n        /* \"#utility.yul\":7597:7614   */\n      add\n        /* \"#utility.yul\":7584:7615   */\n      calldataload\n        /* \"#utility.yul\":7642:7660   */\n      0xffffffffffffffff\n        /* \"#utility.yul\":7634:7640   */\n      dup2\n        /* \"#utility.yul\":7631:7661   */\n      gt\n        /* \"#utility.yul\":7628:7745   */\n      iszero\n      tag_652\n      jumpi\n        /* \"#utility.yul\":7664:7743   */\n      tag_653\n      tag_600\n      jump\t// in\n    tag_653:\n        /* \"#utility.yul\":7628:7745   */\n    tag_652:\n        /* \"#utility.yul\":7769:7832   */\n      tag_654\n        /* \"#utility.yul\":7824:7831   */\n      dup6\n        /* \"#utility.yul\":7815:7821   */\n      dup3\n        /* \"#utility.yul\":7804:7813   */\n      dup7\n        /* \"#utility.yul\":7800:7822   */\n      add\n        /* \"#utility.yul\":7769:7832   */\n      tag_579\n      jump\t// in\n    tag_654:\n        /* \"#utility.yul\":7759:7832   */\n      swap3\n      pop\n        /* \"#utility.yul\":7555:7842   */\n      pop\n        /* \"#utility.yul\":7909:7911   */\n      0x20\n        /* \"#utility.yul\":7898:7907   */\n      dup4\n        /* \"#utility.yul\":7894:7912   */\n      add\n        /* \"#utility.yul\":7881:7913   */\n      calldataload\n        /* \"#utility.yul\":7940:7958   */\n      0xffffffffffffffff\n        /* \"#utility.yul\":7932:7938   */\n      dup2\n        /* \"#utility.yul\":7929:7959   */\n      gt\n        /* \"#utility.yul\":7926:8043   */\n      iszero\n      tag_655\n      jumpi\n        /* \"#utility.yul\":7962:8041   */\n      tag_656\n      tag_600\n      jump\t// in\n    tag_656:\n        /* \"#utility.yul\":7926:8043   */\n    tag_655:\n        /* \"#utility.yul\":8067:8130   */\n      tag_657\n        /* \"#utility.yul\":8122:8129   */\n      dup6\n        /* \"#utility.yul\":8113:8119   */\n      dup3\n        /* \"#utility.yul\":8102:8111   */\n      dup7\n        /* \"#utility.yul\":8098:8120   */\n      add\n        /* \"#utility.yul\":8067:8130   */\n      tag_579\n      jump\t// in\n    tag_657:\n        /* \"#utility.yul\":8057:8130   */\n      swap2\n      pop\n        /* \"#utility.yul\":7852:8140   */\n      pop\n        /* \"#utility.yul\":7313:8147   */\n      swap3\n      pop\n      swap3\n      swap1\n      pop\n      jump\t// out\n        /* \"#utility.yul\":8153:9132   */\n    tag_85:\n        /* \"#utility.yul\":8250:8256   */\n      0x00\n        /* \"#utility.yul\":8258:8264   */\n      dup1\n        /* \"#utility.yul\":8266:8272   */\n      0x00\n        /* \"#utility.yul\":8315:8317   */\n      0x60\n        /* \"#utility.yul\":8303:8312   */\n      dup5\n        /* \"#utility.yul\":8294:8301   */\n      dup7\n        /* \"#utility.yul\":8290:8313   */\n      sub\n        /* \"#utility.yul\":8286:8318   */\n      slt\n        /* \"#utility.yul\":8283:8402   */\n      iszero\n      tag_659\n      jumpi\n        /* \"#utility.yul\":8321:8400   */\n      tag_660\n      tag_588\n      jump\t// in\n    tag_660:\n        /* \"#utility.yul\":8283:8402   */\n    tag_659:\n        /* \"#utility.yul\":8469:8470   */\n      0x00\n        /* \"#utility.yul\":8458:8467   */\n      dup5\n        /* \"#utility.yul\":8454:8471   */\n      add\n        /* \"#utility.yul\":8441:8472   */\n      calldataload\n        /* \"#utility.yul\":8499:8517   */\n      0xffffffffffffffff\n        /* \"#utility.yul\":8491:8497   */\n      dup2\n        /* \"#utility.yul\":8488:8518   */\n      gt\n        /* \"#utility.yul\":8485:8602   */\n      iszero\n      tag_661\n      jumpi\n        /* \"#utility.yul\":8521:8600   */\n      tag_662\n      tag_600\n      jump\t// in\n    tag_662:\n        /* \"#utility.yul\":8485:8602   */\n    tag_661:\n        /* \"#utility.yul\":8626:8689   */\n      tag_663\n        /* \"#utility.yul\":8681:8688   */\n      dup7\n        /* \"#utility.yul\":8672:8678   */\n      dup3\n        /* \"#utility.yul\":8661:8670   */\n      dup8\n        /* \"#utility.yul\":8657:8679   */\n      add\n        /* \"#utility.yul\":8626:8689   */\n      tag_579\n      jump\t// in\n    tag_663:\n        /* \"#utility.yul\":8616:8689   */\n      swap4\n      pop\n        /* \"#utility.yul\":8412:8699   */\n      pop\n        /* \"#utility.yul\":8766:8768   */\n      0x20\n        /* \"#utility.yul\":8755:8764   */\n      dup5\n        /* \"#utility.yul\":8751:8769   */\n      add\n        /* \"#utility.yul\":8738:8770   */\n      calldataload\n        /* \"#utility.yul\":8797:8815   */\n      0xffffffffffffffff\n        /* \"#utility.yul\":8789:8795   */\n      dup2\n        /* \"#utility.yul\":8786:8816   */\n      gt\n        /* \"#utility.yul\":8783:8900   */\n      iszero\n      tag_664\n      jumpi\n        /* \"#utility.yul\":8819:8898   */\n      tag_665\n      tag_600\n      jump\t// in\n    tag_665:\n        /* \"#utility.yul\":8783:8900   */\n    tag_664:\n        /* \"#utility.yul\":8924:8987   */\n      tag_666\n        /* \"#utility.yul\":8979:8986   */\n      dup7\n        /* \"#utility.yul\":8970:8976   */\n      dup3\n        /* \"#utility.yul\":8959:8968   */\n      dup8\n        /* \"#utility.yul\":8955:8977   */\n      add\n        /* \"#utility.yul\":8924:8987   */\n      tag_579\n      jump\t// in\n    tag_666:\n        /* \"#utility.yul\":8914:8987   */\n      swap3\n      pop\n        /* \"#utility.yul\":8709:8997   */\n      pop\n        /* \"#utility.yul\":9036:9038   */\n      0x40\n        /* \"#utility.yul\":9062:9115   */\n      tag_667\n        /* \"#utility.yul\":9107:9114   */\n      dup7\n        /* \"#utility.yul\":9098:9104   */\n      dup3\n        /* \"#utility.yul\":9087:9096   */\n      dup8\n        /* \"#utility.yul\":9083:9105   */\n      add\n        /* \"#utility.yul\":9062:9115   */\n      tag_563\n      jump\t// in\n    tag_667:\n        /* \"#utility.yul\":9052:9115   */\n      swap2\n      pop\n        /* \"#utility.yul\":9007:9125   */\n      pop\n        /* \"#utility.yul\":8153:9132   */\n      swap3\n      pop\n      swap3\n      pop\n      swap3\n      jump\t// out\n        /* \"#utility.yul\":9138:10263   */\n    tag_77:\n        /* \"#utility.yul\":9244:9250   */\n      0x00\n        /* \"#utility.yul\":9252:9258   */\n      dup1\n        /* \"#utility.yul\":9260:9266   */\n      0x00\n        /* \"#utility.yul\":9268:9274   */\n      dup1\n        /* \"#utility.yul\":9317:9320   */\n      0x80\n        /* \"#utility.yul\":9305:9314   */\n      dup6\n        /* \"#utility.yul\":9296:9303   */\n      dup8\n        /* \"#utility.yul\":9292:9315   */\n      sub\n        /* \"#utility.yul\":9288:9321   */\n      slt\n        /* \"#utility.yul\":9285:9405   */\n      iszero\n      tag_669\n      jumpi\n        /* \"#utility.yul\":9324:9403   */\n      tag_670\n      tag_588\n      jump\t// in\n    tag_670:\n        /* \"#utility.yul\":9285:9405   */\n    tag_669:\n        /* \"#utility.yul\":9472:9473   */\n      0x00\n        /* \"#utility.yul\":9461:9470   */\n      dup6\n        /* \"#utility.yul\":9457:9474   */\n      add\n        /* \"#utility.yul\":9444:9475   */\n      calldataload\n        /* \"#utility.yul\":9502:9520   */\n      0xffffffffffffffff\n        /* \"#utility.yul\":9494:9500   */\n      dup2\n        /* \"#utility.yul\":9491:9521   */\n      gt\n        /* \"#utility.yul\":9488:9605   */\n      iszero\n      tag_671\n      jumpi\n        /* \"#utility.yul\":9524:9603   */\n      tag_672\n      tag_600\n      jump\t// in\n    tag_672:\n        /* \"#utility.yul\":9488:9605   */\n    tag_671:\n        /* \"#utility.yul\":9629:9692   */\n      tag_673\n        /* \"#utility.yul\":9684:9691   */\n      dup8\n        /* \"#utility.yul\":9675:9681   */\n      dup3\n        /* \"#utility.yul\":9664:9673   */\n      dup9\n        /* \"#utility.yul\":9660:9682   */\n      add\n        /* \"#utility.yul\":9629:9692   */\n      tag_579\n      jump\t// in\n    tag_673:\n        /* \"#utility.yul\":9619:9692   */\n      swap5\n      pop\n        /* \"#utility.yul\":9415:9702   */\n      pop\n        /* \"#utility.yul\":9769:9771   */\n      0x20\n        /* \"#utility.yul\":9758:9767   */\n      dup6\n        /* \"#utility.yul\":9754:9772   */\n      add\n        /* \"#utility.yul\":9741:9773   */\n      calldataload\n        /* \"#utility.yul\":9800:9818   */\n      0xffffffffffffffff\n        /* \"#utility.yul\":9792:9798   */\n      dup2\n        /* \"#utility.yul\":9789:9819   */\n      gt\n        /* \"#utility.yul\":9786:9903   */\n      iszero\n      tag_674\n      jumpi\n        /* \"#utility.yul\":9822:9901   */\n      tag_675\n      tag_600\n      jump\t// in\n    tag_675:\n        /* \"#utility.yul\":9786:9903   */\n    tag_674:\n        /* \"#utility.yul\":9927:9990   */\n      tag_676\n        /* \"#utility.yul\":9982:9989   */\n      dup8\n        /* \"#utility.yul\":9973:9979   */\n      dup3\n        /* \"#utility.yul\":9962:9971   */\n      dup9\n        /* \"#utility.yul\":9958:9980   */\n      add\n        /* \"#utility.yul\":9927:9990   */\n      tag_579\n      jump\t// in\n    tag_676:\n        /* \"#utility.yul\":9917:9990   */\n      swap4\n      pop\n        /* \"#utility.yul\":9712:10000   */\n      pop\n        /* \"#utility.yul\":10039:10041   */\n      0x40\n        /* \"#utility.yul\":10065:10118   */\n      tag_677\n        /* \"#utility.yul\":10110:10117   */\n      dup8\n        /* \"#utility.yul\":10101:10107   */\n      dup3\n        /* \"#utility.yul\":10090:10099   */\n      dup9\n        /* \"#utility.yul\":10086:10108   */\n      add\n        /* \"#utility.yul\":10065:10118   */\n      tag_563\n      jump\t// in\n    tag_677:\n        /* \"#utility.yul\":10055:10118   */\n      swap3\n      pop\n        /* \"#utility.yul\":10010:10128   */\n      pop\n        /* \"#utility.yul\":10167:10169   */\n      0x60\n        /* \"#utility.yul\":10193:10246   */\n      tag_678\n        /* \"#utility.yul\":10238:10245   */\n      dup8\n        /* \"#utility.yul\":10229:10235   */\n      dup3\n        /* \"#utility.yul\":10218:10227   */\n      dup9\n        /* \"#utility.yul\":10214:10236   */\n      add\n        /* \"#utility.yul\":10193:10246   */\n      tag_563\n      jump\t// in\n    tag_678:\n        /* \"#utility.yul\":10183:10246   */\n      swap2\n      pop\n        /* \"#utility.yul\":10138:10256   */\n      pop\n        /* \"#utility.yul\":9138:10263   */\n      swap3\n      swap6\n      swap2\n      swap5\n      pop\n      swap3\n      pop\n      jump\t// out\n        /* \"#utility.yul\":10269:10448   */\n    tag_679:\n        /* \"#utility.yul\":10338:10348   */\n      0x00\n        /* \"#utility.yul\":10359:10405   */\n      tag_681\n        /* \"#utility.yul\":10401:10404   */\n      dup4\n        /* \"#utility.yul\":10393:10399   */\n      dup4\n        /* \"#utility.yul\":10359:10405   */\n      tag_682\n      jump\t// in\n    tag_681:\n        /* \"#utility.yul\":10437:10441   */\n      0x20\n        /* \"#utility.yul\":10432:10435   */\n      dup4\n        /* \"#utility.yul\":10428:10442   */\n      add\n        /* \"#utility.yul\":10414:10442   */\n      swap1\n      pop\n        /* \"#utility.yul\":10269:10448   */\n      swap3\n      swap2\n      pop\n      pop\n      jump\t// out\n        /* \"#utility.yul\":10454:10650   */\n    tag_683:\n        /* \"#utility.yul\":10543:10553   */\n      0x00\n        /* \"#utility.yul\":10578:10644   */\n      tag_685\n        /* \"#utility.yul\":10640:10643   */\n      dup4\n        /* \"#utility.yul\":10632:10638   */\n      dup4\n        /* \"#utility.yul\":10578:10644   */\n      tag_686\n      jump\t// in\n    tag_685:\n        /* \"#utility.yul\":10564:10644   */\n      swap1\n      pop\n        /* \"#utility.yul\":10454:10650   */\n      swap3\n      swap2\n      pop\n      pop\n      jump\t// out\n        /* \"#utility.yul\":10656:10764   */\n    tag_682:\n        /* \"#utility.yul\":10733:10757   */\n      tag_688\n        /* \"#utility.yul\":10751:10756   */\n      dup2\n        /* \"#utility.yul\":10733:10757   */\n      tag_689\n      jump\t// in\n    tag_688:\n        /* \"#utility.yul\":10728:10731   */\n      dup3\n        /* \"#utility.yul\":10721:10758   */\n      mstore\n        /* \"#utility.yul\":10656:10764   */\n      pop\n      pop\n      jump\t// out\n        /* \"#utility.yul\":10770:10888   */\n    tag_690:\n        /* \"#utility.yul\":10857:10881   */\n      tag_692\n        /* \"#utility.yul\":10875:10880   */\n      dup2\n        /* \"#utility.yul\":10857:10881   */\n      tag_689\n      jump\t// in\n    tag_692:\n        /* \"#utility.yul\":10852:10855   */\n      dup3\n        /* \"#utility.yul\":10845:10882   */\n      mstore\n        /* \"#utility.yul\":10770:10888   */\n      pop\n      pop\n      jump\t// out\n        /* \"#utility.yul\":10924:11656   */\n    tag_693:\n        /* \"#utility.yul\":11043:11046   */\n      0x00\n        /* \"#utility.yul\":11072:11126   */\n      tag_695\n        /* \"#utility.yul\":11120:11125   */\n      dup3\n        /* \"#utility.yul\":11072:11126   */\n      tag_696\n      jump\t// in\n    tag_695:\n        /* \"#utility.yul\":11142:11228   */\n      tag_697\n        /* \"#utility.yul\":11221:11227   */\n      dup2\n        /* \"#utility.yul\":11216:11219   */\n      dup6\n        /* \"#utility.yul\":11142:11228   */\n      tag_698\n      jump\t// in\n    tag_697:\n        /* \"#utility.yul\":11135:11228   */\n      swap4\n      pop\n        /* \"#utility.yul\":11252:11308   */\n      tag_699\n        /* \"#utility.yul\":11302:11307   */\n      dup4\n        /* \"#utility.yul\":11252:11308   */\n      tag_700\n      jump\t// in\n    tag_699:\n        /* \"#utility.yul\":11331:11338   */\n      dup1\n        /* \"#utility.yul\":11362:11363   */\n      0x00\n        /* \"#utility.yul\":11347:11631   */\n    tag_701:\n        /* \"#utility.yul\":11372:11378   */\n      dup4\n        /* \"#utility.yul\":11369:11370   */\n      dup2\n        /* \"#utility.yul\":11366:11379   */\n      lt\n        /* \"#utility.yul\":11347:11631   */\n      iszero\n      tag_703\n      jumpi\n        /* \"#utility.yul\":11448:11454   */\n      dup2\n        /* \"#utility.yul\":11442:11455   */\n      mload\n        /* \"#utility.yul\":11475:11538   */\n      tag_704\n        /* \"#utility.yul\":11534:11537   */\n      dup9\n        /* \"#utility.yul\":11519:11532   */\n      dup3\n        /* \"#utility.yul\":11475:11538   */\n      tag_679\n      jump\t// in\n    tag_704:\n        /* \"#utility.yul\":11468:11538   */\n      swap8\n      pop\n        /* \"#utility.yul\":11561:11621   */\n      tag_705\n        /* \"#utility.yul\":11614:11620   */\n      dup4\n        /* \"#utility.yul\":11561:11621   */\n      tag_706\n      jump\t// in\n    tag_705:\n        /* \"#utility.yul\":11551:11621   */\n      swap3\n      pop\n        /* \"#utility.yul\":11407:11631   */\n      pop\n        /* \"#utility.yul\":11394:11395   */\n      0x01\n        /* \"#utility.yul\":11391:11392   */\n      dup2\n        /* \"#utility.yul\":11387:11396   */\n      add\n        /* \"#utility.yul\":11382:11396   */\n      swap1\n      pop\n        /* \"#utility.yul\":11347:11631   */\n      jump(tag_701)\n    tag_703:\n        /* \"#utility.yul\":11351:11365   */\n      pop\n        /* \"#utility.yul\":11647:11650   */\n      dup6\n        /* \"#utility.yul\":11640:11650   */\n      swap4\n      pop\n        /* \"#utility.yul\":11048:11656   */\n      pop\n      pop\n      pop\n        /* \"#utility.yul\":10924:11656   */\n      swap3\n      swap2\n      pop\n      pop\n      jump\t// out\n        /* \"#utility.yul\":11690:12681   */\n    tag_707:\n        /* \"#utility.yul\":11829:11832   */\n      0x00\n        /* \"#utility.yul\":11858:11922   */\n      tag_709\n        /* \"#utility.yul\":11916:11921   */\n      dup3\n        /* \"#utility.yul\":11858:11922   */\n      tag_710\n      jump\t// in\n    tag_709:\n        /* \"#utility.yul\":11938:12034   */\n      tag_711\n        /* \"#utility.yul\":12027:12033   */\n      dup2\n        /* \"#utility.yul\":12022:12025   */\n      dup6\n        /* \"#utility.yul\":11938:12034   */\n      tag_712\n      jump\t// in\n    tag_711:\n        /* \"#utility.yul\":11931:12034   */\n      swap4\n      pop\n        /* \"#utility.yul\":12060:12063   */\n      dup4\n        /* \"#utility.yul\":12105:12109   */\n      0x20\n        /* \"#utility.yul\":12097:12103   */\n      dup3\n        /* \"#utility.yul\":12093:12110   */\n      mul\n        /* \"#utility.yul\":12088:12091   */\n      dup6\n        /* \"#utility.yul\":12084:12111   */\n      add\n        /* \"#utility.yul\":12135:12201   */\n      tag_713\n        /* \"#utility.yul\":12195:12200   */\n      dup6\n        /* \"#utility.yul\":12135:12201   */\n      tag_714\n      jump\t// in\n    tag_713:\n        /* \"#utility.yul\":12224:12231   */\n      dup1\n        /* \"#utility.yul\":12255:12256   */\n      0x00\n        /* \"#utility.yul\":12240:12636   */\n    tag_715:\n        /* \"#utility.yul\":12265:12271   */\n      dup6\n        /* \"#utility.yul\":12262:12263   */\n      dup2\n        /* \"#utility.yul\":12259:12272   */\n      lt\n        /* \"#utility.yul\":12240:12636   */\n      iszero\n      tag_717\n      jumpi\n        /* \"#utility.yul\":12336:12345   */\n      dup5\n        /* \"#utility.yul\":12330:12334   */\n      dup5\n        /* \"#utility.yul\":12326:12346   */\n      sub\n        /* \"#utility.yul\":12321:12324   */\n      dup10\n        /* \"#utility.yul\":12314:12347   */\n      mstore\n        /* \"#utility.yul\":12387:12393   */\n      dup2\n        /* \"#utility.yul\":12381:12394   */\n      mload\n        /* \"#utility.yul\":12415:12499   */\n      tag_718\n        /* \"#utility.yul\":12494:12498   */\n      dup6\n        /* \"#utility.yul\":12479:12492   */\n      dup3\n        /* \"#utility.yul\":12415:12499   */\n      tag_683\n      jump\t// in\n    tag_718:\n        /* \"#utility.yul\":12407:12499   */\n      swap5\n      pop\n        /* \"#utility.yul\":12522:12592   */\n      tag_719\n        /* \"#utility.yul\":12585:12591   */\n      dup4\n        /* \"#utility.yul\":12522:12592   */\n      tag_720\n      jump\t// in\n    tag_719:\n        /* \"#utility.yul\":12512:12592   */\n      swap3\n      pop\n        /* \"#utility.yul\":12621:12625   */\n      0x20\n        /* \"#utility.yul\":12616:12619   */\n      dup11\n        /* \"#utility.yul\":12612:12626   */\n      add\n        /* \"#utility.yul\":12605:12626   */\n      swap10\n      pop\n        /* \"#utility.yul\":12300:12636   */\n      pop\n        /* \"#utility.yul\":12287:12288   */\n      0x01\n        /* \"#utility.yul\":12284:12285   */\n      dup2\n        /* \"#utility.yul\":12280:12289   */\n      add\n        /* \"#utility.yul\":12275:12289   */\n      swap1\n      pop\n        /* \"#utility.yul\":12240:12636   */\n      jump(tag_715)\n    tag_717:\n        /* \"#utility.yul\":12244:12258   */\n      pop\n        /* \"#utility.yul\":12652:12656   */\n      dup3\n        /* \"#utility.yul\":12645:12656   */\n      swap8\n      pop\n        /* \"#utility.yul\":12672:12675   */\n      dup8\n        /* \"#utility.yul\":12665:12675   */\n      swap6\n      pop\n        /* \"#utility.yul\":11834:12681   */\n      pop\n      pop\n      pop\n      pop\n      pop\n        /* \"#utility.yul\":11690:12681   */\n      swap3\n      swap2\n      pop\n      pop\n      jump\t// out\n        /* \"#utility.yul\":12687:12802   */\n    tag_721:\n        /* \"#utility.yul\":12772:12795   */\n      tag_723\n        /* \"#utility.yul\":12789:12794   */\n      dup2\n        /* \"#utility.yul\":12772:12795   */\n      tag_724\n      jump\t// in\n    tag_723:\n        /* \"#utility.yul\":12767:12770   */\n      dup3\n        /* \"#utility.yul\":12760:12796   */\n      mstore\n        /* \"#utility.yul\":12687:12802   */\n      pop\n      pop\n      jump\t// out\n        /* \"#utility.yul\":12808:13152   */\n    tag_686:\n        /* \"#utility.yul\":12886:12889   */\n      0x00\n        /* \"#utility.yul\":12914:12953   */\n      tag_726\n        /* \"#utility.yul\":12947:12952   */\n      dup3\n        /* \"#utility.yul\":12914:12953   */\n      tag_727\n      jump\t// in\n    tag_726:\n        /* \"#utility.yul\":12969:13030   */\n      tag_728\n        /* \"#utility.yul\":13023:13029   */\n      dup2\n        /* \"#utility.yul\":13018:13021   */\n      dup6\n        /* \"#utility.yul\":12969:13030   */\n      tag_729\n      jump\t// in\n    tag_728:\n        /* \"#utility.yul\":12962:13030   */\n      swap4\n      pop\n        /* \"#utility.yul\":13039:13091   */\n      tag_730\n        /* \"#utility.yul\":13084:13090   */\n      dup2\n        /* \"#utility.yul\":13079:13082   */\n      dup6\n        /* \"#utility.yul\":13072:13076   */\n      0x20\n        /* \"#utility.yul\":13065:13070   */\n      dup7\n        /* \"#utility.yul\":13061:13077   */\n      add\n        /* \"#utility.yul\":13039:13091   */\n      tag_731\n      jump\t// in\n    tag_730:\n        /* \"#utility.yul\":13116:13145   */\n      tag_732\n        /* \"#utility.yul\":13138:13144   */\n      dup2\n        /* \"#utility.yul\":13116:13145   */\n      tag_733\n      jump\t// in\n    tag_732:\n        /* \"#utility.yul\":13111:13114   */\n      dup5\n        /* \"#utility.yul\":13107:13146   */\n      add\n        /* \"#utility.yul\":13100:13146   */\n      swap2\n      pop\n        /* \"#utility.yul\":12890:13152   */\n      pop\n        /* \"#utility.yul\":12808:13152   */\n      swap3\n      swap2\n      pop\n      pop\n      jump\t// out\n        /* \"#utility.yul\":13158:13522   */\n    tag_734:\n        /* \"#utility.yul\":13246:13249   */\n      0x00\n        /* \"#utility.yul\":13274:13313   */\n      tag_736\n        /* \"#utility.yul\":13307:13312   */\n      dup3\n        /* \"#utility.yul\":13274:13313   */\n      tag_727\n      jump\t// in\n    tag_736:\n        /* \"#utility.yul\":13329:13400   */\n      tag_737\n        /* \"#utility.yul\":13393:13399   */\n      dup2\n        /* \"#utility.yul\":13388:13391   */\n      dup6\n        /* \"#utility.yul\":13329:13400   */\n      tag_738\n      jump\t// in\n    tag_737:\n        /* \"#utility.yul\":13322:13400   */\n      swap4\n      pop\n        /* \"#utility.yul\":13409:13461   */\n      tag_739\n        /* \"#utility.yul\":13454:13460   */\n      dup2\n        /* \"#utility.yul\":13449:13452   */\n      dup6\n        /* \"#utility.yul\":13442:13446   */\n      0x20\n        /* \"#utility.yul\":13435:13440   */\n      dup7\n        /* \"#utility.yul\":13431:13447   */\n      add\n        /* \"#utility.yul\":13409:13461   */\n      tag_731\n      jump\t// in\n    tag_739:\n        /* \"#utility.yul\":13486:13515   */\n      tag_740\n        /* \"#utility.yul\":13508:13514   */\n      dup2\n        /* \"#utility.yul\":13486:13515   */\n      tag_733\n      jump\t// in\n    tag_740:\n        /* \"#utility.yul\":13481:13484   */\n      dup5\n        /* \"#utility.yul\":13477:13516   */\n      add\n        /* \"#utility.yul\":13470:13516   */\n      swap2\n      pop\n        /* \"#utility.yul\":13250:13522   */\n      pop\n        /* \"#utility.yul\":13158:13522   */\n      swap3\n      swap2\n      pop\n      pop\n      jump\t// out\n        /* \"#utility.yul\":13528:13905   */\n    tag_741:\n        /* \"#utility.yul\":13634:13637   */\n      0x00\n        /* \"#utility.yul\":13662:13701   */\n      tag_743\n        /* \"#utility.yul\":13695:13700   */\n      dup3\n        /* \"#utility.yul\":13662:13701   */\n      tag_727\n      jump\t// in\n    tag_743:\n        /* \"#utility.yul\":13717:13806   */\n      tag_744\n        /* \"#utility.yul\":13799:13805   */\n      dup2\n        /* \"#utility.yul\":13794:13797   */\n      dup6\n        /* \"#utility.yul\":13717:13806   */\n      tag_745\n      jump\t// in\n    tag_744:\n        /* \"#utility.yul\":13710:13806   */\n      swap4\n      pop\n        /* \"#utility.yul\":13815:13867   */\n      tag_746\n        /* \"#utility.yul\":13860:13866   */\n      dup2\n        /* \"#utility.yul\":13855:13858   */\n      dup6\n        /* \"#utility.yul\":13848:13852   */\n      0x20\n        /* \"#utility.yul\":13841:13846   */\n      dup7\n        /* \"#utility.yul\":13837:13853   */\n      add\n        /* \"#utility.yul\":13815:13867   */\n      tag_731\n      jump\t// in\n    tag_746:\n        /* \"#utility.yul\":13892:13898   */\n      dup1\n        /* \"#utility.yul\":13887:13890   */\n      dup5\n        /* \"#utility.yul\":13883:13899   */\n      add\n        /* \"#utility.yul\":13876:13899   */\n      swap2\n      pop\n        /* \"#utility.yul\":13638:13905   */\n      pop\n        /* \"#utility.yul\":13528:13905   */\n      swap3\n      swap2\n      pop\n      pop\n      jump\t// out\n        /* \"#utility.yul\":13911:14277   */\n    tag_747:\n        /* \"#utility.yul\":14053:14056   */\n      0x00\n        /* \"#utility.yul\":14074:14141   */\n      tag_749\n        /* \"#utility.yul\":14138:14140   */\n      0x1b\n        /* \"#utility.yul\":14133:14136   */\n      dup4\n        /* \"#utility.yul\":14074:14141   */\n      tag_738\n      jump\t// in\n    tag_749:\n        /* \"#utility.yul\":14067:14141   */\n      swap2\n      pop\n        /* \"#utility.yul\":14150:14243   */\n      tag_750\n        /* \"#utility.yul\":14239:14242   */\n      dup3\n        /* \"#utility.yul\":14150:14243   */\n      tag_751\n      jump\t// in\n    tag_750:\n        /* \"#utility.yul\":14268:14270   */\n      0x20\n        /* \"#utility.yul\":14263:14266   */\n      dup3\n        /* \"#utility.yul\":14259:14271   */\n      add\n        /* \"#utility.yul\":14252:14271   */\n      swap1\n      pop\n        /* \"#utility.yul\":13911:14277   */\n      swap2\n      swap1\n      pop\n      jump\t// out\n        /* \"#utility.yul\":14283:14649   */\n    tag_752:\n        /* \"#utility.yul\":14425:14428   */\n      0x00\n        /* \"#utility.yul\":14446:14513   */\n      tag_754\n        /* \"#utility.yul\":14510:14512   */\n      0x22\n        /* \"#utility.yul\":14505:14508   */\n      dup4\n        /* \"#utility.yul\":14446:14513   */\n      tag_738\n      jump\t// in\n    tag_754:\n        /* \"#utility.yul\":14439:14513   */\n      swap2\n      pop\n        /* \"#utility.yul\":14522:14615   */\n      tag_755\n        /* \"#utility.yul\":14611:14614   */\n      dup3\n        /* \"#utility.yul\":14522:14615   */\n      tag_756\n      jump\t// in\n    tag_755:\n        /* \"#utility.yul\":14640:14642   */\n      0x40\n        /* \"#utility.yul\":14635:14638   */\n      dup3\n        /* \"#utility.yul\":14631:14643   */\n      add\n        /* \"#utility.yul\":14624:14643   */\n      swap1\n      pop\n        /* \"#utility.yul\":14283:14649   */\n      swap2\n      swap1\n      pop\n      jump\t// out\n        /* \"#utility.yul\":14655:15021   */\n    tag_757:\n        /* \"#utility.yul\":14797:14800   */\n      0x00\n        /* \"#utility.yul\":14818:14885   */\n      tag_759\n        /* \"#utility.yul\":14882:14884   */\n      0x0b\n        /* \"#utility.yul\":14877:14880   */\n      dup4\n        /* \"#utility.yul\":14818:14885   */\n      tag_738\n      jump\t// in\n    tag_759:\n        /* \"#utility.yul\":14811:14885   */\n      swap2\n      pop\n        /* \"#utility.yul\":14894:14987   */\n      tag_760\n        /* \"#utility.yul\":14983:14986   */\n      dup3\n        /* \"#utility.yul\":14894:14987   */\n      tag_761\n      jump\t// in\n    tag_760:\n        /* \"#utility.yul\":15012:15014   */\n      0x20\n        /* \"#utility.yul\":15007:15010   */\n      dup3\n        /* \"#utility.yul\":15003:15015   */\n      add\n        /* \"#utility.yul\":14996:15015   */\n      swap1\n      pop\n        /* \"#utility.yul\":14655:15021   */\n      swap2\n      swap1\n      pop\n      jump\t// out\n        /* \"#utility.yul\":15027:15392   */\n    tag_762:\n        /* \"#utility.yul\":15169:15172   */\n      0x00\n        /* \"#utility.yul\":15190:15256   */\n      tag_764\n        /* \"#utility.yul\":15254:15255   */\n      0x09\n        /* \"#utility.yul\":15249:15252   */\n      dup4\n        /* \"#utility.yul\":15190:15256   */\n      tag_738\n      jump\t// in\n    tag_764:\n        /* \"#utility.yul\":15183:15256   */\n      swap2\n      pop\n        /* \"#utility.yul\":15265:15358   */\n      tag_765\n        /* \"#utility.yul\":15354:15357   */\n      dup3\n        /* \"#utility.yul\":15265:15358   */\n      tag_766\n      jump\t// in\n    tag_765:\n        /* \"#utility.yul\":15383:15385   */\n      0x20\n        /* \"#utility.yul\":15378:15381   */\n      dup3\n        /* \"#utility.yul\":15374:15386   */\n      add\n        /* \"#utility.yul\":15367:15386   */\n      swap1\n      pop\n        /* \"#utility.yul\":15027:15392   */\n      swap2\n      swap1\n      pop\n      jump\t// out\n        /* \"#utility.yul\":15398:15764   */\n    tag_767:\n        /* \"#utility.yul\":15540:15543   */\n      0x00\n        /* \"#utility.yul\":15561:15628   */\n      tag_769\n        /* \"#utility.yul\":15625:15627   */\n      0x0c\n        /* \"#utility.yul\":15620:15623   */\n      dup4\n        /* \"#utility.yul\":15561:15628   */\n      tag_738\n      jump\t// in\n    tag_769:\n        /* \"#utility.yul\":15554:15628   */\n      swap2\n      pop\n        /* \"#utility.yul\":15637:15730   */\n      tag_770\n        /* \"#utility.yul\":15726:15729   */\n      dup3\n        /* \"#utility.yul\":15637:15730   */\n      tag_771\n      jump\t// in\n    tag_770:\n        /* \"#utility.yul\":15755:15757   */\n      0x20\n        /* \"#utility.yul\":15750:15753   */\n      dup3\n        /* \"#utility.yul\":15746:15758   */\n      add\n        /* \"#utility.yul\":15739:15758   */\n      swap1\n      pop\n        /* \"#utility.yul\":15398:15764   */\n      swap2\n      swap1\n      pop\n      jump\t// out\n        /* \"#utility.yul\":15770:16136   */\n    tag_772:\n        /* \"#utility.yul\":15912:15915   */\n      0x00\n        /* \"#utility.yul\":15933:16000   */\n      tag_774\n        /* \"#utility.yul\":15997:15999   */\n      0x0d\n        /* \"#utility.yul\":15992:15995   */\n      dup4\n        /* \"#utility.yul\":15933:16000   */\n      tag_738\n      jump\t// in\n    tag_774:\n        /* \"#utility.yul\":15926:16000   */\n      swap2\n      pop\n        /* \"#utility.yul\":16009:16102   */\n      tag_775\n        /* \"#utility.yul\":16098:16101   */\n      dup3\n        /* \"#utility.yul\":16009:16102   */\n      tag_776\n      jump\t// in\n    tag_775:\n        /* \"#utility.yul\":16127:16129   */\n      0x20\n        /* \"#utility.yul\":16122:16125   */\n      dup3\n        /* \"#utility.yul\":16118:16130   */\n      add\n        /* \"#utility.yul\":16111:16130   */\n      swap1\n      pop\n        /* \"#utility.yul\":15770:16136   */\n      swap2\n      swap1\n      pop\n      jump\t// out\n        /* \"#utility.yul\":16142:16508   */\n    tag_777:\n        /* \"#utility.yul\":16284:16287   */\n      0x00\n        /* \"#utility.yul\":16305:16372   */\n      tag_779\n        /* \"#utility.yul\":16369:16371   */\n      0x16\n        /* \"#utility.yul\":16364:16367   */\n      dup4\n        /* \"#utility.yul\":16305:16372   */\n      tag_738\n      jump\t// in\n    tag_779:\n        /* \"#utility.yul\":16298:16372   */\n      swap2\n      pop\n        /* \"#utility.yul\":16381:16474   */\n      tag_780\n        /* \"#utility.yul\":16470:16473   */\n      dup3\n        /* \"#utility.yul\":16381:16474   */\n      tag_781\n      jump\t// in\n    tag_780:\n        /* \"#utility.yul\":16499:16501   */\n      0x20\n        /* \"#utility.yul\":16494:16497   */\n      dup3\n        /* \"#utility.yul\":16490:16502   */\n      add\n        /* \"#utility.yul\":16483:16502   */\n      swap1\n      pop\n        /* \"#utility.yul\":16142:16508   */\n      swap2\n      swap1\n      pop\n      jump\t// out\n        /* \"#utility.yul\":16514:16880   */\n    tag_782:\n        /* \"#utility.yul\":16656:16659   */\n      0x00\n        /* \"#utility.yul\":16677:16744   */\n      tag_784\n        /* \"#utility.yul\":16741:16743   */\n      0x0b\n        /* \"#utility.yul\":16736:16739   */\n      dup4\n        /* \"#utility.yul\":16677:16744   */\n      tag_738\n      jump\t// in\n    tag_784:\n        /* \"#utility.yul\":16670:16744   */\n      swap2\n      pop\n        /* \"#utility.yul\":16753:16846   */\n      tag_785\n        /* \"#utility.yul\":16842:16845   */\n      dup3\n        /* \"#utility.yul\":16753:16846   */\n      tag_786\n      jump\t// in\n    tag_785:\n        /* \"#utility.yul\":16871:16873   */\n      0x20\n        /* \"#utility.yul\":16866:16869   */\n      dup3\n        /* \"#utility.yul\":16862:16874   */\n      add\n        /* \"#utility.yul\":16855:16874   */\n      swap1\n      pop\n        /* \"#utility.yul\":16514:16880   */\n      swap2\n      swap1\n      pop\n      jump\t// out\n        /* \"#utility.yul\":16886:17004   */\n    tag_787:\n        /* \"#utility.yul\":16973:16997   */\n      tag_789\n        /* \"#utility.yul\":16991:16996   */\n      dup2\n        /* \"#utility.yul\":16973:16997   */\n      tag_790\n      jump\t// in\n    tag_789:\n        /* \"#utility.yul\":16968:16971   */\n      dup3\n        /* \"#utility.yul\":16961:16998   */\n      mstore\n        /* \"#utility.yul\":16886:17004   */\n      pop\n      pop\n      jump\t// out\n        /* \"#utility.yul\":17010:17285   */\n    tag_164:\n        /* \"#utility.yul\":17142:17145   */\n      0x00\n        /* \"#utility.yul\":17164:17259   */\n      tag_792\n        /* \"#utility.yul\":17255:17258   */\n      dup3\n        /* \"#utility.yul\":17246:17252   */\n      dup5\n        /* \"#utility.yul\":17164:17259   */\n      tag_741\n      jump\t// in\n    tag_792:\n        /* \"#utility.yul\":17157:17259   */\n      swap2\n      pop\n        /* \"#utility.yul\":17276:17279   */\n      dup2\n        /* \"#utility.yul\":17269:17279   */\n      swap1\n      pop\n        /* \"#utility.yul\":17010:17285   */\n      swap3\n      swap2\n      pop\n      pop\n      jump\t// out\n        /* \"#utility.yul\":17291:18153   */\n    tag_52:\n        /* \"#utility.yul\":17542:17546   */\n      0x00\n        /* \"#utility.yul\":17580:17583   */\n      0xc0\n        /* \"#utility.yul\":17569:17578   */\n      dup3\n        /* \"#utility.yul\":17565:17584   */\n      add\n        /* \"#utility.yul\":17557:17584   */\n      swap1\n      pop\n        /* \"#utility.yul\":17594:17665   */\n      tag_794\n        /* \"#utility.yul\":17662:17663   */\n      0x00\n        /* \"#utility.yul\":17651:17660   */\n      dup4\n        /* \"#utility.yul\":17647:17664   */\n      add\n        /* \"#utility.yul\":17638:17644   */\n      dup10\n        /* \"#utility.yul\":17594:17665   */\n      tag_690\n      jump\t// in\n    tag_794:\n        /* \"#utility.yul\":17675:17747   */\n      tag_795\n        /* \"#utility.yul\":17743:17745   */\n      0x20\n        /* \"#utility.yul\":17732:17741   */\n      dup4\n        /* \"#utility.yul\":17728:17746   */\n      add\n        /* \"#utility.yul\":17719:17725   */\n      dup9\n        /* \"#utility.yul\":17675:17747   */\n      tag_690\n      jump\t// in\n    tag_795:\n        /* \"#utility.yul\":17794:17803   */\n      dup2\n        /* \"#utility.yul\":17788:17792   */\n      dup2\n        /* \"#utility.yul\":17784:17804   */\n      sub\n        /* \"#utility.yul\":17779:17781   */\n      0x40\n        /* \"#utility.yul\":17768:17777   */\n      dup4\n        /* \"#utility.yul\":17764:17782   */\n      add\n        /* \"#utility.yul\":17757:17805   */\n      mstore\n        /* \"#utility.yul\":17822:17900   */\n      tag_796\n        /* \"#utility.yul\":17895:17899   */\n      dup2\n        /* \"#utility.yul\":17886:17892   */\n      dup8\n        /* \"#utility.yul\":17822:17900   */\n      tag_734\n      jump\t// in\n    tag_796:\n        /* \"#utility.yul\":17814:17900   */\n      swap1\n      pop\n        /* \"#utility.yul\":17910:17982   */\n      tag_797\n        /* \"#utility.yul\":17978:17980   */\n      0x60\n        /* \"#utility.yul\":17967:17976   */\n      dup4\n        /* \"#utility.yul\":17963:17981   */\n      add\n        /* \"#utility.yul\":17954:17960   */\n      dup7\n        /* \"#utility.yul\":17910:17982   */\n      tag_787\n      jump\t// in\n    tag_797:\n        /* \"#utility.yul\":17992:18065   */\n      tag_798\n        /* \"#utility.yul\":18060:18063   */\n      0x80\n        /* \"#utility.yul\":18049:18058   */\n      dup4\n        /* \"#utility.yul\":18045:18064   */\n      add\n        /* \"#utility.yul\":18036:18042   */\n      dup6\n        /* \"#utility.yul\":17992:18065   */\n      tag_787\n      jump\t// in\n    tag_798:\n        /* \"#utility.yul\":18075:18146   */\n      tag_799\n        /* \"#utility.yul\":18141:18144   */\n      0xa0\n        /* \"#utility.yul\":18130:18139   */\n      dup4\n        /* \"#utility.yul\":18126:18145   */\n      add\n        /* \"#utility.yul\":18117:18123   */\n      dup5\n        /* \"#utility.yul\":18075:18146   */\n      tag_721\n      jump\t// in\n    tag_799:\n        /* \"#utility.yul\":17291:18153   */\n      swap8\n      swap7\n      pop\n      pop\n      pop\n      pop\n      pop\n      pop\n      pop\n      jump\t// out\n        /* \"#utility.yul\":18159:18582   */\n    tag_57:\n        /* \"#utility.yul\":18300:18304   */\n      0x00\n        /* \"#utility.yul\":18338:18340   */\n      0x40\n        /* \"#utility.yul\":18327:18336   */\n      dup3\n        /* \"#utility.yul\":18323:18341   */\n      add\n        /* \"#utility.yul\":18315:18341   */\n      swap1\n      pop\n        /* \"#utility.yul\":18351:18422   */\n      tag_801\n        /* \"#utility.yul\":18419:18420   */\n      0x00\n        /* \"#utility.yul\":18408:18417   */\n      dup4\n        /* \"#utility.yul\":18404:18421   */\n      add\n        /* \"#utility.yul\":18395:18401   */\n      dup6\n        /* \"#utility.yul\":18351:18422   */\n      tag_690\n      jump\t// in\n    tag_801:\n        /* \"#utility.yul\":18469:18478   */\n      dup2\n        /* \"#utility.yul\":18463:18467   */\n      dup2\n        /* \"#utility.yul\":18459:18479   */\n      sub\n        /* \"#utility.yul\":18454:18456   */\n      0x20\n        /* \"#utility.yul\":18443:18452   */\n      dup4\n        /* \"#utility.yul\":18439:18457   */\n      add\n        /* \"#utility.yul\":18432:18480   */\n      mstore\n        /* \"#utility.yul\":18497:18575   */\n      tag_802\n        /* \"#utility.yul\":18570:18574   */\n      dup2\n        /* \"#utility.yul\":18561:18567   */\n      dup5\n        /* \"#utility.yul\":18497:18575   */\n      tag_734\n      jump\t// in\n    tag_802:\n        /* \"#utility.yul\":18489:18575   */\n      swap1\n      pop\n        /* \"#utility.yul\":18159:18582   */\n      swap4\n      swap3\n      pop\n      pop\n      pop\n      jump\t// out\n        /* \"#utility.yul\":18588:19212   */\n    tag_108:\n        /* \"#utility.yul\":18777:18781   */\n      0x00\n        /* \"#utility.yul\":18815:18817   */\n      0x60\n        /* \"#utility.yul\":18804:18813   */\n      dup3\n        /* \"#utility.yul\":18800:18818   */\n      add\n        /* \"#utility.yul\":18792:18818   */\n      swap1\n      pop\n        /* \"#utility.yul\":18828:18899   */\n      tag_804\n        /* \"#utility.yul\":18896:18897   */\n      0x00\n        /* \"#utility.yul\":18885:18894   */\n      dup4\n        /* \"#utility.yul\":18881:18898   */\n      add\n        /* \"#utility.yul\":18872:18878   */\n      dup7\n        /* \"#utility.yul\":18828:18899   */\n      tag_690\n      jump\t// in\n    tag_804:\n        /* \"#utility.yul\":18946:18955   */\n      dup2\n        /* \"#utility.yul\":18940:18944   */\n      dup2\n        /* \"#utility.yul\":18936:18956   */\n      sub\n        /* \"#utility.yul\":18931:18933   */\n      0x20\n        /* \"#utility.yul\":18920:18929   */\n      dup4\n        /* \"#utility.yul\":18916:18934   */\n      add\n        /* \"#utility.yul\":18909:18957   */\n      mstore\n        /* \"#utility.yul\":18974:19052   */\n      tag_805\n        /* \"#utility.yul\":19047:19051   */\n      dup2\n        /* \"#utility.yul\":19038:19044   */\n      dup6\n        /* \"#utility.yul\":18974:19052   */\n      tag_734\n      jump\t// in\n    tag_805:\n        /* \"#utility.yul\":18966:19052   */\n      swap1\n      pop\n        /* \"#utility.yul\":19099:19108   */\n      dup2\n        /* \"#utility.yul\":19093:19097   */\n      dup2\n        /* \"#utility.yul\":19089:19109   */\n      sub\n        /* \"#utility.yul\":19084:19086   */\n      0x40\n        /* \"#utility.yul\":19073:19082   */\n      dup4\n        /* \"#utility.yul\":19069:19087   */\n      add\n        /* \"#utility.yul\":19062:19110   */\n      mstore\n        /* \"#utility.yul\":19127:19205   */\n      tag_806\n        /* \"#utility.yul\":19200:19204   */\n      dup2\n        /* \"#utility.yul\":19191:19197   */\n      dup5\n        /* \"#utility.yul\":19127:19205   */\n      tag_734\n      jump\t// in\n    tag_806:\n        /* \"#utility.yul\":19119:19205   */\n      swap1\n      pop\n        /* \"#utility.yul\":18588:19212   */\n      swap5\n      swap4\n      pop\n      pop\n      pop\n      pop\n      jump\t// out\n        /* \"#utility.yul\":19218:19631   */\n    tag_119:\n        /* \"#utility.yul\":19381:19385   */\n      0x00\n        /* \"#utility.yul\":19419:19421   */\n      0x20\n        /* \"#utility.yul\":19408:19417   */\n      dup3\n        /* \"#utility.yul\":19404:19422   */\n      add\n        /* \"#utility.yul\":19396:19422   */\n      swap1\n      pop\n        /* \"#utility.yul\":19468:19477   */\n      dup2\n        /* \"#utility.yul\":19462:19466   */\n      dup2\n        /* \"#utility.yul\":19458:19478   */\n      sub\n        /* \"#utility.yul\":19454:19455   */\n      0x00\n        /* \"#utility.yul\":19443:19452   */\n      dup4\n        /* \"#utility.yul\":19439:19456   */\n      add\n        /* \"#utility.yul\":19432:19479   */\n      mstore\n        /* \"#utility.yul\":19496:19624   */\n      tag_808\n        /* \"#utility.yul\":19619:19623   */\n      dup2\n        /* \"#utility.yul\":19610:19616   */\n      dup5\n        /* \"#utility.yul\":19496:19624   */\n      tag_707\n      jump\t// in\n    tag_808:\n        /* \"#utility.yul\":19488:19624   */\n      swap1\n      pop\n        /* \"#utility.yul\":19218:19631   */\n      swap3\n      swap2\n      pop\n      pop\n      jump\t// out\n        /* \"#utility.yul\":19637:20814   */\n    tag_103:\n        /* \"#utility.yul\":20024:20028   */\n      0x00\n        /* \"#utility.yul\":20062:20065   */\n      0x80\n        /* \"#utility.yul\":20051:20060   */\n      dup3\n        /* \"#utility.yul\":20047:20066   */\n      add\n        /* \"#utility.yul\":20039:20066   */\n      swap1\n      pop\n        /* \"#utility.yul\":20112:20121   */\n      dup2\n        /* \"#utility.yul\":20106:20110   */\n      dup2\n        /* \"#utility.yul\":20102:20122   */\n      sub\n        /* \"#utility.yul\":20098:20099   */\n      0x00\n        /* \"#utility.yul\":20087:20096   */\n      dup4\n        /* \"#utility.yul\":20083:20100   */\n      add\n        /* \"#utility.yul\":20076:20123   */\n      mstore\n        /* \"#utility.yul\":20140:20218   */\n      tag_810\n        /* \"#utility.yul\":20213:20217   */\n      dup2\n        /* \"#utility.yul\":20204:20210   */\n      dup8\n        /* \"#utility.yul\":20140:20218   */\n      tag_734\n      jump\t// in\n    tag_810:\n        /* \"#utility.yul\":20132:20218   */\n      swap1\n      pop\n        /* \"#utility.yul\":20265:20274   */\n      dup2\n        /* \"#utility.yul\":20259:20263   */\n      dup2\n        /* \"#utility.yul\":20255:20275   */\n      sub\n        /* \"#utility.yul\":20250:20252   */\n      0x20\n        /* \"#utility.yul\":20239:20248   */\n      dup4\n        /* \"#utility.yul\":20235:20253   */\n      add\n        /* \"#utility.yul\":20228:20276   */\n      mstore\n        /* \"#utility.yul\":20293:20421   */\n      tag_811\n        /* \"#utility.yul\":20416:20420   */\n      dup2\n        /* \"#utility.yul\":20407:20413   */\n      dup7\n        /* \"#utility.yul\":20293:20421   */\n      tag_707\n      jump\t// in\n    tag_811:\n        /* \"#utility.yul\":20285:20421   */\n      swap1\n      pop\n        /* \"#utility.yul\":20468:20477   */\n      dup2\n        /* \"#utility.yul\":20462:20466   */\n      dup2\n        /* \"#utility.yul\":20458:20478   */\n      sub\n        /* \"#utility.yul\":20453:20455   */\n      0x40\n        /* \"#utility.yul\":20442:20451   */\n      dup4\n        /* \"#utility.yul\":20438:20456   */\n      add\n        /* \"#utility.yul\":20431:20479   */\n      mstore\n        /* \"#utility.yul\":20496:20624   */\n      tag_812\n        /* \"#utility.yul\":20619:20623   */\n      dup2\n        /* \"#utility.yul\":20610:20616   */\n      dup6\n        /* \"#utility.yul\":20496:20624   */\n      tag_707\n      jump\t// in\n    tag_812:\n        /* \"#utility.yul\":20488:20624   */\n      swap1\n      pop\n        /* \"#utility.yul\":20671:20680   */\n      dup2\n        /* \"#utility.yul\":20665:20669   */\n      dup2\n        /* \"#utility.yul\":20661:20681   */\n      sub\n        /* \"#utility.yul\":20656:20658   */\n      0x60\n        /* \"#utility.yul\":20645:20654   */\n      dup4\n        /* \"#utility.yul\":20641:20659   */\n      add\n        /* \"#utility.yul\":20634:20682   */\n      mstore\n        /* \"#utility.yul\":20699:20807   */\n      tag_813\n        /* \"#utility.yul\":20802:20806   */\n      dup2\n        /* \"#utility.yul\":20793:20799   */\n      dup5\n        /* \"#utility.yul\":20699:20807   */\n      tag_693\n      jump\t// in\n    tag_813:\n        /* \"#utility.yul\":20691:20807   */\n      swap1\n      pop\n        /* \"#utility.yul\":19637:20814   */\n      swap6\n      swap5\n      pop\n      pop\n      pop\n      pop\n      pop\n      jump\t// out\n        /* \"#utility.yul\":20820:22039   */\n    tag_34:\n        /* \"#utility.yul\":21175:21179   */\n      0x00\n        /* \"#utility.yul\":21213:21216   */\n      0xa0\n        /* \"#utility.yul\":21202:21211   */\n      dup3\n        /* \"#utility.yul\":21198:21217   */\n      add\n        /* \"#utility.yul\":21190:21217   */\n      swap1\n      pop\n        /* \"#utility.yul\":21263:21272   */\n      dup2\n        /* \"#utility.yul\":21257:21261   */\n      dup2\n        /* \"#utility.yul\":21253:21273   */\n      sub\n        /* \"#utility.yul\":21249:21250   */\n      0x00\n        /* \"#utility.yul\":21238:21247   */\n      dup4\n        /* \"#utility.yul\":21234:21251   */\n      add\n        /* \"#utility.yul\":21227:21274   */\n      mstore\n        /* \"#utility.yul\":21291:21369   */\n      tag_815\n        /* \"#utility.yul\":21364:21368   */\n      dup2\n        /* \"#utility.yul\":21355:21361   */\n      dup9\n        /* \"#utility.yul\":21291:21369   */\n      tag_734\n      jump\t// in\n    tag_815:\n        /* \"#utility.yul\":21283:21369   */\n      swap1\n      pop\n        /* \"#utility.yul\":21416:21425   */\n      dup2\n        /* \"#utility.yul\":21410:21414   */\n      dup2\n        /* \"#utility.yul\":21406:21426   */\n      sub\n        /* \"#utility.yul\":21401:21403   */\n      0x20\n        /* \"#utility.yul\":21390:21399   */\n      dup4\n        /* \"#utility.yul\":21386:21404   */\n      add\n        /* \"#utility.yul\":21379:21427   */\n      mstore\n        /* \"#utility.yul\":21444:21522   */\n      tag_816\n        /* \"#utility.yul\":21517:21521   */\n      dup2\n        /* \"#utility.yul\":21508:21514   */\n      dup8\n        /* \"#utility.yul\":21444:21522   */\n      tag_734\n      jump\t// in\n    tag_816:\n        /* \"#utility.yul\":21436:21522   */\n      swap1\n      pop\n        /* \"#utility.yul\":21569:21578   */\n      dup2\n        /* \"#utility.yul\":21563:21567   */\n      dup2\n        /* \"#utility.yul\":21559:21579   */\n      sub\n        /* \"#utility.yul\":21554:21556   */\n      0x40\n        /* \"#utility.yul\":21543:21552   */\n      dup4\n        /* \"#utility.yul\":21539:21557   */\n      add\n        /* \"#utility.yul\":21532:21580   */\n      mstore\n        /* \"#utility.yul\":21597:21675   */\n      tag_817\n        /* \"#utility.yul\":21670:21674   */\n      dup2\n        /* \"#utility.yul\":21661:21667   */\n      dup7\n        /* \"#utility.yul\":21597:21675   */\n      tag_734\n      jump\t// in\n    tag_817:\n        /* \"#utility.yul\":21589:21675   */\n      swap1\n      pop\n        /* \"#utility.yul\":21722:21731   */\n      dup2\n        /* \"#utility.yul\":21716:21720   */\n      dup2\n        /* \"#utility.yul\":21712:21732   */\n      sub\n        /* \"#utility.yul\":21707:21709   */\n      0x60\n        /* \"#utility.yul\":21696:21705   */\n      dup4\n        /* \"#utility.yul\":21692:21710   */\n      add\n        /* \"#utility.yul\":21685:21733   */\n      mstore\n        /* \"#utility.yul\":21750:21828   */\n      tag_818\n        /* \"#utility.yul\":21823:21827   */\n      dup2\n        /* \"#utility.yul\":21814:21820   */\n      dup6\n        /* \"#utility.yul\":21750:21828   */\n      tag_734\n      jump\t// in\n    tag_818:\n        /* \"#utility.yul\":21742:21828   */\n      swap1\n      pop\n        /* \"#utility.yul\":21876:21885   */\n      dup2\n        /* \"#utility.yul\":21870:21874   */\n      dup2\n        /* \"#utility.yul\":21866:21886   */\n      sub\n        /* \"#utility.yul\":21860:21863   */\n      0x80\n        /* \"#utility.yul\":21849:21858   */\n      dup4\n        /* \"#utility.yul\":21845:21864   */\n      add\n        /* \"#utility.yul\":21838:21887   */\n      mstore\n        /* \"#utility.yul\":21904:22032   */\n      tag_819\n        /* \"#utility.yul\":22027:22031   */\n      dup2\n        /* \"#utility.yul\":22018:22024   */\n      dup5\n        /* \"#utility.yul\":21904:22032   */\n      tag_707\n      jump\t// in\n    tag_819:\n        /* \"#utility.yul\":21896:22032   */\n      swap1\n      pop\n        /* \"#utility.yul\":20820:22039   */\n      swap7\n      swap6\n      pop\n      pop\n      pop\n      pop\n      pop\n      pop\n      jump\t// out\n        /* \"#utility.yul\":22045:22971   */\n    tag_82:\n        /* \"#utility.yul\":22332:22336   */\n      0x00\n        /* \"#utility.yul\":22370:22373   */\n      0x80\n        /* \"#utility.yul\":22359:22368   */\n      dup3\n        /* \"#utility.yul\":22355:22374   */\n      add\n        /* \"#utility.yul\":22347:22374   */\n      swap1\n      pop\n        /* \"#utility.yul\":22420:22429   */\n      dup2\n        /* \"#utility.yul\":22414:22418   */\n      dup2\n        /* \"#utility.yul\":22410:22430   */\n      sub\n        /* \"#utility.yul\":22406:22407   */\n      0x00\n        /* \"#utility.yul\":22395:22404   */\n      dup4\n        /* \"#utility.yul\":22391:22408   */\n      add\n        /* \"#utility.yul\":22384:22431   */\n      mstore\n        /* \"#utility.yul\":22448:22526   */\n      tag_821\n        /* \"#utility.yul\":22521:22525   */\n      dup2\n        /* \"#utility.yul\":22512:22518   */\n      dup8\n        /* \"#utility.yul\":22448:22526   */\n      tag_734\n      jump\t// in\n    tag_821:\n        /* \"#utility.yul\":22440:22526   */\n      swap1\n      pop\n        /* \"#utility.yul\":22573:22582   */\n      dup2\n        /* \"#utility.yul\":22567:22571   */\n      dup2\n        /* \"#utility.yul\":22563:22583   */\n      sub\n        /* \"#utility.yul\":22558:22560   */\n      0x20\n        /* \"#utility.yul\":22547:22556   */\n      dup4\n        /* \"#utility.yul\":22543:22561   */\n      add\n        /* \"#utility.yul\":22536:22584   */\n      mstore\n        /* \"#utility.yul\":22601:22679   */\n      tag_822\n        /* \"#utility.yul\":22674:22678   */\n      dup2\n        /* \"#utility.yul\":22665:22671   */\n      dup7\n        /* \"#utility.yul\":22601:22679   */\n      tag_734\n      jump\t// in\n    tag_822:\n        /* \"#utility.yul\":22593:22679   */\n      swap1\n      pop\n        /* \"#utility.yul\":22689:22761   */\n      tag_823\n        /* \"#utility.yul\":22757:22759   */\n      0x40\n        /* \"#utility.yul\":22746:22755   */\n      dup4\n        /* \"#utility.yul\":22742:22760   */\n      add\n        /* \"#utility.yul\":22733:22739   */\n      dup6\n        /* \"#utility.yul\":22689:22761   */\n      tag_787\n      jump\t// in\n    tag_823:\n        /* \"#utility.yul\":22808:22817   */\n      dup2\n        /* \"#utility.yul\":22802:22806   */\n      dup2\n        /* \"#utility.yul\":22798:22818   */\n      sub\n        /* \"#utility.yul\":22793:22795   */\n      0x60\n        /* \"#utility.yul\":22782:22791   */\n      dup4\n        /* \"#utility.yul\":22778:22796   */\n      add\n        /* \"#utility.yul\":22771:22819   */\n      mstore\n        /* \"#utility.yul\":22836:22964   */\n      tag_824\n        /* \"#utility.yul\":22959:22963   */\n      dup2\n        /* \"#utility.yul\":22950:22956   */\n      dup5\n        /* \"#utility.yul\":22836:22964   */\n      tag_707\n      jump\t// in\n    tag_824:\n        /* \"#utility.yul\":22828:22964   */\n      swap1\n      pop\n        /* \"#utility.yul\":22045:22971   */\n      swap6\n      swap5\n      pop\n      pop\n      pop\n      pop\n      pop\n      jump\t// out\n        /* \"#utility.yul\":22977:23396   */\n    tag_294:\n        /* \"#utility.yul\":23143:23147   */\n      0x00\n        /* \"#utility.yul\":23181:23183   */\n      0x20\n        /* \"#utility.yul\":23170:23179   */\n      dup3\n        /* \"#utility.yul\":23166:23184   */\n      add\n        /* \"#utility.yul\":23158:23184   */\n      swap1\n      pop\n        /* \"#utility.yul\":23230:23239   */\n      dup2\n        /* \"#utility.yul\":23224:23228   */\n      dup2\n        /* \"#utility.yul\":23220:23240   */\n      sub\n        /* \"#utility.yul\":23216:23217   */\n      0x00\n        /* \"#utility.yul\":23205:23214   */\n      dup4\n        /* \"#utility.yul\":23201:23218   */\n      add\n        /* \"#utility.yul\":23194:23241   */\n      mstore\n        /* \"#utility.yul\":23258:23389   */\n      tag_826\n        /* \"#utility.yul\":23384:23388   */\n      dup2\n        /* \"#utility.yul\":23258:23389   */\n      tag_747\n      jump\t// in\n    tag_826:\n        /* \"#utility.yul\":23250:23389   */\n      swap1\n      pop\n        /* \"#utility.yul\":22977:23396   */\n      swap2\n      swap1\n      pop\n      jump\t// out\n        /* \"#utility.yul\":23402:23821   */\n    tag_513:\n        /* \"#utility.yul\":23568:23572   */\n      0x00\n        /* \"#utility.yul\":23606:23608   */\n      0x20\n        /* \"#utility.yul\":23595:23604   */\n      dup3\n        /* \"#utility.yul\":23591:23609   */\n      add\n        /* \"#utility.yul\":23583:23609   */\n      swap1\n      pop\n        /* \"#utility.yul\":23655:23664   */\n      dup2\n        /* \"#utility.yul\":23649:23653   */\n      dup2\n        /* \"#utility.yul\":23645:23665   */\n      sub\n        /* \"#utility.yul\":23641:23642   */\n      0x00\n        /* \"#utility.yul\":23630:23639   */\n      dup4\n        /* \"#utility.yul\":23626:23643   */\n      add\n        /* \"#utility.yul\":23619:23666   */\n      mstore\n        /* \"#utility.yul\":23683:23814   */\n      tag_828\n        /* \"#utility.yul\":23809:23813   */\n      dup2\n        /* \"#utility.yul\":23683:23814   */\n      tag_752\n      jump\t// in\n    tag_828:\n        /* \"#utility.yul\":23675:23814   */\n      swap1\n      pop\n        /* \"#utility.yul\":23402:23821   */\n      swap2\n      swap1\n      pop\n      jump\t// out\n        /* \"#utility.yul\":23827:24246   */\n    tag_313:\n        /* \"#utility.yul\":23993:23997   */\n      0x00\n        /* \"#utility.yul\":24031:24033   */\n      0x20\n        /* \"#utility.yul\":24020:24029   */\n      dup3\n        /* \"#utility.yul\":24016:24034   */\n      add\n        /* \"#utility.yul\":24008:24034   */\n      swap1\n      pop\n        /* \"#utility.yul\":24080:24089   */\n      dup2\n        /* \"#utility.yul\":24074:24078   */\n      dup2\n        /* \"#utility.yul\":24070:24090   */\n      sub\n        /* \"#utility.yul\":24066:24067   */\n      0x00\n        /* \"#utility.yul\":24055:24064   */\n      dup4\n        /* \"#utility.yul\":24051:24068   */\n      add\n        /* \"#utility.yul\":24044:24091   */\n      mstore\n        /* \"#utility.yul\":24108:24239   */\n      tag_830\n        /* \"#utility.yul\":24234:24238   */\n      dup2\n        /* \"#utility.yul\":24108:24239   */\n      tag_757\n      jump\t// in\n    tag_830:\n        /* \"#utility.yul\":24100:24239   */\n      swap1\n      pop\n        /* \"#utility.yul\":23827:24246   */\n      swap2\n      swap1\n      pop\n      jump\t// out\n        /* \"#utility.yul\":24252:24671   */\n    tag_126:\n        /* \"#utility.yul\":24418:24422   */\n      0x00\n        /* \"#utility.yul\":24456:24458   */\n      0x20\n        /* \"#utility.yul\":24445:24454   */\n      dup3\n        /* \"#utility.yul\":24441:24459   */\n      add\n        /* \"#utility.yul\":24433:24459   */\n      swap1\n      pop\n        /* \"#utility.yul\":24505:24514   */\n      dup2\n        /* \"#utility.yul\":24499:24503   */\n      dup2\n        /* \"#utility.yul\":24495:24515   */\n      sub\n        /* \"#utility.yul\":24491:24492   */\n      0x00\n        /* \"#utility.yul\":24480:24489   */\n      dup4\n        /* \"#utility.yul\":24476:24493   */\n      add\n        /* \"#utility.yul\":24469:24516   */\n      mstore\n        /* \"#utility.yul\":24533:24664   */\n      tag_832\n        /* \"#utility.yul\":24659:24663   */\n      dup2\n        /* \"#utility.yul\":24533:24664   */\n      tag_762\n      jump\t// in\n    tag_832:\n        /* \"#utility.yul\":24525:24664   */\n      swap1\n      pop\n        /* \"#utility.yul\":24252:24671   */\n      swap2\n      swap1\n      pop\n      jump\t// out\n        /* \"#utility.yul\":24677:25096   */\n    tag_186:\n        /* \"#utility.yul\":24843:24847   */\n      0x00\n        /* \"#utility.yul\":24881:24883   */\n      0x20\n        /* \"#utility.yul\":24870:24879   */\n      dup3\n        /* \"#utility.yul\":24866:24884   */\n      add\n        /* \"#utility.yul\":24858:24884   */\n      swap1\n      pop\n        /* \"#utility.yul\":24930:24939   */\n      dup2\n        /* \"#utility.yul\":24924:24928   */\n      dup2\n        /* \"#utility.yul\":24920:24940   */\n      sub\n        /* \"#utility.yul\":24916:24917   */\n      0x00\n        /* \"#utility.yul\":24905:24914   */\n      dup4\n        /* \"#utility.yul\":24901:24918   */\n      add\n        /* \"#utility.yul\":24894:24941   */\n      mstore\n        /* \"#utility.yul\":24958:25089   */\n      tag_834\n        /* \"#utility.yul\":25084:25088   */\n      dup2\n        /* \"#utility.yul\":24958:25089   */\n      tag_767\n      jump\t// in\n    tag_834:\n        /* \"#utility.yul\":24950:25089   */\n      swap1\n      pop\n        /* \"#utility.yul\":24677:25096   */\n      swap2\n      swap1\n      pop\n      jump\t// out\n        /* \"#utility.yul\":25102:25521   */\n    tag_170:\n        /* \"#utility.yul\":25268:25272   */\n      0x00\n        /* \"#utility.yul\":25306:25308   */\n      0x20\n        /* \"#utility.yul\":25295:25304   */\n      dup3\n        /* \"#utility.yul\":25291:25309   */\n      add\n        /* \"#utility.yul\":25283:25309   */\n      swap1\n      pop\n        /* \"#utility.yul\":25355:25364   */\n      dup2\n        /* \"#utility.yul\":25349:25353   */\n      dup2\n        /* \"#utility.yul\":25345:25365   */\n      sub\n        /* \"#utility.yul\":25341:25342   */\n      0x00\n        /* \"#utility.yul\":25330:25339   */\n      dup4\n        /* \"#utility.yul\":25326:25343   */\n      add\n        /* \"#utility.yul\":25319:25366   */\n      mstore\n        /* \"#utility.yul\":25383:25514   */\n      tag_836\n        /* \"#utility.yul\":25509:25513   */\n      dup2\n        /* \"#utility.yul\":25383:25514   */\n      tag_772\n      jump\t// in\n    tag_836:\n        /* \"#utility.yul\":25375:25514   */\n      swap1\n      pop\n        /* \"#utility.yul\":25102:25521   */\n      swap2\n      swap1\n      pop\n      jump\t// out\n        /* \"#utility.yul\":25527:25946   */\n    tag_509:\n        /* \"#utility.yul\":25693:25697   */\n      0x00\n        /* \"#utility.yul\":25731:25733   */\n      0x20\n        /* \"#utility.yul\":25720:25729   */\n      dup3\n        /* \"#utility.yul\":25716:25734   */\n      add\n        /* \"#utility.yul\":25708:25734   */\n      swap1\n      pop\n        /* \"#utility.yul\":25780:25789   */\n      dup2\n        /* \"#utility.yul\":25774:25778   */\n      dup2\n        /* \"#utility.yul\":25770:25790   */\n      sub\n        /* \"#utility.yul\":25766:25767   */\n      0x00\n        /* \"#utility.yul\":25755:25764   */\n      dup4\n        /* \"#utility.yul\":25751:25768   */\n      add\n        /* \"#utility.yul\":25744:25791   */\n      mstore\n        /* \"#utility.yul\":25808:25939   */\n      tag_838\n        /* \"#utility.yul\":25934:25938   */\n      dup2\n        /* \"#utility.yul\":25808:25939   */\n      tag_777\n      jump\t// in\n    tag_838:\n        /* \"#utility.yul\":25800:25939   */\n      swap1\n      pop\n        /* \"#utility.yul\":25527:25946   */\n      swap2\n      swap1\n      pop\n      jump\t// out\n        /* \"#utility.yul\":25952:26371   */\n    tag_213:\n        /* \"#utility.yul\":26118:26122   */\n      0x00\n        /* \"#utility.yul\":26156:26158   */\n      0x20\n        /* \"#utility.yul\":26145:26154   */\n      dup3\n        /* \"#utility.yul\":26141:26159   */\n      add\n        /* \"#utility.yul\":26133:26159   */\n      swap1\n      pop\n        /* \"#utility.yul\":26205:26214   */\n      dup2\n        /* \"#utility.yul\":26199:26203   */\n      dup2\n        /* \"#utility.yul\":26195:26215   */\n      sub\n        /* \"#utility.yul\":26191:26192   */\n      0x00\n        /* \"#utility.yul\":26180:26189   */\n      dup4\n        /* \"#utility.yul\":26176:26193   */\n      add\n        /* \"#utility.yul\":26169:26216   */\n      mstore\n        /* \"#utility.yul\":26233:26364   */\n      tag_840\n        /* \"#utility.yul\":26359:26363   */\n      dup2\n        /* \"#utility.yul\":26233:26364   */\n      tag_782\n      jump\t// in\n    tag_840:\n        /* \"#utility.yul\":26225:26364   */\n      swap1\n      pop\n        /* \"#utility.yul\":25952:26371   */\n      swap2\n      swap1\n      pop\n      jump\t// out\n        /* \"#utility.yul\":26377:26506   */\n    tag_557:\n        /* \"#utility.yul\":26411:26417   */\n      0x00\n        /* \"#utility.yul\":26438:26458   */\n      tag_842\n      tag_843\n      jump\t// in\n    tag_842:\n        /* \"#utility.yul\":26428:26458   */\n      swap1\n      pop\n        /* \"#utility.yul\":26467:26500   */\n      tag_844\n        /* \"#utility.yul\":26495:26499   */\n      dup3\n        /* \"#utility.yul\":26487:26493   */\n      dup3\n        /* \"#utility.yul\":26467:26500   */\n      tag_845\n      jump\t// in\n    tag_844:\n        /* \"#utility.yul\":26377:26506   */\n      swap2\n      swap1\n      pop\n      jump\t// out\n        /* \"#utility.yul\":26512:26587   */\n    tag_843:\n        /* \"#utility.yul\":26545:26551   */\n      0x00\n        /* \"#utility.yul\":26578:26580   */\n      0x40\n        /* \"#utility.yul\":26572:26581   */\n      mload\n        /* \"#utility.yul\":26562:26581   */\n      swap1\n      pop\n        /* \"#utility.yul\":26512:26587   */\n      swap1\n      jump\t// out\n        /* \"#utility.yul\":26593:26901   */\n    tag_556:\n        /* \"#utility.yul\":26655:26659   */\n      0x00\n        /* \"#utility.yul\":26745:26763   */\n      0xffffffffffffffff\n        /* \"#utility.yul\":26737:26743   */\n      dup3\n        /* \"#utility.yul\":26734:26764   */\n      gt\n        /* \"#utility.yul\":26731:26787   */\n      iszero\n      tag_848\n      jumpi\n        /* \"#utility.yul\":26767:26785   */\n      tag_849\n      tag_850\n      jump\t// in\n    tag_849:\n        /* \"#utility.yul\":26731:26787   */\n    tag_848:\n        /* \"#utility.yul\":26805:26834   */\n      tag_851\n        /* \"#utility.yul\":26827:26833   */\n      dup3\n        /* \"#utility.yul\":26805:26834   */\n      tag_733\n      jump\t// in\n    tag_851:\n        /* \"#utility.yul\":26797:26834   */\n      swap1\n      pop\n        /* \"#utility.yul\":26889:26893   */\n      0x20\n        /* \"#utility.yul\":26883:26887   */\n      dup2\n        /* \"#utility.yul\":26879:26894   */\n      add\n        /* \"#utility.yul\":26871:26894   */\n      swap1\n      pop\n        /* \"#utility.yul\":26593:26901   */\n      swap2\n      swap1\n      pop\n      jump\t// out\n        /* \"#utility.yul\":26907:27039   */\n    tag_700:\n        /* \"#utility.yul\":26974:26978   */\n      0x00\n        /* \"#utility.yul\":26997:27000   */\n      dup2\n        /* \"#utility.yul\":26989:27000   */\n      swap1\n      pop\n        /* \"#utility.yul\":27027:27031   */\n      0x20\n        /* \"#utility.yul\":27022:27025   */\n      dup3\n        /* \"#utility.yul\":27018:27032   */\n      add\n        /* \"#utility.yul\":27010:27032   */\n      swap1\n      pop\n        /* \"#utility.yul\":26907:27039   */\n      swap2\n      swap1\n      pop\n      jump\t// out\n        /* \"#utility.yul\":27045:27187   */\n    tag_714:\n        /* \"#utility.yul\":27122:27126   */\n      0x00\n        /* \"#utility.yul\":27145:27148   */\n      dup2\n        /* \"#utility.yul\":27137:27148   */\n      swap1\n      pop\n        /* \"#utility.yul\":27175:27179   */\n      0x20\n        /* \"#utility.yul\":27170:27173   */\n      dup3\n        /* \"#utility.yul\":27166:27180   */\n      add\n        /* \"#utility.yul\":27158:27180   */\n      swap1\n      pop\n        /* \"#utility.yul\":27045:27187   */\n      swap2\n      swap1\n      pop\n      jump\t// out\n        /* \"#utility.yul\":27193:27307   */\n    tag_696:\n        /* \"#utility.yul\":27260:27266   */\n      0x00\n        /* \"#utility.yul\":27294:27299   */\n      dup2\n        /* \"#utility.yul\":27288:27300   */\n      mload\n        /* \"#utility.yul\":27278:27300   */\n      swap1\n      pop\n        /* \"#utility.yul\":27193:27307   */\n      swap2\n      swap1\n      pop\n      jump\t// out\n        /* \"#utility.yul\":27313:27437   */\n    tag_710:\n        /* \"#utility.yul\":27390:27396   */\n      0x00\n        /* \"#utility.yul\":27424:27429   */\n      dup2\n        /* \"#utility.yul\":27418:27430   */\n      mload\n        /* \"#utility.yul\":27408:27430   */\n      swap1\n      pop\n        /* \"#utility.yul\":27313:27437   */\n      swap2\n      swap1\n      pop\n      jump\t// out\n        /* \"#utility.yul\":27443:27542   */\n    tag_727:\n        /* \"#utility.yul\":27495:27501   */\n      0x00\n        /* \"#utility.yul\":27529:27534   */\n      dup2\n        /* \"#utility.yul\":27523:27535   */\n      mload\n        /* \"#utility.yul\":27513:27535   */\n      swap1\n      pop\n        /* \"#utility.yul\":27443:27542   */\n      swap2\n      swap1\n      pop\n      jump\t// out\n        /* \"#utility.yul\":27548:27661   */\n    tag_706:\n        /* \"#utility.yul\":27618:27622   */\n      0x00\n        /* \"#utility.yul\":27650:27654   */\n      0x20\n        /* \"#utility.yul\":27645:27648   */\n      dup3\n        /* \"#utility.yul\":27641:27655   */\n      add\n        /* \"#utility.yul\":27633:27655   */\n      swap1\n      pop\n        /* \"#utility.yul\":27548:27661   */\n      swap2\n      swap1\n      pop\n      jump\t// out\n        /* \"#utility.yul\":27667:27790   */\n    tag_720:\n        /* \"#utility.yul\":27747:27751   */\n      0x00\n        /* \"#utility.yul\":27779:27783   */\n      0x20\n        /* \"#utility.yul\":27774:27777   */\n      dup3\n        /* \"#utility.yul\":27770:27784   */\n      add\n        /* \"#utility.yul\":27762:27784   */\n      swap1\n      pop\n        /* \"#utility.yul\":27667:27790   */\n      swap2\n      swap1\n      pop\n      jump\t// out\n        /* \"#utility.yul\":27796:27980   */\n    tag_698:\n        /* \"#utility.yul\":27895:27906   */\n      0x00\n        /* \"#utility.yul\":27929:27935   */\n      dup3\n        /* \"#utility.yul\":27924:27927   */\n      dup3\n        /* \"#utility.yul\":27917:27936   */\n      mstore\n        /* \"#utility.yul\":27969:27973   */\n      0x20\n        /* \"#utility.yul\":27964:27967   */\n      dup3\n        /* \"#utility.yul\":27960:27974   */\n      add\n        /* \"#utility.yul\":27945:27974   */\n      swap1\n      pop\n        /* \"#utility.yul\":27796:27980   */\n      swap3\n      swap2\n      pop\n      pop\n      jump\t// out\n        /* \"#utility.yul\":27986:28180   */\n    tag_712:\n        /* \"#utility.yul\":28095:28106   */\n      0x00\n        /* \"#utility.yul\":28129:28135   */\n      dup3\n        /* \"#utility.yul\":28124:28127   */\n      dup3\n        /* \"#utility.yul\":28117:28136   */\n      mstore\n        /* \"#utility.yul\":28169:28173   */\n      0x20\n        /* \"#utility.yul\":28164:28167   */\n      dup3\n        /* \"#utility.yul\":28160:28174   */\n      add\n        /* \"#utility.yul\":28145:28174   */\n      swap1\n      pop\n        /* \"#utility.yul\":27986:28180   */\n      swap3\n      swap2\n      pop\n      pop\n      jump\t// out\n        /* \"#utility.yul\":28186:28345   */\n    tag_729:\n        /* \"#utility.yul\":28260:28271   */\n      0x00\n        /* \"#utility.yul\":28294:28300   */\n      dup3\n        /* \"#utility.yul\":28289:28292   */\n      dup3\n        /* \"#utility.yul\":28282:28301   */\n      mstore\n        /* \"#utility.yul\":28334:28338   */\n      0x20\n        /* \"#utility.yul\":28329:28332   */\n      dup3\n        /* \"#utility.yul\":28325:28339   */\n      add\n        /* \"#utility.yul\":28310:28339   */\n      swap1\n      pop\n        /* \"#utility.yul\":28186:28345   */\n      swap3\n      swap2\n      pop\n      pop\n      jump\t// out\n        /* \"#utility.yul\":28351:28520   */\n    tag_738:\n        /* \"#utility.yul\":28435:28446   */\n      0x00\n        /* \"#utility.yul\":28469:28475   */\n      dup3\n        /* \"#utility.yul\":28464:28467   */\n      dup3\n        /* \"#utility.yul\":28457:28476   */\n      mstore\n        /* \"#utility.yul\":28509:28513   */\n      0x20\n        /* \"#utility.yul\":28504:28507   */\n      dup3\n        /* \"#utility.yul\":28500:28514   */\n      add\n        /* \"#utility.yul\":28485:28514   */\n      swap1\n      pop\n        /* \"#utility.yul\":28351:28520   */\n      swap3\n      swap2\n      pop\n      pop\n      jump\t// out\n        /* \"#utility.yul\":28526:28674   */\n    tag_745:\n        /* \"#utility.yul\":28628:28639   */\n      0x00\n        /* \"#utility.yul\":28665:28668   */\n      dup2\n        /* \"#utility.yul\":28650:28668   */\n      swap1\n      pop\n        /* \"#utility.yul\":28526:28674   */\n      swap3\n      swap2\n      pop\n      pop\n      jump\t// out\n        /* \"#utility.yul\":28680:28776   */\n    tag_689:\n        /* \"#utility.yul\":28717:28724   */\n      0x00\n        /* \"#utility.yul\":28746:28770   */\n      tag_865\n        /* \"#utility.yul\":28764:28769   */\n      dup3\n        /* \"#utility.yul\":28746:28770   */\n      tag_866\n      jump\t// in\n    tag_865:\n        /* \"#utility.yul\":28735:28770   */\n      swap1\n      pop\n        /* \"#utility.yul\":28680:28776   */\n      swap2\n      swap1\n      pop\n      jump\t// out\n        /* \"#utility.yul\":28782:28886   */\n    tag_867:\n        /* \"#utility.yul\":28827:28834   */\n      0x00\n        /* \"#utility.yul\":28856:28880   */\n      tag_869\n        /* \"#utility.yul\":28874:28879   */\n      dup3\n        /* \"#utility.yul\":28856:28880   */\n      tag_866\n      jump\t// in\n    tag_869:\n        /* \"#utility.yul\":28845:28880   */\n      swap1\n      pop\n        /* \"#utility.yul\":28782:28886   */\n      swap2\n      swap1\n      pop\n      jump\t// out\n        /* \"#utility.yul\":28892:28982   */\n    tag_870:\n        /* \"#utility.yul\":28926:28933   */\n      0x00\n        /* \"#utility.yul\":28969:28974   */\n      dup2\n        /* \"#utility.yul\":28962:28975   */\n      iszero\n        /* \"#utility.yul\":28955:28976   */\n      iszero\n        /* \"#utility.yul\":28944:28976   */\n      swap1\n      pop\n        /* \"#utility.yul\":28892:28982   */\n      swap2\n      swap1\n      pop\n      jump\t// out\n        /* \"#utility.yul\":28988:29064   */\n    tag_724:\n        /* \"#utility.yul\":29024:29031   */\n      0x00\n        /* \"#utility.yul\":29053:29058   */\n      dup2\n        /* \"#utility.yul\":29042:29058   */\n      swap1\n      pop\n        /* \"#utility.yul\":28988:29064   */\n      swap2\n      swap1\n      pop\n      jump\t// out\n        /* \"#utility.yul\":29070:29196   */\n    tag_866:\n        /* \"#utility.yul\":29107:29114   */\n      0x00\n        /* \"#utility.yul\":29147:29189   */\n      0xffffffffffffffffffffffffffffffffffffffff\n        /* \"#utility.yul\":29140:29145   */\n      dup3\n        /* \"#utility.yul\":29136:29190   */\n      and\n        /* \"#utility.yul\":29125:29190   */\n      swap1\n      pop\n        /* \"#utility.yul\":29070:29196   */\n      swap2\n      swap1\n      pop\n      jump\t// out\n        /* \"#utility.yul\":29202:29279   */\n    tag_790:\n        /* \"#utility.yul\":29239:29246   */\n      0x00\n        /* \"#utility.yul\":29268:29273   */\n      dup2\n        /* \"#utility.yul\":29257:29273   */\n      swap1\n      pop\n        /* \"#utility.yul\":29202:29279   */\n      swap2\n      swap1\n      pop\n      jump\t// out\n        /* \"#utility.yul\":29285:29439   */\n    tag_562:\n        /* \"#utility.yul\":29369:29375   */\n      dup3\n        /* \"#utility.yul\":29364:29367   */\n      dup2\n        /* \"#utility.yul\":29359:29362   */\n      dup4\n        /* \"#utility.yul\":29346:29376   */\n      calldatacopy\n        /* \"#utility.yul\":29431:29432   */\n      0x00\n        /* \"#utility.yul\":29422:29428   */\n      dup4\n        /* \"#utility.yul\":29417:29420   */\n      dup4\n        /* \"#utility.yul\":29413:29429   */\n      add\n        /* \"#utility.yul\":29406:29433   */\n      mstore\n        /* \"#utility.yul\":29285:29439   */\n      pop\n      pop\n      pop\n      jump\t// out\n        /* \"#utility.yul\":29445:29752   */\n    tag_731:\n        /* \"#utility.yul\":29513:29514   */\n      0x00\n        /* \"#utility.yul\":29523:29636   */\n    tag_877:\n        /* \"#utility.yul\":29537:29543   */\n      dup4\n        /* \"#utility.yul\":29534:29535   */\n      dup2\n        /* \"#utility.yul\":29531:29544   */\n      lt\n        /* \"#utility.yul\":29523:29636   */\n      iszero\n      tag_879\n      jumpi\n        /* \"#utility.yul\":29622:29623   */\n      dup1\n        /* \"#utility.yul\":29617:29620   */\n      dup3\n        /* \"#utility.yul\":29613:29624   */\n      add\n        /* \"#utility.yul\":29607:29625   */\n      mload\n        /* \"#utility.yul\":29603:29604   */\n      dup2\n        /* \"#utility.yul\":29598:29601   */\n      dup5\n        /* \"#utility.yul\":29594:29605   */\n      add\n        /* \"#utility.yul\":29587:29626   */\n      mstore\n        /* \"#utility.yul\":29559:29561   */\n      0x20\n        /* \"#utility.yul\":29556:29557   */\n      dup2\n        /* \"#utility.yul\":29552:29562   */\n      add\n        /* \"#utility.yul\":29547:29562   */\n      swap1\n      pop\n        /* \"#utility.yul\":29523:29636   */\n      jump(tag_877)\n    tag_879:\n        /* \"#utility.yul\":29654:29660   */\n      dup4\n        /* \"#utility.yul\":29651:29652   */\n      dup2\n        /* \"#utility.yul\":29648:29661   */\n      gt\n        /* \"#utility.yul\":29645:29746   */\n      iszero\n      tag_880\n      jumpi\n        /* \"#utility.yul\":29734:29735   */\n      0x00\n        /* \"#utility.yul\":29725:29731   */\n      dup5\n        /* \"#utility.yul\":29720:29723   */\n      dup5\n        /* \"#utility.yul\":29716:29732   */\n      add\n        /* \"#utility.yul\":29709:29736   */\n      mstore\n        /* \"#utility.yul\":29645:29746   */\n    tag_880:\n        /* \"#utility.yul\":29494:29752   */\n      pop\n        /* \"#utility.yul\":29445:29752   */\n      pop\n      pop\n      pop\n      jump\t// out\n        /* \"#utility.yul\":29758:30078   */\n    tag_129:\n        /* \"#utility.yul\":29802:29808   */\n      0x00\n        /* \"#utility.yul\":29839:29840   */\n      0x02\n        /* \"#utility.yul\":29833:29837   */\n      dup3\n        /* \"#utility.yul\":29829:29841   */\n      div\n        /* \"#utility.yul\":29819:29841   */\n      swap1\n      pop\n        /* \"#utility.yul\":29886:29887   */\n      0x01\n        /* \"#utility.yul\":29880:29884   */\n      dup3\n        /* \"#utility.yul\":29876:29888   */\n      and\n        /* \"#utility.yul\":29907:29925   */\n      dup1\n        /* \"#utility.yul\":29897:29978   */\n      tag_882\n      jumpi\n        /* \"#utility.yul\":29963:29967   */\n      0x7f\n        /* \"#utility.yul\":29955:29961   */\n      dup3\n        /* \"#utility.yul\":29951:29968   */\n      and\n        /* \"#utility.yul\":29941:29968   */\n      swap2\n      pop\n        /* \"#utility.yul\":29897:29978   */\n    tag_882:\n        /* \"#utility.yul\":30025:30027   */\n      0x20\n        /* \"#utility.yul\":30017:30023   */\n      dup3\n        /* \"#utility.yul\":30014:30028   */\n      lt\n        /* \"#utility.yul\":29994:30012   */\n      dup2\n        /* \"#utility.yul\":29991:30029   */\n      eq\n        /* \"#utility.yul\":29988:30072   */\n      iszero\n      tag_883\n      jumpi\n        /* \"#utility.yul\":30044:30062   */\n      tag_884\n      tag_885\n      jump\t// in\n    tag_884:\n        /* \"#utility.yul\":29988:30072   */\n    tag_883:\n        /* \"#utility.yul\":29809:30078   */\n      pop\n        /* \"#utility.yul\":29758:30078   */\n      swap2\n      swap1\n      pop\n      jump\t// out\n        /* \"#utility.yul\":30084:30365   */\n    tag_845:\n        /* \"#utility.yul\":30167:30194   */\n      tag_887\n        /* \"#utility.yul\":30189:30193   */\n      dup3\n        /* \"#utility.yul\":30167:30194   */\n      tag_733\n      jump\t// in\n    tag_887:\n        /* \"#utility.yul\":30159:30165   */\n      dup2\n        /* \"#utility.yul\":30155:30195   */\n      add\n        /* \"#utility.yul\":30297:30303   */\n      dup2\n        /* \"#utility.yul\":30285:30295   */\n      dup2\n        /* \"#utility.yul\":30282:30304   */\n      lt\n        /* \"#utility.yul\":30261:30279   */\n      0xffffffffffffffff\n        /* \"#utility.yul\":30249:30259   */\n      dup3\n        /* \"#utility.yul\":30246:30280   */\n      gt\n        /* \"#utility.yul\":30243:30305   */\n      or\n        /* \"#utility.yul\":30240:30328   */\n      iszero\n      tag_888\n      jumpi\n        /* \"#utility.yul\":30308:30326   */\n      tag_889\n      tag_850\n      jump\t// in\n    tag_889:\n        /* \"#utility.yul\":30240:30328   */\n    tag_888:\n        /* \"#utility.yul\":30348:30358   */\n      dup1\n        /* \"#utility.yul\":30344:30346   */\n      0x40\n        /* \"#utility.yul\":30337:30359   */\n      mstore\n        /* \"#utility.yul\":30127:30365   */\n      pop\n        /* \"#utility.yul\":30084:30365   */\n      pop\n      pop\n      jump\t// out\n        /* \"#utility.yul\":30371:30604   */\n    tag_476:\n        /* \"#utility.yul\":30410:30413   */\n      0x00\n        /* \"#utility.yul\":30433:30457   */\n      tag_891\n        /* \"#utility.yul\":30451:30456   */\n      dup3\n        /* \"#utility.yul\":30433:30457   */\n      tag_790\n      jump\t// in\n    tag_891:\n        /* \"#utility.yul\":30424:30457   */\n      swap2\n      pop\n        /* \"#utility.yul\":30479:30545   */\n      0xffffffffffffffffffffffffffffffffffffffffffffffffffffffffffffffff\n        /* \"#utility.yul\":30472:30477   */\n      dup3\n        /* \"#utility.yul\":30469:30546   */\n      eq\n        /* \"#utility.yul\":30466:30569   */\n      iszero\n      tag_892\n      jumpi\n        /* \"#utility.yul\":30549:30567   */\n      tag_893\n      tag_894\n      jump\t// in\n    tag_893:\n        /* \"#utility.yul\":30466:30569   */\n    tag_892:\n        /* \"#utility.yul\":30596:30597   */\n      0x01\n        /* \"#utility.yul\":30589:30594   */\n      dup3\n        /* \"#utility.yul\":30585:30598   */\n      add\n        /* \"#utility.yul\":30578:30598   */\n      swap1\n      pop\n        /* \"#utility.yul\":30371:30604   */\n      swap2\n      swap1\n      pop\n      jump\t// out\n        /* \"#utility.yul\":30610:30790   */\n    tag_894:\n        /* \"#utility.yul\":30658:30735   */\n      0x4e487b7100000000000000000000000000000000000000000000000000000000\n        /* \"#utility.yul\":30655:30656   */\n      0x00\n        /* \"#utility.yul\":30648:30736   */\n      mstore\n        /* \"#utility.yul\":30755:30759   */\n      0x11\n        /* \"#utility.yul\":30752:30753   */\n      0x04\n        /* \"#utility.yul\":30745:30760   */\n      mstore\n        /* \"#utility.yul\":30779:30783   */\n      0x24\n        /* \"#utility.yul\":30776:30777   */\n      0x00\n        /* \"#utility.yul\":30769:30784   */\n      revert\n        /* \"#utility.yul\":30796:30976   */\n    tag_123:\n        /* \"#utility.yul\":30844:30921   */\n      0x4e487b7100000000000000000000000000000000000000000000000000000000\n        /* \"#utility.yul\":30841:30842   */\n      0x00\n        /* \"#utility.yul\":30834:30922   */\n      mstore\n        /* \"#utility.yul\":30941:30945   */\n      0x21\n        /* \"#utility.yul\":30938:30939   */\n      0x04\n        /* \"#utility.yul\":30931:30946   */\n      mstore\n        /* \"#utility.yul\":30965:30969   */\n      0x24\n        /* \"#utility.yul\":30962:30963   */\n      0x00\n        /* \"#utility.yul\":30955:30970   */\n      revert\n        /* \"#utility.yul\":30982:31162   */\n    tag_885:\n        /* \"#utility.yul\":31030:31107   */\n      0x4e487b7100000000000000000000000000000000000000000000000000000000\n        /* \"#utility.yul\":31027:31028   */\n      0x00\n        /* \"#utility.yul\":31020:31108   */\n      mstore\n        /* \"#utility.yul\":31127:31131   */\n      0x22\n        /* \"#utility.yul\":31124:31125   */\n      0x04\n        /* \"#utility.yul\":31117:31132   */\n      mstore\n        /* \"#utility.yul\":31151:31155   */\n      0x24\n        /* \"#utility.yul\":31148:31149   */\n      0x00\n        /* \"#utility.yul\":31141:31156   */\n      revert\n        /* \"#utility.yul\":31168:31348   */\n    tag_474:\n        /* \"#utility.yul\":31216:31293   */\n      0x4e487b7100000000000000000000000000000000000000000000000000000000\n        /* \"#utility.yul\":31213:31214   */\n      0x00\n        /* \"#utility.yul\":31206:31294   */\n      mstore\n        /* \"#utility.yul\":31313:31317   */\n      0x32\n        /* \"#utility.yul\":31310:31311   */\n      0x04\n        /* \"#utility.yul\":31303:31318   */\n      mstore\n        /* \"#utility.yul\":31337:31341   */\n      0x24\n        /* \"#utility.yul\":31334:31335   */\n      0x00\n        /* \"#utility.yul\":31327:31342   */\n      revert\n        /* \"#utility.yul\":31354:31534   */\n    tag_850:\n        /* \"#utility.yul\":31402:31479   */\n      0x4e487b7100000000000000000000000000000000000000000000000000000000\n        /* \"#utility.yul\":31399:31400   */\n      0x00\n        /* \"#utility.yul\":31392:31480   */\n      mstore\n        /* \"#utility.yul\":31499:31503   */\n      0x41\n        /* \"#utility.yul\":31496:31497   */\n      0x04\n        /* \"#utility.yul\":31489:31504   */\n      mstore\n        /* \"#utility.yul\":31523:31527   */\n      0x24\n        /* \"#utility.yul\":31520:31521   */\n      0x00\n        /* \"#utility.yul\":31513:31528   */\n      revert\n        /* \"#utility.yul\":31540:31657   */\n    tag_583:\n        /* \"#utility.yul\":31649:31650   */\n      0x00\n        /* \"#utility.yul\":31646:31647   */\n      dup1\n        /* \"#utility.yul\":31639:31651   */\n      revert\n        /* \"#utility.yul\":31663:31780   */\n    tag_560:\n        /* \"#utility.yul\":31772:31773   */\n      0x00\n        /* \"#utility.yul\":31769:31770   */\n      dup1\n        /* \"#utility.yul\":31762:31774   */\n      revert\n        /* \"#utility.yul\":31786:31903   */\n    tag_600:\n        /* \"#utility.yul\":31895:31896   */\n      0x00\n        /* \"#utility.yul\":31892:31893   */\n      dup1\n        /* \"#utility.yul\":31885:31897   */\n      revert\n        /* \"#utility.yul\":31909:32026   */\n    tag_588:\n        /* \"#utility.yul\":32018:32019   */\n      0x00\n        /* \"#utility.yul\":32015:32016   */\n      dup1\n        /* \"#utility.yul\":32008:32020   */\n      revert\n        /* \"#utility.yul\":32032:32134   */\n    tag_733:\n        /* \"#utility.yul\":32073:32079   */\n      0x00\n        /* \"#utility.yul\":32124:32126   */\n      0x1f\n        /* \"#utility.yul\":32120:32127   */\n      not\n        /* \"#utility.yul\":32115:32117   */\n      0x1f\n        /* \"#utility.yul\":32108:32113   */\n      dup4\n        /* \"#utility.yul\":32104:32118   */\n      add\n        /* \"#utility.yul\":32100:32128   */\n      and\n        /* \"#utility.yul\":32090:32128   */\n      swap1\n      pop\n        /* \"#utility.yul\":32032:32134   */\n      swap2\n      swap1\n      pop\n      jump\t// out\n        /* \"#utility.yul\":32140:32317   */\n    tag_751:\n        /* \"#utility.yul\":32280:32309   */\n      0x596f7520616c726561647920636865636b207468697320636173650000000000\n        /* \"#utility.yul\":32276:32277   */\n      0x00\n        /* \"#utility.yul\":32268:32274   */\n      dup3\n        /* \"#utility.yul\":32264:32278   */\n      add\n        /* \"#utility.yul\":32257:32310   */\n      mstore\n        /* \"#utility.yul\":32140:32317   */\n      pop\n      jump\t// out\n        /* \"#utility.yul\":32323:32544   */\n    tag_756:\n        /* \"#utility.yul\":32463:32497   */\n      0x596f7572206c6f67696e20616c726561647920657869737420696e2073797374\n        /* \"#utility.yul\":32459:32460   */\n      0x00\n        /* \"#utility.yul\":32451:32457   */\n      dup3\n        /* \"#utility.yul\":32447:32461   */\n      add\n        /* \"#utility.yul\":32440:32498   */\n      mstore\n        /* \"#utility.yul\":32532:32536   */\n      0x656d000000000000000000000000000000000000000000000000000000000000\n        /* \"#utility.yul\":32527:32529   */\n      0x20\n        /* \"#utility.yul\":32519:32525   */\n      dup3\n        /* \"#utility.yul\":32515:32530   */\n      add\n        /* \"#utility.yul\":32508:32537   */\n      mstore\n        /* \"#utility.yul\":32323:32544   */\n      pop\n      jump\t// out\n        /* \"#utility.yul\":32550:32711   */\n    tag_761:\n        /* \"#utility.yul\":32690:32703   */\n      0x4c6f772062616c616e6365000000000000000000000000000000000000000000\n        /* \"#utility.yul\":32686:32687   */\n      0x00\n        /* \"#utility.yul\":32678:32684   */\n      dup3\n        /* \"#utility.yul\":32674:32688   */\n      add\n        /* \"#utility.yul\":32667:32704   */\n      mstore\n        /* \"#utility.yul\":32550:32711   */\n      pop\n      jump\t// out\n        /* \"#utility.yul\":32717:32876   */\n    tag_766:\n        /* \"#utility.yul\":32857:32868   */\n      0x466f7262696464656e0000000000000000000000000000000000000000000000\n        /* \"#utility.yul\":32853:32854   */\n      0x00\n        /* \"#utility.yul\":32845:32851   */\n      dup3\n        /* \"#utility.yul\":32841:32855   */\n      add\n        /* \"#utility.yul\":32834:32869   */\n      mstore\n        /* \"#utility.yul\":32717:32876   */\n      pop\n      jump\t// out\n        /* \"#utility.yul\":32882:33044   */\n    tag_771:\n        /* \"#utility.yul\":33022:33036   */\n      0x596f75206e6f7420757365720000000000000000000000000000000000000000\n        /* \"#utility.yul\":33018:33019   */\n      0x00\n        /* \"#utility.yul\":33010:33016   */\n      dup3\n        /* \"#utility.yul\":33006:33020   */\n      add\n        /* \"#utility.yul\":32999:33037   */\n      mstore\n        /* \"#utility.yul\":32882:33044   */\n      pop\n      jump\t// out\n        /* \"#utility.yul\":33050:33213   */\n    tag_776:\n        /* \"#utility.yul\":33190:33205   */\n      0x596f75206e6f742061646d696e00000000000000000000000000000000000000\n        /* \"#utility.yul\":33186:33187   */\n      0x00\n        /* \"#utility.yul\":33178:33184   */\n      dup3\n        /* \"#utility.yul\":33174:33188   */\n      add\n        /* \"#utility.yul\":33167:33206   */\n      mstore\n        /* \"#utility.yul\":33050:33213   */\n      pop\n      jump\t// out\n        /* \"#utility.yul\":33219:33391   */\n    tag_781:\n        /* \"#utility.yul\":33359:33383   */\n      0x596f7520616c7265616479207265676973746572656400000000000000000000\n        /* \"#utility.yul\":33355:33356   */\n      0x00\n        /* \"#utility.yul\":33347:33353   */\n      dup3\n        /* \"#utility.yul\":33343:33357   */\n      add\n        /* \"#utility.yul\":33336:33384   */\n      mstore\n        /* \"#utility.yul\":33219:33391   */\n      pop\n      jump\t// out\n        /* \"#utility.yul\":33397:33558   */\n    tag_786:\n        /* \"#utility.yul\":33537:33550   */\n      0x57726f6e67204c6f67696e000000000000000000000000000000000000000000\n        /* \"#utility.yul\":33533:33534   */\n      0x00\n        /* \"#utility.yul\":33525:33531   */\n      dup3\n        /* \"#utility.yul\":33521:33535   */\n      add\n        /* \"#utility.yul\":33514:33551   */\n      mstore\n        /* \"#utility.yul\":33397:33558   */\n      pop\n      jump\t// out\n        /* \"#utility.yul\":33564:33686   */\n    tag_566:\n        /* \"#utility.yul\":33637:33661   */\n      tag_914\n        /* \"#utility.yul\":33655:33660   */\n      dup2\n        /* \"#utility.yul\":33637:33661   */\n      tag_689\n      jump\t// in\n    tag_914:\n        /* \"#utility.yul\":33630:33635   */\n      dup2\n        /* \"#utility.yul\":33627:33662   */\n      eq\n        /* \"#utility.yul\":33617:33680   */\n      tag_915\n      jumpi\n        /* \"#utility.yul\":33676:33677   */\n      0x00\n        /* \"#utility.yul\":33673:33674   */\n      dup1\n        /* \"#utility.yul\":33666:33678   */\n      revert\n        /* \"#utility.yul\":33617:33680   */\n    tag_915:\n        /* \"#utility.yul\":33564:33686   */\n      pop\n      jump\t// out\n        /* \"#utility.yul\":33692:33830   */\n    tag_570:\n        /* \"#utility.yul\":33773:33805   */\n      tag_917\n        /* \"#utility.yul\":33799:33804   */\n      dup2\n        /* \"#utility.yul\":33773:33805   */\n      tag_867\n      jump\t// in\n    tag_917:\n        /* \"#utility.yul\":33766:33771   */\n      dup2\n        /* \"#utility.yul\":33763:33806   */\n      eq\n        /* \"#utility.yul\":33753:33824   */\n      tag_918\n      jumpi\n        /* \"#utility.yul\":33820:33821   */\n      0x00\n        /* \"#utility.yul\":33817:33818   */\n      dup1\n        /* \"#utility.yul\":33810:33822   */\n      revert\n        /* \"#utility.yul\":33753:33824   */\n    tag_918:\n        /* \"#utility.yul\":33692:33830   */\n      pop\n      jump\t// out\n        /* \"#utility.yul\":33836:33952   */\n    tag_574:\n        /* \"#utility.yul\":33906:33927   */\n      tag_920\n        /* \"#utility.yul\":33921:33926   */\n      dup2\n        /* \"#utility.yul\":33906:33927   */\n      tag_870\n      jump\t// in\n    tag_920:\n        /* \"#utility.yul\":33899:33904   */\n      dup2\n        /* \"#utility.yul\":33896:33928   */\n      eq\n        /* \"#utility.yul\":33886:33946   */\n      tag_921\n      jumpi\n        /* \"#utility.yul\":33942:33943   */\n      0x00\n        /* \"#utility.yul\":33939:33940   */\n      dup1\n        /* \"#utility.yul\":33932:33944   */\n      revert\n        /* \"#utility.yul\":33886:33946   */\n    tag_921:\n        /* \"#utility.yul\":33836:33952   */\n      pop\n      jump\t// out\n        /* \"#utility.yul\":33958:34078   */\n    tag_578:\n        /* \"#utility.yul\":34030:34053   */\n      tag_923\n        /* \"#utility.yul\":34047:34052   */\n      dup2\n        /* \"#utility.yul\":34030:34053   */\n      tag_724\n      jump\t// in\n    tag_923:\n        /* \"#utility.yul\":34023:34028   */\n      dup2\n        /* \"#utility.yul\":34020:34054   */\n      eq\n        /* \"#utility.yul\":34010:34072   */\n      tag_924\n      jumpi\n        /* \"#utility.yul\":34068:34069   */\n      0x00\n        /* \"#utility.yul\":34065:34066   */\n      dup1\n        /* \"#utility.yul\":34058:34070   */\n      revert\n        /* \"#utility.yul\":34010:34072   */\n    tag_924:\n        /* \"#utility.yul\":33958:34078   */\n      pop\n      jump\t// out\n\n    auxdata: 0xa2646970667358221220d98db9f77314ec510f0d829870a143acc44184fecbf94cb90c9f37e2349bac9564736f6c63430008070033\n}\n",
				"bytecode": {
					"linkReferences": {},
					"object": "60806040523480156200001157600080fd5b506040518060400160405280600581526020017f627579657200000000000000000000000000000000000000000000000000000081525060008080815260200190815260200160002090805190602001906200006f92919062000292565b506040518060400160405280600681526020017f73656c6c65720000000000000000000000000000000000000000000000000000815250600080600181526020019081526020016000209080519060200190620000ce92919062000292565b506040518060400160405280600481526020017f73686f70000000000000000000000000000000000000000000000000000000008152506000806002815260200190815260200160002090805190602001906200012d92919062000292565b506040518060400160405280600581526020017f61646d696e0000000000000000000000000000000000000000000000000000008152506000806003815260200190815260200160002090805190602001906200018c92919062000292565b506040518060400160405280600881526020017f70726f7669646572000000000000000000000000000000000000000000000000815250600080600481526020019081526020016000209080519060200190620001eb92919062000292565b506040518060400160405280600481526020017f62616e6b000000000000000000000000000000000000000000000000000000008152506000806005815260200190815260200160002090805190602001906200024a92919062000292565b5033600560006101000a81548173ffffffffffffffffffffffffffffffffffffffff021916908373ffffffffffffffffffffffffffffffffffffffff160217905550620003a7565b828054620002a09062000342565b90600052602060002090601f016020900481019282620002c4576000855562000310565b82601f10620002df57805160ff191683800117855562000310565b8280016001018555821562000310579182015b828111156200030f578251825591602001919060010190620002f2565b5b5090506200031f919062000323565b5090565b5b808211156200033e57600081600090555060010162000324565b5090565b600060028204905060018216806200035b57607f821691505b6020821081141562000372576200037162000378565b5b50919050565b7f4e487b7100000000000000000000000000000000000000000000000000000000600052602260045260246000fd5b61506780620003b76000396000f3fe608060405234801561001057600080fd5b506004361061014d5760003560e01c80638403f848116100c3578063bce62a741161007c578063bce62a741461037f578063c3d5fd391461039b578063dffc8b06146103bc578063e7bfea50146103ee578063f8f98b791461040a578063fb1a002a146104265761014d565b80638403f848146102d257806399b958ee146102ee5780639d344d101461030f578063a59d105f1461032b578063ac6fa7c314610347578063b038316c146103635761014d565b80633a7d280c116101155780633a7d280c1461020f57806354504c12146102405780637558b2f8146102625780637b3c74881461027e5780637ccb2bd81461029a57806383db0f6d146102b65761014d565b806308e74858146101525780632059b7ad146101865780632156a781146101a25780632d6abf59146101be5780632f0185c4146101da575b600080fd5b61016c60048036038101906101679190613fe6565b610444565b60405161017d959493929190614935565b60405180910390f35b6101a0600480360381019061019b91906142ca565b610949565b005b6101bc60048036038101906101b7919061426e565b610b2f565b005b6101d860048036038101906101d391906140cb565b610bf6565b005b6101f460048036038101906101ef9190614225565b610f88565b604051610206969594939291906147d5565b60405180910390f35b61022960048036038101906102249190614225565b611258565b60405161023792919061483d565b60405180910390f35b61024861164f565b604051610259959493929190614935565b60405180910390f35b61027c6004803603810190610277919061416a565b611b52565b005b61029860048036038101906102939190614225565b611c99565b005b6102b460048036038101906102af919061426e565b611f64565b005b6102d060048036038101906102cb9190614013565b61206d565b005b6102ec60048036038101906102e79190614429565b6121bc565b005b6102f66122ea565b60405161030694939291906149ab565b60405180910390f35b6103296004803603810190610324919061439e565b61269f565b005b61034560048036038101906103409190614040565b6126c8565b005b610361600480360381019061035c9190614225565b6127c7565b005b61037d60048036038101906103789190614225565b6129a1565b005b61039960048036038101906103949190614225565b612b7b565b005b6103a3612e46565b6040516103b394939291906148d4565b60405180910390f35b6103d660048036038101906103d19190614225565b613379565b6040516103e59392919061486d565b60405180910390f35b61040860048036038101906104039190613fe6565b613581565b005b610424600480360381019061041f9190614326565b61376e565b005b61042e613863565b60405161043b91906148b2565b60405180910390f35b60608060608060606003600260003373ffffffffffffffffffffffffffffffffffffffff1673ffffffffffffffffffffffffffffffffffffffff168152602001908152602001600020600001548160058111156104a4576104a3614d86565b5b146104e4576040517f08c379a00000000000000000000000000000000000000000000000000000000081526004016104db90614a65565b60405180910390fd5b6000600260008973ffffffffffffffffffffffffffffffffffffffff1673ffffffffffffffffffffffffffffffffffffffff1681526020019081526020016000206040518060800160405290816000820154815260200160018201805461054a90614cab565b80601f016020809104026020016040519081016040528092919081815260200182805461057690614cab565b80156105c35780601f10610598576101008083540402835291602001916105c3565b820191906000526020600020905b8154815290600101906020018083116105a657829003601f168201915b505050505081526020016002820180546105dc90614cab565b80601f016020809104026020016040519081016040528092919081815260200182805461060890614cab565b80156106555780601f1061062a57610100808354040283529160200191610655565b820191906000526020600020905b81548152906001019060200180831161063857829003601f168201915b5050505050815260200160038201805480602002602001604051908101604052809291908181526020016000905b8282101561072f5783829060005260206000200180546106a290614cab565b80601f01602080910402602001604051908101604052809291908181526020018280546106ce90614cab565b801561071b5780601f106106f05761010080835404028352916020019161071b565b820191906000526020600020905b8154815290600101906020018083116106fe57829003601f168201915b505050505081526020019060010190610683565b505050508152505090506000600b60008a73ffffffffffffffffffffffffffffffffffffffff1673ffffffffffffffffffffffffffffffffffffffff16815260200190815260200160002060009054906101000a900473ffffffffffffffffffffffffffffffffffffffff1690506000600a60008373ffffffffffffffffffffffffffffffffffffffff1673ffffffffffffffffffffffffffffffffffffffff1681526020019081526020016000206040518060600160405290816000820180546107f990614cab565b80601f016020809104026020016040519081016040528092919081815260200182805461082590614cab565b80156108725780601f1061084757610100808354040283529160200191610872565b820191906000526020600020905b81548152906001019060200180831161085557829003601f168201915b5050505050815260200160018201805461088b90614cab565b80601f01602080910402602001604051908101604052809291908181526020018280546108b790614cab565b80156109045780601f106108d957610100808354040283529160200191610904565b820191906000526020600020905b8154815290600101906020018083116108e757829003601f168201915b50505050508152602001600282015481525050905082602001519850826040015197508060200151965080600001519550826060015194505050505091939590929450565b6003600260003373ffffffffffffffffffffffffffffffffffffffff1673ffffffffffffffffffffffffffffffffffffffff168152602001908152602001600020600001548160058111156109a1576109a0614d86565b5b146109e1576040517f08c379a00000000000000000000000000000000000000000000000000000000081526004016109d890614a65565b60405180910390fd5b6000600f846040516109f391906147be565b90815260200160405180910390206040518060800160405290816000820160009054906101000a900473ffffffffffffffffffffffffffffffffffffffff1673ffffffffffffffffffffffffffffffffffffffff1673ffffffffffffffffffffffffffffffffffffffff16815260200160018201548152602001600282015481526020016003820160009054906101000a900460ff16151515158152505090506000816040015190508315610aee578060026000846000015173ffffffffffffffffffffffffffffffffffffffff1673ffffffffffffffffffffffffffffffffffffffff168152602001908152602001600020600001819055505b6001600f86604051610b0091906147be565b908152602001604051809103902060030160006101000a81548160ff0219169083151502179055505050505050565b600560009054906101000a900473ffffffffffffffffffffffffffffffffffffffff1673ffffffffffffffffffffffffffffffffffffffff163373ffffffffffffffffffffffffffffffffffffffff1614610bbf576040517f08c379a0000000000000000000000000000000000000000000000000000000008152600401610bb690614aa5565b60405180910390fd5b6000600580811115610bd457610bd3614d86565b5b9050610bf1604051806020016040528060008152508483856139d5565b505050565b610cd9600260003373ffffffffffffffffffffffffffffffffffffffff1673ffffffffffffffffffffffffffffffffffffffff1681526020019081526020016000206001018054610c4690614cab565b80601f0160208091040260200160405190810160405280929190818152602001828054610c7290614cab565b8015610cbf5780601f10610c9457610100808354040283529160200191610cbf565b820191906000526020600020905b815481529060010190602001808311610ca257829003601f168201915b505050505060405180602001604052806000815250613cd8565b15610d19576040517f08c379a0000000000000000000000000000000000000000000000000000000008152600401610d1090614a85565b60405180910390fd5b60608060006040518060c001604052803373ffffffffffffffffffffffffffffffffffffffff1681526020018873ffffffffffffffffffffffffffffffffffffffff168152602001878152602001848152602001838152602001858152509050600d60008873ffffffffffffffffffffffffffffffffffffffff1673ffffffffffffffffffffffffffffffffffffffff16815260200190815260200160002085908060018154018082558091505060019003906000526020600020016000909190919091509080519060200190610df1929190613d31565b50600260003373ffffffffffffffffffffffffffffffffffffffff1673ffffffffffffffffffffffffffffffffffffffff16815260200190815260200160002060030185908060018154018082558091505060019003906000526020600020016000909190919091509080519060200190610e6d929190613d31565b5080600e86604051610e7f91906147be565b908152602001604051809103902060008201518160000160006101000a81548173ffffffffffffffffffffffffffffffffffffffff021916908373ffffffffffffffffffffffffffffffffffffffff16021790555060208201518160010160006101000a81548173ffffffffffffffffffffffffffffffffffffffff021916908373ffffffffffffffffffffffffffffffffffffffff1602179055506040820151816002019080519060200190610f37929190613d31565b506060820151816003019080519060200190610f54929190613db7565b506080820151816004019080519060200190610f71929190613db7565b5060a0820151816005015590505050505050505050565b6000806060600080600080600e88604051610fa391906147be565b90815260200160405180910390206040518060c00160405290816000820160009054906101000a900473ffffffffffffffffffffffffffffffffffffffff1673ffffffffffffffffffffffffffffffffffffffff1673ffffffffffffffffffffffffffffffffffffffff1681526020016001820160009054906101000a900473ffffffffffffffffffffffffffffffffffffffff1673ffffffffffffffffffffffffffffffffffffffff1673ffffffffffffffffffffffffffffffffffffffff16815260200160028201805461107890614cab565b80601f01602080910402602001604051908101604052809291908181526020018280546110a490614cab565b80156110f15780601f106110c6576101008083540402835291602001916110f1565b820191906000526020600020905b8154815290600101906020018083116110d457829003601f168201915b505050505081526020016003820180548060200260200160405190810160405280929190818152602001828054801561117f57602002820191906000526020600020905b8160009054906101000a900473ffffffffffffffffffffffffffffffffffffffff1673ffffffffffffffffffffffffffffffffffffffff1681526020019060010190808311611135575b505050505081526020016004820180548060200260200160405190810160405280929190818152602001828054801561120d57602002820191906000526020600020905b8160009054906101000a900473ffffffffffffffffffffffffffffffffffffffff1673ffffffffffffffffffffffffffffffffffffffff16815260200190600101908083116111c3575b505050505081526020016005820154815250509050806000015196508060200151955080604001519450806060015151935080608001515192508060a0015191505091939550919395565b6000606082600073ffffffffffffffffffffffffffffffffffffffff1660018260405161128591906147be565b908152602001604051809103902060009054906101000a900473ffffffffffffffffffffffffffffffffffffffff1673ffffffffffffffffffffffffffffffffffffffff16141561130b576040517f08c379a000000000000000000000000000000000000000000000000000000000815260040161130290614ae5565b60405180910390fd5b600060018560405161131d91906147be565b908152602001604051809103902060009054906101000a900473ffffffffffffffffffffffffffffffffffffffff1690506000600260008373ffffffffffffffffffffffffffffffffffffffff1673ffffffffffffffffffffffffffffffffffffffff168152602001908152602001600020604051806080016040529081600082015481526020016001820180546113b490614cab565b80601f01602080910402602001604051908101604052809291908181526020018280546113e090614cab565b801561142d5780601f106114025761010080835404028352916020019161142d565b820191906000526020600020905b81548152906001019060200180831161141057829003601f168201915b5050505050815260200160028201805461144690614cab565b80601f016020809104026020016040519081016040528092919081815260200182805461147290614cab565b80156114bf5780601f10611494576101008083540402835291602001916114bf565b820191906000526020600020905b8154815290600101906020018083116114a257829003601f168201915b5050505050815260200160038201805480602002602001604051908101604052809291908181526020016000905b8282101561159957838290600052602060002001805461150c90614cab565b80601f016020809104026020016040519081016040528092919081815260200182805461153890614cab565b80156115855780601f1061155a57610100808354040283529160200191611585565b820191906000526020600020905b81548152906001019060200180831161156857829003601f168201915b5050505050815260200190600101906114ed565b505050508152505090508194506000808260000151815260200190815260200160002080546115c790614cab565b80601f01602080910402602001604051908101604052809291908181526020018280546115f390614cab565b80156116405780601f1061161557610100808354040283529160200191611640565b820191906000526020600020905b81548152906001019060200180831161162357829003601f168201915b50505050509350505050915091565b60608060608060606001600260003373ffffffffffffffffffffffffffffffffffffffff1673ffffffffffffffffffffffffffffffffffffffff168152602001908152602001600020600001548160058111156116af576116ae614d86565b5b146116ef576040517f08c379a00000000000000000000000000000000000000000000000000000000081526004016116e690614a65565b60405180910390fd5b6000600260003373ffffffffffffffffffffffffffffffffffffffff1673ffffffffffffffffffffffffffffffffffffffff1681526020019081526020016000206040518060800160405290816000820154815260200160018201805461175590614cab565b80601f016020809104026020016040519081016040528092919081815260200182805461178190614cab565b80156117ce5780601f106117a3576101008083540402835291602001916117ce565b820191906000526020600020905b8154815290600101906020018083116117b157829003601f168201915b505050505081526020016002820180546117e790614cab565b80601f016020809104026020016040519081016040528092919081815260200182805461181390614cab565b80156118605780601f1061183557610100808354040283529160200191611860565b820191906000526020600020905b81548152906001019060200180831161184357829003601f168201915b5050505050815260200160038201805480602002602001604051908101604052809291908181526020016000905b8282101561193a5783829060005260206000200180546118ad90614cab565b80601f01602080910402602001604051908101604052809291908181526020018280546118d990614cab565b80156119265780601f106118fb57610100808354040283529160200191611926565b820191906000526020600020905b81548152906001019060200180831161190957829003601f168201915b50505050508152602001906001019061188e565b505050508152505090506000600b60003373ffffffffffffffffffffffffffffffffffffffff1673ffffffffffffffffffffffffffffffffffffffff16815260200190815260200160002060009054906101000a900473ffffffffffffffffffffffffffffffffffffffff1690506000600a60008373ffffffffffffffffffffffffffffffffffffffff1673ffffffffffffffffffffffffffffffffffffffff168152602001908152602001600020604051806060016040529081600082018054611a0490614cab565b80601f0160208091040260200160405190810160405280929190818152602001828054611a3090614cab565b8015611a7d5780601f10611a5257610100808354040283529160200191611a7d565b820191906000526020600020905b815481529060010190602001808311611a6057829003601f168201915b50505050508152602001600182018054611a9690614cab565b80601f0160208091040260200160405190810160405280929190818152602001828054611ac290614cab565b8015611b0f5780601f10611ae457610100808354040283529160200191611b0f565b820191906000526020600020905b815481529060010190602001808311611af257829003601f168201915b5050505050815260200160028201548152505090508260200151985082604001519750806020015196508060000151955082606001519450505050509091929394565b6003600260003373ffffffffffffffffffffffffffffffffffffffff1673ffffffffffffffffffffffffffffffffffffffff16815260200190815260200160002060000154816005811115611baa57611ba9614d86565b5b14611bea576040517f08c379a0000000000000000000000000000000000000000000000000000000008152600401611be190614a65565b60405180910390fd5b600060405180606001604052808681526020018581526020016000815250905080600a60008873ffffffffffffffffffffffffffffffffffffffff1673ffffffffffffffffffffffffffffffffffffffff1681526020019081526020016000206000820151816000019080519060200190611c66929190613d31565b506020820151816001019080519060200190611c83929190613d31565b5060408201518160020155905050505050505050565b611d7c600260003373ffffffffffffffffffffffffffffffffffffffff1673ffffffffffffffffffffffffffffffffffffffff1681526020019081526020016000206001018054611ce990614cab565b80601f0160208091040260200160405190810160405280929190818152602001828054611d1590614cab565b8015611d625780601f10611d3757610100808354040283529160200191611d62565b820191906000526020600020905b815481529060010190602001808311611d4557829003601f168201915b505050505060405180602001604052806000815250613cd8565b15611dbc576040517f08c379a0000000000000000000000000000000000000000000000000000000008152600401611db390614a85565b60405180910390fd5b60001515601082604051611dd091906147be565b908152602001604051809103902060003373ffffffffffffffffffffffffffffffffffffffff1673ffffffffffffffffffffffffffffffffffffffff16815260200190815260200160002060009054906101000a900460ff16151514611e6b576040517f08c379a0000000000000000000000000000000000000000000000000000000008152600401611e6290614a05565b60405180910390fd5b600e81604051611e7b91906147be565b9081526020016040518091039020600301339080600181540180825580915050600190039060005260206000200160009091909190916101000a81548173ffffffffffffffffffffffffffffffffffffffff021916908373ffffffffffffffffffffffffffffffffffffffff1602179055506001601082604051611eff91906147be565b908152602001604051809103902060003373ffffffffffffffffffffffffffffffffffffffff1673ffffffffffffffffffffffffffffffffffffffff16815260200190815260200160002060006101000a81548160ff02191690831515021790555050565b600560009054906101000a900473ffffffffffffffffffffffffffffffffffffffff1673ffffffffffffffffffffffffffffffffffffffff163373ffffffffffffffffffffffffffffffffffffffff1614611ff4576040517f08c379a0000000000000000000000000000000000000000000000000000000008152600401611feb90614aa5565b60405180910390fd5b60006004600581111561200a57612009614d86565b5b9050612027604051806020016040528060008152508483856139d5565b81600460006101000a81548173ffffffffffffffffffffffffffffffffffffffff021916908373ffffffffffffffffffffffffffffffffffffffff160217905550505050565b6005600260003373ffffffffffffffffffffffffffffffffffffffff1673ffffffffffffffffffffffffffffffffffffffff168152602001908152602001600020600001548160058111156120c5576120c4614d86565b5b14612105576040517f08c379a00000000000000000000000000000000000000000000000000000000081526004016120fc90614a65565b60405180910390fd5b683635c9adc5dea000003373ffffffffffffffffffffffffffffffffffffffff16311015612168576040517f08c379a000000000000000000000000000000000000000000000000000000000815260040161215f90614a45565b60405180910390fd5b8173ffffffffffffffffffffffffffffffffffffffff166108fc683635c9adc5dea000009081150290604051600060405180830381858888f193505050501580156121b7573d6000803e3d6000fd5b505050565b6000600160058111156121d2576121d1614d86565b5b90506121e0858583866139d5565b6008839080600181540180825580915050600190039060005260206000200160009091909190916101000a81548173ffffffffffffffffffffffffffffffffffffffff021916908373ffffffffffffffffffffffffffffffffffffffff160217905550600c60008373ffffffffffffffffffffffffffffffffffffffff1673ffffffffffffffffffffffffffffffffffffffff168152602001908152602001600020839080600181540180825580915050600190039060005260206000200160009091909190916101000a81548173ffffffffffffffffffffffffffffffffffffffff021916908373ffffffffffffffffffffffffffffffffffffffff1602179055505050505050565b606080600060606123d4600260003373ffffffffffffffffffffffffffffffffffffffff1673ffffffffffffffffffffffffffffffffffffffff168152602001908152602001600020600101805461234190614cab565b80601f016020809104026020016040519081016040528092919081815260200182805461236d90614cab565b80156123ba5780601f1061238f576101008083540402835291602001916123ba565b820191906000526020600020905b81548152906001019060200180831161239d57829003601f168201915b505050505060405180602001604052806000815250613cd8565b15612414576040517f08c379a000000000000000000000000000000000000000000000000000000000815260040161240b90614a85565b60405180910390fd5b6000600260003373ffffffffffffffffffffffffffffffffffffffff1673ffffffffffffffffffffffffffffffffffffffff1681526020019081526020016000206040518060800160405290816000820154815260200160018201805461247a90614cab565b80601f01602080910402602001604051908101604052809291908181526020018280546124a690614cab565b80156124f35780601f106124c8576101008083540402835291602001916124f3565b820191906000526020600020905b8154815290600101906020018083116124d657829003601f168201915b5050505050815260200160028201805461250c90614cab565b80601f016020809104026020016040519081016040528092919081815260200182805461253890614cab565b80156125855780601f1061255a57610100808354040283529160200191612585565b820191906000526020600020905b81548152906001019060200180831161256857829003601f168201915b5050505050815260200160038201805480602002602001604051908101604052809291908181526020016000905b8282101561265f5783829060005260206000200180546125d290614cab565b80601f01602080910402602001604051908101604052809291908181526020018280546125fe90614cab565b801561264b5780601f106126205761010080835404028352916020019161264b565b820191906000526020600020905b81548152906001019060200180831161262e57829003601f168201915b5050505050815260200190600101906125b3565b5050505081525050905080602001519450806040015193503373ffffffffffffffffffffffffffffffffffffffff16319250806060015191505090919293565b60008060058111156126b4576126b3614d86565b5b90506126c2848483856139d5565b50505050565b6003600260003373ffffffffffffffffffffffffffffffffffffffff1673ffffffffffffffffffffffffffffffffffffffff168152602001908152602001600020600001548160058111156127205761271f614d86565b5b14612760576040517f08c379a000000000000000000000000000000000000000000000000000000000815260040161275790614a65565b60405180910390fd5b60006003600581111561277657612775614d86565b5b9050612784848483886139d5565b6006839080600181540180825580915050600190039060005260206000200160009091909190915090805190602001906127bf929190613d31565b505050505050565b6000600260003373ffffffffffffffffffffffffffffffffffffffff1673ffffffffffffffffffffffffffffffffffffffff1681526020019081526020016000206000015481600581111561281f5761281e614d86565b5b1461285f576040517f08c379a000000000000000000000000000000000000000000000000000000000815260040161285690614a65565b60405180910390fd5b600060405180608001604052803373ffffffffffffffffffffffffffffffffffffffff1681526020016000600581111561289c5761289b614d86565b5b8152602001600160058111156128b5576128b4614d86565b5b815260200160001515815250905080600f846040516128d491906147be565b908152602001604051809103902060008201518160000160006101000a81548173ffffffffffffffffffffffffffffffffffffffff021916908373ffffffffffffffffffffffffffffffffffffffff160217905550602082015181600101556040820151816002015560608201518160030160006101000a81548160ff02191690831515021790555090505060098390806001815401808255809150506001900390600052602060002001600090919091909150908051906020019061299b929190613d31565b50505050565b6001600260003373ffffffffffffffffffffffffffffffffffffffff1673ffffffffffffffffffffffffffffffffffffffff168152602001908152602001600020600001548160058111156129f9576129f8614d86565b5b14612a39576040517f08c379a0000000000000000000000000000000000000000000000000000000008152600401612a3090614a65565b60405180910390fd5b600060405180608001604052803373ffffffffffffffffffffffffffffffffffffffff16815260200160016005811115612a7657612a75614d86565b5b815260200160006005811115612a8f57612a8e614d86565b5b815260200160001515815250905080600f84604051612aae91906147be565b908152602001604051809103902060008201518160000160006101000a81548173ffffffffffffffffffffffffffffffffffffffff021916908373ffffffffffffffffffffffffffffffffffffffff160217905550602082015181600101556040820151816002015560608201518160030160006101000a81548160ff021916908315150217905550905050600983908060018154018082558091505060019003906000526020600020016000909190919091509080519060200190612b75929190613d31565b50505050565b612c5e600260003373ffffffffffffffffffffffffffffffffffffffff1673ffffffffffffffffffffffffffffffffffffffff1681526020019081526020016000206001018054612bcb90614cab565b80601f0160208091040260200160405190810160405280929190818152602001828054612bf790614cab565b8015612c445780601f10612c1957610100808354040283529160200191612c44565b820191906000526020600020905b815481529060010190602001808311612c2757829003601f168201915b505050505060405180602001604052806000815250613cd8565b15612c9e576040517f08c379a0000000000000000000000000000000000000000000000000000000008152600401612c9590614a85565b60405180910390fd5b60001515601082604051612cb291906147be565b908152602001604051809103902060003373ffffffffffffffffffffffffffffffffffffffff1673ffffffffffffffffffffffffffffffffffffffff16815260200190815260200160002060009054906101000a900460ff16151514612d4d576040517f08c379a0000000000000000000000000000000000000000000000000000000008152600401612d4490614a05565b60405180910390fd5b600e81604051612d5d91906147be565b9081526020016040518091039020600401339080600181540180825580915050600190039060005260206000200160009091909190916101000a81548173ffffffffffffffffffffffffffffffffffffffff021916908373ffffffffffffffffffffffffffffffffffffffff1602179055506001601082604051612de191906147be565b908152602001604051809103902060003373ffffffffffffffffffffffffffffffffffffffff1673ffffffffffffffffffffffffffffffffffffffff16815260200190815260200160002060006101000a81548160ff02191690831515021790555050565b6060806060806003600260003373ffffffffffffffffffffffffffffffffffffffff1673ffffffffffffffffffffffffffffffffffffffff16815260200190815260200160002060000154816005811115612ea457612ea3614d86565b5b14612ee4576040517f08c379a0000000000000000000000000000000000000000000000000000000008152600401612edb90614a65565b60405180910390fd5b6000600260003373ffffffffffffffffffffffffffffffffffffffff1673ffffffffffffffffffffffffffffffffffffffff16815260200190815260200160002060405180608001604052908160008201548152602001600182018054612f4a90614cab565b80601f0160208091040260200160405190810160405280929190818152602001828054612f7690614cab565b8015612fc35780601f10612f9857610100808354040283529160200191612fc3565b820191906000526020600020905b815481529060010190602001808311612fa657829003601f168201915b50505050508152602001600282018054612fdc90614cab565b80601f016020809104026020016040519081016040528092919081815260200182805461300890614cab565b80156130555780601f1061302a57610100808354040283529160200191613055565b820191906000526020600020905b81548152906001019060200180831161303857829003601f168201915b5050505050815260200160038201805480602002602001604051908101604052809291908181526020016000905b8282101561312f5783829060005260206000200180546130a290614cab565b80601f01602080910402602001604051908101604052809291908181526020018280546130ce90614cab565b801561311b5780601f106130f05761010080835404028352916020019161311b565b820191906000526020600020905b8154815290600101906020018083116130fe57829003601f168201915b505050505081526020019060010190613083565b50505050815250509050806020015195506009805480602002602001604051908101604052809291908181526020016000905b8282101561320e57838290600052602060002001805461318190614cab565b80601f01602080910402602001604051908101604052809291908181526020018280546131ad90614cab565b80156131fa5780601f106131cf576101008083540402835291602001916131fa565b820191906000526020600020905b8154815290600101906020018083116131dd57829003601f168201915b505050505081526020019060010190613162565b5050505094506006805480602002602001604051908101604052809291908181526020016000905b828210156132e257838290600052602060002001805461325590614cab565b80601f016020809104026020016040519081016040528092919081815260200182805461328190614cab565b80156132ce5780601f106132a3576101008083540402835291602001916132ce565b820191906000526020600020905b8154815290600101906020018083116132b157829003601f168201915b505050505081526020019060010190613236565b505050509350600880548060200260200160405190810160405280929190818152602001828054801561336a57602002820191906000526020600020905b8160009054906101000a900473ffffffffffffffffffffffffffffffffffffffff1673ffffffffffffffffffffffffffffffffffffffff1681526020019060010190808311613320575b50505050509250505090919293565b60006060806000600f8560405161339091906147be565b90815260200160405180910390206040518060800160405290816000820160009054906101000a900473ffffffffffffffffffffffffffffffffffffffff1673ffffffffffffffffffffffffffffffffffffffff1673ffffffffffffffffffffffffffffffffffffffff16815260200160018201548152602001600282015481526020016003820160009054906101000a900460ff16151515158152505090508060000151935060008082602001518152602001908152602001600020805461345890614cab565b80601f016020809104026020016040519081016040528092919081815260200182805461348490614cab565b80156134d15780601f106134a6576101008083540402835291602001916134d1565b820191906000526020600020905b8154815290600101906020018083116134b457829003601f168201915b505050505092506000808260400151815260200190815260200160002080546134f990614cab565b80601f016020809104026020016040519081016040528092919081815260200182805461352590614cab565b80156135725780601f1061354757610100808354040283529160200191613572565b820191906000526020600020905b81548152906001019060200180831161355557829003601f168201915b50505050509150509193909250565b6003600260003373ffffffffffffffffffffffffffffffffffffffff1673ffffffffffffffffffffffffffffffffffffffff168152602001908152602001600020600001548160058111156135d9576135d8614d86565b5b14613619576040517f08c379a000000000000000000000000000000000000000000000000000000000815260040161361090614a65565b60405180910390fd5b6000600c60008473ffffffffffffffffffffffffffffffffffffffff1673ffffffffffffffffffffffffffffffffffffffff1681526020019081526020016000208054806020026020016040519081016040528092919081815260200182805480156136da57602002820191906000526020600020905b8160009054906101000a900473ffffffffffffffffffffffffffffffffffffffff1673ffffffffffffffffffffffffffffffffffffffff1681526020019060010190808311613690575b5050505050905060005b815181101561376857600082828151811061370257613701614de4565b5b602002602001015190506000600260008373ffffffffffffffffffffffffffffffffffffffff1673ffffffffffffffffffffffffffffffffffffffff1681526020019081526020016000206000018190555050808061376090614d0e565b9150506136e4565b50505050565b600560009054906101000a900473ffffffffffffffffffffffffffffffffffffffff1673ffffffffffffffffffffffffffffffffffffffff163373ffffffffffffffffffffffffffffffffffffffff16146137fe576040517f08c379a00000000000000000000000000000000000000000000000000000000081526004016137f590614aa5565b60405180910390fd5b60006003600581111561381457613813614d86565b5b9050613822838383336139d5565b60068290806001815401808255809150506001900390600052602060002001600090919091909150908051906020019061385d929190613d31565b50505050565b60606003600260003373ffffffffffffffffffffffffffffffffffffffff1673ffffffffffffffffffffffffffffffffffffffff168152602001908152602001600020600001548160058111156138bd576138bc614d86565b5b146138fd576040517f08c379a00000000000000000000000000000000000000000000000000000000081526004016138f490614a65565b60405180910390fd5b6009805480602002602001604051908101604052809291908181526020016000905b828210156139cb57838290600052602060002001805461393e90614cab565b80601f016020809104026020016040519081016040528092919081815260200182805461396a90614cab565b80156139b75780601f1061398c576101008083540402835291602001916139b7565b820191906000526020600020905b81548152906001019060200180831161399a57829003601f168201915b50505050508152602001906001019061391f565b5050505091505090565b8083613aba600260008473ffffffffffffffffffffffffffffffffffffffff1673ffffffffffffffffffffffffffffffffffffffff1681526020019081526020016000206002018054613a2790614cab565b80601f0160208091040260200160405190810160405280929190818152602001828054613a5390614cab565b8015613aa05780601f10613a7557610100808354040283529160200191613aa0565b820191906000526020600020905b815481529060010190602001808311613a8357829003601f168201915b505050505060405180602001604052806000815250613cd8565b613af9576040517f08c379a0000000000000000000000000000000000000000000000000000000008152600401613af090614ac5565b60405180910390fd5b600073ffffffffffffffffffffffffffffffffffffffff16600182604051613b2191906147be565b908152602001604051809103902060009054906101000a900473ffffffffffffffffffffffffffffffffffffffff1673ffffffffffffffffffffffffffffffffffffffff1614613ba6576040517f08c379a0000000000000000000000000000000000000000000000000000000008152600401613b9d90614a25565b60405180910390fd5b60606000604051806080016040528087815260200188815260200189815260200183815250905084600188604051613bde91906147be565b908152602001604051809103902060006101000a81548173ffffffffffffffffffffffffffffffffffffffff021916908373ffffffffffffffffffffffffffffffffffffffff16021790555080600260008773ffffffffffffffffffffffffffffffffffffffff1673ffffffffffffffffffffffffffffffffffffffff168152602001908152602001600020600082015181600001556020820151816001019080519060200190613c90929190613d31565b506040820151816002019080519060200190613cad929190613d31565b506060820151816003019080519060200190613cca929190613e41565b509050505050505050505050565b600081604051602001613ceb91906147be565b6040516020818303038152906040528051906020012083604051602001613d1291906147be565b6040516020818303038152906040528051906020012014905092915050565b828054613d3d90614cab565b90600052602060002090601f016020900481019282613d5f5760008555613da6565b82601f10613d7857805160ff1916838001178555613da6565b82800160010185558215613da6579182015b82811115613da5578251825591602001919060010190613d8a565b5b509050613db39190613ea1565b5090565b828054828255906000526020600020908101928215613e30579160200282015b82811115613e2f5782518260006101000a81548173ffffffffffffffffffffffffffffffffffffffff021916908373ffffffffffffffffffffffffffffffffffffffff16021790555091602001919060010190613dd7565b5b509050613e3d9190613ea1565b5090565b828054828255906000526020600020908101928215613e90579160200282015b82811115613e8f578251829080519060200190613e7f929190613d31565b5091602001919060010190613e61565b5b509050613e9d9190613ebe565b5090565b5b80821115613eba576000816000905550600101613ea2565b5090565b5b80821115613ede5760008181613ed59190613ee2565b50600101613ebf565b5090565b508054613eee90614cab565b6000825580601f10613f005750613f1f565b601f016020900490600052602060002090810190613f1e9190613ea1565b5b50565b6000613f35613f3084614b2a565b614b05565b905082815260208101848484011115613f5157613f50614e47565b5b613f5c848285614c69565b509392505050565b600081359050613f7381614fd5565b92915050565b600081359050613f8881614fec565b92915050565b600081359050613f9d81615003565b92915050565b600081359050613fb28161501a565b92915050565b600082601f830112613fcd57613fcc614e42565b5b8135613fdd848260208601613f22565b91505092915050565b600060208284031215613ffc57613ffb614e51565b5b600061400a84828501613f64565b91505092915050565b60006020828403121561402957614028614e51565b5b600061403784828501613f79565b91505092915050565b60008060006060848603121561405957614058614e51565b5b600061406786828701613f64565b935050602084013567ffffffffffffffff81111561408857614087614e4c565b5b61409486828701613fb8565b925050604084013567ffffffffffffffff8111156140b5576140b4614e4c565b5b6140c186828701613fb8565b9150509250925092565b600080600080608085870312156140e5576140e4614e51565b5b60006140f387828801613f64565b945050602085013567ffffffffffffffff81111561411457614113614e4c565b5b61412087828801613fb8565b935050604085013567ffffffffffffffff81111561414157614140614e4c565b5b61414d87828801613fb8565b925050606061415e87828801613fa3565b91505092959194509250565b6000806000806080858703121561418457614183614e51565b5b600061419287828801613f64565b945050602085013567ffffffffffffffff8111156141b3576141b2614e4c565b5b6141bf87828801613fb8565b935050604085013567ffffffffffffffff8111156141e0576141df614e4c565b5b6141ec87828801613fb8565b925050606085013567ffffffffffffffff81111561420d5761420c614e4c565b5b61421987828801613fb8565b91505092959194509250565b60006020828403121561423b5761423a614e51565b5b600082013567ffffffffffffffff81111561425957614258614e4c565b5b61426584828501613fb8565b91505092915050565b6000806040838503121561428557614284614e51565b5b600083013567ffffffffffffffff8111156142a3576142a2614e4c565b5b6142af85828601613fb8565b92505060206142c085828601613f64565b9150509250929050565b600080604083850312156142e1576142e0614e51565b5b600083013567ffffffffffffffff8111156142ff576142fe614e4c565b5b61430b85828601613fb8565b925050602061431c85828601613f8e565b9150509250929050565b6000806040838503121561433d5761433c614e51565b5b600083013567ffffffffffffffff81111561435b5761435a614e4c565b5b61436785828601613fb8565b925050602083013567ffffffffffffffff81111561438857614387614e4c565b5b61439485828601613fb8565b9150509250929050565b6000806000606084860312156143b7576143b6614e51565b5b600084013567ffffffffffffffff8111156143d5576143d4614e4c565b5b6143e186828701613fb8565b935050602084013567ffffffffffffffff81111561440257614401614e4c565b5b61440e86828701613fb8565b925050604061441f86828701613f64565b9150509250925092565b6000806000806080858703121561444357614442614e51565b5b600085013567ffffffffffffffff81111561446157614460614e4c565b5b61446d87828801613fb8565b945050602085013567ffffffffffffffff81111561448e5761448d614e4c565b5b61449a87828801613fb8565b93505060406144ab87828801613f64565b92505060606144bc87828801613f64565b91505092959194509250565b60006144d483836144f4565b60208301905092915050565b60006144ec83836145f4565b905092915050565b6144fd81614c05565b82525050565b61450c81614c05565b82525050565b600061451d82614b7b565b6145278185614bb6565b935061453283614b5b565b8060005b8381101561456357815161454a88826144c8565b975061455583614b9c565b925050600181019050614536565b5085935050505092915050565b600061457b82614b86565b6145858185614bc7565b93508360208202850161459785614b6b565b8060005b858110156145d357848403895281516145b485826144e0565b94506145bf83614ba9565b925060208a0199505060018101905061459b565b50829750879550505050505092915050565b6145ee81614c35565b82525050565b60006145ff82614b91565b6146098185614bd8565b9350614619818560208601614c78565b61462281614e56565b840191505092915050565b600061463882614b91565b6146428185614be9565b9350614652818560208601614c78565b61465b81614e56565b840191505092915050565b600061467182614b91565b61467b8185614bfa565b935061468b818560208601614c78565b80840191505092915050565b60006146a4601b83614be9565b91506146af82614e67565b602082019050919050565b60006146c7602283614be9565b91506146d282614e90565b604082019050919050565b60006146ea600b83614be9565b91506146f582614edf565b602082019050919050565b600061470d600983614be9565b915061471882614f08565b602082019050919050565b6000614730600c83614be9565b915061473b82614f31565b602082019050919050565b6000614753600d83614be9565b915061475e82614f5a565b602082019050919050565b6000614776601683614be9565b915061478182614f83565b602082019050919050565b6000614799600b83614be9565b91506147a482614fac565b602082019050919050565b6147b881614c5f565b82525050565b60006147ca8284614666565b915081905092915050565b600060c0820190506147ea6000830189614503565b6147f76020830188614503565b8181036040830152614809818761462d565b905061481860608301866147af565b61482560808301856147af565b61483260a08301846145e5565b979650505050505050565b60006040820190506148526000830185614503565b8181036020830152614864818461462d565b90509392505050565b60006060820190506148826000830186614503565b8181036020830152614894818561462d565b905081810360408301526148a8818461462d565b9050949350505050565b600060208201905081810360008301526148cc8184614570565b905092915050565b600060808201905081810360008301526148ee818761462d565b905081810360208301526149028186614570565b905081810360408301526149168185614570565b9050818103606083015261492a8184614512565b905095945050505050565b600060a082019050818103600083015261494f818861462d565b90508181036020830152614963818761462d565b90508181036040830152614977818661462d565b9050818103606083015261498b818561462d565b9050818103608083015261499f8184614570565b90509695505050505050565b600060808201905081810360008301526149c5818761462d565b905081810360208301526149d9818661462d565b90506149e860408301856147af565b81810360608301526149fa8184614570565b905095945050505050565b60006020820190508181036000830152614a1e81614697565b9050919050565b60006020820190508181036000830152614a3e816146ba565b9050919050565b60006020820190508181036000830152614a5e816146dd565b9050919050565b60006020820190508181036000830152614a7e81614700565b9050919050565b60006020820190508181036000830152614a9e81614723565b9050919050565b60006020820190508181036000830152614abe81614746565b9050919050565b60006020820190508181036000830152614ade81614769565b9050919050565b60006020820190508181036000830152614afe8161478c565b9050919050565b6000614b0f614b20565b9050614b1b8282614cdd565b919050565b6000604051905090565b600067ffffffffffffffff821115614b4557614b44614e13565b5b614b4e82614e56565b9050602081019050919050565b6000819050602082019050919050565b6000819050602082019050919050565b600081519050919050565b600081519050919050565b600081519050919050565b6000602082019050919050565b6000602082019050919050565b600082825260208201905092915050565b600082825260208201905092915050565b600082825260208201905092915050565b600082825260208201905092915050565b600081905092915050565b6000614c1082614c3f565b9050919050565b6000614c2282614c3f565b9050919050565b60008115159050919050565b6000819050919050565b600073ffffffffffffffffffffffffffffffffffffffff82169050919050565b6000819050919050565b82818337600083830152505050565b60005b83811015614c96578082015181840152602081019050614c7b565b83811115614ca5576000848401525b50505050565b60006002820490506001821680614cc357607f821691505b60208210811415614cd757614cd6614db5565b5b50919050565b614ce682614e56565b810181811067ffffffffffffffff82111715614d0557614d04614e13565b5b80604052505050565b6000614d1982614c5f565b91507fffffffffffffffffffffffffffffffffffffffffffffffffffffffffffffffff821415614d4c57614d4b614d57565b5b600182019050919050565b7f4e487b7100000000000000000000000000000000000000000000000000000000600052601160045260246000fd5b7f4e487b7100000000000000000000000000000000000000000000000000000000600052602160045260246000fd5b7f4e487b7100000000000000000000000000000000000000000000000000000000600052602260045260246000fd5b7f4e487b7100000000000000000000000000000000000000000000000000000000600052603260045260246000fd5b7f4e487b7100000000000000000000000000000000000000000000000000000000600052604160045260246000fd5b600080fd5b600080fd5b600080fd5b600080fd5b6000601f19601f8301169050919050565b7f596f7520616c726561647920636865636b207468697320636173650000000000600082015250565b7f596f7572206c6f67696e20616c726561647920657869737420696e207379737460008201527f656d000000000000000000000000000000000000000000000000000000000000602082015250565b7f4c6f772062616c616e6365000000000000000000000000000000000000000000600082015250565b7f466f7262696464656e0000000000000000000000000000000000000000000000600082015250565b7f596f75206e6f7420757365720000000000000000000000000000000000000000600082015250565b7f596f75206e6f742061646d696e00000000000000000000000000000000000000600082015250565b7f596f7520616c7265616479207265676973746572656400000000000000000000600082015250565b7f57726f6e67204c6f67696e000000000000000000000000000000000000000000600082015250565b614fde81614c05565b8114614fe957600080fd5b50565b614ff581614c17565b811461500057600080fd5b50565b61500c81614c29565b811461501757600080fd5b50565b61502381614c35565b811461502e57600080fd5b5056fea2646970667358221220d98db9f77314ec510f0d829870a143acc44184fecbf94cb90c9f37e2349bac9564736f6c63430008070033",
					"opcodes": "PUSH1 0x80 PUSH1 0x40 MSTORE CALLVALUE DUP1 ISZERO PUSH3 0x11 JUMPI PUSH1 0x0 DUP1 REVERT JUMPDEST POP PUSH1 0x40 MLOAD DUP1 PUSH1 0x40 ADD PUSH1 0x40 MSTORE DUP1 PUSH1 0x5 DUP2 MSTORE PUSH1 0x20 ADD PUSH32 0x6275796572000000000000000000000000000000000000000000000000000000 DUP2 MSTORE POP PUSH1 0x0 DUP1 DUP1 DUP2 MSTORE PUSH1 0x20 ADD SWAP1 DUP2 MSTORE PUSH1 0x20 ADD PUSH1 0x0 KECCAK256 SWAP1 DUP1 MLOAD SWAP1 PUSH1 0x20 ADD SWAP1 PUSH3 0x6F SWAP3 SWAP2 SWAP1 PUSH3 0x292 JUMP JUMPDEST POP PUSH1 0x40 MLOAD DUP1 PUSH1 0x40 ADD PUSH1 0x40 MSTORE DUP1 PUSH1 0x6 DUP2 MSTORE PUSH1 0x20 ADD PUSH32 0x73656C6C65720000000000000000000000000000000000000000000000000000 DUP2 MSTORE POP PUSH1 0x0 DUP1 PUSH1 0x1 DUP2 MSTORE PUSH1 0x20 ADD SWAP1 DUP2 MSTORE PUSH1 0x20 ADD PUSH1 0x0 KECCAK256 SWAP1 DUP1 MLOAD SWAP1 PUSH1 0x20 ADD SWAP1 PUSH3 0xCE SWAP3 SWAP2 SWAP1 PUSH3 0x292 JUMP JUMPDEST POP PUSH1 0x40 MLOAD DUP1 PUSH1 0x40 ADD PUSH1 0x40 MSTORE DUP1 PUSH1 0x4 DUP2 MSTORE PUSH1 0x20 ADD PUSH32 0x73686F7000000000000000000000000000000000000000000000000000000000 DUP2 MSTORE POP PUSH1 0x0 DUP1 PUSH1 0x2 DUP2 MSTORE PUSH1 0x20 ADD SWAP1 DUP2 MSTORE PUSH1 0x20 ADD PUSH1 0x0 KECCAK256 SWAP1 DUP1 MLOAD SWAP1 PUSH1 0x20 ADD SWAP1 PUSH3 0x12D SWAP3 SWAP2 SWAP1 PUSH3 0x292 JUMP JUMPDEST POP PUSH1 0x40 MLOAD DUP1 PUSH1 0x40 ADD PUSH1 0x40 MSTORE DUP1 PUSH1 0x5 DUP2 MSTORE PUSH1 0x20 ADD PUSH32 0x61646D696E000000000000000000000000000000000000000000000000000000 DUP2 MSTORE POP PUSH1 0x0 DUP1 PUSH1 0x3 DUP2 MSTORE PUSH1 0x20 ADD SWAP1 DUP2 MSTORE PUSH1 0x20 ADD PUSH1 0x0 KECCAK256 SWAP1 DUP1 MLOAD SWAP1 PUSH1 0x20 ADD SWAP1 PUSH3 0x18C SWAP3 SWAP2 SWAP1 PUSH3 0x292 JUMP JUMPDEST POP PUSH1 0x40 MLOAD DUP1 PUSH1 0x40 ADD PUSH1 0x40 MSTORE DUP1 PUSH1 0x8 DUP2 MSTORE PUSH1 0x20 ADD PUSH32 0x70726F7669646572000000000000000000000000000000000000000000000000 DUP2 MSTORE POP PUSH1 0x0 DUP1 PUSH1 0x4 DUP2 MSTORE PUSH1 0x20 ADD SWAP1 DUP2 MSTORE PUSH1 0x20 ADD PUSH1 0x0 KECCAK256 SWAP1 DUP1 MLOAD SWAP1 PUSH1 0x20 ADD SWAP1 PUSH3 0x1EB SWAP3 SWAP2 SWAP1 PUSH3 0x292 JUMP JUMPDEST POP PUSH1 0x40 MLOAD DUP1 PUSH1 0x40 ADD PUSH1 0x40 MSTORE DUP1 PUSH1 0x4 DUP2 MSTORE PUSH1 0x20 ADD PUSH32 0x62616E6B00000000000000000000000000000000000000000000000000000000 DUP2 MSTORE POP PUSH1 0x0 DUP1 PUSH1 0x5 DUP2 MSTORE PUSH1 0x20 ADD SWAP1 DUP2 MSTORE PUSH1 0x20 ADD PUSH1 0x0 KECCAK256 SWAP1 DUP1 MLOAD SWAP1 PUSH1 0x20 ADD SWAP1 PUSH3 0x24A SWAP3 SWAP2 SWAP1 PUSH3 0x292 JUMP JUMPDEST POP CALLER PUSH1 0x5 PUSH1 0x0 PUSH2 0x100 EXP DUP2 SLOAD DUP2 PUSH20 0xFFFFFFFFFFFFFFFFFFFFFFFFFFFFFFFFFFFFFFFF MUL NOT AND SWAP1 DUP4 PUSH20 0xFFFFFFFFFFFFFFFFFFFFFFFFFFFFFFFFFFFFFFFF AND MUL OR SWAP1 SSTORE POP PUSH3 0x3A7 JUMP JUMPDEST DUP3 DUP1 SLOAD PUSH3 0x2A0 SWAP1 PUSH3 0x342 JUMP JUMPDEST SWAP1 PUSH1 0x0 MSTORE PUSH1 0x20 PUSH1 0x0 KECCAK256 SWAP1 PUSH1 0x1F ADD PUSH1 0x20 SWAP1 DIV DUP2 ADD SWAP3 DUP3 PUSH3 0x2C4 JUMPI PUSH1 0x0 DUP6 SSTORE PUSH3 0x310 JUMP JUMPDEST DUP3 PUSH1 0x1F LT PUSH3 0x2DF JUMPI DUP1 MLOAD PUSH1 0xFF NOT AND DUP4 DUP1 ADD OR DUP6 SSTORE PUSH3 0x310 JUMP JUMPDEST DUP3 DUP1 ADD PUSH1 0x1 ADD DUP6 SSTORE DUP3 ISZERO PUSH3 0x310 JUMPI SWAP2 DUP3 ADD JUMPDEST DUP3 DUP2 GT ISZERO PUSH3 0x30F JUMPI DUP3 MLOAD DUP3 SSTORE SWAP2 PUSH1 0x20 ADD SWAP2 SWAP1 PUSH1 0x1 ADD SWAP1 PUSH3 0x2F2 JUMP JUMPDEST JUMPDEST POP SWAP1 POP PUSH3 0x31F SWAP2 SWAP1 PUSH3 0x323 JUMP JUMPDEST POP SWAP1 JUMP JUMPDEST JUMPDEST DUP1 DUP3 GT ISZERO PUSH3 0x33E JUMPI PUSH1 0x0 DUP2 PUSH1 0x0 SWAP1 SSTORE POP PUSH1 0x1 ADD PUSH3 0x324 JUMP JUMPDEST POP SWAP1 JUMP JUMPDEST PUSH1 0x0 PUSH1 0x2 DUP3 DIV SWAP1 POP PUSH1 0x1 DUP3 AND DUP1 PUSH3 0x35B JUMPI PUSH1 0x7F DUP3 AND SWAP2 POP JUMPDEST PUSH1 0x20 DUP3 LT DUP2 EQ ISZERO PUSH3 0x372 JUMPI PUSH3 0x371 PUSH3 0x378 JUMP JUMPDEST JUMPDEST POP SWAP2 SWAP1 POP JUMP JUMPDEST PUSH32 0x4E487B7100000000000000000000000000000000000000000000000000000000 PUSH1 0x0 MSTORE PUSH1 0x22 PUSH1 0x4 MSTORE PUSH1 0x24 PUSH1 0x0 REVERT JUMPDEST PUSH2 0x5067 DUP1 PUSH3 0x3B7 PUSH1 0x0 CODECOPY PUSH1 0x0 RETURN INVALID PUSH1 0x80 PUSH1 0x40 MSTORE CALLVALUE DUP1 ISZERO PUSH2 0x10 JUMPI PUSH1 0x0 DUP1 REVERT JUMPDEST POP PUSH1 0x4 CALLDATASIZE LT PUSH2 0x14D JUMPI PUSH1 0x0 CALLDATALOAD PUSH1 0xE0 SHR DUP1 PUSH4 0x8403F848 GT PUSH2 0xC3 JUMPI DUP1 PUSH4 0xBCE62A74 GT PUSH2 0x7C JUMPI DUP1 PUSH4 0xBCE62A74 EQ PUSH2 0x37F JUMPI DUP1 PUSH4 0xC3D5FD39 EQ PUSH2 0x39B JUMPI DUP1 PUSH4 0xDFFC8B06 EQ PUSH2 0x3BC JUMPI DUP1 PUSH4 0xE7BFEA50 EQ PUSH2 0x3EE JUMPI DUP1 PUSH4 0xF8F98B79 EQ PUSH2 0x40A JUMPI DUP1 PUSH4 0xFB1A002A EQ PUSH2 0x426 JUMPI PUSH2 0x14D JUMP JUMPDEST DUP1 PUSH4 0x8403F848 EQ PUSH2 0x2D2 JUMPI DUP1 PUSH4 0x99B958EE EQ PUSH2 0x2EE JUMPI DUP1 PUSH4 0x9D344D10 EQ PUSH2 0x30F JUMPI DUP1 PUSH4 0xA59D105F EQ PUSH2 0x32B JUMPI DUP1 PUSH4 0xAC6FA7C3 EQ PUSH2 0x347 JUMPI DUP1 PUSH4 0xB038316C EQ PUSH2 0x363 JUMPI PUSH2 0x14D JUMP JUMPDEST DUP1 PUSH4 0x3A7D280C GT PUSH2 0x115 JUMPI DUP1 PUSH4 0x3A7D280C EQ PUSH2 0x20F JUMPI DUP1 PUSH4 0x54504C12 EQ PUSH2 0x240 JUMPI DUP1 PUSH4 0x7558B2F8 EQ PUSH2 0x262 JUMPI DUP1 PUSH4 0x7B3C7488 EQ PUSH2 0x27E JUMPI DUP1 PUSH4 0x7CCB2BD8 EQ PUSH2 0x29A JUMPI DUP1 PUSH4 0x83DB0F6D EQ PUSH2 0x2B6 JUMPI PUSH2 0x14D JUMP JUMPDEST DUP1 PUSH4 0x8E74858 EQ PUSH2 0x152 JUMPI DUP1 PUSH4 0x2059B7AD EQ PUSH2 0x186 JUMPI DUP1 PUSH4 0x2156A781 EQ PUSH2 0x1A2 JUMPI DUP1 PUSH4 0x2D6ABF59 EQ PUSH2 0x1BE JUMPI DUP1 PUSH4 0x2F0185C4 EQ PUSH2 0x1DA JUMPI JUMPDEST PUSH1 0x0 DUP1 REVERT JUMPDEST PUSH2 0x16C PUSH1 0x4 DUP1 CALLDATASIZE SUB DUP2 ADD SWAP1 PUSH2 0x167 SWAP2 SWAP1 PUSH2 0x3FE6 JUMP JUMPDEST PUSH2 0x444 JUMP JUMPDEST PUSH1 0x40 MLOAD PUSH2 0x17D SWAP6 SWAP5 SWAP4 SWAP3 SWAP2 SWAP1 PUSH2 0x4935 JUMP JUMPDEST PUSH1 0x40 MLOAD DUP1 SWAP2 SUB SWAP1 RETURN JUMPDEST PUSH2 0x1A0 PUSH1 0x4 DUP1 CALLDATASIZE SUB DUP2 ADD SWAP1 PUSH2 0x19B SWAP2 SWAP1 PUSH2 0x42CA JUMP JUMPDEST PUSH2 0x949 JUMP JUMPDEST STOP JUMPDEST PUSH2 0x1BC PUSH1 0x4 DUP1 CALLDATASIZE SUB DUP2 ADD SWAP1 PUSH2 0x1B7 SWAP2 SWAP1 PUSH2 0x426E JUMP JUMPDEST PUSH2 0xB2F JUMP JUMPDEST STOP JUMPDEST PUSH2 0x1D8 PUSH1 0x4 DUP1 CALLDATASIZE SUB DUP2 ADD SWAP1 PUSH2 0x1D3 SWAP2 SWAP1 PUSH2 0x40CB JUMP JUMPDEST PUSH2 0xBF6 JUMP JUMPDEST STOP JUMPDEST PUSH2 0x1F4 PUSH1 0x4 DUP1 CALLDATASIZE SUB DUP2 ADD SWAP1 PUSH2 0x1EF SWAP2 SWAP1 PUSH2 0x4225 JUMP JUMPDEST PUSH2 0xF88 JUMP JUMPDEST PUSH1 0x40 MLOAD PUSH2 0x206 SWAP7 SWAP6 SWAP5 SWAP4 SWAP3 SWAP2 SWAP1 PUSH2 0x47D5 JUMP JUMPDEST PUSH1 0x40 MLOAD DUP1 SWAP2 SUB SWAP1 RETURN JUMPDEST PUSH2 0x229 PUSH1 0x4 DUP1 CALLDATASIZE SUB DUP2 ADD SWAP1 PUSH2 0x224 SWAP2 SWAP1 PUSH2 0x4225 JUMP JUMPDEST PUSH2 0x1258 JUMP JUMPDEST PUSH1 0x40 MLOAD PUSH2 0x237 SWAP3 SWAP2 SWAP1 PUSH2 0x483D JUMP JUMPDEST PUSH1 0x40 MLOAD DUP1 SWAP2 SUB SWAP1 RETURN JUMPDEST PUSH2 0x248 PUSH2 0x164F JUMP JUMPDEST PUSH1 0x40 MLOAD PUSH2 0x259 SWAP6 SWAP5 SWAP4 SWAP3 SWAP2 SWAP1 PUSH2 0x4935 JUMP JUMPDEST PUSH1 0x40 MLOAD DUP1 SWAP2 SUB SWAP1 RETURN JUMPDEST PUSH2 0x27C PUSH1 0x4 DUP1 CALLDATASIZE SUB DUP2 ADD SWAP1 PUSH2 0x277 SWAP2 SWAP1 PUSH2 0x416A JUMP JUMPDEST PUSH2 0x1B52 JUMP JUMPDEST STOP JUMPDEST PUSH2 0x298 PUSH1 0x4 DUP1 CALLDATASIZE SUB DUP2 ADD SWAP1 PUSH2 0x293 SWAP2 SWAP1 PUSH2 0x4225 JUMP JUMPDEST PUSH2 0x1C99 JUMP JUMPDEST STOP JUMPDEST PUSH2 0x2B4 PUSH1 0x4 DUP1 CALLDATASIZE SUB DUP2 ADD SWAP1 PUSH2 0x2AF SWAP2 SWAP1 PUSH2 0x426E JUMP JUMPDEST PUSH2 0x1F64 JUMP JUMPDEST STOP JUMPDEST PUSH2 0x2D0 PUSH1 0x4 DUP1 CALLDATASIZE SUB DUP2 ADD SWAP1 PUSH2 0x2CB SWAP2 SWAP1 PUSH2 0x4013 JUMP JUMPDEST PUSH2 0x206D JUMP JUMPDEST STOP JUMPDEST PUSH2 0x2EC PUSH1 0x4 DUP1 CALLDATASIZE SUB DUP2 ADD SWAP1 PUSH2 0x2E7 SWAP2 SWAP1 PUSH2 0x4429 JUMP JUMPDEST PUSH2 0x21BC JUMP JUMPDEST STOP JUMPDEST PUSH2 0x2F6 PUSH2 0x22EA JUMP JUMPDEST PUSH1 0x40 MLOAD PUSH2 0x306 SWAP5 SWAP4 SWAP3 SWAP2 SWAP1 PUSH2 0x49AB JUMP JUMPDEST PUSH1 0x40 MLOAD DUP1 SWAP2 SUB SWAP1 RETURN JUMPDEST PUSH2 0x329 PUSH1 0x4 DUP1 CALLDATASIZE SUB DUP2 ADD SWAP1 PUSH2 0x324 SWAP2 SWAP1 PUSH2 0x439E JUMP JUMPDEST PUSH2 0x269F JUMP JUMPDEST STOP JUMPDEST PUSH2 0x345 PUSH1 0x4 DUP1 CALLDATASIZE SUB DUP2 ADD SWAP1 PUSH2 0x340 SWAP2 SWAP1 PUSH2 0x4040 JUMP JUMPDEST PUSH2 0x26C8 JUMP JUMPDEST STOP JUMPDEST PUSH2 0x361 PUSH1 0x4 DUP1 CALLDATASIZE SUB DUP2 ADD SWAP1 PUSH2 0x35C SWAP2 SWAP1 PUSH2 0x4225 JUMP JUMPDEST PUSH2 0x27C7 JUMP JUMPDEST STOP JUMPDEST PUSH2 0x37D PUSH1 0x4 DUP1 CALLDATASIZE SUB DUP2 ADD SWAP1 PUSH2 0x378 SWAP2 SWAP1 PUSH2 0x4225 JUMP JUMPDEST PUSH2 0x29A1 JUMP JUMPDEST STOP JUMPDEST PUSH2 0x399 PUSH1 0x4 DUP1 CALLDATASIZE SUB DUP2 ADD SWAP1 PUSH2 0x394 SWAP2 SWAP1 PUSH2 0x4225 JUMP JUMPDEST PUSH2 0x2B7B JUMP JUMPDEST STOP JUMPDEST PUSH2 0x3A3 PUSH2 0x2E46 JUMP JUMPDEST PUSH1 0x40 MLOAD PUSH2 0x3B3 SWAP5 SWAP4 SWAP3 SWAP2 SWAP1 PUSH2 0x48D4 JUMP JUMPDEST PUSH1 0x40 MLOAD DUP1 SWAP2 SUB SWAP1 RETURN JUMPDEST PUSH2 0x3D6 PUSH1 0x4 DUP1 CALLDATASIZE SUB DUP2 ADD SWAP1 PUSH2 0x3D1 SWAP2 SWAP1 PUSH2 0x4225 JUMP JUMPDEST PUSH2 0x3379 JUMP JUMPDEST PUSH1 0x40 MLOAD PUSH2 0x3E5 SWAP4 SWAP3 SWAP2 SWAP1 PUSH2 0x486D JUMP JUMPDEST PUSH1 0x40 MLOAD DUP1 SWAP2 SUB SWAP1 RETURN JUMPDEST PUSH2 0x408 PUSH1 0x4 DUP1 CALLDATASIZE SUB DUP2 ADD SWAP1 PUSH2 0x403 SWAP2 SWAP1 PUSH2 0x3FE6 JUMP JUMPDEST PUSH2 0x3581 JUMP JUMPDEST STOP JUMPDEST PUSH2 0x424 PUSH1 0x4 DUP1 CALLDATASIZE SUB DUP2 ADD SWAP1 PUSH2 0x41F SWAP2 SWAP1 PUSH2 0x4326 JUMP JUMPDEST PUSH2 0x376E JUMP JUMPDEST STOP JUMPDEST PUSH2 0x42E PUSH2 0x3863 JUMP JUMPDEST PUSH1 0x40 MLOAD PUSH2 0x43B SWAP2 SWAP1 PUSH2 0x48B2 JUMP JUMPDEST PUSH1 0x40 MLOAD DUP1 SWAP2 SUB SWAP1 RETURN JUMPDEST PUSH1 0x60 DUP1 PUSH1 0x60 DUP1 PUSH1 0x60 PUSH1 0x3 PUSH1 0x2 PUSH1 0x0 CALLER PUSH20 0xFFFFFFFFFFFFFFFFFFFFFFFFFFFFFFFFFFFFFFFF AND PUSH20 0xFFFFFFFFFFFFFFFFFFFFFFFFFFFFFFFFFFFFFFFF AND DUP2 MSTORE PUSH1 0x20 ADD SWAP1 DUP2 MSTORE PUSH1 0x20 ADD PUSH1 0x0 KECCAK256 PUSH1 0x0 ADD SLOAD DUP2 PUSH1 0x5 DUP2 GT ISZERO PUSH2 0x4A4 JUMPI PUSH2 0x4A3 PUSH2 0x4D86 JUMP JUMPDEST JUMPDEST EQ PUSH2 0x4E4 JUMPI PUSH1 0x40 MLOAD PUSH32 0x8C379A000000000000000000000000000000000000000000000000000000000 DUP2 MSTORE PUSH1 0x4 ADD PUSH2 0x4DB SWAP1 PUSH2 0x4A65 JUMP JUMPDEST PUSH1 0x40 MLOAD DUP1 SWAP2 SUB SWAP1 REVERT JUMPDEST PUSH1 0x0 PUSH1 0x2 PUSH1 0x0 DUP10 PUSH20 0xFFFFFFFFFFFFFFFFFFFFFFFFFFFFFFFFFFFFFFFF AND PUSH20 0xFFFFFFFFFFFFFFFFFFFFFFFFFFFFFFFFFFFFFFFF AND DUP2 MSTORE PUSH1 0x20 ADD SWAP1 DUP2 MSTORE PUSH1 0x20 ADD PUSH1 0x0 KECCAK256 PUSH1 0x40 MLOAD DUP1 PUSH1 0x80 ADD PUSH1 0x40 MSTORE SWAP1 DUP2 PUSH1 0x0 DUP3 ADD SLOAD DUP2 MSTORE PUSH1 0x20 ADD PUSH1 0x1 DUP3 ADD DUP1 SLOAD PUSH2 0x54A SWAP1 PUSH2 0x4CAB JUMP JUMPDEST DUP1 PUSH1 0x1F ADD PUSH1 0x20 DUP1 SWAP2 DIV MUL PUSH1 0x20 ADD PUSH1 0x40 MLOAD SWAP1 DUP2 ADD PUSH1 0x40 MSTORE DUP1 SWAP3 SWAP2 SWAP1 DUP2 DUP2 MSTORE PUSH1 0x20 ADD DUP3 DUP1 SLOAD PUSH2 0x576 SWAP1 PUSH2 0x4CAB JUMP JUMPDEST DUP1 ISZERO PUSH2 0x5C3 JUMPI DUP1 PUSH1 0x1F LT PUSH2 0x598 JUMPI PUSH2 0x100 DUP1 DUP4 SLOAD DIV MUL DUP4 MSTORE SWAP2 PUSH1 0x20 ADD SWAP2 PUSH2 0x5C3 JUMP JUMPDEST DUP3 ADD SWAP2 SWAP1 PUSH1 0x0 MSTORE PUSH1 0x20 PUSH1 0x0 KECCAK256 SWAP1 JUMPDEST DUP2 SLOAD DUP2 MSTORE SWAP1 PUSH1 0x1 ADD SWAP1 PUSH1 0x20 ADD DUP1 DUP4 GT PUSH2 0x5A6 JUMPI DUP3 SWAP1 SUB PUSH1 0x1F AND DUP3 ADD SWAP2 JUMPDEST POP POP POP POP POP DUP2 MSTORE PUSH1 0x20 ADD PUSH1 0x2 DUP3 ADD DUP1 SLOAD PUSH2 0x5DC SWAP1 PUSH2 0x4CAB JUMP JUMPDEST DUP1 PUSH1 0x1F ADD PUSH1 0x20 DUP1 SWAP2 DIV MUL PUSH1 0x20 ADD PUSH1 0x40 MLOAD SWAP1 DUP2 ADD PUSH1 0x40 MSTORE DUP1 SWAP3 SWAP2 SWAP1 DUP2 DUP2 MSTORE PUSH1 0x20 ADD DUP3 DUP1 SLOAD PUSH2 0x608 SWAP1 PUSH2 0x4CAB JUMP JUMPDEST DUP1 ISZERO PUSH2 0x655 JUMPI DUP1 PUSH1 0x1F LT PUSH2 0x62A JUMPI PUSH2 0x100 DUP1 DUP4 SLOAD DIV MUL DUP4 MSTORE SWAP2 PUSH1 0x20 ADD SWAP2 PUSH2 0x655 JUMP JUMPDEST DUP3 ADD SWAP2 SWAP1 PUSH1 0x0 MSTORE PUSH1 0x20 PUSH1 0x0 KECCAK256 SWAP1 JUMPDEST DUP2 SLOAD DUP2 MSTORE SWAP1 PUSH1 0x1 ADD SWAP1 PUSH1 0x20 ADD DUP1 DUP4 GT PUSH2 0x638 JUMPI DUP3 SWAP1 SUB PUSH1 0x1F AND DUP3 ADD SWAP2 JUMPDEST POP POP POP POP POP DUP2 MSTORE PUSH1 0x20 ADD PUSH1 0x3 DUP3 ADD DUP1 SLOAD DUP1 PUSH1 0x20 MUL PUSH1 0x20 ADD PUSH1 0x40 MLOAD SWAP1 DUP2 ADD PUSH1 0x40 MSTORE DUP1 SWAP3 SWAP2 SWAP1 DUP2 DUP2 MSTORE PUSH1 0x20 ADD PUSH1 0x0 SWAP1 JUMPDEST DUP3 DUP3 LT ISZERO PUSH2 0x72F JUMPI DUP4 DUP3 SWAP1 PUSH1 0x0 MSTORE PUSH1 0x20 PUSH1 0x0 KECCAK256 ADD DUP1 SLOAD PUSH2 0x6A2 SWAP1 PUSH2 0x4CAB JUMP JUMPDEST DUP1 PUSH1 0x1F ADD PUSH1 0x20 DUP1 SWAP2 DIV MUL PUSH1 0x20 ADD PUSH1 0x40 MLOAD SWAP1 DUP2 ADD PUSH1 0x40 MSTORE DUP1 SWAP3 SWAP2 SWAP1 DUP2 DUP2 MSTORE PUSH1 0x20 ADD DUP3 DUP1 SLOAD PUSH2 0x6CE SWAP1 PUSH2 0x4CAB JUMP JUMPDEST DUP1 ISZERO PUSH2 0x71B JUMPI DUP1 PUSH1 0x1F LT PUSH2 0x6F0 JUMPI PUSH2 0x100 DUP1 DUP4 SLOAD DIV MUL DUP4 MSTORE SWAP2 PUSH1 0x20 ADD SWAP2 PUSH2 0x71B JUMP JUMPDEST DUP3 ADD SWAP2 SWAP1 PUSH1 0x0 MSTORE PUSH1 0x20 PUSH1 0x0 KECCAK256 SWAP1 JUMPDEST DUP2 SLOAD DUP2 MSTORE SWAP1 PUSH1 0x1 ADD SWAP1 PUSH1 0x20 ADD DUP1 DUP4 GT PUSH2 0x6FE JUMPI DUP3 SWAP1 SUB PUSH1 0x1F AND DUP3 ADD SWAP2 JUMPDEST POP POP POP POP POP DUP2 MSTORE PUSH1 0x20 ADD SWAP1 PUSH1 0x1 ADD SWAP1 PUSH2 0x683 JUMP JUMPDEST POP POP POP POP DUP2 MSTORE POP POP SWAP1 POP PUSH1 0x0 PUSH1 0xB PUSH1 0x0 DUP11 PUSH20 0xFFFFFFFFFFFFFFFFFFFFFFFFFFFFFFFFFFFFFFFF AND PUSH20 0xFFFFFFFFFFFFFFFFFFFFFFFFFFFFFFFFFFFFFFFF AND DUP2 MSTORE PUSH1 0x20 ADD SWAP1 DUP2 MSTORE PUSH1 0x20 ADD PUSH1 0x0 KECCAK256 PUSH1 0x0 SWAP1 SLOAD SWAP1 PUSH2 0x100 EXP SWAP1 DIV PUSH20 0xFFFFFFFFFFFFFFFFFFFFFFFFFFFFFFFFFFFFFFFF AND SWAP1 POP PUSH1 0x0 PUSH1 0xA PUSH1 0x0 DUP4 PUSH20 0xFFFFFFFFFFFFFFFFFFFFFFFFFFFFFFFFFFFFFFFF AND PUSH20 0xFFFFFFFFFFFFFFFFFFFFFFFFFFFFFFFFFFFFFFFF AND DUP2 MSTORE PUSH1 0x20 ADD SWAP1 DUP2 MSTORE PUSH1 0x20 ADD PUSH1 0x0 KECCAK256 PUSH1 0x40 MLOAD DUP1 PUSH1 0x60 ADD PUSH1 0x40 MSTORE SWAP1 DUP2 PUSH1 0x0 DUP3 ADD DUP1 SLOAD PUSH2 0x7F9 SWAP1 PUSH2 0x4CAB JUMP JUMPDEST DUP1 PUSH1 0x1F ADD PUSH1 0x20 DUP1 SWAP2 DIV MUL PUSH1 0x20 ADD PUSH1 0x40 MLOAD SWAP1 DUP2 ADD PUSH1 0x40 MSTORE DUP1 SWAP3 SWAP2 SWAP1 DUP2 DUP2 MSTORE PUSH1 0x20 ADD DUP3 DUP1 SLOAD PUSH2 0x825 SWAP1 PUSH2 0x4CAB JUMP JUMPDEST DUP1 ISZERO PUSH2 0x872 JUMPI DUP1 PUSH1 0x1F LT PUSH2 0x847 JUMPI PUSH2 0x100 DUP1 DUP4 SLOAD DIV MUL DUP4 MSTORE SWAP2 PUSH1 0x20 ADD SWAP2 PUSH2 0x872 JUMP JUMPDEST DUP3 ADD SWAP2 SWAP1 PUSH1 0x0 MSTORE PUSH1 0x20 PUSH1 0x0 KECCAK256 SWAP1 JUMPDEST DUP2 SLOAD DUP2 MSTORE SWAP1 PUSH1 0x1 ADD SWAP1 PUSH1 0x20 ADD DUP1 DUP4 GT PUSH2 0x855 JUMPI DUP3 SWAP1 SUB PUSH1 0x1F AND DUP3 ADD SWAP2 JUMPDEST POP POP POP POP POP DUP2 MSTORE PUSH1 0x20 ADD PUSH1 0x1 DUP3 ADD DUP1 SLOAD PUSH2 0x88B SWAP1 PUSH2 0x4CAB JUMP JUMPDEST DUP1 PUSH1 0x1F ADD PUSH1 0x20 DUP1 SWAP2 DIV MUL PUSH1 0x20 ADD PUSH1 0x40 MLOAD SWAP1 DUP2 ADD PUSH1 0x40 MSTORE DUP1 SWAP3 SWAP2 SWAP1 DUP2 DUP2 MSTORE PUSH1 0x20 ADD DUP3 DUP1 SLOAD PUSH2 0x8B7 SWAP1 PUSH2 0x4CAB JUMP JUMPDEST DUP1 ISZERO PUSH2 0x904 JUMPI DUP1 PUSH1 0x1F LT PUSH2 0x8D9 JUMPI PUSH2 0x100 DUP1 DUP4 SLOAD DIV MUL DUP4 MSTORE SWAP2 PUSH1 0x20 ADD SWAP2 PUSH2 0x904 JUMP JUMPDEST DUP3 ADD SWAP2 SWAP1 PUSH1 0x0 MSTORE PUSH1 0x20 PUSH1 0x0 KECCAK256 SWAP1 JUMPDEST DUP2 SLOAD DUP2 MSTORE SWAP1 PUSH1 0x1 ADD SWAP1 PUSH1 0x20 ADD DUP1 DUP4 GT PUSH2 0x8E7 JUMPI DUP3 SWAP1 SUB PUSH1 0x1F AND DUP3 ADD SWAP2 JUMPDEST POP POP POP POP POP DUP2 MSTORE PUSH1 0x20 ADD PUSH1 0x2 DUP3 ADD SLOAD DUP2 MSTORE POP POP SWAP1 POP DUP3 PUSH1 0x20 ADD MLOAD SWAP9 POP DUP3 PUSH1 0x40 ADD MLOAD SWAP8 POP DUP1 PUSH1 0x20 ADD MLOAD SWAP7 POP DUP1 PUSH1 0x0 ADD MLOAD SWAP6 POP DUP3 PUSH1 0x60 ADD MLOAD SWAP5 POP POP POP POP POP SWAP2 SWAP4 SWAP6 SWAP1 SWAP3 SWAP5 POP JUMP JUMPDEST PUSH1 0x3 PUSH1 0x2 PUSH1 0x0 CALLER PUSH20 0xFFFFFFFFFFFFFFFFFFFFFFFFFFFFFFFFFFFFFFFF AND PUSH20 0xFFFFFFFFFFFFFFFFFFFFFFFFFFFFFFFFFFFFFFFF AND DUP2 MSTORE PUSH1 0x20 ADD SWAP1 DUP2 MSTORE PUSH1 0x20 ADD PUSH1 0x0 KECCAK256 PUSH1 0x0 ADD SLOAD DUP2 PUSH1 0x5 DUP2 GT ISZERO PUSH2 0x9A1 JUMPI PUSH2 0x9A0 PUSH2 0x4D86 JUMP JUMPDEST JUMPDEST EQ PUSH2 0x9E1 JUMPI PUSH1 0x40 MLOAD PUSH32 0x8C379A000000000000000000000000000000000000000000000000000000000 DUP2 MSTORE PUSH1 0x4 ADD PUSH2 0x9D8 SWAP1 PUSH2 0x4A65 JUMP JUMPDEST PUSH1 0x40 MLOAD DUP1 SWAP2 SUB SWAP1 REVERT JUMPDEST PUSH1 0x0 PUSH1 0xF DUP5 PUSH1 0x40 MLOAD PUSH2 0x9F3 SWAP2 SWAP1 PUSH2 0x47BE JUMP JUMPDEST SWAP1 DUP2 MSTORE PUSH1 0x20 ADD PUSH1 0x40 MLOAD DUP1 SWAP2 SUB SWAP1 KECCAK256 PUSH1 0x40 MLOAD DUP1 PUSH1 0x80 ADD PUSH1 0x40 MSTORE SWAP1 DUP2 PUSH1 0x0 DUP3 ADD PUSH1 0x0 SWAP1 SLOAD SWAP1 PUSH2 0x100 EXP SWAP1 DIV PUSH20 0xFFFFFFFFFFFFFFFFFFFFFFFFFFFFFFFFFFFFFFFF AND PUSH20 0xFFFFFFFFFFFFFFFFFFFFFFFFFFFFFFFFFFFFFFFF AND PUSH20 0xFFFFFFFFFFFFFFFFFFFFFFFFFFFFFFFFFFFFFFFF AND DUP2 MSTORE PUSH1 0x20 ADD PUSH1 0x1 DUP3 ADD SLOAD DUP2 MSTORE PUSH1 0x20 ADD PUSH1 0x2 DUP3 ADD SLOAD DUP2 MSTORE PUSH1 0x20 ADD PUSH1 0x3 DUP3 ADD PUSH1 0x0 SWAP1 SLOAD SWAP1 PUSH2 0x100 EXP SWAP1 DIV PUSH1 0xFF AND ISZERO ISZERO ISZERO ISZERO DUP2 MSTORE POP POP SWAP1 POP PUSH1 0x0 DUP2 PUSH1 0x40 ADD MLOAD SWAP1 POP DUP4 ISZERO PUSH2 0xAEE JUMPI DUP1 PUSH1 0x2 PUSH1 0x0 DUP5 PUSH1 0x0 ADD MLOAD PUSH20 0xFFFFFFFFFFFFFFFFFFFFFFFFFFFFFFFFFFFFFFFF AND PUSH20 0xFFFFFFFFFFFFFFFFFFFFFFFFFFFFFFFFFFFFFFFF AND DUP2 MSTORE PUSH1 0x20 ADD SWAP1 DUP2 MSTORE PUSH1 0x20 ADD PUSH1 0x0 KECCAK256 PUSH1 0x0 ADD DUP2 SWAP1 SSTORE POP JUMPDEST PUSH1 0x1 PUSH1 0xF DUP7 PUSH1 0x40 MLOAD PUSH2 0xB00 SWAP2 SWAP1 PUSH2 0x47BE JUMP JUMPDEST SWAP1 DUP2 MSTORE PUSH1 0x20 ADD PUSH1 0x40 MLOAD DUP1 SWAP2 SUB SWAP1 KECCAK256 PUSH1 0x3 ADD PUSH1 0x0 PUSH2 0x100 EXP DUP2 SLOAD DUP2 PUSH1 0xFF MUL NOT AND SWAP1 DUP4 ISZERO ISZERO MUL OR SWAP1 SSTORE POP POP POP POP POP POP JUMP JUMPDEST PUSH1 0x5 PUSH1 0x0 SWAP1 SLOAD SWAP1 PUSH2 0x100 EXP SWAP1 DIV PUSH20 0xFFFFFFFFFFFFFFFFFFFFFFFFFFFFFFFFFFFFFFFF AND PUSH20 0xFFFFFFFFFFFFFFFFFFFFFFFFFFFFFFFFFFFFFFFF AND CALLER PUSH20 0xFFFFFFFFFFFFFFFFFFFFFFFFFFFFFFFFFFFFFFFF AND EQ PUSH2 0xBBF JUMPI PUSH1 0x40 MLOAD PUSH32 0x8C379A000000000000000000000000000000000000000000000000000000000 DUP2 MSTORE PUSH1 0x4 ADD PUSH2 0xBB6 SWAP1 PUSH2 0x4AA5 JUMP JUMPDEST PUSH1 0x40 MLOAD DUP1 SWAP2 SUB SWAP1 REVERT JUMPDEST PUSH1 0x0 PUSH1 0x5 DUP1 DUP2 GT ISZERO PUSH2 0xBD4 JUMPI PUSH2 0xBD3 PUSH2 0x4D86 JUMP JUMPDEST JUMPDEST SWAP1 POP PUSH2 0xBF1 PUSH1 0x40 MLOAD DUP1 PUSH1 0x20 ADD PUSH1 0x40 MSTORE DUP1 PUSH1 0x0 DUP2 MSTORE POP DUP5 DUP4 DUP6 PUSH2 0x39D5 JUMP JUMPDEST POP POP POP JUMP JUMPDEST PUSH2 0xCD9 PUSH1 0x2 PUSH1 0x0 CALLER PUSH20 0xFFFFFFFFFFFFFFFFFFFFFFFFFFFFFFFFFFFFFFFF AND PUSH20 0xFFFFFFFFFFFFFFFFFFFFFFFFFFFFFFFFFFFFFFFF AND DUP2 MSTORE PUSH1 0x20 ADD SWAP1 DUP2 MSTORE PUSH1 0x20 ADD PUSH1 0x0 KECCAK256 PUSH1 0x1 ADD DUP1 SLOAD PUSH2 0xC46 SWAP1 PUSH2 0x4CAB JUMP JUMPDEST DUP1 PUSH1 0x1F ADD PUSH1 0x20 DUP1 SWAP2 DIV MUL PUSH1 0x20 ADD PUSH1 0x40 MLOAD SWAP1 DUP2 ADD PUSH1 0x40 MSTORE DUP1 SWAP3 SWAP2 SWAP1 DUP2 DUP2 MSTORE PUSH1 0x20 ADD DUP3 DUP1 SLOAD PUSH2 0xC72 SWAP1 PUSH2 0x4CAB JUMP JUMPDEST DUP1 ISZERO PUSH2 0xCBF JUMPI DUP1 PUSH1 0x1F LT PUSH2 0xC94 JUMPI PUSH2 0x100 DUP1 DUP4 SLOAD DIV MUL DUP4 MSTORE SWAP2 PUSH1 0x20 ADD SWAP2 PUSH2 0xCBF JUMP JUMPDEST DUP3 ADD SWAP2 SWAP1 PUSH1 0x0 MSTORE PUSH1 0x20 PUSH1 0x0 KECCAK256 SWAP1 JUMPDEST DUP2 SLOAD DUP2 MSTORE SWAP1 PUSH1 0x1 ADD SWAP1 PUSH1 0x20 ADD DUP1 DUP4 GT PUSH2 0xCA2 JUMPI DUP3 SWAP1 SUB PUSH1 0x1F AND DUP3 ADD SWAP2 JUMPDEST POP POP POP POP POP PUSH1 0x40 MLOAD DUP1 PUSH1 0x20 ADD PUSH1 0x40 MSTORE DUP1 PUSH1 0x0 DUP2 MSTORE POP PUSH2 0x3CD8 JUMP JUMPDEST ISZERO PUSH2 0xD19 JUMPI PUSH1 0x40 MLOAD PUSH32 0x8C379A000000000000000000000000000000000000000000000000000000000 DUP2 MSTORE PUSH1 0x4 ADD PUSH2 0xD10 SWAP1 PUSH2 0x4A85 JUMP JUMPDEST PUSH1 0x40 MLOAD DUP1 SWAP2 SUB SWAP1 REVERT JUMPDEST PUSH1 0x60 DUP1 PUSH1 0x0 PUSH1 0x40 MLOAD DUP1 PUSH1 0xC0 ADD PUSH1 0x40 MSTORE DUP1 CALLER PUSH20 0xFFFFFFFFFFFFFFFFFFFFFFFFFFFFFFFFFFFFFFFF AND DUP2 MSTORE PUSH1 0x20 ADD DUP9 PUSH20 0xFFFFFFFFFFFFFFFFFFFFFFFFFFFFFFFFFFFFFFFF AND DUP2 MSTORE PUSH1 0x20 ADD DUP8 DUP2 MSTORE PUSH1 0x20 ADD DUP5 DUP2 MSTORE PUSH1 0x20 ADD DUP4 DUP2 MSTORE PUSH1 0x20 ADD DUP6 DUP2 MSTORE POP SWAP1 POP PUSH1 0xD PUSH1 0x0 DUP9 PUSH20 0xFFFFFFFFFFFFFFFFFFFFFFFFFFFFFFFFFFFFFFFF AND PUSH20 0xFFFFFFFFFFFFFFFFFFFFFFFFFFFFFFFFFFFFFFFF AND DUP2 MSTORE PUSH1 0x20 ADD SWAP1 DUP2 MSTORE PUSH1 0x20 ADD PUSH1 0x0 KECCAK256 DUP6 SWAP1 DUP1 PUSH1 0x1 DUP2 SLOAD ADD DUP1 DUP3 SSTORE DUP1 SWAP2 POP POP PUSH1 0x1 SWAP1 SUB SWAP1 PUSH1 0x0 MSTORE PUSH1 0x20 PUSH1 0x0 KECCAK256 ADD PUSH1 0x0 SWAP1 SWAP2 SWAP1 SWAP2 SWAP1 SWAP2 POP SWAP1 DUP1 MLOAD SWAP1 PUSH1 0x20 ADD SWAP1 PUSH2 0xDF1 SWAP3 SWAP2 SWAP1 PUSH2 0x3D31 JUMP JUMPDEST POP PUSH1 0x2 PUSH1 0x0 CALLER PUSH20 0xFFFFFFFFFFFFFFFFFFFFFFFFFFFFFFFFFFFFFFFF AND PUSH20 0xFFFFFFFFFFFFFFFFFFFFFFFFFFFFFFFFFFFFFFFF AND DUP2 MSTORE PUSH1 0x20 ADD SWAP1 DUP2 MSTORE PUSH1 0x20 ADD PUSH1 0x0 KECCAK256 PUSH1 0x3 ADD DUP6 SWAP1 DUP1 PUSH1 0x1 DUP2 SLOAD ADD DUP1 DUP3 SSTORE DUP1 SWAP2 POP POP PUSH1 0x1 SWAP1 SUB SWAP1 PUSH1 0x0 MSTORE PUSH1 0x20 PUSH1 0x0 KECCAK256 ADD PUSH1 0x0 SWAP1 SWAP2 SWAP1 SWAP2 SWAP1 SWAP2 POP SWAP1 DUP1 MLOAD SWAP1 PUSH1 0x20 ADD SWAP1 PUSH2 0xE6D SWAP3 SWAP2 SWAP1 PUSH2 0x3D31 JUMP JUMPDEST POP DUP1 PUSH1 0xE DUP7 PUSH1 0x40 MLOAD PUSH2 0xE7F SWAP2 SWAP1 PUSH2 0x47BE JUMP JUMPDEST SWAP1 DUP2 MSTORE PUSH1 0x20 ADD PUSH1 0x40 MLOAD DUP1 SWAP2 SUB SWAP1 KECCAK256 PUSH1 0x0 DUP3 ADD MLOAD DUP2 PUSH1 0x0 ADD PUSH1 0x0 PUSH2 0x100 EXP DUP2 SLOAD DUP2 PUSH20 0xFFFFFFFFFFFFFFFFFFFFFFFFFFFFFFFFFFFFFFFF MUL NOT AND SWAP1 DUP4 PUSH20 0xFFFFFFFFFFFFFFFFFFFFFFFFFFFFFFFFFFFFFFFF AND MUL OR SWAP1 SSTORE POP PUSH1 0x20 DUP3 ADD MLOAD DUP2 PUSH1 0x1 ADD PUSH1 0x0 PUSH2 0x100 EXP DUP2 SLOAD DUP2 PUSH20 0xFFFFFFFFFFFFFFFFFFFFFFFFFFFFFFFFFFFFFFFF MUL NOT AND SWAP1 DUP4 PUSH20 0xFFFFFFFFFFFFFFFFFFFFFFFFFFFFFFFFFFFFFFFF AND MUL OR SWAP1 SSTORE POP PUSH1 0x40 DUP3 ADD MLOAD DUP2 PUSH1 0x2 ADD SWAP1 DUP1 MLOAD SWAP1 PUSH1 0x20 ADD SWAP1 PUSH2 0xF37 SWAP3 SWAP2 SWAP1 PUSH2 0x3D31 JUMP JUMPDEST POP PUSH1 0x60 DUP3 ADD MLOAD DUP2 PUSH1 0x3 ADD SWAP1 DUP1 MLOAD SWAP1 PUSH1 0x20 ADD SWAP1 PUSH2 0xF54 SWAP3 SWAP2 SWAP1 PUSH2 0x3DB7 JUMP JUMPDEST POP PUSH1 0x80 DUP3 ADD MLOAD DUP2 PUSH1 0x4 ADD SWAP1 DUP1 MLOAD SWAP1 PUSH1 0x20 ADD SWAP1 PUSH2 0xF71 SWAP3 SWAP2 SWAP1 PUSH2 0x3DB7 JUMP JUMPDEST POP PUSH1 0xA0 DUP3 ADD MLOAD DUP2 PUSH1 0x5 ADD SSTORE SWAP1 POP POP POP POP POP POP POP POP POP JUMP JUMPDEST PUSH1 0x0 DUP1 PUSH1 0x60 PUSH1 0x0 DUP1 PUSH1 0x0 DUP1 PUSH1 0xE DUP9 PUSH1 0x40 MLOAD PUSH2 0xFA3 SWAP2 SWAP1 PUSH2 0x47BE JUMP JUMPDEST SWAP1 DUP2 MSTORE PUSH1 0x20 ADD PUSH1 0x40 MLOAD DUP1 SWAP2 SUB SWAP1 KECCAK256 PUSH1 0x40 MLOAD DUP1 PUSH1 0xC0 ADD PUSH1 0x40 MSTORE SWAP1 DUP2 PUSH1 0x0 DUP3 ADD PUSH1 0x0 SWAP1 SLOAD SWAP1 PUSH2 0x100 EXP SWAP1 DIV PUSH20 0xFFFFFFFFFFFFFFFFFFFFFFFFFFFFFFFFFFFFFFFF AND PUSH20 0xFFFFFFFFFFFFFFFFFFFFFFFFFFFFFFFFFFFFFFFF AND PUSH20 0xFFFFFFFFFFFFFFFFFFFFFFFFFFFFFFFFFFFFFFFF AND DUP2 MSTORE PUSH1 0x20 ADD PUSH1 0x1 DUP3 ADD PUSH1 0x0 SWAP1 SLOAD SWAP1 PUSH2 0x100 EXP SWAP1 DIV PUSH20 0xFFFFFFFFFFFFFFFFFFFFFFFFFFFFFFFFFFFFFFFF AND PUSH20 0xFFFFFFFFFFFFFFFFFFFFFFFFFFFFFFFFFFFFFFFF AND PUSH20 0xFFFFFFFFFFFFFFFFFFFFFFFFFFFFFFFFFFFFFFFF AND DUP2 MSTORE PUSH1 0x20 ADD PUSH1 0x2 DUP3 ADD DUP1 SLOAD PUSH2 0x1078 SWAP1 PUSH2 0x4CAB JUMP JUMPDEST DUP1 PUSH1 0x1F ADD PUSH1 0x20 DUP1 SWAP2 DIV MUL PUSH1 0x20 ADD PUSH1 0x40 MLOAD SWAP1 DUP2 ADD PUSH1 0x40 MSTORE DUP1 SWAP3 SWAP2 SWAP1 DUP2 DUP2 MSTORE PUSH1 0x20 ADD DUP3 DUP1 SLOAD PUSH2 0x10A4 SWAP1 PUSH2 0x4CAB JUMP JUMPDEST DUP1 ISZERO PUSH2 0x10F1 JUMPI DUP1 PUSH1 0x1F LT PUSH2 0x10C6 JUMPI PUSH2 0x100 DUP1 DUP4 SLOAD DIV MUL DUP4 MSTORE SWAP2 PUSH1 0x20 ADD SWAP2 PUSH2 0x10F1 JUMP JUMPDEST DUP3 ADD SWAP2 SWAP1 PUSH1 0x0 MSTORE PUSH1 0x20 PUSH1 0x0 KECCAK256 SWAP1 JUMPDEST DUP2 SLOAD DUP2 MSTORE SWAP1 PUSH1 0x1 ADD SWAP1 PUSH1 0x20 ADD DUP1 DUP4 GT PUSH2 0x10D4 JUMPI DUP3 SWAP1 SUB PUSH1 0x1F AND DUP3 ADD SWAP2 JUMPDEST POP POP POP POP POP DUP2 MSTORE PUSH1 0x20 ADD PUSH1 0x3 DUP3 ADD DUP1 SLOAD DUP1 PUSH1 0x20 MUL PUSH1 0x20 ADD PUSH1 0x40 MLOAD SWAP1 DUP2 ADD PUSH1 0x40 MSTORE DUP1 SWAP3 SWAP2 SWAP1 DUP2 DUP2 MSTORE PUSH1 0x20 ADD DUP3 DUP1 SLOAD DUP1 ISZERO PUSH2 0x117F JUMPI PUSH1 0x20 MUL DUP3 ADD SWAP2 SWAP1 PUSH1 0x0 MSTORE PUSH1 0x20 PUSH1 0x0 KECCAK256 SWAP1 JUMPDEST DUP2 PUSH1 0x0 SWAP1 SLOAD SWAP1 PUSH2 0x100 EXP SWAP1 DIV PUSH20 0xFFFFFFFFFFFFFFFFFFFFFFFFFFFFFFFFFFFFFFFF AND PUSH20 0xFFFFFFFFFFFFFFFFFFFFFFFFFFFFFFFFFFFFFFFF AND DUP2 MSTORE PUSH1 0x20 ADD SWAP1 PUSH1 0x1 ADD SWAP1 DUP1 DUP4 GT PUSH2 0x1135 JUMPI JUMPDEST POP POP POP POP POP DUP2 MSTORE PUSH1 0x20 ADD PUSH1 0x4 DUP3 ADD DUP1 SLOAD DUP1 PUSH1 0x20 MUL PUSH1 0x20 ADD PUSH1 0x40 MLOAD SWAP1 DUP2 ADD PUSH1 0x40 MSTORE DUP1 SWAP3 SWAP2 SWAP1 DUP2 DUP2 MSTORE PUSH1 0x20 ADD DUP3 DUP1 SLOAD DUP1 ISZERO PUSH2 0x120D JUMPI PUSH1 0x20 MUL DUP3 ADD SWAP2 SWAP1 PUSH1 0x0 MSTORE PUSH1 0x20 PUSH1 0x0 KECCAK256 SWAP1 JUMPDEST DUP2 PUSH1 0x0 SWAP1 SLOAD SWAP1 PUSH2 0x100 EXP SWAP1 DIV PUSH20 0xFFFFFFFFFFFFFFFFFFFFFFFFFFFFFFFFFFFFFFFF AND PUSH20 0xFFFFFFFFFFFFFFFFFFFFFFFFFFFFFFFFFFFFFFFF AND DUP2 MSTORE PUSH1 0x20 ADD SWAP1 PUSH1 0x1 ADD SWAP1 DUP1 DUP4 GT PUSH2 0x11C3 JUMPI JUMPDEST POP POP POP POP POP DUP2 MSTORE PUSH1 0x20 ADD PUSH1 0x5 DUP3 ADD SLOAD DUP2 MSTORE POP POP SWAP1 POP DUP1 PUSH1 0x0 ADD MLOAD SWAP7 POP DUP1 PUSH1 0x20 ADD MLOAD SWAP6 POP DUP1 PUSH1 0x40 ADD MLOAD SWAP5 POP DUP1 PUSH1 0x60 ADD MLOAD MLOAD SWAP4 POP DUP1 PUSH1 0x80 ADD MLOAD MLOAD SWAP3 POP DUP1 PUSH1 0xA0 ADD MLOAD SWAP2 POP POP SWAP2 SWAP4 SWAP6 POP SWAP2 SWAP4 SWAP6 JUMP JUMPDEST PUSH1 0x0 PUSH1 0x60 DUP3 PUSH1 0x0 PUSH20 0xFFFFFFFFFFFFFFFFFFFFFFFFFFFFFFFFFFFFFFFF AND PUSH1 0x1 DUP3 PUSH1 0x40 MLOAD PUSH2 0x1285 SWAP2 SWAP1 PUSH2 0x47BE JUMP JUMPDEST SWAP1 DUP2 MSTORE PUSH1 0x20 ADD PUSH1 0x40 MLOAD DUP1 SWAP2 SUB SWAP1 KECCAK256 PUSH1 0x0 SWAP1 SLOAD SWAP1 PUSH2 0x100 EXP SWAP1 DIV PUSH20 0xFFFFFFFFFFFFFFFFFFFFFFFFFFFFFFFFFFFFFFFF AND PUSH20 0xFFFFFFFFFFFFFFFFFFFFFFFFFFFFFFFFFFFFFFFF AND EQ ISZERO PUSH2 0x130B JUMPI PUSH1 0x40 MLOAD PUSH32 0x8C379A000000000000000000000000000000000000000000000000000000000 DUP2 MSTORE PUSH1 0x4 ADD PUSH2 0x1302 SWAP1 PUSH2 0x4AE5 JUMP JUMPDEST PUSH1 0x40 MLOAD DUP1 SWAP2 SUB SWAP1 REVERT JUMPDEST PUSH1 0x0 PUSH1 0x1 DUP6 PUSH1 0x40 MLOAD PUSH2 0x131D SWAP2 SWAP1 PUSH2 0x47BE JUMP JUMPDEST SWAP1 DUP2 MSTORE PUSH1 0x20 ADD PUSH1 0x40 MLOAD DUP1 SWAP2 SUB SWAP1 KECCAK256 PUSH1 0x0 SWAP1 SLOAD SWAP1 PUSH2 0x100 EXP SWAP1 DIV PUSH20 0xFFFFFFFFFFFFFFFFFFFFFFFFFFFFFFFFFFFFFFFF AND SWAP1 POP PUSH1 0x0 PUSH1 0x2 PUSH1 0x0 DUP4 PUSH20 0xFFFFFFFFFFFFFFFFFFFFFFFFFFFFFFFFFFFFFFFF AND PUSH20 0xFFFFFFFFFFFFFFFFFFFFFFFFFFFFFFFFFFFFFFFF AND DUP2 MSTORE PUSH1 0x20 ADD SWAP1 DUP2 MSTORE PUSH1 0x20 ADD PUSH1 0x0 KECCAK256 PUSH1 0x40 MLOAD DUP1 PUSH1 0x80 ADD PUSH1 0x40 MSTORE SWAP1 DUP2 PUSH1 0x0 DUP3 ADD SLOAD DUP2 MSTORE PUSH1 0x20 ADD PUSH1 0x1 DUP3 ADD DUP1 SLOAD PUSH2 0x13B4 SWAP1 PUSH2 0x4CAB JUMP JUMPDEST DUP1 PUSH1 0x1F ADD PUSH1 0x20 DUP1 SWAP2 DIV MUL PUSH1 0x20 ADD PUSH1 0x40 MLOAD SWAP1 DUP2 ADD PUSH1 0x40 MSTORE DUP1 SWAP3 SWAP2 SWAP1 DUP2 DUP2 MSTORE PUSH1 0x20 ADD DUP3 DUP1 SLOAD PUSH2 0x13E0 SWAP1 PUSH2 0x4CAB JUMP JUMPDEST DUP1 ISZERO PUSH2 0x142D JUMPI DUP1 PUSH1 0x1F LT PUSH2 0x1402 JUMPI PUSH2 0x100 DUP1 DUP4 SLOAD DIV MUL DUP4 MSTORE SWAP2 PUSH1 0x20 ADD SWAP2 PUSH2 0x142D JUMP JUMPDEST DUP3 ADD SWAP2 SWAP1 PUSH1 0x0 MSTORE PUSH1 0x20 PUSH1 0x0 KECCAK256 SWAP1 JUMPDEST DUP2 SLOAD DUP2 MSTORE SWAP1 PUSH1 0x1 ADD SWAP1 PUSH1 0x20 ADD DUP1 DUP4 GT PUSH2 0x1410 JUMPI DUP3 SWAP1 SUB PUSH1 0x1F AND DUP3 ADD SWAP2 JUMPDEST POP POP POP POP POP DUP2 MSTORE PUSH1 0x20 ADD PUSH1 0x2 DUP3 ADD DUP1 SLOAD PUSH2 0x1446 SWAP1 PUSH2 0x4CAB JUMP JUMPDEST DUP1 PUSH1 0x1F ADD PUSH1 0x20 DUP1 SWAP2 DIV MUL PUSH1 0x20 ADD PUSH1 0x40 MLOAD SWAP1 DUP2 ADD PUSH1 0x40 MSTORE DUP1 SWAP3 SWAP2 SWAP1 DUP2 DUP2 MSTORE PUSH1 0x20 ADD DUP3 DUP1 SLOAD PUSH2 0x1472 SWAP1 PUSH2 0x4CAB JUMP JUMPDEST DUP1 ISZERO PUSH2 0x14BF JUMPI DUP1 PUSH1 0x1F LT PUSH2 0x1494 JUMPI PUSH2 0x100 DUP1 DUP4 SLOAD DIV MUL DUP4 MSTORE SWAP2 PUSH1 0x20 ADD SWAP2 PUSH2 0x14BF JUMP JUMPDEST DUP3 ADD SWAP2 SWAP1 PUSH1 0x0 MSTORE PUSH1 0x20 PUSH1 0x0 KECCAK256 SWAP1 JUMPDEST DUP2 SLOAD DUP2 MSTORE SWAP1 PUSH1 0x1 ADD SWAP1 PUSH1 0x20 ADD DUP1 DUP4 GT PUSH2 0x14A2 JUMPI DUP3 SWAP1 SUB PUSH1 0x1F AND DUP3 ADD SWAP2 JUMPDEST POP POP POP POP POP DUP2 MSTORE PUSH1 0x20 ADD PUSH1 0x3 DUP3 ADD DUP1 SLOAD DUP1 PUSH1 0x20 MUL PUSH1 0x20 ADD PUSH1 0x40 MLOAD SWAP1 DUP2 ADD PUSH1 0x40 MSTORE DUP1 SWAP3 SWAP2 SWAP1 DUP2 DUP2 MSTORE PUSH1 0x20 ADD PUSH1 0x0 SWAP1 JUMPDEST DUP3 DUP3 LT ISZERO PUSH2 0x1599 JUMPI DUP4 DUP3 SWAP1 PUSH1 0x0 MSTORE PUSH1 0x20 PUSH1 0x0 KECCAK256 ADD DUP1 SLOAD PUSH2 0x150C SWAP1 PUSH2 0x4CAB JUMP JUMPDEST DUP1 PUSH1 0x1F ADD PUSH1 0x20 DUP1 SWAP2 DIV MUL PUSH1 0x20 ADD PUSH1 0x40 MLOAD SWAP1 DUP2 ADD PUSH1 0x40 MSTORE DUP1 SWAP3 SWAP2 SWAP1 DUP2 DUP2 MSTORE PUSH1 0x20 ADD DUP3 DUP1 SLOAD PUSH2 0x1538 SWAP1 PUSH2 0x4CAB JUMP JUMPDEST DUP1 ISZERO PUSH2 0x1585 JUMPI DUP1 PUSH1 0x1F LT PUSH2 0x155A JUMPI PUSH2 0x100 DUP1 DUP4 SLOAD DIV MUL DUP4 MSTORE SWAP2 PUSH1 0x20 ADD SWAP2 PUSH2 0x1585 JUMP JUMPDEST DUP3 ADD SWAP2 SWAP1 PUSH1 0x0 MSTORE PUSH1 0x20 PUSH1 0x0 KECCAK256 SWAP1 JUMPDEST DUP2 SLOAD DUP2 MSTORE SWAP1 PUSH1 0x1 ADD SWAP1 PUSH1 0x20 ADD DUP1 DUP4 GT PUSH2 0x1568 JUMPI DUP3 SWAP1 SUB PUSH1 0x1F AND DUP3 ADD SWAP2 JUMPDEST POP POP POP POP POP DUP2 MSTORE PUSH1 0x20 ADD SWAP1 PUSH1 0x1 ADD SWAP1 PUSH2 0x14ED JUMP JUMPDEST POP POP POP POP DUP2 MSTORE POP POP SWAP1 POP DUP2 SWAP5 POP PUSH1 0x0 DUP1 DUP3 PUSH1 0x0 ADD MLOAD DUP2 MSTORE PUSH1 0x20 ADD SWAP1 DUP2 MSTORE PUSH1 0x20 ADD PUSH1 0x0 KECCAK256 DUP1 SLOAD PUSH2 0x15C7 SWAP1 PUSH2 0x4CAB JUMP JUMPDEST DUP1 PUSH1 0x1F ADD PUSH1 0x20 DUP1 SWAP2 DIV MUL PUSH1 0x20 ADD PUSH1 0x40 MLOAD SWAP1 DUP2 ADD PUSH1 0x40 MSTORE DUP1 SWAP3 SWAP2 SWAP1 DUP2 DUP2 MSTORE PUSH1 0x20 ADD DUP3 DUP1 SLOAD PUSH2 0x15F3 SWAP1 PUSH2 0x4CAB JUMP JUMPDEST DUP1 ISZERO PUSH2 0x1640 JUMPI DUP1 PUSH1 0x1F LT PUSH2 0x1615 JUMPI PUSH2 0x100 DUP1 DUP4 SLOAD DIV MUL DUP4 MSTORE SWAP2 PUSH1 0x20 ADD SWAP2 PUSH2 0x1640 JUMP JUMPDEST DUP3 ADD SWAP2 SWAP1 PUSH1 0x0 MSTORE PUSH1 0x20 PUSH1 0x0 KECCAK256 SWAP1 JUMPDEST DUP2 SLOAD DUP2 MSTORE SWAP1 PUSH1 0x1 ADD SWAP1 PUSH1 0x20 ADD DUP1 DUP4 GT PUSH2 0x1623 JUMPI DUP3 SWAP1 SUB PUSH1 0x1F AND DUP3 ADD SWAP2 JUMPDEST POP POP POP POP POP SWAP4 POP POP POP POP SWAP2 POP SWAP2 JUMP JUMPDEST PUSH1 0x60 DUP1 PUSH1 0x60 DUP1 PUSH1 0x60 PUSH1 0x1 PUSH1 0x2 PUSH1 0x0 CALLER PUSH20 0xFFFFFFFFFFFFFFFFFFFFFFFFFFFFFFFFFFFFFFFF AND PUSH20 0xFFFFFFFFFFFFFFFFFFFFFFFFFFFFFFFFFFFFFFFF AND DUP2 MSTORE PUSH1 0x20 ADD SWAP1 DUP2 MSTORE PUSH1 0x20 ADD PUSH1 0x0 KECCAK256 PUSH1 0x0 ADD SLOAD DUP2 PUSH1 0x5 DUP2 GT ISZERO PUSH2 0x16AF JUMPI PUSH2 0x16AE PUSH2 0x4D86 JUMP JUMPDEST JUMPDEST EQ PUSH2 0x16EF JUMPI PUSH1 0x40 MLOAD PUSH32 0x8C379A000000000000000000000000000000000000000000000000000000000 DUP2 MSTORE PUSH1 0x4 ADD PUSH2 0x16E6 SWAP1 PUSH2 0x4A65 JUMP JUMPDEST PUSH1 0x40 MLOAD DUP1 SWAP2 SUB SWAP1 REVERT JUMPDEST PUSH1 0x0 PUSH1 0x2 PUSH1 0x0 CALLER PUSH20 0xFFFFFFFFFFFFFFFFFFFFFFFFFFFFFFFFFFFFFFFF AND PUSH20 0xFFFFFFFFFFFFFFFFFFFFFFFFFFFFFFFFFFFFFFFF AND DUP2 MSTORE PUSH1 0x20 ADD SWAP1 DUP2 MSTORE PUSH1 0x20 ADD PUSH1 0x0 KECCAK256 PUSH1 0x40 MLOAD DUP1 PUSH1 0x80 ADD PUSH1 0x40 MSTORE SWAP1 DUP2 PUSH1 0x0 DUP3 ADD SLOAD DUP2 MSTORE PUSH1 0x20 ADD PUSH1 0x1 DUP3 ADD DUP1 SLOAD PUSH2 0x1755 SWAP1 PUSH2 0x4CAB JUMP JUMPDEST DUP1 PUSH1 0x1F ADD PUSH1 0x20 DUP1 SWAP2 DIV MUL PUSH1 0x20 ADD PUSH1 0x40 MLOAD SWAP1 DUP2 ADD PUSH1 0x40 MSTORE DUP1 SWAP3 SWAP2 SWAP1 DUP2 DUP2 MSTORE PUSH1 0x20 ADD DUP3 DUP1 SLOAD PUSH2 0x1781 SWAP1 PUSH2 0x4CAB JUMP JUMPDEST DUP1 ISZERO PUSH2 0x17CE JUMPI DUP1 PUSH1 0x1F LT PUSH2 0x17A3 JUMPI PUSH2 0x100 DUP1 DUP4 SLOAD DIV MUL DUP4 MSTORE SWAP2 PUSH1 0x20 ADD SWAP2 PUSH2 0x17CE JUMP JUMPDEST DUP3 ADD SWAP2 SWAP1 PUSH1 0x0 MSTORE PUSH1 0x20 PUSH1 0x0 KECCAK256 SWAP1 JUMPDEST DUP2 SLOAD DUP2 MSTORE SWAP1 PUSH1 0x1 ADD SWAP1 PUSH1 0x20 ADD DUP1 DUP4 GT PUSH2 0x17B1 JUMPI DUP3 SWAP1 SUB PUSH1 0x1F AND DUP3 ADD SWAP2 JUMPDEST POP POP POP POP POP DUP2 MSTORE PUSH1 0x20 ADD PUSH1 0x2 DUP3 ADD DUP1 SLOAD PUSH2 0x17E7 SWAP1 PUSH2 0x4CAB JUMP JUMPDEST DUP1 PUSH1 0x1F ADD PUSH1 0x20 DUP1 SWAP2 DIV MUL PUSH1 0x20 ADD PUSH1 0x40 MLOAD SWAP1 DUP2 ADD PUSH1 0x40 MSTORE DUP1 SWAP3 SWAP2 SWAP1 DUP2 DUP2 MSTORE PUSH1 0x20 ADD DUP3 DUP1 SLOAD PUSH2 0x1813 SWAP1 PUSH2 0x4CAB JUMP JUMPDEST DUP1 ISZERO PUSH2 0x1860 JUMPI DUP1 PUSH1 0x1F LT PUSH2 0x1835 JUMPI PUSH2 0x100 DUP1 DUP4 SLOAD DIV MUL DUP4 MSTORE SWAP2 PUSH1 0x20 ADD SWAP2 PUSH2 0x1860 JUMP JUMPDEST DUP3 ADD SWAP2 SWAP1 PUSH1 0x0 MSTORE PUSH1 0x20 PUSH1 0x0 KECCAK256 SWAP1 JUMPDEST DUP2 SLOAD DUP2 MSTORE SWAP1 PUSH1 0x1 ADD SWAP1 PUSH1 0x20 ADD DUP1 DUP4 GT PUSH2 0x1843 JUMPI DUP3 SWAP1 SUB PUSH1 0x1F AND DUP3 ADD SWAP2 JUMPDEST POP POP POP POP POP DUP2 MSTORE PUSH1 0x20 ADD PUSH1 0x3 DUP3 ADD DUP1 SLOAD DUP1 PUSH1 0x20 MUL PUSH1 0x20 ADD PUSH1 0x40 MLOAD SWAP1 DUP2 ADD PUSH1 0x40 MSTORE DUP1 SWAP3 SWAP2 SWAP1 DUP2 DUP2 MSTORE PUSH1 0x20 ADD PUSH1 0x0 SWAP1 JUMPDEST DUP3 DUP3 LT ISZERO PUSH2 0x193A JUMPI DUP4 DUP3 SWAP1 PUSH1 0x0 MSTORE PUSH1 0x20 PUSH1 0x0 KECCAK256 ADD DUP1 SLOAD PUSH2 0x18AD SWAP1 PUSH2 0x4CAB JUMP JUMPDEST DUP1 PUSH1 0x1F ADD PUSH1 0x20 DUP1 SWAP2 DIV MUL PUSH1 0x20 ADD PUSH1 0x40 MLOAD SWAP1 DUP2 ADD PUSH1 0x40 MSTORE DUP1 SWAP3 SWAP2 SWAP1 DUP2 DUP2 MSTORE PUSH1 0x20 ADD DUP3 DUP1 SLOAD PUSH2 0x18D9 SWAP1 PUSH2 0x4CAB JUMP JUMPDEST DUP1 ISZERO PUSH2 0x1926 JUMPI DUP1 PUSH1 0x1F LT PUSH2 0x18FB JUMPI PUSH2 0x100 DUP1 DUP4 SLOAD DIV MUL DUP4 MSTORE SWAP2 PUSH1 0x20 ADD SWAP2 PUSH2 0x1926 JUMP JUMPDEST DUP3 ADD SWAP2 SWAP1 PUSH1 0x0 MSTORE PUSH1 0x20 PUSH1 0x0 KECCAK256 SWAP1 JUMPDEST DUP2 SLOAD DUP2 MSTORE SWAP1 PUSH1 0x1 ADD SWAP1 PUSH1 0x20 ADD DUP1 DUP4 GT PUSH2 0x1909 JUMPI DUP3 SWAP1 SUB PUSH1 0x1F AND DUP3 ADD SWAP2 JUMPDEST POP POP POP POP POP DUP2 MSTORE PUSH1 0x20 ADD SWAP1 PUSH1 0x1 ADD SWAP1 PUSH2 0x188E JUMP JUMPDEST POP POP POP POP DUP2 MSTORE POP POP SWAP1 POP PUSH1 0x0 PUSH1 0xB PUSH1 0x0 CALLER PUSH20 0xFFFFFFFFFFFFFFFFFFFFFFFFFFFFFFFFFFFFFFFF AND PUSH20 0xFFFFFFFFFFFFFFFFFFFFFFFFFFFFFFFFFFFFFFFF AND DUP2 MSTORE PUSH1 0x20 ADD SWAP1 DUP2 MSTORE PUSH1 0x20 ADD PUSH1 0x0 KECCAK256 PUSH1 0x0 SWAP1 SLOAD SWAP1 PUSH2 0x100 EXP SWAP1 DIV PUSH20 0xFFFFFFFFFFFFFFFFFFFFFFFFFFFFFFFFFFFFFFFF AND SWAP1 POP PUSH1 0x0 PUSH1 0xA PUSH1 0x0 DUP4 PUSH20 0xFFFFFFFFFFFFFFFFFFFFFFFFFFFFFFFFFFFFFFFF AND PUSH20 0xFFFFFFFFFFFFFFFFFFFFFFFFFFFFFFFFFFFFFFFF AND DUP2 MSTORE PUSH1 0x20 ADD SWAP1 DUP2 MSTORE PUSH1 0x20 ADD PUSH1 0x0 KECCAK256 PUSH1 0x40 MLOAD DUP1 PUSH1 0x60 ADD PUSH1 0x40 MSTORE SWAP1 DUP2 PUSH1 0x0 DUP3 ADD DUP1 SLOAD PUSH2 0x1A04 SWAP1 PUSH2 0x4CAB JUMP JUMPDEST DUP1 PUSH1 0x1F ADD PUSH1 0x20 DUP1 SWAP2 DIV MUL PUSH1 0x20 ADD PUSH1 0x40 MLOAD SWAP1 DUP2 ADD PUSH1 0x40 MSTORE DUP1 SWAP3 SWAP2 SWAP1 DUP2 DUP2 MSTORE PUSH1 0x20 ADD DUP3 DUP1 SLOAD PUSH2 0x1A30 SWAP1 PUSH2 0x4CAB JUMP JUMPDEST DUP1 ISZERO PUSH2 0x1A7D JUMPI DUP1 PUSH1 0x1F LT PUSH2 0x1A52 JUMPI PUSH2 0x100 DUP1 DUP4 SLOAD DIV MUL DUP4 MSTORE SWAP2 PUSH1 0x20 ADD SWAP2 PUSH2 0x1A7D JUMP JUMPDEST DUP3 ADD SWAP2 SWAP1 PUSH1 0x0 MSTORE PUSH1 0x20 PUSH1 0x0 KECCAK256 SWAP1 JUMPDEST DUP2 SLOAD DUP2 MSTORE SWAP1 PUSH1 0x1 ADD SWAP1 PUSH1 0x20 ADD DUP1 DUP4 GT PUSH2 0x1A60 JUMPI DUP3 SWAP1 SUB PUSH1 0x1F AND DUP3 ADD SWAP2 JUMPDEST POP POP POP POP POP DUP2 MSTORE PUSH1 0x20 ADD PUSH1 0x1 DUP3 ADD DUP1 SLOAD PUSH2 0x1A96 SWAP1 PUSH2 0x4CAB JUMP JUMPDEST DUP1 PUSH1 0x1F ADD PUSH1 0x20 DUP1 SWAP2 DIV MUL PUSH1 0x20 ADD PUSH1 0x40 MLOAD SWAP1 DUP2 ADD PUSH1 0x40 MSTORE DUP1 SWAP3 SWAP2 SWAP1 DUP2 DUP2 MSTORE PUSH1 0x20 ADD DUP3 DUP1 SLOAD PUSH2 0x1AC2 SWAP1 PUSH2 0x4CAB JUMP JUMPDEST DUP1 ISZERO PUSH2 0x1B0F JUMPI DUP1 PUSH1 0x1F LT PUSH2 0x1AE4 JUMPI PUSH2 0x100 DUP1 DUP4 SLOAD DIV MUL DUP4 MSTORE SWAP2 PUSH1 0x20 ADD SWAP2 PUSH2 0x1B0F JUMP JUMPDEST DUP3 ADD SWAP2 SWAP1 PUSH1 0x0 MSTORE PUSH1 0x20 PUSH1 0x0 KECCAK256 SWAP1 JUMPDEST DUP2 SLOAD DUP2 MSTORE SWAP1 PUSH1 0x1 ADD SWAP1 PUSH1 0x20 ADD DUP1 DUP4 GT PUSH2 0x1AF2 JUMPI DUP3 SWAP1 SUB PUSH1 0x1F AND DUP3 ADD SWAP2 JUMPDEST POP POP POP POP POP DUP2 MSTORE PUSH1 0x20 ADD PUSH1 0x2 DUP3 ADD SLOAD DUP2 MSTORE POP POP SWAP1 POP DUP3 PUSH1 0x20 ADD MLOAD SWAP9 POP DUP3 PUSH1 0x40 ADD MLOAD SWAP8 POP DUP1 PUSH1 0x20 ADD MLOAD SWAP7 POP DUP1 PUSH1 0x0 ADD MLOAD SWAP6 POP DUP3 PUSH1 0x60 ADD MLOAD SWAP5 POP POP POP POP POP SWAP1 SWAP2 SWAP3 SWAP4 SWAP5 JUMP JUMPDEST PUSH1 0x3 PUSH1 0x2 PUSH1 0x0 CALLER PUSH20 0xFFFFFFFFFFFFFFFFFFFFFFFFFFFFFFFFFFFFFFFF AND PUSH20 0xFFFFFFFFFFFFFFFFFFFFFFFFFFFFFFFFFFFFFFFF AND DUP2 MSTORE PUSH1 0x20 ADD SWAP1 DUP2 MSTORE PUSH1 0x20 ADD PUSH1 0x0 KECCAK256 PUSH1 0x0 ADD SLOAD DUP2 PUSH1 0x5 DUP2 GT ISZERO PUSH2 0x1BAA JUMPI PUSH2 0x1BA9 PUSH2 0x4D86 JUMP JUMPDEST JUMPDEST EQ PUSH2 0x1BEA JUMPI PUSH1 0x40 MLOAD PUSH32 0x8C379A000000000000000000000000000000000000000000000000000000000 DUP2 MSTORE PUSH1 0x4 ADD PUSH2 0x1BE1 SWAP1 PUSH2 0x4A65 JUMP JUMPDEST PUSH1 0x40 MLOAD DUP1 SWAP2 SUB SWAP1 REVERT JUMPDEST PUSH1 0x0 PUSH1 0x40 MLOAD DUP1 PUSH1 0x60 ADD PUSH1 0x40 MSTORE DUP1 DUP7 DUP2 MSTORE PUSH1 0x20 ADD DUP6 DUP2 MSTORE PUSH1 0x20 ADD PUSH1 0x0 DUP2 MSTORE POP SWAP1 POP DUP1 PUSH1 0xA PUSH1 0x0 DUP9 PUSH20 0xFFFFFFFFFFFFFFFFFFFFFFFFFFFFFFFFFFFFFFFF AND PUSH20 0xFFFFFFFFFFFFFFFFFFFFFFFFFFFFFFFFFFFFFFFF AND DUP2 MSTORE PUSH1 0x20 ADD SWAP1 DUP2 MSTORE PUSH1 0x20 ADD PUSH1 0x0 KECCAK256 PUSH1 0x0 DUP3 ADD MLOAD DUP2 PUSH1 0x0 ADD SWAP1 DUP1 MLOAD SWAP1 PUSH1 0x20 ADD SWAP1 PUSH2 0x1C66 SWAP3 SWAP2 SWAP1 PUSH2 0x3D31 JUMP JUMPDEST POP PUSH1 0x20 DUP3 ADD MLOAD DUP2 PUSH1 0x1 ADD SWAP1 DUP1 MLOAD SWAP1 PUSH1 0x20 ADD SWAP1 PUSH2 0x1C83 SWAP3 SWAP2 SWAP1 PUSH2 0x3D31 JUMP JUMPDEST POP PUSH1 0x40 DUP3 ADD MLOAD DUP2 PUSH1 0x2 ADD SSTORE SWAP1 POP POP POP POP POP POP POP POP JUMP JUMPDEST PUSH2 0x1D7C PUSH1 0x2 PUSH1 0x0 CALLER PUSH20 0xFFFFFFFFFFFFFFFFFFFFFFFFFFFFFFFFFFFFFFFF AND PUSH20 0xFFFFFFFFFFFFFFFFFFFFFFFFFFFFFFFFFFFFFFFF AND DUP2 MSTORE PUSH1 0x20 ADD SWAP1 DUP2 MSTORE PUSH1 0x20 ADD PUSH1 0x0 KECCAK256 PUSH1 0x1 ADD DUP1 SLOAD PUSH2 0x1CE9 SWAP1 PUSH2 0x4CAB JUMP JUMPDEST DUP1 PUSH1 0x1F ADD PUSH1 0x20 DUP1 SWAP2 DIV MUL PUSH1 0x20 ADD PUSH1 0x40 MLOAD SWAP1 DUP2 ADD PUSH1 0x40 MSTORE DUP1 SWAP3 SWAP2 SWAP1 DUP2 DUP2 MSTORE PUSH1 0x20 ADD DUP3 DUP1 SLOAD PUSH2 0x1D15 SWAP1 PUSH2 0x4CAB JUMP JUMPDEST DUP1 ISZERO PUSH2 0x1D62 JUMPI DUP1 PUSH1 0x1F LT PUSH2 0x1D37 JUMPI PUSH2 0x100 DUP1 DUP4 SLOAD DIV MUL DUP4 MSTORE SWAP2 PUSH1 0x20 ADD SWAP2 PUSH2 0x1D62 JUMP JUMPDEST DUP3 ADD SWAP2 SWAP1 PUSH1 0x0 MSTORE PUSH1 0x20 PUSH1 0x0 KECCAK256 SWAP1 JUMPDEST DUP2 SLOAD DUP2 MSTORE SWAP1 PUSH1 0x1 ADD SWAP1 PUSH1 0x20 ADD DUP1 DUP4 GT PUSH2 0x1D45 JUMPI DUP3 SWAP1 SUB PUSH1 0x1F AND DUP3 ADD SWAP2 JUMPDEST POP POP POP POP POP PUSH1 0x40 MLOAD DUP1 PUSH1 0x20 ADD PUSH1 0x40 MSTORE DUP1 PUSH1 0x0 DUP2 MSTORE POP PUSH2 0x3CD8 JUMP JUMPDEST ISZERO PUSH2 0x1DBC JUMPI PUSH1 0x40 MLOAD PUSH32 0x8C379A000000000000000000000000000000000000000000000000000000000 DUP2 MSTORE PUSH1 0x4 ADD PUSH2 0x1DB3 SWAP1 PUSH2 0x4A85 JUMP JUMPDEST PUSH1 0x40 MLOAD DUP1 SWAP2 SUB SWAP1 REVERT JUMPDEST PUSH1 0x0 ISZERO ISZERO PUSH1 0x10 DUP3 PUSH1 0x40 MLOAD PUSH2 0x1DD0 SWAP2 SWAP1 PUSH2 0x47BE JUMP JUMPDEST SWAP1 DUP2 MSTORE PUSH1 0x20 ADD PUSH1 0x40 MLOAD DUP1 SWAP2 SUB SWAP1 KECCAK256 PUSH1 0x0 CALLER PUSH20 0xFFFFFFFFFFFFFFFFFFFFFFFFFFFFFFFFFFFFFFFF AND PUSH20 0xFFFFFFFFFFFFFFFFFFFFFFFFFFFFFFFFFFFFFFFF AND DUP2 MSTORE PUSH1 0x20 ADD SWAP1 DUP2 MSTORE PUSH1 0x20 ADD PUSH1 0x0 KECCAK256 PUSH1 0x0 SWAP1 SLOAD SWAP1 PUSH2 0x100 EXP SWAP1 DIV PUSH1 0xFF AND ISZERO ISZERO EQ PUSH2 0x1E6B JUMPI PUSH1 0x40 MLOAD PUSH32 0x8C379A000000000000000000000000000000000000000000000000000000000 DUP2 MSTORE PUSH1 0x4 ADD PUSH2 0x1E62 SWAP1 PUSH2 0x4A05 JUMP JUMPDEST PUSH1 0x40 MLOAD DUP1 SWAP2 SUB SWAP1 REVERT JUMPDEST PUSH1 0xE DUP2 PUSH1 0x40 MLOAD PUSH2 0x1E7B SWAP2 SWAP1 PUSH2 0x47BE JUMP JUMPDEST SWAP1 DUP2 MSTORE PUSH1 0x20 ADD PUSH1 0x40 MLOAD DUP1 SWAP2 SUB SWAP1 KECCAK256 PUSH1 0x3 ADD CALLER SWAP1 DUP1 PUSH1 0x1 DUP2 SLOAD ADD DUP1 DUP3 SSTORE DUP1 SWAP2 POP POP PUSH1 0x1 SWAP1 SUB SWAP1 PUSH1 0x0 MSTORE PUSH1 0x20 PUSH1 0x0 KECCAK256 ADD PUSH1 0x0 SWAP1 SWAP2 SWAP1 SWAP2 SWAP1 SWAP2 PUSH2 0x100 EXP DUP2 SLOAD DUP2 PUSH20 0xFFFFFFFFFFFFFFFFFFFFFFFFFFFFFFFFFFFFFFFF MUL NOT AND SWAP1 DUP4 PUSH20 0xFFFFFFFFFFFFFFFFFFFFFFFFFFFFFFFFFFFFFFFF AND MUL OR SWAP1 SSTORE POP PUSH1 0x1 PUSH1 0x10 DUP3 PUSH1 0x40 MLOAD PUSH2 0x1EFF SWAP2 SWAP1 PUSH2 0x47BE JUMP JUMPDEST SWAP1 DUP2 MSTORE PUSH1 0x20 ADD PUSH1 0x40 MLOAD DUP1 SWAP2 SUB SWAP1 KECCAK256 PUSH1 0x0 CALLER PUSH20 0xFFFFFFFFFFFFFFFFFFFFFFFFFFFFFFFFFFFFFFFF AND PUSH20 0xFFFFFFFFFFFFFFFFFFFFFFFFFFFFFFFFFFFFFFFF AND DUP2 MSTORE PUSH1 0x20 ADD SWAP1 DUP2 MSTORE PUSH1 0x20 ADD PUSH1 0x0 KECCAK256 PUSH1 0x0 PUSH2 0x100 EXP DUP2 SLOAD DUP2 PUSH1 0xFF MUL NOT AND SWAP1 DUP4 ISZERO ISZERO MUL OR SWAP1 SSTORE POP POP JUMP JUMPDEST PUSH1 0x5 PUSH1 0x0 SWAP1 SLOAD SWAP1 PUSH2 0x100 EXP SWAP1 DIV PUSH20 0xFFFFFFFFFFFFFFFFFFFFFFFFFFFFFFFFFFFFFFFF AND PUSH20 0xFFFFFFFFFFFFFFFFFFFFFFFFFFFFFFFFFFFFFFFF AND CALLER PUSH20 0xFFFFFFFFFFFFFFFFFFFFFFFFFFFFFFFFFFFFFFFF AND EQ PUSH2 0x1FF4 JUMPI PUSH1 0x40 MLOAD PUSH32 0x8C379A000000000000000000000000000000000000000000000000000000000 DUP2 MSTORE PUSH1 0x4 ADD PUSH2 0x1FEB SWAP1 PUSH2 0x4AA5 JUMP JUMPDEST PUSH1 0x40 MLOAD DUP1 SWAP2 SUB SWAP1 REVERT JUMPDEST PUSH1 0x0 PUSH1 0x4 PUSH1 0x5 DUP2 GT ISZERO PUSH2 0x200A JUMPI PUSH2 0x2009 PUSH2 0x4D86 JUMP JUMPDEST JUMPDEST SWAP1 POP PUSH2 0x2027 PUSH1 0x40 MLOAD DUP1 PUSH1 0x20 ADD PUSH1 0x40 MSTORE DUP1 PUSH1 0x0 DUP2 MSTORE POP DUP5 DUP4 DUP6 PUSH2 0x39D5 JUMP JUMPDEST DUP2 PUSH1 0x4 PUSH1 0x0 PUSH2 0x100 EXP DUP2 SLOAD DUP2 PUSH20 0xFFFFFFFFFFFFFFFFFFFFFFFFFFFFFFFFFFFFFFFF MUL NOT AND SWAP1 DUP4 PUSH20 0xFFFFFFFFFFFFFFFFFFFFFFFFFFFFFFFFFFFFFFFF AND MUL OR SWAP1 SSTORE POP POP POP POP JUMP JUMPDEST PUSH1 0x5 PUSH1 0x2 PUSH1 0x0 CALLER PUSH20 0xFFFFFFFFFFFFFFFFFFFFFFFFFFFFFFFFFFFFFFFF AND PUSH20 0xFFFFFFFFFFFFFFFFFFFFFFFFFFFFFFFFFFFFFFFF AND DUP2 MSTORE PUSH1 0x20 ADD SWAP1 DUP2 MSTORE PUSH1 0x20 ADD PUSH1 0x0 KECCAK256 PUSH1 0x0 ADD SLOAD DUP2 PUSH1 0x5 DUP2 GT ISZERO PUSH2 0x20C5 JUMPI PUSH2 0x20C4 PUSH2 0x4D86 JUMP JUMPDEST JUMPDEST EQ PUSH2 0x2105 JUMPI PUSH1 0x40 MLOAD PUSH32 0x8C379A000000000000000000000000000000000000000000000000000000000 DUP2 MSTORE PUSH1 0x4 ADD PUSH2 0x20FC SWAP1 PUSH2 0x4A65 JUMP JUMPDEST PUSH1 0x40 MLOAD DUP1 SWAP2 SUB SWAP1 REVERT JUMPDEST PUSH9 0x3635C9ADC5DEA00000 CALLER PUSH20 0xFFFFFFFFFFFFFFFFFFFFFFFFFFFFFFFFFFFFFFFF AND BALANCE LT ISZERO PUSH2 0x2168 JUMPI PUSH1 0x40 MLOAD PUSH32 0x8C379A000000000000000000000000000000000000000000000000000000000 DUP2 MSTORE PUSH1 0x4 ADD PUSH2 0x215F SWAP1 PUSH2 0x4A45 JUMP JUMPDEST PUSH1 0x40 MLOAD DUP1 SWAP2 SUB SWAP1 REVERT JUMPDEST DUP2 PUSH20 0xFFFFFFFFFFFFFFFFFFFFFFFFFFFFFFFFFFFFFFFF AND PUSH2 0x8FC PUSH9 0x3635C9ADC5DEA00000 SWAP1 DUP2 ISZERO MUL SWAP1 PUSH1 0x40 MLOAD PUSH1 0x0 PUSH1 0x40 MLOAD DUP1 DUP4 SUB DUP2 DUP6 DUP9 DUP9 CALL SWAP4 POP POP POP POP ISZERO DUP1 ISZERO PUSH2 0x21B7 JUMPI RETURNDATASIZE PUSH1 0x0 DUP1 RETURNDATACOPY RETURNDATASIZE PUSH1 0x0 REVERT JUMPDEST POP POP POP JUMP JUMPDEST PUSH1 0x0 PUSH1 0x1 PUSH1 0x5 DUP2 GT ISZERO PUSH2 0x21D2 JUMPI PUSH2 0x21D1 PUSH2 0x4D86 JUMP JUMPDEST JUMPDEST SWAP1 POP PUSH2 0x21E0 DUP6 DUP6 DUP4 DUP7 PUSH2 0x39D5 JUMP JUMPDEST PUSH1 0x8 DUP4 SWAP1 DUP1 PUSH1 0x1 DUP2 SLOAD ADD DUP1 DUP3 SSTORE DUP1 SWAP2 POP POP PUSH1 0x1 SWAP1 SUB SWAP1 PUSH1 0x0 MSTORE PUSH1 0x20 PUSH1 0x0 KECCAK256 ADD PUSH1 0x0 SWAP1 SWAP2 SWAP1 SWAP2 SWAP1 SWAP2 PUSH2 0x100 EXP DUP2 SLOAD DUP2 PUSH20 0xFFFFFFFFFFFFFFFFFFFFFFFFFFFFFFFFFFFFFFFF MUL NOT AND SWAP1 DUP4 PUSH20 0xFFFFFFFFFFFFFFFFFFFFFFFFFFFFFFFFFFFFFFFF AND MUL OR SWAP1 SSTORE POP PUSH1 0xC PUSH1 0x0 DUP4 PUSH20 0xFFFFFFFFFFFFFFFFFFFFFFFFFFFFFFFFFFFFFFFF AND PUSH20 0xFFFFFFFFFFFFFFFFFFFFFFFFFFFFFFFFFFFFFFFF AND DUP2 MSTORE PUSH1 0x20 ADD SWAP1 DUP2 MSTORE PUSH1 0x20 ADD PUSH1 0x0 KECCAK256 DUP4 SWAP1 DUP1 PUSH1 0x1 DUP2 SLOAD ADD DUP1 DUP3 SSTORE DUP1 SWAP2 POP POP PUSH1 0x1 SWAP1 SUB SWAP1 PUSH1 0x0 MSTORE PUSH1 0x20 PUSH1 0x0 KECCAK256 ADD PUSH1 0x0 SWAP1 SWAP2 SWAP1 SWAP2 SWAP1 SWAP2 PUSH2 0x100 EXP DUP2 SLOAD DUP2 PUSH20 0xFFFFFFFFFFFFFFFFFFFFFFFFFFFFFFFFFFFFFFFF MUL NOT AND SWAP1 DUP4 PUSH20 0xFFFFFFFFFFFFFFFFFFFFFFFFFFFFFFFFFFFFFFFF AND MUL OR SWAP1 SSTORE POP POP POP POP POP POP JUMP JUMPDEST PUSH1 0x60 DUP1 PUSH1 0x0 PUSH1 0x60 PUSH2 0x23D4 PUSH1 0x2 PUSH1 0x0 CALLER PUSH20 0xFFFFFFFFFFFFFFFFFFFFFFFFFFFFFFFFFFFFFFFF AND PUSH20 0xFFFFFFFFFFFFFFFFFFFFFFFFFFFFFFFFFFFFFFFF AND DUP2 MSTORE PUSH1 0x20 ADD SWAP1 DUP2 MSTORE PUSH1 0x20 ADD PUSH1 0x0 KECCAK256 PUSH1 0x1 ADD DUP1 SLOAD PUSH2 0x2341 SWAP1 PUSH2 0x4CAB JUMP JUMPDEST DUP1 PUSH1 0x1F ADD PUSH1 0x20 DUP1 SWAP2 DIV MUL PUSH1 0x20 ADD PUSH1 0x40 MLOAD SWAP1 DUP2 ADD PUSH1 0x40 MSTORE DUP1 SWAP3 SWAP2 SWAP1 DUP2 DUP2 MSTORE PUSH1 0x20 ADD DUP3 DUP1 SLOAD PUSH2 0x236D SWAP1 PUSH2 0x4CAB JUMP JUMPDEST DUP1 ISZERO PUSH2 0x23BA JUMPI DUP1 PUSH1 0x1F LT PUSH2 0x238F JUMPI PUSH2 0x100 DUP1 DUP4 SLOAD DIV MUL DUP4 MSTORE SWAP2 PUSH1 0x20 ADD SWAP2 PUSH2 0x23BA JUMP JUMPDEST DUP3 ADD SWAP2 SWAP1 PUSH1 0x0 MSTORE PUSH1 0x20 PUSH1 0x0 KECCAK256 SWAP1 JUMPDEST DUP2 SLOAD DUP2 MSTORE SWAP1 PUSH1 0x1 ADD SWAP1 PUSH1 0x20 ADD DUP1 DUP4 GT PUSH2 0x239D JUMPI DUP3 SWAP1 SUB PUSH1 0x1F AND DUP3 ADD SWAP2 JUMPDEST POP POP POP POP POP PUSH1 0x40 MLOAD DUP1 PUSH1 0x20 ADD PUSH1 0x40 MSTORE DUP1 PUSH1 0x0 DUP2 MSTORE POP PUSH2 0x3CD8 JUMP JUMPDEST ISZERO PUSH2 0x2414 JUMPI PUSH1 0x40 MLOAD PUSH32 0x8C379A000000000000000000000000000000000000000000000000000000000 DUP2 MSTORE PUSH1 0x4 ADD PUSH2 0x240B SWAP1 PUSH2 0x4A85 JUMP JUMPDEST PUSH1 0x40 MLOAD DUP1 SWAP2 SUB SWAP1 REVERT JUMPDEST PUSH1 0x0 PUSH1 0x2 PUSH1 0x0 CALLER PUSH20 0xFFFFFFFFFFFFFFFFFFFFFFFFFFFFFFFFFFFFFFFF AND PUSH20 0xFFFFFFFFFFFFFFFFFFFFFFFFFFFFFFFFFFFFFFFF AND DUP2 MSTORE PUSH1 0x20 ADD SWAP1 DUP2 MSTORE PUSH1 0x20 ADD PUSH1 0x0 KECCAK256 PUSH1 0x40 MLOAD DUP1 PUSH1 0x80 ADD PUSH1 0x40 MSTORE SWAP1 DUP2 PUSH1 0x0 DUP3 ADD SLOAD DUP2 MSTORE PUSH1 0x20 ADD PUSH1 0x1 DUP3 ADD DUP1 SLOAD PUSH2 0x247A SWAP1 PUSH2 0x4CAB JUMP JUMPDEST DUP1 PUSH1 0x1F ADD PUSH1 0x20 DUP1 SWAP2 DIV MUL PUSH1 0x20 ADD PUSH1 0x40 MLOAD SWAP1 DUP2 ADD PUSH1 0x40 MSTORE DUP1 SWAP3 SWAP2 SWAP1 DUP2 DUP2 MSTORE PUSH1 0x20 ADD DUP3 DUP1 SLOAD PUSH2 0x24A6 SWAP1 PUSH2 0x4CAB JUMP JUMPDEST DUP1 ISZERO PUSH2 0x24F3 JUMPI DUP1 PUSH1 0x1F LT PUSH2 0x24C8 JUMPI PUSH2 0x100 DUP1 DUP4 SLOAD DIV MUL DUP4 MSTORE SWAP2 PUSH1 0x20 ADD SWAP2 PUSH2 0x24F3 JUMP JUMPDEST DUP3 ADD SWAP2 SWAP1 PUSH1 0x0 MSTORE PUSH1 0x20 PUSH1 0x0 KECCAK256 SWAP1 JUMPDEST DUP2 SLOAD DUP2 MSTORE SWAP1 PUSH1 0x1 ADD SWAP1 PUSH1 0x20 ADD DUP1 DUP4 GT PUSH2 0x24D6 JUMPI DUP3 SWAP1 SUB PUSH1 0x1F AND DUP3 ADD SWAP2 JUMPDEST POP POP POP POP POP DUP2 MSTORE PUSH1 0x20 ADD PUSH1 0x2 DUP3 ADD DUP1 SLOAD PUSH2 0x250C SWAP1 PUSH2 0x4CAB JUMP JUMPDEST DUP1 PUSH1 0x1F ADD PUSH1 0x20 DUP1 SWAP2 DIV MUL PUSH1 0x20 ADD PUSH1 0x40 MLOAD SWAP1 DUP2 ADD PUSH1 0x40 MSTORE DUP1 SWAP3 SWAP2 SWAP1 DUP2 DUP2 MSTORE PUSH1 0x20 ADD DUP3 DUP1 SLOAD PUSH2 0x2538 SWAP1 PUSH2 0x4CAB JUMP JUMPDEST DUP1 ISZERO PUSH2 0x2585 JUMPI DUP1 PUSH1 0x1F LT PUSH2 0x255A JUMPI PUSH2 0x100 DUP1 DUP4 SLOAD DIV MUL DUP4 MSTORE SWAP2 PUSH1 0x20 ADD SWAP2 PUSH2 0x2585 JUMP JUMPDEST DUP3 ADD SWAP2 SWAP1 PUSH1 0x0 MSTORE PUSH1 0x20 PUSH1 0x0 KECCAK256 SWAP1 JUMPDEST DUP2 SLOAD DUP2 MSTORE SWAP1 PUSH1 0x1 ADD SWAP1 PUSH1 0x20 ADD DUP1 DUP4 GT PUSH2 0x2568 JUMPI DUP3 SWAP1 SUB PUSH1 0x1F AND DUP3 ADD SWAP2 JUMPDEST POP POP POP POP POP DUP2 MSTORE PUSH1 0x20 ADD PUSH1 0x3 DUP3 ADD DUP1 SLOAD DUP1 PUSH1 0x20 MUL PUSH1 0x20 ADD PUSH1 0x40 MLOAD SWAP1 DUP2 ADD PUSH1 0x40 MSTORE DUP1 SWAP3 SWAP2 SWAP1 DUP2 DUP2 MSTORE PUSH1 0x20 ADD PUSH1 0x0 SWAP1 JUMPDEST DUP3 DUP3 LT ISZERO PUSH2 0x265F JUMPI DUP4 DUP3 SWAP1 PUSH1 0x0 MSTORE PUSH1 0x20 PUSH1 0x0 KECCAK256 ADD DUP1 SLOAD PUSH2 0x25D2 SWAP1 PUSH2 0x4CAB JUMP JUMPDEST DUP1 PUSH1 0x1F ADD PUSH1 0x20 DUP1 SWAP2 DIV MUL PUSH1 0x20 ADD PUSH1 0x40 MLOAD SWAP1 DUP2 ADD PUSH1 0x40 MSTORE DUP1 SWAP3 SWAP2 SWAP1 DUP2 DUP2 MSTORE PUSH1 0x20 ADD DUP3 DUP1 SLOAD PUSH2 0x25FE SWAP1 PUSH2 0x4CAB JUMP JUMPDEST DUP1 ISZERO PUSH2 0x264B JUMPI DUP1 PUSH1 0x1F LT PUSH2 0x2620 JUMPI PUSH2 0x100 DUP1 DUP4 SLOAD DIV MUL DUP4 MSTORE SWAP2 PUSH1 0x20 ADD SWAP2 PUSH2 0x264B JUMP JUMPDEST DUP3 ADD SWAP2 SWAP1 PUSH1 0x0 MSTORE PUSH1 0x20 PUSH1 0x0 KECCAK256 SWAP1 JUMPDEST DUP2 SLOAD DUP2 MSTORE SWAP1 PUSH1 0x1 ADD SWAP1 PUSH1 0x20 ADD DUP1 DUP4 GT PUSH2 0x262E JUMPI DUP3 SWAP1 SUB PUSH1 0x1F AND DUP3 ADD SWAP2 JUMPDEST POP POP POP POP POP DUP2 MSTORE PUSH1 0x20 ADD SWAP1 PUSH1 0x1 ADD SWAP1 PUSH2 0x25B3 JUMP JUMPDEST POP POP POP POP DUP2 MSTORE POP POP SWAP1 POP DUP1 PUSH1 0x20 ADD MLOAD SWAP5 POP DUP1 PUSH1 0x40 ADD MLOAD SWAP4 POP CALLER PUSH20 0xFFFFFFFFFFFFFFFFFFFFFFFFFFFFFFFFFFFFFFFF AND BALANCE SWAP3 POP DUP1 PUSH1 0x60 ADD MLOAD SWAP2 POP POP SWAP1 SWAP2 SWAP3 SWAP4 JUMP JUMPDEST PUSH1 0x0 DUP1 PUSH1 0x5 DUP2 GT ISZERO PUSH2 0x26B4 JUMPI PUSH2 0x26B3 PUSH2 0x4D86 JUMP JUMPDEST JUMPDEST SWAP1 POP PUSH2 0x26C2 DUP5 DUP5 DUP4 DUP6 PUSH2 0x39D5 JUMP JUMPDEST POP POP POP POP JUMP JUMPDEST PUSH1 0x3 PUSH1 0x2 PUSH1 0x0 CALLER PUSH20 0xFFFFFFFFFFFFFFFFFFFFFFFFFFFFFFFFFFFFFFFF AND PUSH20 0xFFFFFFFFFFFFFFFFFFFFFFFFFFFFFFFFFFFFFFFF AND DUP2 MSTORE PUSH1 0x20 ADD SWAP1 DUP2 MSTORE PUSH1 0x20 ADD PUSH1 0x0 KECCAK256 PUSH1 0x0 ADD SLOAD DUP2 PUSH1 0x5 DUP2 GT ISZERO PUSH2 0x2720 JUMPI PUSH2 0x271F PUSH2 0x4D86 JUMP JUMPDEST JUMPDEST EQ PUSH2 0x2760 JUMPI PUSH1 0x40 MLOAD PUSH32 0x8C379A000000000000000000000000000000000000000000000000000000000 DUP2 MSTORE PUSH1 0x4 ADD PUSH2 0x2757 SWAP1 PUSH2 0x4A65 JUMP JUMPDEST PUSH1 0x40 MLOAD DUP1 SWAP2 SUB SWAP1 REVERT JUMPDEST PUSH1 0x0 PUSH1 0x3 PUSH1 0x5 DUP2 GT ISZERO PUSH2 0x2776 JUMPI PUSH2 0x2775 PUSH2 0x4D86 JUMP JUMPDEST JUMPDEST SWAP1 POP PUSH2 0x2784 DUP5 DUP5 DUP4 DUP9 PUSH2 0x39D5 JUMP JUMPDEST PUSH1 0x6 DUP4 SWAP1 DUP1 PUSH1 0x1 DUP2 SLOAD ADD DUP1 DUP3 SSTORE DUP1 SWAP2 POP POP PUSH1 0x1 SWAP1 SUB SWAP1 PUSH1 0x0 MSTORE PUSH1 0x20 PUSH1 0x0 KECCAK256 ADD PUSH1 0x0 SWAP1 SWAP2 SWAP1 SWAP2 SWAP1 SWAP2 POP SWAP1 DUP1 MLOAD SWAP1 PUSH1 0x20 ADD SWAP1 PUSH2 0x27BF SWAP3 SWAP2 SWAP1 PUSH2 0x3D31 JUMP JUMPDEST POP POP POP POP POP POP JUMP JUMPDEST PUSH1 0x0 PUSH1 0x2 PUSH1 0x0 CALLER PUSH20 0xFFFFFFFFFFFFFFFFFFFFFFFFFFFFFFFFFFFFFFFF AND PUSH20 0xFFFFFFFFFFFFFFFFFFFFFFFFFFFFFFFFFFFFFFFF AND DUP2 MSTORE PUSH1 0x20 ADD SWAP1 DUP2 MSTORE PUSH1 0x20 ADD PUSH1 0x0 KECCAK256 PUSH1 0x0 ADD SLOAD DUP2 PUSH1 0x5 DUP2 GT ISZERO PUSH2 0x281F JUMPI PUSH2 0x281E PUSH2 0x4D86 JUMP JUMPDEST JUMPDEST EQ PUSH2 0x285F JUMPI PUSH1 0x40 MLOAD PUSH32 0x8C379A000000000000000000000000000000000000000000000000000000000 DUP2 MSTORE PUSH1 0x4 ADD PUSH2 0x2856 SWAP1 PUSH2 0x4A65 JUMP JUMPDEST PUSH1 0x40 MLOAD DUP1 SWAP2 SUB SWAP1 REVERT JUMPDEST PUSH1 0x0 PUSH1 0x40 MLOAD DUP1 PUSH1 0x80 ADD PUSH1 0x40 MSTORE DUP1 CALLER PUSH20 0xFFFFFFFFFFFFFFFFFFFFFFFFFFFFFFFFFFFFFFFF AND DUP2 MSTORE PUSH1 0x20 ADD PUSH1 0x0 PUSH1 0x5 DUP2 GT ISZERO PUSH2 0x289C JUMPI PUSH2 0x289B PUSH2 0x4D86 JUMP JUMPDEST JUMPDEST DUP2 MSTORE PUSH1 0x20 ADD PUSH1 0x1 PUSH1 0x5 DUP2 GT ISZERO PUSH2 0x28B5 JUMPI PUSH2 0x28B4 PUSH2 0x4D86 JUMP JUMPDEST JUMPDEST DUP2 MSTORE PUSH1 0x20 ADD PUSH1 0x0 ISZERO ISZERO DUP2 MSTORE POP SWAP1 POP DUP1 PUSH1 0xF DUP5 PUSH1 0x40 MLOAD PUSH2 0x28D4 SWAP2 SWAP1 PUSH2 0x47BE JUMP JUMPDEST SWAP1 DUP2 MSTORE PUSH1 0x20 ADD PUSH1 0x40 MLOAD DUP1 SWAP2 SUB SWAP1 KECCAK256 PUSH1 0x0 DUP3 ADD MLOAD DUP2 PUSH1 0x0 ADD PUSH1 0x0 PUSH2 0x100 EXP DUP2 SLOAD DUP2 PUSH20 0xFFFFFFFFFFFFFFFFFFFFFFFFFFFFFFFFFFFFFFFF MUL NOT AND SWAP1 DUP4 PUSH20 0xFFFFFFFFFFFFFFFFFFFFFFFFFFFFFFFFFFFFFFFF AND MUL OR SWAP1 SSTORE POP PUSH1 0x20 DUP3 ADD MLOAD DUP2 PUSH1 0x1 ADD SSTORE PUSH1 0x40 DUP3 ADD MLOAD DUP2 PUSH1 0x2 ADD SSTORE PUSH1 0x60 DUP3 ADD MLOAD DUP2 PUSH1 0x3 ADD PUSH1 0x0 PUSH2 0x100 EXP DUP2 SLOAD DUP2 PUSH1 0xFF MUL NOT AND SWAP1 DUP4 ISZERO ISZERO MUL OR SWAP1 SSTORE POP SWAP1 POP POP PUSH1 0x9 DUP4 SWAP1 DUP1 PUSH1 0x1 DUP2 SLOAD ADD DUP1 DUP3 SSTORE DUP1 SWAP2 POP POP PUSH1 0x1 SWAP1 SUB SWAP1 PUSH1 0x0 MSTORE PUSH1 0x20 PUSH1 0x0 KECCAK256 ADD PUSH1 0x0 SWAP1 SWAP2 SWAP1 SWAP2 SWAP1 SWAP2 POP SWAP1 DUP1 MLOAD SWAP1 PUSH1 0x20 ADD SWAP1 PUSH2 0x299B SWAP3 SWAP2 SWAP1 PUSH2 0x3D31 JUMP JUMPDEST POP POP POP POP JUMP JUMPDEST PUSH1 0x1 PUSH1 0x2 PUSH1 0x0 CALLER PUSH20 0xFFFFFFFFFFFFFFFFFFFFFFFFFFFFFFFFFFFFFFFF AND PUSH20 0xFFFFFFFFFFFFFFFFFFFFFFFFFFFFFFFFFFFFFFFF AND DUP2 MSTORE PUSH1 0x20 ADD SWAP1 DUP2 MSTORE PUSH1 0x20 ADD PUSH1 0x0 KECCAK256 PUSH1 0x0 ADD SLOAD DUP2 PUSH1 0x5 DUP2 GT ISZERO PUSH2 0x29F9 JUMPI PUSH2 0x29F8 PUSH2 0x4D86 JUMP JUMPDEST JUMPDEST EQ PUSH2 0x2A39 JUMPI PUSH1 0x40 MLOAD PUSH32 0x8C379A000000000000000000000000000000000000000000000000000000000 DUP2 MSTORE PUSH1 0x4 ADD PUSH2 0x2A30 SWAP1 PUSH2 0x4A65 JUMP JUMPDEST PUSH1 0x40 MLOAD DUP1 SWAP2 SUB SWAP1 REVERT JUMPDEST PUSH1 0x0 PUSH1 0x40 MLOAD DUP1 PUSH1 0x80 ADD PUSH1 0x40 MSTORE DUP1 CALLER PUSH20 0xFFFFFFFFFFFFFFFFFFFFFFFFFFFFFFFFFFFFFFFF AND DUP2 MSTORE PUSH1 0x20 ADD PUSH1 0x1 PUSH1 0x5 DUP2 GT ISZERO PUSH2 0x2A76 JUMPI PUSH2 0x2A75 PUSH2 0x4D86 JUMP JUMPDEST JUMPDEST DUP2 MSTORE PUSH1 0x20 ADD PUSH1 0x0 PUSH1 0x5 DUP2 GT ISZERO PUSH2 0x2A8F JUMPI PUSH2 0x2A8E PUSH2 0x4D86 JUMP JUMPDEST JUMPDEST DUP2 MSTORE PUSH1 0x20 ADD PUSH1 0x0 ISZERO ISZERO DUP2 MSTORE POP SWAP1 POP DUP1 PUSH1 0xF DUP5 PUSH1 0x40 MLOAD PUSH2 0x2AAE SWAP2 SWAP1 PUSH2 0x47BE JUMP JUMPDEST SWAP1 DUP2 MSTORE PUSH1 0x20 ADD PUSH1 0x40 MLOAD DUP1 SWAP2 SUB SWAP1 KECCAK256 PUSH1 0x0 DUP3 ADD MLOAD DUP2 PUSH1 0x0 ADD PUSH1 0x0 PUSH2 0x100 EXP DUP2 SLOAD DUP2 PUSH20 0xFFFFFFFFFFFFFFFFFFFFFFFFFFFFFFFFFFFFFFFF MUL NOT AND SWAP1 DUP4 PUSH20 0xFFFFFFFFFFFFFFFFFFFFFFFFFFFFFFFFFFFFFFFF AND MUL OR SWAP1 SSTORE POP PUSH1 0x20 DUP3 ADD MLOAD DUP2 PUSH1 0x1 ADD SSTORE PUSH1 0x40 DUP3 ADD MLOAD DUP2 PUSH1 0x2 ADD SSTORE PUSH1 0x60 DUP3 ADD MLOAD DUP2 PUSH1 0x3 ADD PUSH1 0x0 PUSH2 0x100 EXP DUP2 SLOAD DUP2 PUSH1 0xFF MUL NOT AND SWAP1 DUP4 ISZERO ISZERO MUL OR SWAP1 SSTORE POP SWAP1 POP POP PUSH1 0x9 DUP4 SWAP1 DUP1 PUSH1 0x1 DUP2 SLOAD ADD DUP1 DUP3 SSTORE DUP1 SWAP2 POP POP PUSH1 0x1 SWAP1 SUB SWAP1 PUSH1 0x0 MSTORE PUSH1 0x20 PUSH1 0x0 KECCAK256 ADD PUSH1 0x0 SWAP1 SWAP2 SWAP1 SWAP2 SWAP1 SWAP2 POP SWAP1 DUP1 MLOAD SWAP1 PUSH1 0x20 ADD SWAP1 PUSH2 0x2B75 SWAP3 SWAP2 SWAP1 PUSH2 0x3D31 JUMP JUMPDEST POP POP POP POP JUMP JUMPDEST PUSH2 0x2C5E PUSH1 0x2 PUSH1 0x0 CALLER PUSH20 0xFFFFFFFFFFFFFFFFFFFFFFFFFFFFFFFFFFFFFFFF AND PUSH20 0xFFFFFFFFFFFFFFFFFFFFFFFFFFFFFFFFFFFFFFFF AND DUP2 MSTORE PUSH1 0x20 ADD SWAP1 DUP2 MSTORE PUSH1 0x20 ADD PUSH1 0x0 KECCAK256 PUSH1 0x1 ADD DUP1 SLOAD PUSH2 0x2BCB SWAP1 PUSH2 0x4CAB JUMP JUMPDEST DUP1 PUSH1 0x1F ADD PUSH1 0x20 DUP1 SWAP2 DIV MUL PUSH1 0x20 ADD PUSH1 0x40 MLOAD SWAP1 DUP2 ADD PUSH1 0x40 MSTORE DUP1 SWAP3 SWAP2 SWAP1 DUP2 DUP2 MSTORE PUSH1 0x20 ADD DUP3 DUP1 SLOAD PUSH2 0x2BF7 SWAP1 PUSH2 0x4CAB JUMP JUMPDEST DUP1 ISZERO PUSH2 0x2C44 JUMPI DUP1 PUSH1 0x1F LT PUSH2 0x2C19 JUMPI PUSH2 0x100 DUP1 DUP4 SLOAD DIV MUL DUP4 MSTORE SWAP2 PUSH1 0x20 ADD SWAP2 PUSH2 0x2C44 JUMP JUMPDEST DUP3 ADD SWAP2 SWAP1 PUSH1 0x0 MSTORE PUSH1 0x20 PUSH1 0x0 KECCAK256 SWAP1 JUMPDEST DUP2 SLOAD DUP2 MSTORE SWAP1 PUSH1 0x1 ADD SWAP1 PUSH1 0x20 ADD DUP1 DUP4 GT PUSH2 0x2C27 JUMPI DUP3 SWAP1 SUB PUSH1 0x1F AND DUP3 ADD SWAP2 JUMPDEST POP POP POP POP POP PUSH1 0x40 MLOAD DUP1 PUSH1 0x20 ADD PUSH1 0x40 MSTORE DUP1 PUSH1 0x0 DUP2 MSTORE POP PUSH2 0x3CD8 JUMP JUMPDEST ISZERO PUSH2 0x2C9E JUMPI PUSH1 0x40 MLOAD PUSH32 0x8C379A000000000000000000000000000000000000000000000000000000000 DUP2 MSTORE PUSH1 0x4 ADD PUSH2 0x2C95 SWAP1 PUSH2 0x4A85 JUMP JUMPDEST PUSH1 0x40 MLOAD DUP1 SWAP2 SUB SWAP1 REVERT JUMPDEST PUSH1 0x0 ISZERO ISZERO PUSH1 0x10 DUP3 PUSH1 0x40 MLOAD PUSH2 0x2CB2 SWAP2 SWAP1 PUSH2 0x47BE JUMP JUMPDEST SWAP1 DUP2 MSTORE PUSH1 0x20 ADD PUSH1 0x40 MLOAD DUP1 SWAP2 SUB SWAP1 KECCAK256 PUSH1 0x0 CALLER PUSH20 0xFFFFFFFFFFFFFFFFFFFFFFFFFFFFFFFFFFFFFFFF AND PUSH20 0xFFFFFFFFFFFFFFFFFFFFFFFFFFFFFFFFFFFFFFFF AND DUP2 MSTORE PUSH1 0x20 ADD SWAP1 DUP2 MSTORE PUSH1 0x20 ADD PUSH1 0x0 KECCAK256 PUSH1 0x0 SWAP1 SLOAD SWAP1 PUSH2 0x100 EXP SWAP1 DIV PUSH1 0xFF AND ISZERO ISZERO EQ PUSH2 0x2D4D JUMPI PUSH1 0x40 MLOAD PUSH32 0x8C379A000000000000000000000000000000000000000000000000000000000 DUP2 MSTORE PUSH1 0x4 ADD PUSH2 0x2D44 SWAP1 PUSH2 0x4A05 JUMP JUMPDEST PUSH1 0x40 MLOAD DUP1 SWAP2 SUB SWAP1 REVERT JUMPDEST PUSH1 0xE DUP2 PUSH1 0x40 MLOAD PUSH2 0x2D5D SWAP2 SWAP1 PUSH2 0x47BE JUMP JUMPDEST SWAP1 DUP2 MSTORE PUSH1 0x20 ADD PUSH1 0x40 MLOAD DUP1 SWAP2 SUB SWAP1 KECCAK256 PUSH1 0x4 ADD CALLER SWAP1 DUP1 PUSH1 0x1 DUP2 SLOAD ADD DUP1 DUP3 SSTORE DUP1 SWAP2 POP POP PUSH1 0x1 SWAP1 SUB SWAP1 PUSH1 0x0 MSTORE PUSH1 0x20 PUSH1 0x0 KECCAK256 ADD PUSH1 0x0 SWAP1 SWAP2 SWAP1 SWAP2 SWAP1 SWAP2 PUSH2 0x100 EXP DUP2 SLOAD DUP2 PUSH20 0xFFFFFFFFFFFFFFFFFFFFFFFFFFFFFFFFFFFFFFFF MUL NOT AND SWAP1 DUP4 PUSH20 0xFFFFFFFFFFFFFFFFFFFFFFFFFFFFFFFFFFFFFFFF AND MUL OR SWAP1 SSTORE POP PUSH1 0x1 PUSH1 0x10 DUP3 PUSH1 0x40 MLOAD PUSH2 0x2DE1 SWAP2 SWAP1 PUSH2 0x47BE JUMP JUMPDEST SWAP1 DUP2 MSTORE PUSH1 0x20 ADD PUSH1 0x40 MLOAD DUP1 SWAP2 SUB SWAP1 KECCAK256 PUSH1 0x0 CALLER PUSH20 0xFFFFFFFFFFFFFFFFFFFFFFFFFFFFFFFFFFFFFFFF AND PUSH20 0xFFFFFFFFFFFFFFFFFFFFFFFFFFFFFFFFFFFFFFFF AND DUP2 MSTORE PUSH1 0x20 ADD SWAP1 DUP2 MSTORE PUSH1 0x20 ADD PUSH1 0x0 KECCAK256 PUSH1 0x0 PUSH2 0x100 EXP DUP2 SLOAD DUP2 PUSH1 0xFF MUL NOT AND SWAP1 DUP4 ISZERO ISZERO MUL OR SWAP1 SSTORE POP POP JUMP JUMPDEST PUSH1 0x60 DUP1 PUSH1 0x60 DUP1 PUSH1 0x3 PUSH1 0x2 PUSH1 0x0 CALLER PUSH20 0xFFFFFFFFFFFFFFFFFFFFFFFFFFFFFFFFFFFFFFFF AND PUSH20 0xFFFFFFFFFFFFFFFFFFFFFFFFFFFFFFFFFFFFFFFF AND DUP2 MSTORE PUSH1 0x20 ADD SWAP1 DUP2 MSTORE PUSH1 0x20 ADD PUSH1 0x0 KECCAK256 PUSH1 0x0 ADD SLOAD DUP2 PUSH1 0x5 DUP2 GT ISZERO PUSH2 0x2EA4 JUMPI PUSH2 0x2EA3 PUSH2 0x4D86 JUMP JUMPDEST JUMPDEST EQ PUSH2 0x2EE4 JUMPI PUSH1 0x40 MLOAD PUSH32 0x8C379A000000000000000000000000000000000000000000000000000000000 DUP2 MSTORE PUSH1 0x4 ADD PUSH2 0x2EDB SWAP1 PUSH2 0x4A65 JUMP JUMPDEST PUSH1 0x40 MLOAD DUP1 SWAP2 SUB SWAP1 REVERT JUMPDEST PUSH1 0x0 PUSH1 0x2 PUSH1 0x0 CALLER PUSH20 0xFFFFFFFFFFFFFFFFFFFFFFFFFFFFFFFFFFFFFFFF AND PUSH20 0xFFFFFFFFFFFFFFFFFFFFFFFFFFFFFFFFFFFFFFFF AND DUP2 MSTORE PUSH1 0x20 ADD SWAP1 DUP2 MSTORE PUSH1 0x20 ADD PUSH1 0x0 KECCAK256 PUSH1 0x40 MLOAD DUP1 PUSH1 0x80 ADD PUSH1 0x40 MSTORE SWAP1 DUP2 PUSH1 0x0 DUP3 ADD SLOAD DUP2 MSTORE PUSH1 0x20 ADD PUSH1 0x1 DUP3 ADD DUP1 SLOAD PUSH2 0x2F4A SWAP1 PUSH2 0x4CAB JUMP JUMPDEST DUP1 PUSH1 0x1F ADD PUSH1 0x20 DUP1 SWAP2 DIV MUL PUSH1 0x20 ADD PUSH1 0x40 MLOAD SWAP1 DUP2 ADD PUSH1 0x40 MSTORE DUP1 SWAP3 SWAP2 SWAP1 DUP2 DUP2 MSTORE PUSH1 0x20 ADD DUP3 DUP1 SLOAD PUSH2 0x2F76 SWAP1 PUSH2 0x4CAB JUMP JUMPDEST DUP1 ISZERO PUSH2 0x2FC3 JUMPI DUP1 PUSH1 0x1F LT PUSH2 0x2F98 JUMPI PUSH2 0x100 DUP1 DUP4 SLOAD DIV MUL DUP4 MSTORE SWAP2 PUSH1 0x20 ADD SWAP2 PUSH2 0x2FC3 JUMP JUMPDEST DUP3 ADD SWAP2 SWAP1 PUSH1 0x0 MSTORE PUSH1 0x20 PUSH1 0x0 KECCAK256 SWAP1 JUMPDEST DUP2 SLOAD DUP2 MSTORE SWAP1 PUSH1 0x1 ADD SWAP1 PUSH1 0x20 ADD DUP1 DUP4 GT PUSH2 0x2FA6 JUMPI DUP3 SWAP1 SUB PUSH1 0x1F AND DUP3 ADD SWAP2 JUMPDEST POP POP POP POP POP DUP2 MSTORE PUSH1 0x20 ADD PUSH1 0x2 DUP3 ADD DUP1 SLOAD PUSH2 0x2FDC SWAP1 PUSH2 0x4CAB JUMP JUMPDEST DUP1 PUSH1 0x1F ADD PUSH1 0x20 DUP1 SWAP2 DIV MUL PUSH1 0x20 ADD PUSH1 0x40 MLOAD SWAP1 DUP2 ADD PUSH1 0x40 MSTORE DUP1 SWAP3 SWAP2 SWAP1 DUP2 DUP2 MSTORE PUSH1 0x20 ADD DUP3 DUP1 SLOAD PUSH2 0x3008 SWAP1 PUSH2 0x4CAB JUMP JUMPDEST DUP1 ISZERO PUSH2 0x3055 JUMPI DUP1 PUSH1 0x1F LT PUSH2 0x302A JUMPI PUSH2 0x100 DUP1 DUP4 SLOAD DIV MUL DUP4 MSTORE SWAP2 PUSH1 0x20 ADD SWAP2 PUSH2 0x3055 JUMP JUMPDEST DUP3 ADD SWAP2 SWAP1 PUSH1 0x0 MSTORE PUSH1 0x20 PUSH1 0x0 KECCAK256 SWAP1 JUMPDEST DUP2 SLOAD DUP2 MSTORE SWAP1 PUSH1 0x1 ADD SWAP1 PUSH1 0x20 ADD DUP1 DUP4 GT PUSH2 0x3038 JUMPI DUP3 SWAP1 SUB PUSH1 0x1F AND DUP3 ADD SWAP2 JUMPDEST POP POP POP POP POP DUP2 MSTORE PUSH1 0x20 ADD PUSH1 0x3 DUP3 ADD DUP1 SLOAD DUP1 PUSH1 0x20 MUL PUSH1 0x20 ADD PUSH1 0x40 MLOAD SWAP1 DUP2 ADD PUSH1 0x40 MSTORE DUP1 SWAP3 SWAP2 SWAP1 DUP2 DUP2 MSTORE PUSH1 0x20 ADD PUSH1 0x0 SWAP1 JUMPDEST DUP3 DUP3 LT ISZERO PUSH2 0x312F JUMPI DUP4 DUP3 SWAP1 PUSH1 0x0 MSTORE PUSH1 0x20 PUSH1 0x0 KECCAK256 ADD DUP1 SLOAD PUSH2 0x30A2 SWAP1 PUSH2 0x4CAB JUMP JUMPDEST DUP1 PUSH1 0x1F ADD PUSH1 0x20 DUP1 SWAP2 DIV MUL PUSH1 0x20 ADD PUSH1 0x40 MLOAD SWAP1 DUP2 ADD PUSH1 0x40 MSTORE DUP1 SWAP3 SWAP2 SWAP1 DUP2 DUP2 MSTORE PUSH1 0x20 ADD DUP3 DUP1 SLOAD PUSH2 0x30CE SWAP1 PUSH2 0x4CAB JUMP JUMPDEST DUP1 ISZERO PUSH2 0x311B JUMPI DUP1 PUSH1 0x1F LT PUSH2 0x30F0 JUMPI PUSH2 0x100 DUP1 DUP4 SLOAD DIV MUL DUP4 MSTORE SWAP2 PUSH1 0x20 ADD SWAP2 PUSH2 0x311B JUMP JUMPDEST DUP3 ADD SWAP2 SWAP1 PUSH1 0x0 MSTORE PUSH1 0x20 PUSH1 0x0 KECCAK256 SWAP1 JUMPDEST DUP2 SLOAD DUP2 MSTORE SWAP1 PUSH1 0x1 ADD SWAP1 PUSH1 0x20 ADD DUP1 DUP4 GT PUSH2 0x30FE JUMPI DUP3 SWAP1 SUB PUSH1 0x1F AND DUP3 ADD SWAP2 JUMPDEST POP POP POP POP POP DUP2 MSTORE PUSH1 0x20 ADD SWAP1 PUSH1 0x1 ADD SWAP1 PUSH2 0x3083 JUMP JUMPDEST POP POP POP POP DUP2 MSTORE POP POP SWAP1 POP DUP1 PUSH1 0x20 ADD MLOAD SWAP6 POP PUSH1 0x9 DUP1 SLOAD DUP1 PUSH1 0x20 MUL PUSH1 0x20 ADD PUSH1 0x40 MLOAD SWAP1 DUP2 ADD PUSH1 0x40 MSTORE DUP1 SWAP3 SWAP2 SWAP1 DUP2 DUP2 MSTORE PUSH1 0x20 ADD PUSH1 0x0 SWAP1 JUMPDEST DUP3 DUP3 LT ISZERO PUSH2 0x320E JUMPI DUP4 DUP3 SWAP1 PUSH1 0x0 MSTORE PUSH1 0x20 PUSH1 0x0 KECCAK256 ADD DUP1 SLOAD PUSH2 0x3181 SWAP1 PUSH2 0x4CAB JUMP JUMPDEST DUP1 PUSH1 0x1F ADD PUSH1 0x20 DUP1 SWAP2 DIV MUL PUSH1 0x20 ADD PUSH1 0x40 MLOAD SWAP1 DUP2 ADD PUSH1 0x40 MSTORE DUP1 SWAP3 SWAP2 SWAP1 DUP2 DUP2 MSTORE PUSH1 0x20 ADD DUP3 DUP1 SLOAD PUSH2 0x31AD SWAP1 PUSH2 0x4CAB JUMP JUMPDEST DUP1 ISZERO PUSH2 0x31FA JUMPI DUP1 PUSH1 0x1F LT PUSH2 0x31CF JUMPI PUSH2 0x100 DUP1 DUP4 SLOAD DIV MUL DUP4 MSTORE SWAP2 PUSH1 0x20 ADD SWAP2 PUSH2 0x31FA JUMP JUMPDEST DUP3 ADD SWAP2 SWAP1 PUSH1 0x0 MSTORE PUSH1 0x20 PUSH1 0x0 KECCAK256 SWAP1 JUMPDEST DUP2 SLOAD DUP2 MSTORE SWAP1 PUSH1 0x1 ADD SWAP1 PUSH1 0x20 ADD DUP1 DUP4 GT PUSH2 0x31DD JUMPI DUP3 SWAP1 SUB PUSH1 0x1F AND DUP3 ADD SWAP2 JUMPDEST POP POP POP POP POP DUP2 MSTORE PUSH1 0x20 ADD SWAP1 PUSH1 0x1 ADD SWAP1 PUSH2 0x3162 JUMP JUMPDEST POP POP POP POP SWAP5 POP PUSH1 0x6 DUP1 SLOAD DUP1 PUSH1 0x20 MUL PUSH1 0x20 ADD PUSH1 0x40 MLOAD SWAP1 DUP2 ADD PUSH1 0x40 MSTORE DUP1 SWAP3 SWAP2 SWAP1 DUP2 DUP2 MSTORE PUSH1 0x20 ADD PUSH1 0x0 SWAP1 JUMPDEST DUP3 DUP3 LT ISZERO PUSH2 0x32E2 JUMPI DUP4 DUP3 SWAP1 PUSH1 0x0 MSTORE PUSH1 0x20 PUSH1 0x0 KECCAK256 ADD DUP1 SLOAD PUSH2 0x3255 SWAP1 PUSH2 0x4CAB JUMP JUMPDEST DUP1 PUSH1 0x1F ADD PUSH1 0x20 DUP1 SWAP2 DIV MUL PUSH1 0x20 ADD PUSH1 0x40 MLOAD SWAP1 DUP2 ADD PUSH1 0x40 MSTORE DUP1 SWAP3 SWAP2 SWAP1 DUP2 DUP2 MSTORE PUSH1 0x20 ADD DUP3 DUP1 SLOAD PUSH2 0x3281 SWAP1 PUSH2 0x4CAB JUMP JUMPDEST DUP1 ISZERO PUSH2 0x32CE JUMPI DUP1 PUSH1 0x1F LT PUSH2 0x32A3 JUMPI PUSH2 0x100 DUP1 DUP4 SLOAD DIV MUL DUP4 MSTORE SWAP2 PUSH1 0x20 ADD SWAP2 PUSH2 0x32CE JUMP JUMPDEST DUP3 ADD SWAP2 SWAP1 PUSH1 0x0 MSTORE PUSH1 0x20 PUSH1 0x0 KECCAK256 SWAP1 JUMPDEST DUP2 SLOAD DUP2 MSTORE SWAP1 PUSH1 0x1 ADD SWAP1 PUSH1 0x20 ADD DUP1 DUP4 GT PUSH2 0x32B1 JUMPI DUP3 SWAP1 SUB PUSH1 0x1F AND DUP3 ADD SWAP2 JUMPDEST POP POP POP POP POP DUP2 MSTORE PUSH1 0x20 ADD SWAP1 PUSH1 0x1 ADD SWAP1 PUSH2 0x3236 JUMP JUMPDEST POP POP POP POP SWAP4 POP PUSH1 0x8 DUP1 SLOAD DUP1 PUSH1 0x20 MUL PUSH1 0x20 ADD PUSH1 0x40 MLOAD SWAP1 DUP2 ADD PUSH1 0x40 MSTORE DUP1 SWAP3 SWAP2 SWAP1 DUP2 DUP2 MSTORE PUSH1 0x20 ADD DUP3 DUP1 SLOAD DUP1 ISZERO PUSH2 0x336A JUMPI PUSH1 0x20 MUL DUP3 ADD SWAP2 SWAP1 PUSH1 0x0 MSTORE PUSH1 0x20 PUSH1 0x0 KECCAK256 SWAP1 JUMPDEST DUP2 PUSH1 0x0 SWAP1 SLOAD SWAP1 PUSH2 0x100 EXP SWAP1 DIV PUSH20 0xFFFFFFFFFFFFFFFFFFFFFFFFFFFFFFFFFFFFFFFF AND PUSH20 0xFFFFFFFFFFFFFFFFFFFFFFFFFFFFFFFFFFFFFFFF AND DUP2 MSTORE PUSH1 0x20 ADD SWAP1 PUSH1 0x1 ADD SWAP1 DUP1 DUP4 GT PUSH2 0x3320 JUMPI JUMPDEST POP POP POP POP POP SWAP3 POP POP POP SWAP1 SWAP2 SWAP3 SWAP4 JUMP JUMPDEST PUSH1 0x0 PUSH1 0x60 DUP1 PUSH1 0x0 PUSH1 0xF DUP6 PUSH1 0x40 MLOAD PUSH2 0x3390 SWAP2 SWAP1 PUSH2 0x47BE JUMP JUMPDEST SWAP1 DUP2 MSTORE PUSH1 0x20 ADD PUSH1 0x40 MLOAD DUP1 SWAP2 SUB SWAP1 KECCAK256 PUSH1 0x40 MLOAD DUP1 PUSH1 0x80 ADD PUSH1 0x40 MSTORE SWAP1 DUP2 PUSH1 0x0 DUP3 ADD PUSH1 0x0 SWAP1 SLOAD SWAP1 PUSH2 0x100 EXP SWAP1 DIV PUSH20 0xFFFFFFFFFFFFFFFFFFFFFFFFFFFFFFFFFFFFFFFF AND PUSH20 0xFFFFFFFFFFFFFFFFFFFFFFFFFFFFFFFFFFFFFFFF AND PUSH20 0xFFFFFFFFFFFFFFFFFFFFFFFFFFFFFFFFFFFFFFFF AND DUP2 MSTORE PUSH1 0x20 ADD PUSH1 0x1 DUP3 ADD SLOAD DUP2 MSTORE PUSH1 0x20 ADD PUSH1 0x2 DUP3 ADD SLOAD DUP2 MSTORE PUSH1 0x20 ADD PUSH1 0x3 DUP3 ADD PUSH1 0x0 SWAP1 SLOAD SWAP1 PUSH2 0x100 EXP SWAP1 DIV PUSH1 0xFF AND ISZERO ISZERO ISZERO ISZERO DUP2 MSTORE POP POP SWAP1 POP DUP1 PUSH1 0x0 ADD MLOAD SWAP4 POP PUSH1 0x0 DUP1 DUP3 PUSH1 0x20 ADD MLOAD DUP2 MSTORE PUSH1 0x20 ADD SWAP1 DUP2 MSTORE PUSH1 0x20 ADD PUSH1 0x0 KECCAK256 DUP1 SLOAD PUSH2 0x3458 SWAP1 PUSH2 0x4CAB JUMP JUMPDEST DUP1 PUSH1 0x1F ADD PUSH1 0x20 DUP1 SWAP2 DIV MUL PUSH1 0x20 ADD PUSH1 0x40 MLOAD SWAP1 DUP2 ADD PUSH1 0x40 MSTORE DUP1 SWAP3 SWAP2 SWAP1 DUP2 DUP2 MSTORE PUSH1 0x20 ADD DUP3 DUP1 SLOAD PUSH2 0x3484 SWAP1 PUSH2 0x4CAB JUMP JUMPDEST DUP1 ISZERO PUSH2 0x34D1 JUMPI DUP1 PUSH1 0x1F LT PUSH2 0x34A6 JUMPI PUSH2 0x100 DUP1 DUP4 SLOAD DIV MUL DUP4 MSTORE SWAP2 PUSH1 0x20 ADD SWAP2 PUSH2 0x34D1 JUMP JUMPDEST DUP3 ADD SWAP2 SWAP1 PUSH1 0x0 MSTORE PUSH1 0x20 PUSH1 0x0 KECCAK256 SWAP1 JUMPDEST DUP2 SLOAD DUP2 MSTORE SWAP1 PUSH1 0x1 ADD SWAP1 PUSH1 0x20 ADD DUP1 DUP4 GT PUSH2 0x34B4 JUMPI DUP3 SWAP1 SUB PUSH1 0x1F AND DUP3 ADD SWAP2 JUMPDEST POP POP POP POP POP SWAP3 POP PUSH1 0x0 DUP1 DUP3 PUSH1 0x40 ADD MLOAD DUP2 MSTORE PUSH1 0x20 ADD SWAP1 DUP2 MSTORE PUSH1 0x20 ADD PUSH1 0x0 KECCAK256 DUP1 SLOAD PUSH2 0x34F9 SWAP1 PUSH2 0x4CAB JUMP JUMPDEST DUP1 PUSH1 0x1F ADD PUSH1 0x20 DUP1 SWAP2 DIV MUL PUSH1 0x20 ADD PUSH1 0x40 MLOAD SWAP1 DUP2 ADD PUSH1 0x40 MSTORE DUP1 SWAP3 SWAP2 SWAP1 DUP2 DUP2 MSTORE PUSH1 0x20 ADD DUP3 DUP1 SLOAD PUSH2 0x3525 SWAP1 PUSH2 0x4CAB JUMP JUMPDEST DUP1 ISZERO PUSH2 0x3572 JUMPI DUP1 PUSH1 0x1F LT PUSH2 0x3547 JUMPI PUSH2 0x100 DUP1 DUP4 SLOAD DIV MUL DUP4 MSTORE SWAP2 PUSH1 0x20 ADD SWAP2 PUSH2 0x3572 JUMP JUMPDEST DUP3 ADD SWAP2 SWAP1 PUSH1 0x0 MSTORE PUSH1 0x20 PUSH1 0x0 KECCAK256 SWAP1 JUMPDEST DUP2 SLOAD DUP2 MSTORE SWAP1 PUSH1 0x1 ADD SWAP1 PUSH1 0x20 ADD DUP1 DUP4 GT PUSH2 0x3555 JUMPI DUP3 SWAP1 SUB PUSH1 0x1F AND DUP3 ADD SWAP2 JUMPDEST POP POP POP POP POP SWAP2 POP POP SWAP2 SWAP4 SWAP1 SWAP3 POP JUMP JUMPDEST PUSH1 0x3 PUSH1 0x2 PUSH1 0x0 CALLER PUSH20 0xFFFFFFFFFFFFFFFFFFFFFFFFFFFFFFFFFFFFFFFF AND PUSH20 0xFFFFFFFFFFFFFFFFFFFFFFFFFFFFFFFFFFFFFFFF AND DUP2 MSTORE PUSH1 0x20 ADD SWAP1 DUP2 MSTORE PUSH1 0x20 ADD PUSH1 0x0 KECCAK256 PUSH1 0x0 ADD SLOAD DUP2 PUSH1 0x5 DUP2 GT ISZERO PUSH2 0x35D9 JUMPI PUSH2 0x35D8 PUSH2 0x4D86 JUMP JUMPDEST JUMPDEST EQ PUSH2 0x3619 JUMPI PUSH1 0x40 MLOAD PUSH32 0x8C379A000000000000000000000000000000000000000000000000000000000 DUP2 MSTORE PUSH1 0x4 ADD PUSH2 0x3610 SWAP1 PUSH2 0x4A65 JUMP JUMPDEST PUSH1 0x40 MLOAD DUP1 SWAP2 SUB SWAP1 REVERT JUMPDEST PUSH1 0x0 PUSH1 0xC PUSH1 0x0 DUP5 PUSH20 0xFFFFFFFFFFFFFFFFFFFFFFFFFFFFFFFFFFFFFFFF AND PUSH20 0xFFFFFFFFFFFFFFFFFFFFFFFFFFFFFFFFFFFFFFFF AND DUP2 MSTORE PUSH1 0x20 ADD SWAP1 DUP2 MSTORE PUSH1 0x20 ADD PUSH1 0x0 KECCAK256 DUP1 SLOAD DUP1 PUSH1 0x20 MUL PUSH1 0x20 ADD PUSH1 0x40 MLOAD SWAP1 DUP2 ADD PUSH1 0x40 MSTORE DUP1 SWAP3 SWAP2 SWAP1 DUP2 DUP2 MSTORE PUSH1 0x20 ADD DUP3 DUP1 SLOAD DUP1 ISZERO PUSH2 0x36DA JUMPI PUSH1 0x20 MUL DUP3 ADD SWAP2 SWAP1 PUSH1 0x0 MSTORE PUSH1 0x20 PUSH1 0x0 KECCAK256 SWAP1 JUMPDEST DUP2 PUSH1 0x0 SWAP1 SLOAD SWAP1 PUSH2 0x100 EXP SWAP1 DIV PUSH20 0xFFFFFFFFFFFFFFFFFFFFFFFFFFFFFFFFFFFFFFFF AND PUSH20 0xFFFFFFFFFFFFFFFFFFFFFFFFFFFFFFFFFFFFFFFF AND DUP2 MSTORE PUSH1 0x20 ADD SWAP1 PUSH1 0x1 ADD SWAP1 DUP1 DUP4 GT PUSH2 0x3690 JUMPI JUMPDEST POP POP POP POP POP SWAP1 POP PUSH1 0x0 JUMPDEST DUP2 MLOAD DUP2 LT ISZERO PUSH2 0x3768 JUMPI PUSH1 0x0 DUP3 DUP3 DUP2 MLOAD DUP2 LT PUSH2 0x3702 JUMPI PUSH2 0x3701 PUSH2 0x4DE4 JUMP JUMPDEST JUMPDEST PUSH1 0x20 MUL PUSH1 0x20 ADD ADD MLOAD SWAP1 POP PUSH1 0x0 PUSH1 0x2 PUSH1 0x0 DUP4 PUSH20 0xFFFFFFFFFFFFFFFFFFFFFFFFFFFFFFFFFFFFFFFF AND PUSH20 0xFFFFFFFFFFFFFFFFFFFFFFFFFFFFFFFFFFFFFFFF AND DUP2 MSTORE PUSH1 0x20 ADD SWAP1 DUP2 MSTORE PUSH1 0x20 ADD PUSH1 0x0 KECCAK256 PUSH1 0x0 ADD DUP2 SWAP1 SSTORE POP POP DUP1 DUP1 PUSH2 0x3760 SWAP1 PUSH2 0x4D0E JUMP JUMPDEST SWAP2 POP POP PUSH2 0x36E4 JUMP JUMPDEST POP POP POP POP JUMP JUMPDEST PUSH1 0x5 PUSH1 0x0 SWAP1 SLOAD SWAP1 PUSH2 0x100 EXP SWAP1 DIV PUSH20 0xFFFFFFFFFFFFFFFFFFFFFFFFFFFFFFFFFFFFFFFF AND PUSH20 0xFFFFFFFFFFFFFFFFFFFFFFFFFFFFFFFFFFFFFFFF AND CALLER PUSH20 0xFFFFFFFFFFFFFFFFFFFFFFFFFFFFFFFFFFFFFFFF AND EQ PUSH2 0x37FE JUMPI PUSH1 0x40 MLOAD PUSH32 0x8C379A000000000000000000000000000000000000000000000000000000000 DUP2 MSTORE PUSH1 0x4 ADD PUSH2 0x37F5 SWAP1 PUSH2 0x4AA5 JUMP JUMPDEST PUSH1 0x40 MLOAD DUP1 SWAP2 SUB SWAP1 REVERT JUMPDEST PUSH1 0x0 PUSH1 0x3 PUSH1 0x5 DUP2 GT ISZERO PUSH2 0x3814 JUMPI PUSH2 0x3813 PUSH2 0x4D86 JUMP JUMPDEST JUMPDEST SWAP1 POP PUSH2 0x3822 DUP4 DUP4 DUP4 CALLER PUSH2 0x39D5 JUMP JUMPDEST PUSH1 0x6 DUP3 SWAP1 DUP1 PUSH1 0x1 DUP2 SLOAD ADD DUP1 DUP3 SSTORE DUP1 SWAP2 POP POP PUSH1 0x1 SWAP1 SUB SWAP1 PUSH1 0x0 MSTORE PUSH1 0x20 PUSH1 0x0 KECCAK256 ADD PUSH1 0x0 SWAP1 SWAP2 SWAP1 SWAP2 SWAP1 SWAP2 POP SWAP1 DUP1 MLOAD SWAP1 PUSH1 0x20 ADD SWAP1 PUSH2 0x385D SWAP3 SWAP2 SWAP1 PUSH2 0x3D31 JUMP JUMPDEST POP POP POP POP JUMP JUMPDEST PUSH1 0x60 PUSH1 0x3 PUSH1 0x2 PUSH1 0x0 CALLER PUSH20 0xFFFFFFFFFFFFFFFFFFFFFFFFFFFFFFFFFFFFFFFF AND PUSH20 0xFFFFFFFFFFFFFFFFFFFFFFFFFFFFFFFFFFFFFFFF AND DUP2 MSTORE PUSH1 0x20 ADD SWAP1 DUP2 MSTORE PUSH1 0x20 ADD PUSH1 0x0 KECCAK256 PUSH1 0x0 ADD SLOAD DUP2 PUSH1 0x5 DUP2 GT ISZERO PUSH2 0x38BD JUMPI PUSH2 0x38BC PUSH2 0x4D86 JUMP JUMPDEST JUMPDEST EQ PUSH2 0x38FD JUMPI PUSH1 0x40 MLOAD PUSH32 0x8C379A000000000000000000000000000000000000000000000000000000000 DUP2 MSTORE PUSH1 0x4 ADD PUSH2 0x38F4 SWAP1 PUSH2 0x4A65 JUMP JUMPDEST PUSH1 0x40 MLOAD DUP1 SWAP2 SUB SWAP1 REVERT JUMPDEST PUSH1 0x9 DUP1 SLOAD DUP1 PUSH1 0x20 MUL PUSH1 0x20 ADD PUSH1 0x40 MLOAD SWAP1 DUP2 ADD PUSH1 0x40 MSTORE DUP1 SWAP3 SWAP2 SWAP1 DUP2 DUP2 MSTORE PUSH1 0x20 ADD PUSH1 0x0 SWAP1 JUMPDEST DUP3 DUP3 LT ISZERO PUSH2 0x39CB JUMPI DUP4 DUP3 SWAP1 PUSH1 0x0 MSTORE PUSH1 0x20 PUSH1 0x0 KECCAK256 ADD DUP1 SLOAD PUSH2 0x393E SWAP1 PUSH2 0x4CAB JUMP JUMPDEST DUP1 PUSH1 0x1F ADD PUSH1 0x20 DUP1 SWAP2 DIV MUL PUSH1 0x20 ADD PUSH1 0x40 MLOAD SWAP1 DUP2 ADD PUSH1 0x40 MSTORE DUP1 SWAP3 SWAP2 SWAP1 DUP2 DUP2 MSTORE PUSH1 0x20 ADD DUP3 DUP1 SLOAD PUSH2 0x396A SWAP1 PUSH2 0x4CAB JUMP JUMPDEST DUP1 ISZERO PUSH2 0x39B7 JUMPI DUP1 PUSH1 0x1F LT PUSH2 0x398C JUMPI PUSH2 0x100 DUP1 DUP4 SLOAD DIV MUL DUP4 MSTORE SWAP2 PUSH1 0x20 ADD SWAP2 PUSH2 0x39B7 JUMP JUMPDEST DUP3 ADD SWAP2 SWAP1 PUSH1 0x0 MSTORE PUSH1 0x20 PUSH1 0x0 KECCAK256 SWAP1 JUMPDEST DUP2 SLOAD DUP2 MSTORE SWAP1 PUSH1 0x1 ADD SWAP1 PUSH1 0x20 ADD DUP1 DUP4 GT PUSH2 0x399A JUMPI DUP3 SWAP1 SUB PUSH1 0x1F AND DUP3 ADD SWAP2 JUMPDEST POP POP POP POP POP DUP2 MSTORE PUSH1 0x20 ADD SWAP1 PUSH1 0x1 ADD SWAP1 PUSH2 0x391F JUMP JUMPDEST POP POP POP POP SWAP2 POP POP SWAP1 JUMP JUMPDEST DUP1 DUP4 PUSH2 0x3ABA PUSH1 0x2 PUSH1 0x0 DUP5 PUSH20 0xFFFFFFFFFFFFFFFFFFFFFFFFFFFFFFFFFFFFFFFF AND PUSH20 0xFFFFFFFFFFFFFFFFFFFFFFFFFFFFFFFFFFFFFFFF AND DUP2 MSTORE PUSH1 0x20 ADD SWAP1 DUP2 MSTORE PUSH1 0x20 ADD PUSH1 0x0 KECCAK256 PUSH1 0x2 ADD DUP1 SLOAD PUSH2 0x3A27 SWAP1 PUSH2 0x4CAB JUMP JUMPDEST DUP1 PUSH1 0x1F ADD PUSH1 0x20 DUP1 SWAP2 DIV MUL PUSH1 0x20 ADD PUSH1 0x40 MLOAD SWAP1 DUP2 ADD PUSH1 0x40 MSTORE DUP1 SWAP3 SWAP2 SWAP1 DUP2 DUP2 MSTORE PUSH1 0x20 ADD DUP3 DUP1 SLOAD PUSH2 0x3A53 SWAP1 PUSH2 0x4CAB JUMP JUMPDEST DUP1 ISZERO PUSH2 0x3AA0 JUMPI DUP1 PUSH1 0x1F LT PUSH2 0x3A75 JUMPI PUSH2 0x100 DUP1 DUP4 SLOAD DIV MUL DUP4 MSTORE SWAP2 PUSH1 0x20 ADD SWAP2 PUSH2 0x3AA0 JUMP JUMPDEST DUP3 ADD SWAP2 SWAP1 PUSH1 0x0 MSTORE PUSH1 0x20 PUSH1 0x0 KECCAK256 SWAP1 JUMPDEST DUP2 SLOAD DUP2 MSTORE SWAP1 PUSH1 0x1 ADD SWAP1 PUSH1 0x20 ADD DUP1 DUP4 GT PUSH2 0x3A83 JUMPI DUP3 SWAP1 SUB PUSH1 0x1F AND DUP3 ADD SWAP2 JUMPDEST POP POP POP POP POP PUSH1 0x40 MLOAD DUP1 PUSH1 0x20 ADD PUSH1 0x40 MSTORE DUP1 PUSH1 0x0 DUP2 MSTORE POP PUSH2 0x3CD8 JUMP JUMPDEST PUSH2 0x3AF9 JUMPI PUSH1 0x40 MLOAD PUSH32 0x8C379A000000000000000000000000000000000000000000000000000000000 DUP2 MSTORE PUSH1 0x4 ADD PUSH2 0x3AF0 SWAP1 PUSH2 0x4AC5 JUMP JUMPDEST PUSH1 0x40 MLOAD DUP1 SWAP2 SUB SWAP1 REVERT JUMPDEST PUSH1 0x0 PUSH20 0xFFFFFFFFFFFFFFFFFFFFFFFFFFFFFFFFFFFFFFFF AND PUSH1 0x1 DUP3 PUSH1 0x40 MLOAD PUSH2 0x3B21 SWAP2 SWAP1 PUSH2 0x47BE JUMP JUMPDEST SWAP1 DUP2 MSTORE PUSH1 0x20 ADD PUSH1 0x40 MLOAD DUP1 SWAP2 SUB SWAP1 KECCAK256 PUSH1 0x0 SWAP1 SLOAD SWAP1 PUSH2 0x100 EXP SWAP1 DIV PUSH20 0xFFFFFFFFFFFFFFFFFFFFFFFFFFFFFFFFFFFFFFFF AND PUSH20 0xFFFFFFFFFFFFFFFFFFFFFFFFFFFFFFFFFFFFFFFF AND EQ PUSH2 0x3BA6 JUMPI PUSH1 0x40 MLOAD PUSH32 0x8C379A000000000000000000000000000000000000000000000000000000000 DUP2 MSTORE PUSH1 0x4 ADD PUSH2 0x3B9D SWAP1 PUSH2 0x4A25 JUMP JUMPDEST PUSH1 0x40 MLOAD DUP1 SWAP2 SUB SWAP1 REVERT JUMPDEST PUSH1 0x60 PUSH1 0x0 PUSH1 0x40 MLOAD DUP1 PUSH1 0x80 ADD PUSH1 0x40 MSTORE DUP1 DUP8 DUP2 MSTORE PUSH1 0x20 ADD DUP9 DUP2 MSTORE PUSH1 0x20 ADD DUP10 DUP2 MSTORE PUSH1 0x20 ADD DUP4 DUP2 MSTORE POP SWAP1 POP DUP5 PUSH1 0x1 DUP9 PUSH1 0x40 MLOAD PUSH2 0x3BDE SWAP2 SWAP1 PUSH2 0x47BE JUMP JUMPDEST SWAP1 DUP2 MSTORE PUSH1 0x20 ADD PUSH1 0x40 MLOAD DUP1 SWAP2 SUB SWAP1 KECCAK256 PUSH1 0x0 PUSH2 0x100 EXP DUP2 SLOAD DUP2 PUSH20 0xFFFFFFFFFFFFFFFFFFFFFFFFFFFFFFFFFFFFFFFF MUL NOT AND SWAP1 DUP4 PUSH20 0xFFFFFFFFFFFFFFFFFFFFFFFFFFFFFFFFFFFFFFFF AND MUL OR SWAP1 SSTORE POP DUP1 PUSH1 0x2 PUSH1 0x0 DUP8 PUSH20 0xFFFFFFFFFFFFFFFFFFFFFFFFFFFFFFFFFFFFFFFF AND PUSH20 0xFFFFFFFFFFFFFFFFFFFFFFFFFFFFFFFFFFFFFFFF AND DUP2 MSTORE PUSH1 0x20 ADD SWAP1 DUP2 MSTORE PUSH1 0x20 ADD PUSH1 0x0 KECCAK256 PUSH1 0x0 DUP3 ADD MLOAD DUP2 PUSH1 0x0 ADD SSTORE PUSH1 0x20 DUP3 ADD MLOAD DUP2 PUSH1 0x1 ADD SWAP1 DUP1 MLOAD SWAP1 PUSH1 0x20 ADD SWAP1 PUSH2 0x3C90 SWAP3 SWAP2 SWAP1 PUSH2 0x3D31 JUMP JUMPDEST POP PUSH1 0x40 DUP3 ADD MLOAD DUP2 PUSH1 0x2 ADD SWAP1 DUP1 MLOAD SWAP1 PUSH1 0x20 ADD SWAP1 PUSH2 0x3CAD SWAP3 SWAP2 SWAP1 PUSH2 0x3D31 JUMP JUMPDEST POP PUSH1 0x60 DUP3 ADD MLOAD DUP2 PUSH1 0x3 ADD SWAP1 DUP1 MLOAD SWAP1 PUSH1 0x20 ADD SWAP1 PUSH2 0x3CCA SWAP3 SWAP2 SWAP1 PUSH2 0x3E41 JUMP JUMPDEST POP SWAP1 POP POP POP POP POP POP POP POP POP POP JUMP JUMPDEST PUSH1 0x0 DUP2 PUSH1 0x40 MLOAD PUSH1 0x20 ADD PUSH2 0x3CEB SWAP2 SWAP1 PUSH2 0x47BE JUMP JUMPDEST PUSH1 0x40 MLOAD PUSH1 0x20 DUP2 DUP4 SUB SUB DUP2 MSTORE SWAP1 PUSH1 0x40 MSTORE DUP1 MLOAD SWAP1 PUSH1 0x20 ADD KECCAK256 DUP4 PUSH1 0x40 MLOAD PUSH1 0x20 ADD PUSH2 0x3D12 SWAP2 SWAP1 PUSH2 0x47BE JUMP JUMPDEST PUSH1 0x40 MLOAD PUSH1 0x20 DUP2 DUP4 SUB SUB DUP2 MSTORE SWAP1 PUSH1 0x40 MSTORE DUP1 MLOAD SWAP1 PUSH1 0x20 ADD KECCAK256 EQ SWAP1 POP SWAP3 SWAP2 POP POP JUMP JUMPDEST DUP3 DUP1 SLOAD PUSH2 0x3D3D SWAP1 PUSH2 0x4CAB JUMP JUMPDEST SWAP1 PUSH1 0x0 MSTORE PUSH1 0x20 PUSH1 0x0 KECCAK256 SWAP1 PUSH1 0x1F ADD PUSH1 0x20 SWAP1 DIV DUP2 ADD SWAP3 DUP3 PUSH2 0x3D5F JUMPI PUSH1 0x0 DUP6 SSTORE PUSH2 0x3DA6 JUMP JUMPDEST DUP3 PUSH1 0x1F LT PUSH2 0x3D78 JUMPI DUP1 MLOAD PUSH1 0xFF NOT AND DUP4 DUP1 ADD OR DUP6 SSTORE PUSH2 0x3DA6 JUMP JUMPDEST DUP3 DUP1 ADD PUSH1 0x1 ADD DUP6 SSTORE DUP3 ISZERO PUSH2 0x3DA6 JUMPI SWAP2 DUP3 ADD JUMPDEST DUP3 DUP2 GT ISZERO PUSH2 0x3DA5 JUMPI DUP3 MLOAD DUP3 SSTORE SWAP2 PUSH1 0x20 ADD SWAP2 SWAP1 PUSH1 0x1 ADD SWAP1 PUSH2 0x3D8A JUMP JUMPDEST JUMPDEST POP SWAP1 POP PUSH2 0x3DB3 SWAP2 SWAP1 PUSH2 0x3EA1 JUMP JUMPDEST POP SWAP1 JUMP JUMPDEST DUP3 DUP1 SLOAD DUP3 DUP3 SSTORE SWAP1 PUSH1 0x0 MSTORE PUSH1 0x20 PUSH1 0x0 KECCAK256 SWAP1 DUP2 ADD SWAP3 DUP3 ISZERO PUSH2 0x3E30 JUMPI SWAP2 PUSH1 0x20 MUL DUP3 ADD JUMPDEST DUP3 DUP2 GT ISZERO PUSH2 0x3E2F JUMPI DUP3 MLOAD DUP3 PUSH1 0x0 PUSH2 0x100 EXP DUP2 SLOAD DUP2 PUSH20 0xFFFFFFFFFFFFFFFFFFFFFFFFFFFFFFFFFFFFFFFF MUL NOT AND SWAP1 DUP4 PUSH20 0xFFFFFFFFFFFFFFFFFFFFFFFFFFFFFFFFFFFFFFFF AND MUL OR SWAP1 SSTORE POP SWAP2 PUSH1 0x20 ADD SWAP2 SWAP1 PUSH1 0x1 ADD SWAP1 PUSH2 0x3DD7 JUMP JUMPDEST JUMPDEST POP SWAP1 POP PUSH2 0x3E3D SWAP2 SWAP1 PUSH2 0x3EA1 JUMP JUMPDEST POP SWAP1 JUMP JUMPDEST DUP3 DUP1 SLOAD DUP3 DUP3 SSTORE SWAP1 PUSH1 0x0 MSTORE PUSH1 0x20 PUSH1 0x0 KECCAK256 SWAP1 DUP2 ADD SWAP3 DUP3 ISZERO PUSH2 0x3E90 JUMPI SWAP2 PUSH1 0x20 MUL DUP3 ADD JUMPDEST DUP3 DUP2 GT ISZERO PUSH2 0x3E8F JUMPI DUP3 MLOAD DUP3 SWAP1 DUP1 MLOAD SWAP1 PUSH1 0x20 ADD SWAP1 PUSH2 0x3E7F SWAP3 SWAP2 SWAP1 PUSH2 0x3D31 JUMP JUMPDEST POP SWAP2 PUSH1 0x20 ADD SWAP2 SWAP1 PUSH1 0x1 ADD SWAP1 PUSH2 0x3E61 JUMP JUMPDEST JUMPDEST POP SWAP1 POP PUSH2 0x3E9D SWAP2 SWAP1 PUSH2 0x3EBE JUMP JUMPDEST POP SWAP1 JUMP JUMPDEST JUMPDEST DUP1 DUP3 GT ISZERO PUSH2 0x3EBA JUMPI PUSH1 0x0 DUP2 PUSH1 0x0 SWAP1 SSTORE POP PUSH1 0x1 ADD PUSH2 0x3EA2 JUMP JUMPDEST POP SWAP1 JUMP JUMPDEST JUMPDEST DUP1 DUP3 GT ISZERO PUSH2 0x3EDE JUMPI PUSH1 0x0 DUP2 DUP2 PUSH2 0x3ED5 SWAP2 SWAP1 PUSH2 0x3EE2 JUMP JUMPDEST POP PUSH1 0x1 ADD PUSH2 0x3EBF JUMP JUMPDEST POP SWAP1 JUMP JUMPDEST POP DUP1 SLOAD PUSH2 0x3EEE SWAP1 PUSH2 0x4CAB JUMP JUMPDEST PUSH1 0x0 DUP3 SSTORE DUP1 PUSH1 0x1F LT PUSH2 0x3F00 JUMPI POP PUSH2 0x3F1F JUMP JUMPDEST PUSH1 0x1F ADD PUSH1 0x20 SWAP1 DIV SWAP1 PUSH1 0x0 MSTORE PUSH1 0x20 PUSH1 0x0 KECCAK256 SWAP1 DUP2 ADD SWAP1 PUSH2 0x3F1E SWAP2 SWAP1 PUSH2 0x3EA1 JUMP JUMPDEST JUMPDEST POP JUMP JUMPDEST PUSH1 0x0 PUSH2 0x3F35 PUSH2 0x3F30 DUP5 PUSH2 0x4B2A JUMP JUMPDEST PUSH2 0x4B05 JUMP JUMPDEST SWAP1 POP DUP3 DUP2 MSTORE PUSH1 0x20 DUP2 ADD DUP5 DUP5 DUP5 ADD GT ISZERO PUSH2 0x3F51 JUMPI PUSH2 0x3F50 PUSH2 0x4E47 JUMP JUMPDEST JUMPDEST PUSH2 0x3F5C DUP5 DUP3 DUP6 PUSH2 0x4C69 JUMP JUMPDEST POP SWAP4 SWAP3 POP POP POP JUMP JUMPDEST PUSH1 0x0 DUP2 CALLDATALOAD SWAP1 POP PUSH2 0x3F73 DUP2 PUSH2 0x4FD5 JUMP JUMPDEST SWAP3 SWAP2 POP POP JUMP JUMPDEST PUSH1 0x0 DUP2 CALLDATALOAD SWAP1 POP PUSH2 0x3F88 DUP2 PUSH2 0x4FEC JUMP JUMPDEST SWAP3 SWAP2 POP POP JUMP JUMPDEST PUSH1 0x0 DUP2 CALLDATALOAD SWAP1 POP PUSH2 0x3F9D DUP2 PUSH2 0x5003 JUMP JUMPDEST SWAP3 SWAP2 POP POP JUMP JUMPDEST PUSH1 0x0 DUP2 CALLDATALOAD SWAP1 POP PUSH2 0x3FB2 DUP2 PUSH2 0x501A JUMP JUMPDEST SWAP3 SWAP2 POP POP JUMP JUMPDEST PUSH1 0x0 DUP3 PUSH1 0x1F DUP4 ADD SLT PUSH2 0x3FCD JUMPI PUSH2 0x3FCC PUSH2 0x4E42 JUMP JUMPDEST JUMPDEST DUP2 CALLDATALOAD PUSH2 0x3FDD DUP5 DUP3 PUSH1 0x20 DUP7 ADD PUSH2 0x3F22 JUMP JUMPDEST SWAP2 POP POP SWAP3 SWAP2 POP POP JUMP JUMPDEST PUSH1 0x0 PUSH1 0x20 DUP3 DUP5 SUB SLT ISZERO PUSH2 0x3FFC JUMPI PUSH2 0x3FFB PUSH2 0x4E51 JUMP JUMPDEST JUMPDEST PUSH1 0x0 PUSH2 0x400A DUP5 DUP3 DUP6 ADD PUSH2 0x3F64 JUMP JUMPDEST SWAP2 POP POP SWAP3 SWAP2 POP POP JUMP JUMPDEST PUSH1 0x0 PUSH1 0x20 DUP3 DUP5 SUB SLT ISZERO PUSH2 0x4029 JUMPI PUSH2 0x4028 PUSH2 0x4E51 JUMP JUMPDEST JUMPDEST PUSH1 0x0 PUSH2 0x4037 DUP5 DUP3 DUP6 ADD PUSH2 0x3F79 JUMP JUMPDEST SWAP2 POP POP SWAP3 SWAP2 POP POP JUMP JUMPDEST PUSH1 0x0 DUP1 PUSH1 0x0 PUSH1 0x60 DUP5 DUP7 SUB SLT ISZERO PUSH2 0x4059 JUMPI PUSH2 0x4058 PUSH2 0x4E51 JUMP JUMPDEST JUMPDEST PUSH1 0x0 PUSH2 0x4067 DUP7 DUP3 DUP8 ADD PUSH2 0x3F64 JUMP JUMPDEST SWAP4 POP POP PUSH1 0x20 DUP5 ADD CALLDATALOAD PUSH8 0xFFFFFFFFFFFFFFFF DUP2 GT ISZERO PUSH2 0x4088 JUMPI PUSH2 0x4087 PUSH2 0x4E4C JUMP JUMPDEST JUMPDEST PUSH2 0x4094 DUP7 DUP3 DUP8 ADD PUSH2 0x3FB8 JUMP JUMPDEST SWAP3 POP POP PUSH1 0x40 DUP5 ADD CALLDATALOAD PUSH8 0xFFFFFFFFFFFFFFFF DUP2 GT ISZERO PUSH2 0x40B5 JUMPI PUSH2 0x40B4 PUSH2 0x4E4C JUMP JUMPDEST JUMPDEST PUSH2 0x40C1 DUP7 DUP3 DUP8 ADD PUSH2 0x3FB8 JUMP JUMPDEST SWAP2 POP POP SWAP3 POP SWAP3 POP SWAP3 JUMP JUMPDEST PUSH1 0x0 DUP1 PUSH1 0x0 DUP1 PUSH1 0x80 DUP6 DUP8 SUB SLT ISZERO PUSH2 0x40E5 JUMPI PUSH2 0x40E4 PUSH2 0x4E51 JUMP JUMPDEST JUMPDEST PUSH1 0x0 PUSH2 0x40F3 DUP8 DUP3 DUP9 ADD PUSH2 0x3F64 JUMP JUMPDEST SWAP5 POP POP PUSH1 0x20 DUP6 ADD CALLDATALOAD PUSH8 0xFFFFFFFFFFFFFFFF DUP2 GT ISZERO PUSH2 0x4114 JUMPI PUSH2 0x4113 PUSH2 0x4E4C JUMP JUMPDEST JUMPDEST PUSH2 0x4120 DUP8 DUP3 DUP9 ADD PUSH2 0x3FB8 JUMP JUMPDEST SWAP4 POP POP PUSH1 0x40 DUP6 ADD CALLDATALOAD PUSH8 0xFFFFFFFFFFFFFFFF DUP2 GT ISZERO PUSH2 0x4141 JUMPI PUSH2 0x4140 PUSH2 0x4E4C JUMP JUMPDEST JUMPDEST PUSH2 0x414D DUP8 DUP3 DUP9 ADD PUSH2 0x3FB8 JUMP JUMPDEST SWAP3 POP POP PUSH1 0x60 PUSH2 0x415E DUP8 DUP3 DUP9 ADD PUSH2 0x3FA3 JUMP JUMPDEST SWAP2 POP POP SWAP3 SWAP6 SWAP2 SWAP5 POP SWAP3 POP JUMP JUMPDEST PUSH1 0x0 DUP1 PUSH1 0x0 DUP1 PUSH1 0x80 DUP6 DUP8 SUB SLT ISZERO PUSH2 0x4184 JUMPI PUSH2 0x4183 PUSH2 0x4E51 JUMP JUMPDEST JUMPDEST PUSH1 0x0 PUSH2 0x4192 DUP8 DUP3 DUP9 ADD PUSH2 0x3F64 JUMP JUMPDEST SWAP5 POP POP PUSH1 0x20 DUP6 ADD CALLDATALOAD PUSH8 0xFFFFFFFFFFFFFFFF DUP2 GT ISZERO PUSH2 0x41B3 JUMPI PUSH2 0x41B2 PUSH2 0x4E4C JUMP JUMPDEST JUMPDEST PUSH2 0x41BF DUP8 DUP3 DUP9 ADD PUSH2 0x3FB8 JUMP JUMPDEST SWAP4 POP POP PUSH1 0x40 DUP6 ADD CALLDATALOAD PUSH8 0xFFFFFFFFFFFFFFFF DUP2 GT ISZERO PUSH2 0x41E0 JUMPI PUSH2 0x41DF PUSH2 0x4E4C JUMP JUMPDEST JUMPDEST PUSH2 0x41EC DUP8 DUP3 DUP9 ADD PUSH2 0x3FB8 JUMP JUMPDEST SWAP3 POP POP PUSH1 0x60 DUP6 ADD CALLDATALOAD PUSH8 0xFFFFFFFFFFFFFFFF DUP2 GT ISZERO PUSH2 0x420D JUMPI PUSH2 0x420C PUSH2 0x4E4C JUMP JUMPDEST JUMPDEST PUSH2 0x4219 DUP8 DUP3 DUP9 ADD PUSH2 0x3FB8 JUMP JUMPDEST SWAP2 POP POP SWAP3 SWAP6 SWAP2 SWAP5 POP SWAP3 POP JUMP JUMPDEST PUSH1 0x0 PUSH1 0x20 DUP3 DUP5 SUB SLT ISZERO PUSH2 0x423B JUMPI PUSH2 0x423A PUSH2 0x4E51 JUMP JUMPDEST JUMPDEST PUSH1 0x0 DUP3 ADD CALLDATALOAD PUSH8 0xFFFFFFFFFFFFFFFF DUP2 GT ISZERO PUSH2 0x4259 JUMPI PUSH2 0x4258 PUSH2 0x4E4C JUMP JUMPDEST JUMPDEST PUSH2 0x4265 DUP5 DUP3 DUP6 ADD PUSH2 0x3FB8 JUMP JUMPDEST SWAP2 POP POP SWAP3 SWAP2 POP POP JUMP JUMPDEST PUSH1 0x0 DUP1 PUSH1 0x40 DUP4 DUP6 SUB SLT ISZERO PUSH2 0x4285 JUMPI PUSH2 0x4284 PUSH2 0x4E51 JUMP JUMPDEST JUMPDEST PUSH1 0x0 DUP4 ADD CALLDATALOAD PUSH8 0xFFFFFFFFFFFFFFFF DUP2 GT ISZERO PUSH2 0x42A3 JUMPI PUSH2 0x42A2 PUSH2 0x4E4C JUMP JUMPDEST JUMPDEST PUSH2 0x42AF DUP6 DUP3 DUP7 ADD PUSH2 0x3FB8 JUMP JUMPDEST SWAP3 POP POP PUSH1 0x20 PUSH2 0x42C0 DUP6 DUP3 DUP7 ADD PUSH2 0x3F64 JUMP JUMPDEST SWAP2 POP POP SWAP3 POP SWAP3 SWAP1 POP JUMP JUMPDEST PUSH1 0x0 DUP1 PUSH1 0x40 DUP4 DUP6 SUB SLT ISZERO PUSH2 0x42E1 JUMPI PUSH2 0x42E0 PUSH2 0x4E51 JUMP JUMPDEST JUMPDEST PUSH1 0x0 DUP4 ADD CALLDATALOAD PUSH8 0xFFFFFFFFFFFFFFFF DUP2 GT ISZERO PUSH2 0x42FF JUMPI PUSH2 0x42FE PUSH2 0x4E4C JUMP JUMPDEST JUMPDEST PUSH2 0x430B DUP6 DUP3 DUP7 ADD PUSH2 0x3FB8 JUMP JUMPDEST SWAP3 POP POP PUSH1 0x20 PUSH2 0x431C DUP6 DUP3 DUP7 ADD PUSH2 0x3F8E JUMP JUMPDEST SWAP2 POP POP SWAP3 POP SWAP3 SWAP1 POP JUMP JUMPDEST PUSH1 0x0 DUP1 PUSH1 0x40 DUP4 DUP6 SUB SLT ISZERO PUSH2 0x433D JUMPI PUSH2 0x433C PUSH2 0x4E51 JUMP JUMPDEST JUMPDEST PUSH1 0x0 DUP4 ADD CALLDATALOAD PUSH8 0xFFFFFFFFFFFFFFFF DUP2 GT ISZERO PUSH2 0x435B JUMPI PUSH2 0x435A PUSH2 0x4E4C JUMP JUMPDEST JUMPDEST PUSH2 0x4367 DUP6 DUP3 DUP7 ADD PUSH2 0x3FB8 JUMP JUMPDEST SWAP3 POP POP PUSH1 0x20 DUP4 ADD CALLDATALOAD PUSH8 0xFFFFFFFFFFFFFFFF DUP2 GT ISZERO PUSH2 0x4388 JUMPI PUSH2 0x4387 PUSH2 0x4E4C JUMP JUMPDEST JUMPDEST PUSH2 0x4394 DUP6 DUP3 DUP7 ADD PUSH2 0x3FB8 JUMP JUMPDEST SWAP2 POP POP SWAP3 POP SWAP3 SWAP1 POP JUMP JUMPDEST PUSH1 0x0 DUP1 PUSH1 0x0 PUSH1 0x60 DUP5 DUP7 SUB SLT ISZERO PUSH2 0x43B7 JUMPI PUSH2 0x43B6 PUSH2 0x4E51 JUMP JUMPDEST JUMPDEST PUSH1 0x0 DUP5 ADD CALLDATALOAD PUSH8 0xFFFFFFFFFFFFFFFF DUP2 GT ISZERO PUSH2 0x43D5 JUMPI PUSH2 0x43D4 PUSH2 0x4E4C JUMP JUMPDEST JUMPDEST PUSH2 0x43E1 DUP7 DUP3 DUP8 ADD PUSH2 0x3FB8 JUMP JUMPDEST SWAP4 POP POP PUSH1 0x20 DUP5 ADD CALLDATALOAD PUSH8 0xFFFFFFFFFFFFFFFF DUP2 GT ISZERO PUSH2 0x4402 JUMPI PUSH2 0x4401 PUSH2 0x4E4C JUMP JUMPDEST JUMPDEST PUSH2 0x440E DUP7 DUP3 DUP8 ADD PUSH2 0x3FB8 JUMP JUMPDEST SWAP3 POP POP PUSH1 0x40 PUSH2 0x441F DUP7 DUP3 DUP8 ADD PUSH2 0x3F64 JUMP JUMPDEST SWAP2 POP POP SWAP3 POP SWAP3 POP SWAP3 JUMP JUMPDEST PUSH1 0x0 DUP1 PUSH1 0x0 DUP1 PUSH1 0x80 DUP6 DUP8 SUB SLT ISZERO PUSH2 0x4443 JUMPI PUSH2 0x4442 PUSH2 0x4E51 JUMP JUMPDEST JUMPDEST PUSH1 0x0 DUP6 ADD CALLDATALOAD PUSH8 0xFFFFFFFFFFFFFFFF DUP2 GT ISZERO PUSH2 0x4461 JUMPI PUSH2 0x4460 PUSH2 0x4E4C JUMP JUMPDEST JUMPDEST PUSH2 0x446D DUP8 DUP3 DUP9 ADD PUSH2 0x3FB8 JUMP JUMPDEST SWAP5 POP POP PUSH1 0x20 DUP6 ADD CALLDATALOAD PUSH8 0xFFFFFFFFFFFFFFFF DUP2 GT ISZERO PUSH2 0x448E JUMPI PUSH2 0x448D PUSH2 0x4E4C JUMP JUMPDEST JUMPDEST PUSH2 0x449A DUP8 DUP3 DUP9 ADD PUSH2 0x3FB8 JUMP JUMPDEST SWAP4 POP POP PUSH1 0x40 PUSH2 0x44AB DUP8 DUP3 DUP9 ADD PUSH2 0x3F64 JUMP JUMPDEST SWAP3 POP POP PUSH1 0x60 PUSH2 0x44BC DUP8 DUP3 DUP9 ADD PUSH2 0x3F64 JUMP JUMPDEST SWAP2 POP POP SWAP3 SWAP6 SWAP2 SWAP5 POP SWAP3 POP JUMP JUMPDEST PUSH1 0x0 PUSH2 0x44D4 DUP4 DUP4 PUSH2 0x44F4 JUMP JUMPDEST PUSH1 0x20 DUP4 ADD SWAP1 POP SWAP3 SWAP2 POP POP JUMP JUMPDEST PUSH1 0x0 PUSH2 0x44EC DUP4 DUP4 PUSH2 0x45F4 JUMP JUMPDEST SWAP1 POP SWAP3 SWAP2 POP POP JUMP JUMPDEST PUSH2 0x44FD DUP2 PUSH2 0x4C05 JUMP JUMPDEST DUP3 MSTORE POP POP JUMP JUMPDEST PUSH2 0x450C DUP2 PUSH2 0x4C05 JUMP JUMPDEST DUP3 MSTORE POP POP JUMP JUMPDEST PUSH1 0x0 PUSH2 0x451D DUP3 PUSH2 0x4B7B JUMP JUMPDEST PUSH2 0x4527 DUP2 DUP6 PUSH2 0x4BB6 JUMP JUMPDEST SWAP4 POP PUSH2 0x4532 DUP4 PUSH2 0x4B5B JUMP JUMPDEST DUP1 PUSH1 0x0 JUMPDEST DUP4 DUP2 LT ISZERO PUSH2 0x4563 JUMPI DUP2 MLOAD PUSH2 0x454A DUP9 DUP3 PUSH2 0x44C8 JUMP JUMPDEST SWAP8 POP PUSH2 0x4555 DUP4 PUSH2 0x4B9C JUMP JUMPDEST SWAP3 POP POP PUSH1 0x1 DUP2 ADD SWAP1 POP PUSH2 0x4536 JUMP JUMPDEST POP DUP6 SWAP4 POP POP POP POP SWAP3 SWAP2 POP POP JUMP JUMPDEST PUSH1 0x0 PUSH2 0x457B DUP3 PUSH2 0x4B86 JUMP JUMPDEST PUSH2 0x4585 DUP2 DUP6 PUSH2 0x4BC7 JUMP JUMPDEST SWAP4 POP DUP4 PUSH1 0x20 DUP3 MUL DUP6 ADD PUSH2 0x4597 DUP6 PUSH2 0x4B6B JUMP JUMPDEST DUP1 PUSH1 0x0 JUMPDEST DUP6 DUP2 LT ISZERO PUSH2 0x45D3 JUMPI DUP5 DUP5 SUB DUP10 MSTORE DUP2 MLOAD PUSH2 0x45B4 DUP6 DUP3 PUSH2 0x44E0 JUMP JUMPDEST SWAP5 POP PUSH2 0x45BF DUP4 PUSH2 0x4BA9 JUMP JUMPDEST SWAP3 POP PUSH1 0x20 DUP11 ADD SWAP10 POP POP PUSH1 0x1 DUP2 ADD SWAP1 POP PUSH2 0x459B JUMP JUMPDEST POP DUP3 SWAP8 POP DUP8 SWAP6 POP POP POP POP POP POP SWAP3 SWAP2 POP POP JUMP JUMPDEST PUSH2 0x45EE DUP2 PUSH2 0x4C35 JUMP JUMPDEST DUP3 MSTORE POP POP JUMP JUMPDEST PUSH1 0x0 PUSH2 0x45FF DUP3 PUSH2 0x4B91 JUMP JUMPDEST PUSH2 0x4609 DUP2 DUP6 PUSH2 0x4BD8 JUMP JUMPDEST SWAP4 POP PUSH2 0x4619 DUP2 DUP6 PUSH1 0x20 DUP7 ADD PUSH2 0x4C78 JUMP JUMPDEST PUSH2 0x4622 DUP2 PUSH2 0x4E56 JUMP JUMPDEST DUP5 ADD SWAP2 POP POP SWAP3 SWAP2 POP POP JUMP JUMPDEST PUSH1 0x0 PUSH2 0x4638 DUP3 PUSH2 0x4B91 JUMP JUMPDEST PUSH2 0x4642 DUP2 DUP6 PUSH2 0x4BE9 JUMP JUMPDEST SWAP4 POP PUSH2 0x4652 DUP2 DUP6 PUSH1 0x20 DUP7 ADD PUSH2 0x4C78 JUMP JUMPDEST PUSH2 0x465B DUP2 PUSH2 0x4E56 JUMP JUMPDEST DUP5 ADD SWAP2 POP POP SWAP3 SWAP2 POP POP JUMP JUMPDEST PUSH1 0x0 PUSH2 0x4671 DUP3 PUSH2 0x4B91 JUMP JUMPDEST PUSH2 0x467B DUP2 DUP6 PUSH2 0x4BFA JUMP JUMPDEST SWAP4 POP PUSH2 0x468B DUP2 DUP6 PUSH1 0x20 DUP7 ADD PUSH2 0x4C78 JUMP JUMPDEST DUP1 DUP5 ADD SWAP2 POP POP SWAP3 SWAP2 POP POP JUMP JUMPDEST PUSH1 0x0 PUSH2 0x46A4 PUSH1 0x1B DUP4 PUSH2 0x4BE9 JUMP JUMPDEST SWAP2 POP PUSH2 0x46AF DUP3 PUSH2 0x4E67 JUMP JUMPDEST PUSH1 0x20 DUP3 ADD SWAP1 POP SWAP2 SWAP1 POP JUMP JUMPDEST PUSH1 0x0 PUSH2 0x46C7 PUSH1 0x22 DUP4 PUSH2 0x4BE9 JUMP JUMPDEST SWAP2 POP PUSH2 0x46D2 DUP3 PUSH2 0x4E90 JUMP JUMPDEST PUSH1 0x40 DUP3 ADD SWAP1 POP SWAP2 SWAP1 POP JUMP JUMPDEST PUSH1 0x0 PUSH2 0x46EA PUSH1 0xB DUP4 PUSH2 0x4BE9 JUMP JUMPDEST SWAP2 POP PUSH2 0x46F5 DUP3 PUSH2 0x4EDF JUMP JUMPDEST PUSH1 0x20 DUP3 ADD SWAP1 POP SWAP2 SWAP1 POP JUMP JUMPDEST PUSH1 0x0 PUSH2 0x470D PUSH1 0x9 DUP4 PUSH2 0x4BE9 JUMP JUMPDEST SWAP2 POP PUSH2 0x4718 DUP3 PUSH2 0x4F08 JUMP JUMPDEST PUSH1 0x20 DUP3 ADD SWAP1 POP SWAP2 SWAP1 POP JUMP JUMPDEST PUSH1 0x0 PUSH2 0x4730 PUSH1 0xC DUP4 PUSH2 0x4BE9 JUMP JUMPDEST SWAP2 POP PUSH2 0x473B DUP3 PUSH2 0x4F31 JUMP JUMPDEST PUSH1 0x20 DUP3 ADD SWAP1 POP SWAP2 SWAP1 POP JUMP JUMPDEST PUSH1 0x0 PUSH2 0x4753 PUSH1 0xD DUP4 PUSH2 0x4BE9 JUMP JUMPDEST SWAP2 POP PUSH2 0x475E DUP3 PUSH2 0x4F5A JUMP JUMPDEST PUSH1 0x20 DUP3 ADD SWAP1 POP SWAP2 SWAP1 POP JUMP JUMPDEST PUSH1 0x0 PUSH2 0x4776 PUSH1 0x16 DUP4 PUSH2 0x4BE9 JUMP JUMPDEST SWAP2 POP PUSH2 0x4781 DUP3 PUSH2 0x4F83 JUMP JUMPDEST PUSH1 0x20 DUP3 ADD SWAP1 POP SWAP2 SWAP1 POP JUMP JUMPDEST PUSH1 0x0 PUSH2 0x4799 PUSH1 0xB DUP4 PUSH2 0x4BE9 JUMP JUMPDEST SWAP2 POP PUSH2 0x47A4 DUP3 PUSH2 0x4FAC JUMP JUMPDEST PUSH1 0x20 DUP3 ADD SWAP1 POP SWAP2 SWAP1 POP JUMP JUMPDEST PUSH2 0x47B8 DUP2 PUSH2 0x4C5F JUMP JUMPDEST DUP3 MSTORE POP POP JUMP JUMPDEST PUSH1 0x0 PUSH2 0x47CA DUP3 DUP5 PUSH2 0x4666 JUMP JUMPDEST SWAP2 POP DUP2 SWAP1 POP SWAP3 SWAP2 POP POP JUMP JUMPDEST PUSH1 0x0 PUSH1 0xC0 DUP3 ADD SWAP1 POP PUSH2 0x47EA PUSH1 0x0 DUP4 ADD DUP10 PUSH2 0x4503 JUMP JUMPDEST PUSH2 0x47F7 PUSH1 0x20 DUP4 ADD DUP9 PUSH2 0x4503 JUMP JUMPDEST DUP2 DUP2 SUB PUSH1 0x40 DUP4 ADD MSTORE PUSH2 0x4809 DUP2 DUP8 PUSH2 0x462D JUMP JUMPDEST SWAP1 POP PUSH2 0x4818 PUSH1 0x60 DUP4 ADD DUP7 PUSH2 0x47AF JUMP JUMPDEST PUSH2 0x4825 PUSH1 0x80 DUP4 ADD DUP6 PUSH2 0x47AF JUMP JUMPDEST PUSH2 0x4832 PUSH1 0xA0 DUP4 ADD DUP5 PUSH2 0x45E5 JUMP JUMPDEST SWAP8 SWAP7 POP POP POP POP POP POP POP JUMP JUMPDEST PUSH1 0x0 PUSH1 0x40 DUP3 ADD SWAP1 POP PUSH2 0x4852 PUSH1 0x0 DUP4 ADD DUP6 PUSH2 0x4503 JUMP JUMPDEST DUP2 DUP2 SUB PUSH1 0x20 DUP4 ADD MSTORE PUSH2 0x4864 DUP2 DUP5 PUSH2 0x462D JUMP JUMPDEST SWAP1 POP SWAP4 SWAP3 POP POP POP JUMP JUMPDEST PUSH1 0x0 PUSH1 0x60 DUP3 ADD SWAP1 POP PUSH2 0x4882 PUSH1 0x0 DUP4 ADD DUP7 PUSH2 0x4503 JUMP JUMPDEST DUP2 DUP2 SUB PUSH1 0x20 DUP4 ADD MSTORE PUSH2 0x4894 DUP2 DUP6 PUSH2 0x462D JUMP JUMPDEST SWAP1 POP DUP2 DUP2 SUB PUSH1 0x40 DUP4 ADD MSTORE PUSH2 0x48A8 DUP2 DUP5 PUSH2 0x462D JUMP JUMPDEST SWAP1 POP SWAP5 SWAP4 POP POP POP POP JUMP JUMPDEST PUSH1 0x0 PUSH1 0x20 DUP3 ADD SWAP1 POP DUP2 DUP2 SUB PUSH1 0x0 DUP4 ADD MSTORE PUSH2 0x48CC DUP2 DUP5 PUSH2 0x4570 JUMP JUMPDEST SWAP1 POP SWAP3 SWAP2 POP POP JUMP JUMPDEST PUSH1 0x0 PUSH1 0x80 DUP3 ADD SWAP1 POP DUP2 DUP2 SUB PUSH1 0x0 DUP4 ADD MSTORE PUSH2 0x48EE DUP2 DUP8 PUSH2 0x462D JUMP JUMPDEST SWAP1 POP DUP2 DUP2 SUB PUSH1 0x20 DUP4 ADD MSTORE PUSH2 0x4902 DUP2 DUP7 PUSH2 0x4570 JUMP JUMPDEST SWAP1 POP DUP2 DUP2 SUB PUSH1 0x40 DUP4 ADD MSTORE PUSH2 0x4916 DUP2 DUP6 PUSH2 0x4570 JUMP JUMPDEST SWAP1 POP DUP2 DUP2 SUB PUSH1 0x60 DUP4 ADD MSTORE PUSH2 0x492A DUP2 DUP5 PUSH2 0x4512 JUMP JUMPDEST SWAP1 POP SWAP6 SWAP5 POP POP POP POP POP JUMP JUMPDEST PUSH1 0x0 PUSH1 0xA0 DUP3 ADD SWAP1 POP DUP2 DUP2 SUB PUSH1 0x0 DUP4 ADD MSTORE PUSH2 0x494F DUP2 DUP9 PUSH2 0x462D JUMP JUMPDEST SWAP1 POP DUP2 DUP2 SUB PUSH1 0x20 DUP4 ADD MSTORE PUSH2 0x4963 DUP2 DUP8 PUSH2 0x462D JUMP JUMPDEST SWAP1 POP DUP2 DUP2 SUB PUSH1 0x40 DUP4 ADD MSTORE PUSH2 0x4977 DUP2 DUP7 PUSH2 0x462D JUMP JUMPDEST SWAP1 POP DUP2 DUP2 SUB PUSH1 0x60 DUP4 ADD MSTORE PUSH2 0x498B DUP2 DUP6 PUSH2 0x462D JUMP JUMPDEST SWAP1 POP DUP2 DUP2 SUB PUSH1 0x80 DUP4 ADD MSTORE PUSH2 0x499F DUP2 DUP5 PUSH2 0x4570 JUMP JUMPDEST SWAP1 POP SWAP7 SWAP6 POP POP POP POP POP POP JUMP JUMPDEST PUSH1 0x0 PUSH1 0x80 DUP3 ADD SWAP1 POP DUP2 DUP2 SUB PUSH1 0x0 DUP4 ADD MSTORE PUSH2 0x49C5 DUP2 DUP8 PUSH2 0x462D JUMP JUMPDEST SWAP1 POP DUP2 DUP2 SUB PUSH1 0x20 DUP4 ADD MSTORE PUSH2 0x49D9 DUP2 DUP7 PUSH2 0x462D JUMP JUMPDEST SWAP1 POP PUSH2 0x49E8 PUSH1 0x40 DUP4 ADD DUP6 PUSH2 0x47AF JUMP JUMPDEST DUP2 DUP2 SUB PUSH1 0x60 DUP4 ADD MSTORE PUSH2 0x49FA DUP2 DUP5 PUSH2 0x4570 JUMP JUMPDEST SWAP1 POP SWAP6 SWAP5 POP POP POP POP POP JUMP JUMPDEST PUSH1 0x0 PUSH1 0x20 DUP3 ADD SWAP1 POP DUP2 DUP2 SUB PUSH1 0x0 DUP4 ADD MSTORE PUSH2 0x4A1E DUP2 PUSH2 0x4697 JUMP JUMPDEST SWAP1 POP SWAP2 SWAP1 POP JUMP JUMPDEST PUSH1 0x0 PUSH1 0x20 DUP3 ADD SWAP1 POP DUP2 DUP2 SUB PUSH1 0x0 DUP4 ADD MSTORE PUSH2 0x4A3E DUP2 PUSH2 0x46BA JUMP JUMPDEST SWAP1 POP SWAP2 SWAP1 POP JUMP JUMPDEST PUSH1 0x0 PUSH1 0x20 DUP3 ADD SWAP1 POP DUP2 DUP2 SUB PUSH1 0x0 DUP4 ADD MSTORE PUSH2 0x4A5E DUP2 PUSH2 0x46DD JUMP JUMPDEST SWAP1 POP SWAP2 SWAP1 POP JUMP JUMPDEST PUSH1 0x0 PUSH1 0x20 DUP3 ADD SWAP1 POP DUP2 DUP2 SUB PUSH1 0x0 DUP4 ADD MSTORE PUSH2 0x4A7E DUP2 PUSH2 0x4700 JUMP JUMPDEST SWAP1 POP SWAP2 SWAP1 POP JUMP JUMPDEST PUSH1 0x0 PUSH1 0x20 DUP3 ADD SWAP1 POP DUP2 DUP2 SUB PUSH1 0x0 DUP4 ADD MSTORE PUSH2 0x4A9E DUP2 PUSH2 0x4723 JUMP JUMPDEST SWAP1 POP SWAP2 SWAP1 POP JUMP JUMPDEST PUSH1 0x0 PUSH1 0x20 DUP3 ADD SWAP1 POP DUP2 DUP2 SUB PUSH1 0x0 DUP4 ADD MSTORE PUSH2 0x4ABE DUP2 PUSH2 0x4746 JUMP JUMPDEST SWAP1 POP SWAP2 SWAP1 POP JUMP JUMPDEST PUSH1 0x0 PUSH1 0x20 DUP3 ADD SWAP1 POP DUP2 DUP2 SUB PUSH1 0x0 DUP4 ADD MSTORE PUSH2 0x4ADE DUP2 PUSH2 0x4769 JUMP JUMPDEST SWAP1 POP SWAP2 SWAP1 POP JUMP JUMPDEST PUSH1 0x0 PUSH1 0x20 DUP3 ADD SWAP1 POP DUP2 DUP2 SUB PUSH1 0x0 DUP4 ADD MSTORE PUSH2 0x4AFE DUP2 PUSH2 0x478C JUMP JUMPDEST SWAP1 POP SWAP2 SWAP1 POP JUMP JUMPDEST PUSH1 0x0 PUSH2 0x4B0F PUSH2 0x4B20 JUMP JUMPDEST SWAP1 POP PUSH2 0x4B1B DUP3 DUP3 PUSH2 0x4CDD JUMP JUMPDEST SWAP2 SWAP1 POP JUMP JUMPDEST PUSH1 0x0 PUSH1 0x40 MLOAD SWAP1 POP SWAP1 JUMP JUMPDEST PUSH1 0x0 PUSH8 0xFFFFFFFFFFFFFFFF DUP3 GT ISZERO PUSH2 0x4B45 JUMPI PUSH2 0x4B44 PUSH2 0x4E13 JUMP JUMPDEST JUMPDEST PUSH2 0x4B4E DUP3 PUSH2 0x4E56 JUMP JUMPDEST SWAP1 POP PUSH1 0x20 DUP2 ADD SWAP1 POP SWAP2 SWAP1 POP JUMP JUMPDEST PUSH1 0x0 DUP2 SWAP1 POP PUSH1 0x20 DUP3 ADD SWAP1 POP SWAP2 SWAP1 POP JUMP JUMPDEST PUSH1 0x0 DUP2 SWAP1 POP PUSH1 0x20 DUP3 ADD SWAP1 POP SWAP2 SWAP1 POP JUMP JUMPDEST PUSH1 0x0 DUP2 MLOAD SWAP1 POP SWAP2 SWAP1 POP JUMP JUMPDEST PUSH1 0x0 DUP2 MLOAD SWAP1 POP SWAP2 SWAP1 POP JUMP JUMPDEST PUSH1 0x0 DUP2 MLOAD SWAP1 POP SWAP2 SWAP1 POP JUMP JUMPDEST PUSH1 0x0 PUSH1 0x20 DUP3 ADD SWAP1 POP SWAP2 SWAP1 POP JUMP JUMPDEST PUSH1 0x0 PUSH1 0x20 DUP3 ADD SWAP1 POP SWAP2 SWAP1 POP JUMP JUMPDEST PUSH1 0x0 DUP3 DUP3 MSTORE PUSH1 0x20 DUP3 ADD SWAP1 POP SWAP3 SWAP2 POP POP JUMP JUMPDEST PUSH1 0x0 DUP3 DUP3 MSTORE PUSH1 0x20 DUP3 ADD SWAP1 POP SWAP3 SWAP2 POP POP JUMP JUMPDEST PUSH1 0x0 DUP3 DUP3 MSTORE PUSH1 0x20 DUP3 ADD SWAP1 POP SWAP3 SWAP2 POP POP JUMP JUMPDEST PUSH1 0x0 DUP3 DUP3 MSTORE PUSH1 0x20 DUP3 ADD SWAP1 POP SWAP3 SWAP2 POP POP JUMP JUMPDEST PUSH1 0x0 DUP2 SWAP1 POP SWAP3 SWAP2 POP POP JUMP JUMPDEST PUSH1 0x0 PUSH2 0x4C10 DUP3 PUSH2 0x4C3F JUMP JUMPDEST SWAP1 POP SWAP2 SWAP1 POP JUMP JUMPDEST PUSH1 0x0 PUSH2 0x4C22 DUP3 PUSH2 0x4C3F JUMP JUMPDEST SWAP1 POP SWAP2 SWAP1 POP JUMP JUMPDEST PUSH1 0x0 DUP2 ISZERO ISZERO SWAP1 POP SWAP2 SWAP1 POP JUMP JUMPDEST PUSH1 0x0 DUP2 SWAP1 POP SWAP2 SWAP1 POP JUMP JUMPDEST PUSH1 0x0 PUSH20 0xFFFFFFFFFFFFFFFFFFFFFFFFFFFFFFFFFFFFFFFF DUP3 AND SWAP1 POP SWAP2 SWAP1 POP JUMP JUMPDEST PUSH1 0x0 DUP2 SWAP1 POP SWAP2 SWAP1 POP JUMP JUMPDEST DUP3 DUP2 DUP4 CALLDATACOPY PUSH1 0x0 DUP4 DUP4 ADD MSTORE POP POP POP JUMP JUMPDEST PUSH1 0x0 JUMPDEST DUP4 DUP2 LT ISZERO PUSH2 0x4C96 JUMPI DUP1 DUP3 ADD MLOAD DUP2 DUP5 ADD MSTORE PUSH1 0x20 DUP2 ADD SWAP1 POP PUSH2 0x4C7B JUMP JUMPDEST DUP4 DUP2 GT ISZERO PUSH2 0x4CA5 JUMPI PUSH1 0x0 DUP5 DUP5 ADD MSTORE JUMPDEST POP POP POP POP JUMP JUMPDEST PUSH1 0x0 PUSH1 0x2 DUP3 DIV SWAP1 POP PUSH1 0x1 DUP3 AND DUP1 PUSH2 0x4CC3 JUMPI PUSH1 0x7F DUP3 AND SWAP2 POP JUMPDEST PUSH1 0x20 DUP3 LT DUP2 EQ ISZERO PUSH2 0x4CD7 JUMPI PUSH2 0x4CD6 PUSH2 0x4DB5 JUMP JUMPDEST JUMPDEST POP SWAP2 SWAP1 POP JUMP JUMPDEST PUSH2 0x4CE6 DUP3 PUSH2 0x4E56 JUMP JUMPDEST DUP2 ADD DUP2 DUP2 LT PUSH8 0xFFFFFFFFFFFFFFFF DUP3 GT OR ISZERO PUSH2 0x4D05 JUMPI PUSH2 0x4D04 PUSH2 0x4E13 JUMP JUMPDEST JUMPDEST DUP1 PUSH1 0x40 MSTORE POP POP POP JUMP JUMPDEST PUSH1 0x0 PUSH2 0x4D19 DUP3 PUSH2 0x4C5F JUMP JUMPDEST SWAP2 POP PUSH32 0xFFFFFFFFFFFFFFFFFFFFFFFFFFFFFFFFFFFFFFFFFFFFFFFFFFFFFFFFFFFFFFFF DUP3 EQ ISZERO PUSH2 0x4D4C JUMPI PUSH2 0x4D4B PUSH2 0x4D57 JUMP JUMPDEST JUMPDEST PUSH1 0x1 DUP3 ADD SWAP1 POP SWAP2 SWAP1 POP JUMP JUMPDEST PUSH32 0x4E487B7100000000000000000000000000000000000000000000000000000000 PUSH1 0x0 MSTORE PUSH1 0x11 PUSH1 0x4 MSTORE PUSH1 0x24 PUSH1 0x0 REVERT JUMPDEST PUSH32 0x4E487B7100000000000000000000000000000000000000000000000000000000 PUSH1 0x0 MSTORE PUSH1 0x21 PUSH1 0x4 MSTORE PUSH1 0x24 PUSH1 0x0 REVERT JUMPDEST PUSH32 0x4E487B7100000000000000000000000000000000000000000000000000000000 PUSH1 0x0 MSTORE PUSH1 0x22 PUSH1 0x4 MSTORE PUSH1 0x24 PUSH1 0x0 REVERT JUMPDEST PUSH32 0x4E487B7100000000000000000000000000000000000000000000000000000000 PUSH1 0x0 MSTORE PUSH1 0x32 PUSH1 0x4 MSTORE PUSH1 0x24 PUSH1 0x0 REVERT JUMPDEST PUSH32 0x4E487B7100000000000000000000000000000000000000000000000000000000 PUSH1 0x0 MSTORE PUSH1 0x41 PUSH1 0x4 MSTORE PUSH1 0x24 PUSH1 0x0 REVERT JUMPDEST PUSH1 0x0 DUP1 REVERT JUMPDEST PUSH1 0x0 DUP1 REVERT JUMPDEST PUSH1 0x0 DUP1 REVERT JUMPDEST PUSH1 0x0 DUP1 REVERT JUMPDEST PUSH1 0x0 PUSH1 0x1F NOT PUSH1 0x1F DUP4 ADD AND SWAP1 POP SWAP2 SWAP1 POP JUMP JUMPDEST PUSH32 0x596F7520616C726561647920636865636B207468697320636173650000000000 PUSH1 0x0 DUP3 ADD MSTORE POP JUMP JUMPDEST PUSH32 0x596F7572206C6F67696E20616C726561647920657869737420696E2073797374 PUSH1 0x0 DUP3 ADD MSTORE PUSH32 0x656D000000000000000000000000000000000000000000000000000000000000 PUSH1 0x20 DUP3 ADD MSTORE POP JUMP JUMPDEST PUSH32 0x4C6F772062616C616E6365000000000000000000000000000000000000000000 PUSH1 0x0 DUP3 ADD MSTORE POP JUMP JUMPDEST PUSH32 0x466F7262696464656E0000000000000000000000000000000000000000000000 PUSH1 0x0 DUP3 ADD MSTORE POP JUMP JUMPDEST PUSH32 0x596F75206E6F7420757365720000000000000000000000000000000000000000 PUSH1 0x0 DUP3 ADD MSTORE POP JUMP JUMPDEST PUSH32 0x596F75206E6F742061646D696E00000000000000000000000000000000000000 PUSH1 0x0 DUP3 ADD MSTORE POP JUMP JUMPDEST PUSH32 0x596F7520616C7265616479207265676973746572656400000000000000000000 PUSH1 0x0 DUP3 ADD MSTORE POP JUMP JUMPDEST PUSH32 0x57726F6E67204C6F67696E000000000000000000000000000000000000000000 PUSH1 0x0 DUP3 ADD MSTORE POP JUMP JUMPDEST PUSH2 0x4FDE DUP2 PUSH2 0x4C05 JUMP JUMPDEST DUP2 EQ PUSH2 0x4FE9 JUMPI PUSH1 0x0 DUP1 REVERT JUMPDEST POP JUMP JUMPDEST PUSH2 0x4FF5 DUP2 PUSH2 0x4C17 JUMP JUMPDEST DUP2 EQ PUSH2 0x5000 JUMPI PUSH1 0x0 DUP1 REVERT JUMPDEST POP JUMP JUMPDEST PUSH2 0x500C DUP2 PUSH2 0x4C29 JUMP JUMPDEST DUP2 EQ PUSH2 0x5017 JUMPI PUSH1 0x0 DUP1 REVERT JUMPDEST POP JUMP JUMPDEST PUSH2 0x5023 DUP2 PUSH2 0x4C35 JUMP JUMPDEST DUP2 EQ PUSH2 0x502E JUMPI PUSH1 0x0 DUP1 REVERT JUMPDEST POP JUMP INVALID LOG2 PUSH5 0x6970667358 0x22 SLT KECCAK256 0xD9 DUP14 0xB9 0xF7 PUSH20 0x14EC510F0D829870A143ACC44184FECBF94CB90C SWAP16 CALLDATACOPY 0xE2 CALLVALUE SWAP12 0xAC SWAP6 PUSH5 0x736F6C6343 STOP ADDMOD SMOD STOP CALLER "
				},
				"gasEstimates": {
					"creation": {
						"codeDepositCost": "4116600",
						"executionCost": "infinite",
						"totalCost": "infinite"
					},
					"external": {
						"checkRequest(string,bool)": "infinite",
						"createReview(address,string,string,int256)": "infinite",
						"deleteShop(address)": "infinite",
						"disLikeReview(string)": "infinite",
						"doShopDebt(address)": "infinite",
						"downRequestToByer(string)": "infinite",
						"getAdminInfo()": "infinite",
						"getAllRequests()": "infinite",
						"getBuyerInfo()": "infinite",
						"getRequestById(string)": "infinite",
						"getReviewById(string)": "infinite",
						"getSellerInfo()": "infinite",
						"getSellerInfoByAddr(address)": "infinite",
						"likeReview(string)": "infinite",
						"login(string)": "infinite",
						"regAdmin(address,string,string)": "infinite",
						"registerAdmin(string,string)": "infinite",
						"registerBank(string,address)": "infinite",
						"registerBuyer(string,string,address)": "infinite",
						"registerProvider(string,address)": "infinite",
						"registerSeller(string,string,address,address)": "infinite",
						"registerShop(address,string,string,string)": "infinite",
						"requestToSeller(string)": "infinite"
					}
				},
				"methodIdentifiers": {
					"checkRequest(string,bool)": "2059b7ad",
					"createReview(address,string,string,int256)": "2d6abf59",
					"deleteShop(address)": "e7bfea50",
					"disLikeReview(string)": "bce62a74",
					"doShopDebt(address)": "83db0f6d",
					"downRequestToByer(string)": "b038316c",
					"getAdminInfo()": "c3d5fd39",
					"getAllRequests()": "fb1a002a",
					"getBuyerInfo()": "99b958ee",
					"getRequestById(string)": "dffc8b06",
					"getReviewById(string)": "2f0185c4",
					"getSellerInfo()": "54504c12",
					"getSellerInfoByAddr(address)": "08e74858",
					"likeReview(string)": "7b3c7488",
					"login(string)": "3a7d280c",
					"regAdmin(address,string,string)": "a59d105f",
					"registerAdmin(string,string)": "f8f98b79",
					"registerBank(string,address)": "2156a781",
					"registerBuyer(string,string,address)": "9d344d10",
					"registerProvider(string,address)": "7ccb2bd8",
					"registerSeller(string,string,address,address)": "8403f848",
					"registerShop(address,string,string,string)": "7558b2f8",
					"requestToSeller(string)": "ac6fa7c3"
				}
			},
			"storageLayout": {
				"storage": [
					{
						"astId": 37,
						"contract": "contracts/Shops.sol:ShopsSystem",
						"label": "userStatus",
						"offset": 0,
						"slot": "0",
						"type": "t_mapping(t_uint256,t_string_storage)"
					},
					{
						"astId": 41,
						"contract": "contracts/Shops.sol:ShopsSystem",
						"label": "userLogins",
						"offset": 0,
						"slot": "1",
						"type": "t_mapping(t_string_memory_ptr,t_address)"
					},
					{
						"astId": 46,
						"contract": "contracts/Shops.sol:ShopsSystem",
						"label": "users",
						"offset": 0,
						"slot": "2",
						"type": "t_mapping(t_address,t_struct(User)33_storage)"
					},
					{
						"astId": 336,
						"contract": "contracts/Shops.sol:ShopsSystem",
						"label": "likeCountCheck",
						"offset": 0,
						"slot": "3",
						"type": "t_mapping(t_address,t_bool)"
					},
					{
						"astId": 338,
						"contract": "contracts/Shops.sol:ShopsSystem",
						"label": "provider",
						"offset": 0,
						"slot": "4",
						"type": "t_address"
					},
					{
						"astId": 340,
						"contract": "contracts/Shops.sol:ShopsSystem",
						"label": "admin",
						"offset": 0,
						"slot": "5",
						"type": "t_address"
					},
					{
						"astId": 343,
						"contract": "contracts/Shops.sol:ShopsSystem",
						"label": "admins",
						"offset": 0,
						"slot": "6",
						"type": "t_array(t_string_storage)dyn_storage"
					},
					{
						"astId": 345,
						"contract": "contracts/Shops.sol:ShopsSystem",
						"label": "bank",
						"offset": 0,
						"slot": "7",
						"type": "t_address_payable"
					},
					{
						"astId": 348,
						"contract": "contracts/Shops.sol:ShopsSystem",
						"label": "sellers",
						"offset": 0,
						"slot": "8",
						"type": "t_array(t_address)dyn_storage"
					},
					{
						"astId": 351,
						"contract": "contracts/Shops.sol:ShopsSystem",
						"label": "requests",
						"offset": 0,
						"slot": "9",
						"type": "t_array(t_string_storage)dyn_storage"
					},
					{
						"astId": 356,
						"contract": "contracts/Shops.sol:ShopsSystem",
						"label": "ShopsList",
						"offset": 0,
						"slot": "10",
						"type": "t_mapping(t_address,t_struct(Shop)321_storage)"
					},
					{
						"astId": 360,
						"contract": "contracts/Shops.sol:ShopsSystem",
						"label": "salesmanShop",
						"offset": 0,
						"slot": "11",
						"type": "t_mapping(t_address,t_address)"
					},
					{
						"astId": 365,
						"contract": "contracts/Shops.sol:ShopsSystem",
						"label": "salesmen",
						"offset": 0,
						"slot": "12",
						"type": "t_mapping(t_address,t_array(t_address)dyn_storage)"
					},
					{
						"astId": 370,
						"contract": "contracts/Shops.sol:ShopsSystem",
						"label": "shopReviews",
						"offset": 0,
						"slot": "13",
						"type": "t_mapping(t_address,t_array(t_string_storage)dyn_storage)"
					},
					{
						"astId": 375,
						"contract": "contracts/Shops.sol:ShopsSystem",
						"label": "reviewId",
						"offset": 0,
						"slot": "14",
						"type": "t_mapping(t_string_memory_ptr,t_struct(Review)23_storage)"
					},
					{
						"astId": 380,
						"contract": "contracts/Shops.sol:ShopsSystem",
						"label": "requestId",
						"offset": 0,
						"slot": "15",
						"type": "t_mapping(t_string_memory_ptr,t_struct(Request)330_storage)"
					},
					{
						"astId": 386,
						"contract": "contracts/Shops.sol:ShopsSystem",
						"label": "reviewCom",
						"offset": 0,
						"slot": "16",
						"type": "t_mapping(t_string_memory_ptr,t_mapping(t_address,t_bool))"
					}
				],
				"types": {
					"t_address": {
						"encoding": "inplace",
						"label": "address",
						"numberOfBytes": "20"
					},
					"t_address_payable": {
						"encoding": "inplace",
						"label": "address payable",
						"numberOfBytes": "20"
					},
					"t_array(t_address)dyn_storage": {
						"base": "t_address",
						"encoding": "dynamic_array",
						"label": "address[]",
						"numberOfBytes": "32"
					},
					"t_array(t_string_storage)dyn_storage": {
						"base": "t_string_storage",
						"encoding": "dynamic_array",
						"label": "string[]",
						"numberOfBytes": "32"
					},
					"t_bool": {
						"encoding": "inplace",
						"label": "bool",
						"numberOfBytes": "1"
					},
					"t_int256": {
						"encoding": "inplace",
						"label": "int256",
						"numberOfBytes": "32"
					},
					"t_mapping(t_address,t_address)": {
						"encoding": "mapping",
						"key": "t_address",
						"label": "mapping(address => address)",
						"numberOfBytes": "32",
						"value": "t_address"
					},
					"t_mapping(t_address,t_array(t_address)dyn_storage)": {
						"encoding": "mapping",
						"key": "t_address",
						"label": "mapping(address => address[])",
						"numberOfBytes": "32",
						"value": "t_array(t_address)dyn_storage"
					},
					"t_mapping(t_address,t_array(t_string_storage)dyn_storage)": {
						"encoding": "mapping",
						"key": "t_address",
						"label": "mapping(address => string[])",
						"numberOfBytes": "32",
						"value": "t_array(t_string_storage)dyn_storage"
					},
					"t_mapping(t_address,t_bool)": {
						"encoding": "mapping",
						"key": "t_address",
						"label": "mapping(address => bool)",
						"numberOfBytes": "32",
						"value": "t_bool"
					},
					"t_mapping(t_address,t_struct(Shop)321_storage)": {
						"encoding": "mapping",
						"key": "t_address",
						"label": "mapping(address => struct Shop)",
						"numberOfBytes": "32",
						"value": "t_struct(Shop)321_storage"
					},
					"t_mapping(t_address,t_struct(User)33_storage)": {
						"encoding": "mapping",
						"key": "t_address",
						"label": "mapping(address => struct User)",
						"numberOfBytes": "32",
						"value": "t_struct(User)33_storage"
					},
					"t_mapping(t_string_memory_ptr,t_address)": {
						"encoding": "mapping",
						"key": "t_string_memory_ptr",
						"label": "mapping(string => address)",
						"numberOfBytes": "32",
						"value": "t_address"
					},
					"t_mapping(t_string_memory_ptr,t_mapping(t_address,t_bool))": {
						"encoding": "mapping",
						"key": "t_string_memory_ptr",
						"label": "mapping(string => mapping(address => bool))",
						"numberOfBytes": "32",
						"value": "t_mapping(t_address,t_bool)"
					},
					"t_mapping(t_string_memory_ptr,t_struct(Request)330_storage)": {
						"encoding": "mapping",
						"key": "t_string_memory_ptr",
						"label": "mapping(string => struct Request)",
						"numberOfBytes": "32",
						"value": "t_struct(Request)330_storage"
					},
					"t_mapping(t_string_memory_ptr,t_struct(Review)23_storage)": {
						"encoding": "mapping",
						"key": "t_string_memory_ptr",
						"label": "mapping(string => struct Review)",
						"numberOfBytes": "32",
						"value": "t_struct(Review)23_storage"
					},
					"t_mapping(t_uint256,t_string_storage)": {
						"encoding": "mapping",
						"key": "t_uint256",
						"label": "mapping(uint256 => string)",
						"numberOfBytes": "32",
						"value": "t_string_storage"
					},
					"t_string_memory_ptr": {
						"encoding": "bytes",
						"label": "string",
						"numberOfBytes": "32"
					},
					"t_string_storage": {
						"encoding": "bytes",
						"label": "string",
						"numberOfBytes": "32"
					},
					"t_struct(Request)330_storage": {
						"encoding": "inplace",
						"label": "struct Request",
						"members": [
							{
								"astId": 323,
								"contract": "contracts/Shops.sol:ShopsSystem",
								"label": "userAddr",
								"offset": 0,
								"slot": "0",
								"type": "t_address"
							},
							{
								"astId": 325,
								"contract": "contracts/Shops.sol:ShopsSystem",
								"label": "currentRole",
								"offset": 0,
								"slot": "1",
								"type": "t_uint256"
							},
							{
								"astId": 327,
								"contract": "contracts/Shops.sol:ShopsSystem",
								"label": "desiredRole",
								"offset": 0,
								"slot": "2",
								"type": "t_uint256"
							},
							{
								"astId": 329,
								"contract": "contracts/Shops.sol:ShopsSystem",
								"label": "checked",
								"offset": 0,
								"slot": "3",
								"type": "t_bool"
							}
						],
						"numberOfBytes": "128"
					},
					"t_struct(Review)23_storage": {
						"encoding": "inplace",
						"label": "struct Review",
						"members": [
							{
								"astId": 10,
								"contract": "contracts/Shops.sol:ShopsSystem",
								"label": "autorAddress",
								"offset": 0,
								"slot": "0",
								"type": "t_address"
							},
							{
								"astId": 12,
								"contract": "contracts/Shops.sol:ShopsSystem",
								"label": "shopAddr",
								"offset": 0,
								"slot": "1",
								"type": "t_address"
							},
							{
								"astId": 14,
								"contract": "contracts/Shops.sol:ShopsSystem",
								"label": "message",
								"offset": 0,
								"slot": "2",
								"type": "t_string_storage"
							},
							{
								"astId": 17,
								"contract": "contracts/Shops.sol:ShopsSystem",
								"label": "likeCount",
								"offset": 0,
								"slot": "3",
								"type": "t_array(t_address)dyn_storage"
							},
							{
								"astId": 20,
								"contract": "contracts/Shops.sol:ShopsSystem",
								"label": "disLikeCount",
								"offset": 0,
								"slot": "4",
								"type": "t_array(t_address)dyn_storage"
							},
							{
								"astId": 22,
								"contract": "contracts/Shops.sol:ShopsSystem",
								"label": "grade",
								"offset": 0,
								"slot": "5",
								"type": "t_int256"
							}
						],
						"numberOfBytes": "192"
					},
					"t_struct(Shop)321_storage": {
						"encoding": "inplace",
						"label": "struct Shop",
						"members": [
							{
								"astId": 316,
								"contract": "contracts/Shops.sol:ShopsSystem",
								"label": "number",
								"offset": 0,
								"slot": "0",
								"type": "t_string_storage"
							},
							{
								"astId": 318,
								"contract": "contracts/Shops.sol:ShopsSystem",
								"label": "city",
								"offset": 0,
								"slot": "1",
								"type": "t_string_storage"
							},
							{
								"astId": 320,
								"contract": "contracts/Shops.sol:ShopsSystem",
								"label": "debt",
								"offset": 0,
								"slot": "2",
								"type": "t_int256"
							}
						],
						"numberOfBytes": "96"
					},
					"t_struct(User)33_storage": {
						"encoding": "inplace",
						"label": "struct User",
						"members": [
							{
								"astId": 25,
								"contract": "contracts/Shops.sol:ShopsSystem",
								"label": "status",
								"offset": 0,
								"slot": "0",
								"type": "t_uint256"
							},
							{
								"astId": 27,
								"contract": "contracts/Shops.sol:ShopsSystem",
								"label": "userLogin",
								"offset": 0,
								"slot": "1",
								"type": "t_string_storage"
							},
							{
								"astId": 29,
								"contract": "contracts/Shops.sol:ShopsSystem",
								"label": "fio",
								"offset": 0,
								"slot": "2",
								"type": "t_string_storage"
							},
							{
								"astId": 32,
								"contract": "contracts/Shops.sol:ShopsSystem",
								"label": "reviews",
								"offset": 0,
								"slot": "3",
								"type": "t_array(t_string_storage)dyn_storage"
							}
						],
						"numberOfBytes": "128"
					},
					"t_uint256": {
						"encoding": "inplace",
						"label": "uint256",
						"numberOfBytes": "32"
					}
				}
			},
			"userdoc": {
				"kind": "user",
				"methods": {},
				"version": 1
			}
		}
	}
}