{
	"contracts/Colhoz.sol": {
		"Colhoz": {
			"abi": [
				{
					"inputs": [
						{
							"internalType": "address",
							"name": "userAddr",
							"type": "address"
						},
						{
							"internalType": "string",
							"name": "login",
							"type": "string"
						},
						{
							"internalType": "string",
							"name": "password",
							"type": "string"
						},
						{
							"internalType": "string",
							"name": "fio",
							"type": "string"
						},
						{
							"internalType": "string",
							"name": "status",
							"type": "string"
						}
					],
					"name": "add_buyer",
					"outputs": [],
					"stateMutability": "nonpayable",
					"type": "function"
				},
				{
					"inputs": [],
					"name": "bank",
					"outputs": [
						{
							"internalType": "address",
							"name": "",
							"type": "address"
						}
					],
					"stateMutability": "view",
					"type": "function"
				},
				{
					"inputs": [],
					"name": "get_buyers",
					"outputs": [
						{
							"components": [
								{
									"internalType": "address",
									"name": "userAddr",
									"type": "address"
								},
								{
									"internalType": "string",
									"name": "login",
									"type": "string"
								},
								{
									"internalType": "string",
									"name": "password",
									"type": "string"
								},
								{
									"internalType": "string",
									"name": "fio",
									"type": "string"
								},
								{
									"internalType": "string",
									"name": "status",
									"type": "string"
								}
							],
							"internalType": "struct User[]",
							"name": "",
							"type": "tuple[]"
						}
					],
					"stateMutability": "view",
					"type": "function"
				},
				{
					"inputs": [],
					"name": "provider",
					"outputs": [
						{
							"internalType": "address",
							"name": "",
							"type": "address"
						}
					],
					"stateMutability": "view",
					"type": "function"
				},
				{
					"inputs": [
						{
							"internalType": "uint256",
							"name": "index",
							"type": "uint256"
						}
					],
					"name": "remove_buyer",
					"outputs": [],
					"stateMutability": "nonpayable",
					"type": "function"
				},
				{
					"inputs": [
						{
							"internalType": "address",
							"name": "_bank",
							"type": "address"
						}
					],
					"name": "set_bank",
					"outputs": [],
					"stateMutability": "nonpayable",
					"type": "function"
				},
				{
					"inputs": [
						{
							"internalType": "address",
							"name": "_provider",
							"type": "address"
						}
					],
					"name": "set_provider",
					"outputs": [],
					"stateMutability": "nonpayable",
					"type": "function"
				},
				{
					"inputs": [
						{
							"internalType": "uint256",
							"name": "index",
							"type": "uint256"
						},
						{
							"internalType": "address",
							"name": "userAddr",
							"type": "address"
						},
						{
							"internalType": "string",
							"name": "login",
							"type": "string"
						},
						{
							"internalType": "string",
							"name": "password",
							"type": "string"
						},
						{
							"internalType": "string",
							"name": "fio",
							"type": "string"
						},
						{
							"internalType": "string",
							"name": "status",
							"type": "string"
						}
					],
					"name": "update_buyer",
					"outputs": [],
					"stateMutability": "nonpayable",
					"type": "function"
				}
			],
			"devdoc": {
				"kind": "dev",
				"methods": {},
				"version": 1
			},
			"evm": {
				"assembly": "    /* \"contracts/Colhoz.sol\":612:2363  contract Colhoz{... */\n  mstore(0x40, 0x80)\n  callvalue\n  dup1\n  iszero\n  tag_1\n  jumpi\n  0x00\n  dup1\n  revert\ntag_1:\n  pop\n  dataSize(sub_0)\n  dup1\n  dataOffset(sub_0)\n  0x00\n  codecopy\n  0x00\n  return\nstop\n\nsub_0: assembly {\n        /* \"contracts/Colhoz.sol\":612:2363  contract Colhoz{... */\n      mstore(0x40, 0x80)\n      callvalue\n      dup1\n      iszero\n      tag_1\n      jumpi\n      0x00\n      dup1\n      revert\n    tag_1:\n      pop\n      jumpi(tag_2, lt(calldatasize, 0x04))\n      shr(0xe0, calldataload(0x00))\n      dup1\n      0xb29f04fe\n      gt\n      tag_11\n      jumpi\n      dup1\n      0xb29f04fe\n      eq\n      tag_7\n      jumpi\n      dup1\n      0xb78842ee\n      eq\n      tag_8\n      jumpi\n      dup1\n      0xdacf64e2\n      eq\n      tag_9\n      jumpi\n      dup1\n      0xefa3b7cc\n      eq\n      tag_10\n      jumpi\n      jump(tag_2)\n    tag_11:\n      dup1\n      0x085d4883\n      eq\n      tag_3\n      jumpi\n      dup1\n      0x1fbecde7\n      eq\n      tag_4\n      jumpi\n      dup1\n      0x76cdb03b\n      eq\n      tag_5\n      jumpi\n      dup1\n      0x827b0348\n      eq\n      tag_6\n      jumpi\n    tag_2:\n      0x00\n      dup1\n      revert\n        /* \"contracts/Colhoz.sol\":634:657  address public provider */\n    tag_3:\n      tag_12\n      tag_13\n      jump\t// in\n    tag_12:\n      mload(0x40)\n      tag_14\n      swap2\n      swap1\n      tag_15\n      jump\t// in\n    tag_14:\n      mload(0x40)\n      dup1\n      swap2\n      sub\n      swap1\n      return\n        /* \"contracts/Colhoz.sol\":1088:1367  function add_buyer(... */\n    tag_4:\n      tag_16\n      0x04\n      dup1\n      calldatasize\n      sub\n      dup2\n      add\n      swap1\n      tag_17\n      swap2\n      swap1\n      tag_18\n      jump\t// in\n    tag_17:\n      tag_19\n      jump\t// in\n    tag_16:\n      stop\n        /* \"contracts/Colhoz.sol\":663:682  address public bank */\n    tag_5:\n      tag_20\n      tag_21\n      jump\t// in\n    tag_20:\n      mload(0x40)\n      tag_22\n      swap2\n      swap1\n      tag_15\n      jump\t// in\n    tag_22:\n      mload(0x40)\n      dup1\n      swap2\n      sub\n      swap1\n      return\n        /* \"contracts/Colhoz.sol\":996:1082  function get_buyers() public view returns(User[] memory){... */\n    tag_6:\n      tag_23\n      tag_24\n      jump\t// in\n    tag_23:\n      mload(0x40)\n      tag_25\n      swap2\n      swap1\n      tag_26\n      jump\t// in\n    tag_25:\n      mload(0x40)\n      dup1\n      swap2\n      sub\n      swap1\n      return\n        /* \"contracts/Colhoz.sol\":825:910  function set_provider(address _provider) public {... */\n    tag_7:\n      tag_27\n      0x04\n      dup1\n      calldatasize\n      sub\n      dup2\n      add\n      swap1\n      tag_28\n      swap2\n      swap1\n      tag_29\n      jump\t// in\n    tag_28:\n      tag_30\n      jump\t// in\n    tag_27:\n      stop\n        /* \"contracts/Colhoz.sol\":1373:1451  function remove_buyer(uint index) public {... */\n    tag_8:\n      tag_31\n      0x04\n      dup1\n      calldatasize\n      sub\n      dup2\n      add\n      swap1\n      tag_32\n      swap2\n      swap1\n      tag_33\n      jump\t// in\n    tag_32:\n      tag_34\n      jump\t// in\n    tag_31:\n      stop\n        /* \"contracts/Colhoz.sol\":920:989  function set_bank(address _bank) public {... */\n    tag_9:\n      tag_35\n      0x04\n      dup1\n      calldatasize\n      sub\n      dup2\n      add\n      swap1\n      tag_36\n      swap2\n      swap1\n      tag_29\n      jump\t// in\n    tag_36:\n      tag_37\n      jump\t// in\n    tag_35:\n      stop\n        /* \"contracts/Colhoz.sol\":1457:1762  function update_buyer(... */\n    tag_10:\n      tag_38\n      0x04\n      dup1\n      calldatasize\n      sub\n      dup2\n      add\n      swap1\n      tag_39\n      swap2\n      swap1\n      tag_40\n      jump\t// in\n    tag_39:\n      tag_41\n      jump\t// in\n    tag_38:\n      stop\n        /* \"contracts/Colhoz.sol\":634:657  address public provider */\n    tag_13:\n      0x00\n      dup1\n      sload\n      swap1\n      0x0100\n      exp\n      swap1\n      div\n      0xffffffffffffffffffffffffffffffffffffffff\n      and\n      dup2\n      jump\t// out\n        /* \"contracts/Colhoz.sol\":1088:1367  function add_buyer(... */\n    tag_19:\n        /* \"contracts/Colhoz.sol\":1274:1290  User memory user */\n      0x00\n        /* \"contracts/Colhoz.sol\":1293:1333  User(userAddr,login,password,fio,status) */\n      mload(0x40)\n      dup1\n      0xa0\n      add\n      0x40\n      mstore\n      dup1\n        /* \"contracts/Colhoz.sol\":1298:1306  userAddr */\n      dup8\n        /* \"contracts/Colhoz.sol\":1293:1333  User(userAddr,login,password,fio,status) */\n      0xffffffffffffffffffffffffffffffffffffffff\n      and\n      dup2\n      mstore\n      0x20\n      add\n        /* \"contracts/Colhoz.sol\":1307:1312  login */\n      dup7\n        /* \"contracts/Colhoz.sol\":1293:1333  User(userAddr,login,password,fio,status) */\n      dup2\n      mstore\n      0x20\n      add\n        /* \"contracts/Colhoz.sol\":1313:1321  password */\n      dup6\n        /* \"contracts/Colhoz.sol\":1293:1333  User(userAddr,login,password,fio,status) */\n      dup2\n      mstore\n      0x20\n      add\n        /* \"contracts/Colhoz.sol\":1322:1325  fio */\n      dup5\n        /* \"contracts/Colhoz.sol\":1293:1333  User(userAddr,login,password,fio,status) */\n      dup2\n      mstore\n      0x20\n      add\n        /* \"contracts/Colhoz.sol\":1326:1332  status */\n      dup4\n        /* \"contracts/Colhoz.sol\":1293:1333  User(userAddr,login,password,fio,status) */\n      dup2\n      mstore\n      pop\n        /* \"contracts/Colhoz.sol\":1274:1333  User memory user = User(userAddr,login,password,fio,status) */\n      swap1\n      pop\n        /* \"contracts/Colhoz.sol\":1343:1349  buyers */\n      0x02\n        /* \"contracts/Colhoz.sol\":1355:1359  user */\n      dup2\n        /* \"contracts/Colhoz.sol\":1343:1360  buyers.push(user) */\n      swap1\n      dup1\n      0x01\n      dup2\n      sload\n      add\n      dup1\n      dup3\n      sstore\n      dup1\n      swap2\n      pop\n      pop\n      0x01\n      swap1\n      sub\n      swap1\n      0x00\n      mstore\n      keccak256(0x00, 0x20)\n      swap1\n      0x05\n      mul\n      add\n      0x00\n      swap1\n      swap2\n      swap1\n      swap2\n      swap1\n      swap2\n      pop\n      0x00\n      dup3\n      add\n      mload\n      dup2\n      0x00\n      add\n      exp(0x0100, 0x00)\n      dup2\n      sload\n      dup2\n      0xffffffffffffffffffffffffffffffffffffffff\n      mul\n      not\n      and\n      swap1\n      dup4\n      0xffffffffffffffffffffffffffffffffffffffff\n      and\n      mul\n      or\n      swap1\n      sstore\n      pop\n      0x20\n      dup3\n      add\n      mload\n      dup2\n      0x01\n      add\n      swap1\n      dup2\n      tag_44\n      swap2\n      swap1\n      tag_45\n      jump\t// in\n    tag_44:\n      pop\n      0x40\n      dup3\n      add\n      mload\n      dup2\n      0x02\n      add\n      swap1\n      dup2\n      tag_46\n      swap2\n      swap1\n      tag_45\n      jump\t// in\n    tag_46:\n      pop\n      0x60\n      dup3\n      add\n      mload\n      dup2\n      0x03\n      add\n      swap1\n      dup2\n      tag_47\n      swap2\n      swap1\n      tag_45\n      jump\t// in\n    tag_47:\n      pop\n      0x80\n      dup3\n      add\n      mload\n      dup2\n      0x04\n      add\n      swap1\n      dup2\n      tag_48\n      swap2\n      swap1\n      tag_45\n      jump\t// in\n    tag_48:\n      pop\n      pop\n      pop\n        /* \"contracts/Colhoz.sol\":1264:1367  {... */\n      pop\n        /* \"contracts/Colhoz.sol\":1088:1367  function add_buyer(... */\n      pop\n      pop\n      pop\n      pop\n      pop\n      jump\t// out\n        /* \"contracts/Colhoz.sol\":663:682  address public bank */\n    tag_21:\n      0x01\n      0x00\n      swap1\n      sload\n      swap1\n      0x0100\n      exp\n      swap1\n      div\n      0xffffffffffffffffffffffffffffffffffffffff\n      and\n      dup2\n      jump\t// out\n        /* \"contracts/Colhoz.sol\":996:1082  function get_buyers() public view returns(User[] memory){... */\n    tag_24:\n        /* \"contracts/Colhoz.sol\":1038:1051  User[] memory */\n      0x60\n        /* \"contracts/Colhoz.sol\":1069:1075  buyers */\n      0x02\n        /* \"contracts/Colhoz.sol\":1062:1075  return buyers */\n      dup1\n      sload\n      dup1\n      0x20\n      mul\n      0x20\n      add\n      mload(0x40)\n      swap1\n      dup2\n      add\n      0x40\n      mstore\n      dup1\n      swap3\n      swap2\n      swap1\n      dup2\n      dup2\n      mstore\n      0x20\n      add\n      0x00\n      swap1\n    tag_50:\n      dup3\n      dup3\n      lt\n      iszero\n      tag_51\n      jumpi\n      dup4\n      dup3\n      swap1\n      0x00\n      mstore\n      keccak256(0x00, 0x20)\n      swap1\n      0x05\n      mul\n      add\n      mload(0x40)\n      dup1\n      0xa0\n      add\n      0x40\n      mstore\n      swap1\n      dup2\n      0x00\n      dup3\n      add\n      0x00\n      swap1\n      sload\n      swap1\n      0x0100\n      exp\n      swap1\n      div\n      0xffffffffffffffffffffffffffffffffffffffff\n      and\n      0xffffffffffffffffffffffffffffffffffffffff\n      and\n      0xffffffffffffffffffffffffffffffffffffffff\n      and\n      dup2\n      mstore\n      0x20\n      add\n      0x01\n      dup3\n      add\n      dup1\n      sload\n      tag_53\n      swap1\n      tag_54\n      jump\t// in\n    tag_53:\n      dup1\n      0x1f\n      add\n      0x20\n      dup1\n      swap2\n      div\n      mul\n      0x20\n      add\n      mload(0x40)\n      swap1\n      dup2\n      add\n      0x40\n      mstore\n      dup1\n      swap3\n      swap2\n      swap1\n      dup2\n      dup2\n      mstore\n      0x20\n      add\n      dup3\n      dup1\n      sload\n      tag_55\n      swap1\n      tag_54\n      jump\t// in\n    tag_55:\n      dup1\n      iszero\n      tag_56\n      jumpi\n      dup1\n      0x1f\n      lt\n      tag_57\n      jumpi\n      0x0100\n      dup1\n      dup4\n      sload\n      div\n      mul\n      dup4\n      mstore\n      swap2\n      0x20\n      add\n      swap2\n      jump(tag_56)\n    tag_57:\n      dup3\n      add\n      swap2\n      swap1\n      0x00\n      mstore\n      keccak256(0x00, 0x20)\n      swap1\n    tag_58:\n      dup2\n      sload\n      dup2\n      mstore\n      swap1\n      0x01\n      add\n      swap1\n      0x20\n      add\n      dup1\n      dup4\n      gt\n      tag_58\n      jumpi\n      dup3\n      swap1\n      sub\n      0x1f\n      and\n      dup3\n      add\n      swap2\n    tag_56:\n      pop\n      pop\n      pop\n      pop\n      pop\n      dup2\n      mstore\n      0x20\n      add\n      0x02\n      dup3\n      add\n      dup1\n      sload\n      tag_59\n      swap1\n      tag_54\n      jump\t// in\n    tag_59:\n      dup1\n      0x1f\n      add\n      0x20\n      dup1\n      swap2\n      div\n      mul\n      0x20\n      add\n      mload(0x40)\n      swap1\n      dup2\n      add\n      0x40\n      mstore\n      dup1\n      swap3\n      swap2\n      swap1\n      dup2\n      dup2\n      mstore\n      0x20\n      add\n      dup3\n      dup1\n      sload\n      tag_60\n      swap1\n      tag_54\n      jump\t// in\n    tag_60:\n      dup1\n      iszero\n      tag_61\n      jumpi\n      dup1\n      0x1f\n      lt\n      tag_62\n      jumpi\n      0x0100\n      dup1\n      dup4\n      sload\n      div\n      mul\n      dup4\n      mstore\n      swap2\n      0x20\n      add\n      swap2\n      jump(tag_61)\n    tag_62:\n      dup3\n      add\n      swap2\n      swap1\n      0x00\n      mstore\n      keccak256(0x00, 0x20)\n      swap1\n    tag_63:\n      dup2\n      sload\n      dup2\n      mstore\n      swap1\n      0x01\n      add\n      swap1\n      0x20\n      add\n      dup1\n      dup4\n      gt\n      tag_63\n      jumpi\n      dup3\n      swap1\n      sub\n      0x1f\n      and\n      dup3\n      add\n      swap2\n    tag_61:\n      pop\n      pop\n      pop\n      pop\n      pop\n      dup2\n      mstore\n      0x20\n      add\n      0x03\n      dup3\n      add\n      dup1\n      sload\n      tag_64\n      swap1\n      tag_54\n      jump\t// in\n    tag_64:\n      dup1\n      0x1f\n      add\n      0x20\n      dup1\n      swap2\n      div\n      mul\n      0x20\n      add\n      mload(0x40)\n      swap1\n      dup2\n      add\n      0x40\n      mstore\n      dup1\n      swap3\n      swap2\n      swap1\n      dup2\n      dup2\n      mstore\n      0x20\n      add\n      dup3\n      dup1\n      sload\n      tag_65\n      swap1\n      tag_54\n      jump\t// in\n    tag_65:\n      dup1\n      iszero\n      tag_66\n      jumpi\n      dup1\n      0x1f\n      lt\n      tag_67\n      jumpi\n      0x0100\n      dup1\n      dup4\n      sload\n      div\n      mul\n      dup4\n      mstore\n      swap2\n      0x20\n      add\n      swap2\n      jump(tag_66)\n    tag_67:\n      dup3\n      add\n      swap2\n      swap1\n      0x00\n      mstore\n      keccak256(0x00, 0x20)\n      swap1\n    tag_68:\n      dup2\n      sload\n      dup2\n      mstore\n      swap1\n      0x01\n      add\n      swap1\n      0x20\n      add\n      dup1\n      dup4\n      gt\n      tag_68\n      jumpi\n      dup3\n      swap1\n      sub\n      0x1f\n      and\n      dup3\n      add\n      swap2\n    tag_66:\n      pop\n      pop\n      pop\n      pop\n      pop\n      dup2\n      mstore\n      0x20\n      add\n      0x04\n      dup3\n      add\n      dup1\n      sload\n      tag_69\n      swap1\n      tag_54\n      jump\t// in\n    tag_69:\n      dup1\n      0x1f\n      add\n      0x20\n      dup1\n      swap2\n      div\n      mul\n      0x20\n      add\n      mload(0x40)\n      swap1\n      dup2\n      add\n      0x40\n      mstore\n      dup1\n      swap3\n      swap2\n      swap1\n      dup2\n      dup2\n      mstore\n      0x20\n      add\n      dup3\n      dup1\n      sload\n      tag_70\n      swap1\n      tag_54\n      jump\t// in\n    tag_70:\n      dup1\n      iszero\n      tag_71\n      jumpi\n      dup1\n      0x1f\n      lt\n      tag_72\n      jumpi\n      0x0100\n      dup1\n      dup4\n      sload\n      div\n      mul\n      dup4\n      mstore\n      swap2\n      0x20\n      add\n      swap2\n      jump(tag_71)\n    tag_72:\n      dup3\n      add\n      swap2\n      swap1\n      0x00\n      mstore\n      keccak256(0x00, 0x20)\n      swap1\n    tag_73:\n      dup2\n      sload\n      dup2\n      mstore\n      swap1\n      0x01\n      add\n      swap1\n      0x20\n      add\n      dup1\n      dup4\n      gt\n      tag_73\n      jumpi\n      dup3\n      swap1\n      sub\n      0x1f\n      and\n      dup3\n      add\n      swap2\n    tag_71:\n      pop\n      pop\n      pop\n      pop\n      pop\n      dup2\n      mstore\n      pop\n      pop\n      dup2\n      mstore\n      0x20\n      add\n      swap1\n      0x01\n      add\n      swap1\n      jump(tag_50)\n    tag_51:\n      pop\n      pop\n      pop\n      pop\n      swap1\n      pop\n        /* \"contracts/Colhoz.sol\":996:1082  function get_buyers() public view returns(User[] memory){... */\n      swap1\n      jump\t// out\n        /* \"contracts/Colhoz.sol\":825:910  function set_provider(address _provider) public {... */\n    tag_30:\n        /* \"contracts/Colhoz.sol\":894:903  _provider */\n      dup1\n        /* \"contracts/Colhoz.sol\":883:891  provider */\n      0x00\n      dup1\n        /* \"contracts/Colhoz.sol\":883:903  provider = _provider */\n      0x0100\n      exp\n      dup2\n      sload\n      dup2\n      0xffffffffffffffffffffffffffffffffffffffff\n      mul\n      not\n      and\n      swap1\n      dup4\n      0xffffffffffffffffffffffffffffffffffffffff\n      and\n      mul\n      or\n      swap1\n      sstore\n      pop\n        /* \"contracts/Colhoz.sol\":825:910  function set_provider(address _provider) public {... */\n      pop\n      jump\t// out\n        /* \"contracts/Colhoz.sol\":1373:1451  function remove_buyer(uint index) public {... */\n    tag_34:\n        /* \"contracts/Colhoz.sol\":1431:1437  buyers */\n      0x02\n        /* \"contracts/Colhoz.sol\":1438:1443  index */\n      dup2\n        /* \"contracts/Colhoz.sol\":1431:1444  buyers[index] */\n      dup2\n      sload\n      dup2\n      lt\n      tag_76\n      jumpi\n      tag_77\n      tag_78\n      jump\t// in\n    tag_77:\n    tag_76:\n      swap1\n      0x00\n      mstore\n      keccak256(0x00, 0x20)\n      swap1\n      0x05\n      mul\n      add\n      0x00\n        /* \"contracts/Colhoz.sol\":1424:1444  delete buyers[index] */\n      dup1\n      dup3\n      add\n      exp(0x0100, 0x00)\n      dup2\n      sload\n      swap1\n      0xffffffffffffffffffffffffffffffffffffffff\n      mul\n      not\n      and\n      swap1\n      sstore\n      0x01\n      dup3\n      add\n      0x00\n      tag_80\n      swap2\n      swap1\n      tag_81\n      jump\t// in\n    tag_80:\n      0x02\n      dup3\n      add\n      0x00\n      tag_82\n      swap2\n      swap1\n      tag_81\n      jump\t// in\n    tag_82:\n      0x03\n      dup3\n      add\n      0x00\n      tag_83\n      swap2\n      swap1\n      tag_81\n      jump\t// in\n    tag_83:\n      0x04\n      dup3\n      add\n      0x00\n      tag_84\n      swap2\n      swap1\n      tag_81\n      jump\t// in\n    tag_84:\n      pop\n      pop\n        /* \"contracts/Colhoz.sol\":1373:1451  function remove_buyer(uint index) public {... */\n      pop\n      jump\t// out\n        /* \"contracts/Colhoz.sol\":920:989  function set_bank(address _bank) public {... */\n    tag_37:\n        /* \"contracts/Colhoz.sol\":977:982  _bank */\n      dup1\n        /* \"contracts/Colhoz.sol\":970:974  bank */\n      0x01\n      0x00\n        /* \"contracts/Colhoz.sol\":970:982  bank = _bank */\n      0x0100\n      exp\n      dup2\n      sload\n      dup2\n      0xffffffffffffffffffffffffffffffffffffffff\n      mul\n      not\n      and\n      swap1\n      dup4\n      0xffffffffffffffffffffffffffffffffffffffff\n      and\n      mul\n      or\n      swap1\n      sstore\n      pop\n        /* \"contracts/Colhoz.sol\":920:989  function set_bank(address _bank) public {... */\n      pop\n      jump\t// out\n        /* \"contracts/Colhoz.sol\":1457:1762  function update_buyer(... */\n    tag_41:\n        /* \"contracts/Colhoz.sol\":1666:1682  User memory user */\n      0x00\n        /* \"contracts/Colhoz.sol\":1685:1725  User(userAddr,login,password,fio,status) */\n      mload(0x40)\n      dup1\n      0xa0\n      add\n      0x40\n      mstore\n      dup1\n        /* \"contracts/Colhoz.sol\":1690:1698  userAddr */\n      dup8\n        /* \"contracts/Colhoz.sol\":1685:1725  User(userAddr,login,password,fio,status) */\n      0xffffffffffffffffffffffffffffffffffffffff\n      and\n      dup2\n      mstore\n      0x20\n      add\n        /* \"contracts/Colhoz.sol\":1699:1704  login */\n      dup7\n        /* \"contracts/Colhoz.sol\":1685:1725  User(userAddr,login,password,fio,status) */\n      dup2\n      mstore\n      0x20\n      add\n        /* \"contracts/Colhoz.sol\":1705:1713  password */\n      dup6\n        /* \"contracts/Colhoz.sol\":1685:1725  User(userAddr,login,password,fio,status) */\n      dup2\n      mstore\n      0x20\n      add\n        /* \"contracts/Colhoz.sol\":1714:1717  fio */\n      dup5\n        /* \"contracts/Colhoz.sol\":1685:1725  User(userAddr,login,password,fio,status) */\n      dup2\n      mstore\n      0x20\n      add\n        /* \"contracts/Colhoz.sol\":1718:1724  status */\n      dup4\n        /* \"contracts/Colhoz.sol\":1685:1725  User(userAddr,login,password,fio,status) */\n      dup2\n      mstore\n      pop\n        /* \"contracts/Colhoz.sol\":1666:1725  User memory user = User(userAddr,login,password,fio,status) */\n      swap1\n      pop\n        /* \"contracts/Colhoz.sol\":1751:1755  user */\n      dup1\n        /* \"contracts/Colhoz.sol\":1735:1741  buyers */\n      0x02\n        /* \"contracts/Colhoz.sol\":1742:1747  index */\n      dup9\n        /* \"contracts/Colhoz.sol\":1735:1748  buyers[index] */\n      dup2\n      sload\n      dup2\n      lt\n      tag_87\n      jumpi\n      tag_88\n      tag_78\n      jump\t// in\n    tag_88:\n    tag_87:\n      swap1\n      0x00\n      mstore\n      keccak256(0x00, 0x20)\n      swap1\n      0x05\n      mul\n      add\n        /* \"contracts/Colhoz.sol\":1735:1755  buyers[index] = user */\n      0x00\n      dup3\n      add\n      mload\n      dup2\n      0x00\n      add\n      exp(0x0100, 0x00)\n      dup2\n      sload\n      dup2\n      0xffffffffffffffffffffffffffffffffffffffff\n      mul\n      not\n      and\n      swap1\n      dup4\n      0xffffffffffffffffffffffffffffffffffffffff\n      and\n      mul\n      or\n      swap1\n      sstore\n      pop\n      0x20\n      dup3\n      add\n      mload\n      dup2\n      0x01\n      add\n      swap1\n      dup2\n      tag_90\n      swap2\n      swap1\n      tag_45\n      jump\t// in\n    tag_90:\n      pop\n      0x40\n      dup3\n      add\n      mload\n      dup2\n      0x02\n      add\n      swap1\n      dup2\n      tag_91\n      swap2\n      swap1\n      tag_45\n      jump\t// in\n    tag_91:\n      pop\n      0x60\n      dup3\n      add\n      mload\n      dup2\n      0x03\n      add\n      swap1\n      dup2\n      tag_92\n      swap2\n      swap1\n      tag_45\n      jump\t// in\n    tag_92:\n      pop\n      0x80\n      dup3\n      add\n      mload\n      dup2\n      0x04\n      add\n      swap1\n      dup2\n      tag_93\n      swap2\n      swap1\n      tag_45\n      jump\t// in\n    tag_93:\n      pop\n      swap1\n      pop\n      pop\n        /* \"contracts/Colhoz.sol\":1656:1762  {... */\n      pop\n        /* \"contracts/Colhoz.sol\":1457:1762  function update_buyer(... */\n      pop\n      pop\n      pop\n      pop\n      pop\n      pop\n      jump\t// out\n    tag_81:\n      pop\n      dup1\n      sload\n      tag_94\n      swap1\n      tag_54\n      jump\t// in\n    tag_94:\n      0x00\n      dup3\n      sstore\n      dup1\n      0x1f\n      lt\n      tag_96\n      jumpi\n      pop\n      jump(tag_95)\n    tag_96:\n      0x1f\n      add\n      0x20\n      swap1\n      div\n      swap1\n      0x00\n      mstore\n      keccak256(0x00, 0x20)\n      swap1\n      dup2\n      add\n      swap1\n      tag_97\n      swap2\n      swap1\n      tag_98\n      jump\t// in\n    tag_97:\n    tag_95:\n      pop\n      jump\t// out\n    tag_98:\n    tag_99:\n      dup1\n      dup3\n      gt\n      iszero\n      tag_100\n      jumpi\n      0x00\n      dup2\n      0x00\n      swap1\n      sstore\n      pop\n      0x01\n      add\n      jump(tag_99)\n    tag_100:\n      pop\n      swap1\n      jump\t// out\n        /* \"#utility.yul\":7:133   */\n    tag_101:\n        /* \"#utility.yul\":44:51   */\n      0x00\n        /* \"#utility.yul\":84:126   */\n      0xffffffffffffffffffffffffffffffffffffffff\n        /* \"#utility.yul\":77:82   */\n      dup3\n        /* \"#utility.yul\":73:127   */\n      and\n        /* \"#utility.yul\":62:127   */\n      swap1\n      pop\n        /* \"#utility.yul\":7:133   */\n      swap2\n      swap1\n      pop\n      jump\t// out\n        /* \"#utility.yul\":139:235   */\n    tag_102:\n        /* \"#utility.yul\":176:183   */\n      0x00\n        /* \"#utility.yul\":205:229   */\n      tag_153\n        /* \"#utility.yul\":223:228   */\n      dup3\n        /* \"#utility.yul\":205:229   */\n      tag_101\n      jump\t// in\n    tag_153:\n        /* \"#utility.yul\":194:229   */\n      swap1\n      pop\n        /* \"#utility.yul\":139:235   */\n      swap2\n      swap1\n      pop\n      jump\t// out\n        /* \"#utility.yul\":241:359   */\n    tag_103:\n        /* \"#utility.yul\":328:352   */\n      tag_155\n        /* \"#utility.yul\":346:351   */\n      dup2\n        /* \"#utility.yul\":328:352   */\n      tag_102\n      jump\t// in\n    tag_155:\n        /* \"#utility.yul\":323:326   */\n      dup3\n        /* \"#utility.yul\":316:353   */\n      mstore\n        /* \"#utility.yul\":241:359   */\n      pop\n      pop\n      jump\t// out\n        /* \"#utility.yul\":365:587   */\n    tag_15:\n        /* \"#utility.yul\":458:462   */\n      0x00\n        /* \"#utility.yul\":496:498   */\n      0x20\n        /* \"#utility.yul\":485:494   */\n      dup3\n        /* \"#utility.yul\":481:499   */\n      add\n        /* \"#utility.yul\":473:499   */\n      swap1\n      pop\n        /* \"#utility.yul\":509:580   */\n      tag_157\n        /* \"#utility.yul\":577:578   */\n      0x00\n        /* \"#utility.yul\":566:575   */\n      dup4\n        /* \"#utility.yul\":562:579   */\n      add\n        /* \"#utility.yul\":553:559   */\n      dup5\n        /* \"#utility.yul\":509:580   */\n      tag_103\n      jump\t// in\n    tag_157:\n        /* \"#utility.yul\":365:587   */\n      swap3\n      swap2\n      pop\n      pop\n      jump\t// out\n        /* \"#utility.yul\":593:668   */\n    tag_104:\n        /* \"#utility.yul\":626:632   */\n      0x00\n        /* \"#utility.yul\":659:661   */\n      0x40\n        /* \"#utility.yul\":653:662   */\n      mload\n        /* \"#utility.yul\":643:662   */\n      swap1\n      pop\n        /* \"#utility.yul\":593:668   */\n      swap1\n      jump\t// out\n        /* \"#utility.yul\":674:791   */\n    tag_105:\n        /* \"#utility.yul\":783:784   */\n      0x00\n        /* \"#utility.yul\":780:781   */\n      dup1\n        /* \"#utility.yul\":773:785   */\n      revert\n        /* \"#utility.yul\":797:914   */\n    tag_106:\n        /* \"#utility.yul\":906:907   */\n      0x00\n        /* \"#utility.yul\":903:904   */\n      dup1\n        /* \"#utility.yul\":896:908   */\n      revert\n        /* \"#utility.yul\":920:1042   */\n    tag_107:\n        /* \"#utility.yul\":993:1017   */\n      tag_162\n        /* \"#utility.yul\":1011:1016   */\n      dup2\n        /* \"#utility.yul\":993:1017   */\n      tag_102\n      jump\t// in\n    tag_162:\n        /* \"#utility.yul\":986:991   */\n      dup2\n        /* \"#utility.yul\":983:1018   */\n      eq\n        /* \"#utility.yul\":973:1036   */\n      tag_163\n      jumpi\n        /* \"#utility.yul\":1032:1033   */\n      0x00\n        /* \"#utility.yul\":1029:1030   */\n      dup1\n        /* \"#utility.yul\":1022:1034   */\n      revert\n        /* \"#utility.yul\":973:1036   */\n    tag_163:\n        /* \"#utility.yul\":920:1042   */\n      pop\n      jump\t// out\n        /* \"#utility.yul\":1048:1187   */\n    tag_108:\n        /* \"#utility.yul\":1094:1099   */\n      0x00\n        /* \"#utility.yul\":1132:1138   */\n      dup2\n        /* \"#utility.yul\":1119:1139   */\n      calldataload\n        /* \"#utility.yul\":1110:1139   */\n      swap1\n      pop\n        /* \"#utility.yul\":1148:1181   */\n      tag_165\n        /* \"#utility.yul\":1175:1180   */\n      dup2\n        /* \"#utility.yul\":1148:1181   */\n      tag_107\n      jump\t// in\n    tag_165:\n        /* \"#utility.yul\":1048:1187   */\n      swap3\n      swap2\n      pop\n      pop\n      jump\t// out\n        /* \"#utility.yul\":1193:1310   */\n    tag_109:\n        /* \"#utility.yul\":1302:1303   */\n      0x00\n        /* \"#utility.yul\":1299:1300   */\n      dup1\n        /* \"#utility.yul\":1292:1304   */\n      revert\n        /* \"#utility.yul\":1316:1433   */\n    tag_110:\n        /* \"#utility.yul\":1425:1426   */\n      0x00\n        /* \"#utility.yul\":1422:1423   */\n      dup1\n        /* \"#utility.yul\":1415:1427   */\n      revert\n        /* \"#utility.yul\":1439:1541   */\n    tag_111:\n        /* \"#utility.yul\":1480:1486   */\n      0x00\n        /* \"#utility.yul\":1531:1533   */\n      0x1f\n        /* \"#utility.yul\":1527:1534   */\n      not\n        /* \"#utility.yul\":1522:1524   */\n      0x1f\n        /* \"#utility.yul\":1515:1520   */\n      dup4\n        /* \"#utility.yul\":1511:1525   */\n      add\n        /* \"#utility.yul\":1507:1535   */\n      and\n        /* \"#utility.yul\":1497:1535   */\n      swap1\n      pop\n        /* \"#utility.yul\":1439:1541   */\n      swap2\n      swap1\n      pop\n      jump\t// out\n        /* \"#utility.yul\":1547:1727   */\n    tag_112:\n        /* \"#utility.yul\":1595:1672   */\n      0x4e487b7100000000000000000000000000000000000000000000000000000000\n        /* \"#utility.yul\":1592:1593   */\n      0x00\n        /* \"#utility.yul\":1585:1673   */\n      mstore\n        /* \"#utility.yul\":1692:1696   */\n      0x41\n        /* \"#utility.yul\":1689:1690   */\n      0x04\n        /* \"#utility.yul\":1682:1697   */\n      mstore\n        /* \"#utility.yul\":1716:1720   */\n      0x24\n        /* \"#utility.yul\":1713:1714   */\n      0x00\n        /* \"#utility.yul\":1706:1721   */\n      revert\n        /* \"#utility.yul\":1733:2014   */\n    tag_113:\n        /* \"#utility.yul\":1816:1843   */\n      tag_171\n        /* \"#utility.yul\":1838:1842   */\n      dup3\n        /* \"#utility.yul\":1816:1843   */\n      tag_111\n      jump\t// in\n    tag_171:\n        /* \"#utility.yul\":1808:1814   */\n      dup2\n        /* \"#utility.yul\":1804:1844   */\n      add\n        /* \"#utility.yul\":1946:1952   */\n      dup2\n        /* \"#utility.yul\":1934:1944   */\n      dup2\n        /* \"#utility.yul\":1931:1953   */\n      lt\n        /* \"#utility.yul\":1910:1928   */\n      0xffffffffffffffff\n        /* \"#utility.yul\":1898:1908   */\n      dup3\n        /* \"#utility.yul\":1895:1929   */\n      gt\n        /* \"#utility.yul\":1892:1954   */\n      or\n        /* \"#utility.yul\":1889:1977   */\n      iszero\n      tag_172\n      jumpi\n        /* \"#utility.yul\":1957:1975   */\n      tag_173\n      tag_112\n      jump\t// in\n    tag_173:\n        /* \"#utility.yul\":1889:1977   */\n    tag_172:\n        /* \"#utility.yul\":1997:2007   */\n      dup1\n        /* \"#utility.yul\":1993:1995   */\n      0x40\n        /* \"#utility.yul\":1986:2008   */\n      mstore\n        /* \"#utility.yul\":1776:2014   */\n      pop\n        /* \"#utility.yul\":1733:2014   */\n      pop\n      pop\n      jump\t// out\n        /* \"#utility.yul\":2020:2149   */\n    tag_114:\n        /* \"#utility.yul\":2054:2060   */\n      0x00\n        /* \"#utility.yul\":2081:2101   */\n      tag_175\n      tag_104\n      jump\t// in\n    tag_175:\n        /* \"#utility.yul\":2071:2101   */\n      swap1\n      pop\n        /* \"#utility.yul\":2110:2143   */\n      tag_176\n        /* \"#utility.yul\":2138:2142   */\n      dup3\n        /* \"#utility.yul\":2130:2136   */\n      dup3\n        /* \"#utility.yul\":2110:2143   */\n      tag_113\n      jump\t// in\n    tag_176:\n        /* \"#utility.yul\":2020:2149   */\n      swap2\n      swap1\n      pop\n      jump\t// out\n        /* \"#utility.yul\":2155:2463   */\n    tag_115:\n        /* \"#utility.yul\":2217:2221   */\n      0x00\n        /* \"#utility.yul\":2307:2325   */\n      0xffffffffffffffff\n        /* \"#utility.yul\":2299:2305   */\n      dup3\n        /* \"#utility.yul\":2296:2326   */\n      gt\n        /* \"#utility.yul\":2293:2349   */\n      iszero\n      tag_178\n      jumpi\n        /* \"#utility.yul\":2329:2347   */\n      tag_179\n      tag_112\n      jump\t// in\n    tag_179:\n        /* \"#utility.yul\":2293:2349   */\n    tag_178:\n        /* \"#utility.yul\":2367:2396   */\n      tag_180\n        /* \"#utility.yul\":2389:2395   */\n      dup3\n        /* \"#utility.yul\":2367:2396   */\n      tag_111\n      jump\t// in\n    tag_180:\n        /* \"#utility.yul\":2359:2396   */\n      swap1\n      pop\n        /* \"#utility.yul\":2451:2455   */\n      0x20\n        /* \"#utility.yul\":2445:2449   */\n      dup2\n        /* \"#utility.yul\":2441:2456   */\n      add\n        /* \"#utility.yul\":2433:2456   */\n      swap1\n      pop\n        /* \"#utility.yul\":2155:2463   */\n      swap2\n      swap1\n      pop\n      jump\t// out\n        /* \"#utility.yul\":2469:2615   */\n    tag_116:\n        /* \"#utility.yul\":2566:2572   */\n      dup3\n        /* \"#utility.yul\":2561:2564   */\n      dup2\n        /* \"#utility.yul\":2556:2559   */\n      dup4\n        /* \"#utility.yul\":2543:2573   */\n      calldatacopy\n        /* \"#utility.yul\":2607:2608   */\n      0x00\n        /* \"#utility.yul\":2598:2604   */\n      dup4\n        /* \"#utility.yul\":2593:2596   */\n      dup4\n        /* \"#utility.yul\":2589:2605   */\n      add\n        /* \"#utility.yul\":2582:2609   */\n      mstore\n        /* \"#utility.yul\":2469:2615   */\n      pop\n      pop\n      pop\n      jump\t// out\n        /* \"#utility.yul\":2621:3046   */\n    tag_117:\n        /* \"#utility.yul\":2699:2704   */\n      0x00\n        /* \"#utility.yul\":2724:2790   */\n      tag_183\n        /* \"#utility.yul\":2740:2789   */\n      tag_184\n        /* \"#utility.yul\":2782:2788   */\n      dup5\n        /* \"#utility.yul\":2740:2789   */\n      tag_115\n      jump\t// in\n    tag_184:\n        /* \"#utility.yul\":2724:2790   */\n      tag_114\n      jump\t// in\n    tag_183:\n        /* \"#utility.yul\":2715:2790   */\n      swap1\n      pop\n        /* \"#utility.yul\":2813:2819   */\n      dup3\n        /* \"#utility.yul\":2806:2811   */\n      dup2\n        /* \"#utility.yul\":2799:2820   */\n      mstore\n        /* \"#utility.yul\":2851:2855   */\n      0x20\n        /* \"#utility.yul\":2844:2849   */\n      dup2\n        /* \"#utility.yul\":2840:2856   */\n      add\n        /* \"#utility.yul\":2889:2892   */\n      dup5\n        /* \"#utility.yul\":2880:2886   */\n      dup5\n        /* \"#utility.yul\":2875:2878   */\n      dup5\n        /* \"#utility.yul\":2871:2887   */\n      add\n        /* \"#utility.yul\":2868:2893   */\n      gt\n        /* \"#utility.yul\":2865:2977   */\n      iszero\n      tag_185\n      jumpi\n        /* \"#utility.yul\":2896:2975   */\n      tag_186\n      tag_110\n      jump\t// in\n    tag_186:\n        /* \"#utility.yul\":2865:2977   */\n    tag_185:\n        /* \"#utility.yul\":2986:3040   */\n      tag_187\n        /* \"#utility.yul\":3033:3039   */\n      dup5\n        /* \"#utility.yul\":3028:3031   */\n      dup3\n        /* \"#utility.yul\":3023:3026   */\n      dup6\n        /* \"#utility.yul\":2986:3040   */\n      tag_116\n      jump\t// in\n    tag_187:\n        /* \"#utility.yul\":2705:3046   */\n      pop\n        /* \"#utility.yul\":2621:3046   */\n      swap4\n      swap3\n      pop\n      pop\n      pop\n      jump\t// out\n        /* \"#utility.yul\":3066:3406   */\n    tag_118:\n        /* \"#utility.yul\":3122:3127   */\n      0x00\n        /* \"#utility.yul\":3171:3174   */\n      dup3\n        /* \"#utility.yul\":3164:3168   */\n      0x1f\n        /* \"#utility.yul\":3156:3162   */\n      dup4\n        /* \"#utility.yul\":3152:3169   */\n      add\n        /* \"#utility.yul\":3148:3175   */\n      slt\n        /* \"#utility.yul\":3138:3260   */\n      tag_189\n      jumpi\n        /* \"#utility.yul\":3179:3258   */\n      tag_190\n      tag_109\n      jump\t// in\n    tag_190:\n        /* \"#utility.yul\":3138:3260   */\n    tag_189:\n        /* \"#utility.yul\":3296:3302   */\n      dup2\n        /* \"#utility.yul\":3283:3303   */\n      calldataload\n        /* \"#utility.yul\":3321:3400   */\n      tag_191\n        /* \"#utility.yul\":3396:3399   */\n      dup5\n        /* \"#utility.yul\":3388:3394   */\n      dup3\n        /* \"#utility.yul\":3381:3385   */\n      0x20\n        /* \"#utility.yul\":3373:3379   */\n      dup7\n        /* \"#utility.yul\":3369:3386   */\n      add\n        /* \"#utility.yul\":3321:3400   */\n      tag_117\n      jump\t// in\n    tag_191:\n        /* \"#utility.yul\":3312:3400   */\n      swap2\n      pop\n        /* \"#utility.yul\":3128:3406   */\n      pop\n        /* \"#utility.yul\":3066:3406   */\n      swap3\n      swap2\n      pop\n      pop\n      jump\t// out\n        /* \"#utility.yul\":3412:5043   */\n    tag_18:\n        /* \"#utility.yul\":3547:3553   */\n      0x00\n        /* \"#utility.yul\":3555:3561   */\n      dup1\n        /* \"#utility.yul\":3563:3569   */\n      0x00\n        /* \"#utility.yul\":3571:3577   */\n      dup1\n        /* \"#utility.yul\":3579:3585   */\n      0x00\n        /* \"#utility.yul\":3628:3631   */\n      0xa0\n        /* \"#utility.yul\":3616:3625   */\n      dup7\n        /* \"#utility.yul\":3607:3614   */\n      dup9\n        /* \"#utility.yul\":3603:3626   */\n      sub\n        /* \"#utility.yul\":3599:3632   */\n      slt\n        /* \"#utility.yul\":3596:3716   */\n      iszero\n      tag_193\n      jumpi\n        /* \"#utility.yul\":3635:3714   */\n      tag_194\n      tag_105\n      jump\t// in\n    tag_194:\n        /* \"#utility.yul\":3596:3716   */\n    tag_193:\n        /* \"#utility.yul\":3755:3756   */\n      0x00\n        /* \"#utility.yul\":3780:3833   */\n      tag_195\n        /* \"#utility.yul\":3825:3832   */\n      dup9\n        /* \"#utility.yul\":3816:3822   */\n      dup3\n        /* \"#utility.yul\":3805:3814   */\n      dup10\n        /* \"#utility.yul\":3801:3823   */\n      add\n        /* \"#utility.yul\":3780:3833   */\n      tag_108\n      jump\t// in\n    tag_195:\n        /* \"#utility.yul\":3770:3833   */\n      swap6\n      pop\n        /* \"#utility.yul\":3726:3843   */\n      pop\n        /* \"#utility.yul\":3910:3912   */\n      0x20\n        /* \"#utility.yul\":3899:3908   */\n      dup7\n        /* \"#utility.yul\":3895:3913   */\n      add\n        /* \"#utility.yul\":3882:3914   */\n      calldataload\n        /* \"#utility.yul\":3941:3959   */\n      0xffffffffffffffff\n        /* \"#utility.yul\":3933:3939   */\n      dup2\n        /* \"#utility.yul\":3930:3960   */\n      gt\n        /* \"#utility.yul\":3927:4044   */\n      iszero\n      tag_196\n      jumpi\n        /* \"#utility.yul\":3963:4042   */\n      tag_197\n      tag_106\n      jump\t// in\n    tag_197:\n        /* \"#utility.yul\":3927:4044   */\n    tag_196:\n        /* \"#utility.yul\":4068:4131   */\n      tag_198\n        /* \"#utility.yul\":4123:4130   */\n      dup9\n        /* \"#utility.yul\":4114:4120   */\n      dup3\n        /* \"#utility.yul\":4103:4112   */\n      dup10\n        /* \"#utility.yul\":4099:4121   */\n      add\n        /* \"#utility.yul\":4068:4131   */\n      tag_118\n      jump\t// in\n    tag_198:\n        /* \"#utility.yul\":4058:4131   */\n      swap5\n      pop\n        /* \"#utility.yul\":3853:4141   */\n      pop\n        /* \"#utility.yul\":4208:4210   */\n      0x40\n        /* \"#utility.yul\":4197:4206   */\n      dup7\n        /* \"#utility.yul\":4193:4211   */\n      add\n        /* \"#utility.yul\":4180:4212   */\n      calldataload\n        /* \"#utility.yul\":4239:4257   */\n      0xffffffffffffffff\n        /* \"#utility.yul\":4231:4237   */\n      dup2\n        /* \"#utility.yul\":4228:4258   */\n      gt\n        /* \"#utility.yul\":4225:4342   */\n      iszero\n      tag_199\n      jumpi\n        /* \"#utility.yul\":4261:4340   */\n      tag_200\n      tag_106\n      jump\t// in\n    tag_200:\n        /* \"#utility.yul\":4225:4342   */\n    tag_199:\n        /* \"#utility.yul\":4366:4429   */\n      tag_201\n        /* \"#utility.yul\":4421:4428   */\n      dup9\n        /* \"#utility.yul\":4412:4418   */\n      dup3\n        /* \"#utility.yul\":4401:4410   */\n      dup10\n        /* \"#utility.yul\":4397:4419   */\n      add\n        /* \"#utility.yul\":4366:4429   */\n      tag_118\n      jump\t// in\n    tag_201:\n        /* \"#utility.yul\":4356:4429   */\n      swap4\n      pop\n        /* \"#utility.yul\":4151:4439   */\n      pop\n        /* \"#utility.yul\":4506:4508   */\n      0x60\n        /* \"#utility.yul\":4495:4504   */\n      dup7\n        /* \"#utility.yul\":4491:4509   */\n      add\n        /* \"#utility.yul\":4478:4510   */\n      calldataload\n        /* \"#utility.yul\":4537:4555   */\n      0xffffffffffffffff\n        /* \"#utility.yul\":4529:4535   */\n      dup2\n        /* \"#utility.yul\":4526:4556   */\n      gt\n        /* \"#utility.yul\":4523:4640   */\n      iszero\n      tag_202\n      jumpi\n        /* \"#utility.yul\":4559:4638   */\n      tag_203\n      tag_106\n      jump\t// in\n    tag_203:\n        /* \"#utility.yul\":4523:4640   */\n    tag_202:\n        /* \"#utility.yul\":4664:4727   */\n      tag_204\n        /* \"#utility.yul\":4719:4726   */\n      dup9\n        /* \"#utility.yul\":4710:4716   */\n      dup3\n        /* \"#utility.yul\":4699:4708   */\n      dup10\n        /* \"#utility.yul\":4695:4717   */\n      add\n        /* \"#utility.yul\":4664:4727   */\n      tag_118\n      jump\t// in\n    tag_204:\n        /* \"#utility.yul\":4654:4727   */\n      swap3\n      pop\n        /* \"#utility.yul\":4449:4737   */\n      pop\n        /* \"#utility.yul\":4804:4807   */\n      0x80\n        /* \"#utility.yul\":4793:4802   */\n      dup7\n        /* \"#utility.yul\":4789:4808   */\n      add\n        /* \"#utility.yul\":4776:4809   */\n      calldataload\n        /* \"#utility.yul\":4836:4854   */\n      0xffffffffffffffff\n        /* \"#utility.yul\":4828:4834   */\n      dup2\n        /* \"#utility.yul\":4825:4855   */\n      gt\n        /* \"#utility.yul\":4822:4939   */\n      iszero\n      tag_205\n      jumpi\n        /* \"#utility.yul\":4858:4937   */\n      tag_206\n      tag_106\n      jump\t// in\n    tag_206:\n        /* \"#utility.yul\":4822:4939   */\n    tag_205:\n        /* \"#utility.yul\":4963:5026   */\n      tag_207\n        /* \"#utility.yul\":5018:5025   */\n      dup9\n        /* \"#utility.yul\":5009:5015   */\n      dup3\n        /* \"#utility.yul\":4998:5007   */\n      dup10\n        /* \"#utility.yul\":4994:5016   */\n      add\n        /* \"#utility.yul\":4963:5026   */\n      tag_118\n      jump\t// in\n    tag_207:\n        /* \"#utility.yul\":4953:5026   */\n      swap2\n      pop\n        /* \"#utility.yul\":4747:5036   */\n      pop\n        /* \"#utility.yul\":3412:5043   */\n      swap3\n      swap6\n      pop\n      swap3\n      swap6\n      swap1\n      swap4\n      pop\n      jump\t// out\n        /* \"#utility.yul\":5049:5183   */\n    tag_119:\n        /* \"#utility.yul\":5136:5142   */\n      0x00\n        /* \"#utility.yul\":5170:5175   */\n      dup2\n        /* \"#utility.yul\":5164:5176   */\n      mload\n        /* \"#utility.yul\":5154:5176   */\n      swap1\n      pop\n        /* \"#utility.yul\":5049:5183   */\n      swap2\n      swap1\n      pop\n      jump\t// out\n        /* \"#utility.yul\":5189:5393   */\n    tag_120:\n        /* \"#utility.yul\":5308:5319   */\n      0x00\n        /* \"#utility.yul\":5342:5348   */\n      dup3\n        /* \"#utility.yul\":5337:5340   */\n      dup3\n        /* \"#utility.yul\":5330:5349   */\n      mstore\n        /* \"#utility.yul\":5382:5386   */\n      0x20\n        /* \"#utility.yul\":5377:5380   */\n      dup3\n        /* \"#utility.yul\":5373:5387   */\n      add\n        /* \"#utility.yul\":5358:5387   */\n      swap1\n      pop\n        /* \"#utility.yul\":5189:5393   */\n      swap3\n      swap2\n      pop\n      pop\n      jump\t// out\n        /* \"#utility.yul\":5399:5551   */\n    tag_121:\n        /* \"#utility.yul\":5486:5490   */\n      0x00\n        /* \"#utility.yul\":5509:5512   */\n      dup2\n        /* \"#utility.yul\":5501:5512   */\n      swap1\n      pop\n        /* \"#utility.yul\":5539:5543   */\n      0x20\n        /* \"#utility.yul\":5534:5537   */\n      dup3\n        /* \"#utility.yul\":5530:5544   */\n      add\n        /* \"#utility.yul\":5522:5544   */\n      swap1\n      pop\n        /* \"#utility.yul\":5399:5551   */\n      swap2\n      swap1\n      pop\n      jump\t// out\n        /* \"#utility.yul\":5557:5665   */\n    tag_122:\n        /* \"#utility.yul\":5634:5658   */\n      tag_212\n        /* \"#utility.yul\":5652:5657   */\n      dup2\n        /* \"#utility.yul\":5634:5658   */\n      tag_102\n      jump\t// in\n    tag_212:\n        /* \"#utility.yul\":5629:5632   */\n      dup3\n        /* \"#utility.yul\":5622:5659   */\n      mstore\n        /* \"#utility.yul\":5557:5665   */\n      pop\n      pop\n      jump\t// out\n        /* \"#utility.yul\":5671:5770   */\n    tag_123:\n        /* \"#utility.yul\":5723:5729   */\n      0x00\n        /* \"#utility.yul\":5757:5762   */\n      dup2\n        /* \"#utility.yul\":5751:5763   */\n      mload\n        /* \"#utility.yul\":5741:5763   */\n      swap1\n      pop\n        /* \"#utility.yul\":5671:5770   */\n      swap2\n      swap1\n      pop\n      jump\t// out\n        /* \"#utility.yul\":5776:5935   */\n    tag_124:\n        /* \"#utility.yul\":5850:5861   */\n      0x00\n        /* \"#utility.yul\":5884:5890   */\n      dup3\n        /* \"#utility.yul\":5879:5882   */\n      dup3\n        /* \"#utility.yul\":5872:5891   */\n      mstore\n        /* \"#utility.yul\":5924:5928   */\n      0x20\n        /* \"#utility.yul\":5919:5922   */\n      dup3\n        /* \"#utility.yul\":5915:5929   */\n      add\n        /* \"#utility.yul\":5900:5929   */\n      swap1\n      pop\n        /* \"#utility.yul\":5776:5935   */\n      swap3\n      swap2\n      pop\n      pop\n      jump\t// out\n        /* \"#utility.yul\":5941:6187   */\n    tag_125:\n        /* \"#utility.yul\":6022:6023   */\n      0x00\n        /* \"#utility.yul\":6032:6145   */\n    tag_216:\n        /* \"#utility.yul\":6046:6052   */\n      dup4\n        /* \"#utility.yul\":6043:6044   */\n      dup2\n        /* \"#utility.yul\":6040:6053   */\n      lt\n        /* \"#utility.yul\":6032:6145   */\n      iszero\n      tag_218\n      jumpi\n        /* \"#utility.yul\":6131:6132   */\n      dup1\n        /* \"#utility.yul\":6126:6129   */\n      dup3\n        /* \"#utility.yul\":6122:6133   */\n      add\n        /* \"#utility.yul\":6116:6134   */\n      mload\n        /* \"#utility.yul\":6112:6113   */\n      dup2\n        /* \"#utility.yul\":6107:6110   */\n      dup5\n        /* \"#utility.yul\":6103:6114   */\n      add\n        /* \"#utility.yul\":6096:6135   */\n      mstore\n        /* \"#utility.yul\":6068:6070   */\n      0x20\n        /* \"#utility.yul\":6065:6066   */\n      dup2\n        /* \"#utility.yul\":6061:6071   */\n      add\n        /* \"#utility.yul\":6056:6071   */\n      swap1\n      pop\n        /* \"#utility.yul\":6032:6145   */\n      jump(tag_216)\n    tag_218:\n        /* \"#utility.yul\":6179:6180   */\n      0x00\n        /* \"#utility.yul\":6170:6176   */\n      dup5\n        /* \"#utility.yul\":6165:6168   */\n      dup5\n        /* \"#utility.yul\":6161:6177   */\n      add\n        /* \"#utility.yul\":6154:6181   */\n      mstore\n        /* \"#utility.yul\":6003:6187   */\n      pop\n        /* \"#utility.yul\":5941:6187   */\n      pop\n      pop\n      pop\n      jump\t// out\n        /* \"#utility.yul\":6193:6550   */\n    tag_126:\n        /* \"#utility.yul\":6271:6274   */\n      0x00\n        /* \"#utility.yul\":6299:6338   */\n      tag_220\n        /* \"#utility.yul\":6332:6337   */\n      dup3\n        /* \"#utility.yul\":6299:6338   */\n      tag_123\n      jump\t// in\n    tag_220:\n        /* \"#utility.yul\":6354:6415   */\n      tag_221\n        /* \"#utility.yul\":6408:6414   */\n      dup2\n        /* \"#utility.yul\":6403:6406   */\n      dup6\n        /* \"#utility.yul\":6354:6415   */\n      tag_124\n      jump\t// in\n    tag_221:\n        /* \"#utility.yul\":6347:6415   */\n      swap4\n      pop\n        /* \"#utility.yul\":6424:6489   */\n      tag_222\n        /* \"#utility.yul\":6482:6488   */\n      dup2\n        /* \"#utility.yul\":6477:6480   */\n      dup6\n        /* \"#utility.yul\":6470:6474   */\n      0x20\n        /* \"#utility.yul\":6463:6468   */\n      dup7\n        /* \"#utility.yul\":6459:6475   */\n      add\n        /* \"#utility.yul\":6424:6489   */\n      tag_125\n      jump\t// in\n    tag_222:\n        /* \"#utility.yul\":6514:6543   */\n      tag_223\n        /* \"#utility.yul\":6536:6542   */\n      dup2\n        /* \"#utility.yul\":6514:6543   */\n      tag_111\n      jump\t// in\n    tag_223:\n        /* \"#utility.yul\":6509:6512   */\n      dup5\n        /* \"#utility.yul\":6505:6544   */\n      add\n        /* \"#utility.yul\":6498:6544   */\n      swap2\n      pop\n        /* \"#utility.yul\":6275:6550   */\n      pop\n        /* \"#utility.yul\":6193:6550   */\n      swap3\n      swap2\n      pop\n      pop\n      jump\t// out\n        /* \"#utility.yul\":6590:7921   */\n    tag_127:\n        /* \"#utility.yul\":6689:6692   */\n      0x00\n        /* \"#utility.yul\":6725:6729   */\n      0xa0\n        /* \"#utility.yul\":6720:6723   */\n      dup4\n        /* \"#utility.yul\":6716:6730   */\n      add\n        /* \"#utility.yul\":6816:6820   */\n      0x00\n        /* \"#utility.yul\":6809:6814   */\n      dup4\n        /* \"#utility.yul\":6805:6821   */\n      add\n        /* \"#utility.yul\":6799:6822   */\n      mload\n        /* \"#utility.yul\":6835:6898   */\n      tag_225\n        /* \"#utility.yul\":6892:6896   */\n      0x00\n        /* \"#utility.yul\":6887:6890   */\n      dup7\n        /* \"#utility.yul\":6883:6897   */\n      add\n        /* \"#utility.yul\":6869:6881   */\n      dup3\n        /* \"#utility.yul\":6835:6898   */\n      tag_122\n      jump\t// in\n    tag_225:\n        /* \"#utility.yul\":6740:6908   */\n      pop\n        /* \"#utility.yul\":6991:6995   */\n      0x20\n        /* \"#utility.yul\":6984:6989   */\n      dup4\n        /* \"#utility.yul\":6980:6996   */\n      add\n        /* \"#utility.yul\":6974:6997   */\n      mload\n        /* \"#utility.yul\":7044:7047   */\n      dup5\n        /* \"#utility.yul\":7038:7042   */\n      dup3\n        /* \"#utility.yul\":7034:7048   */\n      sub\n        /* \"#utility.yul\":7027:7031   */\n      0x20\n        /* \"#utility.yul\":7022:7025   */\n      dup7\n        /* \"#utility.yul\":7018:7032   */\n      add\n        /* \"#utility.yul\":7011:7049   */\n      mstore\n        /* \"#utility.yul\":7070:7143   */\n      tag_226\n        /* \"#utility.yul\":7138:7142   */\n      dup3\n        /* \"#utility.yul\":7124:7136   */\n      dup3\n        /* \"#utility.yul\":7070:7143   */\n      tag_126\n      jump\t// in\n    tag_226:\n        /* \"#utility.yul\":7062:7143   */\n      swap2\n      pop\n        /* \"#utility.yul\":6918:7154   */\n      pop\n        /* \"#utility.yul\":7240:7244   */\n      0x40\n        /* \"#utility.yul\":7233:7238   */\n      dup4\n        /* \"#utility.yul\":7229:7245   */\n      add\n        /* \"#utility.yul\":7223:7246   */\n      mload\n        /* \"#utility.yul\":7293:7296   */\n      dup5\n        /* \"#utility.yul\":7287:7291   */\n      dup3\n        /* \"#utility.yul\":7283:7297   */\n      sub\n        /* \"#utility.yul\":7276:7280   */\n      0x40\n        /* \"#utility.yul\":7271:7274   */\n      dup7\n        /* \"#utility.yul\":7267:7281   */\n      add\n        /* \"#utility.yul\":7260:7298   */\n      mstore\n        /* \"#utility.yul\":7319:7392   */\n      tag_227\n        /* \"#utility.yul\":7387:7391   */\n      dup3\n        /* \"#utility.yul\":7373:7385   */\n      dup3\n        /* \"#utility.yul\":7319:7392   */\n      tag_126\n      jump\t// in\n    tag_227:\n        /* \"#utility.yul\":7311:7392   */\n      swap2\n      pop\n        /* \"#utility.yul\":7164:7403   */\n      pop\n        /* \"#utility.yul\":7484:7488   */\n      0x60\n        /* \"#utility.yul\":7477:7482   */\n      dup4\n        /* \"#utility.yul\":7473:7489   */\n      add\n        /* \"#utility.yul\":7467:7490   */\n      mload\n        /* \"#utility.yul\":7537:7540   */\n      dup5\n        /* \"#utility.yul\":7531:7535   */\n      dup3\n        /* \"#utility.yul\":7527:7541   */\n      sub\n        /* \"#utility.yul\":7520:7524   */\n      0x60\n        /* \"#utility.yul\":7515:7518   */\n      dup7\n        /* \"#utility.yul\":7511:7525   */\n      add\n        /* \"#utility.yul\":7504:7542   */\n      mstore\n        /* \"#utility.yul\":7563:7636   */\n      tag_228\n        /* \"#utility.yul\":7631:7635   */\n      dup3\n        /* \"#utility.yul\":7617:7629   */\n      dup3\n        /* \"#utility.yul\":7563:7636   */\n      tag_126\n      jump\t// in\n    tag_228:\n        /* \"#utility.yul\":7555:7636   */\n      swap2\n      pop\n        /* \"#utility.yul\":7413:7647   */\n      pop\n        /* \"#utility.yul\":7731:7735   */\n      0x80\n        /* \"#utility.yul\":7724:7729   */\n      dup4\n        /* \"#utility.yul\":7720:7736   */\n      add\n        /* \"#utility.yul\":7714:7737   */\n      mload\n        /* \"#utility.yul\":7784:7787   */\n      dup5\n        /* \"#utility.yul\":7778:7782   */\n      dup3\n        /* \"#utility.yul\":7774:7788   */\n      sub\n        /* \"#utility.yul\":7767:7771   */\n      0x80\n        /* \"#utility.yul\":7762:7765   */\n      dup7\n        /* \"#utility.yul\":7758:7772   */\n      add\n        /* \"#utility.yul\":7751:7789   */\n      mstore\n        /* \"#utility.yul\":7810:7883   */\n      tag_229\n        /* \"#utility.yul\":7878:7882   */\n      dup3\n        /* \"#utility.yul\":7864:7876   */\n      dup3\n        /* \"#utility.yul\":7810:7883   */\n      tag_126\n      jump\t// in\n    tag_229:\n        /* \"#utility.yul\":7802:7883   */\n      swap2\n      pop\n        /* \"#utility.yul\":7657:7894   */\n      pop\n        /* \"#utility.yul\":7911:7915   */\n      dup1\n        /* \"#utility.yul\":7904:7915   */\n      swap2\n      pop\n        /* \"#utility.yul\":6694:7921   */\n      pop\n        /* \"#utility.yul\":6590:7921   */\n      swap3\n      swap2\n      pop\n      pop\n      jump\t// out\n        /* \"#utility.yul\":7927:8163   */\n    tag_128:\n        /* \"#utility.yul\":8036:8046   */\n      0x00\n        /* \"#utility.yul\":8071:8157   */\n      tag_231\n        /* \"#utility.yul\":8153:8156   */\n      dup4\n        /* \"#utility.yul\":8145:8151   */\n      dup4\n        /* \"#utility.yul\":8071:8157   */\n      tag_127\n      jump\t// in\n    tag_231:\n        /* \"#utility.yul\":8057:8157   */\n      swap1\n      pop\n        /* \"#utility.yul\":7927:8163   */\n      swap3\n      swap2\n      pop\n      pop\n      jump\t// out\n        /* \"#utility.yul\":8169:8302   */\n    tag_129:\n        /* \"#utility.yul\":8259:8263   */\n      0x00\n        /* \"#utility.yul\":8291:8295   */\n      0x20\n        /* \"#utility.yul\":8286:8289   */\n      dup3\n        /* \"#utility.yul\":8282:8296   */\n      add\n        /* \"#utility.yul\":8274:8296   */\n      swap1\n      pop\n        /* \"#utility.yul\":8169:8302   */\n      swap2\n      swap1\n      pop\n      jump\t// out\n        /* \"#utility.yul\":8346:9417   */\n    tag_130:\n        /* \"#utility.yul\":8505:8508   */\n      0x00\n        /* \"#utility.yul\":8534:8608   */\n      tag_234\n        /* \"#utility.yul\":8602:8607   */\n      dup3\n        /* \"#utility.yul\":8534:8608   */\n      tag_119\n      jump\t// in\n    tag_234:\n        /* \"#utility.yul\":8624:8730   */\n      tag_235\n        /* \"#utility.yul\":8723:8729   */\n      dup2\n        /* \"#utility.yul\":8718:8721   */\n      dup6\n        /* \"#utility.yul\":8624:8730   */\n      tag_120\n      jump\t// in\n    tag_235:\n        /* \"#utility.yul\":8617:8730   */\n      swap4\n      pop\n        /* \"#utility.yul\":8756:8759   */\n      dup4\n        /* \"#utility.yul\":8801:8805   */\n      0x20\n        /* \"#utility.yul\":8793:8799   */\n      dup3\n        /* \"#utility.yul\":8789:8806   */\n      mul\n        /* \"#utility.yul\":8784:8787   */\n      dup6\n        /* \"#utility.yul\":8780:8807   */\n      add\n        /* \"#utility.yul\":8831:8907   */\n      tag_236\n        /* \"#utility.yul\":8901:8906   */\n      dup6\n        /* \"#utility.yul\":8831:8907   */\n      tag_121\n      jump\t// in\n    tag_236:\n        /* \"#utility.yul\":8930:8937   */\n      dup1\n        /* \"#utility.yul\":8961:8962   */\n      0x00\n        /* \"#utility.yul\":8946:9372   */\n    tag_237:\n        /* \"#utility.yul\":8971:8977   */\n      dup6\n        /* \"#utility.yul\":8968:8969   */\n      dup2\n        /* \"#utility.yul\":8965:8978   */\n      lt\n        /* \"#utility.yul\":8946:9372   */\n      iszero\n      tag_239\n      jumpi\n        /* \"#utility.yul\":9042:9051   */\n      dup5\n        /* \"#utility.yul\":9036:9040   */\n      dup5\n        /* \"#utility.yul\":9032:9052   */\n      sub\n        /* \"#utility.yul\":9027:9030   */\n      dup10\n        /* \"#utility.yul\":9020:9053   */\n      mstore\n        /* \"#utility.yul\":9093:9099   */\n      dup2\n        /* \"#utility.yul\":9087:9100   */\n      mload\n        /* \"#utility.yul\":9121:9225   */\n      tag_240\n        /* \"#utility.yul\":9220:9224   */\n      dup6\n        /* \"#utility.yul\":9205:9218   */\n      dup3\n        /* \"#utility.yul\":9121:9225   */\n      tag_128\n      jump\t// in\n    tag_240:\n        /* \"#utility.yul\":9113:9225   */\n      swap5\n      pop\n        /* \"#utility.yul\":9248:9328   */\n      tag_241\n        /* \"#utility.yul\":9321:9327   */\n      dup4\n        /* \"#utility.yul\":9248:9328   */\n      tag_129\n      jump\t// in\n    tag_241:\n        /* \"#utility.yul\":9238:9328   */\n      swap3\n      pop\n        /* \"#utility.yul\":9357:9361   */\n      0x20\n        /* \"#utility.yul\":9352:9355   */\n      dup11\n        /* \"#utility.yul\":9348:9362   */\n      add\n        /* \"#utility.yul\":9341:9362   */\n      swap10\n      pop\n        /* \"#utility.yul\":9006:9372   */\n      pop\n        /* \"#utility.yul\":8993:8994   */\n      0x01\n        /* \"#utility.yul\":8990:8991   */\n      dup2\n        /* \"#utility.yul\":8986:8995   */\n      add\n        /* \"#utility.yul\":8981:8995   */\n      swap1\n      pop\n        /* \"#utility.yul\":8946:9372   */\n      jump(tag_237)\n    tag_239:\n        /* \"#utility.yul\":8950:8964   */\n      pop\n        /* \"#utility.yul\":9388:9392   */\n      dup3\n        /* \"#utility.yul\":9381:9392   */\n      swap8\n      pop\n        /* \"#utility.yul\":9408:9411   */\n      dup8\n        /* \"#utility.yul\":9401:9411   */\n      swap6\n      pop\n        /* \"#utility.yul\":8510:9417   */\n      pop\n      pop\n      pop\n      pop\n      pop\n        /* \"#utility.yul\":8346:9417   */\n      swap3\n      swap2\n      pop\n      pop\n      jump\t// out\n        /* \"#utility.yul\":9423:9876   */\n    tag_26:\n        /* \"#utility.yul\":9606:9610   */\n      0x00\n        /* \"#utility.yul\":9644:9646   */\n      0x20\n        /* \"#utility.yul\":9633:9642   */\n      dup3\n        /* \"#utility.yul\":9629:9647   */\n      add\n        /* \"#utility.yul\":9621:9647   */\n      swap1\n      pop\n        /* \"#utility.yul\":9693:9702   */\n      dup2\n        /* \"#utility.yul\":9687:9691   */\n      dup2\n        /* \"#utility.yul\":9683:9703   */\n      sub\n        /* \"#utility.yul\":9679:9680   */\n      0x00\n        /* \"#utility.yul\":9668:9677   */\n      dup4\n        /* \"#utility.yul\":9664:9681   */\n      add\n        /* \"#utility.yul\":9657:9704   */\n      mstore\n        /* \"#utility.yul\":9721:9869   */\n      tag_243\n        /* \"#utility.yul\":9864:9868   */\n      dup2\n        /* \"#utility.yul\":9855:9861   */\n      dup5\n        /* \"#utility.yul\":9721:9869   */\n      tag_130\n      jump\t// in\n    tag_243:\n        /* \"#utility.yul\":9713:9869   */\n      swap1\n      pop\n        /* \"#utility.yul\":9423:9876   */\n      swap3\n      swap2\n      pop\n      pop\n      jump\t// out\n        /* \"#utility.yul\":9882:10211   */\n    tag_29:\n        /* \"#utility.yul\":9941:9947   */\n      0x00\n        /* \"#utility.yul\":9990:9992   */\n      0x20\n        /* \"#utility.yul\":9978:9987   */\n      dup3\n        /* \"#utility.yul\":9969:9976   */\n      dup5\n        /* \"#utility.yul\":9965:9988   */\n      sub\n        /* \"#utility.yul\":9961:9993   */\n      slt\n        /* \"#utility.yul\":9958:10077   */\n      iszero\n      tag_245\n      jumpi\n        /* \"#utility.yul\":9996:10075   */\n      tag_246\n      tag_105\n      jump\t// in\n    tag_246:\n        /* \"#utility.yul\":9958:10077   */\n    tag_245:\n        /* \"#utility.yul\":10116:10117   */\n      0x00\n        /* \"#utility.yul\":10141:10194   */\n      tag_247\n        /* \"#utility.yul\":10186:10193   */\n      dup5\n        /* \"#utility.yul\":10177:10183   */\n      dup3\n        /* \"#utility.yul\":10166:10175   */\n      dup6\n        /* \"#utility.yul\":10162:10184   */\n      add\n        /* \"#utility.yul\":10141:10194   */\n      tag_108\n      jump\t// in\n    tag_247:\n        /* \"#utility.yul\":10131:10194   */\n      swap2\n      pop\n        /* \"#utility.yul\":10087:10204   */\n      pop\n        /* \"#utility.yul\":9882:10211   */\n      swap3\n      swap2\n      pop\n      pop\n      jump\t// out\n        /* \"#utility.yul\":10217:10294   */\n    tag_131:\n        /* \"#utility.yul\":10254:10261   */\n      0x00\n        /* \"#utility.yul\":10283:10288   */\n      dup2\n        /* \"#utility.yul\":10272:10288   */\n      swap1\n      pop\n        /* \"#utility.yul\":10217:10294   */\n      swap2\n      swap1\n      pop\n      jump\t// out\n        /* \"#utility.yul\":10300:10422   */\n    tag_132:\n        /* \"#utility.yul\":10373:10397   */\n      tag_250\n        /* \"#utility.yul\":10391:10396   */\n      dup2\n        /* \"#utility.yul\":10373:10397   */\n      tag_131\n      jump\t// in\n    tag_250:\n        /* \"#utility.yul\":10366:10371   */\n      dup2\n        /* \"#utility.yul\":10363:10398   */\n      eq\n        /* \"#utility.yul\":10353:10416   */\n      tag_251\n      jumpi\n        /* \"#utility.yul\":10412:10413   */\n      0x00\n        /* \"#utility.yul\":10409:10410   */\n      dup1\n        /* \"#utility.yul\":10402:10414   */\n      revert\n        /* \"#utility.yul\":10353:10416   */\n    tag_251:\n        /* \"#utility.yul\":10300:10422   */\n      pop\n      jump\t// out\n        /* \"#utility.yul\":10428:10567   */\n    tag_133:\n        /* \"#utility.yul\":10474:10479   */\n      0x00\n        /* \"#utility.yul\":10512:10518   */\n      dup2\n        /* \"#utility.yul\":10499:10519   */\n      calldataload\n        /* \"#utility.yul\":10490:10519   */\n      swap1\n      pop\n        /* \"#utility.yul\":10528:10561   */\n      tag_253\n        /* \"#utility.yul\":10555:10560   */\n      dup2\n        /* \"#utility.yul\":10528:10561   */\n      tag_132\n      jump\t// in\n    tag_253:\n        /* \"#utility.yul\":10428:10567   */\n      swap3\n      swap2\n      pop\n      pop\n      jump\t// out\n        /* \"#utility.yul\":10573:10902   */\n    tag_33:\n        /* \"#utility.yul\":10632:10638   */\n      0x00\n        /* \"#utility.yul\":10681:10683   */\n      0x20\n        /* \"#utility.yul\":10669:10678   */\n      dup3\n        /* \"#utility.yul\":10660:10667   */\n      dup5\n        /* \"#utility.yul\":10656:10679   */\n      sub\n        /* \"#utility.yul\":10652:10684   */\n      slt\n        /* \"#utility.yul\":10649:10768   */\n      iszero\n      tag_255\n      jumpi\n        /* \"#utility.yul\":10687:10766   */\n      tag_256\n      tag_105\n      jump\t// in\n    tag_256:\n        /* \"#utility.yul\":10649:10768   */\n    tag_255:\n        /* \"#utility.yul\":10807:10808   */\n      0x00\n        /* \"#utility.yul\":10832:10885   */\n      tag_257\n        /* \"#utility.yul\":10877:10884   */\n      dup5\n        /* \"#utility.yul\":10868:10874   */\n      dup3\n        /* \"#utility.yul\":10857:10866   */\n      dup6\n        /* \"#utility.yul\":10853:10875   */\n      add\n        /* \"#utility.yul\":10832:10885   */\n      tag_133\n      jump\t// in\n    tag_257:\n        /* \"#utility.yul\":10822:10885   */\n      swap2\n      pop\n        /* \"#utility.yul\":10778:10895   */\n      pop\n        /* \"#utility.yul\":10573:10902   */\n      swap3\n      swap2\n      pop\n      pop\n      jump\t// out\n        /* \"#utility.yul\":10908:12685   */\n    tag_40:\n        /* \"#utility.yul\":11052:11058   */\n      0x00\n        /* \"#utility.yul\":11060:11066   */\n      dup1\n        /* \"#utility.yul\":11068:11074   */\n      0x00\n        /* \"#utility.yul\":11076:11082   */\n      dup1\n        /* \"#utility.yul\":11084:11090   */\n      0x00\n        /* \"#utility.yul\":11092:11098   */\n      dup1\n        /* \"#utility.yul\":11141:11144   */\n      0xc0\n        /* \"#utility.yul\":11129:11138   */\n      dup8\n        /* \"#utility.yul\":11120:11127   */\n      dup10\n        /* \"#utility.yul\":11116:11139   */\n      sub\n        /* \"#utility.yul\":11112:11145   */\n      slt\n        /* \"#utility.yul\":11109:11229   */\n      iszero\n      tag_259\n      jumpi\n        /* \"#utility.yul\":11148:11227   */\n      tag_260\n      tag_105\n      jump\t// in\n    tag_260:\n        /* \"#utility.yul\":11109:11229   */\n    tag_259:\n        /* \"#utility.yul\":11268:11269   */\n      0x00\n        /* \"#utility.yul\":11293:11346   */\n      tag_261\n        /* \"#utility.yul\":11338:11345   */\n      dup10\n        /* \"#utility.yul\":11329:11335   */\n      dup3\n        /* \"#utility.yul\":11318:11327   */\n      dup11\n        /* \"#utility.yul\":11314:11336   */\n      add\n        /* \"#utility.yul\":11293:11346   */\n      tag_133\n      jump\t// in\n    tag_261:\n        /* \"#utility.yul\":11283:11346   */\n      swap7\n      pop\n        /* \"#utility.yul\":11239:11356   */\n      pop\n        /* \"#utility.yul\":11395:11397   */\n      0x20\n        /* \"#utility.yul\":11421:11474   */\n      tag_262\n        /* \"#utility.yul\":11466:11473   */\n      dup10\n        /* \"#utility.yul\":11457:11463   */\n      dup3\n        /* \"#utility.yul\":11446:11455   */\n      dup11\n        /* \"#utility.yul\":11442:11464   */\n      add\n        /* \"#utility.yul\":11421:11474   */\n      tag_108\n      jump\t// in\n    tag_262:\n        /* \"#utility.yul\":11411:11474   */\n      swap6\n      pop\n        /* \"#utility.yul\":11366:11484   */\n      pop\n        /* \"#utility.yul\":11551:11553   */\n      0x40\n        /* \"#utility.yul\":11540:11549   */\n      dup8\n        /* \"#utility.yul\":11536:11554   */\n      add\n        /* \"#utility.yul\":11523:11555   */\n      calldataload\n        /* \"#utility.yul\":11582:11600   */\n      0xffffffffffffffff\n        /* \"#utility.yul\":11574:11580   */\n      dup2\n        /* \"#utility.yul\":11571:11601   */\n      gt\n        /* \"#utility.yul\":11568:11685   */\n      iszero\n      tag_263\n      jumpi\n        /* \"#utility.yul\":11604:11683   */\n      tag_264\n      tag_106\n      jump\t// in\n    tag_264:\n        /* \"#utility.yul\":11568:11685   */\n    tag_263:\n        /* \"#utility.yul\":11709:11772   */\n      tag_265\n        /* \"#utility.yul\":11764:11771   */\n      dup10\n        /* \"#utility.yul\":11755:11761   */\n      dup3\n        /* \"#utility.yul\":11744:11753   */\n      dup11\n        /* \"#utility.yul\":11740:11762   */\n      add\n        /* \"#utility.yul\":11709:11772   */\n      tag_118\n      jump\t// in\n    tag_265:\n        /* \"#utility.yul\":11699:11772   */\n      swap5\n      pop\n        /* \"#utility.yul\":11494:11782   */\n      pop\n        /* \"#utility.yul\":11849:11851   */\n      0x60\n        /* \"#utility.yul\":11838:11847   */\n      dup8\n        /* \"#utility.yul\":11834:11852   */\n      add\n        /* \"#utility.yul\":11821:11853   */\n      calldataload\n        /* \"#utility.yul\":11880:11898   */\n      0xffffffffffffffff\n        /* \"#utility.yul\":11872:11878   */\n      dup2\n        /* \"#utility.yul\":11869:11899   */\n      gt\n        /* \"#utility.yul\":11866:11983   */\n      iszero\n      tag_266\n      jumpi\n        /* \"#utility.yul\":11902:11981   */\n      tag_267\n      tag_106\n      jump\t// in\n    tag_267:\n        /* \"#utility.yul\":11866:11983   */\n    tag_266:\n        /* \"#utility.yul\":12007:12070   */\n      tag_268\n        /* \"#utility.yul\":12062:12069   */\n      dup10\n        /* \"#utility.yul\":12053:12059   */\n      dup3\n        /* \"#utility.yul\":12042:12051   */\n      dup11\n        /* \"#utility.yul\":12038:12060   */\n      add\n        /* \"#utility.yul\":12007:12070   */\n      tag_118\n      jump\t// in\n    tag_268:\n        /* \"#utility.yul\":11997:12070   */\n      swap4\n      pop\n        /* \"#utility.yul\":11792:12080   */\n      pop\n        /* \"#utility.yul\":12147:12150   */\n      0x80\n        /* \"#utility.yul\":12136:12145   */\n      dup8\n        /* \"#utility.yul\":12132:12151   */\n      add\n        /* \"#utility.yul\":12119:12152   */\n      calldataload\n        /* \"#utility.yul\":12179:12197   */\n      0xffffffffffffffff\n        /* \"#utility.yul\":12171:12177   */\n      dup2\n        /* \"#utility.yul\":12168:12198   */\n      gt\n        /* \"#utility.yul\":12165:12282   */\n      iszero\n      tag_269\n      jumpi\n        /* \"#utility.yul\":12201:12280   */\n      tag_270\n      tag_106\n      jump\t// in\n    tag_270:\n        /* \"#utility.yul\":12165:12282   */\n    tag_269:\n        /* \"#utility.yul\":12306:12369   */\n      tag_271\n        /* \"#utility.yul\":12361:12368   */\n      dup10\n        /* \"#utility.yul\":12352:12358   */\n      dup3\n        /* \"#utility.yul\":12341:12350   */\n      dup11\n        /* \"#utility.yul\":12337:12359   */\n      add\n        /* \"#utility.yul\":12306:12369   */\n      tag_118\n      jump\t// in\n    tag_271:\n        /* \"#utility.yul\":12296:12369   */\n      swap3\n      pop\n        /* \"#utility.yul\":12090:12379   */\n      pop\n        /* \"#utility.yul\":12446:12449   */\n      0xa0\n        /* \"#utility.yul\":12435:12444   */\n      dup8\n        /* \"#utility.yul\":12431:12450   */\n      add\n        /* \"#utility.yul\":12418:12451   */\n      calldataload\n        /* \"#utility.yul\":12478:12496   */\n      0xffffffffffffffff\n        /* \"#utility.yul\":12470:12476   */\n      dup2\n        /* \"#utility.yul\":12467:12497   */\n      gt\n        /* \"#utility.yul\":12464:12581   */\n      iszero\n      tag_272\n      jumpi\n        /* \"#utility.yul\":12500:12579   */\n      tag_273\n      tag_106\n      jump\t// in\n    tag_273:\n        /* \"#utility.yul\":12464:12581   */\n    tag_272:\n        /* \"#utility.yul\":12605:12668   */\n      tag_274\n        /* \"#utility.yul\":12660:12667   */\n      dup10\n        /* \"#utility.yul\":12651:12657   */\n      dup3\n        /* \"#utility.yul\":12640:12649   */\n      dup11\n        /* \"#utility.yul\":12636:12658   */\n      add\n        /* \"#utility.yul\":12605:12668   */\n      tag_118\n      jump\t// in\n    tag_274:\n        /* \"#utility.yul\":12595:12668   */\n      swap2\n      pop\n        /* \"#utility.yul\":12389:12678   */\n      pop\n        /* \"#utility.yul\":10908:12685   */\n      swap3\n      swap6\n      pop\n      swap3\n      swap6\n      pop\n      swap3\n      swap6\n      jump\t// out\n        /* \"#utility.yul\":12691:12871   */\n    tag_134:\n        /* \"#utility.yul\":12739:12816   */\n      0x4e487b7100000000000000000000000000000000000000000000000000000000\n        /* \"#utility.yul\":12736:12737   */\n      0x00\n        /* \"#utility.yul\":12729:12817   */\n      mstore\n        /* \"#utility.yul\":12836:12840   */\n      0x22\n        /* \"#utility.yul\":12833:12834   */\n      0x04\n        /* \"#utility.yul\":12826:12841   */\n      mstore\n        /* \"#utility.yul\":12860:12864   */\n      0x24\n        /* \"#utility.yul\":12857:12858   */\n      0x00\n        /* \"#utility.yul\":12850:12865   */\n      revert\n        /* \"#utility.yul\":12877:13197   */\n    tag_54:\n        /* \"#utility.yul\":12921:12927   */\n      0x00\n        /* \"#utility.yul\":12958:12959   */\n      0x02\n        /* \"#utility.yul\":12952:12956   */\n      dup3\n        /* \"#utility.yul\":12948:12960   */\n      div\n        /* \"#utility.yul\":12938:12960   */\n      swap1\n      pop\n        /* \"#utility.yul\":13005:13006   */\n      0x01\n        /* \"#utility.yul\":12999:13003   */\n      dup3\n        /* \"#utility.yul\":12995:13007   */\n      and\n        /* \"#utility.yul\":13026:13044   */\n      dup1\n        /* \"#utility.yul\":13016:13097   */\n      tag_277\n      jumpi\n        /* \"#utility.yul\":13082:13086   */\n      0x7f\n        /* \"#utility.yul\":13074:13080   */\n      dup3\n        /* \"#utility.yul\":13070:13087   */\n      and\n        /* \"#utility.yul\":13060:13087   */\n      swap2\n      pop\n        /* \"#utility.yul\":13016:13097   */\n    tag_277:\n        /* \"#utility.yul\":13144:13146   */\n      0x20\n        /* \"#utility.yul\":13136:13142   */\n      dup3\n        /* \"#utility.yul\":13133:13147   */\n      lt\n        /* \"#utility.yul\":13113:13131   */\n      dup2\n        /* \"#utility.yul\":13110:13148   */\n      sub\n        /* \"#utility.yul\":13107:13191   */\n      tag_278\n      jumpi\n        /* \"#utility.yul\":13163:13181   */\n      tag_279\n      tag_134\n      jump\t// in\n    tag_279:\n        /* \"#utility.yul\":13107:13191   */\n    tag_278:\n        /* \"#utility.yul\":12928:13197   */\n      pop\n        /* \"#utility.yul\":12877:13197   */\n      swap2\n      swap1\n      pop\n      jump\t// out\n        /* \"#utility.yul\":13203:13344   */\n    tag_135:\n        /* \"#utility.yul\":13252:13256   */\n      0x00\n        /* \"#utility.yul\":13275:13278   */\n      dup2\n        /* \"#utility.yul\":13267:13278   */\n      swap1\n      pop\n        /* \"#utility.yul\":13298:13301   */\n      dup2\n        /* \"#utility.yul\":13295:13296   */\n      0x00\n        /* \"#utility.yul\":13288:13302   */\n      mstore\n        /* \"#utility.yul\":13332:13336   */\n      0x20\n        /* \"#utility.yul\":13329:13330   */\n      0x00\n        /* \"#utility.yul\":13319:13337   */\n      keccak256\n        /* \"#utility.yul\":13311:13337   */\n      swap1\n      pop\n        /* \"#utility.yul\":13203:13344   */\n      swap2\n      swap1\n      pop\n      jump\t// out\n        /* \"#utility.yul\":13350:13443   */\n    tag_136:\n        /* \"#utility.yul\":13387:13393   */\n      0x00\n        /* \"#utility.yul\":13434:13436   */\n      0x20\n        /* \"#utility.yul\":13429:13431   */\n      0x1f\n        /* \"#utility.yul\":13422:13427   */\n      dup4\n        /* \"#utility.yul\":13418:13432   */\n      add\n        /* \"#utility.yul\":13414:13437   */\n      div\n        /* \"#utility.yul\":13404:13437   */\n      swap1\n      pop\n        /* \"#utility.yul\":13350:13443   */\n      swap2\n      swap1\n      pop\n      jump\t// out\n        /* \"#utility.yul\":13449:13556   */\n    tag_137:\n        /* \"#utility.yul\":13493:13501   */\n      0x00\n        /* \"#utility.yul\":13543:13548   */\n      dup3\n        /* \"#utility.yul\":13537:13541   */\n      dup3\n        /* \"#utility.yul\":13533:13549   */\n      shl\n        /* \"#utility.yul\":13512:13549   */\n      swap1\n      pop\n        /* \"#utility.yul\":13449:13556   */\n      swap3\n      swap2\n      pop\n      pop\n      jump\t// out\n        /* \"#utility.yul\":13562:13955   */\n    tag_138:\n        /* \"#utility.yul\":13631:13637   */\n      0x00\n        /* \"#utility.yul\":13681:13682   */\n      0x08\n        /* \"#utility.yul\":13669:13679   */\n      dup4\n        /* \"#utility.yul\":13665:13683   */\n      mul\n        /* \"#utility.yul\":13704:13801   */\n      tag_284\n        /* \"#utility.yul\":13734:13800   */\n      0xffffffffffffffffffffffffffffffffffffffffffffffffffffffffffffffff\n        /* \"#utility.yul\":13723:13732   */\n      dup3\n        /* \"#utility.yul\":13704:13801   */\n      tag_137\n      jump\t// in\n    tag_284:\n        /* \"#utility.yul\":13822:13861   */\n      tag_285\n        /* \"#utility.yul\":13852:13860   */\n      dup7\n        /* \"#utility.yul\":13841:13850   */\n      dup4\n        /* \"#utility.yul\":13822:13861   */\n      tag_137\n      jump\t// in\n    tag_285:\n        /* \"#utility.yul\":13810:13861   */\n      swap6\n      pop\n        /* \"#utility.yul\":13894:13898   */\n      dup1\n        /* \"#utility.yul\":13890:13899   */\n      not\n        /* \"#utility.yul\":13883:13888   */\n      dup5\n        /* \"#utility.yul\":13879:13900   */\n      and\n        /* \"#utility.yul\":13870:13900   */\n      swap4\n      pop\n        /* \"#utility.yul\":13943:13947   */\n      dup1\n        /* \"#utility.yul\":13933:13941   */\n      dup7\n        /* \"#utility.yul\":13929:13948   */\n      and\n        /* \"#utility.yul\":13922:13927   */\n      dup5\n        /* \"#utility.yul\":13919:13949   */\n      or\n        /* \"#utility.yul\":13909:13949   */\n      swap3\n      pop\n        /* \"#utility.yul\":13638:13955   */\n      pop\n      pop\n        /* \"#utility.yul\":13562:13955   */\n      swap4\n      swap3\n      pop\n      pop\n      pop\n      jump\t// out\n        /* \"#utility.yul\":13961:14021   */\n    tag_139:\n        /* \"#utility.yul\":13989:13992   */\n      0x00\n        /* \"#utility.yul\":14010:14015   */\n      dup2\n        /* \"#utility.yul\":14003:14015   */\n      swap1\n      pop\n        /* \"#utility.yul\":13961:14021   */\n      swap2\n      swap1\n      pop\n      jump\t// out\n        /* \"#utility.yul\":14027:14169   */\n    tag_140:\n        /* \"#utility.yul\":14077:14086   */\n      0x00\n        /* \"#utility.yul\":14110:14163   */\n      tag_288\n        /* \"#utility.yul\":14128:14162   */\n      tag_289\n        /* \"#utility.yul\":14137:14161   */\n      tag_290\n        /* \"#utility.yul\":14155:14160   */\n      dup5\n        /* \"#utility.yul\":14137:14161   */\n      tag_131\n      jump\t// in\n    tag_290:\n        /* \"#utility.yul\":14128:14162   */\n      tag_139\n      jump\t// in\n    tag_289:\n        /* \"#utility.yul\":14110:14163   */\n      tag_131\n      jump\t// in\n    tag_288:\n        /* \"#utility.yul\":14097:14163   */\n      swap1\n      pop\n        /* \"#utility.yul\":14027:14169   */\n      swap2\n      swap1\n      pop\n      jump\t// out\n        /* \"#utility.yul\":14175:14250   */\n    tag_141:\n        /* \"#utility.yul\":14218:14221   */\n      0x00\n        /* \"#utility.yul\":14239:14244   */\n      dup2\n        /* \"#utility.yul\":14232:14244   */\n      swap1\n      pop\n        /* \"#utility.yul\":14175:14250   */\n      swap2\n      swap1\n      pop\n      jump\t// out\n        /* \"#utility.yul\":14256:14525   */\n    tag_142:\n        /* \"#utility.yul\":14366:14405   */\n      tag_293\n        /* \"#utility.yul\":14397:14404   */\n      dup4\n        /* \"#utility.yul\":14366:14405   */\n      tag_140\n      jump\t// in\n    tag_293:\n        /* \"#utility.yul\":14427:14518   */\n      tag_294\n        /* \"#utility.yul\":14476:14517   */\n      tag_295\n        /* \"#utility.yul\":14500:14516   */\n      dup3\n        /* \"#utility.yul\":14476:14517   */\n      tag_141\n      jump\t// in\n    tag_295:\n        /* \"#utility.yul\":14468:14474   */\n      dup5\n        /* \"#utility.yul\":14461:14465   */\n      dup5\n        /* \"#utility.yul\":14455:14466   */\n      sload\n        /* \"#utility.yul\":14427:14518   */\n      tag_138\n      jump\t// in\n    tag_294:\n        /* \"#utility.yul\":14421:14425   */\n      dup3\n        /* \"#utility.yul\":14414:14519   */\n      sstore\n        /* \"#utility.yul\":14332:14525   */\n      pop\n        /* \"#utility.yul\":14256:14525   */\n      pop\n      pop\n      pop\n      jump\t// out\n        /* \"#utility.yul\":14531:14604   */\n    tag_143:\n        /* \"#utility.yul\":14576:14579   */\n      0x00\n        /* \"#utility.yul\":14531:14604   */\n      swap1\n      jump\t// out\n        /* \"#utility.yul\":14610:14799   */\n    tag_144:\n        /* \"#utility.yul\":14687:14719   */\n      tag_298\n      tag_143\n      jump\t// in\n    tag_298:\n        /* \"#utility.yul\":14728:14793   */\n      tag_299\n        /* \"#utility.yul\":14786:14792   */\n      dup2\n        /* \"#utility.yul\":14778:14784   */\n      dup5\n        /* \"#utility.yul\":14772:14776   */\n      dup5\n        /* \"#utility.yul\":14728:14793   */\n      tag_142\n      jump\t// in\n    tag_299:\n        /* \"#utility.yul\":14663:14799   */\n      pop\n        /* \"#utility.yul\":14610:14799   */\n      pop\n      pop\n      jump\t// out\n        /* \"#utility.yul\":14805:14991   */\n    tag_145:\n        /* \"#utility.yul\":14865:14985   */\n    tag_301:\n        /* \"#utility.yul\":14882:14885   */\n      dup2\n        /* \"#utility.yul\":14875:14880   */\n      dup2\n        /* \"#utility.yul\":14872:14886   */\n      lt\n        /* \"#utility.yul\":14865:14985   */\n      iszero\n      tag_303\n      jumpi\n        /* \"#utility.yul\":14936:14975   */\n      tag_304\n        /* \"#utility.yul\":14973:14974   */\n      0x00\n        /* \"#utility.yul\":14966:14971   */\n      dup3\n        /* \"#utility.yul\":14936:14975   */\n      tag_144\n      jump\t// in\n    tag_304:\n        /* \"#utility.yul\":14909:14910   */\n      0x01\n        /* \"#utility.yul\":14902:14907   */\n      dup2\n        /* \"#utility.yul\":14898:14911   */\n      add\n        /* \"#utility.yul\":14889:14911   */\n      swap1\n      pop\n        /* \"#utility.yul\":14865:14985   */\n      jump(tag_301)\n    tag_303:\n        /* \"#utility.yul\":14805:14991   */\n      pop\n      pop\n      jump\t// out\n        /* \"#utility.yul\":14997:15540   */\n    tag_146:\n        /* \"#utility.yul\":15098:15100   */\n      0x1f\n        /* \"#utility.yul\":15093:15096   */\n      dup3\n        /* \"#utility.yul\":15090:15101   */\n      gt\n        /* \"#utility.yul\":15087:15533   */\n      iszero\n      tag_306\n      jumpi\n        /* \"#utility.yul\":15132:15170   */\n      tag_307\n        /* \"#utility.yul\":15164:15169   */\n      dup2\n        /* \"#utility.yul\":15132:15170   */\n      tag_135\n      jump\t// in\n    tag_307:\n        /* \"#utility.yul\":15216:15245   */\n      tag_308\n        /* \"#utility.yul\":15234:15244   */\n      dup5\n        /* \"#utility.yul\":15216:15245   */\n      tag_136\n      jump\t// in\n    tag_308:\n        /* \"#utility.yul\":15206:15214   */\n      dup2\n        /* \"#utility.yul\":15202:15246   */\n      add\n        /* \"#utility.yul\":15399:15401   */\n      0x20\n        /* \"#utility.yul\":15387:15397   */\n      dup6\n        /* \"#utility.yul\":15384:15402   */\n      lt\n        /* \"#utility.yul\":15381:15430   */\n      iszero\n      tag_309\n      jumpi\n        /* \"#utility.yul\":15420:15428   */\n      dup2\n        /* \"#utility.yul\":15405:15428   */\n      swap1\n      pop\n        /* \"#utility.yul\":15381:15430   */\n    tag_309:\n        /* \"#utility.yul\":15443:15523   */\n      tag_310\n        /* \"#utility.yul\":15499:15521   */\n      tag_311\n        /* \"#utility.yul\":15517:15520   */\n      dup6\n        /* \"#utility.yul\":15499:15521   */\n      tag_136\n      jump\t// in\n    tag_311:\n        /* \"#utility.yul\":15489:15497   */\n      dup4\n        /* \"#utility.yul\":15485:15522   */\n      add\n        /* \"#utility.yul\":15472:15483   */\n      dup3\n        /* \"#utility.yul\":15443:15523   */\n      tag_145\n      jump\t// in\n    tag_310:\n        /* \"#utility.yul\":15102:15533   */\n      pop\n      pop\n        /* \"#utility.yul\":15087:15533   */\n    tag_306:\n        /* \"#utility.yul\":14997:15540   */\n      pop\n      pop\n      pop\n      jump\t// out\n        /* \"#utility.yul\":15546:15663   */\n    tag_147:\n        /* \"#utility.yul\":15600:15608   */\n      0x00\n        /* \"#utility.yul\":15650:15655   */\n      dup3\n        /* \"#utility.yul\":15644:15648   */\n      dup3\n        /* \"#utility.yul\":15640:15656   */\n      shr\n        /* \"#utility.yul\":15619:15656   */\n      swap1\n      pop\n        /* \"#utility.yul\":15546:15663   */\n      swap3\n      swap2\n      pop\n      pop\n      jump\t// out\n        /* \"#utility.yul\":15669:15838   */\n    tag_148:\n        /* \"#utility.yul\":15713:15719   */\n      0x00\n        /* \"#utility.yul\":15746:15797   */\n      tag_314\n        /* \"#utility.yul\":15794:15795   */\n      0x00\n        /* \"#utility.yul\":15790:15796   */\n      not\n        /* \"#utility.yul\":15782:15787   */\n      dup5\n        /* \"#utility.yul\":15779:15780   */\n      0x08\n        /* \"#utility.yul\":15775:15788   */\n      mul\n        /* \"#utility.yul\":15746:15797   */\n      tag_147\n      jump\t// in\n    tag_314:\n        /* \"#utility.yul\":15742:15798   */\n      not\n        /* \"#utility.yul\":15827:15831   */\n      dup1\n        /* \"#utility.yul\":15821:15825   */\n      dup4\n        /* \"#utility.yul\":15817:15832   */\n      and\n        /* \"#utility.yul\":15807:15832   */\n      swap2\n      pop\n        /* \"#utility.yul\":15720:15838   */\n      pop\n        /* \"#utility.yul\":15669:15838   */\n      swap3\n      swap2\n      pop\n      pop\n      jump\t// out\n        /* \"#utility.yul\":15843:16138   */\n    tag_149:\n        /* \"#utility.yul\":15919:15923   */\n      0x00\n        /* \"#utility.yul\":16065:16094   */\n      tag_316\n        /* \"#utility.yul\":16090:16093   */\n      dup4\n        /* \"#utility.yul\":16084:16088   */\n      dup4\n        /* \"#utility.yul\":16065:16094   */\n      tag_148\n      jump\t// in\n    tag_316:\n        /* \"#utility.yul\":16057:16094   */\n      swap2\n      pop\n        /* \"#utility.yul\":16127:16130   */\n      dup3\n        /* \"#utility.yul\":16124:16125   */\n      0x02\n        /* \"#utility.yul\":16120:16131   */\n      mul\n        /* \"#utility.yul\":16114:16118   */\n      dup3\n        /* \"#utility.yul\":16111:16132   */\n      or\n        /* \"#utility.yul\":16103:16132   */\n      swap1\n      pop\n        /* \"#utility.yul\":15843:16138   */\n      swap3\n      swap2\n      pop\n      pop\n      jump\t// out\n        /* \"#utility.yul\":16143:17538   */\n    tag_45:\n        /* \"#utility.yul\":16260:16297   */\n      tag_318\n        /* \"#utility.yul\":16293:16296   */\n      dup3\n        /* \"#utility.yul\":16260:16297   */\n      tag_123\n      jump\t// in\n    tag_318:\n        /* \"#utility.yul\":16362:16380   */\n      0xffffffffffffffff\n        /* \"#utility.yul\":16354:16360   */\n      dup2\n        /* \"#utility.yul\":16351:16381   */\n      gt\n        /* \"#utility.yul\":16348:16404   */\n      iszero\n      tag_319\n      jumpi\n        /* \"#utility.yul\":16384:16402   */\n      tag_320\n      tag_112\n      jump\t// in\n    tag_320:\n        /* \"#utility.yul\":16348:16404   */\n    tag_319:\n        /* \"#utility.yul\":16428:16466   */\n      tag_321\n        /* \"#utility.yul\":16460:16464   */\n      dup3\n        /* \"#utility.yul\":16454:16465   */\n      sload\n        /* \"#utility.yul\":16428:16466   */\n      tag_54\n      jump\t// in\n    tag_321:\n        /* \"#utility.yul\":16513:16580   */\n      tag_322\n        /* \"#utility.yul\":16573:16579   */\n      dup3\n        /* \"#utility.yul\":16565:16571   */\n      dup3\n        /* \"#utility.yul\":16559:16563   */\n      dup6\n        /* \"#utility.yul\":16513:16580   */\n      tag_146\n      jump\t// in\n    tag_322:\n        /* \"#utility.yul\":16607:16608   */\n      0x00\n        /* \"#utility.yul\":16631:16635   */\n      0x20\n        /* \"#utility.yul\":16618:16635   */\n      swap1\n      pop\n        /* \"#utility.yul\":16663:16665   */\n      0x1f\n        /* \"#utility.yul\":16655:16661   */\n      dup4\n        /* \"#utility.yul\":16652:16666   */\n      gt\n        /* \"#utility.yul\":16680:16681   */\n      0x01\n        /* \"#utility.yul\":16675:17293   */\n      dup2\n      eq\n      tag_324\n      jumpi\n        /* \"#utility.yul\":17337:17338   */\n      0x00\n        /* \"#utility.yul\":17354:17360   */\n      dup5\n        /* \"#utility.yul\":17351:17428   */\n      iszero\n      tag_325\n      jumpi\n        /* \"#utility.yul\":17403:17412   */\n      dup3\n        /* \"#utility.yul\":17398:17401   */\n      dup8\n        /* \"#utility.yul\":17394:17413   */\n      add\n        /* \"#utility.yul\":17388:17414   */\n      mload\n        /* \"#utility.yul\":17379:17414   */\n      swap1\n      pop\n        /* \"#utility.yul\":17351:17428   */\n    tag_325:\n        /* \"#utility.yul\":17454:17521   */\n      tag_326\n        /* \"#utility.yul\":17514:17520   */\n      dup6\n        /* \"#utility.yul\":17507:17512   */\n      dup3\n        /* \"#utility.yul\":17454:17521   */\n      tag_149\n      jump\t// in\n    tag_326:\n        /* \"#utility.yul\":17448:17452   */\n      dup7\n        /* \"#utility.yul\":17441:17522   */\n      sstore\n        /* \"#utility.yul\":17310:17532   */\n      pop\n        /* \"#utility.yul\":16645:17532   */\n      jump(tag_323)\n        /* \"#utility.yul\":16675:17293   */\n    tag_324:\n        /* \"#utility.yul\":16727:16731   */\n      0x1f\n        /* \"#utility.yul\":16723:16732   */\n      not\n        /* \"#utility.yul\":16715:16721   */\n      dup5\n        /* \"#utility.yul\":16711:16733   */\n      and\n        /* \"#utility.yul\":16761:16798   */\n      tag_327\n        /* \"#utility.yul\":16793:16797   */\n      dup7\n        /* \"#utility.yul\":16761:16798   */\n      tag_135\n      jump\t// in\n    tag_327:\n        /* \"#utility.yul\":16820:16821   */\n      0x00\n        /* \"#utility.yul\":16834:17042   */\n    tag_328:\n        /* \"#utility.yul\":16848:16855   */\n      dup3\n        /* \"#utility.yul\":16845:16846   */\n      dup2\n        /* \"#utility.yul\":16842:16856   */\n      lt\n        /* \"#utility.yul\":16834:17042   */\n      iszero\n      tag_330\n      jumpi\n        /* \"#utility.yul\":16927:16936   */\n      dup5\n        /* \"#utility.yul\":16922:16925   */\n      dup10\n        /* \"#utility.yul\":16918:16937   */\n      add\n        /* \"#utility.yul\":16912:16938   */\n      mload\n        /* \"#utility.yul\":16904:16910   */\n      dup3\n        /* \"#utility.yul\":16897:16939   */\n      sstore\n        /* \"#utility.yul\":16978:16979   */\n      0x01\n        /* \"#utility.yul\":16970:16976   */\n      dup3\n        /* \"#utility.yul\":16966:16980   */\n      add\n        /* \"#utility.yul\":16956:16980   */\n      swap2\n      pop\n        /* \"#utility.yul\":17025:17027   */\n      0x20\n        /* \"#utility.yul\":17014:17023   */\n      dup6\n        /* \"#utility.yul\":17010:17028   */\n      add\n        /* \"#utility.yul\":16997:17028   */\n      swap5\n      pop\n        /* \"#utility.yul\":16871:16875   */\n      0x20\n        /* \"#utility.yul\":16868:16869   */\n      dup2\n        /* \"#utility.yul\":16864:16876   */\n      add\n        /* \"#utility.yul\":16859:16876   */\n      swap1\n      pop\n        /* \"#utility.yul\":16834:17042   */\n      jump(tag_328)\n    tag_330:\n        /* \"#utility.yul\":17070:17076   */\n      dup7\n        /* \"#utility.yul\":17061:17068   */\n      dup4\n        /* \"#utility.yul\":17058:17077   */\n      lt\n        /* \"#utility.yul\":17055:17234   */\n      iszero\n      tag_331\n      jumpi\n        /* \"#utility.yul\":17128:17137   */\n      dup5\n        /* \"#utility.yul\":17123:17126   */\n      dup10\n        /* \"#utility.yul\":17119:17138   */\n      add\n        /* \"#utility.yul\":17113:17139   */\n      mload\n        /* \"#utility.yul\":17171:17219   */\n      tag_332\n        /* \"#utility.yul\":17213:17217   */\n      0x1f\n        /* \"#utility.yul\":17205:17211   */\n      dup10\n        /* \"#utility.yul\":17201:17218   */\n      and\n        /* \"#utility.yul\":17190:17199   */\n      dup3\n        /* \"#utility.yul\":17171:17219   */\n      tag_148\n      jump\t// in\n    tag_332:\n        /* \"#utility.yul\":17163:17169   */\n      dup4\n        /* \"#utility.yul\":17156:17220   */\n      sstore\n        /* \"#utility.yul\":17078:17234   */\n      pop\n        /* \"#utility.yul\":17055:17234   */\n    tag_331:\n        /* \"#utility.yul\":17280:17281   */\n      0x01\n        /* \"#utility.yul\":17276:17277   */\n      0x02\n        /* \"#utility.yul\":17268:17274   */\n      dup9\n        /* \"#utility.yul\":17264:17278   */\n      mul\n        /* \"#utility.yul\":17260:17282   */\n      add\n        /* \"#utility.yul\":17254:17258   */\n      dup9\n        /* \"#utility.yul\":17247:17283   */\n      sstore\n        /* \"#utility.yul\":16682:17293   */\n      pop\n      pop\n      pop\n        /* \"#utility.yul\":16645:17532   */\n    tag_323:\n      pop\n        /* \"#utility.yul\":16235:17538   */\n      pop\n      pop\n      pop\n        /* \"#utility.yul\":16143:17538   */\n      pop\n      pop\n      jump\t// out\n        /* \"#utility.yul\":17544:17724   */\n    tag_78:\n        /* \"#utility.yul\":17592:17669   */\n      0x4e487b7100000000000000000000000000000000000000000000000000000000\n        /* \"#utility.yul\":17589:17590   */\n      0x00\n        /* \"#utility.yul\":17582:17670   */\n      mstore\n        /* \"#utility.yul\":17689:17693   */\n      0x32\n        /* \"#utility.yul\":17686:17687   */\n      0x04\n        /* \"#utility.yul\":17679:17694   */\n      mstore\n        /* \"#utility.yul\":17713:17717   */\n      0x24\n        /* \"#utility.yul\":17710:17711   */\n      0x00\n        /* \"#utility.yul\":17703:17718   */\n      revert\n\n    auxdata: 0xa2646970667358221220698fb8a0a444962122bfcdb8109c66eba7ecb1021d4b79990b08c22dfa483c6764736f6c63430008110033\n}\n",
				"bytecode": {
					"linkReferences": {},
					"object": "608060405234801561001057600080fd5b506111ec806100206000396000f3fe608060405234801561001057600080fd5b50600436106100885760003560e01c8063b29f04fe1161005b578063b29f04fe14610103578063b78842ee1461011f578063dacf64e21461013b578063efa3b7cc1461015757610088565b8063085d48831461008d5780631fbecde7146100ab57806376cdb03b146100c7578063827b0348146100e5575b600080fd5b610095610173565b6040516100a29190610893565b60405180910390f35b6100c560048036038101906100c09190610a34565b610197565b005b6100cf6102ad565b6040516100dc9190610893565b60405180910390f35b6100ed6102d3565b6040516100fa9190610cfa565b60405180910390f35b61011d60048036038101906101189190610d1c565b6105d0565b005b61013960048036038101906101349190610d7f565b610613565b005b61015560048036038101906101509190610d1c565b6106a2565b005b610171600480360381019061016c9190610dac565b6106e6565b005b60008054906101000a900473ffffffffffffffffffffffffffffffffffffffff1681565b60006040518060a001604052808773ffffffffffffffffffffffffffffffffffffffff168152602001868152602001858152602001848152602001838152509050600281908060018154018082558091505060019003906000526020600020906005020160009091909190915060008201518160000160006101000a81548173ffffffffffffffffffffffffffffffffffffffff021916908373ffffffffffffffffffffffffffffffffffffffff160217905550602082015181600101908161026091906110b5565b50604082015181600201908161027691906110b5565b50606082015181600301908161028c91906110b5565b5060808201518160040190816102a291906110b5565b505050505050505050565b600160009054906101000a900473ffffffffffffffffffffffffffffffffffffffff1681565b60606002805480602002602001604051908101604052809291908181526020016000905b828210156105c757838290600052602060002090600502016040518060a00160405290816000820160009054906101000a900473ffffffffffffffffffffffffffffffffffffffff1673ffffffffffffffffffffffffffffffffffffffff1673ffffffffffffffffffffffffffffffffffffffff16815260200160018201805461038090610ed8565b80601f01602080910402602001604051908101604052809291908181526020018280546103ac90610ed8565b80156103f95780601f106103ce576101008083540402835291602001916103f9565b820191906000526020600020905b8154815290600101906020018083116103dc57829003601f168201915b5050505050815260200160028201805461041290610ed8565b80601f016020809104026020016040519081016040528092919081815260200182805461043e90610ed8565b801561048b5780601f106104605761010080835404028352916020019161048b565b820191906000526020600020905b81548152906001019060200180831161046e57829003601f168201915b505050505081526020016003820180546104a490610ed8565b80601f01602080910402602001604051908101604052809291908181526020018280546104d090610ed8565b801561051d5780601f106104f25761010080835404028352916020019161051d565b820191906000526020600020905b81548152906001019060200180831161050057829003601f168201915b5050505050815260200160048201805461053690610ed8565b80601f016020809104026020016040519081016040528092919081815260200182805461056290610ed8565b80156105af5780601f10610584576101008083540402835291602001916105af565b820191906000526020600020905b81548152906001019060200180831161059257829003601f168201915b505050505081525050815260200190600101906102f7565b50505050905090565b806000806101000a81548173ffffffffffffffffffffffffffffffffffffffff021916908373ffffffffffffffffffffffffffffffffffffffff16021790555050565b6002818154811061062757610626611187565b5b9060005260206000209060050201600080820160006101000a81549073ffffffffffffffffffffffffffffffffffffffff021916905560018201600061066d91906107f5565b60028201600061067d91906107f5565b60038201600061068d91906107f5565b60048201600061069d91906107f5565b505050565b80600160006101000a81548173ffffffffffffffffffffffffffffffffffffffff021916908373ffffffffffffffffffffffffffffffffffffffff16021790555050565b60006040518060a001604052808773ffffffffffffffffffffffffffffffffffffffff168152602001868152602001858152602001848152602001838152509050806002888154811061073c5761073b611187565b5b906000526020600020906005020160008201518160000160006101000a81548173ffffffffffffffffffffffffffffffffffffffff021916908373ffffffffffffffffffffffffffffffffffffffff16021790555060208201518160010190816107a691906110b5565b5060408201518160020190816107bc91906110b5565b5060608201518160030190816107d291906110b5565b5060808201518160040190816107e891906110b5565b5090505050505050505050565b50805461080190610ed8565b6000825580601f106108135750610832565b601f0160209004906000526020600020908101906108319190610835565b5b50565b5b8082111561084e576000816000905550600101610836565b5090565b600073ffffffffffffffffffffffffffffffffffffffff82169050919050565b600061087d82610852565b9050919050565b61088d81610872565b82525050565b60006020820190506108a86000830184610884565b92915050565b6000604051905090565b600080fd5b600080fd5b6108cb81610872565b81146108d657600080fd5b50565b6000813590506108e8816108c2565b92915050565b600080fd5b600080fd5b6000601f19601f8301169050919050565b7f4e487b7100000000000000000000000000000000000000000000000000000000600052604160045260246000fd5b610941826108f8565b810181811067ffffffffffffffff821117156109605761095f610909565b5b80604052505050565b60006109736108ae565b905061097f8282610938565b919050565b600067ffffffffffffffff82111561099f5761099e610909565b5b6109a8826108f8565b9050602081019050919050565b82818337600083830152505050565b60006109d76109d284610984565b610969565b9050828152602081018484840111156109f3576109f26108f3565b5b6109fe8482856109b5565b509392505050565b600082601f830112610a1b57610a1a6108ee565b5b8135610a2b8482602086016109c4565b91505092915050565b600080600080600060a08688031215610a5057610a4f6108b8565b5b6000610a5e888289016108d9565b955050602086013567ffffffffffffffff811115610a7f57610a7e6108bd565b5b610a8b88828901610a06565b945050604086013567ffffffffffffffff811115610aac57610aab6108bd565b5b610ab888828901610a06565b935050606086013567ffffffffffffffff811115610ad957610ad86108bd565b5b610ae588828901610a06565b925050608086013567ffffffffffffffff811115610b0657610b056108bd565b5b610b1288828901610a06565b9150509295509295909350565b600081519050919050565b600082825260208201905092915050565b6000819050602082019050919050565b610b5481610872565b82525050565b600081519050919050565b600082825260208201905092915050565b60005b83811015610b94578082015181840152602081019050610b79565b60008484015250505050565b6000610bab82610b5a565b610bb58185610b65565b9350610bc5818560208601610b76565b610bce816108f8565b840191505092915050565b600060a083016000830151610bf16000860182610b4b565b5060208301518482036020860152610c098282610ba0565b91505060408301518482036040860152610c238282610ba0565b91505060608301518482036060860152610c3d8282610ba0565b91505060808301518482036080860152610c578282610ba0565b9150508091505092915050565b6000610c708383610bd9565b905092915050565b6000602082019050919050565b6000610c9082610b1f565b610c9a8185610b2a565b935083602082028501610cac85610b3b565b8060005b85811015610ce85784840389528151610cc98582610c64565b9450610cd483610c78565b925060208a01995050600181019050610cb0565b50829750879550505050505092915050565b60006020820190508181036000830152610d148184610c85565b905092915050565b600060208284031215610d3257610d316108b8565b5b6000610d40848285016108d9565b91505092915050565b6000819050919050565b610d5c81610d49565b8114610d6757600080fd5b50565b600081359050610d7981610d53565b92915050565b600060208284031215610d9557610d946108b8565b5b6000610da384828501610d6a565b91505092915050565b60008060008060008060c08789031215610dc957610dc86108b8565b5b6000610dd789828a01610d6a565b9650506020610de889828a016108d9565b955050604087013567ffffffffffffffff811115610e0957610e086108bd565b5b610e1589828a01610a06565b945050606087013567ffffffffffffffff811115610e3657610e356108bd565b5b610e4289828a01610a06565b935050608087013567ffffffffffffffff811115610e6357610e626108bd565b5b610e6f89828a01610a06565b92505060a087013567ffffffffffffffff811115610e9057610e8f6108bd565b5b610e9c89828a01610a06565b9150509295509295509295565b7f4e487b7100000000000000000000000000000000000000000000000000000000600052602260045260246000fd5b60006002820490506001821680610ef057607f821691505b602082108103610f0357610f02610ea9565b5b50919050565b60008190508160005260206000209050919050565b60006020601f8301049050919050565b600082821b905092915050565b600060088302610f6b7fffffffffffffffffffffffffffffffffffffffffffffffffffffffffffffffff82610f2e565b610f758683610f2e565b95508019841693508086168417925050509392505050565b6000819050919050565b6000610fb2610fad610fa884610d49565b610f8d565b610d49565b9050919050565b6000819050919050565b610fcc83610f97565b610fe0610fd882610fb9565b848454610f3b565b825550505050565b600090565b610ff5610fe8565b611000818484610fc3565b505050565b5b8181101561102457611019600082610fed565b600181019050611006565b5050565b601f8211156110695761103a81610f09565b61104384610f1e565b81016020851015611052578190505b61106661105e85610f1e565b830182611005565b50505b505050565b600082821c905092915050565b600061108c6000198460080261106e565b1980831691505092915050565b60006110a5838361107b565b9150826002028217905092915050565b6110be82610b5a565b67ffffffffffffffff8111156110d7576110d6610909565b5b6110e18254610ed8565b6110ec828285611028565b600060209050601f83116001811461111f576000841561110d578287015190505b6111178582611099565b86555061117f565b601f19841661112d86610f09565b60005b8281101561115557848901518255600182019150602085019450602081019050611130565b86831015611172578489015161116e601f89168261107b565b8355505b6001600288020188555050505b505050505050565b7f4e487b7100000000000000000000000000000000000000000000000000000000600052603260045260246000fdfea2646970667358221220698fb8a0a444962122bfcdb8109c66eba7ecb1021d4b79990b08c22dfa483c6764736f6c63430008110033",
					"opcodes": "PUSH1 0x80 PUSH1 0x40 MSTORE CALLVALUE DUP1 ISZERO PUSH2 0x10 JUMPI PUSH1 0x0 DUP1 REVERT JUMPDEST POP PUSH2 0x11EC DUP1 PUSH2 0x20 PUSH1 0x0 CODECOPY PUSH1 0x0 RETURN INVALID PUSH1 0x80 PUSH1 0x40 MSTORE CALLVALUE DUP1 ISZERO PUSH2 0x10 JUMPI PUSH1 0x0 DUP1 REVERT JUMPDEST POP PUSH1 0x4 CALLDATASIZE LT PUSH2 0x88 JUMPI PUSH1 0x0 CALLDATALOAD PUSH1 0xE0 SHR DUP1 PUSH4 0xB29F04FE GT PUSH2 0x5B JUMPI DUP1 PUSH4 0xB29F04FE EQ PUSH2 0x103 JUMPI DUP1 PUSH4 0xB78842EE EQ PUSH2 0x11F JUMPI DUP1 PUSH4 0xDACF64E2 EQ PUSH2 0x13B JUMPI DUP1 PUSH4 0xEFA3B7CC EQ PUSH2 0x157 JUMPI PUSH2 0x88 JUMP JUMPDEST DUP1 PUSH4 0x85D4883 EQ PUSH2 0x8D JUMPI DUP1 PUSH4 0x1FBECDE7 EQ PUSH2 0xAB JUMPI DUP1 PUSH4 0x76CDB03B EQ PUSH2 0xC7 JUMPI DUP1 PUSH4 0x827B0348 EQ PUSH2 0xE5 JUMPI JUMPDEST PUSH1 0x0 DUP1 REVERT JUMPDEST PUSH2 0x95 PUSH2 0x173 JUMP JUMPDEST PUSH1 0x40 MLOAD PUSH2 0xA2 SWAP2 SWAP1 PUSH2 0x893 JUMP JUMPDEST PUSH1 0x40 MLOAD DUP1 SWAP2 SUB SWAP1 RETURN JUMPDEST PUSH2 0xC5 PUSH1 0x4 DUP1 CALLDATASIZE SUB DUP2 ADD SWAP1 PUSH2 0xC0 SWAP2 SWAP1 PUSH2 0xA34 JUMP JUMPDEST PUSH2 0x197 JUMP JUMPDEST STOP JUMPDEST PUSH2 0xCF PUSH2 0x2AD JUMP JUMPDEST PUSH1 0x40 MLOAD PUSH2 0xDC SWAP2 SWAP1 PUSH2 0x893 JUMP JUMPDEST PUSH1 0x40 MLOAD DUP1 SWAP2 SUB SWAP1 RETURN JUMPDEST PUSH2 0xED PUSH2 0x2D3 JUMP JUMPDEST PUSH1 0x40 MLOAD PUSH2 0xFA SWAP2 SWAP1 PUSH2 0xCFA JUMP JUMPDEST PUSH1 0x40 MLOAD DUP1 SWAP2 SUB SWAP1 RETURN JUMPDEST PUSH2 0x11D PUSH1 0x4 DUP1 CALLDATASIZE SUB DUP2 ADD SWAP1 PUSH2 0x118 SWAP2 SWAP1 PUSH2 0xD1C JUMP JUMPDEST PUSH2 0x5D0 JUMP JUMPDEST STOP JUMPDEST PUSH2 0x139 PUSH1 0x4 DUP1 CALLDATASIZE SUB DUP2 ADD SWAP1 PUSH2 0x134 SWAP2 SWAP1 PUSH2 0xD7F JUMP JUMPDEST PUSH2 0x613 JUMP JUMPDEST STOP JUMPDEST PUSH2 0x155 PUSH1 0x4 DUP1 CALLDATASIZE SUB DUP2 ADD SWAP1 PUSH2 0x150 SWAP2 SWAP1 PUSH2 0xD1C JUMP JUMPDEST PUSH2 0x6A2 JUMP JUMPDEST STOP JUMPDEST PUSH2 0x171 PUSH1 0x4 DUP1 CALLDATASIZE SUB DUP2 ADD SWAP1 PUSH2 0x16C SWAP2 SWAP1 PUSH2 0xDAC JUMP JUMPDEST PUSH2 0x6E6 JUMP JUMPDEST STOP JUMPDEST PUSH1 0x0 DUP1 SLOAD SWAP1 PUSH2 0x100 EXP SWAP1 DIV PUSH20 0xFFFFFFFFFFFFFFFFFFFFFFFFFFFFFFFFFFFFFFFF AND DUP2 JUMP JUMPDEST PUSH1 0x0 PUSH1 0x40 MLOAD DUP1 PUSH1 0xA0 ADD PUSH1 0x40 MSTORE DUP1 DUP8 PUSH20 0xFFFFFFFFFFFFFFFFFFFFFFFFFFFFFFFFFFFFFFFF AND DUP2 MSTORE PUSH1 0x20 ADD DUP7 DUP2 MSTORE PUSH1 0x20 ADD DUP6 DUP2 MSTORE PUSH1 0x20 ADD DUP5 DUP2 MSTORE PUSH1 0x20 ADD DUP4 DUP2 MSTORE POP SWAP1 POP PUSH1 0x2 DUP2 SWAP1 DUP1 PUSH1 0x1 DUP2 SLOAD ADD DUP1 DUP3 SSTORE DUP1 SWAP2 POP POP PUSH1 0x1 SWAP1 SUB SWAP1 PUSH1 0x0 MSTORE PUSH1 0x20 PUSH1 0x0 KECCAK256 SWAP1 PUSH1 0x5 MUL ADD PUSH1 0x0 SWAP1 SWAP2 SWAP1 SWAP2 SWAP1 SWAP2 POP PUSH1 0x0 DUP3 ADD MLOAD DUP2 PUSH1 0x0 ADD PUSH1 0x0 PUSH2 0x100 EXP DUP2 SLOAD DUP2 PUSH20 0xFFFFFFFFFFFFFFFFFFFFFFFFFFFFFFFFFFFFFFFF MUL NOT AND SWAP1 DUP4 PUSH20 0xFFFFFFFFFFFFFFFFFFFFFFFFFFFFFFFFFFFFFFFF AND MUL OR SWAP1 SSTORE POP PUSH1 0x20 DUP3 ADD MLOAD DUP2 PUSH1 0x1 ADD SWAP1 DUP2 PUSH2 0x260 SWAP2 SWAP1 PUSH2 0x10B5 JUMP JUMPDEST POP PUSH1 0x40 DUP3 ADD MLOAD DUP2 PUSH1 0x2 ADD SWAP1 DUP2 PUSH2 0x276 SWAP2 SWAP1 PUSH2 0x10B5 JUMP JUMPDEST POP PUSH1 0x60 DUP3 ADD MLOAD DUP2 PUSH1 0x3 ADD SWAP1 DUP2 PUSH2 0x28C SWAP2 SWAP1 PUSH2 0x10B5 JUMP JUMPDEST POP PUSH1 0x80 DUP3 ADD MLOAD DUP2 PUSH1 0x4 ADD SWAP1 DUP2 PUSH2 0x2A2 SWAP2 SWAP1 PUSH2 0x10B5 JUMP JUMPDEST POP POP POP POP POP POP POP POP POP JUMP JUMPDEST PUSH1 0x1 PUSH1 0x0 SWAP1 SLOAD SWAP1 PUSH2 0x100 EXP SWAP1 DIV PUSH20 0xFFFFFFFFFFFFFFFFFFFFFFFFFFFFFFFFFFFFFFFF AND DUP2 JUMP JUMPDEST PUSH1 0x60 PUSH1 0x2 DUP1 SLOAD DUP1 PUSH1 0x20 MUL PUSH1 0x20 ADD PUSH1 0x40 MLOAD SWAP1 DUP2 ADD PUSH1 0x40 MSTORE DUP1 SWAP3 SWAP2 SWAP1 DUP2 DUP2 MSTORE PUSH1 0x20 ADD PUSH1 0x0 SWAP1 JUMPDEST DUP3 DUP3 LT ISZERO PUSH2 0x5C7 JUMPI DUP4 DUP3 SWAP1 PUSH1 0x0 MSTORE PUSH1 0x20 PUSH1 0x0 KECCAK256 SWAP1 PUSH1 0x5 MUL ADD PUSH1 0x40 MLOAD DUP1 PUSH1 0xA0 ADD PUSH1 0x40 MSTORE SWAP1 DUP2 PUSH1 0x0 DUP3 ADD PUSH1 0x0 SWAP1 SLOAD SWAP1 PUSH2 0x100 EXP SWAP1 DIV PUSH20 0xFFFFFFFFFFFFFFFFFFFFFFFFFFFFFFFFFFFFFFFF AND PUSH20 0xFFFFFFFFFFFFFFFFFFFFFFFFFFFFFFFFFFFFFFFF AND PUSH20 0xFFFFFFFFFFFFFFFFFFFFFFFFFFFFFFFFFFFFFFFF AND DUP2 MSTORE PUSH1 0x20 ADD PUSH1 0x1 DUP3 ADD DUP1 SLOAD PUSH2 0x380 SWAP1 PUSH2 0xED8 JUMP JUMPDEST DUP1 PUSH1 0x1F ADD PUSH1 0x20 DUP1 SWAP2 DIV MUL PUSH1 0x20 ADD PUSH1 0x40 MLOAD SWAP1 DUP2 ADD PUSH1 0x40 MSTORE DUP1 SWAP3 SWAP2 SWAP1 DUP2 DUP2 MSTORE PUSH1 0x20 ADD DUP3 DUP1 SLOAD PUSH2 0x3AC SWAP1 PUSH2 0xED8 JUMP JUMPDEST DUP1 ISZERO PUSH2 0x3F9 JUMPI DUP1 PUSH1 0x1F LT PUSH2 0x3CE JUMPI PUSH2 0x100 DUP1 DUP4 SLOAD DIV MUL DUP4 MSTORE SWAP2 PUSH1 0x20 ADD SWAP2 PUSH2 0x3F9 JUMP JUMPDEST DUP3 ADD SWAP2 SWAP1 PUSH1 0x0 MSTORE PUSH1 0x20 PUSH1 0x0 KECCAK256 SWAP1 JUMPDEST DUP2 SLOAD DUP2 MSTORE SWAP1 PUSH1 0x1 ADD SWAP1 PUSH1 0x20 ADD DUP1 DUP4 GT PUSH2 0x3DC JUMPI DUP3 SWAP1 SUB PUSH1 0x1F AND DUP3 ADD SWAP2 JUMPDEST POP POP POP POP POP DUP2 MSTORE PUSH1 0x20 ADD PUSH1 0x2 DUP3 ADD DUP1 SLOAD PUSH2 0x412 SWAP1 PUSH2 0xED8 JUMP JUMPDEST DUP1 PUSH1 0x1F ADD PUSH1 0x20 DUP1 SWAP2 DIV MUL PUSH1 0x20 ADD PUSH1 0x40 MLOAD SWAP1 DUP2 ADD PUSH1 0x40 MSTORE DUP1 SWAP3 SWAP2 SWAP1 DUP2 DUP2 MSTORE PUSH1 0x20 ADD DUP3 DUP1 SLOAD PUSH2 0x43E SWAP1 PUSH2 0xED8 JUMP JUMPDEST DUP1 ISZERO PUSH2 0x48B JUMPI DUP1 PUSH1 0x1F LT PUSH2 0x460 JUMPI PUSH2 0x100 DUP1 DUP4 SLOAD DIV MUL DUP4 MSTORE SWAP2 PUSH1 0x20 ADD SWAP2 PUSH2 0x48B JUMP JUMPDEST DUP3 ADD SWAP2 SWAP1 PUSH1 0x0 MSTORE PUSH1 0x20 PUSH1 0x0 KECCAK256 SWAP1 JUMPDEST DUP2 SLOAD DUP2 MSTORE SWAP1 PUSH1 0x1 ADD SWAP1 PUSH1 0x20 ADD DUP1 DUP4 GT PUSH2 0x46E JUMPI DUP3 SWAP1 SUB PUSH1 0x1F AND DUP3 ADD SWAP2 JUMPDEST POP POP POP POP POP DUP2 MSTORE PUSH1 0x20 ADD PUSH1 0x3 DUP3 ADD DUP1 SLOAD PUSH2 0x4A4 SWAP1 PUSH2 0xED8 JUMP JUMPDEST DUP1 PUSH1 0x1F ADD PUSH1 0x20 DUP1 SWAP2 DIV MUL PUSH1 0x20 ADD PUSH1 0x40 MLOAD SWAP1 DUP2 ADD PUSH1 0x40 MSTORE DUP1 SWAP3 SWAP2 SWAP1 DUP2 DUP2 MSTORE PUSH1 0x20 ADD DUP3 DUP1 SLOAD PUSH2 0x4D0 SWAP1 PUSH2 0xED8 JUMP JUMPDEST DUP1 ISZERO PUSH2 0x51D JUMPI DUP1 PUSH1 0x1F LT PUSH2 0x4F2 JUMPI PUSH2 0x100 DUP1 DUP4 SLOAD DIV MUL DUP4 MSTORE SWAP2 PUSH1 0x20 ADD SWAP2 PUSH2 0x51D JUMP JUMPDEST DUP3 ADD SWAP2 SWAP1 PUSH1 0x0 MSTORE PUSH1 0x20 PUSH1 0x0 KECCAK256 SWAP1 JUMPDEST DUP2 SLOAD DUP2 MSTORE SWAP1 PUSH1 0x1 ADD SWAP1 PUSH1 0x20 ADD DUP1 DUP4 GT PUSH2 0x500 JUMPI DUP3 SWAP1 SUB PUSH1 0x1F AND DUP3 ADD SWAP2 JUMPDEST POP POP POP POP POP DUP2 MSTORE PUSH1 0x20 ADD PUSH1 0x4 DUP3 ADD DUP1 SLOAD PUSH2 0x536 SWAP1 PUSH2 0xED8 JUMP JUMPDEST DUP1 PUSH1 0x1F ADD PUSH1 0x20 DUP1 SWAP2 DIV MUL PUSH1 0x20 ADD PUSH1 0x40 MLOAD SWAP1 DUP2 ADD PUSH1 0x40 MSTORE DUP1 SWAP3 SWAP2 SWAP1 DUP2 DUP2 MSTORE PUSH1 0x20 ADD DUP3 DUP1 SLOAD PUSH2 0x562 SWAP1 PUSH2 0xED8 JUMP JUMPDEST DUP1 ISZERO PUSH2 0x5AF JUMPI DUP1 PUSH1 0x1F LT PUSH2 0x584 JUMPI PUSH2 0x100 DUP1 DUP4 SLOAD DIV MUL DUP4 MSTORE SWAP2 PUSH1 0x20 ADD SWAP2 PUSH2 0x5AF JUMP JUMPDEST DUP3 ADD SWAP2 SWAP1 PUSH1 0x0 MSTORE PUSH1 0x20 PUSH1 0x0 KECCAK256 SWAP1 JUMPDEST DUP2 SLOAD DUP2 MSTORE SWAP1 PUSH1 0x1 ADD SWAP1 PUSH1 0x20 ADD DUP1 DUP4 GT PUSH2 0x592 JUMPI DUP3 SWAP1 SUB PUSH1 0x1F AND DUP3 ADD SWAP2 JUMPDEST POP POP POP POP POP DUP2 MSTORE POP POP DUP2 MSTORE PUSH1 0x20 ADD SWAP1 PUSH1 0x1 ADD SWAP1 PUSH2 0x2F7 JUMP JUMPDEST POP POP POP POP SWAP1 POP SWAP1 JUMP JUMPDEST DUP1 PUSH1 0x0 DUP1 PUSH2 0x100 EXP DUP2 SLOAD DUP2 PUSH20 0xFFFFFFFFFFFFFFFFFFFFFFFFFFFFFFFFFFFFFFFF MUL NOT AND SWAP1 DUP4 PUSH20 0xFFFFFFFFFFFFFFFFFFFFFFFFFFFFFFFFFFFFFFFF AND MUL OR SWAP1 SSTORE POP POP JUMP JUMPDEST PUSH1 0x2 DUP2 DUP2 SLOAD DUP2 LT PUSH2 0x627 JUMPI PUSH2 0x626 PUSH2 0x1187 JUMP JUMPDEST JUMPDEST SWAP1 PUSH1 0x0 MSTORE PUSH1 0x20 PUSH1 0x0 KECCAK256 SWAP1 PUSH1 0x5 MUL ADD PUSH1 0x0 DUP1 DUP3 ADD PUSH1 0x0 PUSH2 0x100 EXP DUP2 SLOAD SWAP1 PUSH20 0xFFFFFFFFFFFFFFFFFFFFFFFFFFFFFFFFFFFFFFFF MUL NOT AND SWAP1 SSTORE PUSH1 0x1 DUP3 ADD PUSH1 0x0 PUSH2 0x66D SWAP2 SWAP1 PUSH2 0x7F5 JUMP JUMPDEST PUSH1 0x2 DUP3 ADD PUSH1 0x0 PUSH2 0x67D SWAP2 SWAP1 PUSH2 0x7F5 JUMP JUMPDEST PUSH1 0x3 DUP3 ADD PUSH1 0x0 PUSH2 0x68D SWAP2 SWAP1 PUSH2 0x7F5 JUMP JUMPDEST PUSH1 0x4 DUP3 ADD PUSH1 0x0 PUSH2 0x69D SWAP2 SWAP1 PUSH2 0x7F5 JUMP JUMPDEST POP POP POP JUMP JUMPDEST DUP1 PUSH1 0x1 PUSH1 0x0 PUSH2 0x100 EXP DUP2 SLOAD DUP2 PUSH20 0xFFFFFFFFFFFFFFFFFFFFFFFFFFFFFFFFFFFFFFFF MUL NOT AND SWAP1 DUP4 PUSH20 0xFFFFFFFFFFFFFFFFFFFFFFFFFFFFFFFFFFFFFFFF AND MUL OR SWAP1 SSTORE POP POP JUMP JUMPDEST PUSH1 0x0 PUSH1 0x40 MLOAD DUP1 PUSH1 0xA0 ADD PUSH1 0x40 MSTORE DUP1 DUP8 PUSH20 0xFFFFFFFFFFFFFFFFFFFFFFFFFFFFFFFFFFFFFFFF AND DUP2 MSTORE PUSH1 0x20 ADD DUP7 DUP2 MSTORE PUSH1 0x20 ADD DUP6 DUP2 MSTORE PUSH1 0x20 ADD DUP5 DUP2 MSTORE PUSH1 0x20 ADD DUP4 DUP2 MSTORE POP SWAP1 POP DUP1 PUSH1 0x2 DUP9 DUP2 SLOAD DUP2 LT PUSH2 0x73C JUMPI PUSH2 0x73B PUSH2 0x1187 JUMP JUMPDEST JUMPDEST SWAP1 PUSH1 0x0 MSTORE PUSH1 0x20 PUSH1 0x0 KECCAK256 SWAP1 PUSH1 0x5 MUL ADD PUSH1 0x0 DUP3 ADD MLOAD DUP2 PUSH1 0x0 ADD PUSH1 0x0 PUSH2 0x100 EXP DUP2 SLOAD DUP2 PUSH20 0xFFFFFFFFFFFFFFFFFFFFFFFFFFFFFFFFFFFFFFFF MUL NOT AND SWAP1 DUP4 PUSH20 0xFFFFFFFFFFFFFFFFFFFFFFFFFFFFFFFFFFFFFFFF AND MUL OR SWAP1 SSTORE POP PUSH1 0x20 DUP3 ADD MLOAD DUP2 PUSH1 0x1 ADD SWAP1 DUP2 PUSH2 0x7A6 SWAP2 SWAP1 PUSH2 0x10B5 JUMP JUMPDEST POP PUSH1 0x40 DUP3 ADD MLOAD DUP2 PUSH1 0x2 ADD SWAP1 DUP2 PUSH2 0x7BC SWAP2 SWAP1 PUSH2 0x10B5 JUMP JUMPDEST POP PUSH1 0x60 DUP3 ADD MLOAD DUP2 PUSH1 0x3 ADD SWAP1 DUP2 PUSH2 0x7D2 SWAP2 SWAP1 PUSH2 0x10B5 JUMP JUMPDEST POP PUSH1 0x80 DUP3 ADD MLOAD DUP2 PUSH1 0x4 ADD SWAP1 DUP2 PUSH2 0x7E8 SWAP2 SWAP1 PUSH2 0x10B5 JUMP JUMPDEST POP SWAP1 POP POP POP POP POP POP POP POP POP JUMP JUMPDEST POP DUP1 SLOAD PUSH2 0x801 SWAP1 PUSH2 0xED8 JUMP JUMPDEST PUSH1 0x0 DUP3 SSTORE DUP1 PUSH1 0x1F LT PUSH2 0x813 JUMPI POP PUSH2 0x832 JUMP JUMPDEST PUSH1 0x1F ADD PUSH1 0x20 SWAP1 DIV SWAP1 PUSH1 0x0 MSTORE PUSH1 0x20 PUSH1 0x0 KECCAK256 SWAP1 DUP2 ADD SWAP1 PUSH2 0x831 SWAP2 SWAP1 PUSH2 0x835 JUMP JUMPDEST JUMPDEST POP JUMP JUMPDEST JUMPDEST DUP1 DUP3 GT ISZERO PUSH2 0x84E JUMPI PUSH1 0x0 DUP2 PUSH1 0x0 SWAP1 SSTORE POP PUSH1 0x1 ADD PUSH2 0x836 JUMP JUMPDEST POP SWAP1 JUMP JUMPDEST PUSH1 0x0 PUSH20 0xFFFFFFFFFFFFFFFFFFFFFFFFFFFFFFFFFFFFFFFF DUP3 AND SWAP1 POP SWAP2 SWAP1 POP JUMP JUMPDEST PUSH1 0x0 PUSH2 0x87D DUP3 PUSH2 0x852 JUMP JUMPDEST SWAP1 POP SWAP2 SWAP1 POP JUMP JUMPDEST PUSH2 0x88D DUP2 PUSH2 0x872 JUMP JUMPDEST DUP3 MSTORE POP POP JUMP JUMPDEST PUSH1 0x0 PUSH1 0x20 DUP3 ADD SWAP1 POP PUSH2 0x8A8 PUSH1 0x0 DUP4 ADD DUP5 PUSH2 0x884 JUMP JUMPDEST SWAP3 SWAP2 POP POP JUMP JUMPDEST PUSH1 0x0 PUSH1 0x40 MLOAD SWAP1 POP SWAP1 JUMP JUMPDEST PUSH1 0x0 DUP1 REVERT JUMPDEST PUSH1 0x0 DUP1 REVERT JUMPDEST PUSH2 0x8CB DUP2 PUSH2 0x872 JUMP JUMPDEST DUP2 EQ PUSH2 0x8D6 JUMPI PUSH1 0x0 DUP1 REVERT JUMPDEST POP JUMP JUMPDEST PUSH1 0x0 DUP2 CALLDATALOAD SWAP1 POP PUSH2 0x8E8 DUP2 PUSH2 0x8C2 JUMP JUMPDEST SWAP3 SWAP2 POP POP JUMP JUMPDEST PUSH1 0x0 DUP1 REVERT JUMPDEST PUSH1 0x0 DUP1 REVERT JUMPDEST PUSH1 0x0 PUSH1 0x1F NOT PUSH1 0x1F DUP4 ADD AND SWAP1 POP SWAP2 SWAP1 POP JUMP JUMPDEST PUSH32 0x4E487B7100000000000000000000000000000000000000000000000000000000 PUSH1 0x0 MSTORE PUSH1 0x41 PUSH1 0x4 MSTORE PUSH1 0x24 PUSH1 0x0 REVERT JUMPDEST PUSH2 0x941 DUP3 PUSH2 0x8F8 JUMP JUMPDEST DUP2 ADD DUP2 DUP2 LT PUSH8 0xFFFFFFFFFFFFFFFF DUP3 GT OR ISZERO PUSH2 0x960 JUMPI PUSH2 0x95F PUSH2 0x909 JUMP JUMPDEST JUMPDEST DUP1 PUSH1 0x40 MSTORE POP POP POP JUMP JUMPDEST PUSH1 0x0 PUSH2 0x973 PUSH2 0x8AE JUMP JUMPDEST SWAP1 POP PUSH2 0x97F DUP3 DUP3 PUSH2 0x938 JUMP JUMPDEST SWAP2 SWAP1 POP JUMP JUMPDEST PUSH1 0x0 PUSH8 0xFFFFFFFFFFFFFFFF DUP3 GT ISZERO PUSH2 0x99F JUMPI PUSH2 0x99E PUSH2 0x909 JUMP JUMPDEST JUMPDEST PUSH2 0x9A8 DUP3 PUSH2 0x8F8 JUMP JUMPDEST SWAP1 POP PUSH1 0x20 DUP2 ADD SWAP1 POP SWAP2 SWAP1 POP JUMP JUMPDEST DUP3 DUP2 DUP4 CALLDATACOPY PUSH1 0x0 DUP4 DUP4 ADD MSTORE POP POP POP JUMP JUMPDEST PUSH1 0x0 PUSH2 0x9D7 PUSH2 0x9D2 DUP5 PUSH2 0x984 JUMP JUMPDEST PUSH2 0x969 JUMP JUMPDEST SWAP1 POP DUP3 DUP2 MSTORE PUSH1 0x20 DUP2 ADD DUP5 DUP5 DUP5 ADD GT ISZERO PUSH2 0x9F3 JUMPI PUSH2 0x9F2 PUSH2 0x8F3 JUMP JUMPDEST JUMPDEST PUSH2 0x9FE DUP5 DUP3 DUP6 PUSH2 0x9B5 JUMP JUMPDEST POP SWAP4 SWAP3 POP POP POP JUMP JUMPDEST PUSH1 0x0 DUP3 PUSH1 0x1F DUP4 ADD SLT PUSH2 0xA1B JUMPI PUSH2 0xA1A PUSH2 0x8EE JUMP JUMPDEST JUMPDEST DUP2 CALLDATALOAD PUSH2 0xA2B DUP5 DUP3 PUSH1 0x20 DUP7 ADD PUSH2 0x9C4 JUMP JUMPDEST SWAP2 POP POP SWAP3 SWAP2 POP POP JUMP JUMPDEST PUSH1 0x0 DUP1 PUSH1 0x0 DUP1 PUSH1 0x0 PUSH1 0xA0 DUP7 DUP9 SUB SLT ISZERO PUSH2 0xA50 JUMPI PUSH2 0xA4F PUSH2 0x8B8 JUMP JUMPDEST JUMPDEST PUSH1 0x0 PUSH2 0xA5E DUP9 DUP3 DUP10 ADD PUSH2 0x8D9 JUMP JUMPDEST SWAP6 POP POP PUSH1 0x20 DUP7 ADD CALLDATALOAD PUSH8 0xFFFFFFFFFFFFFFFF DUP2 GT ISZERO PUSH2 0xA7F JUMPI PUSH2 0xA7E PUSH2 0x8BD JUMP JUMPDEST JUMPDEST PUSH2 0xA8B DUP9 DUP3 DUP10 ADD PUSH2 0xA06 JUMP JUMPDEST SWAP5 POP POP PUSH1 0x40 DUP7 ADD CALLDATALOAD PUSH8 0xFFFFFFFFFFFFFFFF DUP2 GT ISZERO PUSH2 0xAAC JUMPI PUSH2 0xAAB PUSH2 0x8BD JUMP JUMPDEST JUMPDEST PUSH2 0xAB8 DUP9 DUP3 DUP10 ADD PUSH2 0xA06 JUMP JUMPDEST SWAP4 POP POP PUSH1 0x60 DUP7 ADD CALLDATALOAD PUSH8 0xFFFFFFFFFFFFFFFF DUP2 GT ISZERO PUSH2 0xAD9 JUMPI PUSH2 0xAD8 PUSH2 0x8BD JUMP JUMPDEST JUMPDEST PUSH2 0xAE5 DUP9 DUP3 DUP10 ADD PUSH2 0xA06 JUMP JUMPDEST SWAP3 POP POP PUSH1 0x80 DUP7 ADD CALLDATALOAD PUSH8 0xFFFFFFFFFFFFFFFF DUP2 GT ISZERO PUSH2 0xB06 JUMPI PUSH2 0xB05 PUSH2 0x8BD JUMP JUMPDEST JUMPDEST PUSH2 0xB12 DUP9 DUP3 DUP10 ADD PUSH2 0xA06 JUMP JUMPDEST SWAP2 POP POP SWAP3 SWAP6 POP SWAP3 SWAP6 SWAP1 SWAP4 POP JUMP JUMPDEST PUSH1 0x0 DUP2 MLOAD SWAP1 POP SWAP2 SWAP1 POP JUMP JUMPDEST PUSH1 0x0 DUP3 DUP3 MSTORE PUSH1 0x20 DUP3 ADD SWAP1 POP SWAP3 SWAP2 POP POP JUMP JUMPDEST PUSH1 0x0 DUP2 SWAP1 POP PUSH1 0x20 DUP3 ADD SWAP1 POP SWAP2 SWAP1 POP JUMP JUMPDEST PUSH2 0xB54 DUP2 PUSH2 0x872 JUMP JUMPDEST DUP3 MSTORE POP POP JUMP JUMPDEST PUSH1 0x0 DUP2 MLOAD SWAP1 POP SWAP2 SWAP1 POP JUMP JUMPDEST PUSH1 0x0 DUP3 DUP3 MSTORE PUSH1 0x20 DUP3 ADD SWAP1 POP SWAP3 SWAP2 POP POP JUMP JUMPDEST PUSH1 0x0 JUMPDEST DUP4 DUP2 LT ISZERO PUSH2 0xB94 JUMPI DUP1 DUP3 ADD MLOAD DUP2 DUP5 ADD MSTORE PUSH1 0x20 DUP2 ADD SWAP1 POP PUSH2 0xB79 JUMP JUMPDEST PUSH1 0x0 DUP5 DUP5 ADD MSTORE POP POP POP POP JUMP JUMPDEST PUSH1 0x0 PUSH2 0xBAB DUP3 PUSH2 0xB5A JUMP JUMPDEST PUSH2 0xBB5 DUP2 DUP6 PUSH2 0xB65 JUMP JUMPDEST SWAP4 POP PUSH2 0xBC5 DUP2 DUP6 PUSH1 0x20 DUP7 ADD PUSH2 0xB76 JUMP JUMPDEST PUSH2 0xBCE DUP2 PUSH2 0x8F8 JUMP JUMPDEST DUP5 ADD SWAP2 POP POP SWAP3 SWAP2 POP POP JUMP JUMPDEST PUSH1 0x0 PUSH1 0xA0 DUP4 ADD PUSH1 0x0 DUP4 ADD MLOAD PUSH2 0xBF1 PUSH1 0x0 DUP7 ADD DUP3 PUSH2 0xB4B JUMP JUMPDEST POP PUSH1 0x20 DUP4 ADD MLOAD DUP5 DUP3 SUB PUSH1 0x20 DUP7 ADD MSTORE PUSH2 0xC09 DUP3 DUP3 PUSH2 0xBA0 JUMP JUMPDEST SWAP2 POP POP PUSH1 0x40 DUP4 ADD MLOAD DUP5 DUP3 SUB PUSH1 0x40 DUP7 ADD MSTORE PUSH2 0xC23 DUP3 DUP3 PUSH2 0xBA0 JUMP JUMPDEST SWAP2 POP POP PUSH1 0x60 DUP4 ADD MLOAD DUP5 DUP3 SUB PUSH1 0x60 DUP7 ADD MSTORE PUSH2 0xC3D DUP3 DUP3 PUSH2 0xBA0 JUMP JUMPDEST SWAP2 POP POP PUSH1 0x80 DUP4 ADD MLOAD DUP5 DUP3 SUB PUSH1 0x80 DUP7 ADD MSTORE PUSH2 0xC57 DUP3 DUP3 PUSH2 0xBA0 JUMP JUMPDEST SWAP2 POP POP DUP1 SWAP2 POP POP SWAP3 SWAP2 POP POP JUMP JUMPDEST PUSH1 0x0 PUSH2 0xC70 DUP4 DUP4 PUSH2 0xBD9 JUMP JUMPDEST SWAP1 POP SWAP3 SWAP2 POP POP JUMP JUMPDEST PUSH1 0x0 PUSH1 0x20 DUP3 ADD SWAP1 POP SWAP2 SWAP1 POP JUMP JUMPDEST PUSH1 0x0 PUSH2 0xC90 DUP3 PUSH2 0xB1F JUMP JUMPDEST PUSH2 0xC9A DUP2 DUP6 PUSH2 0xB2A JUMP JUMPDEST SWAP4 POP DUP4 PUSH1 0x20 DUP3 MUL DUP6 ADD PUSH2 0xCAC DUP6 PUSH2 0xB3B JUMP JUMPDEST DUP1 PUSH1 0x0 JUMPDEST DUP6 DUP2 LT ISZERO PUSH2 0xCE8 JUMPI DUP5 DUP5 SUB DUP10 MSTORE DUP2 MLOAD PUSH2 0xCC9 DUP6 DUP3 PUSH2 0xC64 JUMP JUMPDEST SWAP5 POP PUSH2 0xCD4 DUP4 PUSH2 0xC78 JUMP JUMPDEST SWAP3 POP PUSH1 0x20 DUP11 ADD SWAP10 POP POP PUSH1 0x1 DUP2 ADD SWAP1 POP PUSH2 0xCB0 JUMP JUMPDEST POP DUP3 SWAP8 POP DUP8 SWAP6 POP POP POP POP POP POP SWAP3 SWAP2 POP POP JUMP JUMPDEST PUSH1 0x0 PUSH1 0x20 DUP3 ADD SWAP1 POP DUP2 DUP2 SUB PUSH1 0x0 DUP4 ADD MSTORE PUSH2 0xD14 DUP2 DUP5 PUSH2 0xC85 JUMP JUMPDEST SWAP1 POP SWAP3 SWAP2 POP POP JUMP JUMPDEST PUSH1 0x0 PUSH1 0x20 DUP3 DUP5 SUB SLT ISZERO PUSH2 0xD32 JUMPI PUSH2 0xD31 PUSH2 0x8B8 JUMP JUMPDEST JUMPDEST PUSH1 0x0 PUSH2 0xD40 DUP5 DUP3 DUP6 ADD PUSH2 0x8D9 JUMP JUMPDEST SWAP2 POP POP SWAP3 SWAP2 POP POP JUMP JUMPDEST PUSH1 0x0 DUP2 SWAP1 POP SWAP2 SWAP1 POP JUMP JUMPDEST PUSH2 0xD5C DUP2 PUSH2 0xD49 JUMP JUMPDEST DUP2 EQ PUSH2 0xD67 JUMPI PUSH1 0x0 DUP1 REVERT JUMPDEST POP JUMP JUMPDEST PUSH1 0x0 DUP2 CALLDATALOAD SWAP1 POP PUSH2 0xD79 DUP2 PUSH2 0xD53 JUMP JUMPDEST SWAP3 SWAP2 POP POP JUMP JUMPDEST PUSH1 0x0 PUSH1 0x20 DUP3 DUP5 SUB SLT ISZERO PUSH2 0xD95 JUMPI PUSH2 0xD94 PUSH2 0x8B8 JUMP JUMPDEST JUMPDEST PUSH1 0x0 PUSH2 0xDA3 DUP5 DUP3 DUP6 ADD PUSH2 0xD6A JUMP JUMPDEST SWAP2 POP POP SWAP3 SWAP2 POP POP JUMP JUMPDEST PUSH1 0x0 DUP1 PUSH1 0x0 DUP1 PUSH1 0x0 DUP1 PUSH1 0xC0 DUP8 DUP10 SUB SLT ISZERO PUSH2 0xDC9 JUMPI PUSH2 0xDC8 PUSH2 0x8B8 JUMP JUMPDEST JUMPDEST PUSH1 0x0 PUSH2 0xDD7 DUP10 DUP3 DUP11 ADD PUSH2 0xD6A JUMP JUMPDEST SWAP7 POP POP PUSH1 0x20 PUSH2 0xDE8 DUP10 DUP3 DUP11 ADD PUSH2 0x8D9 JUMP JUMPDEST SWAP6 POP POP PUSH1 0x40 DUP8 ADD CALLDATALOAD PUSH8 0xFFFFFFFFFFFFFFFF DUP2 GT ISZERO PUSH2 0xE09 JUMPI PUSH2 0xE08 PUSH2 0x8BD JUMP JUMPDEST JUMPDEST PUSH2 0xE15 DUP10 DUP3 DUP11 ADD PUSH2 0xA06 JUMP JUMPDEST SWAP5 POP POP PUSH1 0x60 DUP8 ADD CALLDATALOAD PUSH8 0xFFFFFFFFFFFFFFFF DUP2 GT ISZERO PUSH2 0xE36 JUMPI PUSH2 0xE35 PUSH2 0x8BD JUMP JUMPDEST JUMPDEST PUSH2 0xE42 DUP10 DUP3 DUP11 ADD PUSH2 0xA06 JUMP JUMPDEST SWAP4 POP POP PUSH1 0x80 DUP8 ADD CALLDATALOAD PUSH8 0xFFFFFFFFFFFFFFFF DUP2 GT ISZERO PUSH2 0xE63 JUMPI PUSH2 0xE62 PUSH2 0x8BD JUMP JUMPDEST JUMPDEST PUSH2 0xE6F DUP10 DUP3 DUP11 ADD PUSH2 0xA06 JUMP JUMPDEST SWAP3 POP POP PUSH1 0xA0 DUP8 ADD CALLDATALOAD PUSH8 0xFFFFFFFFFFFFFFFF DUP2 GT ISZERO PUSH2 0xE90 JUMPI PUSH2 0xE8F PUSH2 0x8BD JUMP JUMPDEST JUMPDEST PUSH2 0xE9C DUP10 DUP3 DUP11 ADD PUSH2 0xA06 JUMP JUMPDEST SWAP2 POP POP SWAP3 SWAP6 POP SWAP3 SWAP6 POP SWAP3 SWAP6 JUMP JUMPDEST PUSH32 0x4E487B7100000000000000000000000000000000000000000000000000000000 PUSH1 0x0 MSTORE PUSH1 0x22 PUSH1 0x4 MSTORE PUSH1 0x24 PUSH1 0x0 REVERT JUMPDEST PUSH1 0x0 PUSH1 0x2 DUP3 DIV SWAP1 POP PUSH1 0x1 DUP3 AND DUP1 PUSH2 0xEF0 JUMPI PUSH1 0x7F DUP3 AND SWAP2 POP JUMPDEST PUSH1 0x20 DUP3 LT DUP2 SUB PUSH2 0xF03 JUMPI PUSH2 0xF02 PUSH2 0xEA9 JUMP JUMPDEST JUMPDEST POP SWAP2 SWAP1 POP JUMP JUMPDEST PUSH1 0x0 DUP2 SWAP1 POP DUP2 PUSH1 0x0 MSTORE PUSH1 0x20 PUSH1 0x0 KECCAK256 SWAP1 POP SWAP2 SWAP1 POP JUMP JUMPDEST PUSH1 0x0 PUSH1 0x20 PUSH1 0x1F DUP4 ADD DIV SWAP1 POP SWAP2 SWAP1 POP JUMP JUMPDEST PUSH1 0x0 DUP3 DUP3 SHL SWAP1 POP SWAP3 SWAP2 POP POP JUMP JUMPDEST PUSH1 0x0 PUSH1 0x8 DUP4 MUL PUSH2 0xF6B PUSH32 0xFFFFFFFFFFFFFFFFFFFFFFFFFFFFFFFFFFFFFFFFFFFFFFFFFFFFFFFFFFFFFFFF DUP3 PUSH2 0xF2E JUMP JUMPDEST PUSH2 0xF75 DUP7 DUP4 PUSH2 0xF2E JUMP JUMPDEST SWAP6 POP DUP1 NOT DUP5 AND SWAP4 POP DUP1 DUP7 AND DUP5 OR SWAP3 POP POP POP SWAP4 SWAP3 POP POP POP JUMP JUMPDEST PUSH1 0x0 DUP2 SWAP1 POP SWAP2 SWAP1 POP JUMP JUMPDEST PUSH1 0x0 PUSH2 0xFB2 PUSH2 0xFAD PUSH2 0xFA8 DUP5 PUSH2 0xD49 JUMP JUMPDEST PUSH2 0xF8D JUMP JUMPDEST PUSH2 0xD49 JUMP JUMPDEST SWAP1 POP SWAP2 SWAP1 POP JUMP JUMPDEST PUSH1 0x0 DUP2 SWAP1 POP SWAP2 SWAP1 POP JUMP JUMPDEST PUSH2 0xFCC DUP4 PUSH2 0xF97 JUMP JUMPDEST PUSH2 0xFE0 PUSH2 0xFD8 DUP3 PUSH2 0xFB9 JUMP JUMPDEST DUP5 DUP5 SLOAD PUSH2 0xF3B JUMP JUMPDEST DUP3 SSTORE POP POP POP POP JUMP JUMPDEST PUSH1 0x0 SWAP1 JUMP JUMPDEST PUSH2 0xFF5 PUSH2 0xFE8 JUMP JUMPDEST PUSH2 0x1000 DUP2 DUP5 DUP5 PUSH2 0xFC3 JUMP JUMPDEST POP POP POP JUMP JUMPDEST JUMPDEST DUP2 DUP2 LT ISZERO PUSH2 0x1024 JUMPI PUSH2 0x1019 PUSH1 0x0 DUP3 PUSH2 0xFED JUMP JUMPDEST PUSH1 0x1 DUP2 ADD SWAP1 POP PUSH2 0x1006 JUMP JUMPDEST POP POP JUMP JUMPDEST PUSH1 0x1F DUP3 GT ISZERO PUSH2 0x1069 JUMPI PUSH2 0x103A DUP2 PUSH2 0xF09 JUMP JUMPDEST PUSH2 0x1043 DUP5 PUSH2 0xF1E JUMP JUMPDEST DUP2 ADD PUSH1 0x20 DUP6 LT ISZERO PUSH2 0x1052 JUMPI DUP2 SWAP1 POP JUMPDEST PUSH2 0x1066 PUSH2 0x105E DUP6 PUSH2 0xF1E JUMP JUMPDEST DUP4 ADD DUP3 PUSH2 0x1005 JUMP JUMPDEST POP POP JUMPDEST POP POP POP JUMP JUMPDEST PUSH1 0x0 DUP3 DUP3 SHR SWAP1 POP SWAP3 SWAP2 POP POP JUMP JUMPDEST PUSH1 0x0 PUSH2 0x108C PUSH1 0x0 NOT DUP5 PUSH1 0x8 MUL PUSH2 0x106E JUMP JUMPDEST NOT DUP1 DUP4 AND SWAP2 POP POP SWAP3 SWAP2 POP POP JUMP JUMPDEST PUSH1 0x0 PUSH2 0x10A5 DUP4 DUP4 PUSH2 0x107B JUMP JUMPDEST SWAP2 POP DUP3 PUSH1 0x2 MUL DUP3 OR SWAP1 POP SWAP3 SWAP2 POP POP JUMP JUMPDEST PUSH2 0x10BE DUP3 PUSH2 0xB5A JUMP JUMPDEST PUSH8 0xFFFFFFFFFFFFFFFF DUP2 GT ISZERO PUSH2 0x10D7 JUMPI PUSH2 0x10D6 PUSH2 0x909 JUMP JUMPDEST JUMPDEST PUSH2 0x10E1 DUP3 SLOAD PUSH2 0xED8 JUMP JUMPDEST PUSH2 0x10EC DUP3 DUP3 DUP6 PUSH2 0x1028 JUMP JUMPDEST PUSH1 0x0 PUSH1 0x20 SWAP1 POP PUSH1 0x1F DUP4 GT PUSH1 0x1 DUP2 EQ PUSH2 0x111F JUMPI PUSH1 0x0 DUP5 ISZERO PUSH2 0x110D JUMPI DUP3 DUP8 ADD MLOAD SWAP1 POP JUMPDEST PUSH2 0x1117 DUP6 DUP3 PUSH2 0x1099 JUMP JUMPDEST DUP7 SSTORE POP PUSH2 0x117F JUMP JUMPDEST PUSH1 0x1F NOT DUP5 AND PUSH2 0x112D DUP7 PUSH2 0xF09 JUMP JUMPDEST PUSH1 0x0 JUMPDEST DUP3 DUP2 LT ISZERO PUSH2 0x1155 JUMPI DUP5 DUP10 ADD MLOAD DUP3 SSTORE PUSH1 0x1 DUP3 ADD SWAP2 POP PUSH1 0x20 DUP6 ADD SWAP5 POP PUSH1 0x20 DUP2 ADD SWAP1 POP PUSH2 0x1130 JUMP JUMPDEST DUP7 DUP4 LT ISZERO PUSH2 0x1172 JUMPI DUP5 DUP10 ADD MLOAD PUSH2 0x116E PUSH1 0x1F DUP10 AND DUP3 PUSH2 0x107B JUMP JUMPDEST DUP4 SSTORE POP JUMPDEST PUSH1 0x1 PUSH1 0x2 DUP9 MUL ADD DUP9 SSTORE POP POP POP JUMPDEST POP POP POP POP POP POP JUMP JUMPDEST PUSH32 0x4E487B7100000000000000000000000000000000000000000000000000000000 PUSH1 0x0 MSTORE PUSH1 0x32 PUSH1 0x4 MSTORE PUSH1 0x24 PUSH1 0x0 REVERT INVALID LOG2 PUSH5 0x6970667358 0x22 SLT KECCAK256 PUSH10 0x8FB8A0A444962122BFCD 0xB8 LT SWAP13 PUSH7 0xEBA7ECB1021D4B PUSH26 0x990B08C22DFA483C6764736F6C63430008110033000000000000 "
				},
				"gasEstimates": {
					"creation": {
						"codeDepositCost": "917600",
						"executionCost": "955",
						"totalCost": "918555"
					},
					"external": {
						"add_buyer(address,string,string,string,string)": "infinite",
						"bank()": "2559",
						"get_buyers()": "infinite",
						"provider()": "2512",
						"remove_buyer(uint256)": "infinite",
						"set_bank(address)": "24766",
						"set_provider(address)": "24722",
						"update_buyer(uint256,address,string,string,string,string)": "infinite"
					}
				},
				"methodIdentifiers": {
					"add_buyer(address,string,string,string,string)": "1fbecde7",
					"bank()": "76cdb03b",
					"get_buyers()": "827b0348",
					"provider()": "085d4883",
					"remove_buyer(uint256)": "b78842ee",
					"set_bank(address)": "dacf64e2",
					"set_provider(address)": "b29f04fe",
					"update_buyer(uint256,address,string,string,string,string)": "efa3b7cc"
				}
			},
			"storageLayout": {
				"storage": [
					{
						"astId": 56,
						"contract": "contracts/Colhoz.sol:Colhoz",
						"label": "provider",
						"offset": 0,
						"slot": "0",
						"type": "t_address"
					},
					{
						"astId": 58,
						"contract": "contracts/Colhoz.sol:Colhoz",
						"label": "bank",
						"offset": 0,
						"slot": "1",
						"type": "t_address"
					},
					{
						"astId": 62,
						"contract": "contracts/Colhoz.sol:Colhoz",
						"label": "buyers",
						"offset": 0,
						"slot": "2",
						"type": "t_array(t_struct(User)12_storage)dyn_storage"
					},
					{
						"astId": 66,
						"contract": "contracts/Colhoz.sol:Colhoz",
						"label": "admins",
						"offset": 0,
						"slot": "3",
						"type": "t_array(t_struct(User)12_storage)dyn_storage"
					},
					{
						"astId": 70,
						"contract": "contracts/Colhoz.sol:Colhoz",
						"label": "sellers",
						"offset": 0,
						"slot": "4",
						"type": "t_array(t_struct(Seller)25_storage)dyn_storage"
					},
					{
						"astId": 74,
						"contract": "contracts/Colhoz.sol:Colhoz",
						"label": "shops",
						"offset": 0,
						"slot": "5",
						"type": "t_array(t_struct(Shop)34_storage)dyn_storage"
					},
					{
						"astId": 78,
						"contract": "contracts/Colhoz.sol:Colhoz",
						"label": "reviews",
						"offset": 0,
						"slot": "6",
						"type": "t_array(t_struct(Review)47_storage)dyn_storage"
					},
					{
						"astId": 82,
						"contract": "contracts/Colhoz.sol:Colhoz",
						"label": "requests",
						"offset": 0,
						"slot": "7",
						"type": "t_array(t_struct(Request)54_storage)dyn_storage"
					}
				],
				"types": {
					"t_address": {
						"encoding": "inplace",
						"label": "address",
						"numberOfBytes": "20"
					},
					"t_array(t_address)dyn_storage": {
						"base": "t_address",
						"encoding": "dynamic_array",
						"label": "address[]",
						"numberOfBytes": "32"
					},
					"t_array(t_struct(Request)54_storage)dyn_storage": {
						"base": "t_struct(Request)54_storage",
						"encoding": "dynamic_array",
						"label": "struct Request[]",
						"numberOfBytes": "32"
					},
					"t_array(t_struct(Review)47_storage)dyn_storage": {
						"base": "t_struct(Review)47_storage",
						"encoding": "dynamic_array",
						"label": "struct Review[]",
						"numberOfBytes": "32"
					},
					"t_array(t_struct(Seller)25_storage)dyn_storage": {
						"base": "t_struct(Seller)25_storage",
						"encoding": "dynamic_array",
						"label": "struct Seller[]",
						"numberOfBytes": "32"
					},
					"t_array(t_struct(Shop)34_storage)dyn_storage": {
						"base": "t_struct(Shop)34_storage",
						"encoding": "dynamic_array",
						"label": "struct Shop[]",
						"numberOfBytes": "32"
					},
					"t_array(t_struct(User)12_storage)dyn_storage": {
						"base": "t_struct(User)12_storage",
						"encoding": "dynamic_array",
						"label": "struct User[]",
						"numberOfBytes": "32"
					},
					"t_string_storage": {
						"encoding": "bytes",
						"label": "string",
						"numberOfBytes": "32"
					},
					"t_struct(Request)54_storage": {
						"encoding": "inplace",
						"label": "struct Request",
						"members": [
							{
								"astId": 49,
								"contract": "contracts/Colhoz.sol:Colhoz",
								"label": "autor",
								"offset": 0,
								"slot": "0",
								"type": "t_address"
							},
							{
								"astId": 51,
								"contract": "contracts/Colhoz.sol:Colhoz",
								"label": "currentRole",
								"offset": 0,
								"slot": "1",
								"type": "t_string_storage"
							},
							{
								"astId": 53,
								"contract": "contracts/Colhoz.sol:Colhoz",
								"label": "desiredRole",
								"offset": 0,
								"slot": "2",
								"type": "t_string_storage"
							}
						],
						"numberOfBytes": "96"
					},
					"t_struct(Review)47_storage": {
						"encoding": "inplace",
						"label": "struct Review",
						"members": [
							{
								"astId": 36,
								"contract": "contracts/Colhoz.sol:Colhoz",
								"label": "autor",
								"offset": 0,
								"slot": "0",
								"type": "t_address"
							},
							{
								"astId": 38,
								"contract": "contracts/Colhoz.sol:Colhoz",
								"label": "message",
								"offset": 0,
								"slot": "1",
								"type": "t_string_storage"
							},
							{
								"astId": 40,
								"contract": "contracts/Colhoz.sol:Colhoz",
								"label": "shopId",
								"offset": 0,
								"slot": "2",
								"type": "t_string_storage"
							},
							{
								"astId": 43,
								"contract": "contracts/Colhoz.sol:Colhoz",
								"label": "likes",
								"offset": 0,
								"slot": "3",
								"type": "t_array(t_address)dyn_storage"
							},
							{
								"astId": 46,
								"contract": "contracts/Colhoz.sol:Colhoz",
								"label": "dislikes",
								"offset": 0,
								"slot": "4",
								"type": "t_array(t_address)dyn_storage"
							}
						],
						"numberOfBytes": "160"
					},
					"t_struct(Seller)25_storage": {
						"encoding": "inplace",
						"label": "struct Seller",
						"members": [
							{
								"astId": 14,
								"contract": "contracts/Colhoz.sol:Colhoz",
								"label": "userAddr",
								"offset": 0,
								"slot": "0",
								"type": "t_address"
							},
							{
								"astId": 16,
								"contract": "contracts/Colhoz.sol:Colhoz",
								"label": "login",
								"offset": 0,
								"slot": "1",
								"type": "t_string_storage"
							},
							{
								"astId": 18,
								"contract": "contracts/Colhoz.sol:Colhoz",
								"label": "password",
								"offset": 0,
								"slot": "2",
								"type": "t_string_storage"
							},
							{
								"astId": 20,
								"contract": "contracts/Colhoz.sol:Colhoz",
								"label": "fio",
								"offset": 0,
								"slot": "3",
								"type": "t_string_storage"
							},
							{
								"astId": 22,
								"contract": "contracts/Colhoz.sol:Colhoz",
								"label": "status",
								"offset": 0,
								"slot": "4",
								"type": "t_string_storage"
							},
							{
								"astId": 24,
								"contract": "contracts/Colhoz.sol:Colhoz",
								"label": "shopId",
								"offset": 0,
								"slot": "5",
								"type": "t_string_storage"
							}
						],
						"numberOfBytes": "192"
					},
					"t_struct(Shop)34_storage": {
						"encoding": "inplace",
						"label": "struct Shop",
						"members": [
							{
								"astId": 27,
								"contract": "contracts/Colhoz.sol:Colhoz",
								"label": "shopId",
								"offset": 0,
								"slot": "0",
								"type": "t_string_storage"
							},
							{
								"astId": 29,
								"contract": "contracts/Colhoz.sol:Colhoz",
								"label": "shopAddr",
								"offset": 0,
								"slot": "1",
								"type": "t_address"
							},
							{
								"astId": 31,
								"contract": "contracts/Colhoz.sol:Colhoz",
								"label": "number",
								"offset": 0,
								"slot": "2",
								"type": "t_string_storage"
							},
							{
								"astId": 33,
								"contract": "contracts/Colhoz.sol:Colhoz",
								"label": "city",
								"offset": 0,
								"slot": "3",
								"type": "t_string_storage"
							}
						],
						"numberOfBytes": "128"
					},
					"t_struct(User)12_storage": {
						"encoding": "inplace",
						"label": "struct User",
						"members": [
							{
								"astId": 3,
								"contract": "contracts/Colhoz.sol:Colhoz",
								"label": "userAddr",
								"offset": 0,
								"slot": "0",
								"type": "t_address"
							},
							{
								"astId": 5,
								"contract": "contracts/Colhoz.sol:Colhoz",
								"label": "login",
								"offset": 0,
								"slot": "1",
								"type": "t_string_storage"
							},
							{
								"astId": 7,
								"contract": "contracts/Colhoz.sol:Colhoz",
								"label": "password",
								"offset": 0,
								"slot": "2",
								"type": "t_string_storage"
							},
							{
								"astId": 9,
								"contract": "contracts/Colhoz.sol:Colhoz",
								"label": "fio",
								"offset": 0,
								"slot": "3",
								"type": "t_string_storage"
							},
							{
								"astId": 11,
								"contract": "contracts/Colhoz.sol:Colhoz",
								"label": "status",
								"offset": 0,
								"slot": "4",
								"type": "t_string_storage"
							}
						],
						"numberOfBytes": "160"
					}
				}
			},
			"userdoc": {
				"kind": "user",
				"methods": {},
				"version": 1
			}
		}
	}
}