{
	"contracts/Shops.sol": {
		"ShopsSystem": {
			"abi": [
				{
					"inputs": [],
					"stateMutability": "nonpayable",
					"type": "constructor"
				},
				{
					"inputs": [
						{
							"internalType": "address",
							"name": "shopAddr",
							"type": "address"
						},
						{
							"internalType": "string",
							"name": "userMessage",
							"type": "string"
						},
						{
							"internalType": "string",
							"name": "id",
							"type": "string"
						},
						{
							"internalType": "int256",
							"name": "grade",
							"type": "int256"
						}
					],
					"name": "createReview",
					"outputs": [],
					"stateMutability": "nonpayable",
					"type": "function"
				},
				{
					"inputs": [
						{
							"internalType": "string",
							"name": "id",
							"type": "string"
						}
					],
					"name": "disLikeReview",
					"outputs": [],
					"stateMutability": "nonpayable",
					"type": "function"
				},
				{
					"inputs": [
						{
							"internalType": "address payable",
							"name": "shopAddr",
							"type": "address"
						}
					],
					"name": "doShopDebt",
					"outputs": [],
					"stateMutability": "nonpayable",
					"type": "function"
				},
				{
					"inputs": [],
					"name": "downRequestToByer",
					"outputs": [],
					"stateMutability": "nonpayable",
					"type": "function"
				},
				{
					"inputs": [],
					"name": "getAdminInfo",
					"outputs": [
						{
							"internalType": "string",
							"name": "login",
							"type": "string"
						},
						{
							"components": [
								{
									"internalType": "address",
									"name": "userAddr",
									"type": "address"
								},
								{
									"internalType": "string",
									"name": "currentRole",
									"type": "string"
								},
								{
									"internalType": "string",
									"name": "desiredRole",
									"type": "string"
								},
								{
									"internalType": "bool",
									"name": "checked",
									"type": "bool"
								}
							],
							"internalType": "struct Request[]",
							"name": "userRequests",
							"type": "tuple[]"
						},
						{
							"internalType": "string[]",
							"name": "adminList",
							"type": "string[]"
						},
						{
							"internalType": "address[]",
							"name": "sellersAddr",
							"type": "address[]"
						}
					],
					"stateMutability": "view",
					"type": "function"
				},
				{
					"inputs": [],
					"name": "getBuyerInfo",
					"outputs": [
						{
							"internalType": "string",
							"name": "userLogin",
							"type": "string"
						},
						{
							"internalType": "string",
							"name": "fio",
							"type": "string"
						},
						{
							"internalType": "uint256",
							"name": "balance",
							"type": "uint256"
						},
						{
							"internalType": "string[]",
							"name": "reviews",
							"type": "string[]"
						}
					],
					"stateMutability": "view",
					"type": "function"
				},
				{
					"inputs": [
						{
							"internalType": "string",
							"name": "id",
							"type": "string"
						}
					],
					"name": "getReviewById",
					"outputs": [
						{
							"internalType": "address",
							"name": "autorAddr",
							"type": "address"
						},
						{
							"internalType": "address",
							"name": "shopAddr",
							"type": "address"
						},
						{
							"internalType": "string",
							"name": "reviewMessage",
							"type": "string"
						},
						{
							"internalType": "uint256",
							"name": "likeCount",
							"type": "uint256"
						},
						{
							"internalType": "uint256",
							"name": "disLikeCount",
							"type": "uint256"
						},
						{
							"internalType": "int256",
							"name": "grade",
							"type": "int256"
						}
					],
					"stateMutability": "view",
					"type": "function"
				},
				{
					"inputs": [],
					"name": "getSellerInfo",
					"outputs": [
						{
							"internalType": "string",
							"name": "sellerLogin",
							"type": "string"
						},
						{
							"internalType": "string",
							"name": "fio",
							"type": "string"
						},
						{
							"internalType": "string",
							"name": "city",
							"type": "string"
						},
						{
							"internalType": "string",
							"name": "shopNumber",
							"type": "string"
						},
						{
							"internalType": "string[]",
							"name": "reviews",
							"type": "string[]"
						}
					],
					"stateMutability": "view",
					"type": "function"
				},
				{
					"inputs": [
						{
							"internalType": "address",
							"name": "sellerAddr",
							"type": "address"
						}
					],
					"name": "getSellerInfoByAddr",
					"outputs": [
						{
							"internalType": "string",
							"name": "sellerLogin",
							"type": "string"
						},
						{
							"internalType": "string",
							"name": "fio",
							"type": "string"
						},
						{
							"internalType": "string",
							"name": "city",
							"type": "string"
						},
						{
							"internalType": "string",
							"name": "shopNumber",
							"type": "string"
						},
						{
							"internalType": "string[]",
							"name": "reviews",
							"type": "string[]"
						}
					],
					"stateMutability": "view",
					"type": "function"
				},
				{
					"inputs": [
						{
							"internalType": "string",
							"name": "id",
							"type": "string"
						}
					],
					"name": "likeReview",
					"outputs": [],
					"stateMutability": "nonpayable",
					"type": "function"
				},
				{
					"inputs": [
						{
							"internalType": "string",
							"name": "userLogin",
							"type": "string"
						}
					],
					"name": "login",
					"outputs": [
						{
							"internalType": "address",
							"name": "userAddress",
							"type": "address"
						},
						{
							"internalType": "string",
							"name": "status",
							"type": "string"
						}
					],
					"stateMutability": "view",
					"type": "function"
				},
				{
					"inputs": [
						{
							"internalType": "address",
							"name": "adminAddr",
							"type": "address"
						},
						{
							"internalType": "string",
							"name": "fio",
							"type": "string"
						},
						{
							"internalType": "string",
							"name": "userLogin",
							"type": "string"
						}
					],
					"name": "regAdmin",
					"outputs": [],
					"stateMutability": "nonpayable",
					"type": "function"
				},
				{
					"inputs": [
						{
							"internalType": "string",
							"name": "fio",
							"type": "string"
						},
						{
							"internalType": "string",
							"name": "userLogin",
							"type": "string"
						}
					],
					"name": "registerAdmin",
					"outputs": [],
					"stateMutability": "nonpayable",
					"type": "function"
				},
				{
					"inputs": [
						{
							"internalType": "string",
							"name": "bankLogin",
							"type": "string"
						},
						{
							"internalType": "address",
							"name": "bankAddr",
							"type": "address"
						}
					],
					"name": "registerBank",
					"outputs": [],
					"stateMutability": "nonpayable",
					"type": "function"
				},
				{
					"inputs": [
						{
							"internalType": "string",
							"name": "fio",
							"type": "string"
						},
						{
							"internalType": "string",
							"name": "userLogin",
							"type": "string"
						},
						{
							"internalType": "address",
							"name": "userAddr",
							"type": "address"
						}
					],
					"name": "registerBuyer",
					"outputs": [],
					"stateMutability": "nonpayable",
					"type": "function"
				},
				{
					"inputs": [
						{
							"internalType": "string",
							"name": "providerLogin",
							"type": "string"
						},
						{
							"internalType": "address",
							"name": "providerAddr",
							"type": "address"
						}
					],
					"name": "registerProvider",
					"outputs": [],
					"stateMutability": "nonpayable",
					"type": "function"
				},
				{
					"inputs": [
						{
							"internalType": "string",
							"name": "fio",
							"type": "string"
						},
						{
							"internalType": "string",
							"name": "userLogin",
							"type": "string"
						},
						{
							"internalType": "address",
							"name": "userAddress",
							"type": "address"
						},
						{
							"internalType": "address",
							"name": "shopAddr",
							"type": "address"
						}
					],
					"name": "registerSeller",
					"outputs": [],
					"stateMutability": "nonpayable",
					"type": "function"
				},
				{
					"inputs": [
						{
							"internalType": "address",
							"name": "shopAddr",
							"type": "address"
						},
						{
							"internalType": "string",
							"name": "number",
							"type": "string"
						},
						{
							"internalType": "string",
							"name": "city",
							"type": "string"
						},
						{
							"internalType": "string",
							"name": "shopLogin",
							"type": "string"
						}
					],
					"name": "registerShop",
					"outputs": [],
					"stateMutability": "nonpayable",
					"type": "function"
				},
				{
					"inputs": [],
					"name": "requestToSeller",
					"outputs": [],
					"stateMutability": "nonpayable",
					"type": "function"
				}
			],
			"devdoc": {
				"kind": "dev",
				"methods": {},
				"version": 1
			},
			"evm": {
				"assembly": "    /* \"contracts/Shops.sol\":269:7722  contract ShopsSystem is AuthService{... */\n  mstore(0x40, 0x80)\n    /* \"contracts/Shops.sol\":954:1002  constructor(){... */\n  callvalue\n  dup1\n  iszero\n  tag_1\n  jumpi\n  0x00\n  dup1\n  revert\ntag_1:\n  pop\n    /* \"contracts/AuthService.sol\":576:599  userStatus[0] = \"buyer\" */\n  mload(0x40)\n  dup1\n  0x40\n  add\n  0x40\n  mstore\n  dup1\n  0x05\n  dup2\n  mstore\n  0x20\n  add\n  0x6275796572000000000000000000000000000000000000000000000000000000\n  dup2\n  mstore\n  pop\n    /* \"contracts/AuthService.sol\":576:586  userStatus */\n  0x00\n    /* \"contracts/AuthService.sol\":576:589  userStatus[0] */\n  dup1\n    /* \"contracts/AuthService.sol\":587:588  0 */\n  dup1\n    /* \"contracts/AuthService.sol\":576:589  userStatus[0] */\n  dup2\n  mstore\n  0x20\n  add\n  swap1\n  dup2\n  mstore\n  0x20\n  add\n  0x00\n  keccak256\n    /* \"contracts/AuthService.sol\":576:599  userStatus[0] = \"buyer\" */\n  swap1\n  dup1\n  mload\n  swap1\n  0x20\n  add\n  swap1\n  tag_5\n  swap3\n  swap2\n  swap1\n  tag_6\n  jump\t// in\ntag_5:\n  pop\n    /* \"contracts/AuthService.sol\":609:633  userStatus[1] = \"seller\" */\n  mload(0x40)\n  dup1\n  0x40\n  add\n  0x40\n  mstore\n  dup1\n  0x06\n  dup2\n  mstore\n  0x20\n  add\n  0x73656c6c65720000000000000000000000000000000000000000000000000000\n  dup2\n  mstore\n  pop\n    /* \"contracts/AuthService.sol\":609:619  userStatus */\n  0x00\n    /* \"contracts/AuthService.sol\":609:622  userStatus[1] */\n  dup1\n    /* \"contracts/AuthService.sol\":620:621  1 */\n  0x01\n    /* \"contracts/AuthService.sol\":609:622  userStatus[1] */\n  dup2\n  mstore\n  0x20\n  add\n  swap1\n  dup2\n  mstore\n  0x20\n  add\n  0x00\n  keccak256\n    /* \"contracts/AuthService.sol\":609:633  userStatus[1] = \"seller\" */\n  swap1\n  dup1\n  mload\n  swap1\n  0x20\n  add\n  swap1\n  tag_7\n  swap3\n  swap2\n  swap1\n  tag_6\n  jump\t// in\ntag_7:\n  pop\n    /* \"contracts/AuthService.sol\":643:665  userStatus[2] = \"shop\" */\n  mload(0x40)\n  dup1\n  0x40\n  add\n  0x40\n  mstore\n  dup1\n  0x04\n  dup2\n  mstore\n  0x20\n  add\n  0x73686f7000000000000000000000000000000000000000000000000000000000\n  dup2\n  mstore\n  pop\n    /* \"contracts/AuthService.sol\":643:653  userStatus */\n  0x00\n    /* \"contracts/AuthService.sol\":643:656  userStatus[2] */\n  dup1\n    /* \"contracts/AuthService.sol\":654:655  2 */\n  0x02\n    /* \"contracts/AuthService.sol\":643:656  userStatus[2] */\n  dup2\n  mstore\n  0x20\n  add\n  swap1\n  dup2\n  mstore\n  0x20\n  add\n  0x00\n  keccak256\n    /* \"contracts/AuthService.sol\":643:665  userStatus[2] = \"shop\" */\n  swap1\n  dup1\n  mload\n  swap1\n  0x20\n  add\n  swap1\n  tag_8\n  swap3\n  swap2\n  swap1\n  tag_6\n  jump\t// in\ntag_8:\n  pop\n    /* \"contracts/AuthService.sol\":675:698  userStatus[3] = \"admin\" */\n  mload(0x40)\n  dup1\n  0x40\n  add\n  0x40\n  mstore\n  dup1\n  0x05\n  dup2\n  mstore\n  0x20\n  add\n  0x61646d696e000000000000000000000000000000000000000000000000000000\n  dup2\n  mstore\n  pop\n    /* \"contracts/AuthService.sol\":675:685  userStatus */\n  0x00\n    /* \"contracts/AuthService.sol\":675:688  userStatus[3] */\n  dup1\n    /* \"contracts/AuthService.sol\":686:687  3 */\n  0x03\n    /* \"contracts/AuthService.sol\":675:688  userStatus[3] */\n  dup2\n  mstore\n  0x20\n  add\n  swap1\n  dup2\n  mstore\n  0x20\n  add\n  0x00\n  keccak256\n    /* \"contracts/AuthService.sol\":675:698  userStatus[3] = \"admin\" */\n  swap1\n  dup1\n  mload\n  swap1\n  0x20\n  add\n  swap1\n  tag_9\n  swap3\n  swap2\n  swap1\n  tag_6\n  jump\t// in\ntag_9:\n  pop\n    /* \"contracts/AuthService.sol\":708:734  userStatus[4] = \"provider\" */\n  mload(0x40)\n  dup1\n  0x40\n  add\n  0x40\n  mstore\n  dup1\n  0x08\n  dup2\n  mstore\n  0x20\n  add\n  0x70726f7669646572000000000000000000000000000000000000000000000000\n  dup2\n  mstore\n  pop\n    /* \"contracts/AuthService.sol\":708:718  userStatus */\n  0x00\n    /* \"contracts/AuthService.sol\":708:721  userStatus[4] */\n  dup1\n    /* \"contracts/AuthService.sol\":719:720  4 */\n  0x04\n    /* \"contracts/AuthService.sol\":708:721  userStatus[4] */\n  dup2\n  mstore\n  0x20\n  add\n  swap1\n  dup2\n  mstore\n  0x20\n  add\n  0x00\n  keccak256\n    /* \"contracts/AuthService.sol\":708:734  userStatus[4] = \"provider\" */\n  swap1\n  dup1\n  mload\n  swap1\n  0x20\n  add\n  swap1\n  tag_10\n  swap3\n  swap2\n  swap1\n  tag_6\n  jump\t// in\ntag_10:\n  pop\n    /* \"contracts/AuthService.sol\":744:766  userStatus[5] = \"bank\" */\n  mload(0x40)\n  dup1\n  0x40\n  add\n  0x40\n  mstore\n  dup1\n  0x04\n  dup2\n  mstore\n  0x20\n  add\n  0x62616e6b00000000000000000000000000000000000000000000000000000000\n  dup2\n  mstore\n  pop\n    /* \"contracts/AuthService.sol\":744:754  userStatus */\n  0x00\n    /* \"contracts/AuthService.sol\":744:757  userStatus[5] */\n  dup1\n    /* \"contracts/AuthService.sol\":755:756  5 */\n  0x05\n    /* \"contracts/AuthService.sol\":744:757  userStatus[5] */\n  dup2\n  mstore\n  0x20\n  add\n  swap1\n  dup2\n  mstore\n  0x20\n  add\n  0x00\n  keccak256\n    /* \"contracts/AuthService.sol\":744:766  userStatus[5] = \"bank\" */\n  swap1\n  dup1\n  mload\n  swap1\n  0x20\n  add\n  swap1\n  tag_11\n  swap3\n  swap2\n  swap1\n  tag_6\n  jump\t// in\ntag_11:\n  pop\n    /* \"contracts/Shops.sol\":985:995  msg.sender */\n  caller\n    /* \"contracts/Shops.sol\":977:982  admin */\n  0x05\n  0x00\n    /* \"contracts/Shops.sol\":977:995  admin = msg.sender */\n  0x0100\n  exp\n  dup2\n  sload\n  dup2\n  0xffffffffffffffffffffffffffffffffffffffff\n  mul\n  not\n  and\n  swap1\n  dup4\n  0xffffffffffffffffffffffffffffffffffffffff\n  and\n  mul\n  or\n  swap1\n  sstore\n  pop\n    /* \"contracts/Shops.sol\":269:7722  contract ShopsSystem is AuthService{... */\n  jump(tag_13)\ntag_6:\n  dup3\n  dup1\n  sload\n  tag_14\n  swap1\n  tag_15\n  jump\t// in\ntag_14:\n  swap1\n  0x00\n  mstore\n  keccak256(0x00, 0x20)\n  swap1\n  0x1f\n  add\n  0x20\n  swap1\n  div\n  dup2\n  add\n  swap3\n  dup3\n  tag_17\n  jumpi\n  0x00\n  dup6\n  sstore\n  jump(tag_16)\ntag_17:\n  dup3\n  0x1f\n  lt\n  tag_18\n  jumpi\n  dup1\n  mload\n  not(0xff)\n  and\n  dup4\n  dup1\n  add\n  or\n  dup6\n  sstore\n  jump(tag_16)\ntag_18:\n  dup3\n  dup1\n  add\n  0x01\n  add\n  dup6\n  sstore\n  dup3\n  iszero\n  tag_16\n  jumpi\n  swap2\n  dup3\n  add\ntag_19:\n  dup3\n  dup2\n  gt\n  iszero\n  tag_20\n  jumpi\n  dup3\n  mload\n  dup3\n  sstore\n  swap2\n  0x20\n  add\n  swap2\n  swap1\n  0x01\n  add\n  swap1\n  jump(tag_19)\ntag_20:\ntag_16:\n  pop\n  swap1\n  pop\n  tag_21\n  swap2\n  swap1\n  tag_22\n  jump\t// in\ntag_21:\n  pop\n  swap1\n  jump\t// out\ntag_22:\ntag_23:\n  dup1\n  dup3\n  gt\n  iszero\n  tag_24\n  jumpi\n  0x00\n  dup2\n  0x00\n  swap1\n  sstore\n  pop\n  0x01\n  add\n  jump(tag_23)\ntag_24:\n  pop\n  swap1\n  jump\t// out\n    /* \"#utility.yul\":7:327   */\ntag_15:\n    /* \"#utility.yul\":51:57   */\n  0x00\n    /* \"#utility.yul\":88:89   */\n  0x02\n    /* \"#utility.yul\":82:86   */\n  dup3\n    /* \"#utility.yul\":78:90   */\n  div\n    /* \"#utility.yul\":68:90   */\n  swap1\n  pop\n    /* \"#utility.yul\":135:136   */\n  0x01\n    /* \"#utility.yul\":129:133   */\n  dup3\n    /* \"#utility.yul\":125:137   */\n  and\n    /* \"#utility.yul\":156:174   */\n  dup1\n    /* \"#utility.yul\":146:227   */\n  tag_27\n  jumpi\n    /* \"#utility.yul\":212:216   */\n  0x7f\n    /* \"#utility.yul\":204:210   */\n  dup3\n    /* \"#utility.yul\":200:217   */\n  and\n    /* \"#utility.yul\":190:217   */\n  swap2\n  pop\n    /* \"#utility.yul\":146:227   */\ntag_27:\n    /* \"#utility.yul\":274:276   */\n  0x20\n    /* \"#utility.yul\":266:272   */\n  dup3\n    /* \"#utility.yul\":263:277   */\n  lt\n    /* \"#utility.yul\":243:261   */\n  dup2\n    /* \"#utility.yul\":240:278   */\n  eq\n    /* \"#utility.yul\":237:321   */\n  iszero\n  tag_28\n  jumpi\n    /* \"#utility.yul\":293:311   */\n  tag_29\n  tag_30\n  jump\t// in\ntag_29:\n    /* \"#utility.yul\":237:321   */\ntag_28:\n    /* \"#utility.yul\":58:327   */\n  pop\n    /* \"#utility.yul\":7:327   */\n  swap2\n  swap1\n  pop\n  jump\t// out\n    /* \"#utility.yul\":333:513   */\ntag_30:\n    /* \"#utility.yul\":381:458   */\n  0x4e487b7100000000000000000000000000000000000000000000000000000000\n    /* \"#utility.yul\":378:379   */\n  0x00\n    /* \"#utility.yul\":371:459   */\n  mstore\n    /* \"#utility.yul\":478:482   */\n  0x22\n    /* \"#utility.yul\":475:476   */\n  0x04\n    /* \"#utility.yul\":468:483   */\n  mstore\n    /* \"#utility.yul\":502:506   */\n  0x24\n    /* \"#utility.yul\":499:500   */\n  0x00\n    /* \"#utility.yul\":492:507   */\n  revert\n    /* \"contracts/Shops.sol\":269:7722  contract ShopsSystem is AuthService{... */\ntag_13:\n  dataSize(sub_0)\n  dup1\n  dataOffset(sub_0)\n  0x00\n  codecopy\n  0x00\n  return\nstop\n\nsub_0: assembly {\n        /* \"contracts/Shops.sol\":269:7722  contract ShopsSystem is AuthService{... */\n      mstore(0x40, 0x80)\n      callvalue\n      dup1\n      iszero\n      tag_1\n      jumpi\n      0x00\n      dup1\n      revert\n    tag_1:\n      pop\n      jumpi(tag_2, lt(calldatasize, 0x04))\n      shr(0xe0, calldataload(0x00))\n      dup1\n      0x83db0f6d\n      gt\n      tag_22\n      jumpi\n      dup1\n      0xa59d105f\n      gt\n      tag_23\n      jumpi\n      dup1\n      0xa59d105f\n      eq\n      tag_17\n      jumpi\n      dup1\n      0xbce62a74\n      eq\n      tag_18\n      jumpi\n      dup1\n      0xc3d5fd39\n      eq\n      tag_19\n      jumpi\n      dup1\n      0xd5eabbbe\n      eq\n      tag_20\n      jumpi\n      dup1\n      0xf8f98b79\n      eq\n      tag_21\n      jumpi\n      jump(tag_2)\n    tag_23:\n      dup1\n      0x83db0f6d\n      eq\n      tag_12\n      jumpi\n      dup1\n      0x8403f848\n      eq\n      tag_13\n      jumpi\n      dup1\n      0x8edc85f9\n      eq\n      tag_14\n      jumpi\n      dup1\n      0x99b958ee\n      eq\n      tag_15\n      jumpi\n      dup1\n      0x9d344d10\n      eq\n      tag_16\n      jumpi\n      jump(tag_2)\n    tag_22:\n      dup1\n      0x3a7d280c\n      gt\n      tag_24\n      jumpi\n      dup1\n      0x3a7d280c\n      eq\n      tag_7\n      jumpi\n      dup1\n      0x54504c12\n      eq\n      tag_8\n      jumpi\n      dup1\n      0x7558b2f8\n      eq\n      tag_9\n      jumpi\n      dup1\n      0x7b3c7488\n      eq\n      tag_10\n      jumpi\n      dup1\n      0x7ccb2bd8\n      eq\n      tag_11\n      jumpi\n      jump(tag_2)\n    tag_24:\n      dup1\n      0x08e74858\n      eq\n      tag_3\n      jumpi\n      dup1\n      0x2156a781\n      eq\n      tag_4\n      jumpi\n      dup1\n      0x2d6abf59\n      eq\n      tag_5\n      jumpi\n      dup1\n      0x2f0185c4\n      eq\n      tag_6\n      jumpi\n    tag_2:\n      0x00\n      dup1\n      revert\n        /* \"contracts/Shops.sol\":5437:6050  function getSellerInfoByAddr(address sellerAddr) public view isUserStatus(UserRoles.admin)returns(... */\n    tag_3:\n      tag_25\n      0x04\n      dup1\n      calldatasize\n      sub\n      dup2\n      add\n      swap1\n      tag_26\n      swap2\n      swap1\n      tag_27\n      jump\t// in\n    tag_26:\n      tag_28\n      jump\t// in\n    tag_25:\n      mload(0x40)\n      tag_29\n      swap6\n      swap5\n      swap4\n      swap3\n      swap2\n      swap1\n      tag_30\n      jump\t// in\n    tag_29:\n      mload(0x40)\n      dup1\n      swap2\n      sub\n      swap1\n      return\n        /* \"contracts/Shops.sol\":2621:2808  function registerBank(string memory bankLogin,address bankAddr) public isAdmin {... */\n    tag_4:\n      tag_31\n      0x04\n      dup1\n      calldatasize\n      sub\n      dup2\n      add\n      swap1\n      tag_32\n      swap2\n      swap1\n      tag_33\n      jump\t// in\n    tag_32:\n      tag_34\n      jump\t// in\n    tag_31:\n      stop\n        /* \"contracts/Shops.sol\":6056:6510  function createReview(... */\n    tag_5:\n      tag_35\n      0x04\n      dup1\n      calldatasize\n      sub\n      dup2\n      add\n      swap1\n      tag_36\n      swap2\n      swap1\n      tag_37\n      jump\t// in\n    tag_36:\n      tag_38\n      jump\t// in\n    tag_35:\n      stop\n        /* \"contracts/Shops.sol\":7000:7486  function getReviewById(string memory id) public view returns(... */\n    tag_6:\n      tag_39\n      0x04\n      dup1\n      calldatasize\n      sub\n      dup2\n      add\n      swap1\n      tag_40\n      swap2\n      swap1\n      tag_41\n      jump\t// in\n    tag_40:\n      tag_42\n      jump\t// in\n    tag_39:\n      mload(0x40)\n      tag_43\n      swap7\n      swap6\n      swap5\n      swap4\n      swap3\n      swap2\n      swap1\n      tag_44\n      jump\t// in\n    tag_43:\n      mload(0x40)\n      dup1\n      swap2\n      sub\n      swap1\n      return\n        /* \"contracts/AuthService.sol\":2256:2556  function login(string memory userLogin) public view isRegistered(userLogin) returns(address userAddress,string memory status){... */\n    tag_7:\n      tag_45\n      0x04\n      dup1\n      calldatasize\n      sub\n      dup2\n      add\n      swap1\n      tag_46\n      swap2\n      swap1\n      tag_41\n      jump\t// in\n    tag_46:\n      tag_47\n      jump\t// in\n    tag_45:\n      mload(0x40)\n      tag_48\n      swap3\n      swap2\n      swap1\n      tag_49\n      jump\t// in\n    tag_48:\n      mload(0x40)\n      dup1\n      swap2\n      sub\n      swap1\n      return\n        /* \"contracts/Shops.sol\":3817:4408  function getSellerInfo() public view isUserStatus(UserRoles.seller) returns(... */\n    tag_8:\n      tag_50\n      tag_51\n      jump\t// in\n    tag_50:\n      mload(0x40)\n      tag_52\n      swap6\n      swap5\n      swap4\n      swap3\n      swap2\n      swap1\n      tag_30\n      jump\t// in\n    tag_52:\n      mload(0x40)\n      dup1\n      swap2\n      sub\n      swap1\n      return\n        /* \"contracts/Shops.sol\":1851:2202  function registerShop(address shopAddr,string memory number,string memory city,string memory shopLogin) public isUserStatus(UserRoles.admin){... */\n    tag_9:\n      tag_53\n      0x04\n      dup1\n      calldatasize\n      sub\n      dup2\n      add\n      swap1\n      tag_54\n      swap2\n      swap1\n      tag_55\n      jump\t// in\n    tag_54:\n      tag_56\n      jump\t// in\n    tag_53:\n      stop\n        /* \"contracts/Shops.sol\":6516:6749  function likeReview(string memory id) public isUser {... */\n    tag_10:\n      tag_57\n      0x04\n      dup1\n      calldatasize\n      sub\n      dup2\n      add\n      swap1\n      tag_58\n      swap2\n      swap1\n      tag_41\n      jump\t// in\n    tag_58:\n      tag_59\n      jump\t// in\n    tag_57:\n      stop\n        /* \"contracts/Shops.sol\":2302:2546  function registerProvider(string memory providerLogin,address providerAddr) public isAdmin {... */\n    tag_11:\n      tag_60\n      0x04\n      dup1\n      calldatasize\n      sub\n      dup2\n      add\n      swap1\n      tag_61\n      swap2\n      swap1\n      tag_33\n      jump\t// in\n    tag_61:\n      tag_62\n      jump\t// in\n    tag_60:\n      stop\n        /* \"contracts/Shops.sol\":3538:3741  function doShopDebt(address payable shopAddr) public isUserStatus(UserRoles.bank) {... */\n    tag_12:\n      tag_63\n      0x04\n      dup1\n      calldatasize\n      sub\n      dup2\n      add\n      swap1\n      tag_64\n      swap2\n      swap1\n      tag_65\n      jump\t// in\n    tag_64:\n      tag_66\n      jump\t// in\n    tag_63:\n      stop\n        /* \"contracts/Shops.sol\":2871:3177  function registerSeller(string memory fio,string memory userLogin,address userAddress,address shopAddr) public {... */\n    tag_13:\n      tag_67\n      0x04\n      dup1\n      calldatasize\n      sub\n      dup2\n      add\n      swap1\n      tag_68\n      swap2\n      swap1\n      tag_69\n      jump\t// in\n    tag_68:\n      tag_70\n      jump\t// in\n    tag_67:\n      stop\n        /* \"contracts/Shops.sol\":7577:7659  function downRequestToByer() public isUserStatus(UserRoles.seller){... */\n    tag_14:\n      tag_71\n      tag_72\n      jump\t// in\n    tag_71:\n      stop\n        /* \"contracts/Shops.sol\":4507:4871  function getBuyerInfo() public view isUser returns(... */\n    tag_15:\n      tag_73\n      tag_74\n      jump\t// in\n    tag_73:\n      mload(0x40)\n      tag_75\n      swap5\n      swap4\n      swap3\n      swap2\n      swap1\n      tag_76\n      jump\t// in\n    tag_75:\n      mload(0x40)\n      dup1\n      swap2\n      sub\n      swap1\n      return\n        /* \"contracts/Shops.sol\":3244:3443  function registerBuyer(string memory fio,string memory userLogin,address userAddr) public{... */\n    tag_16:\n      tag_77\n      0x04\n      dup1\n      calldatasize\n      sub\n      dup2\n      add\n      swap1\n      tag_78\n      swap2\n      swap1\n      tag_79\n      jump\t// in\n    tag_78:\n      tag_80\n      jump\t// in\n    tag_77:\n      stop\n        /* \"contracts/Shops.sol\":1532:1790  function regAdmin(address adminAddr,string memory fio,string memory userLogin) public isUserStatus(UserRoles.admin){... */\n    tag_17:\n      tag_81\n      0x04\n      dup1\n      calldatasize\n      sub\n      dup2\n      add\n      swap1\n      tag_82\n      swap2\n      swap1\n      tag_83\n      jump\t// in\n    tag_82:\n      tag_84\n      jump\t// in\n    tag_81:\n      stop\n        /* \"contracts/Shops.sol\":6755:6994  function disLikeReview(string memory id) public isUser {... */\n    tag_18:\n      tag_85\n      0x04\n      dup1\n      calldatasize\n      sub\n      dup2\n      add\n      swap1\n      tag_86\n      swap2\n      swap1\n      tag_41\n      jump\t// in\n    tag_86:\n      tag_87\n      jump\t// in\n    tag_85:\n      stop\n        /* \"contracts/Shops.sol\":4941:5340  function getAdminInfo() public view isUserStatus(UserRoles.admin) returns(... */\n    tag_19:\n      tag_88\n      tag_89\n      jump\t// in\n    tag_88:\n      mload(0x40)\n      tag_90\n      swap5\n      swap4\n      swap3\n      swap2\n      swap1\n      tag_91\n      jump\t// in\n    tag_90:\n      mload(0x40)\n      dup1\n      swap2\n      sub\n      swap1\n      return\n        /* \"contracts/Shops.sol\":7492:7571  function requestToSeller() public isUserStatus(UserRoles.buyer){... */\n    tag_20:\n      tag_92\n      tag_93\n      jump\t// in\n    tag_92:\n      stop\n        /* \"contracts/Shops.sol\":1216:1441  function registerAdmin(string memory fio,string memory userLogin) isAdmin public {... */\n    tag_21:\n      tag_94\n      0x04\n      dup1\n      calldatasize\n      sub\n      dup2\n      add\n      swap1\n      tag_95\n      swap2\n      swap1\n      tag_96\n      jump\t// in\n    tag_95:\n      tag_97\n      jump\t// in\n    tag_94:\n      stop\n        /* \"contracts/Shops.sol\":5437:6050  function getSellerInfoByAddr(address sellerAddr) public view isUserStatus(UserRoles.admin)returns(... */\n    tag_28:\n        /* \"contracts/Shops.sol\":5544:5569  string memory sellerLogin */\n      0x60\n        /* \"contracts/Shops.sol\":5579:5596  string memory fio */\n      dup1\n        /* \"contracts/Shops.sol\":5606:5624  string memory city */\n      0x60\n        /* \"contracts/Shops.sol\":5634:5658  string memory shopNumber */\n      dup1\n        /* \"contracts/Shops.sol\":5668:5691  string[] memory reviews */\n      0x60\n        /* \"contracts/Shops.sol\":5511:5526  UserRoles.admin */\n      0x03\n        /* \"contracts/AuthService.sol\":1617:1622  users */\n      0x02\n        /* \"contracts/AuthService.sol\":1617:1634  users[msg.sender] */\n      0x00\n        /* \"contracts/AuthService.sol\":1623:1633  msg.sender */\n      caller\n        /* \"contracts/AuthService.sol\":1617:1634  users[msg.sender] */\n      0xffffffffffffffffffffffffffffffffffffffff\n      and\n      0xffffffffffffffffffffffffffffffffffffffff\n      and\n      dup2\n      mstore\n      0x20\n      add\n      swap1\n      dup2\n      mstore\n      0x20\n      add\n      0x00\n      keccak256\n        /* \"contracts/AuthService.sol\":1617:1641  users[msg.sender].status */\n      0x00\n      add\n      sload\n        /* \"contracts/AuthService.sol\":1606:1612  status */\n      dup2\n        /* \"contracts/AuthService.sol\":1601:1613  uint(status) */\n      0x05\n      dup2\n      gt\n      iszero\n      tag_99\n      jumpi\n      tag_100\n      tag_101\n      jump\t// in\n    tag_100:\n    tag_99:\n        /* \"contracts/AuthService.sol\":1601:1641  uint(status) == users[msg.sender].status */\n      eq\n        /* \"contracts/AuthService.sol\":1593:1654  require(uint(status) == users[msg.sender].status,\"Forbidden\") */\n      tag_102\n      jumpi\n      mload(0x40)\n      0x08c379a000000000000000000000000000000000000000000000000000000000\n      dup2\n      mstore\n      0x04\n      add\n      tag_103\n      swap1\n      tag_104\n      jump\t// in\n    tag_103:\n      mload(0x40)\n      dup1\n      swap2\n      sub\n      swap1\n      revert\n    tag_102:\n        /* \"contracts/Shops.sol\":5707:5727  User memory sellUser */\n      0x00\n        /* \"contracts/Shops.sol\":5730:5735  users */\n      0x02\n        /* \"contracts/Shops.sol\":5730:5747  users[sellerAddr] */\n      0x00\n        /* \"contracts/Shops.sol\":5736:5746  sellerAddr */\n      dup10\n        /* \"contracts/Shops.sol\":5730:5747  users[sellerAddr] */\n      0xffffffffffffffffffffffffffffffffffffffff\n      and\n      0xffffffffffffffffffffffffffffffffffffffff\n      and\n      dup2\n      mstore\n      0x20\n      add\n      swap1\n      dup2\n      mstore\n      0x20\n      add\n      0x00\n      keccak256\n        /* \"contracts/Shops.sol\":5707:5747  User memory sellUser = users[sellerAddr] */\n      mload(0x40)\n      dup1\n      0x80\n      add\n      0x40\n      mstore\n      swap1\n      dup2\n      0x00\n      dup3\n      add\n      sload\n      dup2\n      mstore\n      0x20\n      add\n      0x01\n      dup3\n      add\n      dup1\n      sload\n      tag_106\n      swap1\n      tag_107\n      jump\t// in\n    tag_106:\n      dup1\n      0x1f\n      add\n      0x20\n      dup1\n      swap2\n      div\n      mul\n      0x20\n      add\n      mload(0x40)\n      swap1\n      dup2\n      add\n      0x40\n      mstore\n      dup1\n      swap3\n      swap2\n      swap1\n      dup2\n      dup2\n      mstore\n      0x20\n      add\n      dup3\n      dup1\n      sload\n      tag_108\n      swap1\n      tag_107\n      jump\t// in\n    tag_108:\n      dup1\n      iszero\n      tag_109\n      jumpi\n      dup1\n      0x1f\n      lt\n      tag_110\n      jumpi\n      0x0100\n      dup1\n      dup4\n      sload\n      div\n      mul\n      dup4\n      mstore\n      swap2\n      0x20\n      add\n      swap2\n      jump(tag_109)\n    tag_110:\n      dup3\n      add\n      swap2\n      swap1\n      0x00\n      mstore\n      keccak256(0x00, 0x20)\n      swap1\n    tag_111:\n      dup2\n      sload\n      dup2\n      mstore\n      swap1\n      0x01\n      add\n      swap1\n      0x20\n      add\n      dup1\n      dup4\n      gt\n      tag_111\n      jumpi\n      dup3\n      swap1\n      sub\n      0x1f\n      and\n      dup3\n      add\n      swap2\n    tag_109:\n      pop\n      pop\n      pop\n      pop\n      pop\n      dup2\n      mstore\n      0x20\n      add\n      0x02\n      dup3\n      add\n      dup1\n      sload\n      tag_112\n      swap1\n      tag_107\n      jump\t// in\n    tag_112:\n      dup1\n      0x1f\n      add\n      0x20\n      dup1\n      swap2\n      div\n      mul\n      0x20\n      add\n      mload(0x40)\n      swap1\n      dup2\n      add\n      0x40\n      mstore\n      dup1\n      swap3\n      swap2\n      swap1\n      dup2\n      dup2\n      mstore\n      0x20\n      add\n      dup3\n      dup1\n      sload\n      tag_113\n      swap1\n      tag_107\n      jump\t// in\n    tag_113:\n      dup1\n      iszero\n      tag_114\n      jumpi\n      dup1\n      0x1f\n      lt\n      tag_115\n      jumpi\n      0x0100\n      dup1\n      dup4\n      sload\n      div\n      mul\n      dup4\n      mstore\n      swap2\n      0x20\n      add\n      swap2\n      jump(tag_114)\n    tag_115:\n      dup3\n      add\n      swap2\n      swap1\n      0x00\n      mstore\n      keccak256(0x00, 0x20)\n      swap1\n    tag_116:\n      dup2\n      sload\n      dup2\n      mstore\n      swap1\n      0x01\n      add\n      swap1\n      0x20\n      add\n      dup1\n      dup4\n      gt\n      tag_116\n      jumpi\n      dup3\n      swap1\n      sub\n      0x1f\n      and\n      dup3\n      add\n      swap2\n    tag_114:\n      pop\n      pop\n      pop\n      pop\n      pop\n      dup2\n      mstore\n      0x20\n      add\n      0x03\n      dup3\n      add\n      dup1\n      sload\n      dup1\n      0x20\n      mul\n      0x20\n      add\n      mload(0x40)\n      swap1\n      dup2\n      add\n      0x40\n      mstore\n      dup1\n      swap3\n      swap2\n      swap1\n      dup2\n      dup2\n      mstore\n      0x20\n      add\n      0x00\n      swap1\n    tag_117:\n      dup3\n      dup3\n      lt\n      iszero\n      tag_118\n      jumpi\n      dup4\n      dup3\n      swap1\n      0x00\n      mstore\n      keccak256(0x00, 0x20)\n      add\n      dup1\n      sload\n      tag_120\n      swap1\n      tag_107\n      jump\t// in\n    tag_120:\n      dup1\n      0x1f\n      add\n      0x20\n      dup1\n      swap2\n      div\n      mul\n      0x20\n      add\n      mload(0x40)\n      swap1\n      dup2\n      add\n      0x40\n      mstore\n      dup1\n      swap3\n      swap2\n      swap1\n      dup2\n      dup2\n      mstore\n      0x20\n      add\n      dup3\n      dup1\n      sload\n      tag_121\n      swap1\n      tag_107\n      jump\t// in\n    tag_121:\n      dup1\n      iszero\n      tag_122\n      jumpi\n      dup1\n      0x1f\n      lt\n      tag_123\n      jumpi\n      0x0100\n      dup1\n      dup4\n      sload\n      div\n      mul\n      dup4\n      mstore\n      swap2\n      0x20\n      add\n      swap2\n      jump(tag_122)\n    tag_123:\n      dup3\n      add\n      swap2\n      swap1\n      0x00\n      mstore\n      keccak256(0x00, 0x20)\n      swap1\n    tag_124:\n      dup2\n      sload\n      dup2\n      mstore\n      swap1\n      0x01\n      add\n      swap1\n      0x20\n      add\n      dup1\n      dup4\n      gt\n      tag_124\n      jumpi\n      dup3\n      swap1\n      sub\n      0x1f\n      and\n      dup3\n      add\n      swap2\n    tag_122:\n      pop\n      pop\n      pop\n      pop\n      pop\n      dup2\n      mstore\n      0x20\n      add\n      swap1\n      0x01\n      add\n      swap1\n      jump(tag_117)\n    tag_118:\n      pop\n      pop\n      pop\n      pop\n      dup2\n      mstore\n      pop\n      pop\n      swap1\n      pop\n        /* \"contracts/Shops.sol\":5757:5777  address sellShopAddr */\n      0x00\n        /* \"contracts/Shops.sol\":5780:5792  salesmanShop */\n      0x0c\n        /* \"contracts/Shops.sol\":5780:5804  salesmanShop[sellerAddr] */\n      0x00\n        /* \"contracts/Shops.sol\":5793:5803  sellerAddr */\n      dup11\n        /* \"contracts/Shops.sol\":5780:5804  salesmanShop[sellerAddr] */\n      0xffffffffffffffffffffffffffffffffffffffff\n      and\n      0xffffffffffffffffffffffffffffffffffffffff\n      and\n      dup2\n      mstore\n      0x20\n      add\n      swap1\n      dup2\n      mstore\n      0x20\n      add\n      0x00\n      keccak256\n      0x00\n      swap1\n      sload\n      swap1\n      0x0100\n      exp\n      swap1\n      div\n      0xffffffffffffffffffffffffffffffffffffffff\n      and\n        /* \"contracts/Shops.sol\":5757:5804  address sellShopAddr = salesmanShop[sellerAddr] */\n      swap1\n      pop\n        /* \"contracts/Shops.sol\":5814:5834  Shop memory sellShop */\n      0x00\n        /* \"contracts/Shops.sol\":5837:5846  ShopsList */\n      0x0b\n        /* \"contracts/Shops.sol\":5837:5860  ShopsList[sellShopAddr] */\n      0x00\n        /* \"contracts/Shops.sol\":5847:5859  sellShopAddr */\n      dup4\n        /* \"contracts/Shops.sol\":5837:5860  ShopsList[sellShopAddr] */\n      0xffffffffffffffffffffffffffffffffffffffff\n      and\n      0xffffffffffffffffffffffffffffffffffffffff\n      and\n      dup2\n      mstore\n      0x20\n      add\n      swap1\n      dup2\n      mstore\n      0x20\n      add\n      0x00\n      keccak256\n        /* \"contracts/Shops.sol\":5814:5860  Shop memory sellShop = ShopsList[sellShopAddr] */\n      mload(0x40)\n      dup1\n      0x60\n      add\n      0x40\n      mstore\n      swap1\n      dup2\n      0x00\n      dup3\n      add\n      dup1\n      sload\n      tag_125\n      swap1\n      tag_107\n      jump\t// in\n    tag_125:\n      dup1\n      0x1f\n      add\n      0x20\n      dup1\n      swap2\n      div\n      mul\n      0x20\n      add\n      mload(0x40)\n      swap1\n      dup2\n      add\n      0x40\n      mstore\n      dup1\n      swap3\n      swap2\n      swap1\n      dup2\n      dup2\n      mstore\n      0x20\n      add\n      dup3\n      dup1\n      sload\n      tag_126\n      swap1\n      tag_107\n      jump\t// in\n    tag_126:\n      dup1\n      iszero\n      tag_127\n      jumpi\n      dup1\n      0x1f\n      lt\n      tag_128\n      jumpi\n      0x0100\n      dup1\n      dup4\n      sload\n      div\n      mul\n      dup4\n      mstore\n      swap2\n      0x20\n      add\n      swap2\n      jump(tag_127)\n    tag_128:\n      dup3\n      add\n      swap2\n      swap1\n      0x00\n      mstore\n      keccak256(0x00, 0x20)\n      swap1\n    tag_129:\n      dup2\n      sload\n      dup2\n      mstore\n      swap1\n      0x01\n      add\n      swap1\n      0x20\n      add\n      dup1\n      dup4\n      gt\n      tag_129\n      jumpi\n      dup3\n      swap1\n      sub\n      0x1f\n      and\n      dup3\n      add\n      swap2\n    tag_127:\n      pop\n      pop\n      pop\n      pop\n      pop\n      dup2\n      mstore\n      0x20\n      add\n      0x01\n      dup3\n      add\n      dup1\n      sload\n      tag_130\n      swap1\n      tag_107\n      jump\t// in\n    tag_130:\n      dup1\n      0x1f\n      add\n      0x20\n      dup1\n      swap2\n      div\n      mul\n      0x20\n      add\n      mload(0x40)\n      swap1\n      dup2\n      add\n      0x40\n      mstore\n      dup1\n      swap3\n      swap2\n      swap1\n      dup2\n      dup2\n      mstore\n      0x20\n      add\n      dup3\n      dup1\n      sload\n      tag_131\n      swap1\n      tag_107\n      jump\t// in\n    tag_131:\n      dup1\n      iszero\n      tag_132\n      jumpi\n      dup1\n      0x1f\n      lt\n      tag_133\n      jumpi\n      0x0100\n      dup1\n      dup4\n      sload\n      div\n      mul\n      dup4\n      mstore\n      swap2\n      0x20\n      add\n      swap2\n      jump(tag_132)\n    tag_133:\n      dup3\n      add\n      swap2\n      swap1\n      0x00\n      mstore\n      keccak256(0x00, 0x20)\n      swap1\n    tag_134:\n      dup2\n      sload\n      dup2\n      mstore\n      swap1\n      0x01\n      add\n      swap1\n      0x20\n      add\n      dup1\n      dup4\n      gt\n      tag_134\n      jumpi\n      dup3\n      swap1\n      sub\n      0x1f\n      and\n      dup3\n      add\n      swap2\n    tag_132:\n      pop\n      pop\n      pop\n      pop\n      pop\n      dup2\n      mstore\n      0x20\n      add\n      0x02\n      dup3\n      add\n      sload\n      dup2\n      mstore\n      pop\n      pop\n      swap1\n      pop\n        /* \"contracts/Shops.sol\":5893:5901  sellUser */\n      dup3\n        /* \"contracts/Shops.sol\":5893:5911  sellUser.userLogin */\n      0x20\n      add\n      mload\n        /* \"contracts/Shops.sol\":5879:5911  sellerLogin = sellUser.userLogin */\n      swap9\n      pop\n        /* \"contracts/Shops.sol\":5927:5935  sellUser */\n      dup3\n        /* \"contracts/Shops.sol\":5927:5939  sellUser.fio */\n      0x40\n      add\n      mload\n        /* \"contracts/Shops.sol\":5921:5939  fio = sellUser.fio */\n      swap8\n      pop\n        /* \"contracts/Shops.sol\":5956:5964  sellShop */\n      dup1\n        /* \"contracts/Shops.sol\":5956:5969  sellShop.city */\n      0x20\n      add\n      mload\n        /* \"contracts/Shops.sol\":5949:5969  city = sellShop.city */\n      swap7\n      pop\n        /* \"contracts/Shops.sol\":5992:6000  sellShop */\n      dup1\n        /* \"contracts/Shops.sol\":5992:6007  sellShop.number */\n      0x00\n      add\n      mload\n        /* \"contracts/Shops.sol\":5979:6007  shopNumber = sellShop.number */\n      swap6\n      pop\n        /* \"contracts/Shops.sol\":6027:6035  sellUser */\n      dup3\n        /* \"contracts/Shops.sol\":6027:6043  sellUser.reviews */\n      0x60\n      add\n      mload\n        /* \"contracts/Shops.sol\":6017:6043  reviews = sellUser.reviews */\n      swap5\n      pop\n        /* \"contracts/Shops.sol\":5697:6050  {... */\n      pop\n      pop\n      pop\n        /* \"contracts/Shops.sol\":5437:6050  function getSellerInfoByAddr(address sellerAddr) public view isUserStatus(UserRoles.admin)returns(... */\n      pop\n      swap2\n      swap4\n      swap6\n      swap1\n      swap3\n      swap5\n      pop\n      jump\t// out\n        /* \"contracts/Shops.sol\":2621:2808  function registerBank(string memory bankLogin,address bankAddr) public isAdmin {... */\n    tag_34:\n        /* \"contracts/Shops.sol\":1058:1063  admin */\n      0x05\n      0x00\n      swap1\n      sload\n      swap1\n      0x0100\n      exp\n      swap1\n      div\n      0xffffffffffffffffffffffffffffffffffffffff\n      and\n        /* \"contracts/Shops.sol\":1044:1063  msg.sender == admin */\n      0xffffffffffffffffffffffffffffffffffffffff\n      and\n        /* \"contracts/Shops.sol\":1044:1054  msg.sender */\n      caller\n        /* \"contracts/Shops.sol\":1044:1063  msg.sender == admin */\n      0xffffffffffffffffffffffffffffffffffffffff\n      and\n      eq\n        /* \"contracts/Shops.sol\":1036:1080  require(msg.sender == admin,\"You not admin\") */\n      tag_136\n      jumpi\n      mload(0x40)\n      0x08c379a000000000000000000000000000000000000000000000000000000000\n      dup2\n      mstore\n      0x04\n      add\n      tag_137\n      swap1\n      tag_138\n      jump\t// in\n    tag_137:\n      mload(0x40)\n      dup1\n      swap2\n      sub\n      swap1\n      revert\n    tag_136:\n        /* \"contracts/Shops.sol\":2710:2721  uint status */\n      0x00\n        /* \"contracts/Shops.sol\":2729:2743  UserRoles.bank */\n      0x05\n        /* \"contracts/Shops.sol\":2724:2744  uint(UserRoles.bank) */\n      dup1\n      dup2\n      gt\n      iszero\n      tag_140\n      jumpi\n      tag_141\n      tag_101\n      jump\t// in\n    tag_141:\n    tag_140:\n        /* \"contracts/Shops.sol\":2710:2744  uint status = uint(UserRoles.bank) */\n      swap1\n      pop\n        /* \"contracts/Shops.sol\":2754:2801  registerFromAdmin(\"\",bankLogin,status,bankAddr) */\n      tag_142\n      mload(0x40)\n      dup1\n      0x20\n      add\n      0x40\n      mstore\n      dup1\n      0x00\n      dup2\n      mstore\n      pop\n        /* \"contracts/Shops.sol\":2775:2784  bankLogin */\n      dup5\n        /* \"contracts/Shops.sol\":2785:2791  status */\n      dup4\n        /* \"contracts/Shops.sol\":2792:2800  bankAddr */\n      dup6\n        /* \"contracts/Shops.sol\":2754:2771  registerFromAdmin */\n      tag_143\n        /* \"contracts/Shops.sol\":2754:2801  registerFromAdmin(\"\",bankLogin,status,bankAddr) */\n      jump\t// in\n    tag_142:\n        /* \"contracts/Shops.sol\":2700:2808  {... */\n      pop\n        /* \"contracts/Shops.sol\":2621:2808  function registerBank(string memory bankLogin,address bankAddr) public isAdmin {... */\n      pop\n      pop\n      jump\t// out\n        /* \"contracts/Shops.sol\":6056:6510  function createReview(... */\n    tag_38:\n        /* \"contracts/AuthService.sol\":1465:1504  compare(users[msg.sender].userLogin,\"\") */\n      tag_145\n        /* \"contracts/AuthService.sol\":1473:1478  users */\n      0x02\n        /* \"contracts/AuthService.sol\":1473:1490  users[msg.sender] */\n      0x00\n        /* \"contracts/AuthService.sol\":1479:1489  msg.sender */\n      caller\n        /* \"contracts/AuthService.sol\":1473:1490  users[msg.sender] */\n      0xffffffffffffffffffffffffffffffffffffffff\n      and\n      0xffffffffffffffffffffffffffffffffffffffff\n      and\n      dup2\n      mstore\n      0x20\n      add\n      swap1\n      dup2\n      mstore\n      0x20\n      add\n      0x00\n      keccak256\n        /* \"contracts/AuthService.sol\":1473:1500  users[msg.sender].userLogin */\n      0x01\n      add\n        /* \"contracts/AuthService.sol\":1465:1504  compare(users[msg.sender].userLogin,\"\") */\n      dup1\n      sload\n      tag_146\n      swap1\n      tag_107\n      jump\t// in\n    tag_146:\n      dup1\n      0x1f\n      add\n      0x20\n      dup1\n      swap2\n      div\n      mul\n      0x20\n      add\n      mload(0x40)\n      swap1\n      dup2\n      add\n      0x40\n      mstore\n      dup1\n      swap3\n      swap2\n      swap1\n      dup2\n      dup2\n      mstore\n      0x20\n      add\n      dup3\n      dup1\n      sload\n      tag_147\n      swap1\n      tag_107\n      jump\t// in\n    tag_147:\n      dup1\n      iszero\n      tag_148\n      jumpi\n      dup1\n      0x1f\n      lt\n      tag_149\n      jumpi\n      0x0100\n      dup1\n      dup4\n      sload\n      div\n      mul\n      dup4\n      mstore\n      swap2\n      0x20\n      add\n      swap2\n      jump(tag_148)\n    tag_149:\n      dup3\n      add\n      swap2\n      swap1\n      0x00\n      mstore\n      keccak256(0x00, 0x20)\n      swap1\n    tag_150:\n      dup2\n      sload\n      dup2\n      mstore\n      swap1\n      0x01\n      add\n      swap1\n      0x20\n      add\n      dup1\n      dup4\n      gt\n      tag_150\n      jumpi\n      dup3\n      swap1\n      sub\n      0x1f\n      and\n      dup3\n      add\n      swap2\n    tag_148:\n      pop\n      pop\n      pop\n      pop\n      pop\n      mload(0x40)\n      dup1\n      0x20\n      add\n      0x40\n      mstore\n      dup1\n      0x00\n      dup2\n      mstore\n      pop\n        /* \"contracts/AuthService.sol\":1465:1472  compare */\n      tag_151\n        /* \"contracts/AuthService.sol\":1465:1504  compare(users[msg.sender].userLogin,\"\") */\n      jump\t// in\n    tag_145:\n        /* \"contracts/AuthService.sol\":1464:1504  !compare(users[msg.sender].userLogin,\"\") */\n      iszero\n        /* \"contracts/AuthService.sol\":1456:1520  require(!compare(users[msg.sender].userLogin,\"\"),\"You not user\") */\n      tag_152\n      jumpi\n      mload(0x40)\n      0x08c379a000000000000000000000000000000000000000000000000000000000\n      dup2\n      mstore\n      0x04\n      add\n      tag_153\n      swap1\n      tag_154\n      jump\t// in\n    tag_153:\n      mload(0x40)\n      dup1\n      swap2\n      sub\n      swap1\n      revert\n    tag_152:\n        /* \"contracts/Shops.sol\":6214:6240  address[] memory likeCount */\n      0x60\n        /* \"contracts/Shops.sol\":6250:6279  address[] memory disLikeCount */\n      dup1\n        /* \"contracts/Shops.sol\":6289:6313  Review memory userReview */\n      0x00\n        /* \"contracts/Shops.sol\":6316:6384  Review(msg.sender,shopAddr,userMessage,likeCount,disLikeCount,grade) */\n      mload(0x40)\n      dup1\n      0xc0\n      add\n      0x40\n      mstore\n      dup1\n        /* \"contracts/Shops.sol\":6323:6333  msg.sender */\n      caller\n        /* \"contracts/Shops.sol\":6316:6384  Review(msg.sender,shopAddr,userMessage,likeCount,disLikeCount,grade) */\n      0xffffffffffffffffffffffffffffffffffffffff\n      and\n      dup2\n      mstore\n      0x20\n      add\n        /* \"contracts/Shops.sol\":6334:6342  shopAddr */\n      dup9\n        /* \"contracts/Shops.sol\":6316:6384  Review(msg.sender,shopAddr,userMessage,likeCount,disLikeCount,grade) */\n      0xffffffffffffffffffffffffffffffffffffffff\n      and\n      dup2\n      mstore\n      0x20\n      add\n        /* \"contracts/Shops.sol\":6343:6354  userMessage */\n      dup8\n        /* \"contracts/Shops.sol\":6316:6384  Review(msg.sender,shopAddr,userMessage,likeCount,disLikeCount,grade) */\n      dup2\n      mstore\n      0x20\n      add\n        /* \"contracts/Shops.sol\":6355:6364  likeCount */\n      dup5\n        /* \"contracts/Shops.sol\":6316:6384  Review(msg.sender,shopAddr,userMessage,likeCount,disLikeCount,grade) */\n      dup2\n      mstore\n      0x20\n      add\n        /* \"contracts/Shops.sol\":6365:6377  disLikeCount */\n      dup4\n        /* \"contracts/Shops.sol\":6316:6384  Review(msg.sender,shopAddr,userMessage,likeCount,disLikeCount,grade) */\n      dup2\n      mstore\n      0x20\n      add\n        /* \"contracts/Shops.sol\":6378:6383  grade */\n      dup6\n        /* \"contracts/Shops.sol\":6316:6384  Review(msg.sender,shopAddr,userMessage,likeCount,disLikeCount,grade) */\n      dup2\n      mstore\n      pop\n        /* \"contracts/Shops.sol\":6289:6384  Review memory userReview = Review(msg.sender,shopAddr,userMessage,likeCount,disLikeCount,grade) */\n      swap1\n      pop\n        /* \"contracts/Shops.sol\":6394:6405  shopReviews */\n      0x0e\n        /* \"contracts/Shops.sol\":6394:6415  shopReviews[shopAddr] */\n      0x00\n        /* \"contracts/Shops.sol\":6406:6414  shopAddr */\n      dup9\n        /* \"contracts/Shops.sol\":6394:6415  shopReviews[shopAddr] */\n      0xffffffffffffffffffffffffffffffffffffffff\n      and\n      0xffffffffffffffffffffffffffffffffffffffff\n      and\n      dup2\n      mstore\n      0x20\n      add\n      swap1\n      dup2\n      mstore\n      0x20\n      add\n      0x00\n      keccak256\n        /* \"contracts/Shops.sol\":6421:6423  id */\n      dup6\n        /* \"contracts/Shops.sol\":6394:6424  shopReviews[shopAddr].push(id) */\n      swap1\n      dup1\n      0x01\n      dup2\n      sload\n      add\n      dup1\n      dup3\n      sstore\n      dup1\n      swap2\n      pop\n      pop\n      0x01\n      swap1\n      sub\n      swap1\n      0x00\n      mstore\n      keccak256(0x00, 0x20)\n      add\n      0x00\n      swap1\n      swap2\n      swap1\n      swap2\n      swap1\n      swap2\n      pop\n      swap1\n      dup1\n      mload\n      swap1\n      0x20\n      add\n      swap1\n      tag_157\n      swap3\n      swap2\n      swap1\n      tag_158\n      jump\t// in\n    tag_157:\n      pop\n        /* \"contracts/Shops.sol\":6434:6439  users */\n      0x02\n        /* \"contracts/Shops.sol\":6434:6451  users[msg.sender] */\n      0x00\n        /* \"contracts/Shops.sol\":6440:6450  msg.sender */\n      caller\n        /* \"contracts/Shops.sol\":6434:6451  users[msg.sender] */\n      0xffffffffffffffffffffffffffffffffffffffff\n      and\n      0xffffffffffffffffffffffffffffffffffffffff\n      and\n      dup2\n      mstore\n      0x20\n      add\n      swap1\n      dup2\n      mstore\n      0x20\n      add\n      0x00\n      keccak256\n        /* \"contracts/Shops.sol\":6434:6459  users[msg.sender].reviews */\n      0x03\n      add\n        /* \"contracts/Shops.sol\":6465:6467  id */\n      dup6\n        /* \"contracts/Shops.sol\":6434:6468  users[msg.sender].reviews.push(id) */\n      swap1\n      dup1\n      0x01\n      dup2\n      sload\n      add\n      dup1\n      dup3\n      sstore\n      dup1\n      swap2\n      pop\n      pop\n      0x01\n      swap1\n      sub\n      swap1\n      0x00\n      mstore\n      keccak256(0x00, 0x20)\n      add\n      0x00\n      swap1\n      swap2\n      swap1\n      swap2\n      swap1\n      swap2\n      pop\n      swap1\n      dup1\n      mload\n      swap1\n      0x20\n      add\n      swap1\n      tag_160\n      swap3\n      swap2\n      swap1\n      tag_158\n      jump\t// in\n    tag_160:\n      pop\n        /* \"contracts/Shops.sol\":6493:6503  userReview */\n      dup1\n        /* \"contracts/Shops.sol\":6478:6486  reviewId */\n      0x0f\n        /* \"contracts/Shops.sol\":6487:6489  id */\n      dup7\n        /* \"contracts/Shops.sol\":6478:6490  reviewId[id] */\n      mload(0x40)\n      tag_161\n      swap2\n      swap1\n      tag_162\n      jump\t// in\n    tag_161:\n      swap1\n      dup2\n      mstore\n      0x20\n      add\n      mload(0x40)\n      dup1\n      swap2\n      sub\n      swap1\n      keccak256\n        /* \"contracts/Shops.sol\":6478:6503  reviewId[id] = userReview */\n      0x00\n      dup3\n      add\n      mload\n      dup2\n      0x00\n      add\n      exp(0x0100, 0x00)\n      dup2\n      sload\n      dup2\n      0xffffffffffffffffffffffffffffffffffffffff\n      mul\n      not\n      and\n      swap1\n      dup4\n      0xffffffffffffffffffffffffffffffffffffffff\n      and\n      mul\n      or\n      swap1\n      sstore\n      pop\n      0x20\n      dup3\n      add\n      mload\n      dup2\n      0x01\n      add\n      exp(0x0100, 0x00)\n      dup2\n      sload\n      dup2\n      0xffffffffffffffffffffffffffffffffffffffff\n      mul\n      not\n      and\n      swap1\n      dup4\n      0xffffffffffffffffffffffffffffffffffffffff\n      and\n      mul\n      or\n      swap1\n      sstore\n      pop\n      0x40\n      dup3\n      add\n      mload\n      dup2\n      0x02\n      add\n      swap1\n      dup1\n      mload\n      swap1\n      0x20\n      add\n      swap1\n      tag_163\n      swap3\n      swap2\n      swap1\n      tag_158\n      jump\t// in\n    tag_163:\n      pop\n      0x60\n      dup3\n      add\n      mload\n      dup2\n      0x03\n      add\n      swap1\n      dup1\n      mload\n      swap1\n      0x20\n      add\n      swap1\n      tag_164\n      swap3\n      swap2\n      swap1\n      tag_165\n      jump\t// in\n    tag_164:\n      pop\n      0x80\n      dup3\n      add\n      mload\n      dup2\n      0x04\n      add\n      swap1\n      dup1\n      mload\n      swap1\n      0x20\n      add\n      swap1\n      tag_166\n      swap3\n      swap2\n      swap1\n      tag_165\n      jump\t// in\n    tag_166:\n      pop\n      0xa0\n      dup3\n      add\n      mload\n      dup2\n      0x05\n      add\n      sstore\n      swap1\n      pop\n      pop\n        /* \"contracts/Shops.sol\":6204:6510  {... */\n      pop\n      pop\n      pop\n        /* \"contracts/Shops.sol\":6056:6510  function createReview(... */\n      pop\n      pop\n      pop\n      pop\n      jump\t// out\n        /* \"contracts/Shops.sol\":7000:7486  function getReviewById(string memory id) public view returns(... */\n    tag_42:\n        /* \"contracts/Shops.sol\":7070:7087  address autorAddr */\n      0x00\n        /* \"contracts/Shops.sol\":7097:7113  address shopAddr */\n      dup1\n        /* \"contracts/Shops.sol\":7123:7150  string memory reviewMessage */\n      0x60\n        /* \"contracts/Shops.sol\":7160:7174  uint likeCount */\n      0x00\n        /* \"contracts/Shops.sol\":7184:7201  uint disLikeCount */\n      dup1\n        /* \"contracts/Shops.sol\":7211:7220  int grade */\n      0x00\n        /* \"contracts/Shops.sol\":7236:7251  Review memory r */\n      dup1\n        /* \"contracts/Shops.sol\":7254:7262  reviewId */\n      0x0f\n        /* \"contracts/Shops.sol\":7263:7265  id */\n      dup9\n        /* \"contracts/Shops.sol\":7254:7266  reviewId[id] */\n      mload(0x40)\n      tag_168\n      swap2\n      swap1\n      tag_162\n      jump\t// in\n    tag_168:\n      swap1\n      dup2\n      mstore\n      0x20\n      add\n      mload(0x40)\n      dup1\n      swap2\n      sub\n      swap1\n      keccak256\n        /* \"contracts/Shops.sol\":7236:7266  Review memory r = reviewId[id] */\n      mload(0x40)\n      dup1\n      0xc0\n      add\n      0x40\n      mstore\n      swap1\n      dup2\n      0x00\n      dup3\n      add\n      0x00\n      swap1\n      sload\n      swap1\n      0x0100\n      exp\n      swap1\n      div\n      0xffffffffffffffffffffffffffffffffffffffff\n      and\n      0xffffffffffffffffffffffffffffffffffffffff\n      and\n      0xffffffffffffffffffffffffffffffffffffffff\n      and\n      dup2\n      mstore\n      0x20\n      add\n      0x01\n      dup3\n      add\n      0x00\n      swap1\n      sload\n      swap1\n      0x0100\n      exp\n      swap1\n      div\n      0xffffffffffffffffffffffffffffffffffffffff\n      and\n      0xffffffffffffffffffffffffffffffffffffffff\n      and\n      0xffffffffffffffffffffffffffffffffffffffff\n      and\n      dup2\n      mstore\n      0x20\n      add\n      0x02\n      dup3\n      add\n      dup1\n      sload\n      tag_169\n      swap1\n      tag_107\n      jump\t// in\n    tag_169:\n      dup1\n      0x1f\n      add\n      0x20\n      dup1\n      swap2\n      div\n      mul\n      0x20\n      add\n      mload(0x40)\n      swap1\n      dup2\n      add\n      0x40\n      mstore\n      dup1\n      swap3\n      swap2\n      swap1\n      dup2\n      dup2\n      mstore\n      0x20\n      add\n      dup3\n      dup1\n      sload\n      tag_170\n      swap1\n      tag_107\n      jump\t// in\n    tag_170:\n      dup1\n      iszero\n      tag_171\n      jumpi\n      dup1\n      0x1f\n      lt\n      tag_172\n      jumpi\n      0x0100\n      dup1\n      dup4\n      sload\n      div\n      mul\n      dup4\n      mstore\n      swap2\n      0x20\n      add\n      swap2\n      jump(tag_171)\n    tag_172:\n      dup3\n      add\n      swap2\n      swap1\n      0x00\n      mstore\n      keccak256(0x00, 0x20)\n      swap1\n    tag_173:\n      dup2\n      sload\n      dup2\n      mstore\n      swap1\n      0x01\n      add\n      swap1\n      0x20\n      add\n      dup1\n      dup4\n      gt\n      tag_173\n      jumpi\n      dup3\n      swap1\n      sub\n      0x1f\n      and\n      dup3\n      add\n      swap2\n    tag_171:\n      pop\n      pop\n      pop\n      pop\n      pop\n      dup2\n      mstore\n      0x20\n      add\n      0x03\n      dup3\n      add\n      dup1\n      sload\n      dup1\n      0x20\n      mul\n      0x20\n      add\n      mload(0x40)\n      swap1\n      dup2\n      add\n      0x40\n      mstore\n      dup1\n      swap3\n      swap2\n      swap1\n      dup2\n      dup2\n      mstore\n      0x20\n      add\n      dup3\n      dup1\n      sload\n      dup1\n      iszero\n      tag_174\n      jumpi\n      0x20\n      mul\n      dup3\n      add\n      swap2\n      swap1\n      0x00\n      mstore\n      keccak256(0x00, 0x20)\n      swap1\n    tag_175:\n      dup2\n      0x00\n      swap1\n      sload\n      swap1\n      0x0100\n      exp\n      swap1\n      div\n      0xffffffffffffffffffffffffffffffffffffffff\n      and\n      0xffffffffffffffffffffffffffffffffffffffff\n      and\n      dup2\n      mstore\n      0x20\n      add\n      swap1\n      0x01\n      add\n      swap1\n      dup1\n      dup4\n      gt\n      tag_175\n      jumpi\n    tag_174:\n      pop\n      pop\n      pop\n      pop\n      pop\n      dup2\n      mstore\n      0x20\n      add\n      0x04\n      dup3\n      add\n      dup1\n      sload\n      dup1\n      0x20\n      mul\n      0x20\n      add\n      mload(0x40)\n      swap1\n      dup2\n      add\n      0x40\n      mstore\n      dup1\n      swap3\n      swap2\n      swap1\n      dup2\n      dup2\n      mstore\n      0x20\n      add\n      dup3\n      dup1\n      sload\n      dup1\n      iszero\n      tag_176\n      jumpi\n      0x20\n      mul\n      dup3\n      add\n      swap2\n      swap1\n      0x00\n      mstore\n      keccak256(0x00, 0x20)\n      swap1\n    tag_177:\n      dup2\n      0x00\n      swap1\n      sload\n      swap1\n      0x0100\n      exp\n      swap1\n      div\n      0xffffffffffffffffffffffffffffffffffffffff\n      and\n      0xffffffffffffffffffffffffffffffffffffffff\n      and\n      dup2\n      mstore\n      0x20\n      add\n      swap1\n      0x01\n      add\n      swap1\n      dup1\n      dup4\n      gt\n      tag_177\n      jumpi\n    tag_176:\n      pop\n      pop\n      pop\n      pop\n      pop\n      dup2\n      mstore\n      0x20\n      add\n      0x05\n      dup3\n      add\n      sload\n      dup2\n      mstore\n      pop\n      pop\n      swap1\n      pop\n        /* \"contracts/Shops.sol\":7288:7289  r */\n      dup1\n        /* \"contracts/Shops.sol\":7288:7302  r.autorAddress */\n      0x00\n      add\n      mload\n        /* \"contracts/Shops.sol\":7276:7302  autorAddr = r.autorAddress */\n      swap7\n      pop\n        /* \"contracts/Shops.sol\":7323:7324  r */\n      dup1\n        /* \"contracts/Shops.sol\":7323:7333  r.shopAddr */\n      0x20\n      add\n      mload\n        /* \"contracts/Shops.sol\":7312:7333  shopAddr = r.shopAddr */\n      swap6\n      pop\n        /* \"contracts/Shops.sol\":7359:7360  r */\n      dup1\n        /* \"contracts/Shops.sol\":7359:7368  r.message */\n      0x40\n      add\n      mload\n        /* \"contracts/Shops.sol\":7343:7368  reviewMessage = r.message */\n      swap5\n      pop\n        /* \"contracts/Shops.sol\":7390:7391  r */\n      dup1\n        /* \"contracts/Shops.sol\":7390:7401  r.likeCount */\n      0x60\n      add\n      mload\n        /* \"contracts/Shops.sol\":7390:7408  r.likeCount.length */\n      mload\n        /* \"contracts/Shops.sol\":7378:7408  likeCount = r.likeCount.length */\n      swap4\n      pop\n        /* \"contracts/Shops.sol\":7433:7434  r */\n      dup1\n        /* \"contracts/Shops.sol\":7433:7447  r.disLikeCount */\n      0x80\n      add\n      mload\n        /* \"contracts/Shops.sol\":7433:7454  r.disLikeCount.length */\n      mload\n        /* \"contracts/Shops.sol\":7418:7454  disLikeCount = r.disLikeCount.length */\n      swap3\n      pop\n        /* \"contracts/Shops.sol\":7472:7473  r */\n      dup1\n        /* \"contracts/Shops.sol\":7472:7479  r.grade */\n      0xa0\n      add\n      mload\n        /* \"contracts/Shops.sol\":7464:7479  grade = r.grade */\n      swap2\n      pop\n        /* \"contracts/Shops.sol\":7226:7486  {... */\n      pop\n        /* \"contracts/Shops.sol\":7000:7486  function getReviewById(string memory id) public view returns(... */\n      swap2\n      swap4\n      swap6\n      pop\n      swap2\n      swap4\n      swap6\n      jump\t// out\n        /* \"contracts/AuthService.sol\":2256:2556  function login(string memory userLogin) public view isRegistered(userLogin) returns(address userAddress,string memory status){... */\n    tag_47:\n        /* \"contracts/AuthService.sol\":2340:2359  address userAddress */\n      0x00\n        /* \"contracts/AuthService.sol\":2360:2380  string memory status */\n      0x60\n        /* \"contracts/AuthService.sol\":2321:2330  userLogin */\n      dup3\n        /* \"contracts/AuthService.sol\":1388:1389  0 */\n      0x00\n        /* \"contracts/AuthService.sol\":1355:1390  userLogins[userLogin] != address(0) */\n      0xffffffffffffffffffffffffffffffffffffffff\n      and\n        /* \"contracts/AuthService.sol\":1355:1365  userLogins */\n      0x01\n        /* \"contracts/AuthService.sol\":1366:1375  userLogin */\n      dup3\n        /* \"contracts/AuthService.sol\":1355:1376  userLogins[userLogin] */\n      mload(0x40)\n      tag_179\n      swap2\n      swap1\n      tag_162\n      jump\t// in\n    tag_179:\n      swap1\n      dup2\n      mstore\n      0x20\n      add\n      mload(0x40)\n      dup1\n      swap2\n      sub\n      swap1\n      keccak256\n      0x00\n      swap1\n      sload\n      swap1\n      0x0100\n      exp\n      swap1\n      div\n      0xffffffffffffffffffffffffffffffffffffffff\n      and\n        /* \"contracts/AuthService.sol\":1355:1390  userLogins[userLogin] != address(0) */\n      0xffffffffffffffffffffffffffffffffffffffff\n      and\n      eq\n      iszero\n        /* \"contracts/AuthService.sol\":1347:1405  require(userLogins[userLogin] != address(0),\"Wrong Login\") */\n      tag_180\n      jumpi\n      mload(0x40)\n      0x08c379a000000000000000000000000000000000000000000000000000000000\n      dup2\n      mstore\n      0x04\n      add\n      tag_181\n      swap1\n      tag_182\n      jump\t// in\n    tag_181:\n      mload(0x40)\n      dup1\n      swap2\n      sub\n      swap1\n      revert\n    tag_180:\n        /* \"contracts/AuthService.sol\":2391:2407  address userAddr */\n      0x00\n        /* \"contracts/AuthService.sol\":2410:2420  userLogins */\n      0x01\n        /* \"contracts/AuthService.sol\":2421:2430  userLogin */\n      dup6\n        /* \"contracts/AuthService.sol\":2410:2431  userLogins[userLogin] */\n      mload(0x40)\n      tag_184\n      swap2\n      swap1\n      tag_162\n      jump\t// in\n    tag_184:\n      swap1\n      dup2\n      mstore\n      0x20\n      add\n      mload(0x40)\n      dup1\n      swap2\n      sub\n      swap1\n      keccak256\n      0x00\n      swap1\n      sload\n      swap1\n      0x0100\n      exp\n      swap1\n      div\n      0xffffffffffffffffffffffffffffffffffffffff\n      and\n        /* \"contracts/AuthService.sol\":2391:2431  address userAddr = userLogins[userLogin] */\n      swap1\n      pop\n        /* \"contracts/AuthService.sol\":2441:2457  User memory user */\n      0x00\n        /* \"contracts/AuthService.sol\":2460:2465  users */\n      0x02\n        /* \"contracts/AuthService.sol\":2460:2475  users[userAddr] */\n      0x00\n        /* \"contracts/AuthService.sol\":2466:2474  userAddr */\n      dup4\n        /* \"contracts/AuthService.sol\":2460:2475  users[userAddr] */\n      0xffffffffffffffffffffffffffffffffffffffff\n      and\n      0xffffffffffffffffffffffffffffffffffffffff\n      and\n      dup2\n      mstore\n      0x20\n      add\n      swap1\n      dup2\n      mstore\n      0x20\n      add\n      0x00\n      keccak256\n        /* \"contracts/AuthService.sol\":2441:2475  User memory user = users[userAddr] */\n      mload(0x40)\n      dup1\n      0x80\n      add\n      0x40\n      mstore\n      swap1\n      dup2\n      0x00\n      dup3\n      add\n      sload\n      dup2\n      mstore\n      0x20\n      add\n      0x01\n      dup3\n      add\n      dup1\n      sload\n      tag_185\n      swap1\n      tag_107\n      jump\t// in\n    tag_185:\n      dup1\n      0x1f\n      add\n      0x20\n      dup1\n      swap2\n      div\n      mul\n      0x20\n      add\n      mload(0x40)\n      swap1\n      dup2\n      add\n      0x40\n      mstore\n      dup1\n      swap3\n      swap2\n      swap1\n      dup2\n      dup2\n      mstore\n      0x20\n      add\n      dup3\n      dup1\n      sload\n      tag_186\n      swap1\n      tag_107\n      jump\t// in\n    tag_186:\n      dup1\n      iszero\n      tag_187\n      jumpi\n      dup1\n      0x1f\n      lt\n      tag_188\n      jumpi\n      0x0100\n      dup1\n      dup4\n      sload\n      div\n      mul\n      dup4\n      mstore\n      swap2\n      0x20\n      add\n      swap2\n      jump(tag_187)\n    tag_188:\n      dup3\n      add\n      swap2\n      swap1\n      0x00\n      mstore\n      keccak256(0x00, 0x20)\n      swap1\n    tag_189:\n      dup2\n      sload\n      dup2\n      mstore\n      swap1\n      0x01\n      add\n      swap1\n      0x20\n      add\n      dup1\n      dup4\n      gt\n      tag_189\n      jumpi\n      dup3\n      swap1\n      sub\n      0x1f\n      and\n      dup3\n      add\n      swap2\n    tag_187:\n      pop\n      pop\n      pop\n      pop\n      pop\n      dup2\n      mstore\n      0x20\n      add\n      0x02\n      dup3\n      add\n      dup1\n      sload\n      tag_190\n      swap1\n      tag_107\n      jump\t// in\n    tag_190:\n      dup1\n      0x1f\n      add\n      0x20\n      dup1\n      swap2\n      div\n      mul\n      0x20\n      add\n      mload(0x40)\n      swap1\n      dup2\n      add\n      0x40\n      mstore\n      dup1\n      swap3\n      swap2\n      swap1\n      dup2\n      dup2\n      mstore\n      0x20\n      add\n      dup3\n      dup1\n      sload\n      tag_191\n      swap1\n      tag_107\n      jump\t// in\n    tag_191:\n      dup1\n      iszero\n      tag_192\n      jumpi\n      dup1\n      0x1f\n      lt\n      tag_193\n      jumpi\n      0x0100\n      dup1\n      dup4\n      sload\n      div\n      mul\n      dup4\n      mstore\n      swap2\n      0x20\n      add\n      swap2\n      jump(tag_192)\n    tag_193:\n      dup3\n      add\n      swap2\n      swap1\n      0x00\n      mstore\n      keccak256(0x00, 0x20)\n      swap1\n    tag_194:\n      dup2\n      sload\n      dup2\n      mstore\n      swap1\n      0x01\n      add\n      swap1\n      0x20\n      add\n      dup1\n      dup4\n      gt\n      tag_194\n      jumpi\n      dup3\n      swap1\n      sub\n      0x1f\n      and\n      dup3\n      add\n      swap2\n    tag_192:\n      pop\n      pop\n      pop\n      pop\n      pop\n      dup2\n      mstore\n      0x20\n      add\n      0x03\n      dup3\n      add\n      dup1\n      sload\n      dup1\n      0x20\n      mul\n      0x20\n      add\n      mload(0x40)\n      swap1\n      dup2\n      add\n      0x40\n      mstore\n      dup1\n      swap3\n      swap2\n      swap1\n      dup2\n      dup2\n      mstore\n      0x20\n      add\n      0x00\n      swap1\n    tag_195:\n      dup3\n      dup3\n      lt\n      iszero\n      tag_196\n      jumpi\n      dup4\n      dup3\n      swap1\n      0x00\n      mstore\n      keccak256(0x00, 0x20)\n      add\n      dup1\n      sload\n      tag_198\n      swap1\n      tag_107\n      jump\t// in\n    tag_198:\n      dup1\n      0x1f\n      add\n      0x20\n      dup1\n      swap2\n      div\n      mul\n      0x20\n      add\n      mload(0x40)\n      swap1\n      dup2\n      add\n      0x40\n      mstore\n      dup1\n      swap3\n      swap2\n      swap1\n      dup2\n      dup2\n      mstore\n      0x20\n      add\n      dup3\n      dup1\n      sload\n      tag_199\n      swap1\n      tag_107\n      jump\t// in\n    tag_199:\n      dup1\n      iszero\n      tag_200\n      jumpi\n      dup1\n      0x1f\n      lt\n      tag_201\n      jumpi\n      0x0100\n      dup1\n      dup4\n      sload\n      div\n      mul\n      dup4\n      mstore\n      swap2\n      0x20\n      add\n      swap2\n      jump(tag_200)\n    tag_201:\n      dup3\n      add\n      swap2\n      swap1\n      0x00\n      mstore\n      keccak256(0x00, 0x20)\n      swap1\n    tag_202:\n      dup2\n      sload\n      dup2\n      mstore\n      swap1\n      0x01\n      add\n      swap1\n      0x20\n      add\n      dup1\n      dup4\n      gt\n      tag_202\n      jumpi\n      dup3\n      swap1\n      sub\n      0x1f\n      and\n      dup3\n      add\n      swap2\n    tag_200:\n      pop\n      pop\n      pop\n      pop\n      pop\n      dup2\n      mstore\n      0x20\n      add\n      swap1\n      0x01\n      add\n      swap1\n      jump(tag_195)\n    tag_196:\n      pop\n      pop\n      pop\n      pop\n      dup2\n      mstore\n      pop\n      pop\n      swap1\n      pop\n        /* \"contracts/AuthService.sol\":2499:2507  userAddr */\n      dup2\n        /* \"contracts/AuthService.sol\":2485:2507  userAddress = userAddr */\n      swap5\n      pop\n        /* \"contracts/AuthService.sol\":2526:2536  userStatus */\n      0x00\n        /* \"contracts/AuthService.sol\":2526:2549  userStatus[user.status] */\n      dup1\n        /* \"contracts/AuthService.sol\":2537:2541  user */\n      dup3\n        /* \"contracts/AuthService.sol\":2537:2548  user.status */\n      0x00\n      add\n      mload\n        /* \"contracts/AuthService.sol\":2526:2549  userStatus[user.status] */\n      dup2\n      mstore\n      0x20\n      add\n      swap1\n      dup2\n      mstore\n      0x20\n      add\n      0x00\n      keccak256\n        /* \"contracts/AuthService.sol\":2517:2549  status = userStatus[user.status] */\n      dup1\n      sload\n      tag_203\n      swap1\n      tag_107\n      jump\t// in\n    tag_203:\n      dup1\n      0x1f\n      add\n      0x20\n      dup1\n      swap2\n      div\n      mul\n      0x20\n      add\n      mload(0x40)\n      swap1\n      dup2\n      add\n      0x40\n      mstore\n      dup1\n      swap3\n      swap2\n      swap1\n      dup2\n      dup2\n      mstore\n      0x20\n      add\n      dup3\n      dup1\n      sload\n      tag_204\n      swap1\n      tag_107\n      jump\t// in\n    tag_204:\n      dup1\n      iszero\n      tag_205\n      jumpi\n      dup1\n      0x1f\n      lt\n      tag_206\n      jumpi\n      0x0100\n      dup1\n      dup4\n      sload\n      div\n      mul\n      dup4\n      mstore\n      swap2\n      0x20\n      add\n      swap2\n      jump(tag_205)\n    tag_206:\n      dup3\n      add\n      swap2\n      swap1\n      0x00\n      mstore\n      keccak256(0x00, 0x20)\n      swap1\n    tag_207:\n      dup2\n      sload\n      dup2\n      mstore\n      swap1\n      0x01\n      add\n      swap1\n      0x20\n      add\n      dup1\n      dup4\n      gt\n      tag_207\n      jumpi\n      dup3\n      swap1\n      sub\n      0x1f\n      and\n      dup3\n      add\n      swap2\n    tag_205:\n      pop\n      pop\n      pop\n      pop\n      pop\n      swap4\n      pop\n        /* \"contracts/AuthService.sol\":2381:2556  {... */\n      pop\n      pop\n        /* \"contracts/AuthService.sol\":2256:2556  function login(string memory userLogin) public view isRegistered(userLogin) returns(address userAddress,string memory status){... */\n      pop\n      swap2\n      pop\n      swap2\n      jump\t// out\n        /* \"contracts/Shops.sol\":3817:4408  function getSellerInfo() public view isUserStatus(UserRoles.seller) returns(... */\n    tag_51:\n        /* \"contracts/Shops.sol\":3902:3927  string memory sellerLogin */\n      0x60\n        /* \"contracts/Shops.sol\":3937:3954  string memory fio */\n      dup1\n        /* \"contracts/Shops.sol\":3964:3982  string memory city */\n      0x60\n        /* \"contracts/Shops.sol\":3992:4016  string memory shopNumber */\n      dup1\n        /* \"contracts/Shops.sol\":4026:4049  string[] memory reviews */\n      0x60\n        /* \"contracts/Shops.sol\":3867:3883  UserRoles.seller */\n      0x01\n        /* \"contracts/AuthService.sol\":1617:1622  users */\n      0x02\n        /* \"contracts/AuthService.sol\":1617:1634  users[msg.sender] */\n      0x00\n        /* \"contracts/AuthService.sol\":1623:1633  msg.sender */\n      caller\n        /* \"contracts/AuthService.sol\":1617:1634  users[msg.sender] */\n      0xffffffffffffffffffffffffffffffffffffffff\n      and\n      0xffffffffffffffffffffffffffffffffffffffff\n      and\n      dup2\n      mstore\n      0x20\n      add\n      swap1\n      dup2\n      mstore\n      0x20\n      add\n      0x00\n      keccak256\n        /* \"contracts/AuthService.sol\":1617:1641  users[msg.sender].status */\n      0x00\n      add\n      sload\n        /* \"contracts/AuthService.sol\":1606:1612  status */\n      dup2\n        /* \"contracts/AuthService.sol\":1601:1613  uint(status) */\n      0x05\n      dup2\n      gt\n      iszero\n      tag_209\n      jumpi\n      tag_210\n      tag_101\n      jump\t// in\n    tag_210:\n    tag_209:\n        /* \"contracts/AuthService.sol\":1601:1641  uint(status) == users[msg.sender].status */\n      eq\n        /* \"contracts/AuthService.sol\":1593:1654  require(uint(status) == users[msg.sender].status,\"Forbidden\") */\n      tag_211\n      jumpi\n      mload(0x40)\n      0x08c379a000000000000000000000000000000000000000000000000000000000\n      dup2\n      mstore\n      0x04\n      add\n      tag_212\n      swap1\n      tag_104\n      jump\t// in\n    tag_212:\n      mload(0x40)\n      dup1\n      swap2\n      sub\n      swap1\n      revert\n    tag_211:\n        /* \"contracts/Shops.sol\":4065:4085  User memory sellUser */\n      0x00\n        /* \"contracts/Shops.sol\":4088:4093  users */\n      0x02\n        /* \"contracts/Shops.sol\":4088:4105  users[msg.sender] */\n      0x00\n        /* \"contracts/Shops.sol\":4094:4104  msg.sender */\n      caller\n        /* \"contracts/Shops.sol\":4088:4105  users[msg.sender] */\n      0xffffffffffffffffffffffffffffffffffffffff\n      and\n      0xffffffffffffffffffffffffffffffffffffffff\n      and\n      dup2\n      mstore\n      0x20\n      add\n      swap1\n      dup2\n      mstore\n      0x20\n      add\n      0x00\n      keccak256\n        /* \"contracts/Shops.sol\":4065:4105  User memory sellUser = users[msg.sender] */\n      mload(0x40)\n      dup1\n      0x80\n      add\n      0x40\n      mstore\n      swap1\n      dup2\n      0x00\n      dup3\n      add\n      sload\n      dup2\n      mstore\n      0x20\n      add\n      0x01\n      dup3\n      add\n      dup1\n      sload\n      tag_214\n      swap1\n      tag_107\n      jump\t// in\n    tag_214:\n      dup1\n      0x1f\n      add\n      0x20\n      dup1\n      swap2\n      div\n      mul\n      0x20\n      add\n      mload(0x40)\n      swap1\n      dup2\n      add\n      0x40\n      mstore\n      dup1\n      swap3\n      swap2\n      swap1\n      dup2\n      dup2\n      mstore\n      0x20\n      add\n      dup3\n      dup1\n      sload\n      tag_215\n      swap1\n      tag_107\n      jump\t// in\n    tag_215:\n      dup1\n      iszero\n      tag_216\n      jumpi\n      dup1\n      0x1f\n      lt\n      tag_217\n      jumpi\n      0x0100\n      dup1\n      dup4\n      sload\n      div\n      mul\n      dup4\n      mstore\n      swap2\n      0x20\n      add\n      swap2\n      jump(tag_216)\n    tag_217:\n      dup3\n      add\n      swap2\n      swap1\n      0x00\n      mstore\n      keccak256(0x00, 0x20)\n      swap1\n    tag_218:\n      dup2\n      sload\n      dup2\n      mstore\n      swap1\n      0x01\n      add\n      swap1\n      0x20\n      add\n      dup1\n      dup4\n      gt\n      tag_218\n      jumpi\n      dup3\n      swap1\n      sub\n      0x1f\n      and\n      dup3\n      add\n      swap2\n    tag_216:\n      pop\n      pop\n      pop\n      pop\n      pop\n      dup2\n      mstore\n      0x20\n      add\n      0x02\n      dup3\n      add\n      dup1\n      sload\n      tag_219\n      swap1\n      tag_107\n      jump\t// in\n    tag_219:\n      dup1\n      0x1f\n      add\n      0x20\n      dup1\n      swap2\n      div\n      mul\n      0x20\n      add\n      mload(0x40)\n      swap1\n      dup2\n      add\n      0x40\n      mstore\n      dup1\n      swap3\n      swap2\n      swap1\n      dup2\n      dup2\n      mstore\n      0x20\n      add\n      dup3\n      dup1\n      sload\n      tag_220\n      swap1\n      tag_107\n      jump\t// in\n    tag_220:\n      dup1\n      iszero\n      tag_221\n      jumpi\n      dup1\n      0x1f\n      lt\n      tag_222\n      jumpi\n      0x0100\n      dup1\n      dup4\n      sload\n      div\n      mul\n      dup4\n      mstore\n      swap2\n      0x20\n      add\n      swap2\n      jump(tag_221)\n    tag_222:\n      dup3\n      add\n      swap2\n      swap1\n      0x00\n      mstore\n      keccak256(0x00, 0x20)\n      swap1\n    tag_223:\n      dup2\n      sload\n      dup2\n      mstore\n      swap1\n      0x01\n      add\n      swap1\n      0x20\n      add\n      dup1\n      dup4\n      gt\n      tag_223\n      jumpi\n      dup3\n      swap1\n      sub\n      0x1f\n      and\n      dup3\n      add\n      swap2\n    tag_221:\n      pop\n      pop\n      pop\n      pop\n      pop\n      dup2\n      mstore\n      0x20\n      add\n      0x03\n      dup3\n      add\n      dup1\n      sload\n      dup1\n      0x20\n      mul\n      0x20\n      add\n      mload(0x40)\n      swap1\n      dup2\n      add\n      0x40\n      mstore\n      dup1\n      swap3\n      swap2\n      swap1\n      dup2\n      dup2\n      mstore\n      0x20\n      add\n      0x00\n      swap1\n    tag_224:\n      dup3\n      dup3\n      lt\n      iszero\n      tag_225\n      jumpi\n      dup4\n      dup3\n      swap1\n      0x00\n      mstore\n      keccak256(0x00, 0x20)\n      add\n      dup1\n      sload\n      tag_227\n      swap1\n      tag_107\n      jump\t// in\n    tag_227:\n      dup1\n      0x1f\n      add\n      0x20\n      dup1\n      swap2\n      div\n      mul\n      0x20\n      add\n      mload(0x40)\n      swap1\n      dup2\n      add\n      0x40\n      mstore\n      dup1\n      swap3\n      swap2\n      swap1\n      dup2\n      dup2\n      mstore\n      0x20\n      add\n      dup3\n      dup1\n      sload\n      tag_228\n      swap1\n      tag_107\n      jump\t// in\n    tag_228:\n      dup1\n      iszero\n      tag_229\n      jumpi\n      dup1\n      0x1f\n      lt\n      tag_230\n      jumpi\n      0x0100\n      dup1\n      dup4\n      sload\n      div\n      mul\n      dup4\n      mstore\n      swap2\n      0x20\n      add\n      swap2\n      jump(tag_229)\n    tag_230:\n      dup3\n      add\n      swap2\n      swap1\n      0x00\n      mstore\n      keccak256(0x00, 0x20)\n      swap1\n    tag_231:\n      dup2\n      sload\n      dup2\n      mstore\n      swap1\n      0x01\n      add\n      swap1\n      0x20\n      add\n      dup1\n      dup4\n      gt\n      tag_231\n      jumpi\n      dup3\n      swap1\n      sub\n      0x1f\n      and\n      dup3\n      add\n      swap2\n    tag_229:\n      pop\n      pop\n      pop\n      pop\n      pop\n      dup2\n      mstore\n      0x20\n      add\n      swap1\n      0x01\n      add\n      swap1\n      jump(tag_224)\n    tag_225:\n      pop\n      pop\n      pop\n      pop\n      dup2\n      mstore\n      pop\n      pop\n      swap1\n      pop\n        /* \"contracts/Shops.sol\":4115:4135  address sellShopAddr */\n      0x00\n        /* \"contracts/Shops.sol\":4138:4150  salesmanShop */\n      0x0c\n        /* \"contracts/Shops.sol\":4138:4162  salesmanShop[msg.sender] */\n      0x00\n        /* \"contracts/Shops.sol\":4151:4161  msg.sender */\n      caller\n        /* \"contracts/Shops.sol\":4138:4162  salesmanShop[msg.sender] */\n      0xffffffffffffffffffffffffffffffffffffffff\n      and\n      0xffffffffffffffffffffffffffffffffffffffff\n      and\n      dup2\n      mstore\n      0x20\n      add\n      swap1\n      dup2\n      mstore\n      0x20\n      add\n      0x00\n      keccak256\n      0x00\n      swap1\n      sload\n      swap1\n      0x0100\n      exp\n      swap1\n      div\n      0xffffffffffffffffffffffffffffffffffffffff\n      and\n        /* \"contracts/Shops.sol\":4115:4162  address sellShopAddr = salesmanShop[msg.sender] */\n      swap1\n      pop\n        /* \"contracts/Shops.sol\":4172:4192  Shop memory sellShop */\n      0x00\n        /* \"contracts/Shops.sol\":4195:4204  ShopsList */\n      0x0b\n        /* \"contracts/Shops.sol\":4195:4218  ShopsList[sellShopAddr] */\n      0x00\n        /* \"contracts/Shops.sol\":4205:4217  sellShopAddr */\n      dup4\n        /* \"contracts/Shops.sol\":4195:4218  ShopsList[sellShopAddr] */\n      0xffffffffffffffffffffffffffffffffffffffff\n      and\n      0xffffffffffffffffffffffffffffffffffffffff\n      and\n      dup2\n      mstore\n      0x20\n      add\n      swap1\n      dup2\n      mstore\n      0x20\n      add\n      0x00\n      keccak256\n        /* \"contracts/Shops.sol\":4172:4218  Shop memory sellShop = ShopsList[sellShopAddr] */\n      mload(0x40)\n      dup1\n      0x60\n      add\n      0x40\n      mstore\n      swap1\n      dup2\n      0x00\n      dup3\n      add\n      dup1\n      sload\n      tag_232\n      swap1\n      tag_107\n      jump\t// in\n    tag_232:\n      dup1\n      0x1f\n      add\n      0x20\n      dup1\n      swap2\n      div\n      mul\n      0x20\n      add\n      mload(0x40)\n      swap1\n      dup2\n      add\n      0x40\n      mstore\n      dup1\n      swap3\n      swap2\n      swap1\n      dup2\n      dup2\n      mstore\n      0x20\n      add\n      dup3\n      dup1\n      sload\n      tag_233\n      swap1\n      tag_107\n      jump\t// in\n    tag_233:\n      dup1\n      iszero\n      tag_234\n      jumpi\n      dup1\n      0x1f\n      lt\n      tag_235\n      jumpi\n      0x0100\n      dup1\n      dup4\n      sload\n      div\n      mul\n      dup4\n      mstore\n      swap2\n      0x20\n      add\n      swap2\n      jump(tag_234)\n    tag_235:\n      dup3\n      add\n      swap2\n      swap1\n      0x00\n      mstore\n      keccak256(0x00, 0x20)\n      swap1\n    tag_236:\n      dup2\n      sload\n      dup2\n      mstore\n      swap1\n      0x01\n      add\n      swap1\n      0x20\n      add\n      dup1\n      dup4\n      gt\n      tag_236\n      jumpi\n      dup3\n      swap1\n      sub\n      0x1f\n      and\n      dup3\n      add\n      swap2\n    tag_234:\n      pop\n      pop\n      pop\n      pop\n      pop\n      dup2\n      mstore\n      0x20\n      add\n      0x01\n      dup3\n      add\n      dup1\n      sload\n      tag_237\n      swap1\n      tag_107\n      jump\t// in\n    tag_237:\n      dup1\n      0x1f\n      add\n      0x20\n      dup1\n      swap2\n      div\n      mul\n      0x20\n      add\n      mload(0x40)\n      swap1\n      dup2\n      add\n      0x40\n      mstore\n      dup1\n      swap3\n      swap2\n      swap1\n      dup2\n      dup2\n      mstore\n      0x20\n      add\n      dup3\n      dup1\n      sload\n      tag_238\n      swap1\n      tag_107\n      jump\t// in\n    tag_238:\n      dup1\n      iszero\n      tag_239\n      jumpi\n      dup1\n      0x1f\n      lt\n      tag_240\n      jumpi\n      0x0100\n      dup1\n      dup4\n      sload\n      div\n      mul\n      dup4\n      mstore\n      swap2\n      0x20\n      add\n      swap2\n      jump(tag_239)\n    tag_240:\n      dup3\n      add\n      swap2\n      swap1\n      0x00\n      mstore\n      keccak256(0x00, 0x20)\n      swap1\n    tag_241:\n      dup2\n      sload\n      dup2\n      mstore\n      swap1\n      0x01\n      add\n      swap1\n      0x20\n      add\n      dup1\n      dup4\n      gt\n      tag_241\n      jumpi\n      dup3\n      swap1\n      sub\n      0x1f\n      and\n      dup3\n      add\n      swap2\n    tag_239:\n      pop\n      pop\n      pop\n      pop\n      pop\n      dup2\n      mstore\n      0x20\n      add\n      0x02\n      dup3\n      add\n      sload\n      dup2\n      mstore\n      pop\n      pop\n      swap1\n      pop\n        /* \"contracts/Shops.sol\":4251:4259  sellUser */\n      dup3\n        /* \"contracts/Shops.sol\":4251:4269  sellUser.userLogin */\n      0x20\n      add\n      mload\n        /* \"contracts/Shops.sol\":4237:4269  sellerLogin = sellUser.userLogin */\n      swap9\n      pop\n        /* \"contracts/Shops.sol\":4285:4293  sellUser */\n      dup3\n        /* \"contracts/Shops.sol\":4285:4297  sellUser.fio */\n      0x40\n      add\n      mload\n        /* \"contracts/Shops.sol\":4279:4297  fio = sellUser.fio */\n      swap8\n      pop\n        /* \"contracts/Shops.sol\":4314:4322  sellShop */\n      dup1\n        /* \"contracts/Shops.sol\":4314:4327  sellShop.city */\n      0x20\n      add\n      mload\n        /* \"contracts/Shops.sol\":4307:4327  city = sellShop.city */\n      swap7\n      pop\n        /* \"contracts/Shops.sol\":4350:4358  sellShop */\n      dup1\n        /* \"contracts/Shops.sol\":4350:4365  sellShop.number */\n      0x00\n      add\n      mload\n        /* \"contracts/Shops.sol\":4337:4365  shopNumber = sellShop.number */\n      swap6\n      pop\n        /* \"contracts/Shops.sol\":4385:4393  sellUser */\n      dup3\n        /* \"contracts/Shops.sol\":4385:4401  sellUser.reviews */\n      0x60\n      add\n      mload\n        /* \"contracts/Shops.sol\":4375:4401  reviews = sellUser.reviews */\n      swap5\n      pop\n        /* \"contracts/Shops.sol\":4055:4408  {... */\n      pop\n      pop\n      pop\n        /* \"contracts/Shops.sol\":3817:4408  function getSellerInfo() public view isUserStatus(UserRoles.seller) returns(... */\n      pop\n      swap1\n      swap2\n      swap3\n      swap4\n      swap5\n      jump\t// out\n        /* \"contracts/Shops.sol\":1851:2202  function registerShop(address shopAddr,string memory number,string memory city,string memory shopLogin) public isUserStatus(UserRoles.admin){... */\n    tag_56:\n        /* \"contracts/Shops.sol\":1975:1990  UserRoles.admin */\n      0x03\n        /* \"contracts/AuthService.sol\":1617:1622  users */\n      0x02\n        /* \"contracts/AuthService.sol\":1617:1634  users[msg.sender] */\n      0x00\n        /* \"contracts/AuthService.sol\":1623:1633  msg.sender */\n      caller\n        /* \"contracts/AuthService.sol\":1617:1634  users[msg.sender] */\n      0xffffffffffffffffffffffffffffffffffffffff\n      and\n      0xffffffffffffffffffffffffffffffffffffffff\n      and\n      dup2\n      mstore\n      0x20\n      add\n      swap1\n      dup2\n      mstore\n      0x20\n      add\n      0x00\n      keccak256\n        /* \"contracts/AuthService.sol\":1617:1641  users[msg.sender].status */\n      0x00\n      add\n      sload\n        /* \"contracts/AuthService.sol\":1606:1612  status */\n      dup2\n        /* \"contracts/AuthService.sol\":1601:1613  uint(status) */\n      0x05\n      dup2\n      gt\n      iszero\n      tag_243\n      jumpi\n      tag_244\n      tag_101\n      jump\t// in\n    tag_244:\n    tag_243:\n        /* \"contracts/AuthService.sol\":1601:1641  uint(status) == users[msg.sender].status */\n      eq\n        /* \"contracts/AuthService.sol\":1593:1654  require(uint(status) == users[msg.sender].status,\"Forbidden\") */\n      tag_245\n      jumpi\n      mload(0x40)\n      0x08c379a000000000000000000000000000000000000000000000000000000000\n      dup2\n      mstore\n      0x04\n      add\n      tag_246\n      swap1\n      tag_104\n      jump\t// in\n    tag_246:\n      mload(0x40)\n      dup1\n      swap2\n      sub\n      swap1\n      revert\n    tag_245:\n        /* \"contracts/Shops.sol\":2001:2017  Shop memory shop */\n      0x00\n        /* \"contracts/Shops.sol\":2020:2058  Shop({number:number,city:city,debt:0}) */\n      mload(0x40)\n      dup1\n      0x60\n      add\n      0x40\n      mstore\n      dup1\n        /* \"contracts/Shops.sol\":2033:2039  number */\n      dup7\n        /* \"contracts/Shops.sol\":2020:2058  Shop({number:number,city:city,debt:0}) */\n      dup2\n      mstore\n      0x20\n      add\n        /* \"contracts/Shops.sol\":2045:2049  city */\n      dup6\n        /* \"contracts/Shops.sol\":2020:2058  Shop({number:number,city:city,debt:0}) */\n      dup2\n      mstore\n      0x20\n      add\n        /* \"contracts/Shops.sol\":2055:2056  0 */\n      0x00\n        /* \"contracts/Shops.sol\":2020:2058  Shop({number:number,city:city,debt:0}) */\n      dup2\n      mstore\n      pop\n        /* \"contracts/Shops.sol\":2001:2058  Shop memory shop = Shop({number:number,city:city,debt:0}) */\n      swap1\n      pop\n        /* \"contracts/Shops.sol\":2090:2094  shop */\n      dup1\n        /* \"contracts/Shops.sol\":2068:2077  ShopsList */\n      0x0b\n        /* \"contracts/Shops.sol\":2068:2087  ShopsList[shopAddr] */\n      0x00\n        /* \"contracts/Shops.sol\":2078:2086  shopAddr */\n      dup9\n        /* \"contracts/Shops.sol\":2068:2087  ShopsList[shopAddr] */\n      0xffffffffffffffffffffffffffffffffffffffff\n      and\n      0xffffffffffffffffffffffffffffffffffffffff\n      and\n      dup2\n      mstore\n      0x20\n      add\n      swap1\n      dup2\n      mstore\n      0x20\n      add\n      0x00\n      keccak256\n        /* \"contracts/Shops.sol\":2068:2094  ShopsList[shopAddr] = shop */\n      0x00\n      dup3\n      add\n      mload\n      dup2\n      0x00\n      add\n      swap1\n      dup1\n      mload\n      swap1\n      0x20\n      add\n      swap1\n      tag_248\n      swap3\n      swap2\n      swap1\n      tag_158\n      jump\t// in\n    tag_248:\n      pop\n      0x20\n      dup3\n      add\n      mload\n      dup2\n      0x01\n      add\n      swap1\n      dup1\n      mload\n      swap1\n      0x20\n      add\n      swap1\n      tag_249\n      swap3\n      swap2\n      swap1\n      tag_158\n      jump\t// in\n    tag_249:\n      pop\n      0x40\n      dup3\n      add\n      mload\n      dup2\n      0x02\n      add\n      sstore\n      swap1\n      pop\n      pop\n        /* \"contracts/Shops.sol\":2104:2115  uint status */\n      0x00\n        /* \"contracts/Shops.sol\":2123:2137  UserRoles.shop */\n      0x02\n        /* \"contracts/Shops.sol\":2118:2138  uint(UserRoles.shop) */\n      0x05\n      dup2\n      gt\n      iszero\n      tag_250\n      jumpi\n      tag_251\n      tag_101\n      jump\t// in\n    tag_251:\n    tag_250:\n        /* \"contracts/Shops.sol\":2104:2138  uint status = uint(UserRoles.shop) */\n      swap1\n      pop\n        /* \"contracts/Shops.sol\":2148:2195  registerFromAdmin(\"\",shopLogin,status,shopAddr) */\n      tag_252\n      mload(0x40)\n      dup1\n      0x20\n      add\n      0x40\n      mstore\n      dup1\n      0x00\n      dup2\n      mstore\n      pop\n        /* \"contracts/Shops.sol\":2169:2178  shopLogin */\n      dup6\n        /* \"contracts/Shops.sol\":2179:2185  status */\n      dup4\n        /* \"contracts/Shops.sol\":2186:2194  shopAddr */\n      dup11\n        /* \"contracts/Shops.sol\":2148:2165  registerFromAdmin */\n      tag_143\n        /* \"contracts/Shops.sol\":2148:2195  registerFromAdmin(\"\",shopLogin,status,shopAddr) */\n      jump\t// in\n    tag_252:\n        /* \"contracts/Shops.sol\":1991:2202  {... */\n      pop\n      pop\n        /* \"contracts/Shops.sol\":1851:2202  function registerShop(address shopAddr,string memory number,string memory city,string memory shopLogin) public isUserStatus(UserRoles.admin){... */\n      pop\n      pop\n      pop\n      pop\n      pop\n      jump\t// out\n        /* \"contracts/Shops.sol\":6516:6749  function likeReview(string memory id) public isUser {... */\n    tag_59:\n        /* \"contracts/AuthService.sol\":1465:1504  compare(users[msg.sender].userLogin,\"\") */\n      tag_254\n        /* \"contracts/AuthService.sol\":1473:1478  users */\n      0x02\n        /* \"contracts/AuthService.sol\":1473:1490  users[msg.sender] */\n      0x00\n        /* \"contracts/AuthService.sol\":1479:1489  msg.sender */\n      caller\n        /* \"contracts/AuthService.sol\":1473:1490  users[msg.sender] */\n      0xffffffffffffffffffffffffffffffffffffffff\n      and\n      0xffffffffffffffffffffffffffffffffffffffff\n      and\n      dup2\n      mstore\n      0x20\n      add\n      swap1\n      dup2\n      mstore\n      0x20\n      add\n      0x00\n      keccak256\n        /* \"contracts/AuthService.sol\":1473:1500  users[msg.sender].userLogin */\n      0x01\n      add\n        /* \"contracts/AuthService.sol\":1465:1504  compare(users[msg.sender].userLogin,\"\") */\n      dup1\n      sload\n      tag_255\n      swap1\n      tag_107\n      jump\t// in\n    tag_255:\n      dup1\n      0x1f\n      add\n      0x20\n      dup1\n      swap2\n      div\n      mul\n      0x20\n      add\n      mload(0x40)\n      swap1\n      dup2\n      add\n      0x40\n      mstore\n      dup1\n      swap3\n      swap2\n      swap1\n      dup2\n      dup2\n      mstore\n      0x20\n      add\n      dup3\n      dup1\n      sload\n      tag_256\n      swap1\n      tag_107\n      jump\t// in\n    tag_256:\n      dup1\n      iszero\n      tag_257\n      jumpi\n      dup1\n      0x1f\n      lt\n      tag_258\n      jumpi\n      0x0100\n      dup1\n      dup4\n      sload\n      div\n      mul\n      dup4\n      mstore\n      swap2\n      0x20\n      add\n      swap2\n      jump(tag_257)\n    tag_258:\n      dup3\n      add\n      swap2\n      swap1\n      0x00\n      mstore\n      keccak256(0x00, 0x20)\n      swap1\n    tag_259:\n      dup2\n      sload\n      dup2\n      mstore\n      swap1\n      0x01\n      add\n      swap1\n      0x20\n      add\n      dup1\n      dup4\n      gt\n      tag_259\n      jumpi\n      dup3\n      swap1\n      sub\n      0x1f\n      and\n      dup3\n      add\n      swap2\n    tag_257:\n      pop\n      pop\n      pop\n      pop\n      pop\n      mload(0x40)\n      dup1\n      0x20\n      add\n      0x40\n      mstore\n      dup1\n      0x00\n      dup2\n      mstore\n      pop\n        /* \"contracts/AuthService.sol\":1465:1472  compare */\n      tag_151\n        /* \"contracts/AuthService.sol\":1465:1504  compare(users[msg.sender].userLogin,\"\") */\n      jump\t// in\n    tag_254:\n        /* \"contracts/AuthService.sol\":1464:1504  !compare(users[msg.sender].userLogin,\"\") */\n      iszero\n        /* \"contracts/AuthService.sol\":1456:1520  require(!compare(users[msg.sender].userLogin,\"\"),\"You not user\") */\n      tag_260\n      jumpi\n      mload(0x40)\n      0x08c379a000000000000000000000000000000000000000000000000000000000\n      dup2\n      mstore\n      0x04\n      add\n      tag_261\n      swap1\n      tag_154\n      jump\t// in\n    tag_261:\n      mload(0x40)\n      dup1\n      swap2\n      sub\n      swap1\n      revert\n    tag_260:\n        /* \"contracts/Shops.sol\":6615:6620  false */\n      0x00\n        /* \"contracts/Shops.sol\":6586:6620  reviewCom[id][msg.sender] == false */\n      iszero\n      iszero\n        /* \"contracts/Shops.sol\":6586:6595  reviewCom */\n      0x10\n        /* \"contracts/Shops.sol\":6596:6598  id */\n      dup3\n        /* \"contracts/Shops.sol\":6586:6599  reviewCom[id] */\n      mload(0x40)\n      tag_263\n      swap2\n      swap1\n      tag_162\n      jump\t// in\n    tag_263:\n      swap1\n      dup2\n      mstore\n      0x20\n      add\n      mload(0x40)\n      dup1\n      swap2\n      sub\n      swap1\n      keccak256\n        /* \"contracts/Shops.sol\":6586:6611  reviewCom[id][msg.sender] */\n      0x00\n        /* \"contracts/Shops.sol\":6600:6610  msg.sender */\n      caller\n        /* \"contracts/Shops.sol\":6586:6611  reviewCom[id][msg.sender] */\n      0xffffffffffffffffffffffffffffffffffffffff\n      and\n      0xffffffffffffffffffffffffffffffffffffffff\n      and\n      dup2\n      mstore\n      0x20\n      add\n      swap1\n      dup2\n      mstore\n      0x20\n      add\n      0x00\n      keccak256\n      0x00\n      swap1\n      sload\n      swap1\n      0x0100\n      exp\n      swap1\n      div\n      0xff\n      and\n        /* \"contracts/Shops.sol\":6586:6620  reviewCom[id][msg.sender] == false */\n      iszero\n      iszero\n      eq\n        /* \"contracts/Shops.sol\":6578:6651  require(reviewCom[id][msg.sender] == false,\"You already check this case\") */\n      tag_264\n      jumpi\n      mload(0x40)\n      0x08c379a000000000000000000000000000000000000000000000000000000000\n      dup2\n      mstore\n      0x04\n      add\n      tag_265\n      swap1\n      tag_266\n      jump\t// in\n    tag_265:\n      mload(0x40)\n      dup1\n      swap2\n      sub\n      swap1\n      revert\n    tag_264:\n        /* \"contracts/Shops.sol\":6661:6669  reviewId */\n      0x0f\n        /* \"contracts/Shops.sol\":6670:6672  id */\n      dup2\n        /* \"contracts/Shops.sol\":6661:6673  reviewId[id] */\n      mload(0x40)\n      tag_267\n      swap2\n      swap1\n      tag_162\n      jump\t// in\n    tag_267:\n      swap1\n      dup2\n      mstore\n      0x20\n      add\n      mload(0x40)\n      dup1\n      swap2\n      sub\n      swap1\n      keccak256\n        /* \"contracts/Shops.sol\":6661:6683  reviewId[id].likeCount */\n      0x03\n      add\n        /* \"contracts/Shops.sol\":6689:6699  msg.sender */\n      caller\n        /* \"contracts/Shops.sol\":6661:6700  reviewId[id].likeCount.push(msg.sender) */\n      swap1\n      dup1\n      0x01\n      dup2\n      sload\n      add\n      dup1\n      dup3\n      sstore\n      dup1\n      swap2\n      pop\n      pop\n      0x01\n      swap1\n      sub\n      swap1\n      0x00\n      mstore\n      keccak256(0x00, 0x20)\n      add\n      0x00\n      swap1\n      swap2\n      swap1\n      swap2\n      swap1\n      swap2\n      0x0100\n      exp\n      dup2\n      sload\n      dup2\n      0xffffffffffffffffffffffffffffffffffffffff\n      mul\n      not\n      and\n      swap1\n      dup4\n      0xffffffffffffffffffffffffffffffffffffffff\n      and\n      mul\n      or\n      swap1\n      sstore\n      pop\n        /* \"contracts/Shops.sol\":6738:6742  true */\n      0x01\n        /* \"contracts/Shops.sol\":6710:6719  reviewCom */\n      0x10\n        /* \"contracts/Shops.sol\":6720:6722  id */\n      dup3\n        /* \"contracts/Shops.sol\":6710:6723  reviewCom[id] */\n      mload(0x40)\n      tag_269\n      swap2\n      swap1\n      tag_162\n      jump\t// in\n    tag_269:\n      swap1\n      dup2\n      mstore\n      0x20\n      add\n      mload(0x40)\n      dup1\n      swap2\n      sub\n      swap1\n      keccak256\n        /* \"contracts/Shops.sol\":6710:6735  reviewCom[id][msg.sender] */\n      0x00\n        /* \"contracts/Shops.sol\":6724:6734  msg.sender */\n      caller\n        /* \"contracts/Shops.sol\":6710:6735  reviewCom[id][msg.sender] */\n      0xffffffffffffffffffffffffffffffffffffffff\n      and\n      0xffffffffffffffffffffffffffffffffffffffff\n      and\n      dup2\n      mstore\n      0x20\n      add\n      swap1\n      dup2\n      mstore\n      0x20\n      add\n      0x00\n      keccak256\n      0x00\n        /* \"contracts/Shops.sol\":6710:6742  reviewCom[id][msg.sender] = true */\n      0x0100\n      exp\n      dup2\n      sload\n      dup2\n      0xff\n      mul\n      not\n      and\n      swap1\n      dup4\n      iszero\n      iszero\n      mul\n      or\n      swap1\n      sstore\n      pop\n        /* \"contracts/Shops.sol\":6516:6749  function likeReview(string memory id) public isUser {... */\n      pop\n      jump\t// out\n        /* \"contracts/Shops.sol\":2302:2546  function registerProvider(string memory providerLogin,address providerAddr) public isAdmin {... */\n    tag_62:\n        /* \"contracts/Shops.sol\":1058:1063  admin */\n      0x05\n      0x00\n      swap1\n      sload\n      swap1\n      0x0100\n      exp\n      swap1\n      div\n      0xffffffffffffffffffffffffffffffffffffffff\n      and\n        /* \"contracts/Shops.sol\":1044:1063  msg.sender == admin */\n      0xffffffffffffffffffffffffffffffffffffffff\n      and\n        /* \"contracts/Shops.sol\":1044:1054  msg.sender */\n      caller\n        /* \"contracts/Shops.sol\":1044:1063  msg.sender == admin */\n      0xffffffffffffffffffffffffffffffffffffffff\n      and\n      eq\n        /* \"contracts/Shops.sol\":1036:1080  require(msg.sender == admin,\"You not admin\") */\n      tag_271\n      jumpi\n      mload(0x40)\n      0x08c379a000000000000000000000000000000000000000000000000000000000\n      dup2\n      mstore\n      0x04\n      add\n      tag_272\n      swap1\n      tag_138\n      jump\t// in\n    tag_272:\n      mload(0x40)\n      dup1\n      swap2\n      sub\n      swap1\n      revert\n    tag_271:\n        /* \"contracts/Shops.sol\":2403:2414  uint status */\n      0x00\n        /* \"contracts/Shops.sol\":2422:2440  UserRoles.provider */\n      0x04\n        /* \"contracts/Shops.sol\":2417:2441  uint(UserRoles.provider) */\n      0x05\n      dup2\n      gt\n      iszero\n      tag_274\n      jumpi\n      tag_275\n      tag_101\n      jump\t// in\n    tag_275:\n    tag_274:\n        /* \"contracts/Shops.sol\":2403:2441  uint status = uint(UserRoles.provider) */\n      swap1\n      pop\n        /* \"contracts/Shops.sol\":2451:2506  registerFromAdmin(\"\",providerLogin,status,providerAddr) */\n      tag_276\n      mload(0x40)\n      dup1\n      0x20\n      add\n      0x40\n      mstore\n      dup1\n      0x00\n      dup2\n      mstore\n      pop\n        /* \"contracts/Shops.sol\":2472:2485  providerLogin */\n      dup5\n        /* \"contracts/Shops.sol\":2486:2492  status */\n      dup4\n        /* \"contracts/Shops.sol\":2493:2505  providerAddr */\n      dup6\n        /* \"contracts/Shops.sol\":2451:2468  registerFromAdmin */\n      tag_143\n        /* \"contracts/Shops.sol\":2451:2506  registerFromAdmin(\"\",providerLogin,status,providerAddr) */\n      jump\t// in\n    tag_276:\n        /* \"contracts/Shops.sol\":2527:2539  providerAddr */\n      dup2\n        /* \"contracts/Shops.sol\":2516:2524  provider */\n      0x04\n      0x00\n        /* \"contracts/Shops.sol\":2516:2539  provider = providerAddr */\n      0x0100\n      exp\n      dup2\n      sload\n      dup2\n      0xffffffffffffffffffffffffffffffffffffffff\n      mul\n      not\n      and\n      swap1\n      dup4\n      0xffffffffffffffffffffffffffffffffffffffff\n      and\n      mul\n      or\n      swap1\n      sstore\n      pop\n        /* \"contracts/Shops.sol\":2393:2546  {... */\n      pop\n        /* \"contracts/Shops.sol\":2302:2546  function registerProvider(string memory providerLogin,address providerAddr) public isAdmin {... */\n      pop\n      pop\n      jump\t// out\n        /* \"contracts/Shops.sol\":3538:3741  function doShopDebt(address payable shopAddr) public isUserStatus(UserRoles.bank) {... */\n    tag_66:\n        /* \"contracts/Shops.sol\":3604:3618  UserRoles.bank */\n      0x05\n        /* \"contracts/AuthService.sol\":1617:1622  users */\n      0x02\n        /* \"contracts/AuthService.sol\":1617:1634  users[msg.sender] */\n      0x00\n        /* \"contracts/AuthService.sol\":1623:1633  msg.sender */\n      caller\n        /* \"contracts/AuthService.sol\":1617:1634  users[msg.sender] */\n      0xffffffffffffffffffffffffffffffffffffffff\n      and\n      0xffffffffffffffffffffffffffffffffffffffff\n      and\n      dup2\n      mstore\n      0x20\n      add\n      swap1\n      dup2\n      mstore\n      0x20\n      add\n      0x00\n      keccak256\n        /* \"contracts/AuthService.sol\":1617:1641  users[msg.sender].status */\n      0x00\n      add\n      sload\n        /* \"contracts/AuthService.sol\":1606:1612  status */\n      dup2\n        /* \"contracts/AuthService.sol\":1601:1613  uint(status) */\n      0x05\n      dup2\n      gt\n      iszero\n      tag_278\n      jumpi\n      tag_279\n      tag_101\n      jump\t// in\n    tag_279:\n    tag_278:\n        /* \"contracts/AuthService.sol\":1601:1641  uint(status) == users[msg.sender].status */\n      eq\n        /* \"contracts/AuthService.sol\":1593:1654  require(uint(status) == users[msg.sender].status,\"Forbidden\") */\n      tag_280\n      jumpi\n      mload(0x40)\n      0x08c379a000000000000000000000000000000000000000000000000000000000\n      dup2\n      mstore\n      0x04\n      add\n      tag_281\n      swap1\n      tag_104\n      jump\t// in\n    tag_281:\n      mload(0x40)\n      dup1\n      swap2\n      sub\n      swap1\n      revert\n    tag_280:\n        /* \"contracts/Shops.sol\":3669:3679  1000 ether */\n      0x3635c9adc5dea00000\n        /* \"contracts/Shops.sol\":3646:3656  msg.sender */\n      caller\n        /* \"contracts/Shops.sol\":3638:3665  payable(msg.sender).balance */\n      0xffffffffffffffffffffffffffffffffffffffff\n      and\n      balance\n        /* \"contracts/Shops.sol\":3638:3679  payable(msg.sender).balance >= 1000 ether */\n      lt\n      iszero\n        /* \"contracts/Shops.sol\":3630:3694  require(payable(msg.sender).balance >= 1000 ether,\"Low balance\") */\n      tag_283\n      jumpi\n      mload(0x40)\n      0x08c379a000000000000000000000000000000000000000000000000000000000\n      dup2\n      mstore\n      0x04\n      add\n      tag_284\n      swap1\n      tag_285\n      jump\t// in\n    tag_284:\n      mload(0x40)\n      dup1\n      swap2\n      sub\n      swap1\n      revert\n    tag_283:\n        /* \"contracts/Shops.sol\":3704:3712  shopAddr */\n      dup2\n        /* \"contracts/Shops.sol\":3704:3721  shopAddr.transfer */\n      0xffffffffffffffffffffffffffffffffffffffff\n      and\n        /* \"contracts/Shops.sol\":3704:3733  shopAddr.transfer(1000 ether) */\n      0x08fc\n        /* \"contracts/Shops.sol\":3722:3732  1000 ether */\n      0x3635c9adc5dea00000\n        /* \"contracts/Shops.sol\":3704:3733  shopAddr.transfer(1000 ether) */\n      swap1\n      dup2\n      iszero\n      mul\n      swap1\n      mload(0x40)\n      0x00\n      mload(0x40)\n      dup1\n      dup4\n      sub\n      dup2\n      dup6\n      dup9\n      dup9\n      call\n      swap4\n      pop\n      pop\n      pop\n      pop\n      iszero\n      dup1\n      iszero\n      tag_287\n      jumpi\n      returndatasize\n      0x00\n      dup1\n      returndatacopy\n      revert(0x00, returndatasize)\n    tag_287:\n      pop\n        /* \"contracts/Shops.sol\":3538:3741  function doShopDebt(address payable shopAddr) public isUserStatus(UserRoles.bank) {... */\n      pop\n      pop\n      jump\t// out\n        /* \"contracts/Shops.sol\":2871:3177  function registerSeller(string memory fio,string memory userLogin,address userAddress,address shopAddr) public {... */\n    tag_70:\n        /* \"contracts/Shops.sol\":2992:3003  uint status */\n      0x00\n        /* \"contracts/Shops.sol\":3011:3027  UserRoles.seller */\n      0x01\n        /* \"contracts/Shops.sol\":3006:3028  uint(UserRoles.seller) */\n      0x05\n      dup2\n      gt\n      iszero\n      tag_289\n      jumpi\n      tag_290\n      tag_101\n      jump\t// in\n    tag_290:\n    tag_289:\n        /* \"contracts/Shops.sol\":2992:3028  uint status = uint(UserRoles.seller) */\n      swap1\n      pop\n        /* \"contracts/Shops.sol\":3038:3089  registerFromAdmin(fio,userLogin,status,userAddress) */\n      tag_291\n        /* \"contracts/Shops.sol\":3056:3059  fio */\n      dup6\n        /* \"contracts/Shops.sol\":3060:3069  userLogin */\n      dup6\n        /* \"contracts/Shops.sol\":3070:3076  status */\n      dup4\n        /* \"contracts/Shops.sol\":3077:3088  userAddress */\n      dup7\n        /* \"contracts/Shops.sol\":3038:3055  registerFromAdmin */\n      tag_143\n        /* \"contracts/Shops.sol\":3038:3089  registerFromAdmin(fio,userLogin,status,userAddress) */\n      jump\t// in\n    tag_291:\n        /* \"contracts/Shops.sol\":3099:3106  sellers */\n      0x08\n        /* \"contracts/Shops.sol\":3112:3123  userAddress */\n      dup4\n        /* \"contracts/Shops.sol\":3099:3124  sellers.push(userAddress) */\n      swap1\n      dup1\n      0x01\n      dup2\n      sload\n      add\n      dup1\n      dup3\n      sstore\n      dup1\n      swap2\n      pop\n      pop\n      0x01\n      swap1\n      sub\n      swap1\n      0x00\n      mstore\n      keccak256(0x00, 0x20)\n      add\n      0x00\n      swap1\n      swap2\n      swap1\n      swap2\n      swap1\n      swap2\n      0x0100\n      exp\n      dup2\n      sload\n      dup2\n      0xffffffffffffffffffffffffffffffffffffffff\n      mul\n      not\n      and\n      swap1\n      dup4\n      0xffffffffffffffffffffffffffffffffffffffff\n      and\n      mul\n      or\n      swap1\n      sstore\n      pop\n        /* \"contracts/Shops.sol\":3134:3142  salesmen */\n      0x0d\n        /* \"contracts/Shops.sol\":3134:3152  salesmen[shopAddr] */\n      0x00\n        /* \"contracts/Shops.sol\":3143:3151  shopAddr */\n      dup4\n        /* \"contracts/Shops.sol\":3134:3152  salesmen[shopAddr] */\n      0xffffffffffffffffffffffffffffffffffffffff\n      and\n      0xffffffffffffffffffffffffffffffffffffffff\n      and\n      dup2\n      mstore\n      0x20\n      add\n      swap1\n      dup2\n      mstore\n      0x20\n      add\n      0x00\n      keccak256\n        /* \"contracts/Shops.sol\":3158:3169  userAddress */\n      dup4\n        /* \"contracts/Shops.sol\":3134:3170  salesmen[shopAddr].push(userAddress) */\n      swap1\n      dup1\n      0x01\n      dup2\n      sload\n      add\n      dup1\n      dup3\n      sstore\n      dup1\n      swap2\n      pop\n      pop\n      0x01\n      swap1\n      sub\n      swap1\n      0x00\n      mstore\n      keccak256(0x00, 0x20)\n      add\n      0x00\n      swap1\n      swap2\n      swap1\n      swap2\n      swap1\n      swap2\n      0x0100\n      exp\n      dup2\n      sload\n      dup2\n      0xffffffffffffffffffffffffffffffffffffffff\n      mul\n      not\n      and\n      swap1\n      dup4\n      0xffffffffffffffffffffffffffffffffffffffff\n      and\n      mul\n      or\n      swap1\n      sstore\n      pop\n        /* \"contracts/Shops.sol\":2982:3177  {... */\n      pop\n        /* \"contracts/Shops.sol\":2871:3177  function registerSeller(string memory fio,string memory userLogin,address userAddress,address shopAddr) public {... */\n      pop\n      pop\n      pop\n      pop\n      jump\t// out\n        /* \"contracts/Shops.sol\":7577:7659  function downRequestToByer() public isUserStatus(UserRoles.seller){... */\n    tag_72:\n        /* \"contracts/Shops.sol\":7626:7642  UserRoles.seller */\n      0x01\n        /* \"contracts/AuthService.sol\":1617:1622  users */\n      0x02\n        /* \"contracts/AuthService.sol\":1617:1634  users[msg.sender] */\n      0x00\n        /* \"contracts/AuthService.sol\":1623:1633  msg.sender */\n      caller\n        /* \"contracts/AuthService.sol\":1617:1634  users[msg.sender] */\n      0xffffffffffffffffffffffffffffffffffffffff\n      and\n      0xffffffffffffffffffffffffffffffffffffffff\n      and\n      dup2\n      mstore\n      0x20\n      add\n      swap1\n      dup2\n      mstore\n      0x20\n      add\n      0x00\n      keccak256\n        /* \"contracts/AuthService.sol\":1617:1641  users[msg.sender].status */\n      0x00\n      add\n      sload\n        /* \"contracts/AuthService.sol\":1606:1612  status */\n      dup2\n        /* \"contracts/AuthService.sol\":1601:1613  uint(status) */\n      0x05\n      dup2\n      gt\n      iszero\n      tag_295\n      jumpi\n      tag_296\n      tag_101\n      jump\t// in\n    tag_296:\n    tag_295:\n        /* \"contracts/AuthService.sol\":1601:1641  uint(status) == users[msg.sender].status */\n      eq\n        /* \"contracts/AuthService.sol\":1593:1654  require(uint(status) == users[msg.sender].status,\"Forbidden\") */\n      tag_297\n      jumpi\n      mload(0x40)\n      0x08c379a000000000000000000000000000000000000000000000000000000000\n      dup2\n      mstore\n      0x04\n      add\n      tag_298\n      swap1\n      tag_104\n      jump\t// in\n    tag_298:\n      mload(0x40)\n      dup1\n      swap2\n      sub\n      swap1\n      revert\n    tag_297:\n        /* \"contracts/Shops.sol\":7577:7659  function downRequestToByer() public isUserStatus(UserRoles.seller){... */\n      pop\n      jump\t// out\n        /* \"contracts/Shops.sol\":4507:4871  function getBuyerInfo() public view isUser returns(... */\n    tag_74:\n        /* \"contracts/Shops.sol\":4567:4590  string memory userLogin */\n      0x60\n        /* \"contracts/Shops.sol\":4600:4617  string memory fio */\n      dup1\n        /* \"contracts/Shops.sol\":4627:4639  uint balance */\n      0x00\n        /* \"contracts/Shops.sol\":4649:4672  string[] memory reviews */\n      0x60\n        /* \"contracts/AuthService.sol\":1465:1504  compare(users[msg.sender].userLogin,\"\") */\n      tag_301\n        /* \"contracts/AuthService.sol\":1473:1478  users */\n      0x02\n        /* \"contracts/AuthService.sol\":1473:1490  users[msg.sender] */\n      0x00\n        /* \"contracts/AuthService.sol\":1479:1489  msg.sender */\n      caller\n        /* \"contracts/AuthService.sol\":1473:1490  users[msg.sender] */\n      0xffffffffffffffffffffffffffffffffffffffff\n      and\n      0xffffffffffffffffffffffffffffffffffffffff\n      and\n      dup2\n      mstore\n      0x20\n      add\n      swap1\n      dup2\n      mstore\n      0x20\n      add\n      0x00\n      keccak256\n        /* \"contracts/AuthService.sol\":1473:1500  users[msg.sender].userLogin */\n      0x01\n      add\n        /* \"contracts/AuthService.sol\":1465:1504  compare(users[msg.sender].userLogin,\"\") */\n      dup1\n      sload\n      tag_302\n      swap1\n      tag_107\n      jump\t// in\n    tag_302:\n      dup1\n      0x1f\n      add\n      0x20\n      dup1\n      swap2\n      div\n      mul\n      0x20\n      add\n      mload(0x40)\n      swap1\n      dup2\n      add\n      0x40\n      mstore\n      dup1\n      swap3\n      swap2\n      swap1\n      dup2\n      dup2\n      mstore\n      0x20\n      add\n      dup3\n      dup1\n      sload\n      tag_303\n      swap1\n      tag_107\n      jump\t// in\n    tag_303:\n      dup1\n      iszero\n      tag_304\n      jumpi\n      dup1\n      0x1f\n      lt\n      tag_305\n      jumpi\n      0x0100\n      dup1\n      dup4\n      sload\n      div\n      mul\n      dup4\n      mstore\n      swap2\n      0x20\n      add\n      swap2\n      jump(tag_304)\n    tag_305:\n      dup3\n      add\n      swap2\n      swap1\n      0x00\n      mstore\n      keccak256(0x00, 0x20)\n      swap1\n    tag_306:\n      dup2\n      sload\n      dup2\n      mstore\n      swap1\n      0x01\n      add\n      swap1\n      0x20\n      add\n      dup1\n      dup4\n      gt\n      tag_306\n      jumpi\n      dup3\n      swap1\n      sub\n      0x1f\n      and\n      dup3\n      add\n      swap2\n    tag_304:\n      pop\n      pop\n      pop\n      pop\n      pop\n      mload(0x40)\n      dup1\n      0x20\n      add\n      0x40\n      mstore\n      dup1\n      0x00\n      dup2\n      mstore\n      pop\n        /* \"contracts/AuthService.sol\":1465:1472  compare */\n      tag_151\n        /* \"contracts/AuthService.sol\":1465:1504  compare(users[msg.sender].userLogin,\"\") */\n      jump\t// in\n    tag_301:\n        /* \"contracts/AuthService.sol\":1464:1504  !compare(users[msg.sender].userLogin,\"\") */\n      iszero\n        /* \"contracts/AuthService.sol\":1456:1520  require(!compare(users[msg.sender].userLogin,\"\"),\"You not user\") */\n      tag_307\n      jumpi\n      mload(0x40)\n      0x08c379a000000000000000000000000000000000000000000000000000000000\n      dup2\n      mstore\n      0x04\n      add\n      tag_308\n      swap1\n      tag_154\n      jump\t// in\n    tag_308:\n      mload(0x40)\n      dup1\n      swap2\n      sub\n      swap1\n      revert\n    tag_307:\n        /* \"contracts/Shops.sol\":4688:4704  User memory user */\n      0x00\n        /* \"contracts/Shops.sol\":4707:4712  users */\n      0x02\n        /* \"contracts/Shops.sol\":4707:4724  users[msg.sender] */\n      0x00\n        /* \"contracts/Shops.sol\":4713:4723  msg.sender */\n      caller\n        /* \"contracts/Shops.sol\":4707:4724  users[msg.sender] */\n      0xffffffffffffffffffffffffffffffffffffffff\n      and\n      0xffffffffffffffffffffffffffffffffffffffff\n      and\n      dup2\n      mstore\n      0x20\n      add\n      swap1\n      dup2\n      mstore\n      0x20\n      add\n      0x00\n      keccak256\n        /* \"contracts/Shops.sol\":4688:4724  User memory user = users[msg.sender] */\n      mload(0x40)\n      dup1\n      0x80\n      add\n      0x40\n      mstore\n      swap1\n      dup2\n      0x00\n      dup3\n      add\n      sload\n      dup2\n      mstore\n      0x20\n      add\n      0x01\n      dup3\n      add\n      dup1\n      sload\n      tag_310\n      swap1\n      tag_107\n      jump\t// in\n    tag_310:\n      dup1\n      0x1f\n      add\n      0x20\n      dup1\n      swap2\n      div\n      mul\n      0x20\n      add\n      mload(0x40)\n      swap1\n      dup2\n      add\n      0x40\n      mstore\n      dup1\n      swap3\n      swap2\n      swap1\n      dup2\n      dup2\n      mstore\n      0x20\n      add\n      dup3\n      dup1\n      sload\n      tag_311\n      swap1\n      tag_107\n      jump\t// in\n    tag_311:\n      dup1\n      iszero\n      tag_312\n      jumpi\n      dup1\n      0x1f\n      lt\n      tag_313\n      jumpi\n      0x0100\n      dup1\n      dup4\n      sload\n      div\n      mul\n      dup4\n      mstore\n      swap2\n      0x20\n      add\n      swap2\n      jump(tag_312)\n    tag_313:\n      dup3\n      add\n      swap2\n      swap1\n      0x00\n      mstore\n      keccak256(0x00, 0x20)\n      swap1\n    tag_314:\n      dup2\n      sload\n      dup2\n      mstore\n      swap1\n      0x01\n      add\n      swap1\n      0x20\n      add\n      dup1\n      dup4\n      gt\n      tag_314\n      jumpi\n      dup3\n      swap1\n      sub\n      0x1f\n      and\n      dup3\n      add\n      swap2\n    tag_312:\n      pop\n      pop\n      pop\n      pop\n      pop\n      dup2\n      mstore\n      0x20\n      add\n      0x02\n      dup3\n      add\n      dup1\n      sload\n      tag_315\n      swap1\n      tag_107\n      jump\t// in\n    tag_315:\n      dup1\n      0x1f\n      add\n      0x20\n      dup1\n      swap2\n      div\n      mul\n      0x20\n      add\n      mload(0x40)\n      swap1\n      dup2\n      add\n      0x40\n      mstore\n      dup1\n      swap3\n      swap2\n      swap1\n      dup2\n      dup2\n      mstore\n      0x20\n      add\n      dup3\n      dup1\n      sload\n      tag_316\n      swap1\n      tag_107\n      jump\t// in\n    tag_316:\n      dup1\n      iszero\n      tag_317\n      jumpi\n      dup1\n      0x1f\n      lt\n      tag_318\n      jumpi\n      0x0100\n      dup1\n      dup4\n      sload\n      div\n      mul\n      dup4\n      mstore\n      swap2\n      0x20\n      add\n      swap2\n      jump(tag_317)\n    tag_318:\n      dup3\n      add\n      swap2\n      swap1\n      0x00\n      mstore\n      keccak256(0x00, 0x20)\n      swap1\n    tag_319:\n      dup2\n      sload\n      dup2\n      mstore\n      swap1\n      0x01\n      add\n      swap1\n      0x20\n      add\n      dup1\n      dup4\n      gt\n      tag_319\n      jumpi\n      dup3\n      swap1\n      sub\n      0x1f\n      and\n      dup3\n      add\n      swap2\n    tag_317:\n      pop\n      pop\n      pop\n      pop\n      pop\n      dup2\n      mstore\n      0x20\n      add\n      0x03\n      dup3\n      add\n      dup1\n      sload\n      dup1\n      0x20\n      mul\n      0x20\n      add\n      mload(0x40)\n      swap1\n      dup2\n      add\n      0x40\n      mstore\n      dup1\n      swap3\n      swap2\n      swap1\n      dup2\n      dup2\n      mstore\n      0x20\n      add\n      0x00\n      swap1\n    tag_320:\n      dup3\n      dup3\n      lt\n      iszero\n      tag_321\n      jumpi\n      dup4\n      dup3\n      swap1\n      0x00\n      mstore\n      keccak256(0x00, 0x20)\n      add\n      dup1\n      sload\n      tag_323\n      swap1\n      tag_107\n      jump\t// in\n    tag_323:\n      dup1\n      0x1f\n      add\n      0x20\n      dup1\n      swap2\n      div\n      mul\n      0x20\n      add\n      mload(0x40)\n      swap1\n      dup2\n      add\n      0x40\n      mstore\n      dup1\n      swap3\n      swap2\n      swap1\n      dup2\n      dup2\n      mstore\n      0x20\n      add\n      dup3\n      dup1\n      sload\n      tag_324\n      swap1\n      tag_107\n      jump\t// in\n    tag_324:\n      dup1\n      iszero\n      tag_325\n      jumpi\n      dup1\n      0x1f\n      lt\n      tag_326\n      jumpi\n      0x0100\n      dup1\n      dup4\n      sload\n      div\n      mul\n      dup4\n      mstore\n      swap2\n      0x20\n      add\n      swap2\n      jump(tag_325)\n    tag_326:\n      dup3\n      add\n      swap2\n      swap1\n      0x00\n      mstore\n      keccak256(0x00, 0x20)\n      swap1\n    tag_327:\n      dup2\n      sload\n      dup2\n      mstore\n      swap1\n      0x01\n      add\n      swap1\n      0x20\n      add\n      dup1\n      dup4\n      gt\n      tag_327\n      jumpi\n      dup3\n      swap1\n      sub\n      0x1f\n      and\n      dup3\n      add\n      swap2\n    tag_325:\n      pop\n      pop\n      pop\n      pop\n      pop\n      dup2\n      mstore\n      0x20\n      add\n      swap1\n      0x01\n      add\n      swap1\n      jump(tag_320)\n    tag_321:\n      pop\n      pop\n      pop\n      pop\n      dup2\n      mstore\n      pop\n      pop\n      swap1\n      pop\n        /* \"contracts/Shops.sol\":4747:4751  user */\n      dup1\n        /* \"contracts/Shops.sol\":4747:4761  user.userLogin */\n      0x20\n      add\n      mload\n        /* \"contracts/Shops.sol\":4735:4761  userLogin = user.userLogin */\n      swap5\n      pop\n        /* \"contracts/Shops.sol\":4777:4781  user */\n      dup1\n        /* \"contracts/Shops.sol\":4777:4785  user.fio */\n      0x40\n      add\n      mload\n        /* \"contracts/Shops.sol\":4771:4785  fio = user.fio */\n      swap4\n      pop\n        /* \"contracts/Shops.sol\":4813:4823  msg.sender */\n      caller\n        /* \"contracts/Shops.sol\":4805:4832  payable(msg.sender).balance */\n      0xffffffffffffffffffffffffffffffffffffffff\n      and\n      balance\n        /* \"contracts/Shops.sol\":4795:4832  balance = payable(msg.sender).balance */\n      swap3\n      pop\n        /* \"contracts/Shops.sol\":4852:4856  user */\n      dup1\n        /* \"contracts/Shops.sol\":4852:4864  user.reviews */\n      0x60\n      add\n      mload\n        /* \"contracts/Shops.sol\":4842:4864  reviews = user.reviews */\n      swap2\n      pop\n        /* \"contracts/Shops.sol\":4678:4871  {... */\n      pop\n        /* \"contracts/Shops.sol\":4507:4871  function getBuyerInfo() public view isUser returns(... */\n      swap1\n      swap2\n      swap3\n      swap4\n      jump\t// out\n        /* \"contracts/Shops.sol\":3244:3443  function registerBuyer(string memory fio,string memory userLogin,address userAddr) public{... */\n    tag_80:\n        /* \"contracts/Shops.sol\":3343:3354  uint status */\n      0x00\n        /* \"contracts/Shops.sol\":3362:3377  UserRoles.buyer */\n      dup1\n        /* \"contracts/Shops.sol\":3357:3378  uint(UserRoles.buyer) */\n      0x05\n      dup2\n      gt\n      iszero\n      tag_329\n      jumpi\n      tag_330\n      tag_101\n      jump\t// in\n    tag_330:\n    tag_329:\n        /* \"contracts/Shops.sol\":3343:3378  uint status = uint(UserRoles.buyer) */\n      swap1\n      pop\n        /* \"contracts/Shops.sol\":3388:3436  registerFromAdmin(fio,userLogin,status,userAddr) */\n      tag_331\n        /* \"contracts/Shops.sol\":3406:3409  fio */\n      dup5\n        /* \"contracts/Shops.sol\":3410:3419  userLogin */\n      dup5\n        /* \"contracts/Shops.sol\":3420:3426  status */\n      dup4\n        /* \"contracts/Shops.sol\":3427:3435  userAddr */\n      dup6\n        /* \"contracts/Shops.sol\":3388:3405  registerFromAdmin */\n      tag_143\n        /* \"contracts/Shops.sol\":3388:3436  registerFromAdmin(fio,userLogin,status,userAddr) */\n      jump\t// in\n    tag_331:\n        /* \"contracts/Shops.sol\":3333:3443  {... */\n      pop\n        /* \"contracts/Shops.sol\":3244:3443  function registerBuyer(string memory fio,string memory userLogin,address userAddr) public{... */\n      pop\n      pop\n      pop\n      jump\t// out\n        /* \"contracts/Shops.sol\":1532:1790  function regAdmin(address adminAddr,string memory fio,string memory userLogin) public isUserStatus(UserRoles.admin){... */\n    tag_84:\n        /* \"contracts/Shops.sol\":1631:1646  UserRoles.admin */\n      0x03\n        /* \"contracts/AuthService.sol\":1617:1622  users */\n      0x02\n        /* \"contracts/AuthService.sol\":1617:1634  users[msg.sender] */\n      0x00\n        /* \"contracts/AuthService.sol\":1623:1633  msg.sender */\n      caller\n        /* \"contracts/AuthService.sol\":1617:1634  users[msg.sender] */\n      0xffffffffffffffffffffffffffffffffffffffff\n      and\n      0xffffffffffffffffffffffffffffffffffffffff\n      and\n      dup2\n      mstore\n      0x20\n      add\n      swap1\n      dup2\n      mstore\n      0x20\n      add\n      0x00\n      keccak256\n        /* \"contracts/AuthService.sol\":1617:1641  users[msg.sender].status */\n      0x00\n      add\n      sload\n        /* \"contracts/AuthService.sol\":1606:1612  status */\n      dup2\n        /* \"contracts/AuthService.sol\":1601:1613  uint(status) */\n      0x05\n      dup2\n      gt\n      iszero\n      tag_333\n      jumpi\n      tag_334\n      tag_101\n      jump\t// in\n    tag_334:\n    tag_333:\n        /* \"contracts/AuthService.sol\":1601:1641  uint(status) == users[msg.sender].status */\n      eq\n        /* \"contracts/AuthService.sol\":1593:1654  require(uint(status) == users[msg.sender].status,\"Forbidden\") */\n      tag_335\n      jumpi\n      mload(0x40)\n      0x08c379a000000000000000000000000000000000000000000000000000000000\n      dup2\n      mstore\n      0x04\n      add\n      tag_336\n      swap1\n      tag_104\n      jump\t// in\n    tag_336:\n      mload(0x40)\n      dup1\n      swap2\n      sub\n      swap1\n      revert\n    tag_335:\n        /* \"contracts/Shops.sol\":1657:1668  uint status */\n      0x00\n        /* \"contracts/Shops.sol\":1676:1691  UserRoles.admin */\n      0x03\n        /* \"contracts/Shops.sol\":1671:1692  uint(UserRoles.admin) */\n      0x05\n      dup2\n      gt\n      iszero\n      tag_338\n      jumpi\n      tag_339\n      tag_101\n      jump\t// in\n    tag_339:\n    tag_338:\n        /* \"contracts/Shops.sol\":1657:1692  uint status = uint(UserRoles.admin) */\n      swap1\n      pop\n        /* \"contracts/Shops.sol\":1702:1751  registerFromAdmin(fio,userLogin,status,adminAddr) */\n      tag_340\n        /* \"contracts/Shops.sol\":1720:1723  fio */\n      dup5\n        /* \"contracts/Shops.sol\":1724:1733  userLogin */\n      dup5\n        /* \"contracts/Shops.sol\":1734:1740  status */\n      dup4\n        /* \"contracts/Shops.sol\":1741:1750  adminAddr */\n      dup9\n        /* \"contracts/Shops.sol\":1702:1719  registerFromAdmin */\n      tag_143\n        /* \"contracts/Shops.sol\":1702:1751  registerFromAdmin(fio,userLogin,status,adminAddr) */\n      jump\t// in\n    tag_340:\n        /* \"contracts/Shops.sol\":1761:1767  admins */\n      0x06\n        /* \"contracts/Shops.sol\":1773:1782  userLogin */\n      dup4\n        /* \"contracts/Shops.sol\":1761:1783  admins.push(userLogin) */\n      swap1\n      dup1\n      0x01\n      dup2\n      sload\n      add\n      dup1\n      dup3\n      sstore\n      dup1\n      swap2\n      pop\n      pop\n      0x01\n      swap1\n      sub\n      swap1\n      0x00\n      mstore\n      keccak256(0x00, 0x20)\n      add\n      0x00\n      swap1\n      swap2\n      swap1\n      swap2\n      swap1\n      swap2\n      pop\n      swap1\n      dup1\n      mload\n      swap1\n      0x20\n      add\n      swap1\n      tag_342\n      swap3\n      swap2\n      swap1\n      tag_158\n      jump\t// in\n    tag_342:\n      pop\n        /* \"contracts/Shops.sol\":1647:1790  {... */\n      pop\n        /* \"contracts/Shops.sol\":1532:1790  function regAdmin(address adminAddr,string memory fio,string memory userLogin) public isUserStatus(UserRoles.admin){... */\n      pop\n      pop\n      pop\n      pop\n      jump\t// out\n        /* \"contracts/Shops.sol\":6755:6994  function disLikeReview(string memory id) public isUser {... */\n    tag_87:\n        /* \"contracts/AuthService.sol\":1465:1504  compare(users[msg.sender].userLogin,\"\") */\n      tag_344\n        /* \"contracts/AuthService.sol\":1473:1478  users */\n      0x02\n        /* \"contracts/AuthService.sol\":1473:1490  users[msg.sender] */\n      0x00\n        /* \"contracts/AuthService.sol\":1479:1489  msg.sender */\n      caller\n        /* \"contracts/AuthService.sol\":1473:1490  users[msg.sender] */\n      0xffffffffffffffffffffffffffffffffffffffff\n      and\n      0xffffffffffffffffffffffffffffffffffffffff\n      and\n      dup2\n      mstore\n      0x20\n      add\n      swap1\n      dup2\n      mstore\n      0x20\n      add\n      0x00\n      keccak256\n        /* \"contracts/AuthService.sol\":1473:1500  users[msg.sender].userLogin */\n      0x01\n      add\n        /* \"contracts/AuthService.sol\":1465:1504  compare(users[msg.sender].userLogin,\"\") */\n      dup1\n      sload\n      tag_345\n      swap1\n      tag_107\n      jump\t// in\n    tag_345:\n      dup1\n      0x1f\n      add\n      0x20\n      dup1\n      swap2\n      div\n      mul\n      0x20\n      add\n      mload(0x40)\n      swap1\n      dup2\n      add\n      0x40\n      mstore\n      dup1\n      swap3\n      swap2\n      swap1\n      dup2\n      dup2\n      mstore\n      0x20\n      add\n      dup3\n      dup1\n      sload\n      tag_346\n      swap1\n      tag_107\n      jump\t// in\n    tag_346:\n      dup1\n      iszero\n      tag_347\n      jumpi\n      dup1\n      0x1f\n      lt\n      tag_348\n      jumpi\n      0x0100\n      dup1\n      dup4\n      sload\n      div\n      mul\n      dup4\n      mstore\n      swap2\n      0x20\n      add\n      swap2\n      jump(tag_347)\n    tag_348:\n      dup3\n      add\n      swap2\n      swap1\n      0x00\n      mstore\n      keccak256(0x00, 0x20)\n      swap1\n    tag_349:\n      dup2\n      sload\n      dup2\n      mstore\n      swap1\n      0x01\n      add\n      swap1\n      0x20\n      add\n      dup1\n      dup4\n      gt\n      tag_349\n      jumpi\n      dup3\n      swap1\n      sub\n      0x1f\n      and\n      dup3\n      add\n      swap2\n    tag_347:\n      pop\n      pop\n      pop\n      pop\n      pop\n      mload(0x40)\n      dup1\n      0x20\n      add\n      0x40\n      mstore\n      dup1\n      0x00\n      dup2\n      mstore\n      pop\n        /* \"contracts/AuthService.sol\":1465:1472  compare */\n      tag_151\n        /* \"contracts/AuthService.sol\":1465:1504  compare(users[msg.sender].userLogin,\"\") */\n      jump\t// in\n    tag_344:\n        /* \"contracts/AuthService.sol\":1464:1504  !compare(users[msg.sender].userLogin,\"\") */\n      iszero\n        /* \"contracts/AuthService.sol\":1456:1520  require(!compare(users[msg.sender].userLogin,\"\"),\"You not user\") */\n      tag_350\n      jumpi\n      mload(0x40)\n      0x08c379a000000000000000000000000000000000000000000000000000000000\n      dup2\n      mstore\n      0x04\n      add\n      tag_351\n      swap1\n      tag_154\n      jump\t// in\n    tag_351:\n      mload(0x40)\n      dup1\n      swap2\n      sub\n      swap1\n      revert\n    tag_350:\n        /* \"contracts/Shops.sol\":6857:6862  false */\n      0x00\n        /* \"contracts/Shops.sol\":6828:6862  reviewCom[id][msg.sender] == false */\n      iszero\n      iszero\n        /* \"contracts/Shops.sol\":6828:6837  reviewCom */\n      0x10\n        /* \"contracts/Shops.sol\":6838:6840  id */\n      dup3\n        /* \"contracts/Shops.sol\":6828:6841  reviewCom[id] */\n      mload(0x40)\n      tag_353\n      swap2\n      swap1\n      tag_162\n      jump\t// in\n    tag_353:\n      swap1\n      dup2\n      mstore\n      0x20\n      add\n      mload(0x40)\n      dup1\n      swap2\n      sub\n      swap1\n      keccak256\n        /* \"contracts/Shops.sol\":6828:6853  reviewCom[id][msg.sender] */\n      0x00\n        /* \"contracts/Shops.sol\":6842:6852  msg.sender */\n      caller\n        /* \"contracts/Shops.sol\":6828:6853  reviewCom[id][msg.sender] */\n      0xffffffffffffffffffffffffffffffffffffffff\n      and\n      0xffffffffffffffffffffffffffffffffffffffff\n      and\n      dup2\n      mstore\n      0x20\n      add\n      swap1\n      dup2\n      mstore\n      0x20\n      add\n      0x00\n      keccak256\n      0x00\n      swap1\n      sload\n      swap1\n      0x0100\n      exp\n      swap1\n      div\n      0xff\n      and\n        /* \"contracts/Shops.sol\":6828:6862  reviewCom[id][msg.sender] == false */\n      iszero\n      iszero\n      eq\n        /* \"contracts/Shops.sol\":6820:6893  require(reviewCom[id][msg.sender] == false,\"You already check this case\") */\n      tag_354\n      jumpi\n      mload(0x40)\n      0x08c379a000000000000000000000000000000000000000000000000000000000\n      dup2\n      mstore\n      0x04\n      add\n      tag_355\n      swap1\n      tag_266\n      jump\t// in\n    tag_355:\n      mload(0x40)\n      dup1\n      swap2\n      sub\n      swap1\n      revert\n    tag_354:\n        /* \"contracts/Shops.sol\":6903:6911  reviewId */\n      0x0f\n        /* \"contracts/Shops.sol\":6912:6914  id */\n      dup2\n        /* \"contracts/Shops.sol\":6903:6915  reviewId[id] */\n      mload(0x40)\n      tag_356\n      swap2\n      swap1\n      tag_162\n      jump\t// in\n    tag_356:\n      swap1\n      dup2\n      mstore\n      0x20\n      add\n      mload(0x40)\n      dup1\n      swap2\n      sub\n      swap1\n      keccak256\n        /* \"contracts/Shops.sol\":6903:6928  reviewId[id].disLikeCount */\n      0x04\n      add\n        /* \"contracts/Shops.sol\":6934:6944  msg.sender */\n      caller\n        /* \"contracts/Shops.sol\":6903:6945  reviewId[id].disLikeCount.push(msg.sender) */\n      swap1\n      dup1\n      0x01\n      dup2\n      sload\n      add\n      dup1\n      dup3\n      sstore\n      dup1\n      swap2\n      pop\n      pop\n      0x01\n      swap1\n      sub\n      swap1\n      0x00\n      mstore\n      keccak256(0x00, 0x20)\n      add\n      0x00\n      swap1\n      swap2\n      swap1\n      swap2\n      swap1\n      swap2\n      0x0100\n      exp\n      dup2\n      sload\n      dup2\n      0xffffffffffffffffffffffffffffffffffffffff\n      mul\n      not\n      and\n      swap1\n      dup4\n      0xffffffffffffffffffffffffffffffffffffffff\n      and\n      mul\n      or\n      swap1\n      sstore\n      pop\n        /* \"contracts/Shops.sol\":6983:6987  true */\n      0x01\n        /* \"contracts/Shops.sol\":6955:6964  reviewCom */\n      0x10\n        /* \"contracts/Shops.sol\":6965:6967  id */\n      dup3\n        /* \"contracts/Shops.sol\":6955:6968  reviewCom[id] */\n      mload(0x40)\n      tag_358\n      swap2\n      swap1\n      tag_162\n      jump\t// in\n    tag_358:\n      swap1\n      dup2\n      mstore\n      0x20\n      add\n      mload(0x40)\n      dup1\n      swap2\n      sub\n      swap1\n      keccak256\n        /* \"contracts/Shops.sol\":6955:6980  reviewCom[id][msg.sender] */\n      0x00\n        /* \"contracts/Shops.sol\":6969:6979  msg.sender */\n      caller\n        /* \"contracts/Shops.sol\":6955:6980  reviewCom[id][msg.sender] */\n      0xffffffffffffffffffffffffffffffffffffffff\n      and\n      0xffffffffffffffffffffffffffffffffffffffff\n      and\n      dup2\n      mstore\n      0x20\n      add\n      swap1\n      dup2\n      mstore\n      0x20\n      add\n      0x00\n      keccak256\n      0x00\n        /* \"contracts/Shops.sol\":6955:6987  reviewCom[id][msg.sender] = true */\n      0x0100\n      exp\n      dup2\n      sload\n      dup2\n      0xff\n      mul\n      not\n      and\n      swap1\n      dup4\n      iszero\n      iszero\n      mul\n      or\n      swap1\n      sstore\n      pop\n        /* \"contracts/Shops.sol\":6755:6994  function disLikeReview(string memory id) public isUser {... */\n      pop\n      jump\t// out\n        /* \"contracts/Shops.sol\":4941:5340  function getAdminInfo() public view isUserStatus(UserRoles.admin) returns(... */\n    tag_89:\n        /* \"contracts/Shops.sol\":5024:5043  string memory login */\n      0x60\n        /* \"contracts/Shops.sol\":5053:5082  Request[] memory userRequests */\n      dup1\n        /* \"contracts/Shops.sol\":5092:5117  string[] memory adminList */\n      0x60\n        /* \"contracts/Shops.sol\":5127:5155  address[] memory sellersAddr */\n      dup1\n        /* \"contracts/Shops.sol\":4990:5005  UserRoles.admin */\n      0x03\n        /* \"contracts/AuthService.sol\":1617:1622  users */\n      0x02\n        /* \"contracts/AuthService.sol\":1617:1634  users[msg.sender] */\n      0x00\n        /* \"contracts/AuthService.sol\":1623:1633  msg.sender */\n      caller\n        /* \"contracts/AuthService.sol\":1617:1634  users[msg.sender] */\n      0xffffffffffffffffffffffffffffffffffffffff\n      and\n      0xffffffffffffffffffffffffffffffffffffffff\n      and\n      dup2\n      mstore\n      0x20\n      add\n      swap1\n      dup2\n      mstore\n      0x20\n      add\n      0x00\n      keccak256\n        /* \"contracts/AuthService.sol\":1617:1641  users[msg.sender].status */\n      0x00\n      add\n      sload\n        /* \"contracts/AuthService.sol\":1606:1612  status */\n      dup2\n        /* \"contracts/AuthService.sol\":1601:1613  uint(status) */\n      0x05\n      dup2\n      gt\n      iszero\n      tag_360\n      jumpi\n      tag_361\n      tag_101\n      jump\t// in\n    tag_361:\n    tag_360:\n        /* \"contracts/AuthService.sol\":1601:1641  uint(status) == users[msg.sender].status */\n      eq\n        /* \"contracts/AuthService.sol\":1593:1654  require(uint(status) == users[msg.sender].status,\"Forbidden\") */\n      tag_362\n      jumpi\n      mload(0x40)\n      0x08c379a000000000000000000000000000000000000000000000000000000000\n      dup2\n      mstore\n      0x04\n      add\n      tag_363\n      swap1\n      tag_104\n      jump\t// in\n    tag_363:\n      mload(0x40)\n      dup1\n      swap2\n      sub\n      swap1\n      revert\n    tag_362:\n        /* \"contracts/Shops.sol\":5172:5188  User memory user */\n      0x00\n        /* \"contracts/Shops.sol\":5191:5196  users */\n      0x02\n        /* \"contracts/Shops.sol\":5191:5208  users[msg.sender] */\n      0x00\n        /* \"contracts/Shops.sol\":5197:5207  msg.sender */\n      caller\n        /* \"contracts/Shops.sol\":5191:5208  users[msg.sender] */\n      0xffffffffffffffffffffffffffffffffffffffff\n      and\n      0xffffffffffffffffffffffffffffffffffffffff\n      and\n      dup2\n      mstore\n      0x20\n      add\n      swap1\n      dup2\n      mstore\n      0x20\n      add\n      0x00\n      keccak256\n        /* \"contracts/Shops.sol\":5172:5208  User memory user = users[msg.sender] */\n      mload(0x40)\n      dup1\n      0x80\n      add\n      0x40\n      mstore\n      swap1\n      dup2\n      0x00\n      dup3\n      add\n      sload\n      dup2\n      mstore\n      0x20\n      add\n      0x01\n      dup3\n      add\n      dup1\n      sload\n      tag_365\n      swap1\n      tag_107\n      jump\t// in\n    tag_365:\n      dup1\n      0x1f\n      add\n      0x20\n      dup1\n      swap2\n      div\n      mul\n      0x20\n      add\n      mload(0x40)\n      swap1\n      dup2\n      add\n      0x40\n      mstore\n      dup1\n      swap3\n      swap2\n      swap1\n      dup2\n      dup2\n      mstore\n      0x20\n      add\n      dup3\n      dup1\n      sload\n      tag_366\n      swap1\n      tag_107\n      jump\t// in\n    tag_366:\n      dup1\n      iszero\n      tag_367\n      jumpi\n      dup1\n      0x1f\n      lt\n      tag_368\n      jumpi\n      0x0100\n      dup1\n      dup4\n      sload\n      div\n      mul\n      dup4\n      mstore\n      swap2\n      0x20\n      add\n      swap2\n      jump(tag_367)\n    tag_368:\n      dup3\n      add\n      swap2\n      swap1\n      0x00\n      mstore\n      keccak256(0x00, 0x20)\n      swap1\n    tag_369:\n      dup2\n      sload\n      dup2\n      mstore\n      swap1\n      0x01\n      add\n      swap1\n      0x20\n      add\n      dup1\n      dup4\n      gt\n      tag_369\n      jumpi\n      dup3\n      swap1\n      sub\n      0x1f\n      and\n      dup3\n      add\n      swap2\n    tag_367:\n      pop\n      pop\n      pop\n      pop\n      pop\n      dup2\n      mstore\n      0x20\n      add\n      0x02\n      dup3\n      add\n      dup1\n      sload\n      tag_370\n      swap1\n      tag_107\n      jump\t// in\n    tag_370:\n      dup1\n      0x1f\n      add\n      0x20\n      dup1\n      swap2\n      div\n      mul\n      0x20\n      add\n      mload(0x40)\n      swap1\n      dup2\n      add\n      0x40\n      mstore\n      dup1\n      swap3\n      swap2\n      swap1\n      dup2\n      dup2\n      mstore\n      0x20\n      add\n      dup3\n      dup1\n      sload\n      tag_371\n      swap1\n      tag_107\n      jump\t// in\n    tag_371:\n      dup1\n      iszero\n      tag_372\n      jumpi\n      dup1\n      0x1f\n      lt\n      tag_373\n      jumpi\n      0x0100\n      dup1\n      dup4\n      sload\n      div\n      mul\n      dup4\n      mstore\n      swap2\n      0x20\n      add\n      swap2\n      jump(tag_372)\n    tag_373:\n      dup3\n      add\n      swap2\n      swap1\n      0x00\n      mstore\n      keccak256(0x00, 0x20)\n      swap1\n    tag_374:\n      dup2\n      sload\n      dup2\n      mstore\n      swap1\n      0x01\n      add\n      swap1\n      0x20\n      add\n      dup1\n      dup4\n      gt\n      tag_374\n      jumpi\n      dup3\n      swap1\n      sub\n      0x1f\n      and\n      dup3\n      add\n      swap2\n    tag_372:\n      pop\n      pop\n      pop\n      pop\n      pop\n      dup2\n      mstore\n      0x20\n      add\n      0x03\n      dup3\n      add\n      dup1\n      sload\n      dup1\n      0x20\n      mul\n      0x20\n      add\n      mload(0x40)\n      swap1\n      dup2\n      add\n      0x40\n      mstore\n      dup1\n      swap3\n      swap2\n      swap1\n      dup2\n      dup2\n      mstore\n      0x20\n      add\n      0x00\n      swap1\n    tag_375:\n      dup3\n      dup3\n      lt\n      iszero\n      tag_376\n      jumpi\n      dup4\n      dup3\n      swap1\n      0x00\n      mstore\n      keccak256(0x00, 0x20)\n      add\n      dup1\n      sload\n      tag_378\n      swap1\n      tag_107\n      jump\t// in\n    tag_378:\n      dup1\n      0x1f\n      add\n      0x20\n      dup1\n      swap2\n      div\n      mul\n      0x20\n      add\n      mload(0x40)\n      swap1\n      dup2\n      add\n      0x40\n      mstore\n      dup1\n      swap3\n      swap2\n      swap1\n      dup2\n      dup2\n      mstore\n      0x20\n      add\n      dup3\n      dup1\n      sload\n      tag_379\n      swap1\n      tag_107\n      jump\t// in\n    tag_379:\n      dup1\n      iszero\n      tag_380\n      jumpi\n      dup1\n      0x1f\n      lt\n      tag_381\n      jumpi\n      0x0100\n      dup1\n      dup4\n      sload\n      div\n      mul\n      dup4\n      mstore\n      swap2\n      0x20\n      add\n      swap2\n      jump(tag_380)\n    tag_381:\n      dup3\n      add\n      swap2\n      swap1\n      0x00\n      mstore\n      keccak256(0x00, 0x20)\n      swap1\n    tag_382:\n      dup2\n      sload\n      dup2\n      mstore\n      swap1\n      0x01\n      add\n      swap1\n      0x20\n      add\n      dup1\n      dup4\n      gt\n      tag_382\n      jumpi\n      dup3\n      swap1\n      sub\n      0x1f\n      and\n      dup3\n      add\n      swap2\n    tag_380:\n      pop\n      pop\n      pop\n      pop\n      pop\n      dup2\n      mstore\n      0x20\n      add\n      swap1\n      0x01\n      add\n      swap1\n      jump(tag_375)\n    tag_376:\n      pop\n      pop\n      pop\n      pop\n      dup2\n      mstore\n      pop\n      pop\n      swap1\n      pop\n        /* \"contracts/Shops.sol\":5227:5231  user */\n      dup1\n        /* \"contracts/Shops.sol\":5227:5241  user.userLogin */\n      0x20\n      add\n      mload\n        /* \"contracts/Shops.sol\":5219:5241  login = user.userLogin */\n      swap6\n      pop\n        /* \"contracts/Shops.sol\":5266:5274  requests */\n      0x0a\n        /* \"contracts/Shops.sol\":5251:5274  userRequests = requests */\n      dup1\n      sload\n      dup1\n      0x20\n      mul\n      0x20\n      add\n      mload(0x40)\n      swap1\n      dup2\n      add\n      0x40\n      mstore\n      dup1\n      swap3\n      swap2\n      swap1\n      dup2\n      dup2\n      mstore\n      0x20\n      add\n      0x00\n      swap1\n    tag_383:\n      dup3\n      dup3\n      lt\n      iszero\n      tag_384\n      jumpi\n      dup4\n      dup3\n      swap1\n      0x00\n      mstore\n      keccak256(0x00, 0x20)\n      swap1\n      0x04\n      mul\n      add\n      mload(0x40)\n      dup1\n      0x80\n      add\n      0x40\n      mstore\n      swap1\n      dup2\n      0x00\n      dup3\n      add\n      0x00\n      swap1\n      sload\n      swap1\n      0x0100\n      exp\n      swap1\n      div\n      0xffffffffffffffffffffffffffffffffffffffff\n      and\n      0xffffffffffffffffffffffffffffffffffffffff\n      and\n      0xffffffffffffffffffffffffffffffffffffffff\n      and\n      dup2\n      mstore\n      0x20\n      add\n      0x01\n      dup3\n      add\n      dup1\n      sload\n      tag_386\n      swap1\n      tag_107\n      jump\t// in\n    tag_386:\n      dup1\n      0x1f\n      add\n      0x20\n      dup1\n      swap2\n      div\n      mul\n      0x20\n      add\n      mload(0x40)\n      swap1\n      dup2\n      add\n      0x40\n      mstore\n      dup1\n      swap3\n      swap2\n      swap1\n      dup2\n      dup2\n      mstore\n      0x20\n      add\n      dup3\n      dup1\n      sload\n      tag_387\n      swap1\n      tag_107\n      jump\t// in\n    tag_387:\n      dup1\n      iszero\n      tag_388\n      jumpi\n      dup1\n      0x1f\n      lt\n      tag_389\n      jumpi\n      0x0100\n      dup1\n      dup4\n      sload\n      div\n      mul\n      dup4\n      mstore\n      swap2\n      0x20\n      add\n      swap2\n      jump(tag_388)\n    tag_389:\n      dup3\n      add\n      swap2\n      swap1\n      0x00\n      mstore\n      keccak256(0x00, 0x20)\n      swap1\n    tag_390:\n      dup2\n      sload\n      dup2\n      mstore\n      swap1\n      0x01\n      add\n      swap1\n      0x20\n      add\n      dup1\n      dup4\n      gt\n      tag_390\n      jumpi\n      dup3\n      swap1\n      sub\n      0x1f\n      and\n      dup3\n      add\n      swap2\n    tag_388:\n      pop\n      pop\n      pop\n      pop\n      pop\n      dup2\n      mstore\n      0x20\n      add\n      0x02\n      dup3\n      add\n      dup1\n      sload\n      tag_391\n      swap1\n      tag_107\n      jump\t// in\n    tag_391:\n      dup1\n      0x1f\n      add\n      0x20\n      dup1\n      swap2\n      div\n      mul\n      0x20\n      add\n      mload(0x40)\n      swap1\n      dup2\n      add\n      0x40\n      mstore\n      dup1\n      swap3\n      swap2\n      swap1\n      dup2\n      dup2\n      mstore\n      0x20\n      add\n      dup3\n      dup1\n      sload\n      tag_392\n      swap1\n      tag_107\n      jump\t// in\n    tag_392:\n      dup1\n      iszero\n      tag_393\n      jumpi\n      dup1\n      0x1f\n      lt\n      tag_394\n      jumpi\n      0x0100\n      dup1\n      dup4\n      sload\n      div\n      mul\n      dup4\n      mstore\n      swap2\n      0x20\n      add\n      swap2\n      jump(tag_393)\n    tag_394:\n      dup3\n      add\n      swap2\n      swap1\n      0x00\n      mstore\n      keccak256(0x00, 0x20)\n      swap1\n    tag_395:\n      dup2\n      sload\n      dup2\n      mstore\n      swap1\n      0x01\n      add\n      swap1\n      0x20\n      add\n      dup1\n      dup4\n      gt\n      tag_395\n      jumpi\n      dup3\n      swap1\n      sub\n      0x1f\n      and\n      dup3\n      add\n      swap2\n    tag_393:\n      pop\n      pop\n      pop\n      pop\n      pop\n      dup2\n      mstore\n      0x20\n      add\n      0x03\n      dup3\n      add\n      0x00\n      swap1\n      sload\n      swap1\n      0x0100\n      exp\n      swap1\n      div\n      0xff\n      and\n      iszero\n      iszero\n      iszero\n      iszero\n      dup2\n      mstore\n      pop\n      pop\n      dup2\n      mstore\n      0x20\n      add\n      swap1\n      0x01\n      add\n      swap1\n      jump(tag_383)\n    tag_384:\n      pop\n      pop\n      pop\n      pop\n      swap5\n      pop\n        /* \"contracts/Shops.sol\":5296:5302  admins */\n      0x06\n        /* \"contracts/Shops.sol\":5284:5302  adminList = admins */\n      dup1\n      sload\n      dup1\n      0x20\n      mul\n      0x20\n      add\n      mload(0x40)\n      swap1\n      dup2\n      add\n      0x40\n      mstore\n      dup1\n      swap3\n      swap2\n      swap1\n      dup2\n      dup2\n      mstore\n      0x20\n      add\n      0x00\n      swap1\n    tag_396:\n      dup3\n      dup3\n      lt\n      iszero\n      tag_397\n      jumpi\n      dup4\n      dup3\n      swap1\n      0x00\n      mstore\n      keccak256(0x00, 0x20)\n      add\n      dup1\n      sload\n      tag_399\n      swap1\n      tag_107\n      jump\t// in\n    tag_399:\n      dup1\n      0x1f\n      add\n      0x20\n      dup1\n      swap2\n      div\n      mul\n      0x20\n      add\n      mload(0x40)\n      swap1\n      dup2\n      add\n      0x40\n      mstore\n      dup1\n      swap3\n      swap2\n      swap1\n      dup2\n      dup2\n      mstore\n      0x20\n      add\n      dup3\n      dup1\n      sload\n      tag_400\n      swap1\n      tag_107\n      jump\t// in\n    tag_400:\n      dup1\n      iszero\n      tag_401\n      jumpi\n      dup1\n      0x1f\n      lt\n      tag_402\n      jumpi\n      0x0100\n      dup1\n      dup4\n      sload\n      div\n      mul\n      dup4\n      mstore\n      swap2\n      0x20\n      add\n      swap2\n      jump(tag_401)\n    tag_402:\n      dup3\n      add\n      swap2\n      swap1\n      0x00\n      mstore\n      keccak256(0x00, 0x20)\n      swap1\n    tag_403:\n      dup2\n      sload\n      dup2\n      mstore\n      swap1\n      0x01\n      add\n      swap1\n      0x20\n      add\n      dup1\n      dup4\n      gt\n      tag_403\n      jumpi\n      dup3\n      swap1\n      sub\n      0x1f\n      and\n      dup3\n      add\n      swap2\n    tag_401:\n      pop\n      pop\n      pop\n      pop\n      pop\n      dup2\n      mstore\n      0x20\n      add\n      swap1\n      0x01\n      add\n      swap1\n      jump(tag_396)\n    tag_397:\n      pop\n      pop\n      pop\n      pop\n      swap4\n      pop\n        /* \"contracts/Shops.sol\":5326:5333  sellers */\n      0x08\n        /* \"contracts/Shops.sol\":5312:5333  sellersAddr = sellers */\n      dup1\n      sload\n      dup1\n      0x20\n      mul\n      0x20\n      add\n      mload(0x40)\n      swap1\n      dup2\n      add\n      0x40\n      mstore\n      dup1\n      swap3\n      swap2\n      swap1\n      dup2\n      dup2\n      mstore\n      0x20\n      add\n      dup3\n      dup1\n      sload\n      dup1\n      iszero\n      tag_404\n      jumpi\n      0x20\n      mul\n      dup3\n      add\n      swap2\n      swap1\n      0x00\n      mstore\n      keccak256(0x00, 0x20)\n      swap1\n    tag_405:\n      dup2\n      0x00\n      swap1\n      sload\n      swap1\n      0x0100\n      exp\n      swap1\n      div\n      0xffffffffffffffffffffffffffffffffffffffff\n      and\n      0xffffffffffffffffffffffffffffffffffffffff\n      and\n      dup2\n      mstore\n      0x20\n      add\n      swap1\n      0x01\n      add\n      swap1\n      dup1\n      dup4\n      gt\n      tag_405\n      jumpi\n    tag_404:\n      pop\n      pop\n      pop\n      pop\n      pop\n      swap3\n      pop\n        /* \"contracts/Shops.sol\":5162:5340  {... */\n      pop\n        /* \"contracts/Shops.sol\":4941:5340  function getAdminInfo() public view isUserStatus(UserRoles.admin) returns(... */\n      pop\n      swap1\n      swap2\n      swap3\n      swap4\n      jump\t// out\n        /* \"contracts/Shops.sol\":7492:7571  function requestToSeller() public isUserStatus(UserRoles.buyer){... */\n    tag_93:\n        /* \"contracts/Shops.sol\":7539:7554  UserRoles.buyer */\n      0x00\n        /* \"contracts/AuthService.sol\":1617:1622  users */\n      0x02\n        /* \"contracts/AuthService.sol\":1617:1634  users[msg.sender] */\n      0x00\n        /* \"contracts/AuthService.sol\":1623:1633  msg.sender */\n      caller\n        /* \"contracts/AuthService.sol\":1617:1634  users[msg.sender] */\n      0xffffffffffffffffffffffffffffffffffffffff\n      and\n      0xffffffffffffffffffffffffffffffffffffffff\n      and\n      dup2\n      mstore\n      0x20\n      add\n      swap1\n      dup2\n      mstore\n      0x20\n      add\n      0x00\n      keccak256\n        /* \"contracts/AuthService.sol\":1617:1641  users[msg.sender].status */\n      0x00\n      add\n      sload\n        /* \"contracts/AuthService.sol\":1606:1612  status */\n      dup2\n        /* \"contracts/AuthService.sol\":1601:1613  uint(status) */\n      0x05\n      dup2\n      gt\n      iszero\n      tag_407\n      jumpi\n      tag_408\n      tag_101\n      jump\t// in\n    tag_408:\n    tag_407:\n        /* \"contracts/AuthService.sol\":1601:1641  uint(status) == users[msg.sender].status */\n      eq\n        /* \"contracts/AuthService.sol\":1593:1654  require(uint(status) == users[msg.sender].status,\"Forbidden\") */\n      tag_409\n      jumpi\n      mload(0x40)\n      0x08c379a000000000000000000000000000000000000000000000000000000000\n      dup2\n      mstore\n      0x04\n      add\n      tag_410\n      swap1\n      tag_104\n      jump\t// in\n    tag_410:\n      mload(0x40)\n      dup1\n      swap2\n      sub\n      swap1\n      revert\n    tag_409:\n        /* \"contracts/Shops.sol\":7492:7571  function requestToSeller() public isUserStatus(UserRoles.buyer){... */\n      pop\n      jump\t// out\n        /* \"contracts/Shops.sol\":1216:1441  function registerAdmin(string memory fio,string memory userLogin) isAdmin public {... */\n    tag_97:\n        /* \"contracts/Shops.sol\":1058:1063  admin */\n      0x05\n      0x00\n      swap1\n      sload\n      swap1\n      0x0100\n      exp\n      swap1\n      div\n      0xffffffffffffffffffffffffffffffffffffffff\n      and\n        /* \"contracts/Shops.sol\":1044:1063  msg.sender == admin */\n      0xffffffffffffffffffffffffffffffffffffffff\n      and\n        /* \"contracts/Shops.sol\":1044:1054  msg.sender */\n      caller\n        /* \"contracts/Shops.sol\":1044:1063  msg.sender == admin */\n      0xffffffffffffffffffffffffffffffffffffffff\n      and\n      eq\n        /* \"contracts/Shops.sol\":1036:1080  require(msg.sender == admin,\"You not admin\") */\n      tag_413\n      jumpi\n      mload(0x40)\n      0x08c379a000000000000000000000000000000000000000000000000000000000\n      dup2\n      mstore\n      0x04\n      add\n      tag_414\n      swap1\n      tag_138\n      jump\t// in\n    tag_414:\n      mload(0x40)\n      dup1\n      swap2\n      sub\n      swap1\n      revert\n    tag_413:\n        /* \"contracts/Shops.sol\":1307:1318  uint status */\n      0x00\n        /* \"contracts/Shops.sol\":1326:1341  UserRoles.admin */\n      0x03\n        /* \"contracts/Shops.sol\":1321:1342  uint(UserRoles.admin) */\n      0x05\n      dup2\n      gt\n      iszero\n      tag_416\n      jumpi\n      tag_417\n      tag_101\n      jump\t// in\n    tag_417:\n    tag_416:\n        /* \"contracts/Shops.sol\":1307:1342  uint status = uint(UserRoles.admin) */\n      swap1\n      pop\n        /* \"contracts/Shops.sol\":1352:1402  registerFromAdmin(fio,userLogin,status,msg.sender) */\n      tag_418\n        /* \"contracts/Shops.sol\":1370:1373  fio */\n      dup4\n        /* \"contracts/Shops.sol\":1374:1383  userLogin */\n      dup4\n        /* \"contracts/Shops.sol\":1384:1390  status */\n      dup4\n        /* \"contracts/Shops.sol\":1391:1401  msg.sender */\n      caller\n        /* \"contracts/Shops.sol\":1352:1369  registerFromAdmin */\n      tag_143\n        /* \"contracts/Shops.sol\":1352:1402  registerFromAdmin(fio,userLogin,status,msg.sender) */\n      jump\t// in\n    tag_418:\n        /* \"contracts/Shops.sol\":1412:1418  admins */\n      0x06\n        /* \"contracts/Shops.sol\":1424:1433  userLogin */\n      dup3\n        /* \"contracts/Shops.sol\":1412:1434  admins.push(userLogin) */\n      swap1\n      dup1\n      0x01\n      dup2\n      sload\n      add\n      dup1\n      dup3\n      sstore\n      dup1\n      swap2\n      pop\n      pop\n      0x01\n      swap1\n      sub\n      swap1\n      0x00\n      mstore\n      keccak256(0x00, 0x20)\n      add\n      0x00\n      swap1\n      swap2\n      swap1\n      swap2\n      swap1\n      swap2\n      pop\n      swap1\n      dup1\n      mload\n      swap1\n      0x20\n      add\n      swap1\n      tag_420\n      swap3\n      swap2\n      swap1\n      tag_158\n      jump\t// in\n    tag_420:\n      pop\n        /* \"contracts/Shops.sol\":1297:1441  {... */\n      pop\n        /* \"contracts/Shops.sol\":1216:1441  function registerAdmin(string memory fio,string memory userLogin) isAdmin public {... */\n      pop\n      pop\n      jump\t// out\n        /* \"contracts/AuthService.sol\":1875:2250  function registerFromAdmin(string memory fio,string memory userLogin,uint status,address userAddress) internal isNotRegistered(userAddress,userLogin){... */\n    tag_143:\n        /* \"contracts/AuthService.sol\":2002:2013  userAddress */\n      dup1\n        /* \"contracts/AuthService.sol\":2014:2023  userLogin */\n      dup4\n        /* \"contracts/AuthService.sol\":1039:1073  compare(users[userAddress].fio,\"\") */\n      tag_422\n        /* \"contracts/AuthService.sol\":1047:1052  users */\n      0x02\n        /* \"contracts/AuthService.sol\":1047:1065  users[userAddress] */\n      0x00\n        /* \"contracts/AuthService.sol\":1053:1064  userAddress */\n      dup5\n        /* \"contracts/AuthService.sol\":1047:1065  users[userAddress] */\n      0xffffffffffffffffffffffffffffffffffffffff\n      and\n      0xffffffffffffffffffffffffffffffffffffffff\n      and\n      dup2\n      mstore\n      0x20\n      add\n      swap1\n      dup2\n      mstore\n      0x20\n      add\n      0x00\n      keccak256\n        /* \"contracts/AuthService.sol\":1047:1069  users[userAddress].fio */\n      0x02\n      add\n        /* \"contracts/AuthService.sol\":1039:1073  compare(users[userAddress].fio,\"\") */\n      dup1\n      sload\n      tag_423\n      swap1\n      tag_107\n      jump\t// in\n    tag_423:\n      dup1\n      0x1f\n      add\n      0x20\n      dup1\n      swap2\n      div\n      mul\n      0x20\n      add\n      mload(0x40)\n      swap1\n      dup2\n      add\n      0x40\n      mstore\n      dup1\n      swap3\n      swap2\n      swap1\n      dup2\n      dup2\n      mstore\n      0x20\n      add\n      dup3\n      dup1\n      sload\n      tag_424\n      swap1\n      tag_107\n      jump\t// in\n    tag_424:\n      dup1\n      iszero\n      tag_425\n      jumpi\n      dup1\n      0x1f\n      lt\n      tag_426\n      jumpi\n      0x0100\n      dup1\n      dup4\n      sload\n      div\n      mul\n      dup4\n      mstore\n      swap2\n      0x20\n      add\n      swap2\n      jump(tag_425)\n    tag_426:\n      dup3\n      add\n      swap2\n      swap1\n      0x00\n      mstore\n      keccak256(0x00, 0x20)\n      swap1\n    tag_427:\n      dup2\n      sload\n      dup2\n      mstore\n      swap1\n      0x01\n      add\n      swap1\n      0x20\n      add\n      dup1\n      dup4\n      gt\n      tag_427\n      jumpi\n      dup3\n      swap1\n      sub\n      0x1f\n      and\n      dup3\n      add\n      swap2\n    tag_425:\n      pop\n      pop\n      pop\n      pop\n      pop\n      mload(0x40)\n      dup1\n      0x20\n      add\n      0x40\n      mstore\n      dup1\n      0x00\n      dup2\n      mstore\n      pop\n        /* \"contracts/AuthService.sol\":1039:1046  compare */\n      tag_151\n        /* \"contracts/AuthService.sol\":1039:1073  compare(users[userAddress].fio,\"\") */\n      jump\t// in\n    tag_422:\n        /* \"contracts/AuthService.sol\":1038:1073  !compare(users[userAddress].fio,\"\") */\n      iszero\n        /* \"contracts/AuthService.sol\":1030:1099  require(!compare(users[userAddress].fio,\"\"),\"You already registered\") */\n      tag_428\n      jumpi\n      mload(0x40)\n      0x08c379a000000000000000000000000000000000000000000000000000000000\n      dup2\n      mstore\n      0x04\n      add\n      tag_429\n      swap1\n      tag_430\n      jump\t// in\n    tag_429:\n      mload(0x40)\n      dup1\n      swap2\n      sub\n      swap1\n      revert\n    tag_428:\n        /* \"contracts/AuthService.sol\":1150:1151  0 */\n      0x00\n        /* \"contracts/AuthService.sol\":1117:1152  userLogins[userLogin] == address(0) */\n      0xffffffffffffffffffffffffffffffffffffffff\n      and\n        /* \"contracts/AuthService.sol\":1117:1127  userLogins */\n      0x01\n        /* \"contracts/AuthService.sol\":1128:1137  userLogin */\n      dup3\n        /* \"contracts/AuthService.sol\":1117:1138  userLogins[userLogin] */\n      mload(0x40)\n      tag_431\n      swap2\n      swap1\n      tag_162\n      jump\t// in\n    tag_431:\n      swap1\n      dup2\n      mstore\n      0x20\n      add\n      mload(0x40)\n      dup1\n      swap2\n      sub\n      swap1\n      keccak256\n      0x00\n      swap1\n      sload\n      swap1\n      0x0100\n      exp\n      swap1\n      div\n      0xffffffffffffffffffffffffffffffffffffffff\n      and\n        /* \"contracts/AuthService.sol\":1117:1152  userLogins[userLogin] == address(0) */\n      0xffffffffffffffffffffffffffffffffffffffff\n      and\n      eq\n        /* \"contracts/AuthService.sol\":1109:1190  require(userLogins[userLogin] == address(0),\"Your login already exist in system\") */\n      tag_432\n      jumpi\n      mload(0x40)\n      0x08c379a000000000000000000000000000000000000000000000000000000000\n      dup2\n      mstore\n      0x04\n      add\n      tag_433\n      swap1\n      tag_434\n      jump\t// in\n    tag_433:\n      mload(0x40)\n      dup1\n      swap2\n      sub\n      swap1\n      revert\n    tag_432:\n        /* \"contracts/AuthService.sol\":2034:2060  string[] memory reviewList */\n      0x60\n        /* \"contracts/AuthService.sol\":2070:2089  User memory newUser */\n      0x00\n        /* \"contracts/AuthService.sol\":2092:2160  User({fio:fio,userLogin:userLogin,status:status,reviews:reviewList}) */\n      mload(0x40)\n      dup1\n      0x80\n      add\n      0x40\n      mstore\n      dup1\n        /* \"contracts/AuthService.sol\":2133:2139  status */\n      dup8\n        /* \"contracts/AuthService.sol\":2092:2160  User({fio:fio,userLogin:userLogin,status:status,reviews:reviewList}) */\n      dup2\n      mstore\n      0x20\n      add\n        /* \"contracts/AuthService.sol\":2116:2125  userLogin */\n      dup9\n        /* \"contracts/AuthService.sol\":2092:2160  User({fio:fio,userLogin:userLogin,status:status,reviews:reviewList}) */\n      dup2\n      mstore\n      0x20\n      add\n        /* \"contracts/AuthService.sol\":2102:2105  fio */\n      dup10\n        /* \"contracts/AuthService.sol\":2092:2160  User({fio:fio,userLogin:userLogin,status:status,reviews:reviewList}) */\n      dup2\n      mstore\n      0x20\n      add\n        /* \"contracts/AuthService.sol\":2148:2158  reviewList */\n      dup4\n        /* \"contracts/AuthService.sol\":2092:2160  User({fio:fio,userLogin:userLogin,status:status,reviews:reviewList}) */\n      dup2\n      mstore\n      pop\n        /* \"contracts/AuthService.sol\":2070:2160  User memory newUser = User({fio:fio,userLogin:userLogin,status:status,reviews:reviewList}) */\n      swap1\n      pop\n        /* \"contracts/AuthService.sol\":2194:2205  userAddress */\n      dup5\n        /* \"contracts/AuthService.sol\":2170:2180  userLogins */\n      0x01\n        /* \"contracts/AuthService.sol\":2181:2190  userLogin */\n      dup9\n        /* \"contracts/AuthService.sol\":2170:2191  userLogins[userLogin] */\n      mload(0x40)\n      tag_436\n      swap2\n      swap1\n      tag_162\n      jump\t// in\n    tag_436:\n      swap1\n      dup2\n      mstore\n      0x20\n      add\n      mload(0x40)\n      dup1\n      swap2\n      sub\n      swap1\n      keccak256\n      0x00\n        /* \"contracts/AuthService.sol\":2170:2205  userLogins[userLogin] = userAddress */\n      0x0100\n      exp\n      dup2\n      sload\n      dup2\n      0xffffffffffffffffffffffffffffffffffffffff\n      mul\n      not\n      and\n      swap1\n      dup4\n      0xffffffffffffffffffffffffffffffffffffffff\n      and\n      mul\n      or\n      swap1\n      sstore\n      pop\n        /* \"contracts/AuthService.sol\":2236:2243  newUser */\n      dup1\n        /* \"contracts/AuthService.sol\":2215:2220  users */\n      0x02\n        /* \"contracts/AuthService.sol\":2215:2233  users[userAddress] */\n      0x00\n        /* \"contracts/AuthService.sol\":2221:2232  userAddress */\n      dup8\n        /* \"contracts/AuthService.sol\":2215:2233  users[userAddress] */\n      0xffffffffffffffffffffffffffffffffffffffff\n      and\n      0xffffffffffffffffffffffffffffffffffffffff\n      and\n      dup2\n      mstore\n      0x20\n      add\n      swap1\n      dup2\n      mstore\n      0x20\n      add\n      0x00\n      keccak256\n        /* \"contracts/AuthService.sol\":2215:2243  users[userAddress] = newUser */\n      0x00\n      dup3\n      add\n      mload\n      dup2\n      0x00\n      add\n      sstore\n      0x20\n      dup3\n      add\n      mload\n      dup2\n      0x01\n      add\n      swap1\n      dup1\n      mload\n      swap1\n      0x20\n      add\n      swap1\n      tag_437\n      swap3\n      swap2\n      swap1\n      tag_158\n      jump\t// in\n    tag_437:\n      pop\n      0x40\n      dup3\n      add\n      mload\n      dup2\n      0x02\n      add\n      swap1\n      dup1\n      mload\n      swap1\n      0x20\n      add\n      swap1\n      tag_438\n      swap3\n      swap2\n      swap1\n      tag_158\n      jump\t// in\n    tag_438:\n      pop\n      0x60\n      dup3\n      add\n      mload\n      dup2\n      0x03\n      add\n      swap1\n      dup1\n      mload\n      swap1\n      0x20\n      add\n      swap1\n      tag_439\n      swap3\n      swap2\n      swap1\n      tag_440\n      jump\t// in\n    tag_439:\n      pop\n      swap1\n      pop\n      pop\n        /* \"contracts/AuthService.sol\":2024:2250  {... */\n      pop\n      pop\n        /* \"contracts/AuthService.sol\":1875:2250  function registerFromAdmin(string memory fio,string memory userLogin,uint status,address userAddress) internal isNotRegistered(userAddress,userLogin){... */\n      pop\n      pop\n      pop\n      pop\n      pop\n      pop\n      jump\t// out\n        /* \"contracts/AuthService.sol\":779:945  function compare(string memory a,string memory b) internal pure returns (bool){... */\n    tag_151:\n        /* \"contracts/AuthService.sol\":852:856  bool */\n      0x00\n        /* \"contracts/AuthService.sol\":935:936  b */\n      dup2\n        /* \"contracts/AuthService.sol\":918:937  abi.encodePacked(b) */\n      add(0x20, mload(0x40))\n      tag_442\n      swap2\n      swap1\n      tag_162\n      jump\t// in\n    tag_442:\n      mload(0x40)\n      0x20\n      dup2\n      dup4\n      sub\n      sub\n      dup2\n      mstore\n      swap1\n      0x40\n      mstore\n        /* \"contracts/AuthService.sol\":908:938  keccak256(abi.encodePacked(b)) */\n      dup1\n      mload\n      swap1\n      0x20\n      add\n      keccak256\n        /* \"contracts/AuthService.sol\":901:902  a */\n      dup4\n        /* \"contracts/AuthService.sol\":884:903  abi.encodePacked(a) */\n      add(0x20, mload(0x40))\n      tag_443\n      swap2\n      swap1\n      tag_162\n      jump\t// in\n    tag_443:\n      mload(0x40)\n      0x20\n      dup2\n      dup4\n      sub\n      sub\n      dup2\n      mstore\n      swap1\n      0x40\n      mstore\n        /* \"contracts/AuthService.sol\":874:904  keccak256(abi.encodePacked(a)) */\n      dup1\n      mload\n      swap1\n      0x20\n      add\n      keccak256\n        /* \"contracts/AuthService.sol\":874:938  keccak256(abi.encodePacked(a)) == keccak256(abi.encodePacked(b)) */\n      eq\n        /* \"contracts/AuthService.sol\":867:938  return keccak256(abi.encodePacked(a)) == keccak256(abi.encodePacked(b)) */\n      swap1\n      pop\n        /* \"contracts/AuthService.sol\":779:945  function compare(string memory a,string memory b) internal pure returns (bool){... */\n      swap3\n      swap2\n      pop\n      pop\n      jump\t// out\n    tag_158:\n      dup3\n      dup1\n      sload\n      tag_444\n      swap1\n      tag_107\n      jump\t// in\n    tag_444:\n      swap1\n      0x00\n      mstore\n      keccak256(0x00, 0x20)\n      swap1\n      0x1f\n      add\n      0x20\n      swap1\n      div\n      dup2\n      add\n      swap3\n      dup3\n      tag_446\n      jumpi\n      0x00\n      dup6\n      sstore\n      jump(tag_445)\n    tag_446:\n      dup3\n      0x1f\n      lt\n      tag_447\n      jumpi\n      dup1\n      mload\n      not(0xff)\n      and\n      dup4\n      dup1\n      add\n      or\n      dup6\n      sstore\n      jump(tag_445)\n    tag_447:\n      dup3\n      dup1\n      add\n      0x01\n      add\n      dup6\n      sstore\n      dup3\n      iszero\n      tag_445\n      jumpi\n      swap2\n      dup3\n      add\n    tag_448:\n      dup3\n      dup2\n      gt\n      iszero\n      tag_449\n      jumpi\n      dup3\n      mload\n      dup3\n      sstore\n      swap2\n      0x20\n      add\n      swap2\n      swap1\n      0x01\n      add\n      swap1\n      jump(tag_448)\n    tag_449:\n    tag_445:\n      pop\n      swap1\n      pop\n      tag_450\n      swap2\n      swap1\n      tag_451\n      jump\t// in\n    tag_450:\n      pop\n      swap1\n      jump\t// out\n    tag_165:\n      dup3\n      dup1\n      sload\n      dup3\n      dup3\n      sstore\n      swap1\n      0x00\n      mstore\n      keccak256(0x00, 0x20)\n      swap1\n      dup2\n      add\n      swap3\n      dup3\n      iszero\n      tag_452\n      jumpi\n      swap2\n      0x20\n      mul\n      dup3\n      add\n    tag_453:\n      dup3\n      dup2\n      gt\n      iszero\n      tag_454\n      jumpi\n      dup3\n      mload\n      dup3\n      exp(0x0100, 0x00)\n      dup2\n      sload\n      dup2\n      0xffffffffffffffffffffffffffffffffffffffff\n      mul\n      not\n      and\n      swap1\n      dup4\n      0xffffffffffffffffffffffffffffffffffffffff\n      and\n      mul\n      or\n      swap1\n      sstore\n      pop\n      swap2\n      0x20\n      add\n      swap2\n      swap1\n      0x01\n      add\n      swap1\n      jump(tag_453)\n    tag_454:\n    tag_452:\n      pop\n      swap1\n      pop\n      tag_455\n      swap2\n      swap1\n      tag_451\n      jump\t// in\n    tag_455:\n      pop\n      swap1\n      jump\t// out\n    tag_440:\n      dup3\n      dup1\n      sload\n      dup3\n      dup3\n      sstore\n      swap1\n      0x00\n      mstore\n      keccak256(0x00, 0x20)\n      swap1\n      dup2\n      add\n      swap3\n      dup3\n      iszero\n      tag_456\n      jumpi\n      swap2\n      0x20\n      mul\n      dup3\n      add\n    tag_457:\n      dup3\n      dup2\n      gt\n      iszero\n      tag_458\n      jumpi\n      dup3\n      mload\n      dup3\n      swap1\n      dup1\n      mload\n      swap1\n      0x20\n      add\n      swap1\n      tag_459\n      swap3\n      swap2\n      swap1\n      tag_158\n      jump\t// in\n    tag_459:\n      pop\n      swap2\n      0x20\n      add\n      swap2\n      swap1\n      0x01\n      add\n      swap1\n      jump(tag_457)\n    tag_458:\n    tag_456:\n      pop\n      swap1\n      pop\n      tag_460\n      swap2\n      swap1\n      tag_461\n      jump\t// in\n    tag_460:\n      pop\n      swap1\n      jump\t// out\n    tag_451:\n    tag_462:\n      dup1\n      dup3\n      gt\n      iszero\n      tag_463\n      jumpi\n      0x00\n      dup2\n      0x00\n      swap1\n      sstore\n      pop\n      0x01\n      add\n      jump(tag_462)\n    tag_463:\n      pop\n      swap1\n      jump\t// out\n    tag_461:\n    tag_464:\n      dup1\n      dup3\n      gt\n      iszero\n      tag_465\n      jumpi\n      0x00\n      dup2\n      dup2\n      tag_466\n      swap2\n      swap1\n      tag_467\n      jump\t// in\n    tag_466:\n      pop\n      0x01\n      add\n      jump(tag_464)\n    tag_465:\n      pop\n      swap1\n      jump\t// out\n    tag_467:\n      pop\n      dup1\n      sload\n      tag_468\n      swap1\n      tag_107\n      jump\t// in\n    tag_468:\n      0x00\n      dup3\n      sstore\n      dup1\n      0x1f\n      lt\n      tag_470\n      jumpi\n      pop\n      jump(tag_469)\n    tag_470:\n      0x1f\n      add\n      0x20\n      swap1\n      div\n      swap1\n      0x00\n      mstore\n      keccak256(0x00, 0x20)\n      swap1\n      dup2\n      add\n      swap1\n      tag_471\n      swap2\n      swap1\n      tag_451\n      jump\t// in\n    tag_471:\n    tag_469:\n      pop\n      jump\t// out\n        /* \"#utility.yul\":7:419   */\n    tag_473:\n        /* \"#utility.yul\":85:90   */\n      0x00\n        /* \"#utility.yul\":110:176   */\n      tag_475\n        /* \"#utility.yul\":126:175   */\n      tag_476\n        /* \"#utility.yul\":168:174   */\n      dup5\n        /* \"#utility.yul\":126:175   */\n      tag_477\n      jump\t// in\n    tag_476:\n        /* \"#utility.yul\":110:176   */\n      tag_478\n      jump\t// in\n    tag_475:\n        /* \"#utility.yul\":101:176   */\n      swap1\n      pop\n        /* \"#utility.yul\":199:205   */\n      dup3\n        /* \"#utility.yul\":192:197   */\n      dup2\n        /* \"#utility.yul\":185:206   */\n      mstore\n        /* \"#utility.yul\":237:241   */\n      0x20\n        /* \"#utility.yul\":230:235   */\n      dup2\n        /* \"#utility.yul\":226:242   */\n      add\n        /* \"#utility.yul\":275:278   */\n      dup5\n        /* \"#utility.yul\":266:272   */\n      dup5\n        /* \"#utility.yul\":261:264   */\n      dup5\n        /* \"#utility.yul\":257:273   */\n      add\n        /* \"#utility.yul\":254:279   */\n      gt\n        /* \"#utility.yul\":251:363   */\n      iszero\n      tag_479\n      jumpi\n        /* \"#utility.yul\":282:361   */\n      tag_480\n      tag_481\n      jump\t// in\n    tag_480:\n        /* \"#utility.yul\":251:363   */\n    tag_479:\n        /* \"#utility.yul\":372:413   */\n      tag_482\n        /* \"#utility.yul\":406:412   */\n      dup5\n        /* \"#utility.yul\":401:404   */\n      dup3\n        /* \"#utility.yul\":396:399   */\n      dup6\n        /* \"#utility.yul\":372:413   */\n      tag_483\n      jump\t// in\n    tag_482:\n        /* \"#utility.yul\":91:419   */\n      pop\n        /* \"#utility.yul\":7:419   */\n      swap4\n      swap3\n      pop\n      pop\n      pop\n      jump\t// out\n        /* \"#utility.yul\":425:564   */\n    tag_484:\n        /* \"#utility.yul\":471:476   */\n      0x00\n        /* \"#utility.yul\":509:515   */\n      dup2\n        /* \"#utility.yul\":496:516   */\n      calldataload\n        /* \"#utility.yul\":487:516   */\n      swap1\n      pop\n        /* \"#utility.yul\":525:558   */\n      tag_486\n        /* \"#utility.yul\":552:557   */\n      dup2\n        /* \"#utility.yul\":525:558   */\n      tag_487\n      jump\t// in\n    tag_486:\n        /* \"#utility.yul\":425:564   */\n      swap3\n      swap2\n      pop\n      pop\n      jump\t// out\n        /* \"#utility.yul\":570:725   */\n    tag_488:\n        /* \"#utility.yul\":624:629   */\n      0x00\n        /* \"#utility.yul\":662:668   */\n      dup2\n        /* \"#utility.yul\":649:669   */\n      calldataload\n        /* \"#utility.yul\":640:669   */\n      swap1\n      pop\n        /* \"#utility.yul\":678:719   */\n      tag_490\n        /* \"#utility.yul\":713:718   */\n      dup2\n        /* \"#utility.yul\":678:719   */\n      tag_491\n      jump\t// in\n    tag_490:\n        /* \"#utility.yul\":570:725   */\n      swap3\n      swap2\n      pop\n      pop\n      jump\t// out\n        /* \"#utility.yul\":731:868   */\n    tag_492:\n        /* \"#utility.yul\":776:781   */\n      0x00\n        /* \"#utility.yul\":814:820   */\n      dup2\n        /* \"#utility.yul\":801:821   */\n      calldataload\n        /* \"#utility.yul\":792:821   */\n      swap1\n      pop\n        /* \"#utility.yul\":830:862   */\n      tag_494\n        /* \"#utility.yul\":856:861   */\n      dup2\n        /* \"#utility.yul\":830:862   */\n      tag_495\n      jump\t// in\n    tag_494:\n        /* \"#utility.yul\":731:868   */\n      swap3\n      swap2\n      pop\n      pop\n      jump\t// out\n        /* \"#utility.yul\":888:1228   */\n    tag_496:\n        /* \"#utility.yul\":944:949   */\n      0x00\n        /* \"#utility.yul\":993:996   */\n      dup3\n        /* \"#utility.yul\":986:990   */\n      0x1f\n        /* \"#utility.yul\":978:984   */\n      dup4\n        /* \"#utility.yul\":974:991   */\n      add\n        /* \"#utility.yul\":970:997   */\n      slt\n        /* \"#utility.yul\":960:1082   */\n      tag_498\n      jumpi\n        /* \"#utility.yul\":1001:1080   */\n      tag_499\n      tag_500\n      jump\t// in\n    tag_499:\n        /* \"#utility.yul\":960:1082   */\n    tag_498:\n        /* \"#utility.yul\":1118:1124   */\n      dup2\n        /* \"#utility.yul\":1105:1125   */\n      calldataload\n        /* \"#utility.yul\":1143:1222   */\n      tag_501\n        /* \"#utility.yul\":1218:1221   */\n      dup5\n        /* \"#utility.yul\":1210:1216   */\n      dup3\n        /* \"#utility.yul\":1203:1207   */\n      0x20\n        /* \"#utility.yul\":1195:1201   */\n      dup7\n        /* \"#utility.yul\":1191:1208   */\n      add\n        /* \"#utility.yul\":1143:1222   */\n      tag_473\n      jump\t// in\n    tag_501:\n        /* \"#utility.yul\":1134:1222   */\n      swap2\n      pop\n        /* \"#utility.yul\":950:1228   */\n      pop\n        /* \"#utility.yul\":888:1228   */\n      swap3\n      swap2\n      pop\n      pop\n      jump\t// out\n        /* \"#utility.yul\":1234:1563   */\n    tag_27:\n        /* \"#utility.yul\":1293:1299   */\n      0x00\n        /* \"#utility.yul\":1342:1344   */\n      0x20\n        /* \"#utility.yul\":1330:1339   */\n      dup3\n        /* \"#utility.yul\":1321:1328   */\n      dup5\n        /* \"#utility.yul\":1317:1340   */\n      sub\n        /* \"#utility.yul\":1313:1345   */\n      slt\n        /* \"#utility.yul\":1310:1429   */\n      iszero\n      tag_503\n      jumpi\n        /* \"#utility.yul\":1348:1427   */\n      tag_504\n      tag_505\n      jump\t// in\n    tag_504:\n        /* \"#utility.yul\":1310:1429   */\n    tag_503:\n        /* \"#utility.yul\":1468:1469   */\n      0x00\n        /* \"#utility.yul\":1493:1546   */\n      tag_506\n        /* \"#utility.yul\":1538:1545   */\n      dup5\n        /* \"#utility.yul\":1529:1535   */\n      dup3\n        /* \"#utility.yul\":1518:1527   */\n      dup6\n        /* \"#utility.yul\":1514:1536   */\n      add\n        /* \"#utility.yul\":1493:1546   */\n      tag_484\n      jump\t// in\n    tag_506:\n        /* \"#utility.yul\":1483:1546   */\n      swap2\n      pop\n        /* \"#utility.yul\":1439:1556   */\n      pop\n        /* \"#utility.yul\":1234:1563   */\n      swap3\n      swap2\n      pop\n      pop\n      jump\t// out\n        /* \"#utility.yul\":1569:1914   */\n    tag_65:\n        /* \"#utility.yul\":1636:1642   */\n      0x00\n        /* \"#utility.yul\":1685:1687   */\n      0x20\n        /* \"#utility.yul\":1673:1682   */\n      dup3\n        /* \"#utility.yul\":1664:1671   */\n      dup5\n        /* \"#utility.yul\":1660:1683   */\n      sub\n        /* \"#utility.yul\":1656:1688   */\n      slt\n        /* \"#utility.yul\":1653:1772   */\n      iszero\n      tag_508\n      jumpi\n        /* \"#utility.yul\":1691:1770   */\n      tag_509\n      tag_505\n      jump\t// in\n    tag_509:\n        /* \"#utility.yul\":1653:1772   */\n    tag_508:\n        /* \"#utility.yul\":1811:1812   */\n      0x00\n        /* \"#utility.yul\":1836:1897   */\n      tag_510\n        /* \"#utility.yul\":1889:1896   */\n      dup5\n        /* \"#utility.yul\":1880:1886   */\n      dup3\n        /* \"#utility.yul\":1869:1878   */\n      dup6\n        /* \"#utility.yul\":1865:1887   */\n      add\n        /* \"#utility.yul\":1836:1897   */\n      tag_488\n      jump\t// in\n    tag_510:\n        /* \"#utility.yul\":1826:1897   */\n      swap2\n      pop\n        /* \"#utility.yul\":1782:1907   */\n      pop\n        /* \"#utility.yul\":1569:1914   */\n      swap3\n      swap2\n      pop\n      pop\n      jump\t// out\n        /* \"#utility.yul\":1920:2899   */\n    tag_83:\n        /* \"#utility.yul\":2017:2023   */\n      0x00\n        /* \"#utility.yul\":2025:2031   */\n      dup1\n        /* \"#utility.yul\":2033:2039   */\n      0x00\n        /* \"#utility.yul\":2082:2084   */\n      0x60\n        /* \"#utility.yul\":2070:2079   */\n      dup5\n        /* \"#utility.yul\":2061:2068   */\n      dup7\n        /* \"#utility.yul\":2057:2080   */\n      sub\n        /* \"#utility.yul\":2053:2085   */\n      slt\n        /* \"#utility.yul\":2050:2169   */\n      iszero\n      tag_512\n      jumpi\n        /* \"#utility.yul\":2088:2167   */\n      tag_513\n      tag_505\n      jump\t// in\n    tag_513:\n        /* \"#utility.yul\":2050:2169   */\n    tag_512:\n        /* \"#utility.yul\":2208:2209   */\n      0x00\n        /* \"#utility.yul\":2233:2286   */\n      tag_514\n        /* \"#utility.yul\":2278:2285   */\n      dup7\n        /* \"#utility.yul\":2269:2275   */\n      dup3\n        /* \"#utility.yul\":2258:2267   */\n      dup8\n        /* \"#utility.yul\":2254:2276   */\n      add\n        /* \"#utility.yul\":2233:2286   */\n      tag_484\n      jump\t// in\n    tag_514:\n        /* \"#utility.yul\":2223:2286   */\n      swap4\n      pop\n        /* \"#utility.yul\":2179:2296   */\n      pop\n        /* \"#utility.yul\":2363:2365   */\n      0x20\n        /* \"#utility.yul\":2352:2361   */\n      dup5\n        /* \"#utility.yul\":2348:2366   */\n      add\n        /* \"#utility.yul\":2335:2367   */\n      calldataload\n        /* \"#utility.yul\":2394:2412   */\n      0xffffffffffffffff\n        /* \"#utility.yul\":2386:2392   */\n      dup2\n        /* \"#utility.yul\":2383:2413   */\n      gt\n        /* \"#utility.yul\":2380:2497   */\n      iszero\n      tag_515\n      jumpi\n        /* \"#utility.yul\":2416:2495   */\n      tag_516\n      tag_517\n      jump\t// in\n    tag_516:\n        /* \"#utility.yul\":2380:2497   */\n    tag_515:\n        /* \"#utility.yul\":2521:2584   */\n      tag_518\n        /* \"#utility.yul\":2576:2583   */\n      dup7\n        /* \"#utility.yul\":2567:2573   */\n      dup3\n        /* \"#utility.yul\":2556:2565   */\n      dup8\n        /* \"#utility.yul\":2552:2574   */\n      add\n        /* \"#utility.yul\":2521:2584   */\n      tag_496\n      jump\t// in\n    tag_518:\n        /* \"#utility.yul\":2511:2584   */\n      swap3\n      pop\n        /* \"#utility.yul\":2306:2594   */\n      pop\n        /* \"#utility.yul\":2661:2663   */\n      0x40\n        /* \"#utility.yul\":2650:2659   */\n      dup5\n        /* \"#utility.yul\":2646:2664   */\n      add\n        /* \"#utility.yul\":2633:2665   */\n      calldataload\n        /* \"#utility.yul\":2692:2710   */\n      0xffffffffffffffff\n        /* \"#utility.yul\":2684:2690   */\n      dup2\n        /* \"#utility.yul\":2681:2711   */\n      gt\n        /* \"#utility.yul\":2678:2795   */\n      iszero\n      tag_519\n      jumpi\n        /* \"#utility.yul\":2714:2793   */\n      tag_520\n      tag_517\n      jump\t// in\n    tag_520:\n        /* \"#utility.yul\":2678:2795   */\n    tag_519:\n        /* \"#utility.yul\":2819:2882   */\n      tag_521\n        /* \"#utility.yul\":2874:2881   */\n      dup7\n        /* \"#utility.yul\":2865:2871   */\n      dup3\n        /* \"#utility.yul\":2854:2863   */\n      dup8\n        /* \"#utility.yul\":2850:2872   */\n      add\n        /* \"#utility.yul\":2819:2882   */\n      tag_496\n      jump\t// in\n    tag_521:\n        /* \"#utility.yul\":2809:2882   */\n      swap2\n      pop\n        /* \"#utility.yul\":2604:2892   */\n      pop\n        /* \"#utility.yul\":1920:2899   */\n      swap3\n      pop\n      swap3\n      pop\n      swap3\n      jump\t// out\n        /* \"#utility.yul\":2905:4028   */\n    tag_37:\n        /* \"#utility.yul\":3010:3016   */\n      0x00\n        /* \"#utility.yul\":3018:3024   */\n      dup1\n        /* \"#utility.yul\":3026:3032   */\n      0x00\n        /* \"#utility.yul\":3034:3040   */\n      dup1\n        /* \"#utility.yul\":3083:3086   */\n      0x80\n        /* \"#utility.yul\":3071:3080   */\n      dup6\n        /* \"#utility.yul\":3062:3069   */\n      dup8\n        /* \"#utility.yul\":3058:3081   */\n      sub\n        /* \"#utility.yul\":3054:3087   */\n      slt\n        /* \"#utility.yul\":3051:3171   */\n      iszero\n      tag_523\n      jumpi\n        /* \"#utility.yul\":3090:3169   */\n      tag_524\n      tag_505\n      jump\t// in\n    tag_524:\n        /* \"#utility.yul\":3051:3171   */\n    tag_523:\n        /* \"#utility.yul\":3210:3211   */\n      0x00\n        /* \"#utility.yul\":3235:3288   */\n      tag_525\n        /* \"#utility.yul\":3280:3287   */\n      dup8\n        /* \"#utility.yul\":3271:3277   */\n      dup3\n        /* \"#utility.yul\":3260:3269   */\n      dup9\n        /* \"#utility.yul\":3256:3278   */\n      add\n        /* \"#utility.yul\":3235:3288   */\n      tag_484\n      jump\t// in\n    tag_525:\n        /* \"#utility.yul\":3225:3288   */\n      swap5\n      pop\n        /* \"#utility.yul\":3181:3298   */\n      pop\n        /* \"#utility.yul\":3365:3367   */\n      0x20\n        /* \"#utility.yul\":3354:3363   */\n      dup6\n        /* \"#utility.yul\":3350:3368   */\n      add\n        /* \"#utility.yul\":3337:3369   */\n      calldataload\n        /* \"#utility.yul\":3396:3414   */\n      0xffffffffffffffff\n        /* \"#utility.yul\":3388:3394   */\n      dup2\n        /* \"#utility.yul\":3385:3415   */\n      gt\n        /* \"#utility.yul\":3382:3499   */\n      iszero\n      tag_526\n      jumpi\n        /* \"#utility.yul\":3418:3497   */\n      tag_527\n      tag_517\n      jump\t// in\n    tag_527:\n        /* \"#utility.yul\":3382:3499   */\n    tag_526:\n        /* \"#utility.yul\":3523:3586   */\n      tag_528\n        /* \"#utility.yul\":3578:3585   */\n      dup8\n        /* \"#utility.yul\":3569:3575   */\n      dup3\n        /* \"#utility.yul\":3558:3567   */\n      dup9\n        /* \"#utility.yul\":3554:3576   */\n      add\n        /* \"#utility.yul\":3523:3586   */\n      tag_496\n      jump\t// in\n    tag_528:\n        /* \"#utility.yul\":3513:3586   */\n      swap4\n      pop\n        /* \"#utility.yul\":3308:3596   */\n      pop\n        /* \"#utility.yul\":3663:3665   */\n      0x40\n        /* \"#utility.yul\":3652:3661   */\n      dup6\n        /* \"#utility.yul\":3648:3666   */\n      add\n        /* \"#utility.yul\":3635:3667   */\n      calldataload\n        /* \"#utility.yul\":3694:3712   */\n      0xffffffffffffffff\n        /* \"#utility.yul\":3686:3692   */\n      dup2\n        /* \"#utility.yul\":3683:3713   */\n      gt\n        /* \"#utility.yul\":3680:3797   */\n      iszero\n      tag_529\n      jumpi\n        /* \"#utility.yul\":3716:3795   */\n      tag_530\n      tag_517\n      jump\t// in\n    tag_530:\n        /* \"#utility.yul\":3680:3797   */\n    tag_529:\n        /* \"#utility.yul\":3821:3884   */\n      tag_531\n        /* \"#utility.yul\":3876:3883   */\n      dup8\n        /* \"#utility.yul\":3867:3873   */\n      dup3\n        /* \"#utility.yul\":3856:3865   */\n      dup9\n        /* \"#utility.yul\":3852:3874   */\n      add\n        /* \"#utility.yul\":3821:3884   */\n      tag_496\n      jump\t// in\n    tag_531:\n        /* \"#utility.yul\":3811:3884   */\n      swap3\n      pop\n        /* \"#utility.yul\":3606:3894   */\n      pop\n        /* \"#utility.yul\":3933:3935   */\n      0x60\n        /* \"#utility.yul\":3959:4011   */\n      tag_532\n        /* \"#utility.yul\":4003:4010   */\n      dup8\n        /* \"#utility.yul\":3994:4000   */\n      dup3\n        /* \"#utility.yul\":3983:3992   */\n      dup9\n        /* \"#utility.yul\":3979:4001   */\n      add\n        /* \"#utility.yul\":3959:4011   */\n      tag_492\n      jump\t// in\n    tag_532:\n        /* \"#utility.yul\":3949:4011   */\n      swap2\n      pop\n        /* \"#utility.yul\":3904:4021   */\n      pop\n        /* \"#utility.yul\":2905:4028   */\n      swap3\n      swap6\n      swap2\n      swap5\n      pop\n      swap3\n      pop\n      jump\t// out\n        /* \"#utility.yul\":4034:5339   */\n    tag_55:\n        /* \"#utility.yul\":4150:4156   */\n      0x00\n        /* \"#utility.yul\":4158:4164   */\n      dup1\n        /* \"#utility.yul\":4166:4172   */\n      0x00\n        /* \"#utility.yul\":4174:4180   */\n      dup1\n        /* \"#utility.yul\":4223:4226   */\n      0x80\n        /* \"#utility.yul\":4211:4220   */\n      dup6\n        /* \"#utility.yul\":4202:4209   */\n      dup8\n        /* \"#utility.yul\":4198:4221   */\n      sub\n        /* \"#utility.yul\":4194:4227   */\n      slt\n        /* \"#utility.yul\":4191:4311   */\n      iszero\n      tag_534\n      jumpi\n        /* \"#utility.yul\":4230:4309   */\n      tag_535\n      tag_505\n      jump\t// in\n    tag_535:\n        /* \"#utility.yul\":4191:4311   */\n    tag_534:\n        /* \"#utility.yul\":4350:4351   */\n      0x00\n        /* \"#utility.yul\":4375:4428   */\n      tag_536\n        /* \"#utility.yul\":4420:4427   */\n      dup8\n        /* \"#utility.yul\":4411:4417   */\n      dup3\n        /* \"#utility.yul\":4400:4409   */\n      dup9\n        /* \"#utility.yul\":4396:4418   */\n      add\n        /* \"#utility.yul\":4375:4428   */\n      tag_484\n      jump\t// in\n    tag_536:\n        /* \"#utility.yul\":4365:4428   */\n      swap5\n      pop\n        /* \"#utility.yul\":4321:4438   */\n      pop\n        /* \"#utility.yul\":4505:4507   */\n      0x20\n        /* \"#utility.yul\":4494:4503   */\n      dup6\n        /* \"#utility.yul\":4490:4508   */\n      add\n        /* \"#utility.yul\":4477:4509   */\n      calldataload\n        /* \"#utility.yul\":4536:4554   */\n      0xffffffffffffffff\n        /* \"#utility.yul\":4528:4534   */\n      dup2\n        /* \"#utility.yul\":4525:4555   */\n      gt\n        /* \"#utility.yul\":4522:4639   */\n      iszero\n      tag_537\n      jumpi\n        /* \"#utility.yul\":4558:4637   */\n      tag_538\n      tag_517\n      jump\t// in\n    tag_538:\n        /* \"#utility.yul\":4522:4639   */\n    tag_537:\n        /* \"#utility.yul\":4663:4726   */\n      tag_539\n        /* \"#utility.yul\":4718:4725   */\n      dup8\n        /* \"#utility.yul\":4709:4715   */\n      dup3\n        /* \"#utility.yul\":4698:4707   */\n      dup9\n        /* \"#utility.yul\":4694:4716   */\n      add\n        /* \"#utility.yul\":4663:4726   */\n      tag_496\n      jump\t// in\n    tag_539:\n        /* \"#utility.yul\":4653:4726   */\n      swap4\n      pop\n        /* \"#utility.yul\":4448:4736   */\n      pop\n        /* \"#utility.yul\":4803:4805   */\n      0x40\n        /* \"#utility.yul\":4792:4801   */\n      dup6\n        /* \"#utility.yul\":4788:4806   */\n      add\n        /* \"#utility.yul\":4775:4807   */\n      calldataload\n        /* \"#utility.yul\":4834:4852   */\n      0xffffffffffffffff\n        /* \"#utility.yul\":4826:4832   */\n      dup2\n        /* \"#utility.yul\":4823:4853   */\n      gt\n        /* \"#utility.yul\":4820:4937   */\n      iszero\n      tag_540\n      jumpi\n        /* \"#utility.yul\":4856:4935   */\n      tag_541\n      tag_517\n      jump\t// in\n    tag_541:\n        /* \"#utility.yul\":4820:4937   */\n    tag_540:\n        /* \"#utility.yul\":4961:5024   */\n      tag_542\n        /* \"#utility.yul\":5016:5023   */\n      dup8\n        /* \"#utility.yul\":5007:5013   */\n      dup3\n        /* \"#utility.yul\":4996:5005   */\n      dup9\n        /* \"#utility.yul\":4992:5014   */\n      add\n        /* \"#utility.yul\":4961:5024   */\n      tag_496\n      jump\t// in\n    tag_542:\n        /* \"#utility.yul\":4951:5024   */\n      swap3\n      pop\n        /* \"#utility.yul\":4746:5034   */\n      pop\n        /* \"#utility.yul\":5101:5103   */\n      0x60\n        /* \"#utility.yul\":5090:5099   */\n      dup6\n        /* \"#utility.yul\":5086:5104   */\n      add\n        /* \"#utility.yul\":5073:5105   */\n      calldataload\n        /* \"#utility.yul\":5132:5150   */\n      0xffffffffffffffff\n        /* \"#utility.yul\":5124:5130   */\n      dup2\n        /* \"#utility.yul\":5121:5151   */\n      gt\n        /* \"#utility.yul\":5118:5235   */\n      iszero\n      tag_543\n      jumpi\n        /* \"#utility.yul\":5154:5233   */\n      tag_544\n      tag_517\n      jump\t// in\n    tag_544:\n        /* \"#utility.yul\":5118:5235   */\n    tag_543:\n        /* \"#utility.yul\":5259:5322   */\n      tag_545\n        /* \"#utility.yul\":5314:5321   */\n      dup8\n        /* \"#utility.yul\":5305:5311   */\n      dup3\n        /* \"#utility.yul\":5294:5303   */\n      dup9\n        /* \"#utility.yul\":5290:5312   */\n      add\n        /* \"#utility.yul\":5259:5322   */\n      tag_496\n      jump\t// in\n    tag_545:\n        /* \"#utility.yul\":5249:5322   */\n      swap2\n      pop\n        /* \"#utility.yul\":5044:5332   */\n      pop\n        /* \"#utility.yul\":4034:5339   */\n      swap3\n      swap6\n      swap2\n      swap5\n      pop\n      swap3\n      pop\n      jump\t// out\n        /* \"#utility.yul\":5345:5854   */\n    tag_41:\n        /* \"#utility.yul\":5414:5420   */\n      0x00\n        /* \"#utility.yul\":5463:5465   */\n      0x20\n        /* \"#utility.yul\":5451:5460   */\n      dup3\n        /* \"#utility.yul\":5442:5449   */\n      dup5\n        /* \"#utility.yul\":5438:5461   */\n      sub\n        /* \"#utility.yul\":5434:5466   */\n      slt\n        /* \"#utility.yul\":5431:5550   */\n      iszero\n      tag_547\n      jumpi\n        /* \"#utility.yul\":5469:5548   */\n      tag_548\n      tag_505\n      jump\t// in\n    tag_548:\n        /* \"#utility.yul\":5431:5550   */\n    tag_547:\n        /* \"#utility.yul\":5617:5618   */\n      0x00\n        /* \"#utility.yul\":5606:5615   */\n      dup3\n        /* \"#utility.yul\":5602:5619   */\n      add\n        /* \"#utility.yul\":5589:5620   */\n      calldataload\n        /* \"#utility.yul\":5647:5665   */\n      0xffffffffffffffff\n        /* \"#utility.yul\":5639:5645   */\n      dup2\n        /* \"#utility.yul\":5636:5666   */\n      gt\n        /* \"#utility.yul\":5633:5750   */\n      iszero\n      tag_549\n      jumpi\n        /* \"#utility.yul\":5669:5748   */\n      tag_550\n      tag_517\n      jump\t// in\n    tag_550:\n        /* \"#utility.yul\":5633:5750   */\n    tag_549:\n        /* \"#utility.yul\":5774:5837   */\n      tag_551\n        /* \"#utility.yul\":5829:5836   */\n      dup5\n        /* \"#utility.yul\":5820:5826   */\n      dup3\n        /* \"#utility.yul\":5809:5818   */\n      dup6\n        /* \"#utility.yul\":5805:5827   */\n      add\n        /* \"#utility.yul\":5774:5837   */\n      tag_496\n      jump\t// in\n    tag_551:\n        /* \"#utility.yul\":5764:5837   */\n      swap2\n      pop\n        /* \"#utility.yul\":5560:5847   */\n      pop\n        /* \"#utility.yul\":5345:5854   */\n      swap3\n      swap2\n      pop\n      pop\n      jump\t// out\n        /* \"#utility.yul\":5860:6514   */\n    tag_33:\n        /* \"#utility.yul\":5938:5944   */\n      0x00\n        /* \"#utility.yul\":5946:5952   */\n      dup1\n        /* \"#utility.yul\":5995:5997   */\n      0x40\n        /* \"#utility.yul\":5983:5992   */\n      dup4\n        /* \"#utility.yul\":5974:5981   */\n      dup6\n        /* \"#utility.yul\":5970:5993   */\n      sub\n        /* \"#utility.yul\":5966:5998   */\n      slt\n        /* \"#utility.yul\":5963:6082   */\n      iszero\n      tag_553\n      jumpi\n        /* \"#utility.yul\":6001:6080   */\n      tag_554\n      tag_505\n      jump\t// in\n    tag_554:\n        /* \"#utility.yul\":5963:6082   */\n    tag_553:\n        /* \"#utility.yul\":6149:6150   */\n      0x00\n        /* \"#utility.yul\":6138:6147   */\n      dup4\n        /* \"#utility.yul\":6134:6151   */\n      add\n        /* \"#utility.yul\":6121:6152   */\n      calldataload\n        /* \"#utility.yul\":6179:6197   */\n      0xffffffffffffffff\n        /* \"#utility.yul\":6171:6177   */\n      dup2\n        /* \"#utility.yul\":6168:6198   */\n      gt\n        /* \"#utility.yul\":6165:6282   */\n      iszero\n      tag_555\n      jumpi\n        /* \"#utility.yul\":6201:6280   */\n      tag_556\n      tag_517\n      jump\t// in\n    tag_556:\n        /* \"#utility.yul\":6165:6282   */\n    tag_555:\n        /* \"#utility.yul\":6306:6369   */\n      tag_557\n        /* \"#utility.yul\":6361:6368   */\n      dup6\n        /* \"#utility.yul\":6352:6358   */\n      dup3\n        /* \"#utility.yul\":6341:6350   */\n      dup7\n        /* \"#utility.yul\":6337:6359   */\n      add\n        /* \"#utility.yul\":6306:6369   */\n      tag_496\n      jump\t// in\n    tag_557:\n        /* \"#utility.yul\":6296:6369   */\n      swap3\n      pop\n        /* \"#utility.yul\":6092:6379   */\n      pop\n        /* \"#utility.yul\":6418:6420   */\n      0x20\n        /* \"#utility.yul\":6444:6497   */\n      tag_558\n        /* \"#utility.yul\":6489:6496   */\n      dup6\n        /* \"#utility.yul\":6480:6486   */\n      dup3\n        /* \"#utility.yul\":6469:6478   */\n      dup7\n        /* \"#utility.yul\":6465:6487   */\n      add\n        /* \"#utility.yul\":6444:6497   */\n      tag_484\n      jump\t// in\n    tag_558:\n        /* \"#utility.yul\":6434:6497   */\n      swap2\n      pop\n        /* \"#utility.yul\":6389:6507   */\n      pop\n        /* \"#utility.yul\":5860:6514   */\n      swap3\n      pop\n      swap3\n      swap1\n      pop\n      jump\t// out\n        /* \"#utility.yul\":6520:7354   */\n    tag_96:\n        /* \"#utility.yul\":6608:6614   */\n      0x00\n        /* \"#utility.yul\":6616:6622   */\n      dup1\n        /* \"#utility.yul\":6665:6667   */\n      0x40\n        /* \"#utility.yul\":6653:6662   */\n      dup4\n        /* \"#utility.yul\":6644:6651   */\n      dup6\n        /* \"#utility.yul\":6640:6663   */\n      sub\n        /* \"#utility.yul\":6636:6668   */\n      slt\n        /* \"#utility.yul\":6633:6752   */\n      iszero\n      tag_560\n      jumpi\n        /* \"#utility.yul\":6671:6750   */\n      tag_561\n      tag_505\n      jump\t// in\n    tag_561:\n        /* \"#utility.yul\":6633:6752   */\n    tag_560:\n        /* \"#utility.yul\":6819:6820   */\n      0x00\n        /* \"#utility.yul\":6808:6817   */\n      dup4\n        /* \"#utility.yul\":6804:6821   */\n      add\n        /* \"#utility.yul\":6791:6822   */\n      calldataload\n        /* \"#utility.yul\":6849:6867   */\n      0xffffffffffffffff\n        /* \"#utility.yul\":6841:6847   */\n      dup2\n        /* \"#utility.yul\":6838:6868   */\n      gt\n        /* \"#utility.yul\":6835:6952   */\n      iszero\n      tag_562\n      jumpi\n        /* \"#utility.yul\":6871:6950   */\n      tag_563\n      tag_517\n      jump\t// in\n    tag_563:\n        /* \"#utility.yul\":6835:6952   */\n    tag_562:\n        /* \"#utility.yul\":6976:7039   */\n      tag_564\n        /* \"#utility.yul\":7031:7038   */\n      dup6\n        /* \"#utility.yul\":7022:7028   */\n      dup3\n        /* \"#utility.yul\":7011:7020   */\n      dup7\n        /* \"#utility.yul\":7007:7029   */\n      add\n        /* \"#utility.yul\":6976:7039   */\n      tag_496\n      jump\t// in\n    tag_564:\n        /* \"#utility.yul\":6966:7039   */\n      swap3\n      pop\n        /* \"#utility.yul\":6762:7049   */\n      pop\n        /* \"#utility.yul\":7116:7118   */\n      0x20\n        /* \"#utility.yul\":7105:7114   */\n      dup4\n        /* \"#utility.yul\":7101:7119   */\n      add\n        /* \"#utility.yul\":7088:7120   */\n      calldataload\n        /* \"#utility.yul\":7147:7165   */\n      0xffffffffffffffff\n        /* \"#utility.yul\":7139:7145   */\n      dup2\n        /* \"#utility.yul\":7136:7166   */\n      gt\n        /* \"#utility.yul\":7133:7250   */\n      iszero\n      tag_565\n      jumpi\n        /* \"#utility.yul\":7169:7248   */\n      tag_566\n      tag_517\n      jump\t// in\n    tag_566:\n        /* \"#utility.yul\":7133:7250   */\n    tag_565:\n        /* \"#utility.yul\":7274:7337   */\n      tag_567\n        /* \"#utility.yul\":7329:7336   */\n      dup6\n        /* \"#utility.yul\":7320:7326   */\n      dup3\n        /* \"#utility.yul\":7309:7318   */\n      dup7\n        /* \"#utility.yul\":7305:7327   */\n      add\n        /* \"#utility.yul\":7274:7337   */\n      tag_496\n      jump\t// in\n    tag_567:\n        /* \"#utility.yul\":7264:7337   */\n      swap2\n      pop\n        /* \"#utility.yul\":7059:7347   */\n      pop\n        /* \"#utility.yul\":6520:7354   */\n      swap3\n      pop\n      swap3\n      swap1\n      pop\n      jump\t// out\n        /* \"#utility.yul\":7360:8339   */\n    tag_79:\n        /* \"#utility.yul\":7457:7463   */\n      0x00\n        /* \"#utility.yul\":7465:7471   */\n      dup1\n        /* \"#utility.yul\":7473:7479   */\n      0x00\n        /* \"#utility.yul\":7522:7524   */\n      0x60\n        /* \"#utility.yul\":7510:7519   */\n      dup5\n        /* \"#utility.yul\":7501:7508   */\n      dup7\n        /* \"#utility.yul\":7497:7520   */\n      sub\n        /* \"#utility.yul\":7493:7525   */\n      slt\n        /* \"#utility.yul\":7490:7609   */\n      iszero\n      tag_569\n      jumpi\n        /* \"#utility.yul\":7528:7607   */\n      tag_570\n      tag_505\n      jump\t// in\n    tag_570:\n        /* \"#utility.yul\":7490:7609   */\n    tag_569:\n        /* \"#utility.yul\":7676:7677   */\n      0x00\n        /* \"#utility.yul\":7665:7674   */\n      dup5\n        /* \"#utility.yul\":7661:7678   */\n      add\n        /* \"#utility.yul\":7648:7679   */\n      calldataload\n        /* \"#utility.yul\":7706:7724   */\n      0xffffffffffffffff\n        /* \"#utility.yul\":7698:7704   */\n      dup2\n        /* \"#utility.yul\":7695:7725   */\n      gt\n        /* \"#utility.yul\":7692:7809   */\n      iszero\n      tag_571\n      jumpi\n        /* \"#utility.yul\":7728:7807   */\n      tag_572\n      tag_517\n      jump\t// in\n    tag_572:\n        /* \"#utility.yul\":7692:7809   */\n    tag_571:\n        /* \"#utility.yul\":7833:7896   */\n      tag_573\n        /* \"#utility.yul\":7888:7895   */\n      dup7\n        /* \"#utility.yul\":7879:7885   */\n      dup3\n        /* \"#utility.yul\":7868:7877   */\n      dup8\n        /* \"#utility.yul\":7864:7886   */\n      add\n        /* \"#utility.yul\":7833:7896   */\n      tag_496\n      jump\t// in\n    tag_573:\n        /* \"#utility.yul\":7823:7896   */\n      swap4\n      pop\n        /* \"#utility.yul\":7619:7906   */\n      pop\n        /* \"#utility.yul\":7973:7975   */\n      0x20\n        /* \"#utility.yul\":7962:7971   */\n      dup5\n        /* \"#utility.yul\":7958:7976   */\n      add\n        /* \"#utility.yul\":7945:7977   */\n      calldataload\n        /* \"#utility.yul\":8004:8022   */\n      0xffffffffffffffff\n        /* \"#utility.yul\":7996:8002   */\n      dup2\n        /* \"#utility.yul\":7993:8023   */\n      gt\n        /* \"#utility.yul\":7990:8107   */\n      iszero\n      tag_574\n      jumpi\n        /* \"#utility.yul\":8026:8105   */\n      tag_575\n      tag_517\n      jump\t// in\n    tag_575:\n        /* \"#utility.yul\":7990:8107   */\n    tag_574:\n        /* \"#utility.yul\":8131:8194   */\n      tag_576\n        /* \"#utility.yul\":8186:8193   */\n      dup7\n        /* \"#utility.yul\":8177:8183   */\n      dup3\n        /* \"#utility.yul\":8166:8175   */\n      dup8\n        /* \"#utility.yul\":8162:8184   */\n      add\n        /* \"#utility.yul\":8131:8194   */\n      tag_496\n      jump\t// in\n    tag_576:\n        /* \"#utility.yul\":8121:8194   */\n      swap3\n      pop\n        /* \"#utility.yul\":7916:8204   */\n      pop\n        /* \"#utility.yul\":8243:8245   */\n      0x40\n        /* \"#utility.yul\":8269:8322   */\n      tag_577\n        /* \"#utility.yul\":8314:8321   */\n      dup7\n        /* \"#utility.yul\":8305:8311   */\n      dup3\n        /* \"#utility.yul\":8294:8303   */\n      dup8\n        /* \"#utility.yul\":8290:8312   */\n      add\n        /* \"#utility.yul\":8269:8322   */\n      tag_484\n      jump\t// in\n    tag_577:\n        /* \"#utility.yul\":8259:8322   */\n      swap2\n      pop\n        /* \"#utility.yul\":8214:8332   */\n      pop\n        /* \"#utility.yul\":7360:8339   */\n      swap3\n      pop\n      swap3\n      pop\n      swap3\n      jump\t// out\n        /* \"#utility.yul\":8345:9470   */\n    tag_69:\n        /* \"#utility.yul\":8451:8457   */\n      0x00\n        /* \"#utility.yul\":8459:8465   */\n      dup1\n        /* \"#utility.yul\":8467:8473   */\n      0x00\n        /* \"#utility.yul\":8475:8481   */\n      dup1\n        /* \"#utility.yul\":8524:8527   */\n      0x80\n        /* \"#utility.yul\":8512:8521   */\n      dup6\n        /* \"#utility.yul\":8503:8510   */\n      dup8\n        /* \"#utility.yul\":8499:8522   */\n      sub\n        /* \"#utility.yul\":8495:8528   */\n      slt\n        /* \"#utility.yul\":8492:8612   */\n      iszero\n      tag_579\n      jumpi\n        /* \"#utility.yul\":8531:8610   */\n      tag_580\n      tag_505\n      jump\t// in\n    tag_580:\n        /* \"#utility.yul\":8492:8612   */\n    tag_579:\n        /* \"#utility.yul\":8679:8680   */\n      0x00\n        /* \"#utility.yul\":8668:8677   */\n      dup6\n        /* \"#utility.yul\":8664:8681   */\n      add\n        /* \"#utility.yul\":8651:8682   */\n      calldataload\n        /* \"#utility.yul\":8709:8727   */\n      0xffffffffffffffff\n        /* \"#utility.yul\":8701:8707   */\n      dup2\n        /* \"#utility.yul\":8698:8728   */\n      gt\n        /* \"#utility.yul\":8695:8812   */\n      iszero\n      tag_581\n      jumpi\n        /* \"#utility.yul\":8731:8810   */\n      tag_582\n      tag_517\n      jump\t// in\n    tag_582:\n        /* \"#utility.yul\":8695:8812   */\n    tag_581:\n        /* \"#utility.yul\":8836:8899   */\n      tag_583\n        /* \"#utility.yul\":8891:8898   */\n      dup8\n        /* \"#utility.yul\":8882:8888   */\n      dup3\n        /* \"#utility.yul\":8871:8880   */\n      dup9\n        /* \"#utility.yul\":8867:8889   */\n      add\n        /* \"#utility.yul\":8836:8899   */\n      tag_496\n      jump\t// in\n    tag_583:\n        /* \"#utility.yul\":8826:8899   */\n      swap5\n      pop\n        /* \"#utility.yul\":8622:8909   */\n      pop\n        /* \"#utility.yul\":8976:8978   */\n      0x20\n        /* \"#utility.yul\":8965:8974   */\n      dup6\n        /* \"#utility.yul\":8961:8979   */\n      add\n        /* \"#utility.yul\":8948:8980   */\n      calldataload\n        /* \"#utility.yul\":9007:9025   */\n      0xffffffffffffffff\n        /* \"#utility.yul\":8999:9005   */\n      dup2\n        /* \"#utility.yul\":8996:9026   */\n      gt\n        /* \"#utility.yul\":8993:9110   */\n      iszero\n      tag_584\n      jumpi\n        /* \"#utility.yul\":9029:9108   */\n      tag_585\n      tag_517\n      jump\t// in\n    tag_585:\n        /* \"#utility.yul\":8993:9110   */\n    tag_584:\n        /* \"#utility.yul\":9134:9197   */\n      tag_586\n        /* \"#utility.yul\":9189:9196   */\n      dup8\n        /* \"#utility.yul\":9180:9186   */\n      dup3\n        /* \"#utility.yul\":9169:9178   */\n      dup9\n        /* \"#utility.yul\":9165:9187   */\n      add\n        /* \"#utility.yul\":9134:9197   */\n      tag_496\n      jump\t// in\n    tag_586:\n        /* \"#utility.yul\":9124:9197   */\n      swap4\n      pop\n        /* \"#utility.yul\":8919:9207   */\n      pop\n        /* \"#utility.yul\":9246:9248   */\n      0x40\n        /* \"#utility.yul\":9272:9325   */\n      tag_587\n        /* \"#utility.yul\":9317:9324   */\n      dup8\n        /* \"#utility.yul\":9308:9314   */\n      dup3\n        /* \"#utility.yul\":9297:9306   */\n      dup9\n        /* \"#utility.yul\":9293:9315   */\n      add\n        /* \"#utility.yul\":9272:9325   */\n      tag_484\n      jump\t// in\n    tag_587:\n        /* \"#utility.yul\":9262:9325   */\n      swap3\n      pop\n        /* \"#utility.yul\":9217:9335   */\n      pop\n        /* \"#utility.yul\":9374:9376   */\n      0x60\n        /* \"#utility.yul\":9400:9453   */\n      tag_588\n        /* \"#utility.yul\":9445:9452   */\n      dup8\n        /* \"#utility.yul\":9436:9442   */\n      dup3\n        /* \"#utility.yul\":9425:9434   */\n      dup9\n        /* \"#utility.yul\":9421:9443   */\n      add\n        /* \"#utility.yul\":9400:9453   */\n      tag_484\n      jump\t// in\n    tag_588:\n        /* \"#utility.yul\":9390:9453   */\n      swap2\n      pop\n        /* \"#utility.yul\":9345:9463   */\n      pop\n        /* \"#utility.yul\":8345:9470   */\n      swap3\n      swap6\n      swap2\n      swap5\n      pop\n      swap3\n      pop\n      jump\t// out\n        /* \"#utility.yul\":9476:9655   */\n    tag_589:\n        /* \"#utility.yul\":9545:9555   */\n      0x00\n        /* \"#utility.yul\":9566:9612   */\n      tag_591\n        /* \"#utility.yul\":9608:9611   */\n      dup4\n        /* \"#utility.yul\":9600:9606   */\n      dup4\n        /* \"#utility.yul\":9566:9612   */\n      tag_592\n      jump\t// in\n    tag_591:\n        /* \"#utility.yul\":9644:9648   */\n      0x20\n        /* \"#utility.yul\":9639:9642   */\n      dup4\n        /* \"#utility.yul\":9635:9649   */\n      add\n        /* \"#utility.yul\":9621:9649   */\n      swap1\n      pop\n        /* \"#utility.yul\":9476:9655   */\n      swap3\n      swap2\n      pop\n      pop\n      jump\t// out\n        /* \"#utility.yul\":9661:9857   */\n    tag_593:\n        /* \"#utility.yul\":9750:9760   */\n      0x00\n        /* \"#utility.yul\":9785:9851   */\n      tag_595\n        /* \"#utility.yul\":9847:9850   */\n      dup4\n        /* \"#utility.yul\":9839:9845   */\n      dup4\n        /* \"#utility.yul\":9785:9851   */\n      tag_596\n      jump\t// in\n    tag_595:\n        /* \"#utility.yul\":9771:9851   */\n      swap1\n      pop\n        /* \"#utility.yul\":9661:9857   */\n      swap3\n      swap2\n      pop\n      pop\n      jump\t// out\n        /* \"#utility.yul\":9863:10115   */\n    tag_597:\n        /* \"#utility.yul\":9980:9990   */\n      0x00\n        /* \"#utility.yul\":10015:10109   */\n      tag_599\n        /* \"#utility.yul\":10105:10108   */\n      dup4\n        /* \"#utility.yul\":10097:10103   */\n      dup4\n        /* \"#utility.yul\":10015:10109   */\n      tag_600\n      jump\t// in\n    tag_599:\n        /* \"#utility.yul\":10001:10109   */\n      swap1\n      pop\n        /* \"#utility.yul\":9863:10115   */\n      swap3\n      swap2\n      pop\n      pop\n      jump\t// out\n        /* \"#utility.yul\":10121:10229   */\n    tag_592:\n        /* \"#utility.yul\":10198:10222   */\n      tag_602\n        /* \"#utility.yul\":10216:10221   */\n      dup2\n        /* \"#utility.yul\":10198:10222   */\n      tag_603\n      jump\t// in\n    tag_602:\n        /* \"#utility.yul\":10193:10196   */\n      dup3\n        /* \"#utility.yul\":10186:10223   */\n      mstore\n        /* \"#utility.yul\":10121:10229   */\n      pop\n      pop\n      jump\t// out\n        /* \"#utility.yul\":10235:10353   */\n    tag_604:\n        /* \"#utility.yul\":10322:10346   */\n      tag_606\n        /* \"#utility.yul\":10340:10345   */\n      dup2\n        /* \"#utility.yul\":10322:10346   */\n      tag_603\n      jump\t// in\n    tag_606:\n        /* \"#utility.yul\":10317:10320   */\n      dup3\n        /* \"#utility.yul\":10310:10347   */\n      mstore\n        /* \"#utility.yul\":10235:10353   */\n      pop\n      pop\n      jump\t// out\n        /* \"#utility.yul\":10389:11121   */\n    tag_607:\n        /* \"#utility.yul\":10508:10511   */\n      0x00\n        /* \"#utility.yul\":10537:10591   */\n      tag_609\n        /* \"#utility.yul\":10585:10590   */\n      dup3\n        /* \"#utility.yul\":10537:10591   */\n      tag_610\n      jump\t// in\n    tag_609:\n        /* \"#utility.yul\":10607:10693   */\n      tag_611\n        /* \"#utility.yul\":10686:10692   */\n      dup2\n        /* \"#utility.yul\":10681:10684   */\n      dup6\n        /* \"#utility.yul\":10607:10693   */\n      tag_612\n      jump\t// in\n    tag_611:\n        /* \"#utility.yul\":10600:10693   */\n      swap4\n      pop\n        /* \"#utility.yul\":10717:10773   */\n      tag_613\n        /* \"#utility.yul\":10767:10772   */\n      dup4\n        /* \"#utility.yul\":10717:10773   */\n      tag_614\n      jump\t// in\n    tag_613:\n        /* \"#utility.yul\":10796:10803   */\n      dup1\n        /* \"#utility.yul\":10827:10828   */\n      0x00\n        /* \"#utility.yul\":10812:11096   */\n    tag_615:\n        /* \"#utility.yul\":10837:10843   */\n      dup4\n        /* \"#utility.yul\":10834:10835   */\n      dup2\n        /* \"#utility.yul\":10831:10844   */\n      lt\n        /* \"#utility.yul\":10812:11096   */\n      iszero\n      tag_617\n      jumpi\n        /* \"#utility.yul\":10913:10919   */\n      dup2\n        /* \"#utility.yul\":10907:10920   */\n      mload\n        /* \"#utility.yul\":10940:11003   */\n      tag_618\n        /* \"#utility.yul\":10999:11002   */\n      dup9\n        /* \"#utility.yul\":10984:10997   */\n      dup3\n        /* \"#utility.yul\":10940:11003   */\n      tag_589\n      jump\t// in\n    tag_618:\n        /* \"#utility.yul\":10933:11003   */\n      swap8\n      pop\n        /* \"#utility.yul\":11026:11086   */\n      tag_619\n        /* \"#utility.yul\":11079:11085   */\n      dup4\n        /* \"#utility.yul\":11026:11086   */\n      tag_620\n      jump\t// in\n    tag_619:\n        /* \"#utility.yul\":11016:11086   */\n      swap3\n      pop\n        /* \"#utility.yul\":10872:11096   */\n      pop\n        /* \"#utility.yul\":10859:10860   */\n      0x01\n        /* \"#utility.yul\":10856:10857   */\n      dup2\n        /* \"#utility.yul\":10852:10861   */\n      add\n        /* \"#utility.yul\":10847:10861   */\n      swap1\n      pop\n        /* \"#utility.yul\":10812:11096   */\n      jump(tag_615)\n    tag_617:\n        /* \"#utility.yul\":10816:10830   */\n      pop\n        /* \"#utility.yul\":11112:11115   */\n      dup6\n        /* \"#utility.yul\":11105:11115   */\n      swap4\n      pop\n        /* \"#utility.yul\":10513:11121   */\n      pop\n      pop\n      pop\n        /* \"#utility.yul\":10389:11121   */\n      swap3\n      swap2\n      pop\n      pop\n      jump\t// out\n        /* \"#utility.yul\":11155:12146   */\n    tag_621:\n        /* \"#utility.yul\":11294:11297   */\n      0x00\n        /* \"#utility.yul\":11323:11387   */\n      tag_623\n        /* \"#utility.yul\":11381:11386   */\n      dup3\n        /* \"#utility.yul\":11323:11387   */\n      tag_624\n      jump\t// in\n    tag_623:\n        /* \"#utility.yul\":11403:11499   */\n      tag_625\n        /* \"#utility.yul\":11492:11498   */\n      dup2\n        /* \"#utility.yul\":11487:11490   */\n      dup6\n        /* \"#utility.yul\":11403:11499   */\n      tag_626\n      jump\t// in\n    tag_625:\n        /* \"#utility.yul\":11396:11499   */\n      swap4\n      pop\n        /* \"#utility.yul\":11525:11528   */\n      dup4\n        /* \"#utility.yul\":11570:11574   */\n      0x20\n        /* \"#utility.yul\":11562:11568   */\n      dup3\n        /* \"#utility.yul\":11558:11575   */\n      mul\n        /* \"#utility.yul\":11553:11556   */\n      dup6\n        /* \"#utility.yul\":11549:11576   */\n      add\n        /* \"#utility.yul\":11600:11666   */\n      tag_627\n        /* \"#utility.yul\":11660:11665   */\n      dup6\n        /* \"#utility.yul\":11600:11666   */\n      tag_628\n      jump\t// in\n    tag_627:\n        /* \"#utility.yul\":11689:11696   */\n      dup1\n        /* \"#utility.yul\":11720:11721   */\n      0x00\n        /* \"#utility.yul\":11705:12101   */\n    tag_629:\n        /* \"#utility.yul\":11730:11736   */\n      dup6\n        /* \"#utility.yul\":11727:11728   */\n      dup2\n        /* \"#utility.yul\":11724:11737   */\n      lt\n        /* \"#utility.yul\":11705:12101   */\n      iszero\n      tag_631\n      jumpi\n        /* \"#utility.yul\":11801:11810   */\n      dup5\n        /* \"#utility.yul\":11795:11799   */\n      dup5\n        /* \"#utility.yul\":11791:11811   */\n      sub\n        /* \"#utility.yul\":11786:11789   */\n      dup10\n        /* \"#utility.yul\":11779:11812   */\n      mstore\n        /* \"#utility.yul\":11852:11858   */\n      dup2\n        /* \"#utility.yul\":11846:11859   */\n      mload\n        /* \"#utility.yul\":11880:11964   */\n      tag_632\n        /* \"#utility.yul\":11959:11963   */\n      dup6\n        /* \"#utility.yul\":11944:11957   */\n      dup3\n        /* \"#utility.yul\":11880:11964   */\n      tag_593\n      jump\t// in\n    tag_632:\n        /* \"#utility.yul\":11872:11964   */\n      swap5\n      pop\n        /* \"#utility.yul\":11987:12057   */\n      tag_633\n        /* \"#utility.yul\":12050:12056   */\n      dup4\n        /* \"#utility.yul\":11987:12057   */\n      tag_634\n      jump\t// in\n    tag_633:\n        /* \"#utility.yul\":11977:12057   */\n      swap3\n      pop\n        /* \"#utility.yul\":12086:12090   */\n      0x20\n        /* \"#utility.yul\":12081:12084   */\n      dup11\n        /* \"#utility.yul\":12077:12091   */\n      add\n        /* \"#utility.yul\":12070:12091   */\n      swap10\n      pop\n        /* \"#utility.yul\":11765:12101   */\n      pop\n        /* \"#utility.yul\":11752:11753   */\n      0x01\n        /* \"#utility.yul\":11749:11750   */\n      dup2\n        /* \"#utility.yul\":11745:11754   */\n      add\n        /* \"#utility.yul\":11740:11754   */\n      swap1\n      pop\n        /* \"#utility.yul\":11705:12101   */\n      jump(tag_629)\n    tag_631:\n        /* \"#utility.yul\":11709:11723   */\n      pop\n        /* \"#utility.yul\":12117:12121   */\n      dup3\n        /* \"#utility.yul\":12110:12121   */\n      swap8\n      pop\n        /* \"#utility.yul\":12137:12140   */\n      dup8\n        /* \"#utility.yul\":12130:12140   */\n      swap6\n      pop\n        /* \"#utility.yul\":11299:12146   */\n      pop\n      pop\n      pop\n      pop\n      pop\n        /* \"#utility.yul\":11155:12146   */\n      swap3\n      swap2\n      pop\n      pop\n      jump\t// out\n        /* \"#utility.yul\":12196:13299   */\n    tag_635:\n        /* \"#utility.yul\":12363:12366   */\n      0x00\n        /* \"#utility.yul\":12392:12470   */\n      tag_637\n        /* \"#utility.yul\":12464:12469   */\n      dup3\n        /* \"#utility.yul\":12392:12470   */\n      tag_638\n      jump\t// in\n    tag_637:\n        /* \"#utility.yul\":12486:12596   */\n      tag_639\n        /* \"#utility.yul\":12589:12595   */\n      dup2\n        /* \"#utility.yul\":12584:12587   */\n      dup6\n        /* \"#utility.yul\":12486:12596   */\n      tag_640\n      jump\t// in\n    tag_639:\n        /* \"#utility.yul\":12479:12596   */\n      swap4\n      pop\n        /* \"#utility.yul\":12622:12625   */\n      dup4\n        /* \"#utility.yul\":12667:12671   */\n      0x20\n        /* \"#utility.yul\":12659:12665   */\n      dup3\n        /* \"#utility.yul\":12655:12672   */\n      mul\n        /* \"#utility.yul\":12650:12653   */\n      dup6\n        /* \"#utility.yul\":12646:12673   */\n      add\n        /* \"#utility.yul\":12697:12777   */\n      tag_641\n        /* \"#utility.yul\":12771:12776   */\n      dup6\n        /* \"#utility.yul\":12697:12777   */\n      tag_642\n      jump\t// in\n    tag_641:\n        /* \"#utility.yul\":12800:12807   */\n      dup1\n        /* \"#utility.yul\":12831:12832   */\n      0x00\n        /* \"#utility.yul\":12816:13254   */\n    tag_643:\n        /* \"#utility.yul\":12841:12847   */\n      dup6\n        /* \"#utility.yul\":12838:12839   */\n      dup2\n        /* \"#utility.yul\":12835:12848   */\n      lt\n        /* \"#utility.yul\":12816:13254   */\n      iszero\n      tag_645\n      jumpi\n        /* \"#utility.yul\":12912:12921   */\n      dup5\n        /* \"#utility.yul\":12906:12910   */\n      dup5\n        /* \"#utility.yul\":12902:12922   */\n      sub\n        /* \"#utility.yul\":12897:12900   */\n      dup10\n        /* \"#utility.yul\":12890:12923   */\n      mstore\n        /* \"#utility.yul\":12963:12969   */\n      dup2\n        /* \"#utility.yul\":12957:12970   */\n      mload\n        /* \"#utility.yul\":12991:13103   */\n      tag_646\n        /* \"#utility.yul\":13098:13102   */\n      dup6\n        /* \"#utility.yul\":13083:13096   */\n      dup3\n        /* \"#utility.yul\":12991:13103   */\n      tag_597\n      jump\t// in\n    tag_646:\n        /* \"#utility.yul\":12983:13103   */\n      swap5\n      pop\n        /* \"#utility.yul\":13126:13210   */\n      tag_647\n        /* \"#utility.yul\":13203:13209   */\n      dup4\n        /* \"#utility.yul\":13126:13210   */\n      tag_648\n      jump\t// in\n    tag_647:\n        /* \"#utility.yul\":13116:13210   */\n      swap3\n      pop\n        /* \"#utility.yul\":13239:13243   */\n      0x20\n        /* \"#utility.yul\":13234:13237   */\n      dup11\n        /* \"#utility.yul\":13230:13244   */\n      add\n        /* \"#utility.yul\":13223:13244   */\n      swap10\n      pop\n        /* \"#utility.yul\":12876:13254   */\n      pop\n        /* \"#utility.yul\":12863:12864   */\n      0x01\n        /* \"#utility.yul\":12860:12861   */\n      dup2\n        /* \"#utility.yul\":12856:12865   */\n      add\n        /* \"#utility.yul\":12851:12865   */\n      swap1\n      pop\n        /* \"#utility.yul\":12816:13254   */\n      jump(tag_643)\n    tag_645:\n        /* \"#utility.yul\":12820:12834   */\n      pop\n        /* \"#utility.yul\":13270:13274   */\n      dup3\n        /* \"#utility.yul\":13263:13274   */\n      swap8\n      pop\n        /* \"#utility.yul\":13290:13293   */\n      dup8\n        /* \"#utility.yul\":13283:13293   */\n      swap6\n      pop\n        /* \"#utility.yul\":12368:13299   */\n      pop\n      pop\n      pop\n      pop\n      pop\n        /* \"#utility.yul\":12196:13299   */\n      swap3\n      swap2\n      pop\n      pop\n      jump\t// out\n        /* \"#utility.yul\":13305:13404   */\n    tag_649:\n        /* \"#utility.yul\":13376:13397   */\n      tag_651\n        /* \"#utility.yul\":13391:13396   */\n      dup2\n        /* \"#utility.yul\":13376:13397   */\n      tag_652\n      jump\t// in\n    tag_651:\n        /* \"#utility.yul\":13371:13374   */\n      dup3\n        /* \"#utility.yul\":13364:13398   */\n      mstore\n        /* \"#utility.yul\":13305:13404   */\n      pop\n      pop\n      jump\t// out\n        /* \"#utility.yul\":13410:13525   */\n    tag_653:\n        /* \"#utility.yul\":13495:13518   */\n      tag_655\n        /* \"#utility.yul\":13512:13517   */\n      dup2\n        /* \"#utility.yul\":13495:13518   */\n      tag_656\n      jump\t// in\n    tag_655:\n        /* \"#utility.yul\":13490:13493   */\n      dup3\n        /* \"#utility.yul\":13483:13519   */\n      mstore\n        /* \"#utility.yul\":13410:13525   */\n      pop\n      pop\n      jump\t// out\n        /* \"#utility.yul\":13531:13875   */\n    tag_596:\n        /* \"#utility.yul\":13609:13612   */\n      0x00\n        /* \"#utility.yul\":13637:13676   */\n      tag_658\n        /* \"#utility.yul\":13670:13675   */\n      dup3\n        /* \"#utility.yul\":13637:13676   */\n      tag_659\n      jump\t// in\n    tag_658:\n        /* \"#utility.yul\":13692:13753   */\n      tag_660\n        /* \"#utility.yul\":13746:13752   */\n      dup2\n        /* \"#utility.yul\":13741:13744   */\n      dup6\n        /* \"#utility.yul\":13692:13753   */\n      tag_661\n      jump\t// in\n    tag_660:\n        /* \"#utility.yul\":13685:13753   */\n      swap4\n      pop\n        /* \"#utility.yul\":13762:13814   */\n      tag_662\n        /* \"#utility.yul\":13807:13813   */\n      dup2\n        /* \"#utility.yul\":13802:13805   */\n      dup6\n        /* \"#utility.yul\":13795:13799   */\n      0x20\n        /* \"#utility.yul\":13788:13793   */\n      dup7\n        /* \"#utility.yul\":13784:13800   */\n      add\n        /* \"#utility.yul\":13762:13814   */\n      tag_663\n      jump\t// in\n    tag_662:\n        /* \"#utility.yul\":13839:13868   */\n      tag_664\n        /* \"#utility.yul\":13861:13867   */\n      dup2\n        /* \"#utility.yul\":13839:13868   */\n      tag_665\n      jump\t// in\n    tag_664:\n        /* \"#utility.yul\":13834:13837   */\n      dup5\n        /* \"#utility.yul\":13830:13869   */\n      add\n        /* \"#utility.yul\":13823:13869   */\n      swap2\n      pop\n        /* \"#utility.yul\":13613:13875   */\n      pop\n        /* \"#utility.yul\":13531:13875   */\n      swap3\n      swap2\n      pop\n      pop\n      jump\t// out\n        /* \"#utility.yul\":13881:14245   */\n    tag_666:\n        /* \"#utility.yul\":13969:13972   */\n      0x00\n        /* \"#utility.yul\":13997:14036   */\n      tag_668\n        /* \"#utility.yul\":14030:14035   */\n      dup3\n        /* \"#utility.yul\":13997:14036   */\n      tag_659\n      jump\t// in\n    tag_668:\n        /* \"#utility.yul\":14052:14123   */\n      tag_669\n        /* \"#utility.yul\":14116:14122   */\n      dup2\n        /* \"#utility.yul\":14111:14114   */\n      dup6\n        /* \"#utility.yul\":14052:14123   */\n      tag_670\n      jump\t// in\n    tag_669:\n        /* \"#utility.yul\":14045:14123   */\n      swap4\n      pop\n        /* \"#utility.yul\":14132:14184   */\n      tag_671\n        /* \"#utility.yul\":14177:14183   */\n      dup2\n        /* \"#utility.yul\":14172:14175   */\n      dup6\n        /* \"#utility.yul\":14165:14169   */\n      0x20\n        /* \"#utility.yul\":14158:14163   */\n      dup7\n        /* \"#utility.yul\":14154:14170   */\n      add\n        /* \"#utility.yul\":14132:14184   */\n      tag_663\n      jump\t// in\n    tag_671:\n        /* \"#utility.yul\":14209:14238   */\n      tag_672\n        /* \"#utility.yul\":14231:14237   */\n      dup2\n        /* \"#utility.yul\":14209:14238   */\n      tag_665\n      jump\t// in\n    tag_672:\n        /* \"#utility.yul\":14204:14207   */\n      dup5\n        /* \"#utility.yul\":14200:14239   */\n      add\n        /* \"#utility.yul\":14193:14239   */\n      swap2\n      pop\n        /* \"#utility.yul\":13973:14245   */\n      pop\n        /* \"#utility.yul\":13881:14245   */\n      swap3\n      swap2\n      pop\n      pop\n      jump\t// out\n        /* \"#utility.yul\":14251:14628   */\n    tag_673:\n        /* \"#utility.yul\":14357:14360   */\n      0x00\n        /* \"#utility.yul\":14385:14424   */\n      tag_675\n        /* \"#utility.yul\":14418:14423   */\n      dup3\n        /* \"#utility.yul\":14385:14424   */\n      tag_659\n      jump\t// in\n    tag_675:\n        /* \"#utility.yul\":14440:14529   */\n      tag_676\n        /* \"#utility.yul\":14522:14528   */\n      dup2\n        /* \"#utility.yul\":14517:14520   */\n      dup6\n        /* \"#utility.yul\":14440:14529   */\n      tag_677\n      jump\t// in\n    tag_676:\n        /* \"#utility.yul\":14433:14529   */\n      swap4\n      pop\n        /* \"#utility.yul\":14538:14590   */\n      tag_678\n        /* \"#utility.yul\":14583:14589   */\n      dup2\n        /* \"#utility.yul\":14578:14581   */\n      dup6\n        /* \"#utility.yul\":14571:14575   */\n      0x20\n        /* \"#utility.yul\":14564:14569   */\n      dup7\n        /* \"#utility.yul\":14560:14576   */\n      add\n        /* \"#utility.yul\":14538:14590   */\n      tag_663\n      jump\t// in\n    tag_678:\n        /* \"#utility.yul\":14615:14621   */\n      dup1\n        /* \"#utility.yul\":14610:14613   */\n      dup5\n        /* \"#utility.yul\":14606:14622   */\n      add\n        /* \"#utility.yul\":14599:14622   */\n      swap2\n      pop\n        /* \"#utility.yul\":14361:14628   */\n      pop\n        /* \"#utility.yul\":14251:14628   */\n      swap3\n      swap2\n      pop\n      pop\n      jump\t// out\n        /* \"#utility.yul\":14634:15000   */\n    tag_679:\n        /* \"#utility.yul\":14776:14779   */\n      0x00\n        /* \"#utility.yul\":14797:14864   */\n      tag_681\n        /* \"#utility.yul\":14861:14863   */\n      0x1b\n        /* \"#utility.yul\":14856:14859   */\n      dup4\n        /* \"#utility.yul\":14797:14864   */\n      tag_670\n      jump\t// in\n    tag_681:\n        /* \"#utility.yul\":14790:14864   */\n      swap2\n      pop\n        /* \"#utility.yul\":14873:14966   */\n      tag_682\n        /* \"#utility.yul\":14962:14965   */\n      dup3\n        /* \"#utility.yul\":14873:14966   */\n      tag_683\n      jump\t// in\n    tag_682:\n        /* \"#utility.yul\":14991:14993   */\n      0x20\n        /* \"#utility.yul\":14986:14989   */\n      dup3\n        /* \"#utility.yul\":14982:14994   */\n      add\n        /* \"#utility.yul\":14975:14994   */\n      swap1\n      pop\n        /* \"#utility.yul\":14634:15000   */\n      swap2\n      swap1\n      pop\n      jump\t// out\n        /* \"#utility.yul\":15006:15372   */\n    tag_684:\n        /* \"#utility.yul\":15148:15151   */\n      0x00\n        /* \"#utility.yul\":15169:15236   */\n      tag_686\n        /* \"#utility.yul\":15233:15235   */\n      0x22\n        /* \"#utility.yul\":15228:15231   */\n      dup4\n        /* \"#utility.yul\":15169:15236   */\n      tag_670\n      jump\t// in\n    tag_686:\n        /* \"#utility.yul\":15162:15236   */\n      swap2\n      pop\n        /* \"#utility.yul\":15245:15338   */\n      tag_687\n        /* \"#utility.yul\":15334:15337   */\n      dup3\n        /* \"#utility.yul\":15245:15338   */\n      tag_688\n      jump\t// in\n    tag_687:\n        /* \"#utility.yul\":15363:15365   */\n      0x40\n        /* \"#utility.yul\":15358:15361   */\n      dup3\n        /* \"#utility.yul\":15354:15366   */\n      add\n        /* \"#utility.yul\":15347:15366   */\n      swap1\n      pop\n        /* \"#utility.yul\":15006:15372   */\n      swap2\n      swap1\n      pop\n      jump\t// out\n        /* \"#utility.yul\":15378:15744   */\n    tag_689:\n        /* \"#utility.yul\":15520:15523   */\n      0x00\n        /* \"#utility.yul\":15541:15608   */\n      tag_691\n        /* \"#utility.yul\":15605:15607   */\n      0x0b\n        /* \"#utility.yul\":15600:15603   */\n      dup4\n        /* \"#utility.yul\":15541:15608   */\n      tag_670\n      jump\t// in\n    tag_691:\n        /* \"#utility.yul\":15534:15608   */\n      swap2\n      pop\n        /* \"#utility.yul\":15617:15710   */\n      tag_692\n        /* \"#utility.yul\":15706:15709   */\n      dup3\n        /* \"#utility.yul\":15617:15710   */\n      tag_693\n      jump\t// in\n    tag_692:\n        /* \"#utility.yul\":15735:15737   */\n      0x20\n        /* \"#utility.yul\":15730:15733   */\n      dup3\n        /* \"#utility.yul\":15726:15738   */\n      add\n        /* \"#utility.yul\":15719:15738   */\n      swap1\n      pop\n        /* \"#utility.yul\":15378:15744   */\n      swap2\n      swap1\n      pop\n      jump\t// out\n        /* \"#utility.yul\":15750:16115   */\n    tag_694:\n        /* \"#utility.yul\":15892:15895   */\n      0x00\n        /* \"#utility.yul\":15913:15979   */\n      tag_696\n        /* \"#utility.yul\":15977:15978   */\n      0x09\n        /* \"#utility.yul\":15972:15975   */\n      dup4\n        /* \"#utility.yul\":15913:15979   */\n      tag_670\n      jump\t// in\n    tag_696:\n        /* \"#utility.yul\":15906:15979   */\n      swap2\n      pop\n        /* \"#utility.yul\":15988:16081   */\n      tag_697\n        /* \"#utility.yul\":16077:16080   */\n      dup3\n        /* \"#utility.yul\":15988:16081   */\n      tag_698\n      jump\t// in\n    tag_697:\n        /* \"#utility.yul\":16106:16108   */\n      0x20\n        /* \"#utility.yul\":16101:16104   */\n      dup3\n        /* \"#utility.yul\":16097:16109   */\n      add\n        /* \"#utility.yul\":16090:16109   */\n      swap1\n      pop\n        /* \"#utility.yul\":15750:16115   */\n      swap2\n      swap1\n      pop\n      jump\t// out\n        /* \"#utility.yul\":16121:16487   */\n    tag_699:\n        /* \"#utility.yul\":16263:16266   */\n      0x00\n        /* \"#utility.yul\":16284:16351   */\n      tag_701\n        /* \"#utility.yul\":16348:16350   */\n      0x0c\n        /* \"#utility.yul\":16343:16346   */\n      dup4\n        /* \"#utility.yul\":16284:16351   */\n      tag_670\n      jump\t// in\n    tag_701:\n        /* \"#utility.yul\":16277:16351   */\n      swap2\n      pop\n        /* \"#utility.yul\":16360:16453   */\n      tag_702\n        /* \"#utility.yul\":16449:16452   */\n      dup3\n        /* \"#utility.yul\":16360:16453   */\n      tag_703\n      jump\t// in\n    tag_702:\n        /* \"#utility.yul\":16478:16480   */\n      0x20\n        /* \"#utility.yul\":16473:16476   */\n      dup3\n        /* \"#utility.yul\":16469:16481   */\n      add\n        /* \"#utility.yul\":16462:16481   */\n      swap1\n      pop\n        /* \"#utility.yul\":16121:16487   */\n      swap2\n      swap1\n      pop\n      jump\t// out\n        /* \"#utility.yul\":16493:16859   */\n    tag_704:\n        /* \"#utility.yul\":16635:16638   */\n      0x00\n        /* \"#utility.yul\":16656:16723   */\n      tag_706\n        /* \"#utility.yul\":16720:16722   */\n      0x0d\n        /* \"#utility.yul\":16715:16718   */\n      dup4\n        /* \"#utility.yul\":16656:16723   */\n      tag_670\n      jump\t// in\n    tag_706:\n        /* \"#utility.yul\":16649:16723   */\n      swap2\n      pop\n        /* \"#utility.yul\":16732:16825   */\n      tag_707\n        /* \"#utility.yul\":16821:16824   */\n      dup3\n        /* \"#utility.yul\":16732:16825   */\n      tag_708\n      jump\t// in\n    tag_707:\n        /* \"#utility.yul\":16850:16852   */\n      0x20\n        /* \"#utility.yul\":16845:16848   */\n      dup3\n        /* \"#utility.yul\":16841:16853   */\n      add\n        /* \"#utility.yul\":16834:16853   */\n      swap1\n      pop\n        /* \"#utility.yul\":16493:16859   */\n      swap2\n      swap1\n      pop\n      jump\t// out\n        /* \"#utility.yul\":16865:17231   */\n    tag_709:\n        /* \"#utility.yul\":17007:17010   */\n      0x00\n        /* \"#utility.yul\":17028:17095   */\n      tag_711\n        /* \"#utility.yul\":17092:17094   */\n      0x16\n        /* \"#utility.yul\":17087:17090   */\n      dup4\n        /* \"#utility.yul\":17028:17095   */\n      tag_670\n      jump\t// in\n    tag_711:\n        /* \"#utility.yul\":17021:17095   */\n      swap2\n      pop\n        /* \"#utility.yul\":17104:17197   */\n      tag_712\n        /* \"#utility.yul\":17193:17196   */\n      dup3\n        /* \"#utility.yul\":17104:17197   */\n      tag_713\n      jump\t// in\n    tag_712:\n        /* \"#utility.yul\":17222:17224   */\n      0x20\n        /* \"#utility.yul\":17217:17220   */\n      dup3\n        /* \"#utility.yul\":17213:17225   */\n      add\n        /* \"#utility.yul\":17206:17225   */\n      swap1\n      pop\n        /* \"#utility.yul\":16865:17231   */\n      swap2\n      swap1\n      pop\n      jump\t// out\n        /* \"#utility.yul\":17237:17603   */\n    tag_714:\n        /* \"#utility.yul\":17379:17382   */\n      0x00\n        /* \"#utility.yul\":17400:17467   */\n      tag_716\n        /* \"#utility.yul\":17464:17466   */\n      0x0b\n        /* \"#utility.yul\":17459:17462   */\n      dup4\n        /* \"#utility.yul\":17400:17467   */\n      tag_670\n      jump\t// in\n    tag_716:\n        /* \"#utility.yul\":17393:17467   */\n      swap2\n      pop\n        /* \"#utility.yul\":17476:17569   */\n      tag_717\n        /* \"#utility.yul\":17565:17568   */\n      dup3\n        /* \"#utility.yul\":17476:17569   */\n      tag_718\n      jump\t// in\n    tag_717:\n        /* \"#utility.yul\":17594:17596   */\n      0x20\n        /* \"#utility.yul\":17589:17592   */\n      dup3\n        /* \"#utility.yul\":17585:17597   */\n      add\n        /* \"#utility.yul\":17578:17597   */\n      swap1\n      pop\n        /* \"#utility.yul\":17237:17603   */\n      swap2\n      swap1\n      pop\n      jump\t// out\n        /* \"#utility.yul\":17649:18677   */\n    tag_600:\n        /* \"#utility.yul\":17756:17759   */\n      0x00\n        /* \"#utility.yul\":17792:17796   */\n      0x80\n        /* \"#utility.yul\":17787:17790   */\n      dup4\n        /* \"#utility.yul\":17783:17797   */\n      add\n        /* \"#utility.yul\":17883:17887   */\n      0x00\n        /* \"#utility.yul\":17876:17881   */\n      dup4\n        /* \"#utility.yul\":17872:17888   */\n      add\n        /* \"#utility.yul\":17866:17889   */\n      mload\n        /* \"#utility.yul\":17902:17965   */\n      tag_720\n        /* \"#utility.yul\":17959:17963   */\n      0x00\n        /* \"#utility.yul\":17954:17957   */\n      dup7\n        /* \"#utility.yul\":17950:17964   */\n      add\n        /* \"#utility.yul\":17936:17948   */\n      dup3\n        /* \"#utility.yul\":17902:17965   */\n      tag_592\n      jump\t// in\n    tag_720:\n        /* \"#utility.yul\":17807:17975   */\n      pop\n        /* \"#utility.yul\":18064:18068   */\n      0x20\n        /* \"#utility.yul\":18057:18062   */\n      dup4\n        /* \"#utility.yul\":18053:18069   */\n      add\n        /* \"#utility.yul\":18047:18070   */\n      mload\n        /* \"#utility.yul\":18117:18120   */\n      dup5\n        /* \"#utility.yul\":18111:18115   */\n      dup3\n        /* \"#utility.yul\":18107:18121   */\n      sub\n        /* \"#utility.yul\":18100:18104   */\n      0x20\n        /* \"#utility.yul\":18095:18098   */\n      dup7\n        /* \"#utility.yul\":18091:18105   */\n      add\n        /* \"#utility.yul\":18084:18122   */\n      mstore\n        /* \"#utility.yul\":18143:18216   */\n      tag_721\n        /* \"#utility.yul\":18211:18215   */\n      dup3\n        /* \"#utility.yul\":18197:18209   */\n      dup3\n        /* \"#utility.yul\":18143:18216   */\n      tag_596\n      jump\t// in\n    tag_721:\n        /* \"#utility.yul\":18135:18216   */\n      swap2\n      pop\n        /* \"#utility.yul\":17985:18227   */\n      pop\n        /* \"#utility.yul\":18316:18320   */\n      0x40\n        /* \"#utility.yul\":18309:18314   */\n      dup4\n        /* \"#utility.yul\":18305:18321   */\n      add\n        /* \"#utility.yul\":18299:18322   */\n      mload\n        /* \"#utility.yul\":18369:18372   */\n      dup5\n        /* \"#utility.yul\":18363:18367   */\n      dup3\n        /* \"#utility.yul\":18359:18373   */\n      sub\n        /* \"#utility.yul\":18352:18356   */\n      0x40\n        /* \"#utility.yul\":18347:18350   */\n      dup7\n        /* \"#utility.yul\":18343:18357   */\n      add\n        /* \"#utility.yul\":18336:18374   */\n      mstore\n        /* \"#utility.yul\":18395:18468   */\n      tag_722\n        /* \"#utility.yul\":18463:18467   */\n      dup3\n        /* \"#utility.yul\":18449:18461   */\n      dup3\n        /* \"#utility.yul\":18395:18468   */\n      tag_596\n      jump\t// in\n    tag_722:\n        /* \"#utility.yul\":18387:18468   */\n      swap2\n      pop\n        /* \"#utility.yul\":18237:18479   */\n      pop\n        /* \"#utility.yul\":18564:18568   */\n      0x60\n        /* \"#utility.yul\":18557:18562   */\n      dup4\n        /* \"#utility.yul\":18553:18569   */\n      add\n        /* \"#utility.yul\":18547:18570   */\n      mload\n        /* \"#utility.yul\":18583:18640   */\n      tag_723\n        /* \"#utility.yul\":18634:18638   */\n      0x60\n        /* \"#utility.yul\":18629:18632   */\n      dup7\n        /* \"#utility.yul\":18625:18639   */\n      add\n        /* \"#utility.yul\":18611:18623   */\n      dup3\n        /* \"#utility.yul\":18583:18640   */\n      tag_649\n      jump\t// in\n    tag_723:\n        /* \"#utility.yul\":18489:18650   */\n      pop\n        /* \"#utility.yul\":18667:18671   */\n      dup1\n        /* \"#utility.yul\":18660:18671   */\n      swap2\n      pop\n        /* \"#utility.yul\":17761:18677   */\n      pop\n        /* \"#utility.yul\":17649:18677   */\n      swap3\n      swap2\n      pop\n      pop\n      jump\t// out\n        /* \"#utility.yul\":18683:18801   */\n    tag_724:\n        /* \"#utility.yul\":18770:18794   */\n      tag_726\n        /* \"#utility.yul\":18788:18793   */\n      dup2\n        /* \"#utility.yul\":18770:18794   */\n      tag_727\n      jump\t// in\n    tag_726:\n        /* \"#utility.yul\":18765:18768   */\n      dup3\n        /* \"#utility.yul\":18758:18795   */\n      mstore\n        /* \"#utility.yul\":18683:18801   */\n      pop\n      pop\n      jump\t// out\n        /* \"#utility.yul\":18807:19082   */\n    tag_162:\n        /* \"#utility.yul\":18939:18942   */\n      0x00\n        /* \"#utility.yul\":18961:19056   */\n      tag_729\n        /* \"#utility.yul\":19052:19055   */\n      dup3\n        /* \"#utility.yul\":19043:19049   */\n      dup5\n        /* \"#utility.yul\":18961:19056   */\n      tag_673\n      jump\t// in\n    tag_729:\n        /* \"#utility.yul\":18954:19056   */\n      swap2\n      pop\n        /* \"#utility.yul\":19073:19076   */\n      dup2\n        /* \"#utility.yul\":19066:19076   */\n      swap1\n      pop\n        /* \"#utility.yul\":18807:19082   */\n      swap3\n      swap2\n      pop\n      pop\n      jump\t// out\n        /* \"#utility.yul\":19088:19950   */\n    tag_44:\n        /* \"#utility.yul\":19339:19343   */\n      0x00\n        /* \"#utility.yul\":19377:19380   */\n      0xc0\n        /* \"#utility.yul\":19366:19375   */\n      dup3\n        /* \"#utility.yul\":19362:19381   */\n      add\n        /* \"#utility.yul\":19354:19381   */\n      swap1\n      pop\n        /* \"#utility.yul\":19391:19462   */\n      tag_731\n        /* \"#utility.yul\":19459:19460   */\n      0x00\n        /* \"#utility.yul\":19448:19457   */\n      dup4\n        /* \"#utility.yul\":19444:19461   */\n      add\n        /* \"#utility.yul\":19435:19441   */\n      dup10\n        /* \"#utility.yul\":19391:19462   */\n      tag_604\n      jump\t// in\n    tag_731:\n        /* \"#utility.yul\":19472:19544   */\n      tag_732\n        /* \"#utility.yul\":19540:19542   */\n      0x20\n        /* \"#utility.yul\":19529:19538   */\n      dup4\n        /* \"#utility.yul\":19525:19543   */\n      add\n        /* \"#utility.yul\":19516:19522   */\n      dup9\n        /* \"#utility.yul\":19472:19544   */\n      tag_604\n      jump\t// in\n    tag_732:\n        /* \"#utility.yul\":19591:19600   */\n      dup2\n        /* \"#utility.yul\":19585:19589   */\n      dup2\n        /* \"#utility.yul\":19581:19601   */\n      sub\n        /* \"#utility.yul\":19576:19578   */\n      0x40\n        /* \"#utility.yul\":19565:19574   */\n      dup4\n        /* \"#utility.yul\":19561:19579   */\n      add\n        /* \"#utility.yul\":19554:19602   */\n      mstore\n        /* \"#utility.yul\":19619:19697   */\n      tag_733\n        /* \"#utility.yul\":19692:19696   */\n      dup2\n        /* \"#utility.yul\":19683:19689   */\n      dup8\n        /* \"#utility.yul\":19619:19697   */\n      tag_666\n      jump\t// in\n    tag_733:\n        /* \"#utility.yul\":19611:19697   */\n      swap1\n      pop\n        /* \"#utility.yul\":19707:19779   */\n      tag_734\n        /* \"#utility.yul\":19775:19777   */\n      0x60\n        /* \"#utility.yul\":19764:19773   */\n      dup4\n        /* \"#utility.yul\":19760:19778   */\n      add\n        /* \"#utility.yul\":19751:19757   */\n      dup7\n        /* \"#utility.yul\":19707:19779   */\n      tag_724\n      jump\t// in\n    tag_734:\n        /* \"#utility.yul\":19789:19862   */\n      tag_735\n        /* \"#utility.yul\":19857:19860   */\n      0x80\n        /* \"#utility.yul\":19846:19855   */\n      dup4\n        /* \"#utility.yul\":19842:19861   */\n      add\n        /* \"#utility.yul\":19833:19839   */\n      dup6\n        /* \"#utility.yul\":19789:19862   */\n      tag_724\n      jump\t// in\n    tag_735:\n        /* \"#utility.yul\":19872:19943   */\n      tag_736\n        /* \"#utility.yul\":19938:19941   */\n      0xa0\n        /* \"#utility.yul\":19927:19936   */\n      dup4\n        /* \"#utility.yul\":19923:19942   */\n      add\n        /* \"#utility.yul\":19914:19920   */\n      dup5\n        /* \"#utility.yul\":19872:19943   */\n      tag_653\n      jump\t// in\n    tag_736:\n        /* \"#utility.yul\":19088:19950   */\n      swap8\n      swap7\n      pop\n      pop\n      pop\n      pop\n      pop\n      pop\n      pop\n      jump\t// out\n        /* \"#utility.yul\":19956:20379   */\n    tag_49:\n        /* \"#utility.yul\":20097:20101   */\n      0x00\n        /* \"#utility.yul\":20135:20137   */\n      0x40\n        /* \"#utility.yul\":20124:20133   */\n      dup3\n        /* \"#utility.yul\":20120:20138   */\n      add\n        /* \"#utility.yul\":20112:20138   */\n      swap1\n      pop\n        /* \"#utility.yul\":20148:20219   */\n      tag_738\n        /* \"#utility.yul\":20216:20217   */\n      0x00\n        /* \"#utility.yul\":20205:20214   */\n      dup4\n        /* \"#utility.yul\":20201:20218   */\n      add\n        /* \"#utility.yul\":20192:20198   */\n      dup6\n        /* \"#utility.yul\":20148:20219   */\n      tag_604\n      jump\t// in\n    tag_738:\n        /* \"#utility.yul\":20266:20275   */\n      dup2\n        /* \"#utility.yul\":20260:20264   */\n      dup2\n        /* \"#utility.yul\":20256:20276   */\n      sub\n        /* \"#utility.yul\":20251:20253   */\n      0x20\n        /* \"#utility.yul\":20240:20249   */\n      dup4\n        /* \"#utility.yul\":20236:20254   */\n      add\n        /* \"#utility.yul\":20229:20277   */\n      mstore\n        /* \"#utility.yul\":20294:20372   */\n      tag_739\n        /* \"#utility.yul\":20367:20371   */\n      dup2\n        /* \"#utility.yul\":20358:20364   */\n      dup5\n        /* \"#utility.yul\":20294:20372   */\n      tag_666\n      jump\t// in\n    tag_739:\n        /* \"#utility.yul\":20286:20372   */\n      swap1\n      pop\n        /* \"#utility.yul\":19956:20379   */\n      swap4\n      swap3\n      pop\n      pop\n      pop\n      jump\t// out\n        /* \"#utility.yul\":20385:21618   */\n    tag_91:\n        /* \"#utility.yul\":20800:20804   */\n      0x00\n        /* \"#utility.yul\":20838:20841   */\n      0x80\n        /* \"#utility.yul\":20827:20836   */\n      dup3\n        /* \"#utility.yul\":20823:20842   */\n      add\n        /* \"#utility.yul\":20815:20842   */\n      swap1\n      pop\n        /* \"#utility.yul\":20888:20897   */\n      dup2\n        /* \"#utility.yul\":20882:20886   */\n      dup2\n        /* \"#utility.yul\":20878:20898   */\n      sub\n        /* \"#utility.yul\":20874:20875   */\n      0x00\n        /* \"#utility.yul\":20863:20872   */\n      dup4\n        /* \"#utility.yul\":20859:20876   */\n      add\n        /* \"#utility.yul\":20852:20899   */\n      mstore\n        /* \"#utility.yul\":20916:20994   */\n      tag_741\n        /* \"#utility.yul\":20989:20993   */\n      dup2\n        /* \"#utility.yul\":20980:20986   */\n      dup8\n        /* \"#utility.yul\":20916:20994   */\n      tag_666\n      jump\t// in\n    tag_741:\n        /* \"#utility.yul\":20908:20994   */\n      swap1\n      pop\n        /* \"#utility.yul\":21041:21050   */\n      dup2\n        /* \"#utility.yul\":21035:21039   */\n      dup2\n        /* \"#utility.yul\":21031:21051   */\n      sub\n        /* \"#utility.yul\":21026:21028   */\n      0x20\n        /* \"#utility.yul\":21015:21024   */\n      dup4\n        /* \"#utility.yul\":21011:21029   */\n      add\n        /* \"#utility.yul\":21004:21052   */\n      mstore\n        /* \"#utility.yul\":21069:21225   */\n      tag_742\n        /* \"#utility.yul\":21220:21224   */\n      dup2\n        /* \"#utility.yul\":21211:21217   */\n      dup7\n        /* \"#utility.yul\":21069:21225   */\n      tag_635\n      jump\t// in\n    tag_742:\n        /* \"#utility.yul\":21061:21225   */\n      swap1\n      pop\n        /* \"#utility.yul\":21272:21281   */\n      dup2\n        /* \"#utility.yul\":21266:21270   */\n      dup2\n        /* \"#utility.yul\":21262:21282   */\n      sub\n        /* \"#utility.yul\":21257:21259   */\n      0x40\n        /* \"#utility.yul\":21246:21255   */\n      dup4\n        /* \"#utility.yul\":21242:21260   */\n      add\n        /* \"#utility.yul\":21235:21283   */\n      mstore\n        /* \"#utility.yul\":21300:21428   */\n      tag_743\n        /* \"#utility.yul\":21423:21427   */\n      dup2\n        /* \"#utility.yul\":21414:21420   */\n      dup6\n        /* \"#utility.yul\":21300:21428   */\n      tag_621\n      jump\t// in\n    tag_743:\n        /* \"#utility.yul\":21292:21428   */\n      swap1\n      pop\n        /* \"#utility.yul\":21475:21484   */\n      dup2\n        /* \"#utility.yul\":21469:21473   */\n      dup2\n        /* \"#utility.yul\":21465:21485   */\n      sub\n        /* \"#utility.yul\":21460:21462   */\n      0x60\n        /* \"#utility.yul\":21449:21458   */\n      dup4\n        /* \"#utility.yul\":21445:21463   */\n      add\n        /* \"#utility.yul\":21438:21486   */\n      mstore\n        /* \"#utility.yul\":21503:21611   */\n      tag_744\n        /* \"#utility.yul\":21606:21610   */\n      dup2\n        /* \"#utility.yul\":21597:21603   */\n      dup5\n        /* \"#utility.yul\":21503:21611   */\n      tag_607\n      jump\t// in\n    tag_744:\n        /* \"#utility.yul\":21495:21611   */\n      swap1\n      pop\n        /* \"#utility.yul\":20385:21618   */\n      swap6\n      swap5\n      pop\n      pop\n      pop\n      pop\n      pop\n      jump\t// out\n        /* \"#utility.yul\":21624:22843   */\n    tag_30:\n        /* \"#utility.yul\":21979:21983   */\n      0x00\n        /* \"#utility.yul\":22017:22020   */\n      0xa0\n        /* \"#utility.yul\":22006:22015   */\n      dup3\n        /* \"#utility.yul\":22002:22021   */\n      add\n        /* \"#utility.yul\":21994:22021   */\n      swap1\n      pop\n        /* \"#utility.yul\":22067:22076   */\n      dup2\n        /* \"#utility.yul\":22061:22065   */\n      dup2\n        /* \"#utility.yul\":22057:22077   */\n      sub\n        /* \"#utility.yul\":22053:22054   */\n      0x00\n        /* \"#utility.yul\":22042:22051   */\n      dup4\n        /* \"#utility.yul\":22038:22055   */\n      add\n        /* \"#utility.yul\":22031:22078   */\n      mstore\n        /* \"#utility.yul\":22095:22173   */\n      tag_746\n        /* \"#utility.yul\":22168:22172   */\n      dup2\n        /* \"#utility.yul\":22159:22165   */\n      dup9\n        /* \"#utility.yul\":22095:22173   */\n      tag_666\n      jump\t// in\n    tag_746:\n        /* \"#utility.yul\":22087:22173   */\n      swap1\n      pop\n        /* \"#utility.yul\":22220:22229   */\n      dup2\n        /* \"#utility.yul\":22214:22218   */\n      dup2\n        /* \"#utility.yul\":22210:22230   */\n      sub\n        /* \"#utility.yul\":22205:22207   */\n      0x20\n        /* \"#utility.yul\":22194:22203   */\n      dup4\n        /* \"#utility.yul\":22190:22208   */\n      add\n        /* \"#utility.yul\":22183:22231   */\n      mstore\n        /* \"#utility.yul\":22248:22326   */\n      tag_747\n        /* \"#utility.yul\":22321:22325   */\n      dup2\n        /* \"#utility.yul\":22312:22318   */\n      dup8\n        /* \"#utility.yul\":22248:22326   */\n      tag_666\n      jump\t// in\n    tag_747:\n        /* \"#utility.yul\":22240:22326   */\n      swap1\n      pop\n        /* \"#utility.yul\":22373:22382   */\n      dup2\n        /* \"#utility.yul\":22367:22371   */\n      dup2\n        /* \"#utility.yul\":22363:22383   */\n      sub\n        /* \"#utility.yul\":22358:22360   */\n      0x40\n        /* \"#utility.yul\":22347:22356   */\n      dup4\n        /* \"#utility.yul\":22343:22361   */\n      add\n        /* \"#utility.yul\":22336:22384   */\n      mstore\n        /* \"#utility.yul\":22401:22479   */\n      tag_748\n        /* \"#utility.yul\":22474:22478   */\n      dup2\n        /* \"#utility.yul\":22465:22471   */\n      dup7\n        /* \"#utility.yul\":22401:22479   */\n      tag_666\n      jump\t// in\n    tag_748:\n        /* \"#utility.yul\":22393:22479   */\n      swap1\n      pop\n        /* \"#utility.yul\":22526:22535   */\n      dup2\n        /* \"#utility.yul\":22520:22524   */\n      dup2\n        /* \"#utility.yul\":22516:22536   */\n      sub\n        /* \"#utility.yul\":22511:22513   */\n      0x60\n        /* \"#utility.yul\":22500:22509   */\n      dup4\n        /* \"#utility.yul\":22496:22514   */\n      add\n        /* \"#utility.yul\":22489:22537   */\n      mstore\n        /* \"#utility.yul\":22554:22632   */\n      tag_749\n        /* \"#utility.yul\":22627:22631   */\n      dup2\n        /* \"#utility.yul\":22618:22624   */\n      dup6\n        /* \"#utility.yul\":22554:22632   */\n      tag_666\n      jump\t// in\n    tag_749:\n        /* \"#utility.yul\":22546:22632   */\n      swap1\n      pop\n        /* \"#utility.yul\":22680:22689   */\n      dup2\n        /* \"#utility.yul\":22674:22678   */\n      dup2\n        /* \"#utility.yul\":22670:22690   */\n      sub\n        /* \"#utility.yul\":22664:22667   */\n      0x80\n        /* \"#utility.yul\":22653:22662   */\n      dup4\n        /* \"#utility.yul\":22649:22668   */\n      add\n        /* \"#utility.yul\":22642:22691   */\n      mstore\n        /* \"#utility.yul\":22708:22836   */\n      tag_750\n        /* \"#utility.yul\":22831:22835   */\n      dup2\n        /* \"#utility.yul\":22822:22828   */\n      dup5\n        /* \"#utility.yul\":22708:22836   */\n      tag_621\n      jump\t// in\n    tag_750:\n        /* \"#utility.yul\":22700:22836   */\n      swap1\n      pop\n        /* \"#utility.yul\":21624:22843   */\n      swap7\n      swap6\n      pop\n      pop\n      pop\n      pop\n      pop\n      pop\n      jump\t// out\n        /* \"#utility.yul\":22849:23775   */\n    tag_76:\n        /* \"#utility.yul\":23136:23140   */\n      0x00\n        /* \"#utility.yul\":23174:23177   */\n      0x80\n        /* \"#utility.yul\":23163:23172   */\n      dup3\n        /* \"#utility.yul\":23159:23178   */\n      add\n        /* \"#utility.yul\":23151:23178   */\n      swap1\n      pop\n        /* \"#utility.yul\":23224:23233   */\n      dup2\n        /* \"#utility.yul\":23218:23222   */\n      dup2\n        /* \"#utility.yul\":23214:23234   */\n      sub\n        /* \"#utility.yul\":23210:23211   */\n      0x00\n        /* \"#utility.yul\":23199:23208   */\n      dup4\n        /* \"#utility.yul\":23195:23212   */\n      add\n        /* \"#utility.yul\":23188:23235   */\n      mstore\n        /* \"#utility.yul\":23252:23330   */\n      tag_752\n        /* \"#utility.yul\":23325:23329   */\n      dup2\n        /* \"#utility.yul\":23316:23322   */\n      dup8\n        /* \"#utility.yul\":23252:23330   */\n      tag_666\n      jump\t// in\n    tag_752:\n        /* \"#utility.yul\":23244:23330   */\n      swap1\n      pop\n        /* \"#utility.yul\":23377:23386   */\n      dup2\n        /* \"#utility.yul\":23371:23375   */\n      dup2\n        /* \"#utility.yul\":23367:23387   */\n      sub\n        /* \"#utility.yul\":23362:23364   */\n      0x20\n        /* \"#utility.yul\":23351:23360   */\n      dup4\n        /* \"#utility.yul\":23347:23365   */\n      add\n        /* \"#utility.yul\":23340:23388   */\n      mstore\n        /* \"#utility.yul\":23405:23483   */\n      tag_753\n        /* \"#utility.yul\":23478:23482   */\n      dup2\n        /* \"#utility.yul\":23469:23475   */\n      dup7\n        /* \"#utility.yul\":23405:23483   */\n      tag_666\n      jump\t// in\n    tag_753:\n        /* \"#utility.yul\":23397:23483   */\n      swap1\n      pop\n        /* \"#utility.yul\":23493:23565   */\n      tag_754\n        /* \"#utility.yul\":23561:23563   */\n      0x40\n        /* \"#utility.yul\":23550:23559   */\n      dup4\n        /* \"#utility.yul\":23546:23564   */\n      add\n        /* \"#utility.yul\":23537:23543   */\n      dup6\n        /* \"#utility.yul\":23493:23565   */\n      tag_724\n      jump\t// in\n    tag_754:\n        /* \"#utility.yul\":23612:23621   */\n      dup2\n        /* \"#utility.yul\":23606:23610   */\n      dup2\n        /* \"#utility.yul\":23602:23622   */\n      sub\n        /* \"#utility.yul\":23597:23599   */\n      0x60\n        /* \"#utility.yul\":23586:23595   */\n      dup4\n        /* \"#utility.yul\":23582:23600   */\n      add\n        /* \"#utility.yul\":23575:23623   */\n      mstore\n        /* \"#utility.yul\":23640:23768   */\n      tag_755\n        /* \"#utility.yul\":23763:23767   */\n      dup2\n        /* \"#utility.yul\":23754:23760   */\n      dup5\n        /* \"#utility.yul\":23640:23768   */\n      tag_621\n      jump\t// in\n    tag_755:\n        /* \"#utility.yul\":23632:23768   */\n      swap1\n      pop\n        /* \"#utility.yul\":22849:23775   */\n      swap6\n      swap5\n      pop\n      pop\n      pop\n      pop\n      pop\n      jump\t// out\n        /* \"#utility.yul\":23781:24200   */\n    tag_266:\n        /* \"#utility.yul\":23947:23951   */\n      0x00\n        /* \"#utility.yul\":23985:23987   */\n      0x20\n        /* \"#utility.yul\":23974:23983   */\n      dup3\n        /* \"#utility.yul\":23970:23988   */\n      add\n        /* \"#utility.yul\":23962:23988   */\n      swap1\n      pop\n        /* \"#utility.yul\":24034:24043   */\n      dup2\n        /* \"#utility.yul\":24028:24032   */\n      dup2\n        /* \"#utility.yul\":24024:24044   */\n      sub\n        /* \"#utility.yul\":24020:24021   */\n      0x00\n        /* \"#utility.yul\":24009:24018   */\n      dup4\n        /* \"#utility.yul\":24005:24022   */\n      add\n        /* \"#utility.yul\":23998:24045   */\n      mstore\n        /* \"#utility.yul\":24062:24193   */\n      tag_757\n        /* \"#utility.yul\":24188:24192   */\n      dup2\n        /* \"#utility.yul\":24062:24193   */\n      tag_679\n      jump\t// in\n    tag_757:\n        /* \"#utility.yul\":24054:24193   */\n      swap1\n      pop\n        /* \"#utility.yul\":23781:24200   */\n      swap2\n      swap1\n      pop\n      jump\t// out\n        /* \"#utility.yul\":24206:24625   */\n    tag_434:\n        /* \"#utility.yul\":24372:24376   */\n      0x00\n        /* \"#utility.yul\":24410:24412   */\n      0x20\n        /* \"#utility.yul\":24399:24408   */\n      dup3\n        /* \"#utility.yul\":24395:24413   */\n      add\n        /* \"#utility.yul\":24387:24413   */\n      swap1\n      pop\n        /* \"#utility.yul\":24459:24468   */\n      dup2\n        /* \"#utility.yul\":24453:24457   */\n      dup2\n        /* \"#utility.yul\":24449:24469   */\n      sub\n        /* \"#utility.yul\":24445:24446   */\n      0x00\n        /* \"#utility.yul\":24434:24443   */\n      dup4\n        /* \"#utility.yul\":24430:24447   */\n      add\n        /* \"#utility.yul\":24423:24470   */\n      mstore\n        /* \"#utility.yul\":24487:24618   */\n      tag_759\n        /* \"#utility.yul\":24613:24617   */\n      dup2\n        /* \"#utility.yul\":24487:24618   */\n      tag_684\n      jump\t// in\n    tag_759:\n        /* \"#utility.yul\":24479:24618   */\n      swap1\n      pop\n        /* \"#utility.yul\":24206:24625   */\n      swap2\n      swap1\n      pop\n      jump\t// out\n        /* \"#utility.yul\":24631:25050   */\n    tag_285:\n        /* \"#utility.yul\":24797:24801   */\n      0x00\n        /* \"#utility.yul\":24835:24837   */\n      0x20\n        /* \"#utility.yul\":24824:24833   */\n      dup3\n        /* \"#utility.yul\":24820:24838   */\n      add\n        /* \"#utility.yul\":24812:24838   */\n      swap1\n      pop\n        /* \"#utility.yul\":24884:24893   */\n      dup2\n        /* \"#utility.yul\":24878:24882   */\n      dup2\n        /* \"#utility.yul\":24874:24894   */\n      sub\n        /* \"#utility.yul\":24870:24871   */\n      0x00\n        /* \"#utility.yul\":24859:24868   */\n      dup4\n        /* \"#utility.yul\":24855:24872   */\n      add\n        /* \"#utility.yul\":24848:24895   */\n      mstore\n        /* \"#utility.yul\":24912:25043   */\n      tag_761\n        /* \"#utility.yul\":25038:25042   */\n      dup2\n        /* \"#utility.yul\":24912:25043   */\n      tag_689\n      jump\t// in\n    tag_761:\n        /* \"#utility.yul\":24904:25043   */\n      swap1\n      pop\n        /* \"#utility.yul\":24631:25050   */\n      swap2\n      swap1\n      pop\n      jump\t// out\n        /* \"#utility.yul\":25056:25475   */\n    tag_104:\n        /* \"#utility.yul\":25222:25226   */\n      0x00\n        /* \"#utility.yul\":25260:25262   */\n      0x20\n        /* \"#utility.yul\":25249:25258   */\n      dup3\n        /* \"#utility.yul\":25245:25263   */\n      add\n        /* \"#utility.yul\":25237:25263   */\n      swap1\n      pop\n        /* \"#utility.yul\":25309:25318   */\n      dup2\n        /* \"#utility.yul\":25303:25307   */\n      dup2\n        /* \"#utility.yul\":25299:25319   */\n      sub\n        /* \"#utility.yul\":25295:25296   */\n      0x00\n        /* \"#utility.yul\":25284:25293   */\n      dup4\n        /* \"#utility.yul\":25280:25297   */\n      add\n        /* \"#utility.yul\":25273:25320   */\n      mstore\n        /* \"#utility.yul\":25337:25468   */\n      tag_763\n        /* \"#utility.yul\":25463:25467   */\n      dup2\n        /* \"#utility.yul\":25337:25468   */\n      tag_694\n      jump\t// in\n    tag_763:\n        /* \"#utility.yul\":25329:25468   */\n      swap1\n      pop\n        /* \"#utility.yul\":25056:25475   */\n      swap2\n      swap1\n      pop\n      jump\t// out\n        /* \"#utility.yul\":25481:25900   */\n    tag_154:\n        /* \"#utility.yul\":25647:25651   */\n      0x00\n        /* \"#utility.yul\":25685:25687   */\n      0x20\n        /* \"#utility.yul\":25674:25683   */\n      dup3\n        /* \"#utility.yul\":25670:25688   */\n      add\n        /* \"#utility.yul\":25662:25688   */\n      swap1\n      pop\n        /* \"#utility.yul\":25734:25743   */\n      dup2\n        /* \"#utility.yul\":25728:25732   */\n      dup2\n        /* \"#utility.yul\":25724:25744   */\n      sub\n        /* \"#utility.yul\":25720:25721   */\n      0x00\n        /* \"#utility.yul\":25709:25718   */\n      dup4\n        /* \"#utility.yul\":25705:25722   */\n      add\n        /* \"#utility.yul\":25698:25745   */\n      mstore\n        /* \"#utility.yul\":25762:25893   */\n      tag_765\n        /* \"#utility.yul\":25888:25892   */\n      dup2\n        /* \"#utility.yul\":25762:25893   */\n      tag_699\n      jump\t// in\n    tag_765:\n        /* \"#utility.yul\":25754:25893   */\n      swap1\n      pop\n        /* \"#utility.yul\":25481:25900   */\n      swap2\n      swap1\n      pop\n      jump\t// out\n        /* \"#utility.yul\":25906:26325   */\n    tag_138:\n        /* \"#utility.yul\":26072:26076   */\n      0x00\n        /* \"#utility.yul\":26110:26112   */\n      0x20\n        /* \"#utility.yul\":26099:26108   */\n      dup3\n        /* \"#utility.yul\":26095:26113   */\n      add\n        /* \"#utility.yul\":26087:26113   */\n      swap1\n      pop\n        /* \"#utility.yul\":26159:26168   */\n      dup2\n        /* \"#utility.yul\":26153:26157   */\n      dup2\n        /* \"#utility.yul\":26149:26169   */\n      sub\n        /* \"#utility.yul\":26145:26146   */\n      0x00\n        /* \"#utility.yul\":26134:26143   */\n      dup4\n        /* \"#utility.yul\":26130:26147   */\n      add\n        /* \"#utility.yul\":26123:26170   */\n      mstore\n        /* \"#utility.yul\":26187:26318   */\n      tag_767\n        /* \"#utility.yul\":26313:26317   */\n      dup2\n        /* \"#utility.yul\":26187:26318   */\n      tag_704\n      jump\t// in\n    tag_767:\n        /* \"#utility.yul\":26179:26318   */\n      swap1\n      pop\n        /* \"#utility.yul\":25906:26325   */\n      swap2\n      swap1\n      pop\n      jump\t// out\n        /* \"#utility.yul\":26331:26750   */\n    tag_430:\n        /* \"#utility.yul\":26497:26501   */\n      0x00\n        /* \"#utility.yul\":26535:26537   */\n      0x20\n        /* \"#utility.yul\":26524:26533   */\n      dup3\n        /* \"#utility.yul\":26520:26538   */\n      add\n        /* \"#utility.yul\":26512:26538   */\n      swap1\n      pop\n        /* \"#utility.yul\":26584:26593   */\n      dup2\n        /* \"#utility.yul\":26578:26582   */\n      dup2\n        /* \"#utility.yul\":26574:26594   */\n      sub\n        /* \"#utility.yul\":26570:26571   */\n      0x00\n        /* \"#utility.yul\":26559:26568   */\n      dup4\n        /* \"#utility.yul\":26555:26572   */\n      add\n        /* \"#utility.yul\":26548:26595   */\n      mstore\n        /* \"#utility.yul\":26612:26743   */\n      tag_769\n        /* \"#utility.yul\":26738:26742   */\n      dup2\n        /* \"#utility.yul\":26612:26743   */\n      tag_709\n      jump\t// in\n    tag_769:\n        /* \"#utility.yul\":26604:26743   */\n      swap1\n      pop\n        /* \"#utility.yul\":26331:26750   */\n      swap2\n      swap1\n      pop\n      jump\t// out\n        /* \"#utility.yul\":26756:27175   */\n    tag_182:\n        /* \"#utility.yul\":26922:26926   */\n      0x00\n        /* \"#utility.yul\":26960:26962   */\n      0x20\n        /* \"#utility.yul\":26949:26958   */\n      dup3\n        /* \"#utility.yul\":26945:26963   */\n      add\n        /* \"#utility.yul\":26937:26963   */\n      swap1\n      pop\n        /* \"#utility.yul\":27009:27018   */\n      dup2\n        /* \"#utility.yul\":27003:27007   */\n      dup2\n        /* \"#utility.yul\":26999:27019   */\n      sub\n        /* \"#utility.yul\":26995:26996   */\n      0x00\n        /* \"#utility.yul\":26984:26993   */\n      dup4\n        /* \"#utility.yul\":26980:26997   */\n      add\n        /* \"#utility.yul\":26973:27020   */\n      mstore\n        /* \"#utility.yul\":27037:27168   */\n      tag_771\n        /* \"#utility.yul\":27163:27167   */\n      dup2\n        /* \"#utility.yul\":27037:27168   */\n      tag_714\n      jump\t// in\n    tag_771:\n        /* \"#utility.yul\":27029:27168   */\n      swap1\n      pop\n        /* \"#utility.yul\":26756:27175   */\n      swap2\n      swap1\n      pop\n      jump\t// out\n        /* \"#utility.yul\":27181:27310   */\n    tag_478:\n        /* \"#utility.yul\":27215:27221   */\n      0x00\n        /* \"#utility.yul\":27242:27262   */\n      tag_773\n      tag_774\n      jump\t// in\n    tag_773:\n        /* \"#utility.yul\":27232:27262   */\n      swap1\n      pop\n        /* \"#utility.yul\":27271:27304   */\n      tag_775\n        /* \"#utility.yul\":27299:27303   */\n      dup3\n        /* \"#utility.yul\":27291:27297   */\n      dup3\n        /* \"#utility.yul\":27271:27304   */\n      tag_776\n      jump\t// in\n    tag_775:\n        /* \"#utility.yul\":27181:27310   */\n      swap2\n      swap1\n      pop\n      jump\t// out\n        /* \"#utility.yul\":27316:27391   */\n    tag_774:\n        /* \"#utility.yul\":27349:27355   */\n      0x00\n        /* \"#utility.yul\":27382:27384   */\n      0x40\n        /* \"#utility.yul\":27376:27385   */\n      mload\n        /* \"#utility.yul\":27366:27385   */\n      swap1\n      pop\n        /* \"#utility.yul\":27316:27391   */\n      swap1\n      jump\t// out\n        /* \"#utility.yul\":27397:27705   */\n    tag_477:\n        /* \"#utility.yul\":27459:27463   */\n      0x00\n        /* \"#utility.yul\":27549:27567   */\n      0xffffffffffffffff\n        /* \"#utility.yul\":27541:27547   */\n      dup3\n        /* \"#utility.yul\":27538:27568   */\n      gt\n        /* \"#utility.yul\":27535:27591   */\n      iszero\n      tag_779\n      jumpi\n        /* \"#utility.yul\":27571:27589   */\n      tag_780\n      tag_781\n      jump\t// in\n    tag_780:\n        /* \"#utility.yul\":27535:27591   */\n    tag_779:\n        /* \"#utility.yul\":27609:27638   */\n      tag_782\n        /* \"#utility.yul\":27631:27637   */\n      dup3\n        /* \"#utility.yul\":27609:27638   */\n      tag_665\n      jump\t// in\n    tag_782:\n        /* \"#utility.yul\":27601:27638   */\n      swap1\n      pop\n        /* \"#utility.yul\":27693:27697   */\n      0x20\n        /* \"#utility.yul\":27687:27691   */\n      dup2\n        /* \"#utility.yul\":27683:27698   */\n      add\n        /* \"#utility.yul\":27675:27698   */\n      swap1\n      pop\n        /* \"#utility.yul\":27397:27705   */\n      swap2\n      swap1\n      pop\n      jump\t// out\n        /* \"#utility.yul\":27711:27843   */\n    tag_614:\n        /* \"#utility.yul\":27778:27782   */\n      0x00\n        /* \"#utility.yul\":27801:27804   */\n      dup2\n        /* \"#utility.yul\":27793:27804   */\n      swap1\n      pop\n        /* \"#utility.yul\":27831:27835   */\n      0x20\n        /* \"#utility.yul\":27826:27829   */\n      dup3\n        /* \"#utility.yul\":27822:27836   */\n      add\n        /* \"#utility.yul\":27814:27836   */\n      swap1\n      pop\n        /* \"#utility.yul\":27711:27843   */\n      swap2\n      swap1\n      pop\n      jump\t// out\n        /* \"#utility.yul\":27849:27991   */\n    tag_628:\n        /* \"#utility.yul\":27926:27930   */\n      0x00\n        /* \"#utility.yul\":27949:27952   */\n      dup2\n        /* \"#utility.yul\":27941:27952   */\n      swap1\n      pop\n        /* \"#utility.yul\":27979:27983   */\n      0x20\n        /* \"#utility.yul\":27974:27977   */\n      dup3\n        /* \"#utility.yul\":27970:27984   */\n      add\n        /* \"#utility.yul\":27962:27984   */\n      swap1\n      pop\n        /* \"#utility.yul\":27849:27991   */\n      swap2\n      swap1\n      pop\n      jump\t// out\n        /* \"#utility.yul\":27997:28153   */\n    tag_642:\n        /* \"#utility.yul\":28088:28092   */\n      0x00\n        /* \"#utility.yul\":28111:28114   */\n      dup2\n        /* \"#utility.yul\":28103:28114   */\n      swap1\n      pop\n        /* \"#utility.yul\":28141:28145   */\n      0x20\n        /* \"#utility.yul\":28136:28139   */\n      dup3\n        /* \"#utility.yul\":28132:28146   */\n      add\n        /* \"#utility.yul\":28124:28146   */\n      swap1\n      pop\n        /* \"#utility.yul\":27997:28153   */\n      swap2\n      swap1\n      pop\n      jump\t// out\n        /* \"#utility.yul\":28159:28273   */\n    tag_610:\n        /* \"#utility.yul\":28226:28232   */\n      0x00\n        /* \"#utility.yul\":28260:28265   */\n      dup2\n        /* \"#utility.yul\":28254:28266   */\n      mload\n        /* \"#utility.yul\":28244:28266   */\n      swap1\n      pop\n        /* \"#utility.yul\":28159:28273   */\n      swap2\n      swap1\n      pop\n      jump\t// out\n        /* \"#utility.yul\":28279:28403   */\n    tag_624:\n        /* \"#utility.yul\":28356:28362   */\n      0x00\n        /* \"#utility.yul\":28390:28395   */\n      dup2\n        /* \"#utility.yul\":28384:28396   */\n      mload\n        /* \"#utility.yul\":28374:28396   */\n      swap1\n      pop\n        /* \"#utility.yul\":28279:28403   */\n      swap2\n      swap1\n      pop\n      jump\t// out\n        /* \"#utility.yul\":28409:28547   */\n    tag_638:\n        /* \"#utility.yul\":28500:28506   */\n      0x00\n        /* \"#utility.yul\":28534:28539   */\n      dup2\n        /* \"#utility.yul\":28528:28540   */\n      mload\n        /* \"#utility.yul\":28518:28540   */\n      swap1\n      pop\n        /* \"#utility.yul\":28409:28547   */\n      swap2\n      swap1\n      pop\n      jump\t// out\n        /* \"#utility.yul\":28553:28652   */\n    tag_659:\n        /* \"#utility.yul\":28605:28611   */\n      0x00\n        /* \"#utility.yul\":28639:28644   */\n      dup2\n        /* \"#utility.yul\":28633:28645   */\n      mload\n        /* \"#utility.yul\":28623:28645   */\n      swap1\n      pop\n        /* \"#utility.yul\":28553:28652   */\n      swap2\n      swap1\n      pop\n      jump\t// out\n        /* \"#utility.yul\":28658:28771   */\n    tag_620:\n        /* \"#utility.yul\":28728:28732   */\n      0x00\n        /* \"#utility.yul\":28760:28764   */\n      0x20\n        /* \"#utility.yul\":28755:28758   */\n      dup3\n        /* \"#utility.yul\":28751:28765   */\n      add\n        /* \"#utility.yul\":28743:28765   */\n      swap1\n      pop\n        /* \"#utility.yul\":28658:28771   */\n      swap2\n      swap1\n      pop\n      jump\t// out\n        /* \"#utility.yul\":28777:28900   */\n    tag_634:\n        /* \"#utility.yul\":28857:28861   */\n      0x00\n        /* \"#utility.yul\":28889:28893   */\n      0x20\n        /* \"#utility.yul\":28884:28887   */\n      dup3\n        /* \"#utility.yul\":28880:28894   */\n      add\n        /* \"#utility.yul\":28872:28894   */\n      swap1\n      pop\n        /* \"#utility.yul\":28777:28900   */\n      swap2\n      swap1\n      pop\n      jump\t// out\n        /* \"#utility.yul\":28906:29043   */\n    tag_648:\n        /* \"#utility.yul\":29000:29004   */\n      0x00\n        /* \"#utility.yul\":29032:29036   */\n      0x20\n        /* \"#utility.yul\":29027:29030   */\n      dup3\n        /* \"#utility.yul\":29023:29037   */\n      add\n        /* \"#utility.yul\":29015:29037   */\n      swap1\n      pop\n        /* \"#utility.yul\":28906:29043   */\n      swap2\n      swap1\n      pop\n      jump\t// out\n        /* \"#utility.yul\":29049:29233   */\n    tag_612:\n        /* \"#utility.yul\":29148:29159   */\n      0x00\n        /* \"#utility.yul\":29182:29188   */\n      dup3\n        /* \"#utility.yul\":29177:29180   */\n      dup3\n        /* \"#utility.yul\":29170:29189   */\n      mstore\n        /* \"#utility.yul\":29222:29226   */\n      0x20\n        /* \"#utility.yul\":29217:29220   */\n      dup3\n        /* \"#utility.yul\":29213:29227   */\n      add\n        /* \"#utility.yul\":29198:29227   */\n      swap1\n      pop\n        /* \"#utility.yul\":29049:29233   */\n      swap3\n      swap2\n      pop\n      pop\n      jump\t// out\n        /* \"#utility.yul\":29239:29433   */\n    tag_626:\n        /* \"#utility.yul\":29348:29359   */\n      0x00\n        /* \"#utility.yul\":29382:29388   */\n      dup3\n        /* \"#utility.yul\":29377:29380   */\n      dup3\n        /* \"#utility.yul\":29370:29389   */\n      mstore\n        /* \"#utility.yul\":29422:29426   */\n      0x20\n        /* \"#utility.yul\":29417:29420   */\n      dup3\n        /* \"#utility.yul\":29413:29427   */\n      add\n        /* \"#utility.yul\":29398:29427   */\n      swap1\n      pop\n        /* \"#utility.yul\":29239:29433   */\n      swap3\n      swap2\n      pop\n      pop\n      jump\t// out\n        /* \"#utility.yul\":29439:29647   */\n    tag_640:\n        /* \"#utility.yul\":29562:29573   */\n      0x00\n        /* \"#utility.yul\":29596:29602   */\n      dup3\n        /* \"#utility.yul\":29591:29594   */\n      dup3\n        /* \"#utility.yul\":29584:29603   */\n      mstore\n        /* \"#utility.yul\":29636:29640   */\n      0x20\n        /* \"#utility.yul\":29631:29634   */\n      dup3\n        /* \"#utility.yul\":29627:29641   */\n      add\n        /* \"#utility.yul\":29612:29641   */\n      swap1\n      pop\n        /* \"#utility.yul\":29439:29647   */\n      swap3\n      swap2\n      pop\n      pop\n      jump\t// out\n        /* \"#utility.yul\":29653:29812   */\n    tag_661:\n        /* \"#utility.yul\":29727:29738   */\n      0x00\n        /* \"#utility.yul\":29761:29767   */\n      dup3\n        /* \"#utility.yul\":29756:29759   */\n      dup3\n        /* \"#utility.yul\":29749:29768   */\n      mstore\n        /* \"#utility.yul\":29801:29805   */\n      0x20\n        /* \"#utility.yul\":29796:29799   */\n      dup3\n        /* \"#utility.yul\":29792:29806   */\n      add\n        /* \"#utility.yul\":29777:29806   */\n      swap1\n      pop\n        /* \"#utility.yul\":29653:29812   */\n      swap3\n      swap2\n      pop\n      pop\n      jump\t// out\n        /* \"#utility.yul\":29818:29987   */\n    tag_670:\n        /* \"#utility.yul\":29902:29913   */\n      0x00\n        /* \"#utility.yul\":29936:29942   */\n      dup3\n        /* \"#utility.yul\":29931:29934   */\n      dup3\n        /* \"#utility.yul\":29924:29943   */\n      mstore\n        /* \"#utility.yul\":29976:29980   */\n      0x20\n        /* \"#utility.yul\":29971:29974   */\n      dup3\n        /* \"#utility.yul\":29967:29981   */\n      add\n        /* \"#utility.yul\":29952:29981   */\n      swap1\n      pop\n        /* \"#utility.yul\":29818:29987   */\n      swap3\n      swap2\n      pop\n      pop\n      jump\t// out\n        /* \"#utility.yul\":29993:30141   */\n    tag_677:\n        /* \"#utility.yul\":30095:30106   */\n      0x00\n        /* \"#utility.yul\":30132:30135   */\n      dup2\n        /* \"#utility.yul\":30117:30135   */\n      swap1\n      pop\n        /* \"#utility.yul\":29993:30141   */\n      swap3\n      swap2\n      pop\n      pop\n      jump\t// out\n        /* \"#utility.yul\":30147:30243   */\n    tag_603:\n        /* \"#utility.yul\":30184:30191   */\n      0x00\n        /* \"#utility.yul\":30213:30237   */\n      tag_800\n        /* \"#utility.yul\":30231:30236   */\n      dup3\n        /* \"#utility.yul\":30213:30237   */\n      tag_801\n      jump\t// in\n    tag_800:\n        /* \"#utility.yul\":30202:30237   */\n      swap1\n      pop\n        /* \"#utility.yul\":30147:30243   */\n      swap2\n      swap1\n      pop\n      jump\t// out\n        /* \"#utility.yul\":30249:30353   */\n    tag_802:\n        /* \"#utility.yul\":30294:30301   */\n      0x00\n        /* \"#utility.yul\":30323:30347   */\n      tag_804\n        /* \"#utility.yul\":30341:30346   */\n      dup3\n        /* \"#utility.yul\":30323:30347   */\n      tag_801\n      jump\t// in\n    tag_804:\n        /* \"#utility.yul\":30312:30347   */\n      swap1\n      pop\n        /* \"#utility.yul\":30249:30353   */\n      swap2\n      swap1\n      pop\n      jump\t// out\n        /* \"#utility.yul\":30359:30449   */\n    tag_652:\n        /* \"#utility.yul\":30393:30400   */\n      0x00\n        /* \"#utility.yul\":30436:30441   */\n      dup2\n        /* \"#utility.yul\":30429:30442   */\n      iszero\n        /* \"#utility.yul\":30422:30443   */\n      iszero\n        /* \"#utility.yul\":30411:30443   */\n      swap1\n      pop\n        /* \"#utility.yul\":30359:30449   */\n      swap2\n      swap1\n      pop\n      jump\t// out\n        /* \"#utility.yul\":30455:30531   */\n    tag_656:\n        /* \"#utility.yul\":30491:30498   */\n      0x00\n        /* \"#utility.yul\":30520:30525   */\n      dup2\n        /* \"#utility.yul\":30509:30525   */\n      swap1\n      pop\n        /* \"#utility.yul\":30455:30531   */\n      swap2\n      swap1\n      pop\n      jump\t// out\n        /* \"#utility.yul\":30537:30663   */\n    tag_801:\n        /* \"#utility.yul\":30574:30581   */\n      0x00\n        /* \"#utility.yul\":30614:30656   */\n      0xffffffffffffffffffffffffffffffffffffffff\n        /* \"#utility.yul\":30607:30612   */\n      dup3\n        /* \"#utility.yul\":30603:30657   */\n      and\n        /* \"#utility.yul\":30592:30657   */\n      swap1\n      pop\n        /* \"#utility.yul\":30537:30663   */\n      swap2\n      swap1\n      pop\n      jump\t// out\n        /* \"#utility.yul\":30669:30746   */\n    tag_727:\n        /* \"#utility.yul\":30706:30713   */\n      0x00\n        /* \"#utility.yul\":30735:30740   */\n      dup2\n        /* \"#utility.yul\":30724:30740   */\n      swap1\n      pop\n        /* \"#utility.yul\":30669:30746   */\n      swap2\n      swap1\n      pop\n      jump\t// out\n        /* \"#utility.yul\":30752:30906   */\n    tag_483:\n        /* \"#utility.yul\":30836:30842   */\n      dup3\n        /* \"#utility.yul\":30831:30834   */\n      dup2\n        /* \"#utility.yul\":30826:30829   */\n      dup4\n        /* \"#utility.yul\":30813:30843   */\n      calldatacopy\n        /* \"#utility.yul\":30898:30899   */\n      0x00\n        /* \"#utility.yul\":30889:30895   */\n      dup4\n        /* \"#utility.yul\":30884:30887   */\n      dup4\n        /* \"#utility.yul\":30880:30896   */\n      add\n        /* \"#utility.yul\":30873:30900   */\n      mstore\n        /* \"#utility.yul\":30752:30906   */\n      pop\n      pop\n      pop\n      jump\t// out\n        /* \"#utility.yul\":30912:31219   */\n    tag_663:\n        /* \"#utility.yul\":30980:30981   */\n      0x00\n        /* \"#utility.yul\":30990:31103   */\n    tag_811:\n        /* \"#utility.yul\":31004:31010   */\n      dup4\n        /* \"#utility.yul\":31001:31002   */\n      dup2\n        /* \"#utility.yul\":30998:31011   */\n      lt\n        /* \"#utility.yul\":30990:31103   */\n      iszero\n      tag_813\n      jumpi\n        /* \"#utility.yul\":31089:31090   */\n      dup1\n        /* \"#utility.yul\":31084:31087   */\n      dup3\n        /* \"#utility.yul\":31080:31091   */\n      add\n        /* \"#utility.yul\":31074:31092   */\n      mload\n        /* \"#utility.yul\":31070:31071   */\n      dup2\n        /* \"#utility.yul\":31065:31068   */\n      dup5\n        /* \"#utility.yul\":31061:31072   */\n      add\n        /* \"#utility.yul\":31054:31093   */\n      mstore\n        /* \"#utility.yul\":31026:31028   */\n      0x20\n        /* \"#utility.yul\":31023:31024   */\n      dup2\n        /* \"#utility.yul\":31019:31029   */\n      add\n        /* \"#utility.yul\":31014:31029   */\n      swap1\n      pop\n        /* \"#utility.yul\":30990:31103   */\n      jump(tag_811)\n    tag_813:\n        /* \"#utility.yul\":31121:31127   */\n      dup4\n        /* \"#utility.yul\":31118:31119   */\n      dup2\n        /* \"#utility.yul\":31115:31128   */\n      gt\n        /* \"#utility.yul\":31112:31213   */\n      iszero\n      tag_814\n      jumpi\n        /* \"#utility.yul\":31201:31202   */\n      0x00\n        /* \"#utility.yul\":31192:31198   */\n      dup5\n        /* \"#utility.yul\":31187:31190   */\n      dup5\n        /* \"#utility.yul\":31183:31199   */\n      add\n        /* \"#utility.yul\":31176:31203   */\n      mstore\n        /* \"#utility.yul\":31112:31213   */\n    tag_814:\n        /* \"#utility.yul\":30961:31219   */\n      pop\n        /* \"#utility.yul\":30912:31219   */\n      pop\n      pop\n      pop\n      jump\t// out\n        /* \"#utility.yul\":31225:31545   */\n    tag_107:\n        /* \"#utility.yul\":31269:31275   */\n      0x00\n        /* \"#utility.yul\":31306:31307   */\n      0x02\n        /* \"#utility.yul\":31300:31304   */\n      dup3\n        /* \"#utility.yul\":31296:31308   */\n      div\n        /* \"#utility.yul\":31286:31308   */\n      swap1\n      pop\n        /* \"#utility.yul\":31353:31354   */\n      0x01\n        /* \"#utility.yul\":31347:31351   */\n      dup3\n        /* \"#utility.yul\":31343:31355   */\n      and\n        /* \"#utility.yul\":31374:31392   */\n      dup1\n        /* \"#utility.yul\":31364:31445   */\n      tag_816\n      jumpi\n        /* \"#utility.yul\":31430:31434   */\n      0x7f\n        /* \"#utility.yul\":31422:31428   */\n      dup3\n        /* \"#utility.yul\":31418:31435   */\n      and\n        /* \"#utility.yul\":31408:31435   */\n      swap2\n      pop\n        /* \"#utility.yul\":31364:31445   */\n    tag_816:\n        /* \"#utility.yul\":31492:31494   */\n      0x20\n        /* \"#utility.yul\":31484:31490   */\n      dup3\n        /* \"#utility.yul\":31481:31495   */\n      lt\n        /* \"#utility.yul\":31461:31479   */\n      dup2\n        /* \"#utility.yul\":31458:31496   */\n      eq\n        /* \"#utility.yul\":31455:31539   */\n      iszero\n      tag_817\n      jumpi\n        /* \"#utility.yul\":31511:31529   */\n      tag_818\n      tag_819\n      jump\t// in\n    tag_818:\n        /* \"#utility.yul\":31455:31539   */\n    tag_817:\n        /* \"#utility.yul\":31276:31545   */\n      pop\n        /* \"#utility.yul\":31225:31545   */\n      swap2\n      swap1\n      pop\n      jump\t// out\n        /* \"#utility.yul\":31551:31832   */\n    tag_776:\n        /* \"#utility.yul\":31634:31661   */\n      tag_821\n        /* \"#utility.yul\":31656:31660   */\n      dup3\n        /* \"#utility.yul\":31634:31661   */\n      tag_665\n      jump\t// in\n    tag_821:\n        /* \"#utility.yul\":31626:31632   */\n      dup2\n        /* \"#utility.yul\":31622:31662   */\n      add\n        /* \"#utility.yul\":31764:31770   */\n      dup2\n        /* \"#utility.yul\":31752:31762   */\n      dup2\n        /* \"#utility.yul\":31749:31771   */\n      lt\n        /* \"#utility.yul\":31728:31746   */\n      0xffffffffffffffff\n        /* \"#utility.yul\":31716:31726   */\n      dup3\n        /* \"#utility.yul\":31713:31747   */\n      gt\n        /* \"#utility.yul\":31710:31772   */\n      or\n        /* \"#utility.yul\":31707:31795   */\n      iszero\n      tag_822\n      jumpi\n        /* \"#utility.yul\":31775:31793   */\n      tag_823\n      tag_781\n      jump\t// in\n    tag_823:\n        /* \"#utility.yul\":31707:31795   */\n    tag_822:\n        /* \"#utility.yul\":31815:31825   */\n      dup1\n        /* \"#utility.yul\":31811:31813   */\n      0x40\n        /* \"#utility.yul\":31804:31826   */\n      mstore\n        /* \"#utility.yul\":31594:31832   */\n      pop\n        /* \"#utility.yul\":31551:31832   */\n      pop\n      pop\n      jump\t// out\n        /* \"#utility.yul\":31838:32018   */\n    tag_101:\n        /* \"#utility.yul\":31886:31963   */\n      0x4e487b7100000000000000000000000000000000000000000000000000000000\n        /* \"#utility.yul\":31883:31884   */\n      0x00\n        /* \"#utility.yul\":31876:31964   */\n      mstore\n        /* \"#utility.yul\":31983:31987   */\n      0x21\n        /* \"#utility.yul\":31980:31981   */\n      0x04\n        /* \"#utility.yul\":31973:31988   */\n      mstore\n        /* \"#utility.yul\":32007:32011   */\n      0x24\n        /* \"#utility.yul\":32004:32005   */\n      0x00\n        /* \"#utility.yul\":31997:32012   */\n      revert\n        /* \"#utility.yul\":32024:32204   */\n    tag_819:\n        /* \"#utility.yul\":32072:32149   */\n      0x4e487b7100000000000000000000000000000000000000000000000000000000\n        /* \"#utility.yul\":32069:32070   */\n      0x00\n        /* \"#utility.yul\":32062:32150   */\n      mstore\n        /* \"#utility.yul\":32169:32173   */\n      0x22\n        /* \"#utility.yul\":32166:32167   */\n      0x04\n        /* \"#utility.yul\":32159:32174   */\n      mstore\n        /* \"#utility.yul\":32193:32197   */\n      0x24\n        /* \"#utility.yul\":32190:32191   */\n      0x00\n        /* \"#utility.yul\":32183:32198   */\n      revert\n        /* \"#utility.yul\":32210:32390   */\n    tag_781:\n        /* \"#utility.yul\":32258:32335   */\n      0x4e487b7100000000000000000000000000000000000000000000000000000000\n        /* \"#utility.yul\":32255:32256   */\n      0x00\n        /* \"#utility.yul\":32248:32336   */\n      mstore\n        /* \"#utility.yul\":32355:32359   */\n      0x41\n        /* \"#utility.yul\":32352:32353   */\n      0x04\n        /* \"#utility.yul\":32345:32360   */\n      mstore\n        /* \"#utility.yul\":32379:32383   */\n      0x24\n        /* \"#utility.yul\":32376:32377   */\n      0x00\n        /* \"#utility.yul\":32369:32384   */\n      revert\n        /* \"#utility.yul\":32396:32513   */\n    tag_500:\n        /* \"#utility.yul\":32505:32506   */\n      0x00\n        /* \"#utility.yul\":32502:32503   */\n      dup1\n        /* \"#utility.yul\":32495:32507   */\n      revert\n        /* \"#utility.yul\":32519:32636   */\n    tag_481:\n        /* \"#utility.yul\":32628:32629   */\n      0x00\n        /* \"#utility.yul\":32625:32626   */\n      dup1\n        /* \"#utility.yul\":32618:32630   */\n      revert\n        /* \"#utility.yul\":32642:32759   */\n    tag_517:\n        /* \"#utility.yul\":32751:32752   */\n      0x00\n        /* \"#utility.yul\":32748:32749   */\n      dup1\n        /* \"#utility.yul\":32741:32753   */\n      revert\n        /* \"#utility.yul\":32765:32882   */\n    tag_505:\n        /* \"#utility.yul\":32874:32875   */\n      0x00\n        /* \"#utility.yul\":32871:32872   */\n      dup1\n        /* \"#utility.yul\":32864:32876   */\n      revert\n        /* \"#utility.yul\":32888:32990   */\n    tag_665:\n        /* \"#utility.yul\":32929:32935   */\n      0x00\n        /* \"#utility.yul\":32980:32982   */\n      0x1f\n        /* \"#utility.yul\":32976:32983   */\n      not\n        /* \"#utility.yul\":32971:32973   */\n      0x1f\n        /* \"#utility.yul\":32964:32969   */\n      dup4\n        /* \"#utility.yul\":32960:32974   */\n      add\n        /* \"#utility.yul\":32956:32984   */\n      and\n        /* \"#utility.yul\":32946:32984   */\n      swap1\n      pop\n        /* \"#utility.yul\":32888:32990   */\n      swap2\n      swap1\n      pop\n      jump\t// out\n        /* \"#utility.yul\":32996:33173   */\n    tag_683:\n        /* \"#utility.yul\":33136:33165   */\n      0x596f7520616c726561647920636865636b207468697320636173650000000000\n        /* \"#utility.yul\":33132:33133   */\n      0x00\n        /* \"#utility.yul\":33124:33130   */\n      dup3\n        /* \"#utility.yul\":33120:33134   */\n      add\n        /* \"#utility.yul\":33113:33166   */\n      mstore\n        /* \"#utility.yul\":32996:33173   */\n      pop\n      jump\t// out\n        /* \"#utility.yul\":33179:33400   */\n    tag_688:\n        /* \"#utility.yul\":33319:33353   */\n      0x596f7572206c6f67696e20616c726561647920657869737420696e2073797374\n        /* \"#utility.yul\":33315:33316   */\n      0x00\n        /* \"#utility.yul\":33307:33313   */\n      dup3\n        /* \"#utility.yul\":33303:33317   */\n      add\n        /* \"#utility.yul\":33296:33354   */\n      mstore\n        /* \"#utility.yul\":33388:33392   */\n      0x656d000000000000000000000000000000000000000000000000000000000000\n        /* \"#utility.yul\":33383:33385   */\n      0x20\n        /* \"#utility.yul\":33375:33381   */\n      dup3\n        /* \"#utility.yul\":33371:33386   */\n      add\n        /* \"#utility.yul\":33364:33393   */\n      mstore\n        /* \"#utility.yul\":33179:33400   */\n      pop\n      jump\t// out\n        /* \"#utility.yul\":33406:33567   */\n    tag_693:\n        /* \"#utility.yul\":33546:33559   */\n      0x4c6f772062616c616e6365000000000000000000000000000000000000000000\n        /* \"#utility.yul\":33542:33543   */\n      0x00\n        /* \"#utility.yul\":33534:33540   */\n      dup3\n        /* \"#utility.yul\":33530:33544   */\n      add\n        /* \"#utility.yul\":33523:33560   */\n      mstore\n        /* \"#utility.yul\":33406:33567   */\n      pop\n      jump\t// out\n        /* \"#utility.yul\":33573:33732   */\n    tag_698:\n        /* \"#utility.yul\":33713:33724   */\n      0x466f7262696464656e0000000000000000000000000000000000000000000000\n        /* \"#utility.yul\":33709:33710   */\n      0x00\n        /* \"#utility.yul\":33701:33707   */\n      dup3\n        /* \"#utility.yul\":33697:33711   */\n      add\n        /* \"#utility.yul\":33690:33725   */\n      mstore\n        /* \"#utility.yul\":33573:33732   */\n      pop\n      jump\t// out\n        /* \"#utility.yul\":33738:33900   */\n    tag_703:\n        /* \"#utility.yul\":33878:33892   */\n      0x596f75206e6f7420757365720000000000000000000000000000000000000000\n        /* \"#utility.yul\":33874:33875   */\n      0x00\n        /* \"#utility.yul\":33866:33872   */\n      dup3\n        /* \"#utility.yul\":33862:33876   */\n      add\n        /* \"#utility.yul\":33855:33893   */\n      mstore\n        /* \"#utility.yul\":33738:33900   */\n      pop\n      jump\t// out\n        /* \"#utility.yul\":33906:34069   */\n    tag_708:\n        /* \"#utility.yul\":34046:34061   */\n      0x596f75206e6f742061646d696e00000000000000000000000000000000000000\n        /* \"#utility.yul\":34042:34043   */\n      0x00\n        /* \"#utility.yul\":34034:34040   */\n      dup3\n        /* \"#utility.yul\":34030:34044   */\n      add\n        /* \"#utility.yul\":34023:34062   */\n      mstore\n        /* \"#utility.yul\":33906:34069   */\n      pop\n      jump\t// out\n        /* \"#utility.yul\":34075:34247   */\n    tag_713:\n        /* \"#utility.yul\":34215:34239   */\n      0x596f7520616c7265616479207265676973746572656400000000000000000000\n        /* \"#utility.yul\":34211:34212   */\n      0x00\n        /* \"#utility.yul\":34203:34209   */\n      dup3\n        /* \"#utility.yul\":34199:34213   */\n      add\n        /* \"#utility.yul\":34192:34240   */\n      mstore\n        /* \"#utility.yul\":34075:34247   */\n      pop\n      jump\t// out\n        /* \"#utility.yul\":34253:34414   */\n    tag_718:\n        /* \"#utility.yul\":34393:34406   */\n      0x57726f6e67204c6f67696e000000000000000000000000000000000000000000\n        /* \"#utility.yul\":34389:34390   */\n      0x00\n        /* \"#utility.yul\":34381:34387   */\n      dup3\n        /* \"#utility.yul\":34377:34391   */\n      add\n        /* \"#utility.yul\":34370:34407   */\n      mstore\n        /* \"#utility.yul\":34253:34414   */\n      pop\n      jump\t// out\n        /* \"#utility.yul\":34420:34542   */\n    tag_487:\n        /* \"#utility.yul\":34493:34517   */\n      tag_841\n        /* \"#utility.yul\":34511:34516   */\n      dup2\n        /* \"#utility.yul\":34493:34517   */\n      tag_603\n      jump\t// in\n    tag_841:\n        /* \"#utility.yul\":34486:34491   */\n      dup2\n        /* \"#utility.yul\":34483:34518   */\n      eq\n        /* \"#utility.yul\":34473:34536   */\n      tag_842\n      jumpi\n        /* \"#utility.yul\":34532:34533   */\n      0x00\n        /* \"#utility.yul\":34529:34530   */\n      dup1\n        /* \"#utility.yul\":34522:34534   */\n      revert\n        /* \"#utility.yul\":34473:34536   */\n    tag_842:\n        /* \"#utility.yul\":34420:34542   */\n      pop\n      jump\t// out\n        /* \"#utility.yul\":34548:34686   */\n    tag_491:\n        /* \"#utility.yul\":34629:34661   */\n      tag_844\n        /* \"#utility.yul\":34655:34660   */\n      dup2\n        /* \"#utility.yul\":34629:34661   */\n      tag_802\n      jump\t// in\n    tag_844:\n        /* \"#utility.yul\":34622:34627   */\n      dup2\n        /* \"#utility.yul\":34619:34662   */\n      eq\n        /* \"#utility.yul\":34609:34680   */\n      tag_845\n      jumpi\n        /* \"#utility.yul\":34676:34677   */\n      0x00\n        /* \"#utility.yul\":34673:34674   */\n      dup1\n        /* \"#utility.yul\":34666:34678   */\n      revert\n        /* \"#utility.yul\":34609:34680   */\n    tag_845:\n        /* \"#utility.yul\":34548:34686   */\n      pop\n      jump\t// out\n        /* \"#utility.yul\":34692:34812   */\n    tag_495:\n        /* \"#utility.yul\":34764:34787   */\n      tag_847\n        /* \"#utility.yul\":34781:34786   */\n      dup2\n        /* \"#utility.yul\":34764:34787   */\n      tag_656\n      jump\t// in\n    tag_847:\n        /* \"#utility.yul\":34757:34762   */\n      dup2\n        /* \"#utility.yul\":34754:34788   */\n      eq\n        /* \"#utility.yul\":34744:34806   */\n      tag_848\n      jumpi\n        /* \"#utility.yul\":34802:34803   */\n      0x00\n        /* \"#utility.yul\":34799:34800   */\n      dup1\n        /* \"#utility.yul\":34792:34804   */\n      revert\n        /* \"#utility.yul\":34744:34806   */\n    tag_848:\n        /* \"#utility.yul\":34692:34812   */\n      pop\n      jump\t// out\n\n    auxdata: 0xa264697066735822122061ae89cfa2545bb24f1fc6a96a1dad3f1f72fdddbbb2e05895482169c018a91b64736f6c63430008070033\n}\n",
				"bytecode": {
					"linkReferences": {},
					"object": "60806040523480156200001157600080fd5b506040518060400160405280600581526020017f627579657200000000000000000000000000000000000000000000000000000081525060008080815260200190815260200160002090805190602001906200006f92919062000292565b506040518060400160405280600681526020017f73656c6c65720000000000000000000000000000000000000000000000000000815250600080600181526020019081526020016000209080519060200190620000ce92919062000292565b506040518060400160405280600481526020017f73686f70000000000000000000000000000000000000000000000000000000008152506000806002815260200190815260200160002090805190602001906200012d92919062000292565b506040518060400160405280600581526020017f61646d696e0000000000000000000000000000000000000000000000000000008152506000806003815260200190815260200160002090805190602001906200018c92919062000292565b506040518060400160405280600881526020017f70726f7669646572000000000000000000000000000000000000000000000000815250600080600481526020019081526020016000209080519060200190620001eb92919062000292565b506040518060400160405280600481526020017f62616e6b000000000000000000000000000000000000000000000000000000008152506000806005815260200190815260200160002090805190602001906200024a92919062000292565b5033600560006101000a81548173ffffffffffffffffffffffffffffffffffffffff021916908373ffffffffffffffffffffffffffffffffffffffff160217905550620003a7565b828054620002a09062000342565b90600052602060002090601f016020900481019282620002c4576000855562000310565b82601f10620002df57805160ff191683800117855562000310565b8280016001018555821562000310579182015b828111156200030f578251825591602001919060010190620002f2565b5b5090506200031f919062000323565b5090565b5b808211156200033e57600081600090555060010162000324565b5090565b600060028204905060018216806200035b57607f821691505b6020821081141562000372576200037162000378565b5b50919050565b7f4e487b7100000000000000000000000000000000000000000000000000000000600052602260045260246000fd5b6146b980620003b76000396000f3fe608060405234801561001057600080fd5b50600436106101215760003560e01c806383db0f6d116100ad578063a59d105f11610071578063a59d105f146102ed578063bce62a7414610309578063c3d5fd3914610325578063d5eabbbe14610346578063f8f98b791461035057610121565b806383db0f6d1461026e5780638403f8481461028a5780638edc85f9146102a657806399b958ee146102b05780639d344d10146102d157610121565b80633a7d280c116100f45780633a7d280c146101c757806354504c12146101f85780637558b2f81461021a5780637b3c7488146102365780637ccb2bd81461025257610121565b806308e74858146101265780632156a7811461015a5780632d6abf59146101765780632f0185c414610192575b600080fd5b610140600480360381019061013b919061367e565b61036c565b60405161015195949392919061400c565b60405180910390f35b610174600480360381019061016f9190613906565b610871565b005b610190600480360381019061018b9190613763565b610938565b005b6101ac60048036038101906101a791906138bd565b610cca565b6040516101be96959493929190613f13565b60405180910390f35b6101e160048036038101906101dc91906138bd565b610f9a565b6040516101ef929190613f7b565b60405180910390f35b610200611391565b60405161021195949392919061400c565b60405180910390f35b610234600480360381019061022f9190613802565b611894565b005b610250600480360381019061024b91906138bd565b611a0f565b005b61026c60048036038101906102679190613906565b611cda565b005b610288600480360381019061028391906136ab565b611de3565b005b6102a4600480360381019061029f9190613a65565b611f32565b005b6102ae612060565b005b6102b86120fb565b6040516102c89493929190614082565b60405180910390f35b6102eb60048036038101906102e691906139da565b6124b0565b005b610307600480360381019061030291906136d8565b6124d9565b005b610323600480360381019061031e91906138bd565b6125d8565b005b61032d6128a3565b60405161033d9493929190613fab565b60405180910390f35b61034e612ef1565b005b61036a60048036038101906103659190613962565b612f8c565b005b60608060608060606003600260003373ffffffffffffffffffffffffffffffffffffffff1673ffffffffffffffffffffffffffffffffffffffff168152602001908152602001600020600001548160058111156103cc576103cb61441e565b5b1461040c576040517f08c379a00000000000000000000000000000000000000000000000000000000081526004016104039061413c565b60405180910390fd5b6000600260008973ffffffffffffffffffffffffffffffffffffffff1673ffffffffffffffffffffffffffffffffffffffff16815260200190815260200160002060405180608001604052908160008201548152602001600182018054610472906143bb565b80601f016020809104026020016040519081016040528092919081815260200182805461049e906143bb565b80156104eb5780601f106104c0576101008083540402835291602001916104eb565b820191906000526020600020905b8154815290600101906020018083116104ce57829003601f168201915b50505050508152602001600282018054610504906143bb565b80601f0160208091040260200160405190810160405280929190818152602001828054610530906143bb565b801561057d5780601f106105525761010080835404028352916020019161057d565b820191906000526020600020905b81548152906001019060200180831161056057829003601f168201915b5050505050815260200160038201805480602002602001604051908101604052809291908181526020016000905b828210156106575783829060005260206000200180546105ca906143bb565b80601f01602080910402602001604051908101604052809291908181526020018280546105f6906143bb565b80156106435780601f1061061857610100808354040283529160200191610643565b820191906000526020600020905b81548152906001019060200180831161062657829003601f168201915b5050505050815260200190600101906105ab565b505050508152505090506000600c60008a73ffffffffffffffffffffffffffffffffffffffff1673ffffffffffffffffffffffffffffffffffffffff16815260200190815260200160002060009054906101000a900473ffffffffffffffffffffffffffffffffffffffff1690506000600b60008373ffffffffffffffffffffffffffffffffffffffff1673ffffffffffffffffffffffffffffffffffffffff168152602001908152602001600020604051806060016040529081600082018054610721906143bb565b80601f016020809104026020016040519081016040528092919081815260200182805461074d906143bb565b801561079a5780601f1061076f5761010080835404028352916020019161079a565b820191906000526020600020905b81548152906001019060200180831161077d57829003601f168201915b505050505081526020016001820180546107b3906143bb565b80601f01602080910402602001604051908101604052809291908181526020018280546107df906143bb565b801561082c5780601f106108015761010080835404028352916020019161082c565b820191906000526020600020905b81548152906001019060200180831161080f57829003601f168201915b50505050508152602001600282015481525050905082602001519850826040015197508060200151965080600001519550826060015194505050505091939590929450565b600560009054906101000a900473ffffffffffffffffffffffffffffffffffffffff1673ffffffffffffffffffffffffffffffffffffffff163373ffffffffffffffffffffffffffffffffffffffff1614610901576040517f08c379a00000000000000000000000000000000000000000000000000000000081526004016108f89061417c565b60405180910390fd5b60006005808111156109165761091561441e565b5b905061093360405180602001604052806000815250848385613081565b505050565b610a1b600260003373ffffffffffffffffffffffffffffffffffffffff1673ffffffffffffffffffffffffffffffffffffffff1681526020019081526020016000206001018054610988906143bb565b80601f01602080910402602001604051908101604052809291908181526020018280546109b4906143bb565b8015610a015780601f106109d657610100808354040283529160200191610a01565b820191906000526020600020905b8154815290600101906020018083116109e457829003601f168201915b505050505060405180602001604052806000815250613385565b15610a5b576040517f08c379a0000000000000000000000000000000000000000000000000000000008152600401610a529061415c565b60405180910390fd5b60608060006040518060c001604052803373ffffffffffffffffffffffffffffffffffffffff1681526020018873ffffffffffffffffffffffffffffffffffffffff168152602001878152602001848152602001838152602001858152509050600e60008873ffffffffffffffffffffffffffffffffffffffff1673ffffffffffffffffffffffffffffffffffffffff16815260200190815260200160002085908060018154018082558091505060019003906000526020600020016000909190919091509080519060200190610b339291906133de565b50600260003373ffffffffffffffffffffffffffffffffffffffff1673ffffffffffffffffffffffffffffffffffffffff16815260200190815260200160002060030185908060018154018082558091505060019003906000526020600020016000909190919091509080519060200190610baf9291906133de565b5080600f86604051610bc19190613efc565b908152602001604051809103902060008201518160000160006101000a81548173ffffffffffffffffffffffffffffffffffffffff021916908373ffffffffffffffffffffffffffffffffffffffff16021790555060208201518160010160006101000a81548173ffffffffffffffffffffffffffffffffffffffff021916908373ffffffffffffffffffffffffffffffffffffffff1602179055506040820151816002019080519060200190610c799291906133de565b506060820151816003019080519060200190610c96929190613464565b506080820151816004019080519060200190610cb3929190613464565b5060a0820151816005015590505050505050505050565b6000806060600080600080600f88604051610ce59190613efc565b90815260200160405180910390206040518060c00160405290816000820160009054906101000a900473ffffffffffffffffffffffffffffffffffffffff1673ffffffffffffffffffffffffffffffffffffffff1673ffffffffffffffffffffffffffffffffffffffff1681526020016001820160009054906101000a900473ffffffffffffffffffffffffffffffffffffffff1673ffffffffffffffffffffffffffffffffffffffff1673ffffffffffffffffffffffffffffffffffffffff168152602001600282018054610dba906143bb565b80601f0160208091040260200160405190810160405280929190818152602001828054610de6906143bb565b8015610e335780601f10610e0857610100808354040283529160200191610e33565b820191906000526020600020905b815481529060010190602001808311610e1657829003601f168201915b5050505050815260200160038201805480602002602001604051908101604052809291908181526020018280548015610ec157602002820191906000526020600020905b8160009054906101000a900473ffffffffffffffffffffffffffffffffffffffff1673ffffffffffffffffffffffffffffffffffffffff1681526020019060010190808311610e77575b5050505050815260200160048201805480602002602001604051908101604052809291908181526020018280548015610f4f57602002820191906000526020600020905b8160009054906101000a900473ffffffffffffffffffffffffffffffffffffffff1673ffffffffffffffffffffffffffffffffffffffff1681526020019060010190808311610f05575b505050505081526020016005820154815250509050806000015196508060200151955080604001519450806060015151935080608001515192508060a0015191505091939550919395565b6000606082600073ffffffffffffffffffffffffffffffffffffffff16600182604051610fc79190613efc565b908152602001604051809103902060009054906101000a900473ffffffffffffffffffffffffffffffffffffffff1673ffffffffffffffffffffffffffffffffffffffff16141561104d576040517f08c379a0000000000000000000000000000000000000000000000000000000008152600401611044906141bc565b60405180910390fd5b600060018560405161105f9190613efc565b908152602001604051809103902060009054906101000a900473ffffffffffffffffffffffffffffffffffffffff1690506000600260008373ffffffffffffffffffffffffffffffffffffffff1673ffffffffffffffffffffffffffffffffffffffff168152602001908152602001600020604051806080016040529081600082015481526020016001820180546110f6906143bb565b80601f0160208091040260200160405190810160405280929190818152602001828054611122906143bb565b801561116f5780601f106111445761010080835404028352916020019161116f565b820191906000526020600020905b81548152906001019060200180831161115257829003601f168201915b50505050508152602001600282018054611188906143bb565b80601f01602080910402602001604051908101604052809291908181526020018280546111b4906143bb565b80156112015780601f106111d657610100808354040283529160200191611201565b820191906000526020600020905b8154815290600101906020018083116111e457829003601f168201915b5050505050815260200160038201805480602002602001604051908101604052809291908181526020016000905b828210156112db57838290600052602060002001805461124e906143bb565b80601f016020809104026020016040519081016040528092919081815260200182805461127a906143bb565b80156112c75780601f1061129c576101008083540402835291602001916112c7565b820191906000526020600020905b8154815290600101906020018083116112aa57829003601f168201915b50505050508152602001906001019061122f565b50505050815250509050819450600080826000015181526020019081526020016000208054611309906143bb565b80601f0160208091040260200160405190810160405280929190818152602001828054611335906143bb565b80156113825780601f1061135757610100808354040283529160200191611382565b820191906000526020600020905b81548152906001019060200180831161136557829003601f168201915b50505050509350505050915091565b60608060608060606001600260003373ffffffffffffffffffffffffffffffffffffffff1673ffffffffffffffffffffffffffffffffffffffff168152602001908152602001600020600001548160058111156113f1576113f061441e565b5b14611431576040517f08c379a00000000000000000000000000000000000000000000000000000000081526004016114289061413c565b60405180910390fd5b6000600260003373ffffffffffffffffffffffffffffffffffffffff1673ffffffffffffffffffffffffffffffffffffffff16815260200190815260200160002060405180608001604052908160008201548152602001600182018054611497906143bb565b80601f01602080910402602001604051908101604052809291908181526020018280546114c3906143bb565b80156115105780601f106114e557610100808354040283529160200191611510565b820191906000526020600020905b8154815290600101906020018083116114f357829003601f168201915b50505050508152602001600282018054611529906143bb565b80601f0160208091040260200160405190810160405280929190818152602001828054611555906143bb565b80156115a25780601f10611577576101008083540402835291602001916115a2565b820191906000526020600020905b81548152906001019060200180831161158557829003601f168201915b5050505050815260200160038201805480602002602001604051908101604052809291908181526020016000905b8282101561167c5783829060005260206000200180546115ef906143bb565b80601f016020809104026020016040519081016040528092919081815260200182805461161b906143bb565b80156116685780601f1061163d57610100808354040283529160200191611668565b820191906000526020600020905b81548152906001019060200180831161164b57829003601f168201915b5050505050815260200190600101906115d0565b505050508152505090506000600c60003373ffffffffffffffffffffffffffffffffffffffff1673ffffffffffffffffffffffffffffffffffffffff16815260200190815260200160002060009054906101000a900473ffffffffffffffffffffffffffffffffffffffff1690506000600b60008373ffffffffffffffffffffffffffffffffffffffff1673ffffffffffffffffffffffffffffffffffffffff168152602001908152602001600020604051806060016040529081600082018054611746906143bb565b80601f0160208091040260200160405190810160405280929190818152602001828054611772906143bb565b80156117bf5780601f10611794576101008083540402835291602001916117bf565b820191906000526020600020905b8154815290600101906020018083116117a257829003601f168201915b505050505081526020016001820180546117d8906143bb565b80601f0160208091040260200160405190810160405280929190818152602001828054611804906143bb565b80156118515780601f1061182657610100808354040283529160200191611851565b820191906000526020600020905b81548152906001019060200180831161183457829003601f168201915b5050505050815260200160028201548152505090508260200151985082604001519750806020015196508060000151955082606001519450505050509091929394565b6003600260003373ffffffffffffffffffffffffffffffffffffffff1673ffffffffffffffffffffffffffffffffffffffff168152602001908152602001600020600001548160058111156118ec576118eb61441e565b5b1461192c576040517f08c379a00000000000000000000000000000000000000000000000000000000081526004016119239061413c565b60405180910390fd5b600060405180606001604052808681526020018581526020016000815250905080600b60008873ffffffffffffffffffffffffffffffffffffffff1673ffffffffffffffffffffffffffffffffffffffff16815260200190815260200160002060008201518160000190805190602001906119a89291906133de565b5060208201518160010190805190602001906119c59291906133de565b50604082015181600201559050506000600260058111156119e9576119e861441e565b5b9050611a066040518060200160405280600081525085838a613081565b50505050505050565b611af2600260003373ffffffffffffffffffffffffffffffffffffffff1673ffffffffffffffffffffffffffffffffffffffff1681526020019081526020016000206001018054611a5f906143bb565b80601f0160208091040260200160405190810160405280929190818152602001828054611a8b906143bb565b8015611ad85780601f10611aad57610100808354040283529160200191611ad8565b820191906000526020600020905b815481529060010190602001808311611abb57829003601f168201915b505050505060405180602001604052806000815250613385565b15611b32576040517f08c379a0000000000000000000000000000000000000000000000000000000008152600401611b299061415c565b60405180910390fd5b60001515601082604051611b469190613efc565b908152602001604051809103902060003373ffffffffffffffffffffffffffffffffffffffff1673ffffffffffffffffffffffffffffffffffffffff16815260200190815260200160002060009054906101000a900460ff16151514611be1576040517f08c379a0000000000000000000000000000000000000000000000000000000008152600401611bd8906140dc565b60405180910390fd5b600f81604051611bf19190613efc565b9081526020016040518091039020600301339080600181540180825580915050600190039060005260206000200160009091909190916101000a81548173ffffffffffffffffffffffffffffffffffffffff021916908373ffffffffffffffffffffffffffffffffffffffff1602179055506001601082604051611c759190613efc565b908152602001604051809103902060003373ffffffffffffffffffffffffffffffffffffffff1673ffffffffffffffffffffffffffffffffffffffff16815260200190815260200160002060006101000a81548160ff02191690831515021790555050565b600560009054906101000a900473ffffffffffffffffffffffffffffffffffffffff1673ffffffffffffffffffffffffffffffffffffffff163373ffffffffffffffffffffffffffffffffffffffff1614611d6a576040517f08c379a0000000000000000000000000000000000000000000000000000000008152600401611d619061417c565b60405180910390fd5b600060046005811115611d8057611d7f61441e565b5b9050611d9d60405180602001604052806000815250848385613081565b81600460006101000a81548173ffffffffffffffffffffffffffffffffffffffff021916908373ffffffffffffffffffffffffffffffffffffffff160217905550505050565b6005600260003373ffffffffffffffffffffffffffffffffffffffff1673ffffffffffffffffffffffffffffffffffffffff16815260200190815260200160002060000154816005811115611e3b57611e3a61441e565b5b14611e7b576040517f08c379a0000000000000000000000000000000000000000000000000000000008152600401611e729061413c565b60405180910390fd5b683635c9adc5dea000003373ffffffffffffffffffffffffffffffffffffffff16311015611ede576040517f08c379a0000000000000000000000000000000000000000000000000000000008152600401611ed59061411c565b60405180910390fd5b8173ffffffffffffffffffffffffffffffffffffffff166108fc683635c9adc5dea000009081150290604051600060405180830381858888f19350505050158015611f2d573d6000803e3d6000fd5b505050565b600060016005811115611f4857611f4761441e565b5b9050611f5685858386613081565b6008839080600181540180825580915050600190039060005260206000200160009091909190916101000a81548173ffffffffffffffffffffffffffffffffffffffff021916908373ffffffffffffffffffffffffffffffffffffffff160217905550600d60008373ffffffffffffffffffffffffffffffffffffffff1673ffffffffffffffffffffffffffffffffffffffff168152602001908152602001600020839080600181540180825580915050600190039060005260206000200160009091909190916101000a81548173ffffffffffffffffffffffffffffffffffffffff021916908373ffffffffffffffffffffffffffffffffffffffff1602179055505050505050565b6001600260003373ffffffffffffffffffffffffffffffffffffffff1673ffffffffffffffffffffffffffffffffffffffff168152602001908152602001600020600001548160058111156120b8576120b761441e565b5b146120f8576040517f08c379a00000000000000000000000000000000000000000000000000000000081526004016120ef9061413c565b60405180910390fd5b50565b606080600060606121e5600260003373ffffffffffffffffffffffffffffffffffffffff1673ffffffffffffffffffffffffffffffffffffffff1681526020019081526020016000206001018054612152906143bb565b80601f016020809104026020016040519081016040528092919081815260200182805461217e906143bb565b80156121cb5780601f106121a0576101008083540402835291602001916121cb565b820191906000526020600020905b8154815290600101906020018083116121ae57829003601f168201915b505050505060405180602001604052806000815250613385565b15612225576040517f08c379a000000000000000000000000000000000000000000000000000000000815260040161221c9061415c565b60405180910390fd5b6000600260003373ffffffffffffffffffffffffffffffffffffffff1673ffffffffffffffffffffffffffffffffffffffff1681526020019081526020016000206040518060800160405290816000820154815260200160018201805461228b906143bb565b80601f01602080910402602001604051908101604052809291908181526020018280546122b7906143bb565b80156123045780601f106122d957610100808354040283529160200191612304565b820191906000526020600020905b8154815290600101906020018083116122e757829003601f168201915b5050505050815260200160028201805461231d906143bb565b80601f0160208091040260200160405190810160405280929190818152602001828054612349906143bb565b80156123965780601f1061236b57610100808354040283529160200191612396565b820191906000526020600020905b81548152906001019060200180831161237957829003601f168201915b5050505050815260200160038201805480602002602001604051908101604052809291908181526020016000905b828210156124705783829060005260206000200180546123e3906143bb565b80601f016020809104026020016040519081016040528092919081815260200182805461240f906143bb565b801561245c5780601f106124315761010080835404028352916020019161245c565b820191906000526020600020905b81548152906001019060200180831161243f57829003601f168201915b5050505050815260200190600101906123c4565b5050505081525050905080602001519450806040015193503373ffffffffffffffffffffffffffffffffffffffff16319250806060015191505090919293565b60008060058111156124c5576124c461441e565b5b90506124d384848385613081565b50505050565b6003600260003373ffffffffffffffffffffffffffffffffffffffff1673ffffffffffffffffffffffffffffffffffffffff168152602001908152602001600020600001548160058111156125315761253061441e565b5b14612571576040517f08c379a00000000000000000000000000000000000000000000000000000000081526004016125689061413c565b60405180910390fd5b6000600360058111156125875761258661441e565b5b905061259584848388613081565b6006839080600181540180825580915050600190039060005260206000200160009091909190915090805190602001906125d09291906133de565b505050505050565b6126bb600260003373ffffffffffffffffffffffffffffffffffffffff1673ffffffffffffffffffffffffffffffffffffffff1681526020019081526020016000206001018054612628906143bb565b80601f0160208091040260200160405190810160405280929190818152602001828054612654906143bb565b80156126a15780601f10612676576101008083540402835291602001916126a1565b820191906000526020600020905b81548152906001019060200180831161268457829003601f168201915b505050505060405180602001604052806000815250613385565b156126fb576040517f08c379a00000000000000000000000000000000000000000000000000000000081526004016126f29061415c565b60405180910390fd5b6000151560108260405161270f9190613efc565b908152602001604051809103902060003373ffffffffffffffffffffffffffffffffffffffff1673ffffffffffffffffffffffffffffffffffffffff16815260200190815260200160002060009054906101000a900460ff161515146127aa576040517f08c379a00000000000000000000000000000000000000000000000000000000081526004016127a1906140dc565b60405180910390fd5b600f816040516127ba9190613efc565b9081526020016040518091039020600401339080600181540180825580915050600190039060005260206000200160009091909190916101000a81548173ffffffffffffffffffffffffffffffffffffffff021916908373ffffffffffffffffffffffffffffffffffffffff160217905550600160108260405161283e9190613efc565b908152602001604051809103902060003373ffffffffffffffffffffffffffffffffffffffff1673ffffffffffffffffffffffffffffffffffffffff16815260200190815260200160002060006101000a81548160ff02191690831515021790555050565b6060806060806003600260003373ffffffffffffffffffffffffffffffffffffffff1673ffffffffffffffffffffffffffffffffffffffff168152602001908152602001600020600001548160058111156129015761290061441e565b5b14612941576040517f08c379a00000000000000000000000000000000000000000000000000000000081526004016129389061413c565b60405180910390fd5b6000600260003373ffffffffffffffffffffffffffffffffffffffff1673ffffffffffffffffffffffffffffffffffffffff168152602001908152602001600020604051806080016040529081600082015481526020016001820180546129a7906143bb565b80601f01602080910402602001604051908101604052809291908181526020018280546129d3906143bb565b8015612a205780601f106129f557610100808354040283529160200191612a20565b820191906000526020600020905b815481529060010190602001808311612a0357829003601f168201915b50505050508152602001600282018054612a39906143bb565b80601f0160208091040260200160405190810160405280929190818152602001828054612a65906143bb565b8015612ab25780601f10612a8757610100808354040283529160200191612ab2565b820191906000526020600020905b815481529060010190602001808311612a9557829003601f168201915b5050505050815260200160038201805480602002602001604051908101604052809291908181526020016000905b82821015612b8c578382906000526020600020018054612aff906143bb565b80601f0160208091040260200160405190810160405280929190818152602001828054612b2b906143bb565b8015612b785780601f10612b4d57610100808354040283529160200191612b78565b820191906000526020600020905b815481529060010190602001808311612b5b57829003601f168201915b505050505081526020019060010190612ae0565b5050505081525050905080602001519550600a805480602002602001604051908101604052809291908181526020016000905b82821015612d8657838290600052602060002090600402016040518060800160405290816000820160009054906101000a900473ffffffffffffffffffffffffffffffffffffffff1673ffffffffffffffffffffffffffffffffffffffff1673ffffffffffffffffffffffffffffffffffffffff168152602001600182018054612c48906143bb565b80601f0160208091040260200160405190810160405280929190818152602001828054612c74906143bb565b8015612cc15780601f10612c9657610100808354040283529160200191612cc1565b820191906000526020600020905b815481529060010190602001808311612ca457829003601f168201915b50505050508152602001600282018054612cda906143bb565b80601f0160208091040260200160405190810160405280929190818152602001828054612d06906143bb565b8015612d535780601f10612d2857610100808354040283529160200191612d53565b820191906000526020600020905b815481529060010190602001808311612d3657829003601f168201915b505050505081526020016003820160009054906101000a900460ff16151515158152505081526020019060010190612bbf565b5050505094506006805480602002602001604051908101604052809291908181526020016000905b82821015612e5a578382906000526020600020018054612dcd906143bb565b80601f0160208091040260200160405190810160405280929190818152602001828054612df9906143bb565b8015612e465780601f10612e1b57610100808354040283529160200191612e46565b820191906000526020600020905b815481529060010190602001808311612e2957829003601f168201915b505050505081526020019060010190612dae565b5050505093506008805480602002602001604051908101604052809291908181526020018280548015612ee257602002820191906000526020600020905b8160009054906101000a900473ffffffffffffffffffffffffffffffffffffffff1673ffffffffffffffffffffffffffffffffffffffff1681526020019060010190808311612e98575b50505050509250505090919293565b6000600260003373ffffffffffffffffffffffffffffffffffffffff1673ffffffffffffffffffffffffffffffffffffffff16815260200190815260200160002060000154816005811115612f4957612f4861441e565b5b14612f89576040517f08c379a0000000000000000000000000000000000000000000000000000000008152600401612f809061413c565b60405180910390fd5b50565b600560009054906101000a900473ffffffffffffffffffffffffffffffffffffffff1673ffffffffffffffffffffffffffffffffffffffff163373ffffffffffffffffffffffffffffffffffffffff161461301c576040517f08c379a00000000000000000000000000000000000000000000000000000000081526004016130139061417c565b60405180910390fd5b6000600360058111156130325761303161441e565b5b905061304083838333613081565b60068290806001815401808255809150506001900390600052602060002001600090919091909150908051906020019061307b9291906133de565b50505050565b8083613166600260008473ffffffffffffffffffffffffffffffffffffffff1673ffffffffffffffffffffffffffffffffffffffff16815260200190815260200160002060020180546130d3906143bb565b80601f01602080910402602001604051908101604052809291908181526020018280546130ff906143bb565b801561314c5780601f106131215761010080835404028352916020019161314c565b820191906000526020600020905b81548152906001019060200180831161312f57829003601f168201915b505050505060405180602001604052806000815250613385565b156131a6576040517f08c379a000000000000000000000000000000000000000000000000000000000815260040161319d9061419c565b60405180910390fd5b600073ffffffffffffffffffffffffffffffffffffffff166001826040516131ce9190613efc565b908152602001604051809103902060009054906101000a900473ffffffffffffffffffffffffffffffffffffffff1673ffffffffffffffffffffffffffffffffffffffff1614613253576040517f08c379a000000000000000000000000000000000000000000000000000000000815260040161324a906140fc565b60405180910390fd5b6060600060405180608001604052808781526020018881526020018981526020018381525090508460018860405161328b9190613efc565b908152602001604051809103902060006101000a81548173ffffffffffffffffffffffffffffffffffffffff021916908373ffffffffffffffffffffffffffffffffffffffff16021790555080600260008773ffffffffffffffffffffffffffffffffffffffff1673ffffffffffffffffffffffffffffffffffffffff16815260200190815260200160002060008201518160000155602082015181600101908051906020019061333d9291906133de565b50604082015181600201908051906020019061335a9291906133de565b5060608201518160030190805190602001906133779291906134ee565b509050505050505050505050565b6000816040516020016133989190613efc565b60405160208183030381529060405280519060200120836040516020016133bf9190613efc565b6040516020818303038152906040528051906020012014905092915050565b8280546133ea906143bb565b90600052602060002090601f01602090048101928261340c5760008555613453565b82601f1061342557805160ff1916838001178555613453565b82800160010185558215613453579182015b82811115613452578251825591602001919060010190613437565b5b509050613460919061354e565b5090565b8280548282559060005260206000209081019282156134dd579160200282015b828111156134dc5782518260006101000a81548173ffffffffffffffffffffffffffffffffffffffff021916908373ffffffffffffffffffffffffffffffffffffffff16021790555091602001919060010190613484565b5b5090506134ea919061354e565b5090565b82805482825590600052602060002090810192821561353d579160200282015b8281111561353c57825182908051906020019061352c9291906133de565b509160200191906001019061350e565b5b50905061354a919061356b565b5090565b5b8082111561356757600081600090555060010161354f565b5090565b5b8082111561358b5760008181613582919061358f565b5060010161356c565b5090565b50805461359b906143bb565b6000825580601f106135ad57506135cc565b601f0160209004906000526020600020908101906135cb919061354e565b5b50565b60006135e26135dd84614201565b6141dc565b9050828152602081018484840111156135fe576135fd6144b0565b5b613609848285614379565b509392505050565b6000813590506136208161463e565b92915050565b60008135905061363581614655565b92915050565b60008135905061364a8161466c565b92915050565b600082601f830112613665576136646144ab565b5b81356136758482602086016135cf565b91505092915050565b600060208284031215613694576136936144ba565b5b60006136a284828501613611565b91505092915050565b6000602082840312156136c1576136c06144ba565b5b60006136cf84828501613626565b91505092915050565b6000806000606084860312156136f1576136f06144ba565b5b60006136ff86828701613611565b935050602084013567ffffffffffffffff8111156137205761371f6144b5565b5b61372c86828701613650565b925050604084013567ffffffffffffffff81111561374d5761374c6144b5565b5b61375986828701613650565b9150509250925092565b6000806000806080858703121561377d5761377c6144ba565b5b600061378b87828801613611565b945050602085013567ffffffffffffffff8111156137ac576137ab6144b5565b5b6137b887828801613650565b935050604085013567ffffffffffffffff8111156137d9576137d86144b5565b5b6137e587828801613650565b92505060606137f68782880161363b565b91505092959194509250565b6000806000806080858703121561381c5761381b6144ba565b5b600061382a87828801613611565b945050602085013567ffffffffffffffff81111561384b5761384a6144b5565b5b61385787828801613650565b935050604085013567ffffffffffffffff811115613878576138776144b5565b5b61388487828801613650565b925050606085013567ffffffffffffffff8111156138a5576138a46144b5565b5b6138b187828801613650565b91505092959194509250565b6000602082840312156138d3576138d26144ba565b5b600082013567ffffffffffffffff8111156138f1576138f06144b5565b5b6138fd84828501613650565b91505092915050565b6000806040838503121561391d5761391c6144ba565b5b600083013567ffffffffffffffff81111561393b5761393a6144b5565b5b61394785828601613650565b925050602061395885828601613611565b9150509250929050565b60008060408385031215613979576139786144ba565b5b600083013567ffffffffffffffff811115613997576139966144b5565b5b6139a385828601613650565b925050602083013567ffffffffffffffff8111156139c4576139c36144b5565b5b6139d085828601613650565b9150509250929050565b6000806000606084860312156139f3576139f26144ba565b5b600084013567ffffffffffffffff811115613a1157613a106144b5565b5b613a1d86828701613650565b935050602084013567ffffffffffffffff811115613a3e57613a3d6144b5565b5b613a4a86828701613650565b9250506040613a5b86828701613611565b9150509250925092565b60008060008060808587031215613a7f57613a7e6144ba565b5b600085013567ffffffffffffffff811115613a9d57613a9c6144b5565b5b613aa987828801613650565b945050602085013567ffffffffffffffff811115613aca57613ac96144b5565b5b613ad687828801613650565b9350506040613ae787828801613611565b9250506060613af887828801613611565b91505092959194509250565b6000613b108383613b44565b60208301905092915050565b6000613b288383613cc8565b905092915050565b6000613b3c8383613e83565b905092915050565b613b4d81614315565b82525050565b613b5c81614315565b82525050565b6000613b6d82614262565b613b7781856142b5565b9350613b8283614232565b8060005b83811015613bb3578151613b9a8882613b04565b9750613ba58361428e565b925050600181019050613b86565b5085935050505092915050565b6000613bcb8261426d565b613bd581856142c6565b935083602082028501613be785614242565b8060005b85811015613c235784840389528151613c048582613b1c565b9450613c0f8361429b565b925060208a01995050600181019050613beb565b50829750879550505050505092915050565b6000613c4082614278565b613c4a81856142d7565b935083602082028501613c5c85614252565b8060005b85811015613c985784840389528151613c798582613b30565b9450613c84836142a8565b925060208a01995050600181019050613c60565b50829750879550505050505092915050565b613cb381614339565b82525050565b613cc281614345565b82525050565b6000613cd382614283565b613cdd81856142e8565b9350613ced818560208601614388565b613cf6816144bf565b840191505092915050565b6000613d0c82614283565b613d1681856142f9565b9350613d26818560208601614388565b613d2f816144bf565b840191505092915050565b6000613d4582614283565b613d4f818561430a565b9350613d5f818560208601614388565b80840191505092915050565b6000613d78601b836142f9565b9150613d83826144d0565b602082019050919050565b6000613d9b6022836142f9565b9150613da6826144f9565b604082019050919050565b6000613dbe600b836142f9565b9150613dc982614548565b602082019050919050565b6000613de16009836142f9565b9150613dec82614571565b602082019050919050565b6000613e04600c836142f9565b9150613e0f8261459a565b602082019050919050565b6000613e27600d836142f9565b9150613e32826145c3565b602082019050919050565b6000613e4a6016836142f9565b9150613e55826145ec565b602082019050919050565b6000613e6d600b836142f9565b9150613e7882614615565b602082019050919050565b6000608083016000830151613e9b6000860182613b44565b5060208301518482036020860152613eb38282613cc8565b91505060408301518482036040860152613ecd8282613cc8565b9150506060830151613ee26060860182613caa565b508091505092915050565b613ef68161436f565b82525050565b6000613f088284613d3a565b915081905092915050565b600060c082019050613f286000830189613b53565b613f356020830188613b53565b8181036040830152613f478187613d01565b9050613f566060830186613eed565b613f636080830185613eed565b613f7060a0830184613cb9565b979650505050505050565b6000604082019050613f906000830185613b53565b8181036020830152613fa28184613d01565b90509392505050565b60006080820190508181036000830152613fc58187613d01565b90508181036020830152613fd98186613c35565b90508181036040830152613fed8185613bc0565b905081810360608301526140018184613b62565b905095945050505050565b600060a08201905081810360008301526140268188613d01565b9050818103602083015261403a8187613d01565b9050818103604083015261404e8186613d01565b905081810360608301526140628185613d01565b905081810360808301526140768184613bc0565b90509695505050505050565b6000608082019050818103600083015261409c8187613d01565b905081810360208301526140b08186613d01565b90506140bf6040830185613eed565b81810360608301526140d18184613bc0565b905095945050505050565b600060208201905081810360008301526140f581613d6b565b9050919050565b6000602082019050818103600083015261411581613d8e565b9050919050565b6000602082019050818103600083015261413581613db1565b9050919050565b6000602082019050818103600083015261415581613dd4565b9050919050565b6000602082019050818103600083015261417581613df7565b9050919050565b6000602082019050818103600083015261419581613e1a565b9050919050565b600060208201905081810360008301526141b581613e3d565b9050919050565b600060208201905081810360008301526141d581613e60565b9050919050565b60006141e66141f7565b90506141f282826143ed565b919050565b6000604051905090565b600067ffffffffffffffff82111561421c5761421b61447c565b5b614225826144bf565b9050602081019050919050565b6000819050602082019050919050565b6000819050602082019050919050565b6000819050602082019050919050565b600081519050919050565b600081519050919050565b600081519050919050565b600081519050919050565b6000602082019050919050565b6000602082019050919050565b6000602082019050919050565b600082825260208201905092915050565b600082825260208201905092915050565b600082825260208201905092915050565b600082825260208201905092915050565b600082825260208201905092915050565b600081905092915050565b60006143208261434f565b9050919050565b60006143328261434f565b9050919050565b60008115159050919050565b6000819050919050565b600073ffffffffffffffffffffffffffffffffffffffff82169050919050565b6000819050919050565b82818337600083830152505050565b60005b838110156143a657808201518184015260208101905061438b565b838111156143b5576000848401525b50505050565b600060028204905060018216806143d357607f821691505b602082108114156143e7576143e661444d565b5b50919050565b6143f6826144bf565b810181811067ffffffffffffffff821117156144155761441461447c565b5b80604052505050565b7f4e487b7100000000000000000000000000000000000000000000000000000000600052602160045260246000fd5b7f4e487b7100000000000000000000000000000000000000000000000000000000600052602260045260246000fd5b7f4e487b7100000000000000000000000000000000000000000000000000000000600052604160045260246000fd5b600080fd5b600080fd5b600080fd5b600080fd5b6000601f19601f8301169050919050565b7f596f7520616c726561647920636865636b207468697320636173650000000000600082015250565b7f596f7572206c6f67696e20616c726561647920657869737420696e207379737460008201527f656d000000000000000000000000000000000000000000000000000000000000602082015250565b7f4c6f772062616c616e6365000000000000000000000000000000000000000000600082015250565b7f466f7262696464656e0000000000000000000000000000000000000000000000600082015250565b7f596f75206e6f7420757365720000000000000000000000000000000000000000600082015250565b7f596f75206e6f742061646d696e00000000000000000000000000000000000000600082015250565b7f596f7520616c7265616479207265676973746572656400000000000000000000600082015250565b7f57726f6e67204c6f67696e000000000000000000000000000000000000000000600082015250565b61464781614315565b811461465257600080fd5b50565b61465e81614327565b811461466957600080fd5b50565b61467581614345565b811461468057600080fd5b5056fea264697066735822122061ae89cfa2545bb24f1fc6a96a1dad3f1f72fdddbbb2e05895482169c018a91b64736f6c63430008070033",
					"opcodes": "PUSH1 0x80 PUSH1 0x40 MSTORE CALLVALUE DUP1 ISZERO PUSH3 0x11 JUMPI PUSH1 0x0 DUP1 REVERT JUMPDEST POP PUSH1 0x40 MLOAD DUP1 PUSH1 0x40 ADD PUSH1 0x40 MSTORE DUP1 PUSH1 0x5 DUP2 MSTORE PUSH1 0x20 ADD PUSH32 0x6275796572000000000000000000000000000000000000000000000000000000 DUP2 MSTORE POP PUSH1 0x0 DUP1 DUP1 DUP2 MSTORE PUSH1 0x20 ADD SWAP1 DUP2 MSTORE PUSH1 0x20 ADD PUSH1 0x0 KECCAK256 SWAP1 DUP1 MLOAD SWAP1 PUSH1 0x20 ADD SWAP1 PUSH3 0x6F SWAP3 SWAP2 SWAP1 PUSH3 0x292 JUMP JUMPDEST POP PUSH1 0x40 MLOAD DUP1 PUSH1 0x40 ADD PUSH1 0x40 MSTORE DUP1 PUSH1 0x6 DUP2 MSTORE PUSH1 0x20 ADD PUSH32 0x73656C6C65720000000000000000000000000000000000000000000000000000 DUP2 MSTORE POP PUSH1 0x0 DUP1 PUSH1 0x1 DUP2 MSTORE PUSH1 0x20 ADD SWAP1 DUP2 MSTORE PUSH1 0x20 ADD PUSH1 0x0 KECCAK256 SWAP1 DUP1 MLOAD SWAP1 PUSH1 0x20 ADD SWAP1 PUSH3 0xCE SWAP3 SWAP2 SWAP1 PUSH3 0x292 JUMP JUMPDEST POP PUSH1 0x40 MLOAD DUP1 PUSH1 0x40 ADD PUSH1 0x40 MSTORE DUP1 PUSH1 0x4 DUP2 MSTORE PUSH1 0x20 ADD PUSH32 0x73686F7000000000000000000000000000000000000000000000000000000000 DUP2 MSTORE POP PUSH1 0x0 DUP1 PUSH1 0x2 DUP2 MSTORE PUSH1 0x20 ADD SWAP1 DUP2 MSTORE PUSH1 0x20 ADD PUSH1 0x0 KECCAK256 SWAP1 DUP1 MLOAD SWAP1 PUSH1 0x20 ADD SWAP1 PUSH3 0x12D SWAP3 SWAP2 SWAP1 PUSH3 0x292 JUMP JUMPDEST POP PUSH1 0x40 MLOAD DUP1 PUSH1 0x40 ADD PUSH1 0x40 MSTORE DUP1 PUSH1 0x5 DUP2 MSTORE PUSH1 0x20 ADD PUSH32 0x61646D696E000000000000000000000000000000000000000000000000000000 DUP2 MSTORE POP PUSH1 0x0 DUP1 PUSH1 0x3 DUP2 MSTORE PUSH1 0x20 ADD SWAP1 DUP2 MSTORE PUSH1 0x20 ADD PUSH1 0x0 KECCAK256 SWAP1 DUP1 MLOAD SWAP1 PUSH1 0x20 ADD SWAP1 PUSH3 0x18C SWAP3 SWAP2 SWAP1 PUSH3 0x292 JUMP JUMPDEST POP PUSH1 0x40 MLOAD DUP1 PUSH1 0x40 ADD PUSH1 0x40 MSTORE DUP1 PUSH1 0x8 DUP2 MSTORE PUSH1 0x20 ADD PUSH32 0x70726F7669646572000000000000000000000000000000000000000000000000 DUP2 MSTORE POP PUSH1 0x0 DUP1 PUSH1 0x4 DUP2 MSTORE PUSH1 0x20 ADD SWAP1 DUP2 MSTORE PUSH1 0x20 ADD PUSH1 0x0 KECCAK256 SWAP1 DUP1 MLOAD SWAP1 PUSH1 0x20 ADD SWAP1 PUSH3 0x1EB SWAP3 SWAP2 SWAP1 PUSH3 0x292 JUMP JUMPDEST POP PUSH1 0x40 MLOAD DUP1 PUSH1 0x40 ADD PUSH1 0x40 MSTORE DUP1 PUSH1 0x4 DUP2 MSTORE PUSH1 0x20 ADD PUSH32 0x62616E6B00000000000000000000000000000000000000000000000000000000 DUP2 MSTORE POP PUSH1 0x0 DUP1 PUSH1 0x5 DUP2 MSTORE PUSH1 0x20 ADD SWAP1 DUP2 MSTORE PUSH1 0x20 ADD PUSH1 0x0 KECCAK256 SWAP1 DUP1 MLOAD SWAP1 PUSH1 0x20 ADD SWAP1 PUSH3 0x24A SWAP3 SWAP2 SWAP1 PUSH3 0x292 JUMP JUMPDEST POP CALLER PUSH1 0x5 PUSH1 0x0 PUSH2 0x100 EXP DUP2 SLOAD DUP2 PUSH20 0xFFFFFFFFFFFFFFFFFFFFFFFFFFFFFFFFFFFFFFFF MUL NOT AND SWAP1 DUP4 PUSH20 0xFFFFFFFFFFFFFFFFFFFFFFFFFFFFFFFFFFFFFFFF AND MUL OR SWAP1 SSTORE POP PUSH3 0x3A7 JUMP JUMPDEST DUP3 DUP1 SLOAD PUSH3 0x2A0 SWAP1 PUSH3 0x342 JUMP JUMPDEST SWAP1 PUSH1 0x0 MSTORE PUSH1 0x20 PUSH1 0x0 KECCAK256 SWAP1 PUSH1 0x1F ADD PUSH1 0x20 SWAP1 DIV DUP2 ADD SWAP3 DUP3 PUSH3 0x2C4 JUMPI PUSH1 0x0 DUP6 SSTORE PUSH3 0x310 JUMP JUMPDEST DUP3 PUSH1 0x1F LT PUSH3 0x2DF JUMPI DUP1 MLOAD PUSH1 0xFF NOT AND DUP4 DUP1 ADD OR DUP6 SSTORE PUSH3 0x310 JUMP JUMPDEST DUP3 DUP1 ADD PUSH1 0x1 ADD DUP6 SSTORE DUP3 ISZERO PUSH3 0x310 JUMPI SWAP2 DUP3 ADD JUMPDEST DUP3 DUP2 GT ISZERO PUSH3 0x30F JUMPI DUP3 MLOAD DUP3 SSTORE SWAP2 PUSH1 0x20 ADD SWAP2 SWAP1 PUSH1 0x1 ADD SWAP1 PUSH3 0x2F2 JUMP JUMPDEST JUMPDEST POP SWAP1 POP PUSH3 0x31F SWAP2 SWAP1 PUSH3 0x323 JUMP JUMPDEST POP SWAP1 JUMP JUMPDEST JUMPDEST DUP1 DUP3 GT ISZERO PUSH3 0x33E JUMPI PUSH1 0x0 DUP2 PUSH1 0x0 SWAP1 SSTORE POP PUSH1 0x1 ADD PUSH3 0x324 JUMP JUMPDEST POP SWAP1 JUMP JUMPDEST PUSH1 0x0 PUSH1 0x2 DUP3 DIV SWAP1 POP PUSH1 0x1 DUP3 AND DUP1 PUSH3 0x35B JUMPI PUSH1 0x7F DUP3 AND SWAP2 POP JUMPDEST PUSH1 0x20 DUP3 LT DUP2 EQ ISZERO PUSH3 0x372 JUMPI PUSH3 0x371 PUSH3 0x378 JUMP JUMPDEST JUMPDEST POP SWAP2 SWAP1 POP JUMP JUMPDEST PUSH32 0x4E487B7100000000000000000000000000000000000000000000000000000000 PUSH1 0x0 MSTORE PUSH1 0x22 PUSH1 0x4 MSTORE PUSH1 0x24 PUSH1 0x0 REVERT JUMPDEST PUSH2 0x46B9 DUP1 PUSH3 0x3B7 PUSH1 0x0 CODECOPY PUSH1 0x0 RETURN INVALID PUSH1 0x80 PUSH1 0x40 MSTORE CALLVALUE DUP1 ISZERO PUSH2 0x10 JUMPI PUSH1 0x0 DUP1 REVERT JUMPDEST POP PUSH1 0x4 CALLDATASIZE LT PUSH2 0x121 JUMPI PUSH1 0x0 CALLDATALOAD PUSH1 0xE0 SHR DUP1 PUSH4 0x83DB0F6D GT PUSH2 0xAD JUMPI DUP1 PUSH4 0xA59D105F GT PUSH2 0x71 JUMPI DUP1 PUSH4 0xA59D105F EQ PUSH2 0x2ED JUMPI DUP1 PUSH4 0xBCE62A74 EQ PUSH2 0x309 JUMPI DUP1 PUSH4 0xC3D5FD39 EQ PUSH2 0x325 JUMPI DUP1 PUSH4 0xD5EABBBE EQ PUSH2 0x346 JUMPI DUP1 PUSH4 0xF8F98B79 EQ PUSH2 0x350 JUMPI PUSH2 0x121 JUMP JUMPDEST DUP1 PUSH4 0x83DB0F6D EQ PUSH2 0x26E JUMPI DUP1 PUSH4 0x8403F848 EQ PUSH2 0x28A JUMPI DUP1 PUSH4 0x8EDC85F9 EQ PUSH2 0x2A6 JUMPI DUP1 PUSH4 0x99B958EE EQ PUSH2 0x2B0 JUMPI DUP1 PUSH4 0x9D344D10 EQ PUSH2 0x2D1 JUMPI PUSH2 0x121 JUMP JUMPDEST DUP1 PUSH4 0x3A7D280C GT PUSH2 0xF4 JUMPI DUP1 PUSH4 0x3A7D280C EQ PUSH2 0x1C7 JUMPI DUP1 PUSH4 0x54504C12 EQ PUSH2 0x1F8 JUMPI DUP1 PUSH4 0x7558B2F8 EQ PUSH2 0x21A JUMPI DUP1 PUSH4 0x7B3C7488 EQ PUSH2 0x236 JUMPI DUP1 PUSH4 0x7CCB2BD8 EQ PUSH2 0x252 JUMPI PUSH2 0x121 JUMP JUMPDEST DUP1 PUSH4 0x8E74858 EQ PUSH2 0x126 JUMPI DUP1 PUSH4 0x2156A781 EQ PUSH2 0x15A JUMPI DUP1 PUSH4 0x2D6ABF59 EQ PUSH2 0x176 JUMPI DUP1 PUSH4 0x2F0185C4 EQ PUSH2 0x192 JUMPI JUMPDEST PUSH1 0x0 DUP1 REVERT JUMPDEST PUSH2 0x140 PUSH1 0x4 DUP1 CALLDATASIZE SUB DUP2 ADD SWAP1 PUSH2 0x13B SWAP2 SWAP1 PUSH2 0x367E JUMP JUMPDEST PUSH2 0x36C JUMP JUMPDEST PUSH1 0x40 MLOAD PUSH2 0x151 SWAP6 SWAP5 SWAP4 SWAP3 SWAP2 SWAP1 PUSH2 0x400C JUMP JUMPDEST PUSH1 0x40 MLOAD DUP1 SWAP2 SUB SWAP1 RETURN JUMPDEST PUSH2 0x174 PUSH1 0x4 DUP1 CALLDATASIZE SUB DUP2 ADD SWAP1 PUSH2 0x16F SWAP2 SWAP1 PUSH2 0x3906 JUMP JUMPDEST PUSH2 0x871 JUMP JUMPDEST STOP JUMPDEST PUSH2 0x190 PUSH1 0x4 DUP1 CALLDATASIZE SUB DUP2 ADD SWAP1 PUSH2 0x18B SWAP2 SWAP1 PUSH2 0x3763 JUMP JUMPDEST PUSH2 0x938 JUMP JUMPDEST STOP JUMPDEST PUSH2 0x1AC PUSH1 0x4 DUP1 CALLDATASIZE SUB DUP2 ADD SWAP1 PUSH2 0x1A7 SWAP2 SWAP1 PUSH2 0x38BD JUMP JUMPDEST PUSH2 0xCCA JUMP JUMPDEST PUSH1 0x40 MLOAD PUSH2 0x1BE SWAP7 SWAP6 SWAP5 SWAP4 SWAP3 SWAP2 SWAP1 PUSH2 0x3F13 JUMP JUMPDEST PUSH1 0x40 MLOAD DUP1 SWAP2 SUB SWAP1 RETURN JUMPDEST PUSH2 0x1E1 PUSH1 0x4 DUP1 CALLDATASIZE SUB DUP2 ADD SWAP1 PUSH2 0x1DC SWAP2 SWAP1 PUSH2 0x38BD JUMP JUMPDEST PUSH2 0xF9A JUMP JUMPDEST PUSH1 0x40 MLOAD PUSH2 0x1EF SWAP3 SWAP2 SWAP1 PUSH2 0x3F7B JUMP JUMPDEST PUSH1 0x40 MLOAD DUP1 SWAP2 SUB SWAP1 RETURN JUMPDEST PUSH2 0x200 PUSH2 0x1391 JUMP JUMPDEST PUSH1 0x40 MLOAD PUSH2 0x211 SWAP6 SWAP5 SWAP4 SWAP3 SWAP2 SWAP1 PUSH2 0x400C JUMP JUMPDEST PUSH1 0x40 MLOAD DUP1 SWAP2 SUB SWAP1 RETURN JUMPDEST PUSH2 0x234 PUSH1 0x4 DUP1 CALLDATASIZE SUB DUP2 ADD SWAP1 PUSH2 0x22F SWAP2 SWAP1 PUSH2 0x3802 JUMP JUMPDEST PUSH2 0x1894 JUMP JUMPDEST STOP JUMPDEST PUSH2 0x250 PUSH1 0x4 DUP1 CALLDATASIZE SUB DUP2 ADD SWAP1 PUSH2 0x24B SWAP2 SWAP1 PUSH2 0x38BD JUMP JUMPDEST PUSH2 0x1A0F JUMP JUMPDEST STOP JUMPDEST PUSH2 0x26C PUSH1 0x4 DUP1 CALLDATASIZE SUB DUP2 ADD SWAP1 PUSH2 0x267 SWAP2 SWAP1 PUSH2 0x3906 JUMP JUMPDEST PUSH2 0x1CDA JUMP JUMPDEST STOP JUMPDEST PUSH2 0x288 PUSH1 0x4 DUP1 CALLDATASIZE SUB DUP2 ADD SWAP1 PUSH2 0x283 SWAP2 SWAP1 PUSH2 0x36AB JUMP JUMPDEST PUSH2 0x1DE3 JUMP JUMPDEST STOP JUMPDEST PUSH2 0x2A4 PUSH1 0x4 DUP1 CALLDATASIZE SUB DUP2 ADD SWAP1 PUSH2 0x29F SWAP2 SWAP1 PUSH2 0x3A65 JUMP JUMPDEST PUSH2 0x1F32 JUMP JUMPDEST STOP JUMPDEST PUSH2 0x2AE PUSH2 0x2060 JUMP JUMPDEST STOP JUMPDEST PUSH2 0x2B8 PUSH2 0x20FB JUMP JUMPDEST PUSH1 0x40 MLOAD PUSH2 0x2C8 SWAP5 SWAP4 SWAP3 SWAP2 SWAP1 PUSH2 0x4082 JUMP JUMPDEST PUSH1 0x40 MLOAD DUP1 SWAP2 SUB SWAP1 RETURN JUMPDEST PUSH2 0x2EB PUSH1 0x4 DUP1 CALLDATASIZE SUB DUP2 ADD SWAP1 PUSH2 0x2E6 SWAP2 SWAP1 PUSH2 0x39DA JUMP JUMPDEST PUSH2 0x24B0 JUMP JUMPDEST STOP JUMPDEST PUSH2 0x307 PUSH1 0x4 DUP1 CALLDATASIZE SUB DUP2 ADD SWAP1 PUSH2 0x302 SWAP2 SWAP1 PUSH2 0x36D8 JUMP JUMPDEST PUSH2 0x24D9 JUMP JUMPDEST STOP JUMPDEST PUSH2 0x323 PUSH1 0x4 DUP1 CALLDATASIZE SUB DUP2 ADD SWAP1 PUSH2 0x31E SWAP2 SWAP1 PUSH2 0x38BD JUMP JUMPDEST PUSH2 0x25D8 JUMP JUMPDEST STOP JUMPDEST PUSH2 0x32D PUSH2 0x28A3 JUMP JUMPDEST PUSH1 0x40 MLOAD PUSH2 0x33D SWAP5 SWAP4 SWAP3 SWAP2 SWAP1 PUSH2 0x3FAB JUMP JUMPDEST PUSH1 0x40 MLOAD DUP1 SWAP2 SUB SWAP1 RETURN JUMPDEST PUSH2 0x34E PUSH2 0x2EF1 JUMP JUMPDEST STOP JUMPDEST PUSH2 0x36A PUSH1 0x4 DUP1 CALLDATASIZE SUB DUP2 ADD SWAP1 PUSH2 0x365 SWAP2 SWAP1 PUSH2 0x3962 JUMP JUMPDEST PUSH2 0x2F8C JUMP JUMPDEST STOP JUMPDEST PUSH1 0x60 DUP1 PUSH1 0x60 DUP1 PUSH1 0x60 PUSH1 0x3 PUSH1 0x2 PUSH1 0x0 CALLER PUSH20 0xFFFFFFFFFFFFFFFFFFFFFFFFFFFFFFFFFFFFFFFF AND PUSH20 0xFFFFFFFFFFFFFFFFFFFFFFFFFFFFFFFFFFFFFFFF AND DUP2 MSTORE PUSH1 0x20 ADD SWAP1 DUP2 MSTORE PUSH1 0x20 ADD PUSH1 0x0 KECCAK256 PUSH1 0x0 ADD SLOAD DUP2 PUSH1 0x5 DUP2 GT ISZERO PUSH2 0x3CC JUMPI PUSH2 0x3CB PUSH2 0x441E JUMP JUMPDEST JUMPDEST EQ PUSH2 0x40C JUMPI PUSH1 0x40 MLOAD PUSH32 0x8C379A000000000000000000000000000000000000000000000000000000000 DUP2 MSTORE PUSH1 0x4 ADD PUSH2 0x403 SWAP1 PUSH2 0x413C JUMP JUMPDEST PUSH1 0x40 MLOAD DUP1 SWAP2 SUB SWAP1 REVERT JUMPDEST PUSH1 0x0 PUSH1 0x2 PUSH1 0x0 DUP10 PUSH20 0xFFFFFFFFFFFFFFFFFFFFFFFFFFFFFFFFFFFFFFFF AND PUSH20 0xFFFFFFFFFFFFFFFFFFFFFFFFFFFFFFFFFFFFFFFF AND DUP2 MSTORE PUSH1 0x20 ADD SWAP1 DUP2 MSTORE PUSH1 0x20 ADD PUSH1 0x0 KECCAK256 PUSH1 0x40 MLOAD DUP1 PUSH1 0x80 ADD PUSH1 0x40 MSTORE SWAP1 DUP2 PUSH1 0x0 DUP3 ADD SLOAD DUP2 MSTORE PUSH1 0x20 ADD PUSH1 0x1 DUP3 ADD DUP1 SLOAD PUSH2 0x472 SWAP1 PUSH2 0x43BB JUMP JUMPDEST DUP1 PUSH1 0x1F ADD PUSH1 0x20 DUP1 SWAP2 DIV MUL PUSH1 0x20 ADD PUSH1 0x40 MLOAD SWAP1 DUP2 ADD PUSH1 0x40 MSTORE DUP1 SWAP3 SWAP2 SWAP1 DUP2 DUP2 MSTORE PUSH1 0x20 ADD DUP3 DUP1 SLOAD PUSH2 0x49E SWAP1 PUSH2 0x43BB JUMP JUMPDEST DUP1 ISZERO PUSH2 0x4EB JUMPI DUP1 PUSH1 0x1F LT PUSH2 0x4C0 JUMPI PUSH2 0x100 DUP1 DUP4 SLOAD DIV MUL DUP4 MSTORE SWAP2 PUSH1 0x20 ADD SWAP2 PUSH2 0x4EB JUMP JUMPDEST DUP3 ADD SWAP2 SWAP1 PUSH1 0x0 MSTORE PUSH1 0x20 PUSH1 0x0 KECCAK256 SWAP1 JUMPDEST DUP2 SLOAD DUP2 MSTORE SWAP1 PUSH1 0x1 ADD SWAP1 PUSH1 0x20 ADD DUP1 DUP4 GT PUSH2 0x4CE JUMPI DUP3 SWAP1 SUB PUSH1 0x1F AND DUP3 ADD SWAP2 JUMPDEST POP POP POP POP POP DUP2 MSTORE PUSH1 0x20 ADD PUSH1 0x2 DUP3 ADD DUP1 SLOAD PUSH2 0x504 SWAP1 PUSH2 0x43BB JUMP JUMPDEST DUP1 PUSH1 0x1F ADD PUSH1 0x20 DUP1 SWAP2 DIV MUL PUSH1 0x20 ADD PUSH1 0x40 MLOAD SWAP1 DUP2 ADD PUSH1 0x40 MSTORE DUP1 SWAP3 SWAP2 SWAP1 DUP2 DUP2 MSTORE PUSH1 0x20 ADD DUP3 DUP1 SLOAD PUSH2 0x530 SWAP1 PUSH2 0x43BB JUMP JUMPDEST DUP1 ISZERO PUSH2 0x57D JUMPI DUP1 PUSH1 0x1F LT PUSH2 0x552 JUMPI PUSH2 0x100 DUP1 DUP4 SLOAD DIV MUL DUP4 MSTORE SWAP2 PUSH1 0x20 ADD SWAP2 PUSH2 0x57D JUMP JUMPDEST DUP3 ADD SWAP2 SWAP1 PUSH1 0x0 MSTORE PUSH1 0x20 PUSH1 0x0 KECCAK256 SWAP1 JUMPDEST DUP2 SLOAD DUP2 MSTORE SWAP1 PUSH1 0x1 ADD SWAP1 PUSH1 0x20 ADD DUP1 DUP4 GT PUSH2 0x560 JUMPI DUP3 SWAP1 SUB PUSH1 0x1F AND DUP3 ADD SWAP2 JUMPDEST POP POP POP POP POP DUP2 MSTORE PUSH1 0x20 ADD PUSH1 0x3 DUP3 ADD DUP1 SLOAD DUP1 PUSH1 0x20 MUL PUSH1 0x20 ADD PUSH1 0x40 MLOAD SWAP1 DUP2 ADD PUSH1 0x40 MSTORE DUP1 SWAP3 SWAP2 SWAP1 DUP2 DUP2 MSTORE PUSH1 0x20 ADD PUSH1 0x0 SWAP1 JUMPDEST DUP3 DUP3 LT ISZERO PUSH2 0x657 JUMPI DUP4 DUP3 SWAP1 PUSH1 0x0 MSTORE PUSH1 0x20 PUSH1 0x0 KECCAK256 ADD DUP1 SLOAD PUSH2 0x5CA SWAP1 PUSH2 0x43BB JUMP JUMPDEST DUP1 PUSH1 0x1F ADD PUSH1 0x20 DUP1 SWAP2 DIV MUL PUSH1 0x20 ADD PUSH1 0x40 MLOAD SWAP1 DUP2 ADD PUSH1 0x40 MSTORE DUP1 SWAP3 SWAP2 SWAP1 DUP2 DUP2 MSTORE PUSH1 0x20 ADD DUP3 DUP1 SLOAD PUSH2 0x5F6 SWAP1 PUSH2 0x43BB JUMP JUMPDEST DUP1 ISZERO PUSH2 0x643 JUMPI DUP1 PUSH1 0x1F LT PUSH2 0x618 JUMPI PUSH2 0x100 DUP1 DUP4 SLOAD DIV MUL DUP4 MSTORE SWAP2 PUSH1 0x20 ADD SWAP2 PUSH2 0x643 JUMP JUMPDEST DUP3 ADD SWAP2 SWAP1 PUSH1 0x0 MSTORE PUSH1 0x20 PUSH1 0x0 KECCAK256 SWAP1 JUMPDEST DUP2 SLOAD DUP2 MSTORE SWAP1 PUSH1 0x1 ADD SWAP1 PUSH1 0x20 ADD DUP1 DUP4 GT PUSH2 0x626 JUMPI DUP3 SWAP1 SUB PUSH1 0x1F AND DUP3 ADD SWAP2 JUMPDEST POP POP POP POP POP DUP2 MSTORE PUSH1 0x20 ADD SWAP1 PUSH1 0x1 ADD SWAP1 PUSH2 0x5AB JUMP JUMPDEST POP POP POP POP DUP2 MSTORE POP POP SWAP1 POP PUSH1 0x0 PUSH1 0xC PUSH1 0x0 DUP11 PUSH20 0xFFFFFFFFFFFFFFFFFFFFFFFFFFFFFFFFFFFFFFFF AND PUSH20 0xFFFFFFFFFFFFFFFFFFFFFFFFFFFFFFFFFFFFFFFF AND DUP2 MSTORE PUSH1 0x20 ADD SWAP1 DUP2 MSTORE PUSH1 0x20 ADD PUSH1 0x0 KECCAK256 PUSH1 0x0 SWAP1 SLOAD SWAP1 PUSH2 0x100 EXP SWAP1 DIV PUSH20 0xFFFFFFFFFFFFFFFFFFFFFFFFFFFFFFFFFFFFFFFF AND SWAP1 POP PUSH1 0x0 PUSH1 0xB PUSH1 0x0 DUP4 PUSH20 0xFFFFFFFFFFFFFFFFFFFFFFFFFFFFFFFFFFFFFFFF AND PUSH20 0xFFFFFFFFFFFFFFFFFFFFFFFFFFFFFFFFFFFFFFFF AND DUP2 MSTORE PUSH1 0x20 ADD SWAP1 DUP2 MSTORE PUSH1 0x20 ADD PUSH1 0x0 KECCAK256 PUSH1 0x40 MLOAD DUP1 PUSH1 0x60 ADD PUSH1 0x40 MSTORE SWAP1 DUP2 PUSH1 0x0 DUP3 ADD DUP1 SLOAD PUSH2 0x721 SWAP1 PUSH2 0x43BB JUMP JUMPDEST DUP1 PUSH1 0x1F ADD PUSH1 0x20 DUP1 SWAP2 DIV MUL PUSH1 0x20 ADD PUSH1 0x40 MLOAD SWAP1 DUP2 ADD PUSH1 0x40 MSTORE DUP1 SWAP3 SWAP2 SWAP1 DUP2 DUP2 MSTORE PUSH1 0x20 ADD DUP3 DUP1 SLOAD PUSH2 0x74D SWAP1 PUSH2 0x43BB JUMP JUMPDEST DUP1 ISZERO PUSH2 0x79A JUMPI DUP1 PUSH1 0x1F LT PUSH2 0x76F JUMPI PUSH2 0x100 DUP1 DUP4 SLOAD DIV MUL DUP4 MSTORE SWAP2 PUSH1 0x20 ADD SWAP2 PUSH2 0x79A JUMP JUMPDEST DUP3 ADD SWAP2 SWAP1 PUSH1 0x0 MSTORE PUSH1 0x20 PUSH1 0x0 KECCAK256 SWAP1 JUMPDEST DUP2 SLOAD DUP2 MSTORE SWAP1 PUSH1 0x1 ADD SWAP1 PUSH1 0x20 ADD DUP1 DUP4 GT PUSH2 0x77D JUMPI DUP3 SWAP1 SUB PUSH1 0x1F AND DUP3 ADD SWAP2 JUMPDEST POP POP POP POP POP DUP2 MSTORE PUSH1 0x20 ADD PUSH1 0x1 DUP3 ADD DUP1 SLOAD PUSH2 0x7B3 SWAP1 PUSH2 0x43BB JUMP JUMPDEST DUP1 PUSH1 0x1F ADD PUSH1 0x20 DUP1 SWAP2 DIV MUL PUSH1 0x20 ADD PUSH1 0x40 MLOAD SWAP1 DUP2 ADD PUSH1 0x40 MSTORE DUP1 SWAP3 SWAP2 SWAP1 DUP2 DUP2 MSTORE PUSH1 0x20 ADD DUP3 DUP1 SLOAD PUSH2 0x7DF SWAP1 PUSH2 0x43BB JUMP JUMPDEST DUP1 ISZERO PUSH2 0x82C JUMPI DUP1 PUSH1 0x1F LT PUSH2 0x801 JUMPI PUSH2 0x100 DUP1 DUP4 SLOAD DIV MUL DUP4 MSTORE SWAP2 PUSH1 0x20 ADD SWAP2 PUSH2 0x82C JUMP JUMPDEST DUP3 ADD SWAP2 SWAP1 PUSH1 0x0 MSTORE PUSH1 0x20 PUSH1 0x0 KECCAK256 SWAP1 JUMPDEST DUP2 SLOAD DUP2 MSTORE SWAP1 PUSH1 0x1 ADD SWAP1 PUSH1 0x20 ADD DUP1 DUP4 GT PUSH2 0x80F JUMPI DUP3 SWAP1 SUB PUSH1 0x1F AND DUP3 ADD SWAP2 JUMPDEST POP POP POP POP POP DUP2 MSTORE PUSH1 0x20 ADD PUSH1 0x2 DUP3 ADD SLOAD DUP2 MSTORE POP POP SWAP1 POP DUP3 PUSH1 0x20 ADD MLOAD SWAP9 POP DUP3 PUSH1 0x40 ADD MLOAD SWAP8 POP DUP1 PUSH1 0x20 ADD MLOAD SWAP7 POP DUP1 PUSH1 0x0 ADD MLOAD SWAP6 POP DUP3 PUSH1 0x60 ADD MLOAD SWAP5 POP POP POP POP POP SWAP2 SWAP4 SWAP6 SWAP1 SWAP3 SWAP5 POP JUMP JUMPDEST PUSH1 0x5 PUSH1 0x0 SWAP1 SLOAD SWAP1 PUSH2 0x100 EXP SWAP1 DIV PUSH20 0xFFFFFFFFFFFFFFFFFFFFFFFFFFFFFFFFFFFFFFFF AND PUSH20 0xFFFFFFFFFFFFFFFFFFFFFFFFFFFFFFFFFFFFFFFF AND CALLER PUSH20 0xFFFFFFFFFFFFFFFFFFFFFFFFFFFFFFFFFFFFFFFF AND EQ PUSH2 0x901 JUMPI PUSH1 0x40 MLOAD PUSH32 0x8C379A000000000000000000000000000000000000000000000000000000000 DUP2 MSTORE PUSH1 0x4 ADD PUSH2 0x8F8 SWAP1 PUSH2 0x417C JUMP JUMPDEST PUSH1 0x40 MLOAD DUP1 SWAP2 SUB SWAP1 REVERT JUMPDEST PUSH1 0x0 PUSH1 0x5 DUP1 DUP2 GT ISZERO PUSH2 0x916 JUMPI PUSH2 0x915 PUSH2 0x441E JUMP JUMPDEST JUMPDEST SWAP1 POP PUSH2 0x933 PUSH1 0x40 MLOAD DUP1 PUSH1 0x20 ADD PUSH1 0x40 MSTORE DUP1 PUSH1 0x0 DUP2 MSTORE POP DUP5 DUP4 DUP6 PUSH2 0x3081 JUMP JUMPDEST POP POP POP JUMP JUMPDEST PUSH2 0xA1B PUSH1 0x2 PUSH1 0x0 CALLER PUSH20 0xFFFFFFFFFFFFFFFFFFFFFFFFFFFFFFFFFFFFFFFF AND PUSH20 0xFFFFFFFFFFFFFFFFFFFFFFFFFFFFFFFFFFFFFFFF AND DUP2 MSTORE PUSH1 0x20 ADD SWAP1 DUP2 MSTORE PUSH1 0x20 ADD PUSH1 0x0 KECCAK256 PUSH1 0x1 ADD DUP1 SLOAD PUSH2 0x988 SWAP1 PUSH2 0x43BB JUMP JUMPDEST DUP1 PUSH1 0x1F ADD PUSH1 0x20 DUP1 SWAP2 DIV MUL PUSH1 0x20 ADD PUSH1 0x40 MLOAD SWAP1 DUP2 ADD PUSH1 0x40 MSTORE DUP1 SWAP3 SWAP2 SWAP1 DUP2 DUP2 MSTORE PUSH1 0x20 ADD DUP3 DUP1 SLOAD PUSH2 0x9B4 SWAP1 PUSH2 0x43BB JUMP JUMPDEST DUP1 ISZERO PUSH2 0xA01 JUMPI DUP1 PUSH1 0x1F LT PUSH2 0x9D6 JUMPI PUSH2 0x100 DUP1 DUP4 SLOAD DIV MUL DUP4 MSTORE SWAP2 PUSH1 0x20 ADD SWAP2 PUSH2 0xA01 JUMP JUMPDEST DUP3 ADD SWAP2 SWAP1 PUSH1 0x0 MSTORE PUSH1 0x20 PUSH1 0x0 KECCAK256 SWAP1 JUMPDEST DUP2 SLOAD DUP2 MSTORE SWAP1 PUSH1 0x1 ADD SWAP1 PUSH1 0x20 ADD DUP1 DUP4 GT PUSH2 0x9E4 JUMPI DUP3 SWAP1 SUB PUSH1 0x1F AND DUP3 ADD SWAP2 JUMPDEST POP POP POP POP POP PUSH1 0x40 MLOAD DUP1 PUSH1 0x20 ADD PUSH1 0x40 MSTORE DUP1 PUSH1 0x0 DUP2 MSTORE POP PUSH2 0x3385 JUMP JUMPDEST ISZERO PUSH2 0xA5B JUMPI PUSH1 0x40 MLOAD PUSH32 0x8C379A000000000000000000000000000000000000000000000000000000000 DUP2 MSTORE PUSH1 0x4 ADD PUSH2 0xA52 SWAP1 PUSH2 0x415C JUMP JUMPDEST PUSH1 0x40 MLOAD DUP1 SWAP2 SUB SWAP1 REVERT JUMPDEST PUSH1 0x60 DUP1 PUSH1 0x0 PUSH1 0x40 MLOAD DUP1 PUSH1 0xC0 ADD PUSH1 0x40 MSTORE DUP1 CALLER PUSH20 0xFFFFFFFFFFFFFFFFFFFFFFFFFFFFFFFFFFFFFFFF AND DUP2 MSTORE PUSH1 0x20 ADD DUP9 PUSH20 0xFFFFFFFFFFFFFFFFFFFFFFFFFFFFFFFFFFFFFFFF AND DUP2 MSTORE PUSH1 0x20 ADD DUP8 DUP2 MSTORE PUSH1 0x20 ADD DUP5 DUP2 MSTORE PUSH1 0x20 ADD DUP4 DUP2 MSTORE PUSH1 0x20 ADD DUP6 DUP2 MSTORE POP SWAP1 POP PUSH1 0xE PUSH1 0x0 DUP9 PUSH20 0xFFFFFFFFFFFFFFFFFFFFFFFFFFFFFFFFFFFFFFFF AND PUSH20 0xFFFFFFFFFFFFFFFFFFFFFFFFFFFFFFFFFFFFFFFF AND DUP2 MSTORE PUSH1 0x20 ADD SWAP1 DUP2 MSTORE PUSH1 0x20 ADD PUSH1 0x0 KECCAK256 DUP6 SWAP1 DUP1 PUSH1 0x1 DUP2 SLOAD ADD DUP1 DUP3 SSTORE DUP1 SWAP2 POP POP PUSH1 0x1 SWAP1 SUB SWAP1 PUSH1 0x0 MSTORE PUSH1 0x20 PUSH1 0x0 KECCAK256 ADD PUSH1 0x0 SWAP1 SWAP2 SWAP1 SWAP2 SWAP1 SWAP2 POP SWAP1 DUP1 MLOAD SWAP1 PUSH1 0x20 ADD SWAP1 PUSH2 0xB33 SWAP3 SWAP2 SWAP1 PUSH2 0x33DE JUMP JUMPDEST POP PUSH1 0x2 PUSH1 0x0 CALLER PUSH20 0xFFFFFFFFFFFFFFFFFFFFFFFFFFFFFFFFFFFFFFFF AND PUSH20 0xFFFFFFFFFFFFFFFFFFFFFFFFFFFFFFFFFFFFFFFF AND DUP2 MSTORE PUSH1 0x20 ADD SWAP1 DUP2 MSTORE PUSH1 0x20 ADD PUSH1 0x0 KECCAK256 PUSH1 0x3 ADD DUP6 SWAP1 DUP1 PUSH1 0x1 DUP2 SLOAD ADD DUP1 DUP3 SSTORE DUP1 SWAP2 POP POP PUSH1 0x1 SWAP1 SUB SWAP1 PUSH1 0x0 MSTORE PUSH1 0x20 PUSH1 0x0 KECCAK256 ADD PUSH1 0x0 SWAP1 SWAP2 SWAP1 SWAP2 SWAP1 SWAP2 POP SWAP1 DUP1 MLOAD SWAP1 PUSH1 0x20 ADD SWAP1 PUSH2 0xBAF SWAP3 SWAP2 SWAP1 PUSH2 0x33DE JUMP JUMPDEST POP DUP1 PUSH1 0xF DUP7 PUSH1 0x40 MLOAD PUSH2 0xBC1 SWAP2 SWAP1 PUSH2 0x3EFC JUMP JUMPDEST SWAP1 DUP2 MSTORE PUSH1 0x20 ADD PUSH1 0x40 MLOAD DUP1 SWAP2 SUB SWAP1 KECCAK256 PUSH1 0x0 DUP3 ADD MLOAD DUP2 PUSH1 0x0 ADD PUSH1 0x0 PUSH2 0x100 EXP DUP2 SLOAD DUP2 PUSH20 0xFFFFFFFFFFFFFFFFFFFFFFFFFFFFFFFFFFFFFFFF MUL NOT AND SWAP1 DUP4 PUSH20 0xFFFFFFFFFFFFFFFFFFFFFFFFFFFFFFFFFFFFFFFF AND MUL OR SWAP1 SSTORE POP PUSH1 0x20 DUP3 ADD MLOAD DUP2 PUSH1 0x1 ADD PUSH1 0x0 PUSH2 0x100 EXP DUP2 SLOAD DUP2 PUSH20 0xFFFFFFFFFFFFFFFFFFFFFFFFFFFFFFFFFFFFFFFF MUL NOT AND SWAP1 DUP4 PUSH20 0xFFFFFFFFFFFFFFFFFFFFFFFFFFFFFFFFFFFFFFFF AND MUL OR SWAP1 SSTORE POP PUSH1 0x40 DUP3 ADD MLOAD DUP2 PUSH1 0x2 ADD SWAP1 DUP1 MLOAD SWAP1 PUSH1 0x20 ADD SWAP1 PUSH2 0xC79 SWAP3 SWAP2 SWAP1 PUSH2 0x33DE JUMP JUMPDEST POP PUSH1 0x60 DUP3 ADD MLOAD DUP2 PUSH1 0x3 ADD SWAP1 DUP1 MLOAD SWAP1 PUSH1 0x20 ADD SWAP1 PUSH2 0xC96 SWAP3 SWAP2 SWAP1 PUSH2 0x3464 JUMP JUMPDEST POP PUSH1 0x80 DUP3 ADD MLOAD DUP2 PUSH1 0x4 ADD SWAP1 DUP1 MLOAD SWAP1 PUSH1 0x20 ADD SWAP1 PUSH2 0xCB3 SWAP3 SWAP2 SWAP1 PUSH2 0x3464 JUMP JUMPDEST POP PUSH1 0xA0 DUP3 ADD MLOAD DUP2 PUSH1 0x5 ADD SSTORE SWAP1 POP POP POP POP POP POP POP POP POP JUMP JUMPDEST PUSH1 0x0 DUP1 PUSH1 0x60 PUSH1 0x0 DUP1 PUSH1 0x0 DUP1 PUSH1 0xF DUP9 PUSH1 0x40 MLOAD PUSH2 0xCE5 SWAP2 SWAP1 PUSH2 0x3EFC JUMP JUMPDEST SWAP1 DUP2 MSTORE PUSH1 0x20 ADD PUSH1 0x40 MLOAD DUP1 SWAP2 SUB SWAP1 KECCAK256 PUSH1 0x40 MLOAD DUP1 PUSH1 0xC0 ADD PUSH1 0x40 MSTORE SWAP1 DUP2 PUSH1 0x0 DUP3 ADD PUSH1 0x0 SWAP1 SLOAD SWAP1 PUSH2 0x100 EXP SWAP1 DIV PUSH20 0xFFFFFFFFFFFFFFFFFFFFFFFFFFFFFFFFFFFFFFFF AND PUSH20 0xFFFFFFFFFFFFFFFFFFFFFFFFFFFFFFFFFFFFFFFF AND PUSH20 0xFFFFFFFFFFFFFFFFFFFFFFFFFFFFFFFFFFFFFFFF AND DUP2 MSTORE PUSH1 0x20 ADD PUSH1 0x1 DUP3 ADD PUSH1 0x0 SWAP1 SLOAD SWAP1 PUSH2 0x100 EXP SWAP1 DIV PUSH20 0xFFFFFFFFFFFFFFFFFFFFFFFFFFFFFFFFFFFFFFFF AND PUSH20 0xFFFFFFFFFFFFFFFFFFFFFFFFFFFFFFFFFFFFFFFF AND PUSH20 0xFFFFFFFFFFFFFFFFFFFFFFFFFFFFFFFFFFFFFFFF AND DUP2 MSTORE PUSH1 0x20 ADD PUSH1 0x2 DUP3 ADD DUP1 SLOAD PUSH2 0xDBA SWAP1 PUSH2 0x43BB JUMP JUMPDEST DUP1 PUSH1 0x1F ADD PUSH1 0x20 DUP1 SWAP2 DIV MUL PUSH1 0x20 ADD PUSH1 0x40 MLOAD SWAP1 DUP2 ADD PUSH1 0x40 MSTORE DUP1 SWAP3 SWAP2 SWAP1 DUP2 DUP2 MSTORE PUSH1 0x20 ADD DUP3 DUP1 SLOAD PUSH2 0xDE6 SWAP1 PUSH2 0x43BB JUMP JUMPDEST DUP1 ISZERO PUSH2 0xE33 JUMPI DUP1 PUSH1 0x1F LT PUSH2 0xE08 JUMPI PUSH2 0x100 DUP1 DUP4 SLOAD DIV MUL DUP4 MSTORE SWAP2 PUSH1 0x20 ADD SWAP2 PUSH2 0xE33 JUMP JUMPDEST DUP3 ADD SWAP2 SWAP1 PUSH1 0x0 MSTORE PUSH1 0x20 PUSH1 0x0 KECCAK256 SWAP1 JUMPDEST DUP2 SLOAD DUP2 MSTORE SWAP1 PUSH1 0x1 ADD SWAP1 PUSH1 0x20 ADD DUP1 DUP4 GT PUSH2 0xE16 JUMPI DUP3 SWAP1 SUB PUSH1 0x1F AND DUP3 ADD SWAP2 JUMPDEST POP POP POP POP POP DUP2 MSTORE PUSH1 0x20 ADD PUSH1 0x3 DUP3 ADD DUP1 SLOAD DUP1 PUSH1 0x20 MUL PUSH1 0x20 ADD PUSH1 0x40 MLOAD SWAP1 DUP2 ADD PUSH1 0x40 MSTORE DUP1 SWAP3 SWAP2 SWAP1 DUP2 DUP2 MSTORE PUSH1 0x20 ADD DUP3 DUP1 SLOAD DUP1 ISZERO PUSH2 0xEC1 JUMPI PUSH1 0x20 MUL DUP3 ADD SWAP2 SWAP1 PUSH1 0x0 MSTORE PUSH1 0x20 PUSH1 0x0 KECCAK256 SWAP1 JUMPDEST DUP2 PUSH1 0x0 SWAP1 SLOAD SWAP1 PUSH2 0x100 EXP SWAP1 DIV PUSH20 0xFFFFFFFFFFFFFFFFFFFFFFFFFFFFFFFFFFFFFFFF AND PUSH20 0xFFFFFFFFFFFFFFFFFFFFFFFFFFFFFFFFFFFFFFFF AND DUP2 MSTORE PUSH1 0x20 ADD SWAP1 PUSH1 0x1 ADD SWAP1 DUP1 DUP4 GT PUSH2 0xE77 JUMPI JUMPDEST POP POP POP POP POP DUP2 MSTORE PUSH1 0x20 ADD PUSH1 0x4 DUP3 ADD DUP1 SLOAD DUP1 PUSH1 0x20 MUL PUSH1 0x20 ADD PUSH1 0x40 MLOAD SWAP1 DUP2 ADD PUSH1 0x40 MSTORE DUP1 SWAP3 SWAP2 SWAP1 DUP2 DUP2 MSTORE PUSH1 0x20 ADD DUP3 DUP1 SLOAD DUP1 ISZERO PUSH2 0xF4F JUMPI PUSH1 0x20 MUL DUP3 ADD SWAP2 SWAP1 PUSH1 0x0 MSTORE PUSH1 0x20 PUSH1 0x0 KECCAK256 SWAP1 JUMPDEST DUP2 PUSH1 0x0 SWAP1 SLOAD SWAP1 PUSH2 0x100 EXP SWAP1 DIV PUSH20 0xFFFFFFFFFFFFFFFFFFFFFFFFFFFFFFFFFFFFFFFF AND PUSH20 0xFFFFFFFFFFFFFFFFFFFFFFFFFFFFFFFFFFFFFFFF AND DUP2 MSTORE PUSH1 0x20 ADD SWAP1 PUSH1 0x1 ADD SWAP1 DUP1 DUP4 GT PUSH2 0xF05 JUMPI JUMPDEST POP POP POP POP POP DUP2 MSTORE PUSH1 0x20 ADD PUSH1 0x5 DUP3 ADD SLOAD DUP2 MSTORE POP POP SWAP1 POP DUP1 PUSH1 0x0 ADD MLOAD SWAP7 POP DUP1 PUSH1 0x20 ADD MLOAD SWAP6 POP DUP1 PUSH1 0x40 ADD MLOAD SWAP5 POP DUP1 PUSH1 0x60 ADD MLOAD MLOAD SWAP4 POP DUP1 PUSH1 0x80 ADD MLOAD MLOAD SWAP3 POP DUP1 PUSH1 0xA0 ADD MLOAD SWAP2 POP POP SWAP2 SWAP4 SWAP6 POP SWAP2 SWAP4 SWAP6 JUMP JUMPDEST PUSH1 0x0 PUSH1 0x60 DUP3 PUSH1 0x0 PUSH20 0xFFFFFFFFFFFFFFFFFFFFFFFFFFFFFFFFFFFFFFFF AND PUSH1 0x1 DUP3 PUSH1 0x40 MLOAD PUSH2 0xFC7 SWAP2 SWAP1 PUSH2 0x3EFC JUMP JUMPDEST SWAP1 DUP2 MSTORE PUSH1 0x20 ADD PUSH1 0x40 MLOAD DUP1 SWAP2 SUB SWAP1 KECCAK256 PUSH1 0x0 SWAP1 SLOAD SWAP1 PUSH2 0x100 EXP SWAP1 DIV PUSH20 0xFFFFFFFFFFFFFFFFFFFFFFFFFFFFFFFFFFFFFFFF AND PUSH20 0xFFFFFFFFFFFFFFFFFFFFFFFFFFFFFFFFFFFFFFFF AND EQ ISZERO PUSH2 0x104D JUMPI PUSH1 0x40 MLOAD PUSH32 0x8C379A000000000000000000000000000000000000000000000000000000000 DUP2 MSTORE PUSH1 0x4 ADD PUSH2 0x1044 SWAP1 PUSH2 0x41BC JUMP JUMPDEST PUSH1 0x40 MLOAD DUP1 SWAP2 SUB SWAP1 REVERT JUMPDEST PUSH1 0x0 PUSH1 0x1 DUP6 PUSH1 0x40 MLOAD PUSH2 0x105F SWAP2 SWAP1 PUSH2 0x3EFC JUMP JUMPDEST SWAP1 DUP2 MSTORE PUSH1 0x20 ADD PUSH1 0x40 MLOAD DUP1 SWAP2 SUB SWAP1 KECCAK256 PUSH1 0x0 SWAP1 SLOAD SWAP1 PUSH2 0x100 EXP SWAP1 DIV PUSH20 0xFFFFFFFFFFFFFFFFFFFFFFFFFFFFFFFFFFFFFFFF AND SWAP1 POP PUSH1 0x0 PUSH1 0x2 PUSH1 0x0 DUP4 PUSH20 0xFFFFFFFFFFFFFFFFFFFFFFFFFFFFFFFFFFFFFFFF AND PUSH20 0xFFFFFFFFFFFFFFFFFFFFFFFFFFFFFFFFFFFFFFFF AND DUP2 MSTORE PUSH1 0x20 ADD SWAP1 DUP2 MSTORE PUSH1 0x20 ADD PUSH1 0x0 KECCAK256 PUSH1 0x40 MLOAD DUP1 PUSH1 0x80 ADD PUSH1 0x40 MSTORE SWAP1 DUP2 PUSH1 0x0 DUP3 ADD SLOAD DUP2 MSTORE PUSH1 0x20 ADD PUSH1 0x1 DUP3 ADD DUP1 SLOAD PUSH2 0x10F6 SWAP1 PUSH2 0x43BB JUMP JUMPDEST DUP1 PUSH1 0x1F ADD PUSH1 0x20 DUP1 SWAP2 DIV MUL PUSH1 0x20 ADD PUSH1 0x40 MLOAD SWAP1 DUP2 ADD PUSH1 0x40 MSTORE DUP1 SWAP3 SWAP2 SWAP1 DUP2 DUP2 MSTORE PUSH1 0x20 ADD DUP3 DUP1 SLOAD PUSH2 0x1122 SWAP1 PUSH2 0x43BB JUMP JUMPDEST DUP1 ISZERO PUSH2 0x116F JUMPI DUP1 PUSH1 0x1F LT PUSH2 0x1144 JUMPI PUSH2 0x100 DUP1 DUP4 SLOAD DIV MUL DUP4 MSTORE SWAP2 PUSH1 0x20 ADD SWAP2 PUSH2 0x116F JUMP JUMPDEST DUP3 ADD SWAP2 SWAP1 PUSH1 0x0 MSTORE PUSH1 0x20 PUSH1 0x0 KECCAK256 SWAP1 JUMPDEST DUP2 SLOAD DUP2 MSTORE SWAP1 PUSH1 0x1 ADD SWAP1 PUSH1 0x20 ADD DUP1 DUP4 GT PUSH2 0x1152 JUMPI DUP3 SWAP1 SUB PUSH1 0x1F AND DUP3 ADD SWAP2 JUMPDEST POP POP POP POP POP DUP2 MSTORE PUSH1 0x20 ADD PUSH1 0x2 DUP3 ADD DUP1 SLOAD PUSH2 0x1188 SWAP1 PUSH2 0x43BB JUMP JUMPDEST DUP1 PUSH1 0x1F ADD PUSH1 0x20 DUP1 SWAP2 DIV MUL PUSH1 0x20 ADD PUSH1 0x40 MLOAD SWAP1 DUP2 ADD PUSH1 0x40 MSTORE DUP1 SWAP3 SWAP2 SWAP1 DUP2 DUP2 MSTORE PUSH1 0x20 ADD DUP3 DUP1 SLOAD PUSH2 0x11B4 SWAP1 PUSH2 0x43BB JUMP JUMPDEST DUP1 ISZERO PUSH2 0x1201 JUMPI DUP1 PUSH1 0x1F LT PUSH2 0x11D6 JUMPI PUSH2 0x100 DUP1 DUP4 SLOAD DIV MUL DUP4 MSTORE SWAP2 PUSH1 0x20 ADD SWAP2 PUSH2 0x1201 JUMP JUMPDEST DUP3 ADD SWAP2 SWAP1 PUSH1 0x0 MSTORE PUSH1 0x20 PUSH1 0x0 KECCAK256 SWAP1 JUMPDEST DUP2 SLOAD DUP2 MSTORE SWAP1 PUSH1 0x1 ADD SWAP1 PUSH1 0x20 ADD DUP1 DUP4 GT PUSH2 0x11E4 JUMPI DUP3 SWAP1 SUB PUSH1 0x1F AND DUP3 ADD SWAP2 JUMPDEST POP POP POP POP POP DUP2 MSTORE PUSH1 0x20 ADD PUSH1 0x3 DUP3 ADD DUP1 SLOAD DUP1 PUSH1 0x20 MUL PUSH1 0x20 ADD PUSH1 0x40 MLOAD SWAP1 DUP2 ADD PUSH1 0x40 MSTORE DUP1 SWAP3 SWAP2 SWAP1 DUP2 DUP2 MSTORE PUSH1 0x20 ADD PUSH1 0x0 SWAP1 JUMPDEST DUP3 DUP3 LT ISZERO PUSH2 0x12DB JUMPI DUP4 DUP3 SWAP1 PUSH1 0x0 MSTORE PUSH1 0x20 PUSH1 0x0 KECCAK256 ADD DUP1 SLOAD PUSH2 0x124E SWAP1 PUSH2 0x43BB JUMP JUMPDEST DUP1 PUSH1 0x1F ADD PUSH1 0x20 DUP1 SWAP2 DIV MUL PUSH1 0x20 ADD PUSH1 0x40 MLOAD SWAP1 DUP2 ADD PUSH1 0x40 MSTORE DUP1 SWAP3 SWAP2 SWAP1 DUP2 DUP2 MSTORE PUSH1 0x20 ADD DUP3 DUP1 SLOAD PUSH2 0x127A SWAP1 PUSH2 0x43BB JUMP JUMPDEST DUP1 ISZERO PUSH2 0x12C7 JUMPI DUP1 PUSH1 0x1F LT PUSH2 0x129C JUMPI PUSH2 0x100 DUP1 DUP4 SLOAD DIV MUL DUP4 MSTORE SWAP2 PUSH1 0x20 ADD SWAP2 PUSH2 0x12C7 JUMP JUMPDEST DUP3 ADD SWAP2 SWAP1 PUSH1 0x0 MSTORE PUSH1 0x20 PUSH1 0x0 KECCAK256 SWAP1 JUMPDEST DUP2 SLOAD DUP2 MSTORE SWAP1 PUSH1 0x1 ADD SWAP1 PUSH1 0x20 ADD DUP1 DUP4 GT PUSH2 0x12AA JUMPI DUP3 SWAP1 SUB PUSH1 0x1F AND DUP3 ADD SWAP2 JUMPDEST POP POP POP POP POP DUP2 MSTORE PUSH1 0x20 ADD SWAP1 PUSH1 0x1 ADD SWAP1 PUSH2 0x122F JUMP JUMPDEST POP POP POP POP DUP2 MSTORE POP POP SWAP1 POP DUP2 SWAP5 POP PUSH1 0x0 DUP1 DUP3 PUSH1 0x0 ADD MLOAD DUP2 MSTORE PUSH1 0x20 ADD SWAP1 DUP2 MSTORE PUSH1 0x20 ADD PUSH1 0x0 KECCAK256 DUP1 SLOAD PUSH2 0x1309 SWAP1 PUSH2 0x43BB JUMP JUMPDEST DUP1 PUSH1 0x1F ADD PUSH1 0x20 DUP1 SWAP2 DIV MUL PUSH1 0x20 ADD PUSH1 0x40 MLOAD SWAP1 DUP2 ADD PUSH1 0x40 MSTORE DUP1 SWAP3 SWAP2 SWAP1 DUP2 DUP2 MSTORE PUSH1 0x20 ADD DUP3 DUP1 SLOAD PUSH2 0x1335 SWAP1 PUSH2 0x43BB JUMP JUMPDEST DUP1 ISZERO PUSH2 0x1382 JUMPI DUP1 PUSH1 0x1F LT PUSH2 0x1357 JUMPI PUSH2 0x100 DUP1 DUP4 SLOAD DIV MUL DUP4 MSTORE SWAP2 PUSH1 0x20 ADD SWAP2 PUSH2 0x1382 JUMP JUMPDEST DUP3 ADD SWAP2 SWAP1 PUSH1 0x0 MSTORE PUSH1 0x20 PUSH1 0x0 KECCAK256 SWAP1 JUMPDEST DUP2 SLOAD DUP2 MSTORE SWAP1 PUSH1 0x1 ADD SWAP1 PUSH1 0x20 ADD DUP1 DUP4 GT PUSH2 0x1365 JUMPI DUP3 SWAP1 SUB PUSH1 0x1F AND DUP3 ADD SWAP2 JUMPDEST POP POP POP POP POP SWAP4 POP POP POP POP SWAP2 POP SWAP2 JUMP JUMPDEST PUSH1 0x60 DUP1 PUSH1 0x60 DUP1 PUSH1 0x60 PUSH1 0x1 PUSH1 0x2 PUSH1 0x0 CALLER PUSH20 0xFFFFFFFFFFFFFFFFFFFFFFFFFFFFFFFFFFFFFFFF AND PUSH20 0xFFFFFFFFFFFFFFFFFFFFFFFFFFFFFFFFFFFFFFFF AND DUP2 MSTORE PUSH1 0x20 ADD SWAP1 DUP2 MSTORE PUSH1 0x20 ADD PUSH1 0x0 KECCAK256 PUSH1 0x0 ADD SLOAD DUP2 PUSH1 0x5 DUP2 GT ISZERO PUSH2 0x13F1 JUMPI PUSH2 0x13F0 PUSH2 0x441E JUMP JUMPDEST JUMPDEST EQ PUSH2 0x1431 JUMPI PUSH1 0x40 MLOAD PUSH32 0x8C379A000000000000000000000000000000000000000000000000000000000 DUP2 MSTORE PUSH1 0x4 ADD PUSH2 0x1428 SWAP1 PUSH2 0x413C JUMP JUMPDEST PUSH1 0x40 MLOAD DUP1 SWAP2 SUB SWAP1 REVERT JUMPDEST PUSH1 0x0 PUSH1 0x2 PUSH1 0x0 CALLER PUSH20 0xFFFFFFFFFFFFFFFFFFFFFFFFFFFFFFFFFFFFFFFF AND PUSH20 0xFFFFFFFFFFFFFFFFFFFFFFFFFFFFFFFFFFFFFFFF AND DUP2 MSTORE PUSH1 0x20 ADD SWAP1 DUP2 MSTORE PUSH1 0x20 ADD PUSH1 0x0 KECCAK256 PUSH1 0x40 MLOAD DUP1 PUSH1 0x80 ADD PUSH1 0x40 MSTORE SWAP1 DUP2 PUSH1 0x0 DUP3 ADD SLOAD DUP2 MSTORE PUSH1 0x20 ADD PUSH1 0x1 DUP3 ADD DUP1 SLOAD PUSH2 0x1497 SWAP1 PUSH2 0x43BB JUMP JUMPDEST DUP1 PUSH1 0x1F ADD PUSH1 0x20 DUP1 SWAP2 DIV MUL PUSH1 0x20 ADD PUSH1 0x40 MLOAD SWAP1 DUP2 ADD PUSH1 0x40 MSTORE DUP1 SWAP3 SWAP2 SWAP1 DUP2 DUP2 MSTORE PUSH1 0x20 ADD DUP3 DUP1 SLOAD PUSH2 0x14C3 SWAP1 PUSH2 0x43BB JUMP JUMPDEST DUP1 ISZERO PUSH2 0x1510 JUMPI DUP1 PUSH1 0x1F LT PUSH2 0x14E5 JUMPI PUSH2 0x100 DUP1 DUP4 SLOAD DIV MUL DUP4 MSTORE SWAP2 PUSH1 0x20 ADD SWAP2 PUSH2 0x1510 JUMP JUMPDEST DUP3 ADD SWAP2 SWAP1 PUSH1 0x0 MSTORE PUSH1 0x20 PUSH1 0x0 KECCAK256 SWAP1 JUMPDEST DUP2 SLOAD DUP2 MSTORE SWAP1 PUSH1 0x1 ADD SWAP1 PUSH1 0x20 ADD DUP1 DUP4 GT PUSH2 0x14F3 JUMPI DUP3 SWAP1 SUB PUSH1 0x1F AND DUP3 ADD SWAP2 JUMPDEST POP POP POP POP POP DUP2 MSTORE PUSH1 0x20 ADD PUSH1 0x2 DUP3 ADD DUP1 SLOAD PUSH2 0x1529 SWAP1 PUSH2 0x43BB JUMP JUMPDEST DUP1 PUSH1 0x1F ADD PUSH1 0x20 DUP1 SWAP2 DIV MUL PUSH1 0x20 ADD PUSH1 0x40 MLOAD SWAP1 DUP2 ADD PUSH1 0x40 MSTORE DUP1 SWAP3 SWAP2 SWAP1 DUP2 DUP2 MSTORE PUSH1 0x20 ADD DUP3 DUP1 SLOAD PUSH2 0x1555 SWAP1 PUSH2 0x43BB JUMP JUMPDEST DUP1 ISZERO PUSH2 0x15A2 JUMPI DUP1 PUSH1 0x1F LT PUSH2 0x1577 JUMPI PUSH2 0x100 DUP1 DUP4 SLOAD DIV MUL DUP4 MSTORE SWAP2 PUSH1 0x20 ADD SWAP2 PUSH2 0x15A2 JUMP JUMPDEST DUP3 ADD SWAP2 SWAP1 PUSH1 0x0 MSTORE PUSH1 0x20 PUSH1 0x0 KECCAK256 SWAP1 JUMPDEST DUP2 SLOAD DUP2 MSTORE SWAP1 PUSH1 0x1 ADD SWAP1 PUSH1 0x20 ADD DUP1 DUP4 GT PUSH2 0x1585 JUMPI DUP3 SWAP1 SUB PUSH1 0x1F AND DUP3 ADD SWAP2 JUMPDEST POP POP POP POP POP DUP2 MSTORE PUSH1 0x20 ADD PUSH1 0x3 DUP3 ADD DUP1 SLOAD DUP1 PUSH1 0x20 MUL PUSH1 0x20 ADD PUSH1 0x40 MLOAD SWAP1 DUP2 ADD PUSH1 0x40 MSTORE DUP1 SWAP3 SWAP2 SWAP1 DUP2 DUP2 MSTORE PUSH1 0x20 ADD PUSH1 0x0 SWAP1 JUMPDEST DUP3 DUP3 LT ISZERO PUSH2 0x167C JUMPI DUP4 DUP3 SWAP1 PUSH1 0x0 MSTORE PUSH1 0x20 PUSH1 0x0 KECCAK256 ADD DUP1 SLOAD PUSH2 0x15EF SWAP1 PUSH2 0x43BB JUMP JUMPDEST DUP1 PUSH1 0x1F ADD PUSH1 0x20 DUP1 SWAP2 DIV MUL PUSH1 0x20 ADD PUSH1 0x40 MLOAD SWAP1 DUP2 ADD PUSH1 0x40 MSTORE DUP1 SWAP3 SWAP2 SWAP1 DUP2 DUP2 MSTORE PUSH1 0x20 ADD DUP3 DUP1 SLOAD PUSH2 0x161B SWAP1 PUSH2 0x43BB JUMP JUMPDEST DUP1 ISZERO PUSH2 0x1668 JUMPI DUP1 PUSH1 0x1F LT PUSH2 0x163D JUMPI PUSH2 0x100 DUP1 DUP4 SLOAD DIV MUL DUP4 MSTORE SWAP2 PUSH1 0x20 ADD SWAP2 PUSH2 0x1668 JUMP JUMPDEST DUP3 ADD SWAP2 SWAP1 PUSH1 0x0 MSTORE PUSH1 0x20 PUSH1 0x0 KECCAK256 SWAP1 JUMPDEST DUP2 SLOAD DUP2 MSTORE SWAP1 PUSH1 0x1 ADD SWAP1 PUSH1 0x20 ADD DUP1 DUP4 GT PUSH2 0x164B JUMPI DUP3 SWAP1 SUB PUSH1 0x1F AND DUP3 ADD SWAP2 JUMPDEST POP POP POP POP POP DUP2 MSTORE PUSH1 0x20 ADD SWAP1 PUSH1 0x1 ADD SWAP1 PUSH2 0x15D0 JUMP JUMPDEST POP POP POP POP DUP2 MSTORE POP POP SWAP1 POP PUSH1 0x0 PUSH1 0xC PUSH1 0x0 CALLER PUSH20 0xFFFFFFFFFFFFFFFFFFFFFFFFFFFFFFFFFFFFFFFF AND PUSH20 0xFFFFFFFFFFFFFFFFFFFFFFFFFFFFFFFFFFFFFFFF AND DUP2 MSTORE PUSH1 0x20 ADD SWAP1 DUP2 MSTORE PUSH1 0x20 ADD PUSH1 0x0 KECCAK256 PUSH1 0x0 SWAP1 SLOAD SWAP1 PUSH2 0x100 EXP SWAP1 DIV PUSH20 0xFFFFFFFFFFFFFFFFFFFFFFFFFFFFFFFFFFFFFFFF AND SWAP1 POP PUSH1 0x0 PUSH1 0xB PUSH1 0x0 DUP4 PUSH20 0xFFFFFFFFFFFFFFFFFFFFFFFFFFFFFFFFFFFFFFFF AND PUSH20 0xFFFFFFFFFFFFFFFFFFFFFFFFFFFFFFFFFFFFFFFF AND DUP2 MSTORE PUSH1 0x20 ADD SWAP1 DUP2 MSTORE PUSH1 0x20 ADD PUSH1 0x0 KECCAK256 PUSH1 0x40 MLOAD DUP1 PUSH1 0x60 ADD PUSH1 0x40 MSTORE SWAP1 DUP2 PUSH1 0x0 DUP3 ADD DUP1 SLOAD PUSH2 0x1746 SWAP1 PUSH2 0x43BB JUMP JUMPDEST DUP1 PUSH1 0x1F ADD PUSH1 0x20 DUP1 SWAP2 DIV MUL PUSH1 0x20 ADD PUSH1 0x40 MLOAD SWAP1 DUP2 ADD PUSH1 0x40 MSTORE DUP1 SWAP3 SWAP2 SWAP1 DUP2 DUP2 MSTORE PUSH1 0x20 ADD DUP3 DUP1 SLOAD PUSH2 0x1772 SWAP1 PUSH2 0x43BB JUMP JUMPDEST DUP1 ISZERO PUSH2 0x17BF JUMPI DUP1 PUSH1 0x1F LT PUSH2 0x1794 JUMPI PUSH2 0x100 DUP1 DUP4 SLOAD DIV MUL DUP4 MSTORE SWAP2 PUSH1 0x20 ADD SWAP2 PUSH2 0x17BF JUMP JUMPDEST DUP3 ADD SWAP2 SWAP1 PUSH1 0x0 MSTORE PUSH1 0x20 PUSH1 0x0 KECCAK256 SWAP1 JUMPDEST DUP2 SLOAD DUP2 MSTORE SWAP1 PUSH1 0x1 ADD SWAP1 PUSH1 0x20 ADD DUP1 DUP4 GT PUSH2 0x17A2 JUMPI DUP3 SWAP1 SUB PUSH1 0x1F AND DUP3 ADD SWAP2 JUMPDEST POP POP POP POP POP DUP2 MSTORE PUSH1 0x20 ADD PUSH1 0x1 DUP3 ADD DUP1 SLOAD PUSH2 0x17D8 SWAP1 PUSH2 0x43BB JUMP JUMPDEST DUP1 PUSH1 0x1F ADD PUSH1 0x20 DUP1 SWAP2 DIV MUL PUSH1 0x20 ADD PUSH1 0x40 MLOAD SWAP1 DUP2 ADD PUSH1 0x40 MSTORE DUP1 SWAP3 SWAP2 SWAP1 DUP2 DUP2 MSTORE PUSH1 0x20 ADD DUP3 DUP1 SLOAD PUSH2 0x1804 SWAP1 PUSH2 0x43BB JUMP JUMPDEST DUP1 ISZERO PUSH2 0x1851 JUMPI DUP1 PUSH1 0x1F LT PUSH2 0x1826 JUMPI PUSH2 0x100 DUP1 DUP4 SLOAD DIV MUL DUP4 MSTORE SWAP2 PUSH1 0x20 ADD SWAP2 PUSH2 0x1851 JUMP JUMPDEST DUP3 ADD SWAP2 SWAP1 PUSH1 0x0 MSTORE PUSH1 0x20 PUSH1 0x0 KECCAK256 SWAP1 JUMPDEST DUP2 SLOAD DUP2 MSTORE SWAP1 PUSH1 0x1 ADD SWAP1 PUSH1 0x20 ADD DUP1 DUP4 GT PUSH2 0x1834 JUMPI DUP3 SWAP1 SUB PUSH1 0x1F AND DUP3 ADD SWAP2 JUMPDEST POP POP POP POP POP DUP2 MSTORE PUSH1 0x20 ADD PUSH1 0x2 DUP3 ADD SLOAD DUP2 MSTORE POP POP SWAP1 POP DUP3 PUSH1 0x20 ADD MLOAD SWAP9 POP DUP3 PUSH1 0x40 ADD MLOAD SWAP8 POP DUP1 PUSH1 0x20 ADD MLOAD SWAP7 POP DUP1 PUSH1 0x0 ADD MLOAD SWAP6 POP DUP3 PUSH1 0x60 ADD MLOAD SWAP5 POP POP POP POP POP SWAP1 SWAP2 SWAP3 SWAP4 SWAP5 JUMP JUMPDEST PUSH1 0x3 PUSH1 0x2 PUSH1 0x0 CALLER PUSH20 0xFFFFFFFFFFFFFFFFFFFFFFFFFFFFFFFFFFFFFFFF AND PUSH20 0xFFFFFFFFFFFFFFFFFFFFFFFFFFFFFFFFFFFFFFFF AND DUP2 MSTORE PUSH1 0x20 ADD SWAP1 DUP2 MSTORE PUSH1 0x20 ADD PUSH1 0x0 KECCAK256 PUSH1 0x0 ADD SLOAD DUP2 PUSH1 0x5 DUP2 GT ISZERO PUSH2 0x18EC JUMPI PUSH2 0x18EB PUSH2 0x441E JUMP JUMPDEST JUMPDEST EQ PUSH2 0x192C JUMPI PUSH1 0x40 MLOAD PUSH32 0x8C379A000000000000000000000000000000000000000000000000000000000 DUP2 MSTORE PUSH1 0x4 ADD PUSH2 0x1923 SWAP1 PUSH2 0x413C JUMP JUMPDEST PUSH1 0x40 MLOAD DUP1 SWAP2 SUB SWAP1 REVERT JUMPDEST PUSH1 0x0 PUSH1 0x40 MLOAD DUP1 PUSH1 0x60 ADD PUSH1 0x40 MSTORE DUP1 DUP7 DUP2 MSTORE PUSH1 0x20 ADD DUP6 DUP2 MSTORE PUSH1 0x20 ADD PUSH1 0x0 DUP2 MSTORE POP SWAP1 POP DUP1 PUSH1 0xB PUSH1 0x0 DUP9 PUSH20 0xFFFFFFFFFFFFFFFFFFFFFFFFFFFFFFFFFFFFFFFF AND PUSH20 0xFFFFFFFFFFFFFFFFFFFFFFFFFFFFFFFFFFFFFFFF AND DUP2 MSTORE PUSH1 0x20 ADD SWAP1 DUP2 MSTORE PUSH1 0x20 ADD PUSH1 0x0 KECCAK256 PUSH1 0x0 DUP3 ADD MLOAD DUP2 PUSH1 0x0 ADD SWAP1 DUP1 MLOAD SWAP1 PUSH1 0x20 ADD SWAP1 PUSH2 0x19A8 SWAP3 SWAP2 SWAP1 PUSH2 0x33DE JUMP JUMPDEST POP PUSH1 0x20 DUP3 ADD MLOAD DUP2 PUSH1 0x1 ADD SWAP1 DUP1 MLOAD SWAP1 PUSH1 0x20 ADD SWAP1 PUSH2 0x19C5 SWAP3 SWAP2 SWAP1 PUSH2 0x33DE JUMP JUMPDEST POP PUSH1 0x40 DUP3 ADD MLOAD DUP2 PUSH1 0x2 ADD SSTORE SWAP1 POP POP PUSH1 0x0 PUSH1 0x2 PUSH1 0x5 DUP2 GT ISZERO PUSH2 0x19E9 JUMPI PUSH2 0x19E8 PUSH2 0x441E JUMP JUMPDEST JUMPDEST SWAP1 POP PUSH2 0x1A06 PUSH1 0x40 MLOAD DUP1 PUSH1 0x20 ADD PUSH1 0x40 MSTORE DUP1 PUSH1 0x0 DUP2 MSTORE POP DUP6 DUP4 DUP11 PUSH2 0x3081 JUMP JUMPDEST POP POP POP POP POP POP POP JUMP JUMPDEST PUSH2 0x1AF2 PUSH1 0x2 PUSH1 0x0 CALLER PUSH20 0xFFFFFFFFFFFFFFFFFFFFFFFFFFFFFFFFFFFFFFFF AND PUSH20 0xFFFFFFFFFFFFFFFFFFFFFFFFFFFFFFFFFFFFFFFF AND DUP2 MSTORE PUSH1 0x20 ADD SWAP1 DUP2 MSTORE PUSH1 0x20 ADD PUSH1 0x0 KECCAK256 PUSH1 0x1 ADD DUP1 SLOAD PUSH2 0x1A5F SWAP1 PUSH2 0x43BB JUMP JUMPDEST DUP1 PUSH1 0x1F ADD PUSH1 0x20 DUP1 SWAP2 DIV MUL PUSH1 0x20 ADD PUSH1 0x40 MLOAD SWAP1 DUP2 ADD PUSH1 0x40 MSTORE DUP1 SWAP3 SWAP2 SWAP1 DUP2 DUP2 MSTORE PUSH1 0x20 ADD DUP3 DUP1 SLOAD PUSH2 0x1A8B SWAP1 PUSH2 0x43BB JUMP JUMPDEST DUP1 ISZERO PUSH2 0x1AD8 JUMPI DUP1 PUSH1 0x1F LT PUSH2 0x1AAD JUMPI PUSH2 0x100 DUP1 DUP4 SLOAD DIV MUL DUP4 MSTORE SWAP2 PUSH1 0x20 ADD SWAP2 PUSH2 0x1AD8 JUMP JUMPDEST DUP3 ADD SWAP2 SWAP1 PUSH1 0x0 MSTORE PUSH1 0x20 PUSH1 0x0 KECCAK256 SWAP1 JUMPDEST DUP2 SLOAD DUP2 MSTORE SWAP1 PUSH1 0x1 ADD SWAP1 PUSH1 0x20 ADD DUP1 DUP4 GT PUSH2 0x1ABB JUMPI DUP3 SWAP1 SUB PUSH1 0x1F AND DUP3 ADD SWAP2 JUMPDEST POP POP POP POP POP PUSH1 0x40 MLOAD DUP1 PUSH1 0x20 ADD PUSH1 0x40 MSTORE DUP1 PUSH1 0x0 DUP2 MSTORE POP PUSH2 0x3385 JUMP JUMPDEST ISZERO PUSH2 0x1B32 JUMPI PUSH1 0x40 MLOAD PUSH32 0x8C379A000000000000000000000000000000000000000000000000000000000 DUP2 MSTORE PUSH1 0x4 ADD PUSH2 0x1B29 SWAP1 PUSH2 0x415C JUMP JUMPDEST PUSH1 0x40 MLOAD DUP1 SWAP2 SUB SWAP1 REVERT JUMPDEST PUSH1 0x0 ISZERO ISZERO PUSH1 0x10 DUP3 PUSH1 0x40 MLOAD PUSH2 0x1B46 SWAP2 SWAP1 PUSH2 0x3EFC JUMP JUMPDEST SWAP1 DUP2 MSTORE PUSH1 0x20 ADD PUSH1 0x40 MLOAD DUP1 SWAP2 SUB SWAP1 KECCAK256 PUSH1 0x0 CALLER PUSH20 0xFFFFFFFFFFFFFFFFFFFFFFFFFFFFFFFFFFFFFFFF AND PUSH20 0xFFFFFFFFFFFFFFFFFFFFFFFFFFFFFFFFFFFFFFFF AND DUP2 MSTORE PUSH1 0x20 ADD SWAP1 DUP2 MSTORE PUSH1 0x20 ADD PUSH1 0x0 KECCAK256 PUSH1 0x0 SWAP1 SLOAD SWAP1 PUSH2 0x100 EXP SWAP1 DIV PUSH1 0xFF AND ISZERO ISZERO EQ PUSH2 0x1BE1 JUMPI PUSH1 0x40 MLOAD PUSH32 0x8C379A000000000000000000000000000000000000000000000000000000000 DUP2 MSTORE PUSH1 0x4 ADD PUSH2 0x1BD8 SWAP1 PUSH2 0x40DC JUMP JUMPDEST PUSH1 0x40 MLOAD DUP1 SWAP2 SUB SWAP1 REVERT JUMPDEST PUSH1 0xF DUP2 PUSH1 0x40 MLOAD PUSH2 0x1BF1 SWAP2 SWAP1 PUSH2 0x3EFC JUMP JUMPDEST SWAP1 DUP2 MSTORE PUSH1 0x20 ADD PUSH1 0x40 MLOAD DUP1 SWAP2 SUB SWAP1 KECCAK256 PUSH1 0x3 ADD CALLER SWAP1 DUP1 PUSH1 0x1 DUP2 SLOAD ADD DUP1 DUP3 SSTORE DUP1 SWAP2 POP POP PUSH1 0x1 SWAP1 SUB SWAP1 PUSH1 0x0 MSTORE PUSH1 0x20 PUSH1 0x0 KECCAK256 ADD PUSH1 0x0 SWAP1 SWAP2 SWAP1 SWAP2 SWAP1 SWAP2 PUSH2 0x100 EXP DUP2 SLOAD DUP2 PUSH20 0xFFFFFFFFFFFFFFFFFFFFFFFFFFFFFFFFFFFFFFFF MUL NOT AND SWAP1 DUP4 PUSH20 0xFFFFFFFFFFFFFFFFFFFFFFFFFFFFFFFFFFFFFFFF AND MUL OR SWAP1 SSTORE POP PUSH1 0x1 PUSH1 0x10 DUP3 PUSH1 0x40 MLOAD PUSH2 0x1C75 SWAP2 SWAP1 PUSH2 0x3EFC JUMP JUMPDEST SWAP1 DUP2 MSTORE PUSH1 0x20 ADD PUSH1 0x40 MLOAD DUP1 SWAP2 SUB SWAP1 KECCAK256 PUSH1 0x0 CALLER PUSH20 0xFFFFFFFFFFFFFFFFFFFFFFFFFFFFFFFFFFFFFFFF AND PUSH20 0xFFFFFFFFFFFFFFFFFFFFFFFFFFFFFFFFFFFFFFFF AND DUP2 MSTORE PUSH1 0x20 ADD SWAP1 DUP2 MSTORE PUSH1 0x20 ADD PUSH1 0x0 KECCAK256 PUSH1 0x0 PUSH2 0x100 EXP DUP2 SLOAD DUP2 PUSH1 0xFF MUL NOT AND SWAP1 DUP4 ISZERO ISZERO MUL OR SWAP1 SSTORE POP POP JUMP JUMPDEST PUSH1 0x5 PUSH1 0x0 SWAP1 SLOAD SWAP1 PUSH2 0x100 EXP SWAP1 DIV PUSH20 0xFFFFFFFFFFFFFFFFFFFFFFFFFFFFFFFFFFFFFFFF AND PUSH20 0xFFFFFFFFFFFFFFFFFFFFFFFFFFFFFFFFFFFFFFFF AND CALLER PUSH20 0xFFFFFFFFFFFFFFFFFFFFFFFFFFFFFFFFFFFFFFFF AND EQ PUSH2 0x1D6A JUMPI PUSH1 0x40 MLOAD PUSH32 0x8C379A000000000000000000000000000000000000000000000000000000000 DUP2 MSTORE PUSH1 0x4 ADD PUSH2 0x1D61 SWAP1 PUSH2 0x417C JUMP JUMPDEST PUSH1 0x40 MLOAD DUP1 SWAP2 SUB SWAP1 REVERT JUMPDEST PUSH1 0x0 PUSH1 0x4 PUSH1 0x5 DUP2 GT ISZERO PUSH2 0x1D80 JUMPI PUSH2 0x1D7F PUSH2 0x441E JUMP JUMPDEST JUMPDEST SWAP1 POP PUSH2 0x1D9D PUSH1 0x40 MLOAD DUP1 PUSH1 0x20 ADD PUSH1 0x40 MSTORE DUP1 PUSH1 0x0 DUP2 MSTORE POP DUP5 DUP4 DUP6 PUSH2 0x3081 JUMP JUMPDEST DUP2 PUSH1 0x4 PUSH1 0x0 PUSH2 0x100 EXP DUP2 SLOAD DUP2 PUSH20 0xFFFFFFFFFFFFFFFFFFFFFFFFFFFFFFFFFFFFFFFF MUL NOT AND SWAP1 DUP4 PUSH20 0xFFFFFFFFFFFFFFFFFFFFFFFFFFFFFFFFFFFFFFFF AND MUL OR SWAP1 SSTORE POP POP POP POP JUMP JUMPDEST PUSH1 0x5 PUSH1 0x2 PUSH1 0x0 CALLER PUSH20 0xFFFFFFFFFFFFFFFFFFFFFFFFFFFFFFFFFFFFFFFF AND PUSH20 0xFFFFFFFFFFFFFFFFFFFFFFFFFFFFFFFFFFFFFFFF AND DUP2 MSTORE PUSH1 0x20 ADD SWAP1 DUP2 MSTORE PUSH1 0x20 ADD PUSH1 0x0 KECCAK256 PUSH1 0x0 ADD SLOAD DUP2 PUSH1 0x5 DUP2 GT ISZERO PUSH2 0x1E3B JUMPI PUSH2 0x1E3A PUSH2 0x441E JUMP JUMPDEST JUMPDEST EQ PUSH2 0x1E7B JUMPI PUSH1 0x40 MLOAD PUSH32 0x8C379A000000000000000000000000000000000000000000000000000000000 DUP2 MSTORE PUSH1 0x4 ADD PUSH2 0x1E72 SWAP1 PUSH2 0x413C JUMP JUMPDEST PUSH1 0x40 MLOAD DUP1 SWAP2 SUB SWAP1 REVERT JUMPDEST PUSH9 0x3635C9ADC5DEA00000 CALLER PUSH20 0xFFFFFFFFFFFFFFFFFFFFFFFFFFFFFFFFFFFFFFFF AND BALANCE LT ISZERO PUSH2 0x1EDE JUMPI PUSH1 0x40 MLOAD PUSH32 0x8C379A000000000000000000000000000000000000000000000000000000000 DUP2 MSTORE PUSH1 0x4 ADD PUSH2 0x1ED5 SWAP1 PUSH2 0x411C JUMP JUMPDEST PUSH1 0x40 MLOAD DUP1 SWAP2 SUB SWAP1 REVERT JUMPDEST DUP2 PUSH20 0xFFFFFFFFFFFFFFFFFFFFFFFFFFFFFFFFFFFFFFFF AND PUSH2 0x8FC PUSH9 0x3635C9ADC5DEA00000 SWAP1 DUP2 ISZERO MUL SWAP1 PUSH1 0x40 MLOAD PUSH1 0x0 PUSH1 0x40 MLOAD DUP1 DUP4 SUB DUP2 DUP6 DUP9 DUP9 CALL SWAP4 POP POP POP POP ISZERO DUP1 ISZERO PUSH2 0x1F2D JUMPI RETURNDATASIZE PUSH1 0x0 DUP1 RETURNDATACOPY RETURNDATASIZE PUSH1 0x0 REVERT JUMPDEST POP POP POP JUMP JUMPDEST PUSH1 0x0 PUSH1 0x1 PUSH1 0x5 DUP2 GT ISZERO PUSH2 0x1F48 JUMPI PUSH2 0x1F47 PUSH2 0x441E JUMP JUMPDEST JUMPDEST SWAP1 POP PUSH2 0x1F56 DUP6 DUP6 DUP4 DUP7 PUSH2 0x3081 JUMP JUMPDEST PUSH1 0x8 DUP4 SWAP1 DUP1 PUSH1 0x1 DUP2 SLOAD ADD DUP1 DUP3 SSTORE DUP1 SWAP2 POP POP PUSH1 0x1 SWAP1 SUB SWAP1 PUSH1 0x0 MSTORE PUSH1 0x20 PUSH1 0x0 KECCAK256 ADD PUSH1 0x0 SWAP1 SWAP2 SWAP1 SWAP2 SWAP1 SWAP2 PUSH2 0x100 EXP DUP2 SLOAD DUP2 PUSH20 0xFFFFFFFFFFFFFFFFFFFFFFFFFFFFFFFFFFFFFFFF MUL NOT AND SWAP1 DUP4 PUSH20 0xFFFFFFFFFFFFFFFFFFFFFFFFFFFFFFFFFFFFFFFF AND MUL OR SWAP1 SSTORE POP PUSH1 0xD PUSH1 0x0 DUP4 PUSH20 0xFFFFFFFFFFFFFFFFFFFFFFFFFFFFFFFFFFFFFFFF AND PUSH20 0xFFFFFFFFFFFFFFFFFFFFFFFFFFFFFFFFFFFFFFFF AND DUP2 MSTORE PUSH1 0x20 ADD SWAP1 DUP2 MSTORE PUSH1 0x20 ADD PUSH1 0x0 KECCAK256 DUP4 SWAP1 DUP1 PUSH1 0x1 DUP2 SLOAD ADD DUP1 DUP3 SSTORE DUP1 SWAP2 POP POP PUSH1 0x1 SWAP1 SUB SWAP1 PUSH1 0x0 MSTORE PUSH1 0x20 PUSH1 0x0 KECCAK256 ADD PUSH1 0x0 SWAP1 SWAP2 SWAP1 SWAP2 SWAP1 SWAP2 PUSH2 0x100 EXP DUP2 SLOAD DUP2 PUSH20 0xFFFFFFFFFFFFFFFFFFFFFFFFFFFFFFFFFFFFFFFF MUL NOT AND SWAP1 DUP4 PUSH20 0xFFFFFFFFFFFFFFFFFFFFFFFFFFFFFFFFFFFFFFFF AND MUL OR SWAP1 SSTORE POP POP POP POP POP POP JUMP JUMPDEST PUSH1 0x1 PUSH1 0x2 PUSH1 0x0 CALLER PUSH20 0xFFFFFFFFFFFFFFFFFFFFFFFFFFFFFFFFFFFFFFFF AND PUSH20 0xFFFFFFFFFFFFFFFFFFFFFFFFFFFFFFFFFFFFFFFF AND DUP2 MSTORE PUSH1 0x20 ADD SWAP1 DUP2 MSTORE PUSH1 0x20 ADD PUSH1 0x0 KECCAK256 PUSH1 0x0 ADD SLOAD DUP2 PUSH1 0x5 DUP2 GT ISZERO PUSH2 0x20B8 JUMPI PUSH2 0x20B7 PUSH2 0x441E JUMP JUMPDEST JUMPDEST EQ PUSH2 0x20F8 JUMPI PUSH1 0x40 MLOAD PUSH32 0x8C379A000000000000000000000000000000000000000000000000000000000 DUP2 MSTORE PUSH1 0x4 ADD PUSH2 0x20EF SWAP1 PUSH2 0x413C JUMP JUMPDEST PUSH1 0x40 MLOAD DUP1 SWAP2 SUB SWAP1 REVERT JUMPDEST POP JUMP JUMPDEST PUSH1 0x60 DUP1 PUSH1 0x0 PUSH1 0x60 PUSH2 0x21E5 PUSH1 0x2 PUSH1 0x0 CALLER PUSH20 0xFFFFFFFFFFFFFFFFFFFFFFFFFFFFFFFFFFFFFFFF AND PUSH20 0xFFFFFFFFFFFFFFFFFFFFFFFFFFFFFFFFFFFFFFFF AND DUP2 MSTORE PUSH1 0x20 ADD SWAP1 DUP2 MSTORE PUSH1 0x20 ADD PUSH1 0x0 KECCAK256 PUSH1 0x1 ADD DUP1 SLOAD PUSH2 0x2152 SWAP1 PUSH2 0x43BB JUMP JUMPDEST DUP1 PUSH1 0x1F ADD PUSH1 0x20 DUP1 SWAP2 DIV MUL PUSH1 0x20 ADD PUSH1 0x40 MLOAD SWAP1 DUP2 ADD PUSH1 0x40 MSTORE DUP1 SWAP3 SWAP2 SWAP1 DUP2 DUP2 MSTORE PUSH1 0x20 ADD DUP3 DUP1 SLOAD PUSH2 0x217E SWAP1 PUSH2 0x43BB JUMP JUMPDEST DUP1 ISZERO PUSH2 0x21CB JUMPI DUP1 PUSH1 0x1F LT PUSH2 0x21A0 JUMPI PUSH2 0x100 DUP1 DUP4 SLOAD DIV MUL DUP4 MSTORE SWAP2 PUSH1 0x20 ADD SWAP2 PUSH2 0x21CB JUMP JUMPDEST DUP3 ADD SWAP2 SWAP1 PUSH1 0x0 MSTORE PUSH1 0x20 PUSH1 0x0 KECCAK256 SWAP1 JUMPDEST DUP2 SLOAD DUP2 MSTORE SWAP1 PUSH1 0x1 ADD SWAP1 PUSH1 0x20 ADD DUP1 DUP4 GT PUSH2 0x21AE JUMPI DUP3 SWAP1 SUB PUSH1 0x1F AND DUP3 ADD SWAP2 JUMPDEST POP POP POP POP POP PUSH1 0x40 MLOAD DUP1 PUSH1 0x20 ADD PUSH1 0x40 MSTORE DUP1 PUSH1 0x0 DUP2 MSTORE POP PUSH2 0x3385 JUMP JUMPDEST ISZERO PUSH2 0x2225 JUMPI PUSH1 0x40 MLOAD PUSH32 0x8C379A000000000000000000000000000000000000000000000000000000000 DUP2 MSTORE PUSH1 0x4 ADD PUSH2 0x221C SWAP1 PUSH2 0x415C JUMP JUMPDEST PUSH1 0x40 MLOAD DUP1 SWAP2 SUB SWAP1 REVERT JUMPDEST PUSH1 0x0 PUSH1 0x2 PUSH1 0x0 CALLER PUSH20 0xFFFFFFFFFFFFFFFFFFFFFFFFFFFFFFFFFFFFFFFF AND PUSH20 0xFFFFFFFFFFFFFFFFFFFFFFFFFFFFFFFFFFFFFFFF AND DUP2 MSTORE PUSH1 0x20 ADD SWAP1 DUP2 MSTORE PUSH1 0x20 ADD PUSH1 0x0 KECCAK256 PUSH1 0x40 MLOAD DUP1 PUSH1 0x80 ADD PUSH1 0x40 MSTORE SWAP1 DUP2 PUSH1 0x0 DUP3 ADD SLOAD DUP2 MSTORE PUSH1 0x20 ADD PUSH1 0x1 DUP3 ADD DUP1 SLOAD PUSH2 0x228B SWAP1 PUSH2 0x43BB JUMP JUMPDEST DUP1 PUSH1 0x1F ADD PUSH1 0x20 DUP1 SWAP2 DIV MUL PUSH1 0x20 ADD PUSH1 0x40 MLOAD SWAP1 DUP2 ADD PUSH1 0x40 MSTORE DUP1 SWAP3 SWAP2 SWAP1 DUP2 DUP2 MSTORE PUSH1 0x20 ADD DUP3 DUP1 SLOAD PUSH2 0x22B7 SWAP1 PUSH2 0x43BB JUMP JUMPDEST DUP1 ISZERO PUSH2 0x2304 JUMPI DUP1 PUSH1 0x1F LT PUSH2 0x22D9 JUMPI PUSH2 0x100 DUP1 DUP4 SLOAD DIV MUL DUP4 MSTORE SWAP2 PUSH1 0x20 ADD SWAP2 PUSH2 0x2304 JUMP JUMPDEST DUP3 ADD SWAP2 SWAP1 PUSH1 0x0 MSTORE PUSH1 0x20 PUSH1 0x0 KECCAK256 SWAP1 JUMPDEST DUP2 SLOAD DUP2 MSTORE SWAP1 PUSH1 0x1 ADD SWAP1 PUSH1 0x20 ADD DUP1 DUP4 GT PUSH2 0x22E7 JUMPI DUP3 SWAP1 SUB PUSH1 0x1F AND DUP3 ADD SWAP2 JUMPDEST POP POP POP POP POP DUP2 MSTORE PUSH1 0x20 ADD PUSH1 0x2 DUP3 ADD DUP1 SLOAD PUSH2 0x231D SWAP1 PUSH2 0x43BB JUMP JUMPDEST DUP1 PUSH1 0x1F ADD PUSH1 0x20 DUP1 SWAP2 DIV MUL PUSH1 0x20 ADD PUSH1 0x40 MLOAD SWAP1 DUP2 ADD PUSH1 0x40 MSTORE DUP1 SWAP3 SWAP2 SWAP1 DUP2 DUP2 MSTORE PUSH1 0x20 ADD DUP3 DUP1 SLOAD PUSH2 0x2349 SWAP1 PUSH2 0x43BB JUMP JUMPDEST DUP1 ISZERO PUSH2 0x2396 JUMPI DUP1 PUSH1 0x1F LT PUSH2 0x236B JUMPI PUSH2 0x100 DUP1 DUP4 SLOAD DIV MUL DUP4 MSTORE SWAP2 PUSH1 0x20 ADD SWAP2 PUSH2 0x2396 JUMP JUMPDEST DUP3 ADD SWAP2 SWAP1 PUSH1 0x0 MSTORE PUSH1 0x20 PUSH1 0x0 KECCAK256 SWAP1 JUMPDEST DUP2 SLOAD DUP2 MSTORE SWAP1 PUSH1 0x1 ADD SWAP1 PUSH1 0x20 ADD DUP1 DUP4 GT PUSH2 0x2379 JUMPI DUP3 SWAP1 SUB PUSH1 0x1F AND DUP3 ADD SWAP2 JUMPDEST POP POP POP POP POP DUP2 MSTORE PUSH1 0x20 ADD PUSH1 0x3 DUP3 ADD DUP1 SLOAD DUP1 PUSH1 0x20 MUL PUSH1 0x20 ADD PUSH1 0x40 MLOAD SWAP1 DUP2 ADD PUSH1 0x40 MSTORE DUP1 SWAP3 SWAP2 SWAP1 DUP2 DUP2 MSTORE PUSH1 0x20 ADD PUSH1 0x0 SWAP1 JUMPDEST DUP3 DUP3 LT ISZERO PUSH2 0x2470 JUMPI DUP4 DUP3 SWAP1 PUSH1 0x0 MSTORE PUSH1 0x20 PUSH1 0x0 KECCAK256 ADD DUP1 SLOAD PUSH2 0x23E3 SWAP1 PUSH2 0x43BB JUMP JUMPDEST DUP1 PUSH1 0x1F ADD PUSH1 0x20 DUP1 SWAP2 DIV MUL PUSH1 0x20 ADD PUSH1 0x40 MLOAD SWAP1 DUP2 ADD PUSH1 0x40 MSTORE DUP1 SWAP3 SWAP2 SWAP1 DUP2 DUP2 MSTORE PUSH1 0x20 ADD DUP3 DUP1 SLOAD PUSH2 0x240F SWAP1 PUSH2 0x43BB JUMP JUMPDEST DUP1 ISZERO PUSH2 0x245C JUMPI DUP1 PUSH1 0x1F LT PUSH2 0x2431 JUMPI PUSH2 0x100 DUP1 DUP4 SLOAD DIV MUL DUP4 MSTORE SWAP2 PUSH1 0x20 ADD SWAP2 PUSH2 0x245C JUMP JUMPDEST DUP3 ADD SWAP2 SWAP1 PUSH1 0x0 MSTORE PUSH1 0x20 PUSH1 0x0 KECCAK256 SWAP1 JUMPDEST DUP2 SLOAD DUP2 MSTORE SWAP1 PUSH1 0x1 ADD SWAP1 PUSH1 0x20 ADD DUP1 DUP4 GT PUSH2 0x243F JUMPI DUP3 SWAP1 SUB PUSH1 0x1F AND DUP3 ADD SWAP2 JUMPDEST POP POP POP POP POP DUP2 MSTORE PUSH1 0x20 ADD SWAP1 PUSH1 0x1 ADD SWAP1 PUSH2 0x23C4 JUMP JUMPDEST POP POP POP POP DUP2 MSTORE POP POP SWAP1 POP DUP1 PUSH1 0x20 ADD MLOAD SWAP5 POP DUP1 PUSH1 0x40 ADD MLOAD SWAP4 POP CALLER PUSH20 0xFFFFFFFFFFFFFFFFFFFFFFFFFFFFFFFFFFFFFFFF AND BALANCE SWAP3 POP DUP1 PUSH1 0x60 ADD MLOAD SWAP2 POP POP SWAP1 SWAP2 SWAP3 SWAP4 JUMP JUMPDEST PUSH1 0x0 DUP1 PUSH1 0x5 DUP2 GT ISZERO PUSH2 0x24C5 JUMPI PUSH2 0x24C4 PUSH2 0x441E JUMP JUMPDEST JUMPDEST SWAP1 POP PUSH2 0x24D3 DUP5 DUP5 DUP4 DUP6 PUSH2 0x3081 JUMP JUMPDEST POP POP POP POP JUMP JUMPDEST PUSH1 0x3 PUSH1 0x2 PUSH1 0x0 CALLER PUSH20 0xFFFFFFFFFFFFFFFFFFFFFFFFFFFFFFFFFFFFFFFF AND PUSH20 0xFFFFFFFFFFFFFFFFFFFFFFFFFFFFFFFFFFFFFFFF AND DUP2 MSTORE PUSH1 0x20 ADD SWAP1 DUP2 MSTORE PUSH1 0x20 ADD PUSH1 0x0 KECCAK256 PUSH1 0x0 ADD SLOAD DUP2 PUSH1 0x5 DUP2 GT ISZERO PUSH2 0x2531 JUMPI PUSH2 0x2530 PUSH2 0x441E JUMP JUMPDEST JUMPDEST EQ PUSH2 0x2571 JUMPI PUSH1 0x40 MLOAD PUSH32 0x8C379A000000000000000000000000000000000000000000000000000000000 DUP2 MSTORE PUSH1 0x4 ADD PUSH2 0x2568 SWAP1 PUSH2 0x413C JUMP JUMPDEST PUSH1 0x40 MLOAD DUP1 SWAP2 SUB SWAP1 REVERT JUMPDEST PUSH1 0x0 PUSH1 0x3 PUSH1 0x5 DUP2 GT ISZERO PUSH2 0x2587 JUMPI PUSH2 0x2586 PUSH2 0x441E JUMP JUMPDEST JUMPDEST SWAP1 POP PUSH2 0x2595 DUP5 DUP5 DUP4 DUP9 PUSH2 0x3081 JUMP JUMPDEST PUSH1 0x6 DUP4 SWAP1 DUP1 PUSH1 0x1 DUP2 SLOAD ADD DUP1 DUP3 SSTORE DUP1 SWAP2 POP POP PUSH1 0x1 SWAP1 SUB SWAP1 PUSH1 0x0 MSTORE PUSH1 0x20 PUSH1 0x0 KECCAK256 ADD PUSH1 0x0 SWAP1 SWAP2 SWAP1 SWAP2 SWAP1 SWAP2 POP SWAP1 DUP1 MLOAD SWAP1 PUSH1 0x20 ADD SWAP1 PUSH2 0x25D0 SWAP3 SWAP2 SWAP1 PUSH2 0x33DE JUMP JUMPDEST POP POP POP POP POP POP JUMP JUMPDEST PUSH2 0x26BB PUSH1 0x2 PUSH1 0x0 CALLER PUSH20 0xFFFFFFFFFFFFFFFFFFFFFFFFFFFFFFFFFFFFFFFF AND PUSH20 0xFFFFFFFFFFFFFFFFFFFFFFFFFFFFFFFFFFFFFFFF AND DUP2 MSTORE PUSH1 0x20 ADD SWAP1 DUP2 MSTORE PUSH1 0x20 ADD PUSH1 0x0 KECCAK256 PUSH1 0x1 ADD DUP1 SLOAD PUSH2 0x2628 SWAP1 PUSH2 0x43BB JUMP JUMPDEST DUP1 PUSH1 0x1F ADD PUSH1 0x20 DUP1 SWAP2 DIV MUL PUSH1 0x20 ADD PUSH1 0x40 MLOAD SWAP1 DUP2 ADD PUSH1 0x40 MSTORE DUP1 SWAP3 SWAP2 SWAP1 DUP2 DUP2 MSTORE PUSH1 0x20 ADD DUP3 DUP1 SLOAD PUSH2 0x2654 SWAP1 PUSH2 0x43BB JUMP JUMPDEST DUP1 ISZERO PUSH2 0x26A1 JUMPI DUP1 PUSH1 0x1F LT PUSH2 0x2676 JUMPI PUSH2 0x100 DUP1 DUP4 SLOAD DIV MUL DUP4 MSTORE SWAP2 PUSH1 0x20 ADD SWAP2 PUSH2 0x26A1 JUMP JUMPDEST DUP3 ADD SWAP2 SWAP1 PUSH1 0x0 MSTORE PUSH1 0x20 PUSH1 0x0 KECCAK256 SWAP1 JUMPDEST DUP2 SLOAD DUP2 MSTORE SWAP1 PUSH1 0x1 ADD SWAP1 PUSH1 0x20 ADD DUP1 DUP4 GT PUSH2 0x2684 JUMPI DUP3 SWAP1 SUB PUSH1 0x1F AND DUP3 ADD SWAP2 JUMPDEST POP POP POP POP POP PUSH1 0x40 MLOAD DUP1 PUSH1 0x20 ADD PUSH1 0x40 MSTORE DUP1 PUSH1 0x0 DUP2 MSTORE POP PUSH2 0x3385 JUMP JUMPDEST ISZERO PUSH2 0x26FB JUMPI PUSH1 0x40 MLOAD PUSH32 0x8C379A000000000000000000000000000000000000000000000000000000000 DUP2 MSTORE PUSH1 0x4 ADD PUSH2 0x26F2 SWAP1 PUSH2 0x415C JUMP JUMPDEST PUSH1 0x40 MLOAD DUP1 SWAP2 SUB SWAP1 REVERT JUMPDEST PUSH1 0x0 ISZERO ISZERO PUSH1 0x10 DUP3 PUSH1 0x40 MLOAD PUSH2 0x270F SWAP2 SWAP1 PUSH2 0x3EFC JUMP JUMPDEST SWAP1 DUP2 MSTORE PUSH1 0x20 ADD PUSH1 0x40 MLOAD DUP1 SWAP2 SUB SWAP1 KECCAK256 PUSH1 0x0 CALLER PUSH20 0xFFFFFFFFFFFFFFFFFFFFFFFFFFFFFFFFFFFFFFFF AND PUSH20 0xFFFFFFFFFFFFFFFFFFFFFFFFFFFFFFFFFFFFFFFF AND DUP2 MSTORE PUSH1 0x20 ADD SWAP1 DUP2 MSTORE PUSH1 0x20 ADD PUSH1 0x0 KECCAK256 PUSH1 0x0 SWAP1 SLOAD SWAP1 PUSH2 0x100 EXP SWAP1 DIV PUSH1 0xFF AND ISZERO ISZERO EQ PUSH2 0x27AA JUMPI PUSH1 0x40 MLOAD PUSH32 0x8C379A000000000000000000000000000000000000000000000000000000000 DUP2 MSTORE PUSH1 0x4 ADD PUSH2 0x27A1 SWAP1 PUSH2 0x40DC JUMP JUMPDEST PUSH1 0x40 MLOAD DUP1 SWAP2 SUB SWAP1 REVERT JUMPDEST PUSH1 0xF DUP2 PUSH1 0x40 MLOAD PUSH2 0x27BA SWAP2 SWAP1 PUSH2 0x3EFC JUMP JUMPDEST SWAP1 DUP2 MSTORE PUSH1 0x20 ADD PUSH1 0x40 MLOAD DUP1 SWAP2 SUB SWAP1 KECCAK256 PUSH1 0x4 ADD CALLER SWAP1 DUP1 PUSH1 0x1 DUP2 SLOAD ADD DUP1 DUP3 SSTORE DUP1 SWAP2 POP POP PUSH1 0x1 SWAP1 SUB SWAP1 PUSH1 0x0 MSTORE PUSH1 0x20 PUSH1 0x0 KECCAK256 ADD PUSH1 0x0 SWAP1 SWAP2 SWAP1 SWAP2 SWAP1 SWAP2 PUSH2 0x100 EXP DUP2 SLOAD DUP2 PUSH20 0xFFFFFFFFFFFFFFFFFFFFFFFFFFFFFFFFFFFFFFFF MUL NOT AND SWAP1 DUP4 PUSH20 0xFFFFFFFFFFFFFFFFFFFFFFFFFFFFFFFFFFFFFFFF AND MUL OR SWAP1 SSTORE POP PUSH1 0x1 PUSH1 0x10 DUP3 PUSH1 0x40 MLOAD PUSH2 0x283E SWAP2 SWAP1 PUSH2 0x3EFC JUMP JUMPDEST SWAP1 DUP2 MSTORE PUSH1 0x20 ADD PUSH1 0x40 MLOAD DUP1 SWAP2 SUB SWAP1 KECCAK256 PUSH1 0x0 CALLER PUSH20 0xFFFFFFFFFFFFFFFFFFFFFFFFFFFFFFFFFFFFFFFF AND PUSH20 0xFFFFFFFFFFFFFFFFFFFFFFFFFFFFFFFFFFFFFFFF AND DUP2 MSTORE PUSH1 0x20 ADD SWAP1 DUP2 MSTORE PUSH1 0x20 ADD PUSH1 0x0 KECCAK256 PUSH1 0x0 PUSH2 0x100 EXP DUP2 SLOAD DUP2 PUSH1 0xFF MUL NOT AND SWAP1 DUP4 ISZERO ISZERO MUL OR SWAP1 SSTORE POP POP JUMP JUMPDEST PUSH1 0x60 DUP1 PUSH1 0x60 DUP1 PUSH1 0x3 PUSH1 0x2 PUSH1 0x0 CALLER PUSH20 0xFFFFFFFFFFFFFFFFFFFFFFFFFFFFFFFFFFFFFFFF AND PUSH20 0xFFFFFFFFFFFFFFFFFFFFFFFFFFFFFFFFFFFFFFFF AND DUP2 MSTORE PUSH1 0x20 ADD SWAP1 DUP2 MSTORE PUSH1 0x20 ADD PUSH1 0x0 KECCAK256 PUSH1 0x0 ADD SLOAD DUP2 PUSH1 0x5 DUP2 GT ISZERO PUSH2 0x2901 JUMPI PUSH2 0x2900 PUSH2 0x441E JUMP JUMPDEST JUMPDEST EQ PUSH2 0x2941 JUMPI PUSH1 0x40 MLOAD PUSH32 0x8C379A000000000000000000000000000000000000000000000000000000000 DUP2 MSTORE PUSH1 0x4 ADD PUSH2 0x2938 SWAP1 PUSH2 0x413C JUMP JUMPDEST PUSH1 0x40 MLOAD DUP1 SWAP2 SUB SWAP1 REVERT JUMPDEST PUSH1 0x0 PUSH1 0x2 PUSH1 0x0 CALLER PUSH20 0xFFFFFFFFFFFFFFFFFFFFFFFFFFFFFFFFFFFFFFFF AND PUSH20 0xFFFFFFFFFFFFFFFFFFFFFFFFFFFFFFFFFFFFFFFF AND DUP2 MSTORE PUSH1 0x20 ADD SWAP1 DUP2 MSTORE PUSH1 0x20 ADD PUSH1 0x0 KECCAK256 PUSH1 0x40 MLOAD DUP1 PUSH1 0x80 ADD PUSH1 0x40 MSTORE SWAP1 DUP2 PUSH1 0x0 DUP3 ADD SLOAD DUP2 MSTORE PUSH1 0x20 ADD PUSH1 0x1 DUP3 ADD DUP1 SLOAD PUSH2 0x29A7 SWAP1 PUSH2 0x43BB JUMP JUMPDEST DUP1 PUSH1 0x1F ADD PUSH1 0x20 DUP1 SWAP2 DIV MUL PUSH1 0x20 ADD PUSH1 0x40 MLOAD SWAP1 DUP2 ADD PUSH1 0x40 MSTORE DUP1 SWAP3 SWAP2 SWAP1 DUP2 DUP2 MSTORE PUSH1 0x20 ADD DUP3 DUP1 SLOAD PUSH2 0x29D3 SWAP1 PUSH2 0x43BB JUMP JUMPDEST DUP1 ISZERO PUSH2 0x2A20 JUMPI DUP1 PUSH1 0x1F LT PUSH2 0x29F5 JUMPI PUSH2 0x100 DUP1 DUP4 SLOAD DIV MUL DUP4 MSTORE SWAP2 PUSH1 0x20 ADD SWAP2 PUSH2 0x2A20 JUMP JUMPDEST DUP3 ADD SWAP2 SWAP1 PUSH1 0x0 MSTORE PUSH1 0x20 PUSH1 0x0 KECCAK256 SWAP1 JUMPDEST DUP2 SLOAD DUP2 MSTORE SWAP1 PUSH1 0x1 ADD SWAP1 PUSH1 0x20 ADD DUP1 DUP4 GT PUSH2 0x2A03 JUMPI DUP3 SWAP1 SUB PUSH1 0x1F AND DUP3 ADD SWAP2 JUMPDEST POP POP POP POP POP DUP2 MSTORE PUSH1 0x20 ADD PUSH1 0x2 DUP3 ADD DUP1 SLOAD PUSH2 0x2A39 SWAP1 PUSH2 0x43BB JUMP JUMPDEST DUP1 PUSH1 0x1F ADD PUSH1 0x20 DUP1 SWAP2 DIV MUL PUSH1 0x20 ADD PUSH1 0x40 MLOAD SWAP1 DUP2 ADD PUSH1 0x40 MSTORE DUP1 SWAP3 SWAP2 SWAP1 DUP2 DUP2 MSTORE PUSH1 0x20 ADD DUP3 DUP1 SLOAD PUSH2 0x2A65 SWAP1 PUSH2 0x43BB JUMP JUMPDEST DUP1 ISZERO PUSH2 0x2AB2 JUMPI DUP1 PUSH1 0x1F LT PUSH2 0x2A87 JUMPI PUSH2 0x100 DUP1 DUP4 SLOAD DIV MUL DUP4 MSTORE SWAP2 PUSH1 0x20 ADD SWAP2 PUSH2 0x2AB2 JUMP JUMPDEST DUP3 ADD SWAP2 SWAP1 PUSH1 0x0 MSTORE PUSH1 0x20 PUSH1 0x0 KECCAK256 SWAP1 JUMPDEST DUP2 SLOAD DUP2 MSTORE SWAP1 PUSH1 0x1 ADD SWAP1 PUSH1 0x20 ADD DUP1 DUP4 GT PUSH2 0x2A95 JUMPI DUP3 SWAP1 SUB PUSH1 0x1F AND DUP3 ADD SWAP2 JUMPDEST POP POP POP POP POP DUP2 MSTORE PUSH1 0x20 ADD PUSH1 0x3 DUP3 ADD DUP1 SLOAD DUP1 PUSH1 0x20 MUL PUSH1 0x20 ADD PUSH1 0x40 MLOAD SWAP1 DUP2 ADD PUSH1 0x40 MSTORE DUP1 SWAP3 SWAP2 SWAP1 DUP2 DUP2 MSTORE PUSH1 0x20 ADD PUSH1 0x0 SWAP1 JUMPDEST DUP3 DUP3 LT ISZERO PUSH2 0x2B8C JUMPI DUP4 DUP3 SWAP1 PUSH1 0x0 MSTORE PUSH1 0x20 PUSH1 0x0 KECCAK256 ADD DUP1 SLOAD PUSH2 0x2AFF SWAP1 PUSH2 0x43BB JUMP JUMPDEST DUP1 PUSH1 0x1F ADD PUSH1 0x20 DUP1 SWAP2 DIV MUL PUSH1 0x20 ADD PUSH1 0x40 MLOAD SWAP1 DUP2 ADD PUSH1 0x40 MSTORE DUP1 SWAP3 SWAP2 SWAP1 DUP2 DUP2 MSTORE PUSH1 0x20 ADD DUP3 DUP1 SLOAD PUSH2 0x2B2B SWAP1 PUSH2 0x43BB JUMP JUMPDEST DUP1 ISZERO PUSH2 0x2B78 JUMPI DUP1 PUSH1 0x1F LT PUSH2 0x2B4D JUMPI PUSH2 0x100 DUP1 DUP4 SLOAD DIV MUL DUP4 MSTORE SWAP2 PUSH1 0x20 ADD SWAP2 PUSH2 0x2B78 JUMP JUMPDEST DUP3 ADD SWAP2 SWAP1 PUSH1 0x0 MSTORE PUSH1 0x20 PUSH1 0x0 KECCAK256 SWAP1 JUMPDEST DUP2 SLOAD DUP2 MSTORE SWAP1 PUSH1 0x1 ADD SWAP1 PUSH1 0x20 ADD DUP1 DUP4 GT PUSH2 0x2B5B JUMPI DUP3 SWAP1 SUB PUSH1 0x1F AND DUP3 ADD SWAP2 JUMPDEST POP POP POP POP POP DUP2 MSTORE PUSH1 0x20 ADD SWAP1 PUSH1 0x1 ADD SWAP1 PUSH2 0x2AE0 JUMP JUMPDEST POP POP POP POP DUP2 MSTORE POP POP SWAP1 POP DUP1 PUSH1 0x20 ADD MLOAD SWAP6 POP PUSH1 0xA DUP1 SLOAD DUP1 PUSH1 0x20 MUL PUSH1 0x20 ADD PUSH1 0x40 MLOAD SWAP1 DUP2 ADD PUSH1 0x40 MSTORE DUP1 SWAP3 SWAP2 SWAP1 DUP2 DUP2 MSTORE PUSH1 0x20 ADD PUSH1 0x0 SWAP1 JUMPDEST DUP3 DUP3 LT ISZERO PUSH2 0x2D86 JUMPI DUP4 DUP3 SWAP1 PUSH1 0x0 MSTORE PUSH1 0x20 PUSH1 0x0 KECCAK256 SWAP1 PUSH1 0x4 MUL ADD PUSH1 0x40 MLOAD DUP1 PUSH1 0x80 ADD PUSH1 0x40 MSTORE SWAP1 DUP2 PUSH1 0x0 DUP3 ADD PUSH1 0x0 SWAP1 SLOAD SWAP1 PUSH2 0x100 EXP SWAP1 DIV PUSH20 0xFFFFFFFFFFFFFFFFFFFFFFFFFFFFFFFFFFFFFFFF AND PUSH20 0xFFFFFFFFFFFFFFFFFFFFFFFFFFFFFFFFFFFFFFFF AND PUSH20 0xFFFFFFFFFFFFFFFFFFFFFFFFFFFFFFFFFFFFFFFF AND DUP2 MSTORE PUSH1 0x20 ADD PUSH1 0x1 DUP3 ADD DUP1 SLOAD PUSH2 0x2C48 SWAP1 PUSH2 0x43BB JUMP JUMPDEST DUP1 PUSH1 0x1F ADD PUSH1 0x20 DUP1 SWAP2 DIV MUL PUSH1 0x20 ADD PUSH1 0x40 MLOAD SWAP1 DUP2 ADD PUSH1 0x40 MSTORE DUP1 SWAP3 SWAP2 SWAP1 DUP2 DUP2 MSTORE PUSH1 0x20 ADD DUP3 DUP1 SLOAD PUSH2 0x2C74 SWAP1 PUSH2 0x43BB JUMP JUMPDEST DUP1 ISZERO PUSH2 0x2CC1 JUMPI DUP1 PUSH1 0x1F LT PUSH2 0x2C96 JUMPI PUSH2 0x100 DUP1 DUP4 SLOAD DIV MUL DUP4 MSTORE SWAP2 PUSH1 0x20 ADD SWAP2 PUSH2 0x2CC1 JUMP JUMPDEST DUP3 ADD SWAP2 SWAP1 PUSH1 0x0 MSTORE PUSH1 0x20 PUSH1 0x0 KECCAK256 SWAP1 JUMPDEST DUP2 SLOAD DUP2 MSTORE SWAP1 PUSH1 0x1 ADD SWAP1 PUSH1 0x20 ADD DUP1 DUP4 GT PUSH2 0x2CA4 JUMPI DUP3 SWAP1 SUB PUSH1 0x1F AND DUP3 ADD SWAP2 JUMPDEST POP POP POP POP POP DUP2 MSTORE PUSH1 0x20 ADD PUSH1 0x2 DUP3 ADD DUP1 SLOAD PUSH2 0x2CDA SWAP1 PUSH2 0x43BB JUMP JUMPDEST DUP1 PUSH1 0x1F ADD PUSH1 0x20 DUP1 SWAP2 DIV MUL PUSH1 0x20 ADD PUSH1 0x40 MLOAD SWAP1 DUP2 ADD PUSH1 0x40 MSTORE DUP1 SWAP3 SWAP2 SWAP1 DUP2 DUP2 MSTORE PUSH1 0x20 ADD DUP3 DUP1 SLOAD PUSH2 0x2D06 SWAP1 PUSH2 0x43BB JUMP JUMPDEST DUP1 ISZERO PUSH2 0x2D53 JUMPI DUP1 PUSH1 0x1F LT PUSH2 0x2D28 JUMPI PUSH2 0x100 DUP1 DUP4 SLOAD DIV MUL DUP4 MSTORE SWAP2 PUSH1 0x20 ADD SWAP2 PUSH2 0x2D53 JUMP JUMPDEST DUP3 ADD SWAP2 SWAP1 PUSH1 0x0 MSTORE PUSH1 0x20 PUSH1 0x0 KECCAK256 SWAP1 JUMPDEST DUP2 SLOAD DUP2 MSTORE SWAP1 PUSH1 0x1 ADD SWAP1 PUSH1 0x20 ADD DUP1 DUP4 GT PUSH2 0x2D36 JUMPI DUP3 SWAP1 SUB PUSH1 0x1F AND DUP3 ADD SWAP2 JUMPDEST POP POP POP POP POP DUP2 MSTORE PUSH1 0x20 ADD PUSH1 0x3 DUP3 ADD PUSH1 0x0 SWAP1 SLOAD SWAP1 PUSH2 0x100 EXP SWAP1 DIV PUSH1 0xFF AND ISZERO ISZERO ISZERO ISZERO DUP2 MSTORE POP POP DUP2 MSTORE PUSH1 0x20 ADD SWAP1 PUSH1 0x1 ADD SWAP1 PUSH2 0x2BBF JUMP JUMPDEST POP POP POP POP SWAP5 POP PUSH1 0x6 DUP1 SLOAD DUP1 PUSH1 0x20 MUL PUSH1 0x20 ADD PUSH1 0x40 MLOAD SWAP1 DUP2 ADD PUSH1 0x40 MSTORE DUP1 SWAP3 SWAP2 SWAP1 DUP2 DUP2 MSTORE PUSH1 0x20 ADD PUSH1 0x0 SWAP1 JUMPDEST DUP3 DUP3 LT ISZERO PUSH2 0x2E5A JUMPI DUP4 DUP3 SWAP1 PUSH1 0x0 MSTORE PUSH1 0x20 PUSH1 0x0 KECCAK256 ADD DUP1 SLOAD PUSH2 0x2DCD SWAP1 PUSH2 0x43BB JUMP JUMPDEST DUP1 PUSH1 0x1F ADD PUSH1 0x20 DUP1 SWAP2 DIV MUL PUSH1 0x20 ADD PUSH1 0x40 MLOAD SWAP1 DUP2 ADD PUSH1 0x40 MSTORE DUP1 SWAP3 SWAP2 SWAP1 DUP2 DUP2 MSTORE PUSH1 0x20 ADD DUP3 DUP1 SLOAD PUSH2 0x2DF9 SWAP1 PUSH2 0x43BB JUMP JUMPDEST DUP1 ISZERO PUSH2 0x2E46 JUMPI DUP1 PUSH1 0x1F LT PUSH2 0x2E1B JUMPI PUSH2 0x100 DUP1 DUP4 SLOAD DIV MUL DUP4 MSTORE SWAP2 PUSH1 0x20 ADD SWAP2 PUSH2 0x2E46 JUMP JUMPDEST DUP3 ADD SWAP2 SWAP1 PUSH1 0x0 MSTORE PUSH1 0x20 PUSH1 0x0 KECCAK256 SWAP1 JUMPDEST DUP2 SLOAD DUP2 MSTORE SWAP1 PUSH1 0x1 ADD SWAP1 PUSH1 0x20 ADD DUP1 DUP4 GT PUSH2 0x2E29 JUMPI DUP3 SWAP1 SUB PUSH1 0x1F AND DUP3 ADD SWAP2 JUMPDEST POP POP POP POP POP DUP2 MSTORE PUSH1 0x20 ADD SWAP1 PUSH1 0x1 ADD SWAP1 PUSH2 0x2DAE JUMP JUMPDEST POP POP POP POP SWAP4 POP PUSH1 0x8 DUP1 SLOAD DUP1 PUSH1 0x20 MUL PUSH1 0x20 ADD PUSH1 0x40 MLOAD SWAP1 DUP2 ADD PUSH1 0x40 MSTORE DUP1 SWAP3 SWAP2 SWAP1 DUP2 DUP2 MSTORE PUSH1 0x20 ADD DUP3 DUP1 SLOAD DUP1 ISZERO PUSH2 0x2EE2 JUMPI PUSH1 0x20 MUL DUP3 ADD SWAP2 SWAP1 PUSH1 0x0 MSTORE PUSH1 0x20 PUSH1 0x0 KECCAK256 SWAP1 JUMPDEST DUP2 PUSH1 0x0 SWAP1 SLOAD SWAP1 PUSH2 0x100 EXP SWAP1 DIV PUSH20 0xFFFFFFFFFFFFFFFFFFFFFFFFFFFFFFFFFFFFFFFF AND PUSH20 0xFFFFFFFFFFFFFFFFFFFFFFFFFFFFFFFFFFFFFFFF AND DUP2 MSTORE PUSH1 0x20 ADD SWAP1 PUSH1 0x1 ADD SWAP1 DUP1 DUP4 GT PUSH2 0x2E98 JUMPI JUMPDEST POP POP POP POP POP SWAP3 POP POP POP SWAP1 SWAP2 SWAP3 SWAP4 JUMP JUMPDEST PUSH1 0x0 PUSH1 0x2 PUSH1 0x0 CALLER PUSH20 0xFFFFFFFFFFFFFFFFFFFFFFFFFFFFFFFFFFFFFFFF AND PUSH20 0xFFFFFFFFFFFFFFFFFFFFFFFFFFFFFFFFFFFFFFFF AND DUP2 MSTORE PUSH1 0x20 ADD SWAP1 DUP2 MSTORE PUSH1 0x20 ADD PUSH1 0x0 KECCAK256 PUSH1 0x0 ADD SLOAD DUP2 PUSH1 0x5 DUP2 GT ISZERO PUSH2 0x2F49 JUMPI PUSH2 0x2F48 PUSH2 0x441E JUMP JUMPDEST JUMPDEST EQ PUSH2 0x2F89 JUMPI PUSH1 0x40 MLOAD PUSH32 0x8C379A000000000000000000000000000000000000000000000000000000000 DUP2 MSTORE PUSH1 0x4 ADD PUSH2 0x2F80 SWAP1 PUSH2 0x413C JUMP JUMPDEST PUSH1 0x40 MLOAD DUP1 SWAP2 SUB SWAP1 REVERT JUMPDEST POP JUMP JUMPDEST PUSH1 0x5 PUSH1 0x0 SWAP1 SLOAD SWAP1 PUSH2 0x100 EXP SWAP1 DIV PUSH20 0xFFFFFFFFFFFFFFFFFFFFFFFFFFFFFFFFFFFFFFFF AND PUSH20 0xFFFFFFFFFFFFFFFFFFFFFFFFFFFFFFFFFFFFFFFF AND CALLER PUSH20 0xFFFFFFFFFFFFFFFFFFFFFFFFFFFFFFFFFFFFFFFF AND EQ PUSH2 0x301C JUMPI PUSH1 0x40 MLOAD PUSH32 0x8C379A000000000000000000000000000000000000000000000000000000000 DUP2 MSTORE PUSH1 0x4 ADD PUSH2 0x3013 SWAP1 PUSH2 0x417C JUMP JUMPDEST PUSH1 0x40 MLOAD DUP1 SWAP2 SUB SWAP1 REVERT JUMPDEST PUSH1 0x0 PUSH1 0x3 PUSH1 0x5 DUP2 GT ISZERO PUSH2 0x3032 JUMPI PUSH2 0x3031 PUSH2 0x441E JUMP JUMPDEST JUMPDEST SWAP1 POP PUSH2 0x3040 DUP4 DUP4 DUP4 CALLER PUSH2 0x3081 JUMP JUMPDEST PUSH1 0x6 DUP3 SWAP1 DUP1 PUSH1 0x1 DUP2 SLOAD ADD DUP1 DUP3 SSTORE DUP1 SWAP2 POP POP PUSH1 0x1 SWAP1 SUB SWAP1 PUSH1 0x0 MSTORE PUSH1 0x20 PUSH1 0x0 KECCAK256 ADD PUSH1 0x0 SWAP1 SWAP2 SWAP1 SWAP2 SWAP1 SWAP2 POP SWAP1 DUP1 MLOAD SWAP1 PUSH1 0x20 ADD SWAP1 PUSH2 0x307B SWAP3 SWAP2 SWAP1 PUSH2 0x33DE JUMP JUMPDEST POP POP POP POP JUMP JUMPDEST DUP1 DUP4 PUSH2 0x3166 PUSH1 0x2 PUSH1 0x0 DUP5 PUSH20 0xFFFFFFFFFFFFFFFFFFFFFFFFFFFFFFFFFFFFFFFF AND PUSH20 0xFFFFFFFFFFFFFFFFFFFFFFFFFFFFFFFFFFFFFFFF AND DUP2 MSTORE PUSH1 0x20 ADD SWAP1 DUP2 MSTORE PUSH1 0x20 ADD PUSH1 0x0 KECCAK256 PUSH1 0x2 ADD DUP1 SLOAD PUSH2 0x30D3 SWAP1 PUSH2 0x43BB JUMP JUMPDEST DUP1 PUSH1 0x1F ADD PUSH1 0x20 DUP1 SWAP2 DIV MUL PUSH1 0x20 ADD PUSH1 0x40 MLOAD SWAP1 DUP2 ADD PUSH1 0x40 MSTORE DUP1 SWAP3 SWAP2 SWAP1 DUP2 DUP2 MSTORE PUSH1 0x20 ADD DUP3 DUP1 SLOAD PUSH2 0x30FF SWAP1 PUSH2 0x43BB JUMP JUMPDEST DUP1 ISZERO PUSH2 0x314C JUMPI DUP1 PUSH1 0x1F LT PUSH2 0x3121 JUMPI PUSH2 0x100 DUP1 DUP4 SLOAD DIV MUL DUP4 MSTORE SWAP2 PUSH1 0x20 ADD SWAP2 PUSH2 0x314C JUMP JUMPDEST DUP3 ADD SWAP2 SWAP1 PUSH1 0x0 MSTORE PUSH1 0x20 PUSH1 0x0 KECCAK256 SWAP1 JUMPDEST DUP2 SLOAD DUP2 MSTORE SWAP1 PUSH1 0x1 ADD SWAP1 PUSH1 0x20 ADD DUP1 DUP4 GT PUSH2 0x312F JUMPI DUP3 SWAP1 SUB PUSH1 0x1F AND DUP3 ADD SWAP2 JUMPDEST POP POP POP POP POP PUSH1 0x40 MLOAD DUP1 PUSH1 0x20 ADD PUSH1 0x40 MSTORE DUP1 PUSH1 0x0 DUP2 MSTORE POP PUSH2 0x3385 JUMP JUMPDEST ISZERO PUSH2 0x31A6 JUMPI PUSH1 0x40 MLOAD PUSH32 0x8C379A000000000000000000000000000000000000000000000000000000000 DUP2 MSTORE PUSH1 0x4 ADD PUSH2 0x319D SWAP1 PUSH2 0x419C JUMP JUMPDEST PUSH1 0x40 MLOAD DUP1 SWAP2 SUB SWAP1 REVERT JUMPDEST PUSH1 0x0 PUSH20 0xFFFFFFFFFFFFFFFFFFFFFFFFFFFFFFFFFFFFFFFF AND PUSH1 0x1 DUP3 PUSH1 0x40 MLOAD PUSH2 0x31CE SWAP2 SWAP1 PUSH2 0x3EFC JUMP JUMPDEST SWAP1 DUP2 MSTORE PUSH1 0x20 ADD PUSH1 0x40 MLOAD DUP1 SWAP2 SUB SWAP1 KECCAK256 PUSH1 0x0 SWAP1 SLOAD SWAP1 PUSH2 0x100 EXP SWAP1 DIV PUSH20 0xFFFFFFFFFFFFFFFFFFFFFFFFFFFFFFFFFFFFFFFF AND PUSH20 0xFFFFFFFFFFFFFFFFFFFFFFFFFFFFFFFFFFFFFFFF AND EQ PUSH2 0x3253 JUMPI PUSH1 0x40 MLOAD PUSH32 0x8C379A000000000000000000000000000000000000000000000000000000000 DUP2 MSTORE PUSH1 0x4 ADD PUSH2 0x324A SWAP1 PUSH2 0x40FC JUMP JUMPDEST PUSH1 0x40 MLOAD DUP1 SWAP2 SUB SWAP1 REVERT JUMPDEST PUSH1 0x60 PUSH1 0x0 PUSH1 0x40 MLOAD DUP1 PUSH1 0x80 ADD PUSH1 0x40 MSTORE DUP1 DUP8 DUP2 MSTORE PUSH1 0x20 ADD DUP9 DUP2 MSTORE PUSH1 0x20 ADD DUP10 DUP2 MSTORE PUSH1 0x20 ADD DUP4 DUP2 MSTORE POP SWAP1 POP DUP5 PUSH1 0x1 DUP9 PUSH1 0x40 MLOAD PUSH2 0x328B SWAP2 SWAP1 PUSH2 0x3EFC JUMP JUMPDEST SWAP1 DUP2 MSTORE PUSH1 0x20 ADD PUSH1 0x40 MLOAD DUP1 SWAP2 SUB SWAP1 KECCAK256 PUSH1 0x0 PUSH2 0x100 EXP DUP2 SLOAD DUP2 PUSH20 0xFFFFFFFFFFFFFFFFFFFFFFFFFFFFFFFFFFFFFFFF MUL NOT AND SWAP1 DUP4 PUSH20 0xFFFFFFFFFFFFFFFFFFFFFFFFFFFFFFFFFFFFFFFF AND MUL OR SWAP1 SSTORE POP DUP1 PUSH1 0x2 PUSH1 0x0 DUP8 PUSH20 0xFFFFFFFFFFFFFFFFFFFFFFFFFFFFFFFFFFFFFFFF AND PUSH20 0xFFFFFFFFFFFFFFFFFFFFFFFFFFFFFFFFFFFFFFFF AND DUP2 MSTORE PUSH1 0x20 ADD SWAP1 DUP2 MSTORE PUSH1 0x20 ADD PUSH1 0x0 KECCAK256 PUSH1 0x0 DUP3 ADD MLOAD DUP2 PUSH1 0x0 ADD SSTORE PUSH1 0x20 DUP3 ADD MLOAD DUP2 PUSH1 0x1 ADD SWAP1 DUP1 MLOAD SWAP1 PUSH1 0x20 ADD SWAP1 PUSH2 0x333D SWAP3 SWAP2 SWAP1 PUSH2 0x33DE JUMP JUMPDEST POP PUSH1 0x40 DUP3 ADD MLOAD DUP2 PUSH1 0x2 ADD SWAP1 DUP1 MLOAD SWAP1 PUSH1 0x20 ADD SWAP1 PUSH2 0x335A SWAP3 SWAP2 SWAP1 PUSH2 0x33DE JUMP JUMPDEST POP PUSH1 0x60 DUP3 ADD MLOAD DUP2 PUSH1 0x3 ADD SWAP1 DUP1 MLOAD SWAP1 PUSH1 0x20 ADD SWAP1 PUSH2 0x3377 SWAP3 SWAP2 SWAP1 PUSH2 0x34EE JUMP JUMPDEST POP SWAP1 POP POP POP POP POP POP POP POP POP POP JUMP JUMPDEST PUSH1 0x0 DUP2 PUSH1 0x40 MLOAD PUSH1 0x20 ADD PUSH2 0x3398 SWAP2 SWAP1 PUSH2 0x3EFC JUMP JUMPDEST PUSH1 0x40 MLOAD PUSH1 0x20 DUP2 DUP4 SUB SUB DUP2 MSTORE SWAP1 PUSH1 0x40 MSTORE DUP1 MLOAD SWAP1 PUSH1 0x20 ADD KECCAK256 DUP4 PUSH1 0x40 MLOAD PUSH1 0x20 ADD PUSH2 0x33BF SWAP2 SWAP1 PUSH2 0x3EFC JUMP JUMPDEST PUSH1 0x40 MLOAD PUSH1 0x20 DUP2 DUP4 SUB SUB DUP2 MSTORE SWAP1 PUSH1 0x40 MSTORE DUP1 MLOAD SWAP1 PUSH1 0x20 ADD KECCAK256 EQ SWAP1 POP SWAP3 SWAP2 POP POP JUMP JUMPDEST DUP3 DUP1 SLOAD PUSH2 0x33EA SWAP1 PUSH2 0x43BB JUMP JUMPDEST SWAP1 PUSH1 0x0 MSTORE PUSH1 0x20 PUSH1 0x0 KECCAK256 SWAP1 PUSH1 0x1F ADD PUSH1 0x20 SWAP1 DIV DUP2 ADD SWAP3 DUP3 PUSH2 0x340C JUMPI PUSH1 0x0 DUP6 SSTORE PUSH2 0x3453 JUMP JUMPDEST DUP3 PUSH1 0x1F LT PUSH2 0x3425 JUMPI DUP1 MLOAD PUSH1 0xFF NOT AND DUP4 DUP1 ADD OR DUP6 SSTORE PUSH2 0x3453 JUMP JUMPDEST DUP3 DUP1 ADD PUSH1 0x1 ADD DUP6 SSTORE DUP3 ISZERO PUSH2 0x3453 JUMPI SWAP2 DUP3 ADD JUMPDEST DUP3 DUP2 GT ISZERO PUSH2 0x3452 JUMPI DUP3 MLOAD DUP3 SSTORE SWAP2 PUSH1 0x20 ADD SWAP2 SWAP1 PUSH1 0x1 ADD SWAP1 PUSH2 0x3437 JUMP JUMPDEST JUMPDEST POP SWAP1 POP PUSH2 0x3460 SWAP2 SWAP1 PUSH2 0x354E JUMP JUMPDEST POP SWAP1 JUMP JUMPDEST DUP3 DUP1 SLOAD DUP3 DUP3 SSTORE SWAP1 PUSH1 0x0 MSTORE PUSH1 0x20 PUSH1 0x0 KECCAK256 SWAP1 DUP2 ADD SWAP3 DUP3 ISZERO PUSH2 0x34DD JUMPI SWAP2 PUSH1 0x20 MUL DUP3 ADD JUMPDEST DUP3 DUP2 GT ISZERO PUSH2 0x34DC JUMPI DUP3 MLOAD DUP3 PUSH1 0x0 PUSH2 0x100 EXP DUP2 SLOAD DUP2 PUSH20 0xFFFFFFFFFFFFFFFFFFFFFFFFFFFFFFFFFFFFFFFF MUL NOT AND SWAP1 DUP4 PUSH20 0xFFFFFFFFFFFFFFFFFFFFFFFFFFFFFFFFFFFFFFFF AND MUL OR SWAP1 SSTORE POP SWAP2 PUSH1 0x20 ADD SWAP2 SWAP1 PUSH1 0x1 ADD SWAP1 PUSH2 0x3484 JUMP JUMPDEST JUMPDEST POP SWAP1 POP PUSH2 0x34EA SWAP2 SWAP1 PUSH2 0x354E JUMP JUMPDEST POP SWAP1 JUMP JUMPDEST DUP3 DUP1 SLOAD DUP3 DUP3 SSTORE SWAP1 PUSH1 0x0 MSTORE PUSH1 0x20 PUSH1 0x0 KECCAK256 SWAP1 DUP2 ADD SWAP3 DUP3 ISZERO PUSH2 0x353D JUMPI SWAP2 PUSH1 0x20 MUL DUP3 ADD JUMPDEST DUP3 DUP2 GT ISZERO PUSH2 0x353C JUMPI DUP3 MLOAD DUP3 SWAP1 DUP1 MLOAD SWAP1 PUSH1 0x20 ADD SWAP1 PUSH2 0x352C SWAP3 SWAP2 SWAP1 PUSH2 0x33DE JUMP JUMPDEST POP SWAP2 PUSH1 0x20 ADD SWAP2 SWAP1 PUSH1 0x1 ADD SWAP1 PUSH2 0x350E JUMP JUMPDEST JUMPDEST POP SWAP1 POP PUSH2 0x354A SWAP2 SWAP1 PUSH2 0x356B JUMP JUMPDEST POP SWAP1 JUMP JUMPDEST JUMPDEST DUP1 DUP3 GT ISZERO PUSH2 0x3567 JUMPI PUSH1 0x0 DUP2 PUSH1 0x0 SWAP1 SSTORE POP PUSH1 0x1 ADD PUSH2 0x354F JUMP JUMPDEST POP SWAP1 JUMP JUMPDEST JUMPDEST DUP1 DUP3 GT ISZERO PUSH2 0x358B JUMPI PUSH1 0x0 DUP2 DUP2 PUSH2 0x3582 SWAP2 SWAP1 PUSH2 0x358F JUMP JUMPDEST POP PUSH1 0x1 ADD PUSH2 0x356C JUMP JUMPDEST POP SWAP1 JUMP JUMPDEST POP DUP1 SLOAD PUSH2 0x359B SWAP1 PUSH2 0x43BB JUMP JUMPDEST PUSH1 0x0 DUP3 SSTORE DUP1 PUSH1 0x1F LT PUSH2 0x35AD JUMPI POP PUSH2 0x35CC JUMP JUMPDEST PUSH1 0x1F ADD PUSH1 0x20 SWAP1 DIV SWAP1 PUSH1 0x0 MSTORE PUSH1 0x20 PUSH1 0x0 KECCAK256 SWAP1 DUP2 ADD SWAP1 PUSH2 0x35CB SWAP2 SWAP1 PUSH2 0x354E JUMP JUMPDEST JUMPDEST POP JUMP JUMPDEST PUSH1 0x0 PUSH2 0x35E2 PUSH2 0x35DD DUP5 PUSH2 0x4201 JUMP JUMPDEST PUSH2 0x41DC JUMP JUMPDEST SWAP1 POP DUP3 DUP2 MSTORE PUSH1 0x20 DUP2 ADD DUP5 DUP5 DUP5 ADD GT ISZERO PUSH2 0x35FE JUMPI PUSH2 0x35FD PUSH2 0x44B0 JUMP JUMPDEST JUMPDEST PUSH2 0x3609 DUP5 DUP3 DUP6 PUSH2 0x4379 JUMP JUMPDEST POP SWAP4 SWAP3 POP POP POP JUMP JUMPDEST PUSH1 0x0 DUP2 CALLDATALOAD SWAP1 POP PUSH2 0x3620 DUP2 PUSH2 0x463E JUMP JUMPDEST SWAP3 SWAP2 POP POP JUMP JUMPDEST PUSH1 0x0 DUP2 CALLDATALOAD SWAP1 POP PUSH2 0x3635 DUP2 PUSH2 0x4655 JUMP JUMPDEST SWAP3 SWAP2 POP POP JUMP JUMPDEST PUSH1 0x0 DUP2 CALLDATALOAD SWAP1 POP PUSH2 0x364A DUP2 PUSH2 0x466C JUMP JUMPDEST SWAP3 SWAP2 POP POP JUMP JUMPDEST PUSH1 0x0 DUP3 PUSH1 0x1F DUP4 ADD SLT PUSH2 0x3665 JUMPI PUSH2 0x3664 PUSH2 0x44AB JUMP JUMPDEST JUMPDEST DUP2 CALLDATALOAD PUSH2 0x3675 DUP5 DUP3 PUSH1 0x20 DUP7 ADD PUSH2 0x35CF JUMP JUMPDEST SWAP2 POP POP SWAP3 SWAP2 POP POP JUMP JUMPDEST PUSH1 0x0 PUSH1 0x20 DUP3 DUP5 SUB SLT ISZERO PUSH2 0x3694 JUMPI PUSH2 0x3693 PUSH2 0x44BA JUMP JUMPDEST JUMPDEST PUSH1 0x0 PUSH2 0x36A2 DUP5 DUP3 DUP6 ADD PUSH2 0x3611 JUMP JUMPDEST SWAP2 POP POP SWAP3 SWAP2 POP POP JUMP JUMPDEST PUSH1 0x0 PUSH1 0x20 DUP3 DUP5 SUB SLT ISZERO PUSH2 0x36C1 JUMPI PUSH2 0x36C0 PUSH2 0x44BA JUMP JUMPDEST JUMPDEST PUSH1 0x0 PUSH2 0x36CF DUP5 DUP3 DUP6 ADD PUSH2 0x3626 JUMP JUMPDEST SWAP2 POP POP SWAP3 SWAP2 POP POP JUMP JUMPDEST PUSH1 0x0 DUP1 PUSH1 0x0 PUSH1 0x60 DUP5 DUP7 SUB SLT ISZERO PUSH2 0x36F1 JUMPI PUSH2 0x36F0 PUSH2 0x44BA JUMP JUMPDEST JUMPDEST PUSH1 0x0 PUSH2 0x36FF DUP7 DUP3 DUP8 ADD PUSH2 0x3611 JUMP JUMPDEST SWAP4 POP POP PUSH1 0x20 DUP5 ADD CALLDATALOAD PUSH8 0xFFFFFFFFFFFFFFFF DUP2 GT ISZERO PUSH2 0x3720 JUMPI PUSH2 0x371F PUSH2 0x44B5 JUMP JUMPDEST JUMPDEST PUSH2 0x372C DUP7 DUP3 DUP8 ADD PUSH2 0x3650 JUMP JUMPDEST SWAP3 POP POP PUSH1 0x40 DUP5 ADD CALLDATALOAD PUSH8 0xFFFFFFFFFFFFFFFF DUP2 GT ISZERO PUSH2 0x374D JUMPI PUSH2 0x374C PUSH2 0x44B5 JUMP JUMPDEST JUMPDEST PUSH2 0x3759 DUP7 DUP3 DUP8 ADD PUSH2 0x3650 JUMP JUMPDEST SWAP2 POP POP SWAP3 POP SWAP3 POP SWAP3 JUMP JUMPDEST PUSH1 0x0 DUP1 PUSH1 0x0 DUP1 PUSH1 0x80 DUP6 DUP8 SUB SLT ISZERO PUSH2 0x377D JUMPI PUSH2 0x377C PUSH2 0x44BA JUMP JUMPDEST JUMPDEST PUSH1 0x0 PUSH2 0x378B DUP8 DUP3 DUP9 ADD PUSH2 0x3611 JUMP JUMPDEST SWAP5 POP POP PUSH1 0x20 DUP6 ADD CALLDATALOAD PUSH8 0xFFFFFFFFFFFFFFFF DUP2 GT ISZERO PUSH2 0x37AC JUMPI PUSH2 0x37AB PUSH2 0x44B5 JUMP JUMPDEST JUMPDEST PUSH2 0x37B8 DUP8 DUP3 DUP9 ADD PUSH2 0x3650 JUMP JUMPDEST SWAP4 POP POP PUSH1 0x40 DUP6 ADD CALLDATALOAD PUSH8 0xFFFFFFFFFFFFFFFF DUP2 GT ISZERO PUSH2 0x37D9 JUMPI PUSH2 0x37D8 PUSH2 0x44B5 JUMP JUMPDEST JUMPDEST PUSH2 0x37E5 DUP8 DUP3 DUP9 ADD PUSH2 0x3650 JUMP JUMPDEST SWAP3 POP POP PUSH1 0x60 PUSH2 0x37F6 DUP8 DUP3 DUP9 ADD PUSH2 0x363B JUMP JUMPDEST SWAP2 POP POP SWAP3 SWAP6 SWAP2 SWAP5 POP SWAP3 POP JUMP JUMPDEST PUSH1 0x0 DUP1 PUSH1 0x0 DUP1 PUSH1 0x80 DUP6 DUP8 SUB SLT ISZERO PUSH2 0x381C JUMPI PUSH2 0x381B PUSH2 0x44BA JUMP JUMPDEST JUMPDEST PUSH1 0x0 PUSH2 0x382A DUP8 DUP3 DUP9 ADD PUSH2 0x3611 JUMP JUMPDEST SWAP5 POP POP PUSH1 0x20 DUP6 ADD CALLDATALOAD PUSH8 0xFFFFFFFFFFFFFFFF DUP2 GT ISZERO PUSH2 0x384B JUMPI PUSH2 0x384A PUSH2 0x44B5 JUMP JUMPDEST JUMPDEST PUSH2 0x3857 DUP8 DUP3 DUP9 ADD PUSH2 0x3650 JUMP JUMPDEST SWAP4 POP POP PUSH1 0x40 DUP6 ADD CALLDATALOAD PUSH8 0xFFFFFFFFFFFFFFFF DUP2 GT ISZERO PUSH2 0x3878 JUMPI PUSH2 0x3877 PUSH2 0x44B5 JUMP JUMPDEST JUMPDEST PUSH2 0x3884 DUP8 DUP3 DUP9 ADD PUSH2 0x3650 JUMP JUMPDEST SWAP3 POP POP PUSH1 0x60 DUP6 ADD CALLDATALOAD PUSH8 0xFFFFFFFFFFFFFFFF DUP2 GT ISZERO PUSH2 0x38A5 JUMPI PUSH2 0x38A4 PUSH2 0x44B5 JUMP JUMPDEST JUMPDEST PUSH2 0x38B1 DUP8 DUP3 DUP9 ADD PUSH2 0x3650 JUMP JUMPDEST SWAP2 POP POP SWAP3 SWAP6 SWAP2 SWAP5 POP SWAP3 POP JUMP JUMPDEST PUSH1 0x0 PUSH1 0x20 DUP3 DUP5 SUB SLT ISZERO PUSH2 0x38D3 JUMPI PUSH2 0x38D2 PUSH2 0x44BA JUMP JUMPDEST JUMPDEST PUSH1 0x0 DUP3 ADD CALLDATALOAD PUSH8 0xFFFFFFFFFFFFFFFF DUP2 GT ISZERO PUSH2 0x38F1 JUMPI PUSH2 0x38F0 PUSH2 0x44B5 JUMP JUMPDEST JUMPDEST PUSH2 0x38FD DUP5 DUP3 DUP6 ADD PUSH2 0x3650 JUMP JUMPDEST SWAP2 POP POP SWAP3 SWAP2 POP POP JUMP JUMPDEST PUSH1 0x0 DUP1 PUSH1 0x40 DUP4 DUP6 SUB SLT ISZERO PUSH2 0x391D JUMPI PUSH2 0x391C PUSH2 0x44BA JUMP JUMPDEST JUMPDEST PUSH1 0x0 DUP4 ADD CALLDATALOAD PUSH8 0xFFFFFFFFFFFFFFFF DUP2 GT ISZERO PUSH2 0x393B JUMPI PUSH2 0x393A PUSH2 0x44B5 JUMP JUMPDEST JUMPDEST PUSH2 0x3947 DUP6 DUP3 DUP7 ADD PUSH2 0x3650 JUMP JUMPDEST SWAP3 POP POP PUSH1 0x20 PUSH2 0x3958 DUP6 DUP3 DUP7 ADD PUSH2 0x3611 JUMP JUMPDEST SWAP2 POP POP SWAP3 POP SWAP3 SWAP1 POP JUMP JUMPDEST PUSH1 0x0 DUP1 PUSH1 0x40 DUP4 DUP6 SUB SLT ISZERO PUSH2 0x3979 JUMPI PUSH2 0x3978 PUSH2 0x44BA JUMP JUMPDEST JUMPDEST PUSH1 0x0 DUP4 ADD CALLDATALOAD PUSH8 0xFFFFFFFFFFFFFFFF DUP2 GT ISZERO PUSH2 0x3997 JUMPI PUSH2 0x3996 PUSH2 0x44B5 JUMP JUMPDEST JUMPDEST PUSH2 0x39A3 DUP6 DUP3 DUP7 ADD PUSH2 0x3650 JUMP JUMPDEST SWAP3 POP POP PUSH1 0x20 DUP4 ADD CALLDATALOAD PUSH8 0xFFFFFFFFFFFFFFFF DUP2 GT ISZERO PUSH2 0x39C4 JUMPI PUSH2 0x39C3 PUSH2 0x44B5 JUMP JUMPDEST JUMPDEST PUSH2 0x39D0 DUP6 DUP3 DUP7 ADD PUSH2 0x3650 JUMP JUMPDEST SWAP2 POP POP SWAP3 POP SWAP3 SWAP1 POP JUMP JUMPDEST PUSH1 0x0 DUP1 PUSH1 0x0 PUSH1 0x60 DUP5 DUP7 SUB SLT ISZERO PUSH2 0x39F3 JUMPI PUSH2 0x39F2 PUSH2 0x44BA JUMP JUMPDEST JUMPDEST PUSH1 0x0 DUP5 ADD CALLDATALOAD PUSH8 0xFFFFFFFFFFFFFFFF DUP2 GT ISZERO PUSH2 0x3A11 JUMPI PUSH2 0x3A10 PUSH2 0x44B5 JUMP JUMPDEST JUMPDEST PUSH2 0x3A1D DUP7 DUP3 DUP8 ADD PUSH2 0x3650 JUMP JUMPDEST SWAP4 POP POP PUSH1 0x20 DUP5 ADD CALLDATALOAD PUSH8 0xFFFFFFFFFFFFFFFF DUP2 GT ISZERO PUSH2 0x3A3E JUMPI PUSH2 0x3A3D PUSH2 0x44B5 JUMP JUMPDEST JUMPDEST PUSH2 0x3A4A DUP7 DUP3 DUP8 ADD PUSH2 0x3650 JUMP JUMPDEST SWAP3 POP POP PUSH1 0x40 PUSH2 0x3A5B DUP7 DUP3 DUP8 ADD PUSH2 0x3611 JUMP JUMPDEST SWAP2 POP POP SWAP3 POP SWAP3 POP SWAP3 JUMP JUMPDEST PUSH1 0x0 DUP1 PUSH1 0x0 DUP1 PUSH1 0x80 DUP6 DUP8 SUB SLT ISZERO PUSH2 0x3A7F JUMPI PUSH2 0x3A7E PUSH2 0x44BA JUMP JUMPDEST JUMPDEST PUSH1 0x0 DUP6 ADD CALLDATALOAD PUSH8 0xFFFFFFFFFFFFFFFF DUP2 GT ISZERO PUSH2 0x3A9D JUMPI PUSH2 0x3A9C PUSH2 0x44B5 JUMP JUMPDEST JUMPDEST PUSH2 0x3AA9 DUP8 DUP3 DUP9 ADD PUSH2 0x3650 JUMP JUMPDEST SWAP5 POP POP PUSH1 0x20 DUP6 ADD CALLDATALOAD PUSH8 0xFFFFFFFFFFFFFFFF DUP2 GT ISZERO PUSH2 0x3ACA JUMPI PUSH2 0x3AC9 PUSH2 0x44B5 JUMP JUMPDEST JUMPDEST PUSH2 0x3AD6 DUP8 DUP3 DUP9 ADD PUSH2 0x3650 JUMP JUMPDEST SWAP4 POP POP PUSH1 0x40 PUSH2 0x3AE7 DUP8 DUP3 DUP9 ADD PUSH2 0x3611 JUMP JUMPDEST SWAP3 POP POP PUSH1 0x60 PUSH2 0x3AF8 DUP8 DUP3 DUP9 ADD PUSH2 0x3611 JUMP JUMPDEST SWAP2 POP POP SWAP3 SWAP6 SWAP2 SWAP5 POP SWAP3 POP JUMP JUMPDEST PUSH1 0x0 PUSH2 0x3B10 DUP4 DUP4 PUSH2 0x3B44 JUMP JUMPDEST PUSH1 0x20 DUP4 ADD SWAP1 POP SWAP3 SWAP2 POP POP JUMP JUMPDEST PUSH1 0x0 PUSH2 0x3B28 DUP4 DUP4 PUSH2 0x3CC8 JUMP JUMPDEST SWAP1 POP SWAP3 SWAP2 POP POP JUMP JUMPDEST PUSH1 0x0 PUSH2 0x3B3C DUP4 DUP4 PUSH2 0x3E83 JUMP JUMPDEST SWAP1 POP SWAP3 SWAP2 POP POP JUMP JUMPDEST PUSH2 0x3B4D DUP2 PUSH2 0x4315 JUMP JUMPDEST DUP3 MSTORE POP POP JUMP JUMPDEST PUSH2 0x3B5C DUP2 PUSH2 0x4315 JUMP JUMPDEST DUP3 MSTORE POP POP JUMP JUMPDEST PUSH1 0x0 PUSH2 0x3B6D DUP3 PUSH2 0x4262 JUMP JUMPDEST PUSH2 0x3B77 DUP2 DUP6 PUSH2 0x42B5 JUMP JUMPDEST SWAP4 POP PUSH2 0x3B82 DUP4 PUSH2 0x4232 JUMP JUMPDEST DUP1 PUSH1 0x0 JUMPDEST DUP4 DUP2 LT ISZERO PUSH2 0x3BB3 JUMPI DUP2 MLOAD PUSH2 0x3B9A DUP9 DUP3 PUSH2 0x3B04 JUMP JUMPDEST SWAP8 POP PUSH2 0x3BA5 DUP4 PUSH2 0x428E JUMP JUMPDEST SWAP3 POP POP PUSH1 0x1 DUP2 ADD SWAP1 POP PUSH2 0x3B86 JUMP JUMPDEST POP DUP6 SWAP4 POP POP POP POP SWAP3 SWAP2 POP POP JUMP JUMPDEST PUSH1 0x0 PUSH2 0x3BCB DUP3 PUSH2 0x426D JUMP JUMPDEST PUSH2 0x3BD5 DUP2 DUP6 PUSH2 0x42C6 JUMP JUMPDEST SWAP4 POP DUP4 PUSH1 0x20 DUP3 MUL DUP6 ADD PUSH2 0x3BE7 DUP6 PUSH2 0x4242 JUMP JUMPDEST DUP1 PUSH1 0x0 JUMPDEST DUP6 DUP2 LT ISZERO PUSH2 0x3C23 JUMPI DUP5 DUP5 SUB DUP10 MSTORE DUP2 MLOAD PUSH2 0x3C04 DUP6 DUP3 PUSH2 0x3B1C JUMP JUMPDEST SWAP5 POP PUSH2 0x3C0F DUP4 PUSH2 0x429B JUMP JUMPDEST SWAP3 POP PUSH1 0x20 DUP11 ADD SWAP10 POP POP PUSH1 0x1 DUP2 ADD SWAP1 POP PUSH2 0x3BEB JUMP JUMPDEST POP DUP3 SWAP8 POP DUP8 SWAP6 POP POP POP POP POP POP SWAP3 SWAP2 POP POP JUMP JUMPDEST PUSH1 0x0 PUSH2 0x3C40 DUP3 PUSH2 0x4278 JUMP JUMPDEST PUSH2 0x3C4A DUP2 DUP6 PUSH2 0x42D7 JUMP JUMPDEST SWAP4 POP DUP4 PUSH1 0x20 DUP3 MUL DUP6 ADD PUSH2 0x3C5C DUP6 PUSH2 0x4252 JUMP JUMPDEST DUP1 PUSH1 0x0 JUMPDEST DUP6 DUP2 LT ISZERO PUSH2 0x3C98 JUMPI DUP5 DUP5 SUB DUP10 MSTORE DUP2 MLOAD PUSH2 0x3C79 DUP6 DUP3 PUSH2 0x3B30 JUMP JUMPDEST SWAP5 POP PUSH2 0x3C84 DUP4 PUSH2 0x42A8 JUMP JUMPDEST SWAP3 POP PUSH1 0x20 DUP11 ADD SWAP10 POP POP PUSH1 0x1 DUP2 ADD SWAP1 POP PUSH2 0x3C60 JUMP JUMPDEST POP DUP3 SWAP8 POP DUP8 SWAP6 POP POP POP POP POP POP SWAP3 SWAP2 POP POP JUMP JUMPDEST PUSH2 0x3CB3 DUP2 PUSH2 0x4339 JUMP JUMPDEST DUP3 MSTORE POP POP JUMP JUMPDEST PUSH2 0x3CC2 DUP2 PUSH2 0x4345 JUMP JUMPDEST DUP3 MSTORE POP POP JUMP JUMPDEST PUSH1 0x0 PUSH2 0x3CD3 DUP3 PUSH2 0x4283 JUMP JUMPDEST PUSH2 0x3CDD DUP2 DUP6 PUSH2 0x42E8 JUMP JUMPDEST SWAP4 POP PUSH2 0x3CED DUP2 DUP6 PUSH1 0x20 DUP7 ADD PUSH2 0x4388 JUMP JUMPDEST PUSH2 0x3CF6 DUP2 PUSH2 0x44BF JUMP JUMPDEST DUP5 ADD SWAP2 POP POP SWAP3 SWAP2 POP POP JUMP JUMPDEST PUSH1 0x0 PUSH2 0x3D0C DUP3 PUSH2 0x4283 JUMP JUMPDEST PUSH2 0x3D16 DUP2 DUP6 PUSH2 0x42F9 JUMP JUMPDEST SWAP4 POP PUSH2 0x3D26 DUP2 DUP6 PUSH1 0x20 DUP7 ADD PUSH2 0x4388 JUMP JUMPDEST PUSH2 0x3D2F DUP2 PUSH2 0x44BF JUMP JUMPDEST DUP5 ADD SWAP2 POP POP SWAP3 SWAP2 POP POP JUMP JUMPDEST PUSH1 0x0 PUSH2 0x3D45 DUP3 PUSH2 0x4283 JUMP JUMPDEST PUSH2 0x3D4F DUP2 DUP6 PUSH2 0x430A JUMP JUMPDEST SWAP4 POP PUSH2 0x3D5F DUP2 DUP6 PUSH1 0x20 DUP7 ADD PUSH2 0x4388 JUMP JUMPDEST DUP1 DUP5 ADD SWAP2 POP POP SWAP3 SWAP2 POP POP JUMP JUMPDEST PUSH1 0x0 PUSH2 0x3D78 PUSH1 0x1B DUP4 PUSH2 0x42F9 JUMP JUMPDEST SWAP2 POP PUSH2 0x3D83 DUP3 PUSH2 0x44D0 JUMP JUMPDEST PUSH1 0x20 DUP3 ADD SWAP1 POP SWAP2 SWAP1 POP JUMP JUMPDEST PUSH1 0x0 PUSH2 0x3D9B PUSH1 0x22 DUP4 PUSH2 0x42F9 JUMP JUMPDEST SWAP2 POP PUSH2 0x3DA6 DUP3 PUSH2 0x44F9 JUMP JUMPDEST PUSH1 0x40 DUP3 ADD SWAP1 POP SWAP2 SWAP1 POP JUMP JUMPDEST PUSH1 0x0 PUSH2 0x3DBE PUSH1 0xB DUP4 PUSH2 0x42F9 JUMP JUMPDEST SWAP2 POP PUSH2 0x3DC9 DUP3 PUSH2 0x4548 JUMP JUMPDEST PUSH1 0x20 DUP3 ADD SWAP1 POP SWAP2 SWAP1 POP JUMP JUMPDEST PUSH1 0x0 PUSH2 0x3DE1 PUSH1 0x9 DUP4 PUSH2 0x42F9 JUMP JUMPDEST SWAP2 POP PUSH2 0x3DEC DUP3 PUSH2 0x4571 JUMP JUMPDEST PUSH1 0x20 DUP3 ADD SWAP1 POP SWAP2 SWAP1 POP JUMP JUMPDEST PUSH1 0x0 PUSH2 0x3E04 PUSH1 0xC DUP4 PUSH2 0x42F9 JUMP JUMPDEST SWAP2 POP PUSH2 0x3E0F DUP3 PUSH2 0x459A JUMP JUMPDEST PUSH1 0x20 DUP3 ADD SWAP1 POP SWAP2 SWAP1 POP JUMP JUMPDEST PUSH1 0x0 PUSH2 0x3E27 PUSH1 0xD DUP4 PUSH2 0x42F9 JUMP JUMPDEST SWAP2 POP PUSH2 0x3E32 DUP3 PUSH2 0x45C3 JUMP JUMPDEST PUSH1 0x20 DUP3 ADD SWAP1 POP SWAP2 SWAP1 POP JUMP JUMPDEST PUSH1 0x0 PUSH2 0x3E4A PUSH1 0x16 DUP4 PUSH2 0x42F9 JUMP JUMPDEST SWAP2 POP PUSH2 0x3E55 DUP3 PUSH2 0x45EC JUMP JUMPDEST PUSH1 0x20 DUP3 ADD SWAP1 POP SWAP2 SWAP1 POP JUMP JUMPDEST PUSH1 0x0 PUSH2 0x3E6D PUSH1 0xB DUP4 PUSH2 0x42F9 JUMP JUMPDEST SWAP2 POP PUSH2 0x3E78 DUP3 PUSH2 0x4615 JUMP JUMPDEST PUSH1 0x20 DUP3 ADD SWAP1 POP SWAP2 SWAP1 POP JUMP JUMPDEST PUSH1 0x0 PUSH1 0x80 DUP4 ADD PUSH1 0x0 DUP4 ADD MLOAD PUSH2 0x3E9B PUSH1 0x0 DUP7 ADD DUP3 PUSH2 0x3B44 JUMP JUMPDEST POP PUSH1 0x20 DUP4 ADD MLOAD DUP5 DUP3 SUB PUSH1 0x20 DUP7 ADD MSTORE PUSH2 0x3EB3 DUP3 DUP3 PUSH2 0x3CC8 JUMP JUMPDEST SWAP2 POP POP PUSH1 0x40 DUP4 ADD MLOAD DUP5 DUP3 SUB PUSH1 0x40 DUP7 ADD MSTORE PUSH2 0x3ECD DUP3 DUP3 PUSH2 0x3CC8 JUMP JUMPDEST SWAP2 POP POP PUSH1 0x60 DUP4 ADD MLOAD PUSH2 0x3EE2 PUSH1 0x60 DUP7 ADD DUP3 PUSH2 0x3CAA JUMP JUMPDEST POP DUP1 SWAP2 POP POP SWAP3 SWAP2 POP POP JUMP JUMPDEST PUSH2 0x3EF6 DUP2 PUSH2 0x436F JUMP JUMPDEST DUP3 MSTORE POP POP JUMP JUMPDEST PUSH1 0x0 PUSH2 0x3F08 DUP3 DUP5 PUSH2 0x3D3A JUMP JUMPDEST SWAP2 POP DUP2 SWAP1 POP SWAP3 SWAP2 POP POP JUMP JUMPDEST PUSH1 0x0 PUSH1 0xC0 DUP3 ADD SWAP1 POP PUSH2 0x3F28 PUSH1 0x0 DUP4 ADD DUP10 PUSH2 0x3B53 JUMP JUMPDEST PUSH2 0x3F35 PUSH1 0x20 DUP4 ADD DUP9 PUSH2 0x3B53 JUMP JUMPDEST DUP2 DUP2 SUB PUSH1 0x40 DUP4 ADD MSTORE PUSH2 0x3F47 DUP2 DUP8 PUSH2 0x3D01 JUMP JUMPDEST SWAP1 POP PUSH2 0x3F56 PUSH1 0x60 DUP4 ADD DUP7 PUSH2 0x3EED JUMP JUMPDEST PUSH2 0x3F63 PUSH1 0x80 DUP4 ADD DUP6 PUSH2 0x3EED JUMP JUMPDEST PUSH2 0x3F70 PUSH1 0xA0 DUP4 ADD DUP5 PUSH2 0x3CB9 JUMP JUMPDEST SWAP8 SWAP7 POP POP POP POP POP POP POP JUMP JUMPDEST PUSH1 0x0 PUSH1 0x40 DUP3 ADD SWAP1 POP PUSH2 0x3F90 PUSH1 0x0 DUP4 ADD DUP6 PUSH2 0x3B53 JUMP JUMPDEST DUP2 DUP2 SUB PUSH1 0x20 DUP4 ADD MSTORE PUSH2 0x3FA2 DUP2 DUP5 PUSH2 0x3D01 JUMP JUMPDEST SWAP1 POP SWAP4 SWAP3 POP POP POP JUMP JUMPDEST PUSH1 0x0 PUSH1 0x80 DUP3 ADD SWAP1 POP DUP2 DUP2 SUB PUSH1 0x0 DUP4 ADD MSTORE PUSH2 0x3FC5 DUP2 DUP8 PUSH2 0x3D01 JUMP JUMPDEST SWAP1 POP DUP2 DUP2 SUB PUSH1 0x20 DUP4 ADD MSTORE PUSH2 0x3FD9 DUP2 DUP7 PUSH2 0x3C35 JUMP JUMPDEST SWAP1 POP DUP2 DUP2 SUB PUSH1 0x40 DUP4 ADD MSTORE PUSH2 0x3FED DUP2 DUP6 PUSH2 0x3BC0 JUMP JUMPDEST SWAP1 POP DUP2 DUP2 SUB PUSH1 0x60 DUP4 ADD MSTORE PUSH2 0x4001 DUP2 DUP5 PUSH2 0x3B62 JUMP JUMPDEST SWAP1 POP SWAP6 SWAP5 POP POP POP POP POP JUMP JUMPDEST PUSH1 0x0 PUSH1 0xA0 DUP3 ADD SWAP1 POP DUP2 DUP2 SUB PUSH1 0x0 DUP4 ADD MSTORE PUSH2 0x4026 DUP2 DUP9 PUSH2 0x3D01 JUMP JUMPDEST SWAP1 POP DUP2 DUP2 SUB PUSH1 0x20 DUP4 ADD MSTORE PUSH2 0x403A DUP2 DUP8 PUSH2 0x3D01 JUMP JUMPDEST SWAP1 POP DUP2 DUP2 SUB PUSH1 0x40 DUP4 ADD MSTORE PUSH2 0x404E DUP2 DUP7 PUSH2 0x3D01 JUMP JUMPDEST SWAP1 POP DUP2 DUP2 SUB PUSH1 0x60 DUP4 ADD MSTORE PUSH2 0x4062 DUP2 DUP6 PUSH2 0x3D01 JUMP JUMPDEST SWAP1 POP DUP2 DUP2 SUB PUSH1 0x80 DUP4 ADD MSTORE PUSH2 0x4076 DUP2 DUP5 PUSH2 0x3BC0 JUMP JUMPDEST SWAP1 POP SWAP7 SWAP6 POP POP POP POP POP POP JUMP JUMPDEST PUSH1 0x0 PUSH1 0x80 DUP3 ADD SWAP1 POP DUP2 DUP2 SUB PUSH1 0x0 DUP4 ADD MSTORE PUSH2 0x409C DUP2 DUP8 PUSH2 0x3D01 JUMP JUMPDEST SWAP1 POP DUP2 DUP2 SUB PUSH1 0x20 DUP4 ADD MSTORE PUSH2 0x40B0 DUP2 DUP7 PUSH2 0x3D01 JUMP JUMPDEST SWAP1 POP PUSH2 0x40BF PUSH1 0x40 DUP4 ADD DUP6 PUSH2 0x3EED JUMP JUMPDEST DUP2 DUP2 SUB PUSH1 0x60 DUP4 ADD MSTORE PUSH2 0x40D1 DUP2 DUP5 PUSH2 0x3BC0 JUMP JUMPDEST SWAP1 POP SWAP6 SWAP5 POP POP POP POP POP JUMP JUMPDEST PUSH1 0x0 PUSH1 0x20 DUP3 ADD SWAP1 POP DUP2 DUP2 SUB PUSH1 0x0 DUP4 ADD MSTORE PUSH2 0x40F5 DUP2 PUSH2 0x3D6B JUMP JUMPDEST SWAP1 POP SWAP2 SWAP1 POP JUMP JUMPDEST PUSH1 0x0 PUSH1 0x20 DUP3 ADD SWAP1 POP DUP2 DUP2 SUB PUSH1 0x0 DUP4 ADD MSTORE PUSH2 0x4115 DUP2 PUSH2 0x3D8E JUMP JUMPDEST SWAP1 POP SWAP2 SWAP1 POP JUMP JUMPDEST PUSH1 0x0 PUSH1 0x20 DUP3 ADD SWAP1 POP DUP2 DUP2 SUB PUSH1 0x0 DUP4 ADD MSTORE PUSH2 0x4135 DUP2 PUSH2 0x3DB1 JUMP JUMPDEST SWAP1 POP SWAP2 SWAP1 POP JUMP JUMPDEST PUSH1 0x0 PUSH1 0x20 DUP3 ADD SWAP1 POP DUP2 DUP2 SUB PUSH1 0x0 DUP4 ADD MSTORE PUSH2 0x4155 DUP2 PUSH2 0x3DD4 JUMP JUMPDEST SWAP1 POP SWAP2 SWAP1 POP JUMP JUMPDEST PUSH1 0x0 PUSH1 0x20 DUP3 ADD SWAP1 POP DUP2 DUP2 SUB PUSH1 0x0 DUP4 ADD MSTORE PUSH2 0x4175 DUP2 PUSH2 0x3DF7 JUMP JUMPDEST SWAP1 POP SWAP2 SWAP1 POP JUMP JUMPDEST PUSH1 0x0 PUSH1 0x20 DUP3 ADD SWAP1 POP DUP2 DUP2 SUB PUSH1 0x0 DUP4 ADD MSTORE PUSH2 0x4195 DUP2 PUSH2 0x3E1A JUMP JUMPDEST SWAP1 POP SWAP2 SWAP1 POP JUMP JUMPDEST PUSH1 0x0 PUSH1 0x20 DUP3 ADD SWAP1 POP DUP2 DUP2 SUB PUSH1 0x0 DUP4 ADD MSTORE PUSH2 0x41B5 DUP2 PUSH2 0x3E3D JUMP JUMPDEST SWAP1 POP SWAP2 SWAP1 POP JUMP JUMPDEST PUSH1 0x0 PUSH1 0x20 DUP3 ADD SWAP1 POP DUP2 DUP2 SUB PUSH1 0x0 DUP4 ADD MSTORE PUSH2 0x41D5 DUP2 PUSH2 0x3E60 JUMP JUMPDEST SWAP1 POP SWAP2 SWAP1 POP JUMP JUMPDEST PUSH1 0x0 PUSH2 0x41E6 PUSH2 0x41F7 JUMP JUMPDEST SWAP1 POP PUSH2 0x41F2 DUP3 DUP3 PUSH2 0x43ED JUMP JUMPDEST SWAP2 SWAP1 POP JUMP JUMPDEST PUSH1 0x0 PUSH1 0x40 MLOAD SWAP1 POP SWAP1 JUMP JUMPDEST PUSH1 0x0 PUSH8 0xFFFFFFFFFFFFFFFF DUP3 GT ISZERO PUSH2 0x421C JUMPI PUSH2 0x421B PUSH2 0x447C JUMP JUMPDEST JUMPDEST PUSH2 0x4225 DUP3 PUSH2 0x44BF JUMP JUMPDEST SWAP1 POP PUSH1 0x20 DUP2 ADD SWAP1 POP SWAP2 SWAP1 POP JUMP JUMPDEST PUSH1 0x0 DUP2 SWAP1 POP PUSH1 0x20 DUP3 ADD SWAP1 POP SWAP2 SWAP1 POP JUMP JUMPDEST PUSH1 0x0 DUP2 SWAP1 POP PUSH1 0x20 DUP3 ADD SWAP1 POP SWAP2 SWAP1 POP JUMP JUMPDEST PUSH1 0x0 DUP2 SWAP1 POP PUSH1 0x20 DUP3 ADD SWAP1 POP SWAP2 SWAP1 POP JUMP JUMPDEST PUSH1 0x0 DUP2 MLOAD SWAP1 POP SWAP2 SWAP1 POP JUMP JUMPDEST PUSH1 0x0 DUP2 MLOAD SWAP1 POP SWAP2 SWAP1 POP JUMP JUMPDEST PUSH1 0x0 DUP2 MLOAD SWAP1 POP SWAP2 SWAP1 POP JUMP JUMPDEST PUSH1 0x0 DUP2 MLOAD SWAP1 POP SWAP2 SWAP1 POP JUMP JUMPDEST PUSH1 0x0 PUSH1 0x20 DUP3 ADD SWAP1 POP SWAP2 SWAP1 POP JUMP JUMPDEST PUSH1 0x0 PUSH1 0x20 DUP3 ADD SWAP1 POP SWAP2 SWAP1 POP JUMP JUMPDEST PUSH1 0x0 PUSH1 0x20 DUP3 ADD SWAP1 POP SWAP2 SWAP1 POP JUMP JUMPDEST PUSH1 0x0 DUP3 DUP3 MSTORE PUSH1 0x20 DUP3 ADD SWAP1 POP SWAP3 SWAP2 POP POP JUMP JUMPDEST PUSH1 0x0 DUP3 DUP3 MSTORE PUSH1 0x20 DUP3 ADD SWAP1 POP SWAP3 SWAP2 POP POP JUMP JUMPDEST PUSH1 0x0 DUP3 DUP3 MSTORE PUSH1 0x20 DUP3 ADD SWAP1 POP SWAP3 SWAP2 POP POP JUMP JUMPDEST PUSH1 0x0 DUP3 DUP3 MSTORE PUSH1 0x20 DUP3 ADD SWAP1 POP SWAP3 SWAP2 POP POP JUMP JUMPDEST PUSH1 0x0 DUP3 DUP3 MSTORE PUSH1 0x20 DUP3 ADD SWAP1 POP SWAP3 SWAP2 POP POP JUMP JUMPDEST PUSH1 0x0 DUP2 SWAP1 POP SWAP3 SWAP2 POP POP JUMP JUMPDEST PUSH1 0x0 PUSH2 0x4320 DUP3 PUSH2 0x434F JUMP JUMPDEST SWAP1 POP SWAP2 SWAP1 POP JUMP JUMPDEST PUSH1 0x0 PUSH2 0x4332 DUP3 PUSH2 0x434F JUMP JUMPDEST SWAP1 POP SWAP2 SWAP1 POP JUMP JUMPDEST PUSH1 0x0 DUP2 ISZERO ISZERO SWAP1 POP SWAP2 SWAP1 POP JUMP JUMPDEST PUSH1 0x0 DUP2 SWAP1 POP SWAP2 SWAP1 POP JUMP JUMPDEST PUSH1 0x0 PUSH20 0xFFFFFFFFFFFFFFFFFFFFFFFFFFFFFFFFFFFFFFFF DUP3 AND SWAP1 POP SWAP2 SWAP1 POP JUMP JUMPDEST PUSH1 0x0 DUP2 SWAP1 POP SWAP2 SWAP1 POP JUMP JUMPDEST DUP3 DUP2 DUP4 CALLDATACOPY PUSH1 0x0 DUP4 DUP4 ADD MSTORE POP POP POP JUMP JUMPDEST PUSH1 0x0 JUMPDEST DUP4 DUP2 LT ISZERO PUSH2 0x43A6 JUMPI DUP1 DUP3 ADD MLOAD DUP2 DUP5 ADD MSTORE PUSH1 0x20 DUP2 ADD SWAP1 POP PUSH2 0x438B JUMP JUMPDEST DUP4 DUP2 GT ISZERO PUSH2 0x43B5 JUMPI PUSH1 0x0 DUP5 DUP5 ADD MSTORE JUMPDEST POP POP POP POP JUMP JUMPDEST PUSH1 0x0 PUSH1 0x2 DUP3 DIV SWAP1 POP PUSH1 0x1 DUP3 AND DUP1 PUSH2 0x43D3 JUMPI PUSH1 0x7F DUP3 AND SWAP2 POP JUMPDEST PUSH1 0x20 DUP3 LT DUP2 EQ ISZERO PUSH2 0x43E7 JUMPI PUSH2 0x43E6 PUSH2 0x444D JUMP JUMPDEST JUMPDEST POP SWAP2 SWAP1 POP JUMP JUMPDEST PUSH2 0x43F6 DUP3 PUSH2 0x44BF JUMP JUMPDEST DUP2 ADD DUP2 DUP2 LT PUSH8 0xFFFFFFFFFFFFFFFF DUP3 GT OR ISZERO PUSH2 0x4415 JUMPI PUSH2 0x4414 PUSH2 0x447C JUMP JUMPDEST JUMPDEST DUP1 PUSH1 0x40 MSTORE POP POP POP JUMP JUMPDEST PUSH32 0x4E487B7100000000000000000000000000000000000000000000000000000000 PUSH1 0x0 MSTORE PUSH1 0x21 PUSH1 0x4 MSTORE PUSH1 0x24 PUSH1 0x0 REVERT JUMPDEST PUSH32 0x4E487B7100000000000000000000000000000000000000000000000000000000 PUSH1 0x0 MSTORE PUSH1 0x22 PUSH1 0x4 MSTORE PUSH1 0x24 PUSH1 0x0 REVERT JUMPDEST PUSH32 0x4E487B7100000000000000000000000000000000000000000000000000000000 PUSH1 0x0 MSTORE PUSH1 0x41 PUSH1 0x4 MSTORE PUSH1 0x24 PUSH1 0x0 REVERT JUMPDEST PUSH1 0x0 DUP1 REVERT JUMPDEST PUSH1 0x0 DUP1 REVERT JUMPDEST PUSH1 0x0 DUP1 REVERT JUMPDEST PUSH1 0x0 DUP1 REVERT JUMPDEST PUSH1 0x0 PUSH1 0x1F NOT PUSH1 0x1F DUP4 ADD AND SWAP1 POP SWAP2 SWAP1 POP JUMP JUMPDEST PUSH32 0x596F7520616C726561647920636865636B207468697320636173650000000000 PUSH1 0x0 DUP3 ADD MSTORE POP JUMP JUMPDEST PUSH32 0x596F7572206C6F67696E20616C726561647920657869737420696E2073797374 PUSH1 0x0 DUP3 ADD MSTORE PUSH32 0x656D000000000000000000000000000000000000000000000000000000000000 PUSH1 0x20 DUP3 ADD MSTORE POP JUMP JUMPDEST PUSH32 0x4C6F772062616C616E6365000000000000000000000000000000000000000000 PUSH1 0x0 DUP3 ADD MSTORE POP JUMP JUMPDEST PUSH32 0x466F7262696464656E0000000000000000000000000000000000000000000000 PUSH1 0x0 DUP3 ADD MSTORE POP JUMP JUMPDEST PUSH32 0x596F75206E6F7420757365720000000000000000000000000000000000000000 PUSH1 0x0 DUP3 ADD MSTORE POP JUMP JUMPDEST PUSH32 0x596F75206E6F742061646D696E00000000000000000000000000000000000000 PUSH1 0x0 DUP3 ADD MSTORE POP JUMP JUMPDEST PUSH32 0x596F7520616C7265616479207265676973746572656400000000000000000000 PUSH1 0x0 DUP3 ADD MSTORE POP JUMP JUMPDEST PUSH32 0x57726F6E67204C6F67696E000000000000000000000000000000000000000000 PUSH1 0x0 DUP3 ADD MSTORE POP JUMP JUMPDEST PUSH2 0x4647 DUP2 PUSH2 0x4315 JUMP JUMPDEST DUP2 EQ PUSH2 0x4652 JUMPI PUSH1 0x0 DUP1 REVERT JUMPDEST POP JUMP JUMPDEST PUSH2 0x465E DUP2 PUSH2 0x4327 JUMP JUMPDEST DUP2 EQ PUSH2 0x4669 JUMPI PUSH1 0x0 DUP1 REVERT JUMPDEST POP JUMP JUMPDEST PUSH2 0x4675 DUP2 PUSH2 0x4345 JUMP JUMPDEST DUP2 EQ PUSH2 0x4680 JUMPI PUSH1 0x0 DUP1 REVERT JUMPDEST POP JUMP INVALID LOG2 PUSH5 0x6970667358 0x22 SLT KECCAK256 PUSH2 0xAE89 0xCF LOG2 SLOAD JUMPDEST 0xB2 0x4F 0x1F 0xC6 0xA9 PUSH11 0x1DAD3F1F72FDDDBBB2E058 SWAP6 BASEFEE 0x21 PUSH10 0xC018A91B64736F6C6343 STOP ADDMOD SMOD STOP CALLER "
				},
				"gasEstimates": {
					"creation": {
						"codeDepositCost": "3621000",
						"executionCost": "infinite",
						"totalCost": "infinite"
					},
					"external": {
						"createReview(address,string,string,int256)": "infinite",
						"disLikeReview(string)": "infinite",
						"doShopDebt(address)": "infinite",
						"downRequestToByer()": "2747",
						"getAdminInfo()": "infinite",
						"getBuyerInfo()": "infinite",
						"getReviewById(string)": "infinite",
						"getSellerInfo()": "infinite",
						"getSellerInfoByAddr(address)": "infinite",
						"likeReview(string)": "infinite",
						"login(string)": "infinite",
						"regAdmin(address,string,string)": "infinite",
						"registerAdmin(string,string)": "infinite",
						"registerBank(string,address)": "infinite",
						"registerBuyer(string,string,address)": "infinite",
						"registerProvider(string,address)": "infinite",
						"registerSeller(string,string,address,address)": "infinite",
						"registerShop(address,string,string,string)": "infinite",
						"requestToSeller()": "2768"
					}
				},
				"methodIdentifiers": {
					"createReview(address,string,string,int256)": "2d6abf59",
					"disLikeReview(string)": "bce62a74",
					"doShopDebt(address)": "83db0f6d",
					"downRequestToByer()": "8edc85f9",
					"getAdminInfo()": "c3d5fd39",
					"getBuyerInfo()": "99b958ee",
					"getReviewById(string)": "2f0185c4",
					"getSellerInfo()": "54504c12",
					"getSellerInfoByAddr(address)": "08e74858",
					"likeReview(string)": "7b3c7488",
					"login(string)": "3a7d280c",
					"regAdmin(address,string,string)": "a59d105f",
					"registerAdmin(string,string)": "f8f98b79",
					"registerBank(string,address)": "2156a781",
					"registerBuyer(string,string,address)": "9d344d10",
					"registerProvider(string,address)": "7ccb2bd8",
					"registerSeller(string,string,address,address)": "8403f848",
					"registerShop(address,string,string,string)": "7558b2f8",
					"requestToSeller()": "d5eabbbe"
				}
			},
			"storageLayout": {
				"storage": [
					{
						"astId": 37,
						"contract": "contracts/Shops.sol:ShopsSystem",
						"label": "userStatus",
						"offset": 0,
						"slot": "0",
						"type": "t_mapping(t_uint256,t_string_storage)"
					},
					{
						"astId": 41,
						"contract": "contracts/Shops.sol:ShopsSystem",
						"label": "userLogins",
						"offset": 0,
						"slot": "1",
						"type": "t_mapping(t_string_memory_ptr,t_address)"
					},
					{
						"astId": 46,
						"contract": "contracts/Shops.sol:ShopsSystem",
						"label": "users",
						"offset": 0,
						"slot": "2",
						"type": "t_mapping(t_address,t_struct(User)33_storage)"
					},
					{
						"astId": 337,
						"contract": "contracts/Shops.sol:ShopsSystem",
						"label": "likeCountCheck",
						"offset": 0,
						"slot": "3",
						"type": "t_mapping(t_address,t_bool)"
					},
					{
						"astId": 339,
						"contract": "contracts/Shops.sol:ShopsSystem",
						"label": "provider",
						"offset": 0,
						"slot": "4",
						"type": "t_address"
					},
					{
						"astId": 341,
						"contract": "contracts/Shops.sol:ShopsSystem",
						"label": "admin",
						"offset": 0,
						"slot": "5",
						"type": "t_address"
					},
					{
						"astId": 344,
						"contract": "contracts/Shops.sol:ShopsSystem",
						"label": "admins",
						"offset": 0,
						"slot": "6",
						"type": "t_array(t_string_storage)dyn_storage"
					},
					{
						"astId": 346,
						"contract": "contracts/Shops.sol:ShopsSystem",
						"label": "bank",
						"offset": 0,
						"slot": "7",
						"type": "t_address_payable"
					},
					{
						"astId": 349,
						"contract": "contracts/Shops.sol:ShopsSystem",
						"label": "sellers",
						"offset": 0,
						"slot": "8",
						"type": "t_array(t_address)dyn_storage"
					},
					{
						"astId": 352,
						"contract": "contracts/Shops.sol:ShopsSystem",
						"label": "shopsAddresses",
						"offset": 0,
						"slot": "9",
						"type": "t_array(t_address)dyn_storage"
					},
					{
						"astId": 356,
						"contract": "contracts/Shops.sol:ShopsSystem",
						"label": "requests",
						"offset": 0,
						"slot": "10",
						"type": "t_array(t_struct(Request)331_storage)dyn_storage"
					},
					{
						"astId": 361,
						"contract": "contracts/Shops.sol:ShopsSystem",
						"label": "ShopsList",
						"offset": 0,
						"slot": "11",
						"type": "t_mapping(t_address,t_struct(Shop)322_storage)"
					},
					{
						"astId": 365,
						"contract": "contracts/Shops.sol:ShopsSystem",
						"label": "salesmanShop",
						"offset": 0,
						"slot": "12",
						"type": "t_mapping(t_address,t_address)"
					},
					{
						"astId": 370,
						"contract": "contracts/Shops.sol:ShopsSystem",
						"label": "salesmen",
						"offset": 0,
						"slot": "13",
						"type": "t_mapping(t_address,t_array(t_address)dyn_storage)"
					},
					{
						"astId": 375,
						"contract": "contracts/Shops.sol:ShopsSystem",
						"label": "shopReviews",
						"offset": 0,
						"slot": "14",
						"type": "t_mapping(t_address,t_array(t_string_storage)dyn_storage)"
					},
					{
						"astId": 380,
						"contract": "contracts/Shops.sol:ShopsSystem",
						"label": "reviewId",
						"offset": 0,
						"slot": "15",
						"type": "t_mapping(t_string_memory_ptr,t_struct(Review)23_storage)"
					},
					{
						"astId": 386,
						"contract": "contracts/Shops.sol:ShopsSystem",
						"label": "reviewCom",
						"offset": 0,
						"slot": "16",
						"type": "t_mapping(t_string_memory_ptr,t_mapping(t_address,t_bool))"
					}
				],
				"types": {
					"t_address": {
						"encoding": "inplace",
						"label": "address",
						"numberOfBytes": "20"
					},
					"t_address_payable": {
						"encoding": "inplace",
						"label": "address payable",
						"numberOfBytes": "20"
					},
					"t_array(t_address)dyn_storage": {
						"base": "t_address",
						"encoding": "dynamic_array",
						"label": "address[]",
						"numberOfBytes": "32"
					},
					"t_array(t_string_storage)dyn_storage": {
						"base": "t_string_storage",
						"encoding": "dynamic_array",
						"label": "string[]",
						"numberOfBytes": "32"
					},
					"t_array(t_struct(Request)331_storage)dyn_storage": {
						"base": "t_struct(Request)331_storage",
						"encoding": "dynamic_array",
						"label": "struct Request[]",
						"numberOfBytes": "32"
					},
					"t_bool": {
						"encoding": "inplace",
						"label": "bool",
						"numberOfBytes": "1"
					},
					"t_int256": {
						"encoding": "inplace",
						"label": "int256",
						"numberOfBytes": "32"
					},
					"t_mapping(t_address,t_address)": {
						"encoding": "mapping",
						"key": "t_address",
						"label": "mapping(address => address)",
						"numberOfBytes": "32",
						"value": "t_address"
					},
					"t_mapping(t_address,t_array(t_address)dyn_storage)": {
						"encoding": "mapping",
						"key": "t_address",
						"label": "mapping(address => address[])",
						"numberOfBytes": "32",
						"value": "t_array(t_address)dyn_storage"
					},
					"t_mapping(t_address,t_array(t_string_storage)dyn_storage)": {
						"encoding": "mapping",
						"key": "t_address",
						"label": "mapping(address => string[])",
						"numberOfBytes": "32",
						"value": "t_array(t_string_storage)dyn_storage"
					},
					"t_mapping(t_address,t_bool)": {
						"encoding": "mapping",
						"key": "t_address",
						"label": "mapping(address => bool)",
						"numberOfBytes": "32",
						"value": "t_bool"
					},
					"t_mapping(t_address,t_struct(Shop)322_storage)": {
						"encoding": "mapping",
						"key": "t_address",
						"label": "mapping(address => struct Shop)",
						"numberOfBytes": "32",
						"value": "t_struct(Shop)322_storage"
					},
					"t_mapping(t_address,t_struct(User)33_storage)": {
						"encoding": "mapping",
						"key": "t_address",
						"label": "mapping(address => struct User)",
						"numberOfBytes": "32",
						"value": "t_struct(User)33_storage"
					},
					"t_mapping(t_string_memory_ptr,t_address)": {
						"encoding": "mapping",
						"key": "t_string_memory_ptr",
						"label": "mapping(string => address)",
						"numberOfBytes": "32",
						"value": "t_address"
					},
					"t_mapping(t_string_memory_ptr,t_mapping(t_address,t_bool))": {
						"encoding": "mapping",
						"key": "t_string_memory_ptr",
						"label": "mapping(string => mapping(address => bool))",
						"numberOfBytes": "32",
						"value": "t_mapping(t_address,t_bool)"
					},
					"t_mapping(t_string_memory_ptr,t_struct(Review)23_storage)": {
						"encoding": "mapping",
						"key": "t_string_memory_ptr",
						"label": "mapping(string => struct Review)",
						"numberOfBytes": "32",
						"value": "t_struct(Review)23_storage"
					},
					"t_mapping(t_uint256,t_string_storage)": {
						"encoding": "mapping",
						"key": "t_uint256",
						"label": "mapping(uint256 => string)",
						"numberOfBytes": "32",
						"value": "t_string_storage"
					},
					"t_string_memory_ptr": {
						"encoding": "bytes",
						"label": "string",
						"numberOfBytes": "32"
					},
					"t_string_storage": {
						"encoding": "bytes",
						"label": "string",
						"numberOfBytes": "32"
					},
					"t_struct(Request)331_storage": {
						"encoding": "inplace",
						"label": "struct Request",
						"members": [
							{
								"astId": 324,
								"contract": "contracts/Shops.sol:ShopsSystem",
								"label": "userAddr",
								"offset": 0,
								"slot": "0",
								"type": "t_address"
							},
							{
								"astId": 326,
								"contract": "contracts/Shops.sol:ShopsSystem",
								"label": "currentRole",
								"offset": 0,
								"slot": "1",
								"type": "t_string_storage"
							},
							{
								"astId": 328,
								"contract": "contracts/Shops.sol:ShopsSystem",
								"label": "desiredRole",
								"offset": 0,
								"slot": "2",
								"type": "t_string_storage"
							},
							{
								"astId": 330,
								"contract": "contracts/Shops.sol:ShopsSystem",
								"label": "checked",
								"offset": 0,
								"slot": "3",
								"type": "t_bool"
							}
						],
						"numberOfBytes": "128"
					},
					"t_struct(Review)23_storage": {
						"encoding": "inplace",
						"label": "struct Review",
						"members": [
							{
								"astId": 10,
								"contract": "contracts/Shops.sol:ShopsSystem",
								"label": "autorAddress",
								"offset": 0,
								"slot": "0",
								"type": "t_address"
							},
							{
								"astId": 12,
								"contract": "contracts/Shops.sol:ShopsSystem",
								"label": "shopAddr",
								"offset": 0,
								"slot": "1",
								"type": "t_address"
							},
							{
								"astId": 14,
								"contract": "contracts/Shops.sol:ShopsSystem",
								"label": "message",
								"offset": 0,
								"slot": "2",
								"type": "t_string_storage"
							},
							{
								"astId": 17,
								"contract": "contracts/Shops.sol:ShopsSystem",
								"label": "likeCount",
								"offset": 0,
								"slot": "3",
								"type": "t_array(t_address)dyn_storage"
							},
							{
								"astId": 20,
								"contract": "contracts/Shops.sol:ShopsSystem",
								"label": "disLikeCount",
								"offset": 0,
								"slot": "4",
								"type": "t_array(t_address)dyn_storage"
							},
							{
								"astId": 22,
								"contract": "contracts/Shops.sol:ShopsSystem",
								"label": "grade",
								"offset": 0,
								"slot": "5",
								"type": "t_int256"
							}
						],
						"numberOfBytes": "192"
					},
					"t_struct(Shop)322_storage": {
						"encoding": "inplace",
						"label": "struct Shop",
						"members": [
							{
								"astId": 317,
								"contract": "contracts/Shops.sol:ShopsSystem",
								"label": "number",
								"offset": 0,
								"slot": "0",
								"type": "t_string_storage"
							},
							{
								"astId": 319,
								"contract": "contracts/Shops.sol:ShopsSystem",
								"label": "city",
								"offset": 0,
								"slot": "1",
								"type": "t_string_storage"
							},
							{
								"astId": 321,
								"contract": "contracts/Shops.sol:ShopsSystem",
								"label": "debt",
								"offset": 0,
								"slot": "2",
								"type": "t_int256"
							}
						],
						"numberOfBytes": "96"
					},
					"t_struct(User)33_storage": {
						"encoding": "inplace",
						"label": "struct User",
						"members": [
							{
								"astId": 25,
								"contract": "contracts/Shops.sol:ShopsSystem",
								"label": "status",
								"offset": 0,
								"slot": "0",
								"type": "t_uint256"
							},
							{
								"astId": 27,
								"contract": "contracts/Shops.sol:ShopsSystem",
								"label": "userLogin",
								"offset": 0,
								"slot": "1",
								"type": "t_string_storage"
							},
							{
								"astId": 29,
								"contract": "contracts/Shops.sol:ShopsSystem",
								"label": "fio",
								"offset": 0,
								"slot": "2",
								"type": "t_string_storage"
							},
							{
								"astId": 32,
								"contract": "contracts/Shops.sol:ShopsSystem",
								"label": "reviews",
								"offset": 0,
								"slot": "3",
								"type": "t_array(t_string_storage)dyn_storage"
							}
						],
						"numberOfBytes": "128"
					},
					"t_uint256": {
						"encoding": "inplace",
						"label": "uint256",
						"numberOfBytes": "32"
					}
				}
			},
			"userdoc": {
				"kind": "user",
				"methods": {},
				"version": 1
			}
		}
	}
}