{
	"contracts/Shops.sol": {
		"ShopsSystem": {
			"abi": [
				{
					"inputs": [],
					"stateMutability": "nonpayable",
					"type": "constructor"
				},
				{
					"inputs": [
						{
							"internalType": "address",
							"name": "shopAddr",
							"type": "address"
						},
						{
							"internalType": "string",
							"name": "userMessage",
							"type": "string"
						},
						{
							"internalType": "string",
							"name": "id",
							"type": "string"
						},
						{
							"internalType": "int256",
							"name": "likeCount",
							"type": "int256"
						},
						{
							"internalType": "int256",
							"name": "dizlikeCount",
							"type": "int256"
						},
						{
							"internalType": "int256",
							"name": "grade",
							"type": "int256"
						}
					],
					"name": "createReview",
					"outputs": [],
					"stateMutability": "nonpayable",
					"type": "function"
				},
				{
					"inputs": [
						{
							"internalType": "address payable",
							"name": "shopAddr",
							"type": "address"
						}
					],
					"name": "doShopDebt",
					"outputs": [],
					"stateMutability": "nonpayable",
					"type": "function"
				},
				{
					"inputs": [],
					"name": "getAdminInfo",
					"outputs": [
						{
							"internalType": "string",
							"name": "login",
							"type": "string"
						},
						{
							"components": [
								{
									"internalType": "address",
									"name": "userAddr",
									"type": "address"
								},
								{
									"internalType": "string",
									"name": "currentRole",
									"type": "string"
								},
								{
									"internalType": "string",
									"name": "desiredRole",
									"type": "string"
								},
								{
									"internalType": "bool",
									"name": "checked",
									"type": "bool"
								}
							],
							"internalType": "struct Request[]",
							"name": "userRequests",
							"type": "tuple[]"
						},
						{
							"internalType": "string[]",
							"name": "adminList",
							"type": "string[]"
						},
						{
							"internalType": "address[]",
							"name": "sellersAddr",
							"type": "address[]"
						}
					],
					"stateMutability": "view",
					"type": "function"
				},
				{
					"inputs": [],
					"name": "getBuyerInfo",
					"outputs": [
						{
							"internalType": "string",
							"name": "userLogin",
							"type": "string"
						},
						{
							"internalType": "string",
							"name": "fio",
							"type": "string"
						},
						{
							"internalType": "uint256",
							"name": "balance",
							"type": "uint256"
						},
						{
							"internalType": "string[]",
							"name": "reviews",
							"type": "string[]"
						}
					],
					"stateMutability": "view",
					"type": "function"
				},
				{
					"inputs": [],
					"name": "getSellerInfo",
					"outputs": [
						{
							"internalType": "string",
							"name": "sellerLogin",
							"type": "string"
						},
						{
							"internalType": "string",
							"name": "fio",
							"type": "string"
						},
						{
							"internalType": "string",
							"name": "city",
							"type": "string"
						},
						{
							"internalType": "string",
							"name": "shopNumber",
							"type": "string"
						},
						{
							"internalType": "string[]",
							"name": "reviews",
							"type": "string[]"
						}
					],
					"stateMutability": "view",
					"type": "function"
				},
				{
					"inputs": [
						{
							"internalType": "address",
							"name": "sellerAddr",
							"type": "address"
						}
					],
					"name": "getSellerInfoByAddr",
					"outputs": [
						{
							"internalType": "string",
							"name": "sellerLogin",
							"type": "string"
						},
						{
							"internalType": "string",
							"name": "fio",
							"type": "string"
						},
						{
							"internalType": "string",
							"name": "city",
							"type": "string"
						},
						{
							"internalType": "string",
							"name": "shopNumber",
							"type": "string"
						},
						{
							"internalType": "string[]",
							"name": "reviews",
							"type": "string[]"
						}
					],
					"stateMutability": "view",
					"type": "function"
				},
				{
					"inputs": [
						{
							"internalType": "string",
							"name": "reviewId",
							"type": "string"
						}
					],
					"name": "likeReview",
					"outputs": [],
					"stateMutability": "nonpayable",
					"type": "function"
				},
				{
					"inputs": [
						{
							"internalType": "string",
							"name": "userLogin",
							"type": "string"
						}
					],
					"name": "login",
					"outputs": [
						{
							"internalType": "address",
							"name": "userAddress",
							"type": "address"
						},
						{
							"internalType": "string",
							"name": "status",
							"type": "string"
						}
					],
					"stateMutability": "view",
					"type": "function"
				},
				{
					"inputs": [
						{
							"internalType": "address",
							"name": "adminAddr",
							"type": "address"
						},
						{
							"internalType": "string",
							"name": "fio",
							"type": "string"
						},
						{
							"internalType": "string",
							"name": "userLogin",
							"type": "string"
						}
					],
					"name": "regAdmin",
					"outputs": [],
					"stateMutability": "nonpayable",
					"type": "function"
				},
				{
					"inputs": [
						{
							"internalType": "string",
							"name": "fio",
							"type": "string"
						},
						{
							"internalType": "string",
							"name": "userLogin",
							"type": "string"
						}
					],
					"name": "registerAdmin",
					"outputs": [],
					"stateMutability": "nonpayable",
					"type": "function"
				},
				{
					"inputs": [
						{
							"internalType": "string",
							"name": "bankLogin",
							"type": "string"
						},
						{
							"internalType": "address",
							"name": "bankAddr",
							"type": "address"
						}
					],
					"name": "registerBank",
					"outputs": [],
					"stateMutability": "nonpayable",
					"type": "function"
				},
				{
					"inputs": [
						{
							"internalType": "string",
							"name": "fio",
							"type": "string"
						},
						{
							"internalType": "string",
							"name": "userLogin",
							"type": "string"
						},
						{
							"internalType": "address",
							"name": "userAddr",
							"type": "address"
						}
					],
					"name": "registerBuyer",
					"outputs": [],
					"stateMutability": "nonpayable",
					"type": "function"
				},
				{
					"inputs": [
						{
							"internalType": "string",
							"name": "providerLogin",
							"type": "string"
						},
						{
							"internalType": "address",
							"name": "providerAddr",
							"type": "address"
						}
					],
					"name": "registerProvider",
					"outputs": [],
					"stateMutability": "nonpayable",
					"type": "function"
				},
				{
					"inputs": [
						{
							"internalType": "string",
							"name": "fio",
							"type": "string"
						},
						{
							"internalType": "string",
							"name": "userLogin",
							"type": "string"
						},
						{
							"internalType": "address",
							"name": "userAddress",
							"type": "address"
						},
						{
							"internalType": "address",
							"name": "shopAddr",
							"type": "address"
						}
					],
					"name": "registerSeller",
					"outputs": [],
					"stateMutability": "nonpayable",
					"type": "function"
				},
				{
					"inputs": [
						{
							"internalType": "address",
							"name": "shopAddr",
							"type": "address"
						},
						{
							"internalType": "string",
							"name": "number",
							"type": "string"
						},
						{
							"internalType": "string",
							"name": "city",
							"type": "string"
						},
						{
							"internalType": "string",
							"name": "shopLogin",
							"type": "string"
						}
					],
					"name": "registerShop",
					"outputs": [],
					"stateMutability": "nonpayable",
					"type": "function"
				}
			],
			"devdoc": {
				"kind": "dev",
				"methods": {},
				"version": 1
			},
			"evm": {
				"assembly": "    /* \"contracts/Shops.sol\":269:6461  contract ShopsSystem is AuthService{... */\n  mstore(0x40, 0x80)\n    /* \"contracts/Shops.sol\":854:902  constructor(){... */\n  callvalue\n  dup1\n  iszero\n  tag_1\n  jumpi\n  0x00\n  dup1\n  revert\ntag_1:\n  pop\n    /* \"contracts/AuthService.sol\":564:587  userStatus[0] = \"buyer\" */\n  mload(0x40)\n  dup1\n  0x40\n  add\n  0x40\n  mstore\n  dup1\n  0x05\n  dup2\n  mstore\n  0x20\n  add\n  0x6275796572000000000000000000000000000000000000000000000000000000\n  dup2\n  mstore\n  pop\n    /* \"contracts/AuthService.sol\":564:574  userStatus */\n  0x00\n    /* \"contracts/AuthService.sol\":564:577  userStatus[0] */\n  dup1\n    /* \"contracts/AuthService.sol\":575:576  0 */\n  dup1\n    /* \"contracts/AuthService.sol\":564:577  userStatus[0] */\n  dup2\n  mstore\n  0x20\n  add\n  swap1\n  dup2\n  mstore\n  0x20\n  add\n  0x00\n  keccak256\n    /* \"contracts/AuthService.sol\":564:587  userStatus[0] = \"buyer\" */\n  swap1\n  dup1\n  mload\n  swap1\n  0x20\n  add\n  swap1\n  tag_5\n  swap3\n  swap2\n  swap1\n  tag_6\n  jump\t// in\ntag_5:\n  pop\n    /* \"contracts/AuthService.sol\":597:621  userStatus[1] = \"seller\" */\n  mload(0x40)\n  dup1\n  0x40\n  add\n  0x40\n  mstore\n  dup1\n  0x06\n  dup2\n  mstore\n  0x20\n  add\n  0x73656c6c65720000000000000000000000000000000000000000000000000000\n  dup2\n  mstore\n  pop\n    /* \"contracts/AuthService.sol\":597:607  userStatus */\n  0x00\n    /* \"contracts/AuthService.sol\":597:610  userStatus[1] */\n  dup1\n    /* \"contracts/AuthService.sol\":608:609  1 */\n  0x01\n    /* \"contracts/AuthService.sol\":597:610  userStatus[1] */\n  dup2\n  mstore\n  0x20\n  add\n  swap1\n  dup2\n  mstore\n  0x20\n  add\n  0x00\n  keccak256\n    /* \"contracts/AuthService.sol\":597:621  userStatus[1] = \"seller\" */\n  swap1\n  dup1\n  mload\n  swap1\n  0x20\n  add\n  swap1\n  tag_7\n  swap3\n  swap2\n  swap1\n  tag_6\n  jump\t// in\ntag_7:\n  pop\n    /* \"contracts/AuthService.sol\":631:653  userStatus[2] = \"shop\" */\n  mload(0x40)\n  dup1\n  0x40\n  add\n  0x40\n  mstore\n  dup1\n  0x04\n  dup2\n  mstore\n  0x20\n  add\n  0x73686f7000000000000000000000000000000000000000000000000000000000\n  dup2\n  mstore\n  pop\n    /* \"contracts/AuthService.sol\":631:641  userStatus */\n  0x00\n    /* \"contracts/AuthService.sol\":631:644  userStatus[2] */\n  dup1\n    /* \"contracts/AuthService.sol\":642:643  2 */\n  0x02\n    /* \"contracts/AuthService.sol\":631:644  userStatus[2] */\n  dup2\n  mstore\n  0x20\n  add\n  swap1\n  dup2\n  mstore\n  0x20\n  add\n  0x00\n  keccak256\n    /* \"contracts/AuthService.sol\":631:653  userStatus[2] = \"shop\" */\n  swap1\n  dup1\n  mload\n  swap1\n  0x20\n  add\n  swap1\n  tag_8\n  swap3\n  swap2\n  swap1\n  tag_6\n  jump\t// in\ntag_8:\n  pop\n    /* \"contracts/AuthService.sol\":663:686  userStatus[3] = \"admin\" */\n  mload(0x40)\n  dup1\n  0x40\n  add\n  0x40\n  mstore\n  dup1\n  0x05\n  dup2\n  mstore\n  0x20\n  add\n  0x61646d696e000000000000000000000000000000000000000000000000000000\n  dup2\n  mstore\n  pop\n    /* \"contracts/AuthService.sol\":663:673  userStatus */\n  0x00\n    /* \"contracts/AuthService.sol\":663:676  userStatus[3] */\n  dup1\n    /* \"contracts/AuthService.sol\":674:675  3 */\n  0x03\n    /* \"contracts/AuthService.sol\":663:676  userStatus[3] */\n  dup2\n  mstore\n  0x20\n  add\n  swap1\n  dup2\n  mstore\n  0x20\n  add\n  0x00\n  keccak256\n    /* \"contracts/AuthService.sol\":663:686  userStatus[3] = \"admin\" */\n  swap1\n  dup1\n  mload\n  swap1\n  0x20\n  add\n  swap1\n  tag_9\n  swap3\n  swap2\n  swap1\n  tag_6\n  jump\t// in\ntag_9:\n  pop\n    /* \"contracts/AuthService.sol\":696:722  userStatus[4] = \"provider\" */\n  mload(0x40)\n  dup1\n  0x40\n  add\n  0x40\n  mstore\n  dup1\n  0x08\n  dup2\n  mstore\n  0x20\n  add\n  0x70726f7669646572000000000000000000000000000000000000000000000000\n  dup2\n  mstore\n  pop\n    /* \"contracts/AuthService.sol\":696:706  userStatus */\n  0x00\n    /* \"contracts/AuthService.sol\":696:709  userStatus[4] */\n  dup1\n    /* \"contracts/AuthService.sol\":707:708  4 */\n  0x04\n    /* \"contracts/AuthService.sol\":696:709  userStatus[4] */\n  dup2\n  mstore\n  0x20\n  add\n  swap1\n  dup2\n  mstore\n  0x20\n  add\n  0x00\n  keccak256\n    /* \"contracts/AuthService.sol\":696:722  userStatus[4] = \"provider\" */\n  swap1\n  dup1\n  mload\n  swap1\n  0x20\n  add\n  swap1\n  tag_10\n  swap3\n  swap2\n  swap1\n  tag_6\n  jump\t// in\ntag_10:\n  pop\n    /* \"contracts/AuthService.sol\":732:754  userStatus[5] = \"bank\" */\n  mload(0x40)\n  dup1\n  0x40\n  add\n  0x40\n  mstore\n  dup1\n  0x04\n  dup2\n  mstore\n  0x20\n  add\n  0x62616e6b00000000000000000000000000000000000000000000000000000000\n  dup2\n  mstore\n  pop\n    /* \"contracts/AuthService.sol\":732:742  userStatus */\n  0x00\n    /* \"contracts/AuthService.sol\":732:745  userStatus[5] */\n  dup1\n    /* \"contracts/AuthService.sol\":743:744  5 */\n  0x05\n    /* \"contracts/AuthService.sol\":732:745  userStatus[5] */\n  dup2\n  mstore\n  0x20\n  add\n  swap1\n  dup2\n  mstore\n  0x20\n  add\n  0x00\n  keccak256\n    /* \"contracts/AuthService.sol\":732:754  userStatus[5] = \"bank\" */\n  swap1\n  dup1\n  mload\n  swap1\n  0x20\n  add\n  swap1\n  tag_11\n  swap3\n  swap2\n  swap1\n  tag_6\n  jump\t// in\ntag_11:\n  pop\n    /* \"contracts/Shops.sol\":885:895  msg.sender */\n  caller\n    /* \"contracts/Shops.sol\":877:882  admin */\n  0x04\n  0x00\n    /* \"contracts/Shops.sol\":877:895  admin = msg.sender */\n  0x0100\n  exp\n  dup2\n  sload\n  dup2\n  0xffffffffffffffffffffffffffffffffffffffff\n  mul\n  not\n  and\n  swap1\n  dup4\n  0xffffffffffffffffffffffffffffffffffffffff\n  and\n  mul\n  or\n  swap1\n  sstore\n  pop\n    /* \"contracts/Shops.sol\":269:6461  contract ShopsSystem is AuthService{... */\n  jump(tag_13)\ntag_6:\n  dup3\n  dup1\n  sload\n  tag_14\n  swap1\n  tag_15\n  jump\t// in\ntag_14:\n  swap1\n  0x00\n  mstore\n  keccak256(0x00, 0x20)\n  swap1\n  0x1f\n  add\n  0x20\n  swap1\n  div\n  dup2\n  add\n  swap3\n  dup3\n  tag_17\n  jumpi\n  0x00\n  dup6\n  sstore\n  jump(tag_16)\ntag_17:\n  dup3\n  0x1f\n  lt\n  tag_18\n  jumpi\n  dup1\n  mload\n  not(0xff)\n  and\n  dup4\n  dup1\n  add\n  or\n  dup6\n  sstore\n  jump(tag_16)\ntag_18:\n  dup3\n  dup1\n  add\n  0x01\n  add\n  dup6\n  sstore\n  dup3\n  iszero\n  tag_16\n  jumpi\n  swap2\n  dup3\n  add\ntag_19:\n  dup3\n  dup2\n  gt\n  iszero\n  tag_20\n  jumpi\n  dup3\n  mload\n  dup3\n  sstore\n  swap2\n  0x20\n  add\n  swap2\n  swap1\n  0x01\n  add\n  swap1\n  jump(tag_19)\ntag_20:\ntag_16:\n  pop\n  swap1\n  pop\n  tag_21\n  swap2\n  swap1\n  tag_22\n  jump\t// in\ntag_21:\n  pop\n  swap1\n  jump\t// out\ntag_22:\ntag_23:\n  dup1\n  dup3\n  gt\n  iszero\n  tag_24\n  jumpi\n  0x00\n  dup2\n  0x00\n  swap1\n  sstore\n  pop\n  0x01\n  add\n  jump(tag_23)\ntag_24:\n  pop\n  swap1\n  jump\t// out\n    /* \"#utility.yul\":7:327   */\ntag_15:\n    /* \"#utility.yul\":51:57   */\n  0x00\n    /* \"#utility.yul\":88:89   */\n  0x02\n    /* \"#utility.yul\":82:86   */\n  dup3\n    /* \"#utility.yul\":78:90   */\n  div\n    /* \"#utility.yul\":68:90   */\n  swap1\n  pop\n    /* \"#utility.yul\":135:136   */\n  0x01\n    /* \"#utility.yul\":129:133   */\n  dup3\n    /* \"#utility.yul\":125:137   */\n  and\n    /* \"#utility.yul\":156:174   */\n  dup1\n    /* \"#utility.yul\":146:227   */\n  tag_27\n  jumpi\n    /* \"#utility.yul\":212:216   */\n  0x7f\n    /* \"#utility.yul\":204:210   */\n  dup3\n    /* \"#utility.yul\":200:217   */\n  and\n    /* \"#utility.yul\":190:217   */\n  swap2\n  pop\n    /* \"#utility.yul\":146:227   */\ntag_27:\n    /* \"#utility.yul\":274:276   */\n  0x20\n    /* \"#utility.yul\":266:272   */\n  dup3\n    /* \"#utility.yul\":263:277   */\n  lt\n    /* \"#utility.yul\":243:261   */\n  dup2\n    /* \"#utility.yul\":240:278   */\n  eq\n    /* \"#utility.yul\":237:321   */\n  iszero\n  tag_28\n  jumpi\n    /* \"#utility.yul\":293:311   */\n  tag_29\n  tag_30\n  jump\t// in\ntag_29:\n    /* \"#utility.yul\":237:321   */\ntag_28:\n    /* \"#utility.yul\":58:327   */\n  pop\n    /* \"#utility.yul\":7:327   */\n  swap2\n  swap1\n  pop\n  jump\t// out\n    /* \"#utility.yul\":333:513   */\ntag_30:\n    /* \"#utility.yul\":381:458   */\n  0x4e487b7100000000000000000000000000000000000000000000000000000000\n    /* \"#utility.yul\":378:379   */\n  0x00\n    /* \"#utility.yul\":371:459   */\n  mstore\n    /* \"#utility.yul\":478:482   */\n  0x22\n    /* \"#utility.yul\":475:476   */\n  0x04\n    /* \"#utility.yul\":468:483   */\n  mstore\n    /* \"#utility.yul\":502:506   */\n  0x24\n    /* \"#utility.yul\":499:500   */\n  0x00\n    /* \"#utility.yul\":492:507   */\n  revert\n    /* \"contracts/Shops.sol\":269:6461  contract ShopsSystem is AuthService{... */\ntag_13:\n  dataSize(sub_0)\n  dup1\n  dataOffset(sub_0)\n  0x00\n  codecopy\n  0x00\n  return\nstop\n\nsub_0: assembly {\n        /* \"contracts/Shops.sol\":269:6461  contract ShopsSystem is AuthService{... */\n      mstore(0x40, 0x80)\n      callvalue\n      dup1\n      iszero\n      tag_1\n      jumpi\n      0x00\n      dup1\n      revert\n    tag_1:\n      pop\n      jumpi(tag_2, lt(calldatasize, 0x04))\n      shr(0xe0, calldataload(0x00))\n      dup1\n      0x7ccb2bd8\n      gt\n      tag_18\n      jumpi\n      dup1\n      0x9d344d10\n      gt\n      tag_19\n      jumpi\n      dup1\n      0x9d344d10\n      eq\n      tag_14\n      jumpi\n      dup1\n      0xa59d105f\n      eq\n      tag_15\n      jumpi\n      dup1\n      0xc3d5fd39\n      eq\n      tag_16\n      jumpi\n      dup1\n      0xf8f98b79\n      eq\n      tag_17\n      jumpi\n      jump(tag_2)\n    tag_19:\n      dup1\n      0x7ccb2bd8\n      eq\n      tag_10\n      jumpi\n      dup1\n      0x83db0f6d\n      eq\n      tag_11\n      jumpi\n      dup1\n      0x8403f848\n      eq\n      tag_12\n      jumpi\n      dup1\n      0x99b958ee\n      eq\n      tag_13\n      jumpi\n      jump(tag_2)\n    tag_18:\n      dup1\n      0x3a7d280c\n      gt\n      tag_20\n      jumpi\n      dup1\n      0x3a7d280c\n      eq\n      tag_6\n      jumpi\n      dup1\n      0x54504c12\n      eq\n      tag_7\n      jumpi\n      dup1\n      0x7558b2f8\n      eq\n      tag_8\n      jumpi\n      dup1\n      0x7b3c7488\n      eq\n      tag_9\n      jumpi\n      jump(tag_2)\n    tag_20:\n      dup1\n      0x08e74858\n      eq\n      tag_3\n      jumpi\n      dup1\n      0x2156a781\n      eq\n      tag_4\n      jumpi\n      dup1\n      0x3a708737\n      eq\n      tag_5\n      jumpi\n    tag_2:\n      0x00\n      dup1\n      revert\n        /* \"contracts/Shops.sol\":5337:5950  function getSellerInfoByAddr(address sellerAddr) public view isUserStatus(UserRoles.admin)returns(... */\n    tag_3:\n      tag_21\n      0x04\n      dup1\n      calldatasize\n      sub\n      dup2\n      add\n      swap1\n      tag_22\n      swap2\n      swap1\n      tag_23\n      jump\t// in\n    tag_22:\n      tag_24\n      jump\t// in\n    tag_21:\n      mload(0x40)\n      tag_25\n      swap6\n      swap5\n      swap4\n      swap3\n      swap2\n      swap1\n      tag_26\n      jump\t// in\n    tag_25:\n      mload(0x40)\n      dup1\n      swap2\n      sub\n      swap1\n      return\n        /* \"contracts/Shops.sol\":2521:2708  function registerBank(string memory bankLogin,address bankAddr) public isAdmin {... */\n    tag_4:\n      tag_27\n      0x04\n      dup1\n      calldatasize\n      sub\n      dup2\n      add\n      swap1\n      tag_28\n      swap2\n      swap1\n      tag_29\n      jump\t// in\n    tag_28:\n      tag_30\n      jump\t// in\n    tag_27:\n      stop\n        /* \"contracts/Shops.sol\":5956:6321  function createReview(... */\n    tag_5:\n      tag_31\n      0x04\n      dup1\n      calldatasize\n      sub\n      dup2\n      add\n      swap1\n      tag_32\n      swap2\n      swap1\n      tag_33\n      jump\t// in\n    tag_32:\n      tag_34\n      jump\t// in\n    tag_31:\n      stop\n        /* \"contracts/AuthService.sol\":2244:2544  function login(string memory userLogin) public view isRegistered(userLogin) returns(address userAddress,string memory status){... */\n    tag_6:\n      tag_35\n      0x04\n      dup1\n      calldatasize\n      sub\n      dup2\n      add\n      swap1\n      tag_36\n      swap2\n      swap1\n      tag_37\n      jump\t// in\n    tag_36:\n      tag_38\n      jump\t// in\n    tag_35:\n      mload(0x40)\n      tag_39\n      swap3\n      swap2\n      swap1\n      tag_40\n      jump\t// in\n    tag_39:\n      mload(0x40)\n      dup1\n      swap2\n      sub\n      swap1\n      return\n        /* \"contracts/Shops.sol\":3717:4308  function getSellerInfo() public view isUserStatus(UserRoles.seller) returns(... */\n    tag_7:\n      tag_41\n      tag_42\n      jump\t// in\n    tag_41:\n      mload(0x40)\n      tag_43\n      swap6\n      swap5\n      swap4\n      swap3\n      swap2\n      swap1\n      tag_26\n      jump\t// in\n    tag_43:\n      mload(0x40)\n      dup1\n      swap2\n      sub\n      swap1\n      return\n        /* \"contracts/Shops.sol\":1751:2102  function registerShop(address shopAddr,string memory number,string memory city,string memory shopLogin) public isUserStatus(UserRoles.admin){... */\n    tag_8:\n      tag_44\n      0x04\n      dup1\n      calldatasize\n      sub\n      dup2\n      add\n      swap1\n      tag_45\n      swap2\n      swap1\n      tag_46\n      jump\t// in\n    tag_45:\n      tag_47\n      jump\t// in\n    tag_44:\n      stop\n        /* \"contracts/Shops.sol\":6327:6401  function likeReview(string memory reviewId) public isUser {... */\n    tag_9:\n      tag_48\n      0x04\n      dup1\n      calldatasize\n      sub\n      dup2\n      add\n      swap1\n      tag_49\n      swap2\n      swap1\n      tag_37\n      jump\t// in\n    tag_49:\n      tag_50\n      jump\t// in\n    tag_48:\n      stop\n        /* \"contracts/Shops.sol\":2202:2446  function registerProvider(string memory providerLogin,address providerAddr) public isAdmin {... */\n    tag_10:\n      tag_51\n      0x04\n      dup1\n      calldatasize\n      sub\n      dup2\n      add\n      swap1\n      tag_52\n      swap2\n      swap1\n      tag_29\n      jump\t// in\n    tag_52:\n      tag_53\n      jump\t// in\n    tag_51:\n      stop\n        /* \"contracts/Shops.sol\":3438:3641  function doShopDebt(address payable shopAddr) public isUserStatus(UserRoles.bank) {... */\n    tag_11:\n      tag_54\n      0x04\n      dup1\n      calldatasize\n      sub\n      dup2\n      add\n      swap1\n      tag_55\n      swap2\n      swap1\n      tag_56\n      jump\t// in\n    tag_55:\n      tag_57\n      jump\t// in\n    tag_54:\n      stop\n        /* \"contracts/Shops.sol\":2771:3077  function registerSeller(string memory fio,string memory userLogin,address userAddress,address shopAddr) public {... */\n    tag_12:\n      tag_58\n      0x04\n      dup1\n      calldatasize\n      sub\n      dup2\n      add\n      swap1\n      tag_59\n      swap2\n      swap1\n      tag_60\n      jump\t// in\n    tag_59:\n      tag_61\n      jump\t// in\n    tag_58:\n      stop\n        /* \"contracts/Shops.sol\":4407:4771  function getBuyerInfo() public view isUser returns(... */\n    tag_13:\n      tag_62\n      tag_63\n      jump\t// in\n    tag_62:\n      mload(0x40)\n      tag_64\n      swap5\n      swap4\n      swap3\n      swap2\n      swap1\n      tag_65\n      jump\t// in\n    tag_64:\n      mload(0x40)\n      dup1\n      swap2\n      sub\n      swap1\n      return\n        /* \"contracts/Shops.sol\":3144:3343  function registerBuyer(string memory fio,string memory userLogin,address userAddr) public{... */\n    tag_14:\n      tag_66\n      0x04\n      dup1\n      calldatasize\n      sub\n      dup2\n      add\n      swap1\n      tag_67\n      swap2\n      swap1\n      tag_68\n      jump\t// in\n    tag_67:\n      tag_69\n      jump\t// in\n    tag_66:\n      stop\n        /* \"contracts/Shops.sol\":1432:1690  function regAdmin(address adminAddr,string memory fio,string memory userLogin) public isUserStatus(UserRoles.admin){... */\n    tag_15:\n      tag_70\n      0x04\n      dup1\n      calldatasize\n      sub\n      dup2\n      add\n      swap1\n      tag_71\n      swap2\n      swap1\n      tag_72\n      jump\t// in\n    tag_71:\n      tag_73\n      jump\t// in\n    tag_70:\n      stop\n        /* \"contracts/Shops.sol\":4841:5240  function getAdminInfo() public view isUserStatus(UserRoles.admin) returns(... */\n    tag_16:\n      tag_74\n      tag_75\n      jump\t// in\n    tag_74:\n      mload(0x40)\n      tag_76\n      swap5\n      swap4\n      swap3\n      swap2\n      swap1\n      tag_77\n      jump\t// in\n    tag_76:\n      mload(0x40)\n      dup1\n      swap2\n      sub\n      swap1\n      return\n        /* \"contracts/Shops.sol\":1116:1341  function registerAdmin(string memory fio,string memory userLogin) isAdmin public {... */\n    tag_17:\n      tag_78\n      0x04\n      dup1\n      calldatasize\n      sub\n      dup2\n      add\n      swap1\n      tag_79\n      swap2\n      swap1\n      tag_80\n      jump\t// in\n    tag_79:\n      tag_81\n      jump\t// in\n    tag_78:\n      stop\n        /* \"contracts/Shops.sol\":5337:5950  function getSellerInfoByAddr(address sellerAddr) public view isUserStatus(UserRoles.admin)returns(... */\n    tag_24:\n        /* \"contracts/Shops.sol\":5444:5469  string memory sellerLogin */\n      0x60\n        /* \"contracts/Shops.sol\":5479:5496  string memory fio */\n      dup1\n        /* \"contracts/Shops.sol\":5506:5524  string memory city */\n      0x60\n        /* \"contracts/Shops.sol\":5534:5558  string memory shopNumber */\n      dup1\n        /* \"contracts/Shops.sol\":5568:5591  string[] memory reviews */\n      0x60\n        /* \"contracts/Shops.sol\":5411:5426  UserRoles.admin */\n      0x03\n        /* \"contracts/AuthService.sol\":1605:1610  users */\n      0x02\n        /* \"contracts/AuthService.sol\":1605:1622  users[msg.sender] */\n      0x00\n        /* \"contracts/AuthService.sol\":1611:1621  msg.sender */\n      caller\n        /* \"contracts/AuthService.sol\":1605:1622  users[msg.sender] */\n      0xffffffffffffffffffffffffffffffffffffffff\n      and\n      0xffffffffffffffffffffffffffffffffffffffff\n      and\n      dup2\n      mstore\n      0x20\n      add\n      swap1\n      dup2\n      mstore\n      0x20\n      add\n      0x00\n      keccak256\n        /* \"contracts/AuthService.sol\":1605:1629  users[msg.sender].status */\n      0x00\n      add\n      sload\n        /* \"contracts/AuthService.sol\":1594:1600  status */\n      dup2\n        /* \"contracts/AuthService.sol\":1589:1601  uint(status) */\n      0x05\n      dup2\n      gt\n      iszero\n      tag_83\n      jumpi\n      tag_84\n      tag_85\n      jump\t// in\n    tag_84:\n    tag_83:\n        /* \"contracts/AuthService.sol\":1589:1629  uint(status) == users[msg.sender].status */\n      eq\n        /* \"contracts/AuthService.sol\":1581:1642  require(uint(status) == users[msg.sender].status,\"Forbidden\") */\n      tag_86\n      jumpi\n      mload(0x40)\n      0x08c379a000000000000000000000000000000000000000000000000000000000\n      dup2\n      mstore\n      0x04\n      add\n      tag_87\n      swap1\n      tag_88\n      jump\t// in\n    tag_87:\n      mload(0x40)\n      dup1\n      swap2\n      sub\n      swap1\n      revert\n    tag_86:\n        /* \"contracts/Shops.sol\":5607:5627  User memory sellUser */\n      0x00\n        /* \"contracts/Shops.sol\":5630:5635  users */\n      0x02\n        /* \"contracts/Shops.sol\":5630:5647  users[sellerAddr] */\n      0x00\n        /* \"contracts/Shops.sol\":5636:5646  sellerAddr */\n      dup10\n        /* \"contracts/Shops.sol\":5630:5647  users[sellerAddr] */\n      0xffffffffffffffffffffffffffffffffffffffff\n      and\n      0xffffffffffffffffffffffffffffffffffffffff\n      and\n      dup2\n      mstore\n      0x20\n      add\n      swap1\n      dup2\n      mstore\n      0x20\n      add\n      0x00\n      keccak256\n        /* \"contracts/Shops.sol\":5607:5647  User memory sellUser = users[sellerAddr] */\n      mload(0x40)\n      dup1\n      0x80\n      add\n      0x40\n      mstore\n      swap1\n      dup2\n      0x00\n      dup3\n      add\n      sload\n      dup2\n      mstore\n      0x20\n      add\n      0x01\n      dup3\n      add\n      dup1\n      sload\n      tag_90\n      swap1\n      tag_91\n      jump\t// in\n    tag_90:\n      dup1\n      0x1f\n      add\n      0x20\n      dup1\n      swap2\n      div\n      mul\n      0x20\n      add\n      mload(0x40)\n      swap1\n      dup2\n      add\n      0x40\n      mstore\n      dup1\n      swap3\n      swap2\n      swap1\n      dup2\n      dup2\n      mstore\n      0x20\n      add\n      dup3\n      dup1\n      sload\n      tag_92\n      swap1\n      tag_91\n      jump\t// in\n    tag_92:\n      dup1\n      iszero\n      tag_93\n      jumpi\n      dup1\n      0x1f\n      lt\n      tag_94\n      jumpi\n      0x0100\n      dup1\n      dup4\n      sload\n      div\n      mul\n      dup4\n      mstore\n      swap2\n      0x20\n      add\n      swap2\n      jump(tag_93)\n    tag_94:\n      dup3\n      add\n      swap2\n      swap1\n      0x00\n      mstore\n      keccak256(0x00, 0x20)\n      swap1\n    tag_95:\n      dup2\n      sload\n      dup2\n      mstore\n      swap1\n      0x01\n      add\n      swap1\n      0x20\n      add\n      dup1\n      dup4\n      gt\n      tag_95\n      jumpi\n      dup3\n      swap1\n      sub\n      0x1f\n      and\n      dup3\n      add\n      swap2\n    tag_93:\n      pop\n      pop\n      pop\n      pop\n      pop\n      dup2\n      mstore\n      0x20\n      add\n      0x02\n      dup3\n      add\n      dup1\n      sload\n      tag_96\n      swap1\n      tag_91\n      jump\t// in\n    tag_96:\n      dup1\n      0x1f\n      add\n      0x20\n      dup1\n      swap2\n      div\n      mul\n      0x20\n      add\n      mload(0x40)\n      swap1\n      dup2\n      add\n      0x40\n      mstore\n      dup1\n      swap3\n      swap2\n      swap1\n      dup2\n      dup2\n      mstore\n      0x20\n      add\n      dup3\n      dup1\n      sload\n      tag_97\n      swap1\n      tag_91\n      jump\t// in\n    tag_97:\n      dup1\n      iszero\n      tag_98\n      jumpi\n      dup1\n      0x1f\n      lt\n      tag_99\n      jumpi\n      0x0100\n      dup1\n      dup4\n      sload\n      div\n      mul\n      dup4\n      mstore\n      swap2\n      0x20\n      add\n      swap2\n      jump(tag_98)\n    tag_99:\n      dup3\n      add\n      swap2\n      swap1\n      0x00\n      mstore\n      keccak256(0x00, 0x20)\n      swap1\n    tag_100:\n      dup2\n      sload\n      dup2\n      mstore\n      swap1\n      0x01\n      add\n      swap1\n      0x20\n      add\n      dup1\n      dup4\n      gt\n      tag_100\n      jumpi\n      dup3\n      swap1\n      sub\n      0x1f\n      and\n      dup3\n      add\n      swap2\n    tag_98:\n      pop\n      pop\n      pop\n      pop\n      pop\n      dup2\n      mstore\n      0x20\n      add\n      0x03\n      dup3\n      add\n      dup1\n      sload\n      dup1\n      0x20\n      mul\n      0x20\n      add\n      mload(0x40)\n      swap1\n      dup2\n      add\n      0x40\n      mstore\n      dup1\n      swap3\n      swap2\n      swap1\n      dup2\n      dup2\n      mstore\n      0x20\n      add\n      0x00\n      swap1\n    tag_101:\n      dup3\n      dup3\n      lt\n      iszero\n      tag_102\n      jumpi\n      dup4\n      dup3\n      swap1\n      0x00\n      mstore\n      keccak256(0x00, 0x20)\n      add\n      dup1\n      sload\n      tag_104\n      swap1\n      tag_91\n      jump\t// in\n    tag_104:\n      dup1\n      0x1f\n      add\n      0x20\n      dup1\n      swap2\n      div\n      mul\n      0x20\n      add\n      mload(0x40)\n      swap1\n      dup2\n      add\n      0x40\n      mstore\n      dup1\n      swap3\n      swap2\n      swap1\n      dup2\n      dup2\n      mstore\n      0x20\n      add\n      dup3\n      dup1\n      sload\n      tag_105\n      swap1\n      tag_91\n      jump\t// in\n    tag_105:\n      dup1\n      iszero\n      tag_106\n      jumpi\n      dup1\n      0x1f\n      lt\n      tag_107\n      jumpi\n      0x0100\n      dup1\n      dup4\n      sload\n      div\n      mul\n      dup4\n      mstore\n      swap2\n      0x20\n      add\n      swap2\n      jump(tag_106)\n    tag_107:\n      dup3\n      add\n      swap2\n      swap1\n      0x00\n      mstore\n      keccak256(0x00, 0x20)\n      swap1\n    tag_108:\n      dup2\n      sload\n      dup2\n      mstore\n      swap1\n      0x01\n      add\n      swap1\n      0x20\n      add\n      dup1\n      dup4\n      gt\n      tag_108\n      jumpi\n      dup3\n      swap1\n      sub\n      0x1f\n      and\n      dup3\n      add\n      swap2\n    tag_106:\n      pop\n      pop\n      pop\n      pop\n      pop\n      dup2\n      mstore\n      0x20\n      add\n      swap1\n      0x01\n      add\n      swap1\n      jump(tag_101)\n    tag_102:\n      pop\n      pop\n      pop\n      pop\n      dup2\n      mstore\n      pop\n      pop\n      swap1\n      pop\n        /* \"contracts/Shops.sol\":5657:5677  address sellShopAddr */\n      0x00\n        /* \"contracts/Shops.sol\":5680:5692  salesmanShop */\n      0x0b\n        /* \"contracts/Shops.sol\":5680:5704  salesmanShop[sellerAddr] */\n      0x00\n        /* \"contracts/Shops.sol\":5693:5703  sellerAddr */\n      dup11\n        /* \"contracts/Shops.sol\":5680:5704  salesmanShop[sellerAddr] */\n      0xffffffffffffffffffffffffffffffffffffffff\n      and\n      0xffffffffffffffffffffffffffffffffffffffff\n      and\n      dup2\n      mstore\n      0x20\n      add\n      swap1\n      dup2\n      mstore\n      0x20\n      add\n      0x00\n      keccak256\n      0x00\n      swap1\n      sload\n      swap1\n      0x0100\n      exp\n      swap1\n      div\n      0xffffffffffffffffffffffffffffffffffffffff\n      and\n        /* \"contracts/Shops.sol\":5657:5704  address sellShopAddr = salesmanShop[sellerAddr] */\n      swap1\n      pop\n        /* \"contracts/Shops.sol\":5714:5734  Shop memory sellShop */\n      0x00\n        /* \"contracts/Shops.sol\":5737:5746  ShopsList */\n      0x0a\n        /* \"contracts/Shops.sol\":5737:5760  ShopsList[sellShopAddr] */\n      0x00\n        /* \"contracts/Shops.sol\":5747:5759  sellShopAddr */\n      dup4\n        /* \"contracts/Shops.sol\":5737:5760  ShopsList[sellShopAddr] */\n      0xffffffffffffffffffffffffffffffffffffffff\n      and\n      0xffffffffffffffffffffffffffffffffffffffff\n      and\n      dup2\n      mstore\n      0x20\n      add\n      swap1\n      dup2\n      mstore\n      0x20\n      add\n      0x00\n      keccak256\n        /* \"contracts/Shops.sol\":5714:5760  Shop memory sellShop = ShopsList[sellShopAddr] */\n      mload(0x40)\n      dup1\n      0x60\n      add\n      0x40\n      mstore\n      swap1\n      dup2\n      0x00\n      dup3\n      add\n      dup1\n      sload\n      tag_109\n      swap1\n      tag_91\n      jump\t// in\n    tag_109:\n      dup1\n      0x1f\n      add\n      0x20\n      dup1\n      swap2\n      div\n      mul\n      0x20\n      add\n      mload(0x40)\n      swap1\n      dup2\n      add\n      0x40\n      mstore\n      dup1\n      swap3\n      swap2\n      swap1\n      dup2\n      dup2\n      mstore\n      0x20\n      add\n      dup3\n      dup1\n      sload\n      tag_110\n      swap1\n      tag_91\n      jump\t// in\n    tag_110:\n      dup1\n      iszero\n      tag_111\n      jumpi\n      dup1\n      0x1f\n      lt\n      tag_112\n      jumpi\n      0x0100\n      dup1\n      dup4\n      sload\n      div\n      mul\n      dup4\n      mstore\n      swap2\n      0x20\n      add\n      swap2\n      jump(tag_111)\n    tag_112:\n      dup3\n      add\n      swap2\n      swap1\n      0x00\n      mstore\n      keccak256(0x00, 0x20)\n      swap1\n    tag_113:\n      dup2\n      sload\n      dup2\n      mstore\n      swap1\n      0x01\n      add\n      swap1\n      0x20\n      add\n      dup1\n      dup4\n      gt\n      tag_113\n      jumpi\n      dup3\n      swap1\n      sub\n      0x1f\n      and\n      dup3\n      add\n      swap2\n    tag_111:\n      pop\n      pop\n      pop\n      pop\n      pop\n      dup2\n      mstore\n      0x20\n      add\n      0x01\n      dup3\n      add\n      dup1\n      sload\n      tag_114\n      swap1\n      tag_91\n      jump\t// in\n    tag_114:\n      dup1\n      0x1f\n      add\n      0x20\n      dup1\n      swap2\n      div\n      mul\n      0x20\n      add\n      mload(0x40)\n      swap1\n      dup2\n      add\n      0x40\n      mstore\n      dup1\n      swap3\n      swap2\n      swap1\n      dup2\n      dup2\n      mstore\n      0x20\n      add\n      dup3\n      dup1\n      sload\n      tag_115\n      swap1\n      tag_91\n      jump\t// in\n    tag_115:\n      dup1\n      iszero\n      tag_116\n      jumpi\n      dup1\n      0x1f\n      lt\n      tag_117\n      jumpi\n      0x0100\n      dup1\n      dup4\n      sload\n      div\n      mul\n      dup4\n      mstore\n      swap2\n      0x20\n      add\n      swap2\n      jump(tag_116)\n    tag_117:\n      dup3\n      add\n      swap2\n      swap1\n      0x00\n      mstore\n      keccak256(0x00, 0x20)\n      swap1\n    tag_118:\n      dup2\n      sload\n      dup2\n      mstore\n      swap1\n      0x01\n      add\n      swap1\n      0x20\n      add\n      dup1\n      dup4\n      gt\n      tag_118\n      jumpi\n      dup3\n      swap1\n      sub\n      0x1f\n      and\n      dup3\n      add\n      swap2\n    tag_116:\n      pop\n      pop\n      pop\n      pop\n      pop\n      dup2\n      mstore\n      0x20\n      add\n      0x02\n      dup3\n      add\n      sload\n      dup2\n      mstore\n      pop\n      pop\n      swap1\n      pop\n        /* \"contracts/Shops.sol\":5793:5801  sellUser */\n      dup3\n        /* \"contracts/Shops.sol\":5793:5811  sellUser.userLogin */\n      0x20\n      add\n      mload\n        /* \"contracts/Shops.sol\":5779:5811  sellerLogin = sellUser.userLogin */\n      swap9\n      pop\n        /* \"contracts/Shops.sol\":5827:5835  sellUser */\n      dup3\n        /* \"contracts/Shops.sol\":5827:5839  sellUser.fio */\n      0x40\n      add\n      mload\n        /* \"contracts/Shops.sol\":5821:5839  fio = sellUser.fio */\n      swap8\n      pop\n        /* \"contracts/Shops.sol\":5856:5864  sellShop */\n      dup1\n        /* \"contracts/Shops.sol\":5856:5869  sellShop.city */\n      0x20\n      add\n      mload\n        /* \"contracts/Shops.sol\":5849:5869  city = sellShop.city */\n      swap7\n      pop\n        /* \"contracts/Shops.sol\":5892:5900  sellShop */\n      dup1\n        /* \"contracts/Shops.sol\":5892:5907  sellShop.number */\n      0x00\n      add\n      mload\n        /* \"contracts/Shops.sol\":5879:5907  shopNumber = sellShop.number */\n      swap6\n      pop\n        /* \"contracts/Shops.sol\":5927:5935  sellUser */\n      dup3\n        /* \"contracts/Shops.sol\":5927:5943  sellUser.reviews */\n      0x60\n      add\n      mload\n        /* \"contracts/Shops.sol\":5917:5943  reviews = sellUser.reviews */\n      swap5\n      pop\n        /* \"contracts/Shops.sol\":5597:5950  {... */\n      pop\n      pop\n      pop\n        /* \"contracts/Shops.sol\":5337:5950  function getSellerInfoByAddr(address sellerAddr) public view isUserStatus(UserRoles.admin)returns(... */\n      pop\n      swap2\n      swap4\n      swap6\n      swap1\n      swap3\n      swap5\n      pop\n      jump\t// out\n        /* \"contracts/Shops.sol\":2521:2708  function registerBank(string memory bankLogin,address bankAddr) public isAdmin {... */\n    tag_30:\n        /* \"contracts/Shops.sol\":958:963  admin */\n      0x04\n      0x00\n      swap1\n      sload\n      swap1\n      0x0100\n      exp\n      swap1\n      div\n      0xffffffffffffffffffffffffffffffffffffffff\n      and\n        /* \"contracts/Shops.sol\":944:963  msg.sender == admin */\n      0xffffffffffffffffffffffffffffffffffffffff\n      and\n        /* \"contracts/Shops.sol\":944:954  msg.sender */\n      caller\n        /* \"contracts/Shops.sol\":944:963  msg.sender == admin */\n      0xffffffffffffffffffffffffffffffffffffffff\n      and\n      eq\n        /* \"contracts/Shops.sol\":936:980  require(msg.sender == admin,\"You not admin\") */\n      tag_120\n      jumpi\n      mload(0x40)\n      0x08c379a000000000000000000000000000000000000000000000000000000000\n      dup2\n      mstore\n      0x04\n      add\n      tag_121\n      swap1\n      tag_122\n      jump\t// in\n    tag_121:\n      mload(0x40)\n      dup1\n      swap2\n      sub\n      swap1\n      revert\n    tag_120:\n        /* \"contracts/Shops.sol\":2610:2621  uint status */\n      0x00\n        /* \"contracts/Shops.sol\":2629:2643  UserRoles.bank */\n      0x05\n        /* \"contracts/Shops.sol\":2624:2644  uint(UserRoles.bank) */\n      dup1\n      dup2\n      gt\n      iszero\n      tag_124\n      jumpi\n      tag_125\n      tag_85\n      jump\t// in\n    tag_125:\n    tag_124:\n        /* \"contracts/Shops.sol\":2610:2644  uint status = uint(UserRoles.bank) */\n      swap1\n      pop\n        /* \"contracts/Shops.sol\":2654:2701  registerFromAdmin(\"\",bankLogin,status,bankAddr) */\n      tag_126\n      mload(0x40)\n      dup1\n      0x20\n      add\n      0x40\n      mstore\n      dup1\n      0x00\n      dup2\n      mstore\n      pop\n        /* \"contracts/Shops.sol\":2675:2684  bankLogin */\n      dup5\n        /* \"contracts/Shops.sol\":2685:2691  status */\n      dup4\n        /* \"contracts/Shops.sol\":2692:2700  bankAddr */\n      dup6\n        /* \"contracts/Shops.sol\":2654:2671  registerFromAdmin */\n      tag_127\n        /* \"contracts/Shops.sol\":2654:2701  registerFromAdmin(\"\",bankLogin,status,bankAddr) */\n      jump\t// in\n    tag_126:\n        /* \"contracts/Shops.sol\":2600:2708  {... */\n      pop\n        /* \"contracts/Shops.sol\":2521:2708  function registerBank(string memory bankLogin,address bankAddr) public isAdmin {... */\n      pop\n      pop\n      jump\t// out\n        /* \"contracts/Shops.sol\":5956:6321  function createReview(... */\n    tag_34:\n        /* \"contracts/AuthService.sol\":1453:1492  compare(users[msg.sender].userLogin,\"\") */\n      tag_129\n        /* \"contracts/AuthService.sol\":1461:1466  users */\n      0x02\n        /* \"contracts/AuthService.sol\":1461:1478  users[msg.sender] */\n      0x00\n        /* \"contracts/AuthService.sol\":1467:1477  msg.sender */\n      caller\n        /* \"contracts/AuthService.sol\":1461:1478  users[msg.sender] */\n      0xffffffffffffffffffffffffffffffffffffffff\n      and\n      0xffffffffffffffffffffffffffffffffffffffff\n      and\n      dup2\n      mstore\n      0x20\n      add\n      swap1\n      dup2\n      mstore\n      0x20\n      add\n      0x00\n      keccak256\n        /* \"contracts/AuthService.sol\":1461:1488  users[msg.sender].userLogin */\n      0x01\n      add\n        /* \"contracts/AuthService.sol\":1453:1492  compare(users[msg.sender].userLogin,\"\") */\n      dup1\n      sload\n      tag_130\n      swap1\n      tag_91\n      jump\t// in\n    tag_130:\n      dup1\n      0x1f\n      add\n      0x20\n      dup1\n      swap2\n      div\n      mul\n      0x20\n      add\n      mload(0x40)\n      swap1\n      dup2\n      add\n      0x40\n      mstore\n      dup1\n      swap3\n      swap2\n      swap1\n      dup2\n      dup2\n      mstore\n      0x20\n      add\n      dup3\n      dup1\n      sload\n      tag_131\n      swap1\n      tag_91\n      jump\t// in\n    tag_131:\n      dup1\n      iszero\n      tag_132\n      jumpi\n      dup1\n      0x1f\n      lt\n      tag_133\n      jumpi\n      0x0100\n      dup1\n      dup4\n      sload\n      div\n      mul\n      dup4\n      mstore\n      swap2\n      0x20\n      add\n      swap2\n      jump(tag_132)\n    tag_133:\n      dup3\n      add\n      swap2\n      swap1\n      0x00\n      mstore\n      keccak256(0x00, 0x20)\n      swap1\n    tag_134:\n      dup2\n      sload\n      dup2\n      mstore\n      swap1\n      0x01\n      add\n      swap1\n      0x20\n      add\n      dup1\n      dup4\n      gt\n      tag_134\n      jumpi\n      dup3\n      swap1\n      sub\n      0x1f\n      and\n      dup3\n      add\n      swap2\n    tag_132:\n      pop\n      pop\n      pop\n      pop\n      pop\n      mload(0x40)\n      dup1\n      0x20\n      add\n      0x40\n      mstore\n      dup1\n      0x00\n      dup2\n      mstore\n      pop\n        /* \"contracts/AuthService.sol\":1453:1460  compare */\n      tag_135\n        /* \"contracts/AuthService.sol\":1453:1492  compare(users[msg.sender].userLogin,\"\") */\n      jump\t// in\n    tag_129:\n        /* \"contracts/AuthService.sol\":1452:1492  !compare(users[msg.sender].userLogin,\"\") */\n      iszero\n        /* \"contracts/AuthService.sol\":1444:1508  require(!compare(users[msg.sender].userLogin,\"\"),\"You not user\") */\n      tag_136\n      jumpi\n      mload(0x40)\n      0x08c379a000000000000000000000000000000000000000000000000000000000\n      dup2\n      mstore\n      0x04\n      add\n      tag_137\n      swap1\n      tag_138\n      jump\t// in\n    tag_137:\n      mload(0x40)\n      dup1\n      swap2\n      sub\n      swap1\n      revert\n    tag_136:\n        /* \"contracts/Shops.sol\":6163:6187  Review memory userReview */\n      0x00\n        /* \"contracts/Shops.sol\":6190:6239  Review(msg.sender,shopAddr,userMessage,0,0,grade) */\n      mload(0x40)\n      dup1\n      0xc0\n      add\n      0x40\n      mstore\n      dup1\n        /* \"contracts/Shops.sol\":6197:6207  msg.sender */\n      caller\n        /* \"contracts/Shops.sol\":6190:6239  Review(msg.sender,shopAddr,userMessage,0,0,grade) */\n      0xffffffffffffffffffffffffffffffffffffffff\n      and\n      dup2\n      mstore\n      0x20\n      add\n        /* \"contracts/Shops.sol\":6208:6216  shopAddr */\n      dup9\n        /* \"contracts/Shops.sol\":6190:6239  Review(msg.sender,shopAddr,userMessage,0,0,grade) */\n      0xffffffffffffffffffffffffffffffffffffffff\n      and\n      dup2\n      mstore\n      0x20\n      add\n        /* \"contracts/Shops.sol\":6217:6228  userMessage */\n      dup8\n        /* \"contracts/Shops.sol\":6190:6239  Review(msg.sender,shopAddr,userMessage,0,0,grade) */\n      dup2\n      mstore\n      0x20\n      add\n        /* \"contracts/Shops.sol\":6229:6230  0 */\n      0x00\n        /* \"contracts/Shops.sol\":6190:6239  Review(msg.sender,shopAddr,userMessage,0,0,grade) */\n      dup2\n      mstore\n      0x20\n      add\n        /* \"contracts/Shops.sol\":6231:6232  0 */\n      0x00\n        /* \"contracts/Shops.sol\":6190:6239  Review(msg.sender,shopAddr,userMessage,0,0,grade) */\n      dup2\n      mstore\n      0x20\n      add\n        /* \"contracts/Shops.sol\":6233:6238  grade */\n      dup4\n        /* \"contracts/Shops.sol\":6190:6239  Review(msg.sender,shopAddr,userMessage,0,0,grade) */\n      dup2\n      mstore\n      pop\n        /* \"contracts/Shops.sol\":6163:6239  Review memory userReview = Review(msg.sender,shopAddr,userMessage,0,0,grade) */\n      swap1\n      pop\n        /* \"contracts/Shops.sol\":6249:6260  shopReviews */\n      0x0d\n        /* \"contracts/Shops.sol\":6249:6270  shopReviews[shopAddr] */\n      0x00\n        /* \"contracts/Shops.sol\":6261:6269  shopAddr */\n      dup9\n        /* \"contracts/Shops.sol\":6249:6270  shopReviews[shopAddr] */\n      0xffffffffffffffffffffffffffffffffffffffff\n      and\n      0xffffffffffffffffffffffffffffffffffffffff\n      and\n      dup2\n      mstore\n      0x20\n      add\n      swap1\n      dup2\n      mstore\n      0x20\n      add\n      0x00\n      keccak256\n        /* \"contracts/Shops.sol\":6276:6278  id */\n      dup6\n        /* \"contracts/Shops.sol\":6249:6279  shopReviews[shopAddr].push(id) */\n      swap1\n      dup1\n      0x01\n      dup2\n      sload\n      add\n      dup1\n      dup3\n      sstore\n      dup1\n      swap2\n      pop\n      pop\n      0x01\n      swap1\n      sub\n      swap1\n      0x00\n      mstore\n      keccak256(0x00, 0x20)\n      add\n      0x00\n      swap1\n      swap2\n      swap1\n      swap2\n      swap1\n      swap2\n      pop\n      swap1\n      dup1\n      mload\n      swap1\n      0x20\n      add\n      swap1\n      tag_141\n      swap3\n      swap2\n      swap1\n      tag_142\n      jump\t// in\n    tag_141:\n      pop\n        /* \"contracts/Shops.sol\":6304:6314  userReview */\n      dup1\n        /* \"contracts/Shops.sol\":6289:6297  reviewId */\n      0x0e\n        /* \"contracts/Shops.sol\":6298:6300  id */\n      dup7\n        /* \"contracts/Shops.sol\":6289:6301  reviewId[id] */\n      mload(0x40)\n      tag_143\n      swap2\n      swap1\n      tag_144\n      jump\t// in\n    tag_143:\n      swap1\n      dup2\n      mstore\n      0x20\n      add\n      mload(0x40)\n      dup1\n      swap2\n      sub\n      swap1\n      keccak256\n        /* \"contracts/Shops.sol\":6289:6314  reviewId[id] = userReview */\n      0x00\n      dup3\n      add\n      mload\n      dup2\n      0x00\n      add\n      exp(0x0100, 0x00)\n      dup2\n      sload\n      dup2\n      0xffffffffffffffffffffffffffffffffffffffff\n      mul\n      not\n      and\n      swap1\n      dup4\n      0xffffffffffffffffffffffffffffffffffffffff\n      and\n      mul\n      or\n      swap1\n      sstore\n      pop\n      0x20\n      dup3\n      add\n      mload\n      dup2\n      0x01\n      add\n      exp(0x0100, 0x00)\n      dup2\n      sload\n      dup2\n      0xffffffffffffffffffffffffffffffffffffffff\n      mul\n      not\n      and\n      swap1\n      dup4\n      0xffffffffffffffffffffffffffffffffffffffff\n      and\n      mul\n      or\n      swap1\n      sstore\n      pop\n      0x40\n      dup3\n      add\n      mload\n      dup2\n      0x02\n      add\n      swap1\n      dup1\n      mload\n      swap1\n      0x20\n      add\n      swap1\n      tag_145\n      swap3\n      swap2\n      swap1\n      tag_142\n      jump\t// in\n    tag_145:\n      pop\n      0x60\n      dup3\n      add\n      mload\n      dup2\n      0x03\n      add\n      sstore\n      0x80\n      dup3\n      add\n      mload\n      dup2\n      0x04\n      add\n      sstore\n      0xa0\n      dup3\n      add\n      mload\n      dup2\n      0x05\n      add\n      sstore\n      swap1\n      pop\n      pop\n        /* \"contracts/Shops.sol\":6153:6321  {... */\n      pop\n        /* \"contracts/Shops.sol\":5956:6321  function createReview(... */\n      pop\n      pop\n      pop\n      pop\n      pop\n      pop\n      jump\t// out\n        /* \"contracts/AuthService.sol\":2244:2544  function login(string memory userLogin) public view isRegistered(userLogin) returns(address userAddress,string memory status){... */\n    tag_38:\n        /* \"contracts/AuthService.sol\":2328:2347  address userAddress */\n      0x00\n        /* \"contracts/AuthService.sol\":2348:2368  string memory status */\n      0x60\n        /* \"contracts/AuthService.sol\":2309:2318  userLogin */\n      dup3\n        /* \"contracts/AuthService.sol\":1376:1377  0 */\n      0x00\n        /* \"contracts/AuthService.sol\":1343:1378  userLogins[userLogin] != address(0) */\n      0xffffffffffffffffffffffffffffffffffffffff\n      and\n        /* \"contracts/AuthService.sol\":1343:1353  userLogins */\n      0x01\n        /* \"contracts/AuthService.sol\":1354:1363  userLogin */\n      dup3\n        /* \"contracts/AuthService.sol\":1343:1364  userLogins[userLogin] */\n      mload(0x40)\n      tag_147\n      swap2\n      swap1\n      tag_144\n      jump\t// in\n    tag_147:\n      swap1\n      dup2\n      mstore\n      0x20\n      add\n      mload(0x40)\n      dup1\n      swap2\n      sub\n      swap1\n      keccak256\n      0x00\n      swap1\n      sload\n      swap1\n      0x0100\n      exp\n      swap1\n      div\n      0xffffffffffffffffffffffffffffffffffffffff\n      and\n        /* \"contracts/AuthService.sol\":1343:1378  userLogins[userLogin] != address(0) */\n      0xffffffffffffffffffffffffffffffffffffffff\n      and\n      eq\n      iszero\n        /* \"contracts/AuthService.sol\":1335:1393  require(userLogins[userLogin] != address(0),\"Wrong Login\") */\n      tag_148\n      jumpi\n      mload(0x40)\n      0x08c379a000000000000000000000000000000000000000000000000000000000\n      dup2\n      mstore\n      0x04\n      add\n      tag_149\n      swap1\n      tag_150\n      jump\t// in\n    tag_149:\n      mload(0x40)\n      dup1\n      swap2\n      sub\n      swap1\n      revert\n    tag_148:\n        /* \"contracts/AuthService.sol\":2379:2395  address userAddr */\n      0x00\n        /* \"contracts/AuthService.sol\":2398:2408  userLogins */\n      0x01\n        /* \"contracts/AuthService.sol\":2409:2418  userLogin */\n      dup6\n        /* \"contracts/AuthService.sol\":2398:2419  userLogins[userLogin] */\n      mload(0x40)\n      tag_152\n      swap2\n      swap1\n      tag_144\n      jump\t// in\n    tag_152:\n      swap1\n      dup2\n      mstore\n      0x20\n      add\n      mload(0x40)\n      dup1\n      swap2\n      sub\n      swap1\n      keccak256\n      0x00\n      swap1\n      sload\n      swap1\n      0x0100\n      exp\n      swap1\n      div\n      0xffffffffffffffffffffffffffffffffffffffff\n      and\n        /* \"contracts/AuthService.sol\":2379:2419  address userAddr = userLogins[userLogin] */\n      swap1\n      pop\n        /* \"contracts/AuthService.sol\":2429:2445  User memory user */\n      0x00\n        /* \"contracts/AuthService.sol\":2448:2453  users */\n      0x02\n        /* \"contracts/AuthService.sol\":2448:2463  users[userAddr] */\n      0x00\n        /* \"contracts/AuthService.sol\":2454:2462  userAddr */\n      dup4\n        /* \"contracts/AuthService.sol\":2448:2463  users[userAddr] */\n      0xffffffffffffffffffffffffffffffffffffffff\n      and\n      0xffffffffffffffffffffffffffffffffffffffff\n      and\n      dup2\n      mstore\n      0x20\n      add\n      swap1\n      dup2\n      mstore\n      0x20\n      add\n      0x00\n      keccak256\n        /* \"contracts/AuthService.sol\":2429:2463  User memory user = users[userAddr] */\n      mload(0x40)\n      dup1\n      0x80\n      add\n      0x40\n      mstore\n      swap1\n      dup2\n      0x00\n      dup3\n      add\n      sload\n      dup2\n      mstore\n      0x20\n      add\n      0x01\n      dup3\n      add\n      dup1\n      sload\n      tag_153\n      swap1\n      tag_91\n      jump\t// in\n    tag_153:\n      dup1\n      0x1f\n      add\n      0x20\n      dup1\n      swap2\n      div\n      mul\n      0x20\n      add\n      mload(0x40)\n      swap1\n      dup2\n      add\n      0x40\n      mstore\n      dup1\n      swap3\n      swap2\n      swap1\n      dup2\n      dup2\n      mstore\n      0x20\n      add\n      dup3\n      dup1\n      sload\n      tag_154\n      swap1\n      tag_91\n      jump\t// in\n    tag_154:\n      dup1\n      iszero\n      tag_155\n      jumpi\n      dup1\n      0x1f\n      lt\n      tag_156\n      jumpi\n      0x0100\n      dup1\n      dup4\n      sload\n      div\n      mul\n      dup4\n      mstore\n      swap2\n      0x20\n      add\n      swap2\n      jump(tag_155)\n    tag_156:\n      dup3\n      add\n      swap2\n      swap1\n      0x00\n      mstore\n      keccak256(0x00, 0x20)\n      swap1\n    tag_157:\n      dup2\n      sload\n      dup2\n      mstore\n      swap1\n      0x01\n      add\n      swap1\n      0x20\n      add\n      dup1\n      dup4\n      gt\n      tag_157\n      jumpi\n      dup3\n      swap1\n      sub\n      0x1f\n      and\n      dup3\n      add\n      swap2\n    tag_155:\n      pop\n      pop\n      pop\n      pop\n      pop\n      dup2\n      mstore\n      0x20\n      add\n      0x02\n      dup3\n      add\n      dup1\n      sload\n      tag_158\n      swap1\n      tag_91\n      jump\t// in\n    tag_158:\n      dup1\n      0x1f\n      add\n      0x20\n      dup1\n      swap2\n      div\n      mul\n      0x20\n      add\n      mload(0x40)\n      swap1\n      dup2\n      add\n      0x40\n      mstore\n      dup1\n      swap3\n      swap2\n      swap1\n      dup2\n      dup2\n      mstore\n      0x20\n      add\n      dup3\n      dup1\n      sload\n      tag_159\n      swap1\n      tag_91\n      jump\t// in\n    tag_159:\n      dup1\n      iszero\n      tag_160\n      jumpi\n      dup1\n      0x1f\n      lt\n      tag_161\n      jumpi\n      0x0100\n      dup1\n      dup4\n      sload\n      div\n      mul\n      dup4\n      mstore\n      swap2\n      0x20\n      add\n      swap2\n      jump(tag_160)\n    tag_161:\n      dup3\n      add\n      swap2\n      swap1\n      0x00\n      mstore\n      keccak256(0x00, 0x20)\n      swap1\n    tag_162:\n      dup2\n      sload\n      dup2\n      mstore\n      swap1\n      0x01\n      add\n      swap1\n      0x20\n      add\n      dup1\n      dup4\n      gt\n      tag_162\n      jumpi\n      dup3\n      swap1\n      sub\n      0x1f\n      and\n      dup3\n      add\n      swap2\n    tag_160:\n      pop\n      pop\n      pop\n      pop\n      pop\n      dup2\n      mstore\n      0x20\n      add\n      0x03\n      dup3\n      add\n      dup1\n      sload\n      dup1\n      0x20\n      mul\n      0x20\n      add\n      mload(0x40)\n      swap1\n      dup2\n      add\n      0x40\n      mstore\n      dup1\n      swap3\n      swap2\n      swap1\n      dup2\n      dup2\n      mstore\n      0x20\n      add\n      0x00\n      swap1\n    tag_163:\n      dup3\n      dup3\n      lt\n      iszero\n      tag_164\n      jumpi\n      dup4\n      dup3\n      swap1\n      0x00\n      mstore\n      keccak256(0x00, 0x20)\n      add\n      dup1\n      sload\n      tag_166\n      swap1\n      tag_91\n      jump\t// in\n    tag_166:\n      dup1\n      0x1f\n      add\n      0x20\n      dup1\n      swap2\n      div\n      mul\n      0x20\n      add\n      mload(0x40)\n      swap1\n      dup2\n      add\n      0x40\n      mstore\n      dup1\n      swap3\n      swap2\n      swap1\n      dup2\n      dup2\n      mstore\n      0x20\n      add\n      dup3\n      dup1\n      sload\n      tag_167\n      swap1\n      tag_91\n      jump\t// in\n    tag_167:\n      dup1\n      iszero\n      tag_168\n      jumpi\n      dup1\n      0x1f\n      lt\n      tag_169\n      jumpi\n      0x0100\n      dup1\n      dup4\n      sload\n      div\n      mul\n      dup4\n      mstore\n      swap2\n      0x20\n      add\n      swap2\n      jump(tag_168)\n    tag_169:\n      dup3\n      add\n      swap2\n      swap1\n      0x00\n      mstore\n      keccak256(0x00, 0x20)\n      swap1\n    tag_170:\n      dup2\n      sload\n      dup2\n      mstore\n      swap1\n      0x01\n      add\n      swap1\n      0x20\n      add\n      dup1\n      dup4\n      gt\n      tag_170\n      jumpi\n      dup3\n      swap1\n      sub\n      0x1f\n      and\n      dup3\n      add\n      swap2\n    tag_168:\n      pop\n      pop\n      pop\n      pop\n      pop\n      dup2\n      mstore\n      0x20\n      add\n      swap1\n      0x01\n      add\n      swap1\n      jump(tag_163)\n    tag_164:\n      pop\n      pop\n      pop\n      pop\n      dup2\n      mstore\n      pop\n      pop\n      swap1\n      pop\n        /* \"contracts/AuthService.sol\":2487:2495  userAddr */\n      dup2\n        /* \"contracts/AuthService.sol\":2473:2495  userAddress = userAddr */\n      swap5\n      pop\n        /* \"contracts/AuthService.sol\":2514:2524  userStatus */\n      0x00\n        /* \"contracts/AuthService.sol\":2514:2537  userStatus[user.status] */\n      dup1\n        /* \"contracts/AuthService.sol\":2525:2529  user */\n      dup3\n        /* \"contracts/AuthService.sol\":2525:2536  user.status */\n      0x00\n      add\n      mload\n        /* \"contracts/AuthService.sol\":2514:2537  userStatus[user.status] */\n      dup2\n      mstore\n      0x20\n      add\n      swap1\n      dup2\n      mstore\n      0x20\n      add\n      0x00\n      keccak256\n        /* \"contracts/AuthService.sol\":2505:2537  status = userStatus[user.status] */\n      dup1\n      sload\n      tag_171\n      swap1\n      tag_91\n      jump\t// in\n    tag_171:\n      dup1\n      0x1f\n      add\n      0x20\n      dup1\n      swap2\n      div\n      mul\n      0x20\n      add\n      mload(0x40)\n      swap1\n      dup2\n      add\n      0x40\n      mstore\n      dup1\n      swap3\n      swap2\n      swap1\n      dup2\n      dup2\n      mstore\n      0x20\n      add\n      dup3\n      dup1\n      sload\n      tag_172\n      swap1\n      tag_91\n      jump\t// in\n    tag_172:\n      dup1\n      iszero\n      tag_173\n      jumpi\n      dup1\n      0x1f\n      lt\n      tag_174\n      jumpi\n      0x0100\n      dup1\n      dup4\n      sload\n      div\n      mul\n      dup4\n      mstore\n      swap2\n      0x20\n      add\n      swap2\n      jump(tag_173)\n    tag_174:\n      dup3\n      add\n      swap2\n      swap1\n      0x00\n      mstore\n      keccak256(0x00, 0x20)\n      swap1\n    tag_175:\n      dup2\n      sload\n      dup2\n      mstore\n      swap1\n      0x01\n      add\n      swap1\n      0x20\n      add\n      dup1\n      dup4\n      gt\n      tag_175\n      jumpi\n      dup3\n      swap1\n      sub\n      0x1f\n      and\n      dup3\n      add\n      swap2\n    tag_173:\n      pop\n      pop\n      pop\n      pop\n      pop\n      swap4\n      pop\n        /* \"contracts/AuthService.sol\":2369:2544  {... */\n      pop\n      pop\n        /* \"contracts/AuthService.sol\":2244:2544  function login(string memory userLogin) public view isRegistered(userLogin) returns(address userAddress,string memory status){... */\n      pop\n      swap2\n      pop\n      swap2\n      jump\t// out\n        /* \"contracts/Shops.sol\":3717:4308  function getSellerInfo() public view isUserStatus(UserRoles.seller) returns(... */\n    tag_42:\n        /* \"contracts/Shops.sol\":3802:3827  string memory sellerLogin */\n      0x60\n        /* \"contracts/Shops.sol\":3837:3854  string memory fio */\n      dup1\n        /* \"contracts/Shops.sol\":3864:3882  string memory city */\n      0x60\n        /* \"contracts/Shops.sol\":3892:3916  string memory shopNumber */\n      dup1\n        /* \"contracts/Shops.sol\":3926:3949  string[] memory reviews */\n      0x60\n        /* \"contracts/Shops.sol\":3767:3783  UserRoles.seller */\n      0x01\n        /* \"contracts/AuthService.sol\":1605:1610  users */\n      0x02\n        /* \"contracts/AuthService.sol\":1605:1622  users[msg.sender] */\n      0x00\n        /* \"contracts/AuthService.sol\":1611:1621  msg.sender */\n      caller\n        /* \"contracts/AuthService.sol\":1605:1622  users[msg.sender] */\n      0xffffffffffffffffffffffffffffffffffffffff\n      and\n      0xffffffffffffffffffffffffffffffffffffffff\n      and\n      dup2\n      mstore\n      0x20\n      add\n      swap1\n      dup2\n      mstore\n      0x20\n      add\n      0x00\n      keccak256\n        /* \"contracts/AuthService.sol\":1605:1629  users[msg.sender].status */\n      0x00\n      add\n      sload\n        /* \"contracts/AuthService.sol\":1594:1600  status */\n      dup2\n        /* \"contracts/AuthService.sol\":1589:1601  uint(status) */\n      0x05\n      dup2\n      gt\n      iszero\n      tag_177\n      jumpi\n      tag_178\n      tag_85\n      jump\t// in\n    tag_178:\n    tag_177:\n        /* \"contracts/AuthService.sol\":1589:1629  uint(status) == users[msg.sender].status */\n      eq\n        /* \"contracts/AuthService.sol\":1581:1642  require(uint(status) == users[msg.sender].status,\"Forbidden\") */\n      tag_179\n      jumpi\n      mload(0x40)\n      0x08c379a000000000000000000000000000000000000000000000000000000000\n      dup2\n      mstore\n      0x04\n      add\n      tag_180\n      swap1\n      tag_88\n      jump\t// in\n    tag_180:\n      mload(0x40)\n      dup1\n      swap2\n      sub\n      swap1\n      revert\n    tag_179:\n        /* \"contracts/Shops.sol\":3965:3985  User memory sellUser */\n      0x00\n        /* \"contracts/Shops.sol\":3988:3993  users */\n      0x02\n        /* \"contracts/Shops.sol\":3988:4005  users[msg.sender] */\n      0x00\n        /* \"contracts/Shops.sol\":3994:4004  msg.sender */\n      caller\n        /* \"contracts/Shops.sol\":3988:4005  users[msg.sender] */\n      0xffffffffffffffffffffffffffffffffffffffff\n      and\n      0xffffffffffffffffffffffffffffffffffffffff\n      and\n      dup2\n      mstore\n      0x20\n      add\n      swap1\n      dup2\n      mstore\n      0x20\n      add\n      0x00\n      keccak256\n        /* \"contracts/Shops.sol\":3965:4005  User memory sellUser = users[msg.sender] */\n      mload(0x40)\n      dup1\n      0x80\n      add\n      0x40\n      mstore\n      swap1\n      dup2\n      0x00\n      dup3\n      add\n      sload\n      dup2\n      mstore\n      0x20\n      add\n      0x01\n      dup3\n      add\n      dup1\n      sload\n      tag_182\n      swap1\n      tag_91\n      jump\t// in\n    tag_182:\n      dup1\n      0x1f\n      add\n      0x20\n      dup1\n      swap2\n      div\n      mul\n      0x20\n      add\n      mload(0x40)\n      swap1\n      dup2\n      add\n      0x40\n      mstore\n      dup1\n      swap3\n      swap2\n      swap1\n      dup2\n      dup2\n      mstore\n      0x20\n      add\n      dup3\n      dup1\n      sload\n      tag_183\n      swap1\n      tag_91\n      jump\t// in\n    tag_183:\n      dup1\n      iszero\n      tag_184\n      jumpi\n      dup1\n      0x1f\n      lt\n      tag_185\n      jumpi\n      0x0100\n      dup1\n      dup4\n      sload\n      div\n      mul\n      dup4\n      mstore\n      swap2\n      0x20\n      add\n      swap2\n      jump(tag_184)\n    tag_185:\n      dup3\n      add\n      swap2\n      swap1\n      0x00\n      mstore\n      keccak256(0x00, 0x20)\n      swap1\n    tag_186:\n      dup2\n      sload\n      dup2\n      mstore\n      swap1\n      0x01\n      add\n      swap1\n      0x20\n      add\n      dup1\n      dup4\n      gt\n      tag_186\n      jumpi\n      dup3\n      swap1\n      sub\n      0x1f\n      and\n      dup3\n      add\n      swap2\n    tag_184:\n      pop\n      pop\n      pop\n      pop\n      pop\n      dup2\n      mstore\n      0x20\n      add\n      0x02\n      dup3\n      add\n      dup1\n      sload\n      tag_187\n      swap1\n      tag_91\n      jump\t// in\n    tag_187:\n      dup1\n      0x1f\n      add\n      0x20\n      dup1\n      swap2\n      div\n      mul\n      0x20\n      add\n      mload(0x40)\n      swap1\n      dup2\n      add\n      0x40\n      mstore\n      dup1\n      swap3\n      swap2\n      swap1\n      dup2\n      dup2\n      mstore\n      0x20\n      add\n      dup3\n      dup1\n      sload\n      tag_188\n      swap1\n      tag_91\n      jump\t// in\n    tag_188:\n      dup1\n      iszero\n      tag_189\n      jumpi\n      dup1\n      0x1f\n      lt\n      tag_190\n      jumpi\n      0x0100\n      dup1\n      dup4\n      sload\n      div\n      mul\n      dup4\n      mstore\n      swap2\n      0x20\n      add\n      swap2\n      jump(tag_189)\n    tag_190:\n      dup3\n      add\n      swap2\n      swap1\n      0x00\n      mstore\n      keccak256(0x00, 0x20)\n      swap1\n    tag_191:\n      dup2\n      sload\n      dup2\n      mstore\n      swap1\n      0x01\n      add\n      swap1\n      0x20\n      add\n      dup1\n      dup4\n      gt\n      tag_191\n      jumpi\n      dup3\n      swap1\n      sub\n      0x1f\n      and\n      dup3\n      add\n      swap2\n    tag_189:\n      pop\n      pop\n      pop\n      pop\n      pop\n      dup2\n      mstore\n      0x20\n      add\n      0x03\n      dup3\n      add\n      dup1\n      sload\n      dup1\n      0x20\n      mul\n      0x20\n      add\n      mload(0x40)\n      swap1\n      dup2\n      add\n      0x40\n      mstore\n      dup1\n      swap3\n      swap2\n      swap1\n      dup2\n      dup2\n      mstore\n      0x20\n      add\n      0x00\n      swap1\n    tag_192:\n      dup3\n      dup3\n      lt\n      iszero\n      tag_193\n      jumpi\n      dup4\n      dup3\n      swap1\n      0x00\n      mstore\n      keccak256(0x00, 0x20)\n      add\n      dup1\n      sload\n      tag_195\n      swap1\n      tag_91\n      jump\t// in\n    tag_195:\n      dup1\n      0x1f\n      add\n      0x20\n      dup1\n      swap2\n      div\n      mul\n      0x20\n      add\n      mload(0x40)\n      swap1\n      dup2\n      add\n      0x40\n      mstore\n      dup1\n      swap3\n      swap2\n      swap1\n      dup2\n      dup2\n      mstore\n      0x20\n      add\n      dup3\n      dup1\n      sload\n      tag_196\n      swap1\n      tag_91\n      jump\t// in\n    tag_196:\n      dup1\n      iszero\n      tag_197\n      jumpi\n      dup1\n      0x1f\n      lt\n      tag_198\n      jumpi\n      0x0100\n      dup1\n      dup4\n      sload\n      div\n      mul\n      dup4\n      mstore\n      swap2\n      0x20\n      add\n      swap2\n      jump(tag_197)\n    tag_198:\n      dup3\n      add\n      swap2\n      swap1\n      0x00\n      mstore\n      keccak256(0x00, 0x20)\n      swap1\n    tag_199:\n      dup2\n      sload\n      dup2\n      mstore\n      swap1\n      0x01\n      add\n      swap1\n      0x20\n      add\n      dup1\n      dup4\n      gt\n      tag_199\n      jumpi\n      dup3\n      swap1\n      sub\n      0x1f\n      and\n      dup3\n      add\n      swap2\n    tag_197:\n      pop\n      pop\n      pop\n      pop\n      pop\n      dup2\n      mstore\n      0x20\n      add\n      swap1\n      0x01\n      add\n      swap1\n      jump(tag_192)\n    tag_193:\n      pop\n      pop\n      pop\n      pop\n      dup2\n      mstore\n      pop\n      pop\n      swap1\n      pop\n        /* \"contracts/Shops.sol\":4015:4035  address sellShopAddr */\n      0x00\n        /* \"contracts/Shops.sol\":4038:4050  salesmanShop */\n      0x0b\n        /* \"contracts/Shops.sol\":4038:4062  salesmanShop[msg.sender] */\n      0x00\n        /* \"contracts/Shops.sol\":4051:4061  msg.sender */\n      caller\n        /* \"contracts/Shops.sol\":4038:4062  salesmanShop[msg.sender] */\n      0xffffffffffffffffffffffffffffffffffffffff\n      and\n      0xffffffffffffffffffffffffffffffffffffffff\n      and\n      dup2\n      mstore\n      0x20\n      add\n      swap1\n      dup2\n      mstore\n      0x20\n      add\n      0x00\n      keccak256\n      0x00\n      swap1\n      sload\n      swap1\n      0x0100\n      exp\n      swap1\n      div\n      0xffffffffffffffffffffffffffffffffffffffff\n      and\n        /* \"contracts/Shops.sol\":4015:4062  address sellShopAddr = salesmanShop[msg.sender] */\n      swap1\n      pop\n        /* \"contracts/Shops.sol\":4072:4092  Shop memory sellShop */\n      0x00\n        /* \"contracts/Shops.sol\":4095:4104  ShopsList */\n      0x0a\n        /* \"contracts/Shops.sol\":4095:4118  ShopsList[sellShopAddr] */\n      0x00\n        /* \"contracts/Shops.sol\":4105:4117  sellShopAddr */\n      dup4\n        /* \"contracts/Shops.sol\":4095:4118  ShopsList[sellShopAddr] */\n      0xffffffffffffffffffffffffffffffffffffffff\n      and\n      0xffffffffffffffffffffffffffffffffffffffff\n      and\n      dup2\n      mstore\n      0x20\n      add\n      swap1\n      dup2\n      mstore\n      0x20\n      add\n      0x00\n      keccak256\n        /* \"contracts/Shops.sol\":4072:4118  Shop memory sellShop = ShopsList[sellShopAddr] */\n      mload(0x40)\n      dup1\n      0x60\n      add\n      0x40\n      mstore\n      swap1\n      dup2\n      0x00\n      dup3\n      add\n      dup1\n      sload\n      tag_200\n      swap1\n      tag_91\n      jump\t// in\n    tag_200:\n      dup1\n      0x1f\n      add\n      0x20\n      dup1\n      swap2\n      div\n      mul\n      0x20\n      add\n      mload(0x40)\n      swap1\n      dup2\n      add\n      0x40\n      mstore\n      dup1\n      swap3\n      swap2\n      swap1\n      dup2\n      dup2\n      mstore\n      0x20\n      add\n      dup3\n      dup1\n      sload\n      tag_201\n      swap1\n      tag_91\n      jump\t// in\n    tag_201:\n      dup1\n      iszero\n      tag_202\n      jumpi\n      dup1\n      0x1f\n      lt\n      tag_203\n      jumpi\n      0x0100\n      dup1\n      dup4\n      sload\n      div\n      mul\n      dup4\n      mstore\n      swap2\n      0x20\n      add\n      swap2\n      jump(tag_202)\n    tag_203:\n      dup3\n      add\n      swap2\n      swap1\n      0x00\n      mstore\n      keccak256(0x00, 0x20)\n      swap1\n    tag_204:\n      dup2\n      sload\n      dup2\n      mstore\n      swap1\n      0x01\n      add\n      swap1\n      0x20\n      add\n      dup1\n      dup4\n      gt\n      tag_204\n      jumpi\n      dup3\n      swap1\n      sub\n      0x1f\n      and\n      dup3\n      add\n      swap2\n    tag_202:\n      pop\n      pop\n      pop\n      pop\n      pop\n      dup2\n      mstore\n      0x20\n      add\n      0x01\n      dup3\n      add\n      dup1\n      sload\n      tag_205\n      swap1\n      tag_91\n      jump\t// in\n    tag_205:\n      dup1\n      0x1f\n      add\n      0x20\n      dup1\n      swap2\n      div\n      mul\n      0x20\n      add\n      mload(0x40)\n      swap1\n      dup2\n      add\n      0x40\n      mstore\n      dup1\n      swap3\n      swap2\n      swap1\n      dup2\n      dup2\n      mstore\n      0x20\n      add\n      dup3\n      dup1\n      sload\n      tag_206\n      swap1\n      tag_91\n      jump\t// in\n    tag_206:\n      dup1\n      iszero\n      tag_207\n      jumpi\n      dup1\n      0x1f\n      lt\n      tag_208\n      jumpi\n      0x0100\n      dup1\n      dup4\n      sload\n      div\n      mul\n      dup4\n      mstore\n      swap2\n      0x20\n      add\n      swap2\n      jump(tag_207)\n    tag_208:\n      dup3\n      add\n      swap2\n      swap1\n      0x00\n      mstore\n      keccak256(0x00, 0x20)\n      swap1\n    tag_209:\n      dup2\n      sload\n      dup2\n      mstore\n      swap1\n      0x01\n      add\n      swap1\n      0x20\n      add\n      dup1\n      dup4\n      gt\n      tag_209\n      jumpi\n      dup3\n      swap1\n      sub\n      0x1f\n      and\n      dup3\n      add\n      swap2\n    tag_207:\n      pop\n      pop\n      pop\n      pop\n      pop\n      dup2\n      mstore\n      0x20\n      add\n      0x02\n      dup3\n      add\n      sload\n      dup2\n      mstore\n      pop\n      pop\n      swap1\n      pop\n        /* \"contracts/Shops.sol\":4151:4159  sellUser */\n      dup3\n        /* \"contracts/Shops.sol\":4151:4169  sellUser.userLogin */\n      0x20\n      add\n      mload\n        /* \"contracts/Shops.sol\":4137:4169  sellerLogin = sellUser.userLogin */\n      swap9\n      pop\n        /* \"contracts/Shops.sol\":4185:4193  sellUser */\n      dup3\n        /* \"contracts/Shops.sol\":4185:4197  sellUser.fio */\n      0x40\n      add\n      mload\n        /* \"contracts/Shops.sol\":4179:4197  fio = sellUser.fio */\n      swap8\n      pop\n        /* \"contracts/Shops.sol\":4214:4222  sellShop */\n      dup1\n        /* \"contracts/Shops.sol\":4214:4227  sellShop.city */\n      0x20\n      add\n      mload\n        /* \"contracts/Shops.sol\":4207:4227  city = sellShop.city */\n      swap7\n      pop\n        /* \"contracts/Shops.sol\":4250:4258  sellShop */\n      dup1\n        /* \"contracts/Shops.sol\":4250:4265  sellShop.number */\n      0x00\n      add\n      mload\n        /* \"contracts/Shops.sol\":4237:4265  shopNumber = sellShop.number */\n      swap6\n      pop\n        /* \"contracts/Shops.sol\":4285:4293  sellUser */\n      dup3\n        /* \"contracts/Shops.sol\":4285:4301  sellUser.reviews */\n      0x60\n      add\n      mload\n        /* \"contracts/Shops.sol\":4275:4301  reviews = sellUser.reviews */\n      swap5\n      pop\n        /* \"contracts/Shops.sol\":3955:4308  {... */\n      pop\n      pop\n      pop\n        /* \"contracts/Shops.sol\":3717:4308  function getSellerInfo() public view isUserStatus(UserRoles.seller) returns(... */\n      pop\n      swap1\n      swap2\n      swap3\n      swap4\n      swap5\n      jump\t// out\n        /* \"contracts/Shops.sol\":1751:2102  function registerShop(address shopAddr,string memory number,string memory city,string memory shopLogin) public isUserStatus(UserRoles.admin){... */\n    tag_47:\n        /* \"contracts/Shops.sol\":1875:1890  UserRoles.admin */\n      0x03\n        /* \"contracts/AuthService.sol\":1605:1610  users */\n      0x02\n        /* \"contracts/AuthService.sol\":1605:1622  users[msg.sender] */\n      0x00\n        /* \"contracts/AuthService.sol\":1611:1621  msg.sender */\n      caller\n        /* \"contracts/AuthService.sol\":1605:1622  users[msg.sender] */\n      0xffffffffffffffffffffffffffffffffffffffff\n      and\n      0xffffffffffffffffffffffffffffffffffffffff\n      and\n      dup2\n      mstore\n      0x20\n      add\n      swap1\n      dup2\n      mstore\n      0x20\n      add\n      0x00\n      keccak256\n        /* \"contracts/AuthService.sol\":1605:1629  users[msg.sender].status */\n      0x00\n      add\n      sload\n        /* \"contracts/AuthService.sol\":1594:1600  status */\n      dup2\n        /* \"contracts/AuthService.sol\":1589:1601  uint(status) */\n      0x05\n      dup2\n      gt\n      iszero\n      tag_211\n      jumpi\n      tag_212\n      tag_85\n      jump\t// in\n    tag_212:\n    tag_211:\n        /* \"contracts/AuthService.sol\":1589:1629  uint(status) == users[msg.sender].status */\n      eq\n        /* \"contracts/AuthService.sol\":1581:1642  require(uint(status) == users[msg.sender].status,\"Forbidden\") */\n      tag_213\n      jumpi\n      mload(0x40)\n      0x08c379a000000000000000000000000000000000000000000000000000000000\n      dup2\n      mstore\n      0x04\n      add\n      tag_214\n      swap1\n      tag_88\n      jump\t// in\n    tag_214:\n      mload(0x40)\n      dup1\n      swap2\n      sub\n      swap1\n      revert\n    tag_213:\n        /* \"contracts/Shops.sol\":1901:1917  Shop memory shop */\n      0x00\n        /* \"contracts/Shops.sol\":1920:1958  Shop({number:number,city:city,debt:0}) */\n      mload(0x40)\n      dup1\n      0x60\n      add\n      0x40\n      mstore\n      dup1\n        /* \"contracts/Shops.sol\":1933:1939  number */\n      dup7\n        /* \"contracts/Shops.sol\":1920:1958  Shop({number:number,city:city,debt:0}) */\n      dup2\n      mstore\n      0x20\n      add\n        /* \"contracts/Shops.sol\":1945:1949  city */\n      dup6\n        /* \"contracts/Shops.sol\":1920:1958  Shop({number:number,city:city,debt:0}) */\n      dup2\n      mstore\n      0x20\n      add\n        /* \"contracts/Shops.sol\":1955:1956  0 */\n      0x00\n        /* \"contracts/Shops.sol\":1920:1958  Shop({number:number,city:city,debt:0}) */\n      dup2\n      mstore\n      pop\n        /* \"contracts/Shops.sol\":1901:1958  Shop memory shop = Shop({number:number,city:city,debt:0}) */\n      swap1\n      pop\n        /* \"contracts/Shops.sol\":1990:1994  shop */\n      dup1\n        /* \"contracts/Shops.sol\":1968:1977  ShopsList */\n      0x0a\n        /* \"contracts/Shops.sol\":1968:1987  ShopsList[shopAddr] */\n      0x00\n        /* \"contracts/Shops.sol\":1978:1986  shopAddr */\n      dup9\n        /* \"contracts/Shops.sol\":1968:1987  ShopsList[shopAddr] */\n      0xffffffffffffffffffffffffffffffffffffffff\n      and\n      0xffffffffffffffffffffffffffffffffffffffff\n      and\n      dup2\n      mstore\n      0x20\n      add\n      swap1\n      dup2\n      mstore\n      0x20\n      add\n      0x00\n      keccak256\n        /* \"contracts/Shops.sol\":1968:1994  ShopsList[shopAddr] = shop */\n      0x00\n      dup3\n      add\n      mload\n      dup2\n      0x00\n      add\n      swap1\n      dup1\n      mload\n      swap1\n      0x20\n      add\n      swap1\n      tag_216\n      swap3\n      swap2\n      swap1\n      tag_142\n      jump\t// in\n    tag_216:\n      pop\n      0x20\n      dup3\n      add\n      mload\n      dup2\n      0x01\n      add\n      swap1\n      dup1\n      mload\n      swap1\n      0x20\n      add\n      swap1\n      tag_217\n      swap3\n      swap2\n      swap1\n      tag_142\n      jump\t// in\n    tag_217:\n      pop\n      0x40\n      dup3\n      add\n      mload\n      dup2\n      0x02\n      add\n      sstore\n      swap1\n      pop\n      pop\n        /* \"contracts/Shops.sol\":2004:2015  uint status */\n      0x00\n        /* \"contracts/Shops.sol\":2023:2037  UserRoles.shop */\n      0x02\n        /* \"contracts/Shops.sol\":2018:2038  uint(UserRoles.shop) */\n      0x05\n      dup2\n      gt\n      iszero\n      tag_218\n      jumpi\n      tag_219\n      tag_85\n      jump\t// in\n    tag_219:\n    tag_218:\n        /* \"contracts/Shops.sol\":2004:2038  uint status = uint(UserRoles.shop) */\n      swap1\n      pop\n        /* \"contracts/Shops.sol\":2048:2095  registerFromAdmin(\"\",shopLogin,status,shopAddr) */\n      tag_220\n      mload(0x40)\n      dup1\n      0x20\n      add\n      0x40\n      mstore\n      dup1\n      0x00\n      dup2\n      mstore\n      pop\n        /* \"contracts/Shops.sol\":2069:2078  shopLogin */\n      dup6\n        /* \"contracts/Shops.sol\":2079:2085  status */\n      dup4\n        /* \"contracts/Shops.sol\":2086:2094  shopAddr */\n      dup11\n        /* \"contracts/Shops.sol\":2048:2065  registerFromAdmin */\n      tag_127\n        /* \"contracts/Shops.sol\":2048:2095  registerFromAdmin(\"\",shopLogin,status,shopAddr) */\n      jump\t// in\n    tag_220:\n        /* \"contracts/Shops.sol\":1891:2102  {... */\n      pop\n      pop\n        /* \"contracts/Shops.sol\":1751:2102  function registerShop(address shopAddr,string memory number,string memory city,string memory shopLogin) public isUserStatus(UserRoles.admin){... */\n      pop\n      pop\n      pop\n      pop\n      pop\n      jump\t// out\n        /* \"contracts/Shops.sol\":6327:6401  function likeReview(string memory reviewId) public isUser {... */\n    tag_50:\n        /* \"contracts/AuthService.sol\":1453:1492  compare(users[msg.sender].userLogin,\"\") */\n      tag_222\n        /* \"contracts/AuthService.sol\":1461:1466  users */\n      0x02\n        /* \"contracts/AuthService.sol\":1461:1478  users[msg.sender] */\n      0x00\n        /* \"contracts/AuthService.sol\":1467:1477  msg.sender */\n      caller\n        /* \"contracts/AuthService.sol\":1461:1478  users[msg.sender] */\n      0xffffffffffffffffffffffffffffffffffffffff\n      and\n      0xffffffffffffffffffffffffffffffffffffffff\n      and\n      dup2\n      mstore\n      0x20\n      add\n      swap1\n      dup2\n      mstore\n      0x20\n      add\n      0x00\n      keccak256\n        /* \"contracts/AuthService.sol\":1461:1488  users[msg.sender].userLogin */\n      0x01\n      add\n        /* \"contracts/AuthService.sol\":1453:1492  compare(users[msg.sender].userLogin,\"\") */\n      dup1\n      sload\n      tag_223\n      swap1\n      tag_91\n      jump\t// in\n    tag_223:\n      dup1\n      0x1f\n      add\n      0x20\n      dup1\n      swap2\n      div\n      mul\n      0x20\n      add\n      mload(0x40)\n      swap1\n      dup2\n      add\n      0x40\n      mstore\n      dup1\n      swap3\n      swap2\n      swap1\n      dup2\n      dup2\n      mstore\n      0x20\n      add\n      dup3\n      dup1\n      sload\n      tag_224\n      swap1\n      tag_91\n      jump\t// in\n    tag_224:\n      dup1\n      iszero\n      tag_225\n      jumpi\n      dup1\n      0x1f\n      lt\n      tag_226\n      jumpi\n      0x0100\n      dup1\n      dup4\n      sload\n      div\n      mul\n      dup4\n      mstore\n      swap2\n      0x20\n      add\n      swap2\n      jump(tag_225)\n    tag_226:\n      dup3\n      add\n      swap2\n      swap1\n      0x00\n      mstore\n      keccak256(0x00, 0x20)\n      swap1\n    tag_227:\n      dup2\n      sload\n      dup2\n      mstore\n      swap1\n      0x01\n      add\n      swap1\n      0x20\n      add\n      dup1\n      dup4\n      gt\n      tag_227\n      jumpi\n      dup3\n      swap1\n      sub\n      0x1f\n      and\n      dup3\n      add\n      swap2\n    tag_225:\n      pop\n      pop\n      pop\n      pop\n      pop\n      mload(0x40)\n      dup1\n      0x20\n      add\n      0x40\n      mstore\n      dup1\n      0x00\n      dup2\n      mstore\n      pop\n        /* \"contracts/AuthService.sol\":1453:1460  compare */\n      tag_135\n        /* \"contracts/AuthService.sol\":1453:1492  compare(users[msg.sender].userLogin,\"\") */\n      jump\t// in\n    tag_222:\n        /* \"contracts/AuthService.sol\":1452:1492  !compare(users[msg.sender].userLogin,\"\") */\n      iszero\n        /* \"contracts/AuthService.sol\":1444:1508  require(!compare(users[msg.sender].userLogin,\"\"),\"You not user\") */\n      tag_228\n      jumpi\n      mload(0x40)\n      0x08c379a000000000000000000000000000000000000000000000000000000000\n      dup2\n      mstore\n      0x04\n      add\n      tag_229\n      swap1\n      tag_138\n      jump\t// in\n    tag_229:\n      mload(0x40)\n      dup1\n      swap2\n      sub\n      swap1\n      revert\n    tag_228:\n        /* \"contracts/Shops.sol\":6327:6401  function likeReview(string memory reviewId) public isUser {... */\n      pop\n      jump\t// out\n        /* \"contracts/Shops.sol\":2202:2446  function registerProvider(string memory providerLogin,address providerAddr) public isAdmin {... */\n    tag_53:\n        /* \"contracts/Shops.sol\":958:963  admin */\n      0x04\n      0x00\n      swap1\n      sload\n      swap1\n      0x0100\n      exp\n      swap1\n      div\n      0xffffffffffffffffffffffffffffffffffffffff\n      and\n        /* \"contracts/Shops.sol\":944:963  msg.sender == admin */\n      0xffffffffffffffffffffffffffffffffffffffff\n      and\n        /* \"contracts/Shops.sol\":944:954  msg.sender */\n      caller\n        /* \"contracts/Shops.sol\":944:963  msg.sender == admin */\n      0xffffffffffffffffffffffffffffffffffffffff\n      and\n      eq\n        /* \"contracts/Shops.sol\":936:980  require(msg.sender == admin,\"You not admin\") */\n      tag_232\n      jumpi\n      mload(0x40)\n      0x08c379a000000000000000000000000000000000000000000000000000000000\n      dup2\n      mstore\n      0x04\n      add\n      tag_233\n      swap1\n      tag_122\n      jump\t// in\n    tag_233:\n      mload(0x40)\n      dup1\n      swap2\n      sub\n      swap1\n      revert\n    tag_232:\n        /* \"contracts/Shops.sol\":2303:2314  uint status */\n      0x00\n        /* \"contracts/Shops.sol\":2322:2340  UserRoles.provider */\n      0x04\n        /* \"contracts/Shops.sol\":2317:2341  uint(UserRoles.provider) */\n      0x05\n      dup2\n      gt\n      iszero\n      tag_235\n      jumpi\n      tag_236\n      tag_85\n      jump\t// in\n    tag_236:\n    tag_235:\n        /* \"contracts/Shops.sol\":2303:2341  uint status = uint(UserRoles.provider) */\n      swap1\n      pop\n        /* \"contracts/Shops.sol\":2351:2406  registerFromAdmin(\"\",providerLogin,status,providerAddr) */\n      tag_237\n      mload(0x40)\n      dup1\n      0x20\n      add\n      0x40\n      mstore\n      dup1\n      0x00\n      dup2\n      mstore\n      pop\n        /* \"contracts/Shops.sol\":2372:2385  providerLogin */\n      dup5\n        /* \"contracts/Shops.sol\":2386:2392  status */\n      dup4\n        /* \"contracts/Shops.sol\":2393:2405  providerAddr */\n      dup6\n        /* \"contracts/Shops.sol\":2351:2368  registerFromAdmin */\n      tag_127\n        /* \"contracts/Shops.sol\":2351:2406  registerFromAdmin(\"\",providerLogin,status,providerAddr) */\n      jump\t// in\n    tag_237:\n        /* \"contracts/Shops.sol\":2427:2439  providerAddr */\n      dup2\n        /* \"contracts/Shops.sol\":2416:2424  provider */\n      0x03\n      0x00\n        /* \"contracts/Shops.sol\":2416:2439  provider = providerAddr */\n      0x0100\n      exp\n      dup2\n      sload\n      dup2\n      0xffffffffffffffffffffffffffffffffffffffff\n      mul\n      not\n      and\n      swap1\n      dup4\n      0xffffffffffffffffffffffffffffffffffffffff\n      and\n      mul\n      or\n      swap1\n      sstore\n      pop\n        /* \"contracts/Shops.sol\":2293:2446  {... */\n      pop\n        /* \"contracts/Shops.sol\":2202:2446  function registerProvider(string memory providerLogin,address providerAddr) public isAdmin {... */\n      pop\n      pop\n      jump\t// out\n        /* \"contracts/Shops.sol\":3438:3641  function doShopDebt(address payable shopAddr) public isUserStatus(UserRoles.bank) {... */\n    tag_57:\n        /* \"contracts/Shops.sol\":3504:3518  UserRoles.bank */\n      0x05\n        /* \"contracts/AuthService.sol\":1605:1610  users */\n      0x02\n        /* \"contracts/AuthService.sol\":1605:1622  users[msg.sender] */\n      0x00\n        /* \"contracts/AuthService.sol\":1611:1621  msg.sender */\n      caller\n        /* \"contracts/AuthService.sol\":1605:1622  users[msg.sender] */\n      0xffffffffffffffffffffffffffffffffffffffff\n      and\n      0xffffffffffffffffffffffffffffffffffffffff\n      and\n      dup2\n      mstore\n      0x20\n      add\n      swap1\n      dup2\n      mstore\n      0x20\n      add\n      0x00\n      keccak256\n        /* \"contracts/AuthService.sol\":1605:1629  users[msg.sender].status */\n      0x00\n      add\n      sload\n        /* \"contracts/AuthService.sol\":1594:1600  status */\n      dup2\n        /* \"contracts/AuthService.sol\":1589:1601  uint(status) */\n      0x05\n      dup2\n      gt\n      iszero\n      tag_239\n      jumpi\n      tag_240\n      tag_85\n      jump\t// in\n    tag_240:\n    tag_239:\n        /* \"contracts/AuthService.sol\":1589:1629  uint(status) == users[msg.sender].status */\n      eq\n        /* \"contracts/AuthService.sol\":1581:1642  require(uint(status) == users[msg.sender].status,\"Forbidden\") */\n      tag_241\n      jumpi\n      mload(0x40)\n      0x08c379a000000000000000000000000000000000000000000000000000000000\n      dup2\n      mstore\n      0x04\n      add\n      tag_242\n      swap1\n      tag_88\n      jump\t// in\n    tag_242:\n      mload(0x40)\n      dup1\n      swap2\n      sub\n      swap1\n      revert\n    tag_241:\n        /* \"contracts/Shops.sol\":3569:3579  1000 ether */\n      0x3635c9adc5dea00000\n        /* \"contracts/Shops.sol\":3546:3556  msg.sender */\n      caller\n        /* \"contracts/Shops.sol\":3538:3565  payable(msg.sender).balance */\n      0xffffffffffffffffffffffffffffffffffffffff\n      and\n      balance\n        /* \"contracts/Shops.sol\":3538:3579  payable(msg.sender).balance >= 1000 ether */\n      lt\n      iszero\n        /* \"contracts/Shops.sol\":3530:3594  require(payable(msg.sender).balance >= 1000 ether,\"Low balance\") */\n      tag_244\n      jumpi\n      mload(0x40)\n      0x08c379a000000000000000000000000000000000000000000000000000000000\n      dup2\n      mstore\n      0x04\n      add\n      tag_245\n      swap1\n      tag_246\n      jump\t// in\n    tag_245:\n      mload(0x40)\n      dup1\n      swap2\n      sub\n      swap1\n      revert\n    tag_244:\n        /* \"contracts/Shops.sol\":3604:3612  shopAddr */\n      dup2\n        /* \"contracts/Shops.sol\":3604:3621  shopAddr.transfer */\n      0xffffffffffffffffffffffffffffffffffffffff\n      and\n        /* \"contracts/Shops.sol\":3604:3633  shopAddr.transfer(1000 ether) */\n      0x08fc\n        /* \"contracts/Shops.sol\":3622:3632  1000 ether */\n      0x3635c9adc5dea00000\n        /* \"contracts/Shops.sol\":3604:3633  shopAddr.transfer(1000 ether) */\n      swap1\n      dup2\n      iszero\n      mul\n      swap1\n      mload(0x40)\n      0x00\n      mload(0x40)\n      dup1\n      dup4\n      sub\n      dup2\n      dup6\n      dup9\n      dup9\n      call\n      swap4\n      pop\n      pop\n      pop\n      pop\n      iszero\n      dup1\n      iszero\n      tag_248\n      jumpi\n      returndatasize\n      0x00\n      dup1\n      returndatacopy\n      revert(0x00, returndatasize)\n    tag_248:\n      pop\n        /* \"contracts/Shops.sol\":3438:3641  function doShopDebt(address payable shopAddr) public isUserStatus(UserRoles.bank) {... */\n      pop\n      pop\n      jump\t// out\n        /* \"contracts/Shops.sol\":2771:3077  function registerSeller(string memory fio,string memory userLogin,address userAddress,address shopAddr) public {... */\n    tag_61:\n        /* \"contracts/Shops.sol\":2892:2903  uint status */\n      0x00\n        /* \"contracts/Shops.sol\":2911:2927  UserRoles.seller */\n      0x01\n        /* \"contracts/Shops.sol\":2906:2928  uint(UserRoles.seller) */\n      0x05\n      dup2\n      gt\n      iszero\n      tag_250\n      jumpi\n      tag_251\n      tag_85\n      jump\t// in\n    tag_251:\n    tag_250:\n        /* \"contracts/Shops.sol\":2892:2928  uint status = uint(UserRoles.seller) */\n      swap1\n      pop\n        /* \"contracts/Shops.sol\":2938:2989  registerFromAdmin(fio,userLogin,status,userAddress) */\n      tag_252\n        /* \"contracts/Shops.sol\":2956:2959  fio */\n      dup6\n        /* \"contracts/Shops.sol\":2960:2969  userLogin */\n      dup6\n        /* \"contracts/Shops.sol\":2970:2976  status */\n      dup4\n        /* \"contracts/Shops.sol\":2977:2988  userAddress */\n      dup7\n        /* \"contracts/Shops.sol\":2938:2955  registerFromAdmin */\n      tag_127\n        /* \"contracts/Shops.sol\":2938:2989  registerFromAdmin(fio,userLogin,status,userAddress) */\n      jump\t// in\n    tag_252:\n        /* \"contracts/Shops.sol\":2999:3006  sellers */\n      0x07\n        /* \"contracts/Shops.sol\":3012:3023  userAddress */\n      dup4\n        /* \"contracts/Shops.sol\":2999:3024  sellers.push(userAddress) */\n      swap1\n      dup1\n      0x01\n      dup2\n      sload\n      add\n      dup1\n      dup3\n      sstore\n      dup1\n      swap2\n      pop\n      pop\n      0x01\n      swap1\n      sub\n      swap1\n      0x00\n      mstore\n      keccak256(0x00, 0x20)\n      add\n      0x00\n      swap1\n      swap2\n      swap1\n      swap2\n      swap1\n      swap2\n      0x0100\n      exp\n      dup2\n      sload\n      dup2\n      0xffffffffffffffffffffffffffffffffffffffff\n      mul\n      not\n      and\n      swap1\n      dup4\n      0xffffffffffffffffffffffffffffffffffffffff\n      and\n      mul\n      or\n      swap1\n      sstore\n      pop\n        /* \"contracts/Shops.sol\":3034:3042  salesmen */\n      0x0c\n        /* \"contracts/Shops.sol\":3034:3052  salesmen[shopAddr] */\n      0x00\n        /* \"contracts/Shops.sol\":3043:3051  shopAddr */\n      dup4\n        /* \"contracts/Shops.sol\":3034:3052  salesmen[shopAddr] */\n      0xffffffffffffffffffffffffffffffffffffffff\n      and\n      0xffffffffffffffffffffffffffffffffffffffff\n      and\n      dup2\n      mstore\n      0x20\n      add\n      swap1\n      dup2\n      mstore\n      0x20\n      add\n      0x00\n      keccak256\n        /* \"contracts/Shops.sol\":3058:3069  userAddress */\n      dup4\n        /* \"contracts/Shops.sol\":3034:3070  salesmen[shopAddr].push(userAddress) */\n      swap1\n      dup1\n      0x01\n      dup2\n      sload\n      add\n      dup1\n      dup3\n      sstore\n      dup1\n      swap2\n      pop\n      pop\n      0x01\n      swap1\n      sub\n      swap1\n      0x00\n      mstore\n      keccak256(0x00, 0x20)\n      add\n      0x00\n      swap1\n      swap2\n      swap1\n      swap2\n      swap1\n      swap2\n      0x0100\n      exp\n      dup2\n      sload\n      dup2\n      0xffffffffffffffffffffffffffffffffffffffff\n      mul\n      not\n      and\n      swap1\n      dup4\n      0xffffffffffffffffffffffffffffffffffffffff\n      and\n      mul\n      or\n      swap1\n      sstore\n      pop\n        /* \"contracts/Shops.sol\":2882:3077  {... */\n      pop\n        /* \"contracts/Shops.sol\":2771:3077  function registerSeller(string memory fio,string memory userLogin,address userAddress,address shopAddr) public {... */\n      pop\n      pop\n      pop\n      pop\n      jump\t// out\n        /* \"contracts/Shops.sol\":4407:4771  function getBuyerInfo() public view isUser returns(... */\n    tag_63:\n        /* \"contracts/Shops.sol\":4467:4490  string memory userLogin */\n      0x60\n        /* \"contracts/Shops.sol\":4500:4517  string memory fio */\n      dup1\n        /* \"contracts/Shops.sol\":4527:4539  uint balance */\n      0x00\n        /* \"contracts/Shops.sol\":4549:4572  string[] memory reviews */\n      0x60\n        /* \"contracts/AuthService.sol\":1453:1492  compare(users[msg.sender].userLogin,\"\") */\n      tag_256\n        /* \"contracts/AuthService.sol\":1461:1466  users */\n      0x02\n        /* \"contracts/AuthService.sol\":1461:1478  users[msg.sender] */\n      0x00\n        /* \"contracts/AuthService.sol\":1467:1477  msg.sender */\n      caller\n        /* \"contracts/AuthService.sol\":1461:1478  users[msg.sender] */\n      0xffffffffffffffffffffffffffffffffffffffff\n      and\n      0xffffffffffffffffffffffffffffffffffffffff\n      and\n      dup2\n      mstore\n      0x20\n      add\n      swap1\n      dup2\n      mstore\n      0x20\n      add\n      0x00\n      keccak256\n        /* \"contracts/AuthService.sol\":1461:1488  users[msg.sender].userLogin */\n      0x01\n      add\n        /* \"contracts/AuthService.sol\":1453:1492  compare(users[msg.sender].userLogin,\"\") */\n      dup1\n      sload\n      tag_257\n      swap1\n      tag_91\n      jump\t// in\n    tag_257:\n      dup1\n      0x1f\n      add\n      0x20\n      dup1\n      swap2\n      div\n      mul\n      0x20\n      add\n      mload(0x40)\n      swap1\n      dup2\n      add\n      0x40\n      mstore\n      dup1\n      swap3\n      swap2\n      swap1\n      dup2\n      dup2\n      mstore\n      0x20\n      add\n      dup3\n      dup1\n      sload\n      tag_258\n      swap1\n      tag_91\n      jump\t// in\n    tag_258:\n      dup1\n      iszero\n      tag_259\n      jumpi\n      dup1\n      0x1f\n      lt\n      tag_260\n      jumpi\n      0x0100\n      dup1\n      dup4\n      sload\n      div\n      mul\n      dup4\n      mstore\n      swap2\n      0x20\n      add\n      swap2\n      jump(tag_259)\n    tag_260:\n      dup3\n      add\n      swap2\n      swap1\n      0x00\n      mstore\n      keccak256(0x00, 0x20)\n      swap1\n    tag_261:\n      dup2\n      sload\n      dup2\n      mstore\n      swap1\n      0x01\n      add\n      swap1\n      0x20\n      add\n      dup1\n      dup4\n      gt\n      tag_261\n      jumpi\n      dup3\n      swap1\n      sub\n      0x1f\n      and\n      dup3\n      add\n      swap2\n    tag_259:\n      pop\n      pop\n      pop\n      pop\n      pop\n      mload(0x40)\n      dup1\n      0x20\n      add\n      0x40\n      mstore\n      dup1\n      0x00\n      dup2\n      mstore\n      pop\n        /* \"contracts/AuthService.sol\":1453:1460  compare */\n      tag_135\n        /* \"contracts/AuthService.sol\":1453:1492  compare(users[msg.sender].userLogin,\"\") */\n      jump\t// in\n    tag_256:\n        /* \"contracts/AuthService.sol\":1452:1492  !compare(users[msg.sender].userLogin,\"\") */\n      iszero\n        /* \"contracts/AuthService.sol\":1444:1508  require(!compare(users[msg.sender].userLogin,\"\"),\"You not user\") */\n      tag_262\n      jumpi\n      mload(0x40)\n      0x08c379a000000000000000000000000000000000000000000000000000000000\n      dup2\n      mstore\n      0x04\n      add\n      tag_263\n      swap1\n      tag_138\n      jump\t// in\n    tag_263:\n      mload(0x40)\n      dup1\n      swap2\n      sub\n      swap1\n      revert\n    tag_262:\n        /* \"contracts/Shops.sol\":4588:4604  User memory user */\n      0x00\n        /* \"contracts/Shops.sol\":4607:4612  users */\n      0x02\n        /* \"contracts/Shops.sol\":4607:4624  users[msg.sender] */\n      0x00\n        /* \"contracts/Shops.sol\":4613:4623  msg.sender */\n      caller\n        /* \"contracts/Shops.sol\":4607:4624  users[msg.sender] */\n      0xffffffffffffffffffffffffffffffffffffffff\n      and\n      0xffffffffffffffffffffffffffffffffffffffff\n      and\n      dup2\n      mstore\n      0x20\n      add\n      swap1\n      dup2\n      mstore\n      0x20\n      add\n      0x00\n      keccak256\n        /* \"contracts/Shops.sol\":4588:4624  User memory user = users[msg.sender] */\n      mload(0x40)\n      dup1\n      0x80\n      add\n      0x40\n      mstore\n      swap1\n      dup2\n      0x00\n      dup3\n      add\n      sload\n      dup2\n      mstore\n      0x20\n      add\n      0x01\n      dup3\n      add\n      dup1\n      sload\n      tag_265\n      swap1\n      tag_91\n      jump\t// in\n    tag_265:\n      dup1\n      0x1f\n      add\n      0x20\n      dup1\n      swap2\n      div\n      mul\n      0x20\n      add\n      mload(0x40)\n      swap1\n      dup2\n      add\n      0x40\n      mstore\n      dup1\n      swap3\n      swap2\n      swap1\n      dup2\n      dup2\n      mstore\n      0x20\n      add\n      dup3\n      dup1\n      sload\n      tag_266\n      swap1\n      tag_91\n      jump\t// in\n    tag_266:\n      dup1\n      iszero\n      tag_267\n      jumpi\n      dup1\n      0x1f\n      lt\n      tag_268\n      jumpi\n      0x0100\n      dup1\n      dup4\n      sload\n      div\n      mul\n      dup4\n      mstore\n      swap2\n      0x20\n      add\n      swap2\n      jump(tag_267)\n    tag_268:\n      dup3\n      add\n      swap2\n      swap1\n      0x00\n      mstore\n      keccak256(0x00, 0x20)\n      swap1\n    tag_269:\n      dup2\n      sload\n      dup2\n      mstore\n      swap1\n      0x01\n      add\n      swap1\n      0x20\n      add\n      dup1\n      dup4\n      gt\n      tag_269\n      jumpi\n      dup3\n      swap1\n      sub\n      0x1f\n      and\n      dup3\n      add\n      swap2\n    tag_267:\n      pop\n      pop\n      pop\n      pop\n      pop\n      dup2\n      mstore\n      0x20\n      add\n      0x02\n      dup3\n      add\n      dup1\n      sload\n      tag_270\n      swap1\n      tag_91\n      jump\t// in\n    tag_270:\n      dup1\n      0x1f\n      add\n      0x20\n      dup1\n      swap2\n      div\n      mul\n      0x20\n      add\n      mload(0x40)\n      swap1\n      dup2\n      add\n      0x40\n      mstore\n      dup1\n      swap3\n      swap2\n      swap1\n      dup2\n      dup2\n      mstore\n      0x20\n      add\n      dup3\n      dup1\n      sload\n      tag_271\n      swap1\n      tag_91\n      jump\t// in\n    tag_271:\n      dup1\n      iszero\n      tag_272\n      jumpi\n      dup1\n      0x1f\n      lt\n      tag_273\n      jumpi\n      0x0100\n      dup1\n      dup4\n      sload\n      div\n      mul\n      dup4\n      mstore\n      swap2\n      0x20\n      add\n      swap2\n      jump(tag_272)\n    tag_273:\n      dup3\n      add\n      swap2\n      swap1\n      0x00\n      mstore\n      keccak256(0x00, 0x20)\n      swap1\n    tag_274:\n      dup2\n      sload\n      dup2\n      mstore\n      swap1\n      0x01\n      add\n      swap1\n      0x20\n      add\n      dup1\n      dup4\n      gt\n      tag_274\n      jumpi\n      dup3\n      swap1\n      sub\n      0x1f\n      and\n      dup3\n      add\n      swap2\n    tag_272:\n      pop\n      pop\n      pop\n      pop\n      pop\n      dup2\n      mstore\n      0x20\n      add\n      0x03\n      dup3\n      add\n      dup1\n      sload\n      dup1\n      0x20\n      mul\n      0x20\n      add\n      mload(0x40)\n      swap1\n      dup2\n      add\n      0x40\n      mstore\n      dup1\n      swap3\n      swap2\n      swap1\n      dup2\n      dup2\n      mstore\n      0x20\n      add\n      0x00\n      swap1\n    tag_275:\n      dup3\n      dup3\n      lt\n      iszero\n      tag_276\n      jumpi\n      dup4\n      dup3\n      swap1\n      0x00\n      mstore\n      keccak256(0x00, 0x20)\n      add\n      dup1\n      sload\n      tag_278\n      swap1\n      tag_91\n      jump\t// in\n    tag_278:\n      dup1\n      0x1f\n      add\n      0x20\n      dup1\n      swap2\n      div\n      mul\n      0x20\n      add\n      mload(0x40)\n      swap1\n      dup2\n      add\n      0x40\n      mstore\n      dup1\n      swap3\n      swap2\n      swap1\n      dup2\n      dup2\n      mstore\n      0x20\n      add\n      dup3\n      dup1\n      sload\n      tag_279\n      swap1\n      tag_91\n      jump\t// in\n    tag_279:\n      dup1\n      iszero\n      tag_280\n      jumpi\n      dup1\n      0x1f\n      lt\n      tag_281\n      jumpi\n      0x0100\n      dup1\n      dup4\n      sload\n      div\n      mul\n      dup4\n      mstore\n      swap2\n      0x20\n      add\n      swap2\n      jump(tag_280)\n    tag_281:\n      dup3\n      add\n      swap2\n      swap1\n      0x00\n      mstore\n      keccak256(0x00, 0x20)\n      swap1\n    tag_282:\n      dup2\n      sload\n      dup2\n      mstore\n      swap1\n      0x01\n      add\n      swap1\n      0x20\n      add\n      dup1\n      dup4\n      gt\n      tag_282\n      jumpi\n      dup3\n      swap1\n      sub\n      0x1f\n      and\n      dup3\n      add\n      swap2\n    tag_280:\n      pop\n      pop\n      pop\n      pop\n      pop\n      dup2\n      mstore\n      0x20\n      add\n      swap1\n      0x01\n      add\n      swap1\n      jump(tag_275)\n    tag_276:\n      pop\n      pop\n      pop\n      pop\n      dup2\n      mstore\n      pop\n      pop\n      swap1\n      pop\n        /* \"contracts/Shops.sol\":4647:4651  user */\n      dup1\n        /* \"contracts/Shops.sol\":4647:4661  user.userLogin */\n      0x20\n      add\n      mload\n        /* \"contracts/Shops.sol\":4635:4661  userLogin = user.userLogin */\n      swap5\n      pop\n        /* \"contracts/Shops.sol\":4677:4681  user */\n      dup1\n        /* \"contracts/Shops.sol\":4677:4685  user.fio */\n      0x40\n      add\n      mload\n        /* \"contracts/Shops.sol\":4671:4685  fio = user.fio */\n      swap4\n      pop\n        /* \"contracts/Shops.sol\":4713:4723  msg.sender */\n      caller\n        /* \"contracts/Shops.sol\":4705:4732  payable(msg.sender).balance */\n      0xffffffffffffffffffffffffffffffffffffffff\n      and\n      balance\n        /* \"contracts/Shops.sol\":4695:4732  balance = payable(msg.sender).balance */\n      swap3\n      pop\n        /* \"contracts/Shops.sol\":4752:4756  user */\n      dup1\n        /* \"contracts/Shops.sol\":4752:4764  user.reviews */\n      0x60\n      add\n      mload\n        /* \"contracts/Shops.sol\":4742:4764  reviews = user.reviews */\n      swap2\n      pop\n        /* \"contracts/Shops.sol\":4578:4771  {... */\n      pop\n        /* \"contracts/Shops.sol\":4407:4771  function getBuyerInfo() public view isUser returns(... */\n      swap1\n      swap2\n      swap3\n      swap4\n      jump\t// out\n        /* \"contracts/Shops.sol\":3144:3343  function registerBuyer(string memory fio,string memory userLogin,address userAddr) public{... */\n    tag_69:\n        /* \"contracts/Shops.sol\":3243:3254  uint status */\n      0x00\n        /* \"contracts/Shops.sol\":3262:3277  UserRoles.buyer */\n      dup1\n        /* \"contracts/Shops.sol\":3257:3278  uint(UserRoles.buyer) */\n      0x05\n      dup2\n      gt\n      iszero\n      tag_284\n      jumpi\n      tag_285\n      tag_85\n      jump\t// in\n    tag_285:\n    tag_284:\n        /* \"contracts/Shops.sol\":3243:3278  uint status = uint(UserRoles.buyer) */\n      swap1\n      pop\n        /* \"contracts/Shops.sol\":3288:3336  registerFromAdmin(fio,userLogin,status,userAddr) */\n      tag_286\n        /* \"contracts/Shops.sol\":3306:3309  fio */\n      dup5\n        /* \"contracts/Shops.sol\":3310:3319  userLogin */\n      dup5\n        /* \"contracts/Shops.sol\":3320:3326  status */\n      dup4\n        /* \"contracts/Shops.sol\":3327:3335  userAddr */\n      dup6\n        /* \"contracts/Shops.sol\":3288:3305  registerFromAdmin */\n      tag_127\n        /* \"contracts/Shops.sol\":3288:3336  registerFromAdmin(fio,userLogin,status,userAddr) */\n      jump\t// in\n    tag_286:\n        /* \"contracts/Shops.sol\":3233:3343  {... */\n      pop\n        /* \"contracts/Shops.sol\":3144:3343  function registerBuyer(string memory fio,string memory userLogin,address userAddr) public{... */\n      pop\n      pop\n      pop\n      jump\t// out\n        /* \"contracts/Shops.sol\":1432:1690  function regAdmin(address adminAddr,string memory fio,string memory userLogin) public isUserStatus(UserRoles.admin){... */\n    tag_73:\n        /* \"contracts/Shops.sol\":1531:1546  UserRoles.admin */\n      0x03\n        /* \"contracts/AuthService.sol\":1605:1610  users */\n      0x02\n        /* \"contracts/AuthService.sol\":1605:1622  users[msg.sender] */\n      0x00\n        /* \"contracts/AuthService.sol\":1611:1621  msg.sender */\n      caller\n        /* \"contracts/AuthService.sol\":1605:1622  users[msg.sender] */\n      0xffffffffffffffffffffffffffffffffffffffff\n      and\n      0xffffffffffffffffffffffffffffffffffffffff\n      and\n      dup2\n      mstore\n      0x20\n      add\n      swap1\n      dup2\n      mstore\n      0x20\n      add\n      0x00\n      keccak256\n        /* \"contracts/AuthService.sol\":1605:1629  users[msg.sender].status */\n      0x00\n      add\n      sload\n        /* \"contracts/AuthService.sol\":1594:1600  status */\n      dup2\n        /* \"contracts/AuthService.sol\":1589:1601  uint(status) */\n      0x05\n      dup2\n      gt\n      iszero\n      tag_288\n      jumpi\n      tag_289\n      tag_85\n      jump\t// in\n    tag_289:\n    tag_288:\n        /* \"contracts/AuthService.sol\":1589:1629  uint(status) == users[msg.sender].status */\n      eq\n        /* \"contracts/AuthService.sol\":1581:1642  require(uint(status) == users[msg.sender].status,\"Forbidden\") */\n      tag_290\n      jumpi\n      mload(0x40)\n      0x08c379a000000000000000000000000000000000000000000000000000000000\n      dup2\n      mstore\n      0x04\n      add\n      tag_291\n      swap1\n      tag_88\n      jump\t// in\n    tag_291:\n      mload(0x40)\n      dup1\n      swap2\n      sub\n      swap1\n      revert\n    tag_290:\n        /* \"contracts/Shops.sol\":1557:1568  uint status */\n      0x00\n        /* \"contracts/Shops.sol\":1576:1591  UserRoles.admin */\n      0x03\n        /* \"contracts/Shops.sol\":1571:1592  uint(UserRoles.admin) */\n      0x05\n      dup2\n      gt\n      iszero\n      tag_293\n      jumpi\n      tag_294\n      tag_85\n      jump\t// in\n    tag_294:\n    tag_293:\n        /* \"contracts/Shops.sol\":1557:1592  uint status = uint(UserRoles.admin) */\n      swap1\n      pop\n        /* \"contracts/Shops.sol\":1602:1651  registerFromAdmin(fio,userLogin,status,adminAddr) */\n      tag_295\n        /* \"contracts/Shops.sol\":1620:1623  fio */\n      dup5\n        /* \"contracts/Shops.sol\":1624:1633  userLogin */\n      dup5\n        /* \"contracts/Shops.sol\":1634:1640  status */\n      dup4\n        /* \"contracts/Shops.sol\":1641:1650  adminAddr */\n      dup9\n        /* \"contracts/Shops.sol\":1602:1619  registerFromAdmin */\n      tag_127\n        /* \"contracts/Shops.sol\":1602:1651  registerFromAdmin(fio,userLogin,status,adminAddr) */\n      jump\t// in\n    tag_295:\n        /* \"contracts/Shops.sol\":1661:1667  admins */\n      0x05\n        /* \"contracts/Shops.sol\":1673:1682  userLogin */\n      dup4\n        /* \"contracts/Shops.sol\":1661:1683  admins.push(userLogin) */\n      swap1\n      dup1\n      0x01\n      dup2\n      sload\n      add\n      dup1\n      dup3\n      sstore\n      dup1\n      swap2\n      pop\n      pop\n      0x01\n      swap1\n      sub\n      swap1\n      0x00\n      mstore\n      keccak256(0x00, 0x20)\n      add\n      0x00\n      swap1\n      swap2\n      swap1\n      swap2\n      swap1\n      swap2\n      pop\n      swap1\n      dup1\n      mload\n      swap1\n      0x20\n      add\n      swap1\n      tag_297\n      swap3\n      swap2\n      swap1\n      tag_142\n      jump\t// in\n    tag_297:\n      pop\n        /* \"contracts/Shops.sol\":1547:1690  {... */\n      pop\n        /* \"contracts/Shops.sol\":1432:1690  function regAdmin(address adminAddr,string memory fio,string memory userLogin) public isUserStatus(UserRoles.admin){... */\n      pop\n      pop\n      pop\n      pop\n      jump\t// out\n        /* \"contracts/Shops.sol\":4841:5240  function getAdminInfo() public view isUserStatus(UserRoles.admin) returns(... */\n    tag_75:\n        /* \"contracts/Shops.sol\":4924:4943  string memory login */\n      0x60\n        /* \"contracts/Shops.sol\":4953:4982  Request[] memory userRequests */\n      dup1\n        /* \"contracts/Shops.sol\":4992:5017  string[] memory adminList */\n      0x60\n        /* \"contracts/Shops.sol\":5027:5055  address[] memory sellersAddr */\n      dup1\n        /* \"contracts/Shops.sol\":4890:4905  UserRoles.admin */\n      0x03\n        /* \"contracts/AuthService.sol\":1605:1610  users */\n      0x02\n        /* \"contracts/AuthService.sol\":1605:1622  users[msg.sender] */\n      0x00\n        /* \"contracts/AuthService.sol\":1611:1621  msg.sender */\n      caller\n        /* \"contracts/AuthService.sol\":1605:1622  users[msg.sender] */\n      0xffffffffffffffffffffffffffffffffffffffff\n      and\n      0xffffffffffffffffffffffffffffffffffffffff\n      and\n      dup2\n      mstore\n      0x20\n      add\n      swap1\n      dup2\n      mstore\n      0x20\n      add\n      0x00\n      keccak256\n        /* \"contracts/AuthService.sol\":1605:1629  users[msg.sender].status */\n      0x00\n      add\n      sload\n        /* \"contracts/AuthService.sol\":1594:1600  status */\n      dup2\n        /* \"contracts/AuthService.sol\":1589:1601  uint(status) */\n      0x05\n      dup2\n      gt\n      iszero\n      tag_299\n      jumpi\n      tag_300\n      tag_85\n      jump\t// in\n    tag_300:\n    tag_299:\n        /* \"contracts/AuthService.sol\":1589:1629  uint(status) == users[msg.sender].status */\n      eq\n        /* \"contracts/AuthService.sol\":1581:1642  require(uint(status) == users[msg.sender].status,\"Forbidden\") */\n      tag_301\n      jumpi\n      mload(0x40)\n      0x08c379a000000000000000000000000000000000000000000000000000000000\n      dup2\n      mstore\n      0x04\n      add\n      tag_302\n      swap1\n      tag_88\n      jump\t// in\n    tag_302:\n      mload(0x40)\n      dup1\n      swap2\n      sub\n      swap1\n      revert\n    tag_301:\n        /* \"contracts/Shops.sol\":5072:5088  User memory user */\n      0x00\n        /* \"contracts/Shops.sol\":5091:5096  users */\n      0x02\n        /* \"contracts/Shops.sol\":5091:5108  users[msg.sender] */\n      0x00\n        /* \"contracts/Shops.sol\":5097:5107  msg.sender */\n      caller\n        /* \"contracts/Shops.sol\":5091:5108  users[msg.sender] */\n      0xffffffffffffffffffffffffffffffffffffffff\n      and\n      0xffffffffffffffffffffffffffffffffffffffff\n      and\n      dup2\n      mstore\n      0x20\n      add\n      swap1\n      dup2\n      mstore\n      0x20\n      add\n      0x00\n      keccak256\n        /* \"contracts/Shops.sol\":5072:5108  User memory user = users[msg.sender] */\n      mload(0x40)\n      dup1\n      0x80\n      add\n      0x40\n      mstore\n      swap1\n      dup2\n      0x00\n      dup3\n      add\n      sload\n      dup2\n      mstore\n      0x20\n      add\n      0x01\n      dup3\n      add\n      dup1\n      sload\n      tag_304\n      swap1\n      tag_91\n      jump\t// in\n    tag_304:\n      dup1\n      0x1f\n      add\n      0x20\n      dup1\n      swap2\n      div\n      mul\n      0x20\n      add\n      mload(0x40)\n      swap1\n      dup2\n      add\n      0x40\n      mstore\n      dup1\n      swap3\n      swap2\n      swap1\n      dup2\n      dup2\n      mstore\n      0x20\n      add\n      dup3\n      dup1\n      sload\n      tag_305\n      swap1\n      tag_91\n      jump\t// in\n    tag_305:\n      dup1\n      iszero\n      tag_306\n      jumpi\n      dup1\n      0x1f\n      lt\n      tag_307\n      jumpi\n      0x0100\n      dup1\n      dup4\n      sload\n      div\n      mul\n      dup4\n      mstore\n      swap2\n      0x20\n      add\n      swap2\n      jump(tag_306)\n    tag_307:\n      dup3\n      add\n      swap2\n      swap1\n      0x00\n      mstore\n      keccak256(0x00, 0x20)\n      swap1\n    tag_308:\n      dup2\n      sload\n      dup2\n      mstore\n      swap1\n      0x01\n      add\n      swap1\n      0x20\n      add\n      dup1\n      dup4\n      gt\n      tag_308\n      jumpi\n      dup3\n      swap1\n      sub\n      0x1f\n      and\n      dup3\n      add\n      swap2\n    tag_306:\n      pop\n      pop\n      pop\n      pop\n      pop\n      dup2\n      mstore\n      0x20\n      add\n      0x02\n      dup3\n      add\n      dup1\n      sload\n      tag_309\n      swap1\n      tag_91\n      jump\t// in\n    tag_309:\n      dup1\n      0x1f\n      add\n      0x20\n      dup1\n      swap2\n      div\n      mul\n      0x20\n      add\n      mload(0x40)\n      swap1\n      dup2\n      add\n      0x40\n      mstore\n      dup1\n      swap3\n      swap2\n      swap1\n      dup2\n      dup2\n      mstore\n      0x20\n      add\n      dup3\n      dup1\n      sload\n      tag_310\n      swap1\n      tag_91\n      jump\t// in\n    tag_310:\n      dup1\n      iszero\n      tag_311\n      jumpi\n      dup1\n      0x1f\n      lt\n      tag_312\n      jumpi\n      0x0100\n      dup1\n      dup4\n      sload\n      div\n      mul\n      dup4\n      mstore\n      swap2\n      0x20\n      add\n      swap2\n      jump(tag_311)\n    tag_312:\n      dup3\n      add\n      swap2\n      swap1\n      0x00\n      mstore\n      keccak256(0x00, 0x20)\n      swap1\n    tag_313:\n      dup2\n      sload\n      dup2\n      mstore\n      swap1\n      0x01\n      add\n      swap1\n      0x20\n      add\n      dup1\n      dup4\n      gt\n      tag_313\n      jumpi\n      dup3\n      swap1\n      sub\n      0x1f\n      and\n      dup3\n      add\n      swap2\n    tag_311:\n      pop\n      pop\n      pop\n      pop\n      pop\n      dup2\n      mstore\n      0x20\n      add\n      0x03\n      dup3\n      add\n      dup1\n      sload\n      dup1\n      0x20\n      mul\n      0x20\n      add\n      mload(0x40)\n      swap1\n      dup2\n      add\n      0x40\n      mstore\n      dup1\n      swap3\n      swap2\n      swap1\n      dup2\n      dup2\n      mstore\n      0x20\n      add\n      0x00\n      swap1\n    tag_314:\n      dup3\n      dup3\n      lt\n      iszero\n      tag_315\n      jumpi\n      dup4\n      dup3\n      swap1\n      0x00\n      mstore\n      keccak256(0x00, 0x20)\n      add\n      dup1\n      sload\n      tag_317\n      swap1\n      tag_91\n      jump\t// in\n    tag_317:\n      dup1\n      0x1f\n      add\n      0x20\n      dup1\n      swap2\n      div\n      mul\n      0x20\n      add\n      mload(0x40)\n      swap1\n      dup2\n      add\n      0x40\n      mstore\n      dup1\n      swap3\n      swap2\n      swap1\n      dup2\n      dup2\n      mstore\n      0x20\n      add\n      dup3\n      dup1\n      sload\n      tag_318\n      swap1\n      tag_91\n      jump\t// in\n    tag_318:\n      dup1\n      iszero\n      tag_319\n      jumpi\n      dup1\n      0x1f\n      lt\n      tag_320\n      jumpi\n      0x0100\n      dup1\n      dup4\n      sload\n      div\n      mul\n      dup4\n      mstore\n      swap2\n      0x20\n      add\n      swap2\n      jump(tag_319)\n    tag_320:\n      dup3\n      add\n      swap2\n      swap1\n      0x00\n      mstore\n      keccak256(0x00, 0x20)\n      swap1\n    tag_321:\n      dup2\n      sload\n      dup2\n      mstore\n      swap1\n      0x01\n      add\n      swap1\n      0x20\n      add\n      dup1\n      dup4\n      gt\n      tag_321\n      jumpi\n      dup3\n      swap1\n      sub\n      0x1f\n      and\n      dup3\n      add\n      swap2\n    tag_319:\n      pop\n      pop\n      pop\n      pop\n      pop\n      dup2\n      mstore\n      0x20\n      add\n      swap1\n      0x01\n      add\n      swap1\n      jump(tag_314)\n    tag_315:\n      pop\n      pop\n      pop\n      pop\n      dup2\n      mstore\n      pop\n      pop\n      swap1\n      pop\n        /* \"contracts/Shops.sol\":5127:5131  user */\n      dup1\n        /* \"contracts/Shops.sol\":5127:5141  user.userLogin */\n      0x20\n      add\n      mload\n        /* \"contracts/Shops.sol\":5119:5141  login = user.userLogin */\n      swap6\n      pop\n        /* \"contracts/Shops.sol\":5166:5174  requests */\n      0x09\n        /* \"contracts/Shops.sol\":5151:5174  userRequests = requests */\n      dup1\n      sload\n      dup1\n      0x20\n      mul\n      0x20\n      add\n      mload(0x40)\n      swap1\n      dup2\n      add\n      0x40\n      mstore\n      dup1\n      swap3\n      swap2\n      swap1\n      dup2\n      dup2\n      mstore\n      0x20\n      add\n      0x00\n      swap1\n    tag_322:\n      dup3\n      dup3\n      lt\n      iszero\n      tag_323\n      jumpi\n      dup4\n      dup3\n      swap1\n      0x00\n      mstore\n      keccak256(0x00, 0x20)\n      swap1\n      0x04\n      mul\n      add\n      mload(0x40)\n      dup1\n      0x80\n      add\n      0x40\n      mstore\n      swap1\n      dup2\n      0x00\n      dup3\n      add\n      0x00\n      swap1\n      sload\n      swap1\n      0x0100\n      exp\n      swap1\n      div\n      0xffffffffffffffffffffffffffffffffffffffff\n      and\n      0xffffffffffffffffffffffffffffffffffffffff\n      and\n      0xffffffffffffffffffffffffffffffffffffffff\n      and\n      dup2\n      mstore\n      0x20\n      add\n      0x01\n      dup3\n      add\n      dup1\n      sload\n      tag_325\n      swap1\n      tag_91\n      jump\t// in\n    tag_325:\n      dup1\n      0x1f\n      add\n      0x20\n      dup1\n      swap2\n      div\n      mul\n      0x20\n      add\n      mload(0x40)\n      swap1\n      dup2\n      add\n      0x40\n      mstore\n      dup1\n      swap3\n      swap2\n      swap1\n      dup2\n      dup2\n      mstore\n      0x20\n      add\n      dup3\n      dup1\n      sload\n      tag_326\n      swap1\n      tag_91\n      jump\t// in\n    tag_326:\n      dup1\n      iszero\n      tag_327\n      jumpi\n      dup1\n      0x1f\n      lt\n      tag_328\n      jumpi\n      0x0100\n      dup1\n      dup4\n      sload\n      div\n      mul\n      dup4\n      mstore\n      swap2\n      0x20\n      add\n      swap2\n      jump(tag_327)\n    tag_328:\n      dup3\n      add\n      swap2\n      swap1\n      0x00\n      mstore\n      keccak256(0x00, 0x20)\n      swap1\n    tag_329:\n      dup2\n      sload\n      dup2\n      mstore\n      swap1\n      0x01\n      add\n      swap1\n      0x20\n      add\n      dup1\n      dup4\n      gt\n      tag_329\n      jumpi\n      dup3\n      swap1\n      sub\n      0x1f\n      and\n      dup3\n      add\n      swap2\n    tag_327:\n      pop\n      pop\n      pop\n      pop\n      pop\n      dup2\n      mstore\n      0x20\n      add\n      0x02\n      dup3\n      add\n      dup1\n      sload\n      tag_330\n      swap1\n      tag_91\n      jump\t// in\n    tag_330:\n      dup1\n      0x1f\n      add\n      0x20\n      dup1\n      swap2\n      div\n      mul\n      0x20\n      add\n      mload(0x40)\n      swap1\n      dup2\n      add\n      0x40\n      mstore\n      dup1\n      swap3\n      swap2\n      swap1\n      dup2\n      dup2\n      mstore\n      0x20\n      add\n      dup3\n      dup1\n      sload\n      tag_331\n      swap1\n      tag_91\n      jump\t// in\n    tag_331:\n      dup1\n      iszero\n      tag_332\n      jumpi\n      dup1\n      0x1f\n      lt\n      tag_333\n      jumpi\n      0x0100\n      dup1\n      dup4\n      sload\n      div\n      mul\n      dup4\n      mstore\n      swap2\n      0x20\n      add\n      swap2\n      jump(tag_332)\n    tag_333:\n      dup3\n      add\n      swap2\n      swap1\n      0x00\n      mstore\n      keccak256(0x00, 0x20)\n      swap1\n    tag_334:\n      dup2\n      sload\n      dup2\n      mstore\n      swap1\n      0x01\n      add\n      swap1\n      0x20\n      add\n      dup1\n      dup4\n      gt\n      tag_334\n      jumpi\n      dup3\n      swap1\n      sub\n      0x1f\n      and\n      dup3\n      add\n      swap2\n    tag_332:\n      pop\n      pop\n      pop\n      pop\n      pop\n      dup2\n      mstore\n      0x20\n      add\n      0x03\n      dup3\n      add\n      0x00\n      swap1\n      sload\n      swap1\n      0x0100\n      exp\n      swap1\n      div\n      0xff\n      and\n      iszero\n      iszero\n      iszero\n      iszero\n      dup2\n      mstore\n      pop\n      pop\n      dup2\n      mstore\n      0x20\n      add\n      swap1\n      0x01\n      add\n      swap1\n      jump(tag_322)\n    tag_323:\n      pop\n      pop\n      pop\n      pop\n      swap5\n      pop\n        /* \"contracts/Shops.sol\":5196:5202  admins */\n      0x05\n        /* \"contracts/Shops.sol\":5184:5202  adminList = admins */\n      dup1\n      sload\n      dup1\n      0x20\n      mul\n      0x20\n      add\n      mload(0x40)\n      swap1\n      dup2\n      add\n      0x40\n      mstore\n      dup1\n      swap3\n      swap2\n      swap1\n      dup2\n      dup2\n      mstore\n      0x20\n      add\n      0x00\n      swap1\n    tag_335:\n      dup3\n      dup3\n      lt\n      iszero\n      tag_336\n      jumpi\n      dup4\n      dup3\n      swap1\n      0x00\n      mstore\n      keccak256(0x00, 0x20)\n      add\n      dup1\n      sload\n      tag_338\n      swap1\n      tag_91\n      jump\t// in\n    tag_338:\n      dup1\n      0x1f\n      add\n      0x20\n      dup1\n      swap2\n      div\n      mul\n      0x20\n      add\n      mload(0x40)\n      swap1\n      dup2\n      add\n      0x40\n      mstore\n      dup1\n      swap3\n      swap2\n      swap1\n      dup2\n      dup2\n      mstore\n      0x20\n      add\n      dup3\n      dup1\n      sload\n      tag_339\n      swap1\n      tag_91\n      jump\t// in\n    tag_339:\n      dup1\n      iszero\n      tag_340\n      jumpi\n      dup1\n      0x1f\n      lt\n      tag_341\n      jumpi\n      0x0100\n      dup1\n      dup4\n      sload\n      div\n      mul\n      dup4\n      mstore\n      swap2\n      0x20\n      add\n      swap2\n      jump(tag_340)\n    tag_341:\n      dup3\n      add\n      swap2\n      swap1\n      0x00\n      mstore\n      keccak256(0x00, 0x20)\n      swap1\n    tag_342:\n      dup2\n      sload\n      dup2\n      mstore\n      swap1\n      0x01\n      add\n      swap1\n      0x20\n      add\n      dup1\n      dup4\n      gt\n      tag_342\n      jumpi\n      dup3\n      swap1\n      sub\n      0x1f\n      and\n      dup3\n      add\n      swap2\n    tag_340:\n      pop\n      pop\n      pop\n      pop\n      pop\n      dup2\n      mstore\n      0x20\n      add\n      swap1\n      0x01\n      add\n      swap1\n      jump(tag_335)\n    tag_336:\n      pop\n      pop\n      pop\n      pop\n      swap4\n      pop\n        /* \"contracts/Shops.sol\":5226:5233  sellers */\n      0x07\n        /* \"contracts/Shops.sol\":5212:5233  sellersAddr = sellers */\n      dup1\n      sload\n      dup1\n      0x20\n      mul\n      0x20\n      add\n      mload(0x40)\n      swap1\n      dup2\n      add\n      0x40\n      mstore\n      dup1\n      swap3\n      swap2\n      swap1\n      dup2\n      dup2\n      mstore\n      0x20\n      add\n      dup3\n      dup1\n      sload\n      dup1\n      iszero\n      tag_343\n      jumpi\n      0x20\n      mul\n      dup3\n      add\n      swap2\n      swap1\n      0x00\n      mstore\n      keccak256(0x00, 0x20)\n      swap1\n    tag_344:\n      dup2\n      0x00\n      swap1\n      sload\n      swap1\n      0x0100\n      exp\n      swap1\n      div\n      0xffffffffffffffffffffffffffffffffffffffff\n      and\n      0xffffffffffffffffffffffffffffffffffffffff\n      and\n      dup2\n      mstore\n      0x20\n      add\n      swap1\n      0x01\n      add\n      swap1\n      dup1\n      dup4\n      gt\n      tag_344\n      jumpi\n    tag_343:\n      pop\n      pop\n      pop\n      pop\n      pop\n      swap3\n      pop\n        /* \"contracts/Shops.sol\":5062:5240  {... */\n      pop\n        /* \"contracts/Shops.sol\":4841:5240  function getAdminInfo() public view isUserStatus(UserRoles.admin) returns(... */\n      pop\n      swap1\n      swap2\n      swap3\n      swap4\n      jump\t// out\n        /* \"contracts/Shops.sol\":1116:1341  function registerAdmin(string memory fio,string memory userLogin) isAdmin public {... */\n    tag_81:\n        /* \"contracts/Shops.sol\":958:963  admin */\n      0x04\n      0x00\n      swap1\n      sload\n      swap1\n      0x0100\n      exp\n      swap1\n      div\n      0xffffffffffffffffffffffffffffffffffffffff\n      and\n        /* \"contracts/Shops.sol\":944:963  msg.sender == admin */\n      0xffffffffffffffffffffffffffffffffffffffff\n      and\n        /* \"contracts/Shops.sol\":944:954  msg.sender */\n      caller\n        /* \"contracts/Shops.sol\":944:963  msg.sender == admin */\n      0xffffffffffffffffffffffffffffffffffffffff\n      and\n      eq\n        /* \"contracts/Shops.sol\":936:980  require(msg.sender == admin,\"You not admin\") */\n      tag_346\n      jumpi\n      mload(0x40)\n      0x08c379a000000000000000000000000000000000000000000000000000000000\n      dup2\n      mstore\n      0x04\n      add\n      tag_347\n      swap1\n      tag_122\n      jump\t// in\n    tag_347:\n      mload(0x40)\n      dup1\n      swap2\n      sub\n      swap1\n      revert\n    tag_346:\n        /* \"contracts/Shops.sol\":1207:1218  uint status */\n      0x00\n        /* \"contracts/Shops.sol\":1226:1241  UserRoles.admin */\n      0x03\n        /* \"contracts/Shops.sol\":1221:1242  uint(UserRoles.admin) */\n      0x05\n      dup2\n      gt\n      iszero\n      tag_349\n      jumpi\n      tag_350\n      tag_85\n      jump\t// in\n    tag_350:\n    tag_349:\n        /* \"contracts/Shops.sol\":1207:1242  uint status = uint(UserRoles.admin) */\n      swap1\n      pop\n        /* \"contracts/Shops.sol\":1252:1302  registerFromAdmin(fio,userLogin,status,msg.sender) */\n      tag_351\n        /* \"contracts/Shops.sol\":1270:1273  fio */\n      dup4\n        /* \"contracts/Shops.sol\":1274:1283  userLogin */\n      dup4\n        /* \"contracts/Shops.sol\":1284:1290  status */\n      dup4\n        /* \"contracts/Shops.sol\":1291:1301  msg.sender */\n      caller\n        /* \"contracts/Shops.sol\":1252:1269  registerFromAdmin */\n      tag_127\n        /* \"contracts/Shops.sol\":1252:1302  registerFromAdmin(fio,userLogin,status,msg.sender) */\n      jump\t// in\n    tag_351:\n        /* \"contracts/Shops.sol\":1312:1318  admins */\n      0x05\n        /* \"contracts/Shops.sol\":1324:1333  userLogin */\n      dup3\n        /* \"contracts/Shops.sol\":1312:1334  admins.push(userLogin) */\n      swap1\n      dup1\n      0x01\n      dup2\n      sload\n      add\n      dup1\n      dup3\n      sstore\n      dup1\n      swap2\n      pop\n      pop\n      0x01\n      swap1\n      sub\n      swap1\n      0x00\n      mstore\n      keccak256(0x00, 0x20)\n      add\n      0x00\n      swap1\n      swap2\n      swap1\n      swap2\n      swap1\n      swap2\n      pop\n      swap1\n      dup1\n      mload\n      swap1\n      0x20\n      add\n      swap1\n      tag_353\n      swap3\n      swap2\n      swap1\n      tag_142\n      jump\t// in\n    tag_353:\n      pop\n        /* \"contracts/Shops.sol\":1197:1341  {... */\n      pop\n        /* \"contracts/Shops.sol\":1116:1341  function registerAdmin(string memory fio,string memory userLogin) isAdmin public {... */\n      pop\n      pop\n      jump\t// out\n        /* \"contracts/AuthService.sol\":1863:2238  function registerFromAdmin(string memory fio,string memory userLogin,uint status,address userAddress) internal isNotRegistered(userAddress,userLogin){... */\n    tag_127:\n        /* \"contracts/AuthService.sol\":1990:2001  userAddress */\n      dup1\n        /* \"contracts/AuthService.sol\":2002:2011  userLogin */\n      dup4\n        /* \"contracts/AuthService.sol\":1027:1061  compare(users[userAddress].fio,\"\") */\n      tag_355\n        /* \"contracts/AuthService.sol\":1035:1040  users */\n      0x02\n        /* \"contracts/AuthService.sol\":1035:1053  users[userAddress] */\n      0x00\n        /* \"contracts/AuthService.sol\":1041:1052  userAddress */\n      dup5\n        /* \"contracts/AuthService.sol\":1035:1053  users[userAddress] */\n      0xffffffffffffffffffffffffffffffffffffffff\n      and\n      0xffffffffffffffffffffffffffffffffffffffff\n      and\n      dup2\n      mstore\n      0x20\n      add\n      swap1\n      dup2\n      mstore\n      0x20\n      add\n      0x00\n      keccak256\n        /* \"contracts/AuthService.sol\":1035:1057  users[userAddress].fio */\n      0x02\n      add\n        /* \"contracts/AuthService.sol\":1027:1061  compare(users[userAddress].fio,\"\") */\n      dup1\n      sload\n      tag_356\n      swap1\n      tag_91\n      jump\t// in\n    tag_356:\n      dup1\n      0x1f\n      add\n      0x20\n      dup1\n      swap2\n      div\n      mul\n      0x20\n      add\n      mload(0x40)\n      swap1\n      dup2\n      add\n      0x40\n      mstore\n      dup1\n      swap3\n      swap2\n      swap1\n      dup2\n      dup2\n      mstore\n      0x20\n      add\n      dup3\n      dup1\n      sload\n      tag_357\n      swap1\n      tag_91\n      jump\t// in\n    tag_357:\n      dup1\n      iszero\n      tag_358\n      jumpi\n      dup1\n      0x1f\n      lt\n      tag_359\n      jumpi\n      0x0100\n      dup1\n      dup4\n      sload\n      div\n      mul\n      dup4\n      mstore\n      swap2\n      0x20\n      add\n      swap2\n      jump(tag_358)\n    tag_359:\n      dup3\n      add\n      swap2\n      swap1\n      0x00\n      mstore\n      keccak256(0x00, 0x20)\n      swap1\n    tag_360:\n      dup2\n      sload\n      dup2\n      mstore\n      swap1\n      0x01\n      add\n      swap1\n      0x20\n      add\n      dup1\n      dup4\n      gt\n      tag_360\n      jumpi\n      dup3\n      swap1\n      sub\n      0x1f\n      and\n      dup3\n      add\n      swap2\n    tag_358:\n      pop\n      pop\n      pop\n      pop\n      pop\n      mload(0x40)\n      dup1\n      0x20\n      add\n      0x40\n      mstore\n      dup1\n      0x00\n      dup2\n      mstore\n      pop\n        /* \"contracts/AuthService.sol\":1027:1034  compare */\n      tag_135\n        /* \"contracts/AuthService.sol\":1027:1061  compare(users[userAddress].fio,\"\") */\n      jump\t// in\n    tag_355:\n        /* \"contracts/AuthService.sol\":1026:1061  !compare(users[userAddress].fio,\"\") */\n      iszero\n        /* \"contracts/AuthService.sol\":1018:1087  require(!compare(users[userAddress].fio,\"\"),\"You already registered\") */\n      tag_361\n      jumpi\n      mload(0x40)\n      0x08c379a000000000000000000000000000000000000000000000000000000000\n      dup2\n      mstore\n      0x04\n      add\n      tag_362\n      swap1\n      tag_363\n      jump\t// in\n    tag_362:\n      mload(0x40)\n      dup1\n      swap2\n      sub\n      swap1\n      revert\n    tag_361:\n        /* \"contracts/AuthService.sol\":1138:1139  0 */\n      0x00\n        /* \"contracts/AuthService.sol\":1105:1140  userLogins[userLogin] == address(0) */\n      0xffffffffffffffffffffffffffffffffffffffff\n      and\n        /* \"contracts/AuthService.sol\":1105:1115  userLogins */\n      0x01\n        /* \"contracts/AuthService.sol\":1116:1125  userLogin */\n      dup3\n        /* \"contracts/AuthService.sol\":1105:1126  userLogins[userLogin] */\n      mload(0x40)\n      tag_364\n      swap2\n      swap1\n      tag_144\n      jump\t// in\n    tag_364:\n      swap1\n      dup2\n      mstore\n      0x20\n      add\n      mload(0x40)\n      dup1\n      swap2\n      sub\n      swap1\n      keccak256\n      0x00\n      swap1\n      sload\n      swap1\n      0x0100\n      exp\n      swap1\n      div\n      0xffffffffffffffffffffffffffffffffffffffff\n      and\n        /* \"contracts/AuthService.sol\":1105:1140  userLogins[userLogin] == address(0) */\n      0xffffffffffffffffffffffffffffffffffffffff\n      and\n      eq\n        /* \"contracts/AuthService.sol\":1097:1178  require(userLogins[userLogin] == address(0),\"Your login already exist in system\") */\n      tag_365\n      jumpi\n      mload(0x40)\n      0x08c379a000000000000000000000000000000000000000000000000000000000\n      dup2\n      mstore\n      0x04\n      add\n      tag_366\n      swap1\n      tag_367\n      jump\t// in\n    tag_366:\n      mload(0x40)\n      dup1\n      swap2\n      sub\n      swap1\n      revert\n    tag_365:\n        /* \"contracts/AuthService.sol\":2022:2048  string[] memory reviewList */\n      0x60\n        /* \"contracts/AuthService.sol\":2058:2077  User memory newUser */\n      0x00\n        /* \"contracts/AuthService.sol\":2080:2148  User({fio:fio,userLogin:userLogin,status:status,reviews:reviewList}) */\n      mload(0x40)\n      dup1\n      0x80\n      add\n      0x40\n      mstore\n      dup1\n        /* \"contracts/AuthService.sol\":2121:2127  status */\n      dup8\n        /* \"contracts/AuthService.sol\":2080:2148  User({fio:fio,userLogin:userLogin,status:status,reviews:reviewList}) */\n      dup2\n      mstore\n      0x20\n      add\n        /* \"contracts/AuthService.sol\":2104:2113  userLogin */\n      dup9\n        /* \"contracts/AuthService.sol\":2080:2148  User({fio:fio,userLogin:userLogin,status:status,reviews:reviewList}) */\n      dup2\n      mstore\n      0x20\n      add\n        /* \"contracts/AuthService.sol\":2090:2093  fio */\n      dup10\n        /* \"contracts/AuthService.sol\":2080:2148  User({fio:fio,userLogin:userLogin,status:status,reviews:reviewList}) */\n      dup2\n      mstore\n      0x20\n      add\n        /* \"contracts/AuthService.sol\":2136:2146  reviewList */\n      dup4\n        /* \"contracts/AuthService.sol\":2080:2148  User({fio:fio,userLogin:userLogin,status:status,reviews:reviewList}) */\n      dup2\n      mstore\n      pop\n        /* \"contracts/AuthService.sol\":2058:2148  User memory newUser = User({fio:fio,userLogin:userLogin,status:status,reviews:reviewList}) */\n      swap1\n      pop\n        /* \"contracts/AuthService.sol\":2182:2193  userAddress */\n      dup5\n        /* \"contracts/AuthService.sol\":2158:2168  userLogins */\n      0x01\n        /* \"contracts/AuthService.sol\":2169:2178  userLogin */\n      dup9\n        /* \"contracts/AuthService.sol\":2158:2179  userLogins[userLogin] */\n      mload(0x40)\n      tag_369\n      swap2\n      swap1\n      tag_144\n      jump\t// in\n    tag_369:\n      swap1\n      dup2\n      mstore\n      0x20\n      add\n      mload(0x40)\n      dup1\n      swap2\n      sub\n      swap1\n      keccak256\n      0x00\n        /* \"contracts/AuthService.sol\":2158:2193  userLogins[userLogin] = userAddress */\n      0x0100\n      exp\n      dup2\n      sload\n      dup2\n      0xffffffffffffffffffffffffffffffffffffffff\n      mul\n      not\n      and\n      swap1\n      dup4\n      0xffffffffffffffffffffffffffffffffffffffff\n      and\n      mul\n      or\n      swap1\n      sstore\n      pop\n        /* \"contracts/AuthService.sol\":2224:2231  newUser */\n      dup1\n        /* \"contracts/AuthService.sol\":2203:2208  users */\n      0x02\n        /* \"contracts/AuthService.sol\":2203:2221  users[userAddress] */\n      0x00\n        /* \"contracts/AuthService.sol\":2209:2220  userAddress */\n      dup8\n        /* \"contracts/AuthService.sol\":2203:2221  users[userAddress] */\n      0xffffffffffffffffffffffffffffffffffffffff\n      and\n      0xffffffffffffffffffffffffffffffffffffffff\n      and\n      dup2\n      mstore\n      0x20\n      add\n      swap1\n      dup2\n      mstore\n      0x20\n      add\n      0x00\n      keccak256\n        /* \"contracts/AuthService.sol\":2203:2231  users[userAddress] = newUser */\n      0x00\n      dup3\n      add\n      mload\n      dup2\n      0x00\n      add\n      sstore\n      0x20\n      dup3\n      add\n      mload\n      dup2\n      0x01\n      add\n      swap1\n      dup1\n      mload\n      swap1\n      0x20\n      add\n      swap1\n      tag_370\n      swap3\n      swap2\n      swap1\n      tag_142\n      jump\t// in\n    tag_370:\n      pop\n      0x40\n      dup3\n      add\n      mload\n      dup2\n      0x02\n      add\n      swap1\n      dup1\n      mload\n      swap1\n      0x20\n      add\n      swap1\n      tag_371\n      swap3\n      swap2\n      swap1\n      tag_142\n      jump\t// in\n    tag_371:\n      pop\n      0x60\n      dup3\n      add\n      mload\n      dup2\n      0x03\n      add\n      swap1\n      dup1\n      mload\n      swap1\n      0x20\n      add\n      swap1\n      tag_372\n      swap3\n      swap2\n      swap1\n      tag_373\n      jump\t// in\n    tag_372:\n      pop\n      swap1\n      pop\n      pop\n        /* \"contracts/AuthService.sol\":2012:2238  {... */\n      pop\n      pop\n        /* \"contracts/AuthService.sol\":1863:2238  function registerFromAdmin(string memory fio,string memory userLogin,uint status,address userAddress) internal isNotRegistered(userAddress,userLogin){... */\n      pop\n      pop\n      pop\n      pop\n      pop\n      pop\n      jump\t// out\n        /* \"contracts/AuthService.sol\":767:933  function compare(string memory a,string memory b) internal pure returns (bool){... */\n    tag_135:\n        /* \"contracts/AuthService.sol\":840:844  bool */\n      0x00\n        /* \"contracts/AuthService.sol\":923:924  b */\n      dup2\n        /* \"contracts/AuthService.sol\":906:925  abi.encodePacked(b) */\n      add(0x20, mload(0x40))\n      tag_375\n      swap2\n      swap1\n      tag_144\n      jump\t// in\n    tag_375:\n      mload(0x40)\n      0x20\n      dup2\n      dup4\n      sub\n      sub\n      dup2\n      mstore\n      swap1\n      0x40\n      mstore\n        /* \"contracts/AuthService.sol\":896:926  keccak256(abi.encodePacked(b)) */\n      dup1\n      mload\n      swap1\n      0x20\n      add\n      keccak256\n        /* \"contracts/AuthService.sol\":889:890  a */\n      dup4\n        /* \"contracts/AuthService.sol\":872:891  abi.encodePacked(a) */\n      add(0x20, mload(0x40))\n      tag_376\n      swap2\n      swap1\n      tag_144\n      jump\t// in\n    tag_376:\n      mload(0x40)\n      0x20\n      dup2\n      dup4\n      sub\n      sub\n      dup2\n      mstore\n      swap1\n      0x40\n      mstore\n        /* \"contracts/AuthService.sol\":862:892  keccak256(abi.encodePacked(a)) */\n      dup1\n      mload\n      swap1\n      0x20\n      add\n      keccak256\n        /* \"contracts/AuthService.sol\":862:926  keccak256(abi.encodePacked(a)) == keccak256(abi.encodePacked(b)) */\n      eq\n        /* \"contracts/AuthService.sol\":855:926  return keccak256(abi.encodePacked(a)) == keccak256(abi.encodePacked(b)) */\n      swap1\n      pop\n        /* \"contracts/AuthService.sol\":767:933  function compare(string memory a,string memory b) internal pure returns (bool){... */\n      swap3\n      swap2\n      pop\n      pop\n      jump\t// out\n    tag_142:\n      dup3\n      dup1\n      sload\n      tag_377\n      swap1\n      tag_91\n      jump\t// in\n    tag_377:\n      swap1\n      0x00\n      mstore\n      keccak256(0x00, 0x20)\n      swap1\n      0x1f\n      add\n      0x20\n      swap1\n      div\n      dup2\n      add\n      swap3\n      dup3\n      tag_379\n      jumpi\n      0x00\n      dup6\n      sstore\n      jump(tag_378)\n    tag_379:\n      dup3\n      0x1f\n      lt\n      tag_380\n      jumpi\n      dup1\n      mload\n      not(0xff)\n      and\n      dup4\n      dup1\n      add\n      or\n      dup6\n      sstore\n      jump(tag_378)\n    tag_380:\n      dup3\n      dup1\n      add\n      0x01\n      add\n      dup6\n      sstore\n      dup3\n      iszero\n      tag_378\n      jumpi\n      swap2\n      dup3\n      add\n    tag_381:\n      dup3\n      dup2\n      gt\n      iszero\n      tag_382\n      jumpi\n      dup3\n      mload\n      dup3\n      sstore\n      swap2\n      0x20\n      add\n      swap2\n      swap1\n      0x01\n      add\n      swap1\n      jump(tag_381)\n    tag_382:\n    tag_378:\n      pop\n      swap1\n      pop\n      tag_383\n      swap2\n      swap1\n      tag_384\n      jump\t// in\n    tag_383:\n      pop\n      swap1\n      jump\t// out\n    tag_373:\n      dup3\n      dup1\n      sload\n      dup3\n      dup3\n      sstore\n      swap1\n      0x00\n      mstore\n      keccak256(0x00, 0x20)\n      swap1\n      dup2\n      add\n      swap3\n      dup3\n      iszero\n      tag_385\n      jumpi\n      swap2\n      0x20\n      mul\n      dup3\n      add\n    tag_386:\n      dup3\n      dup2\n      gt\n      iszero\n      tag_387\n      jumpi\n      dup3\n      mload\n      dup3\n      swap1\n      dup1\n      mload\n      swap1\n      0x20\n      add\n      swap1\n      tag_388\n      swap3\n      swap2\n      swap1\n      tag_142\n      jump\t// in\n    tag_388:\n      pop\n      swap2\n      0x20\n      add\n      swap2\n      swap1\n      0x01\n      add\n      swap1\n      jump(tag_386)\n    tag_387:\n    tag_385:\n      pop\n      swap1\n      pop\n      tag_389\n      swap2\n      swap1\n      tag_390\n      jump\t// in\n    tag_389:\n      pop\n      swap1\n      jump\t// out\n    tag_384:\n    tag_391:\n      dup1\n      dup3\n      gt\n      iszero\n      tag_392\n      jumpi\n      0x00\n      dup2\n      0x00\n      swap1\n      sstore\n      pop\n      0x01\n      add\n      jump(tag_391)\n    tag_392:\n      pop\n      swap1\n      jump\t// out\n    tag_390:\n    tag_393:\n      dup1\n      dup3\n      gt\n      iszero\n      tag_394\n      jumpi\n      0x00\n      dup2\n      dup2\n      tag_395\n      swap2\n      swap1\n      tag_396\n      jump\t// in\n    tag_395:\n      pop\n      0x01\n      add\n      jump(tag_393)\n    tag_394:\n      pop\n      swap1\n      jump\t// out\n    tag_396:\n      pop\n      dup1\n      sload\n      tag_397\n      swap1\n      tag_91\n      jump\t// in\n    tag_397:\n      0x00\n      dup3\n      sstore\n      dup1\n      0x1f\n      lt\n      tag_399\n      jumpi\n      pop\n      jump(tag_398)\n    tag_399:\n      0x1f\n      add\n      0x20\n      swap1\n      div\n      swap1\n      0x00\n      mstore\n      keccak256(0x00, 0x20)\n      swap1\n      dup2\n      add\n      swap1\n      tag_400\n      swap2\n      swap1\n      tag_384\n      jump\t// in\n    tag_400:\n    tag_398:\n      pop\n      jump\t// out\n        /* \"#utility.yul\":7:419   */\n    tag_402:\n        /* \"#utility.yul\":85:90   */\n      0x00\n        /* \"#utility.yul\":110:176   */\n      tag_404\n        /* \"#utility.yul\":126:175   */\n      tag_405\n        /* \"#utility.yul\":168:174   */\n      dup5\n        /* \"#utility.yul\":126:175   */\n      tag_406\n      jump\t// in\n    tag_405:\n        /* \"#utility.yul\":110:176   */\n      tag_407\n      jump\t// in\n    tag_404:\n        /* \"#utility.yul\":101:176   */\n      swap1\n      pop\n        /* \"#utility.yul\":199:205   */\n      dup3\n        /* \"#utility.yul\":192:197   */\n      dup2\n        /* \"#utility.yul\":185:206   */\n      mstore\n        /* \"#utility.yul\":237:241   */\n      0x20\n        /* \"#utility.yul\":230:235   */\n      dup2\n        /* \"#utility.yul\":226:242   */\n      add\n        /* \"#utility.yul\":275:278   */\n      dup5\n        /* \"#utility.yul\":266:272   */\n      dup5\n        /* \"#utility.yul\":261:264   */\n      dup5\n        /* \"#utility.yul\":257:273   */\n      add\n        /* \"#utility.yul\":254:279   */\n      gt\n        /* \"#utility.yul\":251:363   */\n      iszero\n      tag_408\n      jumpi\n        /* \"#utility.yul\":282:361   */\n      tag_409\n      tag_410\n      jump\t// in\n    tag_409:\n        /* \"#utility.yul\":251:363   */\n    tag_408:\n        /* \"#utility.yul\":372:413   */\n      tag_411\n        /* \"#utility.yul\":406:412   */\n      dup5\n        /* \"#utility.yul\":401:404   */\n      dup3\n        /* \"#utility.yul\":396:399   */\n      dup6\n        /* \"#utility.yul\":372:413   */\n      tag_412\n      jump\t// in\n    tag_411:\n        /* \"#utility.yul\":91:419   */\n      pop\n        /* \"#utility.yul\":7:419   */\n      swap4\n      swap3\n      pop\n      pop\n      pop\n      jump\t// out\n        /* \"#utility.yul\":425:564   */\n    tag_413:\n        /* \"#utility.yul\":471:476   */\n      0x00\n        /* \"#utility.yul\":509:515   */\n      dup2\n        /* \"#utility.yul\":496:516   */\n      calldataload\n        /* \"#utility.yul\":487:516   */\n      swap1\n      pop\n        /* \"#utility.yul\":525:558   */\n      tag_415\n        /* \"#utility.yul\":552:557   */\n      dup2\n        /* \"#utility.yul\":525:558   */\n      tag_416\n      jump\t// in\n    tag_415:\n        /* \"#utility.yul\":425:564   */\n      swap3\n      swap2\n      pop\n      pop\n      jump\t// out\n        /* \"#utility.yul\":570:725   */\n    tag_417:\n        /* \"#utility.yul\":624:629   */\n      0x00\n        /* \"#utility.yul\":662:668   */\n      dup2\n        /* \"#utility.yul\":649:669   */\n      calldataload\n        /* \"#utility.yul\":640:669   */\n      swap1\n      pop\n        /* \"#utility.yul\":678:719   */\n      tag_419\n        /* \"#utility.yul\":713:718   */\n      dup2\n        /* \"#utility.yul\":678:719   */\n      tag_420\n      jump\t// in\n    tag_419:\n        /* \"#utility.yul\":570:725   */\n      swap3\n      swap2\n      pop\n      pop\n      jump\t// out\n        /* \"#utility.yul\":731:868   */\n    tag_421:\n        /* \"#utility.yul\":776:781   */\n      0x00\n        /* \"#utility.yul\":814:820   */\n      dup2\n        /* \"#utility.yul\":801:821   */\n      calldataload\n        /* \"#utility.yul\":792:821   */\n      swap1\n      pop\n        /* \"#utility.yul\":830:862   */\n      tag_423\n        /* \"#utility.yul\":856:861   */\n      dup2\n        /* \"#utility.yul\":830:862   */\n      tag_424\n      jump\t// in\n    tag_423:\n        /* \"#utility.yul\":731:868   */\n      swap3\n      swap2\n      pop\n      pop\n      jump\t// out\n        /* \"#utility.yul\":888:1228   */\n    tag_425:\n        /* \"#utility.yul\":944:949   */\n      0x00\n        /* \"#utility.yul\":993:996   */\n      dup3\n        /* \"#utility.yul\":986:990   */\n      0x1f\n        /* \"#utility.yul\":978:984   */\n      dup4\n        /* \"#utility.yul\":974:991   */\n      add\n        /* \"#utility.yul\":970:997   */\n      slt\n        /* \"#utility.yul\":960:1082   */\n      tag_427\n      jumpi\n        /* \"#utility.yul\":1001:1080   */\n      tag_428\n      tag_429\n      jump\t// in\n    tag_428:\n        /* \"#utility.yul\":960:1082   */\n    tag_427:\n        /* \"#utility.yul\":1118:1124   */\n      dup2\n        /* \"#utility.yul\":1105:1125   */\n      calldataload\n        /* \"#utility.yul\":1143:1222   */\n      tag_430\n        /* \"#utility.yul\":1218:1221   */\n      dup5\n        /* \"#utility.yul\":1210:1216   */\n      dup3\n        /* \"#utility.yul\":1203:1207   */\n      0x20\n        /* \"#utility.yul\":1195:1201   */\n      dup7\n        /* \"#utility.yul\":1191:1208   */\n      add\n        /* \"#utility.yul\":1143:1222   */\n      tag_402\n      jump\t// in\n    tag_430:\n        /* \"#utility.yul\":1134:1222   */\n      swap2\n      pop\n        /* \"#utility.yul\":950:1228   */\n      pop\n        /* \"#utility.yul\":888:1228   */\n      swap3\n      swap2\n      pop\n      pop\n      jump\t// out\n        /* \"#utility.yul\":1234:1563   */\n    tag_23:\n        /* \"#utility.yul\":1293:1299   */\n      0x00\n        /* \"#utility.yul\":1342:1344   */\n      0x20\n        /* \"#utility.yul\":1330:1339   */\n      dup3\n        /* \"#utility.yul\":1321:1328   */\n      dup5\n        /* \"#utility.yul\":1317:1340   */\n      sub\n        /* \"#utility.yul\":1313:1345   */\n      slt\n        /* \"#utility.yul\":1310:1429   */\n      iszero\n      tag_432\n      jumpi\n        /* \"#utility.yul\":1348:1427   */\n      tag_433\n      tag_434\n      jump\t// in\n    tag_433:\n        /* \"#utility.yul\":1310:1429   */\n    tag_432:\n        /* \"#utility.yul\":1468:1469   */\n      0x00\n        /* \"#utility.yul\":1493:1546   */\n      tag_435\n        /* \"#utility.yul\":1538:1545   */\n      dup5\n        /* \"#utility.yul\":1529:1535   */\n      dup3\n        /* \"#utility.yul\":1518:1527   */\n      dup6\n        /* \"#utility.yul\":1514:1536   */\n      add\n        /* \"#utility.yul\":1493:1546   */\n      tag_413\n      jump\t// in\n    tag_435:\n        /* \"#utility.yul\":1483:1546   */\n      swap2\n      pop\n        /* \"#utility.yul\":1439:1556   */\n      pop\n        /* \"#utility.yul\":1234:1563   */\n      swap3\n      swap2\n      pop\n      pop\n      jump\t// out\n        /* \"#utility.yul\":1569:1914   */\n    tag_56:\n        /* \"#utility.yul\":1636:1642   */\n      0x00\n        /* \"#utility.yul\":1685:1687   */\n      0x20\n        /* \"#utility.yul\":1673:1682   */\n      dup3\n        /* \"#utility.yul\":1664:1671   */\n      dup5\n        /* \"#utility.yul\":1660:1683   */\n      sub\n        /* \"#utility.yul\":1656:1688   */\n      slt\n        /* \"#utility.yul\":1653:1772   */\n      iszero\n      tag_437\n      jumpi\n        /* \"#utility.yul\":1691:1770   */\n      tag_438\n      tag_434\n      jump\t// in\n    tag_438:\n        /* \"#utility.yul\":1653:1772   */\n    tag_437:\n        /* \"#utility.yul\":1811:1812   */\n      0x00\n        /* \"#utility.yul\":1836:1897   */\n      tag_439\n        /* \"#utility.yul\":1889:1896   */\n      dup5\n        /* \"#utility.yul\":1880:1886   */\n      dup3\n        /* \"#utility.yul\":1869:1878   */\n      dup6\n        /* \"#utility.yul\":1865:1887   */\n      add\n        /* \"#utility.yul\":1836:1897   */\n      tag_417\n      jump\t// in\n    tag_439:\n        /* \"#utility.yul\":1826:1897   */\n      swap2\n      pop\n        /* \"#utility.yul\":1782:1907   */\n      pop\n        /* \"#utility.yul\":1569:1914   */\n      swap3\n      swap2\n      pop\n      pop\n      jump\t// out\n        /* \"#utility.yul\":1920:2899   */\n    tag_72:\n        /* \"#utility.yul\":2017:2023   */\n      0x00\n        /* \"#utility.yul\":2025:2031   */\n      dup1\n        /* \"#utility.yul\":2033:2039   */\n      0x00\n        /* \"#utility.yul\":2082:2084   */\n      0x60\n        /* \"#utility.yul\":2070:2079   */\n      dup5\n        /* \"#utility.yul\":2061:2068   */\n      dup7\n        /* \"#utility.yul\":2057:2080   */\n      sub\n        /* \"#utility.yul\":2053:2085   */\n      slt\n        /* \"#utility.yul\":2050:2169   */\n      iszero\n      tag_441\n      jumpi\n        /* \"#utility.yul\":2088:2167   */\n      tag_442\n      tag_434\n      jump\t// in\n    tag_442:\n        /* \"#utility.yul\":2050:2169   */\n    tag_441:\n        /* \"#utility.yul\":2208:2209   */\n      0x00\n        /* \"#utility.yul\":2233:2286   */\n      tag_443\n        /* \"#utility.yul\":2278:2285   */\n      dup7\n        /* \"#utility.yul\":2269:2275   */\n      dup3\n        /* \"#utility.yul\":2258:2267   */\n      dup8\n        /* \"#utility.yul\":2254:2276   */\n      add\n        /* \"#utility.yul\":2233:2286   */\n      tag_413\n      jump\t// in\n    tag_443:\n        /* \"#utility.yul\":2223:2286   */\n      swap4\n      pop\n        /* \"#utility.yul\":2179:2296   */\n      pop\n        /* \"#utility.yul\":2363:2365   */\n      0x20\n        /* \"#utility.yul\":2352:2361   */\n      dup5\n        /* \"#utility.yul\":2348:2366   */\n      add\n        /* \"#utility.yul\":2335:2367   */\n      calldataload\n        /* \"#utility.yul\":2394:2412   */\n      0xffffffffffffffff\n        /* \"#utility.yul\":2386:2392   */\n      dup2\n        /* \"#utility.yul\":2383:2413   */\n      gt\n        /* \"#utility.yul\":2380:2497   */\n      iszero\n      tag_444\n      jumpi\n        /* \"#utility.yul\":2416:2495   */\n      tag_445\n      tag_446\n      jump\t// in\n    tag_445:\n        /* \"#utility.yul\":2380:2497   */\n    tag_444:\n        /* \"#utility.yul\":2521:2584   */\n      tag_447\n        /* \"#utility.yul\":2576:2583   */\n      dup7\n        /* \"#utility.yul\":2567:2573   */\n      dup3\n        /* \"#utility.yul\":2556:2565   */\n      dup8\n        /* \"#utility.yul\":2552:2574   */\n      add\n        /* \"#utility.yul\":2521:2584   */\n      tag_425\n      jump\t// in\n    tag_447:\n        /* \"#utility.yul\":2511:2584   */\n      swap3\n      pop\n        /* \"#utility.yul\":2306:2594   */\n      pop\n        /* \"#utility.yul\":2661:2663   */\n      0x40\n        /* \"#utility.yul\":2650:2659   */\n      dup5\n        /* \"#utility.yul\":2646:2664   */\n      add\n        /* \"#utility.yul\":2633:2665   */\n      calldataload\n        /* \"#utility.yul\":2692:2710   */\n      0xffffffffffffffff\n        /* \"#utility.yul\":2684:2690   */\n      dup2\n        /* \"#utility.yul\":2681:2711   */\n      gt\n        /* \"#utility.yul\":2678:2795   */\n      iszero\n      tag_448\n      jumpi\n        /* \"#utility.yul\":2714:2793   */\n      tag_449\n      tag_446\n      jump\t// in\n    tag_449:\n        /* \"#utility.yul\":2678:2795   */\n    tag_448:\n        /* \"#utility.yul\":2819:2882   */\n      tag_450\n        /* \"#utility.yul\":2874:2881   */\n      dup7\n        /* \"#utility.yul\":2865:2871   */\n      dup3\n        /* \"#utility.yul\":2854:2863   */\n      dup8\n        /* \"#utility.yul\":2850:2872   */\n      add\n        /* \"#utility.yul\":2819:2882   */\n      tag_425\n      jump\t// in\n    tag_450:\n        /* \"#utility.yul\":2809:2882   */\n      swap2\n      pop\n        /* \"#utility.yul\":2604:2892   */\n      pop\n        /* \"#utility.yul\":1920:2899   */\n      swap3\n      pop\n      swap3\n      pop\n      swap3\n      jump\t// out\n        /* \"#utility.yul\":2905:4316   */\n    tag_33:\n        /* \"#utility.yul\":3026:3032   */\n      0x00\n        /* \"#utility.yul\":3034:3040   */\n      dup1\n        /* \"#utility.yul\":3042:3048   */\n      0x00\n        /* \"#utility.yul\":3050:3056   */\n      dup1\n        /* \"#utility.yul\":3058:3064   */\n      0x00\n        /* \"#utility.yul\":3066:3072   */\n      dup1\n        /* \"#utility.yul\":3115:3118   */\n      0xc0\n        /* \"#utility.yul\":3103:3112   */\n      dup8\n        /* \"#utility.yul\":3094:3101   */\n      dup10\n        /* \"#utility.yul\":3090:3113   */\n      sub\n        /* \"#utility.yul\":3086:3119   */\n      slt\n        /* \"#utility.yul\":3083:3203   */\n      iszero\n      tag_452\n      jumpi\n        /* \"#utility.yul\":3122:3201   */\n      tag_453\n      tag_434\n      jump\t// in\n    tag_453:\n        /* \"#utility.yul\":3083:3203   */\n    tag_452:\n        /* \"#utility.yul\":3242:3243   */\n      0x00\n        /* \"#utility.yul\":3267:3320   */\n      tag_454\n        /* \"#utility.yul\":3312:3319   */\n      dup10\n        /* \"#utility.yul\":3303:3309   */\n      dup3\n        /* \"#utility.yul\":3292:3301   */\n      dup11\n        /* \"#utility.yul\":3288:3310   */\n      add\n        /* \"#utility.yul\":3267:3320   */\n      tag_413\n      jump\t// in\n    tag_454:\n        /* \"#utility.yul\":3257:3320   */\n      swap7\n      pop\n        /* \"#utility.yul\":3213:3330   */\n      pop\n        /* \"#utility.yul\":3397:3399   */\n      0x20\n        /* \"#utility.yul\":3386:3395   */\n      dup8\n        /* \"#utility.yul\":3382:3400   */\n      add\n        /* \"#utility.yul\":3369:3401   */\n      calldataload\n        /* \"#utility.yul\":3428:3446   */\n      0xffffffffffffffff\n        /* \"#utility.yul\":3420:3426   */\n      dup2\n        /* \"#utility.yul\":3417:3447   */\n      gt\n        /* \"#utility.yul\":3414:3531   */\n      iszero\n      tag_455\n      jumpi\n        /* \"#utility.yul\":3450:3529   */\n      tag_456\n      tag_446\n      jump\t// in\n    tag_456:\n        /* \"#utility.yul\":3414:3531   */\n    tag_455:\n        /* \"#utility.yul\":3555:3618   */\n      tag_457\n        /* \"#utility.yul\":3610:3617   */\n      dup10\n        /* \"#utility.yul\":3601:3607   */\n      dup3\n        /* \"#utility.yul\":3590:3599   */\n      dup11\n        /* \"#utility.yul\":3586:3608   */\n      add\n        /* \"#utility.yul\":3555:3618   */\n      tag_425\n      jump\t// in\n    tag_457:\n        /* \"#utility.yul\":3545:3618   */\n      swap6\n      pop\n        /* \"#utility.yul\":3340:3628   */\n      pop\n        /* \"#utility.yul\":3695:3697   */\n      0x40\n        /* \"#utility.yul\":3684:3693   */\n      dup8\n        /* \"#utility.yul\":3680:3698   */\n      add\n        /* \"#utility.yul\":3667:3699   */\n      calldataload\n        /* \"#utility.yul\":3726:3744   */\n      0xffffffffffffffff\n        /* \"#utility.yul\":3718:3724   */\n      dup2\n        /* \"#utility.yul\":3715:3745   */\n      gt\n        /* \"#utility.yul\":3712:3829   */\n      iszero\n      tag_458\n      jumpi\n        /* \"#utility.yul\":3748:3827   */\n      tag_459\n      tag_446\n      jump\t// in\n    tag_459:\n        /* \"#utility.yul\":3712:3829   */\n    tag_458:\n        /* \"#utility.yul\":3853:3916   */\n      tag_460\n        /* \"#utility.yul\":3908:3915   */\n      dup10\n        /* \"#utility.yul\":3899:3905   */\n      dup3\n        /* \"#utility.yul\":3888:3897   */\n      dup11\n        /* \"#utility.yul\":3884:3906   */\n      add\n        /* \"#utility.yul\":3853:3916   */\n      tag_425\n      jump\t// in\n    tag_460:\n        /* \"#utility.yul\":3843:3916   */\n      swap5\n      pop\n        /* \"#utility.yul\":3638:3926   */\n      pop\n        /* \"#utility.yul\":3965:3967   */\n      0x60\n        /* \"#utility.yul\":3991:4043   */\n      tag_461\n        /* \"#utility.yul\":4035:4042   */\n      dup10\n        /* \"#utility.yul\":4026:4032   */\n      dup3\n        /* \"#utility.yul\":4015:4024   */\n      dup11\n        /* \"#utility.yul\":4011:4033   */\n      add\n        /* \"#utility.yul\":3991:4043   */\n      tag_421\n      jump\t// in\n    tag_461:\n        /* \"#utility.yul\":3981:4043   */\n      swap4\n      pop\n        /* \"#utility.yul\":3936:4053   */\n      pop\n        /* \"#utility.yul\":4092:4095   */\n      0x80\n        /* \"#utility.yul\":4119:4171   */\n      tag_462\n        /* \"#utility.yul\":4163:4170   */\n      dup10\n        /* \"#utility.yul\":4154:4160   */\n      dup3\n        /* \"#utility.yul\":4143:4152   */\n      dup11\n        /* \"#utility.yul\":4139:4161   */\n      add\n        /* \"#utility.yul\":4119:4171   */\n      tag_421\n      jump\t// in\n    tag_462:\n        /* \"#utility.yul\":4109:4171   */\n      swap3\n      pop\n        /* \"#utility.yul\":4063:4181   */\n      pop\n        /* \"#utility.yul\":4220:4223   */\n      0xa0\n        /* \"#utility.yul\":4247:4299   */\n      tag_463\n        /* \"#utility.yul\":4291:4298   */\n      dup10\n        /* \"#utility.yul\":4282:4288   */\n      dup3\n        /* \"#utility.yul\":4271:4280   */\n      dup11\n        /* \"#utility.yul\":4267:4289   */\n      add\n        /* \"#utility.yul\":4247:4299   */\n      tag_421\n      jump\t// in\n    tag_463:\n        /* \"#utility.yul\":4237:4299   */\n      swap2\n      pop\n        /* \"#utility.yul\":4191:4309   */\n      pop\n        /* \"#utility.yul\":2905:4316   */\n      swap3\n      swap6\n      pop\n      swap3\n      swap6\n      pop\n      swap3\n      swap6\n      jump\t// out\n        /* \"#utility.yul\":4322:5627   */\n    tag_46:\n        /* \"#utility.yul\":4438:4444   */\n      0x00\n        /* \"#utility.yul\":4446:4452   */\n      dup1\n        /* \"#utility.yul\":4454:4460   */\n      0x00\n        /* \"#utility.yul\":4462:4468   */\n      dup1\n        /* \"#utility.yul\":4511:4514   */\n      0x80\n        /* \"#utility.yul\":4499:4508   */\n      dup6\n        /* \"#utility.yul\":4490:4497   */\n      dup8\n        /* \"#utility.yul\":4486:4509   */\n      sub\n        /* \"#utility.yul\":4482:4515   */\n      slt\n        /* \"#utility.yul\":4479:4599   */\n      iszero\n      tag_465\n      jumpi\n        /* \"#utility.yul\":4518:4597   */\n      tag_466\n      tag_434\n      jump\t// in\n    tag_466:\n        /* \"#utility.yul\":4479:4599   */\n    tag_465:\n        /* \"#utility.yul\":4638:4639   */\n      0x00\n        /* \"#utility.yul\":4663:4716   */\n      tag_467\n        /* \"#utility.yul\":4708:4715   */\n      dup8\n        /* \"#utility.yul\":4699:4705   */\n      dup3\n        /* \"#utility.yul\":4688:4697   */\n      dup9\n        /* \"#utility.yul\":4684:4706   */\n      add\n        /* \"#utility.yul\":4663:4716   */\n      tag_413\n      jump\t// in\n    tag_467:\n        /* \"#utility.yul\":4653:4716   */\n      swap5\n      pop\n        /* \"#utility.yul\":4609:4726   */\n      pop\n        /* \"#utility.yul\":4793:4795   */\n      0x20\n        /* \"#utility.yul\":4782:4791   */\n      dup6\n        /* \"#utility.yul\":4778:4796   */\n      add\n        /* \"#utility.yul\":4765:4797   */\n      calldataload\n        /* \"#utility.yul\":4824:4842   */\n      0xffffffffffffffff\n        /* \"#utility.yul\":4816:4822   */\n      dup2\n        /* \"#utility.yul\":4813:4843   */\n      gt\n        /* \"#utility.yul\":4810:4927   */\n      iszero\n      tag_468\n      jumpi\n        /* \"#utility.yul\":4846:4925   */\n      tag_469\n      tag_446\n      jump\t// in\n    tag_469:\n        /* \"#utility.yul\":4810:4927   */\n    tag_468:\n        /* \"#utility.yul\":4951:5014   */\n      tag_470\n        /* \"#utility.yul\":5006:5013   */\n      dup8\n        /* \"#utility.yul\":4997:5003   */\n      dup3\n        /* \"#utility.yul\":4986:4995   */\n      dup9\n        /* \"#utility.yul\":4982:5004   */\n      add\n        /* \"#utility.yul\":4951:5014   */\n      tag_425\n      jump\t// in\n    tag_470:\n        /* \"#utility.yul\":4941:5014   */\n      swap4\n      pop\n        /* \"#utility.yul\":4736:5024   */\n      pop\n        /* \"#utility.yul\":5091:5093   */\n      0x40\n        /* \"#utility.yul\":5080:5089   */\n      dup6\n        /* \"#utility.yul\":5076:5094   */\n      add\n        /* \"#utility.yul\":5063:5095   */\n      calldataload\n        /* \"#utility.yul\":5122:5140   */\n      0xffffffffffffffff\n        /* \"#utility.yul\":5114:5120   */\n      dup2\n        /* \"#utility.yul\":5111:5141   */\n      gt\n        /* \"#utility.yul\":5108:5225   */\n      iszero\n      tag_471\n      jumpi\n        /* \"#utility.yul\":5144:5223   */\n      tag_472\n      tag_446\n      jump\t// in\n    tag_472:\n        /* \"#utility.yul\":5108:5225   */\n    tag_471:\n        /* \"#utility.yul\":5249:5312   */\n      tag_473\n        /* \"#utility.yul\":5304:5311   */\n      dup8\n        /* \"#utility.yul\":5295:5301   */\n      dup3\n        /* \"#utility.yul\":5284:5293   */\n      dup9\n        /* \"#utility.yul\":5280:5302   */\n      add\n        /* \"#utility.yul\":5249:5312   */\n      tag_425\n      jump\t// in\n    tag_473:\n        /* \"#utility.yul\":5239:5312   */\n      swap3\n      pop\n        /* \"#utility.yul\":5034:5322   */\n      pop\n        /* \"#utility.yul\":5389:5391   */\n      0x60\n        /* \"#utility.yul\":5378:5387   */\n      dup6\n        /* \"#utility.yul\":5374:5392   */\n      add\n        /* \"#utility.yul\":5361:5393   */\n      calldataload\n        /* \"#utility.yul\":5420:5438   */\n      0xffffffffffffffff\n        /* \"#utility.yul\":5412:5418   */\n      dup2\n        /* \"#utility.yul\":5409:5439   */\n      gt\n        /* \"#utility.yul\":5406:5523   */\n      iszero\n      tag_474\n      jumpi\n        /* \"#utility.yul\":5442:5521   */\n      tag_475\n      tag_446\n      jump\t// in\n    tag_475:\n        /* \"#utility.yul\":5406:5523   */\n    tag_474:\n        /* \"#utility.yul\":5547:5610   */\n      tag_476\n        /* \"#utility.yul\":5602:5609   */\n      dup8\n        /* \"#utility.yul\":5593:5599   */\n      dup3\n        /* \"#utility.yul\":5582:5591   */\n      dup9\n        /* \"#utility.yul\":5578:5600   */\n      add\n        /* \"#utility.yul\":5547:5610   */\n      tag_425\n      jump\t// in\n    tag_476:\n        /* \"#utility.yul\":5537:5610   */\n      swap2\n      pop\n        /* \"#utility.yul\":5332:5620   */\n      pop\n        /* \"#utility.yul\":4322:5627   */\n      swap3\n      swap6\n      swap2\n      swap5\n      pop\n      swap3\n      pop\n      jump\t// out\n        /* \"#utility.yul\":5633:6142   */\n    tag_37:\n        /* \"#utility.yul\":5702:5708   */\n      0x00\n        /* \"#utility.yul\":5751:5753   */\n      0x20\n        /* \"#utility.yul\":5739:5748   */\n      dup3\n        /* \"#utility.yul\":5730:5737   */\n      dup5\n        /* \"#utility.yul\":5726:5749   */\n      sub\n        /* \"#utility.yul\":5722:5754   */\n      slt\n        /* \"#utility.yul\":5719:5838   */\n      iszero\n      tag_478\n      jumpi\n        /* \"#utility.yul\":5757:5836   */\n      tag_479\n      tag_434\n      jump\t// in\n    tag_479:\n        /* \"#utility.yul\":5719:5838   */\n    tag_478:\n        /* \"#utility.yul\":5905:5906   */\n      0x00\n        /* \"#utility.yul\":5894:5903   */\n      dup3\n        /* \"#utility.yul\":5890:5907   */\n      add\n        /* \"#utility.yul\":5877:5908   */\n      calldataload\n        /* \"#utility.yul\":5935:5953   */\n      0xffffffffffffffff\n        /* \"#utility.yul\":5927:5933   */\n      dup2\n        /* \"#utility.yul\":5924:5954   */\n      gt\n        /* \"#utility.yul\":5921:6038   */\n      iszero\n      tag_480\n      jumpi\n        /* \"#utility.yul\":5957:6036   */\n      tag_481\n      tag_446\n      jump\t// in\n    tag_481:\n        /* \"#utility.yul\":5921:6038   */\n    tag_480:\n        /* \"#utility.yul\":6062:6125   */\n      tag_482\n        /* \"#utility.yul\":6117:6124   */\n      dup5\n        /* \"#utility.yul\":6108:6114   */\n      dup3\n        /* \"#utility.yul\":6097:6106   */\n      dup6\n        /* \"#utility.yul\":6093:6115   */\n      add\n        /* \"#utility.yul\":6062:6125   */\n      tag_425\n      jump\t// in\n    tag_482:\n        /* \"#utility.yul\":6052:6125   */\n      swap2\n      pop\n        /* \"#utility.yul\":5848:6135   */\n      pop\n        /* \"#utility.yul\":5633:6142   */\n      swap3\n      swap2\n      pop\n      pop\n      jump\t// out\n        /* \"#utility.yul\":6148:6802   */\n    tag_29:\n        /* \"#utility.yul\":6226:6232   */\n      0x00\n        /* \"#utility.yul\":6234:6240   */\n      dup1\n        /* \"#utility.yul\":6283:6285   */\n      0x40\n        /* \"#utility.yul\":6271:6280   */\n      dup4\n        /* \"#utility.yul\":6262:6269   */\n      dup6\n        /* \"#utility.yul\":6258:6281   */\n      sub\n        /* \"#utility.yul\":6254:6286   */\n      slt\n        /* \"#utility.yul\":6251:6370   */\n      iszero\n      tag_484\n      jumpi\n        /* \"#utility.yul\":6289:6368   */\n      tag_485\n      tag_434\n      jump\t// in\n    tag_485:\n        /* \"#utility.yul\":6251:6370   */\n    tag_484:\n        /* \"#utility.yul\":6437:6438   */\n      0x00\n        /* \"#utility.yul\":6426:6435   */\n      dup4\n        /* \"#utility.yul\":6422:6439   */\n      add\n        /* \"#utility.yul\":6409:6440   */\n      calldataload\n        /* \"#utility.yul\":6467:6485   */\n      0xffffffffffffffff\n        /* \"#utility.yul\":6459:6465   */\n      dup2\n        /* \"#utility.yul\":6456:6486   */\n      gt\n        /* \"#utility.yul\":6453:6570   */\n      iszero\n      tag_486\n      jumpi\n        /* \"#utility.yul\":6489:6568   */\n      tag_487\n      tag_446\n      jump\t// in\n    tag_487:\n        /* \"#utility.yul\":6453:6570   */\n    tag_486:\n        /* \"#utility.yul\":6594:6657   */\n      tag_488\n        /* \"#utility.yul\":6649:6656   */\n      dup6\n        /* \"#utility.yul\":6640:6646   */\n      dup3\n        /* \"#utility.yul\":6629:6638   */\n      dup7\n        /* \"#utility.yul\":6625:6647   */\n      add\n        /* \"#utility.yul\":6594:6657   */\n      tag_425\n      jump\t// in\n    tag_488:\n        /* \"#utility.yul\":6584:6657   */\n      swap3\n      pop\n        /* \"#utility.yul\":6380:6667   */\n      pop\n        /* \"#utility.yul\":6706:6708   */\n      0x20\n        /* \"#utility.yul\":6732:6785   */\n      tag_489\n        /* \"#utility.yul\":6777:6784   */\n      dup6\n        /* \"#utility.yul\":6768:6774   */\n      dup3\n        /* \"#utility.yul\":6757:6766   */\n      dup7\n        /* \"#utility.yul\":6753:6775   */\n      add\n        /* \"#utility.yul\":6732:6785   */\n      tag_413\n      jump\t// in\n    tag_489:\n        /* \"#utility.yul\":6722:6785   */\n      swap2\n      pop\n        /* \"#utility.yul\":6677:6795   */\n      pop\n        /* \"#utility.yul\":6148:6802   */\n      swap3\n      pop\n      swap3\n      swap1\n      pop\n      jump\t// out\n        /* \"#utility.yul\":6808:7642   */\n    tag_80:\n        /* \"#utility.yul\":6896:6902   */\n      0x00\n        /* \"#utility.yul\":6904:6910   */\n      dup1\n        /* \"#utility.yul\":6953:6955   */\n      0x40\n        /* \"#utility.yul\":6941:6950   */\n      dup4\n        /* \"#utility.yul\":6932:6939   */\n      dup6\n        /* \"#utility.yul\":6928:6951   */\n      sub\n        /* \"#utility.yul\":6924:6956   */\n      slt\n        /* \"#utility.yul\":6921:7040   */\n      iszero\n      tag_491\n      jumpi\n        /* \"#utility.yul\":6959:7038   */\n      tag_492\n      tag_434\n      jump\t// in\n    tag_492:\n        /* \"#utility.yul\":6921:7040   */\n    tag_491:\n        /* \"#utility.yul\":7107:7108   */\n      0x00\n        /* \"#utility.yul\":7096:7105   */\n      dup4\n        /* \"#utility.yul\":7092:7109   */\n      add\n        /* \"#utility.yul\":7079:7110   */\n      calldataload\n        /* \"#utility.yul\":7137:7155   */\n      0xffffffffffffffff\n        /* \"#utility.yul\":7129:7135   */\n      dup2\n        /* \"#utility.yul\":7126:7156   */\n      gt\n        /* \"#utility.yul\":7123:7240   */\n      iszero\n      tag_493\n      jumpi\n        /* \"#utility.yul\":7159:7238   */\n      tag_494\n      tag_446\n      jump\t// in\n    tag_494:\n        /* \"#utility.yul\":7123:7240   */\n    tag_493:\n        /* \"#utility.yul\":7264:7327   */\n      tag_495\n        /* \"#utility.yul\":7319:7326   */\n      dup6\n        /* \"#utility.yul\":7310:7316   */\n      dup3\n        /* \"#utility.yul\":7299:7308   */\n      dup7\n        /* \"#utility.yul\":7295:7317   */\n      add\n        /* \"#utility.yul\":7264:7327   */\n      tag_425\n      jump\t// in\n    tag_495:\n        /* \"#utility.yul\":7254:7327   */\n      swap3\n      pop\n        /* \"#utility.yul\":7050:7337   */\n      pop\n        /* \"#utility.yul\":7404:7406   */\n      0x20\n        /* \"#utility.yul\":7393:7402   */\n      dup4\n        /* \"#utility.yul\":7389:7407   */\n      add\n        /* \"#utility.yul\":7376:7408   */\n      calldataload\n        /* \"#utility.yul\":7435:7453   */\n      0xffffffffffffffff\n        /* \"#utility.yul\":7427:7433   */\n      dup2\n        /* \"#utility.yul\":7424:7454   */\n      gt\n        /* \"#utility.yul\":7421:7538   */\n      iszero\n      tag_496\n      jumpi\n        /* \"#utility.yul\":7457:7536   */\n      tag_497\n      tag_446\n      jump\t// in\n    tag_497:\n        /* \"#utility.yul\":7421:7538   */\n    tag_496:\n        /* \"#utility.yul\":7562:7625   */\n      tag_498\n        /* \"#utility.yul\":7617:7624   */\n      dup6\n        /* \"#utility.yul\":7608:7614   */\n      dup3\n        /* \"#utility.yul\":7597:7606   */\n      dup7\n        /* \"#utility.yul\":7593:7615   */\n      add\n        /* \"#utility.yul\":7562:7625   */\n      tag_425\n      jump\t// in\n    tag_498:\n        /* \"#utility.yul\":7552:7625   */\n      swap2\n      pop\n        /* \"#utility.yul\":7347:7635   */\n      pop\n        /* \"#utility.yul\":6808:7642   */\n      swap3\n      pop\n      swap3\n      swap1\n      pop\n      jump\t// out\n        /* \"#utility.yul\":7648:8627   */\n    tag_68:\n        /* \"#utility.yul\":7745:7751   */\n      0x00\n        /* \"#utility.yul\":7753:7759   */\n      dup1\n        /* \"#utility.yul\":7761:7767   */\n      0x00\n        /* \"#utility.yul\":7810:7812   */\n      0x60\n        /* \"#utility.yul\":7798:7807   */\n      dup5\n        /* \"#utility.yul\":7789:7796   */\n      dup7\n        /* \"#utility.yul\":7785:7808   */\n      sub\n        /* \"#utility.yul\":7781:7813   */\n      slt\n        /* \"#utility.yul\":7778:7897   */\n      iszero\n      tag_500\n      jumpi\n        /* \"#utility.yul\":7816:7895   */\n      tag_501\n      tag_434\n      jump\t// in\n    tag_501:\n        /* \"#utility.yul\":7778:7897   */\n    tag_500:\n        /* \"#utility.yul\":7964:7965   */\n      0x00\n        /* \"#utility.yul\":7953:7962   */\n      dup5\n        /* \"#utility.yul\":7949:7966   */\n      add\n        /* \"#utility.yul\":7936:7967   */\n      calldataload\n        /* \"#utility.yul\":7994:8012   */\n      0xffffffffffffffff\n        /* \"#utility.yul\":7986:7992   */\n      dup2\n        /* \"#utility.yul\":7983:8013   */\n      gt\n        /* \"#utility.yul\":7980:8097   */\n      iszero\n      tag_502\n      jumpi\n        /* \"#utility.yul\":8016:8095   */\n      tag_503\n      tag_446\n      jump\t// in\n    tag_503:\n        /* \"#utility.yul\":7980:8097   */\n    tag_502:\n        /* \"#utility.yul\":8121:8184   */\n      tag_504\n        /* \"#utility.yul\":8176:8183   */\n      dup7\n        /* \"#utility.yul\":8167:8173   */\n      dup3\n        /* \"#utility.yul\":8156:8165   */\n      dup8\n        /* \"#utility.yul\":8152:8174   */\n      add\n        /* \"#utility.yul\":8121:8184   */\n      tag_425\n      jump\t// in\n    tag_504:\n        /* \"#utility.yul\":8111:8184   */\n      swap4\n      pop\n        /* \"#utility.yul\":7907:8194   */\n      pop\n        /* \"#utility.yul\":8261:8263   */\n      0x20\n        /* \"#utility.yul\":8250:8259   */\n      dup5\n        /* \"#utility.yul\":8246:8264   */\n      add\n        /* \"#utility.yul\":8233:8265   */\n      calldataload\n        /* \"#utility.yul\":8292:8310   */\n      0xffffffffffffffff\n        /* \"#utility.yul\":8284:8290   */\n      dup2\n        /* \"#utility.yul\":8281:8311   */\n      gt\n        /* \"#utility.yul\":8278:8395   */\n      iszero\n      tag_505\n      jumpi\n        /* \"#utility.yul\":8314:8393   */\n      tag_506\n      tag_446\n      jump\t// in\n    tag_506:\n        /* \"#utility.yul\":8278:8395   */\n    tag_505:\n        /* \"#utility.yul\":8419:8482   */\n      tag_507\n        /* \"#utility.yul\":8474:8481   */\n      dup7\n        /* \"#utility.yul\":8465:8471   */\n      dup3\n        /* \"#utility.yul\":8454:8463   */\n      dup8\n        /* \"#utility.yul\":8450:8472   */\n      add\n        /* \"#utility.yul\":8419:8482   */\n      tag_425\n      jump\t// in\n    tag_507:\n        /* \"#utility.yul\":8409:8482   */\n      swap3\n      pop\n        /* \"#utility.yul\":8204:8492   */\n      pop\n        /* \"#utility.yul\":8531:8533   */\n      0x40\n        /* \"#utility.yul\":8557:8610   */\n      tag_508\n        /* \"#utility.yul\":8602:8609   */\n      dup7\n        /* \"#utility.yul\":8593:8599   */\n      dup3\n        /* \"#utility.yul\":8582:8591   */\n      dup8\n        /* \"#utility.yul\":8578:8600   */\n      add\n        /* \"#utility.yul\":8557:8610   */\n      tag_413\n      jump\t// in\n    tag_508:\n        /* \"#utility.yul\":8547:8610   */\n      swap2\n      pop\n        /* \"#utility.yul\":8502:8620   */\n      pop\n        /* \"#utility.yul\":7648:8627   */\n      swap3\n      pop\n      swap3\n      pop\n      swap3\n      jump\t// out\n        /* \"#utility.yul\":8633:9758   */\n    tag_60:\n        /* \"#utility.yul\":8739:8745   */\n      0x00\n        /* \"#utility.yul\":8747:8753   */\n      dup1\n        /* \"#utility.yul\":8755:8761   */\n      0x00\n        /* \"#utility.yul\":8763:8769   */\n      dup1\n        /* \"#utility.yul\":8812:8815   */\n      0x80\n        /* \"#utility.yul\":8800:8809   */\n      dup6\n        /* \"#utility.yul\":8791:8798   */\n      dup8\n        /* \"#utility.yul\":8787:8810   */\n      sub\n        /* \"#utility.yul\":8783:8816   */\n      slt\n        /* \"#utility.yul\":8780:8900   */\n      iszero\n      tag_510\n      jumpi\n        /* \"#utility.yul\":8819:8898   */\n      tag_511\n      tag_434\n      jump\t// in\n    tag_511:\n        /* \"#utility.yul\":8780:8900   */\n    tag_510:\n        /* \"#utility.yul\":8967:8968   */\n      0x00\n        /* \"#utility.yul\":8956:8965   */\n      dup6\n        /* \"#utility.yul\":8952:8969   */\n      add\n        /* \"#utility.yul\":8939:8970   */\n      calldataload\n        /* \"#utility.yul\":8997:9015   */\n      0xffffffffffffffff\n        /* \"#utility.yul\":8989:8995   */\n      dup2\n        /* \"#utility.yul\":8986:9016   */\n      gt\n        /* \"#utility.yul\":8983:9100   */\n      iszero\n      tag_512\n      jumpi\n        /* \"#utility.yul\":9019:9098   */\n      tag_513\n      tag_446\n      jump\t// in\n    tag_513:\n        /* \"#utility.yul\":8983:9100   */\n    tag_512:\n        /* \"#utility.yul\":9124:9187   */\n      tag_514\n        /* \"#utility.yul\":9179:9186   */\n      dup8\n        /* \"#utility.yul\":9170:9176   */\n      dup3\n        /* \"#utility.yul\":9159:9168   */\n      dup9\n        /* \"#utility.yul\":9155:9177   */\n      add\n        /* \"#utility.yul\":9124:9187   */\n      tag_425\n      jump\t// in\n    tag_514:\n        /* \"#utility.yul\":9114:9187   */\n      swap5\n      pop\n        /* \"#utility.yul\":8910:9197   */\n      pop\n        /* \"#utility.yul\":9264:9266   */\n      0x20\n        /* \"#utility.yul\":9253:9262   */\n      dup6\n        /* \"#utility.yul\":9249:9267   */\n      add\n        /* \"#utility.yul\":9236:9268   */\n      calldataload\n        /* \"#utility.yul\":9295:9313   */\n      0xffffffffffffffff\n        /* \"#utility.yul\":9287:9293   */\n      dup2\n        /* \"#utility.yul\":9284:9314   */\n      gt\n        /* \"#utility.yul\":9281:9398   */\n      iszero\n      tag_515\n      jumpi\n        /* \"#utility.yul\":9317:9396   */\n      tag_516\n      tag_446\n      jump\t// in\n    tag_516:\n        /* \"#utility.yul\":9281:9398   */\n    tag_515:\n        /* \"#utility.yul\":9422:9485   */\n      tag_517\n        /* \"#utility.yul\":9477:9484   */\n      dup8\n        /* \"#utility.yul\":9468:9474   */\n      dup3\n        /* \"#utility.yul\":9457:9466   */\n      dup9\n        /* \"#utility.yul\":9453:9475   */\n      add\n        /* \"#utility.yul\":9422:9485   */\n      tag_425\n      jump\t// in\n    tag_517:\n        /* \"#utility.yul\":9412:9485   */\n      swap4\n      pop\n        /* \"#utility.yul\":9207:9495   */\n      pop\n        /* \"#utility.yul\":9534:9536   */\n      0x40\n        /* \"#utility.yul\":9560:9613   */\n      tag_518\n        /* \"#utility.yul\":9605:9612   */\n      dup8\n        /* \"#utility.yul\":9596:9602   */\n      dup3\n        /* \"#utility.yul\":9585:9594   */\n      dup9\n        /* \"#utility.yul\":9581:9603   */\n      add\n        /* \"#utility.yul\":9560:9613   */\n      tag_413\n      jump\t// in\n    tag_518:\n        /* \"#utility.yul\":9550:9613   */\n      swap3\n      pop\n        /* \"#utility.yul\":9505:9623   */\n      pop\n        /* \"#utility.yul\":9662:9664   */\n      0x60\n        /* \"#utility.yul\":9688:9741   */\n      tag_519\n        /* \"#utility.yul\":9733:9740   */\n      dup8\n        /* \"#utility.yul\":9724:9730   */\n      dup3\n        /* \"#utility.yul\":9713:9722   */\n      dup9\n        /* \"#utility.yul\":9709:9731   */\n      add\n        /* \"#utility.yul\":9688:9741   */\n      tag_413\n      jump\t// in\n    tag_519:\n        /* \"#utility.yul\":9678:9741   */\n      swap2\n      pop\n        /* \"#utility.yul\":9633:9751   */\n      pop\n        /* \"#utility.yul\":8633:9758   */\n      swap3\n      swap6\n      swap2\n      swap5\n      pop\n      swap3\n      pop\n      jump\t// out\n        /* \"#utility.yul\":9764:9943   */\n    tag_520:\n        /* \"#utility.yul\":9833:9843   */\n      0x00\n        /* \"#utility.yul\":9854:9900   */\n      tag_522\n        /* \"#utility.yul\":9896:9899   */\n      dup4\n        /* \"#utility.yul\":9888:9894   */\n      dup4\n        /* \"#utility.yul\":9854:9900   */\n      tag_523\n      jump\t// in\n    tag_522:\n        /* \"#utility.yul\":9932:9936   */\n      0x20\n        /* \"#utility.yul\":9927:9930   */\n      dup4\n        /* \"#utility.yul\":9923:9937   */\n      add\n        /* \"#utility.yul\":9909:9937   */\n      swap1\n      pop\n        /* \"#utility.yul\":9764:9943   */\n      swap3\n      swap2\n      pop\n      pop\n      jump\t// out\n        /* \"#utility.yul\":9949:10145   */\n    tag_524:\n        /* \"#utility.yul\":10038:10048   */\n      0x00\n        /* \"#utility.yul\":10073:10139   */\n      tag_526\n        /* \"#utility.yul\":10135:10138   */\n      dup4\n        /* \"#utility.yul\":10127:10133   */\n      dup4\n        /* \"#utility.yul\":10073:10139   */\n      tag_527\n      jump\t// in\n    tag_526:\n        /* \"#utility.yul\":10059:10139   */\n      swap1\n      pop\n        /* \"#utility.yul\":9949:10145   */\n      swap3\n      swap2\n      pop\n      pop\n      jump\t// out\n        /* \"#utility.yul\":10151:10403   */\n    tag_528:\n        /* \"#utility.yul\":10268:10278   */\n      0x00\n        /* \"#utility.yul\":10303:10397   */\n      tag_530\n        /* \"#utility.yul\":10393:10396   */\n      dup4\n        /* \"#utility.yul\":10385:10391   */\n      dup4\n        /* \"#utility.yul\":10303:10397   */\n      tag_531\n      jump\t// in\n    tag_530:\n        /* \"#utility.yul\":10289:10397   */\n      swap1\n      pop\n        /* \"#utility.yul\":10151:10403   */\n      swap3\n      swap2\n      pop\n      pop\n      jump\t// out\n        /* \"#utility.yul\":10409:10517   */\n    tag_523:\n        /* \"#utility.yul\":10486:10510   */\n      tag_533\n        /* \"#utility.yul\":10504:10509   */\n      dup2\n        /* \"#utility.yul\":10486:10510   */\n      tag_534\n      jump\t// in\n    tag_533:\n        /* \"#utility.yul\":10481:10484   */\n      dup3\n        /* \"#utility.yul\":10474:10511   */\n      mstore\n        /* \"#utility.yul\":10409:10517   */\n      pop\n      pop\n      jump\t// out\n        /* \"#utility.yul\":10523:10641   */\n    tag_535:\n        /* \"#utility.yul\":10610:10634   */\n      tag_537\n        /* \"#utility.yul\":10628:10633   */\n      dup2\n        /* \"#utility.yul\":10610:10634   */\n      tag_534\n      jump\t// in\n    tag_537:\n        /* \"#utility.yul\":10605:10608   */\n      dup3\n        /* \"#utility.yul\":10598:10635   */\n      mstore\n        /* \"#utility.yul\":10523:10641   */\n      pop\n      pop\n      jump\t// out\n        /* \"#utility.yul\":10677:11409   */\n    tag_538:\n        /* \"#utility.yul\":10796:10799   */\n      0x00\n        /* \"#utility.yul\":10825:10879   */\n      tag_540\n        /* \"#utility.yul\":10873:10878   */\n      dup3\n        /* \"#utility.yul\":10825:10879   */\n      tag_541\n      jump\t// in\n    tag_540:\n        /* \"#utility.yul\":10895:10981   */\n      tag_542\n        /* \"#utility.yul\":10974:10980   */\n      dup2\n        /* \"#utility.yul\":10969:10972   */\n      dup6\n        /* \"#utility.yul\":10895:10981   */\n      tag_543\n      jump\t// in\n    tag_542:\n        /* \"#utility.yul\":10888:10981   */\n      swap4\n      pop\n        /* \"#utility.yul\":11005:11061   */\n      tag_544\n        /* \"#utility.yul\":11055:11060   */\n      dup4\n        /* \"#utility.yul\":11005:11061   */\n      tag_545\n      jump\t// in\n    tag_544:\n        /* \"#utility.yul\":11084:11091   */\n      dup1\n        /* \"#utility.yul\":11115:11116   */\n      0x00\n        /* \"#utility.yul\":11100:11384   */\n    tag_546:\n        /* \"#utility.yul\":11125:11131   */\n      dup4\n        /* \"#utility.yul\":11122:11123   */\n      dup2\n        /* \"#utility.yul\":11119:11132   */\n      lt\n        /* \"#utility.yul\":11100:11384   */\n      iszero\n      tag_548\n      jumpi\n        /* \"#utility.yul\":11201:11207   */\n      dup2\n        /* \"#utility.yul\":11195:11208   */\n      mload\n        /* \"#utility.yul\":11228:11291   */\n      tag_549\n        /* \"#utility.yul\":11287:11290   */\n      dup9\n        /* \"#utility.yul\":11272:11285   */\n      dup3\n        /* \"#utility.yul\":11228:11291   */\n      tag_520\n      jump\t// in\n    tag_549:\n        /* \"#utility.yul\":11221:11291   */\n      swap8\n      pop\n        /* \"#utility.yul\":11314:11374   */\n      tag_550\n        /* \"#utility.yul\":11367:11373   */\n      dup4\n        /* \"#utility.yul\":11314:11374   */\n      tag_551\n      jump\t// in\n    tag_550:\n        /* \"#utility.yul\":11304:11374   */\n      swap3\n      pop\n        /* \"#utility.yul\":11160:11384   */\n      pop\n        /* \"#utility.yul\":11147:11148   */\n      0x01\n        /* \"#utility.yul\":11144:11145   */\n      dup2\n        /* \"#utility.yul\":11140:11149   */\n      add\n        /* \"#utility.yul\":11135:11149   */\n      swap1\n      pop\n        /* \"#utility.yul\":11100:11384   */\n      jump(tag_546)\n    tag_548:\n        /* \"#utility.yul\":11104:11118   */\n      pop\n        /* \"#utility.yul\":11400:11403   */\n      dup6\n        /* \"#utility.yul\":11393:11403   */\n      swap4\n      pop\n        /* \"#utility.yul\":10801:11409   */\n      pop\n      pop\n      pop\n        /* \"#utility.yul\":10677:11409   */\n      swap3\n      swap2\n      pop\n      pop\n      jump\t// out\n        /* \"#utility.yul\":11443:12434   */\n    tag_552:\n        /* \"#utility.yul\":11582:11585   */\n      0x00\n        /* \"#utility.yul\":11611:11675   */\n      tag_554\n        /* \"#utility.yul\":11669:11674   */\n      dup3\n        /* \"#utility.yul\":11611:11675   */\n      tag_555\n      jump\t// in\n    tag_554:\n        /* \"#utility.yul\":11691:11787   */\n      tag_556\n        /* \"#utility.yul\":11780:11786   */\n      dup2\n        /* \"#utility.yul\":11775:11778   */\n      dup6\n        /* \"#utility.yul\":11691:11787   */\n      tag_557\n      jump\t// in\n    tag_556:\n        /* \"#utility.yul\":11684:11787   */\n      swap4\n      pop\n        /* \"#utility.yul\":11813:11816   */\n      dup4\n        /* \"#utility.yul\":11858:11862   */\n      0x20\n        /* \"#utility.yul\":11850:11856   */\n      dup3\n        /* \"#utility.yul\":11846:11863   */\n      mul\n        /* \"#utility.yul\":11841:11844   */\n      dup6\n        /* \"#utility.yul\":11837:11864   */\n      add\n        /* \"#utility.yul\":11888:11954   */\n      tag_558\n        /* \"#utility.yul\":11948:11953   */\n      dup6\n        /* \"#utility.yul\":11888:11954   */\n      tag_559\n      jump\t// in\n    tag_558:\n        /* \"#utility.yul\":11977:11984   */\n      dup1\n        /* \"#utility.yul\":12008:12009   */\n      0x00\n        /* \"#utility.yul\":11993:12389   */\n    tag_560:\n        /* \"#utility.yul\":12018:12024   */\n      dup6\n        /* \"#utility.yul\":12015:12016   */\n      dup2\n        /* \"#utility.yul\":12012:12025   */\n      lt\n        /* \"#utility.yul\":11993:12389   */\n      iszero\n      tag_562\n      jumpi\n        /* \"#utility.yul\":12089:12098   */\n      dup5\n        /* \"#utility.yul\":12083:12087   */\n      dup5\n        /* \"#utility.yul\":12079:12099   */\n      sub\n        /* \"#utility.yul\":12074:12077   */\n      dup10\n        /* \"#utility.yul\":12067:12100   */\n      mstore\n        /* \"#utility.yul\":12140:12146   */\n      dup2\n        /* \"#utility.yul\":12134:12147   */\n      mload\n        /* \"#utility.yul\":12168:12252   */\n      tag_563\n        /* \"#utility.yul\":12247:12251   */\n      dup6\n        /* \"#utility.yul\":12232:12245   */\n      dup3\n        /* \"#utility.yul\":12168:12252   */\n      tag_524\n      jump\t// in\n    tag_563:\n        /* \"#utility.yul\":12160:12252   */\n      swap5\n      pop\n        /* \"#utility.yul\":12275:12345   */\n      tag_564\n        /* \"#utility.yul\":12338:12344   */\n      dup4\n        /* \"#utility.yul\":12275:12345   */\n      tag_565\n      jump\t// in\n    tag_564:\n        /* \"#utility.yul\":12265:12345   */\n      swap3\n      pop\n        /* \"#utility.yul\":12374:12378   */\n      0x20\n        /* \"#utility.yul\":12369:12372   */\n      dup11\n        /* \"#utility.yul\":12365:12379   */\n      add\n        /* \"#utility.yul\":12358:12379   */\n      swap10\n      pop\n        /* \"#utility.yul\":12053:12389   */\n      pop\n        /* \"#utility.yul\":12040:12041   */\n      0x01\n        /* \"#utility.yul\":12037:12038   */\n      dup2\n        /* \"#utility.yul\":12033:12042   */\n      add\n        /* \"#utility.yul\":12028:12042   */\n      swap1\n      pop\n        /* \"#utility.yul\":11993:12389   */\n      jump(tag_560)\n    tag_562:\n        /* \"#utility.yul\":11997:12011   */\n      pop\n        /* \"#utility.yul\":12405:12409   */\n      dup3\n        /* \"#utility.yul\":12398:12409   */\n      swap8\n      pop\n        /* \"#utility.yul\":12425:12428   */\n      dup8\n        /* \"#utility.yul\":12418:12428   */\n      swap6\n      pop\n        /* \"#utility.yul\":11587:12434   */\n      pop\n      pop\n      pop\n      pop\n      pop\n        /* \"#utility.yul\":11443:12434   */\n      swap3\n      swap2\n      pop\n      pop\n      jump\t// out\n        /* \"#utility.yul\":12484:13587   */\n    tag_566:\n        /* \"#utility.yul\":12651:12654   */\n      0x00\n        /* \"#utility.yul\":12680:12758   */\n      tag_568\n        /* \"#utility.yul\":12752:12757   */\n      dup3\n        /* \"#utility.yul\":12680:12758   */\n      tag_569\n      jump\t// in\n    tag_568:\n        /* \"#utility.yul\":12774:12884   */\n      tag_570\n        /* \"#utility.yul\":12877:12883   */\n      dup2\n        /* \"#utility.yul\":12872:12875   */\n      dup6\n        /* \"#utility.yul\":12774:12884   */\n      tag_571\n      jump\t// in\n    tag_570:\n        /* \"#utility.yul\":12767:12884   */\n      swap4\n      pop\n        /* \"#utility.yul\":12910:12913   */\n      dup4\n        /* \"#utility.yul\":12955:12959   */\n      0x20\n        /* \"#utility.yul\":12947:12953   */\n      dup3\n        /* \"#utility.yul\":12943:12960   */\n      mul\n        /* \"#utility.yul\":12938:12941   */\n      dup6\n        /* \"#utility.yul\":12934:12961   */\n      add\n        /* \"#utility.yul\":12985:13065   */\n      tag_572\n        /* \"#utility.yul\":13059:13064   */\n      dup6\n        /* \"#utility.yul\":12985:13065   */\n      tag_573\n      jump\t// in\n    tag_572:\n        /* \"#utility.yul\":13088:13095   */\n      dup1\n        /* \"#utility.yul\":13119:13120   */\n      0x00\n        /* \"#utility.yul\":13104:13542   */\n    tag_574:\n        /* \"#utility.yul\":13129:13135   */\n      dup6\n        /* \"#utility.yul\":13126:13127   */\n      dup2\n        /* \"#utility.yul\":13123:13136   */\n      lt\n        /* \"#utility.yul\":13104:13542   */\n      iszero\n      tag_576\n      jumpi\n        /* \"#utility.yul\":13200:13209   */\n      dup5\n        /* \"#utility.yul\":13194:13198   */\n      dup5\n        /* \"#utility.yul\":13190:13210   */\n      sub\n        /* \"#utility.yul\":13185:13188   */\n      dup10\n        /* \"#utility.yul\":13178:13211   */\n      mstore\n        /* \"#utility.yul\":13251:13257   */\n      dup2\n        /* \"#utility.yul\":13245:13258   */\n      mload\n        /* \"#utility.yul\":13279:13391   */\n      tag_577\n        /* \"#utility.yul\":13386:13390   */\n      dup6\n        /* \"#utility.yul\":13371:13384   */\n      dup3\n        /* \"#utility.yul\":13279:13391   */\n      tag_528\n      jump\t// in\n    tag_577:\n        /* \"#utility.yul\":13271:13391   */\n      swap5\n      pop\n        /* \"#utility.yul\":13414:13498   */\n      tag_578\n        /* \"#utility.yul\":13491:13497   */\n      dup4\n        /* \"#utility.yul\":13414:13498   */\n      tag_579\n      jump\t// in\n    tag_578:\n        /* \"#utility.yul\":13404:13498   */\n      swap3\n      pop\n        /* \"#utility.yul\":13527:13531   */\n      0x20\n        /* \"#utility.yul\":13522:13525   */\n      dup11\n        /* \"#utility.yul\":13518:13532   */\n      add\n        /* \"#utility.yul\":13511:13532   */\n      swap10\n      pop\n        /* \"#utility.yul\":13164:13542   */\n      pop\n        /* \"#utility.yul\":13151:13152   */\n      0x01\n        /* \"#utility.yul\":13148:13149   */\n      dup2\n        /* \"#utility.yul\":13144:13153   */\n      add\n        /* \"#utility.yul\":13139:13153   */\n      swap1\n      pop\n        /* \"#utility.yul\":13104:13542   */\n      jump(tag_574)\n    tag_576:\n        /* \"#utility.yul\":13108:13122   */\n      pop\n        /* \"#utility.yul\":13558:13562   */\n      dup3\n        /* \"#utility.yul\":13551:13562   */\n      swap8\n      pop\n        /* \"#utility.yul\":13578:13581   */\n      dup8\n        /* \"#utility.yul\":13571:13581   */\n      swap6\n      pop\n        /* \"#utility.yul\":12656:13587   */\n      pop\n      pop\n      pop\n      pop\n      pop\n        /* \"#utility.yul\":12484:13587   */\n      swap3\n      swap2\n      pop\n      pop\n      jump\t// out\n        /* \"#utility.yul\":13593:13692   */\n    tag_580:\n        /* \"#utility.yul\":13664:13685   */\n      tag_582\n        /* \"#utility.yul\":13679:13684   */\n      dup2\n        /* \"#utility.yul\":13664:13685   */\n      tag_583\n      jump\t// in\n    tag_582:\n        /* \"#utility.yul\":13659:13662   */\n      dup3\n        /* \"#utility.yul\":13652:13686   */\n      mstore\n        /* \"#utility.yul\":13593:13692   */\n      pop\n      pop\n      jump\t// out\n        /* \"#utility.yul\":13698:14042   */\n    tag_527:\n        /* \"#utility.yul\":13776:13779   */\n      0x00\n        /* \"#utility.yul\":13804:13843   */\n      tag_585\n        /* \"#utility.yul\":13837:13842   */\n      dup3\n        /* \"#utility.yul\":13804:13843   */\n      tag_586\n      jump\t// in\n    tag_585:\n        /* \"#utility.yul\":13859:13920   */\n      tag_587\n        /* \"#utility.yul\":13913:13919   */\n      dup2\n        /* \"#utility.yul\":13908:13911   */\n      dup6\n        /* \"#utility.yul\":13859:13920   */\n      tag_588\n      jump\t// in\n    tag_587:\n        /* \"#utility.yul\":13852:13920   */\n      swap4\n      pop\n        /* \"#utility.yul\":13929:13981   */\n      tag_589\n        /* \"#utility.yul\":13974:13980   */\n      dup2\n        /* \"#utility.yul\":13969:13972   */\n      dup6\n        /* \"#utility.yul\":13962:13966   */\n      0x20\n        /* \"#utility.yul\":13955:13960   */\n      dup7\n        /* \"#utility.yul\":13951:13967   */\n      add\n        /* \"#utility.yul\":13929:13981   */\n      tag_590\n      jump\t// in\n    tag_589:\n        /* \"#utility.yul\":14006:14035   */\n      tag_591\n        /* \"#utility.yul\":14028:14034   */\n      dup2\n        /* \"#utility.yul\":14006:14035   */\n      tag_592\n      jump\t// in\n    tag_591:\n        /* \"#utility.yul\":14001:14004   */\n      dup5\n        /* \"#utility.yul\":13997:14036   */\n      add\n        /* \"#utility.yul\":13990:14036   */\n      swap2\n      pop\n        /* \"#utility.yul\":13780:14042   */\n      pop\n        /* \"#utility.yul\":13698:14042   */\n      swap3\n      swap2\n      pop\n      pop\n      jump\t// out\n        /* \"#utility.yul\":14048:14412   */\n    tag_593:\n        /* \"#utility.yul\":14136:14139   */\n      0x00\n        /* \"#utility.yul\":14164:14203   */\n      tag_595\n        /* \"#utility.yul\":14197:14202   */\n      dup3\n        /* \"#utility.yul\":14164:14203   */\n      tag_586\n      jump\t// in\n    tag_595:\n        /* \"#utility.yul\":14219:14290   */\n      tag_596\n        /* \"#utility.yul\":14283:14289   */\n      dup2\n        /* \"#utility.yul\":14278:14281   */\n      dup6\n        /* \"#utility.yul\":14219:14290   */\n      tag_597\n      jump\t// in\n    tag_596:\n        /* \"#utility.yul\":14212:14290   */\n      swap4\n      pop\n        /* \"#utility.yul\":14299:14351   */\n      tag_598\n        /* \"#utility.yul\":14344:14350   */\n      dup2\n        /* \"#utility.yul\":14339:14342   */\n      dup6\n        /* \"#utility.yul\":14332:14336   */\n      0x20\n        /* \"#utility.yul\":14325:14330   */\n      dup7\n        /* \"#utility.yul\":14321:14337   */\n      add\n        /* \"#utility.yul\":14299:14351   */\n      tag_590\n      jump\t// in\n    tag_598:\n        /* \"#utility.yul\":14376:14405   */\n      tag_599\n        /* \"#utility.yul\":14398:14404   */\n      dup2\n        /* \"#utility.yul\":14376:14405   */\n      tag_592\n      jump\t// in\n    tag_599:\n        /* \"#utility.yul\":14371:14374   */\n      dup5\n        /* \"#utility.yul\":14367:14406   */\n      add\n        /* \"#utility.yul\":14360:14406   */\n      swap2\n      pop\n        /* \"#utility.yul\":14140:14412   */\n      pop\n        /* \"#utility.yul\":14048:14412   */\n      swap3\n      swap2\n      pop\n      pop\n      jump\t// out\n        /* \"#utility.yul\":14418:14795   */\n    tag_600:\n        /* \"#utility.yul\":14524:14527   */\n      0x00\n        /* \"#utility.yul\":14552:14591   */\n      tag_602\n        /* \"#utility.yul\":14585:14590   */\n      dup3\n        /* \"#utility.yul\":14552:14591   */\n      tag_586\n      jump\t// in\n    tag_602:\n        /* \"#utility.yul\":14607:14696   */\n      tag_603\n        /* \"#utility.yul\":14689:14695   */\n      dup2\n        /* \"#utility.yul\":14684:14687   */\n      dup6\n        /* \"#utility.yul\":14607:14696   */\n      tag_604\n      jump\t// in\n    tag_603:\n        /* \"#utility.yul\":14600:14696   */\n      swap4\n      pop\n        /* \"#utility.yul\":14705:14757   */\n      tag_605\n        /* \"#utility.yul\":14750:14756   */\n      dup2\n        /* \"#utility.yul\":14745:14748   */\n      dup6\n        /* \"#utility.yul\":14738:14742   */\n      0x20\n        /* \"#utility.yul\":14731:14736   */\n      dup7\n        /* \"#utility.yul\":14727:14743   */\n      add\n        /* \"#utility.yul\":14705:14757   */\n      tag_590\n      jump\t// in\n    tag_605:\n        /* \"#utility.yul\":14782:14788   */\n      dup1\n        /* \"#utility.yul\":14777:14780   */\n      dup5\n        /* \"#utility.yul\":14773:14789   */\n      add\n        /* \"#utility.yul\":14766:14789   */\n      swap2\n      pop\n        /* \"#utility.yul\":14528:14795   */\n      pop\n        /* \"#utility.yul\":14418:14795   */\n      swap3\n      swap2\n      pop\n      pop\n      jump\t// out\n        /* \"#utility.yul\":14801:15167   */\n    tag_606:\n        /* \"#utility.yul\":14943:14946   */\n      0x00\n        /* \"#utility.yul\":14964:15031   */\n      tag_608\n        /* \"#utility.yul\":15028:15030   */\n      0x22\n        /* \"#utility.yul\":15023:15026   */\n      dup4\n        /* \"#utility.yul\":14964:15031   */\n      tag_597\n      jump\t// in\n    tag_608:\n        /* \"#utility.yul\":14957:15031   */\n      swap2\n      pop\n        /* \"#utility.yul\":15040:15133   */\n      tag_609\n        /* \"#utility.yul\":15129:15132   */\n      dup3\n        /* \"#utility.yul\":15040:15133   */\n      tag_610\n      jump\t// in\n    tag_609:\n        /* \"#utility.yul\":15158:15160   */\n      0x40\n        /* \"#utility.yul\":15153:15156   */\n      dup3\n        /* \"#utility.yul\":15149:15161   */\n      add\n        /* \"#utility.yul\":15142:15161   */\n      swap1\n      pop\n        /* \"#utility.yul\":14801:15167   */\n      swap2\n      swap1\n      pop\n      jump\t// out\n        /* \"#utility.yul\":15173:15539   */\n    tag_611:\n        /* \"#utility.yul\":15315:15318   */\n      0x00\n        /* \"#utility.yul\":15336:15403   */\n      tag_613\n        /* \"#utility.yul\":15400:15402   */\n      0x0b\n        /* \"#utility.yul\":15395:15398   */\n      dup4\n        /* \"#utility.yul\":15336:15403   */\n      tag_597\n      jump\t// in\n    tag_613:\n        /* \"#utility.yul\":15329:15403   */\n      swap2\n      pop\n        /* \"#utility.yul\":15412:15505   */\n      tag_614\n        /* \"#utility.yul\":15501:15504   */\n      dup3\n        /* \"#utility.yul\":15412:15505   */\n      tag_615\n      jump\t// in\n    tag_614:\n        /* \"#utility.yul\":15530:15532   */\n      0x20\n        /* \"#utility.yul\":15525:15528   */\n      dup3\n        /* \"#utility.yul\":15521:15533   */\n      add\n        /* \"#utility.yul\":15514:15533   */\n      swap1\n      pop\n        /* \"#utility.yul\":15173:15539   */\n      swap2\n      swap1\n      pop\n      jump\t// out\n        /* \"#utility.yul\":15545:15910   */\n    tag_616:\n        /* \"#utility.yul\":15687:15690   */\n      0x00\n        /* \"#utility.yul\":15708:15774   */\n      tag_618\n        /* \"#utility.yul\":15772:15773   */\n      0x09\n        /* \"#utility.yul\":15767:15770   */\n      dup4\n        /* \"#utility.yul\":15708:15774   */\n      tag_597\n      jump\t// in\n    tag_618:\n        /* \"#utility.yul\":15701:15774   */\n      swap2\n      pop\n        /* \"#utility.yul\":15783:15876   */\n      tag_619\n        /* \"#utility.yul\":15872:15875   */\n      dup3\n        /* \"#utility.yul\":15783:15876   */\n      tag_620\n      jump\t// in\n    tag_619:\n        /* \"#utility.yul\":15901:15903   */\n      0x20\n        /* \"#utility.yul\":15896:15899   */\n      dup3\n        /* \"#utility.yul\":15892:15904   */\n      add\n        /* \"#utility.yul\":15885:15904   */\n      swap1\n      pop\n        /* \"#utility.yul\":15545:15910   */\n      swap2\n      swap1\n      pop\n      jump\t// out\n        /* \"#utility.yul\":15916:16282   */\n    tag_621:\n        /* \"#utility.yul\":16058:16061   */\n      0x00\n        /* \"#utility.yul\":16079:16146   */\n      tag_623\n        /* \"#utility.yul\":16143:16145   */\n      0x0c\n        /* \"#utility.yul\":16138:16141   */\n      dup4\n        /* \"#utility.yul\":16079:16146   */\n      tag_597\n      jump\t// in\n    tag_623:\n        /* \"#utility.yul\":16072:16146   */\n      swap2\n      pop\n        /* \"#utility.yul\":16155:16248   */\n      tag_624\n        /* \"#utility.yul\":16244:16247   */\n      dup3\n        /* \"#utility.yul\":16155:16248   */\n      tag_625\n      jump\t// in\n    tag_624:\n        /* \"#utility.yul\":16273:16275   */\n      0x20\n        /* \"#utility.yul\":16268:16271   */\n      dup3\n        /* \"#utility.yul\":16264:16276   */\n      add\n        /* \"#utility.yul\":16257:16276   */\n      swap1\n      pop\n        /* \"#utility.yul\":15916:16282   */\n      swap2\n      swap1\n      pop\n      jump\t// out\n        /* \"#utility.yul\":16288:16654   */\n    tag_626:\n        /* \"#utility.yul\":16430:16433   */\n      0x00\n        /* \"#utility.yul\":16451:16518   */\n      tag_628\n        /* \"#utility.yul\":16515:16517   */\n      0x0d\n        /* \"#utility.yul\":16510:16513   */\n      dup4\n        /* \"#utility.yul\":16451:16518   */\n      tag_597\n      jump\t// in\n    tag_628:\n        /* \"#utility.yul\":16444:16518   */\n      swap2\n      pop\n        /* \"#utility.yul\":16527:16620   */\n      tag_629\n        /* \"#utility.yul\":16616:16619   */\n      dup3\n        /* \"#utility.yul\":16527:16620   */\n      tag_630\n      jump\t// in\n    tag_629:\n        /* \"#utility.yul\":16645:16647   */\n      0x20\n        /* \"#utility.yul\":16640:16643   */\n      dup3\n        /* \"#utility.yul\":16636:16648   */\n      add\n        /* \"#utility.yul\":16629:16648   */\n      swap1\n      pop\n        /* \"#utility.yul\":16288:16654   */\n      swap2\n      swap1\n      pop\n      jump\t// out\n        /* \"#utility.yul\":16660:17026   */\n    tag_631:\n        /* \"#utility.yul\":16802:16805   */\n      0x00\n        /* \"#utility.yul\":16823:16890   */\n      tag_633\n        /* \"#utility.yul\":16887:16889   */\n      0x16\n        /* \"#utility.yul\":16882:16885   */\n      dup4\n        /* \"#utility.yul\":16823:16890   */\n      tag_597\n      jump\t// in\n    tag_633:\n        /* \"#utility.yul\":16816:16890   */\n      swap2\n      pop\n        /* \"#utility.yul\":16899:16992   */\n      tag_634\n        /* \"#utility.yul\":16988:16991   */\n      dup3\n        /* \"#utility.yul\":16899:16992   */\n      tag_635\n      jump\t// in\n    tag_634:\n        /* \"#utility.yul\":17017:17019   */\n      0x20\n        /* \"#utility.yul\":17012:17015   */\n      dup3\n        /* \"#utility.yul\":17008:17020   */\n      add\n        /* \"#utility.yul\":17001:17020   */\n      swap1\n      pop\n        /* \"#utility.yul\":16660:17026   */\n      swap2\n      swap1\n      pop\n      jump\t// out\n        /* \"#utility.yul\":17032:17398   */\n    tag_636:\n        /* \"#utility.yul\":17174:17177   */\n      0x00\n        /* \"#utility.yul\":17195:17262   */\n      tag_638\n        /* \"#utility.yul\":17259:17261   */\n      0x0b\n        /* \"#utility.yul\":17254:17257   */\n      dup4\n        /* \"#utility.yul\":17195:17262   */\n      tag_597\n      jump\t// in\n    tag_638:\n        /* \"#utility.yul\":17188:17262   */\n      swap2\n      pop\n        /* \"#utility.yul\":17271:17364   */\n      tag_639\n        /* \"#utility.yul\":17360:17363   */\n      dup3\n        /* \"#utility.yul\":17271:17364   */\n      tag_640\n      jump\t// in\n    tag_639:\n        /* \"#utility.yul\":17389:17391   */\n      0x20\n        /* \"#utility.yul\":17384:17387   */\n      dup3\n        /* \"#utility.yul\":17380:17392   */\n      add\n        /* \"#utility.yul\":17373:17392   */\n      swap1\n      pop\n        /* \"#utility.yul\":17032:17398   */\n      swap2\n      swap1\n      pop\n      jump\t// out\n        /* \"#utility.yul\":17444:18472   */\n    tag_531:\n        /* \"#utility.yul\":17551:17554   */\n      0x00\n        /* \"#utility.yul\":17587:17591   */\n      0x80\n        /* \"#utility.yul\":17582:17585   */\n      dup4\n        /* \"#utility.yul\":17578:17592   */\n      add\n        /* \"#utility.yul\":17678:17682   */\n      0x00\n        /* \"#utility.yul\":17671:17676   */\n      dup4\n        /* \"#utility.yul\":17667:17683   */\n      add\n        /* \"#utility.yul\":17661:17684   */\n      mload\n        /* \"#utility.yul\":17697:17760   */\n      tag_642\n        /* \"#utility.yul\":17754:17758   */\n      0x00\n        /* \"#utility.yul\":17749:17752   */\n      dup7\n        /* \"#utility.yul\":17745:17759   */\n      add\n        /* \"#utility.yul\":17731:17743   */\n      dup3\n        /* \"#utility.yul\":17697:17760   */\n      tag_523\n      jump\t// in\n    tag_642:\n        /* \"#utility.yul\":17602:17770   */\n      pop\n        /* \"#utility.yul\":17859:17863   */\n      0x20\n        /* \"#utility.yul\":17852:17857   */\n      dup4\n        /* \"#utility.yul\":17848:17864   */\n      add\n        /* \"#utility.yul\":17842:17865   */\n      mload\n        /* \"#utility.yul\":17912:17915   */\n      dup5\n        /* \"#utility.yul\":17906:17910   */\n      dup3\n        /* \"#utility.yul\":17902:17916   */\n      sub\n        /* \"#utility.yul\":17895:17899   */\n      0x20\n        /* \"#utility.yul\":17890:17893   */\n      dup7\n        /* \"#utility.yul\":17886:17900   */\n      add\n        /* \"#utility.yul\":17879:17917   */\n      mstore\n        /* \"#utility.yul\":17938:18011   */\n      tag_643\n        /* \"#utility.yul\":18006:18010   */\n      dup3\n        /* \"#utility.yul\":17992:18004   */\n      dup3\n        /* \"#utility.yul\":17938:18011   */\n      tag_527\n      jump\t// in\n    tag_643:\n        /* \"#utility.yul\":17930:18011   */\n      swap2\n      pop\n        /* \"#utility.yul\":17780:18022   */\n      pop\n        /* \"#utility.yul\":18111:18115   */\n      0x40\n        /* \"#utility.yul\":18104:18109   */\n      dup4\n        /* \"#utility.yul\":18100:18116   */\n      add\n        /* \"#utility.yul\":18094:18117   */\n      mload\n        /* \"#utility.yul\":18164:18167   */\n      dup5\n        /* \"#utility.yul\":18158:18162   */\n      dup3\n        /* \"#utility.yul\":18154:18168   */\n      sub\n        /* \"#utility.yul\":18147:18151   */\n      0x40\n        /* \"#utility.yul\":18142:18145   */\n      dup7\n        /* \"#utility.yul\":18138:18152   */\n      add\n        /* \"#utility.yul\":18131:18169   */\n      mstore\n        /* \"#utility.yul\":18190:18263   */\n      tag_644\n        /* \"#utility.yul\":18258:18262   */\n      dup3\n        /* \"#utility.yul\":18244:18256   */\n      dup3\n        /* \"#utility.yul\":18190:18263   */\n      tag_527\n      jump\t// in\n    tag_644:\n        /* \"#utility.yul\":18182:18263   */\n      swap2\n      pop\n        /* \"#utility.yul\":18032:18274   */\n      pop\n        /* \"#utility.yul\":18359:18363   */\n      0x60\n        /* \"#utility.yul\":18352:18357   */\n      dup4\n        /* \"#utility.yul\":18348:18364   */\n      add\n        /* \"#utility.yul\":18342:18365   */\n      mload\n        /* \"#utility.yul\":18378:18435   */\n      tag_645\n        /* \"#utility.yul\":18429:18433   */\n      0x60\n        /* \"#utility.yul\":18424:18427   */\n      dup7\n        /* \"#utility.yul\":18420:18434   */\n      add\n        /* \"#utility.yul\":18406:18418   */\n      dup3\n        /* \"#utility.yul\":18378:18435   */\n      tag_580\n      jump\t// in\n    tag_645:\n        /* \"#utility.yul\":18284:18445   */\n      pop\n        /* \"#utility.yul\":18462:18466   */\n      dup1\n        /* \"#utility.yul\":18455:18466   */\n      swap2\n      pop\n        /* \"#utility.yul\":17556:18472   */\n      pop\n        /* \"#utility.yul\":17444:18472   */\n      swap3\n      swap2\n      pop\n      pop\n      jump\t// out\n        /* \"#utility.yul\":18478:18596   */\n    tag_646:\n        /* \"#utility.yul\":18565:18589   */\n      tag_648\n        /* \"#utility.yul\":18583:18588   */\n      dup2\n        /* \"#utility.yul\":18565:18589   */\n      tag_649\n      jump\t// in\n    tag_648:\n        /* \"#utility.yul\":18560:18563   */\n      dup3\n        /* \"#utility.yul\":18553:18590   */\n      mstore\n        /* \"#utility.yul\":18478:18596   */\n      pop\n      pop\n      jump\t// out\n        /* \"#utility.yul\":18602:18877   */\n    tag_144:\n        /* \"#utility.yul\":18734:18737   */\n      0x00\n        /* \"#utility.yul\":18756:18851   */\n      tag_651\n        /* \"#utility.yul\":18847:18850   */\n      dup3\n        /* \"#utility.yul\":18838:18844   */\n      dup5\n        /* \"#utility.yul\":18756:18851   */\n      tag_600\n      jump\t// in\n    tag_651:\n        /* \"#utility.yul\":18749:18851   */\n      swap2\n      pop\n        /* \"#utility.yul\":18868:18871   */\n      dup2\n        /* \"#utility.yul\":18861:18871   */\n      swap1\n      pop\n        /* \"#utility.yul\":18602:18877   */\n      swap3\n      swap2\n      pop\n      pop\n      jump\t// out\n        /* \"#utility.yul\":18883:19306   */\n    tag_40:\n        /* \"#utility.yul\":19024:19028   */\n      0x00\n        /* \"#utility.yul\":19062:19064   */\n      0x40\n        /* \"#utility.yul\":19051:19060   */\n      dup3\n        /* \"#utility.yul\":19047:19065   */\n      add\n        /* \"#utility.yul\":19039:19065   */\n      swap1\n      pop\n        /* \"#utility.yul\":19075:19146   */\n      tag_653\n        /* \"#utility.yul\":19143:19144   */\n      0x00\n        /* \"#utility.yul\":19132:19141   */\n      dup4\n        /* \"#utility.yul\":19128:19145   */\n      add\n        /* \"#utility.yul\":19119:19125   */\n      dup6\n        /* \"#utility.yul\":19075:19146   */\n      tag_535\n      jump\t// in\n    tag_653:\n        /* \"#utility.yul\":19193:19202   */\n      dup2\n        /* \"#utility.yul\":19187:19191   */\n      dup2\n        /* \"#utility.yul\":19183:19203   */\n      sub\n        /* \"#utility.yul\":19178:19180   */\n      0x20\n        /* \"#utility.yul\":19167:19176   */\n      dup4\n        /* \"#utility.yul\":19163:19181   */\n      add\n        /* \"#utility.yul\":19156:19204   */\n      mstore\n        /* \"#utility.yul\":19221:19299   */\n      tag_654\n        /* \"#utility.yul\":19294:19298   */\n      dup2\n        /* \"#utility.yul\":19285:19291   */\n      dup5\n        /* \"#utility.yul\":19221:19299   */\n      tag_593\n      jump\t// in\n    tag_654:\n        /* \"#utility.yul\":19213:19299   */\n      swap1\n      pop\n        /* \"#utility.yul\":18883:19306   */\n      swap4\n      swap3\n      pop\n      pop\n      pop\n      jump\t// out\n        /* \"#utility.yul\":19312:20545   */\n    tag_77:\n        /* \"#utility.yul\":19727:19731   */\n      0x00\n        /* \"#utility.yul\":19765:19768   */\n      0x80\n        /* \"#utility.yul\":19754:19763   */\n      dup3\n        /* \"#utility.yul\":19750:19769   */\n      add\n        /* \"#utility.yul\":19742:19769   */\n      swap1\n      pop\n        /* \"#utility.yul\":19815:19824   */\n      dup2\n        /* \"#utility.yul\":19809:19813   */\n      dup2\n        /* \"#utility.yul\":19805:19825   */\n      sub\n        /* \"#utility.yul\":19801:19802   */\n      0x00\n        /* \"#utility.yul\":19790:19799   */\n      dup4\n        /* \"#utility.yul\":19786:19803   */\n      add\n        /* \"#utility.yul\":19779:19826   */\n      mstore\n        /* \"#utility.yul\":19843:19921   */\n      tag_656\n        /* \"#utility.yul\":19916:19920   */\n      dup2\n        /* \"#utility.yul\":19907:19913   */\n      dup8\n        /* \"#utility.yul\":19843:19921   */\n      tag_593\n      jump\t// in\n    tag_656:\n        /* \"#utility.yul\":19835:19921   */\n      swap1\n      pop\n        /* \"#utility.yul\":19968:19977   */\n      dup2\n        /* \"#utility.yul\":19962:19966   */\n      dup2\n        /* \"#utility.yul\":19958:19978   */\n      sub\n        /* \"#utility.yul\":19953:19955   */\n      0x20\n        /* \"#utility.yul\":19942:19951   */\n      dup4\n        /* \"#utility.yul\":19938:19956   */\n      add\n        /* \"#utility.yul\":19931:19979   */\n      mstore\n        /* \"#utility.yul\":19996:20152   */\n      tag_657\n        /* \"#utility.yul\":20147:20151   */\n      dup2\n        /* \"#utility.yul\":20138:20144   */\n      dup7\n        /* \"#utility.yul\":19996:20152   */\n      tag_566\n      jump\t// in\n    tag_657:\n        /* \"#utility.yul\":19988:20152   */\n      swap1\n      pop\n        /* \"#utility.yul\":20199:20208   */\n      dup2\n        /* \"#utility.yul\":20193:20197   */\n      dup2\n        /* \"#utility.yul\":20189:20209   */\n      sub\n        /* \"#utility.yul\":20184:20186   */\n      0x40\n        /* \"#utility.yul\":20173:20182   */\n      dup4\n        /* \"#utility.yul\":20169:20187   */\n      add\n        /* \"#utility.yul\":20162:20210   */\n      mstore\n        /* \"#utility.yul\":20227:20355   */\n      tag_658\n        /* \"#utility.yul\":20350:20354   */\n      dup2\n        /* \"#utility.yul\":20341:20347   */\n      dup6\n        /* \"#utility.yul\":20227:20355   */\n      tag_552\n      jump\t// in\n    tag_658:\n        /* \"#utility.yul\":20219:20355   */\n      swap1\n      pop\n        /* \"#utility.yul\":20402:20411   */\n      dup2\n        /* \"#utility.yul\":20396:20400   */\n      dup2\n        /* \"#utility.yul\":20392:20412   */\n      sub\n        /* \"#utility.yul\":20387:20389   */\n      0x60\n        /* \"#utility.yul\":20376:20385   */\n      dup4\n        /* \"#utility.yul\":20372:20390   */\n      add\n        /* \"#utility.yul\":20365:20413   */\n      mstore\n        /* \"#utility.yul\":20430:20538   */\n      tag_659\n        /* \"#utility.yul\":20533:20537   */\n      dup2\n        /* \"#utility.yul\":20524:20530   */\n      dup5\n        /* \"#utility.yul\":20430:20538   */\n      tag_538\n      jump\t// in\n    tag_659:\n        /* \"#utility.yul\":20422:20538   */\n      swap1\n      pop\n        /* \"#utility.yul\":19312:20545   */\n      swap6\n      swap5\n      pop\n      pop\n      pop\n      pop\n      pop\n      jump\t// out\n        /* \"#utility.yul\":20551:21770   */\n    tag_26:\n        /* \"#utility.yul\":20906:20910   */\n      0x00\n        /* \"#utility.yul\":20944:20947   */\n      0xa0\n        /* \"#utility.yul\":20933:20942   */\n      dup3\n        /* \"#utility.yul\":20929:20948   */\n      add\n        /* \"#utility.yul\":20921:20948   */\n      swap1\n      pop\n        /* \"#utility.yul\":20994:21003   */\n      dup2\n        /* \"#utility.yul\":20988:20992   */\n      dup2\n        /* \"#utility.yul\":20984:21004   */\n      sub\n        /* \"#utility.yul\":20980:20981   */\n      0x00\n        /* \"#utility.yul\":20969:20978   */\n      dup4\n        /* \"#utility.yul\":20965:20982   */\n      add\n        /* \"#utility.yul\":20958:21005   */\n      mstore\n        /* \"#utility.yul\":21022:21100   */\n      tag_661\n        /* \"#utility.yul\":21095:21099   */\n      dup2\n        /* \"#utility.yul\":21086:21092   */\n      dup9\n        /* \"#utility.yul\":21022:21100   */\n      tag_593\n      jump\t// in\n    tag_661:\n        /* \"#utility.yul\":21014:21100   */\n      swap1\n      pop\n        /* \"#utility.yul\":21147:21156   */\n      dup2\n        /* \"#utility.yul\":21141:21145   */\n      dup2\n        /* \"#utility.yul\":21137:21157   */\n      sub\n        /* \"#utility.yul\":21132:21134   */\n      0x20\n        /* \"#utility.yul\":21121:21130   */\n      dup4\n        /* \"#utility.yul\":21117:21135   */\n      add\n        /* \"#utility.yul\":21110:21158   */\n      mstore\n        /* \"#utility.yul\":21175:21253   */\n      tag_662\n        /* \"#utility.yul\":21248:21252   */\n      dup2\n        /* \"#utility.yul\":21239:21245   */\n      dup8\n        /* \"#utility.yul\":21175:21253   */\n      tag_593\n      jump\t// in\n    tag_662:\n        /* \"#utility.yul\":21167:21253   */\n      swap1\n      pop\n        /* \"#utility.yul\":21300:21309   */\n      dup2\n        /* \"#utility.yul\":21294:21298   */\n      dup2\n        /* \"#utility.yul\":21290:21310   */\n      sub\n        /* \"#utility.yul\":21285:21287   */\n      0x40\n        /* \"#utility.yul\":21274:21283   */\n      dup4\n        /* \"#utility.yul\":21270:21288   */\n      add\n        /* \"#utility.yul\":21263:21311   */\n      mstore\n        /* \"#utility.yul\":21328:21406   */\n      tag_663\n        /* \"#utility.yul\":21401:21405   */\n      dup2\n        /* \"#utility.yul\":21392:21398   */\n      dup7\n        /* \"#utility.yul\":21328:21406   */\n      tag_593\n      jump\t// in\n    tag_663:\n        /* \"#utility.yul\":21320:21406   */\n      swap1\n      pop\n        /* \"#utility.yul\":21453:21462   */\n      dup2\n        /* \"#utility.yul\":21447:21451   */\n      dup2\n        /* \"#utility.yul\":21443:21463   */\n      sub\n        /* \"#utility.yul\":21438:21440   */\n      0x60\n        /* \"#utility.yul\":21427:21436   */\n      dup4\n        /* \"#utility.yul\":21423:21441   */\n      add\n        /* \"#utility.yul\":21416:21464   */\n      mstore\n        /* \"#utility.yul\":21481:21559   */\n      tag_664\n        /* \"#utility.yul\":21554:21558   */\n      dup2\n        /* \"#utility.yul\":21545:21551   */\n      dup6\n        /* \"#utility.yul\":21481:21559   */\n      tag_593\n      jump\t// in\n    tag_664:\n        /* \"#utility.yul\":21473:21559   */\n      swap1\n      pop\n        /* \"#utility.yul\":21607:21616   */\n      dup2\n        /* \"#utility.yul\":21601:21605   */\n      dup2\n        /* \"#utility.yul\":21597:21617   */\n      sub\n        /* \"#utility.yul\":21591:21594   */\n      0x80\n        /* \"#utility.yul\":21580:21589   */\n      dup4\n        /* \"#utility.yul\":21576:21595   */\n      add\n        /* \"#utility.yul\":21569:21618   */\n      mstore\n        /* \"#utility.yul\":21635:21763   */\n      tag_665\n        /* \"#utility.yul\":21758:21762   */\n      dup2\n        /* \"#utility.yul\":21749:21755   */\n      dup5\n        /* \"#utility.yul\":21635:21763   */\n      tag_552\n      jump\t// in\n    tag_665:\n        /* \"#utility.yul\":21627:21763   */\n      swap1\n      pop\n        /* \"#utility.yul\":20551:21770   */\n      swap7\n      swap6\n      pop\n      pop\n      pop\n      pop\n      pop\n      pop\n      jump\t// out\n        /* \"#utility.yul\":21776:22702   */\n    tag_65:\n        /* \"#utility.yul\":22063:22067   */\n      0x00\n        /* \"#utility.yul\":22101:22104   */\n      0x80\n        /* \"#utility.yul\":22090:22099   */\n      dup3\n        /* \"#utility.yul\":22086:22105   */\n      add\n        /* \"#utility.yul\":22078:22105   */\n      swap1\n      pop\n        /* \"#utility.yul\":22151:22160   */\n      dup2\n        /* \"#utility.yul\":22145:22149   */\n      dup2\n        /* \"#utility.yul\":22141:22161   */\n      sub\n        /* \"#utility.yul\":22137:22138   */\n      0x00\n        /* \"#utility.yul\":22126:22135   */\n      dup4\n        /* \"#utility.yul\":22122:22139   */\n      add\n        /* \"#utility.yul\":22115:22162   */\n      mstore\n        /* \"#utility.yul\":22179:22257   */\n      tag_667\n        /* \"#utility.yul\":22252:22256   */\n      dup2\n        /* \"#utility.yul\":22243:22249   */\n      dup8\n        /* \"#utility.yul\":22179:22257   */\n      tag_593\n      jump\t// in\n    tag_667:\n        /* \"#utility.yul\":22171:22257   */\n      swap1\n      pop\n        /* \"#utility.yul\":22304:22313   */\n      dup2\n        /* \"#utility.yul\":22298:22302   */\n      dup2\n        /* \"#utility.yul\":22294:22314   */\n      sub\n        /* \"#utility.yul\":22289:22291   */\n      0x20\n        /* \"#utility.yul\":22278:22287   */\n      dup4\n        /* \"#utility.yul\":22274:22292   */\n      add\n        /* \"#utility.yul\":22267:22315   */\n      mstore\n        /* \"#utility.yul\":22332:22410   */\n      tag_668\n        /* \"#utility.yul\":22405:22409   */\n      dup2\n        /* \"#utility.yul\":22396:22402   */\n      dup7\n        /* \"#utility.yul\":22332:22410   */\n      tag_593\n      jump\t// in\n    tag_668:\n        /* \"#utility.yul\":22324:22410   */\n      swap1\n      pop\n        /* \"#utility.yul\":22420:22492   */\n      tag_669\n        /* \"#utility.yul\":22488:22490   */\n      0x40\n        /* \"#utility.yul\":22477:22486   */\n      dup4\n        /* \"#utility.yul\":22473:22491   */\n      add\n        /* \"#utility.yul\":22464:22470   */\n      dup6\n        /* \"#utility.yul\":22420:22492   */\n      tag_646\n      jump\t// in\n    tag_669:\n        /* \"#utility.yul\":22539:22548   */\n      dup2\n        /* \"#utility.yul\":22533:22537   */\n      dup2\n        /* \"#utility.yul\":22529:22549   */\n      sub\n        /* \"#utility.yul\":22524:22526   */\n      0x60\n        /* \"#utility.yul\":22513:22522   */\n      dup4\n        /* \"#utility.yul\":22509:22527   */\n      add\n        /* \"#utility.yul\":22502:22550   */\n      mstore\n        /* \"#utility.yul\":22567:22695   */\n      tag_670\n        /* \"#utility.yul\":22690:22694   */\n      dup2\n        /* \"#utility.yul\":22681:22687   */\n      dup5\n        /* \"#utility.yul\":22567:22695   */\n      tag_552\n      jump\t// in\n    tag_670:\n        /* \"#utility.yul\":22559:22695   */\n      swap1\n      pop\n        /* \"#utility.yul\":21776:22702   */\n      swap6\n      swap5\n      pop\n      pop\n      pop\n      pop\n      pop\n      jump\t// out\n        /* \"#utility.yul\":22708:23127   */\n    tag_367:\n        /* \"#utility.yul\":22874:22878   */\n      0x00\n        /* \"#utility.yul\":22912:22914   */\n      0x20\n        /* \"#utility.yul\":22901:22910   */\n      dup3\n        /* \"#utility.yul\":22897:22915   */\n      add\n        /* \"#utility.yul\":22889:22915   */\n      swap1\n      pop\n        /* \"#utility.yul\":22961:22970   */\n      dup2\n        /* \"#utility.yul\":22955:22959   */\n      dup2\n        /* \"#utility.yul\":22951:22971   */\n      sub\n        /* \"#utility.yul\":22947:22948   */\n      0x00\n        /* \"#utility.yul\":22936:22945   */\n      dup4\n        /* \"#utility.yul\":22932:22949   */\n      add\n        /* \"#utility.yul\":22925:22972   */\n      mstore\n        /* \"#utility.yul\":22989:23120   */\n      tag_672\n        /* \"#utility.yul\":23115:23119   */\n      dup2\n        /* \"#utility.yul\":22989:23120   */\n      tag_606\n      jump\t// in\n    tag_672:\n        /* \"#utility.yul\":22981:23120   */\n      swap1\n      pop\n        /* \"#utility.yul\":22708:23127   */\n      swap2\n      swap1\n      pop\n      jump\t// out\n        /* \"#utility.yul\":23133:23552   */\n    tag_246:\n        /* \"#utility.yul\":23299:23303   */\n      0x00\n        /* \"#utility.yul\":23337:23339   */\n      0x20\n        /* \"#utility.yul\":23326:23335   */\n      dup3\n        /* \"#utility.yul\":23322:23340   */\n      add\n        /* \"#utility.yul\":23314:23340   */\n      swap1\n      pop\n        /* \"#utility.yul\":23386:23395   */\n      dup2\n        /* \"#utility.yul\":23380:23384   */\n      dup2\n        /* \"#utility.yul\":23376:23396   */\n      sub\n        /* \"#utility.yul\":23372:23373   */\n      0x00\n        /* \"#utility.yul\":23361:23370   */\n      dup4\n        /* \"#utility.yul\":23357:23374   */\n      add\n        /* \"#utility.yul\":23350:23397   */\n      mstore\n        /* \"#utility.yul\":23414:23545   */\n      tag_674\n        /* \"#utility.yul\":23540:23544   */\n      dup2\n        /* \"#utility.yul\":23414:23545   */\n      tag_611\n      jump\t// in\n    tag_674:\n        /* \"#utility.yul\":23406:23545   */\n      swap1\n      pop\n        /* \"#utility.yul\":23133:23552   */\n      swap2\n      swap1\n      pop\n      jump\t// out\n        /* \"#utility.yul\":23558:23977   */\n    tag_88:\n        /* \"#utility.yul\":23724:23728   */\n      0x00\n        /* \"#utility.yul\":23762:23764   */\n      0x20\n        /* \"#utility.yul\":23751:23760   */\n      dup3\n        /* \"#utility.yul\":23747:23765   */\n      add\n        /* \"#utility.yul\":23739:23765   */\n      swap1\n      pop\n        /* \"#utility.yul\":23811:23820   */\n      dup2\n        /* \"#utility.yul\":23805:23809   */\n      dup2\n        /* \"#utility.yul\":23801:23821   */\n      sub\n        /* \"#utility.yul\":23797:23798   */\n      0x00\n        /* \"#utility.yul\":23786:23795   */\n      dup4\n        /* \"#utility.yul\":23782:23799   */\n      add\n        /* \"#utility.yul\":23775:23822   */\n      mstore\n        /* \"#utility.yul\":23839:23970   */\n      tag_676\n        /* \"#utility.yul\":23965:23969   */\n      dup2\n        /* \"#utility.yul\":23839:23970   */\n      tag_616\n      jump\t// in\n    tag_676:\n        /* \"#utility.yul\":23831:23970   */\n      swap1\n      pop\n        /* \"#utility.yul\":23558:23977   */\n      swap2\n      swap1\n      pop\n      jump\t// out\n        /* \"#utility.yul\":23983:24402   */\n    tag_138:\n        /* \"#utility.yul\":24149:24153   */\n      0x00\n        /* \"#utility.yul\":24187:24189   */\n      0x20\n        /* \"#utility.yul\":24176:24185   */\n      dup3\n        /* \"#utility.yul\":24172:24190   */\n      add\n        /* \"#utility.yul\":24164:24190   */\n      swap1\n      pop\n        /* \"#utility.yul\":24236:24245   */\n      dup2\n        /* \"#utility.yul\":24230:24234   */\n      dup2\n        /* \"#utility.yul\":24226:24246   */\n      sub\n        /* \"#utility.yul\":24222:24223   */\n      0x00\n        /* \"#utility.yul\":24211:24220   */\n      dup4\n        /* \"#utility.yul\":24207:24224   */\n      add\n        /* \"#utility.yul\":24200:24247   */\n      mstore\n        /* \"#utility.yul\":24264:24395   */\n      tag_678\n        /* \"#utility.yul\":24390:24394   */\n      dup2\n        /* \"#utility.yul\":24264:24395   */\n      tag_621\n      jump\t// in\n    tag_678:\n        /* \"#utility.yul\":24256:24395   */\n      swap1\n      pop\n        /* \"#utility.yul\":23983:24402   */\n      swap2\n      swap1\n      pop\n      jump\t// out\n        /* \"#utility.yul\":24408:24827   */\n    tag_122:\n        /* \"#utility.yul\":24574:24578   */\n      0x00\n        /* \"#utility.yul\":24612:24614   */\n      0x20\n        /* \"#utility.yul\":24601:24610   */\n      dup3\n        /* \"#utility.yul\":24597:24615   */\n      add\n        /* \"#utility.yul\":24589:24615   */\n      swap1\n      pop\n        /* \"#utility.yul\":24661:24670   */\n      dup2\n        /* \"#utility.yul\":24655:24659   */\n      dup2\n        /* \"#utility.yul\":24651:24671   */\n      sub\n        /* \"#utility.yul\":24647:24648   */\n      0x00\n        /* \"#utility.yul\":24636:24645   */\n      dup4\n        /* \"#utility.yul\":24632:24649   */\n      add\n        /* \"#utility.yul\":24625:24672   */\n      mstore\n        /* \"#utility.yul\":24689:24820   */\n      tag_680\n        /* \"#utility.yul\":24815:24819   */\n      dup2\n        /* \"#utility.yul\":24689:24820   */\n      tag_626\n      jump\t// in\n    tag_680:\n        /* \"#utility.yul\":24681:24820   */\n      swap1\n      pop\n        /* \"#utility.yul\":24408:24827   */\n      swap2\n      swap1\n      pop\n      jump\t// out\n        /* \"#utility.yul\":24833:25252   */\n    tag_363:\n        /* \"#utility.yul\":24999:25003   */\n      0x00\n        /* \"#utility.yul\":25037:25039   */\n      0x20\n        /* \"#utility.yul\":25026:25035   */\n      dup3\n        /* \"#utility.yul\":25022:25040   */\n      add\n        /* \"#utility.yul\":25014:25040   */\n      swap1\n      pop\n        /* \"#utility.yul\":25086:25095   */\n      dup2\n        /* \"#utility.yul\":25080:25084   */\n      dup2\n        /* \"#utility.yul\":25076:25096   */\n      sub\n        /* \"#utility.yul\":25072:25073   */\n      0x00\n        /* \"#utility.yul\":25061:25070   */\n      dup4\n        /* \"#utility.yul\":25057:25074   */\n      add\n        /* \"#utility.yul\":25050:25097   */\n      mstore\n        /* \"#utility.yul\":25114:25245   */\n      tag_682\n        /* \"#utility.yul\":25240:25244   */\n      dup2\n        /* \"#utility.yul\":25114:25245   */\n      tag_631\n      jump\t// in\n    tag_682:\n        /* \"#utility.yul\":25106:25245   */\n      swap1\n      pop\n        /* \"#utility.yul\":24833:25252   */\n      swap2\n      swap1\n      pop\n      jump\t// out\n        /* \"#utility.yul\":25258:25677   */\n    tag_150:\n        /* \"#utility.yul\":25424:25428   */\n      0x00\n        /* \"#utility.yul\":25462:25464   */\n      0x20\n        /* \"#utility.yul\":25451:25460   */\n      dup3\n        /* \"#utility.yul\":25447:25465   */\n      add\n        /* \"#utility.yul\":25439:25465   */\n      swap1\n      pop\n        /* \"#utility.yul\":25511:25520   */\n      dup2\n        /* \"#utility.yul\":25505:25509   */\n      dup2\n        /* \"#utility.yul\":25501:25521   */\n      sub\n        /* \"#utility.yul\":25497:25498   */\n      0x00\n        /* \"#utility.yul\":25486:25495   */\n      dup4\n        /* \"#utility.yul\":25482:25499   */\n      add\n        /* \"#utility.yul\":25475:25522   */\n      mstore\n        /* \"#utility.yul\":25539:25670   */\n      tag_684\n        /* \"#utility.yul\":25665:25669   */\n      dup2\n        /* \"#utility.yul\":25539:25670   */\n      tag_636\n      jump\t// in\n    tag_684:\n        /* \"#utility.yul\":25531:25670   */\n      swap1\n      pop\n        /* \"#utility.yul\":25258:25677   */\n      swap2\n      swap1\n      pop\n      jump\t// out\n        /* \"#utility.yul\":25683:25812   */\n    tag_407:\n        /* \"#utility.yul\":25717:25723   */\n      0x00\n        /* \"#utility.yul\":25744:25764   */\n      tag_686\n      tag_687\n      jump\t// in\n    tag_686:\n        /* \"#utility.yul\":25734:25764   */\n      swap1\n      pop\n        /* \"#utility.yul\":25773:25806   */\n      tag_688\n        /* \"#utility.yul\":25801:25805   */\n      dup3\n        /* \"#utility.yul\":25793:25799   */\n      dup3\n        /* \"#utility.yul\":25773:25806   */\n      tag_689\n      jump\t// in\n    tag_688:\n        /* \"#utility.yul\":25683:25812   */\n      swap2\n      swap1\n      pop\n      jump\t// out\n        /* \"#utility.yul\":25818:25893   */\n    tag_687:\n        /* \"#utility.yul\":25851:25857   */\n      0x00\n        /* \"#utility.yul\":25884:25886   */\n      0x40\n        /* \"#utility.yul\":25878:25887   */\n      mload\n        /* \"#utility.yul\":25868:25887   */\n      swap1\n      pop\n        /* \"#utility.yul\":25818:25893   */\n      swap1\n      jump\t// out\n        /* \"#utility.yul\":25899:26207   */\n    tag_406:\n        /* \"#utility.yul\":25961:25965   */\n      0x00\n        /* \"#utility.yul\":26051:26069   */\n      0xffffffffffffffff\n        /* \"#utility.yul\":26043:26049   */\n      dup3\n        /* \"#utility.yul\":26040:26070   */\n      gt\n        /* \"#utility.yul\":26037:26093   */\n      iszero\n      tag_692\n      jumpi\n        /* \"#utility.yul\":26073:26091   */\n      tag_693\n      tag_694\n      jump\t// in\n    tag_693:\n        /* \"#utility.yul\":26037:26093   */\n    tag_692:\n        /* \"#utility.yul\":26111:26140   */\n      tag_695\n        /* \"#utility.yul\":26133:26139   */\n      dup3\n        /* \"#utility.yul\":26111:26140   */\n      tag_592\n      jump\t// in\n    tag_695:\n        /* \"#utility.yul\":26103:26140   */\n      swap1\n      pop\n        /* \"#utility.yul\":26195:26199   */\n      0x20\n        /* \"#utility.yul\":26189:26193   */\n      dup2\n        /* \"#utility.yul\":26185:26200   */\n      add\n        /* \"#utility.yul\":26177:26200   */\n      swap1\n      pop\n        /* \"#utility.yul\":25899:26207   */\n      swap2\n      swap1\n      pop\n      jump\t// out\n        /* \"#utility.yul\":26213:26345   */\n    tag_545:\n        /* \"#utility.yul\":26280:26284   */\n      0x00\n        /* \"#utility.yul\":26303:26306   */\n      dup2\n        /* \"#utility.yul\":26295:26306   */\n      swap1\n      pop\n        /* \"#utility.yul\":26333:26337   */\n      0x20\n        /* \"#utility.yul\":26328:26331   */\n      dup3\n        /* \"#utility.yul\":26324:26338   */\n      add\n        /* \"#utility.yul\":26316:26338   */\n      swap1\n      pop\n        /* \"#utility.yul\":26213:26345   */\n      swap2\n      swap1\n      pop\n      jump\t// out\n        /* \"#utility.yul\":26351:26493   */\n    tag_559:\n        /* \"#utility.yul\":26428:26432   */\n      0x00\n        /* \"#utility.yul\":26451:26454   */\n      dup2\n        /* \"#utility.yul\":26443:26454   */\n      swap1\n      pop\n        /* \"#utility.yul\":26481:26485   */\n      0x20\n        /* \"#utility.yul\":26476:26479   */\n      dup3\n        /* \"#utility.yul\":26472:26486   */\n      add\n        /* \"#utility.yul\":26464:26486   */\n      swap1\n      pop\n        /* \"#utility.yul\":26351:26493   */\n      swap2\n      swap1\n      pop\n      jump\t// out\n        /* \"#utility.yul\":26499:26655   */\n    tag_573:\n        /* \"#utility.yul\":26590:26594   */\n      0x00\n        /* \"#utility.yul\":26613:26616   */\n      dup2\n        /* \"#utility.yul\":26605:26616   */\n      swap1\n      pop\n        /* \"#utility.yul\":26643:26647   */\n      0x20\n        /* \"#utility.yul\":26638:26641   */\n      dup3\n        /* \"#utility.yul\":26634:26648   */\n      add\n        /* \"#utility.yul\":26626:26648   */\n      swap1\n      pop\n        /* \"#utility.yul\":26499:26655   */\n      swap2\n      swap1\n      pop\n      jump\t// out\n        /* \"#utility.yul\":26661:26775   */\n    tag_541:\n        /* \"#utility.yul\":26728:26734   */\n      0x00\n        /* \"#utility.yul\":26762:26767   */\n      dup2\n        /* \"#utility.yul\":26756:26768   */\n      mload\n        /* \"#utility.yul\":26746:26768   */\n      swap1\n      pop\n        /* \"#utility.yul\":26661:26775   */\n      swap2\n      swap1\n      pop\n      jump\t// out\n        /* \"#utility.yul\":26781:26905   */\n    tag_555:\n        /* \"#utility.yul\":26858:26864   */\n      0x00\n        /* \"#utility.yul\":26892:26897   */\n      dup2\n        /* \"#utility.yul\":26886:26898   */\n      mload\n        /* \"#utility.yul\":26876:26898   */\n      swap1\n      pop\n        /* \"#utility.yul\":26781:26905   */\n      swap2\n      swap1\n      pop\n      jump\t// out\n        /* \"#utility.yul\":26911:27049   */\n    tag_569:\n        /* \"#utility.yul\":27002:27008   */\n      0x00\n        /* \"#utility.yul\":27036:27041   */\n      dup2\n        /* \"#utility.yul\":27030:27042   */\n      mload\n        /* \"#utility.yul\":27020:27042   */\n      swap1\n      pop\n        /* \"#utility.yul\":26911:27049   */\n      swap2\n      swap1\n      pop\n      jump\t// out\n        /* \"#utility.yul\":27055:27154   */\n    tag_586:\n        /* \"#utility.yul\":27107:27113   */\n      0x00\n        /* \"#utility.yul\":27141:27146   */\n      dup2\n        /* \"#utility.yul\":27135:27147   */\n      mload\n        /* \"#utility.yul\":27125:27147   */\n      swap1\n      pop\n        /* \"#utility.yul\":27055:27154   */\n      swap2\n      swap1\n      pop\n      jump\t// out\n        /* \"#utility.yul\":27160:27273   */\n    tag_551:\n        /* \"#utility.yul\":27230:27234   */\n      0x00\n        /* \"#utility.yul\":27262:27266   */\n      0x20\n        /* \"#utility.yul\":27257:27260   */\n      dup3\n        /* \"#utility.yul\":27253:27267   */\n      add\n        /* \"#utility.yul\":27245:27267   */\n      swap1\n      pop\n        /* \"#utility.yul\":27160:27273   */\n      swap2\n      swap1\n      pop\n      jump\t// out\n        /* \"#utility.yul\":27279:27402   */\n    tag_565:\n        /* \"#utility.yul\":27359:27363   */\n      0x00\n        /* \"#utility.yul\":27391:27395   */\n      0x20\n        /* \"#utility.yul\":27386:27389   */\n      dup3\n        /* \"#utility.yul\":27382:27396   */\n      add\n        /* \"#utility.yul\":27374:27396   */\n      swap1\n      pop\n        /* \"#utility.yul\":27279:27402   */\n      swap2\n      swap1\n      pop\n      jump\t// out\n        /* \"#utility.yul\":27408:27545   */\n    tag_579:\n        /* \"#utility.yul\":27502:27506   */\n      0x00\n        /* \"#utility.yul\":27534:27538   */\n      0x20\n        /* \"#utility.yul\":27529:27532   */\n      dup3\n        /* \"#utility.yul\":27525:27539   */\n      add\n        /* \"#utility.yul\":27517:27539   */\n      swap1\n      pop\n        /* \"#utility.yul\":27408:27545   */\n      swap2\n      swap1\n      pop\n      jump\t// out\n        /* \"#utility.yul\":27551:27735   */\n    tag_543:\n        /* \"#utility.yul\":27650:27661   */\n      0x00\n        /* \"#utility.yul\":27684:27690   */\n      dup3\n        /* \"#utility.yul\":27679:27682   */\n      dup3\n        /* \"#utility.yul\":27672:27691   */\n      mstore\n        /* \"#utility.yul\":27724:27728   */\n      0x20\n        /* \"#utility.yul\":27719:27722   */\n      dup3\n        /* \"#utility.yul\":27715:27729   */\n      add\n        /* \"#utility.yul\":27700:27729   */\n      swap1\n      pop\n        /* \"#utility.yul\":27551:27735   */\n      swap3\n      swap2\n      pop\n      pop\n      jump\t// out\n        /* \"#utility.yul\":27741:27935   */\n    tag_557:\n        /* \"#utility.yul\":27850:27861   */\n      0x00\n        /* \"#utility.yul\":27884:27890   */\n      dup3\n        /* \"#utility.yul\":27879:27882   */\n      dup3\n        /* \"#utility.yul\":27872:27891   */\n      mstore\n        /* \"#utility.yul\":27924:27928   */\n      0x20\n        /* \"#utility.yul\":27919:27922   */\n      dup3\n        /* \"#utility.yul\":27915:27929   */\n      add\n        /* \"#utility.yul\":27900:27929   */\n      swap1\n      pop\n        /* \"#utility.yul\":27741:27935   */\n      swap3\n      swap2\n      pop\n      pop\n      jump\t// out\n        /* \"#utility.yul\":27941:28149   */\n    tag_571:\n        /* \"#utility.yul\":28064:28075   */\n      0x00\n        /* \"#utility.yul\":28098:28104   */\n      dup3\n        /* \"#utility.yul\":28093:28096   */\n      dup3\n        /* \"#utility.yul\":28086:28105   */\n      mstore\n        /* \"#utility.yul\":28138:28142   */\n      0x20\n        /* \"#utility.yul\":28133:28136   */\n      dup3\n        /* \"#utility.yul\":28129:28143   */\n      add\n        /* \"#utility.yul\":28114:28143   */\n      swap1\n      pop\n        /* \"#utility.yul\":27941:28149   */\n      swap3\n      swap2\n      pop\n      pop\n      jump\t// out\n        /* \"#utility.yul\":28155:28314   */\n    tag_588:\n        /* \"#utility.yul\":28229:28240   */\n      0x00\n        /* \"#utility.yul\":28263:28269   */\n      dup3\n        /* \"#utility.yul\":28258:28261   */\n      dup3\n        /* \"#utility.yul\":28251:28270   */\n      mstore\n        /* \"#utility.yul\":28303:28307   */\n      0x20\n        /* \"#utility.yul\":28298:28301   */\n      dup3\n        /* \"#utility.yul\":28294:28308   */\n      add\n        /* \"#utility.yul\":28279:28308   */\n      swap1\n      pop\n        /* \"#utility.yul\":28155:28314   */\n      swap3\n      swap2\n      pop\n      pop\n      jump\t// out\n        /* \"#utility.yul\":28320:28489   */\n    tag_597:\n        /* \"#utility.yul\":28404:28415   */\n      0x00\n        /* \"#utility.yul\":28438:28444   */\n      dup3\n        /* \"#utility.yul\":28433:28436   */\n      dup3\n        /* \"#utility.yul\":28426:28445   */\n      mstore\n        /* \"#utility.yul\":28478:28482   */\n      0x20\n        /* \"#utility.yul\":28473:28476   */\n      dup3\n        /* \"#utility.yul\":28469:28483   */\n      add\n        /* \"#utility.yul\":28454:28483   */\n      swap1\n      pop\n        /* \"#utility.yul\":28320:28489   */\n      swap3\n      swap2\n      pop\n      pop\n      jump\t// out\n        /* \"#utility.yul\":28495:28643   */\n    tag_604:\n        /* \"#utility.yul\":28597:28608   */\n      0x00\n        /* \"#utility.yul\":28634:28637   */\n      dup2\n        /* \"#utility.yul\":28619:28637   */\n      swap1\n      pop\n        /* \"#utility.yul\":28495:28643   */\n      swap3\n      swap2\n      pop\n      pop\n      jump\t// out\n        /* \"#utility.yul\":28649:28745   */\n    tag_534:\n        /* \"#utility.yul\":28686:28693   */\n      0x00\n        /* \"#utility.yul\":28715:28739   */\n      tag_713\n        /* \"#utility.yul\":28733:28738   */\n      dup3\n        /* \"#utility.yul\":28715:28739   */\n      tag_714\n      jump\t// in\n    tag_713:\n        /* \"#utility.yul\":28704:28739   */\n      swap1\n      pop\n        /* \"#utility.yul\":28649:28745   */\n      swap2\n      swap1\n      pop\n      jump\t// out\n        /* \"#utility.yul\":28751:28855   */\n    tag_715:\n        /* \"#utility.yul\":28796:28803   */\n      0x00\n        /* \"#utility.yul\":28825:28849   */\n      tag_717\n        /* \"#utility.yul\":28843:28848   */\n      dup3\n        /* \"#utility.yul\":28825:28849   */\n      tag_714\n      jump\t// in\n    tag_717:\n        /* \"#utility.yul\":28814:28849   */\n      swap1\n      pop\n        /* \"#utility.yul\":28751:28855   */\n      swap2\n      swap1\n      pop\n      jump\t// out\n        /* \"#utility.yul\":28861:28951   */\n    tag_583:\n        /* \"#utility.yul\":28895:28902   */\n      0x00\n        /* \"#utility.yul\":28938:28943   */\n      dup2\n        /* \"#utility.yul\":28931:28944   */\n      iszero\n        /* \"#utility.yul\":28924:28945   */\n      iszero\n        /* \"#utility.yul\":28913:28945   */\n      swap1\n      pop\n        /* \"#utility.yul\":28861:28951   */\n      swap2\n      swap1\n      pop\n      jump\t// out\n        /* \"#utility.yul\":28957:29033   */\n    tag_719:\n        /* \"#utility.yul\":28993:29000   */\n      0x00\n        /* \"#utility.yul\":29022:29027   */\n      dup2\n        /* \"#utility.yul\":29011:29027   */\n      swap1\n      pop\n        /* \"#utility.yul\":28957:29033   */\n      swap2\n      swap1\n      pop\n      jump\t// out\n        /* \"#utility.yul\":29039:29165   */\n    tag_714:\n        /* \"#utility.yul\":29076:29083   */\n      0x00\n        /* \"#utility.yul\":29116:29158   */\n      0xffffffffffffffffffffffffffffffffffffffff\n        /* \"#utility.yul\":29109:29114   */\n      dup3\n        /* \"#utility.yul\":29105:29159   */\n      and\n        /* \"#utility.yul\":29094:29159   */\n      swap1\n      pop\n        /* \"#utility.yul\":29039:29165   */\n      swap2\n      swap1\n      pop\n      jump\t// out\n        /* \"#utility.yul\":29171:29248   */\n    tag_649:\n        /* \"#utility.yul\":29208:29215   */\n      0x00\n        /* \"#utility.yul\":29237:29242   */\n      dup2\n        /* \"#utility.yul\":29226:29242   */\n      swap1\n      pop\n        /* \"#utility.yul\":29171:29248   */\n      swap2\n      swap1\n      pop\n      jump\t// out\n        /* \"#utility.yul\":29254:29408   */\n    tag_412:\n        /* \"#utility.yul\":29338:29344   */\n      dup3\n        /* \"#utility.yul\":29333:29336   */\n      dup2\n        /* \"#utility.yul\":29328:29331   */\n      dup4\n        /* \"#utility.yul\":29315:29345   */\n      calldatacopy\n        /* \"#utility.yul\":29400:29401   */\n      0x00\n        /* \"#utility.yul\":29391:29397   */\n      dup4\n        /* \"#utility.yul\":29386:29389   */\n      dup4\n        /* \"#utility.yul\":29382:29398   */\n      add\n        /* \"#utility.yul\":29375:29402   */\n      mstore\n        /* \"#utility.yul\":29254:29408   */\n      pop\n      pop\n      pop\n      jump\t// out\n        /* \"#utility.yul\":29414:29721   */\n    tag_590:\n        /* \"#utility.yul\":29482:29483   */\n      0x00\n        /* \"#utility.yul\":29492:29605   */\n    tag_725:\n        /* \"#utility.yul\":29506:29512   */\n      dup4\n        /* \"#utility.yul\":29503:29504   */\n      dup2\n        /* \"#utility.yul\":29500:29513   */\n      lt\n        /* \"#utility.yul\":29492:29605   */\n      iszero\n      tag_727\n      jumpi\n        /* \"#utility.yul\":29591:29592   */\n      dup1\n        /* \"#utility.yul\":29586:29589   */\n      dup3\n        /* \"#utility.yul\":29582:29593   */\n      add\n        /* \"#utility.yul\":29576:29594   */\n      mload\n        /* \"#utility.yul\":29572:29573   */\n      dup2\n        /* \"#utility.yul\":29567:29570   */\n      dup5\n        /* \"#utility.yul\":29563:29574   */\n      add\n        /* \"#utility.yul\":29556:29595   */\n      mstore\n        /* \"#utility.yul\":29528:29530   */\n      0x20\n        /* \"#utility.yul\":29525:29526   */\n      dup2\n        /* \"#utility.yul\":29521:29531   */\n      add\n        /* \"#utility.yul\":29516:29531   */\n      swap1\n      pop\n        /* \"#utility.yul\":29492:29605   */\n      jump(tag_725)\n    tag_727:\n        /* \"#utility.yul\":29623:29629   */\n      dup4\n        /* \"#utility.yul\":29620:29621   */\n      dup2\n        /* \"#utility.yul\":29617:29630   */\n      gt\n        /* \"#utility.yul\":29614:29715   */\n      iszero\n      tag_728\n      jumpi\n        /* \"#utility.yul\":29703:29704   */\n      0x00\n        /* \"#utility.yul\":29694:29700   */\n      dup5\n        /* \"#utility.yul\":29689:29692   */\n      dup5\n        /* \"#utility.yul\":29685:29701   */\n      add\n        /* \"#utility.yul\":29678:29705   */\n      mstore\n        /* \"#utility.yul\":29614:29715   */\n    tag_728:\n        /* \"#utility.yul\":29463:29721   */\n      pop\n        /* \"#utility.yul\":29414:29721   */\n      pop\n      pop\n      pop\n      jump\t// out\n        /* \"#utility.yul\":29727:30047   */\n    tag_91:\n        /* \"#utility.yul\":29771:29777   */\n      0x00\n        /* \"#utility.yul\":29808:29809   */\n      0x02\n        /* \"#utility.yul\":29802:29806   */\n      dup3\n        /* \"#utility.yul\":29798:29810   */\n      div\n        /* \"#utility.yul\":29788:29810   */\n      swap1\n      pop\n        /* \"#utility.yul\":29855:29856   */\n      0x01\n        /* \"#utility.yul\":29849:29853   */\n      dup3\n        /* \"#utility.yul\":29845:29857   */\n      and\n        /* \"#utility.yul\":29876:29894   */\n      dup1\n        /* \"#utility.yul\":29866:29947   */\n      tag_730\n      jumpi\n        /* \"#utility.yul\":29932:29936   */\n      0x7f\n        /* \"#utility.yul\":29924:29930   */\n      dup3\n        /* \"#utility.yul\":29920:29937   */\n      and\n        /* \"#utility.yul\":29910:29937   */\n      swap2\n      pop\n        /* \"#utility.yul\":29866:29947   */\n    tag_730:\n        /* \"#utility.yul\":29994:29996   */\n      0x20\n        /* \"#utility.yul\":29986:29992   */\n      dup3\n        /* \"#utility.yul\":29983:29997   */\n      lt\n        /* \"#utility.yul\":29963:29981   */\n      dup2\n        /* \"#utility.yul\":29960:29998   */\n      eq\n        /* \"#utility.yul\":29957:30041   */\n      iszero\n      tag_731\n      jumpi\n        /* \"#utility.yul\":30013:30031   */\n      tag_732\n      tag_733\n      jump\t// in\n    tag_732:\n        /* \"#utility.yul\":29957:30041   */\n    tag_731:\n        /* \"#utility.yul\":29778:30047   */\n      pop\n        /* \"#utility.yul\":29727:30047   */\n      swap2\n      swap1\n      pop\n      jump\t// out\n        /* \"#utility.yul\":30053:30334   */\n    tag_689:\n        /* \"#utility.yul\":30136:30163   */\n      tag_735\n        /* \"#utility.yul\":30158:30162   */\n      dup3\n        /* \"#utility.yul\":30136:30163   */\n      tag_592\n      jump\t// in\n    tag_735:\n        /* \"#utility.yul\":30128:30134   */\n      dup2\n        /* \"#utility.yul\":30124:30164   */\n      add\n        /* \"#utility.yul\":30266:30272   */\n      dup2\n        /* \"#utility.yul\":30254:30264   */\n      dup2\n        /* \"#utility.yul\":30251:30273   */\n      lt\n        /* \"#utility.yul\":30230:30248   */\n      0xffffffffffffffff\n        /* \"#utility.yul\":30218:30228   */\n      dup3\n        /* \"#utility.yul\":30215:30249   */\n      gt\n        /* \"#utility.yul\":30212:30274   */\n      or\n        /* \"#utility.yul\":30209:30297   */\n      iszero\n      tag_736\n      jumpi\n        /* \"#utility.yul\":30277:30295   */\n      tag_737\n      tag_694\n      jump\t// in\n    tag_737:\n        /* \"#utility.yul\":30209:30297   */\n    tag_736:\n        /* \"#utility.yul\":30317:30327   */\n      dup1\n        /* \"#utility.yul\":30313:30315   */\n      0x40\n        /* \"#utility.yul\":30306:30328   */\n      mstore\n        /* \"#utility.yul\":30096:30334   */\n      pop\n        /* \"#utility.yul\":30053:30334   */\n      pop\n      pop\n      jump\t// out\n        /* \"#utility.yul\":30340:30520   */\n    tag_85:\n        /* \"#utility.yul\":30388:30465   */\n      0x4e487b7100000000000000000000000000000000000000000000000000000000\n        /* \"#utility.yul\":30385:30386   */\n      0x00\n        /* \"#utility.yul\":30378:30466   */\n      mstore\n        /* \"#utility.yul\":30485:30489   */\n      0x21\n        /* \"#utility.yul\":30482:30483   */\n      0x04\n        /* \"#utility.yul\":30475:30490   */\n      mstore\n        /* \"#utility.yul\":30509:30513   */\n      0x24\n        /* \"#utility.yul\":30506:30507   */\n      0x00\n        /* \"#utility.yul\":30499:30514   */\n      revert\n        /* \"#utility.yul\":30526:30706   */\n    tag_733:\n        /* \"#utility.yul\":30574:30651   */\n      0x4e487b7100000000000000000000000000000000000000000000000000000000\n        /* \"#utility.yul\":30571:30572   */\n      0x00\n        /* \"#utility.yul\":30564:30652   */\n      mstore\n        /* \"#utility.yul\":30671:30675   */\n      0x22\n        /* \"#utility.yul\":30668:30669   */\n      0x04\n        /* \"#utility.yul\":30661:30676   */\n      mstore\n        /* \"#utility.yul\":30695:30699   */\n      0x24\n        /* \"#utility.yul\":30692:30693   */\n      0x00\n        /* \"#utility.yul\":30685:30700   */\n      revert\n        /* \"#utility.yul\":30712:30892   */\n    tag_694:\n        /* \"#utility.yul\":30760:30837   */\n      0x4e487b7100000000000000000000000000000000000000000000000000000000\n        /* \"#utility.yul\":30757:30758   */\n      0x00\n        /* \"#utility.yul\":30750:30838   */\n      mstore\n        /* \"#utility.yul\":30857:30861   */\n      0x41\n        /* \"#utility.yul\":30854:30855   */\n      0x04\n        /* \"#utility.yul\":30847:30862   */\n      mstore\n        /* \"#utility.yul\":30881:30885   */\n      0x24\n        /* \"#utility.yul\":30878:30879   */\n      0x00\n        /* \"#utility.yul\":30871:30886   */\n      revert\n        /* \"#utility.yul\":30898:31015   */\n    tag_429:\n        /* \"#utility.yul\":31007:31008   */\n      0x00\n        /* \"#utility.yul\":31004:31005   */\n      dup1\n        /* \"#utility.yul\":30997:31009   */\n      revert\n        /* \"#utility.yul\":31021:31138   */\n    tag_410:\n        /* \"#utility.yul\":31130:31131   */\n      0x00\n        /* \"#utility.yul\":31127:31128   */\n      dup1\n        /* \"#utility.yul\":31120:31132   */\n      revert\n        /* \"#utility.yul\":31144:31261   */\n    tag_446:\n        /* \"#utility.yul\":31253:31254   */\n      0x00\n        /* \"#utility.yul\":31250:31251   */\n      dup1\n        /* \"#utility.yul\":31243:31255   */\n      revert\n        /* \"#utility.yul\":31267:31384   */\n    tag_434:\n        /* \"#utility.yul\":31376:31377   */\n      0x00\n        /* \"#utility.yul\":31373:31374   */\n      dup1\n        /* \"#utility.yul\":31366:31378   */\n      revert\n        /* \"#utility.yul\":31390:31492   */\n    tag_592:\n        /* \"#utility.yul\":31431:31437   */\n      0x00\n        /* \"#utility.yul\":31482:31484   */\n      0x1f\n        /* \"#utility.yul\":31478:31485   */\n      not\n        /* \"#utility.yul\":31473:31475   */\n      0x1f\n        /* \"#utility.yul\":31466:31471   */\n      dup4\n        /* \"#utility.yul\":31462:31476   */\n      add\n        /* \"#utility.yul\":31458:31486   */\n      and\n        /* \"#utility.yul\":31448:31486   */\n      swap1\n      pop\n        /* \"#utility.yul\":31390:31492   */\n      swap2\n      swap1\n      pop\n      jump\t// out\n        /* \"#utility.yul\":31498:31719   */\n    tag_610:\n        /* \"#utility.yul\":31638:31672   */\n      0x596f7572206c6f67696e20616c726561647920657869737420696e2073797374\n        /* \"#utility.yul\":31634:31635   */\n      0x00\n        /* \"#utility.yul\":31626:31632   */\n      dup3\n        /* \"#utility.yul\":31622:31636   */\n      add\n        /* \"#utility.yul\":31615:31673   */\n      mstore\n        /* \"#utility.yul\":31707:31711   */\n      0x656d000000000000000000000000000000000000000000000000000000000000\n        /* \"#utility.yul\":31702:31704   */\n      0x20\n        /* \"#utility.yul\":31694:31700   */\n      dup3\n        /* \"#utility.yul\":31690:31705   */\n      add\n        /* \"#utility.yul\":31683:31712   */\n      mstore\n        /* \"#utility.yul\":31498:31719   */\n      pop\n      jump\t// out\n        /* \"#utility.yul\":31725:31886   */\n    tag_615:\n        /* \"#utility.yul\":31865:31878   */\n      0x4c6f772062616c616e6365000000000000000000000000000000000000000000\n        /* \"#utility.yul\":31861:31862   */\n      0x00\n        /* \"#utility.yul\":31853:31859   */\n      dup3\n        /* \"#utility.yul\":31849:31863   */\n      add\n        /* \"#utility.yul\":31842:31879   */\n      mstore\n        /* \"#utility.yul\":31725:31886   */\n      pop\n      jump\t// out\n        /* \"#utility.yul\":31892:32051   */\n    tag_620:\n        /* \"#utility.yul\":32032:32043   */\n      0x466f7262696464656e0000000000000000000000000000000000000000000000\n        /* \"#utility.yul\":32028:32029   */\n      0x00\n        /* \"#utility.yul\":32020:32026   */\n      dup3\n        /* \"#utility.yul\":32016:32030   */\n      add\n        /* \"#utility.yul\":32009:32044   */\n      mstore\n        /* \"#utility.yul\":31892:32051   */\n      pop\n      jump\t// out\n        /* \"#utility.yul\":32057:32219   */\n    tag_625:\n        /* \"#utility.yul\":32197:32211   */\n      0x596f75206e6f7420757365720000000000000000000000000000000000000000\n        /* \"#utility.yul\":32193:32194   */\n      0x00\n        /* \"#utility.yul\":32185:32191   */\n      dup3\n        /* \"#utility.yul\":32181:32195   */\n      add\n        /* \"#utility.yul\":32174:32212   */\n      mstore\n        /* \"#utility.yul\":32057:32219   */\n      pop\n      jump\t// out\n        /* \"#utility.yul\":32225:32388   */\n    tag_630:\n        /* \"#utility.yul\":32365:32380   */\n      0x596f75206e6f742061646d696e00000000000000000000000000000000000000\n        /* \"#utility.yul\":32361:32362   */\n      0x00\n        /* \"#utility.yul\":32353:32359   */\n      dup3\n        /* \"#utility.yul\":32349:32363   */\n      add\n        /* \"#utility.yul\":32342:32381   */\n      mstore\n        /* \"#utility.yul\":32225:32388   */\n      pop\n      jump\t// out\n        /* \"#utility.yul\":32394:32566   */\n    tag_635:\n        /* \"#utility.yul\":32534:32558   */\n      0x596f7520616c7265616479207265676973746572656400000000000000000000\n        /* \"#utility.yul\":32530:32531   */\n      0x00\n        /* \"#utility.yul\":32522:32528   */\n      dup3\n        /* \"#utility.yul\":32518:32532   */\n      add\n        /* \"#utility.yul\":32511:32559   */\n      mstore\n        /* \"#utility.yul\":32394:32566   */\n      pop\n      jump\t// out\n        /* \"#utility.yul\":32572:32733   */\n    tag_640:\n        /* \"#utility.yul\":32712:32725   */\n      0x57726f6e67204c6f67696e000000000000000000000000000000000000000000\n        /* \"#utility.yul\":32708:32709   */\n      0x00\n        /* \"#utility.yul\":32700:32706   */\n      dup3\n        /* \"#utility.yul\":32696:32710   */\n      add\n        /* \"#utility.yul\":32689:32726   */\n      mstore\n        /* \"#utility.yul\":32572:32733   */\n      pop\n      jump\t// out\n        /* \"#utility.yul\":32739:32861   */\n    tag_416:\n        /* \"#utility.yul\":32812:32836   */\n      tag_754\n        /* \"#utility.yul\":32830:32835   */\n      dup2\n        /* \"#utility.yul\":32812:32836   */\n      tag_534\n      jump\t// in\n    tag_754:\n        /* \"#utility.yul\":32805:32810   */\n      dup2\n        /* \"#utility.yul\":32802:32837   */\n      eq\n        /* \"#utility.yul\":32792:32855   */\n      tag_755\n      jumpi\n        /* \"#utility.yul\":32851:32852   */\n      0x00\n        /* \"#utility.yul\":32848:32849   */\n      dup1\n        /* \"#utility.yul\":32841:32853   */\n      revert\n        /* \"#utility.yul\":32792:32855   */\n    tag_755:\n        /* \"#utility.yul\":32739:32861   */\n      pop\n      jump\t// out\n        /* \"#utility.yul\":32867:33005   */\n    tag_420:\n        /* \"#utility.yul\":32948:32980   */\n      tag_757\n        /* \"#utility.yul\":32974:32979   */\n      dup2\n        /* \"#utility.yul\":32948:32980   */\n      tag_715\n      jump\t// in\n    tag_757:\n        /* \"#utility.yul\":32941:32946   */\n      dup2\n        /* \"#utility.yul\":32938:32981   */\n      eq\n        /* \"#utility.yul\":32928:32999   */\n      tag_758\n      jumpi\n        /* \"#utility.yul\":32995:32996   */\n      0x00\n        /* \"#utility.yul\":32992:32993   */\n      dup1\n        /* \"#utility.yul\":32985:32997   */\n      revert\n        /* \"#utility.yul\":32928:32999   */\n    tag_758:\n        /* \"#utility.yul\":32867:33005   */\n      pop\n      jump\t// out\n        /* \"#utility.yul\":33011:33131   */\n    tag_424:\n        /* \"#utility.yul\":33083:33106   */\n      tag_760\n        /* \"#utility.yul\":33100:33105   */\n      dup2\n        /* \"#utility.yul\":33083:33106   */\n      tag_719\n      jump\t// in\n    tag_760:\n        /* \"#utility.yul\":33076:33081   */\n      dup2\n        /* \"#utility.yul\":33073:33107   */\n      eq\n        /* \"#utility.yul\":33063:33125   */\n      tag_761\n      jumpi\n        /* \"#utility.yul\":33121:33122   */\n      0x00\n        /* \"#utility.yul\":33118:33119   */\n      dup1\n        /* \"#utility.yul\":33111:33123   */\n      revert\n        /* \"#utility.yul\":33063:33125   */\n    tag_761:\n        /* \"#utility.yul\":33011:33131   */\n      pop\n      jump\t// out\n\n    auxdata: 0xa26469706673582212207082db263056d36cbf313190cd9b8426163a8a8f41a0005d95d23535b49e3f1c64736f6c63430008070033\n}\n",
				"bytecode": {
					"linkReferences": {},
					"object": "60806040523480156200001157600080fd5b506040518060400160405280600581526020017f627579657200000000000000000000000000000000000000000000000000000081525060008080815260200190815260200160002090805190602001906200006f92919062000292565b506040518060400160405280600681526020017f73656c6c65720000000000000000000000000000000000000000000000000000815250600080600181526020019081526020016000209080519060200190620000ce92919062000292565b506040518060400160405280600481526020017f73686f70000000000000000000000000000000000000000000000000000000008152506000806002815260200190815260200160002090805190602001906200012d92919062000292565b506040518060400160405280600581526020017f61646d696e0000000000000000000000000000000000000000000000000000008152506000806003815260200190815260200160002090805190602001906200018c92919062000292565b506040518060400160405280600881526020017f70726f7669646572000000000000000000000000000000000000000000000000815250600080600481526020019081526020016000209080519060200190620001eb92919062000292565b506040518060400160405280600481526020017f62616e6b000000000000000000000000000000000000000000000000000000008152506000806005815260200190815260200160002090805190602001906200024a92919062000292565b5033600460006101000a81548173ffffffffffffffffffffffffffffffffffffffff021916908373ffffffffffffffffffffffffffffffffffffffff160217905550620003a7565b828054620002a09062000342565b90600052602060002090601f016020900481019282620002c4576000855562000310565b82601f10620002df57805160ff191683800117855562000310565b8280016001018555821562000310579182015b828111156200030f578251825591602001919060010190620002f2565b5b5090506200031f919062000323565b5090565b5b808211156200033e57600081600090555060010162000324565b5090565b600060028204905060018216806200035b57607f821691505b6020821081141562000372576200037162000378565b5b50919050565b7f4e487b7100000000000000000000000000000000000000000000000000000000600052602260045260246000fd5b613bc880620003b76000396000f3fe608060405234801561001057600080fd5b50600436106100f55760003560e01c80637ccb2bd8116100975780639d344d10116100665780639d344d1014610266578063a59d105f14610282578063c3d5fd391461029e578063f8f98b79146102bf576100f5565b80637ccb2bd8146101f157806383db0f6d1461020d5780638403f8481461022957806399b958ee14610245576100f5565b80633a7d280c116100d35780633a7d280c1461016657806354504c12146101975780637558b2f8146101b95780637b3c7488146101d5576100f5565b806308e74858146100fa5780632156a7811461012e5780633a7087371461014a575b600080fd5b610114600480360381019061010f9190612c4a565b6102db565b604051610125959493929190613564565b60405180910390f35b61014860048036038101906101439190612ef8565b6107e0565b005b610164600480360381019061015f9190612d2f565b6108a7565b005b610180600480360381019061017b9190612eaf565b610b96565b60405161018e9291906134d3565b60405180910390f35b61019f610f8d565b6040516101b0959493929190613564565b60405180910390f35b6101d360048036038101906101ce9190612df4565b611490565b005b6101ef60048036038101906101ea9190612eaf565b61160b565b005b61020b60048036038101906102069190612ef8565b611731565b005b61022760048036038101906102229190612c77565b61183a565b005b610243600480360381019061023e9190613057565b611989565b005b61024d611ab7565b60405161025d94939291906135da565b60405180910390f35b610280600480360381019061027b9190612fcc565b611e6c565b005b61029c60048036038101906102979190612ca4565b611e95565b005b6102a6611f94565b6040516102b69493929190613503565b60405180910390f35b6102d960048036038101906102d49190612f54565b6125e2565b005b60608060608060606003600260003373ffffffffffffffffffffffffffffffffffffffff1673ffffffffffffffffffffffffffffffffffffffff1681526020019081526020016000206000015481600581111561033b5761033a613956565b5b1461037b576040517f08c379a000000000000000000000000000000000000000000000000000000000815260040161037290613674565b60405180910390fd5b6000600260008973ffffffffffffffffffffffffffffffffffffffff1673ffffffffffffffffffffffffffffffffffffffff168152602001908152602001600020604051806080016040529081600082015481526020016001820180546103e1906138f3565b80601f016020809104026020016040519081016040528092919081815260200182805461040d906138f3565b801561045a5780601f1061042f5761010080835404028352916020019161045a565b820191906000526020600020905b81548152906001019060200180831161043d57829003601f168201915b50505050508152602001600282018054610473906138f3565b80601f016020809104026020016040519081016040528092919081815260200182805461049f906138f3565b80156104ec5780601f106104c1576101008083540402835291602001916104ec565b820191906000526020600020905b8154815290600101906020018083116104cf57829003601f168201915b5050505050815260200160038201805480602002602001604051908101604052809291908181526020016000905b828210156105c6578382906000526020600020018054610539906138f3565b80601f0160208091040260200160405190810160405280929190818152602001828054610565906138f3565b80156105b25780601f10610587576101008083540402835291602001916105b2565b820191906000526020600020905b81548152906001019060200180831161059557829003601f168201915b50505050508152602001906001019061051a565b505050508152505090506000600b60008a73ffffffffffffffffffffffffffffffffffffffff1673ffffffffffffffffffffffffffffffffffffffff16815260200190815260200160002060009054906101000a900473ffffffffffffffffffffffffffffffffffffffff1690506000600a60008373ffffffffffffffffffffffffffffffffffffffff1673ffffffffffffffffffffffffffffffffffffffff168152602001908152602001600020604051806060016040529081600082018054610690906138f3565b80601f01602080910402602001604051908101604052809291908181526020018280546106bc906138f3565b80156107095780601f106106de57610100808354040283529160200191610709565b820191906000526020600020905b8154815290600101906020018083116106ec57829003601f168201915b50505050508152602001600182018054610722906138f3565b80601f016020809104026020016040519081016040528092919081815260200182805461074e906138f3565b801561079b5780601f106107705761010080835404028352916020019161079b565b820191906000526020600020905b81548152906001019060200180831161077e57829003601f168201915b50505050508152602001600282015481525050905082602001519850826040015197508060200151965080600001519550826060015194505050505091939590929450565b600460009054906101000a900473ffffffffffffffffffffffffffffffffffffffff1673ffffffffffffffffffffffffffffffffffffffff163373ffffffffffffffffffffffffffffffffffffffff1614610870576040517f08c379a0000000000000000000000000000000000000000000000000000000008152600401610867906136b4565b60405180910390fd5b600060058081111561088557610884613956565b5b90506108a2604051806020016040528060008152508483856126d7565b505050565b61098a600260003373ffffffffffffffffffffffffffffffffffffffff1673ffffffffffffffffffffffffffffffffffffffff16815260200190815260200160002060010180546108f7906138f3565b80601f0160208091040260200160405190810160405280929190818152602001828054610923906138f3565b80156109705780601f1061094557610100808354040283529160200191610970565b820191906000526020600020905b81548152906001019060200180831161095357829003601f168201915b5050505050604051806020016040528060008152506129db565b156109ca576040517f08c379a00000000000000000000000000000000000000000000000000000000081526004016109c190613694565b60405180910390fd5b60006040518060c001604052803373ffffffffffffffffffffffffffffffffffffffff1681526020018873ffffffffffffffffffffffffffffffffffffffff1681526020018781526020016000815260200160008152602001838152509050600d60008873ffffffffffffffffffffffffffffffffffffffff1673ffffffffffffffffffffffffffffffffffffffff16815260200190815260200160002085908060018154018082558091505060019003906000526020600020016000909190919091509080519060200190610aa1929190612a34565b5080600e86604051610ab391906134bc565b908152602001604051809103902060008201518160000160006101000a81548173ffffffffffffffffffffffffffffffffffffffff021916908373ffffffffffffffffffffffffffffffffffffffff16021790555060208201518160010160006101000a81548173ffffffffffffffffffffffffffffffffffffffff021916908373ffffffffffffffffffffffffffffffffffffffff1602179055506040820151816002019080519060200190610b6b929190612a34565b50606082015181600301556080820151816004015560a0820151816005015590505050505050505050565b6000606082600073ffffffffffffffffffffffffffffffffffffffff16600182604051610bc391906134bc565b908152602001604051809103902060009054906101000a900473ffffffffffffffffffffffffffffffffffffffff1673ffffffffffffffffffffffffffffffffffffffff161415610c49576040517f08c379a0000000000000000000000000000000000000000000000000000000008152600401610c40906136f4565b60405180910390fd5b6000600185604051610c5b91906134bc565b908152602001604051809103902060009054906101000a900473ffffffffffffffffffffffffffffffffffffffff1690506000600260008373ffffffffffffffffffffffffffffffffffffffff1673ffffffffffffffffffffffffffffffffffffffff16815260200190815260200160002060405180608001604052908160008201548152602001600182018054610cf2906138f3565b80601f0160208091040260200160405190810160405280929190818152602001828054610d1e906138f3565b8015610d6b5780601f10610d4057610100808354040283529160200191610d6b565b820191906000526020600020905b815481529060010190602001808311610d4e57829003601f168201915b50505050508152602001600282018054610d84906138f3565b80601f0160208091040260200160405190810160405280929190818152602001828054610db0906138f3565b8015610dfd5780601f10610dd257610100808354040283529160200191610dfd565b820191906000526020600020905b815481529060010190602001808311610de057829003601f168201915b5050505050815260200160038201805480602002602001604051908101604052809291908181526020016000905b82821015610ed7578382906000526020600020018054610e4a906138f3565b80601f0160208091040260200160405190810160405280929190818152602001828054610e76906138f3565b8015610ec35780601f10610e9857610100808354040283529160200191610ec3565b820191906000526020600020905b815481529060010190602001808311610ea657829003601f168201915b505050505081526020019060010190610e2b565b50505050815250509050819450600080826000015181526020019081526020016000208054610f05906138f3565b80601f0160208091040260200160405190810160405280929190818152602001828054610f31906138f3565b8015610f7e5780601f10610f5357610100808354040283529160200191610f7e565b820191906000526020600020905b815481529060010190602001808311610f6157829003601f168201915b50505050509350505050915091565b60608060608060606001600260003373ffffffffffffffffffffffffffffffffffffffff1673ffffffffffffffffffffffffffffffffffffffff16815260200190815260200160002060000154816005811115610fed57610fec613956565b5b1461102d576040517f08c379a000000000000000000000000000000000000000000000000000000000815260040161102490613674565b60405180910390fd5b6000600260003373ffffffffffffffffffffffffffffffffffffffff1673ffffffffffffffffffffffffffffffffffffffff16815260200190815260200160002060405180608001604052908160008201548152602001600182018054611093906138f3565b80601f01602080910402602001604051908101604052809291908181526020018280546110bf906138f3565b801561110c5780601f106110e15761010080835404028352916020019161110c565b820191906000526020600020905b8154815290600101906020018083116110ef57829003601f168201915b50505050508152602001600282018054611125906138f3565b80601f0160208091040260200160405190810160405280929190818152602001828054611151906138f3565b801561119e5780601f106111735761010080835404028352916020019161119e565b820191906000526020600020905b81548152906001019060200180831161118157829003601f168201915b5050505050815260200160038201805480602002602001604051908101604052809291908181526020016000905b828210156112785783829060005260206000200180546111eb906138f3565b80601f0160208091040260200160405190810160405280929190818152602001828054611217906138f3565b80156112645780601f1061123957610100808354040283529160200191611264565b820191906000526020600020905b81548152906001019060200180831161124757829003601f168201915b5050505050815260200190600101906111cc565b505050508152505090506000600b60003373ffffffffffffffffffffffffffffffffffffffff1673ffffffffffffffffffffffffffffffffffffffff16815260200190815260200160002060009054906101000a900473ffffffffffffffffffffffffffffffffffffffff1690506000600a60008373ffffffffffffffffffffffffffffffffffffffff1673ffffffffffffffffffffffffffffffffffffffff168152602001908152602001600020604051806060016040529081600082018054611342906138f3565b80601f016020809104026020016040519081016040528092919081815260200182805461136e906138f3565b80156113bb5780601f10611390576101008083540402835291602001916113bb565b820191906000526020600020905b81548152906001019060200180831161139e57829003601f168201915b505050505081526020016001820180546113d4906138f3565b80601f0160208091040260200160405190810160405280929190818152602001828054611400906138f3565b801561144d5780601f106114225761010080835404028352916020019161144d565b820191906000526020600020905b81548152906001019060200180831161143057829003601f168201915b5050505050815260200160028201548152505090508260200151985082604001519750806020015196508060000151955082606001519450505050509091929394565b6003600260003373ffffffffffffffffffffffffffffffffffffffff1673ffffffffffffffffffffffffffffffffffffffff168152602001908152602001600020600001548160058111156114e8576114e7613956565b5b14611528576040517f08c379a000000000000000000000000000000000000000000000000000000000815260040161151f90613674565b60405180910390fd5b600060405180606001604052808681526020018581526020016000815250905080600a60008873ffffffffffffffffffffffffffffffffffffffff1673ffffffffffffffffffffffffffffffffffffffff16815260200190815260200160002060008201518160000190805190602001906115a4929190612a34565b5060208201518160010190805190602001906115c1929190612a34565b50604082015181600201559050506000600260058111156115e5576115e4613956565b5b90506116026040518060200160405280600081525085838a6126d7565b50505050505050565b6116ee600260003373ffffffffffffffffffffffffffffffffffffffff1673ffffffffffffffffffffffffffffffffffffffff168152602001908152602001600020600101805461165b906138f3565b80601f0160208091040260200160405190810160405280929190818152602001828054611687906138f3565b80156116d45780601f106116a9576101008083540402835291602001916116d4565b820191906000526020600020905b8154815290600101906020018083116116b757829003601f168201915b5050505050604051806020016040528060008152506129db565b1561172e576040517f08c379a000000000000000000000000000000000000000000000000000000000815260040161172590613694565b60405180910390fd5b50565b600460009054906101000a900473ffffffffffffffffffffffffffffffffffffffff1673ffffffffffffffffffffffffffffffffffffffff163373ffffffffffffffffffffffffffffffffffffffff16146117c1576040517f08c379a00000000000000000000000000000000000000000000000000000000081526004016117b8906136b4565b60405180910390fd5b6000600460058111156117d7576117d6613956565b5b90506117f4604051806020016040528060008152508483856126d7565b81600360006101000a81548173ffffffffffffffffffffffffffffffffffffffff021916908373ffffffffffffffffffffffffffffffffffffffff160217905550505050565b6005600260003373ffffffffffffffffffffffffffffffffffffffff1673ffffffffffffffffffffffffffffffffffffffff1681526020019081526020016000206000015481600581111561189257611891613956565b5b146118d2576040517f08c379a00000000000000000000000000000000000000000000000000000000081526004016118c990613674565b60405180910390fd5b683635c9adc5dea000003373ffffffffffffffffffffffffffffffffffffffff16311015611935576040517f08c379a000000000000000000000000000000000000000000000000000000000815260040161192c90613654565b60405180910390fd5b8173ffffffffffffffffffffffffffffffffffffffff166108fc683635c9adc5dea000009081150290604051600060405180830381858888f19350505050158015611984573d6000803e3d6000fd5b505050565b60006001600581111561199f5761199e613956565b5b90506119ad858583866126d7565b6007839080600181540180825580915050600190039060005260206000200160009091909190916101000a81548173ffffffffffffffffffffffffffffffffffffffff021916908373ffffffffffffffffffffffffffffffffffffffff160217905550600c60008373ffffffffffffffffffffffffffffffffffffffff1673ffffffffffffffffffffffffffffffffffffffff168152602001908152602001600020839080600181540180825580915050600190039060005260206000200160009091909190916101000a81548173ffffffffffffffffffffffffffffffffffffffff021916908373ffffffffffffffffffffffffffffffffffffffff1602179055505050505050565b60608060006060611ba1600260003373ffffffffffffffffffffffffffffffffffffffff1673ffffffffffffffffffffffffffffffffffffffff1681526020019081526020016000206001018054611b0e906138f3565b80601f0160208091040260200160405190810160405280929190818152602001828054611b3a906138f3565b8015611b875780601f10611b5c57610100808354040283529160200191611b87565b820191906000526020600020905b815481529060010190602001808311611b6a57829003601f168201915b5050505050604051806020016040528060008152506129db565b15611be1576040517f08c379a0000000000000000000000000000000000000000000000000000000008152600401611bd890613694565b60405180910390fd5b6000600260003373ffffffffffffffffffffffffffffffffffffffff1673ffffffffffffffffffffffffffffffffffffffff16815260200190815260200160002060405180608001604052908160008201548152602001600182018054611c47906138f3565b80601f0160208091040260200160405190810160405280929190818152602001828054611c73906138f3565b8015611cc05780601f10611c9557610100808354040283529160200191611cc0565b820191906000526020600020905b815481529060010190602001808311611ca357829003601f168201915b50505050508152602001600282018054611cd9906138f3565b80601f0160208091040260200160405190810160405280929190818152602001828054611d05906138f3565b8015611d525780601f10611d2757610100808354040283529160200191611d52565b820191906000526020600020905b815481529060010190602001808311611d3557829003601f168201915b5050505050815260200160038201805480602002602001604051908101604052809291908181526020016000905b82821015611e2c578382906000526020600020018054611d9f906138f3565b80601f0160208091040260200160405190810160405280929190818152602001828054611dcb906138f3565b8015611e185780601f10611ded57610100808354040283529160200191611e18565b820191906000526020600020905b815481529060010190602001808311611dfb57829003601f168201915b505050505081526020019060010190611d80565b5050505081525050905080602001519450806040015193503373ffffffffffffffffffffffffffffffffffffffff16319250806060015191505090919293565b6000806005811115611e8157611e80613956565b5b9050611e8f848483856126d7565b50505050565b6003600260003373ffffffffffffffffffffffffffffffffffffffff1673ffffffffffffffffffffffffffffffffffffffff16815260200190815260200160002060000154816005811115611eed57611eec613956565b5b14611f2d576040517f08c379a0000000000000000000000000000000000000000000000000000000008152600401611f2490613674565b60405180910390fd5b600060036005811115611f4357611f42613956565b5b9050611f51848483886126d7565b600583908060018154018082558091505060019003906000526020600020016000909190919091509080519060200190611f8c929190612a34565b505050505050565b6060806060806003600260003373ffffffffffffffffffffffffffffffffffffffff1673ffffffffffffffffffffffffffffffffffffffff16815260200190815260200160002060000154816005811115611ff257611ff1613956565b5b14612032576040517f08c379a000000000000000000000000000000000000000000000000000000000815260040161202990613674565b60405180910390fd5b6000600260003373ffffffffffffffffffffffffffffffffffffffff1673ffffffffffffffffffffffffffffffffffffffff16815260200190815260200160002060405180608001604052908160008201548152602001600182018054612098906138f3565b80601f01602080910402602001604051908101604052809291908181526020018280546120c4906138f3565b80156121115780601f106120e657610100808354040283529160200191612111565b820191906000526020600020905b8154815290600101906020018083116120f457829003601f168201915b5050505050815260200160028201805461212a906138f3565b80601f0160208091040260200160405190810160405280929190818152602001828054612156906138f3565b80156121a35780601f10612178576101008083540402835291602001916121a3565b820191906000526020600020905b81548152906001019060200180831161218657829003601f168201915b5050505050815260200160038201805480602002602001604051908101604052809291908181526020016000905b8282101561227d5783829060005260206000200180546121f0906138f3565b80601f016020809104026020016040519081016040528092919081815260200182805461221c906138f3565b80156122695780601f1061223e57610100808354040283529160200191612269565b820191906000526020600020905b81548152906001019060200180831161224c57829003601f168201915b5050505050815260200190600101906121d1565b50505050815250509050806020015195506009805480602002602001604051908101604052809291908181526020016000905b8282101561247757838290600052602060002090600402016040518060800160405290816000820160009054906101000a900473ffffffffffffffffffffffffffffffffffffffff1673ffffffffffffffffffffffffffffffffffffffff1673ffffffffffffffffffffffffffffffffffffffff168152602001600182018054612339906138f3565b80601f0160208091040260200160405190810160405280929190818152602001828054612365906138f3565b80156123b25780601f10612387576101008083540402835291602001916123b2565b820191906000526020600020905b81548152906001019060200180831161239557829003601f168201915b505050505081526020016002820180546123cb906138f3565b80601f01602080910402602001604051908101604052809291908181526020018280546123f7906138f3565b80156124445780601f1061241957610100808354040283529160200191612444565b820191906000526020600020905b81548152906001019060200180831161242757829003601f168201915b505050505081526020016003820160009054906101000a900460ff161515151581525050815260200190600101906122b0565b5050505094506005805480602002602001604051908101604052809291908181526020016000905b8282101561254b5783829060005260206000200180546124be906138f3565b80601f01602080910402602001604051908101604052809291908181526020018280546124ea906138f3565b80156125375780601f1061250c57610100808354040283529160200191612537565b820191906000526020600020905b81548152906001019060200180831161251a57829003601f168201915b50505050508152602001906001019061249f565b50505050935060078054806020026020016040519081016040528092919081815260200182805480156125d357602002820191906000526020600020905b8160009054906101000a900473ffffffffffffffffffffffffffffffffffffffff1673ffffffffffffffffffffffffffffffffffffffff1681526020019060010190808311612589575b50505050509250505090919293565b600460009054906101000a900473ffffffffffffffffffffffffffffffffffffffff1673ffffffffffffffffffffffffffffffffffffffff163373ffffffffffffffffffffffffffffffffffffffff1614612672576040517f08c379a0000000000000000000000000000000000000000000000000000000008152600401612669906136b4565b60405180910390fd5b60006003600581111561268857612687613956565b5b9050612696838383336126d7565b6005829080600181540180825580915050600190039060005260206000200160009091909190915090805190602001906126d1929190612a34565b50505050565b80836127bc600260008473ffffffffffffffffffffffffffffffffffffffff1673ffffffffffffffffffffffffffffffffffffffff1681526020019081526020016000206002018054612729906138f3565b80601f0160208091040260200160405190810160405280929190818152602001828054612755906138f3565b80156127a25780601f10612777576101008083540402835291602001916127a2565b820191906000526020600020905b81548152906001019060200180831161278557829003601f168201915b5050505050604051806020016040528060008152506129db565b156127fc576040517f08c379a00000000000000000000000000000000000000000000000000000000081526004016127f3906136d4565b60405180910390fd5b600073ffffffffffffffffffffffffffffffffffffffff1660018260405161282491906134bc565b908152602001604051809103902060009054906101000a900473ffffffffffffffffffffffffffffffffffffffff1673ffffffffffffffffffffffffffffffffffffffff16146128a9576040517f08c379a00000000000000000000000000000000000000000000000000000000081526004016128a090613634565b60405180910390fd5b606060006040518060800160405280878152602001888152602001898152602001838152509050846001886040516128e191906134bc565b908152602001604051809103902060006101000a81548173ffffffffffffffffffffffffffffffffffffffff021916908373ffffffffffffffffffffffffffffffffffffffff16021790555080600260008773ffffffffffffffffffffffffffffffffffffffff1673ffffffffffffffffffffffffffffffffffffffff168152602001908152602001600020600082015181600001556020820151816001019080519060200190612993929190612a34565b5060408201518160020190805190602001906129b0929190612a34565b5060608201518160030190805190602001906129cd929190612aba565b509050505050505050505050565b6000816040516020016129ee91906134bc565b6040516020818303038152906040528051906020012083604051602001612a1591906134bc565b6040516020818303038152906040528051906020012014905092915050565b828054612a40906138f3565b90600052602060002090601f016020900481019282612a625760008555612aa9565b82601f10612a7b57805160ff1916838001178555612aa9565b82800160010185558215612aa9579182015b82811115612aa8578251825591602001919060010190612a8d565b5b509050612ab69190612b1a565b5090565b828054828255906000526020600020908101928215612b09579160200282015b82811115612b08578251829080519060200190612af8929190612a34565b5091602001919060010190612ada565b5b509050612b169190612b37565b5090565b5b80821115612b33576000816000905550600101612b1b565b5090565b5b80821115612b575760008181612b4e9190612b5b565b50600101612b38565b5090565b508054612b67906138f3565b6000825580601f10612b795750612b98565b601f016020900490600052602060002090810190612b979190612b1a565b5b50565b6000612bae612ba984613739565b613714565b905082815260208101848484011115612bca57612bc96139e8565b5b612bd58482856138b1565b509392505050565b600081359050612bec81613b4d565b92915050565b600081359050612c0181613b64565b92915050565b600081359050612c1681613b7b565b92915050565b600082601f830112612c3157612c306139e3565b5b8135612c41848260208601612b9b565b91505092915050565b600060208284031215612c6057612c5f6139f2565b5b6000612c6e84828501612bdd565b91505092915050565b600060208284031215612c8d57612c8c6139f2565b5b6000612c9b84828501612bf2565b91505092915050565b600080600060608486031215612cbd57612cbc6139f2565b5b6000612ccb86828701612bdd565b935050602084013567ffffffffffffffff811115612cec57612ceb6139ed565b5b612cf886828701612c1c565b925050604084013567ffffffffffffffff811115612d1957612d186139ed565b5b612d2586828701612c1c565b9150509250925092565b60008060008060008060c08789031215612d4c57612d4b6139f2565b5b6000612d5a89828a01612bdd565b965050602087013567ffffffffffffffff811115612d7b57612d7a6139ed565b5b612d8789828a01612c1c565b955050604087013567ffffffffffffffff811115612da857612da76139ed565b5b612db489828a01612c1c565b9450506060612dc589828a01612c07565b9350506080612dd689828a01612c07565b92505060a0612de789828a01612c07565b9150509295509295509295565b60008060008060808587031215612e0e57612e0d6139f2565b5b6000612e1c87828801612bdd565b945050602085013567ffffffffffffffff811115612e3d57612e3c6139ed565b5b612e4987828801612c1c565b935050604085013567ffffffffffffffff811115612e6a57612e696139ed565b5b612e7687828801612c1c565b925050606085013567ffffffffffffffff811115612e9757612e966139ed565b5b612ea387828801612c1c565b91505092959194509250565b600060208284031215612ec557612ec46139f2565b5b600082013567ffffffffffffffff811115612ee357612ee26139ed565b5b612eef84828501612c1c565b91505092915050565b60008060408385031215612f0f57612f0e6139f2565b5b600083013567ffffffffffffffff811115612f2d57612f2c6139ed565b5b612f3985828601612c1c565b9250506020612f4a85828601612bdd565b9150509250929050565b60008060408385031215612f6b57612f6a6139f2565b5b600083013567ffffffffffffffff811115612f8957612f886139ed565b5b612f9585828601612c1c565b925050602083013567ffffffffffffffff811115612fb657612fb56139ed565b5b612fc285828601612c1c565b9150509250929050565b600080600060608486031215612fe557612fe46139f2565b5b600084013567ffffffffffffffff811115613003576130026139ed565b5b61300f86828701612c1c565b935050602084013567ffffffffffffffff8111156130305761302f6139ed565b5b61303c86828701612c1c565b925050604061304d86828701612bdd565b9150509250925092565b60008060008060808587031215613071576130706139f2565b5b600085013567ffffffffffffffff81111561308f5761308e6139ed565b5b61309b87828801612c1c565b945050602085013567ffffffffffffffff8111156130bc576130bb6139ed565b5b6130c887828801612c1c565b93505060406130d987828801612bdd565b92505060606130ea87828801612bdd565b91505092959194509250565b60006131028383613136565b60208301905092915050565b600061311a83836132ab565b905092915050565b600061312e8383613443565b905092915050565b61313f8161384d565b82525050565b61314e8161384d565b82525050565b600061315f8261379a565b61316981856137ed565b93506131748361376a565b8060005b838110156131a557815161318c88826130f6565b9750613197836137c6565b925050600181019050613178565b5085935050505092915050565b60006131bd826137a5565b6131c781856137fe565b9350836020820285016131d98561377a565b8060005b8581101561321557848403895281516131f6858261310e565b9450613201836137d3565b925060208a019950506001810190506131dd565b50829750879550505050505092915050565b6000613232826137b0565b61323c818561380f565b93508360208202850161324e8561378a565b8060005b8581101561328a578484038952815161326b8582613122565b9450613276836137e0565b925060208a01995050600181019050613252565b50829750879550505050505092915050565b6132a581613871565b82525050565b60006132b6826137bb565b6132c08185613820565b93506132d08185602086016138c0565b6132d9816139f7565b840191505092915050565b60006132ef826137bb565b6132f98185613831565b93506133098185602086016138c0565b613312816139f7565b840191505092915050565b6000613328826137bb565b6133328185613842565b93506133428185602086016138c0565b80840191505092915050565b600061335b602283613831565b915061336682613a08565b604082019050919050565b600061337e600b83613831565b915061338982613a57565b602082019050919050565b60006133a1600983613831565b91506133ac82613a80565b602082019050919050565b60006133c4600c83613831565b91506133cf82613aa9565b602082019050919050565b60006133e7600d83613831565b91506133f282613ad2565b602082019050919050565b600061340a601683613831565b915061341582613afb565b602082019050919050565b600061342d600b83613831565b915061343882613b24565b602082019050919050565b600060808301600083015161345b6000860182613136565b506020830151848203602086015261347382826132ab565b9150506040830151848203604086015261348d82826132ab565b91505060608301516134a2606086018261329c565b508091505092915050565b6134b6816138a7565b82525050565b60006134c8828461331d565b915081905092915050565b60006040820190506134e86000830185613145565b81810360208301526134fa81846132e4565b90509392505050565b6000608082019050818103600083015261351d81876132e4565b905081810360208301526135318186613227565b9050818103604083015261354581856131b2565b905081810360608301526135598184613154565b905095945050505050565b600060a082019050818103600083015261357e81886132e4565b9050818103602083015261359281876132e4565b905081810360408301526135a681866132e4565b905081810360608301526135ba81856132e4565b905081810360808301526135ce81846131b2565b90509695505050505050565b600060808201905081810360008301526135f481876132e4565b9050818103602083015261360881866132e4565b905061361760408301856134ad565b818103606083015261362981846131b2565b905095945050505050565b6000602082019050818103600083015261364d8161334e565b9050919050565b6000602082019050818103600083015261366d81613371565b9050919050565b6000602082019050818103600083015261368d81613394565b9050919050565b600060208201905081810360008301526136ad816133b7565b9050919050565b600060208201905081810360008301526136cd816133da565b9050919050565b600060208201905081810360008301526136ed816133fd565b9050919050565b6000602082019050818103600083015261370d81613420565b9050919050565b600061371e61372f565b905061372a8282613925565b919050565b6000604051905090565b600067ffffffffffffffff821115613754576137536139b4565b5b61375d826139f7565b9050602081019050919050565b6000819050602082019050919050565b6000819050602082019050919050565b6000819050602082019050919050565b600081519050919050565b600081519050919050565b600081519050919050565b600081519050919050565b6000602082019050919050565b6000602082019050919050565b6000602082019050919050565b600082825260208201905092915050565b600082825260208201905092915050565b600082825260208201905092915050565b600082825260208201905092915050565b600082825260208201905092915050565b600081905092915050565b600061385882613887565b9050919050565b600061386a82613887565b9050919050565b60008115159050919050565b6000819050919050565b600073ffffffffffffffffffffffffffffffffffffffff82169050919050565b6000819050919050565b82818337600083830152505050565b60005b838110156138de5780820151818401526020810190506138c3565b838111156138ed576000848401525b50505050565b6000600282049050600182168061390b57607f821691505b6020821081141561391f5761391e613985565b5b50919050565b61392e826139f7565b810181811067ffffffffffffffff8211171561394d5761394c6139b4565b5b80604052505050565b7f4e487b7100000000000000000000000000000000000000000000000000000000600052602160045260246000fd5b7f4e487b7100000000000000000000000000000000000000000000000000000000600052602260045260246000fd5b7f4e487b7100000000000000000000000000000000000000000000000000000000600052604160045260246000fd5b600080fd5b600080fd5b600080fd5b600080fd5b6000601f19601f8301169050919050565b7f596f7572206c6f67696e20616c726561647920657869737420696e207379737460008201527f656d000000000000000000000000000000000000000000000000000000000000602082015250565b7f4c6f772062616c616e6365000000000000000000000000000000000000000000600082015250565b7f466f7262696464656e0000000000000000000000000000000000000000000000600082015250565b7f596f75206e6f7420757365720000000000000000000000000000000000000000600082015250565b7f596f75206e6f742061646d696e00000000000000000000000000000000000000600082015250565b7f596f7520616c7265616479207265676973746572656400000000000000000000600082015250565b7f57726f6e67204c6f67696e000000000000000000000000000000000000000000600082015250565b613b568161384d565b8114613b6157600080fd5b50565b613b6d8161385f565b8114613b7857600080fd5b50565b613b848161387d565b8114613b8f57600080fd5b5056fea26469706673582212207082db263056d36cbf313190cd9b8426163a8a8f41a0005d95d23535b49e3f1c64736f6c63430008070033",
					"opcodes": "PUSH1 0x80 PUSH1 0x40 MSTORE CALLVALUE DUP1 ISZERO PUSH3 0x11 JUMPI PUSH1 0x0 DUP1 REVERT JUMPDEST POP PUSH1 0x40 MLOAD DUP1 PUSH1 0x40 ADD PUSH1 0x40 MSTORE DUP1 PUSH1 0x5 DUP2 MSTORE PUSH1 0x20 ADD PUSH32 0x6275796572000000000000000000000000000000000000000000000000000000 DUP2 MSTORE POP PUSH1 0x0 DUP1 DUP1 DUP2 MSTORE PUSH1 0x20 ADD SWAP1 DUP2 MSTORE PUSH1 0x20 ADD PUSH1 0x0 KECCAK256 SWAP1 DUP1 MLOAD SWAP1 PUSH1 0x20 ADD SWAP1 PUSH3 0x6F SWAP3 SWAP2 SWAP1 PUSH3 0x292 JUMP JUMPDEST POP PUSH1 0x40 MLOAD DUP1 PUSH1 0x40 ADD PUSH1 0x40 MSTORE DUP1 PUSH1 0x6 DUP2 MSTORE PUSH1 0x20 ADD PUSH32 0x73656C6C65720000000000000000000000000000000000000000000000000000 DUP2 MSTORE POP PUSH1 0x0 DUP1 PUSH1 0x1 DUP2 MSTORE PUSH1 0x20 ADD SWAP1 DUP2 MSTORE PUSH1 0x20 ADD PUSH1 0x0 KECCAK256 SWAP1 DUP1 MLOAD SWAP1 PUSH1 0x20 ADD SWAP1 PUSH3 0xCE SWAP3 SWAP2 SWAP1 PUSH3 0x292 JUMP JUMPDEST POP PUSH1 0x40 MLOAD DUP1 PUSH1 0x40 ADD PUSH1 0x40 MSTORE DUP1 PUSH1 0x4 DUP2 MSTORE PUSH1 0x20 ADD PUSH32 0x73686F7000000000000000000000000000000000000000000000000000000000 DUP2 MSTORE POP PUSH1 0x0 DUP1 PUSH1 0x2 DUP2 MSTORE PUSH1 0x20 ADD SWAP1 DUP2 MSTORE PUSH1 0x20 ADD PUSH1 0x0 KECCAK256 SWAP1 DUP1 MLOAD SWAP1 PUSH1 0x20 ADD SWAP1 PUSH3 0x12D SWAP3 SWAP2 SWAP1 PUSH3 0x292 JUMP JUMPDEST POP PUSH1 0x40 MLOAD DUP1 PUSH1 0x40 ADD PUSH1 0x40 MSTORE DUP1 PUSH1 0x5 DUP2 MSTORE PUSH1 0x20 ADD PUSH32 0x61646D696E000000000000000000000000000000000000000000000000000000 DUP2 MSTORE POP PUSH1 0x0 DUP1 PUSH1 0x3 DUP2 MSTORE PUSH1 0x20 ADD SWAP1 DUP2 MSTORE PUSH1 0x20 ADD PUSH1 0x0 KECCAK256 SWAP1 DUP1 MLOAD SWAP1 PUSH1 0x20 ADD SWAP1 PUSH3 0x18C SWAP3 SWAP2 SWAP1 PUSH3 0x292 JUMP JUMPDEST POP PUSH1 0x40 MLOAD DUP1 PUSH1 0x40 ADD PUSH1 0x40 MSTORE DUP1 PUSH1 0x8 DUP2 MSTORE PUSH1 0x20 ADD PUSH32 0x70726F7669646572000000000000000000000000000000000000000000000000 DUP2 MSTORE POP PUSH1 0x0 DUP1 PUSH1 0x4 DUP2 MSTORE PUSH1 0x20 ADD SWAP1 DUP2 MSTORE PUSH1 0x20 ADD PUSH1 0x0 KECCAK256 SWAP1 DUP1 MLOAD SWAP1 PUSH1 0x20 ADD SWAP1 PUSH3 0x1EB SWAP3 SWAP2 SWAP1 PUSH3 0x292 JUMP JUMPDEST POP PUSH1 0x40 MLOAD DUP1 PUSH1 0x40 ADD PUSH1 0x40 MSTORE DUP1 PUSH1 0x4 DUP2 MSTORE PUSH1 0x20 ADD PUSH32 0x62616E6B00000000000000000000000000000000000000000000000000000000 DUP2 MSTORE POP PUSH1 0x0 DUP1 PUSH1 0x5 DUP2 MSTORE PUSH1 0x20 ADD SWAP1 DUP2 MSTORE PUSH1 0x20 ADD PUSH1 0x0 KECCAK256 SWAP1 DUP1 MLOAD SWAP1 PUSH1 0x20 ADD SWAP1 PUSH3 0x24A SWAP3 SWAP2 SWAP1 PUSH3 0x292 JUMP JUMPDEST POP CALLER PUSH1 0x4 PUSH1 0x0 PUSH2 0x100 EXP DUP2 SLOAD DUP2 PUSH20 0xFFFFFFFFFFFFFFFFFFFFFFFFFFFFFFFFFFFFFFFF MUL NOT AND SWAP1 DUP4 PUSH20 0xFFFFFFFFFFFFFFFFFFFFFFFFFFFFFFFFFFFFFFFF AND MUL OR SWAP1 SSTORE POP PUSH3 0x3A7 JUMP JUMPDEST DUP3 DUP1 SLOAD PUSH3 0x2A0 SWAP1 PUSH3 0x342 JUMP JUMPDEST SWAP1 PUSH1 0x0 MSTORE PUSH1 0x20 PUSH1 0x0 KECCAK256 SWAP1 PUSH1 0x1F ADD PUSH1 0x20 SWAP1 DIV DUP2 ADD SWAP3 DUP3 PUSH3 0x2C4 JUMPI PUSH1 0x0 DUP6 SSTORE PUSH3 0x310 JUMP JUMPDEST DUP3 PUSH1 0x1F LT PUSH3 0x2DF JUMPI DUP1 MLOAD PUSH1 0xFF NOT AND DUP4 DUP1 ADD OR DUP6 SSTORE PUSH3 0x310 JUMP JUMPDEST DUP3 DUP1 ADD PUSH1 0x1 ADD DUP6 SSTORE DUP3 ISZERO PUSH3 0x310 JUMPI SWAP2 DUP3 ADD JUMPDEST DUP3 DUP2 GT ISZERO PUSH3 0x30F JUMPI DUP3 MLOAD DUP3 SSTORE SWAP2 PUSH1 0x20 ADD SWAP2 SWAP1 PUSH1 0x1 ADD SWAP1 PUSH3 0x2F2 JUMP JUMPDEST JUMPDEST POP SWAP1 POP PUSH3 0x31F SWAP2 SWAP1 PUSH3 0x323 JUMP JUMPDEST POP SWAP1 JUMP JUMPDEST JUMPDEST DUP1 DUP3 GT ISZERO PUSH3 0x33E JUMPI PUSH1 0x0 DUP2 PUSH1 0x0 SWAP1 SSTORE POP PUSH1 0x1 ADD PUSH3 0x324 JUMP JUMPDEST POP SWAP1 JUMP JUMPDEST PUSH1 0x0 PUSH1 0x2 DUP3 DIV SWAP1 POP PUSH1 0x1 DUP3 AND DUP1 PUSH3 0x35B JUMPI PUSH1 0x7F DUP3 AND SWAP2 POP JUMPDEST PUSH1 0x20 DUP3 LT DUP2 EQ ISZERO PUSH3 0x372 JUMPI PUSH3 0x371 PUSH3 0x378 JUMP JUMPDEST JUMPDEST POP SWAP2 SWAP1 POP JUMP JUMPDEST PUSH32 0x4E487B7100000000000000000000000000000000000000000000000000000000 PUSH1 0x0 MSTORE PUSH1 0x22 PUSH1 0x4 MSTORE PUSH1 0x24 PUSH1 0x0 REVERT JUMPDEST PUSH2 0x3BC8 DUP1 PUSH3 0x3B7 PUSH1 0x0 CODECOPY PUSH1 0x0 RETURN INVALID PUSH1 0x80 PUSH1 0x40 MSTORE CALLVALUE DUP1 ISZERO PUSH2 0x10 JUMPI PUSH1 0x0 DUP1 REVERT JUMPDEST POP PUSH1 0x4 CALLDATASIZE LT PUSH2 0xF5 JUMPI PUSH1 0x0 CALLDATALOAD PUSH1 0xE0 SHR DUP1 PUSH4 0x7CCB2BD8 GT PUSH2 0x97 JUMPI DUP1 PUSH4 0x9D344D10 GT PUSH2 0x66 JUMPI DUP1 PUSH4 0x9D344D10 EQ PUSH2 0x266 JUMPI DUP1 PUSH4 0xA59D105F EQ PUSH2 0x282 JUMPI DUP1 PUSH4 0xC3D5FD39 EQ PUSH2 0x29E JUMPI DUP1 PUSH4 0xF8F98B79 EQ PUSH2 0x2BF JUMPI PUSH2 0xF5 JUMP JUMPDEST DUP1 PUSH4 0x7CCB2BD8 EQ PUSH2 0x1F1 JUMPI DUP1 PUSH4 0x83DB0F6D EQ PUSH2 0x20D JUMPI DUP1 PUSH4 0x8403F848 EQ PUSH2 0x229 JUMPI DUP1 PUSH4 0x99B958EE EQ PUSH2 0x245 JUMPI PUSH2 0xF5 JUMP JUMPDEST DUP1 PUSH4 0x3A7D280C GT PUSH2 0xD3 JUMPI DUP1 PUSH4 0x3A7D280C EQ PUSH2 0x166 JUMPI DUP1 PUSH4 0x54504C12 EQ PUSH2 0x197 JUMPI DUP1 PUSH4 0x7558B2F8 EQ PUSH2 0x1B9 JUMPI DUP1 PUSH4 0x7B3C7488 EQ PUSH2 0x1D5 JUMPI PUSH2 0xF5 JUMP JUMPDEST DUP1 PUSH4 0x8E74858 EQ PUSH2 0xFA JUMPI DUP1 PUSH4 0x2156A781 EQ PUSH2 0x12E JUMPI DUP1 PUSH4 0x3A708737 EQ PUSH2 0x14A JUMPI JUMPDEST PUSH1 0x0 DUP1 REVERT JUMPDEST PUSH2 0x114 PUSH1 0x4 DUP1 CALLDATASIZE SUB DUP2 ADD SWAP1 PUSH2 0x10F SWAP2 SWAP1 PUSH2 0x2C4A JUMP JUMPDEST PUSH2 0x2DB JUMP JUMPDEST PUSH1 0x40 MLOAD PUSH2 0x125 SWAP6 SWAP5 SWAP4 SWAP3 SWAP2 SWAP1 PUSH2 0x3564 JUMP JUMPDEST PUSH1 0x40 MLOAD DUP1 SWAP2 SUB SWAP1 RETURN JUMPDEST PUSH2 0x148 PUSH1 0x4 DUP1 CALLDATASIZE SUB DUP2 ADD SWAP1 PUSH2 0x143 SWAP2 SWAP1 PUSH2 0x2EF8 JUMP JUMPDEST PUSH2 0x7E0 JUMP JUMPDEST STOP JUMPDEST PUSH2 0x164 PUSH1 0x4 DUP1 CALLDATASIZE SUB DUP2 ADD SWAP1 PUSH2 0x15F SWAP2 SWAP1 PUSH2 0x2D2F JUMP JUMPDEST PUSH2 0x8A7 JUMP JUMPDEST STOP JUMPDEST PUSH2 0x180 PUSH1 0x4 DUP1 CALLDATASIZE SUB DUP2 ADD SWAP1 PUSH2 0x17B SWAP2 SWAP1 PUSH2 0x2EAF JUMP JUMPDEST PUSH2 0xB96 JUMP JUMPDEST PUSH1 0x40 MLOAD PUSH2 0x18E SWAP3 SWAP2 SWAP1 PUSH2 0x34D3 JUMP JUMPDEST PUSH1 0x40 MLOAD DUP1 SWAP2 SUB SWAP1 RETURN JUMPDEST PUSH2 0x19F PUSH2 0xF8D JUMP JUMPDEST PUSH1 0x40 MLOAD PUSH2 0x1B0 SWAP6 SWAP5 SWAP4 SWAP3 SWAP2 SWAP1 PUSH2 0x3564 JUMP JUMPDEST PUSH1 0x40 MLOAD DUP1 SWAP2 SUB SWAP1 RETURN JUMPDEST PUSH2 0x1D3 PUSH1 0x4 DUP1 CALLDATASIZE SUB DUP2 ADD SWAP1 PUSH2 0x1CE SWAP2 SWAP1 PUSH2 0x2DF4 JUMP JUMPDEST PUSH2 0x1490 JUMP JUMPDEST STOP JUMPDEST PUSH2 0x1EF PUSH1 0x4 DUP1 CALLDATASIZE SUB DUP2 ADD SWAP1 PUSH2 0x1EA SWAP2 SWAP1 PUSH2 0x2EAF JUMP JUMPDEST PUSH2 0x160B JUMP JUMPDEST STOP JUMPDEST PUSH2 0x20B PUSH1 0x4 DUP1 CALLDATASIZE SUB DUP2 ADD SWAP1 PUSH2 0x206 SWAP2 SWAP1 PUSH2 0x2EF8 JUMP JUMPDEST PUSH2 0x1731 JUMP JUMPDEST STOP JUMPDEST PUSH2 0x227 PUSH1 0x4 DUP1 CALLDATASIZE SUB DUP2 ADD SWAP1 PUSH2 0x222 SWAP2 SWAP1 PUSH2 0x2C77 JUMP JUMPDEST PUSH2 0x183A JUMP JUMPDEST STOP JUMPDEST PUSH2 0x243 PUSH1 0x4 DUP1 CALLDATASIZE SUB DUP2 ADD SWAP1 PUSH2 0x23E SWAP2 SWAP1 PUSH2 0x3057 JUMP JUMPDEST PUSH2 0x1989 JUMP JUMPDEST STOP JUMPDEST PUSH2 0x24D PUSH2 0x1AB7 JUMP JUMPDEST PUSH1 0x40 MLOAD PUSH2 0x25D SWAP5 SWAP4 SWAP3 SWAP2 SWAP1 PUSH2 0x35DA JUMP JUMPDEST PUSH1 0x40 MLOAD DUP1 SWAP2 SUB SWAP1 RETURN JUMPDEST PUSH2 0x280 PUSH1 0x4 DUP1 CALLDATASIZE SUB DUP2 ADD SWAP1 PUSH2 0x27B SWAP2 SWAP1 PUSH2 0x2FCC JUMP JUMPDEST PUSH2 0x1E6C JUMP JUMPDEST STOP JUMPDEST PUSH2 0x29C PUSH1 0x4 DUP1 CALLDATASIZE SUB DUP2 ADD SWAP1 PUSH2 0x297 SWAP2 SWAP1 PUSH2 0x2CA4 JUMP JUMPDEST PUSH2 0x1E95 JUMP JUMPDEST STOP JUMPDEST PUSH2 0x2A6 PUSH2 0x1F94 JUMP JUMPDEST PUSH1 0x40 MLOAD PUSH2 0x2B6 SWAP5 SWAP4 SWAP3 SWAP2 SWAP1 PUSH2 0x3503 JUMP JUMPDEST PUSH1 0x40 MLOAD DUP1 SWAP2 SUB SWAP1 RETURN JUMPDEST PUSH2 0x2D9 PUSH1 0x4 DUP1 CALLDATASIZE SUB DUP2 ADD SWAP1 PUSH2 0x2D4 SWAP2 SWAP1 PUSH2 0x2F54 JUMP JUMPDEST PUSH2 0x25E2 JUMP JUMPDEST STOP JUMPDEST PUSH1 0x60 DUP1 PUSH1 0x60 DUP1 PUSH1 0x60 PUSH1 0x3 PUSH1 0x2 PUSH1 0x0 CALLER PUSH20 0xFFFFFFFFFFFFFFFFFFFFFFFFFFFFFFFFFFFFFFFF AND PUSH20 0xFFFFFFFFFFFFFFFFFFFFFFFFFFFFFFFFFFFFFFFF AND DUP2 MSTORE PUSH1 0x20 ADD SWAP1 DUP2 MSTORE PUSH1 0x20 ADD PUSH1 0x0 KECCAK256 PUSH1 0x0 ADD SLOAD DUP2 PUSH1 0x5 DUP2 GT ISZERO PUSH2 0x33B JUMPI PUSH2 0x33A PUSH2 0x3956 JUMP JUMPDEST JUMPDEST EQ PUSH2 0x37B JUMPI PUSH1 0x40 MLOAD PUSH32 0x8C379A000000000000000000000000000000000000000000000000000000000 DUP2 MSTORE PUSH1 0x4 ADD PUSH2 0x372 SWAP1 PUSH2 0x3674 JUMP JUMPDEST PUSH1 0x40 MLOAD DUP1 SWAP2 SUB SWAP1 REVERT JUMPDEST PUSH1 0x0 PUSH1 0x2 PUSH1 0x0 DUP10 PUSH20 0xFFFFFFFFFFFFFFFFFFFFFFFFFFFFFFFFFFFFFFFF AND PUSH20 0xFFFFFFFFFFFFFFFFFFFFFFFFFFFFFFFFFFFFFFFF AND DUP2 MSTORE PUSH1 0x20 ADD SWAP1 DUP2 MSTORE PUSH1 0x20 ADD PUSH1 0x0 KECCAK256 PUSH1 0x40 MLOAD DUP1 PUSH1 0x80 ADD PUSH1 0x40 MSTORE SWAP1 DUP2 PUSH1 0x0 DUP3 ADD SLOAD DUP2 MSTORE PUSH1 0x20 ADD PUSH1 0x1 DUP3 ADD DUP1 SLOAD PUSH2 0x3E1 SWAP1 PUSH2 0x38F3 JUMP JUMPDEST DUP1 PUSH1 0x1F ADD PUSH1 0x20 DUP1 SWAP2 DIV MUL PUSH1 0x20 ADD PUSH1 0x40 MLOAD SWAP1 DUP2 ADD PUSH1 0x40 MSTORE DUP1 SWAP3 SWAP2 SWAP1 DUP2 DUP2 MSTORE PUSH1 0x20 ADD DUP3 DUP1 SLOAD PUSH2 0x40D SWAP1 PUSH2 0x38F3 JUMP JUMPDEST DUP1 ISZERO PUSH2 0x45A JUMPI DUP1 PUSH1 0x1F LT PUSH2 0x42F JUMPI PUSH2 0x100 DUP1 DUP4 SLOAD DIV MUL DUP4 MSTORE SWAP2 PUSH1 0x20 ADD SWAP2 PUSH2 0x45A JUMP JUMPDEST DUP3 ADD SWAP2 SWAP1 PUSH1 0x0 MSTORE PUSH1 0x20 PUSH1 0x0 KECCAK256 SWAP1 JUMPDEST DUP2 SLOAD DUP2 MSTORE SWAP1 PUSH1 0x1 ADD SWAP1 PUSH1 0x20 ADD DUP1 DUP4 GT PUSH2 0x43D JUMPI DUP3 SWAP1 SUB PUSH1 0x1F AND DUP3 ADD SWAP2 JUMPDEST POP POP POP POP POP DUP2 MSTORE PUSH1 0x20 ADD PUSH1 0x2 DUP3 ADD DUP1 SLOAD PUSH2 0x473 SWAP1 PUSH2 0x38F3 JUMP JUMPDEST DUP1 PUSH1 0x1F ADD PUSH1 0x20 DUP1 SWAP2 DIV MUL PUSH1 0x20 ADD PUSH1 0x40 MLOAD SWAP1 DUP2 ADD PUSH1 0x40 MSTORE DUP1 SWAP3 SWAP2 SWAP1 DUP2 DUP2 MSTORE PUSH1 0x20 ADD DUP3 DUP1 SLOAD PUSH2 0x49F SWAP1 PUSH2 0x38F3 JUMP JUMPDEST DUP1 ISZERO PUSH2 0x4EC JUMPI DUP1 PUSH1 0x1F LT PUSH2 0x4C1 JUMPI PUSH2 0x100 DUP1 DUP4 SLOAD DIV MUL DUP4 MSTORE SWAP2 PUSH1 0x20 ADD SWAP2 PUSH2 0x4EC JUMP JUMPDEST DUP3 ADD SWAP2 SWAP1 PUSH1 0x0 MSTORE PUSH1 0x20 PUSH1 0x0 KECCAK256 SWAP1 JUMPDEST DUP2 SLOAD DUP2 MSTORE SWAP1 PUSH1 0x1 ADD SWAP1 PUSH1 0x20 ADD DUP1 DUP4 GT PUSH2 0x4CF JUMPI DUP3 SWAP1 SUB PUSH1 0x1F AND DUP3 ADD SWAP2 JUMPDEST POP POP POP POP POP DUP2 MSTORE PUSH1 0x20 ADD PUSH1 0x3 DUP3 ADD DUP1 SLOAD DUP1 PUSH1 0x20 MUL PUSH1 0x20 ADD PUSH1 0x40 MLOAD SWAP1 DUP2 ADD PUSH1 0x40 MSTORE DUP1 SWAP3 SWAP2 SWAP1 DUP2 DUP2 MSTORE PUSH1 0x20 ADD PUSH1 0x0 SWAP1 JUMPDEST DUP3 DUP3 LT ISZERO PUSH2 0x5C6 JUMPI DUP4 DUP3 SWAP1 PUSH1 0x0 MSTORE PUSH1 0x20 PUSH1 0x0 KECCAK256 ADD DUP1 SLOAD PUSH2 0x539 SWAP1 PUSH2 0x38F3 JUMP JUMPDEST DUP1 PUSH1 0x1F ADD PUSH1 0x20 DUP1 SWAP2 DIV MUL PUSH1 0x20 ADD PUSH1 0x40 MLOAD SWAP1 DUP2 ADD PUSH1 0x40 MSTORE DUP1 SWAP3 SWAP2 SWAP1 DUP2 DUP2 MSTORE PUSH1 0x20 ADD DUP3 DUP1 SLOAD PUSH2 0x565 SWAP1 PUSH2 0x38F3 JUMP JUMPDEST DUP1 ISZERO PUSH2 0x5B2 JUMPI DUP1 PUSH1 0x1F LT PUSH2 0x587 JUMPI PUSH2 0x100 DUP1 DUP4 SLOAD DIV MUL DUP4 MSTORE SWAP2 PUSH1 0x20 ADD SWAP2 PUSH2 0x5B2 JUMP JUMPDEST DUP3 ADD SWAP2 SWAP1 PUSH1 0x0 MSTORE PUSH1 0x20 PUSH1 0x0 KECCAK256 SWAP1 JUMPDEST DUP2 SLOAD DUP2 MSTORE SWAP1 PUSH1 0x1 ADD SWAP1 PUSH1 0x20 ADD DUP1 DUP4 GT PUSH2 0x595 JUMPI DUP3 SWAP1 SUB PUSH1 0x1F AND DUP3 ADD SWAP2 JUMPDEST POP POP POP POP POP DUP2 MSTORE PUSH1 0x20 ADD SWAP1 PUSH1 0x1 ADD SWAP1 PUSH2 0x51A JUMP JUMPDEST POP POP POP POP DUP2 MSTORE POP POP SWAP1 POP PUSH1 0x0 PUSH1 0xB PUSH1 0x0 DUP11 PUSH20 0xFFFFFFFFFFFFFFFFFFFFFFFFFFFFFFFFFFFFFFFF AND PUSH20 0xFFFFFFFFFFFFFFFFFFFFFFFFFFFFFFFFFFFFFFFF AND DUP2 MSTORE PUSH1 0x20 ADD SWAP1 DUP2 MSTORE PUSH1 0x20 ADD PUSH1 0x0 KECCAK256 PUSH1 0x0 SWAP1 SLOAD SWAP1 PUSH2 0x100 EXP SWAP1 DIV PUSH20 0xFFFFFFFFFFFFFFFFFFFFFFFFFFFFFFFFFFFFFFFF AND SWAP1 POP PUSH1 0x0 PUSH1 0xA PUSH1 0x0 DUP4 PUSH20 0xFFFFFFFFFFFFFFFFFFFFFFFFFFFFFFFFFFFFFFFF AND PUSH20 0xFFFFFFFFFFFFFFFFFFFFFFFFFFFFFFFFFFFFFFFF AND DUP2 MSTORE PUSH1 0x20 ADD SWAP1 DUP2 MSTORE PUSH1 0x20 ADD PUSH1 0x0 KECCAK256 PUSH1 0x40 MLOAD DUP1 PUSH1 0x60 ADD PUSH1 0x40 MSTORE SWAP1 DUP2 PUSH1 0x0 DUP3 ADD DUP1 SLOAD PUSH2 0x690 SWAP1 PUSH2 0x38F3 JUMP JUMPDEST DUP1 PUSH1 0x1F ADD PUSH1 0x20 DUP1 SWAP2 DIV MUL PUSH1 0x20 ADD PUSH1 0x40 MLOAD SWAP1 DUP2 ADD PUSH1 0x40 MSTORE DUP1 SWAP3 SWAP2 SWAP1 DUP2 DUP2 MSTORE PUSH1 0x20 ADD DUP3 DUP1 SLOAD PUSH2 0x6BC SWAP1 PUSH2 0x38F3 JUMP JUMPDEST DUP1 ISZERO PUSH2 0x709 JUMPI DUP1 PUSH1 0x1F LT PUSH2 0x6DE JUMPI PUSH2 0x100 DUP1 DUP4 SLOAD DIV MUL DUP4 MSTORE SWAP2 PUSH1 0x20 ADD SWAP2 PUSH2 0x709 JUMP JUMPDEST DUP3 ADD SWAP2 SWAP1 PUSH1 0x0 MSTORE PUSH1 0x20 PUSH1 0x0 KECCAK256 SWAP1 JUMPDEST DUP2 SLOAD DUP2 MSTORE SWAP1 PUSH1 0x1 ADD SWAP1 PUSH1 0x20 ADD DUP1 DUP4 GT PUSH2 0x6EC JUMPI DUP3 SWAP1 SUB PUSH1 0x1F AND DUP3 ADD SWAP2 JUMPDEST POP POP POP POP POP DUP2 MSTORE PUSH1 0x20 ADD PUSH1 0x1 DUP3 ADD DUP1 SLOAD PUSH2 0x722 SWAP1 PUSH2 0x38F3 JUMP JUMPDEST DUP1 PUSH1 0x1F ADD PUSH1 0x20 DUP1 SWAP2 DIV MUL PUSH1 0x20 ADD PUSH1 0x40 MLOAD SWAP1 DUP2 ADD PUSH1 0x40 MSTORE DUP1 SWAP3 SWAP2 SWAP1 DUP2 DUP2 MSTORE PUSH1 0x20 ADD DUP3 DUP1 SLOAD PUSH2 0x74E SWAP1 PUSH2 0x38F3 JUMP JUMPDEST DUP1 ISZERO PUSH2 0x79B JUMPI DUP1 PUSH1 0x1F LT PUSH2 0x770 JUMPI PUSH2 0x100 DUP1 DUP4 SLOAD DIV MUL DUP4 MSTORE SWAP2 PUSH1 0x20 ADD SWAP2 PUSH2 0x79B JUMP JUMPDEST DUP3 ADD SWAP2 SWAP1 PUSH1 0x0 MSTORE PUSH1 0x20 PUSH1 0x0 KECCAK256 SWAP1 JUMPDEST DUP2 SLOAD DUP2 MSTORE SWAP1 PUSH1 0x1 ADD SWAP1 PUSH1 0x20 ADD DUP1 DUP4 GT PUSH2 0x77E JUMPI DUP3 SWAP1 SUB PUSH1 0x1F AND DUP3 ADD SWAP2 JUMPDEST POP POP POP POP POP DUP2 MSTORE PUSH1 0x20 ADD PUSH1 0x2 DUP3 ADD SLOAD DUP2 MSTORE POP POP SWAP1 POP DUP3 PUSH1 0x20 ADD MLOAD SWAP9 POP DUP3 PUSH1 0x40 ADD MLOAD SWAP8 POP DUP1 PUSH1 0x20 ADD MLOAD SWAP7 POP DUP1 PUSH1 0x0 ADD MLOAD SWAP6 POP DUP3 PUSH1 0x60 ADD MLOAD SWAP5 POP POP POP POP POP SWAP2 SWAP4 SWAP6 SWAP1 SWAP3 SWAP5 POP JUMP JUMPDEST PUSH1 0x4 PUSH1 0x0 SWAP1 SLOAD SWAP1 PUSH2 0x100 EXP SWAP1 DIV PUSH20 0xFFFFFFFFFFFFFFFFFFFFFFFFFFFFFFFFFFFFFFFF AND PUSH20 0xFFFFFFFFFFFFFFFFFFFFFFFFFFFFFFFFFFFFFFFF AND CALLER PUSH20 0xFFFFFFFFFFFFFFFFFFFFFFFFFFFFFFFFFFFFFFFF AND EQ PUSH2 0x870 JUMPI PUSH1 0x40 MLOAD PUSH32 0x8C379A000000000000000000000000000000000000000000000000000000000 DUP2 MSTORE PUSH1 0x4 ADD PUSH2 0x867 SWAP1 PUSH2 0x36B4 JUMP JUMPDEST PUSH1 0x40 MLOAD DUP1 SWAP2 SUB SWAP1 REVERT JUMPDEST PUSH1 0x0 PUSH1 0x5 DUP1 DUP2 GT ISZERO PUSH2 0x885 JUMPI PUSH2 0x884 PUSH2 0x3956 JUMP JUMPDEST JUMPDEST SWAP1 POP PUSH2 0x8A2 PUSH1 0x40 MLOAD DUP1 PUSH1 0x20 ADD PUSH1 0x40 MSTORE DUP1 PUSH1 0x0 DUP2 MSTORE POP DUP5 DUP4 DUP6 PUSH2 0x26D7 JUMP JUMPDEST POP POP POP JUMP JUMPDEST PUSH2 0x98A PUSH1 0x2 PUSH1 0x0 CALLER PUSH20 0xFFFFFFFFFFFFFFFFFFFFFFFFFFFFFFFFFFFFFFFF AND PUSH20 0xFFFFFFFFFFFFFFFFFFFFFFFFFFFFFFFFFFFFFFFF AND DUP2 MSTORE PUSH1 0x20 ADD SWAP1 DUP2 MSTORE PUSH1 0x20 ADD PUSH1 0x0 KECCAK256 PUSH1 0x1 ADD DUP1 SLOAD PUSH2 0x8F7 SWAP1 PUSH2 0x38F3 JUMP JUMPDEST DUP1 PUSH1 0x1F ADD PUSH1 0x20 DUP1 SWAP2 DIV MUL PUSH1 0x20 ADD PUSH1 0x40 MLOAD SWAP1 DUP2 ADD PUSH1 0x40 MSTORE DUP1 SWAP3 SWAP2 SWAP1 DUP2 DUP2 MSTORE PUSH1 0x20 ADD DUP3 DUP1 SLOAD PUSH2 0x923 SWAP1 PUSH2 0x38F3 JUMP JUMPDEST DUP1 ISZERO PUSH2 0x970 JUMPI DUP1 PUSH1 0x1F LT PUSH2 0x945 JUMPI PUSH2 0x100 DUP1 DUP4 SLOAD DIV MUL DUP4 MSTORE SWAP2 PUSH1 0x20 ADD SWAP2 PUSH2 0x970 JUMP JUMPDEST DUP3 ADD SWAP2 SWAP1 PUSH1 0x0 MSTORE PUSH1 0x20 PUSH1 0x0 KECCAK256 SWAP1 JUMPDEST DUP2 SLOAD DUP2 MSTORE SWAP1 PUSH1 0x1 ADD SWAP1 PUSH1 0x20 ADD DUP1 DUP4 GT PUSH2 0x953 JUMPI DUP3 SWAP1 SUB PUSH1 0x1F AND DUP3 ADD SWAP2 JUMPDEST POP POP POP POP POP PUSH1 0x40 MLOAD DUP1 PUSH1 0x20 ADD PUSH1 0x40 MSTORE DUP1 PUSH1 0x0 DUP2 MSTORE POP PUSH2 0x29DB JUMP JUMPDEST ISZERO PUSH2 0x9CA JUMPI PUSH1 0x40 MLOAD PUSH32 0x8C379A000000000000000000000000000000000000000000000000000000000 DUP2 MSTORE PUSH1 0x4 ADD PUSH2 0x9C1 SWAP1 PUSH2 0x3694 JUMP JUMPDEST PUSH1 0x40 MLOAD DUP1 SWAP2 SUB SWAP1 REVERT JUMPDEST PUSH1 0x0 PUSH1 0x40 MLOAD DUP1 PUSH1 0xC0 ADD PUSH1 0x40 MSTORE DUP1 CALLER PUSH20 0xFFFFFFFFFFFFFFFFFFFFFFFFFFFFFFFFFFFFFFFF AND DUP2 MSTORE PUSH1 0x20 ADD DUP9 PUSH20 0xFFFFFFFFFFFFFFFFFFFFFFFFFFFFFFFFFFFFFFFF AND DUP2 MSTORE PUSH1 0x20 ADD DUP8 DUP2 MSTORE PUSH1 0x20 ADD PUSH1 0x0 DUP2 MSTORE PUSH1 0x20 ADD PUSH1 0x0 DUP2 MSTORE PUSH1 0x20 ADD DUP4 DUP2 MSTORE POP SWAP1 POP PUSH1 0xD PUSH1 0x0 DUP9 PUSH20 0xFFFFFFFFFFFFFFFFFFFFFFFFFFFFFFFFFFFFFFFF AND PUSH20 0xFFFFFFFFFFFFFFFFFFFFFFFFFFFFFFFFFFFFFFFF AND DUP2 MSTORE PUSH1 0x20 ADD SWAP1 DUP2 MSTORE PUSH1 0x20 ADD PUSH1 0x0 KECCAK256 DUP6 SWAP1 DUP1 PUSH1 0x1 DUP2 SLOAD ADD DUP1 DUP3 SSTORE DUP1 SWAP2 POP POP PUSH1 0x1 SWAP1 SUB SWAP1 PUSH1 0x0 MSTORE PUSH1 0x20 PUSH1 0x0 KECCAK256 ADD PUSH1 0x0 SWAP1 SWAP2 SWAP1 SWAP2 SWAP1 SWAP2 POP SWAP1 DUP1 MLOAD SWAP1 PUSH1 0x20 ADD SWAP1 PUSH2 0xAA1 SWAP3 SWAP2 SWAP1 PUSH2 0x2A34 JUMP JUMPDEST POP DUP1 PUSH1 0xE DUP7 PUSH1 0x40 MLOAD PUSH2 0xAB3 SWAP2 SWAP1 PUSH2 0x34BC JUMP JUMPDEST SWAP1 DUP2 MSTORE PUSH1 0x20 ADD PUSH1 0x40 MLOAD DUP1 SWAP2 SUB SWAP1 KECCAK256 PUSH1 0x0 DUP3 ADD MLOAD DUP2 PUSH1 0x0 ADD PUSH1 0x0 PUSH2 0x100 EXP DUP2 SLOAD DUP2 PUSH20 0xFFFFFFFFFFFFFFFFFFFFFFFFFFFFFFFFFFFFFFFF MUL NOT AND SWAP1 DUP4 PUSH20 0xFFFFFFFFFFFFFFFFFFFFFFFFFFFFFFFFFFFFFFFF AND MUL OR SWAP1 SSTORE POP PUSH1 0x20 DUP3 ADD MLOAD DUP2 PUSH1 0x1 ADD PUSH1 0x0 PUSH2 0x100 EXP DUP2 SLOAD DUP2 PUSH20 0xFFFFFFFFFFFFFFFFFFFFFFFFFFFFFFFFFFFFFFFF MUL NOT AND SWAP1 DUP4 PUSH20 0xFFFFFFFFFFFFFFFFFFFFFFFFFFFFFFFFFFFFFFFF AND MUL OR SWAP1 SSTORE POP PUSH1 0x40 DUP3 ADD MLOAD DUP2 PUSH1 0x2 ADD SWAP1 DUP1 MLOAD SWAP1 PUSH1 0x20 ADD SWAP1 PUSH2 0xB6B SWAP3 SWAP2 SWAP1 PUSH2 0x2A34 JUMP JUMPDEST POP PUSH1 0x60 DUP3 ADD MLOAD DUP2 PUSH1 0x3 ADD SSTORE PUSH1 0x80 DUP3 ADD MLOAD DUP2 PUSH1 0x4 ADD SSTORE PUSH1 0xA0 DUP3 ADD MLOAD DUP2 PUSH1 0x5 ADD SSTORE SWAP1 POP POP POP POP POP POP POP POP POP JUMP JUMPDEST PUSH1 0x0 PUSH1 0x60 DUP3 PUSH1 0x0 PUSH20 0xFFFFFFFFFFFFFFFFFFFFFFFFFFFFFFFFFFFFFFFF AND PUSH1 0x1 DUP3 PUSH1 0x40 MLOAD PUSH2 0xBC3 SWAP2 SWAP1 PUSH2 0x34BC JUMP JUMPDEST SWAP1 DUP2 MSTORE PUSH1 0x20 ADD PUSH1 0x40 MLOAD DUP1 SWAP2 SUB SWAP1 KECCAK256 PUSH1 0x0 SWAP1 SLOAD SWAP1 PUSH2 0x100 EXP SWAP1 DIV PUSH20 0xFFFFFFFFFFFFFFFFFFFFFFFFFFFFFFFFFFFFFFFF AND PUSH20 0xFFFFFFFFFFFFFFFFFFFFFFFFFFFFFFFFFFFFFFFF AND EQ ISZERO PUSH2 0xC49 JUMPI PUSH1 0x40 MLOAD PUSH32 0x8C379A000000000000000000000000000000000000000000000000000000000 DUP2 MSTORE PUSH1 0x4 ADD PUSH2 0xC40 SWAP1 PUSH2 0x36F4 JUMP JUMPDEST PUSH1 0x40 MLOAD DUP1 SWAP2 SUB SWAP1 REVERT JUMPDEST PUSH1 0x0 PUSH1 0x1 DUP6 PUSH1 0x40 MLOAD PUSH2 0xC5B SWAP2 SWAP1 PUSH2 0x34BC JUMP JUMPDEST SWAP1 DUP2 MSTORE PUSH1 0x20 ADD PUSH1 0x40 MLOAD DUP1 SWAP2 SUB SWAP1 KECCAK256 PUSH1 0x0 SWAP1 SLOAD SWAP1 PUSH2 0x100 EXP SWAP1 DIV PUSH20 0xFFFFFFFFFFFFFFFFFFFFFFFFFFFFFFFFFFFFFFFF AND SWAP1 POP PUSH1 0x0 PUSH1 0x2 PUSH1 0x0 DUP4 PUSH20 0xFFFFFFFFFFFFFFFFFFFFFFFFFFFFFFFFFFFFFFFF AND PUSH20 0xFFFFFFFFFFFFFFFFFFFFFFFFFFFFFFFFFFFFFFFF AND DUP2 MSTORE PUSH1 0x20 ADD SWAP1 DUP2 MSTORE PUSH1 0x20 ADD PUSH1 0x0 KECCAK256 PUSH1 0x40 MLOAD DUP1 PUSH1 0x80 ADD PUSH1 0x40 MSTORE SWAP1 DUP2 PUSH1 0x0 DUP3 ADD SLOAD DUP2 MSTORE PUSH1 0x20 ADD PUSH1 0x1 DUP3 ADD DUP1 SLOAD PUSH2 0xCF2 SWAP1 PUSH2 0x38F3 JUMP JUMPDEST DUP1 PUSH1 0x1F ADD PUSH1 0x20 DUP1 SWAP2 DIV MUL PUSH1 0x20 ADD PUSH1 0x40 MLOAD SWAP1 DUP2 ADD PUSH1 0x40 MSTORE DUP1 SWAP3 SWAP2 SWAP1 DUP2 DUP2 MSTORE PUSH1 0x20 ADD DUP3 DUP1 SLOAD PUSH2 0xD1E SWAP1 PUSH2 0x38F3 JUMP JUMPDEST DUP1 ISZERO PUSH2 0xD6B JUMPI DUP1 PUSH1 0x1F LT PUSH2 0xD40 JUMPI PUSH2 0x100 DUP1 DUP4 SLOAD DIV MUL DUP4 MSTORE SWAP2 PUSH1 0x20 ADD SWAP2 PUSH2 0xD6B JUMP JUMPDEST DUP3 ADD SWAP2 SWAP1 PUSH1 0x0 MSTORE PUSH1 0x20 PUSH1 0x0 KECCAK256 SWAP1 JUMPDEST DUP2 SLOAD DUP2 MSTORE SWAP1 PUSH1 0x1 ADD SWAP1 PUSH1 0x20 ADD DUP1 DUP4 GT PUSH2 0xD4E JUMPI DUP3 SWAP1 SUB PUSH1 0x1F AND DUP3 ADD SWAP2 JUMPDEST POP POP POP POP POP DUP2 MSTORE PUSH1 0x20 ADD PUSH1 0x2 DUP3 ADD DUP1 SLOAD PUSH2 0xD84 SWAP1 PUSH2 0x38F3 JUMP JUMPDEST DUP1 PUSH1 0x1F ADD PUSH1 0x20 DUP1 SWAP2 DIV MUL PUSH1 0x20 ADD PUSH1 0x40 MLOAD SWAP1 DUP2 ADD PUSH1 0x40 MSTORE DUP1 SWAP3 SWAP2 SWAP1 DUP2 DUP2 MSTORE PUSH1 0x20 ADD DUP3 DUP1 SLOAD PUSH2 0xDB0 SWAP1 PUSH2 0x38F3 JUMP JUMPDEST DUP1 ISZERO PUSH2 0xDFD JUMPI DUP1 PUSH1 0x1F LT PUSH2 0xDD2 JUMPI PUSH2 0x100 DUP1 DUP4 SLOAD DIV MUL DUP4 MSTORE SWAP2 PUSH1 0x20 ADD SWAP2 PUSH2 0xDFD JUMP JUMPDEST DUP3 ADD SWAP2 SWAP1 PUSH1 0x0 MSTORE PUSH1 0x20 PUSH1 0x0 KECCAK256 SWAP1 JUMPDEST DUP2 SLOAD DUP2 MSTORE SWAP1 PUSH1 0x1 ADD SWAP1 PUSH1 0x20 ADD DUP1 DUP4 GT PUSH2 0xDE0 JUMPI DUP3 SWAP1 SUB PUSH1 0x1F AND DUP3 ADD SWAP2 JUMPDEST POP POP POP POP POP DUP2 MSTORE PUSH1 0x20 ADD PUSH1 0x3 DUP3 ADD DUP1 SLOAD DUP1 PUSH1 0x20 MUL PUSH1 0x20 ADD PUSH1 0x40 MLOAD SWAP1 DUP2 ADD PUSH1 0x40 MSTORE DUP1 SWAP3 SWAP2 SWAP1 DUP2 DUP2 MSTORE PUSH1 0x20 ADD PUSH1 0x0 SWAP1 JUMPDEST DUP3 DUP3 LT ISZERO PUSH2 0xED7 JUMPI DUP4 DUP3 SWAP1 PUSH1 0x0 MSTORE PUSH1 0x20 PUSH1 0x0 KECCAK256 ADD DUP1 SLOAD PUSH2 0xE4A SWAP1 PUSH2 0x38F3 JUMP JUMPDEST DUP1 PUSH1 0x1F ADD PUSH1 0x20 DUP1 SWAP2 DIV MUL PUSH1 0x20 ADD PUSH1 0x40 MLOAD SWAP1 DUP2 ADD PUSH1 0x40 MSTORE DUP1 SWAP3 SWAP2 SWAP1 DUP2 DUP2 MSTORE PUSH1 0x20 ADD DUP3 DUP1 SLOAD PUSH2 0xE76 SWAP1 PUSH2 0x38F3 JUMP JUMPDEST DUP1 ISZERO PUSH2 0xEC3 JUMPI DUP1 PUSH1 0x1F LT PUSH2 0xE98 JUMPI PUSH2 0x100 DUP1 DUP4 SLOAD DIV MUL DUP4 MSTORE SWAP2 PUSH1 0x20 ADD SWAP2 PUSH2 0xEC3 JUMP JUMPDEST DUP3 ADD SWAP2 SWAP1 PUSH1 0x0 MSTORE PUSH1 0x20 PUSH1 0x0 KECCAK256 SWAP1 JUMPDEST DUP2 SLOAD DUP2 MSTORE SWAP1 PUSH1 0x1 ADD SWAP1 PUSH1 0x20 ADD DUP1 DUP4 GT PUSH2 0xEA6 JUMPI DUP3 SWAP1 SUB PUSH1 0x1F AND DUP3 ADD SWAP2 JUMPDEST POP POP POP POP POP DUP2 MSTORE PUSH1 0x20 ADD SWAP1 PUSH1 0x1 ADD SWAP1 PUSH2 0xE2B JUMP JUMPDEST POP POP POP POP DUP2 MSTORE POP POP SWAP1 POP DUP2 SWAP5 POP PUSH1 0x0 DUP1 DUP3 PUSH1 0x0 ADD MLOAD DUP2 MSTORE PUSH1 0x20 ADD SWAP1 DUP2 MSTORE PUSH1 0x20 ADD PUSH1 0x0 KECCAK256 DUP1 SLOAD PUSH2 0xF05 SWAP1 PUSH2 0x38F3 JUMP JUMPDEST DUP1 PUSH1 0x1F ADD PUSH1 0x20 DUP1 SWAP2 DIV MUL PUSH1 0x20 ADD PUSH1 0x40 MLOAD SWAP1 DUP2 ADD PUSH1 0x40 MSTORE DUP1 SWAP3 SWAP2 SWAP1 DUP2 DUP2 MSTORE PUSH1 0x20 ADD DUP3 DUP1 SLOAD PUSH2 0xF31 SWAP1 PUSH2 0x38F3 JUMP JUMPDEST DUP1 ISZERO PUSH2 0xF7E JUMPI DUP1 PUSH1 0x1F LT PUSH2 0xF53 JUMPI PUSH2 0x100 DUP1 DUP4 SLOAD DIV MUL DUP4 MSTORE SWAP2 PUSH1 0x20 ADD SWAP2 PUSH2 0xF7E JUMP JUMPDEST DUP3 ADD SWAP2 SWAP1 PUSH1 0x0 MSTORE PUSH1 0x20 PUSH1 0x0 KECCAK256 SWAP1 JUMPDEST DUP2 SLOAD DUP2 MSTORE SWAP1 PUSH1 0x1 ADD SWAP1 PUSH1 0x20 ADD DUP1 DUP4 GT PUSH2 0xF61 JUMPI DUP3 SWAP1 SUB PUSH1 0x1F AND DUP3 ADD SWAP2 JUMPDEST POP POP POP POP POP SWAP4 POP POP POP POP SWAP2 POP SWAP2 JUMP JUMPDEST PUSH1 0x60 DUP1 PUSH1 0x60 DUP1 PUSH1 0x60 PUSH1 0x1 PUSH1 0x2 PUSH1 0x0 CALLER PUSH20 0xFFFFFFFFFFFFFFFFFFFFFFFFFFFFFFFFFFFFFFFF AND PUSH20 0xFFFFFFFFFFFFFFFFFFFFFFFFFFFFFFFFFFFFFFFF AND DUP2 MSTORE PUSH1 0x20 ADD SWAP1 DUP2 MSTORE PUSH1 0x20 ADD PUSH1 0x0 KECCAK256 PUSH1 0x0 ADD SLOAD DUP2 PUSH1 0x5 DUP2 GT ISZERO PUSH2 0xFED JUMPI PUSH2 0xFEC PUSH2 0x3956 JUMP JUMPDEST JUMPDEST EQ PUSH2 0x102D JUMPI PUSH1 0x40 MLOAD PUSH32 0x8C379A000000000000000000000000000000000000000000000000000000000 DUP2 MSTORE PUSH1 0x4 ADD PUSH2 0x1024 SWAP1 PUSH2 0x3674 JUMP JUMPDEST PUSH1 0x40 MLOAD DUP1 SWAP2 SUB SWAP1 REVERT JUMPDEST PUSH1 0x0 PUSH1 0x2 PUSH1 0x0 CALLER PUSH20 0xFFFFFFFFFFFFFFFFFFFFFFFFFFFFFFFFFFFFFFFF AND PUSH20 0xFFFFFFFFFFFFFFFFFFFFFFFFFFFFFFFFFFFFFFFF AND DUP2 MSTORE PUSH1 0x20 ADD SWAP1 DUP2 MSTORE PUSH1 0x20 ADD PUSH1 0x0 KECCAK256 PUSH1 0x40 MLOAD DUP1 PUSH1 0x80 ADD PUSH1 0x40 MSTORE SWAP1 DUP2 PUSH1 0x0 DUP3 ADD SLOAD DUP2 MSTORE PUSH1 0x20 ADD PUSH1 0x1 DUP3 ADD DUP1 SLOAD PUSH2 0x1093 SWAP1 PUSH2 0x38F3 JUMP JUMPDEST DUP1 PUSH1 0x1F ADD PUSH1 0x20 DUP1 SWAP2 DIV MUL PUSH1 0x20 ADD PUSH1 0x40 MLOAD SWAP1 DUP2 ADD PUSH1 0x40 MSTORE DUP1 SWAP3 SWAP2 SWAP1 DUP2 DUP2 MSTORE PUSH1 0x20 ADD DUP3 DUP1 SLOAD PUSH2 0x10BF SWAP1 PUSH2 0x38F3 JUMP JUMPDEST DUP1 ISZERO PUSH2 0x110C JUMPI DUP1 PUSH1 0x1F LT PUSH2 0x10E1 JUMPI PUSH2 0x100 DUP1 DUP4 SLOAD DIV MUL DUP4 MSTORE SWAP2 PUSH1 0x20 ADD SWAP2 PUSH2 0x110C JUMP JUMPDEST DUP3 ADD SWAP2 SWAP1 PUSH1 0x0 MSTORE PUSH1 0x20 PUSH1 0x0 KECCAK256 SWAP1 JUMPDEST DUP2 SLOAD DUP2 MSTORE SWAP1 PUSH1 0x1 ADD SWAP1 PUSH1 0x20 ADD DUP1 DUP4 GT PUSH2 0x10EF JUMPI DUP3 SWAP1 SUB PUSH1 0x1F AND DUP3 ADD SWAP2 JUMPDEST POP POP POP POP POP DUP2 MSTORE PUSH1 0x20 ADD PUSH1 0x2 DUP3 ADD DUP1 SLOAD PUSH2 0x1125 SWAP1 PUSH2 0x38F3 JUMP JUMPDEST DUP1 PUSH1 0x1F ADD PUSH1 0x20 DUP1 SWAP2 DIV MUL PUSH1 0x20 ADD PUSH1 0x40 MLOAD SWAP1 DUP2 ADD PUSH1 0x40 MSTORE DUP1 SWAP3 SWAP2 SWAP1 DUP2 DUP2 MSTORE PUSH1 0x20 ADD DUP3 DUP1 SLOAD PUSH2 0x1151 SWAP1 PUSH2 0x38F3 JUMP JUMPDEST DUP1 ISZERO PUSH2 0x119E JUMPI DUP1 PUSH1 0x1F LT PUSH2 0x1173 JUMPI PUSH2 0x100 DUP1 DUP4 SLOAD DIV MUL DUP4 MSTORE SWAP2 PUSH1 0x20 ADD SWAP2 PUSH2 0x119E JUMP JUMPDEST DUP3 ADD SWAP2 SWAP1 PUSH1 0x0 MSTORE PUSH1 0x20 PUSH1 0x0 KECCAK256 SWAP1 JUMPDEST DUP2 SLOAD DUP2 MSTORE SWAP1 PUSH1 0x1 ADD SWAP1 PUSH1 0x20 ADD DUP1 DUP4 GT PUSH2 0x1181 JUMPI DUP3 SWAP1 SUB PUSH1 0x1F AND DUP3 ADD SWAP2 JUMPDEST POP POP POP POP POP DUP2 MSTORE PUSH1 0x20 ADD PUSH1 0x3 DUP3 ADD DUP1 SLOAD DUP1 PUSH1 0x20 MUL PUSH1 0x20 ADD PUSH1 0x40 MLOAD SWAP1 DUP2 ADD PUSH1 0x40 MSTORE DUP1 SWAP3 SWAP2 SWAP1 DUP2 DUP2 MSTORE PUSH1 0x20 ADD PUSH1 0x0 SWAP1 JUMPDEST DUP3 DUP3 LT ISZERO PUSH2 0x1278 JUMPI DUP4 DUP3 SWAP1 PUSH1 0x0 MSTORE PUSH1 0x20 PUSH1 0x0 KECCAK256 ADD DUP1 SLOAD PUSH2 0x11EB SWAP1 PUSH2 0x38F3 JUMP JUMPDEST DUP1 PUSH1 0x1F ADD PUSH1 0x20 DUP1 SWAP2 DIV MUL PUSH1 0x20 ADD PUSH1 0x40 MLOAD SWAP1 DUP2 ADD PUSH1 0x40 MSTORE DUP1 SWAP3 SWAP2 SWAP1 DUP2 DUP2 MSTORE PUSH1 0x20 ADD DUP3 DUP1 SLOAD PUSH2 0x1217 SWAP1 PUSH2 0x38F3 JUMP JUMPDEST DUP1 ISZERO PUSH2 0x1264 JUMPI DUP1 PUSH1 0x1F LT PUSH2 0x1239 JUMPI PUSH2 0x100 DUP1 DUP4 SLOAD DIV MUL DUP4 MSTORE SWAP2 PUSH1 0x20 ADD SWAP2 PUSH2 0x1264 JUMP JUMPDEST DUP3 ADD SWAP2 SWAP1 PUSH1 0x0 MSTORE PUSH1 0x20 PUSH1 0x0 KECCAK256 SWAP1 JUMPDEST DUP2 SLOAD DUP2 MSTORE SWAP1 PUSH1 0x1 ADD SWAP1 PUSH1 0x20 ADD DUP1 DUP4 GT PUSH2 0x1247 JUMPI DUP3 SWAP1 SUB PUSH1 0x1F AND DUP3 ADD SWAP2 JUMPDEST POP POP POP POP POP DUP2 MSTORE PUSH1 0x20 ADD SWAP1 PUSH1 0x1 ADD SWAP1 PUSH2 0x11CC JUMP JUMPDEST POP POP POP POP DUP2 MSTORE POP POP SWAP1 POP PUSH1 0x0 PUSH1 0xB PUSH1 0x0 CALLER PUSH20 0xFFFFFFFFFFFFFFFFFFFFFFFFFFFFFFFFFFFFFFFF AND PUSH20 0xFFFFFFFFFFFFFFFFFFFFFFFFFFFFFFFFFFFFFFFF AND DUP2 MSTORE PUSH1 0x20 ADD SWAP1 DUP2 MSTORE PUSH1 0x20 ADD PUSH1 0x0 KECCAK256 PUSH1 0x0 SWAP1 SLOAD SWAP1 PUSH2 0x100 EXP SWAP1 DIV PUSH20 0xFFFFFFFFFFFFFFFFFFFFFFFFFFFFFFFFFFFFFFFF AND SWAP1 POP PUSH1 0x0 PUSH1 0xA PUSH1 0x0 DUP4 PUSH20 0xFFFFFFFFFFFFFFFFFFFFFFFFFFFFFFFFFFFFFFFF AND PUSH20 0xFFFFFFFFFFFFFFFFFFFFFFFFFFFFFFFFFFFFFFFF AND DUP2 MSTORE PUSH1 0x20 ADD SWAP1 DUP2 MSTORE PUSH1 0x20 ADD PUSH1 0x0 KECCAK256 PUSH1 0x40 MLOAD DUP1 PUSH1 0x60 ADD PUSH1 0x40 MSTORE SWAP1 DUP2 PUSH1 0x0 DUP3 ADD DUP1 SLOAD PUSH2 0x1342 SWAP1 PUSH2 0x38F3 JUMP JUMPDEST DUP1 PUSH1 0x1F ADD PUSH1 0x20 DUP1 SWAP2 DIV MUL PUSH1 0x20 ADD PUSH1 0x40 MLOAD SWAP1 DUP2 ADD PUSH1 0x40 MSTORE DUP1 SWAP3 SWAP2 SWAP1 DUP2 DUP2 MSTORE PUSH1 0x20 ADD DUP3 DUP1 SLOAD PUSH2 0x136E SWAP1 PUSH2 0x38F3 JUMP JUMPDEST DUP1 ISZERO PUSH2 0x13BB JUMPI DUP1 PUSH1 0x1F LT PUSH2 0x1390 JUMPI PUSH2 0x100 DUP1 DUP4 SLOAD DIV MUL DUP4 MSTORE SWAP2 PUSH1 0x20 ADD SWAP2 PUSH2 0x13BB JUMP JUMPDEST DUP3 ADD SWAP2 SWAP1 PUSH1 0x0 MSTORE PUSH1 0x20 PUSH1 0x0 KECCAK256 SWAP1 JUMPDEST DUP2 SLOAD DUP2 MSTORE SWAP1 PUSH1 0x1 ADD SWAP1 PUSH1 0x20 ADD DUP1 DUP4 GT PUSH2 0x139E JUMPI DUP3 SWAP1 SUB PUSH1 0x1F AND DUP3 ADD SWAP2 JUMPDEST POP POP POP POP POP DUP2 MSTORE PUSH1 0x20 ADD PUSH1 0x1 DUP3 ADD DUP1 SLOAD PUSH2 0x13D4 SWAP1 PUSH2 0x38F3 JUMP JUMPDEST DUP1 PUSH1 0x1F ADD PUSH1 0x20 DUP1 SWAP2 DIV MUL PUSH1 0x20 ADD PUSH1 0x40 MLOAD SWAP1 DUP2 ADD PUSH1 0x40 MSTORE DUP1 SWAP3 SWAP2 SWAP1 DUP2 DUP2 MSTORE PUSH1 0x20 ADD DUP3 DUP1 SLOAD PUSH2 0x1400 SWAP1 PUSH2 0x38F3 JUMP JUMPDEST DUP1 ISZERO PUSH2 0x144D JUMPI DUP1 PUSH1 0x1F LT PUSH2 0x1422 JUMPI PUSH2 0x100 DUP1 DUP4 SLOAD DIV MUL DUP4 MSTORE SWAP2 PUSH1 0x20 ADD SWAP2 PUSH2 0x144D JUMP JUMPDEST DUP3 ADD SWAP2 SWAP1 PUSH1 0x0 MSTORE PUSH1 0x20 PUSH1 0x0 KECCAK256 SWAP1 JUMPDEST DUP2 SLOAD DUP2 MSTORE SWAP1 PUSH1 0x1 ADD SWAP1 PUSH1 0x20 ADD DUP1 DUP4 GT PUSH2 0x1430 JUMPI DUP3 SWAP1 SUB PUSH1 0x1F AND DUP3 ADD SWAP2 JUMPDEST POP POP POP POP POP DUP2 MSTORE PUSH1 0x20 ADD PUSH1 0x2 DUP3 ADD SLOAD DUP2 MSTORE POP POP SWAP1 POP DUP3 PUSH1 0x20 ADD MLOAD SWAP9 POP DUP3 PUSH1 0x40 ADD MLOAD SWAP8 POP DUP1 PUSH1 0x20 ADD MLOAD SWAP7 POP DUP1 PUSH1 0x0 ADD MLOAD SWAP6 POP DUP3 PUSH1 0x60 ADD MLOAD SWAP5 POP POP POP POP POP SWAP1 SWAP2 SWAP3 SWAP4 SWAP5 JUMP JUMPDEST PUSH1 0x3 PUSH1 0x2 PUSH1 0x0 CALLER PUSH20 0xFFFFFFFFFFFFFFFFFFFFFFFFFFFFFFFFFFFFFFFF AND PUSH20 0xFFFFFFFFFFFFFFFFFFFFFFFFFFFFFFFFFFFFFFFF AND DUP2 MSTORE PUSH1 0x20 ADD SWAP1 DUP2 MSTORE PUSH1 0x20 ADD PUSH1 0x0 KECCAK256 PUSH1 0x0 ADD SLOAD DUP2 PUSH1 0x5 DUP2 GT ISZERO PUSH2 0x14E8 JUMPI PUSH2 0x14E7 PUSH2 0x3956 JUMP JUMPDEST JUMPDEST EQ PUSH2 0x1528 JUMPI PUSH1 0x40 MLOAD PUSH32 0x8C379A000000000000000000000000000000000000000000000000000000000 DUP2 MSTORE PUSH1 0x4 ADD PUSH2 0x151F SWAP1 PUSH2 0x3674 JUMP JUMPDEST PUSH1 0x40 MLOAD DUP1 SWAP2 SUB SWAP1 REVERT JUMPDEST PUSH1 0x0 PUSH1 0x40 MLOAD DUP1 PUSH1 0x60 ADD PUSH1 0x40 MSTORE DUP1 DUP7 DUP2 MSTORE PUSH1 0x20 ADD DUP6 DUP2 MSTORE PUSH1 0x20 ADD PUSH1 0x0 DUP2 MSTORE POP SWAP1 POP DUP1 PUSH1 0xA PUSH1 0x0 DUP9 PUSH20 0xFFFFFFFFFFFFFFFFFFFFFFFFFFFFFFFFFFFFFFFF AND PUSH20 0xFFFFFFFFFFFFFFFFFFFFFFFFFFFFFFFFFFFFFFFF AND DUP2 MSTORE PUSH1 0x20 ADD SWAP1 DUP2 MSTORE PUSH1 0x20 ADD PUSH1 0x0 KECCAK256 PUSH1 0x0 DUP3 ADD MLOAD DUP2 PUSH1 0x0 ADD SWAP1 DUP1 MLOAD SWAP1 PUSH1 0x20 ADD SWAP1 PUSH2 0x15A4 SWAP3 SWAP2 SWAP1 PUSH2 0x2A34 JUMP JUMPDEST POP PUSH1 0x20 DUP3 ADD MLOAD DUP2 PUSH1 0x1 ADD SWAP1 DUP1 MLOAD SWAP1 PUSH1 0x20 ADD SWAP1 PUSH2 0x15C1 SWAP3 SWAP2 SWAP1 PUSH2 0x2A34 JUMP JUMPDEST POP PUSH1 0x40 DUP3 ADD MLOAD DUP2 PUSH1 0x2 ADD SSTORE SWAP1 POP POP PUSH1 0x0 PUSH1 0x2 PUSH1 0x5 DUP2 GT ISZERO PUSH2 0x15E5 JUMPI PUSH2 0x15E4 PUSH2 0x3956 JUMP JUMPDEST JUMPDEST SWAP1 POP PUSH2 0x1602 PUSH1 0x40 MLOAD DUP1 PUSH1 0x20 ADD PUSH1 0x40 MSTORE DUP1 PUSH1 0x0 DUP2 MSTORE POP DUP6 DUP4 DUP11 PUSH2 0x26D7 JUMP JUMPDEST POP POP POP POP POP POP POP JUMP JUMPDEST PUSH2 0x16EE PUSH1 0x2 PUSH1 0x0 CALLER PUSH20 0xFFFFFFFFFFFFFFFFFFFFFFFFFFFFFFFFFFFFFFFF AND PUSH20 0xFFFFFFFFFFFFFFFFFFFFFFFFFFFFFFFFFFFFFFFF AND DUP2 MSTORE PUSH1 0x20 ADD SWAP1 DUP2 MSTORE PUSH1 0x20 ADD PUSH1 0x0 KECCAK256 PUSH1 0x1 ADD DUP1 SLOAD PUSH2 0x165B SWAP1 PUSH2 0x38F3 JUMP JUMPDEST DUP1 PUSH1 0x1F ADD PUSH1 0x20 DUP1 SWAP2 DIV MUL PUSH1 0x20 ADD PUSH1 0x40 MLOAD SWAP1 DUP2 ADD PUSH1 0x40 MSTORE DUP1 SWAP3 SWAP2 SWAP1 DUP2 DUP2 MSTORE PUSH1 0x20 ADD DUP3 DUP1 SLOAD PUSH2 0x1687 SWAP1 PUSH2 0x38F3 JUMP JUMPDEST DUP1 ISZERO PUSH2 0x16D4 JUMPI DUP1 PUSH1 0x1F LT PUSH2 0x16A9 JUMPI PUSH2 0x100 DUP1 DUP4 SLOAD DIV MUL DUP4 MSTORE SWAP2 PUSH1 0x20 ADD SWAP2 PUSH2 0x16D4 JUMP JUMPDEST DUP3 ADD SWAP2 SWAP1 PUSH1 0x0 MSTORE PUSH1 0x20 PUSH1 0x0 KECCAK256 SWAP1 JUMPDEST DUP2 SLOAD DUP2 MSTORE SWAP1 PUSH1 0x1 ADD SWAP1 PUSH1 0x20 ADD DUP1 DUP4 GT PUSH2 0x16B7 JUMPI DUP3 SWAP1 SUB PUSH1 0x1F AND DUP3 ADD SWAP2 JUMPDEST POP POP POP POP POP PUSH1 0x40 MLOAD DUP1 PUSH1 0x20 ADD PUSH1 0x40 MSTORE DUP1 PUSH1 0x0 DUP2 MSTORE POP PUSH2 0x29DB JUMP JUMPDEST ISZERO PUSH2 0x172E JUMPI PUSH1 0x40 MLOAD PUSH32 0x8C379A000000000000000000000000000000000000000000000000000000000 DUP2 MSTORE PUSH1 0x4 ADD PUSH2 0x1725 SWAP1 PUSH2 0x3694 JUMP JUMPDEST PUSH1 0x40 MLOAD DUP1 SWAP2 SUB SWAP1 REVERT JUMPDEST POP JUMP JUMPDEST PUSH1 0x4 PUSH1 0x0 SWAP1 SLOAD SWAP1 PUSH2 0x100 EXP SWAP1 DIV PUSH20 0xFFFFFFFFFFFFFFFFFFFFFFFFFFFFFFFFFFFFFFFF AND PUSH20 0xFFFFFFFFFFFFFFFFFFFFFFFFFFFFFFFFFFFFFFFF AND CALLER PUSH20 0xFFFFFFFFFFFFFFFFFFFFFFFFFFFFFFFFFFFFFFFF AND EQ PUSH2 0x17C1 JUMPI PUSH1 0x40 MLOAD PUSH32 0x8C379A000000000000000000000000000000000000000000000000000000000 DUP2 MSTORE PUSH1 0x4 ADD PUSH2 0x17B8 SWAP1 PUSH2 0x36B4 JUMP JUMPDEST PUSH1 0x40 MLOAD DUP1 SWAP2 SUB SWAP1 REVERT JUMPDEST PUSH1 0x0 PUSH1 0x4 PUSH1 0x5 DUP2 GT ISZERO PUSH2 0x17D7 JUMPI PUSH2 0x17D6 PUSH2 0x3956 JUMP JUMPDEST JUMPDEST SWAP1 POP PUSH2 0x17F4 PUSH1 0x40 MLOAD DUP1 PUSH1 0x20 ADD PUSH1 0x40 MSTORE DUP1 PUSH1 0x0 DUP2 MSTORE POP DUP5 DUP4 DUP6 PUSH2 0x26D7 JUMP JUMPDEST DUP2 PUSH1 0x3 PUSH1 0x0 PUSH2 0x100 EXP DUP2 SLOAD DUP2 PUSH20 0xFFFFFFFFFFFFFFFFFFFFFFFFFFFFFFFFFFFFFFFF MUL NOT AND SWAP1 DUP4 PUSH20 0xFFFFFFFFFFFFFFFFFFFFFFFFFFFFFFFFFFFFFFFF AND MUL OR SWAP1 SSTORE POP POP POP POP JUMP JUMPDEST PUSH1 0x5 PUSH1 0x2 PUSH1 0x0 CALLER PUSH20 0xFFFFFFFFFFFFFFFFFFFFFFFFFFFFFFFFFFFFFFFF AND PUSH20 0xFFFFFFFFFFFFFFFFFFFFFFFFFFFFFFFFFFFFFFFF AND DUP2 MSTORE PUSH1 0x20 ADD SWAP1 DUP2 MSTORE PUSH1 0x20 ADD PUSH1 0x0 KECCAK256 PUSH1 0x0 ADD SLOAD DUP2 PUSH1 0x5 DUP2 GT ISZERO PUSH2 0x1892 JUMPI PUSH2 0x1891 PUSH2 0x3956 JUMP JUMPDEST JUMPDEST EQ PUSH2 0x18D2 JUMPI PUSH1 0x40 MLOAD PUSH32 0x8C379A000000000000000000000000000000000000000000000000000000000 DUP2 MSTORE PUSH1 0x4 ADD PUSH2 0x18C9 SWAP1 PUSH2 0x3674 JUMP JUMPDEST PUSH1 0x40 MLOAD DUP1 SWAP2 SUB SWAP1 REVERT JUMPDEST PUSH9 0x3635C9ADC5DEA00000 CALLER PUSH20 0xFFFFFFFFFFFFFFFFFFFFFFFFFFFFFFFFFFFFFFFF AND BALANCE LT ISZERO PUSH2 0x1935 JUMPI PUSH1 0x40 MLOAD PUSH32 0x8C379A000000000000000000000000000000000000000000000000000000000 DUP2 MSTORE PUSH1 0x4 ADD PUSH2 0x192C SWAP1 PUSH2 0x3654 JUMP JUMPDEST PUSH1 0x40 MLOAD DUP1 SWAP2 SUB SWAP1 REVERT JUMPDEST DUP2 PUSH20 0xFFFFFFFFFFFFFFFFFFFFFFFFFFFFFFFFFFFFFFFF AND PUSH2 0x8FC PUSH9 0x3635C9ADC5DEA00000 SWAP1 DUP2 ISZERO MUL SWAP1 PUSH1 0x40 MLOAD PUSH1 0x0 PUSH1 0x40 MLOAD DUP1 DUP4 SUB DUP2 DUP6 DUP9 DUP9 CALL SWAP4 POP POP POP POP ISZERO DUP1 ISZERO PUSH2 0x1984 JUMPI RETURNDATASIZE PUSH1 0x0 DUP1 RETURNDATACOPY RETURNDATASIZE PUSH1 0x0 REVERT JUMPDEST POP POP POP JUMP JUMPDEST PUSH1 0x0 PUSH1 0x1 PUSH1 0x5 DUP2 GT ISZERO PUSH2 0x199F JUMPI PUSH2 0x199E PUSH2 0x3956 JUMP JUMPDEST JUMPDEST SWAP1 POP PUSH2 0x19AD DUP6 DUP6 DUP4 DUP7 PUSH2 0x26D7 JUMP JUMPDEST PUSH1 0x7 DUP4 SWAP1 DUP1 PUSH1 0x1 DUP2 SLOAD ADD DUP1 DUP3 SSTORE DUP1 SWAP2 POP POP PUSH1 0x1 SWAP1 SUB SWAP1 PUSH1 0x0 MSTORE PUSH1 0x20 PUSH1 0x0 KECCAK256 ADD PUSH1 0x0 SWAP1 SWAP2 SWAP1 SWAP2 SWAP1 SWAP2 PUSH2 0x100 EXP DUP2 SLOAD DUP2 PUSH20 0xFFFFFFFFFFFFFFFFFFFFFFFFFFFFFFFFFFFFFFFF MUL NOT AND SWAP1 DUP4 PUSH20 0xFFFFFFFFFFFFFFFFFFFFFFFFFFFFFFFFFFFFFFFF AND MUL OR SWAP1 SSTORE POP PUSH1 0xC PUSH1 0x0 DUP4 PUSH20 0xFFFFFFFFFFFFFFFFFFFFFFFFFFFFFFFFFFFFFFFF AND PUSH20 0xFFFFFFFFFFFFFFFFFFFFFFFFFFFFFFFFFFFFFFFF AND DUP2 MSTORE PUSH1 0x20 ADD SWAP1 DUP2 MSTORE PUSH1 0x20 ADD PUSH1 0x0 KECCAK256 DUP4 SWAP1 DUP1 PUSH1 0x1 DUP2 SLOAD ADD DUP1 DUP3 SSTORE DUP1 SWAP2 POP POP PUSH1 0x1 SWAP1 SUB SWAP1 PUSH1 0x0 MSTORE PUSH1 0x20 PUSH1 0x0 KECCAK256 ADD PUSH1 0x0 SWAP1 SWAP2 SWAP1 SWAP2 SWAP1 SWAP2 PUSH2 0x100 EXP DUP2 SLOAD DUP2 PUSH20 0xFFFFFFFFFFFFFFFFFFFFFFFFFFFFFFFFFFFFFFFF MUL NOT AND SWAP1 DUP4 PUSH20 0xFFFFFFFFFFFFFFFFFFFFFFFFFFFFFFFFFFFFFFFF AND MUL OR SWAP1 SSTORE POP POP POP POP POP POP JUMP JUMPDEST PUSH1 0x60 DUP1 PUSH1 0x0 PUSH1 0x60 PUSH2 0x1BA1 PUSH1 0x2 PUSH1 0x0 CALLER PUSH20 0xFFFFFFFFFFFFFFFFFFFFFFFFFFFFFFFFFFFFFFFF AND PUSH20 0xFFFFFFFFFFFFFFFFFFFFFFFFFFFFFFFFFFFFFFFF AND DUP2 MSTORE PUSH1 0x20 ADD SWAP1 DUP2 MSTORE PUSH1 0x20 ADD PUSH1 0x0 KECCAK256 PUSH1 0x1 ADD DUP1 SLOAD PUSH2 0x1B0E SWAP1 PUSH2 0x38F3 JUMP JUMPDEST DUP1 PUSH1 0x1F ADD PUSH1 0x20 DUP1 SWAP2 DIV MUL PUSH1 0x20 ADD PUSH1 0x40 MLOAD SWAP1 DUP2 ADD PUSH1 0x40 MSTORE DUP1 SWAP3 SWAP2 SWAP1 DUP2 DUP2 MSTORE PUSH1 0x20 ADD DUP3 DUP1 SLOAD PUSH2 0x1B3A SWAP1 PUSH2 0x38F3 JUMP JUMPDEST DUP1 ISZERO PUSH2 0x1B87 JUMPI DUP1 PUSH1 0x1F LT PUSH2 0x1B5C JUMPI PUSH2 0x100 DUP1 DUP4 SLOAD DIV MUL DUP4 MSTORE SWAP2 PUSH1 0x20 ADD SWAP2 PUSH2 0x1B87 JUMP JUMPDEST DUP3 ADD SWAP2 SWAP1 PUSH1 0x0 MSTORE PUSH1 0x20 PUSH1 0x0 KECCAK256 SWAP1 JUMPDEST DUP2 SLOAD DUP2 MSTORE SWAP1 PUSH1 0x1 ADD SWAP1 PUSH1 0x20 ADD DUP1 DUP4 GT PUSH2 0x1B6A JUMPI DUP3 SWAP1 SUB PUSH1 0x1F AND DUP3 ADD SWAP2 JUMPDEST POP POP POP POP POP PUSH1 0x40 MLOAD DUP1 PUSH1 0x20 ADD PUSH1 0x40 MSTORE DUP1 PUSH1 0x0 DUP2 MSTORE POP PUSH2 0x29DB JUMP JUMPDEST ISZERO PUSH2 0x1BE1 JUMPI PUSH1 0x40 MLOAD PUSH32 0x8C379A000000000000000000000000000000000000000000000000000000000 DUP2 MSTORE PUSH1 0x4 ADD PUSH2 0x1BD8 SWAP1 PUSH2 0x3694 JUMP JUMPDEST PUSH1 0x40 MLOAD DUP1 SWAP2 SUB SWAP1 REVERT JUMPDEST PUSH1 0x0 PUSH1 0x2 PUSH1 0x0 CALLER PUSH20 0xFFFFFFFFFFFFFFFFFFFFFFFFFFFFFFFFFFFFFFFF AND PUSH20 0xFFFFFFFFFFFFFFFFFFFFFFFFFFFFFFFFFFFFFFFF AND DUP2 MSTORE PUSH1 0x20 ADD SWAP1 DUP2 MSTORE PUSH1 0x20 ADD PUSH1 0x0 KECCAK256 PUSH1 0x40 MLOAD DUP1 PUSH1 0x80 ADD PUSH1 0x40 MSTORE SWAP1 DUP2 PUSH1 0x0 DUP3 ADD SLOAD DUP2 MSTORE PUSH1 0x20 ADD PUSH1 0x1 DUP3 ADD DUP1 SLOAD PUSH2 0x1C47 SWAP1 PUSH2 0x38F3 JUMP JUMPDEST DUP1 PUSH1 0x1F ADD PUSH1 0x20 DUP1 SWAP2 DIV MUL PUSH1 0x20 ADD PUSH1 0x40 MLOAD SWAP1 DUP2 ADD PUSH1 0x40 MSTORE DUP1 SWAP3 SWAP2 SWAP1 DUP2 DUP2 MSTORE PUSH1 0x20 ADD DUP3 DUP1 SLOAD PUSH2 0x1C73 SWAP1 PUSH2 0x38F3 JUMP JUMPDEST DUP1 ISZERO PUSH2 0x1CC0 JUMPI DUP1 PUSH1 0x1F LT PUSH2 0x1C95 JUMPI PUSH2 0x100 DUP1 DUP4 SLOAD DIV MUL DUP4 MSTORE SWAP2 PUSH1 0x20 ADD SWAP2 PUSH2 0x1CC0 JUMP JUMPDEST DUP3 ADD SWAP2 SWAP1 PUSH1 0x0 MSTORE PUSH1 0x20 PUSH1 0x0 KECCAK256 SWAP1 JUMPDEST DUP2 SLOAD DUP2 MSTORE SWAP1 PUSH1 0x1 ADD SWAP1 PUSH1 0x20 ADD DUP1 DUP4 GT PUSH2 0x1CA3 JUMPI DUP3 SWAP1 SUB PUSH1 0x1F AND DUP3 ADD SWAP2 JUMPDEST POP POP POP POP POP DUP2 MSTORE PUSH1 0x20 ADD PUSH1 0x2 DUP3 ADD DUP1 SLOAD PUSH2 0x1CD9 SWAP1 PUSH2 0x38F3 JUMP JUMPDEST DUP1 PUSH1 0x1F ADD PUSH1 0x20 DUP1 SWAP2 DIV MUL PUSH1 0x20 ADD PUSH1 0x40 MLOAD SWAP1 DUP2 ADD PUSH1 0x40 MSTORE DUP1 SWAP3 SWAP2 SWAP1 DUP2 DUP2 MSTORE PUSH1 0x20 ADD DUP3 DUP1 SLOAD PUSH2 0x1D05 SWAP1 PUSH2 0x38F3 JUMP JUMPDEST DUP1 ISZERO PUSH2 0x1D52 JUMPI DUP1 PUSH1 0x1F LT PUSH2 0x1D27 JUMPI PUSH2 0x100 DUP1 DUP4 SLOAD DIV MUL DUP4 MSTORE SWAP2 PUSH1 0x20 ADD SWAP2 PUSH2 0x1D52 JUMP JUMPDEST DUP3 ADD SWAP2 SWAP1 PUSH1 0x0 MSTORE PUSH1 0x20 PUSH1 0x0 KECCAK256 SWAP1 JUMPDEST DUP2 SLOAD DUP2 MSTORE SWAP1 PUSH1 0x1 ADD SWAP1 PUSH1 0x20 ADD DUP1 DUP4 GT PUSH2 0x1D35 JUMPI DUP3 SWAP1 SUB PUSH1 0x1F AND DUP3 ADD SWAP2 JUMPDEST POP POP POP POP POP DUP2 MSTORE PUSH1 0x20 ADD PUSH1 0x3 DUP3 ADD DUP1 SLOAD DUP1 PUSH1 0x20 MUL PUSH1 0x20 ADD PUSH1 0x40 MLOAD SWAP1 DUP2 ADD PUSH1 0x40 MSTORE DUP1 SWAP3 SWAP2 SWAP1 DUP2 DUP2 MSTORE PUSH1 0x20 ADD PUSH1 0x0 SWAP1 JUMPDEST DUP3 DUP3 LT ISZERO PUSH2 0x1E2C JUMPI DUP4 DUP3 SWAP1 PUSH1 0x0 MSTORE PUSH1 0x20 PUSH1 0x0 KECCAK256 ADD DUP1 SLOAD PUSH2 0x1D9F SWAP1 PUSH2 0x38F3 JUMP JUMPDEST DUP1 PUSH1 0x1F ADD PUSH1 0x20 DUP1 SWAP2 DIV MUL PUSH1 0x20 ADD PUSH1 0x40 MLOAD SWAP1 DUP2 ADD PUSH1 0x40 MSTORE DUP1 SWAP3 SWAP2 SWAP1 DUP2 DUP2 MSTORE PUSH1 0x20 ADD DUP3 DUP1 SLOAD PUSH2 0x1DCB SWAP1 PUSH2 0x38F3 JUMP JUMPDEST DUP1 ISZERO PUSH2 0x1E18 JUMPI DUP1 PUSH1 0x1F LT PUSH2 0x1DED JUMPI PUSH2 0x100 DUP1 DUP4 SLOAD DIV MUL DUP4 MSTORE SWAP2 PUSH1 0x20 ADD SWAP2 PUSH2 0x1E18 JUMP JUMPDEST DUP3 ADD SWAP2 SWAP1 PUSH1 0x0 MSTORE PUSH1 0x20 PUSH1 0x0 KECCAK256 SWAP1 JUMPDEST DUP2 SLOAD DUP2 MSTORE SWAP1 PUSH1 0x1 ADD SWAP1 PUSH1 0x20 ADD DUP1 DUP4 GT PUSH2 0x1DFB JUMPI DUP3 SWAP1 SUB PUSH1 0x1F AND DUP3 ADD SWAP2 JUMPDEST POP POP POP POP POP DUP2 MSTORE PUSH1 0x20 ADD SWAP1 PUSH1 0x1 ADD SWAP1 PUSH2 0x1D80 JUMP JUMPDEST POP POP POP POP DUP2 MSTORE POP POP SWAP1 POP DUP1 PUSH1 0x20 ADD MLOAD SWAP5 POP DUP1 PUSH1 0x40 ADD MLOAD SWAP4 POP CALLER PUSH20 0xFFFFFFFFFFFFFFFFFFFFFFFFFFFFFFFFFFFFFFFF AND BALANCE SWAP3 POP DUP1 PUSH1 0x60 ADD MLOAD SWAP2 POP POP SWAP1 SWAP2 SWAP3 SWAP4 JUMP JUMPDEST PUSH1 0x0 DUP1 PUSH1 0x5 DUP2 GT ISZERO PUSH2 0x1E81 JUMPI PUSH2 0x1E80 PUSH2 0x3956 JUMP JUMPDEST JUMPDEST SWAP1 POP PUSH2 0x1E8F DUP5 DUP5 DUP4 DUP6 PUSH2 0x26D7 JUMP JUMPDEST POP POP POP POP JUMP JUMPDEST PUSH1 0x3 PUSH1 0x2 PUSH1 0x0 CALLER PUSH20 0xFFFFFFFFFFFFFFFFFFFFFFFFFFFFFFFFFFFFFFFF AND PUSH20 0xFFFFFFFFFFFFFFFFFFFFFFFFFFFFFFFFFFFFFFFF AND DUP2 MSTORE PUSH1 0x20 ADD SWAP1 DUP2 MSTORE PUSH1 0x20 ADD PUSH1 0x0 KECCAK256 PUSH1 0x0 ADD SLOAD DUP2 PUSH1 0x5 DUP2 GT ISZERO PUSH2 0x1EED JUMPI PUSH2 0x1EEC PUSH2 0x3956 JUMP JUMPDEST JUMPDEST EQ PUSH2 0x1F2D JUMPI PUSH1 0x40 MLOAD PUSH32 0x8C379A000000000000000000000000000000000000000000000000000000000 DUP2 MSTORE PUSH1 0x4 ADD PUSH2 0x1F24 SWAP1 PUSH2 0x3674 JUMP JUMPDEST PUSH1 0x40 MLOAD DUP1 SWAP2 SUB SWAP1 REVERT JUMPDEST PUSH1 0x0 PUSH1 0x3 PUSH1 0x5 DUP2 GT ISZERO PUSH2 0x1F43 JUMPI PUSH2 0x1F42 PUSH2 0x3956 JUMP JUMPDEST JUMPDEST SWAP1 POP PUSH2 0x1F51 DUP5 DUP5 DUP4 DUP9 PUSH2 0x26D7 JUMP JUMPDEST PUSH1 0x5 DUP4 SWAP1 DUP1 PUSH1 0x1 DUP2 SLOAD ADD DUP1 DUP3 SSTORE DUP1 SWAP2 POP POP PUSH1 0x1 SWAP1 SUB SWAP1 PUSH1 0x0 MSTORE PUSH1 0x20 PUSH1 0x0 KECCAK256 ADD PUSH1 0x0 SWAP1 SWAP2 SWAP1 SWAP2 SWAP1 SWAP2 POP SWAP1 DUP1 MLOAD SWAP1 PUSH1 0x20 ADD SWAP1 PUSH2 0x1F8C SWAP3 SWAP2 SWAP1 PUSH2 0x2A34 JUMP JUMPDEST POP POP POP POP POP POP JUMP JUMPDEST PUSH1 0x60 DUP1 PUSH1 0x60 DUP1 PUSH1 0x3 PUSH1 0x2 PUSH1 0x0 CALLER PUSH20 0xFFFFFFFFFFFFFFFFFFFFFFFFFFFFFFFFFFFFFFFF AND PUSH20 0xFFFFFFFFFFFFFFFFFFFFFFFFFFFFFFFFFFFFFFFF AND DUP2 MSTORE PUSH1 0x20 ADD SWAP1 DUP2 MSTORE PUSH1 0x20 ADD PUSH1 0x0 KECCAK256 PUSH1 0x0 ADD SLOAD DUP2 PUSH1 0x5 DUP2 GT ISZERO PUSH2 0x1FF2 JUMPI PUSH2 0x1FF1 PUSH2 0x3956 JUMP JUMPDEST JUMPDEST EQ PUSH2 0x2032 JUMPI PUSH1 0x40 MLOAD PUSH32 0x8C379A000000000000000000000000000000000000000000000000000000000 DUP2 MSTORE PUSH1 0x4 ADD PUSH2 0x2029 SWAP1 PUSH2 0x3674 JUMP JUMPDEST PUSH1 0x40 MLOAD DUP1 SWAP2 SUB SWAP1 REVERT JUMPDEST PUSH1 0x0 PUSH1 0x2 PUSH1 0x0 CALLER PUSH20 0xFFFFFFFFFFFFFFFFFFFFFFFFFFFFFFFFFFFFFFFF AND PUSH20 0xFFFFFFFFFFFFFFFFFFFFFFFFFFFFFFFFFFFFFFFF AND DUP2 MSTORE PUSH1 0x20 ADD SWAP1 DUP2 MSTORE PUSH1 0x20 ADD PUSH1 0x0 KECCAK256 PUSH1 0x40 MLOAD DUP1 PUSH1 0x80 ADD PUSH1 0x40 MSTORE SWAP1 DUP2 PUSH1 0x0 DUP3 ADD SLOAD DUP2 MSTORE PUSH1 0x20 ADD PUSH1 0x1 DUP3 ADD DUP1 SLOAD PUSH2 0x2098 SWAP1 PUSH2 0x38F3 JUMP JUMPDEST DUP1 PUSH1 0x1F ADD PUSH1 0x20 DUP1 SWAP2 DIV MUL PUSH1 0x20 ADD PUSH1 0x40 MLOAD SWAP1 DUP2 ADD PUSH1 0x40 MSTORE DUP1 SWAP3 SWAP2 SWAP1 DUP2 DUP2 MSTORE PUSH1 0x20 ADD DUP3 DUP1 SLOAD PUSH2 0x20C4 SWAP1 PUSH2 0x38F3 JUMP JUMPDEST DUP1 ISZERO PUSH2 0x2111 JUMPI DUP1 PUSH1 0x1F LT PUSH2 0x20E6 JUMPI PUSH2 0x100 DUP1 DUP4 SLOAD DIV MUL DUP4 MSTORE SWAP2 PUSH1 0x20 ADD SWAP2 PUSH2 0x2111 JUMP JUMPDEST DUP3 ADD SWAP2 SWAP1 PUSH1 0x0 MSTORE PUSH1 0x20 PUSH1 0x0 KECCAK256 SWAP1 JUMPDEST DUP2 SLOAD DUP2 MSTORE SWAP1 PUSH1 0x1 ADD SWAP1 PUSH1 0x20 ADD DUP1 DUP4 GT PUSH2 0x20F4 JUMPI DUP3 SWAP1 SUB PUSH1 0x1F AND DUP3 ADD SWAP2 JUMPDEST POP POP POP POP POP DUP2 MSTORE PUSH1 0x20 ADD PUSH1 0x2 DUP3 ADD DUP1 SLOAD PUSH2 0x212A SWAP1 PUSH2 0x38F3 JUMP JUMPDEST DUP1 PUSH1 0x1F ADD PUSH1 0x20 DUP1 SWAP2 DIV MUL PUSH1 0x20 ADD PUSH1 0x40 MLOAD SWAP1 DUP2 ADD PUSH1 0x40 MSTORE DUP1 SWAP3 SWAP2 SWAP1 DUP2 DUP2 MSTORE PUSH1 0x20 ADD DUP3 DUP1 SLOAD PUSH2 0x2156 SWAP1 PUSH2 0x38F3 JUMP JUMPDEST DUP1 ISZERO PUSH2 0x21A3 JUMPI DUP1 PUSH1 0x1F LT PUSH2 0x2178 JUMPI PUSH2 0x100 DUP1 DUP4 SLOAD DIV MUL DUP4 MSTORE SWAP2 PUSH1 0x20 ADD SWAP2 PUSH2 0x21A3 JUMP JUMPDEST DUP3 ADD SWAP2 SWAP1 PUSH1 0x0 MSTORE PUSH1 0x20 PUSH1 0x0 KECCAK256 SWAP1 JUMPDEST DUP2 SLOAD DUP2 MSTORE SWAP1 PUSH1 0x1 ADD SWAP1 PUSH1 0x20 ADD DUP1 DUP4 GT PUSH2 0x2186 JUMPI DUP3 SWAP1 SUB PUSH1 0x1F AND DUP3 ADD SWAP2 JUMPDEST POP POP POP POP POP DUP2 MSTORE PUSH1 0x20 ADD PUSH1 0x3 DUP3 ADD DUP1 SLOAD DUP1 PUSH1 0x20 MUL PUSH1 0x20 ADD PUSH1 0x40 MLOAD SWAP1 DUP2 ADD PUSH1 0x40 MSTORE DUP1 SWAP3 SWAP2 SWAP1 DUP2 DUP2 MSTORE PUSH1 0x20 ADD PUSH1 0x0 SWAP1 JUMPDEST DUP3 DUP3 LT ISZERO PUSH2 0x227D JUMPI DUP4 DUP3 SWAP1 PUSH1 0x0 MSTORE PUSH1 0x20 PUSH1 0x0 KECCAK256 ADD DUP1 SLOAD PUSH2 0x21F0 SWAP1 PUSH2 0x38F3 JUMP JUMPDEST DUP1 PUSH1 0x1F ADD PUSH1 0x20 DUP1 SWAP2 DIV MUL PUSH1 0x20 ADD PUSH1 0x40 MLOAD SWAP1 DUP2 ADD PUSH1 0x40 MSTORE DUP1 SWAP3 SWAP2 SWAP1 DUP2 DUP2 MSTORE PUSH1 0x20 ADD DUP3 DUP1 SLOAD PUSH2 0x221C SWAP1 PUSH2 0x38F3 JUMP JUMPDEST DUP1 ISZERO PUSH2 0x2269 JUMPI DUP1 PUSH1 0x1F LT PUSH2 0x223E JUMPI PUSH2 0x100 DUP1 DUP4 SLOAD DIV MUL DUP4 MSTORE SWAP2 PUSH1 0x20 ADD SWAP2 PUSH2 0x2269 JUMP JUMPDEST DUP3 ADD SWAP2 SWAP1 PUSH1 0x0 MSTORE PUSH1 0x20 PUSH1 0x0 KECCAK256 SWAP1 JUMPDEST DUP2 SLOAD DUP2 MSTORE SWAP1 PUSH1 0x1 ADD SWAP1 PUSH1 0x20 ADD DUP1 DUP4 GT PUSH2 0x224C JUMPI DUP3 SWAP1 SUB PUSH1 0x1F AND DUP3 ADD SWAP2 JUMPDEST POP POP POP POP POP DUP2 MSTORE PUSH1 0x20 ADD SWAP1 PUSH1 0x1 ADD SWAP1 PUSH2 0x21D1 JUMP JUMPDEST POP POP POP POP DUP2 MSTORE POP POP SWAP1 POP DUP1 PUSH1 0x20 ADD MLOAD SWAP6 POP PUSH1 0x9 DUP1 SLOAD DUP1 PUSH1 0x20 MUL PUSH1 0x20 ADD PUSH1 0x40 MLOAD SWAP1 DUP2 ADD PUSH1 0x40 MSTORE DUP1 SWAP3 SWAP2 SWAP1 DUP2 DUP2 MSTORE PUSH1 0x20 ADD PUSH1 0x0 SWAP1 JUMPDEST DUP3 DUP3 LT ISZERO PUSH2 0x2477 JUMPI DUP4 DUP3 SWAP1 PUSH1 0x0 MSTORE PUSH1 0x20 PUSH1 0x0 KECCAK256 SWAP1 PUSH1 0x4 MUL ADD PUSH1 0x40 MLOAD DUP1 PUSH1 0x80 ADD PUSH1 0x40 MSTORE SWAP1 DUP2 PUSH1 0x0 DUP3 ADD PUSH1 0x0 SWAP1 SLOAD SWAP1 PUSH2 0x100 EXP SWAP1 DIV PUSH20 0xFFFFFFFFFFFFFFFFFFFFFFFFFFFFFFFFFFFFFFFF AND PUSH20 0xFFFFFFFFFFFFFFFFFFFFFFFFFFFFFFFFFFFFFFFF AND PUSH20 0xFFFFFFFFFFFFFFFFFFFFFFFFFFFFFFFFFFFFFFFF AND DUP2 MSTORE PUSH1 0x20 ADD PUSH1 0x1 DUP3 ADD DUP1 SLOAD PUSH2 0x2339 SWAP1 PUSH2 0x38F3 JUMP JUMPDEST DUP1 PUSH1 0x1F ADD PUSH1 0x20 DUP1 SWAP2 DIV MUL PUSH1 0x20 ADD PUSH1 0x40 MLOAD SWAP1 DUP2 ADD PUSH1 0x40 MSTORE DUP1 SWAP3 SWAP2 SWAP1 DUP2 DUP2 MSTORE PUSH1 0x20 ADD DUP3 DUP1 SLOAD PUSH2 0x2365 SWAP1 PUSH2 0x38F3 JUMP JUMPDEST DUP1 ISZERO PUSH2 0x23B2 JUMPI DUP1 PUSH1 0x1F LT PUSH2 0x2387 JUMPI PUSH2 0x100 DUP1 DUP4 SLOAD DIV MUL DUP4 MSTORE SWAP2 PUSH1 0x20 ADD SWAP2 PUSH2 0x23B2 JUMP JUMPDEST DUP3 ADD SWAP2 SWAP1 PUSH1 0x0 MSTORE PUSH1 0x20 PUSH1 0x0 KECCAK256 SWAP1 JUMPDEST DUP2 SLOAD DUP2 MSTORE SWAP1 PUSH1 0x1 ADD SWAP1 PUSH1 0x20 ADD DUP1 DUP4 GT PUSH2 0x2395 JUMPI DUP3 SWAP1 SUB PUSH1 0x1F AND DUP3 ADD SWAP2 JUMPDEST POP POP POP POP POP DUP2 MSTORE PUSH1 0x20 ADD PUSH1 0x2 DUP3 ADD DUP1 SLOAD PUSH2 0x23CB SWAP1 PUSH2 0x38F3 JUMP JUMPDEST DUP1 PUSH1 0x1F ADD PUSH1 0x20 DUP1 SWAP2 DIV MUL PUSH1 0x20 ADD PUSH1 0x40 MLOAD SWAP1 DUP2 ADD PUSH1 0x40 MSTORE DUP1 SWAP3 SWAP2 SWAP1 DUP2 DUP2 MSTORE PUSH1 0x20 ADD DUP3 DUP1 SLOAD PUSH2 0x23F7 SWAP1 PUSH2 0x38F3 JUMP JUMPDEST DUP1 ISZERO PUSH2 0x2444 JUMPI DUP1 PUSH1 0x1F LT PUSH2 0x2419 JUMPI PUSH2 0x100 DUP1 DUP4 SLOAD DIV MUL DUP4 MSTORE SWAP2 PUSH1 0x20 ADD SWAP2 PUSH2 0x2444 JUMP JUMPDEST DUP3 ADD SWAP2 SWAP1 PUSH1 0x0 MSTORE PUSH1 0x20 PUSH1 0x0 KECCAK256 SWAP1 JUMPDEST DUP2 SLOAD DUP2 MSTORE SWAP1 PUSH1 0x1 ADD SWAP1 PUSH1 0x20 ADD DUP1 DUP4 GT PUSH2 0x2427 JUMPI DUP3 SWAP1 SUB PUSH1 0x1F AND DUP3 ADD SWAP2 JUMPDEST POP POP POP POP POP DUP2 MSTORE PUSH1 0x20 ADD PUSH1 0x3 DUP3 ADD PUSH1 0x0 SWAP1 SLOAD SWAP1 PUSH2 0x100 EXP SWAP1 DIV PUSH1 0xFF AND ISZERO ISZERO ISZERO ISZERO DUP2 MSTORE POP POP DUP2 MSTORE PUSH1 0x20 ADD SWAP1 PUSH1 0x1 ADD SWAP1 PUSH2 0x22B0 JUMP JUMPDEST POP POP POP POP SWAP5 POP PUSH1 0x5 DUP1 SLOAD DUP1 PUSH1 0x20 MUL PUSH1 0x20 ADD PUSH1 0x40 MLOAD SWAP1 DUP2 ADD PUSH1 0x40 MSTORE DUP1 SWAP3 SWAP2 SWAP1 DUP2 DUP2 MSTORE PUSH1 0x20 ADD PUSH1 0x0 SWAP1 JUMPDEST DUP3 DUP3 LT ISZERO PUSH2 0x254B JUMPI DUP4 DUP3 SWAP1 PUSH1 0x0 MSTORE PUSH1 0x20 PUSH1 0x0 KECCAK256 ADD DUP1 SLOAD PUSH2 0x24BE SWAP1 PUSH2 0x38F3 JUMP JUMPDEST DUP1 PUSH1 0x1F ADD PUSH1 0x20 DUP1 SWAP2 DIV MUL PUSH1 0x20 ADD PUSH1 0x40 MLOAD SWAP1 DUP2 ADD PUSH1 0x40 MSTORE DUP1 SWAP3 SWAP2 SWAP1 DUP2 DUP2 MSTORE PUSH1 0x20 ADD DUP3 DUP1 SLOAD PUSH2 0x24EA SWAP1 PUSH2 0x38F3 JUMP JUMPDEST DUP1 ISZERO PUSH2 0x2537 JUMPI DUP1 PUSH1 0x1F LT PUSH2 0x250C JUMPI PUSH2 0x100 DUP1 DUP4 SLOAD DIV MUL DUP4 MSTORE SWAP2 PUSH1 0x20 ADD SWAP2 PUSH2 0x2537 JUMP JUMPDEST DUP3 ADD SWAP2 SWAP1 PUSH1 0x0 MSTORE PUSH1 0x20 PUSH1 0x0 KECCAK256 SWAP1 JUMPDEST DUP2 SLOAD DUP2 MSTORE SWAP1 PUSH1 0x1 ADD SWAP1 PUSH1 0x20 ADD DUP1 DUP4 GT PUSH2 0x251A JUMPI DUP3 SWAP1 SUB PUSH1 0x1F AND DUP3 ADD SWAP2 JUMPDEST POP POP POP POP POP DUP2 MSTORE PUSH1 0x20 ADD SWAP1 PUSH1 0x1 ADD SWAP1 PUSH2 0x249F JUMP JUMPDEST POP POP POP POP SWAP4 POP PUSH1 0x7 DUP1 SLOAD DUP1 PUSH1 0x20 MUL PUSH1 0x20 ADD PUSH1 0x40 MLOAD SWAP1 DUP2 ADD PUSH1 0x40 MSTORE DUP1 SWAP3 SWAP2 SWAP1 DUP2 DUP2 MSTORE PUSH1 0x20 ADD DUP3 DUP1 SLOAD DUP1 ISZERO PUSH2 0x25D3 JUMPI PUSH1 0x20 MUL DUP3 ADD SWAP2 SWAP1 PUSH1 0x0 MSTORE PUSH1 0x20 PUSH1 0x0 KECCAK256 SWAP1 JUMPDEST DUP2 PUSH1 0x0 SWAP1 SLOAD SWAP1 PUSH2 0x100 EXP SWAP1 DIV PUSH20 0xFFFFFFFFFFFFFFFFFFFFFFFFFFFFFFFFFFFFFFFF AND PUSH20 0xFFFFFFFFFFFFFFFFFFFFFFFFFFFFFFFFFFFFFFFF AND DUP2 MSTORE PUSH1 0x20 ADD SWAP1 PUSH1 0x1 ADD SWAP1 DUP1 DUP4 GT PUSH2 0x2589 JUMPI JUMPDEST POP POP POP POP POP SWAP3 POP POP POP SWAP1 SWAP2 SWAP3 SWAP4 JUMP JUMPDEST PUSH1 0x4 PUSH1 0x0 SWAP1 SLOAD SWAP1 PUSH2 0x100 EXP SWAP1 DIV PUSH20 0xFFFFFFFFFFFFFFFFFFFFFFFFFFFFFFFFFFFFFFFF AND PUSH20 0xFFFFFFFFFFFFFFFFFFFFFFFFFFFFFFFFFFFFFFFF AND CALLER PUSH20 0xFFFFFFFFFFFFFFFFFFFFFFFFFFFFFFFFFFFFFFFF AND EQ PUSH2 0x2672 JUMPI PUSH1 0x40 MLOAD PUSH32 0x8C379A000000000000000000000000000000000000000000000000000000000 DUP2 MSTORE PUSH1 0x4 ADD PUSH2 0x2669 SWAP1 PUSH2 0x36B4 JUMP JUMPDEST PUSH1 0x40 MLOAD DUP1 SWAP2 SUB SWAP1 REVERT JUMPDEST PUSH1 0x0 PUSH1 0x3 PUSH1 0x5 DUP2 GT ISZERO PUSH2 0x2688 JUMPI PUSH2 0x2687 PUSH2 0x3956 JUMP JUMPDEST JUMPDEST SWAP1 POP PUSH2 0x2696 DUP4 DUP4 DUP4 CALLER PUSH2 0x26D7 JUMP JUMPDEST PUSH1 0x5 DUP3 SWAP1 DUP1 PUSH1 0x1 DUP2 SLOAD ADD DUP1 DUP3 SSTORE DUP1 SWAP2 POP POP PUSH1 0x1 SWAP1 SUB SWAP1 PUSH1 0x0 MSTORE PUSH1 0x20 PUSH1 0x0 KECCAK256 ADD PUSH1 0x0 SWAP1 SWAP2 SWAP1 SWAP2 SWAP1 SWAP2 POP SWAP1 DUP1 MLOAD SWAP1 PUSH1 0x20 ADD SWAP1 PUSH2 0x26D1 SWAP3 SWAP2 SWAP1 PUSH2 0x2A34 JUMP JUMPDEST POP POP POP POP JUMP JUMPDEST DUP1 DUP4 PUSH2 0x27BC PUSH1 0x2 PUSH1 0x0 DUP5 PUSH20 0xFFFFFFFFFFFFFFFFFFFFFFFFFFFFFFFFFFFFFFFF AND PUSH20 0xFFFFFFFFFFFFFFFFFFFFFFFFFFFFFFFFFFFFFFFF AND DUP2 MSTORE PUSH1 0x20 ADD SWAP1 DUP2 MSTORE PUSH1 0x20 ADD PUSH1 0x0 KECCAK256 PUSH1 0x2 ADD DUP1 SLOAD PUSH2 0x2729 SWAP1 PUSH2 0x38F3 JUMP JUMPDEST DUP1 PUSH1 0x1F ADD PUSH1 0x20 DUP1 SWAP2 DIV MUL PUSH1 0x20 ADD PUSH1 0x40 MLOAD SWAP1 DUP2 ADD PUSH1 0x40 MSTORE DUP1 SWAP3 SWAP2 SWAP1 DUP2 DUP2 MSTORE PUSH1 0x20 ADD DUP3 DUP1 SLOAD PUSH2 0x2755 SWAP1 PUSH2 0x38F3 JUMP JUMPDEST DUP1 ISZERO PUSH2 0x27A2 JUMPI DUP1 PUSH1 0x1F LT PUSH2 0x2777 JUMPI PUSH2 0x100 DUP1 DUP4 SLOAD DIV MUL DUP4 MSTORE SWAP2 PUSH1 0x20 ADD SWAP2 PUSH2 0x27A2 JUMP JUMPDEST DUP3 ADD SWAP2 SWAP1 PUSH1 0x0 MSTORE PUSH1 0x20 PUSH1 0x0 KECCAK256 SWAP1 JUMPDEST DUP2 SLOAD DUP2 MSTORE SWAP1 PUSH1 0x1 ADD SWAP1 PUSH1 0x20 ADD DUP1 DUP4 GT PUSH2 0x2785 JUMPI DUP3 SWAP1 SUB PUSH1 0x1F AND DUP3 ADD SWAP2 JUMPDEST POP POP POP POP POP PUSH1 0x40 MLOAD DUP1 PUSH1 0x20 ADD PUSH1 0x40 MSTORE DUP1 PUSH1 0x0 DUP2 MSTORE POP PUSH2 0x29DB JUMP JUMPDEST ISZERO PUSH2 0x27FC JUMPI PUSH1 0x40 MLOAD PUSH32 0x8C379A000000000000000000000000000000000000000000000000000000000 DUP2 MSTORE PUSH1 0x4 ADD PUSH2 0x27F3 SWAP1 PUSH2 0x36D4 JUMP JUMPDEST PUSH1 0x40 MLOAD DUP1 SWAP2 SUB SWAP1 REVERT JUMPDEST PUSH1 0x0 PUSH20 0xFFFFFFFFFFFFFFFFFFFFFFFFFFFFFFFFFFFFFFFF AND PUSH1 0x1 DUP3 PUSH1 0x40 MLOAD PUSH2 0x2824 SWAP2 SWAP1 PUSH2 0x34BC JUMP JUMPDEST SWAP1 DUP2 MSTORE PUSH1 0x20 ADD PUSH1 0x40 MLOAD DUP1 SWAP2 SUB SWAP1 KECCAK256 PUSH1 0x0 SWAP1 SLOAD SWAP1 PUSH2 0x100 EXP SWAP1 DIV PUSH20 0xFFFFFFFFFFFFFFFFFFFFFFFFFFFFFFFFFFFFFFFF AND PUSH20 0xFFFFFFFFFFFFFFFFFFFFFFFFFFFFFFFFFFFFFFFF AND EQ PUSH2 0x28A9 JUMPI PUSH1 0x40 MLOAD PUSH32 0x8C379A000000000000000000000000000000000000000000000000000000000 DUP2 MSTORE PUSH1 0x4 ADD PUSH2 0x28A0 SWAP1 PUSH2 0x3634 JUMP JUMPDEST PUSH1 0x40 MLOAD DUP1 SWAP2 SUB SWAP1 REVERT JUMPDEST PUSH1 0x60 PUSH1 0x0 PUSH1 0x40 MLOAD DUP1 PUSH1 0x80 ADD PUSH1 0x40 MSTORE DUP1 DUP8 DUP2 MSTORE PUSH1 0x20 ADD DUP9 DUP2 MSTORE PUSH1 0x20 ADD DUP10 DUP2 MSTORE PUSH1 0x20 ADD DUP4 DUP2 MSTORE POP SWAP1 POP DUP5 PUSH1 0x1 DUP9 PUSH1 0x40 MLOAD PUSH2 0x28E1 SWAP2 SWAP1 PUSH2 0x34BC JUMP JUMPDEST SWAP1 DUP2 MSTORE PUSH1 0x20 ADD PUSH1 0x40 MLOAD DUP1 SWAP2 SUB SWAP1 KECCAK256 PUSH1 0x0 PUSH2 0x100 EXP DUP2 SLOAD DUP2 PUSH20 0xFFFFFFFFFFFFFFFFFFFFFFFFFFFFFFFFFFFFFFFF MUL NOT AND SWAP1 DUP4 PUSH20 0xFFFFFFFFFFFFFFFFFFFFFFFFFFFFFFFFFFFFFFFF AND MUL OR SWAP1 SSTORE POP DUP1 PUSH1 0x2 PUSH1 0x0 DUP8 PUSH20 0xFFFFFFFFFFFFFFFFFFFFFFFFFFFFFFFFFFFFFFFF AND PUSH20 0xFFFFFFFFFFFFFFFFFFFFFFFFFFFFFFFFFFFFFFFF AND DUP2 MSTORE PUSH1 0x20 ADD SWAP1 DUP2 MSTORE PUSH1 0x20 ADD PUSH1 0x0 KECCAK256 PUSH1 0x0 DUP3 ADD MLOAD DUP2 PUSH1 0x0 ADD SSTORE PUSH1 0x20 DUP3 ADD MLOAD DUP2 PUSH1 0x1 ADD SWAP1 DUP1 MLOAD SWAP1 PUSH1 0x20 ADD SWAP1 PUSH2 0x2993 SWAP3 SWAP2 SWAP1 PUSH2 0x2A34 JUMP JUMPDEST POP PUSH1 0x40 DUP3 ADD MLOAD DUP2 PUSH1 0x2 ADD SWAP1 DUP1 MLOAD SWAP1 PUSH1 0x20 ADD SWAP1 PUSH2 0x29B0 SWAP3 SWAP2 SWAP1 PUSH2 0x2A34 JUMP JUMPDEST POP PUSH1 0x60 DUP3 ADD MLOAD DUP2 PUSH1 0x3 ADD SWAP1 DUP1 MLOAD SWAP1 PUSH1 0x20 ADD SWAP1 PUSH2 0x29CD SWAP3 SWAP2 SWAP1 PUSH2 0x2ABA JUMP JUMPDEST POP SWAP1 POP POP POP POP POP POP POP POP POP POP JUMP JUMPDEST PUSH1 0x0 DUP2 PUSH1 0x40 MLOAD PUSH1 0x20 ADD PUSH2 0x29EE SWAP2 SWAP1 PUSH2 0x34BC JUMP JUMPDEST PUSH1 0x40 MLOAD PUSH1 0x20 DUP2 DUP4 SUB SUB DUP2 MSTORE SWAP1 PUSH1 0x40 MSTORE DUP1 MLOAD SWAP1 PUSH1 0x20 ADD KECCAK256 DUP4 PUSH1 0x40 MLOAD PUSH1 0x20 ADD PUSH2 0x2A15 SWAP2 SWAP1 PUSH2 0x34BC JUMP JUMPDEST PUSH1 0x40 MLOAD PUSH1 0x20 DUP2 DUP4 SUB SUB DUP2 MSTORE SWAP1 PUSH1 0x40 MSTORE DUP1 MLOAD SWAP1 PUSH1 0x20 ADD KECCAK256 EQ SWAP1 POP SWAP3 SWAP2 POP POP JUMP JUMPDEST DUP3 DUP1 SLOAD PUSH2 0x2A40 SWAP1 PUSH2 0x38F3 JUMP JUMPDEST SWAP1 PUSH1 0x0 MSTORE PUSH1 0x20 PUSH1 0x0 KECCAK256 SWAP1 PUSH1 0x1F ADD PUSH1 0x20 SWAP1 DIV DUP2 ADD SWAP3 DUP3 PUSH2 0x2A62 JUMPI PUSH1 0x0 DUP6 SSTORE PUSH2 0x2AA9 JUMP JUMPDEST DUP3 PUSH1 0x1F LT PUSH2 0x2A7B JUMPI DUP1 MLOAD PUSH1 0xFF NOT AND DUP4 DUP1 ADD OR DUP6 SSTORE PUSH2 0x2AA9 JUMP JUMPDEST DUP3 DUP1 ADD PUSH1 0x1 ADD DUP6 SSTORE DUP3 ISZERO PUSH2 0x2AA9 JUMPI SWAP2 DUP3 ADD JUMPDEST DUP3 DUP2 GT ISZERO PUSH2 0x2AA8 JUMPI DUP3 MLOAD DUP3 SSTORE SWAP2 PUSH1 0x20 ADD SWAP2 SWAP1 PUSH1 0x1 ADD SWAP1 PUSH2 0x2A8D JUMP JUMPDEST JUMPDEST POP SWAP1 POP PUSH2 0x2AB6 SWAP2 SWAP1 PUSH2 0x2B1A JUMP JUMPDEST POP SWAP1 JUMP JUMPDEST DUP3 DUP1 SLOAD DUP3 DUP3 SSTORE SWAP1 PUSH1 0x0 MSTORE PUSH1 0x20 PUSH1 0x0 KECCAK256 SWAP1 DUP2 ADD SWAP3 DUP3 ISZERO PUSH2 0x2B09 JUMPI SWAP2 PUSH1 0x20 MUL DUP3 ADD JUMPDEST DUP3 DUP2 GT ISZERO PUSH2 0x2B08 JUMPI DUP3 MLOAD DUP3 SWAP1 DUP1 MLOAD SWAP1 PUSH1 0x20 ADD SWAP1 PUSH2 0x2AF8 SWAP3 SWAP2 SWAP1 PUSH2 0x2A34 JUMP JUMPDEST POP SWAP2 PUSH1 0x20 ADD SWAP2 SWAP1 PUSH1 0x1 ADD SWAP1 PUSH2 0x2ADA JUMP JUMPDEST JUMPDEST POP SWAP1 POP PUSH2 0x2B16 SWAP2 SWAP1 PUSH2 0x2B37 JUMP JUMPDEST POP SWAP1 JUMP JUMPDEST JUMPDEST DUP1 DUP3 GT ISZERO PUSH2 0x2B33 JUMPI PUSH1 0x0 DUP2 PUSH1 0x0 SWAP1 SSTORE POP PUSH1 0x1 ADD PUSH2 0x2B1B JUMP JUMPDEST POP SWAP1 JUMP JUMPDEST JUMPDEST DUP1 DUP3 GT ISZERO PUSH2 0x2B57 JUMPI PUSH1 0x0 DUP2 DUP2 PUSH2 0x2B4E SWAP2 SWAP1 PUSH2 0x2B5B JUMP JUMPDEST POP PUSH1 0x1 ADD PUSH2 0x2B38 JUMP JUMPDEST POP SWAP1 JUMP JUMPDEST POP DUP1 SLOAD PUSH2 0x2B67 SWAP1 PUSH2 0x38F3 JUMP JUMPDEST PUSH1 0x0 DUP3 SSTORE DUP1 PUSH1 0x1F LT PUSH2 0x2B79 JUMPI POP PUSH2 0x2B98 JUMP JUMPDEST PUSH1 0x1F ADD PUSH1 0x20 SWAP1 DIV SWAP1 PUSH1 0x0 MSTORE PUSH1 0x20 PUSH1 0x0 KECCAK256 SWAP1 DUP2 ADD SWAP1 PUSH2 0x2B97 SWAP2 SWAP1 PUSH2 0x2B1A JUMP JUMPDEST JUMPDEST POP JUMP JUMPDEST PUSH1 0x0 PUSH2 0x2BAE PUSH2 0x2BA9 DUP5 PUSH2 0x3739 JUMP JUMPDEST PUSH2 0x3714 JUMP JUMPDEST SWAP1 POP DUP3 DUP2 MSTORE PUSH1 0x20 DUP2 ADD DUP5 DUP5 DUP5 ADD GT ISZERO PUSH2 0x2BCA JUMPI PUSH2 0x2BC9 PUSH2 0x39E8 JUMP JUMPDEST JUMPDEST PUSH2 0x2BD5 DUP5 DUP3 DUP6 PUSH2 0x38B1 JUMP JUMPDEST POP SWAP4 SWAP3 POP POP POP JUMP JUMPDEST PUSH1 0x0 DUP2 CALLDATALOAD SWAP1 POP PUSH2 0x2BEC DUP2 PUSH2 0x3B4D JUMP JUMPDEST SWAP3 SWAP2 POP POP JUMP JUMPDEST PUSH1 0x0 DUP2 CALLDATALOAD SWAP1 POP PUSH2 0x2C01 DUP2 PUSH2 0x3B64 JUMP JUMPDEST SWAP3 SWAP2 POP POP JUMP JUMPDEST PUSH1 0x0 DUP2 CALLDATALOAD SWAP1 POP PUSH2 0x2C16 DUP2 PUSH2 0x3B7B JUMP JUMPDEST SWAP3 SWAP2 POP POP JUMP JUMPDEST PUSH1 0x0 DUP3 PUSH1 0x1F DUP4 ADD SLT PUSH2 0x2C31 JUMPI PUSH2 0x2C30 PUSH2 0x39E3 JUMP JUMPDEST JUMPDEST DUP2 CALLDATALOAD PUSH2 0x2C41 DUP5 DUP3 PUSH1 0x20 DUP7 ADD PUSH2 0x2B9B JUMP JUMPDEST SWAP2 POP POP SWAP3 SWAP2 POP POP JUMP JUMPDEST PUSH1 0x0 PUSH1 0x20 DUP3 DUP5 SUB SLT ISZERO PUSH2 0x2C60 JUMPI PUSH2 0x2C5F PUSH2 0x39F2 JUMP JUMPDEST JUMPDEST PUSH1 0x0 PUSH2 0x2C6E DUP5 DUP3 DUP6 ADD PUSH2 0x2BDD JUMP JUMPDEST SWAP2 POP POP SWAP3 SWAP2 POP POP JUMP JUMPDEST PUSH1 0x0 PUSH1 0x20 DUP3 DUP5 SUB SLT ISZERO PUSH2 0x2C8D JUMPI PUSH2 0x2C8C PUSH2 0x39F2 JUMP JUMPDEST JUMPDEST PUSH1 0x0 PUSH2 0x2C9B DUP5 DUP3 DUP6 ADD PUSH2 0x2BF2 JUMP JUMPDEST SWAP2 POP POP SWAP3 SWAP2 POP POP JUMP JUMPDEST PUSH1 0x0 DUP1 PUSH1 0x0 PUSH1 0x60 DUP5 DUP7 SUB SLT ISZERO PUSH2 0x2CBD JUMPI PUSH2 0x2CBC PUSH2 0x39F2 JUMP JUMPDEST JUMPDEST PUSH1 0x0 PUSH2 0x2CCB DUP7 DUP3 DUP8 ADD PUSH2 0x2BDD JUMP JUMPDEST SWAP4 POP POP PUSH1 0x20 DUP5 ADD CALLDATALOAD PUSH8 0xFFFFFFFFFFFFFFFF DUP2 GT ISZERO PUSH2 0x2CEC JUMPI PUSH2 0x2CEB PUSH2 0x39ED JUMP JUMPDEST JUMPDEST PUSH2 0x2CF8 DUP7 DUP3 DUP8 ADD PUSH2 0x2C1C JUMP JUMPDEST SWAP3 POP POP PUSH1 0x40 DUP5 ADD CALLDATALOAD PUSH8 0xFFFFFFFFFFFFFFFF DUP2 GT ISZERO PUSH2 0x2D19 JUMPI PUSH2 0x2D18 PUSH2 0x39ED JUMP JUMPDEST JUMPDEST PUSH2 0x2D25 DUP7 DUP3 DUP8 ADD PUSH2 0x2C1C JUMP JUMPDEST SWAP2 POP POP SWAP3 POP SWAP3 POP SWAP3 JUMP JUMPDEST PUSH1 0x0 DUP1 PUSH1 0x0 DUP1 PUSH1 0x0 DUP1 PUSH1 0xC0 DUP8 DUP10 SUB SLT ISZERO PUSH2 0x2D4C JUMPI PUSH2 0x2D4B PUSH2 0x39F2 JUMP JUMPDEST JUMPDEST PUSH1 0x0 PUSH2 0x2D5A DUP10 DUP3 DUP11 ADD PUSH2 0x2BDD JUMP JUMPDEST SWAP7 POP POP PUSH1 0x20 DUP8 ADD CALLDATALOAD PUSH8 0xFFFFFFFFFFFFFFFF DUP2 GT ISZERO PUSH2 0x2D7B JUMPI PUSH2 0x2D7A PUSH2 0x39ED JUMP JUMPDEST JUMPDEST PUSH2 0x2D87 DUP10 DUP3 DUP11 ADD PUSH2 0x2C1C JUMP JUMPDEST SWAP6 POP POP PUSH1 0x40 DUP8 ADD CALLDATALOAD PUSH8 0xFFFFFFFFFFFFFFFF DUP2 GT ISZERO PUSH2 0x2DA8 JUMPI PUSH2 0x2DA7 PUSH2 0x39ED JUMP JUMPDEST JUMPDEST PUSH2 0x2DB4 DUP10 DUP3 DUP11 ADD PUSH2 0x2C1C JUMP JUMPDEST SWAP5 POP POP PUSH1 0x60 PUSH2 0x2DC5 DUP10 DUP3 DUP11 ADD PUSH2 0x2C07 JUMP JUMPDEST SWAP4 POP POP PUSH1 0x80 PUSH2 0x2DD6 DUP10 DUP3 DUP11 ADD PUSH2 0x2C07 JUMP JUMPDEST SWAP3 POP POP PUSH1 0xA0 PUSH2 0x2DE7 DUP10 DUP3 DUP11 ADD PUSH2 0x2C07 JUMP JUMPDEST SWAP2 POP POP SWAP3 SWAP6 POP SWAP3 SWAP6 POP SWAP3 SWAP6 JUMP JUMPDEST PUSH1 0x0 DUP1 PUSH1 0x0 DUP1 PUSH1 0x80 DUP6 DUP8 SUB SLT ISZERO PUSH2 0x2E0E JUMPI PUSH2 0x2E0D PUSH2 0x39F2 JUMP JUMPDEST JUMPDEST PUSH1 0x0 PUSH2 0x2E1C DUP8 DUP3 DUP9 ADD PUSH2 0x2BDD JUMP JUMPDEST SWAP5 POP POP PUSH1 0x20 DUP6 ADD CALLDATALOAD PUSH8 0xFFFFFFFFFFFFFFFF DUP2 GT ISZERO PUSH2 0x2E3D JUMPI PUSH2 0x2E3C PUSH2 0x39ED JUMP JUMPDEST JUMPDEST PUSH2 0x2E49 DUP8 DUP3 DUP9 ADD PUSH2 0x2C1C JUMP JUMPDEST SWAP4 POP POP PUSH1 0x40 DUP6 ADD CALLDATALOAD PUSH8 0xFFFFFFFFFFFFFFFF DUP2 GT ISZERO PUSH2 0x2E6A JUMPI PUSH2 0x2E69 PUSH2 0x39ED JUMP JUMPDEST JUMPDEST PUSH2 0x2E76 DUP8 DUP3 DUP9 ADD PUSH2 0x2C1C JUMP JUMPDEST SWAP3 POP POP PUSH1 0x60 DUP6 ADD CALLDATALOAD PUSH8 0xFFFFFFFFFFFFFFFF DUP2 GT ISZERO PUSH2 0x2E97 JUMPI PUSH2 0x2E96 PUSH2 0x39ED JUMP JUMPDEST JUMPDEST PUSH2 0x2EA3 DUP8 DUP3 DUP9 ADD PUSH2 0x2C1C JUMP JUMPDEST SWAP2 POP POP SWAP3 SWAP6 SWAP2 SWAP5 POP SWAP3 POP JUMP JUMPDEST PUSH1 0x0 PUSH1 0x20 DUP3 DUP5 SUB SLT ISZERO PUSH2 0x2EC5 JUMPI PUSH2 0x2EC4 PUSH2 0x39F2 JUMP JUMPDEST JUMPDEST PUSH1 0x0 DUP3 ADD CALLDATALOAD PUSH8 0xFFFFFFFFFFFFFFFF DUP2 GT ISZERO PUSH2 0x2EE3 JUMPI PUSH2 0x2EE2 PUSH2 0x39ED JUMP JUMPDEST JUMPDEST PUSH2 0x2EEF DUP5 DUP3 DUP6 ADD PUSH2 0x2C1C JUMP JUMPDEST SWAP2 POP POP SWAP3 SWAP2 POP POP JUMP JUMPDEST PUSH1 0x0 DUP1 PUSH1 0x40 DUP4 DUP6 SUB SLT ISZERO PUSH2 0x2F0F JUMPI PUSH2 0x2F0E PUSH2 0x39F2 JUMP JUMPDEST JUMPDEST PUSH1 0x0 DUP4 ADD CALLDATALOAD PUSH8 0xFFFFFFFFFFFFFFFF DUP2 GT ISZERO PUSH2 0x2F2D JUMPI PUSH2 0x2F2C PUSH2 0x39ED JUMP JUMPDEST JUMPDEST PUSH2 0x2F39 DUP6 DUP3 DUP7 ADD PUSH2 0x2C1C JUMP JUMPDEST SWAP3 POP POP PUSH1 0x20 PUSH2 0x2F4A DUP6 DUP3 DUP7 ADD PUSH2 0x2BDD JUMP JUMPDEST SWAP2 POP POP SWAP3 POP SWAP3 SWAP1 POP JUMP JUMPDEST PUSH1 0x0 DUP1 PUSH1 0x40 DUP4 DUP6 SUB SLT ISZERO PUSH2 0x2F6B JUMPI PUSH2 0x2F6A PUSH2 0x39F2 JUMP JUMPDEST JUMPDEST PUSH1 0x0 DUP4 ADD CALLDATALOAD PUSH8 0xFFFFFFFFFFFFFFFF DUP2 GT ISZERO PUSH2 0x2F89 JUMPI PUSH2 0x2F88 PUSH2 0x39ED JUMP JUMPDEST JUMPDEST PUSH2 0x2F95 DUP6 DUP3 DUP7 ADD PUSH2 0x2C1C JUMP JUMPDEST SWAP3 POP POP PUSH1 0x20 DUP4 ADD CALLDATALOAD PUSH8 0xFFFFFFFFFFFFFFFF DUP2 GT ISZERO PUSH2 0x2FB6 JUMPI PUSH2 0x2FB5 PUSH2 0x39ED JUMP JUMPDEST JUMPDEST PUSH2 0x2FC2 DUP6 DUP3 DUP7 ADD PUSH2 0x2C1C JUMP JUMPDEST SWAP2 POP POP SWAP3 POP SWAP3 SWAP1 POP JUMP JUMPDEST PUSH1 0x0 DUP1 PUSH1 0x0 PUSH1 0x60 DUP5 DUP7 SUB SLT ISZERO PUSH2 0x2FE5 JUMPI PUSH2 0x2FE4 PUSH2 0x39F2 JUMP JUMPDEST JUMPDEST PUSH1 0x0 DUP5 ADD CALLDATALOAD PUSH8 0xFFFFFFFFFFFFFFFF DUP2 GT ISZERO PUSH2 0x3003 JUMPI PUSH2 0x3002 PUSH2 0x39ED JUMP JUMPDEST JUMPDEST PUSH2 0x300F DUP7 DUP3 DUP8 ADD PUSH2 0x2C1C JUMP JUMPDEST SWAP4 POP POP PUSH1 0x20 DUP5 ADD CALLDATALOAD PUSH8 0xFFFFFFFFFFFFFFFF DUP2 GT ISZERO PUSH2 0x3030 JUMPI PUSH2 0x302F PUSH2 0x39ED JUMP JUMPDEST JUMPDEST PUSH2 0x303C DUP7 DUP3 DUP8 ADD PUSH2 0x2C1C JUMP JUMPDEST SWAP3 POP POP PUSH1 0x40 PUSH2 0x304D DUP7 DUP3 DUP8 ADD PUSH2 0x2BDD JUMP JUMPDEST SWAP2 POP POP SWAP3 POP SWAP3 POP SWAP3 JUMP JUMPDEST PUSH1 0x0 DUP1 PUSH1 0x0 DUP1 PUSH1 0x80 DUP6 DUP8 SUB SLT ISZERO PUSH2 0x3071 JUMPI PUSH2 0x3070 PUSH2 0x39F2 JUMP JUMPDEST JUMPDEST PUSH1 0x0 DUP6 ADD CALLDATALOAD PUSH8 0xFFFFFFFFFFFFFFFF DUP2 GT ISZERO PUSH2 0x308F JUMPI PUSH2 0x308E PUSH2 0x39ED JUMP JUMPDEST JUMPDEST PUSH2 0x309B DUP8 DUP3 DUP9 ADD PUSH2 0x2C1C JUMP JUMPDEST SWAP5 POP POP PUSH1 0x20 DUP6 ADD CALLDATALOAD PUSH8 0xFFFFFFFFFFFFFFFF DUP2 GT ISZERO PUSH2 0x30BC JUMPI PUSH2 0x30BB PUSH2 0x39ED JUMP JUMPDEST JUMPDEST PUSH2 0x30C8 DUP8 DUP3 DUP9 ADD PUSH2 0x2C1C JUMP JUMPDEST SWAP4 POP POP PUSH1 0x40 PUSH2 0x30D9 DUP8 DUP3 DUP9 ADD PUSH2 0x2BDD JUMP JUMPDEST SWAP3 POP POP PUSH1 0x60 PUSH2 0x30EA DUP8 DUP3 DUP9 ADD PUSH2 0x2BDD JUMP JUMPDEST SWAP2 POP POP SWAP3 SWAP6 SWAP2 SWAP5 POP SWAP3 POP JUMP JUMPDEST PUSH1 0x0 PUSH2 0x3102 DUP4 DUP4 PUSH2 0x3136 JUMP JUMPDEST PUSH1 0x20 DUP4 ADD SWAP1 POP SWAP3 SWAP2 POP POP JUMP JUMPDEST PUSH1 0x0 PUSH2 0x311A DUP4 DUP4 PUSH2 0x32AB JUMP JUMPDEST SWAP1 POP SWAP3 SWAP2 POP POP JUMP JUMPDEST PUSH1 0x0 PUSH2 0x312E DUP4 DUP4 PUSH2 0x3443 JUMP JUMPDEST SWAP1 POP SWAP3 SWAP2 POP POP JUMP JUMPDEST PUSH2 0x313F DUP2 PUSH2 0x384D JUMP JUMPDEST DUP3 MSTORE POP POP JUMP JUMPDEST PUSH2 0x314E DUP2 PUSH2 0x384D JUMP JUMPDEST DUP3 MSTORE POP POP JUMP JUMPDEST PUSH1 0x0 PUSH2 0x315F DUP3 PUSH2 0x379A JUMP JUMPDEST PUSH2 0x3169 DUP2 DUP6 PUSH2 0x37ED JUMP JUMPDEST SWAP4 POP PUSH2 0x3174 DUP4 PUSH2 0x376A JUMP JUMPDEST DUP1 PUSH1 0x0 JUMPDEST DUP4 DUP2 LT ISZERO PUSH2 0x31A5 JUMPI DUP2 MLOAD PUSH2 0x318C DUP9 DUP3 PUSH2 0x30F6 JUMP JUMPDEST SWAP8 POP PUSH2 0x3197 DUP4 PUSH2 0x37C6 JUMP JUMPDEST SWAP3 POP POP PUSH1 0x1 DUP2 ADD SWAP1 POP PUSH2 0x3178 JUMP JUMPDEST POP DUP6 SWAP4 POP POP POP POP SWAP3 SWAP2 POP POP JUMP JUMPDEST PUSH1 0x0 PUSH2 0x31BD DUP3 PUSH2 0x37A5 JUMP JUMPDEST PUSH2 0x31C7 DUP2 DUP6 PUSH2 0x37FE JUMP JUMPDEST SWAP4 POP DUP4 PUSH1 0x20 DUP3 MUL DUP6 ADD PUSH2 0x31D9 DUP6 PUSH2 0x377A JUMP JUMPDEST DUP1 PUSH1 0x0 JUMPDEST DUP6 DUP2 LT ISZERO PUSH2 0x3215 JUMPI DUP5 DUP5 SUB DUP10 MSTORE DUP2 MLOAD PUSH2 0x31F6 DUP6 DUP3 PUSH2 0x310E JUMP JUMPDEST SWAP5 POP PUSH2 0x3201 DUP4 PUSH2 0x37D3 JUMP JUMPDEST SWAP3 POP PUSH1 0x20 DUP11 ADD SWAP10 POP POP PUSH1 0x1 DUP2 ADD SWAP1 POP PUSH2 0x31DD JUMP JUMPDEST POP DUP3 SWAP8 POP DUP8 SWAP6 POP POP POP POP POP POP SWAP3 SWAP2 POP POP JUMP JUMPDEST PUSH1 0x0 PUSH2 0x3232 DUP3 PUSH2 0x37B0 JUMP JUMPDEST PUSH2 0x323C DUP2 DUP6 PUSH2 0x380F JUMP JUMPDEST SWAP4 POP DUP4 PUSH1 0x20 DUP3 MUL DUP6 ADD PUSH2 0x324E DUP6 PUSH2 0x378A JUMP JUMPDEST DUP1 PUSH1 0x0 JUMPDEST DUP6 DUP2 LT ISZERO PUSH2 0x328A JUMPI DUP5 DUP5 SUB DUP10 MSTORE DUP2 MLOAD PUSH2 0x326B DUP6 DUP3 PUSH2 0x3122 JUMP JUMPDEST SWAP5 POP PUSH2 0x3276 DUP4 PUSH2 0x37E0 JUMP JUMPDEST SWAP3 POP PUSH1 0x20 DUP11 ADD SWAP10 POP POP PUSH1 0x1 DUP2 ADD SWAP1 POP PUSH2 0x3252 JUMP JUMPDEST POP DUP3 SWAP8 POP DUP8 SWAP6 POP POP POP POP POP POP SWAP3 SWAP2 POP POP JUMP JUMPDEST PUSH2 0x32A5 DUP2 PUSH2 0x3871 JUMP JUMPDEST DUP3 MSTORE POP POP JUMP JUMPDEST PUSH1 0x0 PUSH2 0x32B6 DUP3 PUSH2 0x37BB JUMP JUMPDEST PUSH2 0x32C0 DUP2 DUP6 PUSH2 0x3820 JUMP JUMPDEST SWAP4 POP PUSH2 0x32D0 DUP2 DUP6 PUSH1 0x20 DUP7 ADD PUSH2 0x38C0 JUMP JUMPDEST PUSH2 0x32D9 DUP2 PUSH2 0x39F7 JUMP JUMPDEST DUP5 ADD SWAP2 POP POP SWAP3 SWAP2 POP POP JUMP JUMPDEST PUSH1 0x0 PUSH2 0x32EF DUP3 PUSH2 0x37BB JUMP JUMPDEST PUSH2 0x32F9 DUP2 DUP6 PUSH2 0x3831 JUMP JUMPDEST SWAP4 POP PUSH2 0x3309 DUP2 DUP6 PUSH1 0x20 DUP7 ADD PUSH2 0x38C0 JUMP JUMPDEST PUSH2 0x3312 DUP2 PUSH2 0x39F7 JUMP JUMPDEST DUP5 ADD SWAP2 POP POP SWAP3 SWAP2 POP POP JUMP JUMPDEST PUSH1 0x0 PUSH2 0x3328 DUP3 PUSH2 0x37BB JUMP JUMPDEST PUSH2 0x3332 DUP2 DUP6 PUSH2 0x3842 JUMP JUMPDEST SWAP4 POP PUSH2 0x3342 DUP2 DUP6 PUSH1 0x20 DUP7 ADD PUSH2 0x38C0 JUMP JUMPDEST DUP1 DUP5 ADD SWAP2 POP POP SWAP3 SWAP2 POP POP JUMP JUMPDEST PUSH1 0x0 PUSH2 0x335B PUSH1 0x22 DUP4 PUSH2 0x3831 JUMP JUMPDEST SWAP2 POP PUSH2 0x3366 DUP3 PUSH2 0x3A08 JUMP JUMPDEST PUSH1 0x40 DUP3 ADD SWAP1 POP SWAP2 SWAP1 POP JUMP JUMPDEST PUSH1 0x0 PUSH2 0x337E PUSH1 0xB DUP4 PUSH2 0x3831 JUMP JUMPDEST SWAP2 POP PUSH2 0x3389 DUP3 PUSH2 0x3A57 JUMP JUMPDEST PUSH1 0x20 DUP3 ADD SWAP1 POP SWAP2 SWAP1 POP JUMP JUMPDEST PUSH1 0x0 PUSH2 0x33A1 PUSH1 0x9 DUP4 PUSH2 0x3831 JUMP JUMPDEST SWAP2 POP PUSH2 0x33AC DUP3 PUSH2 0x3A80 JUMP JUMPDEST PUSH1 0x20 DUP3 ADD SWAP1 POP SWAP2 SWAP1 POP JUMP JUMPDEST PUSH1 0x0 PUSH2 0x33C4 PUSH1 0xC DUP4 PUSH2 0x3831 JUMP JUMPDEST SWAP2 POP PUSH2 0x33CF DUP3 PUSH2 0x3AA9 JUMP JUMPDEST PUSH1 0x20 DUP3 ADD SWAP1 POP SWAP2 SWAP1 POP JUMP JUMPDEST PUSH1 0x0 PUSH2 0x33E7 PUSH1 0xD DUP4 PUSH2 0x3831 JUMP JUMPDEST SWAP2 POP PUSH2 0x33F2 DUP3 PUSH2 0x3AD2 JUMP JUMPDEST PUSH1 0x20 DUP3 ADD SWAP1 POP SWAP2 SWAP1 POP JUMP JUMPDEST PUSH1 0x0 PUSH2 0x340A PUSH1 0x16 DUP4 PUSH2 0x3831 JUMP JUMPDEST SWAP2 POP PUSH2 0x3415 DUP3 PUSH2 0x3AFB JUMP JUMPDEST PUSH1 0x20 DUP3 ADD SWAP1 POP SWAP2 SWAP1 POP JUMP JUMPDEST PUSH1 0x0 PUSH2 0x342D PUSH1 0xB DUP4 PUSH2 0x3831 JUMP JUMPDEST SWAP2 POP PUSH2 0x3438 DUP3 PUSH2 0x3B24 JUMP JUMPDEST PUSH1 0x20 DUP3 ADD SWAP1 POP SWAP2 SWAP1 POP JUMP JUMPDEST PUSH1 0x0 PUSH1 0x80 DUP4 ADD PUSH1 0x0 DUP4 ADD MLOAD PUSH2 0x345B PUSH1 0x0 DUP7 ADD DUP3 PUSH2 0x3136 JUMP JUMPDEST POP PUSH1 0x20 DUP4 ADD MLOAD DUP5 DUP3 SUB PUSH1 0x20 DUP7 ADD MSTORE PUSH2 0x3473 DUP3 DUP3 PUSH2 0x32AB JUMP JUMPDEST SWAP2 POP POP PUSH1 0x40 DUP4 ADD MLOAD DUP5 DUP3 SUB PUSH1 0x40 DUP7 ADD MSTORE PUSH2 0x348D DUP3 DUP3 PUSH2 0x32AB JUMP JUMPDEST SWAP2 POP POP PUSH1 0x60 DUP4 ADD MLOAD PUSH2 0x34A2 PUSH1 0x60 DUP7 ADD DUP3 PUSH2 0x329C JUMP JUMPDEST POP DUP1 SWAP2 POP POP SWAP3 SWAP2 POP POP JUMP JUMPDEST PUSH2 0x34B6 DUP2 PUSH2 0x38A7 JUMP JUMPDEST DUP3 MSTORE POP POP JUMP JUMPDEST PUSH1 0x0 PUSH2 0x34C8 DUP3 DUP5 PUSH2 0x331D JUMP JUMPDEST SWAP2 POP DUP2 SWAP1 POP SWAP3 SWAP2 POP POP JUMP JUMPDEST PUSH1 0x0 PUSH1 0x40 DUP3 ADD SWAP1 POP PUSH2 0x34E8 PUSH1 0x0 DUP4 ADD DUP6 PUSH2 0x3145 JUMP JUMPDEST DUP2 DUP2 SUB PUSH1 0x20 DUP4 ADD MSTORE PUSH2 0x34FA DUP2 DUP5 PUSH2 0x32E4 JUMP JUMPDEST SWAP1 POP SWAP4 SWAP3 POP POP POP JUMP JUMPDEST PUSH1 0x0 PUSH1 0x80 DUP3 ADD SWAP1 POP DUP2 DUP2 SUB PUSH1 0x0 DUP4 ADD MSTORE PUSH2 0x351D DUP2 DUP8 PUSH2 0x32E4 JUMP JUMPDEST SWAP1 POP DUP2 DUP2 SUB PUSH1 0x20 DUP4 ADD MSTORE PUSH2 0x3531 DUP2 DUP7 PUSH2 0x3227 JUMP JUMPDEST SWAP1 POP DUP2 DUP2 SUB PUSH1 0x40 DUP4 ADD MSTORE PUSH2 0x3545 DUP2 DUP6 PUSH2 0x31B2 JUMP JUMPDEST SWAP1 POP DUP2 DUP2 SUB PUSH1 0x60 DUP4 ADD MSTORE PUSH2 0x3559 DUP2 DUP5 PUSH2 0x3154 JUMP JUMPDEST SWAP1 POP SWAP6 SWAP5 POP POP POP POP POP JUMP JUMPDEST PUSH1 0x0 PUSH1 0xA0 DUP3 ADD SWAP1 POP DUP2 DUP2 SUB PUSH1 0x0 DUP4 ADD MSTORE PUSH2 0x357E DUP2 DUP9 PUSH2 0x32E4 JUMP JUMPDEST SWAP1 POP DUP2 DUP2 SUB PUSH1 0x20 DUP4 ADD MSTORE PUSH2 0x3592 DUP2 DUP8 PUSH2 0x32E4 JUMP JUMPDEST SWAP1 POP DUP2 DUP2 SUB PUSH1 0x40 DUP4 ADD MSTORE PUSH2 0x35A6 DUP2 DUP7 PUSH2 0x32E4 JUMP JUMPDEST SWAP1 POP DUP2 DUP2 SUB PUSH1 0x60 DUP4 ADD MSTORE PUSH2 0x35BA DUP2 DUP6 PUSH2 0x32E4 JUMP JUMPDEST SWAP1 POP DUP2 DUP2 SUB PUSH1 0x80 DUP4 ADD MSTORE PUSH2 0x35CE DUP2 DUP5 PUSH2 0x31B2 JUMP JUMPDEST SWAP1 POP SWAP7 SWAP6 POP POP POP POP POP POP JUMP JUMPDEST PUSH1 0x0 PUSH1 0x80 DUP3 ADD SWAP1 POP DUP2 DUP2 SUB PUSH1 0x0 DUP4 ADD MSTORE PUSH2 0x35F4 DUP2 DUP8 PUSH2 0x32E4 JUMP JUMPDEST SWAP1 POP DUP2 DUP2 SUB PUSH1 0x20 DUP4 ADD MSTORE PUSH2 0x3608 DUP2 DUP7 PUSH2 0x32E4 JUMP JUMPDEST SWAP1 POP PUSH2 0x3617 PUSH1 0x40 DUP4 ADD DUP6 PUSH2 0x34AD JUMP JUMPDEST DUP2 DUP2 SUB PUSH1 0x60 DUP4 ADD MSTORE PUSH2 0x3629 DUP2 DUP5 PUSH2 0x31B2 JUMP JUMPDEST SWAP1 POP SWAP6 SWAP5 POP POP POP POP POP JUMP JUMPDEST PUSH1 0x0 PUSH1 0x20 DUP3 ADD SWAP1 POP DUP2 DUP2 SUB PUSH1 0x0 DUP4 ADD MSTORE PUSH2 0x364D DUP2 PUSH2 0x334E JUMP JUMPDEST SWAP1 POP SWAP2 SWAP1 POP JUMP JUMPDEST PUSH1 0x0 PUSH1 0x20 DUP3 ADD SWAP1 POP DUP2 DUP2 SUB PUSH1 0x0 DUP4 ADD MSTORE PUSH2 0x366D DUP2 PUSH2 0x3371 JUMP JUMPDEST SWAP1 POP SWAP2 SWAP1 POP JUMP JUMPDEST PUSH1 0x0 PUSH1 0x20 DUP3 ADD SWAP1 POP DUP2 DUP2 SUB PUSH1 0x0 DUP4 ADD MSTORE PUSH2 0x368D DUP2 PUSH2 0x3394 JUMP JUMPDEST SWAP1 POP SWAP2 SWAP1 POP JUMP JUMPDEST PUSH1 0x0 PUSH1 0x20 DUP3 ADD SWAP1 POP DUP2 DUP2 SUB PUSH1 0x0 DUP4 ADD MSTORE PUSH2 0x36AD DUP2 PUSH2 0x33B7 JUMP JUMPDEST SWAP1 POP SWAP2 SWAP1 POP JUMP JUMPDEST PUSH1 0x0 PUSH1 0x20 DUP3 ADD SWAP1 POP DUP2 DUP2 SUB PUSH1 0x0 DUP4 ADD MSTORE PUSH2 0x36CD DUP2 PUSH2 0x33DA JUMP JUMPDEST SWAP1 POP SWAP2 SWAP1 POP JUMP JUMPDEST PUSH1 0x0 PUSH1 0x20 DUP3 ADD SWAP1 POP DUP2 DUP2 SUB PUSH1 0x0 DUP4 ADD MSTORE PUSH2 0x36ED DUP2 PUSH2 0x33FD JUMP JUMPDEST SWAP1 POP SWAP2 SWAP1 POP JUMP JUMPDEST PUSH1 0x0 PUSH1 0x20 DUP3 ADD SWAP1 POP DUP2 DUP2 SUB PUSH1 0x0 DUP4 ADD MSTORE PUSH2 0x370D DUP2 PUSH2 0x3420 JUMP JUMPDEST SWAP1 POP SWAP2 SWAP1 POP JUMP JUMPDEST PUSH1 0x0 PUSH2 0x371E PUSH2 0x372F JUMP JUMPDEST SWAP1 POP PUSH2 0x372A DUP3 DUP3 PUSH2 0x3925 JUMP JUMPDEST SWAP2 SWAP1 POP JUMP JUMPDEST PUSH1 0x0 PUSH1 0x40 MLOAD SWAP1 POP SWAP1 JUMP JUMPDEST PUSH1 0x0 PUSH8 0xFFFFFFFFFFFFFFFF DUP3 GT ISZERO PUSH2 0x3754 JUMPI PUSH2 0x3753 PUSH2 0x39B4 JUMP JUMPDEST JUMPDEST PUSH2 0x375D DUP3 PUSH2 0x39F7 JUMP JUMPDEST SWAP1 POP PUSH1 0x20 DUP2 ADD SWAP1 POP SWAP2 SWAP1 POP JUMP JUMPDEST PUSH1 0x0 DUP2 SWAP1 POP PUSH1 0x20 DUP3 ADD SWAP1 POP SWAP2 SWAP1 POP JUMP JUMPDEST PUSH1 0x0 DUP2 SWAP1 POP PUSH1 0x20 DUP3 ADD SWAP1 POP SWAP2 SWAP1 POP JUMP JUMPDEST PUSH1 0x0 DUP2 SWAP1 POP PUSH1 0x20 DUP3 ADD SWAP1 POP SWAP2 SWAP1 POP JUMP JUMPDEST PUSH1 0x0 DUP2 MLOAD SWAP1 POP SWAP2 SWAP1 POP JUMP JUMPDEST PUSH1 0x0 DUP2 MLOAD SWAP1 POP SWAP2 SWAP1 POP JUMP JUMPDEST PUSH1 0x0 DUP2 MLOAD SWAP1 POP SWAP2 SWAP1 POP JUMP JUMPDEST PUSH1 0x0 DUP2 MLOAD SWAP1 POP SWAP2 SWAP1 POP JUMP JUMPDEST PUSH1 0x0 PUSH1 0x20 DUP3 ADD SWAP1 POP SWAP2 SWAP1 POP JUMP JUMPDEST PUSH1 0x0 PUSH1 0x20 DUP3 ADD SWAP1 POP SWAP2 SWAP1 POP JUMP JUMPDEST PUSH1 0x0 PUSH1 0x20 DUP3 ADD SWAP1 POP SWAP2 SWAP1 POP JUMP JUMPDEST PUSH1 0x0 DUP3 DUP3 MSTORE PUSH1 0x20 DUP3 ADD SWAP1 POP SWAP3 SWAP2 POP POP JUMP JUMPDEST PUSH1 0x0 DUP3 DUP3 MSTORE PUSH1 0x20 DUP3 ADD SWAP1 POP SWAP3 SWAP2 POP POP JUMP JUMPDEST PUSH1 0x0 DUP3 DUP3 MSTORE PUSH1 0x20 DUP3 ADD SWAP1 POP SWAP3 SWAP2 POP POP JUMP JUMPDEST PUSH1 0x0 DUP3 DUP3 MSTORE PUSH1 0x20 DUP3 ADD SWAP1 POP SWAP3 SWAP2 POP POP JUMP JUMPDEST PUSH1 0x0 DUP3 DUP3 MSTORE PUSH1 0x20 DUP3 ADD SWAP1 POP SWAP3 SWAP2 POP POP JUMP JUMPDEST PUSH1 0x0 DUP2 SWAP1 POP SWAP3 SWAP2 POP POP JUMP JUMPDEST PUSH1 0x0 PUSH2 0x3858 DUP3 PUSH2 0x3887 JUMP JUMPDEST SWAP1 POP SWAP2 SWAP1 POP JUMP JUMPDEST PUSH1 0x0 PUSH2 0x386A DUP3 PUSH2 0x3887 JUMP JUMPDEST SWAP1 POP SWAP2 SWAP1 POP JUMP JUMPDEST PUSH1 0x0 DUP2 ISZERO ISZERO SWAP1 POP SWAP2 SWAP1 POP JUMP JUMPDEST PUSH1 0x0 DUP2 SWAP1 POP SWAP2 SWAP1 POP JUMP JUMPDEST PUSH1 0x0 PUSH20 0xFFFFFFFFFFFFFFFFFFFFFFFFFFFFFFFFFFFFFFFF DUP3 AND SWAP1 POP SWAP2 SWAP1 POP JUMP JUMPDEST PUSH1 0x0 DUP2 SWAP1 POP SWAP2 SWAP1 POP JUMP JUMPDEST DUP3 DUP2 DUP4 CALLDATACOPY PUSH1 0x0 DUP4 DUP4 ADD MSTORE POP POP POP JUMP JUMPDEST PUSH1 0x0 JUMPDEST DUP4 DUP2 LT ISZERO PUSH2 0x38DE JUMPI DUP1 DUP3 ADD MLOAD DUP2 DUP5 ADD MSTORE PUSH1 0x20 DUP2 ADD SWAP1 POP PUSH2 0x38C3 JUMP JUMPDEST DUP4 DUP2 GT ISZERO PUSH2 0x38ED JUMPI PUSH1 0x0 DUP5 DUP5 ADD MSTORE JUMPDEST POP POP POP POP JUMP JUMPDEST PUSH1 0x0 PUSH1 0x2 DUP3 DIV SWAP1 POP PUSH1 0x1 DUP3 AND DUP1 PUSH2 0x390B JUMPI PUSH1 0x7F DUP3 AND SWAP2 POP JUMPDEST PUSH1 0x20 DUP3 LT DUP2 EQ ISZERO PUSH2 0x391F JUMPI PUSH2 0x391E PUSH2 0x3985 JUMP JUMPDEST JUMPDEST POP SWAP2 SWAP1 POP JUMP JUMPDEST PUSH2 0x392E DUP3 PUSH2 0x39F7 JUMP JUMPDEST DUP2 ADD DUP2 DUP2 LT PUSH8 0xFFFFFFFFFFFFFFFF DUP3 GT OR ISZERO PUSH2 0x394D JUMPI PUSH2 0x394C PUSH2 0x39B4 JUMP JUMPDEST JUMPDEST DUP1 PUSH1 0x40 MSTORE POP POP POP JUMP JUMPDEST PUSH32 0x4E487B7100000000000000000000000000000000000000000000000000000000 PUSH1 0x0 MSTORE PUSH1 0x21 PUSH1 0x4 MSTORE PUSH1 0x24 PUSH1 0x0 REVERT JUMPDEST PUSH32 0x4E487B7100000000000000000000000000000000000000000000000000000000 PUSH1 0x0 MSTORE PUSH1 0x22 PUSH1 0x4 MSTORE PUSH1 0x24 PUSH1 0x0 REVERT JUMPDEST PUSH32 0x4E487B7100000000000000000000000000000000000000000000000000000000 PUSH1 0x0 MSTORE PUSH1 0x41 PUSH1 0x4 MSTORE PUSH1 0x24 PUSH1 0x0 REVERT JUMPDEST PUSH1 0x0 DUP1 REVERT JUMPDEST PUSH1 0x0 DUP1 REVERT JUMPDEST PUSH1 0x0 DUP1 REVERT JUMPDEST PUSH1 0x0 DUP1 REVERT JUMPDEST PUSH1 0x0 PUSH1 0x1F NOT PUSH1 0x1F DUP4 ADD AND SWAP1 POP SWAP2 SWAP1 POP JUMP JUMPDEST PUSH32 0x596F7572206C6F67696E20616C726561647920657869737420696E2073797374 PUSH1 0x0 DUP3 ADD MSTORE PUSH32 0x656D000000000000000000000000000000000000000000000000000000000000 PUSH1 0x20 DUP3 ADD MSTORE POP JUMP JUMPDEST PUSH32 0x4C6F772062616C616E6365000000000000000000000000000000000000000000 PUSH1 0x0 DUP3 ADD MSTORE POP JUMP JUMPDEST PUSH32 0x466F7262696464656E0000000000000000000000000000000000000000000000 PUSH1 0x0 DUP3 ADD MSTORE POP JUMP JUMPDEST PUSH32 0x596F75206E6F7420757365720000000000000000000000000000000000000000 PUSH1 0x0 DUP3 ADD MSTORE POP JUMP JUMPDEST PUSH32 0x596F75206E6F742061646D696E00000000000000000000000000000000000000 PUSH1 0x0 DUP3 ADD MSTORE POP JUMP JUMPDEST PUSH32 0x596F7520616C7265616479207265676973746572656400000000000000000000 PUSH1 0x0 DUP3 ADD MSTORE POP JUMP JUMPDEST PUSH32 0x57726F6E67204C6F67696E000000000000000000000000000000000000000000 PUSH1 0x0 DUP3 ADD MSTORE POP JUMP JUMPDEST PUSH2 0x3B56 DUP2 PUSH2 0x384D JUMP JUMPDEST DUP2 EQ PUSH2 0x3B61 JUMPI PUSH1 0x0 DUP1 REVERT JUMPDEST POP JUMP JUMPDEST PUSH2 0x3B6D DUP2 PUSH2 0x385F JUMP JUMPDEST DUP2 EQ PUSH2 0x3B78 JUMPI PUSH1 0x0 DUP1 REVERT JUMPDEST POP JUMP JUMPDEST PUSH2 0x3B84 DUP2 PUSH2 0x387D JUMP JUMPDEST DUP2 EQ PUSH2 0x3B8F JUMPI PUSH1 0x0 DUP1 REVERT JUMPDEST POP JUMP INVALID LOG2 PUSH5 0x6970667358 0x22 SLT KECCAK256 PUSH17 0x82DB263056D36CBF313190CD9B8426163A DUP11 DUP16 COINBASE LOG0 STOP 0x5D SWAP6 0xD2 CALLDATALOAD CALLDATALOAD 0xB4 SWAP15 EXTCODEHASH SHR PUSH5 0x736F6C6343 STOP ADDMOD SMOD STOP CALLER "
				},
				"gasEstimates": {
					"creation": {
						"codeDepositCost": "3060800",
						"executionCost": "infinite",
						"totalCost": "infinite"
					},
					"external": {
						"createReview(address,string,string,int256,int256,int256)": "infinite",
						"doShopDebt(address)": "infinite",
						"getAdminInfo()": "infinite",
						"getBuyerInfo()": "infinite",
						"getSellerInfo()": "infinite",
						"getSellerInfoByAddr(address)": "infinite",
						"likeReview(string)": "infinite",
						"login(string)": "infinite",
						"regAdmin(address,string,string)": "infinite",
						"registerAdmin(string,string)": "infinite",
						"registerBank(string,address)": "infinite",
						"registerBuyer(string,string,address)": "infinite",
						"registerProvider(string,address)": "infinite",
						"registerSeller(string,string,address,address)": "infinite",
						"registerShop(address,string,string,string)": "infinite"
					}
				},
				"methodIdentifiers": {
					"createReview(address,string,string,int256,int256,int256)": "3a708737",
					"doShopDebt(address)": "83db0f6d",
					"getAdminInfo()": "c3d5fd39",
					"getBuyerInfo()": "99b958ee",
					"getSellerInfo()": "54504c12",
					"getSellerInfoByAddr(address)": "08e74858",
					"likeReview(string)": "7b3c7488",
					"login(string)": "3a7d280c",
					"regAdmin(address,string,string)": "a59d105f",
					"registerAdmin(string,string)": "f8f98b79",
					"registerBank(string,address)": "2156a781",
					"registerBuyer(string,string,address)": "9d344d10",
					"registerProvider(string,address)": "7ccb2bd8",
					"registerSeller(string,string,address,address)": "8403f848",
					"registerShop(address,string,string,string)": "7558b2f8"
				}
			},
			"storageLayout": {
				"storage": [
					{
						"astId": 35,
						"contract": "contracts/Shops.sol:ShopsSystem",
						"label": "userStatus",
						"offset": 0,
						"slot": "0",
						"type": "t_mapping(t_uint256,t_string_storage)"
					},
					{
						"astId": 39,
						"contract": "contracts/Shops.sol:ShopsSystem",
						"label": "userLogins",
						"offset": 0,
						"slot": "1",
						"type": "t_mapping(t_string_memory_ptr,t_address)"
					},
					{
						"astId": 44,
						"contract": "contracts/Shops.sol:ShopsSystem",
						"label": "users",
						"offset": 0,
						"slot": "2",
						"type": "t_mapping(t_address,t_struct(User)31_storage)"
					},
					{
						"astId": 333,
						"contract": "contracts/Shops.sol:ShopsSystem",
						"label": "provider",
						"offset": 0,
						"slot": "3",
						"type": "t_address"
					},
					{
						"astId": 335,
						"contract": "contracts/Shops.sol:ShopsSystem",
						"label": "admin",
						"offset": 0,
						"slot": "4",
						"type": "t_address"
					},
					{
						"astId": 338,
						"contract": "contracts/Shops.sol:ShopsSystem",
						"label": "admins",
						"offset": 0,
						"slot": "5",
						"type": "t_array(t_string_storage)dyn_storage"
					},
					{
						"astId": 340,
						"contract": "contracts/Shops.sol:ShopsSystem",
						"label": "bank",
						"offset": 0,
						"slot": "6",
						"type": "t_address_payable"
					},
					{
						"astId": 343,
						"contract": "contracts/Shops.sol:ShopsSystem",
						"label": "sellers",
						"offset": 0,
						"slot": "7",
						"type": "t_array(t_address)dyn_storage"
					},
					{
						"astId": 346,
						"contract": "contracts/Shops.sol:ShopsSystem",
						"label": "shopsAddresses",
						"offset": 0,
						"slot": "8",
						"type": "t_array(t_address)dyn_storage"
					},
					{
						"astId": 350,
						"contract": "contracts/Shops.sol:ShopsSystem",
						"label": "requests",
						"offset": 0,
						"slot": "9",
						"type": "t_array(t_struct(Request)329_storage)dyn_storage"
					},
					{
						"astId": 355,
						"contract": "contracts/Shops.sol:ShopsSystem",
						"label": "ShopsList",
						"offset": 0,
						"slot": "10",
						"type": "t_mapping(t_address,t_struct(Shop)320_storage)"
					},
					{
						"astId": 359,
						"contract": "contracts/Shops.sol:ShopsSystem",
						"label": "salesmanShop",
						"offset": 0,
						"slot": "11",
						"type": "t_mapping(t_address,t_address)"
					},
					{
						"astId": 364,
						"contract": "contracts/Shops.sol:ShopsSystem",
						"label": "salesmen",
						"offset": 0,
						"slot": "12",
						"type": "t_mapping(t_address,t_array(t_address)dyn_storage)"
					},
					{
						"astId": 369,
						"contract": "contracts/Shops.sol:ShopsSystem",
						"label": "shopReviews",
						"offset": 0,
						"slot": "13",
						"type": "t_mapping(t_address,t_array(t_string_storage)dyn_storage)"
					},
					{
						"astId": 374,
						"contract": "contracts/Shops.sol:ShopsSystem",
						"label": "reviewId",
						"offset": 0,
						"slot": "14",
						"type": "t_mapping(t_string_memory_ptr,t_struct(Review)21_storage)"
					}
				],
				"types": {
					"t_address": {
						"encoding": "inplace",
						"label": "address",
						"numberOfBytes": "20"
					},
					"t_address_payable": {
						"encoding": "inplace",
						"label": "address payable",
						"numberOfBytes": "20"
					},
					"t_array(t_address)dyn_storage": {
						"base": "t_address",
						"encoding": "dynamic_array",
						"label": "address[]",
						"numberOfBytes": "32"
					},
					"t_array(t_string_storage)dyn_storage": {
						"base": "t_string_storage",
						"encoding": "dynamic_array",
						"label": "string[]",
						"numberOfBytes": "32"
					},
					"t_array(t_struct(Request)329_storage)dyn_storage": {
						"base": "t_struct(Request)329_storage",
						"encoding": "dynamic_array",
						"label": "struct Request[]",
						"numberOfBytes": "32"
					},
					"t_bool": {
						"encoding": "inplace",
						"label": "bool",
						"numberOfBytes": "1"
					},
					"t_int256": {
						"encoding": "inplace",
						"label": "int256",
						"numberOfBytes": "32"
					},
					"t_mapping(t_address,t_address)": {
						"encoding": "mapping",
						"key": "t_address",
						"label": "mapping(address => address)",
						"numberOfBytes": "32",
						"value": "t_address"
					},
					"t_mapping(t_address,t_array(t_address)dyn_storage)": {
						"encoding": "mapping",
						"key": "t_address",
						"label": "mapping(address => address[])",
						"numberOfBytes": "32",
						"value": "t_array(t_address)dyn_storage"
					},
					"t_mapping(t_address,t_array(t_string_storage)dyn_storage)": {
						"encoding": "mapping",
						"key": "t_address",
						"label": "mapping(address => string[])",
						"numberOfBytes": "32",
						"value": "t_array(t_string_storage)dyn_storage"
					},
					"t_mapping(t_address,t_struct(Shop)320_storage)": {
						"encoding": "mapping",
						"key": "t_address",
						"label": "mapping(address => struct Shop)",
						"numberOfBytes": "32",
						"value": "t_struct(Shop)320_storage"
					},
					"t_mapping(t_address,t_struct(User)31_storage)": {
						"encoding": "mapping",
						"key": "t_address",
						"label": "mapping(address => struct User)",
						"numberOfBytes": "32",
						"value": "t_struct(User)31_storage"
					},
					"t_mapping(t_string_memory_ptr,t_address)": {
						"encoding": "mapping",
						"key": "t_string_memory_ptr",
						"label": "mapping(string => address)",
						"numberOfBytes": "32",
						"value": "t_address"
					},
					"t_mapping(t_string_memory_ptr,t_struct(Review)21_storage)": {
						"encoding": "mapping",
						"key": "t_string_memory_ptr",
						"label": "mapping(string => struct Review)",
						"numberOfBytes": "32",
						"value": "t_struct(Review)21_storage"
					},
					"t_mapping(t_uint256,t_string_storage)": {
						"encoding": "mapping",
						"key": "t_uint256",
						"label": "mapping(uint256 => string)",
						"numberOfBytes": "32",
						"value": "t_string_storage"
					},
					"t_string_memory_ptr": {
						"encoding": "bytes",
						"label": "string",
						"numberOfBytes": "32"
					},
					"t_string_storage": {
						"encoding": "bytes",
						"label": "string",
						"numberOfBytes": "32"
					},
					"t_struct(Request)329_storage": {
						"encoding": "inplace",
						"label": "struct Request",
						"members": [
							{
								"astId": 322,
								"contract": "contracts/Shops.sol:ShopsSystem",
								"label": "userAddr",
								"offset": 0,
								"slot": "0",
								"type": "t_address"
							},
							{
								"astId": 324,
								"contract": "contracts/Shops.sol:ShopsSystem",
								"label": "currentRole",
								"offset": 0,
								"slot": "1",
								"type": "t_string_storage"
							},
							{
								"astId": 326,
								"contract": "contracts/Shops.sol:ShopsSystem",
								"label": "desiredRole",
								"offset": 0,
								"slot": "2",
								"type": "t_string_storage"
							},
							{
								"astId": 328,
								"contract": "contracts/Shops.sol:ShopsSystem",
								"label": "checked",
								"offset": 0,
								"slot": "3",
								"type": "t_bool"
							}
						],
						"numberOfBytes": "128"
					},
					"t_struct(Review)21_storage": {
						"encoding": "inplace",
						"label": "struct Review",
						"members": [
							{
								"astId": 10,
								"contract": "contracts/Shops.sol:ShopsSystem",
								"label": "autorAddress",
								"offset": 0,
								"slot": "0",
								"type": "t_address"
							},
							{
								"astId": 12,
								"contract": "contracts/Shops.sol:ShopsSystem",
								"label": "shopAddr",
								"offset": 0,
								"slot": "1",
								"type": "t_address"
							},
							{
								"astId": 14,
								"contract": "contracts/Shops.sol:ShopsSystem",
								"label": "message",
								"offset": 0,
								"slot": "2",
								"type": "t_string_storage"
							},
							{
								"astId": 16,
								"contract": "contracts/Shops.sol:ShopsSystem",
								"label": "likeCount",
								"offset": 0,
								"slot": "3",
								"type": "t_int256"
							},
							{
								"astId": 18,
								"contract": "contracts/Shops.sol:ShopsSystem",
								"label": "dizlikeCount",
								"offset": 0,
								"slot": "4",
								"type": "t_int256"
							},
							{
								"astId": 20,
								"contract": "contracts/Shops.sol:ShopsSystem",
								"label": "grade",
								"offset": 0,
								"slot": "5",
								"type": "t_int256"
							}
						],
						"numberOfBytes": "192"
					},
					"t_struct(Shop)320_storage": {
						"encoding": "inplace",
						"label": "struct Shop",
						"members": [
							{
								"astId": 315,
								"contract": "contracts/Shops.sol:ShopsSystem",
								"label": "number",
								"offset": 0,
								"slot": "0",
								"type": "t_string_storage"
							},
							{
								"astId": 317,
								"contract": "contracts/Shops.sol:ShopsSystem",
								"label": "city",
								"offset": 0,
								"slot": "1",
								"type": "t_string_storage"
							},
							{
								"astId": 319,
								"contract": "contracts/Shops.sol:ShopsSystem",
								"label": "debt",
								"offset": 0,
								"slot": "2",
								"type": "t_int256"
							}
						],
						"numberOfBytes": "96"
					},
					"t_struct(User)31_storage": {
						"encoding": "inplace",
						"label": "struct User",
						"members": [
							{
								"astId": 23,
								"contract": "contracts/Shops.sol:ShopsSystem",
								"label": "status",
								"offset": 0,
								"slot": "0",
								"type": "t_uint256"
							},
							{
								"astId": 25,
								"contract": "contracts/Shops.sol:ShopsSystem",
								"label": "userLogin",
								"offset": 0,
								"slot": "1",
								"type": "t_string_storage"
							},
							{
								"astId": 27,
								"contract": "contracts/Shops.sol:ShopsSystem",
								"label": "fio",
								"offset": 0,
								"slot": "2",
								"type": "t_string_storage"
							},
							{
								"astId": 30,
								"contract": "contracts/Shops.sol:ShopsSystem",
								"label": "reviews",
								"offset": 0,
								"slot": "3",
								"type": "t_array(t_string_storage)dyn_storage"
							}
						],
						"numberOfBytes": "128"
					},
					"t_uint256": {
						"encoding": "inplace",
						"label": "uint256",
						"numberOfBytes": "32"
					}
				}
			},
			"userdoc": {
				"kind": "user",
				"methods": {},
				"version": 1
			}
		}
	}
}