{
	"contracts/Shops.sol": {
		"ShopsSystem": {
			"abi": [
				{
					"inputs": [],
					"stateMutability": "nonpayable",
					"type": "constructor"
				},
				{
					"inputs": [
						{
							"internalType": "string",
							"name": "id",
							"type": "string"
						},
						{
							"internalType": "bool",
							"name": "isAccept",
							"type": "bool"
						}
					],
					"name": "checkRequest",
					"outputs": [],
					"stateMutability": "nonpayable",
					"type": "function"
				},
				{
					"inputs": [
						{
							"internalType": "address",
							"name": "shopAddr",
							"type": "address"
						},
						{
							"internalType": "string",
							"name": "userMessage",
							"type": "string"
						},
						{
							"internalType": "string",
							"name": "id",
							"type": "string"
						},
						{
							"internalType": "int256",
							"name": "grade",
							"type": "int256"
						}
					],
					"name": "createReview",
					"outputs": [],
					"stateMutability": "nonpayable",
					"type": "function"
				},
				{
					"inputs": [
						{
							"internalType": "address",
							"name": "shopAddr",
							"type": "address"
						}
					],
					"name": "deleteShop",
					"outputs": [],
					"stateMutability": "nonpayable",
					"type": "function"
				},
				{
					"inputs": [
						{
							"internalType": "string",
							"name": "id",
							"type": "string"
						}
					],
					"name": "disLikeReview",
					"outputs": [],
					"stateMutability": "nonpayable",
					"type": "function"
				},
				{
					"inputs": [
						{
							"internalType": "address payable",
							"name": "shopAddr",
							"type": "address"
						}
					],
					"name": "doShopDebt",
					"outputs": [],
					"stateMutability": "nonpayable",
					"type": "function"
				},
				{
					"inputs": [
						{
							"internalType": "string",
							"name": "id",
							"type": "string"
						}
					],
					"name": "downRequestToByer",
					"outputs": [],
					"stateMutability": "nonpayable",
					"type": "function"
				},
				{
					"inputs": [],
					"name": "getAdminInfo",
					"outputs": [
						{
							"internalType": "string",
							"name": "login",
							"type": "string"
						},
						{
							"internalType": "string[]",
							"name": "userRequests",
							"type": "string[]"
						},
						{
							"internalType": "string[]",
							"name": "adminList",
							"type": "string[]"
						},
						{
							"internalType": "address[]",
							"name": "sellersAddr",
							"type": "address[]"
						}
					],
					"stateMutability": "view",
					"type": "function"
				},
				{
					"inputs": [],
					"name": "getAllRequests",
					"outputs": [
						{
							"internalType": "string[]",
							"name": "requestsId",
							"type": "string[]"
						}
					],
					"stateMutability": "view",
					"type": "function"
				},
				{
					"inputs": [],
					"name": "getBuyerInfo",
					"outputs": [
						{
							"internalType": "string",
							"name": "userLogin",
							"type": "string"
						},
						{
							"internalType": "string",
							"name": "fio",
							"type": "string"
						},
						{
							"internalType": "uint256",
							"name": "balance",
							"type": "uint256"
						},
						{
							"internalType": "string[]",
							"name": "reviews",
							"type": "string[]"
						}
					],
					"stateMutability": "view",
					"type": "function"
				},
				{
					"inputs": [
						{
							"internalType": "string",
							"name": "id",
							"type": "string"
						}
					],
					"name": "getRequestById",
					"outputs": [
						{
							"internalType": "address",
							"name": "userAddr",
							"type": "address"
						},
						{
							"internalType": "string",
							"name": "currentRole",
							"type": "string"
						},
						{
							"internalType": "string",
							"name": "desiredRole",
							"type": "string"
						}
					],
					"stateMutability": "view",
					"type": "function"
				},
				{
					"inputs": [
						{
							"internalType": "string",
							"name": "id",
							"type": "string"
						}
					],
					"name": "getReviewById",
					"outputs": [
						{
							"internalType": "address",
							"name": "autorAddr",
							"type": "address"
						},
						{
							"internalType": "address",
							"name": "shopAddr",
							"type": "address"
						},
						{
							"internalType": "string",
							"name": "reviewMessage",
							"type": "string"
						},
						{
							"internalType": "uint256",
							"name": "likeCount",
							"type": "uint256"
						},
						{
							"internalType": "uint256",
							"name": "disLikeCount",
							"type": "uint256"
						},
						{
							"internalType": "int256",
							"name": "grade",
							"type": "int256"
						}
					],
					"stateMutability": "view",
					"type": "function"
				},
				{
					"inputs": [],
					"name": "getSellerInfo",
					"outputs": [
						{
							"internalType": "string",
							"name": "sellerLogin",
							"type": "string"
						},
						{
							"internalType": "string",
							"name": "fio",
							"type": "string"
						},
						{
							"internalType": "string",
							"name": "city",
							"type": "string"
						},
						{
							"internalType": "string",
							"name": "shopNumber",
							"type": "string"
						},
						{
							"internalType": "string[]",
							"name": "reviews",
							"type": "string[]"
						}
					],
					"stateMutability": "view",
					"type": "function"
				},
				{
					"inputs": [
						{
							"internalType": "address",
							"name": "sellerAddr",
							"type": "address"
						}
					],
					"name": "getSellerInfoByAddr",
					"outputs": [
						{
							"internalType": "string",
							"name": "sellerLogin",
							"type": "string"
						},
						{
							"internalType": "string",
							"name": "fio",
							"type": "string"
						},
						{
							"internalType": "string",
							"name": "city",
							"type": "string"
						},
						{
							"internalType": "string",
							"name": "shopNumber",
							"type": "string"
						},
						{
							"internalType": "string[]",
							"name": "reviews",
							"type": "string[]"
						}
					],
					"stateMutability": "view",
					"type": "function"
				},
				{
					"inputs": [
						{
							"internalType": "string",
							"name": "id",
							"type": "string"
						}
					],
					"name": "likeReview",
					"outputs": [],
					"stateMutability": "nonpayable",
					"type": "function"
				},
				{
					"inputs": [
						{
							"internalType": "string",
							"name": "userLogin",
							"type": "string"
						}
					],
					"name": "login",
					"outputs": [
						{
							"internalType": "address",
							"name": "userAddress",
							"type": "address"
						},
						{
							"internalType": "string",
							"name": "status",
							"type": "string"
						}
					],
					"stateMutability": "view",
					"type": "function"
				},
				{
					"inputs": [
						{
							"internalType": "address",
							"name": "adminAddr",
							"type": "address"
						},
						{
							"internalType": "string",
							"name": "fio",
							"type": "string"
						},
						{
							"internalType": "string",
							"name": "userLogin",
							"type": "string"
						}
					],
					"name": "regAdmin",
					"outputs": [],
					"stateMutability": "nonpayable",
					"type": "function"
				},
				{
					"inputs": [
						{
							"internalType": "string",
							"name": "fio",
							"type": "string"
						},
						{
							"internalType": "string",
							"name": "userLogin",
							"type": "string"
						}
					],
					"name": "registerAdmin",
					"outputs": [],
					"stateMutability": "nonpayable",
					"type": "function"
				},
				{
					"inputs": [
						{
							"internalType": "string",
							"name": "bankLogin",
							"type": "string"
						},
						{
							"internalType": "address",
							"name": "bankAddr",
							"type": "address"
						}
					],
					"name": "registerBank",
					"outputs": [],
					"stateMutability": "nonpayable",
					"type": "function"
				},
				{
					"inputs": [
						{
							"internalType": "string",
							"name": "fio",
							"type": "string"
						},
						{
							"internalType": "string",
							"name": "userLogin",
							"type": "string"
						},
						{
							"internalType": "address",
							"name": "userAddr",
							"type": "address"
						}
					],
					"name": "registerBuyer",
					"outputs": [],
					"stateMutability": "nonpayable",
					"type": "function"
				},
				{
					"inputs": [
						{
							"internalType": "string",
							"name": "providerLogin",
							"type": "string"
						},
						{
							"internalType": "address",
							"name": "providerAddr",
							"type": "address"
						}
					],
					"name": "registerProvider",
					"outputs": [],
					"stateMutability": "nonpayable",
					"type": "function"
				},
				{
					"inputs": [
						{
							"internalType": "string",
							"name": "fio",
							"type": "string"
						},
						{
							"internalType": "string",
							"name": "userLogin",
							"type": "string"
						},
						{
							"internalType": "address",
							"name": "userAddress",
							"type": "address"
						},
						{
							"internalType": "address",
							"name": "shopAddr",
							"type": "address"
						}
					],
					"name": "registerSeller",
					"outputs": [],
					"stateMutability": "nonpayable",
					"type": "function"
				},
				{
					"inputs": [
						{
							"internalType": "address",
							"name": "shopAddr",
							"type": "address"
						},
						{
							"internalType": "string",
							"name": "number",
							"type": "string"
						},
						{
							"internalType": "string",
							"name": "city",
							"type": "string"
						}
					],
					"name": "registerShop",
					"outputs": [],
					"stateMutability": "nonpayable",
					"type": "function"
				},
				{
					"inputs": [
						{
							"internalType": "string",
							"name": "id",
							"type": "string"
						}
					],
					"name": "requestToSeller",
					"outputs": [],
					"stateMutability": "nonpayable",
					"type": "function"
				}
			],
			"devdoc": {
				"kind": "dev",
				"methods": {},
				"version": 1
			},
			"evm": {
				"assembly": "    /* \"contracts/Shops.sol\":265:9216  contract ShopsSystem is AuthService{... */\n  mstore(0x40, 0x80)\n    /* \"contracts/Shops.sol\":961:1009  constructor(){... */\n  callvalue\n  dup1\n  iszero\n  tag_1\n  jumpi\n  0x00\n  dup1\n  revert\ntag_1:\n  pop\n    /* \"contracts/AuthService.sol\":576:599  userStatus[0] = \"buyer\" */\n  mload(0x40)\n  dup1\n  0x40\n  add\n  0x40\n  mstore\n  dup1\n  0x05\n  dup2\n  mstore\n  0x20\n  add\n  0x6275796572000000000000000000000000000000000000000000000000000000\n  dup2\n  mstore\n  pop\n    /* \"contracts/AuthService.sol\":576:586  userStatus */\n  0x00\n    /* \"contracts/AuthService.sol\":576:589  userStatus[0] */\n  dup1\n    /* \"contracts/AuthService.sol\":587:588  0 */\n  dup1\n    /* \"contracts/AuthService.sol\":576:589  userStatus[0] */\n  dup2\n  mstore\n  0x20\n  add\n  swap1\n  dup2\n  mstore\n  0x20\n  add\n  0x00\n  keccak256\n    /* \"contracts/AuthService.sol\":576:599  userStatus[0] = \"buyer\" */\n  swap1\n  dup1\n  mload\n  swap1\n  0x20\n  add\n  swap1\n  tag_5\n  swap3\n  swap2\n  swap1\n  tag_6\n  jump\t// in\ntag_5:\n  pop\n    /* \"contracts/AuthService.sol\":609:633  userStatus[1] = \"seller\" */\n  mload(0x40)\n  dup1\n  0x40\n  add\n  0x40\n  mstore\n  dup1\n  0x06\n  dup2\n  mstore\n  0x20\n  add\n  0x73656c6c65720000000000000000000000000000000000000000000000000000\n  dup2\n  mstore\n  pop\n    /* \"contracts/AuthService.sol\":609:619  userStatus */\n  0x00\n    /* \"contracts/AuthService.sol\":609:622  userStatus[1] */\n  dup1\n    /* \"contracts/AuthService.sol\":620:621  1 */\n  0x01\n    /* \"contracts/AuthService.sol\":609:622  userStatus[1] */\n  dup2\n  mstore\n  0x20\n  add\n  swap1\n  dup2\n  mstore\n  0x20\n  add\n  0x00\n  keccak256\n    /* \"contracts/AuthService.sol\":609:633  userStatus[1] = \"seller\" */\n  swap1\n  dup1\n  mload\n  swap1\n  0x20\n  add\n  swap1\n  tag_7\n  swap3\n  swap2\n  swap1\n  tag_6\n  jump\t// in\ntag_7:\n  pop\n    /* \"contracts/AuthService.sol\":643:665  userStatus[2] = \"shop\" */\n  mload(0x40)\n  dup1\n  0x40\n  add\n  0x40\n  mstore\n  dup1\n  0x04\n  dup2\n  mstore\n  0x20\n  add\n  0x73686f7000000000000000000000000000000000000000000000000000000000\n  dup2\n  mstore\n  pop\n    /* \"contracts/AuthService.sol\":643:653  userStatus */\n  0x00\n    /* \"contracts/AuthService.sol\":643:656  userStatus[2] */\n  dup1\n    /* \"contracts/AuthService.sol\":654:655  2 */\n  0x02\n    /* \"contracts/AuthService.sol\":643:656  userStatus[2] */\n  dup2\n  mstore\n  0x20\n  add\n  swap1\n  dup2\n  mstore\n  0x20\n  add\n  0x00\n  keccak256\n    /* \"contracts/AuthService.sol\":643:665  userStatus[2] = \"shop\" */\n  swap1\n  dup1\n  mload\n  swap1\n  0x20\n  add\n  swap1\n  tag_8\n  swap3\n  swap2\n  swap1\n  tag_6\n  jump\t// in\ntag_8:\n  pop\n    /* \"contracts/AuthService.sol\":675:698  userStatus[3] = \"admin\" */\n  mload(0x40)\n  dup1\n  0x40\n  add\n  0x40\n  mstore\n  dup1\n  0x05\n  dup2\n  mstore\n  0x20\n  add\n  0x61646d696e000000000000000000000000000000000000000000000000000000\n  dup2\n  mstore\n  pop\n    /* \"contracts/AuthService.sol\":675:685  userStatus */\n  0x00\n    /* \"contracts/AuthService.sol\":675:688  userStatus[3] */\n  dup1\n    /* \"contracts/AuthService.sol\":686:687  3 */\n  0x03\n    /* \"contracts/AuthService.sol\":675:688  userStatus[3] */\n  dup2\n  mstore\n  0x20\n  add\n  swap1\n  dup2\n  mstore\n  0x20\n  add\n  0x00\n  keccak256\n    /* \"contracts/AuthService.sol\":675:698  userStatus[3] = \"admin\" */\n  swap1\n  dup1\n  mload\n  swap1\n  0x20\n  add\n  swap1\n  tag_9\n  swap3\n  swap2\n  swap1\n  tag_6\n  jump\t// in\ntag_9:\n  pop\n    /* \"contracts/AuthService.sol\":708:734  userStatus[4] = \"provider\" */\n  mload(0x40)\n  dup1\n  0x40\n  add\n  0x40\n  mstore\n  dup1\n  0x08\n  dup2\n  mstore\n  0x20\n  add\n  0x70726f7669646572000000000000000000000000000000000000000000000000\n  dup2\n  mstore\n  pop\n    /* \"contracts/AuthService.sol\":708:718  userStatus */\n  0x00\n    /* \"contracts/AuthService.sol\":708:721  userStatus[4] */\n  dup1\n    /* \"contracts/AuthService.sol\":719:720  4 */\n  0x04\n    /* \"contracts/AuthService.sol\":708:721  userStatus[4] */\n  dup2\n  mstore\n  0x20\n  add\n  swap1\n  dup2\n  mstore\n  0x20\n  add\n  0x00\n  keccak256\n    /* \"contracts/AuthService.sol\":708:734  userStatus[4] = \"provider\" */\n  swap1\n  dup1\n  mload\n  swap1\n  0x20\n  add\n  swap1\n  tag_10\n  swap3\n  swap2\n  swap1\n  tag_6\n  jump\t// in\ntag_10:\n  pop\n    /* \"contracts/AuthService.sol\":744:766  userStatus[5] = \"bank\" */\n  mload(0x40)\n  dup1\n  0x40\n  add\n  0x40\n  mstore\n  dup1\n  0x04\n  dup2\n  mstore\n  0x20\n  add\n  0x62616e6b00000000000000000000000000000000000000000000000000000000\n  dup2\n  mstore\n  pop\n    /* \"contracts/AuthService.sol\":744:754  userStatus */\n  0x00\n    /* \"contracts/AuthService.sol\":744:757  userStatus[5] */\n  dup1\n    /* \"contracts/AuthService.sol\":755:756  5 */\n  0x05\n    /* \"contracts/AuthService.sol\":744:757  userStatus[5] */\n  dup2\n  mstore\n  0x20\n  add\n  swap1\n  dup2\n  mstore\n  0x20\n  add\n  0x00\n  keccak256\n    /* \"contracts/AuthService.sol\":744:766  userStatus[5] = \"bank\" */\n  swap1\n  dup1\n  mload\n  swap1\n  0x20\n  add\n  swap1\n  tag_11\n  swap3\n  swap2\n  swap1\n  tag_6\n  jump\t// in\ntag_11:\n  pop\n    /* \"contracts/Shops.sol\":992:1002  msg.sender */\n  caller\n    /* \"contracts/Shops.sol\":984:989  admin */\n  0x05\n  0x00\n    /* \"contracts/Shops.sol\":984:1002  admin = msg.sender */\n  0x0100\n  exp\n  dup2\n  sload\n  dup2\n  0xffffffffffffffffffffffffffffffffffffffff\n  mul\n  not\n  and\n  swap1\n  dup4\n  0xffffffffffffffffffffffffffffffffffffffff\n  and\n  mul\n  or\n  swap1\n  sstore\n  pop\n    /* \"contracts/Shops.sol\":265:9216  contract ShopsSystem is AuthService{... */\n  jump(tag_13)\ntag_6:\n  dup3\n  dup1\n  sload\n  tag_14\n  swap1\n  tag_15\n  jump\t// in\ntag_14:\n  swap1\n  0x00\n  mstore\n  keccak256(0x00, 0x20)\n  swap1\n  0x1f\n  add\n  0x20\n  swap1\n  div\n  dup2\n  add\n  swap3\n  dup3\n  tag_17\n  jumpi\n  0x00\n  dup6\n  sstore\n  jump(tag_16)\ntag_17:\n  dup3\n  0x1f\n  lt\n  tag_18\n  jumpi\n  dup1\n  mload\n  not(0xff)\n  and\n  dup4\n  dup1\n  add\n  or\n  dup6\n  sstore\n  jump(tag_16)\ntag_18:\n  dup3\n  dup1\n  add\n  0x01\n  add\n  dup6\n  sstore\n  dup3\n  iszero\n  tag_16\n  jumpi\n  swap2\n  dup3\n  add\ntag_19:\n  dup3\n  dup2\n  gt\n  iszero\n  tag_20\n  jumpi\n  dup3\n  mload\n  dup3\n  sstore\n  swap2\n  0x20\n  add\n  swap2\n  swap1\n  0x01\n  add\n  swap1\n  jump(tag_19)\ntag_20:\ntag_16:\n  pop\n  swap1\n  pop\n  tag_21\n  swap2\n  swap1\n  tag_22\n  jump\t// in\ntag_21:\n  pop\n  swap1\n  jump\t// out\ntag_22:\ntag_23:\n  dup1\n  dup3\n  gt\n  iszero\n  tag_24\n  jumpi\n  0x00\n  dup2\n  0x00\n  swap1\n  sstore\n  pop\n  0x01\n  add\n  jump(tag_23)\ntag_24:\n  pop\n  swap1\n  jump\t// out\n    /* \"#utility.yul\":7:327   */\ntag_15:\n    /* \"#utility.yul\":51:57   */\n  0x00\n    /* \"#utility.yul\":88:89   */\n  0x02\n    /* \"#utility.yul\":82:86   */\n  dup3\n    /* \"#utility.yul\":78:90   */\n  div\n    /* \"#utility.yul\":68:90   */\n  swap1\n  pop\n    /* \"#utility.yul\":135:136   */\n  0x01\n    /* \"#utility.yul\":129:133   */\n  dup3\n    /* \"#utility.yul\":125:137   */\n  and\n    /* \"#utility.yul\":156:174   */\n  dup1\n    /* \"#utility.yul\":146:227   */\n  tag_27\n  jumpi\n    /* \"#utility.yul\":212:216   */\n  0x7f\n    /* \"#utility.yul\":204:210   */\n  dup3\n    /* \"#utility.yul\":200:217   */\n  and\n    /* \"#utility.yul\":190:217   */\n  swap2\n  pop\n    /* \"#utility.yul\":146:227   */\ntag_27:\n    /* \"#utility.yul\":274:276   */\n  0x20\n    /* \"#utility.yul\":266:272   */\n  dup3\n    /* \"#utility.yul\":263:277   */\n  lt\n    /* \"#utility.yul\":243:261   */\n  dup2\n    /* \"#utility.yul\":240:278   */\n  eq\n    /* \"#utility.yul\":237:321   */\n  iszero\n  tag_28\n  jumpi\n    /* \"#utility.yul\":293:311   */\n  tag_29\n  tag_30\n  jump\t// in\ntag_29:\n    /* \"#utility.yul\":237:321   */\ntag_28:\n    /* \"#utility.yul\":58:327   */\n  pop\n    /* \"#utility.yul\":7:327   */\n  swap2\n  swap1\n  pop\n  jump\t// out\n    /* \"#utility.yul\":333:513   */\ntag_30:\n    /* \"#utility.yul\":381:458   */\n  0x4e487b7100000000000000000000000000000000000000000000000000000000\n    /* \"#utility.yul\":378:379   */\n  0x00\n    /* \"#utility.yul\":371:459   */\n  mstore\n    /* \"#utility.yul\":478:482   */\n  0x22\n    /* \"#utility.yul\":475:476   */\n  0x04\n    /* \"#utility.yul\":468:483   */\n  mstore\n    /* \"#utility.yul\":502:506   */\n  0x24\n    /* \"#utility.yul\":499:500   */\n  0x00\n    /* \"#utility.yul\":492:507   */\n  revert\n    /* \"contracts/Shops.sol\":265:9216  contract ShopsSystem is AuthService{... */\ntag_13:\n  dataSize(sub_0)\n  dup1\n  dataOffset(sub_0)\n  0x00\n  codecopy\n  0x00\n  return\nstop\n\nsub_0: assembly {\n        /* \"contracts/Shops.sol\":265:9216  contract ShopsSystem is AuthService{... */\n      mstore(0x40, 0x80)\n      callvalue\n      dup1\n      iszero\n      tag_1\n      jumpi\n      0x00\n      dup1\n      revert\n    tag_1:\n      pop\n      jumpi(tag_2, lt(calldatasize, 0x04))\n      shr(0xe0, calldataload(0x00))\n      dup1\n      0x8403f848\n      gt\n      tag_26\n      jumpi\n      dup1\n      0xbce62a74\n      gt\n      tag_27\n      jumpi\n      dup1\n      0xbce62a74\n      eq\n      tag_20\n      jumpi\n      dup1\n      0xc3d5fd39\n      eq\n      tag_21\n      jumpi\n      dup1\n      0xdffc8b06\n      eq\n      tag_22\n      jumpi\n      dup1\n      0xe7bfea50\n      eq\n      tag_23\n      jumpi\n      dup1\n      0xf8f98b79\n      eq\n      tag_24\n      jumpi\n      dup1\n      0xfb1a002a\n      eq\n      tag_25\n      jumpi\n      jump(tag_2)\n    tag_27:\n      dup1\n      0x8403f848\n      eq\n      tag_14\n      jumpi\n      dup1\n      0x99b958ee\n      eq\n      tag_15\n      jumpi\n      dup1\n      0x9d344d10\n      eq\n      tag_16\n      jumpi\n      dup1\n      0xa59d105f\n      eq\n      tag_17\n      jumpi\n      dup1\n      0xac6fa7c3\n      eq\n      tag_18\n      jumpi\n      dup1\n      0xb038316c\n      eq\n      tag_19\n      jumpi\n      jump(tag_2)\n    tag_26:\n      dup1\n      0x3a7d280c\n      gt\n      tag_28\n      jumpi\n      dup1\n      0x3a7d280c\n      eq\n      tag_8\n      jumpi\n      dup1\n      0x53082b13\n      eq\n      tag_9\n      jumpi\n      dup1\n      0x54504c12\n      eq\n      tag_10\n      jumpi\n      dup1\n      0x7b3c7488\n      eq\n      tag_11\n      jumpi\n      dup1\n      0x7ccb2bd8\n      eq\n      tag_12\n      jumpi\n      dup1\n      0x83db0f6d\n      eq\n      tag_13\n      jumpi\n      jump(tag_2)\n    tag_28:\n      dup1\n      0x08e74858\n      eq\n      tag_3\n      jumpi\n      dup1\n      0x2059b7ad\n      eq\n      tag_4\n      jumpi\n      dup1\n      0x2156a781\n      eq\n      tag_5\n      jumpi\n      dup1\n      0x2d6abf59\n      eq\n      tag_6\n      jumpi\n      dup1\n      0x2f0185c4\n      eq\n      tag_7\n      jumpi\n    tag_2:\n      0x00\n      dup1\n      revert\n        /* \"contracts/Shops.sol\":5318:5931  function getSellerInfoByAddr(address sellerAddr) public view isUserStatus(UserRoles.admin)returns(... */\n    tag_3:\n      tag_29\n      0x04\n      dup1\n      calldatasize\n      sub\n      dup2\n      add\n      swap1\n      tag_30\n      swap2\n      swap1\n      tag_31\n      jump\t// in\n    tag_30:\n      tag_32\n      jump\t// in\n    tag_29:\n      mload(0x40)\n      tag_33\n      swap6\n      swap5\n      swap4\n      swap3\n      swap2\n      swap1\n      tag_34\n      jump\t// in\n    tag_33:\n      mload(0x40)\n      dup1\n      swap2\n      sub\n      swap1\n      return\n        /* \"contracts/Shops.sol\":7992:8294  function checkRequest(string memory id,bool isAccept) public isUserStatus(UserRoles.admin) {... */\n    tag_4:\n      tag_35\n      0x04\n      dup1\n      calldatasize\n      sub\n      dup2\n      add\n      swap1\n      tag_36\n      swap2\n      swap1\n      tag_37\n      jump\t// in\n    tag_36:\n      tag_38\n      jump\t// in\n    tag_35:\n      stop\n        /* \"contracts/Shops.sol\":2503:2690  function registerBank(string memory bankLogin,address bankAddr) public isAdmin {... */\n    tag_5:\n      tag_39\n      0x04\n      dup1\n      calldatasize\n      sub\n      dup2\n      add\n      swap1\n      tag_40\n      swap2\n      swap1\n      tag_41\n      jump\t// in\n    tag_40:\n      tag_42\n      jump\t// in\n    tag_39:\n      stop\n        /* \"contracts/Shops.sol\":5937:6391  function createReview(... */\n    tag_6:\n      tag_43\n      0x04\n      dup1\n      calldatasize\n      sub\n      dup2\n      add\n      swap1\n      tag_44\n      swap2\n      swap1\n      tag_45\n      jump\t// in\n    tag_44:\n      tag_46\n      jump\t// in\n    tag_43:\n      stop\n        /* \"contracts/Shops.sol\":6881:7367  function getReviewById(string memory id) public view returns(... */\n    tag_7:\n      tag_47\n      0x04\n      dup1\n      calldatasize\n      sub\n      dup2\n      add\n      swap1\n      tag_48\n      swap2\n      swap1\n      tag_49\n      jump\t// in\n    tag_48:\n      tag_50\n      jump\t// in\n    tag_47:\n      mload(0x40)\n      tag_51\n      swap7\n      swap6\n      swap5\n      swap4\n      swap3\n      swap2\n      swap1\n      tag_52\n      jump\t// in\n    tag_51:\n      mload(0x40)\n      dup1\n      swap2\n      sub\n      swap1\n      return\n        /* \"contracts/AuthService.sol\":2255:2555  function login(string memory userLogin) public view isRegistered(userLogin) returns(address userAddress,string memory status){... */\n    tag_8:\n      tag_53\n      0x04\n      dup1\n      calldatasize\n      sub\n      dup2\n      add\n      swap1\n      tag_54\n      swap2\n      swap1\n      tag_49\n      jump\t// in\n    tag_54:\n      tag_55\n      jump\t// in\n    tag_53:\n      mload(0x40)\n      tag_56\n      swap3\n      swap2\n      swap1\n      tag_57\n      jump\t// in\n    tag_56:\n      mload(0x40)\n      dup1\n      swap2\n      sub\n      swap1\n      return\n        /* \"contracts/Shops.sol\":1858:2084  function registerShop(address shopAddr,string memory number,string memory city) public isUserStatus(UserRoles.admin){... */\n    tag_9:\n      tag_58\n      0x04\n      dup1\n      calldatasize\n      sub\n      dup2\n      add\n      swap1\n      tag_59\n      swap2\n      swap1\n      tag_60\n      jump\t// in\n    tag_59:\n      tag_61\n      jump\t// in\n    tag_58:\n      stop\n        /* \"contracts/Shops.sol\":3699:4290  function getSellerInfo() public view isUserStatus(UserRoles.seller) returns(... */\n    tag_10:\n      tag_62\n      tag_63\n      jump\t// in\n    tag_62:\n      mload(0x40)\n      tag_64\n      swap6\n      swap5\n      swap4\n      swap3\n      swap2\n      swap1\n      tag_34\n      jump\t// in\n    tag_64:\n      mload(0x40)\n      dup1\n      swap2\n      sub\n      swap1\n      return\n        /* \"contracts/Shops.sol\":6397:6630  function likeReview(string memory id) public isUser {... */\n    tag_11:\n      tag_65\n      0x04\n      dup1\n      calldatasize\n      sub\n      dup2\n      add\n      swap1\n      tag_66\n      swap2\n      swap1\n      tag_49\n      jump\t// in\n    tag_66:\n      tag_67\n      jump\t// in\n    tag_65:\n      stop\n        /* \"contracts/Shops.sol\":2184:2428  function registerProvider(string memory providerLogin,address providerAddr) public isAdmin {... */\n    tag_12:\n      tag_68\n      0x04\n      dup1\n      calldatasize\n      sub\n      dup2\n      add\n      swap1\n      tag_69\n      swap2\n      swap1\n      tag_41\n      jump\t// in\n    tag_69:\n      tag_70\n      jump\t// in\n    tag_68:\n      stop\n        /* \"contracts/Shops.sol\":3420:3623  function doShopDebt(address payable shopAddr) public isUserStatus(UserRoles.bank) {... */\n    tag_13:\n      tag_71\n      0x04\n      dup1\n      calldatasize\n      sub\n      dup2\n      add\n      swap1\n      tag_72\n      swap2\n      swap1\n      tag_73\n      jump\t// in\n    tag_72:\n      tag_74\n      jump\t// in\n    tag_71:\n      stop\n        /* \"contracts/Shops.sol\":2753:3059  function registerSeller(string memory fio,string memory userLogin,address userAddress,address shopAddr) public {... */\n    tag_14:\n      tag_75\n      0x04\n      dup1\n      calldatasize\n      sub\n      dup2\n      add\n      swap1\n      tag_76\n      swap2\n      swap1\n      tag_77\n      jump\t// in\n    tag_76:\n      tag_78\n      jump\t// in\n    tag_75:\n      stop\n        /* \"contracts/Shops.sol\":4389:4753  function getBuyerInfo() public view isUser returns(... */\n    tag_15:\n      tag_79\n      tag_80\n      jump\t// in\n    tag_79:\n      mload(0x40)\n      tag_81\n      swap5\n      swap4\n      swap3\n      swap2\n      swap1\n      tag_82\n      jump\t// in\n    tag_81:\n      mload(0x40)\n      dup1\n      swap2\n      sub\n      swap1\n      return\n        /* \"contracts/Shops.sol\":3126:3325  function registerBuyer(string memory fio,string memory userLogin,address userAddr) public{... */\n    tag_16:\n      tag_83\n      0x04\n      dup1\n      calldatasize\n      sub\n      dup2\n      add\n      swap1\n      tag_84\n      swap2\n      swap1\n      tag_85\n      jump\t// in\n    tag_84:\n      tag_86\n      jump\t// in\n    tag_83:\n      stop\n        /* \"contracts/Shops.sol\":1539:1797  function regAdmin(address adminAddr,string memory fio,string memory userLogin) public isUserStatus(UserRoles.admin){... */\n    tag_17:\n      tag_87\n      0x04\n      dup1\n      calldatasize\n      sub\n      dup2\n      add\n      swap1\n      tag_88\n      swap2\n      swap1\n      tag_60\n      jump\t// in\n    tag_88:\n      tag_89\n      jump\t// in\n    tag_87:\n      stop\n        /* \"contracts/Shops.sol\":7373:7675  function requestToSeller(string memory id) public isUserStatus(UserRoles.buyer){... */\n    tag_18:\n      tag_90\n      0x04\n      dup1\n      calldatasize\n      sub\n      dup2\n      add\n      swap1\n      tag_91\n      swap2\n      swap1\n      tag_49\n      jump\t// in\n    tag_91:\n      tag_92\n      jump\t// in\n    tag_90:\n      stop\n        /* \"contracts/Shops.sol\":7681:7986  function downRequestToByer(string memory id) public isUserStatus(UserRoles.seller){... */\n    tag_19:\n      tag_93\n      0x04\n      dup1\n      calldatasize\n      sub\n      dup2\n      add\n      swap1\n      tag_94\n      swap2\n      swap1\n      tag_49\n      jump\t// in\n    tag_94:\n      tag_95\n      jump\t// in\n    tag_93:\n      stop\n        /* \"contracts/Shops.sol\":6636:6875  function disLikeReview(string memory id) public isUser {... */\n    tag_20:\n      tag_96\n      0x04\n      dup1\n      calldatasize\n      sub\n      dup2\n      add\n      swap1\n      tag_97\n      swap2\n      swap1\n      tag_49\n      jump\t// in\n    tag_97:\n      tag_98\n      jump\t// in\n    tag_96:\n      stop\n        /* \"contracts/Shops.sol\":4823:5221  function getAdminInfo() public view isUserStatus(UserRoles.admin) returns(... */\n    tag_21:\n      tag_99\n      tag_100\n      jump\t// in\n    tag_99:\n      mload(0x40)\n      tag_101\n      swap5\n      swap4\n      swap3\n      swap2\n      swap1\n      tag_102\n      jump\t// in\n    tag_101:\n      mload(0x40)\n      dup1\n      swap2\n      sub\n      swap1\n      return\n        /* \"contracts/Shops.sol\":8807:9152  function getRequestById(string memory id) public view returns(... */\n    tag_22:\n      tag_103\n      0x04\n      dup1\n      calldatasize\n      sub\n      dup2\n      add\n      swap1\n      tag_104\n      swap2\n      swap1\n      tag_49\n      jump\t// in\n    tag_104:\n      tag_105\n      jump\t// in\n    tag_103:\n      mload(0x40)\n      tag_106\n      swap4\n      swap3\n      swap2\n      swap1\n      tag_107\n      jump\t// in\n    tag_106:\n      mload(0x40)\n      dup1\n      swap2\n      sub\n      swap1\n      return\n        /* \"contracts/Shops.sol\":8441:8801  function deleteShop(address shopAddr) public isUserStatus(UserRoles.admin) {... */\n    tag_23:\n      tag_108\n      0x04\n      dup1\n      calldatasize\n      sub\n      dup2\n      add\n      swap1\n      tag_109\n      swap2\n      swap1\n      tag_31\n      jump\t// in\n    tag_109:\n      tag_110\n      jump\t// in\n    tag_108:\n      stop\n        /* \"contracts/Shops.sol\":1223:1448  function registerAdmin(string memory fio,string memory userLogin) isAdmin public {... */\n    tag_24:\n      tag_111\n      0x04\n      dup1\n      calldatasize\n      sub\n      dup2\n      add\n      swap1\n      tag_112\n      swap2\n      swap1\n      tag_113\n      jump\t// in\n    tag_112:\n      tag_114\n      jump\t// in\n    tag_111:\n      stop\n        /* \"contracts/Shops.sol\":8300:8435  function getAllRequests() public view isUserStatus(UserRoles.admin) returns(string[] memory requestsId){... */\n    tag_25:\n      tag_115\n      tag_116\n      jump\t// in\n    tag_115:\n      mload(0x40)\n      tag_117\n      swap2\n      swap1\n      tag_118\n      jump\t// in\n    tag_117:\n      mload(0x40)\n      dup1\n      swap2\n      sub\n      swap1\n      return\n        /* \"contracts/Shops.sol\":5318:5931  function getSellerInfoByAddr(address sellerAddr) public view isUserStatus(UserRoles.admin)returns(... */\n    tag_32:\n        /* \"contracts/Shops.sol\":5425:5450  string memory sellerLogin */\n      0x60\n        /* \"contracts/Shops.sol\":5460:5477  string memory fio */\n      dup1\n        /* \"contracts/Shops.sol\":5487:5505  string memory city */\n      0x60\n        /* \"contracts/Shops.sol\":5515:5539  string memory shopNumber */\n      dup1\n        /* \"contracts/Shops.sol\":5549:5572  string[] memory reviews */\n      0x60\n        /* \"contracts/Shops.sol\":5392:5407  UserRoles.admin */\n      0x03\n        /* \"contracts/AuthService.sol\":1616:1621  users */\n      0x02\n        /* \"contracts/AuthService.sol\":1616:1633  users[msg.sender] */\n      0x00\n        /* \"contracts/AuthService.sol\":1622:1632  msg.sender */\n      caller\n        /* \"contracts/AuthService.sol\":1616:1633  users[msg.sender] */\n      0xffffffffffffffffffffffffffffffffffffffff\n      and\n      0xffffffffffffffffffffffffffffffffffffffff\n      and\n      dup2\n      mstore\n      0x20\n      add\n      swap1\n      dup2\n      mstore\n      0x20\n      add\n      0x00\n      keccak256\n        /* \"contracts/AuthService.sol\":1616:1640  users[msg.sender].status */\n      0x00\n      add\n      sload\n        /* \"contracts/AuthService.sol\":1605:1611  status */\n      dup2\n        /* \"contracts/AuthService.sol\":1600:1612  uint(status) */\n      0x05\n      dup2\n      gt\n      iszero\n      tag_120\n      jumpi\n      tag_121\n      tag_122\n      jump\t// in\n    tag_121:\n    tag_120:\n        /* \"contracts/AuthService.sol\":1600:1640  uint(status) == users[msg.sender].status */\n      eq\n        /* \"contracts/AuthService.sol\":1592:1653  require(uint(status) == users[msg.sender].status,\"Forbidden\") */\n      tag_123\n      jumpi\n      mload(0x40)\n      0x08c379a000000000000000000000000000000000000000000000000000000000\n      dup2\n      mstore\n      0x04\n      add\n      tag_124\n      swap1\n      tag_125\n      jump\t// in\n    tag_124:\n      mload(0x40)\n      dup1\n      swap2\n      sub\n      swap1\n      revert\n    tag_123:\n        /* \"contracts/Shops.sol\":5588:5608  User memory sellUser */\n      0x00\n        /* \"contracts/Shops.sol\":5611:5616  users */\n      0x02\n        /* \"contracts/Shops.sol\":5611:5628  users[sellerAddr] */\n      0x00\n        /* \"contracts/Shops.sol\":5617:5627  sellerAddr */\n      dup10\n        /* \"contracts/Shops.sol\":5611:5628  users[sellerAddr] */\n      0xffffffffffffffffffffffffffffffffffffffff\n      and\n      0xffffffffffffffffffffffffffffffffffffffff\n      and\n      dup2\n      mstore\n      0x20\n      add\n      swap1\n      dup2\n      mstore\n      0x20\n      add\n      0x00\n      keccak256\n        /* \"contracts/Shops.sol\":5588:5628  User memory sellUser = users[sellerAddr] */\n      mload(0x40)\n      dup1\n      0x80\n      add\n      0x40\n      mstore\n      swap1\n      dup2\n      0x00\n      dup3\n      add\n      sload\n      dup2\n      mstore\n      0x20\n      add\n      0x01\n      dup3\n      add\n      dup1\n      sload\n      tag_127\n      swap1\n      tag_128\n      jump\t// in\n    tag_127:\n      dup1\n      0x1f\n      add\n      0x20\n      dup1\n      swap2\n      div\n      mul\n      0x20\n      add\n      mload(0x40)\n      swap1\n      dup2\n      add\n      0x40\n      mstore\n      dup1\n      swap3\n      swap2\n      swap1\n      dup2\n      dup2\n      mstore\n      0x20\n      add\n      dup3\n      dup1\n      sload\n      tag_129\n      swap1\n      tag_128\n      jump\t// in\n    tag_129:\n      dup1\n      iszero\n      tag_130\n      jumpi\n      dup1\n      0x1f\n      lt\n      tag_131\n      jumpi\n      0x0100\n      dup1\n      dup4\n      sload\n      div\n      mul\n      dup4\n      mstore\n      swap2\n      0x20\n      add\n      swap2\n      jump(tag_130)\n    tag_131:\n      dup3\n      add\n      swap2\n      swap1\n      0x00\n      mstore\n      keccak256(0x00, 0x20)\n      swap1\n    tag_132:\n      dup2\n      sload\n      dup2\n      mstore\n      swap1\n      0x01\n      add\n      swap1\n      0x20\n      add\n      dup1\n      dup4\n      gt\n      tag_132\n      jumpi\n      dup3\n      swap1\n      sub\n      0x1f\n      and\n      dup3\n      add\n      swap2\n    tag_130:\n      pop\n      pop\n      pop\n      pop\n      pop\n      dup2\n      mstore\n      0x20\n      add\n      0x02\n      dup3\n      add\n      dup1\n      sload\n      tag_133\n      swap1\n      tag_128\n      jump\t// in\n    tag_133:\n      dup1\n      0x1f\n      add\n      0x20\n      dup1\n      swap2\n      div\n      mul\n      0x20\n      add\n      mload(0x40)\n      swap1\n      dup2\n      add\n      0x40\n      mstore\n      dup1\n      swap3\n      swap2\n      swap1\n      dup2\n      dup2\n      mstore\n      0x20\n      add\n      dup3\n      dup1\n      sload\n      tag_134\n      swap1\n      tag_128\n      jump\t// in\n    tag_134:\n      dup1\n      iszero\n      tag_135\n      jumpi\n      dup1\n      0x1f\n      lt\n      tag_136\n      jumpi\n      0x0100\n      dup1\n      dup4\n      sload\n      div\n      mul\n      dup4\n      mstore\n      swap2\n      0x20\n      add\n      swap2\n      jump(tag_135)\n    tag_136:\n      dup3\n      add\n      swap2\n      swap1\n      0x00\n      mstore\n      keccak256(0x00, 0x20)\n      swap1\n    tag_137:\n      dup2\n      sload\n      dup2\n      mstore\n      swap1\n      0x01\n      add\n      swap1\n      0x20\n      add\n      dup1\n      dup4\n      gt\n      tag_137\n      jumpi\n      dup3\n      swap1\n      sub\n      0x1f\n      and\n      dup3\n      add\n      swap2\n    tag_135:\n      pop\n      pop\n      pop\n      pop\n      pop\n      dup2\n      mstore\n      0x20\n      add\n      0x03\n      dup3\n      add\n      dup1\n      sload\n      dup1\n      0x20\n      mul\n      0x20\n      add\n      mload(0x40)\n      swap1\n      dup2\n      add\n      0x40\n      mstore\n      dup1\n      swap3\n      swap2\n      swap1\n      dup2\n      dup2\n      mstore\n      0x20\n      add\n      0x00\n      swap1\n    tag_138:\n      dup3\n      dup3\n      lt\n      iszero\n      tag_139\n      jumpi\n      dup4\n      dup3\n      swap1\n      0x00\n      mstore\n      keccak256(0x00, 0x20)\n      add\n      dup1\n      sload\n      tag_141\n      swap1\n      tag_128\n      jump\t// in\n    tag_141:\n      dup1\n      0x1f\n      add\n      0x20\n      dup1\n      swap2\n      div\n      mul\n      0x20\n      add\n      mload(0x40)\n      swap1\n      dup2\n      add\n      0x40\n      mstore\n      dup1\n      swap3\n      swap2\n      swap1\n      dup2\n      dup2\n      mstore\n      0x20\n      add\n      dup3\n      dup1\n      sload\n      tag_142\n      swap1\n      tag_128\n      jump\t// in\n    tag_142:\n      dup1\n      iszero\n      tag_143\n      jumpi\n      dup1\n      0x1f\n      lt\n      tag_144\n      jumpi\n      0x0100\n      dup1\n      dup4\n      sload\n      div\n      mul\n      dup4\n      mstore\n      swap2\n      0x20\n      add\n      swap2\n      jump(tag_143)\n    tag_144:\n      dup3\n      add\n      swap2\n      swap1\n      0x00\n      mstore\n      keccak256(0x00, 0x20)\n      swap1\n    tag_145:\n      dup2\n      sload\n      dup2\n      mstore\n      swap1\n      0x01\n      add\n      swap1\n      0x20\n      add\n      dup1\n      dup4\n      gt\n      tag_145\n      jumpi\n      dup3\n      swap1\n      sub\n      0x1f\n      and\n      dup3\n      add\n      swap2\n    tag_143:\n      pop\n      pop\n      pop\n      pop\n      pop\n      dup2\n      mstore\n      0x20\n      add\n      swap1\n      0x01\n      add\n      swap1\n      jump(tag_138)\n    tag_139:\n      pop\n      pop\n      pop\n      pop\n      dup2\n      mstore\n      pop\n      pop\n      swap1\n      pop\n        /* \"contracts/Shops.sol\":5638:5658  address sellShopAddr */\n      0x00\n        /* \"contracts/Shops.sol\":5661:5673  salesmanShop */\n      0x0b\n        /* \"contracts/Shops.sol\":5661:5685  salesmanShop[sellerAddr] */\n      0x00\n        /* \"contracts/Shops.sol\":5674:5684  sellerAddr */\n      dup11\n        /* \"contracts/Shops.sol\":5661:5685  salesmanShop[sellerAddr] */\n      0xffffffffffffffffffffffffffffffffffffffff\n      and\n      0xffffffffffffffffffffffffffffffffffffffff\n      and\n      dup2\n      mstore\n      0x20\n      add\n      swap1\n      dup2\n      mstore\n      0x20\n      add\n      0x00\n      keccak256\n      0x00\n      swap1\n      sload\n      swap1\n      0x0100\n      exp\n      swap1\n      div\n      0xffffffffffffffffffffffffffffffffffffffff\n      and\n        /* \"contracts/Shops.sol\":5638:5685  address sellShopAddr = salesmanShop[sellerAddr] */\n      swap1\n      pop\n        /* \"contracts/Shops.sol\":5695:5715  Shop memory sellShop */\n      0x00\n        /* \"contracts/Shops.sol\":5718:5727  ShopsList */\n      0x0a\n        /* \"contracts/Shops.sol\":5718:5741  ShopsList[sellShopAddr] */\n      0x00\n        /* \"contracts/Shops.sol\":5728:5740  sellShopAddr */\n      dup4\n        /* \"contracts/Shops.sol\":5718:5741  ShopsList[sellShopAddr] */\n      0xffffffffffffffffffffffffffffffffffffffff\n      and\n      0xffffffffffffffffffffffffffffffffffffffff\n      and\n      dup2\n      mstore\n      0x20\n      add\n      swap1\n      dup2\n      mstore\n      0x20\n      add\n      0x00\n      keccak256\n        /* \"contracts/Shops.sol\":5695:5741  Shop memory sellShop = ShopsList[sellShopAddr] */\n      mload(0x40)\n      dup1\n      0x60\n      add\n      0x40\n      mstore\n      swap1\n      dup2\n      0x00\n      dup3\n      add\n      dup1\n      sload\n      tag_146\n      swap1\n      tag_128\n      jump\t// in\n    tag_146:\n      dup1\n      0x1f\n      add\n      0x20\n      dup1\n      swap2\n      div\n      mul\n      0x20\n      add\n      mload(0x40)\n      swap1\n      dup2\n      add\n      0x40\n      mstore\n      dup1\n      swap3\n      swap2\n      swap1\n      dup2\n      dup2\n      mstore\n      0x20\n      add\n      dup3\n      dup1\n      sload\n      tag_147\n      swap1\n      tag_128\n      jump\t// in\n    tag_147:\n      dup1\n      iszero\n      tag_148\n      jumpi\n      dup1\n      0x1f\n      lt\n      tag_149\n      jumpi\n      0x0100\n      dup1\n      dup4\n      sload\n      div\n      mul\n      dup4\n      mstore\n      swap2\n      0x20\n      add\n      swap2\n      jump(tag_148)\n    tag_149:\n      dup3\n      add\n      swap2\n      swap1\n      0x00\n      mstore\n      keccak256(0x00, 0x20)\n      swap1\n    tag_150:\n      dup2\n      sload\n      dup2\n      mstore\n      swap1\n      0x01\n      add\n      swap1\n      0x20\n      add\n      dup1\n      dup4\n      gt\n      tag_150\n      jumpi\n      dup3\n      swap1\n      sub\n      0x1f\n      and\n      dup3\n      add\n      swap2\n    tag_148:\n      pop\n      pop\n      pop\n      pop\n      pop\n      dup2\n      mstore\n      0x20\n      add\n      0x01\n      dup3\n      add\n      dup1\n      sload\n      tag_151\n      swap1\n      tag_128\n      jump\t// in\n    tag_151:\n      dup1\n      0x1f\n      add\n      0x20\n      dup1\n      swap2\n      div\n      mul\n      0x20\n      add\n      mload(0x40)\n      swap1\n      dup2\n      add\n      0x40\n      mstore\n      dup1\n      swap3\n      swap2\n      swap1\n      dup2\n      dup2\n      mstore\n      0x20\n      add\n      dup3\n      dup1\n      sload\n      tag_152\n      swap1\n      tag_128\n      jump\t// in\n    tag_152:\n      dup1\n      iszero\n      tag_153\n      jumpi\n      dup1\n      0x1f\n      lt\n      tag_154\n      jumpi\n      0x0100\n      dup1\n      dup4\n      sload\n      div\n      mul\n      dup4\n      mstore\n      swap2\n      0x20\n      add\n      swap2\n      jump(tag_153)\n    tag_154:\n      dup3\n      add\n      swap2\n      swap1\n      0x00\n      mstore\n      keccak256(0x00, 0x20)\n      swap1\n    tag_155:\n      dup2\n      sload\n      dup2\n      mstore\n      swap1\n      0x01\n      add\n      swap1\n      0x20\n      add\n      dup1\n      dup4\n      gt\n      tag_155\n      jumpi\n      dup3\n      swap1\n      sub\n      0x1f\n      and\n      dup3\n      add\n      swap2\n    tag_153:\n      pop\n      pop\n      pop\n      pop\n      pop\n      dup2\n      mstore\n      0x20\n      add\n      0x02\n      dup3\n      add\n      sload\n      dup2\n      mstore\n      pop\n      pop\n      swap1\n      pop\n        /* \"contracts/Shops.sol\":5774:5782  sellUser */\n      dup3\n        /* \"contracts/Shops.sol\":5774:5792  sellUser.userLogin */\n      0x20\n      add\n      mload\n        /* \"contracts/Shops.sol\":5760:5792  sellerLogin = sellUser.userLogin */\n      swap9\n      pop\n        /* \"contracts/Shops.sol\":5808:5816  sellUser */\n      dup3\n        /* \"contracts/Shops.sol\":5808:5820  sellUser.fio */\n      0x40\n      add\n      mload\n        /* \"contracts/Shops.sol\":5802:5820  fio = sellUser.fio */\n      swap8\n      pop\n        /* \"contracts/Shops.sol\":5837:5845  sellShop */\n      dup1\n        /* \"contracts/Shops.sol\":5837:5850  sellShop.city */\n      0x20\n      add\n      mload\n        /* \"contracts/Shops.sol\":5830:5850  city = sellShop.city */\n      swap7\n      pop\n        /* \"contracts/Shops.sol\":5873:5881  sellShop */\n      dup1\n        /* \"contracts/Shops.sol\":5873:5888  sellShop.number */\n      0x00\n      add\n      mload\n        /* \"contracts/Shops.sol\":5860:5888  shopNumber = sellShop.number */\n      swap6\n      pop\n        /* \"contracts/Shops.sol\":5908:5916  sellUser */\n      dup3\n        /* \"contracts/Shops.sol\":5908:5924  sellUser.reviews */\n      0x60\n      add\n      mload\n        /* \"contracts/Shops.sol\":5898:5924  reviews = sellUser.reviews */\n      swap5\n      pop\n        /* \"contracts/Shops.sol\":5578:5931  {... */\n      pop\n      pop\n      pop\n        /* \"contracts/Shops.sol\":5318:5931  function getSellerInfoByAddr(address sellerAddr) public view isUserStatus(UserRoles.admin)returns(... */\n      pop\n      swap2\n      swap4\n      swap6\n      swap1\n      swap3\n      swap5\n      pop\n      jump\t// out\n        /* \"contracts/Shops.sol\":7992:8294  function checkRequest(string memory id,bool isAccept) public isUserStatus(UserRoles.admin) {... */\n    tag_38:\n        /* \"contracts/Shops.sol\":8066:8081  UserRoles.admin */\n      0x03\n        /* \"contracts/AuthService.sol\":1616:1621  users */\n      0x02\n        /* \"contracts/AuthService.sol\":1616:1633  users[msg.sender] */\n      0x00\n        /* \"contracts/AuthService.sol\":1622:1632  msg.sender */\n      caller\n        /* \"contracts/AuthService.sol\":1616:1633  users[msg.sender] */\n      0xffffffffffffffffffffffffffffffffffffffff\n      and\n      0xffffffffffffffffffffffffffffffffffffffff\n      and\n      dup2\n      mstore\n      0x20\n      add\n      swap1\n      dup2\n      mstore\n      0x20\n      add\n      0x00\n      keccak256\n        /* \"contracts/AuthService.sol\":1616:1640  users[msg.sender].status */\n      0x00\n      add\n      sload\n        /* \"contracts/AuthService.sol\":1605:1611  status */\n      dup2\n        /* \"contracts/AuthService.sol\":1600:1612  uint(status) */\n      0x05\n      dup2\n      gt\n      iszero\n      tag_157\n      jumpi\n      tag_158\n      tag_122\n      jump\t// in\n    tag_158:\n    tag_157:\n        /* \"contracts/AuthService.sol\":1600:1640  uint(status) == users[msg.sender].status */\n      eq\n        /* \"contracts/AuthService.sol\":1592:1653  require(uint(status) == users[msg.sender].status,\"Forbidden\") */\n      tag_159\n      jumpi\n      mload(0x40)\n      0x08c379a000000000000000000000000000000000000000000000000000000000\n      dup2\n      mstore\n      0x04\n      add\n      tag_160\n      swap1\n      tag_125\n      jump\t// in\n    tag_160:\n      mload(0x40)\n      dup1\n      swap2\n      sub\n      swap1\n      revert\n    tag_159:\n        /* \"contracts/Shops.sol\":8093:8110  Request memory rq */\n      0x00\n        /* \"contracts/Shops.sol\":8113:8122  requestId */\n      0x0f\n        /* \"contracts/Shops.sol\":8123:8125  id */\n      dup5\n        /* \"contracts/Shops.sol\":8113:8126  requestId[id] */\n      mload(0x40)\n      tag_162\n      swap2\n      swap1\n      tag_163\n      jump\t// in\n    tag_162:\n      swap1\n      dup2\n      mstore\n      0x20\n      add\n      mload(0x40)\n      dup1\n      swap2\n      sub\n      swap1\n      keccak256\n        /* \"contracts/Shops.sol\":8093:8126  Request memory rq = requestId[id] */\n      mload(0x40)\n      dup1\n      0x80\n      add\n      0x40\n      mstore\n      swap1\n      dup2\n      0x00\n      dup3\n      add\n      0x00\n      swap1\n      sload\n      swap1\n      0x0100\n      exp\n      swap1\n      div\n      0xffffffffffffffffffffffffffffffffffffffff\n      and\n      0xffffffffffffffffffffffffffffffffffffffff\n      and\n      0xffffffffffffffffffffffffffffffffffffffff\n      and\n      dup2\n      mstore\n      0x20\n      add\n      0x01\n      dup3\n      add\n      sload\n      dup2\n      mstore\n      0x20\n      add\n      0x02\n      dup3\n      add\n      sload\n      dup2\n      mstore\n      0x20\n      add\n      0x03\n      dup3\n      add\n      0x00\n      swap1\n      sload\n      swap1\n      0x0100\n      exp\n      swap1\n      div\n      0xff\n      and\n      iszero\n      iszero\n      iszero\n      iszero\n      dup2\n      mstore\n      pop\n      pop\n      swap1\n      pop\n        /* \"contracts/Shops.sol\":8136:8149  uint userRole */\n      0x00\n        /* \"contracts/Shops.sol\":8152:8154  rq */\n      dup2\n        /* \"contracts/Shops.sol\":8152:8166  rq.desiredRole */\n      0x40\n      add\n      mload\n        /* \"contracts/Shops.sol\":8136:8166  uint userRole = rq.desiredRole */\n      swap1\n      pop\n        /* \"contracts/Shops.sol\":8180:8188  isAccept */\n      dup4\n        /* \"contracts/Shops.sol\":8176:8250  if (isAccept){... */\n      iszero\n      tag_164\n      jumpi\n        /* \"contracts/Shops.sol\":8231:8239  userRole */\n      dup1\n        /* \"contracts/Shops.sol\":8203:8208  users */\n      0x02\n        /* \"contracts/Shops.sol\":8203:8221  users[rq.userAddr] */\n      0x00\n        /* \"contracts/Shops.sol\":8209:8211  rq */\n      dup5\n        /* \"contracts/Shops.sol\":8209:8220  rq.userAddr */\n      0x00\n      add\n      mload\n        /* \"contracts/Shops.sol\":8203:8221  users[rq.userAddr] */\n      0xffffffffffffffffffffffffffffffffffffffff\n      and\n      0xffffffffffffffffffffffffffffffffffffffff\n      and\n      dup2\n      mstore\n      0x20\n      add\n      swap1\n      dup2\n      mstore\n      0x20\n      add\n      0x00\n      keccak256\n        /* \"contracts/Shops.sol\":8203:8228  users[rq.userAddr].status */\n      0x00\n      add\n        /* \"contracts/Shops.sol\":8203:8239  users[rq.userAddr].status = userRole */\n      dup2\n      swap1\n      sstore\n      pop\n        /* \"contracts/Shops.sol\":8176:8250  if (isAccept){... */\n    tag_164:\n        /* \"contracts/Shops.sol\":8283:8287  true */\n      0x01\n        /* \"contracts/Shops.sol\":8259:8268  requestId */\n      0x0f\n        /* \"contracts/Shops.sol\":8269:8271  id */\n      dup7\n        /* \"contracts/Shops.sol\":8259:8272  requestId[id] */\n      mload(0x40)\n      tag_165\n      swap2\n      swap1\n      tag_163\n      jump\t// in\n    tag_165:\n      swap1\n      dup2\n      mstore\n      0x20\n      add\n      mload(0x40)\n      dup1\n      swap2\n      sub\n      swap1\n      keccak256\n        /* \"contracts/Shops.sol\":8259:8280  requestId[id].checked */\n      0x03\n      add\n      0x00\n        /* \"contracts/Shops.sol\":8259:8287  requestId[id].checked = true */\n      0x0100\n      exp\n      dup2\n      sload\n      dup2\n      0xff\n      mul\n      not\n      and\n      swap1\n      dup4\n      iszero\n      iszero\n      mul\n      or\n      swap1\n      sstore\n      pop\n        /* \"contracts/Shops.sol\":8083:8294  {... */\n      pop\n      pop\n        /* \"contracts/Shops.sol\":7992:8294  function checkRequest(string memory id,bool isAccept) public isUserStatus(UserRoles.admin) {... */\n      pop\n      pop\n      pop\n      jump\t// out\n        /* \"contracts/Shops.sol\":2503:2690  function registerBank(string memory bankLogin,address bankAddr) public isAdmin {... */\n    tag_42:\n        /* \"contracts/Shops.sol\":1065:1070  admin */\n      0x05\n      0x00\n      swap1\n      sload\n      swap1\n      0x0100\n      exp\n      swap1\n      div\n      0xffffffffffffffffffffffffffffffffffffffff\n      and\n        /* \"contracts/Shops.sol\":1051:1070  msg.sender == admin */\n      0xffffffffffffffffffffffffffffffffffffffff\n      and\n        /* \"contracts/Shops.sol\":1051:1061  msg.sender */\n      caller\n        /* \"contracts/Shops.sol\":1051:1070  msg.sender == admin */\n      0xffffffffffffffffffffffffffffffffffffffff\n      and\n      eq\n        /* \"contracts/Shops.sol\":1043:1087  require(msg.sender == admin,\"You not admin\") */\n      tag_167\n      jumpi\n      mload(0x40)\n      0x08c379a000000000000000000000000000000000000000000000000000000000\n      dup2\n      mstore\n      0x04\n      add\n      tag_168\n      swap1\n      tag_169\n      jump\t// in\n    tag_168:\n      mload(0x40)\n      dup1\n      swap2\n      sub\n      swap1\n      revert\n    tag_167:\n        /* \"contracts/Shops.sol\":2592:2603  uint status */\n      0x00\n        /* \"contracts/Shops.sol\":2611:2625  UserRoles.bank */\n      0x05\n        /* \"contracts/Shops.sol\":2606:2626  uint(UserRoles.bank) */\n      dup1\n      dup2\n      gt\n      iszero\n      tag_171\n      jumpi\n      tag_172\n      tag_122\n      jump\t// in\n    tag_172:\n    tag_171:\n        /* \"contracts/Shops.sol\":2592:2626  uint status = uint(UserRoles.bank) */\n      swap1\n      pop\n        /* \"contracts/Shops.sol\":2636:2683  registerFromAdmin(\"\",bankLogin,status,bankAddr) */\n      tag_173\n      mload(0x40)\n      dup1\n      0x20\n      add\n      0x40\n      mstore\n      dup1\n      0x00\n      dup2\n      mstore\n      pop\n        /* \"contracts/Shops.sol\":2657:2666  bankLogin */\n      dup5\n        /* \"contracts/Shops.sol\":2667:2673  status */\n      dup4\n        /* \"contracts/Shops.sol\":2674:2682  bankAddr */\n      dup6\n        /* \"contracts/Shops.sol\":2636:2653  registerFromAdmin */\n      tag_174\n        /* \"contracts/Shops.sol\":2636:2683  registerFromAdmin(\"\",bankLogin,status,bankAddr) */\n      jump\t// in\n    tag_173:\n        /* \"contracts/Shops.sol\":2582:2690  {... */\n      pop\n        /* \"contracts/Shops.sol\":2503:2690  function registerBank(string memory bankLogin,address bankAddr) public isAdmin {... */\n      pop\n      pop\n      jump\t// out\n        /* \"contracts/Shops.sol\":5937:6391  function createReview(... */\n    tag_46:\n        /* \"contracts/AuthService.sol\":1464:1503  compare(users[msg.sender].userLogin,\"\") */\n      tag_176\n        /* \"contracts/AuthService.sol\":1472:1477  users */\n      0x02\n        /* \"contracts/AuthService.sol\":1472:1489  users[msg.sender] */\n      0x00\n        /* \"contracts/AuthService.sol\":1478:1488  msg.sender */\n      caller\n        /* \"contracts/AuthService.sol\":1472:1489  users[msg.sender] */\n      0xffffffffffffffffffffffffffffffffffffffff\n      and\n      0xffffffffffffffffffffffffffffffffffffffff\n      and\n      dup2\n      mstore\n      0x20\n      add\n      swap1\n      dup2\n      mstore\n      0x20\n      add\n      0x00\n      keccak256\n        /* \"contracts/AuthService.sol\":1472:1499  users[msg.sender].userLogin */\n      0x01\n      add\n        /* \"contracts/AuthService.sol\":1464:1503  compare(users[msg.sender].userLogin,\"\") */\n      dup1\n      sload\n      tag_177\n      swap1\n      tag_128\n      jump\t// in\n    tag_177:\n      dup1\n      0x1f\n      add\n      0x20\n      dup1\n      swap2\n      div\n      mul\n      0x20\n      add\n      mload(0x40)\n      swap1\n      dup2\n      add\n      0x40\n      mstore\n      dup1\n      swap3\n      swap2\n      swap1\n      dup2\n      dup2\n      mstore\n      0x20\n      add\n      dup3\n      dup1\n      sload\n      tag_178\n      swap1\n      tag_128\n      jump\t// in\n    tag_178:\n      dup1\n      iszero\n      tag_179\n      jumpi\n      dup1\n      0x1f\n      lt\n      tag_180\n      jumpi\n      0x0100\n      dup1\n      dup4\n      sload\n      div\n      mul\n      dup4\n      mstore\n      swap2\n      0x20\n      add\n      swap2\n      jump(tag_179)\n    tag_180:\n      dup3\n      add\n      swap2\n      swap1\n      0x00\n      mstore\n      keccak256(0x00, 0x20)\n      swap1\n    tag_181:\n      dup2\n      sload\n      dup2\n      mstore\n      swap1\n      0x01\n      add\n      swap1\n      0x20\n      add\n      dup1\n      dup4\n      gt\n      tag_181\n      jumpi\n      dup3\n      swap1\n      sub\n      0x1f\n      and\n      dup3\n      add\n      swap2\n    tag_179:\n      pop\n      pop\n      pop\n      pop\n      pop\n      mload(0x40)\n      dup1\n      0x20\n      add\n      0x40\n      mstore\n      dup1\n      0x00\n      dup2\n      mstore\n      pop\n        /* \"contracts/AuthService.sol\":1464:1471  compare */\n      tag_182\n        /* \"contracts/AuthService.sol\":1464:1503  compare(users[msg.sender].userLogin,\"\") */\n      jump\t// in\n    tag_176:\n        /* \"contracts/AuthService.sol\":1463:1503  !compare(users[msg.sender].userLogin,\"\") */\n      iszero\n        /* \"contracts/AuthService.sol\":1455:1519  require(!compare(users[msg.sender].userLogin,\"\"),\"You not user\") */\n      tag_183\n      jumpi\n      mload(0x40)\n      0x08c379a000000000000000000000000000000000000000000000000000000000\n      dup2\n      mstore\n      0x04\n      add\n      tag_184\n      swap1\n      tag_185\n      jump\t// in\n    tag_184:\n      mload(0x40)\n      dup1\n      swap2\n      sub\n      swap1\n      revert\n    tag_183:\n        /* \"contracts/Shops.sol\":6095:6121  address[] memory likeCount */\n      0x60\n        /* \"contracts/Shops.sol\":6131:6160  address[] memory disLikeCount */\n      dup1\n        /* \"contracts/Shops.sol\":6170:6194  Review memory userReview */\n      0x00\n        /* \"contracts/Shops.sol\":6197:6265  Review(msg.sender,shopAddr,userMessage,likeCount,disLikeCount,grade) */\n      mload(0x40)\n      dup1\n      0xc0\n      add\n      0x40\n      mstore\n      dup1\n        /* \"contracts/Shops.sol\":6204:6214  msg.sender */\n      caller\n        /* \"contracts/Shops.sol\":6197:6265  Review(msg.sender,shopAddr,userMessage,likeCount,disLikeCount,grade) */\n      0xffffffffffffffffffffffffffffffffffffffff\n      and\n      dup2\n      mstore\n      0x20\n      add\n        /* \"contracts/Shops.sol\":6215:6223  shopAddr */\n      dup9\n        /* \"contracts/Shops.sol\":6197:6265  Review(msg.sender,shopAddr,userMessage,likeCount,disLikeCount,grade) */\n      0xffffffffffffffffffffffffffffffffffffffff\n      and\n      dup2\n      mstore\n      0x20\n      add\n        /* \"contracts/Shops.sol\":6224:6235  userMessage */\n      dup8\n        /* \"contracts/Shops.sol\":6197:6265  Review(msg.sender,shopAddr,userMessage,likeCount,disLikeCount,grade) */\n      dup2\n      mstore\n      0x20\n      add\n        /* \"contracts/Shops.sol\":6236:6245  likeCount */\n      dup5\n        /* \"contracts/Shops.sol\":6197:6265  Review(msg.sender,shopAddr,userMessage,likeCount,disLikeCount,grade) */\n      dup2\n      mstore\n      0x20\n      add\n        /* \"contracts/Shops.sol\":6246:6258  disLikeCount */\n      dup4\n        /* \"contracts/Shops.sol\":6197:6265  Review(msg.sender,shopAddr,userMessage,likeCount,disLikeCount,grade) */\n      dup2\n      mstore\n      0x20\n      add\n        /* \"contracts/Shops.sol\":6259:6264  grade */\n      dup6\n        /* \"contracts/Shops.sol\":6197:6265  Review(msg.sender,shopAddr,userMessage,likeCount,disLikeCount,grade) */\n      dup2\n      mstore\n      pop\n        /* \"contracts/Shops.sol\":6170:6265  Review memory userReview = Review(msg.sender,shopAddr,userMessage,likeCount,disLikeCount,grade) */\n      swap1\n      pop\n        /* \"contracts/Shops.sol\":6275:6286  shopReviews */\n      0x0d\n        /* \"contracts/Shops.sol\":6275:6296  shopReviews[shopAddr] */\n      0x00\n        /* \"contracts/Shops.sol\":6287:6295  shopAddr */\n      dup9\n        /* \"contracts/Shops.sol\":6275:6296  shopReviews[shopAddr] */\n      0xffffffffffffffffffffffffffffffffffffffff\n      and\n      0xffffffffffffffffffffffffffffffffffffffff\n      and\n      dup2\n      mstore\n      0x20\n      add\n      swap1\n      dup2\n      mstore\n      0x20\n      add\n      0x00\n      keccak256\n        /* \"contracts/Shops.sol\":6302:6304  id */\n      dup6\n        /* \"contracts/Shops.sol\":6275:6305  shopReviews[shopAddr].push(id) */\n      swap1\n      dup1\n      0x01\n      dup2\n      sload\n      add\n      dup1\n      dup3\n      sstore\n      dup1\n      swap2\n      pop\n      pop\n      0x01\n      swap1\n      sub\n      swap1\n      0x00\n      mstore\n      keccak256(0x00, 0x20)\n      add\n      0x00\n      swap1\n      swap2\n      swap1\n      swap2\n      swap1\n      swap2\n      pop\n      swap1\n      dup1\n      mload\n      swap1\n      0x20\n      add\n      swap1\n      tag_188\n      swap3\n      swap2\n      swap1\n      tag_189\n      jump\t// in\n    tag_188:\n      pop\n        /* \"contracts/Shops.sol\":6315:6320  users */\n      0x02\n        /* \"contracts/Shops.sol\":6315:6332  users[msg.sender] */\n      0x00\n        /* \"contracts/Shops.sol\":6321:6331  msg.sender */\n      caller\n        /* \"contracts/Shops.sol\":6315:6332  users[msg.sender] */\n      0xffffffffffffffffffffffffffffffffffffffff\n      and\n      0xffffffffffffffffffffffffffffffffffffffff\n      and\n      dup2\n      mstore\n      0x20\n      add\n      swap1\n      dup2\n      mstore\n      0x20\n      add\n      0x00\n      keccak256\n        /* \"contracts/Shops.sol\":6315:6340  users[msg.sender].reviews */\n      0x03\n      add\n        /* \"contracts/Shops.sol\":6346:6348  id */\n      dup6\n        /* \"contracts/Shops.sol\":6315:6349  users[msg.sender].reviews.push(id) */\n      swap1\n      dup1\n      0x01\n      dup2\n      sload\n      add\n      dup1\n      dup3\n      sstore\n      dup1\n      swap2\n      pop\n      pop\n      0x01\n      swap1\n      sub\n      swap1\n      0x00\n      mstore\n      keccak256(0x00, 0x20)\n      add\n      0x00\n      swap1\n      swap2\n      swap1\n      swap2\n      swap1\n      swap2\n      pop\n      swap1\n      dup1\n      mload\n      swap1\n      0x20\n      add\n      swap1\n      tag_191\n      swap3\n      swap2\n      swap1\n      tag_189\n      jump\t// in\n    tag_191:\n      pop\n        /* \"contracts/Shops.sol\":6374:6384  userReview */\n      dup1\n        /* \"contracts/Shops.sol\":6359:6367  reviewId */\n      0x0e\n        /* \"contracts/Shops.sol\":6368:6370  id */\n      dup7\n        /* \"contracts/Shops.sol\":6359:6371  reviewId[id] */\n      mload(0x40)\n      tag_192\n      swap2\n      swap1\n      tag_163\n      jump\t// in\n    tag_192:\n      swap1\n      dup2\n      mstore\n      0x20\n      add\n      mload(0x40)\n      dup1\n      swap2\n      sub\n      swap1\n      keccak256\n        /* \"contracts/Shops.sol\":6359:6384  reviewId[id] = userReview */\n      0x00\n      dup3\n      add\n      mload\n      dup2\n      0x00\n      add\n      exp(0x0100, 0x00)\n      dup2\n      sload\n      dup2\n      0xffffffffffffffffffffffffffffffffffffffff\n      mul\n      not\n      and\n      swap1\n      dup4\n      0xffffffffffffffffffffffffffffffffffffffff\n      and\n      mul\n      or\n      swap1\n      sstore\n      pop\n      0x20\n      dup3\n      add\n      mload\n      dup2\n      0x01\n      add\n      exp(0x0100, 0x00)\n      dup2\n      sload\n      dup2\n      0xffffffffffffffffffffffffffffffffffffffff\n      mul\n      not\n      and\n      swap1\n      dup4\n      0xffffffffffffffffffffffffffffffffffffffff\n      and\n      mul\n      or\n      swap1\n      sstore\n      pop\n      0x40\n      dup3\n      add\n      mload\n      dup2\n      0x02\n      add\n      swap1\n      dup1\n      mload\n      swap1\n      0x20\n      add\n      swap1\n      tag_193\n      swap3\n      swap2\n      swap1\n      tag_189\n      jump\t// in\n    tag_193:\n      pop\n      0x60\n      dup3\n      add\n      mload\n      dup2\n      0x03\n      add\n      swap1\n      dup1\n      mload\n      swap1\n      0x20\n      add\n      swap1\n      tag_194\n      swap3\n      swap2\n      swap1\n      tag_195\n      jump\t// in\n    tag_194:\n      pop\n      0x80\n      dup3\n      add\n      mload\n      dup2\n      0x04\n      add\n      swap1\n      dup1\n      mload\n      swap1\n      0x20\n      add\n      swap1\n      tag_196\n      swap3\n      swap2\n      swap1\n      tag_195\n      jump\t// in\n    tag_196:\n      pop\n      0xa0\n      dup3\n      add\n      mload\n      dup2\n      0x05\n      add\n      sstore\n      swap1\n      pop\n      pop\n        /* \"contracts/Shops.sol\":6085:6391  {... */\n      pop\n      pop\n      pop\n        /* \"contracts/Shops.sol\":5937:6391  function createReview(... */\n      pop\n      pop\n      pop\n      pop\n      jump\t// out\n        /* \"contracts/Shops.sol\":6881:7367  function getReviewById(string memory id) public view returns(... */\n    tag_50:\n        /* \"contracts/Shops.sol\":6951:6968  address autorAddr */\n      0x00\n        /* \"contracts/Shops.sol\":6978:6994  address shopAddr */\n      dup1\n        /* \"contracts/Shops.sol\":7004:7031  string memory reviewMessage */\n      0x60\n        /* \"contracts/Shops.sol\":7041:7055  uint likeCount */\n      0x00\n        /* \"contracts/Shops.sol\":7065:7082  uint disLikeCount */\n      dup1\n        /* \"contracts/Shops.sol\":7092:7101  int grade */\n      0x00\n        /* \"contracts/Shops.sol\":7117:7132  Review memory r */\n      dup1\n        /* \"contracts/Shops.sol\":7135:7143  reviewId */\n      0x0e\n        /* \"contracts/Shops.sol\":7144:7146  id */\n      dup9\n        /* \"contracts/Shops.sol\":7135:7147  reviewId[id] */\n      mload(0x40)\n      tag_198\n      swap2\n      swap1\n      tag_163\n      jump\t// in\n    tag_198:\n      swap1\n      dup2\n      mstore\n      0x20\n      add\n      mload(0x40)\n      dup1\n      swap2\n      sub\n      swap1\n      keccak256\n        /* \"contracts/Shops.sol\":7117:7147  Review memory r = reviewId[id] */\n      mload(0x40)\n      dup1\n      0xc0\n      add\n      0x40\n      mstore\n      swap1\n      dup2\n      0x00\n      dup3\n      add\n      0x00\n      swap1\n      sload\n      swap1\n      0x0100\n      exp\n      swap1\n      div\n      0xffffffffffffffffffffffffffffffffffffffff\n      and\n      0xffffffffffffffffffffffffffffffffffffffff\n      and\n      0xffffffffffffffffffffffffffffffffffffffff\n      and\n      dup2\n      mstore\n      0x20\n      add\n      0x01\n      dup3\n      add\n      0x00\n      swap1\n      sload\n      swap1\n      0x0100\n      exp\n      swap1\n      div\n      0xffffffffffffffffffffffffffffffffffffffff\n      and\n      0xffffffffffffffffffffffffffffffffffffffff\n      and\n      0xffffffffffffffffffffffffffffffffffffffff\n      and\n      dup2\n      mstore\n      0x20\n      add\n      0x02\n      dup3\n      add\n      dup1\n      sload\n      tag_199\n      swap1\n      tag_128\n      jump\t// in\n    tag_199:\n      dup1\n      0x1f\n      add\n      0x20\n      dup1\n      swap2\n      div\n      mul\n      0x20\n      add\n      mload(0x40)\n      swap1\n      dup2\n      add\n      0x40\n      mstore\n      dup1\n      swap3\n      swap2\n      swap1\n      dup2\n      dup2\n      mstore\n      0x20\n      add\n      dup3\n      dup1\n      sload\n      tag_200\n      swap1\n      tag_128\n      jump\t// in\n    tag_200:\n      dup1\n      iszero\n      tag_201\n      jumpi\n      dup1\n      0x1f\n      lt\n      tag_202\n      jumpi\n      0x0100\n      dup1\n      dup4\n      sload\n      div\n      mul\n      dup4\n      mstore\n      swap2\n      0x20\n      add\n      swap2\n      jump(tag_201)\n    tag_202:\n      dup3\n      add\n      swap2\n      swap1\n      0x00\n      mstore\n      keccak256(0x00, 0x20)\n      swap1\n    tag_203:\n      dup2\n      sload\n      dup2\n      mstore\n      swap1\n      0x01\n      add\n      swap1\n      0x20\n      add\n      dup1\n      dup4\n      gt\n      tag_203\n      jumpi\n      dup3\n      swap1\n      sub\n      0x1f\n      and\n      dup3\n      add\n      swap2\n    tag_201:\n      pop\n      pop\n      pop\n      pop\n      pop\n      dup2\n      mstore\n      0x20\n      add\n      0x03\n      dup3\n      add\n      dup1\n      sload\n      dup1\n      0x20\n      mul\n      0x20\n      add\n      mload(0x40)\n      swap1\n      dup2\n      add\n      0x40\n      mstore\n      dup1\n      swap3\n      swap2\n      swap1\n      dup2\n      dup2\n      mstore\n      0x20\n      add\n      dup3\n      dup1\n      sload\n      dup1\n      iszero\n      tag_204\n      jumpi\n      0x20\n      mul\n      dup3\n      add\n      swap2\n      swap1\n      0x00\n      mstore\n      keccak256(0x00, 0x20)\n      swap1\n    tag_205:\n      dup2\n      0x00\n      swap1\n      sload\n      swap1\n      0x0100\n      exp\n      swap1\n      div\n      0xffffffffffffffffffffffffffffffffffffffff\n      and\n      0xffffffffffffffffffffffffffffffffffffffff\n      and\n      dup2\n      mstore\n      0x20\n      add\n      swap1\n      0x01\n      add\n      swap1\n      dup1\n      dup4\n      gt\n      tag_205\n      jumpi\n    tag_204:\n      pop\n      pop\n      pop\n      pop\n      pop\n      dup2\n      mstore\n      0x20\n      add\n      0x04\n      dup3\n      add\n      dup1\n      sload\n      dup1\n      0x20\n      mul\n      0x20\n      add\n      mload(0x40)\n      swap1\n      dup2\n      add\n      0x40\n      mstore\n      dup1\n      swap3\n      swap2\n      swap1\n      dup2\n      dup2\n      mstore\n      0x20\n      add\n      dup3\n      dup1\n      sload\n      dup1\n      iszero\n      tag_206\n      jumpi\n      0x20\n      mul\n      dup3\n      add\n      swap2\n      swap1\n      0x00\n      mstore\n      keccak256(0x00, 0x20)\n      swap1\n    tag_207:\n      dup2\n      0x00\n      swap1\n      sload\n      swap1\n      0x0100\n      exp\n      swap1\n      div\n      0xffffffffffffffffffffffffffffffffffffffff\n      and\n      0xffffffffffffffffffffffffffffffffffffffff\n      and\n      dup2\n      mstore\n      0x20\n      add\n      swap1\n      0x01\n      add\n      swap1\n      dup1\n      dup4\n      gt\n      tag_207\n      jumpi\n    tag_206:\n      pop\n      pop\n      pop\n      pop\n      pop\n      dup2\n      mstore\n      0x20\n      add\n      0x05\n      dup3\n      add\n      sload\n      dup2\n      mstore\n      pop\n      pop\n      swap1\n      pop\n        /* \"contracts/Shops.sol\":7169:7170  r */\n      dup1\n        /* \"contracts/Shops.sol\":7169:7183  r.autorAddress */\n      0x00\n      add\n      mload\n        /* \"contracts/Shops.sol\":7157:7183  autorAddr = r.autorAddress */\n      swap7\n      pop\n        /* \"contracts/Shops.sol\":7204:7205  r */\n      dup1\n        /* \"contracts/Shops.sol\":7204:7214  r.shopAddr */\n      0x20\n      add\n      mload\n        /* \"contracts/Shops.sol\":7193:7214  shopAddr = r.shopAddr */\n      swap6\n      pop\n        /* \"contracts/Shops.sol\":7240:7241  r */\n      dup1\n        /* \"contracts/Shops.sol\":7240:7249  r.message */\n      0x40\n      add\n      mload\n        /* \"contracts/Shops.sol\":7224:7249  reviewMessage = r.message */\n      swap5\n      pop\n        /* \"contracts/Shops.sol\":7271:7272  r */\n      dup1\n        /* \"contracts/Shops.sol\":7271:7282  r.likeCount */\n      0x60\n      add\n      mload\n        /* \"contracts/Shops.sol\":7271:7289  r.likeCount.length */\n      mload\n        /* \"contracts/Shops.sol\":7259:7289  likeCount = r.likeCount.length */\n      swap4\n      pop\n        /* \"contracts/Shops.sol\":7314:7315  r */\n      dup1\n        /* \"contracts/Shops.sol\":7314:7328  r.disLikeCount */\n      0x80\n      add\n      mload\n        /* \"contracts/Shops.sol\":7314:7335  r.disLikeCount.length */\n      mload\n        /* \"contracts/Shops.sol\":7299:7335  disLikeCount = r.disLikeCount.length */\n      swap3\n      pop\n        /* \"contracts/Shops.sol\":7353:7354  r */\n      dup1\n        /* \"contracts/Shops.sol\":7353:7360  r.grade */\n      0xa0\n      add\n      mload\n        /* \"contracts/Shops.sol\":7345:7360  grade = r.grade */\n      swap2\n      pop\n        /* \"contracts/Shops.sol\":7107:7367  {... */\n      pop\n        /* \"contracts/Shops.sol\":6881:7367  function getReviewById(string memory id) public view returns(... */\n      swap2\n      swap4\n      swap6\n      pop\n      swap2\n      swap4\n      swap6\n      jump\t// out\n        /* \"contracts/AuthService.sol\":2255:2555  function login(string memory userLogin) public view isRegistered(userLogin) returns(address userAddress,string memory status){... */\n    tag_55:\n        /* \"contracts/AuthService.sol\":2339:2358  address userAddress */\n      0x00\n        /* \"contracts/AuthService.sol\":2359:2379  string memory status */\n      0x60\n        /* \"contracts/AuthService.sol\":2320:2329  userLogin */\n      dup3\n        /* \"contracts/AuthService.sol\":1387:1388  0 */\n      0x00\n        /* \"contracts/AuthService.sol\":1354:1389  userLogins[userLogin] != address(0) */\n      0xffffffffffffffffffffffffffffffffffffffff\n      and\n        /* \"contracts/AuthService.sol\":1354:1364  userLogins */\n      0x01\n        /* \"contracts/AuthService.sol\":1365:1374  userLogin */\n      dup3\n        /* \"contracts/AuthService.sol\":1354:1375  userLogins[userLogin] */\n      mload(0x40)\n      tag_209\n      swap2\n      swap1\n      tag_163\n      jump\t// in\n    tag_209:\n      swap1\n      dup2\n      mstore\n      0x20\n      add\n      mload(0x40)\n      dup1\n      swap2\n      sub\n      swap1\n      keccak256\n      0x00\n      swap1\n      sload\n      swap1\n      0x0100\n      exp\n      swap1\n      div\n      0xffffffffffffffffffffffffffffffffffffffff\n      and\n        /* \"contracts/AuthService.sol\":1354:1389  userLogins[userLogin] != address(0) */\n      0xffffffffffffffffffffffffffffffffffffffff\n      and\n      eq\n      iszero\n        /* \"contracts/AuthService.sol\":1346:1404  require(userLogins[userLogin] != address(0),\"Wrong Login\") */\n      tag_210\n      jumpi\n      mload(0x40)\n      0x08c379a000000000000000000000000000000000000000000000000000000000\n      dup2\n      mstore\n      0x04\n      add\n      tag_211\n      swap1\n      tag_212\n      jump\t// in\n    tag_211:\n      mload(0x40)\n      dup1\n      swap2\n      sub\n      swap1\n      revert\n    tag_210:\n        /* \"contracts/AuthService.sol\":2390:2406  address userAddr */\n      0x00\n        /* \"contracts/AuthService.sol\":2409:2419  userLogins */\n      0x01\n        /* \"contracts/AuthService.sol\":2420:2429  userLogin */\n      dup6\n        /* \"contracts/AuthService.sol\":2409:2430  userLogins[userLogin] */\n      mload(0x40)\n      tag_214\n      swap2\n      swap1\n      tag_163\n      jump\t// in\n    tag_214:\n      swap1\n      dup2\n      mstore\n      0x20\n      add\n      mload(0x40)\n      dup1\n      swap2\n      sub\n      swap1\n      keccak256\n      0x00\n      swap1\n      sload\n      swap1\n      0x0100\n      exp\n      swap1\n      div\n      0xffffffffffffffffffffffffffffffffffffffff\n      and\n        /* \"contracts/AuthService.sol\":2390:2430  address userAddr = userLogins[userLogin] */\n      swap1\n      pop\n        /* \"contracts/AuthService.sol\":2440:2456  User memory user */\n      0x00\n        /* \"contracts/AuthService.sol\":2459:2464  users */\n      0x02\n        /* \"contracts/AuthService.sol\":2459:2474  users[userAddr] */\n      0x00\n        /* \"contracts/AuthService.sol\":2465:2473  userAddr */\n      dup4\n        /* \"contracts/AuthService.sol\":2459:2474  users[userAddr] */\n      0xffffffffffffffffffffffffffffffffffffffff\n      and\n      0xffffffffffffffffffffffffffffffffffffffff\n      and\n      dup2\n      mstore\n      0x20\n      add\n      swap1\n      dup2\n      mstore\n      0x20\n      add\n      0x00\n      keccak256\n        /* \"contracts/AuthService.sol\":2440:2474  User memory user = users[userAddr] */\n      mload(0x40)\n      dup1\n      0x80\n      add\n      0x40\n      mstore\n      swap1\n      dup2\n      0x00\n      dup3\n      add\n      sload\n      dup2\n      mstore\n      0x20\n      add\n      0x01\n      dup3\n      add\n      dup1\n      sload\n      tag_215\n      swap1\n      tag_128\n      jump\t// in\n    tag_215:\n      dup1\n      0x1f\n      add\n      0x20\n      dup1\n      swap2\n      div\n      mul\n      0x20\n      add\n      mload(0x40)\n      swap1\n      dup2\n      add\n      0x40\n      mstore\n      dup1\n      swap3\n      swap2\n      swap1\n      dup2\n      dup2\n      mstore\n      0x20\n      add\n      dup3\n      dup1\n      sload\n      tag_216\n      swap1\n      tag_128\n      jump\t// in\n    tag_216:\n      dup1\n      iszero\n      tag_217\n      jumpi\n      dup1\n      0x1f\n      lt\n      tag_218\n      jumpi\n      0x0100\n      dup1\n      dup4\n      sload\n      div\n      mul\n      dup4\n      mstore\n      swap2\n      0x20\n      add\n      swap2\n      jump(tag_217)\n    tag_218:\n      dup3\n      add\n      swap2\n      swap1\n      0x00\n      mstore\n      keccak256(0x00, 0x20)\n      swap1\n    tag_219:\n      dup2\n      sload\n      dup2\n      mstore\n      swap1\n      0x01\n      add\n      swap1\n      0x20\n      add\n      dup1\n      dup4\n      gt\n      tag_219\n      jumpi\n      dup3\n      swap1\n      sub\n      0x1f\n      and\n      dup3\n      add\n      swap2\n    tag_217:\n      pop\n      pop\n      pop\n      pop\n      pop\n      dup2\n      mstore\n      0x20\n      add\n      0x02\n      dup3\n      add\n      dup1\n      sload\n      tag_220\n      swap1\n      tag_128\n      jump\t// in\n    tag_220:\n      dup1\n      0x1f\n      add\n      0x20\n      dup1\n      swap2\n      div\n      mul\n      0x20\n      add\n      mload(0x40)\n      swap1\n      dup2\n      add\n      0x40\n      mstore\n      dup1\n      swap3\n      swap2\n      swap1\n      dup2\n      dup2\n      mstore\n      0x20\n      add\n      dup3\n      dup1\n      sload\n      tag_221\n      swap1\n      tag_128\n      jump\t// in\n    tag_221:\n      dup1\n      iszero\n      tag_222\n      jumpi\n      dup1\n      0x1f\n      lt\n      tag_223\n      jumpi\n      0x0100\n      dup1\n      dup4\n      sload\n      div\n      mul\n      dup4\n      mstore\n      swap2\n      0x20\n      add\n      swap2\n      jump(tag_222)\n    tag_223:\n      dup3\n      add\n      swap2\n      swap1\n      0x00\n      mstore\n      keccak256(0x00, 0x20)\n      swap1\n    tag_224:\n      dup2\n      sload\n      dup2\n      mstore\n      swap1\n      0x01\n      add\n      swap1\n      0x20\n      add\n      dup1\n      dup4\n      gt\n      tag_224\n      jumpi\n      dup3\n      swap1\n      sub\n      0x1f\n      and\n      dup3\n      add\n      swap2\n    tag_222:\n      pop\n      pop\n      pop\n      pop\n      pop\n      dup2\n      mstore\n      0x20\n      add\n      0x03\n      dup3\n      add\n      dup1\n      sload\n      dup1\n      0x20\n      mul\n      0x20\n      add\n      mload(0x40)\n      swap1\n      dup2\n      add\n      0x40\n      mstore\n      dup1\n      swap3\n      swap2\n      swap1\n      dup2\n      dup2\n      mstore\n      0x20\n      add\n      0x00\n      swap1\n    tag_225:\n      dup3\n      dup3\n      lt\n      iszero\n      tag_226\n      jumpi\n      dup4\n      dup3\n      swap1\n      0x00\n      mstore\n      keccak256(0x00, 0x20)\n      add\n      dup1\n      sload\n      tag_228\n      swap1\n      tag_128\n      jump\t// in\n    tag_228:\n      dup1\n      0x1f\n      add\n      0x20\n      dup1\n      swap2\n      div\n      mul\n      0x20\n      add\n      mload(0x40)\n      swap1\n      dup2\n      add\n      0x40\n      mstore\n      dup1\n      swap3\n      swap2\n      swap1\n      dup2\n      dup2\n      mstore\n      0x20\n      add\n      dup3\n      dup1\n      sload\n      tag_229\n      swap1\n      tag_128\n      jump\t// in\n    tag_229:\n      dup1\n      iszero\n      tag_230\n      jumpi\n      dup1\n      0x1f\n      lt\n      tag_231\n      jumpi\n      0x0100\n      dup1\n      dup4\n      sload\n      div\n      mul\n      dup4\n      mstore\n      swap2\n      0x20\n      add\n      swap2\n      jump(tag_230)\n    tag_231:\n      dup3\n      add\n      swap2\n      swap1\n      0x00\n      mstore\n      keccak256(0x00, 0x20)\n      swap1\n    tag_232:\n      dup2\n      sload\n      dup2\n      mstore\n      swap1\n      0x01\n      add\n      swap1\n      0x20\n      add\n      dup1\n      dup4\n      gt\n      tag_232\n      jumpi\n      dup3\n      swap1\n      sub\n      0x1f\n      and\n      dup3\n      add\n      swap2\n    tag_230:\n      pop\n      pop\n      pop\n      pop\n      pop\n      dup2\n      mstore\n      0x20\n      add\n      swap1\n      0x01\n      add\n      swap1\n      jump(tag_225)\n    tag_226:\n      pop\n      pop\n      pop\n      pop\n      dup2\n      mstore\n      pop\n      pop\n      swap1\n      pop\n        /* \"contracts/AuthService.sol\":2498:2506  userAddr */\n      dup2\n        /* \"contracts/AuthService.sol\":2484:2506  userAddress = userAddr */\n      swap5\n      pop\n        /* \"contracts/AuthService.sol\":2525:2535  userStatus */\n      0x00\n        /* \"contracts/AuthService.sol\":2525:2548  userStatus[user.status] */\n      dup1\n        /* \"contracts/AuthService.sol\":2536:2540  user */\n      dup3\n        /* \"contracts/AuthService.sol\":2536:2547  user.status */\n      0x00\n      add\n      mload\n        /* \"contracts/AuthService.sol\":2525:2548  userStatus[user.status] */\n      dup2\n      mstore\n      0x20\n      add\n      swap1\n      dup2\n      mstore\n      0x20\n      add\n      0x00\n      keccak256\n        /* \"contracts/AuthService.sol\":2516:2548  status = userStatus[user.status] */\n      dup1\n      sload\n      tag_233\n      swap1\n      tag_128\n      jump\t// in\n    tag_233:\n      dup1\n      0x1f\n      add\n      0x20\n      dup1\n      swap2\n      div\n      mul\n      0x20\n      add\n      mload(0x40)\n      swap1\n      dup2\n      add\n      0x40\n      mstore\n      dup1\n      swap3\n      swap2\n      swap1\n      dup2\n      dup2\n      mstore\n      0x20\n      add\n      dup3\n      dup1\n      sload\n      tag_234\n      swap1\n      tag_128\n      jump\t// in\n    tag_234:\n      dup1\n      iszero\n      tag_235\n      jumpi\n      dup1\n      0x1f\n      lt\n      tag_236\n      jumpi\n      0x0100\n      dup1\n      dup4\n      sload\n      div\n      mul\n      dup4\n      mstore\n      swap2\n      0x20\n      add\n      swap2\n      jump(tag_235)\n    tag_236:\n      dup3\n      add\n      swap2\n      swap1\n      0x00\n      mstore\n      keccak256(0x00, 0x20)\n      swap1\n    tag_237:\n      dup2\n      sload\n      dup2\n      mstore\n      swap1\n      0x01\n      add\n      swap1\n      0x20\n      add\n      dup1\n      dup4\n      gt\n      tag_237\n      jumpi\n      dup3\n      swap1\n      sub\n      0x1f\n      and\n      dup3\n      add\n      swap2\n    tag_235:\n      pop\n      pop\n      pop\n      pop\n      pop\n      swap4\n      pop\n        /* \"contracts/AuthService.sol\":2380:2555  {... */\n      pop\n      pop\n        /* \"contracts/AuthService.sol\":2255:2555  function login(string memory userLogin) public view isRegistered(userLogin) returns(address userAddress,string memory status){... */\n      pop\n      swap2\n      pop\n      swap2\n      jump\t// out\n        /* \"contracts/Shops.sol\":1858:2084  function registerShop(address shopAddr,string memory number,string memory city) public isUserStatus(UserRoles.admin){... */\n    tag_61:\n        /* \"contracts/Shops.sol\":1958:1973  UserRoles.admin */\n      0x03\n        /* \"contracts/AuthService.sol\":1616:1621  users */\n      0x02\n        /* \"contracts/AuthService.sol\":1616:1633  users[msg.sender] */\n      0x00\n        /* \"contracts/AuthService.sol\":1622:1632  msg.sender */\n      caller\n        /* \"contracts/AuthService.sol\":1616:1633  users[msg.sender] */\n      0xffffffffffffffffffffffffffffffffffffffff\n      and\n      0xffffffffffffffffffffffffffffffffffffffff\n      and\n      dup2\n      mstore\n      0x20\n      add\n      swap1\n      dup2\n      mstore\n      0x20\n      add\n      0x00\n      keccak256\n        /* \"contracts/AuthService.sol\":1616:1640  users[msg.sender].status */\n      0x00\n      add\n      sload\n        /* \"contracts/AuthService.sol\":1605:1611  status */\n      dup2\n        /* \"contracts/AuthService.sol\":1600:1612  uint(status) */\n      0x05\n      dup2\n      gt\n      iszero\n      tag_239\n      jumpi\n      tag_240\n      tag_122\n      jump\t// in\n    tag_240:\n    tag_239:\n        /* \"contracts/AuthService.sol\":1600:1640  uint(status) == users[msg.sender].status */\n      eq\n        /* \"contracts/AuthService.sol\":1592:1653  require(uint(status) == users[msg.sender].status,\"Forbidden\") */\n      tag_241\n      jumpi\n      mload(0x40)\n      0x08c379a000000000000000000000000000000000000000000000000000000000\n      dup2\n      mstore\n      0x04\n      add\n      tag_242\n      swap1\n      tag_125\n      jump\t// in\n    tag_242:\n      mload(0x40)\n      dup1\n      swap2\n      sub\n      swap1\n      revert\n    tag_241:\n        /* \"contracts/Shops.sol\":1984:2000  Shop memory shop */\n      0x00\n        /* \"contracts/Shops.sol\":2003:2041  Shop({number:number,city:city,debt:0}) */\n      mload(0x40)\n      dup1\n      0x60\n      add\n      0x40\n      mstore\n      dup1\n        /* \"contracts/Shops.sol\":2016:2022  number */\n      dup6\n        /* \"contracts/Shops.sol\":2003:2041  Shop({number:number,city:city,debt:0}) */\n      dup2\n      mstore\n      0x20\n      add\n        /* \"contracts/Shops.sol\":2028:2032  city */\n      dup5\n        /* \"contracts/Shops.sol\":2003:2041  Shop({number:number,city:city,debt:0}) */\n      dup2\n      mstore\n      0x20\n      add\n        /* \"contracts/Shops.sol\":2038:2039  0 */\n      0x00\n        /* \"contracts/Shops.sol\":2003:2041  Shop({number:number,city:city,debt:0}) */\n      dup2\n      mstore\n      pop\n        /* \"contracts/Shops.sol\":1984:2041  Shop memory shop = Shop({number:number,city:city,debt:0}) */\n      swap1\n      pop\n        /* \"contracts/Shops.sol\":2073:2077  shop */\n      dup1\n        /* \"contracts/Shops.sol\":2051:2060  ShopsList */\n      0x0a\n        /* \"contracts/Shops.sol\":2051:2070  ShopsList[shopAddr] */\n      0x00\n        /* \"contracts/Shops.sol\":2061:2069  shopAddr */\n      dup8\n        /* \"contracts/Shops.sol\":2051:2070  ShopsList[shopAddr] */\n      0xffffffffffffffffffffffffffffffffffffffff\n      and\n      0xffffffffffffffffffffffffffffffffffffffff\n      and\n      dup2\n      mstore\n      0x20\n      add\n      swap1\n      dup2\n      mstore\n      0x20\n      add\n      0x00\n      keccak256\n        /* \"contracts/Shops.sol\":2051:2077  ShopsList[shopAddr] = shop */\n      0x00\n      dup3\n      add\n      mload\n      dup2\n      0x00\n      add\n      swap1\n      dup1\n      mload\n      swap1\n      0x20\n      add\n      swap1\n      tag_244\n      swap3\n      swap2\n      swap1\n      tag_189\n      jump\t// in\n    tag_244:\n      pop\n      0x20\n      dup3\n      add\n      mload\n      dup2\n      0x01\n      add\n      swap1\n      dup1\n      mload\n      swap1\n      0x20\n      add\n      swap1\n      tag_245\n      swap3\n      swap2\n      swap1\n      tag_189\n      jump\t// in\n    tag_245:\n      pop\n      0x40\n      dup3\n      add\n      mload\n      dup2\n      0x02\n      add\n      sstore\n      swap1\n      pop\n      pop\n        /* \"contracts/Shops.sol\":1974:2084  {... */\n      pop\n        /* \"contracts/Shops.sol\":1858:2084  function registerShop(address shopAddr,string memory number,string memory city) public isUserStatus(UserRoles.admin){... */\n      pop\n      pop\n      pop\n      pop\n      jump\t// out\n        /* \"contracts/Shops.sol\":3699:4290  function getSellerInfo() public view isUserStatus(UserRoles.seller) returns(... */\n    tag_63:\n        /* \"contracts/Shops.sol\":3784:3809  string memory sellerLogin */\n      0x60\n        /* \"contracts/Shops.sol\":3819:3836  string memory fio */\n      dup1\n        /* \"contracts/Shops.sol\":3846:3864  string memory city */\n      0x60\n        /* \"contracts/Shops.sol\":3874:3898  string memory shopNumber */\n      dup1\n        /* \"contracts/Shops.sol\":3908:3931  string[] memory reviews */\n      0x60\n        /* \"contracts/Shops.sol\":3749:3765  UserRoles.seller */\n      0x01\n        /* \"contracts/AuthService.sol\":1616:1621  users */\n      0x02\n        /* \"contracts/AuthService.sol\":1616:1633  users[msg.sender] */\n      0x00\n        /* \"contracts/AuthService.sol\":1622:1632  msg.sender */\n      caller\n        /* \"contracts/AuthService.sol\":1616:1633  users[msg.sender] */\n      0xffffffffffffffffffffffffffffffffffffffff\n      and\n      0xffffffffffffffffffffffffffffffffffffffff\n      and\n      dup2\n      mstore\n      0x20\n      add\n      swap1\n      dup2\n      mstore\n      0x20\n      add\n      0x00\n      keccak256\n        /* \"contracts/AuthService.sol\":1616:1640  users[msg.sender].status */\n      0x00\n      add\n      sload\n        /* \"contracts/AuthService.sol\":1605:1611  status */\n      dup2\n        /* \"contracts/AuthService.sol\":1600:1612  uint(status) */\n      0x05\n      dup2\n      gt\n      iszero\n      tag_247\n      jumpi\n      tag_248\n      tag_122\n      jump\t// in\n    tag_248:\n    tag_247:\n        /* \"contracts/AuthService.sol\":1600:1640  uint(status) == users[msg.sender].status */\n      eq\n        /* \"contracts/AuthService.sol\":1592:1653  require(uint(status) == users[msg.sender].status,\"Forbidden\") */\n      tag_249\n      jumpi\n      mload(0x40)\n      0x08c379a000000000000000000000000000000000000000000000000000000000\n      dup2\n      mstore\n      0x04\n      add\n      tag_250\n      swap1\n      tag_125\n      jump\t// in\n    tag_250:\n      mload(0x40)\n      dup1\n      swap2\n      sub\n      swap1\n      revert\n    tag_249:\n        /* \"contracts/Shops.sol\":3947:3967  User memory sellUser */\n      0x00\n        /* \"contracts/Shops.sol\":3970:3975  users */\n      0x02\n        /* \"contracts/Shops.sol\":3970:3987  users[msg.sender] */\n      0x00\n        /* \"contracts/Shops.sol\":3976:3986  msg.sender */\n      caller\n        /* \"contracts/Shops.sol\":3970:3987  users[msg.sender] */\n      0xffffffffffffffffffffffffffffffffffffffff\n      and\n      0xffffffffffffffffffffffffffffffffffffffff\n      and\n      dup2\n      mstore\n      0x20\n      add\n      swap1\n      dup2\n      mstore\n      0x20\n      add\n      0x00\n      keccak256\n        /* \"contracts/Shops.sol\":3947:3987  User memory sellUser = users[msg.sender] */\n      mload(0x40)\n      dup1\n      0x80\n      add\n      0x40\n      mstore\n      swap1\n      dup2\n      0x00\n      dup3\n      add\n      sload\n      dup2\n      mstore\n      0x20\n      add\n      0x01\n      dup3\n      add\n      dup1\n      sload\n      tag_252\n      swap1\n      tag_128\n      jump\t// in\n    tag_252:\n      dup1\n      0x1f\n      add\n      0x20\n      dup1\n      swap2\n      div\n      mul\n      0x20\n      add\n      mload(0x40)\n      swap1\n      dup2\n      add\n      0x40\n      mstore\n      dup1\n      swap3\n      swap2\n      swap1\n      dup2\n      dup2\n      mstore\n      0x20\n      add\n      dup3\n      dup1\n      sload\n      tag_253\n      swap1\n      tag_128\n      jump\t// in\n    tag_253:\n      dup1\n      iszero\n      tag_254\n      jumpi\n      dup1\n      0x1f\n      lt\n      tag_255\n      jumpi\n      0x0100\n      dup1\n      dup4\n      sload\n      div\n      mul\n      dup4\n      mstore\n      swap2\n      0x20\n      add\n      swap2\n      jump(tag_254)\n    tag_255:\n      dup3\n      add\n      swap2\n      swap1\n      0x00\n      mstore\n      keccak256(0x00, 0x20)\n      swap1\n    tag_256:\n      dup2\n      sload\n      dup2\n      mstore\n      swap1\n      0x01\n      add\n      swap1\n      0x20\n      add\n      dup1\n      dup4\n      gt\n      tag_256\n      jumpi\n      dup3\n      swap1\n      sub\n      0x1f\n      and\n      dup3\n      add\n      swap2\n    tag_254:\n      pop\n      pop\n      pop\n      pop\n      pop\n      dup2\n      mstore\n      0x20\n      add\n      0x02\n      dup3\n      add\n      dup1\n      sload\n      tag_257\n      swap1\n      tag_128\n      jump\t// in\n    tag_257:\n      dup1\n      0x1f\n      add\n      0x20\n      dup1\n      swap2\n      div\n      mul\n      0x20\n      add\n      mload(0x40)\n      swap1\n      dup2\n      add\n      0x40\n      mstore\n      dup1\n      swap3\n      swap2\n      swap1\n      dup2\n      dup2\n      mstore\n      0x20\n      add\n      dup3\n      dup1\n      sload\n      tag_258\n      swap1\n      tag_128\n      jump\t// in\n    tag_258:\n      dup1\n      iszero\n      tag_259\n      jumpi\n      dup1\n      0x1f\n      lt\n      tag_260\n      jumpi\n      0x0100\n      dup1\n      dup4\n      sload\n      div\n      mul\n      dup4\n      mstore\n      swap2\n      0x20\n      add\n      swap2\n      jump(tag_259)\n    tag_260:\n      dup3\n      add\n      swap2\n      swap1\n      0x00\n      mstore\n      keccak256(0x00, 0x20)\n      swap1\n    tag_261:\n      dup2\n      sload\n      dup2\n      mstore\n      swap1\n      0x01\n      add\n      swap1\n      0x20\n      add\n      dup1\n      dup4\n      gt\n      tag_261\n      jumpi\n      dup3\n      swap1\n      sub\n      0x1f\n      and\n      dup3\n      add\n      swap2\n    tag_259:\n      pop\n      pop\n      pop\n      pop\n      pop\n      dup2\n      mstore\n      0x20\n      add\n      0x03\n      dup3\n      add\n      dup1\n      sload\n      dup1\n      0x20\n      mul\n      0x20\n      add\n      mload(0x40)\n      swap1\n      dup2\n      add\n      0x40\n      mstore\n      dup1\n      swap3\n      swap2\n      swap1\n      dup2\n      dup2\n      mstore\n      0x20\n      add\n      0x00\n      swap1\n    tag_262:\n      dup3\n      dup3\n      lt\n      iszero\n      tag_263\n      jumpi\n      dup4\n      dup3\n      swap1\n      0x00\n      mstore\n      keccak256(0x00, 0x20)\n      add\n      dup1\n      sload\n      tag_265\n      swap1\n      tag_128\n      jump\t// in\n    tag_265:\n      dup1\n      0x1f\n      add\n      0x20\n      dup1\n      swap2\n      div\n      mul\n      0x20\n      add\n      mload(0x40)\n      swap1\n      dup2\n      add\n      0x40\n      mstore\n      dup1\n      swap3\n      swap2\n      swap1\n      dup2\n      dup2\n      mstore\n      0x20\n      add\n      dup3\n      dup1\n      sload\n      tag_266\n      swap1\n      tag_128\n      jump\t// in\n    tag_266:\n      dup1\n      iszero\n      tag_267\n      jumpi\n      dup1\n      0x1f\n      lt\n      tag_268\n      jumpi\n      0x0100\n      dup1\n      dup4\n      sload\n      div\n      mul\n      dup4\n      mstore\n      swap2\n      0x20\n      add\n      swap2\n      jump(tag_267)\n    tag_268:\n      dup3\n      add\n      swap2\n      swap1\n      0x00\n      mstore\n      keccak256(0x00, 0x20)\n      swap1\n    tag_269:\n      dup2\n      sload\n      dup2\n      mstore\n      swap1\n      0x01\n      add\n      swap1\n      0x20\n      add\n      dup1\n      dup4\n      gt\n      tag_269\n      jumpi\n      dup3\n      swap1\n      sub\n      0x1f\n      and\n      dup3\n      add\n      swap2\n    tag_267:\n      pop\n      pop\n      pop\n      pop\n      pop\n      dup2\n      mstore\n      0x20\n      add\n      swap1\n      0x01\n      add\n      swap1\n      jump(tag_262)\n    tag_263:\n      pop\n      pop\n      pop\n      pop\n      dup2\n      mstore\n      pop\n      pop\n      swap1\n      pop\n        /* \"contracts/Shops.sol\":3997:4017  address sellShopAddr */\n      0x00\n        /* \"contracts/Shops.sol\":4020:4032  salesmanShop */\n      0x0b\n        /* \"contracts/Shops.sol\":4020:4044  salesmanShop[msg.sender] */\n      0x00\n        /* \"contracts/Shops.sol\":4033:4043  msg.sender */\n      caller\n        /* \"contracts/Shops.sol\":4020:4044  salesmanShop[msg.sender] */\n      0xffffffffffffffffffffffffffffffffffffffff\n      and\n      0xffffffffffffffffffffffffffffffffffffffff\n      and\n      dup2\n      mstore\n      0x20\n      add\n      swap1\n      dup2\n      mstore\n      0x20\n      add\n      0x00\n      keccak256\n      0x00\n      swap1\n      sload\n      swap1\n      0x0100\n      exp\n      swap1\n      div\n      0xffffffffffffffffffffffffffffffffffffffff\n      and\n        /* \"contracts/Shops.sol\":3997:4044  address sellShopAddr = salesmanShop[msg.sender] */\n      swap1\n      pop\n        /* \"contracts/Shops.sol\":4054:4074  Shop memory sellShop */\n      0x00\n        /* \"contracts/Shops.sol\":4077:4086  ShopsList */\n      0x0a\n        /* \"contracts/Shops.sol\":4077:4100  ShopsList[sellShopAddr] */\n      0x00\n        /* \"contracts/Shops.sol\":4087:4099  sellShopAddr */\n      dup4\n        /* \"contracts/Shops.sol\":4077:4100  ShopsList[sellShopAddr] */\n      0xffffffffffffffffffffffffffffffffffffffff\n      and\n      0xffffffffffffffffffffffffffffffffffffffff\n      and\n      dup2\n      mstore\n      0x20\n      add\n      swap1\n      dup2\n      mstore\n      0x20\n      add\n      0x00\n      keccak256\n        /* \"contracts/Shops.sol\":4054:4100  Shop memory sellShop = ShopsList[sellShopAddr] */\n      mload(0x40)\n      dup1\n      0x60\n      add\n      0x40\n      mstore\n      swap1\n      dup2\n      0x00\n      dup3\n      add\n      dup1\n      sload\n      tag_270\n      swap1\n      tag_128\n      jump\t// in\n    tag_270:\n      dup1\n      0x1f\n      add\n      0x20\n      dup1\n      swap2\n      div\n      mul\n      0x20\n      add\n      mload(0x40)\n      swap1\n      dup2\n      add\n      0x40\n      mstore\n      dup1\n      swap3\n      swap2\n      swap1\n      dup2\n      dup2\n      mstore\n      0x20\n      add\n      dup3\n      dup1\n      sload\n      tag_271\n      swap1\n      tag_128\n      jump\t// in\n    tag_271:\n      dup1\n      iszero\n      tag_272\n      jumpi\n      dup1\n      0x1f\n      lt\n      tag_273\n      jumpi\n      0x0100\n      dup1\n      dup4\n      sload\n      div\n      mul\n      dup4\n      mstore\n      swap2\n      0x20\n      add\n      swap2\n      jump(tag_272)\n    tag_273:\n      dup3\n      add\n      swap2\n      swap1\n      0x00\n      mstore\n      keccak256(0x00, 0x20)\n      swap1\n    tag_274:\n      dup2\n      sload\n      dup2\n      mstore\n      swap1\n      0x01\n      add\n      swap1\n      0x20\n      add\n      dup1\n      dup4\n      gt\n      tag_274\n      jumpi\n      dup3\n      swap1\n      sub\n      0x1f\n      and\n      dup3\n      add\n      swap2\n    tag_272:\n      pop\n      pop\n      pop\n      pop\n      pop\n      dup2\n      mstore\n      0x20\n      add\n      0x01\n      dup3\n      add\n      dup1\n      sload\n      tag_275\n      swap1\n      tag_128\n      jump\t// in\n    tag_275:\n      dup1\n      0x1f\n      add\n      0x20\n      dup1\n      swap2\n      div\n      mul\n      0x20\n      add\n      mload(0x40)\n      swap1\n      dup2\n      add\n      0x40\n      mstore\n      dup1\n      swap3\n      swap2\n      swap1\n      dup2\n      dup2\n      mstore\n      0x20\n      add\n      dup3\n      dup1\n      sload\n      tag_276\n      swap1\n      tag_128\n      jump\t// in\n    tag_276:\n      dup1\n      iszero\n      tag_277\n      jumpi\n      dup1\n      0x1f\n      lt\n      tag_278\n      jumpi\n      0x0100\n      dup1\n      dup4\n      sload\n      div\n      mul\n      dup4\n      mstore\n      swap2\n      0x20\n      add\n      swap2\n      jump(tag_277)\n    tag_278:\n      dup3\n      add\n      swap2\n      swap1\n      0x00\n      mstore\n      keccak256(0x00, 0x20)\n      swap1\n    tag_279:\n      dup2\n      sload\n      dup2\n      mstore\n      swap1\n      0x01\n      add\n      swap1\n      0x20\n      add\n      dup1\n      dup4\n      gt\n      tag_279\n      jumpi\n      dup3\n      swap1\n      sub\n      0x1f\n      and\n      dup3\n      add\n      swap2\n    tag_277:\n      pop\n      pop\n      pop\n      pop\n      pop\n      dup2\n      mstore\n      0x20\n      add\n      0x02\n      dup3\n      add\n      sload\n      dup2\n      mstore\n      pop\n      pop\n      swap1\n      pop\n        /* \"contracts/Shops.sol\":4133:4141  sellUser */\n      dup3\n        /* \"contracts/Shops.sol\":4133:4151  sellUser.userLogin */\n      0x20\n      add\n      mload\n        /* \"contracts/Shops.sol\":4119:4151  sellerLogin = sellUser.userLogin */\n      swap9\n      pop\n        /* \"contracts/Shops.sol\":4167:4175  sellUser */\n      dup3\n        /* \"contracts/Shops.sol\":4167:4179  sellUser.fio */\n      0x40\n      add\n      mload\n        /* \"contracts/Shops.sol\":4161:4179  fio = sellUser.fio */\n      swap8\n      pop\n        /* \"contracts/Shops.sol\":4196:4204  sellShop */\n      dup1\n        /* \"contracts/Shops.sol\":4196:4209  sellShop.city */\n      0x20\n      add\n      mload\n        /* \"contracts/Shops.sol\":4189:4209  city = sellShop.city */\n      swap7\n      pop\n        /* \"contracts/Shops.sol\":4232:4240  sellShop */\n      dup1\n        /* \"contracts/Shops.sol\":4232:4247  sellShop.number */\n      0x00\n      add\n      mload\n        /* \"contracts/Shops.sol\":4219:4247  shopNumber = sellShop.number */\n      swap6\n      pop\n        /* \"contracts/Shops.sol\":4267:4275  sellUser */\n      dup3\n        /* \"contracts/Shops.sol\":4267:4283  sellUser.reviews */\n      0x60\n      add\n      mload\n        /* \"contracts/Shops.sol\":4257:4283  reviews = sellUser.reviews */\n      swap5\n      pop\n        /* \"contracts/Shops.sol\":3937:4290  {... */\n      pop\n      pop\n      pop\n        /* \"contracts/Shops.sol\":3699:4290  function getSellerInfo() public view isUserStatus(UserRoles.seller) returns(... */\n      pop\n      swap1\n      swap2\n      swap3\n      swap4\n      swap5\n      jump\t// out\n        /* \"contracts/Shops.sol\":6397:6630  function likeReview(string memory id) public isUser {... */\n    tag_67:\n        /* \"contracts/AuthService.sol\":1464:1503  compare(users[msg.sender].userLogin,\"\") */\n      tag_281\n        /* \"contracts/AuthService.sol\":1472:1477  users */\n      0x02\n        /* \"contracts/AuthService.sol\":1472:1489  users[msg.sender] */\n      0x00\n        /* \"contracts/AuthService.sol\":1478:1488  msg.sender */\n      caller\n        /* \"contracts/AuthService.sol\":1472:1489  users[msg.sender] */\n      0xffffffffffffffffffffffffffffffffffffffff\n      and\n      0xffffffffffffffffffffffffffffffffffffffff\n      and\n      dup2\n      mstore\n      0x20\n      add\n      swap1\n      dup2\n      mstore\n      0x20\n      add\n      0x00\n      keccak256\n        /* \"contracts/AuthService.sol\":1472:1499  users[msg.sender].userLogin */\n      0x01\n      add\n        /* \"contracts/AuthService.sol\":1464:1503  compare(users[msg.sender].userLogin,\"\") */\n      dup1\n      sload\n      tag_282\n      swap1\n      tag_128\n      jump\t// in\n    tag_282:\n      dup1\n      0x1f\n      add\n      0x20\n      dup1\n      swap2\n      div\n      mul\n      0x20\n      add\n      mload(0x40)\n      swap1\n      dup2\n      add\n      0x40\n      mstore\n      dup1\n      swap3\n      swap2\n      swap1\n      dup2\n      dup2\n      mstore\n      0x20\n      add\n      dup3\n      dup1\n      sload\n      tag_283\n      swap1\n      tag_128\n      jump\t// in\n    tag_283:\n      dup1\n      iszero\n      tag_284\n      jumpi\n      dup1\n      0x1f\n      lt\n      tag_285\n      jumpi\n      0x0100\n      dup1\n      dup4\n      sload\n      div\n      mul\n      dup4\n      mstore\n      swap2\n      0x20\n      add\n      swap2\n      jump(tag_284)\n    tag_285:\n      dup3\n      add\n      swap2\n      swap1\n      0x00\n      mstore\n      keccak256(0x00, 0x20)\n      swap1\n    tag_286:\n      dup2\n      sload\n      dup2\n      mstore\n      swap1\n      0x01\n      add\n      swap1\n      0x20\n      add\n      dup1\n      dup4\n      gt\n      tag_286\n      jumpi\n      dup3\n      swap1\n      sub\n      0x1f\n      and\n      dup3\n      add\n      swap2\n    tag_284:\n      pop\n      pop\n      pop\n      pop\n      pop\n      mload(0x40)\n      dup1\n      0x20\n      add\n      0x40\n      mstore\n      dup1\n      0x00\n      dup2\n      mstore\n      pop\n        /* \"contracts/AuthService.sol\":1464:1471  compare */\n      tag_182\n        /* \"contracts/AuthService.sol\":1464:1503  compare(users[msg.sender].userLogin,\"\") */\n      jump\t// in\n    tag_281:\n        /* \"contracts/AuthService.sol\":1463:1503  !compare(users[msg.sender].userLogin,\"\") */\n      iszero\n        /* \"contracts/AuthService.sol\":1455:1519  require(!compare(users[msg.sender].userLogin,\"\"),\"You not user\") */\n      tag_287\n      jumpi\n      mload(0x40)\n      0x08c379a000000000000000000000000000000000000000000000000000000000\n      dup2\n      mstore\n      0x04\n      add\n      tag_288\n      swap1\n      tag_185\n      jump\t// in\n    tag_288:\n      mload(0x40)\n      dup1\n      swap2\n      sub\n      swap1\n      revert\n    tag_287:\n        /* \"contracts/Shops.sol\":6496:6501  false */\n      0x00\n        /* \"contracts/Shops.sol\":6467:6501  reviewCom[id][msg.sender] == false */\n      iszero\n      iszero\n        /* \"contracts/Shops.sol\":6467:6476  reviewCom */\n      0x10\n        /* \"contracts/Shops.sol\":6477:6479  id */\n      dup3\n        /* \"contracts/Shops.sol\":6467:6480  reviewCom[id] */\n      mload(0x40)\n      tag_290\n      swap2\n      swap1\n      tag_163\n      jump\t// in\n    tag_290:\n      swap1\n      dup2\n      mstore\n      0x20\n      add\n      mload(0x40)\n      dup1\n      swap2\n      sub\n      swap1\n      keccak256\n        /* \"contracts/Shops.sol\":6467:6492  reviewCom[id][msg.sender] */\n      0x00\n        /* \"contracts/Shops.sol\":6481:6491  msg.sender */\n      caller\n        /* \"contracts/Shops.sol\":6467:6492  reviewCom[id][msg.sender] */\n      0xffffffffffffffffffffffffffffffffffffffff\n      and\n      0xffffffffffffffffffffffffffffffffffffffff\n      and\n      dup2\n      mstore\n      0x20\n      add\n      swap1\n      dup2\n      mstore\n      0x20\n      add\n      0x00\n      keccak256\n      0x00\n      swap1\n      sload\n      swap1\n      0x0100\n      exp\n      swap1\n      div\n      0xff\n      and\n        /* \"contracts/Shops.sol\":6467:6501  reviewCom[id][msg.sender] == false */\n      iszero\n      iszero\n      eq\n        /* \"contracts/Shops.sol\":6459:6532  require(reviewCom[id][msg.sender] == false,\"You already check this case\") */\n      tag_291\n      jumpi\n      mload(0x40)\n      0x08c379a000000000000000000000000000000000000000000000000000000000\n      dup2\n      mstore\n      0x04\n      add\n      tag_292\n      swap1\n      tag_293\n      jump\t// in\n    tag_292:\n      mload(0x40)\n      dup1\n      swap2\n      sub\n      swap1\n      revert\n    tag_291:\n        /* \"contracts/Shops.sol\":6542:6550  reviewId */\n      0x0e\n        /* \"contracts/Shops.sol\":6551:6553  id */\n      dup2\n        /* \"contracts/Shops.sol\":6542:6554  reviewId[id] */\n      mload(0x40)\n      tag_294\n      swap2\n      swap1\n      tag_163\n      jump\t// in\n    tag_294:\n      swap1\n      dup2\n      mstore\n      0x20\n      add\n      mload(0x40)\n      dup1\n      swap2\n      sub\n      swap1\n      keccak256\n        /* \"contracts/Shops.sol\":6542:6564  reviewId[id].likeCount */\n      0x03\n      add\n        /* \"contracts/Shops.sol\":6570:6580  msg.sender */\n      caller\n        /* \"contracts/Shops.sol\":6542:6581  reviewId[id].likeCount.push(msg.sender) */\n      swap1\n      dup1\n      0x01\n      dup2\n      sload\n      add\n      dup1\n      dup3\n      sstore\n      dup1\n      swap2\n      pop\n      pop\n      0x01\n      swap1\n      sub\n      swap1\n      0x00\n      mstore\n      keccak256(0x00, 0x20)\n      add\n      0x00\n      swap1\n      swap2\n      swap1\n      swap2\n      swap1\n      swap2\n      0x0100\n      exp\n      dup2\n      sload\n      dup2\n      0xffffffffffffffffffffffffffffffffffffffff\n      mul\n      not\n      and\n      swap1\n      dup4\n      0xffffffffffffffffffffffffffffffffffffffff\n      and\n      mul\n      or\n      swap1\n      sstore\n      pop\n        /* \"contracts/Shops.sol\":6619:6623  true */\n      0x01\n        /* \"contracts/Shops.sol\":6591:6600  reviewCom */\n      0x10\n        /* \"contracts/Shops.sol\":6601:6603  id */\n      dup3\n        /* \"contracts/Shops.sol\":6591:6604  reviewCom[id] */\n      mload(0x40)\n      tag_296\n      swap2\n      swap1\n      tag_163\n      jump\t// in\n    tag_296:\n      swap1\n      dup2\n      mstore\n      0x20\n      add\n      mload(0x40)\n      dup1\n      swap2\n      sub\n      swap1\n      keccak256\n        /* \"contracts/Shops.sol\":6591:6616  reviewCom[id][msg.sender] */\n      0x00\n        /* \"contracts/Shops.sol\":6605:6615  msg.sender */\n      caller\n        /* \"contracts/Shops.sol\":6591:6616  reviewCom[id][msg.sender] */\n      0xffffffffffffffffffffffffffffffffffffffff\n      and\n      0xffffffffffffffffffffffffffffffffffffffff\n      and\n      dup2\n      mstore\n      0x20\n      add\n      swap1\n      dup2\n      mstore\n      0x20\n      add\n      0x00\n      keccak256\n      0x00\n        /* \"contracts/Shops.sol\":6591:6623  reviewCom[id][msg.sender] = true */\n      0x0100\n      exp\n      dup2\n      sload\n      dup2\n      0xff\n      mul\n      not\n      and\n      swap1\n      dup4\n      iszero\n      iszero\n      mul\n      or\n      swap1\n      sstore\n      pop\n        /* \"contracts/Shops.sol\":6397:6630  function likeReview(string memory id) public isUser {... */\n      pop\n      jump\t// out\n        /* \"contracts/Shops.sol\":2184:2428  function registerProvider(string memory providerLogin,address providerAddr) public isAdmin {... */\n    tag_70:\n        /* \"contracts/Shops.sol\":1065:1070  admin */\n      0x05\n      0x00\n      swap1\n      sload\n      swap1\n      0x0100\n      exp\n      swap1\n      div\n      0xffffffffffffffffffffffffffffffffffffffff\n      and\n        /* \"contracts/Shops.sol\":1051:1070  msg.sender == admin */\n      0xffffffffffffffffffffffffffffffffffffffff\n      and\n        /* \"contracts/Shops.sol\":1051:1061  msg.sender */\n      caller\n        /* \"contracts/Shops.sol\":1051:1070  msg.sender == admin */\n      0xffffffffffffffffffffffffffffffffffffffff\n      and\n      eq\n        /* \"contracts/Shops.sol\":1043:1087  require(msg.sender == admin,\"You not admin\") */\n      tag_298\n      jumpi\n      mload(0x40)\n      0x08c379a000000000000000000000000000000000000000000000000000000000\n      dup2\n      mstore\n      0x04\n      add\n      tag_299\n      swap1\n      tag_169\n      jump\t// in\n    tag_299:\n      mload(0x40)\n      dup1\n      swap2\n      sub\n      swap1\n      revert\n    tag_298:\n        /* \"contracts/Shops.sol\":2285:2296  uint status */\n      0x00\n        /* \"contracts/Shops.sol\":2304:2322  UserRoles.provider */\n      0x04\n        /* \"contracts/Shops.sol\":2299:2323  uint(UserRoles.provider) */\n      0x05\n      dup2\n      gt\n      iszero\n      tag_301\n      jumpi\n      tag_302\n      tag_122\n      jump\t// in\n    tag_302:\n    tag_301:\n        /* \"contracts/Shops.sol\":2285:2323  uint status = uint(UserRoles.provider) */\n      swap1\n      pop\n        /* \"contracts/Shops.sol\":2333:2388  registerFromAdmin(\"\",providerLogin,status,providerAddr) */\n      tag_303\n      mload(0x40)\n      dup1\n      0x20\n      add\n      0x40\n      mstore\n      dup1\n      0x00\n      dup2\n      mstore\n      pop\n        /* \"contracts/Shops.sol\":2354:2367  providerLogin */\n      dup5\n        /* \"contracts/Shops.sol\":2368:2374  status */\n      dup4\n        /* \"contracts/Shops.sol\":2375:2387  providerAddr */\n      dup6\n        /* \"contracts/Shops.sol\":2333:2350  registerFromAdmin */\n      tag_174\n        /* \"contracts/Shops.sol\":2333:2388  registerFromAdmin(\"\",providerLogin,status,providerAddr) */\n      jump\t// in\n    tag_303:\n        /* \"contracts/Shops.sol\":2409:2421  providerAddr */\n      dup2\n        /* \"contracts/Shops.sol\":2398:2406  provider */\n      0x04\n      0x00\n        /* \"contracts/Shops.sol\":2398:2421  provider = providerAddr */\n      0x0100\n      exp\n      dup2\n      sload\n      dup2\n      0xffffffffffffffffffffffffffffffffffffffff\n      mul\n      not\n      and\n      swap1\n      dup4\n      0xffffffffffffffffffffffffffffffffffffffff\n      and\n      mul\n      or\n      swap1\n      sstore\n      pop\n        /* \"contracts/Shops.sol\":2275:2428  {... */\n      pop\n        /* \"contracts/Shops.sol\":2184:2428  function registerProvider(string memory providerLogin,address providerAddr) public isAdmin {... */\n      pop\n      pop\n      jump\t// out\n        /* \"contracts/Shops.sol\":3420:3623  function doShopDebt(address payable shopAddr) public isUserStatus(UserRoles.bank) {... */\n    tag_74:\n        /* \"contracts/Shops.sol\":3486:3500  UserRoles.bank */\n      0x05\n        /* \"contracts/AuthService.sol\":1616:1621  users */\n      0x02\n        /* \"contracts/AuthService.sol\":1616:1633  users[msg.sender] */\n      0x00\n        /* \"contracts/AuthService.sol\":1622:1632  msg.sender */\n      caller\n        /* \"contracts/AuthService.sol\":1616:1633  users[msg.sender] */\n      0xffffffffffffffffffffffffffffffffffffffff\n      and\n      0xffffffffffffffffffffffffffffffffffffffff\n      and\n      dup2\n      mstore\n      0x20\n      add\n      swap1\n      dup2\n      mstore\n      0x20\n      add\n      0x00\n      keccak256\n        /* \"contracts/AuthService.sol\":1616:1640  users[msg.sender].status */\n      0x00\n      add\n      sload\n        /* \"contracts/AuthService.sol\":1605:1611  status */\n      dup2\n        /* \"contracts/AuthService.sol\":1600:1612  uint(status) */\n      0x05\n      dup2\n      gt\n      iszero\n      tag_305\n      jumpi\n      tag_306\n      tag_122\n      jump\t// in\n    tag_306:\n    tag_305:\n        /* \"contracts/AuthService.sol\":1600:1640  uint(status) == users[msg.sender].status */\n      eq\n        /* \"contracts/AuthService.sol\":1592:1653  require(uint(status) == users[msg.sender].status,\"Forbidden\") */\n      tag_307\n      jumpi\n      mload(0x40)\n      0x08c379a000000000000000000000000000000000000000000000000000000000\n      dup2\n      mstore\n      0x04\n      add\n      tag_308\n      swap1\n      tag_125\n      jump\t// in\n    tag_308:\n      mload(0x40)\n      dup1\n      swap2\n      sub\n      swap1\n      revert\n    tag_307:\n        /* \"contracts/Shops.sol\":3551:3561  1000 ether */\n      0x3635c9adc5dea00000\n        /* \"contracts/Shops.sol\":3528:3538  msg.sender */\n      caller\n        /* \"contracts/Shops.sol\":3520:3547  payable(msg.sender).balance */\n      0xffffffffffffffffffffffffffffffffffffffff\n      and\n      balance\n        /* \"contracts/Shops.sol\":3520:3561  payable(msg.sender).balance >= 1000 ether */\n      lt\n      iszero\n        /* \"contracts/Shops.sol\":3512:3576  require(payable(msg.sender).balance >= 1000 ether,\"Low balance\") */\n      tag_310\n      jumpi\n      mload(0x40)\n      0x08c379a000000000000000000000000000000000000000000000000000000000\n      dup2\n      mstore\n      0x04\n      add\n      tag_311\n      swap1\n      tag_312\n      jump\t// in\n    tag_311:\n      mload(0x40)\n      dup1\n      swap2\n      sub\n      swap1\n      revert\n    tag_310:\n        /* \"contracts/Shops.sol\":3586:3594  shopAddr */\n      dup2\n        /* \"contracts/Shops.sol\":3586:3603  shopAddr.transfer */\n      0xffffffffffffffffffffffffffffffffffffffff\n      and\n        /* \"contracts/Shops.sol\":3586:3615  shopAddr.transfer(1000 ether) */\n      0x08fc\n        /* \"contracts/Shops.sol\":3604:3614  1000 ether */\n      0x3635c9adc5dea00000\n        /* \"contracts/Shops.sol\":3586:3615  shopAddr.transfer(1000 ether) */\n      swap1\n      dup2\n      iszero\n      mul\n      swap1\n      mload(0x40)\n      0x00\n      mload(0x40)\n      dup1\n      dup4\n      sub\n      dup2\n      dup6\n      dup9\n      dup9\n      call\n      swap4\n      pop\n      pop\n      pop\n      pop\n      iszero\n      dup1\n      iszero\n      tag_314\n      jumpi\n      returndatasize\n      0x00\n      dup1\n      returndatacopy\n      revert(0x00, returndatasize)\n    tag_314:\n      pop\n        /* \"contracts/Shops.sol\":3420:3623  function doShopDebt(address payable shopAddr) public isUserStatus(UserRoles.bank) {... */\n      pop\n      pop\n      jump\t// out\n        /* \"contracts/Shops.sol\":2753:3059  function registerSeller(string memory fio,string memory userLogin,address userAddress,address shopAddr) public {... */\n    tag_78:\n        /* \"contracts/Shops.sol\":2874:2885  uint status */\n      0x00\n        /* \"contracts/Shops.sol\":2893:2909  UserRoles.seller */\n      0x01\n        /* \"contracts/Shops.sol\":2888:2910  uint(UserRoles.seller) */\n      0x05\n      dup2\n      gt\n      iszero\n      tag_316\n      jumpi\n      tag_317\n      tag_122\n      jump\t// in\n    tag_317:\n    tag_316:\n        /* \"contracts/Shops.sol\":2874:2910  uint status = uint(UserRoles.seller) */\n      swap1\n      pop\n        /* \"contracts/Shops.sol\":2920:2971  registerFromAdmin(fio,userLogin,status,userAddress) */\n      tag_318\n        /* \"contracts/Shops.sol\":2938:2941  fio */\n      dup6\n        /* \"contracts/Shops.sol\":2942:2951  userLogin */\n      dup6\n        /* \"contracts/Shops.sol\":2952:2958  status */\n      dup4\n        /* \"contracts/Shops.sol\":2959:2970  userAddress */\n      dup7\n        /* \"contracts/Shops.sol\":2920:2937  registerFromAdmin */\n      tag_174\n        /* \"contracts/Shops.sol\":2920:2971  registerFromAdmin(fio,userLogin,status,userAddress) */\n      jump\t// in\n    tag_318:\n        /* \"contracts/Shops.sol\":2981:2988  sellers */\n      0x08\n        /* \"contracts/Shops.sol\":2994:3005  userAddress */\n      dup4\n        /* \"contracts/Shops.sol\":2981:3006  sellers.push(userAddress) */\n      swap1\n      dup1\n      0x01\n      dup2\n      sload\n      add\n      dup1\n      dup3\n      sstore\n      dup1\n      swap2\n      pop\n      pop\n      0x01\n      swap1\n      sub\n      swap1\n      0x00\n      mstore\n      keccak256(0x00, 0x20)\n      add\n      0x00\n      swap1\n      swap2\n      swap1\n      swap2\n      swap1\n      swap2\n      0x0100\n      exp\n      dup2\n      sload\n      dup2\n      0xffffffffffffffffffffffffffffffffffffffff\n      mul\n      not\n      and\n      swap1\n      dup4\n      0xffffffffffffffffffffffffffffffffffffffff\n      and\n      mul\n      or\n      swap1\n      sstore\n      pop\n        /* \"contracts/Shops.sol\":3016:3024  salesmen */\n      0x0c\n        /* \"contracts/Shops.sol\":3016:3034  salesmen[shopAddr] */\n      0x00\n        /* \"contracts/Shops.sol\":3025:3033  shopAddr */\n      dup4\n        /* \"contracts/Shops.sol\":3016:3034  salesmen[shopAddr] */\n      0xffffffffffffffffffffffffffffffffffffffff\n      and\n      0xffffffffffffffffffffffffffffffffffffffff\n      and\n      dup2\n      mstore\n      0x20\n      add\n      swap1\n      dup2\n      mstore\n      0x20\n      add\n      0x00\n      keccak256\n        /* \"contracts/Shops.sol\":3040:3051  userAddress */\n      dup4\n        /* \"contracts/Shops.sol\":3016:3052  salesmen[shopAddr].push(userAddress) */\n      swap1\n      dup1\n      0x01\n      dup2\n      sload\n      add\n      dup1\n      dup3\n      sstore\n      dup1\n      swap2\n      pop\n      pop\n      0x01\n      swap1\n      sub\n      swap1\n      0x00\n      mstore\n      keccak256(0x00, 0x20)\n      add\n      0x00\n      swap1\n      swap2\n      swap1\n      swap2\n      swap1\n      swap2\n      0x0100\n      exp\n      dup2\n      sload\n      dup2\n      0xffffffffffffffffffffffffffffffffffffffff\n      mul\n      not\n      and\n      swap1\n      dup4\n      0xffffffffffffffffffffffffffffffffffffffff\n      and\n      mul\n      or\n      swap1\n      sstore\n      pop\n        /* \"contracts/Shops.sol\":2864:3059  {... */\n      pop\n        /* \"contracts/Shops.sol\":2753:3059  function registerSeller(string memory fio,string memory userLogin,address userAddress,address shopAddr) public {... */\n      pop\n      pop\n      pop\n      pop\n      jump\t// out\n        /* \"contracts/Shops.sol\":4389:4753  function getBuyerInfo() public view isUser returns(... */\n    tag_80:\n        /* \"contracts/Shops.sol\":4449:4472  string memory userLogin */\n      0x60\n        /* \"contracts/Shops.sol\":4482:4499  string memory fio */\n      dup1\n        /* \"contracts/Shops.sol\":4509:4521  uint balance */\n      0x00\n        /* \"contracts/Shops.sol\":4531:4554  string[] memory reviews */\n      0x60\n        /* \"contracts/AuthService.sol\":1464:1503  compare(users[msg.sender].userLogin,\"\") */\n      tag_322\n        /* \"contracts/AuthService.sol\":1472:1477  users */\n      0x02\n        /* \"contracts/AuthService.sol\":1472:1489  users[msg.sender] */\n      0x00\n        /* \"contracts/AuthService.sol\":1478:1488  msg.sender */\n      caller\n        /* \"contracts/AuthService.sol\":1472:1489  users[msg.sender] */\n      0xffffffffffffffffffffffffffffffffffffffff\n      and\n      0xffffffffffffffffffffffffffffffffffffffff\n      and\n      dup2\n      mstore\n      0x20\n      add\n      swap1\n      dup2\n      mstore\n      0x20\n      add\n      0x00\n      keccak256\n        /* \"contracts/AuthService.sol\":1472:1499  users[msg.sender].userLogin */\n      0x01\n      add\n        /* \"contracts/AuthService.sol\":1464:1503  compare(users[msg.sender].userLogin,\"\") */\n      dup1\n      sload\n      tag_323\n      swap1\n      tag_128\n      jump\t// in\n    tag_323:\n      dup1\n      0x1f\n      add\n      0x20\n      dup1\n      swap2\n      div\n      mul\n      0x20\n      add\n      mload(0x40)\n      swap1\n      dup2\n      add\n      0x40\n      mstore\n      dup1\n      swap3\n      swap2\n      swap1\n      dup2\n      dup2\n      mstore\n      0x20\n      add\n      dup3\n      dup1\n      sload\n      tag_324\n      swap1\n      tag_128\n      jump\t// in\n    tag_324:\n      dup1\n      iszero\n      tag_325\n      jumpi\n      dup1\n      0x1f\n      lt\n      tag_326\n      jumpi\n      0x0100\n      dup1\n      dup4\n      sload\n      div\n      mul\n      dup4\n      mstore\n      swap2\n      0x20\n      add\n      swap2\n      jump(tag_325)\n    tag_326:\n      dup3\n      add\n      swap2\n      swap1\n      0x00\n      mstore\n      keccak256(0x00, 0x20)\n      swap1\n    tag_327:\n      dup2\n      sload\n      dup2\n      mstore\n      swap1\n      0x01\n      add\n      swap1\n      0x20\n      add\n      dup1\n      dup4\n      gt\n      tag_327\n      jumpi\n      dup3\n      swap1\n      sub\n      0x1f\n      and\n      dup3\n      add\n      swap2\n    tag_325:\n      pop\n      pop\n      pop\n      pop\n      pop\n      mload(0x40)\n      dup1\n      0x20\n      add\n      0x40\n      mstore\n      dup1\n      0x00\n      dup2\n      mstore\n      pop\n        /* \"contracts/AuthService.sol\":1464:1471  compare */\n      tag_182\n        /* \"contracts/AuthService.sol\":1464:1503  compare(users[msg.sender].userLogin,\"\") */\n      jump\t// in\n    tag_322:\n        /* \"contracts/AuthService.sol\":1463:1503  !compare(users[msg.sender].userLogin,\"\") */\n      iszero\n        /* \"contracts/AuthService.sol\":1455:1519  require(!compare(users[msg.sender].userLogin,\"\"),\"You not user\") */\n      tag_328\n      jumpi\n      mload(0x40)\n      0x08c379a000000000000000000000000000000000000000000000000000000000\n      dup2\n      mstore\n      0x04\n      add\n      tag_329\n      swap1\n      tag_185\n      jump\t// in\n    tag_329:\n      mload(0x40)\n      dup1\n      swap2\n      sub\n      swap1\n      revert\n    tag_328:\n        /* \"contracts/Shops.sol\":4570:4586  User memory user */\n      0x00\n        /* \"contracts/Shops.sol\":4589:4594  users */\n      0x02\n        /* \"contracts/Shops.sol\":4589:4606  users[msg.sender] */\n      0x00\n        /* \"contracts/Shops.sol\":4595:4605  msg.sender */\n      caller\n        /* \"contracts/Shops.sol\":4589:4606  users[msg.sender] */\n      0xffffffffffffffffffffffffffffffffffffffff\n      and\n      0xffffffffffffffffffffffffffffffffffffffff\n      and\n      dup2\n      mstore\n      0x20\n      add\n      swap1\n      dup2\n      mstore\n      0x20\n      add\n      0x00\n      keccak256\n        /* \"contracts/Shops.sol\":4570:4606  User memory user = users[msg.sender] */\n      mload(0x40)\n      dup1\n      0x80\n      add\n      0x40\n      mstore\n      swap1\n      dup2\n      0x00\n      dup3\n      add\n      sload\n      dup2\n      mstore\n      0x20\n      add\n      0x01\n      dup3\n      add\n      dup1\n      sload\n      tag_331\n      swap1\n      tag_128\n      jump\t// in\n    tag_331:\n      dup1\n      0x1f\n      add\n      0x20\n      dup1\n      swap2\n      div\n      mul\n      0x20\n      add\n      mload(0x40)\n      swap1\n      dup2\n      add\n      0x40\n      mstore\n      dup1\n      swap3\n      swap2\n      swap1\n      dup2\n      dup2\n      mstore\n      0x20\n      add\n      dup3\n      dup1\n      sload\n      tag_332\n      swap1\n      tag_128\n      jump\t// in\n    tag_332:\n      dup1\n      iszero\n      tag_333\n      jumpi\n      dup1\n      0x1f\n      lt\n      tag_334\n      jumpi\n      0x0100\n      dup1\n      dup4\n      sload\n      div\n      mul\n      dup4\n      mstore\n      swap2\n      0x20\n      add\n      swap2\n      jump(tag_333)\n    tag_334:\n      dup3\n      add\n      swap2\n      swap1\n      0x00\n      mstore\n      keccak256(0x00, 0x20)\n      swap1\n    tag_335:\n      dup2\n      sload\n      dup2\n      mstore\n      swap1\n      0x01\n      add\n      swap1\n      0x20\n      add\n      dup1\n      dup4\n      gt\n      tag_335\n      jumpi\n      dup3\n      swap1\n      sub\n      0x1f\n      and\n      dup3\n      add\n      swap2\n    tag_333:\n      pop\n      pop\n      pop\n      pop\n      pop\n      dup2\n      mstore\n      0x20\n      add\n      0x02\n      dup3\n      add\n      dup1\n      sload\n      tag_336\n      swap1\n      tag_128\n      jump\t// in\n    tag_336:\n      dup1\n      0x1f\n      add\n      0x20\n      dup1\n      swap2\n      div\n      mul\n      0x20\n      add\n      mload(0x40)\n      swap1\n      dup2\n      add\n      0x40\n      mstore\n      dup1\n      swap3\n      swap2\n      swap1\n      dup2\n      dup2\n      mstore\n      0x20\n      add\n      dup3\n      dup1\n      sload\n      tag_337\n      swap1\n      tag_128\n      jump\t// in\n    tag_337:\n      dup1\n      iszero\n      tag_338\n      jumpi\n      dup1\n      0x1f\n      lt\n      tag_339\n      jumpi\n      0x0100\n      dup1\n      dup4\n      sload\n      div\n      mul\n      dup4\n      mstore\n      swap2\n      0x20\n      add\n      swap2\n      jump(tag_338)\n    tag_339:\n      dup3\n      add\n      swap2\n      swap1\n      0x00\n      mstore\n      keccak256(0x00, 0x20)\n      swap1\n    tag_340:\n      dup2\n      sload\n      dup2\n      mstore\n      swap1\n      0x01\n      add\n      swap1\n      0x20\n      add\n      dup1\n      dup4\n      gt\n      tag_340\n      jumpi\n      dup3\n      swap1\n      sub\n      0x1f\n      and\n      dup3\n      add\n      swap2\n    tag_338:\n      pop\n      pop\n      pop\n      pop\n      pop\n      dup2\n      mstore\n      0x20\n      add\n      0x03\n      dup3\n      add\n      dup1\n      sload\n      dup1\n      0x20\n      mul\n      0x20\n      add\n      mload(0x40)\n      swap1\n      dup2\n      add\n      0x40\n      mstore\n      dup1\n      swap3\n      swap2\n      swap1\n      dup2\n      dup2\n      mstore\n      0x20\n      add\n      0x00\n      swap1\n    tag_341:\n      dup3\n      dup3\n      lt\n      iszero\n      tag_342\n      jumpi\n      dup4\n      dup3\n      swap1\n      0x00\n      mstore\n      keccak256(0x00, 0x20)\n      add\n      dup1\n      sload\n      tag_344\n      swap1\n      tag_128\n      jump\t// in\n    tag_344:\n      dup1\n      0x1f\n      add\n      0x20\n      dup1\n      swap2\n      div\n      mul\n      0x20\n      add\n      mload(0x40)\n      swap1\n      dup2\n      add\n      0x40\n      mstore\n      dup1\n      swap3\n      swap2\n      swap1\n      dup2\n      dup2\n      mstore\n      0x20\n      add\n      dup3\n      dup1\n      sload\n      tag_345\n      swap1\n      tag_128\n      jump\t// in\n    tag_345:\n      dup1\n      iszero\n      tag_346\n      jumpi\n      dup1\n      0x1f\n      lt\n      tag_347\n      jumpi\n      0x0100\n      dup1\n      dup4\n      sload\n      div\n      mul\n      dup4\n      mstore\n      swap2\n      0x20\n      add\n      swap2\n      jump(tag_346)\n    tag_347:\n      dup3\n      add\n      swap2\n      swap1\n      0x00\n      mstore\n      keccak256(0x00, 0x20)\n      swap1\n    tag_348:\n      dup2\n      sload\n      dup2\n      mstore\n      swap1\n      0x01\n      add\n      swap1\n      0x20\n      add\n      dup1\n      dup4\n      gt\n      tag_348\n      jumpi\n      dup3\n      swap1\n      sub\n      0x1f\n      and\n      dup3\n      add\n      swap2\n    tag_346:\n      pop\n      pop\n      pop\n      pop\n      pop\n      dup2\n      mstore\n      0x20\n      add\n      swap1\n      0x01\n      add\n      swap1\n      jump(tag_341)\n    tag_342:\n      pop\n      pop\n      pop\n      pop\n      dup2\n      mstore\n      pop\n      pop\n      swap1\n      pop\n        /* \"contracts/Shops.sol\":4629:4633  user */\n      dup1\n        /* \"contracts/Shops.sol\":4629:4643  user.userLogin */\n      0x20\n      add\n      mload\n        /* \"contracts/Shops.sol\":4617:4643  userLogin = user.userLogin */\n      swap5\n      pop\n        /* \"contracts/Shops.sol\":4659:4663  user */\n      dup1\n        /* \"contracts/Shops.sol\":4659:4667  user.fio */\n      0x40\n      add\n      mload\n        /* \"contracts/Shops.sol\":4653:4667  fio = user.fio */\n      swap4\n      pop\n        /* \"contracts/Shops.sol\":4695:4705  msg.sender */\n      caller\n        /* \"contracts/Shops.sol\":4687:4714  payable(msg.sender).balance */\n      0xffffffffffffffffffffffffffffffffffffffff\n      and\n      balance\n        /* \"contracts/Shops.sol\":4677:4714  balance = payable(msg.sender).balance */\n      swap3\n      pop\n        /* \"contracts/Shops.sol\":4734:4738  user */\n      dup1\n        /* \"contracts/Shops.sol\":4734:4746  user.reviews */\n      0x60\n      add\n      mload\n        /* \"contracts/Shops.sol\":4724:4746  reviews = user.reviews */\n      swap2\n      pop\n        /* \"contracts/Shops.sol\":4560:4753  {... */\n      pop\n        /* \"contracts/Shops.sol\":4389:4753  function getBuyerInfo() public view isUser returns(... */\n      swap1\n      swap2\n      swap3\n      swap4\n      jump\t// out\n        /* \"contracts/Shops.sol\":3126:3325  function registerBuyer(string memory fio,string memory userLogin,address userAddr) public{... */\n    tag_86:\n        /* \"contracts/Shops.sol\":3225:3236  uint status */\n      0x00\n        /* \"contracts/Shops.sol\":3244:3259  UserRoles.buyer */\n      dup1\n        /* \"contracts/Shops.sol\":3239:3260  uint(UserRoles.buyer) */\n      0x05\n      dup2\n      gt\n      iszero\n      tag_350\n      jumpi\n      tag_351\n      tag_122\n      jump\t// in\n    tag_351:\n    tag_350:\n        /* \"contracts/Shops.sol\":3225:3260  uint status = uint(UserRoles.buyer) */\n      swap1\n      pop\n        /* \"contracts/Shops.sol\":3270:3318  registerFromAdmin(fio,userLogin,status,userAddr) */\n      tag_352\n        /* \"contracts/Shops.sol\":3288:3291  fio */\n      dup5\n        /* \"contracts/Shops.sol\":3292:3301  userLogin */\n      dup5\n        /* \"contracts/Shops.sol\":3302:3308  status */\n      dup4\n        /* \"contracts/Shops.sol\":3309:3317  userAddr */\n      dup6\n        /* \"contracts/Shops.sol\":3270:3287  registerFromAdmin */\n      tag_174\n        /* \"contracts/Shops.sol\":3270:3318  registerFromAdmin(fio,userLogin,status,userAddr) */\n      jump\t// in\n    tag_352:\n        /* \"contracts/Shops.sol\":3215:3325  {... */\n      pop\n        /* \"contracts/Shops.sol\":3126:3325  function registerBuyer(string memory fio,string memory userLogin,address userAddr) public{... */\n      pop\n      pop\n      pop\n      jump\t// out\n        /* \"contracts/Shops.sol\":1539:1797  function regAdmin(address adminAddr,string memory fio,string memory userLogin) public isUserStatus(UserRoles.admin){... */\n    tag_89:\n        /* \"contracts/Shops.sol\":1638:1653  UserRoles.admin */\n      0x03\n        /* \"contracts/AuthService.sol\":1616:1621  users */\n      0x02\n        /* \"contracts/AuthService.sol\":1616:1633  users[msg.sender] */\n      0x00\n        /* \"contracts/AuthService.sol\":1622:1632  msg.sender */\n      caller\n        /* \"contracts/AuthService.sol\":1616:1633  users[msg.sender] */\n      0xffffffffffffffffffffffffffffffffffffffff\n      and\n      0xffffffffffffffffffffffffffffffffffffffff\n      and\n      dup2\n      mstore\n      0x20\n      add\n      swap1\n      dup2\n      mstore\n      0x20\n      add\n      0x00\n      keccak256\n        /* \"contracts/AuthService.sol\":1616:1640  users[msg.sender].status */\n      0x00\n      add\n      sload\n        /* \"contracts/AuthService.sol\":1605:1611  status */\n      dup2\n        /* \"contracts/AuthService.sol\":1600:1612  uint(status) */\n      0x05\n      dup2\n      gt\n      iszero\n      tag_354\n      jumpi\n      tag_355\n      tag_122\n      jump\t// in\n    tag_355:\n    tag_354:\n        /* \"contracts/AuthService.sol\":1600:1640  uint(status) == users[msg.sender].status */\n      eq\n        /* \"contracts/AuthService.sol\":1592:1653  require(uint(status) == users[msg.sender].status,\"Forbidden\") */\n      tag_356\n      jumpi\n      mload(0x40)\n      0x08c379a000000000000000000000000000000000000000000000000000000000\n      dup2\n      mstore\n      0x04\n      add\n      tag_357\n      swap1\n      tag_125\n      jump\t// in\n    tag_357:\n      mload(0x40)\n      dup1\n      swap2\n      sub\n      swap1\n      revert\n    tag_356:\n        /* \"contracts/Shops.sol\":1664:1675  uint status */\n      0x00\n        /* \"contracts/Shops.sol\":1683:1698  UserRoles.admin */\n      0x03\n        /* \"contracts/Shops.sol\":1678:1699  uint(UserRoles.admin) */\n      0x05\n      dup2\n      gt\n      iszero\n      tag_359\n      jumpi\n      tag_360\n      tag_122\n      jump\t// in\n    tag_360:\n    tag_359:\n        /* \"contracts/Shops.sol\":1664:1699  uint status = uint(UserRoles.admin) */\n      swap1\n      pop\n        /* \"contracts/Shops.sol\":1709:1758  registerFromAdmin(fio,userLogin,status,adminAddr) */\n      tag_361\n        /* \"contracts/Shops.sol\":1727:1730  fio */\n      dup5\n        /* \"contracts/Shops.sol\":1731:1740  userLogin */\n      dup5\n        /* \"contracts/Shops.sol\":1741:1747  status */\n      dup4\n        /* \"contracts/Shops.sol\":1748:1757  adminAddr */\n      dup9\n        /* \"contracts/Shops.sol\":1709:1726  registerFromAdmin */\n      tag_174\n        /* \"contracts/Shops.sol\":1709:1758  registerFromAdmin(fio,userLogin,status,adminAddr) */\n      jump\t// in\n    tag_361:\n        /* \"contracts/Shops.sol\":1768:1774  admins */\n      0x06\n        /* \"contracts/Shops.sol\":1780:1789  userLogin */\n      dup4\n        /* \"contracts/Shops.sol\":1768:1790  admins.push(userLogin) */\n      swap1\n      dup1\n      0x01\n      dup2\n      sload\n      add\n      dup1\n      dup3\n      sstore\n      dup1\n      swap2\n      pop\n      pop\n      0x01\n      swap1\n      sub\n      swap1\n      0x00\n      mstore\n      keccak256(0x00, 0x20)\n      add\n      0x00\n      swap1\n      swap2\n      swap1\n      swap2\n      swap1\n      swap2\n      pop\n      swap1\n      dup1\n      mload\n      swap1\n      0x20\n      add\n      swap1\n      tag_363\n      swap3\n      swap2\n      swap1\n      tag_189\n      jump\t// in\n    tag_363:\n      pop\n        /* \"contracts/Shops.sol\":1654:1797  {... */\n      pop\n        /* \"contracts/Shops.sol\":1539:1797  function regAdmin(address adminAddr,string memory fio,string memory userLogin) public isUserStatus(UserRoles.admin){... */\n      pop\n      pop\n      pop\n      pop\n      jump\t// out\n        /* \"contracts/Shops.sol\":7373:7675  function requestToSeller(string memory id) public isUserStatus(UserRoles.buyer){... */\n    tag_92:\n        /* \"contracts/Shops.sol\":7436:7451  UserRoles.buyer */\n      0x00\n        /* \"contracts/AuthService.sol\":1616:1621  users */\n      0x02\n        /* \"contracts/AuthService.sol\":1616:1633  users[msg.sender] */\n      0x00\n        /* \"contracts/AuthService.sol\":1622:1632  msg.sender */\n      caller\n        /* \"contracts/AuthService.sol\":1616:1633  users[msg.sender] */\n      0xffffffffffffffffffffffffffffffffffffffff\n      and\n      0xffffffffffffffffffffffffffffffffffffffff\n      and\n      dup2\n      mstore\n      0x20\n      add\n      swap1\n      dup2\n      mstore\n      0x20\n      add\n      0x00\n      keccak256\n        /* \"contracts/AuthService.sol\":1616:1640  users[msg.sender].status */\n      0x00\n      add\n      sload\n        /* \"contracts/AuthService.sol\":1605:1611  status */\n      dup2\n        /* \"contracts/AuthService.sol\":1600:1612  uint(status) */\n      0x05\n      dup2\n      gt\n      iszero\n      tag_365\n      jumpi\n      tag_366\n      tag_122\n      jump\t// in\n    tag_366:\n    tag_365:\n        /* \"contracts/AuthService.sol\":1600:1640  uint(status) == users[msg.sender].status */\n      eq\n        /* \"contracts/AuthService.sol\":1592:1653  require(uint(status) == users[msg.sender].status,\"Forbidden\") */\n      tag_367\n      jumpi\n      mload(0x40)\n      0x08c379a000000000000000000000000000000000000000000000000000000000\n      dup2\n      mstore\n      0x04\n      add\n      tag_368\n      swap1\n      tag_125\n      jump\t// in\n    tag_368:\n      mload(0x40)\n      dup1\n      swap2\n      sub\n      swap1\n      revert\n    tag_367:\n        /* \"contracts/Shops.sol\":7462:7479  Request memory rq */\n      0x00\n        /* \"contracts/Shops.sol\":7482:7613  Request(... */\n      mload(0x40)\n      dup1\n      0x80\n      add\n      0x40\n      mstore\n      dup1\n        /* \"contracts/Shops.sol\":7503:7513  msg.sender */\n      caller\n        /* \"contracts/Shops.sol\":7482:7613  Request(... */\n      0xffffffffffffffffffffffffffffffffffffffff\n      and\n      dup2\n      mstore\n      0x20\n      add\n        /* \"contracts/Shops.sol\":7532:7547  UserRoles.buyer */\n      0x00\n        /* \"contracts/Shops.sol\":7527:7548  uint(UserRoles.buyer) */\n      0x05\n      dup2\n      gt\n      iszero\n      tag_370\n      jumpi\n      tag_371\n      tag_122\n      jump\t// in\n    tag_371:\n    tag_370:\n        /* \"contracts/Shops.sol\":7482:7613  Request(... */\n      dup2\n      mstore\n      0x20\n      add\n        /* \"contracts/Shops.sol\":7567:7583  UserRoles.seller */\n      0x01\n        /* \"contracts/Shops.sol\":7562:7584  uint(UserRoles.seller) */\n      0x05\n      dup2\n      gt\n      iszero\n      tag_372\n      jumpi\n      tag_373\n      tag_122\n      jump\t// in\n    tag_373:\n    tag_372:\n        /* \"contracts/Shops.sol\":7482:7613  Request(... */\n      dup2\n      mstore\n      0x20\n      add\n        /* \"contracts/Shops.sol\":7598:7603  false */\n      0x00\n        /* \"contracts/Shops.sol\":7482:7613  Request(... */\n      iszero\n      iszero\n      dup2\n      mstore\n      pop\n        /* \"contracts/Shops.sol\":7462:7613  Request memory rq = Request(... */\n      swap1\n      pop\n        /* \"contracts/Shops.sol\":7639:7641  rq */\n      dup1\n        /* \"contracts/Shops.sol\":7623:7632  requestId */\n      0x0f\n        /* \"contracts/Shops.sol\":7633:7635  id */\n      dup5\n        /* \"contracts/Shops.sol\":7623:7636  requestId[id] */\n      mload(0x40)\n      tag_374\n      swap2\n      swap1\n      tag_163\n      jump\t// in\n    tag_374:\n      swap1\n      dup2\n      mstore\n      0x20\n      add\n      mload(0x40)\n      dup1\n      swap2\n      sub\n      swap1\n      keccak256\n        /* \"contracts/Shops.sol\":7623:7641  requestId[id] = rq */\n      0x00\n      dup3\n      add\n      mload\n      dup2\n      0x00\n      add\n      exp(0x0100, 0x00)\n      dup2\n      sload\n      dup2\n      0xffffffffffffffffffffffffffffffffffffffff\n      mul\n      not\n      and\n      swap1\n      dup4\n      0xffffffffffffffffffffffffffffffffffffffff\n      and\n      mul\n      or\n      swap1\n      sstore\n      pop\n      0x20\n      dup3\n      add\n      mload\n      dup2\n      0x01\n      add\n      sstore\n      0x40\n      dup3\n      add\n      mload\n      dup2\n      0x02\n      add\n      sstore\n      0x60\n      dup3\n      add\n      mload\n      dup2\n      0x03\n      add\n      exp(0x0100, 0x00)\n      dup2\n      sload\n      dup2\n      0xff\n      mul\n      not\n      and\n      swap1\n      dup4\n      iszero\n      iszero\n      mul\n      or\n      swap1\n      sstore\n      pop\n      swap1\n      pop\n      pop\n        /* \"contracts/Shops.sol\":7651:7659  requests */\n      0x09\n        /* \"contracts/Shops.sol\":7665:7667  id */\n      dup4\n        /* \"contracts/Shops.sol\":7651:7668  requests.push(id) */\n      swap1\n      dup1\n      0x01\n      dup2\n      sload\n      add\n      dup1\n      dup3\n      sstore\n      dup1\n      swap2\n      pop\n      pop\n      0x01\n      swap1\n      sub\n      swap1\n      0x00\n      mstore\n      keccak256(0x00, 0x20)\n      add\n      0x00\n      swap1\n      swap2\n      swap1\n      swap2\n      swap1\n      swap2\n      pop\n      swap1\n      dup1\n      mload\n      swap1\n      0x20\n      add\n      swap1\n      tag_376\n      swap3\n      swap2\n      swap1\n      tag_189\n      jump\t// in\n    tag_376:\n      pop\n        /* \"contracts/Shops.sol\":7452:7675  {... */\n      pop\n        /* \"contracts/Shops.sol\":7373:7675  function requestToSeller(string memory id) public isUserStatus(UserRoles.buyer){... */\n      pop\n      pop\n      jump\t// out\n        /* \"contracts/Shops.sol\":7681:7986  function downRequestToByer(string memory id) public isUserStatus(UserRoles.seller){... */\n    tag_95:\n        /* \"contracts/Shops.sol\":7746:7762  UserRoles.seller */\n      0x01\n        /* \"contracts/AuthService.sol\":1616:1621  users */\n      0x02\n        /* \"contracts/AuthService.sol\":1616:1633  users[msg.sender] */\n      0x00\n        /* \"contracts/AuthService.sol\":1622:1632  msg.sender */\n      caller\n        /* \"contracts/AuthService.sol\":1616:1633  users[msg.sender] */\n      0xffffffffffffffffffffffffffffffffffffffff\n      and\n      0xffffffffffffffffffffffffffffffffffffffff\n      and\n      dup2\n      mstore\n      0x20\n      add\n      swap1\n      dup2\n      mstore\n      0x20\n      add\n      0x00\n      keccak256\n        /* \"contracts/AuthService.sol\":1616:1640  users[msg.sender].status */\n      0x00\n      add\n      sload\n        /* \"contracts/AuthService.sol\":1605:1611  status */\n      dup2\n        /* \"contracts/AuthService.sol\":1600:1612  uint(status) */\n      0x05\n      dup2\n      gt\n      iszero\n      tag_378\n      jumpi\n      tag_379\n      tag_122\n      jump\t// in\n    tag_379:\n    tag_378:\n        /* \"contracts/AuthService.sol\":1600:1640  uint(status) == users[msg.sender].status */\n      eq\n        /* \"contracts/AuthService.sol\":1592:1653  require(uint(status) == users[msg.sender].status,\"Forbidden\") */\n      tag_380\n      jumpi\n      mload(0x40)\n      0x08c379a000000000000000000000000000000000000000000000000000000000\n      dup2\n      mstore\n      0x04\n      add\n      tag_381\n      swap1\n      tag_125\n      jump\t// in\n    tag_381:\n      mload(0x40)\n      dup1\n      swap2\n      sub\n      swap1\n      revert\n    tag_380:\n        /* \"contracts/Shops.sol\":7773:7790  Request memory rq */\n      0x00\n        /* \"contracts/Shops.sol\":7793:7924  Request(... */\n      mload(0x40)\n      dup1\n      0x80\n      add\n      0x40\n      mstore\n      dup1\n        /* \"contracts/Shops.sol\":7814:7824  msg.sender */\n      caller\n        /* \"contracts/Shops.sol\":7793:7924  Request(... */\n      0xffffffffffffffffffffffffffffffffffffffff\n      and\n      dup2\n      mstore\n      0x20\n      add\n        /* \"contracts/Shops.sol\":7843:7859  UserRoles.seller */\n      0x01\n        /* \"contracts/Shops.sol\":7838:7860  uint(UserRoles.seller) */\n      0x05\n      dup2\n      gt\n      iszero\n      tag_383\n      jumpi\n      tag_384\n      tag_122\n      jump\t// in\n    tag_384:\n    tag_383:\n        /* \"contracts/Shops.sol\":7793:7924  Request(... */\n      dup2\n      mstore\n      0x20\n      add\n        /* \"contracts/Shops.sol\":7879:7894  UserRoles.buyer */\n      0x00\n        /* \"contracts/Shops.sol\":7874:7895  uint(UserRoles.buyer) */\n      0x05\n      dup2\n      gt\n      iszero\n      tag_385\n      jumpi\n      tag_386\n      tag_122\n      jump\t// in\n    tag_386:\n    tag_385:\n        /* \"contracts/Shops.sol\":7793:7924  Request(... */\n      dup2\n      mstore\n      0x20\n      add\n        /* \"contracts/Shops.sol\":7909:7914  false */\n      0x00\n        /* \"contracts/Shops.sol\":7793:7924  Request(... */\n      iszero\n      iszero\n      dup2\n      mstore\n      pop\n        /* \"contracts/Shops.sol\":7773:7924  Request memory rq = Request(... */\n      swap1\n      pop\n        /* \"contracts/Shops.sol\":7950:7952  rq */\n      dup1\n        /* \"contracts/Shops.sol\":7934:7943  requestId */\n      0x0f\n        /* \"contracts/Shops.sol\":7944:7946  id */\n      dup5\n        /* \"contracts/Shops.sol\":7934:7947  requestId[id] */\n      mload(0x40)\n      tag_387\n      swap2\n      swap1\n      tag_163\n      jump\t// in\n    tag_387:\n      swap1\n      dup2\n      mstore\n      0x20\n      add\n      mload(0x40)\n      dup1\n      swap2\n      sub\n      swap1\n      keccak256\n        /* \"contracts/Shops.sol\":7934:7952  requestId[id] = rq */\n      0x00\n      dup3\n      add\n      mload\n      dup2\n      0x00\n      add\n      exp(0x0100, 0x00)\n      dup2\n      sload\n      dup2\n      0xffffffffffffffffffffffffffffffffffffffff\n      mul\n      not\n      and\n      swap1\n      dup4\n      0xffffffffffffffffffffffffffffffffffffffff\n      and\n      mul\n      or\n      swap1\n      sstore\n      pop\n      0x20\n      dup3\n      add\n      mload\n      dup2\n      0x01\n      add\n      sstore\n      0x40\n      dup3\n      add\n      mload\n      dup2\n      0x02\n      add\n      sstore\n      0x60\n      dup3\n      add\n      mload\n      dup2\n      0x03\n      add\n      exp(0x0100, 0x00)\n      dup2\n      sload\n      dup2\n      0xff\n      mul\n      not\n      and\n      swap1\n      dup4\n      iszero\n      iszero\n      mul\n      or\n      swap1\n      sstore\n      pop\n      swap1\n      pop\n      pop\n        /* \"contracts/Shops.sol\":7962:7970  requests */\n      0x09\n        /* \"contracts/Shops.sol\":7976:7978  id */\n      dup4\n        /* \"contracts/Shops.sol\":7962:7979  requests.push(id) */\n      swap1\n      dup1\n      0x01\n      dup2\n      sload\n      add\n      dup1\n      dup3\n      sstore\n      dup1\n      swap2\n      pop\n      pop\n      0x01\n      swap1\n      sub\n      swap1\n      0x00\n      mstore\n      keccak256(0x00, 0x20)\n      add\n      0x00\n      swap1\n      swap2\n      swap1\n      swap2\n      swap1\n      swap2\n      pop\n      swap1\n      dup1\n      mload\n      swap1\n      0x20\n      add\n      swap1\n      tag_389\n      swap3\n      swap2\n      swap1\n      tag_189\n      jump\t// in\n    tag_389:\n      pop\n        /* \"contracts/Shops.sol\":7763:7986  {... */\n      pop\n        /* \"contracts/Shops.sol\":7681:7986  function downRequestToByer(string memory id) public isUserStatus(UserRoles.seller){... */\n      pop\n      pop\n      jump\t// out\n        /* \"contracts/Shops.sol\":6636:6875  function disLikeReview(string memory id) public isUser {... */\n    tag_98:\n        /* \"contracts/AuthService.sol\":1464:1503  compare(users[msg.sender].userLogin,\"\") */\n      tag_391\n        /* \"contracts/AuthService.sol\":1472:1477  users */\n      0x02\n        /* \"contracts/AuthService.sol\":1472:1489  users[msg.sender] */\n      0x00\n        /* \"contracts/AuthService.sol\":1478:1488  msg.sender */\n      caller\n        /* \"contracts/AuthService.sol\":1472:1489  users[msg.sender] */\n      0xffffffffffffffffffffffffffffffffffffffff\n      and\n      0xffffffffffffffffffffffffffffffffffffffff\n      and\n      dup2\n      mstore\n      0x20\n      add\n      swap1\n      dup2\n      mstore\n      0x20\n      add\n      0x00\n      keccak256\n        /* \"contracts/AuthService.sol\":1472:1499  users[msg.sender].userLogin */\n      0x01\n      add\n        /* \"contracts/AuthService.sol\":1464:1503  compare(users[msg.sender].userLogin,\"\") */\n      dup1\n      sload\n      tag_392\n      swap1\n      tag_128\n      jump\t// in\n    tag_392:\n      dup1\n      0x1f\n      add\n      0x20\n      dup1\n      swap2\n      div\n      mul\n      0x20\n      add\n      mload(0x40)\n      swap1\n      dup2\n      add\n      0x40\n      mstore\n      dup1\n      swap3\n      swap2\n      swap1\n      dup2\n      dup2\n      mstore\n      0x20\n      add\n      dup3\n      dup1\n      sload\n      tag_393\n      swap1\n      tag_128\n      jump\t// in\n    tag_393:\n      dup1\n      iszero\n      tag_394\n      jumpi\n      dup1\n      0x1f\n      lt\n      tag_395\n      jumpi\n      0x0100\n      dup1\n      dup4\n      sload\n      div\n      mul\n      dup4\n      mstore\n      swap2\n      0x20\n      add\n      swap2\n      jump(tag_394)\n    tag_395:\n      dup3\n      add\n      swap2\n      swap1\n      0x00\n      mstore\n      keccak256(0x00, 0x20)\n      swap1\n    tag_396:\n      dup2\n      sload\n      dup2\n      mstore\n      swap1\n      0x01\n      add\n      swap1\n      0x20\n      add\n      dup1\n      dup4\n      gt\n      tag_396\n      jumpi\n      dup3\n      swap1\n      sub\n      0x1f\n      and\n      dup3\n      add\n      swap2\n    tag_394:\n      pop\n      pop\n      pop\n      pop\n      pop\n      mload(0x40)\n      dup1\n      0x20\n      add\n      0x40\n      mstore\n      dup1\n      0x00\n      dup2\n      mstore\n      pop\n        /* \"contracts/AuthService.sol\":1464:1471  compare */\n      tag_182\n        /* \"contracts/AuthService.sol\":1464:1503  compare(users[msg.sender].userLogin,\"\") */\n      jump\t// in\n    tag_391:\n        /* \"contracts/AuthService.sol\":1463:1503  !compare(users[msg.sender].userLogin,\"\") */\n      iszero\n        /* \"contracts/AuthService.sol\":1455:1519  require(!compare(users[msg.sender].userLogin,\"\"),\"You not user\") */\n      tag_397\n      jumpi\n      mload(0x40)\n      0x08c379a000000000000000000000000000000000000000000000000000000000\n      dup2\n      mstore\n      0x04\n      add\n      tag_398\n      swap1\n      tag_185\n      jump\t// in\n    tag_398:\n      mload(0x40)\n      dup1\n      swap2\n      sub\n      swap1\n      revert\n    tag_397:\n        /* \"contracts/Shops.sol\":6738:6743  false */\n      0x00\n        /* \"contracts/Shops.sol\":6709:6743  reviewCom[id][msg.sender] == false */\n      iszero\n      iszero\n        /* \"contracts/Shops.sol\":6709:6718  reviewCom */\n      0x10\n        /* \"contracts/Shops.sol\":6719:6721  id */\n      dup3\n        /* \"contracts/Shops.sol\":6709:6722  reviewCom[id] */\n      mload(0x40)\n      tag_400\n      swap2\n      swap1\n      tag_163\n      jump\t// in\n    tag_400:\n      swap1\n      dup2\n      mstore\n      0x20\n      add\n      mload(0x40)\n      dup1\n      swap2\n      sub\n      swap1\n      keccak256\n        /* \"contracts/Shops.sol\":6709:6734  reviewCom[id][msg.sender] */\n      0x00\n        /* \"contracts/Shops.sol\":6723:6733  msg.sender */\n      caller\n        /* \"contracts/Shops.sol\":6709:6734  reviewCom[id][msg.sender] */\n      0xffffffffffffffffffffffffffffffffffffffff\n      and\n      0xffffffffffffffffffffffffffffffffffffffff\n      and\n      dup2\n      mstore\n      0x20\n      add\n      swap1\n      dup2\n      mstore\n      0x20\n      add\n      0x00\n      keccak256\n      0x00\n      swap1\n      sload\n      swap1\n      0x0100\n      exp\n      swap1\n      div\n      0xff\n      and\n        /* \"contracts/Shops.sol\":6709:6743  reviewCom[id][msg.sender] == false */\n      iszero\n      iszero\n      eq\n        /* \"contracts/Shops.sol\":6701:6774  require(reviewCom[id][msg.sender] == false,\"You already check this case\") */\n      tag_401\n      jumpi\n      mload(0x40)\n      0x08c379a000000000000000000000000000000000000000000000000000000000\n      dup2\n      mstore\n      0x04\n      add\n      tag_402\n      swap1\n      tag_293\n      jump\t// in\n    tag_402:\n      mload(0x40)\n      dup1\n      swap2\n      sub\n      swap1\n      revert\n    tag_401:\n        /* \"contracts/Shops.sol\":6784:6792  reviewId */\n      0x0e\n        /* \"contracts/Shops.sol\":6793:6795  id */\n      dup2\n        /* \"contracts/Shops.sol\":6784:6796  reviewId[id] */\n      mload(0x40)\n      tag_403\n      swap2\n      swap1\n      tag_163\n      jump\t// in\n    tag_403:\n      swap1\n      dup2\n      mstore\n      0x20\n      add\n      mload(0x40)\n      dup1\n      swap2\n      sub\n      swap1\n      keccak256\n        /* \"contracts/Shops.sol\":6784:6809  reviewId[id].disLikeCount */\n      0x04\n      add\n        /* \"contracts/Shops.sol\":6815:6825  msg.sender */\n      caller\n        /* \"contracts/Shops.sol\":6784:6826  reviewId[id].disLikeCount.push(msg.sender) */\n      swap1\n      dup1\n      0x01\n      dup2\n      sload\n      add\n      dup1\n      dup3\n      sstore\n      dup1\n      swap2\n      pop\n      pop\n      0x01\n      swap1\n      sub\n      swap1\n      0x00\n      mstore\n      keccak256(0x00, 0x20)\n      add\n      0x00\n      swap1\n      swap2\n      swap1\n      swap2\n      swap1\n      swap2\n      0x0100\n      exp\n      dup2\n      sload\n      dup2\n      0xffffffffffffffffffffffffffffffffffffffff\n      mul\n      not\n      and\n      swap1\n      dup4\n      0xffffffffffffffffffffffffffffffffffffffff\n      and\n      mul\n      or\n      swap1\n      sstore\n      pop\n        /* \"contracts/Shops.sol\":6864:6868  true */\n      0x01\n        /* \"contracts/Shops.sol\":6836:6845  reviewCom */\n      0x10\n        /* \"contracts/Shops.sol\":6846:6848  id */\n      dup3\n        /* \"contracts/Shops.sol\":6836:6849  reviewCom[id] */\n      mload(0x40)\n      tag_405\n      swap2\n      swap1\n      tag_163\n      jump\t// in\n    tag_405:\n      swap1\n      dup2\n      mstore\n      0x20\n      add\n      mload(0x40)\n      dup1\n      swap2\n      sub\n      swap1\n      keccak256\n        /* \"contracts/Shops.sol\":6836:6861  reviewCom[id][msg.sender] */\n      0x00\n        /* \"contracts/Shops.sol\":6850:6860  msg.sender */\n      caller\n        /* \"contracts/Shops.sol\":6836:6861  reviewCom[id][msg.sender] */\n      0xffffffffffffffffffffffffffffffffffffffff\n      and\n      0xffffffffffffffffffffffffffffffffffffffff\n      and\n      dup2\n      mstore\n      0x20\n      add\n      swap1\n      dup2\n      mstore\n      0x20\n      add\n      0x00\n      keccak256\n      0x00\n        /* \"contracts/Shops.sol\":6836:6868  reviewCom[id][msg.sender] = true */\n      0x0100\n      exp\n      dup2\n      sload\n      dup2\n      0xff\n      mul\n      not\n      and\n      swap1\n      dup4\n      iszero\n      iszero\n      mul\n      or\n      swap1\n      sstore\n      pop\n        /* \"contracts/Shops.sol\":6636:6875  function disLikeReview(string memory id) public isUser {... */\n      pop\n      jump\t// out\n        /* \"contracts/Shops.sol\":4823:5221  function getAdminInfo() public view isUserStatus(UserRoles.admin) returns(... */\n    tag_100:\n        /* \"contracts/Shops.sol\":4906:4925  string memory login */\n      0x60\n        /* \"contracts/Shops.sol\":4935:4963  string[] memory userRequests */\n      dup1\n        /* \"contracts/Shops.sol\":4973:4998  string[] memory adminList */\n      0x60\n        /* \"contracts/Shops.sol\":5008:5036  address[] memory sellersAddr */\n      dup1\n        /* \"contracts/Shops.sol\":4872:4887  UserRoles.admin */\n      0x03\n        /* \"contracts/AuthService.sol\":1616:1621  users */\n      0x02\n        /* \"contracts/AuthService.sol\":1616:1633  users[msg.sender] */\n      0x00\n        /* \"contracts/AuthService.sol\":1622:1632  msg.sender */\n      caller\n        /* \"contracts/AuthService.sol\":1616:1633  users[msg.sender] */\n      0xffffffffffffffffffffffffffffffffffffffff\n      and\n      0xffffffffffffffffffffffffffffffffffffffff\n      and\n      dup2\n      mstore\n      0x20\n      add\n      swap1\n      dup2\n      mstore\n      0x20\n      add\n      0x00\n      keccak256\n        /* \"contracts/AuthService.sol\":1616:1640  users[msg.sender].status */\n      0x00\n      add\n      sload\n        /* \"contracts/AuthService.sol\":1605:1611  status */\n      dup2\n        /* \"contracts/AuthService.sol\":1600:1612  uint(status) */\n      0x05\n      dup2\n      gt\n      iszero\n      tag_407\n      jumpi\n      tag_408\n      tag_122\n      jump\t// in\n    tag_408:\n    tag_407:\n        /* \"contracts/AuthService.sol\":1600:1640  uint(status) == users[msg.sender].status */\n      eq\n        /* \"contracts/AuthService.sol\":1592:1653  require(uint(status) == users[msg.sender].status,\"Forbidden\") */\n      tag_409\n      jumpi\n      mload(0x40)\n      0x08c379a000000000000000000000000000000000000000000000000000000000\n      dup2\n      mstore\n      0x04\n      add\n      tag_410\n      swap1\n      tag_125\n      jump\t// in\n    tag_410:\n      mload(0x40)\n      dup1\n      swap2\n      sub\n      swap1\n      revert\n    tag_409:\n        /* \"contracts/Shops.sol\":5053:5069  User memory user */\n      0x00\n        /* \"contracts/Shops.sol\":5072:5077  users */\n      0x02\n        /* \"contracts/Shops.sol\":5072:5089  users[msg.sender] */\n      0x00\n        /* \"contracts/Shops.sol\":5078:5088  msg.sender */\n      caller\n        /* \"contracts/Shops.sol\":5072:5089  users[msg.sender] */\n      0xffffffffffffffffffffffffffffffffffffffff\n      and\n      0xffffffffffffffffffffffffffffffffffffffff\n      and\n      dup2\n      mstore\n      0x20\n      add\n      swap1\n      dup2\n      mstore\n      0x20\n      add\n      0x00\n      keccak256\n        /* \"contracts/Shops.sol\":5053:5089  User memory user = users[msg.sender] */\n      mload(0x40)\n      dup1\n      0x80\n      add\n      0x40\n      mstore\n      swap1\n      dup2\n      0x00\n      dup3\n      add\n      sload\n      dup2\n      mstore\n      0x20\n      add\n      0x01\n      dup3\n      add\n      dup1\n      sload\n      tag_412\n      swap1\n      tag_128\n      jump\t// in\n    tag_412:\n      dup1\n      0x1f\n      add\n      0x20\n      dup1\n      swap2\n      div\n      mul\n      0x20\n      add\n      mload(0x40)\n      swap1\n      dup2\n      add\n      0x40\n      mstore\n      dup1\n      swap3\n      swap2\n      swap1\n      dup2\n      dup2\n      mstore\n      0x20\n      add\n      dup3\n      dup1\n      sload\n      tag_413\n      swap1\n      tag_128\n      jump\t// in\n    tag_413:\n      dup1\n      iszero\n      tag_414\n      jumpi\n      dup1\n      0x1f\n      lt\n      tag_415\n      jumpi\n      0x0100\n      dup1\n      dup4\n      sload\n      div\n      mul\n      dup4\n      mstore\n      swap2\n      0x20\n      add\n      swap2\n      jump(tag_414)\n    tag_415:\n      dup3\n      add\n      swap2\n      swap1\n      0x00\n      mstore\n      keccak256(0x00, 0x20)\n      swap1\n    tag_416:\n      dup2\n      sload\n      dup2\n      mstore\n      swap1\n      0x01\n      add\n      swap1\n      0x20\n      add\n      dup1\n      dup4\n      gt\n      tag_416\n      jumpi\n      dup3\n      swap1\n      sub\n      0x1f\n      and\n      dup3\n      add\n      swap2\n    tag_414:\n      pop\n      pop\n      pop\n      pop\n      pop\n      dup2\n      mstore\n      0x20\n      add\n      0x02\n      dup3\n      add\n      dup1\n      sload\n      tag_417\n      swap1\n      tag_128\n      jump\t// in\n    tag_417:\n      dup1\n      0x1f\n      add\n      0x20\n      dup1\n      swap2\n      div\n      mul\n      0x20\n      add\n      mload(0x40)\n      swap1\n      dup2\n      add\n      0x40\n      mstore\n      dup1\n      swap3\n      swap2\n      swap1\n      dup2\n      dup2\n      mstore\n      0x20\n      add\n      dup3\n      dup1\n      sload\n      tag_418\n      swap1\n      tag_128\n      jump\t// in\n    tag_418:\n      dup1\n      iszero\n      tag_419\n      jumpi\n      dup1\n      0x1f\n      lt\n      tag_420\n      jumpi\n      0x0100\n      dup1\n      dup4\n      sload\n      div\n      mul\n      dup4\n      mstore\n      swap2\n      0x20\n      add\n      swap2\n      jump(tag_419)\n    tag_420:\n      dup3\n      add\n      swap2\n      swap1\n      0x00\n      mstore\n      keccak256(0x00, 0x20)\n      swap1\n    tag_421:\n      dup2\n      sload\n      dup2\n      mstore\n      swap1\n      0x01\n      add\n      swap1\n      0x20\n      add\n      dup1\n      dup4\n      gt\n      tag_421\n      jumpi\n      dup3\n      swap1\n      sub\n      0x1f\n      and\n      dup3\n      add\n      swap2\n    tag_419:\n      pop\n      pop\n      pop\n      pop\n      pop\n      dup2\n      mstore\n      0x20\n      add\n      0x03\n      dup3\n      add\n      dup1\n      sload\n      dup1\n      0x20\n      mul\n      0x20\n      add\n      mload(0x40)\n      swap1\n      dup2\n      add\n      0x40\n      mstore\n      dup1\n      swap3\n      swap2\n      swap1\n      dup2\n      dup2\n      mstore\n      0x20\n      add\n      0x00\n      swap1\n    tag_422:\n      dup3\n      dup3\n      lt\n      iszero\n      tag_423\n      jumpi\n      dup4\n      dup3\n      swap1\n      0x00\n      mstore\n      keccak256(0x00, 0x20)\n      add\n      dup1\n      sload\n      tag_425\n      swap1\n      tag_128\n      jump\t// in\n    tag_425:\n      dup1\n      0x1f\n      add\n      0x20\n      dup1\n      swap2\n      div\n      mul\n      0x20\n      add\n      mload(0x40)\n      swap1\n      dup2\n      add\n      0x40\n      mstore\n      dup1\n      swap3\n      swap2\n      swap1\n      dup2\n      dup2\n      mstore\n      0x20\n      add\n      dup3\n      dup1\n      sload\n      tag_426\n      swap1\n      tag_128\n      jump\t// in\n    tag_426:\n      dup1\n      iszero\n      tag_427\n      jumpi\n      dup1\n      0x1f\n      lt\n      tag_428\n      jumpi\n      0x0100\n      dup1\n      dup4\n      sload\n      div\n      mul\n      dup4\n      mstore\n      swap2\n      0x20\n      add\n      swap2\n      jump(tag_427)\n    tag_428:\n      dup3\n      add\n      swap2\n      swap1\n      0x00\n      mstore\n      keccak256(0x00, 0x20)\n      swap1\n    tag_429:\n      dup2\n      sload\n      dup2\n      mstore\n      swap1\n      0x01\n      add\n      swap1\n      0x20\n      add\n      dup1\n      dup4\n      gt\n      tag_429\n      jumpi\n      dup3\n      swap1\n      sub\n      0x1f\n      and\n      dup3\n      add\n      swap2\n    tag_427:\n      pop\n      pop\n      pop\n      pop\n      pop\n      dup2\n      mstore\n      0x20\n      add\n      swap1\n      0x01\n      add\n      swap1\n      jump(tag_422)\n    tag_423:\n      pop\n      pop\n      pop\n      pop\n      dup2\n      mstore\n      pop\n      pop\n      swap1\n      pop\n        /* \"contracts/Shops.sol\":5108:5112  user */\n      dup1\n        /* \"contracts/Shops.sol\":5108:5122  user.userLogin */\n      0x20\n      add\n      mload\n        /* \"contracts/Shops.sol\":5100:5122  login = user.userLogin */\n      swap6\n      pop\n        /* \"contracts/Shops.sol\":5147:5155  requests */\n      0x09\n        /* \"contracts/Shops.sol\":5132:5155  userRequests = requests */\n      dup1\n      sload\n      dup1\n      0x20\n      mul\n      0x20\n      add\n      mload(0x40)\n      swap1\n      dup2\n      add\n      0x40\n      mstore\n      dup1\n      swap3\n      swap2\n      swap1\n      dup2\n      dup2\n      mstore\n      0x20\n      add\n      0x00\n      swap1\n    tag_430:\n      dup3\n      dup3\n      lt\n      iszero\n      tag_431\n      jumpi\n      dup4\n      dup3\n      swap1\n      0x00\n      mstore\n      keccak256(0x00, 0x20)\n      add\n      dup1\n      sload\n      tag_433\n      swap1\n      tag_128\n      jump\t// in\n    tag_433:\n      dup1\n      0x1f\n      add\n      0x20\n      dup1\n      swap2\n      div\n      mul\n      0x20\n      add\n      mload(0x40)\n      swap1\n      dup2\n      add\n      0x40\n      mstore\n      dup1\n      swap3\n      swap2\n      swap1\n      dup2\n      dup2\n      mstore\n      0x20\n      add\n      dup3\n      dup1\n      sload\n      tag_434\n      swap1\n      tag_128\n      jump\t// in\n    tag_434:\n      dup1\n      iszero\n      tag_435\n      jumpi\n      dup1\n      0x1f\n      lt\n      tag_436\n      jumpi\n      0x0100\n      dup1\n      dup4\n      sload\n      div\n      mul\n      dup4\n      mstore\n      swap2\n      0x20\n      add\n      swap2\n      jump(tag_435)\n    tag_436:\n      dup3\n      add\n      swap2\n      swap1\n      0x00\n      mstore\n      keccak256(0x00, 0x20)\n      swap1\n    tag_437:\n      dup2\n      sload\n      dup2\n      mstore\n      swap1\n      0x01\n      add\n      swap1\n      0x20\n      add\n      dup1\n      dup4\n      gt\n      tag_437\n      jumpi\n      dup3\n      swap1\n      sub\n      0x1f\n      and\n      dup3\n      add\n      swap2\n    tag_435:\n      pop\n      pop\n      pop\n      pop\n      pop\n      dup2\n      mstore\n      0x20\n      add\n      swap1\n      0x01\n      add\n      swap1\n      jump(tag_430)\n    tag_431:\n      pop\n      pop\n      pop\n      pop\n      swap5\n      pop\n        /* \"contracts/Shops.sol\":5177:5183  admins */\n      0x06\n        /* \"contracts/Shops.sol\":5165:5183  adminList = admins */\n      dup1\n      sload\n      dup1\n      0x20\n      mul\n      0x20\n      add\n      mload(0x40)\n      swap1\n      dup2\n      add\n      0x40\n      mstore\n      dup1\n      swap3\n      swap2\n      swap1\n      dup2\n      dup2\n      mstore\n      0x20\n      add\n      0x00\n      swap1\n    tag_438:\n      dup3\n      dup3\n      lt\n      iszero\n      tag_439\n      jumpi\n      dup4\n      dup3\n      swap1\n      0x00\n      mstore\n      keccak256(0x00, 0x20)\n      add\n      dup1\n      sload\n      tag_441\n      swap1\n      tag_128\n      jump\t// in\n    tag_441:\n      dup1\n      0x1f\n      add\n      0x20\n      dup1\n      swap2\n      div\n      mul\n      0x20\n      add\n      mload(0x40)\n      swap1\n      dup2\n      add\n      0x40\n      mstore\n      dup1\n      swap3\n      swap2\n      swap1\n      dup2\n      dup2\n      mstore\n      0x20\n      add\n      dup3\n      dup1\n      sload\n      tag_442\n      swap1\n      tag_128\n      jump\t// in\n    tag_442:\n      dup1\n      iszero\n      tag_443\n      jumpi\n      dup1\n      0x1f\n      lt\n      tag_444\n      jumpi\n      0x0100\n      dup1\n      dup4\n      sload\n      div\n      mul\n      dup4\n      mstore\n      swap2\n      0x20\n      add\n      swap2\n      jump(tag_443)\n    tag_444:\n      dup3\n      add\n      swap2\n      swap1\n      0x00\n      mstore\n      keccak256(0x00, 0x20)\n      swap1\n    tag_445:\n      dup2\n      sload\n      dup2\n      mstore\n      swap1\n      0x01\n      add\n      swap1\n      0x20\n      add\n      dup1\n      dup4\n      gt\n      tag_445\n      jumpi\n      dup3\n      swap1\n      sub\n      0x1f\n      and\n      dup3\n      add\n      swap2\n    tag_443:\n      pop\n      pop\n      pop\n      pop\n      pop\n      dup2\n      mstore\n      0x20\n      add\n      swap1\n      0x01\n      add\n      swap1\n      jump(tag_438)\n    tag_439:\n      pop\n      pop\n      pop\n      pop\n      swap4\n      pop\n        /* \"contracts/Shops.sol\":5207:5214  sellers */\n      0x08\n        /* \"contracts/Shops.sol\":5193:5214  sellersAddr = sellers */\n      dup1\n      sload\n      dup1\n      0x20\n      mul\n      0x20\n      add\n      mload(0x40)\n      swap1\n      dup2\n      add\n      0x40\n      mstore\n      dup1\n      swap3\n      swap2\n      swap1\n      dup2\n      dup2\n      mstore\n      0x20\n      add\n      dup3\n      dup1\n      sload\n      dup1\n      iszero\n      tag_446\n      jumpi\n      0x20\n      mul\n      dup3\n      add\n      swap2\n      swap1\n      0x00\n      mstore\n      keccak256(0x00, 0x20)\n      swap1\n    tag_447:\n      dup2\n      0x00\n      swap1\n      sload\n      swap1\n      0x0100\n      exp\n      swap1\n      div\n      0xffffffffffffffffffffffffffffffffffffffff\n      and\n      0xffffffffffffffffffffffffffffffffffffffff\n      and\n      dup2\n      mstore\n      0x20\n      add\n      swap1\n      0x01\n      add\n      swap1\n      dup1\n      dup4\n      gt\n      tag_447\n      jumpi\n    tag_446:\n      pop\n      pop\n      pop\n      pop\n      pop\n      swap3\n      pop\n        /* \"contracts/Shops.sol\":5043:5221  {... */\n      pop\n        /* \"contracts/Shops.sol\":4823:5221  function getAdminInfo() public view isUserStatus(UserRoles.admin) returns(... */\n      pop\n      swap1\n      swap2\n      swap3\n      swap4\n      jump\t// out\n        /* \"contracts/Shops.sol\":8807:9152  function getRequestById(string memory id) public view returns(... */\n    tag_105:\n        /* \"contracts/Shops.sol\":8878:8894  address userAddr */\n      0x00\n        /* \"contracts/Shops.sol\":8904:8929  string memory currentRole */\n      0x60\n        /* \"contracts/Shops.sol\":8939:8964  string memory desiredRole */\n      dup1\n        /* \"contracts/Shops.sol\":8980:8997  Request memory rq */\n      0x00\n        /* \"contracts/Shops.sol\":9000:9009  requestId */\n      0x0f\n        /* \"contracts/Shops.sol\":9010:9012  id */\n      dup6\n        /* \"contracts/Shops.sol\":9000:9013  requestId[id] */\n      mload(0x40)\n      tag_449\n      swap2\n      swap1\n      tag_163\n      jump\t// in\n    tag_449:\n      swap1\n      dup2\n      mstore\n      0x20\n      add\n      mload(0x40)\n      dup1\n      swap2\n      sub\n      swap1\n      keccak256\n        /* \"contracts/Shops.sol\":8980:9013  Request memory rq = requestId[id] */\n      mload(0x40)\n      dup1\n      0x80\n      add\n      0x40\n      mstore\n      swap1\n      dup2\n      0x00\n      dup3\n      add\n      0x00\n      swap1\n      sload\n      swap1\n      0x0100\n      exp\n      swap1\n      div\n      0xffffffffffffffffffffffffffffffffffffffff\n      and\n      0xffffffffffffffffffffffffffffffffffffffff\n      and\n      0xffffffffffffffffffffffffffffffffffffffff\n      and\n      dup2\n      mstore\n      0x20\n      add\n      0x01\n      dup3\n      add\n      sload\n      dup2\n      mstore\n      0x20\n      add\n      0x02\n      dup3\n      add\n      sload\n      dup2\n      mstore\n      0x20\n      add\n      0x03\n      dup3\n      add\n      0x00\n      swap1\n      sload\n      swap1\n      0x0100\n      exp\n      swap1\n      div\n      0xff\n      and\n      iszero\n      iszero\n      iszero\n      iszero\n      dup2\n      mstore\n      pop\n      pop\n      swap1\n      pop\n        /* \"contracts/Shops.sol\":9034:9036  rq */\n      dup1\n        /* \"contracts/Shops.sol\":9034:9045  rq.userAddr */\n      0x00\n      add\n      mload\n        /* \"contracts/Shops.sol\":9023:9045  userAddr = rq.userAddr */\n      swap4\n      pop\n        /* \"contracts/Shops.sol\":9069:9079  userStatus */\n      0x00\n        /* \"contracts/Shops.sol\":9069:9095  userStatus[rq.currentRole] */\n      dup1\n        /* \"contracts/Shops.sol\":9080:9082  rq */\n      dup3\n        /* \"contracts/Shops.sol\":9080:9094  rq.currentRole */\n      0x20\n      add\n      mload\n        /* \"contracts/Shops.sol\":9069:9095  userStatus[rq.currentRole] */\n      dup2\n      mstore\n      0x20\n      add\n      swap1\n      dup2\n      mstore\n      0x20\n      add\n      0x00\n      keccak256\n        /* \"contracts/Shops.sol\":9055:9095  currentRole = userStatus[rq.currentRole] */\n      dup1\n      sload\n      tag_450\n      swap1\n      tag_128\n      jump\t// in\n    tag_450:\n      dup1\n      0x1f\n      add\n      0x20\n      dup1\n      swap2\n      div\n      mul\n      0x20\n      add\n      mload(0x40)\n      swap1\n      dup2\n      add\n      0x40\n      mstore\n      dup1\n      swap3\n      swap2\n      swap1\n      dup2\n      dup2\n      mstore\n      0x20\n      add\n      dup3\n      dup1\n      sload\n      tag_451\n      swap1\n      tag_128\n      jump\t// in\n    tag_451:\n      dup1\n      iszero\n      tag_452\n      jumpi\n      dup1\n      0x1f\n      lt\n      tag_453\n      jumpi\n      0x0100\n      dup1\n      dup4\n      sload\n      div\n      mul\n      dup4\n      mstore\n      swap2\n      0x20\n      add\n      swap2\n      jump(tag_452)\n    tag_453:\n      dup3\n      add\n      swap2\n      swap1\n      0x00\n      mstore\n      keccak256(0x00, 0x20)\n      swap1\n    tag_454:\n      dup2\n      sload\n      dup2\n      mstore\n      swap1\n      0x01\n      add\n      swap1\n      0x20\n      add\n      dup1\n      dup4\n      gt\n      tag_454\n      jumpi\n      dup3\n      swap1\n      sub\n      0x1f\n      and\n      dup3\n      add\n      swap2\n    tag_452:\n      pop\n      pop\n      pop\n      pop\n      pop\n      swap3\n      pop\n        /* \"contracts/Shops.sol\":9119:9129  userStatus */\n      0x00\n        /* \"contracts/Shops.sol\":9119:9145  userStatus[rq.desiredRole] */\n      dup1\n        /* \"contracts/Shops.sol\":9130:9132  rq */\n      dup3\n        /* \"contracts/Shops.sol\":9130:9144  rq.desiredRole */\n      0x40\n      add\n      mload\n        /* \"contracts/Shops.sol\":9119:9145  userStatus[rq.desiredRole] */\n      dup2\n      mstore\n      0x20\n      add\n      swap1\n      dup2\n      mstore\n      0x20\n      add\n      0x00\n      keccak256\n        /* \"contracts/Shops.sol\":9105:9145  desiredRole = userStatus[rq.desiredRole] */\n      dup1\n      sload\n      tag_455\n      swap1\n      tag_128\n      jump\t// in\n    tag_455:\n      dup1\n      0x1f\n      add\n      0x20\n      dup1\n      swap2\n      div\n      mul\n      0x20\n      add\n      mload(0x40)\n      swap1\n      dup2\n      add\n      0x40\n      mstore\n      dup1\n      swap3\n      swap2\n      swap1\n      dup2\n      dup2\n      mstore\n      0x20\n      add\n      dup3\n      dup1\n      sload\n      tag_456\n      swap1\n      tag_128\n      jump\t// in\n    tag_456:\n      dup1\n      iszero\n      tag_457\n      jumpi\n      dup1\n      0x1f\n      lt\n      tag_458\n      jumpi\n      0x0100\n      dup1\n      dup4\n      sload\n      div\n      mul\n      dup4\n      mstore\n      swap2\n      0x20\n      add\n      swap2\n      jump(tag_457)\n    tag_458:\n      dup3\n      add\n      swap2\n      swap1\n      0x00\n      mstore\n      keccak256(0x00, 0x20)\n      swap1\n    tag_459:\n      dup2\n      sload\n      dup2\n      mstore\n      swap1\n      0x01\n      add\n      swap1\n      0x20\n      add\n      dup1\n      dup4\n      gt\n      tag_459\n      jumpi\n      dup3\n      swap1\n      sub\n      0x1f\n      and\n      dup3\n      add\n      swap2\n    tag_457:\n      pop\n      pop\n      pop\n      pop\n      pop\n      swap2\n      pop\n        /* \"contracts/Shops.sol\":8970:9152  {... */\n      pop\n        /* \"contracts/Shops.sol\":8807:9152  function getRequestById(string memory id) public view returns(... */\n      swap2\n      swap4\n      swap1\n      swap3\n      pop\n      jump\t// out\n        /* \"contracts/Shops.sol\":8441:8801  function deleteShop(address shopAddr) public isUserStatus(UserRoles.admin) {... */\n    tag_110:\n        /* \"contracts/Shops.sol\":8499:8514  UserRoles.admin */\n      0x03\n        /* \"contracts/AuthService.sol\":1616:1621  users */\n      0x02\n        /* \"contracts/AuthService.sol\":1616:1633  users[msg.sender] */\n      0x00\n        /* \"contracts/AuthService.sol\":1622:1632  msg.sender */\n      caller\n        /* \"contracts/AuthService.sol\":1616:1633  users[msg.sender] */\n      0xffffffffffffffffffffffffffffffffffffffff\n      and\n      0xffffffffffffffffffffffffffffffffffffffff\n      and\n      dup2\n      mstore\n      0x20\n      add\n      swap1\n      dup2\n      mstore\n      0x20\n      add\n      0x00\n      keccak256\n        /* \"contracts/AuthService.sol\":1616:1640  users[msg.sender].status */\n      0x00\n      add\n      sload\n        /* \"contracts/AuthService.sol\":1605:1611  status */\n      dup2\n        /* \"contracts/AuthService.sol\":1600:1612  uint(status) */\n      0x05\n      dup2\n      gt\n      iszero\n      tag_461\n      jumpi\n      tag_462\n      tag_122\n      jump\t// in\n    tag_462:\n    tag_461:\n        /* \"contracts/AuthService.sol\":1600:1640  uint(status) == users[msg.sender].status */\n      eq\n        /* \"contracts/AuthService.sol\":1592:1653  require(uint(status) == users[msg.sender].status,\"Forbidden\") */\n      tag_463\n      jumpi\n      mload(0x40)\n      0x08c379a000000000000000000000000000000000000000000000000000000000\n      dup2\n      mstore\n      0x04\n      add\n      tag_464\n      swap1\n      tag_125\n      jump\t// in\n    tag_464:\n      mload(0x40)\n      dup1\n      swap2\n      sub\n      swap1\n      revert\n    tag_463:\n        /* \"contracts/Shops.sol\":8526:8554  address[] memory shopSellers */\n      0x00\n        /* \"contracts/Shops.sol\":8557:8565  salesmen */\n      0x0c\n        /* \"contracts/Shops.sol\":8557:8575  salesmen[shopAddr] */\n      0x00\n        /* \"contracts/Shops.sol\":8566:8574  shopAddr */\n      dup5\n        /* \"contracts/Shops.sol\":8557:8575  salesmen[shopAddr] */\n      0xffffffffffffffffffffffffffffffffffffffff\n      and\n      0xffffffffffffffffffffffffffffffffffffffff\n      and\n      dup2\n      mstore\n      0x20\n      add\n      swap1\n      dup2\n      mstore\n      0x20\n      add\n      0x00\n      keccak256\n        /* \"contracts/Shops.sol\":8526:8575  address[] memory shopSellers = salesmen[shopAddr] */\n      dup1\n      sload\n      dup1\n      0x20\n      mul\n      0x20\n      add\n      mload(0x40)\n      swap1\n      dup2\n      add\n      0x40\n      mstore\n      dup1\n      swap3\n      swap2\n      swap1\n      dup2\n      dup2\n      mstore\n      0x20\n      add\n      dup3\n      dup1\n      sload\n      dup1\n      iszero\n      tag_466\n      jumpi\n      0x20\n      mul\n      dup3\n      add\n      swap2\n      swap1\n      0x00\n      mstore\n      keccak256(0x00, 0x20)\n      swap1\n    tag_467:\n      dup2\n      0x00\n      swap1\n      sload\n      swap1\n      0x0100\n      exp\n      swap1\n      div\n      0xffffffffffffffffffffffffffffffffffffffff\n      and\n      0xffffffffffffffffffffffffffffffffffffffff\n      and\n      dup2\n      mstore\n      0x20\n      add\n      swap1\n      0x01\n      add\n      swap1\n      dup1\n      dup4\n      gt\n      tag_467\n      jumpi\n    tag_466:\n      pop\n      pop\n      pop\n      pop\n      pop\n      swap1\n      pop\n        /* \"contracts/Shops.sol\":8589:8595  uint i */\n      0x00\n        /* \"contracts/Shops.sol\":8585:8723  for(uint i;i<shopSellers.length;i++){... */\n    tag_468:\n        /* \"contracts/Shops.sol\":8598:8609  shopSellers */\n      dup2\n        /* \"contracts/Shops.sol\":8598:8616  shopSellers.length */\n      mload\n        /* \"contracts/Shops.sol\":8596:8597  i */\n      dup2\n        /* \"contracts/Shops.sol\":8596:8616  i<shopSellers.length */\n      lt\n        /* \"contracts/Shops.sol\":8585:8723  for(uint i;i<shopSellers.length;i++){... */\n      iszero\n      tag_469\n      jumpi\n        /* \"contracts/Shops.sol\":8635:8653  address sellerAddr */\n      0x00\n        /* \"contracts/Shops.sol\":8656:8667  shopSellers */\n      dup3\n        /* \"contracts/Shops.sol\":8668:8669  i */\n      dup3\n        /* \"contracts/Shops.sol\":8656:8670  shopSellers[i] */\n      dup2\n      mload\n      dup2\n      lt\n      tag_471\n      jumpi\n      tag_472\n      tag_473\n      jump\t// in\n    tag_472:\n    tag_471:\n      0x20\n      mul\n      0x20\n      add\n      add\n      mload\n        /* \"contracts/Shops.sol\":8635:8670  address sellerAddr = shopSellers[i] */\n      swap1\n      pop\n        /* \"contracts/Shops.sol\":8711:8712  0 */\n      0x00\n        /* \"contracts/Shops.sol\":8684:8689  users */\n      0x02\n        /* \"contracts/Shops.sol\":8684:8701  users[sellerAddr] */\n      0x00\n        /* \"contracts/Shops.sol\":8690:8700  sellerAddr */\n      dup4\n        /* \"contracts/Shops.sol\":8684:8701  users[sellerAddr] */\n      0xffffffffffffffffffffffffffffffffffffffff\n      and\n      0xffffffffffffffffffffffffffffffffffffffff\n      and\n      dup2\n      mstore\n      0x20\n      add\n      swap1\n      dup2\n      mstore\n      0x20\n      add\n      0x00\n      keccak256\n        /* \"contracts/Shops.sol\":8684:8708  users[sellerAddr].status */\n      0x00\n      add\n        /* \"contracts/Shops.sol\":8684:8712  users[sellerAddr].status = 0 */\n      dup2\n      swap1\n      sstore\n      pop\n        /* \"contracts/Shops.sol\":8621:8723  {... */\n      pop\n        /* \"contracts/Shops.sol\":8617:8620  i++ */\n      dup1\n      dup1\n      tag_474\n      swap1\n      tag_475\n      jump\t// in\n    tag_474:\n      swap2\n      pop\n      pop\n        /* \"contracts/Shops.sol\":8585:8723  for(uint i;i<shopSellers.length;i++){... */\n      jump(tag_468)\n    tag_469:\n      pop\n        /* \"contracts/Shops.sol\":8739:8748  ShopsList */\n      0x0a\n        /* \"contracts/Shops.sol\":8739:8758  ShopsList[shopAddr] */\n      0x00\n        /* \"contracts/Shops.sol\":8749:8757  shopAddr */\n      dup5\n        /* \"contracts/Shops.sol\":8739:8758  ShopsList[shopAddr] */\n      0xffffffffffffffffffffffffffffffffffffffff\n      and\n      0xffffffffffffffffffffffffffffffffffffffff\n      and\n      dup2\n      mstore\n      0x20\n      add\n      swap1\n      dup2\n      mstore\n      0x20\n      add\n      0x00\n      keccak256\n      0x00\n        /* \"contracts/Shops.sol\":8732:8758  delete ShopsList[shopAddr] */\n      dup1\n      dup3\n      add\n      0x00\n      tag_476\n      swap2\n      swap1\n      tag_477\n      jump\t// in\n    tag_476:\n      0x01\n      dup3\n      add\n      0x00\n      tag_478\n      swap2\n      swap1\n      tag_477\n      jump\t// in\n    tag_478:\n      0x02\n      dup3\n      add\n      0x00\n      swap1\n      sstore\n      pop\n      pop\n        /* \"contracts/Shops.sol\":8775:8783  salesmen */\n      0x0c\n        /* \"contracts/Shops.sol\":8775:8793  salesmen[shopAddr] */\n      0x00\n        /* \"contracts/Shops.sol\":8784:8792  shopAddr */\n      dup5\n        /* \"contracts/Shops.sol\":8775:8793  salesmen[shopAddr] */\n      0xffffffffffffffffffffffffffffffffffffffff\n      and\n      0xffffffffffffffffffffffffffffffffffffffff\n      and\n      dup2\n      mstore\n      0x20\n      add\n      swap1\n      dup2\n      mstore\n      0x20\n      add\n      0x00\n      keccak256\n      0x00\n        /* \"contracts/Shops.sol\":8768:8793  delete salesmen[shopAddr] */\n      tag_479\n      swap2\n      swap1\n      tag_480\n      jump\t// in\n    tag_479:\n        /* \"contracts/Shops.sol\":8516:8801  {... */\n      pop\n        /* \"contracts/Shops.sol\":8441:8801  function deleteShop(address shopAddr) public isUserStatus(UserRoles.admin) {... */\n      pop\n      pop\n      jump\t// out\n        /* \"contracts/Shops.sol\":1223:1448  function registerAdmin(string memory fio,string memory userLogin) isAdmin public {... */\n    tag_114:\n        /* \"contracts/Shops.sol\":1065:1070  admin */\n      0x05\n      0x00\n      swap1\n      sload\n      swap1\n      0x0100\n      exp\n      swap1\n      div\n      0xffffffffffffffffffffffffffffffffffffffff\n      and\n        /* \"contracts/Shops.sol\":1051:1070  msg.sender == admin */\n      0xffffffffffffffffffffffffffffffffffffffff\n      and\n        /* \"contracts/Shops.sol\":1051:1061  msg.sender */\n      caller\n        /* \"contracts/Shops.sol\":1051:1070  msg.sender == admin */\n      0xffffffffffffffffffffffffffffffffffffffff\n      and\n      eq\n        /* \"contracts/Shops.sol\":1043:1087  require(msg.sender == admin,\"You not admin\") */\n      tag_482\n      jumpi\n      mload(0x40)\n      0x08c379a000000000000000000000000000000000000000000000000000000000\n      dup2\n      mstore\n      0x04\n      add\n      tag_483\n      swap1\n      tag_169\n      jump\t// in\n    tag_483:\n      mload(0x40)\n      dup1\n      swap2\n      sub\n      swap1\n      revert\n    tag_482:\n        /* \"contracts/Shops.sol\":1314:1325  uint status */\n      0x00\n        /* \"contracts/Shops.sol\":1333:1348  UserRoles.admin */\n      0x03\n        /* \"contracts/Shops.sol\":1328:1349  uint(UserRoles.admin) */\n      0x05\n      dup2\n      gt\n      iszero\n      tag_485\n      jumpi\n      tag_486\n      tag_122\n      jump\t// in\n    tag_486:\n    tag_485:\n        /* \"contracts/Shops.sol\":1314:1349  uint status = uint(UserRoles.admin) */\n      swap1\n      pop\n        /* \"contracts/Shops.sol\":1359:1409  registerFromAdmin(fio,userLogin,status,msg.sender) */\n      tag_487\n        /* \"contracts/Shops.sol\":1377:1380  fio */\n      dup4\n        /* \"contracts/Shops.sol\":1381:1390  userLogin */\n      dup4\n        /* \"contracts/Shops.sol\":1391:1397  status */\n      dup4\n        /* \"contracts/Shops.sol\":1398:1408  msg.sender */\n      caller\n        /* \"contracts/Shops.sol\":1359:1376  registerFromAdmin */\n      tag_174\n        /* \"contracts/Shops.sol\":1359:1409  registerFromAdmin(fio,userLogin,status,msg.sender) */\n      jump\t// in\n    tag_487:\n        /* \"contracts/Shops.sol\":1419:1425  admins */\n      0x06\n        /* \"contracts/Shops.sol\":1431:1440  userLogin */\n      dup3\n        /* \"contracts/Shops.sol\":1419:1441  admins.push(userLogin) */\n      swap1\n      dup1\n      0x01\n      dup2\n      sload\n      add\n      dup1\n      dup3\n      sstore\n      dup1\n      swap2\n      pop\n      pop\n      0x01\n      swap1\n      sub\n      swap1\n      0x00\n      mstore\n      keccak256(0x00, 0x20)\n      add\n      0x00\n      swap1\n      swap2\n      swap1\n      swap2\n      swap1\n      swap2\n      pop\n      swap1\n      dup1\n      mload\n      swap1\n      0x20\n      add\n      swap1\n      tag_489\n      swap3\n      swap2\n      swap1\n      tag_189\n      jump\t// in\n    tag_489:\n      pop\n        /* \"contracts/Shops.sol\":1304:1448  {... */\n      pop\n        /* \"contracts/Shops.sol\":1223:1448  function registerAdmin(string memory fio,string memory userLogin) isAdmin public {... */\n      pop\n      pop\n      jump\t// out\n        /* \"contracts/Shops.sol\":8300:8435  function getAllRequests() public view isUserStatus(UserRoles.admin) returns(string[] memory requestsId){... */\n    tag_116:\n        /* \"contracts/Shops.sol\":8376:8402  string[] memory requestsId */\n      0x60\n        /* \"contracts/Shops.sol\":8351:8366  UserRoles.admin */\n      0x03\n        /* \"contracts/AuthService.sol\":1616:1621  users */\n      0x02\n        /* \"contracts/AuthService.sol\":1616:1633  users[msg.sender] */\n      0x00\n        /* \"contracts/AuthService.sol\":1622:1632  msg.sender */\n      caller\n        /* \"contracts/AuthService.sol\":1616:1633  users[msg.sender] */\n      0xffffffffffffffffffffffffffffffffffffffff\n      and\n      0xffffffffffffffffffffffffffffffffffffffff\n      and\n      dup2\n      mstore\n      0x20\n      add\n      swap1\n      dup2\n      mstore\n      0x20\n      add\n      0x00\n      keccak256\n        /* \"contracts/AuthService.sol\":1616:1640  users[msg.sender].status */\n      0x00\n      add\n      sload\n        /* \"contracts/AuthService.sol\":1605:1611  status */\n      dup2\n        /* \"contracts/AuthService.sol\":1600:1612  uint(status) */\n      0x05\n      dup2\n      gt\n      iszero\n      tag_491\n      jumpi\n      tag_492\n      tag_122\n      jump\t// in\n    tag_492:\n    tag_491:\n        /* \"contracts/AuthService.sol\":1600:1640  uint(status) == users[msg.sender].status */\n      eq\n        /* \"contracts/AuthService.sol\":1592:1653  require(uint(status) == users[msg.sender].status,\"Forbidden\") */\n      tag_493\n      jumpi\n      mload(0x40)\n      0x08c379a000000000000000000000000000000000000000000000000000000000\n      dup2\n      mstore\n      0x04\n      add\n      tag_494\n      swap1\n      tag_125\n      jump\t// in\n    tag_494:\n      mload(0x40)\n      dup1\n      swap2\n      sub\n      swap1\n      revert\n    tag_493:\n        /* \"contracts/Shops.sol\":8420:8428  requests */\n      0x09\n        /* \"contracts/Shops.sol\":8413:8428  return requests */\n      dup1\n      sload\n      dup1\n      0x20\n      mul\n      0x20\n      add\n      mload(0x40)\n      swap1\n      dup2\n      add\n      0x40\n      mstore\n      dup1\n      swap3\n      swap2\n      swap1\n      dup2\n      dup2\n      mstore\n      0x20\n      add\n      0x00\n      swap1\n    tag_496:\n      dup3\n      dup3\n      lt\n      iszero\n      tag_497\n      jumpi\n      dup4\n      dup3\n      swap1\n      0x00\n      mstore\n      keccak256(0x00, 0x20)\n      add\n      dup1\n      sload\n      tag_499\n      swap1\n      tag_128\n      jump\t// in\n    tag_499:\n      dup1\n      0x1f\n      add\n      0x20\n      dup1\n      swap2\n      div\n      mul\n      0x20\n      add\n      mload(0x40)\n      swap1\n      dup2\n      add\n      0x40\n      mstore\n      dup1\n      swap3\n      swap2\n      swap1\n      dup2\n      dup2\n      mstore\n      0x20\n      add\n      dup3\n      dup1\n      sload\n      tag_500\n      swap1\n      tag_128\n      jump\t// in\n    tag_500:\n      dup1\n      iszero\n      tag_501\n      jumpi\n      dup1\n      0x1f\n      lt\n      tag_502\n      jumpi\n      0x0100\n      dup1\n      dup4\n      sload\n      div\n      mul\n      dup4\n      mstore\n      swap2\n      0x20\n      add\n      swap2\n      jump(tag_501)\n    tag_502:\n      dup3\n      add\n      swap2\n      swap1\n      0x00\n      mstore\n      keccak256(0x00, 0x20)\n      swap1\n    tag_503:\n      dup2\n      sload\n      dup2\n      mstore\n      swap1\n      0x01\n      add\n      swap1\n      0x20\n      add\n      dup1\n      dup4\n      gt\n      tag_503\n      jumpi\n      dup3\n      swap1\n      sub\n      0x1f\n      and\n      dup3\n      add\n      swap2\n    tag_501:\n      pop\n      pop\n      pop\n      pop\n      pop\n      dup2\n      mstore\n      0x20\n      add\n      swap1\n      0x01\n      add\n      swap1\n      jump(tag_496)\n    tag_497:\n      pop\n      pop\n      pop\n      pop\n      swap2\n      pop\n        /* \"contracts/Shops.sol\":8300:8435  function getAllRequests() public view isUserStatus(UserRoles.admin) returns(string[] memory requestsId){... */\n      pop\n      swap1\n      jump\t// out\n        /* \"contracts/AuthService.sol\":1874:2249  function registerFromAdmin(string memory fio,string memory userLogin,uint status,address userAddress) internal isNotRegistered(userAddress,userLogin){... */\n    tag_174:\n        /* \"contracts/AuthService.sol\":2001:2012  userAddress */\n      dup1\n        /* \"contracts/AuthService.sol\":2013:2022  userLogin */\n      dup4\n        /* \"contracts/AuthService.sol\":1038:1072  compare(users[userAddress].fio,\"\") */\n      tag_505\n        /* \"contracts/AuthService.sol\":1046:1051  users */\n      0x02\n        /* \"contracts/AuthService.sol\":1046:1064  users[userAddress] */\n      0x00\n        /* \"contracts/AuthService.sol\":1052:1063  userAddress */\n      dup5\n        /* \"contracts/AuthService.sol\":1046:1064  users[userAddress] */\n      0xffffffffffffffffffffffffffffffffffffffff\n      and\n      0xffffffffffffffffffffffffffffffffffffffff\n      and\n      dup2\n      mstore\n      0x20\n      add\n      swap1\n      dup2\n      mstore\n      0x20\n      add\n      0x00\n      keccak256\n        /* \"contracts/AuthService.sol\":1046:1068  users[userAddress].fio */\n      0x02\n      add\n        /* \"contracts/AuthService.sol\":1038:1072  compare(users[userAddress].fio,\"\") */\n      dup1\n      sload\n      tag_506\n      swap1\n      tag_128\n      jump\t// in\n    tag_506:\n      dup1\n      0x1f\n      add\n      0x20\n      dup1\n      swap2\n      div\n      mul\n      0x20\n      add\n      mload(0x40)\n      swap1\n      dup2\n      add\n      0x40\n      mstore\n      dup1\n      swap3\n      swap2\n      swap1\n      dup2\n      dup2\n      mstore\n      0x20\n      add\n      dup3\n      dup1\n      sload\n      tag_507\n      swap1\n      tag_128\n      jump\t// in\n    tag_507:\n      dup1\n      iszero\n      tag_508\n      jumpi\n      dup1\n      0x1f\n      lt\n      tag_509\n      jumpi\n      0x0100\n      dup1\n      dup4\n      sload\n      div\n      mul\n      dup4\n      mstore\n      swap2\n      0x20\n      add\n      swap2\n      jump(tag_508)\n    tag_509:\n      dup3\n      add\n      swap2\n      swap1\n      0x00\n      mstore\n      keccak256(0x00, 0x20)\n      swap1\n    tag_510:\n      dup2\n      sload\n      dup2\n      mstore\n      swap1\n      0x01\n      add\n      swap1\n      0x20\n      add\n      dup1\n      dup4\n      gt\n      tag_510\n      jumpi\n      dup3\n      swap1\n      sub\n      0x1f\n      and\n      dup3\n      add\n      swap2\n    tag_508:\n      pop\n      pop\n      pop\n      pop\n      pop\n      mload(0x40)\n      dup1\n      0x20\n      add\n      0x40\n      mstore\n      dup1\n      0x00\n      dup2\n      mstore\n      pop\n        /* \"contracts/AuthService.sol\":1038:1045  compare */\n      tag_182\n        /* \"contracts/AuthService.sol\":1038:1072  compare(users[userAddress].fio,\"\") */\n      jump\t// in\n    tag_505:\n        /* \"contracts/AuthService.sol\":1030:1098  require(compare(users[userAddress].fio,\"\"),\"You already registered\") */\n      tag_511\n      jumpi\n      mload(0x40)\n      0x08c379a000000000000000000000000000000000000000000000000000000000\n      dup2\n      mstore\n      0x04\n      add\n      tag_512\n      swap1\n      tag_513\n      jump\t// in\n    tag_512:\n      mload(0x40)\n      dup1\n      swap2\n      sub\n      swap1\n      revert\n    tag_511:\n        /* \"contracts/AuthService.sol\":1149:1150  0 */\n      0x00\n        /* \"contracts/AuthService.sol\":1116:1151  userLogins[userLogin] == address(0) */\n      0xffffffffffffffffffffffffffffffffffffffff\n      and\n        /* \"contracts/AuthService.sol\":1116:1126  userLogins */\n      0x01\n        /* \"contracts/AuthService.sol\":1127:1136  userLogin */\n      dup3\n        /* \"contracts/AuthService.sol\":1116:1137  userLogins[userLogin] */\n      mload(0x40)\n      tag_514\n      swap2\n      swap1\n      tag_163\n      jump\t// in\n    tag_514:\n      swap1\n      dup2\n      mstore\n      0x20\n      add\n      mload(0x40)\n      dup1\n      swap2\n      sub\n      swap1\n      keccak256\n      0x00\n      swap1\n      sload\n      swap1\n      0x0100\n      exp\n      swap1\n      div\n      0xffffffffffffffffffffffffffffffffffffffff\n      and\n        /* \"contracts/AuthService.sol\":1116:1151  userLogins[userLogin] == address(0) */\n      0xffffffffffffffffffffffffffffffffffffffff\n      and\n      eq\n        /* \"contracts/AuthService.sol\":1108:1189  require(userLogins[userLogin] == address(0),\"Your login already exist in system\") */\n      tag_515\n      jumpi\n      mload(0x40)\n      0x08c379a000000000000000000000000000000000000000000000000000000000\n      dup2\n      mstore\n      0x04\n      add\n      tag_516\n      swap1\n      tag_517\n      jump\t// in\n    tag_516:\n      mload(0x40)\n      dup1\n      swap2\n      sub\n      swap1\n      revert\n    tag_515:\n        /* \"contracts/AuthService.sol\":2033:2059  string[] memory reviewList */\n      0x60\n        /* \"contracts/AuthService.sol\":2069:2088  User memory newUser */\n      0x00\n        /* \"contracts/AuthService.sol\":2091:2159  User({fio:fio,userLogin:userLogin,status:status,reviews:reviewList}) */\n      mload(0x40)\n      dup1\n      0x80\n      add\n      0x40\n      mstore\n      dup1\n        /* \"contracts/AuthService.sol\":2132:2138  status */\n      dup8\n        /* \"contracts/AuthService.sol\":2091:2159  User({fio:fio,userLogin:userLogin,status:status,reviews:reviewList}) */\n      dup2\n      mstore\n      0x20\n      add\n        /* \"contracts/AuthService.sol\":2115:2124  userLogin */\n      dup9\n        /* \"contracts/AuthService.sol\":2091:2159  User({fio:fio,userLogin:userLogin,status:status,reviews:reviewList}) */\n      dup2\n      mstore\n      0x20\n      add\n        /* \"contracts/AuthService.sol\":2101:2104  fio */\n      dup10\n        /* \"contracts/AuthService.sol\":2091:2159  User({fio:fio,userLogin:userLogin,status:status,reviews:reviewList}) */\n      dup2\n      mstore\n      0x20\n      add\n        /* \"contracts/AuthService.sol\":2147:2157  reviewList */\n      dup4\n        /* \"contracts/AuthService.sol\":2091:2159  User({fio:fio,userLogin:userLogin,status:status,reviews:reviewList}) */\n      dup2\n      mstore\n      pop\n        /* \"contracts/AuthService.sol\":2069:2159  User memory newUser = User({fio:fio,userLogin:userLogin,status:status,reviews:reviewList}) */\n      swap1\n      pop\n        /* \"contracts/AuthService.sol\":2193:2204  userAddress */\n      dup5\n        /* \"contracts/AuthService.sol\":2169:2179  userLogins */\n      0x01\n        /* \"contracts/AuthService.sol\":2180:2189  userLogin */\n      dup9\n        /* \"contracts/AuthService.sol\":2169:2190  userLogins[userLogin] */\n      mload(0x40)\n      tag_519\n      swap2\n      swap1\n      tag_163\n      jump\t// in\n    tag_519:\n      swap1\n      dup2\n      mstore\n      0x20\n      add\n      mload(0x40)\n      dup1\n      swap2\n      sub\n      swap1\n      keccak256\n      0x00\n        /* \"contracts/AuthService.sol\":2169:2204  userLogins[userLogin] = userAddress */\n      0x0100\n      exp\n      dup2\n      sload\n      dup2\n      0xffffffffffffffffffffffffffffffffffffffff\n      mul\n      not\n      and\n      swap1\n      dup4\n      0xffffffffffffffffffffffffffffffffffffffff\n      and\n      mul\n      or\n      swap1\n      sstore\n      pop\n        /* \"contracts/AuthService.sol\":2235:2242  newUser */\n      dup1\n        /* \"contracts/AuthService.sol\":2214:2219  users */\n      0x02\n        /* \"contracts/AuthService.sol\":2214:2232  users[userAddress] */\n      0x00\n        /* \"contracts/AuthService.sol\":2220:2231  userAddress */\n      dup8\n        /* \"contracts/AuthService.sol\":2214:2232  users[userAddress] */\n      0xffffffffffffffffffffffffffffffffffffffff\n      and\n      0xffffffffffffffffffffffffffffffffffffffff\n      and\n      dup2\n      mstore\n      0x20\n      add\n      swap1\n      dup2\n      mstore\n      0x20\n      add\n      0x00\n      keccak256\n        /* \"contracts/AuthService.sol\":2214:2242  users[userAddress] = newUser */\n      0x00\n      dup3\n      add\n      mload\n      dup2\n      0x00\n      add\n      sstore\n      0x20\n      dup3\n      add\n      mload\n      dup2\n      0x01\n      add\n      swap1\n      dup1\n      mload\n      swap1\n      0x20\n      add\n      swap1\n      tag_520\n      swap3\n      swap2\n      swap1\n      tag_189\n      jump\t// in\n    tag_520:\n      pop\n      0x40\n      dup3\n      add\n      mload\n      dup2\n      0x02\n      add\n      swap1\n      dup1\n      mload\n      swap1\n      0x20\n      add\n      swap1\n      tag_521\n      swap3\n      swap2\n      swap1\n      tag_189\n      jump\t// in\n    tag_521:\n      pop\n      0x60\n      dup3\n      add\n      mload\n      dup2\n      0x03\n      add\n      swap1\n      dup1\n      mload\n      swap1\n      0x20\n      add\n      swap1\n      tag_522\n      swap3\n      swap2\n      swap1\n      tag_523\n      jump\t// in\n    tag_522:\n      pop\n      swap1\n      pop\n      pop\n        /* \"contracts/AuthService.sol\":2023:2249  {... */\n      pop\n      pop\n        /* \"contracts/AuthService.sol\":1874:2249  function registerFromAdmin(string memory fio,string memory userLogin,uint status,address userAddress) internal isNotRegistered(userAddress,userLogin){... */\n      pop\n      pop\n      pop\n      pop\n      pop\n      pop\n      jump\t// out\n        /* \"contracts/AuthService.sol\":779:945  function compare(string memory a,string memory b) internal pure returns (bool){... */\n    tag_182:\n        /* \"contracts/AuthService.sol\":852:856  bool */\n      0x00\n        /* \"contracts/AuthService.sol\":935:936  b */\n      dup2\n        /* \"contracts/AuthService.sol\":918:937  abi.encodePacked(b) */\n      add(0x20, mload(0x40))\n      tag_525\n      swap2\n      swap1\n      tag_163\n      jump\t// in\n    tag_525:\n      mload(0x40)\n      0x20\n      dup2\n      dup4\n      sub\n      sub\n      dup2\n      mstore\n      swap1\n      0x40\n      mstore\n        /* \"contracts/AuthService.sol\":908:938  keccak256(abi.encodePacked(b)) */\n      dup1\n      mload\n      swap1\n      0x20\n      add\n      keccak256\n        /* \"contracts/AuthService.sol\":901:902  a */\n      dup4\n        /* \"contracts/AuthService.sol\":884:903  abi.encodePacked(a) */\n      add(0x20, mload(0x40))\n      tag_526\n      swap2\n      swap1\n      tag_163\n      jump\t// in\n    tag_526:\n      mload(0x40)\n      0x20\n      dup2\n      dup4\n      sub\n      sub\n      dup2\n      mstore\n      swap1\n      0x40\n      mstore\n        /* \"contracts/AuthService.sol\":874:904  keccak256(abi.encodePacked(a)) */\n      dup1\n      mload\n      swap1\n      0x20\n      add\n      keccak256\n        /* \"contracts/AuthService.sol\":874:938  keccak256(abi.encodePacked(a)) == keccak256(abi.encodePacked(b)) */\n      eq\n        /* \"contracts/AuthService.sol\":867:938  return keccak256(abi.encodePacked(a)) == keccak256(abi.encodePacked(b)) */\n      swap1\n      pop\n        /* \"contracts/AuthService.sol\":779:945  function compare(string memory a,string memory b) internal pure returns (bool){... */\n      swap3\n      swap2\n      pop\n      pop\n      jump\t// out\n    tag_189:\n      dup3\n      dup1\n      sload\n      tag_527\n      swap1\n      tag_128\n      jump\t// in\n    tag_527:\n      swap1\n      0x00\n      mstore\n      keccak256(0x00, 0x20)\n      swap1\n      0x1f\n      add\n      0x20\n      swap1\n      div\n      dup2\n      add\n      swap3\n      dup3\n      tag_529\n      jumpi\n      0x00\n      dup6\n      sstore\n      jump(tag_528)\n    tag_529:\n      dup3\n      0x1f\n      lt\n      tag_530\n      jumpi\n      dup1\n      mload\n      not(0xff)\n      and\n      dup4\n      dup1\n      add\n      or\n      dup6\n      sstore\n      jump(tag_528)\n    tag_530:\n      dup3\n      dup1\n      add\n      0x01\n      add\n      dup6\n      sstore\n      dup3\n      iszero\n      tag_528\n      jumpi\n      swap2\n      dup3\n      add\n    tag_531:\n      dup3\n      dup2\n      gt\n      iszero\n      tag_532\n      jumpi\n      dup3\n      mload\n      dup3\n      sstore\n      swap2\n      0x20\n      add\n      swap2\n      swap1\n      0x01\n      add\n      swap1\n      jump(tag_531)\n    tag_532:\n    tag_528:\n      pop\n      swap1\n      pop\n      tag_533\n      swap2\n      swap1\n      tag_534\n      jump\t// in\n    tag_533:\n      pop\n      swap1\n      jump\t// out\n    tag_195:\n      dup3\n      dup1\n      sload\n      dup3\n      dup3\n      sstore\n      swap1\n      0x00\n      mstore\n      keccak256(0x00, 0x20)\n      swap1\n      dup2\n      add\n      swap3\n      dup3\n      iszero\n      tag_535\n      jumpi\n      swap2\n      0x20\n      mul\n      dup3\n      add\n    tag_536:\n      dup3\n      dup2\n      gt\n      iszero\n      tag_537\n      jumpi\n      dup3\n      mload\n      dup3\n      exp(0x0100, 0x00)\n      dup2\n      sload\n      dup2\n      0xffffffffffffffffffffffffffffffffffffffff\n      mul\n      not\n      and\n      swap1\n      dup4\n      0xffffffffffffffffffffffffffffffffffffffff\n      and\n      mul\n      or\n      swap1\n      sstore\n      pop\n      swap2\n      0x20\n      add\n      swap2\n      swap1\n      0x01\n      add\n      swap1\n      jump(tag_536)\n    tag_537:\n    tag_535:\n      pop\n      swap1\n      pop\n      tag_538\n      swap2\n      swap1\n      tag_534\n      jump\t// in\n    tag_538:\n      pop\n      swap1\n      jump\t// out\n    tag_477:\n      pop\n      dup1\n      sload\n      tag_539\n      swap1\n      tag_128\n      jump\t// in\n    tag_539:\n      0x00\n      dup3\n      sstore\n      dup1\n      0x1f\n      lt\n      tag_541\n      jumpi\n      pop\n      jump(tag_540)\n    tag_541:\n      0x1f\n      add\n      0x20\n      swap1\n      div\n      swap1\n      0x00\n      mstore\n      keccak256(0x00, 0x20)\n      swap1\n      dup2\n      add\n      swap1\n      tag_542\n      swap2\n      swap1\n      tag_534\n      jump\t// in\n    tag_542:\n    tag_540:\n      pop\n      jump\t// out\n    tag_480:\n      pop\n      dup1\n      sload\n      0x00\n      dup3\n      sstore\n      swap1\n      0x00\n      mstore\n      keccak256(0x00, 0x20)\n      swap1\n      dup2\n      add\n      swap1\n      tag_544\n      swap2\n      swap1\n      tag_534\n      jump\t// in\n    tag_544:\n      pop\n      jump\t// out\n    tag_523:\n      dup3\n      dup1\n      sload\n      dup3\n      dup3\n      sstore\n      swap1\n      0x00\n      mstore\n      keccak256(0x00, 0x20)\n      swap1\n      dup2\n      add\n      swap3\n      dup3\n      iszero\n      tag_545\n      jumpi\n      swap2\n      0x20\n      mul\n      dup3\n      add\n    tag_546:\n      dup3\n      dup2\n      gt\n      iszero\n      tag_547\n      jumpi\n      dup3\n      mload\n      dup3\n      swap1\n      dup1\n      mload\n      swap1\n      0x20\n      add\n      swap1\n      tag_548\n      swap3\n      swap2\n      swap1\n      tag_189\n      jump\t// in\n    tag_548:\n      pop\n      swap2\n      0x20\n      add\n      swap2\n      swap1\n      0x01\n      add\n      swap1\n      jump(tag_546)\n    tag_547:\n    tag_545:\n      pop\n      swap1\n      pop\n      tag_549\n      swap2\n      swap1\n      tag_550\n      jump\t// in\n    tag_549:\n      pop\n      swap1\n      jump\t// out\n    tag_534:\n    tag_551:\n      dup1\n      dup3\n      gt\n      iszero\n      tag_552\n      jumpi\n      0x00\n      dup2\n      0x00\n      swap1\n      sstore\n      pop\n      0x01\n      add\n      jump(tag_551)\n    tag_552:\n      pop\n      swap1\n      jump\t// out\n    tag_550:\n    tag_553:\n      dup1\n      dup3\n      gt\n      iszero\n      tag_554\n      jumpi\n      0x00\n      dup2\n      dup2\n      tag_555\n      swap2\n      swap1\n      tag_477\n      jump\t// in\n    tag_555:\n      pop\n      0x01\n      add\n      jump(tag_553)\n    tag_554:\n      pop\n      swap1\n      jump\t// out\n        /* \"#utility.yul\":7:419   */\n    tag_557:\n        /* \"#utility.yul\":85:90   */\n      0x00\n        /* \"#utility.yul\":110:176   */\n      tag_559\n        /* \"#utility.yul\":126:175   */\n      tag_560\n        /* \"#utility.yul\":168:174   */\n      dup5\n        /* \"#utility.yul\":126:175   */\n      tag_561\n      jump\t// in\n    tag_560:\n        /* \"#utility.yul\":110:176   */\n      tag_562\n      jump\t// in\n    tag_559:\n        /* \"#utility.yul\":101:176   */\n      swap1\n      pop\n        /* \"#utility.yul\":199:205   */\n      dup3\n        /* \"#utility.yul\":192:197   */\n      dup2\n        /* \"#utility.yul\":185:206   */\n      mstore\n        /* \"#utility.yul\":237:241   */\n      0x20\n        /* \"#utility.yul\":230:235   */\n      dup2\n        /* \"#utility.yul\":226:242   */\n      add\n        /* \"#utility.yul\":275:278   */\n      dup5\n        /* \"#utility.yul\":266:272   */\n      dup5\n        /* \"#utility.yul\":261:264   */\n      dup5\n        /* \"#utility.yul\":257:273   */\n      add\n        /* \"#utility.yul\":254:279   */\n      gt\n        /* \"#utility.yul\":251:363   */\n      iszero\n      tag_563\n      jumpi\n        /* \"#utility.yul\":282:361   */\n      tag_564\n      tag_565\n      jump\t// in\n    tag_564:\n        /* \"#utility.yul\":251:363   */\n    tag_563:\n        /* \"#utility.yul\":372:413   */\n      tag_566\n        /* \"#utility.yul\":406:412   */\n      dup5\n        /* \"#utility.yul\":401:404   */\n      dup3\n        /* \"#utility.yul\":396:399   */\n      dup6\n        /* \"#utility.yul\":372:413   */\n      tag_567\n      jump\t// in\n    tag_566:\n        /* \"#utility.yul\":91:419   */\n      pop\n        /* \"#utility.yul\":7:419   */\n      swap4\n      swap3\n      pop\n      pop\n      pop\n      jump\t// out\n        /* \"#utility.yul\":425:564   */\n    tag_568:\n        /* \"#utility.yul\":471:476   */\n      0x00\n        /* \"#utility.yul\":509:515   */\n      dup2\n        /* \"#utility.yul\":496:516   */\n      calldataload\n        /* \"#utility.yul\":487:516   */\n      swap1\n      pop\n        /* \"#utility.yul\":525:558   */\n      tag_570\n        /* \"#utility.yul\":552:557   */\n      dup2\n        /* \"#utility.yul\":525:558   */\n      tag_571\n      jump\t// in\n    tag_570:\n        /* \"#utility.yul\":425:564   */\n      swap3\n      swap2\n      pop\n      pop\n      jump\t// out\n        /* \"#utility.yul\":570:725   */\n    tag_572:\n        /* \"#utility.yul\":624:629   */\n      0x00\n        /* \"#utility.yul\":662:668   */\n      dup2\n        /* \"#utility.yul\":649:669   */\n      calldataload\n        /* \"#utility.yul\":640:669   */\n      swap1\n      pop\n        /* \"#utility.yul\":678:719   */\n      tag_574\n        /* \"#utility.yul\":713:718   */\n      dup2\n        /* \"#utility.yul\":678:719   */\n      tag_575\n      jump\t// in\n    tag_574:\n        /* \"#utility.yul\":570:725   */\n      swap3\n      swap2\n      pop\n      pop\n      jump\t// out\n        /* \"#utility.yul\":731:864   */\n    tag_576:\n        /* \"#utility.yul\":774:779   */\n      0x00\n        /* \"#utility.yul\":812:818   */\n      dup2\n        /* \"#utility.yul\":799:819   */\n      calldataload\n        /* \"#utility.yul\":790:819   */\n      swap1\n      pop\n        /* \"#utility.yul\":828:858   */\n      tag_578\n        /* \"#utility.yul\":852:857   */\n      dup2\n        /* \"#utility.yul\":828:858   */\n      tag_579\n      jump\t// in\n    tag_578:\n        /* \"#utility.yul\":731:864   */\n      swap3\n      swap2\n      pop\n      pop\n      jump\t// out\n        /* \"#utility.yul\":870:1007   */\n    tag_580:\n        /* \"#utility.yul\":915:920   */\n      0x00\n        /* \"#utility.yul\":953:959   */\n      dup2\n        /* \"#utility.yul\":940:960   */\n      calldataload\n        /* \"#utility.yul\":931:960   */\n      swap1\n      pop\n        /* \"#utility.yul\":969:1001   */\n      tag_582\n        /* \"#utility.yul\":995:1000   */\n      dup2\n        /* \"#utility.yul\":969:1001   */\n      tag_583\n      jump\t// in\n    tag_582:\n        /* \"#utility.yul\":870:1007   */\n      swap3\n      swap2\n      pop\n      pop\n      jump\t// out\n        /* \"#utility.yul\":1027:1367   */\n    tag_584:\n        /* \"#utility.yul\":1083:1088   */\n      0x00\n        /* \"#utility.yul\":1132:1135   */\n      dup3\n        /* \"#utility.yul\":1125:1129   */\n      0x1f\n        /* \"#utility.yul\":1117:1123   */\n      dup4\n        /* \"#utility.yul\":1113:1130   */\n      add\n        /* \"#utility.yul\":1109:1136   */\n      slt\n        /* \"#utility.yul\":1099:1221   */\n      tag_586\n      jumpi\n        /* \"#utility.yul\":1140:1219   */\n      tag_587\n      tag_588\n      jump\t// in\n    tag_587:\n        /* \"#utility.yul\":1099:1221   */\n    tag_586:\n        /* \"#utility.yul\":1257:1263   */\n      dup2\n        /* \"#utility.yul\":1244:1264   */\n      calldataload\n        /* \"#utility.yul\":1282:1361   */\n      tag_589\n        /* \"#utility.yul\":1357:1360   */\n      dup5\n        /* \"#utility.yul\":1349:1355   */\n      dup3\n        /* \"#utility.yul\":1342:1346   */\n      0x20\n        /* \"#utility.yul\":1334:1340   */\n      dup7\n        /* \"#utility.yul\":1330:1347   */\n      add\n        /* \"#utility.yul\":1282:1361   */\n      tag_557\n      jump\t// in\n    tag_589:\n        /* \"#utility.yul\":1273:1361   */\n      swap2\n      pop\n        /* \"#utility.yul\":1089:1367   */\n      pop\n        /* \"#utility.yul\":1027:1367   */\n      swap3\n      swap2\n      pop\n      pop\n      jump\t// out\n        /* \"#utility.yul\":1373:1702   */\n    tag_31:\n        /* \"#utility.yul\":1432:1438   */\n      0x00\n        /* \"#utility.yul\":1481:1483   */\n      0x20\n        /* \"#utility.yul\":1469:1478   */\n      dup3\n        /* \"#utility.yul\":1460:1467   */\n      dup5\n        /* \"#utility.yul\":1456:1479   */\n      sub\n        /* \"#utility.yul\":1452:1484   */\n      slt\n        /* \"#utility.yul\":1449:1568   */\n      iszero\n      tag_591\n      jumpi\n        /* \"#utility.yul\":1487:1566   */\n      tag_592\n      tag_593\n      jump\t// in\n    tag_592:\n        /* \"#utility.yul\":1449:1568   */\n    tag_591:\n        /* \"#utility.yul\":1607:1608   */\n      0x00\n        /* \"#utility.yul\":1632:1685   */\n      tag_594\n        /* \"#utility.yul\":1677:1684   */\n      dup5\n        /* \"#utility.yul\":1668:1674   */\n      dup3\n        /* \"#utility.yul\":1657:1666   */\n      dup6\n        /* \"#utility.yul\":1653:1675   */\n      add\n        /* \"#utility.yul\":1632:1685   */\n      tag_568\n      jump\t// in\n    tag_594:\n        /* \"#utility.yul\":1622:1685   */\n      swap2\n      pop\n        /* \"#utility.yul\":1578:1695   */\n      pop\n        /* \"#utility.yul\":1373:1702   */\n      swap3\n      swap2\n      pop\n      pop\n      jump\t// out\n        /* \"#utility.yul\":1708:2053   */\n    tag_73:\n        /* \"#utility.yul\":1775:1781   */\n      0x00\n        /* \"#utility.yul\":1824:1826   */\n      0x20\n        /* \"#utility.yul\":1812:1821   */\n      dup3\n        /* \"#utility.yul\":1803:1810   */\n      dup5\n        /* \"#utility.yul\":1799:1822   */\n      sub\n        /* \"#utility.yul\":1795:1827   */\n      slt\n        /* \"#utility.yul\":1792:1911   */\n      iszero\n      tag_596\n      jumpi\n        /* \"#utility.yul\":1830:1909   */\n      tag_597\n      tag_593\n      jump\t// in\n    tag_597:\n        /* \"#utility.yul\":1792:1911   */\n    tag_596:\n        /* \"#utility.yul\":1950:1951   */\n      0x00\n        /* \"#utility.yul\":1975:2036   */\n      tag_598\n        /* \"#utility.yul\":2028:2035   */\n      dup5\n        /* \"#utility.yul\":2019:2025   */\n      dup3\n        /* \"#utility.yul\":2008:2017   */\n      dup6\n        /* \"#utility.yul\":2004:2026   */\n      add\n        /* \"#utility.yul\":1975:2036   */\n      tag_572\n      jump\t// in\n    tag_598:\n        /* \"#utility.yul\":1965:2036   */\n      swap2\n      pop\n        /* \"#utility.yul\":1921:2046   */\n      pop\n        /* \"#utility.yul\":1708:2053   */\n      swap3\n      swap2\n      pop\n      pop\n      jump\t// out\n        /* \"#utility.yul\":2059:3038   */\n    tag_60:\n        /* \"#utility.yul\":2156:2162   */\n      0x00\n        /* \"#utility.yul\":2164:2170   */\n      dup1\n        /* \"#utility.yul\":2172:2178   */\n      0x00\n        /* \"#utility.yul\":2221:2223   */\n      0x60\n        /* \"#utility.yul\":2209:2218   */\n      dup5\n        /* \"#utility.yul\":2200:2207   */\n      dup7\n        /* \"#utility.yul\":2196:2219   */\n      sub\n        /* \"#utility.yul\":2192:2224   */\n      slt\n        /* \"#utility.yul\":2189:2308   */\n      iszero\n      tag_600\n      jumpi\n        /* \"#utility.yul\":2227:2306   */\n      tag_601\n      tag_593\n      jump\t// in\n    tag_601:\n        /* \"#utility.yul\":2189:2308   */\n    tag_600:\n        /* \"#utility.yul\":2347:2348   */\n      0x00\n        /* \"#utility.yul\":2372:2425   */\n      tag_602\n        /* \"#utility.yul\":2417:2424   */\n      dup7\n        /* \"#utility.yul\":2408:2414   */\n      dup3\n        /* \"#utility.yul\":2397:2406   */\n      dup8\n        /* \"#utility.yul\":2393:2415   */\n      add\n        /* \"#utility.yul\":2372:2425   */\n      tag_568\n      jump\t// in\n    tag_602:\n        /* \"#utility.yul\":2362:2425   */\n      swap4\n      pop\n        /* \"#utility.yul\":2318:2435   */\n      pop\n        /* \"#utility.yul\":2502:2504   */\n      0x20\n        /* \"#utility.yul\":2491:2500   */\n      dup5\n        /* \"#utility.yul\":2487:2505   */\n      add\n        /* \"#utility.yul\":2474:2506   */\n      calldataload\n        /* \"#utility.yul\":2533:2551   */\n      0xffffffffffffffff\n        /* \"#utility.yul\":2525:2531   */\n      dup2\n        /* \"#utility.yul\":2522:2552   */\n      gt\n        /* \"#utility.yul\":2519:2636   */\n      iszero\n      tag_603\n      jumpi\n        /* \"#utility.yul\":2555:2634   */\n      tag_604\n      tag_605\n      jump\t// in\n    tag_604:\n        /* \"#utility.yul\":2519:2636   */\n    tag_603:\n        /* \"#utility.yul\":2660:2723   */\n      tag_606\n        /* \"#utility.yul\":2715:2722   */\n      dup7\n        /* \"#utility.yul\":2706:2712   */\n      dup3\n        /* \"#utility.yul\":2695:2704   */\n      dup8\n        /* \"#utility.yul\":2691:2713   */\n      add\n        /* \"#utility.yul\":2660:2723   */\n      tag_584\n      jump\t// in\n    tag_606:\n        /* \"#utility.yul\":2650:2723   */\n      swap3\n      pop\n        /* \"#utility.yul\":2445:2733   */\n      pop\n        /* \"#utility.yul\":2800:2802   */\n      0x40\n        /* \"#utility.yul\":2789:2798   */\n      dup5\n        /* \"#utility.yul\":2785:2803   */\n      add\n        /* \"#utility.yul\":2772:2804   */\n      calldataload\n        /* \"#utility.yul\":2831:2849   */\n      0xffffffffffffffff\n        /* \"#utility.yul\":2823:2829   */\n      dup2\n        /* \"#utility.yul\":2820:2850   */\n      gt\n        /* \"#utility.yul\":2817:2934   */\n      iszero\n      tag_607\n      jumpi\n        /* \"#utility.yul\":2853:2932   */\n      tag_608\n      tag_605\n      jump\t// in\n    tag_608:\n        /* \"#utility.yul\":2817:2934   */\n    tag_607:\n        /* \"#utility.yul\":2958:3021   */\n      tag_609\n        /* \"#utility.yul\":3013:3020   */\n      dup7\n        /* \"#utility.yul\":3004:3010   */\n      dup3\n        /* \"#utility.yul\":2993:3002   */\n      dup8\n        /* \"#utility.yul\":2989:3011   */\n      add\n        /* \"#utility.yul\":2958:3021   */\n      tag_584\n      jump\t// in\n    tag_609:\n        /* \"#utility.yul\":2948:3021   */\n      swap2\n      pop\n        /* \"#utility.yul\":2743:3031   */\n      pop\n        /* \"#utility.yul\":2059:3038   */\n      swap3\n      pop\n      swap3\n      pop\n      swap3\n      jump\t// out\n        /* \"#utility.yul\":3044:4167   */\n    tag_45:\n        /* \"#utility.yul\":3149:3155   */\n      0x00\n        /* \"#utility.yul\":3157:3163   */\n      dup1\n        /* \"#utility.yul\":3165:3171   */\n      0x00\n        /* \"#utility.yul\":3173:3179   */\n      dup1\n        /* \"#utility.yul\":3222:3225   */\n      0x80\n        /* \"#utility.yul\":3210:3219   */\n      dup6\n        /* \"#utility.yul\":3201:3208   */\n      dup8\n        /* \"#utility.yul\":3197:3220   */\n      sub\n        /* \"#utility.yul\":3193:3226   */\n      slt\n        /* \"#utility.yul\":3190:3310   */\n      iszero\n      tag_611\n      jumpi\n        /* \"#utility.yul\":3229:3308   */\n      tag_612\n      tag_593\n      jump\t// in\n    tag_612:\n        /* \"#utility.yul\":3190:3310   */\n    tag_611:\n        /* \"#utility.yul\":3349:3350   */\n      0x00\n        /* \"#utility.yul\":3374:3427   */\n      tag_613\n        /* \"#utility.yul\":3419:3426   */\n      dup8\n        /* \"#utility.yul\":3410:3416   */\n      dup3\n        /* \"#utility.yul\":3399:3408   */\n      dup9\n        /* \"#utility.yul\":3395:3417   */\n      add\n        /* \"#utility.yul\":3374:3427   */\n      tag_568\n      jump\t// in\n    tag_613:\n        /* \"#utility.yul\":3364:3427   */\n      swap5\n      pop\n        /* \"#utility.yul\":3320:3437   */\n      pop\n        /* \"#utility.yul\":3504:3506   */\n      0x20\n        /* \"#utility.yul\":3493:3502   */\n      dup6\n        /* \"#utility.yul\":3489:3507   */\n      add\n        /* \"#utility.yul\":3476:3508   */\n      calldataload\n        /* \"#utility.yul\":3535:3553   */\n      0xffffffffffffffff\n        /* \"#utility.yul\":3527:3533   */\n      dup2\n        /* \"#utility.yul\":3524:3554   */\n      gt\n        /* \"#utility.yul\":3521:3638   */\n      iszero\n      tag_614\n      jumpi\n        /* \"#utility.yul\":3557:3636   */\n      tag_615\n      tag_605\n      jump\t// in\n    tag_615:\n        /* \"#utility.yul\":3521:3638   */\n    tag_614:\n        /* \"#utility.yul\":3662:3725   */\n      tag_616\n        /* \"#utility.yul\":3717:3724   */\n      dup8\n        /* \"#utility.yul\":3708:3714   */\n      dup3\n        /* \"#utility.yul\":3697:3706   */\n      dup9\n        /* \"#utility.yul\":3693:3715   */\n      add\n        /* \"#utility.yul\":3662:3725   */\n      tag_584\n      jump\t// in\n    tag_616:\n        /* \"#utility.yul\":3652:3725   */\n      swap4\n      pop\n        /* \"#utility.yul\":3447:3735   */\n      pop\n        /* \"#utility.yul\":3802:3804   */\n      0x40\n        /* \"#utility.yul\":3791:3800   */\n      dup6\n        /* \"#utility.yul\":3787:3805   */\n      add\n        /* \"#utility.yul\":3774:3806   */\n      calldataload\n        /* \"#utility.yul\":3833:3851   */\n      0xffffffffffffffff\n        /* \"#utility.yul\":3825:3831   */\n      dup2\n        /* \"#utility.yul\":3822:3852   */\n      gt\n        /* \"#utility.yul\":3819:3936   */\n      iszero\n      tag_617\n      jumpi\n        /* \"#utility.yul\":3855:3934   */\n      tag_618\n      tag_605\n      jump\t// in\n    tag_618:\n        /* \"#utility.yul\":3819:3936   */\n    tag_617:\n        /* \"#utility.yul\":3960:4023   */\n      tag_619\n        /* \"#utility.yul\":4015:4022   */\n      dup8\n        /* \"#utility.yul\":4006:4012   */\n      dup3\n        /* \"#utility.yul\":3995:4004   */\n      dup9\n        /* \"#utility.yul\":3991:4013   */\n      add\n        /* \"#utility.yul\":3960:4023   */\n      tag_584\n      jump\t// in\n    tag_619:\n        /* \"#utility.yul\":3950:4023   */\n      swap3\n      pop\n        /* \"#utility.yul\":3745:4033   */\n      pop\n        /* \"#utility.yul\":4072:4074   */\n      0x60\n        /* \"#utility.yul\":4098:4150   */\n      tag_620\n        /* \"#utility.yul\":4142:4149   */\n      dup8\n        /* \"#utility.yul\":4133:4139   */\n      dup3\n        /* \"#utility.yul\":4122:4131   */\n      dup9\n        /* \"#utility.yul\":4118:4140   */\n      add\n        /* \"#utility.yul\":4098:4150   */\n      tag_580\n      jump\t// in\n    tag_620:\n        /* \"#utility.yul\":4088:4150   */\n      swap2\n      pop\n        /* \"#utility.yul\":4043:4160   */\n      pop\n        /* \"#utility.yul\":3044:4167   */\n      swap3\n      swap6\n      swap2\n      swap5\n      pop\n      swap3\n      pop\n      jump\t// out\n        /* \"#utility.yul\":4173:4682   */\n    tag_49:\n        /* \"#utility.yul\":4242:4248   */\n      0x00\n        /* \"#utility.yul\":4291:4293   */\n      0x20\n        /* \"#utility.yul\":4279:4288   */\n      dup3\n        /* \"#utility.yul\":4270:4277   */\n      dup5\n        /* \"#utility.yul\":4266:4289   */\n      sub\n        /* \"#utility.yul\":4262:4294   */\n      slt\n        /* \"#utility.yul\":4259:4378   */\n      iszero\n      tag_622\n      jumpi\n        /* \"#utility.yul\":4297:4376   */\n      tag_623\n      tag_593\n      jump\t// in\n    tag_623:\n        /* \"#utility.yul\":4259:4378   */\n    tag_622:\n        /* \"#utility.yul\":4445:4446   */\n      0x00\n        /* \"#utility.yul\":4434:4443   */\n      dup3\n        /* \"#utility.yul\":4430:4447   */\n      add\n        /* \"#utility.yul\":4417:4448   */\n      calldataload\n        /* \"#utility.yul\":4475:4493   */\n      0xffffffffffffffff\n        /* \"#utility.yul\":4467:4473   */\n      dup2\n        /* \"#utility.yul\":4464:4494   */\n      gt\n        /* \"#utility.yul\":4461:4578   */\n      iszero\n      tag_624\n      jumpi\n        /* \"#utility.yul\":4497:4576   */\n      tag_625\n      tag_605\n      jump\t// in\n    tag_625:\n        /* \"#utility.yul\":4461:4578   */\n    tag_624:\n        /* \"#utility.yul\":4602:4665   */\n      tag_626\n        /* \"#utility.yul\":4657:4664   */\n      dup5\n        /* \"#utility.yul\":4648:4654   */\n      dup3\n        /* \"#utility.yul\":4637:4646   */\n      dup6\n        /* \"#utility.yul\":4633:4655   */\n      add\n        /* \"#utility.yul\":4602:4665   */\n      tag_584\n      jump\t// in\n    tag_626:\n        /* \"#utility.yul\":4592:4665   */\n      swap2\n      pop\n        /* \"#utility.yul\":4388:4675   */\n      pop\n        /* \"#utility.yul\":4173:4682   */\n      swap3\n      swap2\n      pop\n      pop\n      jump\t// out\n        /* \"#utility.yul\":4688:5342   */\n    tag_41:\n        /* \"#utility.yul\":4766:4772   */\n      0x00\n        /* \"#utility.yul\":4774:4780   */\n      dup1\n        /* \"#utility.yul\":4823:4825   */\n      0x40\n        /* \"#utility.yul\":4811:4820   */\n      dup4\n        /* \"#utility.yul\":4802:4809   */\n      dup6\n        /* \"#utility.yul\":4798:4821   */\n      sub\n        /* \"#utility.yul\":4794:4826   */\n      slt\n        /* \"#utility.yul\":4791:4910   */\n      iszero\n      tag_628\n      jumpi\n        /* \"#utility.yul\":4829:4908   */\n      tag_629\n      tag_593\n      jump\t// in\n    tag_629:\n        /* \"#utility.yul\":4791:4910   */\n    tag_628:\n        /* \"#utility.yul\":4977:4978   */\n      0x00\n        /* \"#utility.yul\":4966:4975   */\n      dup4\n        /* \"#utility.yul\":4962:4979   */\n      add\n        /* \"#utility.yul\":4949:4980   */\n      calldataload\n        /* \"#utility.yul\":5007:5025   */\n      0xffffffffffffffff\n        /* \"#utility.yul\":4999:5005   */\n      dup2\n        /* \"#utility.yul\":4996:5026   */\n      gt\n        /* \"#utility.yul\":4993:5110   */\n      iszero\n      tag_630\n      jumpi\n        /* \"#utility.yul\":5029:5108   */\n      tag_631\n      tag_605\n      jump\t// in\n    tag_631:\n        /* \"#utility.yul\":4993:5110   */\n    tag_630:\n        /* \"#utility.yul\":5134:5197   */\n      tag_632\n        /* \"#utility.yul\":5189:5196   */\n      dup6\n        /* \"#utility.yul\":5180:5186   */\n      dup3\n        /* \"#utility.yul\":5169:5178   */\n      dup7\n        /* \"#utility.yul\":5165:5187   */\n      add\n        /* \"#utility.yul\":5134:5197   */\n      tag_584\n      jump\t// in\n    tag_632:\n        /* \"#utility.yul\":5124:5197   */\n      swap3\n      pop\n        /* \"#utility.yul\":4920:5207   */\n      pop\n        /* \"#utility.yul\":5246:5248   */\n      0x20\n        /* \"#utility.yul\":5272:5325   */\n      tag_633\n        /* \"#utility.yul\":5317:5324   */\n      dup6\n        /* \"#utility.yul\":5308:5314   */\n      dup3\n        /* \"#utility.yul\":5297:5306   */\n      dup7\n        /* \"#utility.yul\":5293:5315   */\n      add\n        /* \"#utility.yul\":5272:5325   */\n      tag_568\n      jump\t// in\n    tag_633:\n        /* \"#utility.yul\":5262:5325   */\n      swap2\n      pop\n        /* \"#utility.yul\":5217:5335   */\n      pop\n        /* \"#utility.yul\":4688:5342   */\n      swap3\n      pop\n      swap3\n      swap1\n      pop\n      jump\t// out\n        /* \"#utility.yul\":5348:5996   */\n    tag_37:\n        /* \"#utility.yul\":5423:5429   */\n      0x00\n        /* \"#utility.yul\":5431:5437   */\n      dup1\n        /* \"#utility.yul\":5480:5482   */\n      0x40\n        /* \"#utility.yul\":5468:5477   */\n      dup4\n        /* \"#utility.yul\":5459:5466   */\n      dup6\n        /* \"#utility.yul\":5455:5478   */\n      sub\n        /* \"#utility.yul\":5451:5483   */\n      slt\n        /* \"#utility.yul\":5448:5567   */\n      iszero\n      tag_635\n      jumpi\n        /* \"#utility.yul\":5486:5565   */\n      tag_636\n      tag_593\n      jump\t// in\n    tag_636:\n        /* \"#utility.yul\":5448:5567   */\n    tag_635:\n        /* \"#utility.yul\":5634:5635   */\n      0x00\n        /* \"#utility.yul\":5623:5632   */\n      dup4\n        /* \"#utility.yul\":5619:5636   */\n      add\n        /* \"#utility.yul\":5606:5637   */\n      calldataload\n        /* \"#utility.yul\":5664:5682   */\n      0xffffffffffffffff\n        /* \"#utility.yul\":5656:5662   */\n      dup2\n        /* \"#utility.yul\":5653:5683   */\n      gt\n        /* \"#utility.yul\":5650:5767   */\n      iszero\n      tag_637\n      jumpi\n        /* \"#utility.yul\":5686:5765   */\n      tag_638\n      tag_605\n      jump\t// in\n    tag_638:\n        /* \"#utility.yul\":5650:5767   */\n    tag_637:\n        /* \"#utility.yul\":5791:5854   */\n      tag_639\n        /* \"#utility.yul\":5846:5853   */\n      dup6\n        /* \"#utility.yul\":5837:5843   */\n      dup3\n        /* \"#utility.yul\":5826:5835   */\n      dup7\n        /* \"#utility.yul\":5822:5844   */\n      add\n        /* \"#utility.yul\":5791:5854   */\n      tag_584\n      jump\t// in\n    tag_639:\n        /* \"#utility.yul\":5781:5854   */\n      swap3\n      pop\n        /* \"#utility.yul\":5577:5864   */\n      pop\n        /* \"#utility.yul\":5903:5905   */\n      0x20\n        /* \"#utility.yul\":5929:5979   */\n      tag_640\n        /* \"#utility.yul\":5971:5978   */\n      dup6\n        /* \"#utility.yul\":5962:5968   */\n      dup3\n        /* \"#utility.yul\":5951:5960   */\n      dup7\n        /* \"#utility.yul\":5947:5969   */\n      add\n        /* \"#utility.yul\":5929:5979   */\n      tag_576\n      jump\t// in\n    tag_640:\n        /* \"#utility.yul\":5919:5979   */\n      swap2\n      pop\n        /* \"#utility.yul\":5874:5989   */\n      pop\n        /* \"#utility.yul\":5348:5996   */\n      swap3\n      pop\n      swap3\n      swap1\n      pop\n      jump\t// out\n        /* \"#utility.yul\":6002:6836   */\n    tag_113:\n        /* \"#utility.yul\":6090:6096   */\n      0x00\n        /* \"#utility.yul\":6098:6104   */\n      dup1\n        /* \"#utility.yul\":6147:6149   */\n      0x40\n        /* \"#utility.yul\":6135:6144   */\n      dup4\n        /* \"#utility.yul\":6126:6133   */\n      dup6\n        /* \"#utility.yul\":6122:6145   */\n      sub\n        /* \"#utility.yul\":6118:6150   */\n      slt\n        /* \"#utility.yul\":6115:6234   */\n      iszero\n      tag_642\n      jumpi\n        /* \"#utility.yul\":6153:6232   */\n      tag_643\n      tag_593\n      jump\t// in\n    tag_643:\n        /* \"#utility.yul\":6115:6234   */\n    tag_642:\n        /* \"#utility.yul\":6301:6302   */\n      0x00\n        /* \"#utility.yul\":6290:6299   */\n      dup4\n        /* \"#utility.yul\":6286:6303   */\n      add\n        /* \"#utility.yul\":6273:6304   */\n      calldataload\n        /* \"#utility.yul\":6331:6349   */\n      0xffffffffffffffff\n        /* \"#utility.yul\":6323:6329   */\n      dup2\n        /* \"#utility.yul\":6320:6350   */\n      gt\n        /* \"#utility.yul\":6317:6434   */\n      iszero\n      tag_644\n      jumpi\n        /* \"#utility.yul\":6353:6432   */\n      tag_645\n      tag_605\n      jump\t// in\n    tag_645:\n        /* \"#utility.yul\":6317:6434   */\n    tag_644:\n        /* \"#utility.yul\":6458:6521   */\n      tag_646\n        /* \"#utility.yul\":6513:6520   */\n      dup6\n        /* \"#utility.yul\":6504:6510   */\n      dup3\n        /* \"#utility.yul\":6493:6502   */\n      dup7\n        /* \"#utility.yul\":6489:6511   */\n      add\n        /* \"#utility.yul\":6458:6521   */\n      tag_584\n      jump\t// in\n    tag_646:\n        /* \"#utility.yul\":6448:6521   */\n      swap3\n      pop\n        /* \"#utility.yul\":6244:6531   */\n      pop\n        /* \"#utility.yul\":6598:6600   */\n      0x20\n        /* \"#utility.yul\":6587:6596   */\n      dup4\n        /* \"#utility.yul\":6583:6601   */\n      add\n        /* \"#utility.yul\":6570:6602   */\n      calldataload\n        /* \"#utility.yul\":6629:6647   */\n      0xffffffffffffffff\n        /* \"#utility.yul\":6621:6627   */\n      dup2\n        /* \"#utility.yul\":6618:6648   */\n      gt\n        /* \"#utility.yul\":6615:6732   */\n      iszero\n      tag_647\n      jumpi\n        /* \"#utility.yul\":6651:6730   */\n      tag_648\n      tag_605\n      jump\t// in\n    tag_648:\n        /* \"#utility.yul\":6615:6732   */\n    tag_647:\n        /* \"#utility.yul\":6756:6819   */\n      tag_649\n        /* \"#utility.yul\":6811:6818   */\n      dup6\n        /* \"#utility.yul\":6802:6808   */\n      dup3\n        /* \"#utility.yul\":6791:6800   */\n      dup7\n        /* \"#utility.yul\":6787:6809   */\n      add\n        /* \"#utility.yul\":6756:6819   */\n      tag_584\n      jump\t// in\n    tag_649:\n        /* \"#utility.yul\":6746:6819   */\n      swap2\n      pop\n        /* \"#utility.yul\":6541:6829   */\n      pop\n        /* \"#utility.yul\":6002:6836   */\n      swap3\n      pop\n      swap3\n      swap1\n      pop\n      jump\t// out\n        /* \"#utility.yul\":6842:7821   */\n    tag_85:\n        /* \"#utility.yul\":6939:6945   */\n      0x00\n        /* \"#utility.yul\":6947:6953   */\n      dup1\n        /* \"#utility.yul\":6955:6961   */\n      0x00\n        /* \"#utility.yul\":7004:7006   */\n      0x60\n        /* \"#utility.yul\":6992:7001   */\n      dup5\n        /* \"#utility.yul\":6983:6990   */\n      dup7\n        /* \"#utility.yul\":6979:7002   */\n      sub\n        /* \"#utility.yul\":6975:7007   */\n      slt\n        /* \"#utility.yul\":6972:7091   */\n      iszero\n      tag_651\n      jumpi\n        /* \"#utility.yul\":7010:7089   */\n      tag_652\n      tag_593\n      jump\t// in\n    tag_652:\n        /* \"#utility.yul\":6972:7091   */\n    tag_651:\n        /* \"#utility.yul\":7158:7159   */\n      0x00\n        /* \"#utility.yul\":7147:7156   */\n      dup5\n        /* \"#utility.yul\":7143:7160   */\n      add\n        /* \"#utility.yul\":7130:7161   */\n      calldataload\n        /* \"#utility.yul\":7188:7206   */\n      0xffffffffffffffff\n        /* \"#utility.yul\":7180:7186   */\n      dup2\n        /* \"#utility.yul\":7177:7207   */\n      gt\n        /* \"#utility.yul\":7174:7291   */\n      iszero\n      tag_653\n      jumpi\n        /* \"#utility.yul\":7210:7289   */\n      tag_654\n      tag_605\n      jump\t// in\n    tag_654:\n        /* \"#utility.yul\":7174:7291   */\n    tag_653:\n        /* \"#utility.yul\":7315:7378   */\n      tag_655\n        /* \"#utility.yul\":7370:7377   */\n      dup7\n        /* \"#utility.yul\":7361:7367   */\n      dup3\n        /* \"#utility.yul\":7350:7359   */\n      dup8\n        /* \"#utility.yul\":7346:7368   */\n      add\n        /* \"#utility.yul\":7315:7378   */\n      tag_584\n      jump\t// in\n    tag_655:\n        /* \"#utility.yul\":7305:7378   */\n      swap4\n      pop\n        /* \"#utility.yul\":7101:7388   */\n      pop\n        /* \"#utility.yul\":7455:7457   */\n      0x20\n        /* \"#utility.yul\":7444:7453   */\n      dup5\n        /* \"#utility.yul\":7440:7458   */\n      add\n        /* \"#utility.yul\":7427:7459   */\n      calldataload\n        /* \"#utility.yul\":7486:7504   */\n      0xffffffffffffffff\n        /* \"#utility.yul\":7478:7484   */\n      dup2\n        /* \"#utility.yul\":7475:7505   */\n      gt\n        /* \"#utility.yul\":7472:7589   */\n      iszero\n      tag_656\n      jumpi\n        /* \"#utility.yul\":7508:7587   */\n      tag_657\n      tag_605\n      jump\t// in\n    tag_657:\n        /* \"#utility.yul\":7472:7589   */\n    tag_656:\n        /* \"#utility.yul\":7613:7676   */\n      tag_658\n        /* \"#utility.yul\":7668:7675   */\n      dup7\n        /* \"#utility.yul\":7659:7665   */\n      dup3\n        /* \"#utility.yul\":7648:7657   */\n      dup8\n        /* \"#utility.yul\":7644:7666   */\n      add\n        /* \"#utility.yul\":7613:7676   */\n      tag_584\n      jump\t// in\n    tag_658:\n        /* \"#utility.yul\":7603:7676   */\n      swap3\n      pop\n        /* \"#utility.yul\":7398:7686   */\n      pop\n        /* \"#utility.yul\":7725:7727   */\n      0x40\n        /* \"#utility.yul\":7751:7804   */\n      tag_659\n        /* \"#utility.yul\":7796:7803   */\n      dup7\n        /* \"#utility.yul\":7787:7793   */\n      dup3\n        /* \"#utility.yul\":7776:7785   */\n      dup8\n        /* \"#utility.yul\":7772:7794   */\n      add\n        /* \"#utility.yul\":7751:7804   */\n      tag_568\n      jump\t// in\n    tag_659:\n        /* \"#utility.yul\":7741:7804   */\n      swap2\n      pop\n        /* \"#utility.yul\":7696:7814   */\n      pop\n        /* \"#utility.yul\":6842:7821   */\n      swap3\n      pop\n      swap3\n      pop\n      swap3\n      jump\t// out\n        /* \"#utility.yul\":7827:8952   */\n    tag_77:\n        /* \"#utility.yul\":7933:7939   */\n      0x00\n        /* \"#utility.yul\":7941:7947   */\n      dup1\n        /* \"#utility.yul\":7949:7955   */\n      0x00\n        /* \"#utility.yul\":7957:7963   */\n      dup1\n        /* \"#utility.yul\":8006:8009   */\n      0x80\n        /* \"#utility.yul\":7994:8003   */\n      dup6\n        /* \"#utility.yul\":7985:7992   */\n      dup8\n        /* \"#utility.yul\":7981:8004   */\n      sub\n        /* \"#utility.yul\":7977:8010   */\n      slt\n        /* \"#utility.yul\":7974:8094   */\n      iszero\n      tag_661\n      jumpi\n        /* \"#utility.yul\":8013:8092   */\n      tag_662\n      tag_593\n      jump\t// in\n    tag_662:\n        /* \"#utility.yul\":7974:8094   */\n    tag_661:\n        /* \"#utility.yul\":8161:8162   */\n      0x00\n        /* \"#utility.yul\":8150:8159   */\n      dup6\n        /* \"#utility.yul\":8146:8163   */\n      add\n        /* \"#utility.yul\":8133:8164   */\n      calldataload\n        /* \"#utility.yul\":8191:8209   */\n      0xffffffffffffffff\n        /* \"#utility.yul\":8183:8189   */\n      dup2\n        /* \"#utility.yul\":8180:8210   */\n      gt\n        /* \"#utility.yul\":8177:8294   */\n      iszero\n      tag_663\n      jumpi\n        /* \"#utility.yul\":8213:8292   */\n      tag_664\n      tag_605\n      jump\t// in\n    tag_664:\n        /* \"#utility.yul\":8177:8294   */\n    tag_663:\n        /* \"#utility.yul\":8318:8381   */\n      tag_665\n        /* \"#utility.yul\":8373:8380   */\n      dup8\n        /* \"#utility.yul\":8364:8370   */\n      dup3\n        /* \"#utility.yul\":8353:8362   */\n      dup9\n        /* \"#utility.yul\":8349:8371   */\n      add\n        /* \"#utility.yul\":8318:8381   */\n      tag_584\n      jump\t// in\n    tag_665:\n        /* \"#utility.yul\":8308:8381   */\n      swap5\n      pop\n        /* \"#utility.yul\":8104:8391   */\n      pop\n        /* \"#utility.yul\":8458:8460   */\n      0x20\n        /* \"#utility.yul\":8447:8456   */\n      dup6\n        /* \"#utility.yul\":8443:8461   */\n      add\n        /* \"#utility.yul\":8430:8462   */\n      calldataload\n        /* \"#utility.yul\":8489:8507   */\n      0xffffffffffffffff\n        /* \"#utility.yul\":8481:8487   */\n      dup2\n        /* \"#utility.yul\":8478:8508   */\n      gt\n        /* \"#utility.yul\":8475:8592   */\n      iszero\n      tag_666\n      jumpi\n        /* \"#utility.yul\":8511:8590   */\n      tag_667\n      tag_605\n      jump\t// in\n    tag_667:\n        /* \"#utility.yul\":8475:8592   */\n    tag_666:\n        /* \"#utility.yul\":8616:8679   */\n      tag_668\n        /* \"#utility.yul\":8671:8678   */\n      dup8\n        /* \"#utility.yul\":8662:8668   */\n      dup3\n        /* \"#utility.yul\":8651:8660   */\n      dup9\n        /* \"#utility.yul\":8647:8669   */\n      add\n        /* \"#utility.yul\":8616:8679   */\n      tag_584\n      jump\t// in\n    tag_668:\n        /* \"#utility.yul\":8606:8679   */\n      swap4\n      pop\n        /* \"#utility.yul\":8401:8689   */\n      pop\n        /* \"#utility.yul\":8728:8730   */\n      0x40\n        /* \"#utility.yul\":8754:8807   */\n      tag_669\n        /* \"#utility.yul\":8799:8806   */\n      dup8\n        /* \"#utility.yul\":8790:8796   */\n      dup3\n        /* \"#utility.yul\":8779:8788   */\n      dup9\n        /* \"#utility.yul\":8775:8797   */\n      add\n        /* \"#utility.yul\":8754:8807   */\n      tag_568\n      jump\t// in\n    tag_669:\n        /* \"#utility.yul\":8744:8807   */\n      swap3\n      pop\n        /* \"#utility.yul\":8699:8817   */\n      pop\n        /* \"#utility.yul\":8856:8858   */\n      0x60\n        /* \"#utility.yul\":8882:8935   */\n      tag_670\n        /* \"#utility.yul\":8927:8934   */\n      dup8\n        /* \"#utility.yul\":8918:8924   */\n      dup3\n        /* \"#utility.yul\":8907:8916   */\n      dup9\n        /* \"#utility.yul\":8903:8925   */\n      add\n        /* \"#utility.yul\":8882:8935   */\n      tag_568\n      jump\t// in\n    tag_670:\n        /* \"#utility.yul\":8872:8935   */\n      swap2\n      pop\n        /* \"#utility.yul\":8827:8945   */\n      pop\n        /* \"#utility.yul\":7827:8952   */\n      swap3\n      swap6\n      swap2\n      swap5\n      pop\n      swap3\n      pop\n      jump\t// out\n        /* \"#utility.yul\":8958:9137   */\n    tag_671:\n        /* \"#utility.yul\":9027:9037   */\n      0x00\n        /* \"#utility.yul\":9048:9094   */\n      tag_673\n        /* \"#utility.yul\":9090:9093   */\n      dup4\n        /* \"#utility.yul\":9082:9088   */\n      dup4\n        /* \"#utility.yul\":9048:9094   */\n      tag_674\n      jump\t// in\n    tag_673:\n        /* \"#utility.yul\":9126:9130   */\n      0x20\n        /* \"#utility.yul\":9121:9124   */\n      dup4\n        /* \"#utility.yul\":9117:9131   */\n      add\n        /* \"#utility.yul\":9103:9131   */\n      swap1\n      pop\n        /* \"#utility.yul\":8958:9137   */\n      swap3\n      swap2\n      pop\n      pop\n      jump\t// out\n        /* \"#utility.yul\":9143:9339   */\n    tag_675:\n        /* \"#utility.yul\":9232:9242   */\n      0x00\n        /* \"#utility.yul\":9267:9333   */\n      tag_677\n        /* \"#utility.yul\":9329:9332   */\n      dup4\n        /* \"#utility.yul\":9321:9327   */\n      dup4\n        /* \"#utility.yul\":9267:9333   */\n      tag_678\n      jump\t// in\n    tag_677:\n        /* \"#utility.yul\":9253:9333   */\n      swap1\n      pop\n        /* \"#utility.yul\":9143:9339   */\n      swap3\n      swap2\n      pop\n      pop\n      jump\t// out\n        /* \"#utility.yul\":9345:9453   */\n    tag_674:\n        /* \"#utility.yul\":9422:9446   */\n      tag_680\n        /* \"#utility.yul\":9440:9445   */\n      dup2\n        /* \"#utility.yul\":9422:9446   */\n      tag_681\n      jump\t// in\n    tag_680:\n        /* \"#utility.yul\":9417:9420   */\n      dup3\n        /* \"#utility.yul\":9410:9447   */\n      mstore\n        /* \"#utility.yul\":9345:9453   */\n      pop\n      pop\n      jump\t// out\n        /* \"#utility.yul\":9459:9577   */\n    tag_682:\n        /* \"#utility.yul\":9546:9570   */\n      tag_684\n        /* \"#utility.yul\":9564:9569   */\n      dup2\n        /* \"#utility.yul\":9546:9570   */\n      tag_681\n      jump\t// in\n    tag_684:\n        /* \"#utility.yul\":9541:9544   */\n      dup3\n        /* \"#utility.yul\":9534:9571   */\n      mstore\n        /* \"#utility.yul\":9459:9577   */\n      pop\n      pop\n      jump\t// out\n        /* \"#utility.yul\":9613:10345   */\n    tag_685:\n        /* \"#utility.yul\":9732:9735   */\n      0x00\n        /* \"#utility.yul\":9761:9815   */\n      tag_687\n        /* \"#utility.yul\":9809:9814   */\n      dup3\n        /* \"#utility.yul\":9761:9815   */\n      tag_688\n      jump\t// in\n    tag_687:\n        /* \"#utility.yul\":9831:9917   */\n      tag_689\n        /* \"#utility.yul\":9910:9916   */\n      dup2\n        /* \"#utility.yul\":9905:9908   */\n      dup6\n        /* \"#utility.yul\":9831:9917   */\n      tag_690\n      jump\t// in\n    tag_689:\n        /* \"#utility.yul\":9824:9917   */\n      swap4\n      pop\n        /* \"#utility.yul\":9941:9997   */\n      tag_691\n        /* \"#utility.yul\":9991:9996   */\n      dup4\n        /* \"#utility.yul\":9941:9997   */\n      tag_692\n      jump\t// in\n    tag_691:\n        /* \"#utility.yul\":10020:10027   */\n      dup1\n        /* \"#utility.yul\":10051:10052   */\n      0x00\n        /* \"#utility.yul\":10036:10320   */\n    tag_693:\n        /* \"#utility.yul\":10061:10067   */\n      dup4\n        /* \"#utility.yul\":10058:10059   */\n      dup2\n        /* \"#utility.yul\":10055:10068   */\n      lt\n        /* \"#utility.yul\":10036:10320   */\n      iszero\n      tag_695\n      jumpi\n        /* \"#utility.yul\":10137:10143   */\n      dup2\n        /* \"#utility.yul\":10131:10144   */\n      mload\n        /* \"#utility.yul\":10164:10227   */\n      tag_696\n        /* \"#utility.yul\":10223:10226   */\n      dup9\n        /* \"#utility.yul\":10208:10221   */\n      dup3\n        /* \"#utility.yul\":10164:10227   */\n      tag_671\n      jump\t// in\n    tag_696:\n        /* \"#utility.yul\":10157:10227   */\n      swap8\n      pop\n        /* \"#utility.yul\":10250:10310   */\n      tag_697\n        /* \"#utility.yul\":10303:10309   */\n      dup4\n        /* \"#utility.yul\":10250:10310   */\n      tag_698\n      jump\t// in\n    tag_697:\n        /* \"#utility.yul\":10240:10310   */\n      swap3\n      pop\n        /* \"#utility.yul\":10096:10320   */\n      pop\n        /* \"#utility.yul\":10083:10084   */\n      0x01\n        /* \"#utility.yul\":10080:10081   */\n      dup2\n        /* \"#utility.yul\":10076:10085   */\n      add\n        /* \"#utility.yul\":10071:10085   */\n      swap1\n      pop\n        /* \"#utility.yul\":10036:10320   */\n      jump(tag_693)\n    tag_695:\n        /* \"#utility.yul\":10040:10054   */\n      pop\n        /* \"#utility.yul\":10336:10339   */\n      dup6\n        /* \"#utility.yul\":10329:10339   */\n      swap4\n      pop\n        /* \"#utility.yul\":9737:10345   */\n      pop\n      pop\n      pop\n        /* \"#utility.yul\":9613:10345   */\n      swap3\n      swap2\n      pop\n      pop\n      jump\t// out\n        /* \"#utility.yul\":10379:11370   */\n    tag_699:\n        /* \"#utility.yul\":10518:10521   */\n      0x00\n        /* \"#utility.yul\":10547:10611   */\n      tag_701\n        /* \"#utility.yul\":10605:10610   */\n      dup3\n        /* \"#utility.yul\":10547:10611   */\n      tag_702\n      jump\t// in\n    tag_701:\n        /* \"#utility.yul\":10627:10723   */\n      tag_703\n        /* \"#utility.yul\":10716:10722   */\n      dup2\n        /* \"#utility.yul\":10711:10714   */\n      dup6\n        /* \"#utility.yul\":10627:10723   */\n      tag_704\n      jump\t// in\n    tag_703:\n        /* \"#utility.yul\":10620:10723   */\n      swap4\n      pop\n        /* \"#utility.yul\":10749:10752   */\n      dup4\n        /* \"#utility.yul\":10794:10798   */\n      0x20\n        /* \"#utility.yul\":10786:10792   */\n      dup3\n        /* \"#utility.yul\":10782:10799   */\n      mul\n        /* \"#utility.yul\":10777:10780   */\n      dup6\n        /* \"#utility.yul\":10773:10800   */\n      add\n        /* \"#utility.yul\":10824:10890   */\n      tag_705\n        /* \"#utility.yul\":10884:10889   */\n      dup6\n        /* \"#utility.yul\":10824:10890   */\n      tag_706\n      jump\t// in\n    tag_705:\n        /* \"#utility.yul\":10913:10920   */\n      dup1\n        /* \"#utility.yul\":10944:10945   */\n      0x00\n        /* \"#utility.yul\":10929:11325   */\n    tag_707:\n        /* \"#utility.yul\":10954:10960   */\n      dup6\n        /* \"#utility.yul\":10951:10952   */\n      dup2\n        /* \"#utility.yul\":10948:10961   */\n      lt\n        /* \"#utility.yul\":10929:11325   */\n      iszero\n      tag_709\n      jumpi\n        /* \"#utility.yul\":11025:11034   */\n      dup5\n        /* \"#utility.yul\":11019:11023   */\n      dup5\n        /* \"#utility.yul\":11015:11035   */\n      sub\n        /* \"#utility.yul\":11010:11013   */\n      dup10\n        /* \"#utility.yul\":11003:11036   */\n      mstore\n        /* \"#utility.yul\":11076:11082   */\n      dup2\n        /* \"#utility.yul\":11070:11083   */\n      mload\n        /* \"#utility.yul\":11104:11188   */\n      tag_710\n        /* \"#utility.yul\":11183:11187   */\n      dup6\n        /* \"#utility.yul\":11168:11181   */\n      dup3\n        /* \"#utility.yul\":11104:11188   */\n      tag_675\n      jump\t// in\n    tag_710:\n        /* \"#utility.yul\":11096:11188   */\n      swap5\n      pop\n        /* \"#utility.yul\":11211:11281   */\n      tag_711\n        /* \"#utility.yul\":11274:11280   */\n      dup4\n        /* \"#utility.yul\":11211:11281   */\n      tag_712\n      jump\t// in\n    tag_711:\n        /* \"#utility.yul\":11201:11281   */\n      swap3\n      pop\n        /* \"#utility.yul\":11310:11314   */\n      0x20\n        /* \"#utility.yul\":11305:11308   */\n      dup11\n        /* \"#utility.yul\":11301:11315   */\n      add\n        /* \"#utility.yul\":11294:11315   */\n      swap10\n      pop\n        /* \"#utility.yul\":10989:11325   */\n      pop\n        /* \"#utility.yul\":10976:10977   */\n      0x01\n        /* \"#utility.yul\":10973:10974   */\n      dup2\n        /* \"#utility.yul\":10969:10978   */\n      add\n        /* \"#utility.yul\":10964:10978   */\n      swap1\n      pop\n        /* \"#utility.yul\":10929:11325   */\n      jump(tag_707)\n    tag_709:\n        /* \"#utility.yul\":10933:10947   */\n      pop\n        /* \"#utility.yul\":11341:11345   */\n      dup3\n        /* \"#utility.yul\":11334:11345   */\n      swap8\n      pop\n        /* \"#utility.yul\":11361:11364   */\n      dup8\n        /* \"#utility.yul\":11354:11364   */\n      swap6\n      pop\n        /* \"#utility.yul\":10523:11370   */\n      pop\n      pop\n      pop\n      pop\n      pop\n        /* \"#utility.yul\":10379:11370   */\n      swap3\n      swap2\n      pop\n      pop\n      jump\t// out\n        /* \"#utility.yul\":11376:11491   */\n    tag_713:\n        /* \"#utility.yul\":11461:11484   */\n      tag_715\n        /* \"#utility.yul\":11478:11483   */\n      dup2\n        /* \"#utility.yul\":11461:11484   */\n      tag_716\n      jump\t// in\n    tag_715:\n        /* \"#utility.yul\":11456:11459   */\n      dup3\n        /* \"#utility.yul\":11449:11485   */\n      mstore\n        /* \"#utility.yul\":11376:11491   */\n      pop\n      pop\n      jump\t// out\n        /* \"#utility.yul\":11497:11841   */\n    tag_678:\n        /* \"#utility.yul\":11575:11578   */\n      0x00\n        /* \"#utility.yul\":11603:11642   */\n      tag_718\n        /* \"#utility.yul\":11636:11641   */\n      dup3\n        /* \"#utility.yul\":11603:11642   */\n      tag_719\n      jump\t// in\n    tag_718:\n        /* \"#utility.yul\":11658:11719   */\n      tag_720\n        /* \"#utility.yul\":11712:11718   */\n      dup2\n        /* \"#utility.yul\":11707:11710   */\n      dup6\n        /* \"#utility.yul\":11658:11719   */\n      tag_721\n      jump\t// in\n    tag_720:\n        /* \"#utility.yul\":11651:11719   */\n      swap4\n      pop\n        /* \"#utility.yul\":11728:11780   */\n      tag_722\n        /* \"#utility.yul\":11773:11779   */\n      dup2\n        /* \"#utility.yul\":11768:11771   */\n      dup6\n        /* \"#utility.yul\":11761:11765   */\n      0x20\n        /* \"#utility.yul\":11754:11759   */\n      dup7\n        /* \"#utility.yul\":11750:11766   */\n      add\n        /* \"#utility.yul\":11728:11780   */\n      tag_723\n      jump\t// in\n    tag_722:\n        /* \"#utility.yul\":11805:11834   */\n      tag_724\n        /* \"#utility.yul\":11827:11833   */\n      dup2\n        /* \"#utility.yul\":11805:11834   */\n      tag_725\n      jump\t// in\n    tag_724:\n        /* \"#utility.yul\":11800:11803   */\n      dup5\n        /* \"#utility.yul\":11796:11835   */\n      add\n        /* \"#utility.yul\":11789:11835   */\n      swap2\n      pop\n        /* \"#utility.yul\":11579:11841   */\n      pop\n        /* \"#utility.yul\":11497:11841   */\n      swap3\n      swap2\n      pop\n      pop\n      jump\t// out\n        /* \"#utility.yul\":11847:12211   */\n    tag_726:\n        /* \"#utility.yul\":11935:11938   */\n      0x00\n        /* \"#utility.yul\":11963:12002   */\n      tag_728\n        /* \"#utility.yul\":11996:12001   */\n      dup3\n        /* \"#utility.yul\":11963:12002   */\n      tag_719\n      jump\t// in\n    tag_728:\n        /* \"#utility.yul\":12018:12089   */\n      tag_729\n        /* \"#utility.yul\":12082:12088   */\n      dup2\n        /* \"#utility.yul\":12077:12080   */\n      dup6\n        /* \"#utility.yul\":12018:12089   */\n      tag_730\n      jump\t// in\n    tag_729:\n        /* \"#utility.yul\":12011:12089   */\n      swap4\n      pop\n        /* \"#utility.yul\":12098:12150   */\n      tag_731\n        /* \"#utility.yul\":12143:12149   */\n      dup2\n        /* \"#utility.yul\":12138:12141   */\n      dup6\n        /* \"#utility.yul\":12131:12135   */\n      0x20\n        /* \"#utility.yul\":12124:12129   */\n      dup7\n        /* \"#utility.yul\":12120:12136   */\n      add\n        /* \"#utility.yul\":12098:12150   */\n      tag_723\n      jump\t// in\n    tag_731:\n        /* \"#utility.yul\":12175:12204   */\n      tag_732\n        /* \"#utility.yul\":12197:12203   */\n      dup2\n        /* \"#utility.yul\":12175:12204   */\n      tag_725\n      jump\t// in\n    tag_732:\n        /* \"#utility.yul\":12170:12173   */\n      dup5\n        /* \"#utility.yul\":12166:12205   */\n      add\n        /* \"#utility.yul\":12159:12205   */\n      swap2\n      pop\n        /* \"#utility.yul\":11939:12211   */\n      pop\n        /* \"#utility.yul\":11847:12211   */\n      swap3\n      swap2\n      pop\n      pop\n      jump\t// out\n        /* \"#utility.yul\":12217:12594   */\n    tag_733:\n        /* \"#utility.yul\":12323:12326   */\n      0x00\n        /* \"#utility.yul\":12351:12390   */\n      tag_735\n        /* \"#utility.yul\":12384:12389   */\n      dup3\n        /* \"#utility.yul\":12351:12390   */\n      tag_719\n      jump\t// in\n    tag_735:\n        /* \"#utility.yul\":12406:12495   */\n      tag_736\n        /* \"#utility.yul\":12488:12494   */\n      dup2\n        /* \"#utility.yul\":12483:12486   */\n      dup6\n        /* \"#utility.yul\":12406:12495   */\n      tag_737\n      jump\t// in\n    tag_736:\n        /* \"#utility.yul\":12399:12495   */\n      swap4\n      pop\n        /* \"#utility.yul\":12504:12556   */\n      tag_738\n        /* \"#utility.yul\":12549:12555   */\n      dup2\n        /* \"#utility.yul\":12544:12547   */\n      dup6\n        /* \"#utility.yul\":12537:12541   */\n      0x20\n        /* \"#utility.yul\":12530:12535   */\n      dup7\n        /* \"#utility.yul\":12526:12542   */\n      add\n        /* \"#utility.yul\":12504:12556   */\n      tag_723\n      jump\t// in\n    tag_738:\n        /* \"#utility.yul\":12581:12587   */\n      dup1\n        /* \"#utility.yul\":12576:12579   */\n      dup5\n        /* \"#utility.yul\":12572:12588   */\n      add\n        /* \"#utility.yul\":12565:12588   */\n      swap2\n      pop\n        /* \"#utility.yul\":12327:12594   */\n      pop\n        /* \"#utility.yul\":12217:12594   */\n      swap3\n      swap2\n      pop\n      pop\n      jump\t// out\n        /* \"#utility.yul\":12600:12966   */\n    tag_739:\n        /* \"#utility.yul\":12742:12745   */\n      0x00\n        /* \"#utility.yul\":12763:12830   */\n      tag_741\n        /* \"#utility.yul\":12827:12829   */\n      0x1b\n        /* \"#utility.yul\":12822:12825   */\n      dup4\n        /* \"#utility.yul\":12763:12830   */\n      tag_730\n      jump\t// in\n    tag_741:\n        /* \"#utility.yul\":12756:12830   */\n      swap2\n      pop\n        /* \"#utility.yul\":12839:12932   */\n      tag_742\n        /* \"#utility.yul\":12928:12931   */\n      dup3\n        /* \"#utility.yul\":12839:12932   */\n      tag_743\n      jump\t// in\n    tag_742:\n        /* \"#utility.yul\":12957:12959   */\n      0x20\n        /* \"#utility.yul\":12952:12955   */\n      dup3\n        /* \"#utility.yul\":12948:12960   */\n      add\n        /* \"#utility.yul\":12941:12960   */\n      swap1\n      pop\n        /* \"#utility.yul\":12600:12966   */\n      swap2\n      swap1\n      pop\n      jump\t// out\n        /* \"#utility.yul\":12972:13338   */\n    tag_744:\n        /* \"#utility.yul\":13114:13117   */\n      0x00\n        /* \"#utility.yul\":13135:13202   */\n      tag_746\n        /* \"#utility.yul\":13199:13201   */\n      0x22\n        /* \"#utility.yul\":13194:13197   */\n      dup4\n        /* \"#utility.yul\":13135:13202   */\n      tag_730\n      jump\t// in\n    tag_746:\n        /* \"#utility.yul\":13128:13202   */\n      swap2\n      pop\n        /* \"#utility.yul\":13211:13304   */\n      tag_747\n        /* \"#utility.yul\":13300:13303   */\n      dup3\n        /* \"#utility.yul\":13211:13304   */\n      tag_748\n      jump\t// in\n    tag_747:\n        /* \"#utility.yul\":13329:13331   */\n      0x40\n        /* \"#utility.yul\":13324:13327   */\n      dup3\n        /* \"#utility.yul\":13320:13332   */\n      add\n        /* \"#utility.yul\":13313:13332   */\n      swap1\n      pop\n        /* \"#utility.yul\":12972:13338   */\n      swap2\n      swap1\n      pop\n      jump\t// out\n        /* \"#utility.yul\":13344:13710   */\n    tag_749:\n        /* \"#utility.yul\":13486:13489   */\n      0x00\n        /* \"#utility.yul\":13507:13574   */\n      tag_751\n        /* \"#utility.yul\":13571:13573   */\n      0x0b\n        /* \"#utility.yul\":13566:13569   */\n      dup4\n        /* \"#utility.yul\":13507:13574   */\n      tag_730\n      jump\t// in\n    tag_751:\n        /* \"#utility.yul\":13500:13574   */\n      swap2\n      pop\n        /* \"#utility.yul\":13583:13676   */\n      tag_752\n        /* \"#utility.yul\":13672:13675   */\n      dup3\n        /* \"#utility.yul\":13583:13676   */\n      tag_753\n      jump\t// in\n    tag_752:\n        /* \"#utility.yul\":13701:13703   */\n      0x20\n        /* \"#utility.yul\":13696:13699   */\n      dup3\n        /* \"#utility.yul\":13692:13704   */\n      add\n        /* \"#utility.yul\":13685:13704   */\n      swap1\n      pop\n        /* \"#utility.yul\":13344:13710   */\n      swap2\n      swap1\n      pop\n      jump\t// out\n        /* \"#utility.yul\":13716:14081   */\n    tag_754:\n        /* \"#utility.yul\":13858:13861   */\n      0x00\n        /* \"#utility.yul\":13879:13945   */\n      tag_756\n        /* \"#utility.yul\":13943:13944   */\n      0x09\n        /* \"#utility.yul\":13938:13941   */\n      dup4\n        /* \"#utility.yul\":13879:13945   */\n      tag_730\n      jump\t// in\n    tag_756:\n        /* \"#utility.yul\":13872:13945   */\n      swap2\n      pop\n        /* \"#utility.yul\":13954:14047   */\n      tag_757\n        /* \"#utility.yul\":14043:14046   */\n      dup3\n        /* \"#utility.yul\":13954:14047   */\n      tag_758\n      jump\t// in\n    tag_757:\n        /* \"#utility.yul\":14072:14074   */\n      0x20\n        /* \"#utility.yul\":14067:14070   */\n      dup3\n        /* \"#utility.yul\":14063:14075   */\n      add\n        /* \"#utility.yul\":14056:14075   */\n      swap1\n      pop\n        /* \"#utility.yul\":13716:14081   */\n      swap2\n      swap1\n      pop\n      jump\t// out\n        /* \"#utility.yul\":14087:14453   */\n    tag_759:\n        /* \"#utility.yul\":14229:14232   */\n      0x00\n        /* \"#utility.yul\":14250:14317   */\n      tag_761\n        /* \"#utility.yul\":14314:14316   */\n      0x0c\n        /* \"#utility.yul\":14309:14312   */\n      dup4\n        /* \"#utility.yul\":14250:14317   */\n      tag_730\n      jump\t// in\n    tag_761:\n        /* \"#utility.yul\":14243:14317   */\n      swap2\n      pop\n        /* \"#utility.yul\":14326:14419   */\n      tag_762\n        /* \"#utility.yul\":14415:14418   */\n      dup3\n        /* \"#utility.yul\":14326:14419   */\n      tag_763\n      jump\t// in\n    tag_762:\n        /* \"#utility.yul\":14444:14446   */\n      0x20\n        /* \"#utility.yul\":14439:14442   */\n      dup3\n        /* \"#utility.yul\":14435:14447   */\n      add\n        /* \"#utility.yul\":14428:14447   */\n      swap1\n      pop\n        /* \"#utility.yul\":14087:14453   */\n      swap2\n      swap1\n      pop\n      jump\t// out\n        /* \"#utility.yul\":14459:14825   */\n    tag_764:\n        /* \"#utility.yul\":14601:14604   */\n      0x00\n        /* \"#utility.yul\":14622:14689   */\n      tag_766\n        /* \"#utility.yul\":14686:14688   */\n      0x0d\n        /* \"#utility.yul\":14681:14684   */\n      dup4\n        /* \"#utility.yul\":14622:14689   */\n      tag_730\n      jump\t// in\n    tag_766:\n        /* \"#utility.yul\":14615:14689   */\n      swap2\n      pop\n        /* \"#utility.yul\":14698:14791   */\n      tag_767\n        /* \"#utility.yul\":14787:14790   */\n      dup3\n        /* \"#utility.yul\":14698:14791   */\n      tag_768\n      jump\t// in\n    tag_767:\n        /* \"#utility.yul\":14816:14818   */\n      0x20\n        /* \"#utility.yul\":14811:14814   */\n      dup3\n        /* \"#utility.yul\":14807:14819   */\n      add\n        /* \"#utility.yul\":14800:14819   */\n      swap1\n      pop\n        /* \"#utility.yul\":14459:14825   */\n      swap2\n      swap1\n      pop\n      jump\t// out\n        /* \"#utility.yul\":14831:15197   */\n    tag_769:\n        /* \"#utility.yul\":14973:14976   */\n      0x00\n        /* \"#utility.yul\":14994:15061   */\n      tag_771\n        /* \"#utility.yul\":15058:15060   */\n      0x16\n        /* \"#utility.yul\":15053:15056   */\n      dup4\n        /* \"#utility.yul\":14994:15061   */\n      tag_730\n      jump\t// in\n    tag_771:\n        /* \"#utility.yul\":14987:15061   */\n      swap2\n      pop\n        /* \"#utility.yul\":15070:15163   */\n      tag_772\n        /* \"#utility.yul\":15159:15162   */\n      dup3\n        /* \"#utility.yul\":15070:15163   */\n      tag_773\n      jump\t// in\n    tag_772:\n        /* \"#utility.yul\":15188:15190   */\n      0x20\n        /* \"#utility.yul\":15183:15186   */\n      dup3\n        /* \"#utility.yul\":15179:15191   */\n      add\n        /* \"#utility.yul\":15172:15191   */\n      swap1\n      pop\n        /* \"#utility.yul\":14831:15197   */\n      swap2\n      swap1\n      pop\n      jump\t// out\n        /* \"#utility.yul\":15203:15569   */\n    tag_774:\n        /* \"#utility.yul\":15345:15348   */\n      0x00\n        /* \"#utility.yul\":15366:15433   */\n      tag_776\n        /* \"#utility.yul\":15430:15432   */\n      0x0b\n        /* \"#utility.yul\":15425:15428   */\n      dup4\n        /* \"#utility.yul\":15366:15433   */\n      tag_730\n      jump\t// in\n    tag_776:\n        /* \"#utility.yul\":15359:15433   */\n      swap2\n      pop\n        /* \"#utility.yul\":15442:15535   */\n      tag_777\n        /* \"#utility.yul\":15531:15534   */\n      dup3\n        /* \"#utility.yul\":15442:15535   */\n      tag_778\n      jump\t// in\n    tag_777:\n        /* \"#utility.yul\":15560:15562   */\n      0x20\n        /* \"#utility.yul\":15555:15558   */\n      dup3\n        /* \"#utility.yul\":15551:15563   */\n      add\n        /* \"#utility.yul\":15544:15563   */\n      swap1\n      pop\n        /* \"#utility.yul\":15203:15569   */\n      swap2\n      swap1\n      pop\n      jump\t// out\n        /* \"#utility.yul\":15575:15693   */\n    tag_779:\n        /* \"#utility.yul\":15662:15686   */\n      tag_781\n        /* \"#utility.yul\":15680:15685   */\n      dup2\n        /* \"#utility.yul\":15662:15686   */\n      tag_782\n      jump\t// in\n    tag_781:\n        /* \"#utility.yul\":15657:15660   */\n      dup3\n        /* \"#utility.yul\":15650:15687   */\n      mstore\n        /* \"#utility.yul\":15575:15693   */\n      pop\n      pop\n      jump\t// out\n        /* \"#utility.yul\":15699:15974   */\n    tag_163:\n        /* \"#utility.yul\":15831:15834   */\n      0x00\n        /* \"#utility.yul\":15853:15948   */\n      tag_784\n        /* \"#utility.yul\":15944:15947   */\n      dup3\n        /* \"#utility.yul\":15935:15941   */\n      dup5\n        /* \"#utility.yul\":15853:15948   */\n      tag_733\n      jump\t// in\n    tag_784:\n        /* \"#utility.yul\":15846:15948   */\n      swap2\n      pop\n        /* \"#utility.yul\":15965:15968   */\n      dup2\n        /* \"#utility.yul\":15958:15968   */\n      swap1\n      pop\n        /* \"#utility.yul\":15699:15974   */\n      swap3\n      swap2\n      pop\n      pop\n      jump\t// out\n        /* \"#utility.yul\":15980:16842   */\n    tag_52:\n        /* \"#utility.yul\":16231:16235   */\n      0x00\n        /* \"#utility.yul\":16269:16272   */\n      0xc0\n        /* \"#utility.yul\":16258:16267   */\n      dup3\n        /* \"#utility.yul\":16254:16273   */\n      add\n        /* \"#utility.yul\":16246:16273   */\n      swap1\n      pop\n        /* \"#utility.yul\":16283:16354   */\n      tag_786\n        /* \"#utility.yul\":16351:16352   */\n      0x00\n        /* \"#utility.yul\":16340:16349   */\n      dup4\n        /* \"#utility.yul\":16336:16353   */\n      add\n        /* \"#utility.yul\":16327:16333   */\n      dup10\n        /* \"#utility.yul\":16283:16354   */\n      tag_682\n      jump\t// in\n    tag_786:\n        /* \"#utility.yul\":16364:16436   */\n      tag_787\n        /* \"#utility.yul\":16432:16434   */\n      0x20\n        /* \"#utility.yul\":16421:16430   */\n      dup4\n        /* \"#utility.yul\":16417:16435   */\n      add\n        /* \"#utility.yul\":16408:16414   */\n      dup9\n        /* \"#utility.yul\":16364:16436   */\n      tag_682\n      jump\t// in\n    tag_787:\n        /* \"#utility.yul\":16483:16492   */\n      dup2\n        /* \"#utility.yul\":16477:16481   */\n      dup2\n        /* \"#utility.yul\":16473:16493   */\n      sub\n        /* \"#utility.yul\":16468:16470   */\n      0x40\n        /* \"#utility.yul\":16457:16466   */\n      dup4\n        /* \"#utility.yul\":16453:16471   */\n      add\n        /* \"#utility.yul\":16446:16494   */\n      mstore\n        /* \"#utility.yul\":16511:16589   */\n      tag_788\n        /* \"#utility.yul\":16584:16588   */\n      dup2\n        /* \"#utility.yul\":16575:16581   */\n      dup8\n        /* \"#utility.yul\":16511:16589   */\n      tag_726\n      jump\t// in\n    tag_788:\n        /* \"#utility.yul\":16503:16589   */\n      swap1\n      pop\n        /* \"#utility.yul\":16599:16671   */\n      tag_789\n        /* \"#utility.yul\":16667:16669   */\n      0x60\n        /* \"#utility.yul\":16656:16665   */\n      dup4\n        /* \"#utility.yul\":16652:16670   */\n      add\n        /* \"#utility.yul\":16643:16649   */\n      dup7\n        /* \"#utility.yul\":16599:16671   */\n      tag_779\n      jump\t// in\n    tag_789:\n        /* \"#utility.yul\":16681:16754   */\n      tag_790\n        /* \"#utility.yul\":16749:16752   */\n      0x80\n        /* \"#utility.yul\":16738:16747   */\n      dup4\n        /* \"#utility.yul\":16734:16753   */\n      add\n        /* \"#utility.yul\":16725:16731   */\n      dup6\n        /* \"#utility.yul\":16681:16754   */\n      tag_779\n      jump\t// in\n    tag_790:\n        /* \"#utility.yul\":16764:16835   */\n      tag_791\n        /* \"#utility.yul\":16830:16833   */\n      0xa0\n        /* \"#utility.yul\":16819:16828   */\n      dup4\n        /* \"#utility.yul\":16815:16834   */\n      add\n        /* \"#utility.yul\":16806:16812   */\n      dup5\n        /* \"#utility.yul\":16764:16835   */\n      tag_713\n      jump\t// in\n    tag_791:\n        /* \"#utility.yul\":15980:16842   */\n      swap8\n      swap7\n      pop\n      pop\n      pop\n      pop\n      pop\n      pop\n      pop\n      jump\t// out\n        /* \"#utility.yul\":16848:17271   */\n    tag_57:\n        /* \"#utility.yul\":16989:16993   */\n      0x00\n        /* \"#utility.yul\":17027:17029   */\n      0x40\n        /* \"#utility.yul\":17016:17025   */\n      dup3\n        /* \"#utility.yul\":17012:17030   */\n      add\n        /* \"#utility.yul\":17004:17030   */\n      swap1\n      pop\n        /* \"#utility.yul\":17040:17111   */\n      tag_793\n        /* \"#utility.yul\":17108:17109   */\n      0x00\n        /* \"#utility.yul\":17097:17106   */\n      dup4\n        /* \"#utility.yul\":17093:17110   */\n      add\n        /* \"#utility.yul\":17084:17090   */\n      dup6\n        /* \"#utility.yul\":17040:17111   */\n      tag_682\n      jump\t// in\n    tag_793:\n        /* \"#utility.yul\":17158:17167   */\n      dup2\n        /* \"#utility.yul\":17152:17156   */\n      dup2\n        /* \"#utility.yul\":17148:17168   */\n      sub\n        /* \"#utility.yul\":17143:17145   */\n      0x20\n        /* \"#utility.yul\":17132:17141   */\n      dup4\n        /* \"#utility.yul\":17128:17146   */\n      add\n        /* \"#utility.yul\":17121:17169   */\n      mstore\n        /* \"#utility.yul\":17186:17264   */\n      tag_794\n        /* \"#utility.yul\":17259:17263   */\n      dup2\n        /* \"#utility.yul\":17250:17256   */\n      dup5\n        /* \"#utility.yul\":17186:17264   */\n      tag_726\n      jump\t// in\n    tag_794:\n        /* \"#utility.yul\":17178:17264   */\n      swap1\n      pop\n        /* \"#utility.yul\":16848:17271   */\n      swap4\n      swap3\n      pop\n      pop\n      pop\n      jump\t// out\n        /* \"#utility.yul\":17277:17901   */\n    tag_107:\n        /* \"#utility.yul\":17466:17470   */\n      0x00\n        /* \"#utility.yul\":17504:17506   */\n      0x60\n        /* \"#utility.yul\":17493:17502   */\n      dup3\n        /* \"#utility.yul\":17489:17507   */\n      add\n        /* \"#utility.yul\":17481:17507   */\n      swap1\n      pop\n        /* \"#utility.yul\":17517:17588   */\n      tag_796\n        /* \"#utility.yul\":17585:17586   */\n      0x00\n        /* \"#utility.yul\":17574:17583   */\n      dup4\n        /* \"#utility.yul\":17570:17587   */\n      add\n        /* \"#utility.yul\":17561:17567   */\n      dup7\n        /* \"#utility.yul\":17517:17588   */\n      tag_682\n      jump\t// in\n    tag_796:\n        /* \"#utility.yul\":17635:17644   */\n      dup2\n        /* \"#utility.yul\":17629:17633   */\n      dup2\n        /* \"#utility.yul\":17625:17645   */\n      sub\n        /* \"#utility.yul\":17620:17622   */\n      0x20\n        /* \"#utility.yul\":17609:17618   */\n      dup4\n        /* \"#utility.yul\":17605:17623   */\n      add\n        /* \"#utility.yul\":17598:17646   */\n      mstore\n        /* \"#utility.yul\":17663:17741   */\n      tag_797\n        /* \"#utility.yul\":17736:17740   */\n      dup2\n        /* \"#utility.yul\":17727:17733   */\n      dup6\n        /* \"#utility.yul\":17663:17741   */\n      tag_726\n      jump\t// in\n    tag_797:\n        /* \"#utility.yul\":17655:17741   */\n      swap1\n      pop\n        /* \"#utility.yul\":17788:17797   */\n      dup2\n        /* \"#utility.yul\":17782:17786   */\n      dup2\n        /* \"#utility.yul\":17778:17798   */\n      sub\n        /* \"#utility.yul\":17773:17775   */\n      0x40\n        /* \"#utility.yul\":17762:17771   */\n      dup4\n        /* \"#utility.yul\":17758:17776   */\n      add\n        /* \"#utility.yul\":17751:17799   */\n      mstore\n        /* \"#utility.yul\":17816:17894   */\n      tag_798\n        /* \"#utility.yul\":17889:17893   */\n      dup2\n        /* \"#utility.yul\":17880:17886   */\n      dup5\n        /* \"#utility.yul\":17816:17894   */\n      tag_726\n      jump\t// in\n    tag_798:\n        /* \"#utility.yul\":17808:17894   */\n      swap1\n      pop\n        /* \"#utility.yul\":17277:17901   */\n      swap5\n      swap4\n      pop\n      pop\n      pop\n      pop\n      jump\t// out\n        /* \"#utility.yul\":17907:18320   */\n    tag_118:\n        /* \"#utility.yul\":18070:18074   */\n      0x00\n        /* \"#utility.yul\":18108:18110   */\n      0x20\n        /* \"#utility.yul\":18097:18106   */\n      dup3\n        /* \"#utility.yul\":18093:18111   */\n      add\n        /* \"#utility.yul\":18085:18111   */\n      swap1\n      pop\n        /* \"#utility.yul\":18157:18166   */\n      dup2\n        /* \"#utility.yul\":18151:18155   */\n      dup2\n        /* \"#utility.yul\":18147:18167   */\n      sub\n        /* \"#utility.yul\":18143:18144   */\n      0x00\n        /* \"#utility.yul\":18132:18141   */\n      dup4\n        /* \"#utility.yul\":18128:18145   */\n      add\n        /* \"#utility.yul\":18121:18168   */\n      mstore\n        /* \"#utility.yul\":18185:18313   */\n      tag_800\n        /* \"#utility.yul\":18308:18312   */\n      dup2\n        /* \"#utility.yul\":18299:18305   */\n      dup5\n        /* \"#utility.yul\":18185:18313   */\n      tag_699\n      jump\t// in\n    tag_800:\n        /* \"#utility.yul\":18177:18313   */\n      swap1\n      pop\n        /* \"#utility.yul\":17907:18320   */\n      swap3\n      swap2\n      pop\n      pop\n      jump\t// out\n        /* \"#utility.yul\":18326:19503   */\n    tag_102:\n        /* \"#utility.yul\":18713:18717   */\n      0x00\n        /* \"#utility.yul\":18751:18754   */\n      0x80\n        /* \"#utility.yul\":18740:18749   */\n      dup3\n        /* \"#utility.yul\":18736:18755   */\n      add\n        /* \"#utility.yul\":18728:18755   */\n      swap1\n      pop\n        /* \"#utility.yul\":18801:18810   */\n      dup2\n        /* \"#utility.yul\":18795:18799   */\n      dup2\n        /* \"#utility.yul\":18791:18811   */\n      sub\n        /* \"#utility.yul\":18787:18788   */\n      0x00\n        /* \"#utility.yul\":18776:18785   */\n      dup4\n        /* \"#utility.yul\":18772:18789   */\n      add\n        /* \"#utility.yul\":18765:18812   */\n      mstore\n        /* \"#utility.yul\":18829:18907   */\n      tag_802\n        /* \"#utility.yul\":18902:18906   */\n      dup2\n        /* \"#utility.yul\":18893:18899   */\n      dup8\n        /* \"#utility.yul\":18829:18907   */\n      tag_726\n      jump\t// in\n    tag_802:\n        /* \"#utility.yul\":18821:18907   */\n      swap1\n      pop\n        /* \"#utility.yul\":18954:18963   */\n      dup2\n        /* \"#utility.yul\":18948:18952   */\n      dup2\n        /* \"#utility.yul\":18944:18964   */\n      sub\n        /* \"#utility.yul\":18939:18941   */\n      0x20\n        /* \"#utility.yul\":18928:18937   */\n      dup4\n        /* \"#utility.yul\":18924:18942   */\n      add\n        /* \"#utility.yul\":18917:18965   */\n      mstore\n        /* \"#utility.yul\":18982:19110   */\n      tag_803\n        /* \"#utility.yul\":19105:19109   */\n      dup2\n        /* \"#utility.yul\":19096:19102   */\n      dup7\n        /* \"#utility.yul\":18982:19110   */\n      tag_699\n      jump\t// in\n    tag_803:\n        /* \"#utility.yul\":18974:19110   */\n      swap1\n      pop\n        /* \"#utility.yul\":19157:19166   */\n      dup2\n        /* \"#utility.yul\":19151:19155   */\n      dup2\n        /* \"#utility.yul\":19147:19167   */\n      sub\n        /* \"#utility.yul\":19142:19144   */\n      0x40\n        /* \"#utility.yul\":19131:19140   */\n      dup4\n        /* \"#utility.yul\":19127:19145   */\n      add\n        /* \"#utility.yul\":19120:19168   */\n      mstore\n        /* \"#utility.yul\":19185:19313   */\n      tag_804\n        /* \"#utility.yul\":19308:19312   */\n      dup2\n        /* \"#utility.yul\":19299:19305   */\n      dup6\n        /* \"#utility.yul\":19185:19313   */\n      tag_699\n      jump\t// in\n    tag_804:\n        /* \"#utility.yul\":19177:19313   */\n      swap1\n      pop\n        /* \"#utility.yul\":19360:19369   */\n      dup2\n        /* \"#utility.yul\":19354:19358   */\n      dup2\n        /* \"#utility.yul\":19350:19370   */\n      sub\n        /* \"#utility.yul\":19345:19347   */\n      0x60\n        /* \"#utility.yul\":19334:19343   */\n      dup4\n        /* \"#utility.yul\":19330:19348   */\n      add\n        /* \"#utility.yul\":19323:19371   */\n      mstore\n        /* \"#utility.yul\":19388:19496   */\n      tag_805\n        /* \"#utility.yul\":19491:19495   */\n      dup2\n        /* \"#utility.yul\":19482:19488   */\n      dup5\n        /* \"#utility.yul\":19388:19496   */\n      tag_685\n      jump\t// in\n    tag_805:\n        /* \"#utility.yul\":19380:19496   */\n      swap1\n      pop\n        /* \"#utility.yul\":18326:19503   */\n      swap6\n      swap5\n      pop\n      pop\n      pop\n      pop\n      pop\n      jump\t// out\n        /* \"#utility.yul\":19509:20728   */\n    tag_34:\n        /* \"#utility.yul\":19864:19868   */\n      0x00\n        /* \"#utility.yul\":19902:19905   */\n      0xa0\n        /* \"#utility.yul\":19891:19900   */\n      dup3\n        /* \"#utility.yul\":19887:19906   */\n      add\n        /* \"#utility.yul\":19879:19906   */\n      swap1\n      pop\n        /* \"#utility.yul\":19952:19961   */\n      dup2\n        /* \"#utility.yul\":19946:19950   */\n      dup2\n        /* \"#utility.yul\":19942:19962   */\n      sub\n        /* \"#utility.yul\":19938:19939   */\n      0x00\n        /* \"#utility.yul\":19927:19936   */\n      dup4\n        /* \"#utility.yul\":19923:19940   */\n      add\n        /* \"#utility.yul\":19916:19963   */\n      mstore\n        /* \"#utility.yul\":19980:20058   */\n      tag_807\n        /* \"#utility.yul\":20053:20057   */\n      dup2\n        /* \"#utility.yul\":20044:20050   */\n      dup9\n        /* \"#utility.yul\":19980:20058   */\n      tag_726\n      jump\t// in\n    tag_807:\n        /* \"#utility.yul\":19972:20058   */\n      swap1\n      pop\n        /* \"#utility.yul\":20105:20114   */\n      dup2\n        /* \"#utility.yul\":20099:20103   */\n      dup2\n        /* \"#utility.yul\":20095:20115   */\n      sub\n        /* \"#utility.yul\":20090:20092   */\n      0x20\n        /* \"#utility.yul\":20079:20088   */\n      dup4\n        /* \"#utility.yul\":20075:20093   */\n      add\n        /* \"#utility.yul\":20068:20116   */\n      mstore\n        /* \"#utility.yul\":20133:20211   */\n      tag_808\n        /* \"#utility.yul\":20206:20210   */\n      dup2\n        /* \"#utility.yul\":20197:20203   */\n      dup8\n        /* \"#utility.yul\":20133:20211   */\n      tag_726\n      jump\t// in\n    tag_808:\n        /* \"#utility.yul\":20125:20211   */\n      swap1\n      pop\n        /* \"#utility.yul\":20258:20267   */\n      dup2\n        /* \"#utility.yul\":20252:20256   */\n      dup2\n        /* \"#utility.yul\":20248:20268   */\n      sub\n        /* \"#utility.yul\":20243:20245   */\n      0x40\n        /* \"#utility.yul\":20232:20241   */\n      dup4\n        /* \"#utility.yul\":20228:20246   */\n      add\n        /* \"#utility.yul\":20221:20269   */\n      mstore\n        /* \"#utility.yul\":20286:20364   */\n      tag_809\n        /* \"#utility.yul\":20359:20363   */\n      dup2\n        /* \"#utility.yul\":20350:20356   */\n      dup7\n        /* \"#utility.yul\":20286:20364   */\n      tag_726\n      jump\t// in\n    tag_809:\n        /* \"#utility.yul\":20278:20364   */\n      swap1\n      pop\n        /* \"#utility.yul\":20411:20420   */\n      dup2\n        /* \"#utility.yul\":20405:20409   */\n      dup2\n        /* \"#utility.yul\":20401:20421   */\n      sub\n        /* \"#utility.yul\":20396:20398   */\n      0x60\n        /* \"#utility.yul\":20385:20394   */\n      dup4\n        /* \"#utility.yul\":20381:20399   */\n      add\n        /* \"#utility.yul\":20374:20422   */\n      mstore\n        /* \"#utility.yul\":20439:20517   */\n      tag_810\n        /* \"#utility.yul\":20512:20516   */\n      dup2\n        /* \"#utility.yul\":20503:20509   */\n      dup6\n        /* \"#utility.yul\":20439:20517   */\n      tag_726\n      jump\t// in\n    tag_810:\n        /* \"#utility.yul\":20431:20517   */\n      swap1\n      pop\n        /* \"#utility.yul\":20565:20574   */\n      dup2\n        /* \"#utility.yul\":20559:20563   */\n      dup2\n        /* \"#utility.yul\":20555:20575   */\n      sub\n        /* \"#utility.yul\":20549:20552   */\n      0x80\n        /* \"#utility.yul\":20538:20547   */\n      dup4\n        /* \"#utility.yul\":20534:20553   */\n      add\n        /* \"#utility.yul\":20527:20576   */\n      mstore\n        /* \"#utility.yul\":20593:20721   */\n      tag_811\n        /* \"#utility.yul\":20716:20720   */\n      dup2\n        /* \"#utility.yul\":20707:20713   */\n      dup5\n        /* \"#utility.yul\":20593:20721   */\n      tag_699\n      jump\t// in\n    tag_811:\n        /* \"#utility.yul\":20585:20721   */\n      swap1\n      pop\n        /* \"#utility.yul\":19509:20728   */\n      swap7\n      swap6\n      pop\n      pop\n      pop\n      pop\n      pop\n      pop\n      jump\t// out\n        /* \"#utility.yul\":20734:21660   */\n    tag_82:\n        /* \"#utility.yul\":21021:21025   */\n      0x00\n        /* \"#utility.yul\":21059:21062   */\n      0x80\n        /* \"#utility.yul\":21048:21057   */\n      dup3\n        /* \"#utility.yul\":21044:21063   */\n      add\n        /* \"#utility.yul\":21036:21063   */\n      swap1\n      pop\n        /* \"#utility.yul\":21109:21118   */\n      dup2\n        /* \"#utility.yul\":21103:21107   */\n      dup2\n        /* \"#utility.yul\":21099:21119   */\n      sub\n        /* \"#utility.yul\":21095:21096   */\n      0x00\n        /* \"#utility.yul\":21084:21093   */\n      dup4\n        /* \"#utility.yul\":21080:21097   */\n      add\n        /* \"#utility.yul\":21073:21120   */\n      mstore\n        /* \"#utility.yul\":21137:21215   */\n      tag_813\n        /* \"#utility.yul\":21210:21214   */\n      dup2\n        /* \"#utility.yul\":21201:21207   */\n      dup8\n        /* \"#utility.yul\":21137:21215   */\n      tag_726\n      jump\t// in\n    tag_813:\n        /* \"#utility.yul\":21129:21215   */\n      swap1\n      pop\n        /* \"#utility.yul\":21262:21271   */\n      dup2\n        /* \"#utility.yul\":21256:21260   */\n      dup2\n        /* \"#utility.yul\":21252:21272   */\n      sub\n        /* \"#utility.yul\":21247:21249   */\n      0x20\n        /* \"#utility.yul\":21236:21245   */\n      dup4\n        /* \"#utility.yul\":21232:21250   */\n      add\n        /* \"#utility.yul\":21225:21273   */\n      mstore\n        /* \"#utility.yul\":21290:21368   */\n      tag_814\n        /* \"#utility.yul\":21363:21367   */\n      dup2\n        /* \"#utility.yul\":21354:21360   */\n      dup7\n        /* \"#utility.yul\":21290:21368   */\n      tag_726\n      jump\t// in\n    tag_814:\n        /* \"#utility.yul\":21282:21368   */\n      swap1\n      pop\n        /* \"#utility.yul\":21378:21450   */\n      tag_815\n        /* \"#utility.yul\":21446:21448   */\n      0x40\n        /* \"#utility.yul\":21435:21444   */\n      dup4\n        /* \"#utility.yul\":21431:21449   */\n      add\n        /* \"#utility.yul\":21422:21428   */\n      dup6\n        /* \"#utility.yul\":21378:21450   */\n      tag_779\n      jump\t// in\n    tag_815:\n        /* \"#utility.yul\":21497:21506   */\n      dup2\n        /* \"#utility.yul\":21491:21495   */\n      dup2\n        /* \"#utility.yul\":21487:21507   */\n      sub\n        /* \"#utility.yul\":21482:21484   */\n      0x60\n        /* \"#utility.yul\":21471:21480   */\n      dup4\n        /* \"#utility.yul\":21467:21485   */\n      add\n        /* \"#utility.yul\":21460:21508   */\n      mstore\n        /* \"#utility.yul\":21525:21653   */\n      tag_816\n        /* \"#utility.yul\":21648:21652   */\n      dup2\n        /* \"#utility.yul\":21639:21645   */\n      dup5\n        /* \"#utility.yul\":21525:21653   */\n      tag_699\n      jump\t// in\n    tag_816:\n        /* \"#utility.yul\":21517:21653   */\n      swap1\n      pop\n        /* \"#utility.yul\":20734:21660   */\n      swap6\n      swap5\n      pop\n      pop\n      pop\n      pop\n      pop\n      jump\t// out\n        /* \"#utility.yul\":21666:22085   */\n    tag_293:\n        /* \"#utility.yul\":21832:21836   */\n      0x00\n        /* \"#utility.yul\":21870:21872   */\n      0x20\n        /* \"#utility.yul\":21859:21868   */\n      dup3\n        /* \"#utility.yul\":21855:21873   */\n      add\n        /* \"#utility.yul\":21847:21873   */\n      swap1\n      pop\n        /* \"#utility.yul\":21919:21928   */\n      dup2\n        /* \"#utility.yul\":21913:21917   */\n      dup2\n        /* \"#utility.yul\":21909:21929   */\n      sub\n        /* \"#utility.yul\":21905:21906   */\n      0x00\n        /* \"#utility.yul\":21894:21903   */\n      dup4\n        /* \"#utility.yul\":21890:21907   */\n      add\n        /* \"#utility.yul\":21883:21930   */\n      mstore\n        /* \"#utility.yul\":21947:22078   */\n      tag_818\n        /* \"#utility.yul\":22073:22077   */\n      dup2\n        /* \"#utility.yul\":21947:22078   */\n      tag_739\n      jump\t// in\n    tag_818:\n        /* \"#utility.yul\":21939:22078   */\n      swap1\n      pop\n        /* \"#utility.yul\":21666:22085   */\n      swap2\n      swap1\n      pop\n      jump\t// out\n        /* \"#utility.yul\":22091:22510   */\n    tag_517:\n        /* \"#utility.yul\":22257:22261   */\n      0x00\n        /* \"#utility.yul\":22295:22297   */\n      0x20\n        /* \"#utility.yul\":22284:22293   */\n      dup3\n        /* \"#utility.yul\":22280:22298   */\n      add\n        /* \"#utility.yul\":22272:22298   */\n      swap1\n      pop\n        /* \"#utility.yul\":22344:22353   */\n      dup2\n        /* \"#utility.yul\":22338:22342   */\n      dup2\n        /* \"#utility.yul\":22334:22354   */\n      sub\n        /* \"#utility.yul\":22330:22331   */\n      0x00\n        /* \"#utility.yul\":22319:22328   */\n      dup4\n        /* \"#utility.yul\":22315:22332   */\n      add\n        /* \"#utility.yul\":22308:22355   */\n      mstore\n        /* \"#utility.yul\":22372:22503   */\n      tag_820\n        /* \"#utility.yul\":22498:22502   */\n      dup2\n        /* \"#utility.yul\":22372:22503   */\n      tag_744\n      jump\t// in\n    tag_820:\n        /* \"#utility.yul\":22364:22503   */\n      swap1\n      pop\n        /* \"#utility.yul\":22091:22510   */\n      swap2\n      swap1\n      pop\n      jump\t// out\n        /* \"#utility.yul\":22516:22935   */\n    tag_312:\n        /* \"#utility.yul\":22682:22686   */\n      0x00\n        /* \"#utility.yul\":22720:22722   */\n      0x20\n        /* \"#utility.yul\":22709:22718   */\n      dup3\n        /* \"#utility.yul\":22705:22723   */\n      add\n        /* \"#utility.yul\":22697:22723   */\n      swap1\n      pop\n        /* \"#utility.yul\":22769:22778   */\n      dup2\n        /* \"#utility.yul\":22763:22767   */\n      dup2\n        /* \"#utility.yul\":22759:22779   */\n      sub\n        /* \"#utility.yul\":22755:22756   */\n      0x00\n        /* \"#utility.yul\":22744:22753   */\n      dup4\n        /* \"#utility.yul\":22740:22757   */\n      add\n        /* \"#utility.yul\":22733:22780   */\n      mstore\n        /* \"#utility.yul\":22797:22928   */\n      tag_822\n        /* \"#utility.yul\":22923:22927   */\n      dup2\n        /* \"#utility.yul\":22797:22928   */\n      tag_749\n      jump\t// in\n    tag_822:\n        /* \"#utility.yul\":22789:22928   */\n      swap1\n      pop\n        /* \"#utility.yul\":22516:22935   */\n      swap2\n      swap1\n      pop\n      jump\t// out\n        /* \"#utility.yul\":22941:23360   */\n    tag_125:\n        /* \"#utility.yul\":23107:23111   */\n      0x00\n        /* \"#utility.yul\":23145:23147   */\n      0x20\n        /* \"#utility.yul\":23134:23143   */\n      dup3\n        /* \"#utility.yul\":23130:23148   */\n      add\n        /* \"#utility.yul\":23122:23148   */\n      swap1\n      pop\n        /* \"#utility.yul\":23194:23203   */\n      dup2\n        /* \"#utility.yul\":23188:23192   */\n      dup2\n        /* \"#utility.yul\":23184:23204   */\n      sub\n        /* \"#utility.yul\":23180:23181   */\n      0x00\n        /* \"#utility.yul\":23169:23178   */\n      dup4\n        /* \"#utility.yul\":23165:23182   */\n      add\n        /* \"#utility.yul\":23158:23205   */\n      mstore\n        /* \"#utility.yul\":23222:23353   */\n      tag_824\n        /* \"#utility.yul\":23348:23352   */\n      dup2\n        /* \"#utility.yul\":23222:23353   */\n      tag_754\n      jump\t// in\n    tag_824:\n        /* \"#utility.yul\":23214:23353   */\n      swap1\n      pop\n        /* \"#utility.yul\":22941:23360   */\n      swap2\n      swap1\n      pop\n      jump\t// out\n        /* \"#utility.yul\":23366:23785   */\n    tag_185:\n        /* \"#utility.yul\":23532:23536   */\n      0x00\n        /* \"#utility.yul\":23570:23572   */\n      0x20\n        /* \"#utility.yul\":23559:23568   */\n      dup3\n        /* \"#utility.yul\":23555:23573   */\n      add\n        /* \"#utility.yul\":23547:23573   */\n      swap1\n      pop\n        /* \"#utility.yul\":23619:23628   */\n      dup2\n        /* \"#utility.yul\":23613:23617   */\n      dup2\n        /* \"#utility.yul\":23609:23629   */\n      sub\n        /* \"#utility.yul\":23605:23606   */\n      0x00\n        /* \"#utility.yul\":23594:23603   */\n      dup4\n        /* \"#utility.yul\":23590:23607   */\n      add\n        /* \"#utility.yul\":23583:23630   */\n      mstore\n        /* \"#utility.yul\":23647:23778   */\n      tag_826\n        /* \"#utility.yul\":23773:23777   */\n      dup2\n        /* \"#utility.yul\":23647:23778   */\n      tag_759\n      jump\t// in\n    tag_826:\n        /* \"#utility.yul\":23639:23778   */\n      swap1\n      pop\n        /* \"#utility.yul\":23366:23785   */\n      swap2\n      swap1\n      pop\n      jump\t// out\n        /* \"#utility.yul\":23791:24210   */\n    tag_169:\n        /* \"#utility.yul\":23957:23961   */\n      0x00\n        /* \"#utility.yul\":23995:23997   */\n      0x20\n        /* \"#utility.yul\":23984:23993   */\n      dup3\n        /* \"#utility.yul\":23980:23998   */\n      add\n        /* \"#utility.yul\":23972:23998   */\n      swap1\n      pop\n        /* \"#utility.yul\":24044:24053   */\n      dup2\n        /* \"#utility.yul\":24038:24042   */\n      dup2\n        /* \"#utility.yul\":24034:24054   */\n      sub\n        /* \"#utility.yul\":24030:24031   */\n      0x00\n        /* \"#utility.yul\":24019:24028   */\n      dup4\n        /* \"#utility.yul\":24015:24032   */\n      add\n        /* \"#utility.yul\":24008:24055   */\n      mstore\n        /* \"#utility.yul\":24072:24203   */\n      tag_828\n        /* \"#utility.yul\":24198:24202   */\n      dup2\n        /* \"#utility.yul\":24072:24203   */\n      tag_764\n      jump\t// in\n    tag_828:\n        /* \"#utility.yul\":24064:24203   */\n      swap1\n      pop\n        /* \"#utility.yul\":23791:24210   */\n      swap2\n      swap1\n      pop\n      jump\t// out\n        /* \"#utility.yul\":24216:24635   */\n    tag_513:\n        /* \"#utility.yul\":24382:24386   */\n      0x00\n        /* \"#utility.yul\":24420:24422   */\n      0x20\n        /* \"#utility.yul\":24409:24418   */\n      dup3\n        /* \"#utility.yul\":24405:24423   */\n      add\n        /* \"#utility.yul\":24397:24423   */\n      swap1\n      pop\n        /* \"#utility.yul\":24469:24478   */\n      dup2\n        /* \"#utility.yul\":24463:24467   */\n      dup2\n        /* \"#utility.yul\":24459:24479   */\n      sub\n        /* \"#utility.yul\":24455:24456   */\n      0x00\n        /* \"#utility.yul\":24444:24453   */\n      dup4\n        /* \"#utility.yul\":24440:24457   */\n      add\n        /* \"#utility.yul\":24433:24480   */\n      mstore\n        /* \"#utility.yul\":24497:24628   */\n      tag_830\n        /* \"#utility.yul\":24623:24627   */\n      dup2\n        /* \"#utility.yul\":24497:24628   */\n      tag_769\n      jump\t// in\n    tag_830:\n        /* \"#utility.yul\":24489:24628   */\n      swap1\n      pop\n        /* \"#utility.yul\":24216:24635   */\n      swap2\n      swap1\n      pop\n      jump\t// out\n        /* \"#utility.yul\":24641:25060   */\n    tag_212:\n        /* \"#utility.yul\":24807:24811   */\n      0x00\n        /* \"#utility.yul\":24845:24847   */\n      0x20\n        /* \"#utility.yul\":24834:24843   */\n      dup3\n        /* \"#utility.yul\":24830:24848   */\n      add\n        /* \"#utility.yul\":24822:24848   */\n      swap1\n      pop\n        /* \"#utility.yul\":24894:24903   */\n      dup2\n        /* \"#utility.yul\":24888:24892   */\n      dup2\n        /* \"#utility.yul\":24884:24904   */\n      sub\n        /* \"#utility.yul\":24880:24881   */\n      0x00\n        /* \"#utility.yul\":24869:24878   */\n      dup4\n        /* \"#utility.yul\":24865:24882   */\n      add\n        /* \"#utility.yul\":24858:24905   */\n      mstore\n        /* \"#utility.yul\":24922:25053   */\n      tag_832\n        /* \"#utility.yul\":25048:25052   */\n      dup2\n        /* \"#utility.yul\":24922:25053   */\n      tag_774\n      jump\t// in\n    tag_832:\n        /* \"#utility.yul\":24914:25053   */\n      swap1\n      pop\n        /* \"#utility.yul\":24641:25060   */\n      swap2\n      swap1\n      pop\n      jump\t// out\n        /* \"#utility.yul\":25066:25195   */\n    tag_562:\n        /* \"#utility.yul\":25100:25106   */\n      0x00\n        /* \"#utility.yul\":25127:25147   */\n      tag_834\n      tag_835\n      jump\t// in\n    tag_834:\n        /* \"#utility.yul\":25117:25147   */\n      swap1\n      pop\n        /* \"#utility.yul\":25156:25189   */\n      tag_836\n        /* \"#utility.yul\":25184:25188   */\n      dup3\n        /* \"#utility.yul\":25176:25182   */\n      dup3\n        /* \"#utility.yul\":25156:25189   */\n      tag_837\n      jump\t// in\n    tag_836:\n        /* \"#utility.yul\":25066:25195   */\n      swap2\n      swap1\n      pop\n      jump\t// out\n        /* \"#utility.yul\":25201:25276   */\n    tag_835:\n        /* \"#utility.yul\":25234:25240   */\n      0x00\n        /* \"#utility.yul\":25267:25269   */\n      0x40\n        /* \"#utility.yul\":25261:25270   */\n      mload\n        /* \"#utility.yul\":25251:25270   */\n      swap1\n      pop\n        /* \"#utility.yul\":25201:25276   */\n      swap1\n      jump\t// out\n        /* \"#utility.yul\":25282:25590   */\n    tag_561:\n        /* \"#utility.yul\":25344:25348   */\n      0x00\n        /* \"#utility.yul\":25434:25452   */\n      0xffffffffffffffff\n        /* \"#utility.yul\":25426:25432   */\n      dup3\n        /* \"#utility.yul\":25423:25453   */\n      gt\n        /* \"#utility.yul\":25420:25476   */\n      iszero\n      tag_840\n      jumpi\n        /* \"#utility.yul\":25456:25474   */\n      tag_841\n      tag_842\n      jump\t// in\n    tag_841:\n        /* \"#utility.yul\":25420:25476   */\n    tag_840:\n        /* \"#utility.yul\":25494:25523   */\n      tag_843\n        /* \"#utility.yul\":25516:25522   */\n      dup3\n        /* \"#utility.yul\":25494:25523   */\n      tag_725\n      jump\t// in\n    tag_843:\n        /* \"#utility.yul\":25486:25523   */\n      swap1\n      pop\n        /* \"#utility.yul\":25578:25582   */\n      0x20\n        /* \"#utility.yul\":25572:25576   */\n      dup2\n        /* \"#utility.yul\":25568:25583   */\n      add\n        /* \"#utility.yul\":25560:25583   */\n      swap1\n      pop\n        /* \"#utility.yul\":25282:25590   */\n      swap2\n      swap1\n      pop\n      jump\t// out\n        /* \"#utility.yul\":25596:25728   */\n    tag_692:\n        /* \"#utility.yul\":25663:25667   */\n      0x00\n        /* \"#utility.yul\":25686:25689   */\n      dup2\n        /* \"#utility.yul\":25678:25689   */\n      swap1\n      pop\n        /* \"#utility.yul\":25716:25720   */\n      0x20\n        /* \"#utility.yul\":25711:25714   */\n      dup3\n        /* \"#utility.yul\":25707:25721   */\n      add\n        /* \"#utility.yul\":25699:25721   */\n      swap1\n      pop\n        /* \"#utility.yul\":25596:25728   */\n      swap2\n      swap1\n      pop\n      jump\t// out\n        /* \"#utility.yul\":25734:25876   */\n    tag_706:\n        /* \"#utility.yul\":25811:25815   */\n      0x00\n        /* \"#utility.yul\":25834:25837   */\n      dup2\n        /* \"#utility.yul\":25826:25837   */\n      swap1\n      pop\n        /* \"#utility.yul\":25864:25868   */\n      0x20\n        /* \"#utility.yul\":25859:25862   */\n      dup3\n        /* \"#utility.yul\":25855:25869   */\n      add\n        /* \"#utility.yul\":25847:25869   */\n      swap1\n      pop\n        /* \"#utility.yul\":25734:25876   */\n      swap2\n      swap1\n      pop\n      jump\t// out\n        /* \"#utility.yul\":25882:25996   */\n    tag_688:\n        /* \"#utility.yul\":25949:25955   */\n      0x00\n        /* \"#utility.yul\":25983:25988   */\n      dup2\n        /* \"#utility.yul\":25977:25989   */\n      mload\n        /* \"#utility.yul\":25967:25989   */\n      swap1\n      pop\n        /* \"#utility.yul\":25882:25996   */\n      swap2\n      swap1\n      pop\n      jump\t// out\n        /* \"#utility.yul\":26002:26126   */\n    tag_702:\n        /* \"#utility.yul\":26079:26085   */\n      0x00\n        /* \"#utility.yul\":26113:26118   */\n      dup2\n        /* \"#utility.yul\":26107:26119   */\n      mload\n        /* \"#utility.yul\":26097:26119   */\n      swap1\n      pop\n        /* \"#utility.yul\":26002:26126   */\n      swap2\n      swap1\n      pop\n      jump\t// out\n        /* \"#utility.yul\":26132:26231   */\n    tag_719:\n        /* \"#utility.yul\":26184:26190   */\n      0x00\n        /* \"#utility.yul\":26218:26223   */\n      dup2\n        /* \"#utility.yul\":26212:26224   */\n      mload\n        /* \"#utility.yul\":26202:26224   */\n      swap1\n      pop\n        /* \"#utility.yul\":26132:26231   */\n      swap2\n      swap1\n      pop\n      jump\t// out\n        /* \"#utility.yul\":26237:26350   */\n    tag_698:\n        /* \"#utility.yul\":26307:26311   */\n      0x00\n        /* \"#utility.yul\":26339:26343   */\n      0x20\n        /* \"#utility.yul\":26334:26337   */\n      dup3\n        /* \"#utility.yul\":26330:26344   */\n      add\n        /* \"#utility.yul\":26322:26344   */\n      swap1\n      pop\n        /* \"#utility.yul\":26237:26350   */\n      swap2\n      swap1\n      pop\n      jump\t// out\n        /* \"#utility.yul\":26356:26479   */\n    tag_712:\n        /* \"#utility.yul\":26436:26440   */\n      0x00\n        /* \"#utility.yul\":26468:26472   */\n      0x20\n        /* \"#utility.yul\":26463:26466   */\n      dup3\n        /* \"#utility.yul\":26459:26473   */\n      add\n        /* \"#utility.yul\":26451:26473   */\n      swap1\n      pop\n        /* \"#utility.yul\":26356:26479   */\n      swap2\n      swap1\n      pop\n      jump\t// out\n        /* \"#utility.yul\":26485:26669   */\n    tag_690:\n        /* \"#utility.yul\":26584:26595   */\n      0x00\n        /* \"#utility.yul\":26618:26624   */\n      dup3\n        /* \"#utility.yul\":26613:26616   */\n      dup3\n        /* \"#utility.yul\":26606:26625   */\n      mstore\n        /* \"#utility.yul\":26658:26662   */\n      0x20\n        /* \"#utility.yul\":26653:26656   */\n      dup3\n        /* \"#utility.yul\":26649:26663   */\n      add\n        /* \"#utility.yul\":26634:26663   */\n      swap1\n      pop\n        /* \"#utility.yul\":26485:26669   */\n      swap3\n      swap2\n      pop\n      pop\n      jump\t// out\n        /* \"#utility.yul\":26675:26869   */\n    tag_704:\n        /* \"#utility.yul\":26784:26795   */\n      0x00\n        /* \"#utility.yul\":26818:26824   */\n      dup3\n        /* \"#utility.yul\":26813:26816   */\n      dup3\n        /* \"#utility.yul\":26806:26825   */\n      mstore\n        /* \"#utility.yul\":26858:26862   */\n      0x20\n        /* \"#utility.yul\":26853:26856   */\n      dup3\n        /* \"#utility.yul\":26849:26863   */\n      add\n        /* \"#utility.yul\":26834:26863   */\n      swap1\n      pop\n        /* \"#utility.yul\":26675:26869   */\n      swap3\n      swap2\n      pop\n      pop\n      jump\t// out\n        /* \"#utility.yul\":26875:27034   */\n    tag_721:\n        /* \"#utility.yul\":26949:26960   */\n      0x00\n        /* \"#utility.yul\":26983:26989   */\n      dup3\n        /* \"#utility.yul\":26978:26981   */\n      dup3\n        /* \"#utility.yul\":26971:26990   */\n      mstore\n        /* \"#utility.yul\":27023:27027   */\n      0x20\n        /* \"#utility.yul\":27018:27021   */\n      dup3\n        /* \"#utility.yul\":27014:27028   */\n      add\n        /* \"#utility.yul\":26999:27028   */\n      swap1\n      pop\n        /* \"#utility.yul\":26875:27034   */\n      swap3\n      swap2\n      pop\n      pop\n      jump\t// out\n        /* \"#utility.yul\":27040:27209   */\n    tag_730:\n        /* \"#utility.yul\":27124:27135   */\n      0x00\n        /* \"#utility.yul\":27158:27164   */\n      dup3\n        /* \"#utility.yul\":27153:27156   */\n      dup3\n        /* \"#utility.yul\":27146:27165   */\n      mstore\n        /* \"#utility.yul\":27198:27202   */\n      0x20\n        /* \"#utility.yul\":27193:27196   */\n      dup3\n        /* \"#utility.yul\":27189:27203   */\n      add\n        /* \"#utility.yul\":27174:27203   */\n      swap1\n      pop\n        /* \"#utility.yul\":27040:27209   */\n      swap3\n      swap2\n      pop\n      pop\n      jump\t// out\n        /* \"#utility.yul\":27215:27363   */\n    tag_737:\n        /* \"#utility.yul\":27317:27328   */\n      0x00\n        /* \"#utility.yul\":27354:27357   */\n      dup2\n        /* \"#utility.yul\":27339:27357   */\n      swap1\n      pop\n        /* \"#utility.yul\":27215:27363   */\n      swap3\n      swap2\n      pop\n      pop\n      jump\t// out\n        /* \"#utility.yul\":27369:27465   */\n    tag_681:\n        /* \"#utility.yul\":27406:27413   */\n      0x00\n        /* \"#utility.yul\":27435:27459   */\n      tag_857\n        /* \"#utility.yul\":27453:27458   */\n      dup3\n        /* \"#utility.yul\":27435:27459   */\n      tag_858\n      jump\t// in\n    tag_857:\n        /* \"#utility.yul\":27424:27459   */\n      swap1\n      pop\n        /* \"#utility.yul\":27369:27465   */\n      swap2\n      swap1\n      pop\n      jump\t// out\n        /* \"#utility.yul\":27471:27575   */\n    tag_859:\n        /* \"#utility.yul\":27516:27523   */\n      0x00\n        /* \"#utility.yul\":27545:27569   */\n      tag_861\n        /* \"#utility.yul\":27563:27568   */\n      dup3\n        /* \"#utility.yul\":27545:27569   */\n      tag_858\n      jump\t// in\n    tag_861:\n        /* \"#utility.yul\":27534:27569   */\n      swap1\n      pop\n        /* \"#utility.yul\":27471:27575   */\n      swap2\n      swap1\n      pop\n      jump\t// out\n        /* \"#utility.yul\":27581:27671   */\n    tag_862:\n        /* \"#utility.yul\":27615:27622   */\n      0x00\n        /* \"#utility.yul\":27658:27663   */\n      dup2\n        /* \"#utility.yul\":27651:27664   */\n      iszero\n        /* \"#utility.yul\":27644:27665   */\n      iszero\n        /* \"#utility.yul\":27633:27665   */\n      swap1\n      pop\n        /* \"#utility.yul\":27581:27671   */\n      swap2\n      swap1\n      pop\n      jump\t// out\n        /* \"#utility.yul\":27677:27753   */\n    tag_716:\n        /* \"#utility.yul\":27713:27720   */\n      0x00\n        /* \"#utility.yul\":27742:27747   */\n      dup2\n        /* \"#utility.yul\":27731:27747   */\n      swap1\n      pop\n        /* \"#utility.yul\":27677:27753   */\n      swap2\n      swap1\n      pop\n      jump\t// out\n        /* \"#utility.yul\":27759:27885   */\n    tag_858:\n        /* \"#utility.yul\":27796:27803   */\n      0x00\n        /* \"#utility.yul\":27836:27878   */\n      0xffffffffffffffffffffffffffffffffffffffff\n        /* \"#utility.yul\":27829:27834   */\n      dup3\n        /* \"#utility.yul\":27825:27879   */\n      and\n        /* \"#utility.yul\":27814:27879   */\n      swap1\n      pop\n        /* \"#utility.yul\":27759:27885   */\n      swap2\n      swap1\n      pop\n      jump\t// out\n        /* \"#utility.yul\":27891:27968   */\n    tag_782:\n        /* \"#utility.yul\":27928:27935   */\n      0x00\n        /* \"#utility.yul\":27957:27962   */\n      dup2\n        /* \"#utility.yul\":27946:27962   */\n      swap1\n      pop\n        /* \"#utility.yul\":27891:27968   */\n      swap2\n      swap1\n      pop\n      jump\t// out\n        /* \"#utility.yul\":27974:28128   */\n    tag_567:\n        /* \"#utility.yul\":28058:28064   */\n      dup3\n        /* \"#utility.yul\":28053:28056   */\n      dup2\n        /* \"#utility.yul\":28048:28051   */\n      dup4\n        /* \"#utility.yul\":28035:28065   */\n      calldatacopy\n        /* \"#utility.yul\":28120:28121   */\n      0x00\n        /* \"#utility.yul\":28111:28117   */\n      dup4\n        /* \"#utility.yul\":28106:28109   */\n      dup4\n        /* \"#utility.yul\":28102:28118   */\n      add\n        /* \"#utility.yul\":28095:28122   */\n      mstore\n        /* \"#utility.yul\":27974:28128   */\n      pop\n      pop\n      pop\n      jump\t// out\n        /* \"#utility.yul\":28134:28441   */\n    tag_723:\n        /* \"#utility.yul\":28202:28203   */\n      0x00\n        /* \"#utility.yul\":28212:28325   */\n    tag_869:\n        /* \"#utility.yul\":28226:28232   */\n      dup4\n        /* \"#utility.yul\":28223:28224   */\n      dup2\n        /* \"#utility.yul\":28220:28233   */\n      lt\n        /* \"#utility.yul\":28212:28325   */\n      iszero\n      tag_871\n      jumpi\n        /* \"#utility.yul\":28311:28312   */\n      dup1\n        /* \"#utility.yul\":28306:28309   */\n      dup3\n        /* \"#utility.yul\":28302:28313   */\n      add\n        /* \"#utility.yul\":28296:28314   */\n      mload\n        /* \"#utility.yul\":28292:28293   */\n      dup2\n        /* \"#utility.yul\":28287:28290   */\n      dup5\n        /* \"#utility.yul\":28283:28294   */\n      add\n        /* \"#utility.yul\":28276:28315   */\n      mstore\n        /* \"#utility.yul\":28248:28250   */\n      0x20\n        /* \"#utility.yul\":28245:28246   */\n      dup2\n        /* \"#utility.yul\":28241:28251   */\n      add\n        /* \"#utility.yul\":28236:28251   */\n      swap1\n      pop\n        /* \"#utility.yul\":28212:28325   */\n      jump(tag_869)\n    tag_871:\n        /* \"#utility.yul\":28343:28349   */\n      dup4\n        /* \"#utility.yul\":28340:28341   */\n      dup2\n        /* \"#utility.yul\":28337:28350   */\n      gt\n        /* \"#utility.yul\":28334:28435   */\n      iszero\n      tag_872\n      jumpi\n        /* \"#utility.yul\":28423:28424   */\n      0x00\n        /* \"#utility.yul\":28414:28420   */\n      dup5\n        /* \"#utility.yul\":28409:28412   */\n      dup5\n        /* \"#utility.yul\":28405:28421   */\n      add\n        /* \"#utility.yul\":28398:28425   */\n      mstore\n        /* \"#utility.yul\":28334:28435   */\n    tag_872:\n        /* \"#utility.yul\":28183:28441   */\n      pop\n        /* \"#utility.yul\":28134:28441   */\n      pop\n      pop\n      pop\n      jump\t// out\n        /* \"#utility.yul\":28447:28767   */\n    tag_128:\n        /* \"#utility.yul\":28491:28497   */\n      0x00\n        /* \"#utility.yul\":28528:28529   */\n      0x02\n        /* \"#utility.yul\":28522:28526   */\n      dup3\n        /* \"#utility.yul\":28518:28530   */\n      div\n        /* \"#utility.yul\":28508:28530   */\n      swap1\n      pop\n        /* \"#utility.yul\":28575:28576   */\n      0x01\n        /* \"#utility.yul\":28569:28573   */\n      dup3\n        /* \"#utility.yul\":28565:28577   */\n      and\n        /* \"#utility.yul\":28596:28614   */\n      dup1\n        /* \"#utility.yul\":28586:28667   */\n      tag_874\n      jumpi\n        /* \"#utility.yul\":28652:28656   */\n      0x7f\n        /* \"#utility.yul\":28644:28650   */\n      dup3\n        /* \"#utility.yul\":28640:28657   */\n      and\n        /* \"#utility.yul\":28630:28657   */\n      swap2\n      pop\n        /* \"#utility.yul\":28586:28667   */\n    tag_874:\n        /* \"#utility.yul\":28714:28716   */\n      0x20\n        /* \"#utility.yul\":28706:28712   */\n      dup3\n        /* \"#utility.yul\":28703:28717   */\n      lt\n        /* \"#utility.yul\":28683:28701   */\n      dup2\n        /* \"#utility.yul\":28680:28718   */\n      eq\n        /* \"#utility.yul\":28677:28761   */\n      iszero\n      tag_875\n      jumpi\n        /* \"#utility.yul\":28733:28751   */\n      tag_876\n      tag_877\n      jump\t// in\n    tag_876:\n        /* \"#utility.yul\":28677:28761   */\n    tag_875:\n        /* \"#utility.yul\":28498:28767   */\n      pop\n        /* \"#utility.yul\":28447:28767   */\n      swap2\n      swap1\n      pop\n      jump\t// out\n        /* \"#utility.yul\":28773:29054   */\n    tag_837:\n        /* \"#utility.yul\":28856:28883   */\n      tag_879\n        /* \"#utility.yul\":28878:28882   */\n      dup3\n        /* \"#utility.yul\":28856:28883   */\n      tag_725\n      jump\t// in\n    tag_879:\n        /* \"#utility.yul\":28848:28854   */\n      dup2\n        /* \"#utility.yul\":28844:28884   */\n      add\n        /* \"#utility.yul\":28986:28992   */\n      dup2\n        /* \"#utility.yul\":28974:28984   */\n      dup2\n        /* \"#utility.yul\":28971:28993   */\n      lt\n        /* \"#utility.yul\":28950:28968   */\n      0xffffffffffffffff\n        /* \"#utility.yul\":28938:28948   */\n      dup3\n        /* \"#utility.yul\":28935:28969   */\n      gt\n        /* \"#utility.yul\":28932:28994   */\n      or\n        /* \"#utility.yul\":28929:29017   */\n      iszero\n      tag_880\n      jumpi\n        /* \"#utility.yul\":28997:29015   */\n      tag_881\n      tag_842\n      jump\t// in\n    tag_881:\n        /* \"#utility.yul\":28929:29017   */\n    tag_880:\n        /* \"#utility.yul\":29037:29047   */\n      dup1\n        /* \"#utility.yul\":29033:29035   */\n      0x40\n        /* \"#utility.yul\":29026:29048   */\n      mstore\n        /* \"#utility.yul\":28816:29054   */\n      pop\n        /* \"#utility.yul\":28773:29054   */\n      pop\n      pop\n      jump\t// out\n        /* \"#utility.yul\":29060:29293   */\n    tag_475:\n        /* \"#utility.yul\":29099:29102   */\n      0x00\n        /* \"#utility.yul\":29122:29146   */\n      tag_883\n        /* \"#utility.yul\":29140:29145   */\n      dup3\n        /* \"#utility.yul\":29122:29146   */\n      tag_782\n      jump\t// in\n    tag_883:\n        /* \"#utility.yul\":29113:29146   */\n      swap2\n      pop\n        /* \"#utility.yul\":29168:29234   */\n      0xffffffffffffffffffffffffffffffffffffffffffffffffffffffffffffffff\n        /* \"#utility.yul\":29161:29166   */\n      dup3\n        /* \"#utility.yul\":29158:29235   */\n      eq\n        /* \"#utility.yul\":29155:29258   */\n      iszero\n      tag_884\n      jumpi\n        /* \"#utility.yul\":29238:29256   */\n      tag_885\n      tag_886\n      jump\t// in\n    tag_885:\n        /* \"#utility.yul\":29155:29258   */\n    tag_884:\n        /* \"#utility.yul\":29285:29286   */\n      0x01\n        /* \"#utility.yul\":29278:29283   */\n      dup3\n        /* \"#utility.yul\":29274:29287   */\n      add\n        /* \"#utility.yul\":29267:29287   */\n      swap1\n      pop\n        /* \"#utility.yul\":29060:29293   */\n      swap2\n      swap1\n      pop\n      jump\t// out\n        /* \"#utility.yul\":29299:29479   */\n    tag_886:\n        /* \"#utility.yul\":29347:29424   */\n      0x4e487b7100000000000000000000000000000000000000000000000000000000\n        /* \"#utility.yul\":29344:29345   */\n      0x00\n        /* \"#utility.yul\":29337:29425   */\n      mstore\n        /* \"#utility.yul\":29444:29448   */\n      0x11\n        /* \"#utility.yul\":29441:29442   */\n      0x04\n        /* \"#utility.yul\":29434:29449   */\n      mstore\n        /* \"#utility.yul\":29468:29472   */\n      0x24\n        /* \"#utility.yul\":29465:29466   */\n      0x00\n        /* \"#utility.yul\":29458:29473   */\n      revert\n        /* \"#utility.yul\":29485:29665   */\n    tag_122:\n        /* \"#utility.yul\":29533:29610   */\n      0x4e487b7100000000000000000000000000000000000000000000000000000000\n        /* \"#utility.yul\":29530:29531   */\n      0x00\n        /* \"#utility.yul\":29523:29611   */\n      mstore\n        /* \"#utility.yul\":29630:29634   */\n      0x21\n        /* \"#utility.yul\":29627:29628   */\n      0x04\n        /* \"#utility.yul\":29620:29635   */\n      mstore\n        /* \"#utility.yul\":29654:29658   */\n      0x24\n        /* \"#utility.yul\":29651:29652   */\n      0x00\n        /* \"#utility.yul\":29644:29659   */\n      revert\n        /* \"#utility.yul\":29671:29851   */\n    tag_877:\n        /* \"#utility.yul\":29719:29796   */\n      0x4e487b7100000000000000000000000000000000000000000000000000000000\n        /* \"#utility.yul\":29716:29717   */\n      0x00\n        /* \"#utility.yul\":29709:29797   */\n      mstore\n        /* \"#utility.yul\":29816:29820   */\n      0x22\n        /* \"#utility.yul\":29813:29814   */\n      0x04\n        /* \"#utility.yul\":29806:29821   */\n      mstore\n        /* \"#utility.yul\":29840:29844   */\n      0x24\n        /* \"#utility.yul\":29837:29838   */\n      0x00\n        /* \"#utility.yul\":29830:29845   */\n      revert\n        /* \"#utility.yul\":29857:30037   */\n    tag_473:\n        /* \"#utility.yul\":29905:29982   */\n      0x4e487b7100000000000000000000000000000000000000000000000000000000\n        /* \"#utility.yul\":29902:29903   */\n      0x00\n        /* \"#utility.yul\":29895:29983   */\n      mstore\n        /* \"#utility.yul\":30002:30006   */\n      0x32\n        /* \"#utility.yul\":29999:30000   */\n      0x04\n        /* \"#utility.yul\":29992:30007   */\n      mstore\n        /* \"#utility.yul\":30026:30030   */\n      0x24\n        /* \"#utility.yul\":30023:30024   */\n      0x00\n        /* \"#utility.yul\":30016:30031   */\n      revert\n        /* \"#utility.yul\":30043:30223   */\n    tag_842:\n        /* \"#utility.yul\":30091:30168   */\n      0x4e487b7100000000000000000000000000000000000000000000000000000000\n        /* \"#utility.yul\":30088:30089   */\n      0x00\n        /* \"#utility.yul\":30081:30169   */\n      mstore\n        /* \"#utility.yul\":30188:30192   */\n      0x41\n        /* \"#utility.yul\":30185:30186   */\n      0x04\n        /* \"#utility.yul\":30178:30193   */\n      mstore\n        /* \"#utility.yul\":30212:30216   */\n      0x24\n        /* \"#utility.yul\":30209:30210   */\n      0x00\n        /* \"#utility.yul\":30202:30217   */\n      revert\n        /* \"#utility.yul\":30229:30346   */\n    tag_588:\n        /* \"#utility.yul\":30338:30339   */\n      0x00\n        /* \"#utility.yul\":30335:30336   */\n      dup1\n        /* \"#utility.yul\":30328:30340   */\n      revert\n        /* \"#utility.yul\":30352:30469   */\n    tag_565:\n        /* \"#utility.yul\":30461:30462   */\n      0x00\n        /* \"#utility.yul\":30458:30459   */\n      dup1\n        /* \"#utility.yul\":30451:30463   */\n      revert\n        /* \"#utility.yul\":30475:30592   */\n    tag_605:\n        /* \"#utility.yul\":30584:30585   */\n      0x00\n        /* \"#utility.yul\":30581:30582   */\n      dup1\n        /* \"#utility.yul\":30574:30586   */\n      revert\n        /* \"#utility.yul\":30598:30715   */\n    tag_593:\n        /* \"#utility.yul\":30707:30708   */\n      0x00\n        /* \"#utility.yul\":30704:30705   */\n      dup1\n        /* \"#utility.yul\":30697:30709   */\n      revert\n        /* \"#utility.yul\":30721:30823   */\n    tag_725:\n        /* \"#utility.yul\":30762:30768   */\n      0x00\n        /* \"#utility.yul\":30813:30815   */\n      0x1f\n        /* \"#utility.yul\":30809:30816   */\n      not\n        /* \"#utility.yul\":30804:30806   */\n      0x1f\n        /* \"#utility.yul\":30797:30802   */\n      dup4\n        /* \"#utility.yul\":30793:30807   */\n      add\n        /* \"#utility.yul\":30789:30817   */\n      and\n        /* \"#utility.yul\":30779:30817   */\n      swap1\n      pop\n        /* \"#utility.yul\":30721:30823   */\n      swap2\n      swap1\n      pop\n      jump\t// out\n        /* \"#utility.yul\":30829:31006   */\n    tag_743:\n        /* \"#utility.yul\":30969:30998   */\n      0x596f7520616c726561647920636865636b207468697320636173650000000000\n        /* \"#utility.yul\":30965:30966   */\n      0x00\n        /* \"#utility.yul\":30957:30963   */\n      dup3\n        /* \"#utility.yul\":30953:30967   */\n      add\n        /* \"#utility.yul\":30946:30999   */\n      mstore\n        /* \"#utility.yul\":30829:31006   */\n      pop\n      jump\t// out\n        /* \"#utility.yul\":31012:31233   */\n    tag_748:\n        /* \"#utility.yul\":31152:31186   */\n      0x596f7572206c6f67696e20616c726561647920657869737420696e2073797374\n        /* \"#utility.yul\":31148:31149   */\n      0x00\n        /* \"#utility.yul\":31140:31146   */\n      dup3\n        /* \"#utility.yul\":31136:31150   */\n      add\n        /* \"#utility.yul\":31129:31187   */\n      mstore\n        /* \"#utility.yul\":31221:31225   */\n      0x656d000000000000000000000000000000000000000000000000000000000000\n        /* \"#utility.yul\":31216:31218   */\n      0x20\n        /* \"#utility.yul\":31208:31214   */\n      dup3\n        /* \"#utility.yul\":31204:31219   */\n      add\n        /* \"#utility.yul\":31197:31226   */\n      mstore\n        /* \"#utility.yul\":31012:31233   */\n      pop\n      jump\t// out\n        /* \"#utility.yul\":31239:31400   */\n    tag_753:\n        /* \"#utility.yul\":31379:31392   */\n      0x4c6f772062616c616e6365000000000000000000000000000000000000000000\n        /* \"#utility.yul\":31375:31376   */\n      0x00\n        /* \"#utility.yul\":31367:31373   */\n      dup3\n        /* \"#utility.yul\":31363:31377   */\n      add\n        /* \"#utility.yul\":31356:31393   */\n      mstore\n        /* \"#utility.yul\":31239:31400   */\n      pop\n      jump\t// out\n        /* \"#utility.yul\":31406:31565   */\n    tag_758:\n        /* \"#utility.yul\":31546:31557   */\n      0x466f7262696464656e0000000000000000000000000000000000000000000000\n        /* \"#utility.yul\":31542:31543   */\n      0x00\n        /* \"#utility.yul\":31534:31540   */\n      dup3\n        /* \"#utility.yul\":31530:31544   */\n      add\n        /* \"#utility.yul\":31523:31558   */\n      mstore\n        /* \"#utility.yul\":31406:31565   */\n      pop\n      jump\t// out\n        /* \"#utility.yul\":31571:31733   */\n    tag_763:\n        /* \"#utility.yul\":31711:31725   */\n      0x596f75206e6f7420757365720000000000000000000000000000000000000000\n        /* \"#utility.yul\":31707:31708   */\n      0x00\n        /* \"#utility.yul\":31699:31705   */\n      dup3\n        /* \"#utility.yul\":31695:31709   */\n      add\n        /* \"#utility.yul\":31688:31726   */\n      mstore\n        /* \"#utility.yul\":31571:31733   */\n      pop\n      jump\t// out\n        /* \"#utility.yul\":31739:31902   */\n    tag_768:\n        /* \"#utility.yul\":31879:31894   */\n      0x596f75206e6f742061646d696e00000000000000000000000000000000000000\n        /* \"#utility.yul\":31875:31876   */\n      0x00\n        /* \"#utility.yul\":31867:31873   */\n      dup3\n        /* \"#utility.yul\":31863:31877   */\n      add\n        /* \"#utility.yul\":31856:31895   */\n      mstore\n        /* \"#utility.yul\":31739:31902   */\n      pop\n      jump\t// out\n        /* \"#utility.yul\":31908:32080   */\n    tag_773:\n        /* \"#utility.yul\":32048:32072   */\n      0x596f7520616c7265616479207265676973746572656400000000000000000000\n        /* \"#utility.yul\":32044:32045   */\n      0x00\n        /* \"#utility.yul\":32036:32042   */\n      dup3\n        /* \"#utility.yul\":32032:32046   */\n      add\n        /* \"#utility.yul\":32025:32073   */\n      mstore\n        /* \"#utility.yul\":31908:32080   */\n      pop\n      jump\t// out\n        /* \"#utility.yul\":32086:32247   */\n    tag_778:\n        /* \"#utility.yul\":32226:32239   */\n      0x57726f6e67204c6f67696e000000000000000000000000000000000000000000\n        /* \"#utility.yul\":32222:32223   */\n      0x00\n        /* \"#utility.yul\":32214:32220   */\n      dup3\n        /* \"#utility.yul\":32210:32224   */\n      add\n        /* \"#utility.yul\":32203:32240   */\n      mstore\n        /* \"#utility.yul\":32086:32247   */\n      pop\n      jump\t// out\n        /* \"#utility.yul\":32253:32375   */\n    tag_571:\n        /* \"#utility.yul\":32326:32350   */\n      tag_906\n        /* \"#utility.yul\":32344:32349   */\n      dup2\n        /* \"#utility.yul\":32326:32350   */\n      tag_681\n      jump\t// in\n    tag_906:\n        /* \"#utility.yul\":32319:32324   */\n      dup2\n        /* \"#utility.yul\":32316:32351   */\n      eq\n        /* \"#utility.yul\":32306:32369   */\n      tag_907\n      jumpi\n        /* \"#utility.yul\":32365:32366   */\n      0x00\n        /* \"#utility.yul\":32362:32363   */\n      dup1\n        /* \"#utility.yul\":32355:32367   */\n      revert\n        /* \"#utility.yul\":32306:32369   */\n    tag_907:\n        /* \"#utility.yul\":32253:32375   */\n      pop\n      jump\t// out\n        /* \"#utility.yul\":32381:32519   */\n    tag_575:\n        /* \"#utility.yul\":32462:32494   */\n      tag_909\n        /* \"#utility.yul\":32488:32493   */\n      dup2\n        /* \"#utility.yul\":32462:32494   */\n      tag_859\n      jump\t// in\n    tag_909:\n        /* \"#utility.yul\":32455:32460   */\n      dup2\n        /* \"#utility.yul\":32452:32495   */\n      eq\n        /* \"#utility.yul\":32442:32513   */\n      tag_910\n      jumpi\n        /* \"#utility.yul\":32509:32510   */\n      0x00\n        /* \"#utility.yul\":32506:32507   */\n      dup1\n        /* \"#utility.yul\":32499:32511   */\n      revert\n        /* \"#utility.yul\":32442:32513   */\n    tag_910:\n        /* \"#utility.yul\":32381:32519   */\n      pop\n      jump\t// out\n        /* \"#utility.yul\":32525:32641   */\n    tag_579:\n        /* \"#utility.yul\":32595:32616   */\n      tag_912\n        /* \"#utility.yul\":32610:32615   */\n      dup2\n        /* \"#utility.yul\":32595:32616   */\n      tag_862\n      jump\t// in\n    tag_912:\n        /* \"#utility.yul\":32588:32593   */\n      dup2\n        /* \"#utility.yul\":32585:32617   */\n      eq\n        /* \"#utility.yul\":32575:32635   */\n      tag_913\n      jumpi\n        /* \"#utility.yul\":32631:32632   */\n      0x00\n        /* \"#utility.yul\":32628:32629   */\n      dup1\n        /* \"#utility.yul\":32621:32633   */\n      revert\n        /* \"#utility.yul\":32575:32635   */\n    tag_913:\n        /* \"#utility.yul\":32525:32641   */\n      pop\n      jump\t// out\n        /* \"#utility.yul\":32647:32767   */\n    tag_583:\n        /* \"#utility.yul\":32719:32742   */\n      tag_915\n        /* \"#utility.yul\":32736:32741   */\n      dup2\n        /* \"#utility.yul\":32719:32742   */\n      tag_716\n      jump\t// in\n    tag_915:\n        /* \"#utility.yul\":32712:32717   */\n      dup2\n        /* \"#utility.yul\":32709:32743   */\n      eq\n        /* \"#utility.yul\":32699:32761   */\n      tag_916\n      jumpi\n        /* \"#utility.yul\":32757:32758   */\n      0x00\n        /* \"#utility.yul\":32754:32755   */\n      dup1\n        /* \"#utility.yul\":32747:32759   */\n      revert\n        /* \"#utility.yul\":32699:32761   */\n    tag_916:\n        /* \"#utility.yul\":32647:32767   */\n      pop\n      jump\t// out\n\n    auxdata: 0xa26469706673582212207b314f66819dd45374f68b163c9e9e4093e9a52a08689565ac6f153afcafa38c64736f6c63430008070033\n}\n",
				"bytecode": {
					"linkReferences": {},
					"object": "60806040523480156200001157600080fd5b506040518060400160405280600581526020017f627579657200000000000000000000000000000000000000000000000000000081525060008080815260200190815260200160002090805190602001906200006f92919062000292565b506040518060400160405280600681526020017f73656c6c65720000000000000000000000000000000000000000000000000000815250600080600181526020019081526020016000209080519060200190620000ce92919062000292565b506040518060400160405280600481526020017f73686f70000000000000000000000000000000000000000000000000000000008152506000806002815260200190815260200160002090805190602001906200012d92919062000292565b506040518060400160405280600581526020017f61646d696e0000000000000000000000000000000000000000000000000000008152506000806003815260200190815260200160002090805190602001906200018c92919062000292565b506040518060400160405280600881526020017f70726f7669646572000000000000000000000000000000000000000000000000815250600080600481526020019081526020016000209080519060200190620001eb92919062000292565b506040518060400160405280600481526020017f62616e6b000000000000000000000000000000000000000000000000000000008152506000806005815260200190815260200160002090805190602001906200024a92919062000292565b5033600560006101000a81548173ffffffffffffffffffffffffffffffffffffffff021916908373ffffffffffffffffffffffffffffffffffffffff160217905550620003a7565b828054620002a09062000342565b90600052602060002090601f016020900481019282620002c4576000855562000310565b82601f10620002df57805160ff191683800117855562000310565b8280016001018555821562000310579182015b828111156200030f578251825591602001919060010190620002f2565b5b5090506200031f919062000323565b5090565b5b808211156200033e57600081600090555060010162000324565b5090565b600060028204905060018216806200035b57607f821691505b6020821081141562000372576200037162000378565b5b50919050565b7f4e487b7100000000000000000000000000000000000000000000000000000000600052602260045260246000fd5b61508180620003b76000396000f3fe608060405234801561001057600080fd5b506004361061014d5760003560e01c80638403f848116100c3578063bce62a741161007c578063bce62a741461037f578063c3d5fd391461039b578063dffc8b06146103bc578063e7bfea50146103ee578063f8f98b791461040a578063fb1a002a146104265761014d565b80638403f848146102d257806399b958ee146102ee5780639d344d101461030f578063a59d105f1461032b578063ac6fa7c314610347578063b038316c146103635761014d565b80633a7d280c116101155780633a7d280c1461020f57806353082b131461024057806354504c121461025c5780637b3c74881461027e5780637ccb2bd81461029a57806383db0f6d146102b65761014d565b806308e74858146101525780632059b7ad146101865780632156a781146101a25780632d6abf59146101be5780632f0185c4146101da575b600080fd5b61016c600480360381019061016791906140bb565b610444565b60405161017d95949392919061494f565b60405180910390f35b6101a0600480360381019061019b91906142e4565b610949565b005b6101bc60048036038101906101b79190614288565b610b2f565b005b6101d860048036038101906101d391906141a0565b610bf6565b005b6101f460048036038101906101ef919061423f565b610f88565b604051610206969594939291906147ef565b60405180910390f35b6102296004803603810190610224919061423f565b611258565b604051610237929190614857565b60405180910390f35b61025a60048036038101906102559190614115565b61164f565b005b610264611795565b60405161027595949392919061494f565b60405180910390f35b6102986004803603810190610293919061423f565b611c98565b005b6102b460048036038101906102af9190614288565b611f63565b005b6102d060048036038101906102cb91906140e8565b61206c565b005b6102ec60048036038101906102e79190614443565b6121bb565b005b6102f66122e9565b60405161030694939291906149c5565b60405180910390f35b610329600480360381019061032491906143b8565b61269e565b005b61034560048036038101906103409190614115565b6126c7565b005b610361600480360381019061035c919061423f565b6127c6565b005b61037d6004803603810190610378919061423f565b6129a0565b005b6103996004803603810190610394919061423f565b612b7a565b005b6103a3612e45565b6040516103b394939291906148ee565b60405180910390f35b6103d660048036038101906103d1919061423f565b613378565b6040516103e593929190614887565b60405180910390f35b610408600480360381019061040391906140bb565b613580565b005b610424600480360381019061041f9190614340565b613822565b005b61042e613917565b60405161043b91906148cc565b60405180910390f35b60608060608060606003600260003373ffffffffffffffffffffffffffffffffffffffff1673ffffffffffffffffffffffffffffffffffffffff168152602001908152602001600020600001548160058111156104a4576104a3614da0565b5b146104e4576040517f08c379a00000000000000000000000000000000000000000000000000000000081526004016104db90614a7f565b60405180910390fd5b6000600260008973ffffffffffffffffffffffffffffffffffffffff1673ffffffffffffffffffffffffffffffffffffffff1681526020019081526020016000206040518060800160405290816000820154815260200160018201805461054a90614cc5565b80601f016020809104026020016040519081016040528092919081815260200182805461057690614cc5565b80156105c35780601f10610598576101008083540402835291602001916105c3565b820191906000526020600020905b8154815290600101906020018083116105a657829003601f168201915b505050505081526020016002820180546105dc90614cc5565b80601f016020809104026020016040519081016040528092919081815260200182805461060890614cc5565b80156106555780601f1061062a57610100808354040283529160200191610655565b820191906000526020600020905b81548152906001019060200180831161063857829003601f168201915b5050505050815260200160038201805480602002602001604051908101604052809291908181526020016000905b8282101561072f5783829060005260206000200180546106a290614cc5565b80601f01602080910402602001604051908101604052809291908181526020018280546106ce90614cc5565b801561071b5780601f106106f05761010080835404028352916020019161071b565b820191906000526020600020905b8154815290600101906020018083116106fe57829003601f168201915b505050505081526020019060010190610683565b505050508152505090506000600b60008a73ffffffffffffffffffffffffffffffffffffffff1673ffffffffffffffffffffffffffffffffffffffff16815260200190815260200160002060009054906101000a900473ffffffffffffffffffffffffffffffffffffffff1690506000600a60008373ffffffffffffffffffffffffffffffffffffffff1673ffffffffffffffffffffffffffffffffffffffff1681526020019081526020016000206040518060600160405290816000820180546107f990614cc5565b80601f016020809104026020016040519081016040528092919081815260200182805461082590614cc5565b80156108725780601f1061084757610100808354040283529160200191610872565b820191906000526020600020905b81548152906001019060200180831161085557829003601f168201915b5050505050815260200160018201805461088b90614cc5565b80601f01602080910402602001604051908101604052809291908181526020018280546108b790614cc5565b80156109045780601f106108d957610100808354040283529160200191610904565b820191906000526020600020905b8154815290600101906020018083116108e757829003601f168201915b50505050508152602001600282015481525050905082602001519850826040015197508060200151965080600001519550826060015194505050505091939590929450565b6003600260003373ffffffffffffffffffffffffffffffffffffffff1673ffffffffffffffffffffffffffffffffffffffff168152602001908152602001600020600001548160058111156109a1576109a0614da0565b5b146109e1576040517f08c379a00000000000000000000000000000000000000000000000000000000081526004016109d890614a7f565b60405180910390fd5b6000600f846040516109f391906147d8565b90815260200160405180910390206040518060800160405290816000820160009054906101000a900473ffffffffffffffffffffffffffffffffffffffff1673ffffffffffffffffffffffffffffffffffffffff1673ffffffffffffffffffffffffffffffffffffffff16815260200160018201548152602001600282015481526020016003820160009054906101000a900460ff16151515158152505090506000816040015190508315610aee578060026000846000015173ffffffffffffffffffffffffffffffffffffffff1673ffffffffffffffffffffffffffffffffffffffff168152602001908152602001600020600001819055505b6001600f86604051610b0091906147d8565b908152602001604051809103902060030160006101000a81548160ff0219169083151502179055505050505050565b600560009054906101000a900473ffffffffffffffffffffffffffffffffffffffff1673ffffffffffffffffffffffffffffffffffffffff163373ffffffffffffffffffffffffffffffffffffffff1614610bbf576040517f08c379a0000000000000000000000000000000000000000000000000000000008152600401610bb690614abf565b60405180910390fd5b6000600580811115610bd457610bd3614da0565b5b9050610bf160405180602001604052806000815250848385613a89565b505050565b610cd9600260003373ffffffffffffffffffffffffffffffffffffffff1673ffffffffffffffffffffffffffffffffffffffff1681526020019081526020016000206001018054610c4690614cc5565b80601f0160208091040260200160405190810160405280929190818152602001828054610c7290614cc5565b8015610cbf5780601f10610c9457610100808354040283529160200191610cbf565b820191906000526020600020905b815481529060010190602001808311610ca257829003601f168201915b505050505060405180602001604052806000815250613d8c565b15610d19576040517f08c379a0000000000000000000000000000000000000000000000000000000008152600401610d1090614a9f565b60405180910390fd5b60608060006040518060c001604052803373ffffffffffffffffffffffffffffffffffffffff1681526020018873ffffffffffffffffffffffffffffffffffffffff168152602001878152602001848152602001838152602001858152509050600d60008873ffffffffffffffffffffffffffffffffffffffff1673ffffffffffffffffffffffffffffffffffffffff16815260200190815260200160002085908060018154018082558091505060019003906000526020600020016000909190919091509080519060200190610df1929190613de5565b50600260003373ffffffffffffffffffffffffffffffffffffffff1673ffffffffffffffffffffffffffffffffffffffff16815260200190815260200160002060030185908060018154018082558091505060019003906000526020600020016000909190919091509080519060200190610e6d929190613de5565b5080600e86604051610e7f91906147d8565b908152602001604051809103902060008201518160000160006101000a81548173ffffffffffffffffffffffffffffffffffffffff021916908373ffffffffffffffffffffffffffffffffffffffff16021790555060208201518160010160006101000a81548173ffffffffffffffffffffffffffffffffffffffff021916908373ffffffffffffffffffffffffffffffffffffffff1602179055506040820151816002019080519060200190610f37929190613de5565b506060820151816003019080519060200190610f54929190613e6b565b506080820151816004019080519060200190610f71929190613e6b565b5060a0820151816005015590505050505050505050565b6000806060600080600080600e88604051610fa391906147d8565b90815260200160405180910390206040518060c00160405290816000820160009054906101000a900473ffffffffffffffffffffffffffffffffffffffff1673ffffffffffffffffffffffffffffffffffffffff1673ffffffffffffffffffffffffffffffffffffffff1681526020016001820160009054906101000a900473ffffffffffffffffffffffffffffffffffffffff1673ffffffffffffffffffffffffffffffffffffffff1673ffffffffffffffffffffffffffffffffffffffff16815260200160028201805461107890614cc5565b80601f01602080910402602001604051908101604052809291908181526020018280546110a490614cc5565b80156110f15780601f106110c6576101008083540402835291602001916110f1565b820191906000526020600020905b8154815290600101906020018083116110d457829003601f168201915b505050505081526020016003820180548060200260200160405190810160405280929190818152602001828054801561117f57602002820191906000526020600020905b8160009054906101000a900473ffffffffffffffffffffffffffffffffffffffff1673ffffffffffffffffffffffffffffffffffffffff1681526020019060010190808311611135575b505050505081526020016004820180548060200260200160405190810160405280929190818152602001828054801561120d57602002820191906000526020600020905b8160009054906101000a900473ffffffffffffffffffffffffffffffffffffffff1673ffffffffffffffffffffffffffffffffffffffff16815260200190600101908083116111c3575b505050505081526020016005820154815250509050806000015196508060200151955080604001519450806060015151935080608001515192508060a0015191505091939550919395565b6000606082600073ffffffffffffffffffffffffffffffffffffffff1660018260405161128591906147d8565b908152602001604051809103902060009054906101000a900473ffffffffffffffffffffffffffffffffffffffff1673ffffffffffffffffffffffffffffffffffffffff16141561130b576040517f08c379a000000000000000000000000000000000000000000000000000000000815260040161130290614aff565b60405180910390fd5b600060018560405161131d91906147d8565b908152602001604051809103902060009054906101000a900473ffffffffffffffffffffffffffffffffffffffff1690506000600260008373ffffffffffffffffffffffffffffffffffffffff1673ffffffffffffffffffffffffffffffffffffffff168152602001908152602001600020604051806080016040529081600082015481526020016001820180546113b490614cc5565b80601f01602080910402602001604051908101604052809291908181526020018280546113e090614cc5565b801561142d5780601f106114025761010080835404028352916020019161142d565b820191906000526020600020905b81548152906001019060200180831161141057829003601f168201915b5050505050815260200160028201805461144690614cc5565b80601f016020809104026020016040519081016040528092919081815260200182805461147290614cc5565b80156114bf5780601f10611494576101008083540402835291602001916114bf565b820191906000526020600020905b8154815290600101906020018083116114a257829003601f168201915b5050505050815260200160038201805480602002602001604051908101604052809291908181526020016000905b8282101561159957838290600052602060002001805461150c90614cc5565b80601f016020809104026020016040519081016040528092919081815260200182805461153890614cc5565b80156115855780601f1061155a57610100808354040283529160200191611585565b820191906000526020600020905b81548152906001019060200180831161156857829003601f168201915b5050505050815260200190600101906114ed565b505050508152505090508194506000808260000151815260200190815260200160002080546115c790614cc5565b80601f01602080910402602001604051908101604052809291908181526020018280546115f390614cc5565b80156116405780601f1061161557610100808354040283529160200191611640565b820191906000526020600020905b81548152906001019060200180831161162357829003601f168201915b50505050509350505050915091565b6003600260003373ffffffffffffffffffffffffffffffffffffffff1673ffffffffffffffffffffffffffffffffffffffff168152602001908152602001600020600001548160058111156116a7576116a6614da0565b5b146116e7576040517f08c379a00000000000000000000000000000000000000000000000000000000081526004016116de90614a7f565b60405180910390fd5b600060405180606001604052808581526020018481526020016000815250905080600a60008773ffffffffffffffffffffffffffffffffffffffff1673ffffffffffffffffffffffffffffffffffffffff1681526020019081526020016000206000820151816000019080519060200190611763929190613de5565b506020820151816001019080519060200190611780929190613de5565b50604082015181600201559050505050505050565b60608060608060606001600260003373ffffffffffffffffffffffffffffffffffffffff1673ffffffffffffffffffffffffffffffffffffffff168152602001908152602001600020600001548160058111156117f5576117f4614da0565b5b14611835576040517f08c379a000000000000000000000000000000000000000000000000000000000815260040161182c90614a7f565b60405180910390fd5b6000600260003373ffffffffffffffffffffffffffffffffffffffff1673ffffffffffffffffffffffffffffffffffffffff1681526020019081526020016000206040518060800160405290816000820154815260200160018201805461189b90614cc5565b80601f01602080910402602001604051908101604052809291908181526020018280546118c790614cc5565b80156119145780601f106118e957610100808354040283529160200191611914565b820191906000526020600020905b8154815290600101906020018083116118f757829003601f168201915b5050505050815260200160028201805461192d90614cc5565b80601f016020809104026020016040519081016040528092919081815260200182805461195990614cc5565b80156119a65780601f1061197b576101008083540402835291602001916119a6565b820191906000526020600020905b81548152906001019060200180831161198957829003601f168201915b5050505050815260200160038201805480602002602001604051908101604052809291908181526020016000905b82821015611a805783829060005260206000200180546119f390614cc5565b80601f0160208091040260200160405190810160405280929190818152602001828054611a1f90614cc5565b8015611a6c5780601f10611a4157610100808354040283529160200191611a6c565b820191906000526020600020905b815481529060010190602001808311611a4f57829003601f168201915b5050505050815260200190600101906119d4565b505050508152505090506000600b60003373ffffffffffffffffffffffffffffffffffffffff1673ffffffffffffffffffffffffffffffffffffffff16815260200190815260200160002060009054906101000a900473ffffffffffffffffffffffffffffffffffffffff1690506000600a60008373ffffffffffffffffffffffffffffffffffffffff1673ffffffffffffffffffffffffffffffffffffffff168152602001908152602001600020604051806060016040529081600082018054611b4a90614cc5565b80601f0160208091040260200160405190810160405280929190818152602001828054611b7690614cc5565b8015611bc35780601f10611b9857610100808354040283529160200191611bc3565b820191906000526020600020905b815481529060010190602001808311611ba657829003601f168201915b50505050508152602001600182018054611bdc90614cc5565b80601f0160208091040260200160405190810160405280929190818152602001828054611c0890614cc5565b8015611c555780601f10611c2a57610100808354040283529160200191611c55565b820191906000526020600020905b815481529060010190602001808311611c3857829003601f168201915b5050505050815260200160028201548152505090508260200151985082604001519750806020015196508060000151955082606001519450505050509091929394565b611d7b600260003373ffffffffffffffffffffffffffffffffffffffff1673ffffffffffffffffffffffffffffffffffffffff1681526020019081526020016000206001018054611ce890614cc5565b80601f0160208091040260200160405190810160405280929190818152602001828054611d1490614cc5565b8015611d615780601f10611d3657610100808354040283529160200191611d61565b820191906000526020600020905b815481529060010190602001808311611d4457829003601f168201915b505050505060405180602001604052806000815250613d8c565b15611dbb576040517f08c379a0000000000000000000000000000000000000000000000000000000008152600401611db290614a9f565b60405180910390fd5b60001515601082604051611dcf91906147d8565b908152602001604051809103902060003373ffffffffffffffffffffffffffffffffffffffff1673ffffffffffffffffffffffffffffffffffffffff16815260200190815260200160002060009054906101000a900460ff16151514611e6a576040517f08c379a0000000000000000000000000000000000000000000000000000000008152600401611e6190614a1f565b60405180910390fd5b600e81604051611e7a91906147d8565b9081526020016040518091039020600301339080600181540180825580915050600190039060005260206000200160009091909190916101000a81548173ffffffffffffffffffffffffffffffffffffffff021916908373ffffffffffffffffffffffffffffffffffffffff1602179055506001601082604051611efe91906147d8565b908152602001604051809103902060003373ffffffffffffffffffffffffffffffffffffffff1673ffffffffffffffffffffffffffffffffffffffff16815260200190815260200160002060006101000a81548160ff02191690831515021790555050565b600560009054906101000a900473ffffffffffffffffffffffffffffffffffffffff1673ffffffffffffffffffffffffffffffffffffffff163373ffffffffffffffffffffffffffffffffffffffff1614611ff3576040517f08c379a0000000000000000000000000000000000000000000000000000000008152600401611fea90614abf565b60405180910390fd5b60006004600581111561200957612008614da0565b5b905061202660405180602001604052806000815250848385613a89565b81600460006101000a81548173ffffffffffffffffffffffffffffffffffffffff021916908373ffffffffffffffffffffffffffffffffffffffff160217905550505050565b6005600260003373ffffffffffffffffffffffffffffffffffffffff1673ffffffffffffffffffffffffffffffffffffffff168152602001908152602001600020600001548160058111156120c4576120c3614da0565b5b14612104576040517f08c379a00000000000000000000000000000000000000000000000000000000081526004016120fb90614a7f565b60405180910390fd5b683635c9adc5dea000003373ffffffffffffffffffffffffffffffffffffffff16311015612167576040517f08c379a000000000000000000000000000000000000000000000000000000000815260040161215e90614a5f565b60405180910390fd5b8173ffffffffffffffffffffffffffffffffffffffff166108fc683635c9adc5dea000009081150290604051600060405180830381858888f193505050501580156121b6573d6000803e3d6000fd5b505050565b6000600160058111156121d1576121d0614da0565b5b90506121df85858386613a89565b6008839080600181540180825580915050600190039060005260206000200160009091909190916101000a81548173ffffffffffffffffffffffffffffffffffffffff021916908373ffffffffffffffffffffffffffffffffffffffff160217905550600c60008373ffffffffffffffffffffffffffffffffffffffff1673ffffffffffffffffffffffffffffffffffffffff168152602001908152602001600020839080600181540180825580915050600190039060005260206000200160009091909190916101000a81548173ffffffffffffffffffffffffffffffffffffffff021916908373ffffffffffffffffffffffffffffffffffffffff1602179055505050505050565b606080600060606123d3600260003373ffffffffffffffffffffffffffffffffffffffff1673ffffffffffffffffffffffffffffffffffffffff168152602001908152602001600020600101805461234090614cc5565b80601f016020809104026020016040519081016040528092919081815260200182805461236c90614cc5565b80156123b95780601f1061238e576101008083540402835291602001916123b9565b820191906000526020600020905b81548152906001019060200180831161239c57829003601f168201915b505050505060405180602001604052806000815250613d8c565b15612413576040517f08c379a000000000000000000000000000000000000000000000000000000000815260040161240a90614a9f565b60405180910390fd5b6000600260003373ffffffffffffffffffffffffffffffffffffffff1673ffffffffffffffffffffffffffffffffffffffff1681526020019081526020016000206040518060800160405290816000820154815260200160018201805461247990614cc5565b80601f01602080910402602001604051908101604052809291908181526020018280546124a590614cc5565b80156124f25780601f106124c7576101008083540402835291602001916124f2565b820191906000526020600020905b8154815290600101906020018083116124d557829003601f168201915b5050505050815260200160028201805461250b90614cc5565b80601f016020809104026020016040519081016040528092919081815260200182805461253790614cc5565b80156125845780601f1061255957610100808354040283529160200191612584565b820191906000526020600020905b81548152906001019060200180831161256757829003601f168201915b5050505050815260200160038201805480602002602001604051908101604052809291908181526020016000905b8282101561265e5783829060005260206000200180546125d190614cc5565b80601f01602080910402602001604051908101604052809291908181526020018280546125fd90614cc5565b801561264a5780601f1061261f5761010080835404028352916020019161264a565b820191906000526020600020905b81548152906001019060200180831161262d57829003601f168201915b5050505050815260200190600101906125b2565b5050505081525050905080602001519450806040015193503373ffffffffffffffffffffffffffffffffffffffff16319250806060015191505090919293565b60008060058111156126b3576126b2614da0565b5b90506126c184848385613a89565b50505050565b6003600260003373ffffffffffffffffffffffffffffffffffffffff1673ffffffffffffffffffffffffffffffffffffffff1681526020019081526020016000206000015481600581111561271f5761271e614da0565b5b1461275f576040517f08c379a000000000000000000000000000000000000000000000000000000000815260040161275690614a7f565b60405180910390fd5b60006003600581111561277557612774614da0565b5b905061278384848388613a89565b6006839080600181540180825580915050600190039060005260206000200160009091909190915090805190602001906127be929190613de5565b505050505050565b6000600260003373ffffffffffffffffffffffffffffffffffffffff1673ffffffffffffffffffffffffffffffffffffffff1681526020019081526020016000206000015481600581111561281e5761281d614da0565b5b1461285e576040517f08c379a000000000000000000000000000000000000000000000000000000000815260040161285590614a7f565b60405180910390fd5b600060405180608001604052803373ffffffffffffffffffffffffffffffffffffffff1681526020016000600581111561289b5761289a614da0565b5b8152602001600160058111156128b4576128b3614da0565b5b815260200160001515815250905080600f846040516128d391906147d8565b908152602001604051809103902060008201518160000160006101000a81548173ffffffffffffffffffffffffffffffffffffffff021916908373ffffffffffffffffffffffffffffffffffffffff160217905550602082015181600101556040820151816002015560608201518160030160006101000a81548160ff02191690831515021790555090505060098390806001815401808255809150506001900390600052602060002001600090919091909150908051906020019061299a929190613de5565b50505050565b6001600260003373ffffffffffffffffffffffffffffffffffffffff1673ffffffffffffffffffffffffffffffffffffffff168152602001908152602001600020600001548160058111156129f8576129f7614da0565b5b14612a38576040517f08c379a0000000000000000000000000000000000000000000000000000000008152600401612a2f90614a7f565b60405180910390fd5b600060405180608001604052803373ffffffffffffffffffffffffffffffffffffffff16815260200160016005811115612a7557612a74614da0565b5b815260200160006005811115612a8e57612a8d614da0565b5b815260200160001515815250905080600f84604051612aad91906147d8565b908152602001604051809103902060008201518160000160006101000a81548173ffffffffffffffffffffffffffffffffffffffff021916908373ffffffffffffffffffffffffffffffffffffffff160217905550602082015181600101556040820151816002015560608201518160030160006101000a81548160ff021916908315150217905550905050600983908060018154018082558091505060019003906000526020600020016000909190919091509080519060200190612b74929190613de5565b50505050565b612c5d600260003373ffffffffffffffffffffffffffffffffffffffff1673ffffffffffffffffffffffffffffffffffffffff1681526020019081526020016000206001018054612bca90614cc5565b80601f0160208091040260200160405190810160405280929190818152602001828054612bf690614cc5565b8015612c435780601f10612c1857610100808354040283529160200191612c43565b820191906000526020600020905b815481529060010190602001808311612c2657829003601f168201915b505050505060405180602001604052806000815250613d8c565b15612c9d576040517f08c379a0000000000000000000000000000000000000000000000000000000008152600401612c9490614a9f565b60405180910390fd5b60001515601082604051612cb191906147d8565b908152602001604051809103902060003373ffffffffffffffffffffffffffffffffffffffff1673ffffffffffffffffffffffffffffffffffffffff16815260200190815260200160002060009054906101000a900460ff16151514612d4c576040517f08c379a0000000000000000000000000000000000000000000000000000000008152600401612d4390614a1f565b60405180910390fd5b600e81604051612d5c91906147d8565b9081526020016040518091039020600401339080600181540180825580915050600190039060005260206000200160009091909190916101000a81548173ffffffffffffffffffffffffffffffffffffffff021916908373ffffffffffffffffffffffffffffffffffffffff1602179055506001601082604051612de091906147d8565b908152602001604051809103902060003373ffffffffffffffffffffffffffffffffffffffff1673ffffffffffffffffffffffffffffffffffffffff16815260200190815260200160002060006101000a81548160ff02191690831515021790555050565b6060806060806003600260003373ffffffffffffffffffffffffffffffffffffffff1673ffffffffffffffffffffffffffffffffffffffff16815260200190815260200160002060000154816005811115612ea357612ea2614da0565b5b14612ee3576040517f08c379a0000000000000000000000000000000000000000000000000000000008152600401612eda90614a7f565b60405180910390fd5b6000600260003373ffffffffffffffffffffffffffffffffffffffff1673ffffffffffffffffffffffffffffffffffffffff16815260200190815260200160002060405180608001604052908160008201548152602001600182018054612f4990614cc5565b80601f0160208091040260200160405190810160405280929190818152602001828054612f7590614cc5565b8015612fc25780601f10612f9757610100808354040283529160200191612fc2565b820191906000526020600020905b815481529060010190602001808311612fa557829003601f168201915b50505050508152602001600282018054612fdb90614cc5565b80601f016020809104026020016040519081016040528092919081815260200182805461300790614cc5565b80156130545780601f1061302957610100808354040283529160200191613054565b820191906000526020600020905b81548152906001019060200180831161303757829003601f168201915b5050505050815260200160038201805480602002602001604051908101604052809291908181526020016000905b8282101561312e5783829060005260206000200180546130a190614cc5565b80601f01602080910402602001604051908101604052809291908181526020018280546130cd90614cc5565b801561311a5780601f106130ef5761010080835404028352916020019161311a565b820191906000526020600020905b8154815290600101906020018083116130fd57829003601f168201915b505050505081526020019060010190613082565b50505050815250509050806020015195506009805480602002602001604051908101604052809291908181526020016000905b8282101561320d57838290600052602060002001805461318090614cc5565b80601f01602080910402602001604051908101604052809291908181526020018280546131ac90614cc5565b80156131f95780601f106131ce576101008083540402835291602001916131f9565b820191906000526020600020905b8154815290600101906020018083116131dc57829003601f168201915b505050505081526020019060010190613161565b5050505094506006805480602002602001604051908101604052809291908181526020016000905b828210156132e157838290600052602060002001805461325490614cc5565b80601f016020809104026020016040519081016040528092919081815260200182805461328090614cc5565b80156132cd5780601f106132a2576101008083540402835291602001916132cd565b820191906000526020600020905b8154815290600101906020018083116132b057829003601f168201915b505050505081526020019060010190613235565b505050509350600880548060200260200160405190810160405280929190818152602001828054801561336957602002820191906000526020600020905b8160009054906101000a900473ffffffffffffffffffffffffffffffffffffffff1673ffffffffffffffffffffffffffffffffffffffff168152602001906001019080831161331f575b50505050509250505090919293565b60006060806000600f8560405161338f91906147d8565b90815260200160405180910390206040518060800160405290816000820160009054906101000a900473ffffffffffffffffffffffffffffffffffffffff1673ffffffffffffffffffffffffffffffffffffffff1673ffffffffffffffffffffffffffffffffffffffff16815260200160018201548152602001600282015481526020016003820160009054906101000a900460ff16151515158152505090508060000151935060008082602001518152602001908152602001600020805461345790614cc5565b80601f016020809104026020016040519081016040528092919081815260200182805461348390614cc5565b80156134d05780601f106134a5576101008083540402835291602001916134d0565b820191906000526020600020905b8154815290600101906020018083116134b357829003601f168201915b505050505092506000808260400151815260200190815260200160002080546134f890614cc5565b80601f016020809104026020016040519081016040528092919081815260200182805461352490614cc5565b80156135715780601f1061354657610100808354040283529160200191613571565b820191906000526020600020905b81548152906001019060200180831161355457829003601f168201915b50505050509150509193909250565b6003600260003373ffffffffffffffffffffffffffffffffffffffff1673ffffffffffffffffffffffffffffffffffffffff168152602001908152602001600020600001548160058111156135d8576135d7614da0565b5b14613618576040517f08c379a000000000000000000000000000000000000000000000000000000000815260040161360f90614a7f565b60405180910390fd5b6000600c60008473ffffffffffffffffffffffffffffffffffffffff1673ffffffffffffffffffffffffffffffffffffffff1681526020019081526020016000208054806020026020016040519081016040528092919081815260200182805480156136d957602002820191906000526020600020905b8160009054906101000a900473ffffffffffffffffffffffffffffffffffffffff1673ffffffffffffffffffffffffffffffffffffffff168152602001906001019080831161368f575b5050505050905060005b815181101561376757600082828151811061370157613700614dfe565b5b602002602001015190506000600260008373ffffffffffffffffffffffffffffffffffffffff1673ffffffffffffffffffffffffffffffffffffffff1681526020019081526020016000206000018190555050808061375f90614d28565b9150506136e3565b50600a60008473ffffffffffffffffffffffffffffffffffffffff1673ffffffffffffffffffffffffffffffffffffffff168152602001908152602001600020600080820160006137b89190613ef5565b6001820160006137c89190613ef5565b60028201600090555050600c60008473ffffffffffffffffffffffffffffffffffffffff1673ffffffffffffffffffffffffffffffffffffffff168152602001908152602001600020600061381d9190613f35565b505050565b600560009054906101000a900473ffffffffffffffffffffffffffffffffffffffff1673ffffffffffffffffffffffffffffffffffffffff163373ffffffffffffffffffffffffffffffffffffffff16146138b2576040517f08c379a00000000000000000000000000000000000000000000000000000000081526004016138a990614abf565b60405180910390fd5b6000600360058111156138c8576138c7614da0565b5b90506138d683838333613a89565b600682908060018154018082558091505060019003906000526020600020016000909190919091509080519060200190613911929190613de5565b50505050565b60606003600260003373ffffffffffffffffffffffffffffffffffffffff1673ffffffffffffffffffffffffffffffffffffffff1681526020019081526020016000206000015481600581111561397157613970614da0565b5b146139b1576040517f08c379a00000000000000000000000000000000000000000000000000000000081526004016139a890614a7f565b60405180910390fd5b6009805480602002602001604051908101604052809291908181526020016000905b82821015613a7f5783829060005260206000200180546139f290614cc5565b80601f0160208091040260200160405190810160405280929190818152602001828054613a1e90614cc5565b8015613a6b5780601f10613a4057610100808354040283529160200191613a6b565b820191906000526020600020905b815481529060010190602001808311613a4e57829003601f168201915b5050505050815260200190600101906139d3565b5050505091505090565b8083613b6e600260008473ffffffffffffffffffffffffffffffffffffffff1673ffffffffffffffffffffffffffffffffffffffff1681526020019081526020016000206002018054613adb90614cc5565b80601f0160208091040260200160405190810160405280929190818152602001828054613b0790614cc5565b8015613b545780601f10613b2957610100808354040283529160200191613b54565b820191906000526020600020905b815481529060010190602001808311613b3757829003601f168201915b505050505060405180602001604052806000815250613d8c565b613bad576040517f08c379a0000000000000000000000000000000000000000000000000000000008152600401613ba490614adf565b60405180910390fd5b600073ffffffffffffffffffffffffffffffffffffffff16600182604051613bd591906147d8565b908152602001604051809103902060009054906101000a900473ffffffffffffffffffffffffffffffffffffffff1673ffffffffffffffffffffffffffffffffffffffff1614613c5a576040517f08c379a0000000000000000000000000000000000000000000000000000000008152600401613c5190614a3f565b60405180910390fd5b60606000604051806080016040528087815260200188815260200189815260200183815250905084600188604051613c9291906147d8565b908152602001604051809103902060006101000a81548173ffffffffffffffffffffffffffffffffffffffff021916908373ffffffffffffffffffffffffffffffffffffffff16021790555080600260008773ffffffffffffffffffffffffffffffffffffffff1673ffffffffffffffffffffffffffffffffffffffff168152602001908152602001600020600082015181600001556020820151816001019080519060200190613d44929190613de5565b506040820151816002019080519060200190613d61929190613de5565b506060820151816003019080519060200190613d7e929190613f56565b509050505050505050505050565b600081604051602001613d9f91906147d8565b6040516020818303038152906040528051906020012083604051602001613dc691906147d8565b6040516020818303038152906040528051906020012014905092915050565b828054613df190614cc5565b90600052602060002090601f016020900481019282613e135760008555613e5a565b82601f10613e2c57805160ff1916838001178555613e5a565b82800160010185558215613e5a579182015b82811115613e59578251825591602001919060010190613e3e565b5b509050613e679190613fb6565b5090565b828054828255906000526020600020908101928215613ee4579160200282015b82811115613ee35782518260006101000a81548173ffffffffffffffffffffffffffffffffffffffff021916908373ffffffffffffffffffffffffffffffffffffffff16021790555091602001919060010190613e8b565b5b509050613ef19190613fb6565b5090565b508054613f0190614cc5565b6000825580601f10613f135750613f32565b601f016020900490600052602060002090810190613f319190613fb6565b5b50565b5080546000825590600052602060002090810190613f539190613fb6565b50565b828054828255906000526020600020908101928215613fa5579160200282015b82811115613fa4578251829080519060200190613f94929190613de5565b5091602001919060010190613f76565b5b509050613fb29190613fd3565b5090565b5b80821115613fcf576000816000905550600101613fb7565b5090565b5b80821115613ff35760008181613fea9190613ef5565b50600101613fd4565b5090565b600061400a61400584614b44565b614b1f565b90508281526020810184848401111561402657614025614e61565b5b614031848285614c83565b509392505050565b60008135905061404881614fef565b92915050565b60008135905061405d81615006565b92915050565b6000813590506140728161501d565b92915050565b60008135905061408781615034565b92915050565b600082601f8301126140a2576140a1614e5c565b5b81356140b2848260208601613ff7565b91505092915050565b6000602082840312156140d1576140d0614e6b565b5b60006140df84828501614039565b91505092915050565b6000602082840312156140fe576140fd614e6b565b5b600061410c8482850161404e565b91505092915050565b60008060006060848603121561412e5761412d614e6b565b5b600061413c86828701614039565b935050602084013567ffffffffffffffff81111561415d5761415c614e66565b5b6141698682870161408d565b925050604084013567ffffffffffffffff81111561418a57614189614e66565b5b6141968682870161408d565b9150509250925092565b600080600080608085870312156141ba576141b9614e6b565b5b60006141c887828801614039565b945050602085013567ffffffffffffffff8111156141e9576141e8614e66565b5b6141f58782880161408d565b935050604085013567ffffffffffffffff81111561421657614215614e66565b5b6142228782880161408d565b925050606061423387828801614078565b91505092959194509250565b60006020828403121561425557614254614e6b565b5b600082013567ffffffffffffffff81111561427357614272614e66565b5b61427f8482850161408d565b91505092915050565b6000806040838503121561429f5761429e614e6b565b5b600083013567ffffffffffffffff8111156142bd576142bc614e66565b5b6142c98582860161408d565b92505060206142da85828601614039565b9150509250929050565b600080604083850312156142fb576142fa614e6b565b5b600083013567ffffffffffffffff81111561431957614318614e66565b5b6143258582860161408d565b925050602061433685828601614063565b9150509250929050565b6000806040838503121561435757614356614e6b565b5b600083013567ffffffffffffffff81111561437557614374614e66565b5b6143818582860161408d565b925050602083013567ffffffffffffffff8111156143a2576143a1614e66565b5b6143ae8582860161408d565b9150509250929050565b6000806000606084860312156143d1576143d0614e6b565b5b600084013567ffffffffffffffff8111156143ef576143ee614e66565b5b6143fb8682870161408d565b935050602084013567ffffffffffffffff81111561441c5761441b614e66565b5b6144288682870161408d565b925050604061443986828701614039565b9150509250925092565b6000806000806080858703121561445d5761445c614e6b565b5b600085013567ffffffffffffffff81111561447b5761447a614e66565b5b6144878782880161408d565b945050602085013567ffffffffffffffff8111156144a8576144a7614e66565b5b6144b48782880161408d565b93505060406144c587828801614039565b92505060606144d687828801614039565b91505092959194509250565b60006144ee838361450e565b60208301905092915050565b6000614506838361460e565b905092915050565b61451781614c1f565b82525050565b61452681614c1f565b82525050565b600061453782614b95565b6145418185614bd0565b935061454c83614b75565b8060005b8381101561457d57815161456488826144e2565b975061456f83614bb6565b925050600181019050614550565b5085935050505092915050565b600061459582614ba0565b61459f8185614be1565b9350836020820285016145b185614b85565b8060005b858110156145ed57848403895281516145ce85826144fa565b94506145d983614bc3565b925060208a019950506001810190506145b5565b50829750879550505050505092915050565b61460881614c4f565b82525050565b600061461982614bab565b6146238185614bf2565b9350614633818560208601614c92565b61463c81614e70565b840191505092915050565b600061465282614bab565b61465c8185614c03565b935061466c818560208601614c92565b61467581614e70565b840191505092915050565b600061468b82614bab565b6146958185614c14565b93506146a5818560208601614c92565b80840191505092915050565b60006146be601b83614c03565b91506146c982614e81565b602082019050919050565b60006146e1602283614c03565b91506146ec82614eaa565b604082019050919050565b6000614704600b83614c03565b915061470f82614ef9565b602082019050919050565b6000614727600983614c03565b915061473282614f22565b602082019050919050565b600061474a600c83614c03565b915061475582614f4b565b602082019050919050565b600061476d600d83614c03565b915061477882614f74565b602082019050919050565b6000614790601683614c03565b915061479b82614f9d565b602082019050919050565b60006147b3600b83614c03565b91506147be82614fc6565b602082019050919050565b6147d281614c79565b82525050565b60006147e48284614680565b915081905092915050565b600060c082019050614804600083018961451d565b614811602083018861451d565b81810360408301526148238187614647565b905061483260608301866147c9565b61483f60808301856147c9565b61484c60a08301846145ff565b979650505050505050565b600060408201905061486c600083018561451d565b818103602083015261487e8184614647565b90509392505050565b600060608201905061489c600083018661451d565b81810360208301526148ae8185614647565b905081810360408301526148c28184614647565b9050949350505050565b600060208201905081810360008301526148e6818461458a565b905092915050565b600060808201905081810360008301526149088187614647565b9050818103602083015261491c818661458a565b90508181036040830152614930818561458a565b90508181036060830152614944818461452c565b905095945050505050565b600060a08201905081810360008301526149698188614647565b9050818103602083015261497d8187614647565b905081810360408301526149918186614647565b905081810360608301526149a58185614647565b905081810360808301526149b9818461458a565b90509695505050505050565b600060808201905081810360008301526149df8187614647565b905081810360208301526149f38186614647565b9050614a0260408301856147c9565b8181036060830152614a14818461458a565b905095945050505050565b60006020820190508181036000830152614a38816146b1565b9050919050565b60006020820190508181036000830152614a58816146d4565b9050919050565b60006020820190508181036000830152614a78816146f7565b9050919050565b60006020820190508181036000830152614a988161471a565b9050919050565b60006020820190508181036000830152614ab88161473d565b9050919050565b60006020820190508181036000830152614ad881614760565b9050919050565b60006020820190508181036000830152614af881614783565b9050919050565b60006020820190508181036000830152614b18816147a6565b9050919050565b6000614b29614b3a565b9050614b358282614cf7565b919050565b6000604051905090565b600067ffffffffffffffff821115614b5f57614b5e614e2d565b5b614b6882614e70565b9050602081019050919050565b6000819050602082019050919050565b6000819050602082019050919050565b600081519050919050565b600081519050919050565b600081519050919050565b6000602082019050919050565b6000602082019050919050565b600082825260208201905092915050565b600082825260208201905092915050565b600082825260208201905092915050565b600082825260208201905092915050565b600081905092915050565b6000614c2a82614c59565b9050919050565b6000614c3c82614c59565b9050919050565b60008115159050919050565b6000819050919050565b600073ffffffffffffffffffffffffffffffffffffffff82169050919050565b6000819050919050565b82818337600083830152505050565b60005b83811015614cb0578082015181840152602081019050614c95565b83811115614cbf576000848401525b50505050565b60006002820490506001821680614cdd57607f821691505b60208210811415614cf157614cf0614dcf565b5b50919050565b614d0082614e70565b810181811067ffffffffffffffff82111715614d1f57614d1e614e2d565b5b80604052505050565b6000614d3382614c79565b91507fffffffffffffffffffffffffffffffffffffffffffffffffffffffffffffffff821415614d6657614d65614d71565b5b600182019050919050565b7f4e487b7100000000000000000000000000000000000000000000000000000000600052601160045260246000fd5b7f4e487b7100000000000000000000000000000000000000000000000000000000600052602160045260246000fd5b7f4e487b7100000000000000000000000000000000000000000000000000000000600052602260045260246000fd5b7f4e487b7100000000000000000000000000000000000000000000000000000000600052603260045260246000fd5b7f4e487b7100000000000000000000000000000000000000000000000000000000600052604160045260246000fd5b600080fd5b600080fd5b600080fd5b600080fd5b6000601f19601f8301169050919050565b7f596f7520616c726561647920636865636b207468697320636173650000000000600082015250565b7f596f7572206c6f67696e20616c726561647920657869737420696e207379737460008201527f656d000000000000000000000000000000000000000000000000000000000000602082015250565b7f4c6f772062616c616e6365000000000000000000000000000000000000000000600082015250565b7f466f7262696464656e0000000000000000000000000000000000000000000000600082015250565b7f596f75206e6f7420757365720000000000000000000000000000000000000000600082015250565b7f596f75206e6f742061646d696e00000000000000000000000000000000000000600082015250565b7f596f7520616c7265616479207265676973746572656400000000000000000000600082015250565b7f57726f6e67204c6f67696e000000000000000000000000000000000000000000600082015250565b614ff881614c1f565b811461500357600080fd5b50565b61500f81614c31565b811461501a57600080fd5b50565b61502681614c43565b811461503157600080fd5b50565b61503d81614c4f565b811461504857600080fd5b5056fea26469706673582212207b314f66819dd45374f68b163c9e9e4093e9a52a08689565ac6f153afcafa38c64736f6c63430008070033",
					"opcodes": "PUSH1 0x80 PUSH1 0x40 MSTORE CALLVALUE DUP1 ISZERO PUSH3 0x11 JUMPI PUSH1 0x0 DUP1 REVERT JUMPDEST POP PUSH1 0x40 MLOAD DUP1 PUSH1 0x40 ADD PUSH1 0x40 MSTORE DUP1 PUSH1 0x5 DUP2 MSTORE PUSH1 0x20 ADD PUSH32 0x6275796572000000000000000000000000000000000000000000000000000000 DUP2 MSTORE POP PUSH1 0x0 DUP1 DUP1 DUP2 MSTORE PUSH1 0x20 ADD SWAP1 DUP2 MSTORE PUSH1 0x20 ADD PUSH1 0x0 KECCAK256 SWAP1 DUP1 MLOAD SWAP1 PUSH1 0x20 ADD SWAP1 PUSH3 0x6F SWAP3 SWAP2 SWAP1 PUSH3 0x292 JUMP JUMPDEST POP PUSH1 0x40 MLOAD DUP1 PUSH1 0x40 ADD PUSH1 0x40 MSTORE DUP1 PUSH1 0x6 DUP2 MSTORE PUSH1 0x20 ADD PUSH32 0x73656C6C65720000000000000000000000000000000000000000000000000000 DUP2 MSTORE POP PUSH1 0x0 DUP1 PUSH1 0x1 DUP2 MSTORE PUSH1 0x20 ADD SWAP1 DUP2 MSTORE PUSH1 0x20 ADD PUSH1 0x0 KECCAK256 SWAP1 DUP1 MLOAD SWAP1 PUSH1 0x20 ADD SWAP1 PUSH3 0xCE SWAP3 SWAP2 SWAP1 PUSH3 0x292 JUMP JUMPDEST POP PUSH1 0x40 MLOAD DUP1 PUSH1 0x40 ADD PUSH1 0x40 MSTORE DUP1 PUSH1 0x4 DUP2 MSTORE PUSH1 0x20 ADD PUSH32 0x73686F7000000000000000000000000000000000000000000000000000000000 DUP2 MSTORE POP PUSH1 0x0 DUP1 PUSH1 0x2 DUP2 MSTORE PUSH1 0x20 ADD SWAP1 DUP2 MSTORE PUSH1 0x20 ADD PUSH1 0x0 KECCAK256 SWAP1 DUP1 MLOAD SWAP1 PUSH1 0x20 ADD SWAP1 PUSH3 0x12D SWAP3 SWAP2 SWAP1 PUSH3 0x292 JUMP JUMPDEST POP PUSH1 0x40 MLOAD DUP1 PUSH1 0x40 ADD PUSH1 0x40 MSTORE DUP1 PUSH1 0x5 DUP2 MSTORE PUSH1 0x20 ADD PUSH32 0x61646D696E000000000000000000000000000000000000000000000000000000 DUP2 MSTORE POP PUSH1 0x0 DUP1 PUSH1 0x3 DUP2 MSTORE PUSH1 0x20 ADD SWAP1 DUP2 MSTORE PUSH1 0x20 ADD PUSH1 0x0 KECCAK256 SWAP1 DUP1 MLOAD SWAP1 PUSH1 0x20 ADD SWAP1 PUSH3 0x18C SWAP3 SWAP2 SWAP1 PUSH3 0x292 JUMP JUMPDEST POP PUSH1 0x40 MLOAD DUP1 PUSH1 0x40 ADD PUSH1 0x40 MSTORE DUP1 PUSH1 0x8 DUP2 MSTORE PUSH1 0x20 ADD PUSH32 0x70726F7669646572000000000000000000000000000000000000000000000000 DUP2 MSTORE POP PUSH1 0x0 DUP1 PUSH1 0x4 DUP2 MSTORE PUSH1 0x20 ADD SWAP1 DUP2 MSTORE PUSH1 0x20 ADD PUSH1 0x0 KECCAK256 SWAP1 DUP1 MLOAD SWAP1 PUSH1 0x20 ADD SWAP1 PUSH3 0x1EB SWAP3 SWAP2 SWAP1 PUSH3 0x292 JUMP JUMPDEST POP PUSH1 0x40 MLOAD DUP1 PUSH1 0x40 ADD PUSH1 0x40 MSTORE DUP1 PUSH1 0x4 DUP2 MSTORE PUSH1 0x20 ADD PUSH32 0x62616E6B00000000000000000000000000000000000000000000000000000000 DUP2 MSTORE POP PUSH1 0x0 DUP1 PUSH1 0x5 DUP2 MSTORE PUSH1 0x20 ADD SWAP1 DUP2 MSTORE PUSH1 0x20 ADD PUSH1 0x0 KECCAK256 SWAP1 DUP1 MLOAD SWAP1 PUSH1 0x20 ADD SWAP1 PUSH3 0x24A SWAP3 SWAP2 SWAP1 PUSH3 0x292 JUMP JUMPDEST POP CALLER PUSH1 0x5 PUSH1 0x0 PUSH2 0x100 EXP DUP2 SLOAD DUP2 PUSH20 0xFFFFFFFFFFFFFFFFFFFFFFFFFFFFFFFFFFFFFFFF MUL NOT AND SWAP1 DUP4 PUSH20 0xFFFFFFFFFFFFFFFFFFFFFFFFFFFFFFFFFFFFFFFF AND MUL OR SWAP1 SSTORE POP PUSH3 0x3A7 JUMP JUMPDEST DUP3 DUP1 SLOAD PUSH3 0x2A0 SWAP1 PUSH3 0x342 JUMP JUMPDEST SWAP1 PUSH1 0x0 MSTORE PUSH1 0x20 PUSH1 0x0 KECCAK256 SWAP1 PUSH1 0x1F ADD PUSH1 0x20 SWAP1 DIV DUP2 ADD SWAP3 DUP3 PUSH3 0x2C4 JUMPI PUSH1 0x0 DUP6 SSTORE PUSH3 0x310 JUMP JUMPDEST DUP3 PUSH1 0x1F LT PUSH3 0x2DF JUMPI DUP1 MLOAD PUSH1 0xFF NOT AND DUP4 DUP1 ADD OR DUP6 SSTORE PUSH3 0x310 JUMP JUMPDEST DUP3 DUP1 ADD PUSH1 0x1 ADD DUP6 SSTORE DUP3 ISZERO PUSH3 0x310 JUMPI SWAP2 DUP3 ADD JUMPDEST DUP3 DUP2 GT ISZERO PUSH3 0x30F JUMPI DUP3 MLOAD DUP3 SSTORE SWAP2 PUSH1 0x20 ADD SWAP2 SWAP1 PUSH1 0x1 ADD SWAP1 PUSH3 0x2F2 JUMP JUMPDEST JUMPDEST POP SWAP1 POP PUSH3 0x31F SWAP2 SWAP1 PUSH3 0x323 JUMP JUMPDEST POP SWAP1 JUMP JUMPDEST JUMPDEST DUP1 DUP3 GT ISZERO PUSH3 0x33E JUMPI PUSH1 0x0 DUP2 PUSH1 0x0 SWAP1 SSTORE POP PUSH1 0x1 ADD PUSH3 0x324 JUMP JUMPDEST POP SWAP1 JUMP JUMPDEST PUSH1 0x0 PUSH1 0x2 DUP3 DIV SWAP1 POP PUSH1 0x1 DUP3 AND DUP1 PUSH3 0x35B JUMPI PUSH1 0x7F DUP3 AND SWAP2 POP JUMPDEST PUSH1 0x20 DUP3 LT DUP2 EQ ISZERO PUSH3 0x372 JUMPI PUSH3 0x371 PUSH3 0x378 JUMP JUMPDEST JUMPDEST POP SWAP2 SWAP1 POP JUMP JUMPDEST PUSH32 0x4E487B7100000000000000000000000000000000000000000000000000000000 PUSH1 0x0 MSTORE PUSH1 0x22 PUSH1 0x4 MSTORE PUSH1 0x24 PUSH1 0x0 REVERT JUMPDEST PUSH2 0x5081 DUP1 PUSH3 0x3B7 PUSH1 0x0 CODECOPY PUSH1 0x0 RETURN INVALID PUSH1 0x80 PUSH1 0x40 MSTORE CALLVALUE DUP1 ISZERO PUSH2 0x10 JUMPI PUSH1 0x0 DUP1 REVERT JUMPDEST POP PUSH1 0x4 CALLDATASIZE LT PUSH2 0x14D JUMPI PUSH1 0x0 CALLDATALOAD PUSH1 0xE0 SHR DUP1 PUSH4 0x8403F848 GT PUSH2 0xC3 JUMPI DUP1 PUSH4 0xBCE62A74 GT PUSH2 0x7C JUMPI DUP1 PUSH4 0xBCE62A74 EQ PUSH2 0x37F JUMPI DUP1 PUSH4 0xC3D5FD39 EQ PUSH2 0x39B JUMPI DUP1 PUSH4 0xDFFC8B06 EQ PUSH2 0x3BC JUMPI DUP1 PUSH4 0xE7BFEA50 EQ PUSH2 0x3EE JUMPI DUP1 PUSH4 0xF8F98B79 EQ PUSH2 0x40A JUMPI DUP1 PUSH4 0xFB1A002A EQ PUSH2 0x426 JUMPI PUSH2 0x14D JUMP JUMPDEST DUP1 PUSH4 0x8403F848 EQ PUSH2 0x2D2 JUMPI DUP1 PUSH4 0x99B958EE EQ PUSH2 0x2EE JUMPI DUP1 PUSH4 0x9D344D10 EQ PUSH2 0x30F JUMPI DUP1 PUSH4 0xA59D105F EQ PUSH2 0x32B JUMPI DUP1 PUSH4 0xAC6FA7C3 EQ PUSH2 0x347 JUMPI DUP1 PUSH4 0xB038316C EQ PUSH2 0x363 JUMPI PUSH2 0x14D JUMP JUMPDEST DUP1 PUSH4 0x3A7D280C GT PUSH2 0x115 JUMPI DUP1 PUSH4 0x3A7D280C EQ PUSH2 0x20F JUMPI DUP1 PUSH4 0x53082B13 EQ PUSH2 0x240 JUMPI DUP1 PUSH4 0x54504C12 EQ PUSH2 0x25C JUMPI DUP1 PUSH4 0x7B3C7488 EQ PUSH2 0x27E JUMPI DUP1 PUSH4 0x7CCB2BD8 EQ PUSH2 0x29A JUMPI DUP1 PUSH4 0x83DB0F6D EQ PUSH2 0x2B6 JUMPI PUSH2 0x14D JUMP JUMPDEST DUP1 PUSH4 0x8E74858 EQ PUSH2 0x152 JUMPI DUP1 PUSH4 0x2059B7AD EQ PUSH2 0x186 JUMPI DUP1 PUSH4 0x2156A781 EQ PUSH2 0x1A2 JUMPI DUP1 PUSH4 0x2D6ABF59 EQ PUSH2 0x1BE JUMPI DUP1 PUSH4 0x2F0185C4 EQ PUSH2 0x1DA JUMPI JUMPDEST PUSH1 0x0 DUP1 REVERT JUMPDEST PUSH2 0x16C PUSH1 0x4 DUP1 CALLDATASIZE SUB DUP2 ADD SWAP1 PUSH2 0x167 SWAP2 SWAP1 PUSH2 0x40BB JUMP JUMPDEST PUSH2 0x444 JUMP JUMPDEST PUSH1 0x40 MLOAD PUSH2 0x17D SWAP6 SWAP5 SWAP4 SWAP3 SWAP2 SWAP1 PUSH2 0x494F JUMP JUMPDEST PUSH1 0x40 MLOAD DUP1 SWAP2 SUB SWAP1 RETURN JUMPDEST PUSH2 0x1A0 PUSH1 0x4 DUP1 CALLDATASIZE SUB DUP2 ADD SWAP1 PUSH2 0x19B SWAP2 SWAP1 PUSH2 0x42E4 JUMP JUMPDEST PUSH2 0x949 JUMP JUMPDEST STOP JUMPDEST PUSH2 0x1BC PUSH1 0x4 DUP1 CALLDATASIZE SUB DUP2 ADD SWAP1 PUSH2 0x1B7 SWAP2 SWAP1 PUSH2 0x4288 JUMP JUMPDEST PUSH2 0xB2F JUMP JUMPDEST STOP JUMPDEST PUSH2 0x1D8 PUSH1 0x4 DUP1 CALLDATASIZE SUB DUP2 ADD SWAP1 PUSH2 0x1D3 SWAP2 SWAP1 PUSH2 0x41A0 JUMP JUMPDEST PUSH2 0xBF6 JUMP JUMPDEST STOP JUMPDEST PUSH2 0x1F4 PUSH1 0x4 DUP1 CALLDATASIZE SUB DUP2 ADD SWAP1 PUSH2 0x1EF SWAP2 SWAP1 PUSH2 0x423F JUMP JUMPDEST PUSH2 0xF88 JUMP JUMPDEST PUSH1 0x40 MLOAD PUSH2 0x206 SWAP7 SWAP6 SWAP5 SWAP4 SWAP3 SWAP2 SWAP1 PUSH2 0x47EF JUMP JUMPDEST PUSH1 0x40 MLOAD DUP1 SWAP2 SUB SWAP1 RETURN JUMPDEST PUSH2 0x229 PUSH1 0x4 DUP1 CALLDATASIZE SUB DUP2 ADD SWAP1 PUSH2 0x224 SWAP2 SWAP1 PUSH2 0x423F JUMP JUMPDEST PUSH2 0x1258 JUMP JUMPDEST PUSH1 0x40 MLOAD PUSH2 0x237 SWAP3 SWAP2 SWAP1 PUSH2 0x4857 JUMP JUMPDEST PUSH1 0x40 MLOAD DUP1 SWAP2 SUB SWAP1 RETURN JUMPDEST PUSH2 0x25A PUSH1 0x4 DUP1 CALLDATASIZE SUB DUP2 ADD SWAP1 PUSH2 0x255 SWAP2 SWAP1 PUSH2 0x4115 JUMP JUMPDEST PUSH2 0x164F JUMP JUMPDEST STOP JUMPDEST PUSH2 0x264 PUSH2 0x1795 JUMP JUMPDEST PUSH1 0x40 MLOAD PUSH2 0x275 SWAP6 SWAP5 SWAP4 SWAP3 SWAP2 SWAP1 PUSH2 0x494F JUMP JUMPDEST PUSH1 0x40 MLOAD DUP1 SWAP2 SUB SWAP1 RETURN JUMPDEST PUSH2 0x298 PUSH1 0x4 DUP1 CALLDATASIZE SUB DUP2 ADD SWAP1 PUSH2 0x293 SWAP2 SWAP1 PUSH2 0x423F JUMP JUMPDEST PUSH2 0x1C98 JUMP JUMPDEST STOP JUMPDEST PUSH2 0x2B4 PUSH1 0x4 DUP1 CALLDATASIZE SUB DUP2 ADD SWAP1 PUSH2 0x2AF SWAP2 SWAP1 PUSH2 0x4288 JUMP JUMPDEST PUSH2 0x1F63 JUMP JUMPDEST STOP JUMPDEST PUSH2 0x2D0 PUSH1 0x4 DUP1 CALLDATASIZE SUB DUP2 ADD SWAP1 PUSH2 0x2CB SWAP2 SWAP1 PUSH2 0x40E8 JUMP JUMPDEST PUSH2 0x206C JUMP JUMPDEST STOP JUMPDEST PUSH2 0x2EC PUSH1 0x4 DUP1 CALLDATASIZE SUB DUP2 ADD SWAP1 PUSH2 0x2E7 SWAP2 SWAP1 PUSH2 0x4443 JUMP JUMPDEST PUSH2 0x21BB JUMP JUMPDEST STOP JUMPDEST PUSH2 0x2F6 PUSH2 0x22E9 JUMP JUMPDEST PUSH1 0x40 MLOAD PUSH2 0x306 SWAP5 SWAP4 SWAP3 SWAP2 SWAP1 PUSH2 0x49C5 JUMP JUMPDEST PUSH1 0x40 MLOAD DUP1 SWAP2 SUB SWAP1 RETURN JUMPDEST PUSH2 0x329 PUSH1 0x4 DUP1 CALLDATASIZE SUB DUP2 ADD SWAP1 PUSH2 0x324 SWAP2 SWAP1 PUSH2 0x43B8 JUMP JUMPDEST PUSH2 0x269E JUMP JUMPDEST STOP JUMPDEST PUSH2 0x345 PUSH1 0x4 DUP1 CALLDATASIZE SUB DUP2 ADD SWAP1 PUSH2 0x340 SWAP2 SWAP1 PUSH2 0x4115 JUMP JUMPDEST PUSH2 0x26C7 JUMP JUMPDEST STOP JUMPDEST PUSH2 0x361 PUSH1 0x4 DUP1 CALLDATASIZE SUB DUP2 ADD SWAP1 PUSH2 0x35C SWAP2 SWAP1 PUSH2 0x423F JUMP JUMPDEST PUSH2 0x27C6 JUMP JUMPDEST STOP JUMPDEST PUSH2 0x37D PUSH1 0x4 DUP1 CALLDATASIZE SUB DUP2 ADD SWAP1 PUSH2 0x378 SWAP2 SWAP1 PUSH2 0x423F JUMP JUMPDEST PUSH2 0x29A0 JUMP JUMPDEST STOP JUMPDEST PUSH2 0x399 PUSH1 0x4 DUP1 CALLDATASIZE SUB DUP2 ADD SWAP1 PUSH2 0x394 SWAP2 SWAP1 PUSH2 0x423F JUMP JUMPDEST PUSH2 0x2B7A JUMP JUMPDEST STOP JUMPDEST PUSH2 0x3A3 PUSH2 0x2E45 JUMP JUMPDEST PUSH1 0x40 MLOAD PUSH2 0x3B3 SWAP5 SWAP4 SWAP3 SWAP2 SWAP1 PUSH2 0x48EE JUMP JUMPDEST PUSH1 0x40 MLOAD DUP1 SWAP2 SUB SWAP1 RETURN JUMPDEST PUSH2 0x3D6 PUSH1 0x4 DUP1 CALLDATASIZE SUB DUP2 ADD SWAP1 PUSH2 0x3D1 SWAP2 SWAP1 PUSH2 0x423F JUMP JUMPDEST PUSH2 0x3378 JUMP JUMPDEST PUSH1 0x40 MLOAD PUSH2 0x3E5 SWAP4 SWAP3 SWAP2 SWAP1 PUSH2 0x4887 JUMP JUMPDEST PUSH1 0x40 MLOAD DUP1 SWAP2 SUB SWAP1 RETURN JUMPDEST PUSH2 0x408 PUSH1 0x4 DUP1 CALLDATASIZE SUB DUP2 ADD SWAP1 PUSH2 0x403 SWAP2 SWAP1 PUSH2 0x40BB JUMP JUMPDEST PUSH2 0x3580 JUMP JUMPDEST STOP JUMPDEST PUSH2 0x424 PUSH1 0x4 DUP1 CALLDATASIZE SUB DUP2 ADD SWAP1 PUSH2 0x41F SWAP2 SWAP1 PUSH2 0x4340 JUMP JUMPDEST PUSH2 0x3822 JUMP JUMPDEST STOP JUMPDEST PUSH2 0x42E PUSH2 0x3917 JUMP JUMPDEST PUSH1 0x40 MLOAD PUSH2 0x43B SWAP2 SWAP1 PUSH2 0x48CC JUMP JUMPDEST PUSH1 0x40 MLOAD DUP1 SWAP2 SUB SWAP1 RETURN JUMPDEST PUSH1 0x60 DUP1 PUSH1 0x60 DUP1 PUSH1 0x60 PUSH1 0x3 PUSH1 0x2 PUSH1 0x0 CALLER PUSH20 0xFFFFFFFFFFFFFFFFFFFFFFFFFFFFFFFFFFFFFFFF AND PUSH20 0xFFFFFFFFFFFFFFFFFFFFFFFFFFFFFFFFFFFFFFFF AND DUP2 MSTORE PUSH1 0x20 ADD SWAP1 DUP2 MSTORE PUSH1 0x20 ADD PUSH1 0x0 KECCAK256 PUSH1 0x0 ADD SLOAD DUP2 PUSH1 0x5 DUP2 GT ISZERO PUSH2 0x4A4 JUMPI PUSH2 0x4A3 PUSH2 0x4DA0 JUMP JUMPDEST JUMPDEST EQ PUSH2 0x4E4 JUMPI PUSH1 0x40 MLOAD PUSH32 0x8C379A000000000000000000000000000000000000000000000000000000000 DUP2 MSTORE PUSH1 0x4 ADD PUSH2 0x4DB SWAP1 PUSH2 0x4A7F JUMP JUMPDEST PUSH1 0x40 MLOAD DUP1 SWAP2 SUB SWAP1 REVERT JUMPDEST PUSH1 0x0 PUSH1 0x2 PUSH1 0x0 DUP10 PUSH20 0xFFFFFFFFFFFFFFFFFFFFFFFFFFFFFFFFFFFFFFFF AND PUSH20 0xFFFFFFFFFFFFFFFFFFFFFFFFFFFFFFFFFFFFFFFF AND DUP2 MSTORE PUSH1 0x20 ADD SWAP1 DUP2 MSTORE PUSH1 0x20 ADD PUSH1 0x0 KECCAK256 PUSH1 0x40 MLOAD DUP1 PUSH1 0x80 ADD PUSH1 0x40 MSTORE SWAP1 DUP2 PUSH1 0x0 DUP3 ADD SLOAD DUP2 MSTORE PUSH1 0x20 ADD PUSH1 0x1 DUP3 ADD DUP1 SLOAD PUSH2 0x54A SWAP1 PUSH2 0x4CC5 JUMP JUMPDEST DUP1 PUSH1 0x1F ADD PUSH1 0x20 DUP1 SWAP2 DIV MUL PUSH1 0x20 ADD PUSH1 0x40 MLOAD SWAP1 DUP2 ADD PUSH1 0x40 MSTORE DUP1 SWAP3 SWAP2 SWAP1 DUP2 DUP2 MSTORE PUSH1 0x20 ADD DUP3 DUP1 SLOAD PUSH2 0x576 SWAP1 PUSH2 0x4CC5 JUMP JUMPDEST DUP1 ISZERO PUSH2 0x5C3 JUMPI DUP1 PUSH1 0x1F LT PUSH2 0x598 JUMPI PUSH2 0x100 DUP1 DUP4 SLOAD DIV MUL DUP4 MSTORE SWAP2 PUSH1 0x20 ADD SWAP2 PUSH2 0x5C3 JUMP JUMPDEST DUP3 ADD SWAP2 SWAP1 PUSH1 0x0 MSTORE PUSH1 0x20 PUSH1 0x0 KECCAK256 SWAP1 JUMPDEST DUP2 SLOAD DUP2 MSTORE SWAP1 PUSH1 0x1 ADD SWAP1 PUSH1 0x20 ADD DUP1 DUP4 GT PUSH2 0x5A6 JUMPI DUP3 SWAP1 SUB PUSH1 0x1F AND DUP3 ADD SWAP2 JUMPDEST POP POP POP POP POP DUP2 MSTORE PUSH1 0x20 ADD PUSH1 0x2 DUP3 ADD DUP1 SLOAD PUSH2 0x5DC SWAP1 PUSH2 0x4CC5 JUMP JUMPDEST DUP1 PUSH1 0x1F ADD PUSH1 0x20 DUP1 SWAP2 DIV MUL PUSH1 0x20 ADD PUSH1 0x40 MLOAD SWAP1 DUP2 ADD PUSH1 0x40 MSTORE DUP1 SWAP3 SWAP2 SWAP1 DUP2 DUP2 MSTORE PUSH1 0x20 ADD DUP3 DUP1 SLOAD PUSH2 0x608 SWAP1 PUSH2 0x4CC5 JUMP JUMPDEST DUP1 ISZERO PUSH2 0x655 JUMPI DUP1 PUSH1 0x1F LT PUSH2 0x62A JUMPI PUSH2 0x100 DUP1 DUP4 SLOAD DIV MUL DUP4 MSTORE SWAP2 PUSH1 0x20 ADD SWAP2 PUSH2 0x655 JUMP JUMPDEST DUP3 ADD SWAP2 SWAP1 PUSH1 0x0 MSTORE PUSH1 0x20 PUSH1 0x0 KECCAK256 SWAP1 JUMPDEST DUP2 SLOAD DUP2 MSTORE SWAP1 PUSH1 0x1 ADD SWAP1 PUSH1 0x20 ADD DUP1 DUP4 GT PUSH2 0x638 JUMPI DUP3 SWAP1 SUB PUSH1 0x1F AND DUP3 ADD SWAP2 JUMPDEST POP POP POP POP POP DUP2 MSTORE PUSH1 0x20 ADD PUSH1 0x3 DUP3 ADD DUP1 SLOAD DUP1 PUSH1 0x20 MUL PUSH1 0x20 ADD PUSH1 0x40 MLOAD SWAP1 DUP2 ADD PUSH1 0x40 MSTORE DUP1 SWAP3 SWAP2 SWAP1 DUP2 DUP2 MSTORE PUSH1 0x20 ADD PUSH1 0x0 SWAP1 JUMPDEST DUP3 DUP3 LT ISZERO PUSH2 0x72F JUMPI DUP4 DUP3 SWAP1 PUSH1 0x0 MSTORE PUSH1 0x20 PUSH1 0x0 KECCAK256 ADD DUP1 SLOAD PUSH2 0x6A2 SWAP1 PUSH2 0x4CC5 JUMP JUMPDEST DUP1 PUSH1 0x1F ADD PUSH1 0x20 DUP1 SWAP2 DIV MUL PUSH1 0x20 ADD PUSH1 0x40 MLOAD SWAP1 DUP2 ADD PUSH1 0x40 MSTORE DUP1 SWAP3 SWAP2 SWAP1 DUP2 DUP2 MSTORE PUSH1 0x20 ADD DUP3 DUP1 SLOAD PUSH2 0x6CE SWAP1 PUSH2 0x4CC5 JUMP JUMPDEST DUP1 ISZERO PUSH2 0x71B JUMPI DUP1 PUSH1 0x1F LT PUSH2 0x6F0 JUMPI PUSH2 0x100 DUP1 DUP4 SLOAD DIV MUL DUP4 MSTORE SWAP2 PUSH1 0x20 ADD SWAP2 PUSH2 0x71B JUMP JUMPDEST DUP3 ADD SWAP2 SWAP1 PUSH1 0x0 MSTORE PUSH1 0x20 PUSH1 0x0 KECCAK256 SWAP1 JUMPDEST DUP2 SLOAD DUP2 MSTORE SWAP1 PUSH1 0x1 ADD SWAP1 PUSH1 0x20 ADD DUP1 DUP4 GT PUSH2 0x6FE JUMPI DUP3 SWAP1 SUB PUSH1 0x1F AND DUP3 ADD SWAP2 JUMPDEST POP POP POP POP POP DUP2 MSTORE PUSH1 0x20 ADD SWAP1 PUSH1 0x1 ADD SWAP1 PUSH2 0x683 JUMP JUMPDEST POP POP POP POP DUP2 MSTORE POP POP SWAP1 POP PUSH1 0x0 PUSH1 0xB PUSH1 0x0 DUP11 PUSH20 0xFFFFFFFFFFFFFFFFFFFFFFFFFFFFFFFFFFFFFFFF AND PUSH20 0xFFFFFFFFFFFFFFFFFFFFFFFFFFFFFFFFFFFFFFFF AND DUP2 MSTORE PUSH1 0x20 ADD SWAP1 DUP2 MSTORE PUSH1 0x20 ADD PUSH1 0x0 KECCAK256 PUSH1 0x0 SWAP1 SLOAD SWAP1 PUSH2 0x100 EXP SWAP1 DIV PUSH20 0xFFFFFFFFFFFFFFFFFFFFFFFFFFFFFFFFFFFFFFFF AND SWAP1 POP PUSH1 0x0 PUSH1 0xA PUSH1 0x0 DUP4 PUSH20 0xFFFFFFFFFFFFFFFFFFFFFFFFFFFFFFFFFFFFFFFF AND PUSH20 0xFFFFFFFFFFFFFFFFFFFFFFFFFFFFFFFFFFFFFFFF AND DUP2 MSTORE PUSH1 0x20 ADD SWAP1 DUP2 MSTORE PUSH1 0x20 ADD PUSH1 0x0 KECCAK256 PUSH1 0x40 MLOAD DUP1 PUSH1 0x60 ADD PUSH1 0x40 MSTORE SWAP1 DUP2 PUSH1 0x0 DUP3 ADD DUP1 SLOAD PUSH2 0x7F9 SWAP1 PUSH2 0x4CC5 JUMP JUMPDEST DUP1 PUSH1 0x1F ADD PUSH1 0x20 DUP1 SWAP2 DIV MUL PUSH1 0x20 ADD PUSH1 0x40 MLOAD SWAP1 DUP2 ADD PUSH1 0x40 MSTORE DUP1 SWAP3 SWAP2 SWAP1 DUP2 DUP2 MSTORE PUSH1 0x20 ADD DUP3 DUP1 SLOAD PUSH2 0x825 SWAP1 PUSH2 0x4CC5 JUMP JUMPDEST DUP1 ISZERO PUSH2 0x872 JUMPI DUP1 PUSH1 0x1F LT PUSH2 0x847 JUMPI PUSH2 0x100 DUP1 DUP4 SLOAD DIV MUL DUP4 MSTORE SWAP2 PUSH1 0x20 ADD SWAP2 PUSH2 0x872 JUMP JUMPDEST DUP3 ADD SWAP2 SWAP1 PUSH1 0x0 MSTORE PUSH1 0x20 PUSH1 0x0 KECCAK256 SWAP1 JUMPDEST DUP2 SLOAD DUP2 MSTORE SWAP1 PUSH1 0x1 ADD SWAP1 PUSH1 0x20 ADD DUP1 DUP4 GT PUSH2 0x855 JUMPI DUP3 SWAP1 SUB PUSH1 0x1F AND DUP3 ADD SWAP2 JUMPDEST POP POP POP POP POP DUP2 MSTORE PUSH1 0x20 ADD PUSH1 0x1 DUP3 ADD DUP1 SLOAD PUSH2 0x88B SWAP1 PUSH2 0x4CC5 JUMP JUMPDEST DUP1 PUSH1 0x1F ADD PUSH1 0x20 DUP1 SWAP2 DIV MUL PUSH1 0x20 ADD PUSH1 0x40 MLOAD SWAP1 DUP2 ADD PUSH1 0x40 MSTORE DUP1 SWAP3 SWAP2 SWAP1 DUP2 DUP2 MSTORE PUSH1 0x20 ADD DUP3 DUP1 SLOAD PUSH2 0x8B7 SWAP1 PUSH2 0x4CC5 JUMP JUMPDEST DUP1 ISZERO PUSH2 0x904 JUMPI DUP1 PUSH1 0x1F LT PUSH2 0x8D9 JUMPI PUSH2 0x100 DUP1 DUP4 SLOAD DIV MUL DUP4 MSTORE SWAP2 PUSH1 0x20 ADD SWAP2 PUSH2 0x904 JUMP JUMPDEST DUP3 ADD SWAP2 SWAP1 PUSH1 0x0 MSTORE PUSH1 0x20 PUSH1 0x0 KECCAK256 SWAP1 JUMPDEST DUP2 SLOAD DUP2 MSTORE SWAP1 PUSH1 0x1 ADD SWAP1 PUSH1 0x20 ADD DUP1 DUP4 GT PUSH2 0x8E7 JUMPI DUP3 SWAP1 SUB PUSH1 0x1F AND DUP3 ADD SWAP2 JUMPDEST POP POP POP POP POP DUP2 MSTORE PUSH1 0x20 ADD PUSH1 0x2 DUP3 ADD SLOAD DUP2 MSTORE POP POP SWAP1 POP DUP3 PUSH1 0x20 ADD MLOAD SWAP9 POP DUP3 PUSH1 0x40 ADD MLOAD SWAP8 POP DUP1 PUSH1 0x20 ADD MLOAD SWAP7 POP DUP1 PUSH1 0x0 ADD MLOAD SWAP6 POP DUP3 PUSH1 0x60 ADD MLOAD SWAP5 POP POP POP POP POP SWAP2 SWAP4 SWAP6 SWAP1 SWAP3 SWAP5 POP JUMP JUMPDEST PUSH1 0x3 PUSH1 0x2 PUSH1 0x0 CALLER PUSH20 0xFFFFFFFFFFFFFFFFFFFFFFFFFFFFFFFFFFFFFFFF AND PUSH20 0xFFFFFFFFFFFFFFFFFFFFFFFFFFFFFFFFFFFFFFFF AND DUP2 MSTORE PUSH1 0x20 ADD SWAP1 DUP2 MSTORE PUSH1 0x20 ADD PUSH1 0x0 KECCAK256 PUSH1 0x0 ADD SLOAD DUP2 PUSH1 0x5 DUP2 GT ISZERO PUSH2 0x9A1 JUMPI PUSH2 0x9A0 PUSH2 0x4DA0 JUMP JUMPDEST JUMPDEST EQ PUSH2 0x9E1 JUMPI PUSH1 0x40 MLOAD PUSH32 0x8C379A000000000000000000000000000000000000000000000000000000000 DUP2 MSTORE PUSH1 0x4 ADD PUSH2 0x9D8 SWAP1 PUSH2 0x4A7F JUMP JUMPDEST PUSH1 0x40 MLOAD DUP1 SWAP2 SUB SWAP1 REVERT JUMPDEST PUSH1 0x0 PUSH1 0xF DUP5 PUSH1 0x40 MLOAD PUSH2 0x9F3 SWAP2 SWAP1 PUSH2 0x47D8 JUMP JUMPDEST SWAP1 DUP2 MSTORE PUSH1 0x20 ADD PUSH1 0x40 MLOAD DUP1 SWAP2 SUB SWAP1 KECCAK256 PUSH1 0x40 MLOAD DUP1 PUSH1 0x80 ADD PUSH1 0x40 MSTORE SWAP1 DUP2 PUSH1 0x0 DUP3 ADD PUSH1 0x0 SWAP1 SLOAD SWAP1 PUSH2 0x100 EXP SWAP1 DIV PUSH20 0xFFFFFFFFFFFFFFFFFFFFFFFFFFFFFFFFFFFFFFFF AND PUSH20 0xFFFFFFFFFFFFFFFFFFFFFFFFFFFFFFFFFFFFFFFF AND PUSH20 0xFFFFFFFFFFFFFFFFFFFFFFFFFFFFFFFFFFFFFFFF AND DUP2 MSTORE PUSH1 0x20 ADD PUSH1 0x1 DUP3 ADD SLOAD DUP2 MSTORE PUSH1 0x20 ADD PUSH1 0x2 DUP3 ADD SLOAD DUP2 MSTORE PUSH1 0x20 ADD PUSH1 0x3 DUP3 ADD PUSH1 0x0 SWAP1 SLOAD SWAP1 PUSH2 0x100 EXP SWAP1 DIV PUSH1 0xFF AND ISZERO ISZERO ISZERO ISZERO DUP2 MSTORE POP POP SWAP1 POP PUSH1 0x0 DUP2 PUSH1 0x40 ADD MLOAD SWAP1 POP DUP4 ISZERO PUSH2 0xAEE JUMPI DUP1 PUSH1 0x2 PUSH1 0x0 DUP5 PUSH1 0x0 ADD MLOAD PUSH20 0xFFFFFFFFFFFFFFFFFFFFFFFFFFFFFFFFFFFFFFFF AND PUSH20 0xFFFFFFFFFFFFFFFFFFFFFFFFFFFFFFFFFFFFFFFF AND DUP2 MSTORE PUSH1 0x20 ADD SWAP1 DUP2 MSTORE PUSH1 0x20 ADD PUSH1 0x0 KECCAK256 PUSH1 0x0 ADD DUP2 SWAP1 SSTORE POP JUMPDEST PUSH1 0x1 PUSH1 0xF DUP7 PUSH1 0x40 MLOAD PUSH2 0xB00 SWAP2 SWAP1 PUSH2 0x47D8 JUMP JUMPDEST SWAP1 DUP2 MSTORE PUSH1 0x20 ADD PUSH1 0x40 MLOAD DUP1 SWAP2 SUB SWAP1 KECCAK256 PUSH1 0x3 ADD PUSH1 0x0 PUSH2 0x100 EXP DUP2 SLOAD DUP2 PUSH1 0xFF MUL NOT AND SWAP1 DUP4 ISZERO ISZERO MUL OR SWAP1 SSTORE POP POP POP POP POP POP JUMP JUMPDEST PUSH1 0x5 PUSH1 0x0 SWAP1 SLOAD SWAP1 PUSH2 0x100 EXP SWAP1 DIV PUSH20 0xFFFFFFFFFFFFFFFFFFFFFFFFFFFFFFFFFFFFFFFF AND PUSH20 0xFFFFFFFFFFFFFFFFFFFFFFFFFFFFFFFFFFFFFFFF AND CALLER PUSH20 0xFFFFFFFFFFFFFFFFFFFFFFFFFFFFFFFFFFFFFFFF AND EQ PUSH2 0xBBF JUMPI PUSH1 0x40 MLOAD PUSH32 0x8C379A000000000000000000000000000000000000000000000000000000000 DUP2 MSTORE PUSH1 0x4 ADD PUSH2 0xBB6 SWAP1 PUSH2 0x4ABF JUMP JUMPDEST PUSH1 0x40 MLOAD DUP1 SWAP2 SUB SWAP1 REVERT JUMPDEST PUSH1 0x0 PUSH1 0x5 DUP1 DUP2 GT ISZERO PUSH2 0xBD4 JUMPI PUSH2 0xBD3 PUSH2 0x4DA0 JUMP JUMPDEST JUMPDEST SWAP1 POP PUSH2 0xBF1 PUSH1 0x40 MLOAD DUP1 PUSH1 0x20 ADD PUSH1 0x40 MSTORE DUP1 PUSH1 0x0 DUP2 MSTORE POP DUP5 DUP4 DUP6 PUSH2 0x3A89 JUMP JUMPDEST POP POP POP JUMP JUMPDEST PUSH2 0xCD9 PUSH1 0x2 PUSH1 0x0 CALLER PUSH20 0xFFFFFFFFFFFFFFFFFFFFFFFFFFFFFFFFFFFFFFFF AND PUSH20 0xFFFFFFFFFFFFFFFFFFFFFFFFFFFFFFFFFFFFFFFF AND DUP2 MSTORE PUSH1 0x20 ADD SWAP1 DUP2 MSTORE PUSH1 0x20 ADD PUSH1 0x0 KECCAK256 PUSH1 0x1 ADD DUP1 SLOAD PUSH2 0xC46 SWAP1 PUSH2 0x4CC5 JUMP JUMPDEST DUP1 PUSH1 0x1F ADD PUSH1 0x20 DUP1 SWAP2 DIV MUL PUSH1 0x20 ADD PUSH1 0x40 MLOAD SWAP1 DUP2 ADD PUSH1 0x40 MSTORE DUP1 SWAP3 SWAP2 SWAP1 DUP2 DUP2 MSTORE PUSH1 0x20 ADD DUP3 DUP1 SLOAD PUSH2 0xC72 SWAP1 PUSH2 0x4CC5 JUMP JUMPDEST DUP1 ISZERO PUSH2 0xCBF JUMPI DUP1 PUSH1 0x1F LT PUSH2 0xC94 JUMPI PUSH2 0x100 DUP1 DUP4 SLOAD DIV MUL DUP4 MSTORE SWAP2 PUSH1 0x20 ADD SWAP2 PUSH2 0xCBF JUMP JUMPDEST DUP3 ADD SWAP2 SWAP1 PUSH1 0x0 MSTORE PUSH1 0x20 PUSH1 0x0 KECCAK256 SWAP1 JUMPDEST DUP2 SLOAD DUP2 MSTORE SWAP1 PUSH1 0x1 ADD SWAP1 PUSH1 0x20 ADD DUP1 DUP4 GT PUSH2 0xCA2 JUMPI DUP3 SWAP1 SUB PUSH1 0x1F AND DUP3 ADD SWAP2 JUMPDEST POP POP POP POP POP PUSH1 0x40 MLOAD DUP1 PUSH1 0x20 ADD PUSH1 0x40 MSTORE DUP1 PUSH1 0x0 DUP2 MSTORE POP PUSH2 0x3D8C JUMP JUMPDEST ISZERO PUSH2 0xD19 JUMPI PUSH1 0x40 MLOAD PUSH32 0x8C379A000000000000000000000000000000000000000000000000000000000 DUP2 MSTORE PUSH1 0x4 ADD PUSH2 0xD10 SWAP1 PUSH2 0x4A9F JUMP JUMPDEST PUSH1 0x40 MLOAD DUP1 SWAP2 SUB SWAP1 REVERT JUMPDEST PUSH1 0x60 DUP1 PUSH1 0x0 PUSH1 0x40 MLOAD DUP1 PUSH1 0xC0 ADD PUSH1 0x40 MSTORE DUP1 CALLER PUSH20 0xFFFFFFFFFFFFFFFFFFFFFFFFFFFFFFFFFFFFFFFF AND DUP2 MSTORE PUSH1 0x20 ADD DUP9 PUSH20 0xFFFFFFFFFFFFFFFFFFFFFFFFFFFFFFFFFFFFFFFF AND DUP2 MSTORE PUSH1 0x20 ADD DUP8 DUP2 MSTORE PUSH1 0x20 ADD DUP5 DUP2 MSTORE PUSH1 0x20 ADD DUP4 DUP2 MSTORE PUSH1 0x20 ADD DUP6 DUP2 MSTORE POP SWAP1 POP PUSH1 0xD PUSH1 0x0 DUP9 PUSH20 0xFFFFFFFFFFFFFFFFFFFFFFFFFFFFFFFFFFFFFFFF AND PUSH20 0xFFFFFFFFFFFFFFFFFFFFFFFFFFFFFFFFFFFFFFFF AND DUP2 MSTORE PUSH1 0x20 ADD SWAP1 DUP2 MSTORE PUSH1 0x20 ADD PUSH1 0x0 KECCAK256 DUP6 SWAP1 DUP1 PUSH1 0x1 DUP2 SLOAD ADD DUP1 DUP3 SSTORE DUP1 SWAP2 POP POP PUSH1 0x1 SWAP1 SUB SWAP1 PUSH1 0x0 MSTORE PUSH1 0x20 PUSH1 0x0 KECCAK256 ADD PUSH1 0x0 SWAP1 SWAP2 SWAP1 SWAP2 SWAP1 SWAP2 POP SWAP1 DUP1 MLOAD SWAP1 PUSH1 0x20 ADD SWAP1 PUSH2 0xDF1 SWAP3 SWAP2 SWAP1 PUSH2 0x3DE5 JUMP JUMPDEST POP PUSH1 0x2 PUSH1 0x0 CALLER PUSH20 0xFFFFFFFFFFFFFFFFFFFFFFFFFFFFFFFFFFFFFFFF AND PUSH20 0xFFFFFFFFFFFFFFFFFFFFFFFFFFFFFFFFFFFFFFFF AND DUP2 MSTORE PUSH1 0x20 ADD SWAP1 DUP2 MSTORE PUSH1 0x20 ADD PUSH1 0x0 KECCAK256 PUSH1 0x3 ADD DUP6 SWAP1 DUP1 PUSH1 0x1 DUP2 SLOAD ADD DUP1 DUP3 SSTORE DUP1 SWAP2 POP POP PUSH1 0x1 SWAP1 SUB SWAP1 PUSH1 0x0 MSTORE PUSH1 0x20 PUSH1 0x0 KECCAK256 ADD PUSH1 0x0 SWAP1 SWAP2 SWAP1 SWAP2 SWAP1 SWAP2 POP SWAP1 DUP1 MLOAD SWAP1 PUSH1 0x20 ADD SWAP1 PUSH2 0xE6D SWAP3 SWAP2 SWAP1 PUSH2 0x3DE5 JUMP JUMPDEST POP DUP1 PUSH1 0xE DUP7 PUSH1 0x40 MLOAD PUSH2 0xE7F SWAP2 SWAP1 PUSH2 0x47D8 JUMP JUMPDEST SWAP1 DUP2 MSTORE PUSH1 0x20 ADD PUSH1 0x40 MLOAD DUP1 SWAP2 SUB SWAP1 KECCAK256 PUSH1 0x0 DUP3 ADD MLOAD DUP2 PUSH1 0x0 ADD PUSH1 0x0 PUSH2 0x100 EXP DUP2 SLOAD DUP2 PUSH20 0xFFFFFFFFFFFFFFFFFFFFFFFFFFFFFFFFFFFFFFFF MUL NOT AND SWAP1 DUP4 PUSH20 0xFFFFFFFFFFFFFFFFFFFFFFFFFFFFFFFFFFFFFFFF AND MUL OR SWAP1 SSTORE POP PUSH1 0x20 DUP3 ADD MLOAD DUP2 PUSH1 0x1 ADD PUSH1 0x0 PUSH2 0x100 EXP DUP2 SLOAD DUP2 PUSH20 0xFFFFFFFFFFFFFFFFFFFFFFFFFFFFFFFFFFFFFFFF MUL NOT AND SWAP1 DUP4 PUSH20 0xFFFFFFFFFFFFFFFFFFFFFFFFFFFFFFFFFFFFFFFF AND MUL OR SWAP1 SSTORE POP PUSH1 0x40 DUP3 ADD MLOAD DUP2 PUSH1 0x2 ADD SWAP1 DUP1 MLOAD SWAP1 PUSH1 0x20 ADD SWAP1 PUSH2 0xF37 SWAP3 SWAP2 SWAP1 PUSH2 0x3DE5 JUMP JUMPDEST POP PUSH1 0x60 DUP3 ADD MLOAD DUP2 PUSH1 0x3 ADD SWAP1 DUP1 MLOAD SWAP1 PUSH1 0x20 ADD SWAP1 PUSH2 0xF54 SWAP3 SWAP2 SWAP1 PUSH2 0x3E6B JUMP JUMPDEST POP PUSH1 0x80 DUP3 ADD MLOAD DUP2 PUSH1 0x4 ADD SWAP1 DUP1 MLOAD SWAP1 PUSH1 0x20 ADD SWAP1 PUSH2 0xF71 SWAP3 SWAP2 SWAP1 PUSH2 0x3E6B JUMP JUMPDEST POP PUSH1 0xA0 DUP3 ADD MLOAD DUP2 PUSH1 0x5 ADD SSTORE SWAP1 POP POP POP POP POP POP POP POP POP JUMP JUMPDEST PUSH1 0x0 DUP1 PUSH1 0x60 PUSH1 0x0 DUP1 PUSH1 0x0 DUP1 PUSH1 0xE DUP9 PUSH1 0x40 MLOAD PUSH2 0xFA3 SWAP2 SWAP1 PUSH2 0x47D8 JUMP JUMPDEST SWAP1 DUP2 MSTORE PUSH1 0x20 ADD PUSH1 0x40 MLOAD DUP1 SWAP2 SUB SWAP1 KECCAK256 PUSH1 0x40 MLOAD DUP1 PUSH1 0xC0 ADD PUSH1 0x40 MSTORE SWAP1 DUP2 PUSH1 0x0 DUP3 ADD PUSH1 0x0 SWAP1 SLOAD SWAP1 PUSH2 0x100 EXP SWAP1 DIV PUSH20 0xFFFFFFFFFFFFFFFFFFFFFFFFFFFFFFFFFFFFFFFF AND PUSH20 0xFFFFFFFFFFFFFFFFFFFFFFFFFFFFFFFFFFFFFFFF AND PUSH20 0xFFFFFFFFFFFFFFFFFFFFFFFFFFFFFFFFFFFFFFFF AND DUP2 MSTORE PUSH1 0x20 ADD PUSH1 0x1 DUP3 ADD PUSH1 0x0 SWAP1 SLOAD SWAP1 PUSH2 0x100 EXP SWAP1 DIV PUSH20 0xFFFFFFFFFFFFFFFFFFFFFFFFFFFFFFFFFFFFFFFF AND PUSH20 0xFFFFFFFFFFFFFFFFFFFFFFFFFFFFFFFFFFFFFFFF AND PUSH20 0xFFFFFFFFFFFFFFFFFFFFFFFFFFFFFFFFFFFFFFFF AND DUP2 MSTORE PUSH1 0x20 ADD PUSH1 0x2 DUP3 ADD DUP1 SLOAD PUSH2 0x1078 SWAP1 PUSH2 0x4CC5 JUMP JUMPDEST DUP1 PUSH1 0x1F ADD PUSH1 0x20 DUP1 SWAP2 DIV MUL PUSH1 0x20 ADD PUSH1 0x40 MLOAD SWAP1 DUP2 ADD PUSH1 0x40 MSTORE DUP1 SWAP3 SWAP2 SWAP1 DUP2 DUP2 MSTORE PUSH1 0x20 ADD DUP3 DUP1 SLOAD PUSH2 0x10A4 SWAP1 PUSH2 0x4CC5 JUMP JUMPDEST DUP1 ISZERO PUSH2 0x10F1 JUMPI DUP1 PUSH1 0x1F LT PUSH2 0x10C6 JUMPI PUSH2 0x100 DUP1 DUP4 SLOAD DIV MUL DUP4 MSTORE SWAP2 PUSH1 0x20 ADD SWAP2 PUSH2 0x10F1 JUMP JUMPDEST DUP3 ADD SWAP2 SWAP1 PUSH1 0x0 MSTORE PUSH1 0x20 PUSH1 0x0 KECCAK256 SWAP1 JUMPDEST DUP2 SLOAD DUP2 MSTORE SWAP1 PUSH1 0x1 ADD SWAP1 PUSH1 0x20 ADD DUP1 DUP4 GT PUSH2 0x10D4 JUMPI DUP3 SWAP1 SUB PUSH1 0x1F AND DUP3 ADD SWAP2 JUMPDEST POP POP POP POP POP DUP2 MSTORE PUSH1 0x20 ADD PUSH1 0x3 DUP3 ADD DUP1 SLOAD DUP1 PUSH1 0x20 MUL PUSH1 0x20 ADD PUSH1 0x40 MLOAD SWAP1 DUP2 ADD PUSH1 0x40 MSTORE DUP1 SWAP3 SWAP2 SWAP1 DUP2 DUP2 MSTORE PUSH1 0x20 ADD DUP3 DUP1 SLOAD DUP1 ISZERO PUSH2 0x117F JUMPI PUSH1 0x20 MUL DUP3 ADD SWAP2 SWAP1 PUSH1 0x0 MSTORE PUSH1 0x20 PUSH1 0x0 KECCAK256 SWAP1 JUMPDEST DUP2 PUSH1 0x0 SWAP1 SLOAD SWAP1 PUSH2 0x100 EXP SWAP1 DIV PUSH20 0xFFFFFFFFFFFFFFFFFFFFFFFFFFFFFFFFFFFFFFFF AND PUSH20 0xFFFFFFFFFFFFFFFFFFFFFFFFFFFFFFFFFFFFFFFF AND DUP2 MSTORE PUSH1 0x20 ADD SWAP1 PUSH1 0x1 ADD SWAP1 DUP1 DUP4 GT PUSH2 0x1135 JUMPI JUMPDEST POP POP POP POP POP DUP2 MSTORE PUSH1 0x20 ADD PUSH1 0x4 DUP3 ADD DUP1 SLOAD DUP1 PUSH1 0x20 MUL PUSH1 0x20 ADD PUSH1 0x40 MLOAD SWAP1 DUP2 ADD PUSH1 0x40 MSTORE DUP1 SWAP3 SWAP2 SWAP1 DUP2 DUP2 MSTORE PUSH1 0x20 ADD DUP3 DUP1 SLOAD DUP1 ISZERO PUSH2 0x120D JUMPI PUSH1 0x20 MUL DUP3 ADD SWAP2 SWAP1 PUSH1 0x0 MSTORE PUSH1 0x20 PUSH1 0x0 KECCAK256 SWAP1 JUMPDEST DUP2 PUSH1 0x0 SWAP1 SLOAD SWAP1 PUSH2 0x100 EXP SWAP1 DIV PUSH20 0xFFFFFFFFFFFFFFFFFFFFFFFFFFFFFFFFFFFFFFFF AND PUSH20 0xFFFFFFFFFFFFFFFFFFFFFFFFFFFFFFFFFFFFFFFF AND DUP2 MSTORE PUSH1 0x20 ADD SWAP1 PUSH1 0x1 ADD SWAP1 DUP1 DUP4 GT PUSH2 0x11C3 JUMPI JUMPDEST POP POP POP POP POP DUP2 MSTORE PUSH1 0x20 ADD PUSH1 0x5 DUP3 ADD SLOAD DUP2 MSTORE POP POP SWAP1 POP DUP1 PUSH1 0x0 ADD MLOAD SWAP7 POP DUP1 PUSH1 0x20 ADD MLOAD SWAP6 POP DUP1 PUSH1 0x40 ADD MLOAD SWAP5 POP DUP1 PUSH1 0x60 ADD MLOAD MLOAD SWAP4 POP DUP1 PUSH1 0x80 ADD MLOAD MLOAD SWAP3 POP DUP1 PUSH1 0xA0 ADD MLOAD SWAP2 POP POP SWAP2 SWAP4 SWAP6 POP SWAP2 SWAP4 SWAP6 JUMP JUMPDEST PUSH1 0x0 PUSH1 0x60 DUP3 PUSH1 0x0 PUSH20 0xFFFFFFFFFFFFFFFFFFFFFFFFFFFFFFFFFFFFFFFF AND PUSH1 0x1 DUP3 PUSH1 0x40 MLOAD PUSH2 0x1285 SWAP2 SWAP1 PUSH2 0x47D8 JUMP JUMPDEST SWAP1 DUP2 MSTORE PUSH1 0x20 ADD PUSH1 0x40 MLOAD DUP1 SWAP2 SUB SWAP1 KECCAK256 PUSH1 0x0 SWAP1 SLOAD SWAP1 PUSH2 0x100 EXP SWAP1 DIV PUSH20 0xFFFFFFFFFFFFFFFFFFFFFFFFFFFFFFFFFFFFFFFF AND PUSH20 0xFFFFFFFFFFFFFFFFFFFFFFFFFFFFFFFFFFFFFFFF AND EQ ISZERO PUSH2 0x130B JUMPI PUSH1 0x40 MLOAD PUSH32 0x8C379A000000000000000000000000000000000000000000000000000000000 DUP2 MSTORE PUSH1 0x4 ADD PUSH2 0x1302 SWAP1 PUSH2 0x4AFF JUMP JUMPDEST PUSH1 0x40 MLOAD DUP1 SWAP2 SUB SWAP1 REVERT JUMPDEST PUSH1 0x0 PUSH1 0x1 DUP6 PUSH1 0x40 MLOAD PUSH2 0x131D SWAP2 SWAP1 PUSH2 0x47D8 JUMP JUMPDEST SWAP1 DUP2 MSTORE PUSH1 0x20 ADD PUSH1 0x40 MLOAD DUP1 SWAP2 SUB SWAP1 KECCAK256 PUSH1 0x0 SWAP1 SLOAD SWAP1 PUSH2 0x100 EXP SWAP1 DIV PUSH20 0xFFFFFFFFFFFFFFFFFFFFFFFFFFFFFFFFFFFFFFFF AND SWAP1 POP PUSH1 0x0 PUSH1 0x2 PUSH1 0x0 DUP4 PUSH20 0xFFFFFFFFFFFFFFFFFFFFFFFFFFFFFFFFFFFFFFFF AND PUSH20 0xFFFFFFFFFFFFFFFFFFFFFFFFFFFFFFFFFFFFFFFF AND DUP2 MSTORE PUSH1 0x20 ADD SWAP1 DUP2 MSTORE PUSH1 0x20 ADD PUSH1 0x0 KECCAK256 PUSH1 0x40 MLOAD DUP1 PUSH1 0x80 ADD PUSH1 0x40 MSTORE SWAP1 DUP2 PUSH1 0x0 DUP3 ADD SLOAD DUP2 MSTORE PUSH1 0x20 ADD PUSH1 0x1 DUP3 ADD DUP1 SLOAD PUSH2 0x13B4 SWAP1 PUSH2 0x4CC5 JUMP JUMPDEST DUP1 PUSH1 0x1F ADD PUSH1 0x20 DUP1 SWAP2 DIV MUL PUSH1 0x20 ADD PUSH1 0x40 MLOAD SWAP1 DUP2 ADD PUSH1 0x40 MSTORE DUP1 SWAP3 SWAP2 SWAP1 DUP2 DUP2 MSTORE PUSH1 0x20 ADD DUP3 DUP1 SLOAD PUSH2 0x13E0 SWAP1 PUSH2 0x4CC5 JUMP JUMPDEST DUP1 ISZERO PUSH2 0x142D JUMPI DUP1 PUSH1 0x1F LT PUSH2 0x1402 JUMPI PUSH2 0x100 DUP1 DUP4 SLOAD DIV MUL DUP4 MSTORE SWAP2 PUSH1 0x20 ADD SWAP2 PUSH2 0x142D JUMP JUMPDEST DUP3 ADD SWAP2 SWAP1 PUSH1 0x0 MSTORE PUSH1 0x20 PUSH1 0x0 KECCAK256 SWAP1 JUMPDEST DUP2 SLOAD DUP2 MSTORE SWAP1 PUSH1 0x1 ADD SWAP1 PUSH1 0x20 ADD DUP1 DUP4 GT PUSH2 0x1410 JUMPI DUP3 SWAP1 SUB PUSH1 0x1F AND DUP3 ADD SWAP2 JUMPDEST POP POP POP POP POP DUP2 MSTORE PUSH1 0x20 ADD PUSH1 0x2 DUP3 ADD DUP1 SLOAD PUSH2 0x1446 SWAP1 PUSH2 0x4CC5 JUMP JUMPDEST DUP1 PUSH1 0x1F ADD PUSH1 0x20 DUP1 SWAP2 DIV MUL PUSH1 0x20 ADD PUSH1 0x40 MLOAD SWAP1 DUP2 ADD PUSH1 0x40 MSTORE DUP1 SWAP3 SWAP2 SWAP1 DUP2 DUP2 MSTORE PUSH1 0x20 ADD DUP3 DUP1 SLOAD PUSH2 0x1472 SWAP1 PUSH2 0x4CC5 JUMP JUMPDEST DUP1 ISZERO PUSH2 0x14BF JUMPI DUP1 PUSH1 0x1F LT PUSH2 0x1494 JUMPI PUSH2 0x100 DUP1 DUP4 SLOAD DIV MUL DUP4 MSTORE SWAP2 PUSH1 0x20 ADD SWAP2 PUSH2 0x14BF JUMP JUMPDEST DUP3 ADD SWAP2 SWAP1 PUSH1 0x0 MSTORE PUSH1 0x20 PUSH1 0x0 KECCAK256 SWAP1 JUMPDEST DUP2 SLOAD DUP2 MSTORE SWAP1 PUSH1 0x1 ADD SWAP1 PUSH1 0x20 ADD DUP1 DUP4 GT PUSH2 0x14A2 JUMPI DUP3 SWAP1 SUB PUSH1 0x1F AND DUP3 ADD SWAP2 JUMPDEST POP POP POP POP POP DUP2 MSTORE PUSH1 0x20 ADD PUSH1 0x3 DUP3 ADD DUP1 SLOAD DUP1 PUSH1 0x20 MUL PUSH1 0x20 ADD PUSH1 0x40 MLOAD SWAP1 DUP2 ADD PUSH1 0x40 MSTORE DUP1 SWAP3 SWAP2 SWAP1 DUP2 DUP2 MSTORE PUSH1 0x20 ADD PUSH1 0x0 SWAP1 JUMPDEST DUP3 DUP3 LT ISZERO PUSH2 0x1599 JUMPI DUP4 DUP3 SWAP1 PUSH1 0x0 MSTORE PUSH1 0x20 PUSH1 0x0 KECCAK256 ADD DUP1 SLOAD PUSH2 0x150C SWAP1 PUSH2 0x4CC5 JUMP JUMPDEST DUP1 PUSH1 0x1F ADD PUSH1 0x20 DUP1 SWAP2 DIV MUL PUSH1 0x20 ADD PUSH1 0x40 MLOAD SWAP1 DUP2 ADD PUSH1 0x40 MSTORE DUP1 SWAP3 SWAP2 SWAP1 DUP2 DUP2 MSTORE PUSH1 0x20 ADD DUP3 DUP1 SLOAD PUSH2 0x1538 SWAP1 PUSH2 0x4CC5 JUMP JUMPDEST DUP1 ISZERO PUSH2 0x1585 JUMPI DUP1 PUSH1 0x1F LT PUSH2 0x155A JUMPI PUSH2 0x100 DUP1 DUP4 SLOAD DIV MUL DUP4 MSTORE SWAP2 PUSH1 0x20 ADD SWAP2 PUSH2 0x1585 JUMP JUMPDEST DUP3 ADD SWAP2 SWAP1 PUSH1 0x0 MSTORE PUSH1 0x20 PUSH1 0x0 KECCAK256 SWAP1 JUMPDEST DUP2 SLOAD DUP2 MSTORE SWAP1 PUSH1 0x1 ADD SWAP1 PUSH1 0x20 ADD DUP1 DUP4 GT PUSH2 0x1568 JUMPI DUP3 SWAP1 SUB PUSH1 0x1F AND DUP3 ADD SWAP2 JUMPDEST POP POP POP POP POP DUP2 MSTORE PUSH1 0x20 ADD SWAP1 PUSH1 0x1 ADD SWAP1 PUSH2 0x14ED JUMP JUMPDEST POP POP POP POP DUP2 MSTORE POP POP SWAP1 POP DUP2 SWAP5 POP PUSH1 0x0 DUP1 DUP3 PUSH1 0x0 ADD MLOAD DUP2 MSTORE PUSH1 0x20 ADD SWAP1 DUP2 MSTORE PUSH1 0x20 ADD PUSH1 0x0 KECCAK256 DUP1 SLOAD PUSH2 0x15C7 SWAP1 PUSH2 0x4CC5 JUMP JUMPDEST DUP1 PUSH1 0x1F ADD PUSH1 0x20 DUP1 SWAP2 DIV MUL PUSH1 0x20 ADD PUSH1 0x40 MLOAD SWAP1 DUP2 ADD PUSH1 0x40 MSTORE DUP1 SWAP3 SWAP2 SWAP1 DUP2 DUP2 MSTORE PUSH1 0x20 ADD DUP3 DUP1 SLOAD PUSH2 0x15F3 SWAP1 PUSH2 0x4CC5 JUMP JUMPDEST DUP1 ISZERO PUSH2 0x1640 JUMPI DUP1 PUSH1 0x1F LT PUSH2 0x1615 JUMPI PUSH2 0x100 DUP1 DUP4 SLOAD DIV MUL DUP4 MSTORE SWAP2 PUSH1 0x20 ADD SWAP2 PUSH2 0x1640 JUMP JUMPDEST DUP3 ADD SWAP2 SWAP1 PUSH1 0x0 MSTORE PUSH1 0x20 PUSH1 0x0 KECCAK256 SWAP1 JUMPDEST DUP2 SLOAD DUP2 MSTORE SWAP1 PUSH1 0x1 ADD SWAP1 PUSH1 0x20 ADD DUP1 DUP4 GT PUSH2 0x1623 JUMPI DUP3 SWAP1 SUB PUSH1 0x1F AND DUP3 ADD SWAP2 JUMPDEST POP POP POP POP POP SWAP4 POP POP POP POP SWAP2 POP SWAP2 JUMP JUMPDEST PUSH1 0x3 PUSH1 0x2 PUSH1 0x0 CALLER PUSH20 0xFFFFFFFFFFFFFFFFFFFFFFFFFFFFFFFFFFFFFFFF AND PUSH20 0xFFFFFFFFFFFFFFFFFFFFFFFFFFFFFFFFFFFFFFFF AND DUP2 MSTORE PUSH1 0x20 ADD SWAP1 DUP2 MSTORE PUSH1 0x20 ADD PUSH1 0x0 KECCAK256 PUSH1 0x0 ADD SLOAD DUP2 PUSH1 0x5 DUP2 GT ISZERO PUSH2 0x16A7 JUMPI PUSH2 0x16A6 PUSH2 0x4DA0 JUMP JUMPDEST JUMPDEST EQ PUSH2 0x16E7 JUMPI PUSH1 0x40 MLOAD PUSH32 0x8C379A000000000000000000000000000000000000000000000000000000000 DUP2 MSTORE PUSH1 0x4 ADD PUSH2 0x16DE SWAP1 PUSH2 0x4A7F JUMP JUMPDEST PUSH1 0x40 MLOAD DUP1 SWAP2 SUB SWAP1 REVERT JUMPDEST PUSH1 0x0 PUSH1 0x40 MLOAD DUP1 PUSH1 0x60 ADD PUSH1 0x40 MSTORE DUP1 DUP6 DUP2 MSTORE PUSH1 0x20 ADD DUP5 DUP2 MSTORE PUSH1 0x20 ADD PUSH1 0x0 DUP2 MSTORE POP SWAP1 POP DUP1 PUSH1 0xA PUSH1 0x0 DUP8 PUSH20 0xFFFFFFFFFFFFFFFFFFFFFFFFFFFFFFFFFFFFFFFF AND PUSH20 0xFFFFFFFFFFFFFFFFFFFFFFFFFFFFFFFFFFFFFFFF AND DUP2 MSTORE PUSH1 0x20 ADD SWAP1 DUP2 MSTORE PUSH1 0x20 ADD PUSH1 0x0 KECCAK256 PUSH1 0x0 DUP3 ADD MLOAD DUP2 PUSH1 0x0 ADD SWAP1 DUP1 MLOAD SWAP1 PUSH1 0x20 ADD SWAP1 PUSH2 0x1763 SWAP3 SWAP2 SWAP1 PUSH2 0x3DE5 JUMP JUMPDEST POP PUSH1 0x20 DUP3 ADD MLOAD DUP2 PUSH1 0x1 ADD SWAP1 DUP1 MLOAD SWAP1 PUSH1 0x20 ADD SWAP1 PUSH2 0x1780 SWAP3 SWAP2 SWAP1 PUSH2 0x3DE5 JUMP JUMPDEST POP PUSH1 0x40 DUP3 ADD MLOAD DUP2 PUSH1 0x2 ADD SSTORE SWAP1 POP POP POP POP POP POP POP JUMP JUMPDEST PUSH1 0x60 DUP1 PUSH1 0x60 DUP1 PUSH1 0x60 PUSH1 0x1 PUSH1 0x2 PUSH1 0x0 CALLER PUSH20 0xFFFFFFFFFFFFFFFFFFFFFFFFFFFFFFFFFFFFFFFF AND PUSH20 0xFFFFFFFFFFFFFFFFFFFFFFFFFFFFFFFFFFFFFFFF AND DUP2 MSTORE PUSH1 0x20 ADD SWAP1 DUP2 MSTORE PUSH1 0x20 ADD PUSH1 0x0 KECCAK256 PUSH1 0x0 ADD SLOAD DUP2 PUSH1 0x5 DUP2 GT ISZERO PUSH2 0x17F5 JUMPI PUSH2 0x17F4 PUSH2 0x4DA0 JUMP JUMPDEST JUMPDEST EQ PUSH2 0x1835 JUMPI PUSH1 0x40 MLOAD PUSH32 0x8C379A000000000000000000000000000000000000000000000000000000000 DUP2 MSTORE PUSH1 0x4 ADD PUSH2 0x182C SWAP1 PUSH2 0x4A7F JUMP JUMPDEST PUSH1 0x40 MLOAD DUP1 SWAP2 SUB SWAP1 REVERT JUMPDEST PUSH1 0x0 PUSH1 0x2 PUSH1 0x0 CALLER PUSH20 0xFFFFFFFFFFFFFFFFFFFFFFFFFFFFFFFFFFFFFFFF AND PUSH20 0xFFFFFFFFFFFFFFFFFFFFFFFFFFFFFFFFFFFFFFFF AND DUP2 MSTORE PUSH1 0x20 ADD SWAP1 DUP2 MSTORE PUSH1 0x20 ADD PUSH1 0x0 KECCAK256 PUSH1 0x40 MLOAD DUP1 PUSH1 0x80 ADD PUSH1 0x40 MSTORE SWAP1 DUP2 PUSH1 0x0 DUP3 ADD SLOAD DUP2 MSTORE PUSH1 0x20 ADD PUSH1 0x1 DUP3 ADD DUP1 SLOAD PUSH2 0x189B SWAP1 PUSH2 0x4CC5 JUMP JUMPDEST DUP1 PUSH1 0x1F ADD PUSH1 0x20 DUP1 SWAP2 DIV MUL PUSH1 0x20 ADD PUSH1 0x40 MLOAD SWAP1 DUP2 ADD PUSH1 0x40 MSTORE DUP1 SWAP3 SWAP2 SWAP1 DUP2 DUP2 MSTORE PUSH1 0x20 ADD DUP3 DUP1 SLOAD PUSH2 0x18C7 SWAP1 PUSH2 0x4CC5 JUMP JUMPDEST DUP1 ISZERO PUSH2 0x1914 JUMPI DUP1 PUSH1 0x1F LT PUSH2 0x18E9 JUMPI PUSH2 0x100 DUP1 DUP4 SLOAD DIV MUL DUP4 MSTORE SWAP2 PUSH1 0x20 ADD SWAP2 PUSH2 0x1914 JUMP JUMPDEST DUP3 ADD SWAP2 SWAP1 PUSH1 0x0 MSTORE PUSH1 0x20 PUSH1 0x0 KECCAK256 SWAP1 JUMPDEST DUP2 SLOAD DUP2 MSTORE SWAP1 PUSH1 0x1 ADD SWAP1 PUSH1 0x20 ADD DUP1 DUP4 GT PUSH2 0x18F7 JUMPI DUP3 SWAP1 SUB PUSH1 0x1F AND DUP3 ADD SWAP2 JUMPDEST POP POP POP POP POP DUP2 MSTORE PUSH1 0x20 ADD PUSH1 0x2 DUP3 ADD DUP1 SLOAD PUSH2 0x192D SWAP1 PUSH2 0x4CC5 JUMP JUMPDEST DUP1 PUSH1 0x1F ADD PUSH1 0x20 DUP1 SWAP2 DIV MUL PUSH1 0x20 ADD PUSH1 0x40 MLOAD SWAP1 DUP2 ADD PUSH1 0x40 MSTORE DUP1 SWAP3 SWAP2 SWAP1 DUP2 DUP2 MSTORE PUSH1 0x20 ADD DUP3 DUP1 SLOAD PUSH2 0x1959 SWAP1 PUSH2 0x4CC5 JUMP JUMPDEST DUP1 ISZERO PUSH2 0x19A6 JUMPI DUP1 PUSH1 0x1F LT PUSH2 0x197B JUMPI PUSH2 0x100 DUP1 DUP4 SLOAD DIV MUL DUP4 MSTORE SWAP2 PUSH1 0x20 ADD SWAP2 PUSH2 0x19A6 JUMP JUMPDEST DUP3 ADD SWAP2 SWAP1 PUSH1 0x0 MSTORE PUSH1 0x20 PUSH1 0x0 KECCAK256 SWAP1 JUMPDEST DUP2 SLOAD DUP2 MSTORE SWAP1 PUSH1 0x1 ADD SWAP1 PUSH1 0x20 ADD DUP1 DUP4 GT PUSH2 0x1989 JUMPI DUP3 SWAP1 SUB PUSH1 0x1F AND DUP3 ADD SWAP2 JUMPDEST POP POP POP POP POP DUP2 MSTORE PUSH1 0x20 ADD PUSH1 0x3 DUP3 ADD DUP1 SLOAD DUP1 PUSH1 0x20 MUL PUSH1 0x20 ADD PUSH1 0x40 MLOAD SWAP1 DUP2 ADD PUSH1 0x40 MSTORE DUP1 SWAP3 SWAP2 SWAP1 DUP2 DUP2 MSTORE PUSH1 0x20 ADD PUSH1 0x0 SWAP1 JUMPDEST DUP3 DUP3 LT ISZERO PUSH2 0x1A80 JUMPI DUP4 DUP3 SWAP1 PUSH1 0x0 MSTORE PUSH1 0x20 PUSH1 0x0 KECCAK256 ADD DUP1 SLOAD PUSH2 0x19F3 SWAP1 PUSH2 0x4CC5 JUMP JUMPDEST DUP1 PUSH1 0x1F ADD PUSH1 0x20 DUP1 SWAP2 DIV MUL PUSH1 0x20 ADD PUSH1 0x40 MLOAD SWAP1 DUP2 ADD PUSH1 0x40 MSTORE DUP1 SWAP3 SWAP2 SWAP1 DUP2 DUP2 MSTORE PUSH1 0x20 ADD DUP3 DUP1 SLOAD PUSH2 0x1A1F SWAP1 PUSH2 0x4CC5 JUMP JUMPDEST DUP1 ISZERO PUSH2 0x1A6C JUMPI DUP1 PUSH1 0x1F LT PUSH2 0x1A41 JUMPI PUSH2 0x100 DUP1 DUP4 SLOAD DIV MUL DUP4 MSTORE SWAP2 PUSH1 0x20 ADD SWAP2 PUSH2 0x1A6C JUMP JUMPDEST DUP3 ADD SWAP2 SWAP1 PUSH1 0x0 MSTORE PUSH1 0x20 PUSH1 0x0 KECCAK256 SWAP1 JUMPDEST DUP2 SLOAD DUP2 MSTORE SWAP1 PUSH1 0x1 ADD SWAP1 PUSH1 0x20 ADD DUP1 DUP4 GT PUSH2 0x1A4F JUMPI DUP3 SWAP1 SUB PUSH1 0x1F AND DUP3 ADD SWAP2 JUMPDEST POP POP POP POP POP DUP2 MSTORE PUSH1 0x20 ADD SWAP1 PUSH1 0x1 ADD SWAP1 PUSH2 0x19D4 JUMP JUMPDEST POP POP POP POP DUP2 MSTORE POP POP SWAP1 POP PUSH1 0x0 PUSH1 0xB PUSH1 0x0 CALLER PUSH20 0xFFFFFFFFFFFFFFFFFFFFFFFFFFFFFFFFFFFFFFFF AND PUSH20 0xFFFFFFFFFFFFFFFFFFFFFFFFFFFFFFFFFFFFFFFF AND DUP2 MSTORE PUSH1 0x20 ADD SWAP1 DUP2 MSTORE PUSH1 0x20 ADD PUSH1 0x0 KECCAK256 PUSH1 0x0 SWAP1 SLOAD SWAP1 PUSH2 0x100 EXP SWAP1 DIV PUSH20 0xFFFFFFFFFFFFFFFFFFFFFFFFFFFFFFFFFFFFFFFF AND SWAP1 POP PUSH1 0x0 PUSH1 0xA PUSH1 0x0 DUP4 PUSH20 0xFFFFFFFFFFFFFFFFFFFFFFFFFFFFFFFFFFFFFFFF AND PUSH20 0xFFFFFFFFFFFFFFFFFFFFFFFFFFFFFFFFFFFFFFFF AND DUP2 MSTORE PUSH1 0x20 ADD SWAP1 DUP2 MSTORE PUSH1 0x20 ADD PUSH1 0x0 KECCAK256 PUSH1 0x40 MLOAD DUP1 PUSH1 0x60 ADD PUSH1 0x40 MSTORE SWAP1 DUP2 PUSH1 0x0 DUP3 ADD DUP1 SLOAD PUSH2 0x1B4A SWAP1 PUSH2 0x4CC5 JUMP JUMPDEST DUP1 PUSH1 0x1F ADD PUSH1 0x20 DUP1 SWAP2 DIV MUL PUSH1 0x20 ADD PUSH1 0x40 MLOAD SWAP1 DUP2 ADD PUSH1 0x40 MSTORE DUP1 SWAP3 SWAP2 SWAP1 DUP2 DUP2 MSTORE PUSH1 0x20 ADD DUP3 DUP1 SLOAD PUSH2 0x1B76 SWAP1 PUSH2 0x4CC5 JUMP JUMPDEST DUP1 ISZERO PUSH2 0x1BC3 JUMPI DUP1 PUSH1 0x1F LT PUSH2 0x1B98 JUMPI PUSH2 0x100 DUP1 DUP4 SLOAD DIV MUL DUP4 MSTORE SWAP2 PUSH1 0x20 ADD SWAP2 PUSH2 0x1BC3 JUMP JUMPDEST DUP3 ADD SWAP2 SWAP1 PUSH1 0x0 MSTORE PUSH1 0x20 PUSH1 0x0 KECCAK256 SWAP1 JUMPDEST DUP2 SLOAD DUP2 MSTORE SWAP1 PUSH1 0x1 ADD SWAP1 PUSH1 0x20 ADD DUP1 DUP4 GT PUSH2 0x1BA6 JUMPI DUP3 SWAP1 SUB PUSH1 0x1F AND DUP3 ADD SWAP2 JUMPDEST POP POP POP POP POP DUP2 MSTORE PUSH1 0x20 ADD PUSH1 0x1 DUP3 ADD DUP1 SLOAD PUSH2 0x1BDC SWAP1 PUSH2 0x4CC5 JUMP JUMPDEST DUP1 PUSH1 0x1F ADD PUSH1 0x20 DUP1 SWAP2 DIV MUL PUSH1 0x20 ADD PUSH1 0x40 MLOAD SWAP1 DUP2 ADD PUSH1 0x40 MSTORE DUP1 SWAP3 SWAP2 SWAP1 DUP2 DUP2 MSTORE PUSH1 0x20 ADD DUP3 DUP1 SLOAD PUSH2 0x1C08 SWAP1 PUSH2 0x4CC5 JUMP JUMPDEST DUP1 ISZERO PUSH2 0x1C55 JUMPI DUP1 PUSH1 0x1F LT PUSH2 0x1C2A JUMPI PUSH2 0x100 DUP1 DUP4 SLOAD DIV MUL DUP4 MSTORE SWAP2 PUSH1 0x20 ADD SWAP2 PUSH2 0x1C55 JUMP JUMPDEST DUP3 ADD SWAP2 SWAP1 PUSH1 0x0 MSTORE PUSH1 0x20 PUSH1 0x0 KECCAK256 SWAP1 JUMPDEST DUP2 SLOAD DUP2 MSTORE SWAP1 PUSH1 0x1 ADD SWAP1 PUSH1 0x20 ADD DUP1 DUP4 GT PUSH2 0x1C38 JUMPI DUP3 SWAP1 SUB PUSH1 0x1F AND DUP3 ADD SWAP2 JUMPDEST POP POP POP POP POP DUP2 MSTORE PUSH1 0x20 ADD PUSH1 0x2 DUP3 ADD SLOAD DUP2 MSTORE POP POP SWAP1 POP DUP3 PUSH1 0x20 ADD MLOAD SWAP9 POP DUP3 PUSH1 0x40 ADD MLOAD SWAP8 POP DUP1 PUSH1 0x20 ADD MLOAD SWAP7 POP DUP1 PUSH1 0x0 ADD MLOAD SWAP6 POP DUP3 PUSH1 0x60 ADD MLOAD SWAP5 POP POP POP POP POP SWAP1 SWAP2 SWAP3 SWAP4 SWAP5 JUMP JUMPDEST PUSH2 0x1D7B PUSH1 0x2 PUSH1 0x0 CALLER PUSH20 0xFFFFFFFFFFFFFFFFFFFFFFFFFFFFFFFFFFFFFFFF AND PUSH20 0xFFFFFFFFFFFFFFFFFFFFFFFFFFFFFFFFFFFFFFFF AND DUP2 MSTORE PUSH1 0x20 ADD SWAP1 DUP2 MSTORE PUSH1 0x20 ADD PUSH1 0x0 KECCAK256 PUSH1 0x1 ADD DUP1 SLOAD PUSH2 0x1CE8 SWAP1 PUSH2 0x4CC5 JUMP JUMPDEST DUP1 PUSH1 0x1F ADD PUSH1 0x20 DUP1 SWAP2 DIV MUL PUSH1 0x20 ADD PUSH1 0x40 MLOAD SWAP1 DUP2 ADD PUSH1 0x40 MSTORE DUP1 SWAP3 SWAP2 SWAP1 DUP2 DUP2 MSTORE PUSH1 0x20 ADD DUP3 DUP1 SLOAD PUSH2 0x1D14 SWAP1 PUSH2 0x4CC5 JUMP JUMPDEST DUP1 ISZERO PUSH2 0x1D61 JUMPI DUP1 PUSH1 0x1F LT PUSH2 0x1D36 JUMPI PUSH2 0x100 DUP1 DUP4 SLOAD DIV MUL DUP4 MSTORE SWAP2 PUSH1 0x20 ADD SWAP2 PUSH2 0x1D61 JUMP JUMPDEST DUP3 ADD SWAP2 SWAP1 PUSH1 0x0 MSTORE PUSH1 0x20 PUSH1 0x0 KECCAK256 SWAP1 JUMPDEST DUP2 SLOAD DUP2 MSTORE SWAP1 PUSH1 0x1 ADD SWAP1 PUSH1 0x20 ADD DUP1 DUP4 GT PUSH2 0x1D44 JUMPI DUP3 SWAP1 SUB PUSH1 0x1F AND DUP3 ADD SWAP2 JUMPDEST POP POP POP POP POP PUSH1 0x40 MLOAD DUP1 PUSH1 0x20 ADD PUSH1 0x40 MSTORE DUP1 PUSH1 0x0 DUP2 MSTORE POP PUSH2 0x3D8C JUMP JUMPDEST ISZERO PUSH2 0x1DBB JUMPI PUSH1 0x40 MLOAD PUSH32 0x8C379A000000000000000000000000000000000000000000000000000000000 DUP2 MSTORE PUSH1 0x4 ADD PUSH2 0x1DB2 SWAP1 PUSH2 0x4A9F JUMP JUMPDEST PUSH1 0x40 MLOAD DUP1 SWAP2 SUB SWAP1 REVERT JUMPDEST PUSH1 0x0 ISZERO ISZERO PUSH1 0x10 DUP3 PUSH1 0x40 MLOAD PUSH2 0x1DCF SWAP2 SWAP1 PUSH2 0x47D8 JUMP JUMPDEST SWAP1 DUP2 MSTORE PUSH1 0x20 ADD PUSH1 0x40 MLOAD DUP1 SWAP2 SUB SWAP1 KECCAK256 PUSH1 0x0 CALLER PUSH20 0xFFFFFFFFFFFFFFFFFFFFFFFFFFFFFFFFFFFFFFFF AND PUSH20 0xFFFFFFFFFFFFFFFFFFFFFFFFFFFFFFFFFFFFFFFF AND DUP2 MSTORE PUSH1 0x20 ADD SWAP1 DUP2 MSTORE PUSH1 0x20 ADD PUSH1 0x0 KECCAK256 PUSH1 0x0 SWAP1 SLOAD SWAP1 PUSH2 0x100 EXP SWAP1 DIV PUSH1 0xFF AND ISZERO ISZERO EQ PUSH2 0x1E6A JUMPI PUSH1 0x40 MLOAD PUSH32 0x8C379A000000000000000000000000000000000000000000000000000000000 DUP2 MSTORE PUSH1 0x4 ADD PUSH2 0x1E61 SWAP1 PUSH2 0x4A1F JUMP JUMPDEST PUSH1 0x40 MLOAD DUP1 SWAP2 SUB SWAP1 REVERT JUMPDEST PUSH1 0xE DUP2 PUSH1 0x40 MLOAD PUSH2 0x1E7A SWAP2 SWAP1 PUSH2 0x47D8 JUMP JUMPDEST SWAP1 DUP2 MSTORE PUSH1 0x20 ADD PUSH1 0x40 MLOAD DUP1 SWAP2 SUB SWAP1 KECCAK256 PUSH1 0x3 ADD CALLER SWAP1 DUP1 PUSH1 0x1 DUP2 SLOAD ADD DUP1 DUP3 SSTORE DUP1 SWAP2 POP POP PUSH1 0x1 SWAP1 SUB SWAP1 PUSH1 0x0 MSTORE PUSH1 0x20 PUSH1 0x0 KECCAK256 ADD PUSH1 0x0 SWAP1 SWAP2 SWAP1 SWAP2 SWAP1 SWAP2 PUSH2 0x100 EXP DUP2 SLOAD DUP2 PUSH20 0xFFFFFFFFFFFFFFFFFFFFFFFFFFFFFFFFFFFFFFFF MUL NOT AND SWAP1 DUP4 PUSH20 0xFFFFFFFFFFFFFFFFFFFFFFFFFFFFFFFFFFFFFFFF AND MUL OR SWAP1 SSTORE POP PUSH1 0x1 PUSH1 0x10 DUP3 PUSH1 0x40 MLOAD PUSH2 0x1EFE SWAP2 SWAP1 PUSH2 0x47D8 JUMP JUMPDEST SWAP1 DUP2 MSTORE PUSH1 0x20 ADD PUSH1 0x40 MLOAD DUP1 SWAP2 SUB SWAP1 KECCAK256 PUSH1 0x0 CALLER PUSH20 0xFFFFFFFFFFFFFFFFFFFFFFFFFFFFFFFFFFFFFFFF AND PUSH20 0xFFFFFFFFFFFFFFFFFFFFFFFFFFFFFFFFFFFFFFFF AND DUP2 MSTORE PUSH1 0x20 ADD SWAP1 DUP2 MSTORE PUSH1 0x20 ADD PUSH1 0x0 KECCAK256 PUSH1 0x0 PUSH2 0x100 EXP DUP2 SLOAD DUP2 PUSH1 0xFF MUL NOT AND SWAP1 DUP4 ISZERO ISZERO MUL OR SWAP1 SSTORE POP POP JUMP JUMPDEST PUSH1 0x5 PUSH1 0x0 SWAP1 SLOAD SWAP1 PUSH2 0x100 EXP SWAP1 DIV PUSH20 0xFFFFFFFFFFFFFFFFFFFFFFFFFFFFFFFFFFFFFFFF AND PUSH20 0xFFFFFFFFFFFFFFFFFFFFFFFFFFFFFFFFFFFFFFFF AND CALLER PUSH20 0xFFFFFFFFFFFFFFFFFFFFFFFFFFFFFFFFFFFFFFFF AND EQ PUSH2 0x1FF3 JUMPI PUSH1 0x40 MLOAD PUSH32 0x8C379A000000000000000000000000000000000000000000000000000000000 DUP2 MSTORE PUSH1 0x4 ADD PUSH2 0x1FEA SWAP1 PUSH2 0x4ABF JUMP JUMPDEST PUSH1 0x40 MLOAD DUP1 SWAP2 SUB SWAP1 REVERT JUMPDEST PUSH1 0x0 PUSH1 0x4 PUSH1 0x5 DUP2 GT ISZERO PUSH2 0x2009 JUMPI PUSH2 0x2008 PUSH2 0x4DA0 JUMP JUMPDEST JUMPDEST SWAP1 POP PUSH2 0x2026 PUSH1 0x40 MLOAD DUP1 PUSH1 0x20 ADD PUSH1 0x40 MSTORE DUP1 PUSH1 0x0 DUP2 MSTORE POP DUP5 DUP4 DUP6 PUSH2 0x3A89 JUMP JUMPDEST DUP2 PUSH1 0x4 PUSH1 0x0 PUSH2 0x100 EXP DUP2 SLOAD DUP2 PUSH20 0xFFFFFFFFFFFFFFFFFFFFFFFFFFFFFFFFFFFFFFFF MUL NOT AND SWAP1 DUP4 PUSH20 0xFFFFFFFFFFFFFFFFFFFFFFFFFFFFFFFFFFFFFFFF AND MUL OR SWAP1 SSTORE POP POP POP POP JUMP JUMPDEST PUSH1 0x5 PUSH1 0x2 PUSH1 0x0 CALLER PUSH20 0xFFFFFFFFFFFFFFFFFFFFFFFFFFFFFFFFFFFFFFFF AND PUSH20 0xFFFFFFFFFFFFFFFFFFFFFFFFFFFFFFFFFFFFFFFF AND DUP2 MSTORE PUSH1 0x20 ADD SWAP1 DUP2 MSTORE PUSH1 0x20 ADD PUSH1 0x0 KECCAK256 PUSH1 0x0 ADD SLOAD DUP2 PUSH1 0x5 DUP2 GT ISZERO PUSH2 0x20C4 JUMPI PUSH2 0x20C3 PUSH2 0x4DA0 JUMP JUMPDEST JUMPDEST EQ PUSH2 0x2104 JUMPI PUSH1 0x40 MLOAD PUSH32 0x8C379A000000000000000000000000000000000000000000000000000000000 DUP2 MSTORE PUSH1 0x4 ADD PUSH2 0x20FB SWAP1 PUSH2 0x4A7F JUMP JUMPDEST PUSH1 0x40 MLOAD DUP1 SWAP2 SUB SWAP1 REVERT JUMPDEST PUSH9 0x3635C9ADC5DEA00000 CALLER PUSH20 0xFFFFFFFFFFFFFFFFFFFFFFFFFFFFFFFFFFFFFFFF AND BALANCE LT ISZERO PUSH2 0x2167 JUMPI PUSH1 0x40 MLOAD PUSH32 0x8C379A000000000000000000000000000000000000000000000000000000000 DUP2 MSTORE PUSH1 0x4 ADD PUSH2 0x215E SWAP1 PUSH2 0x4A5F JUMP JUMPDEST PUSH1 0x40 MLOAD DUP1 SWAP2 SUB SWAP1 REVERT JUMPDEST DUP2 PUSH20 0xFFFFFFFFFFFFFFFFFFFFFFFFFFFFFFFFFFFFFFFF AND PUSH2 0x8FC PUSH9 0x3635C9ADC5DEA00000 SWAP1 DUP2 ISZERO MUL SWAP1 PUSH1 0x40 MLOAD PUSH1 0x0 PUSH1 0x40 MLOAD DUP1 DUP4 SUB DUP2 DUP6 DUP9 DUP9 CALL SWAP4 POP POP POP POP ISZERO DUP1 ISZERO PUSH2 0x21B6 JUMPI RETURNDATASIZE PUSH1 0x0 DUP1 RETURNDATACOPY RETURNDATASIZE PUSH1 0x0 REVERT JUMPDEST POP POP POP JUMP JUMPDEST PUSH1 0x0 PUSH1 0x1 PUSH1 0x5 DUP2 GT ISZERO PUSH2 0x21D1 JUMPI PUSH2 0x21D0 PUSH2 0x4DA0 JUMP JUMPDEST JUMPDEST SWAP1 POP PUSH2 0x21DF DUP6 DUP6 DUP4 DUP7 PUSH2 0x3A89 JUMP JUMPDEST PUSH1 0x8 DUP4 SWAP1 DUP1 PUSH1 0x1 DUP2 SLOAD ADD DUP1 DUP3 SSTORE DUP1 SWAP2 POP POP PUSH1 0x1 SWAP1 SUB SWAP1 PUSH1 0x0 MSTORE PUSH1 0x20 PUSH1 0x0 KECCAK256 ADD PUSH1 0x0 SWAP1 SWAP2 SWAP1 SWAP2 SWAP1 SWAP2 PUSH2 0x100 EXP DUP2 SLOAD DUP2 PUSH20 0xFFFFFFFFFFFFFFFFFFFFFFFFFFFFFFFFFFFFFFFF MUL NOT AND SWAP1 DUP4 PUSH20 0xFFFFFFFFFFFFFFFFFFFFFFFFFFFFFFFFFFFFFFFF AND MUL OR SWAP1 SSTORE POP PUSH1 0xC PUSH1 0x0 DUP4 PUSH20 0xFFFFFFFFFFFFFFFFFFFFFFFFFFFFFFFFFFFFFFFF AND PUSH20 0xFFFFFFFFFFFFFFFFFFFFFFFFFFFFFFFFFFFFFFFF AND DUP2 MSTORE PUSH1 0x20 ADD SWAP1 DUP2 MSTORE PUSH1 0x20 ADD PUSH1 0x0 KECCAK256 DUP4 SWAP1 DUP1 PUSH1 0x1 DUP2 SLOAD ADD DUP1 DUP3 SSTORE DUP1 SWAP2 POP POP PUSH1 0x1 SWAP1 SUB SWAP1 PUSH1 0x0 MSTORE PUSH1 0x20 PUSH1 0x0 KECCAK256 ADD PUSH1 0x0 SWAP1 SWAP2 SWAP1 SWAP2 SWAP1 SWAP2 PUSH2 0x100 EXP DUP2 SLOAD DUP2 PUSH20 0xFFFFFFFFFFFFFFFFFFFFFFFFFFFFFFFFFFFFFFFF MUL NOT AND SWAP1 DUP4 PUSH20 0xFFFFFFFFFFFFFFFFFFFFFFFFFFFFFFFFFFFFFFFF AND MUL OR SWAP1 SSTORE POP POP POP POP POP POP JUMP JUMPDEST PUSH1 0x60 DUP1 PUSH1 0x0 PUSH1 0x60 PUSH2 0x23D3 PUSH1 0x2 PUSH1 0x0 CALLER PUSH20 0xFFFFFFFFFFFFFFFFFFFFFFFFFFFFFFFFFFFFFFFF AND PUSH20 0xFFFFFFFFFFFFFFFFFFFFFFFFFFFFFFFFFFFFFFFF AND DUP2 MSTORE PUSH1 0x20 ADD SWAP1 DUP2 MSTORE PUSH1 0x20 ADD PUSH1 0x0 KECCAK256 PUSH1 0x1 ADD DUP1 SLOAD PUSH2 0x2340 SWAP1 PUSH2 0x4CC5 JUMP JUMPDEST DUP1 PUSH1 0x1F ADD PUSH1 0x20 DUP1 SWAP2 DIV MUL PUSH1 0x20 ADD PUSH1 0x40 MLOAD SWAP1 DUP2 ADD PUSH1 0x40 MSTORE DUP1 SWAP3 SWAP2 SWAP1 DUP2 DUP2 MSTORE PUSH1 0x20 ADD DUP3 DUP1 SLOAD PUSH2 0x236C SWAP1 PUSH2 0x4CC5 JUMP JUMPDEST DUP1 ISZERO PUSH2 0x23B9 JUMPI DUP1 PUSH1 0x1F LT PUSH2 0x238E JUMPI PUSH2 0x100 DUP1 DUP4 SLOAD DIV MUL DUP4 MSTORE SWAP2 PUSH1 0x20 ADD SWAP2 PUSH2 0x23B9 JUMP JUMPDEST DUP3 ADD SWAP2 SWAP1 PUSH1 0x0 MSTORE PUSH1 0x20 PUSH1 0x0 KECCAK256 SWAP1 JUMPDEST DUP2 SLOAD DUP2 MSTORE SWAP1 PUSH1 0x1 ADD SWAP1 PUSH1 0x20 ADD DUP1 DUP4 GT PUSH2 0x239C JUMPI DUP3 SWAP1 SUB PUSH1 0x1F AND DUP3 ADD SWAP2 JUMPDEST POP POP POP POP POP PUSH1 0x40 MLOAD DUP1 PUSH1 0x20 ADD PUSH1 0x40 MSTORE DUP1 PUSH1 0x0 DUP2 MSTORE POP PUSH2 0x3D8C JUMP JUMPDEST ISZERO PUSH2 0x2413 JUMPI PUSH1 0x40 MLOAD PUSH32 0x8C379A000000000000000000000000000000000000000000000000000000000 DUP2 MSTORE PUSH1 0x4 ADD PUSH2 0x240A SWAP1 PUSH2 0x4A9F JUMP JUMPDEST PUSH1 0x40 MLOAD DUP1 SWAP2 SUB SWAP1 REVERT JUMPDEST PUSH1 0x0 PUSH1 0x2 PUSH1 0x0 CALLER PUSH20 0xFFFFFFFFFFFFFFFFFFFFFFFFFFFFFFFFFFFFFFFF AND PUSH20 0xFFFFFFFFFFFFFFFFFFFFFFFFFFFFFFFFFFFFFFFF AND DUP2 MSTORE PUSH1 0x20 ADD SWAP1 DUP2 MSTORE PUSH1 0x20 ADD PUSH1 0x0 KECCAK256 PUSH1 0x40 MLOAD DUP1 PUSH1 0x80 ADD PUSH1 0x40 MSTORE SWAP1 DUP2 PUSH1 0x0 DUP3 ADD SLOAD DUP2 MSTORE PUSH1 0x20 ADD PUSH1 0x1 DUP3 ADD DUP1 SLOAD PUSH2 0x2479 SWAP1 PUSH2 0x4CC5 JUMP JUMPDEST DUP1 PUSH1 0x1F ADD PUSH1 0x20 DUP1 SWAP2 DIV MUL PUSH1 0x20 ADD PUSH1 0x40 MLOAD SWAP1 DUP2 ADD PUSH1 0x40 MSTORE DUP1 SWAP3 SWAP2 SWAP1 DUP2 DUP2 MSTORE PUSH1 0x20 ADD DUP3 DUP1 SLOAD PUSH2 0x24A5 SWAP1 PUSH2 0x4CC5 JUMP JUMPDEST DUP1 ISZERO PUSH2 0x24F2 JUMPI DUP1 PUSH1 0x1F LT PUSH2 0x24C7 JUMPI PUSH2 0x100 DUP1 DUP4 SLOAD DIV MUL DUP4 MSTORE SWAP2 PUSH1 0x20 ADD SWAP2 PUSH2 0x24F2 JUMP JUMPDEST DUP3 ADD SWAP2 SWAP1 PUSH1 0x0 MSTORE PUSH1 0x20 PUSH1 0x0 KECCAK256 SWAP1 JUMPDEST DUP2 SLOAD DUP2 MSTORE SWAP1 PUSH1 0x1 ADD SWAP1 PUSH1 0x20 ADD DUP1 DUP4 GT PUSH2 0x24D5 JUMPI DUP3 SWAP1 SUB PUSH1 0x1F AND DUP3 ADD SWAP2 JUMPDEST POP POP POP POP POP DUP2 MSTORE PUSH1 0x20 ADD PUSH1 0x2 DUP3 ADD DUP1 SLOAD PUSH2 0x250B SWAP1 PUSH2 0x4CC5 JUMP JUMPDEST DUP1 PUSH1 0x1F ADD PUSH1 0x20 DUP1 SWAP2 DIV MUL PUSH1 0x20 ADD PUSH1 0x40 MLOAD SWAP1 DUP2 ADD PUSH1 0x40 MSTORE DUP1 SWAP3 SWAP2 SWAP1 DUP2 DUP2 MSTORE PUSH1 0x20 ADD DUP3 DUP1 SLOAD PUSH2 0x2537 SWAP1 PUSH2 0x4CC5 JUMP JUMPDEST DUP1 ISZERO PUSH2 0x2584 JUMPI DUP1 PUSH1 0x1F LT PUSH2 0x2559 JUMPI PUSH2 0x100 DUP1 DUP4 SLOAD DIV MUL DUP4 MSTORE SWAP2 PUSH1 0x20 ADD SWAP2 PUSH2 0x2584 JUMP JUMPDEST DUP3 ADD SWAP2 SWAP1 PUSH1 0x0 MSTORE PUSH1 0x20 PUSH1 0x0 KECCAK256 SWAP1 JUMPDEST DUP2 SLOAD DUP2 MSTORE SWAP1 PUSH1 0x1 ADD SWAP1 PUSH1 0x20 ADD DUP1 DUP4 GT PUSH2 0x2567 JUMPI DUP3 SWAP1 SUB PUSH1 0x1F AND DUP3 ADD SWAP2 JUMPDEST POP POP POP POP POP DUP2 MSTORE PUSH1 0x20 ADD PUSH1 0x3 DUP3 ADD DUP1 SLOAD DUP1 PUSH1 0x20 MUL PUSH1 0x20 ADD PUSH1 0x40 MLOAD SWAP1 DUP2 ADD PUSH1 0x40 MSTORE DUP1 SWAP3 SWAP2 SWAP1 DUP2 DUP2 MSTORE PUSH1 0x20 ADD PUSH1 0x0 SWAP1 JUMPDEST DUP3 DUP3 LT ISZERO PUSH2 0x265E JUMPI DUP4 DUP3 SWAP1 PUSH1 0x0 MSTORE PUSH1 0x20 PUSH1 0x0 KECCAK256 ADD DUP1 SLOAD PUSH2 0x25D1 SWAP1 PUSH2 0x4CC5 JUMP JUMPDEST DUP1 PUSH1 0x1F ADD PUSH1 0x20 DUP1 SWAP2 DIV MUL PUSH1 0x20 ADD PUSH1 0x40 MLOAD SWAP1 DUP2 ADD PUSH1 0x40 MSTORE DUP1 SWAP3 SWAP2 SWAP1 DUP2 DUP2 MSTORE PUSH1 0x20 ADD DUP3 DUP1 SLOAD PUSH2 0x25FD SWAP1 PUSH2 0x4CC5 JUMP JUMPDEST DUP1 ISZERO PUSH2 0x264A JUMPI DUP1 PUSH1 0x1F LT PUSH2 0x261F JUMPI PUSH2 0x100 DUP1 DUP4 SLOAD DIV MUL DUP4 MSTORE SWAP2 PUSH1 0x20 ADD SWAP2 PUSH2 0x264A JUMP JUMPDEST DUP3 ADD SWAP2 SWAP1 PUSH1 0x0 MSTORE PUSH1 0x20 PUSH1 0x0 KECCAK256 SWAP1 JUMPDEST DUP2 SLOAD DUP2 MSTORE SWAP1 PUSH1 0x1 ADD SWAP1 PUSH1 0x20 ADD DUP1 DUP4 GT PUSH2 0x262D JUMPI DUP3 SWAP1 SUB PUSH1 0x1F AND DUP3 ADD SWAP2 JUMPDEST POP POP POP POP POP DUP2 MSTORE PUSH1 0x20 ADD SWAP1 PUSH1 0x1 ADD SWAP1 PUSH2 0x25B2 JUMP JUMPDEST POP POP POP POP DUP2 MSTORE POP POP SWAP1 POP DUP1 PUSH1 0x20 ADD MLOAD SWAP5 POP DUP1 PUSH1 0x40 ADD MLOAD SWAP4 POP CALLER PUSH20 0xFFFFFFFFFFFFFFFFFFFFFFFFFFFFFFFFFFFFFFFF AND BALANCE SWAP3 POP DUP1 PUSH1 0x60 ADD MLOAD SWAP2 POP POP SWAP1 SWAP2 SWAP3 SWAP4 JUMP JUMPDEST PUSH1 0x0 DUP1 PUSH1 0x5 DUP2 GT ISZERO PUSH2 0x26B3 JUMPI PUSH2 0x26B2 PUSH2 0x4DA0 JUMP JUMPDEST JUMPDEST SWAP1 POP PUSH2 0x26C1 DUP5 DUP5 DUP4 DUP6 PUSH2 0x3A89 JUMP JUMPDEST POP POP POP POP JUMP JUMPDEST PUSH1 0x3 PUSH1 0x2 PUSH1 0x0 CALLER PUSH20 0xFFFFFFFFFFFFFFFFFFFFFFFFFFFFFFFFFFFFFFFF AND PUSH20 0xFFFFFFFFFFFFFFFFFFFFFFFFFFFFFFFFFFFFFFFF AND DUP2 MSTORE PUSH1 0x20 ADD SWAP1 DUP2 MSTORE PUSH1 0x20 ADD PUSH1 0x0 KECCAK256 PUSH1 0x0 ADD SLOAD DUP2 PUSH1 0x5 DUP2 GT ISZERO PUSH2 0x271F JUMPI PUSH2 0x271E PUSH2 0x4DA0 JUMP JUMPDEST JUMPDEST EQ PUSH2 0x275F JUMPI PUSH1 0x40 MLOAD PUSH32 0x8C379A000000000000000000000000000000000000000000000000000000000 DUP2 MSTORE PUSH1 0x4 ADD PUSH2 0x2756 SWAP1 PUSH2 0x4A7F JUMP JUMPDEST PUSH1 0x40 MLOAD DUP1 SWAP2 SUB SWAP1 REVERT JUMPDEST PUSH1 0x0 PUSH1 0x3 PUSH1 0x5 DUP2 GT ISZERO PUSH2 0x2775 JUMPI PUSH2 0x2774 PUSH2 0x4DA0 JUMP JUMPDEST JUMPDEST SWAP1 POP PUSH2 0x2783 DUP5 DUP5 DUP4 DUP9 PUSH2 0x3A89 JUMP JUMPDEST PUSH1 0x6 DUP4 SWAP1 DUP1 PUSH1 0x1 DUP2 SLOAD ADD DUP1 DUP3 SSTORE DUP1 SWAP2 POP POP PUSH1 0x1 SWAP1 SUB SWAP1 PUSH1 0x0 MSTORE PUSH1 0x20 PUSH1 0x0 KECCAK256 ADD PUSH1 0x0 SWAP1 SWAP2 SWAP1 SWAP2 SWAP1 SWAP2 POP SWAP1 DUP1 MLOAD SWAP1 PUSH1 0x20 ADD SWAP1 PUSH2 0x27BE SWAP3 SWAP2 SWAP1 PUSH2 0x3DE5 JUMP JUMPDEST POP POP POP POP POP POP JUMP JUMPDEST PUSH1 0x0 PUSH1 0x2 PUSH1 0x0 CALLER PUSH20 0xFFFFFFFFFFFFFFFFFFFFFFFFFFFFFFFFFFFFFFFF AND PUSH20 0xFFFFFFFFFFFFFFFFFFFFFFFFFFFFFFFFFFFFFFFF AND DUP2 MSTORE PUSH1 0x20 ADD SWAP1 DUP2 MSTORE PUSH1 0x20 ADD PUSH1 0x0 KECCAK256 PUSH1 0x0 ADD SLOAD DUP2 PUSH1 0x5 DUP2 GT ISZERO PUSH2 0x281E JUMPI PUSH2 0x281D PUSH2 0x4DA0 JUMP JUMPDEST JUMPDEST EQ PUSH2 0x285E JUMPI PUSH1 0x40 MLOAD PUSH32 0x8C379A000000000000000000000000000000000000000000000000000000000 DUP2 MSTORE PUSH1 0x4 ADD PUSH2 0x2855 SWAP1 PUSH2 0x4A7F JUMP JUMPDEST PUSH1 0x40 MLOAD DUP1 SWAP2 SUB SWAP1 REVERT JUMPDEST PUSH1 0x0 PUSH1 0x40 MLOAD DUP1 PUSH1 0x80 ADD PUSH1 0x40 MSTORE DUP1 CALLER PUSH20 0xFFFFFFFFFFFFFFFFFFFFFFFFFFFFFFFFFFFFFFFF AND DUP2 MSTORE PUSH1 0x20 ADD PUSH1 0x0 PUSH1 0x5 DUP2 GT ISZERO PUSH2 0x289B JUMPI PUSH2 0x289A PUSH2 0x4DA0 JUMP JUMPDEST JUMPDEST DUP2 MSTORE PUSH1 0x20 ADD PUSH1 0x1 PUSH1 0x5 DUP2 GT ISZERO PUSH2 0x28B4 JUMPI PUSH2 0x28B3 PUSH2 0x4DA0 JUMP JUMPDEST JUMPDEST DUP2 MSTORE PUSH1 0x20 ADD PUSH1 0x0 ISZERO ISZERO DUP2 MSTORE POP SWAP1 POP DUP1 PUSH1 0xF DUP5 PUSH1 0x40 MLOAD PUSH2 0x28D3 SWAP2 SWAP1 PUSH2 0x47D8 JUMP JUMPDEST SWAP1 DUP2 MSTORE PUSH1 0x20 ADD PUSH1 0x40 MLOAD DUP1 SWAP2 SUB SWAP1 KECCAK256 PUSH1 0x0 DUP3 ADD MLOAD DUP2 PUSH1 0x0 ADD PUSH1 0x0 PUSH2 0x100 EXP DUP2 SLOAD DUP2 PUSH20 0xFFFFFFFFFFFFFFFFFFFFFFFFFFFFFFFFFFFFFFFF MUL NOT AND SWAP1 DUP4 PUSH20 0xFFFFFFFFFFFFFFFFFFFFFFFFFFFFFFFFFFFFFFFF AND MUL OR SWAP1 SSTORE POP PUSH1 0x20 DUP3 ADD MLOAD DUP2 PUSH1 0x1 ADD SSTORE PUSH1 0x40 DUP3 ADD MLOAD DUP2 PUSH1 0x2 ADD SSTORE PUSH1 0x60 DUP3 ADD MLOAD DUP2 PUSH1 0x3 ADD PUSH1 0x0 PUSH2 0x100 EXP DUP2 SLOAD DUP2 PUSH1 0xFF MUL NOT AND SWAP1 DUP4 ISZERO ISZERO MUL OR SWAP1 SSTORE POP SWAP1 POP POP PUSH1 0x9 DUP4 SWAP1 DUP1 PUSH1 0x1 DUP2 SLOAD ADD DUP1 DUP3 SSTORE DUP1 SWAP2 POP POP PUSH1 0x1 SWAP1 SUB SWAP1 PUSH1 0x0 MSTORE PUSH1 0x20 PUSH1 0x0 KECCAK256 ADD PUSH1 0x0 SWAP1 SWAP2 SWAP1 SWAP2 SWAP1 SWAP2 POP SWAP1 DUP1 MLOAD SWAP1 PUSH1 0x20 ADD SWAP1 PUSH2 0x299A SWAP3 SWAP2 SWAP1 PUSH2 0x3DE5 JUMP JUMPDEST POP POP POP POP JUMP JUMPDEST PUSH1 0x1 PUSH1 0x2 PUSH1 0x0 CALLER PUSH20 0xFFFFFFFFFFFFFFFFFFFFFFFFFFFFFFFFFFFFFFFF AND PUSH20 0xFFFFFFFFFFFFFFFFFFFFFFFFFFFFFFFFFFFFFFFF AND DUP2 MSTORE PUSH1 0x20 ADD SWAP1 DUP2 MSTORE PUSH1 0x20 ADD PUSH1 0x0 KECCAK256 PUSH1 0x0 ADD SLOAD DUP2 PUSH1 0x5 DUP2 GT ISZERO PUSH2 0x29F8 JUMPI PUSH2 0x29F7 PUSH2 0x4DA0 JUMP JUMPDEST JUMPDEST EQ PUSH2 0x2A38 JUMPI PUSH1 0x40 MLOAD PUSH32 0x8C379A000000000000000000000000000000000000000000000000000000000 DUP2 MSTORE PUSH1 0x4 ADD PUSH2 0x2A2F SWAP1 PUSH2 0x4A7F JUMP JUMPDEST PUSH1 0x40 MLOAD DUP1 SWAP2 SUB SWAP1 REVERT JUMPDEST PUSH1 0x0 PUSH1 0x40 MLOAD DUP1 PUSH1 0x80 ADD PUSH1 0x40 MSTORE DUP1 CALLER PUSH20 0xFFFFFFFFFFFFFFFFFFFFFFFFFFFFFFFFFFFFFFFF AND DUP2 MSTORE PUSH1 0x20 ADD PUSH1 0x1 PUSH1 0x5 DUP2 GT ISZERO PUSH2 0x2A75 JUMPI PUSH2 0x2A74 PUSH2 0x4DA0 JUMP JUMPDEST JUMPDEST DUP2 MSTORE PUSH1 0x20 ADD PUSH1 0x0 PUSH1 0x5 DUP2 GT ISZERO PUSH2 0x2A8E JUMPI PUSH2 0x2A8D PUSH2 0x4DA0 JUMP JUMPDEST JUMPDEST DUP2 MSTORE PUSH1 0x20 ADD PUSH1 0x0 ISZERO ISZERO DUP2 MSTORE POP SWAP1 POP DUP1 PUSH1 0xF DUP5 PUSH1 0x40 MLOAD PUSH2 0x2AAD SWAP2 SWAP1 PUSH2 0x47D8 JUMP JUMPDEST SWAP1 DUP2 MSTORE PUSH1 0x20 ADD PUSH1 0x40 MLOAD DUP1 SWAP2 SUB SWAP1 KECCAK256 PUSH1 0x0 DUP3 ADD MLOAD DUP2 PUSH1 0x0 ADD PUSH1 0x0 PUSH2 0x100 EXP DUP2 SLOAD DUP2 PUSH20 0xFFFFFFFFFFFFFFFFFFFFFFFFFFFFFFFFFFFFFFFF MUL NOT AND SWAP1 DUP4 PUSH20 0xFFFFFFFFFFFFFFFFFFFFFFFFFFFFFFFFFFFFFFFF AND MUL OR SWAP1 SSTORE POP PUSH1 0x20 DUP3 ADD MLOAD DUP2 PUSH1 0x1 ADD SSTORE PUSH1 0x40 DUP3 ADD MLOAD DUP2 PUSH1 0x2 ADD SSTORE PUSH1 0x60 DUP3 ADD MLOAD DUP2 PUSH1 0x3 ADD PUSH1 0x0 PUSH2 0x100 EXP DUP2 SLOAD DUP2 PUSH1 0xFF MUL NOT AND SWAP1 DUP4 ISZERO ISZERO MUL OR SWAP1 SSTORE POP SWAP1 POP POP PUSH1 0x9 DUP4 SWAP1 DUP1 PUSH1 0x1 DUP2 SLOAD ADD DUP1 DUP3 SSTORE DUP1 SWAP2 POP POP PUSH1 0x1 SWAP1 SUB SWAP1 PUSH1 0x0 MSTORE PUSH1 0x20 PUSH1 0x0 KECCAK256 ADD PUSH1 0x0 SWAP1 SWAP2 SWAP1 SWAP2 SWAP1 SWAP2 POP SWAP1 DUP1 MLOAD SWAP1 PUSH1 0x20 ADD SWAP1 PUSH2 0x2B74 SWAP3 SWAP2 SWAP1 PUSH2 0x3DE5 JUMP JUMPDEST POP POP POP POP JUMP JUMPDEST PUSH2 0x2C5D PUSH1 0x2 PUSH1 0x0 CALLER PUSH20 0xFFFFFFFFFFFFFFFFFFFFFFFFFFFFFFFFFFFFFFFF AND PUSH20 0xFFFFFFFFFFFFFFFFFFFFFFFFFFFFFFFFFFFFFFFF AND DUP2 MSTORE PUSH1 0x20 ADD SWAP1 DUP2 MSTORE PUSH1 0x20 ADD PUSH1 0x0 KECCAK256 PUSH1 0x1 ADD DUP1 SLOAD PUSH2 0x2BCA SWAP1 PUSH2 0x4CC5 JUMP JUMPDEST DUP1 PUSH1 0x1F ADD PUSH1 0x20 DUP1 SWAP2 DIV MUL PUSH1 0x20 ADD PUSH1 0x40 MLOAD SWAP1 DUP2 ADD PUSH1 0x40 MSTORE DUP1 SWAP3 SWAP2 SWAP1 DUP2 DUP2 MSTORE PUSH1 0x20 ADD DUP3 DUP1 SLOAD PUSH2 0x2BF6 SWAP1 PUSH2 0x4CC5 JUMP JUMPDEST DUP1 ISZERO PUSH2 0x2C43 JUMPI DUP1 PUSH1 0x1F LT PUSH2 0x2C18 JUMPI PUSH2 0x100 DUP1 DUP4 SLOAD DIV MUL DUP4 MSTORE SWAP2 PUSH1 0x20 ADD SWAP2 PUSH2 0x2C43 JUMP JUMPDEST DUP3 ADD SWAP2 SWAP1 PUSH1 0x0 MSTORE PUSH1 0x20 PUSH1 0x0 KECCAK256 SWAP1 JUMPDEST DUP2 SLOAD DUP2 MSTORE SWAP1 PUSH1 0x1 ADD SWAP1 PUSH1 0x20 ADD DUP1 DUP4 GT PUSH2 0x2C26 JUMPI DUP3 SWAP1 SUB PUSH1 0x1F AND DUP3 ADD SWAP2 JUMPDEST POP POP POP POP POP PUSH1 0x40 MLOAD DUP1 PUSH1 0x20 ADD PUSH1 0x40 MSTORE DUP1 PUSH1 0x0 DUP2 MSTORE POP PUSH2 0x3D8C JUMP JUMPDEST ISZERO PUSH2 0x2C9D JUMPI PUSH1 0x40 MLOAD PUSH32 0x8C379A000000000000000000000000000000000000000000000000000000000 DUP2 MSTORE PUSH1 0x4 ADD PUSH2 0x2C94 SWAP1 PUSH2 0x4A9F JUMP JUMPDEST PUSH1 0x40 MLOAD DUP1 SWAP2 SUB SWAP1 REVERT JUMPDEST PUSH1 0x0 ISZERO ISZERO PUSH1 0x10 DUP3 PUSH1 0x40 MLOAD PUSH2 0x2CB1 SWAP2 SWAP1 PUSH2 0x47D8 JUMP JUMPDEST SWAP1 DUP2 MSTORE PUSH1 0x20 ADD PUSH1 0x40 MLOAD DUP1 SWAP2 SUB SWAP1 KECCAK256 PUSH1 0x0 CALLER PUSH20 0xFFFFFFFFFFFFFFFFFFFFFFFFFFFFFFFFFFFFFFFF AND PUSH20 0xFFFFFFFFFFFFFFFFFFFFFFFFFFFFFFFFFFFFFFFF AND DUP2 MSTORE PUSH1 0x20 ADD SWAP1 DUP2 MSTORE PUSH1 0x20 ADD PUSH1 0x0 KECCAK256 PUSH1 0x0 SWAP1 SLOAD SWAP1 PUSH2 0x100 EXP SWAP1 DIV PUSH1 0xFF AND ISZERO ISZERO EQ PUSH2 0x2D4C JUMPI PUSH1 0x40 MLOAD PUSH32 0x8C379A000000000000000000000000000000000000000000000000000000000 DUP2 MSTORE PUSH1 0x4 ADD PUSH2 0x2D43 SWAP1 PUSH2 0x4A1F JUMP JUMPDEST PUSH1 0x40 MLOAD DUP1 SWAP2 SUB SWAP1 REVERT JUMPDEST PUSH1 0xE DUP2 PUSH1 0x40 MLOAD PUSH2 0x2D5C SWAP2 SWAP1 PUSH2 0x47D8 JUMP JUMPDEST SWAP1 DUP2 MSTORE PUSH1 0x20 ADD PUSH1 0x40 MLOAD DUP1 SWAP2 SUB SWAP1 KECCAK256 PUSH1 0x4 ADD CALLER SWAP1 DUP1 PUSH1 0x1 DUP2 SLOAD ADD DUP1 DUP3 SSTORE DUP1 SWAP2 POP POP PUSH1 0x1 SWAP1 SUB SWAP1 PUSH1 0x0 MSTORE PUSH1 0x20 PUSH1 0x0 KECCAK256 ADD PUSH1 0x0 SWAP1 SWAP2 SWAP1 SWAP2 SWAP1 SWAP2 PUSH2 0x100 EXP DUP2 SLOAD DUP2 PUSH20 0xFFFFFFFFFFFFFFFFFFFFFFFFFFFFFFFFFFFFFFFF MUL NOT AND SWAP1 DUP4 PUSH20 0xFFFFFFFFFFFFFFFFFFFFFFFFFFFFFFFFFFFFFFFF AND MUL OR SWAP1 SSTORE POP PUSH1 0x1 PUSH1 0x10 DUP3 PUSH1 0x40 MLOAD PUSH2 0x2DE0 SWAP2 SWAP1 PUSH2 0x47D8 JUMP JUMPDEST SWAP1 DUP2 MSTORE PUSH1 0x20 ADD PUSH1 0x40 MLOAD DUP1 SWAP2 SUB SWAP1 KECCAK256 PUSH1 0x0 CALLER PUSH20 0xFFFFFFFFFFFFFFFFFFFFFFFFFFFFFFFFFFFFFFFF AND PUSH20 0xFFFFFFFFFFFFFFFFFFFFFFFFFFFFFFFFFFFFFFFF AND DUP2 MSTORE PUSH1 0x20 ADD SWAP1 DUP2 MSTORE PUSH1 0x20 ADD PUSH1 0x0 KECCAK256 PUSH1 0x0 PUSH2 0x100 EXP DUP2 SLOAD DUP2 PUSH1 0xFF MUL NOT AND SWAP1 DUP4 ISZERO ISZERO MUL OR SWAP1 SSTORE POP POP JUMP JUMPDEST PUSH1 0x60 DUP1 PUSH1 0x60 DUP1 PUSH1 0x3 PUSH1 0x2 PUSH1 0x0 CALLER PUSH20 0xFFFFFFFFFFFFFFFFFFFFFFFFFFFFFFFFFFFFFFFF AND PUSH20 0xFFFFFFFFFFFFFFFFFFFFFFFFFFFFFFFFFFFFFFFF AND DUP2 MSTORE PUSH1 0x20 ADD SWAP1 DUP2 MSTORE PUSH1 0x20 ADD PUSH1 0x0 KECCAK256 PUSH1 0x0 ADD SLOAD DUP2 PUSH1 0x5 DUP2 GT ISZERO PUSH2 0x2EA3 JUMPI PUSH2 0x2EA2 PUSH2 0x4DA0 JUMP JUMPDEST JUMPDEST EQ PUSH2 0x2EE3 JUMPI PUSH1 0x40 MLOAD PUSH32 0x8C379A000000000000000000000000000000000000000000000000000000000 DUP2 MSTORE PUSH1 0x4 ADD PUSH2 0x2EDA SWAP1 PUSH2 0x4A7F JUMP JUMPDEST PUSH1 0x40 MLOAD DUP1 SWAP2 SUB SWAP1 REVERT JUMPDEST PUSH1 0x0 PUSH1 0x2 PUSH1 0x0 CALLER PUSH20 0xFFFFFFFFFFFFFFFFFFFFFFFFFFFFFFFFFFFFFFFF AND PUSH20 0xFFFFFFFFFFFFFFFFFFFFFFFFFFFFFFFFFFFFFFFF AND DUP2 MSTORE PUSH1 0x20 ADD SWAP1 DUP2 MSTORE PUSH1 0x20 ADD PUSH1 0x0 KECCAK256 PUSH1 0x40 MLOAD DUP1 PUSH1 0x80 ADD PUSH1 0x40 MSTORE SWAP1 DUP2 PUSH1 0x0 DUP3 ADD SLOAD DUP2 MSTORE PUSH1 0x20 ADD PUSH1 0x1 DUP3 ADD DUP1 SLOAD PUSH2 0x2F49 SWAP1 PUSH2 0x4CC5 JUMP JUMPDEST DUP1 PUSH1 0x1F ADD PUSH1 0x20 DUP1 SWAP2 DIV MUL PUSH1 0x20 ADD PUSH1 0x40 MLOAD SWAP1 DUP2 ADD PUSH1 0x40 MSTORE DUP1 SWAP3 SWAP2 SWAP1 DUP2 DUP2 MSTORE PUSH1 0x20 ADD DUP3 DUP1 SLOAD PUSH2 0x2F75 SWAP1 PUSH2 0x4CC5 JUMP JUMPDEST DUP1 ISZERO PUSH2 0x2FC2 JUMPI DUP1 PUSH1 0x1F LT PUSH2 0x2F97 JUMPI PUSH2 0x100 DUP1 DUP4 SLOAD DIV MUL DUP4 MSTORE SWAP2 PUSH1 0x20 ADD SWAP2 PUSH2 0x2FC2 JUMP JUMPDEST DUP3 ADD SWAP2 SWAP1 PUSH1 0x0 MSTORE PUSH1 0x20 PUSH1 0x0 KECCAK256 SWAP1 JUMPDEST DUP2 SLOAD DUP2 MSTORE SWAP1 PUSH1 0x1 ADD SWAP1 PUSH1 0x20 ADD DUP1 DUP4 GT PUSH2 0x2FA5 JUMPI DUP3 SWAP1 SUB PUSH1 0x1F AND DUP3 ADD SWAP2 JUMPDEST POP POP POP POP POP DUP2 MSTORE PUSH1 0x20 ADD PUSH1 0x2 DUP3 ADD DUP1 SLOAD PUSH2 0x2FDB SWAP1 PUSH2 0x4CC5 JUMP JUMPDEST DUP1 PUSH1 0x1F ADD PUSH1 0x20 DUP1 SWAP2 DIV MUL PUSH1 0x20 ADD PUSH1 0x40 MLOAD SWAP1 DUP2 ADD PUSH1 0x40 MSTORE DUP1 SWAP3 SWAP2 SWAP1 DUP2 DUP2 MSTORE PUSH1 0x20 ADD DUP3 DUP1 SLOAD PUSH2 0x3007 SWAP1 PUSH2 0x4CC5 JUMP JUMPDEST DUP1 ISZERO PUSH2 0x3054 JUMPI DUP1 PUSH1 0x1F LT PUSH2 0x3029 JUMPI PUSH2 0x100 DUP1 DUP4 SLOAD DIV MUL DUP4 MSTORE SWAP2 PUSH1 0x20 ADD SWAP2 PUSH2 0x3054 JUMP JUMPDEST DUP3 ADD SWAP2 SWAP1 PUSH1 0x0 MSTORE PUSH1 0x20 PUSH1 0x0 KECCAK256 SWAP1 JUMPDEST DUP2 SLOAD DUP2 MSTORE SWAP1 PUSH1 0x1 ADD SWAP1 PUSH1 0x20 ADD DUP1 DUP4 GT PUSH2 0x3037 JUMPI DUP3 SWAP1 SUB PUSH1 0x1F AND DUP3 ADD SWAP2 JUMPDEST POP POP POP POP POP DUP2 MSTORE PUSH1 0x20 ADD PUSH1 0x3 DUP3 ADD DUP1 SLOAD DUP1 PUSH1 0x20 MUL PUSH1 0x20 ADD PUSH1 0x40 MLOAD SWAP1 DUP2 ADD PUSH1 0x40 MSTORE DUP1 SWAP3 SWAP2 SWAP1 DUP2 DUP2 MSTORE PUSH1 0x20 ADD PUSH1 0x0 SWAP1 JUMPDEST DUP3 DUP3 LT ISZERO PUSH2 0x312E JUMPI DUP4 DUP3 SWAP1 PUSH1 0x0 MSTORE PUSH1 0x20 PUSH1 0x0 KECCAK256 ADD DUP1 SLOAD PUSH2 0x30A1 SWAP1 PUSH2 0x4CC5 JUMP JUMPDEST DUP1 PUSH1 0x1F ADD PUSH1 0x20 DUP1 SWAP2 DIV MUL PUSH1 0x20 ADD PUSH1 0x40 MLOAD SWAP1 DUP2 ADD PUSH1 0x40 MSTORE DUP1 SWAP3 SWAP2 SWAP1 DUP2 DUP2 MSTORE PUSH1 0x20 ADD DUP3 DUP1 SLOAD PUSH2 0x30CD SWAP1 PUSH2 0x4CC5 JUMP JUMPDEST DUP1 ISZERO PUSH2 0x311A JUMPI DUP1 PUSH1 0x1F LT PUSH2 0x30EF JUMPI PUSH2 0x100 DUP1 DUP4 SLOAD DIV MUL DUP4 MSTORE SWAP2 PUSH1 0x20 ADD SWAP2 PUSH2 0x311A JUMP JUMPDEST DUP3 ADD SWAP2 SWAP1 PUSH1 0x0 MSTORE PUSH1 0x20 PUSH1 0x0 KECCAK256 SWAP1 JUMPDEST DUP2 SLOAD DUP2 MSTORE SWAP1 PUSH1 0x1 ADD SWAP1 PUSH1 0x20 ADD DUP1 DUP4 GT PUSH2 0x30FD JUMPI DUP3 SWAP1 SUB PUSH1 0x1F AND DUP3 ADD SWAP2 JUMPDEST POP POP POP POP POP DUP2 MSTORE PUSH1 0x20 ADD SWAP1 PUSH1 0x1 ADD SWAP1 PUSH2 0x3082 JUMP JUMPDEST POP POP POP POP DUP2 MSTORE POP POP SWAP1 POP DUP1 PUSH1 0x20 ADD MLOAD SWAP6 POP PUSH1 0x9 DUP1 SLOAD DUP1 PUSH1 0x20 MUL PUSH1 0x20 ADD PUSH1 0x40 MLOAD SWAP1 DUP2 ADD PUSH1 0x40 MSTORE DUP1 SWAP3 SWAP2 SWAP1 DUP2 DUP2 MSTORE PUSH1 0x20 ADD PUSH1 0x0 SWAP1 JUMPDEST DUP3 DUP3 LT ISZERO PUSH2 0x320D JUMPI DUP4 DUP3 SWAP1 PUSH1 0x0 MSTORE PUSH1 0x20 PUSH1 0x0 KECCAK256 ADD DUP1 SLOAD PUSH2 0x3180 SWAP1 PUSH2 0x4CC5 JUMP JUMPDEST DUP1 PUSH1 0x1F ADD PUSH1 0x20 DUP1 SWAP2 DIV MUL PUSH1 0x20 ADD PUSH1 0x40 MLOAD SWAP1 DUP2 ADD PUSH1 0x40 MSTORE DUP1 SWAP3 SWAP2 SWAP1 DUP2 DUP2 MSTORE PUSH1 0x20 ADD DUP3 DUP1 SLOAD PUSH2 0x31AC SWAP1 PUSH2 0x4CC5 JUMP JUMPDEST DUP1 ISZERO PUSH2 0x31F9 JUMPI DUP1 PUSH1 0x1F LT PUSH2 0x31CE JUMPI PUSH2 0x100 DUP1 DUP4 SLOAD DIV MUL DUP4 MSTORE SWAP2 PUSH1 0x20 ADD SWAP2 PUSH2 0x31F9 JUMP JUMPDEST DUP3 ADD SWAP2 SWAP1 PUSH1 0x0 MSTORE PUSH1 0x20 PUSH1 0x0 KECCAK256 SWAP1 JUMPDEST DUP2 SLOAD DUP2 MSTORE SWAP1 PUSH1 0x1 ADD SWAP1 PUSH1 0x20 ADD DUP1 DUP4 GT PUSH2 0x31DC JUMPI DUP3 SWAP1 SUB PUSH1 0x1F AND DUP3 ADD SWAP2 JUMPDEST POP POP POP POP POP DUP2 MSTORE PUSH1 0x20 ADD SWAP1 PUSH1 0x1 ADD SWAP1 PUSH2 0x3161 JUMP JUMPDEST POP POP POP POP SWAP5 POP PUSH1 0x6 DUP1 SLOAD DUP1 PUSH1 0x20 MUL PUSH1 0x20 ADD PUSH1 0x40 MLOAD SWAP1 DUP2 ADD PUSH1 0x40 MSTORE DUP1 SWAP3 SWAP2 SWAP1 DUP2 DUP2 MSTORE PUSH1 0x20 ADD PUSH1 0x0 SWAP1 JUMPDEST DUP3 DUP3 LT ISZERO PUSH2 0x32E1 JUMPI DUP4 DUP3 SWAP1 PUSH1 0x0 MSTORE PUSH1 0x20 PUSH1 0x0 KECCAK256 ADD DUP1 SLOAD PUSH2 0x3254 SWAP1 PUSH2 0x4CC5 JUMP JUMPDEST DUP1 PUSH1 0x1F ADD PUSH1 0x20 DUP1 SWAP2 DIV MUL PUSH1 0x20 ADD PUSH1 0x40 MLOAD SWAP1 DUP2 ADD PUSH1 0x40 MSTORE DUP1 SWAP3 SWAP2 SWAP1 DUP2 DUP2 MSTORE PUSH1 0x20 ADD DUP3 DUP1 SLOAD PUSH2 0x3280 SWAP1 PUSH2 0x4CC5 JUMP JUMPDEST DUP1 ISZERO PUSH2 0x32CD JUMPI DUP1 PUSH1 0x1F LT PUSH2 0x32A2 JUMPI PUSH2 0x100 DUP1 DUP4 SLOAD DIV MUL DUP4 MSTORE SWAP2 PUSH1 0x20 ADD SWAP2 PUSH2 0x32CD JUMP JUMPDEST DUP3 ADD SWAP2 SWAP1 PUSH1 0x0 MSTORE PUSH1 0x20 PUSH1 0x0 KECCAK256 SWAP1 JUMPDEST DUP2 SLOAD DUP2 MSTORE SWAP1 PUSH1 0x1 ADD SWAP1 PUSH1 0x20 ADD DUP1 DUP4 GT PUSH2 0x32B0 JUMPI DUP3 SWAP1 SUB PUSH1 0x1F AND DUP3 ADD SWAP2 JUMPDEST POP POP POP POP POP DUP2 MSTORE PUSH1 0x20 ADD SWAP1 PUSH1 0x1 ADD SWAP1 PUSH2 0x3235 JUMP JUMPDEST POP POP POP POP SWAP4 POP PUSH1 0x8 DUP1 SLOAD DUP1 PUSH1 0x20 MUL PUSH1 0x20 ADD PUSH1 0x40 MLOAD SWAP1 DUP2 ADD PUSH1 0x40 MSTORE DUP1 SWAP3 SWAP2 SWAP1 DUP2 DUP2 MSTORE PUSH1 0x20 ADD DUP3 DUP1 SLOAD DUP1 ISZERO PUSH2 0x3369 JUMPI PUSH1 0x20 MUL DUP3 ADD SWAP2 SWAP1 PUSH1 0x0 MSTORE PUSH1 0x20 PUSH1 0x0 KECCAK256 SWAP1 JUMPDEST DUP2 PUSH1 0x0 SWAP1 SLOAD SWAP1 PUSH2 0x100 EXP SWAP1 DIV PUSH20 0xFFFFFFFFFFFFFFFFFFFFFFFFFFFFFFFFFFFFFFFF AND PUSH20 0xFFFFFFFFFFFFFFFFFFFFFFFFFFFFFFFFFFFFFFFF AND DUP2 MSTORE PUSH1 0x20 ADD SWAP1 PUSH1 0x1 ADD SWAP1 DUP1 DUP4 GT PUSH2 0x331F JUMPI JUMPDEST POP POP POP POP POP SWAP3 POP POP POP SWAP1 SWAP2 SWAP3 SWAP4 JUMP JUMPDEST PUSH1 0x0 PUSH1 0x60 DUP1 PUSH1 0x0 PUSH1 0xF DUP6 PUSH1 0x40 MLOAD PUSH2 0x338F SWAP2 SWAP1 PUSH2 0x47D8 JUMP JUMPDEST SWAP1 DUP2 MSTORE PUSH1 0x20 ADD PUSH1 0x40 MLOAD DUP1 SWAP2 SUB SWAP1 KECCAK256 PUSH1 0x40 MLOAD DUP1 PUSH1 0x80 ADD PUSH1 0x40 MSTORE SWAP1 DUP2 PUSH1 0x0 DUP3 ADD PUSH1 0x0 SWAP1 SLOAD SWAP1 PUSH2 0x100 EXP SWAP1 DIV PUSH20 0xFFFFFFFFFFFFFFFFFFFFFFFFFFFFFFFFFFFFFFFF AND PUSH20 0xFFFFFFFFFFFFFFFFFFFFFFFFFFFFFFFFFFFFFFFF AND PUSH20 0xFFFFFFFFFFFFFFFFFFFFFFFFFFFFFFFFFFFFFFFF AND DUP2 MSTORE PUSH1 0x20 ADD PUSH1 0x1 DUP3 ADD SLOAD DUP2 MSTORE PUSH1 0x20 ADD PUSH1 0x2 DUP3 ADD SLOAD DUP2 MSTORE PUSH1 0x20 ADD PUSH1 0x3 DUP3 ADD PUSH1 0x0 SWAP1 SLOAD SWAP1 PUSH2 0x100 EXP SWAP1 DIV PUSH1 0xFF AND ISZERO ISZERO ISZERO ISZERO DUP2 MSTORE POP POP SWAP1 POP DUP1 PUSH1 0x0 ADD MLOAD SWAP4 POP PUSH1 0x0 DUP1 DUP3 PUSH1 0x20 ADD MLOAD DUP2 MSTORE PUSH1 0x20 ADD SWAP1 DUP2 MSTORE PUSH1 0x20 ADD PUSH1 0x0 KECCAK256 DUP1 SLOAD PUSH2 0x3457 SWAP1 PUSH2 0x4CC5 JUMP JUMPDEST DUP1 PUSH1 0x1F ADD PUSH1 0x20 DUP1 SWAP2 DIV MUL PUSH1 0x20 ADD PUSH1 0x40 MLOAD SWAP1 DUP2 ADD PUSH1 0x40 MSTORE DUP1 SWAP3 SWAP2 SWAP1 DUP2 DUP2 MSTORE PUSH1 0x20 ADD DUP3 DUP1 SLOAD PUSH2 0x3483 SWAP1 PUSH2 0x4CC5 JUMP JUMPDEST DUP1 ISZERO PUSH2 0x34D0 JUMPI DUP1 PUSH1 0x1F LT PUSH2 0x34A5 JUMPI PUSH2 0x100 DUP1 DUP4 SLOAD DIV MUL DUP4 MSTORE SWAP2 PUSH1 0x20 ADD SWAP2 PUSH2 0x34D0 JUMP JUMPDEST DUP3 ADD SWAP2 SWAP1 PUSH1 0x0 MSTORE PUSH1 0x20 PUSH1 0x0 KECCAK256 SWAP1 JUMPDEST DUP2 SLOAD DUP2 MSTORE SWAP1 PUSH1 0x1 ADD SWAP1 PUSH1 0x20 ADD DUP1 DUP4 GT PUSH2 0x34B3 JUMPI DUP3 SWAP1 SUB PUSH1 0x1F AND DUP3 ADD SWAP2 JUMPDEST POP POP POP POP POP SWAP3 POP PUSH1 0x0 DUP1 DUP3 PUSH1 0x40 ADD MLOAD DUP2 MSTORE PUSH1 0x20 ADD SWAP1 DUP2 MSTORE PUSH1 0x20 ADD PUSH1 0x0 KECCAK256 DUP1 SLOAD PUSH2 0x34F8 SWAP1 PUSH2 0x4CC5 JUMP JUMPDEST DUP1 PUSH1 0x1F ADD PUSH1 0x20 DUP1 SWAP2 DIV MUL PUSH1 0x20 ADD PUSH1 0x40 MLOAD SWAP1 DUP2 ADD PUSH1 0x40 MSTORE DUP1 SWAP3 SWAP2 SWAP1 DUP2 DUP2 MSTORE PUSH1 0x20 ADD DUP3 DUP1 SLOAD PUSH2 0x3524 SWAP1 PUSH2 0x4CC5 JUMP JUMPDEST DUP1 ISZERO PUSH2 0x3571 JUMPI DUP1 PUSH1 0x1F LT PUSH2 0x3546 JUMPI PUSH2 0x100 DUP1 DUP4 SLOAD DIV MUL DUP4 MSTORE SWAP2 PUSH1 0x20 ADD SWAP2 PUSH2 0x3571 JUMP JUMPDEST DUP3 ADD SWAP2 SWAP1 PUSH1 0x0 MSTORE PUSH1 0x20 PUSH1 0x0 KECCAK256 SWAP1 JUMPDEST DUP2 SLOAD DUP2 MSTORE SWAP1 PUSH1 0x1 ADD SWAP1 PUSH1 0x20 ADD DUP1 DUP4 GT PUSH2 0x3554 JUMPI DUP3 SWAP1 SUB PUSH1 0x1F AND DUP3 ADD SWAP2 JUMPDEST POP POP POP POP POP SWAP2 POP POP SWAP2 SWAP4 SWAP1 SWAP3 POP JUMP JUMPDEST PUSH1 0x3 PUSH1 0x2 PUSH1 0x0 CALLER PUSH20 0xFFFFFFFFFFFFFFFFFFFFFFFFFFFFFFFFFFFFFFFF AND PUSH20 0xFFFFFFFFFFFFFFFFFFFFFFFFFFFFFFFFFFFFFFFF AND DUP2 MSTORE PUSH1 0x20 ADD SWAP1 DUP2 MSTORE PUSH1 0x20 ADD PUSH1 0x0 KECCAK256 PUSH1 0x0 ADD SLOAD DUP2 PUSH1 0x5 DUP2 GT ISZERO PUSH2 0x35D8 JUMPI PUSH2 0x35D7 PUSH2 0x4DA0 JUMP JUMPDEST JUMPDEST EQ PUSH2 0x3618 JUMPI PUSH1 0x40 MLOAD PUSH32 0x8C379A000000000000000000000000000000000000000000000000000000000 DUP2 MSTORE PUSH1 0x4 ADD PUSH2 0x360F SWAP1 PUSH2 0x4A7F JUMP JUMPDEST PUSH1 0x40 MLOAD DUP1 SWAP2 SUB SWAP1 REVERT JUMPDEST PUSH1 0x0 PUSH1 0xC PUSH1 0x0 DUP5 PUSH20 0xFFFFFFFFFFFFFFFFFFFFFFFFFFFFFFFFFFFFFFFF AND PUSH20 0xFFFFFFFFFFFFFFFFFFFFFFFFFFFFFFFFFFFFFFFF AND DUP2 MSTORE PUSH1 0x20 ADD SWAP1 DUP2 MSTORE PUSH1 0x20 ADD PUSH1 0x0 KECCAK256 DUP1 SLOAD DUP1 PUSH1 0x20 MUL PUSH1 0x20 ADD PUSH1 0x40 MLOAD SWAP1 DUP2 ADD PUSH1 0x40 MSTORE DUP1 SWAP3 SWAP2 SWAP1 DUP2 DUP2 MSTORE PUSH1 0x20 ADD DUP3 DUP1 SLOAD DUP1 ISZERO PUSH2 0x36D9 JUMPI PUSH1 0x20 MUL DUP3 ADD SWAP2 SWAP1 PUSH1 0x0 MSTORE PUSH1 0x20 PUSH1 0x0 KECCAK256 SWAP1 JUMPDEST DUP2 PUSH1 0x0 SWAP1 SLOAD SWAP1 PUSH2 0x100 EXP SWAP1 DIV PUSH20 0xFFFFFFFFFFFFFFFFFFFFFFFFFFFFFFFFFFFFFFFF AND PUSH20 0xFFFFFFFFFFFFFFFFFFFFFFFFFFFFFFFFFFFFFFFF AND DUP2 MSTORE PUSH1 0x20 ADD SWAP1 PUSH1 0x1 ADD SWAP1 DUP1 DUP4 GT PUSH2 0x368F JUMPI JUMPDEST POP POP POP POP POP SWAP1 POP PUSH1 0x0 JUMPDEST DUP2 MLOAD DUP2 LT ISZERO PUSH2 0x3767 JUMPI PUSH1 0x0 DUP3 DUP3 DUP2 MLOAD DUP2 LT PUSH2 0x3701 JUMPI PUSH2 0x3700 PUSH2 0x4DFE JUMP JUMPDEST JUMPDEST PUSH1 0x20 MUL PUSH1 0x20 ADD ADD MLOAD SWAP1 POP PUSH1 0x0 PUSH1 0x2 PUSH1 0x0 DUP4 PUSH20 0xFFFFFFFFFFFFFFFFFFFFFFFFFFFFFFFFFFFFFFFF AND PUSH20 0xFFFFFFFFFFFFFFFFFFFFFFFFFFFFFFFFFFFFFFFF AND DUP2 MSTORE PUSH1 0x20 ADD SWAP1 DUP2 MSTORE PUSH1 0x20 ADD PUSH1 0x0 KECCAK256 PUSH1 0x0 ADD DUP2 SWAP1 SSTORE POP POP DUP1 DUP1 PUSH2 0x375F SWAP1 PUSH2 0x4D28 JUMP JUMPDEST SWAP2 POP POP PUSH2 0x36E3 JUMP JUMPDEST POP PUSH1 0xA PUSH1 0x0 DUP5 PUSH20 0xFFFFFFFFFFFFFFFFFFFFFFFFFFFFFFFFFFFFFFFF AND PUSH20 0xFFFFFFFFFFFFFFFFFFFFFFFFFFFFFFFFFFFFFFFF AND DUP2 MSTORE PUSH1 0x20 ADD SWAP1 DUP2 MSTORE PUSH1 0x20 ADD PUSH1 0x0 KECCAK256 PUSH1 0x0 DUP1 DUP3 ADD PUSH1 0x0 PUSH2 0x37B8 SWAP2 SWAP1 PUSH2 0x3EF5 JUMP JUMPDEST PUSH1 0x1 DUP3 ADD PUSH1 0x0 PUSH2 0x37C8 SWAP2 SWAP1 PUSH2 0x3EF5 JUMP JUMPDEST PUSH1 0x2 DUP3 ADD PUSH1 0x0 SWAP1 SSTORE POP POP PUSH1 0xC PUSH1 0x0 DUP5 PUSH20 0xFFFFFFFFFFFFFFFFFFFFFFFFFFFFFFFFFFFFFFFF AND PUSH20 0xFFFFFFFFFFFFFFFFFFFFFFFFFFFFFFFFFFFFFFFF AND DUP2 MSTORE PUSH1 0x20 ADD SWAP1 DUP2 MSTORE PUSH1 0x20 ADD PUSH1 0x0 KECCAK256 PUSH1 0x0 PUSH2 0x381D SWAP2 SWAP1 PUSH2 0x3F35 JUMP JUMPDEST POP POP POP JUMP JUMPDEST PUSH1 0x5 PUSH1 0x0 SWAP1 SLOAD SWAP1 PUSH2 0x100 EXP SWAP1 DIV PUSH20 0xFFFFFFFFFFFFFFFFFFFFFFFFFFFFFFFFFFFFFFFF AND PUSH20 0xFFFFFFFFFFFFFFFFFFFFFFFFFFFFFFFFFFFFFFFF AND CALLER PUSH20 0xFFFFFFFFFFFFFFFFFFFFFFFFFFFFFFFFFFFFFFFF AND EQ PUSH2 0x38B2 JUMPI PUSH1 0x40 MLOAD PUSH32 0x8C379A000000000000000000000000000000000000000000000000000000000 DUP2 MSTORE PUSH1 0x4 ADD PUSH2 0x38A9 SWAP1 PUSH2 0x4ABF JUMP JUMPDEST PUSH1 0x40 MLOAD DUP1 SWAP2 SUB SWAP1 REVERT JUMPDEST PUSH1 0x0 PUSH1 0x3 PUSH1 0x5 DUP2 GT ISZERO PUSH2 0x38C8 JUMPI PUSH2 0x38C7 PUSH2 0x4DA0 JUMP JUMPDEST JUMPDEST SWAP1 POP PUSH2 0x38D6 DUP4 DUP4 DUP4 CALLER PUSH2 0x3A89 JUMP JUMPDEST PUSH1 0x6 DUP3 SWAP1 DUP1 PUSH1 0x1 DUP2 SLOAD ADD DUP1 DUP3 SSTORE DUP1 SWAP2 POP POP PUSH1 0x1 SWAP1 SUB SWAP1 PUSH1 0x0 MSTORE PUSH1 0x20 PUSH1 0x0 KECCAK256 ADD PUSH1 0x0 SWAP1 SWAP2 SWAP1 SWAP2 SWAP1 SWAP2 POP SWAP1 DUP1 MLOAD SWAP1 PUSH1 0x20 ADD SWAP1 PUSH2 0x3911 SWAP3 SWAP2 SWAP1 PUSH2 0x3DE5 JUMP JUMPDEST POP POP POP POP JUMP JUMPDEST PUSH1 0x60 PUSH1 0x3 PUSH1 0x2 PUSH1 0x0 CALLER PUSH20 0xFFFFFFFFFFFFFFFFFFFFFFFFFFFFFFFFFFFFFFFF AND PUSH20 0xFFFFFFFFFFFFFFFFFFFFFFFFFFFFFFFFFFFFFFFF AND DUP2 MSTORE PUSH1 0x20 ADD SWAP1 DUP2 MSTORE PUSH1 0x20 ADD PUSH1 0x0 KECCAK256 PUSH1 0x0 ADD SLOAD DUP2 PUSH1 0x5 DUP2 GT ISZERO PUSH2 0x3971 JUMPI PUSH2 0x3970 PUSH2 0x4DA0 JUMP JUMPDEST JUMPDEST EQ PUSH2 0x39B1 JUMPI PUSH1 0x40 MLOAD PUSH32 0x8C379A000000000000000000000000000000000000000000000000000000000 DUP2 MSTORE PUSH1 0x4 ADD PUSH2 0x39A8 SWAP1 PUSH2 0x4A7F JUMP JUMPDEST PUSH1 0x40 MLOAD DUP1 SWAP2 SUB SWAP1 REVERT JUMPDEST PUSH1 0x9 DUP1 SLOAD DUP1 PUSH1 0x20 MUL PUSH1 0x20 ADD PUSH1 0x40 MLOAD SWAP1 DUP2 ADD PUSH1 0x40 MSTORE DUP1 SWAP3 SWAP2 SWAP1 DUP2 DUP2 MSTORE PUSH1 0x20 ADD PUSH1 0x0 SWAP1 JUMPDEST DUP3 DUP3 LT ISZERO PUSH2 0x3A7F JUMPI DUP4 DUP3 SWAP1 PUSH1 0x0 MSTORE PUSH1 0x20 PUSH1 0x0 KECCAK256 ADD DUP1 SLOAD PUSH2 0x39F2 SWAP1 PUSH2 0x4CC5 JUMP JUMPDEST DUP1 PUSH1 0x1F ADD PUSH1 0x20 DUP1 SWAP2 DIV MUL PUSH1 0x20 ADD PUSH1 0x40 MLOAD SWAP1 DUP2 ADD PUSH1 0x40 MSTORE DUP1 SWAP3 SWAP2 SWAP1 DUP2 DUP2 MSTORE PUSH1 0x20 ADD DUP3 DUP1 SLOAD PUSH2 0x3A1E SWAP1 PUSH2 0x4CC5 JUMP JUMPDEST DUP1 ISZERO PUSH2 0x3A6B JUMPI DUP1 PUSH1 0x1F LT PUSH2 0x3A40 JUMPI PUSH2 0x100 DUP1 DUP4 SLOAD DIV MUL DUP4 MSTORE SWAP2 PUSH1 0x20 ADD SWAP2 PUSH2 0x3A6B JUMP JUMPDEST DUP3 ADD SWAP2 SWAP1 PUSH1 0x0 MSTORE PUSH1 0x20 PUSH1 0x0 KECCAK256 SWAP1 JUMPDEST DUP2 SLOAD DUP2 MSTORE SWAP1 PUSH1 0x1 ADD SWAP1 PUSH1 0x20 ADD DUP1 DUP4 GT PUSH2 0x3A4E JUMPI DUP3 SWAP1 SUB PUSH1 0x1F AND DUP3 ADD SWAP2 JUMPDEST POP POP POP POP POP DUP2 MSTORE PUSH1 0x20 ADD SWAP1 PUSH1 0x1 ADD SWAP1 PUSH2 0x39D3 JUMP JUMPDEST POP POP POP POP SWAP2 POP POP SWAP1 JUMP JUMPDEST DUP1 DUP4 PUSH2 0x3B6E PUSH1 0x2 PUSH1 0x0 DUP5 PUSH20 0xFFFFFFFFFFFFFFFFFFFFFFFFFFFFFFFFFFFFFFFF AND PUSH20 0xFFFFFFFFFFFFFFFFFFFFFFFFFFFFFFFFFFFFFFFF AND DUP2 MSTORE PUSH1 0x20 ADD SWAP1 DUP2 MSTORE PUSH1 0x20 ADD PUSH1 0x0 KECCAK256 PUSH1 0x2 ADD DUP1 SLOAD PUSH2 0x3ADB SWAP1 PUSH2 0x4CC5 JUMP JUMPDEST DUP1 PUSH1 0x1F ADD PUSH1 0x20 DUP1 SWAP2 DIV MUL PUSH1 0x20 ADD PUSH1 0x40 MLOAD SWAP1 DUP2 ADD PUSH1 0x40 MSTORE DUP1 SWAP3 SWAP2 SWAP1 DUP2 DUP2 MSTORE PUSH1 0x20 ADD DUP3 DUP1 SLOAD PUSH2 0x3B07 SWAP1 PUSH2 0x4CC5 JUMP JUMPDEST DUP1 ISZERO PUSH2 0x3B54 JUMPI DUP1 PUSH1 0x1F LT PUSH2 0x3B29 JUMPI PUSH2 0x100 DUP1 DUP4 SLOAD DIV MUL DUP4 MSTORE SWAP2 PUSH1 0x20 ADD SWAP2 PUSH2 0x3B54 JUMP JUMPDEST DUP3 ADD SWAP2 SWAP1 PUSH1 0x0 MSTORE PUSH1 0x20 PUSH1 0x0 KECCAK256 SWAP1 JUMPDEST DUP2 SLOAD DUP2 MSTORE SWAP1 PUSH1 0x1 ADD SWAP1 PUSH1 0x20 ADD DUP1 DUP4 GT PUSH2 0x3B37 JUMPI DUP3 SWAP1 SUB PUSH1 0x1F AND DUP3 ADD SWAP2 JUMPDEST POP POP POP POP POP PUSH1 0x40 MLOAD DUP1 PUSH1 0x20 ADD PUSH1 0x40 MSTORE DUP1 PUSH1 0x0 DUP2 MSTORE POP PUSH2 0x3D8C JUMP JUMPDEST PUSH2 0x3BAD JUMPI PUSH1 0x40 MLOAD PUSH32 0x8C379A000000000000000000000000000000000000000000000000000000000 DUP2 MSTORE PUSH1 0x4 ADD PUSH2 0x3BA4 SWAP1 PUSH2 0x4ADF JUMP JUMPDEST PUSH1 0x40 MLOAD DUP1 SWAP2 SUB SWAP1 REVERT JUMPDEST PUSH1 0x0 PUSH20 0xFFFFFFFFFFFFFFFFFFFFFFFFFFFFFFFFFFFFFFFF AND PUSH1 0x1 DUP3 PUSH1 0x40 MLOAD PUSH2 0x3BD5 SWAP2 SWAP1 PUSH2 0x47D8 JUMP JUMPDEST SWAP1 DUP2 MSTORE PUSH1 0x20 ADD PUSH1 0x40 MLOAD DUP1 SWAP2 SUB SWAP1 KECCAK256 PUSH1 0x0 SWAP1 SLOAD SWAP1 PUSH2 0x100 EXP SWAP1 DIV PUSH20 0xFFFFFFFFFFFFFFFFFFFFFFFFFFFFFFFFFFFFFFFF AND PUSH20 0xFFFFFFFFFFFFFFFFFFFFFFFFFFFFFFFFFFFFFFFF AND EQ PUSH2 0x3C5A JUMPI PUSH1 0x40 MLOAD PUSH32 0x8C379A000000000000000000000000000000000000000000000000000000000 DUP2 MSTORE PUSH1 0x4 ADD PUSH2 0x3C51 SWAP1 PUSH2 0x4A3F JUMP JUMPDEST PUSH1 0x40 MLOAD DUP1 SWAP2 SUB SWAP1 REVERT JUMPDEST PUSH1 0x60 PUSH1 0x0 PUSH1 0x40 MLOAD DUP1 PUSH1 0x80 ADD PUSH1 0x40 MSTORE DUP1 DUP8 DUP2 MSTORE PUSH1 0x20 ADD DUP9 DUP2 MSTORE PUSH1 0x20 ADD DUP10 DUP2 MSTORE PUSH1 0x20 ADD DUP4 DUP2 MSTORE POP SWAP1 POP DUP5 PUSH1 0x1 DUP9 PUSH1 0x40 MLOAD PUSH2 0x3C92 SWAP2 SWAP1 PUSH2 0x47D8 JUMP JUMPDEST SWAP1 DUP2 MSTORE PUSH1 0x20 ADD PUSH1 0x40 MLOAD DUP1 SWAP2 SUB SWAP1 KECCAK256 PUSH1 0x0 PUSH2 0x100 EXP DUP2 SLOAD DUP2 PUSH20 0xFFFFFFFFFFFFFFFFFFFFFFFFFFFFFFFFFFFFFFFF MUL NOT AND SWAP1 DUP4 PUSH20 0xFFFFFFFFFFFFFFFFFFFFFFFFFFFFFFFFFFFFFFFF AND MUL OR SWAP1 SSTORE POP DUP1 PUSH1 0x2 PUSH1 0x0 DUP8 PUSH20 0xFFFFFFFFFFFFFFFFFFFFFFFFFFFFFFFFFFFFFFFF AND PUSH20 0xFFFFFFFFFFFFFFFFFFFFFFFFFFFFFFFFFFFFFFFF AND DUP2 MSTORE PUSH1 0x20 ADD SWAP1 DUP2 MSTORE PUSH1 0x20 ADD PUSH1 0x0 KECCAK256 PUSH1 0x0 DUP3 ADD MLOAD DUP2 PUSH1 0x0 ADD SSTORE PUSH1 0x20 DUP3 ADD MLOAD DUP2 PUSH1 0x1 ADD SWAP1 DUP1 MLOAD SWAP1 PUSH1 0x20 ADD SWAP1 PUSH2 0x3D44 SWAP3 SWAP2 SWAP1 PUSH2 0x3DE5 JUMP JUMPDEST POP PUSH1 0x40 DUP3 ADD MLOAD DUP2 PUSH1 0x2 ADD SWAP1 DUP1 MLOAD SWAP1 PUSH1 0x20 ADD SWAP1 PUSH2 0x3D61 SWAP3 SWAP2 SWAP1 PUSH2 0x3DE5 JUMP JUMPDEST POP PUSH1 0x60 DUP3 ADD MLOAD DUP2 PUSH1 0x3 ADD SWAP1 DUP1 MLOAD SWAP1 PUSH1 0x20 ADD SWAP1 PUSH2 0x3D7E SWAP3 SWAP2 SWAP1 PUSH2 0x3F56 JUMP JUMPDEST POP SWAP1 POP POP POP POP POP POP POP POP POP POP JUMP JUMPDEST PUSH1 0x0 DUP2 PUSH1 0x40 MLOAD PUSH1 0x20 ADD PUSH2 0x3D9F SWAP2 SWAP1 PUSH2 0x47D8 JUMP JUMPDEST PUSH1 0x40 MLOAD PUSH1 0x20 DUP2 DUP4 SUB SUB DUP2 MSTORE SWAP1 PUSH1 0x40 MSTORE DUP1 MLOAD SWAP1 PUSH1 0x20 ADD KECCAK256 DUP4 PUSH1 0x40 MLOAD PUSH1 0x20 ADD PUSH2 0x3DC6 SWAP2 SWAP1 PUSH2 0x47D8 JUMP JUMPDEST PUSH1 0x40 MLOAD PUSH1 0x20 DUP2 DUP4 SUB SUB DUP2 MSTORE SWAP1 PUSH1 0x40 MSTORE DUP1 MLOAD SWAP1 PUSH1 0x20 ADD KECCAK256 EQ SWAP1 POP SWAP3 SWAP2 POP POP JUMP JUMPDEST DUP3 DUP1 SLOAD PUSH2 0x3DF1 SWAP1 PUSH2 0x4CC5 JUMP JUMPDEST SWAP1 PUSH1 0x0 MSTORE PUSH1 0x20 PUSH1 0x0 KECCAK256 SWAP1 PUSH1 0x1F ADD PUSH1 0x20 SWAP1 DIV DUP2 ADD SWAP3 DUP3 PUSH2 0x3E13 JUMPI PUSH1 0x0 DUP6 SSTORE PUSH2 0x3E5A JUMP JUMPDEST DUP3 PUSH1 0x1F LT PUSH2 0x3E2C JUMPI DUP1 MLOAD PUSH1 0xFF NOT AND DUP4 DUP1 ADD OR DUP6 SSTORE PUSH2 0x3E5A JUMP JUMPDEST DUP3 DUP1 ADD PUSH1 0x1 ADD DUP6 SSTORE DUP3 ISZERO PUSH2 0x3E5A JUMPI SWAP2 DUP3 ADD JUMPDEST DUP3 DUP2 GT ISZERO PUSH2 0x3E59 JUMPI DUP3 MLOAD DUP3 SSTORE SWAP2 PUSH1 0x20 ADD SWAP2 SWAP1 PUSH1 0x1 ADD SWAP1 PUSH2 0x3E3E JUMP JUMPDEST JUMPDEST POP SWAP1 POP PUSH2 0x3E67 SWAP2 SWAP1 PUSH2 0x3FB6 JUMP JUMPDEST POP SWAP1 JUMP JUMPDEST DUP3 DUP1 SLOAD DUP3 DUP3 SSTORE SWAP1 PUSH1 0x0 MSTORE PUSH1 0x20 PUSH1 0x0 KECCAK256 SWAP1 DUP2 ADD SWAP3 DUP3 ISZERO PUSH2 0x3EE4 JUMPI SWAP2 PUSH1 0x20 MUL DUP3 ADD JUMPDEST DUP3 DUP2 GT ISZERO PUSH2 0x3EE3 JUMPI DUP3 MLOAD DUP3 PUSH1 0x0 PUSH2 0x100 EXP DUP2 SLOAD DUP2 PUSH20 0xFFFFFFFFFFFFFFFFFFFFFFFFFFFFFFFFFFFFFFFF MUL NOT AND SWAP1 DUP4 PUSH20 0xFFFFFFFFFFFFFFFFFFFFFFFFFFFFFFFFFFFFFFFF AND MUL OR SWAP1 SSTORE POP SWAP2 PUSH1 0x20 ADD SWAP2 SWAP1 PUSH1 0x1 ADD SWAP1 PUSH2 0x3E8B JUMP JUMPDEST JUMPDEST POP SWAP1 POP PUSH2 0x3EF1 SWAP2 SWAP1 PUSH2 0x3FB6 JUMP JUMPDEST POP SWAP1 JUMP JUMPDEST POP DUP1 SLOAD PUSH2 0x3F01 SWAP1 PUSH2 0x4CC5 JUMP JUMPDEST PUSH1 0x0 DUP3 SSTORE DUP1 PUSH1 0x1F LT PUSH2 0x3F13 JUMPI POP PUSH2 0x3F32 JUMP JUMPDEST PUSH1 0x1F ADD PUSH1 0x20 SWAP1 DIV SWAP1 PUSH1 0x0 MSTORE PUSH1 0x20 PUSH1 0x0 KECCAK256 SWAP1 DUP2 ADD SWAP1 PUSH2 0x3F31 SWAP2 SWAP1 PUSH2 0x3FB6 JUMP JUMPDEST JUMPDEST POP JUMP JUMPDEST POP DUP1 SLOAD PUSH1 0x0 DUP3 SSTORE SWAP1 PUSH1 0x0 MSTORE PUSH1 0x20 PUSH1 0x0 KECCAK256 SWAP1 DUP2 ADD SWAP1 PUSH2 0x3F53 SWAP2 SWAP1 PUSH2 0x3FB6 JUMP JUMPDEST POP JUMP JUMPDEST DUP3 DUP1 SLOAD DUP3 DUP3 SSTORE SWAP1 PUSH1 0x0 MSTORE PUSH1 0x20 PUSH1 0x0 KECCAK256 SWAP1 DUP2 ADD SWAP3 DUP3 ISZERO PUSH2 0x3FA5 JUMPI SWAP2 PUSH1 0x20 MUL DUP3 ADD JUMPDEST DUP3 DUP2 GT ISZERO PUSH2 0x3FA4 JUMPI DUP3 MLOAD DUP3 SWAP1 DUP1 MLOAD SWAP1 PUSH1 0x20 ADD SWAP1 PUSH2 0x3F94 SWAP3 SWAP2 SWAP1 PUSH2 0x3DE5 JUMP JUMPDEST POP SWAP2 PUSH1 0x20 ADD SWAP2 SWAP1 PUSH1 0x1 ADD SWAP1 PUSH2 0x3F76 JUMP JUMPDEST JUMPDEST POP SWAP1 POP PUSH2 0x3FB2 SWAP2 SWAP1 PUSH2 0x3FD3 JUMP JUMPDEST POP SWAP1 JUMP JUMPDEST JUMPDEST DUP1 DUP3 GT ISZERO PUSH2 0x3FCF JUMPI PUSH1 0x0 DUP2 PUSH1 0x0 SWAP1 SSTORE POP PUSH1 0x1 ADD PUSH2 0x3FB7 JUMP JUMPDEST POP SWAP1 JUMP JUMPDEST JUMPDEST DUP1 DUP3 GT ISZERO PUSH2 0x3FF3 JUMPI PUSH1 0x0 DUP2 DUP2 PUSH2 0x3FEA SWAP2 SWAP1 PUSH2 0x3EF5 JUMP JUMPDEST POP PUSH1 0x1 ADD PUSH2 0x3FD4 JUMP JUMPDEST POP SWAP1 JUMP JUMPDEST PUSH1 0x0 PUSH2 0x400A PUSH2 0x4005 DUP5 PUSH2 0x4B44 JUMP JUMPDEST PUSH2 0x4B1F JUMP JUMPDEST SWAP1 POP DUP3 DUP2 MSTORE PUSH1 0x20 DUP2 ADD DUP5 DUP5 DUP5 ADD GT ISZERO PUSH2 0x4026 JUMPI PUSH2 0x4025 PUSH2 0x4E61 JUMP JUMPDEST JUMPDEST PUSH2 0x4031 DUP5 DUP3 DUP6 PUSH2 0x4C83 JUMP JUMPDEST POP SWAP4 SWAP3 POP POP POP JUMP JUMPDEST PUSH1 0x0 DUP2 CALLDATALOAD SWAP1 POP PUSH2 0x4048 DUP2 PUSH2 0x4FEF JUMP JUMPDEST SWAP3 SWAP2 POP POP JUMP JUMPDEST PUSH1 0x0 DUP2 CALLDATALOAD SWAP1 POP PUSH2 0x405D DUP2 PUSH2 0x5006 JUMP JUMPDEST SWAP3 SWAP2 POP POP JUMP JUMPDEST PUSH1 0x0 DUP2 CALLDATALOAD SWAP1 POP PUSH2 0x4072 DUP2 PUSH2 0x501D JUMP JUMPDEST SWAP3 SWAP2 POP POP JUMP JUMPDEST PUSH1 0x0 DUP2 CALLDATALOAD SWAP1 POP PUSH2 0x4087 DUP2 PUSH2 0x5034 JUMP JUMPDEST SWAP3 SWAP2 POP POP JUMP JUMPDEST PUSH1 0x0 DUP3 PUSH1 0x1F DUP4 ADD SLT PUSH2 0x40A2 JUMPI PUSH2 0x40A1 PUSH2 0x4E5C JUMP JUMPDEST JUMPDEST DUP2 CALLDATALOAD PUSH2 0x40B2 DUP5 DUP3 PUSH1 0x20 DUP7 ADD PUSH2 0x3FF7 JUMP JUMPDEST SWAP2 POP POP SWAP3 SWAP2 POP POP JUMP JUMPDEST PUSH1 0x0 PUSH1 0x20 DUP3 DUP5 SUB SLT ISZERO PUSH2 0x40D1 JUMPI PUSH2 0x40D0 PUSH2 0x4E6B JUMP JUMPDEST JUMPDEST PUSH1 0x0 PUSH2 0x40DF DUP5 DUP3 DUP6 ADD PUSH2 0x4039 JUMP JUMPDEST SWAP2 POP POP SWAP3 SWAP2 POP POP JUMP JUMPDEST PUSH1 0x0 PUSH1 0x20 DUP3 DUP5 SUB SLT ISZERO PUSH2 0x40FE JUMPI PUSH2 0x40FD PUSH2 0x4E6B JUMP JUMPDEST JUMPDEST PUSH1 0x0 PUSH2 0x410C DUP5 DUP3 DUP6 ADD PUSH2 0x404E JUMP JUMPDEST SWAP2 POP POP SWAP3 SWAP2 POP POP JUMP JUMPDEST PUSH1 0x0 DUP1 PUSH1 0x0 PUSH1 0x60 DUP5 DUP7 SUB SLT ISZERO PUSH2 0x412E JUMPI PUSH2 0x412D PUSH2 0x4E6B JUMP JUMPDEST JUMPDEST PUSH1 0x0 PUSH2 0x413C DUP7 DUP3 DUP8 ADD PUSH2 0x4039 JUMP JUMPDEST SWAP4 POP POP PUSH1 0x20 DUP5 ADD CALLDATALOAD PUSH8 0xFFFFFFFFFFFFFFFF DUP2 GT ISZERO PUSH2 0x415D JUMPI PUSH2 0x415C PUSH2 0x4E66 JUMP JUMPDEST JUMPDEST PUSH2 0x4169 DUP7 DUP3 DUP8 ADD PUSH2 0x408D JUMP JUMPDEST SWAP3 POP POP PUSH1 0x40 DUP5 ADD CALLDATALOAD PUSH8 0xFFFFFFFFFFFFFFFF DUP2 GT ISZERO PUSH2 0x418A JUMPI PUSH2 0x4189 PUSH2 0x4E66 JUMP JUMPDEST JUMPDEST PUSH2 0x4196 DUP7 DUP3 DUP8 ADD PUSH2 0x408D JUMP JUMPDEST SWAP2 POP POP SWAP3 POP SWAP3 POP SWAP3 JUMP JUMPDEST PUSH1 0x0 DUP1 PUSH1 0x0 DUP1 PUSH1 0x80 DUP6 DUP8 SUB SLT ISZERO PUSH2 0x41BA JUMPI PUSH2 0x41B9 PUSH2 0x4E6B JUMP JUMPDEST JUMPDEST PUSH1 0x0 PUSH2 0x41C8 DUP8 DUP3 DUP9 ADD PUSH2 0x4039 JUMP JUMPDEST SWAP5 POP POP PUSH1 0x20 DUP6 ADD CALLDATALOAD PUSH8 0xFFFFFFFFFFFFFFFF DUP2 GT ISZERO PUSH2 0x41E9 JUMPI PUSH2 0x41E8 PUSH2 0x4E66 JUMP JUMPDEST JUMPDEST PUSH2 0x41F5 DUP8 DUP3 DUP9 ADD PUSH2 0x408D JUMP JUMPDEST SWAP4 POP POP PUSH1 0x40 DUP6 ADD CALLDATALOAD PUSH8 0xFFFFFFFFFFFFFFFF DUP2 GT ISZERO PUSH2 0x4216 JUMPI PUSH2 0x4215 PUSH2 0x4E66 JUMP JUMPDEST JUMPDEST PUSH2 0x4222 DUP8 DUP3 DUP9 ADD PUSH2 0x408D JUMP JUMPDEST SWAP3 POP POP PUSH1 0x60 PUSH2 0x4233 DUP8 DUP3 DUP9 ADD PUSH2 0x4078 JUMP JUMPDEST SWAP2 POP POP SWAP3 SWAP6 SWAP2 SWAP5 POP SWAP3 POP JUMP JUMPDEST PUSH1 0x0 PUSH1 0x20 DUP3 DUP5 SUB SLT ISZERO PUSH2 0x4255 JUMPI PUSH2 0x4254 PUSH2 0x4E6B JUMP JUMPDEST JUMPDEST PUSH1 0x0 DUP3 ADD CALLDATALOAD PUSH8 0xFFFFFFFFFFFFFFFF DUP2 GT ISZERO PUSH2 0x4273 JUMPI PUSH2 0x4272 PUSH2 0x4E66 JUMP JUMPDEST JUMPDEST PUSH2 0x427F DUP5 DUP3 DUP6 ADD PUSH2 0x408D JUMP JUMPDEST SWAP2 POP POP SWAP3 SWAP2 POP POP JUMP JUMPDEST PUSH1 0x0 DUP1 PUSH1 0x40 DUP4 DUP6 SUB SLT ISZERO PUSH2 0x429F JUMPI PUSH2 0x429E PUSH2 0x4E6B JUMP JUMPDEST JUMPDEST PUSH1 0x0 DUP4 ADD CALLDATALOAD PUSH8 0xFFFFFFFFFFFFFFFF DUP2 GT ISZERO PUSH2 0x42BD JUMPI PUSH2 0x42BC PUSH2 0x4E66 JUMP JUMPDEST JUMPDEST PUSH2 0x42C9 DUP6 DUP3 DUP7 ADD PUSH2 0x408D JUMP JUMPDEST SWAP3 POP POP PUSH1 0x20 PUSH2 0x42DA DUP6 DUP3 DUP7 ADD PUSH2 0x4039 JUMP JUMPDEST SWAP2 POP POP SWAP3 POP SWAP3 SWAP1 POP JUMP JUMPDEST PUSH1 0x0 DUP1 PUSH1 0x40 DUP4 DUP6 SUB SLT ISZERO PUSH2 0x42FB JUMPI PUSH2 0x42FA PUSH2 0x4E6B JUMP JUMPDEST JUMPDEST PUSH1 0x0 DUP4 ADD CALLDATALOAD PUSH8 0xFFFFFFFFFFFFFFFF DUP2 GT ISZERO PUSH2 0x4319 JUMPI PUSH2 0x4318 PUSH2 0x4E66 JUMP JUMPDEST JUMPDEST PUSH2 0x4325 DUP6 DUP3 DUP7 ADD PUSH2 0x408D JUMP JUMPDEST SWAP3 POP POP PUSH1 0x20 PUSH2 0x4336 DUP6 DUP3 DUP7 ADD PUSH2 0x4063 JUMP JUMPDEST SWAP2 POP POP SWAP3 POP SWAP3 SWAP1 POP JUMP JUMPDEST PUSH1 0x0 DUP1 PUSH1 0x40 DUP4 DUP6 SUB SLT ISZERO PUSH2 0x4357 JUMPI PUSH2 0x4356 PUSH2 0x4E6B JUMP JUMPDEST JUMPDEST PUSH1 0x0 DUP4 ADD CALLDATALOAD PUSH8 0xFFFFFFFFFFFFFFFF DUP2 GT ISZERO PUSH2 0x4375 JUMPI PUSH2 0x4374 PUSH2 0x4E66 JUMP JUMPDEST JUMPDEST PUSH2 0x4381 DUP6 DUP3 DUP7 ADD PUSH2 0x408D JUMP JUMPDEST SWAP3 POP POP PUSH1 0x20 DUP4 ADD CALLDATALOAD PUSH8 0xFFFFFFFFFFFFFFFF DUP2 GT ISZERO PUSH2 0x43A2 JUMPI PUSH2 0x43A1 PUSH2 0x4E66 JUMP JUMPDEST JUMPDEST PUSH2 0x43AE DUP6 DUP3 DUP7 ADD PUSH2 0x408D JUMP JUMPDEST SWAP2 POP POP SWAP3 POP SWAP3 SWAP1 POP JUMP JUMPDEST PUSH1 0x0 DUP1 PUSH1 0x0 PUSH1 0x60 DUP5 DUP7 SUB SLT ISZERO PUSH2 0x43D1 JUMPI PUSH2 0x43D0 PUSH2 0x4E6B JUMP JUMPDEST JUMPDEST PUSH1 0x0 DUP5 ADD CALLDATALOAD PUSH8 0xFFFFFFFFFFFFFFFF DUP2 GT ISZERO PUSH2 0x43EF JUMPI PUSH2 0x43EE PUSH2 0x4E66 JUMP JUMPDEST JUMPDEST PUSH2 0x43FB DUP7 DUP3 DUP8 ADD PUSH2 0x408D JUMP JUMPDEST SWAP4 POP POP PUSH1 0x20 DUP5 ADD CALLDATALOAD PUSH8 0xFFFFFFFFFFFFFFFF DUP2 GT ISZERO PUSH2 0x441C JUMPI PUSH2 0x441B PUSH2 0x4E66 JUMP JUMPDEST JUMPDEST PUSH2 0x4428 DUP7 DUP3 DUP8 ADD PUSH2 0x408D JUMP JUMPDEST SWAP3 POP POP PUSH1 0x40 PUSH2 0x4439 DUP7 DUP3 DUP8 ADD PUSH2 0x4039 JUMP JUMPDEST SWAP2 POP POP SWAP3 POP SWAP3 POP SWAP3 JUMP JUMPDEST PUSH1 0x0 DUP1 PUSH1 0x0 DUP1 PUSH1 0x80 DUP6 DUP8 SUB SLT ISZERO PUSH2 0x445D JUMPI PUSH2 0x445C PUSH2 0x4E6B JUMP JUMPDEST JUMPDEST PUSH1 0x0 DUP6 ADD CALLDATALOAD PUSH8 0xFFFFFFFFFFFFFFFF DUP2 GT ISZERO PUSH2 0x447B JUMPI PUSH2 0x447A PUSH2 0x4E66 JUMP JUMPDEST JUMPDEST PUSH2 0x4487 DUP8 DUP3 DUP9 ADD PUSH2 0x408D JUMP JUMPDEST SWAP5 POP POP PUSH1 0x20 DUP6 ADD CALLDATALOAD PUSH8 0xFFFFFFFFFFFFFFFF DUP2 GT ISZERO PUSH2 0x44A8 JUMPI PUSH2 0x44A7 PUSH2 0x4E66 JUMP JUMPDEST JUMPDEST PUSH2 0x44B4 DUP8 DUP3 DUP9 ADD PUSH2 0x408D JUMP JUMPDEST SWAP4 POP POP PUSH1 0x40 PUSH2 0x44C5 DUP8 DUP3 DUP9 ADD PUSH2 0x4039 JUMP JUMPDEST SWAP3 POP POP PUSH1 0x60 PUSH2 0x44D6 DUP8 DUP3 DUP9 ADD PUSH2 0x4039 JUMP JUMPDEST SWAP2 POP POP SWAP3 SWAP6 SWAP2 SWAP5 POP SWAP3 POP JUMP JUMPDEST PUSH1 0x0 PUSH2 0x44EE DUP4 DUP4 PUSH2 0x450E JUMP JUMPDEST PUSH1 0x20 DUP4 ADD SWAP1 POP SWAP3 SWAP2 POP POP JUMP JUMPDEST PUSH1 0x0 PUSH2 0x4506 DUP4 DUP4 PUSH2 0x460E JUMP JUMPDEST SWAP1 POP SWAP3 SWAP2 POP POP JUMP JUMPDEST PUSH2 0x4517 DUP2 PUSH2 0x4C1F JUMP JUMPDEST DUP3 MSTORE POP POP JUMP JUMPDEST PUSH2 0x4526 DUP2 PUSH2 0x4C1F JUMP JUMPDEST DUP3 MSTORE POP POP JUMP JUMPDEST PUSH1 0x0 PUSH2 0x4537 DUP3 PUSH2 0x4B95 JUMP JUMPDEST PUSH2 0x4541 DUP2 DUP6 PUSH2 0x4BD0 JUMP JUMPDEST SWAP4 POP PUSH2 0x454C DUP4 PUSH2 0x4B75 JUMP JUMPDEST DUP1 PUSH1 0x0 JUMPDEST DUP4 DUP2 LT ISZERO PUSH2 0x457D JUMPI DUP2 MLOAD PUSH2 0x4564 DUP9 DUP3 PUSH2 0x44E2 JUMP JUMPDEST SWAP8 POP PUSH2 0x456F DUP4 PUSH2 0x4BB6 JUMP JUMPDEST SWAP3 POP POP PUSH1 0x1 DUP2 ADD SWAP1 POP PUSH2 0x4550 JUMP JUMPDEST POP DUP6 SWAP4 POP POP POP POP SWAP3 SWAP2 POP POP JUMP JUMPDEST PUSH1 0x0 PUSH2 0x4595 DUP3 PUSH2 0x4BA0 JUMP JUMPDEST PUSH2 0x459F DUP2 DUP6 PUSH2 0x4BE1 JUMP JUMPDEST SWAP4 POP DUP4 PUSH1 0x20 DUP3 MUL DUP6 ADD PUSH2 0x45B1 DUP6 PUSH2 0x4B85 JUMP JUMPDEST DUP1 PUSH1 0x0 JUMPDEST DUP6 DUP2 LT ISZERO PUSH2 0x45ED JUMPI DUP5 DUP5 SUB DUP10 MSTORE DUP2 MLOAD PUSH2 0x45CE DUP6 DUP3 PUSH2 0x44FA JUMP JUMPDEST SWAP5 POP PUSH2 0x45D9 DUP4 PUSH2 0x4BC3 JUMP JUMPDEST SWAP3 POP PUSH1 0x20 DUP11 ADD SWAP10 POP POP PUSH1 0x1 DUP2 ADD SWAP1 POP PUSH2 0x45B5 JUMP JUMPDEST POP DUP3 SWAP8 POP DUP8 SWAP6 POP POP POP POP POP POP SWAP3 SWAP2 POP POP JUMP JUMPDEST PUSH2 0x4608 DUP2 PUSH2 0x4C4F JUMP JUMPDEST DUP3 MSTORE POP POP JUMP JUMPDEST PUSH1 0x0 PUSH2 0x4619 DUP3 PUSH2 0x4BAB JUMP JUMPDEST PUSH2 0x4623 DUP2 DUP6 PUSH2 0x4BF2 JUMP JUMPDEST SWAP4 POP PUSH2 0x4633 DUP2 DUP6 PUSH1 0x20 DUP7 ADD PUSH2 0x4C92 JUMP JUMPDEST PUSH2 0x463C DUP2 PUSH2 0x4E70 JUMP JUMPDEST DUP5 ADD SWAP2 POP POP SWAP3 SWAP2 POP POP JUMP JUMPDEST PUSH1 0x0 PUSH2 0x4652 DUP3 PUSH2 0x4BAB JUMP JUMPDEST PUSH2 0x465C DUP2 DUP6 PUSH2 0x4C03 JUMP JUMPDEST SWAP4 POP PUSH2 0x466C DUP2 DUP6 PUSH1 0x20 DUP7 ADD PUSH2 0x4C92 JUMP JUMPDEST PUSH2 0x4675 DUP2 PUSH2 0x4E70 JUMP JUMPDEST DUP5 ADD SWAP2 POP POP SWAP3 SWAP2 POP POP JUMP JUMPDEST PUSH1 0x0 PUSH2 0x468B DUP3 PUSH2 0x4BAB JUMP JUMPDEST PUSH2 0x4695 DUP2 DUP6 PUSH2 0x4C14 JUMP JUMPDEST SWAP4 POP PUSH2 0x46A5 DUP2 DUP6 PUSH1 0x20 DUP7 ADD PUSH2 0x4C92 JUMP JUMPDEST DUP1 DUP5 ADD SWAP2 POP POP SWAP3 SWAP2 POP POP JUMP JUMPDEST PUSH1 0x0 PUSH2 0x46BE PUSH1 0x1B DUP4 PUSH2 0x4C03 JUMP JUMPDEST SWAP2 POP PUSH2 0x46C9 DUP3 PUSH2 0x4E81 JUMP JUMPDEST PUSH1 0x20 DUP3 ADD SWAP1 POP SWAP2 SWAP1 POP JUMP JUMPDEST PUSH1 0x0 PUSH2 0x46E1 PUSH1 0x22 DUP4 PUSH2 0x4C03 JUMP JUMPDEST SWAP2 POP PUSH2 0x46EC DUP3 PUSH2 0x4EAA JUMP JUMPDEST PUSH1 0x40 DUP3 ADD SWAP1 POP SWAP2 SWAP1 POP JUMP JUMPDEST PUSH1 0x0 PUSH2 0x4704 PUSH1 0xB DUP4 PUSH2 0x4C03 JUMP JUMPDEST SWAP2 POP PUSH2 0x470F DUP3 PUSH2 0x4EF9 JUMP JUMPDEST PUSH1 0x20 DUP3 ADD SWAP1 POP SWAP2 SWAP1 POP JUMP JUMPDEST PUSH1 0x0 PUSH2 0x4727 PUSH1 0x9 DUP4 PUSH2 0x4C03 JUMP JUMPDEST SWAP2 POP PUSH2 0x4732 DUP3 PUSH2 0x4F22 JUMP JUMPDEST PUSH1 0x20 DUP3 ADD SWAP1 POP SWAP2 SWAP1 POP JUMP JUMPDEST PUSH1 0x0 PUSH2 0x474A PUSH1 0xC DUP4 PUSH2 0x4C03 JUMP JUMPDEST SWAP2 POP PUSH2 0x4755 DUP3 PUSH2 0x4F4B JUMP JUMPDEST PUSH1 0x20 DUP3 ADD SWAP1 POP SWAP2 SWAP1 POP JUMP JUMPDEST PUSH1 0x0 PUSH2 0x476D PUSH1 0xD DUP4 PUSH2 0x4C03 JUMP JUMPDEST SWAP2 POP PUSH2 0x4778 DUP3 PUSH2 0x4F74 JUMP JUMPDEST PUSH1 0x20 DUP3 ADD SWAP1 POP SWAP2 SWAP1 POP JUMP JUMPDEST PUSH1 0x0 PUSH2 0x4790 PUSH1 0x16 DUP4 PUSH2 0x4C03 JUMP JUMPDEST SWAP2 POP PUSH2 0x479B DUP3 PUSH2 0x4F9D JUMP JUMPDEST PUSH1 0x20 DUP3 ADD SWAP1 POP SWAP2 SWAP1 POP JUMP JUMPDEST PUSH1 0x0 PUSH2 0x47B3 PUSH1 0xB DUP4 PUSH2 0x4C03 JUMP JUMPDEST SWAP2 POP PUSH2 0x47BE DUP3 PUSH2 0x4FC6 JUMP JUMPDEST PUSH1 0x20 DUP3 ADD SWAP1 POP SWAP2 SWAP1 POP JUMP JUMPDEST PUSH2 0x47D2 DUP2 PUSH2 0x4C79 JUMP JUMPDEST DUP3 MSTORE POP POP JUMP JUMPDEST PUSH1 0x0 PUSH2 0x47E4 DUP3 DUP5 PUSH2 0x4680 JUMP JUMPDEST SWAP2 POP DUP2 SWAP1 POP SWAP3 SWAP2 POP POP JUMP JUMPDEST PUSH1 0x0 PUSH1 0xC0 DUP3 ADD SWAP1 POP PUSH2 0x4804 PUSH1 0x0 DUP4 ADD DUP10 PUSH2 0x451D JUMP JUMPDEST PUSH2 0x4811 PUSH1 0x20 DUP4 ADD DUP9 PUSH2 0x451D JUMP JUMPDEST DUP2 DUP2 SUB PUSH1 0x40 DUP4 ADD MSTORE PUSH2 0x4823 DUP2 DUP8 PUSH2 0x4647 JUMP JUMPDEST SWAP1 POP PUSH2 0x4832 PUSH1 0x60 DUP4 ADD DUP7 PUSH2 0x47C9 JUMP JUMPDEST PUSH2 0x483F PUSH1 0x80 DUP4 ADD DUP6 PUSH2 0x47C9 JUMP JUMPDEST PUSH2 0x484C PUSH1 0xA0 DUP4 ADD DUP5 PUSH2 0x45FF JUMP JUMPDEST SWAP8 SWAP7 POP POP POP POP POP POP POP JUMP JUMPDEST PUSH1 0x0 PUSH1 0x40 DUP3 ADD SWAP1 POP PUSH2 0x486C PUSH1 0x0 DUP4 ADD DUP6 PUSH2 0x451D JUMP JUMPDEST DUP2 DUP2 SUB PUSH1 0x20 DUP4 ADD MSTORE PUSH2 0x487E DUP2 DUP5 PUSH2 0x4647 JUMP JUMPDEST SWAP1 POP SWAP4 SWAP3 POP POP POP JUMP JUMPDEST PUSH1 0x0 PUSH1 0x60 DUP3 ADD SWAP1 POP PUSH2 0x489C PUSH1 0x0 DUP4 ADD DUP7 PUSH2 0x451D JUMP JUMPDEST DUP2 DUP2 SUB PUSH1 0x20 DUP4 ADD MSTORE PUSH2 0x48AE DUP2 DUP6 PUSH2 0x4647 JUMP JUMPDEST SWAP1 POP DUP2 DUP2 SUB PUSH1 0x40 DUP4 ADD MSTORE PUSH2 0x48C2 DUP2 DUP5 PUSH2 0x4647 JUMP JUMPDEST SWAP1 POP SWAP5 SWAP4 POP POP POP POP JUMP JUMPDEST PUSH1 0x0 PUSH1 0x20 DUP3 ADD SWAP1 POP DUP2 DUP2 SUB PUSH1 0x0 DUP4 ADD MSTORE PUSH2 0x48E6 DUP2 DUP5 PUSH2 0x458A JUMP JUMPDEST SWAP1 POP SWAP3 SWAP2 POP POP JUMP JUMPDEST PUSH1 0x0 PUSH1 0x80 DUP3 ADD SWAP1 POP DUP2 DUP2 SUB PUSH1 0x0 DUP4 ADD MSTORE PUSH2 0x4908 DUP2 DUP8 PUSH2 0x4647 JUMP JUMPDEST SWAP1 POP DUP2 DUP2 SUB PUSH1 0x20 DUP4 ADD MSTORE PUSH2 0x491C DUP2 DUP7 PUSH2 0x458A JUMP JUMPDEST SWAP1 POP DUP2 DUP2 SUB PUSH1 0x40 DUP4 ADD MSTORE PUSH2 0x4930 DUP2 DUP6 PUSH2 0x458A JUMP JUMPDEST SWAP1 POP DUP2 DUP2 SUB PUSH1 0x60 DUP4 ADD MSTORE PUSH2 0x4944 DUP2 DUP5 PUSH2 0x452C JUMP JUMPDEST SWAP1 POP SWAP6 SWAP5 POP POP POP POP POP JUMP JUMPDEST PUSH1 0x0 PUSH1 0xA0 DUP3 ADD SWAP1 POP DUP2 DUP2 SUB PUSH1 0x0 DUP4 ADD MSTORE PUSH2 0x4969 DUP2 DUP9 PUSH2 0x4647 JUMP JUMPDEST SWAP1 POP DUP2 DUP2 SUB PUSH1 0x20 DUP4 ADD MSTORE PUSH2 0x497D DUP2 DUP8 PUSH2 0x4647 JUMP JUMPDEST SWAP1 POP DUP2 DUP2 SUB PUSH1 0x40 DUP4 ADD MSTORE PUSH2 0x4991 DUP2 DUP7 PUSH2 0x4647 JUMP JUMPDEST SWAP1 POP DUP2 DUP2 SUB PUSH1 0x60 DUP4 ADD MSTORE PUSH2 0x49A5 DUP2 DUP6 PUSH2 0x4647 JUMP JUMPDEST SWAP1 POP DUP2 DUP2 SUB PUSH1 0x80 DUP4 ADD MSTORE PUSH2 0x49B9 DUP2 DUP5 PUSH2 0x458A JUMP JUMPDEST SWAP1 POP SWAP7 SWAP6 POP POP POP POP POP POP JUMP JUMPDEST PUSH1 0x0 PUSH1 0x80 DUP3 ADD SWAP1 POP DUP2 DUP2 SUB PUSH1 0x0 DUP4 ADD MSTORE PUSH2 0x49DF DUP2 DUP8 PUSH2 0x4647 JUMP JUMPDEST SWAP1 POP DUP2 DUP2 SUB PUSH1 0x20 DUP4 ADD MSTORE PUSH2 0x49F3 DUP2 DUP7 PUSH2 0x4647 JUMP JUMPDEST SWAP1 POP PUSH2 0x4A02 PUSH1 0x40 DUP4 ADD DUP6 PUSH2 0x47C9 JUMP JUMPDEST DUP2 DUP2 SUB PUSH1 0x60 DUP4 ADD MSTORE PUSH2 0x4A14 DUP2 DUP5 PUSH2 0x458A JUMP JUMPDEST SWAP1 POP SWAP6 SWAP5 POP POP POP POP POP JUMP JUMPDEST PUSH1 0x0 PUSH1 0x20 DUP3 ADD SWAP1 POP DUP2 DUP2 SUB PUSH1 0x0 DUP4 ADD MSTORE PUSH2 0x4A38 DUP2 PUSH2 0x46B1 JUMP JUMPDEST SWAP1 POP SWAP2 SWAP1 POP JUMP JUMPDEST PUSH1 0x0 PUSH1 0x20 DUP3 ADD SWAP1 POP DUP2 DUP2 SUB PUSH1 0x0 DUP4 ADD MSTORE PUSH2 0x4A58 DUP2 PUSH2 0x46D4 JUMP JUMPDEST SWAP1 POP SWAP2 SWAP1 POP JUMP JUMPDEST PUSH1 0x0 PUSH1 0x20 DUP3 ADD SWAP1 POP DUP2 DUP2 SUB PUSH1 0x0 DUP4 ADD MSTORE PUSH2 0x4A78 DUP2 PUSH2 0x46F7 JUMP JUMPDEST SWAP1 POP SWAP2 SWAP1 POP JUMP JUMPDEST PUSH1 0x0 PUSH1 0x20 DUP3 ADD SWAP1 POP DUP2 DUP2 SUB PUSH1 0x0 DUP4 ADD MSTORE PUSH2 0x4A98 DUP2 PUSH2 0x471A JUMP JUMPDEST SWAP1 POP SWAP2 SWAP1 POP JUMP JUMPDEST PUSH1 0x0 PUSH1 0x20 DUP3 ADD SWAP1 POP DUP2 DUP2 SUB PUSH1 0x0 DUP4 ADD MSTORE PUSH2 0x4AB8 DUP2 PUSH2 0x473D JUMP JUMPDEST SWAP1 POP SWAP2 SWAP1 POP JUMP JUMPDEST PUSH1 0x0 PUSH1 0x20 DUP3 ADD SWAP1 POP DUP2 DUP2 SUB PUSH1 0x0 DUP4 ADD MSTORE PUSH2 0x4AD8 DUP2 PUSH2 0x4760 JUMP JUMPDEST SWAP1 POP SWAP2 SWAP1 POP JUMP JUMPDEST PUSH1 0x0 PUSH1 0x20 DUP3 ADD SWAP1 POP DUP2 DUP2 SUB PUSH1 0x0 DUP4 ADD MSTORE PUSH2 0x4AF8 DUP2 PUSH2 0x4783 JUMP JUMPDEST SWAP1 POP SWAP2 SWAP1 POP JUMP JUMPDEST PUSH1 0x0 PUSH1 0x20 DUP3 ADD SWAP1 POP DUP2 DUP2 SUB PUSH1 0x0 DUP4 ADD MSTORE PUSH2 0x4B18 DUP2 PUSH2 0x47A6 JUMP JUMPDEST SWAP1 POP SWAP2 SWAP1 POP JUMP JUMPDEST PUSH1 0x0 PUSH2 0x4B29 PUSH2 0x4B3A JUMP JUMPDEST SWAP1 POP PUSH2 0x4B35 DUP3 DUP3 PUSH2 0x4CF7 JUMP JUMPDEST SWAP2 SWAP1 POP JUMP JUMPDEST PUSH1 0x0 PUSH1 0x40 MLOAD SWAP1 POP SWAP1 JUMP JUMPDEST PUSH1 0x0 PUSH8 0xFFFFFFFFFFFFFFFF DUP3 GT ISZERO PUSH2 0x4B5F JUMPI PUSH2 0x4B5E PUSH2 0x4E2D JUMP JUMPDEST JUMPDEST PUSH2 0x4B68 DUP3 PUSH2 0x4E70 JUMP JUMPDEST SWAP1 POP PUSH1 0x20 DUP2 ADD SWAP1 POP SWAP2 SWAP1 POP JUMP JUMPDEST PUSH1 0x0 DUP2 SWAP1 POP PUSH1 0x20 DUP3 ADD SWAP1 POP SWAP2 SWAP1 POP JUMP JUMPDEST PUSH1 0x0 DUP2 SWAP1 POP PUSH1 0x20 DUP3 ADD SWAP1 POP SWAP2 SWAP1 POP JUMP JUMPDEST PUSH1 0x0 DUP2 MLOAD SWAP1 POP SWAP2 SWAP1 POP JUMP JUMPDEST PUSH1 0x0 DUP2 MLOAD SWAP1 POP SWAP2 SWAP1 POP JUMP JUMPDEST PUSH1 0x0 DUP2 MLOAD SWAP1 POP SWAP2 SWAP1 POP JUMP JUMPDEST PUSH1 0x0 PUSH1 0x20 DUP3 ADD SWAP1 POP SWAP2 SWAP1 POP JUMP JUMPDEST PUSH1 0x0 PUSH1 0x20 DUP3 ADD SWAP1 POP SWAP2 SWAP1 POP JUMP JUMPDEST PUSH1 0x0 DUP3 DUP3 MSTORE PUSH1 0x20 DUP3 ADD SWAP1 POP SWAP3 SWAP2 POP POP JUMP JUMPDEST PUSH1 0x0 DUP3 DUP3 MSTORE PUSH1 0x20 DUP3 ADD SWAP1 POP SWAP3 SWAP2 POP POP JUMP JUMPDEST PUSH1 0x0 DUP3 DUP3 MSTORE PUSH1 0x20 DUP3 ADD SWAP1 POP SWAP3 SWAP2 POP POP JUMP JUMPDEST PUSH1 0x0 DUP3 DUP3 MSTORE PUSH1 0x20 DUP3 ADD SWAP1 POP SWAP3 SWAP2 POP POP JUMP JUMPDEST PUSH1 0x0 DUP2 SWAP1 POP SWAP3 SWAP2 POP POP JUMP JUMPDEST PUSH1 0x0 PUSH2 0x4C2A DUP3 PUSH2 0x4C59 JUMP JUMPDEST SWAP1 POP SWAP2 SWAP1 POP JUMP JUMPDEST PUSH1 0x0 PUSH2 0x4C3C DUP3 PUSH2 0x4C59 JUMP JUMPDEST SWAP1 POP SWAP2 SWAP1 POP JUMP JUMPDEST PUSH1 0x0 DUP2 ISZERO ISZERO SWAP1 POP SWAP2 SWAP1 POP JUMP JUMPDEST PUSH1 0x0 DUP2 SWAP1 POP SWAP2 SWAP1 POP JUMP JUMPDEST PUSH1 0x0 PUSH20 0xFFFFFFFFFFFFFFFFFFFFFFFFFFFFFFFFFFFFFFFF DUP3 AND SWAP1 POP SWAP2 SWAP1 POP JUMP JUMPDEST PUSH1 0x0 DUP2 SWAP1 POP SWAP2 SWAP1 POP JUMP JUMPDEST DUP3 DUP2 DUP4 CALLDATACOPY PUSH1 0x0 DUP4 DUP4 ADD MSTORE POP POP POP JUMP JUMPDEST PUSH1 0x0 JUMPDEST DUP4 DUP2 LT ISZERO PUSH2 0x4CB0 JUMPI DUP1 DUP3 ADD MLOAD DUP2 DUP5 ADD MSTORE PUSH1 0x20 DUP2 ADD SWAP1 POP PUSH2 0x4C95 JUMP JUMPDEST DUP4 DUP2 GT ISZERO PUSH2 0x4CBF JUMPI PUSH1 0x0 DUP5 DUP5 ADD MSTORE JUMPDEST POP POP POP POP JUMP JUMPDEST PUSH1 0x0 PUSH1 0x2 DUP3 DIV SWAP1 POP PUSH1 0x1 DUP3 AND DUP1 PUSH2 0x4CDD JUMPI PUSH1 0x7F DUP3 AND SWAP2 POP JUMPDEST PUSH1 0x20 DUP3 LT DUP2 EQ ISZERO PUSH2 0x4CF1 JUMPI PUSH2 0x4CF0 PUSH2 0x4DCF JUMP JUMPDEST JUMPDEST POP SWAP2 SWAP1 POP JUMP JUMPDEST PUSH2 0x4D00 DUP3 PUSH2 0x4E70 JUMP JUMPDEST DUP2 ADD DUP2 DUP2 LT PUSH8 0xFFFFFFFFFFFFFFFF DUP3 GT OR ISZERO PUSH2 0x4D1F JUMPI PUSH2 0x4D1E PUSH2 0x4E2D JUMP JUMPDEST JUMPDEST DUP1 PUSH1 0x40 MSTORE POP POP POP JUMP JUMPDEST PUSH1 0x0 PUSH2 0x4D33 DUP3 PUSH2 0x4C79 JUMP JUMPDEST SWAP2 POP PUSH32 0xFFFFFFFFFFFFFFFFFFFFFFFFFFFFFFFFFFFFFFFFFFFFFFFFFFFFFFFFFFFFFFFF DUP3 EQ ISZERO PUSH2 0x4D66 JUMPI PUSH2 0x4D65 PUSH2 0x4D71 JUMP JUMPDEST JUMPDEST PUSH1 0x1 DUP3 ADD SWAP1 POP SWAP2 SWAP1 POP JUMP JUMPDEST PUSH32 0x4E487B7100000000000000000000000000000000000000000000000000000000 PUSH1 0x0 MSTORE PUSH1 0x11 PUSH1 0x4 MSTORE PUSH1 0x24 PUSH1 0x0 REVERT JUMPDEST PUSH32 0x4E487B7100000000000000000000000000000000000000000000000000000000 PUSH1 0x0 MSTORE PUSH1 0x21 PUSH1 0x4 MSTORE PUSH1 0x24 PUSH1 0x0 REVERT JUMPDEST PUSH32 0x4E487B7100000000000000000000000000000000000000000000000000000000 PUSH1 0x0 MSTORE PUSH1 0x22 PUSH1 0x4 MSTORE PUSH1 0x24 PUSH1 0x0 REVERT JUMPDEST PUSH32 0x4E487B7100000000000000000000000000000000000000000000000000000000 PUSH1 0x0 MSTORE PUSH1 0x32 PUSH1 0x4 MSTORE PUSH1 0x24 PUSH1 0x0 REVERT JUMPDEST PUSH32 0x4E487B7100000000000000000000000000000000000000000000000000000000 PUSH1 0x0 MSTORE PUSH1 0x41 PUSH1 0x4 MSTORE PUSH1 0x24 PUSH1 0x0 REVERT JUMPDEST PUSH1 0x0 DUP1 REVERT JUMPDEST PUSH1 0x0 DUP1 REVERT JUMPDEST PUSH1 0x0 DUP1 REVERT JUMPDEST PUSH1 0x0 DUP1 REVERT JUMPDEST PUSH1 0x0 PUSH1 0x1F NOT PUSH1 0x1F DUP4 ADD AND SWAP1 POP SWAP2 SWAP1 POP JUMP JUMPDEST PUSH32 0x596F7520616C726561647920636865636B207468697320636173650000000000 PUSH1 0x0 DUP3 ADD MSTORE POP JUMP JUMPDEST PUSH32 0x596F7572206C6F67696E20616C726561647920657869737420696E2073797374 PUSH1 0x0 DUP3 ADD MSTORE PUSH32 0x656D000000000000000000000000000000000000000000000000000000000000 PUSH1 0x20 DUP3 ADD MSTORE POP JUMP JUMPDEST PUSH32 0x4C6F772062616C616E6365000000000000000000000000000000000000000000 PUSH1 0x0 DUP3 ADD MSTORE POP JUMP JUMPDEST PUSH32 0x466F7262696464656E0000000000000000000000000000000000000000000000 PUSH1 0x0 DUP3 ADD MSTORE POP JUMP JUMPDEST PUSH32 0x596F75206E6F7420757365720000000000000000000000000000000000000000 PUSH1 0x0 DUP3 ADD MSTORE POP JUMP JUMPDEST PUSH32 0x596F75206E6F742061646D696E00000000000000000000000000000000000000 PUSH1 0x0 DUP3 ADD MSTORE POP JUMP JUMPDEST PUSH32 0x596F7520616C7265616479207265676973746572656400000000000000000000 PUSH1 0x0 DUP3 ADD MSTORE POP JUMP JUMPDEST PUSH32 0x57726F6E67204C6F67696E000000000000000000000000000000000000000000 PUSH1 0x0 DUP3 ADD MSTORE POP JUMP JUMPDEST PUSH2 0x4FF8 DUP2 PUSH2 0x4C1F JUMP JUMPDEST DUP2 EQ PUSH2 0x5003 JUMPI PUSH1 0x0 DUP1 REVERT JUMPDEST POP JUMP JUMPDEST PUSH2 0x500F DUP2 PUSH2 0x4C31 JUMP JUMPDEST DUP2 EQ PUSH2 0x501A JUMPI PUSH1 0x0 DUP1 REVERT JUMPDEST POP JUMP JUMPDEST PUSH2 0x5026 DUP2 PUSH2 0x4C43 JUMP JUMPDEST DUP2 EQ PUSH2 0x5031 JUMPI PUSH1 0x0 DUP1 REVERT JUMPDEST POP JUMP JUMPDEST PUSH2 0x503D DUP2 PUSH2 0x4C4F JUMP JUMPDEST DUP2 EQ PUSH2 0x5048 JUMPI PUSH1 0x0 DUP1 REVERT JUMPDEST POP JUMP INVALID LOG2 PUSH5 0x6970667358 0x22 SLT KECCAK256 PUSH28 0x314F66819DD45374F68B163C9E9E4093E9A52A08689565AC6F153AFC 0xAF LOG3 DUP13 PUSH5 0x736F6C6343 STOP ADDMOD SMOD STOP CALLER "
				},
				"gasEstimates": {
					"creation": {
						"codeDepositCost": "4121800",
						"executionCost": "infinite",
						"totalCost": "infinite"
					},
					"external": {
						"checkRequest(string,bool)": "infinite",
						"createReview(address,string,string,int256)": "infinite",
						"deleteShop(address)": "infinite",
						"disLikeReview(string)": "infinite",
						"doShopDebt(address)": "infinite",
						"downRequestToByer(string)": "infinite",
						"getAdminInfo()": "infinite",
						"getAllRequests()": "infinite",
						"getBuyerInfo()": "infinite",
						"getRequestById(string)": "infinite",
						"getReviewById(string)": "infinite",
						"getSellerInfo()": "infinite",
						"getSellerInfoByAddr(address)": "infinite",
						"likeReview(string)": "infinite",
						"login(string)": "infinite",
						"regAdmin(address,string,string)": "infinite",
						"registerAdmin(string,string)": "infinite",
						"registerBank(string,address)": "infinite",
						"registerBuyer(string,string,address)": "infinite",
						"registerProvider(string,address)": "infinite",
						"registerSeller(string,string,address,address)": "infinite",
						"registerShop(address,string,string)": "infinite",
						"requestToSeller(string)": "infinite"
					}
				},
				"methodIdentifiers": {
					"checkRequest(string,bool)": "2059b7ad",
					"createReview(address,string,string,int256)": "2d6abf59",
					"deleteShop(address)": "e7bfea50",
					"disLikeReview(string)": "bce62a74",
					"doShopDebt(address)": "83db0f6d",
					"downRequestToByer(string)": "b038316c",
					"getAdminInfo()": "c3d5fd39",
					"getAllRequests()": "fb1a002a",
					"getBuyerInfo()": "99b958ee",
					"getRequestById(string)": "dffc8b06",
					"getReviewById(string)": "2f0185c4",
					"getSellerInfo()": "54504c12",
					"getSellerInfoByAddr(address)": "08e74858",
					"likeReview(string)": "7b3c7488",
					"login(string)": "3a7d280c",
					"regAdmin(address,string,string)": "a59d105f",
					"registerAdmin(string,string)": "f8f98b79",
					"registerBank(string,address)": "2156a781",
					"registerBuyer(string,string,address)": "9d344d10",
					"registerProvider(string,address)": "7ccb2bd8",
					"registerSeller(string,string,address,address)": "8403f848",
					"registerShop(address,string,string)": "53082b13",
					"requestToSeller(string)": "ac6fa7c3"
				}
			},
			"storageLayout": {
				"storage": [
					{
						"astId": 37,
						"contract": "contracts/Shops.sol:ShopsSystem",
						"label": "userStatus",
						"offset": 0,
						"slot": "0",
						"type": "t_mapping(t_uint256,t_string_storage)"
					},
					{
						"astId": 41,
						"contract": "contracts/Shops.sol:ShopsSystem",
						"label": "userLogins",
						"offset": 0,
						"slot": "1",
						"type": "t_mapping(t_string_memory_ptr,t_address)"
					},
					{
						"astId": 46,
						"contract": "contracts/Shops.sol:ShopsSystem",
						"label": "users",
						"offset": 0,
						"slot": "2",
						"type": "t_mapping(t_address,t_struct(User)33_storage)"
					},
					{
						"astId": 336,
						"contract": "contracts/Shops.sol:ShopsSystem",
						"label": "likeCountCheck",
						"offset": 0,
						"slot": "3",
						"type": "t_mapping(t_address,t_bool)"
					},
					{
						"astId": 338,
						"contract": "contracts/Shops.sol:ShopsSystem",
						"label": "provider",
						"offset": 0,
						"slot": "4",
						"type": "t_address"
					},
					{
						"astId": 340,
						"contract": "contracts/Shops.sol:ShopsSystem",
						"label": "admin",
						"offset": 0,
						"slot": "5",
						"type": "t_address"
					},
					{
						"astId": 343,
						"contract": "contracts/Shops.sol:ShopsSystem",
						"label": "admins",
						"offset": 0,
						"slot": "6",
						"type": "t_array(t_string_storage)dyn_storage"
					},
					{
						"astId": 345,
						"contract": "contracts/Shops.sol:ShopsSystem",
						"label": "bank",
						"offset": 0,
						"slot": "7",
						"type": "t_address_payable"
					},
					{
						"astId": 348,
						"contract": "contracts/Shops.sol:ShopsSystem",
						"label": "sellers",
						"offset": 0,
						"slot": "8",
						"type": "t_array(t_address)dyn_storage"
					},
					{
						"astId": 351,
						"contract": "contracts/Shops.sol:ShopsSystem",
						"label": "requests",
						"offset": 0,
						"slot": "9",
						"type": "t_array(t_string_storage)dyn_storage"
					},
					{
						"astId": 356,
						"contract": "contracts/Shops.sol:ShopsSystem",
						"label": "ShopsList",
						"offset": 0,
						"slot": "10",
						"type": "t_mapping(t_address,t_struct(Shop)321_storage)"
					},
					{
						"astId": 360,
						"contract": "contracts/Shops.sol:ShopsSystem",
						"label": "salesmanShop",
						"offset": 0,
						"slot": "11",
						"type": "t_mapping(t_address,t_address)"
					},
					{
						"astId": 365,
						"contract": "contracts/Shops.sol:ShopsSystem",
						"label": "salesmen",
						"offset": 0,
						"slot": "12",
						"type": "t_mapping(t_address,t_array(t_address)dyn_storage)"
					},
					{
						"astId": 370,
						"contract": "contracts/Shops.sol:ShopsSystem",
						"label": "shopReviews",
						"offset": 0,
						"slot": "13",
						"type": "t_mapping(t_address,t_array(t_string_storage)dyn_storage)"
					},
					{
						"astId": 375,
						"contract": "contracts/Shops.sol:ShopsSystem",
						"label": "reviewId",
						"offset": 0,
						"slot": "14",
						"type": "t_mapping(t_string_memory_ptr,t_struct(Review)23_storage)"
					},
					{
						"astId": 380,
						"contract": "contracts/Shops.sol:ShopsSystem",
						"label": "requestId",
						"offset": 0,
						"slot": "15",
						"type": "t_mapping(t_string_memory_ptr,t_struct(Request)330_storage)"
					},
					{
						"astId": 386,
						"contract": "contracts/Shops.sol:ShopsSystem",
						"label": "reviewCom",
						"offset": 0,
						"slot": "16",
						"type": "t_mapping(t_string_memory_ptr,t_mapping(t_address,t_bool))"
					}
				],
				"types": {
					"t_address": {
						"encoding": "inplace",
						"label": "address",
						"numberOfBytes": "20"
					},
					"t_address_payable": {
						"encoding": "inplace",
						"label": "address payable",
						"numberOfBytes": "20"
					},
					"t_array(t_address)dyn_storage": {
						"base": "t_address",
						"encoding": "dynamic_array",
						"label": "address[]",
						"numberOfBytes": "32"
					},
					"t_array(t_string_storage)dyn_storage": {
						"base": "t_string_storage",
						"encoding": "dynamic_array",
						"label": "string[]",
						"numberOfBytes": "32"
					},
					"t_bool": {
						"encoding": "inplace",
						"label": "bool",
						"numberOfBytes": "1"
					},
					"t_int256": {
						"encoding": "inplace",
						"label": "int256",
						"numberOfBytes": "32"
					},
					"t_mapping(t_address,t_address)": {
						"encoding": "mapping",
						"key": "t_address",
						"label": "mapping(address => address)",
						"numberOfBytes": "32",
						"value": "t_address"
					},
					"t_mapping(t_address,t_array(t_address)dyn_storage)": {
						"encoding": "mapping",
						"key": "t_address",
						"label": "mapping(address => address[])",
						"numberOfBytes": "32",
						"value": "t_array(t_address)dyn_storage"
					},
					"t_mapping(t_address,t_array(t_string_storage)dyn_storage)": {
						"encoding": "mapping",
						"key": "t_address",
						"label": "mapping(address => string[])",
						"numberOfBytes": "32",
						"value": "t_array(t_string_storage)dyn_storage"
					},
					"t_mapping(t_address,t_bool)": {
						"encoding": "mapping",
						"key": "t_address",
						"label": "mapping(address => bool)",
						"numberOfBytes": "32",
						"value": "t_bool"
					},
					"t_mapping(t_address,t_struct(Shop)321_storage)": {
						"encoding": "mapping",
						"key": "t_address",
						"label": "mapping(address => struct Shop)",
						"numberOfBytes": "32",
						"value": "t_struct(Shop)321_storage"
					},
					"t_mapping(t_address,t_struct(User)33_storage)": {
						"encoding": "mapping",
						"key": "t_address",
						"label": "mapping(address => struct User)",
						"numberOfBytes": "32",
						"value": "t_struct(User)33_storage"
					},
					"t_mapping(t_string_memory_ptr,t_address)": {
						"encoding": "mapping",
						"key": "t_string_memory_ptr",
						"label": "mapping(string => address)",
						"numberOfBytes": "32",
						"value": "t_address"
					},
					"t_mapping(t_string_memory_ptr,t_mapping(t_address,t_bool))": {
						"encoding": "mapping",
						"key": "t_string_memory_ptr",
						"label": "mapping(string => mapping(address => bool))",
						"numberOfBytes": "32",
						"value": "t_mapping(t_address,t_bool)"
					},
					"t_mapping(t_string_memory_ptr,t_struct(Request)330_storage)": {
						"encoding": "mapping",
						"key": "t_string_memory_ptr",
						"label": "mapping(string => struct Request)",
						"numberOfBytes": "32",
						"value": "t_struct(Request)330_storage"
					},
					"t_mapping(t_string_memory_ptr,t_struct(Review)23_storage)": {
						"encoding": "mapping",
						"key": "t_string_memory_ptr",
						"label": "mapping(string => struct Review)",
						"numberOfBytes": "32",
						"value": "t_struct(Review)23_storage"
					},
					"t_mapping(t_uint256,t_string_storage)": {
						"encoding": "mapping",
						"key": "t_uint256",
						"label": "mapping(uint256 => string)",
						"numberOfBytes": "32",
						"value": "t_string_storage"
					},
					"t_string_memory_ptr": {
						"encoding": "bytes",
						"label": "string",
						"numberOfBytes": "32"
					},
					"t_string_storage": {
						"encoding": "bytes",
						"label": "string",
						"numberOfBytes": "32"
					},
					"t_struct(Request)330_storage": {
						"encoding": "inplace",
						"label": "struct Request",
						"members": [
							{
								"astId": 323,
								"contract": "contracts/Shops.sol:ShopsSystem",
								"label": "userAddr",
								"offset": 0,
								"slot": "0",
								"type": "t_address"
							},
							{
								"astId": 325,
								"contract": "contracts/Shops.sol:ShopsSystem",
								"label": "currentRole",
								"offset": 0,
								"slot": "1",
								"type": "t_uint256"
							},
							{
								"astId": 327,
								"contract": "contracts/Shops.sol:ShopsSystem",
								"label": "desiredRole",
								"offset": 0,
								"slot": "2",
								"type": "t_uint256"
							},
							{
								"astId": 329,
								"contract": "contracts/Shops.sol:ShopsSystem",
								"label": "checked",
								"offset": 0,
								"slot": "3",
								"type": "t_bool"
							}
						],
						"numberOfBytes": "128"
					},
					"t_struct(Review)23_storage": {
						"encoding": "inplace",
						"label": "struct Review",
						"members": [
							{
								"astId": 10,
								"contract": "contracts/Shops.sol:ShopsSystem",
								"label": "autorAddress",
								"offset": 0,
								"slot": "0",
								"type": "t_address"
							},
							{
								"astId": 12,
								"contract": "contracts/Shops.sol:ShopsSystem",
								"label": "shopAddr",
								"offset": 0,
								"slot": "1",
								"type": "t_address"
							},
							{
								"astId": 14,
								"contract": "contracts/Shops.sol:ShopsSystem",
								"label": "message",
								"offset": 0,
								"slot": "2",
								"type": "t_string_storage"
							},
							{
								"astId": 17,
								"contract": "contracts/Shops.sol:ShopsSystem",
								"label": "likeCount",
								"offset": 0,
								"slot": "3",
								"type": "t_array(t_address)dyn_storage"
							},
							{
								"astId": 20,
								"contract": "contracts/Shops.sol:ShopsSystem",
								"label": "disLikeCount",
								"offset": 0,
								"slot": "4",
								"type": "t_array(t_address)dyn_storage"
							},
							{
								"astId": 22,
								"contract": "contracts/Shops.sol:ShopsSystem",
								"label": "grade",
								"offset": 0,
								"slot": "5",
								"type": "t_int256"
							}
						],
						"numberOfBytes": "192"
					},
					"t_struct(Shop)321_storage": {
						"encoding": "inplace",
						"label": "struct Shop",
						"members": [
							{
								"astId": 316,
								"contract": "contracts/Shops.sol:ShopsSystem",
								"label": "number",
								"offset": 0,
								"slot": "0",
								"type": "t_string_storage"
							},
							{
								"astId": 318,
								"contract": "contracts/Shops.sol:ShopsSystem",
								"label": "city",
								"offset": 0,
								"slot": "1",
								"type": "t_string_storage"
							},
							{
								"astId": 320,
								"contract": "contracts/Shops.sol:ShopsSystem",
								"label": "debt",
								"offset": 0,
								"slot": "2",
								"type": "t_int256"
							}
						],
						"numberOfBytes": "96"
					},
					"t_struct(User)33_storage": {
						"encoding": "inplace",
						"label": "struct User",
						"members": [
							{
								"astId": 25,
								"contract": "contracts/Shops.sol:ShopsSystem",
								"label": "status",
								"offset": 0,
								"slot": "0",
								"type": "t_uint256"
							},
							{
								"astId": 27,
								"contract": "contracts/Shops.sol:ShopsSystem",
								"label": "userLogin",
								"offset": 0,
								"slot": "1",
								"type": "t_string_storage"
							},
							{
								"astId": 29,
								"contract": "contracts/Shops.sol:ShopsSystem",
								"label": "fio",
								"offset": 0,
								"slot": "2",
								"type": "t_string_storage"
							},
							{
								"astId": 32,
								"contract": "contracts/Shops.sol:ShopsSystem",
								"label": "reviews",
								"offset": 0,
								"slot": "3",
								"type": "t_array(t_string_storage)dyn_storage"
							}
						],
						"numberOfBytes": "128"
					},
					"t_uint256": {
						"encoding": "inplace",
						"label": "uint256",
						"numberOfBytes": "32"
					}
				}
			},
			"userdoc": {
				"kind": "user",
				"methods": {},
				"version": 1
			}
		}
	}
}