{
	"contracts/Colhoz.sol": {
		"Colhoz": {
			"abi": [
				{
					"inputs": [
						{
							"internalType": "address",
							"name": "userAddr",
							"type": "address"
						},
						{
							"internalType": "string",
							"name": "login",
							"type": "string"
						},
						{
							"internalType": "string",
							"name": "password",
							"type": "string"
						},
						{
							"internalType": "string",
							"name": "fio",
							"type": "string"
						},
						{
							"internalType": "string",
							"name": "status",
							"type": "string"
						}
					],
					"name": "add_buyer",
					"outputs": [],
					"stateMutability": "nonpayable",
					"type": "function"
				},
				{
					"inputs": [],
					"name": "bank",
					"outputs": [
						{
							"internalType": "address",
							"name": "",
							"type": "address"
						}
					],
					"stateMutability": "view",
					"type": "function"
				},
				{
					"inputs": [],
					"name": "get_buyers",
					"outputs": [
						{
							"components": [
								{
									"internalType": "address",
									"name": "userAddr",
									"type": "address"
								},
								{
									"internalType": "string",
									"name": "login",
									"type": "string"
								},
								{
									"internalType": "string",
									"name": "password",
									"type": "string"
								},
								{
									"internalType": "string",
									"name": "fio",
									"type": "string"
								},
								{
									"internalType": "string",
									"name": "status",
									"type": "string"
								}
							],
							"internalType": "struct User[]",
							"name": "",
							"type": "tuple[]"
						}
					],
					"stateMutability": "view",
					"type": "function"
				},
				{
					"inputs": [],
					"name": "provider",
					"outputs": [
						{
							"internalType": "address",
							"name": "",
							"type": "address"
						}
					],
					"stateMutability": "view",
					"type": "function"
				},
				{
					"inputs": [
						{
							"internalType": "uint256",
							"name": "index",
							"type": "uint256"
						}
					],
					"name": "remove_buyer",
					"outputs": [],
					"stateMutability": "nonpayable",
					"type": "function"
				},
				{
					"inputs": [
						{
							"internalType": "address",
							"name": "_bank",
							"type": "address"
						}
					],
					"name": "set_bank",
					"outputs": [],
					"stateMutability": "nonpayable",
					"type": "function"
				},
				{
					"inputs": [
						{
							"internalType": "address",
							"name": "_provider",
							"type": "address"
						}
					],
					"name": "set_provider",
					"outputs": [],
					"stateMutability": "nonpayable",
					"type": "function"
				},
				{
					"inputs": [
						{
							"internalType": "uint256",
							"name": "index",
							"type": "uint256"
						},
						{
							"internalType": "address",
							"name": "userAddr",
							"type": "address"
						},
						{
							"internalType": "string",
							"name": "login",
							"type": "string"
						},
						{
							"internalType": "string",
							"name": "password",
							"type": "string"
						},
						{
							"internalType": "string",
							"name": "fio",
							"type": "string"
						},
						{
							"internalType": "string",
							"name": "status",
							"type": "string"
						}
					],
					"name": "update_buyer",
					"outputs": [],
					"stateMutability": "nonpayable",
					"type": "function"
				}
			],
			"devdoc": {
				"kind": "dev",
				"methods": {},
				"version": 1
			},
			"evm": {
				"assembly": "    /* \"contracts/Colhoz.sol\":612:2363  contract Colhoz{... */\n  mstore(0x40, 0x80)\n  callvalue\n  dup1\n  iszero\n  tag_1\n  jumpi\n  0x00\n  dup1\n  revert\ntag_1:\n  pop\n  dataSize(sub_0)\n  dup1\n  dataOffset(sub_0)\n  0x00\n  codecopy\n  0x00\n  return\nstop\n\nsub_0: assembly {\n        /* \"contracts/Colhoz.sol\":612:2363  contract Colhoz{... */\n      mstore(0x40, 0x80)\n      callvalue\n      dup1\n      iszero\n      tag_1\n      jumpi\n      0x00\n      dup1\n      revert\n    tag_1:\n      pop\n      jumpi(tag_2, lt(calldatasize, 0x04))\n      shr(0xe0, calldataload(0x00))\n      dup1\n      0xb29f04fe\n      gt\n      tag_11\n      jumpi\n      dup1\n      0xb29f04fe\n      eq\n      tag_7\n      jumpi\n      dup1\n      0xb78842ee\n      eq\n      tag_8\n      jumpi\n      dup1\n      0xdacf64e2\n      eq\n      tag_9\n      jumpi\n      dup1\n      0xefa3b7cc\n      eq\n      tag_10\n      jumpi\n      jump(tag_2)\n    tag_11:\n      dup1\n      0x085d4883\n      eq\n      tag_3\n      jumpi\n      dup1\n      0x1fbecde7\n      eq\n      tag_4\n      jumpi\n      dup1\n      0x76cdb03b\n      eq\n      tag_5\n      jumpi\n      dup1\n      0x827b0348\n      eq\n      tag_6\n      jumpi\n    tag_2:\n      0x00\n      dup1\n      revert\n        /* \"contracts/Colhoz.sol\":634:657  address public provider */\n    tag_3:\n      tag_12\n      tag_13\n      jump\t// in\n    tag_12:\n      mload(0x40)\n      tag_14\n      swap2\n      swap1\n      tag_15\n      jump\t// in\n    tag_14:\n      mload(0x40)\n      dup1\n      swap2\n      sub\n      swap1\n      return\n        /* \"contracts/Colhoz.sol\":1088:1367  function add_buyer(... */\n    tag_4:\n      tag_16\n      0x04\n      dup1\n      calldatasize\n      sub\n      dup2\n      add\n      swap1\n      tag_17\n      swap2\n      swap1\n      tag_18\n      jump\t// in\n    tag_17:\n      tag_19\n      jump\t// in\n    tag_16:\n      stop\n        /* \"contracts/Colhoz.sol\":663:682  address public bank */\n    tag_5:\n      tag_20\n      tag_21\n      jump\t// in\n    tag_20:\n      mload(0x40)\n      tag_22\n      swap2\n      swap1\n      tag_15\n      jump\t// in\n    tag_22:\n      mload(0x40)\n      dup1\n      swap2\n      sub\n      swap1\n      return\n        /* \"contracts/Colhoz.sol\":996:1082  function get_buyers() public view returns(User[] memory){... */\n    tag_6:\n      tag_23\n      tag_24\n      jump\t// in\n    tag_23:\n      mload(0x40)\n      tag_25\n      swap2\n      swap1\n      tag_26\n      jump\t// in\n    tag_25:\n      mload(0x40)\n      dup1\n      swap2\n      sub\n      swap1\n      return\n        /* \"contracts/Colhoz.sol\":825:910  function set_provider(address _provider) public {... */\n    tag_7:\n      tag_27\n      0x04\n      dup1\n      calldatasize\n      sub\n      dup2\n      add\n      swap1\n      tag_28\n      swap2\n      swap1\n      tag_29\n      jump\t// in\n    tag_28:\n      tag_30\n      jump\t// in\n    tag_27:\n      stop\n        /* \"contracts/Colhoz.sol\":1373:1451  function remove_buyer(uint index) public {... */\n    tag_8:\n      tag_31\n      0x04\n      dup1\n      calldatasize\n      sub\n      dup2\n      add\n      swap1\n      tag_32\n      swap2\n      swap1\n      tag_33\n      jump\t// in\n    tag_32:\n      tag_34\n      jump\t// in\n    tag_31:\n      stop\n        /* \"contracts/Colhoz.sol\":920:989  function set_bank(address _bank) public {... */\n    tag_9:\n      tag_35\n      0x04\n      dup1\n      calldatasize\n      sub\n      dup2\n      add\n      swap1\n      tag_36\n      swap2\n      swap1\n      tag_29\n      jump\t// in\n    tag_36:\n      tag_37\n      jump\t// in\n    tag_35:\n      stop\n        /* \"contracts/Colhoz.sol\":1457:1762  function update_buyer(... */\n    tag_10:\n      tag_38\n      0x04\n      dup1\n      calldatasize\n      sub\n      dup2\n      add\n      swap1\n      tag_39\n      swap2\n      swap1\n      tag_40\n      jump\t// in\n    tag_39:\n      tag_41\n      jump\t// in\n    tag_38:\n      stop\n        /* \"contracts/Colhoz.sol\":634:657  address public provider */\n    tag_13:\n      0x00\n      dup1\n      sload\n      swap1\n      0x0100\n      exp\n      swap1\n      div\n      0xffffffffffffffffffffffffffffffffffffffff\n      and\n      dup2\n      jump\t// out\n        /* \"contracts/Colhoz.sol\":1088:1367  function add_buyer(... */\n    tag_19:\n        /* \"contracts/Colhoz.sol\":1274:1290  User memory user */\n      0x00\n        /* \"contracts/Colhoz.sol\":1293:1333  User(userAddr,login,password,fio,status) */\n      mload(0x40)\n      dup1\n      0xa0\n      add\n      0x40\n      mstore\n      dup1\n        /* \"contracts/Colhoz.sol\":1298:1306  userAddr */\n      dup8\n        /* \"contracts/Colhoz.sol\":1293:1333  User(userAddr,login,password,fio,status) */\n      0xffffffffffffffffffffffffffffffffffffffff\n      and\n      dup2\n      mstore\n      0x20\n      add\n        /* \"contracts/Colhoz.sol\":1307:1312  login */\n      dup7\n        /* \"contracts/Colhoz.sol\":1293:1333  User(userAddr,login,password,fio,status) */\n      dup2\n      mstore\n      0x20\n      add\n        /* \"contracts/Colhoz.sol\":1313:1321  password */\n      dup6\n        /* \"contracts/Colhoz.sol\":1293:1333  User(userAddr,login,password,fio,status) */\n      dup2\n      mstore\n      0x20\n      add\n        /* \"contracts/Colhoz.sol\":1322:1325  fio */\n      dup5\n        /* \"contracts/Colhoz.sol\":1293:1333  User(userAddr,login,password,fio,status) */\n      dup2\n      mstore\n      0x20\n      add\n        /* \"contracts/Colhoz.sol\":1326:1332  status */\n      dup4\n        /* \"contracts/Colhoz.sol\":1293:1333  User(userAddr,login,password,fio,status) */\n      dup2\n      mstore\n      pop\n        /* \"contracts/Colhoz.sol\":1274:1333  User memory user = User(userAddr,login,password,fio,status) */\n      swap1\n      pop\n        /* \"contracts/Colhoz.sol\":1343:1349  buyers */\n      0x02\n        /* \"contracts/Colhoz.sol\":1355:1359  user */\n      dup2\n        /* \"contracts/Colhoz.sol\":1343:1360  buyers.push(user) */\n      swap1\n      dup1\n      0x01\n      dup2\n      sload\n      add\n      dup1\n      dup3\n      sstore\n      dup1\n      swap2\n      pop\n      pop\n      0x01\n      swap1\n      sub\n      swap1\n      0x00\n      mstore\n      keccak256(0x00, 0x20)\n      swap1\n      0x05\n      mul\n      add\n      0x00\n      swap1\n      swap2\n      swap1\n      swap2\n      swap1\n      swap2\n      pop\n      0x00\n      dup3\n      add\n      mload\n      dup2\n      0x00\n      add\n      exp(0x0100, 0x00)\n      dup2\n      sload\n      dup2\n      0xffffffffffffffffffffffffffffffffffffffff\n      mul\n      not\n      and\n      swap1\n      dup4\n      0xffffffffffffffffffffffffffffffffffffffff\n      and\n      mul\n      or\n      swap1\n      sstore\n      pop\n      0x20\n      dup3\n      add\n      mload\n      dup2\n      0x01\n      add\n      swap1\n      dup1\n      mload\n      swap1\n      0x20\n      add\n      swap1\n      tag_44\n      swap3\n      swap2\n      swap1\n      tag_45\n      jump\t// in\n    tag_44:\n      pop\n      0x40\n      dup3\n      add\n      mload\n      dup2\n      0x02\n      add\n      swap1\n      dup1\n      mload\n      swap1\n      0x20\n      add\n      swap1\n      tag_46\n      swap3\n      swap2\n      swap1\n      tag_45\n      jump\t// in\n    tag_46:\n      pop\n      0x60\n      dup3\n      add\n      mload\n      dup2\n      0x03\n      add\n      swap1\n      dup1\n      mload\n      swap1\n      0x20\n      add\n      swap1\n      tag_47\n      swap3\n      swap2\n      swap1\n      tag_45\n      jump\t// in\n    tag_47:\n      pop\n      0x80\n      dup3\n      add\n      mload\n      dup2\n      0x04\n      add\n      swap1\n      dup1\n      mload\n      swap1\n      0x20\n      add\n      swap1\n      tag_48\n      swap3\n      swap2\n      swap1\n      tag_45\n      jump\t// in\n    tag_48:\n      pop\n      pop\n      pop\n        /* \"contracts/Colhoz.sol\":1264:1367  {... */\n      pop\n        /* \"contracts/Colhoz.sol\":1088:1367  function add_buyer(... */\n      pop\n      pop\n      pop\n      pop\n      pop\n      jump\t// out\n        /* \"contracts/Colhoz.sol\":663:682  address public bank */\n    tag_21:\n      0x01\n      0x00\n      swap1\n      sload\n      swap1\n      0x0100\n      exp\n      swap1\n      div\n      0xffffffffffffffffffffffffffffffffffffffff\n      and\n      dup2\n      jump\t// out\n        /* \"contracts/Colhoz.sol\":996:1082  function get_buyers() public view returns(User[] memory){... */\n    tag_24:\n        /* \"contracts/Colhoz.sol\":1038:1051  User[] memory */\n      0x60\n        /* \"contracts/Colhoz.sol\":1069:1075  buyers */\n      0x02\n        /* \"contracts/Colhoz.sol\":1062:1075  return buyers */\n      dup1\n      sload\n      dup1\n      0x20\n      mul\n      0x20\n      add\n      mload(0x40)\n      swap1\n      dup2\n      add\n      0x40\n      mstore\n      dup1\n      swap3\n      swap2\n      swap1\n      dup2\n      dup2\n      mstore\n      0x20\n      add\n      0x00\n      swap1\n    tag_50:\n      dup3\n      dup3\n      lt\n      iszero\n      tag_51\n      jumpi\n      dup4\n      dup3\n      swap1\n      0x00\n      mstore\n      keccak256(0x00, 0x20)\n      swap1\n      0x05\n      mul\n      add\n      mload(0x40)\n      dup1\n      0xa0\n      add\n      0x40\n      mstore\n      swap1\n      dup2\n      0x00\n      dup3\n      add\n      0x00\n      swap1\n      sload\n      swap1\n      0x0100\n      exp\n      swap1\n      div\n      0xffffffffffffffffffffffffffffffffffffffff\n      and\n      0xffffffffffffffffffffffffffffffffffffffff\n      and\n      0xffffffffffffffffffffffffffffffffffffffff\n      and\n      dup2\n      mstore\n      0x20\n      add\n      0x01\n      dup3\n      add\n      dup1\n      sload\n      tag_53\n      swap1\n      tag_54\n      jump\t// in\n    tag_53:\n      dup1\n      0x1f\n      add\n      0x20\n      dup1\n      swap2\n      div\n      mul\n      0x20\n      add\n      mload(0x40)\n      swap1\n      dup2\n      add\n      0x40\n      mstore\n      dup1\n      swap3\n      swap2\n      swap1\n      dup2\n      dup2\n      mstore\n      0x20\n      add\n      dup3\n      dup1\n      sload\n      tag_55\n      swap1\n      tag_54\n      jump\t// in\n    tag_55:\n      dup1\n      iszero\n      tag_56\n      jumpi\n      dup1\n      0x1f\n      lt\n      tag_57\n      jumpi\n      0x0100\n      dup1\n      dup4\n      sload\n      div\n      mul\n      dup4\n      mstore\n      swap2\n      0x20\n      add\n      swap2\n      jump(tag_56)\n    tag_57:\n      dup3\n      add\n      swap2\n      swap1\n      0x00\n      mstore\n      keccak256(0x00, 0x20)\n      swap1\n    tag_58:\n      dup2\n      sload\n      dup2\n      mstore\n      swap1\n      0x01\n      add\n      swap1\n      0x20\n      add\n      dup1\n      dup4\n      gt\n      tag_58\n      jumpi\n      dup3\n      swap1\n      sub\n      0x1f\n      and\n      dup3\n      add\n      swap2\n    tag_56:\n      pop\n      pop\n      pop\n      pop\n      pop\n      dup2\n      mstore\n      0x20\n      add\n      0x02\n      dup3\n      add\n      dup1\n      sload\n      tag_59\n      swap1\n      tag_54\n      jump\t// in\n    tag_59:\n      dup1\n      0x1f\n      add\n      0x20\n      dup1\n      swap2\n      div\n      mul\n      0x20\n      add\n      mload(0x40)\n      swap1\n      dup2\n      add\n      0x40\n      mstore\n      dup1\n      swap3\n      swap2\n      swap1\n      dup2\n      dup2\n      mstore\n      0x20\n      add\n      dup3\n      dup1\n      sload\n      tag_60\n      swap1\n      tag_54\n      jump\t// in\n    tag_60:\n      dup1\n      iszero\n      tag_61\n      jumpi\n      dup1\n      0x1f\n      lt\n      tag_62\n      jumpi\n      0x0100\n      dup1\n      dup4\n      sload\n      div\n      mul\n      dup4\n      mstore\n      swap2\n      0x20\n      add\n      swap2\n      jump(tag_61)\n    tag_62:\n      dup3\n      add\n      swap2\n      swap1\n      0x00\n      mstore\n      keccak256(0x00, 0x20)\n      swap1\n    tag_63:\n      dup2\n      sload\n      dup2\n      mstore\n      swap1\n      0x01\n      add\n      swap1\n      0x20\n      add\n      dup1\n      dup4\n      gt\n      tag_63\n      jumpi\n      dup3\n      swap1\n      sub\n      0x1f\n      and\n      dup3\n      add\n      swap2\n    tag_61:\n      pop\n      pop\n      pop\n      pop\n      pop\n      dup2\n      mstore\n      0x20\n      add\n      0x03\n      dup3\n      add\n      dup1\n      sload\n      tag_64\n      swap1\n      tag_54\n      jump\t// in\n    tag_64:\n      dup1\n      0x1f\n      add\n      0x20\n      dup1\n      swap2\n      div\n      mul\n      0x20\n      add\n      mload(0x40)\n      swap1\n      dup2\n      add\n      0x40\n      mstore\n      dup1\n      swap3\n      swap2\n      swap1\n      dup2\n      dup2\n      mstore\n      0x20\n      add\n      dup3\n      dup1\n      sload\n      tag_65\n      swap1\n      tag_54\n      jump\t// in\n    tag_65:\n      dup1\n      iszero\n      tag_66\n      jumpi\n      dup1\n      0x1f\n      lt\n      tag_67\n      jumpi\n      0x0100\n      dup1\n      dup4\n      sload\n      div\n      mul\n      dup4\n      mstore\n      swap2\n      0x20\n      add\n      swap2\n      jump(tag_66)\n    tag_67:\n      dup3\n      add\n      swap2\n      swap1\n      0x00\n      mstore\n      keccak256(0x00, 0x20)\n      swap1\n    tag_68:\n      dup2\n      sload\n      dup2\n      mstore\n      swap1\n      0x01\n      add\n      swap1\n      0x20\n      add\n      dup1\n      dup4\n      gt\n      tag_68\n      jumpi\n      dup3\n      swap1\n      sub\n      0x1f\n      and\n      dup3\n      add\n      swap2\n    tag_66:\n      pop\n      pop\n      pop\n      pop\n      pop\n      dup2\n      mstore\n      0x20\n      add\n      0x04\n      dup3\n      add\n      dup1\n      sload\n      tag_69\n      swap1\n      tag_54\n      jump\t// in\n    tag_69:\n      dup1\n      0x1f\n      add\n      0x20\n      dup1\n      swap2\n      div\n      mul\n      0x20\n      add\n      mload(0x40)\n      swap1\n      dup2\n      add\n      0x40\n      mstore\n      dup1\n      swap3\n      swap2\n      swap1\n      dup2\n      dup2\n      mstore\n      0x20\n      add\n      dup3\n      dup1\n      sload\n      tag_70\n      swap1\n      tag_54\n      jump\t// in\n    tag_70:\n      dup1\n      iszero\n      tag_71\n      jumpi\n      dup1\n      0x1f\n      lt\n      tag_72\n      jumpi\n      0x0100\n      dup1\n      dup4\n      sload\n      div\n      mul\n      dup4\n      mstore\n      swap2\n      0x20\n      add\n      swap2\n      jump(tag_71)\n    tag_72:\n      dup3\n      add\n      swap2\n      swap1\n      0x00\n      mstore\n      keccak256(0x00, 0x20)\n      swap1\n    tag_73:\n      dup2\n      sload\n      dup2\n      mstore\n      swap1\n      0x01\n      add\n      swap1\n      0x20\n      add\n      dup1\n      dup4\n      gt\n      tag_73\n      jumpi\n      dup3\n      swap1\n      sub\n      0x1f\n      and\n      dup3\n      add\n      swap2\n    tag_71:\n      pop\n      pop\n      pop\n      pop\n      pop\n      dup2\n      mstore\n      pop\n      pop\n      dup2\n      mstore\n      0x20\n      add\n      swap1\n      0x01\n      add\n      swap1\n      jump(tag_50)\n    tag_51:\n      pop\n      pop\n      pop\n      pop\n      swap1\n      pop\n        /* \"contracts/Colhoz.sol\":996:1082  function get_buyers() public view returns(User[] memory){... */\n      swap1\n      jump\t// out\n        /* \"contracts/Colhoz.sol\":825:910  function set_provider(address _provider) public {... */\n    tag_30:\n        /* \"contracts/Colhoz.sol\":894:903  _provider */\n      dup1\n        /* \"contracts/Colhoz.sol\":883:891  provider */\n      0x00\n      dup1\n        /* \"contracts/Colhoz.sol\":883:903  provider = _provider */\n      0x0100\n      exp\n      dup2\n      sload\n      dup2\n      0xffffffffffffffffffffffffffffffffffffffff\n      mul\n      not\n      and\n      swap1\n      dup4\n      0xffffffffffffffffffffffffffffffffffffffff\n      and\n      mul\n      or\n      swap1\n      sstore\n      pop\n        /* \"contracts/Colhoz.sol\":825:910  function set_provider(address _provider) public {... */\n      pop\n      jump\t// out\n        /* \"contracts/Colhoz.sol\":1373:1451  function remove_buyer(uint index) public {... */\n    tag_34:\n        /* \"contracts/Colhoz.sol\":1431:1437  buyers */\n      0x02\n        /* \"contracts/Colhoz.sol\":1438:1443  index */\n      dup2\n        /* \"contracts/Colhoz.sol\":1431:1444  buyers[index] */\n      dup2\n      sload\n      dup2\n      lt\n      tag_76\n      jumpi\n      tag_77\n      tag_78\n      jump\t// in\n    tag_77:\n    tag_76:\n      swap1\n      0x00\n      mstore\n      keccak256(0x00, 0x20)\n      swap1\n      0x05\n      mul\n      add\n      0x00\n        /* \"contracts/Colhoz.sol\":1424:1444  delete buyers[index] */\n      dup1\n      dup3\n      add\n      exp(0x0100, 0x00)\n      dup2\n      sload\n      swap1\n      0xffffffffffffffffffffffffffffffffffffffff\n      mul\n      not\n      and\n      swap1\n      sstore\n      0x01\n      dup3\n      add\n      0x00\n      tag_80\n      swap2\n      swap1\n      tag_81\n      jump\t// in\n    tag_80:\n      0x02\n      dup3\n      add\n      0x00\n      tag_82\n      swap2\n      swap1\n      tag_81\n      jump\t// in\n    tag_82:\n      0x03\n      dup3\n      add\n      0x00\n      tag_83\n      swap2\n      swap1\n      tag_81\n      jump\t// in\n    tag_83:\n      0x04\n      dup3\n      add\n      0x00\n      tag_84\n      swap2\n      swap1\n      tag_81\n      jump\t// in\n    tag_84:\n      pop\n      pop\n        /* \"contracts/Colhoz.sol\":1373:1451  function remove_buyer(uint index) public {... */\n      pop\n      jump\t// out\n        /* \"contracts/Colhoz.sol\":920:989  function set_bank(address _bank) public {... */\n    tag_37:\n        /* \"contracts/Colhoz.sol\":977:982  _bank */\n      dup1\n        /* \"contracts/Colhoz.sol\":970:974  bank */\n      0x01\n      0x00\n        /* \"contracts/Colhoz.sol\":970:982  bank = _bank */\n      0x0100\n      exp\n      dup2\n      sload\n      dup2\n      0xffffffffffffffffffffffffffffffffffffffff\n      mul\n      not\n      and\n      swap1\n      dup4\n      0xffffffffffffffffffffffffffffffffffffffff\n      and\n      mul\n      or\n      swap1\n      sstore\n      pop\n        /* \"contracts/Colhoz.sol\":920:989  function set_bank(address _bank) public {... */\n      pop\n      jump\t// out\n        /* \"contracts/Colhoz.sol\":1457:1762  function update_buyer(... */\n    tag_41:\n        /* \"contracts/Colhoz.sol\":1666:1682  User memory user */\n      0x00\n        /* \"contracts/Colhoz.sol\":1685:1725  User(userAddr,login,password,fio,status) */\n      mload(0x40)\n      dup1\n      0xa0\n      add\n      0x40\n      mstore\n      dup1\n        /* \"contracts/Colhoz.sol\":1690:1698  userAddr */\n      dup8\n        /* \"contracts/Colhoz.sol\":1685:1725  User(userAddr,login,password,fio,status) */\n      0xffffffffffffffffffffffffffffffffffffffff\n      and\n      dup2\n      mstore\n      0x20\n      add\n        /* \"contracts/Colhoz.sol\":1699:1704  login */\n      dup7\n        /* \"contracts/Colhoz.sol\":1685:1725  User(userAddr,login,password,fio,status) */\n      dup2\n      mstore\n      0x20\n      add\n        /* \"contracts/Colhoz.sol\":1705:1713  password */\n      dup6\n        /* \"contracts/Colhoz.sol\":1685:1725  User(userAddr,login,password,fio,status) */\n      dup2\n      mstore\n      0x20\n      add\n        /* \"contracts/Colhoz.sol\":1714:1717  fio */\n      dup5\n        /* \"contracts/Colhoz.sol\":1685:1725  User(userAddr,login,password,fio,status) */\n      dup2\n      mstore\n      0x20\n      add\n        /* \"contracts/Colhoz.sol\":1718:1724  status */\n      dup4\n        /* \"contracts/Colhoz.sol\":1685:1725  User(userAddr,login,password,fio,status) */\n      dup2\n      mstore\n      pop\n        /* \"contracts/Colhoz.sol\":1666:1725  User memory user = User(userAddr,login,password,fio,status) */\n      swap1\n      pop\n        /* \"contracts/Colhoz.sol\":1751:1755  user */\n      dup1\n        /* \"contracts/Colhoz.sol\":1735:1741  buyers */\n      0x02\n        /* \"contracts/Colhoz.sol\":1742:1747  index */\n      dup9\n        /* \"contracts/Colhoz.sol\":1735:1748  buyers[index] */\n      dup2\n      sload\n      dup2\n      lt\n      tag_87\n      jumpi\n      tag_88\n      tag_78\n      jump\t// in\n    tag_88:\n    tag_87:\n      swap1\n      0x00\n      mstore\n      keccak256(0x00, 0x20)\n      swap1\n      0x05\n      mul\n      add\n        /* \"contracts/Colhoz.sol\":1735:1755  buyers[index] = user */\n      0x00\n      dup3\n      add\n      mload\n      dup2\n      0x00\n      add\n      exp(0x0100, 0x00)\n      dup2\n      sload\n      dup2\n      0xffffffffffffffffffffffffffffffffffffffff\n      mul\n      not\n      and\n      swap1\n      dup4\n      0xffffffffffffffffffffffffffffffffffffffff\n      and\n      mul\n      or\n      swap1\n      sstore\n      pop\n      0x20\n      dup3\n      add\n      mload\n      dup2\n      0x01\n      add\n      swap1\n      dup1\n      mload\n      swap1\n      0x20\n      add\n      swap1\n      tag_90\n      swap3\n      swap2\n      swap1\n      tag_45\n      jump\t// in\n    tag_90:\n      pop\n      0x40\n      dup3\n      add\n      mload\n      dup2\n      0x02\n      add\n      swap1\n      dup1\n      mload\n      swap1\n      0x20\n      add\n      swap1\n      tag_91\n      swap3\n      swap2\n      swap1\n      tag_45\n      jump\t// in\n    tag_91:\n      pop\n      0x60\n      dup3\n      add\n      mload\n      dup2\n      0x03\n      add\n      swap1\n      dup1\n      mload\n      swap1\n      0x20\n      add\n      swap1\n      tag_92\n      swap3\n      swap2\n      swap1\n      tag_45\n      jump\t// in\n    tag_92:\n      pop\n      0x80\n      dup3\n      add\n      mload\n      dup2\n      0x04\n      add\n      swap1\n      dup1\n      mload\n      swap1\n      0x20\n      add\n      swap1\n      tag_93\n      swap3\n      swap2\n      swap1\n      tag_45\n      jump\t// in\n    tag_93:\n      pop\n      swap1\n      pop\n      pop\n        /* \"contracts/Colhoz.sol\":1656:1762  {... */\n      pop\n        /* \"contracts/Colhoz.sol\":1457:1762  function update_buyer(... */\n      pop\n      pop\n      pop\n      pop\n      pop\n      pop\n      jump\t// out\n    tag_45:\n      dup3\n      dup1\n      sload\n      tag_94\n      swap1\n      tag_54\n      jump\t// in\n    tag_94:\n      swap1\n      0x00\n      mstore\n      keccak256(0x00, 0x20)\n      swap1\n      0x1f\n      add\n      0x20\n      swap1\n      div\n      dup2\n      add\n      swap3\n      dup3\n      tag_96\n      jumpi\n      0x00\n      dup6\n      sstore\n      jump(tag_95)\n    tag_96:\n      dup3\n      0x1f\n      lt\n      tag_97\n      jumpi\n      dup1\n      mload\n      not(0xff)\n      and\n      dup4\n      dup1\n      add\n      or\n      dup6\n      sstore\n      jump(tag_95)\n    tag_97:\n      dup3\n      dup1\n      add\n      0x01\n      add\n      dup6\n      sstore\n      dup3\n      iszero\n      tag_95\n      jumpi\n      swap2\n      dup3\n      add\n    tag_98:\n      dup3\n      dup2\n      gt\n      iszero\n      tag_99\n      jumpi\n      dup3\n      mload\n      dup3\n      sstore\n      swap2\n      0x20\n      add\n      swap2\n      swap1\n      0x01\n      add\n      swap1\n      jump(tag_98)\n    tag_99:\n    tag_95:\n      pop\n      swap1\n      pop\n      tag_100\n      swap2\n      swap1\n      tag_101\n      jump\t// in\n    tag_100:\n      pop\n      swap1\n      jump\t// out\n    tag_81:\n      pop\n      dup1\n      sload\n      tag_102\n      swap1\n      tag_54\n      jump\t// in\n    tag_102:\n      0x00\n      dup3\n      sstore\n      dup1\n      0x1f\n      lt\n      tag_104\n      jumpi\n      pop\n      jump(tag_103)\n    tag_104:\n      0x1f\n      add\n      0x20\n      swap1\n      div\n      swap1\n      0x00\n      mstore\n      keccak256(0x00, 0x20)\n      swap1\n      dup2\n      add\n      swap1\n      tag_105\n      swap2\n      swap1\n      tag_101\n      jump\t// in\n    tag_105:\n    tag_103:\n      pop\n      jump\t// out\n    tag_101:\n    tag_106:\n      dup1\n      dup3\n      gt\n      iszero\n      tag_107\n      jumpi\n      0x00\n      dup2\n      0x00\n      swap1\n      sstore\n      pop\n      0x01\n      add\n      jump(tag_106)\n    tag_107:\n      pop\n      swap1\n      jump\t// out\n        /* \"#utility.yul\":7:419   */\n    tag_109:\n        /* \"#utility.yul\":85:90   */\n      0x00\n        /* \"#utility.yul\":110:176   */\n      tag_111\n        /* \"#utility.yul\":126:175   */\n      tag_112\n        /* \"#utility.yul\":168:174   */\n      dup5\n        /* \"#utility.yul\":126:175   */\n      tag_113\n      jump\t// in\n    tag_112:\n        /* \"#utility.yul\":110:176   */\n      tag_114\n      jump\t// in\n    tag_111:\n        /* \"#utility.yul\":101:176   */\n      swap1\n      pop\n        /* \"#utility.yul\":199:205   */\n      dup3\n        /* \"#utility.yul\":192:197   */\n      dup2\n        /* \"#utility.yul\":185:206   */\n      mstore\n        /* \"#utility.yul\":237:241   */\n      0x20\n        /* \"#utility.yul\":230:235   */\n      dup2\n        /* \"#utility.yul\":226:242   */\n      add\n        /* \"#utility.yul\":275:278   */\n      dup5\n        /* \"#utility.yul\":266:272   */\n      dup5\n        /* \"#utility.yul\":261:264   */\n      dup5\n        /* \"#utility.yul\":257:273   */\n      add\n        /* \"#utility.yul\":254:279   */\n      gt\n        /* \"#utility.yul\":251:363   */\n      iszero\n      tag_115\n      jumpi\n        /* \"#utility.yul\":282:361   */\n      tag_116\n      tag_117\n      jump\t// in\n    tag_116:\n        /* \"#utility.yul\":251:363   */\n    tag_115:\n        /* \"#utility.yul\":372:413   */\n      tag_118\n        /* \"#utility.yul\":406:412   */\n      dup5\n        /* \"#utility.yul\":401:404   */\n      dup3\n        /* \"#utility.yul\":396:399   */\n      dup6\n        /* \"#utility.yul\":372:413   */\n      tag_119\n      jump\t// in\n    tag_118:\n        /* \"#utility.yul\":91:419   */\n      pop\n        /* \"#utility.yul\":7:419   */\n      swap4\n      swap3\n      pop\n      pop\n      pop\n      jump\t// out\n        /* \"#utility.yul\":425:564   */\n    tag_120:\n        /* \"#utility.yul\":471:476   */\n      0x00\n        /* \"#utility.yul\":509:515   */\n      dup2\n        /* \"#utility.yul\":496:516   */\n      calldataload\n        /* \"#utility.yul\":487:516   */\n      swap1\n      pop\n        /* \"#utility.yul\":525:558   */\n      tag_122\n        /* \"#utility.yul\":552:557   */\n      dup2\n        /* \"#utility.yul\":525:558   */\n      tag_123\n      jump\t// in\n    tag_122:\n        /* \"#utility.yul\":425:564   */\n      swap3\n      swap2\n      pop\n      pop\n      jump\t// out\n        /* \"#utility.yul\":584:924   */\n    tag_124:\n        /* \"#utility.yul\":640:645   */\n      0x00\n        /* \"#utility.yul\":689:692   */\n      dup3\n        /* \"#utility.yul\":682:686   */\n      0x1f\n        /* \"#utility.yul\":674:680   */\n      dup4\n        /* \"#utility.yul\":670:687   */\n      add\n        /* \"#utility.yul\":666:693   */\n      slt\n        /* \"#utility.yul\":656:778   */\n      tag_126\n      jumpi\n        /* \"#utility.yul\":697:776   */\n      tag_127\n      tag_128\n      jump\t// in\n    tag_127:\n        /* \"#utility.yul\":656:778   */\n    tag_126:\n        /* \"#utility.yul\":814:820   */\n      dup2\n        /* \"#utility.yul\":801:821   */\n      calldataload\n        /* \"#utility.yul\":839:918   */\n      tag_129\n        /* \"#utility.yul\":914:917   */\n      dup5\n        /* \"#utility.yul\":906:912   */\n      dup3\n        /* \"#utility.yul\":899:903   */\n      0x20\n        /* \"#utility.yul\":891:897   */\n      dup7\n        /* \"#utility.yul\":887:904   */\n      add\n        /* \"#utility.yul\":839:918   */\n      tag_109\n      jump\t// in\n    tag_129:\n        /* \"#utility.yul\":830:918   */\n      swap2\n      pop\n        /* \"#utility.yul\":646:924   */\n      pop\n        /* \"#utility.yul\":584:924   */\n      swap3\n      swap2\n      pop\n      pop\n      jump\t// out\n        /* \"#utility.yul\":930:1069   */\n    tag_130:\n        /* \"#utility.yul\":976:981   */\n      0x00\n        /* \"#utility.yul\":1014:1020   */\n      dup2\n        /* \"#utility.yul\":1001:1021   */\n      calldataload\n        /* \"#utility.yul\":992:1021   */\n      swap1\n      pop\n        /* \"#utility.yul\":1030:1063   */\n      tag_132\n        /* \"#utility.yul\":1057:1062   */\n      dup2\n        /* \"#utility.yul\":1030:1063   */\n      tag_133\n      jump\t// in\n    tag_132:\n        /* \"#utility.yul\":930:1069   */\n      swap3\n      swap2\n      pop\n      pop\n      jump\t// out\n        /* \"#utility.yul\":1075:1404   */\n    tag_29:\n        /* \"#utility.yul\":1134:1140   */\n      0x00\n        /* \"#utility.yul\":1183:1185   */\n      0x20\n        /* \"#utility.yul\":1171:1180   */\n      dup3\n        /* \"#utility.yul\":1162:1169   */\n      dup5\n        /* \"#utility.yul\":1158:1181   */\n      sub\n        /* \"#utility.yul\":1154:1186   */\n      slt\n        /* \"#utility.yul\":1151:1270   */\n      iszero\n      tag_135\n      jumpi\n        /* \"#utility.yul\":1189:1268   */\n      tag_136\n      tag_137\n      jump\t// in\n    tag_136:\n        /* \"#utility.yul\":1151:1270   */\n    tag_135:\n        /* \"#utility.yul\":1309:1310   */\n      0x00\n        /* \"#utility.yul\":1334:1387   */\n      tag_138\n        /* \"#utility.yul\":1379:1386   */\n      dup5\n        /* \"#utility.yul\":1370:1376   */\n      dup3\n        /* \"#utility.yul\":1359:1368   */\n      dup6\n        /* \"#utility.yul\":1355:1377   */\n      add\n        /* \"#utility.yul\":1334:1387   */\n      tag_120\n      jump\t// in\n    tag_138:\n        /* \"#utility.yul\":1324:1387   */\n      swap2\n      pop\n        /* \"#utility.yul\":1280:1397   */\n      pop\n        /* \"#utility.yul\":1075:1404   */\n      swap3\n      swap2\n      pop\n      pop\n      jump\t// out\n        /* \"#utility.yul\":1410:3041   */\n    tag_18:\n        /* \"#utility.yul\":1545:1551   */\n      0x00\n        /* \"#utility.yul\":1553:1559   */\n      dup1\n        /* \"#utility.yul\":1561:1567   */\n      0x00\n        /* \"#utility.yul\":1569:1575   */\n      dup1\n        /* \"#utility.yul\":1577:1583   */\n      0x00\n        /* \"#utility.yul\":1626:1629   */\n      0xa0\n        /* \"#utility.yul\":1614:1623   */\n      dup7\n        /* \"#utility.yul\":1605:1612   */\n      dup9\n        /* \"#utility.yul\":1601:1624   */\n      sub\n        /* \"#utility.yul\":1597:1630   */\n      slt\n        /* \"#utility.yul\":1594:1714   */\n      iszero\n      tag_140\n      jumpi\n        /* \"#utility.yul\":1633:1712   */\n      tag_141\n      tag_137\n      jump\t// in\n    tag_141:\n        /* \"#utility.yul\":1594:1714   */\n    tag_140:\n        /* \"#utility.yul\":1753:1754   */\n      0x00\n        /* \"#utility.yul\":1778:1831   */\n      tag_142\n        /* \"#utility.yul\":1823:1830   */\n      dup9\n        /* \"#utility.yul\":1814:1820   */\n      dup3\n        /* \"#utility.yul\":1803:1812   */\n      dup10\n        /* \"#utility.yul\":1799:1821   */\n      add\n        /* \"#utility.yul\":1778:1831   */\n      tag_120\n      jump\t// in\n    tag_142:\n        /* \"#utility.yul\":1768:1831   */\n      swap6\n      pop\n        /* \"#utility.yul\":1724:1841   */\n      pop\n        /* \"#utility.yul\":1908:1910   */\n      0x20\n        /* \"#utility.yul\":1897:1906   */\n      dup7\n        /* \"#utility.yul\":1893:1911   */\n      add\n        /* \"#utility.yul\":1880:1912   */\n      calldataload\n        /* \"#utility.yul\":1939:1957   */\n      0xffffffffffffffff\n        /* \"#utility.yul\":1931:1937   */\n      dup2\n        /* \"#utility.yul\":1928:1958   */\n      gt\n        /* \"#utility.yul\":1925:2042   */\n      iszero\n      tag_143\n      jumpi\n        /* \"#utility.yul\":1961:2040   */\n      tag_144\n      tag_145\n      jump\t// in\n    tag_144:\n        /* \"#utility.yul\":1925:2042   */\n    tag_143:\n        /* \"#utility.yul\":2066:2129   */\n      tag_146\n        /* \"#utility.yul\":2121:2128   */\n      dup9\n        /* \"#utility.yul\":2112:2118   */\n      dup3\n        /* \"#utility.yul\":2101:2110   */\n      dup10\n        /* \"#utility.yul\":2097:2119   */\n      add\n        /* \"#utility.yul\":2066:2129   */\n      tag_124\n      jump\t// in\n    tag_146:\n        /* \"#utility.yul\":2056:2129   */\n      swap5\n      pop\n        /* \"#utility.yul\":1851:2139   */\n      pop\n        /* \"#utility.yul\":2206:2208   */\n      0x40\n        /* \"#utility.yul\":2195:2204   */\n      dup7\n        /* \"#utility.yul\":2191:2209   */\n      add\n        /* \"#utility.yul\":2178:2210   */\n      calldataload\n        /* \"#utility.yul\":2237:2255   */\n      0xffffffffffffffff\n        /* \"#utility.yul\":2229:2235   */\n      dup2\n        /* \"#utility.yul\":2226:2256   */\n      gt\n        /* \"#utility.yul\":2223:2340   */\n      iszero\n      tag_147\n      jumpi\n        /* \"#utility.yul\":2259:2338   */\n      tag_148\n      tag_145\n      jump\t// in\n    tag_148:\n        /* \"#utility.yul\":2223:2340   */\n    tag_147:\n        /* \"#utility.yul\":2364:2427   */\n      tag_149\n        /* \"#utility.yul\":2419:2426   */\n      dup9\n        /* \"#utility.yul\":2410:2416   */\n      dup3\n        /* \"#utility.yul\":2399:2408   */\n      dup10\n        /* \"#utility.yul\":2395:2417   */\n      add\n        /* \"#utility.yul\":2364:2427   */\n      tag_124\n      jump\t// in\n    tag_149:\n        /* \"#utility.yul\":2354:2427   */\n      swap4\n      pop\n        /* \"#utility.yul\":2149:2437   */\n      pop\n        /* \"#utility.yul\":2504:2506   */\n      0x60\n        /* \"#utility.yul\":2493:2502   */\n      dup7\n        /* \"#utility.yul\":2489:2507   */\n      add\n        /* \"#utility.yul\":2476:2508   */\n      calldataload\n        /* \"#utility.yul\":2535:2553   */\n      0xffffffffffffffff\n        /* \"#utility.yul\":2527:2533   */\n      dup2\n        /* \"#utility.yul\":2524:2554   */\n      gt\n        /* \"#utility.yul\":2521:2638   */\n      iszero\n      tag_150\n      jumpi\n        /* \"#utility.yul\":2557:2636   */\n      tag_151\n      tag_145\n      jump\t// in\n    tag_151:\n        /* \"#utility.yul\":2521:2638   */\n    tag_150:\n        /* \"#utility.yul\":2662:2725   */\n      tag_152\n        /* \"#utility.yul\":2717:2724   */\n      dup9\n        /* \"#utility.yul\":2708:2714   */\n      dup3\n        /* \"#utility.yul\":2697:2706   */\n      dup10\n        /* \"#utility.yul\":2693:2715   */\n      add\n        /* \"#utility.yul\":2662:2725   */\n      tag_124\n      jump\t// in\n    tag_152:\n        /* \"#utility.yul\":2652:2725   */\n      swap3\n      pop\n        /* \"#utility.yul\":2447:2735   */\n      pop\n        /* \"#utility.yul\":2802:2805   */\n      0x80\n        /* \"#utility.yul\":2791:2800   */\n      dup7\n        /* \"#utility.yul\":2787:2806   */\n      add\n        /* \"#utility.yul\":2774:2807   */\n      calldataload\n        /* \"#utility.yul\":2834:2852   */\n      0xffffffffffffffff\n        /* \"#utility.yul\":2826:2832   */\n      dup2\n        /* \"#utility.yul\":2823:2853   */\n      gt\n        /* \"#utility.yul\":2820:2937   */\n      iszero\n      tag_153\n      jumpi\n        /* \"#utility.yul\":2856:2935   */\n      tag_154\n      tag_145\n      jump\t// in\n    tag_154:\n        /* \"#utility.yul\":2820:2937   */\n    tag_153:\n        /* \"#utility.yul\":2961:3024   */\n      tag_155\n        /* \"#utility.yul\":3016:3023   */\n      dup9\n        /* \"#utility.yul\":3007:3013   */\n      dup3\n        /* \"#utility.yul\":2996:3005   */\n      dup10\n        /* \"#utility.yul\":2992:3014   */\n      add\n        /* \"#utility.yul\":2961:3024   */\n      tag_124\n      jump\t// in\n    tag_155:\n        /* \"#utility.yul\":2951:3024   */\n      swap2\n      pop\n        /* \"#utility.yul\":2745:3034   */\n      pop\n        /* \"#utility.yul\":1410:3041   */\n      swap3\n      swap6\n      pop\n      swap3\n      swap6\n      swap1\n      swap4\n      pop\n      jump\t// out\n        /* \"#utility.yul\":3047:3376   */\n    tag_33:\n        /* \"#utility.yul\":3106:3112   */\n      0x00\n        /* \"#utility.yul\":3155:3157   */\n      0x20\n        /* \"#utility.yul\":3143:3152   */\n      dup3\n        /* \"#utility.yul\":3134:3141   */\n      dup5\n        /* \"#utility.yul\":3130:3153   */\n      sub\n        /* \"#utility.yul\":3126:3158   */\n      slt\n        /* \"#utility.yul\":3123:3242   */\n      iszero\n      tag_157\n      jumpi\n        /* \"#utility.yul\":3161:3240   */\n      tag_158\n      tag_137\n      jump\t// in\n    tag_158:\n        /* \"#utility.yul\":3123:3242   */\n    tag_157:\n        /* \"#utility.yul\":3281:3282   */\n      0x00\n        /* \"#utility.yul\":3306:3359   */\n      tag_159\n        /* \"#utility.yul\":3351:3358   */\n      dup5\n        /* \"#utility.yul\":3342:3348   */\n      dup3\n        /* \"#utility.yul\":3331:3340   */\n      dup6\n        /* \"#utility.yul\":3327:3349   */\n      add\n        /* \"#utility.yul\":3306:3359   */\n      tag_130\n      jump\t// in\n    tag_159:\n        /* \"#utility.yul\":3296:3359   */\n      swap2\n      pop\n        /* \"#utility.yul\":3252:3369   */\n      pop\n        /* \"#utility.yul\":3047:3376   */\n      swap3\n      swap2\n      pop\n      pop\n      jump\t// out\n        /* \"#utility.yul\":3382:5159   */\n    tag_40:\n        /* \"#utility.yul\":3526:3532   */\n      0x00\n        /* \"#utility.yul\":3534:3540   */\n      dup1\n        /* \"#utility.yul\":3542:3548   */\n      0x00\n        /* \"#utility.yul\":3550:3556   */\n      dup1\n        /* \"#utility.yul\":3558:3564   */\n      0x00\n        /* \"#utility.yul\":3566:3572   */\n      dup1\n        /* \"#utility.yul\":3615:3618   */\n      0xc0\n        /* \"#utility.yul\":3603:3612   */\n      dup8\n        /* \"#utility.yul\":3594:3601   */\n      dup10\n        /* \"#utility.yul\":3590:3613   */\n      sub\n        /* \"#utility.yul\":3586:3619   */\n      slt\n        /* \"#utility.yul\":3583:3703   */\n      iszero\n      tag_161\n      jumpi\n        /* \"#utility.yul\":3622:3701   */\n      tag_162\n      tag_137\n      jump\t// in\n    tag_162:\n        /* \"#utility.yul\":3583:3703   */\n    tag_161:\n        /* \"#utility.yul\":3742:3743   */\n      0x00\n        /* \"#utility.yul\":3767:3820   */\n      tag_163\n        /* \"#utility.yul\":3812:3819   */\n      dup10\n        /* \"#utility.yul\":3803:3809   */\n      dup3\n        /* \"#utility.yul\":3792:3801   */\n      dup11\n        /* \"#utility.yul\":3788:3810   */\n      add\n        /* \"#utility.yul\":3767:3820   */\n      tag_130\n      jump\t// in\n    tag_163:\n        /* \"#utility.yul\":3757:3820   */\n      swap7\n      pop\n        /* \"#utility.yul\":3713:3830   */\n      pop\n        /* \"#utility.yul\":3869:3871   */\n      0x20\n        /* \"#utility.yul\":3895:3948   */\n      tag_164\n        /* \"#utility.yul\":3940:3947   */\n      dup10\n        /* \"#utility.yul\":3931:3937   */\n      dup3\n        /* \"#utility.yul\":3920:3929   */\n      dup11\n        /* \"#utility.yul\":3916:3938   */\n      add\n        /* \"#utility.yul\":3895:3948   */\n      tag_120\n      jump\t// in\n    tag_164:\n        /* \"#utility.yul\":3885:3948   */\n      swap6\n      pop\n        /* \"#utility.yul\":3840:3958   */\n      pop\n        /* \"#utility.yul\":4025:4027   */\n      0x40\n        /* \"#utility.yul\":4014:4023   */\n      dup8\n        /* \"#utility.yul\":4010:4028   */\n      add\n        /* \"#utility.yul\":3997:4029   */\n      calldataload\n        /* \"#utility.yul\":4056:4074   */\n      0xffffffffffffffff\n        /* \"#utility.yul\":4048:4054   */\n      dup2\n        /* \"#utility.yul\":4045:4075   */\n      gt\n        /* \"#utility.yul\":4042:4159   */\n      iszero\n      tag_165\n      jumpi\n        /* \"#utility.yul\":4078:4157   */\n      tag_166\n      tag_145\n      jump\t// in\n    tag_166:\n        /* \"#utility.yul\":4042:4159   */\n    tag_165:\n        /* \"#utility.yul\":4183:4246   */\n      tag_167\n        /* \"#utility.yul\":4238:4245   */\n      dup10\n        /* \"#utility.yul\":4229:4235   */\n      dup3\n        /* \"#utility.yul\":4218:4227   */\n      dup11\n        /* \"#utility.yul\":4214:4236   */\n      add\n        /* \"#utility.yul\":4183:4246   */\n      tag_124\n      jump\t// in\n    tag_167:\n        /* \"#utility.yul\":4173:4246   */\n      swap5\n      pop\n        /* \"#utility.yul\":3968:4256   */\n      pop\n        /* \"#utility.yul\":4323:4325   */\n      0x60\n        /* \"#utility.yul\":4312:4321   */\n      dup8\n        /* \"#utility.yul\":4308:4326   */\n      add\n        /* \"#utility.yul\":4295:4327   */\n      calldataload\n        /* \"#utility.yul\":4354:4372   */\n      0xffffffffffffffff\n        /* \"#utility.yul\":4346:4352   */\n      dup2\n        /* \"#utility.yul\":4343:4373   */\n      gt\n        /* \"#utility.yul\":4340:4457   */\n      iszero\n      tag_168\n      jumpi\n        /* \"#utility.yul\":4376:4455   */\n      tag_169\n      tag_145\n      jump\t// in\n    tag_169:\n        /* \"#utility.yul\":4340:4457   */\n    tag_168:\n        /* \"#utility.yul\":4481:4544   */\n      tag_170\n        /* \"#utility.yul\":4536:4543   */\n      dup10\n        /* \"#utility.yul\":4527:4533   */\n      dup3\n        /* \"#utility.yul\":4516:4525   */\n      dup11\n        /* \"#utility.yul\":4512:4534   */\n      add\n        /* \"#utility.yul\":4481:4544   */\n      tag_124\n      jump\t// in\n    tag_170:\n        /* \"#utility.yul\":4471:4544   */\n      swap4\n      pop\n        /* \"#utility.yul\":4266:4554   */\n      pop\n        /* \"#utility.yul\":4621:4624   */\n      0x80\n        /* \"#utility.yul\":4610:4619   */\n      dup8\n        /* \"#utility.yul\":4606:4625   */\n      add\n        /* \"#utility.yul\":4593:4626   */\n      calldataload\n        /* \"#utility.yul\":4653:4671   */\n      0xffffffffffffffff\n        /* \"#utility.yul\":4645:4651   */\n      dup2\n        /* \"#utility.yul\":4642:4672   */\n      gt\n        /* \"#utility.yul\":4639:4756   */\n      iszero\n      tag_171\n      jumpi\n        /* \"#utility.yul\":4675:4754   */\n      tag_172\n      tag_145\n      jump\t// in\n    tag_172:\n        /* \"#utility.yul\":4639:4756   */\n    tag_171:\n        /* \"#utility.yul\":4780:4843   */\n      tag_173\n        /* \"#utility.yul\":4835:4842   */\n      dup10\n        /* \"#utility.yul\":4826:4832   */\n      dup3\n        /* \"#utility.yul\":4815:4824   */\n      dup11\n        /* \"#utility.yul\":4811:4833   */\n      add\n        /* \"#utility.yul\":4780:4843   */\n      tag_124\n      jump\t// in\n    tag_173:\n        /* \"#utility.yul\":4770:4843   */\n      swap3\n      pop\n        /* \"#utility.yul\":4564:4853   */\n      pop\n        /* \"#utility.yul\":4920:4923   */\n      0xa0\n        /* \"#utility.yul\":4909:4918   */\n      dup8\n        /* \"#utility.yul\":4905:4924   */\n      add\n        /* \"#utility.yul\":4892:4925   */\n      calldataload\n        /* \"#utility.yul\":4952:4970   */\n      0xffffffffffffffff\n        /* \"#utility.yul\":4944:4950   */\n      dup2\n        /* \"#utility.yul\":4941:4971   */\n      gt\n        /* \"#utility.yul\":4938:5055   */\n      iszero\n      tag_174\n      jumpi\n        /* \"#utility.yul\":4974:5053   */\n      tag_175\n      tag_145\n      jump\t// in\n    tag_175:\n        /* \"#utility.yul\":4938:5055   */\n    tag_174:\n        /* \"#utility.yul\":5079:5142   */\n      tag_176\n        /* \"#utility.yul\":5134:5141   */\n      dup10\n        /* \"#utility.yul\":5125:5131   */\n      dup3\n        /* \"#utility.yul\":5114:5123   */\n      dup11\n        /* \"#utility.yul\":5110:5132   */\n      add\n        /* \"#utility.yul\":5079:5142   */\n      tag_124\n      jump\t// in\n    tag_176:\n        /* \"#utility.yul\":5069:5142   */\n      swap2\n      pop\n        /* \"#utility.yul\":4863:5152   */\n      pop\n        /* \"#utility.yul\":3382:5159   */\n      swap3\n      swap6\n      pop\n      swap3\n      swap6\n      pop\n      swap3\n      swap6\n      jump\t// out\n        /* \"#utility.yul\":5165:5401   */\n    tag_177:\n        /* \"#utility.yul\":5274:5284   */\n      0x00\n        /* \"#utility.yul\":5309:5395   */\n      tag_179\n        /* \"#utility.yul\":5391:5394   */\n      dup4\n        /* \"#utility.yul\":5383:5389   */\n      dup4\n        /* \"#utility.yul\":5309:5395   */\n      tag_180\n      jump\t// in\n    tag_179:\n        /* \"#utility.yul\":5295:5395   */\n      swap1\n      pop\n        /* \"#utility.yul\":5165:5401   */\n      swap3\n      swap2\n      pop\n      pop\n      jump\t// out\n        /* \"#utility.yul\":5407:5515   */\n    tag_181:\n        /* \"#utility.yul\":5484:5508   */\n      tag_183\n        /* \"#utility.yul\":5502:5507   */\n      dup2\n        /* \"#utility.yul\":5484:5508   */\n      tag_184\n      jump\t// in\n    tag_183:\n        /* \"#utility.yul\":5479:5482   */\n      dup3\n        /* \"#utility.yul\":5472:5509   */\n      mstore\n        /* \"#utility.yul\":5407:5515   */\n      pop\n      pop\n      jump\t// out\n        /* \"#utility.yul\":5521:5639   */\n    tag_185:\n        /* \"#utility.yul\":5608:5632   */\n      tag_187\n        /* \"#utility.yul\":5626:5631   */\n      dup2\n        /* \"#utility.yul\":5608:5632   */\n      tag_184\n      jump\t// in\n    tag_187:\n        /* \"#utility.yul\":5603:5606   */\n      dup3\n        /* \"#utility.yul\":5596:5633   */\n      mstore\n        /* \"#utility.yul\":5521:5639   */\n      pop\n      pop\n      jump\t// out\n        /* \"#utility.yul\":5683:6754   */\n    tag_188:\n        /* \"#utility.yul\":5842:5845   */\n      0x00\n        /* \"#utility.yul\":5871:5945   */\n      tag_190\n        /* \"#utility.yul\":5939:5944   */\n      dup3\n        /* \"#utility.yul\":5871:5945   */\n      tag_191\n      jump\t// in\n    tag_190:\n        /* \"#utility.yul\":5961:6067   */\n      tag_192\n        /* \"#utility.yul\":6060:6066   */\n      dup2\n        /* \"#utility.yul\":6055:6058   */\n      dup6\n        /* \"#utility.yul\":5961:6067   */\n      tag_193\n      jump\t// in\n    tag_192:\n        /* \"#utility.yul\":5954:6067   */\n      swap4\n      pop\n        /* \"#utility.yul\":6093:6096   */\n      dup4\n        /* \"#utility.yul\":6138:6142   */\n      0x20\n        /* \"#utility.yul\":6130:6136   */\n      dup3\n        /* \"#utility.yul\":6126:6143   */\n      mul\n        /* \"#utility.yul\":6121:6124   */\n      dup6\n        /* \"#utility.yul\":6117:6144   */\n      add\n        /* \"#utility.yul\":6168:6244   */\n      tag_194\n        /* \"#utility.yul\":6238:6243   */\n      dup6\n        /* \"#utility.yul\":6168:6244   */\n      tag_195\n      jump\t// in\n    tag_194:\n        /* \"#utility.yul\":6267:6274   */\n      dup1\n        /* \"#utility.yul\":6298:6299   */\n      0x00\n        /* \"#utility.yul\":6283:6709   */\n    tag_196:\n        /* \"#utility.yul\":6308:6314   */\n      dup6\n        /* \"#utility.yul\":6305:6306   */\n      dup2\n        /* \"#utility.yul\":6302:6315   */\n      lt\n        /* \"#utility.yul\":6283:6709   */\n      iszero\n      tag_198\n      jumpi\n        /* \"#utility.yul\":6379:6388   */\n      dup5\n        /* \"#utility.yul\":6373:6377   */\n      dup5\n        /* \"#utility.yul\":6369:6389   */\n      sub\n        /* \"#utility.yul\":6364:6367   */\n      dup10\n        /* \"#utility.yul\":6357:6390   */\n      mstore\n        /* \"#utility.yul\":6430:6436   */\n      dup2\n        /* \"#utility.yul\":6424:6437   */\n      mload\n        /* \"#utility.yul\":6458:6562   */\n      tag_199\n        /* \"#utility.yul\":6557:6561   */\n      dup6\n        /* \"#utility.yul\":6542:6555   */\n      dup3\n        /* \"#utility.yul\":6458:6562   */\n      tag_177\n      jump\t// in\n    tag_199:\n        /* \"#utility.yul\":6450:6562   */\n      swap5\n      pop\n        /* \"#utility.yul\":6585:6665   */\n      tag_200\n        /* \"#utility.yul\":6658:6664   */\n      dup4\n        /* \"#utility.yul\":6585:6665   */\n      tag_201\n      jump\t// in\n    tag_200:\n        /* \"#utility.yul\":6575:6665   */\n      swap3\n      pop\n        /* \"#utility.yul\":6694:6698   */\n      0x20\n        /* \"#utility.yul\":6689:6692   */\n      dup11\n        /* \"#utility.yul\":6685:6699   */\n      add\n        /* \"#utility.yul\":6678:6699   */\n      swap10\n      pop\n        /* \"#utility.yul\":6343:6709   */\n      pop\n        /* \"#utility.yul\":6330:6331   */\n      0x01\n        /* \"#utility.yul\":6327:6328   */\n      dup2\n        /* \"#utility.yul\":6323:6332   */\n      add\n        /* \"#utility.yul\":6318:6332   */\n      swap1\n      pop\n        /* \"#utility.yul\":6283:6709   */\n      jump(tag_196)\n    tag_198:\n        /* \"#utility.yul\":6287:6301   */\n      pop\n        /* \"#utility.yul\":6725:6729   */\n      dup3\n        /* \"#utility.yul\":6718:6729   */\n      swap8\n      pop\n        /* \"#utility.yul\":6745:6748   */\n      dup8\n        /* \"#utility.yul\":6738:6748   */\n      swap6\n      pop\n        /* \"#utility.yul\":5847:6754   */\n      pop\n      pop\n      pop\n      pop\n      pop\n        /* \"#utility.yul\":5683:6754   */\n      swap3\n      swap2\n      pop\n      pop\n      jump\t// out\n        /* \"#utility.yul\":6760:7104   */\n    tag_202:\n        /* \"#utility.yul\":6838:6841   */\n      0x00\n        /* \"#utility.yul\":6866:6905   */\n      tag_204\n        /* \"#utility.yul\":6899:6904   */\n      dup3\n        /* \"#utility.yul\":6866:6905   */\n      tag_205\n      jump\t// in\n    tag_204:\n        /* \"#utility.yul\":6921:6982   */\n      tag_206\n        /* \"#utility.yul\":6975:6981   */\n      dup2\n        /* \"#utility.yul\":6970:6973   */\n      dup6\n        /* \"#utility.yul\":6921:6982   */\n      tag_207\n      jump\t// in\n    tag_206:\n        /* \"#utility.yul\":6914:6982   */\n      swap4\n      pop\n        /* \"#utility.yul\":6991:7043   */\n      tag_208\n        /* \"#utility.yul\":7036:7042   */\n      dup2\n        /* \"#utility.yul\":7031:7034   */\n      dup6\n        /* \"#utility.yul\":7024:7028   */\n      0x20\n        /* \"#utility.yul\":7017:7022   */\n      dup7\n        /* \"#utility.yul\":7013:7029   */\n      add\n        /* \"#utility.yul\":6991:7043   */\n      tag_209\n      jump\t// in\n    tag_208:\n        /* \"#utility.yul\":7068:7097   */\n      tag_210\n        /* \"#utility.yul\":7090:7096   */\n      dup2\n        /* \"#utility.yul\":7068:7097   */\n      tag_211\n      jump\t// in\n    tag_210:\n        /* \"#utility.yul\":7063:7066   */\n      dup5\n        /* \"#utility.yul\":7059:7098   */\n      add\n        /* \"#utility.yul\":7052:7098   */\n      swap2\n      pop\n        /* \"#utility.yul\":6842:7104   */\n      pop\n        /* \"#utility.yul\":6760:7104   */\n      swap3\n      swap2\n      pop\n      pop\n      jump\t// out\n        /* \"#utility.yul\":7144:8475   */\n    tag_180:\n        /* \"#utility.yul\":7243:7246   */\n      0x00\n        /* \"#utility.yul\":7279:7283   */\n      0xa0\n        /* \"#utility.yul\":7274:7277   */\n      dup4\n        /* \"#utility.yul\":7270:7284   */\n      add\n        /* \"#utility.yul\":7370:7374   */\n      0x00\n        /* \"#utility.yul\":7363:7368   */\n      dup4\n        /* \"#utility.yul\":7359:7375   */\n      add\n        /* \"#utility.yul\":7353:7376   */\n      mload\n        /* \"#utility.yul\":7389:7452   */\n      tag_213\n        /* \"#utility.yul\":7446:7450   */\n      0x00\n        /* \"#utility.yul\":7441:7444   */\n      dup7\n        /* \"#utility.yul\":7437:7451   */\n      add\n        /* \"#utility.yul\":7423:7435   */\n      dup3\n        /* \"#utility.yul\":7389:7452   */\n      tag_181\n      jump\t// in\n    tag_213:\n        /* \"#utility.yul\":7294:7462   */\n      pop\n        /* \"#utility.yul\":7545:7549   */\n      0x20\n        /* \"#utility.yul\":7538:7543   */\n      dup4\n        /* \"#utility.yul\":7534:7550   */\n      add\n        /* \"#utility.yul\":7528:7551   */\n      mload\n        /* \"#utility.yul\":7598:7601   */\n      dup5\n        /* \"#utility.yul\":7592:7596   */\n      dup3\n        /* \"#utility.yul\":7588:7602   */\n      sub\n        /* \"#utility.yul\":7581:7585   */\n      0x20\n        /* \"#utility.yul\":7576:7579   */\n      dup7\n        /* \"#utility.yul\":7572:7586   */\n      add\n        /* \"#utility.yul\":7565:7603   */\n      mstore\n        /* \"#utility.yul\":7624:7697   */\n      tag_214\n        /* \"#utility.yul\":7692:7696   */\n      dup3\n        /* \"#utility.yul\":7678:7690   */\n      dup3\n        /* \"#utility.yul\":7624:7697   */\n      tag_202\n      jump\t// in\n    tag_214:\n        /* \"#utility.yul\":7616:7697   */\n      swap2\n      pop\n        /* \"#utility.yul\":7472:7708   */\n      pop\n        /* \"#utility.yul\":7794:7798   */\n      0x40\n        /* \"#utility.yul\":7787:7792   */\n      dup4\n        /* \"#utility.yul\":7783:7799   */\n      add\n        /* \"#utility.yul\":7777:7800   */\n      mload\n        /* \"#utility.yul\":7847:7850   */\n      dup5\n        /* \"#utility.yul\":7841:7845   */\n      dup3\n        /* \"#utility.yul\":7837:7851   */\n      sub\n        /* \"#utility.yul\":7830:7834   */\n      0x40\n        /* \"#utility.yul\":7825:7828   */\n      dup7\n        /* \"#utility.yul\":7821:7835   */\n      add\n        /* \"#utility.yul\":7814:7852   */\n      mstore\n        /* \"#utility.yul\":7873:7946   */\n      tag_215\n        /* \"#utility.yul\":7941:7945   */\n      dup3\n        /* \"#utility.yul\":7927:7939   */\n      dup3\n        /* \"#utility.yul\":7873:7946   */\n      tag_202\n      jump\t// in\n    tag_215:\n        /* \"#utility.yul\":7865:7946   */\n      swap2\n      pop\n        /* \"#utility.yul\":7718:7957   */\n      pop\n        /* \"#utility.yul\":8038:8042   */\n      0x60\n        /* \"#utility.yul\":8031:8036   */\n      dup4\n        /* \"#utility.yul\":8027:8043   */\n      add\n        /* \"#utility.yul\":8021:8044   */\n      mload\n        /* \"#utility.yul\":8091:8094   */\n      dup5\n        /* \"#utility.yul\":8085:8089   */\n      dup3\n        /* \"#utility.yul\":8081:8095   */\n      sub\n        /* \"#utility.yul\":8074:8078   */\n      0x60\n        /* \"#utility.yul\":8069:8072   */\n      dup7\n        /* \"#utility.yul\":8065:8079   */\n      add\n        /* \"#utility.yul\":8058:8096   */\n      mstore\n        /* \"#utility.yul\":8117:8190   */\n      tag_216\n        /* \"#utility.yul\":8185:8189   */\n      dup3\n        /* \"#utility.yul\":8171:8183   */\n      dup3\n        /* \"#utility.yul\":8117:8190   */\n      tag_202\n      jump\t// in\n    tag_216:\n        /* \"#utility.yul\":8109:8190   */\n      swap2\n      pop\n        /* \"#utility.yul\":7967:8201   */\n      pop\n        /* \"#utility.yul\":8285:8289   */\n      0x80\n        /* \"#utility.yul\":8278:8283   */\n      dup4\n        /* \"#utility.yul\":8274:8290   */\n      add\n        /* \"#utility.yul\":8268:8291   */\n      mload\n        /* \"#utility.yul\":8338:8341   */\n      dup5\n        /* \"#utility.yul\":8332:8336   */\n      dup3\n        /* \"#utility.yul\":8328:8342   */\n      sub\n        /* \"#utility.yul\":8321:8325   */\n      0x80\n        /* \"#utility.yul\":8316:8319   */\n      dup7\n        /* \"#utility.yul\":8312:8326   */\n      add\n        /* \"#utility.yul\":8305:8343   */\n      mstore\n        /* \"#utility.yul\":8364:8437   */\n      tag_217\n        /* \"#utility.yul\":8432:8436   */\n      dup3\n        /* \"#utility.yul\":8418:8430   */\n      dup3\n        /* \"#utility.yul\":8364:8437   */\n      tag_202\n      jump\t// in\n    tag_217:\n        /* \"#utility.yul\":8356:8437   */\n      swap2\n      pop\n        /* \"#utility.yul\":8211:8448   */\n      pop\n        /* \"#utility.yul\":8465:8469   */\n      dup1\n        /* \"#utility.yul\":8458:8469   */\n      swap2\n      pop\n        /* \"#utility.yul\":7248:8475   */\n      pop\n        /* \"#utility.yul\":7144:8475   */\n      swap3\n      swap2\n      pop\n      pop\n      jump\t// out\n        /* \"#utility.yul\":8481:8703   */\n    tag_15:\n        /* \"#utility.yul\":8574:8578   */\n      0x00\n        /* \"#utility.yul\":8612:8614   */\n      0x20\n        /* \"#utility.yul\":8601:8610   */\n      dup3\n        /* \"#utility.yul\":8597:8615   */\n      add\n        /* \"#utility.yul\":8589:8615   */\n      swap1\n      pop\n        /* \"#utility.yul\":8625:8696   */\n      tag_219\n        /* \"#utility.yul\":8693:8694   */\n      0x00\n        /* \"#utility.yul\":8682:8691   */\n      dup4\n        /* \"#utility.yul\":8678:8695   */\n      add\n        /* \"#utility.yul\":8669:8675   */\n      dup5\n        /* \"#utility.yul\":8625:8696   */\n      tag_185\n      jump\t// in\n    tag_219:\n        /* \"#utility.yul\":8481:8703   */\n      swap3\n      swap2\n      pop\n      pop\n      jump\t// out\n        /* \"#utility.yul\":8709:9162   */\n    tag_26:\n        /* \"#utility.yul\":8892:8896   */\n      0x00\n        /* \"#utility.yul\":8930:8932   */\n      0x20\n        /* \"#utility.yul\":8919:8928   */\n      dup3\n        /* \"#utility.yul\":8915:8933   */\n      add\n        /* \"#utility.yul\":8907:8933   */\n      swap1\n      pop\n        /* \"#utility.yul\":8979:8988   */\n      dup2\n        /* \"#utility.yul\":8973:8977   */\n      dup2\n        /* \"#utility.yul\":8969:8989   */\n      sub\n        /* \"#utility.yul\":8965:8966   */\n      0x00\n        /* \"#utility.yul\":8954:8963   */\n      dup4\n        /* \"#utility.yul\":8950:8967   */\n      add\n        /* \"#utility.yul\":8943:8990   */\n      mstore\n        /* \"#utility.yul\":9007:9155   */\n      tag_221\n        /* \"#utility.yul\":9150:9154   */\n      dup2\n        /* \"#utility.yul\":9141:9147   */\n      dup5\n        /* \"#utility.yul\":9007:9155   */\n      tag_188\n      jump\t// in\n    tag_221:\n        /* \"#utility.yul\":8999:9155   */\n      swap1\n      pop\n        /* \"#utility.yul\":8709:9162   */\n      swap3\n      swap2\n      pop\n      pop\n      jump\t// out\n        /* \"#utility.yul\":9168:9297   */\n    tag_114:\n        /* \"#utility.yul\":9202:9208   */\n      0x00\n        /* \"#utility.yul\":9229:9249   */\n      tag_223\n      tag_224\n      jump\t// in\n    tag_223:\n        /* \"#utility.yul\":9219:9249   */\n      swap1\n      pop\n        /* \"#utility.yul\":9258:9291   */\n      tag_225\n        /* \"#utility.yul\":9286:9290   */\n      dup3\n        /* \"#utility.yul\":9278:9284   */\n      dup3\n        /* \"#utility.yul\":9258:9291   */\n      tag_226\n      jump\t// in\n    tag_225:\n        /* \"#utility.yul\":9168:9297   */\n      swap2\n      swap1\n      pop\n      jump\t// out\n        /* \"#utility.yul\":9303:9378   */\n    tag_224:\n        /* \"#utility.yul\":9336:9342   */\n      0x00\n        /* \"#utility.yul\":9369:9371   */\n      0x40\n        /* \"#utility.yul\":9363:9372   */\n      mload\n        /* \"#utility.yul\":9353:9372   */\n      swap1\n      pop\n        /* \"#utility.yul\":9303:9378   */\n      swap1\n      jump\t// out\n        /* \"#utility.yul\":9384:9692   */\n    tag_113:\n        /* \"#utility.yul\":9446:9450   */\n      0x00\n        /* \"#utility.yul\":9536:9554   */\n      0xffffffffffffffff\n        /* \"#utility.yul\":9528:9534   */\n      dup3\n        /* \"#utility.yul\":9525:9555   */\n      gt\n        /* \"#utility.yul\":9522:9578   */\n      iszero\n      tag_229\n      jumpi\n        /* \"#utility.yul\":9558:9576   */\n      tag_230\n      tag_231\n      jump\t// in\n    tag_230:\n        /* \"#utility.yul\":9522:9578   */\n    tag_229:\n        /* \"#utility.yul\":9596:9625   */\n      tag_232\n        /* \"#utility.yul\":9618:9624   */\n      dup3\n        /* \"#utility.yul\":9596:9625   */\n      tag_211\n      jump\t// in\n    tag_232:\n        /* \"#utility.yul\":9588:9625   */\n      swap1\n      pop\n        /* \"#utility.yul\":9680:9684   */\n      0x20\n        /* \"#utility.yul\":9674:9678   */\n      dup2\n        /* \"#utility.yul\":9670:9685   */\n      add\n        /* \"#utility.yul\":9662:9685   */\n      swap1\n      pop\n        /* \"#utility.yul\":9384:9692   */\n      swap2\n      swap1\n      pop\n      jump\t// out\n        /* \"#utility.yul\":9698:9850   */\n    tag_195:\n        /* \"#utility.yul\":9785:9789   */\n      0x00\n        /* \"#utility.yul\":9808:9811   */\n      dup2\n        /* \"#utility.yul\":9800:9811   */\n      swap1\n      pop\n        /* \"#utility.yul\":9838:9842   */\n      0x20\n        /* \"#utility.yul\":9833:9836   */\n      dup3\n        /* \"#utility.yul\":9829:9843   */\n      add\n        /* \"#utility.yul\":9821:9843   */\n      swap1\n      pop\n        /* \"#utility.yul\":9698:9850   */\n      swap2\n      swap1\n      pop\n      jump\t// out\n        /* \"#utility.yul\":9856:9990   */\n    tag_191:\n        /* \"#utility.yul\":9943:9949   */\n      0x00\n        /* \"#utility.yul\":9977:9982   */\n      dup2\n        /* \"#utility.yul\":9971:9983   */\n      mload\n        /* \"#utility.yul\":9961:9983   */\n      swap1\n      pop\n        /* \"#utility.yul\":9856:9990   */\n      swap2\n      swap1\n      pop\n      jump\t// out\n        /* \"#utility.yul\":9996:10095   */\n    tag_205:\n        /* \"#utility.yul\":10048:10054   */\n      0x00\n        /* \"#utility.yul\":10082:10087   */\n      dup2\n        /* \"#utility.yul\":10076:10088   */\n      mload\n        /* \"#utility.yul\":10066:10088   */\n      swap1\n      pop\n        /* \"#utility.yul\":9996:10095   */\n      swap2\n      swap1\n      pop\n      jump\t// out\n        /* \"#utility.yul\":10101:10234   */\n    tag_201:\n        /* \"#utility.yul\":10191:10195   */\n      0x00\n        /* \"#utility.yul\":10223:10227   */\n      0x20\n        /* \"#utility.yul\":10218:10221   */\n      dup3\n        /* \"#utility.yul\":10214:10228   */\n      add\n        /* \"#utility.yul\":10206:10228   */\n      swap1\n      pop\n        /* \"#utility.yul\":10101:10234   */\n      swap2\n      swap1\n      pop\n      jump\t// out\n        /* \"#utility.yul\":10240:10444   */\n    tag_193:\n        /* \"#utility.yul\":10359:10370   */\n      0x00\n        /* \"#utility.yul\":10393:10399   */\n      dup3\n        /* \"#utility.yul\":10388:10391   */\n      dup3\n        /* \"#utility.yul\":10381:10400   */\n      mstore\n        /* \"#utility.yul\":10433:10437   */\n      0x20\n        /* \"#utility.yul\":10428:10431   */\n      dup3\n        /* \"#utility.yul\":10424:10438   */\n      add\n        /* \"#utility.yul\":10409:10438   */\n      swap1\n      pop\n        /* \"#utility.yul\":10240:10444   */\n      swap3\n      swap2\n      pop\n      pop\n      jump\t// out\n        /* \"#utility.yul\":10450:10609   */\n    tag_207:\n        /* \"#utility.yul\":10524:10535   */\n      0x00\n        /* \"#utility.yul\":10558:10564   */\n      dup3\n        /* \"#utility.yul\":10553:10556   */\n      dup3\n        /* \"#utility.yul\":10546:10565   */\n      mstore\n        /* \"#utility.yul\":10598:10602   */\n      0x20\n        /* \"#utility.yul\":10593:10596   */\n      dup3\n        /* \"#utility.yul\":10589:10603   */\n      add\n        /* \"#utility.yul\":10574:10603   */\n      swap1\n      pop\n        /* \"#utility.yul\":10450:10609   */\n      swap3\n      swap2\n      pop\n      pop\n      jump\t// out\n        /* \"#utility.yul\":10615:10711   */\n    tag_184:\n        /* \"#utility.yul\":10652:10659   */\n      0x00\n        /* \"#utility.yul\":10681:10705   */\n      tag_240\n        /* \"#utility.yul\":10699:10704   */\n      dup3\n        /* \"#utility.yul\":10681:10705   */\n      tag_241\n      jump\t// in\n    tag_240:\n        /* \"#utility.yul\":10670:10705   */\n      swap1\n      pop\n        /* \"#utility.yul\":10615:10711   */\n      swap2\n      swap1\n      pop\n      jump\t// out\n        /* \"#utility.yul\":10717:10843   */\n    tag_241:\n        /* \"#utility.yul\":10754:10761   */\n      0x00\n        /* \"#utility.yul\":10794:10836   */\n      0xffffffffffffffffffffffffffffffffffffffff\n        /* \"#utility.yul\":10787:10792   */\n      dup3\n        /* \"#utility.yul\":10783:10837   */\n      and\n        /* \"#utility.yul\":10772:10837   */\n      swap1\n      pop\n        /* \"#utility.yul\":10717:10843   */\n      swap2\n      swap1\n      pop\n      jump\t// out\n        /* \"#utility.yul\":10849:10926   */\n    tag_243:\n        /* \"#utility.yul\":10886:10893   */\n      0x00\n        /* \"#utility.yul\":10915:10920   */\n      dup2\n        /* \"#utility.yul\":10904:10920   */\n      swap1\n      pop\n        /* \"#utility.yul\":10849:10926   */\n      swap2\n      swap1\n      pop\n      jump\t// out\n        /* \"#utility.yul\":10932:11086   */\n    tag_119:\n        /* \"#utility.yul\":11016:11022   */\n      dup3\n        /* \"#utility.yul\":11011:11014   */\n      dup2\n        /* \"#utility.yul\":11006:11009   */\n      dup4\n        /* \"#utility.yul\":10993:11023   */\n      calldatacopy\n        /* \"#utility.yul\":11078:11079   */\n      0x00\n        /* \"#utility.yul\":11069:11075   */\n      dup4\n        /* \"#utility.yul\":11064:11067   */\n      dup4\n        /* \"#utility.yul\":11060:11076   */\n      add\n        /* \"#utility.yul\":11053:11080   */\n      mstore\n        /* \"#utility.yul\":10932:11086   */\n      pop\n      pop\n      pop\n      jump\t// out\n        /* \"#utility.yul\":11092:11399   */\n    tag_209:\n        /* \"#utility.yul\":11160:11161   */\n      0x00\n        /* \"#utility.yul\":11170:11283   */\n    tag_247:\n        /* \"#utility.yul\":11184:11190   */\n      dup4\n        /* \"#utility.yul\":11181:11182   */\n      dup2\n        /* \"#utility.yul\":11178:11191   */\n      lt\n        /* \"#utility.yul\":11170:11283   */\n      iszero\n      tag_249\n      jumpi\n        /* \"#utility.yul\":11269:11270   */\n      dup1\n        /* \"#utility.yul\":11264:11267   */\n      dup3\n        /* \"#utility.yul\":11260:11271   */\n      add\n        /* \"#utility.yul\":11254:11272   */\n      mload\n        /* \"#utility.yul\":11250:11251   */\n      dup2\n        /* \"#utility.yul\":11245:11248   */\n      dup5\n        /* \"#utility.yul\":11241:11252   */\n      add\n        /* \"#utility.yul\":11234:11273   */\n      mstore\n        /* \"#utility.yul\":11206:11208   */\n      0x20\n        /* \"#utility.yul\":11203:11204   */\n      dup2\n        /* \"#utility.yul\":11199:11209   */\n      add\n        /* \"#utility.yul\":11194:11209   */\n      swap1\n      pop\n        /* \"#utility.yul\":11170:11283   */\n      jump(tag_247)\n    tag_249:\n        /* \"#utility.yul\":11301:11307   */\n      dup4\n        /* \"#utility.yul\":11298:11299   */\n      dup2\n        /* \"#utility.yul\":11295:11308   */\n      gt\n        /* \"#utility.yul\":11292:11393   */\n      iszero\n      tag_250\n      jumpi\n        /* \"#utility.yul\":11381:11382   */\n      0x00\n        /* \"#utility.yul\":11372:11378   */\n      dup5\n        /* \"#utility.yul\":11367:11370   */\n      dup5\n        /* \"#utility.yul\":11363:11379   */\n      add\n        /* \"#utility.yul\":11356:11383   */\n      mstore\n        /* \"#utility.yul\":11292:11393   */\n    tag_250:\n        /* \"#utility.yul\":11141:11399   */\n      pop\n        /* \"#utility.yul\":11092:11399   */\n      pop\n      pop\n      pop\n      jump\t// out\n        /* \"#utility.yul\":11405:11725   */\n    tag_54:\n        /* \"#utility.yul\":11449:11455   */\n      0x00\n        /* \"#utility.yul\":11486:11487   */\n      0x02\n        /* \"#utility.yul\":11480:11484   */\n      dup3\n        /* \"#utility.yul\":11476:11488   */\n      div\n        /* \"#utility.yul\":11466:11488   */\n      swap1\n      pop\n        /* \"#utility.yul\":11533:11534   */\n      0x01\n        /* \"#utility.yul\":11527:11531   */\n      dup3\n        /* \"#utility.yul\":11523:11535   */\n      and\n        /* \"#utility.yul\":11554:11572   */\n      dup1\n        /* \"#utility.yul\":11544:11625   */\n      tag_252\n      jumpi\n        /* \"#utility.yul\":11610:11614   */\n      0x7f\n        /* \"#utility.yul\":11602:11608   */\n      dup3\n        /* \"#utility.yul\":11598:11615   */\n      and\n        /* \"#utility.yul\":11588:11615   */\n      swap2\n      pop\n        /* \"#utility.yul\":11544:11625   */\n    tag_252:\n        /* \"#utility.yul\":11672:11674   */\n      0x20\n        /* \"#utility.yul\":11664:11670   */\n      dup3\n        /* \"#utility.yul\":11661:11675   */\n      lt\n        /* \"#utility.yul\":11641:11659   */\n      dup2\n        /* \"#utility.yul\":11638:11676   */\n      eq\n        /* \"#utility.yul\":11635:11719   */\n      iszero\n      tag_253\n      jumpi\n        /* \"#utility.yul\":11691:11709   */\n      tag_254\n      tag_255\n      jump\t// in\n    tag_254:\n        /* \"#utility.yul\":11635:11719   */\n    tag_253:\n        /* \"#utility.yul\":11456:11725   */\n      pop\n        /* \"#utility.yul\":11405:11725   */\n      swap2\n      swap1\n      pop\n      jump\t// out\n        /* \"#utility.yul\":11731:12012   */\n    tag_226:\n        /* \"#utility.yul\":11814:11841   */\n      tag_257\n        /* \"#utility.yul\":11836:11840   */\n      dup3\n        /* \"#utility.yul\":11814:11841   */\n      tag_211\n      jump\t// in\n    tag_257:\n        /* \"#utility.yul\":11806:11812   */\n      dup2\n        /* \"#utility.yul\":11802:11842   */\n      add\n        /* \"#utility.yul\":11944:11950   */\n      dup2\n        /* \"#utility.yul\":11932:11942   */\n      dup2\n        /* \"#utility.yul\":11929:11951   */\n      lt\n        /* \"#utility.yul\":11908:11926   */\n      0xffffffffffffffff\n        /* \"#utility.yul\":11896:11906   */\n      dup3\n        /* \"#utility.yul\":11893:11927   */\n      gt\n        /* \"#utility.yul\":11890:11952   */\n      or\n        /* \"#utility.yul\":11887:11975   */\n      iszero\n      tag_258\n      jumpi\n        /* \"#utility.yul\":11955:11973   */\n      tag_259\n      tag_231\n      jump\t// in\n    tag_259:\n        /* \"#utility.yul\":11887:11975   */\n    tag_258:\n        /* \"#utility.yul\":11995:12005   */\n      dup1\n        /* \"#utility.yul\":11991:11993   */\n      0x40\n        /* \"#utility.yul\":11984:12006   */\n      mstore\n        /* \"#utility.yul\":11774:12012   */\n      pop\n        /* \"#utility.yul\":11731:12012   */\n      pop\n      pop\n      jump\t// out\n        /* \"#utility.yul\":12018:12198   */\n    tag_255:\n        /* \"#utility.yul\":12066:12143   */\n      0x4e487b7100000000000000000000000000000000000000000000000000000000\n        /* \"#utility.yul\":12063:12064   */\n      0x00\n        /* \"#utility.yul\":12056:12144   */\n      mstore\n        /* \"#utility.yul\":12163:12167   */\n      0x22\n        /* \"#utility.yul\":12160:12161   */\n      0x04\n        /* \"#utility.yul\":12153:12168   */\n      mstore\n        /* \"#utility.yul\":12187:12191   */\n      0x24\n        /* \"#utility.yul\":12184:12185   */\n      0x00\n        /* \"#utility.yul\":12177:12192   */\n      revert\n        /* \"#utility.yul\":12204:12384   */\n    tag_78:\n        /* \"#utility.yul\":12252:12329   */\n      0x4e487b7100000000000000000000000000000000000000000000000000000000\n        /* \"#utility.yul\":12249:12250   */\n      0x00\n        /* \"#utility.yul\":12242:12330   */\n      mstore\n        /* \"#utility.yul\":12349:12353   */\n      0x32\n        /* \"#utility.yul\":12346:12347   */\n      0x04\n        /* \"#utility.yul\":12339:12354   */\n      mstore\n        /* \"#utility.yul\":12373:12377   */\n      0x24\n        /* \"#utility.yul\":12370:12371   */\n      0x00\n        /* \"#utility.yul\":12363:12378   */\n      revert\n        /* \"#utility.yul\":12390:12570   */\n    tag_231:\n        /* \"#utility.yul\":12438:12515   */\n      0x4e487b7100000000000000000000000000000000000000000000000000000000\n        /* \"#utility.yul\":12435:12436   */\n      0x00\n        /* \"#utility.yul\":12428:12516   */\n      mstore\n        /* \"#utility.yul\":12535:12539   */\n      0x41\n        /* \"#utility.yul\":12532:12533   */\n      0x04\n        /* \"#utility.yul\":12525:12540   */\n      mstore\n        /* \"#utility.yul\":12559:12563   */\n      0x24\n        /* \"#utility.yul\":12556:12557   */\n      0x00\n        /* \"#utility.yul\":12549:12564   */\n      revert\n        /* \"#utility.yul\":12576:12693   */\n    tag_128:\n        /* \"#utility.yul\":12685:12686   */\n      0x00\n        /* \"#utility.yul\":12682:12683   */\n      dup1\n        /* \"#utility.yul\":12675:12687   */\n      revert\n        /* \"#utility.yul\":12699:12816   */\n    tag_117:\n        /* \"#utility.yul\":12808:12809   */\n      0x00\n        /* \"#utility.yul\":12805:12806   */\n      dup1\n        /* \"#utility.yul\":12798:12810   */\n      revert\n        /* \"#utility.yul\":12822:12939   */\n    tag_145:\n        /* \"#utility.yul\":12931:12932   */\n      0x00\n        /* \"#utility.yul\":12928:12929   */\n      dup1\n        /* \"#utility.yul\":12921:12933   */\n      revert\n        /* \"#utility.yul\":12945:13062   */\n    tag_137:\n        /* \"#utility.yul\":13054:13055   */\n      0x00\n        /* \"#utility.yul\":13051:13052   */\n      dup1\n        /* \"#utility.yul\":13044:13056   */\n      revert\n        /* \"#utility.yul\":13068:13170   */\n    tag_211:\n        /* \"#utility.yul\":13109:13115   */\n      0x00\n        /* \"#utility.yul\":13160:13162   */\n      0x1f\n        /* \"#utility.yul\":13156:13163   */\n      not\n        /* \"#utility.yul\":13151:13153   */\n      0x1f\n        /* \"#utility.yul\":13144:13149   */\n      dup4\n        /* \"#utility.yul\":13140:13154   */\n      add\n        /* \"#utility.yul\":13136:13164   */\n      and\n        /* \"#utility.yul\":13126:13164   */\n      swap1\n      pop\n        /* \"#utility.yul\":13068:13170   */\n      swap2\n      swap1\n      pop\n      jump\t// out\n        /* \"#utility.yul\":13176:13298   */\n    tag_123:\n        /* \"#utility.yul\":13249:13273   */\n      tag_269\n        /* \"#utility.yul\":13267:13272   */\n      dup2\n        /* \"#utility.yul\":13249:13273   */\n      tag_184\n      jump\t// in\n    tag_269:\n        /* \"#utility.yul\":13242:13247   */\n      dup2\n        /* \"#utility.yul\":13239:13274   */\n      eq\n        /* \"#utility.yul\":13229:13292   */\n      tag_270\n      jumpi\n        /* \"#utility.yul\":13288:13289   */\n      0x00\n        /* \"#utility.yul\":13285:13286   */\n      dup1\n        /* \"#utility.yul\":13278:13290   */\n      revert\n        /* \"#utility.yul\":13229:13292   */\n    tag_270:\n        /* \"#utility.yul\":13176:13298   */\n      pop\n      jump\t// out\n        /* \"#utility.yul\":13304:13426   */\n    tag_133:\n        /* \"#utility.yul\":13377:13401   */\n      tag_272\n        /* \"#utility.yul\":13395:13400   */\n      dup2\n        /* \"#utility.yul\":13377:13401   */\n      tag_243\n      jump\t// in\n    tag_272:\n        /* \"#utility.yul\":13370:13375   */\n      dup2\n        /* \"#utility.yul\":13367:13402   */\n      eq\n        /* \"#utility.yul\":13357:13420   */\n      tag_273\n      jumpi\n        /* \"#utility.yul\":13416:13417   */\n      0x00\n        /* \"#utility.yul\":13413:13414   */\n      dup1\n        /* \"#utility.yul\":13406:13418   */\n      revert\n        /* \"#utility.yul\":13357:13420   */\n    tag_273:\n        /* \"#utility.yul\":13304:13426   */\n      pop\n      jump\t// out\n\n    auxdata: 0xa2646970667358221220ddeedc9095bf09d7da6e8161960dfe82e366335d6b5c499c0e07624def22789a64736f6c63430008070033\n}\n",
				"bytecode": {
					"linkReferences": {},
					"object": "608060405234801561001057600080fd5b50611036806100206000396000f3fe608060405234801561001057600080fd5b50600436106100885760003560e01c8063b29f04fe1161005b578063b29f04fe14610103578063b78842ee1461011f578063dacf64e21461013b578063efa3b7cc1461015757610088565b8063085d48831461008d5780631fbecde7146100ab57806376cdb03b146100c7578063827b0348146100e5575b600080fd5b610095610173565b6040516100a29190610d57565b60405180910390f35b6100c560048036038101906100c091906109d7565b610197565b005b6100cf6102c9565b6040516100dc9190610d57565b60405180910390f35b6100ed6102ef565b6040516100fa9190610d72565b60405180910390f35b61011d600480360381019061011891906109aa565b6105ec565b005b61013960048036038101906101349190610ac2565b61062f565b005b610155600480360381019061015091906109aa565b6106be565b005b610171600480360381019061016c9190610aef565b610702565b005b60008054906101000a900473ffffffffffffffffffffffffffffffffffffffff1681565b60006040518060a001604052808773ffffffffffffffffffffffffffffffffffffffff168152602001868152602001858152602001848152602001838152509050600281908060018154018082558091505060019003906000526020600020906005020160009091909190915060008201518160000160006101000a81548173ffffffffffffffffffffffffffffffffffffffff021916908373ffffffffffffffffffffffffffffffffffffffff160217905550602082015181600101908051906020019061026792919061082d565b50604082015181600201908051906020019061028492919061082d565b5060608201518160030190805190602001906102a192919061082d565b5060808201518160040190805190602001906102be92919061082d565b505050505050505050565b600160009054906101000a900473ffffffffffffffffffffffffffffffffffffffff1681565b60606002805480602002602001604051908101604052809291908181526020016000905b828210156105e357838290600052602060002090600502016040518060a00160405290816000820160009054906101000a900473ffffffffffffffffffffffffffffffffffffffff1673ffffffffffffffffffffffffffffffffffffffff1673ffffffffffffffffffffffffffffffffffffffff16815260200160018201805461039c90610ebd565b80601f01602080910402602001604051908101604052809291908181526020018280546103c890610ebd565b80156104155780601f106103ea57610100808354040283529160200191610415565b820191906000526020600020905b8154815290600101906020018083116103f857829003601f168201915b5050505050815260200160028201805461042e90610ebd565b80601f016020809104026020016040519081016040528092919081815260200182805461045a90610ebd565b80156104a75780601f1061047c576101008083540402835291602001916104a7565b820191906000526020600020905b81548152906001019060200180831161048a57829003601f168201915b505050505081526020016003820180546104c090610ebd565b80601f01602080910402602001604051908101604052809291908181526020018280546104ec90610ebd565b80156105395780601f1061050e57610100808354040283529160200191610539565b820191906000526020600020905b81548152906001019060200180831161051c57829003601f168201915b5050505050815260200160048201805461055290610ebd565b80601f016020809104026020016040519081016040528092919081815260200182805461057e90610ebd565b80156105cb5780601f106105a0576101008083540402835291602001916105cb565b820191906000526020600020905b8154815290600101906020018083116105ae57829003601f168201915b50505050508152505081526020019060010190610313565b50505050905090565b806000806101000a81548173ffffffffffffffffffffffffffffffffffffffff021916908373ffffffffffffffffffffffffffffffffffffffff16021790555050565b6002818154811061064357610642610f4f565b5b9060005260206000209060050201600080820160006101000a81549073ffffffffffffffffffffffffffffffffffffffff021916905560018201600061068991906108b3565b60028201600061069991906108b3565b6003820160006106a991906108b3565b6004820160006106b991906108b3565b505050565b80600160006101000a81548173ffffffffffffffffffffffffffffffffffffffff021916908373ffffffffffffffffffffffffffffffffffffffff16021790555050565b60006040518060a001604052808773ffffffffffffffffffffffffffffffffffffffff168152602001868152602001858152602001848152602001838152509050806002888154811061075857610757610f4f565b5b906000526020600020906005020160008201518160000160006101000a81548173ffffffffffffffffffffffffffffffffffffffff021916908373ffffffffffffffffffffffffffffffffffffffff16021790555060208201518160010190805190602001906107c992919061082d565b5060408201518160020190805190602001906107e692919061082d565b50606082015181600301908051906020019061080392919061082d565b50608082015181600401908051906020019061082092919061082d565b5090505050505050505050565b82805461083990610ebd565b90600052602060002090601f01602090048101928261085b57600085556108a2565b82601f1061087457805160ff19168380011785556108a2565b828001600101855582156108a2579182015b828111156108a1578251825591602001919060010190610886565b5b5090506108af91906108f3565b5090565b5080546108bf90610ebd565b6000825580601f106108d157506108f0565b601f0160209004906000526020600020908101906108ef91906108f3565b5b50565b5b8082111561090c5760008160009055506001016108f4565b5090565b600061092361091e84610db9565b610d94565b90508281526020810184848401111561093f5761093e610fb2565b5b61094a848285610e7b565b509392505050565b60008135905061096181610fd2565b92915050565b600082601f83011261097c5761097b610fad565b5b813561098c848260208601610910565b91505092915050565b6000813590506109a481610fe9565b92915050565b6000602082840312156109c0576109bf610fbc565b5b60006109ce84828501610952565b91505092915050565b600080600080600060a086880312156109f3576109f2610fbc565b5b6000610a0188828901610952565b955050602086013567ffffffffffffffff811115610a2257610a21610fb7565b5b610a2e88828901610967565b945050604086013567ffffffffffffffff811115610a4f57610a4e610fb7565b5b610a5b88828901610967565b935050606086013567ffffffffffffffff811115610a7c57610a7b610fb7565b5b610a8888828901610967565b925050608086013567ffffffffffffffff811115610aa957610aa8610fb7565b5b610ab588828901610967565b9150509295509295909350565b600060208284031215610ad857610ad7610fbc565b5b6000610ae684828501610995565b91505092915050565b60008060008060008060c08789031215610b0c57610b0b610fbc565b5b6000610b1a89828a01610995565b9650506020610b2b89828a01610952565b955050604087013567ffffffffffffffff811115610b4c57610b4b610fb7565b5b610b5889828a01610967565b945050606087013567ffffffffffffffff811115610b7957610b78610fb7565b5b610b8589828a01610967565b935050608087013567ffffffffffffffff811115610ba657610ba5610fb7565b5b610bb289828a01610967565b92505060a087013567ffffffffffffffff811115610bd357610bd2610fb7565b5b610bdf89828a01610967565b9150509295509295509295565b6000610bf88383610ccc565b905092915050565b610c0981610e3f565b82525050565b610c1881610e3f565b82525050565b6000610c2982610dfa565b610c338185610e1d565b935083602082028501610c4585610dea565b8060005b85811015610c815784840389528151610c628582610bec565b9450610c6d83610e10565b925060208a01995050600181019050610c49565b50829750879550505050505092915050565b6000610c9e82610e05565b610ca88185610e2e565b9350610cb8818560208601610e8a565b610cc181610fc1565b840191505092915050565b600060a083016000830151610ce46000860182610c00565b5060208301518482036020860152610cfc8282610c93565b91505060408301518482036040860152610d168282610c93565b91505060608301518482036060860152610d308282610c93565b91505060808301518482036080860152610d4a8282610c93565b9150508091505092915050565b6000602082019050610d6c6000830184610c0f565b92915050565b60006020820190508181036000830152610d8c8184610c1e565b905092915050565b6000610d9e610daf565b9050610daa8282610eef565b919050565b6000604051905090565b600067ffffffffffffffff821115610dd457610dd3610f7e565b5b610ddd82610fc1565b9050602081019050919050565b6000819050602082019050919050565b600081519050919050565b600081519050919050565b6000602082019050919050565b600082825260208201905092915050565b600082825260208201905092915050565b6000610e4a82610e51565b9050919050565b600073ffffffffffffffffffffffffffffffffffffffff82169050919050565b6000819050919050565b82818337600083830152505050565b60005b83811015610ea8578082015181840152602081019050610e8d565b83811115610eb7576000848401525b50505050565b60006002820490506001821680610ed557607f821691505b60208210811415610ee957610ee8610f20565b5b50919050565b610ef882610fc1565b810181811067ffffffffffffffff82111715610f1757610f16610f7e565b5b80604052505050565b7f4e487b7100000000000000000000000000000000000000000000000000000000600052602260045260246000fd5b7f4e487b7100000000000000000000000000000000000000000000000000000000600052603260045260246000fd5b7f4e487b7100000000000000000000000000000000000000000000000000000000600052604160045260246000fd5b600080fd5b600080fd5b600080fd5b600080fd5b6000601f19601f8301169050919050565b610fdb81610e3f565b8114610fe657600080fd5b50565b610ff281610e71565b8114610ffd57600080fd5b5056fea2646970667358221220ddeedc9095bf09d7da6e8161960dfe82e366335d6b5c499c0e07624def22789a64736f6c63430008070033",
					"opcodes": "PUSH1 0x80 PUSH1 0x40 MSTORE CALLVALUE DUP1 ISZERO PUSH2 0x10 JUMPI PUSH1 0x0 DUP1 REVERT JUMPDEST POP PUSH2 0x1036 DUP1 PUSH2 0x20 PUSH1 0x0 CODECOPY PUSH1 0x0 RETURN INVALID PUSH1 0x80 PUSH1 0x40 MSTORE CALLVALUE DUP1 ISZERO PUSH2 0x10 JUMPI PUSH1 0x0 DUP1 REVERT JUMPDEST POP PUSH1 0x4 CALLDATASIZE LT PUSH2 0x88 JUMPI PUSH1 0x0 CALLDATALOAD PUSH1 0xE0 SHR DUP1 PUSH4 0xB29F04FE GT PUSH2 0x5B JUMPI DUP1 PUSH4 0xB29F04FE EQ PUSH2 0x103 JUMPI DUP1 PUSH4 0xB78842EE EQ PUSH2 0x11F JUMPI DUP1 PUSH4 0xDACF64E2 EQ PUSH2 0x13B JUMPI DUP1 PUSH4 0xEFA3B7CC EQ PUSH2 0x157 JUMPI PUSH2 0x88 JUMP JUMPDEST DUP1 PUSH4 0x85D4883 EQ PUSH2 0x8D JUMPI DUP1 PUSH4 0x1FBECDE7 EQ PUSH2 0xAB JUMPI DUP1 PUSH4 0x76CDB03B EQ PUSH2 0xC7 JUMPI DUP1 PUSH4 0x827B0348 EQ PUSH2 0xE5 JUMPI JUMPDEST PUSH1 0x0 DUP1 REVERT JUMPDEST PUSH2 0x95 PUSH2 0x173 JUMP JUMPDEST PUSH1 0x40 MLOAD PUSH2 0xA2 SWAP2 SWAP1 PUSH2 0xD57 JUMP JUMPDEST PUSH1 0x40 MLOAD DUP1 SWAP2 SUB SWAP1 RETURN JUMPDEST PUSH2 0xC5 PUSH1 0x4 DUP1 CALLDATASIZE SUB DUP2 ADD SWAP1 PUSH2 0xC0 SWAP2 SWAP1 PUSH2 0x9D7 JUMP JUMPDEST PUSH2 0x197 JUMP JUMPDEST STOP JUMPDEST PUSH2 0xCF PUSH2 0x2C9 JUMP JUMPDEST PUSH1 0x40 MLOAD PUSH2 0xDC SWAP2 SWAP1 PUSH2 0xD57 JUMP JUMPDEST PUSH1 0x40 MLOAD DUP1 SWAP2 SUB SWAP1 RETURN JUMPDEST PUSH2 0xED PUSH2 0x2EF JUMP JUMPDEST PUSH1 0x40 MLOAD PUSH2 0xFA SWAP2 SWAP1 PUSH2 0xD72 JUMP JUMPDEST PUSH1 0x40 MLOAD DUP1 SWAP2 SUB SWAP1 RETURN JUMPDEST PUSH2 0x11D PUSH1 0x4 DUP1 CALLDATASIZE SUB DUP2 ADD SWAP1 PUSH2 0x118 SWAP2 SWAP1 PUSH2 0x9AA JUMP JUMPDEST PUSH2 0x5EC JUMP JUMPDEST STOP JUMPDEST PUSH2 0x139 PUSH1 0x4 DUP1 CALLDATASIZE SUB DUP2 ADD SWAP1 PUSH2 0x134 SWAP2 SWAP1 PUSH2 0xAC2 JUMP JUMPDEST PUSH2 0x62F JUMP JUMPDEST STOP JUMPDEST PUSH2 0x155 PUSH1 0x4 DUP1 CALLDATASIZE SUB DUP2 ADD SWAP1 PUSH2 0x150 SWAP2 SWAP1 PUSH2 0x9AA JUMP JUMPDEST PUSH2 0x6BE JUMP JUMPDEST STOP JUMPDEST PUSH2 0x171 PUSH1 0x4 DUP1 CALLDATASIZE SUB DUP2 ADD SWAP1 PUSH2 0x16C SWAP2 SWAP1 PUSH2 0xAEF JUMP JUMPDEST PUSH2 0x702 JUMP JUMPDEST STOP JUMPDEST PUSH1 0x0 DUP1 SLOAD SWAP1 PUSH2 0x100 EXP SWAP1 DIV PUSH20 0xFFFFFFFFFFFFFFFFFFFFFFFFFFFFFFFFFFFFFFFF AND DUP2 JUMP JUMPDEST PUSH1 0x0 PUSH1 0x40 MLOAD DUP1 PUSH1 0xA0 ADD PUSH1 0x40 MSTORE DUP1 DUP8 PUSH20 0xFFFFFFFFFFFFFFFFFFFFFFFFFFFFFFFFFFFFFFFF AND DUP2 MSTORE PUSH1 0x20 ADD DUP7 DUP2 MSTORE PUSH1 0x20 ADD DUP6 DUP2 MSTORE PUSH1 0x20 ADD DUP5 DUP2 MSTORE PUSH1 0x20 ADD DUP4 DUP2 MSTORE POP SWAP1 POP PUSH1 0x2 DUP2 SWAP1 DUP1 PUSH1 0x1 DUP2 SLOAD ADD DUP1 DUP3 SSTORE DUP1 SWAP2 POP POP PUSH1 0x1 SWAP1 SUB SWAP1 PUSH1 0x0 MSTORE PUSH1 0x20 PUSH1 0x0 KECCAK256 SWAP1 PUSH1 0x5 MUL ADD PUSH1 0x0 SWAP1 SWAP2 SWAP1 SWAP2 SWAP1 SWAP2 POP PUSH1 0x0 DUP3 ADD MLOAD DUP2 PUSH1 0x0 ADD PUSH1 0x0 PUSH2 0x100 EXP DUP2 SLOAD DUP2 PUSH20 0xFFFFFFFFFFFFFFFFFFFFFFFFFFFFFFFFFFFFFFFF MUL NOT AND SWAP1 DUP4 PUSH20 0xFFFFFFFFFFFFFFFFFFFFFFFFFFFFFFFFFFFFFFFF AND MUL OR SWAP1 SSTORE POP PUSH1 0x20 DUP3 ADD MLOAD DUP2 PUSH1 0x1 ADD SWAP1 DUP1 MLOAD SWAP1 PUSH1 0x20 ADD SWAP1 PUSH2 0x267 SWAP3 SWAP2 SWAP1 PUSH2 0x82D JUMP JUMPDEST POP PUSH1 0x40 DUP3 ADD MLOAD DUP2 PUSH1 0x2 ADD SWAP1 DUP1 MLOAD SWAP1 PUSH1 0x20 ADD SWAP1 PUSH2 0x284 SWAP3 SWAP2 SWAP1 PUSH2 0x82D JUMP JUMPDEST POP PUSH1 0x60 DUP3 ADD MLOAD DUP2 PUSH1 0x3 ADD SWAP1 DUP1 MLOAD SWAP1 PUSH1 0x20 ADD SWAP1 PUSH2 0x2A1 SWAP3 SWAP2 SWAP1 PUSH2 0x82D JUMP JUMPDEST POP PUSH1 0x80 DUP3 ADD MLOAD DUP2 PUSH1 0x4 ADD SWAP1 DUP1 MLOAD SWAP1 PUSH1 0x20 ADD SWAP1 PUSH2 0x2BE SWAP3 SWAP2 SWAP1 PUSH2 0x82D JUMP JUMPDEST POP POP POP POP POP POP POP POP POP JUMP JUMPDEST PUSH1 0x1 PUSH1 0x0 SWAP1 SLOAD SWAP1 PUSH2 0x100 EXP SWAP1 DIV PUSH20 0xFFFFFFFFFFFFFFFFFFFFFFFFFFFFFFFFFFFFFFFF AND DUP2 JUMP JUMPDEST PUSH1 0x60 PUSH1 0x2 DUP1 SLOAD DUP1 PUSH1 0x20 MUL PUSH1 0x20 ADD PUSH1 0x40 MLOAD SWAP1 DUP2 ADD PUSH1 0x40 MSTORE DUP1 SWAP3 SWAP2 SWAP1 DUP2 DUP2 MSTORE PUSH1 0x20 ADD PUSH1 0x0 SWAP1 JUMPDEST DUP3 DUP3 LT ISZERO PUSH2 0x5E3 JUMPI DUP4 DUP3 SWAP1 PUSH1 0x0 MSTORE PUSH1 0x20 PUSH1 0x0 KECCAK256 SWAP1 PUSH1 0x5 MUL ADD PUSH1 0x40 MLOAD DUP1 PUSH1 0xA0 ADD PUSH1 0x40 MSTORE SWAP1 DUP2 PUSH1 0x0 DUP3 ADD PUSH1 0x0 SWAP1 SLOAD SWAP1 PUSH2 0x100 EXP SWAP1 DIV PUSH20 0xFFFFFFFFFFFFFFFFFFFFFFFFFFFFFFFFFFFFFFFF AND PUSH20 0xFFFFFFFFFFFFFFFFFFFFFFFFFFFFFFFFFFFFFFFF AND PUSH20 0xFFFFFFFFFFFFFFFFFFFFFFFFFFFFFFFFFFFFFFFF AND DUP2 MSTORE PUSH1 0x20 ADD PUSH1 0x1 DUP3 ADD DUP1 SLOAD PUSH2 0x39C SWAP1 PUSH2 0xEBD JUMP JUMPDEST DUP1 PUSH1 0x1F ADD PUSH1 0x20 DUP1 SWAP2 DIV MUL PUSH1 0x20 ADD PUSH1 0x40 MLOAD SWAP1 DUP2 ADD PUSH1 0x40 MSTORE DUP1 SWAP3 SWAP2 SWAP1 DUP2 DUP2 MSTORE PUSH1 0x20 ADD DUP3 DUP1 SLOAD PUSH2 0x3C8 SWAP1 PUSH2 0xEBD JUMP JUMPDEST DUP1 ISZERO PUSH2 0x415 JUMPI DUP1 PUSH1 0x1F LT PUSH2 0x3EA JUMPI PUSH2 0x100 DUP1 DUP4 SLOAD DIV MUL DUP4 MSTORE SWAP2 PUSH1 0x20 ADD SWAP2 PUSH2 0x415 JUMP JUMPDEST DUP3 ADD SWAP2 SWAP1 PUSH1 0x0 MSTORE PUSH1 0x20 PUSH1 0x0 KECCAK256 SWAP1 JUMPDEST DUP2 SLOAD DUP2 MSTORE SWAP1 PUSH1 0x1 ADD SWAP1 PUSH1 0x20 ADD DUP1 DUP4 GT PUSH2 0x3F8 JUMPI DUP3 SWAP1 SUB PUSH1 0x1F AND DUP3 ADD SWAP2 JUMPDEST POP POP POP POP POP DUP2 MSTORE PUSH1 0x20 ADD PUSH1 0x2 DUP3 ADD DUP1 SLOAD PUSH2 0x42E SWAP1 PUSH2 0xEBD JUMP JUMPDEST DUP1 PUSH1 0x1F ADD PUSH1 0x20 DUP1 SWAP2 DIV MUL PUSH1 0x20 ADD PUSH1 0x40 MLOAD SWAP1 DUP2 ADD PUSH1 0x40 MSTORE DUP1 SWAP3 SWAP2 SWAP1 DUP2 DUP2 MSTORE PUSH1 0x20 ADD DUP3 DUP1 SLOAD PUSH2 0x45A SWAP1 PUSH2 0xEBD JUMP JUMPDEST DUP1 ISZERO PUSH2 0x4A7 JUMPI DUP1 PUSH1 0x1F LT PUSH2 0x47C JUMPI PUSH2 0x100 DUP1 DUP4 SLOAD DIV MUL DUP4 MSTORE SWAP2 PUSH1 0x20 ADD SWAP2 PUSH2 0x4A7 JUMP JUMPDEST DUP3 ADD SWAP2 SWAP1 PUSH1 0x0 MSTORE PUSH1 0x20 PUSH1 0x0 KECCAK256 SWAP1 JUMPDEST DUP2 SLOAD DUP2 MSTORE SWAP1 PUSH1 0x1 ADD SWAP1 PUSH1 0x20 ADD DUP1 DUP4 GT PUSH2 0x48A JUMPI DUP3 SWAP1 SUB PUSH1 0x1F AND DUP3 ADD SWAP2 JUMPDEST POP POP POP POP POP DUP2 MSTORE PUSH1 0x20 ADD PUSH1 0x3 DUP3 ADD DUP1 SLOAD PUSH2 0x4C0 SWAP1 PUSH2 0xEBD JUMP JUMPDEST DUP1 PUSH1 0x1F ADD PUSH1 0x20 DUP1 SWAP2 DIV MUL PUSH1 0x20 ADD PUSH1 0x40 MLOAD SWAP1 DUP2 ADD PUSH1 0x40 MSTORE DUP1 SWAP3 SWAP2 SWAP1 DUP2 DUP2 MSTORE PUSH1 0x20 ADD DUP3 DUP1 SLOAD PUSH2 0x4EC SWAP1 PUSH2 0xEBD JUMP JUMPDEST DUP1 ISZERO PUSH2 0x539 JUMPI DUP1 PUSH1 0x1F LT PUSH2 0x50E JUMPI PUSH2 0x100 DUP1 DUP4 SLOAD DIV MUL DUP4 MSTORE SWAP2 PUSH1 0x20 ADD SWAP2 PUSH2 0x539 JUMP JUMPDEST DUP3 ADD SWAP2 SWAP1 PUSH1 0x0 MSTORE PUSH1 0x20 PUSH1 0x0 KECCAK256 SWAP1 JUMPDEST DUP2 SLOAD DUP2 MSTORE SWAP1 PUSH1 0x1 ADD SWAP1 PUSH1 0x20 ADD DUP1 DUP4 GT PUSH2 0x51C JUMPI DUP3 SWAP1 SUB PUSH1 0x1F AND DUP3 ADD SWAP2 JUMPDEST POP POP POP POP POP DUP2 MSTORE PUSH1 0x20 ADD PUSH1 0x4 DUP3 ADD DUP1 SLOAD PUSH2 0x552 SWAP1 PUSH2 0xEBD JUMP JUMPDEST DUP1 PUSH1 0x1F ADD PUSH1 0x20 DUP1 SWAP2 DIV MUL PUSH1 0x20 ADD PUSH1 0x40 MLOAD SWAP1 DUP2 ADD PUSH1 0x40 MSTORE DUP1 SWAP3 SWAP2 SWAP1 DUP2 DUP2 MSTORE PUSH1 0x20 ADD DUP3 DUP1 SLOAD PUSH2 0x57E SWAP1 PUSH2 0xEBD JUMP JUMPDEST DUP1 ISZERO PUSH2 0x5CB JUMPI DUP1 PUSH1 0x1F LT PUSH2 0x5A0 JUMPI PUSH2 0x100 DUP1 DUP4 SLOAD DIV MUL DUP4 MSTORE SWAP2 PUSH1 0x20 ADD SWAP2 PUSH2 0x5CB JUMP JUMPDEST DUP3 ADD SWAP2 SWAP1 PUSH1 0x0 MSTORE PUSH1 0x20 PUSH1 0x0 KECCAK256 SWAP1 JUMPDEST DUP2 SLOAD DUP2 MSTORE SWAP1 PUSH1 0x1 ADD SWAP1 PUSH1 0x20 ADD DUP1 DUP4 GT PUSH2 0x5AE JUMPI DUP3 SWAP1 SUB PUSH1 0x1F AND DUP3 ADD SWAP2 JUMPDEST POP POP POP POP POP DUP2 MSTORE POP POP DUP2 MSTORE PUSH1 0x20 ADD SWAP1 PUSH1 0x1 ADD SWAP1 PUSH2 0x313 JUMP JUMPDEST POP POP POP POP SWAP1 POP SWAP1 JUMP JUMPDEST DUP1 PUSH1 0x0 DUP1 PUSH2 0x100 EXP DUP2 SLOAD DUP2 PUSH20 0xFFFFFFFFFFFFFFFFFFFFFFFFFFFFFFFFFFFFFFFF MUL NOT AND SWAP1 DUP4 PUSH20 0xFFFFFFFFFFFFFFFFFFFFFFFFFFFFFFFFFFFFFFFF AND MUL OR SWAP1 SSTORE POP POP JUMP JUMPDEST PUSH1 0x2 DUP2 DUP2 SLOAD DUP2 LT PUSH2 0x643 JUMPI PUSH2 0x642 PUSH2 0xF4F JUMP JUMPDEST JUMPDEST SWAP1 PUSH1 0x0 MSTORE PUSH1 0x20 PUSH1 0x0 KECCAK256 SWAP1 PUSH1 0x5 MUL ADD PUSH1 0x0 DUP1 DUP3 ADD PUSH1 0x0 PUSH2 0x100 EXP DUP2 SLOAD SWAP1 PUSH20 0xFFFFFFFFFFFFFFFFFFFFFFFFFFFFFFFFFFFFFFFF MUL NOT AND SWAP1 SSTORE PUSH1 0x1 DUP3 ADD PUSH1 0x0 PUSH2 0x689 SWAP2 SWAP1 PUSH2 0x8B3 JUMP JUMPDEST PUSH1 0x2 DUP3 ADD PUSH1 0x0 PUSH2 0x699 SWAP2 SWAP1 PUSH2 0x8B3 JUMP JUMPDEST PUSH1 0x3 DUP3 ADD PUSH1 0x0 PUSH2 0x6A9 SWAP2 SWAP1 PUSH2 0x8B3 JUMP JUMPDEST PUSH1 0x4 DUP3 ADD PUSH1 0x0 PUSH2 0x6B9 SWAP2 SWAP1 PUSH2 0x8B3 JUMP JUMPDEST POP POP POP JUMP JUMPDEST DUP1 PUSH1 0x1 PUSH1 0x0 PUSH2 0x100 EXP DUP2 SLOAD DUP2 PUSH20 0xFFFFFFFFFFFFFFFFFFFFFFFFFFFFFFFFFFFFFFFF MUL NOT AND SWAP1 DUP4 PUSH20 0xFFFFFFFFFFFFFFFFFFFFFFFFFFFFFFFFFFFFFFFF AND MUL OR SWAP1 SSTORE POP POP JUMP JUMPDEST PUSH1 0x0 PUSH1 0x40 MLOAD DUP1 PUSH1 0xA0 ADD PUSH1 0x40 MSTORE DUP1 DUP8 PUSH20 0xFFFFFFFFFFFFFFFFFFFFFFFFFFFFFFFFFFFFFFFF AND DUP2 MSTORE PUSH1 0x20 ADD DUP7 DUP2 MSTORE PUSH1 0x20 ADD DUP6 DUP2 MSTORE PUSH1 0x20 ADD DUP5 DUP2 MSTORE PUSH1 0x20 ADD DUP4 DUP2 MSTORE POP SWAP1 POP DUP1 PUSH1 0x2 DUP9 DUP2 SLOAD DUP2 LT PUSH2 0x758 JUMPI PUSH2 0x757 PUSH2 0xF4F JUMP JUMPDEST JUMPDEST SWAP1 PUSH1 0x0 MSTORE PUSH1 0x20 PUSH1 0x0 KECCAK256 SWAP1 PUSH1 0x5 MUL ADD PUSH1 0x0 DUP3 ADD MLOAD DUP2 PUSH1 0x0 ADD PUSH1 0x0 PUSH2 0x100 EXP DUP2 SLOAD DUP2 PUSH20 0xFFFFFFFFFFFFFFFFFFFFFFFFFFFFFFFFFFFFFFFF MUL NOT AND SWAP1 DUP4 PUSH20 0xFFFFFFFFFFFFFFFFFFFFFFFFFFFFFFFFFFFFFFFF AND MUL OR SWAP1 SSTORE POP PUSH1 0x20 DUP3 ADD MLOAD DUP2 PUSH1 0x1 ADD SWAP1 DUP1 MLOAD SWAP1 PUSH1 0x20 ADD SWAP1 PUSH2 0x7C9 SWAP3 SWAP2 SWAP1 PUSH2 0x82D JUMP JUMPDEST POP PUSH1 0x40 DUP3 ADD MLOAD DUP2 PUSH1 0x2 ADD SWAP1 DUP1 MLOAD SWAP1 PUSH1 0x20 ADD SWAP1 PUSH2 0x7E6 SWAP3 SWAP2 SWAP1 PUSH2 0x82D JUMP JUMPDEST POP PUSH1 0x60 DUP3 ADD MLOAD DUP2 PUSH1 0x3 ADD SWAP1 DUP1 MLOAD SWAP1 PUSH1 0x20 ADD SWAP1 PUSH2 0x803 SWAP3 SWAP2 SWAP1 PUSH2 0x82D JUMP JUMPDEST POP PUSH1 0x80 DUP3 ADD MLOAD DUP2 PUSH1 0x4 ADD SWAP1 DUP1 MLOAD SWAP1 PUSH1 0x20 ADD SWAP1 PUSH2 0x820 SWAP3 SWAP2 SWAP1 PUSH2 0x82D JUMP JUMPDEST POP SWAP1 POP POP POP POP POP POP POP POP POP JUMP JUMPDEST DUP3 DUP1 SLOAD PUSH2 0x839 SWAP1 PUSH2 0xEBD JUMP JUMPDEST SWAP1 PUSH1 0x0 MSTORE PUSH1 0x20 PUSH1 0x0 KECCAK256 SWAP1 PUSH1 0x1F ADD PUSH1 0x20 SWAP1 DIV DUP2 ADD SWAP3 DUP3 PUSH2 0x85B JUMPI PUSH1 0x0 DUP6 SSTORE PUSH2 0x8A2 JUMP JUMPDEST DUP3 PUSH1 0x1F LT PUSH2 0x874 JUMPI DUP1 MLOAD PUSH1 0xFF NOT AND DUP4 DUP1 ADD OR DUP6 SSTORE PUSH2 0x8A2 JUMP JUMPDEST DUP3 DUP1 ADD PUSH1 0x1 ADD DUP6 SSTORE DUP3 ISZERO PUSH2 0x8A2 JUMPI SWAP2 DUP3 ADD JUMPDEST DUP3 DUP2 GT ISZERO PUSH2 0x8A1 JUMPI DUP3 MLOAD DUP3 SSTORE SWAP2 PUSH1 0x20 ADD SWAP2 SWAP1 PUSH1 0x1 ADD SWAP1 PUSH2 0x886 JUMP JUMPDEST JUMPDEST POP SWAP1 POP PUSH2 0x8AF SWAP2 SWAP1 PUSH2 0x8F3 JUMP JUMPDEST POP SWAP1 JUMP JUMPDEST POP DUP1 SLOAD PUSH2 0x8BF SWAP1 PUSH2 0xEBD JUMP JUMPDEST PUSH1 0x0 DUP3 SSTORE DUP1 PUSH1 0x1F LT PUSH2 0x8D1 JUMPI POP PUSH2 0x8F0 JUMP JUMPDEST PUSH1 0x1F ADD PUSH1 0x20 SWAP1 DIV SWAP1 PUSH1 0x0 MSTORE PUSH1 0x20 PUSH1 0x0 KECCAK256 SWAP1 DUP2 ADD SWAP1 PUSH2 0x8EF SWAP2 SWAP1 PUSH2 0x8F3 JUMP JUMPDEST JUMPDEST POP JUMP JUMPDEST JUMPDEST DUP1 DUP3 GT ISZERO PUSH2 0x90C JUMPI PUSH1 0x0 DUP2 PUSH1 0x0 SWAP1 SSTORE POP PUSH1 0x1 ADD PUSH2 0x8F4 JUMP JUMPDEST POP SWAP1 JUMP JUMPDEST PUSH1 0x0 PUSH2 0x923 PUSH2 0x91E DUP5 PUSH2 0xDB9 JUMP JUMPDEST PUSH2 0xD94 JUMP JUMPDEST SWAP1 POP DUP3 DUP2 MSTORE PUSH1 0x20 DUP2 ADD DUP5 DUP5 DUP5 ADD GT ISZERO PUSH2 0x93F JUMPI PUSH2 0x93E PUSH2 0xFB2 JUMP JUMPDEST JUMPDEST PUSH2 0x94A DUP5 DUP3 DUP6 PUSH2 0xE7B JUMP JUMPDEST POP SWAP4 SWAP3 POP POP POP JUMP JUMPDEST PUSH1 0x0 DUP2 CALLDATALOAD SWAP1 POP PUSH2 0x961 DUP2 PUSH2 0xFD2 JUMP JUMPDEST SWAP3 SWAP2 POP POP JUMP JUMPDEST PUSH1 0x0 DUP3 PUSH1 0x1F DUP4 ADD SLT PUSH2 0x97C JUMPI PUSH2 0x97B PUSH2 0xFAD JUMP JUMPDEST JUMPDEST DUP2 CALLDATALOAD PUSH2 0x98C DUP5 DUP3 PUSH1 0x20 DUP7 ADD PUSH2 0x910 JUMP JUMPDEST SWAP2 POP POP SWAP3 SWAP2 POP POP JUMP JUMPDEST PUSH1 0x0 DUP2 CALLDATALOAD SWAP1 POP PUSH2 0x9A4 DUP2 PUSH2 0xFE9 JUMP JUMPDEST SWAP3 SWAP2 POP POP JUMP JUMPDEST PUSH1 0x0 PUSH1 0x20 DUP3 DUP5 SUB SLT ISZERO PUSH2 0x9C0 JUMPI PUSH2 0x9BF PUSH2 0xFBC JUMP JUMPDEST JUMPDEST PUSH1 0x0 PUSH2 0x9CE DUP5 DUP3 DUP6 ADD PUSH2 0x952 JUMP JUMPDEST SWAP2 POP POP SWAP3 SWAP2 POP POP JUMP JUMPDEST PUSH1 0x0 DUP1 PUSH1 0x0 DUP1 PUSH1 0x0 PUSH1 0xA0 DUP7 DUP9 SUB SLT ISZERO PUSH2 0x9F3 JUMPI PUSH2 0x9F2 PUSH2 0xFBC JUMP JUMPDEST JUMPDEST PUSH1 0x0 PUSH2 0xA01 DUP9 DUP3 DUP10 ADD PUSH2 0x952 JUMP JUMPDEST SWAP6 POP POP PUSH1 0x20 DUP7 ADD CALLDATALOAD PUSH8 0xFFFFFFFFFFFFFFFF DUP2 GT ISZERO PUSH2 0xA22 JUMPI PUSH2 0xA21 PUSH2 0xFB7 JUMP JUMPDEST JUMPDEST PUSH2 0xA2E DUP9 DUP3 DUP10 ADD PUSH2 0x967 JUMP JUMPDEST SWAP5 POP POP PUSH1 0x40 DUP7 ADD CALLDATALOAD PUSH8 0xFFFFFFFFFFFFFFFF DUP2 GT ISZERO PUSH2 0xA4F JUMPI PUSH2 0xA4E PUSH2 0xFB7 JUMP JUMPDEST JUMPDEST PUSH2 0xA5B DUP9 DUP3 DUP10 ADD PUSH2 0x967 JUMP JUMPDEST SWAP4 POP POP PUSH1 0x60 DUP7 ADD CALLDATALOAD PUSH8 0xFFFFFFFFFFFFFFFF DUP2 GT ISZERO PUSH2 0xA7C JUMPI PUSH2 0xA7B PUSH2 0xFB7 JUMP JUMPDEST JUMPDEST PUSH2 0xA88 DUP9 DUP3 DUP10 ADD PUSH2 0x967 JUMP JUMPDEST SWAP3 POP POP PUSH1 0x80 DUP7 ADD CALLDATALOAD PUSH8 0xFFFFFFFFFFFFFFFF DUP2 GT ISZERO PUSH2 0xAA9 JUMPI PUSH2 0xAA8 PUSH2 0xFB7 JUMP JUMPDEST JUMPDEST PUSH2 0xAB5 DUP9 DUP3 DUP10 ADD PUSH2 0x967 JUMP JUMPDEST SWAP2 POP POP SWAP3 SWAP6 POP SWAP3 SWAP6 SWAP1 SWAP4 POP JUMP JUMPDEST PUSH1 0x0 PUSH1 0x20 DUP3 DUP5 SUB SLT ISZERO PUSH2 0xAD8 JUMPI PUSH2 0xAD7 PUSH2 0xFBC JUMP JUMPDEST JUMPDEST PUSH1 0x0 PUSH2 0xAE6 DUP5 DUP3 DUP6 ADD PUSH2 0x995 JUMP JUMPDEST SWAP2 POP POP SWAP3 SWAP2 POP POP JUMP JUMPDEST PUSH1 0x0 DUP1 PUSH1 0x0 DUP1 PUSH1 0x0 DUP1 PUSH1 0xC0 DUP8 DUP10 SUB SLT ISZERO PUSH2 0xB0C JUMPI PUSH2 0xB0B PUSH2 0xFBC JUMP JUMPDEST JUMPDEST PUSH1 0x0 PUSH2 0xB1A DUP10 DUP3 DUP11 ADD PUSH2 0x995 JUMP JUMPDEST SWAP7 POP POP PUSH1 0x20 PUSH2 0xB2B DUP10 DUP3 DUP11 ADD PUSH2 0x952 JUMP JUMPDEST SWAP6 POP POP PUSH1 0x40 DUP8 ADD CALLDATALOAD PUSH8 0xFFFFFFFFFFFFFFFF DUP2 GT ISZERO PUSH2 0xB4C JUMPI PUSH2 0xB4B PUSH2 0xFB7 JUMP JUMPDEST JUMPDEST PUSH2 0xB58 DUP10 DUP3 DUP11 ADD PUSH2 0x967 JUMP JUMPDEST SWAP5 POP POP PUSH1 0x60 DUP8 ADD CALLDATALOAD PUSH8 0xFFFFFFFFFFFFFFFF DUP2 GT ISZERO PUSH2 0xB79 JUMPI PUSH2 0xB78 PUSH2 0xFB7 JUMP JUMPDEST JUMPDEST PUSH2 0xB85 DUP10 DUP3 DUP11 ADD PUSH2 0x967 JUMP JUMPDEST SWAP4 POP POP PUSH1 0x80 DUP8 ADD CALLDATALOAD PUSH8 0xFFFFFFFFFFFFFFFF DUP2 GT ISZERO PUSH2 0xBA6 JUMPI PUSH2 0xBA5 PUSH2 0xFB7 JUMP JUMPDEST JUMPDEST PUSH2 0xBB2 DUP10 DUP3 DUP11 ADD PUSH2 0x967 JUMP JUMPDEST SWAP3 POP POP PUSH1 0xA0 DUP8 ADD CALLDATALOAD PUSH8 0xFFFFFFFFFFFFFFFF DUP2 GT ISZERO PUSH2 0xBD3 JUMPI PUSH2 0xBD2 PUSH2 0xFB7 JUMP JUMPDEST JUMPDEST PUSH2 0xBDF DUP10 DUP3 DUP11 ADD PUSH2 0x967 JUMP JUMPDEST SWAP2 POP POP SWAP3 SWAP6 POP SWAP3 SWAP6 POP SWAP3 SWAP6 JUMP JUMPDEST PUSH1 0x0 PUSH2 0xBF8 DUP4 DUP4 PUSH2 0xCCC JUMP JUMPDEST SWAP1 POP SWAP3 SWAP2 POP POP JUMP JUMPDEST PUSH2 0xC09 DUP2 PUSH2 0xE3F JUMP JUMPDEST DUP3 MSTORE POP POP JUMP JUMPDEST PUSH2 0xC18 DUP2 PUSH2 0xE3F JUMP JUMPDEST DUP3 MSTORE POP POP JUMP JUMPDEST PUSH1 0x0 PUSH2 0xC29 DUP3 PUSH2 0xDFA JUMP JUMPDEST PUSH2 0xC33 DUP2 DUP6 PUSH2 0xE1D JUMP JUMPDEST SWAP4 POP DUP4 PUSH1 0x20 DUP3 MUL DUP6 ADD PUSH2 0xC45 DUP6 PUSH2 0xDEA JUMP JUMPDEST DUP1 PUSH1 0x0 JUMPDEST DUP6 DUP2 LT ISZERO PUSH2 0xC81 JUMPI DUP5 DUP5 SUB DUP10 MSTORE DUP2 MLOAD PUSH2 0xC62 DUP6 DUP3 PUSH2 0xBEC JUMP JUMPDEST SWAP5 POP PUSH2 0xC6D DUP4 PUSH2 0xE10 JUMP JUMPDEST SWAP3 POP PUSH1 0x20 DUP11 ADD SWAP10 POP POP PUSH1 0x1 DUP2 ADD SWAP1 POP PUSH2 0xC49 JUMP JUMPDEST POP DUP3 SWAP8 POP DUP8 SWAP6 POP POP POP POP POP POP SWAP3 SWAP2 POP POP JUMP JUMPDEST PUSH1 0x0 PUSH2 0xC9E DUP3 PUSH2 0xE05 JUMP JUMPDEST PUSH2 0xCA8 DUP2 DUP6 PUSH2 0xE2E JUMP JUMPDEST SWAP4 POP PUSH2 0xCB8 DUP2 DUP6 PUSH1 0x20 DUP7 ADD PUSH2 0xE8A JUMP JUMPDEST PUSH2 0xCC1 DUP2 PUSH2 0xFC1 JUMP JUMPDEST DUP5 ADD SWAP2 POP POP SWAP3 SWAP2 POP POP JUMP JUMPDEST PUSH1 0x0 PUSH1 0xA0 DUP4 ADD PUSH1 0x0 DUP4 ADD MLOAD PUSH2 0xCE4 PUSH1 0x0 DUP7 ADD DUP3 PUSH2 0xC00 JUMP JUMPDEST POP PUSH1 0x20 DUP4 ADD MLOAD DUP5 DUP3 SUB PUSH1 0x20 DUP7 ADD MSTORE PUSH2 0xCFC DUP3 DUP3 PUSH2 0xC93 JUMP JUMPDEST SWAP2 POP POP PUSH1 0x40 DUP4 ADD MLOAD DUP5 DUP3 SUB PUSH1 0x40 DUP7 ADD MSTORE PUSH2 0xD16 DUP3 DUP3 PUSH2 0xC93 JUMP JUMPDEST SWAP2 POP POP PUSH1 0x60 DUP4 ADD MLOAD DUP5 DUP3 SUB PUSH1 0x60 DUP7 ADD MSTORE PUSH2 0xD30 DUP3 DUP3 PUSH2 0xC93 JUMP JUMPDEST SWAP2 POP POP PUSH1 0x80 DUP4 ADD MLOAD DUP5 DUP3 SUB PUSH1 0x80 DUP7 ADD MSTORE PUSH2 0xD4A DUP3 DUP3 PUSH2 0xC93 JUMP JUMPDEST SWAP2 POP POP DUP1 SWAP2 POP POP SWAP3 SWAP2 POP POP JUMP JUMPDEST PUSH1 0x0 PUSH1 0x20 DUP3 ADD SWAP1 POP PUSH2 0xD6C PUSH1 0x0 DUP4 ADD DUP5 PUSH2 0xC0F JUMP JUMPDEST SWAP3 SWAP2 POP POP JUMP JUMPDEST PUSH1 0x0 PUSH1 0x20 DUP3 ADD SWAP1 POP DUP2 DUP2 SUB PUSH1 0x0 DUP4 ADD MSTORE PUSH2 0xD8C DUP2 DUP5 PUSH2 0xC1E JUMP JUMPDEST SWAP1 POP SWAP3 SWAP2 POP POP JUMP JUMPDEST PUSH1 0x0 PUSH2 0xD9E PUSH2 0xDAF JUMP JUMPDEST SWAP1 POP PUSH2 0xDAA DUP3 DUP3 PUSH2 0xEEF JUMP JUMPDEST SWAP2 SWAP1 POP JUMP JUMPDEST PUSH1 0x0 PUSH1 0x40 MLOAD SWAP1 POP SWAP1 JUMP JUMPDEST PUSH1 0x0 PUSH8 0xFFFFFFFFFFFFFFFF DUP3 GT ISZERO PUSH2 0xDD4 JUMPI PUSH2 0xDD3 PUSH2 0xF7E JUMP JUMPDEST JUMPDEST PUSH2 0xDDD DUP3 PUSH2 0xFC1 JUMP JUMPDEST SWAP1 POP PUSH1 0x20 DUP2 ADD SWAP1 POP SWAP2 SWAP1 POP JUMP JUMPDEST PUSH1 0x0 DUP2 SWAP1 POP PUSH1 0x20 DUP3 ADD SWAP1 POP SWAP2 SWAP1 POP JUMP JUMPDEST PUSH1 0x0 DUP2 MLOAD SWAP1 POP SWAP2 SWAP1 POP JUMP JUMPDEST PUSH1 0x0 DUP2 MLOAD SWAP1 POP SWAP2 SWAP1 POP JUMP JUMPDEST PUSH1 0x0 PUSH1 0x20 DUP3 ADD SWAP1 POP SWAP2 SWAP1 POP JUMP JUMPDEST PUSH1 0x0 DUP3 DUP3 MSTORE PUSH1 0x20 DUP3 ADD SWAP1 POP SWAP3 SWAP2 POP POP JUMP JUMPDEST PUSH1 0x0 DUP3 DUP3 MSTORE PUSH1 0x20 DUP3 ADD SWAP1 POP SWAP3 SWAP2 POP POP JUMP JUMPDEST PUSH1 0x0 PUSH2 0xE4A DUP3 PUSH2 0xE51 JUMP JUMPDEST SWAP1 POP SWAP2 SWAP1 POP JUMP JUMPDEST PUSH1 0x0 PUSH20 0xFFFFFFFFFFFFFFFFFFFFFFFFFFFFFFFFFFFFFFFF DUP3 AND SWAP1 POP SWAP2 SWAP1 POP JUMP JUMPDEST PUSH1 0x0 DUP2 SWAP1 POP SWAP2 SWAP1 POP JUMP JUMPDEST DUP3 DUP2 DUP4 CALLDATACOPY PUSH1 0x0 DUP4 DUP4 ADD MSTORE POP POP POP JUMP JUMPDEST PUSH1 0x0 JUMPDEST DUP4 DUP2 LT ISZERO PUSH2 0xEA8 JUMPI DUP1 DUP3 ADD MLOAD DUP2 DUP5 ADD MSTORE PUSH1 0x20 DUP2 ADD SWAP1 POP PUSH2 0xE8D JUMP JUMPDEST DUP4 DUP2 GT ISZERO PUSH2 0xEB7 JUMPI PUSH1 0x0 DUP5 DUP5 ADD MSTORE JUMPDEST POP POP POP POP JUMP JUMPDEST PUSH1 0x0 PUSH1 0x2 DUP3 DIV SWAP1 POP PUSH1 0x1 DUP3 AND DUP1 PUSH2 0xED5 JUMPI PUSH1 0x7F DUP3 AND SWAP2 POP JUMPDEST PUSH1 0x20 DUP3 LT DUP2 EQ ISZERO PUSH2 0xEE9 JUMPI PUSH2 0xEE8 PUSH2 0xF20 JUMP JUMPDEST JUMPDEST POP SWAP2 SWAP1 POP JUMP JUMPDEST PUSH2 0xEF8 DUP3 PUSH2 0xFC1 JUMP JUMPDEST DUP2 ADD DUP2 DUP2 LT PUSH8 0xFFFFFFFFFFFFFFFF DUP3 GT OR ISZERO PUSH2 0xF17 JUMPI PUSH2 0xF16 PUSH2 0xF7E JUMP JUMPDEST JUMPDEST DUP1 PUSH1 0x40 MSTORE POP POP POP JUMP JUMPDEST PUSH32 0x4E487B7100000000000000000000000000000000000000000000000000000000 PUSH1 0x0 MSTORE PUSH1 0x22 PUSH1 0x4 MSTORE PUSH1 0x24 PUSH1 0x0 REVERT JUMPDEST PUSH32 0x4E487B7100000000000000000000000000000000000000000000000000000000 PUSH1 0x0 MSTORE PUSH1 0x32 PUSH1 0x4 MSTORE PUSH1 0x24 PUSH1 0x0 REVERT JUMPDEST PUSH32 0x4E487B7100000000000000000000000000000000000000000000000000000000 PUSH1 0x0 MSTORE PUSH1 0x41 PUSH1 0x4 MSTORE PUSH1 0x24 PUSH1 0x0 REVERT JUMPDEST PUSH1 0x0 DUP1 REVERT JUMPDEST PUSH1 0x0 DUP1 REVERT JUMPDEST PUSH1 0x0 DUP1 REVERT JUMPDEST PUSH1 0x0 DUP1 REVERT JUMPDEST PUSH1 0x0 PUSH1 0x1F NOT PUSH1 0x1F DUP4 ADD AND SWAP1 POP SWAP2 SWAP1 POP JUMP JUMPDEST PUSH2 0xFDB DUP2 PUSH2 0xE3F JUMP JUMPDEST DUP2 EQ PUSH2 0xFE6 JUMPI PUSH1 0x0 DUP1 REVERT JUMPDEST POP JUMP JUMPDEST PUSH2 0xFF2 DUP2 PUSH2 0xE71 JUMP JUMPDEST DUP2 EQ PUSH2 0xFFD JUMPI PUSH1 0x0 DUP1 REVERT JUMPDEST POP JUMP INVALID LOG2 PUSH5 0x6970667358 0x22 SLT KECCAK256 0xDD 0xEE 0xDC SWAP1 SWAP6 0xBF MULMOD 0xD7 0xDA PUSH15 0x8161960DFE82E366335D6B5C499C0E SMOD PUSH3 0x4DEF22 PUSH25 0x9A64736F6C6343000807003300000000000000000000000000 "
				},
				"gasEstimates": {
					"creation": {
						"codeDepositCost": "830000",
						"executionCost": "864",
						"totalCost": "830864"
					},
					"external": {
						"add_buyer(address,string,string,string,string)": "infinite",
						"bank()": "2559",
						"get_buyers()": "infinite",
						"provider()": "2512",
						"remove_buyer(uint256)": "infinite",
						"set_bank(address)": "24766",
						"set_provider(address)": "24722",
						"update_buyer(uint256,address,string,string,string,string)": "infinite"
					}
				},
				"methodIdentifiers": {
					"add_buyer(address,string,string,string,string)": "1fbecde7",
					"bank()": "76cdb03b",
					"get_buyers()": "827b0348",
					"provider()": "085d4883",
					"remove_buyer(uint256)": "b78842ee",
					"set_bank(address)": "dacf64e2",
					"set_provider(address)": "b29f04fe",
					"update_buyer(uint256,address,string,string,string,string)": "efa3b7cc"
				}
			},
			"storageLayout": {
				"storage": [
					{
						"astId": 56,
						"contract": "contracts/Colhoz.sol:Colhoz",
						"label": "provider",
						"offset": 0,
						"slot": "0",
						"type": "t_address"
					},
					{
						"astId": 58,
						"contract": "contracts/Colhoz.sol:Colhoz",
						"label": "bank",
						"offset": 0,
						"slot": "1",
						"type": "t_address"
					},
					{
						"astId": 62,
						"contract": "contracts/Colhoz.sol:Colhoz",
						"label": "buyers",
						"offset": 0,
						"slot": "2",
						"type": "t_array(t_struct(User)12_storage)dyn_storage"
					},
					{
						"astId": 66,
						"contract": "contracts/Colhoz.sol:Colhoz",
						"label": "admins",
						"offset": 0,
						"slot": "3",
						"type": "t_array(t_struct(User)12_storage)dyn_storage"
					},
					{
						"astId": 70,
						"contract": "contracts/Colhoz.sol:Colhoz",
						"label": "sellers",
						"offset": 0,
						"slot": "4",
						"type": "t_array(t_struct(Seller)25_storage)dyn_storage"
					},
					{
						"astId": 74,
						"contract": "contracts/Colhoz.sol:Colhoz",
						"label": "shops",
						"offset": 0,
						"slot": "5",
						"type": "t_array(t_struct(Shop)34_storage)dyn_storage"
					},
					{
						"astId": 78,
						"contract": "contracts/Colhoz.sol:Colhoz",
						"label": "reviews",
						"offset": 0,
						"slot": "6",
						"type": "t_array(t_struct(Review)47_storage)dyn_storage"
					},
					{
						"astId": 82,
						"contract": "contracts/Colhoz.sol:Colhoz",
						"label": "requests",
						"offset": 0,
						"slot": "7",
						"type": "t_array(t_struct(Request)54_storage)dyn_storage"
					}
				],
				"types": {
					"t_address": {
						"encoding": "inplace",
						"label": "address",
						"numberOfBytes": "20"
					},
					"t_array(t_address)dyn_storage": {
						"base": "t_address",
						"encoding": "dynamic_array",
						"label": "address[]",
						"numberOfBytes": "32"
					},
					"t_array(t_struct(Request)54_storage)dyn_storage": {
						"base": "t_struct(Request)54_storage",
						"encoding": "dynamic_array",
						"label": "struct Request[]",
						"numberOfBytes": "32"
					},
					"t_array(t_struct(Review)47_storage)dyn_storage": {
						"base": "t_struct(Review)47_storage",
						"encoding": "dynamic_array",
						"label": "struct Review[]",
						"numberOfBytes": "32"
					},
					"t_array(t_struct(Seller)25_storage)dyn_storage": {
						"base": "t_struct(Seller)25_storage",
						"encoding": "dynamic_array",
						"label": "struct Seller[]",
						"numberOfBytes": "32"
					},
					"t_array(t_struct(Shop)34_storage)dyn_storage": {
						"base": "t_struct(Shop)34_storage",
						"encoding": "dynamic_array",
						"label": "struct Shop[]",
						"numberOfBytes": "32"
					},
					"t_array(t_struct(User)12_storage)dyn_storage": {
						"base": "t_struct(User)12_storage",
						"encoding": "dynamic_array",
						"label": "struct User[]",
						"numberOfBytes": "32"
					},
					"t_string_storage": {
						"encoding": "bytes",
						"label": "string",
						"numberOfBytes": "32"
					},
					"t_struct(Request)54_storage": {
						"encoding": "inplace",
						"label": "struct Request",
						"members": [
							{
								"astId": 49,
								"contract": "contracts/Colhoz.sol:Colhoz",
								"label": "autor",
								"offset": 0,
								"slot": "0",
								"type": "t_address"
							},
							{
								"astId": 51,
								"contract": "contracts/Colhoz.sol:Colhoz",
								"label": "currentRole",
								"offset": 0,
								"slot": "1",
								"type": "t_string_storage"
							},
							{
								"astId": 53,
								"contract": "contracts/Colhoz.sol:Colhoz",
								"label": "desiredRole",
								"offset": 0,
								"slot": "2",
								"type": "t_string_storage"
							}
						],
						"numberOfBytes": "96"
					},
					"t_struct(Review)47_storage": {
						"encoding": "inplace",
						"label": "struct Review",
						"members": [
							{
								"astId": 36,
								"contract": "contracts/Colhoz.sol:Colhoz",
								"label": "autor",
								"offset": 0,
								"slot": "0",
								"type": "t_address"
							},
							{
								"astId": 38,
								"contract": "contracts/Colhoz.sol:Colhoz",
								"label": "message",
								"offset": 0,
								"slot": "1",
								"type": "t_string_storage"
							},
							{
								"astId": 40,
								"contract": "contracts/Colhoz.sol:Colhoz",
								"label": "shopId",
								"offset": 0,
								"slot": "2",
								"type": "t_string_storage"
							},
							{
								"astId": 43,
								"contract": "contracts/Colhoz.sol:Colhoz",
								"label": "likes",
								"offset": 0,
								"slot": "3",
								"type": "t_array(t_address)dyn_storage"
							},
							{
								"astId": 46,
								"contract": "contracts/Colhoz.sol:Colhoz",
								"label": "dislikes",
								"offset": 0,
								"slot": "4",
								"type": "t_array(t_address)dyn_storage"
							}
						],
						"numberOfBytes": "160"
					},
					"t_struct(Seller)25_storage": {
						"encoding": "inplace",
						"label": "struct Seller",
						"members": [
							{
								"astId": 14,
								"contract": "contracts/Colhoz.sol:Colhoz",
								"label": "userAddr",
								"offset": 0,
								"slot": "0",
								"type": "t_address"
							},
							{
								"astId": 16,
								"contract": "contracts/Colhoz.sol:Colhoz",
								"label": "login",
								"offset": 0,
								"slot": "1",
								"type": "t_string_storage"
							},
							{
								"astId": 18,
								"contract": "contracts/Colhoz.sol:Colhoz",
								"label": "password",
								"offset": 0,
								"slot": "2",
								"type": "t_string_storage"
							},
							{
								"astId": 20,
								"contract": "contracts/Colhoz.sol:Colhoz",
								"label": "fio",
								"offset": 0,
								"slot": "3",
								"type": "t_string_storage"
							},
							{
								"astId": 22,
								"contract": "contracts/Colhoz.sol:Colhoz",
								"label": "status",
								"offset": 0,
								"slot": "4",
								"type": "t_string_storage"
							},
							{
								"astId": 24,
								"contract": "contracts/Colhoz.sol:Colhoz",
								"label": "shopId",
								"offset": 0,
								"slot": "5",
								"type": "t_string_storage"
							}
						],
						"numberOfBytes": "192"
					},
					"t_struct(Shop)34_storage": {
						"encoding": "inplace",
						"label": "struct Shop",
						"members": [
							{
								"astId": 27,
								"contract": "contracts/Colhoz.sol:Colhoz",
								"label": "shopId",
								"offset": 0,
								"slot": "0",
								"type": "t_string_storage"
							},
							{
								"astId": 29,
								"contract": "contracts/Colhoz.sol:Colhoz",
								"label": "shopAddr",
								"offset": 0,
								"slot": "1",
								"type": "t_address"
							},
							{
								"astId": 31,
								"contract": "contracts/Colhoz.sol:Colhoz",
								"label": "number",
								"offset": 0,
								"slot": "2",
								"type": "t_string_storage"
							},
							{
								"astId": 33,
								"contract": "contracts/Colhoz.sol:Colhoz",
								"label": "city",
								"offset": 0,
								"slot": "3",
								"type": "t_string_storage"
							}
						],
						"numberOfBytes": "128"
					},
					"t_struct(User)12_storage": {
						"encoding": "inplace",
						"label": "struct User",
						"members": [
							{
								"astId": 3,
								"contract": "contracts/Colhoz.sol:Colhoz",
								"label": "userAddr",
								"offset": 0,
								"slot": "0",
								"type": "t_address"
							},
							{
								"astId": 5,
								"contract": "contracts/Colhoz.sol:Colhoz",
								"label": "login",
								"offset": 0,
								"slot": "1",
								"type": "t_string_storage"
							},
							{
								"astId": 7,
								"contract": "contracts/Colhoz.sol:Colhoz",
								"label": "password",
								"offset": 0,
								"slot": "2",
								"type": "t_string_storage"
							},
							{
								"astId": 9,
								"contract": "contracts/Colhoz.sol:Colhoz",
								"label": "fio",
								"offset": 0,
								"slot": "3",
								"type": "t_string_storage"
							},
							{
								"astId": 11,
								"contract": "contracts/Colhoz.sol:Colhoz",
								"label": "status",
								"offset": 0,
								"slot": "4",
								"type": "t_string_storage"
							}
						],
						"numberOfBytes": "160"
					}
				}
			},
			"userdoc": {
				"kind": "user",
				"methods": {},
				"version": 1
			}
		}
	}
}