{
	"contracts/Database.sol": {
		"Database": {
			"abi": [
				{
					"inputs": [
						{
							"internalType": "address",
							"name": "_bank",
							"type": "address"
						}
					],
					"stateMutability": "nonpayable",
					"type": "constructor"
				},
				{
					"inputs": [
						{
							"internalType": "address",
							"name": "shopAddr",
							"type": "address"
						},
						{
							"internalType": "string",
							"name": "number",
							"type": "string"
						},
						{
							"internalType": "string",
							"name": "city",
							"type": "string"
						}
					],
					"name": "add_shop",
					"outputs": [],
					"stateMutability": "nonpayable",
					"type": "function"
				},
				{
					"inputs": [
						{
							"internalType": "string",
							"name": "login",
							"type": "string"
						},
						{
							"internalType": "string",
							"name": "password",
							"type": "string"
						}
					],
					"name": "auth",
					"outputs": [
						{
							"components": [
								{
									"internalType": "address",
									"name": "userAddr",
									"type": "address"
								},
								{
									"internalType": "string",
									"name": "login",
									"type": "string"
								},
								{
									"internalType": "string",
									"name": "password",
									"type": "string"
								},
								{
									"internalType": "string",
									"name": "fio",
									"type": "string"
								},
								{
									"internalType": "string",
									"name": "status",
									"type": "string"
								}
							],
							"internalType": "struct User",
							"name": "",
							"type": "tuple"
						}
					],
					"stateMutability": "view",
					"type": "function"
				},
				{
					"inputs": [],
					"name": "bank",
					"outputs": [
						{
							"internalType": "address",
							"name": "",
							"type": "address"
						}
					],
					"stateMutability": "view",
					"type": "function"
				},
				{
					"inputs": [
						{
							"internalType": "string",
							"name": "userLogin",
							"type": "string"
						},
						{
							"internalType": "bool",
							"name": "isAccept",
							"type": "bool"
						}
					],
					"name": "check_request",
					"outputs": [],
					"stateMutability": "nonpayable",
					"type": "function"
				},
				{
					"inputs": [
						{
							"internalType": "string",
							"name": "autor",
							"type": "string"
						},
						{
							"internalType": "string",
							"name": "currentRole",
							"type": "string"
						},
						{
							"internalType": "string",
							"name": "desiredRole",
							"type": "string"
						},
						{
							"internalType": "bool",
							"name": "checked",
							"type": "bool"
						}
					],
					"name": "create_request",
					"outputs": [],
					"stateMutability": "nonpayable",
					"type": "function"
				},
				{
					"inputs": [
						{
							"internalType": "address",
							"name": "shopAddr",
							"type": "address"
						},
						{
							"internalType": "string",
							"name": "autorLogin",
							"type": "string"
						},
						{
							"internalType": "string",
							"name": "message",
							"type": "string"
						},
						{
							"internalType": "uint256",
							"name": "likes",
							"type": "uint256"
						},
						{
							"internalType": "uint256",
							"name": "dislikes",
							"type": "uint256"
						},
						{
							"internalType": "uint256",
							"name": "mark",
							"type": "uint256"
						}
					],
					"name": "create_review",
					"outputs": [],
					"stateMutability": "nonpayable",
					"type": "function"
				},
				{
					"inputs": [
						{
							"internalType": "address",
							"name": "shopAddr",
							"type": "address"
						}
					],
					"name": "delete_shop",
					"outputs": [],
					"stateMutability": "nonpayable",
					"type": "function"
				},
				{
					"inputs": [
						{
							"internalType": "address",
							"name": "shopAddr",
							"type": "address"
						},
						{
							"internalType": "string",
							"name": "autorLogin",
							"type": "string"
						}
					],
					"name": "dislike_review",
					"outputs": [],
					"stateMutability": "nonpayable",
					"type": "function"
				},
				{
					"inputs": [],
					"name": "get_admins",
					"outputs": [
						{
							"internalType": "string[]",
							"name": "",
							"type": "string[]"
						}
					],
					"stateMutability": "view",
					"type": "function"
				},
				{
					"inputs": [],
					"name": "get_requests",
					"outputs": [
						{
							"internalType": "string[]",
							"name": "",
							"type": "string[]"
						}
					],
					"stateMutability": "view",
					"type": "function"
				},
				{
					"inputs": [],
					"name": "get_shops",
					"outputs": [
						{
							"internalType": "address[]",
							"name": "",
							"type": "address[]"
						}
					],
					"stateMutability": "view",
					"type": "function"
				},
				{
					"inputs": [
						{
							"internalType": "address",
							"name": "shopAddr",
							"type": "address"
						},
						{
							"internalType": "string",
							"name": "userLogin",
							"type": "string"
						}
					],
					"name": "get_user_review",
					"outputs": [
						{
							"components": [
								{
									"internalType": "string",
									"name": "autorLogin",
									"type": "string"
								},
								{
									"internalType": "string",
									"name": "message",
									"type": "string"
								},
								{
									"internalType": "uint256",
									"name": "likes",
									"type": "uint256"
								},
								{
									"internalType": "uint256",
									"name": "dislikes",
									"type": "uint256"
								},
								{
									"internalType": "uint256",
									"name": "mark",
									"type": "uint256"
								}
							],
							"internalType": "struct Review",
							"name": "",
							"type": "tuple"
						}
					],
					"stateMutability": "view",
					"type": "function"
				},
				{
					"inputs": [
						{
							"internalType": "address",
							"name": "shopAddr",
							"type": "address"
						}
					],
					"name": "give_shop_money",
					"outputs": [],
					"stateMutability": "nonpayable",
					"type": "function"
				},
				{
					"inputs": [
						{
							"internalType": "address",
							"name": "shopAddr",
							"type": "address"
						},
						{
							"internalType": "string",
							"name": "autorLogin",
							"type": "string"
						}
					],
					"name": "like_review",
					"outputs": [],
					"stateMutability": "nonpayable",
					"type": "function"
				},
				{
					"inputs": [
						{
							"internalType": "address",
							"name": "userAddr",
							"type": "address"
						},
						{
							"internalType": "string",
							"name": "login",
							"type": "string"
						},
						{
							"internalType": "string",
							"name": "password",
							"type": "string"
						},
						{
							"internalType": "string",
							"name": "fio",
							"type": "string"
						},
						{
							"internalType": "string",
							"name": "status",
							"type": "string"
						}
					],
					"name": "register_admin",
					"outputs": [],
					"stateMutability": "nonpayable",
					"type": "function"
				},
				{
					"inputs": [
						{
							"internalType": "address",
							"name": "userAddr",
							"type": "address"
						},
						{
							"internalType": "string",
							"name": "login",
							"type": "string"
						},
						{
							"internalType": "string",
							"name": "password",
							"type": "string"
						},
						{
							"internalType": "string",
							"name": "fio",
							"type": "string"
						},
						{
							"internalType": "string",
							"name": "status",
							"type": "string"
						}
					],
					"name": "register_buyer",
					"outputs": [],
					"stateMutability": "nonpayable",
					"type": "function"
				},
				{
					"inputs": [
						{
							"internalType": "address",
							"name": "userAddr",
							"type": "address"
						},
						{
							"internalType": "string",
							"name": "login",
							"type": "string"
						},
						{
							"internalType": "string",
							"name": "password",
							"type": "string"
						},
						{
							"internalType": "string",
							"name": "fio",
							"type": "string"
						},
						{
							"internalType": "string",
							"name": "status",
							"type": "string"
						},
						{
							"internalType": "address",
							"name": "shopAddr",
							"type": "address"
						}
					],
					"name": "register_seller",
					"outputs": [],
					"stateMutability": "nonpayable",
					"type": "function"
				},
				{
					"inputs": [
						{
							"internalType": "address",
							"name": "",
							"type": "address"
						}
					],
					"name": "shopDebts",
					"outputs": [
						{
							"internalType": "uint256",
							"name": "",
							"type": "uint256"
						}
					],
					"stateMutability": "view",
					"type": "function"
				},
				{
					"inputs": [
						{
							"internalType": "address",
							"name": "",
							"type": "address"
						},
						{
							"internalType": "uint256",
							"name": "",
							"type": "uint256"
						}
					],
					"name": "shopSellers",
					"outputs": [
						{
							"internalType": "string",
							"name": "",
							"type": "string"
						}
					],
					"stateMutability": "view",
					"type": "function"
				},
				{
					"inputs": [
						{
							"internalType": "address",
							"name": "",
							"type": "address"
						}
					],
					"name": "shops",
					"outputs": [
						{
							"internalType": "string",
							"name": "number",
							"type": "string"
						},
						{
							"internalType": "string",
							"name": "city",
							"type": "string"
						}
					],
					"stateMutability": "view",
					"type": "function"
				},
				{
					"inputs": [
						{
							"internalType": "address",
							"name": "",
							"type": "address"
						},
						{
							"internalType": "uint256",
							"name": "",
							"type": "uint256"
						}
					],
					"name": "shopsReviews",
					"outputs": [
						{
							"internalType": "string",
							"name": "",
							"type": "string"
						}
					],
					"stateMutability": "view",
					"type": "function"
				},
				{
					"inputs": [
						{
							"internalType": "address",
							"name": "",
							"type": "address"
						},
						{
							"internalType": "string",
							"name": "",
							"type": "string"
						}
					],
					"name": "userActions",
					"outputs": [
						{
							"internalType": "bool",
							"name": "",
							"type": "bool"
						}
					],
					"stateMutability": "view",
					"type": "function"
				},
				{
					"inputs": [
						{
							"internalType": "string",
							"name": "",
							"type": "string"
						}
					],
					"name": "userRequest",
					"outputs": [
						{
							"internalType": "string",
							"name": "autor",
							"type": "string"
						},
						{
							"internalType": "string",
							"name": "currentRole",
							"type": "string"
						},
						{
							"internalType": "string",
							"name": "desiredRole",
							"type": "string"
						},
						{
							"internalType": "bool",
							"name": "checked",
							"type": "bool"
						}
					],
					"stateMutability": "view",
					"type": "function"
				},
				{
					"inputs": [
						{
							"internalType": "string",
							"name": "",
							"type": "string"
						},
						{
							"internalType": "address",
							"name": "",
							"type": "address"
						}
					],
					"name": "userReviews",
					"outputs": [
						{
							"internalType": "string",
							"name": "autorLogin",
							"type": "string"
						},
						{
							"internalType": "string",
							"name": "message",
							"type": "string"
						},
						{
							"internalType": "uint256",
							"name": "likes",
							"type": "uint256"
						},
						{
							"internalType": "uint256",
							"name": "dislikes",
							"type": "uint256"
						},
						{
							"internalType": "uint256",
							"name": "mark",
							"type": "uint256"
						}
					],
					"stateMutability": "view",
					"type": "function"
				},
				{
					"inputs": [
						{
							"internalType": "string",
							"name": "",
							"type": "string"
						}
					],
					"name": "users",
					"outputs": [
						{
							"internalType": "address",
							"name": "userAddr",
							"type": "address"
						},
						{
							"internalType": "string",
							"name": "login",
							"type": "string"
						},
						{
							"internalType": "string",
							"name": "password",
							"type": "string"
						},
						{
							"internalType": "string",
							"name": "fio",
							"type": "string"
						},
						{
							"internalType": "string",
							"name": "status",
							"type": "string"
						}
					],
					"stateMutability": "view",
					"type": "function"
				}
			],
			"devdoc": {
				"kind": "dev",
				"methods": {},
				"version": 1
			},
			"evm": {
				"assembly": "    /* \"contracts/Database.sol\":444:6022  contract Database{... */\n  mstore(0x40, 0x80)\n    /* \"contracts/Database.sol\":1232:1287  constructor(address _bank){... */\n  callvalue\n  dup1\n  iszero\n  tag_1\n  jumpi\n  0x00\n  dup1\n  revert\ntag_1:\n  pop\n  mload(0x40)\n  sub(codesize, bytecodeSize)\n  dup1\n  bytecodeSize\n  dup4\n  codecopy\n  dup2\n  dup2\n  add\n  0x40\n  mstore\n  dup2\n  add\n  swap1\n  tag_2\n  swap2\n  swap1\n  tag_3\n  jump\t// in\ntag_2:\n    /* \"contracts/Database.sol\":1275:1280  _bank */\n  dup1\n    /* \"contracts/Database.sol\":1268:1272  bank */\n  0x02\n  0x00\n    /* \"contracts/Database.sol\":1268:1280  bank = _bank */\n  0x0100\n  exp\n  dup2\n  sload\n  dup2\n  0xffffffffffffffffffffffffffffffffffffffff\n  mul\n  not\n  and\n  swap1\n  dup4\n  0xffffffffffffffffffffffffffffffffffffffff\n  and\n  mul\n  or\n  swap1\n  sstore\n  pop\n    /* \"contracts/Database.sol\":1232:1287  constructor(address _bank){... */\n  pop\n    /* \"contracts/Database.sol\":444:6022  contract Database{... */\n  jump(tag_6)\n    /* \"#utility.yul\":7:150   */\ntag_8:\n    /* \"#utility.yul\":64:69   */\n  0x00\n    /* \"#utility.yul\":95:101   */\n  dup2\n    /* \"#utility.yul\":89:102   */\n  mload\n    /* \"#utility.yul\":80:102   */\n  swap1\n  pop\n    /* \"#utility.yul\":111:144   */\n  tag_10\n    /* \"#utility.yul\":138:143   */\n  dup2\n    /* \"#utility.yul\":111:144   */\n  tag_11\n  jump\t// in\ntag_10:\n    /* \"#utility.yul\":7:150   */\n  swap3\n  swap2\n  pop\n  pop\n  jump\t// out\n    /* \"#utility.yul\":156:507   */\ntag_3:\n    /* \"#utility.yul\":226:232   */\n  0x00\n    /* \"#utility.yul\":275:277   */\n  0x20\n    /* \"#utility.yul\":263:272   */\n  dup3\n    /* \"#utility.yul\":254:261   */\n  dup5\n    /* \"#utility.yul\":250:273   */\n  sub\n    /* \"#utility.yul\":246:278   */\n  slt\n    /* \"#utility.yul\":243:362   */\n  iszero\n  tag_13\n  jumpi\n    /* \"#utility.yul\":281:360   */\n  tag_14\n  tag_15\n  jump\t// in\ntag_14:\n    /* \"#utility.yul\":243:362   */\ntag_13:\n    /* \"#utility.yul\":401:402   */\n  0x00\n    /* \"#utility.yul\":426:490   */\n  tag_16\n    /* \"#utility.yul\":482:489   */\n  dup5\n    /* \"#utility.yul\":473:479   */\n  dup3\n    /* \"#utility.yul\":462:471   */\n  dup6\n    /* \"#utility.yul\":458:480   */\n  add\n    /* \"#utility.yul\":426:490   */\n  tag_8\n  jump\t// in\ntag_16:\n    /* \"#utility.yul\":416:490   */\n  swap2\n  pop\n    /* \"#utility.yul\":372:500   */\n  pop\n    /* \"#utility.yul\":156:507   */\n  swap3\n  swap2\n  pop\n  pop\n  jump\t// out\n    /* \"#utility.yul\":594:690   */\ntag_19:\n    /* \"#utility.yul\":631:638   */\n  0x00\n    /* \"#utility.yul\":660:684   */\n  tag_21\n    /* \"#utility.yul\":678:683   */\n  dup3\n    /* \"#utility.yul\":660:684   */\n  tag_22\n  jump\t// in\ntag_21:\n    /* \"#utility.yul\":649:684   */\n  swap1\n  pop\n    /* \"#utility.yul\":594:690   */\n  swap2\n  swap1\n  pop\n  jump\t// out\n    /* \"#utility.yul\":696:822   */\ntag_22:\n    /* \"#utility.yul\":733:740   */\n  0x00\n    /* \"#utility.yul\":773:815   */\n  0xffffffffffffffffffffffffffffffffffffffff\n    /* \"#utility.yul\":766:771   */\n  dup3\n    /* \"#utility.yul\":762:816   */\n  and\n    /* \"#utility.yul\":751:816   */\n  swap1\n  pop\n    /* \"#utility.yul\":696:822   */\n  swap2\n  swap1\n  pop\n  jump\t// out\n    /* \"#utility.yul\":951:1068   */\ntag_15:\n    /* \"#utility.yul\":1060:1061   */\n  0x00\n    /* \"#utility.yul\":1057:1058   */\n  dup1\n    /* \"#utility.yul\":1050:1062   */\n  revert\n    /* \"#utility.yul\":1074:1196   */\ntag_11:\n    /* \"#utility.yul\":1147:1171   */\n  tag_28\n    /* \"#utility.yul\":1165:1170   */\n  dup2\n    /* \"#utility.yul\":1147:1171   */\n  tag_19\n  jump\t// in\ntag_28:\n    /* \"#utility.yul\":1140:1145   */\n  dup2\n    /* \"#utility.yul\":1137:1172   */\n  eq\n    /* \"#utility.yul\":1127:1190   */\n  tag_29\n  jumpi\n    /* \"#utility.yul\":1186:1187   */\n  0x00\n    /* \"#utility.yul\":1183:1184   */\n  dup1\n    /* \"#utility.yul\":1176:1188   */\n  revert\n    /* \"#utility.yul\":1127:1190   */\ntag_29:\n    /* \"#utility.yul\":1074:1196   */\n  pop\n  jump\t// out\n    /* \"contracts/Database.sol\":444:6022  contract Database{... */\ntag_6:\n  dataSize(sub_0)\n  dup1\n  dataOffset(sub_0)\n  0x00\n  codecopy\n  0x00\n  return\nstop\n\nsub_0: assembly {\n        /* \"contracts/Database.sol\":444:6022  contract Database{... */\n      mstore(0x40, 0x80)\n      callvalue\n      dup1\n      iszero\n      tag_1\n      jumpi\n      0x00\n      dup1\n      revert\n    tag_1:\n      pop\n      jumpi(tag_2, lt(calldatasize, 0x04))\n      shr(0xe0, calldataload(0x00))\n      dup1\n      0x7fdbe231\n      gt\n      tag_28\n      jumpi\n      dup1\n      0xba37d000\n      gt\n      tag_29\n      jumpi\n      dup1\n      0xe51679f4\n      gt\n      tag_30\n      jumpi\n      dup1\n      0xe51679f4\n      eq\n      tag_24\n      jumpi\n      dup1\n      0xe930267f\n      eq\n      tag_25\n      jumpi\n      dup1\n      0xee86e3c0\n      eq\n      tag_26\n      jumpi\n      dup1\n      0xf2c6f34c\n      eq\n      tag_27\n      jumpi\n      jump(tag_2)\n    tag_30:\n      dup1\n      0xba37d000\n      eq\n      tag_21\n      jumpi\n      dup1\n      0xdebd53b0\n      eq\n      tag_22\n      jumpi\n      dup1\n      0xe37332ba\n      eq\n      tag_23\n      jumpi\n      jump(tag_2)\n    tag_29:\n      dup1\n      0x7fdbe231\n      eq\n      tag_15\n      jumpi\n      dup1\n      0x8794b69d\n      eq\n      tag_16\n      jumpi\n      dup1\n      0x95386d3d\n      eq\n      tag_17\n      jumpi\n      dup1\n      0x999d1f85\n      eq\n      tag_18\n      jumpi\n      dup1\n      0x9dfc3a20\n      eq\n      tag_19\n      jumpi\n      dup1\n      0x9ee80ed5\n      eq\n      tag_20\n      jumpi\n      jump(tag_2)\n    tag_28:\n      dup1\n      0x56f11e03\n      gt\n      tag_31\n      jumpi\n      dup1\n      0x56f11e03\n      eq\n      tag_9\n      jumpi\n      dup1\n      0x5eaf1bd2\n      eq\n      tag_10\n      jumpi\n      dup1\n      0x63df1969\n      eq\n      tag_11\n      jumpi\n      dup1\n      0x689e1c03\n      eq\n      tag_12\n      jumpi\n      dup1\n      0x76cdb03b\n      eq\n      tag_13\n      jumpi\n      dup1\n      0x7a28f144\n      eq\n      tag_14\n      jumpi\n      jump(tag_2)\n    tag_31:\n      dup1\n      0x1f5b32ca\n      eq\n      tag_3\n      jumpi\n      dup1\n      0x23e92804\n      eq\n      tag_4\n      jumpi\n      dup1\n      0x2dca1fcc\n      eq\n      tag_5\n      jumpi\n      dup1\n      0x35349b20\n      eq\n      tag_6\n      jumpi\n      dup1\n      0x455bfbf2\n      eq\n      tag_7\n      jumpi\n      dup1\n      0x48eed213\n      eq\n      tag_8\n      jumpi\n    tag_2:\n      0x00\n      dup1\n      revert\n        /* \"contracts/Database.sol\":5539:5768  function like_review(... */\n    tag_3:\n      tag_32\n      0x04\n      dup1\n      calldatasize\n      sub\n      dup2\n      add\n      swap1\n      tag_33\n      swap2\n      swap1\n      tag_34\n      jump\t// in\n    tag_33:\n      tag_35\n      jump\t// in\n    tag_32:\n      stop\n        /* \"contracts/Database.sol\":5353:5533  function get_user_review(... */\n    tag_4:\n      tag_36\n      0x04\n      dup1\n      calldatasize\n      sub\n      dup2\n      add\n      swap1\n      tag_37\n      swap2\n      swap1\n      tag_34\n      jump\t// in\n    tag_37:\n      tag_38\n      jump\t// in\n    tag_36:\n      mload(0x40)\n      tag_39\n      swap2\n      swap1\n      tag_40\n      jump\t// in\n    tag_39:\n      mload(0x40)\n      dup1\n      swap2\n      sub\n      swap1\n      return\n        /* \"contracts/Database.sol\":882:919  mapping(address => Shop) public shops */\n    tag_5:\n      tag_41\n      0x04\n      dup1\n      calldatasize\n      sub\n      dup2\n      add\n      swap1\n      tag_42\n      swap2\n      swap1\n      tag_43\n      jump\t// in\n    tag_42:\n      tag_44\n      jump\t// in\n    tag_41:\n      mload(0x40)\n      tag_45\n      swap3\n      swap2\n      swap1\n      tag_46\n      jump\t// in\n    tag_45:\n      mload(0x40)\n      dup1\n      swap2\n      sub\n      swap1\n      return\n        /* \"contracts/Database.sol\":1806:2147  function register_admin(... */\n    tag_6:\n      tag_47\n      0x04\n      dup1\n      calldatasize\n      sub\n      dup2\n      add\n      swap1\n      tag_48\n      swap2\n      swap1\n      tag_49\n      jump\t// in\n    tag_48:\n      tag_50\n      jump\t// in\n    tag_47:\n      stop\n        /* \"contracts/Database.sol\":4518:4617  function get_requests() public view returns(string[] memory){... */\n    tag_7:\n      tag_51\n      tag_52\n      jump\t// in\n    tag_51:\n      mload(0x40)\n      tag_53\n      swap2\n      swap1\n      tag_54\n      jump\t// in\n    tag_53:\n      mload(0x40)\n      dup1\n      swap2\n      sub\n      swap1\n      return\n        /* \"contracts/Database.sol\":3890:4193  function auth(... */\n    tag_8:\n      tag_55\n      0x04\n      dup1\n      calldatasize\n      sub\n      dup2\n      add\n      swap1\n      tag_56\n      swap2\n      swap1\n      tag_57\n      jump\t// in\n    tag_56:\n      tag_58\n      jump\t// in\n    tag_55:\n      mload(0x40)\n      tag_59\n      swap2\n      swap1\n      tag_60\n      jump\t// in\n    tag_59:\n      mload(0x40)\n      dup1\n      swap2\n      sub\n      swap1\n      return\n        /* \"contracts/Database.sol\":3107:3664  function delete_shop(address shopAddr) public {... */\n    tag_9:\n      tag_61\n      0x04\n      dup1\n      calldatasize\n      sub\n      dup2\n      add\n      swap1\n      tag_62\n      swap2\n      swap1\n      tag_43\n      jump\t// in\n    tag_62:\n      tag_63\n      jump\t// in\n    tag_61:\n      stop\n        /* \"contracts/Database.sol\":950:998  mapping(address => string[]) public shopsReviews */\n    tag_10:\n      tag_64\n      0x04\n      dup1\n      calldatasize\n      sub\n      dup2\n      add\n      swap1\n      tag_65\n      swap2\n      swap1\n      tag_66\n      jump\t// in\n    tag_65:\n      tag_67\n      jump\t// in\n    tag_64:\n      mload(0x40)\n      tag_68\n      swap2\n      swap1\n      tag_69\n      jump\t// in\n    tag_68:\n      mload(0x40)\n      dup1\n      swap2\n      sub\n      swap1\n      return\n        /* \"contracts/Database.sol\":2542:2855  function register_buyer(... */\n    tag_11:\n      tag_70\n      0x04\n      dup1\n      calldatasize\n      sub\n      dup2\n      add\n      swap1\n      tag_71\n      swap2\n      swap1\n      tag_49\n      jump\t// in\n    tag_71:\n      tag_72\n      jump\t// in\n    tag_70:\n      stop\n        /* \"contracts/Database.sol\":541:577  mapping(string => User) public users */\n    tag_12:\n      tag_73\n      0x04\n      dup1\n      calldatasize\n      sub\n      dup2\n      add\n      swap1\n      tag_74\n      swap2\n      swap1\n      tag_75\n      jump\t// in\n    tag_74:\n      tag_76\n      jump\t// in\n    tag_73:\n      mload(0x40)\n      tag_77\n      swap6\n      swap5\n      swap4\n      swap3\n      swap2\n      swap1\n      tag_78\n      jump\t// in\n    tag_77:\n      mload(0x40)\n      dup1\n      swap2\n      sub\n      swap1\n      return\n        /* \"contracts/Database.sol\":515:534  address public bank */\n    tag_13:\n      tag_79\n      tag_80\n      jump\t// in\n    tag_79:\n      mload(0x40)\n      tag_81\n      swap2\n      swap1\n      tag_82\n      jump\t// in\n    tag_81:\n      mload(0x40)\n      dup1\n      swap2\n      sub\n      swap1\n      return\n        /* \"contracts/Database.sol\":801:848  mapping(address => string[]) public shopSellers */\n    tag_14:\n      tag_83\n      0x04\n      dup1\n      calldatasize\n      sub\n      dup2\n      add\n      swap1\n      tag_84\n      swap2\n      swap1\n      tag_66\n      jump\t// in\n    tag_84:\n      tag_85\n      jump\t// in\n    tag_83:\n      mload(0x40)\n      tag_86\n      swap2\n      swap1\n      tag_69\n      jump\t// in\n    tag_86:\n      mload(0x40)\n      dup1\n      swap2\n      sub\n      swap1\n      return\n        /* \"contracts/Database.sol\":3670:3884  function give_shop_money(... */\n    tag_15:\n      tag_87\n      0x04\n      dup1\n      calldatasize\n      sub\n      dup2\n      add\n      swap1\n      tag_88\n      swap2\n      swap1\n      tag_43\n      jump\t// in\n    tag_88:\n      tag_89\n      jump\t// in\n    tag_87:\n      stop\n        /* \"contracts/Database.sol\":1616:1704  function get_admins() public view returns(string[] memory){... */\n    tag_16:\n      tag_90\n      tag_91\n      jump\t// in\n    tag_90:\n      mload(0x40)\n      tag_92\n      swap2\n      swap1\n      tag_54\n      jump\t// in\n    tag_92:\n      mload(0x40)\n      dup1\n      swap2\n      sub\n      swap1\n      return\n        /* \"contracts/Database.sol\":4623:4919  function check_request(... */\n    tag_17:\n      tag_93\n      0x04\n      dup1\n      calldatasize\n      sub\n      dup2\n      add\n      swap1\n      tag_94\n      swap2\n      swap1\n      tag_95\n      jump\t// in\n    tag_94:\n      tag_96\n      jump\t// in\n    tag_93:\n      stop\n        /* \"contracts/Database.sol\":1709:1800  function get_shops() public view returns(address[] memory){... */\n    tag_18:\n      tag_97\n      tag_98\n      jump\t// in\n    tag_97:\n      mload(0x40)\n      tag_99\n      swap2\n      swap1\n      tag_100\n      jump\t// in\n    tag_99:\n      mload(0x40)\n      dup1\n      swap2\n      sub\n      swap1\n      return\n        /* \"contracts/Database.sol\":5774:6009  function dislike_review(... */\n    tag_19:\n      tag_101\n      0x04\n      dup1\n      calldatasize\n      sub\n      dup2\n      add\n      swap1\n      tag_102\n      swap2\n      swap1\n      tag_34\n      jump\t// in\n    tag_102:\n      tag_103\n      jump\t// in\n    tag_101:\n      stop\n        /* \"contracts/Database.sol\":1038:1102  mapping(string => mapping(address => Review)) public userReviews */\n    tag_20:\n      tag_104\n      0x04\n      dup1\n      calldatasize\n      sub\n      dup2\n      add\n      swap1\n      tag_105\n      swap2\n      swap1\n      tag_106\n      jump\t// in\n    tag_105:\n      tag_107\n      jump\t// in\n    tag_104:\n      mload(0x40)\n      tag_108\n      swap6\n      swap5\n      swap4\n      swap3\n      swap2\n      swap1\n      tag_109\n      jump\t// in\n    tag_108:\n      mload(0x40)\n      dup1\n      swap2\n      sub\n      swap1\n      return\n        /* \"contracts/Database.sol\":1162:1224  mapping(address => mapping(string => bool)) public userActions */\n    tag_21:\n      tag_110\n      0x04\n      dup1\n      calldatasize\n      sub\n      dup2\n      add\n      swap1\n      tag_111\n      swap2\n      swap1\n      tag_34\n      jump\t// in\n    tag_111:\n      tag_112\n      jump\t// in\n    tag_110:\n      mload(0x40)\n      tag_113\n      swap2\n      swap1\n      tag_114\n      jump\t// in\n    tag_113:\n      mload(0x40)\n      dup1\n      swap2\n      sub\n      swap1\n      return\n        /* \"contracts/Database.sol\":753:794  mapping(address => uint) public shopDebts */\n    tag_22:\n      tag_115\n      0x04\n      dup1\n      calldatasize\n      sub\n      dup2\n      add\n      swap1\n      tag_116\n      swap2\n      swap1\n      tag_43\n      jump\t// in\n    tag_116:\n      tag_117\n      jump\t// in\n    tag_115:\n      mload(0x40)\n      tag_118\n      swap2\n      swap1\n      tag_119\n      jump\t// in\n    tag_118:\n      mload(0x40)\n      dup1\n      swap2\n      sub\n      swap1\n      return\n        /* \"contracts/Database.sol\":605:650  mapping(string => Request) public userRequest */\n    tag_23:\n      tag_120\n      0x04\n      dup1\n      calldatasize\n      sub\n      dup2\n      add\n      swap1\n      tag_121\n      swap2\n      swap1\n      tag_75\n      jump\t// in\n    tag_121:\n      tag_122\n      jump\t// in\n    tag_120:\n      mload(0x40)\n      tag_123\n      swap5\n      swap4\n      swap3\n      swap2\n      swap1\n      tag_124\n      jump\t// in\n    tag_123:\n      mload(0x40)\n      dup1\n      swap2\n      sub\n      swap1\n      return\n        /* \"contracts/Database.sol\":2861:3101  function add_shop(... */\n    tag_24:\n      tag_125\n      0x04\n      dup1\n      calldatasize\n      sub\n      dup2\n      add\n      swap1\n      tag_126\n      swap2\n      swap1\n      tag_127\n      jump\t// in\n    tag_126:\n      tag_128\n      jump\t// in\n    tag_125:\n      stop\n        /* \"contracts/Database.sol\":4199:4512  function create_request(... */\n    tag_25:\n      tag_129\n      0x04\n      dup1\n      calldatasize\n      sub\n      dup2\n      add\n      swap1\n      tag_130\n      swap2\n      swap1\n      tag_131\n      jump\t// in\n    tag_130:\n      tag_132\n      jump\t// in\n    tag_129:\n      stop\n        /* \"contracts/Database.sol\":4925:5347  function create_review(... */\n    tag_26:\n      tag_133\n      0x04\n      dup1\n      calldatasize\n      sub\n      dup2\n      add\n      swap1\n      tag_134\n      swap2\n      swap1\n      tag_135\n      jump\t// in\n    tag_134:\n      tag_136\n      jump\t// in\n    tag_133:\n      stop\n        /* \"contracts/Database.sol\":2154:2536  function register_seller(... */\n    tag_27:\n      tag_137\n      0x04\n      dup1\n      calldatasize\n      sub\n      dup2\n      add\n      swap1\n      tag_138\n      swap2\n      swap1\n      tag_139\n      jump\t// in\n    tag_138:\n      tag_140\n      jump\t// in\n    tag_137:\n      stop\n        /* \"contracts/Database.sol\":5539:5768  function like_review(... */\n    tag_35:\n        /* \"contracts/Database.sol\":5652:5663  userActions */\n      0x0b\n        /* \"contracts/Database.sol\":5652:5673  userActions[shopAddr] */\n      0x00\n        /* \"contracts/Database.sol\":5664:5672  shopAddr */\n      dup4\n        /* \"contracts/Database.sol\":5652:5673  userActions[shopAddr] */\n      0xffffffffffffffffffffffffffffffffffffffff\n      and\n      0xffffffffffffffffffffffffffffffffffffffff\n      and\n      dup2\n      mstore\n      0x20\n      add\n      swap1\n      dup2\n      mstore\n      0x20\n      add\n      0x00\n      keccak256\n        /* \"contracts/Database.sol\":5674:5684  autorLogin */\n      dup2\n        /* \"contracts/Database.sol\":5652:5685  userActions[shopAddr][autorLogin] */\n      mload(0x40)\n      tag_142\n      swap2\n      swap1\n      tag_143\n      jump\t// in\n    tag_142:\n      swap1\n      dup2\n      mstore\n      0x20\n      add\n      mload(0x40)\n      dup1\n      swap2\n      sub\n      swap1\n      keccak256\n      0x00\n      swap1\n      sload\n      swap1\n      0x0100\n      exp\n      swap1\n      div\n      0xff\n      and\n        /* \"contracts/Database.sol\":5651:5685  !userActions[shopAddr][autorLogin] */\n      iszero\n        /* \"contracts/Database.sol\":5643:5710  require(!userActions[shopAddr][autorLogin],\"You already do action\") */\n      tag_144\n      jumpi\n      mload(0x40)\n      0x08c379a000000000000000000000000000000000000000000000000000000000\n      dup2\n      mstore\n      0x04\n      add\n      tag_145\n      swap1\n      tag_146\n      jump\t// in\n    tag_145:\n      mload(0x40)\n      dup1\n      swap2\n      sub\n      swap1\n      revert\n    tag_144:\n        /* \"contracts/Database.sol\":5720:5731  userReviews */\n      0x0a\n        /* \"contracts/Database.sol\":5732:5742  autorLogin */\n      dup2\n        /* \"contracts/Database.sol\":5720:5743  userReviews[autorLogin] */\n      mload(0x40)\n      tag_147\n      swap2\n      swap1\n      tag_143\n      jump\t// in\n    tag_147:\n      swap1\n      dup2\n      mstore\n      0x20\n      add\n      mload(0x40)\n      dup1\n      swap2\n      sub\n      swap1\n      keccak256\n        /* \"contracts/Database.sol\":5720:5753  userReviews[autorLogin][shopAddr] */\n      0x00\n        /* \"contracts/Database.sol\":5744:5752  shopAddr */\n      dup4\n        /* \"contracts/Database.sol\":5720:5753  userReviews[autorLogin][shopAddr] */\n      0xffffffffffffffffffffffffffffffffffffffff\n      and\n      0xffffffffffffffffffffffffffffffffffffffff\n      and\n      dup2\n      mstore\n      0x20\n      add\n      swap1\n      dup2\n      mstore\n      0x20\n      add\n      0x00\n      keccak256\n        /* \"contracts/Database.sol\":5720:5759  userReviews[autorLogin][shopAddr].likes */\n      0x02\n      add\n      0x00\n        /* \"contracts/Database.sol\":5720:5761  userReviews[autorLogin][shopAddr].likes++ */\n      dup2\n      sload\n      dup1\n      swap3\n      swap2\n      swap1\n      tag_148\n      swap1\n      tag_149\n      jump\t// in\n    tag_148:\n      swap2\n      swap1\n      pop\n      sstore\n      pop\n        /* \"contracts/Database.sol\":5539:5768  function like_review(... */\n      pop\n      pop\n      jump\t// out\n        /* \"contracts/Database.sol\":5353:5533  function get_user_review(... */\n    tag_38:\n        /* \"contracts/Database.sol\":5463:5476  Review memory */\n      tag_150\n      tag_151\n      jump\t// in\n    tag_150:\n        /* \"contracts/Database.sol\":5494:5505  userReviews */\n      0x0a\n        /* \"contracts/Database.sol\":5506:5515  userLogin */\n      dup3\n        /* \"contracts/Database.sol\":5494:5516  userReviews[userLogin] */\n      mload(0x40)\n      tag_153\n      swap2\n      swap1\n      tag_143\n      jump\t// in\n    tag_153:\n      swap1\n      dup2\n      mstore\n      0x20\n      add\n      mload(0x40)\n      dup1\n      swap2\n      sub\n      swap1\n      keccak256\n        /* \"contracts/Database.sol\":5494:5526  userReviews[userLogin][shopAddr] */\n      0x00\n        /* \"contracts/Database.sol\":5517:5525  shopAddr */\n      dup5\n        /* \"contracts/Database.sol\":5494:5526  userReviews[userLogin][shopAddr] */\n      0xffffffffffffffffffffffffffffffffffffffff\n      and\n      0xffffffffffffffffffffffffffffffffffffffff\n      and\n      dup2\n      mstore\n      0x20\n      add\n      swap1\n      dup2\n      mstore\n      0x20\n      add\n      0x00\n      keccak256\n        /* \"contracts/Database.sol\":5487:5526  return userReviews[userLogin][shopAddr] */\n      mload(0x40)\n      dup1\n      0xa0\n      add\n      0x40\n      mstore\n      swap1\n      dup2\n      0x00\n      dup3\n      add\n      dup1\n      sload\n      tag_154\n      swap1\n      tag_155\n      jump\t// in\n    tag_154:\n      dup1\n      0x1f\n      add\n      0x20\n      dup1\n      swap2\n      div\n      mul\n      0x20\n      add\n      mload(0x40)\n      swap1\n      dup2\n      add\n      0x40\n      mstore\n      dup1\n      swap3\n      swap2\n      swap1\n      dup2\n      dup2\n      mstore\n      0x20\n      add\n      dup3\n      dup1\n      sload\n      tag_156\n      swap1\n      tag_155\n      jump\t// in\n    tag_156:\n      dup1\n      iszero\n      tag_157\n      jumpi\n      dup1\n      0x1f\n      lt\n      tag_158\n      jumpi\n      0x0100\n      dup1\n      dup4\n      sload\n      div\n      mul\n      dup4\n      mstore\n      swap2\n      0x20\n      add\n      swap2\n      jump(tag_157)\n    tag_158:\n      dup3\n      add\n      swap2\n      swap1\n      0x00\n      mstore\n      keccak256(0x00, 0x20)\n      swap1\n    tag_159:\n      dup2\n      sload\n      dup2\n      mstore\n      swap1\n      0x01\n      add\n      swap1\n      0x20\n      add\n      dup1\n      dup4\n      gt\n      tag_159\n      jumpi\n      dup3\n      swap1\n      sub\n      0x1f\n      and\n      dup3\n      add\n      swap2\n    tag_157:\n      pop\n      pop\n      pop\n      pop\n      pop\n      dup2\n      mstore\n      0x20\n      add\n      0x01\n      dup3\n      add\n      dup1\n      sload\n      tag_160\n      swap1\n      tag_155\n      jump\t// in\n    tag_160:\n      dup1\n      0x1f\n      add\n      0x20\n      dup1\n      swap2\n      div\n      mul\n      0x20\n      add\n      mload(0x40)\n      swap1\n      dup2\n      add\n      0x40\n      mstore\n      dup1\n      swap3\n      swap2\n      swap1\n      dup2\n      dup2\n      mstore\n      0x20\n      add\n      dup3\n      dup1\n      sload\n      tag_161\n      swap1\n      tag_155\n      jump\t// in\n    tag_161:\n      dup1\n      iszero\n      tag_162\n      jumpi\n      dup1\n      0x1f\n      lt\n      tag_163\n      jumpi\n      0x0100\n      dup1\n      dup4\n      sload\n      div\n      mul\n      dup4\n      mstore\n      swap2\n      0x20\n      add\n      swap2\n      jump(tag_162)\n    tag_163:\n      dup3\n      add\n      swap2\n      swap1\n      0x00\n      mstore\n      keccak256(0x00, 0x20)\n      swap1\n    tag_164:\n      dup2\n      sload\n      dup2\n      mstore\n      swap1\n      0x01\n      add\n      swap1\n      0x20\n      add\n      dup1\n      dup4\n      gt\n      tag_164\n      jumpi\n      dup3\n      swap1\n      sub\n      0x1f\n      and\n      dup3\n      add\n      swap2\n    tag_162:\n      pop\n      pop\n      pop\n      pop\n      pop\n      dup2\n      mstore\n      0x20\n      add\n      0x02\n      dup3\n      add\n      sload\n      dup2\n      mstore\n      0x20\n      add\n      0x03\n      dup3\n      add\n      sload\n      dup2\n      mstore\n      0x20\n      add\n      0x04\n      dup3\n      add\n      sload\n      dup2\n      mstore\n      pop\n      pop\n      swap1\n      pop\n        /* \"contracts/Database.sol\":5353:5533  function get_user_review(... */\n      swap3\n      swap2\n      pop\n      pop\n      jump\t// out\n        /* \"contracts/Database.sol\":882:919  mapping(address => Shop) public shops */\n    tag_44:\n      mstore(0x20, 0x08)\n      dup1\n      0x00\n      mstore\n      keccak256(0x00, 0x40)\n      0x00\n      swap2\n      pop\n      swap1\n      pop\n      dup1\n      0x00\n      add\n      dup1\n      sload\n      tag_165\n      swap1\n      tag_155\n      jump\t// in\n    tag_165:\n      dup1\n      0x1f\n      add\n      0x20\n      dup1\n      swap2\n      div\n      mul\n      0x20\n      add\n      mload(0x40)\n      swap1\n      dup2\n      add\n      0x40\n      mstore\n      dup1\n      swap3\n      swap2\n      swap1\n      dup2\n      dup2\n      mstore\n      0x20\n      add\n      dup3\n      dup1\n      sload\n      tag_166\n      swap1\n      tag_155\n      jump\t// in\n    tag_166:\n      dup1\n      iszero\n      tag_167\n      jumpi\n      dup1\n      0x1f\n      lt\n      tag_168\n      jumpi\n      0x0100\n      dup1\n      dup4\n      sload\n      div\n      mul\n      dup4\n      mstore\n      swap2\n      0x20\n      add\n      swap2\n      jump(tag_167)\n    tag_168:\n      dup3\n      add\n      swap2\n      swap1\n      0x00\n      mstore\n      keccak256(0x00, 0x20)\n      swap1\n    tag_169:\n      dup2\n      sload\n      dup2\n      mstore\n      swap1\n      0x01\n      add\n      swap1\n      0x20\n      add\n      dup1\n      dup4\n      gt\n      tag_169\n      jumpi\n      dup3\n      swap1\n      sub\n      0x1f\n      and\n      dup3\n      add\n      swap2\n    tag_167:\n      pop\n      pop\n      pop\n      pop\n      pop\n      swap1\n      dup1\n      0x01\n      add\n      dup1\n      sload\n      tag_170\n      swap1\n      tag_155\n      jump\t// in\n    tag_170:\n      dup1\n      0x1f\n      add\n      0x20\n      dup1\n      swap2\n      div\n      mul\n      0x20\n      add\n      mload(0x40)\n      swap1\n      dup2\n      add\n      0x40\n      mstore\n      dup1\n      swap3\n      swap2\n      swap1\n      dup2\n      dup2\n      mstore\n      0x20\n      add\n      dup3\n      dup1\n      sload\n      tag_171\n      swap1\n      tag_155\n      jump\t// in\n    tag_171:\n      dup1\n      iszero\n      tag_172\n      jumpi\n      dup1\n      0x1f\n      lt\n      tag_173\n      jumpi\n      0x0100\n      dup1\n      dup4\n      sload\n      div\n      mul\n      dup4\n      mstore\n      swap2\n      0x20\n      add\n      swap2\n      jump(tag_172)\n    tag_173:\n      dup3\n      add\n      swap2\n      swap1\n      0x00\n      mstore\n      keccak256(0x00, 0x20)\n      swap1\n    tag_174:\n      dup2\n      sload\n      dup2\n      mstore\n      swap1\n      0x01\n      add\n      swap1\n      0x20\n      add\n      dup1\n      dup4\n      gt\n      tag_174\n      jumpi\n      dup3\n      swap1\n      sub\n      0x1f\n      and\n      dup3\n      add\n      swap2\n    tag_172:\n      pop\n      pop\n      pop\n      pop\n      pop\n      swap1\n      pop\n      dup3\n      jump\t// out\n        /* \"contracts/Database.sol\":1806:2147  function register_admin(... */\n    tag_50:\n        /* \"contracts/Database.sol\":1994:1999  login */\n      dup4\n        /* \"contracts/Database.sol\":1392:1393  0 */\n      0x00\n        /* \"contracts/Database.sol\":1359:1394  users[login].userAddr == address(0) */\n      0xffffffffffffffffffffffffffffffffffffffff\n      and\n        /* \"contracts/Database.sol\":1359:1364  users */\n      0x03\n        /* \"contracts/Database.sol\":1365:1370  login */\n      dup3\n        /* \"contracts/Database.sol\":1359:1371  users[login] */\n      mload(0x40)\n      tag_176\n      swap2\n      swap1\n      tag_143\n      jump\t// in\n    tag_176:\n      swap1\n      dup2\n      mstore\n      0x20\n      add\n      mload(0x40)\n      dup1\n      swap2\n      sub\n      swap1\n      keccak256\n        /* \"contracts/Database.sol\":1359:1380  users[login].userAddr */\n      0x00\n      add\n      0x00\n      swap1\n      sload\n      swap1\n      0x0100\n      exp\n      swap1\n      div\n      0xffffffffffffffffffffffffffffffffffffffff\n      and\n        /* \"contracts/Database.sol\":1359:1394  users[login].userAddr == address(0) */\n      0xffffffffffffffffffffffffffffffffffffffff\n      and\n      eq\n        /* \"contracts/Database.sol\":1351:1417  require(users[login].userAddr == address(0),\"Login already exist\") */\n      tag_177\n      jumpi\n      mload(0x40)\n      0x08c379a000000000000000000000000000000000000000000000000000000000\n      dup2\n      mstore\n      0x04\n      add\n      tag_178\n      swap1\n      tag_179\n      jump\t// in\n    tag_178:\n      mload(0x40)\n      dup1\n      swap2\n      sub\n      swap1\n      revert\n    tag_177:\n        /* \"contracts/Database.sol\":2018:2024  admins */\n      0x00\n        /* \"contracts/Database.sol\":2030:2035  login */\n      dup6\n        /* \"contracts/Database.sol\":2018:2036  admins.push(login) */\n      swap1\n      dup1\n      0x01\n      dup2\n      sload\n      add\n      dup1\n      dup3\n      sstore\n      dup1\n      swap2\n      pop\n      pop\n      0x01\n      swap1\n      sub\n      swap1\n      0x00\n      mstore\n      keccak256(0x00, 0x20)\n      add\n      0x00\n      swap1\n      swap2\n      swap1\n      swap2\n      swap1\n      swap2\n      pop\n      swap1\n      dup1\n      mload\n      swap1\n      0x20\n      add\n      swap1\n      tag_182\n      swap3\n      swap2\n      swap1\n      tag_183\n      jump\t// in\n    tag_182:\n      pop\n        /* \"contracts/Database.sol\":2046:2065  User memory newUser */\n      0x00\n        /* \"contracts/Database.sol\":2068:2108  User(userAddr,login,password,fio,status) */\n      mload(0x40)\n      dup1\n      0xa0\n      add\n      0x40\n      mstore\n      dup1\n        /* \"contracts/Database.sol\":2073:2081  userAddr */\n      dup9\n        /* \"contracts/Database.sol\":2068:2108  User(userAddr,login,password,fio,status) */\n      0xffffffffffffffffffffffffffffffffffffffff\n      and\n      dup2\n      mstore\n      0x20\n      add\n        /* \"contracts/Database.sol\":2082:2087  login */\n      dup8\n        /* \"contracts/Database.sol\":2068:2108  User(userAddr,login,password,fio,status) */\n      dup2\n      mstore\n      0x20\n      add\n        /* \"contracts/Database.sol\":2088:2096  password */\n      dup7\n        /* \"contracts/Database.sol\":2068:2108  User(userAddr,login,password,fio,status) */\n      dup2\n      mstore\n      0x20\n      add\n        /* \"contracts/Database.sol\":2097:2100  fio */\n      dup6\n        /* \"contracts/Database.sol\":2068:2108  User(userAddr,login,password,fio,status) */\n      dup2\n      mstore\n      0x20\n      add\n        /* \"contracts/Database.sol\":2101:2107  status */\n      dup5\n        /* \"contracts/Database.sol\":2068:2108  User(userAddr,login,password,fio,status) */\n      dup2\n      mstore\n      pop\n        /* \"contracts/Database.sol\":2046:2108  User memory newUser = User(userAddr,login,password,fio,status) */\n      swap1\n      pop\n        /* \"contracts/Database.sol\":2133:2140  newUser */\n      dup1\n        /* \"contracts/Database.sol\":2118:2123  users */\n      0x03\n        /* \"contracts/Database.sol\":2124:2129  login */\n      dup8\n        /* \"contracts/Database.sol\":2118:2130  users[login] */\n      mload(0x40)\n      tag_184\n      swap2\n      swap1\n      tag_143\n      jump\t// in\n    tag_184:\n      swap1\n      dup2\n      mstore\n      0x20\n      add\n      mload(0x40)\n      dup1\n      swap2\n      sub\n      swap1\n      keccak256\n        /* \"contracts/Database.sol\":2118:2140  users[login] = newUser */\n      0x00\n      dup3\n      add\n      mload\n      dup2\n      0x00\n      add\n      exp(0x0100, 0x00)\n      dup2\n      sload\n      dup2\n      0xffffffffffffffffffffffffffffffffffffffff\n      mul\n      not\n      and\n      swap1\n      dup4\n      0xffffffffffffffffffffffffffffffffffffffff\n      and\n      mul\n      or\n      swap1\n      sstore\n      pop\n      0x20\n      dup3\n      add\n      mload\n      dup2\n      0x01\n      add\n      swap1\n      dup1\n      mload\n      swap1\n      0x20\n      add\n      swap1\n      tag_185\n      swap3\n      swap2\n      swap1\n      tag_183\n      jump\t// in\n    tag_185:\n      pop\n      0x40\n      dup3\n      add\n      mload\n      dup2\n      0x02\n      add\n      swap1\n      dup1\n      mload\n      swap1\n      0x20\n      add\n      swap1\n      tag_186\n      swap3\n      swap2\n      swap1\n      tag_183\n      jump\t// in\n    tag_186:\n      pop\n      0x60\n      dup3\n      add\n      mload\n      dup2\n      0x03\n      add\n      swap1\n      dup1\n      mload\n      swap1\n      0x20\n      add\n      swap1\n      tag_187\n      swap3\n      swap2\n      swap1\n      tag_183\n      jump\t// in\n    tag_187:\n      pop\n      0x80\n      dup3\n      add\n      mload\n      dup2\n      0x04\n      add\n      swap1\n      dup1\n      mload\n      swap1\n      0x20\n      add\n      swap1\n      tag_188\n      swap3\n      swap2\n      swap1\n      tag_183\n      jump\t// in\n    tag_188:\n      pop\n      swap1\n      pop\n      pop\n        /* \"contracts/Database.sol\":2008:2147  {... */\n      pop\n        /* \"contracts/Database.sol\":1806:2147  function register_admin(... */\n      pop\n      pop\n      pop\n      pop\n      pop\n      pop\n      jump\t// out\n        /* \"contracts/Database.sol\":4518:4617  function get_requests() public view returns(string[] memory){... */\n    tag_52:\n        /* \"contracts/Database.sol\":4562:4577  string[] memory */\n      0x60\n        /* \"contracts/Database.sol\":4595:4610  userRequestList */\n      0x05\n        /* \"contracts/Database.sol\":4588:4610  return userRequestList */\n      dup1\n      sload\n      dup1\n      0x20\n      mul\n      0x20\n      add\n      mload(0x40)\n      swap1\n      dup2\n      add\n      0x40\n      mstore\n      dup1\n      swap3\n      swap2\n      swap1\n      dup2\n      dup2\n      mstore\n      0x20\n      add\n      0x00\n      swap1\n    tag_190:\n      dup3\n      dup3\n      lt\n      iszero\n      tag_191\n      jumpi\n      dup4\n      dup3\n      swap1\n      0x00\n      mstore\n      keccak256(0x00, 0x20)\n      add\n      dup1\n      sload\n      tag_193\n      swap1\n      tag_155\n      jump\t// in\n    tag_193:\n      dup1\n      0x1f\n      add\n      0x20\n      dup1\n      swap2\n      div\n      mul\n      0x20\n      add\n      mload(0x40)\n      swap1\n      dup2\n      add\n      0x40\n      mstore\n      dup1\n      swap3\n      swap2\n      swap1\n      dup2\n      dup2\n      mstore\n      0x20\n      add\n      dup3\n      dup1\n      sload\n      tag_194\n      swap1\n      tag_155\n      jump\t// in\n    tag_194:\n      dup1\n      iszero\n      tag_195\n      jumpi\n      dup1\n      0x1f\n      lt\n      tag_196\n      jumpi\n      0x0100\n      dup1\n      dup4\n      sload\n      div\n      mul\n      dup4\n      mstore\n      swap2\n      0x20\n      add\n      swap2\n      jump(tag_195)\n    tag_196:\n      dup3\n      add\n      swap2\n      swap1\n      0x00\n      mstore\n      keccak256(0x00, 0x20)\n      swap1\n    tag_197:\n      dup2\n      sload\n      dup2\n      mstore\n      swap1\n      0x01\n      add\n      swap1\n      0x20\n      add\n      dup1\n      dup4\n      gt\n      tag_197\n      jumpi\n      dup3\n      swap1\n      sub\n      0x1f\n      and\n      dup3\n      add\n      swap2\n    tag_195:\n      pop\n      pop\n      pop\n      pop\n      pop\n      dup2\n      mstore\n      0x20\n      add\n      swap1\n      0x01\n      add\n      swap1\n      jump(tag_190)\n    tag_191:\n      pop\n      pop\n      pop\n      pop\n      swap1\n      pop\n        /* \"contracts/Database.sol\":4518:4617  function get_requests() public view returns(string[] memory){... */\n      swap1\n      jump\t// out\n        /* \"contracts/Database.sol\":3890:4193  function auth(... */\n    tag_58:\n        /* \"contracts/Database.sol\":3991:4002  User memory */\n      tag_198\n      tag_199\n      jump\t// in\n    tag_198:\n        /* \"contracts/Database.sol\":4013:4026  User memory u */\n      0x00\n        /* \"contracts/Database.sol\":4029:4034  users */\n      0x03\n        /* \"contracts/Database.sol\":4035:4040  login */\n      dup5\n        /* \"contracts/Database.sol\":4029:4041  users[login] */\n      mload(0x40)\n      tag_201\n      swap2\n      swap1\n      tag_143\n      jump\t// in\n    tag_201:\n      swap1\n      dup2\n      mstore\n      0x20\n      add\n      mload(0x40)\n      dup1\n      swap2\n      sub\n      swap1\n      keccak256\n        /* \"contracts/Database.sol\":4013:4041  User memory u = users[login] */\n      mload(0x40)\n      dup1\n      0xa0\n      add\n      0x40\n      mstore\n      swap1\n      dup2\n      0x00\n      dup3\n      add\n      0x00\n      swap1\n      sload\n      swap1\n      0x0100\n      exp\n      swap1\n      div\n      0xffffffffffffffffffffffffffffffffffffffff\n      and\n      0xffffffffffffffffffffffffffffffffffffffff\n      and\n      0xffffffffffffffffffffffffffffffffffffffff\n      and\n      dup2\n      mstore\n      0x20\n      add\n      0x01\n      dup3\n      add\n      dup1\n      sload\n      tag_202\n      swap1\n      tag_155\n      jump\t// in\n    tag_202:\n      dup1\n      0x1f\n      add\n      0x20\n      dup1\n      swap2\n      div\n      mul\n      0x20\n      add\n      mload(0x40)\n      swap1\n      dup2\n      add\n      0x40\n      mstore\n      dup1\n      swap3\n      swap2\n      swap1\n      dup2\n      dup2\n      mstore\n      0x20\n      add\n      dup3\n      dup1\n      sload\n      tag_203\n      swap1\n      tag_155\n      jump\t// in\n    tag_203:\n      dup1\n      iszero\n      tag_204\n      jumpi\n      dup1\n      0x1f\n      lt\n      tag_205\n      jumpi\n      0x0100\n      dup1\n      dup4\n      sload\n      div\n      mul\n      dup4\n      mstore\n      swap2\n      0x20\n      add\n      swap2\n      jump(tag_204)\n    tag_205:\n      dup3\n      add\n      swap2\n      swap1\n      0x00\n      mstore\n      keccak256(0x00, 0x20)\n      swap1\n    tag_206:\n      dup2\n      sload\n      dup2\n      mstore\n      swap1\n      0x01\n      add\n      swap1\n      0x20\n      add\n      dup1\n      dup4\n      gt\n      tag_206\n      jumpi\n      dup3\n      swap1\n      sub\n      0x1f\n      and\n      dup3\n      add\n      swap2\n    tag_204:\n      pop\n      pop\n      pop\n      pop\n      pop\n      dup2\n      mstore\n      0x20\n      add\n      0x02\n      dup3\n      add\n      dup1\n      sload\n      tag_207\n      swap1\n      tag_155\n      jump\t// in\n    tag_207:\n      dup1\n      0x1f\n      add\n      0x20\n      dup1\n      swap2\n      div\n      mul\n      0x20\n      add\n      mload(0x40)\n      swap1\n      dup2\n      add\n      0x40\n      mstore\n      dup1\n      swap3\n      swap2\n      swap1\n      dup2\n      dup2\n      mstore\n      0x20\n      add\n      dup3\n      dup1\n      sload\n      tag_208\n      swap1\n      tag_155\n      jump\t// in\n    tag_208:\n      dup1\n      iszero\n      tag_209\n      jumpi\n      dup1\n      0x1f\n      lt\n      tag_210\n      jumpi\n      0x0100\n      dup1\n      dup4\n      sload\n      div\n      mul\n      dup4\n      mstore\n      swap2\n      0x20\n      add\n      swap2\n      jump(tag_209)\n    tag_210:\n      dup3\n      add\n      swap2\n      swap1\n      0x00\n      mstore\n      keccak256(0x00, 0x20)\n      swap1\n    tag_211:\n      dup2\n      sload\n      dup2\n      mstore\n      swap1\n      0x01\n      add\n      swap1\n      0x20\n      add\n      dup1\n      dup4\n      gt\n      tag_211\n      jumpi\n      dup3\n      swap1\n      sub\n      0x1f\n      and\n      dup3\n      add\n      swap2\n    tag_209:\n      pop\n      pop\n      pop\n      pop\n      pop\n      dup2\n      mstore\n      0x20\n      add\n      0x03\n      dup3\n      add\n      dup1\n      sload\n      tag_212\n      swap1\n      tag_155\n      jump\t// in\n    tag_212:\n      dup1\n      0x1f\n      add\n      0x20\n      dup1\n      swap2\n      div\n      mul\n      0x20\n      add\n      mload(0x40)\n      swap1\n      dup2\n      add\n      0x40\n      mstore\n      dup1\n      swap3\n      swap2\n      swap1\n      dup2\n      dup2\n      mstore\n      0x20\n      add\n      dup3\n      dup1\n      sload\n      tag_213\n      swap1\n      tag_155\n      jump\t// in\n    tag_213:\n      dup1\n      iszero\n      tag_214\n      jumpi\n      dup1\n      0x1f\n      lt\n      tag_215\n      jumpi\n      0x0100\n      dup1\n      dup4\n      sload\n      div\n      mul\n      dup4\n      mstore\n      swap2\n      0x20\n      add\n      swap2\n      jump(tag_214)\n    tag_215:\n      dup3\n      add\n      swap2\n      swap1\n      0x00\n      mstore\n      keccak256(0x00, 0x20)\n      swap1\n    tag_216:\n      dup2\n      sload\n      dup2\n      mstore\n      swap1\n      0x01\n      add\n      swap1\n      0x20\n      add\n      dup1\n      dup4\n      gt\n      tag_216\n      jumpi\n      dup3\n      swap1\n      sub\n      0x1f\n      and\n      dup3\n      add\n      swap2\n    tag_214:\n      pop\n      pop\n      pop\n      pop\n      pop\n      dup2\n      mstore\n      0x20\n      add\n      0x04\n      dup3\n      add\n      dup1\n      sload\n      tag_217\n      swap1\n      tag_155\n      jump\t// in\n    tag_217:\n      dup1\n      0x1f\n      add\n      0x20\n      dup1\n      swap2\n      div\n      mul\n      0x20\n      add\n      mload(0x40)\n      swap1\n      dup2\n      add\n      0x40\n      mstore\n      dup1\n      swap3\n      swap2\n      swap1\n      dup2\n      dup2\n      mstore\n      0x20\n      add\n      dup3\n      dup1\n      sload\n      tag_218\n      swap1\n      tag_155\n      jump\t// in\n    tag_218:\n      dup1\n      iszero\n      tag_219\n      jumpi\n      dup1\n      0x1f\n      lt\n      tag_220\n      jumpi\n      0x0100\n      dup1\n      dup4\n      sload\n      div\n      mul\n      dup4\n      mstore\n      swap2\n      0x20\n      add\n      swap2\n      jump(tag_219)\n    tag_220:\n      dup3\n      add\n      swap2\n      swap1\n      0x00\n      mstore\n      keccak256(0x00, 0x20)\n      swap1\n    tag_221:\n      dup2\n      sload\n      dup2\n      mstore\n      swap1\n      0x01\n      add\n      swap1\n      0x20\n      add\n      dup1\n      dup4\n      gt\n      tag_221\n      jumpi\n      dup3\n      swap1\n      sub\n      0x1f\n      and\n      dup3\n      add\n      swap2\n    tag_219:\n      pop\n      pop\n      pop\n      pop\n      pop\n      dup2\n      mstore\n      pop\n      pop\n      swap1\n      pop\n        /* \"contracts/Database.sol\":4081:4082  0 */\n      0x00\n        /* \"contracts/Database.sol\":4059:4083  u.userAddr != address(0) */\n      0xffffffffffffffffffffffffffffffffffffffff\n      and\n        /* \"contracts/Database.sol\":4059:4060  u */\n      dup2\n        /* \"contracts/Database.sol\":4059:4069  u.userAddr */\n      0x00\n      add\n      mload\n        /* \"contracts/Database.sol\":4059:4083  u.userAddr != address(0) */\n      0xffffffffffffffffffffffffffffffffffffffff\n      and\n      eq\n      iszero\n        /* \"contracts/Database.sol\":4051:4104  require(u.userAddr != address(0),\"User doesnt exist\") */\n      tag_222\n      jumpi\n      mload(0x40)\n      0x08c379a000000000000000000000000000000000000000000000000000000000\n      dup2\n      mstore\n      0x04\n      add\n      tag_223\n      swap1\n      tag_224\n      jump\t// in\n    tag_223:\n      mload(0x40)\n      dup1\n      swap2\n      sub\n      swap1\n      revert\n    tag_222:\n        /* \"contracts/Database.sol\":4122:4150  compare(u.password,password) */\n      tag_225\n        /* \"contracts/Database.sol\":4130:4131  u */\n      dup2\n        /* \"contracts/Database.sol\":4130:4140  u.password */\n      0x40\n      add\n      mload\n        /* \"contracts/Database.sol\":4141:4149  password */\n      dup5\n        /* \"contracts/Database.sol\":4122:4129  compare */\n      tag_226\n        /* \"contracts/Database.sol\":4122:4150  compare(u.password,password) */\n      jump\t// in\n    tag_225:\n        /* \"contracts/Database.sol\":4114:4168  require(compare(u.password,password),\"Wrong password\") */\n      tag_227\n      jumpi\n      mload(0x40)\n      0x08c379a000000000000000000000000000000000000000000000000000000000\n      dup2\n      mstore\n      0x04\n      add\n      tag_228\n      swap1\n      tag_229\n      jump\t// in\n    tag_228:\n      mload(0x40)\n      dup1\n      swap2\n      sub\n      swap1\n      revert\n    tag_227:\n        /* \"contracts/Database.sol\":4185:4186  u */\n      dup1\n        /* \"contracts/Database.sol\":4178:4186  return u */\n      swap2\n      pop\n      pop\n        /* \"contracts/Database.sol\":3890:4193  function auth(... */\n      swap3\n      swap2\n      pop\n      pop\n      jump\t// out\n        /* \"contracts/Database.sol\":3107:3664  function delete_shop(address shopAddr) public {... */\n    tag_63:\n        /* \"contracts/Database.sol\":3172:3206  compare(shops[shopAddr].number,\"\") */\n      tag_231\n        /* \"contracts/Database.sol\":3180:3185  shops */\n      0x08\n        /* \"contracts/Database.sol\":3180:3195  shops[shopAddr] */\n      0x00\n        /* \"contracts/Database.sol\":3186:3194  shopAddr */\n      dup4\n        /* \"contracts/Database.sol\":3180:3195  shops[shopAddr] */\n      0xffffffffffffffffffffffffffffffffffffffff\n      and\n      0xffffffffffffffffffffffffffffffffffffffff\n      and\n      dup2\n      mstore\n      0x20\n      add\n      swap1\n      dup2\n      mstore\n      0x20\n      add\n      0x00\n      keccak256\n        /* \"contracts/Database.sol\":3180:3202  shops[shopAddr].number */\n      0x00\n      add\n        /* \"contracts/Database.sol\":3172:3206  compare(shops[shopAddr].number,\"\") */\n      dup1\n      sload\n      tag_232\n      swap1\n      tag_155\n      jump\t// in\n    tag_232:\n      dup1\n      0x1f\n      add\n      0x20\n      dup1\n      swap2\n      div\n      mul\n      0x20\n      add\n      mload(0x40)\n      swap1\n      dup2\n      add\n      0x40\n      mstore\n      dup1\n      swap3\n      swap2\n      swap1\n      dup2\n      dup2\n      mstore\n      0x20\n      add\n      dup3\n      dup1\n      sload\n      tag_233\n      swap1\n      tag_155\n      jump\t// in\n    tag_233:\n      dup1\n      iszero\n      tag_234\n      jumpi\n      dup1\n      0x1f\n      lt\n      tag_235\n      jumpi\n      0x0100\n      dup1\n      dup4\n      sload\n      div\n      mul\n      dup4\n      mstore\n      swap2\n      0x20\n      add\n      swap2\n      jump(tag_234)\n    tag_235:\n      dup3\n      add\n      swap2\n      swap1\n      0x00\n      mstore\n      keccak256(0x00, 0x20)\n      swap1\n    tag_236:\n      dup2\n      sload\n      dup2\n      mstore\n      swap1\n      0x01\n      add\n      swap1\n      0x20\n      add\n      dup1\n      dup4\n      gt\n      tag_236\n      jumpi\n      dup3\n      swap1\n      sub\n      0x1f\n      and\n      dup3\n      add\n      swap2\n    tag_234:\n      pop\n      pop\n      pop\n      pop\n      pop\n      mload(0x40)\n      dup1\n      0x20\n      add\n      0x40\n      mstore\n      dup1\n      0x00\n      dup2\n      mstore\n      pop\n        /* \"contracts/Database.sol\":3172:3179  compare */\n      tag_226\n        /* \"contracts/Database.sol\":3172:3206  compare(shops[shopAddr].number,\"\") */\n      jump\t// in\n    tag_231:\n        /* \"contracts/Database.sol\":3171:3206  !compare(shops[shopAddr].number,\"\") */\n      iszero\n        /* \"contracts/Database.sol\":3163:3227  require(!compare(shops[shopAddr].number,\"\"),\"Shop doesnt exist\") */\n      tag_237\n      jumpi\n      mload(0x40)\n      0x08c379a000000000000000000000000000000000000000000000000000000000\n      dup2\n      mstore\n      0x04\n      add\n      tag_238\n      swap1\n      tag_239\n      jump\t// in\n    tag_238:\n      mload(0x40)\n      dup1\n      swap2\n      sub\n      swap1\n      revert\n    tag_237:\n        /* \"contracts/Database.sol\":3237:3247  uint index */\n      0x00\n        /* \"contracts/Database.sol\":3262:3268  uint i */\n      dup1\n        /* \"contracts/Database.sol\":3257:3388  for (uint i; i<shopsAddr.length;i++){... */\n    tag_240:\n        /* \"contracts/Database.sol\":3272:3281  shopsAddr */\n      0x01\n        /* \"contracts/Database.sol\":3272:3288  shopsAddr.length */\n      dup1\n      sload\n      swap1\n      pop\n        /* \"contracts/Database.sol\":3270:3271  i */\n      dup2\n        /* \"contracts/Database.sol\":3270:3288  i<shopsAddr.length */\n      lt\n        /* \"contracts/Database.sol\":3257:3388  for (uint i; i<shopsAddr.length;i++){... */\n      iszero\n      tag_241\n      jumpi\n        /* \"contracts/Database.sol\":3327:3335  shopAddr */\n      dup3\n        /* \"contracts/Database.sol\":3311:3335  shopsAddr[i] == shopAddr */\n      0xffffffffffffffffffffffffffffffffffffffff\n      and\n        /* \"contracts/Database.sol\":3311:3320  shopsAddr */\n      0x01\n        /* \"contracts/Database.sol\":3321:3322  i */\n      dup3\n        /* \"contracts/Database.sol\":3311:3323  shopsAddr[i] */\n      dup2\n      sload\n      dup2\n      lt\n      tag_243\n      jumpi\n      tag_244\n      tag_245\n      jump\t// in\n    tag_244:\n    tag_243:\n      swap1\n      0x00\n      mstore\n      keccak256(0x00, 0x20)\n      add\n      0x00\n      swap1\n      sload\n      swap1\n      0x0100\n      exp\n      swap1\n      div\n      0xffffffffffffffffffffffffffffffffffffffff\n      and\n        /* \"contracts/Database.sol\":3311:3335  shopsAddr[i] == shopAddr */\n      0xffffffffffffffffffffffffffffffffffffffff\n      and\n      eq\n        /* \"contracts/Database.sol\":3307:3378  if (shopsAddr[i] == shopAddr){... */\n      iszero\n      tag_247\n      jumpi\n        /* \"contracts/Database.sol\":3362:3363  i */\n      dup1\n        /* \"contracts/Database.sol\":3354:3363  index = i */\n      swap2\n      pop\n        /* \"contracts/Database.sol\":3307:3378  if (shopsAddr[i] == shopAddr){... */\n    tag_247:\n        /* \"contracts/Database.sol\":3289:3292  i++ */\n      dup1\n      dup1\n      tag_248\n      swap1\n      tag_149\n      jump\t// in\n    tag_248:\n      swap2\n      pop\n      pop\n        /* \"contracts/Database.sol\":3257:3388  for (uint i; i<shopsAddr.length;i++){... */\n      jump(tag_240)\n    tag_241:\n      pop\n        /* \"contracts/Database.sol\":3416:3425  shopsAddr */\n      0x01\n        /* \"contracts/Database.sol\":3445:3446  1 */\n      dup1\n        /* \"contracts/Database.sol\":3426:3435  shopsAddr */\n      dup1\n        /* \"contracts/Database.sol\":3426:3442  shopsAddr.length */\n      dup1\n      sload\n      swap1\n      pop\n        /* \"contracts/Database.sol\":3426:3446  shopsAddr.length - 1 */\n      tag_249\n      swap2\n      swap1\n      tag_250\n      jump\t// in\n    tag_249:\n        /* \"contracts/Database.sol\":3416:3447  shopsAddr[shopsAddr.length - 1] */\n      dup2\n      sload\n      dup2\n      lt\n      tag_251\n      jumpi\n      tag_252\n      tag_245\n      jump\t// in\n    tag_252:\n    tag_251:\n      swap1\n      0x00\n      mstore\n      keccak256(0x00, 0x20)\n      add\n      0x00\n      swap1\n      sload\n      swap1\n      0x0100\n      exp\n      swap1\n      div\n      0xffffffffffffffffffffffffffffffffffffffff\n      and\n        /* \"contracts/Database.sol\":3397:3406  shopsAddr */\n      0x01\n        /* \"contracts/Database.sol\":3407:3412  index */\n      dup3\n        /* \"contracts/Database.sol\":3397:3413  shopsAddr[index] */\n      dup2\n      sload\n      dup2\n      lt\n      tag_254\n      jumpi\n      tag_255\n      tag_245\n      jump\t// in\n    tag_255:\n    tag_254:\n      swap1\n      0x00\n      mstore\n      keccak256(0x00, 0x20)\n      add\n      0x00\n        /* \"contracts/Database.sol\":3397:3447  shopsAddr[index] = shopsAddr[shopsAddr.length - 1] */\n      0x0100\n      exp\n      dup2\n      sload\n      dup2\n      0xffffffffffffffffffffffffffffffffffffffff\n      mul\n      not\n      and\n      swap1\n      dup4\n      0xffffffffffffffffffffffffffffffffffffffff\n      and\n      mul\n      or\n      swap1\n      sstore\n      pop\n        /* \"contracts/Database.sol\":3457:3466  shopsAddr */\n      0x01\n        /* \"contracts/Database.sol\":3457:3472  shopsAddr.pop() */\n      dup1\n      sload\n      dup1\n      tag_257\n      jumpi\n      tag_258\n      tag_259\n      jump\t// in\n    tag_258:\n    tag_257:\n      0x01\n      swap1\n      sub\n      dup2\n      dup2\n      swap1\n      0x00\n      mstore\n      keccak256(0x00, 0x20)\n      add\n      exp(0x0100, 0x00)\n      dup2\n      sload\n      swap1\n      0xffffffffffffffffffffffffffffffffffffffff\n      mul\n      not\n      and\n      swap1\n      sstore\n      swap1\n      sstore\n        /* \"contracts/Database.sol\":3487:3493  uint i */\n      0x00\n        /* \"contracts/Database.sol\":3482:3658  for (uint i; i<shopSellers[shopAddr].length; i++){... */\n    tag_261:\n        /* \"contracts/Database.sol\":3497:3508  shopSellers */\n      0x07\n        /* \"contracts/Database.sol\":3497:3518  shopSellers[shopAddr] */\n      0x00\n        /* \"contracts/Database.sol\":3509:3517  shopAddr */\n      dup5\n        /* \"contracts/Database.sol\":3497:3518  shopSellers[shopAddr] */\n      0xffffffffffffffffffffffffffffffffffffffff\n      and\n      0xffffffffffffffffffffffffffffffffffffffff\n      and\n      dup2\n      mstore\n      0x20\n      add\n      swap1\n      dup2\n      mstore\n      0x20\n      add\n      0x00\n      keccak256\n        /* \"contracts/Database.sol\":3497:3525  shopSellers[shopAddr].length */\n      dup1\n      sload\n      swap1\n      pop\n        /* \"contracts/Database.sol\":3495:3496  i */\n      dup2\n        /* \"contracts/Database.sol\":3495:3525  i<shopSellers[shopAddr].length */\n      lt\n        /* \"contracts/Database.sol\":3482:3658  for (uint i; i<shopSellers[shopAddr].length; i++){... */\n      iszero\n      tag_262\n      jumpi\n        /* \"contracts/Database.sol\":3545:3570  string memory sellerLogin */\n      0x00\n        /* \"contracts/Database.sol\":3573:3584  shopSellers */\n      0x07\n        /* \"contracts/Database.sol\":3573:3594  shopSellers[shopAddr] */\n      0x00\n        /* \"contracts/Database.sol\":3585:3593  shopAddr */\n      dup6\n        /* \"contracts/Database.sol\":3573:3594  shopSellers[shopAddr] */\n      0xffffffffffffffffffffffffffffffffffffffff\n      and\n      0xffffffffffffffffffffffffffffffffffffffff\n      and\n      dup2\n      mstore\n      0x20\n      add\n      swap1\n      dup2\n      mstore\n      0x20\n      add\n      0x00\n      keccak256\n        /* \"contracts/Database.sol\":3595:3596  i */\n      dup3\n        /* \"contracts/Database.sol\":3573:3597  shopSellers[shopAddr][i] */\n      dup2\n      sload\n      dup2\n      lt\n      tag_264\n      jumpi\n      tag_265\n      tag_245\n      jump\t// in\n    tag_265:\n    tag_264:\n      swap1\n      0x00\n      mstore\n      keccak256(0x00, 0x20)\n      add\n        /* \"contracts/Database.sol\":3545:3597  string memory sellerLogin = shopSellers[shopAddr][i] */\n      dup1\n      sload\n      tag_267\n      swap1\n      tag_155\n      jump\t// in\n    tag_267:\n      dup1\n      0x1f\n      add\n      0x20\n      dup1\n      swap2\n      div\n      mul\n      0x20\n      add\n      mload(0x40)\n      swap1\n      dup2\n      add\n      0x40\n      mstore\n      dup1\n      swap3\n      swap2\n      swap1\n      dup2\n      dup2\n      mstore\n      0x20\n      add\n      dup3\n      dup1\n      sload\n      tag_268\n      swap1\n      tag_155\n      jump\t// in\n    tag_268:\n      dup1\n      iszero\n      tag_269\n      jumpi\n      dup1\n      0x1f\n      lt\n      tag_270\n      jumpi\n      0x0100\n      dup1\n      dup4\n      sload\n      div\n      mul\n      dup4\n      mstore\n      swap2\n      0x20\n      add\n      swap2\n      jump(tag_269)\n    tag_270:\n      dup3\n      add\n      swap2\n      swap1\n      0x00\n      mstore\n      keccak256(0x00, 0x20)\n      swap1\n    tag_271:\n      dup2\n      sload\n      dup2\n      mstore\n      swap1\n      0x01\n      add\n      swap1\n      0x20\n      add\n      dup1\n      dup4\n      gt\n      tag_271\n      jumpi\n      dup3\n      swap1\n      sub\n      0x1f\n      and\n      dup3\n      add\n      swap2\n    tag_269:\n      pop\n      pop\n      pop\n      pop\n      pop\n      swap1\n      pop\n        /* \"contracts/Database.sol\":3611:3646  users[sellerLogin].status = \"buyer\" */\n      mload(0x40)\n      dup1\n      0x40\n      add\n      0x40\n      mstore\n      dup1\n      0x05\n      dup2\n      mstore\n      0x20\n      add\n      0x6275796572000000000000000000000000000000000000000000000000000000\n      dup2\n      mstore\n      pop\n        /* \"contracts/Database.sol\":3611:3616  users */\n      0x03\n        /* \"contracts/Database.sol\":3617:3628  sellerLogin */\n      dup3\n        /* \"contracts/Database.sol\":3611:3629  users[sellerLogin] */\n      mload(0x40)\n      tag_272\n      swap2\n      swap1\n      tag_143\n      jump\t// in\n    tag_272:\n      swap1\n      dup2\n      mstore\n      0x20\n      add\n      mload(0x40)\n      dup1\n      swap2\n      sub\n      swap1\n      keccak256\n        /* \"contracts/Database.sol\":3611:3636  users[sellerLogin].status */\n      0x04\n      add\n        /* \"contracts/Database.sol\":3611:3646  users[sellerLogin].status = \"buyer\" */\n      swap1\n      dup1\n      mload\n      swap1\n      0x20\n      add\n      swap1\n      tag_273\n      swap3\n      swap2\n      swap1\n      tag_183\n      jump\t// in\n    tag_273:\n      pop\n        /* \"contracts/Database.sol\":3531:3658  {... */\n      pop\n        /* \"contracts/Database.sol\":3527:3530  i++ */\n      dup1\n      dup1\n      tag_274\n      swap1\n      tag_149\n      jump\t// in\n    tag_274:\n      swap2\n      pop\n      pop\n        /* \"contracts/Database.sol\":3482:3658  for (uint i; i<shopSellers[shopAddr].length; i++){... */\n      jump(tag_261)\n    tag_262:\n      pop\n        /* \"contracts/Database.sol\":3153:3664  {... */\n      pop\n        /* \"contracts/Database.sol\":3107:3664  function delete_shop(address shopAddr) public {... */\n      pop\n      jump\t// out\n        /* \"contracts/Database.sol\":950:998  mapping(address => string[]) public shopsReviews */\n    tag_67:\n      mstore(0x20, 0x09)\n      dup2\n      0x00\n      mstore\n      keccak256(0x00, 0x40)\n      dup2\n      dup2\n      sload\n      dup2\n      lt\n      tag_275\n      jumpi\n      0x00\n      dup1\n      revert\n    tag_275:\n      swap1\n      0x00\n      mstore\n      keccak256(0x00, 0x20)\n      add\n      0x00\n      swap2\n      pop\n      swap2\n      pop\n      pop\n      dup1\n      sload\n      tag_277\n      swap1\n      tag_155\n      jump\t// in\n    tag_277:\n      dup1\n      0x1f\n      add\n      0x20\n      dup1\n      swap2\n      div\n      mul\n      0x20\n      add\n      mload(0x40)\n      swap1\n      dup2\n      add\n      0x40\n      mstore\n      dup1\n      swap3\n      swap2\n      swap1\n      dup2\n      dup2\n      mstore\n      0x20\n      add\n      dup3\n      dup1\n      sload\n      tag_278\n      swap1\n      tag_155\n      jump\t// in\n    tag_278:\n      dup1\n      iszero\n      tag_279\n      jumpi\n      dup1\n      0x1f\n      lt\n      tag_280\n      jumpi\n      0x0100\n      dup1\n      dup4\n      sload\n      div\n      mul\n      dup4\n      mstore\n      swap2\n      0x20\n      add\n      swap2\n      jump(tag_279)\n    tag_280:\n      dup3\n      add\n      swap2\n      swap1\n      0x00\n      mstore\n      keccak256(0x00, 0x20)\n      swap1\n    tag_281:\n      dup2\n      sload\n      dup2\n      mstore\n      swap1\n      0x01\n      add\n      swap1\n      0x20\n      add\n      dup1\n      dup4\n      gt\n      tag_281\n      jumpi\n      dup3\n      swap1\n      sub\n      0x1f\n      and\n      dup3\n      add\n      swap2\n    tag_279:\n      pop\n      pop\n      pop\n      pop\n      pop\n      dup2\n      jump\t// out\n        /* \"contracts/Database.sol\":2542:2855  function register_buyer(... */\n    tag_72:\n        /* \"contracts/Database.sol\":2737:2742  login */\n      dup4\n        /* \"contracts/Database.sol\":1392:1393  0 */\n      0x00\n        /* \"contracts/Database.sol\":1359:1394  users[login].userAddr == address(0) */\n      0xffffffffffffffffffffffffffffffffffffffff\n      and\n        /* \"contracts/Database.sol\":1359:1364  users */\n      0x03\n        /* \"contracts/Database.sol\":1365:1370  login */\n      dup3\n        /* \"contracts/Database.sol\":1359:1371  users[login] */\n      mload(0x40)\n      tag_283\n      swap2\n      swap1\n      tag_143\n      jump\t// in\n    tag_283:\n      swap1\n      dup2\n      mstore\n      0x20\n      add\n      mload(0x40)\n      dup1\n      swap2\n      sub\n      swap1\n      keccak256\n        /* \"contracts/Database.sol\":1359:1380  users[login].userAddr */\n      0x00\n      add\n      0x00\n      swap1\n      sload\n      swap1\n      0x0100\n      exp\n      swap1\n      div\n      0xffffffffffffffffffffffffffffffffffffffff\n      and\n        /* \"contracts/Database.sol\":1359:1394  users[login].userAddr == address(0) */\n      0xffffffffffffffffffffffffffffffffffffffff\n      and\n      eq\n        /* \"contracts/Database.sol\":1351:1417  require(users[login].userAddr == address(0),\"Login already exist\") */\n      tag_284\n      jumpi\n      mload(0x40)\n      0x08c379a000000000000000000000000000000000000000000000000000000000\n      dup2\n      mstore\n      0x04\n      add\n      tag_285\n      swap1\n      tag_179\n      jump\t// in\n    tag_285:\n      mload(0x40)\n      dup1\n      swap2\n      sub\n      swap1\n      revert\n    tag_284:\n        /* \"contracts/Database.sol\":2754:2773  User memory newUser */\n      0x00\n        /* \"contracts/Database.sol\":2776:2816  User(userAddr,login,password,fio,status) */\n      mload(0x40)\n      dup1\n      0xa0\n      add\n      0x40\n      mstore\n      dup1\n        /* \"contracts/Database.sol\":2781:2789  userAddr */\n      dup9\n        /* \"contracts/Database.sol\":2776:2816  User(userAddr,login,password,fio,status) */\n      0xffffffffffffffffffffffffffffffffffffffff\n      and\n      dup2\n      mstore\n      0x20\n      add\n        /* \"contracts/Database.sol\":2790:2795  login */\n      dup8\n        /* \"contracts/Database.sol\":2776:2816  User(userAddr,login,password,fio,status) */\n      dup2\n      mstore\n      0x20\n      add\n        /* \"contracts/Database.sol\":2796:2804  password */\n      dup7\n        /* \"contracts/Database.sol\":2776:2816  User(userAddr,login,password,fio,status) */\n      dup2\n      mstore\n      0x20\n      add\n        /* \"contracts/Database.sol\":2805:2808  fio */\n      dup6\n        /* \"contracts/Database.sol\":2776:2816  User(userAddr,login,password,fio,status) */\n      dup2\n      mstore\n      0x20\n      add\n        /* \"contracts/Database.sol\":2809:2815  status */\n      dup5\n        /* \"contracts/Database.sol\":2776:2816  User(userAddr,login,password,fio,status) */\n      dup2\n      mstore\n      pop\n        /* \"contracts/Database.sol\":2754:2816  User memory newUser = User(userAddr,login,password,fio,status) */\n      swap1\n      pop\n        /* \"contracts/Database.sol\":2841:2848  newUser */\n      dup1\n        /* \"contracts/Database.sol\":2826:2831  users */\n      0x03\n        /* \"contracts/Database.sol\":2832:2837  login */\n      dup8\n        /* \"contracts/Database.sol\":2826:2838  users[login] */\n      mload(0x40)\n      tag_287\n      swap2\n      swap1\n      tag_143\n      jump\t// in\n    tag_287:\n      swap1\n      dup2\n      mstore\n      0x20\n      add\n      mload(0x40)\n      dup1\n      swap2\n      sub\n      swap1\n      keccak256\n        /* \"contracts/Database.sol\":2826:2848  users[login] = newUser */\n      0x00\n      dup3\n      add\n      mload\n      dup2\n      0x00\n      add\n      exp(0x0100, 0x00)\n      dup2\n      sload\n      dup2\n      0xffffffffffffffffffffffffffffffffffffffff\n      mul\n      not\n      and\n      swap1\n      dup4\n      0xffffffffffffffffffffffffffffffffffffffff\n      and\n      mul\n      or\n      swap1\n      sstore\n      pop\n      0x20\n      dup3\n      add\n      mload\n      dup2\n      0x01\n      add\n      swap1\n      dup1\n      mload\n      swap1\n      0x20\n      add\n      swap1\n      tag_288\n      swap3\n      swap2\n      swap1\n      tag_183\n      jump\t// in\n    tag_288:\n      pop\n      0x40\n      dup3\n      add\n      mload\n      dup2\n      0x02\n      add\n      swap1\n      dup1\n      mload\n      swap1\n      0x20\n      add\n      swap1\n      tag_289\n      swap3\n      swap2\n      swap1\n      tag_183\n      jump\t// in\n    tag_289:\n      pop\n      0x60\n      dup3\n      add\n      mload\n      dup2\n      0x03\n      add\n      swap1\n      dup1\n      mload\n      swap1\n      0x20\n      add\n      swap1\n      tag_290\n      swap3\n      swap2\n      swap1\n      tag_183\n      jump\t// in\n    tag_290:\n      pop\n      0x80\n      dup3\n      add\n      mload\n      dup2\n      0x04\n      add\n      swap1\n      dup1\n      mload\n      swap1\n      0x20\n      add\n      swap1\n      tag_291\n      swap3\n      swap2\n      swap1\n      tag_183\n      jump\t// in\n    tag_291:\n      pop\n      swap1\n      pop\n      pop\n        /* \"contracts/Database.sol\":2744:2855  {... */\n      pop\n        /* \"contracts/Database.sol\":2542:2855  function register_buyer(... */\n      pop\n      pop\n      pop\n      pop\n      pop\n      pop\n      jump\t// out\n        /* \"contracts/Database.sol\":541:577  mapping(string => User) public users */\n    tag_76:\n      0x03\n      dup2\n      dup1\n      mload\n      0x20\n      dup2\n      add\n      dup3\n      add\n      dup1\n      mload\n      dup5\n      dup3\n      mstore\n      0x20\n      dup4\n      add\n      0x20\n      dup6\n      add\n      keccak256\n      dup2\n      dup4\n      mstore\n      dup1\n      swap6\n      pop\n      pop\n      pop\n      pop\n      pop\n      pop\n      0x00\n      swap2\n      pop\n      swap1\n      pop\n      dup1\n      0x00\n      add\n      0x00\n      swap1\n      sload\n      swap1\n      0x0100\n      exp\n      swap1\n      div\n      0xffffffffffffffffffffffffffffffffffffffff\n      and\n      swap1\n      dup1\n      0x01\n      add\n      dup1\n      sload\n      tag_292\n      swap1\n      tag_155\n      jump\t// in\n    tag_292:\n      dup1\n      0x1f\n      add\n      0x20\n      dup1\n      swap2\n      div\n      mul\n      0x20\n      add\n      mload(0x40)\n      swap1\n      dup2\n      add\n      0x40\n      mstore\n      dup1\n      swap3\n      swap2\n      swap1\n      dup2\n      dup2\n      mstore\n      0x20\n      add\n      dup3\n      dup1\n      sload\n      tag_293\n      swap1\n      tag_155\n      jump\t// in\n    tag_293:\n      dup1\n      iszero\n      tag_294\n      jumpi\n      dup1\n      0x1f\n      lt\n      tag_295\n      jumpi\n      0x0100\n      dup1\n      dup4\n      sload\n      div\n      mul\n      dup4\n      mstore\n      swap2\n      0x20\n      add\n      swap2\n      jump(tag_294)\n    tag_295:\n      dup3\n      add\n      swap2\n      swap1\n      0x00\n      mstore\n      keccak256(0x00, 0x20)\n      swap1\n    tag_296:\n      dup2\n      sload\n      dup2\n      mstore\n      swap1\n      0x01\n      add\n      swap1\n      0x20\n      add\n      dup1\n      dup4\n      gt\n      tag_296\n      jumpi\n      dup3\n      swap1\n      sub\n      0x1f\n      and\n      dup3\n      add\n      swap2\n    tag_294:\n      pop\n      pop\n      pop\n      pop\n      pop\n      swap1\n      dup1\n      0x02\n      add\n      dup1\n      sload\n      tag_297\n      swap1\n      tag_155\n      jump\t// in\n    tag_297:\n      dup1\n      0x1f\n      add\n      0x20\n      dup1\n      swap2\n      div\n      mul\n      0x20\n      add\n      mload(0x40)\n      swap1\n      dup2\n      add\n      0x40\n      mstore\n      dup1\n      swap3\n      swap2\n      swap1\n      dup2\n      dup2\n      mstore\n      0x20\n      add\n      dup3\n      dup1\n      sload\n      tag_298\n      swap1\n      tag_155\n      jump\t// in\n    tag_298:\n      dup1\n      iszero\n      tag_299\n      jumpi\n      dup1\n      0x1f\n      lt\n      tag_300\n      jumpi\n      0x0100\n      dup1\n      dup4\n      sload\n      div\n      mul\n      dup4\n      mstore\n      swap2\n      0x20\n      add\n      swap2\n      jump(tag_299)\n    tag_300:\n      dup3\n      add\n      swap2\n      swap1\n      0x00\n      mstore\n      keccak256(0x00, 0x20)\n      swap1\n    tag_301:\n      dup2\n      sload\n      dup2\n      mstore\n      swap1\n      0x01\n      add\n      swap1\n      0x20\n      add\n      dup1\n      dup4\n      gt\n      tag_301\n      jumpi\n      dup3\n      swap1\n      sub\n      0x1f\n      and\n      dup3\n      add\n      swap2\n    tag_299:\n      pop\n      pop\n      pop\n      pop\n      pop\n      swap1\n      dup1\n      0x03\n      add\n      dup1\n      sload\n      tag_302\n      swap1\n      tag_155\n      jump\t// in\n    tag_302:\n      dup1\n      0x1f\n      add\n      0x20\n      dup1\n      swap2\n      div\n      mul\n      0x20\n      add\n      mload(0x40)\n      swap1\n      dup2\n      add\n      0x40\n      mstore\n      dup1\n      swap3\n      swap2\n      swap1\n      dup2\n      dup2\n      mstore\n      0x20\n      add\n      dup3\n      dup1\n      sload\n      tag_303\n      swap1\n      tag_155\n      jump\t// in\n    tag_303:\n      dup1\n      iszero\n      tag_304\n      jumpi\n      dup1\n      0x1f\n      lt\n      tag_305\n      jumpi\n      0x0100\n      dup1\n      dup4\n      sload\n      div\n      mul\n      dup4\n      mstore\n      swap2\n      0x20\n      add\n      swap2\n      jump(tag_304)\n    tag_305:\n      dup3\n      add\n      swap2\n      swap1\n      0x00\n      mstore\n      keccak256(0x00, 0x20)\n      swap1\n    tag_306:\n      dup2\n      sload\n      dup2\n      mstore\n      swap1\n      0x01\n      add\n      swap1\n      0x20\n      add\n      dup1\n      dup4\n      gt\n      tag_306\n      jumpi\n      dup3\n      swap1\n      sub\n      0x1f\n      and\n      dup3\n      add\n      swap2\n    tag_304:\n      pop\n      pop\n      pop\n      pop\n      pop\n      swap1\n      dup1\n      0x04\n      add\n      dup1\n      sload\n      tag_307\n      swap1\n      tag_155\n      jump\t// in\n    tag_307:\n      dup1\n      0x1f\n      add\n      0x20\n      dup1\n      swap2\n      div\n      mul\n      0x20\n      add\n      mload(0x40)\n      swap1\n      dup2\n      add\n      0x40\n      mstore\n      dup1\n      swap3\n      swap2\n      swap1\n      dup2\n      dup2\n      mstore\n      0x20\n      add\n      dup3\n      dup1\n      sload\n      tag_308\n      swap1\n      tag_155\n      jump\t// in\n    tag_308:\n      dup1\n      iszero\n      tag_309\n      jumpi\n      dup1\n      0x1f\n      lt\n      tag_310\n      jumpi\n      0x0100\n      dup1\n      dup4\n      sload\n      div\n      mul\n      dup4\n      mstore\n      swap2\n      0x20\n      add\n      swap2\n      jump(tag_309)\n    tag_310:\n      dup3\n      add\n      swap2\n      swap1\n      0x00\n      mstore\n      keccak256(0x00, 0x20)\n      swap1\n    tag_311:\n      dup2\n      sload\n      dup2\n      mstore\n      swap1\n      0x01\n      add\n      swap1\n      0x20\n      add\n      dup1\n      dup4\n      gt\n      tag_311\n      jumpi\n      dup3\n      swap1\n      sub\n      0x1f\n      and\n      dup3\n      add\n      swap2\n    tag_309:\n      pop\n      pop\n      pop\n      pop\n      pop\n      swap1\n      pop\n      dup6\n      jump\t// out\n        /* \"contracts/Database.sol\":515:534  address public bank */\n    tag_80:\n      0x02\n      0x00\n      swap1\n      sload\n      swap1\n      0x0100\n      exp\n      swap1\n      div\n      0xffffffffffffffffffffffffffffffffffffffff\n      and\n      dup2\n      jump\t// out\n        /* \"contracts/Database.sol\":801:848  mapping(address => string[]) public shopSellers */\n    tag_85:\n      mstore(0x20, 0x07)\n      dup2\n      0x00\n      mstore\n      keccak256(0x00, 0x40)\n      dup2\n      dup2\n      sload\n      dup2\n      lt\n      tag_312\n      jumpi\n      0x00\n      dup1\n      revert\n    tag_312:\n      swap1\n      0x00\n      mstore\n      keccak256(0x00, 0x20)\n      add\n      0x00\n      swap2\n      pop\n      swap2\n      pop\n      pop\n      dup1\n      sload\n      tag_314\n      swap1\n      tag_155\n      jump\t// in\n    tag_314:\n      dup1\n      0x1f\n      add\n      0x20\n      dup1\n      swap2\n      div\n      mul\n      0x20\n      add\n      mload(0x40)\n      swap1\n      dup2\n      add\n      0x40\n      mstore\n      dup1\n      swap3\n      swap2\n      swap1\n      dup2\n      dup2\n      mstore\n      0x20\n      add\n      dup3\n      dup1\n      sload\n      tag_315\n      swap1\n      tag_155\n      jump\t// in\n    tag_315:\n      dup1\n      iszero\n      tag_316\n      jumpi\n      dup1\n      0x1f\n      lt\n      tag_317\n      jumpi\n      0x0100\n      dup1\n      dup4\n      sload\n      div\n      mul\n      dup4\n      mstore\n      swap2\n      0x20\n      add\n      swap2\n      jump(tag_316)\n    tag_317:\n      dup3\n      add\n      swap2\n      swap1\n      0x00\n      mstore\n      keccak256(0x00, 0x20)\n      swap1\n    tag_318:\n      dup2\n      sload\n      dup2\n      mstore\n      swap1\n      0x01\n      add\n      swap1\n      0x20\n      add\n      dup1\n      dup4\n      gt\n      tag_318\n      jumpi\n      dup3\n      swap1\n      sub\n      0x1f\n      and\n      dup3\n      add\n      swap2\n    tag_316:\n      pop\n      pop\n      pop\n      pop\n      pop\n      dup2\n      jump\t// out\n        /* \"contracts/Database.sol\":3670:3884  function give_shop_money(... */\n    tag_89:\n        /* \"contracts/Database.sol\":3766:3770  bank */\n      0x02\n      0x00\n      swap1\n      sload\n      swap1\n      0x0100\n      exp\n      swap1\n      div\n      0xffffffffffffffffffffffffffffffffffffffff\n      and\n        /* \"contracts/Database.sol\":3752:3770  msg.sender == bank */\n      0xffffffffffffffffffffffffffffffffffffffff\n      and\n        /* \"contracts/Database.sol\":3752:3762  msg.sender */\n      caller\n        /* \"contracts/Database.sol\":3752:3770  msg.sender == bank */\n      0xffffffffffffffffffffffffffffffffffffffff\n      and\n      eq\n        /* \"contracts/Database.sol\":3744:3786  require(msg.sender == bank,\"You not bank\") */\n      tag_320\n      jumpi\n      mload(0x40)\n      0x08c379a000000000000000000000000000000000000000000000000000000000\n      dup2\n      mstore\n      0x04\n      add\n      tag_321\n      swap1\n      tag_322\n      jump\t// in\n    tag_321:\n      mload(0x40)\n      dup1\n      swap2\n      sub\n      swap1\n      revert\n    tag_320:\n        /* \"contracts/Database.sol\":3804:3812  shopAddr */\n      dup1\n        /* \"contracts/Database.sol\":3796:3822  payable(shopAddr).transfer */\n      0xffffffffffffffffffffffffffffffffffffffff\n      and\n        /* \"contracts/Database.sol\":3796:3834  payable(shopAddr).transfer(1000 ether) */\n      0x08fc\n        /* \"contracts/Database.sol\":3823:3833  1000 ether */\n      0x3635c9adc5dea00000\n        /* \"contracts/Database.sol\":3796:3834  payable(shopAddr).transfer(1000 ether) */\n      swap1\n      dup2\n      iszero\n      mul\n      swap1\n      mload(0x40)\n      0x00\n      mload(0x40)\n      dup1\n      dup4\n      sub\n      dup2\n      dup6\n      dup9\n      dup9\n      call\n      swap4\n      pop\n      pop\n      pop\n      pop\n      iszero\n      dup1\n      iszero\n      tag_324\n      jumpi\n      returndatasize\n      0x00\n      dup1\n      returndatacopy\n      revert(0x00, returndatasize)\n    tag_324:\n      pop\n        /* \"contracts/Database.sol\":3867:3877  1000 ether */\n      0x3635c9adc5dea00000\n        /* \"contracts/Database.sol\":3844:3853  shopDebts */\n      0x06\n        /* \"contracts/Database.sol\":3844:3863  shopDebts[shopAddr] */\n      0x00\n        /* \"contracts/Database.sol\":3854:3862  shopAddr */\n      dup4\n        /* \"contracts/Database.sol\":3844:3863  shopDebts[shopAddr] */\n      0xffffffffffffffffffffffffffffffffffffffff\n      and\n      0xffffffffffffffffffffffffffffffffffffffff\n      and\n      dup2\n      mstore\n      0x20\n      add\n      swap1\n      dup2\n      mstore\n      0x20\n      add\n      0x00\n      keccak256\n      0x00\n        /* \"contracts/Database.sol\":3844:3877  shopDebts[shopAddr] += 1000 ether */\n      dup3\n      dup3\n      sload\n      tag_325\n      swap2\n      swap1\n      tag_326\n      jump\t// in\n    tag_325:\n      swap3\n      pop\n      pop\n      dup2\n      swap1\n      sstore\n      pop\n        /* \"contracts/Database.sol\":3670:3884  function give_shop_money(... */\n      pop\n      jump\t// out\n        /* \"contracts/Database.sol\":1616:1704  function get_admins() public view returns(string[] memory){... */\n    tag_91:\n        /* \"contracts/Database.sol\":1658:1673  string[] memory */\n      0x60\n        /* \"contracts/Database.sol\":1691:1697  admins */\n      0x00\n        /* \"contracts/Database.sol\":1684:1697  return admins */\n      dup1\n      sload\n      dup1\n      0x20\n      mul\n      0x20\n      add\n      mload(0x40)\n      swap1\n      dup2\n      add\n      0x40\n      mstore\n      dup1\n      swap3\n      swap2\n      swap1\n      dup2\n      dup2\n      mstore\n      0x20\n      add\n      0x00\n      swap1\n    tag_328:\n      dup3\n      dup3\n      lt\n      iszero\n      tag_329\n      jumpi\n      dup4\n      dup3\n      swap1\n      0x00\n      mstore\n      keccak256(0x00, 0x20)\n      add\n      dup1\n      sload\n      tag_331\n      swap1\n      tag_155\n      jump\t// in\n    tag_331:\n      dup1\n      0x1f\n      add\n      0x20\n      dup1\n      swap2\n      div\n      mul\n      0x20\n      add\n      mload(0x40)\n      swap1\n      dup2\n      add\n      0x40\n      mstore\n      dup1\n      swap3\n      swap2\n      swap1\n      dup2\n      dup2\n      mstore\n      0x20\n      add\n      dup3\n      dup1\n      sload\n      tag_332\n      swap1\n      tag_155\n      jump\t// in\n    tag_332:\n      dup1\n      iszero\n      tag_333\n      jumpi\n      dup1\n      0x1f\n      lt\n      tag_334\n      jumpi\n      0x0100\n      dup1\n      dup4\n      sload\n      div\n      mul\n      dup4\n      mstore\n      swap2\n      0x20\n      add\n      swap2\n      jump(tag_333)\n    tag_334:\n      dup3\n      add\n      swap2\n      swap1\n      0x00\n      mstore\n      keccak256(0x00, 0x20)\n      swap1\n    tag_335:\n      dup2\n      sload\n      dup2\n      mstore\n      swap1\n      0x01\n      add\n      swap1\n      0x20\n      add\n      dup1\n      dup4\n      gt\n      tag_335\n      jumpi\n      dup3\n      swap1\n      sub\n      0x1f\n      and\n      dup3\n      add\n      swap2\n    tag_333:\n      pop\n      pop\n      pop\n      pop\n      pop\n      dup2\n      mstore\n      0x20\n      add\n      swap1\n      0x01\n      add\n      swap1\n      jump(tag_328)\n    tag_329:\n      pop\n      pop\n      pop\n      pop\n      swap1\n      pop\n        /* \"contracts/Database.sol\":1616:1704  function get_admins() public view returns(string[] memory){... */\n      swap1\n      jump\t// out\n        /* \"contracts/Database.sol\":4623:4919  function check_request(... */\n    tag_96:\n        /* \"contracts/Database.sol\":4725:4743  Request memory req */\n      0x00\n        /* \"contracts/Database.sol\":4746:4757  userRequest */\n      0x04\n        /* \"contracts/Database.sol\":4758:4767  userLogin */\n      dup4\n        /* \"contracts/Database.sol\":4746:4768  userRequest[userLogin] */\n      mload(0x40)\n      tag_337\n      swap2\n      swap1\n      tag_143\n      jump\t// in\n    tag_337:\n      swap1\n      dup2\n      mstore\n      0x20\n      add\n      mload(0x40)\n      dup1\n      swap2\n      sub\n      swap1\n      keccak256\n        /* \"contracts/Database.sol\":4725:4768  Request memory req = userRequest[userLogin] */\n      mload(0x40)\n      dup1\n      0x80\n      add\n      0x40\n      mstore\n      swap1\n      dup2\n      0x00\n      dup3\n      add\n      dup1\n      sload\n      tag_338\n      swap1\n      tag_155\n      jump\t// in\n    tag_338:\n      dup1\n      0x1f\n      add\n      0x20\n      dup1\n      swap2\n      div\n      mul\n      0x20\n      add\n      mload(0x40)\n      swap1\n      dup2\n      add\n      0x40\n      mstore\n      dup1\n      swap3\n      swap2\n      swap1\n      dup2\n      dup2\n      mstore\n      0x20\n      add\n      dup3\n      dup1\n      sload\n      tag_339\n      swap1\n      tag_155\n      jump\t// in\n    tag_339:\n      dup1\n      iszero\n      tag_340\n      jumpi\n      dup1\n      0x1f\n      lt\n      tag_341\n      jumpi\n      0x0100\n      dup1\n      dup4\n      sload\n      div\n      mul\n      dup4\n      mstore\n      swap2\n      0x20\n      add\n      swap2\n      jump(tag_340)\n    tag_341:\n      dup3\n      add\n      swap2\n      swap1\n      0x00\n      mstore\n      keccak256(0x00, 0x20)\n      swap1\n    tag_342:\n      dup2\n      sload\n      dup2\n      mstore\n      swap1\n      0x01\n      add\n      swap1\n      0x20\n      add\n      dup1\n      dup4\n      gt\n      tag_342\n      jumpi\n      dup3\n      swap1\n      sub\n      0x1f\n      and\n      dup3\n      add\n      swap2\n    tag_340:\n      pop\n      pop\n      pop\n      pop\n      pop\n      dup2\n      mstore\n      0x20\n      add\n      0x01\n      dup3\n      add\n      dup1\n      sload\n      tag_343\n      swap1\n      tag_155\n      jump\t// in\n    tag_343:\n      dup1\n      0x1f\n      add\n      0x20\n      dup1\n      swap2\n      div\n      mul\n      0x20\n      add\n      mload(0x40)\n      swap1\n      dup2\n      add\n      0x40\n      mstore\n      dup1\n      swap3\n      swap2\n      swap1\n      dup2\n      dup2\n      mstore\n      0x20\n      add\n      dup3\n      dup1\n      sload\n      tag_344\n      swap1\n      tag_155\n      jump\t// in\n    tag_344:\n      dup1\n      iszero\n      tag_345\n      jumpi\n      dup1\n      0x1f\n      lt\n      tag_346\n      jumpi\n      0x0100\n      dup1\n      dup4\n      sload\n      div\n      mul\n      dup4\n      mstore\n      swap2\n      0x20\n      add\n      swap2\n      jump(tag_345)\n    tag_346:\n      dup3\n      add\n      swap2\n      swap1\n      0x00\n      mstore\n      keccak256(0x00, 0x20)\n      swap1\n    tag_347:\n      dup2\n      sload\n      dup2\n      mstore\n      swap1\n      0x01\n      add\n      swap1\n      0x20\n      add\n      dup1\n      dup4\n      gt\n      tag_347\n      jumpi\n      dup3\n      swap1\n      sub\n      0x1f\n      and\n      dup3\n      add\n      swap2\n    tag_345:\n      pop\n      pop\n      pop\n      pop\n      pop\n      dup2\n      mstore\n      0x20\n      add\n      0x02\n      dup3\n      add\n      dup1\n      sload\n      tag_348\n      swap1\n      tag_155\n      jump\t// in\n    tag_348:\n      dup1\n      0x1f\n      add\n      0x20\n      dup1\n      swap2\n      div\n      mul\n      0x20\n      add\n      mload(0x40)\n      swap1\n      dup2\n      add\n      0x40\n      mstore\n      dup1\n      swap3\n      swap2\n      swap1\n      dup2\n      dup2\n      mstore\n      0x20\n      add\n      dup3\n      dup1\n      sload\n      tag_349\n      swap1\n      tag_155\n      jump\t// in\n    tag_349:\n      dup1\n      iszero\n      tag_350\n      jumpi\n      dup1\n      0x1f\n      lt\n      tag_351\n      jumpi\n      0x0100\n      dup1\n      dup4\n      sload\n      div\n      mul\n      dup4\n      mstore\n      swap2\n      0x20\n      add\n      swap2\n      jump(tag_350)\n    tag_351:\n      dup3\n      add\n      swap2\n      swap1\n      0x00\n      mstore\n      keccak256(0x00, 0x20)\n      swap1\n    tag_352:\n      dup2\n      sload\n      dup2\n      mstore\n      swap1\n      0x01\n      add\n      swap1\n      0x20\n      add\n      dup1\n      dup4\n      gt\n      tag_352\n      jumpi\n      dup3\n      swap1\n      sub\n      0x1f\n      and\n      dup3\n      add\n      swap2\n    tag_350:\n      pop\n      pop\n      pop\n      pop\n      pop\n      dup2\n      mstore\n      0x20\n      add\n      0x03\n      dup3\n      add\n      0x00\n      swap1\n      sload\n      swap1\n      0x0100\n      exp\n      swap1\n      div\n      0xff\n      and\n      iszero\n      iszero\n      iszero\n      iszero\n      dup2\n      mstore\n      pop\n      pop\n      swap1\n      pop\n        /* \"contracts/Database.sol\":4782:4790  isAccept */\n      dup2\n        /* \"contracts/Database.sol\":4778:4857  if (isAccept){... */\n      iszero\n      tag_353\n      jumpi\n        /* \"contracts/Database.sol\":4831:4834  req */\n      dup1\n        /* \"contracts/Database.sol\":4831:4846  req.desiredRole */\n      0x40\n      add\n      mload\n        /* \"contracts/Database.sol\":4805:4810  users */\n      0x03\n        /* \"contracts/Database.sol\":4811:4820  userLogin */\n      dup5\n        /* \"contracts/Database.sol\":4805:4821  users[userLogin] */\n      mload(0x40)\n      tag_354\n      swap2\n      swap1\n      tag_143\n      jump\t// in\n    tag_354:\n      swap1\n      dup2\n      mstore\n      0x20\n      add\n      mload(0x40)\n      dup1\n      swap2\n      sub\n      swap1\n      keccak256\n        /* \"contracts/Database.sol\":4805:4828  users[userLogin].status */\n      0x04\n      add\n        /* \"contracts/Database.sol\":4805:4846  users[userLogin].status = req.desiredRole */\n      swap1\n      dup1\n      mload\n      swap1\n      0x20\n      add\n      swap1\n      tag_355\n      swap3\n      swap2\n      swap1\n      tag_183\n      jump\t// in\n    tag_355:\n      pop\n        /* \"contracts/Database.sol\":4778:4857  if (isAccept){... */\n    tag_353:\n        /* \"contracts/Database.sol\":4899:4903  true */\n      0x01\n        /* \"contracts/Database.sol\":4866:4877  userRequest */\n      0x04\n        /* \"contracts/Database.sol\":4878:4887  userLogin */\n      dup5\n        /* \"contracts/Database.sol\":4866:4888  userRequest[userLogin] */\n      mload(0x40)\n      tag_356\n      swap2\n      swap1\n      tag_143\n      jump\t// in\n    tag_356:\n      swap1\n      dup2\n      mstore\n      0x20\n      add\n      mload(0x40)\n      dup1\n      swap2\n      sub\n      swap1\n      keccak256\n        /* \"contracts/Database.sol\":4866:4896  userRequest[userLogin].checked */\n      0x03\n      add\n      0x00\n        /* \"contracts/Database.sol\":4866:4903  userRequest[userLogin].checked = true */\n      0x0100\n      exp\n      dup2\n      sload\n      dup2\n      0xff\n      mul\n      not\n      and\n      swap1\n      dup4\n      iszero\n      iszero\n      mul\n      or\n      swap1\n      sstore\n      pop\n        /* \"contracts/Database.sol\":4715:4919  {... */\n      pop\n        /* \"contracts/Database.sol\":4623:4919  function check_request(... */\n      pop\n      pop\n      jump\t// out\n        /* \"contracts/Database.sol\":1709:1800  function get_shops() public view returns(address[] memory){... */\n    tag_98:\n        /* \"contracts/Database.sol\":1750:1766  address[] memory */\n      0x60\n        /* \"contracts/Database.sol\":1784:1793  shopsAddr */\n      0x01\n        /* \"contracts/Database.sol\":1777:1793  return shopsAddr */\n      dup1\n      sload\n      dup1\n      0x20\n      mul\n      0x20\n      add\n      mload(0x40)\n      swap1\n      dup2\n      add\n      0x40\n      mstore\n      dup1\n      swap3\n      swap2\n      swap1\n      dup2\n      dup2\n      mstore\n      0x20\n      add\n      dup3\n      dup1\n      sload\n      dup1\n      iszero\n      tag_358\n      jumpi\n      0x20\n      mul\n      dup3\n      add\n      swap2\n      swap1\n      0x00\n      mstore\n      keccak256(0x00, 0x20)\n      swap1\n    tag_359:\n      dup2\n      0x00\n      swap1\n      sload\n      swap1\n      0x0100\n      exp\n      swap1\n      div\n      0xffffffffffffffffffffffffffffffffffffffff\n      and\n      0xffffffffffffffffffffffffffffffffffffffff\n      and\n      dup2\n      mstore\n      0x20\n      add\n      swap1\n      0x01\n      add\n      swap1\n      dup1\n      dup4\n      gt\n      tag_359\n      jumpi\n    tag_358:\n      pop\n      pop\n      pop\n      pop\n      pop\n      swap1\n      pop\n        /* \"contracts/Database.sol\":1709:1800  function get_shops() public view returns(address[] memory){... */\n      swap1\n      jump\t// out\n        /* \"contracts/Database.sol\":5774:6009  function dislike_review(... */\n    tag_103:\n        /* \"contracts/Database.sol\":5890:5901  userActions */\n      0x0b\n        /* \"contracts/Database.sol\":5890:5911  userActions[shopAddr] */\n      0x00\n        /* \"contracts/Database.sol\":5902:5910  shopAddr */\n      dup4\n        /* \"contracts/Database.sol\":5890:5911  userActions[shopAddr] */\n      0xffffffffffffffffffffffffffffffffffffffff\n      and\n      0xffffffffffffffffffffffffffffffffffffffff\n      and\n      dup2\n      mstore\n      0x20\n      add\n      swap1\n      dup2\n      mstore\n      0x20\n      add\n      0x00\n      keccak256\n        /* \"contracts/Database.sol\":5912:5922  autorLogin */\n      dup2\n        /* \"contracts/Database.sol\":5890:5923  userActions[shopAddr][autorLogin] */\n      mload(0x40)\n      tag_361\n      swap2\n      swap1\n      tag_143\n      jump\t// in\n    tag_361:\n      swap1\n      dup2\n      mstore\n      0x20\n      add\n      mload(0x40)\n      dup1\n      swap2\n      sub\n      swap1\n      keccak256\n      0x00\n      swap1\n      sload\n      swap1\n      0x0100\n      exp\n      swap1\n      div\n      0xff\n      and\n        /* \"contracts/Database.sol\":5889:5923  !userActions[shopAddr][autorLogin] */\n      iszero\n        /* \"contracts/Database.sol\":5881:5948  require(!userActions[shopAddr][autorLogin],\"You already do action\") */\n      tag_362\n      jumpi\n      mload(0x40)\n      0x08c379a000000000000000000000000000000000000000000000000000000000\n      dup2\n      mstore\n      0x04\n      add\n      tag_363\n      swap1\n      tag_146\n      jump\t// in\n    tag_363:\n      mload(0x40)\n      dup1\n      swap2\n      sub\n      swap1\n      revert\n    tag_362:\n        /* \"contracts/Database.sol\":5958:5969  userReviews */\n      0x0a\n        /* \"contracts/Database.sol\":5970:5980  autorLogin */\n      dup2\n        /* \"contracts/Database.sol\":5958:5981  userReviews[autorLogin] */\n      mload(0x40)\n      tag_364\n      swap2\n      swap1\n      tag_143\n      jump\t// in\n    tag_364:\n      swap1\n      dup2\n      mstore\n      0x20\n      add\n      mload(0x40)\n      dup1\n      swap2\n      sub\n      swap1\n      keccak256\n        /* \"contracts/Database.sol\":5958:5991  userReviews[autorLogin][shopAddr] */\n      0x00\n        /* \"contracts/Database.sol\":5982:5990  shopAddr */\n      dup4\n        /* \"contracts/Database.sol\":5958:5991  userReviews[autorLogin][shopAddr] */\n      0xffffffffffffffffffffffffffffffffffffffff\n      and\n      0xffffffffffffffffffffffffffffffffffffffff\n      and\n      dup2\n      mstore\n      0x20\n      add\n      swap1\n      dup2\n      mstore\n      0x20\n      add\n      0x00\n      keccak256\n        /* \"contracts/Database.sol\":5958:6000  userReviews[autorLogin][shopAddr].dislikes */\n      0x03\n      add\n      0x00\n        /* \"contracts/Database.sol\":5958:6002  userReviews[autorLogin][shopAddr].dislikes++ */\n      dup2\n      sload\n      dup1\n      swap3\n      swap2\n      swap1\n      tag_365\n      swap1\n      tag_149\n      jump\t// in\n    tag_365:\n      swap2\n      swap1\n      pop\n      sstore\n      pop\n        /* \"contracts/Database.sol\":5774:6009  function dislike_review(... */\n      pop\n      pop\n      jump\t// out\n        /* \"contracts/Database.sol\":1038:1102  mapping(string => mapping(address => Review)) public userReviews */\n    tag_107:\n      0x0a\n      dup3\n      dup1\n      mload\n      0x20\n      dup2\n      add\n      dup3\n      add\n      dup1\n      mload\n      dup5\n      dup3\n      mstore\n      0x20\n      dup4\n      add\n      0x20\n      dup6\n      add\n      keccak256\n      dup2\n      dup4\n      mstore\n      dup1\n      swap6\n      pop\n      pop\n      pop\n      pop\n      pop\n      pop\n      0x20\n      mstore\n      dup1\n      0x00\n      mstore\n      keccak256(0x00, 0x40)\n      0x00\n      swap2\n      pop\n      swap2\n      pop\n      pop\n      dup1\n      0x00\n      add\n      dup1\n      sload\n      tag_366\n      swap1\n      tag_155\n      jump\t// in\n    tag_366:\n      dup1\n      0x1f\n      add\n      0x20\n      dup1\n      swap2\n      div\n      mul\n      0x20\n      add\n      mload(0x40)\n      swap1\n      dup2\n      add\n      0x40\n      mstore\n      dup1\n      swap3\n      swap2\n      swap1\n      dup2\n      dup2\n      mstore\n      0x20\n      add\n      dup3\n      dup1\n      sload\n      tag_367\n      swap1\n      tag_155\n      jump\t// in\n    tag_367:\n      dup1\n      iszero\n      tag_368\n      jumpi\n      dup1\n      0x1f\n      lt\n      tag_369\n      jumpi\n      0x0100\n      dup1\n      dup4\n      sload\n      div\n      mul\n      dup4\n      mstore\n      swap2\n      0x20\n      add\n      swap2\n      jump(tag_368)\n    tag_369:\n      dup3\n      add\n      swap2\n      swap1\n      0x00\n      mstore\n      keccak256(0x00, 0x20)\n      swap1\n    tag_370:\n      dup2\n      sload\n      dup2\n      mstore\n      swap1\n      0x01\n      add\n      swap1\n      0x20\n      add\n      dup1\n      dup4\n      gt\n      tag_370\n      jumpi\n      dup3\n      swap1\n      sub\n      0x1f\n      and\n      dup3\n      add\n      swap2\n    tag_368:\n      pop\n      pop\n      pop\n      pop\n      pop\n      swap1\n      dup1\n      0x01\n      add\n      dup1\n      sload\n      tag_371\n      swap1\n      tag_155\n      jump\t// in\n    tag_371:\n      dup1\n      0x1f\n      add\n      0x20\n      dup1\n      swap2\n      div\n      mul\n      0x20\n      add\n      mload(0x40)\n      swap1\n      dup2\n      add\n      0x40\n      mstore\n      dup1\n      swap3\n      swap2\n      swap1\n      dup2\n      dup2\n      mstore\n      0x20\n      add\n      dup3\n      dup1\n      sload\n      tag_372\n      swap1\n      tag_155\n      jump\t// in\n    tag_372:\n      dup1\n      iszero\n      tag_373\n      jumpi\n      dup1\n      0x1f\n      lt\n      tag_374\n      jumpi\n      0x0100\n      dup1\n      dup4\n      sload\n      div\n      mul\n      dup4\n      mstore\n      swap2\n      0x20\n      add\n      swap2\n      jump(tag_373)\n    tag_374:\n      dup3\n      add\n      swap2\n      swap1\n      0x00\n      mstore\n      keccak256(0x00, 0x20)\n      swap1\n    tag_375:\n      dup2\n      sload\n      dup2\n      mstore\n      swap1\n      0x01\n      add\n      swap1\n      0x20\n      add\n      dup1\n      dup4\n      gt\n      tag_375\n      jumpi\n      dup3\n      swap1\n      sub\n      0x1f\n      and\n      dup3\n      add\n      swap2\n    tag_373:\n      pop\n      pop\n      pop\n      pop\n      pop\n      swap1\n      dup1\n      0x02\n      add\n      sload\n      swap1\n      dup1\n      0x03\n      add\n      sload\n      swap1\n      dup1\n      0x04\n      add\n      sload\n      swap1\n      pop\n      dup6\n      jump\t// out\n        /* \"contracts/Database.sol\":1162:1224  mapping(address => mapping(string => bool)) public userActions */\n    tag_112:\n      mstore(0x20, 0x0b)\n      dup2\n      0x00\n      mstore\n      keccak256(0x00, 0x40)\n      dup2\n      dup1\n      mload\n      0x20\n      dup2\n      add\n      dup3\n      add\n      dup1\n      mload\n      dup5\n      dup3\n      mstore\n      0x20\n      dup4\n      add\n      0x20\n      dup6\n      add\n      keccak256\n      dup2\n      dup4\n      mstore\n      dup1\n      swap6\n      pop\n      pop\n      pop\n      pop\n      pop\n      pop\n      0x00\n      swap2\n      pop\n      swap2\n      pop\n      swap1\n      sload\n      swap1\n      0x0100\n      exp\n      swap1\n      div\n      0xff\n      and\n      dup2\n      jump\t// out\n        /* \"contracts/Database.sol\":753:794  mapping(address => uint) public shopDebts */\n    tag_117:\n      mstore(0x20, 0x06)\n      dup1\n      0x00\n      mstore\n      keccak256(0x00, 0x40)\n      0x00\n      swap2\n      pop\n      swap1\n      pop\n      sload\n      dup2\n      jump\t// out\n        /* \"contracts/Database.sol\":605:650  mapping(string => Request) public userRequest */\n    tag_122:\n      0x04\n      dup2\n      dup1\n      mload\n      0x20\n      dup2\n      add\n      dup3\n      add\n      dup1\n      mload\n      dup5\n      dup3\n      mstore\n      0x20\n      dup4\n      add\n      0x20\n      dup6\n      add\n      keccak256\n      dup2\n      dup4\n      mstore\n      dup1\n      swap6\n      pop\n      pop\n      pop\n      pop\n      pop\n      pop\n      0x00\n      swap2\n      pop\n      swap1\n      pop\n      dup1\n      0x00\n      add\n      dup1\n      sload\n      tag_376\n      swap1\n      tag_155\n      jump\t// in\n    tag_376:\n      dup1\n      0x1f\n      add\n      0x20\n      dup1\n      swap2\n      div\n      mul\n      0x20\n      add\n      mload(0x40)\n      swap1\n      dup2\n      add\n      0x40\n      mstore\n      dup1\n      swap3\n      swap2\n      swap1\n      dup2\n      dup2\n      mstore\n      0x20\n      add\n      dup3\n      dup1\n      sload\n      tag_377\n      swap1\n      tag_155\n      jump\t// in\n    tag_377:\n      dup1\n      iszero\n      tag_378\n      jumpi\n      dup1\n      0x1f\n      lt\n      tag_379\n      jumpi\n      0x0100\n      dup1\n      dup4\n      sload\n      div\n      mul\n      dup4\n      mstore\n      swap2\n      0x20\n      add\n      swap2\n      jump(tag_378)\n    tag_379:\n      dup3\n      add\n      swap2\n      swap1\n      0x00\n      mstore\n      keccak256(0x00, 0x20)\n      swap1\n    tag_380:\n      dup2\n      sload\n      dup2\n      mstore\n      swap1\n      0x01\n      add\n      swap1\n      0x20\n      add\n      dup1\n      dup4\n      gt\n      tag_380\n      jumpi\n      dup3\n      swap1\n      sub\n      0x1f\n      and\n      dup3\n      add\n      swap2\n    tag_378:\n      pop\n      pop\n      pop\n      pop\n      pop\n      swap1\n      dup1\n      0x01\n      add\n      dup1\n      sload\n      tag_381\n      swap1\n      tag_155\n      jump\t// in\n    tag_381:\n      dup1\n      0x1f\n      add\n      0x20\n      dup1\n      swap2\n      div\n      mul\n      0x20\n      add\n      mload(0x40)\n      swap1\n      dup2\n      add\n      0x40\n      mstore\n      dup1\n      swap3\n      swap2\n      swap1\n      dup2\n      dup2\n      mstore\n      0x20\n      add\n      dup3\n      dup1\n      sload\n      tag_382\n      swap1\n      tag_155\n      jump\t// in\n    tag_382:\n      dup1\n      iszero\n      tag_383\n      jumpi\n      dup1\n      0x1f\n      lt\n      tag_384\n      jumpi\n      0x0100\n      dup1\n      dup4\n      sload\n      div\n      mul\n      dup4\n      mstore\n      swap2\n      0x20\n      add\n      swap2\n      jump(tag_383)\n    tag_384:\n      dup3\n      add\n      swap2\n      swap1\n      0x00\n      mstore\n      keccak256(0x00, 0x20)\n      swap1\n    tag_385:\n      dup2\n      sload\n      dup2\n      mstore\n      swap1\n      0x01\n      add\n      swap1\n      0x20\n      add\n      dup1\n      dup4\n      gt\n      tag_385\n      jumpi\n      dup3\n      swap1\n      sub\n      0x1f\n      and\n      dup3\n      add\n      swap2\n    tag_383:\n      pop\n      pop\n      pop\n      pop\n      pop\n      swap1\n      dup1\n      0x02\n      add\n      dup1\n      sload\n      tag_386\n      swap1\n      tag_155\n      jump\t// in\n    tag_386:\n      dup1\n      0x1f\n      add\n      0x20\n      dup1\n      swap2\n      div\n      mul\n      0x20\n      add\n      mload(0x40)\n      swap1\n      dup2\n      add\n      0x40\n      mstore\n      dup1\n      swap3\n      swap2\n      swap1\n      dup2\n      dup2\n      mstore\n      0x20\n      add\n      dup3\n      dup1\n      sload\n      tag_387\n      swap1\n      tag_155\n      jump\t// in\n    tag_387:\n      dup1\n      iszero\n      tag_388\n      jumpi\n      dup1\n      0x1f\n      lt\n      tag_389\n      jumpi\n      0x0100\n      dup1\n      dup4\n      sload\n      div\n      mul\n      dup4\n      mstore\n      swap2\n      0x20\n      add\n      swap2\n      jump(tag_388)\n    tag_389:\n      dup3\n      add\n      swap2\n      swap1\n      0x00\n      mstore\n      keccak256(0x00, 0x20)\n      swap1\n    tag_390:\n      dup2\n      sload\n      dup2\n      mstore\n      swap1\n      0x01\n      add\n      swap1\n      0x20\n      add\n      dup1\n      dup4\n      gt\n      tag_390\n      jumpi\n      dup3\n      swap1\n      sub\n      0x1f\n      and\n      dup3\n      add\n      swap2\n    tag_388:\n      pop\n      pop\n      pop\n      pop\n      pop\n      swap1\n      dup1\n      0x03\n      add\n      0x00\n      swap1\n      sload\n      swap1\n      0x0100\n      exp\n      swap1\n      div\n      0xff\n      and\n      swap1\n      pop\n      dup5\n      jump\t// out\n        /* \"contracts/Database.sol\":2861:3101  function add_shop(... */\n    tag_128:\n        /* \"contracts/Database.sol\":2986:3005  Shop memory newShop */\n      0x00\n        /* \"contracts/Database.sol\":3008:3025  Shop(number,city) */\n      mload(0x40)\n      dup1\n      0x40\n      add\n      0x40\n      mstore\n      dup1\n        /* \"contracts/Database.sol\":3013:3019  number */\n      dup5\n        /* \"contracts/Database.sol\":3008:3025  Shop(number,city) */\n      dup2\n      mstore\n      0x20\n      add\n        /* \"contracts/Database.sol\":3020:3024  city */\n      dup4\n        /* \"contracts/Database.sol\":3008:3025  Shop(number,city) */\n      dup2\n      mstore\n      pop\n        /* \"contracts/Database.sol\":2986:3025  Shop memory newShop = Shop(number,city) */\n      swap1\n      pop\n        /* \"contracts/Database.sol\":3035:3044  shopsAddr */\n      0x01\n        /* \"contracts/Database.sol\":3050:3058  shopAddr */\n      dup5\n        /* \"contracts/Database.sol\":3035:3059  shopsAddr.push(shopAddr) */\n      swap1\n      dup1\n      0x01\n      dup2\n      sload\n      add\n      dup1\n      dup3\n      sstore\n      dup1\n      swap2\n      pop\n      pop\n      0x01\n      swap1\n      sub\n      swap1\n      0x00\n      mstore\n      keccak256(0x00, 0x20)\n      add\n      0x00\n      swap1\n      swap2\n      swap1\n      swap2\n      swap1\n      swap2\n      0x0100\n      exp\n      dup2\n      sload\n      dup2\n      0xffffffffffffffffffffffffffffffffffffffff\n      mul\n      not\n      and\n      swap1\n      dup4\n      0xffffffffffffffffffffffffffffffffffffffff\n      and\n      mul\n      or\n      swap1\n      sstore\n      pop\n        /* \"contracts/Database.sol\":3087:3094  newShop */\n      dup1\n        /* \"contracts/Database.sol\":3069:3074  shops */\n      0x08\n        /* \"contracts/Database.sol\":3069:3084  shops[shopAddr] */\n      0x00\n        /* \"contracts/Database.sol\":3075:3083  shopAddr */\n      dup7\n        /* \"contracts/Database.sol\":3069:3084  shops[shopAddr] */\n      0xffffffffffffffffffffffffffffffffffffffff\n      and\n      0xffffffffffffffffffffffffffffffffffffffff\n      and\n      dup2\n      mstore\n      0x20\n      add\n      swap1\n      dup2\n      mstore\n      0x20\n      add\n      0x00\n      keccak256\n        /* \"contracts/Database.sol\":3069:3094  shops[shopAddr] = newShop */\n      0x00\n      dup3\n      add\n      mload\n      dup2\n      0x00\n      add\n      swap1\n      dup1\n      mload\n      swap1\n      0x20\n      add\n      swap1\n      tag_393\n      swap3\n      swap2\n      swap1\n      tag_183\n      jump\t// in\n    tag_393:\n      pop\n      0x20\n      dup3\n      add\n      mload\n      dup2\n      0x01\n      add\n      swap1\n      dup1\n      mload\n      swap1\n      0x20\n      add\n      swap1\n      tag_394\n      swap3\n      swap2\n      swap1\n      tag_183\n      jump\t// in\n    tag_394:\n      pop\n      swap1\n      pop\n      pop\n        /* \"contracts/Database.sol\":2976:3101  {... */\n      pop\n        /* \"contracts/Database.sol\":2861:3101  function add_shop(... */\n      pop\n      pop\n      pop\n      jump\t// out\n        /* \"contracts/Database.sol\":4199:4512  function create_request(... */\n    tag_132:\n        /* \"contracts/Database.sol\":4367:4385  Request memory req */\n      0x00\n        /* \"contracts/Database.sol\":4388:4434  Request(autor,currentRole,desiredRole,checked) */\n      mload(0x40)\n      dup1\n      0x80\n      add\n      0x40\n      mstore\n      dup1\n        /* \"contracts/Database.sol\":4396:4401  autor */\n      dup7\n        /* \"contracts/Database.sol\":4388:4434  Request(autor,currentRole,desiredRole,checked) */\n      dup2\n      mstore\n      0x20\n      add\n        /* \"contracts/Database.sol\":4402:4413  currentRole */\n      dup6\n        /* \"contracts/Database.sol\":4388:4434  Request(autor,currentRole,desiredRole,checked) */\n      dup2\n      mstore\n      0x20\n      add\n        /* \"contracts/Database.sol\":4414:4425  desiredRole */\n      dup5\n        /* \"contracts/Database.sol\":4388:4434  Request(autor,currentRole,desiredRole,checked) */\n      dup2\n      mstore\n      0x20\n      add\n        /* \"contracts/Database.sol\":4426:4433  checked */\n      dup4\n        /* \"contracts/Database.sol\":4388:4434  Request(autor,currentRole,desiredRole,checked) */\n      iszero\n      iszero\n      dup2\n      mstore\n      pop\n        /* \"contracts/Database.sol\":4367:4434  Request memory req = Request(autor,currentRole,desiredRole,checked) */\n      swap1\n      pop\n        /* \"contracts/Database.sol\":4465:4468  req */\n      dup1\n        /* \"contracts/Database.sol\":4444:4455  userRequest */\n      0x04\n        /* \"contracts/Database.sol\":4456:4461  autor */\n      dup7\n        /* \"contracts/Database.sol\":4444:4462  userRequest[autor] */\n      mload(0x40)\n      tag_396\n      swap2\n      swap1\n      tag_143\n      jump\t// in\n    tag_396:\n      swap1\n      dup2\n      mstore\n      0x20\n      add\n      mload(0x40)\n      dup1\n      swap2\n      sub\n      swap1\n      keccak256\n        /* \"contracts/Database.sol\":4444:4468  userRequest[autor] = req */\n      0x00\n      dup3\n      add\n      mload\n      dup2\n      0x00\n      add\n      swap1\n      dup1\n      mload\n      swap1\n      0x20\n      add\n      swap1\n      tag_397\n      swap3\n      swap2\n      swap1\n      tag_183\n      jump\t// in\n    tag_397:\n      pop\n      0x20\n      dup3\n      add\n      mload\n      dup2\n      0x01\n      add\n      swap1\n      dup1\n      mload\n      swap1\n      0x20\n      add\n      swap1\n      tag_398\n      swap3\n      swap2\n      swap1\n      tag_183\n      jump\t// in\n    tag_398:\n      pop\n      0x40\n      dup3\n      add\n      mload\n      dup2\n      0x02\n      add\n      swap1\n      dup1\n      mload\n      swap1\n      0x20\n      add\n      swap1\n      tag_399\n      swap3\n      swap2\n      swap1\n      tag_183\n      jump\t// in\n    tag_399:\n      pop\n      0x60\n      dup3\n      add\n      mload\n      dup2\n      0x03\n      add\n      exp(0x0100, 0x00)\n      dup2\n      sload\n      dup2\n      0xff\n      mul\n      not\n      and\n      swap1\n      dup4\n      iszero\n      iszero\n      mul\n      or\n      swap1\n      sstore\n      pop\n      swap1\n      pop\n      pop\n        /* \"contracts/Database.sol\":4478:4493  userRequestList */\n      0x05\n        /* \"contracts/Database.sol\":4499:4504  autor */\n      dup6\n        /* \"contracts/Database.sol\":4478:4505  userRequestList.push(autor) */\n      swap1\n      dup1\n      0x01\n      dup2\n      sload\n      add\n      dup1\n      dup3\n      sstore\n      dup1\n      swap2\n      pop\n      pop\n      0x01\n      swap1\n      sub\n      swap1\n      0x00\n      mstore\n      keccak256(0x00, 0x20)\n      add\n      0x00\n      swap1\n      swap2\n      swap1\n      swap2\n      swap1\n      swap2\n      pop\n      swap1\n      dup1\n      mload\n      swap1\n      0x20\n      add\n      swap1\n      tag_401\n      swap3\n      swap2\n      swap1\n      tag_183\n      jump\t// in\n    tag_401:\n      pop\n        /* \"contracts/Database.sol\":4357:4512  {... */\n      pop\n        /* \"contracts/Database.sol\":4199:4512  function create_request(... */\n      pop\n      pop\n      pop\n      pop\n      jump\t// out\n        /* \"contracts/Database.sol\":4925:5347  function create_review(... */\n    tag_136:\n        /* \"contracts/Database.sol\":5125:5142  Review memory rev */\n      0x00\n        /* \"contracts/Database.sol\":5145:5191  Review(autorLogin,message,likes,dislikes,mark) */\n      mload(0x40)\n      dup1\n      0xa0\n      add\n      0x40\n      mstore\n      dup1\n        /* \"contracts/Database.sol\":5152:5162  autorLogin */\n      dup8\n        /* \"contracts/Database.sol\":5145:5191  Review(autorLogin,message,likes,dislikes,mark) */\n      dup2\n      mstore\n      0x20\n      add\n        /* \"contracts/Database.sol\":5163:5170  message */\n      dup7\n        /* \"contracts/Database.sol\":5145:5191  Review(autorLogin,message,likes,dislikes,mark) */\n      dup2\n      mstore\n      0x20\n      add\n        /* \"contracts/Database.sol\":5171:5176  likes */\n      dup6\n        /* \"contracts/Database.sol\":5145:5191  Review(autorLogin,message,likes,dislikes,mark) */\n      dup2\n      mstore\n      0x20\n      add\n        /* \"contracts/Database.sol\":5177:5185  dislikes */\n      dup5\n        /* \"contracts/Database.sol\":5145:5191  Review(autorLogin,message,likes,dislikes,mark) */\n      dup2\n      mstore\n      0x20\n      add\n        /* \"contracts/Database.sol\":5186:5190  mark */\n      dup4\n        /* \"contracts/Database.sol\":5145:5191  Review(autorLogin,message,likes,dislikes,mark) */\n      dup2\n      mstore\n      pop\n        /* \"contracts/Database.sol\":5125:5191  Review memory rev = Review(autorLogin,message,likes,dislikes,mark) */\n      swap1\n      pop\n        /* \"contracts/Database.sol\":5201:5213  shopsReviews */\n      0x09\n        /* \"contracts/Database.sol\":5201:5223  shopsReviews[shopAddr] */\n      0x00\n        /* \"contracts/Database.sol\":5214:5222  shopAddr */\n      dup9\n        /* \"contracts/Database.sol\":5201:5223  shopsReviews[shopAddr] */\n      0xffffffffffffffffffffffffffffffffffffffff\n      and\n      0xffffffffffffffffffffffffffffffffffffffff\n      and\n      dup2\n      mstore\n      0x20\n      add\n      swap1\n      dup2\n      mstore\n      0x20\n      add\n      0x00\n      keccak256\n        /* \"contracts/Database.sol\":5229:5239  autorLogin */\n      dup7\n        /* \"contracts/Database.sol\":5201:5240  shopsReviews[shopAddr].push(autorLogin) */\n      swap1\n      dup1\n      0x01\n      dup2\n      sload\n      add\n      dup1\n      dup3\n      sstore\n      dup1\n      swap2\n      pop\n      pop\n      0x01\n      swap1\n      sub\n      swap1\n      0x00\n      mstore\n      keccak256(0x00, 0x20)\n      add\n      0x00\n      swap1\n      swap2\n      swap1\n      swap2\n      swap1\n      swap2\n      pop\n      swap1\n      dup1\n      mload\n      swap1\n      0x20\n      add\n      swap1\n      tag_404\n      swap3\n      swap2\n      swap1\n      tag_183\n      jump\t// in\n    tag_404:\n      pop\n        /* \"contracts/Database.sol\":5287:5290  rev */\n      dup1\n        /* \"contracts/Database.sol\":5251:5262  userReviews */\n      0x0a\n        /* \"contracts/Database.sol\":5263:5273  autorLogin */\n      dup8\n        /* \"contracts/Database.sol\":5251:5274  userReviews[autorLogin] */\n      mload(0x40)\n      tag_405\n      swap2\n      swap1\n      tag_143\n      jump\t// in\n    tag_405:\n      swap1\n      dup2\n      mstore\n      0x20\n      add\n      mload(0x40)\n      dup1\n      swap2\n      sub\n      swap1\n      keccak256\n        /* \"contracts/Database.sol\":5251:5284  userReviews[autorLogin][shopAddr] */\n      0x00\n        /* \"contracts/Database.sol\":5275:5283  shopAddr */\n      dup10\n        /* \"contracts/Database.sol\":5251:5284  userReviews[autorLogin][shopAddr] */\n      0xffffffffffffffffffffffffffffffffffffffff\n      and\n      0xffffffffffffffffffffffffffffffffffffffff\n      and\n      dup2\n      mstore\n      0x20\n      add\n      swap1\n      dup2\n      mstore\n      0x20\n      add\n      0x00\n      keccak256\n        /* \"contracts/Database.sol\":5251:5290  userReviews[autorLogin][shopAddr] = rev */\n      0x00\n      dup3\n      add\n      mload\n      dup2\n      0x00\n      add\n      swap1\n      dup1\n      mload\n      swap1\n      0x20\n      add\n      swap1\n      tag_406\n      swap3\n      swap2\n      swap1\n      tag_183\n      jump\t// in\n    tag_406:\n      pop\n      0x20\n      dup3\n      add\n      mload\n      dup2\n      0x01\n      add\n      swap1\n      dup1\n      mload\n      swap1\n      0x20\n      add\n      swap1\n      tag_407\n      swap3\n      swap2\n      swap1\n      tag_183\n      jump\t// in\n    tag_407:\n      pop\n      0x40\n      dup3\n      add\n      mload\n      dup2\n      0x02\n      add\n      sstore\n      0x60\n      dup3\n      add\n      mload\n      dup2\n      0x03\n      add\n      sstore\n      0x80\n      dup3\n      add\n      mload\n      dup2\n      0x04\n      add\n      sstore\n      swap1\n      pop\n      pop\n        /* \"contracts/Database.sol\":5336:5340  true */\n      0x01\n        /* \"contracts/Database.sol\":5300:5311  userActions */\n      0x0b\n        /* \"contracts/Database.sol\":5300:5321  userActions[shopAddr] */\n      0x00\n        /* \"contracts/Database.sol\":5312:5320  shopAddr */\n      dup10\n        /* \"contracts/Database.sol\":5300:5321  userActions[shopAddr] */\n      0xffffffffffffffffffffffffffffffffffffffff\n      and\n      0xffffffffffffffffffffffffffffffffffffffff\n      and\n      dup2\n      mstore\n      0x20\n      add\n      swap1\n      dup2\n      mstore\n      0x20\n      add\n      0x00\n      keccak256\n        /* \"contracts/Database.sol\":5322:5332  autorLogin */\n      dup8\n        /* \"contracts/Database.sol\":5300:5333  userActions[shopAddr][autorLogin] */\n      mload(0x40)\n      tag_408\n      swap2\n      swap1\n      tag_143\n      jump\t// in\n    tag_408:\n      swap1\n      dup2\n      mstore\n      0x20\n      add\n      mload(0x40)\n      dup1\n      swap2\n      sub\n      swap1\n      keccak256\n      0x00\n        /* \"contracts/Database.sol\":5300:5340  userActions[shopAddr][autorLogin] = true */\n      0x0100\n      exp\n      dup2\n      sload\n      dup2\n      0xff\n      mul\n      not\n      and\n      swap1\n      dup4\n      iszero\n      iszero\n      mul\n      or\n      swap1\n      sstore\n      pop\n        /* \"contracts/Database.sol\":5115:5347  {... */\n      pop\n        /* \"contracts/Database.sol\":4925:5347  function create_review(... */\n      pop\n      pop\n      pop\n      pop\n      pop\n      pop\n      jump\t// out\n        /* \"contracts/Database.sol\":2154:2536  function register_seller(... */\n    tag_140:\n        /* \"contracts/Database.sol\":2376:2381  login */\n      dup5\n        /* \"contracts/Database.sol\":1392:1393  0 */\n      0x00\n        /* \"contracts/Database.sol\":1359:1394  users[login].userAddr == address(0) */\n      0xffffffffffffffffffffffffffffffffffffffff\n      and\n        /* \"contracts/Database.sol\":1359:1364  users */\n      0x03\n        /* \"contracts/Database.sol\":1365:1370  login */\n      dup3\n        /* \"contracts/Database.sol\":1359:1371  users[login] */\n      mload(0x40)\n      tag_410\n      swap2\n      swap1\n      tag_143\n      jump\t// in\n    tag_410:\n      swap1\n      dup2\n      mstore\n      0x20\n      add\n      mload(0x40)\n      dup1\n      swap2\n      sub\n      swap1\n      keccak256\n        /* \"contracts/Database.sol\":1359:1380  users[login].userAddr */\n      0x00\n      add\n      0x00\n      swap1\n      sload\n      swap1\n      0x0100\n      exp\n      swap1\n      div\n      0xffffffffffffffffffffffffffffffffffffffff\n      and\n        /* \"contracts/Database.sol\":1359:1394  users[login].userAddr == address(0) */\n      0xffffffffffffffffffffffffffffffffffffffff\n      and\n      eq\n        /* \"contracts/Database.sol\":1351:1417  require(users[login].userAddr == address(0),\"Login already exist\") */\n      tag_411\n      jumpi\n      mload(0x40)\n      0x08c379a000000000000000000000000000000000000000000000000000000000\n      dup2\n      mstore\n      0x04\n      add\n      tag_412\n      swap1\n      tag_179\n      jump\t// in\n    tag_412:\n      mload(0x40)\n      dup1\n      swap2\n      sub\n      swap1\n      revert\n    tag_411:\n        /* \"contracts/Database.sol\":2392:2411  User memory newUser */\n      0x00\n        /* \"contracts/Database.sol\":2414:2454  User(userAddr,login,password,fio,status) */\n      mload(0x40)\n      dup1\n      0xa0\n      add\n      0x40\n      mstore\n      dup1\n        /* \"contracts/Database.sol\":2419:2427  userAddr */\n      dup10\n        /* \"contracts/Database.sol\":2414:2454  User(userAddr,login,password,fio,status) */\n      0xffffffffffffffffffffffffffffffffffffffff\n      and\n      dup2\n      mstore\n      0x20\n      add\n        /* \"contracts/Database.sol\":2428:2433  login */\n      dup9\n        /* \"contracts/Database.sol\":2414:2454  User(userAddr,login,password,fio,status) */\n      dup2\n      mstore\n      0x20\n      add\n        /* \"contracts/Database.sol\":2434:2442  password */\n      dup8\n        /* \"contracts/Database.sol\":2414:2454  User(userAddr,login,password,fio,status) */\n      dup2\n      mstore\n      0x20\n      add\n        /* \"contracts/Database.sol\":2443:2446  fio */\n      dup7\n        /* \"contracts/Database.sol\":2414:2454  User(userAddr,login,password,fio,status) */\n      dup2\n      mstore\n      0x20\n      add\n        /* \"contracts/Database.sol\":2447:2453  status */\n      dup6\n        /* \"contracts/Database.sol\":2414:2454  User(userAddr,login,password,fio,status) */\n      dup2\n      mstore\n      pop\n        /* \"contracts/Database.sol\":2392:2454  User memory newUser = User(userAddr,login,password,fio,status) */\n      swap1\n      pop\n        /* \"contracts/Database.sol\":2479:2486  newUser */\n      dup1\n        /* \"contracts/Database.sol\":2464:2469  users */\n      0x03\n        /* \"contracts/Database.sol\":2470:2475  login */\n      dup9\n        /* \"contracts/Database.sol\":2464:2476  users[login] */\n      mload(0x40)\n      tag_414\n      swap2\n      swap1\n      tag_143\n      jump\t// in\n    tag_414:\n      swap1\n      dup2\n      mstore\n      0x20\n      add\n      mload(0x40)\n      dup1\n      swap2\n      sub\n      swap1\n      keccak256\n        /* \"contracts/Database.sol\":2464:2486  users[login] = newUser */\n      0x00\n      dup3\n      add\n      mload\n      dup2\n      0x00\n      add\n      exp(0x0100, 0x00)\n      dup2\n      sload\n      dup2\n      0xffffffffffffffffffffffffffffffffffffffff\n      mul\n      not\n      and\n      swap1\n      dup4\n      0xffffffffffffffffffffffffffffffffffffffff\n      and\n      mul\n      or\n      swap1\n      sstore\n      pop\n      0x20\n      dup3\n      add\n      mload\n      dup2\n      0x01\n      add\n      swap1\n      dup1\n      mload\n      swap1\n      0x20\n      add\n      swap1\n      tag_415\n      swap3\n      swap2\n      swap1\n      tag_183\n      jump\t// in\n    tag_415:\n      pop\n      0x40\n      dup3\n      add\n      mload\n      dup2\n      0x02\n      add\n      swap1\n      dup1\n      mload\n      swap1\n      0x20\n      add\n      swap1\n      tag_416\n      swap3\n      swap2\n      swap1\n      tag_183\n      jump\t// in\n    tag_416:\n      pop\n      0x60\n      dup3\n      add\n      mload\n      dup2\n      0x03\n      add\n      swap1\n      dup1\n      mload\n      swap1\n      0x20\n      add\n      swap1\n      tag_417\n      swap3\n      swap2\n      swap1\n      tag_183\n      jump\t// in\n    tag_417:\n      pop\n      0x80\n      dup3\n      add\n      mload\n      dup2\n      0x04\n      add\n      swap1\n      dup1\n      mload\n      swap1\n      0x20\n      add\n      swap1\n      tag_418\n      swap3\n      swap2\n      swap1\n      tag_183\n      jump\t// in\n    tag_418:\n      pop\n      swap1\n      pop\n      pop\n        /* \"contracts/Database.sol\":2496:2507  shopSellers */\n      0x07\n        /* \"contracts/Database.sol\":2496:2517  shopSellers[shopAddr] */\n      0x00\n        /* \"contracts/Database.sol\":2508:2516  shopAddr */\n      dup5\n        /* \"contracts/Database.sol\":2496:2517  shopSellers[shopAddr] */\n      0xffffffffffffffffffffffffffffffffffffffff\n      and\n      0xffffffffffffffffffffffffffffffffffffffff\n      and\n      dup2\n      mstore\n      0x20\n      add\n      swap1\n      dup2\n      mstore\n      0x20\n      add\n      0x00\n      keccak256\n        /* \"contracts/Database.sol\":2523:2528  login */\n      dup8\n        /* \"contracts/Database.sol\":2496:2529  shopSellers[shopAddr].push(login) */\n      swap1\n      dup1\n      0x01\n      dup2\n      sload\n      add\n      dup1\n      dup3\n      sstore\n      dup1\n      swap2\n      pop\n      pop\n      0x01\n      swap1\n      sub\n      swap1\n      0x00\n      mstore\n      keccak256(0x00, 0x20)\n      add\n      0x00\n      swap1\n      swap2\n      swap1\n      swap2\n      swap1\n      swap2\n      pop\n      swap1\n      dup1\n      mload\n      swap1\n      0x20\n      add\n      swap1\n      tag_420\n      swap3\n      swap2\n      swap1\n      tag_183\n      jump\t// in\n    tag_420:\n      pop\n        /* \"contracts/Database.sol\":2382:2536  {... */\n      pop\n        /* \"contracts/Database.sol\":2154:2536  function register_seller(... */\n      pop\n      pop\n      pop\n      pop\n      pop\n      pop\n      pop\n      jump\t// out\n        /* \"contracts/Database.sol\":1441:1605  function compare(string memory a,string memory b) private pure returns(bool){... */\n    tag_226:\n        /* \"contracts/Database.sol\":1512:1516  bool */\n      0x00\n        /* \"contracts/Database.sol\":1595:1596  b */\n      dup2\n        /* \"contracts/Database.sol\":1578:1597  abi.encodePacked(b) */\n      add(0x20, mload(0x40))\n      tag_422\n      swap2\n      swap1\n      tag_143\n      jump\t// in\n    tag_422:\n      mload(0x40)\n      0x20\n      dup2\n      dup4\n      sub\n      sub\n      dup2\n      mstore\n      swap1\n      0x40\n      mstore\n        /* \"contracts/Database.sol\":1568:1598  keccak256(abi.encodePacked(b)) */\n      dup1\n      mload\n      swap1\n      0x20\n      add\n      keccak256\n        /* \"contracts/Database.sol\":1561:1562  a */\n      dup4\n        /* \"contracts/Database.sol\":1544:1563  abi.encodePacked(a) */\n      add(0x20, mload(0x40))\n      tag_423\n      swap2\n      swap1\n      tag_143\n      jump\t// in\n    tag_423:\n      mload(0x40)\n      0x20\n      dup2\n      dup4\n      sub\n      sub\n      dup2\n      mstore\n      swap1\n      0x40\n      mstore\n        /* \"contracts/Database.sol\":1534:1564  keccak256(abi.encodePacked(a)) */\n      dup1\n      mload\n      swap1\n      0x20\n      add\n      keccak256\n        /* \"contracts/Database.sol\":1534:1598  keccak256(abi.encodePacked(a)) == keccak256(abi.encodePacked(b)) */\n      eq\n        /* \"contracts/Database.sol\":1527:1598  return keccak256(abi.encodePacked(a)) == keccak256(abi.encodePacked(b)) */\n      swap1\n      pop\n        /* \"contracts/Database.sol\":1441:1605  function compare(string memory a,string memory b) private pure returns(bool){... */\n      swap3\n      swap2\n      pop\n      pop\n      jump\t// out\n    tag_151:\n      mload(0x40)\n      dup1\n      0xa0\n      add\n      0x40\n      mstore\n      dup1\n      0x60\n      dup2\n      mstore\n      0x20\n      add\n      0x60\n      dup2\n      mstore\n      0x20\n      add\n      0x00\n      dup2\n      mstore\n      0x20\n      add\n      0x00\n      dup2\n      mstore\n      0x20\n      add\n      0x00\n      dup2\n      mstore\n      pop\n      swap1\n      jump\t// out\n    tag_183:\n      dup3\n      dup1\n      sload\n      tag_424\n      swap1\n      tag_155\n      jump\t// in\n    tag_424:\n      swap1\n      0x00\n      mstore\n      keccak256(0x00, 0x20)\n      swap1\n      0x1f\n      add\n      0x20\n      swap1\n      div\n      dup2\n      add\n      swap3\n      dup3\n      tag_426\n      jumpi\n      0x00\n      dup6\n      sstore\n      jump(tag_425)\n    tag_426:\n      dup3\n      0x1f\n      lt\n      tag_427\n      jumpi\n      dup1\n      mload\n      not(0xff)\n      and\n      dup4\n      dup1\n      add\n      or\n      dup6\n      sstore\n      jump(tag_425)\n    tag_427:\n      dup3\n      dup1\n      add\n      0x01\n      add\n      dup6\n      sstore\n      dup3\n      iszero\n      tag_425\n      jumpi\n      swap2\n      dup3\n      add\n    tag_428:\n      dup3\n      dup2\n      gt\n      iszero\n      tag_429\n      jumpi\n      dup3\n      mload\n      dup3\n      sstore\n      swap2\n      0x20\n      add\n      swap2\n      swap1\n      0x01\n      add\n      swap1\n      jump(tag_428)\n    tag_429:\n    tag_425:\n      pop\n      swap1\n      pop\n      tag_430\n      swap2\n      swap1\n      tag_431\n      jump\t// in\n    tag_430:\n      pop\n      swap1\n      jump\t// out\n    tag_199:\n      mload(0x40)\n      dup1\n      0xa0\n      add\n      0x40\n      mstore\n      dup1\n      and(0xffffffffffffffffffffffffffffffffffffffff, 0x00)\n      dup2\n      mstore\n      0x20\n      add\n      0x60\n      dup2\n      mstore\n      0x20\n      add\n      0x60\n      dup2\n      mstore\n      0x20\n      add\n      0x60\n      dup2\n      mstore\n      0x20\n      add\n      0x60\n      dup2\n      mstore\n      pop\n      swap1\n      jump\t// out\n    tag_431:\n    tag_432:\n      dup1\n      dup3\n      gt\n      iszero\n      tag_433\n      jumpi\n      0x00\n      dup2\n      0x00\n      swap1\n      sstore\n      pop\n      0x01\n      add\n      jump(tag_432)\n    tag_433:\n      pop\n      swap1\n      jump\t// out\n        /* \"#utility.yul\":7:419   */\n    tag_435:\n        /* \"#utility.yul\":85:90   */\n      0x00\n        /* \"#utility.yul\":110:176   */\n      tag_437\n        /* \"#utility.yul\":126:175   */\n      tag_438\n        /* \"#utility.yul\":168:174   */\n      dup5\n        /* \"#utility.yul\":126:175   */\n      tag_439\n      jump\t// in\n    tag_438:\n        /* \"#utility.yul\":110:176   */\n      tag_440\n      jump\t// in\n    tag_437:\n        /* \"#utility.yul\":101:176   */\n      swap1\n      pop\n        /* \"#utility.yul\":199:205   */\n      dup3\n        /* \"#utility.yul\":192:197   */\n      dup2\n        /* \"#utility.yul\":185:206   */\n      mstore\n        /* \"#utility.yul\":237:241   */\n      0x20\n        /* \"#utility.yul\":230:235   */\n      dup2\n        /* \"#utility.yul\":226:242   */\n      add\n        /* \"#utility.yul\":275:278   */\n      dup5\n        /* \"#utility.yul\":266:272   */\n      dup5\n        /* \"#utility.yul\":261:264   */\n      dup5\n        /* \"#utility.yul\":257:273   */\n      add\n        /* \"#utility.yul\":254:279   */\n      gt\n        /* \"#utility.yul\":251:363   */\n      iszero\n      tag_441\n      jumpi\n        /* \"#utility.yul\":282:361   */\n      tag_442\n      tag_443\n      jump\t// in\n    tag_442:\n        /* \"#utility.yul\":251:363   */\n    tag_441:\n        /* \"#utility.yul\":372:413   */\n      tag_444\n        /* \"#utility.yul\":406:412   */\n      dup5\n        /* \"#utility.yul\":401:404   */\n      dup3\n        /* \"#utility.yul\":396:399   */\n      dup6\n        /* \"#utility.yul\":372:413   */\n      tag_445\n      jump\t// in\n    tag_444:\n        /* \"#utility.yul\":91:419   */\n      pop\n        /* \"#utility.yul\":7:419   */\n      swap4\n      swap3\n      pop\n      pop\n      pop\n      jump\t// out\n        /* \"#utility.yul\":425:564   */\n    tag_446:\n        /* \"#utility.yul\":471:476   */\n      0x00\n        /* \"#utility.yul\":509:515   */\n      dup2\n        /* \"#utility.yul\":496:516   */\n      calldataload\n        /* \"#utility.yul\":487:516   */\n      swap1\n      pop\n        /* \"#utility.yul\":525:558   */\n      tag_448\n        /* \"#utility.yul\":552:557   */\n      dup2\n        /* \"#utility.yul\":525:558   */\n      tag_449\n      jump\t// in\n    tag_448:\n        /* \"#utility.yul\":425:564   */\n      swap3\n      swap2\n      pop\n      pop\n      jump\t// out\n        /* \"#utility.yul\":570:703   */\n    tag_450:\n        /* \"#utility.yul\":613:618   */\n      0x00\n        /* \"#utility.yul\":651:657   */\n      dup2\n        /* \"#utility.yul\":638:658   */\n      calldataload\n        /* \"#utility.yul\":629:658   */\n      swap1\n      pop\n        /* \"#utility.yul\":667:697   */\n      tag_452\n        /* \"#utility.yul\":691:696   */\n      dup2\n        /* \"#utility.yul\":667:697   */\n      tag_453\n      jump\t// in\n    tag_452:\n        /* \"#utility.yul\":570:703   */\n      swap3\n      swap2\n      pop\n      pop\n      jump\t// out\n        /* \"#utility.yul\":723:1063   */\n    tag_454:\n        /* \"#utility.yul\":779:784   */\n      0x00\n        /* \"#utility.yul\":828:831   */\n      dup3\n        /* \"#utility.yul\":821:825   */\n      0x1f\n        /* \"#utility.yul\":813:819   */\n      dup4\n        /* \"#utility.yul\":809:826   */\n      add\n        /* \"#utility.yul\":805:832   */\n      slt\n        /* \"#utility.yul\":795:917   */\n      tag_456\n      jumpi\n        /* \"#utility.yul\":836:915   */\n      tag_457\n      tag_458\n      jump\t// in\n    tag_457:\n        /* \"#utility.yul\":795:917   */\n    tag_456:\n        /* \"#utility.yul\":953:959   */\n      dup2\n        /* \"#utility.yul\":940:960   */\n      calldataload\n        /* \"#utility.yul\":978:1057   */\n      tag_459\n        /* \"#utility.yul\":1053:1056   */\n      dup5\n        /* \"#utility.yul\":1045:1051   */\n      dup3\n        /* \"#utility.yul\":1038:1042   */\n      0x20\n        /* \"#utility.yul\":1030:1036   */\n      dup7\n        /* \"#utility.yul\":1026:1043   */\n      add\n        /* \"#utility.yul\":978:1057   */\n      tag_435\n      jump\t// in\n    tag_459:\n        /* \"#utility.yul\":969:1057   */\n      swap2\n      pop\n        /* \"#utility.yul\":785:1063   */\n      pop\n        /* \"#utility.yul\":723:1063   */\n      swap3\n      swap2\n      pop\n      pop\n      jump\t// out\n        /* \"#utility.yul\":1069:1208   */\n    tag_460:\n        /* \"#utility.yul\":1115:1120   */\n      0x00\n        /* \"#utility.yul\":1153:1159   */\n      dup2\n        /* \"#utility.yul\":1140:1160   */\n      calldataload\n        /* \"#utility.yul\":1131:1160   */\n      swap1\n      pop\n        /* \"#utility.yul\":1169:1202   */\n      tag_462\n        /* \"#utility.yul\":1196:1201   */\n      dup2\n        /* \"#utility.yul\":1169:1202   */\n      tag_463\n      jump\t// in\n    tag_462:\n        /* \"#utility.yul\":1069:1208   */\n      swap3\n      swap2\n      pop\n      pop\n      jump\t// out\n        /* \"#utility.yul\":1214:1543   */\n    tag_43:\n        /* \"#utility.yul\":1273:1279   */\n      0x00\n        /* \"#utility.yul\":1322:1324   */\n      0x20\n        /* \"#utility.yul\":1310:1319   */\n      dup3\n        /* \"#utility.yul\":1301:1308   */\n      dup5\n        /* \"#utility.yul\":1297:1320   */\n      sub\n        /* \"#utility.yul\":1293:1325   */\n      slt\n        /* \"#utility.yul\":1290:1409   */\n      iszero\n      tag_465\n      jumpi\n        /* \"#utility.yul\":1328:1407   */\n      tag_466\n      tag_467\n      jump\t// in\n    tag_466:\n        /* \"#utility.yul\":1290:1409   */\n    tag_465:\n        /* \"#utility.yul\":1448:1449   */\n      0x00\n        /* \"#utility.yul\":1473:1526   */\n      tag_468\n        /* \"#utility.yul\":1518:1525   */\n      dup5\n        /* \"#utility.yul\":1509:1515   */\n      dup3\n        /* \"#utility.yul\":1498:1507   */\n      dup6\n        /* \"#utility.yul\":1494:1516   */\n      add\n        /* \"#utility.yul\":1473:1526   */\n      tag_446\n      jump\t// in\n    tag_468:\n        /* \"#utility.yul\":1463:1526   */\n      swap2\n      pop\n        /* \"#utility.yul\":1419:1536   */\n      pop\n        /* \"#utility.yul\":1214:1543   */\n      swap3\n      swap2\n      pop\n      pop\n      jump\t// out\n        /* \"#utility.yul\":1549:2203   */\n    tag_34:\n        /* \"#utility.yul\":1627:1633   */\n      0x00\n        /* \"#utility.yul\":1635:1641   */\n      dup1\n        /* \"#utility.yul\":1684:1686   */\n      0x40\n        /* \"#utility.yul\":1672:1681   */\n      dup4\n        /* \"#utility.yul\":1663:1670   */\n      dup6\n        /* \"#utility.yul\":1659:1682   */\n      sub\n        /* \"#utility.yul\":1655:1687   */\n      slt\n        /* \"#utility.yul\":1652:1771   */\n      iszero\n      tag_470\n      jumpi\n        /* \"#utility.yul\":1690:1769   */\n      tag_471\n      tag_467\n      jump\t// in\n    tag_471:\n        /* \"#utility.yul\":1652:1771   */\n    tag_470:\n        /* \"#utility.yul\":1810:1811   */\n      0x00\n        /* \"#utility.yul\":1835:1888   */\n      tag_472\n        /* \"#utility.yul\":1880:1887   */\n      dup6\n        /* \"#utility.yul\":1871:1877   */\n      dup3\n        /* \"#utility.yul\":1860:1869   */\n      dup7\n        /* \"#utility.yul\":1856:1878   */\n      add\n        /* \"#utility.yul\":1835:1888   */\n      tag_446\n      jump\t// in\n    tag_472:\n        /* \"#utility.yul\":1825:1888   */\n      swap3\n      pop\n        /* \"#utility.yul\":1781:1898   */\n      pop\n        /* \"#utility.yul\":1965:1967   */\n      0x20\n        /* \"#utility.yul\":1954:1963   */\n      dup4\n        /* \"#utility.yul\":1950:1968   */\n      add\n        /* \"#utility.yul\":1937:1969   */\n      calldataload\n        /* \"#utility.yul\":1996:2014   */\n      0xffffffffffffffff\n        /* \"#utility.yul\":1988:1994   */\n      dup2\n        /* \"#utility.yul\":1985:2015   */\n      gt\n        /* \"#utility.yul\":1982:2099   */\n      iszero\n      tag_473\n      jumpi\n        /* \"#utility.yul\":2018:2097   */\n      tag_474\n      tag_475\n      jump\t// in\n    tag_474:\n        /* \"#utility.yul\":1982:2099   */\n    tag_473:\n        /* \"#utility.yul\":2123:2186   */\n      tag_476\n        /* \"#utility.yul\":2178:2185   */\n      dup6\n        /* \"#utility.yul\":2169:2175   */\n      dup3\n        /* \"#utility.yul\":2158:2167   */\n      dup7\n        /* \"#utility.yul\":2154:2176   */\n      add\n        /* \"#utility.yul\":2123:2186   */\n      tag_454\n      jump\t// in\n    tag_476:\n        /* \"#utility.yul\":2113:2186   */\n      swap2\n      pop\n        /* \"#utility.yul\":1908:2196   */\n      pop\n        /* \"#utility.yul\":1549:2203   */\n      swap3\n      pop\n      swap3\n      swap1\n      pop\n      jump\t// out\n        /* \"#utility.yul\":2209:3188   */\n    tag_127:\n        /* \"#utility.yul\":2306:2312   */\n      0x00\n        /* \"#utility.yul\":2314:2320   */\n      dup1\n        /* \"#utility.yul\":2322:2328   */\n      0x00\n        /* \"#utility.yul\":2371:2373   */\n      0x60\n        /* \"#utility.yul\":2359:2368   */\n      dup5\n        /* \"#utility.yul\":2350:2357   */\n      dup7\n        /* \"#utility.yul\":2346:2369   */\n      sub\n        /* \"#utility.yul\":2342:2374   */\n      slt\n        /* \"#utility.yul\":2339:2458   */\n      iszero\n      tag_478\n      jumpi\n        /* \"#utility.yul\":2377:2456   */\n      tag_479\n      tag_467\n      jump\t// in\n    tag_479:\n        /* \"#utility.yul\":2339:2458   */\n    tag_478:\n        /* \"#utility.yul\":2497:2498   */\n      0x00\n        /* \"#utility.yul\":2522:2575   */\n      tag_480\n        /* \"#utility.yul\":2567:2574   */\n      dup7\n        /* \"#utility.yul\":2558:2564   */\n      dup3\n        /* \"#utility.yul\":2547:2556   */\n      dup8\n        /* \"#utility.yul\":2543:2565   */\n      add\n        /* \"#utility.yul\":2522:2575   */\n      tag_446\n      jump\t// in\n    tag_480:\n        /* \"#utility.yul\":2512:2575   */\n      swap4\n      pop\n        /* \"#utility.yul\":2468:2585   */\n      pop\n        /* \"#utility.yul\":2652:2654   */\n      0x20\n        /* \"#utility.yul\":2641:2650   */\n      dup5\n        /* \"#utility.yul\":2637:2655   */\n      add\n        /* \"#utility.yul\":2624:2656   */\n      calldataload\n        /* \"#utility.yul\":2683:2701   */\n      0xffffffffffffffff\n        /* \"#utility.yul\":2675:2681   */\n      dup2\n        /* \"#utility.yul\":2672:2702   */\n      gt\n        /* \"#utility.yul\":2669:2786   */\n      iszero\n      tag_481\n      jumpi\n        /* \"#utility.yul\":2705:2784   */\n      tag_482\n      tag_475\n      jump\t// in\n    tag_482:\n        /* \"#utility.yul\":2669:2786   */\n    tag_481:\n        /* \"#utility.yul\":2810:2873   */\n      tag_483\n        /* \"#utility.yul\":2865:2872   */\n      dup7\n        /* \"#utility.yul\":2856:2862   */\n      dup3\n        /* \"#utility.yul\":2845:2854   */\n      dup8\n        /* \"#utility.yul\":2841:2863   */\n      add\n        /* \"#utility.yul\":2810:2873   */\n      tag_454\n      jump\t// in\n    tag_483:\n        /* \"#utility.yul\":2800:2873   */\n      swap3\n      pop\n        /* \"#utility.yul\":2595:2883   */\n      pop\n        /* \"#utility.yul\":2950:2952   */\n      0x40\n        /* \"#utility.yul\":2939:2948   */\n      dup5\n        /* \"#utility.yul\":2935:2953   */\n      add\n        /* \"#utility.yul\":2922:2954   */\n      calldataload\n        /* \"#utility.yul\":2981:2999   */\n      0xffffffffffffffff\n        /* \"#utility.yul\":2973:2979   */\n      dup2\n        /* \"#utility.yul\":2970:3000   */\n      gt\n        /* \"#utility.yul\":2967:3084   */\n      iszero\n      tag_484\n      jumpi\n        /* \"#utility.yul\":3003:3082   */\n      tag_485\n      tag_475\n      jump\t// in\n    tag_485:\n        /* \"#utility.yul\":2967:3084   */\n    tag_484:\n        /* \"#utility.yul\":3108:3171   */\n      tag_486\n        /* \"#utility.yul\":3163:3170   */\n      dup7\n        /* \"#utility.yul\":3154:3160   */\n      dup3\n        /* \"#utility.yul\":3143:3152   */\n      dup8\n        /* \"#utility.yul\":3139:3161   */\n      add\n        /* \"#utility.yul\":3108:3171   */\n      tag_454\n      jump\t// in\n    tag_486:\n        /* \"#utility.yul\":3098:3171   */\n      swap2\n      pop\n        /* \"#utility.yul\":2893:3181   */\n      pop\n        /* \"#utility.yul\":2209:3188   */\n      swap3\n      pop\n      swap3\n      pop\n      swap3\n      jump\t// out\n        /* \"#utility.yul\":3194:4825   */\n    tag_49:\n        /* \"#utility.yul\":3329:3335   */\n      0x00\n        /* \"#utility.yul\":3337:3343   */\n      dup1\n        /* \"#utility.yul\":3345:3351   */\n      0x00\n        /* \"#utility.yul\":3353:3359   */\n      dup1\n        /* \"#utility.yul\":3361:3367   */\n      0x00\n        /* \"#utility.yul\":3410:3413   */\n      0xa0\n        /* \"#utility.yul\":3398:3407   */\n      dup7\n        /* \"#utility.yul\":3389:3396   */\n      dup9\n        /* \"#utility.yul\":3385:3408   */\n      sub\n        /* \"#utility.yul\":3381:3414   */\n      slt\n        /* \"#utility.yul\":3378:3498   */\n      iszero\n      tag_488\n      jumpi\n        /* \"#utility.yul\":3417:3496   */\n      tag_489\n      tag_467\n      jump\t// in\n    tag_489:\n        /* \"#utility.yul\":3378:3498   */\n    tag_488:\n        /* \"#utility.yul\":3537:3538   */\n      0x00\n        /* \"#utility.yul\":3562:3615   */\n      tag_490\n        /* \"#utility.yul\":3607:3614   */\n      dup9\n        /* \"#utility.yul\":3598:3604   */\n      dup3\n        /* \"#utility.yul\":3587:3596   */\n      dup10\n        /* \"#utility.yul\":3583:3605   */\n      add\n        /* \"#utility.yul\":3562:3615   */\n      tag_446\n      jump\t// in\n    tag_490:\n        /* \"#utility.yul\":3552:3615   */\n      swap6\n      pop\n        /* \"#utility.yul\":3508:3625   */\n      pop\n        /* \"#utility.yul\":3692:3694   */\n      0x20\n        /* \"#utility.yul\":3681:3690   */\n      dup7\n        /* \"#utility.yul\":3677:3695   */\n      add\n        /* \"#utility.yul\":3664:3696   */\n      calldataload\n        /* \"#utility.yul\":3723:3741   */\n      0xffffffffffffffff\n        /* \"#utility.yul\":3715:3721   */\n      dup2\n        /* \"#utility.yul\":3712:3742   */\n      gt\n        /* \"#utility.yul\":3709:3826   */\n      iszero\n      tag_491\n      jumpi\n        /* \"#utility.yul\":3745:3824   */\n      tag_492\n      tag_475\n      jump\t// in\n    tag_492:\n        /* \"#utility.yul\":3709:3826   */\n    tag_491:\n        /* \"#utility.yul\":3850:3913   */\n      tag_493\n        /* \"#utility.yul\":3905:3912   */\n      dup9\n        /* \"#utility.yul\":3896:3902   */\n      dup3\n        /* \"#utility.yul\":3885:3894   */\n      dup10\n        /* \"#utility.yul\":3881:3903   */\n      add\n        /* \"#utility.yul\":3850:3913   */\n      tag_454\n      jump\t// in\n    tag_493:\n        /* \"#utility.yul\":3840:3913   */\n      swap5\n      pop\n        /* \"#utility.yul\":3635:3923   */\n      pop\n        /* \"#utility.yul\":3990:3992   */\n      0x40\n        /* \"#utility.yul\":3979:3988   */\n      dup7\n        /* \"#utility.yul\":3975:3993   */\n      add\n        /* \"#utility.yul\":3962:3994   */\n      calldataload\n        /* \"#utility.yul\":4021:4039   */\n      0xffffffffffffffff\n        /* \"#utility.yul\":4013:4019   */\n      dup2\n        /* \"#utility.yul\":4010:4040   */\n      gt\n        /* \"#utility.yul\":4007:4124   */\n      iszero\n      tag_494\n      jumpi\n        /* \"#utility.yul\":4043:4122   */\n      tag_495\n      tag_475\n      jump\t// in\n    tag_495:\n        /* \"#utility.yul\":4007:4124   */\n    tag_494:\n        /* \"#utility.yul\":4148:4211   */\n      tag_496\n        /* \"#utility.yul\":4203:4210   */\n      dup9\n        /* \"#utility.yul\":4194:4200   */\n      dup3\n        /* \"#utility.yul\":4183:4192   */\n      dup10\n        /* \"#utility.yul\":4179:4201   */\n      add\n        /* \"#utility.yul\":4148:4211   */\n      tag_454\n      jump\t// in\n    tag_496:\n        /* \"#utility.yul\":4138:4211   */\n      swap4\n      pop\n        /* \"#utility.yul\":3933:4221   */\n      pop\n        /* \"#utility.yul\":4288:4290   */\n      0x60\n        /* \"#utility.yul\":4277:4286   */\n      dup7\n        /* \"#utility.yul\":4273:4291   */\n      add\n        /* \"#utility.yul\":4260:4292   */\n      calldataload\n        /* \"#utility.yul\":4319:4337   */\n      0xffffffffffffffff\n        /* \"#utility.yul\":4311:4317   */\n      dup2\n        /* \"#utility.yul\":4308:4338   */\n      gt\n        /* \"#utility.yul\":4305:4422   */\n      iszero\n      tag_497\n      jumpi\n        /* \"#utility.yul\":4341:4420   */\n      tag_498\n      tag_475\n      jump\t// in\n    tag_498:\n        /* \"#utility.yul\":4305:4422   */\n    tag_497:\n        /* \"#utility.yul\":4446:4509   */\n      tag_499\n        /* \"#utility.yul\":4501:4508   */\n      dup9\n        /* \"#utility.yul\":4492:4498   */\n      dup3\n        /* \"#utility.yul\":4481:4490   */\n      dup10\n        /* \"#utility.yul\":4477:4499   */\n      add\n        /* \"#utility.yul\":4446:4509   */\n      tag_454\n      jump\t// in\n    tag_499:\n        /* \"#utility.yul\":4436:4509   */\n      swap3\n      pop\n        /* \"#utility.yul\":4231:4519   */\n      pop\n        /* \"#utility.yul\":4586:4589   */\n      0x80\n        /* \"#utility.yul\":4575:4584   */\n      dup7\n        /* \"#utility.yul\":4571:4590   */\n      add\n        /* \"#utility.yul\":4558:4591   */\n      calldataload\n        /* \"#utility.yul\":4618:4636   */\n      0xffffffffffffffff\n        /* \"#utility.yul\":4610:4616   */\n      dup2\n        /* \"#utility.yul\":4607:4637   */\n      gt\n        /* \"#utility.yul\":4604:4721   */\n      iszero\n      tag_500\n      jumpi\n        /* \"#utility.yul\":4640:4719   */\n      tag_501\n      tag_475\n      jump\t// in\n    tag_501:\n        /* \"#utility.yul\":4604:4721   */\n    tag_500:\n        /* \"#utility.yul\":4745:4808   */\n      tag_502\n        /* \"#utility.yul\":4800:4807   */\n      dup9\n        /* \"#utility.yul\":4791:4797   */\n      dup3\n        /* \"#utility.yul\":4780:4789   */\n      dup10\n        /* \"#utility.yul\":4776:4798   */\n      add\n        /* \"#utility.yul\":4745:4808   */\n      tag_454\n      jump\t// in\n    tag_502:\n        /* \"#utility.yul\":4735:4808   */\n      swap2\n      pop\n        /* \"#utility.yul\":4529:4818   */\n      pop\n        /* \"#utility.yul\":3194:4825   */\n      swap3\n      swap6\n      pop\n      swap3\n      swap6\n      swap1\n      swap4\n      pop\n      jump\t// out\n        /* \"#utility.yul\":4831:6608   */\n    tag_139:\n        /* \"#utility.yul\":4975:4981   */\n      0x00\n        /* \"#utility.yul\":4983:4989   */\n      dup1\n        /* \"#utility.yul\":4991:4997   */\n      0x00\n        /* \"#utility.yul\":4999:5005   */\n      dup1\n        /* \"#utility.yul\":5007:5013   */\n      0x00\n        /* \"#utility.yul\":5015:5021   */\n      dup1\n        /* \"#utility.yul\":5064:5067   */\n      0xc0\n        /* \"#utility.yul\":5052:5061   */\n      dup8\n        /* \"#utility.yul\":5043:5050   */\n      dup10\n        /* \"#utility.yul\":5039:5062   */\n      sub\n        /* \"#utility.yul\":5035:5068   */\n      slt\n        /* \"#utility.yul\":5032:5152   */\n      iszero\n      tag_504\n      jumpi\n        /* \"#utility.yul\":5071:5150   */\n      tag_505\n      tag_467\n      jump\t// in\n    tag_505:\n        /* \"#utility.yul\":5032:5152   */\n    tag_504:\n        /* \"#utility.yul\":5191:5192   */\n      0x00\n        /* \"#utility.yul\":5216:5269   */\n      tag_506\n        /* \"#utility.yul\":5261:5268   */\n      dup10\n        /* \"#utility.yul\":5252:5258   */\n      dup3\n        /* \"#utility.yul\":5241:5250   */\n      dup11\n        /* \"#utility.yul\":5237:5259   */\n      add\n        /* \"#utility.yul\":5216:5269   */\n      tag_446\n      jump\t// in\n    tag_506:\n        /* \"#utility.yul\":5206:5269   */\n      swap7\n      pop\n        /* \"#utility.yul\":5162:5279   */\n      pop\n        /* \"#utility.yul\":5346:5348   */\n      0x20\n        /* \"#utility.yul\":5335:5344   */\n      dup8\n        /* \"#utility.yul\":5331:5349   */\n      add\n        /* \"#utility.yul\":5318:5350   */\n      calldataload\n        /* \"#utility.yul\":5377:5395   */\n      0xffffffffffffffff\n        /* \"#utility.yul\":5369:5375   */\n      dup2\n        /* \"#utility.yul\":5366:5396   */\n      gt\n        /* \"#utility.yul\":5363:5480   */\n      iszero\n      tag_507\n      jumpi\n        /* \"#utility.yul\":5399:5478   */\n      tag_508\n      tag_475\n      jump\t// in\n    tag_508:\n        /* \"#utility.yul\":5363:5480   */\n    tag_507:\n        /* \"#utility.yul\":5504:5567   */\n      tag_509\n        /* \"#utility.yul\":5559:5566   */\n      dup10\n        /* \"#utility.yul\":5550:5556   */\n      dup3\n        /* \"#utility.yul\":5539:5548   */\n      dup11\n        /* \"#utility.yul\":5535:5557   */\n      add\n        /* \"#utility.yul\":5504:5567   */\n      tag_454\n      jump\t// in\n    tag_509:\n        /* \"#utility.yul\":5494:5567   */\n      swap6\n      pop\n        /* \"#utility.yul\":5289:5577   */\n      pop\n        /* \"#utility.yul\":5644:5646   */\n      0x40\n        /* \"#utility.yul\":5633:5642   */\n      dup8\n        /* \"#utility.yul\":5629:5647   */\n      add\n        /* \"#utility.yul\":5616:5648   */\n      calldataload\n        /* \"#utility.yul\":5675:5693   */\n      0xffffffffffffffff\n        /* \"#utility.yul\":5667:5673   */\n      dup2\n        /* \"#utility.yul\":5664:5694   */\n      gt\n        /* \"#utility.yul\":5661:5778   */\n      iszero\n      tag_510\n      jumpi\n        /* \"#utility.yul\":5697:5776   */\n      tag_511\n      tag_475\n      jump\t// in\n    tag_511:\n        /* \"#utility.yul\":5661:5778   */\n    tag_510:\n        /* \"#utility.yul\":5802:5865   */\n      tag_512\n        /* \"#utility.yul\":5857:5864   */\n      dup10\n        /* \"#utility.yul\":5848:5854   */\n      dup3\n        /* \"#utility.yul\":5837:5846   */\n      dup11\n        /* \"#utility.yul\":5833:5855   */\n      add\n        /* \"#utility.yul\":5802:5865   */\n      tag_454\n      jump\t// in\n    tag_512:\n        /* \"#utility.yul\":5792:5865   */\n      swap5\n      pop\n        /* \"#utility.yul\":5587:5875   */\n      pop\n        /* \"#utility.yul\":5942:5944   */\n      0x60\n        /* \"#utility.yul\":5931:5940   */\n      dup8\n        /* \"#utility.yul\":5927:5945   */\n      add\n        /* \"#utility.yul\":5914:5946   */\n      calldataload\n        /* \"#utility.yul\":5973:5991   */\n      0xffffffffffffffff\n        /* \"#utility.yul\":5965:5971   */\n      dup2\n        /* \"#utility.yul\":5962:5992   */\n      gt\n        /* \"#utility.yul\":5959:6076   */\n      iszero\n      tag_513\n      jumpi\n        /* \"#utility.yul\":5995:6074   */\n      tag_514\n      tag_475\n      jump\t// in\n    tag_514:\n        /* \"#utility.yul\":5959:6076   */\n    tag_513:\n        /* \"#utility.yul\":6100:6163   */\n      tag_515\n        /* \"#utility.yul\":6155:6162   */\n      dup10\n        /* \"#utility.yul\":6146:6152   */\n      dup3\n        /* \"#utility.yul\":6135:6144   */\n      dup11\n        /* \"#utility.yul\":6131:6153   */\n      add\n        /* \"#utility.yul\":6100:6163   */\n      tag_454\n      jump\t// in\n    tag_515:\n        /* \"#utility.yul\":6090:6163   */\n      swap4\n      pop\n        /* \"#utility.yul\":5885:6173   */\n      pop\n        /* \"#utility.yul\":6240:6243   */\n      0x80\n        /* \"#utility.yul\":6229:6238   */\n      dup8\n        /* \"#utility.yul\":6225:6244   */\n      add\n        /* \"#utility.yul\":6212:6245   */\n      calldataload\n        /* \"#utility.yul\":6272:6290   */\n      0xffffffffffffffff\n        /* \"#utility.yul\":6264:6270   */\n      dup2\n        /* \"#utility.yul\":6261:6291   */\n      gt\n        /* \"#utility.yul\":6258:6375   */\n      iszero\n      tag_516\n      jumpi\n        /* \"#utility.yul\":6294:6373   */\n      tag_517\n      tag_475\n      jump\t// in\n    tag_517:\n        /* \"#utility.yul\":6258:6375   */\n    tag_516:\n        /* \"#utility.yul\":6399:6462   */\n      tag_518\n        /* \"#utility.yul\":6454:6461   */\n      dup10\n        /* \"#utility.yul\":6445:6451   */\n      dup3\n        /* \"#utility.yul\":6434:6443   */\n      dup11\n        /* \"#utility.yul\":6430:6452   */\n      add\n        /* \"#utility.yul\":6399:6462   */\n      tag_454\n      jump\t// in\n    tag_518:\n        /* \"#utility.yul\":6389:6462   */\n      swap3\n      pop\n        /* \"#utility.yul\":6183:6472   */\n      pop\n        /* \"#utility.yul\":6511:6514   */\n      0xa0\n        /* \"#utility.yul\":6538:6591   */\n      tag_519\n        /* \"#utility.yul\":6583:6590   */\n      dup10\n        /* \"#utility.yul\":6574:6580   */\n      dup3\n        /* \"#utility.yul\":6563:6572   */\n      dup11\n        /* \"#utility.yul\":6559:6581   */\n      add\n        /* \"#utility.yul\":6538:6591   */\n      tag_446\n      jump\t// in\n    tag_519:\n        /* \"#utility.yul\":6528:6591   */\n      swap2\n      pop\n        /* \"#utility.yul\":6482:6601   */\n      pop\n        /* \"#utility.yul\":4831:6608   */\n      swap3\n      swap6\n      pop\n      swap3\n      swap6\n      pop\n      swap3\n      swap6\n      jump\t// out\n        /* \"#utility.yul\":6614:8031   */\n    tag_135:\n        /* \"#utility.yul\":6738:6744   */\n      0x00\n        /* \"#utility.yul\":6746:6752   */\n      dup1\n        /* \"#utility.yul\":6754:6760   */\n      0x00\n        /* \"#utility.yul\":6762:6768   */\n      dup1\n        /* \"#utility.yul\":6770:6776   */\n      0x00\n        /* \"#utility.yul\":6778:6784   */\n      dup1\n        /* \"#utility.yul\":6827:6830   */\n      0xc0\n        /* \"#utility.yul\":6815:6824   */\n      dup8\n        /* \"#utility.yul\":6806:6813   */\n      dup10\n        /* \"#utility.yul\":6802:6825   */\n      sub\n        /* \"#utility.yul\":6798:6831   */\n      slt\n        /* \"#utility.yul\":6795:6915   */\n      iszero\n      tag_521\n      jumpi\n        /* \"#utility.yul\":6834:6913   */\n      tag_522\n      tag_467\n      jump\t// in\n    tag_522:\n        /* \"#utility.yul\":6795:6915   */\n    tag_521:\n        /* \"#utility.yul\":6954:6955   */\n      0x00\n        /* \"#utility.yul\":6979:7032   */\n      tag_523\n        /* \"#utility.yul\":7024:7031   */\n      dup10\n        /* \"#utility.yul\":7015:7021   */\n      dup3\n        /* \"#utility.yul\":7004:7013   */\n      dup11\n        /* \"#utility.yul\":7000:7022   */\n      add\n        /* \"#utility.yul\":6979:7032   */\n      tag_446\n      jump\t// in\n    tag_523:\n        /* \"#utility.yul\":6969:7032   */\n      swap7\n      pop\n        /* \"#utility.yul\":6925:7042   */\n      pop\n        /* \"#utility.yul\":7109:7111   */\n      0x20\n        /* \"#utility.yul\":7098:7107   */\n      dup8\n        /* \"#utility.yul\":7094:7112   */\n      add\n        /* \"#utility.yul\":7081:7113   */\n      calldataload\n        /* \"#utility.yul\":7140:7158   */\n      0xffffffffffffffff\n        /* \"#utility.yul\":7132:7138   */\n      dup2\n        /* \"#utility.yul\":7129:7159   */\n      gt\n        /* \"#utility.yul\":7126:7243   */\n      iszero\n      tag_524\n      jumpi\n        /* \"#utility.yul\":7162:7241   */\n      tag_525\n      tag_475\n      jump\t// in\n    tag_525:\n        /* \"#utility.yul\":7126:7243   */\n    tag_524:\n        /* \"#utility.yul\":7267:7330   */\n      tag_526\n        /* \"#utility.yul\":7322:7329   */\n      dup10\n        /* \"#utility.yul\":7313:7319   */\n      dup3\n        /* \"#utility.yul\":7302:7311   */\n      dup11\n        /* \"#utility.yul\":7298:7320   */\n      add\n        /* \"#utility.yul\":7267:7330   */\n      tag_454\n      jump\t// in\n    tag_526:\n        /* \"#utility.yul\":7257:7330   */\n      swap6\n      pop\n        /* \"#utility.yul\":7052:7340   */\n      pop\n        /* \"#utility.yul\":7407:7409   */\n      0x40\n        /* \"#utility.yul\":7396:7405   */\n      dup8\n        /* \"#utility.yul\":7392:7410   */\n      add\n        /* \"#utility.yul\":7379:7411   */\n      calldataload\n        /* \"#utility.yul\":7438:7456   */\n      0xffffffffffffffff\n        /* \"#utility.yul\":7430:7436   */\n      dup2\n        /* \"#utility.yul\":7427:7457   */\n      gt\n        /* \"#utility.yul\":7424:7541   */\n      iszero\n      tag_527\n      jumpi\n        /* \"#utility.yul\":7460:7539   */\n      tag_528\n      tag_475\n      jump\t// in\n    tag_528:\n        /* \"#utility.yul\":7424:7541   */\n    tag_527:\n        /* \"#utility.yul\":7565:7628   */\n      tag_529\n        /* \"#utility.yul\":7620:7627   */\n      dup10\n        /* \"#utility.yul\":7611:7617   */\n      dup3\n        /* \"#utility.yul\":7600:7609   */\n      dup11\n        /* \"#utility.yul\":7596:7618   */\n      add\n        /* \"#utility.yul\":7565:7628   */\n      tag_454\n      jump\t// in\n    tag_529:\n        /* \"#utility.yul\":7555:7628   */\n      swap5\n      pop\n        /* \"#utility.yul\":7350:7638   */\n      pop\n        /* \"#utility.yul\":7677:7679   */\n      0x60\n        /* \"#utility.yul\":7703:7756   */\n      tag_530\n        /* \"#utility.yul\":7748:7755   */\n      dup10\n        /* \"#utility.yul\":7739:7745   */\n      dup3\n        /* \"#utility.yul\":7728:7737   */\n      dup11\n        /* \"#utility.yul\":7724:7746   */\n      add\n        /* \"#utility.yul\":7703:7756   */\n      tag_460\n      jump\t// in\n    tag_530:\n        /* \"#utility.yul\":7693:7756   */\n      swap4\n      pop\n        /* \"#utility.yul\":7648:7766   */\n      pop\n        /* \"#utility.yul\":7805:7808   */\n      0x80\n        /* \"#utility.yul\":7832:7885   */\n      tag_531\n        /* \"#utility.yul\":7877:7884   */\n      dup10\n        /* \"#utility.yul\":7868:7874   */\n      dup3\n        /* \"#utility.yul\":7857:7866   */\n      dup11\n        /* \"#utility.yul\":7853:7875   */\n      add\n        /* \"#utility.yul\":7832:7885   */\n      tag_460\n      jump\t// in\n    tag_531:\n        /* \"#utility.yul\":7822:7885   */\n      swap3\n      pop\n        /* \"#utility.yul\":7776:7895   */\n      pop\n        /* \"#utility.yul\":7934:7937   */\n      0xa0\n        /* \"#utility.yul\":7961:8014   */\n      tag_532\n        /* \"#utility.yul\":8006:8013   */\n      dup10\n        /* \"#utility.yul\":7997:8003   */\n      dup3\n        /* \"#utility.yul\":7986:7995   */\n      dup11\n        /* \"#utility.yul\":7982:8004   */\n      add\n        /* \"#utility.yul\":7961:8014   */\n      tag_460\n      jump\t// in\n    tag_532:\n        /* \"#utility.yul\":7951:8014   */\n      swap2\n      pop\n        /* \"#utility.yul\":7905:8024   */\n      pop\n        /* \"#utility.yul\":6614:8031   */\n      swap3\n      swap6\n      pop\n      swap3\n      swap6\n      pop\n      swap3\n      swap6\n      jump\t// out\n        /* \"#utility.yul\":8037:8511   */\n    tag_66:\n        /* \"#utility.yul\":8105:8111   */\n      0x00\n        /* \"#utility.yul\":8113:8119   */\n      dup1\n        /* \"#utility.yul\":8162:8164   */\n      0x40\n        /* \"#utility.yul\":8150:8159   */\n      dup4\n        /* \"#utility.yul\":8141:8148   */\n      dup6\n        /* \"#utility.yul\":8137:8160   */\n      sub\n        /* \"#utility.yul\":8133:8165   */\n      slt\n        /* \"#utility.yul\":8130:8249   */\n      iszero\n      tag_534\n      jumpi\n        /* \"#utility.yul\":8168:8247   */\n      tag_535\n      tag_467\n      jump\t// in\n    tag_535:\n        /* \"#utility.yul\":8130:8249   */\n    tag_534:\n        /* \"#utility.yul\":8288:8289   */\n      0x00\n        /* \"#utility.yul\":8313:8366   */\n      tag_536\n        /* \"#utility.yul\":8358:8365   */\n      dup6\n        /* \"#utility.yul\":8349:8355   */\n      dup3\n        /* \"#utility.yul\":8338:8347   */\n      dup7\n        /* \"#utility.yul\":8334:8356   */\n      add\n        /* \"#utility.yul\":8313:8366   */\n      tag_446\n      jump\t// in\n    tag_536:\n        /* \"#utility.yul\":8303:8366   */\n      swap3\n      pop\n        /* \"#utility.yul\":8259:8376   */\n      pop\n        /* \"#utility.yul\":8415:8417   */\n      0x20\n        /* \"#utility.yul\":8441:8494   */\n      tag_537\n        /* \"#utility.yul\":8486:8493   */\n      dup6\n        /* \"#utility.yul\":8477:8483   */\n      dup3\n        /* \"#utility.yul\":8466:8475   */\n      dup7\n        /* \"#utility.yul\":8462:8484   */\n      add\n        /* \"#utility.yul\":8441:8494   */\n      tag_460\n      jump\t// in\n    tag_537:\n        /* \"#utility.yul\":8431:8494   */\n      swap2\n      pop\n        /* \"#utility.yul\":8386:8504   */\n      pop\n        /* \"#utility.yul\":8037:8511   */\n      swap3\n      pop\n      swap3\n      swap1\n      pop\n      jump\t// out\n        /* \"#utility.yul\":8517:9026   */\n    tag_75:\n        /* \"#utility.yul\":8586:8592   */\n      0x00\n        /* \"#utility.yul\":8635:8637   */\n      0x20\n        /* \"#utility.yul\":8623:8632   */\n      dup3\n        /* \"#utility.yul\":8614:8621   */\n      dup5\n        /* \"#utility.yul\":8610:8633   */\n      sub\n        /* \"#utility.yul\":8606:8638   */\n      slt\n        /* \"#utility.yul\":8603:8722   */\n      iszero\n      tag_539\n      jumpi\n        /* \"#utility.yul\":8641:8720   */\n      tag_540\n      tag_467\n      jump\t// in\n    tag_540:\n        /* \"#utility.yul\":8603:8722   */\n    tag_539:\n        /* \"#utility.yul\":8789:8790   */\n      0x00\n        /* \"#utility.yul\":8778:8787   */\n      dup3\n        /* \"#utility.yul\":8774:8791   */\n      add\n        /* \"#utility.yul\":8761:8792   */\n      calldataload\n        /* \"#utility.yul\":8819:8837   */\n      0xffffffffffffffff\n        /* \"#utility.yul\":8811:8817   */\n      dup2\n        /* \"#utility.yul\":8808:8838   */\n      gt\n        /* \"#utility.yul\":8805:8922   */\n      iszero\n      tag_541\n      jumpi\n        /* \"#utility.yul\":8841:8920   */\n      tag_542\n      tag_475\n      jump\t// in\n    tag_542:\n        /* \"#utility.yul\":8805:8922   */\n    tag_541:\n        /* \"#utility.yul\":8946:9009   */\n      tag_543\n        /* \"#utility.yul\":9001:9008   */\n      dup5\n        /* \"#utility.yul\":8992:8998   */\n      dup3\n        /* \"#utility.yul\":8981:8990   */\n      dup6\n        /* \"#utility.yul\":8977:8999   */\n      add\n        /* \"#utility.yul\":8946:9009   */\n      tag_454\n      jump\t// in\n    tag_543:\n        /* \"#utility.yul\":8936:9009   */\n      swap2\n      pop\n        /* \"#utility.yul\":8732:9019   */\n      pop\n        /* \"#utility.yul\":8517:9026   */\n      swap3\n      swap2\n      pop\n      pop\n      jump\t// out\n        /* \"#utility.yul\":9032:9686   */\n    tag_106:\n        /* \"#utility.yul\":9110:9116   */\n      0x00\n        /* \"#utility.yul\":9118:9124   */\n      dup1\n        /* \"#utility.yul\":9167:9169   */\n      0x40\n        /* \"#utility.yul\":9155:9164   */\n      dup4\n        /* \"#utility.yul\":9146:9153   */\n      dup6\n        /* \"#utility.yul\":9142:9165   */\n      sub\n        /* \"#utility.yul\":9138:9170   */\n      slt\n        /* \"#utility.yul\":9135:9254   */\n      iszero\n      tag_545\n      jumpi\n        /* \"#utility.yul\":9173:9252   */\n      tag_546\n      tag_467\n      jump\t// in\n    tag_546:\n        /* \"#utility.yul\":9135:9254   */\n    tag_545:\n        /* \"#utility.yul\":9321:9322   */\n      0x00\n        /* \"#utility.yul\":9310:9319   */\n      dup4\n        /* \"#utility.yul\":9306:9323   */\n      add\n        /* \"#utility.yul\":9293:9324   */\n      calldataload\n        /* \"#utility.yul\":9351:9369   */\n      0xffffffffffffffff\n        /* \"#utility.yul\":9343:9349   */\n      dup2\n        /* \"#utility.yul\":9340:9370   */\n      gt\n        /* \"#utility.yul\":9337:9454   */\n      iszero\n      tag_547\n      jumpi\n        /* \"#utility.yul\":9373:9452   */\n      tag_548\n      tag_475\n      jump\t// in\n    tag_548:\n        /* \"#utility.yul\":9337:9454   */\n    tag_547:\n        /* \"#utility.yul\":9478:9541   */\n      tag_549\n        /* \"#utility.yul\":9533:9540   */\n      dup6\n        /* \"#utility.yul\":9524:9530   */\n      dup3\n        /* \"#utility.yul\":9513:9522   */\n      dup7\n        /* \"#utility.yul\":9509:9531   */\n      add\n        /* \"#utility.yul\":9478:9541   */\n      tag_454\n      jump\t// in\n    tag_549:\n        /* \"#utility.yul\":9468:9541   */\n      swap3\n      pop\n        /* \"#utility.yul\":9264:9551   */\n      pop\n        /* \"#utility.yul\":9590:9592   */\n      0x20\n        /* \"#utility.yul\":9616:9669   */\n      tag_550\n        /* \"#utility.yul\":9661:9668   */\n      dup6\n        /* \"#utility.yul\":9652:9658   */\n      dup3\n        /* \"#utility.yul\":9641:9650   */\n      dup7\n        /* \"#utility.yul\":9637:9659   */\n      add\n        /* \"#utility.yul\":9616:9669   */\n      tag_446\n      jump\t// in\n    tag_550:\n        /* \"#utility.yul\":9606:9669   */\n      swap2\n      pop\n        /* \"#utility.yul\":9561:9679   */\n      pop\n        /* \"#utility.yul\":9032:9686   */\n      swap3\n      pop\n      swap3\n      swap1\n      pop\n      jump\t// out\n        /* \"#utility.yul\":9692:10340   */\n    tag_95:\n        /* \"#utility.yul\":9767:9773   */\n      0x00\n        /* \"#utility.yul\":9775:9781   */\n      dup1\n        /* \"#utility.yul\":9824:9826   */\n      0x40\n        /* \"#utility.yul\":9812:9821   */\n      dup4\n        /* \"#utility.yul\":9803:9810   */\n      dup6\n        /* \"#utility.yul\":9799:9822   */\n      sub\n        /* \"#utility.yul\":9795:9827   */\n      slt\n        /* \"#utility.yul\":9792:9911   */\n      iszero\n      tag_552\n      jumpi\n        /* \"#utility.yul\":9830:9909   */\n      tag_553\n      tag_467\n      jump\t// in\n    tag_553:\n        /* \"#utility.yul\":9792:9911   */\n    tag_552:\n        /* \"#utility.yul\":9978:9979   */\n      0x00\n        /* \"#utility.yul\":9967:9976   */\n      dup4\n        /* \"#utility.yul\":9963:9980   */\n      add\n        /* \"#utility.yul\":9950:9981   */\n      calldataload\n        /* \"#utility.yul\":10008:10026   */\n      0xffffffffffffffff\n        /* \"#utility.yul\":10000:10006   */\n      dup2\n        /* \"#utility.yul\":9997:10027   */\n      gt\n        /* \"#utility.yul\":9994:10111   */\n      iszero\n      tag_554\n      jumpi\n        /* \"#utility.yul\":10030:10109   */\n      tag_555\n      tag_475\n      jump\t// in\n    tag_555:\n        /* \"#utility.yul\":9994:10111   */\n    tag_554:\n        /* \"#utility.yul\":10135:10198   */\n      tag_556\n        /* \"#utility.yul\":10190:10197   */\n      dup6\n        /* \"#utility.yul\":10181:10187   */\n      dup3\n        /* \"#utility.yul\":10170:10179   */\n      dup7\n        /* \"#utility.yul\":10166:10188   */\n      add\n        /* \"#utility.yul\":10135:10198   */\n      tag_454\n      jump\t// in\n    tag_556:\n        /* \"#utility.yul\":10125:10198   */\n      swap3\n      pop\n        /* \"#utility.yul\":9921:10208   */\n      pop\n        /* \"#utility.yul\":10247:10249   */\n      0x20\n        /* \"#utility.yul\":10273:10323   */\n      tag_557\n        /* \"#utility.yul\":10315:10322   */\n      dup6\n        /* \"#utility.yul\":10306:10312   */\n      dup3\n        /* \"#utility.yul\":10295:10304   */\n      dup7\n        /* \"#utility.yul\":10291:10313   */\n      add\n        /* \"#utility.yul\":10273:10323   */\n      tag_450\n      jump\t// in\n    tag_557:\n        /* \"#utility.yul\":10263:10323   */\n      swap2\n      pop\n        /* \"#utility.yul\":10218:10333   */\n      pop\n        /* \"#utility.yul\":9692:10340   */\n      swap3\n      pop\n      swap3\n      swap1\n      pop\n      jump\t// out\n        /* \"#utility.yul\":10346:11180   */\n    tag_57:\n        /* \"#utility.yul\":10434:10440   */\n      0x00\n        /* \"#utility.yul\":10442:10448   */\n      dup1\n        /* \"#utility.yul\":10491:10493   */\n      0x40\n        /* \"#utility.yul\":10479:10488   */\n      dup4\n        /* \"#utility.yul\":10470:10477   */\n      dup6\n        /* \"#utility.yul\":10466:10489   */\n      sub\n        /* \"#utility.yul\":10462:10494   */\n      slt\n        /* \"#utility.yul\":10459:10578   */\n      iszero\n      tag_559\n      jumpi\n        /* \"#utility.yul\":10497:10576   */\n      tag_560\n      tag_467\n      jump\t// in\n    tag_560:\n        /* \"#utility.yul\":10459:10578   */\n    tag_559:\n        /* \"#utility.yul\":10645:10646   */\n      0x00\n        /* \"#utility.yul\":10634:10643   */\n      dup4\n        /* \"#utility.yul\":10630:10647   */\n      add\n        /* \"#utility.yul\":10617:10648   */\n      calldataload\n        /* \"#utility.yul\":10675:10693   */\n      0xffffffffffffffff\n        /* \"#utility.yul\":10667:10673   */\n      dup2\n        /* \"#utility.yul\":10664:10694   */\n      gt\n        /* \"#utility.yul\":10661:10778   */\n      iszero\n      tag_561\n      jumpi\n        /* \"#utility.yul\":10697:10776   */\n      tag_562\n      tag_475\n      jump\t// in\n    tag_562:\n        /* \"#utility.yul\":10661:10778   */\n    tag_561:\n        /* \"#utility.yul\":10802:10865   */\n      tag_563\n        /* \"#utility.yul\":10857:10864   */\n      dup6\n        /* \"#utility.yul\":10848:10854   */\n      dup3\n        /* \"#utility.yul\":10837:10846   */\n      dup7\n        /* \"#utility.yul\":10833:10855   */\n      add\n        /* \"#utility.yul\":10802:10865   */\n      tag_454\n      jump\t// in\n    tag_563:\n        /* \"#utility.yul\":10792:10865   */\n      swap3\n      pop\n        /* \"#utility.yul\":10588:10875   */\n      pop\n        /* \"#utility.yul\":10942:10944   */\n      0x20\n        /* \"#utility.yul\":10931:10940   */\n      dup4\n        /* \"#utility.yul\":10927:10945   */\n      add\n        /* \"#utility.yul\":10914:10946   */\n      calldataload\n        /* \"#utility.yul\":10973:10991   */\n      0xffffffffffffffff\n        /* \"#utility.yul\":10965:10971   */\n      dup2\n        /* \"#utility.yul\":10962:10992   */\n      gt\n        /* \"#utility.yul\":10959:11076   */\n      iszero\n      tag_564\n      jumpi\n        /* \"#utility.yul\":10995:11074   */\n      tag_565\n      tag_475\n      jump\t// in\n    tag_565:\n        /* \"#utility.yul\":10959:11076   */\n    tag_564:\n        /* \"#utility.yul\":11100:11163   */\n      tag_566\n        /* \"#utility.yul\":11155:11162   */\n      dup6\n        /* \"#utility.yul\":11146:11152   */\n      dup3\n        /* \"#utility.yul\":11135:11144   */\n      dup7\n        /* \"#utility.yul\":11131:11153   */\n      add\n        /* \"#utility.yul\":11100:11163   */\n      tag_454\n      jump\t// in\n    tag_566:\n        /* \"#utility.yul\":11090:11163   */\n      swap2\n      pop\n        /* \"#utility.yul\":10885:11173   */\n      pop\n        /* \"#utility.yul\":10346:11180   */\n      swap3\n      pop\n      swap3\n      swap1\n      pop\n      jump\t// out\n        /* \"#utility.yul\":11186:12485   */\n    tag_131:\n        /* \"#utility.yul\":11299:11305   */\n      0x00\n        /* \"#utility.yul\":11307:11313   */\n      dup1\n        /* \"#utility.yul\":11315:11321   */\n      0x00\n        /* \"#utility.yul\":11323:11329   */\n      dup1\n        /* \"#utility.yul\":11372:11375   */\n      0x80\n        /* \"#utility.yul\":11360:11369   */\n      dup6\n        /* \"#utility.yul\":11351:11358   */\n      dup8\n        /* \"#utility.yul\":11347:11370   */\n      sub\n        /* \"#utility.yul\":11343:11376   */\n      slt\n        /* \"#utility.yul\":11340:11460   */\n      iszero\n      tag_568\n      jumpi\n        /* \"#utility.yul\":11379:11458   */\n      tag_569\n      tag_467\n      jump\t// in\n    tag_569:\n        /* \"#utility.yul\":11340:11460   */\n    tag_568:\n        /* \"#utility.yul\":11527:11528   */\n      0x00\n        /* \"#utility.yul\":11516:11525   */\n      dup6\n        /* \"#utility.yul\":11512:11529   */\n      add\n        /* \"#utility.yul\":11499:11530   */\n      calldataload\n        /* \"#utility.yul\":11557:11575   */\n      0xffffffffffffffff\n        /* \"#utility.yul\":11549:11555   */\n      dup2\n        /* \"#utility.yul\":11546:11576   */\n      gt\n        /* \"#utility.yul\":11543:11660   */\n      iszero\n      tag_570\n      jumpi\n        /* \"#utility.yul\":11579:11658   */\n      tag_571\n      tag_475\n      jump\t// in\n    tag_571:\n        /* \"#utility.yul\":11543:11660   */\n    tag_570:\n        /* \"#utility.yul\":11684:11747   */\n      tag_572\n        /* \"#utility.yul\":11739:11746   */\n      dup8\n        /* \"#utility.yul\":11730:11736   */\n      dup3\n        /* \"#utility.yul\":11719:11728   */\n      dup9\n        /* \"#utility.yul\":11715:11737   */\n      add\n        /* \"#utility.yul\":11684:11747   */\n      tag_454\n      jump\t// in\n    tag_572:\n        /* \"#utility.yul\":11674:11747   */\n      swap5\n      pop\n        /* \"#utility.yul\":11470:11757   */\n      pop\n        /* \"#utility.yul\":11824:11826   */\n      0x20\n        /* \"#utility.yul\":11813:11822   */\n      dup6\n        /* \"#utility.yul\":11809:11827   */\n      add\n        /* \"#utility.yul\":11796:11828   */\n      calldataload\n        /* \"#utility.yul\":11855:11873   */\n      0xffffffffffffffff\n        /* \"#utility.yul\":11847:11853   */\n      dup2\n        /* \"#utility.yul\":11844:11874   */\n      gt\n        /* \"#utility.yul\":11841:11958   */\n      iszero\n      tag_573\n      jumpi\n        /* \"#utility.yul\":11877:11956   */\n      tag_574\n      tag_475\n      jump\t// in\n    tag_574:\n        /* \"#utility.yul\":11841:11958   */\n    tag_573:\n        /* \"#utility.yul\":11982:12045   */\n      tag_575\n        /* \"#utility.yul\":12037:12044   */\n      dup8\n        /* \"#utility.yul\":12028:12034   */\n      dup3\n        /* \"#utility.yul\":12017:12026   */\n      dup9\n        /* \"#utility.yul\":12013:12035   */\n      add\n        /* \"#utility.yul\":11982:12045   */\n      tag_454\n      jump\t// in\n    tag_575:\n        /* \"#utility.yul\":11972:12045   */\n      swap4\n      pop\n        /* \"#utility.yul\":11767:12055   */\n      pop\n        /* \"#utility.yul\":12122:12124   */\n      0x40\n        /* \"#utility.yul\":12111:12120   */\n      dup6\n        /* \"#utility.yul\":12107:12125   */\n      add\n        /* \"#utility.yul\":12094:12126   */\n      calldataload\n        /* \"#utility.yul\":12153:12171   */\n      0xffffffffffffffff\n        /* \"#utility.yul\":12145:12151   */\n      dup2\n        /* \"#utility.yul\":12142:12172   */\n      gt\n        /* \"#utility.yul\":12139:12256   */\n      iszero\n      tag_576\n      jumpi\n        /* \"#utility.yul\":12175:12254   */\n      tag_577\n      tag_475\n      jump\t// in\n    tag_577:\n        /* \"#utility.yul\":12139:12256   */\n    tag_576:\n        /* \"#utility.yul\":12280:12343   */\n      tag_578\n        /* \"#utility.yul\":12335:12342   */\n      dup8\n        /* \"#utility.yul\":12326:12332   */\n      dup3\n        /* \"#utility.yul\":12315:12324   */\n      dup9\n        /* \"#utility.yul\":12311:12333   */\n      add\n        /* \"#utility.yul\":12280:12343   */\n      tag_454\n      jump\t// in\n    tag_578:\n        /* \"#utility.yul\":12270:12343   */\n      swap3\n      pop\n        /* \"#utility.yul\":12065:12353   */\n      pop\n        /* \"#utility.yul\":12392:12394   */\n      0x60\n        /* \"#utility.yul\":12418:12468   */\n      tag_579\n        /* \"#utility.yul\":12460:12467   */\n      dup8\n        /* \"#utility.yul\":12451:12457   */\n      dup3\n        /* \"#utility.yul\":12440:12449   */\n      dup9\n        /* \"#utility.yul\":12436:12458   */\n      add\n        /* \"#utility.yul\":12418:12468   */\n      tag_450\n      jump\t// in\n    tag_579:\n        /* \"#utility.yul\":12408:12468   */\n      swap2\n      pop\n        /* \"#utility.yul\":12363:12478   */\n      pop\n        /* \"#utility.yul\":11186:12485   */\n      swap3\n      swap6\n      swap2\n      swap5\n      pop\n      swap3\n      pop\n      jump\t// out\n        /* \"#utility.yul\":12491:12670   */\n    tag_580:\n        /* \"#utility.yul\":12560:12570   */\n      0x00\n        /* \"#utility.yul\":12581:12627   */\n      tag_582\n        /* \"#utility.yul\":12623:12626   */\n      dup4\n        /* \"#utility.yul\":12615:12621   */\n      dup4\n        /* \"#utility.yul\":12581:12627   */\n      tag_583\n      jump\t// in\n    tag_582:\n        /* \"#utility.yul\":12659:12663   */\n      0x20\n        /* \"#utility.yul\":12654:12657   */\n      dup4\n        /* \"#utility.yul\":12650:12664   */\n      add\n        /* \"#utility.yul\":12636:12664   */\n      swap1\n      pop\n        /* \"#utility.yul\":12491:12670   */\n      swap3\n      swap2\n      pop\n      pop\n      jump\t// out\n        /* \"#utility.yul\":12676:12872   */\n    tag_584:\n        /* \"#utility.yul\":12765:12775   */\n      0x00\n        /* \"#utility.yul\":12800:12866   */\n      tag_586\n        /* \"#utility.yul\":12862:12865   */\n      dup4\n        /* \"#utility.yul\":12854:12860   */\n      dup4\n        /* \"#utility.yul\":12800:12866   */\n      tag_587\n      jump\t// in\n    tag_586:\n        /* \"#utility.yul\":12786:12866   */\n      swap1\n      pop\n        /* \"#utility.yul\":12676:12872   */\n      swap3\n      swap2\n      pop\n      pop\n      jump\t// out\n        /* \"#utility.yul\":12878:12986   */\n    tag_583:\n        /* \"#utility.yul\":12955:12979   */\n      tag_589\n        /* \"#utility.yul\":12973:12978   */\n      dup2\n        /* \"#utility.yul\":12955:12979   */\n      tag_590\n      jump\t// in\n    tag_589:\n        /* \"#utility.yul\":12950:12953   */\n      dup3\n        /* \"#utility.yul\":12943:12980   */\n      mstore\n        /* \"#utility.yul\":12878:12986   */\n      pop\n      pop\n      jump\t// out\n        /* \"#utility.yul\":12992:13110   */\n    tag_591:\n        /* \"#utility.yul\":13079:13103   */\n      tag_593\n        /* \"#utility.yul\":13097:13102   */\n      dup2\n        /* \"#utility.yul\":13079:13103   */\n      tag_590\n      jump\t// in\n    tag_593:\n        /* \"#utility.yul\":13074:13077   */\n      dup3\n        /* \"#utility.yul\":13067:13104   */\n      mstore\n        /* \"#utility.yul\":12992:13110   */\n      pop\n      pop\n      jump\t// out\n        /* \"#utility.yul\":13146:13878   */\n    tag_594:\n        /* \"#utility.yul\":13265:13268   */\n      0x00\n        /* \"#utility.yul\":13294:13348   */\n      tag_596\n        /* \"#utility.yul\":13342:13347   */\n      dup3\n        /* \"#utility.yul\":13294:13348   */\n      tag_597\n      jump\t// in\n    tag_596:\n        /* \"#utility.yul\":13364:13450   */\n      tag_598\n        /* \"#utility.yul\":13443:13449   */\n      dup2\n        /* \"#utility.yul\":13438:13441   */\n      dup6\n        /* \"#utility.yul\":13364:13450   */\n      tag_599\n      jump\t// in\n    tag_598:\n        /* \"#utility.yul\":13357:13450   */\n      swap4\n      pop\n        /* \"#utility.yul\":13474:13530   */\n      tag_600\n        /* \"#utility.yul\":13524:13529   */\n      dup4\n        /* \"#utility.yul\":13474:13530   */\n      tag_601\n      jump\t// in\n    tag_600:\n        /* \"#utility.yul\":13553:13560   */\n      dup1\n        /* \"#utility.yul\":13584:13585   */\n      0x00\n        /* \"#utility.yul\":13569:13853   */\n    tag_602:\n        /* \"#utility.yul\":13594:13600   */\n      dup4\n        /* \"#utility.yul\":13591:13592   */\n      dup2\n        /* \"#utility.yul\":13588:13601   */\n      lt\n        /* \"#utility.yul\":13569:13853   */\n      iszero\n      tag_604\n      jumpi\n        /* \"#utility.yul\":13670:13676   */\n      dup2\n        /* \"#utility.yul\":13664:13677   */\n      mload\n        /* \"#utility.yul\":13697:13760   */\n      tag_605\n        /* \"#utility.yul\":13756:13759   */\n      dup9\n        /* \"#utility.yul\":13741:13754   */\n      dup3\n        /* \"#utility.yul\":13697:13760   */\n      tag_580\n      jump\t// in\n    tag_605:\n        /* \"#utility.yul\":13690:13760   */\n      swap8\n      pop\n        /* \"#utility.yul\":13783:13843   */\n      tag_606\n        /* \"#utility.yul\":13836:13842   */\n      dup4\n        /* \"#utility.yul\":13783:13843   */\n      tag_607\n      jump\t// in\n    tag_606:\n        /* \"#utility.yul\":13773:13843   */\n      swap3\n      pop\n        /* \"#utility.yul\":13629:13853   */\n      pop\n        /* \"#utility.yul\":13616:13617   */\n      0x01\n        /* \"#utility.yul\":13613:13614   */\n      dup2\n        /* \"#utility.yul\":13609:13618   */\n      add\n        /* \"#utility.yul\":13604:13618   */\n      swap1\n      pop\n        /* \"#utility.yul\":13569:13853   */\n      jump(tag_602)\n    tag_604:\n        /* \"#utility.yul\":13573:13587   */\n      pop\n        /* \"#utility.yul\":13869:13872   */\n      dup6\n        /* \"#utility.yul\":13862:13872   */\n      swap4\n      pop\n        /* \"#utility.yul\":13270:13878   */\n      pop\n      pop\n      pop\n        /* \"#utility.yul\":13146:13878   */\n      swap3\n      swap2\n      pop\n      pop\n      jump\t// out\n        /* \"#utility.yul\":13912:14903   */\n    tag_608:\n        /* \"#utility.yul\":14051:14054   */\n      0x00\n        /* \"#utility.yul\":14080:14144   */\n      tag_610\n        /* \"#utility.yul\":14138:14143   */\n      dup3\n        /* \"#utility.yul\":14080:14144   */\n      tag_611\n      jump\t// in\n    tag_610:\n        /* \"#utility.yul\":14160:14256   */\n      tag_612\n        /* \"#utility.yul\":14249:14255   */\n      dup2\n        /* \"#utility.yul\":14244:14247   */\n      dup6\n        /* \"#utility.yul\":14160:14256   */\n      tag_613\n      jump\t// in\n    tag_612:\n        /* \"#utility.yul\":14153:14256   */\n      swap4\n      pop\n        /* \"#utility.yul\":14282:14285   */\n      dup4\n        /* \"#utility.yul\":14327:14331   */\n      0x20\n        /* \"#utility.yul\":14319:14325   */\n      dup3\n        /* \"#utility.yul\":14315:14332   */\n      mul\n        /* \"#utility.yul\":14310:14313   */\n      dup6\n        /* \"#utility.yul\":14306:14333   */\n      add\n        /* \"#utility.yul\":14357:14423   */\n      tag_614\n        /* \"#utility.yul\":14417:14422   */\n      dup6\n        /* \"#utility.yul\":14357:14423   */\n      tag_615\n      jump\t// in\n    tag_614:\n        /* \"#utility.yul\":14446:14453   */\n      dup1\n        /* \"#utility.yul\":14477:14478   */\n      0x00\n        /* \"#utility.yul\":14462:14858   */\n    tag_616:\n        /* \"#utility.yul\":14487:14493   */\n      dup6\n        /* \"#utility.yul\":14484:14485   */\n      dup2\n        /* \"#utility.yul\":14481:14494   */\n      lt\n        /* \"#utility.yul\":14462:14858   */\n      iszero\n      tag_618\n      jumpi\n        /* \"#utility.yul\":14558:14567   */\n      dup5\n        /* \"#utility.yul\":14552:14556   */\n      dup5\n        /* \"#utility.yul\":14548:14568   */\n      sub\n        /* \"#utility.yul\":14543:14546   */\n      dup10\n        /* \"#utility.yul\":14536:14569   */\n      mstore\n        /* \"#utility.yul\":14609:14615   */\n      dup2\n        /* \"#utility.yul\":14603:14616   */\n      mload\n        /* \"#utility.yul\":14637:14721   */\n      tag_619\n        /* \"#utility.yul\":14716:14720   */\n      dup6\n        /* \"#utility.yul\":14701:14714   */\n      dup3\n        /* \"#utility.yul\":14637:14721   */\n      tag_584\n      jump\t// in\n    tag_619:\n        /* \"#utility.yul\":14629:14721   */\n      swap5\n      pop\n        /* \"#utility.yul\":14744:14814   */\n      tag_620\n        /* \"#utility.yul\":14807:14813   */\n      dup4\n        /* \"#utility.yul\":14744:14814   */\n      tag_621\n      jump\t// in\n    tag_620:\n        /* \"#utility.yul\":14734:14814   */\n      swap3\n      pop\n        /* \"#utility.yul\":14843:14847   */\n      0x20\n        /* \"#utility.yul\":14838:14841   */\n      dup11\n        /* \"#utility.yul\":14834:14848   */\n      add\n        /* \"#utility.yul\":14827:14848   */\n      swap10\n      pop\n        /* \"#utility.yul\":14522:14858   */\n      pop\n        /* \"#utility.yul\":14509:14510   */\n      0x01\n        /* \"#utility.yul\":14506:14507   */\n      dup2\n        /* \"#utility.yul\":14502:14511   */\n      add\n        /* \"#utility.yul\":14497:14511   */\n      swap1\n      pop\n        /* \"#utility.yul\":14462:14858   */\n      jump(tag_616)\n    tag_618:\n        /* \"#utility.yul\":14466:14480   */\n      pop\n        /* \"#utility.yul\":14874:14878   */\n      dup3\n        /* \"#utility.yul\":14867:14878   */\n      swap8\n      pop\n        /* \"#utility.yul\":14894:14897   */\n      dup8\n        /* \"#utility.yul\":14887:14897   */\n      swap6\n      pop\n        /* \"#utility.yul\":14056:14903   */\n      pop\n      pop\n      pop\n      pop\n      pop\n        /* \"#utility.yul\":13912:14903   */\n      swap3\n      swap2\n      pop\n      pop\n      jump\t// out\n        /* \"#utility.yul\":14909:15018   */\n    tag_622:\n        /* \"#utility.yul\":14990:15011   */\n      tag_624\n        /* \"#utility.yul\":15005:15010   */\n      dup2\n        /* \"#utility.yul\":14990:15011   */\n      tag_625\n      jump\t// in\n    tag_624:\n        /* \"#utility.yul\":14985:14988   */\n      dup3\n        /* \"#utility.yul\":14978:15012   */\n      mstore\n        /* \"#utility.yul\":14909:15018   */\n      pop\n      pop\n      jump\t// out\n        /* \"#utility.yul\":15024:15368   */\n    tag_587:\n        /* \"#utility.yul\":15102:15105   */\n      0x00\n        /* \"#utility.yul\":15130:15169   */\n      tag_627\n        /* \"#utility.yul\":15163:15168   */\n      dup3\n        /* \"#utility.yul\":15130:15169   */\n      tag_628\n      jump\t// in\n    tag_627:\n        /* \"#utility.yul\":15185:15246   */\n      tag_629\n        /* \"#utility.yul\":15239:15245   */\n      dup2\n        /* \"#utility.yul\":15234:15237   */\n      dup6\n        /* \"#utility.yul\":15185:15246   */\n      tag_630\n      jump\t// in\n    tag_629:\n        /* \"#utility.yul\":15178:15246   */\n      swap4\n      pop\n        /* \"#utility.yul\":15255:15307   */\n      tag_631\n        /* \"#utility.yul\":15300:15306   */\n      dup2\n        /* \"#utility.yul\":15295:15298   */\n      dup6\n        /* \"#utility.yul\":15288:15292   */\n      0x20\n        /* \"#utility.yul\":15281:15286   */\n      dup7\n        /* \"#utility.yul\":15277:15293   */\n      add\n        /* \"#utility.yul\":15255:15307   */\n      tag_632\n      jump\t// in\n    tag_631:\n        /* \"#utility.yul\":15332:15361   */\n      tag_633\n        /* \"#utility.yul\":15354:15360   */\n      dup2\n        /* \"#utility.yul\":15332:15361   */\n      tag_634\n      jump\t// in\n    tag_633:\n        /* \"#utility.yul\":15327:15330   */\n      dup5\n        /* \"#utility.yul\":15323:15362   */\n      add\n        /* \"#utility.yul\":15316:15362   */\n      swap2\n      pop\n        /* \"#utility.yul\":15106:15368   */\n      pop\n        /* \"#utility.yul\":15024:15368   */\n      swap3\n      swap2\n      pop\n      pop\n      jump\t// out\n        /* \"#utility.yul\":15374:15738   */\n    tag_635:\n        /* \"#utility.yul\":15462:15465   */\n      0x00\n        /* \"#utility.yul\":15490:15529   */\n      tag_637\n        /* \"#utility.yul\":15523:15528   */\n      dup3\n        /* \"#utility.yul\":15490:15529   */\n      tag_628\n      jump\t// in\n    tag_637:\n        /* \"#utility.yul\":15545:15616   */\n      tag_638\n        /* \"#utility.yul\":15609:15615   */\n      dup2\n        /* \"#utility.yul\":15604:15607   */\n      dup6\n        /* \"#utility.yul\":15545:15616   */\n      tag_639\n      jump\t// in\n    tag_638:\n        /* \"#utility.yul\":15538:15616   */\n      swap4\n      pop\n        /* \"#utility.yul\":15625:15677   */\n      tag_640\n        /* \"#utility.yul\":15670:15676   */\n      dup2\n        /* \"#utility.yul\":15665:15668   */\n      dup6\n        /* \"#utility.yul\":15658:15662   */\n      0x20\n        /* \"#utility.yul\":15651:15656   */\n      dup7\n        /* \"#utility.yul\":15647:15663   */\n      add\n        /* \"#utility.yul\":15625:15677   */\n      tag_632\n      jump\t// in\n    tag_640:\n        /* \"#utility.yul\":15702:15731   */\n      tag_641\n        /* \"#utility.yul\":15724:15730   */\n      dup2\n        /* \"#utility.yul\":15702:15731   */\n      tag_634\n      jump\t// in\n    tag_641:\n        /* \"#utility.yul\":15697:15700   */\n      dup5\n        /* \"#utility.yul\":15693:15732   */\n      add\n        /* \"#utility.yul\":15686:15732   */\n      swap2\n      pop\n        /* \"#utility.yul\":15466:15738   */\n      pop\n        /* \"#utility.yul\":15374:15738   */\n      swap3\n      swap2\n      pop\n      pop\n      jump\t// out\n        /* \"#utility.yul\":15744:16121   */\n    tag_642:\n        /* \"#utility.yul\":15850:15853   */\n      0x00\n        /* \"#utility.yul\":15878:15917   */\n      tag_644\n        /* \"#utility.yul\":15911:15916   */\n      dup3\n        /* \"#utility.yul\":15878:15917   */\n      tag_628\n      jump\t// in\n    tag_644:\n        /* \"#utility.yul\":15933:16022   */\n      tag_645\n        /* \"#utility.yul\":16015:16021   */\n      dup2\n        /* \"#utility.yul\":16010:16013   */\n      dup6\n        /* \"#utility.yul\":15933:16022   */\n      tag_646\n      jump\t// in\n    tag_645:\n        /* \"#utility.yul\":15926:16022   */\n      swap4\n      pop\n        /* \"#utility.yul\":16031:16083   */\n      tag_647\n        /* \"#utility.yul\":16076:16082   */\n      dup2\n        /* \"#utility.yul\":16071:16074   */\n      dup6\n        /* \"#utility.yul\":16064:16068   */\n      0x20\n        /* \"#utility.yul\":16057:16062   */\n      dup7\n        /* \"#utility.yul\":16053:16069   */\n      add\n        /* \"#utility.yul\":16031:16083   */\n      tag_632\n      jump\t// in\n    tag_647:\n        /* \"#utility.yul\":16108:16114   */\n      dup1\n        /* \"#utility.yul\":16103:16106   */\n      dup5\n        /* \"#utility.yul\":16099:16115   */\n      add\n        /* \"#utility.yul\":16092:16115   */\n      swap2\n      pop\n        /* \"#utility.yul\":15854:16121   */\n      pop\n        /* \"#utility.yul\":15744:16121   */\n      swap3\n      swap2\n      pop\n      pop\n      jump\t// out\n        /* \"#utility.yul\":16127:16493   */\n    tag_648:\n        /* \"#utility.yul\":16269:16272   */\n      0x00\n        /* \"#utility.yul\":16290:16357   */\n      tag_650\n        /* \"#utility.yul\":16354:16356   */\n      0x0c\n        /* \"#utility.yul\":16349:16352   */\n      dup4\n        /* \"#utility.yul\":16290:16357   */\n      tag_639\n      jump\t// in\n    tag_650:\n        /* \"#utility.yul\":16283:16357   */\n      swap2\n      pop\n        /* \"#utility.yul\":16366:16459   */\n      tag_651\n        /* \"#utility.yul\":16455:16458   */\n      dup3\n        /* \"#utility.yul\":16366:16459   */\n      tag_652\n      jump\t// in\n    tag_651:\n        /* \"#utility.yul\":16484:16486   */\n      0x20\n        /* \"#utility.yul\":16479:16482   */\n      dup3\n        /* \"#utility.yul\":16475:16487   */\n      add\n        /* \"#utility.yul\":16468:16487   */\n      swap1\n      pop\n        /* \"#utility.yul\":16127:16493   */\n      swap2\n      swap1\n      pop\n      jump\t// out\n        /* \"#utility.yul\":16499:16865   */\n    tag_653:\n        /* \"#utility.yul\":16641:16644   */\n      0x00\n        /* \"#utility.yul\":16662:16729   */\n      tag_655\n        /* \"#utility.yul\":16726:16728   */\n      0x0e\n        /* \"#utility.yul\":16721:16724   */\n      dup4\n        /* \"#utility.yul\":16662:16729   */\n      tag_639\n      jump\t// in\n    tag_655:\n        /* \"#utility.yul\":16655:16729   */\n      swap2\n      pop\n        /* \"#utility.yul\":16738:16831   */\n      tag_656\n        /* \"#utility.yul\":16827:16830   */\n      dup3\n        /* \"#utility.yul\":16738:16831   */\n      tag_657\n      jump\t// in\n    tag_656:\n        /* \"#utility.yul\":16856:16858   */\n      0x20\n        /* \"#utility.yul\":16851:16854   */\n      dup3\n        /* \"#utility.yul\":16847:16859   */\n      add\n        /* \"#utility.yul\":16840:16859   */\n      swap1\n      pop\n        /* \"#utility.yul\":16499:16865   */\n      swap2\n      swap1\n      pop\n      jump\t// out\n        /* \"#utility.yul\":16871:17237   */\n    tag_658:\n        /* \"#utility.yul\":17013:17016   */\n      0x00\n        /* \"#utility.yul\":17034:17101   */\n      tag_660\n        /* \"#utility.yul\":17098:17100   */\n      0x13\n        /* \"#utility.yul\":17093:17096   */\n      dup4\n        /* \"#utility.yul\":17034:17101   */\n      tag_639\n      jump\t// in\n    tag_660:\n        /* \"#utility.yul\":17027:17101   */\n      swap2\n      pop\n        /* \"#utility.yul\":17110:17203   */\n      tag_661\n        /* \"#utility.yul\":17199:17202   */\n      dup3\n        /* \"#utility.yul\":17110:17203   */\n      tag_662\n      jump\t// in\n    tag_661:\n        /* \"#utility.yul\":17228:17230   */\n      0x20\n        /* \"#utility.yul\":17223:17226   */\n      dup3\n        /* \"#utility.yul\":17219:17231   */\n      add\n        /* \"#utility.yul\":17212:17231   */\n      swap1\n      pop\n        /* \"#utility.yul\":16871:17237   */\n      swap2\n      swap1\n      pop\n      jump\t// out\n        /* \"#utility.yul\":17243:17609   */\n    tag_663:\n        /* \"#utility.yul\":17385:17388   */\n      0x00\n        /* \"#utility.yul\":17406:17473   */\n      tag_665\n        /* \"#utility.yul\":17470:17472   */\n      0x11\n        /* \"#utility.yul\":17465:17468   */\n      dup4\n        /* \"#utility.yul\":17406:17473   */\n      tag_639\n      jump\t// in\n    tag_665:\n        /* \"#utility.yul\":17399:17473   */\n      swap2\n      pop\n        /* \"#utility.yul\":17482:17575   */\n      tag_666\n        /* \"#utility.yul\":17571:17574   */\n      dup3\n        /* \"#utility.yul\":17482:17575   */\n      tag_667\n      jump\t// in\n    tag_666:\n        /* \"#utility.yul\":17600:17602   */\n      0x20\n        /* \"#utility.yul\":17595:17598   */\n      dup3\n        /* \"#utility.yul\":17591:17603   */\n      add\n        /* \"#utility.yul\":17584:17603   */\n      swap1\n      pop\n        /* \"#utility.yul\":17243:17609   */\n      swap2\n      swap1\n      pop\n      jump\t// out\n        /* \"#utility.yul\":17615:17981   */\n    tag_668:\n        /* \"#utility.yul\":17757:17760   */\n      0x00\n        /* \"#utility.yul\":17778:17845   */\n      tag_670\n        /* \"#utility.yul\":17842:17844   */\n      0x15\n        /* \"#utility.yul\":17837:17840   */\n      dup4\n        /* \"#utility.yul\":17778:17845   */\n      tag_639\n      jump\t// in\n    tag_670:\n        /* \"#utility.yul\":17771:17845   */\n      swap2\n      pop\n        /* \"#utility.yul\":17854:17947   */\n      tag_671\n        /* \"#utility.yul\":17943:17946   */\n      dup3\n        /* \"#utility.yul\":17854:17947   */\n      tag_672\n      jump\t// in\n    tag_671:\n        /* \"#utility.yul\":17972:17974   */\n      0x20\n        /* \"#utility.yul\":17967:17970   */\n      dup3\n        /* \"#utility.yul\":17963:17975   */\n      add\n        /* \"#utility.yul\":17956:17975   */\n      swap1\n      pop\n        /* \"#utility.yul\":17615:17981   */\n      swap2\n      swap1\n      pop\n      jump\t// out\n        /* \"#utility.yul\":17987:18353   */\n    tag_673:\n        /* \"#utility.yul\":18129:18132   */\n      0x00\n        /* \"#utility.yul\":18150:18217   */\n      tag_675\n        /* \"#utility.yul\":18214:18216   */\n      0x11\n        /* \"#utility.yul\":18209:18212   */\n      dup4\n        /* \"#utility.yul\":18150:18217   */\n      tag_639\n      jump\t// in\n    tag_675:\n        /* \"#utility.yul\":18143:18217   */\n      swap2\n      pop\n        /* \"#utility.yul\":18226:18319   */\n      tag_676\n        /* \"#utility.yul\":18315:18318   */\n      dup3\n        /* \"#utility.yul\":18226:18319   */\n      tag_677\n      jump\t// in\n    tag_676:\n        /* \"#utility.yul\":18344:18346   */\n      0x20\n        /* \"#utility.yul\":18339:18342   */\n      dup3\n        /* \"#utility.yul\":18335:18347   */\n      add\n        /* \"#utility.yul\":18328:18347   */\n      swap1\n      pop\n        /* \"#utility.yul\":17987:18353   */\n      swap2\n      swap1\n      pop\n      jump\t// out\n        /* \"#utility.yul\":18397:19604   */\n    tag_678:\n        /* \"#utility.yul\":18510:18513   */\n      0x00\n        /* \"#utility.yul\":18546:18550   */\n      0xa0\n        /* \"#utility.yul\":18541:18544   */\n      dup4\n        /* \"#utility.yul\":18537:18551   */\n      add\n        /* \"#utility.yul\":18639:18643   */\n      0x00\n        /* \"#utility.yul\":18632:18637   */\n      dup4\n        /* \"#utility.yul\":18628:18644   */\n      add\n        /* \"#utility.yul\":18622:18645   */\n      mload\n        /* \"#utility.yul\":18692:18695   */\n      dup5\n        /* \"#utility.yul\":18686:18690   */\n      dup3\n        /* \"#utility.yul\":18682:18696   */\n      sub\n        /* \"#utility.yul\":18675:18679   */\n      0x00\n        /* \"#utility.yul\":18670:18673   */\n      dup7\n        /* \"#utility.yul\":18666:18680   */\n      add\n        /* \"#utility.yul\":18659:18697   */\n      mstore\n        /* \"#utility.yul\":18718:18791   */\n      tag_680\n        /* \"#utility.yul\":18786:18790   */\n      dup3\n        /* \"#utility.yul\":18772:18784   */\n      dup3\n        /* \"#utility.yul\":18718:18791   */\n      tag_587\n      jump\t// in\n    tag_680:\n        /* \"#utility.yul\":18710:18791   */\n      swap2\n      pop\n        /* \"#utility.yul\":18561:18802   */\n      pop\n        /* \"#utility.yul\":18887:18891   */\n      0x20\n        /* \"#utility.yul\":18880:18885   */\n      dup4\n        /* \"#utility.yul\":18876:18892   */\n      add\n        /* \"#utility.yul\":18870:18893   */\n      mload\n        /* \"#utility.yul\":18940:18943   */\n      dup5\n        /* \"#utility.yul\":18934:18938   */\n      dup3\n        /* \"#utility.yul\":18930:18944   */\n      sub\n        /* \"#utility.yul\":18923:18927   */\n      0x20\n        /* \"#utility.yul\":18918:18921   */\n      dup7\n        /* \"#utility.yul\":18914:18928   */\n      add\n        /* \"#utility.yul\":18907:18945   */\n      mstore\n        /* \"#utility.yul\":18966:19039   */\n      tag_681\n        /* \"#utility.yul\":19034:19038   */\n      dup3\n        /* \"#utility.yul\":19020:19032   */\n      dup3\n        /* \"#utility.yul\":18966:19039   */\n      tag_587\n      jump\t// in\n    tag_681:\n        /* \"#utility.yul\":18958:19039   */\n      swap2\n      pop\n        /* \"#utility.yul\":18812:19050   */\n      pop\n        /* \"#utility.yul\":19133:19137   */\n      0x40\n        /* \"#utility.yul\":19126:19131   */\n      dup4\n        /* \"#utility.yul\":19122:19138   */\n      add\n        /* \"#utility.yul\":19116:19139   */\n      mload\n        /* \"#utility.yul\":19152:19215   */\n      tag_682\n        /* \"#utility.yul\":19209:19213   */\n      0x40\n        /* \"#utility.yul\":19204:19207   */\n      dup7\n        /* \"#utility.yul\":19200:19214   */\n      add\n        /* \"#utility.yul\":19186:19198   */\n      dup3\n        /* \"#utility.yul\":19152:19215   */\n      tag_683\n      jump\t// in\n    tag_682:\n        /* \"#utility.yul\":19060:19225   */\n      pop\n        /* \"#utility.yul\":19311:19315   */\n      0x60\n        /* \"#utility.yul\":19304:19309   */\n      dup4\n        /* \"#utility.yul\":19300:19316   */\n      add\n        /* \"#utility.yul\":19294:19317   */\n      mload\n        /* \"#utility.yul\":19330:19393   */\n      tag_684\n        /* \"#utility.yul\":19387:19391   */\n      0x60\n        /* \"#utility.yul\":19382:19385   */\n      dup7\n        /* \"#utility.yul\":19378:19392   */\n      add\n        /* \"#utility.yul\":19364:19376   */\n      dup3\n        /* \"#utility.yul\":19330:19393   */\n      tag_683\n      jump\t// in\n    tag_684:\n        /* \"#utility.yul\":19235:19403   */\n      pop\n        /* \"#utility.yul\":19485:19489   */\n      0x80\n        /* \"#utility.yul\":19478:19483   */\n      dup4\n        /* \"#utility.yul\":19474:19490   */\n      add\n        /* \"#utility.yul\":19468:19491   */\n      mload\n        /* \"#utility.yul\":19504:19567   */\n      tag_685\n        /* \"#utility.yul\":19561:19565   */\n      0x80\n        /* \"#utility.yul\":19556:19559   */\n      dup7\n        /* \"#utility.yul\":19552:19566   */\n      add\n        /* \"#utility.yul\":19538:19550   */\n      dup3\n        /* \"#utility.yul\":19504:19567   */\n      tag_683\n      jump\t// in\n    tag_685:\n        /* \"#utility.yul\":19413:19577   */\n      pop\n        /* \"#utility.yul\":19594:19598   */\n      dup1\n        /* \"#utility.yul\":19587:19598   */\n      swap2\n      pop\n        /* \"#utility.yul\":18515:19604   */\n      pop\n        /* \"#utility.yul\":18397:19604   */\n      swap3\n      swap2\n      pop\n      pop\n      jump\t// out\n        /* \"#utility.yul\":19644:20985   */\n    tag_686:\n        /* \"#utility.yul\":19753:19756   */\n      0x00\n        /* \"#utility.yul\":19789:19793   */\n      0xa0\n        /* \"#utility.yul\":19784:19787   */\n      dup4\n        /* \"#utility.yul\":19780:19794   */\n      add\n        /* \"#utility.yul\":19880:19884   */\n      0x00\n        /* \"#utility.yul\":19873:19878   */\n      dup4\n        /* \"#utility.yul\":19869:19885   */\n      add\n        /* \"#utility.yul\":19863:19886   */\n      mload\n        /* \"#utility.yul\":19899:19962   */\n      tag_688\n        /* \"#utility.yul\":19956:19960   */\n      0x00\n        /* \"#utility.yul\":19951:19954   */\n      dup7\n        /* \"#utility.yul\":19947:19961   */\n      add\n        /* \"#utility.yul\":19933:19945   */\n      dup3\n        /* \"#utility.yul\":19899:19962   */\n      tag_583\n      jump\t// in\n    tag_688:\n        /* \"#utility.yul\":19804:19972   */\n      pop\n        /* \"#utility.yul\":20055:20059   */\n      0x20\n        /* \"#utility.yul\":20048:20053   */\n      dup4\n        /* \"#utility.yul\":20044:20060   */\n      add\n        /* \"#utility.yul\":20038:20061   */\n      mload\n        /* \"#utility.yul\":20108:20111   */\n      dup5\n        /* \"#utility.yul\":20102:20106   */\n      dup3\n        /* \"#utility.yul\":20098:20112   */\n      sub\n        /* \"#utility.yul\":20091:20095   */\n      0x20\n        /* \"#utility.yul\":20086:20089   */\n      dup7\n        /* \"#utility.yul\":20082:20096   */\n      add\n        /* \"#utility.yul\":20075:20113   */\n      mstore\n        /* \"#utility.yul\":20134:20207   */\n      tag_689\n        /* \"#utility.yul\":20202:20206   */\n      dup3\n        /* \"#utility.yul\":20188:20200   */\n      dup3\n        /* \"#utility.yul\":20134:20207   */\n      tag_587\n      jump\t// in\n    tag_689:\n        /* \"#utility.yul\":20126:20207   */\n      swap2\n      pop\n        /* \"#utility.yul\":19982:20218   */\n      pop\n        /* \"#utility.yul\":20304:20308   */\n      0x40\n        /* \"#utility.yul\":20297:20302   */\n      dup4\n        /* \"#utility.yul\":20293:20309   */\n      add\n        /* \"#utility.yul\":20287:20310   */\n      mload\n        /* \"#utility.yul\":20357:20360   */\n      dup5\n        /* \"#utility.yul\":20351:20355   */\n      dup3\n        /* \"#utility.yul\":20347:20361   */\n      sub\n        /* \"#utility.yul\":20340:20344   */\n      0x40\n        /* \"#utility.yul\":20335:20338   */\n      dup7\n        /* \"#utility.yul\":20331:20345   */\n      add\n        /* \"#utility.yul\":20324:20362   */\n      mstore\n        /* \"#utility.yul\":20383:20456   */\n      tag_690\n        /* \"#utility.yul\":20451:20455   */\n      dup3\n        /* \"#utility.yul\":20437:20449   */\n      dup3\n        /* \"#utility.yul\":20383:20456   */\n      tag_587\n      jump\t// in\n    tag_690:\n        /* \"#utility.yul\":20375:20456   */\n      swap2\n      pop\n        /* \"#utility.yul\":20228:20467   */\n      pop\n        /* \"#utility.yul\":20548:20552   */\n      0x60\n        /* \"#utility.yul\":20541:20546   */\n      dup4\n        /* \"#utility.yul\":20537:20553   */\n      add\n        /* \"#utility.yul\":20531:20554   */\n      mload\n        /* \"#utility.yul\":20601:20604   */\n      dup5\n        /* \"#utility.yul\":20595:20599   */\n      dup3\n        /* \"#utility.yul\":20591:20605   */\n      sub\n        /* \"#utility.yul\":20584:20588   */\n      0x60\n        /* \"#utility.yul\":20579:20582   */\n      dup7\n        /* \"#utility.yul\":20575:20589   */\n      add\n        /* \"#utility.yul\":20568:20606   */\n      mstore\n        /* \"#utility.yul\":20627:20700   */\n      tag_691\n        /* \"#utility.yul\":20695:20699   */\n      dup3\n        /* \"#utility.yul\":20681:20693   */\n      dup3\n        /* \"#utility.yul\":20627:20700   */\n      tag_587\n      jump\t// in\n    tag_691:\n        /* \"#utility.yul\":20619:20700   */\n      swap2\n      pop\n        /* \"#utility.yul\":20477:20711   */\n      pop\n        /* \"#utility.yul\":20795:20799   */\n      0x80\n        /* \"#utility.yul\":20788:20793   */\n      dup4\n        /* \"#utility.yul\":20784:20800   */\n      add\n        /* \"#utility.yul\":20778:20801   */\n      mload\n        /* \"#utility.yul\":20848:20851   */\n      dup5\n        /* \"#utility.yul\":20842:20846   */\n      dup3\n        /* \"#utility.yul\":20838:20852   */\n      sub\n        /* \"#utility.yul\":20831:20835   */\n      0x80\n        /* \"#utility.yul\":20826:20829   */\n      dup7\n        /* \"#utility.yul\":20822:20836   */\n      add\n        /* \"#utility.yul\":20815:20853   */\n      mstore\n        /* \"#utility.yul\":20874:20947   */\n      tag_692\n        /* \"#utility.yul\":20942:20946   */\n      dup3\n        /* \"#utility.yul\":20928:20940   */\n      dup3\n        /* \"#utility.yul\":20874:20947   */\n      tag_587\n      jump\t// in\n    tag_692:\n        /* \"#utility.yul\":20866:20947   */\n      swap2\n      pop\n        /* \"#utility.yul\":20721:20958   */\n      pop\n        /* \"#utility.yul\":20975:20979   */\n      dup1\n        /* \"#utility.yul\":20968:20979   */\n      swap2\n      pop\n        /* \"#utility.yul\":19758:20985   */\n      pop\n        /* \"#utility.yul\":19644:20985   */\n      swap3\n      swap2\n      pop\n      pop\n      jump\t// out\n        /* \"#utility.yul\":20991:21099   */\n    tag_683:\n        /* \"#utility.yul\":21068:21092   */\n      tag_694\n        /* \"#utility.yul\":21086:21091   */\n      dup2\n        /* \"#utility.yul\":21068:21092   */\n      tag_695\n      jump\t// in\n    tag_694:\n        /* \"#utility.yul\":21063:21066   */\n      dup3\n        /* \"#utility.yul\":21056:21093   */\n      mstore\n        /* \"#utility.yul\":20991:21099   */\n      pop\n      pop\n      jump\t// out\n        /* \"#utility.yul\":21105:21223   */\n    tag_696:\n        /* \"#utility.yul\":21192:21216   */\n      tag_698\n        /* \"#utility.yul\":21210:21215   */\n      dup2\n        /* \"#utility.yul\":21192:21216   */\n      tag_695\n      jump\t// in\n    tag_698:\n        /* \"#utility.yul\":21187:21190   */\n      dup3\n        /* \"#utility.yul\":21180:21217   */\n      mstore\n        /* \"#utility.yul\":21105:21223   */\n      pop\n      pop\n      jump\t// out\n        /* \"#utility.yul\":21229:21504   */\n    tag_143:\n        /* \"#utility.yul\":21361:21364   */\n      0x00\n        /* \"#utility.yul\":21383:21478   */\n      tag_700\n        /* \"#utility.yul\":21474:21477   */\n      dup3\n        /* \"#utility.yul\":21465:21471   */\n      dup5\n        /* \"#utility.yul\":21383:21478   */\n      tag_642\n      jump\t// in\n    tag_700:\n        /* \"#utility.yul\":21376:21478   */\n      swap2\n      pop\n        /* \"#utility.yul\":21495:21498   */\n      dup2\n        /* \"#utility.yul\":21488:21498   */\n      swap1\n      pop\n        /* \"#utility.yul\":21229:21504   */\n      swap3\n      swap2\n      pop\n      pop\n      jump\t// out\n        /* \"#utility.yul\":21510:21732   */\n    tag_82:\n        /* \"#utility.yul\":21603:21607   */\n      0x00\n        /* \"#utility.yul\":21641:21643   */\n      0x20\n        /* \"#utility.yul\":21630:21639   */\n      dup3\n        /* \"#utility.yul\":21626:21644   */\n      add\n        /* \"#utility.yul\":21618:21644   */\n      swap1\n      pop\n        /* \"#utility.yul\":21654:21725   */\n      tag_702\n        /* \"#utility.yul\":21722:21723   */\n      0x00\n        /* \"#utility.yul\":21711:21720   */\n      dup4\n        /* \"#utility.yul\":21707:21724   */\n      add\n        /* \"#utility.yul\":21698:21704   */\n      dup5\n        /* \"#utility.yul\":21654:21725   */\n      tag_591\n      jump\t// in\n    tag_702:\n        /* \"#utility.yul\":21510:21732   */\n      swap3\n      swap2\n      pop\n      pop\n      jump\t// out\n        /* \"#utility.yul\":21738:22766   */\n    tag_78:\n        /* \"#utility.yul\":22023:22027   */\n      0x00\n        /* \"#utility.yul\":22061:22064   */\n      0xa0\n        /* \"#utility.yul\":22050:22059   */\n      dup3\n        /* \"#utility.yul\":22046:22065   */\n      add\n        /* \"#utility.yul\":22038:22065   */\n      swap1\n      pop\n        /* \"#utility.yul\":22075:22146   */\n      tag_704\n        /* \"#utility.yul\":22143:22144   */\n      0x00\n        /* \"#utility.yul\":22132:22141   */\n      dup4\n        /* \"#utility.yul\":22128:22145   */\n      add\n        /* \"#utility.yul\":22119:22125   */\n      dup9\n        /* \"#utility.yul\":22075:22146   */\n      tag_591\n      jump\t// in\n    tag_704:\n        /* \"#utility.yul\":22193:22202   */\n      dup2\n        /* \"#utility.yul\":22187:22191   */\n      dup2\n        /* \"#utility.yul\":22183:22203   */\n      sub\n        /* \"#utility.yul\":22178:22180   */\n      0x20\n        /* \"#utility.yul\":22167:22176   */\n      dup4\n        /* \"#utility.yul\":22163:22181   */\n      add\n        /* \"#utility.yul\":22156:22204   */\n      mstore\n        /* \"#utility.yul\":22221:22299   */\n      tag_705\n        /* \"#utility.yul\":22294:22298   */\n      dup2\n        /* \"#utility.yul\":22285:22291   */\n      dup8\n        /* \"#utility.yul\":22221:22299   */\n      tag_635\n      jump\t// in\n    tag_705:\n        /* \"#utility.yul\":22213:22299   */\n      swap1\n      pop\n        /* \"#utility.yul\":22346:22355   */\n      dup2\n        /* \"#utility.yul\":22340:22344   */\n      dup2\n        /* \"#utility.yul\":22336:22356   */\n      sub\n        /* \"#utility.yul\":22331:22333   */\n      0x40\n        /* \"#utility.yul\":22320:22329   */\n      dup4\n        /* \"#utility.yul\":22316:22334   */\n      add\n        /* \"#utility.yul\":22309:22357   */\n      mstore\n        /* \"#utility.yul\":22374:22452   */\n      tag_706\n        /* \"#utility.yul\":22447:22451   */\n      dup2\n        /* \"#utility.yul\":22438:22444   */\n      dup7\n        /* \"#utility.yul\":22374:22452   */\n      tag_635\n      jump\t// in\n    tag_706:\n        /* \"#utility.yul\":22366:22452   */\n      swap1\n      pop\n        /* \"#utility.yul\":22499:22508   */\n      dup2\n        /* \"#utility.yul\":22493:22497   */\n      dup2\n        /* \"#utility.yul\":22489:22509   */\n      sub\n        /* \"#utility.yul\":22484:22486   */\n      0x60\n        /* \"#utility.yul\":22473:22482   */\n      dup4\n        /* \"#utility.yul\":22469:22487   */\n      add\n        /* \"#utility.yul\":22462:22510   */\n      mstore\n        /* \"#utility.yul\":22527:22605   */\n      tag_707\n        /* \"#utility.yul\":22600:22604   */\n      dup2\n        /* \"#utility.yul\":22591:22597   */\n      dup6\n        /* \"#utility.yul\":22527:22605   */\n      tag_635\n      jump\t// in\n    tag_707:\n        /* \"#utility.yul\":22519:22605   */\n      swap1\n      pop\n        /* \"#utility.yul\":22653:22662   */\n      dup2\n        /* \"#utility.yul\":22647:22651   */\n      dup2\n        /* \"#utility.yul\":22643:22663   */\n      sub\n        /* \"#utility.yul\":22637:22640   */\n      0x80\n        /* \"#utility.yul\":22626:22635   */\n      dup4\n        /* \"#utility.yul\":22622:22641   */\n      add\n        /* \"#utility.yul\":22615:22664   */\n      mstore\n        /* \"#utility.yul\":22681:22759   */\n      tag_708\n        /* \"#utility.yul\":22754:22758   */\n      dup2\n        /* \"#utility.yul\":22745:22751   */\n      dup5\n        /* \"#utility.yul\":22681:22759   */\n      tag_635\n      jump\t// in\n    tag_708:\n        /* \"#utility.yul\":22673:22759   */\n      swap1\n      pop\n        /* \"#utility.yul\":21738:22766   */\n      swap7\n      swap6\n      pop\n      pop\n      pop\n      pop\n      pop\n      pop\n      jump\t// out\n        /* \"#utility.yul\":22772:23145   */\n    tag_100:\n        /* \"#utility.yul\":22915:22919   */\n      0x00\n        /* \"#utility.yul\":22953:22955   */\n      0x20\n        /* \"#utility.yul\":22942:22951   */\n      dup3\n        /* \"#utility.yul\":22938:22956   */\n      add\n        /* \"#utility.yul\":22930:22956   */\n      swap1\n      pop\n        /* \"#utility.yul\":23002:23011   */\n      dup2\n        /* \"#utility.yul\":22996:23000   */\n      dup2\n        /* \"#utility.yul\":22992:23012   */\n      sub\n        /* \"#utility.yul\":22988:22989   */\n      0x00\n        /* \"#utility.yul\":22977:22986   */\n      dup4\n        /* \"#utility.yul\":22973:22990   */\n      add\n        /* \"#utility.yul\":22966:23013   */\n      mstore\n        /* \"#utility.yul\":23030:23138   */\n      tag_710\n        /* \"#utility.yul\":23133:23137   */\n      dup2\n        /* \"#utility.yul\":23124:23130   */\n      dup5\n        /* \"#utility.yul\":23030:23138   */\n      tag_594\n      jump\t// in\n    tag_710:\n        /* \"#utility.yul\":23022:23138   */\n      swap1\n      pop\n        /* \"#utility.yul\":22772:23145   */\n      swap3\n      swap2\n      pop\n      pop\n      jump\t// out\n        /* \"#utility.yul\":23151:23564   */\n    tag_54:\n        /* \"#utility.yul\":23314:23318   */\n      0x00\n        /* \"#utility.yul\":23352:23354   */\n      0x20\n        /* \"#utility.yul\":23341:23350   */\n      dup3\n        /* \"#utility.yul\":23337:23355   */\n      add\n        /* \"#utility.yul\":23329:23355   */\n      swap1\n      pop\n        /* \"#utility.yul\":23401:23410   */\n      dup2\n        /* \"#utility.yul\":23395:23399   */\n      dup2\n        /* \"#utility.yul\":23391:23411   */\n      sub\n        /* \"#utility.yul\":23387:23388   */\n      0x00\n        /* \"#utility.yul\":23376:23385   */\n      dup4\n        /* \"#utility.yul\":23372:23389   */\n      add\n        /* \"#utility.yul\":23365:23412   */\n      mstore\n        /* \"#utility.yul\":23429:23557   */\n      tag_712\n        /* \"#utility.yul\":23552:23556   */\n      dup2\n        /* \"#utility.yul\":23543:23549   */\n      dup5\n        /* \"#utility.yul\":23429:23557   */\n      tag_608\n      jump\t// in\n    tag_712:\n        /* \"#utility.yul\":23421:23557   */\n      swap1\n      pop\n        /* \"#utility.yul\":23151:23564   */\n      swap3\n      swap2\n      pop\n      pop\n      jump\t// out\n        /* \"#utility.yul\":23570:23780   */\n    tag_114:\n        /* \"#utility.yul\":23657:23661   */\n      0x00\n        /* \"#utility.yul\":23695:23697   */\n      0x20\n        /* \"#utility.yul\":23684:23693   */\n      dup3\n        /* \"#utility.yul\":23680:23698   */\n      add\n        /* \"#utility.yul\":23672:23698   */\n      swap1\n      pop\n        /* \"#utility.yul\":23708:23773   */\n      tag_714\n        /* \"#utility.yul\":23770:23771   */\n      0x00\n        /* \"#utility.yul\":23759:23768   */\n      dup4\n        /* \"#utility.yul\":23755:23772   */\n      add\n        /* \"#utility.yul\":23746:23752   */\n      dup5\n        /* \"#utility.yul\":23708:23773   */\n      tag_622\n      jump\t// in\n    tag_714:\n        /* \"#utility.yul\":23570:23780   */\n      swap3\n      swap2\n      pop\n      pop\n      jump\t// out\n        /* \"#utility.yul\":23786:24099   */\n    tag_69:\n        /* \"#utility.yul\":23899:23903   */\n      0x00\n        /* \"#utility.yul\":23937:23939   */\n      0x20\n        /* \"#utility.yul\":23926:23935   */\n      dup3\n        /* \"#utility.yul\":23922:23940   */\n      add\n        /* \"#utility.yul\":23914:23940   */\n      swap1\n      pop\n        /* \"#utility.yul\":23986:23995   */\n      dup2\n        /* \"#utility.yul\":23980:23984   */\n      dup2\n        /* \"#utility.yul\":23976:23996   */\n      sub\n        /* \"#utility.yul\":23972:23973   */\n      0x00\n        /* \"#utility.yul\":23961:23970   */\n      dup4\n        /* \"#utility.yul\":23957:23974   */\n      add\n        /* \"#utility.yul\":23950:23997   */\n      mstore\n        /* \"#utility.yul\":24014:24092   */\n      tag_716\n        /* \"#utility.yul\":24087:24091   */\n      dup2\n        /* \"#utility.yul\":24078:24084   */\n      dup5\n        /* \"#utility.yul\":24014:24092   */\n      tag_635\n      jump\t// in\n    tag_716:\n        /* \"#utility.yul\":24006:24092   */\n      swap1\n      pop\n        /* \"#utility.yul\":23786:24099   */\n      swap3\n      swap2\n      pop\n      pop\n      jump\t// out\n        /* \"#utility.yul\":24105:24619   */\n    tag_46:\n        /* \"#utility.yul\":24266:24270   */\n      0x00\n        /* \"#utility.yul\":24304:24306   */\n      0x40\n        /* \"#utility.yul\":24293:24302   */\n      dup3\n        /* \"#utility.yul\":24289:24307   */\n      add\n        /* \"#utility.yul\":24281:24307   */\n      swap1\n      pop\n        /* \"#utility.yul\":24353:24362   */\n      dup2\n        /* \"#utility.yul\":24347:24351   */\n      dup2\n        /* \"#utility.yul\":24343:24363   */\n      sub\n        /* \"#utility.yul\":24339:24340   */\n      0x00\n        /* \"#utility.yul\":24328:24337   */\n      dup4\n        /* \"#utility.yul\":24324:24341   */\n      add\n        /* \"#utility.yul\":24317:24364   */\n      mstore\n        /* \"#utility.yul\":24381:24459   */\n      tag_718\n        /* \"#utility.yul\":24454:24458   */\n      dup2\n        /* \"#utility.yul\":24445:24451   */\n      dup6\n        /* \"#utility.yul\":24381:24459   */\n      tag_635\n      jump\t// in\n    tag_718:\n        /* \"#utility.yul\":24373:24459   */\n      swap1\n      pop\n        /* \"#utility.yul\":24506:24515   */\n      dup2\n        /* \"#utility.yul\":24500:24504   */\n      dup2\n        /* \"#utility.yul\":24496:24516   */\n      sub\n        /* \"#utility.yul\":24491:24493   */\n      0x20\n        /* \"#utility.yul\":24480:24489   */\n      dup4\n        /* \"#utility.yul\":24476:24494   */\n      add\n        /* \"#utility.yul\":24469:24517   */\n      mstore\n        /* \"#utility.yul\":24534:24612   */\n      tag_719\n        /* \"#utility.yul\":24607:24611   */\n      dup2\n        /* \"#utility.yul\":24598:24604   */\n      dup5\n        /* \"#utility.yul\":24534:24612   */\n      tag_635\n      jump\t// in\n    tag_719:\n        /* \"#utility.yul\":24526:24612   */\n      swap1\n      pop\n        /* \"#utility.yul\":24105:24619   */\n      swap4\n      swap3\n      pop\n      pop\n      pop\n      jump\t// out\n        /* \"#utility.yul\":24625:25439   */\n    tag_124:\n        /* \"#utility.yul\":24856:24860   */\n      0x00\n        /* \"#utility.yul\":24894:24897   */\n      0x80\n        /* \"#utility.yul\":24883:24892   */\n      dup3\n        /* \"#utility.yul\":24879:24898   */\n      add\n        /* \"#utility.yul\":24871:24898   */\n      swap1\n      pop\n        /* \"#utility.yul\":24944:24953   */\n      dup2\n        /* \"#utility.yul\":24938:24942   */\n      dup2\n        /* \"#utility.yul\":24934:24954   */\n      sub\n        /* \"#utility.yul\":24930:24931   */\n      0x00\n        /* \"#utility.yul\":24919:24928   */\n      dup4\n        /* \"#utility.yul\":24915:24932   */\n      add\n        /* \"#utility.yul\":24908:24955   */\n      mstore\n        /* \"#utility.yul\":24972:25050   */\n      tag_721\n        /* \"#utility.yul\":25045:25049   */\n      dup2\n        /* \"#utility.yul\":25036:25042   */\n      dup8\n        /* \"#utility.yul\":24972:25050   */\n      tag_635\n      jump\t// in\n    tag_721:\n        /* \"#utility.yul\":24964:25050   */\n      swap1\n      pop\n        /* \"#utility.yul\":25097:25106   */\n      dup2\n        /* \"#utility.yul\":25091:25095   */\n      dup2\n        /* \"#utility.yul\":25087:25107   */\n      sub\n        /* \"#utility.yul\":25082:25084   */\n      0x20\n        /* \"#utility.yul\":25071:25080   */\n      dup4\n        /* \"#utility.yul\":25067:25085   */\n      add\n        /* \"#utility.yul\":25060:25108   */\n      mstore\n        /* \"#utility.yul\":25125:25203   */\n      tag_722\n        /* \"#utility.yul\":25198:25202   */\n      dup2\n        /* \"#utility.yul\":25189:25195   */\n      dup7\n        /* \"#utility.yul\":25125:25203   */\n      tag_635\n      jump\t// in\n    tag_722:\n        /* \"#utility.yul\":25117:25203   */\n      swap1\n      pop\n        /* \"#utility.yul\":25250:25259   */\n      dup2\n        /* \"#utility.yul\":25244:25248   */\n      dup2\n        /* \"#utility.yul\":25240:25260   */\n      sub\n        /* \"#utility.yul\":25235:25237   */\n      0x40\n        /* \"#utility.yul\":25224:25233   */\n      dup4\n        /* \"#utility.yul\":25220:25238   */\n      add\n        /* \"#utility.yul\":25213:25261   */\n      mstore\n        /* \"#utility.yul\":25278:25356   */\n      tag_723\n        /* \"#utility.yul\":25351:25355   */\n      dup2\n        /* \"#utility.yul\":25342:25348   */\n      dup6\n        /* \"#utility.yul\":25278:25356   */\n      tag_635\n      jump\t// in\n    tag_723:\n        /* \"#utility.yul\":25270:25356   */\n      swap1\n      pop\n        /* \"#utility.yul\":25366:25432   */\n      tag_724\n        /* \"#utility.yul\":25428:25430   */\n      0x60\n        /* \"#utility.yul\":25417:25426   */\n      dup4\n        /* \"#utility.yul\":25413:25431   */\n      add\n        /* \"#utility.yul\":25404:25410   */\n      dup5\n        /* \"#utility.yul\":25366:25432   */\n      tag_622\n      jump\t// in\n    tag_724:\n        /* \"#utility.yul\":24625:25439   */\n      swap6\n      swap5\n      pop\n      pop\n      pop\n      pop\n      pop\n      jump\t// out\n        /* \"#utility.yul\":25445:26291   */\n    tag_109:\n        /* \"#utility.yul\":25690:25694   */\n      0x00\n        /* \"#utility.yul\":25728:25731   */\n      0xa0\n        /* \"#utility.yul\":25717:25726   */\n      dup3\n        /* \"#utility.yul\":25713:25732   */\n      add\n        /* \"#utility.yul\":25705:25732   */\n      swap1\n      pop\n        /* \"#utility.yul\":25778:25787   */\n      dup2\n        /* \"#utility.yul\":25772:25776   */\n      dup2\n        /* \"#utility.yul\":25768:25788   */\n      sub\n        /* \"#utility.yul\":25764:25765   */\n      0x00\n        /* \"#utility.yul\":25753:25762   */\n      dup4\n        /* \"#utility.yul\":25749:25766   */\n      add\n        /* \"#utility.yul\":25742:25789   */\n      mstore\n        /* \"#utility.yul\":25806:25884   */\n      tag_726\n        /* \"#utility.yul\":25879:25883   */\n      dup2\n        /* \"#utility.yul\":25870:25876   */\n      dup9\n        /* \"#utility.yul\":25806:25884   */\n      tag_635\n      jump\t// in\n    tag_726:\n        /* \"#utility.yul\":25798:25884   */\n      swap1\n      pop\n        /* \"#utility.yul\":25931:25940   */\n      dup2\n        /* \"#utility.yul\":25925:25929   */\n      dup2\n        /* \"#utility.yul\":25921:25941   */\n      sub\n        /* \"#utility.yul\":25916:25918   */\n      0x20\n        /* \"#utility.yul\":25905:25914   */\n      dup4\n        /* \"#utility.yul\":25901:25919   */\n      add\n        /* \"#utility.yul\":25894:25942   */\n      mstore\n        /* \"#utility.yul\":25959:26037   */\n      tag_727\n        /* \"#utility.yul\":26032:26036   */\n      dup2\n        /* \"#utility.yul\":26023:26029   */\n      dup8\n        /* \"#utility.yul\":25959:26037   */\n      tag_635\n      jump\t// in\n    tag_727:\n        /* \"#utility.yul\":25951:26037   */\n      swap1\n      pop\n        /* \"#utility.yul\":26047:26119   */\n      tag_728\n        /* \"#utility.yul\":26115:26117   */\n      0x40\n        /* \"#utility.yul\":26104:26113   */\n      dup4\n        /* \"#utility.yul\":26100:26118   */\n      add\n        /* \"#utility.yul\":26091:26097   */\n      dup7\n        /* \"#utility.yul\":26047:26119   */\n      tag_696\n      jump\t// in\n    tag_728:\n        /* \"#utility.yul\":26129:26201   */\n      tag_729\n        /* \"#utility.yul\":26197:26199   */\n      0x60\n        /* \"#utility.yul\":26186:26195   */\n      dup4\n        /* \"#utility.yul\":26182:26200   */\n      add\n        /* \"#utility.yul\":26173:26179   */\n      dup6\n        /* \"#utility.yul\":26129:26201   */\n      tag_696\n      jump\t// in\n    tag_729:\n        /* \"#utility.yul\":26211:26284   */\n      tag_730\n        /* \"#utility.yul\":26279:26282   */\n      0x80\n        /* \"#utility.yul\":26268:26277   */\n      dup4\n        /* \"#utility.yul\":26264:26283   */\n      add\n        /* \"#utility.yul\":26255:26261   */\n      dup5\n        /* \"#utility.yul\":26211:26284   */\n      tag_696\n      jump\t// in\n    tag_730:\n        /* \"#utility.yul\":25445:26291   */\n      swap7\n      swap6\n      pop\n      pop\n      pop\n      pop\n      pop\n      pop\n      jump\t// out\n        /* \"#utility.yul\":26297:26716   */\n    tag_322:\n        /* \"#utility.yul\":26463:26467   */\n      0x00\n        /* \"#utility.yul\":26501:26503   */\n      0x20\n        /* \"#utility.yul\":26490:26499   */\n      dup3\n        /* \"#utility.yul\":26486:26504   */\n      add\n        /* \"#utility.yul\":26478:26504   */\n      swap1\n      pop\n        /* \"#utility.yul\":26550:26559   */\n      dup2\n        /* \"#utility.yul\":26544:26548   */\n      dup2\n        /* \"#utility.yul\":26540:26560   */\n      sub\n        /* \"#utility.yul\":26536:26537   */\n      0x00\n        /* \"#utility.yul\":26525:26534   */\n      dup4\n        /* \"#utility.yul\":26521:26538   */\n      add\n        /* \"#utility.yul\":26514:26561   */\n      mstore\n        /* \"#utility.yul\":26578:26709   */\n      tag_732\n        /* \"#utility.yul\":26704:26708   */\n      dup2\n        /* \"#utility.yul\":26578:26709   */\n      tag_648\n      jump\t// in\n    tag_732:\n        /* \"#utility.yul\":26570:26709   */\n      swap1\n      pop\n        /* \"#utility.yul\":26297:26716   */\n      swap2\n      swap1\n      pop\n      jump\t// out\n        /* \"#utility.yul\":26722:27141   */\n    tag_229:\n        /* \"#utility.yul\":26888:26892   */\n      0x00\n        /* \"#utility.yul\":26926:26928   */\n      0x20\n        /* \"#utility.yul\":26915:26924   */\n      dup3\n        /* \"#utility.yul\":26911:26929   */\n      add\n        /* \"#utility.yul\":26903:26929   */\n      swap1\n      pop\n        /* \"#utility.yul\":26975:26984   */\n      dup2\n        /* \"#utility.yul\":26969:26973   */\n      dup2\n        /* \"#utility.yul\":26965:26985   */\n      sub\n        /* \"#utility.yul\":26961:26962   */\n      0x00\n        /* \"#utility.yul\":26950:26959   */\n      dup4\n        /* \"#utility.yul\":26946:26963   */\n      add\n        /* \"#utility.yul\":26939:26986   */\n      mstore\n        /* \"#utility.yul\":27003:27134   */\n      tag_734\n        /* \"#utility.yul\":27129:27133   */\n      dup2\n        /* \"#utility.yul\":27003:27134   */\n      tag_653\n      jump\t// in\n    tag_734:\n        /* \"#utility.yul\":26995:27134   */\n      swap1\n      pop\n        /* \"#utility.yul\":26722:27141   */\n      swap2\n      swap1\n      pop\n      jump\t// out\n        /* \"#utility.yul\":27147:27566   */\n    tag_179:\n        /* \"#utility.yul\":27313:27317   */\n      0x00\n        /* \"#utility.yul\":27351:27353   */\n      0x20\n        /* \"#utility.yul\":27340:27349   */\n      dup3\n        /* \"#utility.yul\":27336:27354   */\n      add\n        /* \"#utility.yul\":27328:27354   */\n      swap1\n      pop\n        /* \"#utility.yul\":27400:27409   */\n      dup2\n        /* \"#utility.yul\":27394:27398   */\n      dup2\n        /* \"#utility.yul\":27390:27410   */\n      sub\n        /* \"#utility.yul\":27386:27387   */\n      0x00\n        /* \"#utility.yul\":27375:27384   */\n      dup4\n        /* \"#utility.yul\":27371:27388   */\n      add\n        /* \"#utility.yul\":27364:27411   */\n      mstore\n        /* \"#utility.yul\":27428:27559   */\n      tag_736\n        /* \"#utility.yul\":27554:27558   */\n      dup2\n        /* \"#utility.yul\":27428:27559   */\n      tag_658\n      jump\t// in\n    tag_736:\n        /* \"#utility.yul\":27420:27559   */\n      swap1\n      pop\n        /* \"#utility.yul\":27147:27566   */\n      swap2\n      swap1\n      pop\n      jump\t// out\n        /* \"#utility.yul\":27572:27991   */\n    tag_239:\n        /* \"#utility.yul\":27738:27742   */\n      0x00\n        /* \"#utility.yul\":27776:27778   */\n      0x20\n        /* \"#utility.yul\":27765:27774   */\n      dup3\n        /* \"#utility.yul\":27761:27779   */\n      add\n        /* \"#utility.yul\":27753:27779   */\n      swap1\n      pop\n        /* \"#utility.yul\":27825:27834   */\n      dup2\n        /* \"#utility.yul\":27819:27823   */\n      dup2\n        /* \"#utility.yul\":27815:27835   */\n      sub\n        /* \"#utility.yul\":27811:27812   */\n      0x00\n        /* \"#utility.yul\":27800:27809   */\n      dup4\n        /* \"#utility.yul\":27796:27813   */\n      add\n        /* \"#utility.yul\":27789:27836   */\n      mstore\n        /* \"#utility.yul\":27853:27984   */\n      tag_738\n        /* \"#utility.yul\":27979:27983   */\n      dup2\n        /* \"#utility.yul\":27853:27984   */\n      tag_663\n      jump\t// in\n    tag_738:\n        /* \"#utility.yul\":27845:27984   */\n      swap1\n      pop\n        /* \"#utility.yul\":27572:27991   */\n      swap2\n      swap1\n      pop\n      jump\t// out\n        /* \"#utility.yul\":27997:28416   */\n    tag_146:\n        /* \"#utility.yul\":28163:28167   */\n      0x00\n        /* \"#utility.yul\":28201:28203   */\n      0x20\n        /* \"#utility.yul\":28190:28199   */\n      dup3\n        /* \"#utility.yul\":28186:28204   */\n      add\n        /* \"#utility.yul\":28178:28204   */\n      swap1\n      pop\n        /* \"#utility.yul\":28250:28259   */\n      dup2\n        /* \"#utility.yul\":28244:28248   */\n      dup2\n        /* \"#utility.yul\":28240:28260   */\n      sub\n        /* \"#utility.yul\":28236:28237   */\n      0x00\n        /* \"#utility.yul\":28225:28234   */\n      dup4\n        /* \"#utility.yul\":28221:28238   */\n      add\n        /* \"#utility.yul\":28214:28261   */\n      mstore\n        /* \"#utility.yul\":28278:28409   */\n      tag_740\n        /* \"#utility.yul\":28404:28408   */\n      dup2\n        /* \"#utility.yul\":28278:28409   */\n      tag_668\n      jump\t// in\n    tag_740:\n        /* \"#utility.yul\":28270:28409   */\n      swap1\n      pop\n        /* \"#utility.yul\":27997:28416   */\n      swap2\n      swap1\n      pop\n      jump\t// out\n        /* \"#utility.yul\":28422:28841   */\n    tag_224:\n        /* \"#utility.yul\":28588:28592   */\n      0x00\n        /* \"#utility.yul\":28626:28628   */\n      0x20\n        /* \"#utility.yul\":28615:28624   */\n      dup3\n        /* \"#utility.yul\":28611:28629   */\n      add\n        /* \"#utility.yul\":28603:28629   */\n      swap1\n      pop\n        /* \"#utility.yul\":28675:28684   */\n      dup2\n        /* \"#utility.yul\":28669:28673   */\n      dup2\n        /* \"#utility.yul\":28665:28685   */\n      sub\n        /* \"#utility.yul\":28661:28662   */\n      0x00\n        /* \"#utility.yul\":28650:28659   */\n      dup4\n        /* \"#utility.yul\":28646:28663   */\n      add\n        /* \"#utility.yul\":28639:28686   */\n      mstore\n        /* \"#utility.yul\":28703:28834   */\n      tag_742\n        /* \"#utility.yul\":28829:28833   */\n      dup2\n        /* \"#utility.yul\":28703:28834   */\n      tag_673\n      jump\t// in\n    tag_742:\n        /* \"#utility.yul\":28695:28834   */\n      swap1\n      pop\n        /* \"#utility.yul\":28422:28841   */\n      swap2\n      swap1\n      pop\n      jump\t// out\n        /* \"#utility.yul\":28847:29208   */\n    tag_40:\n        /* \"#utility.yul\":28984:28988   */\n      0x00\n        /* \"#utility.yul\":29022:29024   */\n      0x20\n        /* \"#utility.yul\":29011:29020   */\n      dup3\n        /* \"#utility.yul\":29007:29025   */\n      add\n        /* \"#utility.yul\":28999:29025   */\n      swap1\n      pop\n        /* \"#utility.yul\":29071:29080   */\n      dup2\n        /* \"#utility.yul\":29065:29069   */\n      dup2\n        /* \"#utility.yul\":29061:29081   */\n      sub\n        /* \"#utility.yul\":29057:29058   */\n      0x00\n        /* \"#utility.yul\":29046:29055   */\n      dup4\n        /* \"#utility.yul\":29042:29059   */\n      add\n        /* \"#utility.yul\":29035:29082   */\n      mstore\n        /* \"#utility.yul\":29099:29201   */\n      tag_744\n        /* \"#utility.yul\":29196:29200   */\n      dup2\n        /* \"#utility.yul\":29187:29193   */\n      dup5\n        /* \"#utility.yul\":29099:29201   */\n      tag_678\n      jump\t// in\n    tag_744:\n        /* \"#utility.yul\":29091:29201   */\n      swap1\n      pop\n        /* \"#utility.yul\":28847:29208   */\n      swap3\n      swap2\n      pop\n      pop\n      jump\t// out\n        /* \"#utility.yul\":29214:29567   */\n    tag_60:\n        /* \"#utility.yul\":29347:29351   */\n      0x00\n        /* \"#utility.yul\":29385:29387   */\n      0x20\n        /* \"#utility.yul\":29374:29383   */\n      dup3\n        /* \"#utility.yul\":29370:29388   */\n      add\n        /* \"#utility.yul\":29362:29388   */\n      swap1\n      pop\n        /* \"#utility.yul\":29434:29443   */\n      dup2\n        /* \"#utility.yul\":29428:29432   */\n      dup2\n        /* \"#utility.yul\":29424:29444   */\n      sub\n        /* \"#utility.yul\":29420:29421   */\n      0x00\n        /* \"#utility.yul\":29409:29418   */\n      dup4\n        /* \"#utility.yul\":29405:29422   */\n      add\n        /* \"#utility.yul\":29398:29445   */\n      mstore\n        /* \"#utility.yul\":29462:29560   */\n      tag_746\n        /* \"#utility.yul\":29555:29559   */\n      dup2\n        /* \"#utility.yul\":29546:29552   */\n      dup5\n        /* \"#utility.yul\":29462:29560   */\n      tag_686\n      jump\t// in\n    tag_746:\n        /* \"#utility.yul\":29454:29560   */\n      swap1\n      pop\n        /* \"#utility.yul\":29214:29567   */\n      swap3\n      swap2\n      pop\n      pop\n      jump\t// out\n        /* \"#utility.yul\":29573:29795   */\n    tag_119:\n        /* \"#utility.yul\":29666:29670   */\n      0x00\n        /* \"#utility.yul\":29704:29706   */\n      0x20\n        /* \"#utility.yul\":29693:29702   */\n      dup3\n        /* \"#utility.yul\":29689:29707   */\n      add\n        /* \"#utility.yul\":29681:29707   */\n      swap1\n      pop\n        /* \"#utility.yul\":29717:29788   */\n      tag_748\n        /* \"#utility.yul\":29785:29786   */\n      0x00\n        /* \"#utility.yul\":29774:29783   */\n      dup4\n        /* \"#utility.yul\":29770:29787   */\n      add\n        /* \"#utility.yul\":29761:29767   */\n      dup5\n        /* \"#utility.yul\":29717:29788   */\n      tag_696\n      jump\t// in\n    tag_748:\n        /* \"#utility.yul\":29573:29795   */\n      swap3\n      swap2\n      pop\n      pop\n      jump\t// out\n        /* \"#utility.yul\":29801:29930   */\n    tag_440:\n        /* \"#utility.yul\":29835:29841   */\n      0x00\n        /* \"#utility.yul\":29862:29882   */\n      tag_750\n      tag_751\n      jump\t// in\n    tag_750:\n        /* \"#utility.yul\":29852:29882   */\n      swap1\n      pop\n        /* \"#utility.yul\":29891:29924   */\n      tag_752\n        /* \"#utility.yul\":29919:29923   */\n      dup3\n        /* \"#utility.yul\":29911:29917   */\n      dup3\n        /* \"#utility.yul\":29891:29924   */\n      tag_753\n      jump\t// in\n    tag_752:\n        /* \"#utility.yul\":29801:29930   */\n      swap2\n      swap1\n      pop\n      jump\t// out\n        /* \"#utility.yul\":29936:30011   */\n    tag_751:\n        /* \"#utility.yul\":29969:29975   */\n      0x00\n        /* \"#utility.yul\":30002:30004   */\n      0x40\n        /* \"#utility.yul\":29996:30005   */\n      mload\n        /* \"#utility.yul\":29986:30005   */\n      swap1\n      pop\n        /* \"#utility.yul\":29936:30011   */\n      swap1\n      jump\t// out\n        /* \"#utility.yul\":30017:30325   */\n    tag_439:\n        /* \"#utility.yul\":30079:30083   */\n      0x00\n        /* \"#utility.yul\":30169:30187   */\n      0xffffffffffffffff\n        /* \"#utility.yul\":30161:30167   */\n      dup3\n        /* \"#utility.yul\":30158:30188   */\n      gt\n        /* \"#utility.yul\":30155:30211   */\n      iszero\n      tag_756\n      jumpi\n        /* \"#utility.yul\":30191:30209   */\n      tag_757\n      tag_758\n      jump\t// in\n    tag_757:\n        /* \"#utility.yul\":30155:30211   */\n    tag_756:\n        /* \"#utility.yul\":30229:30258   */\n      tag_759\n        /* \"#utility.yul\":30251:30257   */\n      dup3\n        /* \"#utility.yul\":30229:30258   */\n      tag_634\n      jump\t// in\n    tag_759:\n        /* \"#utility.yul\":30221:30258   */\n      swap1\n      pop\n        /* \"#utility.yul\":30313:30317   */\n      0x20\n        /* \"#utility.yul\":30307:30311   */\n      dup2\n        /* \"#utility.yul\":30303:30318   */\n      add\n        /* \"#utility.yul\":30295:30318   */\n      swap1\n      pop\n        /* \"#utility.yul\":30017:30325   */\n      swap2\n      swap1\n      pop\n      jump\t// out\n        /* \"#utility.yul\":30331:30463   */\n    tag_601:\n        /* \"#utility.yul\":30398:30402   */\n      0x00\n        /* \"#utility.yul\":30421:30424   */\n      dup2\n        /* \"#utility.yul\":30413:30424   */\n      swap1\n      pop\n        /* \"#utility.yul\":30451:30455   */\n      0x20\n        /* \"#utility.yul\":30446:30449   */\n      dup3\n        /* \"#utility.yul\":30442:30456   */\n      add\n        /* \"#utility.yul\":30434:30456   */\n      swap1\n      pop\n        /* \"#utility.yul\":30331:30463   */\n      swap2\n      swap1\n      pop\n      jump\t// out\n        /* \"#utility.yul\":30469:30611   */\n    tag_615:\n        /* \"#utility.yul\":30546:30550   */\n      0x00\n        /* \"#utility.yul\":30569:30572   */\n      dup2\n        /* \"#utility.yul\":30561:30572   */\n      swap1\n      pop\n        /* \"#utility.yul\":30599:30603   */\n      0x20\n        /* \"#utility.yul\":30594:30597   */\n      dup3\n        /* \"#utility.yul\":30590:30604   */\n      add\n        /* \"#utility.yul\":30582:30604   */\n      swap1\n      pop\n        /* \"#utility.yul\":30469:30611   */\n      swap2\n      swap1\n      pop\n      jump\t// out\n        /* \"#utility.yul\":30617:30731   */\n    tag_597:\n        /* \"#utility.yul\":30684:30690   */\n      0x00\n        /* \"#utility.yul\":30718:30723   */\n      dup2\n        /* \"#utility.yul\":30712:30724   */\n      mload\n        /* \"#utility.yul\":30702:30724   */\n      swap1\n      pop\n        /* \"#utility.yul\":30617:30731   */\n      swap2\n      swap1\n      pop\n      jump\t// out\n        /* \"#utility.yul\":30737:30861   */\n    tag_611:\n        /* \"#utility.yul\":30814:30820   */\n      0x00\n        /* \"#utility.yul\":30848:30853   */\n      dup2\n        /* \"#utility.yul\":30842:30854   */\n      mload\n        /* \"#utility.yul\":30832:30854   */\n      swap1\n      pop\n        /* \"#utility.yul\":30737:30861   */\n      swap2\n      swap1\n      pop\n      jump\t// out\n        /* \"#utility.yul\":30867:30966   */\n    tag_628:\n        /* \"#utility.yul\":30919:30925   */\n      0x00\n        /* \"#utility.yul\":30953:30958   */\n      dup2\n        /* \"#utility.yul\":30947:30959   */\n      mload\n        /* \"#utility.yul\":30937:30959   */\n      swap1\n      pop\n        /* \"#utility.yul\":30867:30966   */\n      swap2\n      swap1\n      pop\n      jump\t// out\n        /* \"#utility.yul\":30972:31085   */\n    tag_607:\n        /* \"#utility.yul\":31042:31046   */\n      0x00\n        /* \"#utility.yul\":31074:31078   */\n      0x20\n        /* \"#utility.yul\":31069:31072   */\n      dup3\n        /* \"#utility.yul\":31065:31079   */\n      add\n        /* \"#utility.yul\":31057:31079   */\n      swap1\n      pop\n        /* \"#utility.yul\":30972:31085   */\n      swap2\n      swap1\n      pop\n      jump\t// out\n        /* \"#utility.yul\":31091:31214   */\n    tag_621:\n        /* \"#utility.yul\":31171:31175   */\n      0x00\n        /* \"#utility.yul\":31203:31207   */\n      0x20\n        /* \"#utility.yul\":31198:31201   */\n      dup3\n        /* \"#utility.yul\":31194:31208   */\n      add\n        /* \"#utility.yul\":31186:31208   */\n      swap1\n      pop\n        /* \"#utility.yul\":31091:31214   */\n      swap2\n      swap1\n      pop\n      jump\t// out\n        /* \"#utility.yul\":31220:31404   */\n    tag_599:\n        /* \"#utility.yul\":31319:31330   */\n      0x00\n        /* \"#utility.yul\":31353:31359   */\n      dup3\n        /* \"#utility.yul\":31348:31351   */\n      dup3\n        /* \"#utility.yul\":31341:31360   */\n      mstore\n        /* \"#utility.yul\":31393:31397   */\n      0x20\n        /* \"#utility.yul\":31388:31391   */\n      dup3\n        /* \"#utility.yul\":31384:31398   */\n      add\n        /* \"#utility.yul\":31369:31398   */\n      swap1\n      pop\n        /* \"#utility.yul\":31220:31404   */\n      swap3\n      swap2\n      pop\n      pop\n      jump\t// out\n        /* \"#utility.yul\":31410:31604   */\n    tag_613:\n        /* \"#utility.yul\":31519:31530   */\n      0x00\n        /* \"#utility.yul\":31553:31559   */\n      dup3\n        /* \"#utility.yul\":31548:31551   */\n      dup3\n        /* \"#utility.yul\":31541:31560   */\n      mstore\n        /* \"#utility.yul\":31593:31597   */\n      0x20\n        /* \"#utility.yul\":31588:31591   */\n      dup3\n        /* \"#utility.yul\":31584:31598   */\n      add\n        /* \"#utility.yul\":31569:31598   */\n      swap1\n      pop\n        /* \"#utility.yul\":31410:31604   */\n      swap3\n      swap2\n      pop\n      pop\n      jump\t// out\n        /* \"#utility.yul\":31610:31769   */\n    tag_630:\n        /* \"#utility.yul\":31684:31695   */\n      0x00\n        /* \"#utility.yul\":31718:31724   */\n      dup3\n        /* \"#utility.yul\":31713:31716   */\n      dup3\n        /* \"#utility.yul\":31706:31725   */\n      mstore\n        /* \"#utility.yul\":31758:31762   */\n      0x20\n        /* \"#utility.yul\":31753:31756   */\n      dup3\n        /* \"#utility.yul\":31749:31763   */\n      add\n        /* \"#utility.yul\":31734:31763   */\n      swap1\n      pop\n        /* \"#utility.yul\":31610:31769   */\n      swap3\n      swap2\n      pop\n      pop\n      jump\t// out\n        /* \"#utility.yul\":31775:31944   */\n    tag_639:\n        /* \"#utility.yul\":31859:31870   */\n      0x00\n        /* \"#utility.yul\":31893:31899   */\n      dup3\n        /* \"#utility.yul\":31888:31891   */\n      dup3\n        /* \"#utility.yul\":31881:31900   */\n      mstore\n        /* \"#utility.yul\":31933:31937   */\n      0x20\n        /* \"#utility.yul\":31928:31931   */\n      dup3\n        /* \"#utility.yul\":31924:31938   */\n      add\n        /* \"#utility.yul\":31909:31938   */\n      swap1\n      pop\n        /* \"#utility.yul\":31775:31944   */\n      swap3\n      swap2\n      pop\n      pop\n      jump\t// out\n        /* \"#utility.yul\":31950:32098   */\n    tag_646:\n        /* \"#utility.yul\":32052:32063   */\n      0x00\n        /* \"#utility.yul\":32089:32092   */\n      dup2\n        /* \"#utility.yul\":32074:32092   */\n      swap1\n      pop\n        /* \"#utility.yul\":31950:32098   */\n      swap3\n      swap2\n      pop\n      pop\n      jump\t// out\n        /* \"#utility.yul\":32104:32409   */\n    tag_326:\n        /* \"#utility.yul\":32144:32147   */\n      0x00\n        /* \"#utility.yul\":32163:32183   */\n      tag_773\n        /* \"#utility.yul\":32181:32182   */\n      dup3\n        /* \"#utility.yul\":32163:32183   */\n      tag_695\n      jump\t// in\n    tag_773:\n        /* \"#utility.yul\":32158:32183   */\n      swap2\n      pop\n        /* \"#utility.yul\":32197:32217   */\n      tag_774\n        /* \"#utility.yul\":32215:32216   */\n      dup4\n        /* \"#utility.yul\":32197:32217   */\n      tag_695\n      jump\t// in\n    tag_774:\n        /* \"#utility.yul\":32192:32217   */\n      swap3\n      pop\n        /* \"#utility.yul\":32351:32352   */\n      dup3\n        /* \"#utility.yul\":32283:32349   */\n      0xffffffffffffffffffffffffffffffffffffffffffffffffffffffffffffffff\n        /* \"#utility.yul\":32279:32353   */\n      sub\n        /* \"#utility.yul\":32276:32277   */\n      dup3\n        /* \"#utility.yul\":32273:32354   */\n      gt\n        /* \"#utility.yul\":32270:32377   */\n      iszero\n      tag_775\n      jumpi\n        /* \"#utility.yul\":32357:32375   */\n      tag_776\n      tag_777\n      jump\t// in\n    tag_776:\n        /* \"#utility.yul\":32270:32377   */\n    tag_775:\n        /* \"#utility.yul\":32401:32402   */\n      dup3\n        /* \"#utility.yul\":32398:32399   */\n      dup3\n        /* \"#utility.yul\":32394:32403   */\n      add\n        /* \"#utility.yul\":32387:32403   */\n      swap1\n      pop\n        /* \"#utility.yul\":32104:32409   */\n      swap3\n      swap2\n      pop\n      pop\n      jump\t// out\n        /* \"#utility.yul\":32415:32606   */\n    tag_250:\n        /* \"#utility.yul\":32455:32459   */\n      0x00\n        /* \"#utility.yul\":32475:32495   */\n      tag_779\n        /* \"#utility.yul\":32493:32494   */\n      dup3\n        /* \"#utility.yul\":32475:32495   */\n      tag_695\n      jump\t// in\n    tag_779:\n        /* \"#utility.yul\":32470:32495   */\n      swap2\n      pop\n        /* \"#utility.yul\":32509:32529   */\n      tag_780\n        /* \"#utility.yul\":32527:32528   */\n      dup4\n        /* \"#utility.yul\":32509:32529   */\n      tag_695\n      jump\t// in\n    tag_780:\n        /* \"#utility.yul\":32504:32529   */\n      swap3\n      pop\n        /* \"#utility.yul\":32548:32549   */\n      dup3\n        /* \"#utility.yul\":32545:32546   */\n      dup3\n        /* \"#utility.yul\":32542:32550   */\n      lt\n        /* \"#utility.yul\":32539:32573   */\n      iszero\n      tag_781\n      jumpi\n        /* \"#utility.yul\":32553:32571   */\n      tag_782\n      tag_777\n      jump\t// in\n    tag_782:\n        /* \"#utility.yul\":32539:32573   */\n    tag_781:\n        /* \"#utility.yul\":32598:32599   */\n      dup3\n        /* \"#utility.yul\":32595:32596   */\n      dup3\n        /* \"#utility.yul\":32591:32600   */\n      sub\n        /* \"#utility.yul\":32583:32600   */\n      swap1\n      pop\n        /* \"#utility.yul\":32415:32606   */\n      swap3\n      swap2\n      pop\n      pop\n      jump\t// out\n        /* \"#utility.yul\":32612:32708   */\n    tag_590:\n        /* \"#utility.yul\":32649:32656   */\n      0x00\n        /* \"#utility.yul\":32678:32702   */\n      tag_784\n        /* \"#utility.yul\":32696:32701   */\n      dup3\n        /* \"#utility.yul\":32678:32702   */\n      tag_785\n      jump\t// in\n    tag_784:\n        /* \"#utility.yul\":32667:32702   */\n      swap1\n      pop\n        /* \"#utility.yul\":32612:32708   */\n      swap2\n      swap1\n      pop\n      jump\t// out\n        /* \"#utility.yul\":32714:32804   */\n    tag_625:\n        /* \"#utility.yul\":32748:32755   */\n      0x00\n        /* \"#utility.yul\":32791:32796   */\n      dup2\n        /* \"#utility.yul\":32784:32797   */\n      iszero\n        /* \"#utility.yul\":32777:32798   */\n      iszero\n        /* \"#utility.yul\":32766:32798   */\n      swap1\n      pop\n        /* \"#utility.yul\":32714:32804   */\n      swap2\n      swap1\n      pop\n      jump\t// out\n        /* \"#utility.yul\":32810:32936   */\n    tag_785:\n        /* \"#utility.yul\":32847:32854   */\n      0x00\n        /* \"#utility.yul\":32887:32929   */\n      0xffffffffffffffffffffffffffffffffffffffff\n        /* \"#utility.yul\":32880:32885   */\n      dup3\n        /* \"#utility.yul\":32876:32930   */\n      and\n        /* \"#utility.yul\":32865:32930   */\n      swap1\n      pop\n        /* \"#utility.yul\":32810:32936   */\n      swap2\n      swap1\n      pop\n      jump\t// out\n        /* \"#utility.yul\":32942:33019   */\n    tag_695:\n        /* \"#utility.yul\":32979:32986   */\n      0x00\n        /* \"#utility.yul\":33008:33013   */\n      dup2\n        /* \"#utility.yul\":32997:33013   */\n      swap1\n      pop\n        /* \"#utility.yul\":32942:33019   */\n      swap2\n      swap1\n      pop\n      jump\t// out\n        /* \"#utility.yul\":33025:33179   */\n    tag_445:\n        /* \"#utility.yul\":33109:33115   */\n      dup3\n        /* \"#utility.yul\":33104:33107   */\n      dup2\n        /* \"#utility.yul\":33099:33102   */\n      dup4\n        /* \"#utility.yul\":33086:33116   */\n      calldatacopy\n        /* \"#utility.yul\":33171:33172   */\n      0x00\n        /* \"#utility.yul\":33162:33168   */\n      dup4\n        /* \"#utility.yul\":33157:33160   */\n      dup4\n        /* \"#utility.yul\":33153:33169   */\n      add\n        /* \"#utility.yul\":33146:33173   */\n      mstore\n        /* \"#utility.yul\":33025:33179   */\n      pop\n      pop\n      pop\n      jump\t// out\n        /* \"#utility.yul\":33185:33492   */\n    tag_632:\n        /* \"#utility.yul\":33253:33254   */\n      0x00\n        /* \"#utility.yul\":33263:33376   */\n    tag_791:\n        /* \"#utility.yul\":33277:33283   */\n      dup4\n        /* \"#utility.yul\":33274:33275   */\n      dup2\n        /* \"#utility.yul\":33271:33284   */\n      lt\n        /* \"#utility.yul\":33263:33376   */\n      iszero\n      tag_793\n      jumpi\n        /* \"#utility.yul\":33362:33363   */\n      dup1\n        /* \"#utility.yul\":33357:33360   */\n      dup3\n        /* \"#utility.yul\":33353:33364   */\n      add\n        /* \"#utility.yul\":33347:33365   */\n      mload\n        /* \"#utility.yul\":33343:33344   */\n      dup2\n        /* \"#utility.yul\":33338:33341   */\n      dup5\n        /* \"#utility.yul\":33334:33345   */\n      add\n        /* \"#utility.yul\":33327:33366   */\n      mstore\n        /* \"#utility.yul\":33299:33301   */\n      0x20\n        /* \"#utility.yul\":33296:33297   */\n      dup2\n        /* \"#utility.yul\":33292:33302   */\n      add\n        /* \"#utility.yul\":33287:33302   */\n      swap1\n      pop\n        /* \"#utility.yul\":33263:33376   */\n      jump(tag_791)\n    tag_793:\n        /* \"#utility.yul\":33394:33400   */\n      dup4\n        /* \"#utility.yul\":33391:33392   */\n      dup2\n        /* \"#utility.yul\":33388:33401   */\n      gt\n        /* \"#utility.yul\":33385:33486   */\n      iszero\n      tag_794\n      jumpi\n        /* \"#utility.yul\":33474:33475   */\n      0x00\n        /* \"#utility.yul\":33465:33471   */\n      dup5\n        /* \"#utility.yul\":33460:33463   */\n      dup5\n        /* \"#utility.yul\":33456:33472   */\n      add\n        /* \"#utility.yul\":33449:33476   */\n      mstore\n        /* \"#utility.yul\":33385:33486   */\n    tag_794:\n        /* \"#utility.yul\":33234:33492   */\n      pop\n        /* \"#utility.yul\":33185:33492   */\n      pop\n      pop\n      pop\n      jump\t// out\n        /* \"#utility.yul\":33498:33818   */\n    tag_155:\n        /* \"#utility.yul\":33542:33548   */\n      0x00\n        /* \"#utility.yul\":33579:33580   */\n      0x02\n        /* \"#utility.yul\":33573:33577   */\n      dup3\n        /* \"#utility.yul\":33569:33581   */\n      div\n        /* \"#utility.yul\":33559:33581   */\n      swap1\n      pop\n        /* \"#utility.yul\":33626:33627   */\n      0x01\n        /* \"#utility.yul\":33620:33624   */\n      dup3\n        /* \"#utility.yul\":33616:33628   */\n      and\n        /* \"#utility.yul\":33647:33665   */\n      dup1\n        /* \"#utility.yul\":33637:33718   */\n      tag_796\n      jumpi\n        /* \"#utility.yul\":33703:33707   */\n      0x7f\n        /* \"#utility.yul\":33695:33701   */\n      dup3\n        /* \"#utility.yul\":33691:33708   */\n      and\n        /* \"#utility.yul\":33681:33708   */\n      swap2\n      pop\n        /* \"#utility.yul\":33637:33718   */\n    tag_796:\n        /* \"#utility.yul\":33765:33767   */\n      0x20\n        /* \"#utility.yul\":33757:33763   */\n      dup3\n        /* \"#utility.yul\":33754:33768   */\n      lt\n        /* \"#utility.yul\":33734:33752   */\n      dup2\n        /* \"#utility.yul\":33731:33769   */\n      eq\n        /* \"#utility.yul\":33728:33812   */\n      iszero\n      tag_797\n      jumpi\n        /* \"#utility.yul\":33784:33802   */\n      tag_798\n      tag_799\n      jump\t// in\n    tag_798:\n        /* \"#utility.yul\":33728:33812   */\n    tag_797:\n        /* \"#utility.yul\":33549:33818   */\n      pop\n        /* \"#utility.yul\":33498:33818   */\n      swap2\n      swap1\n      pop\n      jump\t// out\n        /* \"#utility.yul\":33824:34105   */\n    tag_753:\n        /* \"#utility.yul\":33907:33934   */\n      tag_801\n        /* \"#utility.yul\":33929:33933   */\n      dup3\n        /* \"#utility.yul\":33907:33934   */\n      tag_634\n      jump\t// in\n    tag_801:\n        /* \"#utility.yul\":33899:33905   */\n      dup2\n        /* \"#utility.yul\":33895:33935   */\n      add\n        /* \"#utility.yul\":34037:34043   */\n      dup2\n        /* \"#utility.yul\":34025:34035   */\n      dup2\n        /* \"#utility.yul\":34022:34044   */\n      lt\n        /* \"#utility.yul\":34001:34019   */\n      0xffffffffffffffff\n        /* \"#utility.yul\":33989:33999   */\n      dup3\n        /* \"#utility.yul\":33986:34020   */\n      gt\n        /* \"#utility.yul\":33983:34045   */\n      or\n        /* \"#utility.yul\":33980:34068   */\n      iszero\n      tag_802\n      jumpi\n        /* \"#utility.yul\":34048:34066   */\n      tag_803\n      tag_758\n      jump\t// in\n    tag_803:\n        /* \"#utility.yul\":33980:34068   */\n    tag_802:\n        /* \"#utility.yul\":34088:34098   */\n      dup1\n        /* \"#utility.yul\":34084:34086   */\n      0x40\n        /* \"#utility.yul\":34077:34099   */\n      mstore\n        /* \"#utility.yul\":33867:34105   */\n      pop\n        /* \"#utility.yul\":33824:34105   */\n      pop\n      pop\n      jump\t// out\n        /* \"#utility.yul\":34111:34344   */\n    tag_149:\n        /* \"#utility.yul\":34150:34153   */\n      0x00\n        /* \"#utility.yul\":34173:34197   */\n      tag_805\n        /* \"#utility.yul\":34191:34196   */\n      dup3\n        /* \"#utility.yul\":34173:34197   */\n      tag_695\n      jump\t// in\n    tag_805:\n        /* \"#utility.yul\":34164:34197   */\n      swap2\n      pop\n        /* \"#utility.yul\":34219:34285   */\n      0xffffffffffffffffffffffffffffffffffffffffffffffffffffffffffffffff\n        /* \"#utility.yul\":34212:34217   */\n      dup3\n        /* \"#utility.yul\":34209:34286   */\n      eq\n        /* \"#utility.yul\":34206:34309   */\n      iszero\n      tag_806\n      jumpi\n        /* \"#utility.yul\":34289:34307   */\n      tag_807\n      tag_777\n      jump\t// in\n    tag_807:\n        /* \"#utility.yul\":34206:34309   */\n    tag_806:\n        /* \"#utility.yul\":34336:34337   */\n      0x01\n        /* \"#utility.yul\":34329:34334   */\n      dup3\n        /* \"#utility.yul\":34325:34338   */\n      add\n        /* \"#utility.yul\":34318:34338   */\n      swap1\n      pop\n        /* \"#utility.yul\":34111:34344   */\n      swap2\n      swap1\n      pop\n      jump\t// out\n        /* \"#utility.yul\":34350:34530   */\n    tag_777:\n        /* \"#utility.yul\":34398:34475   */\n      0x4e487b7100000000000000000000000000000000000000000000000000000000\n        /* \"#utility.yul\":34395:34396   */\n      0x00\n        /* \"#utility.yul\":34388:34476   */\n      mstore\n        /* \"#utility.yul\":34495:34499   */\n      0x11\n        /* \"#utility.yul\":34492:34493   */\n      0x04\n        /* \"#utility.yul\":34485:34500   */\n      mstore\n        /* \"#utility.yul\":34519:34523   */\n      0x24\n        /* \"#utility.yul\":34516:34517   */\n      0x00\n        /* \"#utility.yul\":34509:34524   */\n      revert\n        /* \"#utility.yul\":34536:34716   */\n    tag_799:\n        /* \"#utility.yul\":34584:34661   */\n      0x4e487b7100000000000000000000000000000000000000000000000000000000\n        /* \"#utility.yul\":34581:34582   */\n      0x00\n        /* \"#utility.yul\":34574:34662   */\n      mstore\n        /* \"#utility.yul\":34681:34685   */\n      0x22\n        /* \"#utility.yul\":34678:34679   */\n      0x04\n        /* \"#utility.yul\":34671:34686   */\n      mstore\n        /* \"#utility.yul\":34705:34709   */\n      0x24\n        /* \"#utility.yul\":34702:34703   */\n      0x00\n        /* \"#utility.yul\":34695:34710   */\n      revert\n        /* \"#utility.yul\":34722:34902   */\n    tag_259:\n        /* \"#utility.yul\":34770:34847   */\n      0x4e487b7100000000000000000000000000000000000000000000000000000000\n        /* \"#utility.yul\":34767:34768   */\n      0x00\n        /* \"#utility.yul\":34760:34848   */\n      mstore\n        /* \"#utility.yul\":34867:34871   */\n      0x31\n        /* \"#utility.yul\":34864:34865   */\n      0x04\n        /* \"#utility.yul\":34857:34872   */\n      mstore\n        /* \"#utility.yul\":34891:34895   */\n      0x24\n        /* \"#utility.yul\":34888:34889   */\n      0x00\n        /* \"#utility.yul\":34881:34896   */\n      revert\n        /* \"#utility.yul\":34908:35088   */\n    tag_245:\n        /* \"#utility.yul\":34956:35033   */\n      0x4e487b7100000000000000000000000000000000000000000000000000000000\n        /* \"#utility.yul\":34953:34954   */\n      0x00\n        /* \"#utility.yul\":34946:35034   */\n      mstore\n        /* \"#utility.yul\":35053:35057   */\n      0x32\n        /* \"#utility.yul\":35050:35051   */\n      0x04\n        /* \"#utility.yul\":35043:35058   */\n      mstore\n        /* \"#utility.yul\":35077:35081   */\n      0x24\n        /* \"#utility.yul\":35074:35075   */\n      0x00\n        /* \"#utility.yul\":35067:35082   */\n      revert\n        /* \"#utility.yul\":35094:35274   */\n    tag_758:\n        /* \"#utility.yul\":35142:35219   */\n      0x4e487b7100000000000000000000000000000000000000000000000000000000\n        /* \"#utility.yul\":35139:35140   */\n      0x00\n        /* \"#utility.yul\":35132:35220   */\n      mstore\n        /* \"#utility.yul\":35239:35243   */\n      0x41\n        /* \"#utility.yul\":35236:35237   */\n      0x04\n        /* \"#utility.yul\":35229:35244   */\n      mstore\n        /* \"#utility.yul\":35263:35267   */\n      0x24\n        /* \"#utility.yul\":35260:35261   */\n      0x00\n        /* \"#utility.yul\":35253:35268   */\n      revert\n        /* \"#utility.yul\":35280:35397   */\n    tag_458:\n        /* \"#utility.yul\":35389:35390   */\n      0x00\n        /* \"#utility.yul\":35386:35387   */\n      dup1\n        /* \"#utility.yul\":35379:35391   */\n      revert\n        /* \"#utility.yul\":35403:35520   */\n    tag_443:\n        /* \"#utility.yul\":35512:35513   */\n      0x00\n        /* \"#utility.yul\":35509:35510   */\n      dup1\n        /* \"#utility.yul\":35502:35514   */\n      revert\n        /* \"#utility.yul\":35526:35643   */\n    tag_475:\n        /* \"#utility.yul\":35635:35636   */\n      0x00\n        /* \"#utility.yul\":35632:35633   */\n      dup1\n        /* \"#utility.yul\":35625:35637   */\n      revert\n        /* \"#utility.yul\":35649:35766   */\n    tag_467:\n        /* \"#utility.yul\":35758:35759   */\n      0x00\n        /* \"#utility.yul\":35755:35756   */\n      dup1\n        /* \"#utility.yul\":35748:35760   */\n      revert\n        /* \"#utility.yul\":35772:35874   */\n    tag_634:\n        /* \"#utility.yul\":35813:35819   */\n      0x00\n        /* \"#utility.yul\":35864:35866   */\n      0x1f\n        /* \"#utility.yul\":35860:35867   */\n      not\n        /* \"#utility.yul\":35855:35857   */\n      0x1f\n        /* \"#utility.yul\":35848:35853   */\n      dup4\n        /* \"#utility.yul\":35844:35858   */\n      add\n        /* \"#utility.yul\":35840:35868   */\n      and\n        /* \"#utility.yul\":35830:35868   */\n      swap1\n      pop\n        /* \"#utility.yul\":35772:35874   */\n      swap2\n      swap1\n      pop\n      jump\t// out\n        /* \"#utility.yul\":35880:36042   */\n    tag_652:\n        /* \"#utility.yul\":36020:36034   */\n      0x596f75206e6f742062616e6b0000000000000000000000000000000000000000\n        /* \"#utility.yul\":36016:36017   */\n      0x00\n        /* \"#utility.yul\":36008:36014   */\n      dup3\n        /* \"#utility.yul\":36004:36018   */\n      add\n        /* \"#utility.yul\":35997:36035   */\n      mstore\n        /* \"#utility.yul\":35880:36042   */\n      pop\n      jump\t// out\n        /* \"#utility.yul\":36048:36212   */\n    tag_657:\n        /* \"#utility.yul\":36188:36204   */\n      0x57726f6e672070617373776f7264000000000000000000000000000000000000\n        /* \"#utility.yul\":36184:36185   */\n      0x00\n        /* \"#utility.yul\":36176:36182   */\n      dup3\n        /* \"#utility.yul\":36172:36186   */\n      add\n        /* \"#utility.yul\":36165:36205   */\n      mstore\n        /* \"#utility.yul\":36048:36212   */\n      pop\n      jump\t// out\n        /* \"#utility.yul\":36218:36387   */\n    tag_662:\n        /* \"#utility.yul\":36358:36379   */\n      0x4c6f67696e20616c726561647920657869737400000000000000000000000000\n        /* \"#utility.yul\":36354:36355   */\n      0x00\n        /* \"#utility.yul\":36346:36352   */\n      dup3\n        /* \"#utility.yul\":36342:36356   */\n      add\n        /* \"#utility.yul\":36335:36380   */\n      mstore\n        /* \"#utility.yul\":36218:36387   */\n      pop\n      jump\t// out\n        /* \"#utility.yul\":36393:36560   */\n    tag_667:\n        /* \"#utility.yul\":36533:36552   */\n      0x53686f7020646f65736e74206578697374000000000000000000000000000000\n        /* \"#utility.yul\":36529:36530   */\n      0x00\n        /* \"#utility.yul\":36521:36527   */\n      dup3\n        /* \"#utility.yul\":36517:36531   */\n      add\n        /* \"#utility.yul\":36510:36553   */\n      mstore\n        /* \"#utility.yul\":36393:36560   */\n      pop\n      jump\t// out\n        /* \"#utility.yul\":36566:36737   */\n    tag_672:\n        /* \"#utility.yul\":36706:36729   */\n      0x596f7520616c726561647920646f20616374696f6e0000000000000000000000\n        /* \"#utility.yul\":36702:36703   */\n      0x00\n        /* \"#utility.yul\":36694:36700   */\n      dup3\n        /* \"#utility.yul\":36690:36704   */\n      add\n        /* \"#utility.yul\":36683:36730   */\n      mstore\n        /* \"#utility.yul\":36566:36737   */\n      pop\n      jump\t// out\n        /* \"#utility.yul\":36743:36910   */\n    tag_677:\n        /* \"#utility.yul\":36883:36902   */\n      0x5573657220646f65736e74206578697374000000000000000000000000000000\n        /* \"#utility.yul\":36879:36880   */\n      0x00\n        /* \"#utility.yul\":36871:36877   */\n      dup3\n        /* \"#utility.yul\":36867:36881   */\n      add\n        /* \"#utility.yul\":36860:36903   */\n      mstore\n        /* \"#utility.yul\":36743:36910   */\n      pop\n      jump\t// out\n        /* \"#utility.yul\":36916:37038   */\n    tag_449:\n        /* \"#utility.yul\":36989:37013   */\n      tag_825\n        /* \"#utility.yul\":37007:37012   */\n      dup2\n        /* \"#utility.yul\":36989:37013   */\n      tag_590\n      jump\t// in\n    tag_825:\n        /* \"#utility.yul\":36982:36987   */\n      dup2\n        /* \"#utility.yul\":36979:37014   */\n      eq\n        /* \"#utility.yul\":36969:37032   */\n      tag_826\n      jumpi\n        /* \"#utility.yul\":37028:37029   */\n      0x00\n        /* \"#utility.yul\":37025:37026   */\n      dup1\n        /* \"#utility.yul\":37018:37030   */\n      revert\n        /* \"#utility.yul\":36969:37032   */\n    tag_826:\n        /* \"#utility.yul\":36916:37038   */\n      pop\n      jump\t// out\n        /* \"#utility.yul\":37044:37160   */\n    tag_453:\n        /* \"#utility.yul\":37114:37135   */\n      tag_828\n        /* \"#utility.yul\":37129:37134   */\n      dup2\n        /* \"#utility.yul\":37114:37135   */\n      tag_625\n      jump\t// in\n    tag_828:\n        /* \"#utility.yul\":37107:37112   */\n      dup2\n        /* \"#utility.yul\":37104:37136   */\n      eq\n        /* \"#utility.yul\":37094:37154   */\n      tag_829\n      jumpi\n        /* \"#utility.yul\":37150:37151   */\n      0x00\n        /* \"#utility.yul\":37147:37148   */\n      dup1\n        /* \"#utility.yul\":37140:37152   */\n      revert\n        /* \"#utility.yul\":37094:37154   */\n    tag_829:\n        /* \"#utility.yul\":37044:37160   */\n      pop\n      jump\t// out\n        /* \"#utility.yul\":37166:37288   */\n    tag_463:\n        /* \"#utility.yul\":37239:37263   */\n      tag_831\n        /* \"#utility.yul\":37257:37262   */\n      dup2\n        /* \"#utility.yul\":37239:37263   */\n      tag_695\n      jump\t// in\n    tag_831:\n        /* \"#utility.yul\":37232:37237   */\n      dup2\n        /* \"#utility.yul\":37229:37264   */\n      eq\n        /* \"#utility.yul\":37219:37282   */\n      tag_832\n      jumpi\n        /* \"#utility.yul\":37278:37279   */\n      0x00\n        /* \"#utility.yul\":37275:37276   */\n      dup1\n        /* \"#utility.yul\":37268:37280   */\n      revert\n        /* \"#utility.yul\":37219:37282   */\n    tag_832:\n        /* \"#utility.yul\":37166:37288   */\n      pop\n      jump\t// out\n\n    auxdata: 0xa26469706673582212202f1208767a7fd681a0277493460af5d8ae01ca8a2b0f4c920439f2abf171cfa964736f6c63430008070033\n}\n",
				"bytecode": {
					"linkReferences": {},
					"object": "60806040523480156200001157600080fd5b5060405162003feb38038062003feb833981810160405281019062000037919062000096565b80600260006101000a81548173ffffffffffffffffffffffffffffffffffffffff021916908373ffffffffffffffffffffffffffffffffffffffff160217905550506200011b565b600081519050620000908162000101565b92915050565b600060208284031215620000af57620000ae620000fc565b5b6000620000bf848285016200007f565b91505092915050565b6000620000d582620000dc565b9050919050565b600073ffffffffffffffffffffffffffffffffffffffff82169050919050565b600080fd5b6200010c81620000c8565b81146200011857600080fd5b50565b613ec0806200012b6000396000f3fe608060405234801561001057600080fd5b50600436106101735760003560e01c80637fdbe231116100de578063ba37d00011610097578063e51679f411610071578063e51679f4146104a0578063e930267f146104bc578063ee86e3c0146104d8578063f2c6f34c146104f457610173565b8063ba37d0001461040d578063debd53b01461043d578063e37332ba1461046d57610173565b80637fdbe231146103495780638794b69d1461036557806395386d3d14610383578063999d1f851461039f5780639dfc3a20146103bd5780639ee80ed5146103d957610173565b806356f11e031161013057806356f11e031461025f5780635eaf1bd21461027b57806363df1969146102ab578063689e1c03146102c757806376cdb03b146102fb5780637a28f1441461031957610173565b80631f5b32ca1461017857806323e92804146101945780632dca1fcc146101c457806335349b20146101f5578063455bfbf21461021157806348eed2131461022f575b600080fd5b610192600480360381019061018d9190612c7d565b610510565b005b6101ae60048036038101906101a99190612c7d565b610631565b6040516101bb9190613920565b60405180910390f35b6101de60048036038101906101d99190612c50565b6107e9565b6040516101ec92919061376e565b60405180910390f35b61020f600480360381019061020a9190612d64565b61091d565b005b610219610b31565b604051610226919061370f565b60405180910390f35b61024960048036038101906102449190613152565b610c0a565b6040516102569190613942565b60405180910390f35b61027960048036038101906102749190612c50565b610fa8565b005b61029560048036038101906102909190613011565b611410565b6040516102a2919061374c565b60405180910390f35b6102c560048036038101906102c09190612d64565b6114c9565b005b6102e160048036038101906102dc9190613051565b6116a1565b6040516102f295949392919061367e565b60405180910390f35b61030361192d565b6040516103109190613663565b60405180910390f35b610333600480360381019061032e9190613011565b611953565b604051610340919061374c565b60405180910390f35b610363600480360381019061035e9190612c50565b611a0c565b005b61036d611b4e565b60405161037a919061370f565b60405180910390f35b61039d600480360381019061039891906130f6565b611c27565b005b6103a7611ea5565b6040516103b491906136ed565b60405180910390f35b6103d760048036038101906103d29190612c7d565b611f33565b005b6103f360048036038101906103ee919061309a565b612054565b6040516104049594939291906137ff565b60405180910390f35b61042760048036038101906104229190612c7d565b6121bd565b6040516104349190613731565b60405180910390f35b61045760048036038101906104529190612c50565b612202565b6040516104649190613964565b60405180910390f35b61048760048036038101906104829190613051565b61221a565b60405161049794939291906137a5565b60405180910390f35b6104ba60048036038101906104b59190612cd9565b612405565b005b6104d660048036038101906104d191906131ca565b612504565b005b6104f260048036038101906104ed9190612f4c565b612607565b005b61050e60048036038101906105099190612e4f565b6127df565b005b600b60008373ffffffffffffffffffffffffffffffffffffffff1673ffffffffffffffffffffffffffffffffffffffff1681526020019081526020016000208160405161055d919061364c565b908152602001604051809103902060009054906101000a900460ff16156105b9576040517f08c379a00000000000000000000000000000000000000000000000000000000081526004016105b0906138e0565b60405180910390fd5b600a816040516105c9919061364c565b908152602001604051809103902060008373ffffffffffffffffffffffffffffffffffffffff1673ffffffffffffffffffffffffffffffffffffffff168152602001908152602001600020600201600081548092919061062890613bf6565b91905055505050565b610639612a8a565b600a82604051610649919061364c565b908152602001604051809103902060008473ffffffffffffffffffffffffffffffffffffffff1673ffffffffffffffffffffffffffffffffffffffff1681526020019081526020016000206040518060a00160405290816000820180546106af90613b93565b80601f01602080910402602001604051908101604052809291908181526020018280546106db90613b93565b80156107285780601f106106fd57610100808354040283529160200191610728565b820191906000526020600020905b81548152906001019060200180831161070b57829003601f168201915b5050505050815260200160018201805461074190613b93565b80601f016020809104026020016040519081016040528092919081815260200182805461076d90613b93565b80156107ba5780601f1061078f576101008083540402835291602001916107ba565b820191906000526020600020905b81548152906001019060200180831161079d57829003601f168201915b505050505081526020016002820154815260200160038201548152602001600482015481525050905092915050565b600860205280600052604060002060009150905080600001805461080c90613b93565b80601f016020809104026020016040519081016040528092919081815260200182805461083890613b93565b80156108855780601f1061085a57610100808354040283529160200191610885565b820191906000526020600020905b81548152906001019060200180831161086857829003601f168201915b50505050509080600101805461089a90613b93565b80601f01602080910402602001604051908101604052809291908181526020018280546108c690613b93565b80156109135780601f106108e857610100808354040283529160200191610913565b820191906000526020600020905b8154815290600101906020018083116108f657829003601f168201915b5050505050905082565b83600073ffffffffffffffffffffffffffffffffffffffff16600382604051610946919061364c565b908152602001604051809103902060000160009054906101000a900473ffffffffffffffffffffffffffffffffffffffff1673ffffffffffffffffffffffffffffffffffffffff16146109ce576040517f08c379a00000000000000000000000000000000000000000000000000000000081526004016109c5906138a0565b60405180910390fd5b600085908060018154018082558091505060019003906000526020600020016000909190919091509080519060200190610a09929190612ab9565b5060006040518060a001604052808873ffffffffffffffffffffffffffffffffffffffff16815260200187815260200186815260200185815260200184815250905080600387604051610a5c919061364c565b908152602001604051809103902060008201518160000160006101000a81548173ffffffffffffffffffffffffffffffffffffffff021916908373ffffffffffffffffffffffffffffffffffffffff1602179055506020820151816001019080519060200190610acd929190612ab9565b506040820151816002019080519060200190610aea929190612ab9565b506060820151816003019080519060200190610b07929190612ab9565b506080820151816004019080519060200190610b24929190612ab9565b5090505050505050505050565b60606005805480602002602001604051908101604052809291908181526020016000905b82821015610c01578382906000526020600020018054610b7490613b93565b80601f0160208091040260200160405190810160405280929190818152602001828054610ba090613b93565b8015610bed5780601f10610bc257610100808354040283529160200191610bed565b820191906000526020600020905b815481529060010190602001808311610bd057829003601f168201915b505050505081526020019060010190610b55565b50505050905090565b610c12612b3f565b6000600384604051610c24919061364c565b90815260200160405180910390206040518060a00160405290816000820160009054906101000a900473ffffffffffffffffffffffffffffffffffffffff1673ffffffffffffffffffffffffffffffffffffffff1673ffffffffffffffffffffffffffffffffffffffff168152602001600182018054610ca390613b93565b80601f0160208091040260200160405190810160405280929190818152602001828054610ccf90613b93565b8015610d1c5780601f10610cf157610100808354040283529160200191610d1c565b820191906000526020600020905b815481529060010190602001808311610cff57829003601f168201915b50505050508152602001600282018054610d3590613b93565b80601f0160208091040260200160405190810160405280929190818152602001828054610d6190613b93565b8015610dae5780601f10610d8357610100808354040283529160200191610dae565b820191906000526020600020905b815481529060010190602001808311610d9157829003601f168201915b50505050508152602001600382018054610dc790613b93565b80601f0160208091040260200160405190810160405280929190818152602001828054610df390613b93565b8015610e405780601f10610e1557610100808354040283529160200191610e40565b820191906000526020600020905b815481529060010190602001808311610e2357829003601f168201915b50505050508152602001600482018054610e5990613b93565b80601f0160208091040260200160405190810160405280929190818152602001828054610e8590613b93565b8015610ed25780601f10610ea757610100808354040283529160200191610ed2565b820191906000526020600020905b815481529060010190602001808311610eb557829003601f168201915b5050505050815250509050600073ffffffffffffffffffffffffffffffffffffffff16816000015173ffffffffffffffffffffffffffffffffffffffff161415610f51576040517f08c379a0000000000000000000000000000000000000000000000000000000008152600401610f4890613900565b60405180910390fd5b610f5f816040015184612a31565b610f9e576040517f08c379a0000000000000000000000000000000000000000000000000000000008152600401610f9590613880565b60405180910390fd5b8091505092915050565b61108b600860008373ffffffffffffffffffffffffffffffffffffffff1673ffffffffffffffffffffffffffffffffffffffff1681526020019081526020016000206000018054610ff890613b93565b80601f016020809104026020016040519081016040528092919081815260200182805461102490613b93565b80156110715780601f1061104657610100808354040283529160200191611071565b820191906000526020600020905b81548152906001019060200180831161105457829003601f168201915b505050505060405180602001604052806000815250612a31565b156110cb576040517f08c379a00000000000000000000000000000000000000000000000000000000081526004016110c2906138c0565b60405180910390fd5b6000805b600180549050811015611165578273ffffffffffffffffffffffffffffffffffffffff166001828154811061110757611106613ccc565b5b9060005260206000200160009054906101000a900473ffffffffffffffffffffffffffffffffffffffff1673ffffffffffffffffffffffffffffffffffffffff161415611152578091505b808061115d90613bf6565b9150506110cf565b5060018080805490506111789190613ad5565b8154811061118957611188613ccc565b5b9060005260206000200160009054906101000a900473ffffffffffffffffffffffffffffffffffffffff16600182815481106111c8576111c7613ccc565b5b9060005260206000200160006101000a81548173ffffffffffffffffffffffffffffffffffffffff021916908373ffffffffffffffffffffffffffffffffffffffff160217905550600180548061122257611221613c9d565b5b6001900381819060005260206000200160006101000a81549073ffffffffffffffffffffffffffffffffffffffff0219169055905560005b600760008473ffffffffffffffffffffffffffffffffffffffff1673ffffffffffffffffffffffffffffffffffffffff1681526020019081526020016000208054905081101561140b576000600760008573ffffffffffffffffffffffffffffffffffffffff1673ffffffffffffffffffffffffffffffffffffffff16815260200190815260200160002082815481106112f7576112f6613ccc565b5b90600052602060002001805461130c90613b93565b80601f016020809104026020016040519081016040528092919081815260200182805461133890613b93565b80156113855780601f1061135a57610100808354040283529160200191611385565b820191906000526020600020905b81548152906001019060200180831161136857829003601f168201915b505050505090506040518060400160405280600581526020017f62757965720000000000000000000000000000000000000000000000000000008152506003826040516113d2919061364c565b908152602001604051809103902060040190805190602001906113f6929190612ab9565b5050808061140390613bf6565b91505061125a565b505050565b6009602052816000526040600020818154811061142c57600080fd5b9060005260206000200160009150915050805461144890613b93565b80601f016020809104026020016040519081016040528092919081815260200182805461147490613b93565b80156114c15780601f10611496576101008083540402835291602001916114c1565b820191906000526020600020905b8154815290600101906020018083116114a457829003601f168201915b505050505081565b83600073ffffffffffffffffffffffffffffffffffffffff166003826040516114f2919061364c565b908152602001604051809103902060000160009054906101000a900473ffffffffffffffffffffffffffffffffffffffff1673ffffffffffffffffffffffffffffffffffffffff161461157a576040517f08c379a0000000000000000000000000000000000000000000000000000000008152600401611571906138a0565b60405180910390fd5b60006040518060a001604052808873ffffffffffffffffffffffffffffffffffffffff168152602001878152602001868152602001858152602001848152509050806003876040516115cc919061364c565b908152602001604051809103902060008201518160000160006101000a81548173ffffffffffffffffffffffffffffffffffffffff021916908373ffffffffffffffffffffffffffffffffffffffff160217905550602082015181600101908051906020019061163d929190612ab9565b50604082015181600201908051906020019061165a929190612ab9565b506060820151816003019080519060200190611677929190612ab9565b506080820151816004019080519060200190611694929190612ab9565b5090505050505050505050565b6003818051602081018201805184825260208301602085012081835280955050505050506000915090508060000160009054906101000a900473ffffffffffffffffffffffffffffffffffffffff169080600101805461170090613b93565b80601f016020809104026020016040519081016040528092919081815260200182805461172c90613b93565b80156117795780601f1061174e57610100808354040283529160200191611779565b820191906000526020600020905b81548152906001019060200180831161175c57829003601f168201915b50505050509080600201805461178e90613b93565b80601f01602080910402602001604051908101604052809291908181526020018280546117ba90613b93565b80156118075780601f106117dc57610100808354040283529160200191611807565b820191906000526020600020905b8154815290600101906020018083116117ea57829003601f168201915b50505050509080600301805461181c90613b93565b80601f016020809104026020016040519081016040528092919081815260200182805461184890613b93565b80156118955780601f1061186a57610100808354040283529160200191611895565b820191906000526020600020905b81548152906001019060200180831161187857829003601f168201915b5050505050908060040180546118aa90613b93565b80601f01602080910402602001604051908101604052809291908181526020018280546118d690613b93565b80156119235780601f106118f857610100808354040283529160200191611923565b820191906000526020600020905b81548152906001019060200180831161190657829003601f168201915b5050505050905085565b600260009054906101000a900473ffffffffffffffffffffffffffffffffffffffff1681565b6007602052816000526040600020818154811061196f57600080fd5b9060005260206000200160009150915050805461198b90613b93565b80601f01602080910402602001604051908101604052809291908181526020018280546119b790613b93565b8015611a045780601f106119d957610100808354040283529160200191611a04565b820191906000526020600020905b8154815290600101906020018083116119e757829003601f168201915b505050505081565b600260009054906101000a900473ffffffffffffffffffffffffffffffffffffffff1673ffffffffffffffffffffffffffffffffffffffff163373ffffffffffffffffffffffffffffffffffffffff1614611a9c576040517f08c379a0000000000000000000000000000000000000000000000000000000008152600401611a9390613860565b60405180910390fd5b8073ffffffffffffffffffffffffffffffffffffffff166108fc683635c9adc5dea000009081150290604051600060405180830381858888f19350505050158015611aeb573d6000803e3d6000fd5b50683635c9adc5dea00000600660008373ffffffffffffffffffffffffffffffffffffffff1673ffffffffffffffffffffffffffffffffffffffff1681526020019081526020016000206000828254611b449190613a7f565b9250508190555050565b60606000805480602002602001604051908101604052809291908181526020016000905b82821015611c1e578382906000526020600020018054611b9190613b93565b80601f0160208091040260200160405190810160405280929190818152602001828054611bbd90613b93565b8015611c0a5780601f10611bdf57610100808354040283529160200191611c0a565b820191906000526020600020905b815481529060010190602001808311611bed57829003601f168201915b505050505081526020019060010190611b72565b50505050905090565b6000600483604051611c39919061364c565b9081526020016040518091039020604051806080016040529081600082018054611c6290613b93565b80601f0160208091040260200160405190810160405280929190818152602001828054611c8e90613b93565b8015611cdb5780601f10611cb057610100808354040283529160200191611cdb565b820191906000526020600020905b815481529060010190602001808311611cbe57829003601f168201915b50505050508152602001600182018054611cf490613b93565b80601f0160208091040260200160405190810160405280929190818152602001828054611d2090613b93565b8015611d6d5780601f10611d4257610100808354040283529160200191611d6d565b820191906000526020600020905b815481529060010190602001808311611d5057829003601f168201915b50505050508152602001600282018054611d8690613b93565b80601f0160208091040260200160405190810160405280929190818152602001828054611db290613b93565b8015611dff5780601f10611dd457610100808354040283529160200191611dff565b820191906000526020600020905b815481529060010190602001808311611de257829003601f168201915b505050505081526020016003820160009054906101000a900460ff16151515158152505090508115611e66578060400151600384604051611e40919061364c565b90815260200160405180910390206004019080519060200190611e64929190612ab9565b505b6001600484604051611e78919061364c565b908152602001604051809103902060030160006101000a81548160ff021916908315150217905550505050565b60606001805480602002602001604051908101604052809291908181526020018280548015611f2957602002820191906000526020600020905b8160009054906101000a900473ffffffffffffffffffffffffffffffffffffffff1673ffffffffffffffffffffffffffffffffffffffff1681526020019060010190808311611edf575b5050505050905090565b600b60008373ffffffffffffffffffffffffffffffffffffffff1673ffffffffffffffffffffffffffffffffffffffff16815260200190815260200160002081604051611f80919061364c565b908152602001604051809103902060009054906101000a900460ff1615611fdc576040517f08c379a0000000000000000000000000000000000000000000000000000000008152600401611fd3906138e0565b60405180910390fd5b600a81604051611fec919061364c565b908152602001604051809103902060008373ffffffffffffffffffffffffffffffffffffffff1673ffffffffffffffffffffffffffffffffffffffff168152602001908152602001600020600301600081548092919061204b90613bf6565b91905055505050565b600a828051602081018201805184825260208301602085012081835280955050505050506020528060005260406000206000915091505080600001805461209a90613b93565b80601f01602080910402602001604051908101604052809291908181526020018280546120c690613b93565b80156121135780601f106120e857610100808354040283529160200191612113565b820191906000526020600020905b8154815290600101906020018083116120f657829003601f168201915b50505050509080600101805461212890613b93565b80601f016020809104026020016040519081016040528092919081815260200182805461215490613b93565b80156121a15780601f10612176576101008083540402835291602001916121a1565b820191906000526020600020905b81548152906001019060200180831161218457829003601f168201915b5050505050908060020154908060030154908060040154905085565b600b602052816000526040600020818051602081018201805184825260208301602085012081835280955050505050506000915091509054906101000a900460ff1681565b60066020528060005260406000206000915090505481565b60048180516020810182018051848252602083016020850120818352809550505050505060009150905080600001805461225390613b93565b80601f016020809104026020016040519081016040528092919081815260200182805461227f90613b93565b80156122cc5780601f106122a1576101008083540402835291602001916122cc565b820191906000526020600020905b8154815290600101906020018083116122af57829003601f168201915b5050505050908060010180546122e190613b93565b80601f016020809104026020016040519081016040528092919081815260200182805461230d90613b93565b801561235a5780601f1061232f5761010080835404028352916020019161235a565b820191906000526020600020905b81548152906001019060200180831161233d57829003601f168201915b50505050509080600201805461236f90613b93565b80601f016020809104026020016040519081016040528092919081815260200182805461239b90613b93565b80156123e85780601f106123bd576101008083540402835291602001916123e8565b820191906000526020600020905b8154815290600101906020018083116123cb57829003601f168201915b5050505050908060030160009054906101000a900460ff16905084565b600060405180604001604052808481526020018381525090506001849080600181540180825580915050600190039060005260206000200160009091909190916101000a81548173ffffffffffffffffffffffffffffffffffffffff021916908373ffffffffffffffffffffffffffffffffffffffff16021790555080600860008673ffffffffffffffffffffffffffffffffffffffff1673ffffffffffffffffffffffffffffffffffffffff16815260200190815260200160002060008201518160000190805190602001906124dd929190612ab9565b5060208201518160010190805190602001906124fa929190612ab9565b5090505050505050565b6000604051806080016040528086815260200185815260200184815260200183151581525090508060048660405161253c919061364c565b90815260200160405180910390206000820151816000019080519060200190612566929190612ab9565b506020820151816001019080519060200190612583929190612ab9565b5060408201518160020190805190602001906125a0929190612ab9565b5060608201518160030160006101000a81548160ff0219169083151502179055509050506005859080600181540180825580915050600190039060005260206000200160009091909190915090805190602001906125ff929190612ab9565b505050505050565b60006040518060a00160405280878152602001868152602001858152602001848152602001838152509050600960008873ffffffffffffffffffffffffffffffffffffffff1673ffffffffffffffffffffffffffffffffffffffff168152602001908152602001600020869080600181540180825580915050600190039060005260206000200160009091909190915090805190602001906126aa929190612ab9565b5080600a876040516126bc919061364c565b908152602001604051809103902060008973ffffffffffffffffffffffffffffffffffffffff1673ffffffffffffffffffffffffffffffffffffffff1681526020019081526020016000206000820151816000019080519060200190612723929190612ab9565b506020820151816001019080519060200190612740929190612ab9565b506040820151816002015560608201518160030155608082015181600401559050506001600b60008973ffffffffffffffffffffffffffffffffffffffff1673ffffffffffffffffffffffffffffffffffffffff168152602001908152602001600020876040516127b1919061364c565b908152602001604051809103902060006101000a81548160ff02191690831515021790555050505050505050565b84600073ffffffffffffffffffffffffffffffffffffffff16600382604051612808919061364c565b908152602001604051809103902060000160009054906101000a900473ffffffffffffffffffffffffffffffffffffffff1673ffffffffffffffffffffffffffffffffffffffff1614612890576040517f08c379a0000000000000000000000000000000000000000000000000000000008152600401612887906138a0565b60405180910390fd5b60006040518060a001604052808973ffffffffffffffffffffffffffffffffffffffff168152602001888152602001878152602001868152602001858152509050806003886040516128e2919061364c565b908152602001604051809103902060008201518160000160006101000a81548173ffffffffffffffffffffffffffffffffffffffff021916908373ffffffffffffffffffffffffffffffffffffffff1602179055506020820151816001019080519060200190612953929190612ab9565b506040820151816002019080519060200190612970929190612ab9565b50606082015181600301908051906020019061298d929190612ab9565b5060808201518160040190805190602001906129aa929190612ab9565b50905050600760008473ffffffffffffffffffffffffffffffffffffffff1673ffffffffffffffffffffffffffffffffffffffff16815260200190815260200160002087908060018154018082558091505060019003906000526020600020016000909190919091509080519060200190612a26929190612ab9565b505050505050505050565b600081604051602001612a44919061364c565b6040516020818303038152906040528051906020012083604051602001612a6b919061364c565b6040516020818303038152906040528051906020012014905092915050565b6040518060a0016040528060608152602001606081526020016000815260200160008152602001600081525090565b828054612ac590613b93565b90600052602060002090601f016020900481019282612ae75760008555612b2e565b82601f10612b0057805160ff1916838001178555612b2e565b82800160010185558215612b2e579182015b82811115612b2d578251825591602001919060010190612b12565b5b509050612b3b9190612b84565b5090565b6040518060a00160405280600073ffffffffffffffffffffffffffffffffffffffff168152602001606081526020016060815260200160608152602001606081525090565b5b80821115612b9d576000816000905550600101612b85565b5090565b6000612bb4612baf846139a4565b61397f565b905082815260208101848484011115612bd057612bcf613d2f565b5b612bdb848285613b51565b509392505050565b600081359050612bf281613e45565b92915050565b600081359050612c0781613e5c565b92915050565b600082601f830112612c2257612c21613d2a565b5b8135612c32848260208601612ba1565b91505092915050565b600081359050612c4a81613e73565b92915050565b600060208284031215612c6657612c65613d39565b5b6000612c7484828501612be3565b91505092915050565b60008060408385031215612c9457612c93613d39565b5b6000612ca285828601612be3565b925050602083013567ffffffffffffffff811115612cc357612cc2613d34565b5b612ccf85828601612c0d565b9150509250929050565b600080600060608486031215612cf257612cf1613d39565b5b6000612d0086828701612be3565b935050602084013567ffffffffffffffff811115612d2157612d20613d34565b5b612d2d86828701612c0d565b925050604084013567ffffffffffffffff811115612d4e57612d4d613d34565b5b612d5a86828701612c0d565b9150509250925092565b600080600080600060a08688031215612d8057612d7f613d39565b5b6000612d8e88828901612be3565b955050602086013567ffffffffffffffff811115612daf57612dae613d34565b5b612dbb88828901612c0d565b945050604086013567ffffffffffffffff811115612ddc57612ddb613d34565b5b612de888828901612c0d565b935050606086013567ffffffffffffffff811115612e0957612e08613d34565b5b612e1588828901612c0d565b925050608086013567ffffffffffffffff811115612e3657612e35613d34565b5b612e4288828901612c0d565b9150509295509295909350565b60008060008060008060c08789031215612e6c57612e6b613d39565b5b6000612e7a89828a01612be3565b965050602087013567ffffffffffffffff811115612e9b57612e9a613d34565b5b612ea789828a01612c0d565b955050604087013567ffffffffffffffff811115612ec857612ec7613d34565b5b612ed489828a01612c0d565b945050606087013567ffffffffffffffff811115612ef557612ef4613d34565b5b612f0189828a01612c0d565b935050608087013567ffffffffffffffff811115612f2257612f21613d34565b5b612f2e89828a01612c0d565b92505060a0612f3f89828a01612be3565b9150509295509295509295565b60008060008060008060c08789031215612f6957612f68613d39565b5b6000612f7789828a01612be3565b965050602087013567ffffffffffffffff811115612f9857612f97613d34565b5b612fa489828a01612c0d565b955050604087013567ffffffffffffffff811115612fc557612fc4613d34565b5b612fd189828a01612c0d565b9450506060612fe289828a01612c3b565b9350506080612ff389828a01612c3b565b92505060a061300489828a01612c3b565b9150509295509295509295565b6000806040838503121561302857613027613d39565b5b600061303685828601612be3565b925050602061304785828601612c3b565b9150509250929050565b60006020828403121561306757613066613d39565b5b600082013567ffffffffffffffff81111561308557613084613d34565b5b61309184828501612c0d565b91505092915050565b600080604083850312156130b1576130b0613d39565b5b600083013567ffffffffffffffff8111156130cf576130ce613d34565b5b6130db85828601612c0d565b92505060206130ec85828601612be3565b9150509250929050565b6000806040838503121561310d5761310c613d39565b5b600083013567ffffffffffffffff81111561312b5761312a613d34565b5b61313785828601612c0d565b925050602061314885828601612bf8565b9150509250929050565b6000806040838503121561316957613168613d39565b5b600083013567ffffffffffffffff81111561318757613186613d34565b5b61319385828601612c0d565b925050602083013567ffffffffffffffff8111156131b4576131b3613d34565b5b6131c085828601612c0d565b9150509250929050565b600080600080608085870312156131e4576131e3613d39565b5b600085013567ffffffffffffffff81111561320257613201613d34565b5b61320e87828801612c0d565b945050602085013567ffffffffffffffff81111561322f5761322e613d34565b5b61323b87828801612c0d565b935050604085013567ffffffffffffffff81111561325c5761325b613d34565b5b61326887828801612c0d565b925050606061327987828801612bf8565b91505092959194509250565b600061329183836132b1565b60208301905092915050565b60006132a983836133b1565b905092915050565b6132ba81613b09565b82525050565b6132c981613b09565b82525050565b60006132da826139f5565b6132e48185613a30565b93506132ef836139d5565b8060005b838110156133205781516133078882613285565b975061331283613a16565b9250506001810190506132f3565b5085935050505092915050565b600061333882613a00565b6133428185613a41565b935083602082028501613354856139e5565b8060005b858110156133905784840389528151613371858261329d565b945061337c83613a23565b925060208a01995050600181019050613358565b50829750879550505050505092915050565b6133ab81613b1b565b82525050565b60006133bc82613a0b565b6133c68185613a52565b93506133d6818560208601613b60565b6133df81613d3e565b840191505092915050565b60006133f582613a0b565b6133ff8185613a63565b935061340f818560208601613b60565b61341881613d3e565b840191505092915050565b600061342e82613a0b565b6134388185613a74565b9350613448818560208601613b60565b80840191505092915050565b6000613461600c83613a63565b915061346c82613d4f565b602082019050919050565b6000613484600e83613a63565b915061348f82613d78565b602082019050919050565b60006134a7601383613a63565b91506134b282613da1565b602082019050919050565b60006134ca601183613a63565b91506134d582613dca565b602082019050919050565b60006134ed601583613a63565b91506134f882613df3565b602082019050919050565b6000613510601183613a63565b915061351b82613e1c565b602082019050919050565b600060a083016000830151848203600086015261354382826133b1565b9150506020830151848203602086015261355d82826133b1565b9150506040830151613572604086018261362e565b506060830151613585606086018261362e565b506080830151613598608086018261362e565b508091505092915050565b600060a0830160008301516135bb60008601826132b1565b50602083015184820360208601526135d382826133b1565b915050604083015184820360408601526135ed82826133b1565b9150506060830151848203606086015261360782826133b1565b9150506080830151848203608086015261362182826133b1565b9150508091505092915050565b61363781613b47565b82525050565b61364681613b47565b82525050565b60006136588284613423565b915081905092915050565b600060208201905061367860008301846132c0565b92915050565b600060a08201905061369360008301886132c0565b81810360208301526136a581876133ea565b905081810360408301526136b981866133ea565b905081810360608301526136cd81856133ea565b905081810360808301526136e181846133ea565b90509695505050505050565b6000602082019050818103600083015261370781846132cf565b905092915050565b60006020820190508181036000830152613729818461332d565b905092915050565b600060208201905061374660008301846133a2565b92915050565b6000602082019050818103600083015261376681846133ea565b905092915050565b6000604082019050818103600083015261378881856133ea565b9050818103602083015261379c81846133ea565b90509392505050565b600060808201905081810360008301526137bf81876133ea565b905081810360208301526137d381866133ea565b905081810360408301526137e781856133ea565b90506137f660608301846133a2565b95945050505050565b600060a082019050818103600083015261381981886133ea565b9050818103602083015261382d81876133ea565b905061383c604083018661363d565b613849606083018561363d565b613856608083018461363d565b9695505050505050565b6000602082019050818103600083015261387981613454565b9050919050565b6000602082019050818103600083015261389981613477565b9050919050565b600060208201905081810360008301526138b98161349a565b9050919050565b600060208201905081810360008301526138d9816134bd565b9050919050565b600060208201905081810360008301526138f9816134e0565b9050919050565b6000602082019050818103600083015261391981613503565b9050919050565b6000602082019050818103600083015261393a8184613526565b905092915050565b6000602082019050818103600083015261395c81846135a3565b905092915050565b6000602082019050613979600083018461363d565b92915050565b600061398961399a565b90506139958282613bc5565b919050565b6000604051905090565b600067ffffffffffffffff8211156139bf576139be613cfb565b5b6139c882613d3e565b9050602081019050919050565b6000819050602082019050919050565b6000819050602082019050919050565b600081519050919050565b600081519050919050565b600081519050919050565b6000602082019050919050565b6000602082019050919050565b600082825260208201905092915050565b600082825260208201905092915050565b600082825260208201905092915050565b600082825260208201905092915050565b600081905092915050565b6000613a8a82613b47565b9150613a9583613b47565b9250827fffffffffffffffffffffffffffffffffffffffffffffffffffffffffffffffff03821115613aca57613ac9613c3f565b5b828201905092915050565b6000613ae082613b47565b9150613aeb83613b47565b925082821015613afe57613afd613c3f565b5b828203905092915050565b6000613b1482613b27565b9050919050565b60008115159050919050565b600073ffffffffffffffffffffffffffffffffffffffff82169050919050565b6000819050919050565b82818337600083830152505050565b60005b83811015613b7e578082015181840152602081019050613b63565b83811115613b8d576000848401525b50505050565b60006002820490506001821680613bab57607f821691505b60208210811415613bbf57613bbe613c6e565b5b50919050565b613bce82613d3e565b810181811067ffffffffffffffff82111715613bed57613bec613cfb565b5b80604052505050565b6000613c0182613b47565b91507fffffffffffffffffffffffffffffffffffffffffffffffffffffffffffffffff821415613c3457613c33613c3f565b5b600182019050919050565b7f4e487b7100000000000000000000000000000000000000000000000000000000600052601160045260246000fd5b7f4e487b7100000000000000000000000000000000000000000000000000000000600052602260045260246000fd5b7f4e487b7100000000000000000000000000000000000000000000000000000000600052603160045260246000fd5b7f4e487b7100000000000000000000000000000000000000000000000000000000600052603260045260246000fd5b7f4e487b7100000000000000000000000000000000000000000000000000000000600052604160045260246000fd5b600080fd5b600080fd5b600080fd5b600080fd5b6000601f19601f8301169050919050565b7f596f75206e6f742062616e6b0000000000000000000000000000000000000000600082015250565b7f57726f6e672070617373776f7264000000000000000000000000000000000000600082015250565b7f4c6f67696e20616c726561647920657869737400000000000000000000000000600082015250565b7f53686f7020646f65736e74206578697374000000000000000000000000000000600082015250565b7f596f7520616c726561647920646f20616374696f6e0000000000000000000000600082015250565b7f5573657220646f65736e74206578697374000000000000000000000000000000600082015250565b613e4e81613b09565b8114613e5957600080fd5b50565b613e6581613b1b565b8114613e7057600080fd5b50565b613e7c81613b47565b8114613e8757600080fd5b5056fea26469706673582212202f1208767a7fd681a0277493460af5d8ae01ca8a2b0f4c920439f2abf171cfa964736f6c63430008070033",
					"opcodes": "PUSH1 0x80 PUSH1 0x40 MSTORE CALLVALUE DUP1 ISZERO PUSH3 0x11 JUMPI PUSH1 0x0 DUP1 REVERT JUMPDEST POP PUSH1 0x40 MLOAD PUSH3 0x3FEB CODESIZE SUB DUP1 PUSH3 0x3FEB DUP4 CODECOPY DUP2 DUP2 ADD PUSH1 0x40 MSTORE DUP2 ADD SWAP1 PUSH3 0x37 SWAP2 SWAP1 PUSH3 0x96 JUMP JUMPDEST DUP1 PUSH1 0x2 PUSH1 0x0 PUSH2 0x100 EXP DUP2 SLOAD DUP2 PUSH20 0xFFFFFFFFFFFFFFFFFFFFFFFFFFFFFFFFFFFFFFFF MUL NOT AND SWAP1 DUP4 PUSH20 0xFFFFFFFFFFFFFFFFFFFFFFFFFFFFFFFFFFFFFFFF AND MUL OR SWAP1 SSTORE POP POP PUSH3 0x11B JUMP JUMPDEST PUSH1 0x0 DUP2 MLOAD SWAP1 POP PUSH3 0x90 DUP2 PUSH3 0x101 JUMP JUMPDEST SWAP3 SWAP2 POP POP JUMP JUMPDEST PUSH1 0x0 PUSH1 0x20 DUP3 DUP5 SUB SLT ISZERO PUSH3 0xAF JUMPI PUSH3 0xAE PUSH3 0xFC JUMP JUMPDEST JUMPDEST PUSH1 0x0 PUSH3 0xBF DUP5 DUP3 DUP6 ADD PUSH3 0x7F JUMP JUMPDEST SWAP2 POP POP SWAP3 SWAP2 POP POP JUMP JUMPDEST PUSH1 0x0 PUSH3 0xD5 DUP3 PUSH3 0xDC JUMP JUMPDEST SWAP1 POP SWAP2 SWAP1 POP JUMP JUMPDEST PUSH1 0x0 PUSH20 0xFFFFFFFFFFFFFFFFFFFFFFFFFFFFFFFFFFFFFFFF DUP3 AND SWAP1 POP SWAP2 SWAP1 POP JUMP JUMPDEST PUSH1 0x0 DUP1 REVERT JUMPDEST PUSH3 0x10C DUP2 PUSH3 0xC8 JUMP JUMPDEST DUP2 EQ PUSH3 0x118 JUMPI PUSH1 0x0 DUP1 REVERT JUMPDEST POP JUMP JUMPDEST PUSH2 0x3EC0 DUP1 PUSH3 0x12B PUSH1 0x0 CODECOPY PUSH1 0x0 RETURN INVALID PUSH1 0x80 PUSH1 0x40 MSTORE CALLVALUE DUP1 ISZERO PUSH2 0x10 JUMPI PUSH1 0x0 DUP1 REVERT JUMPDEST POP PUSH1 0x4 CALLDATASIZE LT PUSH2 0x173 JUMPI PUSH1 0x0 CALLDATALOAD PUSH1 0xE0 SHR DUP1 PUSH4 0x7FDBE231 GT PUSH2 0xDE JUMPI DUP1 PUSH4 0xBA37D000 GT PUSH2 0x97 JUMPI DUP1 PUSH4 0xE51679F4 GT PUSH2 0x71 JUMPI DUP1 PUSH4 0xE51679F4 EQ PUSH2 0x4A0 JUMPI DUP1 PUSH4 0xE930267F EQ PUSH2 0x4BC JUMPI DUP1 PUSH4 0xEE86E3C0 EQ PUSH2 0x4D8 JUMPI DUP1 PUSH4 0xF2C6F34C EQ PUSH2 0x4F4 JUMPI PUSH2 0x173 JUMP JUMPDEST DUP1 PUSH4 0xBA37D000 EQ PUSH2 0x40D JUMPI DUP1 PUSH4 0xDEBD53B0 EQ PUSH2 0x43D JUMPI DUP1 PUSH4 0xE37332BA EQ PUSH2 0x46D JUMPI PUSH2 0x173 JUMP JUMPDEST DUP1 PUSH4 0x7FDBE231 EQ PUSH2 0x349 JUMPI DUP1 PUSH4 0x8794B69D EQ PUSH2 0x365 JUMPI DUP1 PUSH4 0x95386D3D EQ PUSH2 0x383 JUMPI DUP1 PUSH4 0x999D1F85 EQ PUSH2 0x39F JUMPI DUP1 PUSH4 0x9DFC3A20 EQ PUSH2 0x3BD JUMPI DUP1 PUSH4 0x9EE80ED5 EQ PUSH2 0x3D9 JUMPI PUSH2 0x173 JUMP JUMPDEST DUP1 PUSH4 0x56F11E03 GT PUSH2 0x130 JUMPI DUP1 PUSH4 0x56F11E03 EQ PUSH2 0x25F JUMPI DUP1 PUSH4 0x5EAF1BD2 EQ PUSH2 0x27B JUMPI DUP1 PUSH4 0x63DF1969 EQ PUSH2 0x2AB JUMPI DUP1 PUSH4 0x689E1C03 EQ PUSH2 0x2C7 JUMPI DUP1 PUSH4 0x76CDB03B EQ PUSH2 0x2FB JUMPI DUP1 PUSH4 0x7A28F144 EQ PUSH2 0x319 JUMPI PUSH2 0x173 JUMP JUMPDEST DUP1 PUSH4 0x1F5B32CA EQ PUSH2 0x178 JUMPI DUP1 PUSH4 0x23E92804 EQ PUSH2 0x194 JUMPI DUP1 PUSH4 0x2DCA1FCC EQ PUSH2 0x1C4 JUMPI DUP1 PUSH4 0x35349B20 EQ PUSH2 0x1F5 JUMPI DUP1 PUSH4 0x455BFBF2 EQ PUSH2 0x211 JUMPI DUP1 PUSH4 0x48EED213 EQ PUSH2 0x22F JUMPI JUMPDEST PUSH1 0x0 DUP1 REVERT JUMPDEST PUSH2 0x192 PUSH1 0x4 DUP1 CALLDATASIZE SUB DUP2 ADD SWAP1 PUSH2 0x18D SWAP2 SWAP1 PUSH2 0x2C7D JUMP JUMPDEST PUSH2 0x510 JUMP JUMPDEST STOP JUMPDEST PUSH2 0x1AE PUSH1 0x4 DUP1 CALLDATASIZE SUB DUP2 ADD SWAP1 PUSH2 0x1A9 SWAP2 SWAP1 PUSH2 0x2C7D JUMP JUMPDEST PUSH2 0x631 JUMP JUMPDEST PUSH1 0x40 MLOAD PUSH2 0x1BB SWAP2 SWAP1 PUSH2 0x3920 JUMP JUMPDEST PUSH1 0x40 MLOAD DUP1 SWAP2 SUB SWAP1 RETURN JUMPDEST PUSH2 0x1DE PUSH1 0x4 DUP1 CALLDATASIZE SUB DUP2 ADD SWAP1 PUSH2 0x1D9 SWAP2 SWAP1 PUSH2 0x2C50 JUMP JUMPDEST PUSH2 0x7E9 JUMP JUMPDEST PUSH1 0x40 MLOAD PUSH2 0x1EC SWAP3 SWAP2 SWAP1 PUSH2 0x376E JUMP JUMPDEST PUSH1 0x40 MLOAD DUP1 SWAP2 SUB SWAP1 RETURN JUMPDEST PUSH2 0x20F PUSH1 0x4 DUP1 CALLDATASIZE SUB DUP2 ADD SWAP1 PUSH2 0x20A SWAP2 SWAP1 PUSH2 0x2D64 JUMP JUMPDEST PUSH2 0x91D JUMP JUMPDEST STOP JUMPDEST PUSH2 0x219 PUSH2 0xB31 JUMP JUMPDEST PUSH1 0x40 MLOAD PUSH2 0x226 SWAP2 SWAP1 PUSH2 0x370F JUMP JUMPDEST PUSH1 0x40 MLOAD DUP1 SWAP2 SUB SWAP1 RETURN JUMPDEST PUSH2 0x249 PUSH1 0x4 DUP1 CALLDATASIZE SUB DUP2 ADD SWAP1 PUSH2 0x244 SWAP2 SWAP1 PUSH2 0x3152 JUMP JUMPDEST PUSH2 0xC0A JUMP JUMPDEST PUSH1 0x40 MLOAD PUSH2 0x256 SWAP2 SWAP1 PUSH2 0x3942 JUMP JUMPDEST PUSH1 0x40 MLOAD DUP1 SWAP2 SUB SWAP1 RETURN JUMPDEST PUSH2 0x279 PUSH1 0x4 DUP1 CALLDATASIZE SUB DUP2 ADD SWAP1 PUSH2 0x274 SWAP2 SWAP1 PUSH2 0x2C50 JUMP JUMPDEST PUSH2 0xFA8 JUMP JUMPDEST STOP JUMPDEST PUSH2 0x295 PUSH1 0x4 DUP1 CALLDATASIZE SUB DUP2 ADD SWAP1 PUSH2 0x290 SWAP2 SWAP1 PUSH2 0x3011 JUMP JUMPDEST PUSH2 0x1410 JUMP JUMPDEST PUSH1 0x40 MLOAD PUSH2 0x2A2 SWAP2 SWAP1 PUSH2 0x374C JUMP JUMPDEST PUSH1 0x40 MLOAD DUP1 SWAP2 SUB SWAP1 RETURN JUMPDEST PUSH2 0x2C5 PUSH1 0x4 DUP1 CALLDATASIZE SUB DUP2 ADD SWAP1 PUSH2 0x2C0 SWAP2 SWAP1 PUSH2 0x2D64 JUMP JUMPDEST PUSH2 0x14C9 JUMP JUMPDEST STOP JUMPDEST PUSH2 0x2E1 PUSH1 0x4 DUP1 CALLDATASIZE SUB DUP2 ADD SWAP1 PUSH2 0x2DC SWAP2 SWAP1 PUSH2 0x3051 JUMP JUMPDEST PUSH2 0x16A1 JUMP JUMPDEST PUSH1 0x40 MLOAD PUSH2 0x2F2 SWAP6 SWAP5 SWAP4 SWAP3 SWAP2 SWAP1 PUSH2 0x367E JUMP JUMPDEST PUSH1 0x40 MLOAD DUP1 SWAP2 SUB SWAP1 RETURN JUMPDEST PUSH2 0x303 PUSH2 0x192D JUMP JUMPDEST PUSH1 0x40 MLOAD PUSH2 0x310 SWAP2 SWAP1 PUSH2 0x3663 JUMP JUMPDEST PUSH1 0x40 MLOAD DUP1 SWAP2 SUB SWAP1 RETURN JUMPDEST PUSH2 0x333 PUSH1 0x4 DUP1 CALLDATASIZE SUB DUP2 ADD SWAP1 PUSH2 0x32E SWAP2 SWAP1 PUSH2 0x3011 JUMP JUMPDEST PUSH2 0x1953 JUMP JUMPDEST PUSH1 0x40 MLOAD PUSH2 0x340 SWAP2 SWAP1 PUSH2 0x374C JUMP JUMPDEST PUSH1 0x40 MLOAD DUP1 SWAP2 SUB SWAP1 RETURN JUMPDEST PUSH2 0x363 PUSH1 0x4 DUP1 CALLDATASIZE SUB DUP2 ADD SWAP1 PUSH2 0x35E SWAP2 SWAP1 PUSH2 0x2C50 JUMP JUMPDEST PUSH2 0x1A0C JUMP JUMPDEST STOP JUMPDEST PUSH2 0x36D PUSH2 0x1B4E JUMP JUMPDEST PUSH1 0x40 MLOAD PUSH2 0x37A SWAP2 SWAP1 PUSH2 0x370F JUMP JUMPDEST PUSH1 0x40 MLOAD DUP1 SWAP2 SUB SWAP1 RETURN JUMPDEST PUSH2 0x39D PUSH1 0x4 DUP1 CALLDATASIZE SUB DUP2 ADD SWAP1 PUSH2 0x398 SWAP2 SWAP1 PUSH2 0x30F6 JUMP JUMPDEST PUSH2 0x1C27 JUMP JUMPDEST STOP JUMPDEST PUSH2 0x3A7 PUSH2 0x1EA5 JUMP JUMPDEST PUSH1 0x40 MLOAD PUSH2 0x3B4 SWAP2 SWAP1 PUSH2 0x36ED JUMP JUMPDEST PUSH1 0x40 MLOAD DUP1 SWAP2 SUB SWAP1 RETURN JUMPDEST PUSH2 0x3D7 PUSH1 0x4 DUP1 CALLDATASIZE SUB DUP2 ADD SWAP1 PUSH2 0x3D2 SWAP2 SWAP1 PUSH2 0x2C7D JUMP JUMPDEST PUSH2 0x1F33 JUMP JUMPDEST STOP JUMPDEST PUSH2 0x3F3 PUSH1 0x4 DUP1 CALLDATASIZE SUB DUP2 ADD SWAP1 PUSH2 0x3EE SWAP2 SWAP1 PUSH2 0x309A JUMP JUMPDEST PUSH2 0x2054 JUMP JUMPDEST PUSH1 0x40 MLOAD PUSH2 0x404 SWAP6 SWAP5 SWAP4 SWAP3 SWAP2 SWAP1 PUSH2 0x37FF JUMP JUMPDEST PUSH1 0x40 MLOAD DUP1 SWAP2 SUB SWAP1 RETURN JUMPDEST PUSH2 0x427 PUSH1 0x4 DUP1 CALLDATASIZE SUB DUP2 ADD SWAP1 PUSH2 0x422 SWAP2 SWAP1 PUSH2 0x2C7D JUMP JUMPDEST PUSH2 0x21BD JUMP JUMPDEST PUSH1 0x40 MLOAD PUSH2 0x434 SWAP2 SWAP1 PUSH2 0x3731 JUMP JUMPDEST PUSH1 0x40 MLOAD DUP1 SWAP2 SUB SWAP1 RETURN JUMPDEST PUSH2 0x457 PUSH1 0x4 DUP1 CALLDATASIZE SUB DUP2 ADD SWAP1 PUSH2 0x452 SWAP2 SWAP1 PUSH2 0x2C50 JUMP JUMPDEST PUSH2 0x2202 JUMP JUMPDEST PUSH1 0x40 MLOAD PUSH2 0x464 SWAP2 SWAP1 PUSH2 0x3964 JUMP JUMPDEST PUSH1 0x40 MLOAD DUP1 SWAP2 SUB SWAP1 RETURN JUMPDEST PUSH2 0x487 PUSH1 0x4 DUP1 CALLDATASIZE SUB DUP2 ADD SWAP1 PUSH2 0x482 SWAP2 SWAP1 PUSH2 0x3051 JUMP JUMPDEST PUSH2 0x221A JUMP JUMPDEST PUSH1 0x40 MLOAD PUSH2 0x497 SWAP5 SWAP4 SWAP3 SWAP2 SWAP1 PUSH2 0x37A5 JUMP JUMPDEST PUSH1 0x40 MLOAD DUP1 SWAP2 SUB SWAP1 RETURN JUMPDEST PUSH2 0x4BA PUSH1 0x4 DUP1 CALLDATASIZE SUB DUP2 ADD SWAP1 PUSH2 0x4B5 SWAP2 SWAP1 PUSH2 0x2CD9 JUMP JUMPDEST PUSH2 0x2405 JUMP JUMPDEST STOP JUMPDEST PUSH2 0x4D6 PUSH1 0x4 DUP1 CALLDATASIZE SUB DUP2 ADD SWAP1 PUSH2 0x4D1 SWAP2 SWAP1 PUSH2 0x31CA JUMP JUMPDEST PUSH2 0x2504 JUMP JUMPDEST STOP JUMPDEST PUSH2 0x4F2 PUSH1 0x4 DUP1 CALLDATASIZE SUB DUP2 ADD SWAP1 PUSH2 0x4ED SWAP2 SWAP1 PUSH2 0x2F4C JUMP JUMPDEST PUSH2 0x2607 JUMP JUMPDEST STOP JUMPDEST PUSH2 0x50E PUSH1 0x4 DUP1 CALLDATASIZE SUB DUP2 ADD SWAP1 PUSH2 0x509 SWAP2 SWAP1 PUSH2 0x2E4F JUMP JUMPDEST PUSH2 0x27DF JUMP JUMPDEST STOP JUMPDEST PUSH1 0xB PUSH1 0x0 DUP4 PUSH20 0xFFFFFFFFFFFFFFFFFFFFFFFFFFFFFFFFFFFFFFFF AND PUSH20 0xFFFFFFFFFFFFFFFFFFFFFFFFFFFFFFFFFFFFFFFF AND DUP2 MSTORE PUSH1 0x20 ADD SWAP1 DUP2 MSTORE PUSH1 0x20 ADD PUSH1 0x0 KECCAK256 DUP2 PUSH1 0x40 MLOAD PUSH2 0x55D SWAP2 SWAP1 PUSH2 0x364C JUMP JUMPDEST SWAP1 DUP2 MSTORE PUSH1 0x20 ADD PUSH1 0x40 MLOAD DUP1 SWAP2 SUB SWAP1 KECCAK256 PUSH1 0x0 SWAP1 SLOAD SWAP1 PUSH2 0x100 EXP SWAP1 DIV PUSH1 0xFF AND ISZERO PUSH2 0x5B9 JUMPI PUSH1 0x40 MLOAD PUSH32 0x8C379A000000000000000000000000000000000000000000000000000000000 DUP2 MSTORE PUSH1 0x4 ADD PUSH2 0x5B0 SWAP1 PUSH2 0x38E0 JUMP JUMPDEST PUSH1 0x40 MLOAD DUP1 SWAP2 SUB SWAP1 REVERT JUMPDEST PUSH1 0xA DUP2 PUSH1 0x40 MLOAD PUSH2 0x5C9 SWAP2 SWAP1 PUSH2 0x364C JUMP JUMPDEST SWAP1 DUP2 MSTORE PUSH1 0x20 ADD PUSH1 0x40 MLOAD DUP1 SWAP2 SUB SWAP1 KECCAK256 PUSH1 0x0 DUP4 PUSH20 0xFFFFFFFFFFFFFFFFFFFFFFFFFFFFFFFFFFFFFFFF AND PUSH20 0xFFFFFFFFFFFFFFFFFFFFFFFFFFFFFFFFFFFFFFFF AND DUP2 MSTORE PUSH1 0x20 ADD SWAP1 DUP2 MSTORE PUSH1 0x20 ADD PUSH1 0x0 KECCAK256 PUSH1 0x2 ADD PUSH1 0x0 DUP2 SLOAD DUP1 SWAP3 SWAP2 SWAP1 PUSH2 0x628 SWAP1 PUSH2 0x3BF6 JUMP JUMPDEST SWAP2 SWAP1 POP SSTORE POP POP POP JUMP JUMPDEST PUSH2 0x639 PUSH2 0x2A8A JUMP JUMPDEST PUSH1 0xA DUP3 PUSH1 0x40 MLOAD PUSH2 0x649 SWAP2 SWAP1 PUSH2 0x364C JUMP JUMPDEST SWAP1 DUP2 MSTORE PUSH1 0x20 ADD PUSH1 0x40 MLOAD DUP1 SWAP2 SUB SWAP1 KECCAK256 PUSH1 0x0 DUP5 PUSH20 0xFFFFFFFFFFFFFFFFFFFFFFFFFFFFFFFFFFFFFFFF AND PUSH20 0xFFFFFFFFFFFFFFFFFFFFFFFFFFFFFFFFFFFFFFFF AND DUP2 MSTORE PUSH1 0x20 ADD SWAP1 DUP2 MSTORE PUSH1 0x20 ADD PUSH1 0x0 KECCAK256 PUSH1 0x40 MLOAD DUP1 PUSH1 0xA0 ADD PUSH1 0x40 MSTORE SWAP1 DUP2 PUSH1 0x0 DUP3 ADD DUP1 SLOAD PUSH2 0x6AF SWAP1 PUSH2 0x3B93 JUMP JUMPDEST DUP1 PUSH1 0x1F ADD PUSH1 0x20 DUP1 SWAP2 DIV MUL PUSH1 0x20 ADD PUSH1 0x40 MLOAD SWAP1 DUP2 ADD PUSH1 0x40 MSTORE DUP1 SWAP3 SWAP2 SWAP1 DUP2 DUP2 MSTORE PUSH1 0x20 ADD DUP3 DUP1 SLOAD PUSH2 0x6DB SWAP1 PUSH2 0x3B93 JUMP JUMPDEST DUP1 ISZERO PUSH2 0x728 JUMPI DUP1 PUSH1 0x1F LT PUSH2 0x6FD JUMPI PUSH2 0x100 DUP1 DUP4 SLOAD DIV MUL DUP4 MSTORE SWAP2 PUSH1 0x20 ADD SWAP2 PUSH2 0x728 JUMP JUMPDEST DUP3 ADD SWAP2 SWAP1 PUSH1 0x0 MSTORE PUSH1 0x20 PUSH1 0x0 KECCAK256 SWAP1 JUMPDEST DUP2 SLOAD DUP2 MSTORE SWAP1 PUSH1 0x1 ADD SWAP1 PUSH1 0x20 ADD DUP1 DUP4 GT PUSH2 0x70B JUMPI DUP3 SWAP1 SUB PUSH1 0x1F AND DUP3 ADD SWAP2 JUMPDEST POP POP POP POP POP DUP2 MSTORE PUSH1 0x20 ADD PUSH1 0x1 DUP3 ADD DUP1 SLOAD PUSH2 0x741 SWAP1 PUSH2 0x3B93 JUMP JUMPDEST DUP1 PUSH1 0x1F ADD PUSH1 0x20 DUP1 SWAP2 DIV MUL PUSH1 0x20 ADD PUSH1 0x40 MLOAD SWAP1 DUP2 ADD PUSH1 0x40 MSTORE DUP1 SWAP3 SWAP2 SWAP1 DUP2 DUP2 MSTORE PUSH1 0x20 ADD DUP3 DUP1 SLOAD PUSH2 0x76D SWAP1 PUSH2 0x3B93 JUMP JUMPDEST DUP1 ISZERO PUSH2 0x7BA JUMPI DUP1 PUSH1 0x1F LT PUSH2 0x78F JUMPI PUSH2 0x100 DUP1 DUP4 SLOAD DIV MUL DUP4 MSTORE SWAP2 PUSH1 0x20 ADD SWAP2 PUSH2 0x7BA JUMP JUMPDEST DUP3 ADD SWAP2 SWAP1 PUSH1 0x0 MSTORE PUSH1 0x20 PUSH1 0x0 KECCAK256 SWAP1 JUMPDEST DUP2 SLOAD DUP2 MSTORE SWAP1 PUSH1 0x1 ADD SWAP1 PUSH1 0x20 ADD DUP1 DUP4 GT PUSH2 0x79D JUMPI DUP3 SWAP1 SUB PUSH1 0x1F AND DUP3 ADD SWAP2 JUMPDEST POP POP POP POP POP DUP2 MSTORE PUSH1 0x20 ADD PUSH1 0x2 DUP3 ADD SLOAD DUP2 MSTORE PUSH1 0x20 ADD PUSH1 0x3 DUP3 ADD SLOAD DUP2 MSTORE PUSH1 0x20 ADD PUSH1 0x4 DUP3 ADD SLOAD DUP2 MSTORE POP POP SWAP1 POP SWAP3 SWAP2 POP POP JUMP JUMPDEST PUSH1 0x8 PUSH1 0x20 MSTORE DUP1 PUSH1 0x0 MSTORE PUSH1 0x40 PUSH1 0x0 KECCAK256 PUSH1 0x0 SWAP2 POP SWAP1 POP DUP1 PUSH1 0x0 ADD DUP1 SLOAD PUSH2 0x80C SWAP1 PUSH2 0x3B93 JUMP JUMPDEST DUP1 PUSH1 0x1F ADD PUSH1 0x20 DUP1 SWAP2 DIV MUL PUSH1 0x20 ADD PUSH1 0x40 MLOAD SWAP1 DUP2 ADD PUSH1 0x40 MSTORE DUP1 SWAP3 SWAP2 SWAP1 DUP2 DUP2 MSTORE PUSH1 0x20 ADD DUP3 DUP1 SLOAD PUSH2 0x838 SWAP1 PUSH2 0x3B93 JUMP JUMPDEST DUP1 ISZERO PUSH2 0x885 JUMPI DUP1 PUSH1 0x1F LT PUSH2 0x85A JUMPI PUSH2 0x100 DUP1 DUP4 SLOAD DIV MUL DUP4 MSTORE SWAP2 PUSH1 0x20 ADD SWAP2 PUSH2 0x885 JUMP JUMPDEST DUP3 ADD SWAP2 SWAP1 PUSH1 0x0 MSTORE PUSH1 0x20 PUSH1 0x0 KECCAK256 SWAP1 JUMPDEST DUP2 SLOAD DUP2 MSTORE SWAP1 PUSH1 0x1 ADD SWAP1 PUSH1 0x20 ADD DUP1 DUP4 GT PUSH2 0x868 JUMPI DUP3 SWAP1 SUB PUSH1 0x1F AND DUP3 ADD SWAP2 JUMPDEST POP POP POP POP POP SWAP1 DUP1 PUSH1 0x1 ADD DUP1 SLOAD PUSH2 0x89A SWAP1 PUSH2 0x3B93 JUMP JUMPDEST DUP1 PUSH1 0x1F ADD PUSH1 0x20 DUP1 SWAP2 DIV MUL PUSH1 0x20 ADD PUSH1 0x40 MLOAD SWAP1 DUP2 ADD PUSH1 0x40 MSTORE DUP1 SWAP3 SWAP2 SWAP1 DUP2 DUP2 MSTORE PUSH1 0x20 ADD DUP3 DUP1 SLOAD PUSH2 0x8C6 SWAP1 PUSH2 0x3B93 JUMP JUMPDEST DUP1 ISZERO PUSH2 0x913 JUMPI DUP1 PUSH1 0x1F LT PUSH2 0x8E8 JUMPI PUSH2 0x100 DUP1 DUP4 SLOAD DIV MUL DUP4 MSTORE SWAP2 PUSH1 0x20 ADD SWAP2 PUSH2 0x913 JUMP JUMPDEST DUP3 ADD SWAP2 SWAP1 PUSH1 0x0 MSTORE PUSH1 0x20 PUSH1 0x0 KECCAK256 SWAP1 JUMPDEST DUP2 SLOAD DUP2 MSTORE SWAP1 PUSH1 0x1 ADD SWAP1 PUSH1 0x20 ADD DUP1 DUP4 GT PUSH2 0x8F6 JUMPI DUP3 SWAP1 SUB PUSH1 0x1F AND DUP3 ADD SWAP2 JUMPDEST POP POP POP POP POP SWAP1 POP DUP3 JUMP JUMPDEST DUP4 PUSH1 0x0 PUSH20 0xFFFFFFFFFFFFFFFFFFFFFFFFFFFFFFFFFFFFFFFF AND PUSH1 0x3 DUP3 PUSH1 0x40 MLOAD PUSH2 0x946 SWAP2 SWAP1 PUSH2 0x364C JUMP JUMPDEST SWAP1 DUP2 MSTORE PUSH1 0x20 ADD PUSH1 0x40 MLOAD DUP1 SWAP2 SUB SWAP1 KECCAK256 PUSH1 0x0 ADD PUSH1 0x0 SWAP1 SLOAD SWAP1 PUSH2 0x100 EXP SWAP1 DIV PUSH20 0xFFFFFFFFFFFFFFFFFFFFFFFFFFFFFFFFFFFFFFFF AND PUSH20 0xFFFFFFFFFFFFFFFFFFFFFFFFFFFFFFFFFFFFFFFF AND EQ PUSH2 0x9CE JUMPI PUSH1 0x40 MLOAD PUSH32 0x8C379A000000000000000000000000000000000000000000000000000000000 DUP2 MSTORE PUSH1 0x4 ADD PUSH2 0x9C5 SWAP1 PUSH2 0x38A0 JUMP JUMPDEST PUSH1 0x40 MLOAD DUP1 SWAP2 SUB SWAP1 REVERT JUMPDEST PUSH1 0x0 DUP6 SWAP1 DUP1 PUSH1 0x1 DUP2 SLOAD ADD DUP1 DUP3 SSTORE DUP1 SWAP2 POP POP PUSH1 0x1 SWAP1 SUB SWAP1 PUSH1 0x0 MSTORE PUSH1 0x20 PUSH1 0x0 KECCAK256 ADD PUSH1 0x0 SWAP1 SWAP2 SWAP1 SWAP2 SWAP1 SWAP2 POP SWAP1 DUP1 MLOAD SWAP1 PUSH1 0x20 ADD SWAP1 PUSH2 0xA09 SWAP3 SWAP2 SWAP1 PUSH2 0x2AB9 JUMP JUMPDEST POP PUSH1 0x0 PUSH1 0x40 MLOAD DUP1 PUSH1 0xA0 ADD PUSH1 0x40 MSTORE DUP1 DUP9 PUSH20 0xFFFFFFFFFFFFFFFFFFFFFFFFFFFFFFFFFFFFFFFF AND DUP2 MSTORE PUSH1 0x20 ADD DUP8 DUP2 MSTORE PUSH1 0x20 ADD DUP7 DUP2 MSTORE PUSH1 0x20 ADD DUP6 DUP2 MSTORE PUSH1 0x20 ADD DUP5 DUP2 MSTORE POP SWAP1 POP DUP1 PUSH1 0x3 DUP8 PUSH1 0x40 MLOAD PUSH2 0xA5C SWAP2 SWAP1 PUSH2 0x364C JUMP JUMPDEST SWAP1 DUP2 MSTORE PUSH1 0x20 ADD PUSH1 0x40 MLOAD DUP1 SWAP2 SUB SWAP1 KECCAK256 PUSH1 0x0 DUP3 ADD MLOAD DUP2 PUSH1 0x0 ADD PUSH1 0x0 PUSH2 0x100 EXP DUP2 SLOAD DUP2 PUSH20 0xFFFFFFFFFFFFFFFFFFFFFFFFFFFFFFFFFFFFFFFF MUL NOT AND SWAP1 DUP4 PUSH20 0xFFFFFFFFFFFFFFFFFFFFFFFFFFFFFFFFFFFFFFFF AND MUL OR SWAP1 SSTORE POP PUSH1 0x20 DUP3 ADD MLOAD DUP2 PUSH1 0x1 ADD SWAP1 DUP1 MLOAD SWAP1 PUSH1 0x20 ADD SWAP1 PUSH2 0xACD SWAP3 SWAP2 SWAP1 PUSH2 0x2AB9 JUMP JUMPDEST POP PUSH1 0x40 DUP3 ADD MLOAD DUP2 PUSH1 0x2 ADD SWAP1 DUP1 MLOAD SWAP1 PUSH1 0x20 ADD SWAP1 PUSH2 0xAEA SWAP3 SWAP2 SWAP1 PUSH2 0x2AB9 JUMP JUMPDEST POP PUSH1 0x60 DUP3 ADD MLOAD DUP2 PUSH1 0x3 ADD SWAP1 DUP1 MLOAD SWAP1 PUSH1 0x20 ADD SWAP1 PUSH2 0xB07 SWAP3 SWAP2 SWAP1 PUSH2 0x2AB9 JUMP JUMPDEST POP PUSH1 0x80 DUP3 ADD MLOAD DUP2 PUSH1 0x4 ADD SWAP1 DUP1 MLOAD SWAP1 PUSH1 0x20 ADD SWAP1 PUSH2 0xB24 SWAP3 SWAP2 SWAP1 PUSH2 0x2AB9 JUMP JUMPDEST POP SWAP1 POP POP POP POP POP POP POP POP POP JUMP JUMPDEST PUSH1 0x60 PUSH1 0x5 DUP1 SLOAD DUP1 PUSH1 0x20 MUL PUSH1 0x20 ADD PUSH1 0x40 MLOAD SWAP1 DUP2 ADD PUSH1 0x40 MSTORE DUP1 SWAP3 SWAP2 SWAP1 DUP2 DUP2 MSTORE PUSH1 0x20 ADD PUSH1 0x0 SWAP1 JUMPDEST DUP3 DUP3 LT ISZERO PUSH2 0xC01 JUMPI DUP4 DUP3 SWAP1 PUSH1 0x0 MSTORE PUSH1 0x20 PUSH1 0x0 KECCAK256 ADD DUP1 SLOAD PUSH2 0xB74 SWAP1 PUSH2 0x3B93 JUMP JUMPDEST DUP1 PUSH1 0x1F ADD PUSH1 0x20 DUP1 SWAP2 DIV MUL PUSH1 0x20 ADD PUSH1 0x40 MLOAD SWAP1 DUP2 ADD PUSH1 0x40 MSTORE DUP1 SWAP3 SWAP2 SWAP1 DUP2 DUP2 MSTORE PUSH1 0x20 ADD DUP3 DUP1 SLOAD PUSH2 0xBA0 SWAP1 PUSH2 0x3B93 JUMP JUMPDEST DUP1 ISZERO PUSH2 0xBED JUMPI DUP1 PUSH1 0x1F LT PUSH2 0xBC2 JUMPI PUSH2 0x100 DUP1 DUP4 SLOAD DIV MUL DUP4 MSTORE SWAP2 PUSH1 0x20 ADD SWAP2 PUSH2 0xBED JUMP JUMPDEST DUP3 ADD SWAP2 SWAP1 PUSH1 0x0 MSTORE PUSH1 0x20 PUSH1 0x0 KECCAK256 SWAP1 JUMPDEST DUP2 SLOAD DUP2 MSTORE SWAP1 PUSH1 0x1 ADD SWAP1 PUSH1 0x20 ADD DUP1 DUP4 GT PUSH2 0xBD0 JUMPI DUP3 SWAP1 SUB PUSH1 0x1F AND DUP3 ADD SWAP2 JUMPDEST POP POP POP POP POP DUP2 MSTORE PUSH1 0x20 ADD SWAP1 PUSH1 0x1 ADD SWAP1 PUSH2 0xB55 JUMP JUMPDEST POP POP POP POP SWAP1 POP SWAP1 JUMP JUMPDEST PUSH2 0xC12 PUSH2 0x2B3F JUMP JUMPDEST PUSH1 0x0 PUSH1 0x3 DUP5 PUSH1 0x40 MLOAD PUSH2 0xC24 SWAP2 SWAP1 PUSH2 0x364C JUMP JUMPDEST SWAP1 DUP2 MSTORE PUSH1 0x20 ADD PUSH1 0x40 MLOAD DUP1 SWAP2 SUB SWAP1 KECCAK256 PUSH1 0x40 MLOAD DUP1 PUSH1 0xA0 ADD PUSH1 0x40 MSTORE SWAP1 DUP2 PUSH1 0x0 DUP3 ADD PUSH1 0x0 SWAP1 SLOAD SWAP1 PUSH2 0x100 EXP SWAP1 DIV PUSH20 0xFFFFFFFFFFFFFFFFFFFFFFFFFFFFFFFFFFFFFFFF AND PUSH20 0xFFFFFFFFFFFFFFFFFFFFFFFFFFFFFFFFFFFFFFFF AND PUSH20 0xFFFFFFFFFFFFFFFFFFFFFFFFFFFFFFFFFFFFFFFF AND DUP2 MSTORE PUSH1 0x20 ADD PUSH1 0x1 DUP3 ADD DUP1 SLOAD PUSH2 0xCA3 SWAP1 PUSH2 0x3B93 JUMP JUMPDEST DUP1 PUSH1 0x1F ADD PUSH1 0x20 DUP1 SWAP2 DIV MUL PUSH1 0x20 ADD PUSH1 0x40 MLOAD SWAP1 DUP2 ADD PUSH1 0x40 MSTORE DUP1 SWAP3 SWAP2 SWAP1 DUP2 DUP2 MSTORE PUSH1 0x20 ADD DUP3 DUP1 SLOAD PUSH2 0xCCF SWAP1 PUSH2 0x3B93 JUMP JUMPDEST DUP1 ISZERO PUSH2 0xD1C JUMPI DUP1 PUSH1 0x1F LT PUSH2 0xCF1 JUMPI PUSH2 0x100 DUP1 DUP4 SLOAD DIV MUL DUP4 MSTORE SWAP2 PUSH1 0x20 ADD SWAP2 PUSH2 0xD1C JUMP JUMPDEST DUP3 ADD SWAP2 SWAP1 PUSH1 0x0 MSTORE PUSH1 0x20 PUSH1 0x0 KECCAK256 SWAP1 JUMPDEST DUP2 SLOAD DUP2 MSTORE SWAP1 PUSH1 0x1 ADD SWAP1 PUSH1 0x20 ADD DUP1 DUP4 GT PUSH2 0xCFF JUMPI DUP3 SWAP1 SUB PUSH1 0x1F AND DUP3 ADD SWAP2 JUMPDEST POP POP POP POP POP DUP2 MSTORE PUSH1 0x20 ADD PUSH1 0x2 DUP3 ADD DUP1 SLOAD PUSH2 0xD35 SWAP1 PUSH2 0x3B93 JUMP JUMPDEST DUP1 PUSH1 0x1F ADD PUSH1 0x20 DUP1 SWAP2 DIV MUL PUSH1 0x20 ADD PUSH1 0x40 MLOAD SWAP1 DUP2 ADD PUSH1 0x40 MSTORE DUP1 SWAP3 SWAP2 SWAP1 DUP2 DUP2 MSTORE PUSH1 0x20 ADD DUP3 DUP1 SLOAD PUSH2 0xD61 SWAP1 PUSH2 0x3B93 JUMP JUMPDEST DUP1 ISZERO PUSH2 0xDAE JUMPI DUP1 PUSH1 0x1F LT PUSH2 0xD83 JUMPI PUSH2 0x100 DUP1 DUP4 SLOAD DIV MUL DUP4 MSTORE SWAP2 PUSH1 0x20 ADD SWAP2 PUSH2 0xDAE JUMP JUMPDEST DUP3 ADD SWAP2 SWAP1 PUSH1 0x0 MSTORE PUSH1 0x20 PUSH1 0x0 KECCAK256 SWAP1 JUMPDEST DUP2 SLOAD DUP2 MSTORE SWAP1 PUSH1 0x1 ADD SWAP1 PUSH1 0x20 ADD DUP1 DUP4 GT PUSH2 0xD91 JUMPI DUP3 SWAP1 SUB PUSH1 0x1F AND DUP3 ADD SWAP2 JUMPDEST POP POP POP POP POP DUP2 MSTORE PUSH1 0x20 ADD PUSH1 0x3 DUP3 ADD DUP1 SLOAD PUSH2 0xDC7 SWAP1 PUSH2 0x3B93 JUMP JUMPDEST DUP1 PUSH1 0x1F ADD PUSH1 0x20 DUP1 SWAP2 DIV MUL PUSH1 0x20 ADD PUSH1 0x40 MLOAD SWAP1 DUP2 ADD PUSH1 0x40 MSTORE DUP1 SWAP3 SWAP2 SWAP1 DUP2 DUP2 MSTORE PUSH1 0x20 ADD DUP3 DUP1 SLOAD PUSH2 0xDF3 SWAP1 PUSH2 0x3B93 JUMP JUMPDEST DUP1 ISZERO PUSH2 0xE40 JUMPI DUP1 PUSH1 0x1F LT PUSH2 0xE15 JUMPI PUSH2 0x100 DUP1 DUP4 SLOAD DIV MUL DUP4 MSTORE SWAP2 PUSH1 0x20 ADD SWAP2 PUSH2 0xE40 JUMP JUMPDEST DUP3 ADD SWAP2 SWAP1 PUSH1 0x0 MSTORE PUSH1 0x20 PUSH1 0x0 KECCAK256 SWAP1 JUMPDEST DUP2 SLOAD DUP2 MSTORE SWAP1 PUSH1 0x1 ADD SWAP1 PUSH1 0x20 ADD DUP1 DUP4 GT PUSH2 0xE23 JUMPI DUP3 SWAP1 SUB PUSH1 0x1F AND DUP3 ADD SWAP2 JUMPDEST POP POP POP POP POP DUP2 MSTORE PUSH1 0x20 ADD PUSH1 0x4 DUP3 ADD DUP1 SLOAD PUSH2 0xE59 SWAP1 PUSH2 0x3B93 JUMP JUMPDEST DUP1 PUSH1 0x1F ADD PUSH1 0x20 DUP1 SWAP2 DIV MUL PUSH1 0x20 ADD PUSH1 0x40 MLOAD SWAP1 DUP2 ADD PUSH1 0x40 MSTORE DUP1 SWAP3 SWAP2 SWAP1 DUP2 DUP2 MSTORE PUSH1 0x20 ADD DUP3 DUP1 SLOAD PUSH2 0xE85 SWAP1 PUSH2 0x3B93 JUMP JUMPDEST DUP1 ISZERO PUSH2 0xED2 JUMPI DUP1 PUSH1 0x1F LT PUSH2 0xEA7 JUMPI PUSH2 0x100 DUP1 DUP4 SLOAD DIV MUL DUP4 MSTORE SWAP2 PUSH1 0x20 ADD SWAP2 PUSH2 0xED2 JUMP JUMPDEST DUP3 ADD SWAP2 SWAP1 PUSH1 0x0 MSTORE PUSH1 0x20 PUSH1 0x0 KECCAK256 SWAP1 JUMPDEST DUP2 SLOAD DUP2 MSTORE SWAP1 PUSH1 0x1 ADD SWAP1 PUSH1 0x20 ADD DUP1 DUP4 GT PUSH2 0xEB5 JUMPI DUP3 SWAP1 SUB PUSH1 0x1F AND DUP3 ADD SWAP2 JUMPDEST POP POP POP POP POP DUP2 MSTORE POP POP SWAP1 POP PUSH1 0x0 PUSH20 0xFFFFFFFFFFFFFFFFFFFFFFFFFFFFFFFFFFFFFFFF AND DUP2 PUSH1 0x0 ADD MLOAD PUSH20 0xFFFFFFFFFFFFFFFFFFFFFFFFFFFFFFFFFFFFFFFF AND EQ ISZERO PUSH2 0xF51 JUMPI PUSH1 0x40 MLOAD PUSH32 0x8C379A000000000000000000000000000000000000000000000000000000000 DUP2 MSTORE PUSH1 0x4 ADD PUSH2 0xF48 SWAP1 PUSH2 0x3900 JUMP JUMPDEST PUSH1 0x40 MLOAD DUP1 SWAP2 SUB SWAP1 REVERT JUMPDEST PUSH2 0xF5F DUP2 PUSH1 0x40 ADD MLOAD DUP5 PUSH2 0x2A31 JUMP JUMPDEST PUSH2 0xF9E JUMPI PUSH1 0x40 MLOAD PUSH32 0x8C379A000000000000000000000000000000000000000000000000000000000 DUP2 MSTORE PUSH1 0x4 ADD PUSH2 0xF95 SWAP1 PUSH2 0x3880 JUMP JUMPDEST PUSH1 0x40 MLOAD DUP1 SWAP2 SUB SWAP1 REVERT JUMPDEST DUP1 SWAP2 POP POP SWAP3 SWAP2 POP POP JUMP JUMPDEST PUSH2 0x108B PUSH1 0x8 PUSH1 0x0 DUP4 PUSH20 0xFFFFFFFFFFFFFFFFFFFFFFFFFFFFFFFFFFFFFFFF AND PUSH20 0xFFFFFFFFFFFFFFFFFFFFFFFFFFFFFFFFFFFFFFFF AND DUP2 MSTORE PUSH1 0x20 ADD SWAP1 DUP2 MSTORE PUSH1 0x20 ADD PUSH1 0x0 KECCAK256 PUSH1 0x0 ADD DUP1 SLOAD PUSH2 0xFF8 SWAP1 PUSH2 0x3B93 JUMP JUMPDEST DUP1 PUSH1 0x1F ADD PUSH1 0x20 DUP1 SWAP2 DIV MUL PUSH1 0x20 ADD PUSH1 0x40 MLOAD SWAP1 DUP2 ADD PUSH1 0x40 MSTORE DUP1 SWAP3 SWAP2 SWAP1 DUP2 DUP2 MSTORE PUSH1 0x20 ADD DUP3 DUP1 SLOAD PUSH2 0x1024 SWAP1 PUSH2 0x3B93 JUMP JUMPDEST DUP1 ISZERO PUSH2 0x1071 JUMPI DUP1 PUSH1 0x1F LT PUSH2 0x1046 JUMPI PUSH2 0x100 DUP1 DUP4 SLOAD DIV MUL DUP4 MSTORE SWAP2 PUSH1 0x20 ADD SWAP2 PUSH2 0x1071 JUMP JUMPDEST DUP3 ADD SWAP2 SWAP1 PUSH1 0x0 MSTORE PUSH1 0x20 PUSH1 0x0 KECCAK256 SWAP1 JUMPDEST DUP2 SLOAD DUP2 MSTORE SWAP1 PUSH1 0x1 ADD SWAP1 PUSH1 0x20 ADD DUP1 DUP4 GT PUSH2 0x1054 JUMPI DUP3 SWAP1 SUB PUSH1 0x1F AND DUP3 ADD SWAP2 JUMPDEST POP POP POP POP POP PUSH1 0x40 MLOAD DUP1 PUSH1 0x20 ADD PUSH1 0x40 MSTORE DUP1 PUSH1 0x0 DUP2 MSTORE POP PUSH2 0x2A31 JUMP JUMPDEST ISZERO PUSH2 0x10CB JUMPI PUSH1 0x40 MLOAD PUSH32 0x8C379A000000000000000000000000000000000000000000000000000000000 DUP2 MSTORE PUSH1 0x4 ADD PUSH2 0x10C2 SWAP1 PUSH2 0x38C0 JUMP JUMPDEST PUSH1 0x40 MLOAD DUP1 SWAP2 SUB SWAP1 REVERT JUMPDEST PUSH1 0x0 DUP1 JUMPDEST PUSH1 0x1 DUP1 SLOAD SWAP1 POP DUP2 LT ISZERO PUSH2 0x1165 JUMPI DUP3 PUSH20 0xFFFFFFFFFFFFFFFFFFFFFFFFFFFFFFFFFFFFFFFF AND PUSH1 0x1 DUP3 DUP2 SLOAD DUP2 LT PUSH2 0x1107 JUMPI PUSH2 0x1106 PUSH2 0x3CCC JUMP JUMPDEST JUMPDEST SWAP1 PUSH1 0x0 MSTORE PUSH1 0x20 PUSH1 0x0 KECCAK256 ADD PUSH1 0x0 SWAP1 SLOAD SWAP1 PUSH2 0x100 EXP SWAP1 DIV PUSH20 0xFFFFFFFFFFFFFFFFFFFFFFFFFFFFFFFFFFFFFFFF AND PUSH20 0xFFFFFFFFFFFFFFFFFFFFFFFFFFFFFFFFFFFFFFFF AND EQ ISZERO PUSH2 0x1152 JUMPI DUP1 SWAP2 POP JUMPDEST DUP1 DUP1 PUSH2 0x115D SWAP1 PUSH2 0x3BF6 JUMP JUMPDEST SWAP2 POP POP PUSH2 0x10CF JUMP JUMPDEST POP PUSH1 0x1 DUP1 DUP1 DUP1 SLOAD SWAP1 POP PUSH2 0x1178 SWAP2 SWAP1 PUSH2 0x3AD5 JUMP JUMPDEST DUP2 SLOAD DUP2 LT PUSH2 0x1189 JUMPI PUSH2 0x1188 PUSH2 0x3CCC JUMP JUMPDEST JUMPDEST SWAP1 PUSH1 0x0 MSTORE PUSH1 0x20 PUSH1 0x0 KECCAK256 ADD PUSH1 0x0 SWAP1 SLOAD SWAP1 PUSH2 0x100 EXP SWAP1 DIV PUSH20 0xFFFFFFFFFFFFFFFFFFFFFFFFFFFFFFFFFFFFFFFF AND PUSH1 0x1 DUP3 DUP2 SLOAD DUP2 LT PUSH2 0x11C8 JUMPI PUSH2 0x11C7 PUSH2 0x3CCC JUMP JUMPDEST JUMPDEST SWAP1 PUSH1 0x0 MSTORE PUSH1 0x20 PUSH1 0x0 KECCAK256 ADD PUSH1 0x0 PUSH2 0x100 EXP DUP2 SLOAD DUP2 PUSH20 0xFFFFFFFFFFFFFFFFFFFFFFFFFFFFFFFFFFFFFFFF MUL NOT AND SWAP1 DUP4 PUSH20 0xFFFFFFFFFFFFFFFFFFFFFFFFFFFFFFFFFFFFFFFF AND MUL OR SWAP1 SSTORE POP PUSH1 0x1 DUP1 SLOAD DUP1 PUSH2 0x1222 JUMPI PUSH2 0x1221 PUSH2 0x3C9D JUMP JUMPDEST JUMPDEST PUSH1 0x1 SWAP1 SUB DUP2 DUP2 SWAP1 PUSH1 0x0 MSTORE PUSH1 0x20 PUSH1 0x0 KECCAK256 ADD PUSH1 0x0 PUSH2 0x100 EXP DUP2 SLOAD SWAP1 PUSH20 0xFFFFFFFFFFFFFFFFFFFFFFFFFFFFFFFFFFFFFFFF MUL NOT AND SWAP1 SSTORE SWAP1 SSTORE PUSH1 0x0 JUMPDEST PUSH1 0x7 PUSH1 0x0 DUP5 PUSH20 0xFFFFFFFFFFFFFFFFFFFFFFFFFFFFFFFFFFFFFFFF AND PUSH20 0xFFFFFFFFFFFFFFFFFFFFFFFFFFFFFFFFFFFFFFFF AND DUP2 MSTORE PUSH1 0x20 ADD SWAP1 DUP2 MSTORE PUSH1 0x20 ADD PUSH1 0x0 KECCAK256 DUP1 SLOAD SWAP1 POP DUP2 LT ISZERO PUSH2 0x140B JUMPI PUSH1 0x0 PUSH1 0x7 PUSH1 0x0 DUP6 PUSH20 0xFFFFFFFFFFFFFFFFFFFFFFFFFFFFFFFFFFFFFFFF AND PUSH20 0xFFFFFFFFFFFFFFFFFFFFFFFFFFFFFFFFFFFFFFFF AND DUP2 MSTORE PUSH1 0x20 ADD SWAP1 DUP2 MSTORE PUSH1 0x20 ADD PUSH1 0x0 KECCAK256 DUP3 DUP2 SLOAD DUP2 LT PUSH2 0x12F7 JUMPI PUSH2 0x12F6 PUSH2 0x3CCC JUMP JUMPDEST JUMPDEST SWAP1 PUSH1 0x0 MSTORE PUSH1 0x20 PUSH1 0x0 KECCAK256 ADD DUP1 SLOAD PUSH2 0x130C SWAP1 PUSH2 0x3B93 JUMP JUMPDEST DUP1 PUSH1 0x1F ADD PUSH1 0x20 DUP1 SWAP2 DIV MUL PUSH1 0x20 ADD PUSH1 0x40 MLOAD SWAP1 DUP2 ADD PUSH1 0x40 MSTORE DUP1 SWAP3 SWAP2 SWAP1 DUP2 DUP2 MSTORE PUSH1 0x20 ADD DUP3 DUP1 SLOAD PUSH2 0x1338 SWAP1 PUSH2 0x3B93 JUMP JUMPDEST DUP1 ISZERO PUSH2 0x1385 JUMPI DUP1 PUSH1 0x1F LT PUSH2 0x135A JUMPI PUSH2 0x100 DUP1 DUP4 SLOAD DIV MUL DUP4 MSTORE SWAP2 PUSH1 0x20 ADD SWAP2 PUSH2 0x1385 JUMP JUMPDEST DUP3 ADD SWAP2 SWAP1 PUSH1 0x0 MSTORE PUSH1 0x20 PUSH1 0x0 KECCAK256 SWAP1 JUMPDEST DUP2 SLOAD DUP2 MSTORE SWAP1 PUSH1 0x1 ADD SWAP1 PUSH1 0x20 ADD DUP1 DUP4 GT PUSH2 0x1368 JUMPI DUP3 SWAP1 SUB PUSH1 0x1F AND DUP3 ADD SWAP2 JUMPDEST POP POP POP POP POP SWAP1 POP PUSH1 0x40 MLOAD DUP1 PUSH1 0x40 ADD PUSH1 0x40 MSTORE DUP1 PUSH1 0x5 DUP2 MSTORE PUSH1 0x20 ADD PUSH32 0x6275796572000000000000000000000000000000000000000000000000000000 DUP2 MSTORE POP PUSH1 0x3 DUP3 PUSH1 0x40 MLOAD PUSH2 0x13D2 SWAP2 SWAP1 PUSH2 0x364C JUMP JUMPDEST SWAP1 DUP2 MSTORE PUSH1 0x20 ADD PUSH1 0x40 MLOAD DUP1 SWAP2 SUB SWAP1 KECCAK256 PUSH1 0x4 ADD SWAP1 DUP1 MLOAD SWAP1 PUSH1 0x20 ADD SWAP1 PUSH2 0x13F6 SWAP3 SWAP2 SWAP1 PUSH2 0x2AB9 JUMP JUMPDEST POP POP DUP1 DUP1 PUSH2 0x1403 SWAP1 PUSH2 0x3BF6 JUMP JUMPDEST SWAP2 POP POP PUSH2 0x125A JUMP JUMPDEST POP POP POP JUMP JUMPDEST PUSH1 0x9 PUSH1 0x20 MSTORE DUP2 PUSH1 0x0 MSTORE PUSH1 0x40 PUSH1 0x0 KECCAK256 DUP2 DUP2 SLOAD DUP2 LT PUSH2 0x142C JUMPI PUSH1 0x0 DUP1 REVERT JUMPDEST SWAP1 PUSH1 0x0 MSTORE PUSH1 0x20 PUSH1 0x0 KECCAK256 ADD PUSH1 0x0 SWAP2 POP SWAP2 POP POP DUP1 SLOAD PUSH2 0x1448 SWAP1 PUSH2 0x3B93 JUMP JUMPDEST DUP1 PUSH1 0x1F ADD PUSH1 0x20 DUP1 SWAP2 DIV MUL PUSH1 0x20 ADD PUSH1 0x40 MLOAD SWAP1 DUP2 ADD PUSH1 0x40 MSTORE DUP1 SWAP3 SWAP2 SWAP1 DUP2 DUP2 MSTORE PUSH1 0x20 ADD DUP3 DUP1 SLOAD PUSH2 0x1474 SWAP1 PUSH2 0x3B93 JUMP JUMPDEST DUP1 ISZERO PUSH2 0x14C1 JUMPI DUP1 PUSH1 0x1F LT PUSH2 0x1496 JUMPI PUSH2 0x100 DUP1 DUP4 SLOAD DIV MUL DUP4 MSTORE SWAP2 PUSH1 0x20 ADD SWAP2 PUSH2 0x14C1 JUMP JUMPDEST DUP3 ADD SWAP2 SWAP1 PUSH1 0x0 MSTORE PUSH1 0x20 PUSH1 0x0 KECCAK256 SWAP1 JUMPDEST DUP2 SLOAD DUP2 MSTORE SWAP1 PUSH1 0x1 ADD SWAP1 PUSH1 0x20 ADD DUP1 DUP4 GT PUSH2 0x14A4 JUMPI DUP3 SWAP1 SUB PUSH1 0x1F AND DUP3 ADD SWAP2 JUMPDEST POP POP POP POP POP DUP2 JUMP JUMPDEST DUP4 PUSH1 0x0 PUSH20 0xFFFFFFFFFFFFFFFFFFFFFFFFFFFFFFFFFFFFFFFF AND PUSH1 0x3 DUP3 PUSH1 0x40 MLOAD PUSH2 0x14F2 SWAP2 SWAP1 PUSH2 0x364C JUMP JUMPDEST SWAP1 DUP2 MSTORE PUSH1 0x20 ADD PUSH1 0x40 MLOAD DUP1 SWAP2 SUB SWAP1 KECCAK256 PUSH1 0x0 ADD PUSH1 0x0 SWAP1 SLOAD SWAP1 PUSH2 0x100 EXP SWAP1 DIV PUSH20 0xFFFFFFFFFFFFFFFFFFFFFFFFFFFFFFFFFFFFFFFF AND PUSH20 0xFFFFFFFFFFFFFFFFFFFFFFFFFFFFFFFFFFFFFFFF AND EQ PUSH2 0x157A JUMPI PUSH1 0x40 MLOAD PUSH32 0x8C379A000000000000000000000000000000000000000000000000000000000 DUP2 MSTORE PUSH1 0x4 ADD PUSH2 0x1571 SWAP1 PUSH2 0x38A0 JUMP JUMPDEST PUSH1 0x40 MLOAD DUP1 SWAP2 SUB SWAP1 REVERT JUMPDEST PUSH1 0x0 PUSH1 0x40 MLOAD DUP1 PUSH1 0xA0 ADD PUSH1 0x40 MSTORE DUP1 DUP9 PUSH20 0xFFFFFFFFFFFFFFFFFFFFFFFFFFFFFFFFFFFFFFFF AND DUP2 MSTORE PUSH1 0x20 ADD DUP8 DUP2 MSTORE PUSH1 0x20 ADD DUP7 DUP2 MSTORE PUSH1 0x20 ADD DUP6 DUP2 MSTORE PUSH1 0x20 ADD DUP5 DUP2 MSTORE POP SWAP1 POP DUP1 PUSH1 0x3 DUP8 PUSH1 0x40 MLOAD PUSH2 0x15CC SWAP2 SWAP1 PUSH2 0x364C JUMP JUMPDEST SWAP1 DUP2 MSTORE PUSH1 0x20 ADD PUSH1 0x40 MLOAD DUP1 SWAP2 SUB SWAP1 KECCAK256 PUSH1 0x0 DUP3 ADD MLOAD DUP2 PUSH1 0x0 ADD PUSH1 0x0 PUSH2 0x100 EXP DUP2 SLOAD DUP2 PUSH20 0xFFFFFFFFFFFFFFFFFFFFFFFFFFFFFFFFFFFFFFFF MUL NOT AND SWAP1 DUP4 PUSH20 0xFFFFFFFFFFFFFFFFFFFFFFFFFFFFFFFFFFFFFFFF AND MUL OR SWAP1 SSTORE POP PUSH1 0x20 DUP3 ADD MLOAD DUP2 PUSH1 0x1 ADD SWAP1 DUP1 MLOAD SWAP1 PUSH1 0x20 ADD SWAP1 PUSH2 0x163D SWAP3 SWAP2 SWAP1 PUSH2 0x2AB9 JUMP JUMPDEST POP PUSH1 0x40 DUP3 ADD MLOAD DUP2 PUSH1 0x2 ADD SWAP1 DUP1 MLOAD SWAP1 PUSH1 0x20 ADD SWAP1 PUSH2 0x165A SWAP3 SWAP2 SWAP1 PUSH2 0x2AB9 JUMP JUMPDEST POP PUSH1 0x60 DUP3 ADD MLOAD DUP2 PUSH1 0x3 ADD SWAP1 DUP1 MLOAD SWAP1 PUSH1 0x20 ADD SWAP1 PUSH2 0x1677 SWAP3 SWAP2 SWAP1 PUSH2 0x2AB9 JUMP JUMPDEST POP PUSH1 0x80 DUP3 ADD MLOAD DUP2 PUSH1 0x4 ADD SWAP1 DUP1 MLOAD SWAP1 PUSH1 0x20 ADD SWAP1 PUSH2 0x1694 SWAP3 SWAP2 SWAP1 PUSH2 0x2AB9 JUMP JUMPDEST POP SWAP1 POP POP POP POP POP POP POP POP POP JUMP JUMPDEST PUSH1 0x3 DUP2 DUP1 MLOAD PUSH1 0x20 DUP2 ADD DUP3 ADD DUP1 MLOAD DUP5 DUP3 MSTORE PUSH1 0x20 DUP4 ADD PUSH1 0x20 DUP6 ADD KECCAK256 DUP2 DUP4 MSTORE DUP1 SWAP6 POP POP POP POP POP POP PUSH1 0x0 SWAP2 POP SWAP1 POP DUP1 PUSH1 0x0 ADD PUSH1 0x0 SWAP1 SLOAD SWAP1 PUSH2 0x100 EXP SWAP1 DIV PUSH20 0xFFFFFFFFFFFFFFFFFFFFFFFFFFFFFFFFFFFFFFFF AND SWAP1 DUP1 PUSH1 0x1 ADD DUP1 SLOAD PUSH2 0x1700 SWAP1 PUSH2 0x3B93 JUMP JUMPDEST DUP1 PUSH1 0x1F ADD PUSH1 0x20 DUP1 SWAP2 DIV MUL PUSH1 0x20 ADD PUSH1 0x40 MLOAD SWAP1 DUP2 ADD PUSH1 0x40 MSTORE DUP1 SWAP3 SWAP2 SWAP1 DUP2 DUP2 MSTORE PUSH1 0x20 ADD DUP3 DUP1 SLOAD PUSH2 0x172C SWAP1 PUSH2 0x3B93 JUMP JUMPDEST DUP1 ISZERO PUSH2 0x1779 JUMPI DUP1 PUSH1 0x1F LT PUSH2 0x174E JUMPI PUSH2 0x100 DUP1 DUP4 SLOAD DIV MUL DUP4 MSTORE SWAP2 PUSH1 0x20 ADD SWAP2 PUSH2 0x1779 JUMP JUMPDEST DUP3 ADD SWAP2 SWAP1 PUSH1 0x0 MSTORE PUSH1 0x20 PUSH1 0x0 KECCAK256 SWAP1 JUMPDEST DUP2 SLOAD DUP2 MSTORE SWAP1 PUSH1 0x1 ADD SWAP1 PUSH1 0x20 ADD DUP1 DUP4 GT PUSH2 0x175C JUMPI DUP3 SWAP1 SUB PUSH1 0x1F AND DUP3 ADD SWAP2 JUMPDEST POP POP POP POP POP SWAP1 DUP1 PUSH1 0x2 ADD DUP1 SLOAD PUSH2 0x178E SWAP1 PUSH2 0x3B93 JUMP JUMPDEST DUP1 PUSH1 0x1F ADD PUSH1 0x20 DUP1 SWAP2 DIV MUL PUSH1 0x20 ADD PUSH1 0x40 MLOAD SWAP1 DUP2 ADD PUSH1 0x40 MSTORE DUP1 SWAP3 SWAP2 SWAP1 DUP2 DUP2 MSTORE PUSH1 0x20 ADD DUP3 DUP1 SLOAD PUSH2 0x17BA SWAP1 PUSH2 0x3B93 JUMP JUMPDEST DUP1 ISZERO PUSH2 0x1807 JUMPI DUP1 PUSH1 0x1F LT PUSH2 0x17DC JUMPI PUSH2 0x100 DUP1 DUP4 SLOAD DIV MUL DUP4 MSTORE SWAP2 PUSH1 0x20 ADD SWAP2 PUSH2 0x1807 JUMP JUMPDEST DUP3 ADD SWAP2 SWAP1 PUSH1 0x0 MSTORE PUSH1 0x20 PUSH1 0x0 KECCAK256 SWAP1 JUMPDEST DUP2 SLOAD DUP2 MSTORE SWAP1 PUSH1 0x1 ADD SWAP1 PUSH1 0x20 ADD DUP1 DUP4 GT PUSH2 0x17EA JUMPI DUP3 SWAP1 SUB PUSH1 0x1F AND DUP3 ADD SWAP2 JUMPDEST POP POP POP POP POP SWAP1 DUP1 PUSH1 0x3 ADD DUP1 SLOAD PUSH2 0x181C SWAP1 PUSH2 0x3B93 JUMP JUMPDEST DUP1 PUSH1 0x1F ADD PUSH1 0x20 DUP1 SWAP2 DIV MUL PUSH1 0x20 ADD PUSH1 0x40 MLOAD SWAP1 DUP2 ADD PUSH1 0x40 MSTORE DUP1 SWAP3 SWAP2 SWAP1 DUP2 DUP2 MSTORE PUSH1 0x20 ADD DUP3 DUP1 SLOAD PUSH2 0x1848 SWAP1 PUSH2 0x3B93 JUMP JUMPDEST DUP1 ISZERO PUSH2 0x1895 JUMPI DUP1 PUSH1 0x1F LT PUSH2 0x186A JUMPI PUSH2 0x100 DUP1 DUP4 SLOAD DIV MUL DUP4 MSTORE SWAP2 PUSH1 0x20 ADD SWAP2 PUSH2 0x1895 JUMP JUMPDEST DUP3 ADD SWAP2 SWAP1 PUSH1 0x0 MSTORE PUSH1 0x20 PUSH1 0x0 KECCAK256 SWAP1 JUMPDEST DUP2 SLOAD DUP2 MSTORE SWAP1 PUSH1 0x1 ADD SWAP1 PUSH1 0x20 ADD DUP1 DUP4 GT PUSH2 0x1878 JUMPI DUP3 SWAP1 SUB PUSH1 0x1F AND DUP3 ADD SWAP2 JUMPDEST POP POP POP POP POP SWAP1 DUP1 PUSH1 0x4 ADD DUP1 SLOAD PUSH2 0x18AA SWAP1 PUSH2 0x3B93 JUMP JUMPDEST DUP1 PUSH1 0x1F ADD PUSH1 0x20 DUP1 SWAP2 DIV MUL PUSH1 0x20 ADD PUSH1 0x40 MLOAD SWAP1 DUP2 ADD PUSH1 0x40 MSTORE DUP1 SWAP3 SWAP2 SWAP1 DUP2 DUP2 MSTORE PUSH1 0x20 ADD DUP3 DUP1 SLOAD PUSH2 0x18D6 SWAP1 PUSH2 0x3B93 JUMP JUMPDEST DUP1 ISZERO PUSH2 0x1923 JUMPI DUP1 PUSH1 0x1F LT PUSH2 0x18F8 JUMPI PUSH2 0x100 DUP1 DUP4 SLOAD DIV MUL DUP4 MSTORE SWAP2 PUSH1 0x20 ADD SWAP2 PUSH2 0x1923 JUMP JUMPDEST DUP3 ADD SWAP2 SWAP1 PUSH1 0x0 MSTORE PUSH1 0x20 PUSH1 0x0 KECCAK256 SWAP1 JUMPDEST DUP2 SLOAD DUP2 MSTORE SWAP1 PUSH1 0x1 ADD SWAP1 PUSH1 0x20 ADD DUP1 DUP4 GT PUSH2 0x1906 JUMPI DUP3 SWAP1 SUB PUSH1 0x1F AND DUP3 ADD SWAP2 JUMPDEST POP POP POP POP POP SWAP1 POP DUP6 JUMP JUMPDEST PUSH1 0x2 PUSH1 0x0 SWAP1 SLOAD SWAP1 PUSH2 0x100 EXP SWAP1 DIV PUSH20 0xFFFFFFFFFFFFFFFFFFFFFFFFFFFFFFFFFFFFFFFF AND DUP2 JUMP JUMPDEST PUSH1 0x7 PUSH1 0x20 MSTORE DUP2 PUSH1 0x0 MSTORE PUSH1 0x40 PUSH1 0x0 KECCAK256 DUP2 DUP2 SLOAD DUP2 LT PUSH2 0x196F JUMPI PUSH1 0x0 DUP1 REVERT JUMPDEST SWAP1 PUSH1 0x0 MSTORE PUSH1 0x20 PUSH1 0x0 KECCAK256 ADD PUSH1 0x0 SWAP2 POP SWAP2 POP POP DUP1 SLOAD PUSH2 0x198B SWAP1 PUSH2 0x3B93 JUMP JUMPDEST DUP1 PUSH1 0x1F ADD PUSH1 0x20 DUP1 SWAP2 DIV MUL PUSH1 0x20 ADD PUSH1 0x40 MLOAD SWAP1 DUP2 ADD PUSH1 0x40 MSTORE DUP1 SWAP3 SWAP2 SWAP1 DUP2 DUP2 MSTORE PUSH1 0x20 ADD DUP3 DUP1 SLOAD PUSH2 0x19B7 SWAP1 PUSH2 0x3B93 JUMP JUMPDEST DUP1 ISZERO PUSH2 0x1A04 JUMPI DUP1 PUSH1 0x1F LT PUSH2 0x19D9 JUMPI PUSH2 0x100 DUP1 DUP4 SLOAD DIV MUL DUP4 MSTORE SWAP2 PUSH1 0x20 ADD SWAP2 PUSH2 0x1A04 JUMP JUMPDEST DUP3 ADD SWAP2 SWAP1 PUSH1 0x0 MSTORE PUSH1 0x20 PUSH1 0x0 KECCAK256 SWAP1 JUMPDEST DUP2 SLOAD DUP2 MSTORE SWAP1 PUSH1 0x1 ADD SWAP1 PUSH1 0x20 ADD DUP1 DUP4 GT PUSH2 0x19E7 JUMPI DUP3 SWAP1 SUB PUSH1 0x1F AND DUP3 ADD SWAP2 JUMPDEST POP POP POP POP POP DUP2 JUMP JUMPDEST PUSH1 0x2 PUSH1 0x0 SWAP1 SLOAD SWAP1 PUSH2 0x100 EXP SWAP1 DIV PUSH20 0xFFFFFFFFFFFFFFFFFFFFFFFFFFFFFFFFFFFFFFFF AND PUSH20 0xFFFFFFFFFFFFFFFFFFFFFFFFFFFFFFFFFFFFFFFF AND CALLER PUSH20 0xFFFFFFFFFFFFFFFFFFFFFFFFFFFFFFFFFFFFFFFF AND EQ PUSH2 0x1A9C JUMPI PUSH1 0x40 MLOAD PUSH32 0x8C379A000000000000000000000000000000000000000000000000000000000 DUP2 MSTORE PUSH1 0x4 ADD PUSH2 0x1A93 SWAP1 PUSH2 0x3860 JUMP JUMPDEST PUSH1 0x40 MLOAD DUP1 SWAP2 SUB SWAP1 REVERT JUMPDEST DUP1 PUSH20 0xFFFFFFFFFFFFFFFFFFFFFFFFFFFFFFFFFFFFFFFF AND PUSH2 0x8FC PUSH9 0x3635C9ADC5DEA00000 SWAP1 DUP2 ISZERO MUL SWAP1 PUSH1 0x40 MLOAD PUSH1 0x0 PUSH1 0x40 MLOAD DUP1 DUP4 SUB DUP2 DUP6 DUP9 DUP9 CALL SWAP4 POP POP POP POP ISZERO DUP1 ISZERO PUSH2 0x1AEB JUMPI RETURNDATASIZE PUSH1 0x0 DUP1 RETURNDATACOPY RETURNDATASIZE PUSH1 0x0 REVERT JUMPDEST POP PUSH9 0x3635C9ADC5DEA00000 PUSH1 0x6 PUSH1 0x0 DUP4 PUSH20 0xFFFFFFFFFFFFFFFFFFFFFFFFFFFFFFFFFFFFFFFF AND PUSH20 0xFFFFFFFFFFFFFFFFFFFFFFFFFFFFFFFFFFFFFFFF AND DUP2 MSTORE PUSH1 0x20 ADD SWAP1 DUP2 MSTORE PUSH1 0x20 ADD PUSH1 0x0 KECCAK256 PUSH1 0x0 DUP3 DUP3 SLOAD PUSH2 0x1B44 SWAP2 SWAP1 PUSH2 0x3A7F JUMP JUMPDEST SWAP3 POP POP DUP2 SWAP1 SSTORE POP POP JUMP JUMPDEST PUSH1 0x60 PUSH1 0x0 DUP1 SLOAD DUP1 PUSH1 0x20 MUL PUSH1 0x20 ADD PUSH1 0x40 MLOAD SWAP1 DUP2 ADD PUSH1 0x40 MSTORE DUP1 SWAP3 SWAP2 SWAP1 DUP2 DUP2 MSTORE PUSH1 0x20 ADD PUSH1 0x0 SWAP1 JUMPDEST DUP3 DUP3 LT ISZERO PUSH2 0x1C1E JUMPI DUP4 DUP3 SWAP1 PUSH1 0x0 MSTORE PUSH1 0x20 PUSH1 0x0 KECCAK256 ADD DUP1 SLOAD PUSH2 0x1B91 SWAP1 PUSH2 0x3B93 JUMP JUMPDEST DUP1 PUSH1 0x1F ADD PUSH1 0x20 DUP1 SWAP2 DIV MUL PUSH1 0x20 ADD PUSH1 0x40 MLOAD SWAP1 DUP2 ADD PUSH1 0x40 MSTORE DUP1 SWAP3 SWAP2 SWAP1 DUP2 DUP2 MSTORE PUSH1 0x20 ADD DUP3 DUP1 SLOAD PUSH2 0x1BBD SWAP1 PUSH2 0x3B93 JUMP JUMPDEST DUP1 ISZERO PUSH2 0x1C0A JUMPI DUP1 PUSH1 0x1F LT PUSH2 0x1BDF JUMPI PUSH2 0x100 DUP1 DUP4 SLOAD DIV MUL DUP4 MSTORE SWAP2 PUSH1 0x20 ADD SWAP2 PUSH2 0x1C0A JUMP JUMPDEST DUP3 ADD SWAP2 SWAP1 PUSH1 0x0 MSTORE PUSH1 0x20 PUSH1 0x0 KECCAK256 SWAP1 JUMPDEST DUP2 SLOAD DUP2 MSTORE SWAP1 PUSH1 0x1 ADD SWAP1 PUSH1 0x20 ADD DUP1 DUP4 GT PUSH2 0x1BED JUMPI DUP3 SWAP1 SUB PUSH1 0x1F AND DUP3 ADD SWAP2 JUMPDEST POP POP POP POP POP DUP2 MSTORE PUSH1 0x20 ADD SWAP1 PUSH1 0x1 ADD SWAP1 PUSH2 0x1B72 JUMP JUMPDEST POP POP POP POP SWAP1 POP SWAP1 JUMP JUMPDEST PUSH1 0x0 PUSH1 0x4 DUP4 PUSH1 0x40 MLOAD PUSH2 0x1C39 SWAP2 SWAP1 PUSH2 0x364C JUMP JUMPDEST SWAP1 DUP2 MSTORE PUSH1 0x20 ADD PUSH1 0x40 MLOAD DUP1 SWAP2 SUB SWAP1 KECCAK256 PUSH1 0x40 MLOAD DUP1 PUSH1 0x80 ADD PUSH1 0x40 MSTORE SWAP1 DUP2 PUSH1 0x0 DUP3 ADD DUP1 SLOAD PUSH2 0x1C62 SWAP1 PUSH2 0x3B93 JUMP JUMPDEST DUP1 PUSH1 0x1F ADD PUSH1 0x20 DUP1 SWAP2 DIV MUL PUSH1 0x20 ADD PUSH1 0x40 MLOAD SWAP1 DUP2 ADD PUSH1 0x40 MSTORE DUP1 SWAP3 SWAP2 SWAP1 DUP2 DUP2 MSTORE PUSH1 0x20 ADD DUP3 DUP1 SLOAD PUSH2 0x1C8E SWAP1 PUSH2 0x3B93 JUMP JUMPDEST DUP1 ISZERO PUSH2 0x1CDB JUMPI DUP1 PUSH1 0x1F LT PUSH2 0x1CB0 JUMPI PUSH2 0x100 DUP1 DUP4 SLOAD DIV MUL DUP4 MSTORE SWAP2 PUSH1 0x20 ADD SWAP2 PUSH2 0x1CDB JUMP JUMPDEST DUP3 ADD SWAP2 SWAP1 PUSH1 0x0 MSTORE PUSH1 0x20 PUSH1 0x0 KECCAK256 SWAP1 JUMPDEST DUP2 SLOAD DUP2 MSTORE SWAP1 PUSH1 0x1 ADD SWAP1 PUSH1 0x20 ADD DUP1 DUP4 GT PUSH2 0x1CBE JUMPI DUP3 SWAP1 SUB PUSH1 0x1F AND DUP3 ADD SWAP2 JUMPDEST POP POP POP POP POP DUP2 MSTORE PUSH1 0x20 ADD PUSH1 0x1 DUP3 ADD DUP1 SLOAD PUSH2 0x1CF4 SWAP1 PUSH2 0x3B93 JUMP JUMPDEST DUP1 PUSH1 0x1F ADD PUSH1 0x20 DUP1 SWAP2 DIV MUL PUSH1 0x20 ADD PUSH1 0x40 MLOAD SWAP1 DUP2 ADD PUSH1 0x40 MSTORE DUP1 SWAP3 SWAP2 SWAP1 DUP2 DUP2 MSTORE PUSH1 0x20 ADD DUP3 DUP1 SLOAD PUSH2 0x1D20 SWAP1 PUSH2 0x3B93 JUMP JUMPDEST DUP1 ISZERO PUSH2 0x1D6D JUMPI DUP1 PUSH1 0x1F LT PUSH2 0x1D42 JUMPI PUSH2 0x100 DUP1 DUP4 SLOAD DIV MUL DUP4 MSTORE SWAP2 PUSH1 0x20 ADD SWAP2 PUSH2 0x1D6D JUMP JUMPDEST DUP3 ADD SWAP2 SWAP1 PUSH1 0x0 MSTORE PUSH1 0x20 PUSH1 0x0 KECCAK256 SWAP1 JUMPDEST DUP2 SLOAD DUP2 MSTORE SWAP1 PUSH1 0x1 ADD SWAP1 PUSH1 0x20 ADD DUP1 DUP4 GT PUSH2 0x1D50 JUMPI DUP3 SWAP1 SUB PUSH1 0x1F AND DUP3 ADD SWAP2 JUMPDEST POP POP POP POP POP DUP2 MSTORE PUSH1 0x20 ADD PUSH1 0x2 DUP3 ADD DUP1 SLOAD PUSH2 0x1D86 SWAP1 PUSH2 0x3B93 JUMP JUMPDEST DUP1 PUSH1 0x1F ADD PUSH1 0x20 DUP1 SWAP2 DIV MUL PUSH1 0x20 ADD PUSH1 0x40 MLOAD SWAP1 DUP2 ADD PUSH1 0x40 MSTORE DUP1 SWAP3 SWAP2 SWAP1 DUP2 DUP2 MSTORE PUSH1 0x20 ADD DUP3 DUP1 SLOAD PUSH2 0x1DB2 SWAP1 PUSH2 0x3B93 JUMP JUMPDEST DUP1 ISZERO PUSH2 0x1DFF JUMPI DUP1 PUSH1 0x1F LT PUSH2 0x1DD4 JUMPI PUSH2 0x100 DUP1 DUP4 SLOAD DIV MUL DUP4 MSTORE SWAP2 PUSH1 0x20 ADD SWAP2 PUSH2 0x1DFF JUMP JUMPDEST DUP3 ADD SWAP2 SWAP1 PUSH1 0x0 MSTORE PUSH1 0x20 PUSH1 0x0 KECCAK256 SWAP1 JUMPDEST DUP2 SLOAD DUP2 MSTORE SWAP1 PUSH1 0x1 ADD SWAP1 PUSH1 0x20 ADD DUP1 DUP4 GT PUSH2 0x1DE2 JUMPI DUP3 SWAP1 SUB PUSH1 0x1F AND DUP3 ADD SWAP2 JUMPDEST POP POP POP POP POP DUP2 MSTORE PUSH1 0x20 ADD PUSH1 0x3 DUP3 ADD PUSH1 0x0 SWAP1 SLOAD SWAP1 PUSH2 0x100 EXP SWAP1 DIV PUSH1 0xFF AND ISZERO ISZERO ISZERO ISZERO DUP2 MSTORE POP POP SWAP1 POP DUP2 ISZERO PUSH2 0x1E66 JUMPI DUP1 PUSH1 0x40 ADD MLOAD PUSH1 0x3 DUP5 PUSH1 0x40 MLOAD PUSH2 0x1E40 SWAP2 SWAP1 PUSH2 0x364C JUMP JUMPDEST SWAP1 DUP2 MSTORE PUSH1 0x20 ADD PUSH1 0x40 MLOAD DUP1 SWAP2 SUB SWAP1 KECCAK256 PUSH1 0x4 ADD SWAP1 DUP1 MLOAD SWAP1 PUSH1 0x20 ADD SWAP1 PUSH2 0x1E64 SWAP3 SWAP2 SWAP1 PUSH2 0x2AB9 JUMP JUMPDEST POP JUMPDEST PUSH1 0x1 PUSH1 0x4 DUP5 PUSH1 0x40 MLOAD PUSH2 0x1E78 SWAP2 SWAP1 PUSH2 0x364C JUMP JUMPDEST SWAP1 DUP2 MSTORE PUSH1 0x20 ADD PUSH1 0x40 MLOAD DUP1 SWAP2 SUB SWAP1 KECCAK256 PUSH1 0x3 ADD PUSH1 0x0 PUSH2 0x100 EXP DUP2 SLOAD DUP2 PUSH1 0xFF MUL NOT AND SWAP1 DUP4 ISZERO ISZERO MUL OR SWAP1 SSTORE POP POP POP POP JUMP JUMPDEST PUSH1 0x60 PUSH1 0x1 DUP1 SLOAD DUP1 PUSH1 0x20 MUL PUSH1 0x20 ADD PUSH1 0x40 MLOAD SWAP1 DUP2 ADD PUSH1 0x40 MSTORE DUP1 SWAP3 SWAP2 SWAP1 DUP2 DUP2 MSTORE PUSH1 0x20 ADD DUP3 DUP1 SLOAD DUP1 ISZERO PUSH2 0x1F29 JUMPI PUSH1 0x20 MUL DUP3 ADD SWAP2 SWAP1 PUSH1 0x0 MSTORE PUSH1 0x20 PUSH1 0x0 KECCAK256 SWAP1 JUMPDEST DUP2 PUSH1 0x0 SWAP1 SLOAD SWAP1 PUSH2 0x100 EXP SWAP1 DIV PUSH20 0xFFFFFFFFFFFFFFFFFFFFFFFFFFFFFFFFFFFFFFFF AND PUSH20 0xFFFFFFFFFFFFFFFFFFFFFFFFFFFFFFFFFFFFFFFF AND DUP2 MSTORE PUSH1 0x20 ADD SWAP1 PUSH1 0x1 ADD SWAP1 DUP1 DUP4 GT PUSH2 0x1EDF JUMPI JUMPDEST POP POP POP POP POP SWAP1 POP SWAP1 JUMP JUMPDEST PUSH1 0xB PUSH1 0x0 DUP4 PUSH20 0xFFFFFFFFFFFFFFFFFFFFFFFFFFFFFFFFFFFFFFFF AND PUSH20 0xFFFFFFFFFFFFFFFFFFFFFFFFFFFFFFFFFFFFFFFF AND DUP2 MSTORE PUSH1 0x20 ADD SWAP1 DUP2 MSTORE PUSH1 0x20 ADD PUSH1 0x0 KECCAK256 DUP2 PUSH1 0x40 MLOAD PUSH2 0x1F80 SWAP2 SWAP1 PUSH2 0x364C JUMP JUMPDEST SWAP1 DUP2 MSTORE PUSH1 0x20 ADD PUSH1 0x40 MLOAD DUP1 SWAP2 SUB SWAP1 KECCAK256 PUSH1 0x0 SWAP1 SLOAD SWAP1 PUSH2 0x100 EXP SWAP1 DIV PUSH1 0xFF AND ISZERO PUSH2 0x1FDC JUMPI PUSH1 0x40 MLOAD PUSH32 0x8C379A000000000000000000000000000000000000000000000000000000000 DUP2 MSTORE PUSH1 0x4 ADD PUSH2 0x1FD3 SWAP1 PUSH2 0x38E0 JUMP JUMPDEST PUSH1 0x40 MLOAD DUP1 SWAP2 SUB SWAP1 REVERT JUMPDEST PUSH1 0xA DUP2 PUSH1 0x40 MLOAD PUSH2 0x1FEC SWAP2 SWAP1 PUSH2 0x364C JUMP JUMPDEST SWAP1 DUP2 MSTORE PUSH1 0x20 ADD PUSH1 0x40 MLOAD DUP1 SWAP2 SUB SWAP1 KECCAK256 PUSH1 0x0 DUP4 PUSH20 0xFFFFFFFFFFFFFFFFFFFFFFFFFFFFFFFFFFFFFFFF AND PUSH20 0xFFFFFFFFFFFFFFFFFFFFFFFFFFFFFFFFFFFFFFFF AND DUP2 MSTORE PUSH1 0x20 ADD SWAP1 DUP2 MSTORE PUSH1 0x20 ADD PUSH1 0x0 KECCAK256 PUSH1 0x3 ADD PUSH1 0x0 DUP2 SLOAD DUP1 SWAP3 SWAP2 SWAP1 PUSH2 0x204B SWAP1 PUSH2 0x3BF6 JUMP JUMPDEST SWAP2 SWAP1 POP SSTORE POP POP POP JUMP JUMPDEST PUSH1 0xA DUP3 DUP1 MLOAD PUSH1 0x20 DUP2 ADD DUP3 ADD DUP1 MLOAD DUP5 DUP3 MSTORE PUSH1 0x20 DUP4 ADD PUSH1 0x20 DUP6 ADD KECCAK256 DUP2 DUP4 MSTORE DUP1 SWAP6 POP POP POP POP POP POP PUSH1 0x20 MSTORE DUP1 PUSH1 0x0 MSTORE PUSH1 0x40 PUSH1 0x0 KECCAK256 PUSH1 0x0 SWAP2 POP SWAP2 POP POP DUP1 PUSH1 0x0 ADD DUP1 SLOAD PUSH2 0x209A SWAP1 PUSH2 0x3B93 JUMP JUMPDEST DUP1 PUSH1 0x1F ADD PUSH1 0x20 DUP1 SWAP2 DIV MUL PUSH1 0x20 ADD PUSH1 0x40 MLOAD SWAP1 DUP2 ADD PUSH1 0x40 MSTORE DUP1 SWAP3 SWAP2 SWAP1 DUP2 DUP2 MSTORE PUSH1 0x20 ADD DUP3 DUP1 SLOAD PUSH2 0x20C6 SWAP1 PUSH2 0x3B93 JUMP JUMPDEST DUP1 ISZERO PUSH2 0x2113 JUMPI DUP1 PUSH1 0x1F LT PUSH2 0x20E8 JUMPI PUSH2 0x100 DUP1 DUP4 SLOAD DIV MUL DUP4 MSTORE SWAP2 PUSH1 0x20 ADD SWAP2 PUSH2 0x2113 JUMP JUMPDEST DUP3 ADD SWAP2 SWAP1 PUSH1 0x0 MSTORE PUSH1 0x20 PUSH1 0x0 KECCAK256 SWAP1 JUMPDEST DUP2 SLOAD DUP2 MSTORE SWAP1 PUSH1 0x1 ADD SWAP1 PUSH1 0x20 ADD DUP1 DUP4 GT PUSH2 0x20F6 JUMPI DUP3 SWAP1 SUB PUSH1 0x1F AND DUP3 ADD SWAP2 JUMPDEST POP POP POP POP POP SWAP1 DUP1 PUSH1 0x1 ADD DUP1 SLOAD PUSH2 0x2128 SWAP1 PUSH2 0x3B93 JUMP JUMPDEST DUP1 PUSH1 0x1F ADD PUSH1 0x20 DUP1 SWAP2 DIV MUL PUSH1 0x20 ADD PUSH1 0x40 MLOAD SWAP1 DUP2 ADD PUSH1 0x40 MSTORE DUP1 SWAP3 SWAP2 SWAP1 DUP2 DUP2 MSTORE PUSH1 0x20 ADD DUP3 DUP1 SLOAD PUSH2 0x2154 SWAP1 PUSH2 0x3B93 JUMP JUMPDEST DUP1 ISZERO PUSH2 0x21A1 JUMPI DUP1 PUSH1 0x1F LT PUSH2 0x2176 JUMPI PUSH2 0x100 DUP1 DUP4 SLOAD DIV MUL DUP4 MSTORE SWAP2 PUSH1 0x20 ADD SWAP2 PUSH2 0x21A1 JUMP JUMPDEST DUP3 ADD SWAP2 SWAP1 PUSH1 0x0 MSTORE PUSH1 0x20 PUSH1 0x0 KECCAK256 SWAP1 JUMPDEST DUP2 SLOAD DUP2 MSTORE SWAP1 PUSH1 0x1 ADD SWAP1 PUSH1 0x20 ADD DUP1 DUP4 GT PUSH2 0x2184 JUMPI DUP3 SWAP1 SUB PUSH1 0x1F AND DUP3 ADD SWAP2 JUMPDEST POP POP POP POP POP SWAP1 DUP1 PUSH1 0x2 ADD SLOAD SWAP1 DUP1 PUSH1 0x3 ADD SLOAD SWAP1 DUP1 PUSH1 0x4 ADD SLOAD SWAP1 POP DUP6 JUMP JUMPDEST PUSH1 0xB PUSH1 0x20 MSTORE DUP2 PUSH1 0x0 MSTORE PUSH1 0x40 PUSH1 0x0 KECCAK256 DUP2 DUP1 MLOAD PUSH1 0x20 DUP2 ADD DUP3 ADD DUP1 MLOAD DUP5 DUP3 MSTORE PUSH1 0x20 DUP4 ADD PUSH1 0x20 DUP6 ADD KECCAK256 DUP2 DUP4 MSTORE DUP1 SWAP6 POP POP POP POP POP POP PUSH1 0x0 SWAP2 POP SWAP2 POP SWAP1 SLOAD SWAP1 PUSH2 0x100 EXP SWAP1 DIV PUSH1 0xFF AND DUP2 JUMP JUMPDEST PUSH1 0x6 PUSH1 0x20 MSTORE DUP1 PUSH1 0x0 MSTORE PUSH1 0x40 PUSH1 0x0 KECCAK256 PUSH1 0x0 SWAP2 POP SWAP1 POP SLOAD DUP2 JUMP JUMPDEST PUSH1 0x4 DUP2 DUP1 MLOAD PUSH1 0x20 DUP2 ADD DUP3 ADD DUP1 MLOAD DUP5 DUP3 MSTORE PUSH1 0x20 DUP4 ADD PUSH1 0x20 DUP6 ADD KECCAK256 DUP2 DUP4 MSTORE DUP1 SWAP6 POP POP POP POP POP POP PUSH1 0x0 SWAP2 POP SWAP1 POP DUP1 PUSH1 0x0 ADD DUP1 SLOAD PUSH2 0x2253 SWAP1 PUSH2 0x3B93 JUMP JUMPDEST DUP1 PUSH1 0x1F ADD PUSH1 0x20 DUP1 SWAP2 DIV MUL PUSH1 0x20 ADD PUSH1 0x40 MLOAD SWAP1 DUP2 ADD PUSH1 0x40 MSTORE DUP1 SWAP3 SWAP2 SWAP1 DUP2 DUP2 MSTORE PUSH1 0x20 ADD DUP3 DUP1 SLOAD PUSH2 0x227F SWAP1 PUSH2 0x3B93 JUMP JUMPDEST DUP1 ISZERO PUSH2 0x22CC JUMPI DUP1 PUSH1 0x1F LT PUSH2 0x22A1 JUMPI PUSH2 0x100 DUP1 DUP4 SLOAD DIV MUL DUP4 MSTORE SWAP2 PUSH1 0x20 ADD SWAP2 PUSH2 0x22CC JUMP JUMPDEST DUP3 ADD SWAP2 SWAP1 PUSH1 0x0 MSTORE PUSH1 0x20 PUSH1 0x0 KECCAK256 SWAP1 JUMPDEST DUP2 SLOAD DUP2 MSTORE SWAP1 PUSH1 0x1 ADD SWAP1 PUSH1 0x20 ADD DUP1 DUP4 GT PUSH2 0x22AF JUMPI DUP3 SWAP1 SUB PUSH1 0x1F AND DUP3 ADD SWAP2 JUMPDEST POP POP POP POP POP SWAP1 DUP1 PUSH1 0x1 ADD DUP1 SLOAD PUSH2 0x22E1 SWAP1 PUSH2 0x3B93 JUMP JUMPDEST DUP1 PUSH1 0x1F ADD PUSH1 0x20 DUP1 SWAP2 DIV MUL PUSH1 0x20 ADD PUSH1 0x40 MLOAD SWAP1 DUP2 ADD PUSH1 0x40 MSTORE DUP1 SWAP3 SWAP2 SWAP1 DUP2 DUP2 MSTORE PUSH1 0x20 ADD DUP3 DUP1 SLOAD PUSH2 0x230D SWAP1 PUSH2 0x3B93 JUMP JUMPDEST DUP1 ISZERO PUSH2 0x235A JUMPI DUP1 PUSH1 0x1F LT PUSH2 0x232F JUMPI PUSH2 0x100 DUP1 DUP4 SLOAD DIV MUL DUP4 MSTORE SWAP2 PUSH1 0x20 ADD SWAP2 PUSH2 0x235A JUMP JUMPDEST DUP3 ADD SWAP2 SWAP1 PUSH1 0x0 MSTORE PUSH1 0x20 PUSH1 0x0 KECCAK256 SWAP1 JUMPDEST DUP2 SLOAD DUP2 MSTORE SWAP1 PUSH1 0x1 ADD SWAP1 PUSH1 0x20 ADD DUP1 DUP4 GT PUSH2 0x233D JUMPI DUP3 SWAP1 SUB PUSH1 0x1F AND DUP3 ADD SWAP2 JUMPDEST POP POP POP POP POP SWAP1 DUP1 PUSH1 0x2 ADD DUP1 SLOAD PUSH2 0x236F SWAP1 PUSH2 0x3B93 JUMP JUMPDEST DUP1 PUSH1 0x1F ADD PUSH1 0x20 DUP1 SWAP2 DIV MUL PUSH1 0x20 ADD PUSH1 0x40 MLOAD SWAP1 DUP2 ADD PUSH1 0x40 MSTORE DUP1 SWAP3 SWAP2 SWAP1 DUP2 DUP2 MSTORE PUSH1 0x20 ADD DUP3 DUP1 SLOAD PUSH2 0x239B SWAP1 PUSH2 0x3B93 JUMP JUMPDEST DUP1 ISZERO PUSH2 0x23E8 JUMPI DUP1 PUSH1 0x1F LT PUSH2 0x23BD JUMPI PUSH2 0x100 DUP1 DUP4 SLOAD DIV MUL DUP4 MSTORE SWAP2 PUSH1 0x20 ADD SWAP2 PUSH2 0x23E8 JUMP JUMPDEST DUP3 ADD SWAP2 SWAP1 PUSH1 0x0 MSTORE PUSH1 0x20 PUSH1 0x0 KECCAK256 SWAP1 JUMPDEST DUP2 SLOAD DUP2 MSTORE SWAP1 PUSH1 0x1 ADD SWAP1 PUSH1 0x20 ADD DUP1 DUP4 GT PUSH2 0x23CB JUMPI DUP3 SWAP1 SUB PUSH1 0x1F AND DUP3 ADD SWAP2 JUMPDEST POP POP POP POP POP SWAP1 DUP1 PUSH1 0x3 ADD PUSH1 0x0 SWAP1 SLOAD SWAP1 PUSH2 0x100 EXP SWAP1 DIV PUSH1 0xFF AND SWAP1 POP DUP5 JUMP JUMPDEST PUSH1 0x0 PUSH1 0x40 MLOAD DUP1 PUSH1 0x40 ADD PUSH1 0x40 MSTORE DUP1 DUP5 DUP2 MSTORE PUSH1 0x20 ADD DUP4 DUP2 MSTORE POP SWAP1 POP PUSH1 0x1 DUP5 SWAP1 DUP1 PUSH1 0x1 DUP2 SLOAD ADD DUP1 DUP3 SSTORE DUP1 SWAP2 POP POP PUSH1 0x1 SWAP1 SUB SWAP1 PUSH1 0x0 MSTORE PUSH1 0x20 PUSH1 0x0 KECCAK256 ADD PUSH1 0x0 SWAP1 SWAP2 SWAP1 SWAP2 SWAP1 SWAP2 PUSH2 0x100 EXP DUP2 SLOAD DUP2 PUSH20 0xFFFFFFFFFFFFFFFFFFFFFFFFFFFFFFFFFFFFFFFF MUL NOT AND SWAP1 DUP4 PUSH20 0xFFFFFFFFFFFFFFFFFFFFFFFFFFFFFFFFFFFFFFFF AND MUL OR SWAP1 SSTORE POP DUP1 PUSH1 0x8 PUSH1 0x0 DUP7 PUSH20 0xFFFFFFFFFFFFFFFFFFFFFFFFFFFFFFFFFFFFFFFF AND PUSH20 0xFFFFFFFFFFFFFFFFFFFFFFFFFFFFFFFFFFFFFFFF AND DUP2 MSTORE PUSH1 0x20 ADD SWAP1 DUP2 MSTORE PUSH1 0x20 ADD PUSH1 0x0 KECCAK256 PUSH1 0x0 DUP3 ADD MLOAD DUP2 PUSH1 0x0 ADD SWAP1 DUP1 MLOAD SWAP1 PUSH1 0x20 ADD SWAP1 PUSH2 0x24DD SWAP3 SWAP2 SWAP1 PUSH2 0x2AB9 JUMP JUMPDEST POP PUSH1 0x20 DUP3 ADD MLOAD DUP2 PUSH1 0x1 ADD SWAP1 DUP1 MLOAD SWAP1 PUSH1 0x20 ADD SWAP1 PUSH2 0x24FA SWAP3 SWAP2 SWAP1 PUSH2 0x2AB9 JUMP JUMPDEST POP SWAP1 POP POP POP POP POP POP JUMP JUMPDEST PUSH1 0x0 PUSH1 0x40 MLOAD DUP1 PUSH1 0x80 ADD PUSH1 0x40 MSTORE DUP1 DUP7 DUP2 MSTORE PUSH1 0x20 ADD DUP6 DUP2 MSTORE PUSH1 0x20 ADD DUP5 DUP2 MSTORE PUSH1 0x20 ADD DUP4 ISZERO ISZERO DUP2 MSTORE POP SWAP1 POP DUP1 PUSH1 0x4 DUP7 PUSH1 0x40 MLOAD PUSH2 0x253C SWAP2 SWAP1 PUSH2 0x364C JUMP JUMPDEST SWAP1 DUP2 MSTORE PUSH1 0x20 ADD PUSH1 0x40 MLOAD DUP1 SWAP2 SUB SWAP1 KECCAK256 PUSH1 0x0 DUP3 ADD MLOAD DUP2 PUSH1 0x0 ADD SWAP1 DUP1 MLOAD SWAP1 PUSH1 0x20 ADD SWAP1 PUSH2 0x2566 SWAP3 SWAP2 SWAP1 PUSH2 0x2AB9 JUMP JUMPDEST POP PUSH1 0x20 DUP3 ADD MLOAD DUP2 PUSH1 0x1 ADD SWAP1 DUP1 MLOAD SWAP1 PUSH1 0x20 ADD SWAP1 PUSH2 0x2583 SWAP3 SWAP2 SWAP1 PUSH2 0x2AB9 JUMP JUMPDEST POP PUSH1 0x40 DUP3 ADD MLOAD DUP2 PUSH1 0x2 ADD SWAP1 DUP1 MLOAD SWAP1 PUSH1 0x20 ADD SWAP1 PUSH2 0x25A0 SWAP3 SWAP2 SWAP1 PUSH2 0x2AB9 JUMP JUMPDEST POP PUSH1 0x60 DUP3 ADD MLOAD DUP2 PUSH1 0x3 ADD PUSH1 0x0 PUSH2 0x100 EXP DUP2 SLOAD DUP2 PUSH1 0xFF MUL NOT AND SWAP1 DUP4 ISZERO ISZERO MUL OR SWAP1 SSTORE POP SWAP1 POP POP PUSH1 0x5 DUP6 SWAP1 DUP1 PUSH1 0x1 DUP2 SLOAD ADD DUP1 DUP3 SSTORE DUP1 SWAP2 POP POP PUSH1 0x1 SWAP1 SUB SWAP1 PUSH1 0x0 MSTORE PUSH1 0x20 PUSH1 0x0 KECCAK256 ADD PUSH1 0x0 SWAP1 SWAP2 SWAP1 SWAP2 SWAP1 SWAP2 POP SWAP1 DUP1 MLOAD SWAP1 PUSH1 0x20 ADD SWAP1 PUSH2 0x25FF SWAP3 SWAP2 SWAP1 PUSH2 0x2AB9 JUMP JUMPDEST POP POP POP POP POP POP JUMP JUMPDEST PUSH1 0x0 PUSH1 0x40 MLOAD DUP1 PUSH1 0xA0 ADD PUSH1 0x40 MSTORE DUP1 DUP8 DUP2 MSTORE PUSH1 0x20 ADD DUP7 DUP2 MSTORE PUSH1 0x20 ADD DUP6 DUP2 MSTORE PUSH1 0x20 ADD DUP5 DUP2 MSTORE PUSH1 0x20 ADD DUP4 DUP2 MSTORE POP SWAP1 POP PUSH1 0x9 PUSH1 0x0 DUP9 PUSH20 0xFFFFFFFFFFFFFFFFFFFFFFFFFFFFFFFFFFFFFFFF AND PUSH20 0xFFFFFFFFFFFFFFFFFFFFFFFFFFFFFFFFFFFFFFFF AND DUP2 MSTORE PUSH1 0x20 ADD SWAP1 DUP2 MSTORE PUSH1 0x20 ADD PUSH1 0x0 KECCAK256 DUP7 SWAP1 DUP1 PUSH1 0x1 DUP2 SLOAD ADD DUP1 DUP3 SSTORE DUP1 SWAP2 POP POP PUSH1 0x1 SWAP1 SUB SWAP1 PUSH1 0x0 MSTORE PUSH1 0x20 PUSH1 0x0 KECCAK256 ADD PUSH1 0x0 SWAP1 SWAP2 SWAP1 SWAP2 SWAP1 SWAP2 POP SWAP1 DUP1 MLOAD SWAP1 PUSH1 0x20 ADD SWAP1 PUSH2 0x26AA SWAP3 SWAP2 SWAP1 PUSH2 0x2AB9 JUMP JUMPDEST POP DUP1 PUSH1 0xA DUP8 PUSH1 0x40 MLOAD PUSH2 0x26BC SWAP2 SWAP1 PUSH2 0x364C JUMP JUMPDEST SWAP1 DUP2 MSTORE PUSH1 0x20 ADD PUSH1 0x40 MLOAD DUP1 SWAP2 SUB SWAP1 KECCAK256 PUSH1 0x0 DUP10 PUSH20 0xFFFFFFFFFFFFFFFFFFFFFFFFFFFFFFFFFFFFFFFF AND PUSH20 0xFFFFFFFFFFFFFFFFFFFFFFFFFFFFFFFFFFFFFFFF AND DUP2 MSTORE PUSH1 0x20 ADD SWAP1 DUP2 MSTORE PUSH1 0x20 ADD PUSH1 0x0 KECCAK256 PUSH1 0x0 DUP3 ADD MLOAD DUP2 PUSH1 0x0 ADD SWAP1 DUP1 MLOAD SWAP1 PUSH1 0x20 ADD SWAP1 PUSH2 0x2723 SWAP3 SWAP2 SWAP1 PUSH2 0x2AB9 JUMP JUMPDEST POP PUSH1 0x20 DUP3 ADD MLOAD DUP2 PUSH1 0x1 ADD SWAP1 DUP1 MLOAD SWAP1 PUSH1 0x20 ADD SWAP1 PUSH2 0x2740 SWAP3 SWAP2 SWAP1 PUSH2 0x2AB9 JUMP JUMPDEST POP PUSH1 0x40 DUP3 ADD MLOAD DUP2 PUSH1 0x2 ADD SSTORE PUSH1 0x60 DUP3 ADD MLOAD DUP2 PUSH1 0x3 ADD SSTORE PUSH1 0x80 DUP3 ADD MLOAD DUP2 PUSH1 0x4 ADD SSTORE SWAP1 POP POP PUSH1 0x1 PUSH1 0xB PUSH1 0x0 DUP10 PUSH20 0xFFFFFFFFFFFFFFFFFFFFFFFFFFFFFFFFFFFFFFFF AND PUSH20 0xFFFFFFFFFFFFFFFFFFFFFFFFFFFFFFFFFFFFFFFF AND DUP2 MSTORE PUSH1 0x20 ADD SWAP1 DUP2 MSTORE PUSH1 0x20 ADD PUSH1 0x0 KECCAK256 DUP8 PUSH1 0x40 MLOAD PUSH2 0x27B1 SWAP2 SWAP1 PUSH2 0x364C JUMP JUMPDEST SWAP1 DUP2 MSTORE PUSH1 0x20 ADD PUSH1 0x40 MLOAD DUP1 SWAP2 SUB SWAP1 KECCAK256 PUSH1 0x0 PUSH2 0x100 EXP DUP2 SLOAD DUP2 PUSH1 0xFF MUL NOT AND SWAP1 DUP4 ISZERO ISZERO MUL OR SWAP1 SSTORE POP POP POP POP POP POP POP POP JUMP JUMPDEST DUP5 PUSH1 0x0 PUSH20 0xFFFFFFFFFFFFFFFFFFFFFFFFFFFFFFFFFFFFFFFF AND PUSH1 0x3 DUP3 PUSH1 0x40 MLOAD PUSH2 0x2808 SWAP2 SWAP1 PUSH2 0x364C JUMP JUMPDEST SWAP1 DUP2 MSTORE PUSH1 0x20 ADD PUSH1 0x40 MLOAD DUP1 SWAP2 SUB SWAP1 KECCAK256 PUSH1 0x0 ADD PUSH1 0x0 SWAP1 SLOAD SWAP1 PUSH2 0x100 EXP SWAP1 DIV PUSH20 0xFFFFFFFFFFFFFFFFFFFFFFFFFFFFFFFFFFFFFFFF AND PUSH20 0xFFFFFFFFFFFFFFFFFFFFFFFFFFFFFFFFFFFFFFFF AND EQ PUSH2 0x2890 JUMPI PUSH1 0x40 MLOAD PUSH32 0x8C379A000000000000000000000000000000000000000000000000000000000 DUP2 MSTORE PUSH1 0x4 ADD PUSH2 0x2887 SWAP1 PUSH2 0x38A0 JUMP JUMPDEST PUSH1 0x40 MLOAD DUP1 SWAP2 SUB SWAP1 REVERT JUMPDEST PUSH1 0x0 PUSH1 0x40 MLOAD DUP1 PUSH1 0xA0 ADD PUSH1 0x40 MSTORE DUP1 DUP10 PUSH20 0xFFFFFFFFFFFFFFFFFFFFFFFFFFFFFFFFFFFFFFFF AND DUP2 MSTORE PUSH1 0x20 ADD DUP9 DUP2 MSTORE PUSH1 0x20 ADD DUP8 DUP2 MSTORE PUSH1 0x20 ADD DUP7 DUP2 MSTORE PUSH1 0x20 ADD DUP6 DUP2 MSTORE POP SWAP1 POP DUP1 PUSH1 0x3 DUP9 PUSH1 0x40 MLOAD PUSH2 0x28E2 SWAP2 SWAP1 PUSH2 0x364C JUMP JUMPDEST SWAP1 DUP2 MSTORE PUSH1 0x20 ADD PUSH1 0x40 MLOAD DUP1 SWAP2 SUB SWAP1 KECCAK256 PUSH1 0x0 DUP3 ADD MLOAD DUP2 PUSH1 0x0 ADD PUSH1 0x0 PUSH2 0x100 EXP DUP2 SLOAD DUP2 PUSH20 0xFFFFFFFFFFFFFFFFFFFFFFFFFFFFFFFFFFFFFFFF MUL NOT AND SWAP1 DUP4 PUSH20 0xFFFFFFFFFFFFFFFFFFFFFFFFFFFFFFFFFFFFFFFF AND MUL OR SWAP1 SSTORE POP PUSH1 0x20 DUP3 ADD MLOAD DUP2 PUSH1 0x1 ADD SWAP1 DUP1 MLOAD SWAP1 PUSH1 0x20 ADD SWAP1 PUSH2 0x2953 SWAP3 SWAP2 SWAP1 PUSH2 0x2AB9 JUMP JUMPDEST POP PUSH1 0x40 DUP3 ADD MLOAD DUP2 PUSH1 0x2 ADD SWAP1 DUP1 MLOAD SWAP1 PUSH1 0x20 ADD SWAP1 PUSH2 0x2970 SWAP3 SWAP2 SWAP1 PUSH2 0x2AB9 JUMP JUMPDEST POP PUSH1 0x60 DUP3 ADD MLOAD DUP2 PUSH1 0x3 ADD SWAP1 DUP1 MLOAD SWAP1 PUSH1 0x20 ADD SWAP1 PUSH2 0x298D SWAP3 SWAP2 SWAP1 PUSH2 0x2AB9 JUMP JUMPDEST POP PUSH1 0x80 DUP3 ADD MLOAD DUP2 PUSH1 0x4 ADD SWAP1 DUP1 MLOAD SWAP1 PUSH1 0x20 ADD SWAP1 PUSH2 0x29AA SWAP3 SWAP2 SWAP1 PUSH2 0x2AB9 JUMP JUMPDEST POP SWAP1 POP POP PUSH1 0x7 PUSH1 0x0 DUP5 PUSH20 0xFFFFFFFFFFFFFFFFFFFFFFFFFFFFFFFFFFFFFFFF AND PUSH20 0xFFFFFFFFFFFFFFFFFFFFFFFFFFFFFFFFFFFFFFFF AND DUP2 MSTORE PUSH1 0x20 ADD SWAP1 DUP2 MSTORE PUSH1 0x20 ADD PUSH1 0x0 KECCAK256 DUP8 SWAP1 DUP1 PUSH1 0x1 DUP2 SLOAD ADD DUP1 DUP3 SSTORE DUP1 SWAP2 POP POP PUSH1 0x1 SWAP1 SUB SWAP1 PUSH1 0x0 MSTORE PUSH1 0x20 PUSH1 0x0 KECCAK256 ADD PUSH1 0x0 SWAP1 SWAP2 SWAP1 SWAP2 SWAP1 SWAP2 POP SWAP1 DUP1 MLOAD SWAP1 PUSH1 0x20 ADD SWAP1 PUSH2 0x2A26 SWAP3 SWAP2 SWAP1 PUSH2 0x2AB9 JUMP JUMPDEST POP POP POP POP POP POP POP POP POP JUMP JUMPDEST PUSH1 0x0 DUP2 PUSH1 0x40 MLOAD PUSH1 0x20 ADD PUSH2 0x2A44 SWAP2 SWAP1 PUSH2 0x364C JUMP JUMPDEST PUSH1 0x40 MLOAD PUSH1 0x20 DUP2 DUP4 SUB SUB DUP2 MSTORE SWAP1 PUSH1 0x40 MSTORE DUP1 MLOAD SWAP1 PUSH1 0x20 ADD KECCAK256 DUP4 PUSH1 0x40 MLOAD PUSH1 0x20 ADD PUSH2 0x2A6B SWAP2 SWAP1 PUSH2 0x364C JUMP JUMPDEST PUSH1 0x40 MLOAD PUSH1 0x20 DUP2 DUP4 SUB SUB DUP2 MSTORE SWAP1 PUSH1 0x40 MSTORE DUP1 MLOAD SWAP1 PUSH1 0x20 ADD KECCAK256 EQ SWAP1 POP SWAP3 SWAP2 POP POP JUMP JUMPDEST PUSH1 0x40 MLOAD DUP1 PUSH1 0xA0 ADD PUSH1 0x40 MSTORE DUP1 PUSH1 0x60 DUP2 MSTORE PUSH1 0x20 ADD PUSH1 0x60 DUP2 MSTORE PUSH1 0x20 ADD PUSH1 0x0 DUP2 MSTORE PUSH1 0x20 ADD PUSH1 0x0 DUP2 MSTORE PUSH1 0x20 ADD PUSH1 0x0 DUP2 MSTORE POP SWAP1 JUMP JUMPDEST DUP3 DUP1 SLOAD PUSH2 0x2AC5 SWAP1 PUSH2 0x3B93 JUMP JUMPDEST SWAP1 PUSH1 0x0 MSTORE PUSH1 0x20 PUSH1 0x0 KECCAK256 SWAP1 PUSH1 0x1F ADD PUSH1 0x20 SWAP1 DIV DUP2 ADD SWAP3 DUP3 PUSH2 0x2AE7 JUMPI PUSH1 0x0 DUP6 SSTORE PUSH2 0x2B2E JUMP JUMPDEST DUP3 PUSH1 0x1F LT PUSH2 0x2B00 JUMPI DUP1 MLOAD PUSH1 0xFF NOT AND DUP4 DUP1 ADD OR DUP6 SSTORE PUSH2 0x2B2E JUMP JUMPDEST DUP3 DUP1 ADD PUSH1 0x1 ADD DUP6 SSTORE DUP3 ISZERO PUSH2 0x2B2E JUMPI SWAP2 DUP3 ADD JUMPDEST DUP3 DUP2 GT ISZERO PUSH2 0x2B2D JUMPI DUP3 MLOAD DUP3 SSTORE SWAP2 PUSH1 0x20 ADD SWAP2 SWAP1 PUSH1 0x1 ADD SWAP1 PUSH2 0x2B12 JUMP JUMPDEST JUMPDEST POP SWAP1 POP PUSH2 0x2B3B SWAP2 SWAP1 PUSH2 0x2B84 JUMP JUMPDEST POP SWAP1 JUMP JUMPDEST PUSH1 0x40 MLOAD DUP1 PUSH1 0xA0 ADD PUSH1 0x40 MSTORE DUP1 PUSH1 0x0 PUSH20 0xFFFFFFFFFFFFFFFFFFFFFFFFFFFFFFFFFFFFFFFF AND DUP2 MSTORE PUSH1 0x20 ADD PUSH1 0x60 DUP2 MSTORE PUSH1 0x20 ADD PUSH1 0x60 DUP2 MSTORE PUSH1 0x20 ADD PUSH1 0x60 DUP2 MSTORE PUSH1 0x20 ADD PUSH1 0x60 DUP2 MSTORE POP SWAP1 JUMP JUMPDEST JUMPDEST DUP1 DUP3 GT ISZERO PUSH2 0x2B9D JUMPI PUSH1 0x0 DUP2 PUSH1 0x0 SWAP1 SSTORE POP PUSH1 0x1 ADD PUSH2 0x2B85 JUMP JUMPDEST POP SWAP1 JUMP JUMPDEST PUSH1 0x0 PUSH2 0x2BB4 PUSH2 0x2BAF DUP5 PUSH2 0x39A4 JUMP JUMPDEST PUSH2 0x397F JUMP JUMPDEST SWAP1 POP DUP3 DUP2 MSTORE PUSH1 0x20 DUP2 ADD DUP5 DUP5 DUP5 ADD GT ISZERO PUSH2 0x2BD0 JUMPI PUSH2 0x2BCF PUSH2 0x3D2F JUMP JUMPDEST JUMPDEST PUSH2 0x2BDB DUP5 DUP3 DUP6 PUSH2 0x3B51 JUMP JUMPDEST POP SWAP4 SWAP3 POP POP POP JUMP JUMPDEST PUSH1 0x0 DUP2 CALLDATALOAD SWAP1 POP PUSH2 0x2BF2 DUP2 PUSH2 0x3E45 JUMP JUMPDEST SWAP3 SWAP2 POP POP JUMP JUMPDEST PUSH1 0x0 DUP2 CALLDATALOAD SWAP1 POP PUSH2 0x2C07 DUP2 PUSH2 0x3E5C JUMP JUMPDEST SWAP3 SWAP2 POP POP JUMP JUMPDEST PUSH1 0x0 DUP3 PUSH1 0x1F DUP4 ADD SLT PUSH2 0x2C22 JUMPI PUSH2 0x2C21 PUSH2 0x3D2A JUMP JUMPDEST JUMPDEST DUP2 CALLDATALOAD PUSH2 0x2C32 DUP5 DUP3 PUSH1 0x20 DUP7 ADD PUSH2 0x2BA1 JUMP JUMPDEST SWAP2 POP POP SWAP3 SWAP2 POP POP JUMP JUMPDEST PUSH1 0x0 DUP2 CALLDATALOAD SWAP1 POP PUSH2 0x2C4A DUP2 PUSH2 0x3E73 JUMP JUMPDEST SWAP3 SWAP2 POP POP JUMP JUMPDEST PUSH1 0x0 PUSH1 0x20 DUP3 DUP5 SUB SLT ISZERO PUSH2 0x2C66 JUMPI PUSH2 0x2C65 PUSH2 0x3D39 JUMP JUMPDEST JUMPDEST PUSH1 0x0 PUSH2 0x2C74 DUP5 DUP3 DUP6 ADD PUSH2 0x2BE3 JUMP JUMPDEST SWAP2 POP POP SWAP3 SWAP2 POP POP JUMP JUMPDEST PUSH1 0x0 DUP1 PUSH1 0x40 DUP4 DUP6 SUB SLT ISZERO PUSH2 0x2C94 JUMPI PUSH2 0x2C93 PUSH2 0x3D39 JUMP JUMPDEST JUMPDEST PUSH1 0x0 PUSH2 0x2CA2 DUP6 DUP3 DUP7 ADD PUSH2 0x2BE3 JUMP JUMPDEST SWAP3 POP POP PUSH1 0x20 DUP4 ADD CALLDATALOAD PUSH8 0xFFFFFFFFFFFFFFFF DUP2 GT ISZERO PUSH2 0x2CC3 JUMPI PUSH2 0x2CC2 PUSH2 0x3D34 JUMP JUMPDEST JUMPDEST PUSH2 0x2CCF DUP6 DUP3 DUP7 ADD PUSH2 0x2C0D JUMP JUMPDEST SWAP2 POP POP SWAP3 POP SWAP3 SWAP1 POP JUMP JUMPDEST PUSH1 0x0 DUP1 PUSH1 0x0 PUSH1 0x60 DUP5 DUP7 SUB SLT ISZERO PUSH2 0x2CF2 JUMPI PUSH2 0x2CF1 PUSH2 0x3D39 JUMP JUMPDEST JUMPDEST PUSH1 0x0 PUSH2 0x2D00 DUP7 DUP3 DUP8 ADD PUSH2 0x2BE3 JUMP JUMPDEST SWAP4 POP POP PUSH1 0x20 DUP5 ADD CALLDATALOAD PUSH8 0xFFFFFFFFFFFFFFFF DUP2 GT ISZERO PUSH2 0x2D21 JUMPI PUSH2 0x2D20 PUSH2 0x3D34 JUMP JUMPDEST JUMPDEST PUSH2 0x2D2D DUP7 DUP3 DUP8 ADD PUSH2 0x2C0D JUMP JUMPDEST SWAP3 POP POP PUSH1 0x40 DUP5 ADD CALLDATALOAD PUSH8 0xFFFFFFFFFFFFFFFF DUP2 GT ISZERO PUSH2 0x2D4E JUMPI PUSH2 0x2D4D PUSH2 0x3D34 JUMP JUMPDEST JUMPDEST PUSH2 0x2D5A DUP7 DUP3 DUP8 ADD PUSH2 0x2C0D JUMP JUMPDEST SWAP2 POP POP SWAP3 POP SWAP3 POP SWAP3 JUMP JUMPDEST PUSH1 0x0 DUP1 PUSH1 0x0 DUP1 PUSH1 0x0 PUSH1 0xA0 DUP7 DUP9 SUB SLT ISZERO PUSH2 0x2D80 JUMPI PUSH2 0x2D7F PUSH2 0x3D39 JUMP JUMPDEST JUMPDEST PUSH1 0x0 PUSH2 0x2D8E DUP9 DUP3 DUP10 ADD PUSH2 0x2BE3 JUMP JUMPDEST SWAP6 POP POP PUSH1 0x20 DUP7 ADD CALLDATALOAD PUSH8 0xFFFFFFFFFFFFFFFF DUP2 GT ISZERO PUSH2 0x2DAF JUMPI PUSH2 0x2DAE PUSH2 0x3D34 JUMP JUMPDEST JUMPDEST PUSH2 0x2DBB DUP9 DUP3 DUP10 ADD PUSH2 0x2C0D JUMP JUMPDEST SWAP5 POP POP PUSH1 0x40 DUP7 ADD CALLDATALOAD PUSH8 0xFFFFFFFFFFFFFFFF DUP2 GT ISZERO PUSH2 0x2DDC JUMPI PUSH2 0x2DDB PUSH2 0x3D34 JUMP JUMPDEST JUMPDEST PUSH2 0x2DE8 DUP9 DUP3 DUP10 ADD PUSH2 0x2C0D JUMP JUMPDEST SWAP4 POP POP PUSH1 0x60 DUP7 ADD CALLDATALOAD PUSH8 0xFFFFFFFFFFFFFFFF DUP2 GT ISZERO PUSH2 0x2E09 JUMPI PUSH2 0x2E08 PUSH2 0x3D34 JUMP JUMPDEST JUMPDEST PUSH2 0x2E15 DUP9 DUP3 DUP10 ADD PUSH2 0x2C0D JUMP JUMPDEST SWAP3 POP POP PUSH1 0x80 DUP7 ADD CALLDATALOAD PUSH8 0xFFFFFFFFFFFFFFFF DUP2 GT ISZERO PUSH2 0x2E36 JUMPI PUSH2 0x2E35 PUSH2 0x3D34 JUMP JUMPDEST JUMPDEST PUSH2 0x2E42 DUP9 DUP3 DUP10 ADD PUSH2 0x2C0D JUMP JUMPDEST SWAP2 POP POP SWAP3 SWAP6 POP SWAP3 SWAP6 SWAP1 SWAP4 POP JUMP JUMPDEST PUSH1 0x0 DUP1 PUSH1 0x0 DUP1 PUSH1 0x0 DUP1 PUSH1 0xC0 DUP8 DUP10 SUB SLT ISZERO PUSH2 0x2E6C JUMPI PUSH2 0x2E6B PUSH2 0x3D39 JUMP JUMPDEST JUMPDEST PUSH1 0x0 PUSH2 0x2E7A DUP10 DUP3 DUP11 ADD PUSH2 0x2BE3 JUMP JUMPDEST SWAP7 POP POP PUSH1 0x20 DUP8 ADD CALLDATALOAD PUSH8 0xFFFFFFFFFFFFFFFF DUP2 GT ISZERO PUSH2 0x2E9B JUMPI PUSH2 0x2E9A PUSH2 0x3D34 JUMP JUMPDEST JUMPDEST PUSH2 0x2EA7 DUP10 DUP3 DUP11 ADD PUSH2 0x2C0D JUMP JUMPDEST SWAP6 POP POP PUSH1 0x40 DUP8 ADD CALLDATALOAD PUSH8 0xFFFFFFFFFFFFFFFF DUP2 GT ISZERO PUSH2 0x2EC8 JUMPI PUSH2 0x2EC7 PUSH2 0x3D34 JUMP JUMPDEST JUMPDEST PUSH2 0x2ED4 DUP10 DUP3 DUP11 ADD PUSH2 0x2C0D JUMP JUMPDEST SWAP5 POP POP PUSH1 0x60 DUP8 ADD CALLDATALOAD PUSH8 0xFFFFFFFFFFFFFFFF DUP2 GT ISZERO PUSH2 0x2EF5 JUMPI PUSH2 0x2EF4 PUSH2 0x3D34 JUMP JUMPDEST JUMPDEST PUSH2 0x2F01 DUP10 DUP3 DUP11 ADD PUSH2 0x2C0D JUMP JUMPDEST SWAP4 POP POP PUSH1 0x80 DUP8 ADD CALLDATALOAD PUSH8 0xFFFFFFFFFFFFFFFF DUP2 GT ISZERO PUSH2 0x2F22 JUMPI PUSH2 0x2F21 PUSH2 0x3D34 JUMP JUMPDEST JUMPDEST PUSH2 0x2F2E DUP10 DUP3 DUP11 ADD PUSH2 0x2C0D JUMP JUMPDEST SWAP3 POP POP PUSH1 0xA0 PUSH2 0x2F3F DUP10 DUP3 DUP11 ADD PUSH2 0x2BE3 JUMP JUMPDEST SWAP2 POP POP SWAP3 SWAP6 POP SWAP3 SWAP6 POP SWAP3 SWAP6 JUMP JUMPDEST PUSH1 0x0 DUP1 PUSH1 0x0 DUP1 PUSH1 0x0 DUP1 PUSH1 0xC0 DUP8 DUP10 SUB SLT ISZERO PUSH2 0x2F69 JUMPI PUSH2 0x2F68 PUSH2 0x3D39 JUMP JUMPDEST JUMPDEST PUSH1 0x0 PUSH2 0x2F77 DUP10 DUP3 DUP11 ADD PUSH2 0x2BE3 JUMP JUMPDEST SWAP7 POP POP PUSH1 0x20 DUP8 ADD CALLDATALOAD PUSH8 0xFFFFFFFFFFFFFFFF DUP2 GT ISZERO PUSH2 0x2F98 JUMPI PUSH2 0x2F97 PUSH2 0x3D34 JUMP JUMPDEST JUMPDEST PUSH2 0x2FA4 DUP10 DUP3 DUP11 ADD PUSH2 0x2C0D JUMP JUMPDEST SWAP6 POP POP PUSH1 0x40 DUP8 ADD CALLDATALOAD PUSH8 0xFFFFFFFFFFFFFFFF DUP2 GT ISZERO PUSH2 0x2FC5 JUMPI PUSH2 0x2FC4 PUSH2 0x3D34 JUMP JUMPDEST JUMPDEST PUSH2 0x2FD1 DUP10 DUP3 DUP11 ADD PUSH2 0x2C0D JUMP JUMPDEST SWAP5 POP POP PUSH1 0x60 PUSH2 0x2FE2 DUP10 DUP3 DUP11 ADD PUSH2 0x2C3B JUMP JUMPDEST SWAP4 POP POP PUSH1 0x80 PUSH2 0x2FF3 DUP10 DUP3 DUP11 ADD PUSH2 0x2C3B JUMP JUMPDEST SWAP3 POP POP PUSH1 0xA0 PUSH2 0x3004 DUP10 DUP3 DUP11 ADD PUSH2 0x2C3B JUMP JUMPDEST SWAP2 POP POP SWAP3 SWAP6 POP SWAP3 SWAP6 POP SWAP3 SWAP6 JUMP JUMPDEST PUSH1 0x0 DUP1 PUSH1 0x40 DUP4 DUP6 SUB SLT ISZERO PUSH2 0x3028 JUMPI PUSH2 0x3027 PUSH2 0x3D39 JUMP JUMPDEST JUMPDEST PUSH1 0x0 PUSH2 0x3036 DUP6 DUP3 DUP7 ADD PUSH2 0x2BE3 JUMP JUMPDEST SWAP3 POP POP PUSH1 0x20 PUSH2 0x3047 DUP6 DUP3 DUP7 ADD PUSH2 0x2C3B JUMP JUMPDEST SWAP2 POP POP SWAP3 POP SWAP3 SWAP1 POP JUMP JUMPDEST PUSH1 0x0 PUSH1 0x20 DUP3 DUP5 SUB SLT ISZERO PUSH2 0x3067 JUMPI PUSH2 0x3066 PUSH2 0x3D39 JUMP JUMPDEST JUMPDEST PUSH1 0x0 DUP3 ADD CALLDATALOAD PUSH8 0xFFFFFFFFFFFFFFFF DUP2 GT ISZERO PUSH2 0x3085 JUMPI PUSH2 0x3084 PUSH2 0x3D34 JUMP JUMPDEST JUMPDEST PUSH2 0x3091 DUP5 DUP3 DUP6 ADD PUSH2 0x2C0D JUMP JUMPDEST SWAP2 POP POP SWAP3 SWAP2 POP POP JUMP JUMPDEST PUSH1 0x0 DUP1 PUSH1 0x40 DUP4 DUP6 SUB SLT ISZERO PUSH2 0x30B1 JUMPI PUSH2 0x30B0 PUSH2 0x3D39 JUMP JUMPDEST JUMPDEST PUSH1 0x0 DUP4 ADD CALLDATALOAD PUSH8 0xFFFFFFFFFFFFFFFF DUP2 GT ISZERO PUSH2 0x30CF JUMPI PUSH2 0x30CE PUSH2 0x3D34 JUMP JUMPDEST JUMPDEST PUSH2 0x30DB DUP6 DUP3 DUP7 ADD PUSH2 0x2C0D JUMP JUMPDEST SWAP3 POP POP PUSH1 0x20 PUSH2 0x30EC DUP6 DUP3 DUP7 ADD PUSH2 0x2BE3 JUMP JUMPDEST SWAP2 POP POP SWAP3 POP SWAP3 SWAP1 POP JUMP JUMPDEST PUSH1 0x0 DUP1 PUSH1 0x40 DUP4 DUP6 SUB SLT ISZERO PUSH2 0x310D JUMPI PUSH2 0x310C PUSH2 0x3D39 JUMP JUMPDEST JUMPDEST PUSH1 0x0 DUP4 ADD CALLDATALOAD PUSH8 0xFFFFFFFFFFFFFFFF DUP2 GT ISZERO PUSH2 0x312B JUMPI PUSH2 0x312A PUSH2 0x3D34 JUMP JUMPDEST JUMPDEST PUSH2 0x3137 DUP6 DUP3 DUP7 ADD PUSH2 0x2C0D JUMP JUMPDEST SWAP3 POP POP PUSH1 0x20 PUSH2 0x3148 DUP6 DUP3 DUP7 ADD PUSH2 0x2BF8 JUMP JUMPDEST SWAP2 POP POP SWAP3 POP SWAP3 SWAP1 POP JUMP JUMPDEST PUSH1 0x0 DUP1 PUSH1 0x40 DUP4 DUP6 SUB SLT ISZERO PUSH2 0x3169 JUMPI PUSH2 0x3168 PUSH2 0x3D39 JUMP JUMPDEST JUMPDEST PUSH1 0x0 DUP4 ADD CALLDATALOAD PUSH8 0xFFFFFFFFFFFFFFFF DUP2 GT ISZERO PUSH2 0x3187 JUMPI PUSH2 0x3186 PUSH2 0x3D34 JUMP JUMPDEST JUMPDEST PUSH2 0x3193 DUP6 DUP3 DUP7 ADD PUSH2 0x2C0D JUMP JUMPDEST SWAP3 POP POP PUSH1 0x20 DUP4 ADD CALLDATALOAD PUSH8 0xFFFFFFFFFFFFFFFF DUP2 GT ISZERO PUSH2 0x31B4 JUMPI PUSH2 0x31B3 PUSH2 0x3D34 JUMP JUMPDEST JUMPDEST PUSH2 0x31C0 DUP6 DUP3 DUP7 ADD PUSH2 0x2C0D JUMP JUMPDEST SWAP2 POP POP SWAP3 POP SWAP3 SWAP1 POP JUMP JUMPDEST PUSH1 0x0 DUP1 PUSH1 0x0 DUP1 PUSH1 0x80 DUP6 DUP8 SUB SLT ISZERO PUSH2 0x31E4 JUMPI PUSH2 0x31E3 PUSH2 0x3D39 JUMP JUMPDEST JUMPDEST PUSH1 0x0 DUP6 ADD CALLDATALOAD PUSH8 0xFFFFFFFFFFFFFFFF DUP2 GT ISZERO PUSH2 0x3202 JUMPI PUSH2 0x3201 PUSH2 0x3D34 JUMP JUMPDEST JUMPDEST PUSH2 0x320E DUP8 DUP3 DUP9 ADD PUSH2 0x2C0D JUMP JUMPDEST SWAP5 POP POP PUSH1 0x20 DUP6 ADD CALLDATALOAD PUSH8 0xFFFFFFFFFFFFFFFF DUP2 GT ISZERO PUSH2 0x322F JUMPI PUSH2 0x322E PUSH2 0x3D34 JUMP JUMPDEST JUMPDEST PUSH2 0x323B DUP8 DUP3 DUP9 ADD PUSH2 0x2C0D JUMP JUMPDEST SWAP4 POP POP PUSH1 0x40 DUP6 ADD CALLDATALOAD PUSH8 0xFFFFFFFFFFFFFFFF DUP2 GT ISZERO PUSH2 0x325C JUMPI PUSH2 0x325B PUSH2 0x3D34 JUMP JUMPDEST JUMPDEST PUSH2 0x3268 DUP8 DUP3 DUP9 ADD PUSH2 0x2C0D JUMP JUMPDEST SWAP3 POP POP PUSH1 0x60 PUSH2 0x3279 DUP8 DUP3 DUP9 ADD PUSH2 0x2BF8 JUMP JUMPDEST SWAP2 POP POP SWAP3 SWAP6 SWAP2 SWAP5 POP SWAP3 POP JUMP JUMPDEST PUSH1 0x0 PUSH2 0x3291 DUP4 DUP4 PUSH2 0x32B1 JUMP JUMPDEST PUSH1 0x20 DUP4 ADD SWAP1 POP SWAP3 SWAP2 POP POP JUMP JUMPDEST PUSH1 0x0 PUSH2 0x32A9 DUP4 DUP4 PUSH2 0x33B1 JUMP JUMPDEST SWAP1 POP SWAP3 SWAP2 POP POP JUMP JUMPDEST PUSH2 0x32BA DUP2 PUSH2 0x3B09 JUMP JUMPDEST DUP3 MSTORE POP POP JUMP JUMPDEST PUSH2 0x32C9 DUP2 PUSH2 0x3B09 JUMP JUMPDEST DUP3 MSTORE POP POP JUMP JUMPDEST PUSH1 0x0 PUSH2 0x32DA DUP3 PUSH2 0x39F5 JUMP JUMPDEST PUSH2 0x32E4 DUP2 DUP6 PUSH2 0x3A30 JUMP JUMPDEST SWAP4 POP PUSH2 0x32EF DUP4 PUSH2 0x39D5 JUMP JUMPDEST DUP1 PUSH1 0x0 JUMPDEST DUP4 DUP2 LT ISZERO PUSH2 0x3320 JUMPI DUP2 MLOAD PUSH2 0x3307 DUP9 DUP3 PUSH2 0x3285 JUMP JUMPDEST SWAP8 POP PUSH2 0x3312 DUP4 PUSH2 0x3A16 JUMP JUMPDEST SWAP3 POP POP PUSH1 0x1 DUP2 ADD SWAP1 POP PUSH2 0x32F3 JUMP JUMPDEST POP DUP6 SWAP4 POP POP POP POP SWAP3 SWAP2 POP POP JUMP JUMPDEST PUSH1 0x0 PUSH2 0x3338 DUP3 PUSH2 0x3A00 JUMP JUMPDEST PUSH2 0x3342 DUP2 DUP6 PUSH2 0x3A41 JUMP JUMPDEST SWAP4 POP DUP4 PUSH1 0x20 DUP3 MUL DUP6 ADD PUSH2 0x3354 DUP6 PUSH2 0x39E5 JUMP JUMPDEST DUP1 PUSH1 0x0 JUMPDEST DUP6 DUP2 LT ISZERO PUSH2 0x3390 JUMPI DUP5 DUP5 SUB DUP10 MSTORE DUP2 MLOAD PUSH2 0x3371 DUP6 DUP3 PUSH2 0x329D JUMP JUMPDEST SWAP5 POP PUSH2 0x337C DUP4 PUSH2 0x3A23 JUMP JUMPDEST SWAP3 POP PUSH1 0x20 DUP11 ADD SWAP10 POP POP PUSH1 0x1 DUP2 ADD SWAP1 POP PUSH2 0x3358 JUMP JUMPDEST POP DUP3 SWAP8 POP DUP8 SWAP6 POP POP POP POP POP POP SWAP3 SWAP2 POP POP JUMP JUMPDEST PUSH2 0x33AB DUP2 PUSH2 0x3B1B JUMP JUMPDEST DUP3 MSTORE POP POP JUMP JUMPDEST PUSH1 0x0 PUSH2 0x33BC DUP3 PUSH2 0x3A0B JUMP JUMPDEST PUSH2 0x33C6 DUP2 DUP6 PUSH2 0x3A52 JUMP JUMPDEST SWAP4 POP PUSH2 0x33D6 DUP2 DUP6 PUSH1 0x20 DUP7 ADD PUSH2 0x3B60 JUMP JUMPDEST PUSH2 0x33DF DUP2 PUSH2 0x3D3E JUMP JUMPDEST DUP5 ADD SWAP2 POP POP SWAP3 SWAP2 POP POP JUMP JUMPDEST PUSH1 0x0 PUSH2 0x33F5 DUP3 PUSH2 0x3A0B JUMP JUMPDEST PUSH2 0x33FF DUP2 DUP6 PUSH2 0x3A63 JUMP JUMPDEST SWAP4 POP PUSH2 0x340F DUP2 DUP6 PUSH1 0x20 DUP7 ADD PUSH2 0x3B60 JUMP JUMPDEST PUSH2 0x3418 DUP2 PUSH2 0x3D3E JUMP JUMPDEST DUP5 ADD SWAP2 POP POP SWAP3 SWAP2 POP POP JUMP JUMPDEST PUSH1 0x0 PUSH2 0x342E DUP3 PUSH2 0x3A0B JUMP JUMPDEST PUSH2 0x3438 DUP2 DUP6 PUSH2 0x3A74 JUMP JUMPDEST SWAP4 POP PUSH2 0x3448 DUP2 DUP6 PUSH1 0x20 DUP7 ADD PUSH2 0x3B60 JUMP JUMPDEST DUP1 DUP5 ADD SWAP2 POP POP SWAP3 SWAP2 POP POP JUMP JUMPDEST PUSH1 0x0 PUSH2 0x3461 PUSH1 0xC DUP4 PUSH2 0x3A63 JUMP JUMPDEST SWAP2 POP PUSH2 0x346C DUP3 PUSH2 0x3D4F JUMP JUMPDEST PUSH1 0x20 DUP3 ADD SWAP1 POP SWAP2 SWAP1 POP JUMP JUMPDEST PUSH1 0x0 PUSH2 0x3484 PUSH1 0xE DUP4 PUSH2 0x3A63 JUMP JUMPDEST SWAP2 POP PUSH2 0x348F DUP3 PUSH2 0x3D78 JUMP JUMPDEST PUSH1 0x20 DUP3 ADD SWAP1 POP SWAP2 SWAP1 POP JUMP JUMPDEST PUSH1 0x0 PUSH2 0x34A7 PUSH1 0x13 DUP4 PUSH2 0x3A63 JUMP JUMPDEST SWAP2 POP PUSH2 0x34B2 DUP3 PUSH2 0x3DA1 JUMP JUMPDEST PUSH1 0x20 DUP3 ADD SWAP1 POP SWAP2 SWAP1 POP JUMP JUMPDEST PUSH1 0x0 PUSH2 0x34CA PUSH1 0x11 DUP4 PUSH2 0x3A63 JUMP JUMPDEST SWAP2 POP PUSH2 0x34D5 DUP3 PUSH2 0x3DCA JUMP JUMPDEST PUSH1 0x20 DUP3 ADD SWAP1 POP SWAP2 SWAP1 POP JUMP JUMPDEST PUSH1 0x0 PUSH2 0x34ED PUSH1 0x15 DUP4 PUSH2 0x3A63 JUMP JUMPDEST SWAP2 POP PUSH2 0x34F8 DUP3 PUSH2 0x3DF3 JUMP JUMPDEST PUSH1 0x20 DUP3 ADD SWAP1 POP SWAP2 SWAP1 POP JUMP JUMPDEST PUSH1 0x0 PUSH2 0x3510 PUSH1 0x11 DUP4 PUSH2 0x3A63 JUMP JUMPDEST SWAP2 POP PUSH2 0x351B DUP3 PUSH2 0x3E1C JUMP JUMPDEST PUSH1 0x20 DUP3 ADD SWAP1 POP SWAP2 SWAP1 POP JUMP JUMPDEST PUSH1 0x0 PUSH1 0xA0 DUP4 ADD PUSH1 0x0 DUP4 ADD MLOAD DUP5 DUP3 SUB PUSH1 0x0 DUP7 ADD MSTORE PUSH2 0x3543 DUP3 DUP3 PUSH2 0x33B1 JUMP JUMPDEST SWAP2 POP POP PUSH1 0x20 DUP4 ADD MLOAD DUP5 DUP3 SUB PUSH1 0x20 DUP7 ADD MSTORE PUSH2 0x355D DUP3 DUP3 PUSH2 0x33B1 JUMP JUMPDEST SWAP2 POP POP PUSH1 0x40 DUP4 ADD MLOAD PUSH2 0x3572 PUSH1 0x40 DUP7 ADD DUP3 PUSH2 0x362E JUMP JUMPDEST POP PUSH1 0x60 DUP4 ADD MLOAD PUSH2 0x3585 PUSH1 0x60 DUP7 ADD DUP3 PUSH2 0x362E JUMP JUMPDEST POP PUSH1 0x80 DUP4 ADD MLOAD PUSH2 0x3598 PUSH1 0x80 DUP7 ADD DUP3 PUSH2 0x362E JUMP JUMPDEST POP DUP1 SWAP2 POP POP SWAP3 SWAP2 POP POP JUMP JUMPDEST PUSH1 0x0 PUSH1 0xA0 DUP4 ADD PUSH1 0x0 DUP4 ADD MLOAD PUSH2 0x35BB PUSH1 0x0 DUP7 ADD DUP3 PUSH2 0x32B1 JUMP JUMPDEST POP PUSH1 0x20 DUP4 ADD MLOAD DUP5 DUP3 SUB PUSH1 0x20 DUP7 ADD MSTORE PUSH2 0x35D3 DUP3 DUP3 PUSH2 0x33B1 JUMP JUMPDEST SWAP2 POP POP PUSH1 0x40 DUP4 ADD MLOAD DUP5 DUP3 SUB PUSH1 0x40 DUP7 ADD MSTORE PUSH2 0x35ED DUP3 DUP3 PUSH2 0x33B1 JUMP JUMPDEST SWAP2 POP POP PUSH1 0x60 DUP4 ADD MLOAD DUP5 DUP3 SUB PUSH1 0x60 DUP7 ADD MSTORE PUSH2 0x3607 DUP3 DUP3 PUSH2 0x33B1 JUMP JUMPDEST SWAP2 POP POP PUSH1 0x80 DUP4 ADD MLOAD DUP5 DUP3 SUB PUSH1 0x80 DUP7 ADD MSTORE PUSH2 0x3621 DUP3 DUP3 PUSH2 0x33B1 JUMP JUMPDEST SWAP2 POP POP DUP1 SWAP2 POP POP SWAP3 SWAP2 POP POP JUMP JUMPDEST PUSH2 0x3637 DUP2 PUSH2 0x3B47 JUMP JUMPDEST DUP3 MSTORE POP POP JUMP JUMPDEST PUSH2 0x3646 DUP2 PUSH2 0x3B47 JUMP JUMPDEST DUP3 MSTORE POP POP JUMP JUMPDEST PUSH1 0x0 PUSH2 0x3658 DUP3 DUP5 PUSH2 0x3423 JUMP JUMPDEST SWAP2 POP DUP2 SWAP1 POP SWAP3 SWAP2 POP POP JUMP JUMPDEST PUSH1 0x0 PUSH1 0x20 DUP3 ADD SWAP1 POP PUSH2 0x3678 PUSH1 0x0 DUP4 ADD DUP5 PUSH2 0x32C0 JUMP JUMPDEST SWAP3 SWAP2 POP POP JUMP JUMPDEST PUSH1 0x0 PUSH1 0xA0 DUP3 ADD SWAP1 POP PUSH2 0x3693 PUSH1 0x0 DUP4 ADD DUP9 PUSH2 0x32C0 JUMP JUMPDEST DUP2 DUP2 SUB PUSH1 0x20 DUP4 ADD MSTORE PUSH2 0x36A5 DUP2 DUP8 PUSH2 0x33EA JUMP JUMPDEST SWAP1 POP DUP2 DUP2 SUB PUSH1 0x40 DUP4 ADD MSTORE PUSH2 0x36B9 DUP2 DUP7 PUSH2 0x33EA JUMP JUMPDEST SWAP1 POP DUP2 DUP2 SUB PUSH1 0x60 DUP4 ADD MSTORE PUSH2 0x36CD DUP2 DUP6 PUSH2 0x33EA JUMP JUMPDEST SWAP1 POP DUP2 DUP2 SUB PUSH1 0x80 DUP4 ADD MSTORE PUSH2 0x36E1 DUP2 DUP5 PUSH2 0x33EA JUMP JUMPDEST SWAP1 POP SWAP7 SWAP6 POP POP POP POP POP POP JUMP JUMPDEST PUSH1 0x0 PUSH1 0x20 DUP3 ADD SWAP1 POP DUP2 DUP2 SUB PUSH1 0x0 DUP4 ADD MSTORE PUSH2 0x3707 DUP2 DUP5 PUSH2 0x32CF JUMP JUMPDEST SWAP1 POP SWAP3 SWAP2 POP POP JUMP JUMPDEST PUSH1 0x0 PUSH1 0x20 DUP3 ADD SWAP1 POP DUP2 DUP2 SUB PUSH1 0x0 DUP4 ADD MSTORE PUSH2 0x3729 DUP2 DUP5 PUSH2 0x332D JUMP JUMPDEST SWAP1 POP SWAP3 SWAP2 POP POP JUMP JUMPDEST PUSH1 0x0 PUSH1 0x20 DUP3 ADD SWAP1 POP PUSH2 0x3746 PUSH1 0x0 DUP4 ADD DUP5 PUSH2 0x33A2 JUMP JUMPDEST SWAP3 SWAP2 POP POP JUMP JUMPDEST PUSH1 0x0 PUSH1 0x20 DUP3 ADD SWAP1 POP DUP2 DUP2 SUB PUSH1 0x0 DUP4 ADD MSTORE PUSH2 0x3766 DUP2 DUP5 PUSH2 0x33EA JUMP JUMPDEST SWAP1 POP SWAP3 SWAP2 POP POP JUMP JUMPDEST PUSH1 0x0 PUSH1 0x40 DUP3 ADD SWAP1 POP DUP2 DUP2 SUB PUSH1 0x0 DUP4 ADD MSTORE PUSH2 0x3788 DUP2 DUP6 PUSH2 0x33EA JUMP JUMPDEST SWAP1 POP DUP2 DUP2 SUB PUSH1 0x20 DUP4 ADD MSTORE PUSH2 0x379C DUP2 DUP5 PUSH2 0x33EA JUMP JUMPDEST SWAP1 POP SWAP4 SWAP3 POP POP POP JUMP JUMPDEST PUSH1 0x0 PUSH1 0x80 DUP3 ADD SWAP1 POP DUP2 DUP2 SUB PUSH1 0x0 DUP4 ADD MSTORE PUSH2 0x37BF DUP2 DUP8 PUSH2 0x33EA JUMP JUMPDEST SWAP1 POP DUP2 DUP2 SUB PUSH1 0x20 DUP4 ADD MSTORE PUSH2 0x37D3 DUP2 DUP7 PUSH2 0x33EA JUMP JUMPDEST SWAP1 POP DUP2 DUP2 SUB PUSH1 0x40 DUP4 ADD MSTORE PUSH2 0x37E7 DUP2 DUP6 PUSH2 0x33EA JUMP JUMPDEST SWAP1 POP PUSH2 0x37F6 PUSH1 0x60 DUP4 ADD DUP5 PUSH2 0x33A2 JUMP JUMPDEST SWAP6 SWAP5 POP POP POP POP POP JUMP JUMPDEST PUSH1 0x0 PUSH1 0xA0 DUP3 ADD SWAP1 POP DUP2 DUP2 SUB PUSH1 0x0 DUP4 ADD MSTORE PUSH2 0x3819 DUP2 DUP9 PUSH2 0x33EA JUMP JUMPDEST SWAP1 POP DUP2 DUP2 SUB PUSH1 0x20 DUP4 ADD MSTORE PUSH2 0x382D DUP2 DUP8 PUSH2 0x33EA JUMP JUMPDEST SWAP1 POP PUSH2 0x383C PUSH1 0x40 DUP4 ADD DUP7 PUSH2 0x363D JUMP JUMPDEST PUSH2 0x3849 PUSH1 0x60 DUP4 ADD DUP6 PUSH2 0x363D JUMP JUMPDEST PUSH2 0x3856 PUSH1 0x80 DUP4 ADD DUP5 PUSH2 0x363D JUMP JUMPDEST SWAP7 SWAP6 POP POP POP POP POP POP JUMP JUMPDEST PUSH1 0x0 PUSH1 0x20 DUP3 ADD SWAP1 POP DUP2 DUP2 SUB PUSH1 0x0 DUP4 ADD MSTORE PUSH2 0x3879 DUP2 PUSH2 0x3454 JUMP JUMPDEST SWAP1 POP SWAP2 SWAP1 POP JUMP JUMPDEST PUSH1 0x0 PUSH1 0x20 DUP3 ADD SWAP1 POP DUP2 DUP2 SUB PUSH1 0x0 DUP4 ADD MSTORE PUSH2 0x3899 DUP2 PUSH2 0x3477 JUMP JUMPDEST SWAP1 POP SWAP2 SWAP1 POP JUMP JUMPDEST PUSH1 0x0 PUSH1 0x20 DUP3 ADD SWAP1 POP DUP2 DUP2 SUB PUSH1 0x0 DUP4 ADD MSTORE PUSH2 0x38B9 DUP2 PUSH2 0x349A JUMP JUMPDEST SWAP1 POP SWAP2 SWAP1 POP JUMP JUMPDEST PUSH1 0x0 PUSH1 0x20 DUP3 ADD SWAP1 POP DUP2 DUP2 SUB PUSH1 0x0 DUP4 ADD MSTORE PUSH2 0x38D9 DUP2 PUSH2 0x34BD JUMP JUMPDEST SWAP1 POP SWAP2 SWAP1 POP JUMP JUMPDEST PUSH1 0x0 PUSH1 0x20 DUP3 ADD SWAP1 POP DUP2 DUP2 SUB PUSH1 0x0 DUP4 ADD MSTORE PUSH2 0x38F9 DUP2 PUSH2 0x34E0 JUMP JUMPDEST SWAP1 POP SWAP2 SWAP1 POP JUMP JUMPDEST PUSH1 0x0 PUSH1 0x20 DUP3 ADD SWAP1 POP DUP2 DUP2 SUB PUSH1 0x0 DUP4 ADD MSTORE PUSH2 0x3919 DUP2 PUSH2 0x3503 JUMP JUMPDEST SWAP1 POP SWAP2 SWAP1 POP JUMP JUMPDEST PUSH1 0x0 PUSH1 0x20 DUP3 ADD SWAP1 POP DUP2 DUP2 SUB PUSH1 0x0 DUP4 ADD MSTORE PUSH2 0x393A DUP2 DUP5 PUSH2 0x3526 JUMP JUMPDEST SWAP1 POP SWAP3 SWAP2 POP POP JUMP JUMPDEST PUSH1 0x0 PUSH1 0x20 DUP3 ADD SWAP1 POP DUP2 DUP2 SUB PUSH1 0x0 DUP4 ADD MSTORE PUSH2 0x395C DUP2 DUP5 PUSH2 0x35A3 JUMP JUMPDEST SWAP1 POP SWAP3 SWAP2 POP POP JUMP JUMPDEST PUSH1 0x0 PUSH1 0x20 DUP3 ADD SWAP1 POP PUSH2 0x3979 PUSH1 0x0 DUP4 ADD DUP5 PUSH2 0x363D JUMP JUMPDEST SWAP3 SWAP2 POP POP JUMP JUMPDEST PUSH1 0x0 PUSH2 0x3989 PUSH2 0x399A JUMP JUMPDEST SWAP1 POP PUSH2 0x3995 DUP3 DUP3 PUSH2 0x3BC5 JUMP JUMPDEST SWAP2 SWAP1 POP JUMP JUMPDEST PUSH1 0x0 PUSH1 0x40 MLOAD SWAP1 POP SWAP1 JUMP JUMPDEST PUSH1 0x0 PUSH8 0xFFFFFFFFFFFFFFFF DUP3 GT ISZERO PUSH2 0x39BF JUMPI PUSH2 0x39BE PUSH2 0x3CFB JUMP JUMPDEST JUMPDEST PUSH2 0x39C8 DUP3 PUSH2 0x3D3E JUMP JUMPDEST SWAP1 POP PUSH1 0x20 DUP2 ADD SWAP1 POP SWAP2 SWAP1 POP JUMP JUMPDEST PUSH1 0x0 DUP2 SWAP1 POP PUSH1 0x20 DUP3 ADD SWAP1 POP SWAP2 SWAP1 POP JUMP JUMPDEST PUSH1 0x0 DUP2 SWAP1 POP PUSH1 0x20 DUP3 ADD SWAP1 POP SWAP2 SWAP1 POP JUMP JUMPDEST PUSH1 0x0 DUP2 MLOAD SWAP1 POP SWAP2 SWAP1 POP JUMP JUMPDEST PUSH1 0x0 DUP2 MLOAD SWAP1 POP SWAP2 SWAP1 POP JUMP JUMPDEST PUSH1 0x0 DUP2 MLOAD SWAP1 POP SWAP2 SWAP1 POP JUMP JUMPDEST PUSH1 0x0 PUSH1 0x20 DUP3 ADD SWAP1 POP SWAP2 SWAP1 POP JUMP JUMPDEST PUSH1 0x0 PUSH1 0x20 DUP3 ADD SWAP1 POP SWAP2 SWAP1 POP JUMP JUMPDEST PUSH1 0x0 DUP3 DUP3 MSTORE PUSH1 0x20 DUP3 ADD SWAP1 POP SWAP3 SWAP2 POP POP JUMP JUMPDEST PUSH1 0x0 DUP3 DUP3 MSTORE PUSH1 0x20 DUP3 ADD SWAP1 POP SWAP3 SWAP2 POP POP JUMP JUMPDEST PUSH1 0x0 DUP3 DUP3 MSTORE PUSH1 0x20 DUP3 ADD SWAP1 POP SWAP3 SWAP2 POP POP JUMP JUMPDEST PUSH1 0x0 DUP3 DUP3 MSTORE PUSH1 0x20 DUP3 ADD SWAP1 POP SWAP3 SWAP2 POP POP JUMP JUMPDEST PUSH1 0x0 DUP2 SWAP1 POP SWAP3 SWAP2 POP POP JUMP JUMPDEST PUSH1 0x0 PUSH2 0x3A8A DUP3 PUSH2 0x3B47 JUMP JUMPDEST SWAP2 POP PUSH2 0x3A95 DUP4 PUSH2 0x3B47 JUMP JUMPDEST SWAP3 POP DUP3 PUSH32 0xFFFFFFFFFFFFFFFFFFFFFFFFFFFFFFFFFFFFFFFFFFFFFFFFFFFFFFFFFFFFFFFF SUB DUP3 GT ISZERO PUSH2 0x3ACA JUMPI PUSH2 0x3AC9 PUSH2 0x3C3F JUMP JUMPDEST JUMPDEST DUP3 DUP3 ADD SWAP1 POP SWAP3 SWAP2 POP POP JUMP JUMPDEST PUSH1 0x0 PUSH2 0x3AE0 DUP3 PUSH2 0x3B47 JUMP JUMPDEST SWAP2 POP PUSH2 0x3AEB DUP4 PUSH2 0x3B47 JUMP JUMPDEST SWAP3 POP DUP3 DUP3 LT ISZERO PUSH2 0x3AFE JUMPI PUSH2 0x3AFD PUSH2 0x3C3F JUMP JUMPDEST JUMPDEST DUP3 DUP3 SUB SWAP1 POP SWAP3 SWAP2 POP POP JUMP JUMPDEST PUSH1 0x0 PUSH2 0x3B14 DUP3 PUSH2 0x3B27 JUMP JUMPDEST SWAP1 POP SWAP2 SWAP1 POP JUMP JUMPDEST PUSH1 0x0 DUP2 ISZERO ISZERO SWAP1 POP SWAP2 SWAP1 POP JUMP JUMPDEST PUSH1 0x0 PUSH20 0xFFFFFFFFFFFFFFFFFFFFFFFFFFFFFFFFFFFFFFFF DUP3 AND SWAP1 POP SWAP2 SWAP1 POP JUMP JUMPDEST PUSH1 0x0 DUP2 SWAP1 POP SWAP2 SWAP1 POP JUMP JUMPDEST DUP3 DUP2 DUP4 CALLDATACOPY PUSH1 0x0 DUP4 DUP4 ADD MSTORE POP POP POP JUMP JUMPDEST PUSH1 0x0 JUMPDEST DUP4 DUP2 LT ISZERO PUSH2 0x3B7E JUMPI DUP1 DUP3 ADD MLOAD DUP2 DUP5 ADD MSTORE PUSH1 0x20 DUP2 ADD SWAP1 POP PUSH2 0x3B63 JUMP JUMPDEST DUP4 DUP2 GT ISZERO PUSH2 0x3B8D JUMPI PUSH1 0x0 DUP5 DUP5 ADD MSTORE JUMPDEST POP POP POP POP JUMP JUMPDEST PUSH1 0x0 PUSH1 0x2 DUP3 DIV SWAP1 POP PUSH1 0x1 DUP3 AND DUP1 PUSH2 0x3BAB JUMPI PUSH1 0x7F DUP3 AND SWAP2 POP JUMPDEST PUSH1 0x20 DUP3 LT DUP2 EQ ISZERO PUSH2 0x3BBF JUMPI PUSH2 0x3BBE PUSH2 0x3C6E JUMP JUMPDEST JUMPDEST POP SWAP2 SWAP1 POP JUMP JUMPDEST PUSH2 0x3BCE DUP3 PUSH2 0x3D3E JUMP JUMPDEST DUP2 ADD DUP2 DUP2 LT PUSH8 0xFFFFFFFFFFFFFFFF DUP3 GT OR ISZERO PUSH2 0x3BED JUMPI PUSH2 0x3BEC PUSH2 0x3CFB JUMP JUMPDEST JUMPDEST DUP1 PUSH1 0x40 MSTORE POP POP POP JUMP JUMPDEST PUSH1 0x0 PUSH2 0x3C01 DUP3 PUSH2 0x3B47 JUMP JUMPDEST SWAP2 POP PUSH32 0xFFFFFFFFFFFFFFFFFFFFFFFFFFFFFFFFFFFFFFFFFFFFFFFFFFFFFFFFFFFFFFFF DUP3 EQ ISZERO PUSH2 0x3C34 JUMPI PUSH2 0x3C33 PUSH2 0x3C3F JUMP JUMPDEST JUMPDEST PUSH1 0x1 DUP3 ADD SWAP1 POP SWAP2 SWAP1 POP JUMP JUMPDEST PUSH32 0x4E487B7100000000000000000000000000000000000000000000000000000000 PUSH1 0x0 MSTORE PUSH1 0x11 PUSH1 0x4 MSTORE PUSH1 0x24 PUSH1 0x0 REVERT JUMPDEST PUSH32 0x4E487B7100000000000000000000000000000000000000000000000000000000 PUSH1 0x0 MSTORE PUSH1 0x22 PUSH1 0x4 MSTORE PUSH1 0x24 PUSH1 0x0 REVERT JUMPDEST PUSH32 0x4E487B7100000000000000000000000000000000000000000000000000000000 PUSH1 0x0 MSTORE PUSH1 0x31 PUSH1 0x4 MSTORE PUSH1 0x24 PUSH1 0x0 REVERT JUMPDEST PUSH32 0x4E487B7100000000000000000000000000000000000000000000000000000000 PUSH1 0x0 MSTORE PUSH1 0x32 PUSH1 0x4 MSTORE PUSH1 0x24 PUSH1 0x0 REVERT JUMPDEST PUSH32 0x4E487B7100000000000000000000000000000000000000000000000000000000 PUSH1 0x0 MSTORE PUSH1 0x41 PUSH1 0x4 MSTORE PUSH1 0x24 PUSH1 0x0 REVERT JUMPDEST PUSH1 0x0 DUP1 REVERT JUMPDEST PUSH1 0x0 DUP1 REVERT JUMPDEST PUSH1 0x0 DUP1 REVERT JUMPDEST PUSH1 0x0 DUP1 REVERT JUMPDEST PUSH1 0x0 PUSH1 0x1F NOT PUSH1 0x1F DUP4 ADD AND SWAP1 POP SWAP2 SWAP1 POP JUMP JUMPDEST PUSH32 0x596F75206E6F742062616E6B0000000000000000000000000000000000000000 PUSH1 0x0 DUP3 ADD MSTORE POP JUMP JUMPDEST PUSH32 0x57726F6E672070617373776F7264000000000000000000000000000000000000 PUSH1 0x0 DUP3 ADD MSTORE POP JUMP JUMPDEST PUSH32 0x4C6F67696E20616C726561647920657869737400000000000000000000000000 PUSH1 0x0 DUP3 ADD MSTORE POP JUMP JUMPDEST PUSH32 0x53686F7020646F65736E74206578697374000000000000000000000000000000 PUSH1 0x0 DUP3 ADD MSTORE POP JUMP JUMPDEST PUSH32 0x596F7520616C726561647920646F20616374696F6E0000000000000000000000 PUSH1 0x0 DUP3 ADD MSTORE POP JUMP JUMPDEST PUSH32 0x5573657220646F65736E74206578697374000000000000000000000000000000 PUSH1 0x0 DUP3 ADD MSTORE POP JUMP JUMPDEST PUSH2 0x3E4E DUP2 PUSH2 0x3B09 JUMP JUMPDEST DUP2 EQ PUSH2 0x3E59 JUMPI PUSH1 0x0 DUP1 REVERT JUMPDEST POP JUMP JUMPDEST PUSH2 0x3E65 DUP2 PUSH2 0x3B1B JUMP JUMPDEST DUP2 EQ PUSH2 0x3E70 JUMPI PUSH1 0x0 DUP1 REVERT JUMPDEST POP JUMP JUMPDEST PUSH2 0x3E7C DUP2 PUSH2 0x3B47 JUMP JUMPDEST DUP2 EQ PUSH2 0x3E87 JUMPI PUSH1 0x0 DUP1 REVERT JUMPDEST POP JUMP INVALID LOG2 PUSH5 0x6970667358 0x22 SLT KECCAK256 0x2F SLT ADDMOD PUSH23 0x7A7FD681A0277493460AF5D8AE01CA8A2B0F4C920439F2 0xAB CALL PUSH18 0xCFA964736F6C634300080700330000000000 "
				},
				"gasEstimates": {
					"creation": {
						"codeDepositCost": "3212800",
						"executionCost": "infinite",
						"totalCost": "infinite"
					},
					"external": {
						"add_shop(address,string,string)": "infinite",
						"auth(string,string)": "infinite",
						"bank()": "2625",
						"check_request(string,bool)": "infinite",
						"create_request(string,string,string,bool)": "infinite",
						"create_review(address,string,string,uint256,uint256,uint256)": "infinite",
						"delete_shop(address)": "infinite",
						"dislike_review(address,string)": "infinite",
						"get_admins()": "infinite",
						"get_requests()": "infinite",
						"get_shops()": "infinite",
						"get_user_review(address,string)": "infinite",
						"give_shop_money(address)": "infinite",
						"like_review(address,string)": "infinite",
						"register_admin(address,string,string,string,string)": "infinite",
						"register_buyer(address,string,string,string,string)": "infinite",
						"register_seller(address,string,string,string,string,address)": "infinite",
						"shopDebts(address)": "2881",
						"shopSellers(address,uint256)": "infinite",
						"shops(address)": "infinite",
						"shopsReviews(address,uint256)": "infinite",
						"userActions(address,string)": "infinite",
						"userRequest(string)": "infinite",
						"userReviews(string,address)": "infinite",
						"users(string)": "infinite"
					},
					"internal": {
						"compare(string memory,string memory)": "infinite"
					}
				},
				"methodIdentifiers": {
					"add_shop(address,string,string)": "e51679f4",
					"auth(string,string)": "48eed213",
					"bank()": "76cdb03b",
					"check_request(string,bool)": "95386d3d",
					"create_request(string,string,string,bool)": "e930267f",
					"create_review(address,string,string,uint256,uint256,uint256)": "ee86e3c0",
					"delete_shop(address)": "56f11e03",
					"dislike_review(address,string)": "9dfc3a20",
					"get_admins()": "8794b69d",
					"get_requests()": "455bfbf2",
					"get_shops()": "999d1f85",
					"get_user_review(address,string)": "23e92804",
					"give_shop_money(address)": "7fdbe231",
					"like_review(address,string)": "1f5b32ca",
					"register_admin(address,string,string,string,string)": "35349b20",
					"register_buyer(address,string,string,string,string)": "63df1969",
					"register_seller(address,string,string,string,string,address)": "f2c6f34c",
					"shopDebts(address)": "debd53b0",
					"shopSellers(address,uint256)": "7a28f144",
					"shops(address)": "2dca1fcc",
					"shopsReviews(address,uint256)": "5eaf1bd2",
					"userActions(address,string)": "ba37d000",
					"userRequest(string)": "e37332ba",
					"userReviews(string,address)": "9ee80ed5",
					"users(string)": "689e1c03"
				}
			},
			"storageLayout": {
				"storage": [
					{
						"astId": 40,
						"contract": "contracts/Database.sol:Database",
						"label": "admins",
						"offset": 0,
						"slot": "0",
						"type": "t_array(t_string_storage)dyn_storage"
					},
					{
						"astId": 43,
						"contract": "contracts/Database.sol:Database",
						"label": "shopsAddr",
						"offset": 0,
						"slot": "1",
						"type": "t_array(t_address)dyn_storage"
					},
					{
						"astId": 45,
						"contract": "contracts/Database.sol:Database",
						"label": "bank",
						"offset": 0,
						"slot": "2",
						"type": "t_address"
					},
					{
						"astId": 50,
						"contract": "contracts/Database.sol:Database",
						"label": "users",
						"offset": 0,
						"slot": "3",
						"type": "t_mapping(t_string_memory_ptr,t_struct(User)12_storage)"
					},
					{
						"astId": 55,
						"contract": "contracts/Database.sol:Database",
						"label": "userRequest",
						"offset": 0,
						"slot": "4",
						"type": "t_mapping(t_string_memory_ptr,t_struct(Request)37_storage)"
					},
					{
						"astId": 58,
						"contract": "contracts/Database.sol:Database",
						"label": "userRequestList",
						"offset": 0,
						"slot": "5",
						"type": "t_array(t_string_storage)dyn_storage"
					},
					{
						"astId": 62,
						"contract": "contracts/Database.sol:Database",
						"label": "shopDebts",
						"offset": 0,
						"slot": "6",
						"type": "t_mapping(t_address,t_uint256)"
					},
					{
						"astId": 67,
						"contract": "contracts/Database.sol:Database",
						"label": "shopSellers",
						"offset": 0,
						"slot": "7",
						"type": "t_mapping(t_address,t_array(t_string_storage)dyn_storage)"
					},
					{
						"astId": 72,
						"contract": "contracts/Database.sol:Database",
						"label": "shops",
						"offset": 0,
						"slot": "8",
						"type": "t_mapping(t_address,t_struct(Shop)17_storage)"
					},
					{
						"astId": 77,
						"contract": "contracts/Database.sol:Database",
						"label": "shopsReviews",
						"offset": 0,
						"slot": "9",
						"type": "t_mapping(t_address,t_array(t_string_storage)dyn_storage)"
					},
					{
						"astId": 84,
						"contract": "contracts/Database.sol:Database",
						"label": "userReviews",
						"offset": 0,
						"slot": "10",
						"type": "t_mapping(t_string_memory_ptr,t_mapping(t_address,t_struct(Review)28_storage))"
					},
					{
						"astId": 90,
						"contract": "contracts/Database.sol:Database",
						"label": "userActions",
						"offset": 0,
						"slot": "11",
						"type": "t_mapping(t_address,t_mapping(t_string_memory_ptr,t_bool))"
					}
				],
				"types": {
					"t_address": {
						"encoding": "inplace",
						"label": "address",
						"numberOfBytes": "20"
					},
					"t_array(t_address)dyn_storage": {
						"base": "t_address",
						"encoding": "dynamic_array",
						"label": "address[]",
						"numberOfBytes": "32"
					},
					"t_array(t_string_storage)dyn_storage": {
						"base": "t_string_storage",
						"encoding": "dynamic_array",
						"label": "string[]",
						"numberOfBytes": "32"
					},
					"t_bool": {
						"encoding": "inplace",
						"label": "bool",
						"numberOfBytes": "1"
					},
					"t_mapping(t_address,t_array(t_string_storage)dyn_storage)": {
						"encoding": "mapping",
						"key": "t_address",
						"label": "mapping(address => string[])",
						"numberOfBytes": "32",
						"value": "t_array(t_string_storage)dyn_storage"
					},
					"t_mapping(t_address,t_mapping(t_string_memory_ptr,t_bool))": {
						"encoding": "mapping",
						"key": "t_address",
						"label": "mapping(address => mapping(string => bool))",
						"numberOfBytes": "32",
						"value": "t_mapping(t_string_memory_ptr,t_bool)"
					},
					"t_mapping(t_address,t_struct(Review)28_storage)": {
						"encoding": "mapping",
						"key": "t_address",
						"label": "mapping(address => struct Review)",
						"numberOfBytes": "32",
						"value": "t_struct(Review)28_storage"
					},
					"t_mapping(t_address,t_struct(Shop)17_storage)": {
						"encoding": "mapping",
						"key": "t_address",
						"label": "mapping(address => struct Shop)",
						"numberOfBytes": "32",
						"value": "t_struct(Shop)17_storage"
					},
					"t_mapping(t_address,t_uint256)": {
						"encoding": "mapping",
						"key": "t_address",
						"label": "mapping(address => uint256)",
						"numberOfBytes": "32",
						"value": "t_uint256"
					},
					"t_mapping(t_string_memory_ptr,t_bool)": {
						"encoding": "mapping",
						"key": "t_string_memory_ptr",
						"label": "mapping(string => bool)",
						"numberOfBytes": "32",
						"value": "t_bool"
					},
					"t_mapping(t_string_memory_ptr,t_mapping(t_address,t_struct(Review)28_storage))": {
						"encoding": "mapping",
						"key": "t_string_memory_ptr",
						"label": "mapping(string => mapping(address => struct Review))",
						"numberOfBytes": "32",
						"value": "t_mapping(t_address,t_struct(Review)28_storage)"
					},
					"t_mapping(t_string_memory_ptr,t_struct(Request)37_storage)": {
						"encoding": "mapping",
						"key": "t_string_memory_ptr",
						"label": "mapping(string => struct Request)",
						"numberOfBytes": "32",
						"value": "t_struct(Request)37_storage"
					},
					"t_mapping(t_string_memory_ptr,t_struct(User)12_storage)": {
						"encoding": "mapping",
						"key": "t_string_memory_ptr",
						"label": "mapping(string => struct User)",
						"numberOfBytes": "32",
						"value": "t_struct(User)12_storage"
					},
					"t_string_memory_ptr": {
						"encoding": "bytes",
						"label": "string",
						"numberOfBytes": "32"
					},
					"t_string_storage": {
						"encoding": "bytes",
						"label": "string",
						"numberOfBytes": "32"
					},
					"t_struct(Request)37_storage": {
						"encoding": "inplace",
						"label": "struct Request",
						"members": [
							{
								"astId": 30,
								"contract": "contracts/Database.sol:Database",
								"label": "autor",
								"offset": 0,
								"slot": "0",
								"type": "t_string_storage"
							},
							{
								"astId": 32,
								"contract": "contracts/Database.sol:Database",
								"label": "currentRole",
								"offset": 0,
								"slot": "1",
								"type": "t_string_storage"
							},
							{
								"astId": 34,
								"contract": "contracts/Database.sol:Database",
								"label": "desiredRole",
								"offset": 0,
								"slot": "2",
								"type": "t_string_storage"
							},
							{
								"astId": 36,
								"contract": "contracts/Database.sol:Database",
								"label": "checked",
								"offset": 0,
								"slot": "3",
								"type": "t_bool"
							}
						],
						"numberOfBytes": "128"
					},
					"t_struct(Review)28_storage": {
						"encoding": "inplace",
						"label": "struct Review",
						"members": [
							{
								"astId": 19,
								"contract": "contracts/Database.sol:Database",
								"label": "autorLogin",
								"offset": 0,
								"slot": "0",
								"type": "t_string_storage"
							},
							{
								"astId": 21,
								"contract": "contracts/Database.sol:Database",
								"label": "message",
								"offset": 0,
								"slot": "1",
								"type": "t_string_storage"
							},
							{
								"astId": 23,
								"contract": "contracts/Database.sol:Database",
								"label": "likes",
								"offset": 0,
								"slot": "2",
								"type": "t_uint256"
							},
							{
								"astId": 25,
								"contract": "contracts/Database.sol:Database",
								"label": "dislikes",
								"offset": 0,
								"slot": "3",
								"type": "t_uint256"
							},
							{
								"astId": 27,
								"contract": "contracts/Database.sol:Database",
								"label": "mark",
								"offset": 0,
								"slot": "4",
								"type": "t_uint256"
							}
						],
						"numberOfBytes": "160"
					},
					"t_struct(Shop)17_storage": {
						"encoding": "inplace",
						"label": "struct Shop",
						"members": [
							{
								"astId": 14,
								"contract": "contracts/Database.sol:Database",
								"label": "number",
								"offset": 0,
								"slot": "0",
								"type": "t_string_storage"
							},
							{
								"astId": 16,
								"contract": "contracts/Database.sol:Database",
								"label": "city",
								"offset": 0,
								"slot": "1",
								"type": "t_string_storage"
							}
						],
						"numberOfBytes": "64"
					},
					"t_struct(User)12_storage": {
						"encoding": "inplace",
						"label": "struct User",
						"members": [
							{
								"astId": 3,
								"contract": "contracts/Database.sol:Database",
								"label": "userAddr",
								"offset": 0,
								"slot": "0",
								"type": "t_address"
							},
							{
								"astId": 5,
								"contract": "contracts/Database.sol:Database",
								"label": "login",
								"offset": 0,
								"slot": "1",
								"type": "t_string_storage"
							},
							{
								"astId": 7,
								"contract": "contracts/Database.sol:Database",
								"label": "password",
								"offset": 0,
								"slot": "2",
								"type": "t_string_storage"
							},
							{
								"astId": 9,
								"contract": "contracts/Database.sol:Database",
								"label": "fio",
								"offset": 0,
								"slot": "3",
								"type": "t_string_storage"
							},
							{
								"astId": 11,
								"contract": "contracts/Database.sol:Database",
								"label": "status",
								"offset": 0,
								"slot": "4",
								"type": "t_string_storage"
							}
						],
						"numberOfBytes": "160"
					},
					"t_uint256": {
						"encoding": "inplace",
						"label": "uint256",
						"numberOfBytes": "32"
					}
				}
			},
			"userdoc": {
				"kind": "user",
				"methods": {},
				"version": 1
			}
		}
	}
}