{
	"contracts/Shops.sol": {
		"ShopsSystem": {
			"abi": [
				{
					"inputs": [],
					"stateMutability": "nonpayable",
					"type": "constructor"
				},
				{
					"inputs": [
						{
							"internalType": "string",
							"name": "id",
							"type": "string"
						}
					],
					"name": "checkRequest",
					"outputs": [],
					"stateMutability": "nonpayable",
					"type": "function"
				},
				{
					"inputs": [
						{
							"internalType": "address",
							"name": "shopAddr",
							"type": "address"
						},
						{
							"internalType": "string",
							"name": "userMessage",
							"type": "string"
						},
						{
							"internalType": "string",
							"name": "id",
							"type": "string"
						},
						{
							"internalType": "int256",
							"name": "grade",
							"type": "int256"
						}
					],
					"name": "createReview",
					"outputs": [],
					"stateMutability": "nonpayable",
					"type": "function"
				},
				{
					"inputs": [
						{
							"internalType": "string",
							"name": "id",
							"type": "string"
						}
					],
					"name": "disLikeReview",
					"outputs": [],
					"stateMutability": "nonpayable",
					"type": "function"
				},
				{
					"inputs": [
						{
							"internalType": "address payable",
							"name": "shopAddr",
							"type": "address"
						}
					],
					"name": "doShopDebt",
					"outputs": [],
					"stateMutability": "nonpayable",
					"type": "function"
				},
				{
					"inputs": [
						{
							"internalType": "string",
							"name": "id",
							"type": "string"
						}
					],
					"name": "downRequestToByer",
					"outputs": [],
					"stateMutability": "nonpayable",
					"type": "function"
				},
				{
					"inputs": [],
					"name": "getAdminInfo",
					"outputs": [
						{
							"internalType": "string",
							"name": "login",
							"type": "string"
						},
						{
							"components": [
								{
									"internalType": "address",
									"name": "userAddr",
									"type": "address"
								},
								{
									"internalType": "string",
									"name": "currentRole",
									"type": "string"
								},
								{
									"internalType": "string",
									"name": "desiredRole",
									"type": "string"
								},
								{
									"internalType": "bool",
									"name": "checked",
									"type": "bool"
								}
							],
							"internalType": "struct Request[]",
							"name": "userRequests",
							"type": "tuple[]"
						},
						{
							"internalType": "string[]",
							"name": "adminList",
							"type": "string[]"
						},
						{
							"internalType": "address[]",
							"name": "sellersAddr",
							"type": "address[]"
						}
					],
					"stateMutability": "view",
					"type": "function"
				},
				{
					"inputs": [],
					"name": "getBuyerInfo",
					"outputs": [
						{
							"internalType": "string",
							"name": "userLogin",
							"type": "string"
						},
						{
							"internalType": "string",
							"name": "fio",
							"type": "string"
						},
						{
							"internalType": "uint256",
							"name": "balance",
							"type": "uint256"
						},
						{
							"internalType": "string[]",
							"name": "reviews",
							"type": "string[]"
						}
					],
					"stateMutability": "view",
					"type": "function"
				},
				{
					"inputs": [
						{
							"internalType": "string",
							"name": "id",
							"type": "string"
						}
					],
					"name": "getRequestById",
					"outputs": [
						{
							"internalType": "address",
							"name": "userAddr",
							"type": "address"
						},
						{
							"internalType": "string",
							"name": "currentRole",
							"type": "string"
						},
						{
							"internalType": "string",
							"name": "desiredRole",
							"type": "string"
						}
					],
					"stateMutability": "view",
					"type": "function"
				},
				{
					"inputs": [
						{
							"internalType": "string",
							"name": "id",
							"type": "string"
						}
					],
					"name": "getReviewById",
					"outputs": [
						{
							"internalType": "address",
							"name": "autorAddr",
							"type": "address"
						},
						{
							"internalType": "address",
							"name": "shopAddr",
							"type": "address"
						},
						{
							"internalType": "string",
							"name": "reviewMessage",
							"type": "string"
						},
						{
							"internalType": "uint256",
							"name": "likeCount",
							"type": "uint256"
						},
						{
							"internalType": "uint256",
							"name": "disLikeCount",
							"type": "uint256"
						},
						{
							"internalType": "int256",
							"name": "grade",
							"type": "int256"
						}
					],
					"stateMutability": "view",
					"type": "function"
				},
				{
					"inputs": [],
					"name": "getSellerInfo",
					"outputs": [
						{
							"internalType": "string",
							"name": "sellerLogin",
							"type": "string"
						},
						{
							"internalType": "string",
							"name": "fio",
							"type": "string"
						},
						{
							"internalType": "string",
							"name": "city",
							"type": "string"
						},
						{
							"internalType": "string",
							"name": "shopNumber",
							"type": "string"
						},
						{
							"internalType": "string[]",
							"name": "reviews",
							"type": "string[]"
						}
					],
					"stateMutability": "view",
					"type": "function"
				},
				{
					"inputs": [
						{
							"internalType": "address",
							"name": "sellerAddr",
							"type": "address"
						}
					],
					"name": "getSellerInfoByAddr",
					"outputs": [
						{
							"internalType": "string",
							"name": "sellerLogin",
							"type": "string"
						},
						{
							"internalType": "string",
							"name": "fio",
							"type": "string"
						},
						{
							"internalType": "string",
							"name": "city",
							"type": "string"
						},
						{
							"internalType": "string",
							"name": "shopNumber",
							"type": "string"
						},
						{
							"internalType": "string[]",
							"name": "reviews",
							"type": "string[]"
						}
					],
					"stateMutability": "view",
					"type": "function"
				},
				{
					"inputs": [
						{
							"internalType": "string",
							"name": "id",
							"type": "string"
						}
					],
					"name": "likeReview",
					"outputs": [],
					"stateMutability": "nonpayable",
					"type": "function"
				},
				{
					"inputs": [
						{
							"internalType": "string",
							"name": "userLogin",
							"type": "string"
						}
					],
					"name": "login",
					"outputs": [
						{
							"internalType": "address",
							"name": "userAddress",
							"type": "address"
						},
						{
							"internalType": "string",
							"name": "status",
							"type": "string"
						}
					],
					"stateMutability": "view",
					"type": "function"
				},
				{
					"inputs": [
						{
							"internalType": "address",
							"name": "adminAddr",
							"type": "address"
						},
						{
							"internalType": "string",
							"name": "fio",
							"type": "string"
						},
						{
							"internalType": "string",
							"name": "userLogin",
							"type": "string"
						}
					],
					"name": "regAdmin",
					"outputs": [],
					"stateMutability": "nonpayable",
					"type": "function"
				},
				{
					"inputs": [
						{
							"internalType": "string",
							"name": "fio",
							"type": "string"
						},
						{
							"internalType": "string",
							"name": "userLogin",
							"type": "string"
						}
					],
					"name": "registerAdmin",
					"outputs": [],
					"stateMutability": "nonpayable",
					"type": "function"
				},
				{
					"inputs": [
						{
							"internalType": "string",
							"name": "bankLogin",
							"type": "string"
						},
						{
							"internalType": "address",
							"name": "bankAddr",
							"type": "address"
						}
					],
					"name": "registerBank",
					"outputs": [],
					"stateMutability": "nonpayable",
					"type": "function"
				},
				{
					"inputs": [
						{
							"internalType": "string",
							"name": "fio",
							"type": "string"
						},
						{
							"internalType": "string",
							"name": "userLogin",
							"type": "string"
						},
						{
							"internalType": "address",
							"name": "userAddr",
							"type": "address"
						}
					],
					"name": "registerBuyer",
					"outputs": [],
					"stateMutability": "nonpayable",
					"type": "function"
				},
				{
					"inputs": [
						{
							"internalType": "string",
							"name": "providerLogin",
							"type": "string"
						},
						{
							"internalType": "address",
							"name": "providerAddr",
							"type": "address"
						}
					],
					"name": "registerProvider",
					"outputs": [],
					"stateMutability": "nonpayable",
					"type": "function"
				},
				{
					"inputs": [
						{
							"internalType": "string",
							"name": "fio",
							"type": "string"
						},
						{
							"internalType": "string",
							"name": "userLogin",
							"type": "string"
						},
						{
							"internalType": "address",
							"name": "userAddress",
							"type": "address"
						},
						{
							"internalType": "address",
							"name": "shopAddr",
							"type": "address"
						}
					],
					"name": "registerSeller",
					"outputs": [],
					"stateMutability": "nonpayable",
					"type": "function"
				},
				{
					"inputs": [
						{
							"internalType": "address",
							"name": "shopAddr",
							"type": "address"
						},
						{
							"internalType": "string",
							"name": "number",
							"type": "string"
						},
						{
							"internalType": "string",
							"name": "city",
							"type": "string"
						},
						{
							"internalType": "string",
							"name": "shopLogin",
							"type": "string"
						}
					],
					"name": "registerShop",
					"outputs": [],
					"stateMutability": "nonpayable",
					"type": "function"
				},
				{
					"inputs": [
						{
							"internalType": "string",
							"name": "id",
							"type": "string"
						}
					],
					"name": "requestToSeller",
					"outputs": [],
					"stateMutability": "nonpayable",
					"type": "function"
				}
			],
			"devdoc": {
				"kind": "dev",
				"methods": {},
				"version": 1
			},
			"evm": {
				"assembly": "    /* \"contracts/Shops.sol\":269:8882  contract ShopsSystem is AuthService{... */\n  mstore(0x40, 0x80)\n    /* \"contracts/Shops.sol\":997:1045  constructor(){... */\n  callvalue\n  dup1\n  iszero\n  tag_1\n  jumpi\n  0x00\n  dup1\n  revert\ntag_1:\n  pop\n    /* \"contracts/AuthService.sol\":576:599  userStatus[0] = \"buyer\" */\n  mload(0x40)\n  dup1\n  0x40\n  add\n  0x40\n  mstore\n  dup1\n  0x05\n  dup2\n  mstore\n  0x20\n  add\n  0x6275796572000000000000000000000000000000000000000000000000000000\n  dup2\n  mstore\n  pop\n    /* \"contracts/AuthService.sol\":576:586  userStatus */\n  0x00\n    /* \"contracts/AuthService.sol\":576:589  userStatus[0] */\n  dup1\n    /* \"contracts/AuthService.sol\":587:588  0 */\n  dup1\n    /* \"contracts/AuthService.sol\":576:589  userStatus[0] */\n  dup2\n  mstore\n  0x20\n  add\n  swap1\n  dup2\n  mstore\n  0x20\n  add\n  0x00\n  keccak256\n    /* \"contracts/AuthService.sol\":576:599  userStatus[0] = \"buyer\" */\n  swap1\n  dup1\n  mload\n  swap1\n  0x20\n  add\n  swap1\n  tag_5\n  swap3\n  swap2\n  swap1\n  tag_6\n  jump\t// in\ntag_5:\n  pop\n    /* \"contracts/AuthService.sol\":609:633  userStatus[1] = \"seller\" */\n  mload(0x40)\n  dup1\n  0x40\n  add\n  0x40\n  mstore\n  dup1\n  0x06\n  dup2\n  mstore\n  0x20\n  add\n  0x73656c6c65720000000000000000000000000000000000000000000000000000\n  dup2\n  mstore\n  pop\n    /* \"contracts/AuthService.sol\":609:619  userStatus */\n  0x00\n    /* \"contracts/AuthService.sol\":609:622  userStatus[1] */\n  dup1\n    /* \"contracts/AuthService.sol\":620:621  1 */\n  0x01\n    /* \"contracts/AuthService.sol\":609:622  userStatus[1] */\n  dup2\n  mstore\n  0x20\n  add\n  swap1\n  dup2\n  mstore\n  0x20\n  add\n  0x00\n  keccak256\n    /* \"contracts/AuthService.sol\":609:633  userStatus[1] = \"seller\" */\n  swap1\n  dup1\n  mload\n  swap1\n  0x20\n  add\n  swap1\n  tag_7\n  swap3\n  swap2\n  swap1\n  tag_6\n  jump\t// in\ntag_7:\n  pop\n    /* \"contracts/AuthService.sol\":643:665  userStatus[2] = \"shop\" */\n  mload(0x40)\n  dup1\n  0x40\n  add\n  0x40\n  mstore\n  dup1\n  0x04\n  dup2\n  mstore\n  0x20\n  add\n  0x73686f7000000000000000000000000000000000000000000000000000000000\n  dup2\n  mstore\n  pop\n    /* \"contracts/AuthService.sol\":643:653  userStatus */\n  0x00\n    /* \"contracts/AuthService.sol\":643:656  userStatus[2] */\n  dup1\n    /* \"contracts/AuthService.sol\":654:655  2 */\n  0x02\n    /* \"contracts/AuthService.sol\":643:656  userStatus[2] */\n  dup2\n  mstore\n  0x20\n  add\n  swap1\n  dup2\n  mstore\n  0x20\n  add\n  0x00\n  keccak256\n    /* \"contracts/AuthService.sol\":643:665  userStatus[2] = \"shop\" */\n  swap1\n  dup1\n  mload\n  swap1\n  0x20\n  add\n  swap1\n  tag_8\n  swap3\n  swap2\n  swap1\n  tag_6\n  jump\t// in\ntag_8:\n  pop\n    /* \"contracts/AuthService.sol\":675:698  userStatus[3] = \"admin\" */\n  mload(0x40)\n  dup1\n  0x40\n  add\n  0x40\n  mstore\n  dup1\n  0x05\n  dup2\n  mstore\n  0x20\n  add\n  0x61646d696e000000000000000000000000000000000000000000000000000000\n  dup2\n  mstore\n  pop\n    /* \"contracts/AuthService.sol\":675:685  userStatus */\n  0x00\n    /* \"contracts/AuthService.sol\":675:688  userStatus[3] */\n  dup1\n    /* \"contracts/AuthService.sol\":686:687  3 */\n  0x03\n    /* \"contracts/AuthService.sol\":675:688  userStatus[3] */\n  dup2\n  mstore\n  0x20\n  add\n  swap1\n  dup2\n  mstore\n  0x20\n  add\n  0x00\n  keccak256\n    /* \"contracts/AuthService.sol\":675:698  userStatus[3] = \"admin\" */\n  swap1\n  dup1\n  mload\n  swap1\n  0x20\n  add\n  swap1\n  tag_9\n  swap3\n  swap2\n  swap1\n  tag_6\n  jump\t// in\ntag_9:\n  pop\n    /* \"contracts/AuthService.sol\":708:734  userStatus[4] = \"provider\" */\n  mload(0x40)\n  dup1\n  0x40\n  add\n  0x40\n  mstore\n  dup1\n  0x08\n  dup2\n  mstore\n  0x20\n  add\n  0x70726f7669646572000000000000000000000000000000000000000000000000\n  dup2\n  mstore\n  pop\n    /* \"contracts/AuthService.sol\":708:718  userStatus */\n  0x00\n    /* \"contracts/AuthService.sol\":708:721  userStatus[4] */\n  dup1\n    /* \"contracts/AuthService.sol\":719:720  4 */\n  0x04\n    /* \"contracts/AuthService.sol\":708:721  userStatus[4] */\n  dup2\n  mstore\n  0x20\n  add\n  swap1\n  dup2\n  mstore\n  0x20\n  add\n  0x00\n  keccak256\n    /* \"contracts/AuthService.sol\":708:734  userStatus[4] = \"provider\" */\n  swap1\n  dup1\n  mload\n  swap1\n  0x20\n  add\n  swap1\n  tag_10\n  swap3\n  swap2\n  swap1\n  tag_6\n  jump\t// in\ntag_10:\n  pop\n    /* \"contracts/AuthService.sol\":744:766  userStatus[5] = \"bank\" */\n  mload(0x40)\n  dup1\n  0x40\n  add\n  0x40\n  mstore\n  dup1\n  0x04\n  dup2\n  mstore\n  0x20\n  add\n  0x62616e6b00000000000000000000000000000000000000000000000000000000\n  dup2\n  mstore\n  pop\n    /* \"contracts/AuthService.sol\":744:754  userStatus */\n  0x00\n    /* \"contracts/AuthService.sol\":744:757  userStatus[5] */\n  dup1\n    /* \"contracts/AuthService.sol\":755:756  5 */\n  0x05\n    /* \"contracts/AuthService.sol\":744:757  userStatus[5] */\n  dup2\n  mstore\n  0x20\n  add\n  swap1\n  dup2\n  mstore\n  0x20\n  add\n  0x00\n  keccak256\n    /* \"contracts/AuthService.sol\":744:766  userStatus[5] = \"bank\" */\n  swap1\n  dup1\n  mload\n  swap1\n  0x20\n  add\n  swap1\n  tag_11\n  swap3\n  swap2\n  swap1\n  tag_6\n  jump\t// in\ntag_11:\n  pop\n    /* \"contracts/Shops.sol\":1028:1038  msg.sender */\n  caller\n    /* \"contracts/Shops.sol\":1020:1025  admin */\n  0x05\n  0x00\n    /* \"contracts/Shops.sol\":1020:1038  admin = msg.sender */\n  0x0100\n  exp\n  dup2\n  sload\n  dup2\n  0xffffffffffffffffffffffffffffffffffffffff\n  mul\n  not\n  and\n  swap1\n  dup4\n  0xffffffffffffffffffffffffffffffffffffffff\n  and\n  mul\n  or\n  swap1\n  sstore\n  pop\n    /* \"contracts/Shops.sol\":269:8882  contract ShopsSystem is AuthService{... */\n  jump(tag_13)\ntag_6:\n  dup3\n  dup1\n  sload\n  tag_14\n  swap1\n  tag_15\n  jump\t// in\ntag_14:\n  swap1\n  0x00\n  mstore\n  keccak256(0x00, 0x20)\n  swap1\n  0x1f\n  add\n  0x20\n  swap1\n  div\n  dup2\n  add\n  swap3\n  dup3\n  tag_17\n  jumpi\n  0x00\n  dup6\n  sstore\n  jump(tag_16)\ntag_17:\n  dup3\n  0x1f\n  lt\n  tag_18\n  jumpi\n  dup1\n  mload\n  not(0xff)\n  and\n  dup4\n  dup1\n  add\n  or\n  dup6\n  sstore\n  jump(tag_16)\ntag_18:\n  dup3\n  dup1\n  add\n  0x01\n  add\n  dup6\n  sstore\n  dup3\n  iszero\n  tag_16\n  jumpi\n  swap2\n  dup3\n  add\ntag_19:\n  dup3\n  dup2\n  gt\n  iszero\n  tag_20\n  jumpi\n  dup3\n  mload\n  dup3\n  sstore\n  swap2\n  0x20\n  add\n  swap2\n  swap1\n  0x01\n  add\n  swap1\n  jump(tag_19)\ntag_20:\ntag_16:\n  pop\n  swap1\n  pop\n  tag_21\n  swap2\n  swap1\n  tag_22\n  jump\t// in\ntag_21:\n  pop\n  swap1\n  jump\t// out\ntag_22:\ntag_23:\n  dup1\n  dup3\n  gt\n  iszero\n  tag_24\n  jumpi\n  0x00\n  dup2\n  0x00\n  swap1\n  sstore\n  pop\n  0x01\n  add\n  jump(tag_23)\ntag_24:\n  pop\n  swap1\n  jump\t// out\n    /* \"#utility.yul\":7:327   */\ntag_15:\n    /* \"#utility.yul\":51:57   */\n  0x00\n    /* \"#utility.yul\":88:89   */\n  0x02\n    /* \"#utility.yul\":82:86   */\n  dup3\n    /* \"#utility.yul\":78:90   */\n  div\n    /* \"#utility.yul\":68:90   */\n  swap1\n  pop\n    /* \"#utility.yul\":135:136   */\n  0x01\n    /* \"#utility.yul\":129:133   */\n  dup3\n    /* \"#utility.yul\":125:137   */\n  and\n    /* \"#utility.yul\":156:174   */\n  dup1\n    /* \"#utility.yul\":146:227   */\n  tag_27\n  jumpi\n    /* \"#utility.yul\":212:216   */\n  0x7f\n    /* \"#utility.yul\":204:210   */\n  dup3\n    /* \"#utility.yul\":200:217   */\n  and\n    /* \"#utility.yul\":190:217   */\n  swap2\n  pop\n    /* \"#utility.yul\":146:227   */\ntag_27:\n    /* \"#utility.yul\":274:276   */\n  0x20\n    /* \"#utility.yul\":266:272   */\n  dup3\n    /* \"#utility.yul\":263:277   */\n  lt\n    /* \"#utility.yul\":243:261   */\n  dup2\n    /* \"#utility.yul\":240:278   */\n  eq\n    /* \"#utility.yul\":237:321   */\n  iszero\n  tag_28\n  jumpi\n    /* \"#utility.yul\":293:311   */\n  tag_29\n  tag_30\n  jump\t// in\ntag_29:\n    /* \"#utility.yul\":237:321   */\ntag_28:\n    /* \"#utility.yul\":58:327   */\n  pop\n    /* \"#utility.yul\":7:327   */\n  swap2\n  swap1\n  pop\n  jump\t// out\n    /* \"#utility.yul\":333:513   */\ntag_30:\n    /* \"#utility.yul\":381:458   */\n  0x4e487b7100000000000000000000000000000000000000000000000000000000\n    /* \"#utility.yul\":378:379   */\n  0x00\n    /* \"#utility.yul\":371:459   */\n  mstore\n    /* \"#utility.yul\":478:482   */\n  0x22\n    /* \"#utility.yul\":475:476   */\n  0x04\n    /* \"#utility.yul\":468:483   */\n  mstore\n    /* \"#utility.yul\":502:506   */\n  0x24\n    /* \"#utility.yul\":499:500   */\n  0x00\n    /* \"#utility.yul\":492:507   */\n  revert\n    /* \"contracts/Shops.sol\":269:8882  contract ShopsSystem is AuthService{... */\ntag_13:\n  dataSize(sub_0)\n  dup1\n  dataOffset(sub_0)\n  0x00\n  codecopy\n  0x00\n  return\nstop\n\nsub_0: assembly {\n        /* \"contracts/Shops.sol\":269:8882  contract ShopsSystem is AuthService{... */\n      mstore(0x40, 0x80)\n      callvalue\n      dup1\n      iszero\n      tag_1\n      jumpi\n      0x00\n      dup1\n      revert\n    tag_1:\n      pop\n      jumpi(tag_2, lt(calldatasize, 0x04))\n      shr(0xe0, calldataload(0x00))\n      dup1\n      0x8403f848\n      gt\n      tag_24\n      jumpi\n      dup1\n      0xb038316c\n      gt\n      tag_25\n      jumpi\n      dup1\n      0xb038316c\n      eq\n      tag_18\n      jumpi\n      dup1\n      0xbce62a74\n      eq\n      tag_19\n      jumpi\n      dup1\n      0xc3d5fd39\n      eq\n      tag_20\n      jumpi\n      dup1\n      0xdfdd12c9\n      eq\n      tag_21\n      jumpi\n      dup1\n      0xdffc8b06\n      eq\n      tag_22\n      jumpi\n      dup1\n      0xf8f98b79\n      eq\n      tag_23\n      jumpi\n      jump(tag_2)\n    tag_25:\n      dup1\n      0x8403f848\n      eq\n      tag_13\n      jumpi\n      dup1\n      0x99b958ee\n      eq\n      tag_14\n      jumpi\n      dup1\n      0x9d344d10\n      eq\n      tag_15\n      jumpi\n      dup1\n      0xa59d105f\n      eq\n      tag_16\n      jumpi\n      dup1\n      0xac6fa7c3\n      eq\n      tag_17\n      jumpi\n      jump(tag_2)\n    tag_24:\n      dup1\n      0x54504c12\n      gt\n      tag_26\n      jumpi\n      dup1\n      0x54504c12\n      eq\n      tag_8\n      jumpi\n      dup1\n      0x7558b2f8\n      eq\n      tag_9\n      jumpi\n      dup1\n      0x7b3c7488\n      eq\n      tag_10\n      jumpi\n      dup1\n      0x7ccb2bd8\n      eq\n      tag_11\n      jumpi\n      dup1\n      0x83db0f6d\n      eq\n      tag_12\n      jumpi\n      jump(tag_2)\n    tag_26:\n      dup1\n      0x08e74858\n      eq\n      tag_3\n      jumpi\n      dup1\n      0x2156a781\n      eq\n      tag_4\n      jumpi\n      dup1\n      0x2d6abf59\n      eq\n      tag_5\n      jumpi\n      dup1\n      0x2f0185c4\n      eq\n      tag_6\n      jumpi\n      dup1\n      0x3a7d280c\n      eq\n      tag_7\n      jumpi\n    tag_2:\n      0x00\n      dup1\n      revert\n        /* \"contracts/Shops.sol\":5480:6093  function getSellerInfoByAddr(address sellerAddr) public view isUserStatus(UserRoles.admin)returns(... */\n    tag_3:\n      tag_27\n      0x04\n      dup1\n      calldatasize\n      sub\n      dup2\n      add\n      swap1\n      tag_28\n      swap2\n      swap1\n      tag_29\n      jump\t// in\n    tag_28:\n      tag_30\n      jump\t// in\n    tag_27:\n      mload(0x40)\n      tag_31\n      swap6\n      swap5\n      swap4\n      swap3\n      swap2\n      swap1\n      tag_32\n      jump\t// in\n    tag_31:\n      mload(0x40)\n      dup1\n      swap2\n      sub\n      swap1\n      return\n        /* \"contracts/Shops.sol\":2664:2851  function registerBank(string memory bankLogin,address bankAddr) public isAdmin {... */\n    tag_4:\n      tag_33\n      0x04\n      dup1\n      calldatasize\n      sub\n      dup2\n      add\n      swap1\n      tag_34\n      swap2\n      swap1\n      tag_35\n      jump\t// in\n    tag_34:\n      tag_36\n      jump\t// in\n    tag_33:\n      stop\n        /* \"contracts/Shops.sol\":6099:6553  function createReview(... */\n    tag_5:\n      tag_37\n      0x04\n      dup1\n      calldatasize\n      sub\n      dup2\n      add\n      swap1\n      tag_38\n      swap2\n      swap1\n      tag_39\n      jump\t// in\n    tag_38:\n      tag_40\n      jump\t// in\n    tag_37:\n      stop\n        /* \"contracts/Shops.sol\":7043:7529  function getReviewById(string memory id) public view returns(... */\n    tag_6:\n      tag_41\n      0x04\n      dup1\n      calldatasize\n      sub\n      dup2\n      add\n      swap1\n      tag_42\n      swap2\n      swap1\n      tag_43\n      jump\t// in\n    tag_42:\n      tag_44\n      jump\t// in\n    tag_41:\n      mload(0x40)\n      tag_45\n      swap7\n      swap6\n      swap5\n      swap4\n      swap3\n      swap2\n      swap1\n      tag_46\n      jump\t// in\n    tag_45:\n      mload(0x40)\n      dup1\n      swap2\n      sub\n      swap1\n      return\n        /* \"contracts/AuthService.sol\":2256:2556  function login(string memory userLogin) public view isRegistered(userLogin) returns(address userAddress,string memory status){... */\n    tag_7:\n      tag_47\n      0x04\n      dup1\n      calldatasize\n      sub\n      dup2\n      add\n      swap1\n      tag_48\n      swap2\n      swap1\n      tag_43\n      jump\t// in\n    tag_48:\n      tag_49\n      jump\t// in\n    tag_47:\n      mload(0x40)\n      tag_50\n      swap3\n      swap2\n      swap1\n      tag_51\n      jump\t// in\n    tag_50:\n      mload(0x40)\n      dup1\n      swap2\n      sub\n      swap1\n      return\n        /* \"contracts/Shops.sol\":3860:4451  function getSellerInfo() public view isUserStatus(UserRoles.seller) returns(... */\n    tag_8:\n      tag_52\n      tag_53\n      jump\t// in\n    tag_52:\n      mload(0x40)\n      tag_54\n      swap6\n      swap5\n      swap4\n      swap3\n      swap2\n      swap1\n      tag_32\n      jump\t// in\n    tag_54:\n      mload(0x40)\n      dup1\n      swap2\n      sub\n      swap1\n      return\n        /* \"contracts/Shops.sol\":1894:2245  function registerShop(address shopAddr,string memory number,string memory city,string memory shopLogin) public isUserStatus(UserRoles.admin){... */\n    tag_9:\n      tag_55\n      0x04\n      dup1\n      calldatasize\n      sub\n      dup2\n      add\n      swap1\n      tag_56\n      swap2\n      swap1\n      tag_57\n      jump\t// in\n    tag_56:\n      tag_58\n      jump\t// in\n    tag_55:\n      stop\n        /* \"contracts/Shops.sol\":6559:6792  function likeReview(string memory id) public isUser {... */\n    tag_10:\n      tag_59\n      0x04\n      dup1\n      calldatasize\n      sub\n      dup2\n      add\n      swap1\n      tag_60\n      swap2\n      swap1\n      tag_43\n      jump\t// in\n    tag_60:\n      tag_61\n      jump\t// in\n    tag_59:\n      stop\n        /* \"contracts/Shops.sol\":2345:2589  function registerProvider(string memory providerLogin,address providerAddr) public isAdmin {... */\n    tag_11:\n      tag_62\n      0x04\n      dup1\n      calldatasize\n      sub\n      dup2\n      add\n      swap1\n      tag_63\n      swap2\n      swap1\n      tag_35\n      jump\t// in\n    tag_63:\n      tag_64\n      jump\t// in\n    tag_62:\n      stop\n        /* \"contracts/Shops.sol\":3581:3784  function doShopDebt(address payable shopAddr) public isUserStatus(UserRoles.bank) {... */\n    tag_12:\n      tag_65\n      0x04\n      dup1\n      calldatasize\n      sub\n      dup2\n      add\n      swap1\n      tag_66\n      swap2\n      swap1\n      tag_67\n      jump\t// in\n    tag_66:\n      tag_68\n      jump\t// in\n    tag_65:\n      stop\n        /* \"contracts/Shops.sol\":2914:3220  function registerSeller(string memory fio,string memory userLogin,address userAddress,address shopAddr) public {... */\n    tag_13:\n      tag_69\n      0x04\n      dup1\n      calldatasize\n      sub\n      dup2\n      add\n      swap1\n      tag_70\n      swap2\n      swap1\n      tag_71\n      jump\t// in\n    tag_70:\n      tag_72\n      jump\t// in\n    tag_69:\n      stop\n        /* \"contracts/Shops.sol\":4550:4914  function getBuyerInfo() public view isUser returns(... */\n    tag_14:\n      tag_73\n      tag_74\n      jump\t// in\n    tag_73:\n      mload(0x40)\n      tag_75\n      swap5\n      swap4\n      swap3\n      swap2\n      swap1\n      tag_76\n      jump\t// in\n    tag_75:\n      mload(0x40)\n      dup1\n      swap2\n      sub\n      swap1\n      return\n        /* \"contracts/Shops.sol\":3287:3486  function registerBuyer(string memory fio,string memory userLogin,address userAddr) public{... */\n    tag_15:\n      tag_77\n      0x04\n      dup1\n      calldatasize\n      sub\n      dup2\n      add\n      swap1\n      tag_78\n      swap2\n      swap1\n      tag_79\n      jump\t// in\n    tag_78:\n      tag_80\n      jump\t// in\n    tag_77:\n      stop\n        /* \"contracts/Shops.sol\":1575:1833  function regAdmin(address adminAddr,string memory fio,string memory userLogin) public isUserStatus(UserRoles.admin){... */\n    tag_16:\n      tag_81\n      0x04\n      dup1\n      calldatasize\n      sub\n      dup2\n      add\n      swap1\n      tag_82\n      swap2\n      swap1\n      tag_83\n      jump\t// in\n    tag_82:\n      tag_84\n      jump\t// in\n    tag_81:\n      stop\n        /* \"contracts/Shops.sol\":7535:7959  function requestToSeller(string memory id) public isUserStatus(UserRoles.buyer){... */\n    tag_17:\n      tag_85\n      0x04\n      dup1\n      calldatasize\n      sub\n      dup2\n      add\n      swap1\n      tag_86\n      swap2\n      swap1\n      tag_43\n      jump\t// in\n    tag_86:\n      tag_87\n      jump\t// in\n    tag_85:\n      stop\n        /* \"contracts/Shops.sol\":7965:8392  function downRequestToByer(string memory id) public isUserStatus(UserRoles.seller){... */\n    tag_18:\n      tag_88\n      0x04\n      dup1\n      calldatasize\n      sub\n      dup2\n      add\n      swap1\n      tag_89\n      swap2\n      swap1\n      tag_43\n      jump\t// in\n    tag_89:\n      tag_90\n      jump\t// in\n    tag_88:\n      stop\n        /* \"contracts/Shops.sol\":6798:7037  function disLikeReview(string memory id) public isUser {... */\n    tag_19:\n      tag_91\n      0x04\n      dup1\n      calldatasize\n      sub\n      dup2\n      add\n      swap1\n      tag_92\n      swap2\n      swap1\n      tag_43\n      jump\t// in\n    tag_92:\n      tag_93\n      jump\t// in\n    tag_91:\n      stop\n        /* \"contracts/Shops.sol\":4984:5383  function getAdminInfo() public view isUserStatus(UserRoles.admin) returns(... */\n    tag_20:\n      tag_94\n      tag_95\n      jump\t// in\n    tag_94:\n      mload(0x40)\n      tag_96\n      swap5\n      swap4\n      swap3\n      swap2\n      swap1\n      tag_97\n      jump\t// in\n    tag_96:\n      mload(0x40)\n      dup1\n      swap2\n      sub\n      swap1\n      return\n        /* \"contracts/Shops.sol\":8398:8491  function checkRequest(string memory id) public isUserStatus(UserRoles.admin) {... */\n    tag_21:\n      tag_98\n      0x04\n      dup1\n      calldatasize\n      sub\n      dup2\n      add\n      swap1\n      tag_99\n      swap2\n      swap1\n      tag_43\n      jump\t// in\n    tag_99:\n      tag_100\n      jump\t// in\n    tag_98:\n      stop\n        /* \"contracts/Shops.sol\":8497:8818  function getRequestById(string memory id) public view returns(... */\n    tag_22:\n      tag_101\n      0x04\n      dup1\n      calldatasize\n      sub\n      dup2\n      add\n      swap1\n      tag_102\n      swap2\n      swap1\n      tag_43\n      jump\t// in\n    tag_102:\n      tag_103\n      jump\t// in\n    tag_101:\n      mload(0x40)\n      tag_104\n      swap4\n      swap3\n      swap2\n      swap1\n      tag_105\n      jump\t// in\n    tag_104:\n      mload(0x40)\n      dup1\n      swap2\n      sub\n      swap1\n      return\n        /* \"contracts/Shops.sol\":1259:1484  function registerAdmin(string memory fio,string memory userLogin) isAdmin public {... */\n    tag_23:\n      tag_106\n      0x04\n      dup1\n      calldatasize\n      sub\n      dup2\n      add\n      swap1\n      tag_107\n      swap2\n      swap1\n      tag_108\n      jump\t// in\n    tag_107:\n      tag_109\n      jump\t// in\n    tag_106:\n      stop\n        /* \"contracts/Shops.sol\":5480:6093  function getSellerInfoByAddr(address sellerAddr) public view isUserStatus(UserRoles.admin)returns(... */\n    tag_30:\n        /* \"contracts/Shops.sol\":5587:5612  string memory sellerLogin */\n      0x60\n        /* \"contracts/Shops.sol\":5622:5639  string memory fio */\n      dup1\n        /* \"contracts/Shops.sol\":5649:5667  string memory city */\n      0x60\n        /* \"contracts/Shops.sol\":5677:5701  string memory shopNumber */\n      dup1\n        /* \"contracts/Shops.sol\":5711:5734  string[] memory reviews */\n      0x60\n        /* \"contracts/Shops.sol\":5554:5569  UserRoles.admin */\n      0x03\n        /* \"contracts/AuthService.sol\":1617:1622  users */\n      0x02\n        /* \"contracts/AuthService.sol\":1617:1634  users[msg.sender] */\n      0x00\n        /* \"contracts/AuthService.sol\":1623:1633  msg.sender */\n      caller\n        /* \"contracts/AuthService.sol\":1617:1634  users[msg.sender] */\n      0xffffffffffffffffffffffffffffffffffffffff\n      and\n      0xffffffffffffffffffffffffffffffffffffffff\n      and\n      dup2\n      mstore\n      0x20\n      add\n      swap1\n      dup2\n      mstore\n      0x20\n      add\n      0x00\n      keccak256\n        /* \"contracts/AuthService.sol\":1617:1641  users[msg.sender].status */\n      0x00\n      add\n      sload\n        /* \"contracts/AuthService.sol\":1606:1612  status */\n      dup2\n        /* \"contracts/AuthService.sol\":1601:1613  uint(status) */\n      0x05\n      dup2\n      gt\n      iszero\n      tag_111\n      jumpi\n      tag_112\n      tag_113\n      jump\t// in\n    tag_112:\n    tag_111:\n        /* \"contracts/AuthService.sol\":1601:1641  uint(status) == users[msg.sender].status */\n      eq\n        /* \"contracts/AuthService.sol\":1593:1654  require(uint(status) == users[msg.sender].status,\"Forbidden\") */\n      tag_114\n      jumpi\n      mload(0x40)\n      0x08c379a000000000000000000000000000000000000000000000000000000000\n      dup2\n      mstore\n      0x04\n      add\n      tag_115\n      swap1\n      tag_116\n      jump\t// in\n    tag_115:\n      mload(0x40)\n      dup1\n      swap2\n      sub\n      swap1\n      revert\n    tag_114:\n        /* \"contracts/Shops.sol\":5750:5770  User memory sellUser */\n      0x00\n        /* \"contracts/Shops.sol\":5773:5778  users */\n      0x02\n        /* \"contracts/Shops.sol\":5773:5790  users[sellerAddr] */\n      0x00\n        /* \"contracts/Shops.sol\":5779:5789  sellerAddr */\n      dup10\n        /* \"contracts/Shops.sol\":5773:5790  users[sellerAddr] */\n      0xffffffffffffffffffffffffffffffffffffffff\n      and\n      0xffffffffffffffffffffffffffffffffffffffff\n      and\n      dup2\n      mstore\n      0x20\n      add\n      swap1\n      dup2\n      mstore\n      0x20\n      add\n      0x00\n      keccak256\n        /* \"contracts/Shops.sol\":5750:5790  User memory sellUser = users[sellerAddr] */\n      mload(0x40)\n      dup1\n      0x80\n      add\n      0x40\n      mstore\n      swap1\n      dup2\n      0x00\n      dup3\n      add\n      sload\n      dup2\n      mstore\n      0x20\n      add\n      0x01\n      dup3\n      add\n      dup1\n      sload\n      tag_118\n      swap1\n      tag_119\n      jump\t// in\n    tag_118:\n      dup1\n      0x1f\n      add\n      0x20\n      dup1\n      swap2\n      div\n      mul\n      0x20\n      add\n      mload(0x40)\n      swap1\n      dup2\n      add\n      0x40\n      mstore\n      dup1\n      swap3\n      swap2\n      swap1\n      dup2\n      dup2\n      mstore\n      0x20\n      add\n      dup3\n      dup1\n      sload\n      tag_120\n      swap1\n      tag_119\n      jump\t// in\n    tag_120:\n      dup1\n      iszero\n      tag_121\n      jumpi\n      dup1\n      0x1f\n      lt\n      tag_122\n      jumpi\n      0x0100\n      dup1\n      dup4\n      sload\n      div\n      mul\n      dup4\n      mstore\n      swap2\n      0x20\n      add\n      swap2\n      jump(tag_121)\n    tag_122:\n      dup3\n      add\n      swap2\n      swap1\n      0x00\n      mstore\n      keccak256(0x00, 0x20)\n      swap1\n    tag_123:\n      dup2\n      sload\n      dup2\n      mstore\n      swap1\n      0x01\n      add\n      swap1\n      0x20\n      add\n      dup1\n      dup4\n      gt\n      tag_123\n      jumpi\n      dup3\n      swap1\n      sub\n      0x1f\n      and\n      dup3\n      add\n      swap2\n    tag_121:\n      pop\n      pop\n      pop\n      pop\n      pop\n      dup2\n      mstore\n      0x20\n      add\n      0x02\n      dup3\n      add\n      dup1\n      sload\n      tag_124\n      swap1\n      tag_119\n      jump\t// in\n    tag_124:\n      dup1\n      0x1f\n      add\n      0x20\n      dup1\n      swap2\n      div\n      mul\n      0x20\n      add\n      mload(0x40)\n      swap1\n      dup2\n      add\n      0x40\n      mstore\n      dup1\n      swap3\n      swap2\n      swap1\n      dup2\n      dup2\n      mstore\n      0x20\n      add\n      dup3\n      dup1\n      sload\n      tag_125\n      swap1\n      tag_119\n      jump\t// in\n    tag_125:\n      dup1\n      iszero\n      tag_126\n      jumpi\n      dup1\n      0x1f\n      lt\n      tag_127\n      jumpi\n      0x0100\n      dup1\n      dup4\n      sload\n      div\n      mul\n      dup4\n      mstore\n      swap2\n      0x20\n      add\n      swap2\n      jump(tag_126)\n    tag_127:\n      dup3\n      add\n      swap2\n      swap1\n      0x00\n      mstore\n      keccak256(0x00, 0x20)\n      swap1\n    tag_128:\n      dup2\n      sload\n      dup2\n      mstore\n      swap1\n      0x01\n      add\n      swap1\n      0x20\n      add\n      dup1\n      dup4\n      gt\n      tag_128\n      jumpi\n      dup3\n      swap1\n      sub\n      0x1f\n      and\n      dup3\n      add\n      swap2\n    tag_126:\n      pop\n      pop\n      pop\n      pop\n      pop\n      dup2\n      mstore\n      0x20\n      add\n      0x03\n      dup3\n      add\n      dup1\n      sload\n      dup1\n      0x20\n      mul\n      0x20\n      add\n      mload(0x40)\n      swap1\n      dup2\n      add\n      0x40\n      mstore\n      dup1\n      swap3\n      swap2\n      swap1\n      dup2\n      dup2\n      mstore\n      0x20\n      add\n      0x00\n      swap1\n    tag_129:\n      dup3\n      dup3\n      lt\n      iszero\n      tag_130\n      jumpi\n      dup4\n      dup3\n      swap1\n      0x00\n      mstore\n      keccak256(0x00, 0x20)\n      add\n      dup1\n      sload\n      tag_132\n      swap1\n      tag_119\n      jump\t// in\n    tag_132:\n      dup1\n      0x1f\n      add\n      0x20\n      dup1\n      swap2\n      div\n      mul\n      0x20\n      add\n      mload(0x40)\n      swap1\n      dup2\n      add\n      0x40\n      mstore\n      dup1\n      swap3\n      swap2\n      swap1\n      dup2\n      dup2\n      mstore\n      0x20\n      add\n      dup3\n      dup1\n      sload\n      tag_133\n      swap1\n      tag_119\n      jump\t// in\n    tag_133:\n      dup1\n      iszero\n      tag_134\n      jumpi\n      dup1\n      0x1f\n      lt\n      tag_135\n      jumpi\n      0x0100\n      dup1\n      dup4\n      sload\n      div\n      mul\n      dup4\n      mstore\n      swap2\n      0x20\n      add\n      swap2\n      jump(tag_134)\n    tag_135:\n      dup3\n      add\n      swap2\n      swap1\n      0x00\n      mstore\n      keccak256(0x00, 0x20)\n      swap1\n    tag_136:\n      dup2\n      sload\n      dup2\n      mstore\n      swap1\n      0x01\n      add\n      swap1\n      0x20\n      add\n      dup1\n      dup4\n      gt\n      tag_136\n      jumpi\n      dup3\n      swap1\n      sub\n      0x1f\n      and\n      dup3\n      add\n      swap2\n    tag_134:\n      pop\n      pop\n      pop\n      pop\n      pop\n      dup2\n      mstore\n      0x20\n      add\n      swap1\n      0x01\n      add\n      swap1\n      jump(tag_129)\n    tag_130:\n      pop\n      pop\n      pop\n      pop\n      dup2\n      mstore\n      pop\n      pop\n      swap1\n      pop\n        /* \"contracts/Shops.sol\":5800:5820  address sellShopAddr */\n      0x00\n        /* \"contracts/Shops.sol\":5823:5835  salesmanShop */\n      0x0c\n        /* \"contracts/Shops.sol\":5823:5847  salesmanShop[sellerAddr] */\n      0x00\n        /* \"contracts/Shops.sol\":5836:5846  sellerAddr */\n      dup11\n        /* \"contracts/Shops.sol\":5823:5847  salesmanShop[sellerAddr] */\n      0xffffffffffffffffffffffffffffffffffffffff\n      and\n      0xffffffffffffffffffffffffffffffffffffffff\n      and\n      dup2\n      mstore\n      0x20\n      add\n      swap1\n      dup2\n      mstore\n      0x20\n      add\n      0x00\n      keccak256\n      0x00\n      swap1\n      sload\n      swap1\n      0x0100\n      exp\n      swap1\n      div\n      0xffffffffffffffffffffffffffffffffffffffff\n      and\n        /* \"contracts/Shops.sol\":5800:5847  address sellShopAddr = salesmanShop[sellerAddr] */\n      swap1\n      pop\n        /* \"contracts/Shops.sol\":5857:5877  Shop memory sellShop */\n      0x00\n        /* \"contracts/Shops.sol\":5880:5889  ShopsList */\n      0x0b\n        /* \"contracts/Shops.sol\":5880:5903  ShopsList[sellShopAddr] */\n      0x00\n        /* \"contracts/Shops.sol\":5890:5902  sellShopAddr */\n      dup4\n        /* \"contracts/Shops.sol\":5880:5903  ShopsList[sellShopAddr] */\n      0xffffffffffffffffffffffffffffffffffffffff\n      and\n      0xffffffffffffffffffffffffffffffffffffffff\n      and\n      dup2\n      mstore\n      0x20\n      add\n      swap1\n      dup2\n      mstore\n      0x20\n      add\n      0x00\n      keccak256\n        /* \"contracts/Shops.sol\":5857:5903  Shop memory sellShop = ShopsList[sellShopAddr] */\n      mload(0x40)\n      dup1\n      0x60\n      add\n      0x40\n      mstore\n      swap1\n      dup2\n      0x00\n      dup3\n      add\n      dup1\n      sload\n      tag_137\n      swap1\n      tag_119\n      jump\t// in\n    tag_137:\n      dup1\n      0x1f\n      add\n      0x20\n      dup1\n      swap2\n      div\n      mul\n      0x20\n      add\n      mload(0x40)\n      swap1\n      dup2\n      add\n      0x40\n      mstore\n      dup1\n      swap3\n      swap2\n      swap1\n      dup2\n      dup2\n      mstore\n      0x20\n      add\n      dup3\n      dup1\n      sload\n      tag_138\n      swap1\n      tag_119\n      jump\t// in\n    tag_138:\n      dup1\n      iszero\n      tag_139\n      jumpi\n      dup1\n      0x1f\n      lt\n      tag_140\n      jumpi\n      0x0100\n      dup1\n      dup4\n      sload\n      div\n      mul\n      dup4\n      mstore\n      swap2\n      0x20\n      add\n      swap2\n      jump(tag_139)\n    tag_140:\n      dup3\n      add\n      swap2\n      swap1\n      0x00\n      mstore\n      keccak256(0x00, 0x20)\n      swap1\n    tag_141:\n      dup2\n      sload\n      dup2\n      mstore\n      swap1\n      0x01\n      add\n      swap1\n      0x20\n      add\n      dup1\n      dup4\n      gt\n      tag_141\n      jumpi\n      dup3\n      swap1\n      sub\n      0x1f\n      and\n      dup3\n      add\n      swap2\n    tag_139:\n      pop\n      pop\n      pop\n      pop\n      pop\n      dup2\n      mstore\n      0x20\n      add\n      0x01\n      dup3\n      add\n      dup1\n      sload\n      tag_142\n      swap1\n      tag_119\n      jump\t// in\n    tag_142:\n      dup1\n      0x1f\n      add\n      0x20\n      dup1\n      swap2\n      div\n      mul\n      0x20\n      add\n      mload(0x40)\n      swap1\n      dup2\n      add\n      0x40\n      mstore\n      dup1\n      swap3\n      swap2\n      swap1\n      dup2\n      dup2\n      mstore\n      0x20\n      add\n      dup3\n      dup1\n      sload\n      tag_143\n      swap1\n      tag_119\n      jump\t// in\n    tag_143:\n      dup1\n      iszero\n      tag_144\n      jumpi\n      dup1\n      0x1f\n      lt\n      tag_145\n      jumpi\n      0x0100\n      dup1\n      dup4\n      sload\n      div\n      mul\n      dup4\n      mstore\n      swap2\n      0x20\n      add\n      swap2\n      jump(tag_144)\n    tag_145:\n      dup3\n      add\n      swap2\n      swap1\n      0x00\n      mstore\n      keccak256(0x00, 0x20)\n      swap1\n    tag_146:\n      dup2\n      sload\n      dup2\n      mstore\n      swap1\n      0x01\n      add\n      swap1\n      0x20\n      add\n      dup1\n      dup4\n      gt\n      tag_146\n      jumpi\n      dup3\n      swap1\n      sub\n      0x1f\n      and\n      dup3\n      add\n      swap2\n    tag_144:\n      pop\n      pop\n      pop\n      pop\n      pop\n      dup2\n      mstore\n      0x20\n      add\n      0x02\n      dup3\n      add\n      sload\n      dup2\n      mstore\n      pop\n      pop\n      swap1\n      pop\n        /* \"contracts/Shops.sol\":5936:5944  sellUser */\n      dup3\n        /* \"contracts/Shops.sol\":5936:5954  sellUser.userLogin */\n      0x20\n      add\n      mload\n        /* \"contracts/Shops.sol\":5922:5954  sellerLogin = sellUser.userLogin */\n      swap9\n      pop\n        /* \"contracts/Shops.sol\":5970:5978  sellUser */\n      dup3\n        /* \"contracts/Shops.sol\":5970:5982  sellUser.fio */\n      0x40\n      add\n      mload\n        /* \"contracts/Shops.sol\":5964:5982  fio = sellUser.fio */\n      swap8\n      pop\n        /* \"contracts/Shops.sol\":5999:6007  sellShop */\n      dup1\n        /* \"contracts/Shops.sol\":5999:6012  sellShop.city */\n      0x20\n      add\n      mload\n        /* \"contracts/Shops.sol\":5992:6012  city = sellShop.city */\n      swap7\n      pop\n        /* \"contracts/Shops.sol\":6035:6043  sellShop */\n      dup1\n        /* \"contracts/Shops.sol\":6035:6050  sellShop.number */\n      0x00\n      add\n      mload\n        /* \"contracts/Shops.sol\":6022:6050  shopNumber = sellShop.number */\n      swap6\n      pop\n        /* \"contracts/Shops.sol\":6070:6078  sellUser */\n      dup3\n        /* \"contracts/Shops.sol\":6070:6086  sellUser.reviews */\n      0x60\n      add\n      mload\n        /* \"contracts/Shops.sol\":6060:6086  reviews = sellUser.reviews */\n      swap5\n      pop\n        /* \"contracts/Shops.sol\":5740:6093  {... */\n      pop\n      pop\n      pop\n        /* \"contracts/Shops.sol\":5480:6093  function getSellerInfoByAddr(address sellerAddr) public view isUserStatus(UserRoles.admin)returns(... */\n      pop\n      swap2\n      swap4\n      swap6\n      swap1\n      swap3\n      swap5\n      pop\n      jump\t// out\n        /* \"contracts/Shops.sol\":2664:2851  function registerBank(string memory bankLogin,address bankAddr) public isAdmin {... */\n    tag_36:\n        /* \"contracts/Shops.sol\":1101:1106  admin */\n      0x05\n      0x00\n      swap1\n      sload\n      swap1\n      0x0100\n      exp\n      swap1\n      div\n      0xffffffffffffffffffffffffffffffffffffffff\n      and\n        /* \"contracts/Shops.sol\":1087:1106  msg.sender == admin */\n      0xffffffffffffffffffffffffffffffffffffffff\n      and\n        /* \"contracts/Shops.sol\":1087:1097  msg.sender */\n      caller\n        /* \"contracts/Shops.sol\":1087:1106  msg.sender == admin */\n      0xffffffffffffffffffffffffffffffffffffffff\n      and\n      eq\n        /* \"contracts/Shops.sol\":1079:1123  require(msg.sender == admin,\"You not admin\") */\n      tag_148\n      jumpi\n      mload(0x40)\n      0x08c379a000000000000000000000000000000000000000000000000000000000\n      dup2\n      mstore\n      0x04\n      add\n      tag_149\n      swap1\n      tag_150\n      jump\t// in\n    tag_149:\n      mload(0x40)\n      dup1\n      swap2\n      sub\n      swap1\n      revert\n    tag_148:\n        /* \"contracts/Shops.sol\":2753:2764  uint status */\n      0x00\n        /* \"contracts/Shops.sol\":2772:2786  UserRoles.bank */\n      0x05\n        /* \"contracts/Shops.sol\":2767:2787  uint(UserRoles.bank) */\n      dup1\n      dup2\n      gt\n      iszero\n      tag_152\n      jumpi\n      tag_153\n      tag_113\n      jump\t// in\n    tag_153:\n    tag_152:\n        /* \"contracts/Shops.sol\":2753:2787  uint status = uint(UserRoles.bank) */\n      swap1\n      pop\n        /* \"contracts/Shops.sol\":2797:2844  registerFromAdmin(\"\",bankLogin,status,bankAddr) */\n      tag_154\n      mload(0x40)\n      dup1\n      0x20\n      add\n      0x40\n      mstore\n      dup1\n      0x00\n      dup2\n      mstore\n      pop\n        /* \"contracts/Shops.sol\":2818:2827  bankLogin */\n      dup5\n        /* \"contracts/Shops.sol\":2828:2834  status */\n      dup4\n        /* \"contracts/Shops.sol\":2835:2843  bankAddr */\n      dup6\n        /* \"contracts/Shops.sol\":2797:2814  registerFromAdmin */\n      tag_155\n        /* \"contracts/Shops.sol\":2797:2844  registerFromAdmin(\"\",bankLogin,status,bankAddr) */\n      jump\t// in\n    tag_154:\n        /* \"contracts/Shops.sol\":2743:2851  {... */\n      pop\n        /* \"contracts/Shops.sol\":2664:2851  function registerBank(string memory bankLogin,address bankAddr) public isAdmin {... */\n      pop\n      pop\n      jump\t// out\n        /* \"contracts/Shops.sol\":6099:6553  function createReview(... */\n    tag_40:\n        /* \"contracts/AuthService.sol\":1465:1504  compare(users[msg.sender].userLogin,\"\") */\n      tag_157\n        /* \"contracts/AuthService.sol\":1473:1478  users */\n      0x02\n        /* \"contracts/AuthService.sol\":1473:1490  users[msg.sender] */\n      0x00\n        /* \"contracts/AuthService.sol\":1479:1489  msg.sender */\n      caller\n        /* \"contracts/AuthService.sol\":1473:1490  users[msg.sender] */\n      0xffffffffffffffffffffffffffffffffffffffff\n      and\n      0xffffffffffffffffffffffffffffffffffffffff\n      and\n      dup2\n      mstore\n      0x20\n      add\n      swap1\n      dup2\n      mstore\n      0x20\n      add\n      0x00\n      keccak256\n        /* \"contracts/AuthService.sol\":1473:1500  users[msg.sender].userLogin */\n      0x01\n      add\n        /* \"contracts/AuthService.sol\":1465:1504  compare(users[msg.sender].userLogin,\"\") */\n      dup1\n      sload\n      tag_158\n      swap1\n      tag_119\n      jump\t// in\n    tag_158:\n      dup1\n      0x1f\n      add\n      0x20\n      dup1\n      swap2\n      div\n      mul\n      0x20\n      add\n      mload(0x40)\n      swap1\n      dup2\n      add\n      0x40\n      mstore\n      dup1\n      swap3\n      swap2\n      swap1\n      dup2\n      dup2\n      mstore\n      0x20\n      add\n      dup3\n      dup1\n      sload\n      tag_159\n      swap1\n      tag_119\n      jump\t// in\n    tag_159:\n      dup1\n      iszero\n      tag_160\n      jumpi\n      dup1\n      0x1f\n      lt\n      tag_161\n      jumpi\n      0x0100\n      dup1\n      dup4\n      sload\n      div\n      mul\n      dup4\n      mstore\n      swap2\n      0x20\n      add\n      swap2\n      jump(tag_160)\n    tag_161:\n      dup3\n      add\n      swap2\n      swap1\n      0x00\n      mstore\n      keccak256(0x00, 0x20)\n      swap1\n    tag_162:\n      dup2\n      sload\n      dup2\n      mstore\n      swap1\n      0x01\n      add\n      swap1\n      0x20\n      add\n      dup1\n      dup4\n      gt\n      tag_162\n      jumpi\n      dup3\n      swap1\n      sub\n      0x1f\n      and\n      dup3\n      add\n      swap2\n    tag_160:\n      pop\n      pop\n      pop\n      pop\n      pop\n      mload(0x40)\n      dup1\n      0x20\n      add\n      0x40\n      mstore\n      dup1\n      0x00\n      dup2\n      mstore\n      pop\n        /* \"contracts/AuthService.sol\":1465:1472  compare */\n      tag_163\n        /* \"contracts/AuthService.sol\":1465:1504  compare(users[msg.sender].userLogin,\"\") */\n      jump\t// in\n    tag_157:\n        /* \"contracts/AuthService.sol\":1464:1504  !compare(users[msg.sender].userLogin,\"\") */\n      iszero\n        /* \"contracts/AuthService.sol\":1456:1520  require(!compare(users[msg.sender].userLogin,\"\"),\"You not user\") */\n      tag_164\n      jumpi\n      mload(0x40)\n      0x08c379a000000000000000000000000000000000000000000000000000000000\n      dup2\n      mstore\n      0x04\n      add\n      tag_165\n      swap1\n      tag_166\n      jump\t// in\n    tag_165:\n      mload(0x40)\n      dup1\n      swap2\n      sub\n      swap1\n      revert\n    tag_164:\n        /* \"contracts/Shops.sol\":6257:6283  address[] memory likeCount */\n      0x60\n        /* \"contracts/Shops.sol\":6293:6322  address[] memory disLikeCount */\n      dup1\n        /* \"contracts/Shops.sol\":6332:6356  Review memory userReview */\n      0x00\n        /* \"contracts/Shops.sol\":6359:6427  Review(msg.sender,shopAddr,userMessage,likeCount,disLikeCount,grade) */\n      mload(0x40)\n      dup1\n      0xc0\n      add\n      0x40\n      mstore\n      dup1\n        /* \"contracts/Shops.sol\":6366:6376  msg.sender */\n      caller\n        /* \"contracts/Shops.sol\":6359:6427  Review(msg.sender,shopAddr,userMessage,likeCount,disLikeCount,grade) */\n      0xffffffffffffffffffffffffffffffffffffffff\n      and\n      dup2\n      mstore\n      0x20\n      add\n        /* \"contracts/Shops.sol\":6377:6385  shopAddr */\n      dup9\n        /* \"contracts/Shops.sol\":6359:6427  Review(msg.sender,shopAddr,userMessage,likeCount,disLikeCount,grade) */\n      0xffffffffffffffffffffffffffffffffffffffff\n      and\n      dup2\n      mstore\n      0x20\n      add\n        /* \"contracts/Shops.sol\":6386:6397  userMessage */\n      dup8\n        /* \"contracts/Shops.sol\":6359:6427  Review(msg.sender,shopAddr,userMessage,likeCount,disLikeCount,grade) */\n      dup2\n      mstore\n      0x20\n      add\n        /* \"contracts/Shops.sol\":6398:6407  likeCount */\n      dup5\n        /* \"contracts/Shops.sol\":6359:6427  Review(msg.sender,shopAddr,userMessage,likeCount,disLikeCount,grade) */\n      dup2\n      mstore\n      0x20\n      add\n        /* \"contracts/Shops.sol\":6408:6420  disLikeCount */\n      dup4\n        /* \"contracts/Shops.sol\":6359:6427  Review(msg.sender,shopAddr,userMessage,likeCount,disLikeCount,grade) */\n      dup2\n      mstore\n      0x20\n      add\n        /* \"contracts/Shops.sol\":6421:6426  grade */\n      dup6\n        /* \"contracts/Shops.sol\":6359:6427  Review(msg.sender,shopAddr,userMessage,likeCount,disLikeCount,grade) */\n      dup2\n      mstore\n      pop\n        /* \"contracts/Shops.sol\":6332:6427  Review memory userReview = Review(msg.sender,shopAddr,userMessage,likeCount,disLikeCount,grade) */\n      swap1\n      pop\n        /* \"contracts/Shops.sol\":6437:6448  shopReviews */\n      0x0e\n        /* \"contracts/Shops.sol\":6437:6458  shopReviews[shopAddr] */\n      0x00\n        /* \"contracts/Shops.sol\":6449:6457  shopAddr */\n      dup9\n        /* \"contracts/Shops.sol\":6437:6458  shopReviews[shopAddr] */\n      0xffffffffffffffffffffffffffffffffffffffff\n      and\n      0xffffffffffffffffffffffffffffffffffffffff\n      and\n      dup2\n      mstore\n      0x20\n      add\n      swap1\n      dup2\n      mstore\n      0x20\n      add\n      0x00\n      keccak256\n        /* \"contracts/Shops.sol\":6464:6466  id */\n      dup6\n        /* \"contracts/Shops.sol\":6437:6467  shopReviews[shopAddr].push(id) */\n      swap1\n      dup1\n      0x01\n      dup2\n      sload\n      add\n      dup1\n      dup3\n      sstore\n      dup1\n      swap2\n      pop\n      pop\n      0x01\n      swap1\n      sub\n      swap1\n      0x00\n      mstore\n      keccak256(0x00, 0x20)\n      add\n      0x00\n      swap1\n      swap2\n      swap1\n      swap2\n      swap1\n      swap2\n      pop\n      swap1\n      dup1\n      mload\n      swap1\n      0x20\n      add\n      swap1\n      tag_169\n      swap3\n      swap2\n      swap1\n      tag_170\n      jump\t// in\n    tag_169:\n      pop\n        /* \"contracts/Shops.sol\":6477:6482  users */\n      0x02\n        /* \"contracts/Shops.sol\":6477:6494  users[msg.sender] */\n      0x00\n        /* \"contracts/Shops.sol\":6483:6493  msg.sender */\n      caller\n        /* \"contracts/Shops.sol\":6477:6494  users[msg.sender] */\n      0xffffffffffffffffffffffffffffffffffffffff\n      and\n      0xffffffffffffffffffffffffffffffffffffffff\n      and\n      dup2\n      mstore\n      0x20\n      add\n      swap1\n      dup2\n      mstore\n      0x20\n      add\n      0x00\n      keccak256\n        /* \"contracts/Shops.sol\":6477:6502  users[msg.sender].reviews */\n      0x03\n      add\n        /* \"contracts/Shops.sol\":6508:6510  id */\n      dup6\n        /* \"contracts/Shops.sol\":6477:6511  users[msg.sender].reviews.push(id) */\n      swap1\n      dup1\n      0x01\n      dup2\n      sload\n      add\n      dup1\n      dup3\n      sstore\n      dup1\n      swap2\n      pop\n      pop\n      0x01\n      swap1\n      sub\n      swap1\n      0x00\n      mstore\n      keccak256(0x00, 0x20)\n      add\n      0x00\n      swap1\n      swap2\n      swap1\n      swap2\n      swap1\n      swap2\n      pop\n      swap1\n      dup1\n      mload\n      swap1\n      0x20\n      add\n      swap1\n      tag_172\n      swap3\n      swap2\n      swap1\n      tag_170\n      jump\t// in\n    tag_172:\n      pop\n        /* \"contracts/Shops.sol\":6536:6546  userReview */\n      dup1\n        /* \"contracts/Shops.sol\":6521:6529  reviewId */\n      0x0f\n        /* \"contracts/Shops.sol\":6530:6532  id */\n      dup7\n        /* \"contracts/Shops.sol\":6521:6533  reviewId[id] */\n      mload(0x40)\n      tag_173\n      swap2\n      swap1\n      tag_174\n      jump\t// in\n    tag_173:\n      swap1\n      dup2\n      mstore\n      0x20\n      add\n      mload(0x40)\n      dup1\n      swap2\n      sub\n      swap1\n      keccak256\n        /* \"contracts/Shops.sol\":6521:6546  reviewId[id] = userReview */\n      0x00\n      dup3\n      add\n      mload\n      dup2\n      0x00\n      add\n      exp(0x0100, 0x00)\n      dup2\n      sload\n      dup2\n      0xffffffffffffffffffffffffffffffffffffffff\n      mul\n      not\n      and\n      swap1\n      dup4\n      0xffffffffffffffffffffffffffffffffffffffff\n      and\n      mul\n      or\n      swap1\n      sstore\n      pop\n      0x20\n      dup3\n      add\n      mload\n      dup2\n      0x01\n      add\n      exp(0x0100, 0x00)\n      dup2\n      sload\n      dup2\n      0xffffffffffffffffffffffffffffffffffffffff\n      mul\n      not\n      and\n      swap1\n      dup4\n      0xffffffffffffffffffffffffffffffffffffffff\n      and\n      mul\n      or\n      swap1\n      sstore\n      pop\n      0x40\n      dup3\n      add\n      mload\n      dup2\n      0x02\n      add\n      swap1\n      dup1\n      mload\n      swap1\n      0x20\n      add\n      swap1\n      tag_175\n      swap3\n      swap2\n      swap1\n      tag_170\n      jump\t// in\n    tag_175:\n      pop\n      0x60\n      dup3\n      add\n      mload\n      dup2\n      0x03\n      add\n      swap1\n      dup1\n      mload\n      swap1\n      0x20\n      add\n      swap1\n      tag_176\n      swap3\n      swap2\n      swap1\n      tag_177\n      jump\t// in\n    tag_176:\n      pop\n      0x80\n      dup3\n      add\n      mload\n      dup2\n      0x04\n      add\n      swap1\n      dup1\n      mload\n      swap1\n      0x20\n      add\n      swap1\n      tag_178\n      swap3\n      swap2\n      swap1\n      tag_177\n      jump\t// in\n    tag_178:\n      pop\n      0xa0\n      dup3\n      add\n      mload\n      dup2\n      0x05\n      add\n      sstore\n      swap1\n      pop\n      pop\n        /* \"contracts/Shops.sol\":6247:6553  {... */\n      pop\n      pop\n      pop\n        /* \"contracts/Shops.sol\":6099:6553  function createReview(... */\n      pop\n      pop\n      pop\n      pop\n      jump\t// out\n        /* \"contracts/Shops.sol\":7043:7529  function getReviewById(string memory id) public view returns(... */\n    tag_44:\n        /* \"contracts/Shops.sol\":7113:7130  address autorAddr */\n      0x00\n        /* \"contracts/Shops.sol\":7140:7156  address shopAddr */\n      dup1\n        /* \"contracts/Shops.sol\":7166:7193  string memory reviewMessage */\n      0x60\n        /* \"contracts/Shops.sol\":7203:7217  uint likeCount */\n      0x00\n        /* \"contracts/Shops.sol\":7227:7244  uint disLikeCount */\n      dup1\n        /* \"contracts/Shops.sol\":7254:7263  int grade */\n      0x00\n        /* \"contracts/Shops.sol\":7279:7294  Review memory r */\n      dup1\n        /* \"contracts/Shops.sol\":7297:7305  reviewId */\n      0x0f\n        /* \"contracts/Shops.sol\":7306:7308  id */\n      dup9\n        /* \"contracts/Shops.sol\":7297:7309  reviewId[id] */\n      mload(0x40)\n      tag_180\n      swap2\n      swap1\n      tag_174\n      jump\t// in\n    tag_180:\n      swap1\n      dup2\n      mstore\n      0x20\n      add\n      mload(0x40)\n      dup1\n      swap2\n      sub\n      swap1\n      keccak256\n        /* \"contracts/Shops.sol\":7279:7309  Review memory r = reviewId[id] */\n      mload(0x40)\n      dup1\n      0xc0\n      add\n      0x40\n      mstore\n      swap1\n      dup2\n      0x00\n      dup3\n      add\n      0x00\n      swap1\n      sload\n      swap1\n      0x0100\n      exp\n      swap1\n      div\n      0xffffffffffffffffffffffffffffffffffffffff\n      and\n      0xffffffffffffffffffffffffffffffffffffffff\n      and\n      0xffffffffffffffffffffffffffffffffffffffff\n      and\n      dup2\n      mstore\n      0x20\n      add\n      0x01\n      dup3\n      add\n      0x00\n      swap1\n      sload\n      swap1\n      0x0100\n      exp\n      swap1\n      div\n      0xffffffffffffffffffffffffffffffffffffffff\n      and\n      0xffffffffffffffffffffffffffffffffffffffff\n      and\n      0xffffffffffffffffffffffffffffffffffffffff\n      and\n      dup2\n      mstore\n      0x20\n      add\n      0x02\n      dup3\n      add\n      dup1\n      sload\n      tag_181\n      swap1\n      tag_119\n      jump\t// in\n    tag_181:\n      dup1\n      0x1f\n      add\n      0x20\n      dup1\n      swap2\n      div\n      mul\n      0x20\n      add\n      mload(0x40)\n      swap1\n      dup2\n      add\n      0x40\n      mstore\n      dup1\n      swap3\n      swap2\n      swap1\n      dup2\n      dup2\n      mstore\n      0x20\n      add\n      dup3\n      dup1\n      sload\n      tag_182\n      swap1\n      tag_119\n      jump\t// in\n    tag_182:\n      dup1\n      iszero\n      tag_183\n      jumpi\n      dup1\n      0x1f\n      lt\n      tag_184\n      jumpi\n      0x0100\n      dup1\n      dup4\n      sload\n      div\n      mul\n      dup4\n      mstore\n      swap2\n      0x20\n      add\n      swap2\n      jump(tag_183)\n    tag_184:\n      dup3\n      add\n      swap2\n      swap1\n      0x00\n      mstore\n      keccak256(0x00, 0x20)\n      swap1\n    tag_185:\n      dup2\n      sload\n      dup2\n      mstore\n      swap1\n      0x01\n      add\n      swap1\n      0x20\n      add\n      dup1\n      dup4\n      gt\n      tag_185\n      jumpi\n      dup3\n      swap1\n      sub\n      0x1f\n      and\n      dup3\n      add\n      swap2\n    tag_183:\n      pop\n      pop\n      pop\n      pop\n      pop\n      dup2\n      mstore\n      0x20\n      add\n      0x03\n      dup3\n      add\n      dup1\n      sload\n      dup1\n      0x20\n      mul\n      0x20\n      add\n      mload(0x40)\n      swap1\n      dup2\n      add\n      0x40\n      mstore\n      dup1\n      swap3\n      swap2\n      swap1\n      dup2\n      dup2\n      mstore\n      0x20\n      add\n      dup3\n      dup1\n      sload\n      dup1\n      iszero\n      tag_186\n      jumpi\n      0x20\n      mul\n      dup3\n      add\n      swap2\n      swap1\n      0x00\n      mstore\n      keccak256(0x00, 0x20)\n      swap1\n    tag_187:\n      dup2\n      0x00\n      swap1\n      sload\n      swap1\n      0x0100\n      exp\n      swap1\n      div\n      0xffffffffffffffffffffffffffffffffffffffff\n      and\n      0xffffffffffffffffffffffffffffffffffffffff\n      and\n      dup2\n      mstore\n      0x20\n      add\n      swap1\n      0x01\n      add\n      swap1\n      dup1\n      dup4\n      gt\n      tag_187\n      jumpi\n    tag_186:\n      pop\n      pop\n      pop\n      pop\n      pop\n      dup2\n      mstore\n      0x20\n      add\n      0x04\n      dup3\n      add\n      dup1\n      sload\n      dup1\n      0x20\n      mul\n      0x20\n      add\n      mload(0x40)\n      swap1\n      dup2\n      add\n      0x40\n      mstore\n      dup1\n      swap3\n      swap2\n      swap1\n      dup2\n      dup2\n      mstore\n      0x20\n      add\n      dup3\n      dup1\n      sload\n      dup1\n      iszero\n      tag_188\n      jumpi\n      0x20\n      mul\n      dup3\n      add\n      swap2\n      swap1\n      0x00\n      mstore\n      keccak256(0x00, 0x20)\n      swap1\n    tag_189:\n      dup2\n      0x00\n      swap1\n      sload\n      swap1\n      0x0100\n      exp\n      swap1\n      div\n      0xffffffffffffffffffffffffffffffffffffffff\n      and\n      0xffffffffffffffffffffffffffffffffffffffff\n      and\n      dup2\n      mstore\n      0x20\n      add\n      swap1\n      0x01\n      add\n      swap1\n      dup1\n      dup4\n      gt\n      tag_189\n      jumpi\n    tag_188:\n      pop\n      pop\n      pop\n      pop\n      pop\n      dup2\n      mstore\n      0x20\n      add\n      0x05\n      dup3\n      add\n      sload\n      dup2\n      mstore\n      pop\n      pop\n      swap1\n      pop\n        /* \"contracts/Shops.sol\":7331:7332  r */\n      dup1\n        /* \"contracts/Shops.sol\":7331:7345  r.autorAddress */\n      0x00\n      add\n      mload\n        /* \"contracts/Shops.sol\":7319:7345  autorAddr = r.autorAddress */\n      swap7\n      pop\n        /* \"contracts/Shops.sol\":7366:7367  r */\n      dup1\n        /* \"contracts/Shops.sol\":7366:7376  r.shopAddr */\n      0x20\n      add\n      mload\n        /* \"contracts/Shops.sol\":7355:7376  shopAddr = r.shopAddr */\n      swap6\n      pop\n        /* \"contracts/Shops.sol\":7402:7403  r */\n      dup1\n        /* \"contracts/Shops.sol\":7402:7411  r.message */\n      0x40\n      add\n      mload\n        /* \"contracts/Shops.sol\":7386:7411  reviewMessage = r.message */\n      swap5\n      pop\n        /* \"contracts/Shops.sol\":7433:7434  r */\n      dup1\n        /* \"contracts/Shops.sol\":7433:7444  r.likeCount */\n      0x60\n      add\n      mload\n        /* \"contracts/Shops.sol\":7433:7451  r.likeCount.length */\n      mload\n        /* \"contracts/Shops.sol\":7421:7451  likeCount = r.likeCount.length */\n      swap4\n      pop\n        /* \"contracts/Shops.sol\":7476:7477  r */\n      dup1\n        /* \"contracts/Shops.sol\":7476:7490  r.disLikeCount */\n      0x80\n      add\n      mload\n        /* \"contracts/Shops.sol\":7476:7497  r.disLikeCount.length */\n      mload\n        /* \"contracts/Shops.sol\":7461:7497  disLikeCount = r.disLikeCount.length */\n      swap3\n      pop\n        /* \"contracts/Shops.sol\":7515:7516  r */\n      dup1\n        /* \"contracts/Shops.sol\":7515:7522  r.grade */\n      0xa0\n      add\n      mload\n        /* \"contracts/Shops.sol\":7507:7522  grade = r.grade */\n      swap2\n      pop\n        /* \"contracts/Shops.sol\":7269:7529  {... */\n      pop\n        /* \"contracts/Shops.sol\":7043:7529  function getReviewById(string memory id) public view returns(... */\n      swap2\n      swap4\n      swap6\n      pop\n      swap2\n      swap4\n      swap6\n      jump\t// out\n        /* \"contracts/AuthService.sol\":2256:2556  function login(string memory userLogin) public view isRegistered(userLogin) returns(address userAddress,string memory status){... */\n    tag_49:\n        /* \"contracts/AuthService.sol\":2340:2359  address userAddress */\n      0x00\n        /* \"contracts/AuthService.sol\":2360:2380  string memory status */\n      0x60\n        /* \"contracts/AuthService.sol\":2321:2330  userLogin */\n      dup3\n        /* \"contracts/AuthService.sol\":1388:1389  0 */\n      0x00\n        /* \"contracts/AuthService.sol\":1355:1390  userLogins[userLogin] != address(0) */\n      0xffffffffffffffffffffffffffffffffffffffff\n      and\n        /* \"contracts/AuthService.sol\":1355:1365  userLogins */\n      0x01\n        /* \"contracts/AuthService.sol\":1366:1375  userLogin */\n      dup3\n        /* \"contracts/AuthService.sol\":1355:1376  userLogins[userLogin] */\n      mload(0x40)\n      tag_191\n      swap2\n      swap1\n      tag_174\n      jump\t// in\n    tag_191:\n      swap1\n      dup2\n      mstore\n      0x20\n      add\n      mload(0x40)\n      dup1\n      swap2\n      sub\n      swap1\n      keccak256\n      0x00\n      swap1\n      sload\n      swap1\n      0x0100\n      exp\n      swap1\n      div\n      0xffffffffffffffffffffffffffffffffffffffff\n      and\n        /* \"contracts/AuthService.sol\":1355:1390  userLogins[userLogin] != address(0) */\n      0xffffffffffffffffffffffffffffffffffffffff\n      and\n      eq\n      iszero\n        /* \"contracts/AuthService.sol\":1347:1405  require(userLogins[userLogin] != address(0),\"Wrong Login\") */\n      tag_192\n      jumpi\n      mload(0x40)\n      0x08c379a000000000000000000000000000000000000000000000000000000000\n      dup2\n      mstore\n      0x04\n      add\n      tag_193\n      swap1\n      tag_194\n      jump\t// in\n    tag_193:\n      mload(0x40)\n      dup1\n      swap2\n      sub\n      swap1\n      revert\n    tag_192:\n        /* \"contracts/AuthService.sol\":2391:2407  address userAddr */\n      0x00\n        /* \"contracts/AuthService.sol\":2410:2420  userLogins */\n      0x01\n        /* \"contracts/AuthService.sol\":2421:2430  userLogin */\n      dup6\n        /* \"contracts/AuthService.sol\":2410:2431  userLogins[userLogin] */\n      mload(0x40)\n      tag_196\n      swap2\n      swap1\n      tag_174\n      jump\t// in\n    tag_196:\n      swap1\n      dup2\n      mstore\n      0x20\n      add\n      mload(0x40)\n      dup1\n      swap2\n      sub\n      swap1\n      keccak256\n      0x00\n      swap1\n      sload\n      swap1\n      0x0100\n      exp\n      swap1\n      div\n      0xffffffffffffffffffffffffffffffffffffffff\n      and\n        /* \"contracts/AuthService.sol\":2391:2431  address userAddr = userLogins[userLogin] */\n      swap1\n      pop\n        /* \"contracts/AuthService.sol\":2441:2457  User memory user */\n      0x00\n        /* \"contracts/AuthService.sol\":2460:2465  users */\n      0x02\n        /* \"contracts/AuthService.sol\":2460:2475  users[userAddr] */\n      0x00\n        /* \"contracts/AuthService.sol\":2466:2474  userAddr */\n      dup4\n        /* \"contracts/AuthService.sol\":2460:2475  users[userAddr] */\n      0xffffffffffffffffffffffffffffffffffffffff\n      and\n      0xffffffffffffffffffffffffffffffffffffffff\n      and\n      dup2\n      mstore\n      0x20\n      add\n      swap1\n      dup2\n      mstore\n      0x20\n      add\n      0x00\n      keccak256\n        /* \"contracts/AuthService.sol\":2441:2475  User memory user = users[userAddr] */\n      mload(0x40)\n      dup1\n      0x80\n      add\n      0x40\n      mstore\n      swap1\n      dup2\n      0x00\n      dup3\n      add\n      sload\n      dup2\n      mstore\n      0x20\n      add\n      0x01\n      dup3\n      add\n      dup1\n      sload\n      tag_197\n      swap1\n      tag_119\n      jump\t// in\n    tag_197:\n      dup1\n      0x1f\n      add\n      0x20\n      dup1\n      swap2\n      div\n      mul\n      0x20\n      add\n      mload(0x40)\n      swap1\n      dup2\n      add\n      0x40\n      mstore\n      dup1\n      swap3\n      swap2\n      swap1\n      dup2\n      dup2\n      mstore\n      0x20\n      add\n      dup3\n      dup1\n      sload\n      tag_198\n      swap1\n      tag_119\n      jump\t// in\n    tag_198:\n      dup1\n      iszero\n      tag_199\n      jumpi\n      dup1\n      0x1f\n      lt\n      tag_200\n      jumpi\n      0x0100\n      dup1\n      dup4\n      sload\n      div\n      mul\n      dup4\n      mstore\n      swap2\n      0x20\n      add\n      swap2\n      jump(tag_199)\n    tag_200:\n      dup3\n      add\n      swap2\n      swap1\n      0x00\n      mstore\n      keccak256(0x00, 0x20)\n      swap1\n    tag_201:\n      dup2\n      sload\n      dup2\n      mstore\n      swap1\n      0x01\n      add\n      swap1\n      0x20\n      add\n      dup1\n      dup4\n      gt\n      tag_201\n      jumpi\n      dup3\n      swap1\n      sub\n      0x1f\n      and\n      dup3\n      add\n      swap2\n    tag_199:\n      pop\n      pop\n      pop\n      pop\n      pop\n      dup2\n      mstore\n      0x20\n      add\n      0x02\n      dup3\n      add\n      dup1\n      sload\n      tag_202\n      swap1\n      tag_119\n      jump\t// in\n    tag_202:\n      dup1\n      0x1f\n      add\n      0x20\n      dup1\n      swap2\n      div\n      mul\n      0x20\n      add\n      mload(0x40)\n      swap1\n      dup2\n      add\n      0x40\n      mstore\n      dup1\n      swap3\n      swap2\n      swap1\n      dup2\n      dup2\n      mstore\n      0x20\n      add\n      dup3\n      dup1\n      sload\n      tag_203\n      swap1\n      tag_119\n      jump\t// in\n    tag_203:\n      dup1\n      iszero\n      tag_204\n      jumpi\n      dup1\n      0x1f\n      lt\n      tag_205\n      jumpi\n      0x0100\n      dup1\n      dup4\n      sload\n      div\n      mul\n      dup4\n      mstore\n      swap2\n      0x20\n      add\n      swap2\n      jump(tag_204)\n    tag_205:\n      dup3\n      add\n      swap2\n      swap1\n      0x00\n      mstore\n      keccak256(0x00, 0x20)\n      swap1\n    tag_206:\n      dup2\n      sload\n      dup2\n      mstore\n      swap1\n      0x01\n      add\n      swap1\n      0x20\n      add\n      dup1\n      dup4\n      gt\n      tag_206\n      jumpi\n      dup3\n      swap1\n      sub\n      0x1f\n      and\n      dup3\n      add\n      swap2\n    tag_204:\n      pop\n      pop\n      pop\n      pop\n      pop\n      dup2\n      mstore\n      0x20\n      add\n      0x03\n      dup3\n      add\n      dup1\n      sload\n      dup1\n      0x20\n      mul\n      0x20\n      add\n      mload(0x40)\n      swap1\n      dup2\n      add\n      0x40\n      mstore\n      dup1\n      swap3\n      swap2\n      swap1\n      dup2\n      dup2\n      mstore\n      0x20\n      add\n      0x00\n      swap1\n    tag_207:\n      dup3\n      dup3\n      lt\n      iszero\n      tag_208\n      jumpi\n      dup4\n      dup3\n      swap1\n      0x00\n      mstore\n      keccak256(0x00, 0x20)\n      add\n      dup1\n      sload\n      tag_210\n      swap1\n      tag_119\n      jump\t// in\n    tag_210:\n      dup1\n      0x1f\n      add\n      0x20\n      dup1\n      swap2\n      div\n      mul\n      0x20\n      add\n      mload(0x40)\n      swap1\n      dup2\n      add\n      0x40\n      mstore\n      dup1\n      swap3\n      swap2\n      swap1\n      dup2\n      dup2\n      mstore\n      0x20\n      add\n      dup3\n      dup1\n      sload\n      tag_211\n      swap1\n      tag_119\n      jump\t// in\n    tag_211:\n      dup1\n      iszero\n      tag_212\n      jumpi\n      dup1\n      0x1f\n      lt\n      tag_213\n      jumpi\n      0x0100\n      dup1\n      dup4\n      sload\n      div\n      mul\n      dup4\n      mstore\n      swap2\n      0x20\n      add\n      swap2\n      jump(tag_212)\n    tag_213:\n      dup3\n      add\n      swap2\n      swap1\n      0x00\n      mstore\n      keccak256(0x00, 0x20)\n      swap1\n    tag_214:\n      dup2\n      sload\n      dup2\n      mstore\n      swap1\n      0x01\n      add\n      swap1\n      0x20\n      add\n      dup1\n      dup4\n      gt\n      tag_214\n      jumpi\n      dup3\n      swap1\n      sub\n      0x1f\n      and\n      dup3\n      add\n      swap2\n    tag_212:\n      pop\n      pop\n      pop\n      pop\n      pop\n      dup2\n      mstore\n      0x20\n      add\n      swap1\n      0x01\n      add\n      swap1\n      jump(tag_207)\n    tag_208:\n      pop\n      pop\n      pop\n      pop\n      dup2\n      mstore\n      pop\n      pop\n      swap1\n      pop\n        /* \"contracts/AuthService.sol\":2499:2507  userAddr */\n      dup2\n        /* \"contracts/AuthService.sol\":2485:2507  userAddress = userAddr */\n      swap5\n      pop\n        /* \"contracts/AuthService.sol\":2526:2536  userStatus */\n      0x00\n        /* \"contracts/AuthService.sol\":2526:2549  userStatus[user.status] */\n      dup1\n        /* \"contracts/AuthService.sol\":2537:2541  user */\n      dup3\n        /* \"contracts/AuthService.sol\":2537:2548  user.status */\n      0x00\n      add\n      mload\n        /* \"contracts/AuthService.sol\":2526:2549  userStatus[user.status] */\n      dup2\n      mstore\n      0x20\n      add\n      swap1\n      dup2\n      mstore\n      0x20\n      add\n      0x00\n      keccak256\n        /* \"contracts/AuthService.sol\":2517:2549  status = userStatus[user.status] */\n      dup1\n      sload\n      tag_215\n      swap1\n      tag_119\n      jump\t// in\n    tag_215:\n      dup1\n      0x1f\n      add\n      0x20\n      dup1\n      swap2\n      div\n      mul\n      0x20\n      add\n      mload(0x40)\n      swap1\n      dup2\n      add\n      0x40\n      mstore\n      dup1\n      swap3\n      swap2\n      swap1\n      dup2\n      dup2\n      mstore\n      0x20\n      add\n      dup3\n      dup1\n      sload\n      tag_216\n      swap1\n      tag_119\n      jump\t// in\n    tag_216:\n      dup1\n      iszero\n      tag_217\n      jumpi\n      dup1\n      0x1f\n      lt\n      tag_218\n      jumpi\n      0x0100\n      dup1\n      dup4\n      sload\n      div\n      mul\n      dup4\n      mstore\n      swap2\n      0x20\n      add\n      swap2\n      jump(tag_217)\n    tag_218:\n      dup3\n      add\n      swap2\n      swap1\n      0x00\n      mstore\n      keccak256(0x00, 0x20)\n      swap1\n    tag_219:\n      dup2\n      sload\n      dup2\n      mstore\n      swap1\n      0x01\n      add\n      swap1\n      0x20\n      add\n      dup1\n      dup4\n      gt\n      tag_219\n      jumpi\n      dup3\n      swap1\n      sub\n      0x1f\n      and\n      dup3\n      add\n      swap2\n    tag_217:\n      pop\n      pop\n      pop\n      pop\n      pop\n      swap4\n      pop\n        /* \"contracts/AuthService.sol\":2381:2556  {... */\n      pop\n      pop\n        /* \"contracts/AuthService.sol\":2256:2556  function login(string memory userLogin) public view isRegistered(userLogin) returns(address userAddress,string memory status){... */\n      pop\n      swap2\n      pop\n      swap2\n      jump\t// out\n        /* \"contracts/Shops.sol\":3860:4451  function getSellerInfo() public view isUserStatus(UserRoles.seller) returns(... */\n    tag_53:\n        /* \"contracts/Shops.sol\":3945:3970  string memory sellerLogin */\n      0x60\n        /* \"contracts/Shops.sol\":3980:3997  string memory fio */\n      dup1\n        /* \"contracts/Shops.sol\":4007:4025  string memory city */\n      0x60\n        /* \"contracts/Shops.sol\":4035:4059  string memory shopNumber */\n      dup1\n        /* \"contracts/Shops.sol\":4069:4092  string[] memory reviews */\n      0x60\n        /* \"contracts/Shops.sol\":3910:3926  UserRoles.seller */\n      0x01\n        /* \"contracts/AuthService.sol\":1617:1622  users */\n      0x02\n        /* \"contracts/AuthService.sol\":1617:1634  users[msg.sender] */\n      0x00\n        /* \"contracts/AuthService.sol\":1623:1633  msg.sender */\n      caller\n        /* \"contracts/AuthService.sol\":1617:1634  users[msg.sender] */\n      0xffffffffffffffffffffffffffffffffffffffff\n      and\n      0xffffffffffffffffffffffffffffffffffffffff\n      and\n      dup2\n      mstore\n      0x20\n      add\n      swap1\n      dup2\n      mstore\n      0x20\n      add\n      0x00\n      keccak256\n        /* \"contracts/AuthService.sol\":1617:1641  users[msg.sender].status */\n      0x00\n      add\n      sload\n        /* \"contracts/AuthService.sol\":1606:1612  status */\n      dup2\n        /* \"contracts/AuthService.sol\":1601:1613  uint(status) */\n      0x05\n      dup2\n      gt\n      iszero\n      tag_221\n      jumpi\n      tag_222\n      tag_113\n      jump\t// in\n    tag_222:\n    tag_221:\n        /* \"contracts/AuthService.sol\":1601:1641  uint(status) == users[msg.sender].status */\n      eq\n        /* \"contracts/AuthService.sol\":1593:1654  require(uint(status) == users[msg.sender].status,\"Forbidden\") */\n      tag_223\n      jumpi\n      mload(0x40)\n      0x08c379a000000000000000000000000000000000000000000000000000000000\n      dup2\n      mstore\n      0x04\n      add\n      tag_224\n      swap1\n      tag_116\n      jump\t// in\n    tag_224:\n      mload(0x40)\n      dup1\n      swap2\n      sub\n      swap1\n      revert\n    tag_223:\n        /* \"contracts/Shops.sol\":4108:4128  User memory sellUser */\n      0x00\n        /* \"contracts/Shops.sol\":4131:4136  users */\n      0x02\n        /* \"contracts/Shops.sol\":4131:4148  users[msg.sender] */\n      0x00\n        /* \"contracts/Shops.sol\":4137:4147  msg.sender */\n      caller\n        /* \"contracts/Shops.sol\":4131:4148  users[msg.sender] */\n      0xffffffffffffffffffffffffffffffffffffffff\n      and\n      0xffffffffffffffffffffffffffffffffffffffff\n      and\n      dup2\n      mstore\n      0x20\n      add\n      swap1\n      dup2\n      mstore\n      0x20\n      add\n      0x00\n      keccak256\n        /* \"contracts/Shops.sol\":4108:4148  User memory sellUser = users[msg.sender] */\n      mload(0x40)\n      dup1\n      0x80\n      add\n      0x40\n      mstore\n      swap1\n      dup2\n      0x00\n      dup3\n      add\n      sload\n      dup2\n      mstore\n      0x20\n      add\n      0x01\n      dup3\n      add\n      dup1\n      sload\n      tag_226\n      swap1\n      tag_119\n      jump\t// in\n    tag_226:\n      dup1\n      0x1f\n      add\n      0x20\n      dup1\n      swap2\n      div\n      mul\n      0x20\n      add\n      mload(0x40)\n      swap1\n      dup2\n      add\n      0x40\n      mstore\n      dup1\n      swap3\n      swap2\n      swap1\n      dup2\n      dup2\n      mstore\n      0x20\n      add\n      dup3\n      dup1\n      sload\n      tag_227\n      swap1\n      tag_119\n      jump\t// in\n    tag_227:\n      dup1\n      iszero\n      tag_228\n      jumpi\n      dup1\n      0x1f\n      lt\n      tag_229\n      jumpi\n      0x0100\n      dup1\n      dup4\n      sload\n      div\n      mul\n      dup4\n      mstore\n      swap2\n      0x20\n      add\n      swap2\n      jump(tag_228)\n    tag_229:\n      dup3\n      add\n      swap2\n      swap1\n      0x00\n      mstore\n      keccak256(0x00, 0x20)\n      swap1\n    tag_230:\n      dup2\n      sload\n      dup2\n      mstore\n      swap1\n      0x01\n      add\n      swap1\n      0x20\n      add\n      dup1\n      dup4\n      gt\n      tag_230\n      jumpi\n      dup3\n      swap1\n      sub\n      0x1f\n      and\n      dup3\n      add\n      swap2\n    tag_228:\n      pop\n      pop\n      pop\n      pop\n      pop\n      dup2\n      mstore\n      0x20\n      add\n      0x02\n      dup3\n      add\n      dup1\n      sload\n      tag_231\n      swap1\n      tag_119\n      jump\t// in\n    tag_231:\n      dup1\n      0x1f\n      add\n      0x20\n      dup1\n      swap2\n      div\n      mul\n      0x20\n      add\n      mload(0x40)\n      swap1\n      dup2\n      add\n      0x40\n      mstore\n      dup1\n      swap3\n      swap2\n      swap1\n      dup2\n      dup2\n      mstore\n      0x20\n      add\n      dup3\n      dup1\n      sload\n      tag_232\n      swap1\n      tag_119\n      jump\t// in\n    tag_232:\n      dup1\n      iszero\n      tag_233\n      jumpi\n      dup1\n      0x1f\n      lt\n      tag_234\n      jumpi\n      0x0100\n      dup1\n      dup4\n      sload\n      div\n      mul\n      dup4\n      mstore\n      swap2\n      0x20\n      add\n      swap2\n      jump(tag_233)\n    tag_234:\n      dup3\n      add\n      swap2\n      swap1\n      0x00\n      mstore\n      keccak256(0x00, 0x20)\n      swap1\n    tag_235:\n      dup2\n      sload\n      dup2\n      mstore\n      swap1\n      0x01\n      add\n      swap1\n      0x20\n      add\n      dup1\n      dup4\n      gt\n      tag_235\n      jumpi\n      dup3\n      swap1\n      sub\n      0x1f\n      and\n      dup3\n      add\n      swap2\n    tag_233:\n      pop\n      pop\n      pop\n      pop\n      pop\n      dup2\n      mstore\n      0x20\n      add\n      0x03\n      dup3\n      add\n      dup1\n      sload\n      dup1\n      0x20\n      mul\n      0x20\n      add\n      mload(0x40)\n      swap1\n      dup2\n      add\n      0x40\n      mstore\n      dup1\n      swap3\n      swap2\n      swap1\n      dup2\n      dup2\n      mstore\n      0x20\n      add\n      0x00\n      swap1\n    tag_236:\n      dup3\n      dup3\n      lt\n      iszero\n      tag_237\n      jumpi\n      dup4\n      dup3\n      swap1\n      0x00\n      mstore\n      keccak256(0x00, 0x20)\n      add\n      dup1\n      sload\n      tag_239\n      swap1\n      tag_119\n      jump\t// in\n    tag_239:\n      dup1\n      0x1f\n      add\n      0x20\n      dup1\n      swap2\n      div\n      mul\n      0x20\n      add\n      mload(0x40)\n      swap1\n      dup2\n      add\n      0x40\n      mstore\n      dup1\n      swap3\n      swap2\n      swap1\n      dup2\n      dup2\n      mstore\n      0x20\n      add\n      dup3\n      dup1\n      sload\n      tag_240\n      swap1\n      tag_119\n      jump\t// in\n    tag_240:\n      dup1\n      iszero\n      tag_241\n      jumpi\n      dup1\n      0x1f\n      lt\n      tag_242\n      jumpi\n      0x0100\n      dup1\n      dup4\n      sload\n      div\n      mul\n      dup4\n      mstore\n      swap2\n      0x20\n      add\n      swap2\n      jump(tag_241)\n    tag_242:\n      dup3\n      add\n      swap2\n      swap1\n      0x00\n      mstore\n      keccak256(0x00, 0x20)\n      swap1\n    tag_243:\n      dup2\n      sload\n      dup2\n      mstore\n      swap1\n      0x01\n      add\n      swap1\n      0x20\n      add\n      dup1\n      dup4\n      gt\n      tag_243\n      jumpi\n      dup3\n      swap1\n      sub\n      0x1f\n      and\n      dup3\n      add\n      swap2\n    tag_241:\n      pop\n      pop\n      pop\n      pop\n      pop\n      dup2\n      mstore\n      0x20\n      add\n      swap1\n      0x01\n      add\n      swap1\n      jump(tag_236)\n    tag_237:\n      pop\n      pop\n      pop\n      pop\n      dup2\n      mstore\n      pop\n      pop\n      swap1\n      pop\n        /* \"contracts/Shops.sol\":4158:4178  address sellShopAddr */\n      0x00\n        /* \"contracts/Shops.sol\":4181:4193  salesmanShop */\n      0x0c\n        /* \"contracts/Shops.sol\":4181:4205  salesmanShop[msg.sender] */\n      0x00\n        /* \"contracts/Shops.sol\":4194:4204  msg.sender */\n      caller\n        /* \"contracts/Shops.sol\":4181:4205  salesmanShop[msg.sender] */\n      0xffffffffffffffffffffffffffffffffffffffff\n      and\n      0xffffffffffffffffffffffffffffffffffffffff\n      and\n      dup2\n      mstore\n      0x20\n      add\n      swap1\n      dup2\n      mstore\n      0x20\n      add\n      0x00\n      keccak256\n      0x00\n      swap1\n      sload\n      swap1\n      0x0100\n      exp\n      swap1\n      div\n      0xffffffffffffffffffffffffffffffffffffffff\n      and\n        /* \"contracts/Shops.sol\":4158:4205  address sellShopAddr = salesmanShop[msg.sender] */\n      swap1\n      pop\n        /* \"contracts/Shops.sol\":4215:4235  Shop memory sellShop */\n      0x00\n        /* \"contracts/Shops.sol\":4238:4247  ShopsList */\n      0x0b\n        /* \"contracts/Shops.sol\":4238:4261  ShopsList[sellShopAddr] */\n      0x00\n        /* \"contracts/Shops.sol\":4248:4260  sellShopAddr */\n      dup4\n        /* \"contracts/Shops.sol\":4238:4261  ShopsList[sellShopAddr] */\n      0xffffffffffffffffffffffffffffffffffffffff\n      and\n      0xffffffffffffffffffffffffffffffffffffffff\n      and\n      dup2\n      mstore\n      0x20\n      add\n      swap1\n      dup2\n      mstore\n      0x20\n      add\n      0x00\n      keccak256\n        /* \"contracts/Shops.sol\":4215:4261  Shop memory sellShop = ShopsList[sellShopAddr] */\n      mload(0x40)\n      dup1\n      0x60\n      add\n      0x40\n      mstore\n      swap1\n      dup2\n      0x00\n      dup3\n      add\n      dup1\n      sload\n      tag_244\n      swap1\n      tag_119\n      jump\t// in\n    tag_244:\n      dup1\n      0x1f\n      add\n      0x20\n      dup1\n      swap2\n      div\n      mul\n      0x20\n      add\n      mload(0x40)\n      swap1\n      dup2\n      add\n      0x40\n      mstore\n      dup1\n      swap3\n      swap2\n      swap1\n      dup2\n      dup2\n      mstore\n      0x20\n      add\n      dup3\n      dup1\n      sload\n      tag_245\n      swap1\n      tag_119\n      jump\t// in\n    tag_245:\n      dup1\n      iszero\n      tag_246\n      jumpi\n      dup1\n      0x1f\n      lt\n      tag_247\n      jumpi\n      0x0100\n      dup1\n      dup4\n      sload\n      div\n      mul\n      dup4\n      mstore\n      swap2\n      0x20\n      add\n      swap2\n      jump(tag_246)\n    tag_247:\n      dup3\n      add\n      swap2\n      swap1\n      0x00\n      mstore\n      keccak256(0x00, 0x20)\n      swap1\n    tag_248:\n      dup2\n      sload\n      dup2\n      mstore\n      swap1\n      0x01\n      add\n      swap1\n      0x20\n      add\n      dup1\n      dup4\n      gt\n      tag_248\n      jumpi\n      dup3\n      swap1\n      sub\n      0x1f\n      and\n      dup3\n      add\n      swap2\n    tag_246:\n      pop\n      pop\n      pop\n      pop\n      pop\n      dup2\n      mstore\n      0x20\n      add\n      0x01\n      dup3\n      add\n      dup1\n      sload\n      tag_249\n      swap1\n      tag_119\n      jump\t// in\n    tag_249:\n      dup1\n      0x1f\n      add\n      0x20\n      dup1\n      swap2\n      div\n      mul\n      0x20\n      add\n      mload(0x40)\n      swap1\n      dup2\n      add\n      0x40\n      mstore\n      dup1\n      swap3\n      swap2\n      swap1\n      dup2\n      dup2\n      mstore\n      0x20\n      add\n      dup3\n      dup1\n      sload\n      tag_250\n      swap1\n      tag_119\n      jump\t// in\n    tag_250:\n      dup1\n      iszero\n      tag_251\n      jumpi\n      dup1\n      0x1f\n      lt\n      tag_252\n      jumpi\n      0x0100\n      dup1\n      dup4\n      sload\n      div\n      mul\n      dup4\n      mstore\n      swap2\n      0x20\n      add\n      swap2\n      jump(tag_251)\n    tag_252:\n      dup3\n      add\n      swap2\n      swap1\n      0x00\n      mstore\n      keccak256(0x00, 0x20)\n      swap1\n    tag_253:\n      dup2\n      sload\n      dup2\n      mstore\n      swap1\n      0x01\n      add\n      swap1\n      0x20\n      add\n      dup1\n      dup4\n      gt\n      tag_253\n      jumpi\n      dup3\n      swap1\n      sub\n      0x1f\n      and\n      dup3\n      add\n      swap2\n    tag_251:\n      pop\n      pop\n      pop\n      pop\n      pop\n      dup2\n      mstore\n      0x20\n      add\n      0x02\n      dup3\n      add\n      sload\n      dup2\n      mstore\n      pop\n      pop\n      swap1\n      pop\n        /* \"contracts/Shops.sol\":4294:4302  sellUser */\n      dup3\n        /* \"contracts/Shops.sol\":4294:4312  sellUser.userLogin */\n      0x20\n      add\n      mload\n        /* \"contracts/Shops.sol\":4280:4312  sellerLogin = sellUser.userLogin */\n      swap9\n      pop\n        /* \"contracts/Shops.sol\":4328:4336  sellUser */\n      dup3\n        /* \"contracts/Shops.sol\":4328:4340  sellUser.fio */\n      0x40\n      add\n      mload\n        /* \"contracts/Shops.sol\":4322:4340  fio = sellUser.fio */\n      swap8\n      pop\n        /* \"contracts/Shops.sol\":4357:4365  sellShop */\n      dup1\n        /* \"contracts/Shops.sol\":4357:4370  sellShop.city */\n      0x20\n      add\n      mload\n        /* \"contracts/Shops.sol\":4350:4370  city = sellShop.city */\n      swap7\n      pop\n        /* \"contracts/Shops.sol\":4393:4401  sellShop */\n      dup1\n        /* \"contracts/Shops.sol\":4393:4408  sellShop.number */\n      0x00\n      add\n      mload\n        /* \"contracts/Shops.sol\":4380:4408  shopNumber = sellShop.number */\n      swap6\n      pop\n        /* \"contracts/Shops.sol\":4428:4436  sellUser */\n      dup3\n        /* \"contracts/Shops.sol\":4428:4444  sellUser.reviews */\n      0x60\n      add\n      mload\n        /* \"contracts/Shops.sol\":4418:4444  reviews = sellUser.reviews */\n      swap5\n      pop\n        /* \"contracts/Shops.sol\":4098:4451  {... */\n      pop\n      pop\n      pop\n        /* \"contracts/Shops.sol\":3860:4451  function getSellerInfo() public view isUserStatus(UserRoles.seller) returns(... */\n      pop\n      swap1\n      swap2\n      swap3\n      swap4\n      swap5\n      jump\t// out\n        /* \"contracts/Shops.sol\":1894:2245  function registerShop(address shopAddr,string memory number,string memory city,string memory shopLogin) public isUserStatus(UserRoles.admin){... */\n    tag_58:\n        /* \"contracts/Shops.sol\":2018:2033  UserRoles.admin */\n      0x03\n        /* \"contracts/AuthService.sol\":1617:1622  users */\n      0x02\n        /* \"contracts/AuthService.sol\":1617:1634  users[msg.sender] */\n      0x00\n        /* \"contracts/AuthService.sol\":1623:1633  msg.sender */\n      caller\n        /* \"contracts/AuthService.sol\":1617:1634  users[msg.sender] */\n      0xffffffffffffffffffffffffffffffffffffffff\n      and\n      0xffffffffffffffffffffffffffffffffffffffff\n      and\n      dup2\n      mstore\n      0x20\n      add\n      swap1\n      dup2\n      mstore\n      0x20\n      add\n      0x00\n      keccak256\n        /* \"contracts/AuthService.sol\":1617:1641  users[msg.sender].status */\n      0x00\n      add\n      sload\n        /* \"contracts/AuthService.sol\":1606:1612  status */\n      dup2\n        /* \"contracts/AuthService.sol\":1601:1613  uint(status) */\n      0x05\n      dup2\n      gt\n      iszero\n      tag_255\n      jumpi\n      tag_256\n      tag_113\n      jump\t// in\n    tag_256:\n    tag_255:\n        /* \"contracts/AuthService.sol\":1601:1641  uint(status) == users[msg.sender].status */\n      eq\n        /* \"contracts/AuthService.sol\":1593:1654  require(uint(status) == users[msg.sender].status,\"Forbidden\") */\n      tag_257\n      jumpi\n      mload(0x40)\n      0x08c379a000000000000000000000000000000000000000000000000000000000\n      dup2\n      mstore\n      0x04\n      add\n      tag_258\n      swap1\n      tag_116\n      jump\t// in\n    tag_258:\n      mload(0x40)\n      dup1\n      swap2\n      sub\n      swap1\n      revert\n    tag_257:\n        /* \"contracts/Shops.sol\":2044:2060  Shop memory shop */\n      0x00\n        /* \"contracts/Shops.sol\":2063:2101  Shop({number:number,city:city,debt:0}) */\n      mload(0x40)\n      dup1\n      0x60\n      add\n      0x40\n      mstore\n      dup1\n        /* \"contracts/Shops.sol\":2076:2082  number */\n      dup7\n        /* \"contracts/Shops.sol\":2063:2101  Shop({number:number,city:city,debt:0}) */\n      dup2\n      mstore\n      0x20\n      add\n        /* \"contracts/Shops.sol\":2088:2092  city */\n      dup6\n        /* \"contracts/Shops.sol\":2063:2101  Shop({number:number,city:city,debt:0}) */\n      dup2\n      mstore\n      0x20\n      add\n        /* \"contracts/Shops.sol\":2098:2099  0 */\n      0x00\n        /* \"contracts/Shops.sol\":2063:2101  Shop({number:number,city:city,debt:0}) */\n      dup2\n      mstore\n      pop\n        /* \"contracts/Shops.sol\":2044:2101  Shop memory shop = Shop({number:number,city:city,debt:0}) */\n      swap1\n      pop\n        /* \"contracts/Shops.sol\":2133:2137  shop */\n      dup1\n        /* \"contracts/Shops.sol\":2111:2120  ShopsList */\n      0x0b\n        /* \"contracts/Shops.sol\":2111:2130  ShopsList[shopAddr] */\n      0x00\n        /* \"contracts/Shops.sol\":2121:2129  shopAddr */\n      dup9\n        /* \"contracts/Shops.sol\":2111:2130  ShopsList[shopAddr] */\n      0xffffffffffffffffffffffffffffffffffffffff\n      and\n      0xffffffffffffffffffffffffffffffffffffffff\n      and\n      dup2\n      mstore\n      0x20\n      add\n      swap1\n      dup2\n      mstore\n      0x20\n      add\n      0x00\n      keccak256\n        /* \"contracts/Shops.sol\":2111:2137  ShopsList[shopAddr] = shop */\n      0x00\n      dup3\n      add\n      mload\n      dup2\n      0x00\n      add\n      swap1\n      dup1\n      mload\n      swap1\n      0x20\n      add\n      swap1\n      tag_260\n      swap3\n      swap2\n      swap1\n      tag_170\n      jump\t// in\n    tag_260:\n      pop\n      0x20\n      dup3\n      add\n      mload\n      dup2\n      0x01\n      add\n      swap1\n      dup1\n      mload\n      swap1\n      0x20\n      add\n      swap1\n      tag_261\n      swap3\n      swap2\n      swap1\n      tag_170\n      jump\t// in\n    tag_261:\n      pop\n      0x40\n      dup3\n      add\n      mload\n      dup2\n      0x02\n      add\n      sstore\n      swap1\n      pop\n      pop\n        /* \"contracts/Shops.sol\":2147:2158  uint status */\n      0x00\n        /* \"contracts/Shops.sol\":2166:2180  UserRoles.shop */\n      0x02\n        /* \"contracts/Shops.sol\":2161:2181  uint(UserRoles.shop) */\n      0x05\n      dup2\n      gt\n      iszero\n      tag_262\n      jumpi\n      tag_263\n      tag_113\n      jump\t// in\n    tag_263:\n    tag_262:\n        /* \"contracts/Shops.sol\":2147:2181  uint status = uint(UserRoles.shop) */\n      swap1\n      pop\n        /* \"contracts/Shops.sol\":2191:2238  registerFromAdmin(\"\",shopLogin,status,shopAddr) */\n      tag_264\n      mload(0x40)\n      dup1\n      0x20\n      add\n      0x40\n      mstore\n      dup1\n      0x00\n      dup2\n      mstore\n      pop\n        /* \"contracts/Shops.sol\":2212:2221  shopLogin */\n      dup6\n        /* \"contracts/Shops.sol\":2222:2228  status */\n      dup4\n        /* \"contracts/Shops.sol\":2229:2237  shopAddr */\n      dup11\n        /* \"contracts/Shops.sol\":2191:2208  registerFromAdmin */\n      tag_155\n        /* \"contracts/Shops.sol\":2191:2238  registerFromAdmin(\"\",shopLogin,status,shopAddr) */\n      jump\t// in\n    tag_264:\n        /* \"contracts/Shops.sol\":2034:2245  {... */\n      pop\n      pop\n        /* \"contracts/Shops.sol\":1894:2245  function registerShop(address shopAddr,string memory number,string memory city,string memory shopLogin) public isUserStatus(UserRoles.admin){... */\n      pop\n      pop\n      pop\n      pop\n      pop\n      jump\t// out\n        /* \"contracts/Shops.sol\":6559:6792  function likeReview(string memory id) public isUser {... */\n    tag_61:\n        /* \"contracts/AuthService.sol\":1465:1504  compare(users[msg.sender].userLogin,\"\") */\n      tag_266\n        /* \"contracts/AuthService.sol\":1473:1478  users */\n      0x02\n        /* \"contracts/AuthService.sol\":1473:1490  users[msg.sender] */\n      0x00\n        /* \"contracts/AuthService.sol\":1479:1489  msg.sender */\n      caller\n        /* \"contracts/AuthService.sol\":1473:1490  users[msg.sender] */\n      0xffffffffffffffffffffffffffffffffffffffff\n      and\n      0xffffffffffffffffffffffffffffffffffffffff\n      and\n      dup2\n      mstore\n      0x20\n      add\n      swap1\n      dup2\n      mstore\n      0x20\n      add\n      0x00\n      keccak256\n        /* \"contracts/AuthService.sol\":1473:1500  users[msg.sender].userLogin */\n      0x01\n      add\n        /* \"contracts/AuthService.sol\":1465:1504  compare(users[msg.sender].userLogin,\"\") */\n      dup1\n      sload\n      tag_267\n      swap1\n      tag_119\n      jump\t// in\n    tag_267:\n      dup1\n      0x1f\n      add\n      0x20\n      dup1\n      swap2\n      div\n      mul\n      0x20\n      add\n      mload(0x40)\n      swap1\n      dup2\n      add\n      0x40\n      mstore\n      dup1\n      swap3\n      swap2\n      swap1\n      dup2\n      dup2\n      mstore\n      0x20\n      add\n      dup3\n      dup1\n      sload\n      tag_268\n      swap1\n      tag_119\n      jump\t// in\n    tag_268:\n      dup1\n      iszero\n      tag_269\n      jumpi\n      dup1\n      0x1f\n      lt\n      tag_270\n      jumpi\n      0x0100\n      dup1\n      dup4\n      sload\n      div\n      mul\n      dup4\n      mstore\n      swap2\n      0x20\n      add\n      swap2\n      jump(tag_269)\n    tag_270:\n      dup3\n      add\n      swap2\n      swap1\n      0x00\n      mstore\n      keccak256(0x00, 0x20)\n      swap1\n    tag_271:\n      dup2\n      sload\n      dup2\n      mstore\n      swap1\n      0x01\n      add\n      swap1\n      0x20\n      add\n      dup1\n      dup4\n      gt\n      tag_271\n      jumpi\n      dup3\n      swap1\n      sub\n      0x1f\n      and\n      dup3\n      add\n      swap2\n    tag_269:\n      pop\n      pop\n      pop\n      pop\n      pop\n      mload(0x40)\n      dup1\n      0x20\n      add\n      0x40\n      mstore\n      dup1\n      0x00\n      dup2\n      mstore\n      pop\n        /* \"contracts/AuthService.sol\":1465:1472  compare */\n      tag_163\n        /* \"contracts/AuthService.sol\":1465:1504  compare(users[msg.sender].userLogin,\"\") */\n      jump\t// in\n    tag_266:\n        /* \"contracts/AuthService.sol\":1464:1504  !compare(users[msg.sender].userLogin,\"\") */\n      iszero\n        /* \"contracts/AuthService.sol\":1456:1520  require(!compare(users[msg.sender].userLogin,\"\"),\"You not user\") */\n      tag_272\n      jumpi\n      mload(0x40)\n      0x08c379a000000000000000000000000000000000000000000000000000000000\n      dup2\n      mstore\n      0x04\n      add\n      tag_273\n      swap1\n      tag_166\n      jump\t// in\n    tag_273:\n      mload(0x40)\n      dup1\n      swap2\n      sub\n      swap1\n      revert\n    tag_272:\n        /* \"contracts/Shops.sol\":6658:6663  false */\n      0x00\n        /* \"contracts/Shops.sol\":6629:6663  reviewCom[id][msg.sender] == false */\n      iszero\n      iszero\n        /* \"contracts/Shops.sol\":6629:6638  reviewCom */\n      0x11\n        /* \"contracts/Shops.sol\":6639:6641  id */\n      dup3\n        /* \"contracts/Shops.sol\":6629:6642  reviewCom[id] */\n      mload(0x40)\n      tag_275\n      swap2\n      swap1\n      tag_174\n      jump\t// in\n    tag_275:\n      swap1\n      dup2\n      mstore\n      0x20\n      add\n      mload(0x40)\n      dup1\n      swap2\n      sub\n      swap1\n      keccak256\n        /* \"contracts/Shops.sol\":6629:6654  reviewCom[id][msg.sender] */\n      0x00\n        /* \"contracts/Shops.sol\":6643:6653  msg.sender */\n      caller\n        /* \"contracts/Shops.sol\":6629:6654  reviewCom[id][msg.sender] */\n      0xffffffffffffffffffffffffffffffffffffffff\n      and\n      0xffffffffffffffffffffffffffffffffffffffff\n      and\n      dup2\n      mstore\n      0x20\n      add\n      swap1\n      dup2\n      mstore\n      0x20\n      add\n      0x00\n      keccak256\n      0x00\n      swap1\n      sload\n      swap1\n      0x0100\n      exp\n      swap1\n      div\n      0xff\n      and\n        /* \"contracts/Shops.sol\":6629:6663  reviewCom[id][msg.sender] == false */\n      iszero\n      iszero\n      eq\n        /* \"contracts/Shops.sol\":6621:6694  require(reviewCom[id][msg.sender] == false,\"You already check this case\") */\n      tag_276\n      jumpi\n      mload(0x40)\n      0x08c379a000000000000000000000000000000000000000000000000000000000\n      dup2\n      mstore\n      0x04\n      add\n      tag_277\n      swap1\n      tag_278\n      jump\t// in\n    tag_277:\n      mload(0x40)\n      dup1\n      swap2\n      sub\n      swap1\n      revert\n    tag_276:\n        /* \"contracts/Shops.sol\":6704:6712  reviewId */\n      0x0f\n        /* \"contracts/Shops.sol\":6713:6715  id */\n      dup2\n        /* \"contracts/Shops.sol\":6704:6716  reviewId[id] */\n      mload(0x40)\n      tag_279\n      swap2\n      swap1\n      tag_174\n      jump\t// in\n    tag_279:\n      swap1\n      dup2\n      mstore\n      0x20\n      add\n      mload(0x40)\n      dup1\n      swap2\n      sub\n      swap1\n      keccak256\n        /* \"contracts/Shops.sol\":6704:6726  reviewId[id].likeCount */\n      0x03\n      add\n        /* \"contracts/Shops.sol\":6732:6742  msg.sender */\n      caller\n        /* \"contracts/Shops.sol\":6704:6743  reviewId[id].likeCount.push(msg.sender) */\n      swap1\n      dup1\n      0x01\n      dup2\n      sload\n      add\n      dup1\n      dup3\n      sstore\n      dup1\n      swap2\n      pop\n      pop\n      0x01\n      swap1\n      sub\n      swap1\n      0x00\n      mstore\n      keccak256(0x00, 0x20)\n      add\n      0x00\n      swap1\n      swap2\n      swap1\n      swap2\n      swap1\n      swap2\n      0x0100\n      exp\n      dup2\n      sload\n      dup2\n      0xffffffffffffffffffffffffffffffffffffffff\n      mul\n      not\n      and\n      swap1\n      dup4\n      0xffffffffffffffffffffffffffffffffffffffff\n      and\n      mul\n      or\n      swap1\n      sstore\n      pop\n        /* \"contracts/Shops.sol\":6781:6785  true */\n      0x01\n        /* \"contracts/Shops.sol\":6753:6762  reviewCom */\n      0x11\n        /* \"contracts/Shops.sol\":6763:6765  id */\n      dup3\n        /* \"contracts/Shops.sol\":6753:6766  reviewCom[id] */\n      mload(0x40)\n      tag_281\n      swap2\n      swap1\n      tag_174\n      jump\t// in\n    tag_281:\n      swap1\n      dup2\n      mstore\n      0x20\n      add\n      mload(0x40)\n      dup1\n      swap2\n      sub\n      swap1\n      keccak256\n        /* \"contracts/Shops.sol\":6753:6778  reviewCom[id][msg.sender] */\n      0x00\n        /* \"contracts/Shops.sol\":6767:6777  msg.sender */\n      caller\n        /* \"contracts/Shops.sol\":6753:6778  reviewCom[id][msg.sender] */\n      0xffffffffffffffffffffffffffffffffffffffff\n      and\n      0xffffffffffffffffffffffffffffffffffffffff\n      and\n      dup2\n      mstore\n      0x20\n      add\n      swap1\n      dup2\n      mstore\n      0x20\n      add\n      0x00\n      keccak256\n      0x00\n        /* \"contracts/Shops.sol\":6753:6785  reviewCom[id][msg.sender] = true */\n      0x0100\n      exp\n      dup2\n      sload\n      dup2\n      0xff\n      mul\n      not\n      and\n      swap1\n      dup4\n      iszero\n      iszero\n      mul\n      or\n      swap1\n      sstore\n      pop\n        /* \"contracts/Shops.sol\":6559:6792  function likeReview(string memory id) public isUser {... */\n      pop\n      jump\t// out\n        /* \"contracts/Shops.sol\":2345:2589  function registerProvider(string memory providerLogin,address providerAddr) public isAdmin {... */\n    tag_64:\n        /* \"contracts/Shops.sol\":1101:1106  admin */\n      0x05\n      0x00\n      swap1\n      sload\n      swap1\n      0x0100\n      exp\n      swap1\n      div\n      0xffffffffffffffffffffffffffffffffffffffff\n      and\n        /* \"contracts/Shops.sol\":1087:1106  msg.sender == admin */\n      0xffffffffffffffffffffffffffffffffffffffff\n      and\n        /* \"contracts/Shops.sol\":1087:1097  msg.sender */\n      caller\n        /* \"contracts/Shops.sol\":1087:1106  msg.sender == admin */\n      0xffffffffffffffffffffffffffffffffffffffff\n      and\n      eq\n        /* \"contracts/Shops.sol\":1079:1123  require(msg.sender == admin,\"You not admin\") */\n      tag_283\n      jumpi\n      mload(0x40)\n      0x08c379a000000000000000000000000000000000000000000000000000000000\n      dup2\n      mstore\n      0x04\n      add\n      tag_284\n      swap1\n      tag_150\n      jump\t// in\n    tag_284:\n      mload(0x40)\n      dup1\n      swap2\n      sub\n      swap1\n      revert\n    tag_283:\n        /* \"contracts/Shops.sol\":2446:2457  uint status */\n      0x00\n        /* \"contracts/Shops.sol\":2465:2483  UserRoles.provider */\n      0x04\n        /* \"contracts/Shops.sol\":2460:2484  uint(UserRoles.provider) */\n      0x05\n      dup2\n      gt\n      iszero\n      tag_286\n      jumpi\n      tag_287\n      tag_113\n      jump\t// in\n    tag_287:\n    tag_286:\n        /* \"contracts/Shops.sol\":2446:2484  uint status = uint(UserRoles.provider) */\n      swap1\n      pop\n        /* \"contracts/Shops.sol\":2494:2549  registerFromAdmin(\"\",providerLogin,status,providerAddr) */\n      tag_288\n      mload(0x40)\n      dup1\n      0x20\n      add\n      0x40\n      mstore\n      dup1\n      0x00\n      dup2\n      mstore\n      pop\n        /* \"contracts/Shops.sol\":2515:2528  providerLogin */\n      dup5\n        /* \"contracts/Shops.sol\":2529:2535  status */\n      dup4\n        /* \"contracts/Shops.sol\":2536:2548  providerAddr */\n      dup6\n        /* \"contracts/Shops.sol\":2494:2511  registerFromAdmin */\n      tag_155\n        /* \"contracts/Shops.sol\":2494:2549  registerFromAdmin(\"\",providerLogin,status,providerAddr) */\n      jump\t// in\n    tag_288:\n        /* \"contracts/Shops.sol\":2570:2582  providerAddr */\n      dup2\n        /* \"contracts/Shops.sol\":2559:2567  provider */\n      0x04\n      0x00\n        /* \"contracts/Shops.sol\":2559:2582  provider = providerAddr */\n      0x0100\n      exp\n      dup2\n      sload\n      dup2\n      0xffffffffffffffffffffffffffffffffffffffff\n      mul\n      not\n      and\n      swap1\n      dup4\n      0xffffffffffffffffffffffffffffffffffffffff\n      and\n      mul\n      or\n      swap1\n      sstore\n      pop\n        /* \"contracts/Shops.sol\":2436:2589  {... */\n      pop\n        /* \"contracts/Shops.sol\":2345:2589  function registerProvider(string memory providerLogin,address providerAddr) public isAdmin {... */\n      pop\n      pop\n      jump\t// out\n        /* \"contracts/Shops.sol\":3581:3784  function doShopDebt(address payable shopAddr) public isUserStatus(UserRoles.bank) {... */\n    tag_68:\n        /* \"contracts/Shops.sol\":3647:3661  UserRoles.bank */\n      0x05\n        /* \"contracts/AuthService.sol\":1617:1622  users */\n      0x02\n        /* \"contracts/AuthService.sol\":1617:1634  users[msg.sender] */\n      0x00\n        /* \"contracts/AuthService.sol\":1623:1633  msg.sender */\n      caller\n        /* \"contracts/AuthService.sol\":1617:1634  users[msg.sender] */\n      0xffffffffffffffffffffffffffffffffffffffff\n      and\n      0xffffffffffffffffffffffffffffffffffffffff\n      and\n      dup2\n      mstore\n      0x20\n      add\n      swap1\n      dup2\n      mstore\n      0x20\n      add\n      0x00\n      keccak256\n        /* \"contracts/AuthService.sol\":1617:1641  users[msg.sender].status */\n      0x00\n      add\n      sload\n        /* \"contracts/AuthService.sol\":1606:1612  status */\n      dup2\n        /* \"contracts/AuthService.sol\":1601:1613  uint(status) */\n      0x05\n      dup2\n      gt\n      iszero\n      tag_290\n      jumpi\n      tag_291\n      tag_113\n      jump\t// in\n    tag_291:\n    tag_290:\n        /* \"contracts/AuthService.sol\":1601:1641  uint(status) == users[msg.sender].status */\n      eq\n        /* \"contracts/AuthService.sol\":1593:1654  require(uint(status) == users[msg.sender].status,\"Forbidden\") */\n      tag_292\n      jumpi\n      mload(0x40)\n      0x08c379a000000000000000000000000000000000000000000000000000000000\n      dup2\n      mstore\n      0x04\n      add\n      tag_293\n      swap1\n      tag_116\n      jump\t// in\n    tag_293:\n      mload(0x40)\n      dup1\n      swap2\n      sub\n      swap1\n      revert\n    tag_292:\n        /* \"contracts/Shops.sol\":3712:3722  1000 ether */\n      0x3635c9adc5dea00000\n        /* \"contracts/Shops.sol\":3689:3699  msg.sender */\n      caller\n        /* \"contracts/Shops.sol\":3681:3708  payable(msg.sender).balance */\n      0xffffffffffffffffffffffffffffffffffffffff\n      and\n      balance\n        /* \"contracts/Shops.sol\":3681:3722  payable(msg.sender).balance >= 1000 ether */\n      lt\n      iszero\n        /* \"contracts/Shops.sol\":3673:3737  require(payable(msg.sender).balance >= 1000 ether,\"Low balance\") */\n      tag_295\n      jumpi\n      mload(0x40)\n      0x08c379a000000000000000000000000000000000000000000000000000000000\n      dup2\n      mstore\n      0x04\n      add\n      tag_296\n      swap1\n      tag_297\n      jump\t// in\n    tag_296:\n      mload(0x40)\n      dup1\n      swap2\n      sub\n      swap1\n      revert\n    tag_295:\n        /* \"contracts/Shops.sol\":3747:3755  shopAddr */\n      dup2\n        /* \"contracts/Shops.sol\":3747:3764  shopAddr.transfer */\n      0xffffffffffffffffffffffffffffffffffffffff\n      and\n        /* \"contracts/Shops.sol\":3747:3776  shopAddr.transfer(1000 ether) */\n      0x08fc\n        /* \"contracts/Shops.sol\":3765:3775  1000 ether */\n      0x3635c9adc5dea00000\n        /* \"contracts/Shops.sol\":3747:3776  shopAddr.transfer(1000 ether) */\n      swap1\n      dup2\n      iszero\n      mul\n      swap1\n      mload(0x40)\n      0x00\n      mload(0x40)\n      dup1\n      dup4\n      sub\n      dup2\n      dup6\n      dup9\n      dup9\n      call\n      swap4\n      pop\n      pop\n      pop\n      pop\n      iszero\n      dup1\n      iszero\n      tag_299\n      jumpi\n      returndatasize\n      0x00\n      dup1\n      returndatacopy\n      revert(0x00, returndatasize)\n    tag_299:\n      pop\n        /* \"contracts/Shops.sol\":3581:3784  function doShopDebt(address payable shopAddr) public isUserStatus(UserRoles.bank) {... */\n      pop\n      pop\n      jump\t// out\n        /* \"contracts/Shops.sol\":2914:3220  function registerSeller(string memory fio,string memory userLogin,address userAddress,address shopAddr) public {... */\n    tag_72:\n        /* \"contracts/Shops.sol\":3035:3046  uint status */\n      0x00\n        /* \"contracts/Shops.sol\":3054:3070  UserRoles.seller */\n      0x01\n        /* \"contracts/Shops.sol\":3049:3071  uint(UserRoles.seller) */\n      0x05\n      dup2\n      gt\n      iszero\n      tag_301\n      jumpi\n      tag_302\n      tag_113\n      jump\t// in\n    tag_302:\n    tag_301:\n        /* \"contracts/Shops.sol\":3035:3071  uint status = uint(UserRoles.seller) */\n      swap1\n      pop\n        /* \"contracts/Shops.sol\":3081:3132  registerFromAdmin(fio,userLogin,status,userAddress) */\n      tag_303\n        /* \"contracts/Shops.sol\":3099:3102  fio */\n      dup6\n        /* \"contracts/Shops.sol\":3103:3112  userLogin */\n      dup6\n        /* \"contracts/Shops.sol\":3113:3119  status */\n      dup4\n        /* \"contracts/Shops.sol\":3120:3131  userAddress */\n      dup7\n        /* \"contracts/Shops.sol\":3081:3098  registerFromAdmin */\n      tag_155\n        /* \"contracts/Shops.sol\":3081:3132  registerFromAdmin(fio,userLogin,status,userAddress) */\n      jump\t// in\n    tag_303:\n        /* \"contracts/Shops.sol\":3142:3149  sellers */\n      0x08\n        /* \"contracts/Shops.sol\":3155:3166  userAddress */\n      dup4\n        /* \"contracts/Shops.sol\":3142:3167  sellers.push(userAddress) */\n      swap1\n      dup1\n      0x01\n      dup2\n      sload\n      add\n      dup1\n      dup3\n      sstore\n      dup1\n      swap2\n      pop\n      pop\n      0x01\n      swap1\n      sub\n      swap1\n      0x00\n      mstore\n      keccak256(0x00, 0x20)\n      add\n      0x00\n      swap1\n      swap2\n      swap1\n      swap2\n      swap1\n      swap2\n      0x0100\n      exp\n      dup2\n      sload\n      dup2\n      0xffffffffffffffffffffffffffffffffffffffff\n      mul\n      not\n      and\n      swap1\n      dup4\n      0xffffffffffffffffffffffffffffffffffffffff\n      and\n      mul\n      or\n      swap1\n      sstore\n      pop\n        /* \"contracts/Shops.sol\":3177:3185  salesmen */\n      0x0d\n        /* \"contracts/Shops.sol\":3177:3195  salesmen[shopAddr] */\n      0x00\n        /* \"contracts/Shops.sol\":3186:3194  shopAddr */\n      dup4\n        /* \"contracts/Shops.sol\":3177:3195  salesmen[shopAddr] */\n      0xffffffffffffffffffffffffffffffffffffffff\n      and\n      0xffffffffffffffffffffffffffffffffffffffff\n      and\n      dup2\n      mstore\n      0x20\n      add\n      swap1\n      dup2\n      mstore\n      0x20\n      add\n      0x00\n      keccak256\n        /* \"contracts/Shops.sol\":3201:3212  userAddress */\n      dup4\n        /* \"contracts/Shops.sol\":3177:3213  salesmen[shopAddr].push(userAddress) */\n      swap1\n      dup1\n      0x01\n      dup2\n      sload\n      add\n      dup1\n      dup3\n      sstore\n      dup1\n      swap2\n      pop\n      pop\n      0x01\n      swap1\n      sub\n      swap1\n      0x00\n      mstore\n      keccak256(0x00, 0x20)\n      add\n      0x00\n      swap1\n      swap2\n      swap1\n      swap2\n      swap1\n      swap2\n      0x0100\n      exp\n      dup2\n      sload\n      dup2\n      0xffffffffffffffffffffffffffffffffffffffff\n      mul\n      not\n      and\n      swap1\n      dup4\n      0xffffffffffffffffffffffffffffffffffffffff\n      and\n      mul\n      or\n      swap1\n      sstore\n      pop\n        /* \"contracts/Shops.sol\":3025:3220  {... */\n      pop\n        /* \"contracts/Shops.sol\":2914:3220  function registerSeller(string memory fio,string memory userLogin,address userAddress,address shopAddr) public {... */\n      pop\n      pop\n      pop\n      pop\n      jump\t// out\n        /* \"contracts/Shops.sol\":4550:4914  function getBuyerInfo() public view isUser returns(... */\n    tag_74:\n        /* \"contracts/Shops.sol\":4610:4633  string memory userLogin */\n      0x60\n        /* \"contracts/Shops.sol\":4643:4660  string memory fio */\n      dup1\n        /* \"contracts/Shops.sol\":4670:4682  uint balance */\n      0x00\n        /* \"contracts/Shops.sol\":4692:4715  string[] memory reviews */\n      0x60\n        /* \"contracts/AuthService.sol\":1465:1504  compare(users[msg.sender].userLogin,\"\") */\n      tag_307\n        /* \"contracts/AuthService.sol\":1473:1478  users */\n      0x02\n        /* \"contracts/AuthService.sol\":1473:1490  users[msg.sender] */\n      0x00\n        /* \"contracts/AuthService.sol\":1479:1489  msg.sender */\n      caller\n        /* \"contracts/AuthService.sol\":1473:1490  users[msg.sender] */\n      0xffffffffffffffffffffffffffffffffffffffff\n      and\n      0xffffffffffffffffffffffffffffffffffffffff\n      and\n      dup2\n      mstore\n      0x20\n      add\n      swap1\n      dup2\n      mstore\n      0x20\n      add\n      0x00\n      keccak256\n        /* \"contracts/AuthService.sol\":1473:1500  users[msg.sender].userLogin */\n      0x01\n      add\n        /* \"contracts/AuthService.sol\":1465:1504  compare(users[msg.sender].userLogin,\"\") */\n      dup1\n      sload\n      tag_308\n      swap1\n      tag_119\n      jump\t// in\n    tag_308:\n      dup1\n      0x1f\n      add\n      0x20\n      dup1\n      swap2\n      div\n      mul\n      0x20\n      add\n      mload(0x40)\n      swap1\n      dup2\n      add\n      0x40\n      mstore\n      dup1\n      swap3\n      swap2\n      swap1\n      dup2\n      dup2\n      mstore\n      0x20\n      add\n      dup3\n      dup1\n      sload\n      tag_309\n      swap1\n      tag_119\n      jump\t// in\n    tag_309:\n      dup1\n      iszero\n      tag_310\n      jumpi\n      dup1\n      0x1f\n      lt\n      tag_311\n      jumpi\n      0x0100\n      dup1\n      dup4\n      sload\n      div\n      mul\n      dup4\n      mstore\n      swap2\n      0x20\n      add\n      swap2\n      jump(tag_310)\n    tag_311:\n      dup3\n      add\n      swap2\n      swap1\n      0x00\n      mstore\n      keccak256(0x00, 0x20)\n      swap1\n    tag_312:\n      dup2\n      sload\n      dup2\n      mstore\n      swap1\n      0x01\n      add\n      swap1\n      0x20\n      add\n      dup1\n      dup4\n      gt\n      tag_312\n      jumpi\n      dup3\n      swap1\n      sub\n      0x1f\n      and\n      dup3\n      add\n      swap2\n    tag_310:\n      pop\n      pop\n      pop\n      pop\n      pop\n      mload(0x40)\n      dup1\n      0x20\n      add\n      0x40\n      mstore\n      dup1\n      0x00\n      dup2\n      mstore\n      pop\n        /* \"contracts/AuthService.sol\":1465:1472  compare */\n      tag_163\n        /* \"contracts/AuthService.sol\":1465:1504  compare(users[msg.sender].userLogin,\"\") */\n      jump\t// in\n    tag_307:\n        /* \"contracts/AuthService.sol\":1464:1504  !compare(users[msg.sender].userLogin,\"\") */\n      iszero\n        /* \"contracts/AuthService.sol\":1456:1520  require(!compare(users[msg.sender].userLogin,\"\"),\"You not user\") */\n      tag_313\n      jumpi\n      mload(0x40)\n      0x08c379a000000000000000000000000000000000000000000000000000000000\n      dup2\n      mstore\n      0x04\n      add\n      tag_314\n      swap1\n      tag_166\n      jump\t// in\n    tag_314:\n      mload(0x40)\n      dup1\n      swap2\n      sub\n      swap1\n      revert\n    tag_313:\n        /* \"contracts/Shops.sol\":4731:4747  User memory user */\n      0x00\n        /* \"contracts/Shops.sol\":4750:4755  users */\n      0x02\n        /* \"contracts/Shops.sol\":4750:4767  users[msg.sender] */\n      0x00\n        /* \"contracts/Shops.sol\":4756:4766  msg.sender */\n      caller\n        /* \"contracts/Shops.sol\":4750:4767  users[msg.sender] */\n      0xffffffffffffffffffffffffffffffffffffffff\n      and\n      0xffffffffffffffffffffffffffffffffffffffff\n      and\n      dup2\n      mstore\n      0x20\n      add\n      swap1\n      dup2\n      mstore\n      0x20\n      add\n      0x00\n      keccak256\n        /* \"contracts/Shops.sol\":4731:4767  User memory user = users[msg.sender] */\n      mload(0x40)\n      dup1\n      0x80\n      add\n      0x40\n      mstore\n      swap1\n      dup2\n      0x00\n      dup3\n      add\n      sload\n      dup2\n      mstore\n      0x20\n      add\n      0x01\n      dup3\n      add\n      dup1\n      sload\n      tag_316\n      swap1\n      tag_119\n      jump\t// in\n    tag_316:\n      dup1\n      0x1f\n      add\n      0x20\n      dup1\n      swap2\n      div\n      mul\n      0x20\n      add\n      mload(0x40)\n      swap1\n      dup2\n      add\n      0x40\n      mstore\n      dup1\n      swap3\n      swap2\n      swap1\n      dup2\n      dup2\n      mstore\n      0x20\n      add\n      dup3\n      dup1\n      sload\n      tag_317\n      swap1\n      tag_119\n      jump\t// in\n    tag_317:\n      dup1\n      iszero\n      tag_318\n      jumpi\n      dup1\n      0x1f\n      lt\n      tag_319\n      jumpi\n      0x0100\n      dup1\n      dup4\n      sload\n      div\n      mul\n      dup4\n      mstore\n      swap2\n      0x20\n      add\n      swap2\n      jump(tag_318)\n    tag_319:\n      dup3\n      add\n      swap2\n      swap1\n      0x00\n      mstore\n      keccak256(0x00, 0x20)\n      swap1\n    tag_320:\n      dup2\n      sload\n      dup2\n      mstore\n      swap1\n      0x01\n      add\n      swap1\n      0x20\n      add\n      dup1\n      dup4\n      gt\n      tag_320\n      jumpi\n      dup3\n      swap1\n      sub\n      0x1f\n      and\n      dup3\n      add\n      swap2\n    tag_318:\n      pop\n      pop\n      pop\n      pop\n      pop\n      dup2\n      mstore\n      0x20\n      add\n      0x02\n      dup3\n      add\n      dup1\n      sload\n      tag_321\n      swap1\n      tag_119\n      jump\t// in\n    tag_321:\n      dup1\n      0x1f\n      add\n      0x20\n      dup1\n      swap2\n      div\n      mul\n      0x20\n      add\n      mload(0x40)\n      swap1\n      dup2\n      add\n      0x40\n      mstore\n      dup1\n      swap3\n      swap2\n      swap1\n      dup2\n      dup2\n      mstore\n      0x20\n      add\n      dup3\n      dup1\n      sload\n      tag_322\n      swap1\n      tag_119\n      jump\t// in\n    tag_322:\n      dup1\n      iszero\n      tag_323\n      jumpi\n      dup1\n      0x1f\n      lt\n      tag_324\n      jumpi\n      0x0100\n      dup1\n      dup4\n      sload\n      div\n      mul\n      dup4\n      mstore\n      swap2\n      0x20\n      add\n      swap2\n      jump(tag_323)\n    tag_324:\n      dup3\n      add\n      swap2\n      swap1\n      0x00\n      mstore\n      keccak256(0x00, 0x20)\n      swap1\n    tag_325:\n      dup2\n      sload\n      dup2\n      mstore\n      swap1\n      0x01\n      add\n      swap1\n      0x20\n      add\n      dup1\n      dup4\n      gt\n      tag_325\n      jumpi\n      dup3\n      swap1\n      sub\n      0x1f\n      and\n      dup3\n      add\n      swap2\n    tag_323:\n      pop\n      pop\n      pop\n      pop\n      pop\n      dup2\n      mstore\n      0x20\n      add\n      0x03\n      dup3\n      add\n      dup1\n      sload\n      dup1\n      0x20\n      mul\n      0x20\n      add\n      mload(0x40)\n      swap1\n      dup2\n      add\n      0x40\n      mstore\n      dup1\n      swap3\n      swap2\n      swap1\n      dup2\n      dup2\n      mstore\n      0x20\n      add\n      0x00\n      swap1\n    tag_326:\n      dup3\n      dup3\n      lt\n      iszero\n      tag_327\n      jumpi\n      dup4\n      dup3\n      swap1\n      0x00\n      mstore\n      keccak256(0x00, 0x20)\n      add\n      dup1\n      sload\n      tag_329\n      swap1\n      tag_119\n      jump\t// in\n    tag_329:\n      dup1\n      0x1f\n      add\n      0x20\n      dup1\n      swap2\n      div\n      mul\n      0x20\n      add\n      mload(0x40)\n      swap1\n      dup2\n      add\n      0x40\n      mstore\n      dup1\n      swap3\n      swap2\n      swap1\n      dup2\n      dup2\n      mstore\n      0x20\n      add\n      dup3\n      dup1\n      sload\n      tag_330\n      swap1\n      tag_119\n      jump\t// in\n    tag_330:\n      dup1\n      iszero\n      tag_331\n      jumpi\n      dup1\n      0x1f\n      lt\n      tag_332\n      jumpi\n      0x0100\n      dup1\n      dup4\n      sload\n      div\n      mul\n      dup4\n      mstore\n      swap2\n      0x20\n      add\n      swap2\n      jump(tag_331)\n    tag_332:\n      dup3\n      add\n      swap2\n      swap1\n      0x00\n      mstore\n      keccak256(0x00, 0x20)\n      swap1\n    tag_333:\n      dup2\n      sload\n      dup2\n      mstore\n      swap1\n      0x01\n      add\n      swap1\n      0x20\n      add\n      dup1\n      dup4\n      gt\n      tag_333\n      jumpi\n      dup3\n      swap1\n      sub\n      0x1f\n      and\n      dup3\n      add\n      swap2\n    tag_331:\n      pop\n      pop\n      pop\n      pop\n      pop\n      dup2\n      mstore\n      0x20\n      add\n      swap1\n      0x01\n      add\n      swap1\n      jump(tag_326)\n    tag_327:\n      pop\n      pop\n      pop\n      pop\n      dup2\n      mstore\n      pop\n      pop\n      swap1\n      pop\n        /* \"contracts/Shops.sol\":4790:4794  user */\n      dup1\n        /* \"contracts/Shops.sol\":4790:4804  user.userLogin */\n      0x20\n      add\n      mload\n        /* \"contracts/Shops.sol\":4778:4804  userLogin = user.userLogin */\n      swap5\n      pop\n        /* \"contracts/Shops.sol\":4820:4824  user */\n      dup1\n        /* \"contracts/Shops.sol\":4820:4828  user.fio */\n      0x40\n      add\n      mload\n        /* \"contracts/Shops.sol\":4814:4828  fio = user.fio */\n      swap4\n      pop\n        /* \"contracts/Shops.sol\":4856:4866  msg.sender */\n      caller\n        /* \"contracts/Shops.sol\":4848:4875  payable(msg.sender).balance */\n      0xffffffffffffffffffffffffffffffffffffffff\n      and\n      balance\n        /* \"contracts/Shops.sol\":4838:4875  balance = payable(msg.sender).balance */\n      swap3\n      pop\n        /* \"contracts/Shops.sol\":4895:4899  user */\n      dup1\n        /* \"contracts/Shops.sol\":4895:4907  user.reviews */\n      0x60\n      add\n      mload\n        /* \"contracts/Shops.sol\":4885:4907  reviews = user.reviews */\n      swap2\n      pop\n        /* \"contracts/Shops.sol\":4721:4914  {... */\n      pop\n        /* \"contracts/Shops.sol\":4550:4914  function getBuyerInfo() public view isUser returns(... */\n      swap1\n      swap2\n      swap3\n      swap4\n      jump\t// out\n        /* \"contracts/Shops.sol\":3287:3486  function registerBuyer(string memory fio,string memory userLogin,address userAddr) public{... */\n    tag_80:\n        /* \"contracts/Shops.sol\":3386:3397  uint status */\n      0x00\n        /* \"contracts/Shops.sol\":3405:3420  UserRoles.buyer */\n      dup1\n        /* \"contracts/Shops.sol\":3400:3421  uint(UserRoles.buyer) */\n      0x05\n      dup2\n      gt\n      iszero\n      tag_335\n      jumpi\n      tag_336\n      tag_113\n      jump\t// in\n    tag_336:\n    tag_335:\n        /* \"contracts/Shops.sol\":3386:3421  uint status = uint(UserRoles.buyer) */\n      swap1\n      pop\n        /* \"contracts/Shops.sol\":3431:3479  registerFromAdmin(fio,userLogin,status,userAddr) */\n      tag_337\n        /* \"contracts/Shops.sol\":3449:3452  fio */\n      dup5\n        /* \"contracts/Shops.sol\":3453:3462  userLogin */\n      dup5\n        /* \"contracts/Shops.sol\":3463:3469  status */\n      dup4\n        /* \"contracts/Shops.sol\":3470:3478  userAddr */\n      dup6\n        /* \"contracts/Shops.sol\":3431:3448  registerFromAdmin */\n      tag_155\n        /* \"contracts/Shops.sol\":3431:3479  registerFromAdmin(fio,userLogin,status,userAddr) */\n      jump\t// in\n    tag_337:\n        /* \"contracts/Shops.sol\":3376:3486  {... */\n      pop\n        /* \"contracts/Shops.sol\":3287:3486  function registerBuyer(string memory fio,string memory userLogin,address userAddr) public{... */\n      pop\n      pop\n      pop\n      jump\t// out\n        /* \"contracts/Shops.sol\":1575:1833  function regAdmin(address adminAddr,string memory fio,string memory userLogin) public isUserStatus(UserRoles.admin){... */\n    tag_84:\n        /* \"contracts/Shops.sol\":1674:1689  UserRoles.admin */\n      0x03\n        /* \"contracts/AuthService.sol\":1617:1622  users */\n      0x02\n        /* \"contracts/AuthService.sol\":1617:1634  users[msg.sender] */\n      0x00\n        /* \"contracts/AuthService.sol\":1623:1633  msg.sender */\n      caller\n        /* \"contracts/AuthService.sol\":1617:1634  users[msg.sender] */\n      0xffffffffffffffffffffffffffffffffffffffff\n      and\n      0xffffffffffffffffffffffffffffffffffffffff\n      and\n      dup2\n      mstore\n      0x20\n      add\n      swap1\n      dup2\n      mstore\n      0x20\n      add\n      0x00\n      keccak256\n        /* \"contracts/AuthService.sol\":1617:1641  users[msg.sender].status */\n      0x00\n      add\n      sload\n        /* \"contracts/AuthService.sol\":1606:1612  status */\n      dup2\n        /* \"contracts/AuthService.sol\":1601:1613  uint(status) */\n      0x05\n      dup2\n      gt\n      iszero\n      tag_339\n      jumpi\n      tag_340\n      tag_113\n      jump\t// in\n    tag_340:\n    tag_339:\n        /* \"contracts/AuthService.sol\":1601:1641  uint(status) == users[msg.sender].status */\n      eq\n        /* \"contracts/AuthService.sol\":1593:1654  require(uint(status) == users[msg.sender].status,\"Forbidden\") */\n      tag_341\n      jumpi\n      mload(0x40)\n      0x08c379a000000000000000000000000000000000000000000000000000000000\n      dup2\n      mstore\n      0x04\n      add\n      tag_342\n      swap1\n      tag_116\n      jump\t// in\n    tag_342:\n      mload(0x40)\n      dup1\n      swap2\n      sub\n      swap1\n      revert\n    tag_341:\n        /* \"contracts/Shops.sol\":1700:1711  uint status */\n      0x00\n        /* \"contracts/Shops.sol\":1719:1734  UserRoles.admin */\n      0x03\n        /* \"contracts/Shops.sol\":1714:1735  uint(UserRoles.admin) */\n      0x05\n      dup2\n      gt\n      iszero\n      tag_344\n      jumpi\n      tag_345\n      tag_113\n      jump\t// in\n    tag_345:\n    tag_344:\n        /* \"contracts/Shops.sol\":1700:1735  uint status = uint(UserRoles.admin) */\n      swap1\n      pop\n        /* \"contracts/Shops.sol\":1745:1794  registerFromAdmin(fio,userLogin,status,adminAddr) */\n      tag_346\n        /* \"contracts/Shops.sol\":1763:1766  fio */\n      dup5\n        /* \"contracts/Shops.sol\":1767:1776  userLogin */\n      dup5\n        /* \"contracts/Shops.sol\":1777:1783  status */\n      dup4\n        /* \"contracts/Shops.sol\":1784:1793  adminAddr */\n      dup9\n        /* \"contracts/Shops.sol\":1745:1762  registerFromAdmin */\n      tag_155\n        /* \"contracts/Shops.sol\":1745:1794  registerFromAdmin(fio,userLogin,status,adminAddr) */\n      jump\t// in\n    tag_346:\n        /* \"contracts/Shops.sol\":1804:1810  admins */\n      0x06\n        /* \"contracts/Shops.sol\":1816:1825  userLogin */\n      dup4\n        /* \"contracts/Shops.sol\":1804:1826  admins.push(userLogin) */\n      swap1\n      dup1\n      0x01\n      dup2\n      sload\n      add\n      dup1\n      dup3\n      sstore\n      dup1\n      swap2\n      pop\n      pop\n      0x01\n      swap1\n      sub\n      swap1\n      0x00\n      mstore\n      keccak256(0x00, 0x20)\n      add\n      0x00\n      swap1\n      swap2\n      swap1\n      swap2\n      swap1\n      swap2\n      pop\n      swap1\n      dup1\n      mload\n      swap1\n      0x20\n      add\n      swap1\n      tag_348\n      swap3\n      swap2\n      swap1\n      tag_170\n      jump\t// in\n    tag_348:\n      pop\n        /* \"contracts/Shops.sol\":1690:1833  {... */\n      pop\n        /* \"contracts/Shops.sol\":1575:1833  function regAdmin(address adminAddr,string memory fio,string memory userLogin) public isUserStatus(UserRoles.admin){... */\n      pop\n      pop\n      pop\n      pop\n      jump\t// out\n        /* \"contracts/Shops.sol\":7535:7959  function requestToSeller(string memory id) public isUserStatus(UserRoles.buyer){... */\n    tag_87:\n        /* \"contracts/Shops.sol\":7598:7613  UserRoles.buyer */\n      0x00\n        /* \"contracts/AuthService.sol\":1617:1622  users */\n      0x02\n        /* \"contracts/AuthService.sol\":1617:1634  users[msg.sender] */\n      0x00\n        /* \"contracts/AuthService.sol\":1623:1633  msg.sender */\n      caller\n        /* \"contracts/AuthService.sol\":1617:1634  users[msg.sender] */\n      0xffffffffffffffffffffffffffffffffffffffff\n      and\n      0xffffffffffffffffffffffffffffffffffffffff\n      and\n      dup2\n      mstore\n      0x20\n      add\n      swap1\n      dup2\n      mstore\n      0x20\n      add\n      0x00\n      keccak256\n        /* \"contracts/AuthService.sol\":1617:1641  users[msg.sender].status */\n      0x00\n      add\n      sload\n        /* \"contracts/AuthService.sol\":1606:1612  status */\n      dup2\n        /* \"contracts/AuthService.sol\":1601:1613  uint(status) */\n      0x05\n      dup2\n      gt\n      iszero\n      tag_350\n      jumpi\n      tag_351\n      tag_113\n      jump\t// in\n    tag_351:\n    tag_350:\n        /* \"contracts/AuthService.sol\":1601:1641  uint(status) == users[msg.sender].status */\n      eq\n        /* \"contracts/AuthService.sol\":1593:1654  require(uint(status) == users[msg.sender].status,\"Forbidden\") */\n      tag_352\n      jumpi\n      mload(0x40)\n      0x08c379a000000000000000000000000000000000000000000000000000000000\n      dup2\n      mstore\n      0x04\n      add\n      tag_353\n      swap1\n      tag_116\n      jump\t// in\n    tag_353:\n      mload(0x40)\n      dup1\n      swap2\n      sub\n      swap1\n      revert\n    tag_352:\n        /* \"contracts/Shops.sol\":7624:7649  string memory currentRole */\n      0x00\n        /* \"contracts/Shops.sol\":7652:7662  userStatus */\n      dup1\n        /* \"contracts/Shops.sol\":7652:7685  userStatus[uint(UserRoles.buyer)] */\n      0x00\n        /* \"contracts/Shops.sol\":7668:7683  UserRoles.buyer */\n      dup1\n        /* \"contracts/Shops.sol\":7663:7684  uint(UserRoles.buyer) */\n      0x05\n      dup2\n      gt\n      iszero\n      tag_355\n      jumpi\n      tag_356\n      tag_113\n      jump\t// in\n    tag_356:\n    tag_355:\n        /* \"contracts/Shops.sol\":7652:7685  userStatus[uint(UserRoles.buyer)] */\n      dup2\n      mstore\n      0x20\n      add\n      swap1\n      dup2\n      mstore\n      0x20\n      add\n      0x00\n      keccak256\n        /* \"contracts/Shops.sol\":7624:7685  string memory currentRole = userStatus[uint(UserRoles.buyer)] */\n      dup1\n      sload\n      tag_357\n      swap1\n      tag_119\n      jump\t// in\n    tag_357:\n      dup1\n      0x1f\n      add\n      0x20\n      dup1\n      swap2\n      div\n      mul\n      0x20\n      add\n      mload(0x40)\n      swap1\n      dup2\n      add\n      0x40\n      mstore\n      dup1\n      swap3\n      swap2\n      swap1\n      dup2\n      dup2\n      mstore\n      0x20\n      add\n      dup3\n      dup1\n      sload\n      tag_358\n      swap1\n      tag_119\n      jump\t// in\n    tag_358:\n      dup1\n      iszero\n      tag_359\n      jumpi\n      dup1\n      0x1f\n      lt\n      tag_360\n      jumpi\n      0x0100\n      dup1\n      dup4\n      sload\n      div\n      mul\n      dup4\n      mstore\n      swap2\n      0x20\n      add\n      swap2\n      jump(tag_359)\n    tag_360:\n      dup3\n      add\n      swap2\n      swap1\n      0x00\n      mstore\n      keccak256(0x00, 0x20)\n      swap1\n    tag_361:\n      dup2\n      sload\n      dup2\n      mstore\n      swap1\n      0x01\n      add\n      swap1\n      0x20\n      add\n      dup1\n      dup4\n      gt\n      tag_361\n      jumpi\n      dup3\n      swap1\n      sub\n      0x1f\n      and\n      dup3\n      add\n      swap2\n    tag_359:\n      pop\n      pop\n      pop\n      pop\n      pop\n      swap1\n      pop\n        /* \"contracts/Shops.sol\":7695:7720  string memory desiredRole */\n      0x00\n        /* \"contracts/Shops.sol\":7723:7733  userStatus */\n      dup1\n        /* \"contracts/Shops.sol\":7723:7757  userStatus[uint(UserRoles.seller)] */\n      0x00\n        /* \"contracts/Shops.sol\":7739:7755  UserRoles.seller */\n      0x01\n        /* \"contracts/Shops.sol\":7734:7756  uint(UserRoles.seller) */\n      0x05\n      dup2\n      gt\n      iszero\n      tag_362\n      jumpi\n      tag_363\n      tag_113\n      jump\t// in\n    tag_363:\n    tag_362:\n        /* \"contracts/Shops.sol\":7723:7757  userStatus[uint(UserRoles.seller)] */\n      dup2\n      mstore\n      0x20\n      add\n      swap1\n      dup2\n      mstore\n      0x20\n      add\n      0x00\n      keccak256\n        /* \"contracts/Shops.sol\":7695:7757  string memory desiredRole = userStatus[uint(UserRoles.seller)] */\n      dup1\n      sload\n      tag_364\n      swap1\n      tag_119\n      jump\t// in\n    tag_364:\n      dup1\n      0x1f\n      add\n      0x20\n      dup1\n      swap2\n      div\n      mul\n      0x20\n      add\n      mload(0x40)\n      swap1\n      dup2\n      add\n      0x40\n      mstore\n      dup1\n      swap3\n      swap2\n      swap1\n      dup2\n      dup2\n      mstore\n      0x20\n      add\n      dup3\n      dup1\n      sload\n      tag_365\n      swap1\n      tag_119\n      jump\t// in\n    tag_365:\n      dup1\n      iszero\n      tag_366\n      jumpi\n      dup1\n      0x1f\n      lt\n      tag_367\n      jumpi\n      0x0100\n      dup1\n      dup4\n      sload\n      div\n      mul\n      dup4\n      mstore\n      swap2\n      0x20\n      add\n      swap2\n      jump(tag_366)\n    tag_367:\n      dup3\n      add\n      swap2\n      swap1\n      0x00\n      mstore\n      keccak256(0x00, 0x20)\n      swap1\n    tag_368:\n      dup2\n      sload\n      dup2\n      mstore\n      swap1\n      0x01\n      add\n      swap1\n      0x20\n      add\n      dup1\n      dup4\n      gt\n      tag_368\n      jumpi\n      dup3\n      swap1\n      sub\n      0x1f\n      and\n      dup3\n      add\n      swap2\n    tag_366:\n      pop\n      pop\n      pop\n      pop\n      pop\n      swap1\n      pop\n        /* \"contracts/Shops.sol\":7767:7784  Request memory rq */\n      0x00\n        /* \"contracts/Shops.sol\":7787:7897  Request(... */\n      mload(0x40)\n      dup1\n      0x80\n      add\n      0x40\n      mstore\n      dup1\n        /* \"contracts/Shops.sol\":7808:7818  msg.sender */\n      caller\n        /* \"contracts/Shops.sol\":7787:7897  Request(... */\n      0xffffffffffffffffffffffffffffffffffffffff\n      and\n      dup2\n      mstore\n      0x20\n      add\n        /* \"contracts/Shops.sol\":7832:7843  currentRole */\n      dup5\n        /* \"contracts/Shops.sol\":7787:7897  Request(... */\n      dup2\n      mstore\n      0x20\n      add\n        /* \"contracts/Shops.sol\":7857:7868  desiredRole */\n      dup4\n        /* \"contracts/Shops.sol\":7787:7897  Request(... */\n      dup2\n      mstore\n      0x20\n      add\n        /* \"contracts/Shops.sol\":7882:7887  false */\n      0x00\n        /* \"contracts/Shops.sol\":7787:7897  Request(... */\n      iszero\n      iszero\n      dup2\n      mstore\n      pop\n        /* \"contracts/Shops.sol\":7767:7897  Request memory rq = Request(... */\n      swap1\n      pop\n        /* \"contracts/Shops.sol\":7923:7925  rq */\n      dup1\n        /* \"contracts/Shops.sol\":7907:7916  requestId */\n      0x10\n        /* \"contracts/Shops.sol\":7917:7919  id */\n      dup7\n        /* \"contracts/Shops.sol\":7907:7920  requestId[id] */\n      mload(0x40)\n      tag_369\n      swap2\n      swap1\n      tag_174\n      jump\t// in\n    tag_369:\n      swap1\n      dup2\n      mstore\n      0x20\n      add\n      mload(0x40)\n      dup1\n      swap2\n      sub\n      swap1\n      keccak256\n        /* \"contracts/Shops.sol\":7907:7925  requestId[id] = rq */\n      0x00\n      dup3\n      add\n      mload\n      dup2\n      0x00\n      add\n      exp(0x0100, 0x00)\n      dup2\n      sload\n      dup2\n      0xffffffffffffffffffffffffffffffffffffffff\n      mul\n      not\n      and\n      swap1\n      dup4\n      0xffffffffffffffffffffffffffffffffffffffff\n      and\n      mul\n      or\n      swap1\n      sstore\n      pop\n      0x20\n      dup3\n      add\n      mload\n      dup2\n      0x01\n      add\n      swap1\n      dup1\n      mload\n      swap1\n      0x20\n      add\n      swap1\n      tag_370\n      swap3\n      swap2\n      swap1\n      tag_170\n      jump\t// in\n    tag_370:\n      pop\n      0x40\n      dup3\n      add\n      mload\n      dup2\n      0x02\n      add\n      swap1\n      dup1\n      mload\n      swap1\n      0x20\n      add\n      swap1\n      tag_371\n      swap3\n      swap2\n      swap1\n      tag_170\n      jump\t// in\n    tag_371:\n      pop\n      0x60\n      dup3\n      add\n      mload\n      dup2\n      0x03\n      add\n      exp(0x0100, 0x00)\n      dup2\n      sload\n      dup2\n      0xff\n      mul\n      not\n      and\n      swap1\n      dup4\n      iszero\n      iszero\n      mul\n      or\n      swap1\n      sstore\n      pop\n      swap1\n      pop\n      pop\n        /* \"contracts/Shops.sol\":7935:7943  requests */\n      0x0a\n        /* \"contracts/Shops.sol\":7949:7951  rq */\n      dup2\n        /* \"contracts/Shops.sol\":7935:7952  requests.push(rq) */\n      swap1\n      dup1\n      0x01\n      dup2\n      sload\n      add\n      dup1\n      dup3\n      sstore\n      dup1\n      swap2\n      pop\n      pop\n      0x01\n      swap1\n      sub\n      swap1\n      0x00\n      mstore\n      keccak256(0x00, 0x20)\n      swap1\n      0x04\n      mul\n      add\n      0x00\n      swap1\n      swap2\n      swap1\n      swap2\n      swap1\n      swap2\n      pop\n      0x00\n      dup3\n      add\n      mload\n      dup2\n      0x00\n      add\n      exp(0x0100, 0x00)\n      dup2\n      sload\n      dup2\n      0xffffffffffffffffffffffffffffffffffffffff\n      mul\n      not\n      and\n      swap1\n      dup4\n      0xffffffffffffffffffffffffffffffffffffffff\n      and\n      mul\n      or\n      swap1\n      sstore\n      pop\n      0x20\n      dup3\n      add\n      mload\n      dup2\n      0x01\n      add\n      swap1\n      dup1\n      mload\n      swap1\n      0x20\n      add\n      swap1\n      tag_373\n      swap3\n      swap2\n      swap1\n      tag_170\n      jump\t// in\n    tag_373:\n      pop\n      0x40\n      dup3\n      add\n      mload\n      dup2\n      0x02\n      add\n      swap1\n      dup1\n      mload\n      swap1\n      0x20\n      add\n      swap1\n      tag_374\n      swap3\n      swap2\n      swap1\n      tag_170\n      jump\t// in\n    tag_374:\n      pop\n      0x60\n      dup3\n      add\n      mload\n      dup2\n      0x03\n      add\n      exp(0x0100, 0x00)\n      dup2\n      sload\n      dup2\n      0xff\n      mul\n      not\n      and\n      swap1\n      dup4\n      iszero\n      iszero\n      mul\n      or\n      swap1\n      sstore\n      pop\n      pop\n      pop\n        /* \"contracts/Shops.sol\":7614:7959  {... */\n      pop\n      pop\n      pop\n        /* \"contracts/Shops.sol\":7535:7959  function requestToSeller(string memory id) public isUserStatus(UserRoles.buyer){... */\n      pop\n      pop\n      jump\t// out\n        /* \"contracts/Shops.sol\":7965:8392  function downRequestToByer(string memory id) public isUserStatus(UserRoles.seller){... */\n    tag_90:\n        /* \"contracts/Shops.sol\":8030:8046  UserRoles.seller */\n      0x01\n        /* \"contracts/AuthService.sol\":1617:1622  users */\n      0x02\n        /* \"contracts/AuthService.sol\":1617:1634  users[msg.sender] */\n      0x00\n        /* \"contracts/AuthService.sol\":1623:1633  msg.sender */\n      caller\n        /* \"contracts/AuthService.sol\":1617:1634  users[msg.sender] */\n      0xffffffffffffffffffffffffffffffffffffffff\n      and\n      0xffffffffffffffffffffffffffffffffffffffff\n      and\n      dup2\n      mstore\n      0x20\n      add\n      swap1\n      dup2\n      mstore\n      0x20\n      add\n      0x00\n      keccak256\n        /* \"contracts/AuthService.sol\":1617:1641  users[msg.sender].status */\n      0x00\n      add\n      sload\n        /* \"contracts/AuthService.sol\":1606:1612  status */\n      dup2\n        /* \"contracts/AuthService.sol\":1601:1613  uint(status) */\n      0x05\n      dup2\n      gt\n      iszero\n      tag_376\n      jumpi\n      tag_377\n      tag_113\n      jump\t// in\n    tag_377:\n    tag_376:\n        /* \"contracts/AuthService.sol\":1601:1641  uint(status) == users[msg.sender].status */\n      eq\n        /* \"contracts/AuthService.sol\":1593:1654  require(uint(status) == users[msg.sender].status,\"Forbidden\") */\n      tag_378\n      jumpi\n      mload(0x40)\n      0x08c379a000000000000000000000000000000000000000000000000000000000\n      dup2\n      mstore\n      0x04\n      add\n      tag_379\n      swap1\n      tag_116\n      jump\t// in\n    tag_379:\n      mload(0x40)\n      dup1\n      swap2\n      sub\n      swap1\n      revert\n    tag_378:\n        /* \"contracts/Shops.sol\":8057:8082  string memory desiredRole */\n      0x00\n        /* \"contracts/Shops.sol\":8085:8095  userStatus */\n      dup1\n        /* \"contracts/Shops.sol\":8085:8118  userStatus[uint(UserRoles.buyer)] */\n      0x00\n        /* \"contracts/Shops.sol\":8101:8116  UserRoles.buyer */\n      dup1\n        /* \"contracts/Shops.sol\":8096:8117  uint(UserRoles.buyer) */\n      0x05\n      dup2\n      gt\n      iszero\n      tag_381\n      jumpi\n      tag_382\n      tag_113\n      jump\t// in\n    tag_382:\n    tag_381:\n        /* \"contracts/Shops.sol\":8085:8118  userStatus[uint(UserRoles.buyer)] */\n      dup2\n      mstore\n      0x20\n      add\n      swap1\n      dup2\n      mstore\n      0x20\n      add\n      0x00\n      keccak256\n        /* \"contracts/Shops.sol\":8057:8118  string memory desiredRole = userStatus[uint(UserRoles.buyer)] */\n      dup1\n      sload\n      tag_383\n      swap1\n      tag_119\n      jump\t// in\n    tag_383:\n      dup1\n      0x1f\n      add\n      0x20\n      dup1\n      swap2\n      div\n      mul\n      0x20\n      add\n      mload(0x40)\n      swap1\n      dup2\n      add\n      0x40\n      mstore\n      dup1\n      swap3\n      swap2\n      swap1\n      dup2\n      dup2\n      mstore\n      0x20\n      add\n      dup3\n      dup1\n      sload\n      tag_384\n      swap1\n      tag_119\n      jump\t// in\n    tag_384:\n      dup1\n      iszero\n      tag_385\n      jumpi\n      dup1\n      0x1f\n      lt\n      tag_386\n      jumpi\n      0x0100\n      dup1\n      dup4\n      sload\n      div\n      mul\n      dup4\n      mstore\n      swap2\n      0x20\n      add\n      swap2\n      jump(tag_385)\n    tag_386:\n      dup3\n      add\n      swap2\n      swap1\n      0x00\n      mstore\n      keccak256(0x00, 0x20)\n      swap1\n    tag_387:\n      dup2\n      sload\n      dup2\n      mstore\n      swap1\n      0x01\n      add\n      swap1\n      0x20\n      add\n      dup1\n      dup4\n      gt\n      tag_387\n      jumpi\n      dup3\n      swap1\n      sub\n      0x1f\n      and\n      dup3\n      add\n      swap2\n    tag_385:\n      pop\n      pop\n      pop\n      pop\n      pop\n      swap1\n      pop\n        /* \"contracts/Shops.sol\":8128:8153  string memory currentRole */\n      0x00\n        /* \"contracts/Shops.sol\":8156:8166  userStatus */\n      dup1\n        /* \"contracts/Shops.sol\":8156:8190  userStatus[uint(UserRoles.seller)] */\n      0x00\n        /* \"contracts/Shops.sol\":8172:8188  UserRoles.seller */\n      0x01\n        /* \"contracts/Shops.sol\":8167:8189  uint(UserRoles.seller) */\n      0x05\n      dup2\n      gt\n      iszero\n      tag_388\n      jumpi\n      tag_389\n      tag_113\n      jump\t// in\n    tag_389:\n    tag_388:\n        /* \"contracts/Shops.sol\":8156:8190  userStatus[uint(UserRoles.seller)] */\n      dup2\n      mstore\n      0x20\n      add\n      swap1\n      dup2\n      mstore\n      0x20\n      add\n      0x00\n      keccak256\n        /* \"contracts/Shops.sol\":8128:8190  string memory currentRole = userStatus[uint(UserRoles.seller)] */\n      dup1\n      sload\n      tag_390\n      swap1\n      tag_119\n      jump\t// in\n    tag_390:\n      dup1\n      0x1f\n      add\n      0x20\n      dup1\n      swap2\n      div\n      mul\n      0x20\n      add\n      mload(0x40)\n      swap1\n      dup2\n      add\n      0x40\n      mstore\n      dup1\n      swap3\n      swap2\n      swap1\n      dup2\n      dup2\n      mstore\n      0x20\n      add\n      dup3\n      dup1\n      sload\n      tag_391\n      swap1\n      tag_119\n      jump\t// in\n    tag_391:\n      dup1\n      iszero\n      tag_392\n      jumpi\n      dup1\n      0x1f\n      lt\n      tag_393\n      jumpi\n      0x0100\n      dup1\n      dup4\n      sload\n      div\n      mul\n      dup4\n      mstore\n      swap2\n      0x20\n      add\n      swap2\n      jump(tag_392)\n    tag_393:\n      dup3\n      add\n      swap2\n      swap1\n      0x00\n      mstore\n      keccak256(0x00, 0x20)\n      swap1\n    tag_394:\n      dup2\n      sload\n      dup2\n      mstore\n      swap1\n      0x01\n      add\n      swap1\n      0x20\n      add\n      dup1\n      dup4\n      gt\n      tag_394\n      jumpi\n      dup3\n      swap1\n      sub\n      0x1f\n      and\n      dup3\n      add\n      swap2\n    tag_392:\n      pop\n      pop\n      pop\n      pop\n      pop\n      swap1\n      pop\n        /* \"contracts/Shops.sol\":8200:8217  Request memory rq */\n      0x00\n        /* \"contracts/Shops.sol\":8220:8330  Request(... */\n      mload(0x40)\n      dup1\n      0x80\n      add\n      0x40\n      mstore\n      dup1\n        /* \"contracts/Shops.sol\":8241:8251  msg.sender */\n      caller\n        /* \"contracts/Shops.sol\":8220:8330  Request(... */\n      0xffffffffffffffffffffffffffffffffffffffff\n      and\n      dup2\n      mstore\n      0x20\n      add\n        /* \"contracts/Shops.sol\":8265:8276  currentRole */\n      dup4\n        /* \"contracts/Shops.sol\":8220:8330  Request(... */\n      dup2\n      mstore\n      0x20\n      add\n        /* \"contracts/Shops.sol\":8290:8301  desiredRole */\n      dup5\n        /* \"contracts/Shops.sol\":8220:8330  Request(... */\n      dup2\n      mstore\n      0x20\n      add\n        /* \"contracts/Shops.sol\":8315:8320  false */\n      0x00\n        /* \"contracts/Shops.sol\":8220:8330  Request(... */\n      iszero\n      iszero\n      dup2\n      mstore\n      pop\n        /* \"contracts/Shops.sol\":8200:8330  Request memory rq = Request(... */\n      swap1\n      pop\n        /* \"contracts/Shops.sol\":8356:8358  rq */\n      dup1\n        /* \"contracts/Shops.sol\":8340:8349  requestId */\n      0x10\n        /* \"contracts/Shops.sol\":8350:8352  id */\n      dup7\n        /* \"contracts/Shops.sol\":8340:8353  requestId[id] */\n      mload(0x40)\n      tag_395\n      swap2\n      swap1\n      tag_174\n      jump\t// in\n    tag_395:\n      swap1\n      dup2\n      mstore\n      0x20\n      add\n      mload(0x40)\n      dup1\n      swap2\n      sub\n      swap1\n      keccak256\n        /* \"contracts/Shops.sol\":8340:8358  requestId[id] = rq */\n      0x00\n      dup3\n      add\n      mload\n      dup2\n      0x00\n      add\n      exp(0x0100, 0x00)\n      dup2\n      sload\n      dup2\n      0xffffffffffffffffffffffffffffffffffffffff\n      mul\n      not\n      and\n      swap1\n      dup4\n      0xffffffffffffffffffffffffffffffffffffffff\n      and\n      mul\n      or\n      swap1\n      sstore\n      pop\n      0x20\n      dup3\n      add\n      mload\n      dup2\n      0x01\n      add\n      swap1\n      dup1\n      mload\n      swap1\n      0x20\n      add\n      swap1\n      tag_396\n      swap3\n      swap2\n      swap1\n      tag_170\n      jump\t// in\n    tag_396:\n      pop\n      0x40\n      dup3\n      add\n      mload\n      dup2\n      0x02\n      add\n      swap1\n      dup1\n      mload\n      swap1\n      0x20\n      add\n      swap1\n      tag_397\n      swap3\n      swap2\n      swap1\n      tag_170\n      jump\t// in\n    tag_397:\n      pop\n      0x60\n      dup3\n      add\n      mload\n      dup2\n      0x03\n      add\n      exp(0x0100, 0x00)\n      dup2\n      sload\n      dup2\n      0xff\n      mul\n      not\n      and\n      swap1\n      dup4\n      iszero\n      iszero\n      mul\n      or\n      swap1\n      sstore\n      pop\n      swap1\n      pop\n      pop\n        /* \"contracts/Shops.sol\":8368:8376  requests */\n      0x0a\n        /* \"contracts/Shops.sol\":8382:8384  rq */\n      dup2\n        /* \"contracts/Shops.sol\":8368:8385  requests.push(rq) */\n      swap1\n      dup1\n      0x01\n      dup2\n      sload\n      add\n      dup1\n      dup3\n      sstore\n      dup1\n      swap2\n      pop\n      pop\n      0x01\n      swap1\n      sub\n      swap1\n      0x00\n      mstore\n      keccak256(0x00, 0x20)\n      swap1\n      0x04\n      mul\n      add\n      0x00\n      swap1\n      swap2\n      swap1\n      swap2\n      swap1\n      swap2\n      pop\n      0x00\n      dup3\n      add\n      mload\n      dup2\n      0x00\n      add\n      exp(0x0100, 0x00)\n      dup2\n      sload\n      dup2\n      0xffffffffffffffffffffffffffffffffffffffff\n      mul\n      not\n      and\n      swap1\n      dup4\n      0xffffffffffffffffffffffffffffffffffffffff\n      and\n      mul\n      or\n      swap1\n      sstore\n      pop\n      0x20\n      dup3\n      add\n      mload\n      dup2\n      0x01\n      add\n      swap1\n      dup1\n      mload\n      swap1\n      0x20\n      add\n      swap1\n      tag_399\n      swap3\n      swap2\n      swap1\n      tag_170\n      jump\t// in\n    tag_399:\n      pop\n      0x40\n      dup3\n      add\n      mload\n      dup2\n      0x02\n      add\n      swap1\n      dup1\n      mload\n      swap1\n      0x20\n      add\n      swap1\n      tag_400\n      swap3\n      swap2\n      swap1\n      tag_170\n      jump\t// in\n    tag_400:\n      pop\n      0x60\n      dup3\n      add\n      mload\n      dup2\n      0x03\n      add\n      exp(0x0100, 0x00)\n      dup2\n      sload\n      dup2\n      0xff\n      mul\n      not\n      and\n      swap1\n      dup4\n      iszero\n      iszero\n      mul\n      or\n      swap1\n      sstore\n      pop\n      pop\n      pop\n        /* \"contracts/Shops.sol\":8047:8392  {... */\n      pop\n      pop\n      pop\n        /* \"contracts/Shops.sol\":7965:8392  function downRequestToByer(string memory id) public isUserStatus(UserRoles.seller){... */\n      pop\n      pop\n      jump\t// out\n        /* \"contracts/Shops.sol\":6798:7037  function disLikeReview(string memory id) public isUser {... */\n    tag_93:\n        /* \"contracts/AuthService.sol\":1465:1504  compare(users[msg.sender].userLogin,\"\") */\n      tag_402\n        /* \"contracts/AuthService.sol\":1473:1478  users */\n      0x02\n        /* \"contracts/AuthService.sol\":1473:1490  users[msg.sender] */\n      0x00\n        /* \"contracts/AuthService.sol\":1479:1489  msg.sender */\n      caller\n        /* \"contracts/AuthService.sol\":1473:1490  users[msg.sender] */\n      0xffffffffffffffffffffffffffffffffffffffff\n      and\n      0xffffffffffffffffffffffffffffffffffffffff\n      and\n      dup2\n      mstore\n      0x20\n      add\n      swap1\n      dup2\n      mstore\n      0x20\n      add\n      0x00\n      keccak256\n        /* \"contracts/AuthService.sol\":1473:1500  users[msg.sender].userLogin */\n      0x01\n      add\n        /* \"contracts/AuthService.sol\":1465:1504  compare(users[msg.sender].userLogin,\"\") */\n      dup1\n      sload\n      tag_403\n      swap1\n      tag_119\n      jump\t// in\n    tag_403:\n      dup1\n      0x1f\n      add\n      0x20\n      dup1\n      swap2\n      div\n      mul\n      0x20\n      add\n      mload(0x40)\n      swap1\n      dup2\n      add\n      0x40\n      mstore\n      dup1\n      swap3\n      swap2\n      swap1\n      dup2\n      dup2\n      mstore\n      0x20\n      add\n      dup3\n      dup1\n      sload\n      tag_404\n      swap1\n      tag_119\n      jump\t// in\n    tag_404:\n      dup1\n      iszero\n      tag_405\n      jumpi\n      dup1\n      0x1f\n      lt\n      tag_406\n      jumpi\n      0x0100\n      dup1\n      dup4\n      sload\n      div\n      mul\n      dup4\n      mstore\n      swap2\n      0x20\n      add\n      swap2\n      jump(tag_405)\n    tag_406:\n      dup3\n      add\n      swap2\n      swap1\n      0x00\n      mstore\n      keccak256(0x00, 0x20)\n      swap1\n    tag_407:\n      dup2\n      sload\n      dup2\n      mstore\n      swap1\n      0x01\n      add\n      swap1\n      0x20\n      add\n      dup1\n      dup4\n      gt\n      tag_407\n      jumpi\n      dup3\n      swap1\n      sub\n      0x1f\n      and\n      dup3\n      add\n      swap2\n    tag_405:\n      pop\n      pop\n      pop\n      pop\n      pop\n      mload(0x40)\n      dup1\n      0x20\n      add\n      0x40\n      mstore\n      dup1\n      0x00\n      dup2\n      mstore\n      pop\n        /* \"contracts/AuthService.sol\":1465:1472  compare */\n      tag_163\n        /* \"contracts/AuthService.sol\":1465:1504  compare(users[msg.sender].userLogin,\"\") */\n      jump\t// in\n    tag_402:\n        /* \"contracts/AuthService.sol\":1464:1504  !compare(users[msg.sender].userLogin,\"\") */\n      iszero\n        /* \"contracts/AuthService.sol\":1456:1520  require(!compare(users[msg.sender].userLogin,\"\"),\"You not user\") */\n      tag_408\n      jumpi\n      mload(0x40)\n      0x08c379a000000000000000000000000000000000000000000000000000000000\n      dup2\n      mstore\n      0x04\n      add\n      tag_409\n      swap1\n      tag_166\n      jump\t// in\n    tag_409:\n      mload(0x40)\n      dup1\n      swap2\n      sub\n      swap1\n      revert\n    tag_408:\n        /* \"contracts/Shops.sol\":6900:6905  false */\n      0x00\n        /* \"contracts/Shops.sol\":6871:6905  reviewCom[id][msg.sender] == false */\n      iszero\n      iszero\n        /* \"contracts/Shops.sol\":6871:6880  reviewCom */\n      0x11\n        /* \"contracts/Shops.sol\":6881:6883  id */\n      dup3\n        /* \"contracts/Shops.sol\":6871:6884  reviewCom[id] */\n      mload(0x40)\n      tag_411\n      swap2\n      swap1\n      tag_174\n      jump\t// in\n    tag_411:\n      swap1\n      dup2\n      mstore\n      0x20\n      add\n      mload(0x40)\n      dup1\n      swap2\n      sub\n      swap1\n      keccak256\n        /* \"contracts/Shops.sol\":6871:6896  reviewCom[id][msg.sender] */\n      0x00\n        /* \"contracts/Shops.sol\":6885:6895  msg.sender */\n      caller\n        /* \"contracts/Shops.sol\":6871:6896  reviewCom[id][msg.sender] */\n      0xffffffffffffffffffffffffffffffffffffffff\n      and\n      0xffffffffffffffffffffffffffffffffffffffff\n      and\n      dup2\n      mstore\n      0x20\n      add\n      swap1\n      dup2\n      mstore\n      0x20\n      add\n      0x00\n      keccak256\n      0x00\n      swap1\n      sload\n      swap1\n      0x0100\n      exp\n      swap1\n      div\n      0xff\n      and\n        /* \"contracts/Shops.sol\":6871:6905  reviewCom[id][msg.sender] == false */\n      iszero\n      iszero\n      eq\n        /* \"contracts/Shops.sol\":6863:6936  require(reviewCom[id][msg.sender] == false,\"You already check this case\") */\n      tag_412\n      jumpi\n      mload(0x40)\n      0x08c379a000000000000000000000000000000000000000000000000000000000\n      dup2\n      mstore\n      0x04\n      add\n      tag_413\n      swap1\n      tag_278\n      jump\t// in\n    tag_413:\n      mload(0x40)\n      dup1\n      swap2\n      sub\n      swap1\n      revert\n    tag_412:\n        /* \"contracts/Shops.sol\":6946:6954  reviewId */\n      0x0f\n        /* \"contracts/Shops.sol\":6955:6957  id */\n      dup2\n        /* \"contracts/Shops.sol\":6946:6958  reviewId[id] */\n      mload(0x40)\n      tag_414\n      swap2\n      swap1\n      tag_174\n      jump\t// in\n    tag_414:\n      swap1\n      dup2\n      mstore\n      0x20\n      add\n      mload(0x40)\n      dup1\n      swap2\n      sub\n      swap1\n      keccak256\n        /* \"contracts/Shops.sol\":6946:6971  reviewId[id].disLikeCount */\n      0x04\n      add\n        /* \"contracts/Shops.sol\":6977:6987  msg.sender */\n      caller\n        /* \"contracts/Shops.sol\":6946:6988  reviewId[id].disLikeCount.push(msg.sender) */\n      swap1\n      dup1\n      0x01\n      dup2\n      sload\n      add\n      dup1\n      dup3\n      sstore\n      dup1\n      swap2\n      pop\n      pop\n      0x01\n      swap1\n      sub\n      swap1\n      0x00\n      mstore\n      keccak256(0x00, 0x20)\n      add\n      0x00\n      swap1\n      swap2\n      swap1\n      swap2\n      swap1\n      swap2\n      0x0100\n      exp\n      dup2\n      sload\n      dup2\n      0xffffffffffffffffffffffffffffffffffffffff\n      mul\n      not\n      and\n      swap1\n      dup4\n      0xffffffffffffffffffffffffffffffffffffffff\n      and\n      mul\n      or\n      swap1\n      sstore\n      pop\n        /* \"contracts/Shops.sol\":7026:7030  true */\n      0x01\n        /* \"contracts/Shops.sol\":6998:7007  reviewCom */\n      0x11\n        /* \"contracts/Shops.sol\":7008:7010  id */\n      dup3\n        /* \"contracts/Shops.sol\":6998:7011  reviewCom[id] */\n      mload(0x40)\n      tag_416\n      swap2\n      swap1\n      tag_174\n      jump\t// in\n    tag_416:\n      swap1\n      dup2\n      mstore\n      0x20\n      add\n      mload(0x40)\n      dup1\n      swap2\n      sub\n      swap1\n      keccak256\n        /* \"contracts/Shops.sol\":6998:7023  reviewCom[id][msg.sender] */\n      0x00\n        /* \"contracts/Shops.sol\":7012:7022  msg.sender */\n      caller\n        /* \"contracts/Shops.sol\":6998:7023  reviewCom[id][msg.sender] */\n      0xffffffffffffffffffffffffffffffffffffffff\n      and\n      0xffffffffffffffffffffffffffffffffffffffff\n      and\n      dup2\n      mstore\n      0x20\n      add\n      swap1\n      dup2\n      mstore\n      0x20\n      add\n      0x00\n      keccak256\n      0x00\n        /* \"contracts/Shops.sol\":6998:7030  reviewCom[id][msg.sender] = true */\n      0x0100\n      exp\n      dup2\n      sload\n      dup2\n      0xff\n      mul\n      not\n      and\n      swap1\n      dup4\n      iszero\n      iszero\n      mul\n      or\n      swap1\n      sstore\n      pop\n        /* \"contracts/Shops.sol\":6798:7037  function disLikeReview(string memory id) public isUser {... */\n      pop\n      jump\t// out\n        /* \"contracts/Shops.sol\":4984:5383  function getAdminInfo() public view isUserStatus(UserRoles.admin) returns(... */\n    tag_95:\n        /* \"contracts/Shops.sol\":5067:5086  string memory login */\n      0x60\n        /* \"contracts/Shops.sol\":5096:5125  Request[] memory userRequests */\n      dup1\n        /* \"contracts/Shops.sol\":5135:5160  string[] memory adminList */\n      0x60\n        /* \"contracts/Shops.sol\":5170:5198  address[] memory sellersAddr */\n      dup1\n        /* \"contracts/Shops.sol\":5033:5048  UserRoles.admin */\n      0x03\n        /* \"contracts/AuthService.sol\":1617:1622  users */\n      0x02\n        /* \"contracts/AuthService.sol\":1617:1634  users[msg.sender] */\n      0x00\n        /* \"contracts/AuthService.sol\":1623:1633  msg.sender */\n      caller\n        /* \"contracts/AuthService.sol\":1617:1634  users[msg.sender] */\n      0xffffffffffffffffffffffffffffffffffffffff\n      and\n      0xffffffffffffffffffffffffffffffffffffffff\n      and\n      dup2\n      mstore\n      0x20\n      add\n      swap1\n      dup2\n      mstore\n      0x20\n      add\n      0x00\n      keccak256\n        /* \"contracts/AuthService.sol\":1617:1641  users[msg.sender].status */\n      0x00\n      add\n      sload\n        /* \"contracts/AuthService.sol\":1606:1612  status */\n      dup2\n        /* \"contracts/AuthService.sol\":1601:1613  uint(status) */\n      0x05\n      dup2\n      gt\n      iszero\n      tag_418\n      jumpi\n      tag_419\n      tag_113\n      jump\t// in\n    tag_419:\n    tag_418:\n        /* \"contracts/AuthService.sol\":1601:1641  uint(status) == users[msg.sender].status */\n      eq\n        /* \"contracts/AuthService.sol\":1593:1654  require(uint(status) == users[msg.sender].status,\"Forbidden\") */\n      tag_420\n      jumpi\n      mload(0x40)\n      0x08c379a000000000000000000000000000000000000000000000000000000000\n      dup2\n      mstore\n      0x04\n      add\n      tag_421\n      swap1\n      tag_116\n      jump\t// in\n    tag_421:\n      mload(0x40)\n      dup1\n      swap2\n      sub\n      swap1\n      revert\n    tag_420:\n        /* \"contracts/Shops.sol\":5215:5231  User memory user */\n      0x00\n        /* \"contracts/Shops.sol\":5234:5239  users */\n      0x02\n        /* \"contracts/Shops.sol\":5234:5251  users[msg.sender] */\n      0x00\n        /* \"contracts/Shops.sol\":5240:5250  msg.sender */\n      caller\n        /* \"contracts/Shops.sol\":5234:5251  users[msg.sender] */\n      0xffffffffffffffffffffffffffffffffffffffff\n      and\n      0xffffffffffffffffffffffffffffffffffffffff\n      and\n      dup2\n      mstore\n      0x20\n      add\n      swap1\n      dup2\n      mstore\n      0x20\n      add\n      0x00\n      keccak256\n        /* \"contracts/Shops.sol\":5215:5251  User memory user = users[msg.sender] */\n      mload(0x40)\n      dup1\n      0x80\n      add\n      0x40\n      mstore\n      swap1\n      dup2\n      0x00\n      dup3\n      add\n      sload\n      dup2\n      mstore\n      0x20\n      add\n      0x01\n      dup3\n      add\n      dup1\n      sload\n      tag_423\n      swap1\n      tag_119\n      jump\t// in\n    tag_423:\n      dup1\n      0x1f\n      add\n      0x20\n      dup1\n      swap2\n      div\n      mul\n      0x20\n      add\n      mload(0x40)\n      swap1\n      dup2\n      add\n      0x40\n      mstore\n      dup1\n      swap3\n      swap2\n      swap1\n      dup2\n      dup2\n      mstore\n      0x20\n      add\n      dup3\n      dup1\n      sload\n      tag_424\n      swap1\n      tag_119\n      jump\t// in\n    tag_424:\n      dup1\n      iszero\n      tag_425\n      jumpi\n      dup1\n      0x1f\n      lt\n      tag_426\n      jumpi\n      0x0100\n      dup1\n      dup4\n      sload\n      div\n      mul\n      dup4\n      mstore\n      swap2\n      0x20\n      add\n      swap2\n      jump(tag_425)\n    tag_426:\n      dup3\n      add\n      swap2\n      swap1\n      0x00\n      mstore\n      keccak256(0x00, 0x20)\n      swap1\n    tag_427:\n      dup2\n      sload\n      dup2\n      mstore\n      swap1\n      0x01\n      add\n      swap1\n      0x20\n      add\n      dup1\n      dup4\n      gt\n      tag_427\n      jumpi\n      dup3\n      swap1\n      sub\n      0x1f\n      and\n      dup3\n      add\n      swap2\n    tag_425:\n      pop\n      pop\n      pop\n      pop\n      pop\n      dup2\n      mstore\n      0x20\n      add\n      0x02\n      dup3\n      add\n      dup1\n      sload\n      tag_428\n      swap1\n      tag_119\n      jump\t// in\n    tag_428:\n      dup1\n      0x1f\n      add\n      0x20\n      dup1\n      swap2\n      div\n      mul\n      0x20\n      add\n      mload(0x40)\n      swap1\n      dup2\n      add\n      0x40\n      mstore\n      dup1\n      swap3\n      swap2\n      swap1\n      dup2\n      dup2\n      mstore\n      0x20\n      add\n      dup3\n      dup1\n      sload\n      tag_429\n      swap1\n      tag_119\n      jump\t// in\n    tag_429:\n      dup1\n      iszero\n      tag_430\n      jumpi\n      dup1\n      0x1f\n      lt\n      tag_431\n      jumpi\n      0x0100\n      dup1\n      dup4\n      sload\n      div\n      mul\n      dup4\n      mstore\n      swap2\n      0x20\n      add\n      swap2\n      jump(tag_430)\n    tag_431:\n      dup3\n      add\n      swap2\n      swap1\n      0x00\n      mstore\n      keccak256(0x00, 0x20)\n      swap1\n    tag_432:\n      dup2\n      sload\n      dup2\n      mstore\n      swap1\n      0x01\n      add\n      swap1\n      0x20\n      add\n      dup1\n      dup4\n      gt\n      tag_432\n      jumpi\n      dup3\n      swap1\n      sub\n      0x1f\n      and\n      dup3\n      add\n      swap2\n    tag_430:\n      pop\n      pop\n      pop\n      pop\n      pop\n      dup2\n      mstore\n      0x20\n      add\n      0x03\n      dup3\n      add\n      dup1\n      sload\n      dup1\n      0x20\n      mul\n      0x20\n      add\n      mload(0x40)\n      swap1\n      dup2\n      add\n      0x40\n      mstore\n      dup1\n      swap3\n      swap2\n      swap1\n      dup2\n      dup2\n      mstore\n      0x20\n      add\n      0x00\n      swap1\n    tag_433:\n      dup3\n      dup3\n      lt\n      iszero\n      tag_434\n      jumpi\n      dup4\n      dup3\n      swap1\n      0x00\n      mstore\n      keccak256(0x00, 0x20)\n      add\n      dup1\n      sload\n      tag_436\n      swap1\n      tag_119\n      jump\t// in\n    tag_436:\n      dup1\n      0x1f\n      add\n      0x20\n      dup1\n      swap2\n      div\n      mul\n      0x20\n      add\n      mload(0x40)\n      swap1\n      dup2\n      add\n      0x40\n      mstore\n      dup1\n      swap3\n      swap2\n      swap1\n      dup2\n      dup2\n      mstore\n      0x20\n      add\n      dup3\n      dup1\n      sload\n      tag_437\n      swap1\n      tag_119\n      jump\t// in\n    tag_437:\n      dup1\n      iszero\n      tag_438\n      jumpi\n      dup1\n      0x1f\n      lt\n      tag_439\n      jumpi\n      0x0100\n      dup1\n      dup4\n      sload\n      div\n      mul\n      dup4\n      mstore\n      swap2\n      0x20\n      add\n      swap2\n      jump(tag_438)\n    tag_439:\n      dup3\n      add\n      swap2\n      swap1\n      0x00\n      mstore\n      keccak256(0x00, 0x20)\n      swap1\n    tag_440:\n      dup2\n      sload\n      dup2\n      mstore\n      swap1\n      0x01\n      add\n      swap1\n      0x20\n      add\n      dup1\n      dup4\n      gt\n      tag_440\n      jumpi\n      dup3\n      swap1\n      sub\n      0x1f\n      and\n      dup3\n      add\n      swap2\n    tag_438:\n      pop\n      pop\n      pop\n      pop\n      pop\n      dup2\n      mstore\n      0x20\n      add\n      swap1\n      0x01\n      add\n      swap1\n      jump(tag_433)\n    tag_434:\n      pop\n      pop\n      pop\n      pop\n      dup2\n      mstore\n      pop\n      pop\n      swap1\n      pop\n        /* \"contracts/Shops.sol\":5270:5274  user */\n      dup1\n        /* \"contracts/Shops.sol\":5270:5284  user.userLogin */\n      0x20\n      add\n      mload\n        /* \"contracts/Shops.sol\":5262:5284  login = user.userLogin */\n      swap6\n      pop\n        /* \"contracts/Shops.sol\":5309:5317  requests */\n      0x0a\n        /* \"contracts/Shops.sol\":5294:5317  userRequests = requests */\n      dup1\n      sload\n      dup1\n      0x20\n      mul\n      0x20\n      add\n      mload(0x40)\n      swap1\n      dup2\n      add\n      0x40\n      mstore\n      dup1\n      swap3\n      swap2\n      swap1\n      dup2\n      dup2\n      mstore\n      0x20\n      add\n      0x00\n      swap1\n    tag_441:\n      dup3\n      dup3\n      lt\n      iszero\n      tag_442\n      jumpi\n      dup4\n      dup3\n      swap1\n      0x00\n      mstore\n      keccak256(0x00, 0x20)\n      swap1\n      0x04\n      mul\n      add\n      mload(0x40)\n      dup1\n      0x80\n      add\n      0x40\n      mstore\n      swap1\n      dup2\n      0x00\n      dup3\n      add\n      0x00\n      swap1\n      sload\n      swap1\n      0x0100\n      exp\n      swap1\n      div\n      0xffffffffffffffffffffffffffffffffffffffff\n      and\n      0xffffffffffffffffffffffffffffffffffffffff\n      and\n      0xffffffffffffffffffffffffffffffffffffffff\n      and\n      dup2\n      mstore\n      0x20\n      add\n      0x01\n      dup3\n      add\n      dup1\n      sload\n      tag_444\n      swap1\n      tag_119\n      jump\t// in\n    tag_444:\n      dup1\n      0x1f\n      add\n      0x20\n      dup1\n      swap2\n      div\n      mul\n      0x20\n      add\n      mload(0x40)\n      swap1\n      dup2\n      add\n      0x40\n      mstore\n      dup1\n      swap3\n      swap2\n      swap1\n      dup2\n      dup2\n      mstore\n      0x20\n      add\n      dup3\n      dup1\n      sload\n      tag_445\n      swap1\n      tag_119\n      jump\t// in\n    tag_445:\n      dup1\n      iszero\n      tag_446\n      jumpi\n      dup1\n      0x1f\n      lt\n      tag_447\n      jumpi\n      0x0100\n      dup1\n      dup4\n      sload\n      div\n      mul\n      dup4\n      mstore\n      swap2\n      0x20\n      add\n      swap2\n      jump(tag_446)\n    tag_447:\n      dup3\n      add\n      swap2\n      swap1\n      0x00\n      mstore\n      keccak256(0x00, 0x20)\n      swap1\n    tag_448:\n      dup2\n      sload\n      dup2\n      mstore\n      swap1\n      0x01\n      add\n      swap1\n      0x20\n      add\n      dup1\n      dup4\n      gt\n      tag_448\n      jumpi\n      dup3\n      swap1\n      sub\n      0x1f\n      and\n      dup3\n      add\n      swap2\n    tag_446:\n      pop\n      pop\n      pop\n      pop\n      pop\n      dup2\n      mstore\n      0x20\n      add\n      0x02\n      dup3\n      add\n      dup1\n      sload\n      tag_449\n      swap1\n      tag_119\n      jump\t// in\n    tag_449:\n      dup1\n      0x1f\n      add\n      0x20\n      dup1\n      swap2\n      div\n      mul\n      0x20\n      add\n      mload(0x40)\n      swap1\n      dup2\n      add\n      0x40\n      mstore\n      dup1\n      swap3\n      swap2\n      swap1\n      dup2\n      dup2\n      mstore\n      0x20\n      add\n      dup3\n      dup1\n      sload\n      tag_450\n      swap1\n      tag_119\n      jump\t// in\n    tag_450:\n      dup1\n      iszero\n      tag_451\n      jumpi\n      dup1\n      0x1f\n      lt\n      tag_452\n      jumpi\n      0x0100\n      dup1\n      dup4\n      sload\n      div\n      mul\n      dup4\n      mstore\n      swap2\n      0x20\n      add\n      swap2\n      jump(tag_451)\n    tag_452:\n      dup3\n      add\n      swap2\n      swap1\n      0x00\n      mstore\n      keccak256(0x00, 0x20)\n      swap1\n    tag_453:\n      dup2\n      sload\n      dup2\n      mstore\n      swap1\n      0x01\n      add\n      swap1\n      0x20\n      add\n      dup1\n      dup4\n      gt\n      tag_453\n      jumpi\n      dup3\n      swap1\n      sub\n      0x1f\n      and\n      dup3\n      add\n      swap2\n    tag_451:\n      pop\n      pop\n      pop\n      pop\n      pop\n      dup2\n      mstore\n      0x20\n      add\n      0x03\n      dup3\n      add\n      0x00\n      swap1\n      sload\n      swap1\n      0x0100\n      exp\n      swap1\n      div\n      0xff\n      and\n      iszero\n      iszero\n      iszero\n      iszero\n      dup2\n      mstore\n      pop\n      pop\n      dup2\n      mstore\n      0x20\n      add\n      swap1\n      0x01\n      add\n      swap1\n      jump(tag_441)\n    tag_442:\n      pop\n      pop\n      pop\n      pop\n      swap5\n      pop\n        /* \"contracts/Shops.sol\":5339:5345  admins */\n      0x06\n        /* \"contracts/Shops.sol\":5327:5345  adminList = admins */\n      dup1\n      sload\n      dup1\n      0x20\n      mul\n      0x20\n      add\n      mload(0x40)\n      swap1\n      dup2\n      add\n      0x40\n      mstore\n      dup1\n      swap3\n      swap2\n      swap1\n      dup2\n      dup2\n      mstore\n      0x20\n      add\n      0x00\n      swap1\n    tag_454:\n      dup3\n      dup3\n      lt\n      iszero\n      tag_455\n      jumpi\n      dup4\n      dup3\n      swap1\n      0x00\n      mstore\n      keccak256(0x00, 0x20)\n      add\n      dup1\n      sload\n      tag_457\n      swap1\n      tag_119\n      jump\t// in\n    tag_457:\n      dup1\n      0x1f\n      add\n      0x20\n      dup1\n      swap2\n      div\n      mul\n      0x20\n      add\n      mload(0x40)\n      swap1\n      dup2\n      add\n      0x40\n      mstore\n      dup1\n      swap3\n      swap2\n      swap1\n      dup2\n      dup2\n      mstore\n      0x20\n      add\n      dup3\n      dup1\n      sload\n      tag_458\n      swap1\n      tag_119\n      jump\t// in\n    tag_458:\n      dup1\n      iszero\n      tag_459\n      jumpi\n      dup1\n      0x1f\n      lt\n      tag_460\n      jumpi\n      0x0100\n      dup1\n      dup4\n      sload\n      div\n      mul\n      dup4\n      mstore\n      swap2\n      0x20\n      add\n      swap2\n      jump(tag_459)\n    tag_460:\n      dup3\n      add\n      swap2\n      swap1\n      0x00\n      mstore\n      keccak256(0x00, 0x20)\n      swap1\n    tag_461:\n      dup2\n      sload\n      dup2\n      mstore\n      swap1\n      0x01\n      add\n      swap1\n      0x20\n      add\n      dup1\n      dup4\n      gt\n      tag_461\n      jumpi\n      dup3\n      swap1\n      sub\n      0x1f\n      and\n      dup3\n      add\n      swap2\n    tag_459:\n      pop\n      pop\n      pop\n      pop\n      pop\n      dup2\n      mstore\n      0x20\n      add\n      swap1\n      0x01\n      add\n      swap1\n      jump(tag_454)\n    tag_455:\n      pop\n      pop\n      pop\n      pop\n      swap4\n      pop\n        /* \"contracts/Shops.sol\":5369:5376  sellers */\n      0x08\n        /* \"contracts/Shops.sol\":5355:5376  sellersAddr = sellers */\n      dup1\n      sload\n      dup1\n      0x20\n      mul\n      0x20\n      add\n      mload(0x40)\n      swap1\n      dup2\n      add\n      0x40\n      mstore\n      dup1\n      swap3\n      swap2\n      swap1\n      dup2\n      dup2\n      mstore\n      0x20\n      add\n      dup3\n      dup1\n      sload\n      dup1\n      iszero\n      tag_462\n      jumpi\n      0x20\n      mul\n      dup3\n      add\n      swap2\n      swap1\n      0x00\n      mstore\n      keccak256(0x00, 0x20)\n      swap1\n    tag_463:\n      dup2\n      0x00\n      swap1\n      sload\n      swap1\n      0x0100\n      exp\n      swap1\n      div\n      0xffffffffffffffffffffffffffffffffffffffff\n      and\n      0xffffffffffffffffffffffffffffffffffffffff\n      and\n      dup2\n      mstore\n      0x20\n      add\n      swap1\n      0x01\n      add\n      swap1\n      dup1\n      dup4\n      gt\n      tag_463\n      jumpi\n    tag_462:\n      pop\n      pop\n      pop\n      pop\n      pop\n      swap3\n      pop\n        /* \"contracts/Shops.sol\":5205:5383  {... */\n      pop\n        /* \"contracts/Shops.sol\":4984:5383  function getAdminInfo() public view isUserStatus(UserRoles.admin) returns(... */\n      pop\n      swap1\n      swap2\n      swap3\n      swap4\n      jump\t// out\n        /* \"contracts/Shops.sol\":8398:8491  function checkRequest(string memory id) public isUserStatus(UserRoles.admin) {... */\n    tag_100:\n        /* \"contracts/Shops.sol\":8458:8473  UserRoles.admin */\n      0x03\n        /* \"contracts/AuthService.sol\":1617:1622  users */\n      0x02\n        /* \"contracts/AuthService.sol\":1617:1634  users[msg.sender] */\n      0x00\n        /* \"contracts/AuthService.sol\":1623:1633  msg.sender */\n      caller\n        /* \"contracts/AuthService.sol\":1617:1634  users[msg.sender] */\n      0xffffffffffffffffffffffffffffffffffffffff\n      and\n      0xffffffffffffffffffffffffffffffffffffffff\n      and\n      dup2\n      mstore\n      0x20\n      add\n      swap1\n      dup2\n      mstore\n      0x20\n      add\n      0x00\n      keccak256\n        /* \"contracts/AuthService.sol\":1617:1641  users[msg.sender].status */\n      0x00\n      add\n      sload\n        /* \"contracts/AuthService.sol\":1606:1612  status */\n      dup2\n        /* \"contracts/AuthService.sol\":1601:1613  uint(status) */\n      0x05\n      dup2\n      gt\n      iszero\n      tag_465\n      jumpi\n      tag_466\n      tag_113\n      jump\t// in\n    tag_466:\n    tag_465:\n        /* \"contracts/AuthService.sol\":1601:1641  uint(status) == users[msg.sender].status */\n      eq\n        /* \"contracts/AuthService.sol\":1593:1654  require(uint(status) == users[msg.sender].status,\"Forbidden\") */\n      tag_467\n      jumpi\n      mload(0x40)\n      0x08c379a000000000000000000000000000000000000000000000000000000000\n      dup2\n      mstore\n      0x04\n      add\n      tag_468\n      swap1\n      tag_116\n      jump\t// in\n    tag_468:\n      mload(0x40)\n      dup1\n      swap2\n      sub\n      swap1\n      revert\n    tag_467:\n        /* \"contracts/Shops.sol\":8398:8491  function checkRequest(string memory id) public isUserStatus(UserRoles.admin) {... */\n      pop\n      pop\n      jump\t// out\n        /* \"contracts/Shops.sol\":8497:8818  function getRequestById(string memory id) public view returns(... */\n    tag_103:\n        /* \"contracts/Shops.sol\":8568:8584  address userAddr */\n      0x00\n        /* \"contracts/Shops.sol\":8594:8619  string memory currentRole */\n      0x60\n        /* \"contracts/Shops.sol\":8629:8654  string memory desiredRole */\n      dup1\n        /* \"contracts/Shops.sol\":8670:8687  Request memory rq */\n      0x00\n        /* \"contracts/Shops.sol\":8690:8699  requestId */\n      0x10\n        /* \"contracts/Shops.sol\":8700:8702  id */\n      dup6\n        /* \"contracts/Shops.sol\":8690:8703  requestId[id] */\n      mload(0x40)\n      tag_471\n      swap2\n      swap1\n      tag_174\n      jump\t// in\n    tag_471:\n      swap1\n      dup2\n      mstore\n      0x20\n      add\n      mload(0x40)\n      dup1\n      swap2\n      sub\n      swap1\n      keccak256\n        /* \"contracts/Shops.sol\":8670:8703  Request memory rq = requestId[id] */\n      mload(0x40)\n      dup1\n      0x80\n      add\n      0x40\n      mstore\n      swap1\n      dup2\n      0x00\n      dup3\n      add\n      0x00\n      swap1\n      sload\n      swap1\n      0x0100\n      exp\n      swap1\n      div\n      0xffffffffffffffffffffffffffffffffffffffff\n      and\n      0xffffffffffffffffffffffffffffffffffffffff\n      and\n      0xffffffffffffffffffffffffffffffffffffffff\n      and\n      dup2\n      mstore\n      0x20\n      add\n      0x01\n      dup3\n      add\n      dup1\n      sload\n      tag_472\n      swap1\n      tag_119\n      jump\t// in\n    tag_472:\n      dup1\n      0x1f\n      add\n      0x20\n      dup1\n      swap2\n      div\n      mul\n      0x20\n      add\n      mload(0x40)\n      swap1\n      dup2\n      add\n      0x40\n      mstore\n      dup1\n      swap3\n      swap2\n      swap1\n      dup2\n      dup2\n      mstore\n      0x20\n      add\n      dup3\n      dup1\n      sload\n      tag_473\n      swap1\n      tag_119\n      jump\t// in\n    tag_473:\n      dup1\n      iszero\n      tag_474\n      jumpi\n      dup1\n      0x1f\n      lt\n      tag_475\n      jumpi\n      0x0100\n      dup1\n      dup4\n      sload\n      div\n      mul\n      dup4\n      mstore\n      swap2\n      0x20\n      add\n      swap2\n      jump(tag_474)\n    tag_475:\n      dup3\n      add\n      swap2\n      swap1\n      0x00\n      mstore\n      keccak256(0x00, 0x20)\n      swap1\n    tag_476:\n      dup2\n      sload\n      dup2\n      mstore\n      swap1\n      0x01\n      add\n      swap1\n      0x20\n      add\n      dup1\n      dup4\n      gt\n      tag_476\n      jumpi\n      dup3\n      swap1\n      sub\n      0x1f\n      and\n      dup3\n      add\n      swap2\n    tag_474:\n      pop\n      pop\n      pop\n      pop\n      pop\n      dup2\n      mstore\n      0x20\n      add\n      0x02\n      dup3\n      add\n      dup1\n      sload\n      tag_477\n      swap1\n      tag_119\n      jump\t// in\n    tag_477:\n      dup1\n      0x1f\n      add\n      0x20\n      dup1\n      swap2\n      div\n      mul\n      0x20\n      add\n      mload(0x40)\n      swap1\n      dup2\n      add\n      0x40\n      mstore\n      dup1\n      swap3\n      swap2\n      swap1\n      dup2\n      dup2\n      mstore\n      0x20\n      add\n      dup3\n      dup1\n      sload\n      tag_478\n      swap1\n      tag_119\n      jump\t// in\n    tag_478:\n      dup1\n      iszero\n      tag_479\n      jumpi\n      dup1\n      0x1f\n      lt\n      tag_480\n      jumpi\n      0x0100\n      dup1\n      dup4\n      sload\n      div\n      mul\n      dup4\n      mstore\n      swap2\n      0x20\n      add\n      swap2\n      jump(tag_479)\n    tag_480:\n      dup3\n      add\n      swap2\n      swap1\n      0x00\n      mstore\n      keccak256(0x00, 0x20)\n      swap1\n    tag_481:\n      dup2\n      sload\n      dup2\n      mstore\n      swap1\n      0x01\n      add\n      swap1\n      0x20\n      add\n      dup1\n      dup4\n      gt\n      tag_481\n      jumpi\n      dup3\n      swap1\n      sub\n      0x1f\n      and\n      dup3\n      add\n      swap2\n    tag_479:\n      pop\n      pop\n      pop\n      pop\n      pop\n      dup2\n      mstore\n      0x20\n      add\n      0x03\n      dup3\n      add\n      0x00\n      swap1\n      sload\n      swap1\n      0x0100\n      exp\n      swap1\n      div\n      0xff\n      and\n      iszero\n      iszero\n      iszero\n      iszero\n      dup2\n      mstore\n      pop\n      pop\n      swap1\n      pop\n        /* \"contracts/Shops.sol\":8724:8726  rq */\n      dup1\n        /* \"contracts/Shops.sol\":8724:8735  rq.userAddr */\n      0x00\n      add\n      mload\n        /* \"contracts/Shops.sol\":8713:8735  userAddr = rq.userAddr */\n      swap4\n      pop\n        /* \"contracts/Shops.sol\":8759:8761  rq */\n      dup1\n        /* \"contracts/Shops.sol\":8759:8773  rq.currentRole */\n      0x20\n      add\n      mload\n        /* \"contracts/Shops.sol\":8745:8773  currentRole = rq.currentRole */\n      swap3\n      pop\n        /* \"contracts/Shops.sol\":8797:8799  rq */\n      dup1\n        /* \"contracts/Shops.sol\":8797:8811  rq.desiredRole */\n      0x40\n      add\n      mload\n        /* \"contracts/Shops.sol\":8783:8811  desiredRole = rq.desiredRole */\n      swap2\n      pop\n        /* \"contracts/Shops.sol\":8660:8818  {... */\n      pop\n        /* \"contracts/Shops.sol\":8497:8818  function getRequestById(string memory id) public view returns(... */\n      swap2\n      swap4\n      swap1\n      swap3\n      pop\n      jump\t// out\n        /* \"contracts/Shops.sol\":1259:1484  function registerAdmin(string memory fio,string memory userLogin) isAdmin public {... */\n    tag_109:\n        /* \"contracts/Shops.sol\":1101:1106  admin */\n      0x05\n      0x00\n      swap1\n      sload\n      swap1\n      0x0100\n      exp\n      swap1\n      div\n      0xffffffffffffffffffffffffffffffffffffffff\n      and\n        /* \"contracts/Shops.sol\":1087:1106  msg.sender == admin */\n      0xffffffffffffffffffffffffffffffffffffffff\n      and\n        /* \"contracts/Shops.sol\":1087:1097  msg.sender */\n      caller\n        /* \"contracts/Shops.sol\":1087:1106  msg.sender == admin */\n      0xffffffffffffffffffffffffffffffffffffffff\n      and\n      eq\n        /* \"contracts/Shops.sol\":1079:1123  require(msg.sender == admin,\"You not admin\") */\n      tag_483\n      jumpi\n      mload(0x40)\n      0x08c379a000000000000000000000000000000000000000000000000000000000\n      dup2\n      mstore\n      0x04\n      add\n      tag_484\n      swap1\n      tag_150\n      jump\t// in\n    tag_484:\n      mload(0x40)\n      dup1\n      swap2\n      sub\n      swap1\n      revert\n    tag_483:\n        /* \"contracts/Shops.sol\":1350:1361  uint status */\n      0x00\n        /* \"contracts/Shops.sol\":1369:1384  UserRoles.admin */\n      0x03\n        /* \"contracts/Shops.sol\":1364:1385  uint(UserRoles.admin) */\n      0x05\n      dup2\n      gt\n      iszero\n      tag_486\n      jumpi\n      tag_487\n      tag_113\n      jump\t// in\n    tag_487:\n    tag_486:\n        /* \"contracts/Shops.sol\":1350:1385  uint status = uint(UserRoles.admin) */\n      swap1\n      pop\n        /* \"contracts/Shops.sol\":1395:1445  registerFromAdmin(fio,userLogin,status,msg.sender) */\n      tag_488\n        /* \"contracts/Shops.sol\":1413:1416  fio */\n      dup4\n        /* \"contracts/Shops.sol\":1417:1426  userLogin */\n      dup4\n        /* \"contracts/Shops.sol\":1427:1433  status */\n      dup4\n        /* \"contracts/Shops.sol\":1434:1444  msg.sender */\n      caller\n        /* \"contracts/Shops.sol\":1395:1412  registerFromAdmin */\n      tag_155\n        /* \"contracts/Shops.sol\":1395:1445  registerFromAdmin(fio,userLogin,status,msg.sender) */\n      jump\t// in\n    tag_488:\n        /* \"contracts/Shops.sol\":1455:1461  admins */\n      0x06\n        /* \"contracts/Shops.sol\":1467:1476  userLogin */\n      dup3\n        /* \"contracts/Shops.sol\":1455:1477  admins.push(userLogin) */\n      swap1\n      dup1\n      0x01\n      dup2\n      sload\n      add\n      dup1\n      dup3\n      sstore\n      dup1\n      swap2\n      pop\n      pop\n      0x01\n      swap1\n      sub\n      swap1\n      0x00\n      mstore\n      keccak256(0x00, 0x20)\n      add\n      0x00\n      swap1\n      swap2\n      swap1\n      swap2\n      swap1\n      swap2\n      pop\n      swap1\n      dup1\n      mload\n      swap1\n      0x20\n      add\n      swap1\n      tag_490\n      swap3\n      swap2\n      swap1\n      tag_170\n      jump\t// in\n    tag_490:\n      pop\n        /* \"contracts/Shops.sol\":1340:1484  {... */\n      pop\n        /* \"contracts/Shops.sol\":1259:1484  function registerAdmin(string memory fio,string memory userLogin) isAdmin public {... */\n      pop\n      pop\n      jump\t// out\n        /* \"contracts/AuthService.sol\":1875:2250  function registerFromAdmin(string memory fio,string memory userLogin,uint status,address userAddress) internal isNotRegistered(userAddress,userLogin){... */\n    tag_155:\n        /* \"contracts/AuthService.sol\":2002:2013  userAddress */\n      dup1\n        /* \"contracts/AuthService.sol\":2014:2023  userLogin */\n      dup4\n        /* \"contracts/AuthService.sol\":1039:1073  compare(users[userAddress].fio,\"\") */\n      tag_492\n        /* \"contracts/AuthService.sol\":1047:1052  users */\n      0x02\n        /* \"contracts/AuthService.sol\":1047:1065  users[userAddress] */\n      0x00\n        /* \"contracts/AuthService.sol\":1053:1064  userAddress */\n      dup5\n        /* \"contracts/AuthService.sol\":1047:1065  users[userAddress] */\n      0xffffffffffffffffffffffffffffffffffffffff\n      and\n      0xffffffffffffffffffffffffffffffffffffffff\n      and\n      dup2\n      mstore\n      0x20\n      add\n      swap1\n      dup2\n      mstore\n      0x20\n      add\n      0x00\n      keccak256\n        /* \"contracts/AuthService.sol\":1047:1069  users[userAddress].fio */\n      0x02\n      add\n        /* \"contracts/AuthService.sol\":1039:1073  compare(users[userAddress].fio,\"\") */\n      dup1\n      sload\n      tag_493\n      swap1\n      tag_119\n      jump\t// in\n    tag_493:\n      dup1\n      0x1f\n      add\n      0x20\n      dup1\n      swap2\n      div\n      mul\n      0x20\n      add\n      mload(0x40)\n      swap1\n      dup2\n      add\n      0x40\n      mstore\n      dup1\n      swap3\n      swap2\n      swap1\n      dup2\n      dup2\n      mstore\n      0x20\n      add\n      dup3\n      dup1\n      sload\n      tag_494\n      swap1\n      tag_119\n      jump\t// in\n    tag_494:\n      dup1\n      iszero\n      tag_495\n      jumpi\n      dup1\n      0x1f\n      lt\n      tag_496\n      jumpi\n      0x0100\n      dup1\n      dup4\n      sload\n      div\n      mul\n      dup4\n      mstore\n      swap2\n      0x20\n      add\n      swap2\n      jump(tag_495)\n    tag_496:\n      dup3\n      add\n      swap2\n      swap1\n      0x00\n      mstore\n      keccak256(0x00, 0x20)\n      swap1\n    tag_497:\n      dup2\n      sload\n      dup2\n      mstore\n      swap1\n      0x01\n      add\n      swap1\n      0x20\n      add\n      dup1\n      dup4\n      gt\n      tag_497\n      jumpi\n      dup3\n      swap1\n      sub\n      0x1f\n      and\n      dup3\n      add\n      swap2\n    tag_495:\n      pop\n      pop\n      pop\n      pop\n      pop\n      mload(0x40)\n      dup1\n      0x20\n      add\n      0x40\n      mstore\n      dup1\n      0x00\n      dup2\n      mstore\n      pop\n        /* \"contracts/AuthService.sol\":1039:1046  compare */\n      tag_163\n        /* \"contracts/AuthService.sol\":1039:1073  compare(users[userAddress].fio,\"\") */\n      jump\t// in\n    tag_492:\n        /* \"contracts/AuthService.sol\":1038:1073  !compare(users[userAddress].fio,\"\") */\n      iszero\n        /* \"contracts/AuthService.sol\":1030:1099  require(!compare(users[userAddress].fio,\"\"),\"You already registered\") */\n      tag_498\n      jumpi\n      mload(0x40)\n      0x08c379a000000000000000000000000000000000000000000000000000000000\n      dup2\n      mstore\n      0x04\n      add\n      tag_499\n      swap1\n      tag_500\n      jump\t// in\n    tag_499:\n      mload(0x40)\n      dup1\n      swap2\n      sub\n      swap1\n      revert\n    tag_498:\n        /* \"contracts/AuthService.sol\":1150:1151  0 */\n      0x00\n        /* \"contracts/AuthService.sol\":1117:1152  userLogins[userLogin] == address(0) */\n      0xffffffffffffffffffffffffffffffffffffffff\n      and\n        /* \"contracts/AuthService.sol\":1117:1127  userLogins */\n      0x01\n        /* \"contracts/AuthService.sol\":1128:1137  userLogin */\n      dup3\n        /* \"contracts/AuthService.sol\":1117:1138  userLogins[userLogin] */\n      mload(0x40)\n      tag_501\n      swap2\n      swap1\n      tag_174\n      jump\t// in\n    tag_501:\n      swap1\n      dup2\n      mstore\n      0x20\n      add\n      mload(0x40)\n      dup1\n      swap2\n      sub\n      swap1\n      keccak256\n      0x00\n      swap1\n      sload\n      swap1\n      0x0100\n      exp\n      swap1\n      div\n      0xffffffffffffffffffffffffffffffffffffffff\n      and\n        /* \"contracts/AuthService.sol\":1117:1152  userLogins[userLogin] == address(0) */\n      0xffffffffffffffffffffffffffffffffffffffff\n      and\n      eq\n        /* \"contracts/AuthService.sol\":1109:1190  require(userLogins[userLogin] == address(0),\"Your login already exist in system\") */\n      tag_502\n      jumpi\n      mload(0x40)\n      0x08c379a000000000000000000000000000000000000000000000000000000000\n      dup2\n      mstore\n      0x04\n      add\n      tag_503\n      swap1\n      tag_504\n      jump\t// in\n    tag_503:\n      mload(0x40)\n      dup1\n      swap2\n      sub\n      swap1\n      revert\n    tag_502:\n        /* \"contracts/AuthService.sol\":2034:2060  string[] memory reviewList */\n      0x60\n        /* \"contracts/AuthService.sol\":2070:2089  User memory newUser */\n      0x00\n        /* \"contracts/AuthService.sol\":2092:2160  User({fio:fio,userLogin:userLogin,status:status,reviews:reviewList}) */\n      mload(0x40)\n      dup1\n      0x80\n      add\n      0x40\n      mstore\n      dup1\n        /* \"contracts/AuthService.sol\":2133:2139  status */\n      dup8\n        /* \"contracts/AuthService.sol\":2092:2160  User({fio:fio,userLogin:userLogin,status:status,reviews:reviewList}) */\n      dup2\n      mstore\n      0x20\n      add\n        /* \"contracts/AuthService.sol\":2116:2125  userLogin */\n      dup9\n        /* \"contracts/AuthService.sol\":2092:2160  User({fio:fio,userLogin:userLogin,status:status,reviews:reviewList}) */\n      dup2\n      mstore\n      0x20\n      add\n        /* \"contracts/AuthService.sol\":2102:2105  fio */\n      dup10\n        /* \"contracts/AuthService.sol\":2092:2160  User({fio:fio,userLogin:userLogin,status:status,reviews:reviewList}) */\n      dup2\n      mstore\n      0x20\n      add\n        /* \"contracts/AuthService.sol\":2148:2158  reviewList */\n      dup4\n        /* \"contracts/AuthService.sol\":2092:2160  User({fio:fio,userLogin:userLogin,status:status,reviews:reviewList}) */\n      dup2\n      mstore\n      pop\n        /* \"contracts/AuthService.sol\":2070:2160  User memory newUser = User({fio:fio,userLogin:userLogin,status:status,reviews:reviewList}) */\n      swap1\n      pop\n        /* \"contracts/AuthService.sol\":2194:2205  userAddress */\n      dup5\n        /* \"contracts/AuthService.sol\":2170:2180  userLogins */\n      0x01\n        /* \"contracts/AuthService.sol\":2181:2190  userLogin */\n      dup9\n        /* \"contracts/AuthService.sol\":2170:2191  userLogins[userLogin] */\n      mload(0x40)\n      tag_506\n      swap2\n      swap1\n      tag_174\n      jump\t// in\n    tag_506:\n      swap1\n      dup2\n      mstore\n      0x20\n      add\n      mload(0x40)\n      dup1\n      swap2\n      sub\n      swap1\n      keccak256\n      0x00\n        /* \"contracts/AuthService.sol\":2170:2205  userLogins[userLogin] = userAddress */\n      0x0100\n      exp\n      dup2\n      sload\n      dup2\n      0xffffffffffffffffffffffffffffffffffffffff\n      mul\n      not\n      and\n      swap1\n      dup4\n      0xffffffffffffffffffffffffffffffffffffffff\n      and\n      mul\n      or\n      swap1\n      sstore\n      pop\n        /* \"contracts/AuthService.sol\":2236:2243  newUser */\n      dup1\n        /* \"contracts/AuthService.sol\":2215:2220  users */\n      0x02\n        /* \"contracts/AuthService.sol\":2215:2233  users[userAddress] */\n      0x00\n        /* \"contracts/AuthService.sol\":2221:2232  userAddress */\n      dup8\n        /* \"contracts/AuthService.sol\":2215:2233  users[userAddress] */\n      0xffffffffffffffffffffffffffffffffffffffff\n      and\n      0xffffffffffffffffffffffffffffffffffffffff\n      and\n      dup2\n      mstore\n      0x20\n      add\n      swap1\n      dup2\n      mstore\n      0x20\n      add\n      0x00\n      keccak256\n        /* \"contracts/AuthService.sol\":2215:2243  users[userAddress] = newUser */\n      0x00\n      dup3\n      add\n      mload\n      dup2\n      0x00\n      add\n      sstore\n      0x20\n      dup3\n      add\n      mload\n      dup2\n      0x01\n      add\n      swap1\n      dup1\n      mload\n      swap1\n      0x20\n      add\n      swap1\n      tag_507\n      swap3\n      swap2\n      swap1\n      tag_170\n      jump\t// in\n    tag_507:\n      pop\n      0x40\n      dup3\n      add\n      mload\n      dup2\n      0x02\n      add\n      swap1\n      dup1\n      mload\n      swap1\n      0x20\n      add\n      swap1\n      tag_508\n      swap3\n      swap2\n      swap1\n      tag_170\n      jump\t// in\n    tag_508:\n      pop\n      0x60\n      dup3\n      add\n      mload\n      dup2\n      0x03\n      add\n      swap1\n      dup1\n      mload\n      swap1\n      0x20\n      add\n      swap1\n      tag_509\n      swap3\n      swap2\n      swap1\n      tag_510\n      jump\t// in\n    tag_509:\n      pop\n      swap1\n      pop\n      pop\n        /* \"contracts/AuthService.sol\":2024:2250  {... */\n      pop\n      pop\n        /* \"contracts/AuthService.sol\":1875:2250  function registerFromAdmin(string memory fio,string memory userLogin,uint status,address userAddress) internal isNotRegistered(userAddress,userLogin){... */\n      pop\n      pop\n      pop\n      pop\n      pop\n      pop\n      jump\t// out\n        /* \"contracts/AuthService.sol\":779:945  function compare(string memory a,string memory b) internal pure returns (bool){... */\n    tag_163:\n        /* \"contracts/AuthService.sol\":852:856  bool */\n      0x00\n        /* \"contracts/AuthService.sol\":935:936  b */\n      dup2\n        /* \"contracts/AuthService.sol\":918:937  abi.encodePacked(b) */\n      add(0x20, mload(0x40))\n      tag_512\n      swap2\n      swap1\n      tag_174\n      jump\t// in\n    tag_512:\n      mload(0x40)\n      0x20\n      dup2\n      dup4\n      sub\n      sub\n      dup2\n      mstore\n      swap1\n      0x40\n      mstore\n        /* \"contracts/AuthService.sol\":908:938  keccak256(abi.encodePacked(b)) */\n      dup1\n      mload\n      swap1\n      0x20\n      add\n      keccak256\n        /* \"contracts/AuthService.sol\":901:902  a */\n      dup4\n        /* \"contracts/AuthService.sol\":884:903  abi.encodePacked(a) */\n      add(0x20, mload(0x40))\n      tag_513\n      swap2\n      swap1\n      tag_174\n      jump\t// in\n    tag_513:\n      mload(0x40)\n      0x20\n      dup2\n      dup4\n      sub\n      sub\n      dup2\n      mstore\n      swap1\n      0x40\n      mstore\n        /* \"contracts/AuthService.sol\":874:904  keccak256(abi.encodePacked(a)) */\n      dup1\n      mload\n      swap1\n      0x20\n      add\n      keccak256\n        /* \"contracts/AuthService.sol\":874:938  keccak256(abi.encodePacked(a)) == keccak256(abi.encodePacked(b)) */\n      eq\n        /* \"contracts/AuthService.sol\":867:938  return keccak256(abi.encodePacked(a)) == keccak256(abi.encodePacked(b)) */\n      swap1\n      pop\n        /* \"contracts/AuthService.sol\":779:945  function compare(string memory a,string memory b) internal pure returns (bool){... */\n      swap3\n      swap2\n      pop\n      pop\n      jump\t// out\n    tag_170:\n      dup3\n      dup1\n      sload\n      tag_514\n      swap1\n      tag_119\n      jump\t// in\n    tag_514:\n      swap1\n      0x00\n      mstore\n      keccak256(0x00, 0x20)\n      swap1\n      0x1f\n      add\n      0x20\n      swap1\n      div\n      dup2\n      add\n      swap3\n      dup3\n      tag_516\n      jumpi\n      0x00\n      dup6\n      sstore\n      jump(tag_515)\n    tag_516:\n      dup3\n      0x1f\n      lt\n      tag_517\n      jumpi\n      dup1\n      mload\n      not(0xff)\n      and\n      dup4\n      dup1\n      add\n      or\n      dup6\n      sstore\n      jump(tag_515)\n    tag_517:\n      dup3\n      dup1\n      add\n      0x01\n      add\n      dup6\n      sstore\n      dup3\n      iszero\n      tag_515\n      jumpi\n      swap2\n      dup3\n      add\n    tag_518:\n      dup3\n      dup2\n      gt\n      iszero\n      tag_519\n      jumpi\n      dup3\n      mload\n      dup3\n      sstore\n      swap2\n      0x20\n      add\n      swap2\n      swap1\n      0x01\n      add\n      swap1\n      jump(tag_518)\n    tag_519:\n    tag_515:\n      pop\n      swap1\n      pop\n      tag_520\n      swap2\n      swap1\n      tag_521\n      jump\t// in\n    tag_520:\n      pop\n      swap1\n      jump\t// out\n    tag_177:\n      dup3\n      dup1\n      sload\n      dup3\n      dup3\n      sstore\n      swap1\n      0x00\n      mstore\n      keccak256(0x00, 0x20)\n      swap1\n      dup2\n      add\n      swap3\n      dup3\n      iszero\n      tag_522\n      jumpi\n      swap2\n      0x20\n      mul\n      dup3\n      add\n    tag_523:\n      dup3\n      dup2\n      gt\n      iszero\n      tag_524\n      jumpi\n      dup3\n      mload\n      dup3\n      exp(0x0100, 0x00)\n      dup2\n      sload\n      dup2\n      0xffffffffffffffffffffffffffffffffffffffff\n      mul\n      not\n      and\n      swap1\n      dup4\n      0xffffffffffffffffffffffffffffffffffffffff\n      and\n      mul\n      or\n      swap1\n      sstore\n      pop\n      swap2\n      0x20\n      add\n      swap2\n      swap1\n      0x01\n      add\n      swap1\n      jump(tag_523)\n    tag_524:\n    tag_522:\n      pop\n      swap1\n      pop\n      tag_525\n      swap2\n      swap1\n      tag_521\n      jump\t// in\n    tag_525:\n      pop\n      swap1\n      jump\t// out\n    tag_510:\n      dup3\n      dup1\n      sload\n      dup3\n      dup3\n      sstore\n      swap1\n      0x00\n      mstore\n      keccak256(0x00, 0x20)\n      swap1\n      dup2\n      add\n      swap3\n      dup3\n      iszero\n      tag_526\n      jumpi\n      swap2\n      0x20\n      mul\n      dup3\n      add\n    tag_527:\n      dup3\n      dup2\n      gt\n      iszero\n      tag_528\n      jumpi\n      dup3\n      mload\n      dup3\n      swap1\n      dup1\n      mload\n      swap1\n      0x20\n      add\n      swap1\n      tag_529\n      swap3\n      swap2\n      swap1\n      tag_170\n      jump\t// in\n    tag_529:\n      pop\n      swap2\n      0x20\n      add\n      swap2\n      swap1\n      0x01\n      add\n      swap1\n      jump(tag_527)\n    tag_528:\n    tag_526:\n      pop\n      swap1\n      pop\n      tag_530\n      swap2\n      swap1\n      tag_531\n      jump\t// in\n    tag_530:\n      pop\n      swap1\n      jump\t// out\n    tag_521:\n    tag_532:\n      dup1\n      dup3\n      gt\n      iszero\n      tag_533\n      jumpi\n      0x00\n      dup2\n      0x00\n      swap1\n      sstore\n      pop\n      0x01\n      add\n      jump(tag_532)\n    tag_533:\n      pop\n      swap1\n      jump\t// out\n    tag_531:\n    tag_534:\n      dup1\n      dup3\n      gt\n      iszero\n      tag_535\n      jumpi\n      0x00\n      dup2\n      dup2\n      tag_536\n      swap2\n      swap1\n      tag_537\n      jump\t// in\n    tag_536:\n      pop\n      0x01\n      add\n      jump(tag_534)\n    tag_535:\n      pop\n      swap1\n      jump\t// out\n    tag_537:\n      pop\n      dup1\n      sload\n      tag_538\n      swap1\n      tag_119\n      jump\t// in\n    tag_538:\n      0x00\n      dup3\n      sstore\n      dup1\n      0x1f\n      lt\n      tag_540\n      jumpi\n      pop\n      jump(tag_539)\n    tag_540:\n      0x1f\n      add\n      0x20\n      swap1\n      div\n      swap1\n      0x00\n      mstore\n      keccak256(0x00, 0x20)\n      swap1\n      dup2\n      add\n      swap1\n      tag_541\n      swap2\n      swap1\n      tag_521\n      jump\t// in\n    tag_541:\n    tag_539:\n      pop\n      jump\t// out\n        /* \"#utility.yul\":7:419   */\n    tag_543:\n        /* \"#utility.yul\":85:90   */\n      0x00\n        /* \"#utility.yul\":110:176   */\n      tag_545\n        /* \"#utility.yul\":126:175   */\n      tag_546\n        /* \"#utility.yul\":168:174   */\n      dup5\n        /* \"#utility.yul\":126:175   */\n      tag_547\n      jump\t// in\n    tag_546:\n        /* \"#utility.yul\":110:176   */\n      tag_548\n      jump\t// in\n    tag_545:\n        /* \"#utility.yul\":101:176   */\n      swap1\n      pop\n        /* \"#utility.yul\":199:205   */\n      dup3\n        /* \"#utility.yul\":192:197   */\n      dup2\n        /* \"#utility.yul\":185:206   */\n      mstore\n        /* \"#utility.yul\":237:241   */\n      0x20\n        /* \"#utility.yul\":230:235   */\n      dup2\n        /* \"#utility.yul\":226:242   */\n      add\n        /* \"#utility.yul\":275:278   */\n      dup5\n        /* \"#utility.yul\":266:272   */\n      dup5\n        /* \"#utility.yul\":261:264   */\n      dup5\n        /* \"#utility.yul\":257:273   */\n      add\n        /* \"#utility.yul\":254:279   */\n      gt\n        /* \"#utility.yul\":251:363   */\n      iszero\n      tag_549\n      jumpi\n        /* \"#utility.yul\":282:361   */\n      tag_550\n      tag_551\n      jump\t// in\n    tag_550:\n        /* \"#utility.yul\":251:363   */\n    tag_549:\n        /* \"#utility.yul\":372:413   */\n      tag_552\n        /* \"#utility.yul\":406:412   */\n      dup5\n        /* \"#utility.yul\":401:404   */\n      dup3\n        /* \"#utility.yul\":396:399   */\n      dup6\n        /* \"#utility.yul\":372:413   */\n      tag_553\n      jump\t// in\n    tag_552:\n        /* \"#utility.yul\":91:419   */\n      pop\n        /* \"#utility.yul\":7:419   */\n      swap4\n      swap3\n      pop\n      pop\n      pop\n      jump\t// out\n        /* \"#utility.yul\":425:564   */\n    tag_554:\n        /* \"#utility.yul\":471:476   */\n      0x00\n        /* \"#utility.yul\":509:515   */\n      dup2\n        /* \"#utility.yul\":496:516   */\n      calldataload\n        /* \"#utility.yul\":487:516   */\n      swap1\n      pop\n        /* \"#utility.yul\":525:558   */\n      tag_556\n        /* \"#utility.yul\":552:557   */\n      dup2\n        /* \"#utility.yul\":525:558   */\n      tag_557\n      jump\t// in\n    tag_556:\n        /* \"#utility.yul\":425:564   */\n      swap3\n      swap2\n      pop\n      pop\n      jump\t// out\n        /* \"#utility.yul\":570:725   */\n    tag_558:\n        /* \"#utility.yul\":624:629   */\n      0x00\n        /* \"#utility.yul\":662:668   */\n      dup2\n        /* \"#utility.yul\":649:669   */\n      calldataload\n        /* \"#utility.yul\":640:669   */\n      swap1\n      pop\n        /* \"#utility.yul\":678:719   */\n      tag_560\n        /* \"#utility.yul\":713:718   */\n      dup2\n        /* \"#utility.yul\":678:719   */\n      tag_561\n      jump\t// in\n    tag_560:\n        /* \"#utility.yul\":570:725   */\n      swap3\n      swap2\n      pop\n      pop\n      jump\t// out\n        /* \"#utility.yul\":731:868   */\n    tag_562:\n        /* \"#utility.yul\":776:781   */\n      0x00\n        /* \"#utility.yul\":814:820   */\n      dup2\n        /* \"#utility.yul\":801:821   */\n      calldataload\n        /* \"#utility.yul\":792:821   */\n      swap1\n      pop\n        /* \"#utility.yul\":830:862   */\n      tag_564\n        /* \"#utility.yul\":856:861   */\n      dup2\n        /* \"#utility.yul\":830:862   */\n      tag_565\n      jump\t// in\n    tag_564:\n        /* \"#utility.yul\":731:868   */\n      swap3\n      swap2\n      pop\n      pop\n      jump\t// out\n        /* \"#utility.yul\":888:1228   */\n    tag_566:\n        /* \"#utility.yul\":944:949   */\n      0x00\n        /* \"#utility.yul\":993:996   */\n      dup3\n        /* \"#utility.yul\":986:990   */\n      0x1f\n        /* \"#utility.yul\":978:984   */\n      dup4\n        /* \"#utility.yul\":974:991   */\n      add\n        /* \"#utility.yul\":970:997   */\n      slt\n        /* \"#utility.yul\":960:1082   */\n      tag_568\n      jumpi\n        /* \"#utility.yul\":1001:1080   */\n      tag_569\n      tag_570\n      jump\t// in\n    tag_569:\n        /* \"#utility.yul\":960:1082   */\n    tag_568:\n        /* \"#utility.yul\":1118:1124   */\n      dup2\n        /* \"#utility.yul\":1105:1125   */\n      calldataload\n        /* \"#utility.yul\":1143:1222   */\n      tag_571\n        /* \"#utility.yul\":1218:1221   */\n      dup5\n        /* \"#utility.yul\":1210:1216   */\n      dup3\n        /* \"#utility.yul\":1203:1207   */\n      0x20\n        /* \"#utility.yul\":1195:1201   */\n      dup7\n        /* \"#utility.yul\":1191:1208   */\n      add\n        /* \"#utility.yul\":1143:1222   */\n      tag_543\n      jump\t// in\n    tag_571:\n        /* \"#utility.yul\":1134:1222   */\n      swap2\n      pop\n        /* \"#utility.yul\":950:1228   */\n      pop\n        /* \"#utility.yul\":888:1228   */\n      swap3\n      swap2\n      pop\n      pop\n      jump\t// out\n        /* \"#utility.yul\":1234:1563   */\n    tag_29:\n        /* \"#utility.yul\":1293:1299   */\n      0x00\n        /* \"#utility.yul\":1342:1344   */\n      0x20\n        /* \"#utility.yul\":1330:1339   */\n      dup3\n        /* \"#utility.yul\":1321:1328   */\n      dup5\n        /* \"#utility.yul\":1317:1340   */\n      sub\n        /* \"#utility.yul\":1313:1345   */\n      slt\n        /* \"#utility.yul\":1310:1429   */\n      iszero\n      tag_573\n      jumpi\n        /* \"#utility.yul\":1348:1427   */\n      tag_574\n      tag_575\n      jump\t// in\n    tag_574:\n        /* \"#utility.yul\":1310:1429   */\n    tag_573:\n        /* \"#utility.yul\":1468:1469   */\n      0x00\n        /* \"#utility.yul\":1493:1546   */\n      tag_576\n        /* \"#utility.yul\":1538:1545   */\n      dup5\n        /* \"#utility.yul\":1529:1535   */\n      dup3\n        /* \"#utility.yul\":1518:1527   */\n      dup6\n        /* \"#utility.yul\":1514:1536   */\n      add\n        /* \"#utility.yul\":1493:1546   */\n      tag_554\n      jump\t// in\n    tag_576:\n        /* \"#utility.yul\":1483:1546   */\n      swap2\n      pop\n        /* \"#utility.yul\":1439:1556   */\n      pop\n        /* \"#utility.yul\":1234:1563   */\n      swap3\n      swap2\n      pop\n      pop\n      jump\t// out\n        /* \"#utility.yul\":1569:1914   */\n    tag_67:\n        /* \"#utility.yul\":1636:1642   */\n      0x00\n        /* \"#utility.yul\":1685:1687   */\n      0x20\n        /* \"#utility.yul\":1673:1682   */\n      dup3\n        /* \"#utility.yul\":1664:1671   */\n      dup5\n        /* \"#utility.yul\":1660:1683   */\n      sub\n        /* \"#utility.yul\":1656:1688   */\n      slt\n        /* \"#utility.yul\":1653:1772   */\n      iszero\n      tag_578\n      jumpi\n        /* \"#utility.yul\":1691:1770   */\n      tag_579\n      tag_575\n      jump\t// in\n    tag_579:\n        /* \"#utility.yul\":1653:1772   */\n    tag_578:\n        /* \"#utility.yul\":1811:1812   */\n      0x00\n        /* \"#utility.yul\":1836:1897   */\n      tag_580\n        /* \"#utility.yul\":1889:1896   */\n      dup5\n        /* \"#utility.yul\":1880:1886   */\n      dup3\n        /* \"#utility.yul\":1869:1878   */\n      dup6\n        /* \"#utility.yul\":1865:1887   */\n      add\n        /* \"#utility.yul\":1836:1897   */\n      tag_558\n      jump\t// in\n    tag_580:\n        /* \"#utility.yul\":1826:1897   */\n      swap2\n      pop\n        /* \"#utility.yul\":1782:1907   */\n      pop\n        /* \"#utility.yul\":1569:1914   */\n      swap3\n      swap2\n      pop\n      pop\n      jump\t// out\n        /* \"#utility.yul\":1920:2899   */\n    tag_83:\n        /* \"#utility.yul\":2017:2023   */\n      0x00\n        /* \"#utility.yul\":2025:2031   */\n      dup1\n        /* \"#utility.yul\":2033:2039   */\n      0x00\n        /* \"#utility.yul\":2082:2084   */\n      0x60\n        /* \"#utility.yul\":2070:2079   */\n      dup5\n        /* \"#utility.yul\":2061:2068   */\n      dup7\n        /* \"#utility.yul\":2057:2080   */\n      sub\n        /* \"#utility.yul\":2053:2085   */\n      slt\n        /* \"#utility.yul\":2050:2169   */\n      iszero\n      tag_582\n      jumpi\n        /* \"#utility.yul\":2088:2167   */\n      tag_583\n      tag_575\n      jump\t// in\n    tag_583:\n        /* \"#utility.yul\":2050:2169   */\n    tag_582:\n        /* \"#utility.yul\":2208:2209   */\n      0x00\n        /* \"#utility.yul\":2233:2286   */\n      tag_584\n        /* \"#utility.yul\":2278:2285   */\n      dup7\n        /* \"#utility.yul\":2269:2275   */\n      dup3\n        /* \"#utility.yul\":2258:2267   */\n      dup8\n        /* \"#utility.yul\":2254:2276   */\n      add\n        /* \"#utility.yul\":2233:2286   */\n      tag_554\n      jump\t// in\n    tag_584:\n        /* \"#utility.yul\":2223:2286   */\n      swap4\n      pop\n        /* \"#utility.yul\":2179:2296   */\n      pop\n        /* \"#utility.yul\":2363:2365   */\n      0x20\n        /* \"#utility.yul\":2352:2361   */\n      dup5\n        /* \"#utility.yul\":2348:2366   */\n      add\n        /* \"#utility.yul\":2335:2367   */\n      calldataload\n        /* \"#utility.yul\":2394:2412   */\n      0xffffffffffffffff\n        /* \"#utility.yul\":2386:2392   */\n      dup2\n        /* \"#utility.yul\":2383:2413   */\n      gt\n        /* \"#utility.yul\":2380:2497   */\n      iszero\n      tag_585\n      jumpi\n        /* \"#utility.yul\":2416:2495   */\n      tag_586\n      tag_587\n      jump\t// in\n    tag_586:\n        /* \"#utility.yul\":2380:2497   */\n    tag_585:\n        /* \"#utility.yul\":2521:2584   */\n      tag_588\n        /* \"#utility.yul\":2576:2583   */\n      dup7\n        /* \"#utility.yul\":2567:2573   */\n      dup3\n        /* \"#utility.yul\":2556:2565   */\n      dup8\n        /* \"#utility.yul\":2552:2574   */\n      add\n        /* \"#utility.yul\":2521:2584   */\n      tag_566\n      jump\t// in\n    tag_588:\n        /* \"#utility.yul\":2511:2584   */\n      swap3\n      pop\n        /* \"#utility.yul\":2306:2594   */\n      pop\n        /* \"#utility.yul\":2661:2663   */\n      0x40\n        /* \"#utility.yul\":2650:2659   */\n      dup5\n        /* \"#utility.yul\":2646:2664   */\n      add\n        /* \"#utility.yul\":2633:2665   */\n      calldataload\n        /* \"#utility.yul\":2692:2710   */\n      0xffffffffffffffff\n        /* \"#utility.yul\":2684:2690   */\n      dup2\n        /* \"#utility.yul\":2681:2711   */\n      gt\n        /* \"#utility.yul\":2678:2795   */\n      iszero\n      tag_589\n      jumpi\n        /* \"#utility.yul\":2714:2793   */\n      tag_590\n      tag_587\n      jump\t// in\n    tag_590:\n        /* \"#utility.yul\":2678:2795   */\n    tag_589:\n        /* \"#utility.yul\":2819:2882   */\n      tag_591\n        /* \"#utility.yul\":2874:2881   */\n      dup7\n        /* \"#utility.yul\":2865:2871   */\n      dup3\n        /* \"#utility.yul\":2854:2863   */\n      dup8\n        /* \"#utility.yul\":2850:2872   */\n      add\n        /* \"#utility.yul\":2819:2882   */\n      tag_566\n      jump\t// in\n    tag_591:\n        /* \"#utility.yul\":2809:2882   */\n      swap2\n      pop\n        /* \"#utility.yul\":2604:2892   */\n      pop\n        /* \"#utility.yul\":1920:2899   */\n      swap3\n      pop\n      swap3\n      pop\n      swap3\n      jump\t// out\n        /* \"#utility.yul\":2905:4028   */\n    tag_39:\n        /* \"#utility.yul\":3010:3016   */\n      0x00\n        /* \"#utility.yul\":3018:3024   */\n      dup1\n        /* \"#utility.yul\":3026:3032   */\n      0x00\n        /* \"#utility.yul\":3034:3040   */\n      dup1\n        /* \"#utility.yul\":3083:3086   */\n      0x80\n        /* \"#utility.yul\":3071:3080   */\n      dup6\n        /* \"#utility.yul\":3062:3069   */\n      dup8\n        /* \"#utility.yul\":3058:3081   */\n      sub\n        /* \"#utility.yul\":3054:3087   */\n      slt\n        /* \"#utility.yul\":3051:3171   */\n      iszero\n      tag_593\n      jumpi\n        /* \"#utility.yul\":3090:3169   */\n      tag_594\n      tag_575\n      jump\t// in\n    tag_594:\n        /* \"#utility.yul\":3051:3171   */\n    tag_593:\n        /* \"#utility.yul\":3210:3211   */\n      0x00\n        /* \"#utility.yul\":3235:3288   */\n      tag_595\n        /* \"#utility.yul\":3280:3287   */\n      dup8\n        /* \"#utility.yul\":3271:3277   */\n      dup3\n        /* \"#utility.yul\":3260:3269   */\n      dup9\n        /* \"#utility.yul\":3256:3278   */\n      add\n        /* \"#utility.yul\":3235:3288   */\n      tag_554\n      jump\t// in\n    tag_595:\n        /* \"#utility.yul\":3225:3288   */\n      swap5\n      pop\n        /* \"#utility.yul\":3181:3298   */\n      pop\n        /* \"#utility.yul\":3365:3367   */\n      0x20\n        /* \"#utility.yul\":3354:3363   */\n      dup6\n        /* \"#utility.yul\":3350:3368   */\n      add\n        /* \"#utility.yul\":3337:3369   */\n      calldataload\n        /* \"#utility.yul\":3396:3414   */\n      0xffffffffffffffff\n        /* \"#utility.yul\":3388:3394   */\n      dup2\n        /* \"#utility.yul\":3385:3415   */\n      gt\n        /* \"#utility.yul\":3382:3499   */\n      iszero\n      tag_596\n      jumpi\n        /* \"#utility.yul\":3418:3497   */\n      tag_597\n      tag_587\n      jump\t// in\n    tag_597:\n        /* \"#utility.yul\":3382:3499   */\n    tag_596:\n        /* \"#utility.yul\":3523:3586   */\n      tag_598\n        /* \"#utility.yul\":3578:3585   */\n      dup8\n        /* \"#utility.yul\":3569:3575   */\n      dup3\n        /* \"#utility.yul\":3558:3567   */\n      dup9\n        /* \"#utility.yul\":3554:3576   */\n      add\n        /* \"#utility.yul\":3523:3586   */\n      tag_566\n      jump\t// in\n    tag_598:\n        /* \"#utility.yul\":3513:3586   */\n      swap4\n      pop\n        /* \"#utility.yul\":3308:3596   */\n      pop\n        /* \"#utility.yul\":3663:3665   */\n      0x40\n        /* \"#utility.yul\":3652:3661   */\n      dup6\n        /* \"#utility.yul\":3648:3666   */\n      add\n        /* \"#utility.yul\":3635:3667   */\n      calldataload\n        /* \"#utility.yul\":3694:3712   */\n      0xffffffffffffffff\n        /* \"#utility.yul\":3686:3692   */\n      dup2\n        /* \"#utility.yul\":3683:3713   */\n      gt\n        /* \"#utility.yul\":3680:3797   */\n      iszero\n      tag_599\n      jumpi\n        /* \"#utility.yul\":3716:3795   */\n      tag_600\n      tag_587\n      jump\t// in\n    tag_600:\n        /* \"#utility.yul\":3680:3797   */\n    tag_599:\n        /* \"#utility.yul\":3821:3884   */\n      tag_601\n        /* \"#utility.yul\":3876:3883   */\n      dup8\n        /* \"#utility.yul\":3867:3873   */\n      dup3\n        /* \"#utility.yul\":3856:3865   */\n      dup9\n        /* \"#utility.yul\":3852:3874   */\n      add\n        /* \"#utility.yul\":3821:3884   */\n      tag_566\n      jump\t// in\n    tag_601:\n        /* \"#utility.yul\":3811:3884   */\n      swap3\n      pop\n        /* \"#utility.yul\":3606:3894   */\n      pop\n        /* \"#utility.yul\":3933:3935   */\n      0x60\n        /* \"#utility.yul\":3959:4011   */\n      tag_602\n        /* \"#utility.yul\":4003:4010   */\n      dup8\n        /* \"#utility.yul\":3994:4000   */\n      dup3\n        /* \"#utility.yul\":3983:3992   */\n      dup9\n        /* \"#utility.yul\":3979:4001   */\n      add\n        /* \"#utility.yul\":3959:4011   */\n      tag_562\n      jump\t// in\n    tag_602:\n        /* \"#utility.yul\":3949:4011   */\n      swap2\n      pop\n        /* \"#utility.yul\":3904:4021   */\n      pop\n        /* \"#utility.yul\":2905:4028   */\n      swap3\n      swap6\n      swap2\n      swap5\n      pop\n      swap3\n      pop\n      jump\t// out\n        /* \"#utility.yul\":4034:5339   */\n    tag_57:\n        /* \"#utility.yul\":4150:4156   */\n      0x00\n        /* \"#utility.yul\":4158:4164   */\n      dup1\n        /* \"#utility.yul\":4166:4172   */\n      0x00\n        /* \"#utility.yul\":4174:4180   */\n      dup1\n        /* \"#utility.yul\":4223:4226   */\n      0x80\n        /* \"#utility.yul\":4211:4220   */\n      dup6\n        /* \"#utility.yul\":4202:4209   */\n      dup8\n        /* \"#utility.yul\":4198:4221   */\n      sub\n        /* \"#utility.yul\":4194:4227   */\n      slt\n        /* \"#utility.yul\":4191:4311   */\n      iszero\n      tag_604\n      jumpi\n        /* \"#utility.yul\":4230:4309   */\n      tag_605\n      tag_575\n      jump\t// in\n    tag_605:\n        /* \"#utility.yul\":4191:4311   */\n    tag_604:\n        /* \"#utility.yul\":4350:4351   */\n      0x00\n        /* \"#utility.yul\":4375:4428   */\n      tag_606\n        /* \"#utility.yul\":4420:4427   */\n      dup8\n        /* \"#utility.yul\":4411:4417   */\n      dup3\n        /* \"#utility.yul\":4400:4409   */\n      dup9\n        /* \"#utility.yul\":4396:4418   */\n      add\n        /* \"#utility.yul\":4375:4428   */\n      tag_554\n      jump\t// in\n    tag_606:\n        /* \"#utility.yul\":4365:4428   */\n      swap5\n      pop\n        /* \"#utility.yul\":4321:4438   */\n      pop\n        /* \"#utility.yul\":4505:4507   */\n      0x20\n        /* \"#utility.yul\":4494:4503   */\n      dup6\n        /* \"#utility.yul\":4490:4508   */\n      add\n        /* \"#utility.yul\":4477:4509   */\n      calldataload\n        /* \"#utility.yul\":4536:4554   */\n      0xffffffffffffffff\n        /* \"#utility.yul\":4528:4534   */\n      dup2\n        /* \"#utility.yul\":4525:4555   */\n      gt\n        /* \"#utility.yul\":4522:4639   */\n      iszero\n      tag_607\n      jumpi\n        /* \"#utility.yul\":4558:4637   */\n      tag_608\n      tag_587\n      jump\t// in\n    tag_608:\n        /* \"#utility.yul\":4522:4639   */\n    tag_607:\n        /* \"#utility.yul\":4663:4726   */\n      tag_609\n        /* \"#utility.yul\":4718:4725   */\n      dup8\n        /* \"#utility.yul\":4709:4715   */\n      dup3\n        /* \"#utility.yul\":4698:4707   */\n      dup9\n        /* \"#utility.yul\":4694:4716   */\n      add\n        /* \"#utility.yul\":4663:4726   */\n      tag_566\n      jump\t// in\n    tag_609:\n        /* \"#utility.yul\":4653:4726   */\n      swap4\n      pop\n        /* \"#utility.yul\":4448:4736   */\n      pop\n        /* \"#utility.yul\":4803:4805   */\n      0x40\n        /* \"#utility.yul\":4792:4801   */\n      dup6\n        /* \"#utility.yul\":4788:4806   */\n      add\n        /* \"#utility.yul\":4775:4807   */\n      calldataload\n        /* \"#utility.yul\":4834:4852   */\n      0xffffffffffffffff\n        /* \"#utility.yul\":4826:4832   */\n      dup2\n        /* \"#utility.yul\":4823:4853   */\n      gt\n        /* \"#utility.yul\":4820:4937   */\n      iszero\n      tag_610\n      jumpi\n        /* \"#utility.yul\":4856:4935   */\n      tag_611\n      tag_587\n      jump\t// in\n    tag_611:\n        /* \"#utility.yul\":4820:4937   */\n    tag_610:\n        /* \"#utility.yul\":4961:5024   */\n      tag_612\n        /* \"#utility.yul\":5016:5023   */\n      dup8\n        /* \"#utility.yul\":5007:5013   */\n      dup3\n        /* \"#utility.yul\":4996:5005   */\n      dup9\n        /* \"#utility.yul\":4992:5014   */\n      add\n        /* \"#utility.yul\":4961:5024   */\n      tag_566\n      jump\t// in\n    tag_612:\n        /* \"#utility.yul\":4951:5024   */\n      swap3\n      pop\n        /* \"#utility.yul\":4746:5034   */\n      pop\n        /* \"#utility.yul\":5101:5103   */\n      0x60\n        /* \"#utility.yul\":5090:5099   */\n      dup6\n        /* \"#utility.yul\":5086:5104   */\n      add\n        /* \"#utility.yul\":5073:5105   */\n      calldataload\n        /* \"#utility.yul\":5132:5150   */\n      0xffffffffffffffff\n        /* \"#utility.yul\":5124:5130   */\n      dup2\n        /* \"#utility.yul\":5121:5151   */\n      gt\n        /* \"#utility.yul\":5118:5235   */\n      iszero\n      tag_613\n      jumpi\n        /* \"#utility.yul\":5154:5233   */\n      tag_614\n      tag_587\n      jump\t// in\n    tag_614:\n        /* \"#utility.yul\":5118:5235   */\n    tag_613:\n        /* \"#utility.yul\":5259:5322   */\n      tag_615\n        /* \"#utility.yul\":5314:5321   */\n      dup8\n        /* \"#utility.yul\":5305:5311   */\n      dup3\n        /* \"#utility.yul\":5294:5303   */\n      dup9\n        /* \"#utility.yul\":5290:5312   */\n      add\n        /* \"#utility.yul\":5259:5322   */\n      tag_566\n      jump\t// in\n    tag_615:\n        /* \"#utility.yul\":5249:5322   */\n      swap2\n      pop\n        /* \"#utility.yul\":5044:5332   */\n      pop\n        /* \"#utility.yul\":4034:5339   */\n      swap3\n      swap6\n      swap2\n      swap5\n      pop\n      swap3\n      pop\n      jump\t// out\n        /* \"#utility.yul\":5345:5854   */\n    tag_43:\n        /* \"#utility.yul\":5414:5420   */\n      0x00\n        /* \"#utility.yul\":5463:5465   */\n      0x20\n        /* \"#utility.yul\":5451:5460   */\n      dup3\n        /* \"#utility.yul\":5442:5449   */\n      dup5\n        /* \"#utility.yul\":5438:5461   */\n      sub\n        /* \"#utility.yul\":5434:5466   */\n      slt\n        /* \"#utility.yul\":5431:5550   */\n      iszero\n      tag_617\n      jumpi\n        /* \"#utility.yul\":5469:5548   */\n      tag_618\n      tag_575\n      jump\t// in\n    tag_618:\n        /* \"#utility.yul\":5431:5550   */\n    tag_617:\n        /* \"#utility.yul\":5617:5618   */\n      0x00\n        /* \"#utility.yul\":5606:5615   */\n      dup3\n        /* \"#utility.yul\":5602:5619   */\n      add\n        /* \"#utility.yul\":5589:5620   */\n      calldataload\n        /* \"#utility.yul\":5647:5665   */\n      0xffffffffffffffff\n        /* \"#utility.yul\":5639:5645   */\n      dup2\n        /* \"#utility.yul\":5636:5666   */\n      gt\n        /* \"#utility.yul\":5633:5750   */\n      iszero\n      tag_619\n      jumpi\n        /* \"#utility.yul\":5669:5748   */\n      tag_620\n      tag_587\n      jump\t// in\n    tag_620:\n        /* \"#utility.yul\":5633:5750   */\n    tag_619:\n        /* \"#utility.yul\":5774:5837   */\n      tag_621\n        /* \"#utility.yul\":5829:5836   */\n      dup5\n        /* \"#utility.yul\":5820:5826   */\n      dup3\n        /* \"#utility.yul\":5809:5818   */\n      dup6\n        /* \"#utility.yul\":5805:5827   */\n      add\n        /* \"#utility.yul\":5774:5837   */\n      tag_566\n      jump\t// in\n    tag_621:\n        /* \"#utility.yul\":5764:5837   */\n      swap2\n      pop\n        /* \"#utility.yul\":5560:5847   */\n      pop\n        /* \"#utility.yul\":5345:5854   */\n      swap3\n      swap2\n      pop\n      pop\n      jump\t// out\n        /* \"#utility.yul\":5860:6514   */\n    tag_35:\n        /* \"#utility.yul\":5938:5944   */\n      0x00\n        /* \"#utility.yul\":5946:5952   */\n      dup1\n        /* \"#utility.yul\":5995:5997   */\n      0x40\n        /* \"#utility.yul\":5983:5992   */\n      dup4\n        /* \"#utility.yul\":5974:5981   */\n      dup6\n        /* \"#utility.yul\":5970:5993   */\n      sub\n        /* \"#utility.yul\":5966:5998   */\n      slt\n        /* \"#utility.yul\":5963:6082   */\n      iszero\n      tag_623\n      jumpi\n        /* \"#utility.yul\":6001:6080   */\n      tag_624\n      tag_575\n      jump\t// in\n    tag_624:\n        /* \"#utility.yul\":5963:6082   */\n    tag_623:\n        /* \"#utility.yul\":6149:6150   */\n      0x00\n        /* \"#utility.yul\":6138:6147   */\n      dup4\n        /* \"#utility.yul\":6134:6151   */\n      add\n        /* \"#utility.yul\":6121:6152   */\n      calldataload\n        /* \"#utility.yul\":6179:6197   */\n      0xffffffffffffffff\n        /* \"#utility.yul\":6171:6177   */\n      dup2\n        /* \"#utility.yul\":6168:6198   */\n      gt\n        /* \"#utility.yul\":6165:6282   */\n      iszero\n      tag_625\n      jumpi\n        /* \"#utility.yul\":6201:6280   */\n      tag_626\n      tag_587\n      jump\t// in\n    tag_626:\n        /* \"#utility.yul\":6165:6282   */\n    tag_625:\n        /* \"#utility.yul\":6306:6369   */\n      tag_627\n        /* \"#utility.yul\":6361:6368   */\n      dup6\n        /* \"#utility.yul\":6352:6358   */\n      dup3\n        /* \"#utility.yul\":6341:6350   */\n      dup7\n        /* \"#utility.yul\":6337:6359   */\n      add\n        /* \"#utility.yul\":6306:6369   */\n      tag_566\n      jump\t// in\n    tag_627:\n        /* \"#utility.yul\":6296:6369   */\n      swap3\n      pop\n        /* \"#utility.yul\":6092:6379   */\n      pop\n        /* \"#utility.yul\":6418:6420   */\n      0x20\n        /* \"#utility.yul\":6444:6497   */\n      tag_628\n        /* \"#utility.yul\":6489:6496   */\n      dup6\n        /* \"#utility.yul\":6480:6486   */\n      dup3\n        /* \"#utility.yul\":6469:6478   */\n      dup7\n        /* \"#utility.yul\":6465:6487   */\n      add\n        /* \"#utility.yul\":6444:6497   */\n      tag_554\n      jump\t// in\n    tag_628:\n        /* \"#utility.yul\":6434:6497   */\n      swap2\n      pop\n        /* \"#utility.yul\":6389:6507   */\n      pop\n        /* \"#utility.yul\":5860:6514   */\n      swap3\n      pop\n      swap3\n      swap1\n      pop\n      jump\t// out\n        /* \"#utility.yul\":6520:7354   */\n    tag_108:\n        /* \"#utility.yul\":6608:6614   */\n      0x00\n        /* \"#utility.yul\":6616:6622   */\n      dup1\n        /* \"#utility.yul\":6665:6667   */\n      0x40\n        /* \"#utility.yul\":6653:6662   */\n      dup4\n        /* \"#utility.yul\":6644:6651   */\n      dup6\n        /* \"#utility.yul\":6640:6663   */\n      sub\n        /* \"#utility.yul\":6636:6668   */\n      slt\n        /* \"#utility.yul\":6633:6752   */\n      iszero\n      tag_630\n      jumpi\n        /* \"#utility.yul\":6671:6750   */\n      tag_631\n      tag_575\n      jump\t// in\n    tag_631:\n        /* \"#utility.yul\":6633:6752   */\n    tag_630:\n        /* \"#utility.yul\":6819:6820   */\n      0x00\n        /* \"#utility.yul\":6808:6817   */\n      dup4\n        /* \"#utility.yul\":6804:6821   */\n      add\n        /* \"#utility.yul\":6791:6822   */\n      calldataload\n        /* \"#utility.yul\":6849:6867   */\n      0xffffffffffffffff\n        /* \"#utility.yul\":6841:6847   */\n      dup2\n        /* \"#utility.yul\":6838:6868   */\n      gt\n        /* \"#utility.yul\":6835:6952   */\n      iszero\n      tag_632\n      jumpi\n        /* \"#utility.yul\":6871:6950   */\n      tag_633\n      tag_587\n      jump\t// in\n    tag_633:\n        /* \"#utility.yul\":6835:6952   */\n    tag_632:\n        /* \"#utility.yul\":6976:7039   */\n      tag_634\n        /* \"#utility.yul\":7031:7038   */\n      dup6\n        /* \"#utility.yul\":7022:7028   */\n      dup3\n        /* \"#utility.yul\":7011:7020   */\n      dup7\n        /* \"#utility.yul\":7007:7029   */\n      add\n        /* \"#utility.yul\":6976:7039   */\n      tag_566\n      jump\t// in\n    tag_634:\n        /* \"#utility.yul\":6966:7039   */\n      swap3\n      pop\n        /* \"#utility.yul\":6762:7049   */\n      pop\n        /* \"#utility.yul\":7116:7118   */\n      0x20\n        /* \"#utility.yul\":7105:7114   */\n      dup4\n        /* \"#utility.yul\":7101:7119   */\n      add\n        /* \"#utility.yul\":7088:7120   */\n      calldataload\n        /* \"#utility.yul\":7147:7165   */\n      0xffffffffffffffff\n        /* \"#utility.yul\":7139:7145   */\n      dup2\n        /* \"#utility.yul\":7136:7166   */\n      gt\n        /* \"#utility.yul\":7133:7250   */\n      iszero\n      tag_635\n      jumpi\n        /* \"#utility.yul\":7169:7248   */\n      tag_636\n      tag_587\n      jump\t// in\n    tag_636:\n        /* \"#utility.yul\":7133:7250   */\n    tag_635:\n        /* \"#utility.yul\":7274:7337   */\n      tag_637\n        /* \"#utility.yul\":7329:7336   */\n      dup6\n        /* \"#utility.yul\":7320:7326   */\n      dup3\n        /* \"#utility.yul\":7309:7318   */\n      dup7\n        /* \"#utility.yul\":7305:7327   */\n      add\n        /* \"#utility.yul\":7274:7337   */\n      tag_566\n      jump\t// in\n    tag_637:\n        /* \"#utility.yul\":7264:7337   */\n      swap2\n      pop\n        /* \"#utility.yul\":7059:7347   */\n      pop\n        /* \"#utility.yul\":6520:7354   */\n      swap3\n      pop\n      swap3\n      swap1\n      pop\n      jump\t// out\n        /* \"#utility.yul\":7360:8339   */\n    tag_79:\n        /* \"#utility.yul\":7457:7463   */\n      0x00\n        /* \"#utility.yul\":7465:7471   */\n      dup1\n        /* \"#utility.yul\":7473:7479   */\n      0x00\n        /* \"#utility.yul\":7522:7524   */\n      0x60\n        /* \"#utility.yul\":7510:7519   */\n      dup5\n        /* \"#utility.yul\":7501:7508   */\n      dup7\n        /* \"#utility.yul\":7497:7520   */\n      sub\n        /* \"#utility.yul\":7493:7525   */\n      slt\n        /* \"#utility.yul\":7490:7609   */\n      iszero\n      tag_639\n      jumpi\n        /* \"#utility.yul\":7528:7607   */\n      tag_640\n      tag_575\n      jump\t// in\n    tag_640:\n        /* \"#utility.yul\":7490:7609   */\n    tag_639:\n        /* \"#utility.yul\":7676:7677   */\n      0x00\n        /* \"#utility.yul\":7665:7674   */\n      dup5\n        /* \"#utility.yul\":7661:7678   */\n      add\n        /* \"#utility.yul\":7648:7679   */\n      calldataload\n        /* \"#utility.yul\":7706:7724   */\n      0xffffffffffffffff\n        /* \"#utility.yul\":7698:7704   */\n      dup2\n        /* \"#utility.yul\":7695:7725   */\n      gt\n        /* \"#utility.yul\":7692:7809   */\n      iszero\n      tag_641\n      jumpi\n        /* \"#utility.yul\":7728:7807   */\n      tag_642\n      tag_587\n      jump\t// in\n    tag_642:\n        /* \"#utility.yul\":7692:7809   */\n    tag_641:\n        /* \"#utility.yul\":7833:7896   */\n      tag_643\n        /* \"#utility.yul\":7888:7895   */\n      dup7\n        /* \"#utility.yul\":7879:7885   */\n      dup3\n        /* \"#utility.yul\":7868:7877   */\n      dup8\n        /* \"#utility.yul\":7864:7886   */\n      add\n        /* \"#utility.yul\":7833:7896   */\n      tag_566\n      jump\t// in\n    tag_643:\n        /* \"#utility.yul\":7823:7896   */\n      swap4\n      pop\n        /* \"#utility.yul\":7619:7906   */\n      pop\n        /* \"#utility.yul\":7973:7975   */\n      0x20\n        /* \"#utility.yul\":7962:7971   */\n      dup5\n        /* \"#utility.yul\":7958:7976   */\n      add\n        /* \"#utility.yul\":7945:7977   */\n      calldataload\n        /* \"#utility.yul\":8004:8022   */\n      0xffffffffffffffff\n        /* \"#utility.yul\":7996:8002   */\n      dup2\n        /* \"#utility.yul\":7993:8023   */\n      gt\n        /* \"#utility.yul\":7990:8107   */\n      iszero\n      tag_644\n      jumpi\n        /* \"#utility.yul\":8026:8105   */\n      tag_645\n      tag_587\n      jump\t// in\n    tag_645:\n        /* \"#utility.yul\":7990:8107   */\n    tag_644:\n        /* \"#utility.yul\":8131:8194   */\n      tag_646\n        /* \"#utility.yul\":8186:8193   */\n      dup7\n        /* \"#utility.yul\":8177:8183   */\n      dup3\n        /* \"#utility.yul\":8166:8175   */\n      dup8\n        /* \"#utility.yul\":8162:8184   */\n      add\n        /* \"#utility.yul\":8131:8194   */\n      tag_566\n      jump\t// in\n    tag_646:\n        /* \"#utility.yul\":8121:8194   */\n      swap3\n      pop\n        /* \"#utility.yul\":7916:8204   */\n      pop\n        /* \"#utility.yul\":8243:8245   */\n      0x40\n        /* \"#utility.yul\":8269:8322   */\n      tag_647\n        /* \"#utility.yul\":8314:8321   */\n      dup7\n        /* \"#utility.yul\":8305:8311   */\n      dup3\n        /* \"#utility.yul\":8294:8303   */\n      dup8\n        /* \"#utility.yul\":8290:8312   */\n      add\n        /* \"#utility.yul\":8269:8322   */\n      tag_554\n      jump\t// in\n    tag_647:\n        /* \"#utility.yul\":8259:8322   */\n      swap2\n      pop\n        /* \"#utility.yul\":8214:8332   */\n      pop\n        /* \"#utility.yul\":7360:8339   */\n      swap3\n      pop\n      swap3\n      pop\n      swap3\n      jump\t// out\n        /* \"#utility.yul\":8345:9470   */\n    tag_71:\n        /* \"#utility.yul\":8451:8457   */\n      0x00\n        /* \"#utility.yul\":8459:8465   */\n      dup1\n        /* \"#utility.yul\":8467:8473   */\n      0x00\n        /* \"#utility.yul\":8475:8481   */\n      dup1\n        /* \"#utility.yul\":8524:8527   */\n      0x80\n        /* \"#utility.yul\":8512:8521   */\n      dup6\n        /* \"#utility.yul\":8503:8510   */\n      dup8\n        /* \"#utility.yul\":8499:8522   */\n      sub\n        /* \"#utility.yul\":8495:8528   */\n      slt\n        /* \"#utility.yul\":8492:8612   */\n      iszero\n      tag_649\n      jumpi\n        /* \"#utility.yul\":8531:8610   */\n      tag_650\n      tag_575\n      jump\t// in\n    tag_650:\n        /* \"#utility.yul\":8492:8612   */\n    tag_649:\n        /* \"#utility.yul\":8679:8680   */\n      0x00\n        /* \"#utility.yul\":8668:8677   */\n      dup6\n        /* \"#utility.yul\":8664:8681   */\n      add\n        /* \"#utility.yul\":8651:8682   */\n      calldataload\n        /* \"#utility.yul\":8709:8727   */\n      0xffffffffffffffff\n        /* \"#utility.yul\":8701:8707   */\n      dup2\n        /* \"#utility.yul\":8698:8728   */\n      gt\n        /* \"#utility.yul\":8695:8812   */\n      iszero\n      tag_651\n      jumpi\n        /* \"#utility.yul\":8731:8810   */\n      tag_652\n      tag_587\n      jump\t// in\n    tag_652:\n        /* \"#utility.yul\":8695:8812   */\n    tag_651:\n        /* \"#utility.yul\":8836:8899   */\n      tag_653\n        /* \"#utility.yul\":8891:8898   */\n      dup8\n        /* \"#utility.yul\":8882:8888   */\n      dup3\n        /* \"#utility.yul\":8871:8880   */\n      dup9\n        /* \"#utility.yul\":8867:8889   */\n      add\n        /* \"#utility.yul\":8836:8899   */\n      tag_566\n      jump\t// in\n    tag_653:\n        /* \"#utility.yul\":8826:8899   */\n      swap5\n      pop\n        /* \"#utility.yul\":8622:8909   */\n      pop\n        /* \"#utility.yul\":8976:8978   */\n      0x20\n        /* \"#utility.yul\":8965:8974   */\n      dup6\n        /* \"#utility.yul\":8961:8979   */\n      add\n        /* \"#utility.yul\":8948:8980   */\n      calldataload\n        /* \"#utility.yul\":9007:9025   */\n      0xffffffffffffffff\n        /* \"#utility.yul\":8999:9005   */\n      dup2\n        /* \"#utility.yul\":8996:9026   */\n      gt\n        /* \"#utility.yul\":8993:9110   */\n      iszero\n      tag_654\n      jumpi\n        /* \"#utility.yul\":9029:9108   */\n      tag_655\n      tag_587\n      jump\t// in\n    tag_655:\n        /* \"#utility.yul\":8993:9110   */\n    tag_654:\n        /* \"#utility.yul\":9134:9197   */\n      tag_656\n        /* \"#utility.yul\":9189:9196   */\n      dup8\n        /* \"#utility.yul\":9180:9186   */\n      dup3\n        /* \"#utility.yul\":9169:9178   */\n      dup9\n        /* \"#utility.yul\":9165:9187   */\n      add\n        /* \"#utility.yul\":9134:9197   */\n      tag_566\n      jump\t// in\n    tag_656:\n        /* \"#utility.yul\":9124:9197   */\n      swap4\n      pop\n        /* \"#utility.yul\":8919:9207   */\n      pop\n        /* \"#utility.yul\":9246:9248   */\n      0x40\n        /* \"#utility.yul\":9272:9325   */\n      tag_657\n        /* \"#utility.yul\":9317:9324   */\n      dup8\n        /* \"#utility.yul\":9308:9314   */\n      dup3\n        /* \"#utility.yul\":9297:9306   */\n      dup9\n        /* \"#utility.yul\":9293:9315   */\n      add\n        /* \"#utility.yul\":9272:9325   */\n      tag_554\n      jump\t// in\n    tag_657:\n        /* \"#utility.yul\":9262:9325   */\n      swap3\n      pop\n        /* \"#utility.yul\":9217:9335   */\n      pop\n        /* \"#utility.yul\":9374:9376   */\n      0x60\n        /* \"#utility.yul\":9400:9453   */\n      tag_658\n        /* \"#utility.yul\":9445:9452   */\n      dup8\n        /* \"#utility.yul\":9436:9442   */\n      dup3\n        /* \"#utility.yul\":9425:9434   */\n      dup9\n        /* \"#utility.yul\":9421:9443   */\n      add\n        /* \"#utility.yul\":9400:9453   */\n      tag_554\n      jump\t// in\n    tag_658:\n        /* \"#utility.yul\":9390:9453   */\n      swap2\n      pop\n        /* \"#utility.yul\":9345:9463   */\n      pop\n        /* \"#utility.yul\":8345:9470   */\n      swap3\n      swap6\n      swap2\n      swap5\n      pop\n      swap3\n      pop\n      jump\t// out\n        /* \"#utility.yul\":9476:9655   */\n    tag_659:\n        /* \"#utility.yul\":9545:9555   */\n      0x00\n        /* \"#utility.yul\":9566:9612   */\n      tag_661\n        /* \"#utility.yul\":9608:9611   */\n      dup4\n        /* \"#utility.yul\":9600:9606   */\n      dup4\n        /* \"#utility.yul\":9566:9612   */\n      tag_662\n      jump\t// in\n    tag_661:\n        /* \"#utility.yul\":9644:9648   */\n      0x20\n        /* \"#utility.yul\":9639:9642   */\n      dup4\n        /* \"#utility.yul\":9635:9649   */\n      add\n        /* \"#utility.yul\":9621:9649   */\n      swap1\n      pop\n        /* \"#utility.yul\":9476:9655   */\n      swap3\n      swap2\n      pop\n      pop\n      jump\t// out\n        /* \"#utility.yul\":9661:9857   */\n    tag_663:\n        /* \"#utility.yul\":9750:9760   */\n      0x00\n        /* \"#utility.yul\":9785:9851   */\n      tag_665\n        /* \"#utility.yul\":9847:9850   */\n      dup4\n        /* \"#utility.yul\":9839:9845   */\n      dup4\n        /* \"#utility.yul\":9785:9851   */\n      tag_666\n      jump\t// in\n    tag_665:\n        /* \"#utility.yul\":9771:9851   */\n      swap1\n      pop\n        /* \"#utility.yul\":9661:9857   */\n      swap3\n      swap2\n      pop\n      pop\n      jump\t// out\n        /* \"#utility.yul\":9863:10115   */\n    tag_667:\n        /* \"#utility.yul\":9980:9990   */\n      0x00\n        /* \"#utility.yul\":10015:10109   */\n      tag_669\n        /* \"#utility.yul\":10105:10108   */\n      dup4\n        /* \"#utility.yul\":10097:10103   */\n      dup4\n        /* \"#utility.yul\":10015:10109   */\n      tag_670\n      jump\t// in\n    tag_669:\n        /* \"#utility.yul\":10001:10109   */\n      swap1\n      pop\n        /* \"#utility.yul\":9863:10115   */\n      swap3\n      swap2\n      pop\n      pop\n      jump\t// out\n        /* \"#utility.yul\":10121:10229   */\n    tag_662:\n        /* \"#utility.yul\":10198:10222   */\n      tag_672\n        /* \"#utility.yul\":10216:10221   */\n      dup2\n        /* \"#utility.yul\":10198:10222   */\n      tag_673\n      jump\t// in\n    tag_672:\n        /* \"#utility.yul\":10193:10196   */\n      dup3\n        /* \"#utility.yul\":10186:10223   */\n      mstore\n        /* \"#utility.yul\":10121:10229   */\n      pop\n      pop\n      jump\t// out\n        /* \"#utility.yul\":10235:10353   */\n    tag_674:\n        /* \"#utility.yul\":10322:10346   */\n      tag_676\n        /* \"#utility.yul\":10340:10345   */\n      dup2\n        /* \"#utility.yul\":10322:10346   */\n      tag_673\n      jump\t// in\n    tag_676:\n        /* \"#utility.yul\":10317:10320   */\n      dup3\n        /* \"#utility.yul\":10310:10347   */\n      mstore\n        /* \"#utility.yul\":10235:10353   */\n      pop\n      pop\n      jump\t// out\n        /* \"#utility.yul\":10389:11121   */\n    tag_677:\n        /* \"#utility.yul\":10508:10511   */\n      0x00\n        /* \"#utility.yul\":10537:10591   */\n      tag_679\n        /* \"#utility.yul\":10585:10590   */\n      dup3\n        /* \"#utility.yul\":10537:10591   */\n      tag_680\n      jump\t// in\n    tag_679:\n        /* \"#utility.yul\":10607:10693   */\n      tag_681\n        /* \"#utility.yul\":10686:10692   */\n      dup2\n        /* \"#utility.yul\":10681:10684   */\n      dup6\n        /* \"#utility.yul\":10607:10693   */\n      tag_682\n      jump\t// in\n    tag_681:\n        /* \"#utility.yul\":10600:10693   */\n      swap4\n      pop\n        /* \"#utility.yul\":10717:10773   */\n      tag_683\n        /* \"#utility.yul\":10767:10772   */\n      dup4\n        /* \"#utility.yul\":10717:10773   */\n      tag_684\n      jump\t// in\n    tag_683:\n        /* \"#utility.yul\":10796:10803   */\n      dup1\n        /* \"#utility.yul\":10827:10828   */\n      0x00\n        /* \"#utility.yul\":10812:11096   */\n    tag_685:\n        /* \"#utility.yul\":10837:10843   */\n      dup4\n        /* \"#utility.yul\":10834:10835   */\n      dup2\n        /* \"#utility.yul\":10831:10844   */\n      lt\n        /* \"#utility.yul\":10812:11096   */\n      iszero\n      tag_687\n      jumpi\n        /* \"#utility.yul\":10913:10919   */\n      dup2\n        /* \"#utility.yul\":10907:10920   */\n      mload\n        /* \"#utility.yul\":10940:11003   */\n      tag_688\n        /* \"#utility.yul\":10999:11002   */\n      dup9\n        /* \"#utility.yul\":10984:10997   */\n      dup3\n        /* \"#utility.yul\":10940:11003   */\n      tag_659\n      jump\t// in\n    tag_688:\n        /* \"#utility.yul\":10933:11003   */\n      swap8\n      pop\n        /* \"#utility.yul\":11026:11086   */\n      tag_689\n        /* \"#utility.yul\":11079:11085   */\n      dup4\n        /* \"#utility.yul\":11026:11086   */\n      tag_690\n      jump\t// in\n    tag_689:\n        /* \"#utility.yul\":11016:11086   */\n      swap3\n      pop\n        /* \"#utility.yul\":10872:11096   */\n      pop\n        /* \"#utility.yul\":10859:10860   */\n      0x01\n        /* \"#utility.yul\":10856:10857   */\n      dup2\n        /* \"#utility.yul\":10852:10861   */\n      add\n        /* \"#utility.yul\":10847:10861   */\n      swap1\n      pop\n        /* \"#utility.yul\":10812:11096   */\n      jump(tag_685)\n    tag_687:\n        /* \"#utility.yul\":10816:10830   */\n      pop\n        /* \"#utility.yul\":11112:11115   */\n      dup6\n        /* \"#utility.yul\":11105:11115   */\n      swap4\n      pop\n        /* \"#utility.yul\":10513:11121   */\n      pop\n      pop\n      pop\n        /* \"#utility.yul\":10389:11121   */\n      swap3\n      swap2\n      pop\n      pop\n      jump\t// out\n        /* \"#utility.yul\":11155:12146   */\n    tag_691:\n        /* \"#utility.yul\":11294:11297   */\n      0x00\n        /* \"#utility.yul\":11323:11387   */\n      tag_693\n        /* \"#utility.yul\":11381:11386   */\n      dup3\n        /* \"#utility.yul\":11323:11387   */\n      tag_694\n      jump\t// in\n    tag_693:\n        /* \"#utility.yul\":11403:11499   */\n      tag_695\n        /* \"#utility.yul\":11492:11498   */\n      dup2\n        /* \"#utility.yul\":11487:11490   */\n      dup6\n        /* \"#utility.yul\":11403:11499   */\n      tag_696\n      jump\t// in\n    tag_695:\n        /* \"#utility.yul\":11396:11499   */\n      swap4\n      pop\n        /* \"#utility.yul\":11525:11528   */\n      dup4\n        /* \"#utility.yul\":11570:11574   */\n      0x20\n        /* \"#utility.yul\":11562:11568   */\n      dup3\n        /* \"#utility.yul\":11558:11575   */\n      mul\n        /* \"#utility.yul\":11553:11556   */\n      dup6\n        /* \"#utility.yul\":11549:11576   */\n      add\n        /* \"#utility.yul\":11600:11666   */\n      tag_697\n        /* \"#utility.yul\":11660:11665   */\n      dup6\n        /* \"#utility.yul\":11600:11666   */\n      tag_698\n      jump\t// in\n    tag_697:\n        /* \"#utility.yul\":11689:11696   */\n      dup1\n        /* \"#utility.yul\":11720:11721   */\n      0x00\n        /* \"#utility.yul\":11705:12101   */\n    tag_699:\n        /* \"#utility.yul\":11730:11736   */\n      dup6\n        /* \"#utility.yul\":11727:11728   */\n      dup2\n        /* \"#utility.yul\":11724:11737   */\n      lt\n        /* \"#utility.yul\":11705:12101   */\n      iszero\n      tag_701\n      jumpi\n        /* \"#utility.yul\":11801:11810   */\n      dup5\n        /* \"#utility.yul\":11795:11799   */\n      dup5\n        /* \"#utility.yul\":11791:11811   */\n      sub\n        /* \"#utility.yul\":11786:11789   */\n      dup10\n        /* \"#utility.yul\":11779:11812   */\n      mstore\n        /* \"#utility.yul\":11852:11858   */\n      dup2\n        /* \"#utility.yul\":11846:11859   */\n      mload\n        /* \"#utility.yul\":11880:11964   */\n      tag_702\n        /* \"#utility.yul\":11959:11963   */\n      dup6\n        /* \"#utility.yul\":11944:11957   */\n      dup3\n        /* \"#utility.yul\":11880:11964   */\n      tag_663\n      jump\t// in\n    tag_702:\n        /* \"#utility.yul\":11872:11964   */\n      swap5\n      pop\n        /* \"#utility.yul\":11987:12057   */\n      tag_703\n        /* \"#utility.yul\":12050:12056   */\n      dup4\n        /* \"#utility.yul\":11987:12057   */\n      tag_704\n      jump\t// in\n    tag_703:\n        /* \"#utility.yul\":11977:12057   */\n      swap3\n      pop\n        /* \"#utility.yul\":12086:12090   */\n      0x20\n        /* \"#utility.yul\":12081:12084   */\n      dup11\n        /* \"#utility.yul\":12077:12091   */\n      add\n        /* \"#utility.yul\":12070:12091   */\n      swap10\n      pop\n        /* \"#utility.yul\":11765:12101   */\n      pop\n        /* \"#utility.yul\":11752:11753   */\n      0x01\n        /* \"#utility.yul\":11749:11750   */\n      dup2\n        /* \"#utility.yul\":11745:11754   */\n      add\n        /* \"#utility.yul\":11740:11754   */\n      swap1\n      pop\n        /* \"#utility.yul\":11705:12101   */\n      jump(tag_699)\n    tag_701:\n        /* \"#utility.yul\":11709:11723   */\n      pop\n        /* \"#utility.yul\":12117:12121   */\n      dup3\n        /* \"#utility.yul\":12110:12121   */\n      swap8\n      pop\n        /* \"#utility.yul\":12137:12140   */\n      dup8\n        /* \"#utility.yul\":12130:12140   */\n      swap6\n      pop\n        /* \"#utility.yul\":11299:12146   */\n      pop\n      pop\n      pop\n      pop\n      pop\n        /* \"#utility.yul\":11155:12146   */\n      swap3\n      swap2\n      pop\n      pop\n      jump\t// out\n        /* \"#utility.yul\":12196:13299   */\n    tag_705:\n        /* \"#utility.yul\":12363:12366   */\n      0x00\n        /* \"#utility.yul\":12392:12470   */\n      tag_707\n        /* \"#utility.yul\":12464:12469   */\n      dup3\n        /* \"#utility.yul\":12392:12470   */\n      tag_708\n      jump\t// in\n    tag_707:\n        /* \"#utility.yul\":12486:12596   */\n      tag_709\n        /* \"#utility.yul\":12589:12595   */\n      dup2\n        /* \"#utility.yul\":12584:12587   */\n      dup6\n        /* \"#utility.yul\":12486:12596   */\n      tag_710\n      jump\t// in\n    tag_709:\n        /* \"#utility.yul\":12479:12596   */\n      swap4\n      pop\n        /* \"#utility.yul\":12622:12625   */\n      dup4\n        /* \"#utility.yul\":12667:12671   */\n      0x20\n        /* \"#utility.yul\":12659:12665   */\n      dup3\n        /* \"#utility.yul\":12655:12672   */\n      mul\n        /* \"#utility.yul\":12650:12653   */\n      dup6\n        /* \"#utility.yul\":12646:12673   */\n      add\n        /* \"#utility.yul\":12697:12777   */\n      tag_711\n        /* \"#utility.yul\":12771:12776   */\n      dup6\n        /* \"#utility.yul\":12697:12777   */\n      tag_712\n      jump\t// in\n    tag_711:\n        /* \"#utility.yul\":12800:12807   */\n      dup1\n        /* \"#utility.yul\":12831:12832   */\n      0x00\n        /* \"#utility.yul\":12816:13254   */\n    tag_713:\n        /* \"#utility.yul\":12841:12847   */\n      dup6\n        /* \"#utility.yul\":12838:12839   */\n      dup2\n        /* \"#utility.yul\":12835:12848   */\n      lt\n        /* \"#utility.yul\":12816:13254   */\n      iszero\n      tag_715\n      jumpi\n        /* \"#utility.yul\":12912:12921   */\n      dup5\n        /* \"#utility.yul\":12906:12910   */\n      dup5\n        /* \"#utility.yul\":12902:12922   */\n      sub\n        /* \"#utility.yul\":12897:12900   */\n      dup10\n        /* \"#utility.yul\":12890:12923   */\n      mstore\n        /* \"#utility.yul\":12963:12969   */\n      dup2\n        /* \"#utility.yul\":12957:12970   */\n      mload\n        /* \"#utility.yul\":12991:13103   */\n      tag_716\n        /* \"#utility.yul\":13098:13102   */\n      dup6\n        /* \"#utility.yul\":13083:13096   */\n      dup3\n        /* \"#utility.yul\":12991:13103   */\n      tag_667\n      jump\t// in\n    tag_716:\n        /* \"#utility.yul\":12983:13103   */\n      swap5\n      pop\n        /* \"#utility.yul\":13126:13210   */\n      tag_717\n        /* \"#utility.yul\":13203:13209   */\n      dup4\n        /* \"#utility.yul\":13126:13210   */\n      tag_718\n      jump\t// in\n    tag_717:\n        /* \"#utility.yul\":13116:13210   */\n      swap3\n      pop\n        /* \"#utility.yul\":13239:13243   */\n      0x20\n        /* \"#utility.yul\":13234:13237   */\n      dup11\n        /* \"#utility.yul\":13230:13244   */\n      add\n        /* \"#utility.yul\":13223:13244   */\n      swap10\n      pop\n        /* \"#utility.yul\":12876:13254   */\n      pop\n        /* \"#utility.yul\":12863:12864   */\n      0x01\n        /* \"#utility.yul\":12860:12861   */\n      dup2\n        /* \"#utility.yul\":12856:12865   */\n      add\n        /* \"#utility.yul\":12851:12865   */\n      swap1\n      pop\n        /* \"#utility.yul\":12816:13254   */\n      jump(tag_713)\n    tag_715:\n        /* \"#utility.yul\":12820:12834   */\n      pop\n        /* \"#utility.yul\":13270:13274   */\n      dup3\n        /* \"#utility.yul\":13263:13274   */\n      swap8\n      pop\n        /* \"#utility.yul\":13290:13293   */\n      dup8\n        /* \"#utility.yul\":13283:13293   */\n      swap6\n      pop\n        /* \"#utility.yul\":12368:13299   */\n      pop\n      pop\n      pop\n      pop\n      pop\n        /* \"#utility.yul\":12196:13299   */\n      swap3\n      swap2\n      pop\n      pop\n      jump\t// out\n        /* \"#utility.yul\":13305:13404   */\n    tag_719:\n        /* \"#utility.yul\":13376:13397   */\n      tag_721\n        /* \"#utility.yul\":13391:13396   */\n      dup2\n        /* \"#utility.yul\":13376:13397   */\n      tag_722\n      jump\t// in\n    tag_721:\n        /* \"#utility.yul\":13371:13374   */\n      dup3\n        /* \"#utility.yul\":13364:13398   */\n      mstore\n        /* \"#utility.yul\":13305:13404   */\n      pop\n      pop\n      jump\t// out\n        /* \"#utility.yul\":13410:13525   */\n    tag_723:\n        /* \"#utility.yul\":13495:13518   */\n      tag_725\n        /* \"#utility.yul\":13512:13517   */\n      dup2\n        /* \"#utility.yul\":13495:13518   */\n      tag_726\n      jump\t// in\n    tag_725:\n        /* \"#utility.yul\":13490:13493   */\n      dup3\n        /* \"#utility.yul\":13483:13519   */\n      mstore\n        /* \"#utility.yul\":13410:13525   */\n      pop\n      pop\n      jump\t// out\n        /* \"#utility.yul\":13531:13875   */\n    tag_666:\n        /* \"#utility.yul\":13609:13612   */\n      0x00\n        /* \"#utility.yul\":13637:13676   */\n      tag_728\n        /* \"#utility.yul\":13670:13675   */\n      dup3\n        /* \"#utility.yul\":13637:13676   */\n      tag_729\n      jump\t// in\n    tag_728:\n        /* \"#utility.yul\":13692:13753   */\n      tag_730\n        /* \"#utility.yul\":13746:13752   */\n      dup2\n        /* \"#utility.yul\":13741:13744   */\n      dup6\n        /* \"#utility.yul\":13692:13753   */\n      tag_731\n      jump\t// in\n    tag_730:\n        /* \"#utility.yul\":13685:13753   */\n      swap4\n      pop\n        /* \"#utility.yul\":13762:13814   */\n      tag_732\n        /* \"#utility.yul\":13807:13813   */\n      dup2\n        /* \"#utility.yul\":13802:13805   */\n      dup6\n        /* \"#utility.yul\":13795:13799   */\n      0x20\n        /* \"#utility.yul\":13788:13793   */\n      dup7\n        /* \"#utility.yul\":13784:13800   */\n      add\n        /* \"#utility.yul\":13762:13814   */\n      tag_733\n      jump\t// in\n    tag_732:\n        /* \"#utility.yul\":13839:13868   */\n      tag_734\n        /* \"#utility.yul\":13861:13867   */\n      dup2\n        /* \"#utility.yul\":13839:13868   */\n      tag_735\n      jump\t// in\n    tag_734:\n        /* \"#utility.yul\":13834:13837   */\n      dup5\n        /* \"#utility.yul\":13830:13869   */\n      add\n        /* \"#utility.yul\":13823:13869   */\n      swap2\n      pop\n        /* \"#utility.yul\":13613:13875   */\n      pop\n        /* \"#utility.yul\":13531:13875   */\n      swap3\n      swap2\n      pop\n      pop\n      jump\t// out\n        /* \"#utility.yul\":13881:14245   */\n    tag_736:\n        /* \"#utility.yul\":13969:13972   */\n      0x00\n        /* \"#utility.yul\":13997:14036   */\n      tag_738\n        /* \"#utility.yul\":14030:14035   */\n      dup3\n        /* \"#utility.yul\":13997:14036   */\n      tag_729\n      jump\t// in\n    tag_738:\n        /* \"#utility.yul\":14052:14123   */\n      tag_739\n        /* \"#utility.yul\":14116:14122   */\n      dup2\n        /* \"#utility.yul\":14111:14114   */\n      dup6\n        /* \"#utility.yul\":14052:14123   */\n      tag_740\n      jump\t// in\n    tag_739:\n        /* \"#utility.yul\":14045:14123   */\n      swap4\n      pop\n        /* \"#utility.yul\":14132:14184   */\n      tag_741\n        /* \"#utility.yul\":14177:14183   */\n      dup2\n        /* \"#utility.yul\":14172:14175   */\n      dup6\n        /* \"#utility.yul\":14165:14169   */\n      0x20\n        /* \"#utility.yul\":14158:14163   */\n      dup7\n        /* \"#utility.yul\":14154:14170   */\n      add\n        /* \"#utility.yul\":14132:14184   */\n      tag_733\n      jump\t// in\n    tag_741:\n        /* \"#utility.yul\":14209:14238   */\n      tag_742\n        /* \"#utility.yul\":14231:14237   */\n      dup2\n        /* \"#utility.yul\":14209:14238   */\n      tag_735\n      jump\t// in\n    tag_742:\n        /* \"#utility.yul\":14204:14207   */\n      dup5\n        /* \"#utility.yul\":14200:14239   */\n      add\n        /* \"#utility.yul\":14193:14239   */\n      swap2\n      pop\n        /* \"#utility.yul\":13973:14245   */\n      pop\n        /* \"#utility.yul\":13881:14245   */\n      swap3\n      swap2\n      pop\n      pop\n      jump\t// out\n        /* \"#utility.yul\":14251:14628   */\n    tag_743:\n        /* \"#utility.yul\":14357:14360   */\n      0x00\n        /* \"#utility.yul\":14385:14424   */\n      tag_745\n        /* \"#utility.yul\":14418:14423   */\n      dup3\n        /* \"#utility.yul\":14385:14424   */\n      tag_729\n      jump\t// in\n    tag_745:\n        /* \"#utility.yul\":14440:14529   */\n      tag_746\n        /* \"#utility.yul\":14522:14528   */\n      dup2\n        /* \"#utility.yul\":14517:14520   */\n      dup6\n        /* \"#utility.yul\":14440:14529   */\n      tag_747\n      jump\t// in\n    tag_746:\n        /* \"#utility.yul\":14433:14529   */\n      swap4\n      pop\n        /* \"#utility.yul\":14538:14590   */\n      tag_748\n        /* \"#utility.yul\":14583:14589   */\n      dup2\n        /* \"#utility.yul\":14578:14581   */\n      dup6\n        /* \"#utility.yul\":14571:14575   */\n      0x20\n        /* \"#utility.yul\":14564:14569   */\n      dup7\n        /* \"#utility.yul\":14560:14576   */\n      add\n        /* \"#utility.yul\":14538:14590   */\n      tag_733\n      jump\t// in\n    tag_748:\n        /* \"#utility.yul\":14615:14621   */\n      dup1\n        /* \"#utility.yul\":14610:14613   */\n      dup5\n        /* \"#utility.yul\":14606:14622   */\n      add\n        /* \"#utility.yul\":14599:14622   */\n      swap2\n      pop\n        /* \"#utility.yul\":14361:14628   */\n      pop\n        /* \"#utility.yul\":14251:14628   */\n      swap3\n      swap2\n      pop\n      pop\n      jump\t// out\n        /* \"#utility.yul\":14634:15000   */\n    tag_749:\n        /* \"#utility.yul\":14776:14779   */\n      0x00\n        /* \"#utility.yul\":14797:14864   */\n      tag_751\n        /* \"#utility.yul\":14861:14863   */\n      0x1b\n        /* \"#utility.yul\":14856:14859   */\n      dup4\n        /* \"#utility.yul\":14797:14864   */\n      tag_740\n      jump\t// in\n    tag_751:\n        /* \"#utility.yul\":14790:14864   */\n      swap2\n      pop\n        /* \"#utility.yul\":14873:14966   */\n      tag_752\n        /* \"#utility.yul\":14962:14965   */\n      dup3\n        /* \"#utility.yul\":14873:14966   */\n      tag_753\n      jump\t// in\n    tag_752:\n        /* \"#utility.yul\":14991:14993   */\n      0x20\n        /* \"#utility.yul\":14986:14989   */\n      dup3\n        /* \"#utility.yul\":14982:14994   */\n      add\n        /* \"#utility.yul\":14975:14994   */\n      swap1\n      pop\n        /* \"#utility.yul\":14634:15000   */\n      swap2\n      swap1\n      pop\n      jump\t// out\n        /* \"#utility.yul\":15006:15372   */\n    tag_754:\n        /* \"#utility.yul\":15148:15151   */\n      0x00\n        /* \"#utility.yul\":15169:15236   */\n      tag_756\n        /* \"#utility.yul\":15233:15235   */\n      0x22\n        /* \"#utility.yul\":15228:15231   */\n      dup4\n        /* \"#utility.yul\":15169:15236   */\n      tag_740\n      jump\t// in\n    tag_756:\n        /* \"#utility.yul\":15162:15236   */\n      swap2\n      pop\n        /* \"#utility.yul\":15245:15338   */\n      tag_757\n        /* \"#utility.yul\":15334:15337   */\n      dup3\n        /* \"#utility.yul\":15245:15338   */\n      tag_758\n      jump\t// in\n    tag_757:\n        /* \"#utility.yul\":15363:15365   */\n      0x40\n        /* \"#utility.yul\":15358:15361   */\n      dup3\n        /* \"#utility.yul\":15354:15366   */\n      add\n        /* \"#utility.yul\":15347:15366   */\n      swap1\n      pop\n        /* \"#utility.yul\":15006:15372   */\n      swap2\n      swap1\n      pop\n      jump\t// out\n        /* \"#utility.yul\":15378:15744   */\n    tag_759:\n        /* \"#utility.yul\":15520:15523   */\n      0x00\n        /* \"#utility.yul\":15541:15608   */\n      tag_761\n        /* \"#utility.yul\":15605:15607   */\n      0x0b\n        /* \"#utility.yul\":15600:15603   */\n      dup4\n        /* \"#utility.yul\":15541:15608   */\n      tag_740\n      jump\t// in\n    tag_761:\n        /* \"#utility.yul\":15534:15608   */\n      swap2\n      pop\n        /* \"#utility.yul\":15617:15710   */\n      tag_762\n        /* \"#utility.yul\":15706:15709   */\n      dup3\n        /* \"#utility.yul\":15617:15710   */\n      tag_763\n      jump\t// in\n    tag_762:\n        /* \"#utility.yul\":15735:15737   */\n      0x20\n        /* \"#utility.yul\":15730:15733   */\n      dup3\n        /* \"#utility.yul\":15726:15738   */\n      add\n        /* \"#utility.yul\":15719:15738   */\n      swap1\n      pop\n        /* \"#utility.yul\":15378:15744   */\n      swap2\n      swap1\n      pop\n      jump\t// out\n        /* \"#utility.yul\":15750:16115   */\n    tag_764:\n        /* \"#utility.yul\":15892:15895   */\n      0x00\n        /* \"#utility.yul\":15913:15979   */\n      tag_766\n        /* \"#utility.yul\":15977:15978   */\n      0x09\n        /* \"#utility.yul\":15972:15975   */\n      dup4\n        /* \"#utility.yul\":15913:15979   */\n      tag_740\n      jump\t// in\n    tag_766:\n        /* \"#utility.yul\":15906:15979   */\n      swap2\n      pop\n        /* \"#utility.yul\":15988:16081   */\n      tag_767\n        /* \"#utility.yul\":16077:16080   */\n      dup3\n        /* \"#utility.yul\":15988:16081   */\n      tag_768\n      jump\t// in\n    tag_767:\n        /* \"#utility.yul\":16106:16108   */\n      0x20\n        /* \"#utility.yul\":16101:16104   */\n      dup3\n        /* \"#utility.yul\":16097:16109   */\n      add\n        /* \"#utility.yul\":16090:16109   */\n      swap1\n      pop\n        /* \"#utility.yul\":15750:16115   */\n      swap2\n      swap1\n      pop\n      jump\t// out\n        /* \"#utility.yul\":16121:16487   */\n    tag_769:\n        /* \"#utility.yul\":16263:16266   */\n      0x00\n        /* \"#utility.yul\":16284:16351   */\n      tag_771\n        /* \"#utility.yul\":16348:16350   */\n      0x0c\n        /* \"#utility.yul\":16343:16346   */\n      dup4\n        /* \"#utility.yul\":16284:16351   */\n      tag_740\n      jump\t// in\n    tag_771:\n        /* \"#utility.yul\":16277:16351   */\n      swap2\n      pop\n        /* \"#utility.yul\":16360:16453   */\n      tag_772\n        /* \"#utility.yul\":16449:16452   */\n      dup3\n        /* \"#utility.yul\":16360:16453   */\n      tag_773\n      jump\t// in\n    tag_772:\n        /* \"#utility.yul\":16478:16480   */\n      0x20\n        /* \"#utility.yul\":16473:16476   */\n      dup3\n        /* \"#utility.yul\":16469:16481   */\n      add\n        /* \"#utility.yul\":16462:16481   */\n      swap1\n      pop\n        /* \"#utility.yul\":16121:16487   */\n      swap2\n      swap1\n      pop\n      jump\t// out\n        /* \"#utility.yul\":16493:16859   */\n    tag_774:\n        /* \"#utility.yul\":16635:16638   */\n      0x00\n        /* \"#utility.yul\":16656:16723   */\n      tag_776\n        /* \"#utility.yul\":16720:16722   */\n      0x0d\n        /* \"#utility.yul\":16715:16718   */\n      dup4\n        /* \"#utility.yul\":16656:16723   */\n      tag_740\n      jump\t// in\n    tag_776:\n        /* \"#utility.yul\":16649:16723   */\n      swap2\n      pop\n        /* \"#utility.yul\":16732:16825   */\n      tag_777\n        /* \"#utility.yul\":16821:16824   */\n      dup3\n        /* \"#utility.yul\":16732:16825   */\n      tag_778\n      jump\t// in\n    tag_777:\n        /* \"#utility.yul\":16850:16852   */\n      0x20\n        /* \"#utility.yul\":16845:16848   */\n      dup3\n        /* \"#utility.yul\":16841:16853   */\n      add\n        /* \"#utility.yul\":16834:16853   */\n      swap1\n      pop\n        /* \"#utility.yul\":16493:16859   */\n      swap2\n      swap1\n      pop\n      jump\t// out\n        /* \"#utility.yul\":16865:17231   */\n    tag_779:\n        /* \"#utility.yul\":17007:17010   */\n      0x00\n        /* \"#utility.yul\":17028:17095   */\n      tag_781\n        /* \"#utility.yul\":17092:17094   */\n      0x16\n        /* \"#utility.yul\":17087:17090   */\n      dup4\n        /* \"#utility.yul\":17028:17095   */\n      tag_740\n      jump\t// in\n    tag_781:\n        /* \"#utility.yul\":17021:17095   */\n      swap2\n      pop\n        /* \"#utility.yul\":17104:17197   */\n      tag_782\n        /* \"#utility.yul\":17193:17196   */\n      dup3\n        /* \"#utility.yul\":17104:17197   */\n      tag_783\n      jump\t// in\n    tag_782:\n        /* \"#utility.yul\":17222:17224   */\n      0x20\n        /* \"#utility.yul\":17217:17220   */\n      dup3\n        /* \"#utility.yul\":17213:17225   */\n      add\n        /* \"#utility.yul\":17206:17225   */\n      swap1\n      pop\n        /* \"#utility.yul\":16865:17231   */\n      swap2\n      swap1\n      pop\n      jump\t// out\n        /* \"#utility.yul\":17237:17603   */\n    tag_784:\n        /* \"#utility.yul\":17379:17382   */\n      0x00\n        /* \"#utility.yul\":17400:17467   */\n      tag_786\n        /* \"#utility.yul\":17464:17466   */\n      0x0b\n        /* \"#utility.yul\":17459:17462   */\n      dup4\n        /* \"#utility.yul\":17400:17467   */\n      tag_740\n      jump\t// in\n    tag_786:\n        /* \"#utility.yul\":17393:17467   */\n      swap2\n      pop\n        /* \"#utility.yul\":17476:17569   */\n      tag_787\n        /* \"#utility.yul\":17565:17568   */\n      dup3\n        /* \"#utility.yul\":17476:17569   */\n      tag_788\n      jump\t// in\n    tag_787:\n        /* \"#utility.yul\":17594:17596   */\n      0x20\n        /* \"#utility.yul\":17589:17592   */\n      dup3\n        /* \"#utility.yul\":17585:17597   */\n      add\n        /* \"#utility.yul\":17578:17597   */\n      swap1\n      pop\n        /* \"#utility.yul\":17237:17603   */\n      swap2\n      swap1\n      pop\n      jump\t// out\n        /* \"#utility.yul\":17649:18677   */\n    tag_670:\n        /* \"#utility.yul\":17756:17759   */\n      0x00\n        /* \"#utility.yul\":17792:17796   */\n      0x80\n        /* \"#utility.yul\":17787:17790   */\n      dup4\n        /* \"#utility.yul\":17783:17797   */\n      add\n        /* \"#utility.yul\":17883:17887   */\n      0x00\n        /* \"#utility.yul\":17876:17881   */\n      dup4\n        /* \"#utility.yul\":17872:17888   */\n      add\n        /* \"#utility.yul\":17866:17889   */\n      mload\n        /* \"#utility.yul\":17902:17965   */\n      tag_790\n        /* \"#utility.yul\":17959:17963   */\n      0x00\n        /* \"#utility.yul\":17954:17957   */\n      dup7\n        /* \"#utility.yul\":17950:17964   */\n      add\n        /* \"#utility.yul\":17936:17948   */\n      dup3\n        /* \"#utility.yul\":17902:17965   */\n      tag_662\n      jump\t// in\n    tag_790:\n        /* \"#utility.yul\":17807:17975   */\n      pop\n        /* \"#utility.yul\":18064:18068   */\n      0x20\n        /* \"#utility.yul\":18057:18062   */\n      dup4\n        /* \"#utility.yul\":18053:18069   */\n      add\n        /* \"#utility.yul\":18047:18070   */\n      mload\n        /* \"#utility.yul\":18117:18120   */\n      dup5\n        /* \"#utility.yul\":18111:18115   */\n      dup3\n        /* \"#utility.yul\":18107:18121   */\n      sub\n        /* \"#utility.yul\":18100:18104   */\n      0x20\n        /* \"#utility.yul\":18095:18098   */\n      dup7\n        /* \"#utility.yul\":18091:18105   */\n      add\n        /* \"#utility.yul\":18084:18122   */\n      mstore\n        /* \"#utility.yul\":18143:18216   */\n      tag_791\n        /* \"#utility.yul\":18211:18215   */\n      dup3\n        /* \"#utility.yul\":18197:18209   */\n      dup3\n        /* \"#utility.yul\":18143:18216   */\n      tag_666\n      jump\t// in\n    tag_791:\n        /* \"#utility.yul\":18135:18216   */\n      swap2\n      pop\n        /* \"#utility.yul\":17985:18227   */\n      pop\n        /* \"#utility.yul\":18316:18320   */\n      0x40\n        /* \"#utility.yul\":18309:18314   */\n      dup4\n        /* \"#utility.yul\":18305:18321   */\n      add\n        /* \"#utility.yul\":18299:18322   */\n      mload\n        /* \"#utility.yul\":18369:18372   */\n      dup5\n        /* \"#utility.yul\":18363:18367   */\n      dup3\n        /* \"#utility.yul\":18359:18373   */\n      sub\n        /* \"#utility.yul\":18352:18356   */\n      0x40\n        /* \"#utility.yul\":18347:18350   */\n      dup7\n        /* \"#utility.yul\":18343:18357   */\n      add\n        /* \"#utility.yul\":18336:18374   */\n      mstore\n        /* \"#utility.yul\":18395:18468   */\n      tag_792\n        /* \"#utility.yul\":18463:18467   */\n      dup3\n        /* \"#utility.yul\":18449:18461   */\n      dup3\n        /* \"#utility.yul\":18395:18468   */\n      tag_666\n      jump\t// in\n    tag_792:\n        /* \"#utility.yul\":18387:18468   */\n      swap2\n      pop\n        /* \"#utility.yul\":18237:18479   */\n      pop\n        /* \"#utility.yul\":18564:18568   */\n      0x60\n        /* \"#utility.yul\":18557:18562   */\n      dup4\n        /* \"#utility.yul\":18553:18569   */\n      add\n        /* \"#utility.yul\":18547:18570   */\n      mload\n        /* \"#utility.yul\":18583:18640   */\n      tag_793\n        /* \"#utility.yul\":18634:18638   */\n      0x60\n        /* \"#utility.yul\":18629:18632   */\n      dup7\n        /* \"#utility.yul\":18625:18639   */\n      add\n        /* \"#utility.yul\":18611:18623   */\n      dup3\n        /* \"#utility.yul\":18583:18640   */\n      tag_719\n      jump\t// in\n    tag_793:\n        /* \"#utility.yul\":18489:18650   */\n      pop\n        /* \"#utility.yul\":18667:18671   */\n      dup1\n        /* \"#utility.yul\":18660:18671   */\n      swap2\n      pop\n        /* \"#utility.yul\":17761:18677   */\n      pop\n        /* \"#utility.yul\":17649:18677   */\n      swap3\n      swap2\n      pop\n      pop\n      jump\t// out\n        /* \"#utility.yul\":18683:18801   */\n    tag_794:\n        /* \"#utility.yul\":18770:18794   */\n      tag_796\n        /* \"#utility.yul\":18788:18793   */\n      dup2\n        /* \"#utility.yul\":18770:18794   */\n      tag_797\n      jump\t// in\n    tag_796:\n        /* \"#utility.yul\":18765:18768   */\n      dup3\n        /* \"#utility.yul\":18758:18795   */\n      mstore\n        /* \"#utility.yul\":18683:18801   */\n      pop\n      pop\n      jump\t// out\n        /* \"#utility.yul\":18807:19082   */\n    tag_174:\n        /* \"#utility.yul\":18939:18942   */\n      0x00\n        /* \"#utility.yul\":18961:19056   */\n      tag_799\n        /* \"#utility.yul\":19052:19055   */\n      dup3\n        /* \"#utility.yul\":19043:19049   */\n      dup5\n        /* \"#utility.yul\":18961:19056   */\n      tag_743\n      jump\t// in\n    tag_799:\n        /* \"#utility.yul\":18954:19056   */\n      swap2\n      pop\n        /* \"#utility.yul\":19073:19076   */\n      dup2\n        /* \"#utility.yul\":19066:19076   */\n      swap1\n      pop\n        /* \"#utility.yul\":18807:19082   */\n      swap3\n      swap2\n      pop\n      pop\n      jump\t// out\n        /* \"#utility.yul\":19088:19950   */\n    tag_46:\n        /* \"#utility.yul\":19339:19343   */\n      0x00\n        /* \"#utility.yul\":19377:19380   */\n      0xc0\n        /* \"#utility.yul\":19366:19375   */\n      dup3\n        /* \"#utility.yul\":19362:19381   */\n      add\n        /* \"#utility.yul\":19354:19381   */\n      swap1\n      pop\n        /* \"#utility.yul\":19391:19462   */\n      tag_801\n        /* \"#utility.yul\":19459:19460   */\n      0x00\n        /* \"#utility.yul\":19448:19457   */\n      dup4\n        /* \"#utility.yul\":19444:19461   */\n      add\n        /* \"#utility.yul\":19435:19441   */\n      dup10\n        /* \"#utility.yul\":19391:19462   */\n      tag_674\n      jump\t// in\n    tag_801:\n        /* \"#utility.yul\":19472:19544   */\n      tag_802\n        /* \"#utility.yul\":19540:19542   */\n      0x20\n        /* \"#utility.yul\":19529:19538   */\n      dup4\n        /* \"#utility.yul\":19525:19543   */\n      add\n        /* \"#utility.yul\":19516:19522   */\n      dup9\n        /* \"#utility.yul\":19472:19544   */\n      tag_674\n      jump\t// in\n    tag_802:\n        /* \"#utility.yul\":19591:19600   */\n      dup2\n        /* \"#utility.yul\":19585:19589   */\n      dup2\n        /* \"#utility.yul\":19581:19601   */\n      sub\n        /* \"#utility.yul\":19576:19578   */\n      0x40\n        /* \"#utility.yul\":19565:19574   */\n      dup4\n        /* \"#utility.yul\":19561:19579   */\n      add\n        /* \"#utility.yul\":19554:19602   */\n      mstore\n        /* \"#utility.yul\":19619:19697   */\n      tag_803\n        /* \"#utility.yul\":19692:19696   */\n      dup2\n        /* \"#utility.yul\":19683:19689   */\n      dup8\n        /* \"#utility.yul\":19619:19697   */\n      tag_736\n      jump\t// in\n    tag_803:\n        /* \"#utility.yul\":19611:19697   */\n      swap1\n      pop\n        /* \"#utility.yul\":19707:19779   */\n      tag_804\n        /* \"#utility.yul\":19775:19777   */\n      0x60\n        /* \"#utility.yul\":19764:19773   */\n      dup4\n        /* \"#utility.yul\":19760:19778   */\n      add\n        /* \"#utility.yul\":19751:19757   */\n      dup7\n        /* \"#utility.yul\":19707:19779   */\n      tag_794\n      jump\t// in\n    tag_804:\n        /* \"#utility.yul\":19789:19862   */\n      tag_805\n        /* \"#utility.yul\":19857:19860   */\n      0x80\n        /* \"#utility.yul\":19846:19855   */\n      dup4\n        /* \"#utility.yul\":19842:19861   */\n      add\n        /* \"#utility.yul\":19833:19839   */\n      dup6\n        /* \"#utility.yul\":19789:19862   */\n      tag_794\n      jump\t// in\n    tag_805:\n        /* \"#utility.yul\":19872:19943   */\n      tag_806\n        /* \"#utility.yul\":19938:19941   */\n      0xa0\n        /* \"#utility.yul\":19927:19936   */\n      dup4\n        /* \"#utility.yul\":19923:19942   */\n      add\n        /* \"#utility.yul\":19914:19920   */\n      dup5\n        /* \"#utility.yul\":19872:19943   */\n      tag_723\n      jump\t// in\n    tag_806:\n        /* \"#utility.yul\":19088:19950   */\n      swap8\n      swap7\n      pop\n      pop\n      pop\n      pop\n      pop\n      pop\n      pop\n      jump\t// out\n        /* \"#utility.yul\":19956:20379   */\n    tag_51:\n        /* \"#utility.yul\":20097:20101   */\n      0x00\n        /* \"#utility.yul\":20135:20137   */\n      0x40\n        /* \"#utility.yul\":20124:20133   */\n      dup3\n        /* \"#utility.yul\":20120:20138   */\n      add\n        /* \"#utility.yul\":20112:20138   */\n      swap1\n      pop\n        /* \"#utility.yul\":20148:20219   */\n      tag_808\n        /* \"#utility.yul\":20216:20217   */\n      0x00\n        /* \"#utility.yul\":20205:20214   */\n      dup4\n        /* \"#utility.yul\":20201:20218   */\n      add\n        /* \"#utility.yul\":20192:20198   */\n      dup6\n        /* \"#utility.yul\":20148:20219   */\n      tag_674\n      jump\t// in\n    tag_808:\n        /* \"#utility.yul\":20266:20275   */\n      dup2\n        /* \"#utility.yul\":20260:20264   */\n      dup2\n        /* \"#utility.yul\":20256:20276   */\n      sub\n        /* \"#utility.yul\":20251:20253   */\n      0x20\n        /* \"#utility.yul\":20240:20249   */\n      dup4\n        /* \"#utility.yul\":20236:20254   */\n      add\n        /* \"#utility.yul\":20229:20277   */\n      mstore\n        /* \"#utility.yul\":20294:20372   */\n      tag_809\n        /* \"#utility.yul\":20367:20371   */\n      dup2\n        /* \"#utility.yul\":20358:20364   */\n      dup5\n        /* \"#utility.yul\":20294:20372   */\n      tag_736\n      jump\t// in\n    tag_809:\n        /* \"#utility.yul\":20286:20372   */\n      swap1\n      pop\n        /* \"#utility.yul\":19956:20379   */\n      swap4\n      swap3\n      pop\n      pop\n      pop\n      jump\t// out\n        /* \"#utility.yul\":20385:21009   */\n    tag_105:\n        /* \"#utility.yul\":20574:20578   */\n      0x00\n        /* \"#utility.yul\":20612:20614   */\n      0x60\n        /* \"#utility.yul\":20601:20610   */\n      dup3\n        /* \"#utility.yul\":20597:20615   */\n      add\n        /* \"#utility.yul\":20589:20615   */\n      swap1\n      pop\n        /* \"#utility.yul\":20625:20696   */\n      tag_811\n        /* \"#utility.yul\":20693:20694   */\n      0x00\n        /* \"#utility.yul\":20682:20691   */\n      dup4\n        /* \"#utility.yul\":20678:20695   */\n      add\n        /* \"#utility.yul\":20669:20675   */\n      dup7\n        /* \"#utility.yul\":20625:20696   */\n      tag_674\n      jump\t// in\n    tag_811:\n        /* \"#utility.yul\":20743:20752   */\n      dup2\n        /* \"#utility.yul\":20737:20741   */\n      dup2\n        /* \"#utility.yul\":20733:20753   */\n      sub\n        /* \"#utility.yul\":20728:20730   */\n      0x20\n        /* \"#utility.yul\":20717:20726   */\n      dup4\n        /* \"#utility.yul\":20713:20731   */\n      add\n        /* \"#utility.yul\":20706:20754   */\n      mstore\n        /* \"#utility.yul\":20771:20849   */\n      tag_812\n        /* \"#utility.yul\":20844:20848   */\n      dup2\n        /* \"#utility.yul\":20835:20841   */\n      dup6\n        /* \"#utility.yul\":20771:20849   */\n      tag_736\n      jump\t// in\n    tag_812:\n        /* \"#utility.yul\":20763:20849   */\n      swap1\n      pop\n        /* \"#utility.yul\":20896:20905   */\n      dup2\n        /* \"#utility.yul\":20890:20894   */\n      dup2\n        /* \"#utility.yul\":20886:20906   */\n      sub\n        /* \"#utility.yul\":20881:20883   */\n      0x40\n        /* \"#utility.yul\":20870:20879   */\n      dup4\n        /* \"#utility.yul\":20866:20884   */\n      add\n        /* \"#utility.yul\":20859:20907   */\n      mstore\n        /* \"#utility.yul\":20924:21002   */\n      tag_813\n        /* \"#utility.yul\":20997:21001   */\n      dup2\n        /* \"#utility.yul\":20988:20994   */\n      dup5\n        /* \"#utility.yul\":20924:21002   */\n      tag_736\n      jump\t// in\n    tag_813:\n        /* \"#utility.yul\":20916:21002   */\n      swap1\n      pop\n        /* \"#utility.yul\":20385:21009   */\n      swap5\n      swap4\n      pop\n      pop\n      pop\n      pop\n      jump\t// out\n        /* \"#utility.yul\":21015:22248   */\n    tag_97:\n        /* \"#utility.yul\":21430:21434   */\n      0x00\n        /* \"#utility.yul\":21468:21471   */\n      0x80\n        /* \"#utility.yul\":21457:21466   */\n      dup3\n        /* \"#utility.yul\":21453:21472   */\n      add\n        /* \"#utility.yul\":21445:21472   */\n      swap1\n      pop\n        /* \"#utility.yul\":21518:21527   */\n      dup2\n        /* \"#utility.yul\":21512:21516   */\n      dup2\n        /* \"#utility.yul\":21508:21528   */\n      sub\n        /* \"#utility.yul\":21504:21505   */\n      0x00\n        /* \"#utility.yul\":21493:21502   */\n      dup4\n        /* \"#utility.yul\":21489:21506   */\n      add\n        /* \"#utility.yul\":21482:21529   */\n      mstore\n        /* \"#utility.yul\":21546:21624   */\n      tag_815\n        /* \"#utility.yul\":21619:21623   */\n      dup2\n        /* \"#utility.yul\":21610:21616   */\n      dup8\n        /* \"#utility.yul\":21546:21624   */\n      tag_736\n      jump\t// in\n    tag_815:\n        /* \"#utility.yul\":21538:21624   */\n      swap1\n      pop\n        /* \"#utility.yul\":21671:21680   */\n      dup2\n        /* \"#utility.yul\":21665:21669   */\n      dup2\n        /* \"#utility.yul\":21661:21681   */\n      sub\n        /* \"#utility.yul\":21656:21658   */\n      0x20\n        /* \"#utility.yul\":21645:21654   */\n      dup4\n        /* \"#utility.yul\":21641:21659   */\n      add\n        /* \"#utility.yul\":21634:21682   */\n      mstore\n        /* \"#utility.yul\":21699:21855   */\n      tag_816\n        /* \"#utility.yul\":21850:21854   */\n      dup2\n        /* \"#utility.yul\":21841:21847   */\n      dup7\n        /* \"#utility.yul\":21699:21855   */\n      tag_705\n      jump\t// in\n    tag_816:\n        /* \"#utility.yul\":21691:21855   */\n      swap1\n      pop\n        /* \"#utility.yul\":21902:21911   */\n      dup2\n        /* \"#utility.yul\":21896:21900   */\n      dup2\n        /* \"#utility.yul\":21892:21912   */\n      sub\n        /* \"#utility.yul\":21887:21889   */\n      0x40\n        /* \"#utility.yul\":21876:21885   */\n      dup4\n        /* \"#utility.yul\":21872:21890   */\n      add\n        /* \"#utility.yul\":21865:21913   */\n      mstore\n        /* \"#utility.yul\":21930:22058   */\n      tag_817\n        /* \"#utility.yul\":22053:22057   */\n      dup2\n        /* \"#utility.yul\":22044:22050   */\n      dup6\n        /* \"#utility.yul\":21930:22058   */\n      tag_691\n      jump\t// in\n    tag_817:\n        /* \"#utility.yul\":21922:22058   */\n      swap1\n      pop\n        /* \"#utility.yul\":22105:22114   */\n      dup2\n        /* \"#utility.yul\":22099:22103   */\n      dup2\n        /* \"#utility.yul\":22095:22115   */\n      sub\n        /* \"#utility.yul\":22090:22092   */\n      0x60\n        /* \"#utility.yul\":22079:22088   */\n      dup4\n        /* \"#utility.yul\":22075:22093   */\n      add\n        /* \"#utility.yul\":22068:22116   */\n      mstore\n        /* \"#utility.yul\":22133:22241   */\n      tag_818\n        /* \"#utility.yul\":22236:22240   */\n      dup2\n        /* \"#utility.yul\":22227:22233   */\n      dup5\n        /* \"#utility.yul\":22133:22241   */\n      tag_677\n      jump\t// in\n    tag_818:\n        /* \"#utility.yul\":22125:22241   */\n      swap1\n      pop\n        /* \"#utility.yul\":21015:22248   */\n      swap6\n      swap5\n      pop\n      pop\n      pop\n      pop\n      pop\n      jump\t// out\n        /* \"#utility.yul\":22254:23473   */\n    tag_32:\n        /* \"#utility.yul\":22609:22613   */\n      0x00\n        /* \"#utility.yul\":22647:22650   */\n      0xa0\n        /* \"#utility.yul\":22636:22645   */\n      dup3\n        /* \"#utility.yul\":22632:22651   */\n      add\n        /* \"#utility.yul\":22624:22651   */\n      swap1\n      pop\n        /* \"#utility.yul\":22697:22706   */\n      dup2\n        /* \"#utility.yul\":22691:22695   */\n      dup2\n        /* \"#utility.yul\":22687:22707   */\n      sub\n        /* \"#utility.yul\":22683:22684   */\n      0x00\n        /* \"#utility.yul\":22672:22681   */\n      dup4\n        /* \"#utility.yul\":22668:22685   */\n      add\n        /* \"#utility.yul\":22661:22708   */\n      mstore\n        /* \"#utility.yul\":22725:22803   */\n      tag_820\n        /* \"#utility.yul\":22798:22802   */\n      dup2\n        /* \"#utility.yul\":22789:22795   */\n      dup9\n        /* \"#utility.yul\":22725:22803   */\n      tag_736\n      jump\t// in\n    tag_820:\n        /* \"#utility.yul\":22717:22803   */\n      swap1\n      pop\n        /* \"#utility.yul\":22850:22859   */\n      dup2\n        /* \"#utility.yul\":22844:22848   */\n      dup2\n        /* \"#utility.yul\":22840:22860   */\n      sub\n        /* \"#utility.yul\":22835:22837   */\n      0x20\n        /* \"#utility.yul\":22824:22833   */\n      dup4\n        /* \"#utility.yul\":22820:22838   */\n      add\n        /* \"#utility.yul\":22813:22861   */\n      mstore\n        /* \"#utility.yul\":22878:22956   */\n      tag_821\n        /* \"#utility.yul\":22951:22955   */\n      dup2\n        /* \"#utility.yul\":22942:22948   */\n      dup8\n        /* \"#utility.yul\":22878:22956   */\n      tag_736\n      jump\t// in\n    tag_821:\n        /* \"#utility.yul\":22870:22956   */\n      swap1\n      pop\n        /* \"#utility.yul\":23003:23012   */\n      dup2\n        /* \"#utility.yul\":22997:23001   */\n      dup2\n        /* \"#utility.yul\":22993:23013   */\n      sub\n        /* \"#utility.yul\":22988:22990   */\n      0x40\n        /* \"#utility.yul\":22977:22986   */\n      dup4\n        /* \"#utility.yul\":22973:22991   */\n      add\n        /* \"#utility.yul\":22966:23014   */\n      mstore\n        /* \"#utility.yul\":23031:23109   */\n      tag_822\n        /* \"#utility.yul\":23104:23108   */\n      dup2\n        /* \"#utility.yul\":23095:23101   */\n      dup7\n        /* \"#utility.yul\":23031:23109   */\n      tag_736\n      jump\t// in\n    tag_822:\n        /* \"#utility.yul\":23023:23109   */\n      swap1\n      pop\n        /* \"#utility.yul\":23156:23165   */\n      dup2\n        /* \"#utility.yul\":23150:23154   */\n      dup2\n        /* \"#utility.yul\":23146:23166   */\n      sub\n        /* \"#utility.yul\":23141:23143   */\n      0x60\n        /* \"#utility.yul\":23130:23139   */\n      dup4\n        /* \"#utility.yul\":23126:23144   */\n      add\n        /* \"#utility.yul\":23119:23167   */\n      mstore\n        /* \"#utility.yul\":23184:23262   */\n      tag_823\n        /* \"#utility.yul\":23257:23261   */\n      dup2\n        /* \"#utility.yul\":23248:23254   */\n      dup6\n        /* \"#utility.yul\":23184:23262   */\n      tag_736\n      jump\t// in\n    tag_823:\n        /* \"#utility.yul\":23176:23262   */\n      swap1\n      pop\n        /* \"#utility.yul\":23310:23319   */\n      dup2\n        /* \"#utility.yul\":23304:23308   */\n      dup2\n        /* \"#utility.yul\":23300:23320   */\n      sub\n        /* \"#utility.yul\":23294:23297   */\n      0x80\n        /* \"#utility.yul\":23283:23292   */\n      dup4\n        /* \"#utility.yul\":23279:23298   */\n      add\n        /* \"#utility.yul\":23272:23321   */\n      mstore\n        /* \"#utility.yul\":23338:23466   */\n      tag_824\n        /* \"#utility.yul\":23461:23465   */\n      dup2\n        /* \"#utility.yul\":23452:23458   */\n      dup5\n        /* \"#utility.yul\":23338:23466   */\n      tag_691\n      jump\t// in\n    tag_824:\n        /* \"#utility.yul\":23330:23466   */\n      swap1\n      pop\n        /* \"#utility.yul\":22254:23473   */\n      swap7\n      swap6\n      pop\n      pop\n      pop\n      pop\n      pop\n      pop\n      jump\t// out\n        /* \"#utility.yul\":23479:24405   */\n    tag_76:\n        /* \"#utility.yul\":23766:23770   */\n      0x00\n        /* \"#utility.yul\":23804:23807   */\n      0x80\n        /* \"#utility.yul\":23793:23802   */\n      dup3\n        /* \"#utility.yul\":23789:23808   */\n      add\n        /* \"#utility.yul\":23781:23808   */\n      swap1\n      pop\n        /* \"#utility.yul\":23854:23863   */\n      dup2\n        /* \"#utility.yul\":23848:23852   */\n      dup2\n        /* \"#utility.yul\":23844:23864   */\n      sub\n        /* \"#utility.yul\":23840:23841   */\n      0x00\n        /* \"#utility.yul\":23829:23838   */\n      dup4\n        /* \"#utility.yul\":23825:23842   */\n      add\n        /* \"#utility.yul\":23818:23865   */\n      mstore\n        /* \"#utility.yul\":23882:23960   */\n      tag_826\n        /* \"#utility.yul\":23955:23959   */\n      dup2\n        /* \"#utility.yul\":23946:23952   */\n      dup8\n        /* \"#utility.yul\":23882:23960   */\n      tag_736\n      jump\t// in\n    tag_826:\n        /* \"#utility.yul\":23874:23960   */\n      swap1\n      pop\n        /* \"#utility.yul\":24007:24016   */\n      dup2\n        /* \"#utility.yul\":24001:24005   */\n      dup2\n        /* \"#utility.yul\":23997:24017   */\n      sub\n        /* \"#utility.yul\":23992:23994   */\n      0x20\n        /* \"#utility.yul\":23981:23990   */\n      dup4\n        /* \"#utility.yul\":23977:23995   */\n      add\n        /* \"#utility.yul\":23970:24018   */\n      mstore\n        /* \"#utility.yul\":24035:24113   */\n      tag_827\n        /* \"#utility.yul\":24108:24112   */\n      dup2\n        /* \"#utility.yul\":24099:24105   */\n      dup7\n        /* \"#utility.yul\":24035:24113   */\n      tag_736\n      jump\t// in\n    tag_827:\n        /* \"#utility.yul\":24027:24113   */\n      swap1\n      pop\n        /* \"#utility.yul\":24123:24195   */\n      tag_828\n        /* \"#utility.yul\":24191:24193   */\n      0x40\n        /* \"#utility.yul\":24180:24189   */\n      dup4\n        /* \"#utility.yul\":24176:24194   */\n      add\n        /* \"#utility.yul\":24167:24173   */\n      dup6\n        /* \"#utility.yul\":24123:24195   */\n      tag_794\n      jump\t// in\n    tag_828:\n        /* \"#utility.yul\":24242:24251   */\n      dup2\n        /* \"#utility.yul\":24236:24240   */\n      dup2\n        /* \"#utility.yul\":24232:24252   */\n      sub\n        /* \"#utility.yul\":24227:24229   */\n      0x60\n        /* \"#utility.yul\":24216:24225   */\n      dup4\n        /* \"#utility.yul\":24212:24230   */\n      add\n        /* \"#utility.yul\":24205:24253   */\n      mstore\n        /* \"#utility.yul\":24270:24398   */\n      tag_829\n        /* \"#utility.yul\":24393:24397   */\n      dup2\n        /* \"#utility.yul\":24384:24390   */\n      dup5\n        /* \"#utility.yul\":24270:24398   */\n      tag_691\n      jump\t// in\n    tag_829:\n        /* \"#utility.yul\":24262:24398   */\n      swap1\n      pop\n        /* \"#utility.yul\":23479:24405   */\n      swap6\n      swap5\n      pop\n      pop\n      pop\n      pop\n      pop\n      jump\t// out\n        /* \"#utility.yul\":24411:24830   */\n    tag_278:\n        /* \"#utility.yul\":24577:24581   */\n      0x00\n        /* \"#utility.yul\":24615:24617   */\n      0x20\n        /* \"#utility.yul\":24604:24613   */\n      dup3\n        /* \"#utility.yul\":24600:24618   */\n      add\n        /* \"#utility.yul\":24592:24618   */\n      swap1\n      pop\n        /* \"#utility.yul\":24664:24673   */\n      dup2\n        /* \"#utility.yul\":24658:24662   */\n      dup2\n        /* \"#utility.yul\":24654:24674   */\n      sub\n        /* \"#utility.yul\":24650:24651   */\n      0x00\n        /* \"#utility.yul\":24639:24648   */\n      dup4\n        /* \"#utility.yul\":24635:24652   */\n      add\n        /* \"#utility.yul\":24628:24675   */\n      mstore\n        /* \"#utility.yul\":24692:24823   */\n      tag_831\n        /* \"#utility.yul\":24818:24822   */\n      dup2\n        /* \"#utility.yul\":24692:24823   */\n      tag_749\n      jump\t// in\n    tag_831:\n        /* \"#utility.yul\":24684:24823   */\n      swap1\n      pop\n        /* \"#utility.yul\":24411:24830   */\n      swap2\n      swap1\n      pop\n      jump\t// out\n        /* \"#utility.yul\":24836:25255   */\n    tag_504:\n        /* \"#utility.yul\":25002:25006   */\n      0x00\n        /* \"#utility.yul\":25040:25042   */\n      0x20\n        /* \"#utility.yul\":25029:25038   */\n      dup3\n        /* \"#utility.yul\":25025:25043   */\n      add\n        /* \"#utility.yul\":25017:25043   */\n      swap1\n      pop\n        /* \"#utility.yul\":25089:25098   */\n      dup2\n        /* \"#utility.yul\":25083:25087   */\n      dup2\n        /* \"#utility.yul\":25079:25099   */\n      sub\n        /* \"#utility.yul\":25075:25076   */\n      0x00\n        /* \"#utility.yul\":25064:25073   */\n      dup4\n        /* \"#utility.yul\":25060:25077   */\n      add\n        /* \"#utility.yul\":25053:25100   */\n      mstore\n        /* \"#utility.yul\":25117:25248   */\n      tag_833\n        /* \"#utility.yul\":25243:25247   */\n      dup2\n        /* \"#utility.yul\":25117:25248   */\n      tag_754\n      jump\t// in\n    tag_833:\n        /* \"#utility.yul\":25109:25248   */\n      swap1\n      pop\n        /* \"#utility.yul\":24836:25255   */\n      swap2\n      swap1\n      pop\n      jump\t// out\n        /* \"#utility.yul\":25261:25680   */\n    tag_297:\n        /* \"#utility.yul\":25427:25431   */\n      0x00\n        /* \"#utility.yul\":25465:25467   */\n      0x20\n        /* \"#utility.yul\":25454:25463   */\n      dup3\n        /* \"#utility.yul\":25450:25468   */\n      add\n        /* \"#utility.yul\":25442:25468   */\n      swap1\n      pop\n        /* \"#utility.yul\":25514:25523   */\n      dup2\n        /* \"#utility.yul\":25508:25512   */\n      dup2\n        /* \"#utility.yul\":25504:25524   */\n      sub\n        /* \"#utility.yul\":25500:25501   */\n      0x00\n        /* \"#utility.yul\":25489:25498   */\n      dup4\n        /* \"#utility.yul\":25485:25502   */\n      add\n        /* \"#utility.yul\":25478:25525   */\n      mstore\n        /* \"#utility.yul\":25542:25673   */\n      tag_835\n        /* \"#utility.yul\":25668:25672   */\n      dup2\n        /* \"#utility.yul\":25542:25673   */\n      tag_759\n      jump\t// in\n    tag_835:\n        /* \"#utility.yul\":25534:25673   */\n      swap1\n      pop\n        /* \"#utility.yul\":25261:25680   */\n      swap2\n      swap1\n      pop\n      jump\t// out\n        /* \"#utility.yul\":25686:26105   */\n    tag_116:\n        /* \"#utility.yul\":25852:25856   */\n      0x00\n        /* \"#utility.yul\":25890:25892   */\n      0x20\n        /* \"#utility.yul\":25879:25888   */\n      dup3\n        /* \"#utility.yul\":25875:25893   */\n      add\n        /* \"#utility.yul\":25867:25893   */\n      swap1\n      pop\n        /* \"#utility.yul\":25939:25948   */\n      dup2\n        /* \"#utility.yul\":25933:25937   */\n      dup2\n        /* \"#utility.yul\":25929:25949   */\n      sub\n        /* \"#utility.yul\":25925:25926   */\n      0x00\n        /* \"#utility.yul\":25914:25923   */\n      dup4\n        /* \"#utility.yul\":25910:25927   */\n      add\n        /* \"#utility.yul\":25903:25950   */\n      mstore\n        /* \"#utility.yul\":25967:26098   */\n      tag_837\n        /* \"#utility.yul\":26093:26097   */\n      dup2\n        /* \"#utility.yul\":25967:26098   */\n      tag_764\n      jump\t// in\n    tag_837:\n        /* \"#utility.yul\":25959:26098   */\n      swap1\n      pop\n        /* \"#utility.yul\":25686:26105   */\n      swap2\n      swap1\n      pop\n      jump\t// out\n        /* \"#utility.yul\":26111:26530   */\n    tag_166:\n        /* \"#utility.yul\":26277:26281   */\n      0x00\n        /* \"#utility.yul\":26315:26317   */\n      0x20\n        /* \"#utility.yul\":26304:26313   */\n      dup3\n        /* \"#utility.yul\":26300:26318   */\n      add\n        /* \"#utility.yul\":26292:26318   */\n      swap1\n      pop\n        /* \"#utility.yul\":26364:26373   */\n      dup2\n        /* \"#utility.yul\":26358:26362   */\n      dup2\n        /* \"#utility.yul\":26354:26374   */\n      sub\n        /* \"#utility.yul\":26350:26351   */\n      0x00\n        /* \"#utility.yul\":26339:26348   */\n      dup4\n        /* \"#utility.yul\":26335:26352   */\n      add\n        /* \"#utility.yul\":26328:26375   */\n      mstore\n        /* \"#utility.yul\":26392:26523   */\n      tag_839\n        /* \"#utility.yul\":26518:26522   */\n      dup2\n        /* \"#utility.yul\":26392:26523   */\n      tag_769\n      jump\t// in\n    tag_839:\n        /* \"#utility.yul\":26384:26523   */\n      swap1\n      pop\n        /* \"#utility.yul\":26111:26530   */\n      swap2\n      swap1\n      pop\n      jump\t// out\n        /* \"#utility.yul\":26536:26955   */\n    tag_150:\n        /* \"#utility.yul\":26702:26706   */\n      0x00\n        /* \"#utility.yul\":26740:26742   */\n      0x20\n        /* \"#utility.yul\":26729:26738   */\n      dup3\n        /* \"#utility.yul\":26725:26743   */\n      add\n        /* \"#utility.yul\":26717:26743   */\n      swap1\n      pop\n        /* \"#utility.yul\":26789:26798   */\n      dup2\n        /* \"#utility.yul\":26783:26787   */\n      dup2\n        /* \"#utility.yul\":26779:26799   */\n      sub\n        /* \"#utility.yul\":26775:26776   */\n      0x00\n        /* \"#utility.yul\":26764:26773   */\n      dup4\n        /* \"#utility.yul\":26760:26777   */\n      add\n        /* \"#utility.yul\":26753:26800   */\n      mstore\n        /* \"#utility.yul\":26817:26948   */\n      tag_841\n        /* \"#utility.yul\":26943:26947   */\n      dup2\n        /* \"#utility.yul\":26817:26948   */\n      tag_774\n      jump\t// in\n    tag_841:\n        /* \"#utility.yul\":26809:26948   */\n      swap1\n      pop\n        /* \"#utility.yul\":26536:26955   */\n      swap2\n      swap1\n      pop\n      jump\t// out\n        /* \"#utility.yul\":26961:27380   */\n    tag_500:\n        /* \"#utility.yul\":27127:27131   */\n      0x00\n        /* \"#utility.yul\":27165:27167   */\n      0x20\n        /* \"#utility.yul\":27154:27163   */\n      dup3\n        /* \"#utility.yul\":27150:27168   */\n      add\n        /* \"#utility.yul\":27142:27168   */\n      swap1\n      pop\n        /* \"#utility.yul\":27214:27223   */\n      dup2\n        /* \"#utility.yul\":27208:27212   */\n      dup2\n        /* \"#utility.yul\":27204:27224   */\n      sub\n        /* \"#utility.yul\":27200:27201   */\n      0x00\n        /* \"#utility.yul\":27189:27198   */\n      dup4\n        /* \"#utility.yul\":27185:27202   */\n      add\n        /* \"#utility.yul\":27178:27225   */\n      mstore\n        /* \"#utility.yul\":27242:27373   */\n      tag_843\n        /* \"#utility.yul\":27368:27372   */\n      dup2\n        /* \"#utility.yul\":27242:27373   */\n      tag_779\n      jump\t// in\n    tag_843:\n        /* \"#utility.yul\":27234:27373   */\n      swap1\n      pop\n        /* \"#utility.yul\":26961:27380   */\n      swap2\n      swap1\n      pop\n      jump\t// out\n        /* \"#utility.yul\":27386:27805   */\n    tag_194:\n        /* \"#utility.yul\":27552:27556   */\n      0x00\n        /* \"#utility.yul\":27590:27592   */\n      0x20\n        /* \"#utility.yul\":27579:27588   */\n      dup3\n        /* \"#utility.yul\":27575:27593   */\n      add\n        /* \"#utility.yul\":27567:27593   */\n      swap1\n      pop\n        /* \"#utility.yul\":27639:27648   */\n      dup2\n        /* \"#utility.yul\":27633:27637   */\n      dup2\n        /* \"#utility.yul\":27629:27649   */\n      sub\n        /* \"#utility.yul\":27625:27626   */\n      0x00\n        /* \"#utility.yul\":27614:27623   */\n      dup4\n        /* \"#utility.yul\":27610:27627   */\n      add\n        /* \"#utility.yul\":27603:27650   */\n      mstore\n        /* \"#utility.yul\":27667:27798   */\n      tag_845\n        /* \"#utility.yul\":27793:27797   */\n      dup2\n        /* \"#utility.yul\":27667:27798   */\n      tag_784\n      jump\t// in\n    tag_845:\n        /* \"#utility.yul\":27659:27798   */\n      swap1\n      pop\n        /* \"#utility.yul\":27386:27805   */\n      swap2\n      swap1\n      pop\n      jump\t// out\n        /* \"#utility.yul\":27811:27940   */\n    tag_548:\n        /* \"#utility.yul\":27845:27851   */\n      0x00\n        /* \"#utility.yul\":27872:27892   */\n      tag_847\n      tag_848\n      jump\t// in\n    tag_847:\n        /* \"#utility.yul\":27862:27892   */\n      swap1\n      pop\n        /* \"#utility.yul\":27901:27934   */\n      tag_849\n        /* \"#utility.yul\":27929:27933   */\n      dup3\n        /* \"#utility.yul\":27921:27927   */\n      dup3\n        /* \"#utility.yul\":27901:27934   */\n      tag_850\n      jump\t// in\n    tag_849:\n        /* \"#utility.yul\":27811:27940   */\n      swap2\n      swap1\n      pop\n      jump\t// out\n        /* \"#utility.yul\":27946:28021   */\n    tag_848:\n        /* \"#utility.yul\":27979:27985   */\n      0x00\n        /* \"#utility.yul\":28012:28014   */\n      0x40\n        /* \"#utility.yul\":28006:28015   */\n      mload\n        /* \"#utility.yul\":27996:28015   */\n      swap1\n      pop\n        /* \"#utility.yul\":27946:28021   */\n      swap1\n      jump\t// out\n        /* \"#utility.yul\":28027:28335   */\n    tag_547:\n        /* \"#utility.yul\":28089:28093   */\n      0x00\n        /* \"#utility.yul\":28179:28197   */\n      0xffffffffffffffff\n        /* \"#utility.yul\":28171:28177   */\n      dup3\n        /* \"#utility.yul\":28168:28198   */\n      gt\n        /* \"#utility.yul\":28165:28221   */\n      iszero\n      tag_853\n      jumpi\n        /* \"#utility.yul\":28201:28219   */\n      tag_854\n      tag_855\n      jump\t// in\n    tag_854:\n        /* \"#utility.yul\":28165:28221   */\n    tag_853:\n        /* \"#utility.yul\":28239:28268   */\n      tag_856\n        /* \"#utility.yul\":28261:28267   */\n      dup3\n        /* \"#utility.yul\":28239:28268   */\n      tag_735\n      jump\t// in\n    tag_856:\n        /* \"#utility.yul\":28231:28268   */\n      swap1\n      pop\n        /* \"#utility.yul\":28323:28327   */\n      0x20\n        /* \"#utility.yul\":28317:28321   */\n      dup2\n        /* \"#utility.yul\":28313:28328   */\n      add\n        /* \"#utility.yul\":28305:28328   */\n      swap1\n      pop\n        /* \"#utility.yul\":28027:28335   */\n      swap2\n      swap1\n      pop\n      jump\t// out\n        /* \"#utility.yul\":28341:28473   */\n    tag_684:\n        /* \"#utility.yul\":28408:28412   */\n      0x00\n        /* \"#utility.yul\":28431:28434   */\n      dup2\n        /* \"#utility.yul\":28423:28434   */\n      swap1\n      pop\n        /* \"#utility.yul\":28461:28465   */\n      0x20\n        /* \"#utility.yul\":28456:28459   */\n      dup3\n        /* \"#utility.yul\":28452:28466   */\n      add\n        /* \"#utility.yul\":28444:28466   */\n      swap1\n      pop\n        /* \"#utility.yul\":28341:28473   */\n      swap2\n      swap1\n      pop\n      jump\t// out\n        /* \"#utility.yul\":28479:28621   */\n    tag_698:\n        /* \"#utility.yul\":28556:28560   */\n      0x00\n        /* \"#utility.yul\":28579:28582   */\n      dup2\n        /* \"#utility.yul\":28571:28582   */\n      swap1\n      pop\n        /* \"#utility.yul\":28609:28613   */\n      0x20\n        /* \"#utility.yul\":28604:28607   */\n      dup3\n        /* \"#utility.yul\":28600:28614   */\n      add\n        /* \"#utility.yul\":28592:28614   */\n      swap1\n      pop\n        /* \"#utility.yul\":28479:28621   */\n      swap2\n      swap1\n      pop\n      jump\t// out\n        /* \"#utility.yul\":28627:28783   */\n    tag_712:\n        /* \"#utility.yul\":28718:28722   */\n      0x00\n        /* \"#utility.yul\":28741:28744   */\n      dup2\n        /* \"#utility.yul\":28733:28744   */\n      swap1\n      pop\n        /* \"#utility.yul\":28771:28775   */\n      0x20\n        /* \"#utility.yul\":28766:28769   */\n      dup3\n        /* \"#utility.yul\":28762:28776   */\n      add\n        /* \"#utility.yul\":28754:28776   */\n      swap1\n      pop\n        /* \"#utility.yul\":28627:28783   */\n      swap2\n      swap1\n      pop\n      jump\t// out\n        /* \"#utility.yul\":28789:28903   */\n    tag_680:\n        /* \"#utility.yul\":28856:28862   */\n      0x00\n        /* \"#utility.yul\":28890:28895   */\n      dup2\n        /* \"#utility.yul\":28884:28896   */\n      mload\n        /* \"#utility.yul\":28874:28896   */\n      swap1\n      pop\n        /* \"#utility.yul\":28789:28903   */\n      swap2\n      swap1\n      pop\n      jump\t// out\n        /* \"#utility.yul\":28909:29033   */\n    tag_694:\n        /* \"#utility.yul\":28986:28992   */\n      0x00\n        /* \"#utility.yul\":29020:29025   */\n      dup2\n        /* \"#utility.yul\":29014:29026   */\n      mload\n        /* \"#utility.yul\":29004:29026   */\n      swap1\n      pop\n        /* \"#utility.yul\":28909:29033   */\n      swap2\n      swap1\n      pop\n      jump\t// out\n        /* \"#utility.yul\":29039:29177   */\n    tag_708:\n        /* \"#utility.yul\":29130:29136   */\n      0x00\n        /* \"#utility.yul\":29164:29169   */\n      dup2\n        /* \"#utility.yul\":29158:29170   */\n      mload\n        /* \"#utility.yul\":29148:29170   */\n      swap1\n      pop\n        /* \"#utility.yul\":29039:29177   */\n      swap2\n      swap1\n      pop\n      jump\t// out\n        /* \"#utility.yul\":29183:29282   */\n    tag_729:\n        /* \"#utility.yul\":29235:29241   */\n      0x00\n        /* \"#utility.yul\":29269:29274   */\n      dup2\n        /* \"#utility.yul\":29263:29275   */\n      mload\n        /* \"#utility.yul\":29253:29275   */\n      swap1\n      pop\n        /* \"#utility.yul\":29183:29282   */\n      swap2\n      swap1\n      pop\n      jump\t// out\n        /* \"#utility.yul\":29288:29401   */\n    tag_690:\n        /* \"#utility.yul\":29358:29362   */\n      0x00\n        /* \"#utility.yul\":29390:29394   */\n      0x20\n        /* \"#utility.yul\":29385:29388   */\n      dup3\n        /* \"#utility.yul\":29381:29395   */\n      add\n        /* \"#utility.yul\":29373:29395   */\n      swap1\n      pop\n        /* \"#utility.yul\":29288:29401   */\n      swap2\n      swap1\n      pop\n      jump\t// out\n        /* \"#utility.yul\":29407:29530   */\n    tag_704:\n        /* \"#utility.yul\":29487:29491   */\n      0x00\n        /* \"#utility.yul\":29519:29523   */\n      0x20\n        /* \"#utility.yul\":29514:29517   */\n      dup3\n        /* \"#utility.yul\":29510:29524   */\n      add\n        /* \"#utility.yul\":29502:29524   */\n      swap1\n      pop\n        /* \"#utility.yul\":29407:29530   */\n      swap2\n      swap1\n      pop\n      jump\t// out\n        /* \"#utility.yul\":29536:29673   */\n    tag_718:\n        /* \"#utility.yul\":29630:29634   */\n      0x00\n        /* \"#utility.yul\":29662:29666   */\n      0x20\n        /* \"#utility.yul\":29657:29660   */\n      dup3\n        /* \"#utility.yul\":29653:29667   */\n      add\n        /* \"#utility.yul\":29645:29667   */\n      swap1\n      pop\n        /* \"#utility.yul\":29536:29673   */\n      swap2\n      swap1\n      pop\n      jump\t// out\n        /* \"#utility.yul\":29679:29863   */\n    tag_682:\n        /* \"#utility.yul\":29778:29789   */\n      0x00\n        /* \"#utility.yul\":29812:29818   */\n      dup3\n        /* \"#utility.yul\":29807:29810   */\n      dup3\n        /* \"#utility.yul\":29800:29819   */\n      mstore\n        /* \"#utility.yul\":29852:29856   */\n      0x20\n        /* \"#utility.yul\":29847:29850   */\n      dup3\n        /* \"#utility.yul\":29843:29857   */\n      add\n        /* \"#utility.yul\":29828:29857   */\n      swap1\n      pop\n        /* \"#utility.yul\":29679:29863   */\n      swap3\n      swap2\n      pop\n      pop\n      jump\t// out\n        /* \"#utility.yul\":29869:30063   */\n    tag_696:\n        /* \"#utility.yul\":29978:29989   */\n      0x00\n        /* \"#utility.yul\":30012:30018   */\n      dup3\n        /* \"#utility.yul\":30007:30010   */\n      dup3\n        /* \"#utility.yul\":30000:30019   */\n      mstore\n        /* \"#utility.yul\":30052:30056   */\n      0x20\n        /* \"#utility.yul\":30047:30050   */\n      dup3\n        /* \"#utility.yul\":30043:30057   */\n      add\n        /* \"#utility.yul\":30028:30057   */\n      swap1\n      pop\n        /* \"#utility.yul\":29869:30063   */\n      swap3\n      swap2\n      pop\n      pop\n      jump\t// out\n        /* \"#utility.yul\":30069:30277   */\n    tag_710:\n        /* \"#utility.yul\":30192:30203   */\n      0x00\n        /* \"#utility.yul\":30226:30232   */\n      dup3\n        /* \"#utility.yul\":30221:30224   */\n      dup3\n        /* \"#utility.yul\":30214:30233   */\n      mstore\n        /* \"#utility.yul\":30266:30270   */\n      0x20\n        /* \"#utility.yul\":30261:30264   */\n      dup3\n        /* \"#utility.yul\":30257:30271   */\n      add\n        /* \"#utility.yul\":30242:30271   */\n      swap1\n      pop\n        /* \"#utility.yul\":30069:30277   */\n      swap3\n      swap2\n      pop\n      pop\n      jump\t// out\n        /* \"#utility.yul\":30283:30442   */\n    tag_731:\n        /* \"#utility.yul\":30357:30368   */\n      0x00\n        /* \"#utility.yul\":30391:30397   */\n      dup3\n        /* \"#utility.yul\":30386:30389   */\n      dup3\n        /* \"#utility.yul\":30379:30398   */\n      mstore\n        /* \"#utility.yul\":30431:30435   */\n      0x20\n        /* \"#utility.yul\":30426:30429   */\n      dup3\n        /* \"#utility.yul\":30422:30436   */\n      add\n        /* \"#utility.yul\":30407:30436   */\n      swap1\n      pop\n        /* \"#utility.yul\":30283:30442   */\n      swap3\n      swap2\n      pop\n      pop\n      jump\t// out\n        /* \"#utility.yul\":30448:30617   */\n    tag_740:\n        /* \"#utility.yul\":30532:30543   */\n      0x00\n        /* \"#utility.yul\":30566:30572   */\n      dup3\n        /* \"#utility.yul\":30561:30564   */\n      dup3\n        /* \"#utility.yul\":30554:30573   */\n      mstore\n        /* \"#utility.yul\":30606:30610   */\n      0x20\n        /* \"#utility.yul\":30601:30604   */\n      dup3\n        /* \"#utility.yul\":30597:30611   */\n      add\n        /* \"#utility.yul\":30582:30611   */\n      swap1\n      pop\n        /* \"#utility.yul\":30448:30617   */\n      swap3\n      swap2\n      pop\n      pop\n      jump\t// out\n        /* \"#utility.yul\":30623:30771   */\n    tag_747:\n        /* \"#utility.yul\":30725:30736   */\n      0x00\n        /* \"#utility.yul\":30762:30765   */\n      dup2\n        /* \"#utility.yul\":30747:30765   */\n      swap1\n      pop\n        /* \"#utility.yul\":30623:30771   */\n      swap3\n      swap2\n      pop\n      pop\n      jump\t// out\n        /* \"#utility.yul\":30777:30873   */\n    tag_673:\n        /* \"#utility.yul\":30814:30821   */\n      0x00\n        /* \"#utility.yul\":30843:30867   */\n      tag_874\n        /* \"#utility.yul\":30861:30866   */\n      dup3\n        /* \"#utility.yul\":30843:30867   */\n      tag_875\n      jump\t// in\n    tag_874:\n        /* \"#utility.yul\":30832:30867   */\n      swap1\n      pop\n        /* \"#utility.yul\":30777:30873   */\n      swap2\n      swap1\n      pop\n      jump\t// out\n        /* \"#utility.yul\":30879:30983   */\n    tag_876:\n        /* \"#utility.yul\":30924:30931   */\n      0x00\n        /* \"#utility.yul\":30953:30977   */\n      tag_878\n        /* \"#utility.yul\":30971:30976   */\n      dup3\n        /* \"#utility.yul\":30953:30977   */\n      tag_875\n      jump\t// in\n    tag_878:\n        /* \"#utility.yul\":30942:30977   */\n      swap1\n      pop\n        /* \"#utility.yul\":30879:30983   */\n      swap2\n      swap1\n      pop\n      jump\t// out\n        /* \"#utility.yul\":30989:31079   */\n    tag_722:\n        /* \"#utility.yul\":31023:31030   */\n      0x00\n        /* \"#utility.yul\":31066:31071   */\n      dup2\n        /* \"#utility.yul\":31059:31072   */\n      iszero\n        /* \"#utility.yul\":31052:31073   */\n      iszero\n        /* \"#utility.yul\":31041:31073   */\n      swap1\n      pop\n        /* \"#utility.yul\":30989:31079   */\n      swap2\n      swap1\n      pop\n      jump\t// out\n        /* \"#utility.yul\":31085:31161   */\n    tag_726:\n        /* \"#utility.yul\":31121:31128   */\n      0x00\n        /* \"#utility.yul\":31150:31155   */\n      dup2\n        /* \"#utility.yul\":31139:31155   */\n      swap1\n      pop\n        /* \"#utility.yul\":31085:31161   */\n      swap2\n      swap1\n      pop\n      jump\t// out\n        /* \"#utility.yul\":31167:31293   */\n    tag_875:\n        /* \"#utility.yul\":31204:31211   */\n      0x00\n        /* \"#utility.yul\":31244:31286   */\n      0xffffffffffffffffffffffffffffffffffffffff\n        /* \"#utility.yul\":31237:31242   */\n      dup3\n        /* \"#utility.yul\":31233:31287   */\n      and\n        /* \"#utility.yul\":31222:31287   */\n      swap1\n      pop\n        /* \"#utility.yul\":31167:31293   */\n      swap2\n      swap1\n      pop\n      jump\t// out\n        /* \"#utility.yul\":31299:31376   */\n    tag_797:\n        /* \"#utility.yul\":31336:31343   */\n      0x00\n        /* \"#utility.yul\":31365:31370   */\n      dup2\n        /* \"#utility.yul\":31354:31370   */\n      swap1\n      pop\n        /* \"#utility.yul\":31299:31376   */\n      swap2\n      swap1\n      pop\n      jump\t// out\n        /* \"#utility.yul\":31382:31536   */\n    tag_553:\n        /* \"#utility.yul\":31466:31472   */\n      dup3\n        /* \"#utility.yul\":31461:31464   */\n      dup2\n        /* \"#utility.yul\":31456:31459   */\n      dup4\n        /* \"#utility.yul\":31443:31473   */\n      calldatacopy\n        /* \"#utility.yul\":31528:31529   */\n      0x00\n        /* \"#utility.yul\":31519:31525   */\n      dup4\n        /* \"#utility.yul\":31514:31517   */\n      dup4\n        /* \"#utility.yul\":31510:31526   */\n      add\n        /* \"#utility.yul\":31503:31530   */\n      mstore\n        /* \"#utility.yul\":31382:31536   */\n      pop\n      pop\n      pop\n      jump\t// out\n        /* \"#utility.yul\":31542:31849   */\n    tag_733:\n        /* \"#utility.yul\":31610:31611   */\n      0x00\n        /* \"#utility.yul\":31620:31733   */\n    tag_885:\n        /* \"#utility.yul\":31634:31640   */\n      dup4\n        /* \"#utility.yul\":31631:31632   */\n      dup2\n        /* \"#utility.yul\":31628:31641   */\n      lt\n        /* \"#utility.yul\":31620:31733   */\n      iszero\n      tag_887\n      jumpi\n        /* \"#utility.yul\":31719:31720   */\n      dup1\n        /* \"#utility.yul\":31714:31717   */\n      dup3\n        /* \"#utility.yul\":31710:31721   */\n      add\n        /* \"#utility.yul\":31704:31722   */\n      mload\n        /* \"#utility.yul\":31700:31701   */\n      dup2\n        /* \"#utility.yul\":31695:31698   */\n      dup5\n        /* \"#utility.yul\":31691:31702   */\n      add\n        /* \"#utility.yul\":31684:31723   */\n      mstore\n        /* \"#utility.yul\":31656:31658   */\n      0x20\n        /* \"#utility.yul\":31653:31654   */\n      dup2\n        /* \"#utility.yul\":31649:31659   */\n      add\n        /* \"#utility.yul\":31644:31659   */\n      swap1\n      pop\n        /* \"#utility.yul\":31620:31733   */\n      jump(tag_885)\n    tag_887:\n        /* \"#utility.yul\":31751:31757   */\n      dup4\n        /* \"#utility.yul\":31748:31749   */\n      dup2\n        /* \"#utility.yul\":31745:31758   */\n      gt\n        /* \"#utility.yul\":31742:31843   */\n      iszero\n      tag_888\n      jumpi\n        /* \"#utility.yul\":31831:31832   */\n      0x00\n        /* \"#utility.yul\":31822:31828   */\n      dup5\n        /* \"#utility.yul\":31817:31820   */\n      dup5\n        /* \"#utility.yul\":31813:31829   */\n      add\n        /* \"#utility.yul\":31806:31833   */\n      mstore\n        /* \"#utility.yul\":31742:31843   */\n    tag_888:\n        /* \"#utility.yul\":31591:31849   */\n      pop\n        /* \"#utility.yul\":31542:31849   */\n      pop\n      pop\n      pop\n      jump\t// out\n        /* \"#utility.yul\":31855:32175   */\n    tag_119:\n        /* \"#utility.yul\":31899:31905   */\n      0x00\n        /* \"#utility.yul\":31936:31937   */\n      0x02\n        /* \"#utility.yul\":31930:31934   */\n      dup3\n        /* \"#utility.yul\":31926:31938   */\n      div\n        /* \"#utility.yul\":31916:31938   */\n      swap1\n      pop\n        /* \"#utility.yul\":31983:31984   */\n      0x01\n        /* \"#utility.yul\":31977:31981   */\n      dup3\n        /* \"#utility.yul\":31973:31985   */\n      and\n        /* \"#utility.yul\":32004:32022   */\n      dup1\n        /* \"#utility.yul\":31994:32075   */\n      tag_890\n      jumpi\n        /* \"#utility.yul\":32060:32064   */\n      0x7f\n        /* \"#utility.yul\":32052:32058   */\n      dup3\n        /* \"#utility.yul\":32048:32065   */\n      and\n        /* \"#utility.yul\":32038:32065   */\n      swap2\n      pop\n        /* \"#utility.yul\":31994:32075   */\n    tag_890:\n        /* \"#utility.yul\":32122:32124   */\n      0x20\n        /* \"#utility.yul\":32114:32120   */\n      dup3\n        /* \"#utility.yul\":32111:32125   */\n      lt\n        /* \"#utility.yul\":32091:32109   */\n      dup2\n        /* \"#utility.yul\":32088:32126   */\n      eq\n        /* \"#utility.yul\":32085:32169   */\n      iszero\n      tag_891\n      jumpi\n        /* \"#utility.yul\":32141:32159   */\n      tag_892\n      tag_893\n      jump\t// in\n    tag_892:\n        /* \"#utility.yul\":32085:32169   */\n    tag_891:\n        /* \"#utility.yul\":31906:32175   */\n      pop\n        /* \"#utility.yul\":31855:32175   */\n      swap2\n      swap1\n      pop\n      jump\t// out\n        /* \"#utility.yul\":32181:32462   */\n    tag_850:\n        /* \"#utility.yul\":32264:32291   */\n      tag_895\n        /* \"#utility.yul\":32286:32290   */\n      dup3\n        /* \"#utility.yul\":32264:32291   */\n      tag_735\n      jump\t// in\n    tag_895:\n        /* \"#utility.yul\":32256:32262   */\n      dup2\n        /* \"#utility.yul\":32252:32292   */\n      add\n        /* \"#utility.yul\":32394:32400   */\n      dup2\n        /* \"#utility.yul\":32382:32392   */\n      dup2\n        /* \"#utility.yul\":32379:32401   */\n      lt\n        /* \"#utility.yul\":32358:32376   */\n      0xffffffffffffffff\n        /* \"#utility.yul\":32346:32356   */\n      dup3\n        /* \"#utility.yul\":32343:32377   */\n      gt\n        /* \"#utility.yul\":32340:32402   */\n      or\n        /* \"#utility.yul\":32337:32425   */\n      iszero\n      tag_896\n      jumpi\n        /* \"#utility.yul\":32405:32423   */\n      tag_897\n      tag_855\n      jump\t// in\n    tag_897:\n        /* \"#utility.yul\":32337:32425   */\n    tag_896:\n        /* \"#utility.yul\":32445:32455   */\n      dup1\n        /* \"#utility.yul\":32441:32443   */\n      0x40\n        /* \"#utility.yul\":32434:32456   */\n      mstore\n        /* \"#utility.yul\":32224:32462   */\n      pop\n        /* \"#utility.yul\":32181:32462   */\n      pop\n      pop\n      jump\t// out\n        /* \"#utility.yul\":32468:32648   */\n    tag_113:\n        /* \"#utility.yul\":32516:32593   */\n      0x4e487b7100000000000000000000000000000000000000000000000000000000\n        /* \"#utility.yul\":32513:32514   */\n      0x00\n        /* \"#utility.yul\":32506:32594   */\n      mstore\n        /* \"#utility.yul\":32613:32617   */\n      0x21\n        /* \"#utility.yul\":32610:32611   */\n      0x04\n        /* \"#utility.yul\":32603:32618   */\n      mstore\n        /* \"#utility.yul\":32637:32641   */\n      0x24\n        /* \"#utility.yul\":32634:32635   */\n      0x00\n        /* \"#utility.yul\":32627:32642   */\n      revert\n        /* \"#utility.yul\":32654:32834   */\n    tag_893:\n        /* \"#utility.yul\":32702:32779   */\n      0x4e487b7100000000000000000000000000000000000000000000000000000000\n        /* \"#utility.yul\":32699:32700   */\n      0x00\n        /* \"#utility.yul\":32692:32780   */\n      mstore\n        /* \"#utility.yul\":32799:32803   */\n      0x22\n        /* \"#utility.yul\":32796:32797   */\n      0x04\n        /* \"#utility.yul\":32789:32804   */\n      mstore\n        /* \"#utility.yul\":32823:32827   */\n      0x24\n        /* \"#utility.yul\":32820:32821   */\n      0x00\n        /* \"#utility.yul\":32813:32828   */\n      revert\n        /* \"#utility.yul\":32840:33020   */\n    tag_855:\n        /* \"#utility.yul\":32888:32965   */\n      0x4e487b7100000000000000000000000000000000000000000000000000000000\n        /* \"#utility.yul\":32885:32886   */\n      0x00\n        /* \"#utility.yul\":32878:32966   */\n      mstore\n        /* \"#utility.yul\":32985:32989   */\n      0x41\n        /* \"#utility.yul\":32982:32983   */\n      0x04\n        /* \"#utility.yul\":32975:32990   */\n      mstore\n        /* \"#utility.yul\":33009:33013   */\n      0x24\n        /* \"#utility.yul\":33006:33007   */\n      0x00\n        /* \"#utility.yul\":32999:33014   */\n      revert\n        /* \"#utility.yul\":33026:33143   */\n    tag_570:\n        /* \"#utility.yul\":33135:33136   */\n      0x00\n        /* \"#utility.yul\":33132:33133   */\n      dup1\n        /* \"#utility.yul\":33125:33137   */\n      revert\n        /* \"#utility.yul\":33149:33266   */\n    tag_551:\n        /* \"#utility.yul\":33258:33259   */\n      0x00\n        /* \"#utility.yul\":33255:33256   */\n      dup1\n        /* \"#utility.yul\":33248:33260   */\n      revert\n        /* \"#utility.yul\":33272:33389   */\n    tag_587:\n        /* \"#utility.yul\":33381:33382   */\n      0x00\n        /* \"#utility.yul\":33378:33379   */\n      dup1\n        /* \"#utility.yul\":33371:33383   */\n      revert\n        /* \"#utility.yul\":33395:33512   */\n    tag_575:\n        /* \"#utility.yul\":33504:33505   */\n      0x00\n        /* \"#utility.yul\":33501:33502   */\n      dup1\n        /* \"#utility.yul\":33494:33506   */\n      revert\n        /* \"#utility.yul\":33518:33620   */\n    tag_735:\n        /* \"#utility.yul\":33559:33565   */\n      0x00\n        /* \"#utility.yul\":33610:33612   */\n      0x1f\n        /* \"#utility.yul\":33606:33613   */\n      not\n        /* \"#utility.yul\":33601:33603   */\n      0x1f\n        /* \"#utility.yul\":33594:33599   */\n      dup4\n        /* \"#utility.yul\":33590:33604   */\n      add\n        /* \"#utility.yul\":33586:33614   */\n      and\n        /* \"#utility.yul\":33576:33614   */\n      swap1\n      pop\n        /* \"#utility.yul\":33518:33620   */\n      swap2\n      swap1\n      pop\n      jump\t// out\n        /* \"#utility.yul\":33626:33803   */\n    tag_753:\n        /* \"#utility.yul\":33766:33795   */\n      0x596f7520616c726561647920636865636b207468697320636173650000000000\n        /* \"#utility.yul\":33762:33763   */\n      0x00\n        /* \"#utility.yul\":33754:33760   */\n      dup3\n        /* \"#utility.yul\":33750:33764   */\n      add\n        /* \"#utility.yul\":33743:33796   */\n      mstore\n        /* \"#utility.yul\":33626:33803   */\n      pop\n      jump\t// out\n        /* \"#utility.yul\":33809:34030   */\n    tag_758:\n        /* \"#utility.yul\":33949:33983   */\n      0x596f7572206c6f67696e20616c726561647920657869737420696e2073797374\n        /* \"#utility.yul\":33945:33946   */\n      0x00\n        /* \"#utility.yul\":33937:33943   */\n      dup3\n        /* \"#utility.yul\":33933:33947   */\n      add\n        /* \"#utility.yul\":33926:33984   */\n      mstore\n        /* \"#utility.yul\":34018:34022   */\n      0x656d000000000000000000000000000000000000000000000000000000000000\n        /* \"#utility.yul\":34013:34015   */\n      0x20\n        /* \"#utility.yul\":34005:34011   */\n      dup3\n        /* \"#utility.yul\":34001:34016   */\n      add\n        /* \"#utility.yul\":33994:34023   */\n      mstore\n        /* \"#utility.yul\":33809:34030   */\n      pop\n      jump\t// out\n        /* \"#utility.yul\":34036:34197   */\n    tag_763:\n        /* \"#utility.yul\":34176:34189   */\n      0x4c6f772062616c616e6365000000000000000000000000000000000000000000\n        /* \"#utility.yul\":34172:34173   */\n      0x00\n        /* \"#utility.yul\":34164:34170   */\n      dup3\n        /* \"#utility.yul\":34160:34174   */\n      add\n        /* \"#utility.yul\":34153:34190   */\n      mstore\n        /* \"#utility.yul\":34036:34197   */\n      pop\n      jump\t// out\n        /* \"#utility.yul\":34203:34362   */\n    tag_768:\n        /* \"#utility.yul\":34343:34354   */\n      0x466f7262696464656e0000000000000000000000000000000000000000000000\n        /* \"#utility.yul\":34339:34340   */\n      0x00\n        /* \"#utility.yul\":34331:34337   */\n      dup3\n        /* \"#utility.yul\":34327:34341   */\n      add\n        /* \"#utility.yul\":34320:34355   */\n      mstore\n        /* \"#utility.yul\":34203:34362   */\n      pop\n      jump\t// out\n        /* \"#utility.yul\":34368:34530   */\n    tag_773:\n        /* \"#utility.yul\":34508:34522   */\n      0x596f75206e6f7420757365720000000000000000000000000000000000000000\n        /* \"#utility.yul\":34504:34505   */\n      0x00\n        /* \"#utility.yul\":34496:34502   */\n      dup3\n        /* \"#utility.yul\":34492:34506   */\n      add\n        /* \"#utility.yul\":34485:34523   */\n      mstore\n        /* \"#utility.yul\":34368:34530   */\n      pop\n      jump\t// out\n        /* \"#utility.yul\":34536:34699   */\n    tag_778:\n        /* \"#utility.yul\":34676:34691   */\n      0x596f75206e6f742061646d696e00000000000000000000000000000000000000\n        /* \"#utility.yul\":34672:34673   */\n      0x00\n        /* \"#utility.yul\":34664:34670   */\n      dup3\n        /* \"#utility.yul\":34660:34674   */\n      add\n        /* \"#utility.yul\":34653:34692   */\n      mstore\n        /* \"#utility.yul\":34536:34699   */\n      pop\n      jump\t// out\n        /* \"#utility.yul\":34705:34877   */\n    tag_783:\n        /* \"#utility.yul\":34845:34869   */\n      0x596f7520616c7265616479207265676973746572656400000000000000000000\n        /* \"#utility.yul\":34841:34842   */\n      0x00\n        /* \"#utility.yul\":34833:34839   */\n      dup3\n        /* \"#utility.yul\":34829:34843   */\n      add\n        /* \"#utility.yul\":34822:34870   */\n      mstore\n        /* \"#utility.yul\":34705:34877   */\n      pop\n      jump\t// out\n        /* \"#utility.yul\":34883:35044   */\n    tag_788:\n        /* \"#utility.yul\":35023:35036   */\n      0x57726f6e67204c6f67696e000000000000000000000000000000000000000000\n        /* \"#utility.yul\":35019:35020   */\n      0x00\n        /* \"#utility.yul\":35011:35017   */\n      dup3\n        /* \"#utility.yul\":35007:35021   */\n      add\n        /* \"#utility.yul\":35000:35037   */\n      mstore\n        /* \"#utility.yul\":34883:35044   */\n      pop\n      jump\t// out\n        /* \"#utility.yul\":35050:35172   */\n    tag_557:\n        /* \"#utility.yul\":35123:35147   */\n      tag_915\n        /* \"#utility.yul\":35141:35146   */\n      dup2\n        /* \"#utility.yul\":35123:35147   */\n      tag_673\n      jump\t// in\n    tag_915:\n        /* \"#utility.yul\":35116:35121   */\n      dup2\n        /* \"#utility.yul\":35113:35148   */\n      eq\n        /* \"#utility.yul\":35103:35166   */\n      tag_916\n      jumpi\n        /* \"#utility.yul\":35162:35163   */\n      0x00\n        /* \"#utility.yul\":35159:35160   */\n      dup1\n        /* \"#utility.yul\":35152:35164   */\n      revert\n        /* \"#utility.yul\":35103:35166   */\n    tag_916:\n        /* \"#utility.yul\":35050:35172   */\n      pop\n      jump\t// out\n        /* \"#utility.yul\":35178:35316   */\n    tag_561:\n        /* \"#utility.yul\":35259:35291   */\n      tag_918\n        /* \"#utility.yul\":35285:35290   */\n      dup2\n        /* \"#utility.yul\":35259:35291   */\n      tag_876\n      jump\t// in\n    tag_918:\n        /* \"#utility.yul\":35252:35257   */\n      dup2\n        /* \"#utility.yul\":35249:35292   */\n      eq\n        /* \"#utility.yul\":35239:35310   */\n      tag_919\n      jumpi\n        /* \"#utility.yul\":35306:35307   */\n      0x00\n        /* \"#utility.yul\":35303:35304   */\n      dup1\n        /* \"#utility.yul\":35296:35308   */\n      revert\n        /* \"#utility.yul\":35239:35310   */\n    tag_919:\n        /* \"#utility.yul\":35178:35316   */\n      pop\n      jump\t// out\n        /* \"#utility.yul\":35322:35442   */\n    tag_565:\n        /* \"#utility.yul\":35394:35417   */\n      tag_921\n        /* \"#utility.yul\":35411:35416   */\n      dup2\n        /* \"#utility.yul\":35394:35417   */\n      tag_726\n      jump\t// in\n    tag_921:\n        /* \"#utility.yul\":35387:35392   */\n      dup2\n        /* \"#utility.yul\":35384:35418   */\n      eq\n        /* \"#utility.yul\":35374:35436   */\n      tag_922\n      jumpi\n        /* \"#utility.yul\":35432:35433   */\n      0x00\n        /* \"#utility.yul\":35429:35430   */\n      dup1\n        /* \"#utility.yul\":35422:35434   */\n      revert\n        /* \"#utility.yul\":35374:35436   */\n    tag_922:\n        /* \"#utility.yul\":35322:35442   */\n      pop\n      jump\t// out\n\n    auxdata: 0xa2646970667358221220199adce631eaaf250aa85b269214052e5c103cd6bcc2b745c65fec276d3179d164736f6c63430008070033\n}\n",
				"bytecode": {
					"linkReferences": {},
					"object": "60806040523480156200001157600080fd5b506040518060400160405280600581526020017f627579657200000000000000000000000000000000000000000000000000000081525060008080815260200190815260200160002090805190602001906200006f92919062000292565b506040518060400160405280600681526020017f73656c6c65720000000000000000000000000000000000000000000000000000815250600080600181526020019081526020016000209080519060200190620000ce92919062000292565b506040518060400160405280600481526020017f73686f70000000000000000000000000000000000000000000000000000000008152506000806002815260200190815260200160002090805190602001906200012d92919062000292565b506040518060400160405280600581526020017f61646d696e0000000000000000000000000000000000000000000000000000008152506000806003815260200190815260200160002090805190602001906200018c92919062000292565b506040518060400160405280600881526020017f70726f7669646572000000000000000000000000000000000000000000000000815250600080600481526020019081526020016000209080519060200190620001eb92919062000292565b506040518060400160405280600481526020017f62616e6b000000000000000000000000000000000000000000000000000000008152506000806005815260200190815260200160002090805190602001906200024a92919062000292565b5033600560006101000a81548173ffffffffffffffffffffffffffffffffffffffff021916908373ffffffffffffffffffffffffffffffffffffffff160217905550620003a7565b828054620002a09062000342565b90600052602060002090601f016020900481019282620002c4576000855562000310565b82601f10620002df57805160ff191683800117855562000310565b8280016001018555821562000310579182015b828111156200030f578251825591602001919060010190620002f2565b5b5090506200031f919062000323565b5090565b5b808211156200033e57600081600090555060010162000324565b5090565b600060028204905060018216806200035b57607f821691505b6020821081141562000372576200037162000378565b5b50919050565b7f4e487b7100000000000000000000000000000000000000000000000000000000600052602260045260246000fd5b61507480620003b76000396000f3fe608060405234801561001057600080fd5b50600436106101375760003560e01c80638403f848116100b8578063b038316c1161007c578063b038316c14610331578063bce62a741461034d578063c3d5fd3914610369578063dfdd12c91461038a578063dffc8b06146103a6578063f8f98b79146103d857610137565b80638403f848146102a057806399b958ee146102bc5780639d344d10146102dd578063a59d105f146102f9578063ac6fa7c31461031557610137565b806354504c12116100ff57806354504c121461020e5780637558b2f8146102305780637b3c74881461024c5780637ccb2bd81461026857806383db0f6d1461028457610137565b806308e748581461013c5780632156a781146101705780632d6abf591461018c5780632f0185c4146101a85780633a7d280c146101dd575b600080fd5b61015660048036038101906101519190613ff4565b6103f4565b6040516101679594939291906149c7565b60405180910390f35b61018a6004803603810190610185919061427c565b6108f9565b005b6101a660048036038101906101a191906140d9565b6109c0565b005b6101c260048036038101906101bd9190614233565b610d52565b6040516101d496959493929190614889565b60405180910390f35b6101f760048036038101906101f29190614233565b611022565b6040516102059291906148f1565b60405180910390f35b610216611419565b6040516102279594939291906149c7565b60405180910390f35b61024a60048036038101906102459190614178565b61191c565b005b61026660048036038101906102619190614233565b611a97565b005b610282600480360381019061027d919061427c565b611d62565b005b61029e60048036038101906102999190614021565b611e6b565b005b6102ba60048036038101906102b591906143db565b611fba565b005b6102c46120e8565b6040516102d49493929190614a3d565b60405180910390f35b6102f760048036038101906102f29190614350565b61249d565b005b610313600480360381019061030e919061404e565b6124c6565b005b61032f600480360381019061032a9190614233565b6125c5565b005b61034b60048036038101906103469190614233565b612997565b005b61036760048036038101906103629190614233565b612d69565b005b610371613034565b6040516103819493929190614966565b60405180910390f35b6103a4600480360381019061039f9190614233565b613682565b005b6103c060048036038101906103bb9190614233565b61371e565b6040516103cf93929190614921565b60405180910390f35b6103f260048036038101906103ed91906142d8565b613902565b005b60608060608060606003600260003373ffffffffffffffffffffffffffffffffffffffff1673ffffffffffffffffffffffffffffffffffffffff1681526020019081526020016000206000015481600581111561045457610453614dd9565b5b14610494576040517f08c379a000000000000000000000000000000000000000000000000000000000815260040161048b90614af7565b60405180910390fd5b6000600260008973ffffffffffffffffffffffffffffffffffffffff1673ffffffffffffffffffffffffffffffffffffffff168152602001908152602001600020604051806080016040529081600082015481526020016001820180546104fa90614d76565b80601f016020809104026020016040519081016040528092919081815260200182805461052690614d76565b80156105735780601f1061054857610100808354040283529160200191610573565b820191906000526020600020905b81548152906001019060200180831161055657829003601f168201915b5050505050815260200160028201805461058c90614d76565b80601f01602080910402602001604051908101604052809291908181526020018280546105b890614d76565b80156106055780601f106105da57610100808354040283529160200191610605565b820191906000526020600020905b8154815290600101906020018083116105e857829003601f168201915b5050505050815260200160038201805480602002602001604051908101604052809291908181526020016000905b828210156106df57838290600052602060002001805461065290614d76565b80601f016020809104026020016040519081016040528092919081815260200182805461067e90614d76565b80156106cb5780601f106106a0576101008083540402835291602001916106cb565b820191906000526020600020905b8154815290600101906020018083116106ae57829003601f168201915b505050505081526020019060010190610633565b505050508152505090506000600c60008a73ffffffffffffffffffffffffffffffffffffffff1673ffffffffffffffffffffffffffffffffffffffff16815260200190815260200160002060009054906101000a900473ffffffffffffffffffffffffffffffffffffffff1690506000600b60008373ffffffffffffffffffffffffffffffffffffffff1673ffffffffffffffffffffffffffffffffffffffff1681526020019081526020016000206040518060600160405290816000820180546107a990614d76565b80601f01602080910402602001604051908101604052809291908181526020018280546107d590614d76565b80156108225780601f106107f757610100808354040283529160200191610822565b820191906000526020600020905b81548152906001019060200180831161080557829003601f168201915b5050505050815260200160018201805461083b90614d76565b80601f016020809104026020016040519081016040528092919081815260200182805461086790614d76565b80156108b45780601f10610889576101008083540402835291602001916108b4565b820191906000526020600020905b81548152906001019060200180831161089757829003601f168201915b50505050508152602001600282015481525050905082602001519850826040015197508060200151965080600001519550826060015194505050505091939590929450565b600560009054906101000a900473ffffffffffffffffffffffffffffffffffffffff1673ffffffffffffffffffffffffffffffffffffffff163373ffffffffffffffffffffffffffffffffffffffff1614610989576040517f08c379a000000000000000000000000000000000000000000000000000000000815260040161098090614b37565b60405180910390fd5b600060058081111561099e5761099d614dd9565b5b90506109bb604051806020016040528060008152508483856139f7565b505050565b610aa3600260003373ffffffffffffffffffffffffffffffffffffffff1673ffffffffffffffffffffffffffffffffffffffff1681526020019081526020016000206001018054610a1090614d76565b80601f0160208091040260200160405190810160405280929190818152602001828054610a3c90614d76565b8015610a895780601f10610a5e57610100808354040283529160200191610a89565b820191906000526020600020905b815481529060010190602001808311610a6c57829003601f168201915b505050505060405180602001604052806000815250613cfb565b15610ae3576040517f08c379a0000000000000000000000000000000000000000000000000000000008152600401610ada90614b17565b60405180910390fd5b60608060006040518060c001604052803373ffffffffffffffffffffffffffffffffffffffff1681526020018873ffffffffffffffffffffffffffffffffffffffff168152602001878152602001848152602001838152602001858152509050600e60008873ffffffffffffffffffffffffffffffffffffffff1673ffffffffffffffffffffffffffffffffffffffff16815260200190815260200160002085908060018154018082558091505060019003906000526020600020016000909190919091509080519060200190610bbb929190613d54565b50600260003373ffffffffffffffffffffffffffffffffffffffff1673ffffffffffffffffffffffffffffffffffffffff16815260200190815260200160002060030185908060018154018082558091505060019003906000526020600020016000909190919091509080519060200190610c37929190613d54565b5080600f86604051610c499190614872565b908152602001604051809103902060008201518160000160006101000a81548173ffffffffffffffffffffffffffffffffffffffff021916908373ffffffffffffffffffffffffffffffffffffffff16021790555060208201518160010160006101000a81548173ffffffffffffffffffffffffffffffffffffffff021916908373ffffffffffffffffffffffffffffffffffffffff1602179055506040820151816002019080519060200190610d01929190613d54565b506060820151816003019080519060200190610d1e929190613dda565b506080820151816004019080519060200190610d3b929190613dda565b5060a0820151816005015590505050505050505050565b6000806060600080600080600f88604051610d6d9190614872565b90815260200160405180910390206040518060c00160405290816000820160009054906101000a900473ffffffffffffffffffffffffffffffffffffffff1673ffffffffffffffffffffffffffffffffffffffff1673ffffffffffffffffffffffffffffffffffffffff1681526020016001820160009054906101000a900473ffffffffffffffffffffffffffffffffffffffff1673ffffffffffffffffffffffffffffffffffffffff1673ffffffffffffffffffffffffffffffffffffffff168152602001600282018054610e4290614d76565b80601f0160208091040260200160405190810160405280929190818152602001828054610e6e90614d76565b8015610ebb5780601f10610e9057610100808354040283529160200191610ebb565b820191906000526020600020905b815481529060010190602001808311610e9e57829003601f168201915b5050505050815260200160038201805480602002602001604051908101604052809291908181526020018280548015610f4957602002820191906000526020600020905b8160009054906101000a900473ffffffffffffffffffffffffffffffffffffffff1673ffffffffffffffffffffffffffffffffffffffff1681526020019060010190808311610eff575b5050505050815260200160048201805480602002602001604051908101604052809291908181526020018280548015610fd757602002820191906000526020600020905b8160009054906101000a900473ffffffffffffffffffffffffffffffffffffffff1673ffffffffffffffffffffffffffffffffffffffff1681526020019060010190808311610f8d575b505050505081526020016005820154815250509050806000015196508060200151955080604001519450806060015151935080608001515192508060a0015191505091939550919395565b6000606082600073ffffffffffffffffffffffffffffffffffffffff1660018260405161104f9190614872565b908152602001604051809103902060009054906101000a900473ffffffffffffffffffffffffffffffffffffffff1673ffffffffffffffffffffffffffffffffffffffff1614156110d5576040517f08c379a00000000000000000000000000000000000000000000000000000000081526004016110cc90614b77565b60405180910390fd5b60006001856040516110e79190614872565b908152602001604051809103902060009054906101000a900473ffffffffffffffffffffffffffffffffffffffff1690506000600260008373ffffffffffffffffffffffffffffffffffffffff1673ffffffffffffffffffffffffffffffffffffffff1681526020019081526020016000206040518060800160405290816000820154815260200160018201805461117e90614d76565b80601f01602080910402602001604051908101604052809291908181526020018280546111aa90614d76565b80156111f75780601f106111cc576101008083540402835291602001916111f7565b820191906000526020600020905b8154815290600101906020018083116111da57829003601f168201915b5050505050815260200160028201805461121090614d76565b80601f016020809104026020016040519081016040528092919081815260200182805461123c90614d76565b80156112895780601f1061125e57610100808354040283529160200191611289565b820191906000526020600020905b81548152906001019060200180831161126c57829003601f168201915b5050505050815260200160038201805480602002602001604051908101604052809291908181526020016000905b828210156113635783829060005260206000200180546112d690614d76565b80601f016020809104026020016040519081016040528092919081815260200182805461130290614d76565b801561134f5780601f106113245761010080835404028352916020019161134f565b820191906000526020600020905b81548152906001019060200180831161133257829003601f168201915b5050505050815260200190600101906112b7565b5050505081525050905081945060008082600001518152602001908152602001600020805461139190614d76565b80601f01602080910402602001604051908101604052809291908181526020018280546113bd90614d76565b801561140a5780601f106113df5761010080835404028352916020019161140a565b820191906000526020600020905b8154815290600101906020018083116113ed57829003601f168201915b50505050509350505050915091565b60608060608060606001600260003373ffffffffffffffffffffffffffffffffffffffff1673ffffffffffffffffffffffffffffffffffffffff1681526020019081526020016000206000015481600581111561147957611478614dd9565b5b146114b9576040517f08c379a00000000000000000000000000000000000000000000000000000000081526004016114b090614af7565b60405180910390fd5b6000600260003373ffffffffffffffffffffffffffffffffffffffff1673ffffffffffffffffffffffffffffffffffffffff1681526020019081526020016000206040518060800160405290816000820154815260200160018201805461151f90614d76565b80601f016020809104026020016040519081016040528092919081815260200182805461154b90614d76565b80156115985780601f1061156d57610100808354040283529160200191611598565b820191906000526020600020905b81548152906001019060200180831161157b57829003601f168201915b505050505081526020016002820180546115b190614d76565b80601f01602080910402602001604051908101604052809291908181526020018280546115dd90614d76565b801561162a5780601f106115ff5761010080835404028352916020019161162a565b820191906000526020600020905b81548152906001019060200180831161160d57829003601f168201915b5050505050815260200160038201805480602002602001604051908101604052809291908181526020016000905b8282101561170457838290600052602060002001805461167790614d76565b80601f01602080910402602001604051908101604052809291908181526020018280546116a390614d76565b80156116f05780601f106116c5576101008083540402835291602001916116f0565b820191906000526020600020905b8154815290600101906020018083116116d357829003601f168201915b505050505081526020019060010190611658565b505050508152505090506000600c60003373ffffffffffffffffffffffffffffffffffffffff1673ffffffffffffffffffffffffffffffffffffffff16815260200190815260200160002060009054906101000a900473ffffffffffffffffffffffffffffffffffffffff1690506000600b60008373ffffffffffffffffffffffffffffffffffffffff1673ffffffffffffffffffffffffffffffffffffffff1681526020019081526020016000206040518060600160405290816000820180546117ce90614d76565b80601f01602080910402602001604051908101604052809291908181526020018280546117fa90614d76565b80156118475780601f1061181c57610100808354040283529160200191611847565b820191906000526020600020905b81548152906001019060200180831161182a57829003601f168201915b5050505050815260200160018201805461186090614d76565b80601f016020809104026020016040519081016040528092919081815260200182805461188c90614d76565b80156118d95780601f106118ae576101008083540402835291602001916118d9565b820191906000526020600020905b8154815290600101906020018083116118bc57829003601f168201915b5050505050815260200160028201548152505090508260200151985082604001519750806020015196508060000151955082606001519450505050509091929394565b6003600260003373ffffffffffffffffffffffffffffffffffffffff1673ffffffffffffffffffffffffffffffffffffffff1681526020019081526020016000206000015481600581111561197457611973614dd9565b5b146119b4576040517f08c379a00000000000000000000000000000000000000000000000000000000081526004016119ab90614af7565b60405180910390fd5b600060405180606001604052808681526020018581526020016000815250905080600b60008873ffffffffffffffffffffffffffffffffffffffff1673ffffffffffffffffffffffffffffffffffffffff1681526020019081526020016000206000820151816000019080519060200190611a30929190613d54565b506020820151816001019080519060200190611a4d929190613d54565b5060408201518160020155905050600060026005811115611a7157611a70614dd9565b5b9050611a8e6040518060200160405280600081525085838a6139f7565b50505050505050565b611b7a600260003373ffffffffffffffffffffffffffffffffffffffff1673ffffffffffffffffffffffffffffffffffffffff1681526020019081526020016000206001018054611ae790614d76565b80601f0160208091040260200160405190810160405280929190818152602001828054611b1390614d76565b8015611b605780601f10611b3557610100808354040283529160200191611b60565b820191906000526020600020905b815481529060010190602001808311611b4357829003601f168201915b505050505060405180602001604052806000815250613cfb565b15611bba576040517f08c379a0000000000000000000000000000000000000000000000000000000008152600401611bb190614b17565b60405180910390fd5b60001515601182604051611bce9190614872565b908152602001604051809103902060003373ffffffffffffffffffffffffffffffffffffffff1673ffffffffffffffffffffffffffffffffffffffff16815260200190815260200160002060009054906101000a900460ff16151514611c69576040517f08c379a0000000000000000000000000000000000000000000000000000000008152600401611c6090614a97565b60405180910390fd5b600f81604051611c799190614872565b9081526020016040518091039020600301339080600181540180825580915050600190039060005260206000200160009091909190916101000a81548173ffffffffffffffffffffffffffffffffffffffff021916908373ffffffffffffffffffffffffffffffffffffffff1602179055506001601182604051611cfd9190614872565b908152602001604051809103902060003373ffffffffffffffffffffffffffffffffffffffff1673ffffffffffffffffffffffffffffffffffffffff16815260200190815260200160002060006101000a81548160ff02191690831515021790555050565b600560009054906101000a900473ffffffffffffffffffffffffffffffffffffffff1673ffffffffffffffffffffffffffffffffffffffff163373ffffffffffffffffffffffffffffffffffffffff1614611df2576040517f08c379a0000000000000000000000000000000000000000000000000000000008152600401611de990614b37565b60405180910390fd5b600060046005811115611e0857611e07614dd9565b5b9050611e25604051806020016040528060008152508483856139f7565b81600460006101000a81548173ffffffffffffffffffffffffffffffffffffffff021916908373ffffffffffffffffffffffffffffffffffffffff160217905550505050565b6005600260003373ffffffffffffffffffffffffffffffffffffffff1673ffffffffffffffffffffffffffffffffffffffff16815260200190815260200160002060000154816005811115611ec357611ec2614dd9565b5b14611f03576040517f08c379a0000000000000000000000000000000000000000000000000000000008152600401611efa90614af7565b60405180910390fd5b683635c9adc5dea000003373ffffffffffffffffffffffffffffffffffffffff16311015611f66576040517f08c379a0000000000000000000000000000000000000000000000000000000008152600401611f5d90614ad7565b60405180910390fd5b8173ffffffffffffffffffffffffffffffffffffffff166108fc683635c9adc5dea000009081150290604051600060405180830381858888f19350505050158015611fb5573d6000803e3d6000fd5b505050565b600060016005811115611fd057611fcf614dd9565b5b9050611fde858583866139f7565b6008839080600181540180825580915050600190039060005260206000200160009091909190916101000a81548173ffffffffffffffffffffffffffffffffffffffff021916908373ffffffffffffffffffffffffffffffffffffffff160217905550600d60008373ffffffffffffffffffffffffffffffffffffffff1673ffffffffffffffffffffffffffffffffffffffff168152602001908152602001600020839080600181540180825580915050600190039060005260206000200160009091909190916101000a81548173ffffffffffffffffffffffffffffffffffffffff021916908373ffffffffffffffffffffffffffffffffffffffff1602179055505050505050565b606080600060606121d2600260003373ffffffffffffffffffffffffffffffffffffffff1673ffffffffffffffffffffffffffffffffffffffff168152602001908152602001600020600101805461213f90614d76565b80601f016020809104026020016040519081016040528092919081815260200182805461216b90614d76565b80156121b85780601f1061218d576101008083540402835291602001916121b8565b820191906000526020600020905b81548152906001019060200180831161219b57829003601f168201915b505050505060405180602001604052806000815250613cfb565b15612212576040517f08c379a000000000000000000000000000000000000000000000000000000000815260040161220990614b17565b60405180910390fd5b6000600260003373ffffffffffffffffffffffffffffffffffffffff1673ffffffffffffffffffffffffffffffffffffffff1681526020019081526020016000206040518060800160405290816000820154815260200160018201805461227890614d76565b80601f01602080910402602001604051908101604052809291908181526020018280546122a490614d76565b80156122f15780601f106122c6576101008083540402835291602001916122f1565b820191906000526020600020905b8154815290600101906020018083116122d457829003601f168201915b5050505050815260200160028201805461230a90614d76565b80601f016020809104026020016040519081016040528092919081815260200182805461233690614d76565b80156123835780601f1061235857610100808354040283529160200191612383565b820191906000526020600020905b81548152906001019060200180831161236657829003601f168201915b5050505050815260200160038201805480602002602001604051908101604052809291908181526020016000905b8282101561245d5783829060005260206000200180546123d090614d76565b80601f01602080910402602001604051908101604052809291908181526020018280546123fc90614d76565b80156124495780601f1061241e57610100808354040283529160200191612449565b820191906000526020600020905b81548152906001019060200180831161242c57829003601f168201915b5050505050815260200190600101906123b1565b5050505081525050905080602001519450806040015193503373ffffffffffffffffffffffffffffffffffffffff16319250806060015191505090919293565b60008060058111156124b2576124b1614dd9565b5b90506124c0848483856139f7565b50505050565b6003600260003373ffffffffffffffffffffffffffffffffffffffff1673ffffffffffffffffffffffffffffffffffffffff1681526020019081526020016000206000015481600581111561251e5761251d614dd9565b5b1461255e576040517f08c379a000000000000000000000000000000000000000000000000000000000815260040161255590614af7565b60405180910390fd5b60006003600581111561257457612573614dd9565b5b9050612582848483886139f7565b6006839080600181540180825580915050600190039060005260206000200160009091909190915090805190602001906125bd929190613d54565b505050505050565b6000600260003373ffffffffffffffffffffffffffffffffffffffff1673ffffffffffffffffffffffffffffffffffffffff1681526020019081526020016000206000015481600581111561261d5761261c614dd9565b5b1461265d576040517f08c379a000000000000000000000000000000000000000000000000000000000815260040161265490614af7565b60405180910390fd5b600080600080600581111561267557612674614dd9565b5b8152602001908152602001600020805461268e90614d76565b80601f01602080910402602001604051908101604052809291908181526020018280546126ba90614d76565b80156127075780601f106126dc57610100808354040283529160200191612707565b820191906000526020600020905b8154815290600101906020018083116126ea57829003601f168201915b5050505050905060008060006001600581111561272757612726614dd9565b5b8152602001908152602001600020805461274090614d76565b80601f016020809104026020016040519081016040528092919081815260200182805461276c90614d76565b80156127b95780601f1061278e576101008083540402835291602001916127b9565b820191906000526020600020905b81548152906001019060200180831161279c57829003601f168201915b50505050509050600060405180608001604052803373ffffffffffffffffffffffffffffffffffffffff1681526020018481526020018381526020016000151581525090508060108660405161280f9190614872565b908152602001604051809103902060008201518160000160006101000a81548173ffffffffffffffffffffffffffffffffffffffff021916908373ffffffffffffffffffffffffffffffffffffffff1602179055506020820151816001019080519060200190612880929190613d54565b50604082015181600201908051906020019061289d929190613d54565b5060608201518160030160006101000a81548160ff021916908315150217905550905050600a81908060018154018082558091505060019003906000526020600020906004020160009091909190915060008201518160000160006101000a81548173ffffffffffffffffffffffffffffffffffffffff021916908373ffffffffffffffffffffffffffffffffffffffff1602179055506020820151816001019080519060200190612950929190613d54565b50604082015181600201908051906020019061296d929190613d54565b5060608201518160030160006101000a81548160ff02191690831515021790555050505050505050565b6001600260003373ffffffffffffffffffffffffffffffffffffffff1673ffffffffffffffffffffffffffffffffffffffff168152602001908152602001600020600001548160058111156129ef576129ee614dd9565b5b14612a2f576040517f08c379a0000000000000000000000000000000000000000000000000000000008152600401612a2690614af7565b60405180910390fd5b6000806000806005811115612a4757612a46614dd9565b5b81526020019081526020016000208054612a6090614d76565b80601f0160208091040260200160405190810160405280929190818152602001828054612a8c90614d76565b8015612ad95780601f10612aae57610100808354040283529160200191612ad9565b820191906000526020600020905b815481529060010190602001808311612abc57829003601f168201915b50505050509050600080600060016005811115612af957612af8614dd9565b5b81526020019081526020016000208054612b1290614d76565b80601f0160208091040260200160405190810160405280929190818152602001828054612b3e90614d76565b8015612b8b5780601f10612b6057610100808354040283529160200191612b8b565b820191906000526020600020905b815481529060010190602001808311612b6e57829003601f168201915b50505050509050600060405180608001604052803373ffffffffffffffffffffffffffffffffffffffff16815260200183815260200184815260200160001515815250905080601086604051612be19190614872565b908152602001604051809103902060008201518160000160006101000a81548173ffffffffffffffffffffffffffffffffffffffff021916908373ffffffffffffffffffffffffffffffffffffffff1602179055506020820151816001019080519060200190612c52929190613d54565b506040820151816002019080519060200190612c6f929190613d54565b5060608201518160030160006101000a81548160ff021916908315150217905550905050600a81908060018154018082558091505060019003906000526020600020906004020160009091909190915060008201518160000160006101000a81548173ffffffffffffffffffffffffffffffffffffffff021916908373ffffffffffffffffffffffffffffffffffffffff1602179055506020820151816001019080519060200190612d22929190613d54565b506040820151816002019080519060200190612d3f929190613d54565b5060608201518160030160006101000a81548160ff02191690831515021790555050505050505050565b612e4c600260003373ffffffffffffffffffffffffffffffffffffffff1673ffffffffffffffffffffffffffffffffffffffff1681526020019081526020016000206001018054612db990614d76565b80601f0160208091040260200160405190810160405280929190818152602001828054612de590614d76565b8015612e325780601f10612e0757610100808354040283529160200191612e32565b820191906000526020600020905b815481529060010190602001808311612e1557829003601f168201915b505050505060405180602001604052806000815250613cfb565b15612e8c576040517f08c379a0000000000000000000000000000000000000000000000000000000008152600401612e8390614b17565b60405180910390fd5b60001515601182604051612ea09190614872565b908152602001604051809103902060003373ffffffffffffffffffffffffffffffffffffffff1673ffffffffffffffffffffffffffffffffffffffff16815260200190815260200160002060009054906101000a900460ff16151514612f3b576040517f08c379a0000000000000000000000000000000000000000000000000000000008152600401612f3290614a97565b60405180910390fd5b600f81604051612f4b9190614872565b9081526020016040518091039020600401339080600181540180825580915050600190039060005260206000200160009091909190916101000a81548173ffffffffffffffffffffffffffffffffffffffff021916908373ffffffffffffffffffffffffffffffffffffffff1602179055506001601182604051612fcf9190614872565b908152602001604051809103902060003373ffffffffffffffffffffffffffffffffffffffff1673ffffffffffffffffffffffffffffffffffffffff16815260200190815260200160002060006101000a81548160ff02191690831515021790555050565b6060806060806003600260003373ffffffffffffffffffffffffffffffffffffffff1673ffffffffffffffffffffffffffffffffffffffff1681526020019081526020016000206000015481600581111561309257613091614dd9565b5b146130d2576040517f08c379a00000000000000000000000000000000000000000000000000000000081526004016130c990614af7565b60405180910390fd5b6000600260003373ffffffffffffffffffffffffffffffffffffffff1673ffffffffffffffffffffffffffffffffffffffff1681526020019081526020016000206040518060800160405290816000820154815260200160018201805461313890614d76565b80601f016020809104026020016040519081016040528092919081815260200182805461316490614d76565b80156131b15780601f10613186576101008083540402835291602001916131b1565b820191906000526020600020905b81548152906001019060200180831161319457829003601f168201915b505050505081526020016002820180546131ca90614d76565b80601f01602080910402602001604051908101604052809291908181526020018280546131f690614d76565b80156132435780601f1061321857610100808354040283529160200191613243565b820191906000526020600020905b81548152906001019060200180831161322657829003601f168201915b5050505050815260200160038201805480602002602001604051908101604052809291908181526020016000905b8282101561331d57838290600052602060002001805461329090614d76565b80601f01602080910402602001604051908101604052809291908181526020018280546132bc90614d76565b80156133095780601f106132de57610100808354040283529160200191613309565b820191906000526020600020905b8154815290600101906020018083116132ec57829003601f168201915b505050505081526020019060010190613271565b5050505081525050905080602001519550600a805480602002602001604051908101604052809291908181526020016000905b8282101561351757838290600052602060002090600402016040518060800160405290816000820160009054906101000a900473ffffffffffffffffffffffffffffffffffffffff1673ffffffffffffffffffffffffffffffffffffffff1673ffffffffffffffffffffffffffffffffffffffff1681526020016001820180546133d990614d76565b80601f016020809104026020016040519081016040528092919081815260200182805461340590614d76565b80156134525780601f1061342757610100808354040283529160200191613452565b820191906000526020600020905b81548152906001019060200180831161343557829003601f168201915b5050505050815260200160028201805461346b90614d76565b80601f016020809104026020016040519081016040528092919081815260200182805461349790614d76565b80156134e45780601f106134b9576101008083540402835291602001916134e4565b820191906000526020600020905b8154815290600101906020018083116134c757829003601f168201915b505050505081526020016003820160009054906101000a900460ff16151515158152505081526020019060010190613350565b5050505094506006805480602002602001604051908101604052809291908181526020016000905b828210156135eb57838290600052602060002001805461355e90614d76565b80601f016020809104026020016040519081016040528092919081815260200182805461358a90614d76565b80156135d75780601f106135ac576101008083540402835291602001916135d7565b820191906000526020600020905b8154815290600101906020018083116135ba57829003601f168201915b50505050508152602001906001019061353f565b505050509350600880548060200260200160405190810160405280929190818152602001828054801561367357602002820191906000526020600020905b8160009054906101000a900473ffffffffffffffffffffffffffffffffffffffff1673ffffffffffffffffffffffffffffffffffffffff1681526020019060010190808311613629575b50505050509250505090919293565b6003600260003373ffffffffffffffffffffffffffffffffffffffff1673ffffffffffffffffffffffffffffffffffffffff168152602001908152602001600020600001548160058111156136da576136d9614dd9565b5b1461371a576040517f08c379a000000000000000000000000000000000000000000000000000000000815260040161371190614af7565b60405180910390fd5b5050565b600060608060006010856040516137359190614872565b90815260200160405180910390206040518060800160405290816000820160009054906101000a900473ffffffffffffffffffffffffffffffffffffffff1673ffffffffffffffffffffffffffffffffffffffff1673ffffffffffffffffffffffffffffffffffffffff1681526020016001820180546137b490614d76565b80601f01602080910402602001604051908101604052809291908181526020018280546137e090614d76565b801561382d5780601f106138025761010080835404028352916020019161382d565b820191906000526020600020905b81548152906001019060200180831161381057829003601f168201915b5050505050815260200160028201805461384690614d76565b80601f016020809104026020016040519081016040528092919081815260200182805461387290614d76565b80156138bf5780601f10613894576101008083540402835291602001916138bf565b820191906000526020600020905b8154815290600101906020018083116138a257829003601f168201915b505050505081526020016003820160009054906101000a900460ff1615151515815250509050806000015193508060200151925080604001519150509193909250565b600560009054906101000a900473ffffffffffffffffffffffffffffffffffffffff1673ffffffffffffffffffffffffffffffffffffffff163373ffffffffffffffffffffffffffffffffffffffff1614613992576040517f08c379a000000000000000000000000000000000000000000000000000000000815260040161398990614b37565b60405180910390fd5b6000600360058111156139a8576139a7614dd9565b5b90506139b6838383336139f7565b6006829080600181540180825580915050600190039060005260206000200160009091909190915090805190602001906139f1929190613d54565b50505050565b8083613adc600260008473ffffffffffffffffffffffffffffffffffffffff1673ffffffffffffffffffffffffffffffffffffffff1681526020019081526020016000206002018054613a4990614d76565b80601f0160208091040260200160405190810160405280929190818152602001828054613a7590614d76565b8015613ac25780601f10613a9757610100808354040283529160200191613ac2565b820191906000526020600020905b815481529060010190602001808311613aa557829003601f168201915b505050505060405180602001604052806000815250613cfb565b15613b1c576040517f08c379a0000000000000000000000000000000000000000000000000000000008152600401613b1390614b57565b60405180910390fd5b600073ffffffffffffffffffffffffffffffffffffffff16600182604051613b449190614872565b908152602001604051809103902060009054906101000a900473ffffffffffffffffffffffffffffffffffffffff1673ffffffffffffffffffffffffffffffffffffffff1614613bc9576040517f08c379a0000000000000000000000000000000000000000000000000000000008152600401613bc090614ab7565b60405180910390fd5b60606000604051806080016040528087815260200188815260200189815260200183815250905084600188604051613c019190614872565b908152602001604051809103902060006101000a81548173ffffffffffffffffffffffffffffffffffffffff021916908373ffffffffffffffffffffffffffffffffffffffff16021790555080600260008773ffffffffffffffffffffffffffffffffffffffff1673ffffffffffffffffffffffffffffffffffffffff168152602001908152602001600020600082015181600001556020820151816001019080519060200190613cb3929190613d54565b506040820151816002019080519060200190613cd0929190613d54565b506060820151816003019080519060200190613ced929190613e64565b509050505050505050505050565b600081604051602001613d0e9190614872565b6040516020818303038152906040528051906020012083604051602001613d359190614872565b6040516020818303038152906040528051906020012014905092915050565b828054613d6090614d76565b90600052602060002090601f016020900481019282613d825760008555613dc9565b82601f10613d9b57805160ff1916838001178555613dc9565b82800160010185558215613dc9579182015b82811115613dc8578251825591602001919060010190613dad565b5b509050613dd69190613ec4565b5090565b828054828255906000526020600020908101928215613e53579160200282015b82811115613e525782518260006101000a81548173ffffffffffffffffffffffffffffffffffffffff021916908373ffffffffffffffffffffffffffffffffffffffff16021790555091602001919060010190613dfa565b5b509050613e609190613ec4565b5090565b828054828255906000526020600020908101928215613eb3579160200282015b82811115613eb2578251829080519060200190613ea2929190613d54565b5091602001919060010190613e84565b5b509050613ec09190613ee1565b5090565b5b80821115613edd576000816000905550600101613ec5565b5090565b5b80821115613f015760008181613ef89190613f05565b50600101613ee2565b5090565b508054613f1190614d76565b6000825580601f10613f235750613f42565b601f016020900490600052602060002090810190613f419190613ec4565b5b50565b6000613f58613f5384614bbc565b614b97565b905082815260208101848484011115613f7457613f73614e6b565b5b613f7f848285614d34565b509392505050565b600081359050613f9681614ff9565b92915050565b600081359050613fab81615010565b92915050565b600081359050613fc081615027565b92915050565b600082601f830112613fdb57613fda614e66565b5b8135613feb848260208601613f45565b91505092915050565b60006020828403121561400a57614009614e75565b5b600061401884828501613f87565b91505092915050565b60006020828403121561403757614036614e75565b5b600061404584828501613f9c565b91505092915050565b60008060006060848603121561406757614066614e75565b5b600061407586828701613f87565b935050602084013567ffffffffffffffff81111561409657614095614e70565b5b6140a286828701613fc6565b925050604084013567ffffffffffffffff8111156140c3576140c2614e70565b5b6140cf86828701613fc6565b9150509250925092565b600080600080608085870312156140f3576140f2614e75565b5b600061410187828801613f87565b945050602085013567ffffffffffffffff81111561412257614121614e70565b5b61412e87828801613fc6565b935050604085013567ffffffffffffffff81111561414f5761414e614e70565b5b61415b87828801613fc6565b925050606061416c87828801613fb1565b91505092959194509250565b6000806000806080858703121561419257614191614e75565b5b60006141a087828801613f87565b945050602085013567ffffffffffffffff8111156141c1576141c0614e70565b5b6141cd87828801613fc6565b935050604085013567ffffffffffffffff8111156141ee576141ed614e70565b5b6141fa87828801613fc6565b925050606085013567ffffffffffffffff81111561421b5761421a614e70565b5b61422787828801613fc6565b91505092959194509250565b60006020828403121561424957614248614e75565b5b600082013567ffffffffffffffff81111561426757614266614e70565b5b61427384828501613fc6565b91505092915050565b6000806040838503121561429357614292614e75565b5b600083013567ffffffffffffffff8111156142b1576142b0614e70565b5b6142bd85828601613fc6565b92505060206142ce85828601613f87565b9150509250929050565b600080604083850312156142ef576142ee614e75565b5b600083013567ffffffffffffffff81111561430d5761430c614e70565b5b61431985828601613fc6565b925050602083013567ffffffffffffffff81111561433a57614339614e70565b5b61434685828601613fc6565b9150509250929050565b60008060006060848603121561436957614368614e75565b5b600084013567ffffffffffffffff81111561438757614386614e70565b5b61439386828701613fc6565b935050602084013567ffffffffffffffff8111156143b4576143b3614e70565b5b6143c086828701613fc6565b92505060406143d186828701613f87565b9150509250925092565b600080600080608085870312156143f5576143f4614e75565b5b600085013567ffffffffffffffff81111561441357614412614e70565b5b61441f87828801613fc6565b945050602085013567ffffffffffffffff8111156144405761443f614e70565b5b61444c87828801613fc6565b935050604061445d87828801613f87565b925050606061446e87828801613f87565b91505092959194509250565b600061448683836144ba565b60208301905092915050565b600061449e838361463e565b905092915050565b60006144b283836147f9565b905092915050565b6144c381614cd0565b82525050565b6144d281614cd0565b82525050565b60006144e382614c1d565b6144ed8185614c70565b93506144f883614bed565b8060005b83811015614529578151614510888261447a565b975061451b83614c49565b9250506001810190506144fc565b5085935050505092915050565b600061454182614c28565b61454b8185614c81565b93508360208202850161455d85614bfd565b8060005b85811015614599578484038952815161457a8582614492565b945061458583614c56565b925060208a01995050600181019050614561565b50829750879550505050505092915050565b60006145b682614c33565b6145c08185614c92565b9350836020820285016145d285614c0d565b8060005b8581101561460e57848403895281516145ef85826144a6565b94506145fa83614c63565b925060208a019950506001810190506145d6565b50829750879550505050505092915050565b61462981614cf4565b82525050565b61463881614d00565b82525050565b600061464982614c3e565b6146538185614ca3565b9350614663818560208601614d43565b61466c81614e7a565b840191505092915050565b600061468282614c3e565b61468c8185614cb4565b935061469c818560208601614d43565b6146a581614e7a565b840191505092915050565b60006146bb82614c3e565b6146c58185614cc5565b93506146d5818560208601614d43565b80840191505092915050565b60006146ee601b83614cb4565b91506146f982614e8b565b602082019050919050565b6000614711602283614cb4565b915061471c82614eb4565b604082019050919050565b6000614734600b83614cb4565b915061473f82614f03565b602082019050919050565b6000614757600983614cb4565b915061476282614f2c565b602082019050919050565b600061477a600c83614cb4565b915061478582614f55565b602082019050919050565b600061479d600d83614cb4565b91506147a882614f7e565b602082019050919050565b60006147c0601683614cb4565b91506147cb82614fa7565b602082019050919050565b60006147e3600b83614cb4565b91506147ee82614fd0565b602082019050919050565b600060808301600083015161481160008601826144ba565b5060208301518482036020860152614829828261463e565b91505060408301518482036040860152614843828261463e565b91505060608301516148586060860182614620565b508091505092915050565b61486c81614d2a565b82525050565b600061487e82846146b0565b915081905092915050565b600060c08201905061489e60008301896144c9565b6148ab60208301886144c9565b81810360408301526148bd8187614677565b90506148cc6060830186614863565b6148d96080830185614863565b6148e660a083018461462f565b979650505050505050565b600060408201905061490660008301856144c9565b81810360208301526149188184614677565b90509392505050565b600060608201905061493660008301866144c9565b81810360208301526149488185614677565b9050818103604083015261495c8184614677565b9050949350505050565b600060808201905081810360008301526149808187614677565b9050818103602083015261499481866145ab565b905081810360408301526149a88185614536565b905081810360608301526149bc81846144d8565b905095945050505050565b600060a08201905081810360008301526149e18188614677565b905081810360208301526149f58187614677565b90508181036040830152614a098186614677565b90508181036060830152614a1d8185614677565b90508181036080830152614a318184614536565b90509695505050505050565b60006080820190508181036000830152614a578187614677565b90508181036020830152614a6b8186614677565b9050614a7a6040830185614863565b8181036060830152614a8c8184614536565b905095945050505050565b60006020820190508181036000830152614ab0816146e1565b9050919050565b60006020820190508181036000830152614ad081614704565b9050919050565b60006020820190508181036000830152614af081614727565b9050919050565b60006020820190508181036000830152614b108161474a565b9050919050565b60006020820190508181036000830152614b308161476d565b9050919050565b60006020820190508181036000830152614b5081614790565b9050919050565b60006020820190508181036000830152614b70816147b3565b9050919050565b60006020820190508181036000830152614b90816147d6565b9050919050565b6000614ba1614bb2565b9050614bad8282614da8565b919050565b6000604051905090565b600067ffffffffffffffff821115614bd757614bd6614e37565b5b614be082614e7a565b9050602081019050919050565b6000819050602082019050919050565b6000819050602082019050919050565b6000819050602082019050919050565b600081519050919050565b600081519050919050565b600081519050919050565b600081519050919050565b6000602082019050919050565b6000602082019050919050565b6000602082019050919050565b600082825260208201905092915050565b600082825260208201905092915050565b600082825260208201905092915050565b600082825260208201905092915050565b600082825260208201905092915050565b600081905092915050565b6000614cdb82614d0a565b9050919050565b6000614ced82614d0a565b9050919050565b60008115159050919050565b6000819050919050565b600073ffffffffffffffffffffffffffffffffffffffff82169050919050565b6000819050919050565b82818337600083830152505050565b60005b83811015614d61578082015181840152602081019050614d46565b83811115614d70576000848401525b50505050565b60006002820490506001821680614d8e57607f821691505b60208210811415614da257614da1614e08565b5b50919050565b614db182614e7a565b810181811067ffffffffffffffff82111715614dd057614dcf614e37565b5b80604052505050565b7f4e487b7100000000000000000000000000000000000000000000000000000000600052602160045260246000fd5b7f4e487b7100000000000000000000000000000000000000000000000000000000600052602260045260246000fd5b7f4e487b7100000000000000000000000000000000000000000000000000000000600052604160045260246000fd5b600080fd5b600080fd5b600080fd5b600080fd5b6000601f19601f8301169050919050565b7f596f7520616c726561647920636865636b207468697320636173650000000000600082015250565b7f596f7572206c6f67696e20616c726561647920657869737420696e207379737460008201527f656d000000000000000000000000000000000000000000000000000000000000602082015250565b7f4c6f772062616c616e6365000000000000000000000000000000000000000000600082015250565b7f466f7262696464656e0000000000000000000000000000000000000000000000600082015250565b7f596f75206e6f7420757365720000000000000000000000000000000000000000600082015250565b7f596f75206e6f742061646d696e00000000000000000000000000000000000000600082015250565b7f596f7520616c7265616479207265676973746572656400000000000000000000600082015250565b7f57726f6e67204c6f67696e000000000000000000000000000000000000000000600082015250565b61500281614cd0565b811461500d57600080fd5b50565b61501981614ce2565b811461502457600080fd5b50565b61503081614d00565b811461503b57600080fd5b5056fea2646970667358221220199adce631eaaf250aa85b269214052e5c103cd6bcc2b745c65fec276d3179d164736f6c63430008070033",
					"opcodes": "PUSH1 0x80 PUSH1 0x40 MSTORE CALLVALUE DUP1 ISZERO PUSH3 0x11 JUMPI PUSH1 0x0 DUP1 REVERT JUMPDEST POP PUSH1 0x40 MLOAD DUP1 PUSH1 0x40 ADD PUSH1 0x40 MSTORE DUP1 PUSH1 0x5 DUP2 MSTORE PUSH1 0x20 ADD PUSH32 0x6275796572000000000000000000000000000000000000000000000000000000 DUP2 MSTORE POP PUSH1 0x0 DUP1 DUP1 DUP2 MSTORE PUSH1 0x20 ADD SWAP1 DUP2 MSTORE PUSH1 0x20 ADD PUSH1 0x0 KECCAK256 SWAP1 DUP1 MLOAD SWAP1 PUSH1 0x20 ADD SWAP1 PUSH3 0x6F SWAP3 SWAP2 SWAP1 PUSH3 0x292 JUMP JUMPDEST POP PUSH1 0x40 MLOAD DUP1 PUSH1 0x40 ADD PUSH1 0x40 MSTORE DUP1 PUSH1 0x6 DUP2 MSTORE PUSH1 0x20 ADD PUSH32 0x73656C6C65720000000000000000000000000000000000000000000000000000 DUP2 MSTORE POP PUSH1 0x0 DUP1 PUSH1 0x1 DUP2 MSTORE PUSH1 0x20 ADD SWAP1 DUP2 MSTORE PUSH1 0x20 ADD PUSH1 0x0 KECCAK256 SWAP1 DUP1 MLOAD SWAP1 PUSH1 0x20 ADD SWAP1 PUSH3 0xCE SWAP3 SWAP2 SWAP1 PUSH3 0x292 JUMP JUMPDEST POP PUSH1 0x40 MLOAD DUP1 PUSH1 0x40 ADD PUSH1 0x40 MSTORE DUP1 PUSH1 0x4 DUP2 MSTORE PUSH1 0x20 ADD PUSH32 0x73686F7000000000000000000000000000000000000000000000000000000000 DUP2 MSTORE POP PUSH1 0x0 DUP1 PUSH1 0x2 DUP2 MSTORE PUSH1 0x20 ADD SWAP1 DUP2 MSTORE PUSH1 0x20 ADD PUSH1 0x0 KECCAK256 SWAP1 DUP1 MLOAD SWAP1 PUSH1 0x20 ADD SWAP1 PUSH3 0x12D SWAP3 SWAP2 SWAP1 PUSH3 0x292 JUMP JUMPDEST POP PUSH1 0x40 MLOAD DUP1 PUSH1 0x40 ADD PUSH1 0x40 MSTORE DUP1 PUSH1 0x5 DUP2 MSTORE PUSH1 0x20 ADD PUSH32 0x61646D696E000000000000000000000000000000000000000000000000000000 DUP2 MSTORE POP PUSH1 0x0 DUP1 PUSH1 0x3 DUP2 MSTORE PUSH1 0x20 ADD SWAP1 DUP2 MSTORE PUSH1 0x20 ADD PUSH1 0x0 KECCAK256 SWAP1 DUP1 MLOAD SWAP1 PUSH1 0x20 ADD SWAP1 PUSH3 0x18C SWAP3 SWAP2 SWAP1 PUSH3 0x292 JUMP JUMPDEST POP PUSH1 0x40 MLOAD DUP1 PUSH1 0x40 ADD PUSH1 0x40 MSTORE DUP1 PUSH1 0x8 DUP2 MSTORE PUSH1 0x20 ADD PUSH32 0x70726F7669646572000000000000000000000000000000000000000000000000 DUP2 MSTORE POP PUSH1 0x0 DUP1 PUSH1 0x4 DUP2 MSTORE PUSH1 0x20 ADD SWAP1 DUP2 MSTORE PUSH1 0x20 ADD PUSH1 0x0 KECCAK256 SWAP1 DUP1 MLOAD SWAP1 PUSH1 0x20 ADD SWAP1 PUSH3 0x1EB SWAP3 SWAP2 SWAP1 PUSH3 0x292 JUMP JUMPDEST POP PUSH1 0x40 MLOAD DUP1 PUSH1 0x40 ADD PUSH1 0x40 MSTORE DUP1 PUSH1 0x4 DUP2 MSTORE PUSH1 0x20 ADD PUSH32 0x62616E6B00000000000000000000000000000000000000000000000000000000 DUP2 MSTORE POP PUSH1 0x0 DUP1 PUSH1 0x5 DUP2 MSTORE PUSH1 0x20 ADD SWAP1 DUP2 MSTORE PUSH1 0x20 ADD PUSH1 0x0 KECCAK256 SWAP1 DUP1 MLOAD SWAP1 PUSH1 0x20 ADD SWAP1 PUSH3 0x24A SWAP3 SWAP2 SWAP1 PUSH3 0x292 JUMP JUMPDEST POP CALLER PUSH1 0x5 PUSH1 0x0 PUSH2 0x100 EXP DUP2 SLOAD DUP2 PUSH20 0xFFFFFFFFFFFFFFFFFFFFFFFFFFFFFFFFFFFFFFFF MUL NOT AND SWAP1 DUP4 PUSH20 0xFFFFFFFFFFFFFFFFFFFFFFFFFFFFFFFFFFFFFFFF AND MUL OR SWAP1 SSTORE POP PUSH3 0x3A7 JUMP JUMPDEST DUP3 DUP1 SLOAD PUSH3 0x2A0 SWAP1 PUSH3 0x342 JUMP JUMPDEST SWAP1 PUSH1 0x0 MSTORE PUSH1 0x20 PUSH1 0x0 KECCAK256 SWAP1 PUSH1 0x1F ADD PUSH1 0x20 SWAP1 DIV DUP2 ADD SWAP3 DUP3 PUSH3 0x2C4 JUMPI PUSH1 0x0 DUP6 SSTORE PUSH3 0x310 JUMP JUMPDEST DUP3 PUSH1 0x1F LT PUSH3 0x2DF JUMPI DUP1 MLOAD PUSH1 0xFF NOT AND DUP4 DUP1 ADD OR DUP6 SSTORE PUSH3 0x310 JUMP JUMPDEST DUP3 DUP1 ADD PUSH1 0x1 ADD DUP6 SSTORE DUP3 ISZERO PUSH3 0x310 JUMPI SWAP2 DUP3 ADD JUMPDEST DUP3 DUP2 GT ISZERO PUSH3 0x30F JUMPI DUP3 MLOAD DUP3 SSTORE SWAP2 PUSH1 0x20 ADD SWAP2 SWAP1 PUSH1 0x1 ADD SWAP1 PUSH3 0x2F2 JUMP JUMPDEST JUMPDEST POP SWAP1 POP PUSH3 0x31F SWAP2 SWAP1 PUSH3 0x323 JUMP JUMPDEST POP SWAP1 JUMP JUMPDEST JUMPDEST DUP1 DUP3 GT ISZERO PUSH3 0x33E JUMPI PUSH1 0x0 DUP2 PUSH1 0x0 SWAP1 SSTORE POP PUSH1 0x1 ADD PUSH3 0x324 JUMP JUMPDEST POP SWAP1 JUMP JUMPDEST PUSH1 0x0 PUSH1 0x2 DUP3 DIV SWAP1 POP PUSH1 0x1 DUP3 AND DUP1 PUSH3 0x35B JUMPI PUSH1 0x7F DUP3 AND SWAP2 POP JUMPDEST PUSH1 0x20 DUP3 LT DUP2 EQ ISZERO PUSH3 0x372 JUMPI PUSH3 0x371 PUSH3 0x378 JUMP JUMPDEST JUMPDEST POP SWAP2 SWAP1 POP JUMP JUMPDEST PUSH32 0x4E487B7100000000000000000000000000000000000000000000000000000000 PUSH1 0x0 MSTORE PUSH1 0x22 PUSH1 0x4 MSTORE PUSH1 0x24 PUSH1 0x0 REVERT JUMPDEST PUSH2 0x5074 DUP1 PUSH3 0x3B7 PUSH1 0x0 CODECOPY PUSH1 0x0 RETURN INVALID PUSH1 0x80 PUSH1 0x40 MSTORE CALLVALUE DUP1 ISZERO PUSH2 0x10 JUMPI PUSH1 0x0 DUP1 REVERT JUMPDEST POP PUSH1 0x4 CALLDATASIZE LT PUSH2 0x137 JUMPI PUSH1 0x0 CALLDATALOAD PUSH1 0xE0 SHR DUP1 PUSH4 0x8403F848 GT PUSH2 0xB8 JUMPI DUP1 PUSH4 0xB038316C GT PUSH2 0x7C JUMPI DUP1 PUSH4 0xB038316C EQ PUSH2 0x331 JUMPI DUP1 PUSH4 0xBCE62A74 EQ PUSH2 0x34D JUMPI DUP1 PUSH4 0xC3D5FD39 EQ PUSH2 0x369 JUMPI DUP1 PUSH4 0xDFDD12C9 EQ PUSH2 0x38A JUMPI DUP1 PUSH4 0xDFFC8B06 EQ PUSH2 0x3A6 JUMPI DUP1 PUSH4 0xF8F98B79 EQ PUSH2 0x3D8 JUMPI PUSH2 0x137 JUMP JUMPDEST DUP1 PUSH4 0x8403F848 EQ PUSH2 0x2A0 JUMPI DUP1 PUSH4 0x99B958EE EQ PUSH2 0x2BC JUMPI DUP1 PUSH4 0x9D344D10 EQ PUSH2 0x2DD JUMPI DUP1 PUSH4 0xA59D105F EQ PUSH2 0x2F9 JUMPI DUP1 PUSH4 0xAC6FA7C3 EQ PUSH2 0x315 JUMPI PUSH2 0x137 JUMP JUMPDEST DUP1 PUSH4 0x54504C12 GT PUSH2 0xFF JUMPI DUP1 PUSH4 0x54504C12 EQ PUSH2 0x20E JUMPI DUP1 PUSH4 0x7558B2F8 EQ PUSH2 0x230 JUMPI DUP1 PUSH4 0x7B3C7488 EQ PUSH2 0x24C JUMPI DUP1 PUSH4 0x7CCB2BD8 EQ PUSH2 0x268 JUMPI DUP1 PUSH4 0x83DB0F6D EQ PUSH2 0x284 JUMPI PUSH2 0x137 JUMP JUMPDEST DUP1 PUSH4 0x8E74858 EQ PUSH2 0x13C JUMPI DUP1 PUSH4 0x2156A781 EQ PUSH2 0x170 JUMPI DUP1 PUSH4 0x2D6ABF59 EQ PUSH2 0x18C JUMPI DUP1 PUSH4 0x2F0185C4 EQ PUSH2 0x1A8 JUMPI DUP1 PUSH4 0x3A7D280C EQ PUSH2 0x1DD JUMPI JUMPDEST PUSH1 0x0 DUP1 REVERT JUMPDEST PUSH2 0x156 PUSH1 0x4 DUP1 CALLDATASIZE SUB DUP2 ADD SWAP1 PUSH2 0x151 SWAP2 SWAP1 PUSH2 0x3FF4 JUMP JUMPDEST PUSH2 0x3F4 JUMP JUMPDEST PUSH1 0x40 MLOAD PUSH2 0x167 SWAP6 SWAP5 SWAP4 SWAP3 SWAP2 SWAP1 PUSH2 0x49C7 JUMP JUMPDEST PUSH1 0x40 MLOAD DUP1 SWAP2 SUB SWAP1 RETURN JUMPDEST PUSH2 0x18A PUSH1 0x4 DUP1 CALLDATASIZE SUB DUP2 ADD SWAP1 PUSH2 0x185 SWAP2 SWAP1 PUSH2 0x427C JUMP JUMPDEST PUSH2 0x8F9 JUMP JUMPDEST STOP JUMPDEST PUSH2 0x1A6 PUSH1 0x4 DUP1 CALLDATASIZE SUB DUP2 ADD SWAP1 PUSH2 0x1A1 SWAP2 SWAP1 PUSH2 0x40D9 JUMP JUMPDEST PUSH2 0x9C0 JUMP JUMPDEST STOP JUMPDEST PUSH2 0x1C2 PUSH1 0x4 DUP1 CALLDATASIZE SUB DUP2 ADD SWAP1 PUSH2 0x1BD SWAP2 SWAP1 PUSH2 0x4233 JUMP JUMPDEST PUSH2 0xD52 JUMP JUMPDEST PUSH1 0x40 MLOAD PUSH2 0x1D4 SWAP7 SWAP6 SWAP5 SWAP4 SWAP3 SWAP2 SWAP1 PUSH2 0x4889 JUMP JUMPDEST PUSH1 0x40 MLOAD DUP1 SWAP2 SUB SWAP1 RETURN JUMPDEST PUSH2 0x1F7 PUSH1 0x4 DUP1 CALLDATASIZE SUB DUP2 ADD SWAP1 PUSH2 0x1F2 SWAP2 SWAP1 PUSH2 0x4233 JUMP JUMPDEST PUSH2 0x1022 JUMP JUMPDEST PUSH1 0x40 MLOAD PUSH2 0x205 SWAP3 SWAP2 SWAP1 PUSH2 0x48F1 JUMP JUMPDEST PUSH1 0x40 MLOAD DUP1 SWAP2 SUB SWAP1 RETURN JUMPDEST PUSH2 0x216 PUSH2 0x1419 JUMP JUMPDEST PUSH1 0x40 MLOAD PUSH2 0x227 SWAP6 SWAP5 SWAP4 SWAP3 SWAP2 SWAP1 PUSH2 0x49C7 JUMP JUMPDEST PUSH1 0x40 MLOAD DUP1 SWAP2 SUB SWAP1 RETURN JUMPDEST PUSH2 0x24A PUSH1 0x4 DUP1 CALLDATASIZE SUB DUP2 ADD SWAP1 PUSH2 0x245 SWAP2 SWAP1 PUSH2 0x4178 JUMP JUMPDEST PUSH2 0x191C JUMP JUMPDEST STOP JUMPDEST PUSH2 0x266 PUSH1 0x4 DUP1 CALLDATASIZE SUB DUP2 ADD SWAP1 PUSH2 0x261 SWAP2 SWAP1 PUSH2 0x4233 JUMP JUMPDEST PUSH2 0x1A97 JUMP JUMPDEST STOP JUMPDEST PUSH2 0x282 PUSH1 0x4 DUP1 CALLDATASIZE SUB DUP2 ADD SWAP1 PUSH2 0x27D SWAP2 SWAP1 PUSH2 0x427C JUMP JUMPDEST PUSH2 0x1D62 JUMP JUMPDEST STOP JUMPDEST PUSH2 0x29E PUSH1 0x4 DUP1 CALLDATASIZE SUB DUP2 ADD SWAP1 PUSH2 0x299 SWAP2 SWAP1 PUSH2 0x4021 JUMP JUMPDEST PUSH2 0x1E6B JUMP JUMPDEST STOP JUMPDEST PUSH2 0x2BA PUSH1 0x4 DUP1 CALLDATASIZE SUB DUP2 ADD SWAP1 PUSH2 0x2B5 SWAP2 SWAP1 PUSH2 0x43DB JUMP JUMPDEST PUSH2 0x1FBA JUMP JUMPDEST STOP JUMPDEST PUSH2 0x2C4 PUSH2 0x20E8 JUMP JUMPDEST PUSH1 0x40 MLOAD PUSH2 0x2D4 SWAP5 SWAP4 SWAP3 SWAP2 SWAP1 PUSH2 0x4A3D JUMP JUMPDEST PUSH1 0x40 MLOAD DUP1 SWAP2 SUB SWAP1 RETURN JUMPDEST PUSH2 0x2F7 PUSH1 0x4 DUP1 CALLDATASIZE SUB DUP2 ADD SWAP1 PUSH2 0x2F2 SWAP2 SWAP1 PUSH2 0x4350 JUMP JUMPDEST PUSH2 0x249D JUMP JUMPDEST STOP JUMPDEST PUSH2 0x313 PUSH1 0x4 DUP1 CALLDATASIZE SUB DUP2 ADD SWAP1 PUSH2 0x30E SWAP2 SWAP1 PUSH2 0x404E JUMP JUMPDEST PUSH2 0x24C6 JUMP JUMPDEST STOP JUMPDEST PUSH2 0x32F PUSH1 0x4 DUP1 CALLDATASIZE SUB DUP2 ADD SWAP1 PUSH2 0x32A SWAP2 SWAP1 PUSH2 0x4233 JUMP JUMPDEST PUSH2 0x25C5 JUMP JUMPDEST STOP JUMPDEST PUSH2 0x34B PUSH1 0x4 DUP1 CALLDATASIZE SUB DUP2 ADD SWAP1 PUSH2 0x346 SWAP2 SWAP1 PUSH2 0x4233 JUMP JUMPDEST PUSH2 0x2997 JUMP JUMPDEST STOP JUMPDEST PUSH2 0x367 PUSH1 0x4 DUP1 CALLDATASIZE SUB DUP2 ADD SWAP1 PUSH2 0x362 SWAP2 SWAP1 PUSH2 0x4233 JUMP JUMPDEST PUSH2 0x2D69 JUMP JUMPDEST STOP JUMPDEST PUSH2 0x371 PUSH2 0x3034 JUMP JUMPDEST PUSH1 0x40 MLOAD PUSH2 0x381 SWAP5 SWAP4 SWAP3 SWAP2 SWAP1 PUSH2 0x4966 JUMP JUMPDEST PUSH1 0x40 MLOAD DUP1 SWAP2 SUB SWAP1 RETURN JUMPDEST PUSH2 0x3A4 PUSH1 0x4 DUP1 CALLDATASIZE SUB DUP2 ADD SWAP1 PUSH2 0x39F SWAP2 SWAP1 PUSH2 0x4233 JUMP JUMPDEST PUSH2 0x3682 JUMP JUMPDEST STOP JUMPDEST PUSH2 0x3C0 PUSH1 0x4 DUP1 CALLDATASIZE SUB DUP2 ADD SWAP1 PUSH2 0x3BB SWAP2 SWAP1 PUSH2 0x4233 JUMP JUMPDEST PUSH2 0x371E JUMP JUMPDEST PUSH1 0x40 MLOAD PUSH2 0x3CF SWAP4 SWAP3 SWAP2 SWAP1 PUSH2 0x4921 JUMP JUMPDEST PUSH1 0x40 MLOAD DUP1 SWAP2 SUB SWAP1 RETURN JUMPDEST PUSH2 0x3F2 PUSH1 0x4 DUP1 CALLDATASIZE SUB DUP2 ADD SWAP1 PUSH2 0x3ED SWAP2 SWAP1 PUSH2 0x42D8 JUMP JUMPDEST PUSH2 0x3902 JUMP JUMPDEST STOP JUMPDEST PUSH1 0x60 DUP1 PUSH1 0x60 DUP1 PUSH1 0x60 PUSH1 0x3 PUSH1 0x2 PUSH1 0x0 CALLER PUSH20 0xFFFFFFFFFFFFFFFFFFFFFFFFFFFFFFFFFFFFFFFF AND PUSH20 0xFFFFFFFFFFFFFFFFFFFFFFFFFFFFFFFFFFFFFFFF AND DUP2 MSTORE PUSH1 0x20 ADD SWAP1 DUP2 MSTORE PUSH1 0x20 ADD PUSH1 0x0 KECCAK256 PUSH1 0x0 ADD SLOAD DUP2 PUSH1 0x5 DUP2 GT ISZERO PUSH2 0x454 JUMPI PUSH2 0x453 PUSH2 0x4DD9 JUMP JUMPDEST JUMPDEST EQ PUSH2 0x494 JUMPI PUSH1 0x40 MLOAD PUSH32 0x8C379A000000000000000000000000000000000000000000000000000000000 DUP2 MSTORE PUSH1 0x4 ADD PUSH2 0x48B SWAP1 PUSH2 0x4AF7 JUMP JUMPDEST PUSH1 0x40 MLOAD DUP1 SWAP2 SUB SWAP1 REVERT JUMPDEST PUSH1 0x0 PUSH1 0x2 PUSH1 0x0 DUP10 PUSH20 0xFFFFFFFFFFFFFFFFFFFFFFFFFFFFFFFFFFFFFFFF AND PUSH20 0xFFFFFFFFFFFFFFFFFFFFFFFFFFFFFFFFFFFFFFFF AND DUP2 MSTORE PUSH1 0x20 ADD SWAP1 DUP2 MSTORE PUSH1 0x20 ADD PUSH1 0x0 KECCAK256 PUSH1 0x40 MLOAD DUP1 PUSH1 0x80 ADD PUSH1 0x40 MSTORE SWAP1 DUP2 PUSH1 0x0 DUP3 ADD SLOAD DUP2 MSTORE PUSH1 0x20 ADD PUSH1 0x1 DUP3 ADD DUP1 SLOAD PUSH2 0x4FA SWAP1 PUSH2 0x4D76 JUMP JUMPDEST DUP1 PUSH1 0x1F ADD PUSH1 0x20 DUP1 SWAP2 DIV MUL PUSH1 0x20 ADD PUSH1 0x40 MLOAD SWAP1 DUP2 ADD PUSH1 0x40 MSTORE DUP1 SWAP3 SWAP2 SWAP1 DUP2 DUP2 MSTORE PUSH1 0x20 ADD DUP3 DUP1 SLOAD PUSH2 0x526 SWAP1 PUSH2 0x4D76 JUMP JUMPDEST DUP1 ISZERO PUSH2 0x573 JUMPI DUP1 PUSH1 0x1F LT PUSH2 0x548 JUMPI PUSH2 0x100 DUP1 DUP4 SLOAD DIV MUL DUP4 MSTORE SWAP2 PUSH1 0x20 ADD SWAP2 PUSH2 0x573 JUMP JUMPDEST DUP3 ADD SWAP2 SWAP1 PUSH1 0x0 MSTORE PUSH1 0x20 PUSH1 0x0 KECCAK256 SWAP1 JUMPDEST DUP2 SLOAD DUP2 MSTORE SWAP1 PUSH1 0x1 ADD SWAP1 PUSH1 0x20 ADD DUP1 DUP4 GT PUSH2 0x556 JUMPI DUP3 SWAP1 SUB PUSH1 0x1F AND DUP3 ADD SWAP2 JUMPDEST POP POP POP POP POP DUP2 MSTORE PUSH1 0x20 ADD PUSH1 0x2 DUP3 ADD DUP1 SLOAD PUSH2 0x58C SWAP1 PUSH2 0x4D76 JUMP JUMPDEST DUP1 PUSH1 0x1F ADD PUSH1 0x20 DUP1 SWAP2 DIV MUL PUSH1 0x20 ADD PUSH1 0x40 MLOAD SWAP1 DUP2 ADD PUSH1 0x40 MSTORE DUP1 SWAP3 SWAP2 SWAP1 DUP2 DUP2 MSTORE PUSH1 0x20 ADD DUP3 DUP1 SLOAD PUSH2 0x5B8 SWAP1 PUSH2 0x4D76 JUMP JUMPDEST DUP1 ISZERO PUSH2 0x605 JUMPI DUP1 PUSH1 0x1F LT PUSH2 0x5DA JUMPI PUSH2 0x100 DUP1 DUP4 SLOAD DIV MUL DUP4 MSTORE SWAP2 PUSH1 0x20 ADD SWAP2 PUSH2 0x605 JUMP JUMPDEST DUP3 ADD SWAP2 SWAP1 PUSH1 0x0 MSTORE PUSH1 0x20 PUSH1 0x0 KECCAK256 SWAP1 JUMPDEST DUP2 SLOAD DUP2 MSTORE SWAP1 PUSH1 0x1 ADD SWAP1 PUSH1 0x20 ADD DUP1 DUP4 GT PUSH2 0x5E8 JUMPI DUP3 SWAP1 SUB PUSH1 0x1F AND DUP3 ADD SWAP2 JUMPDEST POP POP POP POP POP DUP2 MSTORE PUSH1 0x20 ADD PUSH1 0x3 DUP3 ADD DUP1 SLOAD DUP1 PUSH1 0x20 MUL PUSH1 0x20 ADD PUSH1 0x40 MLOAD SWAP1 DUP2 ADD PUSH1 0x40 MSTORE DUP1 SWAP3 SWAP2 SWAP1 DUP2 DUP2 MSTORE PUSH1 0x20 ADD PUSH1 0x0 SWAP1 JUMPDEST DUP3 DUP3 LT ISZERO PUSH2 0x6DF JUMPI DUP4 DUP3 SWAP1 PUSH1 0x0 MSTORE PUSH1 0x20 PUSH1 0x0 KECCAK256 ADD DUP1 SLOAD PUSH2 0x652 SWAP1 PUSH2 0x4D76 JUMP JUMPDEST DUP1 PUSH1 0x1F ADD PUSH1 0x20 DUP1 SWAP2 DIV MUL PUSH1 0x20 ADD PUSH1 0x40 MLOAD SWAP1 DUP2 ADD PUSH1 0x40 MSTORE DUP1 SWAP3 SWAP2 SWAP1 DUP2 DUP2 MSTORE PUSH1 0x20 ADD DUP3 DUP1 SLOAD PUSH2 0x67E SWAP1 PUSH2 0x4D76 JUMP JUMPDEST DUP1 ISZERO PUSH2 0x6CB JUMPI DUP1 PUSH1 0x1F LT PUSH2 0x6A0 JUMPI PUSH2 0x100 DUP1 DUP4 SLOAD DIV MUL DUP4 MSTORE SWAP2 PUSH1 0x20 ADD SWAP2 PUSH2 0x6CB JUMP JUMPDEST DUP3 ADD SWAP2 SWAP1 PUSH1 0x0 MSTORE PUSH1 0x20 PUSH1 0x0 KECCAK256 SWAP1 JUMPDEST DUP2 SLOAD DUP2 MSTORE SWAP1 PUSH1 0x1 ADD SWAP1 PUSH1 0x20 ADD DUP1 DUP4 GT PUSH2 0x6AE JUMPI DUP3 SWAP1 SUB PUSH1 0x1F AND DUP3 ADD SWAP2 JUMPDEST POP POP POP POP POP DUP2 MSTORE PUSH1 0x20 ADD SWAP1 PUSH1 0x1 ADD SWAP1 PUSH2 0x633 JUMP JUMPDEST POP POP POP POP DUP2 MSTORE POP POP SWAP1 POP PUSH1 0x0 PUSH1 0xC PUSH1 0x0 DUP11 PUSH20 0xFFFFFFFFFFFFFFFFFFFFFFFFFFFFFFFFFFFFFFFF AND PUSH20 0xFFFFFFFFFFFFFFFFFFFFFFFFFFFFFFFFFFFFFFFF AND DUP2 MSTORE PUSH1 0x20 ADD SWAP1 DUP2 MSTORE PUSH1 0x20 ADD PUSH1 0x0 KECCAK256 PUSH1 0x0 SWAP1 SLOAD SWAP1 PUSH2 0x100 EXP SWAP1 DIV PUSH20 0xFFFFFFFFFFFFFFFFFFFFFFFFFFFFFFFFFFFFFFFF AND SWAP1 POP PUSH1 0x0 PUSH1 0xB PUSH1 0x0 DUP4 PUSH20 0xFFFFFFFFFFFFFFFFFFFFFFFFFFFFFFFFFFFFFFFF AND PUSH20 0xFFFFFFFFFFFFFFFFFFFFFFFFFFFFFFFFFFFFFFFF AND DUP2 MSTORE PUSH1 0x20 ADD SWAP1 DUP2 MSTORE PUSH1 0x20 ADD PUSH1 0x0 KECCAK256 PUSH1 0x40 MLOAD DUP1 PUSH1 0x60 ADD PUSH1 0x40 MSTORE SWAP1 DUP2 PUSH1 0x0 DUP3 ADD DUP1 SLOAD PUSH2 0x7A9 SWAP1 PUSH2 0x4D76 JUMP JUMPDEST DUP1 PUSH1 0x1F ADD PUSH1 0x20 DUP1 SWAP2 DIV MUL PUSH1 0x20 ADD PUSH1 0x40 MLOAD SWAP1 DUP2 ADD PUSH1 0x40 MSTORE DUP1 SWAP3 SWAP2 SWAP1 DUP2 DUP2 MSTORE PUSH1 0x20 ADD DUP3 DUP1 SLOAD PUSH2 0x7D5 SWAP1 PUSH2 0x4D76 JUMP JUMPDEST DUP1 ISZERO PUSH2 0x822 JUMPI DUP1 PUSH1 0x1F LT PUSH2 0x7F7 JUMPI PUSH2 0x100 DUP1 DUP4 SLOAD DIV MUL DUP4 MSTORE SWAP2 PUSH1 0x20 ADD SWAP2 PUSH2 0x822 JUMP JUMPDEST DUP3 ADD SWAP2 SWAP1 PUSH1 0x0 MSTORE PUSH1 0x20 PUSH1 0x0 KECCAK256 SWAP1 JUMPDEST DUP2 SLOAD DUP2 MSTORE SWAP1 PUSH1 0x1 ADD SWAP1 PUSH1 0x20 ADD DUP1 DUP4 GT PUSH2 0x805 JUMPI DUP3 SWAP1 SUB PUSH1 0x1F AND DUP3 ADD SWAP2 JUMPDEST POP POP POP POP POP DUP2 MSTORE PUSH1 0x20 ADD PUSH1 0x1 DUP3 ADD DUP1 SLOAD PUSH2 0x83B SWAP1 PUSH2 0x4D76 JUMP JUMPDEST DUP1 PUSH1 0x1F ADD PUSH1 0x20 DUP1 SWAP2 DIV MUL PUSH1 0x20 ADD PUSH1 0x40 MLOAD SWAP1 DUP2 ADD PUSH1 0x40 MSTORE DUP1 SWAP3 SWAP2 SWAP1 DUP2 DUP2 MSTORE PUSH1 0x20 ADD DUP3 DUP1 SLOAD PUSH2 0x867 SWAP1 PUSH2 0x4D76 JUMP JUMPDEST DUP1 ISZERO PUSH2 0x8B4 JUMPI DUP1 PUSH1 0x1F LT PUSH2 0x889 JUMPI PUSH2 0x100 DUP1 DUP4 SLOAD DIV MUL DUP4 MSTORE SWAP2 PUSH1 0x20 ADD SWAP2 PUSH2 0x8B4 JUMP JUMPDEST DUP3 ADD SWAP2 SWAP1 PUSH1 0x0 MSTORE PUSH1 0x20 PUSH1 0x0 KECCAK256 SWAP1 JUMPDEST DUP2 SLOAD DUP2 MSTORE SWAP1 PUSH1 0x1 ADD SWAP1 PUSH1 0x20 ADD DUP1 DUP4 GT PUSH2 0x897 JUMPI DUP3 SWAP1 SUB PUSH1 0x1F AND DUP3 ADD SWAP2 JUMPDEST POP POP POP POP POP DUP2 MSTORE PUSH1 0x20 ADD PUSH1 0x2 DUP3 ADD SLOAD DUP2 MSTORE POP POP SWAP1 POP DUP3 PUSH1 0x20 ADD MLOAD SWAP9 POP DUP3 PUSH1 0x40 ADD MLOAD SWAP8 POP DUP1 PUSH1 0x20 ADD MLOAD SWAP7 POP DUP1 PUSH1 0x0 ADD MLOAD SWAP6 POP DUP3 PUSH1 0x60 ADD MLOAD SWAP5 POP POP POP POP POP SWAP2 SWAP4 SWAP6 SWAP1 SWAP3 SWAP5 POP JUMP JUMPDEST PUSH1 0x5 PUSH1 0x0 SWAP1 SLOAD SWAP1 PUSH2 0x100 EXP SWAP1 DIV PUSH20 0xFFFFFFFFFFFFFFFFFFFFFFFFFFFFFFFFFFFFFFFF AND PUSH20 0xFFFFFFFFFFFFFFFFFFFFFFFFFFFFFFFFFFFFFFFF AND CALLER PUSH20 0xFFFFFFFFFFFFFFFFFFFFFFFFFFFFFFFFFFFFFFFF AND EQ PUSH2 0x989 JUMPI PUSH1 0x40 MLOAD PUSH32 0x8C379A000000000000000000000000000000000000000000000000000000000 DUP2 MSTORE PUSH1 0x4 ADD PUSH2 0x980 SWAP1 PUSH2 0x4B37 JUMP JUMPDEST PUSH1 0x40 MLOAD DUP1 SWAP2 SUB SWAP1 REVERT JUMPDEST PUSH1 0x0 PUSH1 0x5 DUP1 DUP2 GT ISZERO PUSH2 0x99E JUMPI PUSH2 0x99D PUSH2 0x4DD9 JUMP JUMPDEST JUMPDEST SWAP1 POP PUSH2 0x9BB PUSH1 0x40 MLOAD DUP1 PUSH1 0x20 ADD PUSH1 0x40 MSTORE DUP1 PUSH1 0x0 DUP2 MSTORE POP DUP5 DUP4 DUP6 PUSH2 0x39F7 JUMP JUMPDEST POP POP POP JUMP JUMPDEST PUSH2 0xAA3 PUSH1 0x2 PUSH1 0x0 CALLER PUSH20 0xFFFFFFFFFFFFFFFFFFFFFFFFFFFFFFFFFFFFFFFF AND PUSH20 0xFFFFFFFFFFFFFFFFFFFFFFFFFFFFFFFFFFFFFFFF AND DUP2 MSTORE PUSH1 0x20 ADD SWAP1 DUP2 MSTORE PUSH1 0x20 ADD PUSH1 0x0 KECCAK256 PUSH1 0x1 ADD DUP1 SLOAD PUSH2 0xA10 SWAP1 PUSH2 0x4D76 JUMP JUMPDEST DUP1 PUSH1 0x1F ADD PUSH1 0x20 DUP1 SWAP2 DIV MUL PUSH1 0x20 ADD PUSH1 0x40 MLOAD SWAP1 DUP2 ADD PUSH1 0x40 MSTORE DUP1 SWAP3 SWAP2 SWAP1 DUP2 DUP2 MSTORE PUSH1 0x20 ADD DUP3 DUP1 SLOAD PUSH2 0xA3C SWAP1 PUSH2 0x4D76 JUMP JUMPDEST DUP1 ISZERO PUSH2 0xA89 JUMPI DUP1 PUSH1 0x1F LT PUSH2 0xA5E JUMPI PUSH2 0x100 DUP1 DUP4 SLOAD DIV MUL DUP4 MSTORE SWAP2 PUSH1 0x20 ADD SWAP2 PUSH2 0xA89 JUMP JUMPDEST DUP3 ADD SWAP2 SWAP1 PUSH1 0x0 MSTORE PUSH1 0x20 PUSH1 0x0 KECCAK256 SWAP1 JUMPDEST DUP2 SLOAD DUP2 MSTORE SWAP1 PUSH1 0x1 ADD SWAP1 PUSH1 0x20 ADD DUP1 DUP4 GT PUSH2 0xA6C JUMPI DUP3 SWAP1 SUB PUSH1 0x1F AND DUP3 ADD SWAP2 JUMPDEST POP POP POP POP POP PUSH1 0x40 MLOAD DUP1 PUSH1 0x20 ADD PUSH1 0x40 MSTORE DUP1 PUSH1 0x0 DUP2 MSTORE POP PUSH2 0x3CFB JUMP JUMPDEST ISZERO PUSH2 0xAE3 JUMPI PUSH1 0x40 MLOAD PUSH32 0x8C379A000000000000000000000000000000000000000000000000000000000 DUP2 MSTORE PUSH1 0x4 ADD PUSH2 0xADA SWAP1 PUSH2 0x4B17 JUMP JUMPDEST PUSH1 0x40 MLOAD DUP1 SWAP2 SUB SWAP1 REVERT JUMPDEST PUSH1 0x60 DUP1 PUSH1 0x0 PUSH1 0x40 MLOAD DUP1 PUSH1 0xC0 ADD PUSH1 0x40 MSTORE DUP1 CALLER PUSH20 0xFFFFFFFFFFFFFFFFFFFFFFFFFFFFFFFFFFFFFFFF AND DUP2 MSTORE PUSH1 0x20 ADD DUP9 PUSH20 0xFFFFFFFFFFFFFFFFFFFFFFFFFFFFFFFFFFFFFFFF AND DUP2 MSTORE PUSH1 0x20 ADD DUP8 DUP2 MSTORE PUSH1 0x20 ADD DUP5 DUP2 MSTORE PUSH1 0x20 ADD DUP4 DUP2 MSTORE PUSH1 0x20 ADD DUP6 DUP2 MSTORE POP SWAP1 POP PUSH1 0xE PUSH1 0x0 DUP9 PUSH20 0xFFFFFFFFFFFFFFFFFFFFFFFFFFFFFFFFFFFFFFFF AND PUSH20 0xFFFFFFFFFFFFFFFFFFFFFFFFFFFFFFFFFFFFFFFF AND DUP2 MSTORE PUSH1 0x20 ADD SWAP1 DUP2 MSTORE PUSH1 0x20 ADD PUSH1 0x0 KECCAK256 DUP6 SWAP1 DUP1 PUSH1 0x1 DUP2 SLOAD ADD DUP1 DUP3 SSTORE DUP1 SWAP2 POP POP PUSH1 0x1 SWAP1 SUB SWAP1 PUSH1 0x0 MSTORE PUSH1 0x20 PUSH1 0x0 KECCAK256 ADD PUSH1 0x0 SWAP1 SWAP2 SWAP1 SWAP2 SWAP1 SWAP2 POP SWAP1 DUP1 MLOAD SWAP1 PUSH1 0x20 ADD SWAP1 PUSH2 0xBBB SWAP3 SWAP2 SWAP1 PUSH2 0x3D54 JUMP JUMPDEST POP PUSH1 0x2 PUSH1 0x0 CALLER PUSH20 0xFFFFFFFFFFFFFFFFFFFFFFFFFFFFFFFFFFFFFFFF AND PUSH20 0xFFFFFFFFFFFFFFFFFFFFFFFFFFFFFFFFFFFFFFFF AND DUP2 MSTORE PUSH1 0x20 ADD SWAP1 DUP2 MSTORE PUSH1 0x20 ADD PUSH1 0x0 KECCAK256 PUSH1 0x3 ADD DUP6 SWAP1 DUP1 PUSH1 0x1 DUP2 SLOAD ADD DUP1 DUP3 SSTORE DUP1 SWAP2 POP POP PUSH1 0x1 SWAP1 SUB SWAP1 PUSH1 0x0 MSTORE PUSH1 0x20 PUSH1 0x0 KECCAK256 ADD PUSH1 0x0 SWAP1 SWAP2 SWAP1 SWAP2 SWAP1 SWAP2 POP SWAP1 DUP1 MLOAD SWAP1 PUSH1 0x20 ADD SWAP1 PUSH2 0xC37 SWAP3 SWAP2 SWAP1 PUSH2 0x3D54 JUMP JUMPDEST POP DUP1 PUSH1 0xF DUP7 PUSH1 0x40 MLOAD PUSH2 0xC49 SWAP2 SWAP1 PUSH2 0x4872 JUMP JUMPDEST SWAP1 DUP2 MSTORE PUSH1 0x20 ADD PUSH1 0x40 MLOAD DUP1 SWAP2 SUB SWAP1 KECCAK256 PUSH1 0x0 DUP3 ADD MLOAD DUP2 PUSH1 0x0 ADD PUSH1 0x0 PUSH2 0x100 EXP DUP2 SLOAD DUP2 PUSH20 0xFFFFFFFFFFFFFFFFFFFFFFFFFFFFFFFFFFFFFFFF MUL NOT AND SWAP1 DUP4 PUSH20 0xFFFFFFFFFFFFFFFFFFFFFFFFFFFFFFFFFFFFFFFF AND MUL OR SWAP1 SSTORE POP PUSH1 0x20 DUP3 ADD MLOAD DUP2 PUSH1 0x1 ADD PUSH1 0x0 PUSH2 0x100 EXP DUP2 SLOAD DUP2 PUSH20 0xFFFFFFFFFFFFFFFFFFFFFFFFFFFFFFFFFFFFFFFF MUL NOT AND SWAP1 DUP4 PUSH20 0xFFFFFFFFFFFFFFFFFFFFFFFFFFFFFFFFFFFFFFFF AND MUL OR SWAP1 SSTORE POP PUSH1 0x40 DUP3 ADD MLOAD DUP2 PUSH1 0x2 ADD SWAP1 DUP1 MLOAD SWAP1 PUSH1 0x20 ADD SWAP1 PUSH2 0xD01 SWAP3 SWAP2 SWAP1 PUSH2 0x3D54 JUMP JUMPDEST POP PUSH1 0x60 DUP3 ADD MLOAD DUP2 PUSH1 0x3 ADD SWAP1 DUP1 MLOAD SWAP1 PUSH1 0x20 ADD SWAP1 PUSH2 0xD1E SWAP3 SWAP2 SWAP1 PUSH2 0x3DDA JUMP JUMPDEST POP PUSH1 0x80 DUP3 ADD MLOAD DUP2 PUSH1 0x4 ADD SWAP1 DUP1 MLOAD SWAP1 PUSH1 0x20 ADD SWAP1 PUSH2 0xD3B SWAP3 SWAP2 SWAP1 PUSH2 0x3DDA JUMP JUMPDEST POP PUSH1 0xA0 DUP3 ADD MLOAD DUP2 PUSH1 0x5 ADD SSTORE SWAP1 POP POP POP POP POP POP POP POP POP JUMP JUMPDEST PUSH1 0x0 DUP1 PUSH1 0x60 PUSH1 0x0 DUP1 PUSH1 0x0 DUP1 PUSH1 0xF DUP9 PUSH1 0x40 MLOAD PUSH2 0xD6D SWAP2 SWAP1 PUSH2 0x4872 JUMP JUMPDEST SWAP1 DUP2 MSTORE PUSH1 0x20 ADD PUSH1 0x40 MLOAD DUP1 SWAP2 SUB SWAP1 KECCAK256 PUSH1 0x40 MLOAD DUP1 PUSH1 0xC0 ADD PUSH1 0x40 MSTORE SWAP1 DUP2 PUSH1 0x0 DUP3 ADD PUSH1 0x0 SWAP1 SLOAD SWAP1 PUSH2 0x100 EXP SWAP1 DIV PUSH20 0xFFFFFFFFFFFFFFFFFFFFFFFFFFFFFFFFFFFFFFFF AND PUSH20 0xFFFFFFFFFFFFFFFFFFFFFFFFFFFFFFFFFFFFFFFF AND PUSH20 0xFFFFFFFFFFFFFFFFFFFFFFFFFFFFFFFFFFFFFFFF AND DUP2 MSTORE PUSH1 0x20 ADD PUSH1 0x1 DUP3 ADD PUSH1 0x0 SWAP1 SLOAD SWAP1 PUSH2 0x100 EXP SWAP1 DIV PUSH20 0xFFFFFFFFFFFFFFFFFFFFFFFFFFFFFFFFFFFFFFFF AND PUSH20 0xFFFFFFFFFFFFFFFFFFFFFFFFFFFFFFFFFFFFFFFF AND PUSH20 0xFFFFFFFFFFFFFFFFFFFFFFFFFFFFFFFFFFFFFFFF AND DUP2 MSTORE PUSH1 0x20 ADD PUSH1 0x2 DUP3 ADD DUP1 SLOAD PUSH2 0xE42 SWAP1 PUSH2 0x4D76 JUMP JUMPDEST DUP1 PUSH1 0x1F ADD PUSH1 0x20 DUP1 SWAP2 DIV MUL PUSH1 0x20 ADD PUSH1 0x40 MLOAD SWAP1 DUP2 ADD PUSH1 0x40 MSTORE DUP1 SWAP3 SWAP2 SWAP1 DUP2 DUP2 MSTORE PUSH1 0x20 ADD DUP3 DUP1 SLOAD PUSH2 0xE6E SWAP1 PUSH2 0x4D76 JUMP JUMPDEST DUP1 ISZERO PUSH2 0xEBB JUMPI DUP1 PUSH1 0x1F LT PUSH2 0xE90 JUMPI PUSH2 0x100 DUP1 DUP4 SLOAD DIV MUL DUP4 MSTORE SWAP2 PUSH1 0x20 ADD SWAP2 PUSH2 0xEBB JUMP JUMPDEST DUP3 ADD SWAP2 SWAP1 PUSH1 0x0 MSTORE PUSH1 0x20 PUSH1 0x0 KECCAK256 SWAP1 JUMPDEST DUP2 SLOAD DUP2 MSTORE SWAP1 PUSH1 0x1 ADD SWAP1 PUSH1 0x20 ADD DUP1 DUP4 GT PUSH2 0xE9E JUMPI DUP3 SWAP1 SUB PUSH1 0x1F AND DUP3 ADD SWAP2 JUMPDEST POP POP POP POP POP DUP2 MSTORE PUSH1 0x20 ADD PUSH1 0x3 DUP3 ADD DUP1 SLOAD DUP1 PUSH1 0x20 MUL PUSH1 0x20 ADD PUSH1 0x40 MLOAD SWAP1 DUP2 ADD PUSH1 0x40 MSTORE DUP1 SWAP3 SWAP2 SWAP1 DUP2 DUP2 MSTORE PUSH1 0x20 ADD DUP3 DUP1 SLOAD DUP1 ISZERO PUSH2 0xF49 JUMPI PUSH1 0x20 MUL DUP3 ADD SWAP2 SWAP1 PUSH1 0x0 MSTORE PUSH1 0x20 PUSH1 0x0 KECCAK256 SWAP1 JUMPDEST DUP2 PUSH1 0x0 SWAP1 SLOAD SWAP1 PUSH2 0x100 EXP SWAP1 DIV PUSH20 0xFFFFFFFFFFFFFFFFFFFFFFFFFFFFFFFFFFFFFFFF AND PUSH20 0xFFFFFFFFFFFFFFFFFFFFFFFFFFFFFFFFFFFFFFFF AND DUP2 MSTORE PUSH1 0x20 ADD SWAP1 PUSH1 0x1 ADD SWAP1 DUP1 DUP4 GT PUSH2 0xEFF JUMPI JUMPDEST POP POP POP POP POP DUP2 MSTORE PUSH1 0x20 ADD PUSH1 0x4 DUP3 ADD DUP1 SLOAD DUP1 PUSH1 0x20 MUL PUSH1 0x20 ADD PUSH1 0x40 MLOAD SWAP1 DUP2 ADD PUSH1 0x40 MSTORE DUP1 SWAP3 SWAP2 SWAP1 DUP2 DUP2 MSTORE PUSH1 0x20 ADD DUP3 DUP1 SLOAD DUP1 ISZERO PUSH2 0xFD7 JUMPI PUSH1 0x20 MUL DUP3 ADD SWAP2 SWAP1 PUSH1 0x0 MSTORE PUSH1 0x20 PUSH1 0x0 KECCAK256 SWAP1 JUMPDEST DUP2 PUSH1 0x0 SWAP1 SLOAD SWAP1 PUSH2 0x100 EXP SWAP1 DIV PUSH20 0xFFFFFFFFFFFFFFFFFFFFFFFFFFFFFFFFFFFFFFFF AND PUSH20 0xFFFFFFFFFFFFFFFFFFFFFFFFFFFFFFFFFFFFFFFF AND DUP2 MSTORE PUSH1 0x20 ADD SWAP1 PUSH1 0x1 ADD SWAP1 DUP1 DUP4 GT PUSH2 0xF8D JUMPI JUMPDEST POP POP POP POP POP DUP2 MSTORE PUSH1 0x20 ADD PUSH1 0x5 DUP3 ADD SLOAD DUP2 MSTORE POP POP SWAP1 POP DUP1 PUSH1 0x0 ADD MLOAD SWAP7 POP DUP1 PUSH1 0x20 ADD MLOAD SWAP6 POP DUP1 PUSH1 0x40 ADD MLOAD SWAP5 POP DUP1 PUSH1 0x60 ADD MLOAD MLOAD SWAP4 POP DUP1 PUSH1 0x80 ADD MLOAD MLOAD SWAP3 POP DUP1 PUSH1 0xA0 ADD MLOAD SWAP2 POP POP SWAP2 SWAP4 SWAP6 POP SWAP2 SWAP4 SWAP6 JUMP JUMPDEST PUSH1 0x0 PUSH1 0x60 DUP3 PUSH1 0x0 PUSH20 0xFFFFFFFFFFFFFFFFFFFFFFFFFFFFFFFFFFFFFFFF AND PUSH1 0x1 DUP3 PUSH1 0x40 MLOAD PUSH2 0x104F SWAP2 SWAP1 PUSH2 0x4872 JUMP JUMPDEST SWAP1 DUP2 MSTORE PUSH1 0x20 ADD PUSH1 0x40 MLOAD DUP1 SWAP2 SUB SWAP1 KECCAK256 PUSH1 0x0 SWAP1 SLOAD SWAP1 PUSH2 0x100 EXP SWAP1 DIV PUSH20 0xFFFFFFFFFFFFFFFFFFFFFFFFFFFFFFFFFFFFFFFF AND PUSH20 0xFFFFFFFFFFFFFFFFFFFFFFFFFFFFFFFFFFFFFFFF AND EQ ISZERO PUSH2 0x10D5 JUMPI PUSH1 0x40 MLOAD PUSH32 0x8C379A000000000000000000000000000000000000000000000000000000000 DUP2 MSTORE PUSH1 0x4 ADD PUSH2 0x10CC SWAP1 PUSH2 0x4B77 JUMP JUMPDEST PUSH1 0x40 MLOAD DUP1 SWAP2 SUB SWAP1 REVERT JUMPDEST PUSH1 0x0 PUSH1 0x1 DUP6 PUSH1 0x40 MLOAD PUSH2 0x10E7 SWAP2 SWAP1 PUSH2 0x4872 JUMP JUMPDEST SWAP1 DUP2 MSTORE PUSH1 0x20 ADD PUSH1 0x40 MLOAD DUP1 SWAP2 SUB SWAP1 KECCAK256 PUSH1 0x0 SWAP1 SLOAD SWAP1 PUSH2 0x100 EXP SWAP1 DIV PUSH20 0xFFFFFFFFFFFFFFFFFFFFFFFFFFFFFFFFFFFFFFFF AND SWAP1 POP PUSH1 0x0 PUSH1 0x2 PUSH1 0x0 DUP4 PUSH20 0xFFFFFFFFFFFFFFFFFFFFFFFFFFFFFFFFFFFFFFFF AND PUSH20 0xFFFFFFFFFFFFFFFFFFFFFFFFFFFFFFFFFFFFFFFF AND DUP2 MSTORE PUSH1 0x20 ADD SWAP1 DUP2 MSTORE PUSH1 0x20 ADD PUSH1 0x0 KECCAK256 PUSH1 0x40 MLOAD DUP1 PUSH1 0x80 ADD PUSH1 0x40 MSTORE SWAP1 DUP2 PUSH1 0x0 DUP3 ADD SLOAD DUP2 MSTORE PUSH1 0x20 ADD PUSH1 0x1 DUP3 ADD DUP1 SLOAD PUSH2 0x117E SWAP1 PUSH2 0x4D76 JUMP JUMPDEST DUP1 PUSH1 0x1F ADD PUSH1 0x20 DUP1 SWAP2 DIV MUL PUSH1 0x20 ADD PUSH1 0x40 MLOAD SWAP1 DUP2 ADD PUSH1 0x40 MSTORE DUP1 SWAP3 SWAP2 SWAP1 DUP2 DUP2 MSTORE PUSH1 0x20 ADD DUP3 DUP1 SLOAD PUSH2 0x11AA SWAP1 PUSH2 0x4D76 JUMP JUMPDEST DUP1 ISZERO PUSH2 0x11F7 JUMPI DUP1 PUSH1 0x1F LT PUSH2 0x11CC JUMPI PUSH2 0x100 DUP1 DUP4 SLOAD DIV MUL DUP4 MSTORE SWAP2 PUSH1 0x20 ADD SWAP2 PUSH2 0x11F7 JUMP JUMPDEST DUP3 ADD SWAP2 SWAP1 PUSH1 0x0 MSTORE PUSH1 0x20 PUSH1 0x0 KECCAK256 SWAP1 JUMPDEST DUP2 SLOAD DUP2 MSTORE SWAP1 PUSH1 0x1 ADD SWAP1 PUSH1 0x20 ADD DUP1 DUP4 GT PUSH2 0x11DA JUMPI DUP3 SWAP1 SUB PUSH1 0x1F AND DUP3 ADD SWAP2 JUMPDEST POP POP POP POP POP DUP2 MSTORE PUSH1 0x20 ADD PUSH1 0x2 DUP3 ADD DUP1 SLOAD PUSH2 0x1210 SWAP1 PUSH2 0x4D76 JUMP JUMPDEST DUP1 PUSH1 0x1F ADD PUSH1 0x20 DUP1 SWAP2 DIV MUL PUSH1 0x20 ADD PUSH1 0x40 MLOAD SWAP1 DUP2 ADD PUSH1 0x40 MSTORE DUP1 SWAP3 SWAP2 SWAP1 DUP2 DUP2 MSTORE PUSH1 0x20 ADD DUP3 DUP1 SLOAD PUSH2 0x123C SWAP1 PUSH2 0x4D76 JUMP JUMPDEST DUP1 ISZERO PUSH2 0x1289 JUMPI DUP1 PUSH1 0x1F LT PUSH2 0x125E JUMPI PUSH2 0x100 DUP1 DUP4 SLOAD DIV MUL DUP4 MSTORE SWAP2 PUSH1 0x20 ADD SWAP2 PUSH2 0x1289 JUMP JUMPDEST DUP3 ADD SWAP2 SWAP1 PUSH1 0x0 MSTORE PUSH1 0x20 PUSH1 0x0 KECCAK256 SWAP1 JUMPDEST DUP2 SLOAD DUP2 MSTORE SWAP1 PUSH1 0x1 ADD SWAP1 PUSH1 0x20 ADD DUP1 DUP4 GT PUSH2 0x126C JUMPI DUP3 SWAP1 SUB PUSH1 0x1F AND DUP3 ADD SWAP2 JUMPDEST POP POP POP POP POP DUP2 MSTORE PUSH1 0x20 ADD PUSH1 0x3 DUP3 ADD DUP1 SLOAD DUP1 PUSH1 0x20 MUL PUSH1 0x20 ADD PUSH1 0x40 MLOAD SWAP1 DUP2 ADD PUSH1 0x40 MSTORE DUP1 SWAP3 SWAP2 SWAP1 DUP2 DUP2 MSTORE PUSH1 0x20 ADD PUSH1 0x0 SWAP1 JUMPDEST DUP3 DUP3 LT ISZERO PUSH2 0x1363 JUMPI DUP4 DUP3 SWAP1 PUSH1 0x0 MSTORE PUSH1 0x20 PUSH1 0x0 KECCAK256 ADD DUP1 SLOAD PUSH2 0x12D6 SWAP1 PUSH2 0x4D76 JUMP JUMPDEST DUP1 PUSH1 0x1F ADD PUSH1 0x20 DUP1 SWAP2 DIV MUL PUSH1 0x20 ADD PUSH1 0x40 MLOAD SWAP1 DUP2 ADD PUSH1 0x40 MSTORE DUP1 SWAP3 SWAP2 SWAP1 DUP2 DUP2 MSTORE PUSH1 0x20 ADD DUP3 DUP1 SLOAD PUSH2 0x1302 SWAP1 PUSH2 0x4D76 JUMP JUMPDEST DUP1 ISZERO PUSH2 0x134F JUMPI DUP1 PUSH1 0x1F LT PUSH2 0x1324 JUMPI PUSH2 0x100 DUP1 DUP4 SLOAD DIV MUL DUP4 MSTORE SWAP2 PUSH1 0x20 ADD SWAP2 PUSH2 0x134F JUMP JUMPDEST DUP3 ADD SWAP2 SWAP1 PUSH1 0x0 MSTORE PUSH1 0x20 PUSH1 0x0 KECCAK256 SWAP1 JUMPDEST DUP2 SLOAD DUP2 MSTORE SWAP1 PUSH1 0x1 ADD SWAP1 PUSH1 0x20 ADD DUP1 DUP4 GT PUSH2 0x1332 JUMPI DUP3 SWAP1 SUB PUSH1 0x1F AND DUP3 ADD SWAP2 JUMPDEST POP POP POP POP POP DUP2 MSTORE PUSH1 0x20 ADD SWAP1 PUSH1 0x1 ADD SWAP1 PUSH2 0x12B7 JUMP JUMPDEST POP POP POP POP DUP2 MSTORE POP POP SWAP1 POP DUP2 SWAP5 POP PUSH1 0x0 DUP1 DUP3 PUSH1 0x0 ADD MLOAD DUP2 MSTORE PUSH1 0x20 ADD SWAP1 DUP2 MSTORE PUSH1 0x20 ADD PUSH1 0x0 KECCAK256 DUP1 SLOAD PUSH2 0x1391 SWAP1 PUSH2 0x4D76 JUMP JUMPDEST DUP1 PUSH1 0x1F ADD PUSH1 0x20 DUP1 SWAP2 DIV MUL PUSH1 0x20 ADD PUSH1 0x40 MLOAD SWAP1 DUP2 ADD PUSH1 0x40 MSTORE DUP1 SWAP3 SWAP2 SWAP1 DUP2 DUP2 MSTORE PUSH1 0x20 ADD DUP3 DUP1 SLOAD PUSH2 0x13BD SWAP1 PUSH2 0x4D76 JUMP JUMPDEST DUP1 ISZERO PUSH2 0x140A JUMPI DUP1 PUSH1 0x1F LT PUSH2 0x13DF JUMPI PUSH2 0x100 DUP1 DUP4 SLOAD DIV MUL DUP4 MSTORE SWAP2 PUSH1 0x20 ADD SWAP2 PUSH2 0x140A JUMP JUMPDEST DUP3 ADD SWAP2 SWAP1 PUSH1 0x0 MSTORE PUSH1 0x20 PUSH1 0x0 KECCAK256 SWAP1 JUMPDEST DUP2 SLOAD DUP2 MSTORE SWAP1 PUSH1 0x1 ADD SWAP1 PUSH1 0x20 ADD DUP1 DUP4 GT PUSH2 0x13ED JUMPI DUP3 SWAP1 SUB PUSH1 0x1F AND DUP3 ADD SWAP2 JUMPDEST POP POP POP POP POP SWAP4 POP POP POP POP SWAP2 POP SWAP2 JUMP JUMPDEST PUSH1 0x60 DUP1 PUSH1 0x60 DUP1 PUSH1 0x60 PUSH1 0x1 PUSH1 0x2 PUSH1 0x0 CALLER PUSH20 0xFFFFFFFFFFFFFFFFFFFFFFFFFFFFFFFFFFFFFFFF AND PUSH20 0xFFFFFFFFFFFFFFFFFFFFFFFFFFFFFFFFFFFFFFFF AND DUP2 MSTORE PUSH1 0x20 ADD SWAP1 DUP2 MSTORE PUSH1 0x20 ADD PUSH1 0x0 KECCAK256 PUSH1 0x0 ADD SLOAD DUP2 PUSH1 0x5 DUP2 GT ISZERO PUSH2 0x1479 JUMPI PUSH2 0x1478 PUSH2 0x4DD9 JUMP JUMPDEST JUMPDEST EQ PUSH2 0x14B9 JUMPI PUSH1 0x40 MLOAD PUSH32 0x8C379A000000000000000000000000000000000000000000000000000000000 DUP2 MSTORE PUSH1 0x4 ADD PUSH2 0x14B0 SWAP1 PUSH2 0x4AF7 JUMP JUMPDEST PUSH1 0x40 MLOAD DUP1 SWAP2 SUB SWAP1 REVERT JUMPDEST PUSH1 0x0 PUSH1 0x2 PUSH1 0x0 CALLER PUSH20 0xFFFFFFFFFFFFFFFFFFFFFFFFFFFFFFFFFFFFFFFF AND PUSH20 0xFFFFFFFFFFFFFFFFFFFFFFFFFFFFFFFFFFFFFFFF AND DUP2 MSTORE PUSH1 0x20 ADD SWAP1 DUP2 MSTORE PUSH1 0x20 ADD PUSH1 0x0 KECCAK256 PUSH1 0x40 MLOAD DUP1 PUSH1 0x80 ADD PUSH1 0x40 MSTORE SWAP1 DUP2 PUSH1 0x0 DUP3 ADD SLOAD DUP2 MSTORE PUSH1 0x20 ADD PUSH1 0x1 DUP3 ADD DUP1 SLOAD PUSH2 0x151F SWAP1 PUSH2 0x4D76 JUMP JUMPDEST DUP1 PUSH1 0x1F ADD PUSH1 0x20 DUP1 SWAP2 DIV MUL PUSH1 0x20 ADD PUSH1 0x40 MLOAD SWAP1 DUP2 ADD PUSH1 0x40 MSTORE DUP1 SWAP3 SWAP2 SWAP1 DUP2 DUP2 MSTORE PUSH1 0x20 ADD DUP3 DUP1 SLOAD PUSH2 0x154B SWAP1 PUSH2 0x4D76 JUMP JUMPDEST DUP1 ISZERO PUSH2 0x1598 JUMPI DUP1 PUSH1 0x1F LT PUSH2 0x156D JUMPI PUSH2 0x100 DUP1 DUP4 SLOAD DIV MUL DUP4 MSTORE SWAP2 PUSH1 0x20 ADD SWAP2 PUSH2 0x1598 JUMP JUMPDEST DUP3 ADD SWAP2 SWAP1 PUSH1 0x0 MSTORE PUSH1 0x20 PUSH1 0x0 KECCAK256 SWAP1 JUMPDEST DUP2 SLOAD DUP2 MSTORE SWAP1 PUSH1 0x1 ADD SWAP1 PUSH1 0x20 ADD DUP1 DUP4 GT PUSH2 0x157B JUMPI DUP3 SWAP1 SUB PUSH1 0x1F AND DUP3 ADD SWAP2 JUMPDEST POP POP POP POP POP DUP2 MSTORE PUSH1 0x20 ADD PUSH1 0x2 DUP3 ADD DUP1 SLOAD PUSH2 0x15B1 SWAP1 PUSH2 0x4D76 JUMP JUMPDEST DUP1 PUSH1 0x1F ADD PUSH1 0x20 DUP1 SWAP2 DIV MUL PUSH1 0x20 ADD PUSH1 0x40 MLOAD SWAP1 DUP2 ADD PUSH1 0x40 MSTORE DUP1 SWAP3 SWAP2 SWAP1 DUP2 DUP2 MSTORE PUSH1 0x20 ADD DUP3 DUP1 SLOAD PUSH2 0x15DD SWAP1 PUSH2 0x4D76 JUMP JUMPDEST DUP1 ISZERO PUSH2 0x162A JUMPI DUP1 PUSH1 0x1F LT PUSH2 0x15FF JUMPI PUSH2 0x100 DUP1 DUP4 SLOAD DIV MUL DUP4 MSTORE SWAP2 PUSH1 0x20 ADD SWAP2 PUSH2 0x162A JUMP JUMPDEST DUP3 ADD SWAP2 SWAP1 PUSH1 0x0 MSTORE PUSH1 0x20 PUSH1 0x0 KECCAK256 SWAP1 JUMPDEST DUP2 SLOAD DUP2 MSTORE SWAP1 PUSH1 0x1 ADD SWAP1 PUSH1 0x20 ADD DUP1 DUP4 GT PUSH2 0x160D JUMPI DUP3 SWAP1 SUB PUSH1 0x1F AND DUP3 ADD SWAP2 JUMPDEST POP POP POP POP POP DUP2 MSTORE PUSH1 0x20 ADD PUSH1 0x3 DUP3 ADD DUP1 SLOAD DUP1 PUSH1 0x20 MUL PUSH1 0x20 ADD PUSH1 0x40 MLOAD SWAP1 DUP2 ADD PUSH1 0x40 MSTORE DUP1 SWAP3 SWAP2 SWAP1 DUP2 DUP2 MSTORE PUSH1 0x20 ADD PUSH1 0x0 SWAP1 JUMPDEST DUP3 DUP3 LT ISZERO PUSH2 0x1704 JUMPI DUP4 DUP3 SWAP1 PUSH1 0x0 MSTORE PUSH1 0x20 PUSH1 0x0 KECCAK256 ADD DUP1 SLOAD PUSH2 0x1677 SWAP1 PUSH2 0x4D76 JUMP JUMPDEST DUP1 PUSH1 0x1F ADD PUSH1 0x20 DUP1 SWAP2 DIV MUL PUSH1 0x20 ADD PUSH1 0x40 MLOAD SWAP1 DUP2 ADD PUSH1 0x40 MSTORE DUP1 SWAP3 SWAP2 SWAP1 DUP2 DUP2 MSTORE PUSH1 0x20 ADD DUP3 DUP1 SLOAD PUSH2 0x16A3 SWAP1 PUSH2 0x4D76 JUMP JUMPDEST DUP1 ISZERO PUSH2 0x16F0 JUMPI DUP1 PUSH1 0x1F LT PUSH2 0x16C5 JUMPI PUSH2 0x100 DUP1 DUP4 SLOAD DIV MUL DUP4 MSTORE SWAP2 PUSH1 0x20 ADD SWAP2 PUSH2 0x16F0 JUMP JUMPDEST DUP3 ADD SWAP2 SWAP1 PUSH1 0x0 MSTORE PUSH1 0x20 PUSH1 0x0 KECCAK256 SWAP1 JUMPDEST DUP2 SLOAD DUP2 MSTORE SWAP1 PUSH1 0x1 ADD SWAP1 PUSH1 0x20 ADD DUP1 DUP4 GT PUSH2 0x16D3 JUMPI DUP3 SWAP1 SUB PUSH1 0x1F AND DUP3 ADD SWAP2 JUMPDEST POP POP POP POP POP DUP2 MSTORE PUSH1 0x20 ADD SWAP1 PUSH1 0x1 ADD SWAP1 PUSH2 0x1658 JUMP JUMPDEST POP POP POP POP DUP2 MSTORE POP POP SWAP1 POP PUSH1 0x0 PUSH1 0xC PUSH1 0x0 CALLER PUSH20 0xFFFFFFFFFFFFFFFFFFFFFFFFFFFFFFFFFFFFFFFF AND PUSH20 0xFFFFFFFFFFFFFFFFFFFFFFFFFFFFFFFFFFFFFFFF AND DUP2 MSTORE PUSH1 0x20 ADD SWAP1 DUP2 MSTORE PUSH1 0x20 ADD PUSH1 0x0 KECCAK256 PUSH1 0x0 SWAP1 SLOAD SWAP1 PUSH2 0x100 EXP SWAP1 DIV PUSH20 0xFFFFFFFFFFFFFFFFFFFFFFFFFFFFFFFFFFFFFFFF AND SWAP1 POP PUSH1 0x0 PUSH1 0xB PUSH1 0x0 DUP4 PUSH20 0xFFFFFFFFFFFFFFFFFFFFFFFFFFFFFFFFFFFFFFFF AND PUSH20 0xFFFFFFFFFFFFFFFFFFFFFFFFFFFFFFFFFFFFFFFF AND DUP2 MSTORE PUSH1 0x20 ADD SWAP1 DUP2 MSTORE PUSH1 0x20 ADD PUSH1 0x0 KECCAK256 PUSH1 0x40 MLOAD DUP1 PUSH1 0x60 ADD PUSH1 0x40 MSTORE SWAP1 DUP2 PUSH1 0x0 DUP3 ADD DUP1 SLOAD PUSH2 0x17CE SWAP1 PUSH2 0x4D76 JUMP JUMPDEST DUP1 PUSH1 0x1F ADD PUSH1 0x20 DUP1 SWAP2 DIV MUL PUSH1 0x20 ADD PUSH1 0x40 MLOAD SWAP1 DUP2 ADD PUSH1 0x40 MSTORE DUP1 SWAP3 SWAP2 SWAP1 DUP2 DUP2 MSTORE PUSH1 0x20 ADD DUP3 DUP1 SLOAD PUSH2 0x17FA SWAP1 PUSH2 0x4D76 JUMP JUMPDEST DUP1 ISZERO PUSH2 0x1847 JUMPI DUP1 PUSH1 0x1F LT PUSH2 0x181C JUMPI PUSH2 0x100 DUP1 DUP4 SLOAD DIV MUL DUP4 MSTORE SWAP2 PUSH1 0x20 ADD SWAP2 PUSH2 0x1847 JUMP JUMPDEST DUP3 ADD SWAP2 SWAP1 PUSH1 0x0 MSTORE PUSH1 0x20 PUSH1 0x0 KECCAK256 SWAP1 JUMPDEST DUP2 SLOAD DUP2 MSTORE SWAP1 PUSH1 0x1 ADD SWAP1 PUSH1 0x20 ADD DUP1 DUP4 GT PUSH2 0x182A JUMPI DUP3 SWAP1 SUB PUSH1 0x1F AND DUP3 ADD SWAP2 JUMPDEST POP POP POP POP POP DUP2 MSTORE PUSH1 0x20 ADD PUSH1 0x1 DUP3 ADD DUP1 SLOAD PUSH2 0x1860 SWAP1 PUSH2 0x4D76 JUMP JUMPDEST DUP1 PUSH1 0x1F ADD PUSH1 0x20 DUP1 SWAP2 DIV MUL PUSH1 0x20 ADD PUSH1 0x40 MLOAD SWAP1 DUP2 ADD PUSH1 0x40 MSTORE DUP1 SWAP3 SWAP2 SWAP1 DUP2 DUP2 MSTORE PUSH1 0x20 ADD DUP3 DUP1 SLOAD PUSH2 0x188C SWAP1 PUSH2 0x4D76 JUMP JUMPDEST DUP1 ISZERO PUSH2 0x18D9 JUMPI DUP1 PUSH1 0x1F LT PUSH2 0x18AE JUMPI PUSH2 0x100 DUP1 DUP4 SLOAD DIV MUL DUP4 MSTORE SWAP2 PUSH1 0x20 ADD SWAP2 PUSH2 0x18D9 JUMP JUMPDEST DUP3 ADD SWAP2 SWAP1 PUSH1 0x0 MSTORE PUSH1 0x20 PUSH1 0x0 KECCAK256 SWAP1 JUMPDEST DUP2 SLOAD DUP2 MSTORE SWAP1 PUSH1 0x1 ADD SWAP1 PUSH1 0x20 ADD DUP1 DUP4 GT PUSH2 0x18BC JUMPI DUP3 SWAP1 SUB PUSH1 0x1F AND DUP3 ADD SWAP2 JUMPDEST POP POP POP POP POP DUP2 MSTORE PUSH1 0x20 ADD PUSH1 0x2 DUP3 ADD SLOAD DUP2 MSTORE POP POP SWAP1 POP DUP3 PUSH1 0x20 ADD MLOAD SWAP9 POP DUP3 PUSH1 0x40 ADD MLOAD SWAP8 POP DUP1 PUSH1 0x20 ADD MLOAD SWAP7 POP DUP1 PUSH1 0x0 ADD MLOAD SWAP6 POP DUP3 PUSH1 0x60 ADD MLOAD SWAP5 POP POP POP POP POP SWAP1 SWAP2 SWAP3 SWAP4 SWAP5 JUMP JUMPDEST PUSH1 0x3 PUSH1 0x2 PUSH1 0x0 CALLER PUSH20 0xFFFFFFFFFFFFFFFFFFFFFFFFFFFFFFFFFFFFFFFF AND PUSH20 0xFFFFFFFFFFFFFFFFFFFFFFFFFFFFFFFFFFFFFFFF AND DUP2 MSTORE PUSH1 0x20 ADD SWAP1 DUP2 MSTORE PUSH1 0x20 ADD PUSH1 0x0 KECCAK256 PUSH1 0x0 ADD SLOAD DUP2 PUSH1 0x5 DUP2 GT ISZERO PUSH2 0x1974 JUMPI PUSH2 0x1973 PUSH2 0x4DD9 JUMP JUMPDEST JUMPDEST EQ PUSH2 0x19B4 JUMPI PUSH1 0x40 MLOAD PUSH32 0x8C379A000000000000000000000000000000000000000000000000000000000 DUP2 MSTORE PUSH1 0x4 ADD PUSH2 0x19AB SWAP1 PUSH2 0x4AF7 JUMP JUMPDEST PUSH1 0x40 MLOAD DUP1 SWAP2 SUB SWAP1 REVERT JUMPDEST PUSH1 0x0 PUSH1 0x40 MLOAD DUP1 PUSH1 0x60 ADD PUSH1 0x40 MSTORE DUP1 DUP7 DUP2 MSTORE PUSH1 0x20 ADD DUP6 DUP2 MSTORE PUSH1 0x20 ADD PUSH1 0x0 DUP2 MSTORE POP SWAP1 POP DUP1 PUSH1 0xB PUSH1 0x0 DUP9 PUSH20 0xFFFFFFFFFFFFFFFFFFFFFFFFFFFFFFFFFFFFFFFF AND PUSH20 0xFFFFFFFFFFFFFFFFFFFFFFFFFFFFFFFFFFFFFFFF AND DUP2 MSTORE PUSH1 0x20 ADD SWAP1 DUP2 MSTORE PUSH1 0x20 ADD PUSH1 0x0 KECCAK256 PUSH1 0x0 DUP3 ADD MLOAD DUP2 PUSH1 0x0 ADD SWAP1 DUP1 MLOAD SWAP1 PUSH1 0x20 ADD SWAP1 PUSH2 0x1A30 SWAP3 SWAP2 SWAP1 PUSH2 0x3D54 JUMP JUMPDEST POP PUSH1 0x20 DUP3 ADD MLOAD DUP2 PUSH1 0x1 ADD SWAP1 DUP1 MLOAD SWAP1 PUSH1 0x20 ADD SWAP1 PUSH2 0x1A4D SWAP3 SWAP2 SWAP1 PUSH2 0x3D54 JUMP JUMPDEST POP PUSH1 0x40 DUP3 ADD MLOAD DUP2 PUSH1 0x2 ADD SSTORE SWAP1 POP POP PUSH1 0x0 PUSH1 0x2 PUSH1 0x5 DUP2 GT ISZERO PUSH2 0x1A71 JUMPI PUSH2 0x1A70 PUSH2 0x4DD9 JUMP JUMPDEST JUMPDEST SWAP1 POP PUSH2 0x1A8E PUSH1 0x40 MLOAD DUP1 PUSH1 0x20 ADD PUSH1 0x40 MSTORE DUP1 PUSH1 0x0 DUP2 MSTORE POP DUP6 DUP4 DUP11 PUSH2 0x39F7 JUMP JUMPDEST POP POP POP POP POP POP POP JUMP JUMPDEST PUSH2 0x1B7A PUSH1 0x2 PUSH1 0x0 CALLER PUSH20 0xFFFFFFFFFFFFFFFFFFFFFFFFFFFFFFFFFFFFFFFF AND PUSH20 0xFFFFFFFFFFFFFFFFFFFFFFFFFFFFFFFFFFFFFFFF AND DUP2 MSTORE PUSH1 0x20 ADD SWAP1 DUP2 MSTORE PUSH1 0x20 ADD PUSH1 0x0 KECCAK256 PUSH1 0x1 ADD DUP1 SLOAD PUSH2 0x1AE7 SWAP1 PUSH2 0x4D76 JUMP JUMPDEST DUP1 PUSH1 0x1F ADD PUSH1 0x20 DUP1 SWAP2 DIV MUL PUSH1 0x20 ADD PUSH1 0x40 MLOAD SWAP1 DUP2 ADD PUSH1 0x40 MSTORE DUP1 SWAP3 SWAP2 SWAP1 DUP2 DUP2 MSTORE PUSH1 0x20 ADD DUP3 DUP1 SLOAD PUSH2 0x1B13 SWAP1 PUSH2 0x4D76 JUMP JUMPDEST DUP1 ISZERO PUSH2 0x1B60 JUMPI DUP1 PUSH1 0x1F LT PUSH2 0x1B35 JUMPI PUSH2 0x100 DUP1 DUP4 SLOAD DIV MUL DUP4 MSTORE SWAP2 PUSH1 0x20 ADD SWAP2 PUSH2 0x1B60 JUMP JUMPDEST DUP3 ADD SWAP2 SWAP1 PUSH1 0x0 MSTORE PUSH1 0x20 PUSH1 0x0 KECCAK256 SWAP1 JUMPDEST DUP2 SLOAD DUP2 MSTORE SWAP1 PUSH1 0x1 ADD SWAP1 PUSH1 0x20 ADD DUP1 DUP4 GT PUSH2 0x1B43 JUMPI DUP3 SWAP1 SUB PUSH1 0x1F AND DUP3 ADD SWAP2 JUMPDEST POP POP POP POP POP PUSH1 0x40 MLOAD DUP1 PUSH1 0x20 ADD PUSH1 0x40 MSTORE DUP1 PUSH1 0x0 DUP2 MSTORE POP PUSH2 0x3CFB JUMP JUMPDEST ISZERO PUSH2 0x1BBA JUMPI PUSH1 0x40 MLOAD PUSH32 0x8C379A000000000000000000000000000000000000000000000000000000000 DUP2 MSTORE PUSH1 0x4 ADD PUSH2 0x1BB1 SWAP1 PUSH2 0x4B17 JUMP JUMPDEST PUSH1 0x40 MLOAD DUP1 SWAP2 SUB SWAP1 REVERT JUMPDEST PUSH1 0x0 ISZERO ISZERO PUSH1 0x11 DUP3 PUSH1 0x40 MLOAD PUSH2 0x1BCE SWAP2 SWAP1 PUSH2 0x4872 JUMP JUMPDEST SWAP1 DUP2 MSTORE PUSH1 0x20 ADD PUSH1 0x40 MLOAD DUP1 SWAP2 SUB SWAP1 KECCAK256 PUSH1 0x0 CALLER PUSH20 0xFFFFFFFFFFFFFFFFFFFFFFFFFFFFFFFFFFFFFFFF AND PUSH20 0xFFFFFFFFFFFFFFFFFFFFFFFFFFFFFFFFFFFFFFFF AND DUP2 MSTORE PUSH1 0x20 ADD SWAP1 DUP2 MSTORE PUSH1 0x20 ADD PUSH1 0x0 KECCAK256 PUSH1 0x0 SWAP1 SLOAD SWAP1 PUSH2 0x100 EXP SWAP1 DIV PUSH1 0xFF AND ISZERO ISZERO EQ PUSH2 0x1C69 JUMPI PUSH1 0x40 MLOAD PUSH32 0x8C379A000000000000000000000000000000000000000000000000000000000 DUP2 MSTORE PUSH1 0x4 ADD PUSH2 0x1C60 SWAP1 PUSH2 0x4A97 JUMP JUMPDEST PUSH1 0x40 MLOAD DUP1 SWAP2 SUB SWAP1 REVERT JUMPDEST PUSH1 0xF DUP2 PUSH1 0x40 MLOAD PUSH2 0x1C79 SWAP2 SWAP1 PUSH2 0x4872 JUMP JUMPDEST SWAP1 DUP2 MSTORE PUSH1 0x20 ADD PUSH1 0x40 MLOAD DUP1 SWAP2 SUB SWAP1 KECCAK256 PUSH1 0x3 ADD CALLER SWAP1 DUP1 PUSH1 0x1 DUP2 SLOAD ADD DUP1 DUP3 SSTORE DUP1 SWAP2 POP POP PUSH1 0x1 SWAP1 SUB SWAP1 PUSH1 0x0 MSTORE PUSH1 0x20 PUSH1 0x0 KECCAK256 ADD PUSH1 0x0 SWAP1 SWAP2 SWAP1 SWAP2 SWAP1 SWAP2 PUSH2 0x100 EXP DUP2 SLOAD DUP2 PUSH20 0xFFFFFFFFFFFFFFFFFFFFFFFFFFFFFFFFFFFFFFFF MUL NOT AND SWAP1 DUP4 PUSH20 0xFFFFFFFFFFFFFFFFFFFFFFFFFFFFFFFFFFFFFFFF AND MUL OR SWAP1 SSTORE POP PUSH1 0x1 PUSH1 0x11 DUP3 PUSH1 0x40 MLOAD PUSH2 0x1CFD SWAP2 SWAP1 PUSH2 0x4872 JUMP JUMPDEST SWAP1 DUP2 MSTORE PUSH1 0x20 ADD PUSH1 0x40 MLOAD DUP1 SWAP2 SUB SWAP1 KECCAK256 PUSH1 0x0 CALLER PUSH20 0xFFFFFFFFFFFFFFFFFFFFFFFFFFFFFFFFFFFFFFFF AND PUSH20 0xFFFFFFFFFFFFFFFFFFFFFFFFFFFFFFFFFFFFFFFF AND DUP2 MSTORE PUSH1 0x20 ADD SWAP1 DUP2 MSTORE PUSH1 0x20 ADD PUSH1 0x0 KECCAK256 PUSH1 0x0 PUSH2 0x100 EXP DUP2 SLOAD DUP2 PUSH1 0xFF MUL NOT AND SWAP1 DUP4 ISZERO ISZERO MUL OR SWAP1 SSTORE POP POP JUMP JUMPDEST PUSH1 0x5 PUSH1 0x0 SWAP1 SLOAD SWAP1 PUSH2 0x100 EXP SWAP1 DIV PUSH20 0xFFFFFFFFFFFFFFFFFFFFFFFFFFFFFFFFFFFFFFFF AND PUSH20 0xFFFFFFFFFFFFFFFFFFFFFFFFFFFFFFFFFFFFFFFF AND CALLER PUSH20 0xFFFFFFFFFFFFFFFFFFFFFFFFFFFFFFFFFFFFFFFF AND EQ PUSH2 0x1DF2 JUMPI PUSH1 0x40 MLOAD PUSH32 0x8C379A000000000000000000000000000000000000000000000000000000000 DUP2 MSTORE PUSH1 0x4 ADD PUSH2 0x1DE9 SWAP1 PUSH2 0x4B37 JUMP JUMPDEST PUSH1 0x40 MLOAD DUP1 SWAP2 SUB SWAP1 REVERT JUMPDEST PUSH1 0x0 PUSH1 0x4 PUSH1 0x5 DUP2 GT ISZERO PUSH2 0x1E08 JUMPI PUSH2 0x1E07 PUSH2 0x4DD9 JUMP JUMPDEST JUMPDEST SWAP1 POP PUSH2 0x1E25 PUSH1 0x40 MLOAD DUP1 PUSH1 0x20 ADD PUSH1 0x40 MSTORE DUP1 PUSH1 0x0 DUP2 MSTORE POP DUP5 DUP4 DUP6 PUSH2 0x39F7 JUMP JUMPDEST DUP2 PUSH1 0x4 PUSH1 0x0 PUSH2 0x100 EXP DUP2 SLOAD DUP2 PUSH20 0xFFFFFFFFFFFFFFFFFFFFFFFFFFFFFFFFFFFFFFFF MUL NOT AND SWAP1 DUP4 PUSH20 0xFFFFFFFFFFFFFFFFFFFFFFFFFFFFFFFFFFFFFFFF AND MUL OR SWAP1 SSTORE POP POP POP POP JUMP JUMPDEST PUSH1 0x5 PUSH1 0x2 PUSH1 0x0 CALLER PUSH20 0xFFFFFFFFFFFFFFFFFFFFFFFFFFFFFFFFFFFFFFFF AND PUSH20 0xFFFFFFFFFFFFFFFFFFFFFFFFFFFFFFFFFFFFFFFF AND DUP2 MSTORE PUSH1 0x20 ADD SWAP1 DUP2 MSTORE PUSH1 0x20 ADD PUSH1 0x0 KECCAK256 PUSH1 0x0 ADD SLOAD DUP2 PUSH1 0x5 DUP2 GT ISZERO PUSH2 0x1EC3 JUMPI PUSH2 0x1EC2 PUSH2 0x4DD9 JUMP JUMPDEST JUMPDEST EQ PUSH2 0x1F03 JUMPI PUSH1 0x40 MLOAD PUSH32 0x8C379A000000000000000000000000000000000000000000000000000000000 DUP2 MSTORE PUSH1 0x4 ADD PUSH2 0x1EFA SWAP1 PUSH2 0x4AF7 JUMP JUMPDEST PUSH1 0x40 MLOAD DUP1 SWAP2 SUB SWAP1 REVERT JUMPDEST PUSH9 0x3635C9ADC5DEA00000 CALLER PUSH20 0xFFFFFFFFFFFFFFFFFFFFFFFFFFFFFFFFFFFFFFFF AND BALANCE LT ISZERO PUSH2 0x1F66 JUMPI PUSH1 0x40 MLOAD PUSH32 0x8C379A000000000000000000000000000000000000000000000000000000000 DUP2 MSTORE PUSH1 0x4 ADD PUSH2 0x1F5D SWAP1 PUSH2 0x4AD7 JUMP JUMPDEST PUSH1 0x40 MLOAD DUP1 SWAP2 SUB SWAP1 REVERT JUMPDEST DUP2 PUSH20 0xFFFFFFFFFFFFFFFFFFFFFFFFFFFFFFFFFFFFFFFF AND PUSH2 0x8FC PUSH9 0x3635C9ADC5DEA00000 SWAP1 DUP2 ISZERO MUL SWAP1 PUSH1 0x40 MLOAD PUSH1 0x0 PUSH1 0x40 MLOAD DUP1 DUP4 SUB DUP2 DUP6 DUP9 DUP9 CALL SWAP4 POP POP POP POP ISZERO DUP1 ISZERO PUSH2 0x1FB5 JUMPI RETURNDATASIZE PUSH1 0x0 DUP1 RETURNDATACOPY RETURNDATASIZE PUSH1 0x0 REVERT JUMPDEST POP POP POP JUMP JUMPDEST PUSH1 0x0 PUSH1 0x1 PUSH1 0x5 DUP2 GT ISZERO PUSH2 0x1FD0 JUMPI PUSH2 0x1FCF PUSH2 0x4DD9 JUMP JUMPDEST JUMPDEST SWAP1 POP PUSH2 0x1FDE DUP6 DUP6 DUP4 DUP7 PUSH2 0x39F7 JUMP JUMPDEST PUSH1 0x8 DUP4 SWAP1 DUP1 PUSH1 0x1 DUP2 SLOAD ADD DUP1 DUP3 SSTORE DUP1 SWAP2 POP POP PUSH1 0x1 SWAP1 SUB SWAP1 PUSH1 0x0 MSTORE PUSH1 0x20 PUSH1 0x0 KECCAK256 ADD PUSH1 0x0 SWAP1 SWAP2 SWAP1 SWAP2 SWAP1 SWAP2 PUSH2 0x100 EXP DUP2 SLOAD DUP2 PUSH20 0xFFFFFFFFFFFFFFFFFFFFFFFFFFFFFFFFFFFFFFFF MUL NOT AND SWAP1 DUP4 PUSH20 0xFFFFFFFFFFFFFFFFFFFFFFFFFFFFFFFFFFFFFFFF AND MUL OR SWAP1 SSTORE POP PUSH1 0xD PUSH1 0x0 DUP4 PUSH20 0xFFFFFFFFFFFFFFFFFFFFFFFFFFFFFFFFFFFFFFFF AND PUSH20 0xFFFFFFFFFFFFFFFFFFFFFFFFFFFFFFFFFFFFFFFF AND DUP2 MSTORE PUSH1 0x20 ADD SWAP1 DUP2 MSTORE PUSH1 0x20 ADD PUSH1 0x0 KECCAK256 DUP4 SWAP1 DUP1 PUSH1 0x1 DUP2 SLOAD ADD DUP1 DUP3 SSTORE DUP1 SWAP2 POP POP PUSH1 0x1 SWAP1 SUB SWAP1 PUSH1 0x0 MSTORE PUSH1 0x20 PUSH1 0x0 KECCAK256 ADD PUSH1 0x0 SWAP1 SWAP2 SWAP1 SWAP2 SWAP1 SWAP2 PUSH2 0x100 EXP DUP2 SLOAD DUP2 PUSH20 0xFFFFFFFFFFFFFFFFFFFFFFFFFFFFFFFFFFFFFFFF MUL NOT AND SWAP1 DUP4 PUSH20 0xFFFFFFFFFFFFFFFFFFFFFFFFFFFFFFFFFFFFFFFF AND MUL OR SWAP1 SSTORE POP POP POP POP POP POP JUMP JUMPDEST PUSH1 0x60 DUP1 PUSH1 0x0 PUSH1 0x60 PUSH2 0x21D2 PUSH1 0x2 PUSH1 0x0 CALLER PUSH20 0xFFFFFFFFFFFFFFFFFFFFFFFFFFFFFFFFFFFFFFFF AND PUSH20 0xFFFFFFFFFFFFFFFFFFFFFFFFFFFFFFFFFFFFFFFF AND DUP2 MSTORE PUSH1 0x20 ADD SWAP1 DUP2 MSTORE PUSH1 0x20 ADD PUSH1 0x0 KECCAK256 PUSH1 0x1 ADD DUP1 SLOAD PUSH2 0x213F SWAP1 PUSH2 0x4D76 JUMP JUMPDEST DUP1 PUSH1 0x1F ADD PUSH1 0x20 DUP1 SWAP2 DIV MUL PUSH1 0x20 ADD PUSH1 0x40 MLOAD SWAP1 DUP2 ADD PUSH1 0x40 MSTORE DUP1 SWAP3 SWAP2 SWAP1 DUP2 DUP2 MSTORE PUSH1 0x20 ADD DUP3 DUP1 SLOAD PUSH2 0x216B SWAP1 PUSH2 0x4D76 JUMP JUMPDEST DUP1 ISZERO PUSH2 0x21B8 JUMPI DUP1 PUSH1 0x1F LT PUSH2 0x218D JUMPI PUSH2 0x100 DUP1 DUP4 SLOAD DIV MUL DUP4 MSTORE SWAP2 PUSH1 0x20 ADD SWAP2 PUSH2 0x21B8 JUMP JUMPDEST DUP3 ADD SWAP2 SWAP1 PUSH1 0x0 MSTORE PUSH1 0x20 PUSH1 0x0 KECCAK256 SWAP1 JUMPDEST DUP2 SLOAD DUP2 MSTORE SWAP1 PUSH1 0x1 ADD SWAP1 PUSH1 0x20 ADD DUP1 DUP4 GT PUSH2 0x219B JUMPI DUP3 SWAP1 SUB PUSH1 0x1F AND DUP3 ADD SWAP2 JUMPDEST POP POP POP POP POP PUSH1 0x40 MLOAD DUP1 PUSH1 0x20 ADD PUSH1 0x40 MSTORE DUP1 PUSH1 0x0 DUP2 MSTORE POP PUSH2 0x3CFB JUMP JUMPDEST ISZERO PUSH2 0x2212 JUMPI PUSH1 0x40 MLOAD PUSH32 0x8C379A000000000000000000000000000000000000000000000000000000000 DUP2 MSTORE PUSH1 0x4 ADD PUSH2 0x2209 SWAP1 PUSH2 0x4B17 JUMP JUMPDEST PUSH1 0x40 MLOAD DUP1 SWAP2 SUB SWAP1 REVERT JUMPDEST PUSH1 0x0 PUSH1 0x2 PUSH1 0x0 CALLER PUSH20 0xFFFFFFFFFFFFFFFFFFFFFFFFFFFFFFFFFFFFFFFF AND PUSH20 0xFFFFFFFFFFFFFFFFFFFFFFFFFFFFFFFFFFFFFFFF AND DUP2 MSTORE PUSH1 0x20 ADD SWAP1 DUP2 MSTORE PUSH1 0x20 ADD PUSH1 0x0 KECCAK256 PUSH1 0x40 MLOAD DUP1 PUSH1 0x80 ADD PUSH1 0x40 MSTORE SWAP1 DUP2 PUSH1 0x0 DUP3 ADD SLOAD DUP2 MSTORE PUSH1 0x20 ADD PUSH1 0x1 DUP3 ADD DUP1 SLOAD PUSH2 0x2278 SWAP1 PUSH2 0x4D76 JUMP JUMPDEST DUP1 PUSH1 0x1F ADD PUSH1 0x20 DUP1 SWAP2 DIV MUL PUSH1 0x20 ADD PUSH1 0x40 MLOAD SWAP1 DUP2 ADD PUSH1 0x40 MSTORE DUP1 SWAP3 SWAP2 SWAP1 DUP2 DUP2 MSTORE PUSH1 0x20 ADD DUP3 DUP1 SLOAD PUSH2 0x22A4 SWAP1 PUSH2 0x4D76 JUMP JUMPDEST DUP1 ISZERO PUSH2 0x22F1 JUMPI DUP1 PUSH1 0x1F LT PUSH2 0x22C6 JUMPI PUSH2 0x100 DUP1 DUP4 SLOAD DIV MUL DUP4 MSTORE SWAP2 PUSH1 0x20 ADD SWAP2 PUSH2 0x22F1 JUMP JUMPDEST DUP3 ADD SWAP2 SWAP1 PUSH1 0x0 MSTORE PUSH1 0x20 PUSH1 0x0 KECCAK256 SWAP1 JUMPDEST DUP2 SLOAD DUP2 MSTORE SWAP1 PUSH1 0x1 ADD SWAP1 PUSH1 0x20 ADD DUP1 DUP4 GT PUSH2 0x22D4 JUMPI DUP3 SWAP1 SUB PUSH1 0x1F AND DUP3 ADD SWAP2 JUMPDEST POP POP POP POP POP DUP2 MSTORE PUSH1 0x20 ADD PUSH1 0x2 DUP3 ADD DUP1 SLOAD PUSH2 0x230A SWAP1 PUSH2 0x4D76 JUMP JUMPDEST DUP1 PUSH1 0x1F ADD PUSH1 0x20 DUP1 SWAP2 DIV MUL PUSH1 0x20 ADD PUSH1 0x40 MLOAD SWAP1 DUP2 ADD PUSH1 0x40 MSTORE DUP1 SWAP3 SWAP2 SWAP1 DUP2 DUP2 MSTORE PUSH1 0x20 ADD DUP3 DUP1 SLOAD PUSH2 0x2336 SWAP1 PUSH2 0x4D76 JUMP JUMPDEST DUP1 ISZERO PUSH2 0x2383 JUMPI DUP1 PUSH1 0x1F LT PUSH2 0x2358 JUMPI PUSH2 0x100 DUP1 DUP4 SLOAD DIV MUL DUP4 MSTORE SWAP2 PUSH1 0x20 ADD SWAP2 PUSH2 0x2383 JUMP JUMPDEST DUP3 ADD SWAP2 SWAP1 PUSH1 0x0 MSTORE PUSH1 0x20 PUSH1 0x0 KECCAK256 SWAP1 JUMPDEST DUP2 SLOAD DUP2 MSTORE SWAP1 PUSH1 0x1 ADD SWAP1 PUSH1 0x20 ADD DUP1 DUP4 GT PUSH2 0x2366 JUMPI DUP3 SWAP1 SUB PUSH1 0x1F AND DUP3 ADD SWAP2 JUMPDEST POP POP POP POP POP DUP2 MSTORE PUSH1 0x20 ADD PUSH1 0x3 DUP3 ADD DUP1 SLOAD DUP1 PUSH1 0x20 MUL PUSH1 0x20 ADD PUSH1 0x40 MLOAD SWAP1 DUP2 ADD PUSH1 0x40 MSTORE DUP1 SWAP3 SWAP2 SWAP1 DUP2 DUP2 MSTORE PUSH1 0x20 ADD PUSH1 0x0 SWAP1 JUMPDEST DUP3 DUP3 LT ISZERO PUSH2 0x245D JUMPI DUP4 DUP3 SWAP1 PUSH1 0x0 MSTORE PUSH1 0x20 PUSH1 0x0 KECCAK256 ADD DUP1 SLOAD PUSH2 0x23D0 SWAP1 PUSH2 0x4D76 JUMP JUMPDEST DUP1 PUSH1 0x1F ADD PUSH1 0x20 DUP1 SWAP2 DIV MUL PUSH1 0x20 ADD PUSH1 0x40 MLOAD SWAP1 DUP2 ADD PUSH1 0x40 MSTORE DUP1 SWAP3 SWAP2 SWAP1 DUP2 DUP2 MSTORE PUSH1 0x20 ADD DUP3 DUP1 SLOAD PUSH2 0x23FC SWAP1 PUSH2 0x4D76 JUMP JUMPDEST DUP1 ISZERO PUSH2 0x2449 JUMPI DUP1 PUSH1 0x1F LT PUSH2 0x241E JUMPI PUSH2 0x100 DUP1 DUP4 SLOAD DIV MUL DUP4 MSTORE SWAP2 PUSH1 0x20 ADD SWAP2 PUSH2 0x2449 JUMP JUMPDEST DUP3 ADD SWAP2 SWAP1 PUSH1 0x0 MSTORE PUSH1 0x20 PUSH1 0x0 KECCAK256 SWAP1 JUMPDEST DUP2 SLOAD DUP2 MSTORE SWAP1 PUSH1 0x1 ADD SWAP1 PUSH1 0x20 ADD DUP1 DUP4 GT PUSH2 0x242C JUMPI DUP3 SWAP1 SUB PUSH1 0x1F AND DUP3 ADD SWAP2 JUMPDEST POP POP POP POP POP DUP2 MSTORE PUSH1 0x20 ADD SWAP1 PUSH1 0x1 ADD SWAP1 PUSH2 0x23B1 JUMP JUMPDEST POP POP POP POP DUP2 MSTORE POP POP SWAP1 POP DUP1 PUSH1 0x20 ADD MLOAD SWAP5 POP DUP1 PUSH1 0x40 ADD MLOAD SWAP4 POP CALLER PUSH20 0xFFFFFFFFFFFFFFFFFFFFFFFFFFFFFFFFFFFFFFFF AND BALANCE SWAP3 POP DUP1 PUSH1 0x60 ADD MLOAD SWAP2 POP POP SWAP1 SWAP2 SWAP3 SWAP4 JUMP JUMPDEST PUSH1 0x0 DUP1 PUSH1 0x5 DUP2 GT ISZERO PUSH2 0x24B2 JUMPI PUSH2 0x24B1 PUSH2 0x4DD9 JUMP JUMPDEST JUMPDEST SWAP1 POP PUSH2 0x24C0 DUP5 DUP5 DUP4 DUP6 PUSH2 0x39F7 JUMP JUMPDEST POP POP POP POP JUMP JUMPDEST PUSH1 0x3 PUSH1 0x2 PUSH1 0x0 CALLER PUSH20 0xFFFFFFFFFFFFFFFFFFFFFFFFFFFFFFFFFFFFFFFF AND PUSH20 0xFFFFFFFFFFFFFFFFFFFFFFFFFFFFFFFFFFFFFFFF AND DUP2 MSTORE PUSH1 0x20 ADD SWAP1 DUP2 MSTORE PUSH1 0x20 ADD PUSH1 0x0 KECCAK256 PUSH1 0x0 ADD SLOAD DUP2 PUSH1 0x5 DUP2 GT ISZERO PUSH2 0x251E JUMPI PUSH2 0x251D PUSH2 0x4DD9 JUMP JUMPDEST JUMPDEST EQ PUSH2 0x255E JUMPI PUSH1 0x40 MLOAD PUSH32 0x8C379A000000000000000000000000000000000000000000000000000000000 DUP2 MSTORE PUSH1 0x4 ADD PUSH2 0x2555 SWAP1 PUSH2 0x4AF7 JUMP JUMPDEST PUSH1 0x40 MLOAD DUP1 SWAP2 SUB SWAP1 REVERT JUMPDEST PUSH1 0x0 PUSH1 0x3 PUSH1 0x5 DUP2 GT ISZERO PUSH2 0x2574 JUMPI PUSH2 0x2573 PUSH2 0x4DD9 JUMP JUMPDEST JUMPDEST SWAP1 POP PUSH2 0x2582 DUP5 DUP5 DUP4 DUP9 PUSH2 0x39F7 JUMP JUMPDEST PUSH1 0x6 DUP4 SWAP1 DUP1 PUSH1 0x1 DUP2 SLOAD ADD DUP1 DUP3 SSTORE DUP1 SWAP2 POP POP PUSH1 0x1 SWAP1 SUB SWAP1 PUSH1 0x0 MSTORE PUSH1 0x20 PUSH1 0x0 KECCAK256 ADD PUSH1 0x0 SWAP1 SWAP2 SWAP1 SWAP2 SWAP1 SWAP2 POP SWAP1 DUP1 MLOAD SWAP1 PUSH1 0x20 ADD SWAP1 PUSH2 0x25BD SWAP3 SWAP2 SWAP1 PUSH2 0x3D54 JUMP JUMPDEST POP POP POP POP POP POP JUMP JUMPDEST PUSH1 0x0 PUSH1 0x2 PUSH1 0x0 CALLER PUSH20 0xFFFFFFFFFFFFFFFFFFFFFFFFFFFFFFFFFFFFFFFF AND PUSH20 0xFFFFFFFFFFFFFFFFFFFFFFFFFFFFFFFFFFFFFFFF AND DUP2 MSTORE PUSH1 0x20 ADD SWAP1 DUP2 MSTORE PUSH1 0x20 ADD PUSH1 0x0 KECCAK256 PUSH1 0x0 ADD SLOAD DUP2 PUSH1 0x5 DUP2 GT ISZERO PUSH2 0x261D JUMPI PUSH2 0x261C PUSH2 0x4DD9 JUMP JUMPDEST JUMPDEST EQ PUSH2 0x265D JUMPI PUSH1 0x40 MLOAD PUSH32 0x8C379A000000000000000000000000000000000000000000000000000000000 DUP2 MSTORE PUSH1 0x4 ADD PUSH2 0x2654 SWAP1 PUSH2 0x4AF7 JUMP JUMPDEST PUSH1 0x40 MLOAD DUP1 SWAP2 SUB SWAP1 REVERT JUMPDEST PUSH1 0x0 DUP1 PUSH1 0x0 DUP1 PUSH1 0x5 DUP2 GT ISZERO PUSH2 0x2675 JUMPI PUSH2 0x2674 PUSH2 0x4DD9 JUMP JUMPDEST JUMPDEST DUP2 MSTORE PUSH1 0x20 ADD SWAP1 DUP2 MSTORE PUSH1 0x20 ADD PUSH1 0x0 KECCAK256 DUP1 SLOAD PUSH2 0x268E SWAP1 PUSH2 0x4D76 JUMP JUMPDEST DUP1 PUSH1 0x1F ADD PUSH1 0x20 DUP1 SWAP2 DIV MUL PUSH1 0x20 ADD PUSH1 0x40 MLOAD SWAP1 DUP2 ADD PUSH1 0x40 MSTORE DUP1 SWAP3 SWAP2 SWAP1 DUP2 DUP2 MSTORE PUSH1 0x20 ADD DUP3 DUP1 SLOAD PUSH2 0x26BA SWAP1 PUSH2 0x4D76 JUMP JUMPDEST DUP1 ISZERO PUSH2 0x2707 JUMPI DUP1 PUSH1 0x1F LT PUSH2 0x26DC JUMPI PUSH2 0x100 DUP1 DUP4 SLOAD DIV MUL DUP4 MSTORE SWAP2 PUSH1 0x20 ADD SWAP2 PUSH2 0x2707 JUMP JUMPDEST DUP3 ADD SWAP2 SWAP1 PUSH1 0x0 MSTORE PUSH1 0x20 PUSH1 0x0 KECCAK256 SWAP1 JUMPDEST DUP2 SLOAD DUP2 MSTORE SWAP1 PUSH1 0x1 ADD SWAP1 PUSH1 0x20 ADD DUP1 DUP4 GT PUSH2 0x26EA JUMPI DUP3 SWAP1 SUB PUSH1 0x1F AND DUP3 ADD SWAP2 JUMPDEST POP POP POP POP POP SWAP1 POP PUSH1 0x0 DUP1 PUSH1 0x0 PUSH1 0x1 PUSH1 0x5 DUP2 GT ISZERO PUSH2 0x2727 JUMPI PUSH2 0x2726 PUSH2 0x4DD9 JUMP JUMPDEST JUMPDEST DUP2 MSTORE PUSH1 0x20 ADD SWAP1 DUP2 MSTORE PUSH1 0x20 ADD PUSH1 0x0 KECCAK256 DUP1 SLOAD PUSH2 0x2740 SWAP1 PUSH2 0x4D76 JUMP JUMPDEST DUP1 PUSH1 0x1F ADD PUSH1 0x20 DUP1 SWAP2 DIV MUL PUSH1 0x20 ADD PUSH1 0x40 MLOAD SWAP1 DUP2 ADD PUSH1 0x40 MSTORE DUP1 SWAP3 SWAP2 SWAP1 DUP2 DUP2 MSTORE PUSH1 0x20 ADD DUP3 DUP1 SLOAD PUSH2 0x276C SWAP1 PUSH2 0x4D76 JUMP JUMPDEST DUP1 ISZERO PUSH2 0x27B9 JUMPI DUP1 PUSH1 0x1F LT PUSH2 0x278E JUMPI PUSH2 0x100 DUP1 DUP4 SLOAD DIV MUL DUP4 MSTORE SWAP2 PUSH1 0x20 ADD SWAP2 PUSH2 0x27B9 JUMP JUMPDEST DUP3 ADD SWAP2 SWAP1 PUSH1 0x0 MSTORE PUSH1 0x20 PUSH1 0x0 KECCAK256 SWAP1 JUMPDEST DUP2 SLOAD DUP2 MSTORE SWAP1 PUSH1 0x1 ADD SWAP1 PUSH1 0x20 ADD DUP1 DUP4 GT PUSH2 0x279C JUMPI DUP3 SWAP1 SUB PUSH1 0x1F AND DUP3 ADD SWAP2 JUMPDEST POP POP POP POP POP SWAP1 POP PUSH1 0x0 PUSH1 0x40 MLOAD DUP1 PUSH1 0x80 ADD PUSH1 0x40 MSTORE DUP1 CALLER PUSH20 0xFFFFFFFFFFFFFFFFFFFFFFFFFFFFFFFFFFFFFFFF AND DUP2 MSTORE PUSH1 0x20 ADD DUP5 DUP2 MSTORE PUSH1 0x20 ADD DUP4 DUP2 MSTORE PUSH1 0x20 ADD PUSH1 0x0 ISZERO ISZERO DUP2 MSTORE POP SWAP1 POP DUP1 PUSH1 0x10 DUP7 PUSH1 0x40 MLOAD PUSH2 0x280F SWAP2 SWAP1 PUSH2 0x4872 JUMP JUMPDEST SWAP1 DUP2 MSTORE PUSH1 0x20 ADD PUSH1 0x40 MLOAD DUP1 SWAP2 SUB SWAP1 KECCAK256 PUSH1 0x0 DUP3 ADD MLOAD DUP2 PUSH1 0x0 ADD PUSH1 0x0 PUSH2 0x100 EXP DUP2 SLOAD DUP2 PUSH20 0xFFFFFFFFFFFFFFFFFFFFFFFFFFFFFFFFFFFFFFFF MUL NOT AND SWAP1 DUP4 PUSH20 0xFFFFFFFFFFFFFFFFFFFFFFFFFFFFFFFFFFFFFFFF AND MUL OR SWAP1 SSTORE POP PUSH1 0x20 DUP3 ADD MLOAD DUP2 PUSH1 0x1 ADD SWAP1 DUP1 MLOAD SWAP1 PUSH1 0x20 ADD SWAP1 PUSH2 0x2880 SWAP3 SWAP2 SWAP1 PUSH2 0x3D54 JUMP JUMPDEST POP PUSH1 0x40 DUP3 ADD MLOAD DUP2 PUSH1 0x2 ADD SWAP1 DUP1 MLOAD SWAP1 PUSH1 0x20 ADD SWAP1 PUSH2 0x289D SWAP3 SWAP2 SWAP1 PUSH2 0x3D54 JUMP JUMPDEST POP PUSH1 0x60 DUP3 ADD MLOAD DUP2 PUSH1 0x3 ADD PUSH1 0x0 PUSH2 0x100 EXP DUP2 SLOAD DUP2 PUSH1 0xFF MUL NOT AND SWAP1 DUP4 ISZERO ISZERO MUL OR SWAP1 SSTORE POP SWAP1 POP POP PUSH1 0xA DUP2 SWAP1 DUP1 PUSH1 0x1 DUP2 SLOAD ADD DUP1 DUP3 SSTORE DUP1 SWAP2 POP POP PUSH1 0x1 SWAP1 SUB SWAP1 PUSH1 0x0 MSTORE PUSH1 0x20 PUSH1 0x0 KECCAK256 SWAP1 PUSH1 0x4 MUL ADD PUSH1 0x0 SWAP1 SWAP2 SWAP1 SWAP2 SWAP1 SWAP2 POP PUSH1 0x0 DUP3 ADD MLOAD DUP2 PUSH1 0x0 ADD PUSH1 0x0 PUSH2 0x100 EXP DUP2 SLOAD DUP2 PUSH20 0xFFFFFFFFFFFFFFFFFFFFFFFFFFFFFFFFFFFFFFFF MUL NOT AND SWAP1 DUP4 PUSH20 0xFFFFFFFFFFFFFFFFFFFFFFFFFFFFFFFFFFFFFFFF AND MUL OR SWAP1 SSTORE POP PUSH1 0x20 DUP3 ADD MLOAD DUP2 PUSH1 0x1 ADD SWAP1 DUP1 MLOAD SWAP1 PUSH1 0x20 ADD SWAP1 PUSH2 0x2950 SWAP3 SWAP2 SWAP1 PUSH2 0x3D54 JUMP JUMPDEST POP PUSH1 0x40 DUP3 ADD MLOAD DUP2 PUSH1 0x2 ADD SWAP1 DUP1 MLOAD SWAP1 PUSH1 0x20 ADD SWAP1 PUSH2 0x296D SWAP3 SWAP2 SWAP1 PUSH2 0x3D54 JUMP JUMPDEST POP PUSH1 0x60 DUP3 ADD MLOAD DUP2 PUSH1 0x3 ADD PUSH1 0x0 PUSH2 0x100 EXP DUP2 SLOAD DUP2 PUSH1 0xFF MUL NOT AND SWAP1 DUP4 ISZERO ISZERO MUL OR SWAP1 SSTORE POP POP POP POP POP POP POP POP JUMP JUMPDEST PUSH1 0x1 PUSH1 0x2 PUSH1 0x0 CALLER PUSH20 0xFFFFFFFFFFFFFFFFFFFFFFFFFFFFFFFFFFFFFFFF AND PUSH20 0xFFFFFFFFFFFFFFFFFFFFFFFFFFFFFFFFFFFFFFFF AND DUP2 MSTORE PUSH1 0x20 ADD SWAP1 DUP2 MSTORE PUSH1 0x20 ADD PUSH1 0x0 KECCAK256 PUSH1 0x0 ADD SLOAD DUP2 PUSH1 0x5 DUP2 GT ISZERO PUSH2 0x29EF JUMPI PUSH2 0x29EE PUSH2 0x4DD9 JUMP JUMPDEST JUMPDEST EQ PUSH2 0x2A2F JUMPI PUSH1 0x40 MLOAD PUSH32 0x8C379A000000000000000000000000000000000000000000000000000000000 DUP2 MSTORE PUSH1 0x4 ADD PUSH2 0x2A26 SWAP1 PUSH2 0x4AF7 JUMP JUMPDEST PUSH1 0x40 MLOAD DUP1 SWAP2 SUB SWAP1 REVERT JUMPDEST PUSH1 0x0 DUP1 PUSH1 0x0 DUP1 PUSH1 0x5 DUP2 GT ISZERO PUSH2 0x2A47 JUMPI PUSH2 0x2A46 PUSH2 0x4DD9 JUMP JUMPDEST JUMPDEST DUP2 MSTORE PUSH1 0x20 ADD SWAP1 DUP2 MSTORE PUSH1 0x20 ADD PUSH1 0x0 KECCAK256 DUP1 SLOAD PUSH2 0x2A60 SWAP1 PUSH2 0x4D76 JUMP JUMPDEST DUP1 PUSH1 0x1F ADD PUSH1 0x20 DUP1 SWAP2 DIV MUL PUSH1 0x20 ADD PUSH1 0x40 MLOAD SWAP1 DUP2 ADD PUSH1 0x40 MSTORE DUP1 SWAP3 SWAP2 SWAP1 DUP2 DUP2 MSTORE PUSH1 0x20 ADD DUP3 DUP1 SLOAD PUSH2 0x2A8C SWAP1 PUSH2 0x4D76 JUMP JUMPDEST DUP1 ISZERO PUSH2 0x2AD9 JUMPI DUP1 PUSH1 0x1F LT PUSH2 0x2AAE JUMPI PUSH2 0x100 DUP1 DUP4 SLOAD DIV MUL DUP4 MSTORE SWAP2 PUSH1 0x20 ADD SWAP2 PUSH2 0x2AD9 JUMP JUMPDEST DUP3 ADD SWAP2 SWAP1 PUSH1 0x0 MSTORE PUSH1 0x20 PUSH1 0x0 KECCAK256 SWAP1 JUMPDEST DUP2 SLOAD DUP2 MSTORE SWAP1 PUSH1 0x1 ADD SWAP1 PUSH1 0x20 ADD DUP1 DUP4 GT PUSH2 0x2ABC JUMPI DUP3 SWAP1 SUB PUSH1 0x1F AND DUP3 ADD SWAP2 JUMPDEST POP POP POP POP POP SWAP1 POP PUSH1 0x0 DUP1 PUSH1 0x0 PUSH1 0x1 PUSH1 0x5 DUP2 GT ISZERO PUSH2 0x2AF9 JUMPI PUSH2 0x2AF8 PUSH2 0x4DD9 JUMP JUMPDEST JUMPDEST DUP2 MSTORE PUSH1 0x20 ADD SWAP1 DUP2 MSTORE PUSH1 0x20 ADD PUSH1 0x0 KECCAK256 DUP1 SLOAD PUSH2 0x2B12 SWAP1 PUSH2 0x4D76 JUMP JUMPDEST DUP1 PUSH1 0x1F ADD PUSH1 0x20 DUP1 SWAP2 DIV MUL PUSH1 0x20 ADD PUSH1 0x40 MLOAD SWAP1 DUP2 ADD PUSH1 0x40 MSTORE DUP1 SWAP3 SWAP2 SWAP1 DUP2 DUP2 MSTORE PUSH1 0x20 ADD DUP3 DUP1 SLOAD PUSH2 0x2B3E SWAP1 PUSH2 0x4D76 JUMP JUMPDEST DUP1 ISZERO PUSH2 0x2B8B JUMPI DUP1 PUSH1 0x1F LT PUSH2 0x2B60 JUMPI PUSH2 0x100 DUP1 DUP4 SLOAD DIV MUL DUP4 MSTORE SWAP2 PUSH1 0x20 ADD SWAP2 PUSH2 0x2B8B JUMP JUMPDEST DUP3 ADD SWAP2 SWAP1 PUSH1 0x0 MSTORE PUSH1 0x20 PUSH1 0x0 KECCAK256 SWAP1 JUMPDEST DUP2 SLOAD DUP2 MSTORE SWAP1 PUSH1 0x1 ADD SWAP1 PUSH1 0x20 ADD DUP1 DUP4 GT PUSH2 0x2B6E JUMPI DUP3 SWAP1 SUB PUSH1 0x1F AND DUP3 ADD SWAP2 JUMPDEST POP POP POP POP POP SWAP1 POP PUSH1 0x0 PUSH1 0x40 MLOAD DUP1 PUSH1 0x80 ADD PUSH1 0x40 MSTORE DUP1 CALLER PUSH20 0xFFFFFFFFFFFFFFFFFFFFFFFFFFFFFFFFFFFFFFFF AND DUP2 MSTORE PUSH1 0x20 ADD DUP4 DUP2 MSTORE PUSH1 0x20 ADD DUP5 DUP2 MSTORE PUSH1 0x20 ADD PUSH1 0x0 ISZERO ISZERO DUP2 MSTORE POP SWAP1 POP DUP1 PUSH1 0x10 DUP7 PUSH1 0x40 MLOAD PUSH2 0x2BE1 SWAP2 SWAP1 PUSH2 0x4872 JUMP JUMPDEST SWAP1 DUP2 MSTORE PUSH1 0x20 ADD PUSH1 0x40 MLOAD DUP1 SWAP2 SUB SWAP1 KECCAK256 PUSH1 0x0 DUP3 ADD MLOAD DUP2 PUSH1 0x0 ADD PUSH1 0x0 PUSH2 0x100 EXP DUP2 SLOAD DUP2 PUSH20 0xFFFFFFFFFFFFFFFFFFFFFFFFFFFFFFFFFFFFFFFF MUL NOT AND SWAP1 DUP4 PUSH20 0xFFFFFFFFFFFFFFFFFFFFFFFFFFFFFFFFFFFFFFFF AND MUL OR SWAP1 SSTORE POP PUSH1 0x20 DUP3 ADD MLOAD DUP2 PUSH1 0x1 ADD SWAP1 DUP1 MLOAD SWAP1 PUSH1 0x20 ADD SWAP1 PUSH2 0x2C52 SWAP3 SWAP2 SWAP1 PUSH2 0x3D54 JUMP JUMPDEST POP PUSH1 0x40 DUP3 ADD MLOAD DUP2 PUSH1 0x2 ADD SWAP1 DUP1 MLOAD SWAP1 PUSH1 0x20 ADD SWAP1 PUSH2 0x2C6F SWAP3 SWAP2 SWAP1 PUSH2 0x3D54 JUMP JUMPDEST POP PUSH1 0x60 DUP3 ADD MLOAD DUP2 PUSH1 0x3 ADD PUSH1 0x0 PUSH2 0x100 EXP DUP2 SLOAD DUP2 PUSH1 0xFF MUL NOT AND SWAP1 DUP4 ISZERO ISZERO MUL OR SWAP1 SSTORE POP SWAP1 POP POP PUSH1 0xA DUP2 SWAP1 DUP1 PUSH1 0x1 DUP2 SLOAD ADD DUP1 DUP3 SSTORE DUP1 SWAP2 POP POP PUSH1 0x1 SWAP1 SUB SWAP1 PUSH1 0x0 MSTORE PUSH1 0x20 PUSH1 0x0 KECCAK256 SWAP1 PUSH1 0x4 MUL ADD PUSH1 0x0 SWAP1 SWAP2 SWAP1 SWAP2 SWAP1 SWAP2 POP PUSH1 0x0 DUP3 ADD MLOAD DUP2 PUSH1 0x0 ADD PUSH1 0x0 PUSH2 0x100 EXP DUP2 SLOAD DUP2 PUSH20 0xFFFFFFFFFFFFFFFFFFFFFFFFFFFFFFFFFFFFFFFF MUL NOT AND SWAP1 DUP4 PUSH20 0xFFFFFFFFFFFFFFFFFFFFFFFFFFFFFFFFFFFFFFFF AND MUL OR SWAP1 SSTORE POP PUSH1 0x20 DUP3 ADD MLOAD DUP2 PUSH1 0x1 ADD SWAP1 DUP1 MLOAD SWAP1 PUSH1 0x20 ADD SWAP1 PUSH2 0x2D22 SWAP3 SWAP2 SWAP1 PUSH2 0x3D54 JUMP JUMPDEST POP PUSH1 0x40 DUP3 ADD MLOAD DUP2 PUSH1 0x2 ADD SWAP1 DUP1 MLOAD SWAP1 PUSH1 0x20 ADD SWAP1 PUSH2 0x2D3F SWAP3 SWAP2 SWAP1 PUSH2 0x3D54 JUMP JUMPDEST POP PUSH1 0x60 DUP3 ADD MLOAD DUP2 PUSH1 0x3 ADD PUSH1 0x0 PUSH2 0x100 EXP DUP2 SLOAD DUP2 PUSH1 0xFF MUL NOT AND SWAP1 DUP4 ISZERO ISZERO MUL OR SWAP1 SSTORE POP POP POP POP POP POP POP POP JUMP JUMPDEST PUSH2 0x2E4C PUSH1 0x2 PUSH1 0x0 CALLER PUSH20 0xFFFFFFFFFFFFFFFFFFFFFFFFFFFFFFFFFFFFFFFF AND PUSH20 0xFFFFFFFFFFFFFFFFFFFFFFFFFFFFFFFFFFFFFFFF AND DUP2 MSTORE PUSH1 0x20 ADD SWAP1 DUP2 MSTORE PUSH1 0x20 ADD PUSH1 0x0 KECCAK256 PUSH1 0x1 ADD DUP1 SLOAD PUSH2 0x2DB9 SWAP1 PUSH2 0x4D76 JUMP JUMPDEST DUP1 PUSH1 0x1F ADD PUSH1 0x20 DUP1 SWAP2 DIV MUL PUSH1 0x20 ADD PUSH1 0x40 MLOAD SWAP1 DUP2 ADD PUSH1 0x40 MSTORE DUP1 SWAP3 SWAP2 SWAP1 DUP2 DUP2 MSTORE PUSH1 0x20 ADD DUP3 DUP1 SLOAD PUSH2 0x2DE5 SWAP1 PUSH2 0x4D76 JUMP JUMPDEST DUP1 ISZERO PUSH2 0x2E32 JUMPI DUP1 PUSH1 0x1F LT PUSH2 0x2E07 JUMPI PUSH2 0x100 DUP1 DUP4 SLOAD DIV MUL DUP4 MSTORE SWAP2 PUSH1 0x20 ADD SWAP2 PUSH2 0x2E32 JUMP JUMPDEST DUP3 ADD SWAP2 SWAP1 PUSH1 0x0 MSTORE PUSH1 0x20 PUSH1 0x0 KECCAK256 SWAP1 JUMPDEST DUP2 SLOAD DUP2 MSTORE SWAP1 PUSH1 0x1 ADD SWAP1 PUSH1 0x20 ADD DUP1 DUP4 GT PUSH2 0x2E15 JUMPI DUP3 SWAP1 SUB PUSH1 0x1F AND DUP3 ADD SWAP2 JUMPDEST POP POP POP POP POP PUSH1 0x40 MLOAD DUP1 PUSH1 0x20 ADD PUSH1 0x40 MSTORE DUP1 PUSH1 0x0 DUP2 MSTORE POP PUSH2 0x3CFB JUMP JUMPDEST ISZERO PUSH2 0x2E8C JUMPI PUSH1 0x40 MLOAD PUSH32 0x8C379A000000000000000000000000000000000000000000000000000000000 DUP2 MSTORE PUSH1 0x4 ADD PUSH2 0x2E83 SWAP1 PUSH2 0x4B17 JUMP JUMPDEST PUSH1 0x40 MLOAD DUP1 SWAP2 SUB SWAP1 REVERT JUMPDEST PUSH1 0x0 ISZERO ISZERO PUSH1 0x11 DUP3 PUSH1 0x40 MLOAD PUSH2 0x2EA0 SWAP2 SWAP1 PUSH2 0x4872 JUMP JUMPDEST SWAP1 DUP2 MSTORE PUSH1 0x20 ADD PUSH1 0x40 MLOAD DUP1 SWAP2 SUB SWAP1 KECCAK256 PUSH1 0x0 CALLER PUSH20 0xFFFFFFFFFFFFFFFFFFFFFFFFFFFFFFFFFFFFFFFF AND PUSH20 0xFFFFFFFFFFFFFFFFFFFFFFFFFFFFFFFFFFFFFFFF AND DUP2 MSTORE PUSH1 0x20 ADD SWAP1 DUP2 MSTORE PUSH1 0x20 ADD PUSH1 0x0 KECCAK256 PUSH1 0x0 SWAP1 SLOAD SWAP1 PUSH2 0x100 EXP SWAP1 DIV PUSH1 0xFF AND ISZERO ISZERO EQ PUSH2 0x2F3B JUMPI PUSH1 0x40 MLOAD PUSH32 0x8C379A000000000000000000000000000000000000000000000000000000000 DUP2 MSTORE PUSH1 0x4 ADD PUSH2 0x2F32 SWAP1 PUSH2 0x4A97 JUMP JUMPDEST PUSH1 0x40 MLOAD DUP1 SWAP2 SUB SWAP1 REVERT JUMPDEST PUSH1 0xF DUP2 PUSH1 0x40 MLOAD PUSH2 0x2F4B SWAP2 SWAP1 PUSH2 0x4872 JUMP JUMPDEST SWAP1 DUP2 MSTORE PUSH1 0x20 ADD PUSH1 0x40 MLOAD DUP1 SWAP2 SUB SWAP1 KECCAK256 PUSH1 0x4 ADD CALLER SWAP1 DUP1 PUSH1 0x1 DUP2 SLOAD ADD DUP1 DUP3 SSTORE DUP1 SWAP2 POP POP PUSH1 0x1 SWAP1 SUB SWAP1 PUSH1 0x0 MSTORE PUSH1 0x20 PUSH1 0x0 KECCAK256 ADD PUSH1 0x0 SWAP1 SWAP2 SWAP1 SWAP2 SWAP1 SWAP2 PUSH2 0x100 EXP DUP2 SLOAD DUP2 PUSH20 0xFFFFFFFFFFFFFFFFFFFFFFFFFFFFFFFFFFFFFFFF MUL NOT AND SWAP1 DUP4 PUSH20 0xFFFFFFFFFFFFFFFFFFFFFFFFFFFFFFFFFFFFFFFF AND MUL OR SWAP1 SSTORE POP PUSH1 0x1 PUSH1 0x11 DUP3 PUSH1 0x40 MLOAD PUSH2 0x2FCF SWAP2 SWAP1 PUSH2 0x4872 JUMP JUMPDEST SWAP1 DUP2 MSTORE PUSH1 0x20 ADD PUSH1 0x40 MLOAD DUP1 SWAP2 SUB SWAP1 KECCAK256 PUSH1 0x0 CALLER PUSH20 0xFFFFFFFFFFFFFFFFFFFFFFFFFFFFFFFFFFFFFFFF AND PUSH20 0xFFFFFFFFFFFFFFFFFFFFFFFFFFFFFFFFFFFFFFFF AND DUP2 MSTORE PUSH1 0x20 ADD SWAP1 DUP2 MSTORE PUSH1 0x20 ADD PUSH1 0x0 KECCAK256 PUSH1 0x0 PUSH2 0x100 EXP DUP2 SLOAD DUP2 PUSH1 0xFF MUL NOT AND SWAP1 DUP4 ISZERO ISZERO MUL OR SWAP1 SSTORE POP POP JUMP JUMPDEST PUSH1 0x60 DUP1 PUSH1 0x60 DUP1 PUSH1 0x3 PUSH1 0x2 PUSH1 0x0 CALLER PUSH20 0xFFFFFFFFFFFFFFFFFFFFFFFFFFFFFFFFFFFFFFFF AND PUSH20 0xFFFFFFFFFFFFFFFFFFFFFFFFFFFFFFFFFFFFFFFF AND DUP2 MSTORE PUSH1 0x20 ADD SWAP1 DUP2 MSTORE PUSH1 0x20 ADD PUSH1 0x0 KECCAK256 PUSH1 0x0 ADD SLOAD DUP2 PUSH1 0x5 DUP2 GT ISZERO PUSH2 0x3092 JUMPI PUSH2 0x3091 PUSH2 0x4DD9 JUMP JUMPDEST JUMPDEST EQ PUSH2 0x30D2 JUMPI PUSH1 0x40 MLOAD PUSH32 0x8C379A000000000000000000000000000000000000000000000000000000000 DUP2 MSTORE PUSH1 0x4 ADD PUSH2 0x30C9 SWAP1 PUSH2 0x4AF7 JUMP JUMPDEST PUSH1 0x40 MLOAD DUP1 SWAP2 SUB SWAP1 REVERT JUMPDEST PUSH1 0x0 PUSH1 0x2 PUSH1 0x0 CALLER PUSH20 0xFFFFFFFFFFFFFFFFFFFFFFFFFFFFFFFFFFFFFFFF AND PUSH20 0xFFFFFFFFFFFFFFFFFFFFFFFFFFFFFFFFFFFFFFFF AND DUP2 MSTORE PUSH1 0x20 ADD SWAP1 DUP2 MSTORE PUSH1 0x20 ADD PUSH1 0x0 KECCAK256 PUSH1 0x40 MLOAD DUP1 PUSH1 0x80 ADD PUSH1 0x40 MSTORE SWAP1 DUP2 PUSH1 0x0 DUP3 ADD SLOAD DUP2 MSTORE PUSH1 0x20 ADD PUSH1 0x1 DUP3 ADD DUP1 SLOAD PUSH2 0x3138 SWAP1 PUSH2 0x4D76 JUMP JUMPDEST DUP1 PUSH1 0x1F ADD PUSH1 0x20 DUP1 SWAP2 DIV MUL PUSH1 0x20 ADD PUSH1 0x40 MLOAD SWAP1 DUP2 ADD PUSH1 0x40 MSTORE DUP1 SWAP3 SWAP2 SWAP1 DUP2 DUP2 MSTORE PUSH1 0x20 ADD DUP3 DUP1 SLOAD PUSH2 0x3164 SWAP1 PUSH2 0x4D76 JUMP JUMPDEST DUP1 ISZERO PUSH2 0x31B1 JUMPI DUP1 PUSH1 0x1F LT PUSH2 0x3186 JUMPI PUSH2 0x100 DUP1 DUP4 SLOAD DIV MUL DUP4 MSTORE SWAP2 PUSH1 0x20 ADD SWAP2 PUSH2 0x31B1 JUMP JUMPDEST DUP3 ADD SWAP2 SWAP1 PUSH1 0x0 MSTORE PUSH1 0x20 PUSH1 0x0 KECCAK256 SWAP1 JUMPDEST DUP2 SLOAD DUP2 MSTORE SWAP1 PUSH1 0x1 ADD SWAP1 PUSH1 0x20 ADD DUP1 DUP4 GT PUSH2 0x3194 JUMPI DUP3 SWAP1 SUB PUSH1 0x1F AND DUP3 ADD SWAP2 JUMPDEST POP POP POP POP POP DUP2 MSTORE PUSH1 0x20 ADD PUSH1 0x2 DUP3 ADD DUP1 SLOAD PUSH2 0x31CA SWAP1 PUSH2 0x4D76 JUMP JUMPDEST DUP1 PUSH1 0x1F ADD PUSH1 0x20 DUP1 SWAP2 DIV MUL PUSH1 0x20 ADD PUSH1 0x40 MLOAD SWAP1 DUP2 ADD PUSH1 0x40 MSTORE DUP1 SWAP3 SWAP2 SWAP1 DUP2 DUP2 MSTORE PUSH1 0x20 ADD DUP3 DUP1 SLOAD PUSH2 0x31F6 SWAP1 PUSH2 0x4D76 JUMP JUMPDEST DUP1 ISZERO PUSH2 0x3243 JUMPI DUP1 PUSH1 0x1F LT PUSH2 0x3218 JUMPI PUSH2 0x100 DUP1 DUP4 SLOAD DIV MUL DUP4 MSTORE SWAP2 PUSH1 0x20 ADD SWAP2 PUSH2 0x3243 JUMP JUMPDEST DUP3 ADD SWAP2 SWAP1 PUSH1 0x0 MSTORE PUSH1 0x20 PUSH1 0x0 KECCAK256 SWAP1 JUMPDEST DUP2 SLOAD DUP2 MSTORE SWAP1 PUSH1 0x1 ADD SWAP1 PUSH1 0x20 ADD DUP1 DUP4 GT PUSH2 0x3226 JUMPI DUP3 SWAP1 SUB PUSH1 0x1F AND DUP3 ADD SWAP2 JUMPDEST POP POP POP POP POP DUP2 MSTORE PUSH1 0x20 ADD PUSH1 0x3 DUP3 ADD DUP1 SLOAD DUP1 PUSH1 0x20 MUL PUSH1 0x20 ADD PUSH1 0x40 MLOAD SWAP1 DUP2 ADD PUSH1 0x40 MSTORE DUP1 SWAP3 SWAP2 SWAP1 DUP2 DUP2 MSTORE PUSH1 0x20 ADD PUSH1 0x0 SWAP1 JUMPDEST DUP3 DUP3 LT ISZERO PUSH2 0x331D JUMPI DUP4 DUP3 SWAP1 PUSH1 0x0 MSTORE PUSH1 0x20 PUSH1 0x0 KECCAK256 ADD DUP1 SLOAD PUSH2 0x3290 SWAP1 PUSH2 0x4D76 JUMP JUMPDEST DUP1 PUSH1 0x1F ADD PUSH1 0x20 DUP1 SWAP2 DIV MUL PUSH1 0x20 ADD PUSH1 0x40 MLOAD SWAP1 DUP2 ADD PUSH1 0x40 MSTORE DUP1 SWAP3 SWAP2 SWAP1 DUP2 DUP2 MSTORE PUSH1 0x20 ADD DUP3 DUP1 SLOAD PUSH2 0x32BC SWAP1 PUSH2 0x4D76 JUMP JUMPDEST DUP1 ISZERO PUSH2 0x3309 JUMPI DUP1 PUSH1 0x1F LT PUSH2 0x32DE JUMPI PUSH2 0x100 DUP1 DUP4 SLOAD DIV MUL DUP4 MSTORE SWAP2 PUSH1 0x20 ADD SWAP2 PUSH2 0x3309 JUMP JUMPDEST DUP3 ADD SWAP2 SWAP1 PUSH1 0x0 MSTORE PUSH1 0x20 PUSH1 0x0 KECCAK256 SWAP1 JUMPDEST DUP2 SLOAD DUP2 MSTORE SWAP1 PUSH1 0x1 ADD SWAP1 PUSH1 0x20 ADD DUP1 DUP4 GT PUSH2 0x32EC JUMPI DUP3 SWAP1 SUB PUSH1 0x1F AND DUP3 ADD SWAP2 JUMPDEST POP POP POP POP POP DUP2 MSTORE PUSH1 0x20 ADD SWAP1 PUSH1 0x1 ADD SWAP1 PUSH2 0x3271 JUMP JUMPDEST POP POP POP POP DUP2 MSTORE POP POP SWAP1 POP DUP1 PUSH1 0x20 ADD MLOAD SWAP6 POP PUSH1 0xA DUP1 SLOAD DUP1 PUSH1 0x20 MUL PUSH1 0x20 ADD PUSH1 0x40 MLOAD SWAP1 DUP2 ADD PUSH1 0x40 MSTORE DUP1 SWAP3 SWAP2 SWAP1 DUP2 DUP2 MSTORE PUSH1 0x20 ADD PUSH1 0x0 SWAP1 JUMPDEST DUP3 DUP3 LT ISZERO PUSH2 0x3517 JUMPI DUP4 DUP3 SWAP1 PUSH1 0x0 MSTORE PUSH1 0x20 PUSH1 0x0 KECCAK256 SWAP1 PUSH1 0x4 MUL ADD PUSH1 0x40 MLOAD DUP1 PUSH1 0x80 ADD PUSH1 0x40 MSTORE SWAP1 DUP2 PUSH1 0x0 DUP3 ADD PUSH1 0x0 SWAP1 SLOAD SWAP1 PUSH2 0x100 EXP SWAP1 DIV PUSH20 0xFFFFFFFFFFFFFFFFFFFFFFFFFFFFFFFFFFFFFFFF AND PUSH20 0xFFFFFFFFFFFFFFFFFFFFFFFFFFFFFFFFFFFFFFFF AND PUSH20 0xFFFFFFFFFFFFFFFFFFFFFFFFFFFFFFFFFFFFFFFF AND DUP2 MSTORE PUSH1 0x20 ADD PUSH1 0x1 DUP3 ADD DUP1 SLOAD PUSH2 0x33D9 SWAP1 PUSH2 0x4D76 JUMP JUMPDEST DUP1 PUSH1 0x1F ADD PUSH1 0x20 DUP1 SWAP2 DIV MUL PUSH1 0x20 ADD PUSH1 0x40 MLOAD SWAP1 DUP2 ADD PUSH1 0x40 MSTORE DUP1 SWAP3 SWAP2 SWAP1 DUP2 DUP2 MSTORE PUSH1 0x20 ADD DUP3 DUP1 SLOAD PUSH2 0x3405 SWAP1 PUSH2 0x4D76 JUMP JUMPDEST DUP1 ISZERO PUSH2 0x3452 JUMPI DUP1 PUSH1 0x1F LT PUSH2 0x3427 JUMPI PUSH2 0x100 DUP1 DUP4 SLOAD DIV MUL DUP4 MSTORE SWAP2 PUSH1 0x20 ADD SWAP2 PUSH2 0x3452 JUMP JUMPDEST DUP3 ADD SWAP2 SWAP1 PUSH1 0x0 MSTORE PUSH1 0x20 PUSH1 0x0 KECCAK256 SWAP1 JUMPDEST DUP2 SLOAD DUP2 MSTORE SWAP1 PUSH1 0x1 ADD SWAP1 PUSH1 0x20 ADD DUP1 DUP4 GT PUSH2 0x3435 JUMPI DUP3 SWAP1 SUB PUSH1 0x1F AND DUP3 ADD SWAP2 JUMPDEST POP POP POP POP POP DUP2 MSTORE PUSH1 0x20 ADD PUSH1 0x2 DUP3 ADD DUP1 SLOAD PUSH2 0x346B SWAP1 PUSH2 0x4D76 JUMP JUMPDEST DUP1 PUSH1 0x1F ADD PUSH1 0x20 DUP1 SWAP2 DIV MUL PUSH1 0x20 ADD PUSH1 0x40 MLOAD SWAP1 DUP2 ADD PUSH1 0x40 MSTORE DUP1 SWAP3 SWAP2 SWAP1 DUP2 DUP2 MSTORE PUSH1 0x20 ADD DUP3 DUP1 SLOAD PUSH2 0x3497 SWAP1 PUSH2 0x4D76 JUMP JUMPDEST DUP1 ISZERO PUSH2 0x34E4 JUMPI DUP1 PUSH1 0x1F LT PUSH2 0x34B9 JUMPI PUSH2 0x100 DUP1 DUP4 SLOAD DIV MUL DUP4 MSTORE SWAP2 PUSH1 0x20 ADD SWAP2 PUSH2 0x34E4 JUMP JUMPDEST DUP3 ADD SWAP2 SWAP1 PUSH1 0x0 MSTORE PUSH1 0x20 PUSH1 0x0 KECCAK256 SWAP1 JUMPDEST DUP2 SLOAD DUP2 MSTORE SWAP1 PUSH1 0x1 ADD SWAP1 PUSH1 0x20 ADD DUP1 DUP4 GT PUSH2 0x34C7 JUMPI DUP3 SWAP1 SUB PUSH1 0x1F AND DUP3 ADD SWAP2 JUMPDEST POP POP POP POP POP DUP2 MSTORE PUSH1 0x20 ADD PUSH1 0x3 DUP3 ADD PUSH1 0x0 SWAP1 SLOAD SWAP1 PUSH2 0x100 EXP SWAP1 DIV PUSH1 0xFF AND ISZERO ISZERO ISZERO ISZERO DUP2 MSTORE POP POP DUP2 MSTORE PUSH1 0x20 ADD SWAP1 PUSH1 0x1 ADD SWAP1 PUSH2 0x3350 JUMP JUMPDEST POP POP POP POP SWAP5 POP PUSH1 0x6 DUP1 SLOAD DUP1 PUSH1 0x20 MUL PUSH1 0x20 ADD PUSH1 0x40 MLOAD SWAP1 DUP2 ADD PUSH1 0x40 MSTORE DUP1 SWAP3 SWAP2 SWAP1 DUP2 DUP2 MSTORE PUSH1 0x20 ADD PUSH1 0x0 SWAP1 JUMPDEST DUP3 DUP3 LT ISZERO PUSH2 0x35EB JUMPI DUP4 DUP3 SWAP1 PUSH1 0x0 MSTORE PUSH1 0x20 PUSH1 0x0 KECCAK256 ADD DUP1 SLOAD PUSH2 0x355E SWAP1 PUSH2 0x4D76 JUMP JUMPDEST DUP1 PUSH1 0x1F ADD PUSH1 0x20 DUP1 SWAP2 DIV MUL PUSH1 0x20 ADD PUSH1 0x40 MLOAD SWAP1 DUP2 ADD PUSH1 0x40 MSTORE DUP1 SWAP3 SWAP2 SWAP1 DUP2 DUP2 MSTORE PUSH1 0x20 ADD DUP3 DUP1 SLOAD PUSH2 0x358A SWAP1 PUSH2 0x4D76 JUMP JUMPDEST DUP1 ISZERO PUSH2 0x35D7 JUMPI DUP1 PUSH1 0x1F LT PUSH2 0x35AC JUMPI PUSH2 0x100 DUP1 DUP4 SLOAD DIV MUL DUP4 MSTORE SWAP2 PUSH1 0x20 ADD SWAP2 PUSH2 0x35D7 JUMP JUMPDEST DUP3 ADD SWAP2 SWAP1 PUSH1 0x0 MSTORE PUSH1 0x20 PUSH1 0x0 KECCAK256 SWAP1 JUMPDEST DUP2 SLOAD DUP2 MSTORE SWAP1 PUSH1 0x1 ADD SWAP1 PUSH1 0x20 ADD DUP1 DUP4 GT PUSH2 0x35BA JUMPI DUP3 SWAP1 SUB PUSH1 0x1F AND DUP3 ADD SWAP2 JUMPDEST POP POP POP POP POP DUP2 MSTORE PUSH1 0x20 ADD SWAP1 PUSH1 0x1 ADD SWAP1 PUSH2 0x353F JUMP JUMPDEST POP POP POP POP SWAP4 POP PUSH1 0x8 DUP1 SLOAD DUP1 PUSH1 0x20 MUL PUSH1 0x20 ADD PUSH1 0x40 MLOAD SWAP1 DUP2 ADD PUSH1 0x40 MSTORE DUP1 SWAP3 SWAP2 SWAP1 DUP2 DUP2 MSTORE PUSH1 0x20 ADD DUP3 DUP1 SLOAD DUP1 ISZERO PUSH2 0x3673 JUMPI PUSH1 0x20 MUL DUP3 ADD SWAP2 SWAP1 PUSH1 0x0 MSTORE PUSH1 0x20 PUSH1 0x0 KECCAK256 SWAP1 JUMPDEST DUP2 PUSH1 0x0 SWAP1 SLOAD SWAP1 PUSH2 0x100 EXP SWAP1 DIV PUSH20 0xFFFFFFFFFFFFFFFFFFFFFFFFFFFFFFFFFFFFFFFF AND PUSH20 0xFFFFFFFFFFFFFFFFFFFFFFFFFFFFFFFFFFFFFFFF AND DUP2 MSTORE PUSH1 0x20 ADD SWAP1 PUSH1 0x1 ADD SWAP1 DUP1 DUP4 GT PUSH2 0x3629 JUMPI JUMPDEST POP POP POP POP POP SWAP3 POP POP POP SWAP1 SWAP2 SWAP3 SWAP4 JUMP JUMPDEST PUSH1 0x3 PUSH1 0x2 PUSH1 0x0 CALLER PUSH20 0xFFFFFFFFFFFFFFFFFFFFFFFFFFFFFFFFFFFFFFFF AND PUSH20 0xFFFFFFFFFFFFFFFFFFFFFFFFFFFFFFFFFFFFFFFF AND DUP2 MSTORE PUSH1 0x20 ADD SWAP1 DUP2 MSTORE PUSH1 0x20 ADD PUSH1 0x0 KECCAK256 PUSH1 0x0 ADD SLOAD DUP2 PUSH1 0x5 DUP2 GT ISZERO PUSH2 0x36DA JUMPI PUSH2 0x36D9 PUSH2 0x4DD9 JUMP JUMPDEST JUMPDEST EQ PUSH2 0x371A JUMPI PUSH1 0x40 MLOAD PUSH32 0x8C379A000000000000000000000000000000000000000000000000000000000 DUP2 MSTORE PUSH1 0x4 ADD PUSH2 0x3711 SWAP1 PUSH2 0x4AF7 JUMP JUMPDEST PUSH1 0x40 MLOAD DUP1 SWAP2 SUB SWAP1 REVERT JUMPDEST POP POP JUMP JUMPDEST PUSH1 0x0 PUSH1 0x60 DUP1 PUSH1 0x0 PUSH1 0x10 DUP6 PUSH1 0x40 MLOAD PUSH2 0x3735 SWAP2 SWAP1 PUSH2 0x4872 JUMP JUMPDEST SWAP1 DUP2 MSTORE PUSH1 0x20 ADD PUSH1 0x40 MLOAD DUP1 SWAP2 SUB SWAP1 KECCAK256 PUSH1 0x40 MLOAD DUP1 PUSH1 0x80 ADD PUSH1 0x40 MSTORE SWAP1 DUP2 PUSH1 0x0 DUP3 ADD PUSH1 0x0 SWAP1 SLOAD SWAP1 PUSH2 0x100 EXP SWAP1 DIV PUSH20 0xFFFFFFFFFFFFFFFFFFFFFFFFFFFFFFFFFFFFFFFF AND PUSH20 0xFFFFFFFFFFFFFFFFFFFFFFFFFFFFFFFFFFFFFFFF AND PUSH20 0xFFFFFFFFFFFFFFFFFFFFFFFFFFFFFFFFFFFFFFFF AND DUP2 MSTORE PUSH1 0x20 ADD PUSH1 0x1 DUP3 ADD DUP1 SLOAD PUSH2 0x37B4 SWAP1 PUSH2 0x4D76 JUMP JUMPDEST DUP1 PUSH1 0x1F ADD PUSH1 0x20 DUP1 SWAP2 DIV MUL PUSH1 0x20 ADD PUSH1 0x40 MLOAD SWAP1 DUP2 ADD PUSH1 0x40 MSTORE DUP1 SWAP3 SWAP2 SWAP1 DUP2 DUP2 MSTORE PUSH1 0x20 ADD DUP3 DUP1 SLOAD PUSH2 0x37E0 SWAP1 PUSH2 0x4D76 JUMP JUMPDEST DUP1 ISZERO PUSH2 0x382D JUMPI DUP1 PUSH1 0x1F LT PUSH2 0x3802 JUMPI PUSH2 0x100 DUP1 DUP4 SLOAD DIV MUL DUP4 MSTORE SWAP2 PUSH1 0x20 ADD SWAP2 PUSH2 0x382D JUMP JUMPDEST DUP3 ADD SWAP2 SWAP1 PUSH1 0x0 MSTORE PUSH1 0x20 PUSH1 0x0 KECCAK256 SWAP1 JUMPDEST DUP2 SLOAD DUP2 MSTORE SWAP1 PUSH1 0x1 ADD SWAP1 PUSH1 0x20 ADD DUP1 DUP4 GT PUSH2 0x3810 JUMPI DUP3 SWAP1 SUB PUSH1 0x1F AND DUP3 ADD SWAP2 JUMPDEST POP POP POP POP POP DUP2 MSTORE PUSH1 0x20 ADD PUSH1 0x2 DUP3 ADD DUP1 SLOAD PUSH2 0x3846 SWAP1 PUSH2 0x4D76 JUMP JUMPDEST DUP1 PUSH1 0x1F ADD PUSH1 0x20 DUP1 SWAP2 DIV MUL PUSH1 0x20 ADD PUSH1 0x40 MLOAD SWAP1 DUP2 ADD PUSH1 0x40 MSTORE DUP1 SWAP3 SWAP2 SWAP1 DUP2 DUP2 MSTORE PUSH1 0x20 ADD DUP3 DUP1 SLOAD PUSH2 0x3872 SWAP1 PUSH2 0x4D76 JUMP JUMPDEST DUP1 ISZERO PUSH2 0x38BF JUMPI DUP1 PUSH1 0x1F LT PUSH2 0x3894 JUMPI PUSH2 0x100 DUP1 DUP4 SLOAD DIV MUL DUP4 MSTORE SWAP2 PUSH1 0x20 ADD SWAP2 PUSH2 0x38BF JUMP JUMPDEST DUP3 ADD SWAP2 SWAP1 PUSH1 0x0 MSTORE PUSH1 0x20 PUSH1 0x0 KECCAK256 SWAP1 JUMPDEST DUP2 SLOAD DUP2 MSTORE SWAP1 PUSH1 0x1 ADD SWAP1 PUSH1 0x20 ADD DUP1 DUP4 GT PUSH2 0x38A2 JUMPI DUP3 SWAP1 SUB PUSH1 0x1F AND DUP3 ADD SWAP2 JUMPDEST POP POP POP POP POP DUP2 MSTORE PUSH1 0x20 ADD PUSH1 0x3 DUP3 ADD PUSH1 0x0 SWAP1 SLOAD SWAP1 PUSH2 0x100 EXP SWAP1 DIV PUSH1 0xFF AND ISZERO ISZERO ISZERO ISZERO DUP2 MSTORE POP POP SWAP1 POP DUP1 PUSH1 0x0 ADD MLOAD SWAP4 POP DUP1 PUSH1 0x20 ADD MLOAD SWAP3 POP DUP1 PUSH1 0x40 ADD MLOAD SWAP2 POP POP SWAP2 SWAP4 SWAP1 SWAP3 POP JUMP JUMPDEST PUSH1 0x5 PUSH1 0x0 SWAP1 SLOAD SWAP1 PUSH2 0x100 EXP SWAP1 DIV PUSH20 0xFFFFFFFFFFFFFFFFFFFFFFFFFFFFFFFFFFFFFFFF AND PUSH20 0xFFFFFFFFFFFFFFFFFFFFFFFFFFFFFFFFFFFFFFFF AND CALLER PUSH20 0xFFFFFFFFFFFFFFFFFFFFFFFFFFFFFFFFFFFFFFFF AND EQ PUSH2 0x3992 JUMPI PUSH1 0x40 MLOAD PUSH32 0x8C379A000000000000000000000000000000000000000000000000000000000 DUP2 MSTORE PUSH1 0x4 ADD PUSH2 0x3989 SWAP1 PUSH2 0x4B37 JUMP JUMPDEST PUSH1 0x40 MLOAD DUP1 SWAP2 SUB SWAP1 REVERT JUMPDEST PUSH1 0x0 PUSH1 0x3 PUSH1 0x5 DUP2 GT ISZERO PUSH2 0x39A8 JUMPI PUSH2 0x39A7 PUSH2 0x4DD9 JUMP JUMPDEST JUMPDEST SWAP1 POP PUSH2 0x39B6 DUP4 DUP4 DUP4 CALLER PUSH2 0x39F7 JUMP JUMPDEST PUSH1 0x6 DUP3 SWAP1 DUP1 PUSH1 0x1 DUP2 SLOAD ADD DUP1 DUP3 SSTORE DUP1 SWAP2 POP POP PUSH1 0x1 SWAP1 SUB SWAP1 PUSH1 0x0 MSTORE PUSH1 0x20 PUSH1 0x0 KECCAK256 ADD PUSH1 0x0 SWAP1 SWAP2 SWAP1 SWAP2 SWAP1 SWAP2 POP SWAP1 DUP1 MLOAD SWAP1 PUSH1 0x20 ADD SWAP1 PUSH2 0x39F1 SWAP3 SWAP2 SWAP1 PUSH2 0x3D54 JUMP JUMPDEST POP POP POP POP JUMP JUMPDEST DUP1 DUP4 PUSH2 0x3ADC PUSH1 0x2 PUSH1 0x0 DUP5 PUSH20 0xFFFFFFFFFFFFFFFFFFFFFFFFFFFFFFFFFFFFFFFF AND PUSH20 0xFFFFFFFFFFFFFFFFFFFFFFFFFFFFFFFFFFFFFFFF AND DUP2 MSTORE PUSH1 0x20 ADD SWAP1 DUP2 MSTORE PUSH1 0x20 ADD PUSH1 0x0 KECCAK256 PUSH1 0x2 ADD DUP1 SLOAD PUSH2 0x3A49 SWAP1 PUSH2 0x4D76 JUMP JUMPDEST DUP1 PUSH1 0x1F ADD PUSH1 0x20 DUP1 SWAP2 DIV MUL PUSH1 0x20 ADD PUSH1 0x40 MLOAD SWAP1 DUP2 ADD PUSH1 0x40 MSTORE DUP1 SWAP3 SWAP2 SWAP1 DUP2 DUP2 MSTORE PUSH1 0x20 ADD DUP3 DUP1 SLOAD PUSH2 0x3A75 SWAP1 PUSH2 0x4D76 JUMP JUMPDEST DUP1 ISZERO PUSH2 0x3AC2 JUMPI DUP1 PUSH1 0x1F LT PUSH2 0x3A97 JUMPI PUSH2 0x100 DUP1 DUP4 SLOAD DIV MUL DUP4 MSTORE SWAP2 PUSH1 0x20 ADD SWAP2 PUSH2 0x3AC2 JUMP JUMPDEST DUP3 ADD SWAP2 SWAP1 PUSH1 0x0 MSTORE PUSH1 0x20 PUSH1 0x0 KECCAK256 SWAP1 JUMPDEST DUP2 SLOAD DUP2 MSTORE SWAP1 PUSH1 0x1 ADD SWAP1 PUSH1 0x20 ADD DUP1 DUP4 GT PUSH2 0x3AA5 JUMPI DUP3 SWAP1 SUB PUSH1 0x1F AND DUP3 ADD SWAP2 JUMPDEST POP POP POP POP POP PUSH1 0x40 MLOAD DUP1 PUSH1 0x20 ADD PUSH1 0x40 MSTORE DUP1 PUSH1 0x0 DUP2 MSTORE POP PUSH2 0x3CFB JUMP JUMPDEST ISZERO PUSH2 0x3B1C JUMPI PUSH1 0x40 MLOAD PUSH32 0x8C379A000000000000000000000000000000000000000000000000000000000 DUP2 MSTORE PUSH1 0x4 ADD PUSH2 0x3B13 SWAP1 PUSH2 0x4B57 JUMP JUMPDEST PUSH1 0x40 MLOAD DUP1 SWAP2 SUB SWAP1 REVERT JUMPDEST PUSH1 0x0 PUSH20 0xFFFFFFFFFFFFFFFFFFFFFFFFFFFFFFFFFFFFFFFF AND PUSH1 0x1 DUP3 PUSH1 0x40 MLOAD PUSH2 0x3B44 SWAP2 SWAP1 PUSH2 0x4872 JUMP JUMPDEST SWAP1 DUP2 MSTORE PUSH1 0x20 ADD PUSH1 0x40 MLOAD DUP1 SWAP2 SUB SWAP1 KECCAK256 PUSH1 0x0 SWAP1 SLOAD SWAP1 PUSH2 0x100 EXP SWAP1 DIV PUSH20 0xFFFFFFFFFFFFFFFFFFFFFFFFFFFFFFFFFFFFFFFF AND PUSH20 0xFFFFFFFFFFFFFFFFFFFFFFFFFFFFFFFFFFFFFFFF AND EQ PUSH2 0x3BC9 JUMPI PUSH1 0x40 MLOAD PUSH32 0x8C379A000000000000000000000000000000000000000000000000000000000 DUP2 MSTORE PUSH1 0x4 ADD PUSH2 0x3BC0 SWAP1 PUSH2 0x4AB7 JUMP JUMPDEST PUSH1 0x40 MLOAD DUP1 SWAP2 SUB SWAP1 REVERT JUMPDEST PUSH1 0x60 PUSH1 0x0 PUSH1 0x40 MLOAD DUP1 PUSH1 0x80 ADD PUSH1 0x40 MSTORE DUP1 DUP8 DUP2 MSTORE PUSH1 0x20 ADD DUP9 DUP2 MSTORE PUSH1 0x20 ADD DUP10 DUP2 MSTORE PUSH1 0x20 ADD DUP4 DUP2 MSTORE POP SWAP1 POP DUP5 PUSH1 0x1 DUP9 PUSH1 0x40 MLOAD PUSH2 0x3C01 SWAP2 SWAP1 PUSH2 0x4872 JUMP JUMPDEST SWAP1 DUP2 MSTORE PUSH1 0x20 ADD PUSH1 0x40 MLOAD DUP1 SWAP2 SUB SWAP1 KECCAK256 PUSH1 0x0 PUSH2 0x100 EXP DUP2 SLOAD DUP2 PUSH20 0xFFFFFFFFFFFFFFFFFFFFFFFFFFFFFFFFFFFFFFFF MUL NOT AND SWAP1 DUP4 PUSH20 0xFFFFFFFFFFFFFFFFFFFFFFFFFFFFFFFFFFFFFFFF AND MUL OR SWAP1 SSTORE POP DUP1 PUSH1 0x2 PUSH1 0x0 DUP8 PUSH20 0xFFFFFFFFFFFFFFFFFFFFFFFFFFFFFFFFFFFFFFFF AND PUSH20 0xFFFFFFFFFFFFFFFFFFFFFFFFFFFFFFFFFFFFFFFF AND DUP2 MSTORE PUSH1 0x20 ADD SWAP1 DUP2 MSTORE PUSH1 0x20 ADD PUSH1 0x0 KECCAK256 PUSH1 0x0 DUP3 ADD MLOAD DUP2 PUSH1 0x0 ADD SSTORE PUSH1 0x20 DUP3 ADD MLOAD DUP2 PUSH1 0x1 ADD SWAP1 DUP1 MLOAD SWAP1 PUSH1 0x20 ADD SWAP1 PUSH2 0x3CB3 SWAP3 SWAP2 SWAP1 PUSH2 0x3D54 JUMP JUMPDEST POP PUSH1 0x40 DUP3 ADD MLOAD DUP2 PUSH1 0x2 ADD SWAP1 DUP1 MLOAD SWAP1 PUSH1 0x20 ADD SWAP1 PUSH2 0x3CD0 SWAP3 SWAP2 SWAP1 PUSH2 0x3D54 JUMP JUMPDEST POP PUSH1 0x60 DUP3 ADD MLOAD DUP2 PUSH1 0x3 ADD SWAP1 DUP1 MLOAD SWAP1 PUSH1 0x20 ADD SWAP1 PUSH2 0x3CED SWAP3 SWAP2 SWAP1 PUSH2 0x3E64 JUMP JUMPDEST POP SWAP1 POP POP POP POP POP POP POP POP POP POP JUMP JUMPDEST PUSH1 0x0 DUP2 PUSH1 0x40 MLOAD PUSH1 0x20 ADD PUSH2 0x3D0E SWAP2 SWAP1 PUSH2 0x4872 JUMP JUMPDEST PUSH1 0x40 MLOAD PUSH1 0x20 DUP2 DUP4 SUB SUB DUP2 MSTORE SWAP1 PUSH1 0x40 MSTORE DUP1 MLOAD SWAP1 PUSH1 0x20 ADD KECCAK256 DUP4 PUSH1 0x40 MLOAD PUSH1 0x20 ADD PUSH2 0x3D35 SWAP2 SWAP1 PUSH2 0x4872 JUMP JUMPDEST PUSH1 0x40 MLOAD PUSH1 0x20 DUP2 DUP4 SUB SUB DUP2 MSTORE SWAP1 PUSH1 0x40 MSTORE DUP1 MLOAD SWAP1 PUSH1 0x20 ADD KECCAK256 EQ SWAP1 POP SWAP3 SWAP2 POP POP JUMP JUMPDEST DUP3 DUP1 SLOAD PUSH2 0x3D60 SWAP1 PUSH2 0x4D76 JUMP JUMPDEST SWAP1 PUSH1 0x0 MSTORE PUSH1 0x20 PUSH1 0x0 KECCAK256 SWAP1 PUSH1 0x1F ADD PUSH1 0x20 SWAP1 DIV DUP2 ADD SWAP3 DUP3 PUSH2 0x3D82 JUMPI PUSH1 0x0 DUP6 SSTORE PUSH2 0x3DC9 JUMP JUMPDEST DUP3 PUSH1 0x1F LT PUSH2 0x3D9B JUMPI DUP1 MLOAD PUSH1 0xFF NOT AND DUP4 DUP1 ADD OR DUP6 SSTORE PUSH2 0x3DC9 JUMP JUMPDEST DUP3 DUP1 ADD PUSH1 0x1 ADD DUP6 SSTORE DUP3 ISZERO PUSH2 0x3DC9 JUMPI SWAP2 DUP3 ADD JUMPDEST DUP3 DUP2 GT ISZERO PUSH2 0x3DC8 JUMPI DUP3 MLOAD DUP3 SSTORE SWAP2 PUSH1 0x20 ADD SWAP2 SWAP1 PUSH1 0x1 ADD SWAP1 PUSH2 0x3DAD JUMP JUMPDEST JUMPDEST POP SWAP1 POP PUSH2 0x3DD6 SWAP2 SWAP1 PUSH2 0x3EC4 JUMP JUMPDEST POP SWAP1 JUMP JUMPDEST DUP3 DUP1 SLOAD DUP3 DUP3 SSTORE SWAP1 PUSH1 0x0 MSTORE PUSH1 0x20 PUSH1 0x0 KECCAK256 SWAP1 DUP2 ADD SWAP3 DUP3 ISZERO PUSH2 0x3E53 JUMPI SWAP2 PUSH1 0x20 MUL DUP3 ADD JUMPDEST DUP3 DUP2 GT ISZERO PUSH2 0x3E52 JUMPI DUP3 MLOAD DUP3 PUSH1 0x0 PUSH2 0x100 EXP DUP2 SLOAD DUP2 PUSH20 0xFFFFFFFFFFFFFFFFFFFFFFFFFFFFFFFFFFFFFFFF MUL NOT AND SWAP1 DUP4 PUSH20 0xFFFFFFFFFFFFFFFFFFFFFFFFFFFFFFFFFFFFFFFF AND MUL OR SWAP1 SSTORE POP SWAP2 PUSH1 0x20 ADD SWAP2 SWAP1 PUSH1 0x1 ADD SWAP1 PUSH2 0x3DFA JUMP JUMPDEST JUMPDEST POP SWAP1 POP PUSH2 0x3E60 SWAP2 SWAP1 PUSH2 0x3EC4 JUMP JUMPDEST POP SWAP1 JUMP JUMPDEST DUP3 DUP1 SLOAD DUP3 DUP3 SSTORE SWAP1 PUSH1 0x0 MSTORE PUSH1 0x20 PUSH1 0x0 KECCAK256 SWAP1 DUP2 ADD SWAP3 DUP3 ISZERO PUSH2 0x3EB3 JUMPI SWAP2 PUSH1 0x20 MUL DUP3 ADD JUMPDEST DUP3 DUP2 GT ISZERO PUSH2 0x3EB2 JUMPI DUP3 MLOAD DUP3 SWAP1 DUP1 MLOAD SWAP1 PUSH1 0x20 ADD SWAP1 PUSH2 0x3EA2 SWAP3 SWAP2 SWAP1 PUSH2 0x3D54 JUMP JUMPDEST POP SWAP2 PUSH1 0x20 ADD SWAP2 SWAP1 PUSH1 0x1 ADD SWAP1 PUSH2 0x3E84 JUMP JUMPDEST JUMPDEST POP SWAP1 POP PUSH2 0x3EC0 SWAP2 SWAP1 PUSH2 0x3EE1 JUMP JUMPDEST POP SWAP1 JUMP JUMPDEST JUMPDEST DUP1 DUP3 GT ISZERO PUSH2 0x3EDD JUMPI PUSH1 0x0 DUP2 PUSH1 0x0 SWAP1 SSTORE POP PUSH1 0x1 ADD PUSH2 0x3EC5 JUMP JUMPDEST POP SWAP1 JUMP JUMPDEST JUMPDEST DUP1 DUP3 GT ISZERO PUSH2 0x3F01 JUMPI PUSH1 0x0 DUP2 DUP2 PUSH2 0x3EF8 SWAP2 SWAP1 PUSH2 0x3F05 JUMP JUMPDEST POP PUSH1 0x1 ADD PUSH2 0x3EE2 JUMP JUMPDEST POP SWAP1 JUMP JUMPDEST POP DUP1 SLOAD PUSH2 0x3F11 SWAP1 PUSH2 0x4D76 JUMP JUMPDEST PUSH1 0x0 DUP3 SSTORE DUP1 PUSH1 0x1F LT PUSH2 0x3F23 JUMPI POP PUSH2 0x3F42 JUMP JUMPDEST PUSH1 0x1F ADD PUSH1 0x20 SWAP1 DIV SWAP1 PUSH1 0x0 MSTORE PUSH1 0x20 PUSH1 0x0 KECCAK256 SWAP1 DUP2 ADD SWAP1 PUSH2 0x3F41 SWAP2 SWAP1 PUSH2 0x3EC4 JUMP JUMPDEST JUMPDEST POP JUMP JUMPDEST PUSH1 0x0 PUSH2 0x3F58 PUSH2 0x3F53 DUP5 PUSH2 0x4BBC JUMP JUMPDEST PUSH2 0x4B97 JUMP JUMPDEST SWAP1 POP DUP3 DUP2 MSTORE PUSH1 0x20 DUP2 ADD DUP5 DUP5 DUP5 ADD GT ISZERO PUSH2 0x3F74 JUMPI PUSH2 0x3F73 PUSH2 0x4E6B JUMP JUMPDEST JUMPDEST PUSH2 0x3F7F DUP5 DUP3 DUP6 PUSH2 0x4D34 JUMP JUMPDEST POP SWAP4 SWAP3 POP POP POP JUMP JUMPDEST PUSH1 0x0 DUP2 CALLDATALOAD SWAP1 POP PUSH2 0x3F96 DUP2 PUSH2 0x4FF9 JUMP JUMPDEST SWAP3 SWAP2 POP POP JUMP JUMPDEST PUSH1 0x0 DUP2 CALLDATALOAD SWAP1 POP PUSH2 0x3FAB DUP2 PUSH2 0x5010 JUMP JUMPDEST SWAP3 SWAP2 POP POP JUMP JUMPDEST PUSH1 0x0 DUP2 CALLDATALOAD SWAP1 POP PUSH2 0x3FC0 DUP2 PUSH2 0x5027 JUMP JUMPDEST SWAP3 SWAP2 POP POP JUMP JUMPDEST PUSH1 0x0 DUP3 PUSH1 0x1F DUP4 ADD SLT PUSH2 0x3FDB JUMPI PUSH2 0x3FDA PUSH2 0x4E66 JUMP JUMPDEST JUMPDEST DUP2 CALLDATALOAD PUSH2 0x3FEB DUP5 DUP3 PUSH1 0x20 DUP7 ADD PUSH2 0x3F45 JUMP JUMPDEST SWAP2 POP POP SWAP3 SWAP2 POP POP JUMP JUMPDEST PUSH1 0x0 PUSH1 0x20 DUP3 DUP5 SUB SLT ISZERO PUSH2 0x400A JUMPI PUSH2 0x4009 PUSH2 0x4E75 JUMP JUMPDEST JUMPDEST PUSH1 0x0 PUSH2 0x4018 DUP5 DUP3 DUP6 ADD PUSH2 0x3F87 JUMP JUMPDEST SWAP2 POP POP SWAP3 SWAP2 POP POP JUMP JUMPDEST PUSH1 0x0 PUSH1 0x20 DUP3 DUP5 SUB SLT ISZERO PUSH2 0x4037 JUMPI PUSH2 0x4036 PUSH2 0x4E75 JUMP JUMPDEST JUMPDEST PUSH1 0x0 PUSH2 0x4045 DUP5 DUP3 DUP6 ADD PUSH2 0x3F9C JUMP JUMPDEST SWAP2 POP POP SWAP3 SWAP2 POP POP JUMP JUMPDEST PUSH1 0x0 DUP1 PUSH1 0x0 PUSH1 0x60 DUP5 DUP7 SUB SLT ISZERO PUSH2 0x4067 JUMPI PUSH2 0x4066 PUSH2 0x4E75 JUMP JUMPDEST JUMPDEST PUSH1 0x0 PUSH2 0x4075 DUP7 DUP3 DUP8 ADD PUSH2 0x3F87 JUMP JUMPDEST SWAP4 POP POP PUSH1 0x20 DUP5 ADD CALLDATALOAD PUSH8 0xFFFFFFFFFFFFFFFF DUP2 GT ISZERO PUSH2 0x4096 JUMPI PUSH2 0x4095 PUSH2 0x4E70 JUMP JUMPDEST JUMPDEST PUSH2 0x40A2 DUP7 DUP3 DUP8 ADD PUSH2 0x3FC6 JUMP JUMPDEST SWAP3 POP POP PUSH1 0x40 DUP5 ADD CALLDATALOAD PUSH8 0xFFFFFFFFFFFFFFFF DUP2 GT ISZERO PUSH2 0x40C3 JUMPI PUSH2 0x40C2 PUSH2 0x4E70 JUMP JUMPDEST JUMPDEST PUSH2 0x40CF DUP7 DUP3 DUP8 ADD PUSH2 0x3FC6 JUMP JUMPDEST SWAP2 POP POP SWAP3 POP SWAP3 POP SWAP3 JUMP JUMPDEST PUSH1 0x0 DUP1 PUSH1 0x0 DUP1 PUSH1 0x80 DUP6 DUP8 SUB SLT ISZERO PUSH2 0x40F3 JUMPI PUSH2 0x40F2 PUSH2 0x4E75 JUMP JUMPDEST JUMPDEST PUSH1 0x0 PUSH2 0x4101 DUP8 DUP3 DUP9 ADD PUSH2 0x3F87 JUMP JUMPDEST SWAP5 POP POP PUSH1 0x20 DUP6 ADD CALLDATALOAD PUSH8 0xFFFFFFFFFFFFFFFF DUP2 GT ISZERO PUSH2 0x4122 JUMPI PUSH2 0x4121 PUSH2 0x4E70 JUMP JUMPDEST JUMPDEST PUSH2 0x412E DUP8 DUP3 DUP9 ADD PUSH2 0x3FC6 JUMP JUMPDEST SWAP4 POP POP PUSH1 0x40 DUP6 ADD CALLDATALOAD PUSH8 0xFFFFFFFFFFFFFFFF DUP2 GT ISZERO PUSH2 0x414F JUMPI PUSH2 0x414E PUSH2 0x4E70 JUMP JUMPDEST JUMPDEST PUSH2 0x415B DUP8 DUP3 DUP9 ADD PUSH2 0x3FC6 JUMP JUMPDEST SWAP3 POP POP PUSH1 0x60 PUSH2 0x416C DUP8 DUP3 DUP9 ADD PUSH2 0x3FB1 JUMP JUMPDEST SWAP2 POP POP SWAP3 SWAP6 SWAP2 SWAP5 POP SWAP3 POP JUMP JUMPDEST PUSH1 0x0 DUP1 PUSH1 0x0 DUP1 PUSH1 0x80 DUP6 DUP8 SUB SLT ISZERO PUSH2 0x4192 JUMPI PUSH2 0x4191 PUSH2 0x4E75 JUMP JUMPDEST JUMPDEST PUSH1 0x0 PUSH2 0x41A0 DUP8 DUP3 DUP9 ADD PUSH2 0x3F87 JUMP JUMPDEST SWAP5 POP POP PUSH1 0x20 DUP6 ADD CALLDATALOAD PUSH8 0xFFFFFFFFFFFFFFFF DUP2 GT ISZERO PUSH2 0x41C1 JUMPI PUSH2 0x41C0 PUSH2 0x4E70 JUMP JUMPDEST JUMPDEST PUSH2 0x41CD DUP8 DUP3 DUP9 ADD PUSH2 0x3FC6 JUMP JUMPDEST SWAP4 POP POP PUSH1 0x40 DUP6 ADD CALLDATALOAD PUSH8 0xFFFFFFFFFFFFFFFF DUP2 GT ISZERO PUSH2 0x41EE JUMPI PUSH2 0x41ED PUSH2 0x4E70 JUMP JUMPDEST JUMPDEST PUSH2 0x41FA DUP8 DUP3 DUP9 ADD PUSH2 0x3FC6 JUMP JUMPDEST SWAP3 POP POP PUSH1 0x60 DUP6 ADD CALLDATALOAD PUSH8 0xFFFFFFFFFFFFFFFF DUP2 GT ISZERO PUSH2 0x421B JUMPI PUSH2 0x421A PUSH2 0x4E70 JUMP JUMPDEST JUMPDEST PUSH2 0x4227 DUP8 DUP3 DUP9 ADD PUSH2 0x3FC6 JUMP JUMPDEST SWAP2 POP POP SWAP3 SWAP6 SWAP2 SWAP5 POP SWAP3 POP JUMP JUMPDEST PUSH1 0x0 PUSH1 0x20 DUP3 DUP5 SUB SLT ISZERO PUSH2 0x4249 JUMPI PUSH2 0x4248 PUSH2 0x4E75 JUMP JUMPDEST JUMPDEST PUSH1 0x0 DUP3 ADD CALLDATALOAD PUSH8 0xFFFFFFFFFFFFFFFF DUP2 GT ISZERO PUSH2 0x4267 JUMPI PUSH2 0x4266 PUSH2 0x4E70 JUMP JUMPDEST JUMPDEST PUSH2 0x4273 DUP5 DUP3 DUP6 ADD PUSH2 0x3FC6 JUMP JUMPDEST SWAP2 POP POP SWAP3 SWAP2 POP POP JUMP JUMPDEST PUSH1 0x0 DUP1 PUSH1 0x40 DUP4 DUP6 SUB SLT ISZERO PUSH2 0x4293 JUMPI PUSH2 0x4292 PUSH2 0x4E75 JUMP JUMPDEST JUMPDEST PUSH1 0x0 DUP4 ADD CALLDATALOAD PUSH8 0xFFFFFFFFFFFFFFFF DUP2 GT ISZERO PUSH2 0x42B1 JUMPI PUSH2 0x42B0 PUSH2 0x4E70 JUMP JUMPDEST JUMPDEST PUSH2 0x42BD DUP6 DUP3 DUP7 ADD PUSH2 0x3FC6 JUMP JUMPDEST SWAP3 POP POP PUSH1 0x20 PUSH2 0x42CE DUP6 DUP3 DUP7 ADD PUSH2 0x3F87 JUMP JUMPDEST SWAP2 POP POP SWAP3 POP SWAP3 SWAP1 POP JUMP JUMPDEST PUSH1 0x0 DUP1 PUSH1 0x40 DUP4 DUP6 SUB SLT ISZERO PUSH2 0x42EF JUMPI PUSH2 0x42EE PUSH2 0x4E75 JUMP JUMPDEST JUMPDEST PUSH1 0x0 DUP4 ADD CALLDATALOAD PUSH8 0xFFFFFFFFFFFFFFFF DUP2 GT ISZERO PUSH2 0x430D JUMPI PUSH2 0x430C PUSH2 0x4E70 JUMP JUMPDEST JUMPDEST PUSH2 0x4319 DUP6 DUP3 DUP7 ADD PUSH2 0x3FC6 JUMP JUMPDEST SWAP3 POP POP PUSH1 0x20 DUP4 ADD CALLDATALOAD PUSH8 0xFFFFFFFFFFFFFFFF DUP2 GT ISZERO PUSH2 0x433A JUMPI PUSH2 0x4339 PUSH2 0x4E70 JUMP JUMPDEST JUMPDEST PUSH2 0x4346 DUP6 DUP3 DUP7 ADD PUSH2 0x3FC6 JUMP JUMPDEST SWAP2 POP POP SWAP3 POP SWAP3 SWAP1 POP JUMP JUMPDEST PUSH1 0x0 DUP1 PUSH1 0x0 PUSH1 0x60 DUP5 DUP7 SUB SLT ISZERO PUSH2 0x4369 JUMPI PUSH2 0x4368 PUSH2 0x4E75 JUMP JUMPDEST JUMPDEST PUSH1 0x0 DUP5 ADD CALLDATALOAD PUSH8 0xFFFFFFFFFFFFFFFF DUP2 GT ISZERO PUSH2 0x4387 JUMPI PUSH2 0x4386 PUSH2 0x4E70 JUMP JUMPDEST JUMPDEST PUSH2 0x4393 DUP7 DUP3 DUP8 ADD PUSH2 0x3FC6 JUMP JUMPDEST SWAP4 POP POP PUSH1 0x20 DUP5 ADD CALLDATALOAD PUSH8 0xFFFFFFFFFFFFFFFF DUP2 GT ISZERO PUSH2 0x43B4 JUMPI PUSH2 0x43B3 PUSH2 0x4E70 JUMP JUMPDEST JUMPDEST PUSH2 0x43C0 DUP7 DUP3 DUP8 ADD PUSH2 0x3FC6 JUMP JUMPDEST SWAP3 POP POP PUSH1 0x40 PUSH2 0x43D1 DUP7 DUP3 DUP8 ADD PUSH2 0x3F87 JUMP JUMPDEST SWAP2 POP POP SWAP3 POP SWAP3 POP SWAP3 JUMP JUMPDEST PUSH1 0x0 DUP1 PUSH1 0x0 DUP1 PUSH1 0x80 DUP6 DUP8 SUB SLT ISZERO PUSH2 0x43F5 JUMPI PUSH2 0x43F4 PUSH2 0x4E75 JUMP JUMPDEST JUMPDEST PUSH1 0x0 DUP6 ADD CALLDATALOAD PUSH8 0xFFFFFFFFFFFFFFFF DUP2 GT ISZERO PUSH2 0x4413 JUMPI PUSH2 0x4412 PUSH2 0x4E70 JUMP JUMPDEST JUMPDEST PUSH2 0x441F DUP8 DUP3 DUP9 ADD PUSH2 0x3FC6 JUMP JUMPDEST SWAP5 POP POP PUSH1 0x20 DUP6 ADD CALLDATALOAD PUSH8 0xFFFFFFFFFFFFFFFF DUP2 GT ISZERO PUSH2 0x4440 JUMPI PUSH2 0x443F PUSH2 0x4E70 JUMP JUMPDEST JUMPDEST PUSH2 0x444C DUP8 DUP3 DUP9 ADD PUSH2 0x3FC6 JUMP JUMPDEST SWAP4 POP POP PUSH1 0x40 PUSH2 0x445D DUP8 DUP3 DUP9 ADD PUSH2 0x3F87 JUMP JUMPDEST SWAP3 POP POP PUSH1 0x60 PUSH2 0x446E DUP8 DUP3 DUP9 ADD PUSH2 0x3F87 JUMP JUMPDEST SWAP2 POP POP SWAP3 SWAP6 SWAP2 SWAP5 POP SWAP3 POP JUMP JUMPDEST PUSH1 0x0 PUSH2 0x4486 DUP4 DUP4 PUSH2 0x44BA JUMP JUMPDEST PUSH1 0x20 DUP4 ADD SWAP1 POP SWAP3 SWAP2 POP POP JUMP JUMPDEST PUSH1 0x0 PUSH2 0x449E DUP4 DUP4 PUSH2 0x463E JUMP JUMPDEST SWAP1 POP SWAP3 SWAP2 POP POP JUMP JUMPDEST PUSH1 0x0 PUSH2 0x44B2 DUP4 DUP4 PUSH2 0x47F9 JUMP JUMPDEST SWAP1 POP SWAP3 SWAP2 POP POP JUMP JUMPDEST PUSH2 0x44C3 DUP2 PUSH2 0x4CD0 JUMP JUMPDEST DUP3 MSTORE POP POP JUMP JUMPDEST PUSH2 0x44D2 DUP2 PUSH2 0x4CD0 JUMP JUMPDEST DUP3 MSTORE POP POP JUMP JUMPDEST PUSH1 0x0 PUSH2 0x44E3 DUP3 PUSH2 0x4C1D JUMP JUMPDEST PUSH2 0x44ED DUP2 DUP6 PUSH2 0x4C70 JUMP JUMPDEST SWAP4 POP PUSH2 0x44F8 DUP4 PUSH2 0x4BED JUMP JUMPDEST DUP1 PUSH1 0x0 JUMPDEST DUP4 DUP2 LT ISZERO PUSH2 0x4529 JUMPI DUP2 MLOAD PUSH2 0x4510 DUP9 DUP3 PUSH2 0x447A JUMP JUMPDEST SWAP8 POP PUSH2 0x451B DUP4 PUSH2 0x4C49 JUMP JUMPDEST SWAP3 POP POP PUSH1 0x1 DUP2 ADD SWAP1 POP PUSH2 0x44FC JUMP JUMPDEST POP DUP6 SWAP4 POP POP POP POP SWAP3 SWAP2 POP POP JUMP JUMPDEST PUSH1 0x0 PUSH2 0x4541 DUP3 PUSH2 0x4C28 JUMP JUMPDEST PUSH2 0x454B DUP2 DUP6 PUSH2 0x4C81 JUMP JUMPDEST SWAP4 POP DUP4 PUSH1 0x20 DUP3 MUL DUP6 ADD PUSH2 0x455D DUP6 PUSH2 0x4BFD JUMP JUMPDEST DUP1 PUSH1 0x0 JUMPDEST DUP6 DUP2 LT ISZERO PUSH2 0x4599 JUMPI DUP5 DUP5 SUB DUP10 MSTORE DUP2 MLOAD PUSH2 0x457A DUP6 DUP3 PUSH2 0x4492 JUMP JUMPDEST SWAP5 POP PUSH2 0x4585 DUP4 PUSH2 0x4C56 JUMP JUMPDEST SWAP3 POP PUSH1 0x20 DUP11 ADD SWAP10 POP POP PUSH1 0x1 DUP2 ADD SWAP1 POP PUSH2 0x4561 JUMP JUMPDEST POP DUP3 SWAP8 POP DUP8 SWAP6 POP POP POP POP POP POP SWAP3 SWAP2 POP POP JUMP JUMPDEST PUSH1 0x0 PUSH2 0x45B6 DUP3 PUSH2 0x4C33 JUMP JUMPDEST PUSH2 0x45C0 DUP2 DUP6 PUSH2 0x4C92 JUMP JUMPDEST SWAP4 POP DUP4 PUSH1 0x20 DUP3 MUL DUP6 ADD PUSH2 0x45D2 DUP6 PUSH2 0x4C0D JUMP JUMPDEST DUP1 PUSH1 0x0 JUMPDEST DUP6 DUP2 LT ISZERO PUSH2 0x460E JUMPI DUP5 DUP5 SUB DUP10 MSTORE DUP2 MLOAD PUSH2 0x45EF DUP6 DUP3 PUSH2 0x44A6 JUMP JUMPDEST SWAP5 POP PUSH2 0x45FA DUP4 PUSH2 0x4C63 JUMP JUMPDEST SWAP3 POP PUSH1 0x20 DUP11 ADD SWAP10 POP POP PUSH1 0x1 DUP2 ADD SWAP1 POP PUSH2 0x45D6 JUMP JUMPDEST POP DUP3 SWAP8 POP DUP8 SWAP6 POP POP POP POP POP POP SWAP3 SWAP2 POP POP JUMP JUMPDEST PUSH2 0x4629 DUP2 PUSH2 0x4CF4 JUMP JUMPDEST DUP3 MSTORE POP POP JUMP JUMPDEST PUSH2 0x4638 DUP2 PUSH2 0x4D00 JUMP JUMPDEST DUP3 MSTORE POP POP JUMP JUMPDEST PUSH1 0x0 PUSH2 0x4649 DUP3 PUSH2 0x4C3E JUMP JUMPDEST PUSH2 0x4653 DUP2 DUP6 PUSH2 0x4CA3 JUMP JUMPDEST SWAP4 POP PUSH2 0x4663 DUP2 DUP6 PUSH1 0x20 DUP7 ADD PUSH2 0x4D43 JUMP JUMPDEST PUSH2 0x466C DUP2 PUSH2 0x4E7A JUMP JUMPDEST DUP5 ADD SWAP2 POP POP SWAP3 SWAP2 POP POP JUMP JUMPDEST PUSH1 0x0 PUSH2 0x4682 DUP3 PUSH2 0x4C3E JUMP JUMPDEST PUSH2 0x468C DUP2 DUP6 PUSH2 0x4CB4 JUMP JUMPDEST SWAP4 POP PUSH2 0x469C DUP2 DUP6 PUSH1 0x20 DUP7 ADD PUSH2 0x4D43 JUMP JUMPDEST PUSH2 0x46A5 DUP2 PUSH2 0x4E7A JUMP JUMPDEST DUP5 ADD SWAP2 POP POP SWAP3 SWAP2 POP POP JUMP JUMPDEST PUSH1 0x0 PUSH2 0x46BB DUP3 PUSH2 0x4C3E JUMP JUMPDEST PUSH2 0x46C5 DUP2 DUP6 PUSH2 0x4CC5 JUMP JUMPDEST SWAP4 POP PUSH2 0x46D5 DUP2 DUP6 PUSH1 0x20 DUP7 ADD PUSH2 0x4D43 JUMP JUMPDEST DUP1 DUP5 ADD SWAP2 POP POP SWAP3 SWAP2 POP POP JUMP JUMPDEST PUSH1 0x0 PUSH2 0x46EE PUSH1 0x1B DUP4 PUSH2 0x4CB4 JUMP JUMPDEST SWAP2 POP PUSH2 0x46F9 DUP3 PUSH2 0x4E8B JUMP JUMPDEST PUSH1 0x20 DUP3 ADD SWAP1 POP SWAP2 SWAP1 POP JUMP JUMPDEST PUSH1 0x0 PUSH2 0x4711 PUSH1 0x22 DUP4 PUSH2 0x4CB4 JUMP JUMPDEST SWAP2 POP PUSH2 0x471C DUP3 PUSH2 0x4EB4 JUMP JUMPDEST PUSH1 0x40 DUP3 ADD SWAP1 POP SWAP2 SWAP1 POP JUMP JUMPDEST PUSH1 0x0 PUSH2 0x4734 PUSH1 0xB DUP4 PUSH2 0x4CB4 JUMP JUMPDEST SWAP2 POP PUSH2 0x473F DUP3 PUSH2 0x4F03 JUMP JUMPDEST PUSH1 0x20 DUP3 ADD SWAP1 POP SWAP2 SWAP1 POP JUMP JUMPDEST PUSH1 0x0 PUSH2 0x4757 PUSH1 0x9 DUP4 PUSH2 0x4CB4 JUMP JUMPDEST SWAP2 POP PUSH2 0x4762 DUP3 PUSH2 0x4F2C JUMP JUMPDEST PUSH1 0x20 DUP3 ADD SWAP1 POP SWAP2 SWAP1 POP JUMP JUMPDEST PUSH1 0x0 PUSH2 0x477A PUSH1 0xC DUP4 PUSH2 0x4CB4 JUMP JUMPDEST SWAP2 POP PUSH2 0x4785 DUP3 PUSH2 0x4F55 JUMP JUMPDEST PUSH1 0x20 DUP3 ADD SWAP1 POP SWAP2 SWAP1 POP JUMP JUMPDEST PUSH1 0x0 PUSH2 0x479D PUSH1 0xD DUP4 PUSH2 0x4CB4 JUMP JUMPDEST SWAP2 POP PUSH2 0x47A8 DUP3 PUSH2 0x4F7E JUMP JUMPDEST PUSH1 0x20 DUP3 ADD SWAP1 POP SWAP2 SWAP1 POP JUMP JUMPDEST PUSH1 0x0 PUSH2 0x47C0 PUSH1 0x16 DUP4 PUSH2 0x4CB4 JUMP JUMPDEST SWAP2 POP PUSH2 0x47CB DUP3 PUSH2 0x4FA7 JUMP JUMPDEST PUSH1 0x20 DUP3 ADD SWAP1 POP SWAP2 SWAP1 POP JUMP JUMPDEST PUSH1 0x0 PUSH2 0x47E3 PUSH1 0xB DUP4 PUSH2 0x4CB4 JUMP JUMPDEST SWAP2 POP PUSH2 0x47EE DUP3 PUSH2 0x4FD0 JUMP JUMPDEST PUSH1 0x20 DUP3 ADD SWAP1 POP SWAP2 SWAP1 POP JUMP JUMPDEST PUSH1 0x0 PUSH1 0x80 DUP4 ADD PUSH1 0x0 DUP4 ADD MLOAD PUSH2 0x4811 PUSH1 0x0 DUP7 ADD DUP3 PUSH2 0x44BA JUMP JUMPDEST POP PUSH1 0x20 DUP4 ADD MLOAD DUP5 DUP3 SUB PUSH1 0x20 DUP7 ADD MSTORE PUSH2 0x4829 DUP3 DUP3 PUSH2 0x463E JUMP JUMPDEST SWAP2 POP POP PUSH1 0x40 DUP4 ADD MLOAD DUP5 DUP3 SUB PUSH1 0x40 DUP7 ADD MSTORE PUSH2 0x4843 DUP3 DUP3 PUSH2 0x463E JUMP JUMPDEST SWAP2 POP POP PUSH1 0x60 DUP4 ADD MLOAD PUSH2 0x4858 PUSH1 0x60 DUP7 ADD DUP3 PUSH2 0x4620 JUMP JUMPDEST POP DUP1 SWAP2 POP POP SWAP3 SWAP2 POP POP JUMP JUMPDEST PUSH2 0x486C DUP2 PUSH2 0x4D2A JUMP JUMPDEST DUP3 MSTORE POP POP JUMP JUMPDEST PUSH1 0x0 PUSH2 0x487E DUP3 DUP5 PUSH2 0x46B0 JUMP JUMPDEST SWAP2 POP DUP2 SWAP1 POP SWAP3 SWAP2 POP POP JUMP JUMPDEST PUSH1 0x0 PUSH1 0xC0 DUP3 ADD SWAP1 POP PUSH2 0x489E PUSH1 0x0 DUP4 ADD DUP10 PUSH2 0x44C9 JUMP JUMPDEST PUSH2 0x48AB PUSH1 0x20 DUP4 ADD DUP9 PUSH2 0x44C9 JUMP JUMPDEST DUP2 DUP2 SUB PUSH1 0x40 DUP4 ADD MSTORE PUSH2 0x48BD DUP2 DUP8 PUSH2 0x4677 JUMP JUMPDEST SWAP1 POP PUSH2 0x48CC PUSH1 0x60 DUP4 ADD DUP7 PUSH2 0x4863 JUMP JUMPDEST PUSH2 0x48D9 PUSH1 0x80 DUP4 ADD DUP6 PUSH2 0x4863 JUMP JUMPDEST PUSH2 0x48E6 PUSH1 0xA0 DUP4 ADD DUP5 PUSH2 0x462F JUMP JUMPDEST SWAP8 SWAP7 POP POP POP POP POP POP POP JUMP JUMPDEST PUSH1 0x0 PUSH1 0x40 DUP3 ADD SWAP1 POP PUSH2 0x4906 PUSH1 0x0 DUP4 ADD DUP6 PUSH2 0x44C9 JUMP JUMPDEST DUP2 DUP2 SUB PUSH1 0x20 DUP4 ADD MSTORE PUSH2 0x4918 DUP2 DUP5 PUSH2 0x4677 JUMP JUMPDEST SWAP1 POP SWAP4 SWAP3 POP POP POP JUMP JUMPDEST PUSH1 0x0 PUSH1 0x60 DUP3 ADD SWAP1 POP PUSH2 0x4936 PUSH1 0x0 DUP4 ADD DUP7 PUSH2 0x44C9 JUMP JUMPDEST DUP2 DUP2 SUB PUSH1 0x20 DUP4 ADD MSTORE PUSH2 0x4948 DUP2 DUP6 PUSH2 0x4677 JUMP JUMPDEST SWAP1 POP DUP2 DUP2 SUB PUSH1 0x40 DUP4 ADD MSTORE PUSH2 0x495C DUP2 DUP5 PUSH2 0x4677 JUMP JUMPDEST SWAP1 POP SWAP5 SWAP4 POP POP POP POP JUMP JUMPDEST PUSH1 0x0 PUSH1 0x80 DUP3 ADD SWAP1 POP DUP2 DUP2 SUB PUSH1 0x0 DUP4 ADD MSTORE PUSH2 0x4980 DUP2 DUP8 PUSH2 0x4677 JUMP JUMPDEST SWAP1 POP DUP2 DUP2 SUB PUSH1 0x20 DUP4 ADD MSTORE PUSH2 0x4994 DUP2 DUP7 PUSH2 0x45AB JUMP JUMPDEST SWAP1 POP DUP2 DUP2 SUB PUSH1 0x40 DUP4 ADD MSTORE PUSH2 0x49A8 DUP2 DUP6 PUSH2 0x4536 JUMP JUMPDEST SWAP1 POP DUP2 DUP2 SUB PUSH1 0x60 DUP4 ADD MSTORE PUSH2 0x49BC DUP2 DUP5 PUSH2 0x44D8 JUMP JUMPDEST SWAP1 POP SWAP6 SWAP5 POP POP POP POP POP JUMP JUMPDEST PUSH1 0x0 PUSH1 0xA0 DUP3 ADD SWAP1 POP DUP2 DUP2 SUB PUSH1 0x0 DUP4 ADD MSTORE PUSH2 0x49E1 DUP2 DUP9 PUSH2 0x4677 JUMP JUMPDEST SWAP1 POP DUP2 DUP2 SUB PUSH1 0x20 DUP4 ADD MSTORE PUSH2 0x49F5 DUP2 DUP8 PUSH2 0x4677 JUMP JUMPDEST SWAP1 POP DUP2 DUP2 SUB PUSH1 0x40 DUP4 ADD MSTORE PUSH2 0x4A09 DUP2 DUP7 PUSH2 0x4677 JUMP JUMPDEST SWAP1 POP DUP2 DUP2 SUB PUSH1 0x60 DUP4 ADD MSTORE PUSH2 0x4A1D DUP2 DUP6 PUSH2 0x4677 JUMP JUMPDEST SWAP1 POP DUP2 DUP2 SUB PUSH1 0x80 DUP4 ADD MSTORE PUSH2 0x4A31 DUP2 DUP5 PUSH2 0x4536 JUMP JUMPDEST SWAP1 POP SWAP7 SWAP6 POP POP POP POP POP POP JUMP JUMPDEST PUSH1 0x0 PUSH1 0x80 DUP3 ADD SWAP1 POP DUP2 DUP2 SUB PUSH1 0x0 DUP4 ADD MSTORE PUSH2 0x4A57 DUP2 DUP8 PUSH2 0x4677 JUMP JUMPDEST SWAP1 POP DUP2 DUP2 SUB PUSH1 0x20 DUP4 ADD MSTORE PUSH2 0x4A6B DUP2 DUP7 PUSH2 0x4677 JUMP JUMPDEST SWAP1 POP PUSH2 0x4A7A PUSH1 0x40 DUP4 ADD DUP6 PUSH2 0x4863 JUMP JUMPDEST DUP2 DUP2 SUB PUSH1 0x60 DUP4 ADD MSTORE PUSH2 0x4A8C DUP2 DUP5 PUSH2 0x4536 JUMP JUMPDEST SWAP1 POP SWAP6 SWAP5 POP POP POP POP POP JUMP JUMPDEST PUSH1 0x0 PUSH1 0x20 DUP3 ADD SWAP1 POP DUP2 DUP2 SUB PUSH1 0x0 DUP4 ADD MSTORE PUSH2 0x4AB0 DUP2 PUSH2 0x46E1 JUMP JUMPDEST SWAP1 POP SWAP2 SWAP1 POP JUMP JUMPDEST PUSH1 0x0 PUSH1 0x20 DUP3 ADD SWAP1 POP DUP2 DUP2 SUB PUSH1 0x0 DUP4 ADD MSTORE PUSH2 0x4AD0 DUP2 PUSH2 0x4704 JUMP JUMPDEST SWAP1 POP SWAP2 SWAP1 POP JUMP JUMPDEST PUSH1 0x0 PUSH1 0x20 DUP3 ADD SWAP1 POP DUP2 DUP2 SUB PUSH1 0x0 DUP4 ADD MSTORE PUSH2 0x4AF0 DUP2 PUSH2 0x4727 JUMP JUMPDEST SWAP1 POP SWAP2 SWAP1 POP JUMP JUMPDEST PUSH1 0x0 PUSH1 0x20 DUP3 ADD SWAP1 POP DUP2 DUP2 SUB PUSH1 0x0 DUP4 ADD MSTORE PUSH2 0x4B10 DUP2 PUSH2 0x474A JUMP JUMPDEST SWAP1 POP SWAP2 SWAP1 POP JUMP JUMPDEST PUSH1 0x0 PUSH1 0x20 DUP3 ADD SWAP1 POP DUP2 DUP2 SUB PUSH1 0x0 DUP4 ADD MSTORE PUSH2 0x4B30 DUP2 PUSH2 0x476D JUMP JUMPDEST SWAP1 POP SWAP2 SWAP1 POP JUMP JUMPDEST PUSH1 0x0 PUSH1 0x20 DUP3 ADD SWAP1 POP DUP2 DUP2 SUB PUSH1 0x0 DUP4 ADD MSTORE PUSH2 0x4B50 DUP2 PUSH2 0x4790 JUMP JUMPDEST SWAP1 POP SWAP2 SWAP1 POP JUMP JUMPDEST PUSH1 0x0 PUSH1 0x20 DUP3 ADD SWAP1 POP DUP2 DUP2 SUB PUSH1 0x0 DUP4 ADD MSTORE PUSH2 0x4B70 DUP2 PUSH2 0x47B3 JUMP JUMPDEST SWAP1 POP SWAP2 SWAP1 POP JUMP JUMPDEST PUSH1 0x0 PUSH1 0x20 DUP3 ADD SWAP1 POP DUP2 DUP2 SUB PUSH1 0x0 DUP4 ADD MSTORE PUSH2 0x4B90 DUP2 PUSH2 0x47D6 JUMP JUMPDEST SWAP1 POP SWAP2 SWAP1 POP JUMP JUMPDEST PUSH1 0x0 PUSH2 0x4BA1 PUSH2 0x4BB2 JUMP JUMPDEST SWAP1 POP PUSH2 0x4BAD DUP3 DUP3 PUSH2 0x4DA8 JUMP JUMPDEST SWAP2 SWAP1 POP JUMP JUMPDEST PUSH1 0x0 PUSH1 0x40 MLOAD SWAP1 POP SWAP1 JUMP JUMPDEST PUSH1 0x0 PUSH8 0xFFFFFFFFFFFFFFFF DUP3 GT ISZERO PUSH2 0x4BD7 JUMPI PUSH2 0x4BD6 PUSH2 0x4E37 JUMP JUMPDEST JUMPDEST PUSH2 0x4BE0 DUP3 PUSH2 0x4E7A JUMP JUMPDEST SWAP1 POP PUSH1 0x20 DUP2 ADD SWAP1 POP SWAP2 SWAP1 POP JUMP JUMPDEST PUSH1 0x0 DUP2 SWAP1 POP PUSH1 0x20 DUP3 ADD SWAP1 POP SWAP2 SWAP1 POP JUMP JUMPDEST PUSH1 0x0 DUP2 SWAP1 POP PUSH1 0x20 DUP3 ADD SWAP1 POP SWAP2 SWAP1 POP JUMP JUMPDEST PUSH1 0x0 DUP2 SWAP1 POP PUSH1 0x20 DUP3 ADD SWAP1 POP SWAP2 SWAP1 POP JUMP JUMPDEST PUSH1 0x0 DUP2 MLOAD SWAP1 POP SWAP2 SWAP1 POP JUMP JUMPDEST PUSH1 0x0 DUP2 MLOAD SWAP1 POP SWAP2 SWAP1 POP JUMP JUMPDEST PUSH1 0x0 DUP2 MLOAD SWAP1 POP SWAP2 SWAP1 POP JUMP JUMPDEST PUSH1 0x0 DUP2 MLOAD SWAP1 POP SWAP2 SWAP1 POP JUMP JUMPDEST PUSH1 0x0 PUSH1 0x20 DUP3 ADD SWAP1 POP SWAP2 SWAP1 POP JUMP JUMPDEST PUSH1 0x0 PUSH1 0x20 DUP3 ADD SWAP1 POP SWAP2 SWAP1 POP JUMP JUMPDEST PUSH1 0x0 PUSH1 0x20 DUP3 ADD SWAP1 POP SWAP2 SWAP1 POP JUMP JUMPDEST PUSH1 0x0 DUP3 DUP3 MSTORE PUSH1 0x20 DUP3 ADD SWAP1 POP SWAP3 SWAP2 POP POP JUMP JUMPDEST PUSH1 0x0 DUP3 DUP3 MSTORE PUSH1 0x20 DUP3 ADD SWAP1 POP SWAP3 SWAP2 POP POP JUMP JUMPDEST PUSH1 0x0 DUP3 DUP3 MSTORE PUSH1 0x20 DUP3 ADD SWAP1 POP SWAP3 SWAP2 POP POP JUMP JUMPDEST PUSH1 0x0 DUP3 DUP3 MSTORE PUSH1 0x20 DUP3 ADD SWAP1 POP SWAP3 SWAP2 POP POP JUMP JUMPDEST PUSH1 0x0 DUP3 DUP3 MSTORE PUSH1 0x20 DUP3 ADD SWAP1 POP SWAP3 SWAP2 POP POP JUMP JUMPDEST PUSH1 0x0 DUP2 SWAP1 POP SWAP3 SWAP2 POP POP JUMP JUMPDEST PUSH1 0x0 PUSH2 0x4CDB DUP3 PUSH2 0x4D0A JUMP JUMPDEST SWAP1 POP SWAP2 SWAP1 POP JUMP JUMPDEST PUSH1 0x0 PUSH2 0x4CED DUP3 PUSH2 0x4D0A JUMP JUMPDEST SWAP1 POP SWAP2 SWAP1 POP JUMP JUMPDEST PUSH1 0x0 DUP2 ISZERO ISZERO SWAP1 POP SWAP2 SWAP1 POP JUMP JUMPDEST PUSH1 0x0 DUP2 SWAP1 POP SWAP2 SWAP1 POP JUMP JUMPDEST PUSH1 0x0 PUSH20 0xFFFFFFFFFFFFFFFFFFFFFFFFFFFFFFFFFFFFFFFF DUP3 AND SWAP1 POP SWAP2 SWAP1 POP JUMP JUMPDEST PUSH1 0x0 DUP2 SWAP1 POP SWAP2 SWAP1 POP JUMP JUMPDEST DUP3 DUP2 DUP4 CALLDATACOPY PUSH1 0x0 DUP4 DUP4 ADD MSTORE POP POP POP JUMP JUMPDEST PUSH1 0x0 JUMPDEST DUP4 DUP2 LT ISZERO PUSH2 0x4D61 JUMPI DUP1 DUP3 ADD MLOAD DUP2 DUP5 ADD MSTORE PUSH1 0x20 DUP2 ADD SWAP1 POP PUSH2 0x4D46 JUMP JUMPDEST DUP4 DUP2 GT ISZERO PUSH2 0x4D70 JUMPI PUSH1 0x0 DUP5 DUP5 ADD MSTORE JUMPDEST POP POP POP POP JUMP JUMPDEST PUSH1 0x0 PUSH1 0x2 DUP3 DIV SWAP1 POP PUSH1 0x1 DUP3 AND DUP1 PUSH2 0x4D8E JUMPI PUSH1 0x7F DUP3 AND SWAP2 POP JUMPDEST PUSH1 0x20 DUP3 LT DUP2 EQ ISZERO PUSH2 0x4DA2 JUMPI PUSH2 0x4DA1 PUSH2 0x4E08 JUMP JUMPDEST JUMPDEST POP SWAP2 SWAP1 POP JUMP JUMPDEST PUSH2 0x4DB1 DUP3 PUSH2 0x4E7A JUMP JUMPDEST DUP2 ADD DUP2 DUP2 LT PUSH8 0xFFFFFFFFFFFFFFFF DUP3 GT OR ISZERO PUSH2 0x4DD0 JUMPI PUSH2 0x4DCF PUSH2 0x4E37 JUMP JUMPDEST JUMPDEST DUP1 PUSH1 0x40 MSTORE POP POP POP JUMP JUMPDEST PUSH32 0x4E487B7100000000000000000000000000000000000000000000000000000000 PUSH1 0x0 MSTORE PUSH1 0x21 PUSH1 0x4 MSTORE PUSH1 0x24 PUSH1 0x0 REVERT JUMPDEST PUSH32 0x4E487B7100000000000000000000000000000000000000000000000000000000 PUSH1 0x0 MSTORE PUSH1 0x22 PUSH1 0x4 MSTORE PUSH1 0x24 PUSH1 0x0 REVERT JUMPDEST PUSH32 0x4E487B7100000000000000000000000000000000000000000000000000000000 PUSH1 0x0 MSTORE PUSH1 0x41 PUSH1 0x4 MSTORE PUSH1 0x24 PUSH1 0x0 REVERT JUMPDEST PUSH1 0x0 DUP1 REVERT JUMPDEST PUSH1 0x0 DUP1 REVERT JUMPDEST PUSH1 0x0 DUP1 REVERT JUMPDEST PUSH1 0x0 DUP1 REVERT JUMPDEST PUSH1 0x0 PUSH1 0x1F NOT PUSH1 0x1F DUP4 ADD AND SWAP1 POP SWAP2 SWAP1 POP JUMP JUMPDEST PUSH32 0x596F7520616C726561647920636865636B207468697320636173650000000000 PUSH1 0x0 DUP3 ADD MSTORE POP JUMP JUMPDEST PUSH32 0x596F7572206C6F67696E20616C726561647920657869737420696E2073797374 PUSH1 0x0 DUP3 ADD MSTORE PUSH32 0x656D000000000000000000000000000000000000000000000000000000000000 PUSH1 0x20 DUP3 ADD MSTORE POP JUMP JUMPDEST PUSH32 0x4C6F772062616C616E6365000000000000000000000000000000000000000000 PUSH1 0x0 DUP3 ADD MSTORE POP JUMP JUMPDEST PUSH32 0x466F7262696464656E0000000000000000000000000000000000000000000000 PUSH1 0x0 DUP3 ADD MSTORE POP JUMP JUMPDEST PUSH32 0x596F75206E6F7420757365720000000000000000000000000000000000000000 PUSH1 0x0 DUP3 ADD MSTORE POP JUMP JUMPDEST PUSH32 0x596F75206E6F742061646D696E00000000000000000000000000000000000000 PUSH1 0x0 DUP3 ADD MSTORE POP JUMP JUMPDEST PUSH32 0x596F7520616C7265616479207265676973746572656400000000000000000000 PUSH1 0x0 DUP3 ADD MSTORE POP JUMP JUMPDEST PUSH32 0x57726F6E67204C6F67696E000000000000000000000000000000000000000000 PUSH1 0x0 DUP3 ADD MSTORE POP JUMP JUMPDEST PUSH2 0x5002 DUP2 PUSH2 0x4CD0 JUMP JUMPDEST DUP2 EQ PUSH2 0x500D JUMPI PUSH1 0x0 DUP1 REVERT JUMPDEST POP JUMP JUMPDEST PUSH2 0x5019 DUP2 PUSH2 0x4CE2 JUMP JUMPDEST DUP2 EQ PUSH2 0x5024 JUMPI PUSH1 0x0 DUP1 REVERT JUMPDEST POP JUMP JUMPDEST PUSH2 0x5030 DUP2 PUSH2 0x4D00 JUMP JUMPDEST DUP2 EQ PUSH2 0x503B JUMPI PUSH1 0x0 DUP1 REVERT JUMPDEST POP JUMP INVALID LOG2 PUSH5 0x6970667358 0x22 SLT KECCAK256 NOT SWAP11 0xDC 0xE6 BALANCE 0xEA 0xAF 0x25 EXP 0xA8 JUMPDEST 0x26 SWAP3 EQ SDIV 0x2E 0x5C LT EXTCODECOPY 0xD6 0xBC 0xC2 0xB7 GASLIMIT 0xC6 0x5F 0xEC 0x27 PUSH14 0x3179D164736F6C63430008070033 "
				},
				"gasEstimates": {
					"creation": {
						"codeDepositCost": "4119200",
						"executionCost": "infinite",
						"totalCost": "infinite"
					},
					"external": {
						"checkRequest(string)": "infinite",
						"createReview(address,string,string,int256)": "infinite",
						"disLikeReview(string)": "infinite",
						"doShopDebt(address)": "infinite",
						"downRequestToByer(string)": "infinite",
						"getAdminInfo()": "infinite",
						"getBuyerInfo()": "infinite",
						"getRequestById(string)": "infinite",
						"getReviewById(string)": "infinite",
						"getSellerInfo()": "infinite",
						"getSellerInfoByAddr(address)": "infinite",
						"likeReview(string)": "infinite",
						"login(string)": "infinite",
						"regAdmin(address,string,string)": "infinite",
						"registerAdmin(string,string)": "infinite",
						"registerBank(string,address)": "infinite",
						"registerBuyer(string,string,address)": "infinite",
						"registerProvider(string,address)": "infinite",
						"registerSeller(string,string,address,address)": "infinite",
						"registerShop(address,string,string,string)": "infinite",
						"requestToSeller(string)": "infinite"
					}
				},
				"methodIdentifiers": {
					"checkRequest(string)": "dfdd12c9",
					"createReview(address,string,string,int256)": "2d6abf59",
					"disLikeReview(string)": "bce62a74",
					"doShopDebt(address)": "83db0f6d",
					"downRequestToByer(string)": "b038316c",
					"getAdminInfo()": "c3d5fd39",
					"getBuyerInfo()": "99b958ee",
					"getRequestById(string)": "dffc8b06",
					"getReviewById(string)": "2f0185c4",
					"getSellerInfo()": "54504c12",
					"getSellerInfoByAddr(address)": "08e74858",
					"likeReview(string)": "7b3c7488",
					"login(string)": "3a7d280c",
					"regAdmin(address,string,string)": "a59d105f",
					"registerAdmin(string,string)": "f8f98b79",
					"registerBank(string,address)": "2156a781",
					"registerBuyer(string,string,address)": "9d344d10",
					"registerProvider(string,address)": "7ccb2bd8",
					"registerSeller(string,string,address,address)": "8403f848",
					"registerShop(address,string,string,string)": "7558b2f8",
					"requestToSeller(string)": "ac6fa7c3"
				}
			},
			"storageLayout": {
				"storage": [
					{
						"astId": 37,
						"contract": "contracts/Shops.sol:ShopsSystem",
						"label": "userStatus",
						"offset": 0,
						"slot": "0",
						"type": "t_mapping(t_uint256,t_string_storage)"
					},
					{
						"astId": 41,
						"contract": "contracts/Shops.sol:ShopsSystem",
						"label": "userLogins",
						"offset": 0,
						"slot": "1",
						"type": "t_mapping(t_string_memory_ptr,t_address)"
					},
					{
						"astId": 46,
						"contract": "contracts/Shops.sol:ShopsSystem",
						"label": "users",
						"offset": 0,
						"slot": "2",
						"type": "t_mapping(t_address,t_struct(User)33_storage)"
					},
					{
						"astId": 337,
						"contract": "contracts/Shops.sol:ShopsSystem",
						"label": "likeCountCheck",
						"offset": 0,
						"slot": "3",
						"type": "t_mapping(t_address,t_bool)"
					},
					{
						"astId": 339,
						"contract": "contracts/Shops.sol:ShopsSystem",
						"label": "provider",
						"offset": 0,
						"slot": "4",
						"type": "t_address"
					},
					{
						"astId": 341,
						"contract": "contracts/Shops.sol:ShopsSystem",
						"label": "admin",
						"offset": 0,
						"slot": "5",
						"type": "t_address"
					},
					{
						"astId": 344,
						"contract": "contracts/Shops.sol:ShopsSystem",
						"label": "admins",
						"offset": 0,
						"slot": "6",
						"type": "t_array(t_string_storage)dyn_storage"
					},
					{
						"astId": 346,
						"contract": "contracts/Shops.sol:ShopsSystem",
						"label": "bank",
						"offset": 0,
						"slot": "7",
						"type": "t_address_payable"
					},
					{
						"astId": 349,
						"contract": "contracts/Shops.sol:ShopsSystem",
						"label": "sellers",
						"offset": 0,
						"slot": "8",
						"type": "t_array(t_address)dyn_storage"
					},
					{
						"astId": 352,
						"contract": "contracts/Shops.sol:ShopsSystem",
						"label": "shopsAddresses",
						"offset": 0,
						"slot": "9",
						"type": "t_array(t_address)dyn_storage"
					},
					{
						"astId": 356,
						"contract": "contracts/Shops.sol:ShopsSystem",
						"label": "requests",
						"offset": 0,
						"slot": "10",
						"type": "t_array(t_struct(Request)331_storage)dyn_storage"
					},
					{
						"astId": 361,
						"contract": "contracts/Shops.sol:ShopsSystem",
						"label": "ShopsList",
						"offset": 0,
						"slot": "11",
						"type": "t_mapping(t_address,t_struct(Shop)322_storage)"
					},
					{
						"astId": 365,
						"contract": "contracts/Shops.sol:ShopsSystem",
						"label": "salesmanShop",
						"offset": 0,
						"slot": "12",
						"type": "t_mapping(t_address,t_address)"
					},
					{
						"astId": 370,
						"contract": "contracts/Shops.sol:ShopsSystem",
						"label": "salesmen",
						"offset": 0,
						"slot": "13",
						"type": "t_mapping(t_address,t_array(t_address)dyn_storage)"
					},
					{
						"astId": 375,
						"contract": "contracts/Shops.sol:ShopsSystem",
						"label": "shopReviews",
						"offset": 0,
						"slot": "14",
						"type": "t_mapping(t_address,t_array(t_string_storage)dyn_storage)"
					},
					{
						"astId": 380,
						"contract": "contracts/Shops.sol:ShopsSystem",
						"label": "reviewId",
						"offset": 0,
						"slot": "15",
						"type": "t_mapping(t_string_memory_ptr,t_struct(Review)23_storage)"
					},
					{
						"astId": 385,
						"contract": "contracts/Shops.sol:ShopsSystem",
						"label": "requestId",
						"offset": 0,
						"slot": "16",
						"type": "t_mapping(t_string_memory_ptr,t_struct(Request)331_storage)"
					},
					{
						"astId": 391,
						"contract": "contracts/Shops.sol:ShopsSystem",
						"label": "reviewCom",
						"offset": 0,
						"slot": "17",
						"type": "t_mapping(t_string_memory_ptr,t_mapping(t_address,t_bool))"
					}
				],
				"types": {
					"t_address": {
						"encoding": "inplace",
						"label": "address",
						"numberOfBytes": "20"
					},
					"t_address_payable": {
						"encoding": "inplace",
						"label": "address payable",
						"numberOfBytes": "20"
					},
					"t_array(t_address)dyn_storage": {
						"base": "t_address",
						"encoding": "dynamic_array",
						"label": "address[]",
						"numberOfBytes": "32"
					},
					"t_array(t_string_storage)dyn_storage": {
						"base": "t_string_storage",
						"encoding": "dynamic_array",
						"label": "string[]",
						"numberOfBytes": "32"
					},
					"t_array(t_struct(Request)331_storage)dyn_storage": {
						"base": "t_struct(Request)331_storage",
						"encoding": "dynamic_array",
						"label": "struct Request[]",
						"numberOfBytes": "32"
					},
					"t_bool": {
						"encoding": "inplace",
						"label": "bool",
						"numberOfBytes": "1"
					},
					"t_int256": {
						"encoding": "inplace",
						"label": "int256",
						"numberOfBytes": "32"
					},
					"t_mapping(t_address,t_address)": {
						"encoding": "mapping",
						"key": "t_address",
						"label": "mapping(address => address)",
						"numberOfBytes": "32",
						"value": "t_address"
					},
					"t_mapping(t_address,t_array(t_address)dyn_storage)": {
						"encoding": "mapping",
						"key": "t_address",
						"label": "mapping(address => address[])",
						"numberOfBytes": "32",
						"value": "t_array(t_address)dyn_storage"
					},
					"t_mapping(t_address,t_array(t_string_storage)dyn_storage)": {
						"encoding": "mapping",
						"key": "t_address",
						"label": "mapping(address => string[])",
						"numberOfBytes": "32",
						"value": "t_array(t_string_storage)dyn_storage"
					},
					"t_mapping(t_address,t_bool)": {
						"encoding": "mapping",
						"key": "t_address",
						"label": "mapping(address => bool)",
						"numberOfBytes": "32",
						"value": "t_bool"
					},
					"t_mapping(t_address,t_struct(Shop)322_storage)": {
						"encoding": "mapping",
						"key": "t_address",
						"label": "mapping(address => struct Shop)",
						"numberOfBytes": "32",
						"value": "t_struct(Shop)322_storage"
					},
					"t_mapping(t_address,t_struct(User)33_storage)": {
						"encoding": "mapping",
						"key": "t_address",
						"label": "mapping(address => struct User)",
						"numberOfBytes": "32",
						"value": "t_struct(User)33_storage"
					},
					"t_mapping(t_string_memory_ptr,t_address)": {
						"encoding": "mapping",
						"key": "t_string_memory_ptr",
						"label": "mapping(string => address)",
						"numberOfBytes": "32",
						"value": "t_address"
					},
					"t_mapping(t_string_memory_ptr,t_mapping(t_address,t_bool))": {
						"encoding": "mapping",
						"key": "t_string_memory_ptr",
						"label": "mapping(string => mapping(address => bool))",
						"numberOfBytes": "32",
						"value": "t_mapping(t_address,t_bool)"
					},
					"t_mapping(t_string_memory_ptr,t_struct(Request)331_storage)": {
						"encoding": "mapping",
						"key": "t_string_memory_ptr",
						"label": "mapping(string => struct Request)",
						"numberOfBytes": "32",
						"value": "t_struct(Request)331_storage"
					},
					"t_mapping(t_string_memory_ptr,t_struct(Review)23_storage)": {
						"encoding": "mapping",
						"key": "t_string_memory_ptr",
						"label": "mapping(string => struct Review)",
						"numberOfBytes": "32",
						"value": "t_struct(Review)23_storage"
					},
					"t_mapping(t_uint256,t_string_storage)": {
						"encoding": "mapping",
						"key": "t_uint256",
						"label": "mapping(uint256 => string)",
						"numberOfBytes": "32",
						"value": "t_string_storage"
					},
					"t_string_memory_ptr": {
						"encoding": "bytes",
						"label": "string",
						"numberOfBytes": "32"
					},
					"t_string_storage": {
						"encoding": "bytes",
						"label": "string",
						"numberOfBytes": "32"
					},
					"t_struct(Request)331_storage": {
						"encoding": "inplace",
						"label": "struct Request",
						"members": [
							{
								"astId": 324,
								"contract": "contracts/Shops.sol:ShopsSystem",
								"label": "userAddr",
								"offset": 0,
								"slot": "0",
								"type": "t_address"
							},
							{
								"astId": 326,
								"contract": "contracts/Shops.sol:ShopsSystem",
								"label": "currentRole",
								"offset": 0,
								"slot": "1",
								"type": "t_string_storage"
							},
							{
								"astId": 328,
								"contract": "contracts/Shops.sol:ShopsSystem",
								"label": "desiredRole",
								"offset": 0,
								"slot": "2",
								"type": "t_string_storage"
							},
							{
								"astId": 330,
								"contract": "contracts/Shops.sol:ShopsSystem",
								"label": "checked",
								"offset": 0,
								"slot": "3",
								"type": "t_bool"
							}
						],
						"numberOfBytes": "128"
					},
					"t_struct(Review)23_storage": {
						"encoding": "inplace",
						"label": "struct Review",
						"members": [
							{
								"astId": 10,
								"contract": "contracts/Shops.sol:ShopsSystem",
								"label": "autorAddress",
								"offset": 0,
								"slot": "0",
								"type": "t_address"
							},
							{
								"astId": 12,
								"contract": "contracts/Shops.sol:ShopsSystem",
								"label": "shopAddr",
								"offset": 0,
								"slot": "1",
								"type": "t_address"
							},
							{
								"astId": 14,
								"contract": "contracts/Shops.sol:ShopsSystem",
								"label": "message",
								"offset": 0,
								"slot": "2",
								"type": "t_string_storage"
							},
							{
								"astId": 17,
								"contract": "contracts/Shops.sol:ShopsSystem",
								"label": "likeCount",
								"offset": 0,
								"slot": "3",
								"type": "t_array(t_address)dyn_storage"
							},
							{
								"astId": 20,
								"contract": "contracts/Shops.sol:ShopsSystem",
								"label": "disLikeCount",
								"offset": 0,
								"slot": "4",
								"type": "t_array(t_address)dyn_storage"
							},
							{
								"astId": 22,
								"contract": "contracts/Shops.sol:ShopsSystem",
								"label": "grade",
								"offset": 0,
								"slot": "5",
								"type": "t_int256"
							}
						],
						"numberOfBytes": "192"
					},
					"t_struct(Shop)322_storage": {
						"encoding": "inplace",
						"label": "struct Shop",
						"members": [
							{
								"astId": 317,
								"contract": "contracts/Shops.sol:ShopsSystem",
								"label": "number",
								"offset": 0,
								"slot": "0",
								"type": "t_string_storage"
							},
							{
								"astId": 319,
								"contract": "contracts/Shops.sol:ShopsSystem",
								"label": "city",
								"offset": 0,
								"slot": "1",
								"type": "t_string_storage"
							},
							{
								"astId": 321,
								"contract": "contracts/Shops.sol:ShopsSystem",
								"label": "debt",
								"offset": 0,
								"slot": "2",
								"type": "t_int256"
							}
						],
						"numberOfBytes": "96"
					},
					"t_struct(User)33_storage": {
						"encoding": "inplace",
						"label": "struct User",
						"members": [
							{
								"astId": 25,
								"contract": "contracts/Shops.sol:ShopsSystem",
								"label": "status",
								"offset": 0,
								"slot": "0",
								"type": "t_uint256"
							},
							{
								"astId": 27,
								"contract": "contracts/Shops.sol:ShopsSystem",
								"label": "userLogin",
								"offset": 0,
								"slot": "1",
								"type": "t_string_storage"
							},
							{
								"astId": 29,
								"contract": "contracts/Shops.sol:ShopsSystem",
								"label": "fio",
								"offset": 0,
								"slot": "2",
								"type": "t_string_storage"
							},
							{
								"astId": 32,
								"contract": "contracts/Shops.sol:ShopsSystem",
								"label": "reviews",
								"offset": 0,
								"slot": "3",
								"type": "t_array(t_string_storage)dyn_storage"
							}
						],
						"numberOfBytes": "128"
					},
					"t_uint256": {
						"encoding": "inplace",
						"label": "uint256",
						"numberOfBytes": "32"
					}
				}
			},
			"userdoc": {
				"kind": "user",
				"methods": {},
				"version": 1
			}
		}
	}
}