{
	"contracts/AuthService.sol": {
		"AuthService": {
			"abi": [
				{
					"inputs": [],
					"stateMutability": "nonpayable",
					"type": "constructor"
				},
				{
					"inputs": [
						{
							"internalType": "string",
							"name": "userLogin",
							"type": "string"
						}
					],
					"name": "login",
					"outputs": [
						{
							"internalType": "address",
							"name": "userAddress",
							"type": "address"
						},
						{
							"internalType": "string",
							"name": "status",
							"type": "string"
						}
					],
					"stateMutability": "view",
					"type": "function"
				}
			],
			"devdoc": {
				"kind": "dev",
				"methods": {},
				"version": 1
			},
			"evm": {
				"assembly": "    /* \"contracts/AuthService.sol\":399:2559  contract AuthService{... */\n  mstore(0x40, 0x80)\n    /* \"contracts/AuthService.sol\":553:773  constructor(){... */\n  callvalue\n  dup1\n  iszero\n  tag_1\n  jumpi\n  0x00\n  dup1\n  revert\ntag_1:\n  pop\n    /* \"contracts/AuthService.sol\":576:599  userStatus[0] = \"buyer\" */\n  mload(0x40)\n  dup1\n  0x40\n  add\n  0x40\n  mstore\n  dup1\n  0x05\n  dup2\n  mstore\n  0x20\n  add\n  0x6275796572000000000000000000000000000000000000000000000000000000\n  dup2\n  mstore\n  pop\n    /* \"contracts/AuthService.sol\":576:586  userStatus */\n  0x00\n    /* \"contracts/AuthService.sol\":576:589  userStatus[0] */\n  dup1\n    /* \"contracts/AuthService.sol\":587:588  0 */\n  dup1\n    /* \"contracts/AuthService.sol\":576:589  userStatus[0] */\n  dup2\n  mstore\n  0x20\n  add\n  swap1\n  dup2\n  mstore\n  0x20\n  add\n  0x00\n  keccak256\n    /* \"contracts/AuthService.sol\":576:599  userStatus[0] = \"buyer\" */\n  swap1\n  dup1\n  mload\n  swap1\n  0x20\n  add\n  swap1\n  tag_4\n  swap3\n  swap2\n  swap1\n  tag_5\n  jump\t// in\ntag_4:\n  pop\n    /* \"contracts/AuthService.sol\":609:633  userStatus[1] = \"seller\" */\n  mload(0x40)\n  dup1\n  0x40\n  add\n  0x40\n  mstore\n  dup1\n  0x06\n  dup2\n  mstore\n  0x20\n  add\n  0x73656c6c65720000000000000000000000000000000000000000000000000000\n  dup2\n  mstore\n  pop\n    /* \"contracts/AuthService.sol\":609:619  userStatus */\n  0x00\n    /* \"contracts/AuthService.sol\":609:622  userStatus[1] */\n  dup1\n    /* \"contracts/AuthService.sol\":620:621  1 */\n  0x01\n    /* \"contracts/AuthService.sol\":609:622  userStatus[1] */\n  dup2\n  mstore\n  0x20\n  add\n  swap1\n  dup2\n  mstore\n  0x20\n  add\n  0x00\n  keccak256\n    /* \"contracts/AuthService.sol\":609:633  userStatus[1] = \"seller\" */\n  swap1\n  dup1\n  mload\n  swap1\n  0x20\n  add\n  swap1\n  tag_6\n  swap3\n  swap2\n  swap1\n  tag_5\n  jump\t// in\ntag_6:\n  pop\n    /* \"contracts/AuthService.sol\":643:665  userStatus[2] = \"shop\" */\n  mload(0x40)\n  dup1\n  0x40\n  add\n  0x40\n  mstore\n  dup1\n  0x04\n  dup2\n  mstore\n  0x20\n  add\n  0x73686f7000000000000000000000000000000000000000000000000000000000\n  dup2\n  mstore\n  pop\n    /* \"contracts/AuthService.sol\":643:653  userStatus */\n  0x00\n    /* \"contracts/AuthService.sol\":643:656  userStatus[2] */\n  dup1\n    /* \"contracts/AuthService.sol\":654:655  2 */\n  0x02\n    /* \"contracts/AuthService.sol\":643:656  userStatus[2] */\n  dup2\n  mstore\n  0x20\n  add\n  swap1\n  dup2\n  mstore\n  0x20\n  add\n  0x00\n  keccak256\n    /* \"contracts/AuthService.sol\":643:665  userStatus[2] = \"shop\" */\n  swap1\n  dup1\n  mload\n  swap1\n  0x20\n  add\n  swap1\n  tag_7\n  swap3\n  swap2\n  swap1\n  tag_5\n  jump\t// in\ntag_7:\n  pop\n    /* \"contracts/AuthService.sol\":675:698  userStatus[3] = \"admin\" */\n  mload(0x40)\n  dup1\n  0x40\n  add\n  0x40\n  mstore\n  dup1\n  0x05\n  dup2\n  mstore\n  0x20\n  add\n  0x61646d696e000000000000000000000000000000000000000000000000000000\n  dup2\n  mstore\n  pop\n    /* \"contracts/AuthService.sol\":675:685  userStatus */\n  0x00\n    /* \"contracts/AuthService.sol\":675:688  userStatus[3] */\n  dup1\n    /* \"contracts/AuthService.sol\":686:687  3 */\n  0x03\n    /* \"contracts/AuthService.sol\":675:688  userStatus[3] */\n  dup2\n  mstore\n  0x20\n  add\n  swap1\n  dup2\n  mstore\n  0x20\n  add\n  0x00\n  keccak256\n    /* \"contracts/AuthService.sol\":675:698  userStatus[3] = \"admin\" */\n  swap1\n  dup1\n  mload\n  swap1\n  0x20\n  add\n  swap1\n  tag_8\n  swap3\n  swap2\n  swap1\n  tag_5\n  jump\t// in\ntag_8:\n  pop\n    /* \"contracts/AuthService.sol\":708:734  userStatus[4] = \"provider\" */\n  mload(0x40)\n  dup1\n  0x40\n  add\n  0x40\n  mstore\n  dup1\n  0x08\n  dup2\n  mstore\n  0x20\n  add\n  0x70726f7669646572000000000000000000000000000000000000000000000000\n  dup2\n  mstore\n  pop\n    /* \"contracts/AuthService.sol\":708:718  userStatus */\n  0x00\n    /* \"contracts/AuthService.sol\":708:721  userStatus[4] */\n  dup1\n    /* \"contracts/AuthService.sol\":719:720  4 */\n  0x04\n    /* \"contracts/AuthService.sol\":708:721  userStatus[4] */\n  dup2\n  mstore\n  0x20\n  add\n  swap1\n  dup2\n  mstore\n  0x20\n  add\n  0x00\n  keccak256\n    /* \"contracts/AuthService.sol\":708:734  userStatus[4] = \"provider\" */\n  swap1\n  dup1\n  mload\n  swap1\n  0x20\n  add\n  swap1\n  tag_9\n  swap3\n  swap2\n  swap1\n  tag_5\n  jump\t// in\ntag_9:\n  pop\n    /* \"contracts/AuthService.sol\":744:766  userStatus[5] = \"bank\" */\n  mload(0x40)\n  dup1\n  0x40\n  add\n  0x40\n  mstore\n  dup1\n  0x04\n  dup2\n  mstore\n  0x20\n  add\n  0x62616e6b00000000000000000000000000000000000000000000000000000000\n  dup2\n  mstore\n  pop\n    /* \"contracts/AuthService.sol\":744:754  userStatus */\n  0x00\n    /* \"contracts/AuthService.sol\":744:757  userStatus[5] */\n  dup1\n    /* \"contracts/AuthService.sol\":755:756  5 */\n  0x05\n    /* \"contracts/AuthService.sol\":744:757  userStatus[5] */\n  dup2\n  mstore\n  0x20\n  add\n  swap1\n  dup2\n  mstore\n  0x20\n  add\n  0x00\n  keccak256\n    /* \"contracts/AuthService.sol\":744:766  userStatus[5] = \"bank\" */\n  swap1\n  dup1\n  mload\n  swap1\n  0x20\n  add\n  swap1\n  tag_10\n  swap3\n  swap2\n  swap1\n  tag_5\n  jump\t// in\ntag_10:\n  pop\n    /* \"contracts/AuthService.sol\":399:2559  contract AuthService{... */\n  jump(tag_11)\ntag_5:\n  dup3\n  dup1\n  sload\n  tag_12\n  swap1\n  tag_13\n  jump\t// in\ntag_12:\n  swap1\n  0x00\n  mstore\n  keccak256(0x00, 0x20)\n  swap1\n  0x1f\n  add\n  0x20\n  swap1\n  div\n  dup2\n  add\n  swap3\n  dup3\n  tag_15\n  jumpi\n  0x00\n  dup6\n  sstore\n  jump(tag_14)\ntag_15:\n  dup3\n  0x1f\n  lt\n  tag_16\n  jumpi\n  dup1\n  mload\n  not(0xff)\n  and\n  dup4\n  dup1\n  add\n  or\n  dup6\n  sstore\n  jump(tag_14)\ntag_16:\n  dup3\n  dup1\n  add\n  0x01\n  add\n  dup6\n  sstore\n  dup3\n  iszero\n  tag_14\n  jumpi\n  swap2\n  dup3\n  add\ntag_17:\n  dup3\n  dup2\n  gt\n  iszero\n  tag_18\n  jumpi\n  dup3\n  mload\n  dup3\n  sstore\n  swap2\n  0x20\n  add\n  swap2\n  swap1\n  0x01\n  add\n  swap1\n  jump(tag_17)\ntag_18:\ntag_14:\n  pop\n  swap1\n  pop\n  tag_19\n  swap2\n  swap1\n  tag_20\n  jump\t// in\ntag_19:\n  pop\n  swap1\n  jump\t// out\ntag_20:\ntag_21:\n  dup1\n  dup3\n  gt\n  iszero\n  tag_22\n  jumpi\n  0x00\n  dup2\n  0x00\n  swap1\n  sstore\n  pop\n  0x01\n  add\n  jump(tag_21)\ntag_22:\n  pop\n  swap1\n  jump\t// out\n    /* \"#utility.yul\":7:327   */\ntag_13:\n    /* \"#utility.yul\":51:57   */\n  0x00\n    /* \"#utility.yul\":88:89   */\n  0x02\n    /* \"#utility.yul\":82:86   */\n  dup3\n    /* \"#utility.yul\":78:90   */\n  div\n    /* \"#utility.yul\":68:90   */\n  swap1\n  pop\n    /* \"#utility.yul\":135:136   */\n  0x01\n    /* \"#utility.yul\":129:133   */\n  dup3\n    /* \"#utility.yul\":125:137   */\n  and\n    /* \"#utility.yul\":156:174   */\n  dup1\n    /* \"#utility.yul\":146:227   */\n  tag_25\n  jumpi\n    /* \"#utility.yul\":212:216   */\n  0x7f\n    /* \"#utility.yul\":204:210   */\n  dup3\n    /* \"#utility.yul\":200:217   */\n  and\n    /* \"#utility.yul\":190:217   */\n  swap2\n  pop\n    /* \"#utility.yul\":146:227   */\ntag_25:\n    /* \"#utility.yul\":274:276   */\n  0x20\n    /* \"#utility.yul\":266:272   */\n  dup3\n    /* \"#utility.yul\":263:277   */\n  lt\n    /* \"#utility.yul\":243:261   */\n  dup2\n    /* \"#utility.yul\":240:278   */\n  eq\n    /* \"#utility.yul\":237:321   */\n  iszero\n  tag_26\n  jumpi\n    /* \"#utility.yul\":293:311   */\n  tag_27\n  tag_28\n  jump\t// in\ntag_27:\n    /* \"#utility.yul\":237:321   */\ntag_26:\n    /* \"#utility.yul\":58:327   */\n  pop\n    /* \"#utility.yul\":7:327   */\n  swap2\n  swap1\n  pop\n  jump\t// out\n    /* \"#utility.yul\":333:513   */\ntag_28:\n    /* \"#utility.yul\":381:458   */\n  0x4e487b7100000000000000000000000000000000000000000000000000000000\n    /* \"#utility.yul\":378:379   */\n  0x00\n    /* \"#utility.yul\":371:459   */\n  mstore\n    /* \"#utility.yul\":478:482   */\n  0x22\n    /* \"#utility.yul\":475:476   */\n  0x04\n    /* \"#utility.yul\":468:483   */\n  mstore\n    /* \"#utility.yul\":502:506   */\n  0x24\n    /* \"#utility.yul\":499:500   */\n  0x00\n    /* \"#utility.yul\":492:507   */\n  revert\n    /* \"contracts/AuthService.sol\":399:2559  contract AuthService{... */\ntag_11:\n  dataSize(sub_0)\n  dup1\n  dataOffset(sub_0)\n  0x00\n  codecopy\n  0x00\n  return\nstop\n\nsub_0: assembly {\n        /* \"contracts/AuthService.sol\":399:2559  contract AuthService{... */\n      mstore(0x40, 0x80)\n      callvalue\n      dup1\n      iszero\n      tag_1\n      jumpi\n      0x00\n      dup1\n      revert\n    tag_1:\n      pop\n      jumpi(tag_2, lt(calldatasize, 0x04))\n      shr(0xe0, calldataload(0x00))\n      dup1\n      0x3a7d280c\n      eq\n      tag_3\n      jumpi\n    tag_2:\n      0x00\n      dup1\n      revert\n        /* \"contracts/AuthService.sol\":2256:2556  function login(string memory userLogin) public view isRegistered(userLogin) returns(address userAddress,string memory status){... */\n    tag_3:\n      tag_4\n      0x04\n      dup1\n      calldatasize\n      sub\n      dup2\n      add\n      swap1\n      tag_5\n      swap2\n      swap1\n      tag_6\n      jump\t// in\n    tag_5:\n      tag_7\n      jump\t// in\n    tag_4:\n      mload(0x40)\n      tag_8\n      swap3\n      swap2\n      swap1\n      tag_9\n      jump\t// in\n    tag_8:\n      mload(0x40)\n      dup1\n      swap2\n      sub\n      swap1\n      return\n    tag_7:\n        /* \"contracts/AuthService.sol\":2340:2359  address userAddress */\n      0x00\n        /* \"contracts/AuthService.sol\":2360:2380  string memory status */\n      0x60\n        /* \"contracts/AuthService.sol\":2321:2330  userLogin */\n      dup3\n        /* \"contracts/AuthService.sol\":1388:1389  0 */\n      0x00\n        /* \"contracts/AuthService.sol\":1355:1390  userLogins[userLogin] != address(0) */\n      0xffffffffffffffffffffffffffffffffffffffff\n      and\n        /* \"contracts/AuthService.sol\":1355:1365  userLogins */\n      0x01\n        /* \"contracts/AuthService.sol\":1366:1375  userLogin */\n      dup3\n        /* \"contracts/AuthService.sol\":1355:1376  userLogins[userLogin] */\n      mload(0x40)\n      tag_11\n      swap2\n      swap1\n      tag_12\n      jump\t// in\n    tag_11:\n      swap1\n      dup2\n      mstore\n      0x20\n      add\n      mload(0x40)\n      dup1\n      swap2\n      sub\n      swap1\n      keccak256\n      0x00\n      swap1\n      sload\n      swap1\n      0x0100\n      exp\n      swap1\n      div\n      0xffffffffffffffffffffffffffffffffffffffff\n      and\n        /* \"contracts/AuthService.sol\":1355:1390  userLogins[userLogin] != address(0) */\n      0xffffffffffffffffffffffffffffffffffffffff\n      and\n      eq\n      iszero\n        /* \"contracts/AuthService.sol\":1347:1405  require(userLogins[userLogin] != address(0),\"Wrong Login\") */\n      tag_13\n      jumpi\n      mload(0x40)\n      0x08c379a000000000000000000000000000000000000000000000000000000000\n      dup2\n      mstore\n      0x04\n      add\n      tag_14\n      swap1\n      tag_15\n      jump\t// in\n    tag_14:\n      mload(0x40)\n      dup1\n      swap2\n      sub\n      swap1\n      revert\n    tag_13:\n        /* \"contracts/AuthService.sol\":2391:2407  address userAddr */\n      0x00\n        /* \"contracts/AuthService.sol\":2410:2420  userLogins */\n      0x01\n        /* \"contracts/AuthService.sol\":2421:2430  userLogin */\n      dup6\n        /* \"contracts/AuthService.sol\":2410:2431  userLogins[userLogin] */\n      mload(0x40)\n      tag_17\n      swap2\n      swap1\n      tag_12\n      jump\t// in\n    tag_17:\n      swap1\n      dup2\n      mstore\n      0x20\n      add\n      mload(0x40)\n      dup1\n      swap2\n      sub\n      swap1\n      keccak256\n      0x00\n      swap1\n      sload\n      swap1\n      0x0100\n      exp\n      swap1\n      div\n      0xffffffffffffffffffffffffffffffffffffffff\n      and\n        /* \"contracts/AuthService.sol\":2391:2431  address userAddr = userLogins[userLogin] */\n      swap1\n      pop\n        /* \"contracts/AuthService.sol\":2441:2457  User memory user */\n      0x00\n        /* \"contracts/AuthService.sol\":2460:2465  users */\n      0x02\n        /* \"contracts/AuthService.sol\":2460:2475  users[userAddr] */\n      0x00\n        /* \"contracts/AuthService.sol\":2466:2474  userAddr */\n      dup4\n        /* \"contracts/AuthService.sol\":2460:2475  users[userAddr] */\n      0xffffffffffffffffffffffffffffffffffffffff\n      and\n      0xffffffffffffffffffffffffffffffffffffffff\n      and\n      dup2\n      mstore\n      0x20\n      add\n      swap1\n      dup2\n      mstore\n      0x20\n      add\n      0x00\n      keccak256\n        /* \"contracts/AuthService.sol\":2441:2475  User memory user = users[userAddr] */\n      mload(0x40)\n      dup1\n      0x80\n      add\n      0x40\n      mstore\n      swap1\n      dup2\n      0x00\n      dup3\n      add\n      sload\n      dup2\n      mstore\n      0x20\n      add\n      0x01\n      dup3\n      add\n      dup1\n      sload\n      tag_18\n      swap1\n      tag_19\n      jump\t// in\n    tag_18:\n      dup1\n      0x1f\n      add\n      0x20\n      dup1\n      swap2\n      div\n      mul\n      0x20\n      add\n      mload(0x40)\n      swap1\n      dup2\n      add\n      0x40\n      mstore\n      dup1\n      swap3\n      swap2\n      swap1\n      dup2\n      dup2\n      mstore\n      0x20\n      add\n      dup3\n      dup1\n      sload\n      tag_20\n      swap1\n      tag_19\n      jump\t// in\n    tag_20:\n      dup1\n      iszero\n      tag_21\n      jumpi\n      dup1\n      0x1f\n      lt\n      tag_22\n      jumpi\n      0x0100\n      dup1\n      dup4\n      sload\n      div\n      mul\n      dup4\n      mstore\n      swap2\n      0x20\n      add\n      swap2\n      jump(tag_21)\n    tag_22:\n      dup3\n      add\n      swap2\n      swap1\n      0x00\n      mstore\n      keccak256(0x00, 0x20)\n      swap1\n    tag_23:\n      dup2\n      sload\n      dup2\n      mstore\n      swap1\n      0x01\n      add\n      swap1\n      0x20\n      add\n      dup1\n      dup4\n      gt\n      tag_23\n      jumpi\n      dup3\n      swap1\n      sub\n      0x1f\n      and\n      dup3\n      add\n      swap2\n    tag_21:\n      pop\n      pop\n      pop\n      pop\n      pop\n      dup2\n      mstore\n      0x20\n      add\n      0x02\n      dup3\n      add\n      dup1\n      sload\n      tag_24\n      swap1\n      tag_19\n      jump\t// in\n    tag_24:\n      dup1\n      0x1f\n      add\n      0x20\n      dup1\n      swap2\n      div\n      mul\n      0x20\n      add\n      mload(0x40)\n      swap1\n      dup2\n      add\n      0x40\n      mstore\n      dup1\n      swap3\n      swap2\n      swap1\n      dup2\n      dup2\n      mstore\n      0x20\n      add\n      dup3\n      dup1\n      sload\n      tag_25\n      swap1\n      tag_19\n      jump\t// in\n    tag_25:\n      dup1\n      iszero\n      tag_26\n      jumpi\n      dup1\n      0x1f\n      lt\n      tag_27\n      jumpi\n      0x0100\n      dup1\n      dup4\n      sload\n      div\n      mul\n      dup4\n      mstore\n      swap2\n      0x20\n      add\n      swap2\n      jump(tag_26)\n    tag_27:\n      dup3\n      add\n      swap2\n      swap1\n      0x00\n      mstore\n      keccak256(0x00, 0x20)\n      swap1\n    tag_28:\n      dup2\n      sload\n      dup2\n      mstore\n      swap1\n      0x01\n      add\n      swap1\n      0x20\n      add\n      dup1\n      dup4\n      gt\n      tag_28\n      jumpi\n      dup3\n      swap1\n      sub\n      0x1f\n      and\n      dup3\n      add\n      swap2\n    tag_26:\n      pop\n      pop\n      pop\n      pop\n      pop\n      dup2\n      mstore\n      0x20\n      add\n      0x03\n      dup3\n      add\n      dup1\n      sload\n      dup1\n      0x20\n      mul\n      0x20\n      add\n      mload(0x40)\n      swap1\n      dup2\n      add\n      0x40\n      mstore\n      dup1\n      swap3\n      swap2\n      swap1\n      dup2\n      dup2\n      mstore\n      0x20\n      add\n      0x00\n      swap1\n    tag_29:\n      dup3\n      dup3\n      lt\n      iszero\n      tag_30\n      jumpi\n      dup4\n      dup3\n      swap1\n      0x00\n      mstore\n      keccak256(0x00, 0x20)\n      add\n      dup1\n      sload\n      tag_32\n      swap1\n      tag_19\n      jump\t// in\n    tag_32:\n      dup1\n      0x1f\n      add\n      0x20\n      dup1\n      swap2\n      div\n      mul\n      0x20\n      add\n      mload(0x40)\n      swap1\n      dup2\n      add\n      0x40\n      mstore\n      dup1\n      swap3\n      swap2\n      swap1\n      dup2\n      dup2\n      mstore\n      0x20\n      add\n      dup3\n      dup1\n      sload\n      tag_33\n      swap1\n      tag_19\n      jump\t// in\n    tag_33:\n      dup1\n      iszero\n      tag_34\n      jumpi\n      dup1\n      0x1f\n      lt\n      tag_35\n      jumpi\n      0x0100\n      dup1\n      dup4\n      sload\n      div\n      mul\n      dup4\n      mstore\n      swap2\n      0x20\n      add\n      swap2\n      jump(tag_34)\n    tag_35:\n      dup3\n      add\n      swap2\n      swap1\n      0x00\n      mstore\n      keccak256(0x00, 0x20)\n      swap1\n    tag_36:\n      dup2\n      sload\n      dup2\n      mstore\n      swap1\n      0x01\n      add\n      swap1\n      0x20\n      add\n      dup1\n      dup4\n      gt\n      tag_36\n      jumpi\n      dup3\n      swap1\n      sub\n      0x1f\n      and\n      dup3\n      add\n      swap2\n    tag_34:\n      pop\n      pop\n      pop\n      pop\n      pop\n      dup2\n      mstore\n      0x20\n      add\n      swap1\n      0x01\n      add\n      swap1\n      jump(tag_29)\n    tag_30:\n      pop\n      pop\n      pop\n      pop\n      dup2\n      mstore\n      pop\n      pop\n      swap1\n      pop\n        /* \"contracts/AuthService.sol\":2499:2507  userAddr */\n      dup2\n        /* \"contracts/AuthService.sol\":2485:2507  userAddress = userAddr */\n      swap5\n      pop\n        /* \"contracts/AuthService.sol\":2526:2536  userStatus */\n      0x00\n        /* \"contracts/AuthService.sol\":2526:2549  userStatus[user.status] */\n      dup1\n        /* \"contracts/AuthService.sol\":2537:2541  user */\n      dup3\n        /* \"contracts/AuthService.sol\":2537:2548  user.status */\n      0x00\n      add\n      mload\n        /* \"contracts/AuthService.sol\":2526:2549  userStatus[user.status] */\n      dup2\n      mstore\n      0x20\n      add\n      swap1\n      dup2\n      mstore\n      0x20\n      add\n      0x00\n      keccak256\n        /* \"contracts/AuthService.sol\":2517:2549  status = userStatus[user.status] */\n      dup1\n      sload\n      tag_37\n      swap1\n      tag_19\n      jump\t// in\n    tag_37:\n      dup1\n      0x1f\n      add\n      0x20\n      dup1\n      swap2\n      div\n      mul\n      0x20\n      add\n      mload(0x40)\n      swap1\n      dup2\n      add\n      0x40\n      mstore\n      dup1\n      swap3\n      swap2\n      swap1\n      dup2\n      dup2\n      mstore\n      0x20\n      add\n      dup3\n      dup1\n      sload\n      tag_38\n      swap1\n      tag_19\n      jump\t// in\n    tag_38:\n      dup1\n      iszero\n      tag_39\n      jumpi\n      dup1\n      0x1f\n      lt\n      tag_40\n      jumpi\n      0x0100\n      dup1\n      dup4\n      sload\n      div\n      mul\n      dup4\n      mstore\n      swap2\n      0x20\n      add\n      swap2\n      jump(tag_39)\n    tag_40:\n      dup3\n      add\n      swap2\n      swap1\n      0x00\n      mstore\n      keccak256(0x00, 0x20)\n      swap1\n    tag_41:\n      dup2\n      sload\n      dup2\n      mstore\n      swap1\n      0x01\n      add\n      swap1\n      0x20\n      add\n      dup1\n      dup4\n      gt\n      tag_41\n      jumpi\n      dup3\n      swap1\n      sub\n      0x1f\n      and\n      dup3\n      add\n      swap2\n    tag_39:\n      pop\n      pop\n      pop\n      pop\n      pop\n      swap4\n      pop\n        /* \"contracts/AuthService.sol\":2381:2556  {... */\n      pop\n      pop\n        /* \"contracts/AuthService.sol\":2256:2556  function login(string memory userLogin) public view isRegistered(userLogin) returns(address userAddress,string memory status){... */\n      pop\n      swap2\n      pop\n      swap2\n      jump\t// out\n        /* \"#utility.yul\":7:419   */\n    tag_43:\n        /* \"#utility.yul\":85:90   */\n      0x00\n        /* \"#utility.yul\":110:176   */\n      tag_45\n        /* \"#utility.yul\":126:175   */\n      tag_46\n        /* \"#utility.yul\":168:174   */\n      dup5\n        /* \"#utility.yul\":126:175   */\n      tag_47\n      jump\t// in\n    tag_46:\n        /* \"#utility.yul\":110:176   */\n      tag_48\n      jump\t// in\n    tag_45:\n        /* \"#utility.yul\":101:176   */\n      swap1\n      pop\n        /* \"#utility.yul\":199:205   */\n      dup3\n        /* \"#utility.yul\":192:197   */\n      dup2\n        /* \"#utility.yul\":185:206   */\n      mstore\n        /* \"#utility.yul\":237:241   */\n      0x20\n        /* \"#utility.yul\":230:235   */\n      dup2\n        /* \"#utility.yul\":226:242   */\n      add\n        /* \"#utility.yul\":275:278   */\n      dup5\n        /* \"#utility.yul\":266:272   */\n      dup5\n        /* \"#utility.yul\":261:264   */\n      dup5\n        /* \"#utility.yul\":257:273   */\n      add\n        /* \"#utility.yul\":254:279   */\n      gt\n        /* \"#utility.yul\":251:363   */\n      iszero\n      tag_49\n      jumpi\n        /* \"#utility.yul\":282:361   */\n      tag_50\n      tag_51\n      jump\t// in\n    tag_50:\n        /* \"#utility.yul\":251:363   */\n    tag_49:\n        /* \"#utility.yul\":372:413   */\n      tag_52\n        /* \"#utility.yul\":406:412   */\n      dup5\n        /* \"#utility.yul\":401:404   */\n      dup3\n        /* \"#utility.yul\":396:399   */\n      dup6\n        /* \"#utility.yul\":372:413   */\n      tag_53\n      jump\t// in\n    tag_52:\n        /* \"#utility.yul\":91:419   */\n      pop\n        /* \"#utility.yul\":7:419   */\n      swap4\n      swap3\n      pop\n      pop\n      pop\n      jump\t// out\n        /* \"#utility.yul\":439:779   */\n    tag_54:\n        /* \"#utility.yul\":495:500   */\n      0x00\n        /* \"#utility.yul\":544:547   */\n      dup3\n        /* \"#utility.yul\":537:541   */\n      0x1f\n        /* \"#utility.yul\":529:535   */\n      dup4\n        /* \"#utility.yul\":525:542   */\n      add\n        /* \"#utility.yul\":521:548   */\n      slt\n        /* \"#utility.yul\":511:633   */\n      tag_56\n      jumpi\n        /* \"#utility.yul\":552:631   */\n      tag_57\n      tag_58\n      jump\t// in\n    tag_57:\n        /* \"#utility.yul\":511:633   */\n    tag_56:\n        /* \"#utility.yul\":669:675   */\n      dup2\n        /* \"#utility.yul\":656:676   */\n      calldataload\n        /* \"#utility.yul\":694:773   */\n      tag_59\n        /* \"#utility.yul\":769:772   */\n      dup5\n        /* \"#utility.yul\":761:767   */\n      dup3\n        /* \"#utility.yul\":754:758   */\n      0x20\n        /* \"#utility.yul\":746:752   */\n      dup7\n        /* \"#utility.yul\":742:759   */\n      add\n        /* \"#utility.yul\":694:773   */\n      tag_43\n      jump\t// in\n    tag_59:\n        /* \"#utility.yul\":685:773   */\n      swap2\n      pop\n        /* \"#utility.yul\":501:779   */\n      pop\n        /* \"#utility.yul\":439:779   */\n      swap3\n      swap2\n      pop\n      pop\n      jump\t// out\n        /* \"#utility.yul\":785:1294   */\n    tag_6:\n        /* \"#utility.yul\":854:860   */\n      0x00\n        /* \"#utility.yul\":903:905   */\n      0x20\n        /* \"#utility.yul\":891:900   */\n      dup3\n        /* \"#utility.yul\":882:889   */\n      dup5\n        /* \"#utility.yul\":878:901   */\n      sub\n        /* \"#utility.yul\":874:906   */\n      slt\n        /* \"#utility.yul\":871:990   */\n      iszero\n      tag_61\n      jumpi\n        /* \"#utility.yul\":909:988   */\n      tag_62\n      tag_63\n      jump\t// in\n    tag_62:\n        /* \"#utility.yul\":871:990   */\n    tag_61:\n        /* \"#utility.yul\":1057:1058   */\n      0x00\n        /* \"#utility.yul\":1046:1055   */\n      dup3\n        /* \"#utility.yul\":1042:1059   */\n      add\n        /* \"#utility.yul\":1029:1060   */\n      calldataload\n        /* \"#utility.yul\":1087:1105   */\n      0xffffffffffffffff\n        /* \"#utility.yul\":1079:1085   */\n      dup2\n        /* \"#utility.yul\":1076:1106   */\n      gt\n        /* \"#utility.yul\":1073:1190   */\n      iszero\n      tag_64\n      jumpi\n        /* \"#utility.yul\":1109:1188   */\n      tag_65\n      tag_66\n      jump\t// in\n    tag_65:\n        /* \"#utility.yul\":1073:1190   */\n    tag_64:\n        /* \"#utility.yul\":1214:1277   */\n      tag_67\n        /* \"#utility.yul\":1269:1276   */\n      dup5\n        /* \"#utility.yul\":1260:1266   */\n      dup3\n        /* \"#utility.yul\":1249:1258   */\n      dup6\n        /* \"#utility.yul\":1245:1267   */\n      add\n        /* \"#utility.yul\":1214:1277   */\n      tag_54\n      jump\t// in\n    tag_67:\n        /* \"#utility.yul\":1204:1277   */\n      swap2\n      pop\n        /* \"#utility.yul\":1000:1287   */\n      pop\n        /* \"#utility.yul\":785:1294   */\n      swap3\n      swap2\n      pop\n      pop\n      jump\t// out\n        /* \"#utility.yul\":1300:1418   */\n    tag_68:\n        /* \"#utility.yul\":1387:1411   */\n      tag_70\n        /* \"#utility.yul\":1405:1410   */\n      dup2\n        /* \"#utility.yul\":1387:1411   */\n      tag_71\n      jump\t// in\n    tag_70:\n        /* \"#utility.yul\":1382:1385   */\n      dup3\n        /* \"#utility.yul\":1375:1412   */\n      mstore\n        /* \"#utility.yul\":1300:1418   */\n      pop\n      pop\n      jump\t// out\n        /* \"#utility.yul\":1424:1788   */\n    tag_72:\n        /* \"#utility.yul\":1512:1515   */\n      0x00\n        /* \"#utility.yul\":1540:1579   */\n      tag_74\n        /* \"#utility.yul\":1573:1578   */\n      dup3\n        /* \"#utility.yul\":1540:1579   */\n      tag_75\n      jump\t// in\n    tag_74:\n        /* \"#utility.yul\":1595:1666   */\n      tag_76\n        /* \"#utility.yul\":1659:1665   */\n      dup2\n        /* \"#utility.yul\":1654:1657   */\n      dup6\n        /* \"#utility.yul\":1595:1666   */\n      tag_77\n      jump\t// in\n    tag_76:\n        /* \"#utility.yul\":1588:1666   */\n      swap4\n      pop\n        /* \"#utility.yul\":1675:1727   */\n      tag_78\n        /* \"#utility.yul\":1720:1726   */\n      dup2\n        /* \"#utility.yul\":1715:1718   */\n      dup6\n        /* \"#utility.yul\":1708:1712   */\n      0x20\n        /* \"#utility.yul\":1701:1706   */\n      dup7\n        /* \"#utility.yul\":1697:1713   */\n      add\n        /* \"#utility.yul\":1675:1727   */\n      tag_79\n      jump\t// in\n    tag_78:\n        /* \"#utility.yul\":1752:1781   */\n      tag_80\n        /* \"#utility.yul\":1774:1780   */\n      dup2\n        /* \"#utility.yul\":1752:1781   */\n      tag_81\n      jump\t// in\n    tag_80:\n        /* \"#utility.yul\":1747:1750   */\n      dup5\n        /* \"#utility.yul\":1743:1782   */\n      add\n        /* \"#utility.yul\":1736:1782   */\n      swap2\n      pop\n        /* \"#utility.yul\":1516:1788   */\n      pop\n        /* \"#utility.yul\":1424:1788   */\n      swap3\n      swap2\n      pop\n      pop\n      jump\t// out\n        /* \"#utility.yul\":1794:2171   */\n    tag_82:\n        /* \"#utility.yul\":1900:1903   */\n      0x00\n        /* \"#utility.yul\":1928:1967   */\n      tag_84\n        /* \"#utility.yul\":1961:1966   */\n      dup3\n        /* \"#utility.yul\":1928:1967   */\n      tag_75\n      jump\t// in\n    tag_84:\n        /* \"#utility.yul\":1983:2072   */\n      tag_85\n        /* \"#utility.yul\":2065:2071   */\n      dup2\n        /* \"#utility.yul\":2060:2063   */\n      dup6\n        /* \"#utility.yul\":1983:2072   */\n      tag_86\n      jump\t// in\n    tag_85:\n        /* \"#utility.yul\":1976:2072   */\n      swap4\n      pop\n        /* \"#utility.yul\":2081:2133   */\n      tag_87\n        /* \"#utility.yul\":2126:2132   */\n      dup2\n        /* \"#utility.yul\":2121:2124   */\n      dup6\n        /* \"#utility.yul\":2114:2118   */\n      0x20\n        /* \"#utility.yul\":2107:2112   */\n      dup7\n        /* \"#utility.yul\":2103:2119   */\n      add\n        /* \"#utility.yul\":2081:2133   */\n      tag_79\n      jump\t// in\n    tag_87:\n        /* \"#utility.yul\":2158:2164   */\n      dup1\n        /* \"#utility.yul\":2153:2156   */\n      dup5\n        /* \"#utility.yul\":2149:2165   */\n      add\n        /* \"#utility.yul\":2142:2165   */\n      swap2\n      pop\n        /* \"#utility.yul\":1904:2171   */\n      pop\n        /* \"#utility.yul\":1794:2171   */\n      swap3\n      swap2\n      pop\n      pop\n      jump\t// out\n        /* \"#utility.yul\":2177:2543   */\n    tag_88:\n        /* \"#utility.yul\":2319:2322   */\n      0x00\n        /* \"#utility.yul\":2340:2407   */\n      tag_90\n        /* \"#utility.yul\":2404:2406   */\n      0x0b\n        /* \"#utility.yul\":2399:2402   */\n      dup4\n        /* \"#utility.yul\":2340:2407   */\n      tag_77\n      jump\t// in\n    tag_90:\n        /* \"#utility.yul\":2333:2407   */\n      swap2\n      pop\n        /* \"#utility.yul\":2416:2509   */\n      tag_91\n        /* \"#utility.yul\":2505:2508   */\n      dup3\n        /* \"#utility.yul\":2416:2509   */\n      tag_92\n      jump\t// in\n    tag_91:\n        /* \"#utility.yul\":2534:2536   */\n      0x20\n        /* \"#utility.yul\":2529:2532   */\n      dup3\n        /* \"#utility.yul\":2525:2537   */\n      add\n        /* \"#utility.yul\":2518:2537   */\n      swap1\n      pop\n        /* \"#utility.yul\":2177:2543   */\n      swap2\n      swap1\n      pop\n      jump\t// out\n        /* \"#utility.yul\":2549:2824   */\n    tag_12:\n        /* \"#utility.yul\":2681:2684   */\n      0x00\n        /* \"#utility.yul\":2703:2798   */\n      tag_94\n        /* \"#utility.yul\":2794:2797   */\n      dup3\n        /* \"#utility.yul\":2785:2791   */\n      dup5\n        /* \"#utility.yul\":2703:2798   */\n      tag_82\n      jump\t// in\n    tag_94:\n        /* \"#utility.yul\":2696:2798   */\n      swap2\n      pop\n        /* \"#utility.yul\":2815:2818   */\n      dup2\n        /* \"#utility.yul\":2808:2818   */\n      swap1\n      pop\n        /* \"#utility.yul\":2549:2824   */\n      swap3\n      swap2\n      pop\n      pop\n      jump\t// out\n        /* \"#utility.yul\":2830:3253   */\n    tag_9:\n        /* \"#utility.yul\":2971:2975   */\n      0x00\n        /* \"#utility.yul\":3009:3011   */\n      0x40\n        /* \"#utility.yul\":2998:3007   */\n      dup3\n        /* \"#utility.yul\":2994:3012   */\n      add\n        /* \"#utility.yul\":2986:3012   */\n      swap1\n      pop\n        /* \"#utility.yul\":3022:3093   */\n      tag_96\n        /* \"#utility.yul\":3090:3091   */\n      0x00\n        /* \"#utility.yul\":3079:3088   */\n      dup4\n        /* \"#utility.yul\":3075:3092   */\n      add\n        /* \"#utility.yul\":3066:3072   */\n      dup6\n        /* \"#utility.yul\":3022:3093   */\n      tag_68\n      jump\t// in\n    tag_96:\n        /* \"#utility.yul\":3140:3149   */\n      dup2\n        /* \"#utility.yul\":3134:3138   */\n      dup2\n        /* \"#utility.yul\":3130:3150   */\n      sub\n        /* \"#utility.yul\":3125:3127   */\n      0x20\n        /* \"#utility.yul\":3114:3123   */\n      dup4\n        /* \"#utility.yul\":3110:3128   */\n      add\n        /* \"#utility.yul\":3103:3151   */\n      mstore\n        /* \"#utility.yul\":3168:3246   */\n      tag_97\n        /* \"#utility.yul\":3241:3245   */\n      dup2\n        /* \"#utility.yul\":3232:3238   */\n      dup5\n        /* \"#utility.yul\":3168:3246   */\n      tag_72\n      jump\t// in\n    tag_97:\n        /* \"#utility.yul\":3160:3246   */\n      swap1\n      pop\n        /* \"#utility.yul\":2830:3253   */\n      swap4\n      swap3\n      pop\n      pop\n      pop\n      jump\t// out\n        /* \"#utility.yul\":3259:3678   */\n    tag_15:\n        /* \"#utility.yul\":3425:3429   */\n      0x00\n        /* \"#utility.yul\":3463:3465   */\n      0x20\n        /* \"#utility.yul\":3452:3461   */\n      dup3\n        /* \"#utility.yul\":3448:3466   */\n      add\n        /* \"#utility.yul\":3440:3466   */\n      swap1\n      pop\n        /* \"#utility.yul\":3512:3521   */\n      dup2\n        /* \"#utility.yul\":3506:3510   */\n      dup2\n        /* \"#utility.yul\":3502:3522   */\n      sub\n        /* \"#utility.yul\":3498:3499   */\n      0x00\n        /* \"#utility.yul\":3487:3496   */\n      dup4\n        /* \"#utility.yul\":3483:3500   */\n      add\n        /* \"#utility.yul\":3476:3523   */\n      mstore\n        /* \"#utility.yul\":3540:3671   */\n      tag_99\n        /* \"#utility.yul\":3666:3670   */\n      dup2\n        /* \"#utility.yul\":3540:3671   */\n      tag_88\n      jump\t// in\n    tag_99:\n        /* \"#utility.yul\":3532:3671   */\n      swap1\n      pop\n        /* \"#utility.yul\":3259:3678   */\n      swap2\n      swap1\n      pop\n      jump\t// out\n        /* \"#utility.yul\":3684:3813   */\n    tag_48:\n        /* \"#utility.yul\":3718:3724   */\n      0x00\n        /* \"#utility.yul\":3745:3765   */\n      tag_101\n      tag_102\n      jump\t// in\n    tag_101:\n        /* \"#utility.yul\":3735:3765   */\n      swap1\n      pop\n        /* \"#utility.yul\":3774:3807   */\n      tag_103\n        /* \"#utility.yul\":3802:3806   */\n      dup3\n        /* \"#utility.yul\":3794:3800   */\n      dup3\n        /* \"#utility.yul\":3774:3807   */\n      tag_104\n      jump\t// in\n    tag_103:\n        /* \"#utility.yul\":3684:3813   */\n      swap2\n      swap1\n      pop\n      jump\t// out\n        /* \"#utility.yul\":3819:3894   */\n    tag_102:\n        /* \"#utility.yul\":3852:3858   */\n      0x00\n        /* \"#utility.yul\":3885:3887   */\n      0x40\n        /* \"#utility.yul\":3879:3888   */\n      mload\n        /* \"#utility.yul\":3869:3888   */\n      swap1\n      pop\n        /* \"#utility.yul\":3819:3894   */\n      swap1\n      jump\t// out\n        /* \"#utility.yul\":3900:4208   */\n    tag_47:\n        /* \"#utility.yul\":3962:3966   */\n      0x00\n        /* \"#utility.yul\":4052:4070   */\n      0xffffffffffffffff\n        /* \"#utility.yul\":4044:4050   */\n      dup3\n        /* \"#utility.yul\":4041:4071   */\n      gt\n        /* \"#utility.yul\":4038:4094   */\n      iszero\n      tag_107\n      jumpi\n        /* \"#utility.yul\":4074:4092   */\n      tag_108\n      tag_109\n      jump\t// in\n    tag_108:\n        /* \"#utility.yul\":4038:4094   */\n    tag_107:\n        /* \"#utility.yul\":4112:4141   */\n      tag_110\n        /* \"#utility.yul\":4134:4140   */\n      dup3\n        /* \"#utility.yul\":4112:4141   */\n      tag_81\n      jump\t// in\n    tag_110:\n        /* \"#utility.yul\":4104:4141   */\n      swap1\n      pop\n        /* \"#utility.yul\":4196:4200   */\n      0x20\n        /* \"#utility.yul\":4190:4194   */\n      dup2\n        /* \"#utility.yul\":4186:4201   */\n      add\n        /* \"#utility.yul\":4178:4201   */\n      swap1\n      pop\n        /* \"#utility.yul\":3900:4208   */\n      swap2\n      swap1\n      pop\n      jump\t// out\n        /* \"#utility.yul\":4214:4313   */\n    tag_75:\n        /* \"#utility.yul\":4266:4272   */\n      0x00\n        /* \"#utility.yul\":4300:4305   */\n      dup2\n        /* \"#utility.yul\":4294:4306   */\n      mload\n        /* \"#utility.yul\":4284:4306   */\n      swap1\n      pop\n        /* \"#utility.yul\":4214:4313   */\n      swap2\n      swap1\n      pop\n      jump\t// out\n        /* \"#utility.yul\":4319:4488   */\n    tag_77:\n        /* \"#utility.yul\":4403:4414   */\n      0x00\n        /* \"#utility.yul\":4437:4443   */\n      dup3\n        /* \"#utility.yul\":4432:4435   */\n      dup3\n        /* \"#utility.yul\":4425:4444   */\n      mstore\n        /* \"#utility.yul\":4477:4481   */\n      0x20\n        /* \"#utility.yul\":4472:4475   */\n      dup3\n        /* \"#utility.yul\":4468:4482   */\n      add\n        /* \"#utility.yul\":4453:4482   */\n      swap1\n      pop\n        /* \"#utility.yul\":4319:4488   */\n      swap3\n      swap2\n      pop\n      pop\n      jump\t// out\n        /* \"#utility.yul\":4494:4642   */\n    tag_86:\n        /* \"#utility.yul\":4596:4607   */\n      0x00\n        /* \"#utility.yul\":4633:4636   */\n      dup2\n        /* \"#utility.yul\":4618:4636   */\n      swap1\n      pop\n        /* \"#utility.yul\":4494:4642   */\n      swap3\n      swap2\n      pop\n      pop\n      jump\t// out\n        /* \"#utility.yul\":4648:4744   */\n    tag_71:\n        /* \"#utility.yul\":4685:4692   */\n      0x00\n        /* \"#utility.yul\":4714:4738   */\n      tag_115\n        /* \"#utility.yul\":4732:4737   */\n      dup3\n        /* \"#utility.yul\":4714:4738   */\n      tag_116\n      jump\t// in\n    tag_115:\n        /* \"#utility.yul\":4703:4738   */\n      swap1\n      pop\n        /* \"#utility.yul\":4648:4744   */\n      swap2\n      swap1\n      pop\n      jump\t// out\n        /* \"#utility.yul\":4750:4876   */\n    tag_116:\n        /* \"#utility.yul\":4787:4794   */\n      0x00\n        /* \"#utility.yul\":4827:4869   */\n      0xffffffffffffffffffffffffffffffffffffffff\n        /* \"#utility.yul\":4820:4825   */\n      dup3\n        /* \"#utility.yul\":4816:4870   */\n      and\n        /* \"#utility.yul\":4805:4870   */\n      swap1\n      pop\n        /* \"#utility.yul\":4750:4876   */\n      swap2\n      swap1\n      pop\n      jump\t// out\n        /* \"#utility.yul\":4882:5036   */\n    tag_53:\n        /* \"#utility.yul\":4966:4972   */\n      dup3\n        /* \"#utility.yul\":4961:4964   */\n      dup2\n        /* \"#utility.yul\":4956:4959   */\n      dup4\n        /* \"#utility.yul\":4943:4973   */\n      calldatacopy\n        /* \"#utility.yul\":5028:5029   */\n      0x00\n        /* \"#utility.yul\":5019:5025   */\n      dup4\n        /* \"#utility.yul\":5014:5017   */\n      dup4\n        /* \"#utility.yul\":5010:5026   */\n      add\n        /* \"#utility.yul\":5003:5030   */\n      mstore\n        /* \"#utility.yul\":4882:5036   */\n      pop\n      pop\n      pop\n      jump\t// out\n        /* \"#utility.yul\":5042:5349   */\n    tag_79:\n        /* \"#utility.yul\":5110:5111   */\n      0x00\n        /* \"#utility.yul\":5120:5233   */\n    tag_120:\n        /* \"#utility.yul\":5134:5140   */\n      dup4\n        /* \"#utility.yul\":5131:5132   */\n      dup2\n        /* \"#utility.yul\":5128:5141   */\n      lt\n        /* \"#utility.yul\":5120:5233   */\n      iszero\n      tag_122\n      jumpi\n        /* \"#utility.yul\":5219:5220   */\n      dup1\n        /* \"#utility.yul\":5214:5217   */\n      dup3\n        /* \"#utility.yul\":5210:5221   */\n      add\n        /* \"#utility.yul\":5204:5222   */\n      mload\n        /* \"#utility.yul\":5200:5201   */\n      dup2\n        /* \"#utility.yul\":5195:5198   */\n      dup5\n        /* \"#utility.yul\":5191:5202   */\n      add\n        /* \"#utility.yul\":5184:5223   */\n      mstore\n        /* \"#utility.yul\":5156:5158   */\n      0x20\n        /* \"#utility.yul\":5153:5154   */\n      dup2\n        /* \"#utility.yul\":5149:5159   */\n      add\n        /* \"#utility.yul\":5144:5159   */\n      swap1\n      pop\n        /* \"#utility.yul\":5120:5233   */\n      jump(tag_120)\n    tag_122:\n        /* \"#utility.yul\":5251:5257   */\n      dup4\n        /* \"#utility.yul\":5248:5249   */\n      dup2\n        /* \"#utility.yul\":5245:5258   */\n      gt\n        /* \"#utility.yul\":5242:5343   */\n      iszero\n      tag_123\n      jumpi\n        /* \"#utility.yul\":5331:5332   */\n      0x00\n        /* \"#utility.yul\":5322:5328   */\n      dup5\n        /* \"#utility.yul\":5317:5320   */\n      dup5\n        /* \"#utility.yul\":5313:5329   */\n      add\n        /* \"#utility.yul\":5306:5333   */\n      mstore\n        /* \"#utility.yul\":5242:5343   */\n    tag_123:\n        /* \"#utility.yul\":5091:5349   */\n      pop\n        /* \"#utility.yul\":5042:5349   */\n      pop\n      pop\n      pop\n      jump\t// out\n        /* \"#utility.yul\":5355:5675   */\n    tag_19:\n        /* \"#utility.yul\":5399:5405   */\n      0x00\n        /* \"#utility.yul\":5436:5437   */\n      0x02\n        /* \"#utility.yul\":5430:5434   */\n      dup3\n        /* \"#utility.yul\":5426:5438   */\n      div\n        /* \"#utility.yul\":5416:5438   */\n      swap1\n      pop\n        /* \"#utility.yul\":5483:5484   */\n      0x01\n        /* \"#utility.yul\":5477:5481   */\n      dup3\n        /* \"#utility.yul\":5473:5485   */\n      and\n        /* \"#utility.yul\":5504:5522   */\n      dup1\n        /* \"#utility.yul\":5494:5575   */\n      tag_125\n      jumpi\n        /* \"#utility.yul\":5560:5564   */\n      0x7f\n        /* \"#utility.yul\":5552:5558   */\n      dup3\n        /* \"#utility.yul\":5548:5565   */\n      and\n        /* \"#utility.yul\":5538:5565   */\n      swap2\n      pop\n        /* \"#utility.yul\":5494:5575   */\n    tag_125:\n        /* \"#utility.yul\":5622:5624   */\n      0x20\n        /* \"#utility.yul\":5614:5620   */\n      dup3\n        /* \"#utility.yul\":5611:5625   */\n      lt\n        /* \"#utility.yul\":5591:5609   */\n      dup2\n        /* \"#utility.yul\":5588:5626   */\n      eq\n        /* \"#utility.yul\":5585:5669   */\n      iszero\n      tag_126\n      jumpi\n        /* \"#utility.yul\":5641:5659   */\n      tag_127\n      tag_128\n      jump\t// in\n    tag_127:\n        /* \"#utility.yul\":5585:5669   */\n    tag_126:\n        /* \"#utility.yul\":5406:5675   */\n      pop\n        /* \"#utility.yul\":5355:5675   */\n      swap2\n      swap1\n      pop\n      jump\t// out\n        /* \"#utility.yul\":5681:5962   */\n    tag_104:\n        /* \"#utility.yul\":5764:5791   */\n      tag_130\n        /* \"#utility.yul\":5786:5790   */\n      dup3\n        /* \"#utility.yul\":5764:5791   */\n      tag_81\n      jump\t// in\n    tag_130:\n        /* \"#utility.yul\":5756:5762   */\n      dup2\n        /* \"#utility.yul\":5752:5792   */\n      add\n        /* \"#utility.yul\":5894:5900   */\n      dup2\n        /* \"#utility.yul\":5882:5892   */\n      dup2\n        /* \"#utility.yul\":5879:5901   */\n      lt\n        /* \"#utility.yul\":5858:5876   */\n      0xffffffffffffffff\n        /* \"#utility.yul\":5846:5856   */\n      dup3\n        /* \"#utility.yul\":5843:5877   */\n      gt\n        /* \"#utility.yul\":5840:5902   */\n      or\n        /* \"#utility.yul\":5837:5925   */\n      iszero\n      tag_131\n      jumpi\n        /* \"#utility.yul\":5905:5923   */\n      tag_132\n      tag_109\n      jump\t// in\n    tag_132:\n        /* \"#utility.yul\":5837:5925   */\n    tag_131:\n        /* \"#utility.yul\":5945:5955   */\n      dup1\n        /* \"#utility.yul\":5941:5943   */\n      0x40\n        /* \"#utility.yul\":5934:5956   */\n      mstore\n        /* \"#utility.yul\":5724:5962   */\n      pop\n        /* \"#utility.yul\":5681:5962   */\n      pop\n      pop\n      jump\t// out\n        /* \"#utility.yul\":5968:6148   */\n    tag_128:\n        /* \"#utility.yul\":6016:6093   */\n      0x4e487b7100000000000000000000000000000000000000000000000000000000\n        /* \"#utility.yul\":6013:6014   */\n      0x00\n        /* \"#utility.yul\":6006:6094   */\n      mstore\n        /* \"#utility.yul\":6113:6117   */\n      0x22\n        /* \"#utility.yul\":6110:6111   */\n      0x04\n        /* \"#utility.yul\":6103:6118   */\n      mstore\n        /* \"#utility.yul\":6137:6141   */\n      0x24\n        /* \"#utility.yul\":6134:6135   */\n      0x00\n        /* \"#utility.yul\":6127:6142   */\n      revert\n        /* \"#utility.yul\":6154:6334   */\n    tag_109:\n        /* \"#utility.yul\":6202:6279   */\n      0x4e487b7100000000000000000000000000000000000000000000000000000000\n        /* \"#utility.yul\":6199:6200   */\n      0x00\n        /* \"#utility.yul\":6192:6280   */\n      mstore\n        /* \"#utility.yul\":6299:6303   */\n      0x41\n        /* \"#utility.yul\":6296:6297   */\n      0x04\n        /* \"#utility.yul\":6289:6304   */\n      mstore\n        /* \"#utility.yul\":6323:6327   */\n      0x24\n        /* \"#utility.yul\":6320:6321   */\n      0x00\n        /* \"#utility.yul\":6313:6328   */\n      revert\n        /* \"#utility.yul\":6340:6457   */\n    tag_58:\n        /* \"#utility.yul\":6449:6450   */\n      0x00\n        /* \"#utility.yul\":6446:6447   */\n      dup1\n        /* \"#utility.yul\":6439:6451   */\n      revert\n        /* \"#utility.yul\":6463:6580   */\n    tag_51:\n        /* \"#utility.yul\":6572:6573   */\n      0x00\n        /* \"#utility.yul\":6569:6570   */\n      dup1\n        /* \"#utility.yul\":6562:6574   */\n      revert\n        /* \"#utility.yul\":6586:6703   */\n    tag_66:\n        /* \"#utility.yul\":6695:6696   */\n      0x00\n        /* \"#utility.yul\":6692:6693   */\n      dup1\n        /* \"#utility.yul\":6685:6697   */\n      revert\n        /* \"#utility.yul\":6709:6826   */\n    tag_63:\n        /* \"#utility.yul\":6818:6819   */\n      0x00\n        /* \"#utility.yul\":6815:6816   */\n      dup1\n        /* \"#utility.yul\":6808:6820   */\n      revert\n        /* \"#utility.yul\":6832:6934   */\n    tag_81:\n        /* \"#utility.yul\":6873:6879   */\n      0x00\n        /* \"#utility.yul\":6924:6926   */\n      0x1f\n        /* \"#utility.yul\":6920:6927   */\n      not\n        /* \"#utility.yul\":6915:6917   */\n      0x1f\n        /* \"#utility.yul\":6908:6913   */\n      dup4\n        /* \"#utility.yul\":6904:6918   */\n      add\n        /* \"#utility.yul\":6900:6928   */\n      and\n        /* \"#utility.yul\":6890:6928   */\n      swap1\n      pop\n        /* \"#utility.yul\":6832:6934   */\n      swap2\n      swap1\n      pop\n      jump\t// out\n        /* \"#utility.yul\":6940:7101   */\n    tag_92:\n        /* \"#utility.yul\":7080:7093   */\n      0x57726f6e67204c6f67696e000000000000000000000000000000000000000000\n        /* \"#utility.yul\":7076:7077   */\n      0x00\n        /* \"#utility.yul\":7068:7074   */\n      dup3\n        /* \"#utility.yul\":7064:7078   */\n      add\n        /* \"#utility.yul\":7057:7094   */\n      mstore\n        /* \"#utility.yul\":6940:7101   */\n      pop\n      jump\t// out\n\n    auxdata: 0xa26469706673582212209ecbb8fb3ca2154b7de19e14cc284af2407997173bd3945172d327efbe9558a964736f6c63430008070033\n}\n",
				"bytecode": {
					"linkReferences": {},
					"object": "60806040523480156200001157600080fd5b506040518060400160405280600581526020017f627579657200000000000000000000000000000000000000000000000000000081525060008080815260200190815260200160002090805190602001906200006f92919062000251565b506040518060400160405280600681526020017f73656c6c65720000000000000000000000000000000000000000000000000000815250600080600181526020019081526020016000209080519060200190620000ce92919062000251565b506040518060400160405280600481526020017f73686f70000000000000000000000000000000000000000000000000000000008152506000806002815260200190815260200160002090805190602001906200012d92919062000251565b506040518060400160405280600581526020017f61646d696e0000000000000000000000000000000000000000000000000000008152506000806003815260200190815260200160002090805190602001906200018c92919062000251565b506040518060400160405280600881526020017f70726f7669646572000000000000000000000000000000000000000000000000815250600080600481526020019081526020016000209080519060200190620001eb92919062000251565b506040518060400160405280600481526020017f62616e6b000000000000000000000000000000000000000000000000000000008152506000806005815260200190815260200160002090805190602001906200024a92919062000251565b5062000366565b8280546200025f9062000301565b90600052602060002090601f016020900481019282620002835760008555620002cf565b82601f106200029e57805160ff1916838001178555620002cf565b82800160010185558215620002cf579182015b82811115620002ce578251825591602001919060010190620002b1565b5b509050620002de9190620002e2565b5090565b5b80821115620002fd576000816000905550600101620002e3565b5090565b600060028204905060018216806200031a57607f821691505b6020821081141562000331576200033062000337565b5b50919050565b7f4e487b7100000000000000000000000000000000000000000000000000000000600052602260045260246000fd5b61084a80620003766000396000f3fe608060405234801561001057600080fd5b506004361061002b5760003560e01c80633a7d280c14610030575b600080fd5b61004a600480360381019061004591906104c8565b610061565b6040516100589291906105c4565b60405180910390f35b6000606082600073ffffffffffffffffffffffffffffffffffffffff1660018260405161008e91906105ad565b908152602001604051809103902060009054906101000a900473ffffffffffffffffffffffffffffffffffffffff1673ffffffffffffffffffffffffffffffffffffffff161415610114576040517f08c379a000000000000000000000000000000000000000000000000000000000815260040161010b906105f4565b60405180910390fd5b600060018560405161012691906105ad565b908152602001604051809103902060009054906101000a900473ffffffffffffffffffffffffffffffffffffffff1690506000600260008373ffffffffffffffffffffffffffffffffffffffff1673ffffffffffffffffffffffffffffffffffffffff168152602001908152602001600020604051806080016040529081600082015481526020016001820180546101bd90610705565b80601f01602080910402602001604051908101604052809291908181526020018280546101e990610705565b80156102365780601f1061020b57610100808354040283529160200191610236565b820191906000526020600020905b81548152906001019060200180831161021957829003601f168201915b5050505050815260200160028201805461024f90610705565b80601f016020809104026020016040519081016040528092919081815260200182805461027b90610705565b80156102c85780601f1061029d576101008083540402835291602001916102c8565b820191906000526020600020905b8154815290600101906020018083116102ab57829003601f168201915b5050505050815260200160038201805480602002602001604051908101604052809291908181526020016000905b828210156103a257838290600052602060002001805461031590610705565b80601f016020809104026020016040519081016040528092919081815260200182805461034190610705565b801561038e5780601f106103635761010080835404028352916020019161038e565b820191906000526020600020905b81548152906001019060200180831161037157829003601f168201915b5050505050815260200190600101906102f6565b505050508152505090508194506000808260000151815260200190815260200160002080546103d090610705565b80601f01602080910402602001604051908101604052809291908181526020018280546103fc90610705565b80156104495780601f1061041e57610100808354040283529160200191610449565b820191906000526020600020905b81548152906001019060200180831161042c57829003601f168201915b50505050509350505050915091565b600061046b61046684610639565b610614565b905082815260208101848484011115610487576104866107cb565b5b6104928482856106c3565b509392505050565b600082601f8301126104af576104ae6107c6565b5b81356104bf848260208601610458565b91505092915050565b6000602082840312156104de576104dd6107d5565b5b600082013567ffffffffffffffff8111156104fc576104fb6107d0565b5b6105088482850161049a565b91505092915050565b61051a81610691565b82525050565b600061052b8261066a565b6105358185610675565b93506105458185602086016106d2565b61054e816107da565b840191505092915050565b60006105648261066a565b61056e8185610686565b935061057e8185602086016106d2565b80840191505092915050565b6000610597600b83610675565b91506105a2826107eb565b602082019050919050565b60006105b98284610559565b915081905092915050565b60006040820190506105d96000830185610511565b81810360208301526105eb8184610520565b90509392505050565b6000602082019050818103600083015261060d8161058a565b9050919050565b600061061e61062f565b905061062a8282610737565b919050565b6000604051905090565b600067ffffffffffffffff82111561065457610653610797565b5b61065d826107da565b9050602081019050919050565b600081519050919050565b600082825260208201905092915050565b600081905092915050565b600061069c826106a3565b9050919050565b600073ffffffffffffffffffffffffffffffffffffffff82169050919050565b82818337600083830152505050565b60005b838110156106f05780820151818401526020810190506106d5565b838111156106ff576000848401525b50505050565b6000600282049050600182168061071d57607f821691505b6020821081141561073157610730610768565b5b50919050565b610740826107da565b810181811067ffffffffffffffff8211171561075f5761075e610797565b5b80604052505050565b7f4e487b7100000000000000000000000000000000000000000000000000000000600052602260045260246000fd5b7f4e487b7100000000000000000000000000000000000000000000000000000000600052604160045260246000fd5b600080fd5b600080fd5b600080fd5b600080fd5b6000601f19601f8301169050919050565b7f57726f6e67204c6f67696e00000000000000000000000000000000000000000060008201525056fea26469706673582212209ecbb8fb3ca2154b7de19e14cc284af2407997173bd3945172d327efbe9558a964736f6c63430008070033",
					"opcodes": "PUSH1 0x80 PUSH1 0x40 MSTORE CALLVALUE DUP1 ISZERO PUSH3 0x11 JUMPI PUSH1 0x0 DUP1 REVERT JUMPDEST POP PUSH1 0x40 MLOAD DUP1 PUSH1 0x40 ADD PUSH1 0x40 MSTORE DUP1 PUSH1 0x5 DUP2 MSTORE PUSH1 0x20 ADD PUSH32 0x6275796572000000000000000000000000000000000000000000000000000000 DUP2 MSTORE POP PUSH1 0x0 DUP1 DUP1 DUP2 MSTORE PUSH1 0x20 ADD SWAP1 DUP2 MSTORE PUSH1 0x20 ADD PUSH1 0x0 KECCAK256 SWAP1 DUP1 MLOAD SWAP1 PUSH1 0x20 ADD SWAP1 PUSH3 0x6F SWAP3 SWAP2 SWAP1 PUSH3 0x251 JUMP JUMPDEST POP PUSH1 0x40 MLOAD DUP1 PUSH1 0x40 ADD PUSH1 0x40 MSTORE DUP1 PUSH1 0x6 DUP2 MSTORE PUSH1 0x20 ADD PUSH32 0x73656C6C65720000000000000000000000000000000000000000000000000000 DUP2 MSTORE POP PUSH1 0x0 DUP1 PUSH1 0x1 DUP2 MSTORE PUSH1 0x20 ADD SWAP1 DUP2 MSTORE PUSH1 0x20 ADD PUSH1 0x0 KECCAK256 SWAP1 DUP1 MLOAD SWAP1 PUSH1 0x20 ADD SWAP1 PUSH3 0xCE SWAP3 SWAP2 SWAP1 PUSH3 0x251 JUMP JUMPDEST POP PUSH1 0x40 MLOAD DUP1 PUSH1 0x40 ADD PUSH1 0x40 MSTORE DUP1 PUSH1 0x4 DUP2 MSTORE PUSH1 0x20 ADD PUSH32 0x73686F7000000000000000000000000000000000000000000000000000000000 DUP2 MSTORE POP PUSH1 0x0 DUP1 PUSH1 0x2 DUP2 MSTORE PUSH1 0x20 ADD SWAP1 DUP2 MSTORE PUSH1 0x20 ADD PUSH1 0x0 KECCAK256 SWAP1 DUP1 MLOAD SWAP1 PUSH1 0x20 ADD SWAP1 PUSH3 0x12D SWAP3 SWAP2 SWAP1 PUSH3 0x251 JUMP JUMPDEST POP PUSH1 0x40 MLOAD DUP1 PUSH1 0x40 ADD PUSH1 0x40 MSTORE DUP1 PUSH1 0x5 DUP2 MSTORE PUSH1 0x20 ADD PUSH32 0x61646D696E000000000000000000000000000000000000000000000000000000 DUP2 MSTORE POP PUSH1 0x0 DUP1 PUSH1 0x3 DUP2 MSTORE PUSH1 0x20 ADD SWAP1 DUP2 MSTORE PUSH1 0x20 ADD PUSH1 0x0 KECCAK256 SWAP1 DUP1 MLOAD SWAP1 PUSH1 0x20 ADD SWAP1 PUSH3 0x18C SWAP3 SWAP2 SWAP1 PUSH3 0x251 JUMP JUMPDEST POP PUSH1 0x40 MLOAD DUP1 PUSH1 0x40 ADD PUSH1 0x40 MSTORE DUP1 PUSH1 0x8 DUP2 MSTORE PUSH1 0x20 ADD PUSH32 0x70726F7669646572000000000000000000000000000000000000000000000000 DUP2 MSTORE POP PUSH1 0x0 DUP1 PUSH1 0x4 DUP2 MSTORE PUSH1 0x20 ADD SWAP1 DUP2 MSTORE PUSH1 0x20 ADD PUSH1 0x0 KECCAK256 SWAP1 DUP1 MLOAD SWAP1 PUSH1 0x20 ADD SWAP1 PUSH3 0x1EB SWAP3 SWAP2 SWAP1 PUSH3 0x251 JUMP JUMPDEST POP PUSH1 0x40 MLOAD DUP1 PUSH1 0x40 ADD PUSH1 0x40 MSTORE DUP1 PUSH1 0x4 DUP2 MSTORE PUSH1 0x20 ADD PUSH32 0x62616E6B00000000000000000000000000000000000000000000000000000000 DUP2 MSTORE POP PUSH1 0x0 DUP1 PUSH1 0x5 DUP2 MSTORE PUSH1 0x20 ADD SWAP1 DUP2 MSTORE PUSH1 0x20 ADD PUSH1 0x0 KECCAK256 SWAP1 DUP1 MLOAD SWAP1 PUSH1 0x20 ADD SWAP1 PUSH3 0x24A SWAP3 SWAP2 SWAP1 PUSH3 0x251 JUMP JUMPDEST POP PUSH3 0x366 JUMP JUMPDEST DUP3 DUP1 SLOAD PUSH3 0x25F SWAP1 PUSH3 0x301 JUMP JUMPDEST SWAP1 PUSH1 0x0 MSTORE PUSH1 0x20 PUSH1 0x0 KECCAK256 SWAP1 PUSH1 0x1F ADD PUSH1 0x20 SWAP1 DIV DUP2 ADD SWAP3 DUP3 PUSH3 0x283 JUMPI PUSH1 0x0 DUP6 SSTORE PUSH3 0x2CF JUMP JUMPDEST DUP3 PUSH1 0x1F LT PUSH3 0x29E JUMPI DUP1 MLOAD PUSH1 0xFF NOT AND DUP4 DUP1 ADD OR DUP6 SSTORE PUSH3 0x2CF JUMP JUMPDEST DUP3 DUP1 ADD PUSH1 0x1 ADD DUP6 SSTORE DUP3 ISZERO PUSH3 0x2CF JUMPI SWAP2 DUP3 ADD JUMPDEST DUP3 DUP2 GT ISZERO PUSH3 0x2CE JUMPI DUP3 MLOAD DUP3 SSTORE SWAP2 PUSH1 0x20 ADD SWAP2 SWAP1 PUSH1 0x1 ADD SWAP1 PUSH3 0x2B1 JUMP JUMPDEST JUMPDEST POP SWAP1 POP PUSH3 0x2DE SWAP2 SWAP1 PUSH3 0x2E2 JUMP JUMPDEST POP SWAP1 JUMP JUMPDEST JUMPDEST DUP1 DUP3 GT ISZERO PUSH3 0x2FD JUMPI PUSH1 0x0 DUP2 PUSH1 0x0 SWAP1 SSTORE POP PUSH1 0x1 ADD PUSH3 0x2E3 JUMP JUMPDEST POP SWAP1 JUMP JUMPDEST PUSH1 0x0 PUSH1 0x2 DUP3 DIV SWAP1 POP PUSH1 0x1 DUP3 AND DUP1 PUSH3 0x31A JUMPI PUSH1 0x7F DUP3 AND SWAP2 POP JUMPDEST PUSH1 0x20 DUP3 LT DUP2 EQ ISZERO PUSH3 0x331 JUMPI PUSH3 0x330 PUSH3 0x337 JUMP JUMPDEST JUMPDEST POP SWAP2 SWAP1 POP JUMP JUMPDEST PUSH32 0x4E487B7100000000000000000000000000000000000000000000000000000000 PUSH1 0x0 MSTORE PUSH1 0x22 PUSH1 0x4 MSTORE PUSH1 0x24 PUSH1 0x0 REVERT JUMPDEST PUSH2 0x84A DUP1 PUSH3 0x376 PUSH1 0x0 CODECOPY PUSH1 0x0 RETURN INVALID PUSH1 0x80 PUSH1 0x40 MSTORE CALLVALUE DUP1 ISZERO PUSH2 0x10 JUMPI PUSH1 0x0 DUP1 REVERT JUMPDEST POP PUSH1 0x4 CALLDATASIZE LT PUSH2 0x2B JUMPI PUSH1 0x0 CALLDATALOAD PUSH1 0xE0 SHR DUP1 PUSH4 0x3A7D280C EQ PUSH2 0x30 JUMPI JUMPDEST PUSH1 0x0 DUP1 REVERT JUMPDEST PUSH2 0x4A PUSH1 0x4 DUP1 CALLDATASIZE SUB DUP2 ADD SWAP1 PUSH2 0x45 SWAP2 SWAP1 PUSH2 0x4C8 JUMP JUMPDEST PUSH2 0x61 JUMP JUMPDEST PUSH1 0x40 MLOAD PUSH2 0x58 SWAP3 SWAP2 SWAP1 PUSH2 0x5C4 JUMP JUMPDEST PUSH1 0x40 MLOAD DUP1 SWAP2 SUB SWAP1 RETURN JUMPDEST PUSH1 0x0 PUSH1 0x60 DUP3 PUSH1 0x0 PUSH20 0xFFFFFFFFFFFFFFFFFFFFFFFFFFFFFFFFFFFFFFFF AND PUSH1 0x1 DUP3 PUSH1 0x40 MLOAD PUSH2 0x8E SWAP2 SWAP1 PUSH2 0x5AD JUMP JUMPDEST SWAP1 DUP2 MSTORE PUSH1 0x20 ADD PUSH1 0x40 MLOAD DUP1 SWAP2 SUB SWAP1 KECCAK256 PUSH1 0x0 SWAP1 SLOAD SWAP1 PUSH2 0x100 EXP SWAP1 DIV PUSH20 0xFFFFFFFFFFFFFFFFFFFFFFFFFFFFFFFFFFFFFFFF AND PUSH20 0xFFFFFFFFFFFFFFFFFFFFFFFFFFFFFFFFFFFFFFFF AND EQ ISZERO PUSH2 0x114 JUMPI PUSH1 0x40 MLOAD PUSH32 0x8C379A000000000000000000000000000000000000000000000000000000000 DUP2 MSTORE PUSH1 0x4 ADD PUSH2 0x10B SWAP1 PUSH2 0x5F4 JUMP JUMPDEST PUSH1 0x40 MLOAD DUP1 SWAP2 SUB SWAP1 REVERT JUMPDEST PUSH1 0x0 PUSH1 0x1 DUP6 PUSH1 0x40 MLOAD PUSH2 0x126 SWAP2 SWAP1 PUSH2 0x5AD JUMP JUMPDEST SWAP1 DUP2 MSTORE PUSH1 0x20 ADD PUSH1 0x40 MLOAD DUP1 SWAP2 SUB SWAP1 KECCAK256 PUSH1 0x0 SWAP1 SLOAD SWAP1 PUSH2 0x100 EXP SWAP1 DIV PUSH20 0xFFFFFFFFFFFFFFFFFFFFFFFFFFFFFFFFFFFFFFFF AND SWAP1 POP PUSH1 0x0 PUSH1 0x2 PUSH1 0x0 DUP4 PUSH20 0xFFFFFFFFFFFFFFFFFFFFFFFFFFFFFFFFFFFFFFFF AND PUSH20 0xFFFFFFFFFFFFFFFFFFFFFFFFFFFFFFFFFFFFFFFF AND DUP2 MSTORE PUSH1 0x20 ADD SWAP1 DUP2 MSTORE PUSH1 0x20 ADD PUSH1 0x0 KECCAK256 PUSH1 0x40 MLOAD DUP1 PUSH1 0x80 ADD PUSH1 0x40 MSTORE SWAP1 DUP2 PUSH1 0x0 DUP3 ADD SLOAD DUP2 MSTORE PUSH1 0x20 ADD PUSH1 0x1 DUP3 ADD DUP1 SLOAD PUSH2 0x1BD SWAP1 PUSH2 0x705 JUMP JUMPDEST DUP1 PUSH1 0x1F ADD PUSH1 0x20 DUP1 SWAP2 DIV MUL PUSH1 0x20 ADD PUSH1 0x40 MLOAD SWAP1 DUP2 ADD PUSH1 0x40 MSTORE DUP1 SWAP3 SWAP2 SWAP1 DUP2 DUP2 MSTORE PUSH1 0x20 ADD DUP3 DUP1 SLOAD PUSH2 0x1E9 SWAP1 PUSH2 0x705 JUMP JUMPDEST DUP1 ISZERO PUSH2 0x236 JUMPI DUP1 PUSH1 0x1F LT PUSH2 0x20B JUMPI PUSH2 0x100 DUP1 DUP4 SLOAD DIV MUL DUP4 MSTORE SWAP2 PUSH1 0x20 ADD SWAP2 PUSH2 0x236 JUMP JUMPDEST DUP3 ADD SWAP2 SWAP1 PUSH1 0x0 MSTORE PUSH1 0x20 PUSH1 0x0 KECCAK256 SWAP1 JUMPDEST DUP2 SLOAD DUP2 MSTORE SWAP1 PUSH1 0x1 ADD SWAP1 PUSH1 0x20 ADD DUP1 DUP4 GT PUSH2 0x219 JUMPI DUP3 SWAP1 SUB PUSH1 0x1F AND DUP3 ADD SWAP2 JUMPDEST POP POP POP POP POP DUP2 MSTORE PUSH1 0x20 ADD PUSH1 0x2 DUP3 ADD DUP1 SLOAD PUSH2 0x24F SWAP1 PUSH2 0x705 JUMP JUMPDEST DUP1 PUSH1 0x1F ADD PUSH1 0x20 DUP1 SWAP2 DIV MUL PUSH1 0x20 ADD PUSH1 0x40 MLOAD SWAP1 DUP2 ADD PUSH1 0x40 MSTORE DUP1 SWAP3 SWAP2 SWAP1 DUP2 DUP2 MSTORE PUSH1 0x20 ADD DUP3 DUP1 SLOAD PUSH2 0x27B SWAP1 PUSH2 0x705 JUMP JUMPDEST DUP1 ISZERO PUSH2 0x2C8 JUMPI DUP1 PUSH1 0x1F LT PUSH2 0x29D JUMPI PUSH2 0x100 DUP1 DUP4 SLOAD DIV MUL DUP4 MSTORE SWAP2 PUSH1 0x20 ADD SWAP2 PUSH2 0x2C8 JUMP JUMPDEST DUP3 ADD SWAP2 SWAP1 PUSH1 0x0 MSTORE PUSH1 0x20 PUSH1 0x0 KECCAK256 SWAP1 JUMPDEST DUP2 SLOAD DUP2 MSTORE SWAP1 PUSH1 0x1 ADD SWAP1 PUSH1 0x20 ADD DUP1 DUP4 GT PUSH2 0x2AB JUMPI DUP3 SWAP1 SUB PUSH1 0x1F AND DUP3 ADD SWAP2 JUMPDEST POP POP POP POP POP DUP2 MSTORE PUSH1 0x20 ADD PUSH1 0x3 DUP3 ADD DUP1 SLOAD DUP1 PUSH1 0x20 MUL PUSH1 0x20 ADD PUSH1 0x40 MLOAD SWAP1 DUP2 ADD PUSH1 0x40 MSTORE DUP1 SWAP3 SWAP2 SWAP1 DUP2 DUP2 MSTORE PUSH1 0x20 ADD PUSH1 0x0 SWAP1 JUMPDEST DUP3 DUP3 LT ISZERO PUSH2 0x3A2 JUMPI DUP4 DUP3 SWAP1 PUSH1 0x0 MSTORE PUSH1 0x20 PUSH1 0x0 KECCAK256 ADD DUP1 SLOAD PUSH2 0x315 SWAP1 PUSH2 0x705 JUMP JUMPDEST DUP1 PUSH1 0x1F ADD PUSH1 0x20 DUP1 SWAP2 DIV MUL PUSH1 0x20 ADD PUSH1 0x40 MLOAD SWAP1 DUP2 ADD PUSH1 0x40 MSTORE DUP1 SWAP3 SWAP2 SWAP1 DUP2 DUP2 MSTORE PUSH1 0x20 ADD DUP3 DUP1 SLOAD PUSH2 0x341 SWAP1 PUSH2 0x705 JUMP JUMPDEST DUP1 ISZERO PUSH2 0x38E JUMPI DUP1 PUSH1 0x1F LT PUSH2 0x363 JUMPI PUSH2 0x100 DUP1 DUP4 SLOAD DIV MUL DUP4 MSTORE SWAP2 PUSH1 0x20 ADD SWAP2 PUSH2 0x38E JUMP JUMPDEST DUP3 ADD SWAP2 SWAP1 PUSH1 0x0 MSTORE PUSH1 0x20 PUSH1 0x0 KECCAK256 SWAP1 JUMPDEST DUP2 SLOAD DUP2 MSTORE SWAP1 PUSH1 0x1 ADD SWAP1 PUSH1 0x20 ADD DUP1 DUP4 GT PUSH2 0x371 JUMPI DUP3 SWAP1 SUB PUSH1 0x1F AND DUP3 ADD SWAP2 JUMPDEST POP POP POP POP POP DUP2 MSTORE PUSH1 0x20 ADD SWAP1 PUSH1 0x1 ADD SWAP1 PUSH2 0x2F6 JUMP JUMPDEST POP POP POP POP DUP2 MSTORE POP POP SWAP1 POP DUP2 SWAP5 POP PUSH1 0x0 DUP1 DUP3 PUSH1 0x0 ADD MLOAD DUP2 MSTORE PUSH1 0x20 ADD SWAP1 DUP2 MSTORE PUSH1 0x20 ADD PUSH1 0x0 KECCAK256 DUP1 SLOAD PUSH2 0x3D0 SWAP1 PUSH2 0x705 JUMP JUMPDEST DUP1 PUSH1 0x1F ADD PUSH1 0x20 DUP1 SWAP2 DIV MUL PUSH1 0x20 ADD PUSH1 0x40 MLOAD SWAP1 DUP2 ADD PUSH1 0x40 MSTORE DUP1 SWAP3 SWAP2 SWAP1 DUP2 DUP2 MSTORE PUSH1 0x20 ADD DUP3 DUP1 SLOAD PUSH2 0x3FC SWAP1 PUSH2 0x705 JUMP JUMPDEST DUP1 ISZERO PUSH2 0x449 JUMPI DUP1 PUSH1 0x1F LT PUSH2 0x41E JUMPI PUSH2 0x100 DUP1 DUP4 SLOAD DIV MUL DUP4 MSTORE SWAP2 PUSH1 0x20 ADD SWAP2 PUSH2 0x449 JUMP JUMPDEST DUP3 ADD SWAP2 SWAP1 PUSH1 0x0 MSTORE PUSH1 0x20 PUSH1 0x0 KECCAK256 SWAP1 JUMPDEST DUP2 SLOAD DUP2 MSTORE SWAP1 PUSH1 0x1 ADD SWAP1 PUSH1 0x20 ADD DUP1 DUP4 GT PUSH2 0x42C JUMPI DUP3 SWAP1 SUB PUSH1 0x1F AND DUP3 ADD SWAP2 JUMPDEST POP POP POP POP POP SWAP4 POP POP POP POP SWAP2 POP SWAP2 JUMP JUMPDEST PUSH1 0x0 PUSH2 0x46B PUSH2 0x466 DUP5 PUSH2 0x639 JUMP JUMPDEST PUSH2 0x614 JUMP JUMPDEST SWAP1 POP DUP3 DUP2 MSTORE PUSH1 0x20 DUP2 ADD DUP5 DUP5 DUP5 ADD GT ISZERO PUSH2 0x487 JUMPI PUSH2 0x486 PUSH2 0x7CB JUMP JUMPDEST JUMPDEST PUSH2 0x492 DUP5 DUP3 DUP6 PUSH2 0x6C3 JUMP JUMPDEST POP SWAP4 SWAP3 POP POP POP JUMP JUMPDEST PUSH1 0x0 DUP3 PUSH1 0x1F DUP4 ADD SLT PUSH2 0x4AF JUMPI PUSH2 0x4AE PUSH2 0x7C6 JUMP JUMPDEST JUMPDEST DUP2 CALLDATALOAD PUSH2 0x4BF DUP5 DUP3 PUSH1 0x20 DUP7 ADD PUSH2 0x458 JUMP JUMPDEST SWAP2 POP POP SWAP3 SWAP2 POP POP JUMP JUMPDEST PUSH1 0x0 PUSH1 0x20 DUP3 DUP5 SUB SLT ISZERO PUSH2 0x4DE JUMPI PUSH2 0x4DD PUSH2 0x7D5 JUMP JUMPDEST JUMPDEST PUSH1 0x0 DUP3 ADD CALLDATALOAD PUSH8 0xFFFFFFFFFFFFFFFF DUP2 GT ISZERO PUSH2 0x4FC JUMPI PUSH2 0x4FB PUSH2 0x7D0 JUMP JUMPDEST JUMPDEST PUSH2 0x508 DUP5 DUP3 DUP6 ADD PUSH2 0x49A JUMP JUMPDEST SWAP2 POP POP SWAP3 SWAP2 POP POP JUMP JUMPDEST PUSH2 0x51A DUP2 PUSH2 0x691 JUMP JUMPDEST DUP3 MSTORE POP POP JUMP JUMPDEST PUSH1 0x0 PUSH2 0x52B DUP3 PUSH2 0x66A JUMP JUMPDEST PUSH2 0x535 DUP2 DUP6 PUSH2 0x675 JUMP JUMPDEST SWAP4 POP PUSH2 0x545 DUP2 DUP6 PUSH1 0x20 DUP7 ADD PUSH2 0x6D2 JUMP JUMPDEST PUSH2 0x54E DUP2 PUSH2 0x7DA JUMP JUMPDEST DUP5 ADD SWAP2 POP POP SWAP3 SWAP2 POP POP JUMP JUMPDEST PUSH1 0x0 PUSH2 0x564 DUP3 PUSH2 0x66A JUMP JUMPDEST PUSH2 0x56E DUP2 DUP6 PUSH2 0x686 JUMP JUMPDEST SWAP4 POP PUSH2 0x57E DUP2 DUP6 PUSH1 0x20 DUP7 ADD PUSH2 0x6D2 JUMP JUMPDEST DUP1 DUP5 ADD SWAP2 POP POP SWAP3 SWAP2 POP POP JUMP JUMPDEST PUSH1 0x0 PUSH2 0x597 PUSH1 0xB DUP4 PUSH2 0x675 JUMP JUMPDEST SWAP2 POP PUSH2 0x5A2 DUP3 PUSH2 0x7EB JUMP JUMPDEST PUSH1 0x20 DUP3 ADD SWAP1 POP SWAP2 SWAP1 POP JUMP JUMPDEST PUSH1 0x0 PUSH2 0x5B9 DUP3 DUP5 PUSH2 0x559 JUMP JUMPDEST SWAP2 POP DUP2 SWAP1 POP SWAP3 SWAP2 POP POP JUMP JUMPDEST PUSH1 0x0 PUSH1 0x40 DUP3 ADD SWAP1 POP PUSH2 0x5D9 PUSH1 0x0 DUP4 ADD DUP6 PUSH2 0x511 JUMP JUMPDEST DUP2 DUP2 SUB PUSH1 0x20 DUP4 ADD MSTORE PUSH2 0x5EB DUP2 DUP5 PUSH2 0x520 JUMP JUMPDEST SWAP1 POP SWAP4 SWAP3 POP POP POP JUMP JUMPDEST PUSH1 0x0 PUSH1 0x20 DUP3 ADD SWAP1 POP DUP2 DUP2 SUB PUSH1 0x0 DUP4 ADD MSTORE PUSH2 0x60D DUP2 PUSH2 0x58A JUMP JUMPDEST SWAP1 POP SWAP2 SWAP1 POP JUMP JUMPDEST PUSH1 0x0 PUSH2 0x61E PUSH2 0x62F JUMP JUMPDEST SWAP1 POP PUSH2 0x62A DUP3 DUP3 PUSH2 0x737 JUMP JUMPDEST SWAP2 SWAP1 POP JUMP JUMPDEST PUSH1 0x0 PUSH1 0x40 MLOAD SWAP1 POP SWAP1 JUMP JUMPDEST PUSH1 0x0 PUSH8 0xFFFFFFFFFFFFFFFF DUP3 GT ISZERO PUSH2 0x654 JUMPI PUSH2 0x653 PUSH2 0x797 JUMP JUMPDEST JUMPDEST PUSH2 0x65D DUP3 PUSH2 0x7DA JUMP JUMPDEST SWAP1 POP PUSH1 0x20 DUP2 ADD SWAP1 POP SWAP2 SWAP1 POP JUMP JUMPDEST PUSH1 0x0 DUP2 MLOAD SWAP1 POP SWAP2 SWAP1 POP JUMP JUMPDEST PUSH1 0x0 DUP3 DUP3 MSTORE PUSH1 0x20 DUP3 ADD SWAP1 POP SWAP3 SWAP2 POP POP JUMP JUMPDEST PUSH1 0x0 DUP2 SWAP1 POP SWAP3 SWAP2 POP POP JUMP JUMPDEST PUSH1 0x0 PUSH2 0x69C DUP3 PUSH2 0x6A3 JUMP JUMPDEST SWAP1 POP SWAP2 SWAP1 POP JUMP JUMPDEST PUSH1 0x0 PUSH20 0xFFFFFFFFFFFFFFFFFFFFFFFFFFFFFFFFFFFFFFFF DUP3 AND SWAP1 POP SWAP2 SWAP1 POP JUMP JUMPDEST DUP3 DUP2 DUP4 CALLDATACOPY PUSH1 0x0 DUP4 DUP4 ADD MSTORE POP POP POP JUMP JUMPDEST PUSH1 0x0 JUMPDEST DUP4 DUP2 LT ISZERO PUSH2 0x6F0 JUMPI DUP1 DUP3 ADD MLOAD DUP2 DUP5 ADD MSTORE PUSH1 0x20 DUP2 ADD SWAP1 POP PUSH2 0x6D5 JUMP JUMPDEST DUP4 DUP2 GT ISZERO PUSH2 0x6FF JUMPI PUSH1 0x0 DUP5 DUP5 ADD MSTORE JUMPDEST POP POP POP POP JUMP JUMPDEST PUSH1 0x0 PUSH1 0x2 DUP3 DIV SWAP1 POP PUSH1 0x1 DUP3 AND DUP1 PUSH2 0x71D JUMPI PUSH1 0x7F DUP3 AND SWAP2 POP JUMPDEST PUSH1 0x20 DUP3 LT DUP2 EQ ISZERO PUSH2 0x731 JUMPI PUSH2 0x730 PUSH2 0x768 JUMP JUMPDEST JUMPDEST POP SWAP2 SWAP1 POP JUMP JUMPDEST PUSH2 0x740 DUP3 PUSH2 0x7DA JUMP JUMPDEST DUP2 ADD DUP2 DUP2 LT PUSH8 0xFFFFFFFFFFFFFFFF DUP3 GT OR ISZERO PUSH2 0x75F JUMPI PUSH2 0x75E PUSH2 0x797 JUMP JUMPDEST JUMPDEST DUP1 PUSH1 0x40 MSTORE POP POP POP JUMP JUMPDEST PUSH32 0x4E487B7100000000000000000000000000000000000000000000000000000000 PUSH1 0x0 MSTORE PUSH1 0x22 PUSH1 0x4 MSTORE PUSH1 0x24 PUSH1 0x0 REVERT JUMPDEST PUSH32 0x4E487B7100000000000000000000000000000000000000000000000000000000 PUSH1 0x0 MSTORE PUSH1 0x41 PUSH1 0x4 MSTORE PUSH1 0x24 PUSH1 0x0 REVERT JUMPDEST PUSH1 0x0 DUP1 REVERT JUMPDEST PUSH1 0x0 DUP1 REVERT JUMPDEST PUSH1 0x0 DUP1 REVERT JUMPDEST PUSH1 0x0 DUP1 REVERT JUMPDEST PUSH1 0x0 PUSH1 0x1F NOT PUSH1 0x1F DUP4 ADD AND SWAP1 POP SWAP2 SWAP1 POP JUMP JUMPDEST PUSH32 0x57726F6E67204C6F67696E000000000000000000000000000000000000000000 PUSH1 0x0 DUP3 ADD MSTORE POP JUMP INVALID LOG2 PUSH5 0x6970667358 0x22 SLT KECCAK256 SWAP15 0xCB 0xB8 0xFB EXTCODECOPY LOG2 ISZERO 0x4B PUSH30 0xE19E14CC284AF2407997173BD3945172D327EFBE9558A964736F6C634300 ADDMOD SMOD STOP CALLER "
				},
				"gasEstimates": {
					"creation": {
						"codeDepositCost": "424400",
						"executionCost": "infinite",
						"totalCost": "infinite"
					},
					"external": {
						"login(string)": "infinite"
					},
					"internal": {
						"compare(string memory,string memory)": "infinite",
						"registerFromAdmin(string memory,string memory,uint256,address)": "infinite"
					}
				},
				"methodIdentifiers": {
					"login(string)": "3a7d280c"
				}
			},
			"storageLayout": {
				"storage": [
					{
						"astId": 37,
						"contract": "contracts/AuthService.sol:AuthService",
						"label": "userStatus",
						"offset": 0,
						"slot": "0",
						"type": "t_mapping(t_uint256,t_string_storage)"
					},
					{
						"astId": 41,
						"contract": "contracts/AuthService.sol:AuthService",
						"label": "userLogins",
						"offset": 0,
						"slot": "1",
						"type": "t_mapping(t_string_memory_ptr,t_address)"
					},
					{
						"astId": 46,
						"contract": "contracts/AuthService.sol:AuthService",
						"label": "users",
						"offset": 0,
						"slot": "2",
						"type": "t_mapping(t_address,t_struct(User)33_storage)"
					}
				],
				"types": {
					"t_address": {
						"encoding": "inplace",
						"label": "address",
						"numberOfBytes": "20"
					},
					"t_array(t_string_storage)dyn_storage": {
						"base": "t_string_storage",
						"encoding": "dynamic_array",
						"label": "string[]",
						"numberOfBytes": "32"
					},
					"t_mapping(t_address,t_struct(User)33_storage)": {
						"encoding": "mapping",
						"key": "t_address",
						"label": "mapping(address => struct User)",
						"numberOfBytes": "32",
						"value": "t_struct(User)33_storage"
					},
					"t_mapping(t_string_memory_ptr,t_address)": {
						"encoding": "mapping",
						"key": "t_string_memory_ptr",
						"label": "mapping(string => address)",
						"numberOfBytes": "32",
						"value": "t_address"
					},
					"t_mapping(t_uint256,t_string_storage)": {
						"encoding": "mapping",
						"key": "t_uint256",
						"label": "mapping(uint256 => string)",
						"numberOfBytes": "32",
						"value": "t_string_storage"
					},
					"t_string_memory_ptr": {
						"encoding": "bytes",
						"label": "string",
						"numberOfBytes": "32"
					},
					"t_string_storage": {
						"encoding": "bytes",
						"label": "string",
						"numberOfBytes": "32"
					},
					"t_struct(User)33_storage": {
						"encoding": "inplace",
						"label": "struct User",
						"members": [
							{
								"astId": 25,
								"contract": "contracts/AuthService.sol:AuthService",
								"label": "status",
								"offset": 0,
								"slot": "0",
								"type": "t_uint256"
							},
							{
								"astId": 27,
								"contract": "contracts/AuthService.sol:AuthService",
								"label": "userLogin",
								"offset": 0,
								"slot": "1",
								"type": "t_string_storage"
							},
							{
								"astId": 29,
								"contract": "contracts/AuthService.sol:AuthService",
								"label": "fio",
								"offset": 0,
								"slot": "2",
								"type": "t_string_storage"
							},
							{
								"astId": 32,
								"contract": "contracts/AuthService.sol:AuthService",
								"label": "reviews",
								"offset": 0,
								"slot": "3",
								"type": "t_array(t_string_storage)dyn_storage"
							}
						],
						"numberOfBytes": "128"
					},
					"t_uint256": {
						"encoding": "inplace",
						"label": "uint256",
						"numberOfBytes": "32"
					}
				}
			},
			"userdoc": {
				"kind": "user",
				"methods": {},
				"version": 1
			}
		}
	}
}