{
	"contracts/Shops.sol": {
		"ShopsSystem": {
			"abi": [
				{
					"inputs": [],
					"stateMutability": "nonpayable",
					"type": "constructor"
				},
				{
					"inputs": [
						{
							"internalType": "string",
							"name": "id",
							"type": "string"
						}
					],
					"name": "checkRequest",
					"outputs": [],
					"stateMutability": "nonpayable",
					"type": "function"
				},
				{
					"inputs": [
						{
							"internalType": "address",
							"name": "shopAddr",
							"type": "address"
						},
						{
							"internalType": "string",
							"name": "userMessage",
							"type": "string"
						},
						{
							"internalType": "string",
							"name": "id",
							"type": "string"
						},
						{
							"internalType": "int256",
							"name": "grade",
							"type": "int256"
						}
					],
					"name": "createReview",
					"outputs": [],
					"stateMutability": "nonpayable",
					"type": "function"
				},
				{
					"inputs": [
						{
							"internalType": "string",
							"name": "id",
							"type": "string"
						}
					],
					"name": "disLikeReview",
					"outputs": [],
					"stateMutability": "nonpayable",
					"type": "function"
				},
				{
					"inputs": [
						{
							"internalType": "address payable",
							"name": "shopAddr",
							"type": "address"
						}
					],
					"name": "doShopDebt",
					"outputs": [],
					"stateMutability": "nonpayable",
					"type": "function"
				},
				{
					"inputs": [],
					"name": "downRequestToByer",
					"outputs": [],
					"stateMutability": "nonpayable",
					"type": "function"
				},
				{
					"inputs": [],
					"name": "getAdminInfo",
					"outputs": [
						{
							"internalType": "string",
							"name": "login",
							"type": "string"
						},
						{
							"components": [
								{
									"internalType": "address",
									"name": "userAddr",
									"type": "address"
								},
								{
									"internalType": "string",
									"name": "currentRole",
									"type": "string"
								},
								{
									"internalType": "string",
									"name": "desiredRole",
									"type": "string"
								},
								{
									"internalType": "bool",
									"name": "checked",
									"type": "bool"
								}
							],
							"internalType": "struct Request[]",
							"name": "userRequests",
							"type": "tuple[]"
						},
						{
							"internalType": "string[]",
							"name": "adminList",
							"type": "string[]"
						},
						{
							"internalType": "address[]",
							"name": "sellersAddr",
							"type": "address[]"
						}
					],
					"stateMutability": "view",
					"type": "function"
				},
				{
					"inputs": [],
					"name": "getBuyerInfo",
					"outputs": [
						{
							"internalType": "string",
							"name": "userLogin",
							"type": "string"
						},
						{
							"internalType": "string",
							"name": "fio",
							"type": "string"
						},
						{
							"internalType": "uint256",
							"name": "balance",
							"type": "uint256"
						},
						{
							"internalType": "string[]",
							"name": "reviews",
							"type": "string[]"
						}
					],
					"stateMutability": "view",
					"type": "function"
				},
				{
					"inputs": [
						{
							"internalType": "string",
							"name": "id",
							"type": "string"
						}
					],
					"name": "getReviewById",
					"outputs": [
						{
							"internalType": "address",
							"name": "autorAddr",
							"type": "address"
						},
						{
							"internalType": "address",
							"name": "shopAddr",
							"type": "address"
						},
						{
							"internalType": "string",
							"name": "reviewMessage",
							"type": "string"
						},
						{
							"internalType": "uint256",
							"name": "likeCount",
							"type": "uint256"
						},
						{
							"internalType": "uint256",
							"name": "disLikeCount",
							"type": "uint256"
						},
						{
							"internalType": "int256",
							"name": "grade",
							"type": "int256"
						}
					],
					"stateMutability": "view",
					"type": "function"
				},
				{
					"inputs": [],
					"name": "getSellerInfo",
					"outputs": [
						{
							"internalType": "string",
							"name": "sellerLogin",
							"type": "string"
						},
						{
							"internalType": "string",
							"name": "fio",
							"type": "string"
						},
						{
							"internalType": "string",
							"name": "city",
							"type": "string"
						},
						{
							"internalType": "string",
							"name": "shopNumber",
							"type": "string"
						},
						{
							"internalType": "string[]",
							"name": "reviews",
							"type": "string[]"
						}
					],
					"stateMutability": "view",
					"type": "function"
				},
				{
					"inputs": [
						{
							"internalType": "address",
							"name": "sellerAddr",
							"type": "address"
						}
					],
					"name": "getSellerInfoByAddr",
					"outputs": [
						{
							"internalType": "string",
							"name": "sellerLogin",
							"type": "string"
						},
						{
							"internalType": "string",
							"name": "fio",
							"type": "string"
						},
						{
							"internalType": "string",
							"name": "city",
							"type": "string"
						},
						{
							"internalType": "string",
							"name": "shopNumber",
							"type": "string"
						},
						{
							"internalType": "string[]",
							"name": "reviews",
							"type": "string[]"
						}
					],
					"stateMutability": "view",
					"type": "function"
				},
				{
					"inputs": [
						{
							"internalType": "string",
							"name": "id",
							"type": "string"
						}
					],
					"name": "likeReview",
					"outputs": [],
					"stateMutability": "nonpayable",
					"type": "function"
				},
				{
					"inputs": [
						{
							"internalType": "string",
							"name": "userLogin",
							"type": "string"
						}
					],
					"name": "login",
					"outputs": [
						{
							"internalType": "address",
							"name": "userAddress",
							"type": "address"
						},
						{
							"internalType": "string",
							"name": "status",
							"type": "string"
						}
					],
					"stateMutability": "view",
					"type": "function"
				},
				{
					"inputs": [
						{
							"internalType": "address",
							"name": "adminAddr",
							"type": "address"
						},
						{
							"internalType": "string",
							"name": "fio",
							"type": "string"
						},
						{
							"internalType": "string",
							"name": "userLogin",
							"type": "string"
						}
					],
					"name": "regAdmin",
					"outputs": [],
					"stateMutability": "nonpayable",
					"type": "function"
				},
				{
					"inputs": [
						{
							"internalType": "string",
							"name": "fio",
							"type": "string"
						},
						{
							"internalType": "string",
							"name": "userLogin",
							"type": "string"
						}
					],
					"name": "registerAdmin",
					"outputs": [],
					"stateMutability": "nonpayable",
					"type": "function"
				},
				{
					"inputs": [
						{
							"internalType": "string",
							"name": "bankLogin",
							"type": "string"
						},
						{
							"internalType": "address",
							"name": "bankAddr",
							"type": "address"
						}
					],
					"name": "registerBank",
					"outputs": [],
					"stateMutability": "nonpayable",
					"type": "function"
				},
				{
					"inputs": [
						{
							"internalType": "string",
							"name": "fio",
							"type": "string"
						},
						{
							"internalType": "string",
							"name": "userLogin",
							"type": "string"
						},
						{
							"internalType": "address",
							"name": "userAddr",
							"type": "address"
						}
					],
					"name": "registerBuyer",
					"outputs": [],
					"stateMutability": "nonpayable",
					"type": "function"
				},
				{
					"inputs": [
						{
							"internalType": "string",
							"name": "providerLogin",
							"type": "string"
						},
						{
							"internalType": "address",
							"name": "providerAddr",
							"type": "address"
						}
					],
					"name": "registerProvider",
					"outputs": [],
					"stateMutability": "nonpayable",
					"type": "function"
				},
				{
					"inputs": [
						{
							"internalType": "string",
							"name": "fio",
							"type": "string"
						},
						{
							"internalType": "string",
							"name": "userLogin",
							"type": "string"
						},
						{
							"internalType": "address",
							"name": "userAddress",
							"type": "address"
						},
						{
							"internalType": "address",
							"name": "shopAddr",
							"type": "address"
						}
					],
					"name": "registerSeller",
					"outputs": [],
					"stateMutability": "nonpayable",
					"type": "function"
				},
				{
					"inputs": [
						{
							"internalType": "address",
							"name": "shopAddr",
							"type": "address"
						},
						{
							"internalType": "string",
							"name": "number",
							"type": "string"
						},
						{
							"internalType": "string",
							"name": "city",
							"type": "string"
						},
						{
							"internalType": "string",
							"name": "shopLogin",
							"type": "string"
						}
					],
					"name": "registerShop",
					"outputs": [],
					"stateMutability": "nonpayable",
					"type": "function"
				},
				{
					"inputs": [
						{
							"internalType": "string",
							"name": "id",
							"type": "string"
						}
					],
					"name": "requestToSeller",
					"outputs": [],
					"stateMutability": "nonpayable",
					"type": "function"
				}
			],
			"devdoc": {
				"kind": "dev",
				"methods": {},
				"version": 1
			},
			"evm": {
				"assembly": "    /* \"contracts/Shops.sol\":269:8210  contract ShopsSystem is AuthService{... */\n  mstore(0x40, 0x80)\n    /* \"contracts/Shops.sol\":997:1045  constructor(){... */\n  callvalue\n  dup1\n  iszero\n  tag_1\n  jumpi\n  0x00\n  dup1\n  revert\ntag_1:\n  pop\n    /* \"contracts/AuthService.sol\":576:599  userStatus[0] = \"buyer\" */\n  mload(0x40)\n  dup1\n  0x40\n  add\n  0x40\n  mstore\n  dup1\n  0x05\n  dup2\n  mstore\n  0x20\n  add\n  0x6275796572000000000000000000000000000000000000000000000000000000\n  dup2\n  mstore\n  pop\n    /* \"contracts/AuthService.sol\":576:586  userStatus */\n  0x00\n    /* \"contracts/AuthService.sol\":576:589  userStatus[0] */\n  dup1\n    /* \"contracts/AuthService.sol\":587:588  0 */\n  dup1\n    /* \"contracts/AuthService.sol\":576:589  userStatus[0] */\n  dup2\n  mstore\n  0x20\n  add\n  swap1\n  dup2\n  mstore\n  0x20\n  add\n  0x00\n  keccak256\n    /* \"contracts/AuthService.sol\":576:599  userStatus[0] = \"buyer\" */\n  swap1\n  dup1\n  mload\n  swap1\n  0x20\n  add\n  swap1\n  tag_5\n  swap3\n  swap2\n  swap1\n  tag_6\n  jump\t// in\ntag_5:\n  pop\n    /* \"contracts/AuthService.sol\":609:633  userStatus[1] = \"seller\" */\n  mload(0x40)\n  dup1\n  0x40\n  add\n  0x40\n  mstore\n  dup1\n  0x06\n  dup2\n  mstore\n  0x20\n  add\n  0x73656c6c65720000000000000000000000000000000000000000000000000000\n  dup2\n  mstore\n  pop\n    /* \"contracts/AuthService.sol\":609:619  userStatus */\n  0x00\n    /* \"contracts/AuthService.sol\":609:622  userStatus[1] */\n  dup1\n    /* \"contracts/AuthService.sol\":620:621  1 */\n  0x01\n    /* \"contracts/AuthService.sol\":609:622  userStatus[1] */\n  dup2\n  mstore\n  0x20\n  add\n  swap1\n  dup2\n  mstore\n  0x20\n  add\n  0x00\n  keccak256\n    /* \"contracts/AuthService.sol\":609:633  userStatus[1] = \"seller\" */\n  swap1\n  dup1\n  mload\n  swap1\n  0x20\n  add\n  swap1\n  tag_7\n  swap3\n  swap2\n  swap1\n  tag_6\n  jump\t// in\ntag_7:\n  pop\n    /* \"contracts/AuthService.sol\":643:665  userStatus[2] = \"shop\" */\n  mload(0x40)\n  dup1\n  0x40\n  add\n  0x40\n  mstore\n  dup1\n  0x04\n  dup2\n  mstore\n  0x20\n  add\n  0x73686f7000000000000000000000000000000000000000000000000000000000\n  dup2\n  mstore\n  pop\n    /* \"contracts/AuthService.sol\":643:653  userStatus */\n  0x00\n    /* \"contracts/AuthService.sol\":643:656  userStatus[2] */\n  dup1\n    /* \"contracts/AuthService.sol\":654:655  2 */\n  0x02\n    /* \"contracts/AuthService.sol\":643:656  userStatus[2] */\n  dup2\n  mstore\n  0x20\n  add\n  swap1\n  dup2\n  mstore\n  0x20\n  add\n  0x00\n  keccak256\n    /* \"contracts/AuthService.sol\":643:665  userStatus[2] = \"shop\" */\n  swap1\n  dup1\n  mload\n  swap1\n  0x20\n  add\n  swap1\n  tag_8\n  swap3\n  swap2\n  swap1\n  tag_6\n  jump\t// in\ntag_8:\n  pop\n    /* \"contracts/AuthService.sol\":675:698  userStatus[3] = \"admin\" */\n  mload(0x40)\n  dup1\n  0x40\n  add\n  0x40\n  mstore\n  dup1\n  0x05\n  dup2\n  mstore\n  0x20\n  add\n  0x61646d696e000000000000000000000000000000000000000000000000000000\n  dup2\n  mstore\n  pop\n    /* \"contracts/AuthService.sol\":675:685  userStatus */\n  0x00\n    /* \"contracts/AuthService.sol\":675:688  userStatus[3] */\n  dup1\n    /* \"contracts/AuthService.sol\":686:687  3 */\n  0x03\n    /* \"contracts/AuthService.sol\":675:688  userStatus[3] */\n  dup2\n  mstore\n  0x20\n  add\n  swap1\n  dup2\n  mstore\n  0x20\n  add\n  0x00\n  keccak256\n    /* \"contracts/AuthService.sol\":675:698  userStatus[3] = \"admin\" */\n  swap1\n  dup1\n  mload\n  swap1\n  0x20\n  add\n  swap1\n  tag_9\n  swap3\n  swap2\n  swap1\n  tag_6\n  jump\t// in\ntag_9:\n  pop\n    /* \"contracts/AuthService.sol\":708:734  userStatus[4] = \"provider\" */\n  mload(0x40)\n  dup1\n  0x40\n  add\n  0x40\n  mstore\n  dup1\n  0x08\n  dup2\n  mstore\n  0x20\n  add\n  0x70726f7669646572000000000000000000000000000000000000000000000000\n  dup2\n  mstore\n  pop\n    /* \"contracts/AuthService.sol\":708:718  userStatus */\n  0x00\n    /* \"contracts/AuthService.sol\":708:721  userStatus[4] */\n  dup1\n    /* \"contracts/AuthService.sol\":719:720  4 */\n  0x04\n    /* \"contracts/AuthService.sol\":708:721  userStatus[4] */\n  dup2\n  mstore\n  0x20\n  add\n  swap1\n  dup2\n  mstore\n  0x20\n  add\n  0x00\n  keccak256\n    /* \"contracts/AuthService.sol\":708:734  userStatus[4] = \"provider\" */\n  swap1\n  dup1\n  mload\n  swap1\n  0x20\n  add\n  swap1\n  tag_10\n  swap3\n  swap2\n  swap1\n  tag_6\n  jump\t// in\ntag_10:\n  pop\n    /* \"contracts/AuthService.sol\":744:766  userStatus[5] = \"bank\" */\n  mload(0x40)\n  dup1\n  0x40\n  add\n  0x40\n  mstore\n  dup1\n  0x04\n  dup2\n  mstore\n  0x20\n  add\n  0x62616e6b00000000000000000000000000000000000000000000000000000000\n  dup2\n  mstore\n  pop\n    /* \"contracts/AuthService.sol\":744:754  userStatus */\n  0x00\n    /* \"contracts/AuthService.sol\":744:757  userStatus[5] */\n  dup1\n    /* \"contracts/AuthService.sol\":755:756  5 */\n  0x05\n    /* \"contracts/AuthService.sol\":744:757  userStatus[5] */\n  dup2\n  mstore\n  0x20\n  add\n  swap1\n  dup2\n  mstore\n  0x20\n  add\n  0x00\n  keccak256\n    /* \"contracts/AuthService.sol\":744:766  userStatus[5] = \"bank\" */\n  swap1\n  dup1\n  mload\n  swap1\n  0x20\n  add\n  swap1\n  tag_11\n  swap3\n  swap2\n  swap1\n  tag_6\n  jump\t// in\ntag_11:\n  pop\n    /* \"contracts/Shops.sol\":1028:1038  msg.sender */\n  caller\n    /* \"contracts/Shops.sol\":1020:1025  admin */\n  0x05\n  0x00\n    /* \"contracts/Shops.sol\":1020:1038  admin = msg.sender */\n  0x0100\n  exp\n  dup2\n  sload\n  dup2\n  0xffffffffffffffffffffffffffffffffffffffff\n  mul\n  not\n  and\n  swap1\n  dup4\n  0xffffffffffffffffffffffffffffffffffffffff\n  and\n  mul\n  or\n  swap1\n  sstore\n  pop\n    /* \"contracts/Shops.sol\":269:8210  contract ShopsSystem is AuthService{... */\n  jump(tag_13)\ntag_6:\n  dup3\n  dup1\n  sload\n  tag_14\n  swap1\n  tag_15\n  jump\t// in\ntag_14:\n  swap1\n  0x00\n  mstore\n  keccak256(0x00, 0x20)\n  swap1\n  0x1f\n  add\n  0x20\n  swap1\n  div\n  dup2\n  add\n  swap3\n  dup3\n  tag_17\n  jumpi\n  0x00\n  dup6\n  sstore\n  jump(tag_16)\ntag_17:\n  dup3\n  0x1f\n  lt\n  tag_18\n  jumpi\n  dup1\n  mload\n  not(0xff)\n  and\n  dup4\n  dup1\n  add\n  or\n  dup6\n  sstore\n  jump(tag_16)\ntag_18:\n  dup3\n  dup1\n  add\n  0x01\n  add\n  dup6\n  sstore\n  dup3\n  iszero\n  tag_16\n  jumpi\n  swap2\n  dup3\n  add\ntag_19:\n  dup3\n  dup2\n  gt\n  iszero\n  tag_20\n  jumpi\n  dup3\n  mload\n  dup3\n  sstore\n  swap2\n  0x20\n  add\n  swap2\n  swap1\n  0x01\n  add\n  swap1\n  jump(tag_19)\ntag_20:\ntag_16:\n  pop\n  swap1\n  pop\n  tag_21\n  swap2\n  swap1\n  tag_22\n  jump\t// in\ntag_21:\n  pop\n  swap1\n  jump\t// out\ntag_22:\ntag_23:\n  dup1\n  dup3\n  gt\n  iszero\n  tag_24\n  jumpi\n  0x00\n  dup2\n  0x00\n  swap1\n  sstore\n  pop\n  0x01\n  add\n  jump(tag_23)\ntag_24:\n  pop\n  swap1\n  jump\t// out\n    /* \"#utility.yul\":7:327   */\ntag_15:\n    /* \"#utility.yul\":51:57   */\n  0x00\n    /* \"#utility.yul\":88:89   */\n  0x02\n    /* \"#utility.yul\":82:86   */\n  dup3\n    /* \"#utility.yul\":78:90   */\n  div\n    /* \"#utility.yul\":68:90   */\n  swap1\n  pop\n    /* \"#utility.yul\":135:136   */\n  0x01\n    /* \"#utility.yul\":129:133   */\n  dup3\n    /* \"#utility.yul\":125:137   */\n  and\n    /* \"#utility.yul\":156:174   */\n  dup1\n    /* \"#utility.yul\":146:227   */\n  tag_27\n  jumpi\n    /* \"#utility.yul\":212:216   */\n  0x7f\n    /* \"#utility.yul\":204:210   */\n  dup3\n    /* \"#utility.yul\":200:217   */\n  and\n    /* \"#utility.yul\":190:217   */\n  swap2\n  pop\n    /* \"#utility.yul\":146:227   */\ntag_27:\n    /* \"#utility.yul\":274:276   */\n  0x20\n    /* \"#utility.yul\":266:272   */\n  dup3\n    /* \"#utility.yul\":263:277   */\n  lt\n    /* \"#utility.yul\":243:261   */\n  dup2\n    /* \"#utility.yul\":240:278   */\n  eq\n    /* \"#utility.yul\":237:321   */\n  iszero\n  tag_28\n  jumpi\n    /* \"#utility.yul\":293:311   */\n  tag_29\n  tag_30\n  jump\t// in\ntag_29:\n    /* \"#utility.yul\":237:321   */\ntag_28:\n    /* \"#utility.yul\":58:327   */\n  pop\n    /* \"#utility.yul\":7:327   */\n  swap2\n  swap1\n  pop\n  jump\t// out\n    /* \"#utility.yul\":333:513   */\ntag_30:\n    /* \"#utility.yul\":381:458   */\n  0x4e487b7100000000000000000000000000000000000000000000000000000000\n    /* \"#utility.yul\":378:379   */\n  0x00\n    /* \"#utility.yul\":371:459   */\n  mstore\n    /* \"#utility.yul\":478:482   */\n  0x22\n    /* \"#utility.yul\":475:476   */\n  0x04\n    /* \"#utility.yul\":468:483   */\n  mstore\n    /* \"#utility.yul\":502:506   */\n  0x24\n    /* \"#utility.yul\":499:500   */\n  0x00\n    /* \"#utility.yul\":492:507   */\n  revert\n    /* \"contracts/Shops.sol\":269:8210  contract ShopsSystem is AuthService{... */\ntag_13:\n  dataSize(sub_0)\n  dup1\n  dataOffset(sub_0)\n  0x00\n  codecopy\n  0x00\n  return\nstop\n\nsub_0: assembly {\n        /* \"contracts/Shops.sol\":269:8210  contract ShopsSystem is AuthService{... */\n      mstore(0x40, 0x80)\n      callvalue\n      dup1\n      iszero\n      tag_1\n      jumpi\n      0x00\n      dup1\n      revert\n    tag_1:\n      pop\n      jumpi(tag_2, lt(calldatasize, 0x04))\n      shr(0xe0, calldataload(0x00))\n      dup1\n      0x8403f848\n      gt\n      tag_23\n      jumpi\n      dup1\n      0xac6fa7c3\n      gt\n      tag_24\n      jumpi\n      dup1\n      0xac6fa7c3\n      eq\n      tag_18\n      jumpi\n      dup1\n      0xbce62a74\n      eq\n      tag_19\n      jumpi\n      dup1\n      0xc3d5fd39\n      eq\n      tag_20\n      jumpi\n      dup1\n      0xdfdd12c9\n      eq\n      tag_21\n      jumpi\n      dup1\n      0xf8f98b79\n      eq\n      tag_22\n      jumpi\n      jump(tag_2)\n    tag_24:\n      dup1\n      0x8403f848\n      eq\n      tag_13\n      jumpi\n      dup1\n      0x8edc85f9\n      eq\n      tag_14\n      jumpi\n      dup1\n      0x99b958ee\n      eq\n      tag_15\n      jumpi\n      dup1\n      0x9d344d10\n      eq\n      tag_16\n      jumpi\n      dup1\n      0xa59d105f\n      eq\n      tag_17\n      jumpi\n      jump(tag_2)\n    tag_23:\n      dup1\n      0x54504c12\n      gt\n      tag_25\n      jumpi\n      dup1\n      0x54504c12\n      eq\n      tag_8\n      jumpi\n      dup1\n      0x7558b2f8\n      eq\n      tag_9\n      jumpi\n      dup1\n      0x7b3c7488\n      eq\n      tag_10\n      jumpi\n      dup1\n      0x7ccb2bd8\n      eq\n      tag_11\n      jumpi\n      dup1\n      0x83db0f6d\n      eq\n      tag_12\n      jumpi\n      jump(tag_2)\n    tag_25:\n      dup1\n      0x08e74858\n      eq\n      tag_3\n      jumpi\n      dup1\n      0x2156a781\n      eq\n      tag_4\n      jumpi\n      dup1\n      0x2d6abf59\n      eq\n      tag_5\n      jumpi\n      dup1\n      0x2f0185c4\n      eq\n      tag_6\n      jumpi\n      dup1\n      0x3a7d280c\n      eq\n      tag_7\n      jumpi\n    tag_2:\n      0x00\n      dup1\n      revert\n        /* \"contracts/Shops.sol\":5480:6093  function getSellerInfoByAddr(address sellerAddr) public view isUserStatus(UserRoles.admin)returns(... */\n    tag_3:\n      tag_26\n      0x04\n      dup1\n      calldatasize\n      sub\n      dup2\n      add\n      swap1\n      tag_27\n      swap2\n      swap1\n      tag_28\n      jump\t// in\n    tag_27:\n      tag_29\n      jump\t// in\n    tag_26:\n      mload(0x40)\n      tag_30\n      swap6\n      swap5\n      swap4\n      swap3\n      swap2\n      swap1\n      tag_31\n      jump\t// in\n    tag_30:\n      mload(0x40)\n      dup1\n      swap2\n      sub\n      swap1\n      return\n        /* \"contracts/Shops.sol\":2664:2851  function registerBank(string memory bankLogin,address bankAddr) public isAdmin {... */\n    tag_4:\n      tag_32\n      0x04\n      dup1\n      calldatasize\n      sub\n      dup2\n      add\n      swap1\n      tag_33\n      swap2\n      swap1\n      tag_34\n      jump\t// in\n    tag_33:\n      tag_35\n      jump\t// in\n    tag_32:\n      stop\n        /* \"contracts/Shops.sol\":6099:6553  function createReview(... */\n    tag_5:\n      tag_36\n      0x04\n      dup1\n      calldatasize\n      sub\n      dup2\n      add\n      swap1\n      tag_37\n      swap2\n      swap1\n      tag_38\n      jump\t// in\n    tag_37:\n      tag_39\n      jump\t// in\n    tag_36:\n      stop\n        /* \"contracts/Shops.sol\":7043:7529  function getReviewById(string memory id) public view returns(... */\n    tag_6:\n      tag_40\n      0x04\n      dup1\n      calldatasize\n      sub\n      dup2\n      add\n      swap1\n      tag_41\n      swap2\n      swap1\n      tag_42\n      jump\t// in\n    tag_41:\n      tag_43\n      jump\t// in\n    tag_40:\n      mload(0x40)\n      tag_44\n      swap7\n      swap6\n      swap5\n      swap4\n      swap3\n      swap2\n      swap1\n      tag_45\n      jump\t// in\n    tag_44:\n      mload(0x40)\n      dup1\n      swap2\n      sub\n      swap1\n      return\n        /* \"contracts/AuthService.sol\":2256:2556  function login(string memory userLogin) public view isRegistered(userLogin) returns(address userAddress,string memory status){... */\n    tag_7:\n      tag_46\n      0x04\n      dup1\n      calldatasize\n      sub\n      dup2\n      add\n      swap1\n      tag_47\n      swap2\n      swap1\n      tag_42\n      jump\t// in\n    tag_47:\n      tag_48\n      jump\t// in\n    tag_46:\n      mload(0x40)\n      tag_49\n      swap3\n      swap2\n      swap1\n      tag_50\n      jump\t// in\n    tag_49:\n      mload(0x40)\n      dup1\n      swap2\n      sub\n      swap1\n      return\n        /* \"contracts/Shops.sol\":3860:4451  function getSellerInfo() public view isUserStatus(UserRoles.seller) returns(... */\n    tag_8:\n      tag_51\n      tag_52\n      jump\t// in\n    tag_51:\n      mload(0x40)\n      tag_53\n      swap6\n      swap5\n      swap4\n      swap3\n      swap2\n      swap1\n      tag_31\n      jump\t// in\n    tag_53:\n      mload(0x40)\n      dup1\n      swap2\n      sub\n      swap1\n      return\n        /* \"contracts/Shops.sol\":1894:2245  function registerShop(address shopAddr,string memory number,string memory city,string memory shopLogin) public isUserStatus(UserRoles.admin){... */\n    tag_9:\n      tag_54\n      0x04\n      dup1\n      calldatasize\n      sub\n      dup2\n      add\n      swap1\n      tag_55\n      swap2\n      swap1\n      tag_56\n      jump\t// in\n    tag_55:\n      tag_57\n      jump\t// in\n    tag_54:\n      stop\n        /* \"contracts/Shops.sol\":6559:6792  function likeReview(string memory id) public isUser {... */\n    tag_10:\n      tag_58\n      0x04\n      dup1\n      calldatasize\n      sub\n      dup2\n      add\n      swap1\n      tag_59\n      swap2\n      swap1\n      tag_42\n      jump\t// in\n    tag_59:\n      tag_60\n      jump\t// in\n    tag_58:\n      stop\n        /* \"contracts/Shops.sol\":2345:2589  function registerProvider(string memory providerLogin,address providerAddr) public isAdmin {... */\n    tag_11:\n      tag_61\n      0x04\n      dup1\n      calldatasize\n      sub\n      dup2\n      add\n      swap1\n      tag_62\n      swap2\n      swap1\n      tag_34\n      jump\t// in\n    tag_62:\n      tag_63\n      jump\t// in\n    tag_61:\n      stop\n        /* \"contracts/Shops.sol\":3581:3784  function doShopDebt(address payable shopAddr) public isUserStatus(UserRoles.bank) {... */\n    tag_12:\n      tag_64\n      0x04\n      dup1\n      calldatasize\n      sub\n      dup2\n      add\n      swap1\n      tag_65\n      swap2\n      swap1\n      tag_66\n      jump\t// in\n    tag_65:\n      tag_67\n      jump\t// in\n    tag_64:\n      stop\n        /* \"contracts/Shops.sol\":2914:3220  function registerSeller(string memory fio,string memory userLogin,address userAddress,address shopAddr) public {... */\n    tag_13:\n      tag_68\n      0x04\n      dup1\n      calldatasize\n      sub\n      dup2\n      add\n      swap1\n      tag_69\n      swap2\n      swap1\n      tag_70\n      jump\t// in\n    tag_69:\n      tag_71\n      jump\t// in\n    tag_68:\n      stop\n        /* \"contracts/Shops.sol\":7965:8047  function downRequestToByer() public isUserStatus(UserRoles.seller){... */\n    tag_14:\n      tag_72\n      tag_73\n      jump\t// in\n    tag_72:\n      stop\n        /* \"contracts/Shops.sol\":4550:4914  function getBuyerInfo() public view isUser returns(... */\n    tag_15:\n      tag_74\n      tag_75\n      jump\t// in\n    tag_74:\n      mload(0x40)\n      tag_76\n      swap5\n      swap4\n      swap3\n      swap2\n      swap1\n      tag_77\n      jump\t// in\n    tag_76:\n      mload(0x40)\n      dup1\n      swap2\n      sub\n      swap1\n      return\n        /* \"contracts/Shops.sol\":3287:3486  function registerBuyer(string memory fio,string memory userLogin,address userAddr) public{... */\n    tag_16:\n      tag_78\n      0x04\n      dup1\n      calldatasize\n      sub\n      dup2\n      add\n      swap1\n      tag_79\n      swap2\n      swap1\n      tag_80\n      jump\t// in\n    tag_79:\n      tag_81\n      jump\t// in\n    tag_78:\n      stop\n        /* \"contracts/Shops.sol\":1575:1833  function regAdmin(address adminAddr,string memory fio,string memory userLogin) public isUserStatus(UserRoles.admin){... */\n    tag_17:\n      tag_82\n      0x04\n      dup1\n      calldatasize\n      sub\n      dup2\n      add\n      swap1\n      tag_83\n      swap2\n      swap1\n      tag_84\n      jump\t// in\n    tag_83:\n      tag_85\n      jump\t// in\n    tag_82:\n      stop\n        /* \"contracts/Shops.sol\":7535:7959  function requestToSeller(string memory id) public isUserStatus(UserRoles.buyer){... */\n    tag_18:\n      tag_86\n      0x04\n      dup1\n      calldatasize\n      sub\n      dup2\n      add\n      swap1\n      tag_87\n      swap2\n      swap1\n      tag_42\n      jump\t// in\n    tag_87:\n      tag_88\n      jump\t// in\n    tag_86:\n      stop\n        /* \"contracts/Shops.sol\":6798:7037  function disLikeReview(string memory id) public isUser {... */\n    tag_19:\n      tag_89\n      0x04\n      dup1\n      calldatasize\n      sub\n      dup2\n      add\n      swap1\n      tag_90\n      swap2\n      swap1\n      tag_42\n      jump\t// in\n    tag_90:\n      tag_91\n      jump\t// in\n    tag_89:\n      stop\n        /* \"contracts/Shops.sol\":4984:5383  function getAdminInfo() public view isUserStatus(UserRoles.admin) returns(... */\n    tag_20:\n      tag_92\n      tag_93\n      jump\t// in\n    tag_92:\n      mload(0x40)\n      tag_94\n      swap5\n      swap4\n      swap3\n      swap2\n      swap1\n      tag_95\n      jump\t// in\n    tag_94:\n      mload(0x40)\n      dup1\n      swap2\n      sub\n      swap1\n      return\n        /* \"contracts/Shops.sol\":8053:8146  function checkRequest(string memory id) public isUserStatus(UserRoles.admin) {... */\n    tag_21:\n      tag_96\n      0x04\n      dup1\n      calldatasize\n      sub\n      dup2\n      add\n      swap1\n      tag_97\n      swap2\n      swap1\n      tag_42\n      jump\t// in\n    tag_97:\n      tag_98\n      jump\t// in\n    tag_96:\n      stop\n        /* \"contracts/Shops.sol\":1259:1484  function registerAdmin(string memory fio,string memory userLogin) isAdmin public {... */\n    tag_22:\n      tag_99\n      0x04\n      dup1\n      calldatasize\n      sub\n      dup2\n      add\n      swap1\n      tag_100\n      swap2\n      swap1\n      tag_101\n      jump\t// in\n    tag_100:\n      tag_102\n      jump\t// in\n    tag_99:\n      stop\n        /* \"contracts/Shops.sol\":5480:6093  function getSellerInfoByAddr(address sellerAddr) public view isUserStatus(UserRoles.admin)returns(... */\n    tag_29:\n        /* \"contracts/Shops.sol\":5587:5612  string memory sellerLogin */\n      0x60\n        /* \"contracts/Shops.sol\":5622:5639  string memory fio */\n      dup1\n        /* \"contracts/Shops.sol\":5649:5667  string memory city */\n      0x60\n        /* \"contracts/Shops.sol\":5677:5701  string memory shopNumber */\n      dup1\n        /* \"contracts/Shops.sol\":5711:5734  string[] memory reviews */\n      0x60\n        /* \"contracts/Shops.sol\":5554:5569  UserRoles.admin */\n      0x03\n        /* \"contracts/AuthService.sol\":1617:1622  users */\n      0x02\n        /* \"contracts/AuthService.sol\":1617:1634  users[msg.sender] */\n      0x00\n        /* \"contracts/AuthService.sol\":1623:1633  msg.sender */\n      caller\n        /* \"contracts/AuthService.sol\":1617:1634  users[msg.sender] */\n      0xffffffffffffffffffffffffffffffffffffffff\n      and\n      0xffffffffffffffffffffffffffffffffffffffff\n      and\n      dup2\n      mstore\n      0x20\n      add\n      swap1\n      dup2\n      mstore\n      0x20\n      add\n      0x00\n      keccak256\n        /* \"contracts/AuthService.sol\":1617:1641  users[msg.sender].status */\n      0x00\n      add\n      sload\n        /* \"contracts/AuthService.sol\":1606:1612  status */\n      dup2\n        /* \"contracts/AuthService.sol\":1601:1613  uint(status) */\n      0x05\n      dup2\n      gt\n      iszero\n      tag_104\n      jumpi\n      tag_105\n      tag_106\n      jump\t// in\n    tag_105:\n    tag_104:\n        /* \"contracts/AuthService.sol\":1601:1641  uint(status) == users[msg.sender].status */\n      eq\n        /* \"contracts/AuthService.sol\":1593:1654  require(uint(status) == users[msg.sender].status,\"Forbidden\") */\n      tag_107\n      jumpi\n      mload(0x40)\n      0x08c379a000000000000000000000000000000000000000000000000000000000\n      dup2\n      mstore\n      0x04\n      add\n      tag_108\n      swap1\n      tag_109\n      jump\t// in\n    tag_108:\n      mload(0x40)\n      dup1\n      swap2\n      sub\n      swap1\n      revert\n    tag_107:\n        /* \"contracts/Shops.sol\":5750:5770  User memory sellUser */\n      0x00\n        /* \"contracts/Shops.sol\":5773:5778  users */\n      0x02\n        /* \"contracts/Shops.sol\":5773:5790  users[sellerAddr] */\n      0x00\n        /* \"contracts/Shops.sol\":5779:5789  sellerAddr */\n      dup10\n        /* \"contracts/Shops.sol\":5773:5790  users[sellerAddr] */\n      0xffffffffffffffffffffffffffffffffffffffff\n      and\n      0xffffffffffffffffffffffffffffffffffffffff\n      and\n      dup2\n      mstore\n      0x20\n      add\n      swap1\n      dup2\n      mstore\n      0x20\n      add\n      0x00\n      keccak256\n        /* \"contracts/Shops.sol\":5750:5790  User memory sellUser = users[sellerAddr] */\n      mload(0x40)\n      dup1\n      0x80\n      add\n      0x40\n      mstore\n      swap1\n      dup2\n      0x00\n      dup3\n      add\n      sload\n      dup2\n      mstore\n      0x20\n      add\n      0x01\n      dup3\n      add\n      dup1\n      sload\n      tag_111\n      swap1\n      tag_112\n      jump\t// in\n    tag_111:\n      dup1\n      0x1f\n      add\n      0x20\n      dup1\n      swap2\n      div\n      mul\n      0x20\n      add\n      mload(0x40)\n      swap1\n      dup2\n      add\n      0x40\n      mstore\n      dup1\n      swap3\n      swap2\n      swap1\n      dup2\n      dup2\n      mstore\n      0x20\n      add\n      dup3\n      dup1\n      sload\n      tag_113\n      swap1\n      tag_112\n      jump\t// in\n    tag_113:\n      dup1\n      iszero\n      tag_114\n      jumpi\n      dup1\n      0x1f\n      lt\n      tag_115\n      jumpi\n      0x0100\n      dup1\n      dup4\n      sload\n      div\n      mul\n      dup4\n      mstore\n      swap2\n      0x20\n      add\n      swap2\n      jump(tag_114)\n    tag_115:\n      dup3\n      add\n      swap2\n      swap1\n      0x00\n      mstore\n      keccak256(0x00, 0x20)\n      swap1\n    tag_116:\n      dup2\n      sload\n      dup2\n      mstore\n      swap1\n      0x01\n      add\n      swap1\n      0x20\n      add\n      dup1\n      dup4\n      gt\n      tag_116\n      jumpi\n      dup3\n      swap1\n      sub\n      0x1f\n      and\n      dup3\n      add\n      swap2\n    tag_114:\n      pop\n      pop\n      pop\n      pop\n      pop\n      dup2\n      mstore\n      0x20\n      add\n      0x02\n      dup3\n      add\n      dup1\n      sload\n      tag_117\n      swap1\n      tag_112\n      jump\t// in\n    tag_117:\n      dup1\n      0x1f\n      add\n      0x20\n      dup1\n      swap2\n      div\n      mul\n      0x20\n      add\n      mload(0x40)\n      swap1\n      dup2\n      add\n      0x40\n      mstore\n      dup1\n      swap3\n      swap2\n      swap1\n      dup2\n      dup2\n      mstore\n      0x20\n      add\n      dup3\n      dup1\n      sload\n      tag_118\n      swap1\n      tag_112\n      jump\t// in\n    tag_118:\n      dup1\n      iszero\n      tag_119\n      jumpi\n      dup1\n      0x1f\n      lt\n      tag_120\n      jumpi\n      0x0100\n      dup1\n      dup4\n      sload\n      div\n      mul\n      dup4\n      mstore\n      swap2\n      0x20\n      add\n      swap2\n      jump(tag_119)\n    tag_120:\n      dup3\n      add\n      swap2\n      swap1\n      0x00\n      mstore\n      keccak256(0x00, 0x20)\n      swap1\n    tag_121:\n      dup2\n      sload\n      dup2\n      mstore\n      swap1\n      0x01\n      add\n      swap1\n      0x20\n      add\n      dup1\n      dup4\n      gt\n      tag_121\n      jumpi\n      dup3\n      swap1\n      sub\n      0x1f\n      and\n      dup3\n      add\n      swap2\n    tag_119:\n      pop\n      pop\n      pop\n      pop\n      pop\n      dup2\n      mstore\n      0x20\n      add\n      0x03\n      dup3\n      add\n      dup1\n      sload\n      dup1\n      0x20\n      mul\n      0x20\n      add\n      mload(0x40)\n      swap1\n      dup2\n      add\n      0x40\n      mstore\n      dup1\n      swap3\n      swap2\n      swap1\n      dup2\n      dup2\n      mstore\n      0x20\n      add\n      0x00\n      swap1\n    tag_122:\n      dup3\n      dup3\n      lt\n      iszero\n      tag_123\n      jumpi\n      dup4\n      dup3\n      swap1\n      0x00\n      mstore\n      keccak256(0x00, 0x20)\n      add\n      dup1\n      sload\n      tag_125\n      swap1\n      tag_112\n      jump\t// in\n    tag_125:\n      dup1\n      0x1f\n      add\n      0x20\n      dup1\n      swap2\n      div\n      mul\n      0x20\n      add\n      mload(0x40)\n      swap1\n      dup2\n      add\n      0x40\n      mstore\n      dup1\n      swap3\n      swap2\n      swap1\n      dup2\n      dup2\n      mstore\n      0x20\n      add\n      dup3\n      dup1\n      sload\n      tag_126\n      swap1\n      tag_112\n      jump\t// in\n    tag_126:\n      dup1\n      iszero\n      tag_127\n      jumpi\n      dup1\n      0x1f\n      lt\n      tag_128\n      jumpi\n      0x0100\n      dup1\n      dup4\n      sload\n      div\n      mul\n      dup4\n      mstore\n      swap2\n      0x20\n      add\n      swap2\n      jump(tag_127)\n    tag_128:\n      dup3\n      add\n      swap2\n      swap1\n      0x00\n      mstore\n      keccak256(0x00, 0x20)\n      swap1\n    tag_129:\n      dup2\n      sload\n      dup2\n      mstore\n      swap1\n      0x01\n      add\n      swap1\n      0x20\n      add\n      dup1\n      dup4\n      gt\n      tag_129\n      jumpi\n      dup3\n      swap1\n      sub\n      0x1f\n      and\n      dup3\n      add\n      swap2\n    tag_127:\n      pop\n      pop\n      pop\n      pop\n      pop\n      dup2\n      mstore\n      0x20\n      add\n      swap1\n      0x01\n      add\n      swap1\n      jump(tag_122)\n    tag_123:\n      pop\n      pop\n      pop\n      pop\n      dup2\n      mstore\n      pop\n      pop\n      swap1\n      pop\n        /* \"contracts/Shops.sol\":5800:5820  address sellShopAddr */\n      0x00\n        /* \"contracts/Shops.sol\":5823:5835  salesmanShop */\n      0x0c\n        /* \"contracts/Shops.sol\":5823:5847  salesmanShop[sellerAddr] */\n      0x00\n        /* \"contracts/Shops.sol\":5836:5846  sellerAddr */\n      dup11\n        /* \"contracts/Shops.sol\":5823:5847  salesmanShop[sellerAddr] */\n      0xffffffffffffffffffffffffffffffffffffffff\n      and\n      0xffffffffffffffffffffffffffffffffffffffff\n      and\n      dup2\n      mstore\n      0x20\n      add\n      swap1\n      dup2\n      mstore\n      0x20\n      add\n      0x00\n      keccak256\n      0x00\n      swap1\n      sload\n      swap1\n      0x0100\n      exp\n      swap1\n      div\n      0xffffffffffffffffffffffffffffffffffffffff\n      and\n        /* \"contracts/Shops.sol\":5800:5847  address sellShopAddr = salesmanShop[sellerAddr] */\n      swap1\n      pop\n        /* \"contracts/Shops.sol\":5857:5877  Shop memory sellShop */\n      0x00\n        /* \"contracts/Shops.sol\":5880:5889  ShopsList */\n      0x0b\n        /* \"contracts/Shops.sol\":5880:5903  ShopsList[sellShopAddr] */\n      0x00\n        /* \"contracts/Shops.sol\":5890:5902  sellShopAddr */\n      dup4\n        /* \"contracts/Shops.sol\":5880:5903  ShopsList[sellShopAddr] */\n      0xffffffffffffffffffffffffffffffffffffffff\n      and\n      0xffffffffffffffffffffffffffffffffffffffff\n      and\n      dup2\n      mstore\n      0x20\n      add\n      swap1\n      dup2\n      mstore\n      0x20\n      add\n      0x00\n      keccak256\n        /* \"contracts/Shops.sol\":5857:5903  Shop memory sellShop = ShopsList[sellShopAddr] */\n      mload(0x40)\n      dup1\n      0x60\n      add\n      0x40\n      mstore\n      swap1\n      dup2\n      0x00\n      dup3\n      add\n      dup1\n      sload\n      tag_130\n      swap1\n      tag_112\n      jump\t// in\n    tag_130:\n      dup1\n      0x1f\n      add\n      0x20\n      dup1\n      swap2\n      div\n      mul\n      0x20\n      add\n      mload(0x40)\n      swap1\n      dup2\n      add\n      0x40\n      mstore\n      dup1\n      swap3\n      swap2\n      swap1\n      dup2\n      dup2\n      mstore\n      0x20\n      add\n      dup3\n      dup1\n      sload\n      tag_131\n      swap1\n      tag_112\n      jump\t// in\n    tag_131:\n      dup1\n      iszero\n      tag_132\n      jumpi\n      dup1\n      0x1f\n      lt\n      tag_133\n      jumpi\n      0x0100\n      dup1\n      dup4\n      sload\n      div\n      mul\n      dup4\n      mstore\n      swap2\n      0x20\n      add\n      swap2\n      jump(tag_132)\n    tag_133:\n      dup3\n      add\n      swap2\n      swap1\n      0x00\n      mstore\n      keccak256(0x00, 0x20)\n      swap1\n    tag_134:\n      dup2\n      sload\n      dup2\n      mstore\n      swap1\n      0x01\n      add\n      swap1\n      0x20\n      add\n      dup1\n      dup4\n      gt\n      tag_134\n      jumpi\n      dup3\n      swap1\n      sub\n      0x1f\n      and\n      dup3\n      add\n      swap2\n    tag_132:\n      pop\n      pop\n      pop\n      pop\n      pop\n      dup2\n      mstore\n      0x20\n      add\n      0x01\n      dup3\n      add\n      dup1\n      sload\n      tag_135\n      swap1\n      tag_112\n      jump\t// in\n    tag_135:\n      dup1\n      0x1f\n      add\n      0x20\n      dup1\n      swap2\n      div\n      mul\n      0x20\n      add\n      mload(0x40)\n      swap1\n      dup2\n      add\n      0x40\n      mstore\n      dup1\n      swap3\n      swap2\n      swap1\n      dup2\n      dup2\n      mstore\n      0x20\n      add\n      dup3\n      dup1\n      sload\n      tag_136\n      swap1\n      tag_112\n      jump\t// in\n    tag_136:\n      dup1\n      iszero\n      tag_137\n      jumpi\n      dup1\n      0x1f\n      lt\n      tag_138\n      jumpi\n      0x0100\n      dup1\n      dup4\n      sload\n      div\n      mul\n      dup4\n      mstore\n      swap2\n      0x20\n      add\n      swap2\n      jump(tag_137)\n    tag_138:\n      dup3\n      add\n      swap2\n      swap1\n      0x00\n      mstore\n      keccak256(0x00, 0x20)\n      swap1\n    tag_139:\n      dup2\n      sload\n      dup2\n      mstore\n      swap1\n      0x01\n      add\n      swap1\n      0x20\n      add\n      dup1\n      dup4\n      gt\n      tag_139\n      jumpi\n      dup3\n      swap1\n      sub\n      0x1f\n      and\n      dup3\n      add\n      swap2\n    tag_137:\n      pop\n      pop\n      pop\n      pop\n      pop\n      dup2\n      mstore\n      0x20\n      add\n      0x02\n      dup3\n      add\n      sload\n      dup2\n      mstore\n      pop\n      pop\n      swap1\n      pop\n        /* \"contracts/Shops.sol\":5936:5944  sellUser */\n      dup3\n        /* \"contracts/Shops.sol\":5936:5954  sellUser.userLogin */\n      0x20\n      add\n      mload\n        /* \"contracts/Shops.sol\":5922:5954  sellerLogin = sellUser.userLogin */\n      swap9\n      pop\n        /* \"contracts/Shops.sol\":5970:5978  sellUser */\n      dup3\n        /* \"contracts/Shops.sol\":5970:5982  sellUser.fio */\n      0x40\n      add\n      mload\n        /* \"contracts/Shops.sol\":5964:5982  fio = sellUser.fio */\n      swap8\n      pop\n        /* \"contracts/Shops.sol\":5999:6007  sellShop */\n      dup1\n        /* \"contracts/Shops.sol\":5999:6012  sellShop.city */\n      0x20\n      add\n      mload\n        /* \"contracts/Shops.sol\":5992:6012  city = sellShop.city */\n      swap7\n      pop\n        /* \"contracts/Shops.sol\":6035:6043  sellShop */\n      dup1\n        /* \"contracts/Shops.sol\":6035:6050  sellShop.number */\n      0x00\n      add\n      mload\n        /* \"contracts/Shops.sol\":6022:6050  shopNumber = sellShop.number */\n      swap6\n      pop\n        /* \"contracts/Shops.sol\":6070:6078  sellUser */\n      dup3\n        /* \"contracts/Shops.sol\":6070:6086  sellUser.reviews */\n      0x60\n      add\n      mload\n        /* \"contracts/Shops.sol\":6060:6086  reviews = sellUser.reviews */\n      swap5\n      pop\n        /* \"contracts/Shops.sol\":5740:6093  {... */\n      pop\n      pop\n      pop\n        /* \"contracts/Shops.sol\":5480:6093  function getSellerInfoByAddr(address sellerAddr) public view isUserStatus(UserRoles.admin)returns(... */\n      pop\n      swap2\n      swap4\n      swap6\n      swap1\n      swap3\n      swap5\n      pop\n      jump\t// out\n        /* \"contracts/Shops.sol\":2664:2851  function registerBank(string memory bankLogin,address bankAddr) public isAdmin {... */\n    tag_35:\n        /* \"contracts/Shops.sol\":1101:1106  admin */\n      0x05\n      0x00\n      swap1\n      sload\n      swap1\n      0x0100\n      exp\n      swap1\n      div\n      0xffffffffffffffffffffffffffffffffffffffff\n      and\n        /* \"contracts/Shops.sol\":1087:1106  msg.sender == admin */\n      0xffffffffffffffffffffffffffffffffffffffff\n      and\n        /* \"contracts/Shops.sol\":1087:1097  msg.sender */\n      caller\n        /* \"contracts/Shops.sol\":1087:1106  msg.sender == admin */\n      0xffffffffffffffffffffffffffffffffffffffff\n      and\n      eq\n        /* \"contracts/Shops.sol\":1079:1123  require(msg.sender == admin,\"You not admin\") */\n      tag_141\n      jumpi\n      mload(0x40)\n      0x08c379a000000000000000000000000000000000000000000000000000000000\n      dup2\n      mstore\n      0x04\n      add\n      tag_142\n      swap1\n      tag_143\n      jump\t// in\n    tag_142:\n      mload(0x40)\n      dup1\n      swap2\n      sub\n      swap1\n      revert\n    tag_141:\n        /* \"contracts/Shops.sol\":2753:2764  uint status */\n      0x00\n        /* \"contracts/Shops.sol\":2772:2786  UserRoles.bank */\n      0x05\n        /* \"contracts/Shops.sol\":2767:2787  uint(UserRoles.bank) */\n      dup1\n      dup2\n      gt\n      iszero\n      tag_145\n      jumpi\n      tag_146\n      tag_106\n      jump\t// in\n    tag_146:\n    tag_145:\n        /* \"contracts/Shops.sol\":2753:2787  uint status = uint(UserRoles.bank) */\n      swap1\n      pop\n        /* \"contracts/Shops.sol\":2797:2844  registerFromAdmin(\"\",bankLogin,status,bankAddr) */\n      tag_147\n      mload(0x40)\n      dup1\n      0x20\n      add\n      0x40\n      mstore\n      dup1\n      0x00\n      dup2\n      mstore\n      pop\n        /* \"contracts/Shops.sol\":2818:2827  bankLogin */\n      dup5\n        /* \"contracts/Shops.sol\":2828:2834  status */\n      dup4\n        /* \"contracts/Shops.sol\":2835:2843  bankAddr */\n      dup6\n        /* \"contracts/Shops.sol\":2797:2814  registerFromAdmin */\n      tag_148\n        /* \"contracts/Shops.sol\":2797:2844  registerFromAdmin(\"\",bankLogin,status,bankAddr) */\n      jump\t// in\n    tag_147:\n        /* \"contracts/Shops.sol\":2743:2851  {... */\n      pop\n        /* \"contracts/Shops.sol\":2664:2851  function registerBank(string memory bankLogin,address bankAddr) public isAdmin {... */\n      pop\n      pop\n      jump\t// out\n        /* \"contracts/Shops.sol\":6099:6553  function createReview(... */\n    tag_39:\n        /* \"contracts/AuthService.sol\":1465:1504  compare(users[msg.sender].userLogin,\"\") */\n      tag_150\n        /* \"contracts/AuthService.sol\":1473:1478  users */\n      0x02\n        /* \"contracts/AuthService.sol\":1473:1490  users[msg.sender] */\n      0x00\n        /* \"contracts/AuthService.sol\":1479:1489  msg.sender */\n      caller\n        /* \"contracts/AuthService.sol\":1473:1490  users[msg.sender] */\n      0xffffffffffffffffffffffffffffffffffffffff\n      and\n      0xffffffffffffffffffffffffffffffffffffffff\n      and\n      dup2\n      mstore\n      0x20\n      add\n      swap1\n      dup2\n      mstore\n      0x20\n      add\n      0x00\n      keccak256\n        /* \"contracts/AuthService.sol\":1473:1500  users[msg.sender].userLogin */\n      0x01\n      add\n        /* \"contracts/AuthService.sol\":1465:1504  compare(users[msg.sender].userLogin,\"\") */\n      dup1\n      sload\n      tag_151\n      swap1\n      tag_112\n      jump\t// in\n    tag_151:\n      dup1\n      0x1f\n      add\n      0x20\n      dup1\n      swap2\n      div\n      mul\n      0x20\n      add\n      mload(0x40)\n      swap1\n      dup2\n      add\n      0x40\n      mstore\n      dup1\n      swap3\n      swap2\n      swap1\n      dup2\n      dup2\n      mstore\n      0x20\n      add\n      dup3\n      dup1\n      sload\n      tag_152\n      swap1\n      tag_112\n      jump\t// in\n    tag_152:\n      dup1\n      iszero\n      tag_153\n      jumpi\n      dup1\n      0x1f\n      lt\n      tag_154\n      jumpi\n      0x0100\n      dup1\n      dup4\n      sload\n      div\n      mul\n      dup4\n      mstore\n      swap2\n      0x20\n      add\n      swap2\n      jump(tag_153)\n    tag_154:\n      dup3\n      add\n      swap2\n      swap1\n      0x00\n      mstore\n      keccak256(0x00, 0x20)\n      swap1\n    tag_155:\n      dup2\n      sload\n      dup2\n      mstore\n      swap1\n      0x01\n      add\n      swap1\n      0x20\n      add\n      dup1\n      dup4\n      gt\n      tag_155\n      jumpi\n      dup3\n      swap1\n      sub\n      0x1f\n      and\n      dup3\n      add\n      swap2\n    tag_153:\n      pop\n      pop\n      pop\n      pop\n      pop\n      mload(0x40)\n      dup1\n      0x20\n      add\n      0x40\n      mstore\n      dup1\n      0x00\n      dup2\n      mstore\n      pop\n        /* \"contracts/AuthService.sol\":1465:1472  compare */\n      tag_156\n        /* \"contracts/AuthService.sol\":1465:1504  compare(users[msg.sender].userLogin,\"\") */\n      jump\t// in\n    tag_150:\n        /* \"contracts/AuthService.sol\":1464:1504  !compare(users[msg.sender].userLogin,\"\") */\n      iszero\n        /* \"contracts/AuthService.sol\":1456:1520  require(!compare(users[msg.sender].userLogin,\"\"),\"You not user\") */\n      tag_157\n      jumpi\n      mload(0x40)\n      0x08c379a000000000000000000000000000000000000000000000000000000000\n      dup2\n      mstore\n      0x04\n      add\n      tag_158\n      swap1\n      tag_159\n      jump\t// in\n    tag_158:\n      mload(0x40)\n      dup1\n      swap2\n      sub\n      swap1\n      revert\n    tag_157:\n        /* \"contracts/Shops.sol\":6257:6283  address[] memory likeCount */\n      0x60\n        /* \"contracts/Shops.sol\":6293:6322  address[] memory disLikeCount */\n      dup1\n        /* \"contracts/Shops.sol\":6332:6356  Review memory userReview */\n      0x00\n        /* \"contracts/Shops.sol\":6359:6427  Review(msg.sender,shopAddr,userMessage,likeCount,disLikeCount,grade) */\n      mload(0x40)\n      dup1\n      0xc0\n      add\n      0x40\n      mstore\n      dup1\n        /* \"contracts/Shops.sol\":6366:6376  msg.sender */\n      caller\n        /* \"contracts/Shops.sol\":6359:6427  Review(msg.sender,shopAddr,userMessage,likeCount,disLikeCount,grade) */\n      0xffffffffffffffffffffffffffffffffffffffff\n      and\n      dup2\n      mstore\n      0x20\n      add\n        /* \"contracts/Shops.sol\":6377:6385  shopAddr */\n      dup9\n        /* \"contracts/Shops.sol\":6359:6427  Review(msg.sender,shopAddr,userMessage,likeCount,disLikeCount,grade) */\n      0xffffffffffffffffffffffffffffffffffffffff\n      and\n      dup2\n      mstore\n      0x20\n      add\n        /* \"contracts/Shops.sol\":6386:6397  userMessage */\n      dup8\n        /* \"contracts/Shops.sol\":6359:6427  Review(msg.sender,shopAddr,userMessage,likeCount,disLikeCount,grade) */\n      dup2\n      mstore\n      0x20\n      add\n        /* \"contracts/Shops.sol\":6398:6407  likeCount */\n      dup5\n        /* \"contracts/Shops.sol\":6359:6427  Review(msg.sender,shopAddr,userMessage,likeCount,disLikeCount,grade) */\n      dup2\n      mstore\n      0x20\n      add\n        /* \"contracts/Shops.sol\":6408:6420  disLikeCount */\n      dup4\n        /* \"contracts/Shops.sol\":6359:6427  Review(msg.sender,shopAddr,userMessage,likeCount,disLikeCount,grade) */\n      dup2\n      mstore\n      0x20\n      add\n        /* \"contracts/Shops.sol\":6421:6426  grade */\n      dup6\n        /* \"contracts/Shops.sol\":6359:6427  Review(msg.sender,shopAddr,userMessage,likeCount,disLikeCount,grade) */\n      dup2\n      mstore\n      pop\n        /* \"contracts/Shops.sol\":6332:6427  Review memory userReview = Review(msg.sender,shopAddr,userMessage,likeCount,disLikeCount,grade) */\n      swap1\n      pop\n        /* \"contracts/Shops.sol\":6437:6448  shopReviews */\n      0x0e\n        /* \"contracts/Shops.sol\":6437:6458  shopReviews[shopAddr] */\n      0x00\n        /* \"contracts/Shops.sol\":6449:6457  shopAddr */\n      dup9\n        /* \"contracts/Shops.sol\":6437:6458  shopReviews[shopAddr] */\n      0xffffffffffffffffffffffffffffffffffffffff\n      and\n      0xffffffffffffffffffffffffffffffffffffffff\n      and\n      dup2\n      mstore\n      0x20\n      add\n      swap1\n      dup2\n      mstore\n      0x20\n      add\n      0x00\n      keccak256\n        /* \"contracts/Shops.sol\":6464:6466  id */\n      dup6\n        /* \"contracts/Shops.sol\":6437:6467  shopReviews[shopAddr].push(id) */\n      swap1\n      dup1\n      0x01\n      dup2\n      sload\n      add\n      dup1\n      dup3\n      sstore\n      dup1\n      swap2\n      pop\n      pop\n      0x01\n      swap1\n      sub\n      swap1\n      0x00\n      mstore\n      keccak256(0x00, 0x20)\n      add\n      0x00\n      swap1\n      swap2\n      swap1\n      swap2\n      swap1\n      swap2\n      pop\n      swap1\n      dup1\n      mload\n      swap1\n      0x20\n      add\n      swap1\n      tag_162\n      swap3\n      swap2\n      swap1\n      tag_163\n      jump\t// in\n    tag_162:\n      pop\n        /* \"contracts/Shops.sol\":6477:6482  users */\n      0x02\n        /* \"contracts/Shops.sol\":6477:6494  users[msg.sender] */\n      0x00\n        /* \"contracts/Shops.sol\":6483:6493  msg.sender */\n      caller\n        /* \"contracts/Shops.sol\":6477:6494  users[msg.sender] */\n      0xffffffffffffffffffffffffffffffffffffffff\n      and\n      0xffffffffffffffffffffffffffffffffffffffff\n      and\n      dup2\n      mstore\n      0x20\n      add\n      swap1\n      dup2\n      mstore\n      0x20\n      add\n      0x00\n      keccak256\n        /* \"contracts/Shops.sol\":6477:6502  users[msg.sender].reviews */\n      0x03\n      add\n        /* \"contracts/Shops.sol\":6508:6510  id */\n      dup6\n        /* \"contracts/Shops.sol\":6477:6511  users[msg.sender].reviews.push(id) */\n      swap1\n      dup1\n      0x01\n      dup2\n      sload\n      add\n      dup1\n      dup3\n      sstore\n      dup1\n      swap2\n      pop\n      pop\n      0x01\n      swap1\n      sub\n      swap1\n      0x00\n      mstore\n      keccak256(0x00, 0x20)\n      add\n      0x00\n      swap1\n      swap2\n      swap1\n      swap2\n      swap1\n      swap2\n      pop\n      swap1\n      dup1\n      mload\n      swap1\n      0x20\n      add\n      swap1\n      tag_165\n      swap3\n      swap2\n      swap1\n      tag_163\n      jump\t// in\n    tag_165:\n      pop\n        /* \"contracts/Shops.sol\":6536:6546  userReview */\n      dup1\n        /* \"contracts/Shops.sol\":6521:6529  reviewId */\n      0x0f\n        /* \"contracts/Shops.sol\":6530:6532  id */\n      dup7\n        /* \"contracts/Shops.sol\":6521:6533  reviewId[id] */\n      mload(0x40)\n      tag_166\n      swap2\n      swap1\n      tag_167\n      jump\t// in\n    tag_166:\n      swap1\n      dup2\n      mstore\n      0x20\n      add\n      mload(0x40)\n      dup1\n      swap2\n      sub\n      swap1\n      keccak256\n        /* \"contracts/Shops.sol\":6521:6546  reviewId[id] = userReview */\n      0x00\n      dup3\n      add\n      mload\n      dup2\n      0x00\n      add\n      exp(0x0100, 0x00)\n      dup2\n      sload\n      dup2\n      0xffffffffffffffffffffffffffffffffffffffff\n      mul\n      not\n      and\n      swap1\n      dup4\n      0xffffffffffffffffffffffffffffffffffffffff\n      and\n      mul\n      or\n      swap1\n      sstore\n      pop\n      0x20\n      dup3\n      add\n      mload\n      dup2\n      0x01\n      add\n      exp(0x0100, 0x00)\n      dup2\n      sload\n      dup2\n      0xffffffffffffffffffffffffffffffffffffffff\n      mul\n      not\n      and\n      swap1\n      dup4\n      0xffffffffffffffffffffffffffffffffffffffff\n      and\n      mul\n      or\n      swap1\n      sstore\n      pop\n      0x40\n      dup3\n      add\n      mload\n      dup2\n      0x02\n      add\n      swap1\n      dup1\n      mload\n      swap1\n      0x20\n      add\n      swap1\n      tag_168\n      swap3\n      swap2\n      swap1\n      tag_163\n      jump\t// in\n    tag_168:\n      pop\n      0x60\n      dup3\n      add\n      mload\n      dup2\n      0x03\n      add\n      swap1\n      dup1\n      mload\n      swap1\n      0x20\n      add\n      swap1\n      tag_169\n      swap3\n      swap2\n      swap1\n      tag_170\n      jump\t// in\n    tag_169:\n      pop\n      0x80\n      dup3\n      add\n      mload\n      dup2\n      0x04\n      add\n      swap1\n      dup1\n      mload\n      swap1\n      0x20\n      add\n      swap1\n      tag_171\n      swap3\n      swap2\n      swap1\n      tag_170\n      jump\t// in\n    tag_171:\n      pop\n      0xa0\n      dup3\n      add\n      mload\n      dup2\n      0x05\n      add\n      sstore\n      swap1\n      pop\n      pop\n        /* \"contracts/Shops.sol\":6247:6553  {... */\n      pop\n      pop\n      pop\n        /* \"contracts/Shops.sol\":6099:6553  function createReview(... */\n      pop\n      pop\n      pop\n      pop\n      jump\t// out\n        /* \"contracts/Shops.sol\":7043:7529  function getReviewById(string memory id) public view returns(... */\n    tag_43:\n        /* \"contracts/Shops.sol\":7113:7130  address autorAddr */\n      0x00\n        /* \"contracts/Shops.sol\":7140:7156  address shopAddr */\n      dup1\n        /* \"contracts/Shops.sol\":7166:7193  string memory reviewMessage */\n      0x60\n        /* \"contracts/Shops.sol\":7203:7217  uint likeCount */\n      0x00\n        /* \"contracts/Shops.sol\":7227:7244  uint disLikeCount */\n      dup1\n        /* \"contracts/Shops.sol\":7254:7263  int grade */\n      0x00\n        /* \"contracts/Shops.sol\":7279:7294  Review memory r */\n      dup1\n        /* \"contracts/Shops.sol\":7297:7305  reviewId */\n      0x0f\n        /* \"contracts/Shops.sol\":7306:7308  id */\n      dup9\n        /* \"contracts/Shops.sol\":7297:7309  reviewId[id] */\n      mload(0x40)\n      tag_173\n      swap2\n      swap1\n      tag_167\n      jump\t// in\n    tag_173:\n      swap1\n      dup2\n      mstore\n      0x20\n      add\n      mload(0x40)\n      dup1\n      swap2\n      sub\n      swap1\n      keccak256\n        /* \"contracts/Shops.sol\":7279:7309  Review memory r = reviewId[id] */\n      mload(0x40)\n      dup1\n      0xc0\n      add\n      0x40\n      mstore\n      swap1\n      dup2\n      0x00\n      dup3\n      add\n      0x00\n      swap1\n      sload\n      swap1\n      0x0100\n      exp\n      swap1\n      div\n      0xffffffffffffffffffffffffffffffffffffffff\n      and\n      0xffffffffffffffffffffffffffffffffffffffff\n      and\n      0xffffffffffffffffffffffffffffffffffffffff\n      and\n      dup2\n      mstore\n      0x20\n      add\n      0x01\n      dup3\n      add\n      0x00\n      swap1\n      sload\n      swap1\n      0x0100\n      exp\n      swap1\n      div\n      0xffffffffffffffffffffffffffffffffffffffff\n      and\n      0xffffffffffffffffffffffffffffffffffffffff\n      and\n      0xffffffffffffffffffffffffffffffffffffffff\n      and\n      dup2\n      mstore\n      0x20\n      add\n      0x02\n      dup3\n      add\n      dup1\n      sload\n      tag_174\n      swap1\n      tag_112\n      jump\t// in\n    tag_174:\n      dup1\n      0x1f\n      add\n      0x20\n      dup1\n      swap2\n      div\n      mul\n      0x20\n      add\n      mload(0x40)\n      swap1\n      dup2\n      add\n      0x40\n      mstore\n      dup1\n      swap3\n      swap2\n      swap1\n      dup2\n      dup2\n      mstore\n      0x20\n      add\n      dup3\n      dup1\n      sload\n      tag_175\n      swap1\n      tag_112\n      jump\t// in\n    tag_175:\n      dup1\n      iszero\n      tag_176\n      jumpi\n      dup1\n      0x1f\n      lt\n      tag_177\n      jumpi\n      0x0100\n      dup1\n      dup4\n      sload\n      div\n      mul\n      dup4\n      mstore\n      swap2\n      0x20\n      add\n      swap2\n      jump(tag_176)\n    tag_177:\n      dup3\n      add\n      swap2\n      swap1\n      0x00\n      mstore\n      keccak256(0x00, 0x20)\n      swap1\n    tag_178:\n      dup2\n      sload\n      dup2\n      mstore\n      swap1\n      0x01\n      add\n      swap1\n      0x20\n      add\n      dup1\n      dup4\n      gt\n      tag_178\n      jumpi\n      dup3\n      swap1\n      sub\n      0x1f\n      and\n      dup3\n      add\n      swap2\n    tag_176:\n      pop\n      pop\n      pop\n      pop\n      pop\n      dup2\n      mstore\n      0x20\n      add\n      0x03\n      dup3\n      add\n      dup1\n      sload\n      dup1\n      0x20\n      mul\n      0x20\n      add\n      mload(0x40)\n      swap1\n      dup2\n      add\n      0x40\n      mstore\n      dup1\n      swap3\n      swap2\n      swap1\n      dup2\n      dup2\n      mstore\n      0x20\n      add\n      dup3\n      dup1\n      sload\n      dup1\n      iszero\n      tag_179\n      jumpi\n      0x20\n      mul\n      dup3\n      add\n      swap2\n      swap1\n      0x00\n      mstore\n      keccak256(0x00, 0x20)\n      swap1\n    tag_180:\n      dup2\n      0x00\n      swap1\n      sload\n      swap1\n      0x0100\n      exp\n      swap1\n      div\n      0xffffffffffffffffffffffffffffffffffffffff\n      and\n      0xffffffffffffffffffffffffffffffffffffffff\n      and\n      dup2\n      mstore\n      0x20\n      add\n      swap1\n      0x01\n      add\n      swap1\n      dup1\n      dup4\n      gt\n      tag_180\n      jumpi\n    tag_179:\n      pop\n      pop\n      pop\n      pop\n      pop\n      dup2\n      mstore\n      0x20\n      add\n      0x04\n      dup3\n      add\n      dup1\n      sload\n      dup1\n      0x20\n      mul\n      0x20\n      add\n      mload(0x40)\n      swap1\n      dup2\n      add\n      0x40\n      mstore\n      dup1\n      swap3\n      swap2\n      swap1\n      dup2\n      dup2\n      mstore\n      0x20\n      add\n      dup3\n      dup1\n      sload\n      dup1\n      iszero\n      tag_181\n      jumpi\n      0x20\n      mul\n      dup3\n      add\n      swap2\n      swap1\n      0x00\n      mstore\n      keccak256(0x00, 0x20)\n      swap1\n    tag_182:\n      dup2\n      0x00\n      swap1\n      sload\n      swap1\n      0x0100\n      exp\n      swap1\n      div\n      0xffffffffffffffffffffffffffffffffffffffff\n      and\n      0xffffffffffffffffffffffffffffffffffffffff\n      and\n      dup2\n      mstore\n      0x20\n      add\n      swap1\n      0x01\n      add\n      swap1\n      dup1\n      dup4\n      gt\n      tag_182\n      jumpi\n    tag_181:\n      pop\n      pop\n      pop\n      pop\n      pop\n      dup2\n      mstore\n      0x20\n      add\n      0x05\n      dup3\n      add\n      sload\n      dup2\n      mstore\n      pop\n      pop\n      swap1\n      pop\n        /* \"contracts/Shops.sol\":7331:7332  r */\n      dup1\n        /* \"contracts/Shops.sol\":7331:7345  r.autorAddress */\n      0x00\n      add\n      mload\n        /* \"contracts/Shops.sol\":7319:7345  autorAddr = r.autorAddress */\n      swap7\n      pop\n        /* \"contracts/Shops.sol\":7366:7367  r */\n      dup1\n        /* \"contracts/Shops.sol\":7366:7376  r.shopAddr */\n      0x20\n      add\n      mload\n        /* \"contracts/Shops.sol\":7355:7376  shopAddr = r.shopAddr */\n      swap6\n      pop\n        /* \"contracts/Shops.sol\":7402:7403  r */\n      dup1\n        /* \"contracts/Shops.sol\":7402:7411  r.message */\n      0x40\n      add\n      mload\n        /* \"contracts/Shops.sol\":7386:7411  reviewMessage = r.message */\n      swap5\n      pop\n        /* \"contracts/Shops.sol\":7433:7434  r */\n      dup1\n        /* \"contracts/Shops.sol\":7433:7444  r.likeCount */\n      0x60\n      add\n      mload\n        /* \"contracts/Shops.sol\":7433:7451  r.likeCount.length */\n      mload\n        /* \"contracts/Shops.sol\":7421:7451  likeCount = r.likeCount.length */\n      swap4\n      pop\n        /* \"contracts/Shops.sol\":7476:7477  r */\n      dup1\n        /* \"contracts/Shops.sol\":7476:7490  r.disLikeCount */\n      0x80\n      add\n      mload\n        /* \"contracts/Shops.sol\":7476:7497  r.disLikeCount.length */\n      mload\n        /* \"contracts/Shops.sol\":7461:7497  disLikeCount = r.disLikeCount.length */\n      swap3\n      pop\n        /* \"contracts/Shops.sol\":7515:7516  r */\n      dup1\n        /* \"contracts/Shops.sol\":7515:7522  r.grade */\n      0xa0\n      add\n      mload\n        /* \"contracts/Shops.sol\":7507:7522  grade = r.grade */\n      swap2\n      pop\n        /* \"contracts/Shops.sol\":7269:7529  {... */\n      pop\n        /* \"contracts/Shops.sol\":7043:7529  function getReviewById(string memory id) public view returns(... */\n      swap2\n      swap4\n      swap6\n      pop\n      swap2\n      swap4\n      swap6\n      jump\t// out\n        /* \"contracts/AuthService.sol\":2256:2556  function login(string memory userLogin) public view isRegistered(userLogin) returns(address userAddress,string memory status){... */\n    tag_48:\n        /* \"contracts/AuthService.sol\":2340:2359  address userAddress */\n      0x00\n        /* \"contracts/AuthService.sol\":2360:2380  string memory status */\n      0x60\n        /* \"contracts/AuthService.sol\":2321:2330  userLogin */\n      dup3\n        /* \"contracts/AuthService.sol\":1388:1389  0 */\n      0x00\n        /* \"contracts/AuthService.sol\":1355:1390  userLogins[userLogin] != address(0) */\n      0xffffffffffffffffffffffffffffffffffffffff\n      and\n        /* \"contracts/AuthService.sol\":1355:1365  userLogins */\n      0x01\n        /* \"contracts/AuthService.sol\":1366:1375  userLogin */\n      dup3\n        /* \"contracts/AuthService.sol\":1355:1376  userLogins[userLogin] */\n      mload(0x40)\n      tag_184\n      swap2\n      swap1\n      tag_167\n      jump\t// in\n    tag_184:\n      swap1\n      dup2\n      mstore\n      0x20\n      add\n      mload(0x40)\n      dup1\n      swap2\n      sub\n      swap1\n      keccak256\n      0x00\n      swap1\n      sload\n      swap1\n      0x0100\n      exp\n      swap1\n      div\n      0xffffffffffffffffffffffffffffffffffffffff\n      and\n        /* \"contracts/AuthService.sol\":1355:1390  userLogins[userLogin] != address(0) */\n      0xffffffffffffffffffffffffffffffffffffffff\n      and\n      eq\n      iszero\n        /* \"contracts/AuthService.sol\":1347:1405  require(userLogins[userLogin] != address(0),\"Wrong Login\") */\n      tag_185\n      jumpi\n      mload(0x40)\n      0x08c379a000000000000000000000000000000000000000000000000000000000\n      dup2\n      mstore\n      0x04\n      add\n      tag_186\n      swap1\n      tag_187\n      jump\t// in\n    tag_186:\n      mload(0x40)\n      dup1\n      swap2\n      sub\n      swap1\n      revert\n    tag_185:\n        /* \"contracts/AuthService.sol\":2391:2407  address userAddr */\n      0x00\n        /* \"contracts/AuthService.sol\":2410:2420  userLogins */\n      0x01\n        /* \"contracts/AuthService.sol\":2421:2430  userLogin */\n      dup6\n        /* \"contracts/AuthService.sol\":2410:2431  userLogins[userLogin] */\n      mload(0x40)\n      tag_189\n      swap2\n      swap1\n      tag_167\n      jump\t// in\n    tag_189:\n      swap1\n      dup2\n      mstore\n      0x20\n      add\n      mload(0x40)\n      dup1\n      swap2\n      sub\n      swap1\n      keccak256\n      0x00\n      swap1\n      sload\n      swap1\n      0x0100\n      exp\n      swap1\n      div\n      0xffffffffffffffffffffffffffffffffffffffff\n      and\n        /* \"contracts/AuthService.sol\":2391:2431  address userAddr = userLogins[userLogin] */\n      swap1\n      pop\n        /* \"contracts/AuthService.sol\":2441:2457  User memory user */\n      0x00\n        /* \"contracts/AuthService.sol\":2460:2465  users */\n      0x02\n        /* \"contracts/AuthService.sol\":2460:2475  users[userAddr] */\n      0x00\n        /* \"contracts/AuthService.sol\":2466:2474  userAddr */\n      dup4\n        /* \"contracts/AuthService.sol\":2460:2475  users[userAddr] */\n      0xffffffffffffffffffffffffffffffffffffffff\n      and\n      0xffffffffffffffffffffffffffffffffffffffff\n      and\n      dup2\n      mstore\n      0x20\n      add\n      swap1\n      dup2\n      mstore\n      0x20\n      add\n      0x00\n      keccak256\n        /* \"contracts/AuthService.sol\":2441:2475  User memory user = users[userAddr] */\n      mload(0x40)\n      dup1\n      0x80\n      add\n      0x40\n      mstore\n      swap1\n      dup2\n      0x00\n      dup3\n      add\n      sload\n      dup2\n      mstore\n      0x20\n      add\n      0x01\n      dup3\n      add\n      dup1\n      sload\n      tag_190\n      swap1\n      tag_112\n      jump\t// in\n    tag_190:\n      dup1\n      0x1f\n      add\n      0x20\n      dup1\n      swap2\n      div\n      mul\n      0x20\n      add\n      mload(0x40)\n      swap1\n      dup2\n      add\n      0x40\n      mstore\n      dup1\n      swap3\n      swap2\n      swap1\n      dup2\n      dup2\n      mstore\n      0x20\n      add\n      dup3\n      dup1\n      sload\n      tag_191\n      swap1\n      tag_112\n      jump\t// in\n    tag_191:\n      dup1\n      iszero\n      tag_192\n      jumpi\n      dup1\n      0x1f\n      lt\n      tag_193\n      jumpi\n      0x0100\n      dup1\n      dup4\n      sload\n      div\n      mul\n      dup4\n      mstore\n      swap2\n      0x20\n      add\n      swap2\n      jump(tag_192)\n    tag_193:\n      dup3\n      add\n      swap2\n      swap1\n      0x00\n      mstore\n      keccak256(0x00, 0x20)\n      swap1\n    tag_194:\n      dup2\n      sload\n      dup2\n      mstore\n      swap1\n      0x01\n      add\n      swap1\n      0x20\n      add\n      dup1\n      dup4\n      gt\n      tag_194\n      jumpi\n      dup3\n      swap1\n      sub\n      0x1f\n      and\n      dup3\n      add\n      swap2\n    tag_192:\n      pop\n      pop\n      pop\n      pop\n      pop\n      dup2\n      mstore\n      0x20\n      add\n      0x02\n      dup3\n      add\n      dup1\n      sload\n      tag_195\n      swap1\n      tag_112\n      jump\t// in\n    tag_195:\n      dup1\n      0x1f\n      add\n      0x20\n      dup1\n      swap2\n      div\n      mul\n      0x20\n      add\n      mload(0x40)\n      swap1\n      dup2\n      add\n      0x40\n      mstore\n      dup1\n      swap3\n      swap2\n      swap1\n      dup2\n      dup2\n      mstore\n      0x20\n      add\n      dup3\n      dup1\n      sload\n      tag_196\n      swap1\n      tag_112\n      jump\t// in\n    tag_196:\n      dup1\n      iszero\n      tag_197\n      jumpi\n      dup1\n      0x1f\n      lt\n      tag_198\n      jumpi\n      0x0100\n      dup1\n      dup4\n      sload\n      div\n      mul\n      dup4\n      mstore\n      swap2\n      0x20\n      add\n      swap2\n      jump(tag_197)\n    tag_198:\n      dup3\n      add\n      swap2\n      swap1\n      0x00\n      mstore\n      keccak256(0x00, 0x20)\n      swap1\n    tag_199:\n      dup2\n      sload\n      dup2\n      mstore\n      swap1\n      0x01\n      add\n      swap1\n      0x20\n      add\n      dup1\n      dup4\n      gt\n      tag_199\n      jumpi\n      dup3\n      swap1\n      sub\n      0x1f\n      and\n      dup3\n      add\n      swap2\n    tag_197:\n      pop\n      pop\n      pop\n      pop\n      pop\n      dup2\n      mstore\n      0x20\n      add\n      0x03\n      dup3\n      add\n      dup1\n      sload\n      dup1\n      0x20\n      mul\n      0x20\n      add\n      mload(0x40)\n      swap1\n      dup2\n      add\n      0x40\n      mstore\n      dup1\n      swap3\n      swap2\n      swap1\n      dup2\n      dup2\n      mstore\n      0x20\n      add\n      0x00\n      swap1\n    tag_200:\n      dup3\n      dup3\n      lt\n      iszero\n      tag_201\n      jumpi\n      dup4\n      dup3\n      swap1\n      0x00\n      mstore\n      keccak256(0x00, 0x20)\n      add\n      dup1\n      sload\n      tag_203\n      swap1\n      tag_112\n      jump\t// in\n    tag_203:\n      dup1\n      0x1f\n      add\n      0x20\n      dup1\n      swap2\n      div\n      mul\n      0x20\n      add\n      mload(0x40)\n      swap1\n      dup2\n      add\n      0x40\n      mstore\n      dup1\n      swap3\n      swap2\n      swap1\n      dup2\n      dup2\n      mstore\n      0x20\n      add\n      dup3\n      dup1\n      sload\n      tag_204\n      swap1\n      tag_112\n      jump\t// in\n    tag_204:\n      dup1\n      iszero\n      tag_205\n      jumpi\n      dup1\n      0x1f\n      lt\n      tag_206\n      jumpi\n      0x0100\n      dup1\n      dup4\n      sload\n      div\n      mul\n      dup4\n      mstore\n      swap2\n      0x20\n      add\n      swap2\n      jump(tag_205)\n    tag_206:\n      dup3\n      add\n      swap2\n      swap1\n      0x00\n      mstore\n      keccak256(0x00, 0x20)\n      swap1\n    tag_207:\n      dup2\n      sload\n      dup2\n      mstore\n      swap1\n      0x01\n      add\n      swap1\n      0x20\n      add\n      dup1\n      dup4\n      gt\n      tag_207\n      jumpi\n      dup3\n      swap1\n      sub\n      0x1f\n      and\n      dup3\n      add\n      swap2\n    tag_205:\n      pop\n      pop\n      pop\n      pop\n      pop\n      dup2\n      mstore\n      0x20\n      add\n      swap1\n      0x01\n      add\n      swap1\n      jump(tag_200)\n    tag_201:\n      pop\n      pop\n      pop\n      pop\n      dup2\n      mstore\n      pop\n      pop\n      swap1\n      pop\n        /* \"contracts/AuthService.sol\":2499:2507  userAddr */\n      dup2\n        /* \"contracts/AuthService.sol\":2485:2507  userAddress = userAddr */\n      swap5\n      pop\n        /* \"contracts/AuthService.sol\":2526:2536  userStatus */\n      0x00\n        /* \"contracts/AuthService.sol\":2526:2549  userStatus[user.status] */\n      dup1\n        /* \"contracts/AuthService.sol\":2537:2541  user */\n      dup3\n        /* \"contracts/AuthService.sol\":2537:2548  user.status */\n      0x00\n      add\n      mload\n        /* \"contracts/AuthService.sol\":2526:2549  userStatus[user.status] */\n      dup2\n      mstore\n      0x20\n      add\n      swap1\n      dup2\n      mstore\n      0x20\n      add\n      0x00\n      keccak256\n        /* \"contracts/AuthService.sol\":2517:2549  status = userStatus[user.status] */\n      dup1\n      sload\n      tag_208\n      swap1\n      tag_112\n      jump\t// in\n    tag_208:\n      dup1\n      0x1f\n      add\n      0x20\n      dup1\n      swap2\n      div\n      mul\n      0x20\n      add\n      mload(0x40)\n      swap1\n      dup2\n      add\n      0x40\n      mstore\n      dup1\n      swap3\n      swap2\n      swap1\n      dup2\n      dup2\n      mstore\n      0x20\n      add\n      dup3\n      dup1\n      sload\n      tag_209\n      swap1\n      tag_112\n      jump\t// in\n    tag_209:\n      dup1\n      iszero\n      tag_210\n      jumpi\n      dup1\n      0x1f\n      lt\n      tag_211\n      jumpi\n      0x0100\n      dup1\n      dup4\n      sload\n      div\n      mul\n      dup4\n      mstore\n      swap2\n      0x20\n      add\n      swap2\n      jump(tag_210)\n    tag_211:\n      dup3\n      add\n      swap2\n      swap1\n      0x00\n      mstore\n      keccak256(0x00, 0x20)\n      swap1\n    tag_212:\n      dup2\n      sload\n      dup2\n      mstore\n      swap1\n      0x01\n      add\n      swap1\n      0x20\n      add\n      dup1\n      dup4\n      gt\n      tag_212\n      jumpi\n      dup3\n      swap1\n      sub\n      0x1f\n      and\n      dup3\n      add\n      swap2\n    tag_210:\n      pop\n      pop\n      pop\n      pop\n      pop\n      swap4\n      pop\n        /* \"contracts/AuthService.sol\":2381:2556  {... */\n      pop\n      pop\n        /* \"contracts/AuthService.sol\":2256:2556  function login(string memory userLogin) public view isRegistered(userLogin) returns(address userAddress,string memory status){... */\n      pop\n      swap2\n      pop\n      swap2\n      jump\t// out\n        /* \"contracts/Shops.sol\":3860:4451  function getSellerInfo() public view isUserStatus(UserRoles.seller) returns(... */\n    tag_52:\n        /* \"contracts/Shops.sol\":3945:3970  string memory sellerLogin */\n      0x60\n        /* \"contracts/Shops.sol\":3980:3997  string memory fio */\n      dup1\n        /* \"contracts/Shops.sol\":4007:4025  string memory city */\n      0x60\n        /* \"contracts/Shops.sol\":4035:4059  string memory shopNumber */\n      dup1\n        /* \"contracts/Shops.sol\":4069:4092  string[] memory reviews */\n      0x60\n        /* \"contracts/Shops.sol\":3910:3926  UserRoles.seller */\n      0x01\n        /* \"contracts/AuthService.sol\":1617:1622  users */\n      0x02\n        /* \"contracts/AuthService.sol\":1617:1634  users[msg.sender] */\n      0x00\n        /* \"contracts/AuthService.sol\":1623:1633  msg.sender */\n      caller\n        /* \"contracts/AuthService.sol\":1617:1634  users[msg.sender] */\n      0xffffffffffffffffffffffffffffffffffffffff\n      and\n      0xffffffffffffffffffffffffffffffffffffffff\n      and\n      dup2\n      mstore\n      0x20\n      add\n      swap1\n      dup2\n      mstore\n      0x20\n      add\n      0x00\n      keccak256\n        /* \"contracts/AuthService.sol\":1617:1641  users[msg.sender].status */\n      0x00\n      add\n      sload\n        /* \"contracts/AuthService.sol\":1606:1612  status */\n      dup2\n        /* \"contracts/AuthService.sol\":1601:1613  uint(status) */\n      0x05\n      dup2\n      gt\n      iszero\n      tag_214\n      jumpi\n      tag_215\n      tag_106\n      jump\t// in\n    tag_215:\n    tag_214:\n        /* \"contracts/AuthService.sol\":1601:1641  uint(status) == users[msg.sender].status */\n      eq\n        /* \"contracts/AuthService.sol\":1593:1654  require(uint(status) == users[msg.sender].status,\"Forbidden\") */\n      tag_216\n      jumpi\n      mload(0x40)\n      0x08c379a000000000000000000000000000000000000000000000000000000000\n      dup2\n      mstore\n      0x04\n      add\n      tag_217\n      swap1\n      tag_109\n      jump\t// in\n    tag_217:\n      mload(0x40)\n      dup1\n      swap2\n      sub\n      swap1\n      revert\n    tag_216:\n        /* \"contracts/Shops.sol\":4108:4128  User memory sellUser */\n      0x00\n        /* \"contracts/Shops.sol\":4131:4136  users */\n      0x02\n        /* \"contracts/Shops.sol\":4131:4148  users[msg.sender] */\n      0x00\n        /* \"contracts/Shops.sol\":4137:4147  msg.sender */\n      caller\n        /* \"contracts/Shops.sol\":4131:4148  users[msg.sender] */\n      0xffffffffffffffffffffffffffffffffffffffff\n      and\n      0xffffffffffffffffffffffffffffffffffffffff\n      and\n      dup2\n      mstore\n      0x20\n      add\n      swap1\n      dup2\n      mstore\n      0x20\n      add\n      0x00\n      keccak256\n        /* \"contracts/Shops.sol\":4108:4148  User memory sellUser = users[msg.sender] */\n      mload(0x40)\n      dup1\n      0x80\n      add\n      0x40\n      mstore\n      swap1\n      dup2\n      0x00\n      dup3\n      add\n      sload\n      dup2\n      mstore\n      0x20\n      add\n      0x01\n      dup3\n      add\n      dup1\n      sload\n      tag_219\n      swap1\n      tag_112\n      jump\t// in\n    tag_219:\n      dup1\n      0x1f\n      add\n      0x20\n      dup1\n      swap2\n      div\n      mul\n      0x20\n      add\n      mload(0x40)\n      swap1\n      dup2\n      add\n      0x40\n      mstore\n      dup1\n      swap3\n      swap2\n      swap1\n      dup2\n      dup2\n      mstore\n      0x20\n      add\n      dup3\n      dup1\n      sload\n      tag_220\n      swap1\n      tag_112\n      jump\t// in\n    tag_220:\n      dup1\n      iszero\n      tag_221\n      jumpi\n      dup1\n      0x1f\n      lt\n      tag_222\n      jumpi\n      0x0100\n      dup1\n      dup4\n      sload\n      div\n      mul\n      dup4\n      mstore\n      swap2\n      0x20\n      add\n      swap2\n      jump(tag_221)\n    tag_222:\n      dup3\n      add\n      swap2\n      swap1\n      0x00\n      mstore\n      keccak256(0x00, 0x20)\n      swap1\n    tag_223:\n      dup2\n      sload\n      dup2\n      mstore\n      swap1\n      0x01\n      add\n      swap1\n      0x20\n      add\n      dup1\n      dup4\n      gt\n      tag_223\n      jumpi\n      dup3\n      swap1\n      sub\n      0x1f\n      and\n      dup3\n      add\n      swap2\n    tag_221:\n      pop\n      pop\n      pop\n      pop\n      pop\n      dup2\n      mstore\n      0x20\n      add\n      0x02\n      dup3\n      add\n      dup1\n      sload\n      tag_224\n      swap1\n      tag_112\n      jump\t// in\n    tag_224:\n      dup1\n      0x1f\n      add\n      0x20\n      dup1\n      swap2\n      div\n      mul\n      0x20\n      add\n      mload(0x40)\n      swap1\n      dup2\n      add\n      0x40\n      mstore\n      dup1\n      swap3\n      swap2\n      swap1\n      dup2\n      dup2\n      mstore\n      0x20\n      add\n      dup3\n      dup1\n      sload\n      tag_225\n      swap1\n      tag_112\n      jump\t// in\n    tag_225:\n      dup1\n      iszero\n      tag_226\n      jumpi\n      dup1\n      0x1f\n      lt\n      tag_227\n      jumpi\n      0x0100\n      dup1\n      dup4\n      sload\n      div\n      mul\n      dup4\n      mstore\n      swap2\n      0x20\n      add\n      swap2\n      jump(tag_226)\n    tag_227:\n      dup3\n      add\n      swap2\n      swap1\n      0x00\n      mstore\n      keccak256(0x00, 0x20)\n      swap1\n    tag_228:\n      dup2\n      sload\n      dup2\n      mstore\n      swap1\n      0x01\n      add\n      swap1\n      0x20\n      add\n      dup1\n      dup4\n      gt\n      tag_228\n      jumpi\n      dup3\n      swap1\n      sub\n      0x1f\n      and\n      dup3\n      add\n      swap2\n    tag_226:\n      pop\n      pop\n      pop\n      pop\n      pop\n      dup2\n      mstore\n      0x20\n      add\n      0x03\n      dup3\n      add\n      dup1\n      sload\n      dup1\n      0x20\n      mul\n      0x20\n      add\n      mload(0x40)\n      swap1\n      dup2\n      add\n      0x40\n      mstore\n      dup1\n      swap3\n      swap2\n      swap1\n      dup2\n      dup2\n      mstore\n      0x20\n      add\n      0x00\n      swap1\n    tag_229:\n      dup3\n      dup3\n      lt\n      iszero\n      tag_230\n      jumpi\n      dup4\n      dup3\n      swap1\n      0x00\n      mstore\n      keccak256(0x00, 0x20)\n      add\n      dup1\n      sload\n      tag_232\n      swap1\n      tag_112\n      jump\t// in\n    tag_232:\n      dup1\n      0x1f\n      add\n      0x20\n      dup1\n      swap2\n      div\n      mul\n      0x20\n      add\n      mload(0x40)\n      swap1\n      dup2\n      add\n      0x40\n      mstore\n      dup1\n      swap3\n      swap2\n      swap1\n      dup2\n      dup2\n      mstore\n      0x20\n      add\n      dup3\n      dup1\n      sload\n      tag_233\n      swap1\n      tag_112\n      jump\t// in\n    tag_233:\n      dup1\n      iszero\n      tag_234\n      jumpi\n      dup1\n      0x1f\n      lt\n      tag_235\n      jumpi\n      0x0100\n      dup1\n      dup4\n      sload\n      div\n      mul\n      dup4\n      mstore\n      swap2\n      0x20\n      add\n      swap2\n      jump(tag_234)\n    tag_235:\n      dup3\n      add\n      swap2\n      swap1\n      0x00\n      mstore\n      keccak256(0x00, 0x20)\n      swap1\n    tag_236:\n      dup2\n      sload\n      dup2\n      mstore\n      swap1\n      0x01\n      add\n      swap1\n      0x20\n      add\n      dup1\n      dup4\n      gt\n      tag_236\n      jumpi\n      dup3\n      swap1\n      sub\n      0x1f\n      and\n      dup3\n      add\n      swap2\n    tag_234:\n      pop\n      pop\n      pop\n      pop\n      pop\n      dup2\n      mstore\n      0x20\n      add\n      swap1\n      0x01\n      add\n      swap1\n      jump(tag_229)\n    tag_230:\n      pop\n      pop\n      pop\n      pop\n      dup2\n      mstore\n      pop\n      pop\n      swap1\n      pop\n        /* \"contracts/Shops.sol\":4158:4178  address sellShopAddr */\n      0x00\n        /* \"contracts/Shops.sol\":4181:4193  salesmanShop */\n      0x0c\n        /* \"contracts/Shops.sol\":4181:4205  salesmanShop[msg.sender] */\n      0x00\n        /* \"contracts/Shops.sol\":4194:4204  msg.sender */\n      caller\n        /* \"contracts/Shops.sol\":4181:4205  salesmanShop[msg.sender] */\n      0xffffffffffffffffffffffffffffffffffffffff\n      and\n      0xffffffffffffffffffffffffffffffffffffffff\n      and\n      dup2\n      mstore\n      0x20\n      add\n      swap1\n      dup2\n      mstore\n      0x20\n      add\n      0x00\n      keccak256\n      0x00\n      swap1\n      sload\n      swap1\n      0x0100\n      exp\n      swap1\n      div\n      0xffffffffffffffffffffffffffffffffffffffff\n      and\n        /* \"contracts/Shops.sol\":4158:4205  address sellShopAddr = salesmanShop[msg.sender] */\n      swap1\n      pop\n        /* \"contracts/Shops.sol\":4215:4235  Shop memory sellShop */\n      0x00\n        /* \"contracts/Shops.sol\":4238:4247  ShopsList */\n      0x0b\n        /* \"contracts/Shops.sol\":4238:4261  ShopsList[sellShopAddr] */\n      0x00\n        /* \"contracts/Shops.sol\":4248:4260  sellShopAddr */\n      dup4\n        /* \"contracts/Shops.sol\":4238:4261  ShopsList[sellShopAddr] */\n      0xffffffffffffffffffffffffffffffffffffffff\n      and\n      0xffffffffffffffffffffffffffffffffffffffff\n      and\n      dup2\n      mstore\n      0x20\n      add\n      swap1\n      dup2\n      mstore\n      0x20\n      add\n      0x00\n      keccak256\n        /* \"contracts/Shops.sol\":4215:4261  Shop memory sellShop = ShopsList[sellShopAddr] */\n      mload(0x40)\n      dup1\n      0x60\n      add\n      0x40\n      mstore\n      swap1\n      dup2\n      0x00\n      dup3\n      add\n      dup1\n      sload\n      tag_237\n      swap1\n      tag_112\n      jump\t// in\n    tag_237:\n      dup1\n      0x1f\n      add\n      0x20\n      dup1\n      swap2\n      div\n      mul\n      0x20\n      add\n      mload(0x40)\n      swap1\n      dup2\n      add\n      0x40\n      mstore\n      dup1\n      swap3\n      swap2\n      swap1\n      dup2\n      dup2\n      mstore\n      0x20\n      add\n      dup3\n      dup1\n      sload\n      tag_238\n      swap1\n      tag_112\n      jump\t// in\n    tag_238:\n      dup1\n      iszero\n      tag_239\n      jumpi\n      dup1\n      0x1f\n      lt\n      tag_240\n      jumpi\n      0x0100\n      dup1\n      dup4\n      sload\n      div\n      mul\n      dup4\n      mstore\n      swap2\n      0x20\n      add\n      swap2\n      jump(tag_239)\n    tag_240:\n      dup3\n      add\n      swap2\n      swap1\n      0x00\n      mstore\n      keccak256(0x00, 0x20)\n      swap1\n    tag_241:\n      dup2\n      sload\n      dup2\n      mstore\n      swap1\n      0x01\n      add\n      swap1\n      0x20\n      add\n      dup1\n      dup4\n      gt\n      tag_241\n      jumpi\n      dup3\n      swap1\n      sub\n      0x1f\n      and\n      dup3\n      add\n      swap2\n    tag_239:\n      pop\n      pop\n      pop\n      pop\n      pop\n      dup2\n      mstore\n      0x20\n      add\n      0x01\n      dup3\n      add\n      dup1\n      sload\n      tag_242\n      swap1\n      tag_112\n      jump\t// in\n    tag_242:\n      dup1\n      0x1f\n      add\n      0x20\n      dup1\n      swap2\n      div\n      mul\n      0x20\n      add\n      mload(0x40)\n      swap1\n      dup2\n      add\n      0x40\n      mstore\n      dup1\n      swap3\n      swap2\n      swap1\n      dup2\n      dup2\n      mstore\n      0x20\n      add\n      dup3\n      dup1\n      sload\n      tag_243\n      swap1\n      tag_112\n      jump\t// in\n    tag_243:\n      dup1\n      iszero\n      tag_244\n      jumpi\n      dup1\n      0x1f\n      lt\n      tag_245\n      jumpi\n      0x0100\n      dup1\n      dup4\n      sload\n      div\n      mul\n      dup4\n      mstore\n      swap2\n      0x20\n      add\n      swap2\n      jump(tag_244)\n    tag_245:\n      dup3\n      add\n      swap2\n      swap1\n      0x00\n      mstore\n      keccak256(0x00, 0x20)\n      swap1\n    tag_246:\n      dup2\n      sload\n      dup2\n      mstore\n      swap1\n      0x01\n      add\n      swap1\n      0x20\n      add\n      dup1\n      dup4\n      gt\n      tag_246\n      jumpi\n      dup3\n      swap1\n      sub\n      0x1f\n      and\n      dup3\n      add\n      swap2\n    tag_244:\n      pop\n      pop\n      pop\n      pop\n      pop\n      dup2\n      mstore\n      0x20\n      add\n      0x02\n      dup3\n      add\n      sload\n      dup2\n      mstore\n      pop\n      pop\n      swap1\n      pop\n        /* \"contracts/Shops.sol\":4294:4302  sellUser */\n      dup3\n        /* \"contracts/Shops.sol\":4294:4312  sellUser.userLogin */\n      0x20\n      add\n      mload\n        /* \"contracts/Shops.sol\":4280:4312  sellerLogin = sellUser.userLogin */\n      swap9\n      pop\n        /* \"contracts/Shops.sol\":4328:4336  sellUser */\n      dup3\n        /* \"contracts/Shops.sol\":4328:4340  sellUser.fio */\n      0x40\n      add\n      mload\n        /* \"contracts/Shops.sol\":4322:4340  fio = sellUser.fio */\n      swap8\n      pop\n        /* \"contracts/Shops.sol\":4357:4365  sellShop */\n      dup1\n        /* \"contracts/Shops.sol\":4357:4370  sellShop.city */\n      0x20\n      add\n      mload\n        /* \"contracts/Shops.sol\":4350:4370  city = sellShop.city */\n      swap7\n      pop\n        /* \"contracts/Shops.sol\":4393:4401  sellShop */\n      dup1\n        /* \"contracts/Shops.sol\":4393:4408  sellShop.number */\n      0x00\n      add\n      mload\n        /* \"contracts/Shops.sol\":4380:4408  shopNumber = sellShop.number */\n      swap6\n      pop\n        /* \"contracts/Shops.sol\":4428:4436  sellUser */\n      dup3\n        /* \"contracts/Shops.sol\":4428:4444  sellUser.reviews */\n      0x60\n      add\n      mload\n        /* \"contracts/Shops.sol\":4418:4444  reviews = sellUser.reviews */\n      swap5\n      pop\n        /* \"contracts/Shops.sol\":4098:4451  {... */\n      pop\n      pop\n      pop\n        /* \"contracts/Shops.sol\":3860:4451  function getSellerInfo() public view isUserStatus(UserRoles.seller) returns(... */\n      pop\n      swap1\n      swap2\n      swap3\n      swap4\n      swap5\n      jump\t// out\n        /* \"contracts/Shops.sol\":1894:2245  function registerShop(address shopAddr,string memory number,string memory city,string memory shopLogin) public isUserStatus(UserRoles.admin){... */\n    tag_57:\n        /* \"contracts/Shops.sol\":2018:2033  UserRoles.admin */\n      0x03\n        /* \"contracts/AuthService.sol\":1617:1622  users */\n      0x02\n        /* \"contracts/AuthService.sol\":1617:1634  users[msg.sender] */\n      0x00\n        /* \"contracts/AuthService.sol\":1623:1633  msg.sender */\n      caller\n        /* \"contracts/AuthService.sol\":1617:1634  users[msg.sender] */\n      0xffffffffffffffffffffffffffffffffffffffff\n      and\n      0xffffffffffffffffffffffffffffffffffffffff\n      and\n      dup2\n      mstore\n      0x20\n      add\n      swap1\n      dup2\n      mstore\n      0x20\n      add\n      0x00\n      keccak256\n        /* \"contracts/AuthService.sol\":1617:1641  users[msg.sender].status */\n      0x00\n      add\n      sload\n        /* \"contracts/AuthService.sol\":1606:1612  status */\n      dup2\n        /* \"contracts/AuthService.sol\":1601:1613  uint(status) */\n      0x05\n      dup2\n      gt\n      iszero\n      tag_248\n      jumpi\n      tag_249\n      tag_106\n      jump\t// in\n    tag_249:\n    tag_248:\n        /* \"contracts/AuthService.sol\":1601:1641  uint(status) == users[msg.sender].status */\n      eq\n        /* \"contracts/AuthService.sol\":1593:1654  require(uint(status) == users[msg.sender].status,\"Forbidden\") */\n      tag_250\n      jumpi\n      mload(0x40)\n      0x08c379a000000000000000000000000000000000000000000000000000000000\n      dup2\n      mstore\n      0x04\n      add\n      tag_251\n      swap1\n      tag_109\n      jump\t// in\n    tag_251:\n      mload(0x40)\n      dup1\n      swap2\n      sub\n      swap1\n      revert\n    tag_250:\n        /* \"contracts/Shops.sol\":2044:2060  Shop memory shop */\n      0x00\n        /* \"contracts/Shops.sol\":2063:2101  Shop({number:number,city:city,debt:0}) */\n      mload(0x40)\n      dup1\n      0x60\n      add\n      0x40\n      mstore\n      dup1\n        /* \"contracts/Shops.sol\":2076:2082  number */\n      dup7\n        /* \"contracts/Shops.sol\":2063:2101  Shop({number:number,city:city,debt:0}) */\n      dup2\n      mstore\n      0x20\n      add\n        /* \"contracts/Shops.sol\":2088:2092  city */\n      dup6\n        /* \"contracts/Shops.sol\":2063:2101  Shop({number:number,city:city,debt:0}) */\n      dup2\n      mstore\n      0x20\n      add\n        /* \"contracts/Shops.sol\":2098:2099  0 */\n      0x00\n        /* \"contracts/Shops.sol\":2063:2101  Shop({number:number,city:city,debt:0}) */\n      dup2\n      mstore\n      pop\n        /* \"contracts/Shops.sol\":2044:2101  Shop memory shop = Shop({number:number,city:city,debt:0}) */\n      swap1\n      pop\n        /* \"contracts/Shops.sol\":2133:2137  shop */\n      dup1\n        /* \"contracts/Shops.sol\":2111:2120  ShopsList */\n      0x0b\n        /* \"contracts/Shops.sol\":2111:2130  ShopsList[shopAddr] */\n      0x00\n        /* \"contracts/Shops.sol\":2121:2129  shopAddr */\n      dup9\n        /* \"contracts/Shops.sol\":2111:2130  ShopsList[shopAddr] */\n      0xffffffffffffffffffffffffffffffffffffffff\n      and\n      0xffffffffffffffffffffffffffffffffffffffff\n      and\n      dup2\n      mstore\n      0x20\n      add\n      swap1\n      dup2\n      mstore\n      0x20\n      add\n      0x00\n      keccak256\n        /* \"contracts/Shops.sol\":2111:2137  ShopsList[shopAddr] = shop */\n      0x00\n      dup3\n      add\n      mload\n      dup2\n      0x00\n      add\n      swap1\n      dup1\n      mload\n      swap1\n      0x20\n      add\n      swap1\n      tag_253\n      swap3\n      swap2\n      swap1\n      tag_163\n      jump\t// in\n    tag_253:\n      pop\n      0x20\n      dup3\n      add\n      mload\n      dup2\n      0x01\n      add\n      swap1\n      dup1\n      mload\n      swap1\n      0x20\n      add\n      swap1\n      tag_254\n      swap3\n      swap2\n      swap1\n      tag_163\n      jump\t// in\n    tag_254:\n      pop\n      0x40\n      dup3\n      add\n      mload\n      dup2\n      0x02\n      add\n      sstore\n      swap1\n      pop\n      pop\n        /* \"contracts/Shops.sol\":2147:2158  uint status */\n      0x00\n        /* \"contracts/Shops.sol\":2166:2180  UserRoles.shop */\n      0x02\n        /* \"contracts/Shops.sol\":2161:2181  uint(UserRoles.shop) */\n      0x05\n      dup2\n      gt\n      iszero\n      tag_255\n      jumpi\n      tag_256\n      tag_106\n      jump\t// in\n    tag_256:\n    tag_255:\n        /* \"contracts/Shops.sol\":2147:2181  uint status = uint(UserRoles.shop) */\n      swap1\n      pop\n        /* \"contracts/Shops.sol\":2191:2238  registerFromAdmin(\"\",shopLogin,status,shopAddr) */\n      tag_257\n      mload(0x40)\n      dup1\n      0x20\n      add\n      0x40\n      mstore\n      dup1\n      0x00\n      dup2\n      mstore\n      pop\n        /* \"contracts/Shops.sol\":2212:2221  shopLogin */\n      dup6\n        /* \"contracts/Shops.sol\":2222:2228  status */\n      dup4\n        /* \"contracts/Shops.sol\":2229:2237  shopAddr */\n      dup11\n        /* \"contracts/Shops.sol\":2191:2208  registerFromAdmin */\n      tag_148\n        /* \"contracts/Shops.sol\":2191:2238  registerFromAdmin(\"\",shopLogin,status,shopAddr) */\n      jump\t// in\n    tag_257:\n        /* \"contracts/Shops.sol\":2034:2245  {... */\n      pop\n      pop\n        /* \"contracts/Shops.sol\":1894:2245  function registerShop(address shopAddr,string memory number,string memory city,string memory shopLogin) public isUserStatus(UserRoles.admin){... */\n      pop\n      pop\n      pop\n      pop\n      pop\n      jump\t// out\n        /* \"contracts/Shops.sol\":6559:6792  function likeReview(string memory id) public isUser {... */\n    tag_60:\n        /* \"contracts/AuthService.sol\":1465:1504  compare(users[msg.sender].userLogin,\"\") */\n      tag_259\n        /* \"contracts/AuthService.sol\":1473:1478  users */\n      0x02\n        /* \"contracts/AuthService.sol\":1473:1490  users[msg.sender] */\n      0x00\n        /* \"contracts/AuthService.sol\":1479:1489  msg.sender */\n      caller\n        /* \"contracts/AuthService.sol\":1473:1490  users[msg.sender] */\n      0xffffffffffffffffffffffffffffffffffffffff\n      and\n      0xffffffffffffffffffffffffffffffffffffffff\n      and\n      dup2\n      mstore\n      0x20\n      add\n      swap1\n      dup2\n      mstore\n      0x20\n      add\n      0x00\n      keccak256\n        /* \"contracts/AuthService.sol\":1473:1500  users[msg.sender].userLogin */\n      0x01\n      add\n        /* \"contracts/AuthService.sol\":1465:1504  compare(users[msg.sender].userLogin,\"\") */\n      dup1\n      sload\n      tag_260\n      swap1\n      tag_112\n      jump\t// in\n    tag_260:\n      dup1\n      0x1f\n      add\n      0x20\n      dup1\n      swap2\n      div\n      mul\n      0x20\n      add\n      mload(0x40)\n      swap1\n      dup2\n      add\n      0x40\n      mstore\n      dup1\n      swap3\n      swap2\n      swap1\n      dup2\n      dup2\n      mstore\n      0x20\n      add\n      dup3\n      dup1\n      sload\n      tag_261\n      swap1\n      tag_112\n      jump\t// in\n    tag_261:\n      dup1\n      iszero\n      tag_262\n      jumpi\n      dup1\n      0x1f\n      lt\n      tag_263\n      jumpi\n      0x0100\n      dup1\n      dup4\n      sload\n      div\n      mul\n      dup4\n      mstore\n      swap2\n      0x20\n      add\n      swap2\n      jump(tag_262)\n    tag_263:\n      dup3\n      add\n      swap2\n      swap1\n      0x00\n      mstore\n      keccak256(0x00, 0x20)\n      swap1\n    tag_264:\n      dup2\n      sload\n      dup2\n      mstore\n      swap1\n      0x01\n      add\n      swap1\n      0x20\n      add\n      dup1\n      dup4\n      gt\n      tag_264\n      jumpi\n      dup3\n      swap1\n      sub\n      0x1f\n      and\n      dup3\n      add\n      swap2\n    tag_262:\n      pop\n      pop\n      pop\n      pop\n      pop\n      mload(0x40)\n      dup1\n      0x20\n      add\n      0x40\n      mstore\n      dup1\n      0x00\n      dup2\n      mstore\n      pop\n        /* \"contracts/AuthService.sol\":1465:1472  compare */\n      tag_156\n        /* \"contracts/AuthService.sol\":1465:1504  compare(users[msg.sender].userLogin,\"\") */\n      jump\t// in\n    tag_259:\n        /* \"contracts/AuthService.sol\":1464:1504  !compare(users[msg.sender].userLogin,\"\") */\n      iszero\n        /* \"contracts/AuthService.sol\":1456:1520  require(!compare(users[msg.sender].userLogin,\"\"),\"You not user\") */\n      tag_265\n      jumpi\n      mload(0x40)\n      0x08c379a000000000000000000000000000000000000000000000000000000000\n      dup2\n      mstore\n      0x04\n      add\n      tag_266\n      swap1\n      tag_159\n      jump\t// in\n    tag_266:\n      mload(0x40)\n      dup1\n      swap2\n      sub\n      swap1\n      revert\n    tag_265:\n        /* \"contracts/Shops.sol\":6658:6663  false */\n      0x00\n        /* \"contracts/Shops.sol\":6629:6663  reviewCom[id][msg.sender] == false */\n      iszero\n      iszero\n        /* \"contracts/Shops.sol\":6629:6638  reviewCom */\n      0x11\n        /* \"contracts/Shops.sol\":6639:6641  id */\n      dup3\n        /* \"contracts/Shops.sol\":6629:6642  reviewCom[id] */\n      mload(0x40)\n      tag_268\n      swap2\n      swap1\n      tag_167\n      jump\t// in\n    tag_268:\n      swap1\n      dup2\n      mstore\n      0x20\n      add\n      mload(0x40)\n      dup1\n      swap2\n      sub\n      swap1\n      keccak256\n        /* \"contracts/Shops.sol\":6629:6654  reviewCom[id][msg.sender] */\n      0x00\n        /* \"contracts/Shops.sol\":6643:6653  msg.sender */\n      caller\n        /* \"contracts/Shops.sol\":6629:6654  reviewCom[id][msg.sender] */\n      0xffffffffffffffffffffffffffffffffffffffff\n      and\n      0xffffffffffffffffffffffffffffffffffffffff\n      and\n      dup2\n      mstore\n      0x20\n      add\n      swap1\n      dup2\n      mstore\n      0x20\n      add\n      0x00\n      keccak256\n      0x00\n      swap1\n      sload\n      swap1\n      0x0100\n      exp\n      swap1\n      div\n      0xff\n      and\n        /* \"contracts/Shops.sol\":6629:6663  reviewCom[id][msg.sender] == false */\n      iszero\n      iszero\n      eq\n        /* \"contracts/Shops.sol\":6621:6694  require(reviewCom[id][msg.sender] == false,\"You already check this case\") */\n      tag_269\n      jumpi\n      mload(0x40)\n      0x08c379a000000000000000000000000000000000000000000000000000000000\n      dup2\n      mstore\n      0x04\n      add\n      tag_270\n      swap1\n      tag_271\n      jump\t// in\n    tag_270:\n      mload(0x40)\n      dup1\n      swap2\n      sub\n      swap1\n      revert\n    tag_269:\n        /* \"contracts/Shops.sol\":6704:6712  reviewId */\n      0x0f\n        /* \"contracts/Shops.sol\":6713:6715  id */\n      dup2\n        /* \"contracts/Shops.sol\":6704:6716  reviewId[id] */\n      mload(0x40)\n      tag_272\n      swap2\n      swap1\n      tag_167\n      jump\t// in\n    tag_272:\n      swap1\n      dup2\n      mstore\n      0x20\n      add\n      mload(0x40)\n      dup1\n      swap2\n      sub\n      swap1\n      keccak256\n        /* \"contracts/Shops.sol\":6704:6726  reviewId[id].likeCount */\n      0x03\n      add\n        /* \"contracts/Shops.sol\":6732:6742  msg.sender */\n      caller\n        /* \"contracts/Shops.sol\":6704:6743  reviewId[id].likeCount.push(msg.sender) */\n      swap1\n      dup1\n      0x01\n      dup2\n      sload\n      add\n      dup1\n      dup3\n      sstore\n      dup1\n      swap2\n      pop\n      pop\n      0x01\n      swap1\n      sub\n      swap1\n      0x00\n      mstore\n      keccak256(0x00, 0x20)\n      add\n      0x00\n      swap1\n      swap2\n      swap1\n      swap2\n      swap1\n      swap2\n      0x0100\n      exp\n      dup2\n      sload\n      dup2\n      0xffffffffffffffffffffffffffffffffffffffff\n      mul\n      not\n      and\n      swap1\n      dup4\n      0xffffffffffffffffffffffffffffffffffffffff\n      and\n      mul\n      or\n      swap1\n      sstore\n      pop\n        /* \"contracts/Shops.sol\":6781:6785  true */\n      0x01\n        /* \"contracts/Shops.sol\":6753:6762  reviewCom */\n      0x11\n        /* \"contracts/Shops.sol\":6763:6765  id */\n      dup3\n        /* \"contracts/Shops.sol\":6753:6766  reviewCom[id] */\n      mload(0x40)\n      tag_274\n      swap2\n      swap1\n      tag_167\n      jump\t// in\n    tag_274:\n      swap1\n      dup2\n      mstore\n      0x20\n      add\n      mload(0x40)\n      dup1\n      swap2\n      sub\n      swap1\n      keccak256\n        /* \"contracts/Shops.sol\":6753:6778  reviewCom[id][msg.sender] */\n      0x00\n        /* \"contracts/Shops.sol\":6767:6777  msg.sender */\n      caller\n        /* \"contracts/Shops.sol\":6753:6778  reviewCom[id][msg.sender] */\n      0xffffffffffffffffffffffffffffffffffffffff\n      and\n      0xffffffffffffffffffffffffffffffffffffffff\n      and\n      dup2\n      mstore\n      0x20\n      add\n      swap1\n      dup2\n      mstore\n      0x20\n      add\n      0x00\n      keccak256\n      0x00\n        /* \"contracts/Shops.sol\":6753:6785  reviewCom[id][msg.sender] = true */\n      0x0100\n      exp\n      dup2\n      sload\n      dup2\n      0xff\n      mul\n      not\n      and\n      swap1\n      dup4\n      iszero\n      iszero\n      mul\n      or\n      swap1\n      sstore\n      pop\n        /* \"contracts/Shops.sol\":6559:6792  function likeReview(string memory id) public isUser {... */\n      pop\n      jump\t// out\n        /* \"contracts/Shops.sol\":2345:2589  function registerProvider(string memory providerLogin,address providerAddr) public isAdmin {... */\n    tag_63:\n        /* \"contracts/Shops.sol\":1101:1106  admin */\n      0x05\n      0x00\n      swap1\n      sload\n      swap1\n      0x0100\n      exp\n      swap1\n      div\n      0xffffffffffffffffffffffffffffffffffffffff\n      and\n        /* \"contracts/Shops.sol\":1087:1106  msg.sender == admin */\n      0xffffffffffffffffffffffffffffffffffffffff\n      and\n        /* \"contracts/Shops.sol\":1087:1097  msg.sender */\n      caller\n        /* \"contracts/Shops.sol\":1087:1106  msg.sender == admin */\n      0xffffffffffffffffffffffffffffffffffffffff\n      and\n      eq\n        /* \"contracts/Shops.sol\":1079:1123  require(msg.sender == admin,\"You not admin\") */\n      tag_276\n      jumpi\n      mload(0x40)\n      0x08c379a000000000000000000000000000000000000000000000000000000000\n      dup2\n      mstore\n      0x04\n      add\n      tag_277\n      swap1\n      tag_143\n      jump\t// in\n    tag_277:\n      mload(0x40)\n      dup1\n      swap2\n      sub\n      swap1\n      revert\n    tag_276:\n        /* \"contracts/Shops.sol\":2446:2457  uint status */\n      0x00\n        /* \"contracts/Shops.sol\":2465:2483  UserRoles.provider */\n      0x04\n        /* \"contracts/Shops.sol\":2460:2484  uint(UserRoles.provider) */\n      0x05\n      dup2\n      gt\n      iszero\n      tag_279\n      jumpi\n      tag_280\n      tag_106\n      jump\t// in\n    tag_280:\n    tag_279:\n        /* \"contracts/Shops.sol\":2446:2484  uint status = uint(UserRoles.provider) */\n      swap1\n      pop\n        /* \"contracts/Shops.sol\":2494:2549  registerFromAdmin(\"\",providerLogin,status,providerAddr) */\n      tag_281\n      mload(0x40)\n      dup1\n      0x20\n      add\n      0x40\n      mstore\n      dup1\n      0x00\n      dup2\n      mstore\n      pop\n        /* \"contracts/Shops.sol\":2515:2528  providerLogin */\n      dup5\n        /* \"contracts/Shops.sol\":2529:2535  status */\n      dup4\n        /* \"contracts/Shops.sol\":2536:2548  providerAddr */\n      dup6\n        /* \"contracts/Shops.sol\":2494:2511  registerFromAdmin */\n      tag_148\n        /* \"contracts/Shops.sol\":2494:2549  registerFromAdmin(\"\",providerLogin,status,providerAddr) */\n      jump\t// in\n    tag_281:\n        /* \"contracts/Shops.sol\":2570:2582  providerAddr */\n      dup2\n        /* \"contracts/Shops.sol\":2559:2567  provider */\n      0x04\n      0x00\n        /* \"contracts/Shops.sol\":2559:2582  provider = providerAddr */\n      0x0100\n      exp\n      dup2\n      sload\n      dup2\n      0xffffffffffffffffffffffffffffffffffffffff\n      mul\n      not\n      and\n      swap1\n      dup4\n      0xffffffffffffffffffffffffffffffffffffffff\n      and\n      mul\n      or\n      swap1\n      sstore\n      pop\n        /* \"contracts/Shops.sol\":2436:2589  {... */\n      pop\n        /* \"contracts/Shops.sol\":2345:2589  function registerProvider(string memory providerLogin,address providerAddr) public isAdmin {... */\n      pop\n      pop\n      jump\t// out\n        /* \"contracts/Shops.sol\":3581:3784  function doShopDebt(address payable shopAddr) public isUserStatus(UserRoles.bank) {... */\n    tag_67:\n        /* \"contracts/Shops.sol\":3647:3661  UserRoles.bank */\n      0x05\n        /* \"contracts/AuthService.sol\":1617:1622  users */\n      0x02\n        /* \"contracts/AuthService.sol\":1617:1634  users[msg.sender] */\n      0x00\n        /* \"contracts/AuthService.sol\":1623:1633  msg.sender */\n      caller\n        /* \"contracts/AuthService.sol\":1617:1634  users[msg.sender] */\n      0xffffffffffffffffffffffffffffffffffffffff\n      and\n      0xffffffffffffffffffffffffffffffffffffffff\n      and\n      dup2\n      mstore\n      0x20\n      add\n      swap1\n      dup2\n      mstore\n      0x20\n      add\n      0x00\n      keccak256\n        /* \"contracts/AuthService.sol\":1617:1641  users[msg.sender].status */\n      0x00\n      add\n      sload\n        /* \"contracts/AuthService.sol\":1606:1612  status */\n      dup2\n        /* \"contracts/AuthService.sol\":1601:1613  uint(status) */\n      0x05\n      dup2\n      gt\n      iszero\n      tag_283\n      jumpi\n      tag_284\n      tag_106\n      jump\t// in\n    tag_284:\n    tag_283:\n        /* \"contracts/AuthService.sol\":1601:1641  uint(status) == users[msg.sender].status */\n      eq\n        /* \"contracts/AuthService.sol\":1593:1654  require(uint(status) == users[msg.sender].status,\"Forbidden\") */\n      tag_285\n      jumpi\n      mload(0x40)\n      0x08c379a000000000000000000000000000000000000000000000000000000000\n      dup2\n      mstore\n      0x04\n      add\n      tag_286\n      swap1\n      tag_109\n      jump\t// in\n    tag_286:\n      mload(0x40)\n      dup1\n      swap2\n      sub\n      swap1\n      revert\n    tag_285:\n        /* \"contracts/Shops.sol\":3712:3722  1000 ether */\n      0x3635c9adc5dea00000\n        /* \"contracts/Shops.sol\":3689:3699  msg.sender */\n      caller\n        /* \"contracts/Shops.sol\":3681:3708  payable(msg.sender).balance */\n      0xffffffffffffffffffffffffffffffffffffffff\n      and\n      balance\n        /* \"contracts/Shops.sol\":3681:3722  payable(msg.sender).balance >= 1000 ether */\n      lt\n      iszero\n        /* \"contracts/Shops.sol\":3673:3737  require(payable(msg.sender).balance >= 1000 ether,\"Low balance\") */\n      tag_288\n      jumpi\n      mload(0x40)\n      0x08c379a000000000000000000000000000000000000000000000000000000000\n      dup2\n      mstore\n      0x04\n      add\n      tag_289\n      swap1\n      tag_290\n      jump\t// in\n    tag_289:\n      mload(0x40)\n      dup1\n      swap2\n      sub\n      swap1\n      revert\n    tag_288:\n        /* \"contracts/Shops.sol\":3747:3755  shopAddr */\n      dup2\n        /* \"contracts/Shops.sol\":3747:3764  shopAddr.transfer */\n      0xffffffffffffffffffffffffffffffffffffffff\n      and\n        /* \"contracts/Shops.sol\":3747:3776  shopAddr.transfer(1000 ether) */\n      0x08fc\n        /* \"contracts/Shops.sol\":3765:3775  1000 ether */\n      0x3635c9adc5dea00000\n        /* \"contracts/Shops.sol\":3747:3776  shopAddr.transfer(1000 ether) */\n      swap1\n      dup2\n      iszero\n      mul\n      swap1\n      mload(0x40)\n      0x00\n      mload(0x40)\n      dup1\n      dup4\n      sub\n      dup2\n      dup6\n      dup9\n      dup9\n      call\n      swap4\n      pop\n      pop\n      pop\n      pop\n      iszero\n      dup1\n      iszero\n      tag_292\n      jumpi\n      returndatasize\n      0x00\n      dup1\n      returndatacopy\n      revert(0x00, returndatasize)\n    tag_292:\n      pop\n        /* \"contracts/Shops.sol\":3581:3784  function doShopDebt(address payable shopAddr) public isUserStatus(UserRoles.bank) {... */\n      pop\n      pop\n      jump\t// out\n        /* \"contracts/Shops.sol\":2914:3220  function registerSeller(string memory fio,string memory userLogin,address userAddress,address shopAddr) public {... */\n    tag_71:\n        /* \"contracts/Shops.sol\":3035:3046  uint status */\n      0x00\n        /* \"contracts/Shops.sol\":3054:3070  UserRoles.seller */\n      0x01\n        /* \"contracts/Shops.sol\":3049:3071  uint(UserRoles.seller) */\n      0x05\n      dup2\n      gt\n      iszero\n      tag_294\n      jumpi\n      tag_295\n      tag_106\n      jump\t// in\n    tag_295:\n    tag_294:\n        /* \"contracts/Shops.sol\":3035:3071  uint status = uint(UserRoles.seller) */\n      swap1\n      pop\n        /* \"contracts/Shops.sol\":3081:3132  registerFromAdmin(fio,userLogin,status,userAddress) */\n      tag_296\n        /* \"contracts/Shops.sol\":3099:3102  fio */\n      dup6\n        /* \"contracts/Shops.sol\":3103:3112  userLogin */\n      dup6\n        /* \"contracts/Shops.sol\":3113:3119  status */\n      dup4\n        /* \"contracts/Shops.sol\":3120:3131  userAddress */\n      dup7\n        /* \"contracts/Shops.sol\":3081:3098  registerFromAdmin */\n      tag_148\n        /* \"contracts/Shops.sol\":3081:3132  registerFromAdmin(fio,userLogin,status,userAddress) */\n      jump\t// in\n    tag_296:\n        /* \"contracts/Shops.sol\":3142:3149  sellers */\n      0x08\n        /* \"contracts/Shops.sol\":3155:3166  userAddress */\n      dup4\n        /* \"contracts/Shops.sol\":3142:3167  sellers.push(userAddress) */\n      swap1\n      dup1\n      0x01\n      dup2\n      sload\n      add\n      dup1\n      dup3\n      sstore\n      dup1\n      swap2\n      pop\n      pop\n      0x01\n      swap1\n      sub\n      swap1\n      0x00\n      mstore\n      keccak256(0x00, 0x20)\n      add\n      0x00\n      swap1\n      swap2\n      swap1\n      swap2\n      swap1\n      swap2\n      0x0100\n      exp\n      dup2\n      sload\n      dup2\n      0xffffffffffffffffffffffffffffffffffffffff\n      mul\n      not\n      and\n      swap1\n      dup4\n      0xffffffffffffffffffffffffffffffffffffffff\n      and\n      mul\n      or\n      swap1\n      sstore\n      pop\n        /* \"contracts/Shops.sol\":3177:3185  salesmen */\n      0x0d\n        /* \"contracts/Shops.sol\":3177:3195  salesmen[shopAddr] */\n      0x00\n        /* \"contracts/Shops.sol\":3186:3194  shopAddr */\n      dup4\n        /* \"contracts/Shops.sol\":3177:3195  salesmen[shopAddr] */\n      0xffffffffffffffffffffffffffffffffffffffff\n      and\n      0xffffffffffffffffffffffffffffffffffffffff\n      and\n      dup2\n      mstore\n      0x20\n      add\n      swap1\n      dup2\n      mstore\n      0x20\n      add\n      0x00\n      keccak256\n        /* \"contracts/Shops.sol\":3201:3212  userAddress */\n      dup4\n        /* \"contracts/Shops.sol\":3177:3213  salesmen[shopAddr].push(userAddress) */\n      swap1\n      dup1\n      0x01\n      dup2\n      sload\n      add\n      dup1\n      dup3\n      sstore\n      dup1\n      swap2\n      pop\n      pop\n      0x01\n      swap1\n      sub\n      swap1\n      0x00\n      mstore\n      keccak256(0x00, 0x20)\n      add\n      0x00\n      swap1\n      swap2\n      swap1\n      swap2\n      swap1\n      swap2\n      0x0100\n      exp\n      dup2\n      sload\n      dup2\n      0xffffffffffffffffffffffffffffffffffffffff\n      mul\n      not\n      and\n      swap1\n      dup4\n      0xffffffffffffffffffffffffffffffffffffffff\n      and\n      mul\n      or\n      swap1\n      sstore\n      pop\n        /* \"contracts/Shops.sol\":3025:3220  {... */\n      pop\n        /* \"contracts/Shops.sol\":2914:3220  function registerSeller(string memory fio,string memory userLogin,address userAddress,address shopAddr) public {... */\n      pop\n      pop\n      pop\n      pop\n      jump\t// out\n        /* \"contracts/Shops.sol\":7965:8047  function downRequestToByer() public isUserStatus(UserRoles.seller){... */\n    tag_73:\n        /* \"contracts/Shops.sol\":8014:8030  UserRoles.seller */\n      0x01\n        /* \"contracts/AuthService.sol\":1617:1622  users */\n      0x02\n        /* \"contracts/AuthService.sol\":1617:1634  users[msg.sender] */\n      0x00\n        /* \"contracts/AuthService.sol\":1623:1633  msg.sender */\n      caller\n        /* \"contracts/AuthService.sol\":1617:1634  users[msg.sender] */\n      0xffffffffffffffffffffffffffffffffffffffff\n      and\n      0xffffffffffffffffffffffffffffffffffffffff\n      and\n      dup2\n      mstore\n      0x20\n      add\n      swap1\n      dup2\n      mstore\n      0x20\n      add\n      0x00\n      keccak256\n        /* \"contracts/AuthService.sol\":1617:1641  users[msg.sender].status */\n      0x00\n      add\n      sload\n        /* \"contracts/AuthService.sol\":1606:1612  status */\n      dup2\n        /* \"contracts/AuthService.sol\":1601:1613  uint(status) */\n      0x05\n      dup2\n      gt\n      iszero\n      tag_300\n      jumpi\n      tag_301\n      tag_106\n      jump\t// in\n    tag_301:\n    tag_300:\n        /* \"contracts/AuthService.sol\":1601:1641  uint(status) == users[msg.sender].status */\n      eq\n        /* \"contracts/AuthService.sol\":1593:1654  require(uint(status) == users[msg.sender].status,\"Forbidden\") */\n      tag_302\n      jumpi\n      mload(0x40)\n      0x08c379a000000000000000000000000000000000000000000000000000000000\n      dup2\n      mstore\n      0x04\n      add\n      tag_303\n      swap1\n      tag_109\n      jump\t// in\n    tag_303:\n      mload(0x40)\n      dup1\n      swap2\n      sub\n      swap1\n      revert\n    tag_302:\n        /* \"contracts/Shops.sol\":7965:8047  function downRequestToByer() public isUserStatus(UserRoles.seller){... */\n      pop\n      jump\t// out\n        /* \"contracts/Shops.sol\":4550:4914  function getBuyerInfo() public view isUser returns(... */\n    tag_75:\n        /* \"contracts/Shops.sol\":4610:4633  string memory userLogin */\n      0x60\n        /* \"contracts/Shops.sol\":4643:4660  string memory fio */\n      dup1\n        /* \"contracts/Shops.sol\":4670:4682  uint balance */\n      0x00\n        /* \"contracts/Shops.sol\":4692:4715  string[] memory reviews */\n      0x60\n        /* \"contracts/AuthService.sol\":1465:1504  compare(users[msg.sender].userLogin,\"\") */\n      tag_306\n        /* \"contracts/AuthService.sol\":1473:1478  users */\n      0x02\n        /* \"contracts/AuthService.sol\":1473:1490  users[msg.sender] */\n      0x00\n        /* \"contracts/AuthService.sol\":1479:1489  msg.sender */\n      caller\n        /* \"contracts/AuthService.sol\":1473:1490  users[msg.sender] */\n      0xffffffffffffffffffffffffffffffffffffffff\n      and\n      0xffffffffffffffffffffffffffffffffffffffff\n      and\n      dup2\n      mstore\n      0x20\n      add\n      swap1\n      dup2\n      mstore\n      0x20\n      add\n      0x00\n      keccak256\n        /* \"contracts/AuthService.sol\":1473:1500  users[msg.sender].userLogin */\n      0x01\n      add\n        /* \"contracts/AuthService.sol\":1465:1504  compare(users[msg.sender].userLogin,\"\") */\n      dup1\n      sload\n      tag_307\n      swap1\n      tag_112\n      jump\t// in\n    tag_307:\n      dup1\n      0x1f\n      add\n      0x20\n      dup1\n      swap2\n      div\n      mul\n      0x20\n      add\n      mload(0x40)\n      swap1\n      dup2\n      add\n      0x40\n      mstore\n      dup1\n      swap3\n      swap2\n      swap1\n      dup2\n      dup2\n      mstore\n      0x20\n      add\n      dup3\n      dup1\n      sload\n      tag_308\n      swap1\n      tag_112\n      jump\t// in\n    tag_308:\n      dup1\n      iszero\n      tag_309\n      jumpi\n      dup1\n      0x1f\n      lt\n      tag_310\n      jumpi\n      0x0100\n      dup1\n      dup4\n      sload\n      div\n      mul\n      dup4\n      mstore\n      swap2\n      0x20\n      add\n      swap2\n      jump(tag_309)\n    tag_310:\n      dup3\n      add\n      swap2\n      swap1\n      0x00\n      mstore\n      keccak256(0x00, 0x20)\n      swap1\n    tag_311:\n      dup2\n      sload\n      dup2\n      mstore\n      swap1\n      0x01\n      add\n      swap1\n      0x20\n      add\n      dup1\n      dup4\n      gt\n      tag_311\n      jumpi\n      dup3\n      swap1\n      sub\n      0x1f\n      and\n      dup3\n      add\n      swap2\n    tag_309:\n      pop\n      pop\n      pop\n      pop\n      pop\n      mload(0x40)\n      dup1\n      0x20\n      add\n      0x40\n      mstore\n      dup1\n      0x00\n      dup2\n      mstore\n      pop\n        /* \"contracts/AuthService.sol\":1465:1472  compare */\n      tag_156\n        /* \"contracts/AuthService.sol\":1465:1504  compare(users[msg.sender].userLogin,\"\") */\n      jump\t// in\n    tag_306:\n        /* \"contracts/AuthService.sol\":1464:1504  !compare(users[msg.sender].userLogin,\"\") */\n      iszero\n        /* \"contracts/AuthService.sol\":1456:1520  require(!compare(users[msg.sender].userLogin,\"\"),\"You not user\") */\n      tag_312\n      jumpi\n      mload(0x40)\n      0x08c379a000000000000000000000000000000000000000000000000000000000\n      dup2\n      mstore\n      0x04\n      add\n      tag_313\n      swap1\n      tag_159\n      jump\t// in\n    tag_313:\n      mload(0x40)\n      dup1\n      swap2\n      sub\n      swap1\n      revert\n    tag_312:\n        /* \"contracts/Shops.sol\":4731:4747  User memory user */\n      0x00\n        /* \"contracts/Shops.sol\":4750:4755  users */\n      0x02\n        /* \"contracts/Shops.sol\":4750:4767  users[msg.sender] */\n      0x00\n        /* \"contracts/Shops.sol\":4756:4766  msg.sender */\n      caller\n        /* \"contracts/Shops.sol\":4750:4767  users[msg.sender] */\n      0xffffffffffffffffffffffffffffffffffffffff\n      and\n      0xffffffffffffffffffffffffffffffffffffffff\n      and\n      dup2\n      mstore\n      0x20\n      add\n      swap1\n      dup2\n      mstore\n      0x20\n      add\n      0x00\n      keccak256\n        /* \"contracts/Shops.sol\":4731:4767  User memory user = users[msg.sender] */\n      mload(0x40)\n      dup1\n      0x80\n      add\n      0x40\n      mstore\n      swap1\n      dup2\n      0x00\n      dup3\n      add\n      sload\n      dup2\n      mstore\n      0x20\n      add\n      0x01\n      dup3\n      add\n      dup1\n      sload\n      tag_315\n      swap1\n      tag_112\n      jump\t// in\n    tag_315:\n      dup1\n      0x1f\n      add\n      0x20\n      dup1\n      swap2\n      div\n      mul\n      0x20\n      add\n      mload(0x40)\n      swap1\n      dup2\n      add\n      0x40\n      mstore\n      dup1\n      swap3\n      swap2\n      swap1\n      dup2\n      dup2\n      mstore\n      0x20\n      add\n      dup3\n      dup1\n      sload\n      tag_316\n      swap1\n      tag_112\n      jump\t// in\n    tag_316:\n      dup1\n      iszero\n      tag_317\n      jumpi\n      dup1\n      0x1f\n      lt\n      tag_318\n      jumpi\n      0x0100\n      dup1\n      dup4\n      sload\n      div\n      mul\n      dup4\n      mstore\n      swap2\n      0x20\n      add\n      swap2\n      jump(tag_317)\n    tag_318:\n      dup3\n      add\n      swap2\n      swap1\n      0x00\n      mstore\n      keccak256(0x00, 0x20)\n      swap1\n    tag_319:\n      dup2\n      sload\n      dup2\n      mstore\n      swap1\n      0x01\n      add\n      swap1\n      0x20\n      add\n      dup1\n      dup4\n      gt\n      tag_319\n      jumpi\n      dup3\n      swap1\n      sub\n      0x1f\n      and\n      dup3\n      add\n      swap2\n    tag_317:\n      pop\n      pop\n      pop\n      pop\n      pop\n      dup2\n      mstore\n      0x20\n      add\n      0x02\n      dup3\n      add\n      dup1\n      sload\n      tag_320\n      swap1\n      tag_112\n      jump\t// in\n    tag_320:\n      dup1\n      0x1f\n      add\n      0x20\n      dup1\n      swap2\n      div\n      mul\n      0x20\n      add\n      mload(0x40)\n      swap1\n      dup2\n      add\n      0x40\n      mstore\n      dup1\n      swap3\n      swap2\n      swap1\n      dup2\n      dup2\n      mstore\n      0x20\n      add\n      dup3\n      dup1\n      sload\n      tag_321\n      swap1\n      tag_112\n      jump\t// in\n    tag_321:\n      dup1\n      iszero\n      tag_322\n      jumpi\n      dup1\n      0x1f\n      lt\n      tag_323\n      jumpi\n      0x0100\n      dup1\n      dup4\n      sload\n      div\n      mul\n      dup4\n      mstore\n      swap2\n      0x20\n      add\n      swap2\n      jump(tag_322)\n    tag_323:\n      dup3\n      add\n      swap2\n      swap1\n      0x00\n      mstore\n      keccak256(0x00, 0x20)\n      swap1\n    tag_324:\n      dup2\n      sload\n      dup2\n      mstore\n      swap1\n      0x01\n      add\n      swap1\n      0x20\n      add\n      dup1\n      dup4\n      gt\n      tag_324\n      jumpi\n      dup3\n      swap1\n      sub\n      0x1f\n      and\n      dup3\n      add\n      swap2\n    tag_322:\n      pop\n      pop\n      pop\n      pop\n      pop\n      dup2\n      mstore\n      0x20\n      add\n      0x03\n      dup3\n      add\n      dup1\n      sload\n      dup1\n      0x20\n      mul\n      0x20\n      add\n      mload(0x40)\n      swap1\n      dup2\n      add\n      0x40\n      mstore\n      dup1\n      swap3\n      swap2\n      swap1\n      dup2\n      dup2\n      mstore\n      0x20\n      add\n      0x00\n      swap1\n    tag_325:\n      dup3\n      dup3\n      lt\n      iszero\n      tag_326\n      jumpi\n      dup4\n      dup3\n      swap1\n      0x00\n      mstore\n      keccak256(0x00, 0x20)\n      add\n      dup1\n      sload\n      tag_328\n      swap1\n      tag_112\n      jump\t// in\n    tag_328:\n      dup1\n      0x1f\n      add\n      0x20\n      dup1\n      swap2\n      div\n      mul\n      0x20\n      add\n      mload(0x40)\n      swap1\n      dup2\n      add\n      0x40\n      mstore\n      dup1\n      swap3\n      swap2\n      swap1\n      dup2\n      dup2\n      mstore\n      0x20\n      add\n      dup3\n      dup1\n      sload\n      tag_329\n      swap1\n      tag_112\n      jump\t// in\n    tag_329:\n      dup1\n      iszero\n      tag_330\n      jumpi\n      dup1\n      0x1f\n      lt\n      tag_331\n      jumpi\n      0x0100\n      dup1\n      dup4\n      sload\n      div\n      mul\n      dup4\n      mstore\n      swap2\n      0x20\n      add\n      swap2\n      jump(tag_330)\n    tag_331:\n      dup3\n      add\n      swap2\n      swap1\n      0x00\n      mstore\n      keccak256(0x00, 0x20)\n      swap1\n    tag_332:\n      dup2\n      sload\n      dup2\n      mstore\n      swap1\n      0x01\n      add\n      swap1\n      0x20\n      add\n      dup1\n      dup4\n      gt\n      tag_332\n      jumpi\n      dup3\n      swap1\n      sub\n      0x1f\n      and\n      dup3\n      add\n      swap2\n    tag_330:\n      pop\n      pop\n      pop\n      pop\n      pop\n      dup2\n      mstore\n      0x20\n      add\n      swap1\n      0x01\n      add\n      swap1\n      jump(tag_325)\n    tag_326:\n      pop\n      pop\n      pop\n      pop\n      dup2\n      mstore\n      pop\n      pop\n      swap1\n      pop\n        /* \"contracts/Shops.sol\":4790:4794  user */\n      dup1\n        /* \"contracts/Shops.sol\":4790:4804  user.userLogin */\n      0x20\n      add\n      mload\n        /* \"contracts/Shops.sol\":4778:4804  userLogin = user.userLogin */\n      swap5\n      pop\n        /* \"contracts/Shops.sol\":4820:4824  user */\n      dup1\n        /* \"contracts/Shops.sol\":4820:4828  user.fio */\n      0x40\n      add\n      mload\n        /* \"contracts/Shops.sol\":4814:4828  fio = user.fio */\n      swap4\n      pop\n        /* \"contracts/Shops.sol\":4856:4866  msg.sender */\n      caller\n        /* \"contracts/Shops.sol\":4848:4875  payable(msg.sender).balance */\n      0xffffffffffffffffffffffffffffffffffffffff\n      and\n      balance\n        /* \"contracts/Shops.sol\":4838:4875  balance = payable(msg.sender).balance */\n      swap3\n      pop\n        /* \"contracts/Shops.sol\":4895:4899  user */\n      dup1\n        /* \"contracts/Shops.sol\":4895:4907  user.reviews */\n      0x60\n      add\n      mload\n        /* \"contracts/Shops.sol\":4885:4907  reviews = user.reviews */\n      swap2\n      pop\n        /* \"contracts/Shops.sol\":4721:4914  {... */\n      pop\n        /* \"contracts/Shops.sol\":4550:4914  function getBuyerInfo() public view isUser returns(... */\n      swap1\n      swap2\n      swap3\n      swap4\n      jump\t// out\n        /* \"contracts/Shops.sol\":3287:3486  function registerBuyer(string memory fio,string memory userLogin,address userAddr) public{... */\n    tag_81:\n        /* \"contracts/Shops.sol\":3386:3397  uint status */\n      0x00\n        /* \"contracts/Shops.sol\":3405:3420  UserRoles.buyer */\n      dup1\n        /* \"contracts/Shops.sol\":3400:3421  uint(UserRoles.buyer) */\n      0x05\n      dup2\n      gt\n      iszero\n      tag_334\n      jumpi\n      tag_335\n      tag_106\n      jump\t// in\n    tag_335:\n    tag_334:\n        /* \"contracts/Shops.sol\":3386:3421  uint status = uint(UserRoles.buyer) */\n      swap1\n      pop\n        /* \"contracts/Shops.sol\":3431:3479  registerFromAdmin(fio,userLogin,status,userAddr) */\n      tag_336\n        /* \"contracts/Shops.sol\":3449:3452  fio */\n      dup5\n        /* \"contracts/Shops.sol\":3453:3462  userLogin */\n      dup5\n        /* \"contracts/Shops.sol\":3463:3469  status */\n      dup4\n        /* \"contracts/Shops.sol\":3470:3478  userAddr */\n      dup6\n        /* \"contracts/Shops.sol\":3431:3448  registerFromAdmin */\n      tag_148\n        /* \"contracts/Shops.sol\":3431:3479  registerFromAdmin(fio,userLogin,status,userAddr) */\n      jump\t// in\n    tag_336:\n        /* \"contracts/Shops.sol\":3376:3486  {... */\n      pop\n        /* \"contracts/Shops.sol\":3287:3486  function registerBuyer(string memory fio,string memory userLogin,address userAddr) public{... */\n      pop\n      pop\n      pop\n      jump\t// out\n        /* \"contracts/Shops.sol\":1575:1833  function regAdmin(address adminAddr,string memory fio,string memory userLogin) public isUserStatus(UserRoles.admin){... */\n    tag_85:\n        /* \"contracts/Shops.sol\":1674:1689  UserRoles.admin */\n      0x03\n        /* \"contracts/AuthService.sol\":1617:1622  users */\n      0x02\n        /* \"contracts/AuthService.sol\":1617:1634  users[msg.sender] */\n      0x00\n        /* \"contracts/AuthService.sol\":1623:1633  msg.sender */\n      caller\n        /* \"contracts/AuthService.sol\":1617:1634  users[msg.sender] */\n      0xffffffffffffffffffffffffffffffffffffffff\n      and\n      0xffffffffffffffffffffffffffffffffffffffff\n      and\n      dup2\n      mstore\n      0x20\n      add\n      swap1\n      dup2\n      mstore\n      0x20\n      add\n      0x00\n      keccak256\n        /* \"contracts/AuthService.sol\":1617:1641  users[msg.sender].status */\n      0x00\n      add\n      sload\n        /* \"contracts/AuthService.sol\":1606:1612  status */\n      dup2\n        /* \"contracts/AuthService.sol\":1601:1613  uint(status) */\n      0x05\n      dup2\n      gt\n      iszero\n      tag_338\n      jumpi\n      tag_339\n      tag_106\n      jump\t// in\n    tag_339:\n    tag_338:\n        /* \"contracts/AuthService.sol\":1601:1641  uint(status) == users[msg.sender].status */\n      eq\n        /* \"contracts/AuthService.sol\":1593:1654  require(uint(status) == users[msg.sender].status,\"Forbidden\") */\n      tag_340\n      jumpi\n      mload(0x40)\n      0x08c379a000000000000000000000000000000000000000000000000000000000\n      dup2\n      mstore\n      0x04\n      add\n      tag_341\n      swap1\n      tag_109\n      jump\t// in\n    tag_341:\n      mload(0x40)\n      dup1\n      swap2\n      sub\n      swap1\n      revert\n    tag_340:\n        /* \"contracts/Shops.sol\":1700:1711  uint status */\n      0x00\n        /* \"contracts/Shops.sol\":1719:1734  UserRoles.admin */\n      0x03\n        /* \"contracts/Shops.sol\":1714:1735  uint(UserRoles.admin) */\n      0x05\n      dup2\n      gt\n      iszero\n      tag_343\n      jumpi\n      tag_344\n      tag_106\n      jump\t// in\n    tag_344:\n    tag_343:\n        /* \"contracts/Shops.sol\":1700:1735  uint status = uint(UserRoles.admin) */\n      swap1\n      pop\n        /* \"contracts/Shops.sol\":1745:1794  registerFromAdmin(fio,userLogin,status,adminAddr) */\n      tag_345\n        /* \"contracts/Shops.sol\":1763:1766  fio */\n      dup5\n        /* \"contracts/Shops.sol\":1767:1776  userLogin */\n      dup5\n        /* \"contracts/Shops.sol\":1777:1783  status */\n      dup4\n        /* \"contracts/Shops.sol\":1784:1793  adminAddr */\n      dup9\n        /* \"contracts/Shops.sol\":1745:1762  registerFromAdmin */\n      tag_148\n        /* \"contracts/Shops.sol\":1745:1794  registerFromAdmin(fio,userLogin,status,adminAddr) */\n      jump\t// in\n    tag_345:\n        /* \"contracts/Shops.sol\":1804:1810  admins */\n      0x06\n        /* \"contracts/Shops.sol\":1816:1825  userLogin */\n      dup4\n        /* \"contracts/Shops.sol\":1804:1826  admins.push(userLogin) */\n      swap1\n      dup1\n      0x01\n      dup2\n      sload\n      add\n      dup1\n      dup3\n      sstore\n      dup1\n      swap2\n      pop\n      pop\n      0x01\n      swap1\n      sub\n      swap1\n      0x00\n      mstore\n      keccak256(0x00, 0x20)\n      add\n      0x00\n      swap1\n      swap2\n      swap1\n      swap2\n      swap1\n      swap2\n      pop\n      swap1\n      dup1\n      mload\n      swap1\n      0x20\n      add\n      swap1\n      tag_347\n      swap3\n      swap2\n      swap1\n      tag_163\n      jump\t// in\n    tag_347:\n      pop\n        /* \"contracts/Shops.sol\":1690:1833  {... */\n      pop\n        /* \"contracts/Shops.sol\":1575:1833  function regAdmin(address adminAddr,string memory fio,string memory userLogin) public isUserStatus(UserRoles.admin){... */\n      pop\n      pop\n      pop\n      pop\n      jump\t// out\n        /* \"contracts/Shops.sol\":7535:7959  function requestToSeller(string memory id) public isUserStatus(UserRoles.buyer){... */\n    tag_88:\n        /* \"contracts/Shops.sol\":7598:7613  UserRoles.buyer */\n      0x00\n        /* \"contracts/AuthService.sol\":1617:1622  users */\n      0x02\n        /* \"contracts/AuthService.sol\":1617:1634  users[msg.sender] */\n      0x00\n        /* \"contracts/AuthService.sol\":1623:1633  msg.sender */\n      caller\n        /* \"contracts/AuthService.sol\":1617:1634  users[msg.sender] */\n      0xffffffffffffffffffffffffffffffffffffffff\n      and\n      0xffffffffffffffffffffffffffffffffffffffff\n      and\n      dup2\n      mstore\n      0x20\n      add\n      swap1\n      dup2\n      mstore\n      0x20\n      add\n      0x00\n      keccak256\n        /* \"contracts/AuthService.sol\":1617:1641  users[msg.sender].status */\n      0x00\n      add\n      sload\n        /* \"contracts/AuthService.sol\":1606:1612  status */\n      dup2\n        /* \"contracts/AuthService.sol\":1601:1613  uint(status) */\n      0x05\n      dup2\n      gt\n      iszero\n      tag_349\n      jumpi\n      tag_350\n      tag_106\n      jump\t// in\n    tag_350:\n    tag_349:\n        /* \"contracts/AuthService.sol\":1601:1641  uint(status) == users[msg.sender].status */\n      eq\n        /* \"contracts/AuthService.sol\":1593:1654  require(uint(status) == users[msg.sender].status,\"Forbidden\") */\n      tag_351\n      jumpi\n      mload(0x40)\n      0x08c379a000000000000000000000000000000000000000000000000000000000\n      dup2\n      mstore\n      0x04\n      add\n      tag_352\n      swap1\n      tag_109\n      jump\t// in\n    tag_352:\n      mload(0x40)\n      dup1\n      swap2\n      sub\n      swap1\n      revert\n    tag_351:\n        /* \"contracts/Shops.sol\":7624:7649  string memory currentRole */\n      0x00\n        /* \"contracts/Shops.sol\":7652:7662  userStatus */\n      dup1\n        /* \"contracts/Shops.sol\":7652:7685  userStatus[uint(UserRoles.buyer)] */\n      0x00\n        /* \"contracts/Shops.sol\":7668:7683  UserRoles.buyer */\n      dup1\n        /* \"contracts/Shops.sol\":7663:7684  uint(UserRoles.buyer) */\n      0x05\n      dup2\n      gt\n      iszero\n      tag_354\n      jumpi\n      tag_355\n      tag_106\n      jump\t// in\n    tag_355:\n    tag_354:\n        /* \"contracts/Shops.sol\":7652:7685  userStatus[uint(UserRoles.buyer)] */\n      dup2\n      mstore\n      0x20\n      add\n      swap1\n      dup2\n      mstore\n      0x20\n      add\n      0x00\n      keccak256\n        /* \"contracts/Shops.sol\":7624:7685  string memory currentRole = userStatus[uint(UserRoles.buyer)] */\n      dup1\n      sload\n      tag_356\n      swap1\n      tag_112\n      jump\t// in\n    tag_356:\n      dup1\n      0x1f\n      add\n      0x20\n      dup1\n      swap2\n      div\n      mul\n      0x20\n      add\n      mload(0x40)\n      swap1\n      dup2\n      add\n      0x40\n      mstore\n      dup1\n      swap3\n      swap2\n      swap1\n      dup2\n      dup2\n      mstore\n      0x20\n      add\n      dup3\n      dup1\n      sload\n      tag_357\n      swap1\n      tag_112\n      jump\t// in\n    tag_357:\n      dup1\n      iszero\n      tag_358\n      jumpi\n      dup1\n      0x1f\n      lt\n      tag_359\n      jumpi\n      0x0100\n      dup1\n      dup4\n      sload\n      div\n      mul\n      dup4\n      mstore\n      swap2\n      0x20\n      add\n      swap2\n      jump(tag_358)\n    tag_359:\n      dup3\n      add\n      swap2\n      swap1\n      0x00\n      mstore\n      keccak256(0x00, 0x20)\n      swap1\n    tag_360:\n      dup2\n      sload\n      dup2\n      mstore\n      swap1\n      0x01\n      add\n      swap1\n      0x20\n      add\n      dup1\n      dup4\n      gt\n      tag_360\n      jumpi\n      dup3\n      swap1\n      sub\n      0x1f\n      and\n      dup3\n      add\n      swap2\n    tag_358:\n      pop\n      pop\n      pop\n      pop\n      pop\n      swap1\n      pop\n        /* \"contracts/Shops.sol\":7695:7720  string memory desiredRole */\n      0x00\n        /* \"contracts/Shops.sol\":7723:7733  userStatus */\n      dup1\n        /* \"contracts/Shops.sol\":7723:7757  userStatus[uint(UserRoles.seller)] */\n      0x00\n        /* \"contracts/Shops.sol\":7739:7755  UserRoles.seller */\n      0x01\n        /* \"contracts/Shops.sol\":7734:7756  uint(UserRoles.seller) */\n      0x05\n      dup2\n      gt\n      iszero\n      tag_361\n      jumpi\n      tag_362\n      tag_106\n      jump\t// in\n    tag_362:\n    tag_361:\n        /* \"contracts/Shops.sol\":7723:7757  userStatus[uint(UserRoles.seller)] */\n      dup2\n      mstore\n      0x20\n      add\n      swap1\n      dup2\n      mstore\n      0x20\n      add\n      0x00\n      keccak256\n        /* \"contracts/Shops.sol\":7695:7757  string memory desiredRole = userStatus[uint(UserRoles.seller)] */\n      dup1\n      sload\n      tag_363\n      swap1\n      tag_112\n      jump\t// in\n    tag_363:\n      dup1\n      0x1f\n      add\n      0x20\n      dup1\n      swap2\n      div\n      mul\n      0x20\n      add\n      mload(0x40)\n      swap1\n      dup2\n      add\n      0x40\n      mstore\n      dup1\n      swap3\n      swap2\n      swap1\n      dup2\n      dup2\n      mstore\n      0x20\n      add\n      dup3\n      dup1\n      sload\n      tag_364\n      swap1\n      tag_112\n      jump\t// in\n    tag_364:\n      dup1\n      iszero\n      tag_365\n      jumpi\n      dup1\n      0x1f\n      lt\n      tag_366\n      jumpi\n      0x0100\n      dup1\n      dup4\n      sload\n      div\n      mul\n      dup4\n      mstore\n      swap2\n      0x20\n      add\n      swap2\n      jump(tag_365)\n    tag_366:\n      dup3\n      add\n      swap2\n      swap1\n      0x00\n      mstore\n      keccak256(0x00, 0x20)\n      swap1\n    tag_367:\n      dup2\n      sload\n      dup2\n      mstore\n      swap1\n      0x01\n      add\n      swap1\n      0x20\n      add\n      dup1\n      dup4\n      gt\n      tag_367\n      jumpi\n      dup3\n      swap1\n      sub\n      0x1f\n      and\n      dup3\n      add\n      swap2\n    tag_365:\n      pop\n      pop\n      pop\n      pop\n      pop\n      swap1\n      pop\n        /* \"contracts/Shops.sol\":7767:7784  Request memory rq */\n      0x00\n        /* \"contracts/Shops.sol\":7787:7897  Request(... */\n      mload(0x40)\n      dup1\n      0x80\n      add\n      0x40\n      mstore\n      dup1\n        /* \"contracts/Shops.sol\":7808:7818  msg.sender */\n      caller\n        /* \"contracts/Shops.sol\":7787:7897  Request(... */\n      0xffffffffffffffffffffffffffffffffffffffff\n      and\n      dup2\n      mstore\n      0x20\n      add\n        /* \"contracts/Shops.sol\":7832:7843  currentRole */\n      dup5\n        /* \"contracts/Shops.sol\":7787:7897  Request(... */\n      dup2\n      mstore\n      0x20\n      add\n        /* \"contracts/Shops.sol\":7857:7868  desiredRole */\n      dup4\n        /* \"contracts/Shops.sol\":7787:7897  Request(... */\n      dup2\n      mstore\n      0x20\n      add\n        /* \"contracts/Shops.sol\":7882:7887  false */\n      0x00\n        /* \"contracts/Shops.sol\":7787:7897  Request(... */\n      iszero\n      iszero\n      dup2\n      mstore\n      pop\n        /* \"contracts/Shops.sol\":7767:7897  Request memory rq = Request(... */\n      swap1\n      pop\n        /* \"contracts/Shops.sol\":7923:7925  rq */\n      dup1\n        /* \"contracts/Shops.sol\":7907:7916  requestId */\n      0x10\n        /* \"contracts/Shops.sol\":7917:7919  id */\n      dup7\n        /* \"contracts/Shops.sol\":7907:7920  requestId[id] */\n      mload(0x40)\n      tag_368\n      swap2\n      swap1\n      tag_167\n      jump\t// in\n    tag_368:\n      swap1\n      dup2\n      mstore\n      0x20\n      add\n      mload(0x40)\n      dup1\n      swap2\n      sub\n      swap1\n      keccak256\n        /* \"contracts/Shops.sol\":7907:7925  requestId[id] = rq */\n      0x00\n      dup3\n      add\n      mload\n      dup2\n      0x00\n      add\n      exp(0x0100, 0x00)\n      dup2\n      sload\n      dup2\n      0xffffffffffffffffffffffffffffffffffffffff\n      mul\n      not\n      and\n      swap1\n      dup4\n      0xffffffffffffffffffffffffffffffffffffffff\n      and\n      mul\n      or\n      swap1\n      sstore\n      pop\n      0x20\n      dup3\n      add\n      mload\n      dup2\n      0x01\n      add\n      swap1\n      dup1\n      mload\n      swap1\n      0x20\n      add\n      swap1\n      tag_369\n      swap3\n      swap2\n      swap1\n      tag_163\n      jump\t// in\n    tag_369:\n      pop\n      0x40\n      dup3\n      add\n      mload\n      dup2\n      0x02\n      add\n      swap1\n      dup1\n      mload\n      swap1\n      0x20\n      add\n      swap1\n      tag_370\n      swap3\n      swap2\n      swap1\n      tag_163\n      jump\t// in\n    tag_370:\n      pop\n      0x60\n      dup3\n      add\n      mload\n      dup2\n      0x03\n      add\n      exp(0x0100, 0x00)\n      dup2\n      sload\n      dup2\n      0xff\n      mul\n      not\n      and\n      swap1\n      dup4\n      iszero\n      iszero\n      mul\n      or\n      swap1\n      sstore\n      pop\n      swap1\n      pop\n      pop\n        /* \"contracts/Shops.sol\":7935:7943  requests */\n      0x0a\n        /* \"contracts/Shops.sol\":7949:7951  rq */\n      dup2\n        /* \"contracts/Shops.sol\":7935:7952  requests.push(rq) */\n      swap1\n      dup1\n      0x01\n      dup2\n      sload\n      add\n      dup1\n      dup3\n      sstore\n      dup1\n      swap2\n      pop\n      pop\n      0x01\n      swap1\n      sub\n      swap1\n      0x00\n      mstore\n      keccak256(0x00, 0x20)\n      swap1\n      0x04\n      mul\n      add\n      0x00\n      swap1\n      swap2\n      swap1\n      swap2\n      swap1\n      swap2\n      pop\n      0x00\n      dup3\n      add\n      mload\n      dup2\n      0x00\n      add\n      exp(0x0100, 0x00)\n      dup2\n      sload\n      dup2\n      0xffffffffffffffffffffffffffffffffffffffff\n      mul\n      not\n      and\n      swap1\n      dup4\n      0xffffffffffffffffffffffffffffffffffffffff\n      and\n      mul\n      or\n      swap1\n      sstore\n      pop\n      0x20\n      dup3\n      add\n      mload\n      dup2\n      0x01\n      add\n      swap1\n      dup1\n      mload\n      swap1\n      0x20\n      add\n      swap1\n      tag_372\n      swap3\n      swap2\n      swap1\n      tag_163\n      jump\t// in\n    tag_372:\n      pop\n      0x40\n      dup3\n      add\n      mload\n      dup2\n      0x02\n      add\n      swap1\n      dup1\n      mload\n      swap1\n      0x20\n      add\n      swap1\n      tag_373\n      swap3\n      swap2\n      swap1\n      tag_163\n      jump\t// in\n    tag_373:\n      pop\n      0x60\n      dup3\n      add\n      mload\n      dup2\n      0x03\n      add\n      exp(0x0100, 0x00)\n      dup2\n      sload\n      dup2\n      0xff\n      mul\n      not\n      and\n      swap1\n      dup4\n      iszero\n      iszero\n      mul\n      or\n      swap1\n      sstore\n      pop\n      pop\n      pop\n        /* \"contracts/Shops.sol\":7614:7959  {... */\n      pop\n      pop\n      pop\n        /* \"contracts/Shops.sol\":7535:7959  function requestToSeller(string memory id) public isUserStatus(UserRoles.buyer){... */\n      pop\n      pop\n      jump\t// out\n        /* \"contracts/Shops.sol\":6798:7037  function disLikeReview(string memory id) public isUser {... */\n    tag_91:\n        /* \"contracts/AuthService.sol\":1465:1504  compare(users[msg.sender].userLogin,\"\") */\n      tag_375\n        /* \"contracts/AuthService.sol\":1473:1478  users */\n      0x02\n        /* \"contracts/AuthService.sol\":1473:1490  users[msg.sender] */\n      0x00\n        /* \"contracts/AuthService.sol\":1479:1489  msg.sender */\n      caller\n        /* \"contracts/AuthService.sol\":1473:1490  users[msg.sender] */\n      0xffffffffffffffffffffffffffffffffffffffff\n      and\n      0xffffffffffffffffffffffffffffffffffffffff\n      and\n      dup2\n      mstore\n      0x20\n      add\n      swap1\n      dup2\n      mstore\n      0x20\n      add\n      0x00\n      keccak256\n        /* \"contracts/AuthService.sol\":1473:1500  users[msg.sender].userLogin */\n      0x01\n      add\n        /* \"contracts/AuthService.sol\":1465:1504  compare(users[msg.sender].userLogin,\"\") */\n      dup1\n      sload\n      tag_376\n      swap1\n      tag_112\n      jump\t// in\n    tag_376:\n      dup1\n      0x1f\n      add\n      0x20\n      dup1\n      swap2\n      div\n      mul\n      0x20\n      add\n      mload(0x40)\n      swap1\n      dup2\n      add\n      0x40\n      mstore\n      dup1\n      swap3\n      swap2\n      swap1\n      dup2\n      dup2\n      mstore\n      0x20\n      add\n      dup3\n      dup1\n      sload\n      tag_377\n      swap1\n      tag_112\n      jump\t// in\n    tag_377:\n      dup1\n      iszero\n      tag_378\n      jumpi\n      dup1\n      0x1f\n      lt\n      tag_379\n      jumpi\n      0x0100\n      dup1\n      dup4\n      sload\n      div\n      mul\n      dup4\n      mstore\n      swap2\n      0x20\n      add\n      swap2\n      jump(tag_378)\n    tag_379:\n      dup3\n      add\n      swap2\n      swap1\n      0x00\n      mstore\n      keccak256(0x00, 0x20)\n      swap1\n    tag_380:\n      dup2\n      sload\n      dup2\n      mstore\n      swap1\n      0x01\n      add\n      swap1\n      0x20\n      add\n      dup1\n      dup4\n      gt\n      tag_380\n      jumpi\n      dup3\n      swap1\n      sub\n      0x1f\n      and\n      dup3\n      add\n      swap2\n    tag_378:\n      pop\n      pop\n      pop\n      pop\n      pop\n      mload(0x40)\n      dup1\n      0x20\n      add\n      0x40\n      mstore\n      dup1\n      0x00\n      dup2\n      mstore\n      pop\n        /* \"contracts/AuthService.sol\":1465:1472  compare */\n      tag_156\n        /* \"contracts/AuthService.sol\":1465:1504  compare(users[msg.sender].userLogin,\"\") */\n      jump\t// in\n    tag_375:\n        /* \"contracts/AuthService.sol\":1464:1504  !compare(users[msg.sender].userLogin,\"\") */\n      iszero\n        /* \"contracts/AuthService.sol\":1456:1520  require(!compare(users[msg.sender].userLogin,\"\"),\"You not user\") */\n      tag_381\n      jumpi\n      mload(0x40)\n      0x08c379a000000000000000000000000000000000000000000000000000000000\n      dup2\n      mstore\n      0x04\n      add\n      tag_382\n      swap1\n      tag_159\n      jump\t// in\n    tag_382:\n      mload(0x40)\n      dup1\n      swap2\n      sub\n      swap1\n      revert\n    tag_381:\n        /* \"contracts/Shops.sol\":6900:6905  false */\n      0x00\n        /* \"contracts/Shops.sol\":6871:6905  reviewCom[id][msg.sender] == false */\n      iszero\n      iszero\n        /* \"contracts/Shops.sol\":6871:6880  reviewCom */\n      0x11\n        /* \"contracts/Shops.sol\":6881:6883  id */\n      dup3\n        /* \"contracts/Shops.sol\":6871:6884  reviewCom[id] */\n      mload(0x40)\n      tag_384\n      swap2\n      swap1\n      tag_167\n      jump\t// in\n    tag_384:\n      swap1\n      dup2\n      mstore\n      0x20\n      add\n      mload(0x40)\n      dup1\n      swap2\n      sub\n      swap1\n      keccak256\n        /* \"contracts/Shops.sol\":6871:6896  reviewCom[id][msg.sender] */\n      0x00\n        /* \"contracts/Shops.sol\":6885:6895  msg.sender */\n      caller\n        /* \"contracts/Shops.sol\":6871:6896  reviewCom[id][msg.sender] */\n      0xffffffffffffffffffffffffffffffffffffffff\n      and\n      0xffffffffffffffffffffffffffffffffffffffff\n      and\n      dup2\n      mstore\n      0x20\n      add\n      swap1\n      dup2\n      mstore\n      0x20\n      add\n      0x00\n      keccak256\n      0x00\n      swap1\n      sload\n      swap1\n      0x0100\n      exp\n      swap1\n      div\n      0xff\n      and\n        /* \"contracts/Shops.sol\":6871:6905  reviewCom[id][msg.sender] == false */\n      iszero\n      iszero\n      eq\n        /* \"contracts/Shops.sol\":6863:6936  require(reviewCom[id][msg.sender] == false,\"You already check this case\") */\n      tag_385\n      jumpi\n      mload(0x40)\n      0x08c379a000000000000000000000000000000000000000000000000000000000\n      dup2\n      mstore\n      0x04\n      add\n      tag_386\n      swap1\n      tag_271\n      jump\t// in\n    tag_386:\n      mload(0x40)\n      dup1\n      swap2\n      sub\n      swap1\n      revert\n    tag_385:\n        /* \"contracts/Shops.sol\":6946:6954  reviewId */\n      0x0f\n        /* \"contracts/Shops.sol\":6955:6957  id */\n      dup2\n        /* \"contracts/Shops.sol\":6946:6958  reviewId[id] */\n      mload(0x40)\n      tag_387\n      swap2\n      swap1\n      tag_167\n      jump\t// in\n    tag_387:\n      swap1\n      dup2\n      mstore\n      0x20\n      add\n      mload(0x40)\n      dup1\n      swap2\n      sub\n      swap1\n      keccak256\n        /* \"contracts/Shops.sol\":6946:6971  reviewId[id].disLikeCount */\n      0x04\n      add\n        /* \"contracts/Shops.sol\":6977:6987  msg.sender */\n      caller\n        /* \"contracts/Shops.sol\":6946:6988  reviewId[id].disLikeCount.push(msg.sender) */\n      swap1\n      dup1\n      0x01\n      dup2\n      sload\n      add\n      dup1\n      dup3\n      sstore\n      dup1\n      swap2\n      pop\n      pop\n      0x01\n      swap1\n      sub\n      swap1\n      0x00\n      mstore\n      keccak256(0x00, 0x20)\n      add\n      0x00\n      swap1\n      swap2\n      swap1\n      swap2\n      swap1\n      swap2\n      0x0100\n      exp\n      dup2\n      sload\n      dup2\n      0xffffffffffffffffffffffffffffffffffffffff\n      mul\n      not\n      and\n      swap1\n      dup4\n      0xffffffffffffffffffffffffffffffffffffffff\n      and\n      mul\n      or\n      swap1\n      sstore\n      pop\n        /* \"contracts/Shops.sol\":7026:7030  true */\n      0x01\n        /* \"contracts/Shops.sol\":6998:7007  reviewCom */\n      0x11\n        /* \"contracts/Shops.sol\":7008:7010  id */\n      dup3\n        /* \"contracts/Shops.sol\":6998:7011  reviewCom[id] */\n      mload(0x40)\n      tag_389\n      swap2\n      swap1\n      tag_167\n      jump\t// in\n    tag_389:\n      swap1\n      dup2\n      mstore\n      0x20\n      add\n      mload(0x40)\n      dup1\n      swap2\n      sub\n      swap1\n      keccak256\n        /* \"contracts/Shops.sol\":6998:7023  reviewCom[id][msg.sender] */\n      0x00\n        /* \"contracts/Shops.sol\":7012:7022  msg.sender */\n      caller\n        /* \"contracts/Shops.sol\":6998:7023  reviewCom[id][msg.sender] */\n      0xffffffffffffffffffffffffffffffffffffffff\n      and\n      0xffffffffffffffffffffffffffffffffffffffff\n      and\n      dup2\n      mstore\n      0x20\n      add\n      swap1\n      dup2\n      mstore\n      0x20\n      add\n      0x00\n      keccak256\n      0x00\n        /* \"contracts/Shops.sol\":6998:7030  reviewCom[id][msg.sender] = true */\n      0x0100\n      exp\n      dup2\n      sload\n      dup2\n      0xff\n      mul\n      not\n      and\n      swap1\n      dup4\n      iszero\n      iszero\n      mul\n      or\n      swap1\n      sstore\n      pop\n        /* \"contracts/Shops.sol\":6798:7037  function disLikeReview(string memory id) public isUser {... */\n      pop\n      jump\t// out\n        /* \"contracts/Shops.sol\":4984:5383  function getAdminInfo() public view isUserStatus(UserRoles.admin) returns(... */\n    tag_93:\n        /* \"contracts/Shops.sol\":5067:5086  string memory login */\n      0x60\n        /* \"contracts/Shops.sol\":5096:5125  Request[] memory userRequests */\n      dup1\n        /* \"contracts/Shops.sol\":5135:5160  string[] memory adminList */\n      0x60\n        /* \"contracts/Shops.sol\":5170:5198  address[] memory sellersAddr */\n      dup1\n        /* \"contracts/Shops.sol\":5033:5048  UserRoles.admin */\n      0x03\n        /* \"contracts/AuthService.sol\":1617:1622  users */\n      0x02\n        /* \"contracts/AuthService.sol\":1617:1634  users[msg.sender] */\n      0x00\n        /* \"contracts/AuthService.sol\":1623:1633  msg.sender */\n      caller\n        /* \"contracts/AuthService.sol\":1617:1634  users[msg.sender] */\n      0xffffffffffffffffffffffffffffffffffffffff\n      and\n      0xffffffffffffffffffffffffffffffffffffffff\n      and\n      dup2\n      mstore\n      0x20\n      add\n      swap1\n      dup2\n      mstore\n      0x20\n      add\n      0x00\n      keccak256\n        /* \"contracts/AuthService.sol\":1617:1641  users[msg.sender].status */\n      0x00\n      add\n      sload\n        /* \"contracts/AuthService.sol\":1606:1612  status */\n      dup2\n        /* \"contracts/AuthService.sol\":1601:1613  uint(status) */\n      0x05\n      dup2\n      gt\n      iszero\n      tag_391\n      jumpi\n      tag_392\n      tag_106\n      jump\t// in\n    tag_392:\n    tag_391:\n        /* \"contracts/AuthService.sol\":1601:1641  uint(status) == users[msg.sender].status */\n      eq\n        /* \"contracts/AuthService.sol\":1593:1654  require(uint(status) == users[msg.sender].status,\"Forbidden\") */\n      tag_393\n      jumpi\n      mload(0x40)\n      0x08c379a000000000000000000000000000000000000000000000000000000000\n      dup2\n      mstore\n      0x04\n      add\n      tag_394\n      swap1\n      tag_109\n      jump\t// in\n    tag_394:\n      mload(0x40)\n      dup1\n      swap2\n      sub\n      swap1\n      revert\n    tag_393:\n        /* \"contracts/Shops.sol\":5215:5231  User memory user */\n      0x00\n        /* \"contracts/Shops.sol\":5234:5239  users */\n      0x02\n        /* \"contracts/Shops.sol\":5234:5251  users[msg.sender] */\n      0x00\n        /* \"contracts/Shops.sol\":5240:5250  msg.sender */\n      caller\n        /* \"contracts/Shops.sol\":5234:5251  users[msg.sender] */\n      0xffffffffffffffffffffffffffffffffffffffff\n      and\n      0xffffffffffffffffffffffffffffffffffffffff\n      and\n      dup2\n      mstore\n      0x20\n      add\n      swap1\n      dup2\n      mstore\n      0x20\n      add\n      0x00\n      keccak256\n        /* \"contracts/Shops.sol\":5215:5251  User memory user = users[msg.sender] */\n      mload(0x40)\n      dup1\n      0x80\n      add\n      0x40\n      mstore\n      swap1\n      dup2\n      0x00\n      dup3\n      add\n      sload\n      dup2\n      mstore\n      0x20\n      add\n      0x01\n      dup3\n      add\n      dup1\n      sload\n      tag_396\n      swap1\n      tag_112\n      jump\t// in\n    tag_396:\n      dup1\n      0x1f\n      add\n      0x20\n      dup1\n      swap2\n      div\n      mul\n      0x20\n      add\n      mload(0x40)\n      swap1\n      dup2\n      add\n      0x40\n      mstore\n      dup1\n      swap3\n      swap2\n      swap1\n      dup2\n      dup2\n      mstore\n      0x20\n      add\n      dup3\n      dup1\n      sload\n      tag_397\n      swap1\n      tag_112\n      jump\t// in\n    tag_397:\n      dup1\n      iszero\n      tag_398\n      jumpi\n      dup1\n      0x1f\n      lt\n      tag_399\n      jumpi\n      0x0100\n      dup1\n      dup4\n      sload\n      div\n      mul\n      dup4\n      mstore\n      swap2\n      0x20\n      add\n      swap2\n      jump(tag_398)\n    tag_399:\n      dup3\n      add\n      swap2\n      swap1\n      0x00\n      mstore\n      keccak256(0x00, 0x20)\n      swap1\n    tag_400:\n      dup2\n      sload\n      dup2\n      mstore\n      swap1\n      0x01\n      add\n      swap1\n      0x20\n      add\n      dup1\n      dup4\n      gt\n      tag_400\n      jumpi\n      dup3\n      swap1\n      sub\n      0x1f\n      and\n      dup3\n      add\n      swap2\n    tag_398:\n      pop\n      pop\n      pop\n      pop\n      pop\n      dup2\n      mstore\n      0x20\n      add\n      0x02\n      dup3\n      add\n      dup1\n      sload\n      tag_401\n      swap1\n      tag_112\n      jump\t// in\n    tag_401:\n      dup1\n      0x1f\n      add\n      0x20\n      dup1\n      swap2\n      div\n      mul\n      0x20\n      add\n      mload(0x40)\n      swap1\n      dup2\n      add\n      0x40\n      mstore\n      dup1\n      swap3\n      swap2\n      swap1\n      dup2\n      dup2\n      mstore\n      0x20\n      add\n      dup3\n      dup1\n      sload\n      tag_402\n      swap1\n      tag_112\n      jump\t// in\n    tag_402:\n      dup1\n      iszero\n      tag_403\n      jumpi\n      dup1\n      0x1f\n      lt\n      tag_404\n      jumpi\n      0x0100\n      dup1\n      dup4\n      sload\n      div\n      mul\n      dup4\n      mstore\n      swap2\n      0x20\n      add\n      swap2\n      jump(tag_403)\n    tag_404:\n      dup3\n      add\n      swap2\n      swap1\n      0x00\n      mstore\n      keccak256(0x00, 0x20)\n      swap1\n    tag_405:\n      dup2\n      sload\n      dup2\n      mstore\n      swap1\n      0x01\n      add\n      swap1\n      0x20\n      add\n      dup1\n      dup4\n      gt\n      tag_405\n      jumpi\n      dup3\n      swap1\n      sub\n      0x1f\n      and\n      dup3\n      add\n      swap2\n    tag_403:\n      pop\n      pop\n      pop\n      pop\n      pop\n      dup2\n      mstore\n      0x20\n      add\n      0x03\n      dup3\n      add\n      dup1\n      sload\n      dup1\n      0x20\n      mul\n      0x20\n      add\n      mload(0x40)\n      swap1\n      dup2\n      add\n      0x40\n      mstore\n      dup1\n      swap3\n      swap2\n      swap1\n      dup2\n      dup2\n      mstore\n      0x20\n      add\n      0x00\n      swap1\n    tag_406:\n      dup3\n      dup3\n      lt\n      iszero\n      tag_407\n      jumpi\n      dup4\n      dup3\n      swap1\n      0x00\n      mstore\n      keccak256(0x00, 0x20)\n      add\n      dup1\n      sload\n      tag_409\n      swap1\n      tag_112\n      jump\t// in\n    tag_409:\n      dup1\n      0x1f\n      add\n      0x20\n      dup1\n      swap2\n      div\n      mul\n      0x20\n      add\n      mload(0x40)\n      swap1\n      dup2\n      add\n      0x40\n      mstore\n      dup1\n      swap3\n      swap2\n      swap1\n      dup2\n      dup2\n      mstore\n      0x20\n      add\n      dup3\n      dup1\n      sload\n      tag_410\n      swap1\n      tag_112\n      jump\t// in\n    tag_410:\n      dup1\n      iszero\n      tag_411\n      jumpi\n      dup1\n      0x1f\n      lt\n      tag_412\n      jumpi\n      0x0100\n      dup1\n      dup4\n      sload\n      div\n      mul\n      dup4\n      mstore\n      swap2\n      0x20\n      add\n      swap2\n      jump(tag_411)\n    tag_412:\n      dup3\n      add\n      swap2\n      swap1\n      0x00\n      mstore\n      keccak256(0x00, 0x20)\n      swap1\n    tag_413:\n      dup2\n      sload\n      dup2\n      mstore\n      swap1\n      0x01\n      add\n      swap1\n      0x20\n      add\n      dup1\n      dup4\n      gt\n      tag_413\n      jumpi\n      dup3\n      swap1\n      sub\n      0x1f\n      and\n      dup3\n      add\n      swap2\n    tag_411:\n      pop\n      pop\n      pop\n      pop\n      pop\n      dup2\n      mstore\n      0x20\n      add\n      swap1\n      0x01\n      add\n      swap1\n      jump(tag_406)\n    tag_407:\n      pop\n      pop\n      pop\n      pop\n      dup2\n      mstore\n      pop\n      pop\n      swap1\n      pop\n        /* \"contracts/Shops.sol\":5270:5274  user */\n      dup1\n        /* \"contracts/Shops.sol\":5270:5284  user.userLogin */\n      0x20\n      add\n      mload\n        /* \"contracts/Shops.sol\":5262:5284  login = user.userLogin */\n      swap6\n      pop\n        /* \"contracts/Shops.sol\":5309:5317  requests */\n      0x0a\n        /* \"contracts/Shops.sol\":5294:5317  userRequests = requests */\n      dup1\n      sload\n      dup1\n      0x20\n      mul\n      0x20\n      add\n      mload(0x40)\n      swap1\n      dup2\n      add\n      0x40\n      mstore\n      dup1\n      swap3\n      swap2\n      swap1\n      dup2\n      dup2\n      mstore\n      0x20\n      add\n      0x00\n      swap1\n    tag_414:\n      dup3\n      dup3\n      lt\n      iszero\n      tag_415\n      jumpi\n      dup4\n      dup3\n      swap1\n      0x00\n      mstore\n      keccak256(0x00, 0x20)\n      swap1\n      0x04\n      mul\n      add\n      mload(0x40)\n      dup1\n      0x80\n      add\n      0x40\n      mstore\n      swap1\n      dup2\n      0x00\n      dup3\n      add\n      0x00\n      swap1\n      sload\n      swap1\n      0x0100\n      exp\n      swap1\n      div\n      0xffffffffffffffffffffffffffffffffffffffff\n      and\n      0xffffffffffffffffffffffffffffffffffffffff\n      and\n      0xffffffffffffffffffffffffffffffffffffffff\n      and\n      dup2\n      mstore\n      0x20\n      add\n      0x01\n      dup3\n      add\n      dup1\n      sload\n      tag_417\n      swap1\n      tag_112\n      jump\t// in\n    tag_417:\n      dup1\n      0x1f\n      add\n      0x20\n      dup1\n      swap2\n      div\n      mul\n      0x20\n      add\n      mload(0x40)\n      swap1\n      dup2\n      add\n      0x40\n      mstore\n      dup1\n      swap3\n      swap2\n      swap1\n      dup2\n      dup2\n      mstore\n      0x20\n      add\n      dup3\n      dup1\n      sload\n      tag_418\n      swap1\n      tag_112\n      jump\t// in\n    tag_418:\n      dup1\n      iszero\n      tag_419\n      jumpi\n      dup1\n      0x1f\n      lt\n      tag_420\n      jumpi\n      0x0100\n      dup1\n      dup4\n      sload\n      div\n      mul\n      dup4\n      mstore\n      swap2\n      0x20\n      add\n      swap2\n      jump(tag_419)\n    tag_420:\n      dup3\n      add\n      swap2\n      swap1\n      0x00\n      mstore\n      keccak256(0x00, 0x20)\n      swap1\n    tag_421:\n      dup2\n      sload\n      dup2\n      mstore\n      swap1\n      0x01\n      add\n      swap1\n      0x20\n      add\n      dup1\n      dup4\n      gt\n      tag_421\n      jumpi\n      dup3\n      swap1\n      sub\n      0x1f\n      and\n      dup3\n      add\n      swap2\n    tag_419:\n      pop\n      pop\n      pop\n      pop\n      pop\n      dup2\n      mstore\n      0x20\n      add\n      0x02\n      dup3\n      add\n      dup1\n      sload\n      tag_422\n      swap1\n      tag_112\n      jump\t// in\n    tag_422:\n      dup1\n      0x1f\n      add\n      0x20\n      dup1\n      swap2\n      div\n      mul\n      0x20\n      add\n      mload(0x40)\n      swap1\n      dup2\n      add\n      0x40\n      mstore\n      dup1\n      swap3\n      swap2\n      swap1\n      dup2\n      dup2\n      mstore\n      0x20\n      add\n      dup3\n      dup1\n      sload\n      tag_423\n      swap1\n      tag_112\n      jump\t// in\n    tag_423:\n      dup1\n      iszero\n      tag_424\n      jumpi\n      dup1\n      0x1f\n      lt\n      tag_425\n      jumpi\n      0x0100\n      dup1\n      dup4\n      sload\n      div\n      mul\n      dup4\n      mstore\n      swap2\n      0x20\n      add\n      swap2\n      jump(tag_424)\n    tag_425:\n      dup3\n      add\n      swap2\n      swap1\n      0x00\n      mstore\n      keccak256(0x00, 0x20)\n      swap1\n    tag_426:\n      dup2\n      sload\n      dup2\n      mstore\n      swap1\n      0x01\n      add\n      swap1\n      0x20\n      add\n      dup1\n      dup4\n      gt\n      tag_426\n      jumpi\n      dup3\n      swap1\n      sub\n      0x1f\n      and\n      dup3\n      add\n      swap2\n    tag_424:\n      pop\n      pop\n      pop\n      pop\n      pop\n      dup2\n      mstore\n      0x20\n      add\n      0x03\n      dup3\n      add\n      0x00\n      swap1\n      sload\n      swap1\n      0x0100\n      exp\n      swap1\n      div\n      0xff\n      and\n      iszero\n      iszero\n      iszero\n      iszero\n      dup2\n      mstore\n      pop\n      pop\n      dup2\n      mstore\n      0x20\n      add\n      swap1\n      0x01\n      add\n      swap1\n      jump(tag_414)\n    tag_415:\n      pop\n      pop\n      pop\n      pop\n      swap5\n      pop\n        /* \"contracts/Shops.sol\":5339:5345  admins */\n      0x06\n        /* \"contracts/Shops.sol\":5327:5345  adminList = admins */\n      dup1\n      sload\n      dup1\n      0x20\n      mul\n      0x20\n      add\n      mload(0x40)\n      swap1\n      dup2\n      add\n      0x40\n      mstore\n      dup1\n      swap3\n      swap2\n      swap1\n      dup2\n      dup2\n      mstore\n      0x20\n      add\n      0x00\n      swap1\n    tag_427:\n      dup3\n      dup3\n      lt\n      iszero\n      tag_428\n      jumpi\n      dup4\n      dup3\n      swap1\n      0x00\n      mstore\n      keccak256(0x00, 0x20)\n      add\n      dup1\n      sload\n      tag_430\n      swap1\n      tag_112\n      jump\t// in\n    tag_430:\n      dup1\n      0x1f\n      add\n      0x20\n      dup1\n      swap2\n      div\n      mul\n      0x20\n      add\n      mload(0x40)\n      swap1\n      dup2\n      add\n      0x40\n      mstore\n      dup1\n      swap3\n      swap2\n      swap1\n      dup2\n      dup2\n      mstore\n      0x20\n      add\n      dup3\n      dup1\n      sload\n      tag_431\n      swap1\n      tag_112\n      jump\t// in\n    tag_431:\n      dup1\n      iszero\n      tag_432\n      jumpi\n      dup1\n      0x1f\n      lt\n      tag_433\n      jumpi\n      0x0100\n      dup1\n      dup4\n      sload\n      div\n      mul\n      dup4\n      mstore\n      swap2\n      0x20\n      add\n      swap2\n      jump(tag_432)\n    tag_433:\n      dup3\n      add\n      swap2\n      swap1\n      0x00\n      mstore\n      keccak256(0x00, 0x20)\n      swap1\n    tag_434:\n      dup2\n      sload\n      dup2\n      mstore\n      swap1\n      0x01\n      add\n      swap1\n      0x20\n      add\n      dup1\n      dup4\n      gt\n      tag_434\n      jumpi\n      dup3\n      swap1\n      sub\n      0x1f\n      and\n      dup3\n      add\n      swap2\n    tag_432:\n      pop\n      pop\n      pop\n      pop\n      pop\n      dup2\n      mstore\n      0x20\n      add\n      swap1\n      0x01\n      add\n      swap1\n      jump(tag_427)\n    tag_428:\n      pop\n      pop\n      pop\n      pop\n      swap4\n      pop\n        /* \"contracts/Shops.sol\":5369:5376  sellers */\n      0x08\n        /* \"contracts/Shops.sol\":5355:5376  sellersAddr = sellers */\n      dup1\n      sload\n      dup1\n      0x20\n      mul\n      0x20\n      add\n      mload(0x40)\n      swap1\n      dup2\n      add\n      0x40\n      mstore\n      dup1\n      swap3\n      swap2\n      swap1\n      dup2\n      dup2\n      mstore\n      0x20\n      add\n      dup3\n      dup1\n      sload\n      dup1\n      iszero\n      tag_435\n      jumpi\n      0x20\n      mul\n      dup3\n      add\n      swap2\n      swap1\n      0x00\n      mstore\n      keccak256(0x00, 0x20)\n      swap1\n    tag_436:\n      dup2\n      0x00\n      swap1\n      sload\n      swap1\n      0x0100\n      exp\n      swap1\n      div\n      0xffffffffffffffffffffffffffffffffffffffff\n      and\n      0xffffffffffffffffffffffffffffffffffffffff\n      and\n      dup2\n      mstore\n      0x20\n      add\n      swap1\n      0x01\n      add\n      swap1\n      dup1\n      dup4\n      gt\n      tag_436\n      jumpi\n    tag_435:\n      pop\n      pop\n      pop\n      pop\n      pop\n      swap3\n      pop\n        /* \"contracts/Shops.sol\":5205:5383  {... */\n      pop\n        /* \"contracts/Shops.sol\":4984:5383  function getAdminInfo() public view isUserStatus(UserRoles.admin) returns(... */\n      pop\n      swap1\n      swap2\n      swap3\n      swap4\n      jump\t// out\n        /* \"contracts/Shops.sol\":8053:8146  function checkRequest(string memory id) public isUserStatus(UserRoles.admin) {... */\n    tag_98:\n        /* \"contracts/Shops.sol\":8113:8128  UserRoles.admin */\n      0x03\n        /* \"contracts/AuthService.sol\":1617:1622  users */\n      0x02\n        /* \"contracts/AuthService.sol\":1617:1634  users[msg.sender] */\n      0x00\n        /* \"contracts/AuthService.sol\":1623:1633  msg.sender */\n      caller\n        /* \"contracts/AuthService.sol\":1617:1634  users[msg.sender] */\n      0xffffffffffffffffffffffffffffffffffffffff\n      and\n      0xffffffffffffffffffffffffffffffffffffffff\n      and\n      dup2\n      mstore\n      0x20\n      add\n      swap1\n      dup2\n      mstore\n      0x20\n      add\n      0x00\n      keccak256\n        /* \"contracts/AuthService.sol\":1617:1641  users[msg.sender].status */\n      0x00\n      add\n      sload\n        /* \"contracts/AuthService.sol\":1606:1612  status */\n      dup2\n        /* \"contracts/AuthService.sol\":1601:1613  uint(status) */\n      0x05\n      dup2\n      gt\n      iszero\n      tag_438\n      jumpi\n      tag_439\n      tag_106\n      jump\t// in\n    tag_439:\n    tag_438:\n        /* \"contracts/AuthService.sol\":1601:1641  uint(status) == users[msg.sender].status */\n      eq\n        /* \"contracts/AuthService.sol\":1593:1654  require(uint(status) == users[msg.sender].status,\"Forbidden\") */\n      tag_440\n      jumpi\n      mload(0x40)\n      0x08c379a000000000000000000000000000000000000000000000000000000000\n      dup2\n      mstore\n      0x04\n      add\n      tag_441\n      swap1\n      tag_109\n      jump\t// in\n    tag_441:\n      mload(0x40)\n      dup1\n      swap2\n      sub\n      swap1\n      revert\n    tag_440:\n        /* \"contracts/Shops.sol\":8053:8146  function checkRequest(string memory id) public isUserStatus(UserRoles.admin) {... */\n      pop\n      pop\n      jump\t// out\n        /* \"contracts/Shops.sol\":1259:1484  function registerAdmin(string memory fio,string memory userLogin) isAdmin public {... */\n    tag_102:\n        /* \"contracts/Shops.sol\":1101:1106  admin */\n      0x05\n      0x00\n      swap1\n      sload\n      swap1\n      0x0100\n      exp\n      swap1\n      div\n      0xffffffffffffffffffffffffffffffffffffffff\n      and\n        /* \"contracts/Shops.sol\":1087:1106  msg.sender == admin */\n      0xffffffffffffffffffffffffffffffffffffffff\n      and\n        /* \"contracts/Shops.sol\":1087:1097  msg.sender */\n      caller\n        /* \"contracts/Shops.sol\":1087:1106  msg.sender == admin */\n      0xffffffffffffffffffffffffffffffffffffffff\n      and\n      eq\n        /* \"contracts/Shops.sol\":1079:1123  require(msg.sender == admin,\"You not admin\") */\n      tag_444\n      jumpi\n      mload(0x40)\n      0x08c379a000000000000000000000000000000000000000000000000000000000\n      dup2\n      mstore\n      0x04\n      add\n      tag_445\n      swap1\n      tag_143\n      jump\t// in\n    tag_445:\n      mload(0x40)\n      dup1\n      swap2\n      sub\n      swap1\n      revert\n    tag_444:\n        /* \"contracts/Shops.sol\":1350:1361  uint status */\n      0x00\n        /* \"contracts/Shops.sol\":1369:1384  UserRoles.admin */\n      0x03\n        /* \"contracts/Shops.sol\":1364:1385  uint(UserRoles.admin) */\n      0x05\n      dup2\n      gt\n      iszero\n      tag_447\n      jumpi\n      tag_448\n      tag_106\n      jump\t// in\n    tag_448:\n    tag_447:\n        /* \"contracts/Shops.sol\":1350:1385  uint status = uint(UserRoles.admin) */\n      swap1\n      pop\n        /* \"contracts/Shops.sol\":1395:1445  registerFromAdmin(fio,userLogin,status,msg.sender) */\n      tag_449\n        /* \"contracts/Shops.sol\":1413:1416  fio */\n      dup4\n        /* \"contracts/Shops.sol\":1417:1426  userLogin */\n      dup4\n        /* \"contracts/Shops.sol\":1427:1433  status */\n      dup4\n        /* \"contracts/Shops.sol\":1434:1444  msg.sender */\n      caller\n        /* \"contracts/Shops.sol\":1395:1412  registerFromAdmin */\n      tag_148\n        /* \"contracts/Shops.sol\":1395:1445  registerFromAdmin(fio,userLogin,status,msg.sender) */\n      jump\t// in\n    tag_449:\n        /* \"contracts/Shops.sol\":1455:1461  admins */\n      0x06\n        /* \"contracts/Shops.sol\":1467:1476  userLogin */\n      dup3\n        /* \"contracts/Shops.sol\":1455:1477  admins.push(userLogin) */\n      swap1\n      dup1\n      0x01\n      dup2\n      sload\n      add\n      dup1\n      dup3\n      sstore\n      dup1\n      swap2\n      pop\n      pop\n      0x01\n      swap1\n      sub\n      swap1\n      0x00\n      mstore\n      keccak256(0x00, 0x20)\n      add\n      0x00\n      swap1\n      swap2\n      swap1\n      swap2\n      swap1\n      swap2\n      pop\n      swap1\n      dup1\n      mload\n      swap1\n      0x20\n      add\n      swap1\n      tag_451\n      swap3\n      swap2\n      swap1\n      tag_163\n      jump\t// in\n    tag_451:\n      pop\n        /* \"contracts/Shops.sol\":1340:1484  {... */\n      pop\n        /* \"contracts/Shops.sol\":1259:1484  function registerAdmin(string memory fio,string memory userLogin) isAdmin public {... */\n      pop\n      pop\n      jump\t// out\n        /* \"contracts/AuthService.sol\":1875:2250  function registerFromAdmin(string memory fio,string memory userLogin,uint status,address userAddress) internal isNotRegistered(userAddress,userLogin){... */\n    tag_148:\n        /* \"contracts/AuthService.sol\":2002:2013  userAddress */\n      dup1\n        /* \"contracts/AuthService.sol\":2014:2023  userLogin */\n      dup4\n        /* \"contracts/AuthService.sol\":1039:1073  compare(users[userAddress].fio,\"\") */\n      tag_453\n        /* \"contracts/AuthService.sol\":1047:1052  users */\n      0x02\n        /* \"contracts/AuthService.sol\":1047:1065  users[userAddress] */\n      0x00\n        /* \"contracts/AuthService.sol\":1053:1064  userAddress */\n      dup5\n        /* \"contracts/AuthService.sol\":1047:1065  users[userAddress] */\n      0xffffffffffffffffffffffffffffffffffffffff\n      and\n      0xffffffffffffffffffffffffffffffffffffffff\n      and\n      dup2\n      mstore\n      0x20\n      add\n      swap1\n      dup2\n      mstore\n      0x20\n      add\n      0x00\n      keccak256\n        /* \"contracts/AuthService.sol\":1047:1069  users[userAddress].fio */\n      0x02\n      add\n        /* \"contracts/AuthService.sol\":1039:1073  compare(users[userAddress].fio,\"\") */\n      dup1\n      sload\n      tag_454\n      swap1\n      tag_112\n      jump\t// in\n    tag_454:\n      dup1\n      0x1f\n      add\n      0x20\n      dup1\n      swap2\n      div\n      mul\n      0x20\n      add\n      mload(0x40)\n      swap1\n      dup2\n      add\n      0x40\n      mstore\n      dup1\n      swap3\n      swap2\n      swap1\n      dup2\n      dup2\n      mstore\n      0x20\n      add\n      dup3\n      dup1\n      sload\n      tag_455\n      swap1\n      tag_112\n      jump\t// in\n    tag_455:\n      dup1\n      iszero\n      tag_456\n      jumpi\n      dup1\n      0x1f\n      lt\n      tag_457\n      jumpi\n      0x0100\n      dup1\n      dup4\n      sload\n      div\n      mul\n      dup4\n      mstore\n      swap2\n      0x20\n      add\n      swap2\n      jump(tag_456)\n    tag_457:\n      dup3\n      add\n      swap2\n      swap1\n      0x00\n      mstore\n      keccak256(0x00, 0x20)\n      swap1\n    tag_458:\n      dup2\n      sload\n      dup2\n      mstore\n      swap1\n      0x01\n      add\n      swap1\n      0x20\n      add\n      dup1\n      dup4\n      gt\n      tag_458\n      jumpi\n      dup3\n      swap1\n      sub\n      0x1f\n      and\n      dup3\n      add\n      swap2\n    tag_456:\n      pop\n      pop\n      pop\n      pop\n      pop\n      mload(0x40)\n      dup1\n      0x20\n      add\n      0x40\n      mstore\n      dup1\n      0x00\n      dup2\n      mstore\n      pop\n        /* \"contracts/AuthService.sol\":1039:1046  compare */\n      tag_156\n        /* \"contracts/AuthService.sol\":1039:1073  compare(users[userAddress].fio,\"\") */\n      jump\t// in\n    tag_453:\n        /* \"contracts/AuthService.sol\":1038:1073  !compare(users[userAddress].fio,\"\") */\n      iszero\n        /* \"contracts/AuthService.sol\":1030:1099  require(!compare(users[userAddress].fio,\"\"),\"You already registered\") */\n      tag_459\n      jumpi\n      mload(0x40)\n      0x08c379a000000000000000000000000000000000000000000000000000000000\n      dup2\n      mstore\n      0x04\n      add\n      tag_460\n      swap1\n      tag_461\n      jump\t// in\n    tag_460:\n      mload(0x40)\n      dup1\n      swap2\n      sub\n      swap1\n      revert\n    tag_459:\n        /* \"contracts/AuthService.sol\":1150:1151  0 */\n      0x00\n        /* \"contracts/AuthService.sol\":1117:1152  userLogins[userLogin] == address(0) */\n      0xffffffffffffffffffffffffffffffffffffffff\n      and\n        /* \"contracts/AuthService.sol\":1117:1127  userLogins */\n      0x01\n        /* \"contracts/AuthService.sol\":1128:1137  userLogin */\n      dup3\n        /* \"contracts/AuthService.sol\":1117:1138  userLogins[userLogin] */\n      mload(0x40)\n      tag_462\n      swap2\n      swap1\n      tag_167\n      jump\t// in\n    tag_462:\n      swap1\n      dup2\n      mstore\n      0x20\n      add\n      mload(0x40)\n      dup1\n      swap2\n      sub\n      swap1\n      keccak256\n      0x00\n      swap1\n      sload\n      swap1\n      0x0100\n      exp\n      swap1\n      div\n      0xffffffffffffffffffffffffffffffffffffffff\n      and\n        /* \"contracts/AuthService.sol\":1117:1152  userLogins[userLogin] == address(0) */\n      0xffffffffffffffffffffffffffffffffffffffff\n      and\n      eq\n        /* \"contracts/AuthService.sol\":1109:1190  require(userLogins[userLogin] == address(0),\"Your login already exist in system\") */\n      tag_463\n      jumpi\n      mload(0x40)\n      0x08c379a000000000000000000000000000000000000000000000000000000000\n      dup2\n      mstore\n      0x04\n      add\n      tag_464\n      swap1\n      tag_465\n      jump\t// in\n    tag_464:\n      mload(0x40)\n      dup1\n      swap2\n      sub\n      swap1\n      revert\n    tag_463:\n        /* \"contracts/AuthService.sol\":2034:2060  string[] memory reviewList */\n      0x60\n        /* \"contracts/AuthService.sol\":2070:2089  User memory newUser */\n      0x00\n        /* \"contracts/AuthService.sol\":2092:2160  User({fio:fio,userLogin:userLogin,status:status,reviews:reviewList}) */\n      mload(0x40)\n      dup1\n      0x80\n      add\n      0x40\n      mstore\n      dup1\n        /* \"contracts/AuthService.sol\":2133:2139  status */\n      dup8\n        /* \"contracts/AuthService.sol\":2092:2160  User({fio:fio,userLogin:userLogin,status:status,reviews:reviewList}) */\n      dup2\n      mstore\n      0x20\n      add\n        /* \"contracts/AuthService.sol\":2116:2125  userLogin */\n      dup9\n        /* \"contracts/AuthService.sol\":2092:2160  User({fio:fio,userLogin:userLogin,status:status,reviews:reviewList}) */\n      dup2\n      mstore\n      0x20\n      add\n        /* \"contracts/AuthService.sol\":2102:2105  fio */\n      dup10\n        /* \"contracts/AuthService.sol\":2092:2160  User({fio:fio,userLogin:userLogin,status:status,reviews:reviewList}) */\n      dup2\n      mstore\n      0x20\n      add\n        /* \"contracts/AuthService.sol\":2148:2158  reviewList */\n      dup4\n        /* \"contracts/AuthService.sol\":2092:2160  User({fio:fio,userLogin:userLogin,status:status,reviews:reviewList}) */\n      dup2\n      mstore\n      pop\n        /* \"contracts/AuthService.sol\":2070:2160  User memory newUser = User({fio:fio,userLogin:userLogin,status:status,reviews:reviewList}) */\n      swap1\n      pop\n        /* \"contracts/AuthService.sol\":2194:2205  userAddress */\n      dup5\n        /* \"contracts/AuthService.sol\":2170:2180  userLogins */\n      0x01\n        /* \"contracts/AuthService.sol\":2181:2190  userLogin */\n      dup9\n        /* \"contracts/AuthService.sol\":2170:2191  userLogins[userLogin] */\n      mload(0x40)\n      tag_467\n      swap2\n      swap1\n      tag_167\n      jump\t// in\n    tag_467:\n      swap1\n      dup2\n      mstore\n      0x20\n      add\n      mload(0x40)\n      dup1\n      swap2\n      sub\n      swap1\n      keccak256\n      0x00\n        /* \"contracts/AuthService.sol\":2170:2205  userLogins[userLogin] = userAddress */\n      0x0100\n      exp\n      dup2\n      sload\n      dup2\n      0xffffffffffffffffffffffffffffffffffffffff\n      mul\n      not\n      and\n      swap1\n      dup4\n      0xffffffffffffffffffffffffffffffffffffffff\n      and\n      mul\n      or\n      swap1\n      sstore\n      pop\n        /* \"contracts/AuthService.sol\":2236:2243  newUser */\n      dup1\n        /* \"contracts/AuthService.sol\":2215:2220  users */\n      0x02\n        /* \"contracts/AuthService.sol\":2215:2233  users[userAddress] */\n      0x00\n        /* \"contracts/AuthService.sol\":2221:2232  userAddress */\n      dup8\n        /* \"contracts/AuthService.sol\":2215:2233  users[userAddress] */\n      0xffffffffffffffffffffffffffffffffffffffff\n      and\n      0xffffffffffffffffffffffffffffffffffffffff\n      and\n      dup2\n      mstore\n      0x20\n      add\n      swap1\n      dup2\n      mstore\n      0x20\n      add\n      0x00\n      keccak256\n        /* \"contracts/AuthService.sol\":2215:2243  users[userAddress] = newUser */\n      0x00\n      dup3\n      add\n      mload\n      dup2\n      0x00\n      add\n      sstore\n      0x20\n      dup3\n      add\n      mload\n      dup2\n      0x01\n      add\n      swap1\n      dup1\n      mload\n      swap1\n      0x20\n      add\n      swap1\n      tag_468\n      swap3\n      swap2\n      swap1\n      tag_163\n      jump\t// in\n    tag_468:\n      pop\n      0x40\n      dup3\n      add\n      mload\n      dup2\n      0x02\n      add\n      swap1\n      dup1\n      mload\n      swap1\n      0x20\n      add\n      swap1\n      tag_469\n      swap3\n      swap2\n      swap1\n      tag_163\n      jump\t// in\n    tag_469:\n      pop\n      0x60\n      dup3\n      add\n      mload\n      dup2\n      0x03\n      add\n      swap1\n      dup1\n      mload\n      swap1\n      0x20\n      add\n      swap1\n      tag_470\n      swap3\n      swap2\n      swap1\n      tag_471\n      jump\t// in\n    tag_470:\n      pop\n      swap1\n      pop\n      pop\n        /* \"contracts/AuthService.sol\":2024:2250  {... */\n      pop\n      pop\n        /* \"contracts/AuthService.sol\":1875:2250  function registerFromAdmin(string memory fio,string memory userLogin,uint status,address userAddress) internal isNotRegistered(userAddress,userLogin){... */\n      pop\n      pop\n      pop\n      pop\n      pop\n      pop\n      jump\t// out\n        /* \"contracts/AuthService.sol\":779:945  function compare(string memory a,string memory b) internal pure returns (bool){... */\n    tag_156:\n        /* \"contracts/AuthService.sol\":852:856  bool */\n      0x00\n        /* \"contracts/AuthService.sol\":935:936  b */\n      dup2\n        /* \"contracts/AuthService.sol\":918:937  abi.encodePacked(b) */\n      add(0x20, mload(0x40))\n      tag_473\n      swap2\n      swap1\n      tag_167\n      jump\t// in\n    tag_473:\n      mload(0x40)\n      0x20\n      dup2\n      dup4\n      sub\n      sub\n      dup2\n      mstore\n      swap1\n      0x40\n      mstore\n        /* \"contracts/AuthService.sol\":908:938  keccak256(abi.encodePacked(b)) */\n      dup1\n      mload\n      swap1\n      0x20\n      add\n      keccak256\n        /* \"contracts/AuthService.sol\":901:902  a */\n      dup4\n        /* \"contracts/AuthService.sol\":884:903  abi.encodePacked(a) */\n      add(0x20, mload(0x40))\n      tag_474\n      swap2\n      swap1\n      tag_167\n      jump\t// in\n    tag_474:\n      mload(0x40)\n      0x20\n      dup2\n      dup4\n      sub\n      sub\n      dup2\n      mstore\n      swap1\n      0x40\n      mstore\n        /* \"contracts/AuthService.sol\":874:904  keccak256(abi.encodePacked(a)) */\n      dup1\n      mload\n      swap1\n      0x20\n      add\n      keccak256\n        /* \"contracts/AuthService.sol\":874:938  keccak256(abi.encodePacked(a)) == keccak256(abi.encodePacked(b)) */\n      eq\n        /* \"contracts/AuthService.sol\":867:938  return keccak256(abi.encodePacked(a)) == keccak256(abi.encodePacked(b)) */\n      swap1\n      pop\n        /* \"contracts/AuthService.sol\":779:945  function compare(string memory a,string memory b) internal pure returns (bool){... */\n      swap3\n      swap2\n      pop\n      pop\n      jump\t// out\n    tag_163:\n      dup3\n      dup1\n      sload\n      tag_475\n      swap1\n      tag_112\n      jump\t// in\n    tag_475:\n      swap1\n      0x00\n      mstore\n      keccak256(0x00, 0x20)\n      swap1\n      0x1f\n      add\n      0x20\n      swap1\n      div\n      dup2\n      add\n      swap3\n      dup3\n      tag_477\n      jumpi\n      0x00\n      dup6\n      sstore\n      jump(tag_476)\n    tag_477:\n      dup3\n      0x1f\n      lt\n      tag_478\n      jumpi\n      dup1\n      mload\n      not(0xff)\n      and\n      dup4\n      dup1\n      add\n      or\n      dup6\n      sstore\n      jump(tag_476)\n    tag_478:\n      dup3\n      dup1\n      add\n      0x01\n      add\n      dup6\n      sstore\n      dup3\n      iszero\n      tag_476\n      jumpi\n      swap2\n      dup3\n      add\n    tag_479:\n      dup3\n      dup2\n      gt\n      iszero\n      tag_480\n      jumpi\n      dup3\n      mload\n      dup3\n      sstore\n      swap2\n      0x20\n      add\n      swap2\n      swap1\n      0x01\n      add\n      swap1\n      jump(tag_479)\n    tag_480:\n    tag_476:\n      pop\n      swap1\n      pop\n      tag_481\n      swap2\n      swap1\n      tag_482\n      jump\t// in\n    tag_481:\n      pop\n      swap1\n      jump\t// out\n    tag_170:\n      dup3\n      dup1\n      sload\n      dup3\n      dup3\n      sstore\n      swap1\n      0x00\n      mstore\n      keccak256(0x00, 0x20)\n      swap1\n      dup2\n      add\n      swap3\n      dup3\n      iszero\n      tag_483\n      jumpi\n      swap2\n      0x20\n      mul\n      dup3\n      add\n    tag_484:\n      dup3\n      dup2\n      gt\n      iszero\n      tag_485\n      jumpi\n      dup3\n      mload\n      dup3\n      exp(0x0100, 0x00)\n      dup2\n      sload\n      dup2\n      0xffffffffffffffffffffffffffffffffffffffff\n      mul\n      not\n      and\n      swap1\n      dup4\n      0xffffffffffffffffffffffffffffffffffffffff\n      and\n      mul\n      or\n      swap1\n      sstore\n      pop\n      swap2\n      0x20\n      add\n      swap2\n      swap1\n      0x01\n      add\n      swap1\n      jump(tag_484)\n    tag_485:\n    tag_483:\n      pop\n      swap1\n      pop\n      tag_486\n      swap2\n      swap1\n      tag_482\n      jump\t// in\n    tag_486:\n      pop\n      swap1\n      jump\t// out\n    tag_471:\n      dup3\n      dup1\n      sload\n      dup3\n      dup3\n      sstore\n      swap1\n      0x00\n      mstore\n      keccak256(0x00, 0x20)\n      swap1\n      dup2\n      add\n      swap3\n      dup3\n      iszero\n      tag_487\n      jumpi\n      swap2\n      0x20\n      mul\n      dup3\n      add\n    tag_488:\n      dup3\n      dup2\n      gt\n      iszero\n      tag_489\n      jumpi\n      dup3\n      mload\n      dup3\n      swap1\n      dup1\n      mload\n      swap1\n      0x20\n      add\n      swap1\n      tag_490\n      swap3\n      swap2\n      swap1\n      tag_163\n      jump\t// in\n    tag_490:\n      pop\n      swap2\n      0x20\n      add\n      swap2\n      swap1\n      0x01\n      add\n      swap1\n      jump(tag_488)\n    tag_489:\n    tag_487:\n      pop\n      swap1\n      pop\n      tag_491\n      swap2\n      swap1\n      tag_492\n      jump\t// in\n    tag_491:\n      pop\n      swap1\n      jump\t// out\n    tag_482:\n    tag_493:\n      dup1\n      dup3\n      gt\n      iszero\n      tag_494\n      jumpi\n      0x00\n      dup2\n      0x00\n      swap1\n      sstore\n      pop\n      0x01\n      add\n      jump(tag_493)\n    tag_494:\n      pop\n      swap1\n      jump\t// out\n    tag_492:\n    tag_495:\n      dup1\n      dup3\n      gt\n      iszero\n      tag_496\n      jumpi\n      0x00\n      dup2\n      dup2\n      tag_497\n      swap2\n      swap1\n      tag_498\n      jump\t// in\n    tag_497:\n      pop\n      0x01\n      add\n      jump(tag_495)\n    tag_496:\n      pop\n      swap1\n      jump\t// out\n    tag_498:\n      pop\n      dup1\n      sload\n      tag_499\n      swap1\n      tag_112\n      jump\t// in\n    tag_499:\n      0x00\n      dup3\n      sstore\n      dup1\n      0x1f\n      lt\n      tag_501\n      jumpi\n      pop\n      jump(tag_500)\n    tag_501:\n      0x1f\n      add\n      0x20\n      swap1\n      div\n      swap1\n      0x00\n      mstore\n      keccak256(0x00, 0x20)\n      swap1\n      dup2\n      add\n      swap1\n      tag_502\n      swap2\n      swap1\n      tag_482\n      jump\t// in\n    tag_502:\n    tag_500:\n      pop\n      jump\t// out\n        /* \"#utility.yul\":7:419   */\n    tag_504:\n        /* \"#utility.yul\":85:90   */\n      0x00\n        /* \"#utility.yul\":110:176   */\n      tag_506\n        /* \"#utility.yul\":126:175   */\n      tag_507\n        /* \"#utility.yul\":168:174   */\n      dup5\n        /* \"#utility.yul\":126:175   */\n      tag_508\n      jump\t// in\n    tag_507:\n        /* \"#utility.yul\":110:176   */\n      tag_509\n      jump\t// in\n    tag_506:\n        /* \"#utility.yul\":101:176   */\n      swap1\n      pop\n        /* \"#utility.yul\":199:205   */\n      dup3\n        /* \"#utility.yul\":192:197   */\n      dup2\n        /* \"#utility.yul\":185:206   */\n      mstore\n        /* \"#utility.yul\":237:241   */\n      0x20\n        /* \"#utility.yul\":230:235   */\n      dup2\n        /* \"#utility.yul\":226:242   */\n      add\n        /* \"#utility.yul\":275:278   */\n      dup5\n        /* \"#utility.yul\":266:272   */\n      dup5\n        /* \"#utility.yul\":261:264   */\n      dup5\n        /* \"#utility.yul\":257:273   */\n      add\n        /* \"#utility.yul\":254:279   */\n      gt\n        /* \"#utility.yul\":251:363   */\n      iszero\n      tag_510\n      jumpi\n        /* \"#utility.yul\":282:361   */\n      tag_511\n      tag_512\n      jump\t// in\n    tag_511:\n        /* \"#utility.yul\":251:363   */\n    tag_510:\n        /* \"#utility.yul\":372:413   */\n      tag_513\n        /* \"#utility.yul\":406:412   */\n      dup5\n        /* \"#utility.yul\":401:404   */\n      dup3\n        /* \"#utility.yul\":396:399   */\n      dup6\n        /* \"#utility.yul\":372:413   */\n      tag_514\n      jump\t// in\n    tag_513:\n        /* \"#utility.yul\":91:419   */\n      pop\n        /* \"#utility.yul\":7:419   */\n      swap4\n      swap3\n      pop\n      pop\n      pop\n      jump\t// out\n        /* \"#utility.yul\":425:564   */\n    tag_515:\n        /* \"#utility.yul\":471:476   */\n      0x00\n        /* \"#utility.yul\":509:515   */\n      dup2\n        /* \"#utility.yul\":496:516   */\n      calldataload\n        /* \"#utility.yul\":487:516   */\n      swap1\n      pop\n        /* \"#utility.yul\":525:558   */\n      tag_517\n        /* \"#utility.yul\":552:557   */\n      dup2\n        /* \"#utility.yul\":525:558   */\n      tag_518\n      jump\t// in\n    tag_517:\n        /* \"#utility.yul\":425:564   */\n      swap3\n      swap2\n      pop\n      pop\n      jump\t// out\n        /* \"#utility.yul\":570:725   */\n    tag_519:\n        /* \"#utility.yul\":624:629   */\n      0x00\n        /* \"#utility.yul\":662:668   */\n      dup2\n        /* \"#utility.yul\":649:669   */\n      calldataload\n        /* \"#utility.yul\":640:669   */\n      swap1\n      pop\n        /* \"#utility.yul\":678:719   */\n      tag_521\n        /* \"#utility.yul\":713:718   */\n      dup2\n        /* \"#utility.yul\":678:719   */\n      tag_522\n      jump\t// in\n    tag_521:\n        /* \"#utility.yul\":570:725   */\n      swap3\n      swap2\n      pop\n      pop\n      jump\t// out\n        /* \"#utility.yul\":731:868   */\n    tag_523:\n        /* \"#utility.yul\":776:781   */\n      0x00\n        /* \"#utility.yul\":814:820   */\n      dup2\n        /* \"#utility.yul\":801:821   */\n      calldataload\n        /* \"#utility.yul\":792:821   */\n      swap1\n      pop\n        /* \"#utility.yul\":830:862   */\n      tag_525\n        /* \"#utility.yul\":856:861   */\n      dup2\n        /* \"#utility.yul\":830:862   */\n      tag_526\n      jump\t// in\n    tag_525:\n        /* \"#utility.yul\":731:868   */\n      swap3\n      swap2\n      pop\n      pop\n      jump\t// out\n        /* \"#utility.yul\":888:1228   */\n    tag_527:\n        /* \"#utility.yul\":944:949   */\n      0x00\n        /* \"#utility.yul\":993:996   */\n      dup3\n        /* \"#utility.yul\":986:990   */\n      0x1f\n        /* \"#utility.yul\":978:984   */\n      dup4\n        /* \"#utility.yul\":974:991   */\n      add\n        /* \"#utility.yul\":970:997   */\n      slt\n        /* \"#utility.yul\":960:1082   */\n      tag_529\n      jumpi\n        /* \"#utility.yul\":1001:1080   */\n      tag_530\n      tag_531\n      jump\t// in\n    tag_530:\n        /* \"#utility.yul\":960:1082   */\n    tag_529:\n        /* \"#utility.yul\":1118:1124   */\n      dup2\n        /* \"#utility.yul\":1105:1125   */\n      calldataload\n        /* \"#utility.yul\":1143:1222   */\n      tag_532\n        /* \"#utility.yul\":1218:1221   */\n      dup5\n        /* \"#utility.yul\":1210:1216   */\n      dup3\n        /* \"#utility.yul\":1203:1207   */\n      0x20\n        /* \"#utility.yul\":1195:1201   */\n      dup7\n        /* \"#utility.yul\":1191:1208   */\n      add\n        /* \"#utility.yul\":1143:1222   */\n      tag_504\n      jump\t// in\n    tag_532:\n        /* \"#utility.yul\":1134:1222   */\n      swap2\n      pop\n        /* \"#utility.yul\":950:1228   */\n      pop\n        /* \"#utility.yul\":888:1228   */\n      swap3\n      swap2\n      pop\n      pop\n      jump\t// out\n        /* \"#utility.yul\":1234:1563   */\n    tag_28:\n        /* \"#utility.yul\":1293:1299   */\n      0x00\n        /* \"#utility.yul\":1342:1344   */\n      0x20\n        /* \"#utility.yul\":1330:1339   */\n      dup3\n        /* \"#utility.yul\":1321:1328   */\n      dup5\n        /* \"#utility.yul\":1317:1340   */\n      sub\n        /* \"#utility.yul\":1313:1345   */\n      slt\n        /* \"#utility.yul\":1310:1429   */\n      iszero\n      tag_534\n      jumpi\n        /* \"#utility.yul\":1348:1427   */\n      tag_535\n      tag_536\n      jump\t// in\n    tag_535:\n        /* \"#utility.yul\":1310:1429   */\n    tag_534:\n        /* \"#utility.yul\":1468:1469   */\n      0x00\n        /* \"#utility.yul\":1493:1546   */\n      tag_537\n        /* \"#utility.yul\":1538:1545   */\n      dup5\n        /* \"#utility.yul\":1529:1535   */\n      dup3\n        /* \"#utility.yul\":1518:1527   */\n      dup6\n        /* \"#utility.yul\":1514:1536   */\n      add\n        /* \"#utility.yul\":1493:1546   */\n      tag_515\n      jump\t// in\n    tag_537:\n        /* \"#utility.yul\":1483:1546   */\n      swap2\n      pop\n        /* \"#utility.yul\":1439:1556   */\n      pop\n        /* \"#utility.yul\":1234:1563   */\n      swap3\n      swap2\n      pop\n      pop\n      jump\t// out\n        /* \"#utility.yul\":1569:1914   */\n    tag_66:\n        /* \"#utility.yul\":1636:1642   */\n      0x00\n        /* \"#utility.yul\":1685:1687   */\n      0x20\n        /* \"#utility.yul\":1673:1682   */\n      dup3\n        /* \"#utility.yul\":1664:1671   */\n      dup5\n        /* \"#utility.yul\":1660:1683   */\n      sub\n        /* \"#utility.yul\":1656:1688   */\n      slt\n        /* \"#utility.yul\":1653:1772   */\n      iszero\n      tag_539\n      jumpi\n        /* \"#utility.yul\":1691:1770   */\n      tag_540\n      tag_536\n      jump\t// in\n    tag_540:\n        /* \"#utility.yul\":1653:1772   */\n    tag_539:\n        /* \"#utility.yul\":1811:1812   */\n      0x00\n        /* \"#utility.yul\":1836:1897   */\n      tag_541\n        /* \"#utility.yul\":1889:1896   */\n      dup5\n        /* \"#utility.yul\":1880:1886   */\n      dup3\n        /* \"#utility.yul\":1869:1878   */\n      dup6\n        /* \"#utility.yul\":1865:1887   */\n      add\n        /* \"#utility.yul\":1836:1897   */\n      tag_519\n      jump\t// in\n    tag_541:\n        /* \"#utility.yul\":1826:1897   */\n      swap2\n      pop\n        /* \"#utility.yul\":1782:1907   */\n      pop\n        /* \"#utility.yul\":1569:1914   */\n      swap3\n      swap2\n      pop\n      pop\n      jump\t// out\n        /* \"#utility.yul\":1920:2899   */\n    tag_84:\n        /* \"#utility.yul\":2017:2023   */\n      0x00\n        /* \"#utility.yul\":2025:2031   */\n      dup1\n        /* \"#utility.yul\":2033:2039   */\n      0x00\n        /* \"#utility.yul\":2082:2084   */\n      0x60\n        /* \"#utility.yul\":2070:2079   */\n      dup5\n        /* \"#utility.yul\":2061:2068   */\n      dup7\n        /* \"#utility.yul\":2057:2080   */\n      sub\n        /* \"#utility.yul\":2053:2085   */\n      slt\n        /* \"#utility.yul\":2050:2169   */\n      iszero\n      tag_543\n      jumpi\n        /* \"#utility.yul\":2088:2167   */\n      tag_544\n      tag_536\n      jump\t// in\n    tag_544:\n        /* \"#utility.yul\":2050:2169   */\n    tag_543:\n        /* \"#utility.yul\":2208:2209   */\n      0x00\n        /* \"#utility.yul\":2233:2286   */\n      tag_545\n        /* \"#utility.yul\":2278:2285   */\n      dup7\n        /* \"#utility.yul\":2269:2275   */\n      dup3\n        /* \"#utility.yul\":2258:2267   */\n      dup8\n        /* \"#utility.yul\":2254:2276   */\n      add\n        /* \"#utility.yul\":2233:2286   */\n      tag_515\n      jump\t// in\n    tag_545:\n        /* \"#utility.yul\":2223:2286   */\n      swap4\n      pop\n        /* \"#utility.yul\":2179:2296   */\n      pop\n        /* \"#utility.yul\":2363:2365   */\n      0x20\n        /* \"#utility.yul\":2352:2361   */\n      dup5\n        /* \"#utility.yul\":2348:2366   */\n      add\n        /* \"#utility.yul\":2335:2367   */\n      calldataload\n        /* \"#utility.yul\":2394:2412   */\n      0xffffffffffffffff\n        /* \"#utility.yul\":2386:2392   */\n      dup2\n        /* \"#utility.yul\":2383:2413   */\n      gt\n        /* \"#utility.yul\":2380:2497   */\n      iszero\n      tag_546\n      jumpi\n        /* \"#utility.yul\":2416:2495   */\n      tag_547\n      tag_548\n      jump\t// in\n    tag_547:\n        /* \"#utility.yul\":2380:2497   */\n    tag_546:\n        /* \"#utility.yul\":2521:2584   */\n      tag_549\n        /* \"#utility.yul\":2576:2583   */\n      dup7\n        /* \"#utility.yul\":2567:2573   */\n      dup3\n        /* \"#utility.yul\":2556:2565   */\n      dup8\n        /* \"#utility.yul\":2552:2574   */\n      add\n        /* \"#utility.yul\":2521:2584   */\n      tag_527\n      jump\t// in\n    tag_549:\n        /* \"#utility.yul\":2511:2584   */\n      swap3\n      pop\n        /* \"#utility.yul\":2306:2594   */\n      pop\n        /* \"#utility.yul\":2661:2663   */\n      0x40\n        /* \"#utility.yul\":2650:2659   */\n      dup5\n        /* \"#utility.yul\":2646:2664   */\n      add\n        /* \"#utility.yul\":2633:2665   */\n      calldataload\n        /* \"#utility.yul\":2692:2710   */\n      0xffffffffffffffff\n        /* \"#utility.yul\":2684:2690   */\n      dup2\n        /* \"#utility.yul\":2681:2711   */\n      gt\n        /* \"#utility.yul\":2678:2795   */\n      iszero\n      tag_550\n      jumpi\n        /* \"#utility.yul\":2714:2793   */\n      tag_551\n      tag_548\n      jump\t// in\n    tag_551:\n        /* \"#utility.yul\":2678:2795   */\n    tag_550:\n        /* \"#utility.yul\":2819:2882   */\n      tag_552\n        /* \"#utility.yul\":2874:2881   */\n      dup7\n        /* \"#utility.yul\":2865:2871   */\n      dup3\n        /* \"#utility.yul\":2854:2863   */\n      dup8\n        /* \"#utility.yul\":2850:2872   */\n      add\n        /* \"#utility.yul\":2819:2882   */\n      tag_527\n      jump\t// in\n    tag_552:\n        /* \"#utility.yul\":2809:2882   */\n      swap2\n      pop\n        /* \"#utility.yul\":2604:2892   */\n      pop\n        /* \"#utility.yul\":1920:2899   */\n      swap3\n      pop\n      swap3\n      pop\n      swap3\n      jump\t// out\n        /* \"#utility.yul\":2905:4028   */\n    tag_38:\n        /* \"#utility.yul\":3010:3016   */\n      0x00\n        /* \"#utility.yul\":3018:3024   */\n      dup1\n        /* \"#utility.yul\":3026:3032   */\n      0x00\n        /* \"#utility.yul\":3034:3040   */\n      dup1\n        /* \"#utility.yul\":3083:3086   */\n      0x80\n        /* \"#utility.yul\":3071:3080   */\n      dup6\n        /* \"#utility.yul\":3062:3069   */\n      dup8\n        /* \"#utility.yul\":3058:3081   */\n      sub\n        /* \"#utility.yul\":3054:3087   */\n      slt\n        /* \"#utility.yul\":3051:3171   */\n      iszero\n      tag_554\n      jumpi\n        /* \"#utility.yul\":3090:3169   */\n      tag_555\n      tag_536\n      jump\t// in\n    tag_555:\n        /* \"#utility.yul\":3051:3171   */\n    tag_554:\n        /* \"#utility.yul\":3210:3211   */\n      0x00\n        /* \"#utility.yul\":3235:3288   */\n      tag_556\n        /* \"#utility.yul\":3280:3287   */\n      dup8\n        /* \"#utility.yul\":3271:3277   */\n      dup3\n        /* \"#utility.yul\":3260:3269   */\n      dup9\n        /* \"#utility.yul\":3256:3278   */\n      add\n        /* \"#utility.yul\":3235:3288   */\n      tag_515\n      jump\t// in\n    tag_556:\n        /* \"#utility.yul\":3225:3288   */\n      swap5\n      pop\n        /* \"#utility.yul\":3181:3298   */\n      pop\n        /* \"#utility.yul\":3365:3367   */\n      0x20\n        /* \"#utility.yul\":3354:3363   */\n      dup6\n        /* \"#utility.yul\":3350:3368   */\n      add\n        /* \"#utility.yul\":3337:3369   */\n      calldataload\n        /* \"#utility.yul\":3396:3414   */\n      0xffffffffffffffff\n        /* \"#utility.yul\":3388:3394   */\n      dup2\n        /* \"#utility.yul\":3385:3415   */\n      gt\n        /* \"#utility.yul\":3382:3499   */\n      iszero\n      tag_557\n      jumpi\n        /* \"#utility.yul\":3418:3497   */\n      tag_558\n      tag_548\n      jump\t// in\n    tag_558:\n        /* \"#utility.yul\":3382:3499   */\n    tag_557:\n        /* \"#utility.yul\":3523:3586   */\n      tag_559\n        /* \"#utility.yul\":3578:3585   */\n      dup8\n        /* \"#utility.yul\":3569:3575   */\n      dup3\n        /* \"#utility.yul\":3558:3567   */\n      dup9\n        /* \"#utility.yul\":3554:3576   */\n      add\n        /* \"#utility.yul\":3523:3586   */\n      tag_527\n      jump\t// in\n    tag_559:\n        /* \"#utility.yul\":3513:3586   */\n      swap4\n      pop\n        /* \"#utility.yul\":3308:3596   */\n      pop\n        /* \"#utility.yul\":3663:3665   */\n      0x40\n        /* \"#utility.yul\":3652:3661   */\n      dup6\n        /* \"#utility.yul\":3648:3666   */\n      add\n        /* \"#utility.yul\":3635:3667   */\n      calldataload\n        /* \"#utility.yul\":3694:3712   */\n      0xffffffffffffffff\n        /* \"#utility.yul\":3686:3692   */\n      dup2\n        /* \"#utility.yul\":3683:3713   */\n      gt\n        /* \"#utility.yul\":3680:3797   */\n      iszero\n      tag_560\n      jumpi\n        /* \"#utility.yul\":3716:3795   */\n      tag_561\n      tag_548\n      jump\t// in\n    tag_561:\n        /* \"#utility.yul\":3680:3797   */\n    tag_560:\n        /* \"#utility.yul\":3821:3884   */\n      tag_562\n        /* \"#utility.yul\":3876:3883   */\n      dup8\n        /* \"#utility.yul\":3867:3873   */\n      dup3\n        /* \"#utility.yul\":3856:3865   */\n      dup9\n        /* \"#utility.yul\":3852:3874   */\n      add\n        /* \"#utility.yul\":3821:3884   */\n      tag_527\n      jump\t// in\n    tag_562:\n        /* \"#utility.yul\":3811:3884   */\n      swap3\n      pop\n        /* \"#utility.yul\":3606:3894   */\n      pop\n        /* \"#utility.yul\":3933:3935   */\n      0x60\n        /* \"#utility.yul\":3959:4011   */\n      tag_563\n        /* \"#utility.yul\":4003:4010   */\n      dup8\n        /* \"#utility.yul\":3994:4000   */\n      dup3\n        /* \"#utility.yul\":3983:3992   */\n      dup9\n        /* \"#utility.yul\":3979:4001   */\n      add\n        /* \"#utility.yul\":3959:4011   */\n      tag_523\n      jump\t// in\n    tag_563:\n        /* \"#utility.yul\":3949:4011   */\n      swap2\n      pop\n        /* \"#utility.yul\":3904:4021   */\n      pop\n        /* \"#utility.yul\":2905:4028   */\n      swap3\n      swap6\n      swap2\n      swap5\n      pop\n      swap3\n      pop\n      jump\t// out\n        /* \"#utility.yul\":4034:5339   */\n    tag_56:\n        /* \"#utility.yul\":4150:4156   */\n      0x00\n        /* \"#utility.yul\":4158:4164   */\n      dup1\n        /* \"#utility.yul\":4166:4172   */\n      0x00\n        /* \"#utility.yul\":4174:4180   */\n      dup1\n        /* \"#utility.yul\":4223:4226   */\n      0x80\n        /* \"#utility.yul\":4211:4220   */\n      dup6\n        /* \"#utility.yul\":4202:4209   */\n      dup8\n        /* \"#utility.yul\":4198:4221   */\n      sub\n        /* \"#utility.yul\":4194:4227   */\n      slt\n        /* \"#utility.yul\":4191:4311   */\n      iszero\n      tag_565\n      jumpi\n        /* \"#utility.yul\":4230:4309   */\n      tag_566\n      tag_536\n      jump\t// in\n    tag_566:\n        /* \"#utility.yul\":4191:4311   */\n    tag_565:\n        /* \"#utility.yul\":4350:4351   */\n      0x00\n        /* \"#utility.yul\":4375:4428   */\n      tag_567\n        /* \"#utility.yul\":4420:4427   */\n      dup8\n        /* \"#utility.yul\":4411:4417   */\n      dup3\n        /* \"#utility.yul\":4400:4409   */\n      dup9\n        /* \"#utility.yul\":4396:4418   */\n      add\n        /* \"#utility.yul\":4375:4428   */\n      tag_515\n      jump\t// in\n    tag_567:\n        /* \"#utility.yul\":4365:4428   */\n      swap5\n      pop\n        /* \"#utility.yul\":4321:4438   */\n      pop\n        /* \"#utility.yul\":4505:4507   */\n      0x20\n        /* \"#utility.yul\":4494:4503   */\n      dup6\n        /* \"#utility.yul\":4490:4508   */\n      add\n        /* \"#utility.yul\":4477:4509   */\n      calldataload\n        /* \"#utility.yul\":4536:4554   */\n      0xffffffffffffffff\n        /* \"#utility.yul\":4528:4534   */\n      dup2\n        /* \"#utility.yul\":4525:4555   */\n      gt\n        /* \"#utility.yul\":4522:4639   */\n      iszero\n      tag_568\n      jumpi\n        /* \"#utility.yul\":4558:4637   */\n      tag_569\n      tag_548\n      jump\t// in\n    tag_569:\n        /* \"#utility.yul\":4522:4639   */\n    tag_568:\n        /* \"#utility.yul\":4663:4726   */\n      tag_570\n        /* \"#utility.yul\":4718:4725   */\n      dup8\n        /* \"#utility.yul\":4709:4715   */\n      dup3\n        /* \"#utility.yul\":4698:4707   */\n      dup9\n        /* \"#utility.yul\":4694:4716   */\n      add\n        /* \"#utility.yul\":4663:4726   */\n      tag_527\n      jump\t// in\n    tag_570:\n        /* \"#utility.yul\":4653:4726   */\n      swap4\n      pop\n        /* \"#utility.yul\":4448:4736   */\n      pop\n        /* \"#utility.yul\":4803:4805   */\n      0x40\n        /* \"#utility.yul\":4792:4801   */\n      dup6\n        /* \"#utility.yul\":4788:4806   */\n      add\n        /* \"#utility.yul\":4775:4807   */\n      calldataload\n        /* \"#utility.yul\":4834:4852   */\n      0xffffffffffffffff\n        /* \"#utility.yul\":4826:4832   */\n      dup2\n        /* \"#utility.yul\":4823:4853   */\n      gt\n        /* \"#utility.yul\":4820:4937   */\n      iszero\n      tag_571\n      jumpi\n        /* \"#utility.yul\":4856:4935   */\n      tag_572\n      tag_548\n      jump\t// in\n    tag_572:\n        /* \"#utility.yul\":4820:4937   */\n    tag_571:\n        /* \"#utility.yul\":4961:5024   */\n      tag_573\n        /* \"#utility.yul\":5016:5023   */\n      dup8\n        /* \"#utility.yul\":5007:5013   */\n      dup3\n        /* \"#utility.yul\":4996:5005   */\n      dup9\n        /* \"#utility.yul\":4992:5014   */\n      add\n        /* \"#utility.yul\":4961:5024   */\n      tag_527\n      jump\t// in\n    tag_573:\n        /* \"#utility.yul\":4951:5024   */\n      swap3\n      pop\n        /* \"#utility.yul\":4746:5034   */\n      pop\n        /* \"#utility.yul\":5101:5103   */\n      0x60\n        /* \"#utility.yul\":5090:5099   */\n      dup6\n        /* \"#utility.yul\":5086:5104   */\n      add\n        /* \"#utility.yul\":5073:5105   */\n      calldataload\n        /* \"#utility.yul\":5132:5150   */\n      0xffffffffffffffff\n        /* \"#utility.yul\":5124:5130   */\n      dup2\n        /* \"#utility.yul\":5121:5151   */\n      gt\n        /* \"#utility.yul\":5118:5235   */\n      iszero\n      tag_574\n      jumpi\n        /* \"#utility.yul\":5154:5233   */\n      tag_575\n      tag_548\n      jump\t// in\n    tag_575:\n        /* \"#utility.yul\":5118:5235   */\n    tag_574:\n        /* \"#utility.yul\":5259:5322   */\n      tag_576\n        /* \"#utility.yul\":5314:5321   */\n      dup8\n        /* \"#utility.yul\":5305:5311   */\n      dup3\n        /* \"#utility.yul\":5294:5303   */\n      dup9\n        /* \"#utility.yul\":5290:5312   */\n      add\n        /* \"#utility.yul\":5259:5322   */\n      tag_527\n      jump\t// in\n    tag_576:\n        /* \"#utility.yul\":5249:5322   */\n      swap2\n      pop\n        /* \"#utility.yul\":5044:5332   */\n      pop\n        /* \"#utility.yul\":4034:5339   */\n      swap3\n      swap6\n      swap2\n      swap5\n      pop\n      swap3\n      pop\n      jump\t// out\n        /* \"#utility.yul\":5345:5854   */\n    tag_42:\n        /* \"#utility.yul\":5414:5420   */\n      0x00\n        /* \"#utility.yul\":5463:5465   */\n      0x20\n        /* \"#utility.yul\":5451:5460   */\n      dup3\n        /* \"#utility.yul\":5442:5449   */\n      dup5\n        /* \"#utility.yul\":5438:5461   */\n      sub\n        /* \"#utility.yul\":5434:5466   */\n      slt\n        /* \"#utility.yul\":5431:5550   */\n      iszero\n      tag_578\n      jumpi\n        /* \"#utility.yul\":5469:5548   */\n      tag_579\n      tag_536\n      jump\t// in\n    tag_579:\n        /* \"#utility.yul\":5431:5550   */\n    tag_578:\n        /* \"#utility.yul\":5617:5618   */\n      0x00\n        /* \"#utility.yul\":5606:5615   */\n      dup3\n        /* \"#utility.yul\":5602:5619   */\n      add\n        /* \"#utility.yul\":5589:5620   */\n      calldataload\n        /* \"#utility.yul\":5647:5665   */\n      0xffffffffffffffff\n        /* \"#utility.yul\":5639:5645   */\n      dup2\n        /* \"#utility.yul\":5636:5666   */\n      gt\n        /* \"#utility.yul\":5633:5750   */\n      iszero\n      tag_580\n      jumpi\n        /* \"#utility.yul\":5669:5748   */\n      tag_581\n      tag_548\n      jump\t// in\n    tag_581:\n        /* \"#utility.yul\":5633:5750   */\n    tag_580:\n        /* \"#utility.yul\":5774:5837   */\n      tag_582\n        /* \"#utility.yul\":5829:5836   */\n      dup5\n        /* \"#utility.yul\":5820:5826   */\n      dup3\n        /* \"#utility.yul\":5809:5818   */\n      dup6\n        /* \"#utility.yul\":5805:5827   */\n      add\n        /* \"#utility.yul\":5774:5837   */\n      tag_527\n      jump\t// in\n    tag_582:\n        /* \"#utility.yul\":5764:5837   */\n      swap2\n      pop\n        /* \"#utility.yul\":5560:5847   */\n      pop\n        /* \"#utility.yul\":5345:5854   */\n      swap3\n      swap2\n      pop\n      pop\n      jump\t// out\n        /* \"#utility.yul\":5860:6514   */\n    tag_34:\n        /* \"#utility.yul\":5938:5944   */\n      0x00\n        /* \"#utility.yul\":5946:5952   */\n      dup1\n        /* \"#utility.yul\":5995:5997   */\n      0x40\n        /* \"#utility.yul\":5983:5992   */\n      dup4\n        /* \"#utility.yul\":5974:5981   */\n      dup6\n        /* \"#utility.yul\":5970:5993   */\n      sub\n        /* \"#utility.yul\":5966:5998   */\n      slt\n        /* \"#utility.yul\":5963:6082   */\n      iszero\n      tag_584\n      jumpi\n        /* \"#utility.yul\":6001:6080   */\n      tag_585\n      tag_536\n      jump\t// in\n    tag_585:\n        /* \"#utility.yul\":5963:6082   */\n    tag_584:\n        /* \"#utility.yul\":6149:6150   */\n      0x00\n        /* \"#utility.yul\":6138:6147   */\n      dup4\n        /* \"#utility.yul\":6134:6151   */\n      add\n        /* \"#utility.yul\":6121:6152   */\n      calldataload\n        /* \"#utility.yul\":6179:6197   */\n      0xffffffffffffffff\n        /* \"#utility.yul\":6171:6177   */\n      dup2\n        /* \"#utility.yul\":6168:6198   */\n      gt\n        /* \"#utility.yul\":6165:6282   */\n      iszero\n      tag_586\n      jumpi\n        /* \"#utility.yul\":6201:6280   */\n      tag_587\n      tag_548\n      jump\t// in\n    tag_587:\n        /* \"#utility.yul\":6165:6282   */\n    tag_586:\n        /* \"#utility.yul\":6306:6369   */\n      tag_588\n        /* \"#utility.yul\":6361:6368   */\n      dup6\n        /* \"#utility.yul\":6352:6358   */\n      dup3\n        /* \"#utility.yul\":6341:6350   */\n      dup7\n        /* \"#utility.yul\":6337:6359   */\n      add\n        /* \"#utility.yul\":6306:6369   */\n      tag_527\n      jump\t// in\n    tag_588:\n        /* \"#utility.yul\":6296:6369   */\n      swap3\n      pop\n        /* \"#utility.yul\":6092:6379   */\n      pop\n        /* \"#utility.yul\":6418:6420   */\n      0x20\n        /* \"#utility.yul\":6444:6497   */\n      tag_589\n        /* \"#utility.yul\":6489:6496   */\n      dup6\n        /* \"#utility.yul\":6480:6486   */\n      dup3\n        /* \"#utility.yul\":6469:6478   */\n      dup7\n        /* \"#utility.yul\":6465:6487   */\n      add\n        /* \"#utility.yul\":6444:6497   */\n      tag_515\n      jump\t// in\n    tag_589:\n        /* \"#utility.yul\":6434:6497   */\n      swap2\n      pop\n        /* \"#utility.yul\":6389:6507   */\n      pop\n        /* \"#utility.yul\":5860:6514   */\n      swap3\n      pop\n      swap3\n      swap1\n      pop\n      jump\t// out\n        /* \"#utility.yul\":6520:7354   */\n    tag_101:\n        /* \"#utility.yul\":6608:6614   */\n      0x00\n        /* \"#utility.yul\":6616:6622   */\n      dup1\n        /* \"#utility.yul\":6665:6667   */\n      0x40\n        /* \"#utility.yul\":6653:6662   */\n      dup4\n        /* \"#utility.yul\":6644:6651   */\n      dup6\n        /* \"#utility.yul\":6640:6663   */\n      sub\n        /* \"#utility.yul\":6636:6668   */\n      slt\n        /* \"#utility.yul\":6633:6752   */\n      iszero\n      tag_591\n      jumpi\n        /* \"#utility.yul\":6671:6750   */\n      tag_592\n      tag_536\n      jump\t// in\n    tag_592:\n        /* \"#utility.yul\":6633:6752   */\n    tag_591:\n        /* \"#utility.yul\":6819:6820   */\n      0x00\n        /* \"#utility.yul\":6808:6817   */\n      dup4\n        /* \"#utility.yul\":6804:6821   */\n      add\n        /* \"#utility.yul\":6791:6822   */\n      calldataload\n        /* \"#utility.yul\":6849:6867   */\n      0xffffffffffffffff\n        /* \"#utility.yul\":6841:6847   */\n      dup2\n        /* \"#utility.yul\":6838:6868   */\n      gt\n        /* \"#utility.yul\":6835:6952   */\n      iszero\n      tag_593\n      jumpi\n        /* \"#utility.yul\":6871:6950   */\n      tag_594\n      tag_548\n      jump\t// in\n    tag_594:\n        /* \"#utility.yul\":6835:6952   */\n    tag_593:\n        /* \"#utility.yul\":6976:7039   */\n      tag_595\n        /* \"#utility.yul\":7031:7038   */\n      dup6\n        /* \"#utility.yul\":7022:7028   */\n      dup3\n        /* \"#utility.yul\":7011:7020   */\n      dup7\n        /* \"#utility.yul\":7007:7029   */\n      add\n        /* \"#utility.yul\":6976:7039   */\n      tag_527\n      jump\t// in\n    tag_595:\n        /* \"#utility.yul\":6966:7039   */\n      swap3\n      pop\n        /* \"#utility.yul\":6762:7049   */\n      pop\n        /* \"#utility.yul\":7116:7118   */\n      0x20\n        /* \"#utility.yul\":7105:7114   */\n      dup4\n        /* \"#utility.yul\":7101:7119   */\n      add\n        /* \"#utility.yul\":7088:7120   */\n      calldataload\n        /* \"#utility.yul\":7147:7165   */\n      0xffffffffffffffff\n        /* \"#utility.yul\":7139:7145   */\n      dup2\n        /* \"#utility.yul\":7136:7166   */\n      gt\n        /* \"#utility.yul\":7133:7250   */\n      iszero\n      tag_596\n      jumpi\n        /* \"#utility.yul\":7169:7248   */\n      tag_597\n      tag_548\n      jump\t// in\n    tag_597:\n        /* \"#utility.yul\":7133:7250   */\n    tag_596:\n        /* \"#utility.yul\":7274:7337   */\n      tag_598\n        /* \"#utility.yul\":7329:7336   */\n      dup6\n        /* \"#utility.yul\":7320:7326   */\n      dup3\n        /* \"#utility.yul\":7309:7318   */\n      dup7\n        /* \"#utility.yul\":7305:7327   */\n      add\n        /* \"#utility.yul\":7274:7337   */\n      tag_527\n      jump\t// in\n    tag_598:\n        /* \"#utility.yul\":7264:7337   */\n      swap2\n      pop\n        /* \"#utility.yul\":7059:7347   */\n      pop\n        /* \"#utility.yul\":6520:7354   */\n      swap3\n      pop\n      swap3\n      swap1\n      pop\n      jump\t// out\n        /* \"#utility.yul\":7360:8339   */\n    tag_80:\n        /* \"#utility.yul\":7457:7463   */\n      0x00\n        /* \"#utility.yul\":7465:7471   */\n      dup1\n        /* \"#utility.yul\":7473:7479   */\n      0x00\n        /* \"#utility.yul\":7522:7524   */\n      0x60\n        /* \"#utility.yul\":7510:7519   */\n      dup5\n        /* \"#utility.yul\":7501:7508   */\n      dup7\n        /* \"#utility.yul\":7497:7520   */\n      sub\n        /* \"#utility.yul\":7493:7525   */\n      slt\n        /* \"#utility.yul\":7490:7609   */\n      iszero\n      tag_600\n      jumpi\n        /* \"#utility.yul\":7528:7607   */\n      tag_601\n      tag_536\n      jump\t// in\n    tag_601:\n        /* \"#utility.yul\":7490:7609   */\n    tag_600:\n        /* \"#utility.yul\":7676:7677   */\n      0x00\n        /* \"#utility.yul\":7665:7674   */\n      dup5\n        /* \"#utility.yul\":7661:7678   */\n      add\n        /* \"#utility.yul\":7648:7679   */\n      calldataload\n        /* \"#utility.yul\":7706:7724   */\n      0xffffffffffffffff\n        /* \"#utility.yul\":7698:7704   */\n      dup2\n        /* \"#utility.yul\":7695:7725   */\n      gt\n        /* \"#utility.yul\":7692:7809   */\n      iszero\n      tag_602\n      jumpi\n        /* \"#utility.yul\":7728:7807   */\n      tag_603\n      tag_548\n      jump\t// in\n    tag_603:\n        /* \"#utility.yul\":7692:7809   */\n    tag_602:\n        /* \"#utility.yul\":7833:7896   */\n      tag_604\n        /* \"#utility.yul\":7888:7895   */\n      dup7\n        /* \"#utility.yul\":7879:7885   */\n      dup3\n        /* \"#utility.yul\":7868:7877   */\n      dup8\n        /* \"#utility.yul\":7864:7886   */\n      add\n        /* \"#utility.yul\":7833:7896   */\n      tag_527\n      jump\t// in\n    tag_604:\n        /* \"#utility.yul\":7823:7896   */\n      swap4\n      pop\n        /* \"#utility.yul\":7619:7906   */\n      pop\n        /* \"#utility.yul\":7973:7975   */\n      0x20\n        /* \"#utility.yul\":7962:7971   */\n      dup5\n        /* \"#utility.yul\":7958:7976   */\n      add\n        /* \"#utility.yul\":7945:7977   */\n      calldataload\n        /* \"#utility.yul\":8004:8022   */\n      0xffffffffffffffff\n        /* \"#utility.yul\":7996:8002   */\n      dup2\n        /* \"#utility.yul\":7993:8023   */\n      gt\n        /* \"#utility.yul\":7990:8107   */\n      iszero\n      tag_605\n      jumpi\n        /* \"#utility.yul\":8026:8105   */\n      tag_606\n      tag_548\n      jump\t// in\n    tag_606:\n        /* \"#utility.yul\":7990:8107   */\n    tag_605:\n        /* \"#utility.yul\":8131:8194   */\n      tag_607\n        /* \"#utility.yul\":8186:8193   */\n      dup7\n        /* \"#utility.yul\":8177:8183   */\n      dup3\n        /* \"#utility.yul\":8166:8175   */\n      dup8\n        /* \"#utility.yul\":8162:8184   */\n      add\n        /* \"#utility.yul\":8131:8194   */\n      tag_527\n      jump\t// in\n    tag_607:\n        /* \"#utility.yul\":8121:8194   */\n      swap3\n      pop\n        /* \"#utility.yul\":7916:8204   */\n      pop\n        /* \"#utility.yul\":8243:8245   */\n      0x40\n        /* \"#utility.yul\":8269:8322   */\n      tag_608\n        /* \"#utility.yul\":8314:8321   */\n      dup7\n        /* \"#utility.yul\":8305:8311   */\n      dup3\n        /* \"#utility.yul\":8294:8303   */\n      dup8\n        /* \"#utility.yul\":8290:8312   */\n      add\n        /* \"#utility.yul\":8269:8322   */\n      tag_515\n      jump\t// in\n    tag_608:\n        /* \"#utility.yul\":8259:8322   */\n      swap2\n      pop\n        /* \"#utility.yul\":8214:8332   */\n      pop\n        /* \"#utility.yul\":7360:8339   */\n      swap3\n      pop\n      swap3\n      pop\n      swap3\n      jump\t// out\n        /* \"#utility.yul\":8345:9470   */\n    tag_70:\n        /* \"#utility.yul\":8451:8457   */\n      0x00\n        /* \"#utility.yul\":8459:8465   */\n      dup1\n        /* \"#utility.yul\":8467:8473   */\n      0x00\n        /* \"#utility.yul\":8475:8481   */\n      dup1\n        /* \"#utility.yul\":8524:8527   */\n      0x80\n        /* \"#utility.yul\":8512:8521   */\n      dup6\n        /* \"#utility.yul\":8503:8510   */\n      dup8\n        /* \"#utility.yul\":8499:8522   */\n      sub\n        /* \"#utility.yul\":8495:8528   */\n      slt\n        /* \"#utility.yul\":8492:8612   */\n      iszero\n      tag_610\n      jumpi\n        /* \"#utility.yul\":8531:8610   */\n      tag_611\n      tag_536\n      jump\t// in\n    tag_611:\n        /* \"#utility.yul\":8492:8612   */\n    tag_610:\n        /* \"#utility.yul\":8679:8680   */\n      0x00\n        /* \"#utility.yul\":8668:8677   */\n      dup6\n        /* \"#utility.yul\":8664:8681   */\n      add\n        /* \"#utility.yul\":8651:8682   */\n      calldataload\n        /* \"#utility.yul\":8709:8727   */\n      0xffffffffffffffff\n        /* \"#utility.yul\":8701:8707   */\n      dup2\n        /* \"#utility.yul\":8698:8728   */\n      gt\n        /* \"#utility.yul\":8695:8812   */\n      iszero\n      tag_612\n      jumpi\n        /* \"#utility.yul\":8731:8810   */\n      tag_613\n      tag_548\n      jump\t// in\n    tag_613:\n        /* \"#utility.yul\":8695:8812   */\n    tag_612:\n        /* \"#utility.yul\":8836:8899   */\n      tag_614\n        /* \"#utility.yul\":8891:8898   */\n      dup8\n        /* \"#utility.yul\":8882:8888   */\n      dup3\n        /* \"#utility.yul\":8871:8880   */\n      dup9\n        /* \"#utility.yul\":8867:8889   */\n      add\n        /* \"#utility.yul\":8836:8899   */\n      tag_527\n      jump\t// in\n    tag_614:\n        /* \"#utility.yul\":8826:8899   */\n      swap5\n      pop\n        /* \"#utility.yul\":8622:8909   */\n      pop\n        /* \"#utility.yul\":8976:8978   */\n      0x20\n        /* \"#utility.yul\":8965:8974   */\n      dup6\n        /* \"#utility.yul\":8961:8979   */\n      add\n        /* \"#utility.yul\":8948:8980   */\n      calldataload\n        /* \"#utility.yul\":9007:9025   */\n      0xffffffffffffffff\n        /* \"#utility.yul\":8999:9005   */\n      dup2\n        /* \"#utility.yul\":8996:9026   */\n      gt\n        /* \"#utility.yul\":8993:9110   */\n      iszero\n      tag_615\n      jumpi\n        /* \"#utility.yul\":9029:9108   */\n      tag_616\n      tag_548\n      jump\t// in\n    tag_616:\n        /* \"#utility.yul\":8993:9110   */\n    tag_615:\n        /* \"#utility.yul\":9134:9197   */\n      tag_617\n        /* \"#utility.yul\":9189:9196   */\n      dup8\n        /* \"#utility.yul\":9180:9186   */\n      dup3\n        /* \"#utility.yul\":9169:9178   */\n      dup9\n        /* \"#utility.yul\":9165:9187   */\n      add\n        /* \"#utility.yul\":9134:9197   */\n      tag_527\n      jump\t// in\n    tag_617:\n        /* \"#utility.yul\":9124:9197   */\n      swap4\n      pop\n        /* \"#utility.yul\":8919:9207   */\n      pop\n        /* \"#utility.yul\":9246:9248   */\n      0x40\n        /* \"#utility.yul\":9272:9325   */\n      tag_618\n        /* \"#utility.yul\":9317:9324   */\n      dup8\n        /* \"#utility.yul\":9308:9314   */\n      dup3\n        /* \"#utility.yul\":9297:9306   */\n      dup9\n        /* \"#utility.yul\":9293:9315   */\n      add\n        /* \"#utility.yul\":9272:9325   */\n      tag_515\n      jump\t// in\n    tag_618:\n        /* \"#utility.yul\":9262:9325   */\n      swap3\n      pop\n        /* \"#utility.yul\":9217:9335   */\n      pop\n        /* \"#utility.yul\":9374:9376   */\n      0x60\n        /* \"#utility.yul\":9400:9453   */\n      tag_619\n        /* \"#utility.yul\":9445:9452   */\n      dup8\n        /* \"#utility.yul\":9436:9442   */\n      dup3\n        /* \"#utility.yul\":9425:9434   */\n      dup9\n        /* \"#utility.yul\":9421:9443   */\n      add\n        /* \"#utility.yul\":9400:9453   */\n      tag_515\n      jump\t// in\n    tag_619:\n        /* \"#utility.yul\":9390:9453   */\n      swap2\n      pop\n        /* \"#utility.yul\":9345:9463   */\n      pop\n        /* \"#utility.yul\":8345:9470   */\n      swap3\n      swap6\n      swap2\n      swap5\n      pop\n      swap3\n      pop\n      jump\t// out\n        /* \"#utility.yul\":9476:9655   */\n    tag_620:\n        /* \"#utility.yul\":9545:9555   */\n      0x00\n        /* \"#utility.yul\":9566:9612   */\n      tag_622\n        /* \"#utility.yul\":9608:9611   */\n      dup4\n        /* \"#utility.yul\":9600:9606   */\n      dup4\n        /* \"#utility.yul\":9566:9612   */\n      tag_623\n      jump\t// in\n    tag_622:\n        /* \"#utility.yul\":9644:9648   */\n      0x20\n        /* \"#utility.yul\":9639:9642   */\n      dup4\n        /* \"#utility.yul\":9635:9649   */\n      add\n        /* \"#utility.yul\":9621:9649   */\n      swap1\n      pop\n        /* \"#utility.yul\":9476:9655   */\n      swap3\n      swap2\n      pop\n      pop\n      jump\t// out\n        /* \"#utility.yul\":9661:9857   */\n    tag_624:\n        /* \"#utility.yul\":9750:9760   */\n      0x00\n        /* \"#utility.yul\":9785:9851   */\n      tag_626\n        /* \"#utility.yul\":9847:9850   */\n      dup4\n        /* \"#utility.yul\":9839:9845   */\n      dup4\n        /* \"#utility.yul\":9785:9851   */\n      tag_627\n      jump\t// in\n    tag_626:\n        /* \"#utility.yul\":9771:9851   */\n      swap1\n      pop\n        /* \"#utility.yul\":9661:9857   */\n      swap3\n      swap2\n      pop\n      pop\n      jump\t// out\n        /* \"#utility.yul\":9863:10115   */\n    tag_628:\n        /* \"#utility.yul\":9980:9990   */\n      0x00\n        /* \"#utility.yul\":10015:10109   */\n      tag_630\n        /* \"#utility.yul\":10105:10108   */\n      dup4\n        /* \"#utility.yul\":10097:10103   */\n      dup4\n        /* \"#utility.yul\":10015:10109   */\n      tag_631\n      jump\t// in\n    tag_630:\n        /* \"#utility.yul\":10001:10109   */\n      swap1\n      pop\n        /* \"#utility.yul\":9863:10115   */\n      swap3\n      swap2\n      pop\n      pop\n      jump\t// out\n        /* \"#utility.yul\":10121:10229   */\n    tag_623:\n        /* \"#utility.yul\":10198:10222   */\n      tag_633\n        /* \"#utility.yul\":10216:10221   */\n      dup2\n        /* \"#utility.yul\":10198:10222   */\n      tag_634\n      jump\t// in\n    tag_633:\n        /* \"#utility.yul\":10193:10196   */\n      dup3\n        /* \"#utility.yul\":10186:10223   */\n      mstore\n        /* \"#utility.yul\":10121:10229   */\n      pop\n      pop\n      jump\t// out\n        /* \"#utility.yul\":10235:10353   */\n    tag_635:\n        /* \"#utility.yul\":10322:10346   */\n      tag_637\n        /* \"#utility.yul\":10340:10345   */\n      dup2\n        /* \"#utility.yul\":10322:10346   */\n      tag_634\n      jump\t// in\n    tag_637:\n        /* \"#utility.yul\":10317:10320   */\n      dup3\n        /* \"#utility.yul\":10310:10347   */\n      mstore\n        /* \"#utility.yul\":10235:10353   */\n      pop\n      pop\n      jump\t// out\n        /* \"#utility.yul\":10389:11121   */\n    tag_638:\n        /* \"#utility.yul\":10508:10511   */\n      0x00\n        /* \"#utility.yul\":10537:10591   */\n      tag_640\n        /* \"#utility.yul\":10585:10590   */\n      dup3\n        /* \"#utility.yul\":10537:10591   */\n      tag_641\n      jump\t// in\n    tag_640:\n        /* \"#utility.yul\":10607:10693   */\n      tag_642\n        /* \"#utility.yul\":10686:10692   */\n      dup2\n        /* \"#utility.yul\":10681:10684   */\n      dup6\n        /* \"#utility.yul\":10607:10693   */\n      tag_643\n      jump\t// in\n    tag_642:\n        /* \"#utility.yul\":10600:10693   */\n      swap4\n      pop\n        /* \"#utility.yul\":10717:10773   */\n      tag_644\n        /* \"#utility.yul\":10767:10772   */\n      dup4\n        /* \"#utility.yul\":10717:10773   */\n      tag_645\n      jump\t// in\n    tag_644:\n        /* \"#utility.yul\":10796:10803   */\n      dup1\n        /* \"#utility.yul\":10827:10828   */\n      0x00\n        /* \"#utility.yul\":10812:11096   */\n    tag_646:\n        /* \"#utility.yul\":10837:10843   */\n      dup4\n        /* \"#utility.yul\":10834:10835   */\n      dup2\n        /* \"#utility.yul\":10831:10844   */\n      lt\n        /* \"#utility.yul\":10812:11096   */\n      iszero\n      tag_648\n      jumpi\n        /* \"#utility.yul\":10913:10919   */\n      dup2\n        /* \"#utility.yul\":10907:10920   */\n      mload\n        /* \"#utility.yul\":10940:11003   */\n      tag_649\n        /* \"#utility.yul\":10999:11002   */\n      dup9\n        /* \"#utility.yul\":10984:10997   */\n      dup3\n        /* \"#utility.yul\":10940:11003   */\n      tag_620\n      jump\t// in\n    tag_649:\n        /* \"#utility.yul\":10933:11003   */\n      swap8\n      pop\n        /* \"#utility.yul\":11026:11086   */\n      tag_650\n        /* \"#utility.yul\":11079:11085   */\n      dup4\n        /* \"#utility.yul\":11026:11086   */\n      tag_651\n      jump\t// in\n    tag_650:\n        /* \"#utility.yul\":11016:11086   */\n      swap3\n      pop\n        /* \"#utility.yul\":10872:11096   */\n      pop\n        /* \"#utility.yul\":10859:10860   */\n      0x01\n        /* \"#utility.yul\":10856:10857   */\n      dup2\n        /* \"#utility.yul\":10852:10861   */\n      add\n        /* \"#utility.yul\":10847:10861   */\n      swap1\n      pop\n        /* \"#utility.yul\":10812:11096   */\n      jump(tag_646)\n    tag_648:\n        /* \"#utility.yul\":10816:10830   */\n      pop\n        /* \"#utility.yul\":11112:11115   */\n      dup6\n        /* \"#utility.yul\":11105:11115   */\n      swap4\n      pop\n        /* \"#utility.yul\":10513:11121   */\n      pop\n      pop\n      pop\n        /* \"#utility.yul\":10389:11121   */\n      swap3\n      swap2\n      pop\n      pop\n      jump\t// out\n        /* \"#utility.yul\":11155:12146   */\n    tag_652:\n        /* \"#utility.yul\":11294:11297   */\n      0x00\n        /* \"#utility.yul\":11323:11387   */\n      tag_654\n        /* \"#utility.yul\":11381:11386   */\n      dup3\n        /* \"#utility.yul\":11323:11387   */\n      tag_655\n      jump\t// in\n    tag_654:\n        /* \"#utility.yul\":11403:11499   */\n      tag_656\n        /* \"#utility.yul\":11492:11498   */\n      dup2\n        /* \"#utility.yul\":11487:11490   */\n      dup6\n        /* \"#utility.yul\":11403:11499   */\n      tag_657\n      jump\t// in\n    tag_656:\n        /* \"#utility.yul\":11396:11499   */\n      swap4\n      pop\n        /* \"#utility.yul\":11525:11528   */\n      dup4\n        /* \"#utility.yul\":11570:11574   */\n      0x20\n        /* \"#utility.yul\":11562:11568   */\n      dup3\n        /* \"#utility.yul\":11558:11575   */\n      mul\n        /* \"#utility.yul\":11553:11556   */\n      dup6\n        /* \"#utility.yul\":11549:11576   */\n      add\n        /* \"#utility.yul\":11600:11666   */\n      tag_658\n        /* \"#utility.yul\":11660:11665   */\n      dup6\n        /* \"#utility.yul\":11600:11666   */\n      tag_659\n      jump\t// in\n    tag_658:\n        /* \"#utility.yul\":11689:11696   */\n      dup1\n        /* \"#utility.yul\":11720:11721   */\n      0x00\n        /* \"#utility.yul\":11705:12101   */\n    tag_660:\n        /* \"#utility.yul\":11730:11736   */\n      dup6\n        /* \"#utility.yul\":11727:11728   */\n      dup2\n        /* \"#utility.yul\":11724:11737   */\n      lt\n        /* \"#utility.yul\":11705:12101   */\n      iszero\n      tag_662\n      jumpi\n        /* \"#utility.yul\":11801:11810   */\n      dup5\n        /* \"#utility.yul\":11795:11799   */\n      dup5\n        /* \"#utility.yul\":11791:11811   */\n      sub\n        /* \"#utility.yul\":11786:11789   */\n      dup10\n        /* \"#utility.yul\":11779:11812   */\n      mstore\n        /* \"#utility.yul\":11852:11858   */\n      dup2\n        /* \"#utility.yul\":11846:11859   */\n      mload\n        /* \"#utility.yul\":11880:11964   */\n      tag_663\n        /* \"#utility.yul\":11959:11963   */\n      dup6\n        /* \"#utility.yul\":11944:11957   */\n      dup3\n        /* \"#utility.yul\":11880:11964   */\n      tag_624\n      jump\t// in\n    tag_663:\n        /* \"#utility.yul\":11872:11964   */\n      swap5\n      pop\n        /* \"#utility.yul\":11987:12057   */\n      tag_664\n        /* \"#utility.yul\":12050:12056   */\n      dup4\n        /* \"#utility.yul\":11987:12057   */\n      tag_665\n      jump\t// in\n    tag_664:\n        /* \"#utility.yul\":11977:12057   */\n      swap3\n      pop\n        /* \"#utility.yul\":12086:12090   */\n      0x20\n        /* \"#utility.yul\":12081:12084   */\n      dup11\n        /* \"#utility.yul\":12077:12091   */\n      add\n        /* \"#utility.yul\":12070:12091   */\n      swap10\n      pop\n        /* \"#utility.yul\":11765:12101   */\n      pop\n        /* \"#utility.yul\":11752:11753   */\n      0x01\n        /* \"#utility.yul\":11749:11750   */\n      dup2\n        /* \"#utility.yul\":11745:11754   */\n      add\n        /* \"#utility.yul\":11740:11754   */\n      swap1\n      pop\n        /* \"#utility.yul\":11705:12101   */\n      jump(tag_660)\n    tag_662:\n        /* \"#utility.yul\":11709:11723   */\n      pop\n        /* \"#utility.yul\":12117:12121   */\n      dup3\n        /* \"#utility.yul\":12110:12121   */\n      swap8\n      pop\n        /* \"#utility.yul\":12137:12140   */\n      dup8\n        /* \"#utility.yul\":12130:12140   */\n      swap6\n      pop\n        /* \"#utility.yul\":11299:12146   */\n      pop\n      pop\n      pop\n      pop\n      pop\n        /* \"#utility.yul\":11155:12146   */\n      swap3\n      swap2\n      pop\n      pop\n      jump\t// out\n        /* \"#utility.yul\":12196:13299   */\n    tag_666:\n        /* \"#utility.yul\":12363:12366   */\n      0x00\n        /* \"#utility.yul\":12392:12470   */\n      tag_668\n        /* \"#utility.yul\":12464:12469   */\n      dup3\n        /* \"#utility.yul\":12392:12470   */\n      tag_669\n      jump\t// in\n    tag_668:\n        /* \"#utility.yul\":12486:12596   */\n      tag_670\n        /* \"#utility.yul\":12589:12595   */\n      dup2\n        /* \"#utility.yul\":12584:12587   */\n      dup6\n        /* \"#utility.yul\":12486:12596   */\n      tag_671\n      jump\t// in\n    tag_670:\n        /* \"#utility.yul\":12479:12596   */\n      swap4\n      pop\n        /* \"#utility.yul\":12622:12625   */\n      dup4\n        /* \"#utility.yul\":12667:12671   */\n      0x20\n        /* \"#utility.yul\":12659:12665   */\n      dup3\n        /* \"#utility.yul\":12655:12672   */\n      mul\n        /* \"#utility.yul\":12650:12653   */\n      dup6\n        /* \"#utility.yul\":12646:12673   */\n      add\n        /* \"#utility.yul\":12697:12777   */\n      tag_672\n        /* \"#utility.yul\":12771:12776   */\n      dup6\n        /* \"#utility.yul\":12697:12777   */\n      tag_673\n      jump\t// in\n    tag_672:\n        /* \"#utility.yul\":12800:12807   */\n      dup1\n        /* \"#utility.yul\":12831:12832   */\n      0x00\n        /* \"#utility.yul\":12816:13254   */\n    tag_674:\n        /* \"#utility.yul\":12841:12847   */\n      dup6\n        /* \"#utility.yul\":12838:12839   */\n      dup2\n        /* \"#utility.yul\":12835:12848   */\n      lt\n        /* \"#utility.yul\":12816:13254   */\n      iszero\n      tag_676\n      jumpi\n        /* \"#utility.yul\":12912:12921   */\n      dup5\n        /* \"#utility.yul\":12906:12910   */\n      dup5\n        /* \"#utility.yul\":12902:12922   */\n      sub\n        /* \"#utility.yul\":12897:12900   */\n      dup10\n        /* \"#utility.yul\":12890:12923   */\n      mstore\n        /* \"#utility.yul\":12963:12969   */\n      dup2\n        /* \"#utility.yul\":12957:12970   */\n      mload\n        /* \"#utility.yul\":12991:13103   */\n      tag_677\n        /* \"#utility.yul\":13098:13102   */\n      dup6\n        /* \"#utility.yul\":13083:13096   */\n      dup3\n        /* \"#utility.yul\":12991:13103   */\n      tag_628\n      jump\t// in\n    tag_677:\n        /* \"#utility.yul\":12983:13103   */\n      swap5\n      pop\n        /* \"#utility.yul\":13126:13210   */\n      tag_678\n        /* \"#utility.yul\":13203:13209   */\n      dup4\n        /* \"#utility.yul\":13126:13210   */\n      tag_679\n      jump\t// in\n    tag_678:\n        /* \"#utility.yul\":13116:13210   */\n      swap3\n      pop\n        /* \"#utility.yul\":13239:13243   */\n      0x20\n        /* \"#utility.yul\":13234:13237   */\n      dup11\n        /* \"#utility.yul\":13230:13244   */\n      add\n        /* \"#utility.yul\":13223:13244   */\n      swap10\n      pop\n        /* \"#utility.yul\":12876:13254   */\n      pop\n        /* \"#utility.yul\":12863:12864   */\n      0x01\n        /* \"#utility.yul\":12860:12861   */\n      dup2\n        /* \"#utility.yul\":12856:12865   */\n      add\n        /* \"#utility.yul\":12851:12865   */\n      swap1\n      pop\n        /* \"#utility.yul\":12816:13254   */\n      jump(tag_674)\n    tag_676:\n        /* \"#utility.yul\":12820:12834   */\n      pop\n        /* \"#utility.yul\":13270:13274   */\n      dup3\n        /* \"#utility.yul\":13263:13274   */\n      swap8\n      pop\n        /* \"#utility.yul\":13290:13293   */\n      dup8\n        /* \"#utility.yul\":13283:13293   */\n      swap6\n      pop\n        /* \"#utility.yul\":12368:13299   */\n      pop\n      pop\n      pop\n      pop\n      pop\n        /* \"#utility.yul\":12196:13299   */\n      swap3\n      swap2\n      pop\n      pop\n      jump\t// out\n        /* \"#utility.yul\":13305:13404   */\n    tag_680:\n        /* \"#utility.yul\":13376:13397   */\n      tag_682\n        /* \"#utility.yul\":13391:13396   */\n      dup2\n        /* \"#utility.yul\":13376:13397   */\n      tag_683\n      jump\t// in\n    tag_682:\n        /* \"#utility.yul\":13371:13374   */\n      dup3\n        /* \"#utility.yul\":13364:13398   */\n      mstore\n        /* \"#utility.yul\":13305:13404   */\n      pop\n      pop\n      jump\t// out\n        /* \"#utility.yul\":13410:13525   */\n    tag_684:\n        /* \"#utility.yul\":13495:13518   */\n      tag_686\n        /* \"#utility.yul\":13512:13517   */\n      dup2\n        /* \"#utility.yul\":13495:13518   */\n      tag_687\n      jump\t// in\n    tag_686:\n        /* \"#utility.yul\":13490:13493   */\n      dup3\n        /* \"#utility.yul\":13483:13519   */\n      mstore\n        /* \"#utility.yul\":13410:13525   */\n      pop\n      pop\n      jump\t// out\n        /* \"#utility.yul\":13531:13875   */\n    tag_627:\n        /* \"#utility.yul\":13609:13612   */\n      0x00\n        /* \"#utility.yul\":13637:13676   */\n      tag_689\n        /* \"#utility.yul\":13670:13675   */\n      dup3\n        /* \"#utility.yul\":13637:13676   */\n      tag_690\n      jump\t// in\n    tag_689:\n        /* \"#utility.yul\":13692:13753   */\n      tag_691\n        /* \"#utility.yul\":13746:13752   */\n      dup2\n        /* \"#utility.yul\":13741:13744   */\n      dup6\n        /* \"#utility.yul\":13692:13753   */\n      tag_692\n      jump\t// in\n    tag_691:\n        /* \"#utility.yul\":13685:13753   */\n      swap4\n      pop\n        /* \"#utility.yul\":13762:13814   */\n      tag_693\n        /* \"#utility.yul\":13807:13813   */\n      dup2\n        /* \"#utility.yul\":13802:13805   */\n      dup6\n        /* \"#utility.yul\":13795:13799   */\n      0x20\n        /* \"#utility.yul\":13788:13793   */\n      dup7\n        /* \"#utility.yul\":13784:13800   */\n      add\n        /* \"#utility.yul\":13762:13814   */\n      tag_694\n      jump\t// in\n    tag_693:\n        /* \"#utility.yul\":13839:13868   */\n      tag_695\n        /* \"#utility.yul\":13861:13867   */\n      dup2\n        /* \"#utility.yul\":13839:13868   */\n      tag_696\n      jump\t// in\n    tag_695:\n        /* \"#utility.yul\":13834:13837   */\n      dup5\n        /* \"#utility.yul\":13830:13869   */\n      add\n        /* \"#utility.yul\":13823:13869   */\n      swap2\n      pop\n        /* \"#utility.yul\":13613:13875   */\n      pop\n        /* \"#utility.yul\":13531:13875   */\n      swap3\n      swap2\n      pop\n      pop\n      jump\t// out\n        /* \"#utility.yul\":13881:14245   */\n    tag_697:\n        /* \"#utility.yul\":13969:13972   */\n      0x00\n        /* \"#utility.yul\":13997:14036   */\n      tag_699\n        /* \"#utility.yul\":14030:14035   */\n      dup3\n        /* \"#utility.yul\":13997:14036   */\n      tag_690\n      jump\t// in\n    tag_699:\n        /* \"#utility.yul\":14052:14123   */\n      tag_700\n        /* \"#utility.yul\":14116:14122   */\n      dup2\n        /* \"#utility.yul\":14111:14114   */\n      dup6\n        /* \"#utility.yul\":14052:14123   */\n      tag_701\n      jump\t// in\n    tag_700:\n        /* \"#utility.yul\":14045:14123   */\n      swap4\n      pop\n        /* \"#utility.yul\":14132:14184   */\n      tag_702\n        /* \"#utility.yul\":14177:14183   */\n      dup2\n        /* \"#utility.yul\":14172:14175   */\n      dup6\n        /* \"#utility.yul\":14165:14169   */\n      0x20\n        /* \"#utility.yul\":14158:14163   */\n      dup7\n        /* \"#utility.yul\":14154:14170   */\n      add\n        /* \"#utility.yul\":14132:14184   */\n      tag_694\n      jump\t// in\n    tag_702:\n        /* \"#utility.yul\":14209:14238   */\n      tag_703\n        /* \"#utility.yul\":14231:14237   */\n      dup2\n        /* \"#utility.yul\":14209:14238   */\n      tag_696\n      jump\t// in\n    tag_703:\n        /* \"#utility.yul\":14204:14207   */\n      dup5\n        /* \"#utility.yul\":14200:14239   */\n      add\n        /* \"#utility.yul\":14193:14239   */\n      swap2\n      pop\n        /* \"#utility.yul\":13973:14245   */\n      pop\n        /* \"#utility.yul\":13881:14245   */\n      swap3\n      swap2\n      pop\n      pop\n      jump\t// out\n        /* \"#utility.yul\":14251:14628   */\n    tag_704:\n        /* \"#utility.yul\":14357:14360   */\n      0x00\n        /* \"#utility.yul\":14385:14424   */\n      tag_706\n        /* \"#utility.yul\":14418:14423   */\n      dup3\n        /* \"#utility.yul\":14385:14424   */\n      tag_690\n      jump\t// in\n    tag_706:\n        /* \"#utility.yul\":14440:14529   */\n      tag_707\n        /* \"#utility.yul\":14522:14528   */\n      dup2\n        /* \"#utility.yul\":14517:14520   */\n      dup6\n        /* \"#utility.yul\":14440:14529   */\n      tag_708\n      jump\t// in\n    tag_707:\n        /* \"#utility.yul\":14433:14529   */\n      swap4\n      pop\n        /* \"#utility.yul\":14538:14590   */\n      tag_709\n        /* \"#utility.yul\":14583:14589   */\n      dup2\n        /* \"#utility.yul\":14578:14581   */\n      dup6\n        /* \"#utility.yul\":14571:14575   */\n      0x20\n        /* \"#utility.yul\":14564:14569   */\n      dup7\n        /* \"#utility.yul\":14560:14576   */\n      add\n        /* \"#utility.yul\":14538:14590   */\n      tag_694\n      jump\t// in\n    tag_709:\n        /* \"#utility.yul\":14615:14621   */\n      dup1\n        /* \"#utility.yul\":14610:14613   */\n      dup5\n        /* \"#utility.yul\":14606:14622   */\n      add\n        /* \"#utility.yul\":14599:14622   */\n      swap2\n      pop\n        /* \"#utility.yul\":14361:14628   */\n      pop\n        /* \"#utility.yul\":14251:14628   */\n      swap3\n      swap2\n      pop\n      pop\n      jump\t// out\n        /* \"#utility.yul\":14634:15000   */\n    tag_710:\n        /* \"#utility.yul\":14776:14779   */\n      0x00\n        /* \"#utility.yul\":14797:14864   */\n      tag_712\n        /* \"#utility.yul\":14861:14863   */\n      0x1b\n        /* \"#utility.yul\":14856:14859   */\n      dup4\n        /* \"#utility.yul\":14797:14864   */\n      tag_701\n      jump\t// in\n    tag_712:\n        /* \"#utility.yul\":14790:14864   */\n      swap2\n      pop\n        /* \"#utility.yul\":14873:14966   */\n      tag_713\n        /* \"#utility.yul\":14962:14965   */\n      dup3\n        /* \"#utility.yul\":14873:14966   */\n      tag_714\n      jump\t// in\n    tag_713:\n        /* \"#utility.yul\":14991:14993   */\n      0x20\n        /* \"#utility.yul\":14986:14989   */\n      dup3\n        /* \"#utility.yul\":14982:14994   */\n      add\n        /* \"#utility.yul\":14975:14994   */\n      swap1\n      pop\n        /* \"#utility.yul\":14634:15000   */\n      swap2\n      swap1\n      pop\n      jump\t// out\n        /* \"#utility.yul\":15006:15372   */\n    tag_715:\n        /* \"#utility.yul\":15148:15151   */\n      0x00\n        /* \"#utility.yul\":15169:15236   */\n      tag_717\n        /* \"#utility.yul\":15233:15235   */\n      0x22\n        /* \"#utility.yul\":15228:15231   */\n      dup4\n        /* \"#utility.yul\":15169:15236   */\n      tag_701\n      jump\t// in\n    tag_717:\n        /* \"#utility.yul\":15162:15236   */\n      swap2\n      pop\n        /* \"#utility.yul\":15245:15338   */\n      tag_718\n        /* \"#utility.yul\":15334:15337   */\n      dup3\n        /* \"#utility.yul\":15245:15338   */\n      tag_719\n      jump\t// in\n    tag_718:\n        /* \"#utility.yul\":15363:15365   */\n      0x40\n        /* \"#utility.yul\":15358:15361   */\n      dup3\n        /* \"#utility.yul\":15354:15366   */\n      add\n        /* \"#utility.yul\":15347:15366   */\n      swap1\n      pop\n        /* \"#utility.yul\":15006:15372   */\n      swap2\n      swap1\n      pop\n      jump\t// out\n        /* \"#utility.yul\":15378:15744   */\n    tag_720:\n        /* \"#utility.yul\":15520:15523   */\n      0x00\n        /* \"#utility.yul\":15541:15608   */\n      tag_722\n        /* \"#utility.yul\":15605:15607   */\n      0x0b\n        /* \"#utility.yul\":15600:15603   */\n      dup4\n        /* \"#utility.yul\":15541:15608   */\n      tag_701\n      jump\t// in\n    tag_722:\n        /* \"#utility.yul\":15534:15608   */\n      swap2\n      pop\n        /* \"#utility.yul\":15617:15710   */\n      tag_723\n        /* \"#utility.yul\":15706:15709   */\n      dup3\n        /* \"#utility.yul\":15617:15710   */\n      tag_724\n      jump\t// in\n    tag_723:\n        /* \"#utility.yul\":15735:15737   */\n      0x20\n        /* \"#utility.yul\":15730:15733   */\n      dup3\n        /* \"#utility.yul\":15726:15738   */\n      add\n        /* \"#utility.yul\":15719:15738   */\n      swap1\n      pop\n        /* \"#utility.yul\":15378:15744   */\n      swap2\n      swap1\n      pop\n      jump\t// out\n        /* \"#utility.yul\":15750:16115   */\n    tag_725:\n        /* \"#utility.yul\":15892:15895   */\n      0x00\n        /* \"#utility.yul\":15913:15979   */\n      tag_727\n        /* \"#utility.yul\":15977:15978   */\n      0x09\n        /* \"#utility.yul\":15972:15975   */\n      dup4\n        /* \"#utility.yul\":15913:15979   */\n      tag_701\n      jump\t// in\n    tag_727:\n        /* \"#utility.yul\":15906:15979   */\n      swap2\n      pop\n        /* \"#utility.yul\":15988:16081   */\n      tag_728\n        /* \"#utility.yul\":16077:16080   */\n      dup3\n        /* \"#utility.yul\":15988:16081   */\n      tag_729\n      jump\t// in\n    tag_728:\n        /* \"#utility.yul\":16106:16108   */\n      0x20\n        /* \"#utility.yul\":16101:16104   */\n      dup3\n        /* \"#utility.yul\":16097:16109   */\n      add\n        /* \"#utility.yul\":16090:16109   */\n      swap1\n      pop\n        /* \"#utility.yul\":15750:16115   */\n      swap2\n      swap1\n      pop\n      jump\t// out\n        /* \"#utility.yul\":16121:16487   */\n    tag_730:\n        /* \"#utility.yul\":16263:16266   */\n      0x00\n        /* \"#utility.yul\":16284:16351   */\n      tag_732\n        /* \"#utility.yul\":16348:16350   */\n      0x0c\n        /* \"#utility.yul\":16343:16346   */\n      dup4\n        /* \"#utility.yul\":16284:16351   */\n      tag_701\n      jump\t// in\n    tag_732:\n        /* \"#utility.yul\":16277:16351   */\n      swap2\n      pop\n        /* \"#utility.yul\":16360:16453   */\n      tag_733\n        /* \"#utility.yul\":16449:16452   */\n      dup3\n        /* \"#utility.yul\":16360:16453   */\n      tag_734\n      jump\t// in\n    tag_733:\n        /* \"#utility.yul\":16478:16480   */\n      0x20\n        /* \"#utility.yul\":16473:16476   */\n      dup3\n        /* \"#utility.yul\":16469:16481   */\n      add\n        /* \"#utility.yul\":16462:16481   */\n      swap1\n      pop\n        /* \"#utility.yul\":16121:16487   */\n      swap2\n      swap1\n      pop\n      jump\t// out\n        /* \"#utility.yul\":16493:16859   */\n    tag_735:\n        /* \"#utility.yul\":16635:16638   */\n      0x00\n        /* \"#utility.yul\":16656:16723   */\n      tag_737\n        /* \"#utility.yul\":16720:16722   */\n      0x0d\n        /* \"#utility.yul\":16715:16718   */\n      dup4\n        /* \"#utility.yul\":16656:16723   */\n      tag_701\n      jump\t// in\n    tag_737:\n        /* \"#utility.yul\":16649:16723   */\n      swap2\n      pop\n        /* \"#utility.yul\":16732:16825   */\n      tag_738\n        /* \"#utility.yul\":16821:16824   */\n      dup3\n        /* \"#utility.yul\":16732:16825   */\n      tag_739\n      jump\t// in\n    tag_738:\n        /* \"#utility.yul\":16850:16852   */\n      0x20\n        /* \"#utility.yul\":16845:16848   */\n      dup3\n        /* \"#utility.yul\":16841:16853   */\n      add\n        /* \"#utility.yul\":16834:16853   */\n      swap1\n      pop\n        /* \"#utility.yul\":16493:16859   */\n      swap2\n      swap1\n      pop\n      jump\t// out\n        /* \"#utility.yul\":16865:17231   */\n    tag_740:\n        /* \"#utility.yul\":17007:17010   */\n      0x00\n        /* \"#utility.yul\":17028:17095   */\n      tag_742\n        /* \"#utility.yul\":17092:17094   */\n      0x16\n        /* \"#utility.yul\":17087:17090   */\n      dup4\n        /* \"#utility.yul\":17028:17095   */\n      tag_701\n      jump\t// in\n    tag_742:\n        /* \"#utility.yul\":17021:17095   */\n      swap2\n      pop\n        /* \"#utility.yul\":17104:17197   */\n      tag_743\n        /* \"#utility.yul\":17193:17196   */\n      dup3\n        /* \"#utility.yul\":17104:17197   */\n      tag_744\n      jump\t// in\n    tag_743:\n        /* \"#utility.yul\":17222:17224   */\n      0x20\n        /* \"#utility.yul\":17217:17220   */\n      dup3\n        /* \"#utility.yul\":17213:17225   */\n      add\n        /* \"#utility.yul\":17206:17225   */\n      swap1\n      pop\n        /* \"#utility.yul\":16865:17231   */\n      swap2\n      swap1\n      pop\n      jump\t// out\n        /* \"#utility.yul\":17237:17603   */\n    tag_745:\n        /* \"#utility.yul\":17379:17382   */\n      0x00\n        /* \"#utility.yul\":17400:17467   */\n      tag_747\n        /* \"#utility.yul\":17464:17466   */\n      0x0b\n        /* \"#utility.yul\":17459:17462   */\n      dup4\n        /* \"#utility.yul\":17400:17467   */\n      tag_701\n      jump\t// in\n    tag_747:\n        /* \"#utility.yul\":17393:17467   */\n      swap2\n      pop\n        /* \"#utility.yul\":17476:17569   */\n      tag_748\n        /* \"#utility.yul\":17565:17568   */\n      dup3\n        /* \"#utility.yul\":17476:17569   */\n      tag_749\n      jump\t// in\n    tag_748:\n        /* \"#utility.yul\":17594:17596   */\n      0x20\n        /* \"#utility.yul\":17589:17592   */\n      dup3\n        /* \"#utility.yul\":17585:17597   */\n      add\n        /* \"#utility.yul\":17578:17597   */\n      swap1\n      pop\n        /* \"#utility.yul\":17237:17603   */\n      swap2\n      swap1\n      pop\n      jump\t// out\n        /* \"#utility.yul\":17649:18677   */\n    tag_631:\n        /* \"#utility.yul\":17756:17759   */\n      0x00\n        /* \"#utility.yul\":17792:17796   */\n      0x80\n        /* \"#utility.yul\":17787:17790   */\n      dup4\n        /* \"#utility.yul\":17783:17797   */\n      add\n        /* \"#utility.yul\":17883:17887   */\n      0x00\n        /* \"#utility.yul\":17876:17881   */\n      dup4\n        /* \"#utility.yul\":17872:17888   */\n      add\n        /* \"#utility.yul\":17866:17889   */\n      mload\n        /* \"#utility.yul\":17902:17965   */\n      tag_751\n        /* \"#utility.yul\":17959:17963   */\n      0x00\n        /* \"#utility.yul\":17954:17957   */\n      dup7\n        /* \"#utility.yul\":17950:17964   */\n      add\n        /* \"#utility.yul\":17936:17948   */\n      dup3\n        /* \"#utility.yul\":17902:17965   */\n      tag_623\n      jump\t// in\n    tag_751:\n        /* \"#utility.yul\":17807:17975   */\n      pop\n        /* \"#utility.yul\":18064:18068   */\n      0x20\n        /* \"#utility.yul\":18057:18062   */\n      dup4\n        /* \"#utility.yul\":18053:18069   */\n      add\n        /* \"#utility.yul\":18047:18070   */\n      mload\n        /* \"#utility.yul\":18117:18120   */\n      dup5\n        /* \"#utility.yul\":18111:18115   */\n      dup3\n        /* \"#utility.yul\":18107:18121   */\n      sub\n        /* \"#utility.yul\":18100:18104   */\n      0x20\n        /* \"#utility.yul\":18095:18098   */\n      dup7\n        /* \"#utility.yul\":18091:18105   */\n      add\n        /* \"#utility.yul\":18084:18122   */\n      mstore\n        /* \"#utility.yul\":18143:18216   */\n      tag_752\n        /* \"#utility.yul\":18211:18215   */\n      dup3\n        /* \"#utility.yul\":18197:18209   */\n      dup3\n        /* \"#utility.yul\":18143:18216   */\n      tag_627\n      jump\t// in\n    tag_752:\n        /* \"#utility.yul\":18135:18216   */\n      swap2\n      pop\n        /* \"#utility.yul\":17985:18227   */\n      pop\n        /* \"#utility.yul\":18316:18320   */\n      0x40\n        /* \"#utility.yul\":18309:18314   */\n      dup4\n        /* \"#utility.yul\":18305:18321   */\n      add\n        /* \"#utility.yul\":18299:18322   */\n      mload\n        /* \"#utility.yul\":18369:18372   */\n      dup5\n        /* \"#utility.yul\":18363:18367   */\n      dup3\n        /* \"#utility.yul\":18359:18373   */\n      sub\n        /* \"#utility.yul\":18352:18356   */\n      0x40\n        /* \"#utility.yul\":18347:18350   */\n      dup7\n        /* \"#utility.yul\":18343:18357   */\n      add\n        /* \"#utility.yul\":18336:18374   */\n      mstore\n        /* \"#utility.yul\":18395:18468   */\n      tag_753\n        /* \"#utility.yul\":18463:18467   */\n      dup3\n        /* \"#utility.yul\":18449:18461   */\n      dup3\n        /* \"#utility.yul\":18395:18468   */\n      tag_627\n      jump\t// in\n    tag_753:\n        /* \"#utility.yul\":18387:18468   */\n      swap2\n      pop\n        /* \"#utility.yul\":18237:18479   */\n      pop\n        /* \"#utility.yul\":18564:18568   */\n      0x60\n        /* \"#utility.yul\":18557:18562   */\n      dup4\n        /* \"#utility.yul\":18553:18569   */\n      add\n        /* \"#utility.yul\":18547:18570   */\n      mload\n        /* \"#utility.yul\":18583:18640   */\n      tag_754\n        /* \"#utility.yul\":18634:18638   */\n      0x60\n        /* \"#utility.yul\":18629:18632   */\n      dup7\n        /* \"#utility.yul\":18625:18639   */\n      add\n        /* \"#utility.yul\":18611:18623   */\n      dup3\n        /* \"#utility.yul\":18583:18640   */\n      tag_680\n      jump\t// in\n    tag_754:\n        /* \"#utility.yul\":18489:18650   */\n      pop\n        /* \"#utility.yul\":18667:18671   */\n      dup1\n        /* \"#utility.yul\":18660:18671   */\n      swap2\n      pop\n        /* \"#utility.yul\":17761:18677   */\n      pop\n        /* \"#utility.yul\":17649:18677   */\n      swap3\n      swap2\n      pop\n      pop\n      jump\t// out\n        /* \"#utility.yul\":18683:18801   */\n    tag_755:\n        /* \"#utility.yul\":18770:18794   */\n      tag_757\n        /* \"#utility.yul\":18788:18793   */\n      dup2\n        /* \"#utility.yul\":18770:18794   */\n      tag_758\n      jump\t// in\n    tag_757:\n        /* \"#utility.yul\":18765:18768   */\n      dup3\n        /* \"#utility.yul\":18758:18795   */\n      mstore\n        /* \"#utility.yul\":18683:18801   */\n      pop\n      pop\n      jump\t// out\n        /* \"#utility.yul\":18807:19082   */\n    tag_167:\n        /* \"#utility.yul\":18939:18942   */\n      0x00\n        /* \"#utility.yul\":18961:19056   */\n      tag_760\n        /* \"#utility.yul\":19052:19055   */\n      dup3\n        /* \"#utility.yul\":19043:19049   */\n      dup5\n        /* \"#utility.yul\":18961:19056   */\n      tag_704\n      jump\t// in\n    tag_760:\n        /* \"#utility.yul\":18954:19056   */\n      swap2\n      pop\n        /* \"#utility.yul\":19073:19076   */\n      dup2\n        /* \"#utility.yul\":19066:19076   */\n      swap1\n      pop\n        /* \"#utility.yul\":18807:19082   */\n      swap3\n      swap2\n      pop\n      pop\n      jump\t// out\n        /* \"#utility.yul\":19088:19950   */\n    tag_45:\n        /* \"#utility.yul\":19339:19343   */\n      0x00\n        /* \"#utility.yul\":19377:19380   */\n      0xc0\n        /* \"#utility.yul\":19366:19375   */\n      dup3\n        /* \"#utility.yul\":19362:19381   */\n      add\n        /* \"#utility.yul\":19354:19381   */\n      swap1\n      pop\n        /* \"#utility.yul\":19391:19462   */\n      tag_762\n        /* \"#utility.yul\":19459:19460   */\n      0x00\n        /* \"#utility.yul\":19448:19457   */\n      dup4\n        /* \"#utility.yul\":19444:19461   */\n      add\n        /* \"#utility.yul\":19435:19441   */\n      dup10\n        /* \"#utility.yul\":19391:19462   */\n      tag_635\n      jump\t// in\n    tag_762:\n        /* \"#utility.yul\":19472:19544   */\n      tag_763\n        /* \"#utility.yul\":19540:19542   */\n      0x20\n        /* \"#utility.yul\":19529:19538   */\n      dup4\n        /* \"#utility.yul\":19525:19543   */\n      add\n        /* \"#utility.yul\":19516:19522   */\n      dup9\n        /* \"#utility.yul\":19472:19544   */\n      tag_635\n      jump\t// in\n    tag_763:\n        /* \"#utility.yul\":19591:19600   */\n      dup2\n        /* \"#utility.yul\":19585:19589   */\n      dup2\n        /* \"#utility.yul\":19581:19601   */\n      sub\n        /* \"#utility.yul\":19576:19578   */\n      0x40\n        /* \"#utility.yul\":19565:19574   */\n      dup4\n        /* \"#utility.yul\":19561:19579   */\n      add\n        /* \"#utility.yul\":19554:19602   */\n      mstore\n        /* \"#utility.yul\":19619:19697   */\n      tag_764\n        /* \"#utility.yul\":19692:19696   */\n      dup2\n        /* \"#utility.yul\":19683:19689   */\n      dup8\n        /* \"#utility.yul\":19619:19697   */\n      tag_697\n      jump\t// in\n    tag_764:\n        /* \"#utility.yul\":19611:19697   */\n      swap1\n      pop\n        /* \"#utility.yul\":19707:19779   */\n      tag_765\n        /* \"#utility.yul\":19775:19777   */\n      0x60\n        /* \"#utility.yul\":19764:19773   */\n      dup4\n        /* \"#utility.yul\":19760:19778   */\n      add\n        /* \"#utility.yul\":19751:19757   */\n      dup7\n        /* \"#utility.yul\":19707:19779   */\n      tag_755\n      jump\t// in\n    tag_765:\n        /* \"#utility.yul\":19789:19862   */\n      tag_766\n        /* \"#utility.yul\":19857:19860   */\n      0x80\n        /* \"#utility.yul\":19846:19855   */\n      dup4\n        /* \"#utility.yul\":19842:19861   */\n      add\n        /* \"#utility.yul\":19833:19839   */\n      dup6\n        /* \"#utility.yul\":19789:19862   */\n      tag_755\n      jump\t// in\n    tag_766:\n        /* \"#utility.yul\":19872:19943   */\n      tag_767\n        /* \"#utility.yul\":19938:19941   */\n      0xa0\n        /* \"#utility.yul\":19927:19936   */\n      dup4\n        /* \"#utility.yul\":19923:19942   */\n      add\n        /* \"#utility.yul\":19914:19920   */\n      dup5\n        /* \"#utility.yul\":19872:19943   */\n      tag_684\n      jump\t// in\n    tag_767:\n        /* \"#utility.yul\":19088:19950   */\n      swap8\n      swap7\n      pop\n      pop\n      pop\n      pop\n      pop\n      pop\n      pop\n      jump\t// out\n        /* \"#utility.yul\":19956:20379   */\n    tag_50:\n        /* \"#utility.yul\":20097:20101   */\n      0x00\n        /* \"#utility.yul\":20135:20137   */\n      0x40\n        /* \"#utility.yul\":20124:20133   */\n      dup3\n        /* \"#utility.yul\":20120:20138   */\n      add\n        /* \"#utility.yul\":20112:20138   */\n      swap1\n      pop\n        /* \"#utility.yul\":20148:20219   */\n      tag_769\n        /* \"#utility.yul\":20216:20217   */\n      0x00\n        /* \"#utility.yul\":20205:20214   */\n      dup4\n        /* \"#utility.yul\":20201:20218   */\n      add\n        /* \"#utility.yul\":20192:20198   */\n      dup6\n        /* \"#utility.yul\":20148:20219   */\n      tag_635\n      jump\t// in\n    tag_769:\n        /* \"#utility.yul\":20266:20275   */\n      dup2\n        /* \"#utility.yul\":20260:20264   */\n      dup2\n        /* \"#utility.yul\":20256:20276   */\n      sub\n        /* \"#utility.yul\":20251:20253   */\n      0x20\n        /* \"#utility.yul\":20240:20249   */\n      dup4\n        /* \"#utility.yul\":20236:20254   */\n      add\n        /* \"#utility.yul\":20229:20277   */\n      mstore\n        /* \"#utility.yul\":20294:20372   */\n      tag_770\n        /* \"#utility.yul\":20367:20371   */\n      dup2\n        /* \"#utility.yul\":20358:20364   */\n      dup5\n        /* \"#utility.yul\":20294:20372   */\n      tag_697\n      jump\t// in\n    tag_770:\n        /* \"#utility.yul\":20286:20372   */\n      swap1\n      pop\n        /* \"#utility.yul\":19956:20379   */\n      swap4\n      swap3\n      pop\n      pop\n      pop\n      jump\t// out\n        /* \"#utility.yul\":20385:21618   */\n    tag_95:\n        /* \"#utility.yul\":20800:20804   */\n      0x00\n        /* \"#utility.yul\":20838:20841   */\n      0x80\n        /* \"#utility.yul\":20827:20836   */\n      dup3\n        /* \"#utility.yul\":20823:20842   */\n      add\n        /* \"#utility.yul\":20815:20842   */\n      swap1\n      pop\n        /* \"#utility.yul\":20888:20897   */\n      dup2\n        /* \"#utility.yul\":20882:20886   */\n      dup2\n        /* \"#utility.yul\":20878:20898   */\n      sub\n        /* \"#utility.yul\":20874:20875   */\n      0x00\n        /* \"#utility.yul\":20863:20872   */\n      dup4\n        /* \"#utility.yul\":20859:20876   */\n      add\n        /* \"#utility.yul\":20852:20899   */\n      mstore\n        /* \"#utility.yul\":20916:20994   */\n      tag_772\n        /* \"#utility.yul\":20989:20993   */\n      dup2\n        /* \"#utility.yul\":20980:20986   */\n      dup8\n        /* \"#utility.yul\":20916:20994   */\n      tag_697\n      jump\t// in\n    tag_772:\n        /* \"#utility.yul\":20908:20994   */\n      swap1\n      pop\n        /* \"#utility.yul\":21041:21050   */\n      dup2\n        /* \"#utility.yul\":21035:21039   */\n      dup2\n        /* \"#utility.yul\":21031:21051   */\n      sub\n        /* \"#utility.yul\":21026:21028   */\n      0x20\n        /* \"#utility.yul\":21015:21024   */\n      dup4\n        /* \"#utility.yul\":21011:21029   */\n      add\n        /* \"#utility.yul\":21004:21052   */\n      mstore\n        /* \"#utility.yul\":21069:21225   */\n      tag_773\n        /* \"#utility.yul\":21220:21224   */\n      dup2\n        /* \"#utility.yul\":21211:21217   */\n      dup7\n        /* \"#utility.yul\":21069:21225   */\n      tag_666\n      jump\t// in\n    tag_773:\n        /* \"#utility.yul\":21061:21225   */\n      swap1\n      pop\n        /* \"#utility.yul\":21272:21281   */\n      dup2\n        /* \"#utility.yul\":21266:21270   */\n      dup2\n        /* \"#utility.yul\":21262:21282   */\n      sub\n        /* \"#utility.yul\":21257:21259   */\n      0x40\n        /* \"#utility.yul\":21246:21255   */\n      dup4\n        /* \"#utility.yul\":21242:21260   */\n      add\n        /* \"#utility.yul\":21235:21283   */\n      mstore\n        /* \"#utility.yul\":21300:21428   */\n      tag_774\n        /* \"#utility.yul\":21423:21427   */\n      dup2\n        /* \"#utility.yul\":21414:21420   */\n      dup6\n        /* \"#utility.yul\":21300:21428   */\n      tag_652\n      jump\t// in\n    tag_774:\n        /* \"#utility.yul\":21292:21428   */\n      swap1\n      pop\n        /* \"#utility.yul\":21475:21484   */\n      dup2\n        /* \"#utility.yul\":21469:21473   */\n      dup2\n        /* \"#utility.yul\":21465:21485   */\n      sub\n        /* \"#utility.yul\":21460:21462   */\n      0x60\n        /* \"#utility.yul\":21449:21458   */\n      dup4\n        /* \"#utility.yul\":21445:21463   */\n      add\n        /* \"#utility.yul\":21438:21486   */\n      mstore\n        /* \"#utility.yul\":21503:21611   */\n      tag_775\n        /* \"#utility.yul\":21606:21610   */\n      dup2\n        /* \"#utility.yul\":21597:21603   */\n      dup5\n        /* \"#utility.yul\":21503:21611   */\n      tag_638\n      jump\t// in\n    tag_775:\n        /* \"#utility.yul\":21495:21611   */\n      swap1\n      pop\n        /* \"#utility.yul\":20385:21618   */\n      swap6\n      swap5\n      pop\n      pop\n      pop\n      pop\n      pop\n      jump\t// out\n        /* \"#utility.yul\":21624:22843   */\n    tag_31:\n        /* \"#utility.yul\":21979:21983   */\n      0x00\n        /* \"#utility.yul\":22017:22020   */\n      0xa0\n        /* \"#utility.yul\":22006:22015   */\n      dup3\n        /* \"#utility.yul\":22002:22021   */\n      add\n        /* \"#utility.yul\":21994:22021   */\n      swap1\n      pop\n        /* \"#utility.yul\":22067:22076   */\n      dup2\n        /* \"#utility.yul\":22061:22065   */\n      dup2\n        /* \"#utility.yul\":22057:22077   */\n      sub\n        /* \"#utility.yul\":22053:22054   */\n      0x00\n        /* \"#utility.yul\":22042:22051   */\n      dup4\n        /* \"#utility.yul\":22038:22055   */\n      add\n        /* \"#utility.yul\":22031:22078   */\n      mstore\n        /* \"#utility.yul\":22095:22173   */\n      tag_777\n        /* \"#utility.yul\":22168:22172   */\n      dup2\n        /* \"#utility.yul\":22159:22165   */\n      dup9\n        /* \"#utility.yul\":22095:22173   */\n      tag_697\n      jump\t// in\n    tag_777:\n        /* \"#utility.yul\":22087:22173   */\n      swap1\n      pop\n        /* \"#utility.yul\":22220:22229   */\n      dup2\n        /* \"#utility.yul\":22214:22218   */\n      dup2\n        /* \"#utility.yul\":22210:22230   */\n      sub\n        /* \"#utility.yul\":22205:22207   */\n      0x20\n        /* \"#utility.yul\":22194:22203   */\n      dup4\n        /* \"#utility.yul\":22190:22208   */\n      add\n        /* \"#utility.yul\":22183:22231   */\n      mstore\n        /* \"#utility.yul\":22248:22326   */\n      tag_778\n        /* \"#utility.yul\":22321:22325   */\n      dup2\n        /* \"#utility.yul\":22312:22318   */\n      dup8\n        /* \"#utility.yul\":22248:22326   */\n      tag_697\n      jump\t// in\n    tag_778:\n        /* \"#utility.yul\":22240:22326   */\n      swap1\n      pop\n        /* \"#utility.yul\":22373:22382   */\n      dup2\n        /* \"#utility.yul\":22367:22371   */\n      dup2\n        /* \"#utility.yul\":22363:22383   */\n      sub\n        /* \"#utility.yul\":22358:22360   */\n      0x40\n        /* \"#utility.yul\":22347:22356   */\n      dup4\n        /* \"#utility.yul\":22343:22361   */\n      add\n        /* \"#utility.yul\":22336:22384   */\n      mstore\n        /* \"#utility.yul\":22401:22479   */\n      tag_779\n        /* \"#utility.yul\":22474:22478   */\n      dup2\n        /* \"#utility.yul\":22465:22471   */\n      dup7\n        /* \"#utility.yul\":22401:22479   */\n      tag_697\n      jump\t// in\n    tag_779:\n        /* \"#utility.yul\":22393:22479   */\n      swap1\n      pop\n        /* \"#utility.yul\":22526:22535   */\n      dup2\n        /* \"#utility.yul\":22520:22524   */\n      dup2\n        /* \"#utility.yul\":22516:22536   */\n      sub\n        /* \"#utility.yul\":22511:22513   */\n      0x60\n        /* \"#utility.yul\":22500:22509   */\n      dup4\n        /* \"#utility.yul\":22496:22514   */\n      add\n        /* \"#utility.yul\":22489:22537   */\n      mstore\n        /* \"#utility.yul\":22554:22632   */\n      tag_780\n        /* \"#utility.yul\":22627:22631   */\n      dup2\n        /* \"#utility.yul\":22618:22624   */\n      dup6\n        /* \"#utility.yul\":22554:22632   */\n      tag_697\n      jump\t// in\n    tag_780:\n        /* \"#utility.yul\":22546:22632   */\n      swap1\n      pop\n        /* \"#utility.yul\":22680:22689   */\n      dup2\n        /* \"#utility.yul\":22674:22678   */\n      dup2\n        /* \"#utility.yul\":22670:22690   */\n      sub\n        /* \"#utility.yul\":22664:22667   */\n      0x80\n        /* \"#utility.yul\":22653:22662   */\n      dup4\n        /* \"#utility.yul\":22649:22668   */\n      add\n        /* \"#utility.yul\":22642:22691   */\n      mstore\n        /* \"#utility.yul\":22708:22836   */\n      tag_781\n        /* \"#utility.yul\":22831:22835   */\n      dup2\n        /* \"#utility.yul\":22822:22828   */\n      dup5\n        /* \"#utility.yul\":22708:22836   */\n      tag_652\n      jump\t// in\n    tag_781:\n        /* \"#utility.yul\":22700:22836   */\n      swap1\n      pop\n        /* \"#utility.yul\":21624:22843   */\n      swap7\n      swap6\n      pop\n      pop\n      pop\n      pop\n      pop\n      pop\n      jump\t// out\n        /* \"#utility.yul\":22849:23775   */\n    tag_77:\n        /* \"#utility.yul\":23136:23140   */\n      0x00\n        /* \"#utility.yul\":23174:23177   */\n      0x80\n        /* \"#utility.yul\":23163:23172   */\n      dup3\n        /* \"#utility.yul\":23159:23178   */\n      add\n        /* \"#utility.yul\":23151:23178   */\n      swap1\n      pop\n        /* \"#utility.yul\":23224:23233   */\n      dup2\n        /* \"#utility.yul\":23218:23222   */\n      dup2\n        /* \"#utility.yul\":23214:23234   */\n      sub\n        /* \"#utility.yul\":23210:23211   */\n      0x00\n        /* \"#utility.yul\":23199:23208   */\n      dup4\n        /* \"#utility.yul\":23195:23212   */\n      add\n        /* \"#utility.yul\":23188:23235   */\n      mstore\n        /* \"#utility.yul\":23252:23330   */\n      tag_783\n        /* \"#utility.yul\":23325:23329   */\n      dup2\n        /* \"#utility.yul\":23316:23322   */\n      dup8\n        /* \"#utility.yul\":23252:23330   */\n      tag_697\n      jump\t// in\n    tag_783:\n        /* \"#utility.yul\":23244:23330   */\n      swap1\n      pop\n        /* \"#utility.yul\":23377:23386   */\n      dup2\n        /* \"#utility.yul\":23371:23375   */\n      dup2\n        /* \"#utility.yul\":23367:23387   */\n      sub\n        /* \"#utility.yul\":23362:23364   */\n      0x20\n        /* \"#utility.yul\":23351:23360   */\n      dup4\n        /* \"#utility.yul\":23347:23365   */\n      add\n        /* \"#utility.yul\":23340:23388   */\n      mstore\n        /* \"#utility.yul\":23405:23483   */\n      tag_784\n        /* \"#utility.yul\":23478:23482   */\n      dup2\n        /* \"#utility.yul\":23469:23475   */\n      dup7\n        /* \"#utility.yul\":23405:23483   */\n      tag_697\n      jump\t// in\n    tag_784:\n        /* \"#utility.yul\":23397:23483   */\n      swap1\n      pop\n        /* \"#utility.yul\":23493:23565   */\n      tag_785\n        /* \"#utility.yul\":23561:23563   */\n      0x40\n        /* \"#utility.yul\":23550:23559   */\n      dup4\n        /* \"#utility.yul\":23546:23564   */\n      add\n        /* \"#utility.yul\":23537:23543   */\n      dup6\n        /* \"#utility.yul\":23493:23565   */\n      tag_755\n      jump\t// in\n    tag_785:\n        /* \"#utility.yul\":23612:23621   */\n      dup2\n        /* \"#utility.yul\":23606:23610   */\n      dup2\n        /* \"#utility.yul\":23602:23622   */\n      sub\n        /* \"#utility.yul\":23597:23599   */\n      0x60\n        /* \"#utility.yul\":23586:23595   */\n      dup4\n        /* \"#utility.yul\":23582:23600   */\n      add\n        /* \"#utility.yul\":23575:23623   */\n      mstore\n        /* \"#utility.yul\":23640:23768   */\n      tag_786\n        /* \"#utility.yul\":23763:23767   */\n      dup2\n        /* \"#utility.yul\":23754:23760   */\n      dup5\n        /* \"#utility.yul\":23640:23768   */\n      tag_652\n      jump\t// in\n    tag_786:\n        /* \"#utility.yul\":23632:23768   */\n      swap1\n      pop\n        /* \"#utility.yul\":22849:23775   */\n      swap6\n      swap5\n      pop\n      pop\n      pop\n      pop\n      pop\n      jump\t// out\n        /* \"#utility.yul\":23781:24200   */\n    tag_271:\n        /* \"#utility.yul\":23947:23951   */\n      0x00\n        /* \"#utility.yul\":23985:23987   */\n      0x20\n        /* \"#utility.yul\":23974:23983   */\n      dup3\n        /* \"#utility.yul\":23970:23988   */\n      add\n        /* \"#utility.yul\":23962:23988   */\n      swap1\n      pop\n        /* \"#utility.yul\":24034:24043   */\n      dup2\n        /* \"#utility.yul\":24028:24032   */\n      dup2\n        /* \"#utility.yul\":24024:24044   */\n      sub\n        /* \"#utility.yul\":24020:24021   */\n      0x00\n        /* \"#utility.yul\":24009:24018   */\n      dup4\n        /* \"#utility.yul\":24005:24022   */\n      add\n        /* \"#utility.yul\":23998:24045   */\n      mstore\n        /* \"#utility.yul\":24062:24193   */\n      tag_788\n        /* \"#utility.yul\":24188:24192   */\n      dup2\n        /* \"#utility.yul\":24062:24193   */\n      tag_710\n      jump\t// in\n    tag_788:\n        /* \"#utility.yul\":24054:24193   */\n      swap1\n      pop\n        /* \"#utility.yul\":23781:24200   */\n      swap2\n      swap1\n      pop\n      jump\t// out\n        /* \"#utility.yul\":24206:24625   */\n    tag_465:\n        /* \"#utility.yul\":24372:24376   */\n      0x00\n        /* \"#utility.yul\":24410:24412   */\n      0x20\n        /* \"#utility.yul\":24399:24408   */\n      dup3\n        /* \"#utility.yul\":24395:24413   */\n      add\n        /* \"#utility.yul\":24387:24413   */\n      swap1\n      pop\n        /* \"#utility.yul\":24459:24468   */\n      dup2\n        /* \"#utility.yul\":24453:24457   */\n      dup2\n        /* \"#utility.yul\":24449:24469   */\n      sub\n        /* \"#utility.yul\":24445:24446   */\n      0x00\n        /* \"#utility.yul\":24434:24443   */\n      dup4\n        /* \"#utility.yul\":24430:24447   */\n      add\n        /* \"#utility.yul\":24423:24470   */\n      mstore\n        /* \"#utility.yul\":24487:24618   */\n      tag_790\n        /* \"#utility.yul\":24613:24617   */\n      dup2\n        /* \"#utility.yul\":24487:24618   */\n      tag_715\n      jump\t// in\n    tag_790:\n        /* \"#utility.yul\":24479:24618   */\n      swap1\n      pop\n        /* \"#utility.yul\":24206:24625   */\n      swap2\n      swap1\n      pop\n      jump\t// out\n        /* \"#utility.yul\":24631:25050   */\n    tag_290:\n        /* \"#utility.yul\":24797:24801   */\n      0x00\n        /* \"#utility.yul\":24835:24837   */\n      0x20\n        /* \"#utility.yul\":24824:24833   */\n      dup3\n        /* \"#utility.yul\":24820:24838   */\n      add\n        /* \"#utility.yul\":24812:24838   */\n      swap1\n      pop\n        /* \"#utility.yul\":24884:24893   */\n      dup2\n        /* \"#utility.yul\":24878:24882   */\n      dup2\n        /* \"#utility.yul\":24874:24894   */\n      sub\n        /* \"#utility.yul\":24870:24871   */\n      0x00\n        /* \"#utility.yul\":24859:24868   */\n      dup4\n        /* \"#utility.yul\":24855:24872   */\n      add\n        /* \"#utility.yul\":24848:24895   */\n      mstore\n        /* \"#utility.yul\":24912:25043   */\n      tag_792\n        /* \"#utility.yul\":25038:25042   */\n      dup2\n        /* \"#utility.yul\":24912:25043   */\n      tag_720\n      jump\t// in\n    tag_792:\n        /* \"#utility.yul\":24904:25043   */\n      swap1\n      pop\n        /* \"#utility.yul\":24631:25050   */\n      swap2\n      swap1\n      pop\n      jump\t// out\n        /* \"#utility.yul\":25056:25475   */\n    tag_109:\n        /* \"#utility.yul\":25222:25226   */\n      0x00\n        /* \"#utility.yul\":25260:25262   */\n      0x20\n        /* \"#utility.yul\":25249:25258   */\n      dup3\n        /* \"#utility.yul\":25245:25263   */\n      add\n        /* \"#utility.yul\":25237:25263   */\n      swap1\n      pop\n        /* \"#utility.yul\":25309:25318   */\n      dup2\n        /* \"#utility.yul\":25303:25307   */\n      dup2\n        /* \"#utility.yul\":25299:25319   */\n      sub\n        /* \"#utility.yul\":25295:25296   */\n      0x00\n        /* \"#utility.yul\":25284:25293   */\n      dup4\n        /* \"#utility.yul\":25280:25297   */\n      add\n        /* \"#utility.yul\":25273:25320   */\n      mstore\n        /* \"#utility.yul\":25337:25468   */\n      tag_794\n        /* \"#utility.yul\":25463:25467   */\n      dup2\n        /* \"#utility.yul\":25337:25468   */\n      tag_725\n      jump\t// in\n    tag_794:\n        /* \"#utility.yul\":25329:25468   */\n      swap1\n      pop\n        /* \"#utility.yul\":25056:25475   */\n      swap2\n      swap1\n      pop\n      jump\t// out\n        /* \"#utility.yul\":25481:25900   */\n    tag_159:\n        /* \"#utility.yul\":25647:25651   */\n      0x00\n        /* \"#utility.yul\":25685:25687   */\n      0x20\n        /* \"#utility.yul\":25674:25683   */\n      dup3\n        /* \"#utility.yul\":25670:25688   */\n      add\n        /* \"#utility.yul\":25662:25688   */\n      swap1\n      pop\n        /* \"#utility.yul\":25734:25743   */\n      dup2\n        /* \"#utility.yul\":25728:25732   */\n      dup2\n        /* \"#utility.yul\":25724:25744   */\n      sub\n        /* \"#utility.yul\":25720:25721   */\n      0x00\n        /* \"#utility.yul\":25709:25718   */\n      dup4\n        /* \"#utility.yul\":25705:25722   */\n      add\n        /* \"#utility.yul\":25698:25745   */\n      mstore\n        /* \"#utility.yul\":25762:25893   */\n      tag_796\n        /* \"#utility.yul\":25888:25892   */\n      dup2\n        /* \"#utility.yul\":25762:25893   */\n      tag_730\n      jump\t// in\n    tag_796:\n        /* \"#utility.yul\":25754:25893   */\n      swap1\n      pop\n        /* \"#utility.yul\":25481:25900   */\n      swap2\n      swap1\n      pop\n      jump\t// out\n        /* \"#utility.yul\":25906:26325   */\n    tag_143:\n        /* \"#utility.yul\":26072:26076   */\n      0x00\n        /* \"#utility.yul\":26110:26112   */\n      0x20\n        /* \"#utility.yul\":26099:26108   */\n      dup3\n        /* \"#utility.yul\":26095:26113   */\n      add\n        /* \"#utility.yul\":26087:26113   */\n      swap1\n      pop\n        /* \"#utility.yul\":26159:26168   */\n      dup2\n        /* \"#utility.yul\":26153:26157   */\n      dup2\n        /* \"#utility.yul\":26149:26169   */\n      sub\n        /* \"#utility.yul\":26145:26146   */\n      0x00\n        /* \"#utility.yul\":26134:26143   */\n      dup4\n        /* \"#utility.yul\":26130:26147   */\n      add\n        /* \"#utility.yul\":26123:26170   */\n      mstore\n        /* \"#utility.yul\":26187:26318   */\n      tag_798\n        /* \"#utility.yul\":26313:26317   */\n      dup2\n        /* \"#utility.yul\":26187:26318   */\n      tag_735\n      jump\t// in\n    tag_798:\n        /* \"#utility.yul\":26179:26318   */\n      swap1\n      pop\n        /* \"#utility.yul\":25906:26325   */\n      swap2\n      swap1\n      pop\n      jump\t// out\n        /* \"#utility.yul\":26331:26750   */\n    tag_461:\n        /* \"#utility.yul\":26497:26501   */\n      0x00\n        /* \"#utility.yul\":26535:26537   */\n      0x20\n        /* \"#utility.yul\":26524:26533   */\n      dup3\n        /* \"#utility.yul\":26520:26538   */\n      add\n        /* \"#utility.yul\":26512:26538   */\n      swap1\n      pop\n        /* \"#utility.yul\":26584:26593   */\n      dup2\n        /* \"#utility.yul\":26578:26582   */\n      dup2\n        /* \"#utility.yul\":26574:26594   */\n      sub\n        /* \"#utility.yul\":26570:26571   */\n      0x00\n        /* \"#utility.yul\":26559:26568   */\n      dup4\n        /* \"#utility.yul\":26555:26572   */\n      add\n        /* \"#utility.yul\":26548:26595   */\n      mstore\n        /* \"#utility.yul\":26612:26743   */\n      tag_800\n        /* \"#utility.yul\":26738:26742   */\n      dup2\n        /* \"#utility.yul\":26612:26743   */\n      tag_740\n      jump\t// in\n    tag_800:\n        /* \"#utility.yul\":26604:26743   */\n      swap1\n      pop\n        /* \"#utility.yul\":26331:26750   */\n      swap2\n      swap1\n      pop\n      jump\t// out\n        /* \"#utility.yul\":26756:27175   */\n    tag_187:\n        /* \"#utility.yul\":26922:26926   */\n      0x00\n        /* \"#utility.yul\":26960:26962   */\n      0x20\n        /* \"#utility.yul\":26949:26958   */\n      dup3\n        /* \"#utility.yul\":26945:26963   */\n      add\n        /* \"#utility.yul\":26937:26963   */\n      swap1\n      pop\n        /* \"#utility.yul\":27009:27018   */\n      dup2\n        /* \"#utility.yul\":27003:27007   */\n      dup2\n        /* \"#utility.yul\":26999:27019   */\n      sub\n        /* \"#utility.yul\":26995:26996   */\n      0x00\n        /* \"#utility.yul\":26984:26993   */\n      dup4\n        /* \"#utility.yul\":26980:26997   */\n      add\n        /* \"#utility.yul\":26973:27020   */\n      mstore\n        /* \"#utility.yul\":27037:27168   */\n      tag_802\n        /* \"#utility.yul\":27163:27167   */\n      dup2\n        /* \"#utility.yul\":27037:27168   */\n      tag_745\n      jump\t// in\n    tag_802:\n        /* \"#utility.yul\":27029:27168   */\n      swap1\n      pop\n        /* \"#utility.yul\":26756:27175   */\n      swap2\n      swap1\n      pop\n      jump\t// out\n        /* \"#utility.yul\":27181:27310   */\n    tag_509:\n        /* \"#utility.yul\":27215:27221   */\n      0x00\n        /* \"#utility.yul\":27242:27262   */\n      tag_804\n      tag_805\n      jump\t// in\n    tag_804:\n        /* \"#utility.yul\":27232:27262   */\n      swap1\n      pop\n        /* \"#utility.yul\":27271:27304   */\n      tag_806\n        /* \"#utility.yul\":27299:27303   */\n      dup3\n        /* \"#utility.yul\":27291:27297   */\n      dup3\n        /* \"#utility.yul\":27271:27304   */\n      tag_807\n      jump\t// in\n    tag_806:\n        /* \"#utility.yul\":27181:27310   */\n      swap2\n      swap1\n      pop\n      jump\t// out\n        /* \"#utility.yul\":27316:27391   */\n    tag_805:\n        /* \"#utility.yul\":27349:27355   */\n      0x00\n        /* \"#utility.yul\":27382:27384   */\n      0x40\n        /* \"#utility.yul\":27376:27385   */\n      mload\n        /* \"#utility.yul\":27366:27385   */\n      swap1\n      pop\n        /* \"#utility.yul\":27316:27391   */\n      swap1\n      jump\t// out\n        /* \"#utility.yul\":27397:27705   */\n    tag_508:\n        /* \"#utility.yul\":27459:27463   */\n      0x00\n        /* \"#utility.yul\":27549:27567   */\n      0xffffffffffffffff\n        /* \"#utility.yul\":27541:27547   */\n      dup3\n        /* \"#utility.yul\":27538:27568   */\n      gt\n        /* \"#utility.yul\":27535:27591   */\n      iszero\n      tag_810\n      jumpi\n        /* \"#utility.yul\":27571:27589   */\n      tag_811\n      tag_812\n      jump\t// in\n    tag_811:\n        /* \"#utility.yul\":27535:27591   */\n    tag_810:\n        /* \"#utility.yul\":27609:27638   */\n      tag_813\n        /* \"#utility.yul\":27631:27637   */\n      dup3\n        /* \"#utility.yul\":27609:27638   */\n      tag_696\n      jump\t// in\n    tag_813:\n        /* \"#utility.yul\":27601:27638   */\n      swap1\n      pop\n        /* \"#utility.yul\":27693:27697   */\n      0x20\n        /* \"#utility.yul\":27687:27691   */\n      dup2\n        /* \"#utility.yul\":27683:27698   */\n      add\n        /* \"#utility.yul\":27675:27698   */\n      swap1\n      pop\n        /* \"#utility.yul\":27397:27705   */\n      swap2\n      swap1\n      pop\n      jump\t// out\n        /* \"#utility.yul\":27711:27843   */\n    tag_645:\n        /* \"#utility.yul\":27778:27782   */\n      0x00\n        /* \"#utility.yul\":27801:27804   */\n      dup2\n        /* \"#utility.yul\":27793:27804   */\n      swap1\n      pop\n        /* \"#utility.yul\":27831:27835   */\n      0x20\n        /* \"#utility.yul\":27826:27829   */\n      dup3\n        /* \"#utility.yul\":27822:27836   */\n      add\n        /* \"#utility.yul\":27814:27836   */\n      swap1\n      pop\n        /* \"#utility.yul\":27711:27843   */\n      swap2\n      swap1\n      pop\n      jump\t// out\n        /* \"#utility.yul\":27849:27991   */\n    tag_659:\n        /* \"#utility.yul\":27926:27930   */\n      0x00\n        /* \"#utility.yul\":27949:27952   */\n      dup2\n        /* \"#utility.yul\":27941:27952   */\n      swap1\n      pop\n        /* \"#utility.yul\":27979:27983   */\n      0x20\n        /* \"#utility.yul\":27974:27977   */\n      dup3\n        /* \"#utility.yul\":27970:27984   */\n      add\n        /* \"#utility.yul\":27962:27984   */\n      swap1\n      pop\n        /* \"#utility.yul\":27849:27991   */\n      swap2\n      swap1\n      pop\n      jump\t// out\n        /* \"#utility.yul\":27997:28153   */\n    tag_673:\n        /* \"#utility.yul\":28088:28092   */\n      0x00\n        /* \"#utility.yul\":28111:28114   */\n      dup2\n        /* \"#utility.yul\":28103:28114   */\n      swap1\n      pop\n        /* \"#utility.yul\":28141:28145   */\n      0x20\n        /* \"#utility.yul\":28136:28139   */\n      dup3\n        /* \"#utility.yul\":28132:28146   */\n      add\n        /* \"#utility.yul\":28124:28146   */\n      swap1\n      pop\n        /* \"#utility.yul\":27997:28153   */\n      swap2\n      swap1\n      pop\n      jump\t// out\n        /* \"#utility.yul\":28159:28273   */\n    tag_641:\n        /* \"#utility.yul\":28226:28232   */\n      0x00\n        /* \"#utility.yul\":28260:28265   */\n      dup2\n        /* \"#utility.yul\":28254:28266   */\n      mload\n        /* \"#utility.yul\":28244:28266   */\n      swap1\n      pop\n        /* \"#utility.yul\":28159:28273   */\n      swap2\n      swap1\n      pop\n      jump\t// out\n        /* \"#utility.yul\":28279:28403   */\n    tag_655:\n        /* \"#utility.yul\":28356:28362   */\n      0x00\n        /* \"#utility.yul\":28390:28395   */\n      dup2\n        /* \"#utility.yul\":28384:28396   */\n      mload\n        /* \"#utility.yul\":28374:28396   */\n      swap1\n      pop\n        /* \"#utility.yul\":28279:28403   */\n      swap2\n      swap1\n      pop\n      jump\t// out\n        /* \"#utility.yul\":28409:28547   */\n    tag_669:\n        /* \"#utility.yul\":28500:28506   */\n      0x00\n        /* \"#utility.yul\":28534:28539   */\n      dup2\n        /* \"#utility.yul\":28528:28540   */\n      mload\n        /* \"#utility.yul\":28518:28540   */\n      swap1\n      pop\n        /* \"#utility.yul\":28409:28547   */\n      swap2\n      swap1\n      pop\n      jump\t// out\n        /* \"#utility.yul\":28553:28652   */\n    tag_690:\n        /* \"#utility.yul\":28605:28611   */\n      0x00\n        /* \"#utility.yul\":28639:28644   */\n      dup2\n        /* \"#utility.yul\":28633:28645   */\n      mload\n        /* \"#utility.yul\":28623:28645   */\n      swap1\n      pop\n        /* \"#utility.yul\":28553:28652   */\n      swap2\n      swap1\n      pop\n      jump\t// out\n        /* \"#utility.yul\":28658:28771   */\n    tag_651:\n        /* \"#utility.yul\":28728:28732   */\n      0x00\n        /* \"#utility.yul\":28760:28764   */\n      0x20\n        /* \"#utility.yul\":28755:28758   */\n      dup3\n        /* \"#utility.yul\":28751:28765   */\n      add\n        /* \"#utility.yul\":28743:28765   */\n      swap1\n      pop\n        /* \"#utility.yul\":28658:28771   */\n      swap2\n      swap1\n      pop\n      jump\t// out\n        /* \"#utility.yul\":28777:28900   */\n    tag_665:\n        /* \"#utility.yul\":28857:28861   */\n      0x00\n        /* \"#utility.yul\":28889:28893   */\n      0x20\n        /* \"#utility.yul\":28884:28887   */\n      dup3\n        /* \"#utility.yul\":28880:28894   */\n      add\n        /* \"#utility.yul\":28872:28894   */\n      swap1\n      pop\n        /* \"#utility.yul\":28777:28900   */\n      swap2\n      swap1\n      pop\n      jump\t// out\n        /* \"#utility.yul\":28906:29043   */\n    tag_679:\n        /* \"#utility.yul\":29000:29004   */\n      0x00\n        /* \"#utility.yul\":29032:29036   */\n      0x20\n        /* \"#utility.yul\":29027:29030   */\n      dup3\n        /* \"#utility.yul\":29023:29037   */\n      add\n        /* \"#utility.yul\":29015:29037   */\n      swap1\n      pop\n        /* \"#utility.yul\":28906:29043   */\n      swap2\n      swap1\n      pop\n      jump\t// out\n        /* \"#utility.yul\":29049:29233   */\n    tag_643:\n        /* \"#utility.yul\":29148:29159   */\n      0x00\n        /* \"#utility.yul\":29182:29188   */\n      dup3\n        /* \"#utility.yul\":29177:29180   */\n      dup3\n        /* \"#utility.yul\":29170:29189   */\n      mstore\n        /* \"#utility.yul\":29222:29226   */\n      0x20\n        /* \"#utility.yul\":29217:29220   */\n      dup3\n        /* \"#utility.yul\":29213:29227   */\n      add\n        /* \"#utility.yul\":29198:29227   */\n      swap1\n      pop\n        /* \"#utility.yul\":29049:29233   */\n      swap3\n      swap2\n      pop\n      pop\n      jump\t// out\n        /* \"#utility.yul\":29239:29433   */\n    tag_657:\n        /* \"#utility.yul\":29348:29359   */\n      0x00\n        /* \"#utility.yul\":29382:29388   */\n      dup3\n        /* \"#utility.yul\":29377:29380   */\n      dup3\n        /* \"#utility.yul\":29370:29389   */\n      mstore\n        /* \"#utility.yul\":29422:29426   */\n      0x20\n        /* \"#utility.yul\":29417:29420   */\n      dup3\n        /* \"#utility.yul\":29413:29427   */\n      add\n        /* \"#utility.yul\":29398:29427   */\n      swap1\n      pop\n        /* \"#utility.yul\":29239:29433   */\n      swap3\n      swap2\n      pop\n      pop\n      jump\t// out\n        /* \"#utility.yul\":29439:29647   */\n    tag_671:\n        /* \"#utility.yul\":29562:29573   */\n      0x00\n        /* \"#utility.yul\":29596:29602   */\n      dup3\n        /* \"#utility.yul\":29591:29594   */\n      dup3\n        /* \"#utility.yul\":29584:29603   */\n      mstore\n        /* \"#utility.yul\":29636:29640   */\n      0x20\n        /* \"#utility.yul\":29631:29634   */\n      dup3\n        /* \"#utility.yul\":29627:29641   */\n      add\n        /* \"#utility.yul\":29612:29641   */\n      swap1\n      pop\n        /* \"#utility.yul\":29439:29647   */\n      swap3\n      swap2\n      pop\n      pop\n      jump\t// out\n        /* \"#utility.yul\":29653:29812   */\n    tag_692:\n        /* \"#utility.yul\":29727:29738   */\n      0x00\n        /* \"#utility.yul\":29761:29767   */\n      dup3\n        /* \"#utility.yul\":29756:29759   */\n      dup3\n        /* \"#utility.yul\":29749:29768   */\n      mstore\n        /* \"#utility.yul\":29801:29805   */\n      0x20\n        /* \"#utility.yul\":29796:29799   */\n      dup3\n        /* \"#utility.yul\":29792:29806   */\n      add\n        /* \"#utility.yul\":29777:29806   */\n      swap1\n      pop\n        /* \"#utility.yul\":29653:29812   */\n      swap3\n      swap2\n      pop\n      pop\n      jump\t// out\n        /* \"#utility.yul\":29818:29987   */\n    tag_701:\n        /* \"#utility.yul\":29902:29913   */\n      0x00\n        /* \"#utility.yul\":29936:29942   */\n      dup3\n        /* \"#utility.yul\":29931:29934   */\n      dup3\n        /* \"#utility.yul\":29924:29943   */\n      mstore\n        /* \"#utility.yul\":29976:29980   */\n      0x20\n        /* \"#utility.yul\":29971:29974   */\n      dup3\n        /* \"#utility.yul\":29967:29981   */\n      add\n        /* \"#utility.yul\":29952:29981   */\n      swap1\n      pop\n        /* \"#utility.yul\":29818:29987   */\n      swap3\n      swap2\n      pop\n      pop\n      jump\t// out\n        /* \"#utility.yul\":29993:30141   */\n    tag_708:\n        /* \"#utility.yul\":30095:30106   */\n      0x00\n        /* \"#utility.yul\":30132:30135   */\n      dup2\n        /* \"#utility.yul\":30117:30135   */\n      swap1\n      pop\n        /* \"#utility.yul\":29993:30141   */\n      swap3\n      swap2\n      pop\n      pop\n      jump\t// out\n        /* \"#utility.yul\":30147:30243   */\n    tag_634:\n        /* \"#utility.yul\":30184:30191   */\n      0x00\n        /* \"#utility.yul\":30213:30237   */\n      tag_831\n        /* \"#utility.yul\":30231:30236   */\n      dup3\n        /* \"#utility.yul\":30213:30237   */\n      tag_832\n      jump\t// in\n    tag_831:\n        /* \"#utility.yul\":30202:30237   */\n      swap1\n      pop\n        /* \"#utility.yul\":30147:30243   */\n      swap2\n      swap1\n      pop\n      jump\t// out\n        /* \"#utility.yul\":30249:30353   */\n    tag_833:\n        /* \"#utility.yul\":30294:30301   */\n      0x00\n        /* \"#utility.yul\":30323:30347   */\n      tag_835\n        /* \"#utility.yul\":30341:30346   */\n      dup3\n        /* \"#utility.yul\":30323:30347   */\n      tag_832\n      jump\t// in\n    tag_835:\n        /* \"#utility.yul\":30312:30347   */\n      swap1\n      pop\n        /* \"#utility.yul\":30249:30353   */\n      swap2\n      swap1\n      pop\n      jump\t// out\n        /* \"#utility.yul\":30359:30449   */\n    tag_683:\n        /* \"#utility.yul\":30393:30400   */\n      0x00\n        /* \"#utility.yul\":30436:30441   */\n      dup2\n        /* \"#utility.yul\":30429:30442   */\n      iszero\n        /* \"#utility.yul\":30422:30443   */\n      iszero\n        /* \"#utility.yul\":30411:30443   */\n      swap1\n      pop\n        /* \"#utility.yul\":30359:30449   */\n      swap2\n      swap1\n      pop\n      jump\t// out\n        /* \"#utility.yul\":30455:30531   */\n    tag_687:\n        /* \"#utility.yul\":30491:30498   */\n      0x00\n        /* \"#utility.yul\":30520:30525   */\n      dup2\n        /* \"#utility.yul\":30509:30525   */\n      swap1\n      pop\n        /* \"#utility.yul\":30455:30531   */\n      swap2\n      swap1\n      pop\n      jump\t// out\n        /* \"#utility.yul\":30537:30663   */\n    tag_832:\n        /* \"#utility.yul\":30574:30581   */\n      0x00\n        /* \"#utility.yul\":30614:30656   */\n      0xffffffffffffffffffffffffffffffffffffffff\n        /* \"#utility.yul\":30607:30612   */\n      dup3\n        /* \"#utility.yul\":30603:30657   */\n      and\n        /* \"#utility.yul\":30592:30657   */\n      swap1\n      pop\n        /* \"#utility.yul\":30537:30663   */\n      swap2\n      swap1\n      pop\n      jump\t// out\n        /* \"#utility.yul\":30669:30746   */\n    tag_758:\n        /* \"#utility.yul\":30706:30713   */\n      0x00\n        /* \"#utility.yul\":30735:30740   */\n      dup2\n        /* \"#utility.yul\":30724:30740   */\n      swap1\n      pop\n        /* \"#utility.yul\":30669:30746   */\n      swap2\n      swap1\n      pop\n      jump\t// out\n        /* \"#utility.yul\":30752:30906   */\n    tag_514:\n        /* \"#utility.yul\":30836:30842   */\n      dup3\n        /* \"#utility.yul\":30831:30834   */\n      dup2\n        /* \"#utility.yul\":30826:30829   */\n      dup4\n        /* \"#utility.yul\":30813:30843   */\n      calldatacopy\n        /* \"#utility.yul\":30898:30899   */\n      0x00\n        /* \"#utility.yul\":30889:30895   */\n      dup4\n        /* \"#utility.yul\":30884:30887   */\n      dup4\n        /* \"#utility.yul\":30880:30896   */\n      add\n        /* \"#utility.yul\":30873:30900   */\n      mstore\n        /* \"#utility.yul\":30752:30906   */\n      pop\n      pop\n      pop\n      jump\t// out\n        /* \"#utility.yul\":30912:31219   */\n    tag_694:\n        /* \"#utility.yul\":30980:30981   */\n      0x00\n        /* \"#utility.yul\":30990:31103   */\n    tag_842:\n        /* \"#utility.yul\":31004:31010   */\n      dup4\n        /* \"#utility.yul\":31001:31002   */\n      dup2\n        /* \"#utility.yul\":30998:31011   */\n      lt\n        /* \"#utility.yul\":30990:31103   */\n      iszero\n      tag_844\n      jumpi\n        /* \"#utility.yul\":31089:31090   */\n      dup1\n        /* \"#utility.yul\":31084:31087   */\n      dup3\n        /* \"#utility.yul\":31080:31091   */\n      add\n        /* \"#utility.yul\":31074:31092   */\n      mload\n        /* \"#utility.yul\":31070:31071   */\n      dup2\n        /* \"#utility.yul\":31065:31068   */\n      dup5\n        /* \"#utility.yul\":31061:31072   */\n      add\n        /* \"#utility.yul\":31054:31093   */\n      mstore\n        /* \"#utility.yul\":31026:31028   */\n      0x20\n        /* \"#utility.yul\":31023:31024   */\n      dup2\n        /* \"#utility.yul\":31019:31029   */\n      add\n        /* \"#utility.yul\":31014:31029   */\n      swap1\n      pop\n        /* \"#utility.yul\":30990:31103   */\n      jump(tag_842)\n    tag_844:\n        /* \"#utility.yul\":31121:31127   */\n      dup4\n        /* \"#utility.yul\":31118:31119   */\n      dup2\n        /* \"#utility.yul\":31115:31128   */\n      gt\n        /* \"#utility.yul\":31112:31213   */\n      iszero\n      tag_845\n      jumpi\n        /* \"#utility.yul\":31201:31202   */\n      0x00\n        /* \"#utility.yul\":31192:31198   */\n      dup5\n        /* \"#utility.yul\":31187:31190   */\n      dup5\n        /* \"#utility.yul\":31183:31199   */\n      add\n        /* \"#utility.yul\":31176:31203   */\n      mstore\n        /* \"#utility.yul\":31112:31213   */\n    tag_845:\n        /* \"#utility.yul\":30961:31219   */\n      pop\n        /* \"#utility.yul\":30912:31219   */\n      pop\n      pop\n      pop\n      jump\t// out\n        /* \"#utility.yul\":31225:31545   */\n    tag_112:\n        /* \"#utility.yul\":31269:31275   */\n      0x00\n        /* \"#utility.yul\":31306:31307   */\n      0x02\n        /* \"#utility.yul\":31300:31304   */\n      dup3\n        /* \"#utility.yul\":31296:31308   */\n      div\n        /* \"#utility.yul\":31286:31308   */\n      swap1\n      pop\n        /* \"#utility.yul\":31353:31354   */\n      0x01\n        /* \"#utility.yul\":31347:31351   */\n      dup3\n        /* \"#utility.yul\":31343:31355   */\n      and\n        /* \"#utility.yul\":31374:31392   */\n      dup1\n        /* \"#utility.yul\":31364:31445   */\n      tag_847\n      jumpi\n        /* \"#utility.yul\":31430:31434   */\n      0x7f\n        /* \"#utility.yul\":31422:31428   */\n      dup3\n        /* \"#utility.yul\":31418:31435   */\n      and\n        /* \"#utility.yul\":31408:31435   */\n      swap2\n      pop\n        /* \"#utility.yul\":31364:31445   */\n    tag_847:\n        /* \"#utility.yul\":31492:31494   */\n      0x20\n        /* \"#utility.yul\":31484:31490   */\n      dup3\n        /* \"#utility.yul\":31481:31495   */\n      lt\n        /* \"#utility.yul\":31461:31479   */\n      dup2\n        /* \"#utility.yul\":31458:31496   */\n      eq\n        /* \"#utility.yul\":31455:31539   */\n      iszero\n      tag_848\n      jumpi\n        /* \"#utility.yul\":31511:31529   */\n      tag_849\n      tag_850\n      jump\t// in\n    tag_849:\n        /* \"#utility.yul\":31455:31539   */\n    tag_848:\n        /* \"#utility.yul\":31276:31545   */\n      pop\n        /* \"#utility.yul\":31225:31545   */\n      swap2\n      swap1\n      pop\n      jump\t// out\n        /* \"#utility.yul\":31551:31832   */\n    tag_807:\n        /* \"#utility.yul\":31634:31661   */\n      tag_852\n        /* \"#utility.yul\":31656:31660   */\n      dup3\n        /* \"#utility.yul\":31634:31661   */\n      tag_696\n      jump\t// in\n    tag_852:\n        /* \"#utility.yul\":31626:31632   */\n      dup2\n        /* \"#utility.yul\":31622:31662   */\n      add\n        /* \"#utility.yul\":31764:31770   */\n      dup2\n        /* \"#utility.yul\":31752:31762   */\n      dup2\n        /* \"#utility.yul\":31749:31771   */\n      lt\n        /* \"#utility.yul\":31728:31746   */\n      0xffffffffffffffff\n        /* \"#utility.yul\":31716:31726   */\n      dup3\n        /* \"#utility.yul\":31713:31747   */\n      gt\n        /* \"#utility.yul\":31710:31772   */\n      or\n        /* \"#utility.yul\":31707:31795   */\n      iszero\n      tag_853\n      jumpi\n        /* \"#utility.yul\":31775:31793   */\n      tag_854\n      tag_812\n      jump\t// in\n    tag_854:\n        /* \"#utility.yul\":31707:31795   */\n    tag_853:\n        /* \"#utility.yul\":31815:31825   */\n      dup1\n        /* \"#utility.yul\":31811:31813   */\n      0x40\n        /* \"#utility.yul\":31804:31826   */\n      mstore\n        /* \"#utility.yul\":31594:31832   */\n      pop\n        /* \"#utility.yul\":31551:31832   */\n      pop\n      pop\n      jump\t// out\n        /* \"#utility.yul\":31838:32018   */\n    tag_106:\n        /* \"#utility.yul\":31886:31963   */\n      0x4e487b7100000000000000000000000000000000000000000000000000000000\n        /* \"#utility.yul\":31883:31884   */\n      0x00\n        /* \"#utility.yul\":31876:31964   */\n      mstore\n        /* \"#utility.yul\":31983:31987   */\n      0x21\n        /* \"#utility.yul\":31980:31981   */\n      0x04\n        /* \"#utility.yul\":31973:31988   */\n      mstore\n        /* \"#utility.yul\":32007:32011   */\n      0x24\n        /* \"#utility.yul\":32004:32005   */\n      0x00\n        /* \"#utility.yul\":31997:32012   */\n      revert\n        /* \"#utility.yul\":32024:32204   */\n    tag_850:\n        /* \"#utility.yul\":32072:32149   */\n      0x4e487b7100000000000000000000000000000000000000000000000000000000\n        /* \"#utility.yul\":32069:32070   */\n      0x00\n        /* \"#utility.yul\":32062:32150   */\n      mstore\n        /* \"#utility.yul\":32169:32173   */\n      0x22\n        /* \"#utility.yul\":32166:32167   */\n      0x04\n        /* \"#utility.yul\":32159:32174   */\n      mstore\n        /* \"#utility.yul\":32193:32197   */\n      0x24\n        /* \"#utility.yul\":32190:32191   */\n      0x00\n        /* \"#utility.yul\":32183:32198   */\n      revert\n        /* \"#utility.yul\":32210:32390   */\n    tag_812:\n        /* \"#utility.yul\":32258:32335   */\n      0x4e487b7100000000000000000000000000000000000000000000000000000000\n        /* \"#utility.yul\":32255:32256   */\n      0x00\n        /* \"#utility.yul\":32248:32336   */\n      mstore\n        /* \"#utility.yul\":32355:32359   */\n      0x41\n        /* \"#utility.yul\":32352:32353   */\n      0x04\n        /* \"#utility.yul\":32345:32360   */\n      mstore\n        /* \"#utility.yul\":32379:32383   */\n      0x24\n        /* \"#utility.yul\":32376:32377   */\n      0x00\n        /* \"#utility.yul\":32369:32384   */\n      revert\n        /* \"#utility.yul\":32396:32513   */\n    tag_531:\n        /* \"#utility.yul\":32505:32506   */\n      0x00\n        /* \"#utility.yul\":32502:32503   */\n      dup1\n        /* \"#utility.yul\":32495:32507   */\n      revert\n        /* \"#utility.yul\":32519:32636   */\n    tag_512:\n        /* \"#utility.yul\":32628:32629   */\n      0x00\n        /* \"#utility.yul\":32625:32626   */\n      dup1\n        /* \"#utility.yul\":32618:32630   */\n      revert\n        /* \"#utility.yul\":32642:32759   */\n    tag_548:\n        /* \"#utility.yul\":32751:32752   */\n      0x00\n        /* \"#utility.yul\":32748:32749   */\n      dup1\n        /* \"#utility.yul\":32741:32753   */\n      revert\n        /* \"#utility.yul\":32765:32882   */\n    tag_536:\n        /* \"#utility.yul\":32874:32875   */\n      0x00\n        /* \"#utility.yul\":32871:32872   */\n      dup1\n        /* \"#utility.yul\":32864:32876   */\n      revert\n        /* \"#utility.yul\":32888:32990   */\n    tag_696:\n        /* \"#utility.yul\":32929:32935   */\n      0x00\n        /* \"#utility.yul\":32980:32982   */\n      0x1f\n        /* \"#utility.yul\":32976:32983   */\n      not\n        /* \"#utility.yul\":32971:32973   */\n      0x1f\n        /* \"#utility.yul\":32964:32969   */\n      dup4\n        /* \"#utility.yul\":32960:32974   */\n      add\n        /* \"#utility.yul\":32956:32984   */\n      and\n        /* \"#utility.yul\":32946:32984   */\n      swap1\n      pop\n        /* \"#utility.yul\":32888:32990   */\n      swap2\n      swap1\n      pop\n      jump\t// out\n        /* \"#utility.yul\":32996:33173   */\n    tag_714:\n        /* \"#utility.yul\":33136:33165   */\n      0x596f7520616c726561647920636865636b207468697320636173650000000000\n        /* \"#utility.yul\":33132:33133   */\n      0x00\n        /* \"#utility.yul\":33124:33130   */\n      dup3\n        /* \"#utility.yul\":33120:33134   */\n      add\n        /* \"#utility.yul\":33113:33166   */\n      mstore\n        /* \"#utility.yul\":32996:33173   */\n      pop\n      jump\t// out\n        /* \"#utility.yul\":33179:33400   */\n    tag_719:\n        /* \"#utility.yul\":33319:33353   */\n      0x596f7572206c6f67696e20616c726561647920657869737420696e2073797374\n        /* \"#utility.yul\":33315:33316   */\n      0x00\n        /* \"#utility.yul\":33307:33313   */\n      dup3\n        /* \"#utility.yul\":33303:33317   */\n      add\n        /* \"#utility.yul\":33296:33354   */\n      mstore\n        /* \"#utility.yul\":33388:33392   */\n      0x656d000000000000000000000000000000000000000000000000000000000000\n        /* \"#utility.yul\":33383:33385   */\n      0x20\n        /* \"#utility.yul\":33375:33381   */\n      dup3\n        /* \"#utility.yul\":33371:33386   */\n      add\n        /* \"#utility.yul\":33364:33393   */\n      mstore\n        /* \"#utility.yul\":33179:33400   */\n      pop\n      jump\t// out\n        /* \"#utility.yul\":33406:33567   */\n    tag_724:\n        /* \"#utility.yul\":33546:33559   */\n      0x4c6f772062616c616e6365000000000000000000000000000000000000000000\n        /* \"#utility.yul\":33542:33543   */\n      0x00\n        /* \"#utility.yul\":33534:33540   */\n      dup3\n        /* \"#utility.yul\":33530:33544   */\n      add\n        /* \"#utility.yul\":33523:33560   */\n      mstore\n        /* \"#utility.yul\":33406:33567   */\n      pop\n      jump\t// out\n        /* \"#utility.yul\":33573:33732   */\n    tag_729:\n        /* \"#utility.yul\":33713:33724   */\n      0x466f7262696464656e0000000000000000000000000000000000000000000000\n        /* \"#utility.yul\":33709:33710   */\n      0x00\n        /* \"#utility.yul\":33701:33707   */\n      dup3\n        /* \"#utility.yul\":33697:33711   */\n      add\n        /* \"#utility.yul\":33690:33725   */\n      mstore\n        /* \"#utility.yul\":33573:33732   */\n      pop\n      jump\t// out\n        /* \"#utility.yul\":33738:33900   */\n    tag_734:\n        /* \"#utility.yul\":33878:33892   */\n      0x596f75206e6f7420757365720000000000000000000000000000000000000000\n        /* \"#utility.yul\":33874:33875   */\n      0x00\n        /* \"#utility.yul\":33866:33872   */\n      dup3\n        /* \"#utility.yul\":33862:33876   */\n      add\n        /* \"#utility.yul\":33855:33893   */\n      mstore\n        /* \"#utility.yul\":33738:33900   */\n      pop\n      jump\t// out\n        /* \"#utility.yul\":33906:34069   */\n    tag_739:\n        /* \"#utility.yul\":34046:34061   */\n      0x596f75206e6f742061646d696e00000000000000000000000000000000000000\n        /* \"#utility.yul\":34042:34043   */\n      0x00\n        /* \"#utility.yul\":34034:34040   */\n      dup3\n        /* \"#utility.yul\":34030:34044   */\n      add\n        /* \"#utility.yul\":34023:34062   */\n      mstore\n        /* \"#utility.yul\":33906:34069   */\n      pop\n      jump\t// out\n        /* \"#utility.yul\":34075:34247   */\n    tag_744:\n        /* \"#utility.yul\":34215:34239   */\n      0x596f7520616c7265616479207265676973746572656400000000000000000000\n        /* \"#utility.yul\":34211:34212   */\n      0x00\n        /* \"#utility.yul\":34203:34209   */\n      dup3\n        /* \"#utility.yul\":34199:34213   */\n      add\n        /* \"#utility.yul\":34192:34240   */\n      mstore\n        /* \"#utility.yul\":34075:34247   */\n      pop\n      jump\t// out\n        /* \"#utility.yul\":34253:34414   */\n    tag_749:\n        /* \"#utility.yul\":34393:34406   */\n      0x57726f6e67204c6f67696e000000000000000000000000000000000000000000\n        /* \"#utility.yul\":34389:34390   */\n      0x00\n        /* \"#utility.yul\":34381:34387   */\n      dup3\n        /* \"#utility.yul\":34377:34391   */\n      add\n        /* \"#utility.yul\":34370:34407   */\n      mstore\n        /* \"#utility.yul\":34253:34414   */\n      pop\n      jump\t// out\n        /* \"#utility.yul\":34420:34542   */\n    tag_518:\n        /* \"#utility.yul\":34493:34517   */\n      tag_872\n        /* \"#utility.yul\":34511:34516   */\n      dup2\n        /* \"#utility.yul\":34493:34517   */\n      tag_634\n      jump\t// in\n    tag_872:\n        /* \"#utility.yul\":34486:34491   */\n      dup2\n        /* \"#utility.yul\":34483:34518   */\n      eq\n        /* \"#utility.yul\":34473:34536   */\n      tag_873\n      jumpi\n        /* \"#utility.yul\":34532:34533   */\n      0x00\n        /* \"#utility.yul\":34529:34530   */\n      dup1\n        /* \"#utility.yul\":34522:34534   */\n      revert\n        /* \"#utility.yul\":34473:34536   */\n    tag_873:\n        /* \"#utility.yul\":34420:34542   */\n      pop\n      jump\t// out\n        /* \"#utility.yul\":34548:34686   */\n    tag_522:\n        /* \"#utility.yul\":34629:34661   */\n      tag_875\n        /* \"#utility.yul\":34655:34660   */\n      dup2\n        /* \"#utility.yul\":34629:34661   */\n      tag_833\n      jump\t// in\n    tag_875:\n        /* \"#utility.yul\":34622:34627   */\n      dup2\n        /* \"#utility.yul\":34619:34662   */\n      eq\n        /* \"#utility.yul\":34609:34680   */\n      tag_876\n      jumpi\n        /* \"#utility.yul\":34676:34677   */\n      0x00\n        /* \"#utility.yul\":34673:34674   */\n      dup1\n        /* \"#utility.yul\":34666:34678   */\n      revert\n        /* \"#utility.yul\":34609:34680   */\n    tag_876:\n        /* \"#utility.yul\":34548:34686   */\n      pop\n      jump\t// out\n        /* \"#utility.yul\":34692:34812   */\n    tag_526:\n        /* \"#utility.yul\":34764:34787   */\n      tag_878\n        /* \"#utility.yul\":34781:34786   */\n      dup2\n        /* \"#utility.yul\":34764:34787   */\n      tag_687\n      jump\t// in\n    tag_878:\n        /* \"#utility.yul\":34757:34762   */\n      dup2\n        /* \"#utility.yul\":34754:34788   */\n      eq\n        /* \"#utility.yul\":34744:34806   */\n      tag_879\n      jumpi\n        /* \"#utility.yul\":34802:34803   */\n      0x00\n        /* \"#utility.yul\":34799:34800   */\n      dup1\n        /* \"#utility.yul\":34792:34804   */\n      revert\n        /* \"#utility.yul\":34744:34806   */\n    tag_879:\n        /* \"#utility.yul\":34692:34812   */\n      pop\n      jump\t// out\n\n    auxdata: 0xa2646970667358221220107da4be8c28249a531bfff611c7e3c9a3da53a6a93dd82194e71f71e513950c64736f6c63430008070033\n}\n",
				"bytecode": {
					"linkReferences": {},
					"object": "60806040523480156200001157600080fd5b506040518060400160405280600581526020017f627579657200000000000000000000000000000000000000000000000000000081525060008080815260200190815260200160002090805190602001906200006f92919062000292565b506040518060400160405280600681526020017f73656c6c65720000000000000000000000000000000000000000000000000000815250600080600181526020019081526020016000209080519060200190620000ce92919062000292565b506040518060400160405280600481526020017f73686f70000000000000000000000000000000000000000000000000000000008152506000806002815260200190815260200160002090805190602001906200012d92919062000292565b506040518060400160405280600581526020017f61646d696e0000000000000000000000000000000000000000000000000000008152506000806003815260200190815260200160002090805190602001906200018c92919062000292565b506040518060400160405280600881526020017f70726f7669646572000000000000000000000000000000000000000000000000815250600080600481526020019081526020016000209080519060200190620001eb92919062000292565b506040518060400160405280600481526020017f62616e6b000000000000000000000000000000000000000000000000000000008152506000806005815260200190815260200160002090805190602001906200024a92919062000292565b5033600560006101000a81548173ffffffffffffffffffffffffffffffffffffffff021916908373ffffffffffffffffffffffffffffffffffffffff160217905550620003a7565b828054620002a09062000342565b90600052602060002090601f016020900481019282620002c4576000855562000310565b82601f10620002df57805160ff191683800117855562000310565b8280016001018555821562000310579182015b828111156200030f578251825591602001919060010190620002f2565b5b5090506200031f919062000323565b5090565b5b808211156200033e57600081600090555060010162000324565b5090565b600060028204905060018216806200035b57607f821691505b6020821081141562000372576200037162000378565b5b50919050565b7f4e487b7100000000000000000000000000000000000000000000000000000000600052602260045260246000fd5b614ac580620003b76000396000f3fe608060405234801561001057600080fd5b506004361061012c5760003560e01c80638403f848116100ad578063ac6fa7c311610071578063ac6fa7c314610314578063bce62a7414610330578063c3d5fd391461034c578063dfdd12c91461036d578063f8f98b79146103895761012c565b80638403f848146102955780638edc85f9146102b157806399b958ee146102bb5780639d344d10146102dc578063a59d105f146102f85761012c565b806354504c12116100f457806354504c12146102035780637558b2f8146102255780637b3c7488146102415780637ccb2bd81461025d57806383db0f6d146102795761012c565b806308e74858146101315780632156a781146101655780632d6abf59146101815780632f0185c41461019d5780633a7d280c146101d2575b600080fd5b61014b60048036038101906101469190613a8a565b6103a5565b60405161015c959493929190614418565b60405180910390f35b61017f600480360381019061017a9190613d12565b6108aa565b005b61019b60048036038101906101969190613b6f565b610971565b005b6101b760048036038101906101b29190613cc9565b610d03565b6040516101c99695949392919061431f565b60405180910390f35b6101ec60048036038101906101e79190613cc9565b610fd3565b6040516101fa929190614387565b60405180910390f35b61020b6113ca565b60405161021c959493929190614418565b60405180910390f35b61023f600480360381019061023a9190613c0e565b6118cd565b005b61025b60048036038101906102569190613cc9565b611a48565b005b61027760048036038101906102729190613d12565b611d13565b005b610293600480360381019061028e9190613ab7565b611e1c565b005b6102af60048036038101906102aa9190613e71565b611f6b565b005b6102b9612099565b005b6102c3612134565b6040516102d3949392919061448e565b60405180910390f35b6102f660048036038101906102f19190613de6565b6124e9565b005b610312600480360381019061030d9190613ae4565b612512565b005b61032e60048036038101906103299190613cc9565b612611565b005b61034a60048036038101906103459190613cc9565b6129e3565b005b610354612cae565b60405161036494939291906143b7565b60405180910390f35b61038760048036038101906103829190613cc9565b6132fc565b005b6103a3600480360381019061039e9190613d6e565b613398565b005b60608060608060606003600260003373ffffffffffffffffffffffffffffffffffffffff1673ffffffffffffffffffffffffffffffffffffffff168152602001908152602001600020600001548160058111156104055761040461482a565b5b14610445576040517f08c379a000000000000000000000000000000000000000000000000000000000815260040161043c90614548565b60405180910390fd5b6000600260008973ffffffffffffffffffffffffffffffffffffffff1673ffffffffffffffffffffffffffffffffffffffff168152602001908152602001600020604051806080016040529081600082015481526020016001820180546104ab906147c7565b80601f01602080910402602001604051908101604052809291908181526020018280546104d7906147c7565b80156105245780601f106104f957610100808354040283529160200191610524565b820191906000526020600020905b81548152906001019060200180831161050757829003601f168201915b5050505050815260200160028201805461053d906147c7565b80601f0160208091040260200160405190810160405280929190818152602001828054610569906147c7565b80156105b65780601f1061058b576101008083540402835291602001916105b6565b820191906000526020600020905b81548152906001019060200180831161059957829003601f168201915b5050505050815260200160038201805480602002602001604051908101604052809291908181526020016000905b82821015610690578382906000526020600020018054610603906147c7565b80601f016020809104026020016040519081016040528092919081815260200182805461062f906147c7565b801561067c5780601f106106515761010080835404028352916020019161067c565b820191906000526020600020905b81548152906001019060200180831161065f57829003601f168201915b5050505050815260200190600101906105e4565b505050508152505090506000600c60008a73ffffffffffffffffffffffffffffffffffffffff1673ffffffffffffffffffffffffffffffffffffffff16815260200190815260200160002060009054906101000a900473ffffffffffffffffffffffffffffffffffffffff1690506000600b60008373ffffffffffffffffffffffffffffffffffffffff1673ffffffffffffffffffffffffffffffffffffffff16815260200190815260200160002060405180606001604052908160008201805461075a906147c7565b80601f0160208091040260200160405190810160405280929190818152602001828054610786906147c7565b80156107d35780601f106107a8576101008083540402835291602001916107d3565b820191906000526020600020905b8154815290600101906020018083116107b657829003601f168201915b505050505081526020016001820180546107ec906147c7565b80601f0160208091040260200160405190810160405280929190818152602001828054610818906147c7565b80156108655780601f1061083a57610100808354040283529160200191610865565b820191906000526020600020905b81548152906001019060200180831161084857829003601f168201915b50505050508152602001600282015481525050905082602001519850826040015197508060200151965080600001519550826060015194505050505091939590929450565b600560009054906101000a900473ffffffffffffffffffffffffffffffffffffffff1673ffffffffffffffffffffffffffffffffffffffff163373ffffffffffffffffffffffffffffffffffffffff161461093a576040517f08c379a000000000000000000000000000000000000000000000000000000000815260040161093190614588565b60405180910390fd5b600060058081111561094f5761094e61482a565b5b905061096c6040518060200160405280600081525084838561348d565b505050565b610a54600260003373ffffffffffffffffffffffffffffffffffffffff1673ffffffffffffffffffffffffffffffffffffffff16815260200190815260200160002060010180546109c1906147c7565b80601f01602080910402602001604051908101604052809291908181526020018280546109ed906147c7565b8015610a3a5780601f10610a0f57610100808354040283529160200191610a3a565b820191906000526020600020905b815481529060010190602001808311610a1d57829003601f168201915b505050505060405180602001604052806000815250613791565b15610a94576040517f08c379a0000000000000000000000000000000000000000000000000000000008152600401610a8b90614568565b60405180910390fd5b60608060006040518060c001604052803373ffffffffffffffffffffffffffffffffffffffff1681526020018873ffffffffffffffffffffffffffffffffffffffff168152602001878152602001848152602001838152602001858152509050600e60008873ffffffffffffffffffffffffffffffffffffffff1673ffffffffffffffffffffffffffffffffffffffff16815260200190815260200160002085908060018154018082558091505060019003906000526020600020016000909190919091509080519060200190610b6c9291906137ea565b50600260003373ffffffffffffffffffffffffffffffffffffffff1673ffffffffffffffffffffffffffffffffffffffff16815260200190815260200160002060030185908060018154018082558091505060019003906000526020600020016000909190919091509080519060200190610be89291906137ea565b5080600f86604051610bfa9190614308565b908152602001604051809103902060008201518160000160006101000a81548173ffffffffffffffffffffffffffffffffffffffff021916908373ffffffffffffffffffffffffffffffffffffffff16021790555060208201518160010160006101000a81548173ffffffffffffffffffffffffffffffffffffffff021916908373ffffffffffffffffffffffffffffffffffffffff1602179055506040820151816002019080519060200190610cb29291906137ea565b506060820151816003019080519060200190610ccf929190613870565b506080820151816004019080519060200190610cec929190613870565b5060a0820151816005015590505050505050505050565b6000806060600080600080600f88604051610d1e9190614308565b90815260200160405180910390206040518060c00160405290816000820160009054906101000a900473ffffffffffffffffffffffffffffffffffffffff1673ffffffffffffffffffffffffffffffffffffffff1673ffffffffffffffffffffffffffffffffffffffff1681526020016001820160009054906101000a900473ffffffffffffffffffffffffffffffffffffffff1673ffffffffffffffffffffffffffffffffffffffff1673ffffffffffffffffffffffffffffffffffffffff168152602001600282018054610df3906147c7565b80601f0160208091040260200160405190810160405280929190818152602001828054610e1f906147c7565b8015610e6c5780601f10610e4157610100808354040283529160200191610e6c565b820191906000526020600020905b815481529060010190602001808311610e4f57829003601f168201915b5050505050815260200160038201805480602002602001604051908101604052809291908181526020018280548015610efa57602002820191906000526020600020905b8160009054906101000a900473ffffffffffffffffffffffffffffffffffffffff1673ffffffffffffffffffffffffffffffffffffffff1681526020019060010190808311610eb0575b5050505050815260200160048201805480602002602001604051908101604052809291908181526020018280548015610f8857602002820191906000526020600020905b8160009054906101000a900473ffffffffffffffffffffffffffffffffffffffff1673ffffffffffffffffffffffffffffffffffffffff1681526020019060010190808311610f3e575b505050505081526020016005820154815250509050806000015196508060200151955080604001519450806060015151935080608001515192508060a0015191505091939550919395565b6000606082600073ffffffffffffffffffffffffffffffffffffffff166001826040516110009190614308565b908152602001604051809103902060009054906101000a900473ffffffffffffffffffffffffffffffffffffffff1673ffffffffffffffffffffffffffffffffffffffff161415611086576040517f08c379a000000000000000000000000000000000000000000000000000000000815260040161107d906145c8565b60405180910390fd5b60006001856040516110989190614308565b908152602001604051809103902060009054906101000a900473ffffffffffffffffffffffffffffffffffffffff1690506000600260008373ffffffffffffffffffffffffffffffffffffffff1673ffffffffffffffffffffffffffffffffffffffff1681526020019081526020016000206040518060800160405290816000820154815260200160018201805461112f906147c7565b80601f016020809104026020016040519081016040528092919081815260200182805461115b906147c7565b80156111a85780601f1061117d576101008083540402835291602001916111a8565b820191906000526020600020905b81548152906001019060200180831161118b57829003601f168201915b505050505081526020016002820180546111c1906147c7565b80601f01602080910402602001604051908101604052809291908181526020018280546111ed906147c7565b801561123a5780601f1061120f5761010080835404028352916020019161123a565b820191906000526020600020905b81548152906001019060200180831161121d57829003601f168201915b5050505050815260200160038201805480602002602001604051908101604052809291908181526020016000905b82821015611314578382906000526020600020018054611287906147c7565b80601f01602080910402602001604051908101604052809291908181526020018280546112b3906147c7565b80156113005780601f106112d557610100808354040283529160200191611300565b820191906000526020600020905b8154815290600101906020018083116112e357829003601f168201915b505050505081526020019060010190611268565b50505050815250509050819450600080826000015181526020019081526020016000208054611342906147c7565b80601f016020809104026020016040519081016040528092919081815260200182805461136e906147c7565b80156113bb5780601f10611390576101008083540402835291602001916113bb565b820191906000526020600020905b81548152906001019060200180831161139e57829003601f168201915b50505050509350505050915091565b60608060608060606001600260003373ffffffffffffffffffffffffffffffffffffffff1673ffffffffffffffffffffffffffffffffffffffff1681526020019081526020016000206000015481600581111561142a5761142961482a565b5b1461146a576040517f08c379a000000000000000000000000000000000000000000000000000000000815260040161146190614548565b60405180910390fd5b6000600260003373ffffffffffffffffffffffffffffffffffffffff1673ffffffffffffffffffffffffffffffffffffffff168152602001908152602001600020604051806080016040529081600082015481526020016001820180546114d0906147c7565b80601f01602080910402602001604051908101604052809291908181526020018280546114fc906147c7565b80156115495780601f1061151e57610100808354040283529160200191611549565b820191906000526020600020905b81548152906001019060200180831161152c57829003601f168201915b50505050508152602001600282018054611562906147c7565b80601f016020809104026020016040519081016040528092919081815260200182805461158e906147c7565b80156115db5780601f106115b0576101008083540402835291602001916115db565b820191906000526020600020905b8154815290600101906020018083116115be57829003601f168201915b5050505050815260200160038201805480602002602001604051908101604052809291908181526020016000905b828210156116b5578382906000526020600020018054611628906147c7565b80601f0160208091040260200160405190810160405280929190818152602001828054611654906147c7565b80156116a15780601f10611676576101008083540402835291602001916116a1565b820191906000526020600020905b81548152906001019060200180831161168457829003601f168201915b505050505081526020019060010190611609565b505050508152505090506000600c60003373ffffffffffffffffffffffffffffffffffffffff1673ffffffffffffffffffffffffffffffffffffffff16815260200190815260200160002060009054906101000a900473ffffffffffffffffffffffffffffffffffffffff1690506000600b60008373ffffffffffffffffffffffffffffffffffffffff1673ffffffffffffffffffffffffffffffffffffffff16815260200190815260200160002060405180606001604052908160008201805461177f906147c7565b80601f01602080910402602001604051908101604052809291908181526020018280546117ab906147c7565b80156117f85780601f106117cd576101008083540402835291602001916117f8565b820191906000526020600020905b8154815290600101906020018083116117db57829003601f168201915b50505050508152602001600182018054611811906147c7565b80601f016020809104026020016040519081016040528092919081815260200182805461183d906147c7565b801561188a5780601f1061185f5761010080835404028352916020019161188a565b820191906000526020600020905b81548152906001019060200180831161186d57829003601f168201915b5050505050815260200160028201548152505090508260200151985082604001519750806020015196508060000151955082606001519450505050509091929394565b6003600260003373ffffffffffffffffffffffffffffffffffffffff1673ffffffffffffffffffffffffffffffffffffffff168152602001908152602001600020600001548160058111156119255761192461482a565b5b14611965576040517f08c379a000000000000000000000000000000000000000000000000000000000815260040161195c90614548565b60405180910390fd5b600060405180606001604052808681526020018581526020016000815250905080600b60008873ffffffffffffffffffffffffffffffffffffffff1673ffffffffffffffffffffffffffffffffffffffff16815260200190815260200160002060008201518160000190805190602001906119e19291906137ea565b5060208201518160010190805190602001906119fe9291906137ea565b5060408201518160020155905050600060026005811115611a2257611a2161482a565b5b9050611a3f6040518060200160405280600081525085838a61348d565b50505050505050565b611b2b600260003373ffffffffffffffffffffffffffffffffffffffff1673ffffffffffffffffffffffffffffffffffffffff1681526020019081526020016000206001018054611a98906147c7565b80601f0160208091040260200160405190810160405280929190818152602001828054611ac4906147c7565b8015611b115780601f10611ae657610100808354040283529160200191611b11565b820191906000526020600020905b815481529060010190602001808311611af457829003601f168201915b505050505060405180602001604052806000815250613791565b15611b6b576040517f08c379a0000000000000000000000000000000000000000000000000000000008152600401611b6290614568565b60405180910390fd5b60001515601182604051611b7f9190614308565b908152602001604051809103902060003373ffffffffffffffffffffffffffffffffffffffff1673ffffffffffffffffffffffffffffffffffffffff16815260200190815260200160002060009054906101000a900460ff16151514611c1a576040517f08c379a0000000000000000000000000000000000000000000000000000000008152600401611c11906144e8565b60405180910390fd5b600f81604051611c2a9190614308565b9081526020016040518091039020600301339080600181540180825580915050600190039060005260206000200160009091909190916101000a81548173ffffffffffffffffffffffffffffffffffffffff021916908373ffffffffffffffffffffffffffffffffffffffff1602179055506001601182604051611cae9190614308565b908152602001604051809103902060003373ffffffffffffffffffffffffffffffffffffffff1673ffffffffffffffffffffffffffffffffffffffff16815260200190815260200160002060006101000a81548160ff02191690831515021790555050565b600560009054906101000a900473ffffffffffffffffffffffffffffffffffffffff1673ffffffffffffffffffffffffffffffffffffffff163373ffffffffffffffffffffffffffffffffffffffff1614611da3576040517f08c379a0000000000000000000000000000000000000000000000000000000008152600401611d9a90614588565b60405180910390fd5b600060046005811115611db957611db861482a565b5b9050611dd66040518060200160405280600081525084838561348d565b81600460006101000a81548173ffffffffffffffffffffffffffffffffffffffff021916908373ffffffffffffffffffffffffffffffffffffffff160217905550505050565b6005600260003373ffffffffffffffffffffffffffffffffffffffff1673ffffffffffffffffffffffffffffffffffffffff16815260200190815260200160002060000154816005811115611e7457611e7361482a565b5b14611eb4576040517f08c379a0000000000000000000000000000000000000000000000000000000008152600401611eab90614548565b60405180910390fd5b683635c9adc5dea000003373ffffffffffffffffffffffffffffffffffffffff16311015611f17576040517f08c379a0000000000000000000000000000000000000000000000000000000008152600401611f0e90614528565b60405180910390fd5b8173ffffffffffffffffffffffffffffffffffffffff166108fc683635c9adc5dea000009081150290604051600060405180830381858888f19350505050158015611f66573d6000803e3d6000fd5b505050565b600060016005811115611f8157611f8061482a565b5b9050611f8f8585838661348d565b6008839080600181540180825580915050600190039060005260206000200160009091909190916101000a81548173ffffffffffffffffffffffffffffffffffffffff021916908373ffffffffffffffffffffffffffffffffffffffff160217905550600d60008373ffffffffffffffffffffffffffffffffffffffff1673ffffffffffffffffffffffffffffffffffffffff168152602001908152602001600020839080600181540180825580915050600190039060005260206000200160009091909190916101000a81548173ffffffffffffffffffffffffffffffffffffffff021916908373ffffffffffffffffffffffffffffffffffffffff1602179055505050505050565b6001600260003373ffffffffffffffffffffffffffffffffffffffff1673ffffffffffffffffffffffffffffffffffffffff168152602001908152602001600020600001548160058111156120f1576120f061482a565b5b14612131576040517f08c379a000000000000000000000000000000000000000000000000000000000815260040161212890614548565b60405180910390fd5b50565b6060806000606061221e600260003373ffffffffffffffffffffffffffffffffffffffff1673ffffffffffffffffffffffffffffffffffffffff168152602001908152602001600020600101805461218b906147c7565b80601f01602080910402602001604051908101604052809291908181526020018280546121b7906147c7565b80156122045780601f106121d957610100808354040283529160200191612204565b820191906000526020600020905b8154815290600101906020018083116121e757829003601f168201915b505050505060405180602001604052806000815250613791565b1561225e576040517f08c379a000000000000000000000000000000000000000000000000000000000815260040161225590614568565b60405180910390fd5b6000600260003373ffffffffffffffffffffffffffffffffffffffff1673ffffffffffffffffffffffffffffffffffffffff168152602001908152602001600020604051806080016040529081600082015481526020016001820180546122c4906147c7565b80601f01602080910402602001604051908101604052809291908181526020018280546122f0906147c7565b801561233d5780601f106123125761010080835404028352916020019161233d565b820191906000526020600020905b81548152906001019060200180831161232057829003601f168201915b50505050508152602001600282018054612356906147c7565b80601f0160208091040260200160405190810160405280929190818152602001828054612382906147c7565b80156123cf5780601f106123a4576101008083540402835291602001916123cf565b820191906000526020600020905b8154815290600101906020018083116123b257829003601f168201915b5050505050815260200160038201805480602002602001604051908101604052809291908181526020016000905b828210156124a957838290600052602060002001805461241c906147c7565b80601f0160208091040260200160405190810160405280929190818152602001828054612448906147c7565b80156124955780601f1061246a57610100808354040283529160200191612495565b820191906000526020600020905b81548152906001019060200180831161247857829003601f168201915b5050505050815260200190600101906123fd565b5050505081525050905080602001519450806040015193503373ffffffffffffffffffffffffffffffffffffffff16319250806060015191505090919293565b60008060058111156124fe576124fd61482a565b5b905061250c8484838561348d565b50505050565b6003600260003373ffffffffffffffffffffffffffffffffffffffff1673ffffffffffffffffffffffffffffffffffffffff1681526020019081526020016000206000015481600581111561256a5761256961482a565b5b146125aa576040517f08c379a00000000000000000000000000000000000000000000000000000000081526004016125a190614548565b60405180910390fd5b6000600360058111156125c0576125bf61482a565b5b90506125ce8484838861348d565b6006839080600181540180825580915050600190039060005260206000200160009091909190915090805190602001906126099291906137ea565b505050505050565b6000600260003373ffffffffffffffffffffffffffffffffffffffff1673ffffffffffffffffffffffffffffffffffffffff168152602001908152602001600020600001548160058111156126695761266861482a565b5b146126a9576040517f08c379a00000000000000000000000000000000000000000000000000000000081526004016126a090614548565b60405180910390fd5b60008060008060058111156126c1576126c061482a565b5b815260200190815260200160002080546126da906147c7565b80601f0160208091040260200160405190810160405280929190818152602001828054612706906147c7565b80156127535780601f1061272857610100808354040283529160200191612753565b820191906000526020600020905b81548152906001019060200180831161273657829003601f168201915b505050505090506000806000600160058111156127735761277261482a565b5b8152602001908152602001600020805461278c906147c7565b80601f01602080910402602001604051908101604052809291908181526020018280546127b8906147c7565b80156128055780601f106127da57610100808354040283529160200191612805565b820191906000526020600020905b8154815290600101906020018083116127e857829003601f168201915b50505050509050600060405180608001604052803373ffffffffffffffffffffffffffffffffffffffff1681526020018481526020018381526020016000151581525090508060108660405161285b9190614308565b908152602001604051809103902060008201518160000160006101000a81548173ffffffffffffffffffffffffffffffffffffffff021916908373ffffffffffffffffffffffffffffffffffffffff16021790555060208201518160010190805190602001906128cc9291906137ea565b5060408201518160020190805190602001906128e99291906137ea565b5060608201518160030160006101000a81548160ff021916908315150217905550905050600a81908060018154018082558091505060019003906000526020600020906004020160009091909190915060008201518160000160006101000a81548173ffffffffffffffffffffffffffffffffffffffff021916908373ffffffffffffffffffffffffffffffffffffffff160217905550602082015181600101908051906020019061299c9291906137ea565b5060408201518160020190805190602001906129b99291906137ea565b5060608201518160030160006101000a81548160ff02191690831515021790555050505050505050565b612ac6600260003373ffffffffffffffffffffffffffffffffffffffff1673ffffffffffffffffffffffffffffffffffffffff1681526020019081526020016000206001018054612a33906147c7565b80601f0160208091040260200160405190810160405280929190818152602001828054612a5f906147c7565b8015612aac5780601f10612a8157610100808354040283529160200191612aac565b820191906000526020600020905b815481529060010190602001808311612a8f57829003601f168201915b505050505060405180602001604052806000815250613791565b15612b06576040517f08c379a0000000000000000000000000000000000000000000000000000000008152600401612afd90614568565b60405180910390fd5b60001515601182604051612b1a9190614308565b908152602001604051809103902060003373ffffffffffffffffffffffffffffffffffffffff1673ffffffffffffffffffffffffffffffffffffffff16815260200190815260200160002060009054906101000a900460ff16151514612bb5576040517f08c379a0000000000000000000000000000000000000000000000000000000008152600401612bac906144e8565b60405180910390fd5b600f81604051612bc59190614308565b9081526020016040518091039020600401339080600181540180825580915050600190039060005260206000200160009091909190916101000a81548173ffffffffffffffffffffffffffffffffffffffff021916908373ffffffffffffffffffffffffffffffffffffffff1602179055506001601182604051612c499190614308565b908152602001604051809103902060003373ffffffffffffffffffffffffffffffffffffffff1673ffffffffffffffffffffffffffffffffffffffff16815260200190815260200160002060006101000a81548160ff02191690831515021790555050565b6060806060806003600260003373ffffffffffffffffffffffffffffffffffffffff1673ffffffffffffffffffffffffffffffffffffffff16815260200190815260200160002060000154816005811115612d0c57612d0b61482a565b5b14612d4c576040517f08c379a0000000000000000000000000000000000000000000000000000000008152600401612d4390614548565b60405180910390fd5b6000600260003373ffffffffffffffffffffffffffffffffffffffff1673ffffffffffffffffffffffffffffffffffffffff16815260200190815260200160002060405180608001604052908160008201548152602001600182018054612db2906147c7565b80601f0160208091040260200160405190810160405280929190818152602001828054612dde906147c7565b8015612e2b5780601f10612e0057610100808354040283529160200191612e2b565b820191906000526020600020905b815481529060010190602001808311612e0e57829003601f168201915b50505050508152602001600282018054612e44906147c7565b80601f0160208091040260200160405190810160405280929190818152602001828054612e70906147c7565b8015612ebd5780601f10612e9257610100808354040283529160200191612ebd565b820191906000526020600020905b815481529060010190602001808311612ea057829003601f168201915b5050505050815260200160038201805480602002602001604051908101604052809291908181526020016000905b82821015612f97578382906000526020600020018054612f0a906147c7565b80601f0160208091040260200160405190810160405280929190818152602001828054612f36906147c7565b8015612f835780601f10612f5857610100808354040283529160200191612f83565b820191906000526020600020905b815481529060010190602001808311612f6657829003601f168201915b505050505081526020019060010190612eeb565b5050505081525050905080602001519550600a805480602002602001604051908101604052809291908181526020016000905b8282101561319157838290600052602060002090600402016040518060800160405290816000820160009054906101000a900473ffffffffffffffffffffffffffffffffffffffff1673ffffffffffffffffffffffffffffffffffffffff1673ffffffffffffffffffffffffffffffffffffffff168152602001600182018054613053906147c7565b80601f016020809104026020016040519081016040528092919081815260200182805461307f906147c7565b80156130cc5780601f106130a1576101008083540402835291602001916130cc565b820191906000526020600020905b8154815290600101906020018083116130af57829003601f168201915b505050505081526020016002820180546130e5906147c7565b80601f0160208091040260200160405190810160405280929190818152602001828054613111906147c7565b801561315e5780601f106131335761010080835404028352916020019161315e565b820191906000526020600020905b81548152906001019060200180831161314157829003601f168201915b505050505081526020016003820160009054906101000a900460ff16151515158152505081526020019060010190612fca565b5050505094506006805480602002602001604051908101604052809291908181526020016000905b828210156132655783829060005260206000200180546131d8906147c7565b80601f0160208091040260200160405190810160405280929190818152602001828054613204906147c7565b80156132515780601f1061322657610100808354040283529160200191613251565b820191906000526020600020905b81548152906001019060200180831161323457829003601f168201915b5050505050815260200190600101906131b9565b50505050935060088054806020026020016040519081016040528092919081815260200182805480156132ed57602002820191906000526020600020905b8160009054906101000a900473ffffffffffffffffffffffffffffffffffffffff1673ffffffffffffffffffffffffffffffffffffffff16815260200190600101908083116132a3575b50505050509250505090919293565b6003600260003373ffffffffffffffffffffffffffffffffffffffff1673ffffffffffffffffffffffffffffffffffffffff168152602001908152602001600020600001548160058111156133545761335361482a565b5b14613394576040517f08c379a000000000000000000000000000000000000000000000000000000000815260040161338b90614548565b60405180910390fd5b5050565b600560009054906101000a900473ffffffffffffffffffffffffffffffffffffffff1673ffffffffffffffffffffffffffffffffffffffff163373ffffffffffffffffffffffffffffffffffffffff1614613428576040517f08c379a000000000000000000000000000000000000000000000000000000000815260040161341f90614588565b60405180910390fd5b60006003600581111561343e5761343d61482a565b5b905061344c8383833361348d565b6006829080600181540180825580915050600190039060005260206000200160009091909190915090805190602001906134879291906137ea565b50505050565b8083613572600260008473ffffffffffffffffffffffffffffffffffffffff1673ffffffffffffffffffffffffffffffffffffffff16815260200190815260200160002060020180546134df906147c7565b80601f016020809104026020016040519081016040528092919081815260200182805461350b906147c7565b80156135585780601f1061352d57610100808354040283529160200191613558565b820191906000526020600020905b81548152906001019060200180831161353b57829003601f168201915b505050505060405180602001604052806000815250613791565b156135b2576040517f08c379a00000000000000000000000000000000000000000000000000000000081526004016135a9906145a8565b60405180910390fd5b600073ffffffffffffffffffffffffffffffffffffffff166001826040516135da9190614308565b908152602001604051809103902060009054906101000a900473ffffffffffffffffffffffffffffffffffffffff1673ffffffffffffffffffffffffffffffffffffffff161461365f576040517f08c379a000000000000000000000000000000000000000000000000000000000815260040161365690614508565b60405180910390fd5b606060006040518060800160405280878152602001888152602001898152602001838152509050846001886040516136979190614308565b908152602001604051809103902060006101000a81548173ffffffffffffffffffffffffffffffffffffffff021916908373ffffffffffffffffffffffffffffffffffffffff16021790555080600260008773ffffffffffffffffffffffffffffffffffffffff1673ffffffffffffffffffffffffffffffffffffffff1681526020019081526020016000206000820151816000015560208201518160010190805190602001906137499291906137ea565b5060408201518160020190805190602001906137669291906137ea565b5060608201518160030190805190602001906137839291906138fa565b509050505050505050505050565b6000816040516020016137a49190614308565b60405160208183030381529060405280519060200120836040516020016137cb9190614308565b6040516020818303038152906040528051906020012014905092915050565b8280546137f6906147c7565b90600052602060002090601f016020900481019282613818576000855561385f565b82601f1061383157805160ff191683800117855561385f565b8280016001018555821561385f579182015b8281111561385e578251825591602001919060010190613843565b5b50905061386c919061395a565b5090565b8280548282559060005260206000209081019282156138e9579160200282015b828111156138e85782518260006101000a81548173ffffffffffffffffffffffffffffffffffffffff021916908373ffffffffffffffffffffffffffffffffffffffff16021790555091602001919060010190613890565b5b5090506138f6919061395a565b5090565b828054828255906000526020600020908101928215613949579160200282015b828111156139485782518290805190602001906139389291906137ea565b509160200191906001019061391a565b5b5090506139569190613977565b5090565b5b8082111561397357600081600090555060010161395b565b5090565b5b80821115613997576000818161398e919061399b565b50600101613978565b5090565b5080546139a7906147c7565b6000825580601f106139b957506139d8565b601f0160209004906000526020600020908101906139d7919061395a565b5b50565b60006139ee6139e98461460d565b6145e8565b905082815260208101848484011115613a0a57613a096148bc565b5b613a15848285614785565b509392505050565b600081359050613a2c81614a4a565b92915050565b600081359050613a4181614a61565b92915050565b600081359050613a5681614a78565b92915050565b600082601f830112613a7157613a706148b7565b5b8135613a818482602086016139db565b91505092915050565b600060208284031215613aa057613a9f6148c6565b5b6000613aae84828501613a1d565b91505092915050565b600060208284031215613acd57613acc6148c6565b5b6000613adb84828501613a32565b91505092915050565b600080600060608486031215613afd57613afc6148c6565b5b6000613b0b86828701613a1d565b935050602084013567ffffffffffffffff811115613b2c57613b2b6148c1565b5b613b3886828701613a5c565b925050604084013567ffffffffffffffff811115613b5957613b586148c1565b5b613b6586828701613a5c565b9150509250925092565b60008060008060808587031215613b8957613b886148c6565b5b6000613b9787828801613a1d565b945050602085013567ffffffffffffffff811115613bb857613bb76148c1565b5b613bc487828801613a5c565b935050604085013567ffffffffffffffff811115613be557613be46148c1565b5b613bf187828801613a5c565b9250506060613c0287828801613a47565b91505092959194509250565b60008060008060808587031215613c2857613c276148c6565b5b6000613c3687828801613a1d565b945050602085013567ffffffffffffffff811115613c5757613c566148c1565b5b613c6387828801613a5c565b935050604085013567ffffffffffffffff811115613c8457613c836148c1565b5b613c9087828801613a5c565b925050606085013567ffffffffffffffff811115613cb157613cb06148c1565b5b613cbd87828801613a5c565b91505092959194509250565b600060208284031215613cdf57613cde6148c6565b5b600082013567ffffffffffffffff811115613cfd57613cfc6148c1565b5b613d0984828501613a5c565b91505092915050565b60008060408385031215613d2957613d286148c6565b5b600083013567ffffffffffffffff811115613d4757613d466148c1565b5b613d5385828601613a5c565b9250506020613d6485828601613a1d565b9150509250929050565b60008060408385031215613d8557613d846148c6565b5b600083013567ffffffffffffffff811115613da357613da26148c1565b5b613daf85828601613a5c565b925050602083013567ffffffffffffffff811115613dd057613dcf6148c1565b5b613ddc85828601613a5c565b9150509250929050565b600080600060608486031215613dff57613dfe6148c6565b5b600084013567ffffffffffffffff811115613e1d57613e1c6148c1565b5b613e2986828701613a5c565b935050602084013567ffffffffffffffff811115613e4a57613e496148c1565b5b613e5686828701613a5c565b9250506040613e6786828701613a1d565b9150509250925092565b60008060008060808587031215613e8b57613e8a6148c6565b5b600085013567ffffffffffffffff811115613ea957613ea86148c1565b5b613eb587828801613a5c565b945050602085013567ffffffffffffffff811115613ed657613ed56148c1565b5b613ee287828801613a5c565b9350506040613ef387828801613a1d565b9250506060613f0487828801613a1d565b91505092959194509250565b6000613f1c8383613f50565b60208301905092915050565b6000613f3483836140d4565b905092915050565b6000613f48838361428f565b905092915050565b613f5981614721565b82525050565b613f6881614721565b82525050565b6000613f798261466e565b613f8381856146c1565b9350613f8e8361463e565b8060005b83811015613fbf578151613fa68882613f10565b9750613fb18361469a565b925050600181019050613f92565b5085935050505092915050565b6000613fd782614679565b613fe181856146d2565b935083602082028501613ff38561464e565b8060005b8581101561402f57848403895281516140108582613f28565b945061401b836146a7565b925060208a01995050600181019050613ff7565b50829750879550505050505092915050565b600061404c82614684565b61405681856146e3565b9350836020820285016140688561465e565b8060005b858110156140a457848403895281516140858582613f3c565b9450614090836146b4565b925060208a0199505060018101905061406c565b50829750879550505050505092915050565b6140bf81614745565b82525050565b6140ce81614751565b82525050565b60006140df8261468f565b6140e981856146f4565b93506140f9818560208601614794565b614102816148cb565b840191505092915050565b60006141188261468f565b6141228185614705565b9350614132818560208601614794565b61413b816148cb565b840191505092915050565b60006141518261468f565b61415b8185614716565b935061416b818560208601614794565b80840191505092915050565b6000614184601b83614705565b915061418f826148dc565b602082019050919050565b60006141a7602283614705565b91506141b282614905565b604082019050919050565b60006141ca600b83614705565b91506141d582614954565b602082019050919050565b60006141ed600983614705565b91506141f88261497d565b602082019050919050565b6000614210600c83614705565b915061421b826149a6565b602082019050919050565b6000614233600d83614705565b915061423e826149cf565b602082019050919050565b6000614256601683614705565b9150614261826149f8565b602082019050919050565b6000614279600b83614705565b915061428482614a21565b602082019050919050565b60006080830160008301516142a76000860182613f50565b50602083015184820360208601526142bf82826140d4565b915050604083015184820360408601526142d982826140d4565b91505060608301516142ee60608601826140b6565b508091505092915050565b6143028161477b565b82525050565b60006143148284614146565b915081905092915050565b600060c0820190506143346000830189613f5f565b6143416020830188613f5f565b8181036040830152614353818761410d565b905061436260608301866142f9565b61436f60808301856142f9565b61437c60a08301846140c5565b979650505050505050565b600060408201905061439c6000830185613f5f565b81810360208301526143ae818461410d565b90509392505050565b600060808201905081810360008301526143d1818761410d565b905081810360208301526143e58186614041565b905081810360408301526143f98185613fcc565b9050818103606083015261440d8184613f6e565b905095945050505050565b600060a0820190508181036000830152614432818861410d565b90508181036020830152614446818761410d565b9050818103604083015261445a818661410d565b9050818103606083015261446e818561410d565b905081810360808301526144828184613fcc565b90509695505050505050565b600060808201905081810360008301526144a8818761410d565b905081810360208301526144bc818661410d565b90506144cb60408301856142f9565b81810360608301526144dd8184613fcc565b905095945050505050565b6000602082019050818103600083015261450181614177565b9050919050565b600060208201905081810360008301526145218161419a565b9050919050565b60006020820190508181036000830152614541816141bd565b9050919050565b60006020820190508181036000830152614561816141e0565b9050919050565b6000602082019050818103600083015261458181614203565b9050919050565b600060208201905081810360008301526145a181614226565b9050919050565b600060208201905081810360008301526145c181614249565b9050919050565b600060208201905081810360008301526145e18161426c565b9050919050565b60006145f2614603565b90506145fe82826147f9565b919050565b6000604051905090565b600067ffffffffffffffff82111561462857614627614888565b5b614631826148cb565b9050602081019050919050565b6000819050602082019050919050565b6000819050602082019050919050565b6000819050602082019050919050565b600081519050919050565b600081519050919050565b600081519050919050565b600081519050919050565b6000602082019050919050565b6000602082019050919050565b6000602082019050919050565b600082825260208201905092915050565b600082825260208201905092915050565b600082825260208201905092915050565b600082825260208201905092915050565b600082825260208201905092915050565b600081905092915050565b600061472c8261475b565b9050919050565b600061473e8261475b565b9050919050565b60008115159050919050565b6000819050919050565b600073ffffffffffffffffffffffffffffffffffffffff82169050919050565b6000819050919050565b82818337600083830152505050565b60005b838110156147b2578082015181840152602081019050614797565b838111156147c1576000848401525b50505050565b600060028204905060018216806147df57607f821691505b602082108114156147f3576147f2614859565b5b50919050565b614802826148cb565b810181811067ffffffffffffffff8211171561482157614820614888565b5b80604052505050565b7f4e487b7100000000000000000000000000000000000000000000000000000000600052602160045260246000fd5b7f4e487b7100000000000000000000000000000000000000000000000000000000600052602260045260246000fd5b7f4e487b7100000000000000000000000000000000000000000000000000000000600052604160045260246000fd5b600080fd5b600080fd5b600080fd5b600080fd5b6000601f19601f8301169050919050565b7f596f7520616c726561647920636865636b207468697320636173650000000000600082015250565b7f596f7572206c6f67696e20616c726561647920657869737420696e207379737460008201527f656d000000000000000000000000000000000000000000000000000000000000602082015250565b7f4c6f772062616c616e6365000000000000000000000000000000000000000000600082015250565b7f466f7262696464656e0000000000000000000000000000000000000000000000600082015250565b7f596f75206e6f7420757365720000000000000000000000000000000000000000600082015250565b7f596f75206e6f742061646d696e00000000000000000000000000000000000000600082015250565b7f596f7520616c7265616479207265676973746572656400000000000000000000600082015250565b7f57726f6e67204c6f67696e000000000000000000000000000000000000000000600082015250565b614a5381614721565b8114614a5e57600080fd5b50565b614a6a81614733565b8114614a7557600080fd5b50565b614a8181614751565b8114614a8c57600080fd5b5056fea2646970667358221220107da4be8c28249a531bfff611c7e3c9a3da53a6a93dd82194e71f71e513950c64736f6c63430008070033",
					"opcodes": "PUSH1 0x80 PUSH1 0x40 MSTORE CALLVALUE DUP1 ISZERO PUSH3 0x11 JUMPI PUSH1 0x0 DUP1 REVERT JUMPDEST POP PUSH1 0x40 MLOAD DUP1 PUSH1 0x40 ADD PUSH1 0x40 MSTORE DUP1 PUSH1 0x5 DUP2 MSTORE PUSH1 0x20 ADD PUSH32 0x6275796572000000000000000000000000000000000000000000000000000000 DUP2 MSTORE POP PUSH1 0x0 DUP1 DUP1 DUP2 MSTORE PUSH1 0x20 ADD SWAP1 DUP2 MSTORE PUSH1 0x20 ADD PUSH1 0x0 KECCAK256 SWAP1 DUP1 MLOAD SWAP1 PUSH1 0x20 ADD SWAP1 PUSH3 0x6F SWAP3 SWAP2 SWAP1 PUSH3 0x292 JUMP JUMPDEST POP PUSH1 0x40 MLOAD DUP1 PUSH1 0x40 ADD PUSH1 0x40 MSTORE DUP1 PUSH1 0x6 DUP2 MSTORE PUSH1 0x20 ADD PUSH32 0x73656C6C65720000000000000000000000000000000000000000000000000000 DUP2 MSTORE POP PUSH1 0x0 DUP1 PUSH1 0x1 DUP2 MSTORE PUSH1 0x20 ADD SWAP1 DUP2 MSTORE PUSH1 0x20 ADD PUSH1 0x0 KECCAK256 SWAP1 DUP1 MLOAD SWAP1 PUSH1 0x20 ADD SWAP1 PUSH3 0xCE SWAP3 SWAP2 SWAP1 PUSH3 0x292 JUMP JUMPDEST POP PUSH1 0x40 MLOAD DUP1 PUSH1 0x40 ADD PUSH1 0x40 MSTORE DUP1 PUSH1 0x4 DUP2 MSTORE PUSH1 0x20 ADD PUSH32 0x73686F7000000000000000000000000000000000000000000000000000000000 DUP2 MSTORE POP PUSH1 0x0 DUP1 PUSH1 0x2 DUP2 MSTORE PUSH1 0x20 ADD SWAP1 DUP2 MSTORE PUSH1 0x20 ADD PUSH1 0x0 KECCAK256 SWAP1 DUP1 MLOAD SWAP1 PUSH1 0x20 ADD SWAP1 PUSH3 0x12D SWAP3 SWAP2 SWAP1 PUSH3 0x292 JUMP JUMPDEST POP PUSH1 0x40 MLOAD DUP1 PUSH1 0x40 ADD PUSH1 0x40 MSTORE DUP1 PUSH1 0x5 DUP2 MSTORE PUSH1 0x20 ADD PUSH32 0x61646D696E000000000000000000000000000000000000000000000000000000 DUP2 MSTORE POP PUSH1 0x0 DUP1 PUSH1 0x3 DUP2 MSTORE PUSH1 0x20 ADD SWAP1 DUP2 MSTORE PUSH1 0x20 ADD PUSH1 0x0 KECCAK256 SWAP1 DUP1 MLOAD SWAP1 PUSH1 0x20 ADD SWAP1 PUSH3 0x18C SWAP3 SWAP2 SWAP1 PUSH3 0x292 JUMP JUMPDEST POP PUSH1 0x40 MLOAD DUP1 PUSH1 0x40 ADD PUSH1 0x40 MSTORE DUP1 PUSH1 0x8 DUP2 MSTORE PUSH1 0x20 ADD PUSH32 0x70726F7669646572000000000000000000000000000000000000000000000000 DUP2 MSTORE POP PUSH1 0x0 DUP1 PUSH1 0x4 DUP2 MSTORE PUSH1 0x20 ADD SWAP1 DUP2 MSTORE PUSH1 0x20 ADD PUSH1 0x0 KECCAK256 SWAP1 DUP1 MLOAD SWAP1 PUSH1 0x20 ADD SWAP1 PUSH3 0x1EB SWAP3 SWAP2 SWAP1 PUSH3 0x292 JUMP JUMPDEST POP PUSH1 0x40 MLOAD DUP1 PUSH1 0x40 ADD PUSH1 0x40 MSTORE DUP1 PUSH1 0x4 DUP2 MSTORE PUSH1 0x20 ADD PUSH32 0x62616E6B00000000000000000000000000000000000000000000000000000000 DUP2 MSTORE POP PUSH1 0x0 DUP1 PUSH1 0x5 DUP2 MSTORE PUSH1 0x20 ADD SWAP1 DUP2 MSTORE PUSH1 0x20 ADD PUSH1 0x0 KECCAK256 SWAP1 DUP1 MLOAD SWAP1 PUSH1 0x20 ADD SWAP1 PUSH3 0x24A SWAP3 SWAP2 SWAP1 PUSH3 0x292 JUMP JUMPDEST POP CALLER PUSH1 0x5 PUSH1 0x0 PUSH2 0x100 EXP DUP2 SLOAD DUP2 PUSH20 0xFFFFFFFFFFFFFFFFFFFFFFFFFFFFFFFFFFFFFFFF MUL NOT AND SWAP1 DUP4 PUSH20 0xFFFFFFFFFFFFFFFFFFFFFFFFFFFFFFFFFFFFFFFF AND MUL OR SWAP1 SSTORE POP PUSH3 0x3A7 JUMP JUMPDEST DUP3 DUP1 SLOAD PUSH3 0x2A0 SWAP1 PUSH3 0x342 JUMP JUMPDEST SWAP1 PUSH1 0x0 MSTORE PUSH1 0x20 PUSH1 0x0 KECCAK256 SWAP1 PUSH1 0x1F ADD PUSH1 0x20 SWAP1 DIV DUP2 ADD SWAP3 DUP3 PUSH3 0x2C4 JUMPI PUSH1 0x0 DUP6 SSTORE PUSH3 0x310 JUMP JUMPDEST DUP3 PUSH1 0x1F LT PUSH3 0x2DF JUMPI DUP1 MLOAD PUSH1 0xFF NOT AND DUP4 DUP1 ADD OR DUP6 SSTORE PUSH3 0x310 JUMP JUMPDEST DUP3 DUP1 ADD PUSH1 0x1 ADD DUP6 SSTORE DUP3 ISZERO PUSH3 0x310 JUMPI SWAP2 DUP3 ADD JUMPDEST DUP3 DUP2 GT ISZERO PUSH3 0x30F JUMPI DUP3 MLOAD DUP3 SSTORE SWAP2 PUSH1 0x20 ADD SWAP2 SWAP1 PUSH1 0x1 ADD SWAP1 PUSH3 0x2F2 JUMP JUMPDEST JUMPDEST POP SWAP1 POP PUSH3 0x31F SWAP2 SWAP1 PUSH3 0x323 JUMP JUMPDEST POP SWAP1 JUMP JUMPDEST JUMPDEST DUP1 DUP3 GT ISZERO PUSH3 0x33E JUMPI PUSH1 0x0 DUP2 PUSH1 0x0 SWAP1 SSTORE POP PUSH1 0x1 ADD PUSH3 0x324 JUMP JUMPDEST POP SWAP1 JUMP JUMPDEST PUSH1 0x0 PUSH1 0x2 DUP3 DIV SWAP1 POP PUSH1 0x1 DUP3 AND DUP1 PUSH3 0x35B JUMPI PUSH1 0x7F DUP3 AND SWAP2 POP JUMPDEST PUSH1 0x20 DUP3 LT DUP2 EQ ISZERO PUSH3 0x372 JUMPI PUSH3 0x371 PUSH3 0x378 JUMP JUMPDEST JUMPDEST POP SWAP2 SWAP1 POP JUMP JUMPDEST PUSH32 0x4E487B7100000000000000000000000000000000000000000000000000000000 PUSH1 0x0 MSTORE PUSH1 0x22 PUSH1 0x4 MSTORE PUSH1 0x24 PUSH1 0x0 REVERT JUMPDEST PUSH2 0x4AC5 DUP1 PUSH3 0x3B7 PUSH1 0x0 CODECOPY PUSH1 0x0 RETURN INVALID PUSH1 0x80 PUSH1 0x40 MSTORE CALLVALUE DUP1 ISZERO PUSH2 0x10 JUMPI PUSH1 0x0 DUP1 REVERT JUMPDEST POP PUSH1 0x4 CALLDATASIZE LT PUSH2 0x12C JUMPI PUSH1 0x0 CALLDATALOAD PUSH1 0xE0 SHR DUP1 PUSH4 0x8403F848 GT PUSH2 0xAD JUMPI DUP1 PUSH4 0xAC6FA7C3 GT PUSH2 0x71 JUMPI DUP1 PUSH4 0xAC6FA7C3 EQ PUSH2 0x314 JUMPI DUP1 PUSH4 0xBCE62A74 EQ PUSH2 0x330 JUMPI DUP1 PUSH4 0xC3D5FD39 EQ PUSH2 0x34C JUMPI DUP1 PUSH4 0xDFDD12C9 EQ PUSH2 0x36D JUMPI DUP1 PUSH4 0xF8F98B79 EQ PUSH2 0x389 JUMPI PUSH2 0x12C JUMP JUMPDEST DUP1 PUSH4 0x8403F848 EQ PUSH2 0x295 JUMPI DUP1 PUSH4 0x8EDC85F9 EQ PUSH2 0x2B1 JUMPI DUP1 PUSH4 0x99B958EE EQ PUSH2 0x2BB JUMPI DUP1 PUSH4 0x9D344D10 EQ PUSH2 0x2DC JUMPI DUP1 PUSH4 0xA59D105F EQ PUSH2 0x2F8 JUMPI PUSH2 0x12C JUMP JUMPDEST DUP1 PUSH4 0x54504C12 GT PUSH2 0xF4 JUMPI DUP1 PUSH4 0x54504C12 EQ PUSH2 0x203 JUMPI DUP1 PUSH4 0x7558B2F8 EQ PUSH2 0x225 JUMPI DUP1 PUSH4 0x7B3C7488 EQ PUSH2 0x241 JUMPI DUP1 PUSH4 0x7CCB2BD8 EQ PUSH2 0x25D JUMPI DUP1 PUSH4 0x83DB0F6D EQ PUSH2 0x279 JUMPI PUSH2 0x12C JUMP JUMPDEST DUP1 PUSH4 0x8E74858 EQ PUSH2 0x131 JUMPI DUP1 PUSH4 0x2156A781 EQ PUSH2 0x165 JUMPI DUP1 PUSH4 0x2D6ABF59 EQ PUSH2 0x181 JUMPI DUP1 PUSH4 0x2F0185C4 EQ PUSH2 0x19D JUMPI DUP1 PUSH4 0x3A7D280C EQ PUSH2 0x1D2 JUMPI JUMPDEST PUSH1 0x0 DUP1 REVERT JUMPDEST PUSH2 0x14B PUSH1 0x4 DUP1 CALLDATASIZE SUB DUP2 ADD SWAP1 PUSH2 0x146 SWAP2 SWAP1 PUSH2 0x3A8A JUMP JUMPDEST PUSH2 0x3A5 JUMP JUMPDEST PUSH1 0x40 MLOAD PUSH2 0x15C SWAP6 SWAP5 SWAP4 SWAP3 SWAP2 SWAP1 PUSH2 0x4418 JUMP JUMPDEST PUSH1 0x40 MLOAD DUP1 SWAP2 SUB SWAP1 RETURN JUMPDEST PUSH2 0x17F PUSH1 0x4 DUP1 CALLDATASIZE SUB DUP2 ADD SWAP1 PUSH2 0x17A SWAP2 SWAP1 PUSH2 0x3D12 JUMP JUMPDEST PUSH2 0x8AA JUMP JUMPDEST STOP JUMPDEST PUSH2 0x19B PUSH1 0x4 DUP1 CALLDATASIZE SUB DUP2 ADD SWAP1 PUSH2 0x196 SWAP2 SWAP1 PUSH2 0x3B6F JUMP JUMPDEST PUSH2 0x971 JUMP JUMPDEST STOP JUMPDEST PUSH2 0x1B7 PUSH1 0x4 DUP1 CALLDATASIZE SUB DUP2 ADD SWAP1 PUSH2 0x1B2 SWAP2 SWAP1 PUSH2 0x3CC9 JUMP JUMPDEST PUSH2 0xD03 JUMP JUMPDEST PUSH1 0x40 MLOAD PUSH2 0x1C9 SWAP7 SWAP6 SWAP5 SWAP4 SWAP3 SWAP2 SWAP1 PUSH2 0x431F JUMP JUMPDEST PUSH1 0x40 MLOAD DUP1 SWAP2 SUB SWAP1 RETURN JUMPDEST PUSH2 0x1EC PUSH1 0x4 DUP1 CALLDATASIZE SUB DUP2 ADD SWAP1 PUSH2 0x1E7 SWAP2 SWAP1 PUSH2 0x3CC9 JUMP JUMPDEST PUSH2 0xFD3 JUMP JUMPDEST PUSH1 0x40 MLOAD PUSH2 0x1FA SWAP3 SWAP2 SWAP1 PUSH2 0x4387 JUMP JUMPDEST PUSH1 0x40 MLOAD DUP1 SWAP2 SUB SWAP1 RETURN JUMPDEST PUSH2 0x20B PUSH2 0x13CA JUMP JUMPDEST PUSH1 0x40 MLOAD PUSH2 0x21C SWAP6 SWAP5 SWAP4 SWAP3 SWAP2 SWAP1 PUSH2 0x4418 JUMP JUMPDEST PUSH1 0x40 MLOAD DUP1 SWAP2 SUB SWAP1 RETURN JUMPDEST PUSH2 0x23F PUSH1 0x4 DUP1 CALLDATASIZE SUB DUP2 ADD SWAP1 PUSH2 0x23A SWAP2 SWAP1 PUSH2 0x3C0E JUMP JUMPDEST PUSH2 0x18CD JUMP JUMPDEST STOP JUMPDEST PUSH2 0x25B PUSH1 0x4 DUP1 CALLDATASIZE SUB DUP2 ADD SWAP1 PUSH2 0x256 SWAP2 SWAP1 PUSH2 0x3CC9 JUMP JUMPDEST PUSH2 0x1A48 JUMP JUMPDEST STOP JUMPDEST PUSH2 0x277 PUSH1 0x4 DUP1 CALLDATASIZE SUB DUP2 ADD SWAP1 PUSH2 0x272 SWAP2 SWAP1 PUSH2 0x3D12 JUMP JUMPDEST PUSH2 0x1D13 JUMP JUMPDEST STOP JUMPDEST PUSH2 0x293 PUSH1 0x4 DUP1 CALLDATASIZE SUB DUP2 ADD SWAP1 PUSH2 0x28E SWAP2 SWAP1 PUSH2 0x3AB7 JUMP JUMPDEST PUSH2 0x1E1C JUMP JUMPDEST STOP JUMPDEST PUSH2 0x2AF PUSH1 0x4 DUP1 CALLDATASIZE SUB DUP2 ADD SWAP1 PUSH2 0x2AA SWAP2 SWAP1 PUSH2 0x3E71 JUMP JUMPDEST PUSH2 0x1F6B JUMP JUMPDEST STOP JUMPDEST PUSH2 0x2B9 PUSH2 0x2099 JUMP JUMPDEST STOP JUMPDEST PUSH2 0x2C3 PUSH2 0x2134 JUMP JUMPDEST PUSH1 0x40 MLOAD PUSH2 0x2D3 SWAP5 SWAP4 SWAP3 SWAP2 SWAP1 PUSH2 0x448E JUMP JUMPDEST PUSH1 0x40 MLOAD DUP1 SWAP2 SUB SWAP1 RETURN JUMPDEST PUSH2 0x2F6 PUSH1 0x4 DUP1 CALLDATASIZE SUB DUP2 ADD SWAP1 PUSH2 0x2F1 SWAP2 SWAP1 PUSH2 0x3DE6 JUMP JUMPDEST PUSH2 0x24E9 JUMP JUMPDEST STOP JUMPDEST PUSH2 0x312 PUSH1 0x4 DUP1 CALLDATASIZE SUB DUP2 ADD SWAP1 PUSH2 0x30D SWAP2 SWAP1 PUSH2 0x3AE4 JUMP JUMPDEST PUSH2 0x2512 JUMP JUMPDEST STOP JUMPDEST PUSH2 0x32E PUSH1 0x4 DUP1 CALLDATASIZE SUB DUP2 ADD SWAP1 PUSH2 0x329 SWAP2 SWAP1 PUSH2 0x3CC9 JUMP JUMPDEST PUSH2 0x2611 JUMP JUMPDEST STOP JUMPDEST PUSH2 0x34A PUSH1 0x4 DUP1 CALLDATASIZE SUB DUP2 ADD SWAP1 PUSH2 0x345 SWAP2 SWAP1 PUSH2 0x3CC9 JUMP JUMPDEST PUSH2 0x29E3 JUMP JUMPDEST STOP JUMPDEST PUSH2 0x354 PUSH2 0x2CAE JUMP JUMPDEST PUSH1 0x40 MLOAD PUSH2 0x364 SWAP5 SWAP4 SWAP3 SWAP2 SWAP1 PUSH2 0x43B7 JUMP JUMPDEST PUSH1 0x40 MLOAD DUP1 SWAP2 SUB SWAP1 RETURN JUMPDEST PUSH2 0x387 PUSH1 0x4 DUP1 CALLDATASIZE SUB DUP2 ADD SWAP1 PUSH2 0x382 SWAP2 SWAP1 PUSH2 0x3CC9 JUMP JUMPDEST PUSH2 0x32FC JUMP JUMPDEST STOP JUMPDEST PUSH2 0x3A3 PUSH1 0x4 DUP1 CALLDATASIZE SUB DUP2 ADD SWAP1 PUSH2 0x39E SWAP2 SWAP1 PUSH2 0x3D6E JUMP JUMPDEST PUSH2 0x3398 JUMP JUMPDEST STOP JUMPDEST PUSH1 0x60 DUP1 PUSH1 0x60 DUP1 PUSH1 0x60 PUSH1 0x3 PUSH1 0x2 PUSH1 0x0 CALLER PUSH20 0xFFFFFFFFFFFFFFFFFFFFFFFFFFFFFFFFFFFFFFFF AND PUSH20 0xFFFFFFFFFFFFFFFFFFFFFFFFFFFFFFFFFFFFFFFF AND DUP2 MSTORE PUSH1 0x20 ADD SWAP1 DUP2 MSTORE PUSH1 0x20 ADD PUSH1 0x0 KECCAK256 PUSH1 0x0 ADD SLOAD DUP2 PUSH1 0x5 DUP2 GT ISZERO PUSH2 0x405 JUMPI PUSH2 0x404 PUSH2 0x482A JUMP JUMPDEST JUMPDEST EQ PUSH2 0x445 JUMPI PUSH1 0x40 MLOAD PUSH32 0x8C379A000000000000000000000000000000000000000000000000000000000 DUP2 MSTORE PUSH1 0x4 ADD PUSH2 0x43C SWAP1 PUSH2 0x4548 JUMP JUMPDEST PUSH1 0x40 MLOAD DUP1 SWAP2 SUB SWAP1 REVERT JUMPDEST PUSH1 0x0 PUSH1 0x2 PUSH1 0x0 DUP10 PUSH20 0xFFFFFFFFFFFFFFFFFFFFFFFFFFFFFFFFFFFFFFFF AND PUSH20 0xFFFFFFFFFFFFFFFFFFFFFFFFFFFFFFFFFFFFFFFF AND DUP2 MSTORE PUSH1 0x20 ADD SWAP1 DUP2 MSTORE PUSH1 0x20 ADD PUSH1 0x0 KECCAK256 PUSH1 0x40 MLOAD DUP1 PUSH1 0x80 ADD PUSH1 0x40 MSTORE SWAP1 DUP2 PUSH1 0x0 DUP3 ADD SLOAD DUP2 MSTORE PUSH1 0x20 ADD PUSH1 0x1 DUP3 ADD DUP1 SLOAD PUSH2 0x4AB SWAP1 PUSH2 0x47C7 JUMP JUMPDEST DUP1 PUSH1 0x1F ADD PUSH1 0x20 DUP1 SWAP2 DIV MUL PUSH1 0x20 ADD PUSH1 0x40 MLOAD SWAP1 DUP2 ADD PUSH1 0x40 MSTORE DUP1 SWAP3 SWAP2 SWAP1 DUP2 DUP2 MSTORE PUSH1 0x20 ADD DUP3 DUP1 SLOAD PUSH2 0x4D7 SWAP1 PUSH2 0x47C7 JUMP JUMPDEST DUP1 ISZERO PUSH2 0x524 JUMPI DUP1 PUSH1 0x1F LT PUSH2 0x4F9 JUMPI PUSH2 0x100 DUP1 DUP4 SLOAD DIV MUL DUP4 MSTORE SWAP2 PUSH1 0x20 ADD SWAP2 PUSH2 0x524 JUMP JUMPDEST DUP3 ADD SWAP2 SWAP1 PUSH1 0x0 MSTORE PUSH1 0x20 PUSH1 0x0 KECCAK256 SWAP1 JUMPDEST DUP2 SLOAD DUP2 MSTORE SWAP1 PUSH1 0x1 ADD SWAP1 PUSH1 0x20 ADD DUP1 DUP4 GT PUSH2 0x507 JUMPI DUP3 SWAP1 SUB PUSH1 0x1F AND DUP3 ADD SWAP2 JUMPDEST POP POP POP POP POP DUP2 MSTORE PUSH1 0x20 ADD PUSH1 0x2 DUP3 ADD DUP1 SLOAD PUSH2 0x53D SWAP1 PUSH2 0x47C7 JUMP JUMPDEST DUP1 PUSH1 0x1F ADD PUSH1 0x20 DUP1 SWAP2 DIV MUL PUSH1 0x20 ADD PUSH1 0x40 MLOAD SWAP1 DUP2 ADD PUSH1 0x40 MSTORE DUP1 SWAP3 SWAP2 SWAP1 DUP2 DUP2 MSTORE PUSH1 0x20 ADD DUP3 DUP1 SLOAD PUSH2 0x569 SWAP1 PUSH2 0x47C7 JUMP JUMPDEST DUP1 ISZERO PUSH2 0x5B6 JUMPI DUP1 PUSH1 0x1F LT PUSH2 0x58B JUMPI PUSH2 0x100 DUP1 DUP4 SLOAD DIV MUL DUP4 MSTORE SWAP2 PUSH1 0x20 ADD SWAP2 PUSH2 0x5B6 JUMP JUMPDEST DUP3 ADD SWAP2 SWAP1 PUSH1 0x0 MSTORE PUSH1 0x20 PUSH1 0x0 KECCAK256 SWAP1 JUMPDEST DUP2 SLOAD DUP2 MSTORE SWAP1 PUSH1 0x1 ADD SWAP1 PUSH1 0x20 ADD DUP1 DUP4 GT PUSH2 0x599 JUMPI DUP3 SWAP1 SUB PUSH1 0x1F AND DUP3 ADD SWAP2 JUMPDEST POP POP POP POP POP DUP2 MSTORE PUSH1 0x20 ADD PUSH1 0x3 DUP3 ADD DUP1 SLOAD DUP1 PUSH1 0x20 MUL PUSH1 0x20 ADD PUSH1 0x40 MLOAD SWAP1 DUP2 ADD PUSH1 0x40 MSTORE DUP1 SWAP3 SWAP2 SWAP1 DUP2 DUP2 MSTORE PUSH1 0x20 ADD PUSH1 0x0 SWAP1 JUMPDEST DUP3 DUP3 LT ISZERO PUSH2 0x690 JUMPI DUP4 DUP3 SWAP1 PUSH1 0x0 MSTORE PUSH1 0x20 PUSH1 0x0 KECCAK256 ADD DUP1 SLOAD PUSH2 0x603 SWAP1 PUSH2 0x47C7 JUMP JUMPDEST DUP1 PUSH1 0x1F ADD PUSH1 0x20 DUP1 SWAP2 DIV MUL PUSH1 0x20 ADD PUSH1 0x40 MLOAD SWAP1 DUP2 ADD PUSH1 0x40 MSTORE DUP1 SWAP3 SWAP2 SWAP1 DUP2 DUP2 MSTORE PUSH1 0x20 ADD DUP3 DUP1 SLOAD PUSH2 0x62F SWAP1 PUSH2 0x47C7 JUMP JUMPDEST DUP1 ISZERO PUSH2 0x67C JUMPI DUP1 PUSH1 0x1F LT PUSH2 0x651 JUMPI PUSH2 0x100 DUP1 DUP4 SLOAD DIV MUL DUP4 MSTORE SWAP2 PUSH1 0x20 ADD SWAP2 PUSH2 0x67C JUMP JUMPDEST DUP3 ADD SWAP2 SWAP1 PUSH1 0x0 MSTORE PUSH1 0x20 PUSH1 0x0 KECCAK256 SWAP1 JUMPDEST DUP2 SLOAD DUP2 MSTORE SWAP1 PUSH1 0x1 ADD SWAP1 PUSH1 0x20 ADD DUP1 DUP4 GT PUSH2 0x65F JUMPI DUP3 SWAP1 SUB PUSH1 0x1F AND DUP3 ADD SWAP2 JUMPDEST POP POP POP POP POP DUP2 MSTORE PUSH1 0x20 ADD SWAP1 PUSH1 0x1 ADD SWAP1 PUSH2 0x5E4 JUMP JUMPDEST POP POP POP POP DUP2 MSTORE POP POP SWAP1 POP PUSH1 0x0 PUSH1 0xC PUSH1 0x0 DUP11 PUSH20 0xFFFFFFFFFFFFFFFFFFFFFFFFFFFFFFFFFFFFFFFF AND PUSH20 0xFFFFFFFFFFFFFFFFFFFFFFFFFFFFFFFFFFFFFFFF AND DUP2 MSTORE PUSH1 0x20 ADD SWAP1 DUP2 MSTORE PUSH1 0x20 ADD PUSH1 0x0 KECCAK256 PUSH1 0x0 SWAP1 SLOAD SWAP1 PUSH2 0x100 EXP SWAP1 DIV PUSH20 0xFFFFFFFFFFFFFFFFFFFFFFFFFFFFFFFFFFFFFFFF AND SWAP1 POP PUSH1 0x0 PUSH1 0xB PUSH1 0x0 DUP4 PUSH20 0xFFFFFFFFFFFFFFFFFFFFFFFFFFFFFFFFFFFFFFFF AND PUSH20 0xFFFFFFFFFFFFFFFFFFFFFFFFFFFFFFFFFFFFFFFF AND DUP2 MSTORE PUSH1 0x20 ADD SWAP1 DUP2 MSTORE PUSH1 0x20 ADD PUSH1 0x0 KECCAK256 PUSH1 0x40 MLOAD DUP1 PUSH1 0x60 ADD PUSH1 0x40 MSTORE SWAP1 DUP2 PUSH1 0x0 DUP3 ADD DUP1 SLOAD PUSH2 0x75A SWAP1 PUSH2 0x47C7 JUMP JUMPDEST DUP1 PUSH1 0x1F ADD PUSH1 0x20 DUP1 SWAP2 DIV MUL PUSH1 0x20 ADD PUSH1 0x40 MLOAD SWAP1 DUP2 ADD PUSH1 0x40 MSTORE DUP1 SWAP3 SWAP2 SWAP1 DUP2 DUP2 MSTORE PUSH1 0x20 ADD DUP3 DUP1 SLOAD PUSH2 0x786 SWAP1 PUSH2 0x47C7 JUMP JUMPDEST DUP1 ISZERO PUSH2 0x7D3 JUMPI DUP1 PUSH1 0x1F LT PUSH2 0x7A8 JUMPI PUSH2 0x100 DUP1 DUP4 SLOAD DIV MUL DUP4 MSTORE SWAP2 PUSH1 0x20 ADD SWAP2 PUSH2 0x7D3 JUMP JUMPDEST DUP3 ADD SWAP2 SWAP1 PUSH1 0x0 MSTORE PUSH1 0x20 PUSH1 0x0 KECCAK256 SWAP1 JUMPDEST DUP2 SLOAD DUP2 MSTORE SWAP1 PUSH1 0x1 ADD SWAP1 PUSH1 0x20 ADD DUP1 DUP4 GT PUSH2 0x7B6 JUMPI DUP3 SWAP1 SUB PUSH1 0x1F AND DUP3 ADD SWAP2 JUMPDEST POP POP POP POP POP DUP2 MSTORE PUSH1 0x20 ADD PUSH1 0x1 DUP3 ADD DUP1 SLOAD PUSH2 0x7EC SWAP1 PUSH2 0x47C7 JUMP JUMPDEST DUP1 PUSH1 0x1F ADD PUSH1 0x20 DUP1 SWAP2 DIV MUL PUSH1 0x20 ADD PUSH1 0x40 MLOAD SWAP1 DUP2 ADD PUSH1 0x40 MSTORE DUP1 SWAP3 SWAP2 SWAP1 DUP2 DUP2 MSTORE PUSH1 0x20 ADD DUP3 DUP1 SLOAD PUSH2 0x818 SWAP1 PUSH2 0x47C7 JUMP JUMPDEST DUP1 ISZERO PUSH2 0x865 JUMPI DUP1 PUSH1 0x1F LT PUSH2 0x83A JUMPI PUSH2 0x100 DUP1 DUP4 SLOAD DIV MUL DUP4 MSTORE SWAP2 PUSH1 0x20 ADD SWAP2 PUSH2 0x865 JUMP JUMPDEST DUP3 ADD SWAP2 SWAP1 PUSH1 0x0 MSTORE PUSH1 0x20 PUSH1 0x0 KECCAK256 SWAP1 JUMPDEST DUP2 SLOAD DUP2 MSTORE SWAP1 PUSH1 0x1 ADD SWAP1 PUSH1 0x20 ADD DUP1 DUP4 GT PUSH2 0x848 JUMPI DUP3 SWAP1 SUB PUSH1 0x1F AND DUP3 ADD SWAP2 JUMPDEST POP POP POP POP POP DUP2 MSTORE PUSH1 0x20 ADD PUSH1 0x2 DUP3 ADD SLOAD DUP2 MSTORE POP POP SWAP1 POP DUP3 PUSH1 0x20 ADD MLOAD SWAP9 POP DUP3 PUSH1 0x40 ADD MLOAD SWAP8 POP DUP1 PUSH1 0x20 ADD MLOAD SWAP7 POP DUP1 PUSH1 0x0 ADD MLOAD SWAP6 POP DUP3 PUSH1 0x60 ADD MLOAD SWAP5 POP POP POP POP POP SWAP2 SWAP4 SWAP6 SWAP1 SWAP3 SWAP5 POP JUMP JUMPDEST PUSH1 0x5 PUSH1 0x0 SWAP1 SLOAD SWAP1 PUSH2 0x100 EXP SWAP1 DIV PUSH20 0xFFFFFFFFFFFFFFFFFFFFFFFFFFFFFFFFFFFFFFFF AND PUSH20 0xFFFFFFFFFFFFFFFFFFFFFFFFFFFFFFFFFFFFFFFF AND CALLER PUSH20 0xFFFFFFFFFFFFFFFFFFFFFFFFFFFFFFFFFFFFFFFF AND EQ PUSH2 0x93A JUMPI PUSH1 0x40 MLOAD PUSH32 0x8C379A000000000000000000000000000000000000000000000000000000000 DUP2 MSTORE PUSH1 0x4 ADD PUSH2 0x931 SWAP1 PUSH2 0x4588 JUMP JUMPDEST PUSH1 0x40 MLOAD DUP1 SWAP2 SUB SWAP1 REVERT JUMPDEST PUSH1 0x0 PUSH1 0x5 DUP1 DUP2 GT ISZERO PUSH2 0x94F JUMPI PUSH2 0x94E PUSH2 0x482A JUMP JUMPDEST JUMPDEST SWAP1 POP PUSH2 0x96C PUSH1 0x40 MLOAD DUP1 PUSH1 0x20 ADD PUSH1 0x40 MSTORE DUP1 PUSH1 0x0 DUP2 MSTORE POP DUP5 DUP4 DUP6 PUSH2 0x348D JUMP JUMPDEST POP POP POP JUMP JUMPDEST PUSH2 0xA54 PUSH1 0x2 PUSH1 0x0 CALLER PUSH20 0xFFFFFFFFFFFFFFFFFFFFFFFFFFFFFFFFFFFFFFFF AND PUSH20 0xFFFFFFFFFFFFFFFFFFFFFFFFFFFFFFFFFFFFFFFF AND DUP2 MSTORE PUSH1 0x20 ADD SWAP1 DUP2 MSTORE PUSH1 0x20 ADD PUSH1 0x0 KECCAK256 PUSH1 0x1 ADD DUP1 SLOAD PUSH2 0x9C1 SWAP1 PUSH2 0x47C7 JUMP JUMPDEST DUP1 PUSH1 0x1F ADD PUSH1 0x20 DUP1 SWAP2 DIV MUL PUSH1 0x20 ADD PUSH1 0x40 MLOAD SWAP1 DUP2 ADD PUSH1 0x40 MSTORE DUP1 SWAP3 SWAP2 SWAP1 DUP2 DUP2 MSTORE PUSH1 0x20 ADD DUP3 DUP1 SLOAD PUSH2 0x9ED SWAP1 PUSH2 0x47C7 JUMP JUMPDEST DUP1 ISZERO PUSH2 0xA3A JUMPI DUP1 PUSH1 0x1F LT PUSH2 0xA0F JUMPI PUSH2 0x100 DUP1 DUP4 SLOAD DIV MUL DUP4 MSTORE SWAP2 PUSH1 0x20 ADD SWAP2 PUSH2 0xA3A JUMP JUMPDEST DUP3 ADD SWAP2 SWAP1 PUSH1 0x0 MSTORE PUSH1 0x20 PUSH1 0x0 KECCAK256 SWAP1 JUMPDEST DUP2 SLOAD DUP2 MSTORE SWAP1 PUSH1 0x1 ADD SWAP1 PUSH1 0x20 ADD DUP1 DUP4 GT PUSH2 0xA1D JUMPI DUP3 SWAP1 SUB PUSH1 0x1F AND DUP3 ADD SWAP2 JUMPDEST POP POP POP POP POP PUSH1 0x40 MLOAD DUP1 PUSH1 0x20 ADD PUSH1 0x40 MSTORE DUP1 PUSH1 0x0 DUP2 MSTORE POP PUSH2 0x3791 JUMP JUMPDEST ISZERO PUSH2 0xA94 JUMPI PUSH1 0x40 MLOAD PUSH32 0x8C379A000000000000000000000000000000000000000000000000000000000 DUP2 MSTORE PUSH1 0x4 ADD PUSH2 0xA8B SWAP1 PUSH2 0x4568 JUMP JUMPDEST PUSH1 0x40 MLOAD DUP1 SWAP2 SUB SWAP1 REVERT JUMPDEST PUSH1 0x60 DUP1 PUSH1 0x0 PUSH1 0x40 MLOAD DUP1 PUSH1 0xC0 ADD PUSH1 0x40 MSTORE DUP1 CALLER PUSH20 0xFFFFFFFFFFFFFFFFFFFFFFFFFFFFFFFFFFFFFFFF AND DUP2 MSTORE PUSH1 0x20 ADD DUP9 PUSH20 0xFFFFFFFFFFFFFFFFFFFFFFFFFFFFFFFFFFFFFFFF AND DUP2 MSTORE PUSH1 0x20 ADD DUP8 DUP2 MSTORE PUSH1 0x20 ADD DUP5 DUP2 MSTORE PUSH1 0x20 ADD DUP4 DUP2 MSTORE PUSH1 0x20 ADD DUP6 DUP2 MSTORE POP SWAP1 POP PUSH1 0xE PUSH1 0x0 DUP9 PUSH20 0xFFFFFFFFFFFFFFFFFFFFFFFFFFFFFFFFFFFFFFFF AND PUSH20 0xFFFFFFFFFFFFFFFFFFFFFFFFFFFFFFFFFFFFFFFF AND DUP2 MSTORE PUSH1 0x20 ADD SWAP1 DUP2 MSTORE PUSH1 0x20 ADD PUSH1 0x0 KECCAK256 DUP6 SWAP1 DUP1 PUSH1 0x1 DUP2 SLOAD ADD DUP1 DUP3 SSTORE DUP1 SWAP2 POP POP PUSH1 0x1 SWAP1 SUB SWAP1 PUSH1 0x0 MSTORE PUSH1 0x20 PUSH1 0x0 KECCAK256 ADD PUSH1 0x0 SWAP1 SWAP2 SWAP1 SWAP2 SWAP1 SWAP2 POP SWAP1 DUP1 MLOAD SWAP1 PUSH1 0x20 ADD SWAP1 PUSH2 0xB6C SWAP3 SWAP2 SWAP1 PUSH2 0x37EA JUMP JUMPDEST POP PUSH1 0x2 PUSH1 0x0 CALLER PUSH20 0xFFFFFFFFFFFFFFFFFFFFFFFFFFFFFFFFFFFFFFFF AND PUSH20 0xFFFFFFFFFFFFFFFFFFFFFFFFFFFFFFFFFFFFFFFF AND DUP2 MSTORE PUSH1 0x20 ADD SWAP1 DUP2 MSTORE PUSH1 0x20 ADD PUSH1 0x0 KECCAK256 PUSH1 0x3 ADD DUP6 SWAP1 DUP1 PUSH1 0x1 DUP2 SLOAD ADD DUP1 DUP3 SSTORE DUP1 SWAP2 POP POP PUSH1 0x1 SWAP1 SUB SWAP1 PUSH1 0x0 MSTORE PUSH1 0x20 PUSH1 0x0 KECCAK256 ADD PUSH1 0x0 SWAP1 SWAP2 SWAP1 SWAP2 SWAP1 SWAP2 POP SWAP1 DUP1 MLOAD SWAP1 PUSH1 0x20 ADD SWAP1 PUSH2 0xBE8 SWAP3 SWAP2 SWAP1 PUSH2 0x37EA JUMP JUMPDEST POP DUP1 PUSH1 0xF DUP7 PUSH1 0x40 MLOAD PUSH2 0xBFA SWAP2 SWAP1 PUSH2 0x4308 JUMP JUMPDEST SWAP1 DUP2 MSTORE PUSH1 0x20 ADD PUSH1 0x40 MLOAD DUP1 SWAP2 SUB SWAP1 KECCAK256 PUSH1 0x0 DUP3 ADD MLOAD DUP2 PUSH1 0x0 ADD PUSH1 0x0 PUSH2 0x100 EXP DUP2 SLOAD DUP2 PUSH20 0xFFFFFFFFFFFFFFFFFFFFFFFFFFFFFFFFFFFFFFFF MUL NOT AND SWAP1 DUP4 PUSH20 0xFFFFFFFFFFFFFFFFFFFFFFFFFFFFFFFFFFFFFFFF AND MUL OR SWAP1 SSTORE POP PUSH1 0x20 DUP3 ADD MLOAD DUP2 PUSH1 0x1 ADD PUSH1 0x0 PUSH2 0x100 EXP DUP2 SLOAD DUP2 PUSH20 0xFFFFFFFFFFFFFFFFFFFFFFFFFFFFFFFFFFFFFFFF MUL NOT AND SWAP1 DUP4 PUSH20 0xFFFFFFFFFFFFFFFFFFFFFFFFFFFFFFFFFFFFFFFF AND MUL OR SWAP1 SSTORE POP PUSH1 0x40 DUP3 ADD MLOAD DUP2 PUSH1 0x2 ADD SWAP1 DUP1 MLOAD SWAP1 PUSH1 0x20 ADD SWAP1 PUSH2 0xCB2 SWAP3 SWAP2 SWAP1 PUSH2 0x37EA JUMP JUMPDEST POP PUSH1 0x60 DUP3 ADD MLOAD DUP2 PUSH1 0x3 ADD SWAP1 DUP1 MLOAD SWAP1 PUSH1 0x20 ADD SWAP1 PUSH2 0xCCF SWAP3 SWAP2 SWAP1 PUSH2 0x3870 JUMP JUMPDEST POP PUSH1 0x80 DUP3 ADD MLOAD DUP2 PUSH1 0x4 ADD SWAP1 DUP1 MLOAD SWAP1 PUSH1 0x20 ADD SWAP1 PUSH2 0xCEC SWAP3 SWAP2 SWAP1 PUSH2 0x3870 JUMP JUMPDEST POP PUSH1 0xA0 DUP3 ADD MLOAD DUP2 PUSH1 0x5 ADD SSTORE SWAP1 POP POP POP POP POP POP POP POP POP JUMP JUMPDEST PUSH1 0x0 DUP1 PUSH1 0x60 PUSH1 0x0 DUP1 PUSH1 0x0 DUP1 PUSH1 0xF DUP9 PUSH1 0x40 MLOAD PUSH2 0xD1E SWAP2 SWAP1 PUSH2 0x4308 JUMP JUMPDEST SWAP1 DUP2 MSTORE PUSH1 0x20 ADD PUSH1 0x40 MLOAD DUP1 SWAP2 SUB SWAP1 KECCAK256 PUSH1 0x40 MLOAD DUP1 PUSH1 0xC0 ADD PUSH1 0x40 MSTORE SWAP1 DUP2 PUSH1 0x0 DUP3 ADD PUSH1 0x0 SWAP1 SLOAD SWAP1 PUSH2 0x100 EXP SWAP1 DIV PUSH20 0xFFFFFFFFFFFFFFFFFFFFFFFFFFFFFFFFFFFFFFFF AND PUSH20 0xFFFFFFFFFFFFFFFFFFFFFFFFFFFFFFFFFFFFFFFF AND PUSH20 0xFFFFFFFFFFFFFFFFFFFFFFFFFFFFFFFFFFFFFFFF AND DUP2 MSTORE PUSH1 0x20 ADD PUSH1 0x1 DUP3 ADD PUSH1 0x0 SWAP1 SLOAD SWAP1 PUSH2 0x100 EXP SWAP1 DIV PUSH20 0xFFFFFFFFFFFFFFFFFFFFFFFFFFFFFFFFFFFFFFFF AND PUSH20 0xFFFFFFFFFFFFFFFFFFFFFFFFFFFFFFFFFFFFFFFF AND PUSH20 0xFFFFFFFFFFFFFFFFFFFFFFFFFFFFFFFFFFFFFFFF AND DUP2 MSTORE PUSH1 0x20 ADD PUSH1 0x2 DUP3 ADD DUP1 SLOAD PUSH2 0xDF3 SWAP1 PUSH2 0x47C7 JUMP JUMPDEST DUP1 PUSH1 0x1F ADD PUSH1 0x20 DUP1 SWAP2 DIV MUL PUSH1 0x20 ADD PUSH1 0x40 MLOAD SWAP1 DUP2 ADD PUSH1 0x40 MSTORE DUP1 SWAP3 SWAP2 SWAP1 DUP2 DUP2 MSTORE PUSH1 0x20 ADD DUP3 DUP1 SLOAD PUSH2 0xE1F SWAP1 PUSH2 0x47C7 JUMP JUMPDEST DUP1 ISZERO PUSH2 0xE6C JUMPI DUP1 PUSH1 0x1F LT PUSH2 0xE41 JUMPI PUSH2 0x100 DUP1 DUP4 SLOAD DIV MUL DUP4 MSTORE SWAP2 PUSH1 0x20 ADD SWAP2 PUSH2 0xE6C JUMP JUMPDEST DUP3 ADD SWAP2 SWAP1 PUSH1 0x0 MSTORE PUSH1 0x20 PUSH1 0x0 KECCAK256 SWAP1 JUMPDEST DUP2 SLOAD DUP2 MSTORE SWAP1 PUSH1 0x1 ADD SWAP1 PUSH1 0x20 ADD DUP1 DUP4 GT PUSH2 0xE4F JUMPI DUP3 SWAP1 SUB PUSH1 0x1F AND DUP3 ADD SWAP2 JUMPDEST POP POP POP POP POP DUP2 MSTORE PUSH1 0x20 ADD PUSH1 0x3 DUP3 ADD DUP1 SLOAD DUP1 PUSH1 0x20 MUL PUSH1 0x20 ADD PUSH1 0x40 MLOAD SWAP1 DUP2 ADD PUSH1 0x40 MSTORE DUP1 SWAP3 SWAP2 SWAP1 DUP2 DUP2 MSTORE PUSH1 0x20 ADD DUP3 DUP1 SLOAD DUP1 ISZERO PUSH2 0xEFA JUMPI PUSH1 0x20 MUL DUP3 ADD SWAP2 SWAP1 PUSH1 0x0 MSTORE PUSH1 0x20 PUSH1 0x0 KECCAK256 SWAP1 JUMPDEST DUP2 PUSH1 0x0 SWAP1 SLOAD SWAP1 PUSH2 0x100 EXP SWAP1 DIV PUSH20 0xFFFFFFFFFFFFFFFFFFFFFFFFFFFFFFFFFFFFFFFF AND PUSH20 0xFFFFFFFFFFFFFFFFFFFFFFFFFFFFFFFFFFFFFFFF AND DUP2 MSTORE PUSH1 0x20 ADD SWAP1 PUSH1 0x1 ADD SWAP1 DUP1 DUP4 GT PUSH2 0xEB0 JUMPI JUMPDEST POP POP POP POP POP DUP2 MSTORE PUSH1 0x20 ADD PUSH1 0x4 DUP3 ADD DUP1 SLOAD DUP1 PUSH1 0x20 MUL PUSH1 0x20 ADD PUSH1 0x40 MLOAD SWAP1 DUP2 ADD PUSH1 0x40 MSTORE DUP1 SWAP3 SWAP2 SWAP1 DUP2 DUP2 MSTORE PUSH1 0x20 ADD DUP3 DUP1 SLOAD DUP1 ISZERO PUSH2 0xF88 JUMPI PUSH1 0x20 MUL DUP3 ADD SWAP2 SWAP1 PUSH1 0x0 MSTORE PUSH1 0x20 PUSH1 0x0 KECCAK256 SWAP1 JUMPDEST DUP2 PUSH1 0x0 SWAP1 SLOAD SWAP1 PUSH2 0x100 EXP SWAP1 DIV PUSH20 0xFFFFFFFFFFFFFFFFFFFFFFFFFFFFFFFFFFFFFFFF AND PUSH20 0xFFFFFFFFFFFFFFFFFFFFFFFFFFFFFFFFFFFFFFFF AND DUP2 MSTORE PUSH1 0x20 ADD SWAP1 PUSH1 0x1 ADD SWAP1 DUP1 DUP4 GT PUSH2 0xF3E JUMPI JUMPDEST POP POP POP POP POP DUP2 MSTORE PUSH1 0x20 ADD PUSH1 0x5 DUP3 ADD SLOAD DUP2 MSTORE POP POP SWAP1 POP DUP1 PUSH1 0x0 ADD MLOAD SWAP7 POP DUP1 PUSH1 0x20 ADD MLOAD SWAP6 POP DUP1 PUSH1 0x40 ADD MLOAD SWAP5 POP DUP1 PUSH1 0x60 ADD MLOAD MLOAD SWAP4 POP DUP1 PUSH1 0x80 ADD MLOAD MLOAD SWAP3 POP DUP1 PUSH1 0xA0 ADD MLOAD SWAP2 POP POP SWAP2 SWAP4 SWAP6 POP SWAP2 SWAP4 SWAP6 JUMP JUMPDEST PUSH1 0x0 PUSH1 0x60 DUP3 PUSH1 0x0 PUSH20 0xFFFFFFFFFFFFFFFFFFFFFFFFFFFFFFFFFFFFFFFF AND PUSH1 0x1 DUP3 PUSH1 0x40 MLOAD PUSH2 0x1000 SWAP2 SWAP1 PUSH2 0x4308 JUMP JUMPDEST SWAP1 DUP2 MSTORE PUSH1 0x20 ADD PUSH1 0x40 MLOAD DUP1 SWAP2 SUB SWAP1 KECCAK256 PUSH1 0x0 SWAP1 SLOAD SWAP1 PUSH2 0x100 EXP SWAP1 DIV PUSH20 0xFFFFFFFFFFFFFFFFFFFFFFFFFFFFFFFFFFFFFFFF AND PUSH20 0xFFFFFFFFFFFFFFFFFFFFFFFFFFFFFFFFFFFFFFFF AND EQ ISZERO PUSH2 0x1086 JUMPI PUSH1 0x40 MLOAD PUSH32 0x8C379A000000000000000000000000000000000000000000000000000000000 DUP2 MSTORE PUSH1 0x4 ADD PUSH2 0x107D SWAP1 PUSH2 0x45C8 JUMP JUMPDEST PUSH1 0x40 MLOAD DUP1 SWAP2 SUB SWAP1 REVERT JUMPDEST PUSH1 0x0 PUSH1 0x1 DUP6 PUSH1 0x40 MLOAD PUSH2 0x1098 SWAP2 SWAP1 PUSH2 0x4308 JUMP JUMPDEST SWAP1 DUP2 MSTORE PUSH1 0x20 ADD PUSH1 0x40 MLOAD DUP1 SWAP2 SUB SWAP1 KECCAK256 PUSH1 0x0 SWAP1 SLOAD SWAP1 PUSH2 0x100 EXP SWAP1 DIV PUSH20 0xFFFFFFFFFFFFFFFFFFFFFFFFFFFFFFFFFFFFFFFF AND SWAP1 POP PUSH1 0x0 PUSH1 0x2 PUSH1 0x0 DUP4 PUSH20 0xFFFFFFFFFFFFFFFFFFFFFFFFFFFFFFFFFFFFFFFF AND PUSH20 0xFFFFFFFFFFFFFFFFFFFFFFFFFFFFFFFFFFFFFFFF AND DUP2 MSTORE PUSH1 0x20 ADD SWAP1 DUP2 MSTORE PUSH1 0x20 ADD PUSH1 0x0 KECCAK256 PUSH1 0x40 MLOAD DUP1 PUSH1 0x80 ADD PUSH1 0x40 MSTORE SWAP1 DUP2 PUSH1 0x0 DUP3 ADD SLOAD DUP2 MSTORE PUSH1 0x20 ADD PUSH1 0x1 DUP3 ADD DUP1 SLOAD PUSH2 0x112F SWAP1 PUSH2 0x47C7 JUMP JUMPDEST DUP1 PUSH1 0x1F ADD PUSH1 0x20 DUP1 SWAP2 DIV MUL PUSH1 0x20 ADD PUSH1 0x40 MLOAD SWAP1 DUP2 ADD PUSH1 0x40 MSTORE DUP1 SWAP3 SWAP2 SWAP1 DUP2 DUP2 MSTORE PUSH1 0x20 ADD DUP3 DUP1 SLOAD PUSH2 0x115B SWAP1 PUSH2 0x47C7 JUMP JUMPDEST DUP1 ISZERO PUSH2 0x11A8 JUMPI DUP1 PUSH1 0x1F LT PUSH2 0x117D JUMPI PUSH2 0x100 DUP1 DUP4 SLOAD DIV MUL DUP4 MSTORE SWAP2 PUSH1 0x20 ADD SWAP2 PUSH2 0x11A8 JUMP JUMPDEST DUP3 ADD SWAP2 SWAP1 PUSH1 0x0 MSTORE PUSH1 0x20 PUSH1 0x0 KECCAK256 SWAP1 JUMPDEST DUP2 SLOAD DUP2 MSTORE SWAP1 PUSH1 0x1 ADD SWAP1 PUSH1 0x20 ADD DUP1 DUP4 GT PUSH2 0x118B JUMPI DUP3 SWAP1 SUB PUSH1 0x1F AND DUP3 ADD SWAP2 JUMPDEST POP POP POP POP POP DUP2 MSTORE PUSH1 0x20 ADD PUSH1 0x2 DUP3 ADD DUP1 SLOAD PUSH2 0x11C1 SWAP1 PUSH2 0x47C7 JUMP JUMPDEST DUP1 PUSH1 0x1F ADD PUSH1 0x20 DUP1 SWAP2 DIV MUL PUSH1 0x20 ADD PUSH1 0x40 MLOAD SWAP1 DUP2 ADD PUSH1 0x40 MSTORE DUP1 SWAP3 SWAP2 SWAP1 DUP2 DUP2 MSTORE PUSH1 0x20 ADD DUP3 DUP1 SLOAD PUSH2 0x11ED SWAP1 PUSH2 0x47C7 JUMP JUMPDEST DUP1 ISZERO PUSH2 0x123A JUMPI DUP1 PUSH1 0x1F LT PUSH2 0x120F JUMPI PUSH2 0x100 DUP1 DUP4 SLOAD DIV MUL DUP4 MSTORE SWAP2 PUSH1 0x20 ADD SWAP2 PUSH2 0x123A JUMP JUMPDEST DUP3 ADD SWAP2 SWAP1 PUSH1 0x0 MSTORE PUSH1 0x20 PUSH1 0x0 KECCAK256 SWAP1 JUMPDEST DUP2 SLOAD DUP2 MSTORE SWAP1 PUSH1 0x1 ADD SWAP1 PUSH1 0x20 ADD DUP1 DUP4 GT PUSH2 0x121D JUMPI DUP3 SWAP1 SUB PUSH1 0x1F AND DUP3 ADD SWAP2 JUMPDEST POP POP POP POP POP DUP2 MSTORE PUSH1 0x20 ADD PUSH1 0x3 DUP3 ADD DUP1 SLOAD DUP1 PUSH1 0x20 MUL PUSH1 0x20 ADD PUSH1 0x40 MLOAD SWAP1 DUP2 ADD PUSH1 0x40 MSTORE DUP1 SWAP3 SWAP2 SWAP1 DUP2 DUP2 MSTORE PUSH1 0x20 ADD PUSH1 0x0 SWAP1 JUMPDEST DUP3 DUP3 LT ISZERO PUSH2 0x1314 JUMPI DUP4 DUP3 SWAP1 PUSH1 0x0 MSTORE PUSH1 0x20 PUSH1 0x0 KECCAK256 ADD DUP1 SLOAD PUSH2 0x1287 SWAP1 PUSH2 0x47C7 JUMP JUMPDEST DUP1 PUSH1 0x1F ADD PUSH1 0x20 DUP1 SWAP2 DIV MUL PUSH1 0x20 ADD PUSH1 0x40 MLOAD SWAP1 DUP2 ADD PUSH1 0x40 MSTORE DUP1 SWAP3 SWAP2 SWAP1 DUP2 DUP2 MSTORE PUSH1 0x20 ADD DUP3 DUP1 SLOAD PUSH2 0x12B3 SWAP1 PUSH2 0x47C7 JUMP JUMPDEST DUP1 ISZERO PUSH2 0x1300 JUMPI DUP1 PUSH1 0x1F LT PUSH2 0x12D5 JUMPI PUSH2 0x100 DUP1 DUP4 SLOAD DIV MUL DUP4 MSTORE SWAP2 PUSH1 0x20 ADD SWAP2 PUSH2 0x1300 JUMP JUMPDEST DUP3 ADD SWAP2 SWAP1 PUSH1 0x0 MSTORE PUSH1 0x20 PUSH1 0x0 KECCAK256 SWAP1 JUMPDEST DUP2 SLOAD DUP2 MSTORE SWAP1 PUSH1 0x1 ADD SWAP1 PUSH1 0x20 ADD DUP1 DUP4 GT PUSH2 0x12E3 JUMPI DUP3 SWAP1 SUB PUSH1 0x1F AND DUP3 ADD SWAP2 JUMPDEST POP POP POP POP POP DUP2 MSTORE PUSH1 0x20 ADD SWAP1 PUSH1 0x1 ADD SWAP1 PUSH2 0x1268 JUMP JUMPDEST POP POP POP POP DUP2 MSTORE POP POP SWAP1 POP DUP2 SWAP5 POP PUSH1 0x0 DUP1 DUP3 PUSH1 0x0 ADD MLOAD DUP2 MSTORE PUSH1 0x20 ADD SWAP1 DUP2 MSTORE PUSH1 0x20 ADD PUSH1 0x0 KECCAK256 DUP1 SLOAD PUSH2 0x1342 SWAP1 PUSH2 0x47C7 JUMP JUMPDEST DUP1 PUSH1 0x1F ADD PUSH1 0x20 DUP1 SWAP2 DIV MUL PUSH1 0x20 ADD PUSH1 0x40 MLOAD SWAP1 DUP2 ADD PUSH1 0x40 MSTORE DUP1 SWAP3 SWAP2 SWAP1 DUP2 DUP2 MSTORE PUSH1 0x20 ADD DUP3 DUP1 SLOAD PUSH2 0x136E SWAP1 PUSH2 0x47C7 JUMP JUMPDEST DUP1 ISZERO PUSH2 0x13BB JUMPI DUP1 PUSH1 0x1F LT PUSH2 0x1390 JUMPI PUSH2 0x100 DUP1 DUP4 SLOAD DIV MUL DUP4 MSTORE SWAP2 PUSH1 0x20 ADD SWAP2 PUSH2 0x13BB JUMP JUMPDEST DUP3 ADD SWAP2 SWAP1 PUSH1 0x0 MSTORE PUSH1 0x20 PUSH1 0x0 KECCAK256 SWAP1 JUMPDEST DUP2 SLOAD DUP2 MSTORE SWAP1 PUSH1 0x1 ADD SWAP1 PUSH1 0x20 ADD DUP1 DUP4 GT PUSH2 0x139E JUMPI DUP3 SWAP1 SUB PUSH1 0x1F AND DUP3 ADD SWAP2 JUMPDEST POP POP POP POP POP SWAP4 POP POP POP POP SWAP2 POP SWAP2 JUMP JUMPDEST PUSH1 0x60 DUP1 PUSH1 0x60 DUP1 PUSH1 0x60 PUSH1 0x1 PUSH1 0x2 PUSH1 0x0 CALLER PUSH20 0xFFFFFFFFFFFFFFFFFFFFFFFFFFFFFFFFFFFFFFFF AND PUSH20 0xFFFFFFFFFFFFFFFFFFFFFFFFFFFFFFFFFFFFFFFF AND DUP2 MSTORE PUSH1 0x20 ADD SWAP1 DUP2 MSTORE PUSH1 0x20 ADD PUSH1 0x0 KECCAK256 PUSH1 0x0 ADD SLOAD DUP2 PUSH1 0x5 DUP2 GT ISZERO PUSH2 0x142A JUMPI PUSH2 0x1429 PUSH2 0x482A JUMP JUMPDEST JUMPDEST EQ PUSH2 0x146A JUMPI PUSH1 0x40 MLOAD PUSH32 0x8C379A000000000000000000000000000000000000000000000000000000000 DUP2 MSTORE PUSH1 0x4 ADD PUSH2 0x1461 SWAP1 PUSH2 0x4548 JUMP JUMPDEST PUSH1 0x40 MLOAD DUP1 SWAP2 SUB SWAP1 REVERT JUMPDEST PUSH1 0x0 PUSH1 0x2 PUSH1 0x0 CALLER PUSH20 0xFFFFFFFFFFFFFFFFFFFFFFFFFFFFFFFFFFFFFFFF AND PUSH20 0xFFFFFFFFFFFFFFFFFFFFFFFFFFFFFFFFFFFFFFFF AND DUP2 MSTORE PUSH1 0x20 ADD SWAP1 DUP2 MSTORE PUSH1 0x20 ADD PUSH1 0x0 KECCAK256 PUSH1 0x40 MLOAD DUP1 PUSH1 0x80 ADD PUSH1 0x40 MSTORE SWAP1 DUP2 PUSH1 0x0 DUP3 ADD SLOAD DUP2 MSTORE PUSH1 0x20 ADD PUSH1 0x1 DUP3 ADD DUP1 SLOAD PUSH2 0x14D0 SWAP1 PUSH2 0x47C7 JUMP JUMPDEST DUP1 PUSH1 0x1F ADD PUSH1 0x20 DUP1 SWAP2 DIV MUL PUSH1 0x20 ADD PUSH1 0x40 MLOAD SWAP1 DUP2 ADD PUSH1 0x40 MSTORE DUP1 SWAP3 SWAP2 SWAP1 DUP2 DUP2 MSTORE PUSH1 0x20 ADD DUP3 DUP1 SLOAD PUSH2 0x14FC SWAP1 PUSH2 0x47C7 JUMP JUMPDEST DUP1 ISZERO PUSH2 0x1549 JUMPI DUP1 PUSH1 0x1F LT PUSH2 0x151E JUMPI PUSH2 0x100 DUP1 DUP4 SLOAD DIV MUL DUP4 MSTORE SWAP2 PUSH1 0x20 ADD SWAP2 PUSH2 0x1549 JUMP JUMPDEST DUP3 ADD SWAP2 SWAP1 PUSH1 0x0 MSTORE PUSH1 0x20 PUSH1 0x0 KECCAK256 SWAP1 JUMPDEST DUP2 SLOAD DUP2 MSTORE SWAP1 PUSH1 0x1 ADD SWAP1 PUSH1 0x20 ADD DUP1 DUP4 GT PUSH2 0x152C JUMPI DUP3 SWAP1 SUB PUSH1 0x1F AND DUP3 ADD SWAP2 JUMPDEST POP POP POP POP POP DUP2 MSTORE PUSH1 0x20 ADD PUSH1 0x2 DUP3 ADD DUP1 SLOAD PUSH2 0x1562 SWAP1 PUSH2 0x47C7 JUMP JUMPDEST DUP1 PUSH1 0x1F ADD PUSH1 0x20 DUP1 SWAP2 DIV MUL PUSH1 0x20 ADD PUSH1 0x40 MLOAD SWAP1 DUP2 ADD PUSH1 0x40 MSTORE DUP1 SWAP3 SWAP2 SWAP1 DUP2 DUP2 MSTORE PUSH1 0x20 ADD DUP3 DUP1 SLOAD PUSH2 0x158E SWAP1 PUSH2 0x47C7 JUMP JUMPDEST DUP1 ISZERO PUSH2 0x15DB JUMPI DUP1 PUSH1 0x1F LT PUSH2 0x15B0 JUMPI PUSH2 0x100 DUP1 DUP4 SLOAD DIV MUL DUP4 MSTORE SWAP2 PUSH1 0x20 ADD SWAP2 PUSH2 0x15DB JUMP JUMPDEST DUP3 ADD SWAP2 SWAP1 PUSH1 0x0 MSTORE PUSH1 0x20 PUSH1 0x0 KECCAK256 SWAP1 JUMPDEST DUP2 SLOAD DUP2 MSTORE SWAP1 PUSH1 0x1 ADD SWAP1 PUSH1 0x20 ADD DUP1 DUP4 GT PUSH2 0x15BE JUMPI DUP3 SWAP1 SUB PUSH1 0x1F AND DUP3 ADD SWAP2 JUMPDEST POP POP POP POP POP DUP2 MSTORE PUSH1 0x20 ADD PUSH1 0x3 DUP3 ADD DUP1 SLOAD DUP1 PUSH1 0x20 MUL PUSH1 0x20 ADD PUSH1 0x40 MLOAD SWAP1 DUP2 ADD PUSH1 0x40 MSTORE DUP1 SWAP3 SWAP2 SWAP1 DUP2 DUP2 MSTORE PUSH1 0x20 ADD PUSH1 0x0 SWAP1 JUMPDEST DUP3 DUP3 LT ISZERO PUSH2 0x16B5 JUMPI DUP4 DUP3 SWAP1 PUSH1 0x0 MSTORE PUSH1 0x20 PUSH1 0x0 KECCAK256 ADD DUP1 SLOAD PUSH2 0x1628 SWAP1 PUSH2 0x47C7 JUMP JUMPDEST DUP1 PUSH1 0x1F ADD PUSH1 0x20 DUP1 SWAP2 DIV MUL PUSH1 0x20 ADD PUSH1 0x40 MLOAD SWAP1 DUP2 ADD PUSH1 0x40 MSTORE DUP1 SWAP3 SWAP2 SWAP1 DUP2 DUP2 MSTORE PUSH1 0x20 ADD DUP3 DUP1 SLOAD PUSH2 0x1654 SWAP1 PUSH2 0x47C7 JUMP JUMPDEST DUP1 ISZERO PUSH2 0x16A1 JUMPI DUP1 PUSH1 0x1F LT PUSH2 0x1676 JUMPI PUSH2 0x100 DUP1 DUP4 SLOAD DIV MUL DUP4 MSTORE SWAP2 PUSH1 0x20 ADD SWAP2 PUSH2 0x16A1 JUMP JUMPDEST DUP3 ADD SWAP2 SWAP1 PUSH1 0x0 MSTORE PUSH1 0x20 PUSH1 0x0 KECCAK256 SWAP1 JUMPDEST DUP2 SLOAD DUP2 MSTORE SWAP1 PUSH1 0x1 ADD SWAP1 PUSH1 0x20 ADD DUP1 DUP4 GT PUSH2 0x1684 JUMPI DUP3 SWAP1 SUB PUSH1 0x1F AND DUP3 ADD SWAP2 JUMPDEST POP POP POP POP POP DUP2 MSTORE PUSH1 0x20 ADD SWAP1 PUSH1 0x1 ADD SWAP1 PUSH2 0x1609 JUMP JUMPDEST POP POP POP POP DUP2 MSTORE POP POP SWAP1 POP PUSH1 0x0 PUSH1 0xC PUSH1 0x0 CALLER PUSH20 0xFFFFFFFFFFFFFFFFFFFFFFFFFFFFFFFFFFFFFFFF AND PUSH20 0xFFFFFFFFFFFFFFFFFFFFFFFFFFFFFFFFFFFFFFFF AND DUP2 MSTORE PUSH1 0x20 ADD SWAP1 DUP2 MSTORE PUSH1 0x20 ADD PUSH1 0x0 KECCAK256 PUSH1 0x0 SWAP1 SLOAD SWAP1 PUSH2 0x100 EXP SWAP1 DIV PUSH20 0xFFFFFFFFFFFFFFFFFFFFFFFFFFFFFFFFFFFFFFFF AND SWAP1 POP PUSH1 0x0 PUSH1 0xB PUSH1 0x0 DUP4 PUSH20 0xFFFFFFFFFFFFFFFFFFFFFFFFFFFFFFFFFFFFFFFF AND PUSH20 0xFFFFFFFFFFFFFFFFFFFFFFFFFFFFFFFFFFFFFFFF AND DUP2 MSTORE PUSH1 0x20 ADD SWAP1 DUP2 MSTORE PUSH1 0x20 ADD PUSH1 0x0 KECCAK256 PUSH1 0x40 MLOAD DUP1 PUSH1 0x60 ADD PUSH1 0x40 MSTORE SWAP1 DUP2 PUSH1 0x0 DUP3 ADD DUP1 SLOAD PUSH2 0x177F SWAP1 PUSH2 0x47C7 JUMP JUMPDEST DUP1 PUSH1 0x1F ADD PUSH1 0x20 DUP1 SWAP2 DIV MUL PUSH1 0x20 ADD PUSH1 0x40 MLOAD SWAP1 DUP2 ADD PUSH1 0x40 MSTORE DUP1 SWAP3 SWAP2 SWAP1 DUP2 DUP2 MSTORE PUSH1 0x20 ADD DUP3 DUP1 SLOAD PUSH2 0x17AB SWAP1 PUSH2 0x47C7 JUMP JUMPDEST DUP1 ISZERO PUSH2 0x17F8 JUMPI DUP1 PUSH1 0x1F LT PUSH2 0x17CD JUMPI PUSH2 0x100 DUP1 DUP4 SLOAD DIV MUL DUP4 MSTORE SWAP2 PUSH1 0x20 ADD SWAP2 PUSH2 0x17F8 JUMP JUMPDEST DUP3 ADD SWAP2 SWAP1 PUSH1 0x0 MSTORE PUSH1 0x20 PUSH1 0x0 KECCAK256 SWAP1 JUMPDEST DUP2 SLOAD DUP2 MSTORE SWAP1 PUSH1 0x1 ADD SWAP1 PUSH1 0x20 ADD DUP1 DUP4 GT PUSH2 0x17DB JUMPI DUP3 SWAP1 SUB PUSH1 0x1F AND DUP3 ADD SWAP2 JUMPDEST POP POP POP POP POP DUP2 MSTORE PUSH1 0x20 ADD PUSH1 0x1 DUP3 ADD DUP1 SLOAD PUSH2 0x1811 SWAP1 PUSH2 0x47C7 JUMP JUMPDEST DUP1 PUSH1 0x1F ADD PUSH1 0x20 DUP1 SWAP2 DIV MUL PUSH1 0x20 ADD PUSH1 0x40 MLOAD SWAP1 DUP2 ADD PUSH1 0x40 MSTORE DUP1 SWAP3 SWAP2 SWAP1 DUP2 DUP2 MSTORE PUSH1 0x20 ADD DUP3 DUP1 SLOAD PUSH2 0x183D SWAP1 PUSH2 0x47C7 JUMP JUMPDEST DUP1 ISZERO PUSH2 0x188A JUMPI DUP1 PUSH1 0x1F LT PUSH2 0x185F JUMPI PUSH2 0x100 DUP1 DUP4 SLOAD DIV MUL DUP4 MSTORE SWAP2 PUSH1 0x20 ADD SWAP2 PUSH2 0x188A JUMP JUMPDEST DUP3 ADD SWAP2 SWAP1 PUSH1 0x0 MSTORE PUSH1 0x20 PUSH1 0x0 KECCAK256 SWAP1 JUMPDEST DUP2 SLOAD DUP2 MSTORE SWAP1 PUSH1 0x1 ADD SWAP1 PUSH1 0x20 ADD DUP1 DUP4 GT PUSH2 0x186D JUMPI DUP3 SWAP1 SUB PUSH1 0x1F AND DUP3 ADD SWAP2 JUMPDEST POP POP POP POP POP DUP2 MSTORE PUSH1 0x20 ADD PUSH1 0x2 DUP3 ADD SLOAD DUP2 MSTORE POP POP SWAP1 POP DUP3 PUSH1 0x20 ADD MLOAD SWAP9 POP DUP3 PUSH1 0x40 ADD MLOAD SWAP8 POP DUP1 PUSH1 0x20 ADD MLOAD SWAP7 POP DUP1 PUSH1 0x0 ADD MLOAD SWAP6 POP DUP3 PUSH1 0x60 ADD MLOAD SWAP5 POP POP POP POP POP SWAP1 SWAP2 SWAP3 SWAP4 SWAP5 JUMP JUMPDEST PUSH1 0x3 PUSH1 0x2 PUSH1 0x0 CALLER PUSH20 0xFFFFFFFFFFFFFFFFFFFFFFFFFFFFFFFFFFFFFFFF AND PUSH20 0xFFFFFFFFFFFFFFFFFFFFFFFFFFFFFFFFFFFFFFFF AND DUP2 MSTORE PUSH1 0x20 ADD SWAP1 DUP2 MSTORE PUSH1 0x20 ADD PUSH1 0x0 KECCAK256 PUSH1 0x0 ADD SLOAD DUP2 PUSH1 0x5 DUP2 GT ISZERO PUSH2 0x1925 JUMPI PUSH2 0x1924 PUSH2 0x482A JUMP JUMPDEST JUMPDEST EQ PUSH2 0x1965 JUMPI PUSH1 0x40 MLOAD PUSH32 0x8C379A000000000000000000000000000000000000000000000000000000000 DUP2 MSTORE PUSH1 0x4 ADD PUSH2 0x195C SWAP1 PUSH2 0x4548 JUMP JUMPDEST PUSH1 0x40 MLOAD DUP1 SWAP2 SUB SWAP1 REVERT JUMPDEST PUSH1 0x0 PUSH1 0x40 MLOAD DUP1 PUSH1 0x60 ADD PUSH1 0x40 MSTORE DUP1 DUP7 DUP2 MSTORE PUSH1 0x20 ADD DUP6 DUP2 MSTORE PUSH1 0x20 ADD PUSH1 0x0 DUP2 MSTORE POP SWAP1 POP DUP1 PUSH1 0xB PUSH1 0x0 DUP9 PUSH20 0xFFFFFFFFFFFFFFFFFFFFFFFFFFFFFFFFFFFFFFFF AND PUSH20 0xFFFFFFFFFFFFFFFFFFFFFFFFFFFFFFFFFFFFFFFF AND DUP2 MSTORE PUSH1 0x20 ADD SWAP1 DUP2 MSTORE PUSH1 0x20 ADD PUSH1 0x0 KECCAK256 PUSH1 0x0 DUP3 ADD MLOAD DUP2 PUSH1 0x0 ADD SWAP1 DUP1 MLOAD SWAP1 PUSH1 0x20 ADD SWAP1 PUSH2 0x19E1 SWAP3 SWAP2 SWAP1 PUSH2 0x37EA JUMP JUMPDEST POP PUSH1 0x20 DUP3 ADD MLOAD DUP2 PUSH1 0x1 ADD SWAP1 DUP1 MLOAD SWAP1 PUSH1 0x20 ADD SWAP1 PUSH2 0x19FE SWAP3 SWAP2 SWAP1 PUSH2 0x37EA JUMP JUMPDEST POP PUSH1 0x40 DUP3 ADD MLOAD DUP2 PUSH1 0x2 ADD SSTORE SWAP1 POP POP PUSH1 0x0 PUSH1 0x2 PUSH1 0x5 DUP2 GT ISZERO PUSH2 0x1A22 JUMPI PUSH2 0x1A21 PUSH2 0x482A JUMP JUMPDEST JUMPDEST SWAP1 POP PUSH2 0x1A3F PUSH1 0x40 MLOAD DUP1 PUSH1 0x20 ADD PUSH1 0x40 MSTORE DUP1 PUSH1 0x0 DUP2 MSTORE POP DUP6 DUP4 DUP11 PUSH2 0x348D JUMP JUMPDEST POP POP POP POP POP POP POP JUMP JUMPDEST PUSH2 0x1B2B PUSH1 0x2 PUSH1 0x0 CALLER PUSH20 0xFFFFFFFFFFFFFFFFFFFFFFFFFFFFFFFFFFFFFFFF AND PUSH20 0xFFFFFFFFFFFFFFFFFFFFFFFFFFFFFFFFFFFFFFFF AND DUP2 MSTORE PUSH1 0x20 ADD SWAP1 DUP2 MSTORE PUSH1 0x20 ADD PUSH1 0x0 KECCAK256 PUSH1 0x1 ADD DUP1 SLOAD PUSH2 0x1A98 SWAP1 PUSH2 0x47C7 JUMP JUMPDEST DUP1 PUSH1 0x1F ADD PUSH1 0x20 DUP1 SWAP2 DIV MUL PUSH1 0x20 ADD PUSH1 0x40 MLOAD SWAP1 DUP2 ADD PUSH1 0x40 MSTORE DUP1 SWAP3 SWAP2 SWAP1 DUP2 DUP2 MSTORE PUSH1 0x20 ADD DUP3 DUP1 SLOAD PUSH2 0x1AC4 SWAP1 PUSH2 0x47C7 JUMP JUMPDEST DUP1 ISZERO PUSH2 0x1B11 JUMPI DUP1 PUSH1 0x1F LT PUSH2 0x1AE6 JUMPI PUSH2 0x100 DUP1 DUP4 SLOAD DIV MUL DUP4 MSTORE SWAP2 PUSH1 0x20 ADD SWAP2 PUSH2 0x1B11 JUMP JUMPDEST DUP3 ADD SWAP2 SWAP1 PUSH1 0x0 MSTORE PUSH1 0x20 PUSH1 0x0 KECCAK256 SWAP1 JUMPDEST DUP2 SLOAD DUP2 MSTORE SWAP1 PUSH1 0x1 ADD SWAP1 PUSH1 0x20 ADD DUP1 DUP4 GT PUSH2 0x1AF4 JUMPI DUP3 SWAP1 SUB PUSH1 0x1F AND DUP3 ADD SWAP2 JUMPDEST POP POP POP POP POP PUSH1 0x40 MLOAD DUP1 PUSH1 0x20 ADD PUSH1 0x40 MSTORE DUP1 PUSH1 0x0 DUP2 MSTORE POP PUSH2 0x3791 JUMP JUMPDEST ISZERO PUSH2 0x1B6B JUMPI PUSH1 0x40 MLOAD PUSH32 0x8C379A000000000000000000000000000000000000000000000000000000000 DUP2 MSTORE PUSH1 0x4 ADD PUSH2 0x1B62 SWAP1 PUSH2 0x4568 JUMP JUMPDEST PUSH1 0x40 MLOAD DUP1 SWAP2 SUB SWAP1 REVERT JUMPDEST PUSH1 0x0 ISZERO ISZERO PUSH1 0x11 DUP3 PUSH1 0x40 MLOAD PUSH2 0x1B7F SWAP2 SWAP1 PUSH2 0x4308 JUMP JUMPDEST SWAP1 DUP2 MSTORE PUSH1 0x20 ADD PUSH1 0x40 MLOAD DUP1 SWAP2 SUB SWAP1 KECCAK256 PUSH1 0x0 CALLER PUSH20 0xFFFFFFFFFFFFFFFFFFFFFFFFFFFFFFFFFFFFFFFF AND PUSH20 0xFFFFFFFFFFFFFFFFFFFFFFFFFFFFFFFFFFFFFFFF AND DUP2 MSTORE PUSH1 0x20 ADD SWAP1 DUP2 MSTORE PUSH1 0x20 ADD PUSH1 0x0 KECCAK256 PUSH1 0x0 SWAP1 SLOAD SWAP1 PUSH2 0x100 EXP SWAP1 DIV PUSH1 0xFF AND ISZERO ISZERO EQ PUSH2 0x1C1A JUMPI PUSH1 0x40 MLOAD PUSH32 0x8C379A000000000000000000000000000000000000000000000000000000000 DUP2 MSTORE PUSH1 0x4 ADD PUSH2 0x1C11 SWAP1 PUSH2 0x44E8 JUMP JUMPDEST PUSH1 0x40 MLOAD DUP1 SWAP2 SUB SWAP1 REVERT JUMPDEST PUSH1 0xF DUP2 PUSH1 0x40 MLOAD PUSH2 0x1C2A SWAP2 SWAP1 PUSH2 0x4308 JUMP JUMPDEST SWAP1 DUP2 MSTORE PUSH1 0x20 ADD PUSH1 0x40 MLOAD DUP1 SWAP2 SUB SWAP1 KECCAK256 PUSH1 0x3 ADD CALLER SWAP1 DUP1 PUSH1 0x1 DUP2 SLOAD ADD DUP1 DUP3 SSTORE DUP1 SWAP2 POP POP PUSH1 0x1 SWAP1 SUB SWAP1 PUSH1 0x0 MSTORE PUSH1 0x20 PUSH1 0x0 KECCAK256 ADD PUSH1 0x0 SWAP1 SWAP2 SWAP1 SWAP2 SWAP1 SWAP2 PUSH2 0x100 EXP DUP2 SLOAD DUP2 PUSH20 0xFFFFFFFFFFFFFFFFFFFFFFFFFFFFFFFFFFFFFFFF MUL NOT AND SWAP1 DUP4 PUSH20 0xFFFFFFFFFFFFFFFFFFFFFFFFFFFFFFFFFFFFFFFF AND MUL OR SWAP1 SSTORE POP PUSH1 0x1 PUSH1 0x11 DUP3 PUSH1 0x40 MLOAD PUSH2 0x1CAE SWAP2 SWAP1 PUSH2 0x4308 JUMP JUMPDEST SWAP1 DUP2 MSTORE PUSH1 0x20 ADD PUSH1 0x40 MLOAD DUP1 SWAP2 SUB SWAP1 KECCAK256 PUSH1 0x0 CALLER PUSH20 0xFFFFFFFFFFFFFFFFFFFFFFFFFFFFFFFFFFFFFFFF AND PUSH20 0xFFFFFFFFFFFFFFFFFFFFFFFFFFFFFFFFFFFFFFFF AND DUP2 MSTORE PUSH1 0x20 ADD SWAP1 DUP2 MSTORE PUSH1 0x20 ADD PUSH1 0x0 KECCAK256 PUSH1 0x0 PUSH2 0x100 EXP DUP2 SLOAD DUP2 PUSH1 0xFF MUL NOT AND SWAP1 DUP4 ISZERO ISZERO MUL OR SWAP1 SSTORE POP POP JUMP JUMPDEST PUSH1 0x5 PUSH1 0x0 SWAP1 SLOAD SWAP1 PUSH2 0x100 EXP SWAP1 DIV PUSH20 0xFFFFFFFFFFFFFFFFFFFFFFFFFFFFFFFFFFFFFFFF AND PUSH20 0xFFFFFFFFFFFFFFFFFFFFFFFFFFFFFFFFFFFFFFFF AND CALLER PUSH20 0xFFFFFFFFFFFFFFFFFFFFFFFFFFFFFFFFFFFFFFFF AND EQ PUSH2 0x1DA3 JUMPI PUSH1 0x40 MLOAD PUSH32 0x8C379A000000000000000000000000000000000000000000000000000000000 DUP2 MSTORE PUSH1 0x4 ADD PUSH2 0x1D9A SWAP1 PUSH2 0x4588 JUMP JUMPDEST PUSH1 0x40 MLOAD DUP1 SWAP2 SUB SWAP1 REVERT JUMPDEST PUSH1 0x0 PUSH1 0x4 PUSH1 0x5 DUP2 GT ISZERO PUSH2 0x1DB9 JUMPI PUSH2 0x1DB8 PUSH2 0x482A JUMP JUMPDEST JUMPDEST SWAP1 POP PUSH2 0x1DD6 PUSH1 0x40 MLOAD DUP1 PUSH1 0x20 ADD PUSH1 0x40 MSTORE DUP1 PUSH1 0x0 DUP2 MSTORE POP DUP5 DUP4 DUP6 PUSH2 0x348D JUMP JUMPDEST DUP2 PUSH1 0x4 PUSH1 0x0 PUSH2 0x100 EXP DUP2 SLOAD DUP2 PUSH20 0xFFFFFFFFFFFFFFFFFFFFFFFFFFFFFFFFFFFFFFFF MUL NOT AND SWAP1 DUP4 PUSH20 0xFFFFFFFFFFFFFFFFFFFFFFFFFFFFFFFFFFFFFFFF AND MUL OR SWAP1 SSTORE POP POP POP POP JUMP JUMPDEST PUSH1 0x5 PUSH1 0x2 PUSH1 0x0 CALLER PUSH20 0xFFFFFFFFFFFFFFFFFFFFFFFFFFFFFFFFFFFFFFFF AND PUSH20 0xFFFFFFFFFFFFFFFFFFFFFFFFFFFFFFFFFFFFFFFF AND DUP2 MSTORE PUSH1 0x20 ADD SWAP1 DUP2 MSTORE PUSH1 0x20 ADD PUSH1 0x0 KECCAK256 PUSH1 0x0 ADD SLOAD DUP2 PUSH1 0x5 DUP2 GT ISZERO PUSH2 0x1E74 JUMPI PUSH2 0x1E73 PUSH2 0x482A JUMP JUMPDEST JUMPDEST EQ PUSH2 0x1EB4 JUMPI PUSH1 0x40 MLOAD PUSH32 0x8C379A000000000000000000000000000000000000000000000000000000000 DUP2 MSTORE PUSH1 0x4 ADD PUSH2 0x1EAB SWAP1 PUSH2 0x4548 JUMP JUMPDEST PUSH1 0x40 MLOAD DUP1 SWAP2 SUB SWAP1 REVERT JUMPDEST PUSH9 0x3635C9ADC5DEA00000 CALLER PUSH20 0xFFFFFFFFFFFFFFFFFFFFFFFFFFFFFFFFFFFFFFFF AND BALANCE LT ISZERO PUSH2 0x1F17 JUMPI PUSH1 0x40 MLOAD PUSH32 0x8C379A000000000000000000000000000000000000000000000000000000000 DUP2 MSTORE PUSH1 0x4 ADD PUSH2 0x1F0E SWAP1 PUSH2 0x4528 JUMP JUMPDEST PUSH1 0x40 MLOAD DUP1 SWAP2 SUB SWAP1 REVERT JUMPDEST DUP2 PUSH20 0xFFFFFFFFFFFFFFFFFFFFFFFFFFFFFFFFFFFFFFFF AND PUSH2 0x8FC PUSH9 0x3635C9ADC5DEA00000 SWAP1 DUP2 ISZERO MUL SWAP1 PUSH1 0x40 MLOAD PUSH1 0x0 PUSH1 0x40 MLOAD DUP1 DUP4 SUB DUP2 DUP6 DUP9 DUP9 CALL SWAP4 POP POP POP POP ISZERO DUP1 ISZERO PUSH2 0x1F66 JUMPI RETURNDATASIZE PUSH1 0x0 DUP1 RETURNDATACOPY RETURNDATASIZE PUSH1 0x0 REVERT JUMPDEST POP POP POP JUMP JUMPDEST PUSH1 0x0 PUSH1 0x1 PUSH1 0x5 DUP2 GT ISZERO PUSH2 0x1F81 JUMPI PUSH2 0x1F80 PUSH2 0x482A JUMP JUMPDEST JUMPDEST SWAP1 POP PUSH2 0x1F8F DUP6 DUP6 DUP4 DUP7 PUSH2 0x348D JUMP JUMPDEST PUSH1 0x8 DUP4 SWAP1 DUP1 PUSH1 0x1 DUP2 SLOAD ADD DUP1 DUP3 SSTORE DUP1 SWAP2 POP POP PUSH1 0x1 SWAP1 SUB SWAP1 PUSH1 0x0 MSTORE PUSH1 0x20 PUSH1 0x0 KECCAK256 ADD PUSH1 0x0 SWAP1 SWAP2 SWAP1 SWAP2 SWAP1 SWAP2 PUSH2 0x100 EXP DUP2 SLOAD DUP2 PUSH20 0xFFFFFFFFFFFFFFFFFFFFFFFFFFFFFFFFFFFFFFFF MUL NOT AND SWAP1 DUP4 PUSH20 0xFFFFFFFFFFFFFFFFFFFFFFFFFFFFFFFFFFFFFFFF AND MUL OR SWAP1 SSTORE POP PUSH1 0xD PUSH1 0x0 DUP4 PUSH20 0xFFFFFFFFFFFFFFFFFFFFFFFFFFFFFFFFFFFFFFFF AND PUSH20 0xFFFFFFFFFFFFFFFFFFFFFFFFFFFFFFFFFFFFFFFF AND DUP2 MSTORE PUSH1 0x20 ADD SWAP1 DUP2 MSTORE PUSH1 0x20 ADD PUSH1 0x0 KECCAK256 DUP4 SWAP1 DUP1 PUSH1 0x1 DUP2 SLOAD ADD DUP1 DUP3 SSTORE DUP1 SWAP2 POP POP PUSH1 0x1 SWAP1 SUB SWAP1 PUSH1 0x0 MSTORE PUSH1 0x20 PUSH1 0x0 KECCAK256 ADD PUSH1 0x0 SWAP1 SWAP2 SWAP1 SWAP2 SWAP1 SWAP2 PUSH2 0x100 EXP DUP2 SLOAD DUP2 PUSH20 0xFFFFFFFFFFFFFFFFFFFFFFFFFFFFFFFFFFFFFFFF MUL NOT AND SWAP1 DUP4 PUSH20 0xFFFFFFFFFFFFFFFFFFFFFFFFFFFFFFFFFFFFFFFF AND MUL OR SWAP1 SSTORE POP POP POP POP POP POP JUMP JUMPDEST PUSH1 0x1 PUSH1 0x2 PUSH1 0x0 CALLER PUSH20 0xFFFFFFFFFFFFFFFFFFFFFFFFFFFFFFFFFFFFFFFF AND PUSH20 0xFFFFFFFFFFFFFFFFFFFFFFFFFFFFFFFFFFFFFFFF AND DUP2 MSTORE PUSH1 0x20 ADD SWAP1 DUP2 MSTORE PUSH1 0x20 ADD PUSH1 0x0 KECCAK256 PUSH1 0x0 ADD SLOAD DUP2 PUSH1 0x5 DUP2 GT ISZERO PUSH2 0x20F1 JUMPI PUSH2 0x20F0 PUSH2 0x482A JUMP JUMPDEST JUMPDEST EQ PUSH2 0x2131 JUMPI PUSH1 0x40 MLOAD PUSH32 0x8C379A000000000000000000000000000000000000000000000000000000000 DUP2 MSTORE PUSH1 0x4 ADD PUSH2 0x2128 SWAP1 PUSH2 0x4548 JUMP JUMPDEST PUSH1 0x40 MLOAD DUP1 SWAP2 SUB SWAP1 REVERT JUMPDEST POP JUMP JUMPDEST PUSH1 0x60 DUP1 PUSH1 0x0 PUSH1 0x60 PUSH2 0x221E PUSH1 0x2 PUSH1 0x0 CALLER PUSH20 0xFFFFFFFFFFFFFFFFFFFFFFFFFFFFFFFFFFFFFFFF AND PUSH20 0xFFFFFFFFFFFFFFFFFFFFFFFFFFFFFFFFFFFFFFFF AND DUP2 MSTORE PUSH1 0x20 ADD SWAP1 DUP2 MSTORE PUSH1 0x20 ADD PUSH1 0x0 KECCAK256 PUSH1 0x1 ADD DUP1 SLOAD PUSH2 0x218B SWAP1 PUSH2 0x47C7 JUMP JUMPDEST DUP1 PUSH1 0x1F ADD PUSH1 0x20 DUP1 SWAP2 DIV MUL PUSH1 0x20 ADD PUSH1 0x40 MLOAD SWAP1 DUP2 ADD PUSH1 0x40 MSTORE DUP1 SWAP3 SWAP2 SWAP1 DUP2 DUP2 MSTORE PUSH1 0x20 ADD DUP3 DUP1 SLOAD PUSH2 0x21B7 SWAP1 PUSH2 0x47C7 JUMP JUMPDEST DUP1 ISZERO PUSH2 0x2204 JUMPI DUP1 PUSH1 0x1F LT PUSH2 0x21D9 JUMPI PUSH2 0x100 DUP1 DUP4 SLOAD DIV MUL DUP4 MSTORE SWAP2 PUSH1 0x20 ADD SWAP2 PUSH2 0x2204 JUMP JUMPDEST DUP3 ADD SWAP2 SWAP1 PUSH1 0x0 MSTORE PUSH1 0x20 PUSH1 0x0 KECCAK256 SWAP1 JUMPDEST DUP2 SLOAD DUP2 MSTORE SWAP1 PUSH1 0x1 ADD SWAP1 PUSH1 0x20 ADD DUP1 DUP4 GT PUSH2 0x21E7 JUMPI DUP3 SWAP1 SUB PUSH1 0x1F AND DUP3 ADD SWAP2 JUMPDEST POP POP POP POP POP PUSH1 0x40 MLOAD DUP1 PUSH1 0x20 ADD PUSH1 0x40 MSTORE DUP1 PUSH1 0x0 DUP2 MSTORE POP PUSH2 0x3791 JUMP JUMPDEST ISZERO PUSH2 0x225E JUMPI PUSH1 0x40 MLOAD PUSH32 0x8C379A000000000000000000000000000000000000000000000000000000000 DUP2 MSTORE PUSH1 0x4 ADD PUSH2 0x2255 SWAP1 PUSH2 0x4568 JUMP JUMPDEST PUSH1 0x40 MLOAD DUP1 SWAP2 SUB SWAP1 REVERT JUMPDEST PUSH1 0x0 PUSH1 0x2 PUSH1 0x0 CALLER PUSH20 0xFFFFFFFFFFFFFFFFFFFFFFFFFFFFFFFFFFFFFFFF AND PUSH20 0xFFFFFFFFFFFFFFFFFFFFFFFFFFFFFFFFFFFFFFFF AND DUP2 MSTORE PUSH1 0x20 ADD SWAP1 DUP2 MSTORE PUSH1 0x20 ADD PUSH1 0x0 KECCAK256 PUSH1 0x40 MLOAD DUP1 PUSH1 0x80 ADD PUSH1 0x40 MSTORE SWAP1 DUP2 PUSH1 0x0 DUP3 ADD SLOAD DUP2 MSTORE PUSH1 0x20 ADD PUSH1 0x1 DUP3 ADD DUP1 SLOAD PUSH2 0x22C4 SWAP1 PUSH2 0x47C7 JUMP JUMPDEST DUP1 PUSH1 0x1F ADD PUSH1 0x20 DUP1 SWAP2 DIV MUL PUSH1 0x20 ADD PUSH1 0x40 MLOAD SWAP1 DUP2 ADD PUSH1 0x40 MSTORE DUP1 SWAP3 SWAP2 SWAP1 DUP2 DUP2 MSTORE PUSH1 0x20 ADD DUP3 DUP1 SLOAD PUSH2 0x22F0 SWAP1 PUSH2 0x47C7 JUMP JUMPDEST DUP1 ISZERO PUSH2 0x233D JUMPI DUP1 PUSH1 0x1F LT PUSH2 0x2312 JUMPI PUSH2 0x100 DUP1 DUP4 SLOAD DIV MUL DUP4 MSTORE SWAP2 PUSH1 0x20 ADD SWAP2 PUSH2 0x233D JUMP JUMPDEST DUP3 ADD SWAP2 SWAP1 PUSH1 0x0 MSTORE PUSH1 0x20 PUSH1 0x0 KECCAK256 SWAP1 JUMPDEST DUP2 SLOAD DUP2 MSTORE SWAP1 PUSH1 0x1 ADD SWAP1 PUSH1 0x20 ADD DUP1 DUP4 GT PUSH2 0x2320 JUMPI DUP3 SWAP1 SUB PUSH1 0x1F AND DUP3 ADD SWAP2 JUMPDEST POP POP POP POP POP DUP2 MSTORE PUSH1 0x20 ADD PUSH1 0x2 DUP3 ADD DUP1 SLOAD PUSH2 0x2356 SWAP1 PUSH2 0x47C7 JUMP JUMPDEST DUP1 PUSH1 0x1F ADD PUSH1 0x20 DUP1 SWAP2 DIV MUL PUSH1 0x20 ADD PUSH1 0x40 MLOAD SWAP1 DUP2 ADD PUSH1 0x40 MSTORE DUP1 SWAP3 SWAP2 SWAP1 DUP2 DUP2 MSTORE PUSH1 0x20 ADD DUP3 DUP1 SLOAD PUSH2 0x2382 SWAP1 PUSH2 0x47C7 JUMP JUMPDEST DUP1 ISZERO PUSH2 0x23CF JUMPI DUP1 PUSH1 0x1F LT PUSH2 0x23A4 JUMPI PUSH2 0x100 DUP1 DUP4 SLOAD DIV MUL DUP4 MSTORE SWAP2 PUSH1 0x20 ADD SWAP2 PUSH2 0x23CF JUMP JUMPDEST DUP3 ADD SWAP2 SWAP1 PUSH1 0x0 MSTORE PUSH1 0x20 PUSH1 0x0 KECCAK256 SWAP1 JUMPDEST DUP2 SLOAD DUP2 MSTORE SWAP1 PUSH1 0x1 ADD SWAP1 PUSH1 0x20 ADD DUP1 DUP4 GT PUSH2 0x23B2 JUMPI DUP3 SWAP1 SUB PUSH1 0x1F AND DUP3 ADD SWAP2 JUMPDEST POP POP POP POP POP DUP2 MSTORE PUSH1 0x20 ADD PUSH1 0x3 DUP3 ADD DUP1 SLOAD DUP1 PUSH1 0x20 MUL PUSH1 0x20 ADD PUSH1 0x40 MLOAD SWAP1 DUP2 ADD PUSH1 0x40 MSTORE DUP1 SWAP3 SWAP2 SWAP1 DUP2 DUP2 MSTORE PUSH1 0x20 ADD PUSH1 0x0 SWAP1 JUMPDEST DUP3 DUP3 LT ISZERO PUSH2 0x24A9 JUMPI DUP4 DUP3 SWAP1 PUSH1 0x0 MSTORE PUSH1 0x20 PUSH1 0x0 KECCAK256 ADD DUP1 SLOAD PUSH2 0x241C SWAP1 PUSH2 0x47C7 JUMP JUMPDEST DUP1 PUSH1 0x1F ADD PUSH1 0x20 DUP1 SWAP2 DIV MUL PUSH1 0x20 ADD PUSH1 0x40 MLOAD SWAP1 DUP2 ADD PUSH1 0x40 MSTORE DUP1 SWAP3 SWAP2 SWAP1 DUP2 DUP2 MSTORE PUSH1 0x20 ADD DUP3 DUP1 SLOAD PUSH2 0x2448 SWAP1 PUSH2 0x47C7 JUMP JUMPDEST DUP1 ISZERO PUSH2 0x2495 JUMPI DUP1 PUSH1 0x1F LT PUSH2 0x246A JUMPI PUSH2 0x100 DUP1 DUP4 SLOAD DIV MUL DUP4 MSTORE SWAP2 PUSH1 0x20 ADD SWAP2 PUSH2 0x2495 JUMP JUMPDEST DUP3 ADD SWAP2 SWAP1 PUSH1 0x0 MSTORE PUSH1 0x20 PUSH1 0x0 KECCAK256 SWAP1 JUMPDEST DUP2 SLOAD DUP2 MSTORE SWAP1 PUSH1 0x1 ADD SWAP1 PUSH1 0x20 ADD DUP1 DUP4 GT PUSH2 0x2478 JUMPI DUP3 SWAP1 SUB PUSH1 0x1F AND DUP3 ADD SWAP2 JUMPDEST POP POP POP POP POP DUP2 MSTORE PUSH1 0x20 ADD SWAP1 PUSH1 0x1 ADD SWAP1 PUSH2 0x23FD JUMP JUMPDEST POP POP POP POP DUP2 MSTORE POP POP SWAP1 POP DUP1 PUSH1 0x20 ADD MLOAD SWAP5 POP DUP1 PUSH1 0x40 ADD MLOAD SWAP4 POP CALLER PUSH20 0xFFFFFFFFFFFFFFFFFFFFFFFFFFFFFFFFFFFFFFFF AND BALANCE SWAP3 POP DUP1 PUSH1 0x60 ADD MLOAD SWAP2 POP POP SWAP1 SWAP2 SWAP3 SWAP4 JUMP JUMPDEST PUSH1 0x0 DUP1 PUSH1 0x5 DUP2 GT ISZERO PUSH2 0x24FE JUMPI PUSH2 0x24FD PUSH2 0x482A JUMP JUMPDEST JUMPDEST SWAP1 POP PUSH2 0x250C DUP5 DUP5 DUP4 DUP6 PUSH2 0x348D JUMP JUMPDEST POP POP POP POP JUMP JUMPDEST PUSH1 0x3 PUSH1 0x2 PUSH1 0x0 CALLER PUSH20 0xFFFFFFFFFFFFFFFFFFFFFFFFFFFFFFFFFFFFFFFF AND PUSH20 0xFFFFFFFFFFFFFFFFFFFFFFFFFFFFFFFFFFFFFFFF AND DUP2 MSTORE PUSH1 0x20 ADD SWAP1 DUP2 MSTORE PUSH1 0x20 ADD PUSH1 0x0 KECCAK256 PUSH1 0x0 ADD SLOAD DUP2 PUSH1 0x5 DUP2 GT ISZERO PUSH2 0x256A JUMPI PUSH2 0x2569 PUSH2 0x482A JUMP JUMPDEST JUMPDEST EQ PUSH2 0x25AA JUMPI PUSH1 0x40 MLOAD PUSH32 0x8C379A000000000000000000000000000000000000000000000000000000000 DUP2 MSTORE PUSH1 0x4 ADD PUSH2 0x25A1 SWAP1 PUSH2 0x4548 JUMP JUMPDEST PUSH1 0x40 MLOAD DUP1 SWAP2 SUB SWAP1 REVERT JUMPDEST PUSH1 0x0 PUSH1 0x3 PUSH1 0x5 DUP2 GT ISZERO PUSH2 0x25C0 JUMPI PUSH2 0x25BF PUSH2 0x482A JUMP JUMPDEST JUMPDEST SWAP1 POP PUSH2 0x25CE DUP5 DUP5 DUP4 DUP9 PUSH2 0x348D JUMP JUMPDEST PUSH1 0x6 DUP4 SWAP1 DUP1 PUSH1 0x1 DUP2 SLOAD ADD DUP1 DUP3 SSTORE DUP1 SWAP2 POP POP PUSH1 0x1 SWAP1 SUB SWAP1 PUSH1 0x0 MSTORE PUSH1 0x20 PUSH1 0x0 KECCAK256 ADD PUSH1 0x0 SWAP1 SWAP2 SWAP1 SWAP2 SWAP1 SWAP2 POP SWAP1 DUP1 MLOAD SWAP1 PUSH1 0x20 ADD SWAP1 PUSH2 0x2609 SWAP3 SWAP2 SWAP1 PUSH2 0x37EA JUMP JUMPDEST POP POP POP POP POP POP JUMP JUMPDEST PUSH1 0x0 PUSH1 0x2 PUSH1 0x0 CALLER PUSH20 0xFFFFFFFFFFFFFFFFFFFFFFFFFFFFFFFFFFFFFFFF AND PUSH20 0xFFFFFFFFFFFFFFFFFFFFFFFFFFFFFFFFFFFFFFFF AND DUP2 MSTORE PUSH1 0x20 ADD SWAP1 DUP2 MSTORE PUSH1 0x20 ADD PUSH1 0x0 KECCAK256 PUSH1 0x0 ADD SLOAD DUP2 PUSH1 0x5 DUP2 GT ISZERO PUSH2 0x2669 JUMPI PUSH2 0x2668 PUSH2 0x482A JUMP JUMPDEST JUMPDEST EQ PUSH2 0x26A9 JUMPI PUSH1 0x40 MLOAD PUSH32 0x8C379A000000000000000000000000000000000000000000000000000000000 DUP2 MSTORE PUSH1 0x4 ADD PUSH2 0x26A0 SWAP1 PUSH2 0x4548 JUMP JUMPDEST PUSH1 0x40 MLOAD DUP1 SWAP2 SUB SWAP1 REVERT JUMPDEST PUSH1 0x0 DUP1 PUSH1 0x0 DUP1 PUSH1 0x5 DUP2 GT ISZERO PUSH2 0x26C1 JUMPI PUSH2 0x26C0 PUSH2 0x482A JUMP JUMPDEST JUMPDEST DUP2 MSTORE PUSH1 0x20 ADD SWAP1 DUP2 MSTORE PUSH1 0x20 ADD PUSH1 0x0 KECCAK256 DUP1 SLOAD PUSH2 0x26DA SWAP1 PUSH2 0x47C7 JUMP JUMPDEST DUP1 PUSH1 0x1F ADD PUSH1 0x20 DUP1 SWAP2 DIV MUL PUSH1 0x20 ADD PUSH1 0x40 MLOAD SWAP1 DUP2 ADD PUSH1 0x40 MSTORE DUP1 SWAP3 SWAP2 SWAP1 DUP2 DUP2 MSTORE PUSH1 0x20 ADD DUP3 DUP1 SLOAD PUSH2 0x2706 SWAP1 PUSH2 0x47C7 JUMP JUMPDEST DUP1 ISZERO PUSH2 0x2753 JUMPI DUP1 PUSH1 0x1F LT PUSH2 0x2728 JUMPI PUSH2 0x100 DUP1 DUP4 SLOAD DIV MUL DUP4 MSTORE SWAP2 PUSH1 0x20 ADD SWAP2 PUSH2 0x2753 JUMP JUMPDEST DUP3 ADD SWAP2 SWAP1 PUSH1 0x0 MSTORE PUSH1 0x20 PUSH1 0x0 KECCAK256 SWAP1 JUMPDEST DUP2 SLOAD DUP2 MSTORE SWAP1 PUSH1 0x1 ADD SWAP1 PUSH1 0x20 ADD DUP1 DUP4 GT PUSH2 0x2736 JUMPI DUP3 SWAP1 SUB PUSH1 0x1F AND DUP3 ADD SWAP2 JUMPDEST POP POP POP POP POP SWAP1 POP PUSH1 0x0 DUP1 PUSH1 0x0 PUSH1 0x1 PUSH1 0x5 DUP2 GT ISZERO PUSH2 0x2773 JUMPI PUSH2 0x2772 PUSH2 0x482A JUMP JUMPDEST JUMPDEST DUP2 MSTORE PUSH1 0x20 ADD SWAP1 DUP2 MSTORE PUSH1 0x20 ADD PUSH1 0x0 KECCAK256 DUP1 SLOAD PUSH2 0x278C SWAP1 PUSH2 0x47C7 JUMP JUMPDEST DUP1 PUSH1 0x1F ADD PUSH1 0x20 DUP1 SWAP2 DIV MUL PUSH1 0x20 ADD PUSH1 0x40 MLOAD SWAP1 DUP2 ADD PUSH1 0x40 MSTORE DUP1 SWAP3 SWAP2 SWAP1 DUP2 DUP2 MSTORE PUSH1 0x20 ADD DUP3 DUP1 SLOAD PUSH2 0x27B8 SWAP1 PUSH2 0x47C7 JUMP JUMPDEST DUP1 ISZERO PUSH2 0x2805 JUMPI DUP1 PUSH1 0x1F LT PUSH2 0x27DA JUMPI PUSH2 0x100 DUP1 DUP4 SLOAD DIV MUL DUP4 MSTORE SWAP2 PUSH1 0x20 ADD SWAP2 PUSH2 0x2805 JUMP JUMPDEST DUP3 ADD SWAP2 SWAP1 PUSH1 0x0 MSTORE PUSH1 0x20 PUSH1 0x0 KECCAK256 SWAP1 JUMPDEST DUP2 SLOAD DUP2 MSTORE SWAP1 PUSH1 0x1 ADD SWAP1 PUSH1 0x20 ADD DUP1 DUP4 GT PUSH2 0x27E8 JUMPI DUP3 SWAP1 SUB PUSH1 0x1F AND DUP3 ADD SWAP2 JUMPDEST POP POP POP POP POP SWAP1 POP PUSH1 0x0 PUSH1 0x40 MLOAD DUP1 PUSH1 0x80 ADD PUSH1 0x40 MSTORE DUP1 CALLER PUSH20 0xFFFFFFFFFFFFFFFFFFFFFFFFFFFFFFFFFFFFFFFF AND DUP2 MSTORE PUSH1 0x20 ADD DUP5 DUP2 MSTORE PUSH1 0x20 ADD DUP4 DUP2 MSTORE PUSH1 0x20 ADD PUSH1 0x0 ISZERO ISZERO DUP2 MSTORE POP SWAP1 POP DUP1 PUSH1 0x10 DUP7 PUSH1 0x40 MLOAD PUSH2 0x285B SWAP2 SWAP1 PUSH2 0x4308 JUMP JUMPDEST SWAP1 DUP2 MSTORE PUSH1 0x20 ADD PUSH1 0x40 MLOAD DUP1 SWAP2 SUB SWAP1 KECCAK256 PUSH1 0x0 DUP3 ADD MLOAD DUP2 PUSH1 0x0 ADD PUSH1 0x0 PUSH2 0x100 EXP DUP2 SLOAD DUP2 PUSH20 0xFFFFFFFFFFFFFFFFFFFFFFFFFFFFFFFFFFFFFFFF MUL NOT AND SWAP1 DUP4 PUSH20 0xFFFFFFFFFFFFFFFFFFFFFFFFFFFFFFFFFFFFFFFF AND MUL OR SWAP1 SSTORE POP PUSH1 0x20 DUP3 ADD MLOAD DUP2 PUSH1 0x1 ADD SWAP1 DUP1 MLOAD SWAP1 PUSH1 0x20 ADD SWAP1 PUSH2 0x28CC SWAP3 SWAP2 SWAP1 PUSH2 0x37EA JUMP JUMPDEST POP PUSH1 0x40 DUP3 ADD MLOAD DUP2 PUSH1 0x2 ADD SWAP1 DUP1 MLOAD SWAP1 PUSH1 0x20 ADD SWAP1 PUSH2 0x28E9 SWAP3 SWAP2 SWAP1 PUSH2 0x37EA JUMP JUMPDEST POP PUSH1 0x60 DUP3 ADD MLOAD DUP2 PUSH1 0x3 ADD PUSH1 0x0 PUSH2 0x100 EXP DUP2 SLOAD DUP2 PUSH1 0xFF MUL NOT AND SWAP1 DUP4 ISZERO ISZERO MUL OR SWAP1 SSTORE POP SWAP1 POP POP PUSH1 0xA DUP2 SWAP1 DUP1 PUSH1 0x1 DUP2 SLOAD ADD DUP1 DUP3 SSTORE DUP1 SWAP2 POP POP PUSH1 0x1 SWAP1 SUB SWAP1 PUSH1 0x0 MSTORE PUSH1 0x20 PUSH1 0x0 KECCAK256 SWAP1 PUSH1 0x4 MUL ADD PUSH1 0x0 SWAP1 SWAP2 SWAP1 SWAP2 SWAP1 SWAP2 POP PUSH1 0x0 DUP3 ADD MLOAD DUP2 PUSH1 0x0 ADD PUSH1 0x0 PUSH2 0x100 EXP DUP2 SLOAD DUP2 PUSH20 0xFFFFFFFFFFFFFFFFFFFFFFFFFFFFFFFFFFFFFFFF MUL NOT AND SWAP1 DUP4 PUSH20 0xFFFFFFFFFFFFFFFFFFFFFFFFFFFFFFFFFFFFFFFF AND MUL OR SWAP1 SSTORE POP PUSH1 0x20 DUP3 ADD MLOAD DUP2 PUSH1 0x1 ADD SWAP1 DUP1 MLOAD SWAP1 PUSH1 0x20 ADD SWAP1 PUSH2 0x299C SWAP3 SWAP2 SWAP1 PUSH2 0x37EA JUMP JUMPDEST POP PUSH1 0x40 DUP3 ADD MLOAD DUP2 PUSH1 0x2 ADD SWAP1 DUP1 MLOAD SWAP1 PUSH1 0x20 ADD SWAP1 PUSH2 0x29B9 SWAP3 SWAP2 SWAP1 PUSH2 0x37EA JUMP JUMPDEST POP PUSH1 0x60 DUP3 ADD MLOAD DUP2 PUSH1 0x3 ADD PUSH1 0x0 PUSH2 0x100 EXP DUP2 SLOAD DUP2 PUSH1 0xFF MUL NOT AND SWAP1 DUP4 ISZERO ISZERO MUL OR SWAP1 SSTORE POP POP POP POP POP POP POP POP JUMP JUMPDEST PUSH2 0x2AC6 PUSH1 0x2 PUSH1 0x0 CALLER PUSH20 0xFFFFFFFFFFFFFFFFFFFFFFFFFFFFFFFFFFFFFFFF AND PUSH20 0xFFFFFFFFFFFFFFFFFFFFFFFFFFFFFFFFFFFFFFFF AND DUP2 MSTORE PUSH1 0x20 ADD SWAP1 DUP2 MSTORE PUSH1 0x20 ADD PUSH1 0x0 KECCAK256 PUSH1 0x1 ADD DUP1 SLOAD PUSH2 0x2A33 SWAP1 PUSH2 0x47C7 JUMP JUMPDEST DUP1 PUSH1 0x1F ADD PUSH1 0x20 DUP1 SWAP2 DIV MUL PUSH1 0x20 ADD PUSH1 0x40 MLOAD SWAP1 DUP2 ADD PUSH1 0x40 MSTORE DUP1 SWAP3 SWAP2 SWAP1 DUP2 DUP2 MSTORE PUSH1 0x20 ADD DUP3 DUP1 SLOAD PUSH2 0x2A5F SWAP1 PUSH2 0x47C7 JUMP JUMPDEST DUP1 ISZERO PUSH2 0x2AAC JUMPI DUP1 PUSH1 0x1F LT PUSH2 0x2A81 JUMPI PUSH2 0x100 DUP1 DUP4 SLOAD DIV MUL DUP4 MSTORE SWAP2 PUSH1 0x20 ADD SWAP2 PUSH2 0x2AAC JUMP JUMPDEST DUP3 ADD SWAP2 SWAP1 PUSH1 0x0 MSTORE PUSH1 0x20 PUSH1 0x0 KECCAK256 SWAP1 JUMPDEST DUP2 SLOAD DUP2 MSTORE SWAP1 PUSH1 0x1 ADD SWAP1 PUSH1 0x20 ADD DUP1 DUP4 GT PUSH2 0x2A8F JUMPI DUP3 SWAP1 SUB PUSH1 0x1F AND DUP3 ADD SWAP2 JUMPDEST POP POP POP POP POP PUSH1 0x40 MLOAD DUP1 PUSH1 0x20 ADD PUSH1 0x40 MSTORE DUP1 PUSH1 0x0 DUP2 MSTORE POP PUSH2 0x3791 JUMP JUMPDEST ISZERO PUSH2 0x2B06 JUMPI PUSH1 0x40 MLOAD PUSH32 0x8C379A000000000000000000000000000000000000000000000000000000000 DUP2 MSTORE PUSH1 0x4 ADD PUSH2 0x2AFD SWAP1 PUSH2 0x4568 JUMP JUMPDEST PUSH1 0x40 MLOAD DUP1 SWAP2 SUB SWAP1 REVERT JUMPDEST PUSH1 0x0 ISZERO ISZERO PUSH1 0x11 DUP3 PUSH1 0x40 MLOAD PUSH2 0x2B1A SWAP2 SWAP1 PUSH2 0x4308 JUMP JUMPDEST SWAP1 DUP2 MSTORE PUSH1 0x20 ADD PUSH1 0x40 MLOAD DUP1 SWAP2 SUB SWAP1 KECCAK256 PUSH1 0x0 CALLER PUSH20 0xFFFFFFFFFFFFFFFFFFFFFFFFFFFFFFFFFFFFFFFF AND PUSH20 0xFFFFFFFFFFFFFFFFFFFFFFFFFFFFFFFFFFFFFFFF AND DUP2 MSTORE PUSH1 0x20 ADD SWAP1 DUP2 MSTORE PUSH1 0x20 ADD PUSH1 0x0 KECCAK256 PUSH1 0x0 SWAP1 SLOAD SWAP1 PUSH2 0x100 EXP SWAP1 DIV PUSH1 0xFF AND ISZERO ISZERO EQ PUSH2 0x2BB5 JUMPI PUSH1 0x40 MLOAD PUSH32 0x8C379A000000000000000000000000000000000000000000000000000000000 DUP2 MSTORE PUSH1 0x4 ADD PUSH2 0x2BAC SWAP1 PUSH2 0x44E8 JUMP JUMPDEST PUSH1 0x40 MLOAD DUP1 SWAP2 SUB SWAP1 REVERT JUMPDEST PUSH1 0xF DUP2 PUSH1 0x40 MLOAD PUSH2 0x2BC5 SWAP2 SWAP1 PUSH2 0x4308 JUMP JUMPDEST SWAP1 DUP2 MSTORE PUSH1 0x20 ADD PUSH1 0x40 MLOAD DUP1 SWAP2 SUB SWAP1 KECCAK256 PUSH1 0x4 ADD CALLER SWAP1 DUP1 PUSH1 0x1 DUP2 SLOAD ADD DUP1 DUP3 SSTORE DUP1 SWAP2 POP POP PUSH1 0x1 SWAP1 SUB SWAP1 PUSH1 0x0 MSTORE PUSH1 0x20 PUSH1 0x0 KECCAK256 ADD PUSH1 0x0 SWAP1 SWAP2 SWAP1 SWAP2 SWAP1 SWAP2 PUSH2 0x100 EXP DUP2 SLOAD DUP2 PUSH20 0xFFFFFFFFFFFFFFFFFFFFFFFFFFFFFFFFFFFFFFFF MUL NOT AND SWAP1 DUP4 PUSH20 0xFFFFFFFFFFFFFFFFFFFFFFFFFFFFFFFFFFFFFFFF AND MUL OR SWAP1 SSTORE POP PUSH1 0x1 PUSH1 0x11 DUP3 PUSH1 0x40 MLOAD PUSH2 0x2C49 SWAP2 SWAP1 PUSH2 0x4308 JUMP JUMPDEST SWAP1 DUP2 MSTORE PUSH1 0x20 ADD PUSH1 0x40 MLOAD DUP1 SWAP2 SUB SWAP1 KECCAK256 PUSH1 0x0 CALLER PUSH20 0xFFFFFFFFFFFFFFFFFFFFFFFFFFFFFFFFFFFFFFFF AND PUSH20 0xFFFFFFFFFFFFFFFFFFFFFFFFFFFFFFFFFFFFFFFF AND DUP2 MSTORE PUSH1 0x20 ADD SWAP1 DUP2 MSTORE PUSH1 0x20 ADD PUSH1 0x0 KECCAK256 PUSH1 0x0 PUSH2 0x100 EXP DUP2 SLOAD DUP2 PUSH1 0xFF MUL NOT AND SWAP1 DUP4 ISZERO ISZERO MUL OR SWAP1 SSTORE POP POP JUMP JUMPDEST PUSH1 0x60 DUP1 PUSH1 0x60 DUP1 PUSH1 0x3 PUSH1 0x2 PUSH1 0x0 CALLER PUSH20 0xFFFFFFFFFFFFFFFFFFFFFFFFFFFFFFFFFFFFFFFF AND PUSH20 0xFFFFFFFFFFFFFFFFFFFFFFFFFFFFFFFFFFFFFFFF AND DUP2 MSTORE PUSH1 0x20 ADD SWAP1 DUP2 MSTORE PUSH1 0x20 ADD PUSH1 0x0 KECCAK256 PUSH1 0x0 ADD SLOAD DUP2 PUSH1 0x5 DUP2 GT ISZERO PUSH2 0x2D0C JUMPI PUSH2 0x2D0B PUSH2 0x482A JUMP JUMPDEST JUMPDEST EQ PUSH2 0x2D4C JUMPI PUSH1 0x40 MLOAD PUSH32 0x8C379A000000000000000000000000000000000000000000000000000000000 DUP2 MSTORE PUSH1 0x4 ADD PUSH2 0x2D43 SWAP1 PUSH2 0x4548 JUMP JUMPDEST PUSH1 0x40 MLOAD DUP1 SWAP2 SUB SWAP1 REVERT JUMPDEST PUSH1 0x0 PUSH1 0x2 PUSH1 0x0 CALLER PUSH20 0xFFFFFFFFFFFFFFFFFFFFFFFFFFFFFFFFFFFFFFFF AND PUSH20 0xFFFFFFFFFFFFFFFFFFFFFFFFFFFFFFFFFFFFFFFF AND DUP2 MSTORE PUSH1 0x20 ADD SWAP1 DUP2 MSTORE PUSH1 0x20 ADD PUSH1 0x0 KECCAK256 PUSH1 0x40 MLOAD DUP1 PUSH1 0x80 ADD PUSH1 0x40 MSTORE SWAP1 DUP2 PUSH1 0x0 DUP3 ADD SLOAD DUP2 MSTORE PUSH1 0x20 ADD PUSH1 0x1 DUP3 ADD DUP1 SLOAD PUSH2 0x2DB2 SWAP1 PUSH2 0x47C7 JUMP JUMPDEST DUP1 PUSH1 0x1F ADD PUSH1 0x20 DUP1 SWAP2 DIV MUL PUSH1 0x20 ADD PUSH1 0x40 MLOAD SWAP1 DUP2 ADD PUSH1 0x40 MSTORE DUP1 SWAP3 SWAP2 SWAP1 DUP2 DUP2 MSTORE PUSH1 0x20 ADD DUP3 DUP1 SLOAD PUSH2 0x2DDE SWAP1 PUSH2 0x47C7 JUMP JUMPDEST DUP1 ISZERO PUSH2 0x2E2B JUMPI DUP1 PUSH1 0x1F LT PUSH2 0x2E00 JUMPI PUSH2 0x100 DUP1 DUP4 SLOAD DIV MUL DUP4 MSTORE SWAP2 PUSH1 0x20 ADD SWAP2 PUSH2 0x2E2B JUMP JUMPDEST DUP3 ADD SWAP2 SWAP1 PUSH1 0x0 MSTORE PUSH1 0x20 PUSH1 0x0 KECCAK256 SWAP1 JUMPDEST DUP2 SLOAD DUP2 MSTORE SWAP1 PUSH1 0x1 ADD SWAP1 PUSH1 0x20 ADD DUP1 DUP4 GT PUSH2 0x2E0E JUMPI DUP3 SWAP1 SUB PUSH1 0x1F AND DUP3 ADD SWAP2 JUMPDEST POP POP POP POP POP DUP2 MSTORE PUSH1 0x20 ADD PUSH1 0x2 DUP3 ADD DUP1 SLOAD PUSH2 0x2E44 SWAP1 PUSH2 0x47C7 JUMP JUMPDEST DUP1 PUSH1 0x1F ADD PUSH1 0x20 DUP1 SWAP2 DIV MUL PUSH1 0x20 ADD PUSH1 0x40 MLOAD SWAP1 DUP2 ADD PUSH1 0x40 MSTORE DUP1 SWAP3 SWAP2 SWAP1 DUP2 DUP2 MSTORE PUSH1 0x20 ADD DUP3 DUP1 SLOAD PUSH2 0x2E70 SWAP1 PUSH2 0x47C7 JUMP JUMPDEST DUP1 ISZERO PUSH2 0x2EBD JUMPI DUP1 PUSH1 0x1F LT PUSH2 0x2E92 JUMPI PUSH2 0x100 DUP1 DUP4 SLOAD DIV MUL DUP4 MSTORE SWAP2 PUSH1 0x20 ADD SWAP2 PUSH2 0x2EBD JUMP JUMPDEST DUP3 ADD SWAP2 SWAP1 PUSH1 0x0 MSTORE PUSH1 0x20 PUSH1 0x0 KECCAK256 SWAP1 JUMPDEST DUP2 SLOAD DUP2 MSTORE SWAP1 PUSH1 0x1 ADD SWAP1 PUSH1 0x20 ADD DUP1 DUP4 GT PUSH2 0x2EA0 JUMPI DUP3 SWAP1 SUB PUSH1 0x1F AND DUP3 ADD SWAP2 JUMPDEST POP POP POP POP POP DUP2 MSTORE PUSH1 0x20 ADD PUSH1 0x3 DUP3 ADD DUP1 SLOAD DUP1 PUSH1 0x20 MUL PUSH1 0x20 ADD PUSH1 0x40 MLOAD SWAP1 DUP2 ADD PUSH1 0x40 MSTORE DUP1 SWAP3 SWAP2 SWAP1 DUP2 DUP2 MSTORE PUSH1 0x20 ADD PUSH1 0x0 SWAP1 JUMPDEST DUP3 DUP3 LT ISZERO PUSH2 0x2F97 JUMPI DUP4 DUP3 SWAP1 PUSH1 0x0 MSTORE PUSH1 0x20 PUSH1 0x0 KECCAK256 ADD DUP1 SLOAD PUSH2 0x2F0A SWAP1 PUSH2 0x47C7 JUMP JUMPDEST DUP1 PUSH1 0x1F ADD PUSH1 0x20 DUP1 SWAP2 DIV MUL PUSH1 0x20 ADD PUSH1 0x40 MLOAD SWAP1 DUP2 ADD PUSH1 0x40 MSTORE DUP1 SWAP3 SWAP2 SWAP1 DUP2 DUP2 MSTORE PUSH1 0x20 ADD DUP3 DUP1 SLOAD PUSH2 0x2F36 SWAP1 PUSH2 0x47C7 JUMP JUMPDEST DUP1 ISZERO PUSH2 0x2F83 JUMPI DUP1 PUSH1 0x1F LT PUSH2 0x2F58 JUMPI PUSH2 0x100 DUP1 DUP4 SLOAD DIV MUL DUP4 MSTORE SWAP2 PUSH1 0x20 ADD SWAP2 PUSH2 0x2F83 JUMP JUMPDEST DUP3 ADD SWAP2 SWAP1 PUSH1 0x0 MSTORE PUSH1 0x20 PUSH1 0x0 KECCAK256 SWAP1 JUMPDEST DUP2 SLOAD DUP2 MSTORE SWAP1 PUSH1 0x1 ADD SWAP1 PUSH1 0x20 ADD DUP1 DUP4 GT PUSH2 0x2F66 JUMPI DUP3 SWAP1 SUB PUSH1 0x1F AND DUP3 ADD SWAP2 JUMPDEST POP POP POP POP POP DUP2 MSTORE PUSH1 0x20 ADD SWAP1 PUSH1 0x1 ADD SWAP1 PUSH2 0x2EEB JUMP JUMPDEST POP POP POP POP DUP2 MSTORE POP POP SWAP1 POP DUP1 PUSH1 0x20 ADD MLOAD SWAP6 POP PUSH1 0xA DUP1 SLOAD DUP1 PUSH1 0x20 MUL PUSH1 0x20 ADD PUSH1 0x40 MLOAD SWAP1 DUP2 ADD PUSH1 0x40 MSTORE DUP1 SWAP3 SWAP2 SWAP1 DUP2 DUP2 MSTORE PUSH1 0x20 ADD PUSH1 0x0 SWAP1 JUMPDEST DUP3 DUP3 LT ISZERO PUSH2 0x3191 JUMPI DUP4 DUP3 SWAP1 PUSH1 0x0 MSTORE PUSH1 0x20 PUSH1 0x0 KECCAK256 SWAP1 PUSH1 0x4 MUL ADD PUSH1 0x40 MLOAD DUP1 PUSH1 0x80 ADD PUSH1 0x40 MSTORE SWAP1 DUP2 PUSH1 0x0 DUP3 ADD PUSH1 0x0 SWAP1 SLOAD SWAP1 PUSH2 0x100 EXP SWAP1 DIV PUSH20 0xFFFFFFFFFFFFFFFFFFFFFFFFFFFFFFFFFFFFFFFF AND PUSH20 0xFFFFFFFFFFFFFFFFFFFFFFFFFFFFFFFFFFFFFFFF AND PUSH20 0xFFFFFFFFFFFFFFFFFFFFFFFFFFFFFFFFFFFFFFFF AND DUP2 MSTORE PUSH1 0x20 ADD PUSH1 0x1 DUP3 ADD DUP1 SLOAD PUSH2 0x3053 SWAP1 PUSH2 0x47C7 JUMP JUMPDEST DUP1 PUSH1 0x1F ADD PUSH1 0x20 DUP1 SWAP2 DIV MUL PUSH1 0x20 ADD PUSH1 0x40 MLOAD SWAP1 DUP2 ADD PUSH1 0x40 MSTORE DUP1 SWAP3 SWAP2 SWAP1 DUP2 DUP2 MSTORE PUSH1 0x20 ADD DUP3 DUP1 SLOAD PUSH2 0x307F SWAP1 PUSH2 0x47C7 JUMP JUMPDEST DUP1 ISZERO PUSH2 0x30CC JUMPI DUP1 PUSH1 0x1F LT PUSH2 0x30A1 JUMPI PUSH2 0x100 DUP1 DUP4 SLOAD DIV MUL DUP4 MSTORE SWAP2 PUSH1 0x20 ADD SWAP2 PUSH2 0x30CC JUMP JUMPDEST DUP3 ADD SWAP2 SWAP1 PUSH1 0x0 MSTORE PUSH1 0x20 PUSH1 0x0 KECCAK256 SWAP1 JUMPDEST DUP2 SLOAD DUP2 MSTORE SWAP1 PUSH1 0x1 ADD SWAP1 PUSH1 0x20 ADD DUP1 DUP4 GT PUSH2 0x30AF JUMPI DUP3 SWAP1 SUB PUSH1 0x1F AND DUP3 ADD SWAP2 JUMPDEST POP POP POP POP POP DUP2 MSTORE PUSH1 0x20 ADD PUSH1 0x2 DUP3 ADD DUP1 SLOAD PUSH2 0x30E5 SWAP1 PUSH2 0x47C7 JUMP JUMPDEST DUP1 PUSH1 0x1F ADD PUSH1 0x20 DUP1 SWAP2 DIV MUL PUSH1 0x20 ADD PUSH1 0x40 MLOAD SWAP1 DUP2 ADD PUSH1 0x40 MSTORE DUP1 SWAP3 SWAP2 SWAP1 DUP2 DUP2 MSTORE PUSH1 0x20 ADD DUP3 DUP1 SLOAD PUSH2 0x3111 SWAP1 PUSH2 0x47C7 JUMP JUMPDEST DUP1 ISZERO PUSH2 0x315E JUMPI DUP1 PUSH1 0x1F LT PUSH2 0x3133 JUMPI PUSH2 0x100 DUP1 DUP4 SLOAD DIV MUL DUP4 MSTORE SWAP2 PUSH1 0x20 ADD SWAP2 PUSH2 0x315E JUMP JUMPDEST DUP3 ADD SWAP2 SWAP1 PUSH1 0x0 MSTORE PUSH1 0x20 PUSH1 0x0 KECCAK256 SWAP1 JUMPDEST DUP2 SLOAD DUP2 MSTORE SWAP1 PUSH1 0x1 ADD SWAP1 PUSH1 0x20 ADD DUP1 DUP4 GT PUSH2 0x3141 JUMPI DUP3 SWAP1 SUB PUSH1 0x1F AND DUP3 ADD SWAP2 JUMPDEST POP POP POP POP POP DUP2 MSTORE PUSH1 0x20 ADD PUSH1 0x3 DUP3 ADD PUSH1 0x0 SWAP1 SLOAD SWAP1 PUSH2 0x100 EXP SWAP1 DIV PUSH1 0xFF AND ISZERO ISZERO ISZERO ISZERO DUP2 MSTORE POP POP DUP2 MSTORE PUSH1 0x20 ADD SWAP1 PUSH1 0x1 ADD SWAP1 PUSH2 0x2FCA JUMP JUMPDEST POP POP POP POP SWAP5 POP PUSH1 0x6 DUP1 SLOAD DUP1 PUSH1 0x20 MUL PUSH1 0x20 ADD PUSH1 0x40 MLOAD SWAP1 DUP2 ADD PUSH1 0x40 MSTORE DUP1 SWAP3 SWAP2 SWAP1 DUP2 DUP2 MSTORE PUSH1 0x20 ADD PUSH1 0x0 SWAP1 JUMPDEST DUP3 DUP3 LT ISZERO PUSH2 0x3265 JUMPI DUP4 DUP3 SWAP1 PUSH1 0x0 MSTORE PUSH1 0x20 PUSH1 0x0 KECCAK256 ADD DUP1 SLOAD PUSH2 0x31D8 SWAP1 PUSH2 0x47C7 JUMP JUMPDEST DUP1 PUSH1 0x1F ADD PUSH1 0x20 DUP1 SWAP2 DIV MUL PUSH1 0x20 ADD PUSH1 0x40 MLOAD SWAP1 DUP2 ADD PUSH1 0x40 MSTORE DUP1 SWAP3 SWAP2 SWAP1 DUP2 DUP2 MSTORE PUSH1 0x20 ADD DUP3 DUP1 SLOAD PUSH2 0x3204 SWAP1 PUSH2 0x47C7 JUMP JUMPDEST DUP1 ISZERO PUSH2 0x3251 JUMPI DUP1 PUSH1 0x1F LT PUSH2 0x3226 JUMPI PUSH2 0x100 DUP1 DUP4 SLOAD DIV MUL DUP4 MSTORE SWAP2 PUSH1 0x20 ADD SWAP2 PUSH2 0x3251 JUMP JUMPDEST DUP3 ADD SWAP2 SWAP1 PUSH1 0x0 MSTORE PUSH1 0x20 PUSH1 0x0 KECCAK256 SWAP1 JUMPDEST DUP2 SLOAD DUP2 MSTORE SWAP1 PUSH1 0x1 ADD SWAP1 PUSH1 0x20 ADD DUP1 DUP4 GT PUSH2 0x3234 JUMPI DUP3 SWAP1 SUB PUSH1 0x1F AND DUP3 ADD SWAP2 JUMPDEST POP POP POP POP POP DUP2 MSTORE PUSH1 0x20 ADD SWAP1 PUSH1 0x1 ADD SWAP1 PUSH2 0x31B9 JUMP JUMPDEST POP POP POP POP SWAP4 POP PUSH1 0x8 DUP1 SLOAD DUP1 PUSH1 0x20 MUL PUSH1 0x20 ADD PUSH1 0x40 MLOAD SWAP1 DUP2 ADD PUSH1 0x40 MSTORE DUP1 SWAP3 SWAP2 SWAP1 DUP2 DUP2 MSTORE PUSH1 0x20 ADD DUP3 DUP1 SLOAD DUP1 ISZERO PUSH2 0x32ED JUMPI PUSH1 0x20 MUL DUP3 ADD SWAP2 SWAP1 PUSH1 0x0 MSTORE PUSH1 0x20 PUSH1 0x0 KECCAK256 SWAP1 JUMPDEST DUP2 PUSH1 0x0 SWAP1 SLOAD SWAP1 PUSH2 0x100 EXP SWAP1 DIV PUSH20 0xFFFFFFFFFFFFFFFFFFFFFFFFFFFFFFFFFFFFFFFF AND PUSH20 0xFFFFFFFFFFFFFFFFFFFFFFFFFFFFFFFFFFFFFFFF AND DUP2 MSTORE PUSH1 0x20 ADD SWAP1 PUSH1 0x1 ADD SWAP1 DUP1 DUP4 GT PUSH2 0x32A3 JUMPI JUMPDEST POP POP POP POP POP SWAP3 POP POP POP SWAP1 SWAP2 SWAP3 SWAP4 JUMP JUMPDEST PUSH1 0x3 PUSH1 0x2 PUSH1 0x0 CALLER PUSH20 0xFFFFFFFFFFFFFFFFFFFFFFFFFFFFFFFFFFFFFFFF AND PUSH20 0xFFFFFFFFFFFFFFFFFFFFFFFFFFFFFFFFFFFFFFFF AND DUP2 MSTORE PUSH1 0x20 ADD SWAP1 DUP2 MSTORE PUSH1 0x20 ADD PUSH1 0x0 KECCAK256 PUSH1 0x0 ADD SLOAD DUP2 PUSH1 0x5 DUP2 GT ISZERO PUSH2 0x3354 JUMPI PUSH2 0x3353 PUSH2 0x482A JUMP JUMPDEST JUMPDEST EQ PUSH2 0x3394 JUMPI PUSH1 0x40 MLOAD PUSH32 0x8C379A000000000000000000000000000000000000000000000000000000000 DUP2 MSTORE PUSH1 0x4 ADD PUSH2 0x338B SWAP1 PUSH2 0x4548 JUMP JUMPDEST PUSH1 0x40 MLOAD DUP1 SWAP2 SUB SWAP1 REVERT JUMPDEST POP POP JUMP JUMPDEST PUSH1 0x5 PUSH1 0x0 SWAP1 SLOAD SWAP1 PUSH2 0x100 EXP SWAP1 DIV PUSH20 0xFFFFFFFFFFFFFFFFFFFFFFFFFFFFFFFFFFFFFFFF AND PUSH20 0xFFFFFFFFFFFFFFFFFFFFFFFFFFFFFFFFFFFFFFFF AND CALLER PUSH20 0xFFFFFFFFFFFFFFFFFFFFFFFFFFFFFFFFFFFFFFFF AND EQ PUSH2 0x3428 JUMPI PUSH1 0x40 MLOAD PUSH32 0x8C379A000000000000000000000000000000000000000000000000000000000 DUP2 MSTORE PUSH1 0x4 ADD PUSH2 0x341F SWAP1 PUSH2 0x4588 JUMP JUMPDEST PUSH1 0x40 MLOAD DUP1 SWAP2 SUB SWAP1 REVERT JUMPDEST PUSH1 0x0 PUSH1 0x3 PUSH1 0x5 DUP2 GT ISZERO PUSH2 0x343E JUMPI PUSH2 0x343D PUSH2 0x482A JUMP JUMPDEST JUMPDEST SWAP1 POP PUSH2 0x344C DUP4 DUP4 DUP4 CALLER PUSH2 0x348D JUMP JUMPDEST PUSH1 0x6 DUP3 SWAP1 DUP1 PUSH1 0x1 DUP2 SLOAD ADD DUP1 DUP3 SSTORE DUP1 SWAP2 POP POP PUSH1 0x1 SWAP1 SUB SWAP1 PUSH1 0x0 MSTORE PUSH1 0x20 PUSH1 0x0 KECCAK256 ADD PUSH1 0x0 SWAP1 SWAP2 SWAP1 SWAP2 SWAP1 SWAP2 POP SWAP1 DUP1 MLOAD SWAP1 PUSH1 0x20 ADD SWAP1 PUSH2 0x3487 SWAP3 SWAP2 SWAP1 PUSH2 0x37EA JUMP JUMPDEST POP POP POP POP JUMP JUMPDEST DUP1 DUP4 PUSH2 0x3572 PUSH1 0x2 PUSH1 0x0 DUP5 PUSH20 0xFFFFFFFFFFFFFFFFFFFFFFFFFFFFFFFFFFFFFFFF AND PUSH20 0xFFFFFFFFFFFFFFFFFFFFFFFFFFFFFFFFFFFFFFFF AND DUP2 MSTORE PUSH1 0x20 ADD SWAP1 DUP2 MSTORE PUSH1 0x20 ADD PUSH1 0x0 KECCAK256 PUSH1 0x2 ADD DUP1 SLOAD PUSH2 0x34DF SWAP1 PUSH2 0x47C7 JUMP JUMPDEST DUP1 PUSH1 0x1F ADD PUSH1 0x20 DUP1 SWAP2 DIV MUL PUSH1 0x20 ADD PUSH1 0x40 MLOAD SWAP1 DUP2 ADD PUSH1 0x40 MSTORE DUP1 SWAP3 SWAP2 SWAP1 DUP2 DUP2 MSTORE PUSH1 0x20 ADD DUP3 DUP1 SLOAD PUSH2 0x350B SWAP1 PUSH2 0x47C7 JUMP JUMPDEST DUP1 ISZERO PUSH2 0x3558 JUMPI DUP1 PUSH1 0x1F LT PUSH2 0x352D JUMPI PUSH2 0x100 DUP1 DUP4 SLOAD DIV MUL DUP4 MSTORE SWAP2 PUSH1 0x20 ADD SWAP2 PUSH2 0x3558 JUMP JUMPDEST DUP3 ADD SWAP2 SWAP1 PUSH1 0x0 MSTORE PUSH1 0x20 PUSH1 0x0 KECCAK256 SWAP1 JUMPDEST DUP2 SLOAD DUP2 MSTORE SWAP1 PUSH1 0x1 ADD SWAP1 PUSH1 0x20 ADD DUP1 DUP4 GT PUSH2 0x353B JUMPI DUP3 SWAP1 SUB PUSH1 0x1F AND DUP3 ADD SWAP2 JUMPDEST POP POP POP POP POP PUSH1 0x40 MLOAD DUP1 PUSH1 0x20 ADD PUSH1 0x40 MSTORE DUP1 PUSH1 0x0 DUP2 MSTORE POP PUSH2 0x3791 JUMP JUMPDEST ISZERO PUSH2 0x35B2 JUMPI PUSH1 0x40 MLOAD PUSH32 0x8C379A000000000000000000000000000000000000000000000000000000000 DUP2 MSTORE PUSH1 0x4 ADD PUSH2 0x35A9 SWAP1 PUSH2 0x45A8 JUMP JUMPDEST PUSH1 0x40 MLOAD DUP1 SWAP2 SUB SWAP1 REVERT JUMPDEST PUSH1 0x0 PUSH20 0xFFFFFFFFFFFFFFFFFFFFFFFFFFFFFFFFFFFFFFFF AND PUSH1 0x1 DUP3 PUSH1 0x40 MLOAD PUSH2 0x35DA SWAP2 SWAP1 PUSH2 0x4308 JUMP JUMPDEST SWAP1 DUP2 MSTORE PUSH1 0x20 ADD PUSH1 0x40 MLOAD DUP1 SWAP2 SUB SWAP1 KECCAK256 PUSH1 0x0 SWAP1 SLOAD SWAP1 PUSH2 0x100 EXP SWAP1 DIV PUSH20 0xFFFFFFFFFFFFFFFFFFFFFFFFFFFFFFFFFFFFFFFF AND PUSH20 0xFFFFFFFFFFFFFFFFFFFFFFFFFFFFFFFFFFFFFFFF AND EQ PUSH2 0x365F JUMPI PUSH1 0x40 MLOAD PUSH32 0x8C379A000000000000000000000000000000000000000000000000000000000 DUP2 MSTORE PUSH1 0x4 ADD PUSH2 0x3656 SWAP1 PUSH2 0x4508 JUMP JUMPDEST PUSH1 0x40 MLOAD DUP1 SWAP2 SUB SWAP1 REVERT JUMPDEST PUSH1 0x60 PUSH1 0x0 PUSH1 0x40 MLOAD DUP1 PUSH1 0x80 ADD PUSH1 0x40 MSTORE DUP1 DUP8 DUP2 MSTORE PUSH1 0x20 ADD DUP9 DUP2 MSTORE PUSH1 0x20 ADD DUP10 DUP2 MSTORE PUSH1 0x20 ADD DUP4 DUP2 MSTORE POP SWAP1 POP DUP5 PUSH1 0x1 DUP9 PUSH1 0x40 MLOAD PUSH2 0x3697 SWAP2 SWAP1 PUSH2 0x4308 JUMP JUMPDEST SWAP1 DUP2 MSTORE PUSH1 0x20 ADD PUSH1 0x40 MLOAD DUP1 SWAP2 SUB SWAP1 KECCAK256 PUSH1 0x0 PUSH2 0x100 EXP DUP2 SLOAD DUP2 PUSH20 0xFFFFFFFFFFFFFFFFFFFFFFFFFFFFFFFFFFFFFFFF MUL NOT AND SWAP1 DUP4 PUSH20 0xFFFFFFFFFFFFFFFFFFFFFFFFFFFFFFFFFFFFFFFF AND MUL OR SWAP1 SSTORE POP DUP1 PUSH1 0x2 PUSH1 0x0 DUP8 PUSH20 0xFFFFFFFFFFFFFFFFFFFFFFFFFFFFFFFFFFFFFFFF AND PUSH20 0xFFFFFFFFFFFFFFFFFFFFFFFFFFFFFFFFFFFFFFFF AND DUP2 MSTORE PUSH1 0x20 ADD SWAP1 DUP2 MSTORE PUSH1 0x20 ADD PUSH1 0x0 KECCAK256 PUSH1 0x0 DUP3 ADD MLOAD DUP2 PUSH1 0x0 ADD SSTORE PUSH1 0x20 DUP3 ADD MLOAD DUP2 PUSH1 0x1 ADD SWAP1 DUP1 MLOAD SWAP1 PUSH1 0x20 ADD SWAP1 PUSH2 0x3749 SWAP3 SWAP2 SWAP1 PUSH2 0x37EA JUMP JUMPDEST POP PUSH1 0x40 DUP3 ADD MLOAD DUP2 PUSH1 0x2 ADD SWAP1 DUP1 MLOAD SWAP1 PUSH1 0x20 ADD SWAP1 PUSH2 0x3766 SWAP3 SWAP2 SWAP1 PUSH2 0x37EA JUMP JUMPDEST POP PUSH1 0x60 DUP3 ADD MLOAD DUP2 PUSH1 0x3 ADD SWAP1 DUP1 MLOAD SWAP1 PUSH1 0x20 ADD SWAP1 PUSH2 0x3783 SWAP3 SWAP2 SWAP1 PUSH2 0x38FA JUMP JUMPDEST POP SWAP1 POP POP POP POP POP POP POP POP POP POP JUMP JUMPDEST PUSH1 0x0 DUP2 PUSH1 0x40 MLOAD PUSH1 0x20 ADD PUSH2 0x37A4 SWAP2 SWAP1 PUSH2 0x4308 JUMP JUMPDEST PUSH1 0x40 MLOAD PUSH1 0x20 DUP2 DUP4 SUB SUB DUP2 MSTORE SWAP1 PUSH1 0x40 MSTORE DUP1 MLOAD SWAP1 PUSH1 0x20 ADD KECCAK256 DUP4 PUSH1 0x40 MLOAD PUSH1 0x20 ADD PUSH2 0x37CB SWAP2 SWAP1 PUSH2 0x4308 JUMP JUMPDEST PUSH1 0x40 MLOAD PUSH1 0x20 DUP2 DUP4 SUB SUB DUP2 MSTORE SWAP1 PUSH1 0x40 MSTORE DUP1 MLOAD SWAP1 PUSH1 0x20 ADD KECCAK256 EQ SWAP1 POP SWAP3 SWAP2 POP POP JUMP JUMPDEST DUP3 DUP1 SLOAD PUSH2 0x37F6 SWAP1 PUSH2 0x47C7 JUMP JUMPDEST SWAP1 PUSH1 0x0 MSTORE PUSH1 0x20 PUSH1 0x0 KECCAK256 SWAP1 PUSH1 0x1F ADD PUSH1 0x20 SWAP1 DIV DUP2 ADD SWAP3 DUP3 PUSH2 0x3818 JUMPI PUSH1 0x0 DUP6 SSTORE PUSH2 0x385F JUMP JUMPDEST DUP3 PUSH1 0x1F LT PUSH2 0x3831 JUMPI DUP1 MLOAD PUSH1 0xFF NOT AND DUP4 DUP1 ADD OR DUP6 SSTORE PUSH2 0x385F JUMP JUMPDEST DUP3 DUP1 ADD PUSH1 0x1 ADD DUP6 SSTORE DUP3 ISZERO PUSH2 0x385F JUMPI SWAP2 DUP3 ADD JUMPDEST DUP3 DUP2 GT ISZERO PUSH2 0x385E JUMPI DUP3 MLOAD DUP3 SSTORE SWAP2 PUSH1 0x20 ADD SWAP2 SWAP1 PUSH1 0x1 ADD SWAP1 PUSH2 0x3843 JUMP JUMPDEST JUMPDEST POP SWAP1 POP PUSH2 0x386C SWAP2 SWAP1 PUSH2 0x395A JUMP JUMPDEST POP SWAP1 JUMP JUMPDEST DUP3 DUP1 SLOAD DUP3 DUP3 SSTORE SWAP1 PUSH1 0x0 MSTORE PUSH1 0x20 PUSH1 0x0 KECCAK256 SWAP1 DUP2 ADD SWAP3 DUP3 ISZERO PUSH2 0x38E9 JUMPI SWAP2 PUSH1 0x20 MUL DUP3 ADD JUMPDEST DUP3 DUP2 GT ISZERO PUSH2 0x38E8 JUMPI DUP3 MLOAD DUP3 PUSH1 0x0 PUSH2 0x100 EXP DUP2 SLOAD DUP2 PUSH20 0xFFFFFFFFFFFFFFFFFFFFFFFFFFFFFFFFFFFFFFFF MUL NOT AND SWAP1 DUP4 PUSH20 0xFFFFFFFFFFFFFFFFFFFFFFFFFFFFFFFFFFFFFFFF AND MUL OR SWAP1 SSTORE POP SWAP2 PUSH1 0x20 ADD SWAP2 SWAP1 PUSH1 0x1 ADD SWAP1 PUSH2 0x3890 JUMP JUMPDEST JUMPDEST POP SWAP1 POP PUSH2 0x38F6 SWAP2 SWAP1 PUSH2 0x395A JUMP JUMPDEST POP SWAP1 JUMP JUMPDEST DUP3 DUP1 SLOAD DUP3 DUP3 SSTORE SWAP1 PUSH1 0x0 MSTORE PUSH1 0x20 PUSH1 0x0 KECCAK256 SWAP1 DUP2 ADD SWAP3 DUP3 ISZERO PUSH2 0x3949 JUMPI SWAP2 PUSH1 0x20 MUL DUP3 ADD JUMPDEST DUP3 DUP2 GT ISZERO PUSH2 0x3948 JUMPI DUP3 MLOAD DUP3 SWAP1 DUP1 MLOAD SWAP1 PUSH1 0x20 ADD SWAP1 PUSH2 0x3938 SWAP3 SWAP2 SWAP1 PUSH2 0x37EA JUMP JUMPDEST POP SWAP2 PUSH1 0x20 ADD SWAP2 SWAP1 PUSH1 0x1 ADD SWAP1 PUSH2 0x391A JUMP JUMPDEST JUMPDEST POP SWAP1 POP PUSH2 0x3956 SWAP2 SWAP1 PUSH2 0x3977 JUMP JUMPDEST POP SWAP1 JUMP JUMPDEST JUMPDEST DUP1 DUP3 GT ISZERO PUSH2 0x3973 JUMPI PUSH1 0x0 DUP2 PUSH1 0x0 SWAP1 SSTORE POP PUSH1 0x1 ADD PUSH2 0x395B JUMP JUMPDEST POP SWAP1 JUMP JUMPDEST JUMPDEST DUP1 DUP3 GT ISZERO PUSH2 0x3997 JUMPI PUSH1 0x0 DUP2 DUP2 PUSH2 0x398E SWAP2 SWAP1 PUSH2 0x399B JUMP JUMPDEST POP PUSH1 0x1 ADD PUSH2 0x3978 JUMP JUMPDEST POP SWAP1 JUMP JUMPDEST POP DUP1 SLOAD PUSH2 0x39A7 SWAP1 PUSH2 0x47C7 JUMP JUMPDEST PUSH1 0x0 DUP3 SSTORE DUP1 PUSH1 0x1F LT PUSH2 0x39B9 JUMPI POP PUSH2 0x39D8 JUMP JUMPDEST PUSH1 0x1F ADD PUSH1 0x20 SWAP1 DIV SWAP1 PUSH1 0x0 MSTORE PUSH1 0x20 PUSH1 0x0 KECCAK256 SWAP1 DUP2 ADD SWAP1 PUSH2 0x39D7 SWAP2 SWAP1 PUSH2 0x395A JUMP JUMPDEST JUMPDEST POP JUMP JUMPDEST PUSH1 0x0 PUSH2 0x39EE PUSH2 0x39E9 DUP5 PUSH2 0x460D JUMP JUMPDEST PUSH2 0x45E8 JUMP JUMPDEST SWAP1 POP DUP3 DUP2 MSTORE PUSH1 0x20 DUP2 ADD DUP5 DUP5 DUP5 ADD GT ISZERO PUSH2 0x3A0A JUMPI PUSH2 0x3A09 PUSH2 0x48BC JUMP JUMPDEST JUMPDEST PUSH2 0x3A15 DUP5 DUP3 DUP6 PUSH2 0x4785 JUMP JUMPDEST POP SWAP4 SWAP3 POP POP POP JUMP JUMPDEST PUSH1 0x0 DUP2 CALLDATALOAD SWAP1 POP PUSH2 0x3A2C DUP2 PUSH2 0x4A4A JUMP JUMPDEST SWAP3 SWAP2 POP POP JUMP JUMPDEST PUSH1 0x0 DUP2 CALLDATALOAD SWAP1 POP PUSH2 0x3A41 DUP2 PUSH2 0x4A61 JUMP JUMPDEST SWAP3 SWAP2 POP POP JUMP JUMPDEST PUSH1 0x0 DUP2 CALLDATALOAD SWAP1 POP PUSH2 0x3A56 DUP2 PUSH2 0x4A78 JUMP JUMPDEST SWAP3 SWAP2 POP POP JUMP JUMPDEST PUSH1 0x0 DUP3 PUSH1 0x1F DUP4 ADD SLT PUSH2 0x3A71 JUMPI PUSH2 0x3A70 PUSH2 0x48B7 JUMP JUMPDEST JUMPDEST DUP2 CALLDATALOAD PUSH2 0x3A81 DUP5 DUP3 PUSH1 0x20 DUP7 ADD PUSH2 0x39DB JUMP JUMPDEST SWAP2 POP POP SWAP3 SWAP2 POP POP JUMP JUMPDEST PUSH1 0x0 PUSH1 0x20 DUP3 DUP5 SUB SLT ISZERO PUSH2 0x3AA0 JUMPI PUSH2 0x3A9F PUSH2 0x48C6 JUMP JUMPDEST JUMPDEST PUSH1 0x0 PUSH2 0x3AAE DUP5 DUP3 DUP6 ADD PUSH2 0x3A1D JUMP JUMPDEST SWAP2 POP POP SWAP3 SWAP2 POP POP JUMP JUMPDEST PUSH1 0x0 PUSH1 0x20 DUP3 DUP5 SUB SLT ISZERO PUSH2 0x3ACD JUMPI PUSH2 0x3ACC PUSH2 0x48C6 JUMP JUMPDEST JUMPDEST PUSH1 0x0 PUSH2 0x3ADB DUP5 DUP3 DUP6 ADD PUSH2 0x3A32 JUMP JUMPDEST SWAP2 POP POP SWAP3 SWAP2 POP POP JUMP JUMPDEST PUSH1 0x0 DUP1 PUSH1 0x0 PUSH1 0x60 DUP5 DUP7 SUB SLT ISZERO PUSH2 0x3AFD JUMPI PUSH2 0x3AFC PUSH2 0x48C6 JUMP JUMPDEST JUMPDEST PUSH1 0x0 PUSH2 0x3B0B DUP7 DUP3 DUP8 ADD PUSH2 0x3A1D JUMP JUMPDEST SWAP4 POP POP PUSH1 0x20 DUP5 ADD CALLDATALOAD PUSH8 0xFFFFFFFFFFFFFFFF DUP2 GT ISZERO PUSH2 0x3B2C JUMPI PUSH2 0x3B2B PUSH2 0x48C1 JUMP JUMPDEST JUMPDEST PUSH2 0x3B38 DUP7 DUP3 DUP8 ADD PUSH2 0x3A5C JUMP JUMPDEST SWAP3 POP POP PUSH1 0x40 DUP5 ADD CALLDATALOAD PUSH8 0xFFFFFFFFFFFFFFFF DUP2 GT ISZERO PUSH2 0x3B59 JUMPI PUSH2 0x3B58 PUSH2 0x48C1 JUMP JUMPDEST JUMPDEST PUSH2 0x3B65 DUP7 DUP3 DUP8 ADD PUSH2 0x3A5C JUMP JUMPDEST SWAP2 POP POP SWAP3 POP SWAP3 POP SWAP3 JUMP JUMPDEST PUSH1 0x0 DUP1 PUSH1 0x0 DUP1 PUSH1 0x80 DUP6 DUP8 SUB SLT ISZERO PUSH2 0x3B89 JUMPI PUSH2 0x3B88 PUSH2 0x48C6 JUMP JUMPDEST JUMPDEST PUSH1 0x0 PUSH2 0x3B97 DUP8 DUP3 DUP9 ADD PUSH2 0x3A1D JUMP JUMPDEST SWAP5 POP POP PUSH1 0x20 DUP6 ADD CALLDATALOAD PUSH8 0xFFFFFFFFFFFFFFFF DUP2 GT ISZERO PUSH2 0x3BB8 JUMPI PUSH2 0x3BB7 PUSH2 0x48C1 JUMP JUMPDEST JUMPDEST PUSH2 0x3BC4 DUP8 DUP3 DUP9 ADD PUSH2 0x3A5C JUMP JUMPDEST SWAP4 POP POP PUSH1 0x40 DUP6 ADD CALLDATALOAD PUSH8 0xFFFFFFFFFFFFFFFF DUP2 GT ISZERO PUSH2 0x3BE5 JUMPI PUSH2 0x3BE4 PUSH2 0x48C1 JUMP JUMPDEST JUMPDEST PUSH2 0x3BF1 DUP8 DUP3 DUP9 ADD PUSH2 0x3A5C JUMP JUMPDEST SWAP3 POP POP PUSH1 0x60 PUSH2 0x3C02 DUP8 DUP3 DUP9 ADD PUSH2 0x3A47 JUMP JUMPDEST SWAP2 POP POP SWAP3 SWAP6 SWAP2 SWAP5 POP SWAP3 POP JUMP JUMPDEST PUSH1 0x0 DUP1 PUSH1 0x0 DUP1 PUSH1 0x80 DUP6 DUP8 SUB SLT ISZERO PUSH2 0x3C28 JUMPI PUSH2 0x3C27 PUSH2 0x48C6 JUMP JUMPDEST JUMPDEST PUSH1 0x0 PUSH2 0x3C36 DUP8 DUP3 DUP9 ADD PUSH2 0x3A1D JUMP JUMPDEST SWAP5 POP POP PUSH1 0x20 DUP6 ADD CALLDATALOAD PUSH8 0xFFFFFFFFFFFFFFFF DUP2 GT ISZERO PUSH2 0x3C57 JUMPI PUSH2 0x3C56 PUSH2 0x48C1 JUMP JUMPDEST JUMPDEST PUSH2 0x3C63 DUP8 DUP3 DUP9 ADD PUSH2 0x3A5C JUMP JUMPDEST SWAP4 POP POP PUSH1 0x40 DUP6 ADD CALLDATALOAD PUSH8 0xFFFFFFFFFFFFFFFF DUP2 GT ISZERO PUSH2 0x3C84 JUMPI PUSH2 0x3C83 PUSH2 0x48C1 JUMP JUMPDEST JUMPDEST PUSH2 0x3C90 DUP8 DUP3 DUP9 ADD PUSH2 0x3A5C JUMP JUMPDEST SWAP3 POP POP PUSH1 0x60 DUP6 ADD CALLDATALOAD PUSH8 0xFFFFFFFFFFFFFFFF DUP2 GT ISZERO PUSH2 0x3CB1 JUMPI PUSH2 0x3CB0 PUSH2 0x48C1 JUMP JUMPDEST JUMPDEST PUSH2 0x3CBD DUP8 DUP3 DUP9 ADD PUSH2 0x3A5C JUMP JUMPDEST SWAP2 POP POP SWAP3 SWAP6 SWAP2 SWAP5 POP SWAP3 POP JUMP JUMPDEST PUSH1 0x0 PUSH1 0x20 DUP3 DUP5 SUB SLT ISZERO PUSH2 0x3CDF JUMPI PUSH2 0x3CDE PUSH2 0x48C6 JUMP JUMPDEST JUMPDEST PUSH1 0x0 DUP3 ADD CALLDATALOAD PUSH8 0xFFFFFFFFFFFFFFFF DUP2 GT ISZERO PUSH2 0x3CFD JUMPI PUSH2 0x3CFC PUSH2 0x48C1 JUMP JUMPDEST JUMPDEST PUSH2 0x3D09 DUP5 DUP3 DUP6 ADD PUSH2 0x3A5C JUMP JUMPDEST SWAP2 POP POP SWAP3 SWAP2 POP POP JUMP JUMPDEST PUSH1 0x0 DUP1 PUSH1 0x40 DUP4 DUP6 SUB SLT ISZERO PUSH2 0x3D29 JUMPI PUSH2 0x3D28 PUSH2 0x48C6 JUMP JUMPDEST JUMPDEST PUSH1 0x0 DUP4 ADD CALLDATALOAD PUSH8 0xFFFFFFFFFFFFFFFF DUP2 GT ISZERO PUSH2 0x3D47 JUMPI PUSH2 0x3D46 PUSH2 0x48C1 JUMP JUMPDEST JUMPDEST PUSH2 0x3D53 DUP6 DUP3 DUP7 ADD PUSH2 0x3A5C JUMP JUMPDEST SWAP3 POP POP PUSH1 0x20 PUSH2 0x3D64 DUP6 DUP3 DUP7 ADD PUSH2 0x3A1D JUMP JUMPDEST SWAP2 POP POP SWAP3 POP SWAP3 SWAP1 POP JUMP JUMPDEST PUSH1 0x0 DUP1 PUSH1 0x40 DUP4 DUP6 SUB SLT ISZERO PUSH2 0x3D85 JUMPI PUSH2 0x3D84 PUSH2 0x48C6 JUMP JUMPDEST JUMPDEST PUSH1 0x0 DUP4 ADD CALLDATALOAD PUSH8 0xFFFFFFFFFFFFFFFF DUP2 GT ISZERO PUSH2 0x3DA3 JUMPI PUSH2 0x3DA2 PUSH2 0x48C1 JUMP JUMPDEST JUMPDEST PUSH2 0x3DAF DUP6 DUP3 DUP7 ADD PUSH2 0x3A5C JUMP JUMPDEST SWAP3 POP POP PUSH1 0x20 DUP4 ADD CALLDATALOAD PUSH8 0xFFFFFFFFFFFFFFFF DUP2 GT ISZERO PUSH2 0x3DD0 JUMPI PUSH2 0x3DCF PUSH2 0x48C1 JUMP JUMPDEST JUMPDEST PUSH2 0x3DDC DUP6 DUP3 DUP7 ADD PUSH2 0x3A5C JUMP JUMPDEST SWAP2 POP POP SWAP3 POP SWAP3 SWAP1 POP JUMP JUMPDEST PUSH1 0x0 DUP1 PUSH1 0x0 PUSH1 0x60 DUP5 DUP7 SUB SLT ISZERO PUSH2 0x3DFF JUMPI PUSH2 0x3DFE PUSH2 0x48C6 JUMP JUMPDEST JUMPDEST PUSH1 0x0 DUP5 ADD CALLDATALOAD PUSH8 0xFFFFFFFFFFFFFFFF DUP2 GT ISZERO PUSH2 0x3E1D JUMPI PUSH2 0x3E1C PUSH2 0x48C1 JUMP JUMPDEST JUMPDEST PUSH2 0x3E29 DUP7 DUP3 DUP8 ADD PUSH2 0x3A5C JUMP JUMPDEST SWAP4 POP POP PUSH1 0x20 DUP5 ADD CALLDATALOAD PUSH8 0xFFFFFFFFFFFFFFFF DUP2 GT ISZERO PUSH2 0x3E4A JUMPI PUSH2 0x3E49 PUSH2 0x48C1 JUMP JUMPDEST JUMPDEST PUSH2 0x3E56 DUP7 DUP3 DUP8 ADD PUSH2 0x3A5C JUMP JUMPDEST SWAP3 POP POP PUSH1 0x40 PUSH2 0x3E67 DUP7 DUP3 DUP8 ADD PUSH2 0x3A1D JUMP JUMPDEST SWAP2 POP POP SWAP3 POP SWAP3 POP SWAP3 JUMP JUMPDEST PUSH1 0x0 DUP1 PUSH1 0x0 DUP1 PUSH1 0x80 DUP6 DUP8 SUB SLT ISZERO PUSH2 0x3E8B JUMPI PUSH2 0x3E8A PUSH2 0x48C6 JUMP JUMPDEST JUMPDEST PUSH1 0x0 DUP6 ADD CALLDATALOAD PUSH8 0xFFFFFFFFFFFFFFFF DUP2 GT ISZERO PUSH2 0x3EA9 JUMPI PUSH2 0x3EA8 PUSH2 0x48C1 JUMP JUMPDEST JUMPDEST PUSH2 0x3EB5 DUP8 DUP3 DUP9 ADD PUSH2 0x3A5C JUMP JUMPDEST SWAP5 POP POP PUSH1 0x20 DUP6 ADD CALLDATALOAD PUSH8 0xFFFFFFFFFFFFFFFF DUP2 GT ISZERO PUSH2 0x3ED6 JUMPI PUSH2 0x3ED5 PUSH2 0x48C1 JUMP JUMPDEST JUMPDEST PUSH2 0x3EE2 DUP8 DUP3 DUP9 ADD PUSH2 0x3A5C JUMP JUMPDEST SWAP4 POP POP PUSH1 0x40 PUSH2 0x3EF3 DUP8 DUP3 DUP9 ADD PUSH2 0x3A1D JUMP JUMPDEST SWAP3 POP POP PUSH1 0x60 PUSH2 0x3F04 DUP8 DUP3 DUP9 ADD PUSH2 0x3A1D JUMP JUMPDEST SWAP2 POP POP SWAP3 SWAP6 SWAP2 SWAP5 POP SWAP3 POP JUMP JUMPDEST PUSH1 0x0 PUSH2 0x3F1C DUP4 DUP4 PUSH2 0x3F50 JUMP JUMPDEST PUSH1 0x20 DUP4 ADD SWAP1 POP SWAP3 SWAP2 POP POP JUMP JUMPDEST PUSH1 0x0 PUSH2 0x3F34 DUP4 DUP4 PUSH2 0x40D4 JUMP JUMPDEST SWAP1 POP SWAP3 SWAP2 POP POP JUMP JUMPDEST PUSH1 0x0 PUSH2 0x3F48 DUP4 DUP4 PUSH2 0x428F JUMP JUMPDEST SWAP1 POP SWAP3 SWAP2 POP POP JUMP JUMPDEST PUSH2 0x3F59 DUP2 PUSH2 0x4721 JUMP JUMPDEST DUP3 MSTORE POP POP JUMP JUMPDEST PUSH2 0x3F68 DUP2 PUSH2 0x4721 JUMP JUMPDEST DUP3 MSTORE POP POP JUMP JUMPDEST PUSH1 0x0 PUSH2 0x3F79 DUP3 PUSH2 0x466E JUMP JUMPDEST PUSH2 0x3F83 DUP2 DUP6 PUSH2 0x46C1 JUMP JUMPDEST SWAP4 POP PUSH2 0x3F8E DUP4 PUSH2 0x463E JUMP JUMPDEST DUP1 PUSH1 0x0 JUMPDEST DUP4 DUP2 LT ISZERO PUSH2 0x3FBF JUMPI DUP2 MLOAD PUSH2 0x3FA6 DUP9 DUP3 PUSH2 0x3F10 JUMP JUMPDEST SWAP8 POP PUSH2 0x3FB1 DUP4 PUSH2 0x469A JUMP JUMPDEST SWAP3 POP POP PUSH1 0x1 DUP2 ADD SWAP1 POP PUSH2 0x3F92 JUMP JUMPDEST POP DUP6 SWAP4 POP POP POP POP SWAP3 SWAP2 POP POP JUMP JUMPDEST PUSH1 0x0 PUSH2 0x3FD7 DUP3 PUSH2 0x4679 JUMP JUMPDEST PUSH2 0x3FE1 DUP2 DUP6 PUSH2 0x46D2 JUMP JUMPDEST SWAP4 POP DUP4 PUSH1 0x20 DUP3 MUL DUP6 ADD PUSH2 0x3FF3 DUP6 PUSH2 0x464E JUMP JUMPDEST DUP1 PUSH1 0x0 JUMPDEST DUP6 DUP2 LT ISZERO PUSH2 0x402F JUMPI DUP5 DUP5 SUB DUP10 MSTORE DUP2 MLOAD PUSH2 0x4010 DUP6 DUP3 PUSH2 0x3F28 JUMP JUMPDEST SWAP5 POP PUSH2 0x401B DUP4 PUSH2 0x46A7 JUMP JUMPDEST SWAP3 POP PUSH1 0x20 DUP11 ADD SWAP10 POP POP PUSH1 0x1 DUP2 ADD SWAP1 POP PUSH2 0x3FF7 JUMP JUMPDEST POP DUP3 SWAP8 POP DUP8 SWAP6 POP POP POP POP POP POP SWAP3 SWAP2 POP POP JUMP JUMPDEST PUSH1 0x0 PUSH2 0x404C DUP3 PUSH2 0x4684 JUMP JUMPDEST PUSH2 0x4056 DUP2 DUP6 PUSH2 0x46E3 JUMP JUMPDEST SWAP4 POP DUP4 PUSH1 0x20 DUP3 MUL DUP6 ADD PUSH2 0x4068 DUP6 PUSH2 0x465E JUMP JUMPDEST DUP1 PUSH1 0x0 JUMPDEST DUP6 DUP2 LT ISZERO PUSH2 0x40A4 JUMPI DUP5 DUP5 SUB DUP10 MSTORE DUP2 MLOAD PUSH2 0x4085 DUP6 DUP3 PUSH2 0x3F3C JUMP JUMPDEST SWAP5 POP PUSH2 0x4090 DUP4 PUSH2 0x46B4 JUMP JUMPDEST SWAP3 POP PUSH1 0x20 DUP11 ADD SWAP10 POP POP PUSH1 0x1 DUP2 ADD SWAP1 POP PUSH2 0x406C JUMP JUMPDEST POP DUP3 SWAP8 POP DUP8 SWAP6 POP POP POP POP POP POP SWAP3 SWAP2 POP POP JUMP JUMPDEST PUSH2 0x40BF DUP2 PUSH2 0x4745 JUMP JUMPDEST DUP3 MSTORE POP POP JUMP JUMPDEST PUSH2 0x40CE DUP2 PUSH2 0x4751 JUMP JUMPDEST DUP3 MSTORE POP POP JUMP JUMPDEST PUSH1 0x0 PUSH2 0x40DF DUP3 PUSH2 0x468F JUMP JUMPDEST PUSH2 0x40E9 DUP2 DUP6 PUSH2 0x46F4 JUMP JUMPDEST SWAP4 POP PUSH2 0x40F9 DUP2 DUP6 PUSH1 0x20 DUP7 ADD PUSH2 0x4794 JUMP JUMPDEST PUSH2 0x4102 DUP2 PUSH2 0x48CB JUMP JUMPDEST DUP5 ADD SWAP2 POP POP SWAP3 SWAP2 POP POP JUMP JUMPDEST PUSH1 0x0 PUSH2 0x4118 DUP3 PUSH2 0x468F JUMP JUMPDEST PUSH2 0x4122 DUP2 DUP6 PUSH2 0x4705 JUMP JUMPDEST SWAP4 POP PUSH2 0x4132 DUP2 DUP6 PUSH1 0x20 DUP7 ADD PUSH2 0x4794 JUMP JUMPDEST PUSH2 0x413B DUP2 PUSH2 0x48CB JUMP JUMPDEST DUP5 ADD SWAP2 POP POP SWAP3 SWAP2 POP POP JUMP JUMPDEST PUSH1 0x0 PUSH2 0x4151 DUP3 PUSH2 0x468F JUMP JUMPDEST PUSH2 0x415B DUP2 DUP6 PUSH2 0x4716 JUMP JUMPDEST SWAP4 POP PUSH2 0x416B DUP2 DUP6 PUSH1 0x20 DUP7 ADD PUSH2 0x4794 JUMP JUMPDEST DUP1 DUP5 ADD SWAP2 POP POP SWAP3 SWAP2 POP POP JUMP JUMPDEST PUSH1 0x0 PUSH2 0x4184 PUSH1 0x1B DUP4 PUSH2 0x4705 JUMP JUMPDEST SWAP2 POP PUSH2 0x418F DUP3 PUSH2 0x48DC JUMP JUMPDEST PUSH1 0x20 DUP3 ADD SWAP1 POP SWAP2 SWAP1 POP JUMP JUMPDEST PUSH1 0x0 PUSH2 0x41A7 PUSH1 0x22 DUP4 PUSH2 0x4705 JUMP JUMPDEST SWAP2 POP PUSH2 0x41B2 DUP3 PUSH2 0x4905 JUMP JUMPDEST PUSH1 0x40 DUP3 ADD SWAP1 POP SWAP2 SWAP1 POP JUMP JUMPDEST PUSH1 0x0 PUSH2 0x41CA PUSH1 0xB DUP4 PUSH2 0x4705 JUMP JUMPDEST SWAP2 POP PUSH2 0x41D5 DUP3 PUSH2 0x4954 JUMP JUMPDEST PUSH1 0x20 DUP3 ADD SWAP1 POP SWAP2 SWAP1 POP JUMP JUMPDEST PUSH1 0x0 PUSH2 0x41ED PUSH1 0x9 DUP4 PUSH2 0x4705 JUMP JUMPDEST SWAP2 POP PUSH2 0x41F8 DUP3 PUSH2 0x497D JUMP JUMPDEST PUSH1 0x20 DUP3 ADD SWAP1 POP SWAP2 SWAP1 POP JUMP JUMPDEST PUSH1 0x0 PUSH2 0x4210 PUSH1 0xC DUP4 PUSH2 0x4705 JUMP JUMPDEST SWAP2 POP PUSH2 0x421B DUP3 PUSH2 0x49A6 JUMP JUMPDEST PUSH1 0x20 DUP3 ADD SWAP1 POP SWAP2 SWAP1 POP JUMP JUMPDEST PUSH1 0x0 PUSH2 0x4233 PUSH1 0xD DUP4 PUSH2 0x4705 JUMP JUMPDEST SWAP2 POP PUSH2 0x423E DUP3 PUSH2 0x49CF JUMP JUMPDEST PUSH1 0x20 DUP3 ADD SWAP1 POP SWAP2 SWAP1 POP JUMP JUMPDEST PUSH1 0x0 PUSH2 0x4256 PUSH1 0x16 DUP4 PUSH2 0x4705 JUMP JUMPDEST SWAP2 POP PUSH2 0x4261 DUP3 PUSH2 0x49F8 JUMP JUMPDEST PUSH1 0x20 DUP3 ADD SWAP1 POP SWAP2 SWAP1 POP JUMP JUMPDEST PUSH1 0x0 PUSH2 0x4279 PUSH1 0xB DUP4 PUSH2 0x4705 JUMP JUMPDEST SWAP2 POP PUSH2 0x4284 DUP3 PUSH2 0x4A21 JUMP JUMPDEST PUSH1 0x20 DUP3 ADD SWAP1 POP SWAP2 SWAP1 POP JUMP JUMPDEST PUSH1 0x0 PUSH1 0x80 DUP4 ADD PUSH1 0x0 DUP4 ADD MLOAD PUSH2 0x42A7 PUSH1 0x0 DUP7 ADD DUP3 PUSH2 0x3F50 JUMP JUMPDEST POP PUSH1 0x20 DUP4 ADD MLOAD DUP5 DUP3 SUB PUSH1 0x20 DUP7 ADD MSTORE PUSH2 0x42BF DUP3 DUP3 PUSH2 0x40D4 JUMP JUMPDEST SWAP2 POP POP PUSH1 0x40 DUP4 ADD MLOAD DUP5 DUP3 SUB PUSH1 0x40 DUP7 ADD MSTORE PUSH2 0x42D9 DUP3 DUP3 PUSH2 0x40D4 JUMP JUMPDEST SWAP2 POP POP PUSH1 0x60 DUP4 ADD MLOAD PUSH2 0x42EE PUSH1 0x60 DUP7 ADD DUP3 PUSH2 0x40B6 JUMP JUMPDEST POP DUP1 SWAP2 POP POP SWAP3 SWAP2 POP POP JUMP JUMPDEST PUSH2 0x4302 DUP2 PUSH2 0x477B JUMP JUMPDEST DUP3 MSTORE POP POP JUMP JUMPDEST PUSH1 0x0 PUSH2 0x4314 DUP3 DUP5 PUSH2 0x4146 JUMP JUMPDEST SWAP2 POP DUP2 SWAP1 POP SWAP3 SWAP2 POP POP JUMP JUMPDEST PUSH1 0x0 PUSH1 0xC0 DUP3 ADD SWAP1 POP PUSH2 0x4334 PUSH1 0x0 DUP4 ADD DUP10 PUSH2 0x3F5F JUMP JUMPDEST PUSH2 0x4341 PUSH1 0x20 DUP4 ADD DUP9 PUSH2 0x3F5F JUMP JUMPDEST DUP2 DUP2 SUB PUSH1 0x40 DUP4 ADD MSTORE PUSH2 0x4353 DUP2 DUP8 PUSH2 0x410D JUMP JUMPDEST SWAP1 POP PUSH2 0x4362 PUSH1 0x60 DUP4 ADD DUP7 PUSH2 0x42F9 JUMP JUMPDEST PUSH2 0x436F PUSH1 0x80 DUP4 ADD DUP6 PUSH2 0x42F9 JUMP JUMPDEST PUSH2 0x437C PUSH1 0xA0 DUP4 ADD DUP5 PUSH2 0x40C5 JUMP JUMPDEST SWAP8 SWAP7 POP POP POP POP POP POP POP JUMP JUMPDEST PUSH1 0x0 PUSH1 0x40 DUP3 ADD SWAP1 POP PUSH2 0x439C PUSH1 0x0 DUP4 ADD DUP6 PUSH2 0x3F5F JUMP JUMPDEST DUP2 DUP2 SUB PUSH1 0x20 DUP4 ADD MSTORE PUSH2 0x43AE DUP2 DUP5 PUSH2 0x410D JUMP JUMPDEST SWAP1 POP SWAP4 SWAP3 POP POP POP JUMP JUMPDEST PUSH1 0x0 PUSH1 0x80 DUP3 ADD SWAP1 POP DUP2 DUP2 SUB PUSH1 0x0 DUP4 ADD MSTORE PUSH2 0x43D1 DUP2 DUP8 PUSH2 0x410D JUMP JUMPDEST SWAP1 POP DUP2 DUP2 SUB PUSH1 0x20 DUP4 ADD MSTORE PUSH2 0x43E5 DUP2 DUP7 PUSH2 0x4041 JUMP JUMPDEST SWAP1 POP DUP2 DUP2 SUB PUSH1 0x40 DUP4 ADD MSTORE PUSH2 0x43F9 DUP2 DUP6 PUSH2 0x3FCC JUMP JUMPDEST SWAP1 POP DUP2 DUP2 SUB PUSH1 0x60 DUP4 ADD MSTORE PUSH2 0x440D DUP2 DUP5 PUSH2 0x3F6E JUMP JUMPDEST SWAP1 POP SWAP6 SWAP5 POP POP POP POP POP JUMP JUMPDEST PUSH1 0x0 PUSH1 0xA0 DUP3 ADD SWAP1 POP DUP2 DUP2 SUB PUSH1 0x0 DUP4 ADD MSTORE PUSH2 0x4432 DUP2 DUP9 PUSH2 0x410D JUMP JUMPDEST SWAP1 POP DUP2 DUP2 SUB PUSH1 0x20 DUP4 ADD MSTORE PUSH2 0x4446 DUP2 DUP8 PUSH2 0x410D JUMP JUMPDEST SWAP1 POP DUP2 DUP2 SUB PUSH1 0x40 DUP4 ADD MSTORE PUSH2 0x445A DUP2 DUP7 PUSH2 0x410D JUMP JUMPDEST SWAP1 POP DUP2 DUP2 SUB PUSH1 0x60 DUP4 ADD MSTORE PUSH2 0x446E DUP2 DUP6 PUSH2 0x410D JUMP JUMPDEST SWAP1 POP DUP2 DUP2 SUB PUSH1 0x80 DUP4 ADD MSTORE PUSH2 0x4482 DUP2 DUP5 PUSH2 0x3FCC JUMP JUMPDEST SWAP1 POP SWAP7 SWAP6 POP POP POP POP POP POP JUMP JUMPDEST PUSH1 0x0 PUSH1 0x80 DUP3 ADD SWAP1 POP DUP2 DUP2 SUB PUSH1 0x0 DUP4 ADD MSTORE PUSH2 0x44A8 DUP2 DUP8 PUSH2 0x410D JUMP JUMPDEST SWAP1 POP DUP2 DUP2 SUB PUSH1 0x20 DUP4 ADD MSTORE PUSH2 0x44BC DUP2 DUP7 PUSH2 0x410D JUMP JUMPDEST SWAP1 POP PUSH2 0x44CB PUSH1 0x40 DUP4 ADD DUP6 PUSH2 0x42F9 JUMP JUMPDEST DUP2 DUP2 SUB PUSH1 0x60 DUP4 ADD MSTORE PUSH2 0x44DD DUP2 DUP5 PUSH2 0x3FCC JUMP JUMPDEST SWAP1 POP SWAP6 SWAP5 POP POP POP POP POP JUMP JUMPDEST PUSH1 0x0 PUSH1 0x20 DUP3 ADD SWAP1 POP DUP2 DUP2 SUB PUSH1 0x0 DUP4 ADD MSTORE PUSH2 0x4501 DUP2 PUSH2 0x4177 JUMP JUMPDEST SWAP1 POP SWAP2 SWAP1 POP JUMP JUMPDEST PUSH1 0x0 PUSH1 0x20 DUP3 ADD SWAP1 POP DUP2 DUP2 SUB PUSH1 0x0 DUP4 ADD MSTORE PUSH2 0x4521 DUP2 PUSH2 0x419A JUMP JUMPDEST SWAP1 POP SWAP2 SWAP1 POP JUMP JUMPDEST PUSH1 0x0 PUSH1 0x20 DUP3 ADD SWAP1 POP DUP2 DUP2 SUB PUSH1 0x0 DUP4 ADD MSTORE PUSH2 0x4541 DUP2 PUSH2 0x41BD JUMP JUMPDEST SWAP1 POP SWAP2 SWAP1 POP JUMP JUMPDEST PUSH1 0x0 PUSH1 0x20 DUP3 ADD SWAP1 POP DUP2 DUP2 SUB PUSH1 0x0 DUP4 ADD MSTORE PUSH2 0x4561 DUP2 PUSH2 0x41E0 JUMP JUMPDEST SWAP1 POP SWAP2 SWAP1 POP JUMP JUMPDEST PUSH1 0x0 PUSH1 0x20 DUP3 ADD SWAP1 POP DUP2 DUP2 SUB PUSH1 0x0 DUP4 ADD MSTORE PUSH2 0x4581 DUP2 PUSH2 0x4203 JUMP JUMPDEST SWAP1 POP SWAP2 SWAP1 POP JUMP JUMPDEST PUSH1 0x0 PUSH1 0x20 DUP3 ADD SWAP1 POP DUP2 DUP2 SUB PUSH1 0x0 DUP4 ADD MSTORE PUSH2 0x45A1 DUP2 PUSH2 0x4226 JUMP JUMPDEST SWAP1 POP SWAP2 SWAP1 POP JUMP JUMPDEST PUSH1 0x0 PUSH1 0x20 DUP3 ADD SWAP1 POP DUP2 DUP2 SUB PUSH1 0x0 DUP4 ADD MSTORE PUSH2 0x45C1 DUP2 PUSH2 0x4249 JUMP JUMPDEST SWAP1 POP SWAP2 SWAP1 POP JUMP JUMPDEST PUSH1 0x0 PUSH1 0x20 DUP3 ADD SWAP1 POP DUP2 DUP2 SUB PUSH1 0x0 DUP4 ADD MSTORE PUSH2 0x45E1 DUP2 PUSH2 0x426C JUMP JUMPDEST SWAP1 POP SWAP2 SWAP1 POP JUMP JUMPDEST PUSH1 0x0 PUSH2 0x45F2 PUSH2 0x4603 JUMP JUMPDEST SWAP1 POP PUSH2 0x45FE DUP3 DUP3 PUSH2 0x47F9 JUMP JUMPDEST SWAP2 SWAP1 POP JUMP JUMPDEST PUSH1 0x0 PUSH1 0x40 MLOAD SWAP1 POP SWAP1 JUMP JUMPDEST PUSH1 0x0 PUSH8 0xFFFFFFFFFFFFFFFF DUP3 GT ISZERO PUSH2 0x4628 JUMPI PUSH2 0x4627 PUSH2 0x4888 JUMP JUMPDEST JUMPDEST PUSH2 0x4631 DUP3 PUSH2 0x48CB JUMP JUMPDEST SWAP1 POP PUSH1 0x20 DUP2 ADD SWAP1 POP SWAP2 SWAP1 POP JUMP JUMPDEST PUSH1 0x0 DUP2 SWAP1 POP PUSH1 0x20 DUP3 ADD SWAP1 POP SWAP2 SWAP1 POP JUMP JUMPDEST PUSH1 0x0 DUP2 SWAP1 POP PUSH1 0x20 DUP3 ADD SWAP1 POP SWAP2 SWAP1 POP JUMP JUMPDEST PUSH1 0x0 DUP2 SWAP1 POP PUSH1 0x20 DUP3 ADD SWAP1 POP SWAP2 SWAP1 POP JUMP JUMPDEST PUSH1 0x0 DUP2 MLOAD SWAP1 POP SWAP2 SWAP1 POP JUMP JUMPDEST PUSH1 0x0 DUP2 MLOAD SWAP1 POP SWAP2 SWAP1 POP JUMP JUMPDEST PUSH1 0x0 DUP2 MLOAD SWAP1 POP SWAP2 SWAP1 POP JUMP JUMPDEST PUSH1 0x0 DUP2 MLOAD SWAP1 POP SWAP2 SWAP1 POP JUMP JUMPDEST PUSH1 0x0 PUSH1 0x20 DUP3 ADD SWAP1 POP SWAP2 SWAP1 POP JUMP JUMPDEST PUSH1 0x0 PUSH1 0x20 DUP3 ADD SWAP1 POP SWAP2 SWAP1 POP JUMP JUMPDEST PUSH1 0x0 PUSH1 0x20 DUP3 ADD SWAP1 POP SWAP2 SWAP1 POP JUMP JUMPDEST PUSH1 0x0 DUP3 DUP3 MSTORE PUSH1 0x20 DUP3 ADD SWAP1 POP SWAP3 SWAP2 POP POP JUMP JUMPDEST PUSH1 0x0 DUP3 DUP3 MSTORE PUSH1 0x20 DUP3 ADD SWAP1 POP SWAP3 SWAP2 POP POP JUMP JUMPDEST PUSH1 0x0 DUP3 DUP3 MSTORE PUSH1 0x20 DUP3 ADD SWAP1 POP SWAP3 SWAP2 POP POP JUMP JUMPDEST PUSH1 0x0 DUP3 DUP3 MSTORE PUSH1 0x20 DUP3 ADD SWAP1 POP SWAP3 SWAP2 POP POP JUMP JUMPDEST PUSH1 0x0 DUP3 DUP3 MSTORE PUSH1 0x20 DUP3 ADD SWAP1 POP SWAP3 SWAP2 POP POP JUMP JUMPDEST PUSH1 0x0 DUP2 SWAP1 POP SWAP3 SWAP2 POP POP JUMP JUMPDEST PUSH1 0x0 PUSH2 0x472C DUP3 PUSH2 0x475B JUMP JUMPDEST SWAP1 POP SWAP2 SWAP1 POP JUMP JUMPDEST PUSH1 0x0 PUSH2 0x473E DUP3 PUSH2 0x475B JUMP JUMPDEST SWAP1 POP SWAP2 SWAP1 POP JUMP JUMPDEST PUSH1 0x0 DUP2 ISZERO ISZERO SWAP1 POP SWAP2 SWAP1 POP JUMP JUMPDEST PUSH1 0x0 DUP2 SWAP1 POP SWAP2 SWAP1 POP JUMP JUMPDEST PUSH1 0x0 PUSH20 0xFFFFFFFFFFFFFFFFFFFFFFFFFFFFFFFFFFFFFFFF DUP3 AND SWAP1 POP SWAP2 SWAP1 POP JUMP JUMPDEST PUSH1 0x0 DUP2 SWAP1 POP SWAP2 SWAP1 POP JUMP JUMPDEST DUP3 DUP2 DUP4 CALLDATACOPY PUSH1 0x0 DUP4 DUP4 ADD MSTORE POP POP POP JUMP JUMPDEST PUSH1 0x0 JUMPDEST DUP4 DUP2 LT ISZERO PUSH2 0x47B2 JUMPI DUP1 DUP3 ADD MLOAD DUP2 DUP5 ADD MSTORE PUSH1 0x20 DUP2 ADD SWAP1 POP PUSH2 0x4797 JUMP JUMPDEST DUP4 DUP2 GT ISZERO PUSH2 0x47C1 JUMPI PUSH1 0x0 DUP5 DUP5 ADD MSTORE JUMPDEST POP POP POP POP JUMP JUMPDEST PUSH1 0x0 PUSH1 0x2 DUP3 DIV SWAP1 POP PUSH1 0x1 DUP3 AND DUP1 PUSH2 0x47DF JUMPI PUSH1 0x7F DUP3 AND SWAP2 POP JUMPDEST PUSH1 0x20 DUP3 LT DUP2 EQ ISZERO PUSH2 0x47F3 JUMPI PUSH2 0x47F2 PUSH2 0x4859 JUMP JUMPDEST JUMPDEST POP SWAP2 SWAP1 POP JUMP JUMPDEST PUSH2 0x4802 DUP3 PUSH2 0x48CB JUMP JUMPDEST DUP2 ADD DUP2 DUP2 LT PUSH8 0xFFFFFFFFFFFFFFFF DUP3 GT OR ISZERO PUSH2 0x4821 JUMPI PUSH2 0x4820 PUSH2 0x4888 JUMP JUMPDEST JUMPDEST DUP1 PUSH1 0x40 MSTORE POP POP POP JUMP JUMPDEST PUSH32 0x4E487B7100000000000000000000000000000000000000000000000000000000 PUSH1 0x0 MSTORE PUSH1 0x21 PUSH1 0x4 MSTORE PUSH1 0x24 PUSH1 0x0 REVERT JUMPDEST PUSH32 0x4E487B7100000000000000000000000000000000000000000000000000000000 PUSH1 0x0 MSTORE PUSH1 0x22 PUSH1 0x4 MSTORE PUSH1 0x24 PUSH1 0x0 REVERT JUMPDEST PUSH32 0x4E487B7100000000000000000000000000000000000000000000000000000000 PUSH1 0x0 MSTORE PUSH1 0x41 PUSH1 0x4 MSTORE PUSH1 0x24 PUSH1 0x0 REVERT JUMPDEST PUSH1 0x0 DUP1 REVERT JUMPDEST PUSH1 0x0 DUP1 REVERT JUMPDEST PUSH1 0x0 DUP1 REVERT JUMPDEST PUSH1 0x0 DUP1 REVERT JUMPDEST PUSH1 0x0 PUSH1 0x1F NOT PUSH1 0x1F DUP4 ADD AND SWAP1 POP SWAP2 SWAP1 POP JUMP JUMPDEST PUSH32 0x596F7520616C726561647920636865636B207468697320636173650000000000 PUSH1 0x0 DUP3 ADD MSTORE POP JUMP JUMPDEST PUSH32 0x596F7572206C6F67696E20616C726561647920657869737420696E2073797374 PUSH1 0x0 DUP3 ADD MSTORE PUSH32 0x656D000000000000000000000000000000000000000000000000000000000000 PUSH1 0x20 DUP3 ADD MSTORE POP JUMP JUMPDEST PUSH32 0x4C6F772062616C616E6365000000000000000000000000000000000000000000 PUSH1 0x0 DUP3 ADD MSTORE POP JUMP JUMPDEST PUSH32 0x466F7262696464656E0000000000000000000000000000000000000000000000 PUSH1 0x0 DUP3 ADD MSTORE POP JUMP JUMPDEST PUSH32 0x596F75206E6F7420757365720000000000000000000000000000000000000000 PUSH1 0x0 DUP3 ADD MSTORE POP JUMP JUMPDEST PUSH32 0x596F75206E6F742061646D696E00000000000000000000000000000000000000 PUSH1 0x0 DUP3 ADD MSTORE POP JUMP JUMPDEST PUSH32 0x596F7520616C7265616479207265676973746572656400000000000000000000 PUSH1 0x0 DUP3 ADD MSTORE POP JUMP JUMPDEST PUSH32 0x57726F6E67204C6F67696E000000000000000000000000000000000000000000 PUSH1 0x0 DUP3 ADD MSTORE POP JUMP JUMPDEST PUSH2 0x4A53 DUP2 PUSH2 0x4721 JUMP JUMPDEST DUP2 EQ PUSH2 0x4A5E JUMPI PUSH1 0x0 DUP1 REVERT JUMPDEST POP JUMP JUMPDEST PUSH2 0x4A6A DUP2 PUSH2 0x4733 JUMP JUMPDEST DUP2 EQ PUSH2 0x4A75 JUMPI PUSH1 0x0 DUP1 REVERT JUMPDEST POP JUMP JUMPDEST PUSH2 0x4A81 DUP2 PUSH2 0x4751 JUMP JUMPDEST DUP2 EQ PUSH2 0x4A8C JUMPI PUSH1 0x0 DUP1 REVERT JUMPDEST POP JUMP INVALID LOG2 PUSH5 0x6970667358 0x22 SLT KECCAK256 LT PUSH30 0xA4BE8C28249A531BFFF611C7E3C9A3DA53A6A93DD82194E71F71E513950C PUSH5 0x736F6C6343 STOP ADDMOD SMOD STOP CALLER "
				},
				"gasEstimates": {
					"creation": {
						"codeDepositCost": "3828200",
						"executionCost": "infinite",
						"totalCost": "infinite"
					},
					"external": {
						"checkRequest(string)": "infinite",
						"createReview(address,string,string,int256)": "infinite",
						"disLikeReview(string)": "infinite",
						"doShopDebt(address)": "infinite",
						"downRequestToByer()": "2725",
						"getAdminInfo()": "infinite",
						"getBuyerInfo()": "infinite",
						"getReviewById(string)": "infinite",
						"getSellerInfo()": "infinite",
						"getSellerInfoByAddr(address)": "infinite",
						"likeReview(string)": "infinite",
						"login(string)": "infinite",
						"regAdmin(address,string,string)": "infinite",
						"registerAdmin(string,string)": "infinite",
						"registerBank(string,address)": "infinite",
						"registerBuyer(string,string,address)": "infinite",
						"registerProvider(string,address)": "infinite",
						"registerSeller(string,string,address,address)": "infinite",
						"registerShop(address,string,string,string)": "infinite",
						"requestToSeller(string)": "infinite"
					}
				},
				"methodIdentifiers": {
					"checkRequest(string)": "dfdd12c9",
					"createReview(address,string,string,int256)": "2d6abf59",
					"disLikeReview(string)": "bce62a74",
					"doShopDebt(address)": "83db0f6d",
					"downRequestToByer()": "8edc85f9",
					"getAdminInfo()": "c3d5fd39",
					"getBuyerInfo()": "99b958ee",
					"getReviewById(string)": "2f0185c4",
					"getSellerInfo()": "54504c12",
					"getSellerInfoByAddr(address)": "08e74858",
					"likeReview(string)": "7b3c7488",
					"login(string)": "3a7d280c",
					"regAdmin(address,string,string)": "a59d105f",
					"registerAdmin(string,string)": "f8f98b79",
					"registerBank(string,address)": "2156a781",
					"registerBuyer(string,string,address)": "9d344d10",
					"registerProvider(string,address)": "7ccb2bd8",
					"registerSeller(string,string,address,address)": "8403f848",
					"registerShop(address,string,string,string)": "7558b2f8",
					"requestToSeller(string)": "ac6fa7c3"
				}
			},
			"storageLayout": {
				"storage": [
					{
						"astId": 37,
						"contract": "contracts/Shops.sol:ShopsSystem",
						"label": "userStatus",
						"offset": 0,
						"slot": "0",
						"type": "t_mapping(t_uint256,t_string_storage)"
					},
					{
						"astId": 41,
						"contract": "contracts/Shops.sol:ShopsSystem",
						"label": "userLogins",
						"offset": 0,
						"slot": "1",
						"type": "t_mapping(t_string_memory_ptr,t_address)"
					},
					{
						"astId": 46,
						"contract": "contracts/Shops.sol:ShopsSystem",
						"label": "users",
						"offset": 0,
						"slot": "2",
						"type": "t_mapping(t_address,t_struct(User)33_storage)"
					},
					{
						"astId": 337,
						"contract": "contracts/Shops.sol:ShopsSystem",
						"label": "likeCountCheck",
						"offset": 0,
						"slot": "3",
						"type": "t_mapping(t_address,t_bool)"
					},
					{
						"astId": 339,
						"contract": "contracts/Shops.sol:ShopsSystem",
						"label": "provider",
						"offset": 0,
						"slot": "4",
						"type": "t_address"
					},
					{
						"astId": 341,
						"contract": "contracts/Shops.sol:ShopsSystem",
						"label": "admin",
						"offset": 0,
						"slot": "5",
						"type": "t_address"
					},
					{
						"astId": 344,
						"contract": "contracts/Shops.sol:ShopsSystem",
						"label": "admins",
						"offset": 0,
						"slot": "6",
						"type": "t_array(t_string_storage)dyn_storage"
					},
					{
						"astId": 346,
						"contract": "contracts/Shops.sol:ShopsSystem",
						"label": "bank",
						"offset": 0,
						"slot": "7",
						"type": "t_address_payable"
					},
					{
						"astId": 349,
						"contract": "contracts/Shops.sol:ShopsSystem",
						"label": "sellers",
						"offset": 0,
						"slot": "8",
						"type": "t_array(t_address)dyn_storage"
					},
					{
						"astId": 352,
						"contract": "contracts/Shops.sol:ShopsSystem",
						"label": "shopsAddresses",
						"offset": 0,
						"slot": "9",
						"type": "t_array(t_address)dyn_storage"
					},
					{
						"astId": 356,
						"contract": "contracts/Shops.sol:ShopsSystem",
						"label": "requests",
						"offset": 0,
						"slot": "10",
						"type": "t_array(t_struct(Request)331_storage)dyn_storage"
					},
					{
						"astId": 361,
						"contract": "contracts/Shops.sol:ShopsSystem",
						"label": "ShopsList",
						"offset": 0,
						"slot": "11",
						"type": "t_mapping(t_address,t_struct(Shop)322_storage)"
					},
					{
						"astId": 365,
						"contract": "contracts/Shops.sol:ShopsSystem",
						"label": "salesmanShop",
						"offset": 0,
						"slot": "12",
						"type": "t_mapping(t_address,t_address)"
					},
					{
						"astId": 370,
						"contract": "contracts/Shops.sol:ShopsSystem",
						"label": "salesmen",
						"offset": 0,
						"slot": "13",
						"type": "t_mapping(t_address,t_array(t_address)dyn_storage)"
					},
					{
						"astId": 375,
						"contract": "contracts/Shops.sol:ShopsSystem",
						"label": "shopReviews",
						"offset": 0,
						"slot": "14",
						"type": "t_mapping(t_address,t_array(t_string_storage)dyn_storage)"
					},
					{
						"astId": 380,
						"contract": "contracts/Shops.sol:ShopsSystem",
						"label": "reviewId",
						"offset": 0,
						"slot": "15",
						"type": "t_mapping(t_string_memory_ptr,t_struct(Review)23_storage)"
					},
					{
						"astId": 385,
						"contract": "contracts/Shops.sol:ShopsSystem",
						"label": "requestId",
						"offset": 0,
						"slot": "16",
						"type": "t_mapping(t_string_memory_ptr,t_struct(Request)331_storage)"
					},
					{
						"astId": 391,
						"contract": "contracts/Shops.sol:ShopsSystem",
						"label": "reviewCom",
						"offset": 0,
						"slot": "17",
						"type": "t_mapping(t_string_memory_ptr,t_mapping(t_address,t_bool))"
					}
				],
				"types": {
					"t_address": {
						"encoding": "inplace",
						"label": "address",
						"numberOfBytes": "20"
					},
					"t_address_payable": {
						"encoding": "inplace",
						"label": "address payable",
						"numberOfBytes": "20"
					},
					"t_array(t_address)dyn_storage": {
						"base": "t_address",
						"encoding": "dynamic_array",
						"label": "address[]",
						"numberOfBytes": "32"
					},
					"t_array(t_string_storage)dyn_storage": {
						"base": "t_string_storage",
						"encoding": "dynamic_array",
						"label": "string[]",
						"numberOfBytes": "32"
					},
					"t_array(t_struct(Request)331_storage)dyn_storage": {
						"base": "t_struct(Request)331_storage",
						"encoding": "dynamic_array",
						"label": "struct Request[]",
						"numberOfBytes": "32"
					},
					"t_bool": {
						"encoding": "inplace",
						"label": "bool",
						"numberOfBytes": "1"
					},
					"t_int256": {
						"encoding": "inplace",
						"label": "int256",
						"numberOfBytes": "32"
					},
					"t_mapping(t_address,t_address)": {
						"encoding": "mapping",
						"key": "t_address",
						"label": "mapping(address => address)",
						"numberOfBytes": "32",
						"value": "t_address"
					},
					"t_mapping(t_address,t_array(t_address)dyn_storage)": {
						"encoding": "mapping",
						"key": "t_address",
						"label": "mapping(address => address[])",
						"numberOfBytes": "32",
						"value": "t_array(t_address)dyn_storage"
					},
					"t_mapping(t_address,t_array(t_string_storage)dyn_storage)": {
						"encoding": "mapping",
						"key": "t_address",
						"label": "mapping(address => string[])",
						"numberOfBytes": "32",
						"value": "t_array(t_string_storage)dyn_storage"
					},
					"t_mapping(t_address,t_bool)": {
						"encoding": "mapping",
						"key": "t_address",
						"label": "mapping(address => bool)",
						"numberOfBytes": "32",
						"value": "t_bool"
					},
					"t_mapping(t_address,t_struct(Shop)322_storage)": {
						"encoding": "mapping",
						"key": "t_address",
						"label": "mapping(address => struct Shop)",
						"numberOfBytes": "32",
						"value": "t_struct(Shop)322_storage"
					},
					"t_mapping(t_address,t_struct(User)33_storage)": {
						"encoding": "mapping",
						"key": "t_address",
						"label": "mapping(address => struct User)",
						"numberOfBytes": "32",
						"value": "t_struct(User)33_storage"
					},
					"t_mapping(t_string_memory_ptr,t_address)": {
						"encoding": "mapping",
						"key": "t_string_memory_ptr",
						"label": "mapping(string => address)",
						"numberOfBytes": "32",
						"value": "t_address"
					},
					"t_mapping(t_string_memory_ptr,t_mapping(t_address,t_bool))": {
						"encoding": "mapping",
						"key": "t_string_memory_ptr",
						"label": "mapping(string => mapping(address => bool))",
						"numberOfBytes": "32",
						"value": "t_mapping(t_address,t_bool)"
					},
					"t_mapping(t_string_memory_ptr,t_struct(Request)331_storage)": {
						"encoding": "mapping",
						"key": "t_string_memory_ptr",
						"label": "mapping(string => struct Request)",
						"numberOfBytes": "32",
						"value": "t_struct(Request)331_storage"
					},
					"t_mapping(t_string_memory_ptr,t_struct(Review)23_storage)": {
						"encoding": "mapping",
						"key": "t_string_memory_ptr",
						"label": "mapping(string => struct Review)",
						"numberOfBytes": "32",
						"value": "t_struct(Review)23_storage"
					},
					"t_mapping(t_uint256,t_string_storage)": {
						"encoding": "mapping",
						"key": "t_uint256",
						"label": "mapping(uint256 => string)",
						"numberOfBytes": "32",
						"value": "t_string_storage"
					},
					"t_string_memory_ptr": {
						"encoding": "bytes",
						"label": "string",
						"numberOfBytes": "32"
					},
					"t_string_storage": {
						"encoding": "bytes",
						"label": "string",
						"numberOfBytes": "32"
					},
					"t_struct(Request)331_storage": {
						"encoding": "inplace",
						"label": "struct Request",
						"members": [
							{
								"astId": 324,
								"contract": "contracts/Shops.sol:ShopsSystem",
								"label": "userAddr",
								"offset": 0,
								"slot": "0",
								"type": "t_address"
							},
							{
								"astId": 326,
								"contract": "contracts/Shops.sol:ShopsSystem",
								"label": "currentRole",
								"offset": 0,
								"slot": "1",
								"type": "t_string_storage"
							},
							{
								"astId": 328,
								"contract": "contracts/Shops.sol:ShopsSystem",
								"label": "desiredRole",
								"offset": 0,
								"slot": "2",
								"type": "t_string_storage"
							},
							{
								"astId": 330,
								"contract": "contracts/Shops.sol:ShopsSystem",
								"label": "checked",
								"offset": 0,
								"slot": "3",
								"type": "t_bool"
							}
						],
						"numberOfBytes": "128"
					},
					"t_struct(Review)23_storage": {
						"encoding": "inplace",
						"label": "struct Review",
						"members": [
							{
								"astId": 10,
								"contract": "contracts/Shops.sol:ShopsSystem",
								"label": "autorAddress",
								"offset": 0,
								"slot": "0",
								"type": "t_address"
							},
							{
								"astId": 12,
								"contract": "contracts/Shops.sol:ShopsSystem",
								"label": "shopAddr",
								"offset": 0,
								"slot": "1",
								"type": "t_address"
							},
							{
								"astId": 14,
								"contract": "contracts/Shops.sol:ShopsSystem",
								"label": "message",
								"offset": 0,
								"slot": "2",
								"type": "t_string_storage"
							},
							{
								"astId": 17,
								"contract": "contracts/Shops.sol:ShopsSystem",
								"label": "likeCount",
								"offset": 0,
								"slot": "3",
								"type": "t_array(t_address)dyn_storage"
							},
							{
								"astId": 20,
								"contract": "contracts/Shops.sol:ShopsSystem",
								"label": "disLikeCount",
								"offset": 0,
								"slot": "4",
								"type": "t_array(t_address)dyn_storage"
							},
							{
								"astId": 22,
								"contract": "contracts/Shops.sol:ShopsSystem",
								"label": "grade",
								"offset": 0,
								"slot": "5",
								"type": "t_int256"
							}
						],
						"numberOfBytes": "192"
					},
					"t_struct(Shop)322_storage": {
						"encoding": "inplace",
						"label": "struct Shop",
						"members": [
							{
								"astId": 317,
								"contract": "contracts/Shops.sol:ShopsSystem",
								"label": "number",
								"offset": 0,
								"slot": "0",
								"type": "t_string_storage"
							},
							{
								"astId": 319,
								"contract": "contracts/Shops.sol:ShopsSystem",
								"label": "city",
								"offset": 0,
								"slot": "1",
								"type": "t_string_storage"
							},
							{
								"astId": 321,
								"contract": "contracts/Shops.sol:ShopsSystem",
								"label": "debt",
								"offset": 0,
								"slot": "2",
								"type": "t_int256"
							}
						],
						"numberOfBytes": "96"
					},
					"t_struct(User)33_storage": {
						"encoding": "inplace",
						"label": "struct User",
						"members": [
							{
								"astId": 25,
								"contract": "contracts/Shops.sol:ShopsSystem",
								"label": "status",
								"offset": 0,
								"slot": "0",
								"type": "t_uint256"
							},
							{
								"astId": 27,
								"contract": "contracts/Shops.sol:ShopsSystem",
								"label": "userLogin",
								"offset": 0,
								"slot": "1",
								"type": "t_string_storage"
							},
							{
								"astId": 29,
								"contract": "contracts/Shops.sol:ShopsSystem",
								"label": "fio",
								"offset": 0,
								"slot": "2",
								"type": "t_string_storage"
							},
							{
								"astId": 32,
								"contract": "contracts/Shops.sol:ShopsSystem",
								"label": "reviews",
								"offset": 0,
								"slot": "3",
								"type": "t_array(t_string_storage)dyn_storage"
							}
						],
						"numberOfBytes": "128"
					},
					"t_uint256": {
						"encoding": "inplace",
						"label": "uint256",
						"numberOfBytes": "32"
					}
				}
			},
			"userdoc": {
				"kind": "user",
				"methods": {},
				"version": 1
			}
		}
	}
}