{
	"contracts/Shops.sol": {
		"ShopsSystem": {
			"abi": [
				{
					"inputs": [],
					"stateMutability": "nonpayable",
					"type": "constructor"
				},
				{
					"inputs": [
						{
							"internalType": "address",
							"name": "shopAddr",
							"type": "address"
						},
						{
							"internalType": "string",
							"name": "userMessage",
							"type": "string"
						},
						{
							"internalType": "string",
							"name": "id",
							"type": "string"
						},
						{
							"internalType": "int256",
							"name": "grade",
							"type": "int256"
						}
					],
					"name": "createReview",
					"outputs": [],
					"stateMutability": "nonpayable",
					"type": "function"
				},
				{
					"inputs": [
						{
							"internalType": "address payable",
							"name": "shopAddr",
							"type": "address"
						}
					],
					"name": "doShopDebt",
					"outputs": [],
					"stateMutability": "nonpayable",
					"type": "function"
				},
				{
					"inputs": [],
					"name": "getAdminInfo",
					"outputs": [
						{
							"internalType": "string",
							"name": "login",
							"type": "string"
						},
						{
							"components": [
								{
									"internalType": "address",
									"name": "userAddr",
									"type": "address"
								},
								{
									"internalType": "string",
									"name": "currentRole",
									"type": "string"
								},
								{
									"internalType": "string",
									"name": "desiredRole",
									"type": "string"
								},
								{
									"internalType": "bool",
									"name": "checked",
									"type": "bool"
								}
							],
							"internalType": "struct Request[]",
							"name": "userRequests",
							"type": "tuple[]"
						},
						{
							"internalType": "string[]",
							"name": "adminList",
							"type": "string[]"
						},
						{
							"internalType": "address[]",
							"name": "sellersAddr",
							"type": "address[]"
						}
					],
					"stateMutability": "view",
					"type": "function"
				},
				{
					"inputs": [],
					"name": "getBuyerInfo",
					"outputs": [
						{
							"internalType": "string",
							"name": "userLogin",
							"type": "string"
						},
						{
							"internalType": "string",
							"name": "fio",
							"type": "string"
						},
						{
							"internalType": "uint256",
							"name": "balance",
							"type": "uint256"
						},
						{
							"internalType": "string[]",
							"name": "reviews",
							"type": "string[]"
						}
					],
					"stateMutability": "view",
					"type": "function"
				},
				{
					"inputs": [],
					"name": "getSellerInfo",
					"outputs": [
						{
							"internalType": "string",
							"name": "sellerLogin",
							"type": "string"
						},
						{
							"internalType": "string",
							"name": "fio",
							"type": "string"
						},
						{
							"internalType": "string",
							"name": "city",
							"type": "string"
						},
						{
							"internalType": "string",
							"name": "shopNumber",
							"type": "string"
						},
						{
							"internalType": "string[]",
							"name": "reviews",
							"type": "string[]"
						}
					],
					"stateMutability": "view",
					"type": "function"
				},
				{
					"inputs": [
						{
							"internalType": "address",
							"name": "sellerAddr",
							"type": "address"
						}
					],
					"name": "getSellerInfoByAddr",
					"outputs": [
						{
							"internalType": "string",
							"name": "sellerLogin",
							"type": "string"
						},
						{
							"internalType": "string",
							"name": "fio",
							"type": "string"
						},
						{
							"internalType": "string",
							"name": "city",
							"type": "string"
						},
						{
							"internalType": "string",
							"name": "shopNumber",
							"type": "string"
						},
						{
							"internalType": "string[]",
							"name": "reviews",
							"type": "string[]"
						}
					],
					"stateMutability": "view",
					"type": "function"
				},
				{
					"inputs": [
						{
							"internalType": "string",
							"name": "id",
							"type": "string"
						}
					],
					"name": "likeReview",
					"outputs": [],
					"stateMutability": "nonpayable",
					"type": "function"
				},
				{
					"inputs": [
						{
							"internalType": "string",
							"name": "userLogin",
							"type": "string"
						}
					],
					"name": "login",
					"outputs": [
						{
							"internalType": "address",
							"name": "userAddress",
							"type": "address"
						},
						{
							"internalType": "string",
							"name": "status",
							"type": "string"
						}
					],
					"stateMutability": "view",
					"type": "function"
				},
				{
					"inputs": [
						{
							"internalType": "address",
							"name": "adminAddr",
							"type": "address"
						},
						{
							"internalType": "string",
							"name": "fio",
							"type": "string"
						},
						{
							"internalType": "string",
							"name": "userLogin",
							"type": "string"
						}
					],
					"name": "regAdmin",
					"outputs": [],
					"stateMutability": "nonpayable",
					"type": "function"
				},
				{
					"inputs": [
						{
							"internalType": "string",
							"name": "fio",
							"type": "string"
						},
						{
							"internalType": "string",
							"name": "userLogin",
							"type": "string"
						}
					],
					"name": "registerAdmin",
					"outputs": [],
					"stateMutability": "nonpayable",
					"type": "function"
				},
				{
					"inputs": [
						{
							"internalType": "string",
							"name": "bankLogin",
							"type": "string"
						},
						{
							"internalType": "address",
							"name": "bankAddr",
							"type": "address"
						}
					],
					"name": "registerBank",
					"outputs": [],
					"stateMutability": "nonpayable",
					"type": "function"
				},
				{
					"inputs": [
						{
							"internalType": "string",
							"name": "fio",
							"type": "string"
						},
						{
							"internalType": "string",
							"name": "userLogin",
							"type": "string"
						},
						{
							"internalType": "address",
							"name": "userAddr",
							"type": "address"
						}
					],
					"name": "registerBuyer",
					"outputs": [],
					"stateMutability": "nonpayable",
					"type": "function"
				},
				{
					"inputs": [
						{
							"internalType": "string",
							"name": "providerLogin",
							"type": "string"
						},
						{
							"internalType": "address",
							"name": "providerAddr",
							"type": "address"
						}
					],
					"name": "registerProvider",
					"outputs": [],
					"stateMutability": "nonpayable",
					"type": "function"
				},
				{
					"inputs": [
						{
							"internalType": "string",
							"name": "fio",
							"type": "string"
						},
						{
							"internalType": "string",
							"name": "userLogin",
							"type": "string"
						},
						{
							"internalType": "address",
							"name": "userAddress",
							"type": "address"
						},
						{
							"internalType": "address",
							"name": "shopAddr",
							"type": "address"
						}
					],
					"name": "registerSeller",
					"outputs": [],
					"stateMutability": "nonpayable",
					"type": "function"
				},
				{
					"inputs": [
						{
							"internalType": "address",
							"name": "shopAddr",
							"type": "address"
						},
						{
							"internalType": "string",
							"name": "number",
							"type": "string"
						},
						{
							"internalType": "string",
							"name": "city",
							"type": "string"
						},
						{
							"internalType": "string",
							"name": "shopLogin",
							"type": "string"
						}
					],
					"name": "registerShop",
					"outputs": [],
					"stateMutability": "nonpayable",
					"type": "function"
				}
			],
			"devdoc": {
				"kind": "dev",
				"methods": {},
				"version": 1
			},
			"evm": {
				"assembly": "    /* \"contracts/Shops.sol\":269:6420  contract ShopsSystem is AuthService{... */\n  mstore(0x40, 0x80)\n    /* \"contracts/Shops.sol\":854:902  constructor(){... */\n  callvalue\n  dup1\n  iszero\n  tag_1\n  jumpi\n  0x00\n  dup1\n  revert\ntag_1:\n  pop\n    /* \"contracts/AuthService.sol\":564:587  userStatus[0] = \"buyer\" */\n  mload(0x40)\n  dup1\n  0x40\n  add\n  0x40\n  mstore\n  dup1\n  0x05\n  dup2\n  mstore\n  0x20\n  add\n  0x6275796572000000000000000000000000000000000000000000000000000000\n  dup2\n  mstore\n  pop\n    /* \"contracts/AuthService.sol\":564:574  userStatus */\n  0x00\n    /* \"contracts/AuthService.sol\":564:577  userStatus[0] */\n  dup1\n    /* \"contracts/AuthService.sol\":575:576  0 */\n  dup1\n    /* \"contracts/AuthService.sol\":564:577  userStatus[0] */\n  dup2\n  mstore\n  0x20\n  add\n  swap1\n  dup2\n  mstore\n  0x20\n  add\n  0x00\n  keccak256\n    /* \"contracts/AuthService.sol\":564:587  userStatus[0] = \"buyer\" */\n  swap1\n  dup1\n  mload\n  swap1\n  0x20\n  add\n  swap1\n  tag_5\n  swap3\n  swap2\n  swap1\n  tag_6\n  jump\t// in\ntag_5:\n  pop\n    /* \"contracts/AuthService.sol\":597:621  userStatus[1] = \"seller\" */\n  mload(0x40)\n  dup1\n  0x40\n  add\n  0x40\n  mstore\n  dup1\n  0x06\n  dup2\n  mstore\n  0x20\n  add\n  0x73656c6c65720000000000000000000000000000000000000000000000000000\n  dup2\n  mstore\n  pop\n    /* \"contracts/AuthService.sol\":597:607  userStatus */\n  0x00\n    /* \"contracts/AuthService.sol\":597:610  userStatus[1] */\n  dup1\n    /* \"contracts/AuthService.sol\":608:609  1 */\n  0x01\n    /* \"contracts/AuthService.sol\":597:610  userStatus[1] */\n  dup2\n  mstore\n  0x20\n  add\n  swap1\n  dup2\n  mstore\n  0x20\n  add\n  0x00\n  keccak256\n    /* \"contracts/AuthService.sol\":597:621  userStatus[1] = \"seller\" */\n  swap1\n  dup1\n  mload\n  swap1\n  0x20\n  add\n  swap1\n  tag_7\n  swap3\n  swap2\n  swap1\n  tag_6\n  jump\t// in\ntag_7:\n  pop\n    /* \"contracts/AuthService.sol\":631:653  userStatus[2] = \"shop\" */\n  mload(0x40)\n  dup1\n  0x40\n  add\n  0x40\n  mstore\n  dup1\n  0x04\n  dup2\n  mstore\n  0x20\n  add\n  0x73686f7000000000000000000000000000000000000000000000000000000000\n  dup2\n  mstore\n  pop\n    /* \"contracts/AuthService.sol\":631:641  userStatus */\n  0x00\n    /* \"contracts/AuthService.sol\":631:644  userStatus[2] */\n  dup1\n    /* \"contracts/AuthService.sol\":642:643  2 */\n  0x02\n    /* \"contracts/AuthService.sol\":631:644  userStatus[2] */\n  dup2\n  mstore\n  0x20\n  add\n  swap1\n  dup2\n  mstore\n  0x20\n  add\n  0x00\n  keccak256\n    /* \"contracts/AuthService.sol\":631:653  userStatus[2] = \"shop\" */\n  swap1\n  dup1\n  mload\n  swap1\n  0x20\n  add\n  swap1\n  tag_8\n  swap3\n  swap2\n  swap1\n  tag_6\n  jump\t// in\ntag_8:\n  pop\n    /* \"contracts/AuthService.sol\":663:686  userStatus[3] = \"admin\" */\n  mload(0x40)\n  dup1\n  0x40\n  add\n  0x40\n  mstore\n  dup1\n  0x05\n  dup2\n  mstore\n  0x20\n  add\n  0x61646d696e000000000000000000000000000000000000000000000000000000\n  dup2\n  mstore\n  pop\n    /* \"contracts/AuthService.sol\":663:673  userStatus */\n  0x00\n    /* \"contracts/AuthService.sol\":663:676  userStatus[3] */\n  dup1\n    /* \"contracts/AuthService.sol\":674:675  3 */\n  0x03\n    /* \"contracts/AuthService.sol\":663:676  userStatus[3] */\n  dup2\n  mstore\n  0x20\n  add\n  swap1\n  dup2\n  mstore\n  0x20\n  add\n  0x00\n  keccak256\n    /* \"contracts/AuthService.sol\":663:686  userStatus[3] = \"admin\" */\n  swap1\n  dup1\n  mload\n  swap1\n  0x20\n  add\n  swap1\n  tag_9\n  swap3\n  swap2\n  swap1\n  tag_6\n  jump\t// in\ntag_9:\n  pop\n    /* \"contracts/AuthService.sol\":696:722  userStatus[4] = \"provider\" */\n  mload(0x40)\n  dup1\n  0x40\n  add\n  0x40\n  mstore\n  dup1\n  0x08\n  dup2\n  mstore\n  0x20\n  add\n  0x70726f7669646572000000000000000000000000000000000000000000000000\n  dup2\n  mstore\n  pop\n    /* \"contracts/AuthService.sol\":696:706  userStatus */\n  0x00\n    /* \"contracts/AuthService.sol\":696:709  userStatus[4] */\n  dup1\n    /* \"contracts/AuthService.sol\":707:708  4 */\n  0x04\n    /* \"contracts/AuthService.sol\":696:709  userStatus[4] */\n  dup2\n  mstore\n  0x20\n  add\n  swap1\n  dup2\n  mstore\n  0x20\n  add\n  0x00\n  keccak256\n    /* \"contracts/AuthService.sol\":696:722  userStatus[4] = \"provider\" */\n  swap1\n  dup1\n  mload\n  swap1\n  0x20\n  add\n  swap1\n  tag_10\n  swap3\n  swap2\n  swap1\n  tag_6\n  jump\t// in\ntag_10:\n  pop\n    /* \"contracts/AuthService.sol\":732:754  userStatus[5] = \"bank\" */\n  mload(0x40)\n  dup1\n  0x40\n  add\n  0x40\n  mstore\n  dup1\n  0x04\n  dup2\n  mstore\n  0x20\n  add\n  0x62616e6b00000000000000000000000000000000000000000000000000000000\n  dup2\n  mstore\n  pop\n    /* \"contracts/AuthService.sol\":732:742  userStatus */\n  0x00\n    /* \"contracts/AuthService.sol\":732:745  userStatus[5] */\n  dup1\n    /* \"contracts/AuthService.sol\":743:744  5 */\n  0x05\n    /* \"contracts/AuthService.sol\":732:745  userStatus[5] */\n  dup2\n  mstore\n  0x20\n  add\n  swap1\n  dup2\n  mstore\n  0x20\n  add\n  0x00\n  keccak256\n    /* \"contracts/AuthService.sol\":732:754  userStatus[5] = \"bank\" */\n  swap1\n  dup1\n  mload\n  swap1\n  0x20\n  add\n  swap1\n  tag_11\n  swap3\n  swap2\n  swap1\n  tag_6\n  jump\t// in\ntag_11:\n  pop\n    /* \"contracts/Shops.sol\":885:895  msg.sender */\n  caller\n    /* \"contracts/Shops.sol\":877:882  admin */\n  0x04\n  0x00\n    /* \"contracts/Shops.sol\":877:895  admin = msg.sender */\n  0x0100\n  exp\n  dup2\n  sload\n  dup2\n  0xffffffffffffffffffffffffffffffffffffffff\n  mul\n  not\n  and\n  swap1\n  dup4\n  0xffffffffffffffffffffffffffffffffffffffff\n  and\n  mul\n  or\n  swap1\n  sstore\n  pop\n    /* \"contracts/Shops.sol\":269:6420  contract ShopsSystem is AuthService{... */\n  jump(tag_13)\ntag_6:\n  dup3\n  dup1\n  sload\n  tag_14\n  swap1\n  tag_15\n  jump\t// in\ntag_14:\n  swap1\n  0x00\n  mstore\n  keccak256(0x00, 0x20)\n  swap1\n  0x1f\n  add\n  0x20\n  swap1\n  div\n  dup2\n  add\n  swap3\n  dup3\n  tag_17\n  jumpi\n  0x00\n  dup6\n  sstore\n  jump(tag_16)\ntag_17:\n  dup3\n  0x1f\n  lt\n  tag_18\n  jumpi\n  dup1\n  mload\n  not(0xff)\n  and\n  dup4\n  dup1\n  add\n  or\n  dup6\n  sstore\n  jump(tag_16)\ntag_18:\n  dup3\n  dup1\n  add\n  0x01\n  add\n  dup6\n  sstore\n  dup3\n  iszero\n  tag_16\n  jumpi\n  swap2\n  dup3\n  add\ntag_19:\n  dup3\n  dup2\n  gt\n  iszero\n  tag_20\n  jumpi\n  dup3\n  mload\n  dup3\n  sstore\n  swap2\n  0x20\n  add\n  swap2\n  swap1\n  0x01\n  add\n  swap1\n  jump(tag_19)\ntag_20:\ntag_16:\n  pop\n  swap1\n  pop\n  tag_21\n  swap2\n  swap1\n  tag_22\n  jump\t// in\ntag_21:\n  pop\n  swap1\n  jump\t// out\ntag_22:\ntag_23:\n  dup1\n  dup3\n  gt\n  iszero\n  tag_24\n  jumpi\n  0x00\n  dup2\n  0x00\n  swap1\n  sstore\n  pop\n  0x01\n  add\n  jump(tag_23)\ntag_24:\n  pop\n  swap1\n  jump\t// out\n    /* \"#utility.yul\":7:327   */\ntag_15:\n    /* \"#utility.yul\":51:57   */\n  0x00\n    /* \"#utility.yul\":88:89   */\n  0x02\n    /* \"#utility.yul\":82:86   */\n  dup3\n    /* \"#utility.yul\":78:90   */\n  div\n    /* \"#utility.yul\":68:90   */\n  swap1\n  pop\n    /* \"#utility.yul\":135:136   */\n  0x01\n    /* \"#utility.yul\":129:133   */\n  dup3\n    /* \"#utility.yul\":125:137   */\n  and\n    /* \"#utility.yul\":156:174   */\n  dup1\n    /* \"#utility.yul\":146:227   */\n  tag_27\n  jumpi\n    /* \"#utility.yul\":212:216   */\n  0x7f\n    /* \"#utility.yul\":204:210   */\n  dup3\n    /* \"#utility.yul\":200:217   */\n  and\n    /* \"#utility.yul\":190:217   */\n  swap2\n  pop\n    /* \"#utility.yul\":146:227   */\ntag_27:\n    /* \"#utility.yul\":274:276   */\n  0x20\n    /* \"#utility.yul\":266:272   */\n  dup3\n    /* \"#utility.yul\":263:277   */\n  lt\n    /* \"#utility.yul\":243:261   */\n  dup2\n    /* \"#utility.yul\":240:278   */\n  eq\n    /* \"#utility.yul\":237:321   */\n  iszero\n  tag_28\n  jumpi\n    /* \"#utility.yul\":293:311   */\n  tag_29\n  tag_30\n  jump\t// in\ntag_29:\n    /* \"#utility.yul\":237:321   */\ntag_28:\n    /* \"#utility.yul\":58:327   */\n  pop\n    /* \"#utility.yul\":7:327   */\n  swap2\n  swap1\n  pop\n  jump\t// out\n    /* \"#utility.yul\":333:513   */\ntag_30:\n    /* \"#utility.yul\":381:458   */\n  0x4e487b7100000000000000000000000000000000000000000000000000000000\n    /* \"#utility.yul\":378:379   */\n  0x00\n    /* \"#utility.yul\":371:459   */\n  mstore\n    /* \"#utility.yul\":478:482   */\n  0x22\n    /* \"#utility.yul\":475:476   */\n  0x04\n    /* \"#utility.yul\":468:483   */\n  mstore\n    /* \"#utility.yul\":502:506   */\n  0x24\n    /* \"#utility.yul\":499:500   */\n  0x00\n    /* \"#utility.yul\":492:507   */\n  revert\n    /* \"contracts/Shops.sol\":269:6420  contract ShopsSystem is AuthService{... */\ntag_13:\n  dataSize(sub_0)\n  dup1\n  dataOffset(sub_0)\n  0x00\n  codecopy\n  0x00\n  return\nstop\n\nsub_0: assembly {\n        /* \"contracts/Shops.sol\":269:6420  contract ShopsSystem is AuthService{... */\n      mstore(0x40, 0x80)\n      callvalue\n      dup1\n      iszero\n      tag_1\n      jumpi\n      0x00\n      dup1\n      revert\n    tag_1:\n      pop\n      jumpi(tag_2, lt(calldatasize, 0x04))\n      shr(0xe0, calldataload(0x00))\n      dup1\n      0x7ccb2bd8\n      gt\n      tag_18\n      jumpi\n      dup1\n      0x9d344d10\n      gt\n      tag_19\n      jumpi\n      dup1\n      0x9d344d10\n      eq\n      tag_14\n      jumpi\n      dup1\n      0xa59d105f\n      eq\n      tag_15\n      jumpi\n      dup1\n      0xc3d5fd39\n      eq\n      tag_16\n      jumpi\n      dup1\n      0xf8f98b79\n      eq\n      tag_17\n      jumpi\n      jump(tag_2)\n    tag_19:\n      dup1\n      0x7ccb2bd8\n      eq\n      tag_10\n      jumpi\n      dup1\n      0x83db0f6d\n      eq\n      tag_11\n      jumpi\n      dup1\n      0x8403f848\n      eq\n      tag_12\n      jumpi\n      dup1\n      0x99b958ee\n      eq\n      tag_13\n      jumpi\n      jump(tag_2)\n    tag_18:\n      dup1\n      0x3a7d280c\n      gt\n      tag_20\n      jumpi\n      dup1\n      0x3a7d280c\n      eq\n      tag_6\n      jumpi\n      dup1\n      0x54504c12\n      eq\n      tag_7\n      jumpi\n      dup1\n      0x7558b2f8\n      eq\n      tag_8\n      jumpi\n      dup1\n      0x7b3c7488\n      eq\n      tag_9\n      jumpi\n      jump(tag_2)\n    tag_20:\n      dup1\n      0x08e74858\n      eq\n      tag_3\n      jumpi\n      dup1\n      0x2156a781\n      eq\n      tag_4\n      jumpi\n      dup1\n      0x2d6abf59\n      eq\n      tag_5\n      jumpi\n    tag_2:\n      0x00\n      dup1\n      revert\n        /* \"contracts/Shops.sol\":5337:5950  function getSellerInfoByAddr(address sellerAddr) public view isUserStatus(UserRoles.admin)returns(... */\n    tag_3:\n      tag_21\n      0x04\n      dup1\n      calldatasize\n      sub\n      dup2\n      add\n      swap1\n      tag_22\n      swap2\n      swap1\n      tag_23\n      jump\t// in\n    tag_22:\n      tag_24\n      jump\t// in\n    tag_21:\n      mload(0x40)\n      tag_25\n      swap6\n      swap5\n      swap4\n      swap3\n      swap2\n      swap1\n      tag_26\n      jump\t// in\n    tag_25:\n      mload(0x40)\n      dup1\n      swap2\n      sub\n      swap1\n      return\n        /* \"contracts/Shops.sol\":2521:2708  function registerBank(string memory bankLogin,address bankAddr) public isAdmin {... */\n    tag_4:\n      tag_27\n      0x04\n      dup1\n      calldatasize\n      sub\n      dup2\n      add\n      swap1\n      tag_28\n      swap2\n      swap1\n      tag_29\n      jump\t// in\n    tag_28:\n      tag_30\n      jump\t// in\n    tag_27:\n      stop\n        /* \"contracts/Shops.sol\":5956:6272  function createReview(... */\n    tag_5:\n      tag_31\n      0x04\n      dup1\n      calldatasize\n      sub\n      dup2\n      add\n      swap1\n      tag_32\n      swap2\n      swap1\n      tag_33\n      jump\t// in\n    tag_32:\n      tag_34\n      jump\t// in\n    tag_31:\n      stop\n        /* \"contracts/AuthService.sol\":2244:2544  function login(string memory userLogin) public view isRegistered(userLogin) returns(address userAddress,string memory status){... */\n    tag_6:\n      tag_35\n      0x04\n      dup1\n      calldatasize\n      sub\n      dup2\n      add\n      swap1\n      tag_36\n      swap2\n      swap1\n      tag_37\n      jump\t// in\n    tag_36:\n      tag_38\n      jump\t// in\n    tag_35:\n      mload(0x40)\n      tag_39\n      swap3\n      swap2\n      swap1\n      tag_40\n      jump\t// in\n    tag_39:\n      mload(0x40)\n      dup1\n      swap2\n      sub\n      swap1\n      return\n        /* \"contracts/Shops.sol\":3717:4308  function getSellerInfo() public view isUserStatus(UserRoles.seller) returns(... */\n    tag_7:\n      tag_41\n      tag_42\n      jump\t// in\n    tag_41:\n      mload(0x40)\n      tag_43\n      swap6\n      swap5\n      swap4\n      swap3\n      swap2\n      swap1\n      tag_26\n      jump\t// in\n    tag_43:\n      mload(0x40)\n      dup1\n      swap2\n      sub\n      swap1\n      return\n        /* \"contracts/Shops.sol\":1751:2102  function registerShop(address shopAddr,string memory number,string memory city,string memory shopLogin) public isUserStatus(UserRoles.admin){... */\n    tag_8:\n      tag_44\n      0x04\n      dup1\n      calldatasize\n      sub\n      dup2\n      add\n      swap1\n      tag_45\n      swap2\n      swap1\n      tag_46\n      jump\t// in\n    tag_45:\n      tag_47\n      jump\t// in\n    tag_44:\n      stop\n        /* \"contracts/Shops.sol\":6278:6360  function likeReview(string memory id) public isUser {... */\n    tag_9:\n      tag_48\n      0x04\n      dup1\n      calldatasize\n      sub\n      dup2\n      add\n      swap1\n      tag_49\n      swap2\n      swap1\n      tag_37\n      jump\t// in\n    tag_49:\n      tag_50\n      jump\t// in\n    tag_48:\n      stop\n        /* \"contracts/Shops.sol\":2202:2446  function registerProvider(string memory providerLogin,address providerAddr) public isAdmin {... */\n    tag_10:\n      tag_51\n      0x04\n      dup1\n      calldatasize\n      sub\n      dup2\n      add\n      swap1\n      tag_52\n      swap2\n      swap1\n      tag_29\n      jump\t// in\n    tag_52:\n      tag_53\n      jump\t// in\n    tag_51:\n      stop\n        /* \"contracts/Shops.sol\":3438:3641  function doShopDebt(address payable shopAddr) public isUserStatus(UserRoles.bank) {... */\n    tag_11:\n      tag_54\n      0x04\n      dup1\n      calldatasize\n      sub\n      dup2\n      add\n      swap1\n      tag_55\n      swap2\n      swap1\n      tag_56\n      jump\t// in\n    tag_55:\n      tag_57\n      jump\t// in\n    tag_54:\n      stop\n        /* \"contracts/Shops.sol\":2771:3077  function registerSeller(string memory fio,string memory userLogin,address userAddress,address shopAddr) public {... */\n    tag_12:\n      tag_58\n      0x04\n      dup1\n      calldatasize\n      sub\n      dup2\n      add\n      swap1\n      tag_59\n      swap2\n      swap1\n      tag_60\n      jump\t// in\n    tag_59:\n      tag_61\n      jump\t// in\n    tag_58:\n      stop\n        /* \"contracts/Shops.sol\":4407:4771  function getBuyerInfo() public view isUser returns(... */\n    tag_13:\n      tag_62\n      tag_63\n      jump\t// in\n    tag_62:\n      mload(0x40)\n      tag_64\n      swap5\n      swap4\n      swap3\n      swap2\n      swap1\n      tag_65\n      jump\t// in\n    tag_64:\n      mload(0x40)\n      dup1\n      swap2\n      sub\n      swap1\n      return\n        /* \"contracts/Shops.sol\":3144:3343  function registerBuyer(string memory fio,string memory userLogin,address userAddr) public{... */\n    tag_14:\n      tag_66\n      0x04\n      dup1\n      calldatasize\n      sub\n      dup2\n      add\n      swap1\n      tag_67\n      swap2\n      swap1\n      tag_68\n      jump\t// in\n    tag_67:\n      tag_69\n      jump\t// in\n    tag_66:\n      stop\n        /* \"contracts/Shops.sol\":1432:1690  function regAdmin(address adminAddr,string memory fio,string memory userLogin) public isUserStatus(UserRoles.admin){... */\n    tag_15:\n      tag_70\n      0x04\n      dup1\n      calldatasize\n      sub\n      dup2\n      add\n      swap1\n      tag_71\n      swap2\n      swap1\n      tag_72\n      jump\t// in\n    tag_71:\n      tag_73\n      jump\t// in\n    tag_70:\n      stop\n        /* \"contracts/Shops.sol\":4841:5240  function getAdminInfo() public view isUserStatus(UserRoles.admin) returns(... */\n    tag_16:\n      tag_74\n      tag_75\n      jump\t// in\n    tag_74:\n      mload(0x40)\n      tag_76\n      swap5\n      swap4\n      swap3\n      swap2\n      swap1\n      tag_77\n      jump\t// in\n    tag_76:\n      mload(0x40)\n      dup1\n      swap2\n      sub\n      swap1\n      return\n        /* \"contracts/Shops.sol\":1116:1341  function registerAdmin(string memory fio,string memory userLogin) isAdmin public {... */\n    tag_17:\n      tag_78\n      0x04\n      dup1\n      calldatasize\n      sub\n      dup2\n      add\n      swap1\n      tag_79\n      swap2\n      swap1\n      tag_80\n      jump\t// in\n    tag_79:\n      tag_81\n      jump\t// in\n    tag_78:\n      stop\n        /* \"contracts/Shops.sol\":5337:5950  function getSellerInfoByAddr(address sellerAddr) public view isUserStatus(UserRoles.admin)returns(... */\n    tag_24:\n        /* \"contracts/Shops.sol\":5444:5469  string memory sellerLogin */\n      0x60\n        /* \"contracts/Shops.sol\":5479:5496  string memory fio */\n      dup1\n        /* \"contracts/Shops.sol\":5506:5524  string memory city */\n      0x60\n        /* \"contracts/Shops.sol\":5534:5558  string memory shopNumber */\n      dup1\n        /* \"contracts/Shops.sol\":5568:5591  string[] memory reviews */\n      0x60\n        /* \"contracts/Shops.sol\":5411:5426  UserRoles.admin */\n      0x03\n        /* \"contracts/AuthService.sol\":1605:1610  users */\n      0x02\n        /* \"contracts/AuthService.sol\":1605:1622  users[msg.sender] */\n      0x00\n        /* \"contracts/AuthService.sol\":1611:1621  msg.sender */\n      caller\n        /* \"contracts/AuthService.sol\":1605:1622  users[msg.sender] */\n      0xffffffffffffffffffffffffffffffffffffffff\n      and\n      0xffffffffffffffffffffffffffffffffffffffff\n      and\n      dup2\n      mstore\n      0x20\n      add\n      swap1\n      dup2\n      mstore\n      0x20\n      add\n      0x00\n      keccak256\n        /* \"contracts/AuthService.sol\":1605:1629  users[msg.sender].status */\n      0x00\n      add\n      sload\n        /* \"contracts/AuthService.sol\":1594:1600  status */\n      dup2\n        /* \"contracts/AuthService.sol\":1589:1601  uint(status) */\n      0x05\n      dup2\n      gt\n      iszero\n      tag_83\n      jumpi\n      tag_84\n      tag_85\n      jump\t// in\n    tag_84:\n    tag_83:\n        /* \"contracts/AuthService.sol\":1589:1629  uint(status) == users[msg.sender].status */\n      eq\n        /* \"contracts/AuthService.sol\":1581:1642  require(uint(status) == users[msg.sender].status,\"Forbidden\") */\n      tag_86\n      jumpi\n      mload(0x40)\n      0x08c379a000000000000000000000000000000000000000000000000000000000\n      dup2\n      mstore\n      0x04\n      add\n      tag_87\n      swap1\n      tag_88\n      jump\t// in\n    tag_87:\n      mload(0x40)\n      dup1\n      swap2\n      sub\n      swap1\n      revert\n    tag_86:\n        /* \"contracts/Shops.sol\":5607:5627  User memory sellUser */\n      0x00\n        /* \"contracts/Shops.sol\":5630:5635  users */\n      0x02\n        /* \"contracts/Shops.sol\":5630:5647  users[sellerAddr] */\n      0x00\n        /* \"contracts/Shops.sol\":5636:5646  sellerAddr */\n      dup10\n        /* \"contracts/Shops.sol\":5630:5647  users[sellerAddr] */\n      0xffffffffffffffffffffffffffffffffffffffff\n      and\n      0xffffffffffffffffffffffffffffffffffffffff\n      and\n      dup2\n      mstore\n      0x20\n      add\n      swap1\n      dup2\n      mstore\n      0x20\n      add\n      0x00\n      keccak256\n        /* \"contracts/Shops.sol\":5607:5647  User memory sellUser = users[sellerAddr] */\n      mload(0x40)\n      dup1\n      0x80\n      add\n      0x40\n      mstore\n      swap1\n      dup2\n      0x00\n      dup3\n      add\n      sload\n      dup2\n      mstore\n      0x20\n      add\n      0x01\n      dup3\n      add\n      dup1\n      sload\n      tag_90\n      swap1\n      tag_91\n      jump\t// in\n    tag_90:\n      dup1\n      0x1f\n      add\n      0x20\n      dup1\n      swap2\n      div\n      mul\n      0x20\n      add\n      mload(0x40)\n      swap1\n      dup2\n      add\n      0x40\n      mstore\n      dup1\n      swap3\n      swap2\n      swap1\n      dup2\n      dup2\n      mstore\n      0x20\n      add\n      dup3\n      dup1\n      sload\n      tag_92\n      swap1\n      tag_91\n      jump\t// in\n    tag_92:\n      dup1\n      iszero\n      tag_93\n      jumpi\n      dup1\n      0x1f\n      lt\n      tag_94\n      jumpi\n      0x0100\n      dup1\n      dup4\n      sload\n      div\n      mul\n      dup4\n      mstore\n      swap2\n      0x20\n      add\n      swap2\n      jump(tag_93)\n    tag_94:\n      dup3\n      add\n      swap2\n      swap1\n      0x00\n      mstore\n      keccak256(0x00, 0x20)\n      swap1\n    tag_95:\n      dup2\n      sload\n      dup2\n      mstore\n      swap1\n      0x01\n      add\n      swap1\n      0x20\n      add\n      dup1\n      dup4\n      gt\n      tag_95\n      jumpi\n      dup3\n      swap1\n      sub\n      0x1f\n      and\n      dup3\n      add\n      swap2\n    tag_93:\n      pop\n      pop\n      pop\n      pop\n      pop\n      dup2\n      mstore\n      0x20\n      add\n      0x02\n      dup3\n      add\n      dup1\n      sload\n      tag_96\n      swap1\n      tag_91\n      jump\t// in\n    tag_96:\n      dup1\n      0x1f\n      add\n      0x20\n      dup1\n      swap2\n      div\n      mul\n      0x20\n      add\n      mload(0x40)\n      swap1\n      dup2\n      add\n      0x40\n      mstore\n      dup1\n      swap3\n      swap2\n      swap1\n      dup2\n      dup2\n      mstore\n      0x20\n      add\n      dup3\n      dup1\n      sload\n      tag_97\n      swap1\n      tag_91\n      jump\t// in\n    tag_97:\n      dup1\n      iszero\n      tag_98\n      jumpi\n      dup1\n      0x1f\n      lt\n      tag_99\n      jumpi\n      0x0100\n      dup1\n      dup4\n      sload\n      div\n      mul\n      dup4\n      mstore\n      swap2\n      0x20\n      add\n      swap2\n      jump(tag_98)\n    tag_99:\n      dup3\n      add\n      swap2\n      swap1\n      0x00\n      mstore\n      keccak256(0x00, 0x20)\n      swap1\n    tag_100:\n      dup2\n      sload\n      dup2\n      mstore\n      swap1\n      0x01\n      add\n      swap1\n      0x20\n      add\n      dup1\n      dup4\n      gt\n      tag_100\n      jumpi\n      dup3\n      swap1\n      sub\n      0x1f\n      and\n      dup3\n      add\n      swap2\n    tag_98:\n      pop\n      pop\n      pop\n      pop\n      pop\n      dup2\n      mstore\n      0x20\n      add\n      0x03\n      dup3\n      add\n      dup1\n      sload\n      dup1\n      0x20\n      mul\n      0x20\n      add\n      mload(0x40)\n      swap1\n      dup2\n      add\n      0x40\n      mstore\n      dup1\n      swap3\n      swap2\n      swap1\n      dup2\n      dup2\n      mstore\n      0x20\n      add\n      0x00\n      swap1\n    tag_101:\n      dup3\n      dup3\n      lt\n      iszero\n      tag_102\n      jumpi\n      dup4\n      dup3\n      swap1\n      0x00\n      mstore\n      keccak256(0x00, 0x20)\n      add\n      dup1\n      sload\n      tag_104\n      swap1\n      tag_91\n      jump\t// in\n    tag_104:\n      dup1\n      0x1f\n      add\n      0x20\n      dup1\n      swap2\n      div\n      mul\n      0x20\n      add\n      mload(0x40)\n      swap1\n      dup2\n      add\n      0x40\n      mstore\n      dup1\n      swap3\n      swap2\n      swap1\n      dup2\n      dup2\n      mstore\n      0x20\n      add\n      dup3\n      dup1\n      sload\n      tag_105\n      swap1\n      tag_91\n      jump\t// in\n    tag_105:\n      dup1\n      iszero\n      tag_106\n      jumpi\n      dup1\n      0x1f\n      lt\n      tag_107\n      jumpi\n      0x0100\n      dup1\n      dup4\n      sload\n      div\n      mul\n      dup4\n      mstore\n      swap2\n      0x20\n      add\n      swap2\n      jump(tag_106)\n    tag_107:\n      dup3\n      add\n      swap2\n      swap1\n      0x00\n      mstore\n      keccak256(0x00, 0x20)\n      swap1\n    tag_108:\n      dup2\n      sload\n      dup2\n      mstore\n      swap1\n      0x01\n      add\n      swap1\n      0x20\n      add\n      dup1\n      dup4\n      gt\n      tag_108\n      jumpi\n      dup3\n      swap1\n      sub\n      0x1f\n      and\n      dup3\n      add\n      swap2\n    tag_106:\n      pop\n      pop\n      pop\n      pop\n      pop\n      dup2\n      mstore\n      0x20\n      add\n      swap1\n      0x01\n      add\n      swap1\n      jump(tag_101)\n    tag_102:\n      pop\n      pop\n      pop\n      pop\n      dup2\n      mstore\n      pop\n      pop\n      swap1\n      pop\n        /* \"contracts/Shops.sol\":5657:5677  address sellShopAddr */\n      0x00\n        /* \"contracts/Shops.sol\":5680:5692  salesmanShop */\n      0x0b\n        /* \"contracts/Shops.sol\":5680:5704  salesmanShop[sellerAddr] */\n      0x00\n        /* \"contracts/Shops.sol\":5693:5703  sellerAddr */\n      dup11\n        /* \"contracts/Shops.sol\":5680:5704  salesmanShop[sellerAddr] */\n      0xffffffffffffffffffffffffffffffffffffffff\n      and\n      0xffffffffffffffffffffffffffffffffffffffff\n      and\n      dup2\n      mstore\n      0x20\n      add\n      swap1\n      dup2\n      mstore\n      0x20\n      add\n      0x00\n      keccak256\n      0x00\n      swap1\n      sload\n      swap1\n      0x0100\n      exp\n      swap1\n      div\n      0xffffffffffffffffffffffffffffffffffffffff\n      and\n        /* \"contracts/Shops.sol\":5657:5704  address sellShopAddr = salesmanShop[sellerAddr] */\n      swap1\n      pop\n        /* \"contracts/Shops.sol\":5714:5734  Shop memory sellShop */\n      0x00\n        /* \"contracts/Shops.sol\":5737:5746  ShopsList */\n      0x0a\n        /* \"contracts/Shops.sol\":5737:5760  ShopsList[sellShopAddr] */\n      0x00\n        /* \"contracts/Shops.sol\":5747:5759  sellShopAddr */\n      dup4\n        /* \"contracts/Shops.sol\":5737:5760  ShopsList[sellShopAddr] */\n      0xffffffffffffffffffffffffffffffffffffffff\n      and\n      0xffffffffffffffffffffffffffffffffffffffff\n      and\n      dup2\n      mstore\n      0x20\n      add\n      swap1\n      dup2\n      mstore\n      0x20\n      add\n      0x00\n      keccak256\n        /* \"contracts/Shops.sol\":5714:5760  Shop memory sellShop = ShopsList[sellShopAddr] */\n      mload(0x40)\n      dup1\n      0x60\n      add\n      0x40\n      mstore\n      swap1\n      dup2\n      0x00\n      dup3\n      add\n      dup1\n      sload\n      tag_109\n      swap1\n      tag_91\n      jump\t// in\n    tag_109:\n      dup1\n      0x1f\n      add\n      0x20\n      dup1\n      swap2\n      div\n      mul\n      0x20\n      add\n      mload(0x40)\n      swap1\n      dup2\n      add\n      0x40\n      mstore\n      dup1\n      swap3\n      swap2\n      swap1\n      dup2\n      dup2\n      mstore\n      0x20\n      add\n      dup3\n      dup1\n      sload\n      tag_110\n      swap1\n      tag_91\n      jump\t// in\n    tag_110:\n      dup1\n      iszero\n      tag_111\n      jumpi\n      dup1\n      0x1f\n      lt\n      tag_112\n      jumpi\n      0x0100\n      dup1\n      dup4\n      sload\n      div\n      mul\n      dup4\n      mstore\n      swap2\n      0x20\n      add\n      swap2\n      jump(tag_111)\n    tag_112:\n      dup3\n      add\n      swap2\n      swap1\n      0x00\n      mstore\n      keccak256(0x00, 0x20)\n      swap1\n    tag_113:\n      dup2\n      sload\n      dup2\n      mstore\n      swap1\n      0x01\n      add\n      swap1\n      0x20\n      add\n      dup1\n      dup4\n      gt\n      tag_113\n      jumpi\n      dup3\n      swap1\n      sub\n      0x1f\n      and\n      dup3\n      add\n      swap2\n    tag_111:\n      pop\n      pop\n      pop\n      pop\n      pop\n      dup2\n      mstore\n      0x20\n      add\n      0x01\n      dup3\n      add\n      dup1\n      sload\n      tag_114\n      swap1\n      tag_91\n      jump\t// in\n    tag_114:\n      dup1\n      0x1f\n      add\n      0x20\n      dup1\n      swap2\n      div\n      mul\n      0x20\n      add\n      mload(0x40)\n      swap1\n      dup2\n      add\n      0x40\n      mstore\n      dup1\n      swap3\n      swap2\n      swap1\n      dup2\n      dup2\n      mstore\n      0x20\n      add\n      dup3\n      dup1\n      sload\n      tag_115\n      swap1\n      tag_91\n      jump\t// in\n    tag_115:\n      dup1\n      iszero\n      tag_116\n      jumpi\n      dup1\n      0x1f\n      lt\n      tag_117\n      jumpi\n      0x0100\n      dup1\n      dup4\n      sload\n      div\n      mul\n      dup4\n      mstore\n      swap2\n      0x20\n      add\n      swap2\n      jump(tag_116)\n    tag_117:\n      dup3\n      add\n      swap2\n      swap1\n      0x00\n      mstore\n      keccak256(0x00, 0x20)\n      swap1\n    tag_118:\n      dup2\n      sload\n      dup2\n      mstore\n      swap1\n      0x01\n      add\n      swap1\n      0x20\n      add\n      dup1\n      dup4\n      gt\n      tag_118\n      jumpi\n      dup3\n      swap1\n      sub\n      0x1f\n      and\n      dup3\n      add\n      swap2\n    tag_116:\n      pop\n      pop\n      pop\n      pop\n      pop\n      dup2\n      mstore\n      0x20\n      add\n      0x02\n      dup3\n      add\n      sload\n      dup2\n      mstore\n      pop\n      pop\n      swap1\n      pop\n        /* \"contracts/Shops.sol\":5793:5801  sellUser */\n      dup3\n        /* \"contracts/Shops.sol\":5793:5811  sellUser.userLogin */\n      0x20\n      add\n      mload\n        /* \"contracts/Shops.sol\":5779:5811  sellerLogin = sellUser.userLogin */\n      swap9\n      pop\n        /* \"contracts/Shops.sol\":5827:5835  sellUser */\n      dup3\n        /* \"contracts/Shops.sol\":5827:5839  sellUser.fio */\n      0x40\n      add\n      mload\n        /* \"contracts/Shops.sol\":5821:5839  fio = sellUser.fio */\n      swap8\n      pop\n        /* \"contracts/Shops.sol\":5856:5864  sellShop */\n      dup1\n        /* \"contracts/Shops.sol\":5856:5869  sellShop.city */\n      0x20\n      add\n      mload\n        /* \"contracts/Shops.sol\":5849:5869  city = sellShop.city */\n      swap7\n      pop\n        /* \"contracts/Shops.sol\":5892:5900  sellShop */\n      dup1\n        /* \"contracts/Shops.sol\":5892:5907  sellShop.number */\n      0x00\n      add\n      mload\n        /* \"contracts/Shops.sol\":5879:5907  shopNumber = sellShop.number */\n      swap6\n      pop\n        /* \"contracts/Shops.sol\":5927:5935  sellUser */\n      dup3\n        /* \"contracts/Shops.sol\":5927:5943  sellUser.reviews */\n      0x60\n      add\n      mload\n        /* \"contracts/Shops.sol\":5917:5943  reviews = sellUser.reviews */\n      swap5\n      pop\n        /* \"contracts/Shops.sol\":5597:5950  {... */\n      pop\n      pop\n      pop\n        /* \"contracts/Shops.sol\":5337:5950  function getSellerInfoByAddr(address sellerAddr) public view isUserStatus(UserRoles.admin)returns(... */\n      pop\n      swap2\n      swap4\n      swap6\n      swap1\n      swap3\n      swap5\n      pop\n      jump\t// out\n        /* \"contracts/Shops.sol\":2521:2708  function registerBank(string memory bankLogin,address bankAddr) public isAdmin {... */\n    tag_30:\n        /* \"contracts/Shops.sol\":958:963  admin */\n      0x04\n      0x00\n      swap1\n      sload\n      swap1\n      0x0100\n      exp\n      swap1\n      div\n      0xffffffffffffffffffffffffffffffffffffffff\n      and\n        /* \"contracts/Shops.sol\":944:963  msg.sender == admin */\n      0xffffffffffffffffffffffffffffffffffffffff\n      and\n        /* \"contracts/Shops.sol\":944:954  msg.sender */\n      caller\n        /* \"contracts/Shops.sol\":944:963  msg.sender == admin */\n      0xffffffffffffffffffffffffffffffffffffffff\n      and\n      eq\n        /* \"contracts/Shops.sol\":936:980  require(msg.sender == admin,\"You not admin\") */\n      tag_120\n      jumpi\n      mload(0x40)\n      0x08c379a000000000000000000000000000000000000000000000000000000000\n      dup2\n      mstore\n      0x04\n      add\n      tag_121\n      swap1\n      tag_122\n      jump\t// in\n    tag_121:\n      mload(0x40)\n      dup1\n      swap2\n      sub\n      swap1\n      revert\n    tag_120:\n        /* \"contracts/Shops.sol\":2610:2621  uint status */\n      0x00\n        /* \"contracts/Shops.sol\":2629:2643  UserRoles.bank */\n      0x05\n        /* \"contracts/Shops.sol\":2624:2644  uint(UserRoles.bank) */\n      dup1\n      dup2\n      gt\n      iszero\n      tag_124\n      jumpi\n      tag_125\n      tag_85\n      jump\t// in\n    tag_125:\n    tag_124:\n        /* \"contracts/Shops.sol\":2610:2644  uint status = uint(UserRoles.bank) */\n      swap1\n      pop\n        /* \"contracts/Shops.sol\":2654:2701  registerFromAdmin(\"\",bankLogin,status,bankAddr) */\n      tag_126\n      mload(0x40)\n      dup1\n      0x20\n      add\n      0x40\n      mstore\n      dup1\n      0x00\n      dup2\n      mstore\n      pop\n        /* \"contracts/Shops.sol\":2675:2684  bankLogin */\n      dup5\n        /* \"contracts/Shops.sol\":2685:2691  status */\n      dup4\n        /* \"contracts/Shops.sol\":2692:2700  bankAddr */\n      dup6\n        /* \"contracts/Shops.sol\":2654:2671  registerFromAdmin */\n      tag_127\n        /* \"contracts/Shops.sol\":2654:2701  registerFromAdmin(\"\",bankLogin,status,bankAddr) */\n      jump\t// in\n    tag_126:\n        /* \"contracts/Shops.sol\":2600:2708  {... */\n      pop\n        /* \"contracts/Shops.sol\":2521:2708  function registerBank(string memory bankLogin,address bankAddr) public isAdmin {... */\n      pop\n      pop\n      jump\t// out\n        /* \"contracts/Shops.sol\":5956:6272  function createReview(... */\n    tag_34:\n        /* \"contracts/AuthService.sol\":1453:1492  compare(users[msg.sender].userLogin,\"\") */\n      tag_129\n        /* \"contracts/AuthService.sol\":1461:1466  users */\n      0x02\n        /* \"contracts/AuthService.sol\":1461:1478  users[msg.sender] */\n      0x00\n        /* \"contracts/AuthService.sol\":1467:1477  msg.sender */\n      caller\n        /* \"contracts/AuthService.sol\":1461:1478  users[msg.sender] */\n      0xffffffffffffffffffffffffffffffffffffffff\n      and\n      0xffffffffffffffffffffffffffffffffffffffff\n      and\n      dup2\n      mstore\n      0x20\n      add\n      swap1\n      dup2\n      mstore\n      0x20\n      add\n      0x00\n      keccak256\n        /* \"contracts/AuthService.sol\":1461:1488  users[msg.sender].userLogin */\n      0x01\n      add\n        /* \"contracts/AuthService.sol\":1453:1492  compare(users[msg.sender].userLogin,\"\") */\n      dup1\n      sload\n      tag_130\n      swap1\n      tag_91\n      jump\t// in\n    tag_130:\n      dup1\n      0x1f\n      add\n      0x20\n      dup1\n      swap2\n      div\n      mul\n      0x20\n      add\n      mload(0x40)\n      swap1\n      dup2\n      add\n      0x40\n      mstore\n      dup1\n      swap3\n      swap2\n      swap1\n      dup2\n      dup2\n      mstore\n      0x20\n      add\n      dup3\n      dup1\n      sload\n      tag_131\n      swap1\n      tag_91\n      jump\t// in\n    tag_131:\n      dup1\n      iszero\n      tag_132\n      jumpi\n      dup1\n      0x1f\n      lt\n      tag_133\n      jumpi\n      0x0100\n      dup1\n      dup4\n      sload\n      div\n      mul\n      dup4\n      mstore\n      swap2\n      0x20\n      add\n      swap2\n      jump(tag_132)\n    tag_133:\n      dup3\n      add\n      swap2\n      swap1\n      0x00\n      mstore\n      keccak256(0x00, 0x20)\n      swap1\n    tag_134:\n      dup2\n      sload\n      dup2\n      mstore\n      swap1\n      0x01\n      add\n      swap1\n      0x20\n      add\n      dup1\n      dup4\n      gt\n      tag_134\n      jumpi\n      dup3\n      swap1\n      sub\n      0x1f\n      and\n      dup3\n      add\n      swap2\n    tag_132:\n      pop\n      pop\n      pop\n      pop\n      pop\n      mload(0x40)\n      dup1\n      0x20\n      add\n      0x40\n      mstore\n      dup1\n      0x00\n      dup2\n      mstore\n      pop\n        /* \"contracts/AuthService.sol\":1453:1460  compare */\n      tag_135\n        /* \"contracts/AuthService.sol\":1453:1492  compare(users[msg.sender].userLogin,\"\") */\n      jump\t// in\n    tag_129:\n        /* \"contracts/AuthService.sol\":1452:1492  !compare(users[msg.sender].userLogin,\"\") */\n      iszero\n        /* \"contracts/AuthService.sol\":1444:1508  require(!compare(users[msg.sender].userLogin,\"\"),\"You not user\") */\n      tag_136\n      jumpi\n      mload(0x40)\n      0x08c379a000000000000000000000000000000000000000000000000000000000\n      dup2\n      mstore\n      0x04\n      add\n      tag_137\n      swap1\n      tag_138\n      jump\t// in\n    tag_137:\n      mload(0x40)\n      dup1\n      swap2\n      sub\n      swap1\n      revert\n    tag_136:\n        /* \"contracts/Shops.sol\":6114:6138  Review memory userReview */\n      0x00\n        /* \"contracts/Shops.sol\":6141:6190  Review(msg.sender,shopAddr,userMessage,0,0,grade) */\n      mload(0x40)\n      dup1\n      0xc0\n      add\n      0x40\n      mstore\n      dup1\n        /* \"contracts/Shops.sol\":6148:6158  msg.sender */\n      caller\n        /* \"contracts/Shops.sol\":6141:6190  Review(msg.sender,shopAddr,userMessage,0,0,grade) */\n      0xffffffffffffffffffffffffffffffffffffffff\n      and\n      dup2\n      mstore\n      0x20\n      add\n        /* \"contracts/Shops.sol\":6159:6167  shopAddr */\n      dup7\n        /* \"contracts/Shops.sol\":6141:6190  Review(msg.sender,shopAddr,userMessage,0,0,grade) */\n      0xffffffffffffffffffffffffffffffffffffffff\n      and\n      dup2\n      mstore\n      0x20\n      add\n        /* \"contracts/Shops.sol\":6168:6179  userMessage */\n      dup6\n        /* \"contracts/Shops.sol\":6141:6190  Review(msg.sender,shopAddr,userMessage,0,0,grade) */\n      dup2\n      mstore\n      0x20\n      add\n        /* \"contracts/Shops.sol\":6180:6181  0 */\n      0x00\n        /* \"contracts/Shops.sol\":6141:6190  Review(msg.sender,shopAddr,userMessage,0,0,grade) */\n      dup2\n      mstore\n      0x20\n      add\n        /* \"contracts/Shops.sol\":6182:6183  0 */\n      0x00\n        /* \"contracts/Shops.sol\":6141:6190  Review(msg.sender,shopAddr,userMessage,0,0,grade) */\n      dup2\n      mstore\n      0x20\n      add\n        /* \"contracts/Shops.sol\":6184:6189  grade */\n      dup4\n        /* \"contracts/Shops.sol\":6141:6190  Review(msg.sender,shopAddr,userMessage,0,0,grade) */\n      dup2\n      mstore\n      pop\n        /* \"contracts/Shops.sol\":6114:6190  Review memory userReview = Review(msg.sender,shopAddr,userMessage,0,0,grade) */\n      swap1\n      pop\n        /* \"contracts/Shops.sol\":6200:6211  shopReviews */\n      0x0d\n        /* \"contracts/Shops.sol\":6200:6221  shopReviews[shopAddr] */\n      0x00\n        /* \"contracts/Shops.sol\":6212:6220  shopAddr */\n      dup7\n        /* \"contracts/Shops.sol\":6200:6221  shopReviews[shopAddr] */\n      0xffffffffffffffffffffffffffffffffffffffff\n      and\n      0xffffffffffffffffffffffffffffffffffffffff\n      and\n      dup2\n      mstore\n      0x20\n      add\n      swap1\n      dup2\n      mstore\n      0x20\n      add\n      0x00\n      keccak256\n        /* \"contracts/Shops.sol\":6227:6229  id */\n      dup4\n        /* \"contracts/Shops.sol\":6200:6230  shopReviews[shopAddr].push(id) */\n      swap1\n      dup1\n      0x01\n      dup2\n      sload\n      add\n      dup1\n      dup3\n      sstore\n      dup1\n      swap2\n      pop\n      pop\n      0x01\n      swap1\n      sub\n      swap1\n      0x00\n      mstore\n      keccak256(0x00, 0x20)\n      add\n      0x00\n      swap1\n      swap2\n      swap1\n      swap2\n      swap1\n      swap2\n      pop\n      swap1\n      dup1\n      mload\n      swap1\n      0x20\n      add\n      swap1\n      tag_141\n      swap3\n      swap2\n      swap1\n      tag_142\n      jump\t// in\n    tag_141:\n      pop\n        /* \"contracts/Shops.sol\":6255:6265  userReview */\n      dup1\n        /* \"contracts/Shops.sol\":6240:6248  reviewId */\n      0x0e\n        /* \"contracts/Shops.sol\":6249:6251  id */\n      dup5\n        /* \"contracts/Shops.sol\":6240:6252  reviewId[id] */\n      mload(0x40)\n      tag_143\n      swap2\n      swap1\n      tag_144\n      jump\t// in\n    tag_143:\n      swap1\n      dup2\n      mstore\n      0x20\n      add\n      mload(0x40)\n      dup1\n      swap2\n      sub\n      swap1\n      keccak256\n        /* \"contracts/Shops.sol\":6240:6265  reviewId[id] = userReview */\n      0x00\n      dup3\n      add\n      mload\n      dup2\n      0x00\n      add\n      exp(0x0100, 0x00)\n      dup2\n      sload\n      dup2\n      0xffffffffffffffffffffffffffffffffffffffff\n      mul\n      not\n      and\n      swap1\n      dup4\n      0xffffffffffffffffffffffffffffffffffffffff\n      and\n      mul\n      or\n      swap1\n      sstore\n      pop\n      0x20\n      dup3\n      add\n      mload\n      dup2\n      0x01\n      add\n      exp(0x0100, 0x00)\n      dup2\n      sload\n      dup2\n      0xffffffffffffffffffffffffffffffffffffffff\n      mul\n      not\n      and\n      swap1\n      dup4\n      0xffffffffffffffffffffffffffffffffffffffff\n      and\n      mul\n      or\n      swap1\n      sstore\n      pop\n      0x40\n      dup3\n      add\n      mload\n      dup2\n      0x02\n      add\n      swap1\n      dup1\n      mload\n      swap1\n      0x20\n      add\n      swap1\n      tag_145\n      swap3\n      swap2\n      swap1\n      tag_142\n      jump\t// in\n    tag_145:\n      pop\n      0x60\n      dup3\n      add\n      mload\n      dup2\n      0x03\n      add\n      sstore\n      0x80\n      dup3\n      add\n      mload\n      dup2\n      0x04\n      add\n      sstore\n      0xa0\n      dup3\n      add\n      mload\n      dup2\n      0x05\n      add\n      sstore\n      swap1\n      pop\n      pop\n        /* \"contracts/Shops.sol\":6104:6272  {... */\n      pop\n        /* \"contracts/Shops.sol\":5956:6272  function createReview(... */\n      pop\n      pop\n      pop\n      pop\n      jump\t// out\n        /* \"contracts/AuthService.sol\":2244:2544  function login(string memory userLogin) public view isRegistered(userLogin) returns(address userAddress,string memory status){... */\n    tag_38:\n        /* \"contracts/AuthService.sol\":2328:2347  address userAddress */\n      0x00\n        /* \"contracts/AuthService.sol\":2348:2368  string memory status */\n      0x60\n        /* \"contracts/AuthService.sol\":2309:2318  userLogin */\n      dup3\n        /* \"contracts/AuthService.sol\":1376:1377  0 */\n      0x00\n        /* \"contracts/AuthService.sol\":1343:1378  userLogins[userLogin] != address(0) */\n      0xffffffffffffffffffffffffffffffffffffffff\n      and\n        /* \"contracts/AuthService.sol\":1343:1353  userLogins */\n      0x01\n        /* \"contracts/AuthService.sol\":1354:1363  userLogin */\n      dup3\n        /* \"contracts/AuthService.sol\":1343:1364  userLogins[userLogin] */\n      mload(0x40)\n      tag_147\n      swap2\n      swap1\n      tag_144\n      jump\t// in\n    tag_147:\n      swap1\n      dup2\n      mstore\n      0x20\n      add\n      mload(0x40)\n      dup1\n      swap2\n      sub\n      swap1\n      keccak256\n      0x00\n      swap1\n      sload\n      swap1\n      0x0100\n      exp\n      swap1\n      div\n      0xffffffffffffffffffffffffffffffffffffffff\n      and\n        /* \"contracts/AuthService.sol\":1343:1378  userLogins[userLogin] != address(0) */\n      0xffffffffffffffffffffffffffffffffffffffff\n      and\n      eq\n      iszero\n        /* \"contracts/AuthService.sol\":1335:1393  require(userLogins[userLogin] != address(0),\"Wrong Login\") */\n      tag_148\n      jumpi\n      mload(0x40)\n      0x08c379a000000000000000000000000000000000000000000000000000000000\n      dup2\n      mstore\n      0x04\n      add\n      tag_149\n      swap1\n      tag_150\n      jump\t// in\n    tag_149:\n      mload(0x40)\n      dup1\n      swap2\n      sub\n      swap1\n      revert\n    tag_148:\n        /* \"contracts/AuthService.sol\":2379:2395  address userAddr */\n      0x00\n        /* \"contracts/AuthService.sol\":2398:2408  userLogins */\n      0x01\n        /* \"contracts/AuthService.sol\":2409:2418  userLogin */\n      dup6\n        /* \"contracts/AuthService.sol\":2398:2419  userLogins[userLogin] */\n      mload(0x40)\n      tag_152\n      swap2\n      swap1\n      tag_144\n      jump\t// in\n    tag_152:\n      swap1\n      dup2\n      mstore\n      0x20\n      add\n      mload(0x40)\n      dup1\n      swap2\n      sub\n      swap1\n      keccak256\n      0x00\n      swap1\n      sload\n      swap1\n      0x0100\n      exp\n      swap1\n      div\n      0xffffffffffffffffffffffffffffffffffffffff\n      and\n        /* \"contracts/AuthService.sol\":2379:2419  address userAddr = userLogins[userLogin] */\n      swap1\n      pop\n        /* \"contracts/AuthService.sol\":2429:2445  User memory user */\n      0x00\n        /* \"contracts/AuthService.sol\":2448:2453  users */\n      0x02\n        /* \"contracts/AuthService.sol\":2448:2463  users[userAddr] */\n      0x00\n        /* \"contracts/AuthService.sol\":2454:2462  userAddr */\n      dup4\n        /* \"contracts/AuthService.sol\":2448:2463  users[userAddr] */\n      0xffffffffffffffffffffffffffffffffffffffff\n      and\n      0xffffffffffffffffffffffffffffffffffffffff\n      and\n      dup2\n      mstore\n      0x20\n      add\n      swap1\n      dup2\n      mstore\n      0x20\n      add\n      0x00\n      keccak256\n        /* \"contracts/AuthService.sol\":2429:2463  User memory user = users[userAddr] */\n      mload(0x40)\n      dup1\n      0x80\n      add\n      0x40\n      mstore\n      swap1\n      dup2\n      0x00\n      dup3\n      add\n      sload\n      dup2\n      mstore\n      0x20\n      add\n      0x01\n      dup3\n      add\n      dup1\n      sload\n      tag_153\n      swap1\n      tag_91\n      jump\t// in\n    tag_153:\n      dup1\n      0x1f\n      add\n      0x20\n      dup1\n      swap2\n      div\n      mul\n      0x20\n      add\n      mload(0x40)\n      swap1\n      dup2\n      add\n      0x40\n      mstore\n      dup1\n      swap3\n      swap2\n      swap1\n      dup2\n      dup2\n      mstore\n      0x20\n      add\n      dup3\n      dup1\n      sload\n      tag_154\n      swap1\n      tag_91\n      jump\t// in\n    tag_154:\n      dup1\n      iszero\n      tag_155\n      jumpi\n      dup1\n      0x1f\n      lt\n      tag_156\n      jumpi\n      0x0100\n      dup1\n      dup4\n      sload\n      div\n      mul\n      dup4\n      mstore\n      swap2\n      0x20\n      add\n      swap2\n      jump(tag_155)\n    tag_156:\n      dup3\n      add\n      swap2\n      swap1\n      0x00\n      mstore\n      keccak256(0x00, 0x20)\n      swap1\n    tag_157:\n      dup2\n      sload\n      dup2\n      mstore\n      swap1\n      0x01\n      add\n      swap1\n      0x20\n      add\n      dup1\n      dup4\n      gt\n      tag_157\n      jumpi\n      dup3\n      swap1\n      sub\n      0x1f\n      and\n      dup3\n      add\n      swap2\n    tag_155:\n      pop\n      pop\n      pop\n      pop\n      pop\n      dup2\n      mstore\n      0x20\n      add\n      0x02\n      dup3\n      add\n      dup1\n      sload\n      tag_158\n      swap1\n      tag_91\n      jump\t// in\n    tag_158:\n      dup1\n      0x1f\n      add\n      0x20\n      dup1\n      swap2\n      div\n      mul\n      0x20\n      add\n      mload(0x40)\n      swap1\n      dup2\n      add\n      0x40\n      mstore\n      dup1\n      swap3\n      swap2\n      swap1\n      dup2\n      dup2\n      mstore\n      0x20\n      add\n      dup3\n      dup1\n      sload\n      tag_159\n      swap1\n      tag_91\n      jump\t// in\n    tag_159:\n      dup1\n      iszero\n      tag_160\n      jumpi\n      dup1\n      0x1f\n      lt\n      tag_161\n      jumpi\n      0x0100\n      dup1\n      dup4\n      sload\n      div\n      mul\n      dup4\n      mstore\n      swap2\n      0x20\n      add\n      swap2\n      jump(tag_160)\n    tag_161:\n      dup3\n      add\n      swap2\n      swap1\n      0x00\n      mstore\n      keccak256(0x00, 0x20)\n      swap1\n    tag_162:\n      dup2\n      sload\n      dup2\n      mstore\n      swap1\n      0x01\n      add\n      swap1\n      0x20\n      add\n      dup1\n      dup4\n      gt\n      tag_162\n      jumpi\n      dup3\n      swap1\n      sub\n      0x1f\n      and\n      dup3\n      add\n      swap2\n    tag_160:\n      pop\n      pop\n      pop\n      pop\n      pop\n      dup2\n      mstore\n      0x20\n      add\n      0x03\n      dup3\n      add\n      dup1\n      sload\n      dup1\n      0x20\n      mul\n      0x20\n      add\n      mload(0x40)\n      swap1\n      dup2\n      add\n      0x40\n      mstore\n      dup1\n      swap3\n      swap2\n      swap1\n      dup2\n      dup2\n      mstore\n      0x20\n      add\n      0x00\n      swap1\n    tag_163:\n      dup3\n      dup3\n      lt\n      iszero\n      tag_164\n      jumpi\n      dup4\n      dup3\n      swap1\n      0x00\n      mstore\n      keccak256(0x00, 0x20)\n      add\n      dup1\n      sload\n      tag_166\n      swap1\n      tag_91\n      jump\t// in\n    tag_166:\n      dup1\n      0x1f\n      add\n      0x20\n      dup1\n      swap2\n      div\n      mul\n      0x20\n      add\n      mload(0x40)\n      swap1\n      dup2\n      add\n      0x40\n      mstore\n      dup1\n      swap3\n      swap2\n      swap1\n      dup2\n      dup2\n      mstore\n      0x20\n      add\n      dup3\n      dup1\n      sload\n      tag_167\n      swap1\n      tag_91\n      jump\t// in\n    tag_167:\n      dup1\n      iszero\n      tag_168\n      jumpi\n      dup1\n      0x1f\n      lt\n      tag_169\n      jumpi\n      0x0100\n      dup1\n      dup4\n      sload\n      div\n      mul\n      dup4\n      mstore\n      swap2\n      0x20\n      add\n      swap2\n      jump(tag_168)\n    tag_169:\n      dup3\n      add\n      swap2\n      swap1\n      0x00\n      mstore\n      keccak256(0x00, 0x20)\n      swap1\n    tag_170:\n      dup2\n      sload\n      dup2\n      mstore\n      swap1\n      0x01\n      add\n      swap1\n      0x20\n      add\n      dup1\n      dup4\n      gt\n      tag_170\n      jumpi\n      dup3\n      swap1\n      sub\n      0x1f\n      and\n      dup3\n      add\n      swap2\n    tag_168:\n      pop\n      pop\n      pop\n      pop\n      pop\n      dup2\n      mstore\n      0x20\n      add\n      swap1\n      0x01\n      add\n      swap1\n      jump(tag_163)\n    tag_164:\n      pop\n      pop\n      pop\n      pop\n      dup2\n      mstore\n      pop\n      pop\n      swap1\n      pop\n        /* \"contracts/AuthService.sol\":2487:2495  userAddr */\n      dup2\n        /* \"contracts/AuthService.sol\":2473:2495  userAddress = userAddr */\n      swap5\n      pop\n        /* \"contracts/AuthService.sol\":2514:2524  userStatus */\n      0x00\n        /* \"contracts/AuthService.sol\":2514:2537  userStatus[user.status] */\n      dup1\n        /* \"contracts/AuthService.sol\":2525:2529  user */\n      dup3\n        /* \"contracts/AuthService.sol\":2525:2536  user.status */\n      0x00\n      add\n      mload\n        /* \"contracts/AuthService.sol\":2514:2537  userStatus[user.status] */\n      dup2\n      mstore\n      0x20\n      add\n      swap1\n      dup2\n      mstore\n      0x20\n      add\n      0x00\n      keccak256\n        /* \"contracts/AuthService.sol\":2505:2537  status = userStatus[user.status] */\n      dup1\n      sload\n      tag_171\n      swap1\n      tag_91\n      jump\t// in\n    tag_171:\n      dup1\n      0x1f\n      add\n      0x20\n      dup1\n      swap2\n      div\n      mul\n      0x20\n      add\n      mload(0x40)\n      swap1\n      dup2\n      add\n      0x40\n      mstore\n      dup1\n      swap3\n      swap2\n      swap1\n      dup2\n      dup2\n      mstore\n      0x20\n      add\n      dup3\n      dup1\n      sload\n      tag_172\n      swap1\n      tag_91\n      jump\t// in\n    tag_172:\n      dup1\n      iszero\n      tag_173\n      jumpi\n      dup1\n      0x1f\n      lt\n      tag_174\n      jumpi\n      0x0100\n      dup1\n      dup4\n      sload\n      div\n      mul\n      dup4\n      mstore\n      swap2\n      0x20\n      add\n      swap2\n      jump(tag_173)\n    tag_174:\n      dup3\n      add\n      swap2\n      swap1\n      0x00\n      mstore\n      keccak256(0x00, 0x20)\n      swap1\n    tag_175:\n      dup2\n      sload\n      dup2\n      mstore\n      swap1\n      0x01\n      add\n      swap1\n      0x20\n      add\n      dup1\n      dup4\n      gt\n      tag_175\n      jumpi\n      dup3\n      swap1\n      sub\n      0x1f\n      and\n      dup3\n      add\n      swap2\n    tag_173:\n      pop\n      pop\n      pop\n      pop\n      pop\n      swap4\n      pop\n        /* \"contracts/AuthService.sol\":2369:2544  {... */\n      pop\n      pop\n        /* \"contracts/AuthService.sol\":2244:2544  function login(string memory userLogin) public view isRegistered(userLogin) returns(address userAddress,string memory status){... */\n      pop\n      swap2\n      pop\n      swap2\n      jump\t// out\n        /* \"contracts/Shops.sol\":3717:4308  function getSellerInfo() public view isUserStatus(UserRoles.seller) returns(... */\n    tag_42:\n        /* \"contracts/Shops.sol\":3802:3827  string memory sellerLogin */\n      0x60\n        /* \"contracts/Shops.sol\":3837:3854  string memory fio */\n      dup1\n        /* \"contracts/Shops.sol\":3864:3882  string memory city */\n      0x60\n        /* \"contracts/Shops.sol\":3892:3916  string memory shopNumber */\n      dup1\n        /* \"contracts/Shops.sol\":3926:3949  string[] memory reviews */\n      0x60\n        /* \"contracts/Shops.sol\":3767:3783  UserRoles.seller */\n      0x01\n        /* \"contracts/AuthService.sol\":1605:1610  users */\n      0x02\n        /* \"contracts/AuthService.sol\":1605:1622  users[msg.sender] */\n      0x00\n        /* \"contracts/AuthService.sol\":1611:1621  msg.sender */\n      caller\n        /* \"contracts/AuthService.sol\":1605:1622  users[msg.sender] */\n      0xffffffffffffffffffffffffffffffffffffffff\n      and\n      0xffffffffffffffffffffffffffffffffffffffff\n      and\n      dup2\n      mstore\n      0x20\n      add\n      swap1\n      dup2\n      mstore\n      0x20\n      add\n      0x00\n      keccak256\n        /* \"contracts/AuthService.sol\":1605:1629  users[msg.sender].status */\n      0x00\n      add\n      sload\n        /* \"contracts/AuthService.sol\":1594:1600  status */\n      dup2\n        /* \"contracts/AuthService.sol\":1589:1601  uint(status) */\n      0x05\n      dup2\n      gt\n      iszero\n      tag_177\n      jumpi\n      tag_178\n      tag_85\n      jump\t// in\n    tag_178:\n    tag_177:\n        /* \"contracts/AuthService.sol\":1589:1629  uint(status) == users[msg.sender].status */\n      eq\n        /* \"contracts/AuthService.sol\":1581:1642  require(uint(status) == users[msg.sender].status,\"Forbidden\") */\n      tag_179\n      jumpi\n      mload(0x40)\n      0x08c379a000000000000000000000000000000000000000000000000000000000\n      dup2\n      mstore\n      0x04\n      add\n      tag_180\n      swap1\n      tag_88\n      jump\t// in\n    tag_180:\n      mload(0x40)\n      dup1\n      swap2\n      sub\n      swap1\n      revert\n    tag_179:\n        /* \"contracts/Shops.sol\":3965:3985  User memory sellUser */\n      0x00\n        /* \"contracts/Shops.sol\":3988:3993  users */\n      0x02\n        /* \"contracts/Shops.sol\":3988:4005  users[msg.sender] */\n      0x00\n        /* \"contracts/Shops.sol\":3994:4004  msg.sender */\n      caller\n        /* \"contracts/Shops.sol\":3988:4005  users[msg.sender] */\n      0xffffffffffffffffffffffffffffffffffffffff\n      and\n      0xffffffffffffffffffffffffffffffffffffffff\n      and\n      dup2\n      mstore\n      0x20\n      add\n      swap1\n      dup2\n      mstore\n      0x20\n      add\n      0x00\n      keccak256\n        /* \"contracts/Shops.sol\":3965:4005  User memory sellUser = users[msg.sender] */\n      mload(0x40)\n      dup1\n      0x80\n      add\n      0x40\n      mstore\n      swap1\n      dup2\n      0x00\n      dup3\n      add\n      sload\n      dup2\n      mstore\n      0x20\n      add\n      0x01\n      dup3\n      add\n      dup1\n      sload\n      tag_182\n      swap1\n      tag_91\n      jump\t// in\n    tag_182:\n      dup1\n      0x1f\n      add\n      0x20\n      dup1\n      swap2\n      div\n      mul\n      0x20\n      add\n      mload(0x40)\n      swap1\n      dup2\n      add\n      0x40\n      mstore\n      dup1\n      swap3\n      swap2\n      swap1\n      dup2\n      dup2\n      mstore\n      0x20\n      add\n      dup3\n      dup1\n      sload\n      tag_183\n      swap1\n      tag_91\n      jump\t// in\n    tag_183:\n      dup1\n      iszero\n      tag_184\n      jumpi\n      dup1\n      0x1f\n      lt\n      tag_185\n      jumpi\n      0x0100\n      dup1\n      dup4\n      sload\n      div\n      mul\n      dup4\n      mstore\n      swap2\n      0x20\n      add\n      swap2\n      jump(tag_184)\n    tag_185:\n      dup3\n      add\n      swap2\n      swap1\n      0x00\n      mstore\n      keccak256(0x00, 0x20)\n      swap1\n    tag_186:\n      dup2\n      sload\n      dup2\n      mstore\n      swap1\n      0x01\n      add\n      swap1\n      0x20\n      add\n      dup1\n      dup4\n      gt\n      tag_186\n      jumpi\n      dup3\n      swap1\n      sub\n      0x1f\n      and\n      dup3\n      add\n      swap2\n    tag_184:\n      pop\n      pop\n      pop\n      pop\n      pop\n      dup2\n      mstore\n      0x20\n      add\n      0x02\n      dup3\n      add\n      dup1\n      sload\n      tag_187\n      swap1\n      tag_91\n      jump\t// in\n    tag_187:\n      dup1\n      0x1f\n      add\n      0x20\n      dup1\n      swap2\n      div\n      mul\n      0x20\n      add\n      mload(0x40)\n      swap1\n      dup2\n      add\n      0x40\n      mstore\n      dup1\n      swap3\n      swap2\n      swap1\n      dup2\n      dup2\n      mstore\n      0x20\n      add\n      dup3\n      dup1\n      sload\n      tag_188\n      swap1\n      tag_91\n      jump\t// in\n    tag_188:\n      dup1\n      iszero\n      tag_189\n      jumpi\n      dup1\n      0x1f\n      lt\n      tag_190\n      jumpi\n      0x0100\n      dup1\n      dup4\n      sload\n      div\n      mul\n      dup4\n      mstore\n      swap2\n      0x20\n      add\n      swap2\n      jump(tag_189)\n    tag_190:\n      dup3\n      add\n      swap2\n      swap1\n      0x00\n      mstore\n      keccak256(0x00, 0x20)\n      swap1\n    tag_191:\n      dup2\n      sload\n      dup2\n      mstore\n      swap1\n      0x01\n      add\n      swap1\n      0x20\n      add\n      dup1\n      dup4\n      gt\n      tag_191\n      jumpi\n      dup3\n      swap1\n      sub\n      0x1f\n      and\n      dup3\n      add\n      swap2\n    tag_189:\n      pop\n      pop\n      pop\n      pop\n      pop\n      dup2\n      mstore\n      0x20\n      add\n      0x03\n      dup3\n      add\n      dup1\n      sload\n      dup1\n      0x20\n      mul\n      0x20\n      add\n      mload(0x40)\n      swap1\n      dup2\n      add\n      0x40\n      mstore\n      dup1\n      swap3\n      swap2\n      swap1\n      dup2\n      dup2\n      mstore\n      0x20\n      add\n      0x00\n      swap1\n    tag_192:\n      dup3\n      dup3\n      lt\n      iszero\n      tag_193\n      jumpi\n      dup4\n      dup3\n      swap1\n      0x00\n      mstore\n      keccak256(0x00, 0x20)\n      add\n      dup1\n      sload\n      tag_195\n      swap1\n      tag_91\n      jump\t// in\n    tag_195:\n      dup1\n      0x1f\n      add\n      0x20\n      dup1\n      swap2\n      div\n      mul\n      0x20\n      add\n      mload(0x40)\n      swap1\n      dup2\n      add\n      0x40\n      mstore\n      dup1\n      swap3\n      swap2\n      swap1\n      dup2\n      dup2\n      mstore\n      0x20\n      add\n      dup3\n      dup1\n      sload\n      tag_196\n      swap1\n      tag_91\n      jump\t// in\n    tag_196:\n      dup1\n      iszero\n      tag_197\n      jumpi\n      dup1\n      0x1f\n      lt\n      tag_198\n      jumpi\n      0x0100\n      dup1\n      dup4\n      sload\n      div\n      mul\n      dup4\n      mstore\n      swap2\n      0x20\n      add\n      swap2\n      jump(tag_197)\n    tag_198:\n      dup3\n      add\n      swap2\n      swap1\n      0x00\n      mstore\n      keccak256(0x00, 0x20)\n      swap1\n    tag_199:\n      dup2\n      sload\n      dup2\n      mstore\n      swap1\n      0x01\n      add\n      swap1\n      0x20\n      add\n      dup1\n      dup4\n      gt\n      tag_199\n      jumpi\n      dup3\n      swap1\n      sub\n      0x1f\n      and\n      dup3\n      add\n      swap2\n    tag_197:\n      pop\n      pop\n      pop\n      pop\n      pop\n      dup2\n      mstore\n      0x20\n      add\n      swap1\n      0x01\n      add\n      swap1\n      jump(tag_192)\n    tag_193:\n      pop\n      pop\n      pop\n      pop\n      dup2\n      mstore\n      pop\n      pop\n      swap1\n      pop\n        /* \"contracts/Shops.sol\":4015:4035  address sellShopAddr */\n      0x00\n        /* \"contracts/Shops.sol\":4038:4050  salesmanShop */\n      0x0b\n        /* \"contracts/Shops.sol\":4038:4062  salesmanShop[msg.sender] */\n      0x00\n        /* \"contracts/Shops.sol\":4051:4061  msg.sender */\n      caller\n        /* \"contracts/Shops.sol\":4038:4062  salesmanShop[msg.sender] */\n      0xffffffffffffffffffffffffffffffffffffffff\n      and\n      0xffffffffffffffffffffffffffffffffffffffff\n      and\n      dup2\n      mstore\n      0x20\n      add\n      swap1\n      dup2\n      mstore\n      0x20\n      add\n      0x00\n      keccak256\n      0x00\n      swap1\n      sload\n      swap1\n      0x0100\n      exp\n      swap1\n      div\n      0xffffffffffffffffffffffffffffffffffffffff\n      and\n        /* \"contracts/Shops.sol\":4015:4062  address sellShopAddr = salesmanShop[msg.sender] */\n      swap1\n      pop\n        /* \"contracts/Shops.sol\":4072:4092  Shop memory sellShop */\n      0x00\n        /* \"contracts/Shops.sol\":4095:4104  ShopsList */\n      0x0a\n        /* \"contracts/Shops.sol\":4095:4118  ShopsList[sellShopAddr] */\n      0x00\n        /* \"contracts/Shops.sol\":4105:4117  sellShopAddr */\n      dup4\n        /* \"contracts/Shops.sol\":4095:4118  ShopsList[sellShopAddr] */\n      0xffffffffffffffffffffffffffffffffffffffff\n      and\n      0xffffffffffffffffffffffffffffffffffffffff\n      and\n      dup2\n      mstore\n      0x20\n      add\n      swap1\n      dup2\n      mstore\n      0x20\n      add\n      0x00\n      keccak256\n        /* \"contracts/Shops.sol\":4072:4118  Shop memory sellShop = ShopsList[sellShopAddr] */\n      mload(0x40)\n      dup1\n      0x60\n      add\n      0x40\n      mstore\n      swap1\n      dup2\n      0x00\n      dup3\n      add\n      dup1\n      sload\n      tag_200\n      swap1\n      tag_91\n      jump\t// in\n    tag_200:\n      dup1\n      0x1f\n      add\n      0x20\n      dup1\n      swap2\n      div\n      mul\n      0x20\n      add\n      mload(0x40)\n      swap1\n      dup2\n      add\n      0x40\n      mstore\n      dup1\n      swap3\n      swap2\n      swap1\n      dup2\n      dup2\n      mstore\n      0x20\n      add\n      dup3\n      dup1\n      sload\n      tag_201\n      swap1\n      tag_91\n      jump\t// in\n    tag_201:\n      dup1\n      iszero\n      tag_202\n      jumpi\n      dup1\n      0x1f\n      lt\n      tag_203\n      jumpi\n      0x0100\n      dup1\n      dup4\n      sload\n      div\n      mul\n      dup4\n      mstore\n      swap2\n      0x20\n      add\n      swap2\n      jump(tag_202)\n    tag_203:\n      dup3\n      add\n      swap2\n      swap1\n      0x00\n      mstore\n      keccak256(0x00, 0x20)\n      swap1\n    tag_204:\n      dup2\n      sload\n      dup2\n      mstore\n      swap1\n      0x01\n      add\n      swap1\n      0x20\n      add\n      dup1\n      dup4\n      gt\n      tag_204\n      jumpi\n      dup3\n      swap1\n      sub\n      0x1f\n      and\n      dup3\n      add\n      swap2\n    tag_202:\n      pop\n      pop\n      pop\n      pop\n      pop\n      dup2\n      mstore\n      0x20\n      add\n      0x01\n      dup3\n      add\n      dup1\n      sload\n      tag_205\n      swap1\n      tag_91\n      jump\t// in\n    tag_205:\n      dup1\n      0x1f\n      add\n      0x20\n      dup1\n      swap2\n      div\n      mul\n      0x20\n      add\n      mload(0x40)\n      swap1\n      dup2\n      add\n      0x40\n      mstore\n      dup1\n      swap3\n      swap2\n      swap1\n      dup2\n      dup2\n      mstore\n      0x20\n      add\n      dup3\n      dup1\n      sload\n      tag_206\n      swap1\n      tag_91\n      jump\t// in\n    tag_206:\n      dup1\n      iszero\n      tag_207\n      jumpi\n      dup1\n      0x1f\n      lt\n      tag_208\n      jumpi\n      0x0100\n      dup1\n      dup4\n      sload\n      div\n      mul\n      dup4\n      mstore\n      swap2\n      0x20\n      add\n      swap2\n      jump(tag_207)\n    tag_208:\n      dup3\n      add\n      swap2\n      swap1\n      0x00\n      mstore\n      keccak256(0x00, 0x20)\n      swap1\n    tag_209:\n      dup2\n      sload\n      dup2\n      mstore\n      swap1\n      0x01\n      add\n      swap1\n      0x20\n      add\n      dup1\n      dup4\n      gt\n      tag_209\n      jumpi\n      dup3\n      swap1\n      sub\n      0x1f\n      and\n      dup3\n      add\n      swap2\n    tag_207:\n      pop\n      pop\n      pop\n      pop\n      pop\n      dup2\n      mstore\n      0x20\n      add\n      0x02\n      dup3\n      add\n      sload\n      dup2\n      mstore\n      pop\n      pop\n      swap1\n      pop\n        /* \"contracts/Shops.sol\":4151:4159  sellUser */\n      dup3\n        /* \"contracts/Shops.sol\":4151:4169  sellUser.userLogin */\n      0x20\n      add\n      mload\n        /* \"contracts/Shops.sol\":4137:4169  sellerLogin = sellUser.userLogin */\n      swap9\n      pop\n        /* \"contracts/Shops.sol\":4185:4193  sellUser */\n      dup3\n        /* \"contracts/Shops.sol\":4185:4197  sellUser.fio */\n      0x40\n      add\n      mload\n        /* \"contracts/Shops.sol\":4179:4197  fio = sellUser.fio */\n      swap8\n      pop\n        /* \"contracts/Shops.sol\":4214:4222  sellShop */\n      dup1\n        /* \"contracts/Shops.sol\":4214:4227  sellShop.city */\n      0x20\n      add\n      mload\n        /* \"contracts/Shops.sol\":4207:4227  city = sellShop.city */\n      swap7\n      pop\n        /* \"contracts/Shops.sol\":4250:4258  sellShop */\n      dup1\n        /* \"contracts/Shops.sol\":4250:4265  sellShop.number */\n      0x00\n      add\n      mload\n        /* \"contracts/Shops.sol\":4237:4265  shopNumber = sellShop.number */\n      swap6\n      pop\n        /* \"contracts/Shops.sol\":4285:4293  sellUser */\n      dup3\n        /* \"contracts/Shops.sol\":4285:4301  sellUser.reviews */\n      0x60\n      add\n      mload\n        /* \"contracts/Shops.sol\":4275:4301  reviews = sellUser.reviews */\n      swap5\n      pop\n        /* \"contracts/Shops.sol\":3955:4308  {... */\n      pop\n      pop\n      pop\n        /* \"contracts/Shops.sol\":3717:4308  function getSellerInfo() public view isUserStatus(UserRoles.seller) returns(... */\n      pop\n      swap1\n      swap2\n      swap3\n      swap4\n      swap5\n      jump\t// out\n        /* \"contracts/Shops.sol\":1751:2102  function registerShop(address shopAddr,string memory number,string memory city,string memory shopLogin) public isUserStatus(UserRoles.admin){... */\n    tag_47:\n        /* \"contracts/Shops.sol\":1875:1890  UserRoles.admin */\n      0x03\n        /* \"contracts/AuthService.sol\":1605:1610  users */\n      0x02\n        /* \"contracts/AuthService.sol\":1605:1622  users[msg.sender] */\n      0x00\n        /* \"contracts/AuthService.sol\":1611:1621  msg.sender */\n      caller\n        /* \"contracts/AuthService.sol\":1605:1622  users[msg.sender] */\n      0xffffffffffffffffffffffffffffffffffffffff\n      and\n      0xffffffffffffffffffffffffffffffffffffffff\n      and\n      dup2\n      mstore\n      0x20\n      add\n      swap1\n      dup2\n      mstore\n      0x20\n      add\n      0x00\n      keccak256\n        /* \"contracts/AuthService.sol\":1605:1629  users[msg.sender].status */\n      0x00\n      add\n      sload\n        /* \"contracts/AuthService.sol\":1594:1600  status */\n      dup2\n        /* \"contracts/AuthService.sol\":1589:1601  uint(status) */\n      0x05\n      dup2\n      gt\n      iszero\n      tag_211\n      jumpi\n      tag_212\n      tag_85\n      jump\t// in\n    tag_212:\n    tag_211:\n        /* \"contracts/AuthService.sol\":1589:1629  uint(status) == users[msg.sender].status */\n      eq\n        /* \"contracts/AuthService.sol\":1581:1642  require(uint(status) == users[msg.sender].status,\"Forbidden\") */\n      tag_213\n      jumpi\n      mload(0x40)\n      0x08c379a000000000000000000000000000000000000000000000000000000000\n      dup2\n      mstore\n      0x04\n      add\n      tag_214\n      swap1\n      tag_88\n      jump\t// in\n    tag_214:\n      mload(0x40)\n      dup1\n      swap2\n      sub\n      swap1\n      revert\n    tag_213:\n        /* \"contracts/Shops.sol\":1901:1917  Shop memory shop */\n      0x00\n        /* \"contracts/Shops.sol\":1920:1958  Shop({number:number,city:city,debt:0}) */\n      mload(0x40)\n      dup1\n      0x60\n      add\n      0x40\n      mstore\n      dup1\n        /* \"contracts/Shops.sol\":1933:1939  number */\n      dup7\n        /* \"contracts/Shops.sol\":1920:1958  Shop({number:number,city:city,debt:0}) */\n      dup2\n      mstore\n      0x20\n      add\n        /* \"contracts/Shops.sol\":1945:1949  city */\n      dup6\n        /* \"contracts/Shops.sol\":1920:1958  Shop({number:number,city:city,debt:0}) */\n      dup2\n      mstore\n      0x20\n      add\n        /* \"contracts/Shops.sol\":1955:1956  0 */\n      0x00\n        /* \"contracts/Shops.sol\":1920:1958  Shop({number:number,city:city,debt:0}) */\n      dup2\n      mstore\n      pop\n        /* \"contracts/Shops.sol\":1901:1958  Shop memory shop = Shop({number:number,city:city,debt:0}) */\n      swap1\n      pop\n        /* \"contracts/Shops.sol\":1990:1994  shop */\n      dup1\n        /* \"contracts/Shops.sol\":1968:1977  ShopsList */\n      0x0a\n        /* \"contracts/Shops.sol\":1968:1987  ShopsList[shopAddr] */\n      0x00\n        /* \"contracts/Shops.sol\":1978:1986  shopAddr */\n      dup9\n        /* \"contracts/Shops.sol\":1968:1987  ShopsList[shopAddr] */\n      0xffffffffffffffffffffffffffffffffffffffff\n      and\n      0xffffffffffffffffffffffffffffffffffffffff\n      and\n      dup2\n      mstore\n      0x20\n      add\n      swap1\n      dup2\n      mstore\n      0x20\n      add\n      0x00\n      keccak256\n        /* \"contracts/Shops.sol\":1968:1994  ShopsList[shopAddr] = shop */\n      0x00\n      dup3\n      add\n      mload\n      dup2\n      0x00\n      add\n      swap1\n      dup1\n      mload\n      swap1\n      0x20\n      add\n      swap1\n      tag_216\n      swap3\n      swap2\n      swap1\n      tag_142\n      jump\t// in\n    tag_216:\n      pop\n      0x20\n      dup3\n      add\n      mload\n      dup2\n      0x01\n      add\n      swap1\n      dup1\n      mload\n      swap1\n      0x20\n      add\n      swap1\n      tag_217\n      swap3\n      swap2\n      swap1\n      tag_142\n      jump\t// in\n    tag_217:\n      pop\n      0x40\n      dup3\n      add\n      mload\n      dup2\n      0x02\n      add\n      sstore\n      swap1\n      pop\n      pop\n        /* \"contracts/Shops.sol\":2004:2015  uint status */\n      0x00\n        /* \"contracts/Shops.sol\":2023:2037  UserRoles.shop */\n      0x02\n        /* \"contracts/Shops.sol\":2018:2038  uint(UserRoles.shop) */\n      0x05\n      dup2\n      gt\n      iszero\n      tag_218\n      jumpi\n      tag_219\n      tag_85\n      jump\t// in\n    tag_219:\n    tag_218:\n        /* \"contracts/Shops.sol\":2004:2038  uint status = uint(UserRoles.shop) */\n      swap1\n      pop\n        /* \"contracts/Shops.sol\":2048:2095  registerFromAdmin(\"\",shopLogin,status,shopAddr) */\n      tag_220\n      mload(0x40)\n      dup1\n      0x20\n      add\n      0x40\n      mstore\n      dup1\n      0x00\n      dup2\n      mstore\n      pop\n        /* \"contracts/Shops.sol\":2069:2078  shopLogin */\n      dup6\n        /* \"contracts/Shops.sol\":2079:2085  status */\n      dup4\n        /* \"contracts/Shops.sol\":2086:2094  shopAddr */\n      dup11\n        /* \"contracts/Shops.sol\":2048:2065  registerFromAdmin */\n      tag_127\n        /* \"contracts/Shops.sol\":2048:2095  registerFromAdmin(\"\",shopLogin,status,shopAddr) */\n      jump\t// in\n    tag_220:\n        /* \"contracts/Shops.sol\":1891:2102  {... */\n      pop\n      pop\n        /* \"contracts/Shops.sol\":1751:2102  function registerShop(address shopAddr,string memory number,string memory city,string memory shopLogin) public isUserStatus(UserRoles.admin){... */\n      pop\n      pop\n      pop\n      pop\n      pop\n      jump\t// out\n        /* \"contracts/Shops.sol\":6278:6360  function likeReview(string memory id) public isUser {... */\n    tag_50:\n        /* \"contracts/AuthService.sol\":1453:1492  compare(users[msg.sender].userLogin,\"\") */\n      tag_222\n        /* \"contracts/AuthService.sol\":1461:1466  users */\n      0x02\n        /* \"contracts/AuthService.sol\":1461:1478  users[msg.sender] */\n      0x00\n        /* \"contracts/AuthService.sol\":1467:1477  msg.sender */\n      caller\n        /* \"contracts/AuthService.sol\":1461:1478  users[msg.sender] */\n      0xffffffffffffffffffffffffffffffffffffffff\n      and\n      0xffffffffffffffffffffffffffffffffffffffff\n      and\n      dup2\n      mstore\n      0x20\n      add\n      swap1\n      dup2\n      mstore\n      0x20\n      add\n      0x00\n      keccak256\n        /* \"contracts/AuthService.sol\":1461:1488  users[msg.sender].userLogin */\n      0x01\n      add\n        /* \"contracts/AuthService.sol\":1453:1492  compare(users[msg.sender].userLogin,\"\") */\n      dup1\n      sload\n      tag_223\n      swap1\n      tag_91\n      jump\t// in\n    tag_223:\n      dup1\n      0x1f\n      add\n      0x20\n      dup1\n      swap2\n      div\n      mul\n      0x20\n      add\n      mload(0x40)\n      swap1\n      dup2\n      add\n      0x40\n      mstore\n      dup1\n      swap3\n      swap2\n      swap1\n      dup2\n      dup2\n      mstore\n      0x20\n      add\n      dup3\n      dup1\n      sload\n      tag_224\n      swap1\n      tag_91\n      jump\t// in\n    tag_224:\n      dup1\n      iszero\n      tag_225\n      jumpi\n      dup1\n      0x1f\n      lt\n      tag_226\n      jumpi\n      0x0100\n      dup1\n      dup4\n      sload\n      div\n      mul\n      dup4\n      mstore\n      swap2\n      0x20\n      add\n      swap2\n      jump(tag_225)\n    tag_226:\n      dup3\n      add\n      swap2\n      swap1\n      0x00\n      mstore\n      keccak256(0x00, 0x20)\n      swap1\n    tag_227:\n      dup2\n      sload\n      dup2\n      mstore\n      swap1\n      0x01\n      add\n      swap1\n      0x20\n      add\n      dup1\n      dup4\n      gt\n      tag_227\n      jumpi\n      dup3\n      swap1\n      sub\n      0x1f\n      and\n      dup3\n      add\n      swap2\n    tag_225:\n      pop\n      pop\n      pop\n      pop\n      pop\n      mload(0x40)\n      dup1\n      0x20\n      add\n      0x40\n      mstore\n      dup1\n      0x00\n      dup2\n      mstore\n      pop\n        /* \"contracts/AuthService.sol\":1453:1460  compare */\n      tag_135\n        /* \"contracts/AuthService.sol\":1453:1492  compare(users[msg.sender].userLogin,\"\") */\n      jump\t// in\n    tag_222:\n        /* \"contracts/AuthService.sol\":1452:1492  !compare(users[msg.sender].userLogin,\"\") */\n      iszero\n        /* \"contracts/AuthService.sol\":1444:1508  require(!compare(users[msg.sender].userLogin,\"\"),\"You not user\") */\n      tag_228\n      jumpi\n      mload(0x40)\n      0x08c379a000000000000000000000000000000000000000000000000000000000\n      dup2\n      mstore\n      0x04\n      add\n      tag_229\n      swap1\n      tag_138\n      jump\t// in\n    tag_229:\n      mload(0x40)\n      dup1\n      swap2\n      sub\n      swap1\n      revert\n    tag_228:\n        /* \"contracts/Shops.sol\":6341:6349  reviewId */\n      0x0e\n        /* \"contracts/Shops.sol\":6350:6352  id */\n      dup2\n        /* \"contracts/Shops.sol\":6341:6353  reviewId[id] */\n      mload(0x40)\n      tag_231\n      swap2\n      swap1\n      tag_144\n      jump\t// in\n    tag_231:\n      swap1\n      dup2\n      mstore\n      0x20\n      add\n      mload(0x40)\n      dup1\n      swap2\n      sub\n      swap1\n      keccak256\n      pop\n        /* \"contracts/Shops.sol\":6278:6360  function likeReview(string memory id) public isUser {... */\n      pop\n      jump\t// out\n        /* \"contracts/Shops.sol\":2202:2446  function registerProvider(string memory providerLogin,address providerAddr) public isAdmin {... */\n    tag_53:\n        /* \"contracts/Shops.sol\":958:963  admin */\n      0x04\n      0x00\n      swap1\n      sload\n      swap1\n      0x0100\n      exp\n      swap1\n      div\n      0xffffffffffffffffffffffffffffffffffffffff\n      and\n        /* \"contracts/Shops.sol\":944:963  msg.sender == admin */\n      0xffffffffffffffffffffffffffffffffffffffff\n      and\n        /* \"contracts/Shops.sol\":944:954  msg.sender */\n      caller\n        /* \"contracts/Shops.sol\":944:963  msg.sender == admin */\n      0xffffffffffffffffffffffffffffffffffffffff\n      and\n      eq\n        /* \"contracts/Shops.sol\":936:980  require(msg.sender == admin,\"You not admin\") */\n      tag_233\n      jumpi\n      mload(0x40)\n      0x08c379a000000000000000000000000000000000000000000000000000000000\n      dup2\n      mstore\n      0x04\n      add\n      tag_234\n      swap1\n      tag_122\n      jump\t// in\n    tag_234:\n      mload(0x40)\n      dup1\n      swap2\n      sub\n      swap1\n      revert\n    tag_233:\n        /* \"contracts/Shops.sol\":2303:2314  uint status */\n      0x00\n        /* \"contracts/Shops.sol\":2322:2340  UserRoles.provider */\n      0x04\n        /* \"contracts/Shops.sol\":2317:2341  uint(UserRoles.provider) */\n      0x05\n      dup2\n      gt\n      iszero\n      tag_236\n      jumpi\n      tag_237\n      tag_85\n      jump\t// in\n    tag_237:\n    tag_236:\n        /* \"contracts/Shops.sol\":2303:2341  uint status = uint(UserRoles.provider) */\n      swap1\n      pop\n        /* \"contracts/Shops.sol\":2351:2406  registerFromAdmin(\"\",providerLogin,status,providerAddr) */\n      tag_238\n      mload(0x40)\n      dup1\n      0x20\n      add\n      0x40\n      mstore\n      dup1\n      0x00\n      dup2\n      mstore\n      pop\n        /* \"contracts/Shops.sol\":2372:2385  providerLogin */\n      dup5\n        /* \"contracts/Shops.sol\":2386:2392  status */\n      dup4\n        /* \"contracts/Shops.sol\":2393:2405  providerAddr */\n      dup6\n        /* \"contracts/Shops.sol\":2351:2368  registerFromAdmin */\n      tag_127\n        /* \"contracts/Shops.sol\":2351:2406  registerFromAdmin(\"\",providerLogin,status,providerAddr) */\n      jump\t// in\n    tag_238:\n        /* \"contracts/Shops.sol\":2427:2439  providerAddr */\n      dup2\n        /* \"contracts/Shops.sol\":2416:2424  provider */\n      0x03\n      0x00\n        /* \"contracts/Shops.sol\":2416:2439  provider = providerAddr */\n      0x0100\n      exp\n      dup2\n      sload\n      dup2\n      0xffffffffffffffffffffffffffffffffffffffff\n      mul\n      not\n      and\n      swap1\n      dup4\n      0xffffffffffffffffffffffffffffffffffffffff\n      and\n      mul\n      or\n      swap1\n      sstore\n      pop\n        /* \"contracts/Shops.sol\":2293:2446  {... */\n      pop\n        /* \"contracts/Shops.sol\":2202:2446  function registerProvider(string memory providerLogin,address providerAddr) public isAdmin {... */\n      pop\n      pop\n      jump\t// out\n        /* \"contracts/Shops.sol\":3438:3641  function doShopDebt(address payable shopAddr) public isUserStatus(UserRoles.bank) {... */\n    tag_57:\n        /* \"contracts/Shops.sol\":3504:3518  UserRoles.bank */\n      0x05\n        /* \"contracts/AuthService.sol\":1605:1610  users */\n      0x02\n        /* \"contracts/AuthService.sol\":1605:1622  users[msg.sender] */\n      0x00\n        /* \"contracts/AuthService.sol\":1611:1621  msg.sender */\n      caller\n        /* \"contracts/AuthService.sol\":1605:1622  users[msg.sender] */\n      0xffffffffffffffffffffffffffffffffffffffff\n      and\n      0xffffffffffffffffffffffffffffffffffffffff\n      and\n      dup2\n      mstore\n      0x20\n      add\n      swap1\n      dup2\n      mstore\n      0x20\n      add\n      0x00\n      keccak256\n        /* \"contracts/AuthService.sol\":1605:1629  users[msg.sender].status */\n      0x00\n      add\n      sload\n        /* \"contracts/AuthService.sol\":1594:1600  status */\n      dup2\n        /* \"contracts/AuthService.sol\":1589:1601  uint(status) */\n      0x05\n      dup2\n      gt\n      iszero\n      tag_240\n      jumpi\n      tag_241\n      tag_85\n      jump\t// in\n    tag_241:\n    tag_240:\n        /* \"contracts/AuthService.sol\":1589:1629  uint(status) == users[msg.sender].status */\n      eq\n        /* \"contracts/AuthService.sol\":1581:1642  require(uint(status) == users[msg.sender].status,\"Forbidden\") */\n      tag_242\n      jumpi\n      mload(0x40)\n      0x08c379a000000000000000000000000000000000000000000000000000000000\n      dup2\n      mstore\n      0x04\n      add\n      tag_243\n      swap1\n      tag_88\n      jump\t// in\n    tag_243:\n      mload(0x40)\n      dup1\n      swap2\n      sub\n      swap1\n      revert\n    tag_242:\n        /* \"contracts/Shops.sol\":3569:3579  1000 ether */\n      0x3635c9adc5dea00000\n        /* \"contracts/Shops.sol\":3546:3556  msg.sender */\n      caller\n        /* \"contracts/Shops.sol\":3538:3565  payable(msg.sender).balance */\n      0xffffffffffffffffffffffffffffffffffffffff\n      and\n      balance\n        /* \"contracts/Shops.sol\":3538:3579  payable(msg.sender).balance >= 1000 ether */\n      lt\n      iszero\n        /* \"contracts/Shops.sol\":3530:3594  require(payable(msg.sender).balance >= 1000 ether,\"Low balance\") */\n      tag_245\n      jumpi\n      mload(0x40)\n      0x08c379a000000000000000000000000000000000000000000000000000000000\n      dup2\n      mstore\n      0x04\n      add\n      tag_246\n      swap1\n      tag_247\n      jump\t// in\n    tag_246:\n      mload(0x40)\n      dup1\n      swap2\n      sub\n      swap1\n      revert\n    tag_245:\n        /* \"contracts/Shops.sol\":3604:3612  shopAddr */\n      dup2\n        /* \"contracts/Shops.sol\":3604:3621  shopAddr.transfer */\n      0xffffffffffffffffffffffffffffffffffffffff\n      and\n        /* \"contracts/Shops.sol\":3604:3633  shopAddr.transfer(1000 ether) */\n      0x08fc\n        /* \"contracts/Shops.sol\":3622:3632  1000 ether */\n      0x3635c9adc5dea00000\n        /* \"contracts/Shops.sol\":3604:3633  shopAddr.transfer(1000 ether) */\n      swap1\n      dup2\n      iszero\n      mul\n      swap1\n      mload(0x40)\n      0x00\n      mload(0x40)\n      dup1\n      dup4\n      sub\n      dup2\n      dup6\n      dup9\n      dup9\n      call\n      swap4\n      pop\n      pop\n      pop\n      pop\n      iszero\n      dup1\n      iszero\n      tag_249\n      jumpi\n      returndatasize\n      0x00\n      dup1\n      returndatacopy\n      revert(0x00, returndatasize)\n    tag_249:\n      pop\n        /* \"contracts/Shops.sol\":3438:3641  function doShopDebt(address payable shopAddr) public isUserStatus(UserRoles.bank) {... */\n      pop\n      pop\n      jump\t// out\n        /* \"contracts/Shops.sol\":2771:3077  function registerSeller(string memory fio,string memory userLogin,address userAddress,address shopAddr) public {... */\n    tag_61:\n        /* \"contracts/Shops.sol\":2892:2903  uint status */\n      0x00\n        /* \"contracts/Shops.sol\":2911:2927  UserRoles.seller */\n      0x01\n        /* \"contracts/Shops.sol\":2906:2928  uint(UserRoles.seller) */\n      0x05\n      dup2\n      gt\n      iszero\n      tag_251\n      jumpi\n      tag_252\n      tag_85\n      jump\t// in\n    tag_252:\n    tag_251:\n        /* \"contracts/Shops.sol\":2892:2928  uint status = uint(UserRoles.seller) */\n      swap1\n      pop\n        /* \"contracts/Shops.sol\":2938:2989  registerFromAdmin(fio,userLogin,status,userAddress) */\n      tag_253\n        /* \"contracts/Shops.sol\":2956:2959  fio */\n      dup6\n        /* \"contracts/Shops.sol\":2960:2969  userLogin */\n      dup6\n        /* \"contracts/Shops.sol\":2970:2976  status */\n      dup4\n        /* \"contracts/Shops.sol\":2977:2988  userAddress */\n      dup7\n        /* \"contracts/Shops.sol\":2938:2955  registerFromAdmin */\n      tag_127\n        /* \"contracts/Shops.sol\":2938:2989  registerFromAdmin(fio,userLogin,status,userAddress) */\n      jump\t// in\n    tag_253:\n        /* \"contracts/Shops.sol\":2999:3006  sellers */\n      0x07\n        /* \"contracts/Shops.sol\":3012:3023  userAddress */\n      dup4\n        /* \"contracts/Shops.sol\":2999:3024  sellers.push(userAddress) */\n      swap1\n      dup1\n      0x01\n      dup2\n      sload\n      add\n      dup1\n      dup3\n      sstore\n      dup1\n      swap2\n      pop\n      pop\n      0x01\n      swap1\n      sub\n      swap1\n      0x00\n      mstore\n      keccak256(0x00, 0x20)\n      add\n      0x00\n      swap1\n      swap2\n      swap1\n      swap2\n      swap1\n      swap2\n      0x0100\n      exp\n      dup2\n      sload\n      dup2\n      0xffffffffffffffffffffffffffffffffffffffff\n      mul\n      not\n      and\n      swap1\n      dup4\n      0xffffffffffffffffffffffffffffffffffffffff\n      and\n      mul\n      or\n      swap1\n      sstore\n      pop\n        /* \"contracts/Shops.sol\":3034:3042  salesmen */\n      0x0c\n        /* \"contracts/Shops.sol\":3034:3052  salesmen[shopAddr] */\n      0x00\n        /* \"contracts/Shops.sol\":3043:3051  shopAddr */\n      dup4\n        /* \"contracts/Shops.sol\":3034:3052  salesmen[shopAddr] */\n      0xffffffffffffffffffffffffffffffffffffffff\n      and\n      0xffffffffffffffffffffffffffffffffffffffff\n      and\n      dup2\n      mstore\n      0x20\n      add\n      swap1\n      dup2\n      mstore\n      0x20\n      add\n      0x00\n      keccak256\n        /* \"contracts/Shops.sol\":3058:3069  userAddress */\n      dup4\n        /* \"contracts/Shops.sol\":3034:3070  salesmen[shopAddr].push(userAddress) */\n      swap1\n      dup1\n      0x01\n      dup2\n      sload\n      add\n      dup1\n      dup3\n      sstore\n      dup1\n      swap2\n      pop\n      pop\n      0x01\n      swap1\n      sub\n      swap1\n      0x00\n      mstore\n      keccak256(0x00, 0x20)\n      add\n      0x00\n      swap1\n      swap2\n      swap1\n      swap2\n      swap1\n      swap2\n      0x0100\n      exp\n      dup2\n      sload\n      dup2\n      0xffffffffffffffffffffffffffffffffffffffff\n      mul\n      not\n      and\n      swap1\n      dup4\n      0xffffffffffffffffffffffffffffffffffffffff\n      and\n      mul\n      or\n      swap1\n      sstore\n      pop\n        /* \"contracts/Shops.sol\":2882:3077  {... */\n      pop\n        /* \"contracts/Shops.sol\":2771:3077  function registerSeller(string memory fio,string memory userLogin,address userAddress,address shopAddr) public {... */\n      pop\n      pop\n      pop\n      pop\n      jump\t// out\n        /* \"contracts/Shops.sol\":4407:4771  function getBuyerInfo() public view isUser returns(... */\n    tag_63:\n        /* \"contracts/Shops.sol\":4467:4490  string memory userLogin */\n      0x60\n        /* \"contracts/Shops.sol\":4500:4517  string memory fio */\n      dup1\n        /* \"contracts/Shops.sol\":4527:4539  uint balance */\n      0x00\n        /* \"contracts/Shops.sol\":4549:4572  string[] memory reviews */\n      0x60\n        /* \"contracts/AuthService.sol\":1453:1492  compare(users[msg.sender].userLogin,\"\") */\n      tag_257\n        /* \"contracts/AuthService.sol\":1461:1466  users */\n      0x02\n        /* \"contracts/AuthService.sol\":1461:1478  users[msg.sender] */\n      0x00\n        /* \"contracts/AuthService.sol\":1467:1477  msg.sender */\n      caller\n        /* \"contracts/AuthService.sol\":1461:1478  users[msg.sender] */\n      0xffffffffffffffffffffffffffffffffffffffff\n      and\n      0xffffffffffffffffffffffffffffffffffffffff\n      and\n      dup2\n      mstore\n      0x20\n      add\n      swap1\n      dup2\n      mstore\n      0x20\n      add\n      0x00\n      keccak256\n        /* \"contracts/AuthService.sol\":1461:1488  users[msg.sender].userLogin */\n      0x01\n      add\n        /* \"contracts/AuthService.sol\":1453:1492  compare(users[msg.sender].userLogin,\"\") */\n      dup1\n      sload\n      tag_258\n      swap1\n      tag_91\n      jump\t// in\n    tag_258:\n      dup1\n      0x1f\n      add\n      0x20\n      dup1\n      swap2\n      div\n      mul\n      0x20\n      add\n      mload(0x40)\n      swap1\n      dup2\n      add\n      0x40\n      mstore\n      dup1\n      swap3\n      swap2\n      swap1\n      dup2\n      dup2\n      mstore\n      0x20\n      add\n      dup3\n      dup1\n      sload\n      tag_259\n      swap1\n      tag_91\n      jump\t// in\n    tag_259:\n      dup1\n      iszero\n      tag_260\n      jumpi\n      dup1\n      0x1f\n      lt\n      tag_261\n      jumpi\n      0x0100\n      dup1\n      dup4\n      sload\n      div\n      mul\n      dup4\n      mstore\n      swap2\n      0x20\n      add\n      swap2\n      jump(tag_260)\n    tag_261:\n      dup3\n      add\n      swap2\n      swap1\n      0x00\n      mstore\n      keccak256(0x00, 0x20)\n      swap1\n    tag_262:\n      dup2\n      sload\n      dup2\n      mstore\n      swap1\n      0x01\n      add\n      swap1\n      0x20\n      add\n      dup1\n      dup4\n      gt\n      tag_262\n      jumpi\n      dup3\n      swap1\n      sub\n      0x1f\n      and\n      dup3\n      add\n      swap2\n    tag_260:\n      pop\n      pop\n      pop\n      pop\n      pop\n      mload(0x40)\n      dup1\n      0x20\n      add\n      0x40\n      mstore\n      dup1\n      0x00\n      dup2\n      mstore\n      pop\n        /* \"contracts/AuthService.sol\":1453:1460  compare */\n      tag_135\n        /* \"contracts/AuthService.sol\":1453:1492  compare(users[msg.sender].userLogin,\"\") */\n      jump\t// in\n    tag_257:\n        /* \"contracts/AuthService.sol\":1452:1492  !compare(users[msg.sender].userLogin,\"\") */\n      iszero\n        /* \"contracts/AuthService.sol\":1444:1508  require(!compare(users[msg.sender].userLogin,\"\"),\"You not user\") */\n      tag_263\n      jumpi\n      mload(0x40)\n      0x08c379a000000000000000000000000000000000000000000000000000000000\n      dup2\n      mstore\n      0x04\n      add\n      tag_264\n      swap1\n      tag_138\n      jump\t// in\n    tag_264:\n      mload(0x40)\n      dup1\n      swap2\n      sub\n      swap1\n      revert\n    tag_263:\n        /* \"contracts/Shops.sol\":4588:4604  User memory user */\n      0x00\n        /* \"contracts/Shops.sol\":4607:4612  users */\n      0x02\n        /* \"contracts/Shops.sol\":4607:4624  users[msg.sender] */\n      0x00\n        /* \"contracts/Shops.sol\":4613:4623  msg.sender */\n      caller\n        /* \"contracts/Shops.sol\":4607:4624  users[msg.sender] */\n      0xffffffffffffffffffffffffffffffffffffffff\n      and\n      0xffffffffffffffffffffffffffffffffffffffff\n      and\n      dup2\n      mstore\n      0x20\n      add\n      swap1\n      dup2\n      mstore\n      0x20\n      add\n      0x00\n      keccak256\n        /* \"contracts/Shops.sol\":4588:4624  User memory user = users[msg.sender] */\n      mload(0x40)\n      dup1\n      0x80\n      add\n      0x40\n      mstore\n      swap1\n      dup2\n      0x00\n      dup3\n      add\n      sload\n      dup2\n      mstore\n      0x20\n      add\n      0x01\n      dup3\n      add\n      dup1\n      sload\n      tag_266\n      swap1\n      tag_91\n      jump\t// in\n    tag_266:\n      dup1\n      0x1f\n      add\n      0x20\n      dup1\n      swap2\n      div\n      mul\n      0x20\n      add\n      mload(0x40)\n      swap1\n      dup2\n      add\n      0x40\n      mstore\n      dup1\n      swap3\n      swap2\n      swap1\n      dup2\n      dup2\n      mstore\n      0x20\n      add\n      dup3\n      dup1\n      sload\n      tag_267\n      swap1\n      tag_91\n      jump\t// in\n    tag_267:\n      dup1\n      iszero\n      tag_268\n      jumpi\n      dup1\n      0x1f\n      lt\n      tag_269\n      jumpi\n      0x0100\n      dup1\n      dup4\n      sload\n      div\n      mul\n      dup4\n      mstore\n      swap2\n      0x20\n      add\n      swap2\n      jump(tag_268)\n    tag_269:\n      dup3\n      add\n      swap2\n      swap1\n      0x00\n      mstore\n      keccak256(0x00, 0x20)\n      swap1\n    tag_270:\n      dup2\n      sload\n      dup2\n      mstore\n      swap1\n      0x01\n      add\n      swap1\n      0x20\n      add\n      dup1\n      dup4\n      gt\n      tag_270\n      jumpi\n      dup3\n      swap1\n      sub\n      0x1f\n      and\n      dup3\n      add\n      swap2\n    tag_268:\n      pop\n      pop\n      pop\n      pop\n      pop\n      dup2\n      mstore\n      0x20\n      add\n      0x02\n      dup3\n      add\n      dup1\n      sload\n      tag_271\n      swap1\n      tag_91\n      jump\t// in\n    tag_271:\n      dup1\n      0x1f\n      add\n      0x20\n      dup1\n      swap2\n      div\n      mul\n      0x20\n      add\n      mload(0x40)\n      swap1\n      dup2\n      add\n      0x40\n      mstore\n      dup1\n      swap3\n      swap2\n      swap1\n      dup2\n      dup2\n      mstore\n      0x20\n      add\n      dup3\n      dup1\n      sload\n      tag_272\n      swap1\n      tag_91\n      jump\t// in\n    tag_272:\n      dup1\n      iszero\n      tag_273\n      jumpi\n      dup1\n      0x1f\n      lt\n      tag_274\n      jumpi\n      0x0100\n      dup1\n      dup4\n      sload\n      div\n      mul\n      dup4\n      mstore\n      swap2\n      0x20\n      add\n      swap2\n      jump(tag_273)\n    tag_274:\n      dup3\n      add\n      swap2\n      swap1\n      0x00\n      mstore\n      keccak256(0x00, 0x20)\n      swap1\n    tag_275:\n      dup2\n      sload\n      dup2\n      mstore\n      swap1\n      0x01\n      add\n      swap1\n      0x20\n      add\n      dup1\n      dup4\n      gt\n      tag_275\n      jumpi\n      dup3\n      swap1\n      sub\n      0x1f\n      and\n      dup3\n      add\n      swap2\n    tag_273:\n      pop\n      pop\n      pop\n      pop\n      pop\n      dup2\n      mstore\n      0x20\n      add\n      0x03\n      dup3\n      add\n      dup1\n      sload\n      dup1\n      0x20\n      mul\n      0x20\n      add\n      mload(0x40)\n      swap1\n      dup2\n      add\n      0x40\n      mstore\n      dup1\n      swap3\n      swap2\n      swap1\n      dup2\n      dup2\n      mstore\n      0x20\n      add\n      0x00\n      swap1\n    tag_276:\n      dup3\n      dup3\n      lt\n      iszero\n      tag_277\n      jumpi\n      dup4\n      dup3\n      swap1\n      0x00\n      mstore\n      keccak256(0x00, 0x20)\n      add\n      dup1\n      sload\n      tag_279\n      swap1\n      tag_91\n      jump\t// in\n    tag_279:\n      dup1\n      0x1f\n      add\n      0x20\n      dup1\n      swap2\n      div\n      mul\n      0x20\n      add\n      mload(0x40)\n      swap1\n      dup2\n      add\n      0x40\n      mstore\n      dup1\n      swap3\n      swap2\n      swap1\n      dup2\n      dup2\n      mstore\n      0x20\n      add\n      dup3\n      dup1\n      sload\n      tag_280\n      swap1\n      tag_91\n      jump\t// in\n    tag_280:\n      dup1\n      iszero\n      tag_281\n      jumpi\n      dup1\n      0x1f\n      lt\n      tag_282\n      jumpi\n      0x0100\n      dup1\n      dup4\n      sload\n      div\n      mul\n      dup4\n      mstore\n      swap2\n      0x20\n      add\n      swap2\n      jump(tag_281)\n    tag_282:\n      dup3\n      add\n      swap2\n      swap1\n      0x00\n      mstore\n      keccak256(0x00, 0x20)\n      swap1\n    tag_283:\n      dup2\n      sload\n      dup2\n      mstore\n      swap1\n      0x01\n      add\n      swap1\n      0x20\n      add\n      dup1\n      dup4\n      gt\n      tag_283\n      jumpi\n      dup3\n      swap1\n      sub\n      0x1f\n      and\n      dup3\n      add\n      swap2\n    tag_281:\n      pop\n      pop\n      pop\n      pop\n      pop\n      dup2\n      mstore\n      0x20\n      add\n      swap1\n      0x01\n      add\n      swap1\n      jump(tag_276)\n    tag_277:\n      pop\n      pop\n      pop\n      pop\n      dup2\n      mstore\n      pop\n      pop\n      swap1\n      pop\n        /* \"contracts/Shops.sol\":4647:4651  user */\n      dup1\n        /* \"contracts/Shops.sol\":4647:4661  user.userLogin */\n      0x20\n      add\n      mload\n        /* \"contracts/Shops.sol\":4635:4661  userLogin = user.userLogin */\n      swap5\n      pop\n        /* \"contracts/Shops.sol\":4677:4681  user */\n      dup1\n        /* \"contracts/Shops.sol\":4677:4685  user.fio */\n      0x40\n      add\n      mload\n        /* \"contracts/Shops.sol\":4671:4685  fio = user.fio */\n      swap4\n      pop\n        /* \"contracts/Shops.sol\":4713:4723  msg.sender */\n      caller\n        /* \"contracts/Shops.sol\":4705:4732  payable(msg.sender).balance */\n      0xffffffffffffffffffffffffffffffffffffffff\n      and\n      balance\n        /* \"contracts/Shops.sol\":4695:4732  balance = payable(msg.sender).balance */\n      swap3\n      pop\n        /* \"contracts/Shops.sol\":4752:4756  user */\n      dup1\n        /* \"contracts/Shops.sol\":4752:4764  user.reviews */\n      0x60\n      add\n      mload\n        /* \"contracts/Shops.sol\":4742:4764  reviews = user.reviews */\n      swap2\n      pop\n        /* \"contracts/Shops.sol\":4578:4771  {... */\n      pop\n        /* \"contracts/Shops.sol\":4407:4771  function getBuyerInfo() public view isUser returns(... */\n      swap1\n      swap2\n      swap3\n      swap4\n      jump\t// out\n        /* \"contracts/Shops.sol\":3144:3343  function registerBuyer(string memory fio,string memory userLogin,address userAddr) public{... */\n    tag_69:\n        /* \"contracts/Shops.sol\":3243:3254  uint status */\n      0x00\n        /* \"contracts/Shops.sol\":3262:3277  UserRoles.buyer */\n      dup1\n        /* \"contracts/Shops.sol\":3257:3278  uint(UserRoles.buyer) */\n      0x05\n      dup2\n      gt\n      iszero\n      tag_285\n      jumpi\n      tag_286\n      tag_85\n      jump\t// in\n    tag_286:\n    tag_285:\n        /* \"contracts/Shops.sol\":3243:3278  uint status = uint(UserRoles.buyer) */\n      swap1\n      pop\n        /* \"contracts/Shops.sol\":3288:3336  registerFromAdmin(fio,userLogin,status,userAddr) */\n      tag_287\n        /* \"contracts/Shops.sol\":3306:3309  fio */\n      dup5\n        /* \"contracts/Shops.sol\":3310:3319  userLogin */\n      dup5\n        /* \"contracts/Shops.sol\":3320:3326  status */\n      dup4\n        /* \"contracts/Shops.sol\":3327:3335  userAddr */\n      dup6\n        /* \"contracts/Shops.sol\":3288:3305  registerFromAdmin */\n      tag_127\n        /* \"contracts/Shops.sol\":3288:3336  registerFromAdmin(fio,userLogin,status,userAddr) */\n      jump\t// in\n    tag_287:\n        /* \"contracts/Shops.sol\":3233:3343  {... */\n      pop\n        /* \"contracts/Shops.sol\":3144:3343  function registerBuyer(string memory fio,string memory userLogin,address userAddr) public{... */\n      pop\n      pop\n      pop\n      jump\t// out\n        /* \"contracts/Shops.sol\":1432:1690  function regAdmin(address adminAddr,string memory fio,string memory userLogin) public isUserStatus(UserRoles.admin){... */\n    tag_73:\n        /* \"contracts/Shops.sol\":1531:1546  UserRoles.admin */\n      0x03\n        /* \"contracts/AuthService.sol\":1605:1610  users */\n      0x02\n        /* \"contracts/AuthService.sol\":1605:1622  users[msg.sender] */\n      0x00\n        /* \"contracts/AuthService.sol\":1611:1621  msg.sender */\n      caller\n        /* \"contracts/AuthService.sol\":1605:1622  users[msg.sender] */\n      0xffffffffffffffffffffffffffffffffffffffff\n      and\n      0xffffffffffffffffffffffffffffffffffffffff\n      and\n      dup2\n      mstore\n      0x20\n      add\n      swap1\n      dup2\n      mstore\n      0x20\n      add\n      0x00\n      keccak256\n        /* \"contracts/AuthService.sol\":1605:1629  users[msg.sender].status */\n      0x00\n      add\n      sload\n        /* \"contracts/AuthService.sol\":1594:1600  status */\n      dup2\n        /* \"contracts/AuthService.sol\":1589:1601  uint(status) */\n      0x05\n      dup2\n      gt\n      iszero\n      tag_289\n      jumpi\n      tag_290\n      tag_85\n      jump\t// in\n    tag_290:\n    tag_289:\n        /* \"contracts/AuthService.sol\":1589:1629  uint(status) == users[msg.sender].status */\n      eq\n        /* \"contracts/AuthService.sol\":1581:1642  require(uint(status) == users[msg.sender].status,\"Forbidden\") */\n      tag_291\n      jumpi\n      mload(0x40)\n      0x08c379a000000000000000000000000000000000000000000000000000000000\n      dup2\n      mstore\n      0x04\n      add\n      tag_292\n      swap1\n      tag_88\n      jump\t// in\n    tag_292:\n      mload(0x40)\n      dup1\n      swap2\n      sub\n      swap1\n      revert\n    tag_291:\n        /* \"contracts/Shops.sol\":1557:1568  uint status */\n      0x00\n        /* \"contracts/Shops.sol\":1576:1591  UserRoles.admin */\n      0x03\n        /* \"contracts/Shops.sol\":1571:1592  uint(UserRoles.admin) */\n      0x05\n      dup2\n      gt\n      iszero\n      tag_294\n      jumpi\n      tag_295\n      tag_85\n      jump\t// in\n    tag_295:\n    tag_294:\n        /* \"contracts/Shops.sol\":1557:1592  uint status = uint(UserRoles.admin) */\n      swap1\n      pop\n        /* \"contracts/Shops.sol\":1602:1651  registerFromAdmin(fio,userLogin,status,adminAddr) */\n      tag_296\n        /* \"contracts/Shops.sol\":1620:1623  fio */\n      dup5\n        /* \"contracts/Shops.sol\":1624:1633  userLogin */\n      dup5\n        /* \"contracts/Shops.sol\":1634:1640  status */\n      dup4\n        /* \"contracts/Shops.sol\":1641:1650  adminAddr */\n      dup9\n        /* \"contracts/Shops.sol\":1602:1619  registerFromAdmin */\n      tag_127\n        /* \"contracts/Shops.sol\":1602:1651  registerFromAdmin(fio,userLogin,status,adminAddr) */\n      jump\t// in\n    tag_296:\n        /* \"contracts/Shops.sol\":1661:1667  admins */\n      0x05\n        /* \"contracts/Shops.sol\":1673:1682  userLogin */\n      dup4\n        /* \"contracts/Shops.sol\":1661:1683  admins.push(userLogin) */\n      swap1\n      dup1\n      0x01\n      dup2\n      sload\n      add\n      dup1\n      dup3\n      sstore\n      dup1\n      swap2\n      pop\n      pop\n      0x01\n      swap1\n      sub\n      swap1\n      0x00\n      mstore\n      keccak256(0x00, 0x20)\n      add\n      0x00\n      swap1\n      swap2\n      swap1\n      swap2\n      swap1\n      swap2\n      pop\n      swap1\n      dup1\n      mload\n      swap1\n      0x20\n      add\n      swap1\n      tag_298\n      swap3\n      swap2\n      swap1\n      tag_142\n      jump\t// in\n    tag_298:\n      pop\n        /* \"contracts/Shops.sol\":1547:1690  {... */\n      pop\n        /* \"contracts/Shops.sol\":1432:1690  function regAdmin(address adminAddr,string memory fio,string memory userLogin) public isUserStatus(UserRoles.admin){... */\n      pop\n      pop\n      pop\n      pop\n      jump\t// out\n        /* \"contracts/Shops.sol\":4841:5240  function getAdminInfo() public view isUserStatus(UserRoles.admin) returns(... */\n    tag_75:\n        /* \"contracts/Shops.sol\":4924:4943  string memory login */\n      0x60\n        /* \"contracts/Shops.sol\":4953:4982  Request[] memory userRequests */\n      dup1\n        /* \"contracts/Shops.sol\":4992:5017  string[] memory adminList */\n      0x60\n        /* \"contracts/Shops.sol\":5027:5055  address[] memory sellersAddr */\n      dup1\n        /* \"contracts/Shops.sol\":4890:4905  UserRoles.admin */\n      0x03\n        /* \"contracts/AuthService.sol\":1605:1610  users */\n      0x02\n        /* \"contracts/AuthService.sol\":1605:1622  users[msg.sender] */\n      0x00\n        /* \"contracts/AuthService.sol\":1611:1621  msg.sender */\n      caller\n        /* \"contracts/AuthService.sol\":1605:1622  users[msg.sender] */\n      0xffffffffffffffffffffffffffffffffffffffff\n      and\n      0xffffffffffffffffffffffffffffffffffffffff\n      and\n      dup2\n      mstore\n      0x20\n      add\n      swap1\n      dup2\n      mstore\n      0x20\n      add\n      0x00\n      keccak256\n        /* \"contracts/AuthService.sol\":1605:1629  users[msg.sender].status */\n      0x00\n      add\n      sload\n        /* \"contracts/AuthService.sol\":1594:1600  status */\n      dup2\n        /* \"contracts/AuthService.sol\":1589:1601  uint(status) */\n      0x05\n      dup2\n      gt\n      iszero\n      tag_300\n      jumpi\n      tag_301\n      tag_85\n      jump\t// in\n    tag_301:\n    tag_300:\n        /* \"contracts/AuthService.sol\":1589:1629  uint(status) == users[msg.sender].status */\n      eq\n        /* \"contracts/AuthService.sol\":1581:1642  require(uint(status) == users[msg.sender].status,\"Forbidden\") */\n      tag_302\n      jumpi\n      mload(0x40)\n      0x08c379a000000000000000000000000000000000000000000000000000000000\n      dup2\n      mstore\n      0x04\n      add\n      tag_303\n      swap1\n      tag_88\n      jump\t// in\n    tag_303:\n      mload(0x40)\n      dup1\n      swap2\n      sub\n      swap1\n      revert\n    tag_302:\n        /* \"contracts/Shops.sol\":5072:5088  User memory user */\n      0x00\n        /* \"contracts/Shops.sol\":5091:5096  users */\n      0x02\n        /* \"contracts/Shops.sol\":5091:5108  users[msg.sender] */\n      0x00\n        /* \"contracts/Shops.sol\":5097:5107  msg.sender */\n      caller\n        /* \"contracts/Shops.sol\":5091:5108  users[msg.sender] */\n      0xffffffffffffffffffffffffffffffffffffffff\n      and\n      0xffffffffffffffffffffffffffffffffffffffff\n      and\n      dup2\n      mstore\n      0x20\n      add\n      swap1\n      dup2\n      mstore\n      0x20\n      add\n      0x00\n      keccak256\n        /* \"contracts/Shops.sol\":5072:5108  User memory user = users[msg.sender] */\n      mload(0x40)\n      dup1\n      0x80\n      add\n      0x40\n      mstore\n      swap1\n      dup2\n      0x00\n      dup3\n      add\n      sload\n      dup2\n      mstore\n      0x20\n      add\n      0x01\n      dup3\n      add\n      dup1\n      sload\n      tag_305\n      swap1\n      tag_91\n      jump\t// in\n    tag_305:\n      dup1\n      0x1f\n      add\n      0x20\n      dup1\n      swap2\n      div\n      mul\n      0x20\n      add\n      mload(0x40)\n      swap1\n      dup2\n      add\n      0x40\n      mstore\n      dup1\n      swap3\n      swap2\n      swap1\n      dup2\n      dup2\n      mstore\n      0x20\n      add\n      dup3\n      dup1\n      sload\n      tag_306\n      swap1\n      tag_91\n      jump\t// in\n    tag_306:\n      dup1\n      iszero\n      tag_307\n      jumpi\n      dup1\n      0x1f\n      lt\n      tag_308\n      jumpi\n      0x0100\n      dup1\n      dup4\n      sload\n      div\n      mul\n      dup4\n      mstore\n      swap2\n      0x20\n      add\n      swap2\n      jump(tag_307)\n    tag_308:\n      dup3\n      add\n      swap2\n      swap1\n      0x00\n      mstore\n      keccak256(0x00, 0x20)\n      swap1\n    tag_309:\n      dup2\n      sload\n      dup2\n      mstore\n      swap1\n      0x01\n      add\n      swap1\n      0x20\n      add\n      dup1\n      dup4\n      gt\n      tag_309\n      jumpi\n      dup3\n      swap1\n      sub\n      0x1f\n      and\n      dup3\n      add\n      swap2\n    tag_307:\n      pop\n      pop\n      pop\n      pop\n      pop\n      dup2\n      mstore\n      0x20\n      add\n      0x02\n      dup3\n      add\n      dup1\n      sload\n      tag_310\n      swap1\n      tag_91\n      jump\t// in\n    tag_310:\n      dup1\n      0x1f\n      add\n      0x20\n      dup1\n      swap2\n      div\n      mul\n      0x20\n      add\n      mload(0x40)\n      swap1\n      dup2\n      add\n      0x40\n      mstore\n      dup1\n      swap3\n      swap2\n      swap1\n      dup2\n      dup2\n      mstore\n      0x20\n      add\n      dup3\n      dup1\n      sload\n      tag_311\n      swap1\n      tag_91\n      jump\t// in\n    tag_311:\n      dup1\n      iszero\n      tag_312\n      jumpi\n      dup1\n      0x1f\n      lt\n      tag_313\n      jumpi\n      0x0100\n      dup1\n      dup4\n      sload\n      div\n      mul\n      dup4\n      mstore\n      swap2\n      0x20\n      add\n      swap2\n      jump(tag_312)\n    tag_313:\n      dup3\n      add\n      swap2\n      swap1\n      0x00\n      mstore\n      keccak256(0x00, 0x20)\n      swap1\n    tag_314:\n      dup2\n      sload\n      dup2\n      mstore\n      swap1\n      0x01\n      add\n      swap1\n      0x20\n      add\n      dup1\n      dup4\n      gt\n      tag_314\n      jumpi\n      dup3\n      swap1\n      sub\n      0x1f\n      and\n      dup3\n      add\n      swap2\n    tag_312:\n      pop\n      pop\n      pop\n      pop\n      pop\n      dup2\n      mstore\n      0x20\n      add\n      0x03\n      dup3\n      add\n      dup1\n      sload\n      dup1\n      0x20\n      mul\n      0x20\n      add\n      mload(0x40)\n      swap1\n      dup2\n      add\n      0x40\n      mstore\n      dup1\n      swap3\n      swap2\n      swap1\n      dup2\n      dup2\n      mstore\n      0x20\n      add\n      0x00\n      swap1\n    tag_315:\n      dup3\n      dup3\n      lt\n      iszero\n      tag_316\n      jumpi\n      dup4\n      dup3\n      swap1\n      0x00\n      mstore\n      keccak256(0x00, 0x20)\n      add\n      dup1\n      sload\n      tag_318\n      swap1\n      tag_91\n      jump\t// in\n    tag_318:\n      dup1\n      0x1f\n      add\n      0x20\n      dup1\n      swap2\n      div\n      mul\n      0x20\n      add\n      mload(0x40)\n      swap1\n      dup2\n      add\n      0x40\n      mstore\n      dup1\n      swap3\n      swap2\n      swap1\n      dup2\n      dup2\n      mstore\n      0x20\n      add\n      dup3\n      dup1\n      sload\n      tag_319\n      swap1\n      tag_91\n      jump\t// in\n    tag_319:\n      dup1\n      iszero\n      tag_320\n      jumpi\n      dup1\n      0x1f\n      lt\n      tag_321\n      jumpi\n      0x0100\n      dup1\n      dup4\n      sload\n      div\n      mul\n      dup4\n      mstore\n      swap2\n      0x20\n      add\n      swap2\n      jump(tag_320)\n    tag_321:\n      dup3\n      add\n      swap2\n      swap1\n      0x00\n      mstore\n      keccak256(0x00, 0x20)\n      swap1\n    tag_322:\n      dup2\n      sload\n      dup2\n      mstore\n      swap1\n      0x01\n      add\n      swap1\n      0x20\n      add\n      dup1\n      dup4\n      gt\n      tag_322\n      jumpi\n      dup3\n      swap1\n      sub\n      0x1f\n      and\n      dup3\n      add\n      swap2\n    tag_320:\n      pop\n      pop\n      pop\n      pop\n      pop\n      dup2\n      mstore\n      0x20\n      add\n      swap1\n      0x01\n      add\n      swap1\n      jump(tag_315)\n    tag_316:\n      pop\n      pop\n      pop\n      pop\n      dup2\n      mstore\n      pop\n      pop\n      swap1\n      pop\n        /* \"contracts/Shops.sol\":5127:5131  user */\n      dup1\n        /* \"contracts/Shops.sol\":5127:5141  user.userLogin */\n      0x20\n      add\n      mload\n        /* \"contracts/Shops.sol\":5119:5141  login = user.userLogin */\n      swap6\n      pop\n        /* \"contracts/Shops.sol\":5166:5174  requests */\n      0x09\n        /* \"contracts/Shops.sol\":5151:5174  userRequests = requests */\n      dup1\n      sload\n      dup1\n      0x20\n      mul\n      0x20\n      add\n      mload(0x40)\n      swap1\n      dup2\n      add\n      0x40\n      mstore\n      dup1\n      swap3\n      swap2\n      swap1\n      dup2\n      dup2\n      mstore\n      0x20\n      add\n      0x00\n      swap1\n    tag_323:\n      dup3\n      dup3\n      lt\n      iszero\n      tag_324\n      jumpi\n      dup4\n      dup3\n      swap1\n      0x00\n      mstore\n      keccak256(0x00, 0x20)\n      swap1\n      0x04\n      mul\n      add\n      mload(0x40)\n      dup1\n      0x80\n      add\n      0x40\n      mstore\n      swap1\n      dup2\n      0x00\n      dup3\n      add\n      0x00\n      swap1\n      sload\n      swap1\n      0x0100\n      exp\n      swap1\n      div\n      0xffffffffffffffffffffffffffffffffffffffff\n      and\n      0xffffffffffffffffffffffffffffffffffffffff\n      and\n      0xffffffffffffffffffffffffffffffffffffffff\n      and\n      dup2\n      mstore\n      0x20\n      add\n      0x01\n      dup3\n      add\n      dup1\n      sload\n      tag_326\n      swap1\n      tag_91\n      jump\t// in\n    tag_326:\n      dup1\n      0x1f\n      add\n      0x20\n      dup1\n      swap2\n      div\n      mul\n      0x20\n      add\n      mload(0x40)\n      swap1\n      dup2\n      add\n      0x40\n      mstore\n      dup1\n      swap3\n      swap2\n      swap1\n      dup2\n      dup2\n      mstore\n      0x20\n      add\n      dup3\n      dup1\n      sload\n      tag_327\n      swap1\n      tag_91\n      jump\t// in\n    tag_327:\n      dup1\n      iszero\n      tag_328\n      jumpi\n      dup1\n      0x1f\n      lt\n      tag_329\n      jumpi\n      0x0100\n      dup1\n      dup4\n      sload\n      div\n      mul\n      dup4\n      mstore\n      swap2\n      0x20\n      add\n      swap2\n      jump(tag_328)\n    tag_329:\n      dup3\n      add\n      swap2\n      swap1\n      0x00\n      mstore\n      keccak256(0x00, 0x20)\n      swap1\n    tag_330:\n      dup2\n      sload\n      dup2\n      mstore\n      swap1\n      0x01\n      add\n      swap1\n      0x20\n      add\n      dup1\n      dup4\n      gt\n      tag_330\n      jumpi\n      dup3\n      swap1\n      sub\n      0x1f\n      and\n      dup3\n      add\n      swap2\n    tag_328:\n      pop\n      pop\n      pop\n      pop\n      pop\n      dup2\n      mstore\n      0x20\n      add\n      0x02\n      dup3\n      add\n      dup1\n      sload\n      tag_331\n      swap1\n      tag_91\n      jump\t// in\n    tag_331:\n      dup1\n      0x1f\n      add\n      0x20\n      dup1\n      swap2\n      div\n      mul\n      0x20\n      add\n      mload(0x40)\n      swap1\n      dup2\n      add\n      0x40\n      mstore\n      dup1\n      swap3\n      swap2\n      swap1\n      dup2\n      dup2\n      mstore\n      0x20\n      add\n      dup3\n      dup1\n      sload\n      tag_332\n      swap1\n      tag_91\n      jump\t// in\n    tag_332:\n      dup1\n      iszero\n      tag_333\n      jumpi\n      dup1\n      0x1f\n      lt\n      tag_334\n      jumpi\n      0x0100\n      dup1\n      dup4\n      sload\n      div\n      mul\n      dup4\n      mstore\n      swap2\n      0x20\n      add\n      swap2\n      jump(tag_333)\n    tag_334:\n      dup3\n      add\n      swap2\n      swap1\n      0x00\n      mstore\n      keccak256(0x00, 0x20)\n      swap1\n    tag_335:\n      dup2\n      sload\n      dup2\n      mstore\n      swap1\n      0x01\n      add\n      swap1\n      0x20\n      add\n      dup1\n      dup4\n      gt\n      tag_335\n      jumpi\n      dup3\n      swap1\n      sub\n      0x1f\n      and\n      dup3\n      add\n      swap2\n    tag_333:\n      pop\n      pop\n      pop\n      pop\n      pop\n      dup2\n      mstore\n      0x20\n      add\n      0x03\n      dup3\n      add\n      0x00\n      swap1\n      sload\n      swap1\n      0x0100\n      exp\n      swap1\n      div\n      0xff\n      and\n      iszero\n      iszero\n      iszero\n      iszero\n      dup2\n      mstore\n      pop\n      pop\n      dup2\n      mstore\n      0x20\n      add\n      swap1\n      0x01\n      add\n      swap1\n      jump(tag_323)\n    tag_324:\n      pop\n      pop\n      pop\n      pop\n      swap5\n      pop\n        /* \"contracts/Shops.sol\":5196:5202  admins */\n      0x05\n        /* \"contracts/Shops.sol\":5184:5202  adminList = admins */\n      dup1\n      sload\n      dup1\n      0x20\n      mul\n      0x20\n      add\n      mload(0x40)\n      swap1\n      dup2\n      add\n      0x40\n      mstore\n      dup1\n      swap3\n      swap2\n      swap1\n      dup2\n      dup2\n      mstore\n      0x20\n      add\n      0x00\n      swap1\n    tag_336:\n      dup3\n      dup3\n      lt\n      iszero\n      tag_337\n      jumpi\n      dup4\n      dup3\n      swap1\n      0x00\n      mstore\n      keccak256(0x00, 0x20)\n      add\n      dup1\n      sload\n      tag_339\n      swap1\n      tag_91\n      jump\t// in\n    tag_339:\n      dup1\n      0x1f\n      add\n      0x20\n      dup1\n      swap2\n      div\n      mul\n      0x20\n      add\n      mload(0x40)\n      swap1\n      dup2\n      add\n      0x40\n      mstore\n      dup1\n      swap3\n      swap2\n      swap1\n      dup2\n      dup2\n      mstore\n      0x20\n      add\n      dup3\n      dup1\n      sload\n      tag_340\n      swap1\n      tag_91\n      jump\t// in\n    tag_340:\n      dup1\n      iszero\n      tag_341\n      jumpi\n      dup1\n      0x1f\n      lt\n      tag_342\n      jumpi\n      0x0100\n      dup1\n      dup4\n      sload\n      div\n      mul\n      dup4\n      mstore\n      swap2\n      0x20\n      add\n      swap2\n      jump(tag_341)\n    tag_342:\n      dup3\n      add\n      swap2\n      swap1\n      0x00\n      mstore\n      keccak256(0x00, 0x20)\n      swap1\n    tag_343:\n      dup2\n      sload\n      dup2\n      mstore\n      swap1\n      0x01\n      add\n      swap1\n      0x20\n      add\n      dup1\n      dup4\n      gt\n      tag_343\n      jumpi\n      dup3\n      swap1\n      sub\n      0x1f\n      and\n      dup3\n      add\n      swap2\n    tag_341:\n      pop\n      pop\n      pop\n      pop\n      pop\n      dup2\n      mstore\n      0x20\n      add\n      swap1\n      0x01\n      add\n      swap1\n      jump(tag_336)\n    tag_337:\n      pop\n      pop\n      pop\n      pop\n      swap4\n      pop\n        /* \"contracts/Shops.sol\":5226:5233  sellers */\n      0x07\n        /* \"contracts/Shops.sol\":5212:5233  sellersAddr = sellers */\n      dup1\n      sload\n      dup1\n      0x20\n      mul\n      0x20\n      add\n      mload(0x40)\n      swap1\n      dup2\n      add\n      0x40\n      mstore\n      dup1\n      swap3\n      swap2\n      swap1\n      dup2\n      dup2\n      mstore\n      0x20\n      add\n      dup3\n      dup1\n      sload\n      dup1\n      iszero\n      tag_344\n      jumpi\n      0x20\n      mul\n      dup3\n      add\n      swap2\n      swap1\n      0x00\n      mstore\n      keccak256(0x00, 0x20)\n      swap1\n    tag_345:\n      dup2\n      0x00\n      swap1\n      sload\n      swap1\n      0x0100\n      exp\n      swap1\n      div\n      0xffffffffffffffffffffffffffffffffffffffff\n      and\n      0xffffffffffffffffffffffffffffffffffffffff\n      and\n      dup2\n      mstore\n      0x20\n      add\n      swap1\n      0x01\n      add\n      swap1\n      dup1\n      dup4\n      gt\n      tag_345\n      jumpi\n    tag_344:\n      pop\n      pop\n      pop\n      pop\n      pop\n      swap3\n      pop\n        /* \"contracts/Shops.sol\":5062:5240  {... */\n      pop\n        /* \"contracts/Shops.sol\":4841:5240  function getAdminInfo() public view isUserStatus(UserRoles.admin) returns(... */\n      pop\n      swap1\n      swap2\n      swap3\n      swap4\n      jump\t// out\n        /* \"contracts/Shops.sol\":1116:1341  function registerAdmin(string memory fio,string memory userLogin) isAdmin public {... */\n    tag_81:\n        /* \"contracts/Shops.sol\":958:963  admin */\n      0x04\n      0x00\n      swap1\n      sload\n      swap1\n      0x0100\n      exp\n      swap1\n      div\n      0xffffffffffffffffffffffffffffffffffffffff\n      and\n        /* \"contracts/Shops.sol\":944:963  msg.sender == admin */\n      0xffffffffffffffffffffffffffffffffffffffff\n      and\n        /* \"contracts/Shops.sol\":944:954  msg.sender */\n      caller\n        /* \"contracts/Shops.sol\":944:963  msg.sender == admin */\n      0xffffffffffffffffffffffffffffffffffffffff\n      and\n      eq\n        /* \"contracts/Shops.sol\":936:980  require(msg.sender == admin,\"You not admin\") */\n      tag_347\n      jumpi\n      mload(0x40)\n      0x08c379a000000000000000000000000000000000000000000000000000000000\n      dup2\n      mstore\n      0x04\n      add\n      tag_348\n      swap1\n      tag_122\n      jump\t// in\n    tag_348:\n      mload(0x40)\n      dup1\n      swap2\n      sub\n      swap1\n      revert\n    tag_347:\n        /* \"contracts/Shops.sol\":1207:1218  uint status */\n      0x00\n        /* \"contracts/Shops.sol\":1226:1241  UserRoles.admin */\n      0x03\n        /* \"contracts/Shops.sol\":1221:1242  uint(UserRoles.admin) */\n      0x05\n      dup2\n      gt\n      iszero\n      tag_350\n      jumpi\n      tag_351\n      tag_85\n      jump\t// in\n    tag_351:\n    tag_350:\n        /* \"contracts/Shops.sol\":1207:1242  uint status = uint(UserRoles.admin) */\n      swap1\n      pop\n        /* \"contracts/Shops.sol\":1252:1302  registerFromAdmin(fio,userLogin,status,msg.sender) */\n      tag_352\n        /* \"contracts/Shops.sol\":1270:1273  fio */\n      dup4\n        /* \"contracts/Shops.sol\":1274:1283  userLogin */\n      dup4\n        /* \"contracts/Shops.sol\":1284:1290  status */\n      dup4\n        /* \"contracts/Shops.sol\":1291:1301  msg.sender */\n      caller\n        /* \"contracts/Shops.sol\":1252:1269  registerFromAdmin */\n      tag_127\n        /* \"contracts/Shops.sol\":1252:1302  registerFromAdmin(fio,userLogin,status,msg.sender) */\n      jump\t// in\n    tag_352:\n        /* \"contracts/Shops.sol\":1312:1318  admins */\n      0x05\n        /* \"contracts/Shops.sol\":1324:1333  userLogin */\n      dup3\n        /* \"contracts/Shops.sol\":1312:1334  admins.push(userLogin) */\n      swap1\n      dup1\n      0x01\n      dup2\n      sload\n      add\n      dup1\n      dup3\n      sstore\n      dup1\n      swap2\n      pop\n      pop\n      0x01\n      swap1\n      sub\n      swap1\n      0x00\n      mstore\n      keccak256(0x00, 0x20)\n      add\n      0x00\n      swap1\n      swap2\n      swap1\n      swap2\n      swap1\n      swap2\n      pop\n      swap1\n      dup1\n      mload\n      swap1\n      0x20\n      add\n      swap1\n      tag_354\n      swap3\n      swap2\n      swap1\n      tag_142\n      jump\t// in\n    tag_354:\n      pop\n        /* \"contracts/Shops.sol\":1197:1341  {... */\n      pop\n        /* \"contracts/Shops.sol\":1116:1341  function registerAdmin(string memory fio,string memory userLogin) isAdmin public {... */\n      pop\n      pop\n      jump\t// out\n        /* \"contracts/AuthService.sol\":1863:2238  function registerFromAdmin(string memory fio,string memory userLogin,uint status,address userAddress) internal isNotRegistered(userAddress,userLogin){... */\n    tag_127:\n        /* \"contracts/AuthService.sol\":1990:2001  userAddress */\n      dup1\n        /* \"contracts/AuthService.sol\":2002:2011  userLogin */\n      dup4\n        /* \"contracts/AuthService.sol\":1027:1061  compare(users[userAddress].fio,\"\") */\n      tag_356\n        /* \"contracts/AuthService.sol\":1035:1040  users */\n      0x02\n        /* \"contracts/AuthService.sol\":1035:1053  users[userAddress] */\n      0x00\n        /* \"contracts/AuthService.sol\":1041:1052  userAddress */\n      dup5\n        /* \"contracts/AuthService.sol\":1035:1053  users[userAddress] */\n      0xffffffffffffffffffffffffffffffffffffffff\n      and\n      0xffffffffffffffffffffffffffffffffffffffff\n      and\n      dup2\n      mstore\n      0x20\n      add\n      swap1\n      dup2\n      mstore\n      0x20\n      add\n      0x00\n      keccak256\n        /* \"contracts/AuthService.sol\":1035:1057  users[userAddress].fio */\n      0x02\n      add\n        /* \"contracts/AuthService.sol\":1027:1061  compare(users[userAddress].fio,\"\") */\n      dup1\n      sload\n      tag_357\n      swap1\n      tag_91\n      jump\t// in\n    tag_357:\n      dup1\n      0x1f\n      add\n      0x20\n      dup1\n      swap2\n      div\n      mul\n      0x20\n      add\n      mload(0x40)\n      swap1\n      dup2\n      add\n      0x40\n      mstore\n      dup1\n      swap3\n      swap2\n      swap1\n      dup2\n      dup2\n      mstore\n      0x20\n      add\n      dup3\n      dup1\n      sload\n      tag_358\n      swap1\n      tag_91\n      jump\t// in\n    tag_358:\n      dup1\n      iszero\n      tag_359\n      jumpi\n      dup1\n      0x1f\n      lt\n      tag_360\n      jumpi\n      0x0100\n      dup1\n      dup4\n      sload\n      div\n      mul\n      dup4\n      mstore\n      swap2\n      0x20\n      add\n      swap2\n      jump(tag_359)\n    tag_360:\n      dup3\n      add\n      swap2\n      swap1\n      0x00\n      mstore\n      keccak256(0x00, 0x20)\n      swap1\n    tag_361:\n      dup2\n      sload\n      dup2\n      mstore\n      swap1\n      0x01\n      add\n      swap1\n      0x20\n      add\n      dup1\n      dup4\n      gt\n      tag_361\n      jumpi\n      dup3\n      swap1\n      sub\n      0x1f\n      and\n      dup3\n      add\n      swap2\n    tag_359:\n      pop\n      pop\n      pop\n      pop\n      pop\n      mload(0x40)\n      dup1\n      0x20\n      add\n      0x40\n      mstore\n      dup1\n      0x00\n      dup2\n      mstore\n      pop\n        /* \"contracts/AuthService.sol\":1027:1034  compare */\n      tag_135\n        /* \"contracts/AuthService.sol\":1027:1061  compare(users[userAddress].fio,\"\") */\n      jump\t// in\n    tag_356:\n        /* \"contracts/AuthService.sol\":1026:1061  !compare(users[userAddress].fio,\"\") */\n      iszero\n        /* \"contracts/AuthService.sol\":1018:1087  require(!compare(users[userAddress].fio,\"\"),\"You already registered\") */\n      tag_362\n      jumpi\n      mload(0x40)\n      0x08c379a000000000000000000000000000000000000000000000000000000000\n      dup2\n      mstore\n      0x04\n      add\n      tag_363\n      swap1\n      tag_364\n      jump\t// in\n    tag_363:\n      mload(0x40)\n      dup1\n      swap2\n      sub\n      swap1\n      revert\n    tag_362:\n        /* \"contracts/AuthService.sol\":1138:1139  0 */\n      0x00\n        /* \"contracts/AuthService.sol\":1105:1140  userLogins[userLogin] == address(0) */\n      0xffffffffffffffffffffffffffffffffffffffff\n      and\n        /* \"contracts/AuthService.sol\":1105:1115  userLogins */\n      0x01\n        /* \"contracts/AuthService.sol\":1116:1125  userLogin */\n      dup3\n        /* \"contracts/AuthService.sol\":1105:1126  userLogins[userLogin] */\n      mload(0x40)\n      tag_365\n      swap2\n      swap1\n      tag_144\n      jump\t// in\n    tag_365:\n      swap1\n      dup2\n      mstore\n      0x20\n      add\n      mload(0x40)\n      dup1\n      swap2\n      sub\n      swap1\n      keccak256\n      0x00\n      swap1\n      sload\n      swap1\n      0x0100\n      exp\n      swap1\n      div\n      0xffffffffffffffffffffffffffffffffffffffff\n      and\n        /* \"contracts/AuthService.sol\":1105:1140  userLogins[userLogin] == address(0) */\n      0xffffffffffffffffffffffffffffffffffffffff\n      and\n      eq\n        /* \"contracts/AuthService.sol\":1097:1178  require(userLogins[userLogin] == address(0),\"Your login already exist in system\") */\n      tag_366\n      jumpi\n      mload(0x40)\n      0x08c379a000000000000000000000000000000000000000000000000000000000\n      dup2\n      mstore\n      0x04\n      add\n      tag_367\n      swap1\n      tag_368\n      jump\t// in\n    tag_367:\n      mload(0x40)\n      dup1\n      swap2\n      sub\n      swap1\n      revert\n    tag_366:\n        /* \"contracts/AuthService.sol\":2022:2048  string[] memory reviewList */\n      0x60\n        /* \"contracts/AuthService.sol\":2058:2077  User memory newUser */\n      0x00\n        /* \"contracts/AuthService.sol\":2080:2148  User({fio:fio,userLogin:userLogin,status:status,reviews:reviewList}) */\n      mload(0x40)\n      dup1\n      0x80\n      add\n      0x40\n      mstore\n      dup1\n        /* \"contracts/AuthService.sol\":2121:2127  status */\n      dup8\n        /* \"contracts/AuthService.sol\":2080:2148  User({fio:fio,userLogin:userLogin,status:status,reviews:reviewList}) */\n      dup2\n      mstore\n      0x20\n      add\n        /* \"contracts/AuthService.sol\":2104:2113  userLogin */\n      dup9\n        /* \"contracts/AuthService.sol\":2080:2148  User({fio:fio,userLogin:userLogin,status:status,reviews:reviewList}) */\n      dup2\n      mstore\n      0x20\n      add\n        /* \"contracts/AuthService.sol\":2090:2093  fio */\n      dup10\n        /* \"contracts/AuthService.sol\":2080:2148  User({fio:fio,userLogin:userLogin,status:status,reviews:reviewList}) */\n      dup2\n      mstore\n      0x20\n      add\n        /* \"contracts/AuthService.sol\":2136:2146  reviewList */\n      dup4\n        /* \"contracts/AuthService.sol\":2080:2148  User({fio:fio,userLogin:userLogin,status:status,reviews:reviewList}) */\n      dup2\n      mstore\n      pop\n        /* \"contracts/AuthService.sol\":2058:2148  User memory newUser = User({fio:fio,userLogin:userLogin,status:status,reviews:reviewList}) */\n      swap1\n      pop\n        /* \"contracts/AuthService.sol\":2182:2193  userAddress */\n      dup5\n        /* \"contracts/AuthService.sol\":2158:2168  userLogins */\n      0x01\n        /* \"contracts/AuthService.sol\":2169:2178  userLogin */\n      dup9\n        /* \"contracts/AuthService.sol\":2158:2179  userLogins[userLogin] */\n      mload(0x40)\n      tag_370\n      swap2\n      swap1\n      tag_144\n      jump\t// in\n    tag_370:\n      swap1\n      dup2\n      mstore\n      0x20\n      add\n      mload(0x40)\n      dup1\n      swap2\n      sub\n      swap1\n      keccak256\n      0x00\n        /* \"contracts/AuthService.sol\":2158:2193  userLogins[userLogin] = userAddress */\n      0x0100\n      exp\n      dup2\n      sload\n      dup2\n      0xffffffffffffffffffffffffffffffffffffffff\n      mul\n      not\n      and\n      swap1\n      dup4\n      0xffffffffffffffffffffffffffffffffffffffff\n      and\n      mul\n      or\n      swap1\n      sstore\n      pop\n        /* \"contracts/AuthService.sol\":2224:2231  newUser */\n      dup1\n        /* \"contracts/AuthService.sol\":2203:2208  users */\n      0x02\n        /* \"contracts/AuthService.sol\":2203:2221  users[userAddress] */\n      0x00\n        /* \"contracts/AuthService.sol\":2209:2220  userAddress */\n      dup8\n        /* \"contracts/AuthService.sol\":2203:2221  users[userAddress] */\n      0xffffffffffffffffffffffffffffffffffffffff\n      and\n      0xffffffffffffffffffffffffffffffffffffffff\n      and\n      dup2\n      mstore\n      0x20\n      add\n      swap1\n      dup2\n      mstore\n      0x20\n      add\n      0x00\n      keccak256\n        /* \"contracts/AuthService.sol\":2203:2231  users[userAddress] = newUser */\n      0x00\n      dup3\n      add\n      mload\n      dup2\n      0x00\n      add\n      sstore\n      0x20\n      dup3\n      add\n      mload\n      dup2\n      0x01\n      add\n      swap1\n      dup1\n      mload\n      swap1\n      0x20\n      add\n      swap1\n      tag_371\n      swap3\n      swap2\n      swap1\n      tag_142\n      jump\t// in\n    tag_371:\n      pop\n      0x40\n      dup3\n      add\n      mload\n      dup2\n      0x02\n      add\n      swap1\n      dup1\n      mload\n      swap1\n      0x20\n      add\n      swap1\n      tag_372\n      swap3\n      swap2\n      swap1\n      tag_142\n      jump\t// in\n    tag_372:\n      pop\n      0x60\n      dup3\n      add\n      mload\n      dup2\n      0x03\n      add\n      swap1\n      dup1\n      mload\n      swap1\n      0x20\n      add\n      swap1\n      tag_373\n      swap3\n      swap2\n      swap1\n      tag_374\n      jump\t// in\n    tag_373:\n      pop\n      swap1\n      pop\n      pop\n        /* \"contracts/AuthService.sol\":2012:2238  {... */\n      pop\n      pop\n        /* \"contracts/AuthService.sol\":1863:2238  function registerFromAdmin(string memory fio,string memory userLogin,uint status,address userAddress) internal isNotRegistered(userAddress,userLogin){... */\n      pop\n      pop\n      pop\n      pop\n      pop\n      pop\n      jump\t// out\n        /* \"contracts/AuthService.sol\":767:933  function compare(string memory a,string memory b) internal pure returns (bool){... */\n    tag_135:\n        /* \"contracts/AuthService.sol\":840:844  bool */\n      0x00\n        /* \"contracts/AuthService.sol\":923:924  b */\n      dup2\n        /* \"contracts/AuthService.sol\":906:925  abi.encodePacked(b) */\n      add(0x20, mload(0x40))\n      tag_376\n      swap2\n      swap1\n      tag_144\n      jump\t// in\n    tag_376:\n      mload(0x40)\n      0x20\n      dup2\n      dup4\n      sub\n      sub\n      dup2\n      mstore\n      swap1\n      0x40\n      mstore\n        /* \"contracts/AuthService.sol\":896:926  keccak256(abi.encodePacked(b)) */\n      dup1\n      mload\n      swap1\n      0x20\n      add\n      keccak256\n        /* \"contracts/AuthService.sol\":889:890  a */\n      dup4\n        /* \"contracts/AuthService.sol\":872:891  abi.encodePacked(a) */\n      add(0x20, mload(0x40))\n      tag_377\n      swap2\n      swap1\n      tag_144\n      jump\t// in\n    tag_377:\n      mload(0x40)\n      0x20\n      dup2\n      dup4\n      sub\n      sub\n      dup2\n      mstore\n      swap1\n      0x40\n      mstore\n        /* \"contracts/AuthService.sol\":862:892  keccak256(abi.encodePacked(a)) */\n      dup1\n      mload\n      swap1\n      0x20\n      add\n      keccak256\n        /* \"contracts/AuthService.sol\":862:926  keccak256(abi.encodePacked(a)) == keccak256(abi.encodePacked(b)) */\n      eq\n        /* \"contracts/AuthService.sol\":855:926  return keccak256(abi.encodePacked(a)) == keccak256(abi.encodePacked(b)) */\n      swap1\n      pop\n        /* \"contracts/AuthService.sol\":767:933  function compare(string memory a,string memory b) internal pure returns (bool){... */\n      swap3\n      swap2\n      pop\n      pop\n      jump\t// out\n    tag_142:\n      dup3\n      dup1\n      sload\n      tag_378\n      swap1\n      tag_91\n      jump\t// in\n    tag_378:\n      swap1\n      0x00\n      mstore\n      keccak256(0x00, 0x20)\n      swap1\n      0x1f\n      add\n      0x20\n      swap1\n      div\n      dup2\n      add\n      swap3\n      dup3\n      tag_380\n      jumpi\n      0x00\n      dup6\n      sstore\n      jump(tag_379)\n    tag_380:\n      dup3\n      0x1f\n      lt\n      tag_381\n      jumpi\n      dup1\n      mload\n      not(0xff)\n      and\n      dup4\n      dup1\n      add\n      or\n      dup6\n      sstore\n      jump(tag_379)\n    tag_381:\n      dup3\n      dup1\n      add\n      0x01\n      add\n      dup6\n      sstore\n      dup3\n      iszero\n      tag_379\n      jumpi\n      swap2\n      dup3\n      add\n    tag_382:\n      dup3\n      dup2\n      gt\n      iszero\n      tag_383\n      jumpi\n      dup3\n      mload\n      dup3\n      sstore\n      swap2\n      0x20\n      add\n      swap2\n      swap1\n      0x01\n      add\n      swap1\n      jump(tag_382)\n    tag_383:\n    tag_379:\n      pop\n      swap1\n      pop\n      tag_384\n      swap2\n      swap1\n      tag_385\n      jump\t// in\n    tag_384:\n      pop\n      swap1\n      jump\t// out\n    tag_374:\n      dup3\n      dup1\n      sload\n      dup3\n      dup3\n      sstore\n      swap1\n      0x00\n      mstore\n      keccak256(0x00, 0x20)\n      swap1\n      dup2\n      add\n      swap3\n      dup3\n      iszero\n      tag_386\n      jumpi\n      swap2\n      0x20\n      mul\n      dup3\n      add\n    tag_387:\n      dup3\n      dup2\n      gt\n      iszero\n      tag_388\n      jumpi\n      dup3\n      mload\n      dup3\n      swap1\n      dup1\n      mload\n      swap1\n      0x20\n      add\n      swap1\n      tag_389\n      swap3\n      swap2\n      swap1\n      tag_142\n      jump\t// in\n    tag_389:\n      pop\n      swap2\n      0x20\n      add\n      swap2\n      swap1\n      0x01\n      add\n      swap1\n      jump(tag_387)\n    tag_388:\n    tag_386:\n      pop\n      swap1\n      pop\n      tag_390\n      swap2\n      swap1\n      tag_391\n      jump\t// in\n    tag_390:\n      pop\n      swap1\n      jump\t// out\n    tag_385:\n    tag_392:\n      dup1\n      dup3\n      gt\n      iszero\n      tag_393\n      jumpi\n      0x00\n      dup2\n      0x00\n      swap1\n      sstore\n      pop\n      0x01\n      add\n      jump(tag_392)\n    tag_393:\n      pop\n      swap1\n      jump\t// out\n    tag_391:\n    tag_394:\n      dup1\n      dup3\n      gt\n      iszero\n      tag_395\n      jumpi\n      0x00\n      dup2\n      dup2\n      tag_396\n      swap2\n      swap1\n      tag_397\n      jump\t// in\n    tag_396:\n      pop\n      0x01\n      add\n      jump(tag_394)\n    tag_395:\n      pop\n      swap1\n      jump\t// out\n    tag_397:\n      pop\n      dup1\n      sload\n      tag_398\n      swap1\n      tag_91\n      jump\t// in\n    tag_398:\n      0x00\n      dup3\n      sstore\n      dup1\n      0x1f\n      lt\n      tag_400\n      jumpi\n      pop\n      jump(tag_399)\n    tag_400:\n      0x1f\n      add\n      0x20\n      swap1\n      div\n      swap1\n      0x00\n      mstore\n      keccak256(0x00, 0x20)\n      swap1\n      dup2\n      add\n      swap1\n      tag_401\n      swap2\n      swap1\n      tag_385\n      jump\t// in\n    tag_401:\n    tag_399:\n      pop\n      jump\t// out\n        /* \"#utility.yul\":7:419   */\n    tag_403:\n        /* \"#utility.yul\":85:90   */\n      0x00\n        /* \"#utility.yul\":110:176   */\n      tag_405\n        /* \"#utility.yul\":126:175   */\n      tag_406\n        /* \"#utility.yul\":168:174   */\n      dup5\n        /* \"#utility.yul\":126:175   */\n      tag_407\n      jump\t// in\n    tag_406:\n        /* \"#utility.yul\":110:176   */\n      tag_408\n      jump\t// in\n    tag_405:\n        /* \"#utility.yul\":101:176   */\n      swap1\n      pop\n        /* \"#utility.yul\":199:205   */\n      dup3\n        /* \"#utility.yul\":192:197   */\n      dup2\n        /* \"#utility.yul\":185:206   */\n      mstore\n        /* \"#utility.yul\":237:241   */\n      0x20\n        /* \"#utility.yul\":230:235   */\n      dup2\n        /* \"#utility.yul\":226:242   */\n      add\n        /* \"#utility.yul\":275:278   */\n      dup5\n        /* \"#utility.yul\":266:272   */\n      dup5\n        /* \"#utility.yul\":261:264   */\n      dup5\n        /* \"#utility.yul\":257:273   */\n      add\n        /* \"#utility.yul\":254:279   */\n      gt\n        /* \"#utility.yul\":251:363   */\n      iszero\n      tag_409\n      jumpi\n        /* \"#utility.yul\":282:361   */\n      tag_410\n      tag_411\n      jump\t// in\n    tag_410:\n        /* \"#utility.yul\":251:363   */\n    tag_409:\n        /* \"#utility.yul\":372:413   */\n      tag_412\n        /* \"#utility.yul\":406:412   */\n      dup5\n        /* \"#utility.yul\":401:404   */\n      dup3\n        /* \"#utility.yul\":396:399   */\n      dup6\n        /* \"#utility.yul\":372:413   */\n      tag_413\n      jump\t// in\n    tag_412:\n        /* \"#utility.yul\":91:419   */\n      pop\n        /* \"#utility.yul\":7:419   */\n      swap4\n      swap3\n      pop\n      pop\n      pop\n      jump\t// out\n        /* \"#utility.yul\":425:564   */\n    tag_414:\n        /* \"#utility.yul\":471:476   */\n      0x00\n        /* \"#utility.yul\":509:515   */\n      dup2\n        /* \"#utility.yul\":496:516   */\n      calldataload\n        /* \"#utility.yul\":487:516   */\n      swap1\n      pop\n        /* \"#utility.yul\":525:558   */\n      tag_416\n        /* \"#utility.yul\":552:557   */\n      dup2\n        /* \"#utility.yul\":525:558   */\n      tag_417\n      jump\t// in\n    tag_416:\n        /* \"#utility.yul\":425:564   */\n      swap3\n      swap2\n      pop\n      pop\n      jump\t// out\n        /* \"#utility.yul\":570:725   */\n    tag_418:\n        /* \"#utility.yul\":624:629   */\n      0x00\n        /* \"#utility.yul\":662:668   */\n      dup2\n        /* \"#utility.yul\":649:669   */\n      calldataload\n        /* \"#utility.yul\":640:669   */\n      swap1\n      pop\n        /* \"#utility.yul\":678:719   */\n      tag_420\n        /* \"#utility.yul\":713:718   */\n      dup2\n        /* \"#utility.yul\":678:719   */\n      tag_421\n      jump\t// in\n    tag_420:\n        /* \"#utility.yul\":570:725   */\n      swap3\n      swap2\n      pop\n      pop\n      jump\t// out\n        /* \"#utility.yul\":731:868   */\n    tag_422:\n        /* \"#utility.yul\":776:781   */\n      0x00\n        /* \"#utility.yul\":814:820   */\n      dup2\n        /* \"#utility.yul\":801:821   */\n      calldataload\n        /* \"#utility.yul\":792:821   */\n      swap1\n      pop\n        /* \"#utility.yul\":830:862   */\n      tag_424\n        /* \"#utility.yul\":856:861   */\n      dup2\n        /* \"#utility.yul\":830:862   */\n      tag_425\n      jump\t// in\n    tag_424:\n        /* \"#utility.yul\":731:868   */\n      swap3\n      swap2\n      pop\n      pop\n      jump\t// out\n        /* \"#utility.yul\":888:1228   */\n    tag_426:\n        /* \"#utility.yul\":944:949   */\n      0x00\n        /* \"#utility.yul\":993:996   */\n      dup3\n        /* \"#utility.yul\":986:990   */\n      0x1f\n        /* \"#utility.yul\":978:984   */\n      dup4\n        /* \"#utility.yul\":974:991   */\n      add\n        /* \"#utility.yul\":970:997   */\n      slt\n        /* \"#utility.yul\":960:1082   */\n      tag_428\n      jumpi\n        /* \"#utility.yul\":1001:1080   */\n      tag_429\n      tag_430\n      jump\t// in\n    tag_429:\n        /* \"#utility.yul\":960:1082   */\n    tag_428:\n        /* \"#utility.yul\":1118:1124   */\n      dup2\n        /* \"#utility.yul\":1105:1125   */\n      calldataload\n        /* \"#utility.yul\":1143:1222   */\n      tag_431\n        /* \"#utility.yul\":1218:1221   */\n      dup5\n        /* \"#utility.yul\":1210:1216   */\n      dup3\n        /* \"#utility.yul\":1203:1207   */\n      0x20\n        /* \"#utility.yul\":1195:1201   */\n      dup7\n        /* \"#utility.yul\":1191:1208   */\n      add\n        /* \"#utility.yul\":1143:1222   */\n      tag_403\n      jump\t// in\n    tag_431:\n        /* \"#utility.yul\":1134:1222   */\n      swap2\n      pop\n        /* \"#utility.yul\":950:1228   */\n      pop\n        /* \"#utility.yul\":888:1228   */\n      swap3\n      swap2\n      pop\n      pop\n      jump\t// out\n        /* \"#utility.yul\":1234:1563   */\n    tag_23:\n        /* \"#utility.yul\":1293:1299   */\n      0x00\n        /* \"#utility.yul\":1342:1344   */\n      0x20\n        /* \"#utility.yul\":1330:1339   */\n      dup3\n        /* \"#utility.yul\":1321:1328   */\n      dup5\n        /* \"#utility.yul\":1317:1340   */\n      sub\n        /* \"#utility.yul\":1313:1345   */\n      slt\n        /* \"#utility.yul\":1310:1429   */\n      iszero\n      tag_433\n      jumpi\n        /* \"#utility.yul\":1348:1427   */\n      tag_434\n      tag_435\n      jump\t// in\n    tag_434:\n        /* \"#utility.yul\":1310:1429   */\n    tag_433:\n        /* \"#utility.yul\":1468:1469   */\n      0x00\n        /* \"#utility.yul\":1493:1546   */\n      tag_436\n        /* \"#utility.yul\":1538:1545   */\n      dup5\n        /* \"#utility.yul\":1529:1535   */\n      dup3\n        /* \"#utility.yul\":1518:1527   */\n      dup6\n        /* \"#utility.yul\":1514:1536   */\n      add\n        /* \"#utility.yul\":1493:1546   */\n      tag_414\n      jump\t// in\n    tag_436:\n        /* \"#utility.yul\":1483:1546   */\n      swap2\n      pop\n        /* \"#utility.yul\":1439:1556   */\n      pop\n        /* \"#utility.yul\":1234:1563   */\n      swap3\n      swap2\n      pop\n      pop\n      jump\t// out\n        /* \"#utility.yul\":1569:1914   */\n    tag_56:\n        /* \"#utility.yul\":1636:1642   */\n      0x00\n        /* \"#utility.yul\":1685:1687   */\n      0x20\n        /* \"#utility.yul\":1673:1682   */\n      dup3\n        /* \"#utility.yul\":1664:1671   */\n      dup5\n        /* \"#utility.yul\":1660:1683   */\n      sub\n        /* \"#utility.yul\":1656:1688   */\n      slt\n        /* \"#utility.yul\":1653:1772   */\n      iszero\n      tag_438\n      jumpi\n        /* \"#utility.yul\":1691:1770   */\n      tag_439\n      tag_435\n      jump\t// in\n    tag_439:\n        /* \"#utility.yul\":1653:1772   */\n    tag_438:\n        /* \"#utility.yul\":1811:1812   */\n      0x00\n        /* \"#utility.yul\":1836:1897   */\n      tag_440\n        /* \"#utility.yul\":1889:1896   */\n      dup5\n        /* \"#utility.yul\":1880:1886   */\n      dup3\n        /* \"#utility.yul\":1869:1878   */\n      dup6\n        /* \"#utility.yul\":1865:1887   */\n      add\n        /* \"#utility.yul\":1836:1897   */\n      tag_418\n      jump\t// in\n    tag_440:\n        /* \"#utility.yul\":1826:1897   */\n      swap2\n      pop\n        /* \"#utility.yul\":1782:1907   */\n      pop\n        /* \"#utility.yul\":1569:1914   */\n      swap3\n      swap2\n      pop\n      pop\n      jump\t// out\n        /* \"#utility.yul\":1920:2899   */\n    tag_72:\n        /* \"#utility.yul\":2017:2023   */\n      0x00\n        /* \"#utility.yul\":2025:2031   */\n      dup1\n        /* \"#utility.yul\":2033:2039   */\n      0x00\n        /* \"#utility.yul\":2082:2084   */\n      0x60\n        /* \"#utility.yul\":2070:2079   */\n      dup5\n        /* \"#utility.yul\":2061:2068   */\n      dup7\n        /* \"#utility.yul\":2057:2080   */\n      sub\n        /* \"#utility.yul\":2053:2085   */\n      slt\n        /* \"#utility.yul\":2050:2169   */\n      iszero\n      tag_442\n      jumpi\n        /* \"#utility.yul\":2088:2167   */\n      tag_443\n      tag_435\n      jump\t// in\n    tag_443:\n        /* \"#utility.yul\":2050:2169   */\n    tag_442:\n        /* \"#utility.yul\":2208:2209   */\n      0x00\n        /* \"#utility.yul\":2233:2286   */\n      tag_444\n        /* \"#utility.yul\":2278:2285   */\n      dup7\n        /* \"#utility.yul\":2269:2275   */\n      dup3\n        /* \"#utility.yul\":2258:2267   */\n      dup8\n        /* \"#utility.yul\":2254:2276   */\n      add\n        /* \"#utility.yul\":2233:2286   */\n      tag_414\n      jump\t// in\n    tag_444:\n        /* \"#utility.yul\":2223:2286   */\n      swap4\n      pop\n        /* \"#utility.yul\":2179:2296   */\n      pop\n        /* \"#utility.yul\":2363:2365   */\n      0x20\n        /* \"#utility.yul\":2352:2361   */\n      dup5\n        /* \"#utility.yul\":2348:2366   */\n      add\n        /* \"#utility.yul\":2335:2367   */\n      calldataload\n        /* \"#utility.yul\":2394:2412   */\n      0xffffffffffffffff\n        /* \"#utility.yul\":2386:2392   */\n      dup2\n        /* \"#utility.yul\":2383:2413   */\n      gt\n        /* \"#utility.yul\":2380:2497   */\n      iszero\n      tag_445\n      jumpi\n        /* \"#utility.yul\":2416:2495   */\n      tag_446\n      tag_447\n      jump\t// in\n    tag_446:\n        /* \"#utility.yul\":2380:2497   */\n    tag_445:\n        /* \"#utility.yul\":2521:2584   */\n      tag_448\n        /* \"#utility.yul\":2576:2583   */\n      dup7\n        /* \"#utility.yul\":2567:2573   */\n      dup3\n        /* \"#utility.yul\":2556:2565   */\n      dup8\n        /* \"#utility.yul\":2552:2574   */\n      add\n        /* \"#utility.yul\":2521:2584   */\n      tag_426\n      jump\t// in\n    tag_448:\n        /* \"#utility.yul\":2511:2584   */\n      swap3\n      pop\n        /* \"#utility.yul\":2306:2594   */\n      pop\n        /* \"#utility.yul\":2661:2663   */\n      0x40\n        /* \"#utility.yul\":2650:2659   */\n      dup5\n        /* \"#utility.yul\":2646:2664   */\n      add\n        /* \"#utility.yul\":2633:2665   */\n      calldataload\n        /* \"#utility.yul\":2692:2710   */\n      0xffffffffffffffff\n        /* \"#utility.yul\":2684:2690   */\n      dup2\n        /* \"#utility.yul\":2681:2711   */\n      gt\n        /* \"#utility.yul\":2678:2795   */\n      iszero\n      tag_449\n      jumpi\n        /* \"#utility.yul\":2714:2793   */\n      tag_450\n      tag_447\n      jump\t// in\n    tag_450:\n        /* \"#utility.yul\":2678:2795   */\n    tag_449:\n        /* \"#utility.yul\":2819:2882   */\n      tag_451\n        /* \"#utility.yul\":2874:2881   */\n      dup7\n        /* \"#utility.yul\":2865:2871   */\n      dup3\n        /* \"#utility.yul\":2854:2863   */\n      dup8\n        /* \"#utility.yul\":2850:2872   */\n      add\n        /* \"#utility.yul\":2819:2882   */\n      tag_426\n      jump\t// in\n    tag_451:\n        /* \"#utility.yul\":2809:2882   */\n      swap2\n      pop\n        /* \"#utility.yul\":2604:2892   */\n      pop\n        /* \"#utility.yul\":1920:2899   */\n      swap3\n      pop\n      swap3\n      pop\n      swap3\n      jump\t// out\n        /* \"#utility.yul\":2905:4028   */\n    tag_33:\n        /* \"#utility.yul\":3010:3016   */\n      0x00\n        /* \"#utility.yul\":3018:3024   */\n      dup1\n        /* \"#utility.yul\":3026:3032   */\n      0x00\n        /* \"#utility.yul\":3034:3040   */\n      dup1\n        /* \"#utility.yul\":3083:3086   */\n      0x80\n        /* \"#utility.yul\":3071:3080   */\n      dup6\n        /* \"#utility.yul\":3062:3069   */\n      dup8\n        /* \"#utility.yul\":3058:3081   */\n      sub\n        /* \"#utility.yul\":3054:3087   */\n      slt\n        /* \"#utility.yul\":3051:3171   */\n      iszero\n      tag_453\n      jumpi\n        /* \"#utility.yul\":3090:3169   */\n      tag_454\n      tag_435\n      jump\t// in\n    tag_454:\n        /* \"#utility.yul\":3051:3171   */\n    tag_453:\n        /* \"#utility.yul\":3210:3211   */\n      0x00\n        /* \"#utility.yul\":3235:3288   */\n      tag_455\n        /* \"#utility.yul\":3280:3287   */\n      dup8\n        /* \"#utility.yul\":3271:3277   */\n      dup3\n        /* \"#utility.yul\":3260:3269   */\n      dup9\n        /* \"#utility.yul\":3256:3278   */\n      add\n        /* \"#utility.yul\":3235:3288   */\n      tag_414\n      jump\t// in\n    tag_455:\n        /* \"#utility.yul\":3225:3288   */\n      swap5\n      pop\n        /* \"#utility.yul\":3181:3298   */\n      pop\n        /* \"#utility.yul\":3365:3367   */\n      0x20\n        /* \"#utility.yul\":3354:3363   */\n      dup6\n        /* \"#utility.yul\":3350:3368   */\n      add\n        /* \"#utility.yul\":3337:3369   */\n      calldataload\n        /* \"#utility.yul\":3396:3414   */\n      0xffffffffffffffff\n        /* \"#utility.yul\":3388:3394   */\n      dup2\n        /* \"#utility.yul\":3385:3415   */\n      gt\n        /* \"#utility.yul\":3382:3499   */\n      iszero\n      tag_456\n      jumpi\n        /* \"#utility.yul\":3418:3497   */\n      tag_457\n      tag_447\n      jump\t// in\n    tag_457:\n        /* \"#utility.yul\":3382:3499   */\n    tag_456:\n        /* \"#utility.yul\":3523:3586   */\n      tag_458\n        /* \"#utility.yul\":3578:3585   */\n      dup8\n        /* \"#utility.yul\":3569:3575   */\n      dup3\n        /* \"#utility.yul\":3558:3567   */\n      dup9\n        /* \"#utility.yul\":3554:3576   */\n      add\n        /* \"#utility.yul\":3523:3586   */\n      tag_426\n      jump\t// in\n    tag_458:\n        /* \"#utility.yul\":3513:3586   */\n      swap4\n      pop\n        /* \"#utility.yul\":3308:3596   */\n      pop\n        /* \"#utility.yul\":3663:3665   */\n      0x40\n        /* \"#utility.yul\":3652:3661   */\n      dup6\n        /* \"#utility.yul\":3648:3666   */\n      add\n        /* \"#utility.yul\":3635:3667   */\n      calldataload\n        /* \"#utility.yul\":3694:3712   */\n      0xffffffffffffffff\n        /* \"#utility.yul\":3686:3692   */\n      dup2\n        /* \"#utility.yul\":3683:3713   */\n      gt\n        /* \"#utility.yul\":3680:3797   */\n      iszero\n      tag_459\n      jumpi\n        /* \"#utility.yul\":3716:3795   */\n      tag_460\n      tag_447\n      jump\t// in\n    tag_460:\n        /* \"#utility.yul\":3680:3797   */\n    tag_459:\n        /* \"#utility.yul\":3821:3884   */\n      tag_461\n        /* \"#utility.yul\":3876:3883   */\n      dup8\n        /* \"#utility.yul\":3867:3873   */\n      dup3\n        /* \"#utility.yul\":3856:3865   */\n      dup9\n        /* \"#utility.yul\":3852:3874   */\n      add\n        /* \"#utility.yul\":3821:3884   */\n      tag_426\n      jump\t// in\n    tag_461:\n        /* \"#utility.yul\":3811:3884   */\n      swap3\n      pop\n        /* \"#utility.yul\":3606:3894   */\n      pop\n        /* \"#utility.yul\":3933:3935   */\n      0x60\n        /* \"#utility.yul\":3959:4011   */\n      tag_462\n        /* \"#utility.yul\":4003:4010   */\n      dup8\n        /* \"#utility.yul\":3994:4000   */\n      dup3\n        /* \"#utility.yul\":3983:3992   */\n      dup9\n        /* \"#utility.yul\":3979:4001   */\n      add\n        /* \"#utility.yul\":3959:4011   */\n      tag_422\n      jump\t// in\n    tag_462:\n        /* \"#utility.yul\":3949:4011   */\n      swap2\n      pop\n        /* \"#utility.yul\":3904:4021   */\n      pop\n        /* \"#utility.yul\":2905:4028   */\n      swap3\n      swap6\n      swap2\n      swap5\n      pop\n      swap3\n      pop\n      jump\t// out\n        /* \"#utility.yul\":4034:5339   */\n    tag_46:\n        /* \"#utility.yul\":4150:4156   */\n      0x00\n        /* \"#utility.yul\":4158:4164   */\n      dup1\n        /* \"#utility.yul\":4166:4172   */\n      0x00\n        /* \"#utility.yul\":4174:4180   */\n      dup1\n        /* \"#utility.yul\":4223:4226   */\n      0x80\n        /* \"#utility.yul\":4211:4220   */\n      dup6\n        /* \"#utility.yul\":4202:4209   */\n      dup8\n        /* \"#utility.yul\":4198:4221   */\n      sub\n        /* \"#utility.yul\":4194:4227   */\n      slt\n        /* \"#utility.yul\":4191:4311   */\n      iszero\n      tag_464\n      jumpi\n        /* \"#utility.yul\":4230:4309   */\n      tag_465\n      tag_435\n      jump\t// in\n    tag_465:\n        /* \"#utility.yul\":4191:4311   */\n    tag_464:\n        /* \"#utility.yul\":4350:4351   */\n      0x00\n        /* \"#utility.yul\":4375:4428   */\n      tag_466\n        /* \"#utility.yul\":4420:4427   */\n      dup8\n        /* \"#utility.yul\":4411:4417   */\n      dup3\n        /* \"#utility.yul\":4400:4409   */\n      dup9\n        /* \"#utility.yul\":4396:4418   */\n      add\n        /* \"#utility.yul\":4375:4428   */\n      tag_414\n      jump\t// in\n    tag_466:\n        /* \"#utility.yul\":4365:4428   */\n      swap5\n      pop\n        /* \"#utility.yul\":4321:4438   */\n      pop\n        /* \"#utility.yul\":4505:4507   */\n      0x20\n        /* \"#utility.yul\":4494:4503   */\n      dup6\n        /* \"#utility.yul\":4490:4508   */\n      add\n        /* \"#utility.yul\":4477:4509   */\n      calldataload\n        /* \"#utility.yul\":4536:4554   */\n      0xffffffffffffffff\n        /* \"#utility.yul\":4528:4534   */\n      dup2\n        /* \"#utility.yul\":4525:4555   */\n      gt\n        /* \"#utility.yul\":4522:4639   */\n      iszero\n      tag_467\n      jumpi\n        /* \"#utility.yul\":4558:4637   */\n      tag_468\n      tag_447\n      jump\t// in\n    tag_468:\n        /* \"#utility.yul\":4522:4639   */\n    tag_467:\n        /* \"#utility.yul\":4663:4726   */\n      tag_469\n        /* \"#utility.yul\":4718:4725   */\n      dup8\n        /* \"#utility.yul\":4709:4715   */\n      dup3\n        /* \"#utility.yul\":4698:4707   */\n      dup9\n        /* \"#utility.yul\":4694:4716   */\n      add\n        /* \"#utility.yul\":4663:4726   */\n      tag_426\n      jump\t// in\n    tag_469:\n        /* \"#utility.yul\":4653:4726   */\n      swap4\n      pop\n        /* \"#utility.yul\":4448:4736   */\n      pop\n        /* \"#utility.yul\":4803:4805   */\n      0x40\n        /* \"#utility.yul\":4792:4801   */\n      dup6\n        /* \"#utility.yul\":4788:4806   */\n      add\n        /* \"#utility.yul\":4775:4807   */\n      calldataload\n        /* \"#utility.yul\":4834:4852   */\n      0xffffffffffffffff\n        /* \"#utility.yul\":4826:4832   */\n      dup2\n        /* \"#utility.yul\":4823:4853   */\n      gt\n        /* \"#utility.yul\":4820:4937   */\n      iszero\n      tag_470\n      jumpi\n        /* \"#utility.yul\":4856:4935   */\n      tag_471\n      tag_447\n      jump\t// in\n    tag_471:\n        /* \"#utility.yul\":4820:4937   */\n    tag_470:\n        /* \"#utility.yul\":4961:5024   */\n      tag_472\n        /* \"#utility.yul\":5016:5023   */\n      dup8\n        /* \"#utility.yul\":5007:5013   */\n      dup3\n        /* \"#utility.yul\":4996:5005   */\n      dup9\n        /* \"#utility.yul\":4992:5014   */\n      add\n        /* \"#utility.yul\":4961:5024   */\n      tag_426\n      jump\t// in\n    tag_472:\n        /* \"#utility.yul\":4951:5024   */\n      swap3\n      pop\n        /* \"#utility.yul\":4746:5034   */\n      pop\n        /* \"#utility.yul\":5101:5103   */\n      0x60\n        /* \"#utility.yul\":5090:5099   */\n      dup6\n        /* \"#utility.yul\":5086:5104   */\n      add\n        /* \"#utility.yul\":5073:5105   */\n      calldataload\n        /* \"#utility.yul\":5132:5150   */\n      0xffffffffffffffff\n        /* \"#utility.yul\":5124:5130   */\n      dup2\n        /* \"#utility.yul\":5121:5151   */\n      gt\n        /* \"#utility.yul\":5118:5235   */\n      iszero\n      tag_473\n      jumpi\n        /* \"#utility.yul\":5154:5233   */\n      tag_474\n      tag_447\n      jump\t// in\n    tag_474:\n        /* \"#utility.yul\":5118:5235   */\n    tag_473:\n        /* \"#utility.yul\":5259:5322   */\n      tag_475\n        /* \"#utility.yul\":5314:5321   */\n      dup8\n        /* \"#utility.yul\":5305:5311   */\n      dup3\n        /* \"#utility.yul\":5294:5303   */\n      dup9\n        /* \"#utility.yul\":5290:5312   */\n      add\n        /* \"#utility.yul\":5259:5322   */\n      tag_426\n      jump\t// in\n    tag_475:\n        /* \"#utility.yul\":5249:5322   */\n      swap2\n      pop\n        /* \"#utility.yul\":5044:5332   */\n      pop\n        /* \"#utility.yul\":4034:5339   */\n      swap3\n      swap6\n      swap2\n      swap5\n      pop\n      swap3\n      pop\n      jump\t// out\n        /* \"#utility.yul\":5345:5854   */\n    tag_37:\n        /* \"#utility.yul\":5414:5420   */\n      0x00\n        /* \"#utility.yul\":5463:5465   */\n      0x20\n        /* \"#utility.yul\":5451:5460   */\n      dup3\n        /* \"#utility.yul\":5442:5449   */\n      dup5\n        /* \"#utility.yul\":5438:5461   */\n      sub\n        /* \"#utility.yul\":5434:5466   */\n      slt\n        /* \"#utility.yul\":5431:5550   */\n      iszero\n      tag_477\n      jumpi\n        /* \"#utility.yul\":5469:5548   */\n      tag_478\n      tag_435\n      jump\t// in\n    tag_478:\n        /* \"#utility.yul\":5431:5550   */\n    tag_477:\n        /* \"#utility.yul\":5617:5618   */\n      0x00\n        /* \"#utility.yul\":5606:5615   */\n      dup3\n        /* \"#utility.yul\":5602:5619   */\n      add\n        /* \"#utility.yul\":5589:5620   */\n      calldataload\n        /* \"#utility.yul\":5647:5665   */\n      0xffffffffffffffff\n        /* \"#utility.yul\":5639:5645   */\n      dup2\n        /* \"#utility.yul\":5636:5666   */\n      gt\n        /* \"#utility.yul\":5633:5750   */\n      iszero\n      tag_479\n      jumpi\n        /* \"#utility.yul\":5669:5748   */\n      tag_480\n      tag_447\n      jump\t// in\n    tag_480:\n        /* \"#utility.yul\":5633:5750   */\n    tag_479:\n        /* \"#utility.yul\":5774:5837   */\n      tag_481\n        /* \"#utility.yul\":5829:5836   */\n      dup5\n        /* \"#utility.yul\":5820:5826   */\n      dup3\n        /* \"#utility.yul\":5809:5818   */\n      dup6\n        /* \"#utility.yul\":5805:5827   */\n      add\n        /* \"#utility.yul\":5774:5837   */\n      tag_426\n      jump\t// in\n    tag_481:\n        /* \"#utility.yul\":5764:5837   */\n      swap2\n      pop\n        /* \"#utility.yul\":5560:5847   */\n      pop\n        /* \"#utility.yul\":5345:5854   */\n      swap3\n      swap2\n      pop\n      pop\n      jump\t// out\n        /* \"#utility.yul\":5860:6514   */\n    tag_29:\n        /* \"#utility.yul\":5938:5944   */\n      0x00\n        /* \"#utility.yul\":5946:5952   */\n      dup1\n        /* \"#utility.yul\":5995:5997   */\n      0x40\n        /* \"#utility.yul\":5983:5992   */\n      dup4\n        /* \"#utility.yul\":5974:5981   */\n      dup6\n        /* \"#utility.yul\":5970:5993   */\n      sub\n        /* \"#utility.yul\":5966:5998   */\n      slt\n        /* \"#utility.yul\":5963:6082   */\n      iszero\n      tag_483\n      jumpi\n        /* \"#utility.yul\":6001:6080   */\n      tag_484\n      tag_435\n      jump\t// in\n    tag_484:\n        /* \"#utility.yul\":5963:6082   */\n    tag_483:\n        /* \"#utility.yul\":6149:6150   */\n      0x00\n        /* \"#utility.yul\":6138:6147   */\n      dup4\n        /* \"#utility.yul\":6134:6151   */\n      add\n        /* \"#utility.yul\":6121:6152   */\n      calldataload\n        /* \"#utility.yul\":6179:6197   */\n      0xffffffffffffffff\n        /* \"#utility.yul\":6171:6177   */\n      dup2\n        /* \"#utility.yul\":6168:6198   */\n      gt\n        /* \"#utility.yul\":6165:6282   */\n      iszero\n      tag_485\n      jumpi\n        /* \"#utility.yul\":6201:6280   */\n      tag_486\n      tag_447\n      jump\t// in\n    tag_486:\n        /* \"#utility.yul\":6165:6282   */\n    tag_485:\n        /* \"#utility.yul\":6306:6369   */\n      tag_487\n        /* \"#utility.yul\":6361:6368   */\n      dup6\n        /* \"#utility.yul\":6352:6358   */\n      dup3\n        /* \"#utility.yul\":6341:6350   */\n      dup7\n        /* \"#utility.yul\":6337:6359   */\n      add\n        /* \"#utility.yul\":6306:6369   */\n      tag_426\n      jump\t// in\n    tag_487:\n        /* \"#utility.yul\":6296:6369   */\n      swap3\n      pop\n        /* \"#utility.yul\":6092:6379   */\n      pop\n        /* \"#utility.yul\":6418:6420   */\n      0x20\n        /* \"#utility.yul\":6444:6497   */\n      tag_488\n        /* \"#utility.yul\":6489:6496   */\n      dup6\n        /* \"#utility.yul\":6480:6486   */\n      dup3\n        /* \"#utility.yul\":6469:6478   */\n      dup7\n        /* \"#utility.yul\":6465:6487   */\n      add\n        /* \"#utility.yul\":6444:6497   */\n      tag_414\n      jump\t// in\n    tag_488:\n        /* \"#utility.yul\":6434:6497   */\n      swap2\n      pop\n        /* \"#utility.yul\":6389:6507   */\n      pop\n        /* \"#utility.yul\":5860:6514   */\n      swap3\n      pop\n      swap3\n      swap1\n      pop\n      jump\t// out\n        /* \"#utility.yul\":6520:7354   */\n    tag_80:\n        /* \"#utility.yul\":6608:6614   */\n      0x00\n        /* \"#utility.yul\":6616:6622   */\n      dup1\n        /* \"#utility.yul\":6665:6667   */\n      0x40\n        /* \"#utility.yul\":6653:6662   */\n      dup4\n        /* \"#utility.yul\":6644:6651   */\n      dup6\n        /* \"#utility.yul\":6640:6663   */\n      sub\n        /* \"#utility.yul\":6636:6668   */\n      slt\n        /* \"#utility.yul\":6633:6752   */\n      iszero\n      tag_490\n      jumpi\n        /* \"#utility.yul\":6671:6750   */\n      tag_491\n      tag_435\n      jump\t// in\n    tag_491:\n        /* \"#utility.yul\":6633:6752   */\n    tag_490:\n        /* \"#utility.yul\":6819:6820   */\n      0x00\n        /* \"#utility.yul\":6808:6817   */\n      dup4\n        /* \"#utility.yul\":6804:6821   */\n      add\n        /* \"#utility.yul\":6791:6822   */\n      calldataload\n        /* \"#utility.yul\":6849:6867   */\n      0xffffffffffffffff\n        /* \"#utility.yul\":6841:6847   */\n      dup2\n        /* \"#utility.yul\":6838:6868   */\n      gt\n        /* \"#utility.yul\":6835:6952   */\n      iszero\n      tag_492\n      jumpi\n        /* \"#utility.yul\":6871:6950   */\n      tag_493\n      tag_447\n      jump\t// in\n    tag_493:\n        /* \"#utility.yul\":6835:6952   */\n    tag_492:\n        /* \"#utility.yul\":6976:7039   */\n      tag_494\n        /* \"#utility.yul\":7031:7038   */\n      dup6\n        /* \"#utility.yul\":7022:7028   */\n      dup3\n        /* \"#utility.yul\":7011:7020   */\n      dup7\n        /* \"#utility.yul\":7007:7029   */\n      add\n        /* \"#utility.yul\":6976:7039   */\n      tag_426\n      jump\t// in\n    tag_494:\n        /* \"#utility.yul\":6966:7039   */\n      swap3\n      pop\n        /* \"#utility.yul\":6762:7049   */\n      pop\n        /* \"#utility.yul\":7116:7118   */\n      0x20\n        /* \"#utility.yul\":7105:7114   */\n      dup4\n        /* \"#utility.yul\":7101:7119   */\n      add\n        /* \"#utility.yul\":7088:7120   */\n      calldataload\n        /* \"#utility.yul\":7147:7165   */\n      0xffffffffffffffff\n        /* \"#utility.yul\":7139:7145   */\n      dup2\n        /* \"#utility.yul\":7136:7166   */\n      gt\n        /* \"#utility.yul\":7133:7250   */\n      iszero\n      tag_495\n      jumpi\n        /* \"#utility.yul\":7169:7248   */\n      tag_496\n      tag_447\n      jump\t// in\n    tag_496:\n        /* \"#utility.yul\":7133:7250   */\n    tag_495:\n        /* \"#utility.yul\":7274:7337   */\n      tag_497\n        /* \"#utility.yul\":7329:7336   */\n      dup6\n        /* \"#utility.yul\":7320:7326   */\n      dup3\n        /* \"#utility.yul\":7309:7318   */\n      dup7\n        /* \"#utility.yul\":7305:7327   */\n      add\n        /* \"#utility.yul\":7274:7337   */\n      tag_426\n      jump\t// in\n    tag_497:\n        /* \"#utility.yul\":7264:7337   */\n      swap2\n      pop\n        /* \"#utility.yul\":7059:7347   */\n      pop\n        /* \"#utility.yul\":6520:7354   */\n      swap3\n      pop\n      swap3\n      swap1\n      pop\n      jump\t// out\n        /* \"#utility.yul\":7360:8339   */\n    tag_68:\n        /* \"#utility.yul\":7457:7463   */\n      0x00\n        /* \"#utility.yul\":7465:7471   */\n      dup1\n        /* \"#utility.yul\":7473:7479   */\n      0x00\n        /* \"#utility.yul\":7522:7524   */\n      0x60\n        /* \"#utility.yul\":7510:7519   */\n      dup5\n        /* \"#utility.yul\":7501:7508   */\n      dup7\n        /* \"#utility.yul\":7497:7520   */\n      sub\n        /* \"#utility.yul\":7493:7525   */\n      slt\n        /* \"#utility.yul\":7490:7609   */\n      iszero\n      tag_499\n      jumpi\n        /* \"#utility.yul\":7528:7607   */\n      tag_500\n      tag_435\n      jump\t// in\n    tag_500:\n        /* \"#utility.yul\":7490:7609   */\n    tag_499:\n        /* \"#utility.yul\":7676:7677   */\n      0x00\n        /* \"#utility.yul\":7665:7674   */\n      dup5\n        /* \"#utility.yul\":7661:7678   */\n      add\n        /* \"#utility.yul\":7648:7679   */\n      calldataload\n        /* \"#utility.yul\":7706:7724   */\n      0xffffffffffffffff\n        /* \"#utility.yul\":7698:7704   */\n      dup2\n        /* \"#utility.yul\":7695:7725   */\n      gt\n        /* \"#utility.yul\":7692:7809   */\n      iszero\n      tag_501\n      jumpi\n        /* \"#utility.yul\":7728:7807   */\n      tag_502\n      tag_447\n      jump\t// in\n    tag_502:\n        /* \"#utility.yul\":7692:7809   */\n    tag_501:\n        /* \"#utility.yul\":7833:7896   */\n      tag_503\n        /* \"#utility.yul\":7888:7895   */\n      dup7\n        /* \"#utility.yul\":7879:7885   */\n      dup3\n        /* \"#utility.yul\":7868:7877   */\n      dup8\n        /* \"#utility.yul\":7864:7886   */\n      add\n        /* \"#utility.yul\":7833:7896   */\n      tag_426\n      jump\t// in\n    tag_503:\n        /* \"#utility.yul\":7823:7896   */\n      swap4\n      pop\n        /* \"#utility.yul\":7619:7906   */\n      pop\n        /* \"#utility.yul\":7973:7975   */\n      0x20\n        /* \"#utility.yul\":7962:7971   */\n      dup5\n        /* \"#utility.yul\":7958:7976   */\n      add\n        /* \"#utility.yul\":7945:7977   */\n      calldataload\n        /* \"#utility.yul\":8004:8022   */\n      0xffffffffffffffff\n        /* \"#utility.yul\":7996:8002   */\n      dup2\n        /* \"#utility.yul\":7993:8023   */\n      gt\n        /* \"#utility.yul\":7990:8107   */\n      iszero\n      tag_504\n      jumpi\n        /* \"#utility.yul\":8026:8105   */\n      tag_505\n      tag_447\n      jump\t// in\n    tag_505:\n        /* \"#utility.yul\":7990:8107   */\n    tag_504:\n        /* \"#utility.yul\":8131:8194   */\n      tag_506\n        /* \"#utility.yul\":8186:8193   */\n      dup7\n        /* \"#utility.yul\":8177:8183   */\n      dup3\n        /* \"#utility.yul\":8166:8175   */\n      dup8\n        /* \"#utility.yul\":8162:8184   */\n      add\n        /* \"#utility.yul\":8131:8194   */\n      tag_426\n      jump\t// in\n    tag_506:\n        /* \"#utility.yul\":8121:8194   */\n      swap3\n      pop\n        /* \"#utility.yul\":7916:8204   */\n      pop\n        /* \"#utility.yul\":8243:8245   */\n      0x40\n        /* \"#utility.yul\":8269:8322   */\n      tag_507\n        /* \"#utility.yul\":8314:8321   */\n      dup7\n        /* \"#utility.yul\":8305:8311   */\n      dup3\n        /* \"#utility.yul\":8294:8303   */\n      dup8\n        /* \"#utility.yul\":8290:8312   */\n      add\n        /* \"#utility.yul\":8269:8322   */\n      tag_414\n      jump\t// in\n    tag_507:\n        /* \"#utility.yul\":8259:8322   */\n      swap2\n      pop\n        /* \"#utility.yul\":8214:8332   */\n      pop\n        /* \"#utility.yul\":7360:8339   */\n      swap3\n      pop\n      swap3\n      pop\n      swap3\n      jump\t// out\n        /* \"#utility.yul\":8345:9470   */\n    tag_60:\n        /* \"#utility.yul\":8451:8457   */\n      0x00\n        /* \"#utility.yul\":8459:8465   */\n      dup1\n        /* \"#utility.yul\":8467:8473   */\n      0x00\n        /* \"#utility.yul\":8475:8481   */\n      dup1\n        /* \"#utility.yul\":8524:8527   */\n      0x80\n        /* \"#utility.yul\":8512:8521   */\n      dup6\n        /* \"#utility.yul\":8503:8510   */\n      dup8\n        /* \"#utility.yul\":8499:8522   */\n      sub\n        /* \"#utility.yul\":8495:8528   */\n      slt\n        /* \"#utility.yul\":8492:8612   */\n      iszero\n      tag_509\n      jumpi\n        /* \"#utility.yul\":8531:8610   */\n      tag_510\n      tag_435\n      jump\t// in\n    tag_510:\n        /* \"#utility.yul\":8492:8612   */\n    tag_509:\n        /* \"#utility.yul\":8679:8680   */\n      0x00\n        /* \"#utility.yul\":8668:8677   */\n      dup6\n        /* \"#utility.yul\":8664:8681   */\n      add\n        /* \"#utility.yul\":8651:8682   */\n      calldataload\n        /* \"#utility.yul\":8709:8727   */\n      0xffffffffffffffff\n        /* \"#utility.yul\":8701:8707   */\n      dup2\n        /* \"#utility.yul\":8698:8728   */\n      gt\n        /* \"#utility.yul\":8695:8812   */\n      iszero\n      tag_511\n      jumpi\n        /* \"#utility.yul\":8731:8810   */\n      tag_512\n      tag_447\n      jump\t// in\n    tag_512:\n        /* \"#utility.yul\":8695:8812   */\n    tag_511:\n        /* \"#utility.yul\":8836:8899   */\n      tag_513\n        /* \"#utility.yul\":8891:8898   */\n      dup8\n        /* \"#utility.yul\":8882:8888   */\n      dup3\n        /* \"#utility.yul\":8871:8880   */\n      dup9\n        /* \"#utility.yul\":8867:8889   */\n      add\n        /* \"#utility.yul\":8836:8899   */\n      tag_426\n      jump\t// in\n    tag_513:\n        /* \"#utility.yul\":8826:8899   */\n      swap5\n      pop\n        /* \"#utility.yul\":8622:8909   */\n      pop\n        /* \"#utility.yul\":8976:8978   */\n      0x20\n        /* \"#utility.yul\":8965:8974   */\n      dup6\n        /* \"#utility.yul\":8961:8979   */\n      add\n        /* \"#utility.yul\":8948:8980   */\n      calldataload\n        /* \"#utility.yul\":9007:9025   */\n      0xffffffffffffffff\n        /* \"#utility.yul\":8999:9005   */\n      dup2\n        /* \"#utility.yul\":8996:9026   */\n      gt\n        /* \"#utility.yul\":8993:9110   */\n      iszero\n      tag_514\n      jumpi\n        /* \"#utility.yul\":9029:9108   */\n      tag_515\n      tag_447\n      jump\t// in\n    tag_515:\n        /* \"#utility.yul\":8993:9110   */\n    tag_514:\n        /* \"#utility.yul\":9134:9197   */\n      tag_516\n        /* \"#utility.yul\":9189:9196   */\n      dup8\n        /* \"#utility.yul\":9180:9186   */\n      dup3\n        /* \"#utility.yul\":9169:9178   */\n      dup9\n        /* \"#utility.yul\":9165:9187   */\n      add\n        /* \"#utility.yul\":9134:9197   */\n      tag_426\n      jump\t// in\n    tag_516:\n        /* \"#utility.yul\":9124:9197   */\n      swap4\n      pop\n        /* \"#utility.yul\":8919:9207   */\n      pop\n        /* \"#utility.yul\":9246:9248   */\n      0x40\n        /* \"#utility.yul\":9272:9325   */\n      tag_517\n        /* \"#utility.yul\":9317:9324   */\n      dup8\n        /* \"#utility.yul\":9308:9314   */\n      dup3\n        /* \"#utility.yul\":9297:9306   */\n      dup9\n        /* \"#utility.yul\":9293:9315   */\n      add\n        /* \"#utility.yul\":9272:9325   */\n      tag_414\n      jump\t// in\n    tag_517:\n        /* \"#utility.yul\":9262:9325   */\n      swap3\n      pop\n        /* \"#utility.yul\":9217:9335   */\n      pop\n        /* \"#utility.yul\":9374:9376   */\n      0x60\n        /* \"#utility.yul\":9400:9453   */\n      tag_518\n        /* \"#utility.yul\":9445:9452   */\n      dup8\n        /* \"#utility.yul\":9436:9442   */\n      dup3\n        /* \"#utility.yul\":9425:9434   */\n      dup9\n        /* \"#utility.yul\":9421:9443   */\n      add\n        /* \"#utility.yul\":9400:9453   */\n      tag_414\n      jump\t// in\n    tag_518:\n        /* \"#utility.yul\":9390:9453   */\n      swap2\n      pop\n        /* \"#utility.yul\":9345:9463   */\n      pop\n        /* \"#utility.yul\":8345:9470   */\n      swap3\n      swap6\n      swap2\n      swap5\n      pop\n      swap3\n      pop\n      jump\t// out\n        /* \"#utility.yul\":9476:9655   */\n    tag_519:\n        /* \"#utility.yul\":9545:9555   */\n      0x00\n        /* \"#utility.yul\":9566:9612   */\n      tag_521\n        /* \"#utility.yul\":9608:9611   */\n      dup4\n        /* \"#utility.yul\":9600:9606   */\n      dup4\n        /* \"#utility.yul\":9566:9612   */\n      tag_522\n      jump\t// in\n    tag_521:\n        /* \"#utility.yul\":9644:9648   */\n      0x20\n        /* \"#utility.yul\":9639:9642   */\n      dup4\n        /* \"#utility.yul\":9635:9649   */\n      add\n        /* \"#utility.yul\":9621:9649   */\n      swap1\n      pop\n        /* \"#utility.yul\":9476:9655   */\n      swap3\n      swap2\n      pop\n      pop\n      jump\t// out\n        /* \"#utility.yul\":9661:9857   */\n    tag_523:\n        /* \"#utility.yul\":9750:9760   */\n      0x00\n        /* \"#utility.yul\":9785:9851   */\n      tag_525\n        /* \"#utility.yul\":9847:9850   */\n      dup4\n        /* \"#utility.yul\":9839:9845   */\n      dup4\n        /* \"#utility.yul\":9785:9851   */\n      tag_526\n      jump\t// in\n    tag_525:\n        /* \"#utility.yul\":9771:9851   */\n      swap1\n      pop\n        /* \"#utility.yul\":9661:9857   */\n      swap3\n      swap2\n      pop\n      pop\n      jump\t// out\n        /* \"#utility.yul\":9863:10115   */\n    tag_527:\n        /* \"#utility.yul\":9980:9990   */\n      0x00\n        /* \"#utility.yul\":10015:10109   */\n      tag_529\n        /* \"#utility.yul\":10105:10108   */\n      dup4\n        /* \"#utility.yul\":10097:10103   */\n      dup4\n        /* \"#utility.yul\":10015:10109   */\n      tag_530\n      jump\t// in\n    tag_529:\n        /* \"#utility.yul\":10001:10109   */\n      swap1\n      pop\n        /* \"#utility.yul\":9863:10115   */\n      swap3\n      swap2\n      pop\n      pop\n      jump\t// out\n        /* \"#utility.yul\":10121:10229   */\n    tag_522:\n        /* \"#utility.yul\":10198:10222   */\n      tag_532\n        /* \"#utility.yul\":10216:10221   */\n      dup2\n        /* \"#utility.yul\":10198:10222   */\n      tag_533\n      jump\t// in\n    tag_532:\n        /* \"#utility.yul\":10193:10196   */\n      dup3\n        /* \"#utility.yul\":10186:10223   */\n      mstore\n        /* \"#utility.yul\":10121:10229   */\n      pop\n      pop\n      jump\t// out\n        /* \"#utility.yul\":10235:10353   */\n    tag_534:\n        /* \"#utility.yul\":10322:10346   */\n      tag_536\n        /* \"#utility.yul\":10340:10345   */\n      dup2\n        /* \"#utility.yul\":10322:10346   */\n      tag_533\n      jump\t// in\n    tag_536:\n        /* \"#utility.yul\":10317:10320   */\n      dup3\n        /* \"#utility.yul\":10310:10347   */\n      mstore\n        /* \"#utility.yul\":10235:10353   */\n      pop\n      pop\n      jump\t// out\n        /* \"#utility.yul\":10389:11121   */\n    tag_537:\n        /* \"#utility.yul\":10508:10511   */\n      0x00\n        /* \"#utility.yul\":10537:10591   */\n      tag_539\n        /* \"#utility.yul\":10585:10590   */\n      dup3\n        /* \"#utility.yul\":10537:10591   */\n      tag_540\n      jump\t// in\n    tag_539:\n        /* \"#utility.yul\":10607:10693   */\n      tag_541\n        /* \"#utility.yul\":10686:10692   */\n      dup2\n        /* \"#utility.yul\":10681:10684   */\n      dup6\n        /* \"#utility.yul\":10607:10693   */\n      tag_542\n      jump\t// in\n    tag_541:\n        /* \"#utility.yul\":10600:10693   */\n      swap4\n      pop\n        /* \"#utility.yul\":10717:10773   */\n      tag_543\n        /* \"#utility.yul\":10767:10772   */\n      dup4\n        /* \"#utility.yul\":10717:10773   */\n      tag_544\n      jump\t// in\n    tag_543:\n        /* \"#utility.yul\":10796:10803   */\n      dup1\n        /* \"#utility.yul\":10827:10828   */\n      0x00\n        /* \"#utility.yul\":10812:11096   */\n    tag_545:\n        /* \"#utility.yul\":10837:10843   */\n      dup4\n        /* \"#utility.yul\":10834:10835   */\n      dup2\n        /* \"#utility.yul\":10831:10844   */\n      lt\n        /* \"#utility.yul\":10812:11096   */\n      iszero\n      tag_547\n      jumpi\n        /* \"#utility.yul\":10913:10919   */\n      dup2\n        /* \"#utility.yul\":10907:10920   */\n      mload\n        /* \"#utility.yul\":10940:11003   */\n      tag_548\n        /* \"#utility.yul\":10999:11002   */\n      dup9\n        /* \"#utility.yul\":10984:10997   */\n      dup3\n        /* \"#utility.yul\":10940:11003   */\n      tag_519\n      jump\t// in\n    tag_548:\n        /* \"#utility.yul\":10933:11003   */\n      swap8\n      pop\n        /* \"#utility.yul\":11026:11086   */\n      tag_549\n        /* \"#utility.yul\":11079:11085   */\n      dup4\n        /* \"#utility.yul\":11026:11086   */\n      tag_550\n      jump\t// in\n    tag_549:\n        /* \"#utility.yul\":11016:11086   */\n      swap3\n      pop\n        /* \"#utility.yul\":10872:11096   */\n      pop\n        /* \"#utility.yul\":10859:10860   */\n      0x01\n        /* \"#utility.yul\":10856:10857   */\n      dup2\n        /* \"#utility.yul\":10852:10861   */\n      add\n        /* \"#utility.yul\":10847:10861   */\n      swap1\n      pop\n        /* \"#utility.yul\":10812:11096   */\n      jump(tag_545)\n    tag_547:\n        /* \"#utility.yul\":10816:10830   */\n      pop\n        /* \"#utility.yul\":11112:11115   */\n      dup6\n        /* \"#utility.yul\":11105:11115   */\n      swap4\n      pop\n        /* \"#utility.yul\":10513:11121   */\n      pop\n      pop\n      pop\n        /* \"#utility.yul\":10389:11121   */\n      swap3\n      swap2\n      pop\n      pop\n      jump\t// out\n        /* \"#utility.yul\":11155:12146   */\n    tag_551:\n        /* \"#utility.yul\":11294:11297   */\n      0x00\n        /* \"#utility.yul\":11323:11387   */\n      tag_553\n        /* \"#utility.yul\":11381:11386   */\n      dup3\n        /* \"#utility.yul\":11323:11387   */\n      tag_554\n      jump\t// in\n    tag_553:\n        /* \"#utility.yul\":11403:11499   */\n      tag_555\n        /* \"#utility.yul\":11492:11498   */\n      dup2\n        /* \"#utility.yul\":11487:11490   */\n      dup6\n        /* \"#utility.yul\":11403:11499   */\n      tag_556\n      jump\t// in\n    tag_555:\n        /* \"#utility.yul\":11396:11499   */\n      swap4\n      pop\n        /* \"#utility.yul\":11525:11528   */\n      dup4\n        /* \"#utility.yul\":11570:11574   */\n      0x20\n        /* \"#utility.yul\":11562:11568   */\n      dup3\n        /* \"#utility.yul\":11558:11575   */\n      mul\n        /* \"#utility.yul\":11553:11556   */\n      dup6\n        /* \"#utility.yul\":11549:11576   */\n      add\n        /* \"#utility.yul\":11600:11666   */\n      tag_557\n        /* \"#utility.yul\":11660:11665   */\n      dup6\n        /* \"#utility.yul\":11600:11666   */\n      tag_558\n      jump\t// in\n    tag_557:\n        /* \"#utility.yul\":11689:11696   */\n      dup1\n        /* \"#utility.yul\":11720:11721   */\n      0x00\n        /* \"#utility.yul\":11705:12101   */\n    tag_559:\n        /* \"#utility.yul\":11730:11736   */\n      dup6\n        /* \"#utility.yul\":11727:11728   */\n      dup2\n        /* \"#utility.yul\":11724:11737   */\n      lt\n        /* \"#utility.yul\":11705:12101   */\n      iszero\n      tag_561\n      jumpi\n        /* \"#utility.yul\":11801:11810   */\n      dup5\n        /* \"#utility.yul\":11795:11799   */\n      dup5\n        /* \"#utility.yul\":11791:11811   */\n      sub\n        /* \"#utility.yul\":11786:11789   */\n      dup10\n        /* \"#utility.yul\":11779:11812   */\n      mstore\n        /* \"#utility.yul\":11852:11858   */\n      dup2\n        /* \"#utility.yul\":11846:11859   */\n      mload\n        /* \"#utility.yul\":11880:11964   */\n      tag_562\n        /* \"#utility.yul\":11959:11963   */\n      dup6\n        /* \"#utility.yul\":11944:11957   */\n      dup3\n        /* \"#utility.yul\":11880:11964   */\n      tag_523\n      jump\t// in\n    tag_562:\n        /* \"#utility.yul\":11872:11964   */\n      swap5\n      pop\n        /* \"#utility.yul\":11987:12057   */\n      tag_563\n        /* \"#utility.yul\":12050:12056   */\n      dup4\n        /* \"#utility.yul\":11987:12057   */\n      tag_564\n      jump\t// in\n    tag_563:\n        /* \"#utility.yul\":11977:12057   */\n      swap3\n      pop\n        /* \"#utility.yul\":12086:12090   */\n      0x20\n        /* \"#utility.yul\":12081:12084   */\n      dup11\n        /* \"#utility.yul\":12077:12091   */\n      add\n        /* \"#utility.yul\":12070:12091   */\n      swap10\n      pop\n        /* \"#utility.yul\":11765:12101   */\n      pop\n        /* \"#utility.yul\":11752:11753   */\n      0x01\n        /* \"#utility.yul\":11749:11750   */\n      dup2\n        /* \"#utility.yul\":11745:11754   */\n      add\n        /* \"#utility.yul\":11740:11754   */\n      swap1\n      pop\n        /* \"#utility.yul\":11705:12101   */\n      jump(tag_559)\n    tag_561:\n        /* \"#utility.yul\":11709:11723   */\n      pop\n        /* \"#utility.yul\":12117:12121   */\n      dup3\n        /* \"#utility.yul\":12110:12121   */\n      swap8\n      pop\n        /* \"#utility.yul\":12137:12140   */\n      dup8\n        /* \"#utility.yul\":12130:12140   */\n      swap6\n      pop\n        /* \"#utility.yul\":11299:12146   */\n      pop\n      pop\n      pop\n      pop\n      pop\n        /* \"#utility.yul\":11155:12146   */\n      swap3\n      swap2\n      pop\n      pop\n      jump\t// out\n        /* \"#utility.yul\":12196:13299   */\n    tag_565:\n        /* \"#utility.yul\":12363:12366   */\n      0x00\n        /* \"#utility.yul\":12392:12470   */\n      tag_567\n        /* \"#utility.yul\":12464:12469   */\n      dup3\n        /* \"#utility.yul\":12392:12470   */\n      tag_568\n      jump\t// in\n    tag_567:\n        /* \"#utility.yul\":12486:12596   */\n      tag_569\n        /* \"#utility.yul\":12589:12595   */\n      dup2\n        /* \"#utility.yul\":12584:12587   */\n      dup6\n        /* \"#utility.yul\":12486:12596   */\n      tag_570\n      jump\t// in\n    tag_569:\n        /* \"#utility.yul\":12479:12596   */\n      swap4\n      pop\n        /* \"#utility.yul\":12622:12625   */\n      dup4\n        /* \"#utility.yul\":12667:12671   */\n      0x20\n        /* \"#utility.yul\":12659:12665   */\n      dup3\n        /* \"#utility.yul\":12655:12672   */\n      mul\n        /* \"#utility.yul\":12650:12653   */\n      dup6\n        /* \"#utility.yul\":12646:12673   */\n      add\n        /* \"#utility.yul\":12697:12777   */\n      tag_571\n        /* \"#utility.yul\":12771:12776   */\n      dup6\n        /* \"#utility.yul\":12697:12777   */\n      tag_572\n      jump\t// in\n    tag_571:\n        /* \"#utility.yul\":12800:12807   */\n      dup1\n        /* \"#utility.yul\":12831:12832   */\n      0x00\n        /* \"#utility.yul\":12816:13254   */\n    tag_573:\n        /* \"#utility.yul\":12841:12847   */\n      dup6\n        /* \"#utility.yul\":12838:12839   */\n      dup2\n        /* \"#utility.yul\":12835:12848   */\n      lt\n        /* \"#utility.yul\":12816:13254   */\n      iszero\n      tag_575\n      jumpi\n        /* \"#utility.yul\":12912:12921   */\n      dup5\n        /* \"#utility.yul\":12906:12910   */\n      dup5\n        /* \"#utility.yul\":12902:12922   */\n      sub\n        /* \"#utility.yul\":12897:12900   */\n      dup10\n        /* \"#utility.yul\":12890:12923   */\n      mstore\n        /* \"#utility.yul\":12963:12969   */\n      dup2\n        /* \"#utility.yul\":12957:12970   */\n      mload\n        /* \"#utility.yul\":12991:13103   */\n      tag_576\n        /* \"#utility.yul\":13098:13102   */\n      dup6\n        /* \"#utility.yul\":13083:13096   */\n      dup3\n        /* \"#utility.yul\":12991:13103   */\n      tag_527\n      jump\t// in\n    tag_576:\n        /* \"#utility.yul\":12983:13103   */\n      swap5\n      pop\n        /* \"#utility.yul\":13126:13210   */\n      tag_577\n        /* \"#utility.yul\":13203:13209   */\n      dup4\n        /* \"#utility.yul\":13126:13210   */\n      tag_578\n      jump\t// in\n    tag_577:\n        /* \"#utility.yul\":13116:13210   */\n      swap3\n      pop\n        /* \"#utility.yul\":13239:13243   */\n      0x20\n        /* \"#utility.yul\":13234:13237   */\n      dup11\n        /* \"#utility.yul\":13230:13244   */\n      add\n        /* \"#utility.yul\":13223:13244   */\n      swap10\n      pop\n        /* \"#utility.yul\":12876:13254   */\n      pop\n        /* \"#utility.yul\":12863:12864   */\n      0x01\n        /* \"#utility.yul\":12860:12861   */\n      dup2\n        /* \"#utility.yul\":12856:12865   */\n      add\n        /* \"#utility.yul\":12851:12865   */\n      swap1\n      pop\n        /* \"#utility.yul\":12816:13254   */\n      jump(tag_573)\n    tag_575:\n        /* \"#utility.yul\":12820:12834   */\n      pop\n        /* \"#utility.yul\":13270:13274   */\n      dup3\n        /* \"#utility.yul\":13263:13274   */\n      swap8\n      pop\n        /* \"#utility.yul\":13290:13293   */\n      dup8\n        /* \"#utility.yul\":13283:13293   */\n      swap6\n      pop\n        /* \"#utility.yul\":12368:13299   */\n      pop\n      pop\n      pop\n      pop\n      pop\n        /* \"#utility.yul\":12196:13299   */\n      swap3\n      swap2\n      pop\n      pop\n      jump\t// out\n        /* \"#utility.yul\":13305:13404   */\n    tag_579:\n        /* \"#utility.yul\":13376:13397   */\n      tag_581\n        /* \"#utility.yul\":13391:13396   */\n      dup2\n        /* \"#utility.yul\":13376:13397   */\n      tag_582\n      jump\t// in\n    tag_581:\n        /* \"#utility.yul\":13371:13374   */\n      dup3\n        /* \"#utility.yul\":13364:13398   */\n      mstore\n        /* \"#utility.yul\":13305:13404   */\n      pop\n      pop\n      jump\t// out\n        /* \"#utility.yul\":13410:13754   */\n    tag_526:\n        /* \"#utility.yul\":13488:13491   */\n      0x00\n        /* \"#utility.yul\":13516:13555   */\n      tag_584\n        /* \"#utility.yul\":13549:13554   */\n      dup3\n        /* \"#utility.yul\":13516:13555   */\n      tag_585\n      jump\t// in\n    tag_584:\n        /* \"#utility.yul\":13571:13632   */\n      tag_586\n        /* \"#utility.yul\":13625:13631   */\n      dup2\n        /* \"#utility.yul\":13620:13623   */\n      dup6\n        /* \"#utility.yul\":13571:13632   */\n      tag_587\n      jump\t// in\n    tag_586:\n        /* \"#utility.yul\":13564:13632   */\n      swap4\n      pop\n        /* \"#utility.yul\":13641:13693   */\n      tag_588\n        /* \"#utility.yul\":13686:13692   */\n      dup2\n        /* \"#utility.yul\":13681:13684   */\n      dup6\n        /* \"#utility.yul\":13674:13678   */\n      0x20\n        /* \"#utility.yul\":13667:13672   */\n      dup7\n        /* \"#utility.yul\":13663:13679   */\n      add\n        /* \"#utility.yul\":13641:13693   */\n      tag_589\n      jump\t// in\n    tag_588:\n        /* \"#utility.yul\":13718:13747   */\n      tag_590\n        /* \"#utility.yul\":13740:13746   */\n      dup2\n        /* \"#utility.yul\":13718:13747   */\n      tag_591\n      jump\t// in\n    tag_590:\n        /* \"#utility.yul\":13713:13716   */\n      dup5\n        /* \"#utility.yul\":13709:13748   */\n      add\n        /* \"#utility.yul\":13702:13748   */\n      swap2\n      pop\n        /* \"#utility.yul\":13492:13754   */\n      pop\n        /* \"#utility.yul\":13410:13754   */\n      swap3\n      swap2\n      pop\n      pop\n      jump\t// out\n        /* \"#utility.yul\":13760:14124   */\n    tag_592:\n        /* \"#utility.yul\":13848:13851   */\n      0x00\n        /* \"#utility.yul\":13876:13915   */\n      tag_594\n        /* \"#utility.yul\":13909:13914   */\n      dup3\n        /* \"#utility.yul\":13876:13915   */\n      tag_585\n      jump\t// in\n    tag_594:\n        /* \"#utility.yul\":13931:14002   */\n      tag_595\n        /* \"#utility.yul\":13995:14001   */\n      dup2\n        /* \"#utility.yul\":13990:13993   */\n      dup6\n        /* \"#utility.yul\":13931:14002   */\n      tag_596\n      jump\t// in\n    tag_595:\n        /* \"#utility.yul\":13924:14002   */\n      swap4\n      pop\n        /* \"#utility.yul\":14011:14063   */\n      tag_597\n        /* \"#utility.yul\":14056:14062   */\n      dup2\n        /* \"#utility.yul\":14051:14054   */\n      dup6\n        /* \"#utility.yul\":14044:14048   */\n      0x20\n        /* \"#utility.yul\":14037:14042   */\n      dup7\n        /* \"#utility.yul\":14033:14049   */\n      add\n        /* \"#utility.yul\":14011:14063   */\n      tag_589\n      jump\t// in\n    tag_597:\n        /* \"#utility.yul\":14088:14117   */\n      tag_598\n        /* \"#utility.yul\":14110:14116   */\n      dup2\n        /* \"#utility.yul\":14088:14117   */\n      tag_591\n      jump\t// in\n    tag_598:\n        /* \"#utility.yul\":14083:14086   */\n      dup5\n        /* \"#utility.yul\":14079:14118   */\n      add\n        /* \"#utility.yul\":14072:14118   */\n      swap2\n      pop\n        /* \"#utility.yul\":13852:14124   */\n      pop\n        /* \"#utility.yul\":13760:14124   */\n      swap3\n      swap2\n      pop\n      pop\n      jump\t// out\n        /* \"#utility.yul\":14130:14507   */\n    tag_599:\n        /* \"#utility.yul\":14236:14239   */\n      0x00\n        /* \"#utility.yul\":14264:14303   */\n      tag_601\n        /* \"#utility.yul\":14297:14302   */\n      dup3\n        /* \"#utility.yul\":14264:14303   */\n      tag_585\n      jump\t// in\n    tag_601:\n        /* \"#utility.yul\":14319:14408   */\n      tag_602\n        /* \"#utility.yul\":14401:14407   */\n      dup2\n        /* \"#utility.yul\":14396:14399   */\n      dup6\n        /* \"#utility.yul\":14319:14408   */\n      tag_603\n      jump\t// in\n    tag_602:\n        /* \"#utility.yul\":14312:14408   */\n      swap4\n      pop\n        /* \"#utility.yul\":14417:14469   */\n      tag_604\n        /* \"#utility.yul\":14462:14468   */\n      dup2\n        /* \"#utility.yul\":14457:14460   */\n      dup6\n        /* \"#utility.yul\":14450:14454   */\n      0x20\n        /* \"#utility.yul\":14443:14448   */\n      dup7\n        /* \"#utility.yul\":14439:14455   */\n      add\n        /* \"#utility.yul\":14417:14469   */\n      tag_589\n      jump\t// in\n    tag_604:\n        /* \"#utility.yul\":14494:14500   */\n      dup1\n        /* \"#utility.yul\":14489:14492   */\n      dup5\n        /* \"#utility.yul\":14485:14501   */\n      add\n        /* \"#utility.yul\":14478:14501   */\n      swap2\n      pop\n        /* \"#utility.yul\":14240:14507   */\n      pop\n        /* \"#utility.yul\":14130:14507   */\n      swap3\n      swap2\n      pop\n      pop\n      jump\t// out\n        /* \"#utility.yul\":14513:14879   */\n    tag_605:\n        /* \"#utility.yul\":14655:14658   */\n      0x00\n        /* \"#utility.yul\":14676:14743   */\n      tag_607\n        /* \"#utility.yul\":14740:14742   */\n      0x22\n        /* \"#utility.yul\":14735:14738   */\n      dup4\n        /* \"#utility.yul\":14676:14743   */\n      tag_596\n      jump\t// in\n    tag_607:\n        /* \"#utility.yul\":14669:14743   */\n      swap2\n      pop\n        /* \"#utility.yul\":14752:14845   */\n      tag_608\n        /* \"#utility.yul\":14841:14844   */\n      dup3\n        /* \"#utility.yul\":14752:14845   */\n      tag_609\n      jump\t// in\n    tag_608:\n        /* \"#utility.yul\":14870:14872   */\n      0x40\n        /* \"#utility.yul\":14865:14868   */\n      dup3\n        /* \"#utility.yul\":14861:14873   */\n      add\n        /* \"#utility.yul\":14854:14873   */\n      swap1\n      pop\n        /* \"#utility.yul\":14513:14879   */\n      swap2\n      swap1\n      pop\n      jump\t// out\n        /* \"#utility.yul\":14885:15251   */\n    tag_610:\n        /* \"#utility.yul\":15027:15030   */\n      0x00\n        /* \"#utility.yul\":15048:15115   */\n      tag_612\n        /* \"#utility.yul\":15112:15114   */\n      0x0b\n        /* \"#utility.yul\":15107:15110   */\n      dup4\n        /* \"#utility.yul\":15048:15115   */\n      tag_596\n      jump\t// in\n    tag_612:\n        /* \"#utility.yul\":15041:15115   */\n      swap2\n      pop\n        /* \"#utility.yul\":15124:15217   */\n      tag_613\n        /* \"#utility.yul\":15213:15216   */\n      dup3\n        /* \"#utility.yul\":15124:15217   */\n      tag_614\n      jump\t// in\n    tag_613:\n        /* \"#utility.yul\":15242:15244   */\n      0x20\n        /* \"#utility.yul\":15237:15240   */\n      dup3\n        /* \"#utility.yul\":15233:15245   */\n      add\n        /* \"#utility.yul\":15226:15245   */\n      swap1\n      pop\n        /* \"#utility.yul\":14885:15251   */\n      swap2\n      swap1\n      pop\n      jump\t// out\n        /* \"#utility.yul\":15257:15622   */\n    tag_615:\n        /* \"#utility.yul\":15399:15402   */\n      0x00\n        /* \"#utility.yul\":15420:15486   */\n      tag_617\n        /* \"#utility.yul\":15484:15485   */\n      0x09\n        /* \"#utility.yul\":15479:15482   */\n      dup4\n        /* \"#utility.yul\":15420:15486   */\n      tag_596\n      jump\t// in\n    tag_617:\n        /* \"#utility.yul\":15413:15486   */\n      swap2\n      pop\n        /* \"#utility.yul\":15495:15588   */\n      tag_618\n        /* \"#utility.yul\":15584:15587   */\n      dup3\n        /* \"#utility.yul\":15495:15588   */\n      tag_619\n      jump\t// in\n    tag_618:\n        /* \"#utility.yul\":15613:15615   */\n      0x20\n        /* \"#utility.yul\":15608:15611   */\n      dup3\n        /* \"#utility.yul\":15604:15616   */\n      add\n        /* \"#utility.yul\":15597:15616   */\n      swap1\n      pop\n        /* \"#utility.yul\":15257:15622   */\n      swap2\n      swap1\n      pop\n      jump\t// out\n        /* \"#utility.yul\":15628:15994   */\n    tag_620:\n        /* \"#utility.yul\":15770:15773   */\n      0x00\n        /* \"#utility.yul\":15791:15858   */\n      tag_622\n        /* \"#utility.yul\":15855:15857   */\n      0x0c\n        /* \"#utility.yul\":15850:15853   */\n      dup4\n        /* \"#utility.yul\":15791:15858   */\n      tag_596\n      jump\t// in\n    tag_622:\n        /* \"#utility.yul\":15784:15858   */\n      swap2\n      pop\n        /* \"#utility.yul\":15867:15960   */\n      tag_623\n        /* \"#utility.yul\":15956:15959   */\n      dup3\n        /* \"#utility.yul\":15867:15960   */\n      tag_624\n      jump\t// in\n    tag_623:\n        /* \"#utility.yul\":15985:15987   */\n      0x20\n        /* \"#utility.yul\":15980:15983   */\n      dup3\n        /* \"#utility.yul\":15976:15988   */\n      add\n        /* \"#utility.yul\":15969:15988   */\n      swap1\n      pop\n        /* \"#utility.yul\":15628:15994   */\n      swap2\n      swap1\n      pop\n      jump\t// out\n        /* \"#utility.yul\":16000:16366   */\n    tag_625:\n        /* \"#utility.yul\":16142:16145   */\n      0x00\n        /* \"#utility.yul\":16163:16230   */\n      tag_627\n        /* \"#utility.yul\":16227:16229   */\n      0x0d\n        /* \"#utility.yul\":16222:16225   */\n      dup4\n        /* \"#utility.yul\":16163:16230   */\n      tag_596\n      jump\t// in\n    tag_627:\n        /* \"#utility.yul\":16156:16230   */\n      swap2\n      pop\n        /* \"#utility.yul\":16239:16332   */\n      tag_628\n        /* \"#utility.yul\":16328:16331   */\n      dup3\n        /* \"#utility.yul\":16239:16332   */\n      tag_629\n      jump\t// in\n    tag_628:\n        /* \"#utility.yul\":16357:16359   */\n      0x20\n        /* \"#utility.yul\":16352:16355   */\n      dup3\n        /* \"#utility.yul\":16348:16360   */\n      add\n        /* \"#utility.yul\":16341:16360   */\n      swap1\n      pop\n        /* \"#utility.yul\":16000:16366   */\n      swap2\n      swap1\n      pop\n      jump\t// out\n        /* \"#utility.yul\":16372:16738   */\n    tag_630:\n        /* \"#utility.yul\":16514:16517   */\n      0x00\n        /* \"#utility.yul\":16535:16602   */\n      tag_632\n        /* \"#utility.yul\":16599:16601   */\n      0x16\n        /* \"#utility.yul\":16594:16597   */\n      dup4\n        /* \"#utility.yul\":16535:16602   */\n      tag_596\n      jump\t// in\n    tag_632:\n        /* \"#utility.yul\":16528:16602   */\n      swap2\n      pop\n        /* \"#utility.yul\":16611:16704   */\n      tag_633\n        /* \"#utility.yul\":16700:16703   */\n      dup3\n        /* \"#utility.yul\":16611:16704   */\n      tag_634\n      jump\t// in\n    tag_633:\n        /* \"#utility.yul\":16729:16731   */\n      0x20\n        /* \"#utility.yul\":16724:16727   */\n      dup3\n        /* \"#utility.yul\":16720:16732   */\n      add\n        /* \"#utility.yul\":16713:16732   */\n      swap1\n      pop\n        /* \"#utility.yul\":16372:16738   */\n      swap2\n      swap1\n      pop\n      jump\t// out\n        /* \"#utility.yul\":16744:17110   */\n    tag_635:\n        /* \"#utility.yul\":16886:16889   */\n      0x00\n        /* \"#utility.yul\":16907:16974   */\n      tag_637\n        /* \"#utility.yul\":16971:16973   */\n      0x0b\n        /* \"#utility.yul\":16966:16969   */\n      dup4\n        /* \"#utility.yul\":16907:16974   */\n      tag_596\n      jump\t// in\n    tag_637:\n        /* \"#utility.yul\":16900:16974   */\n      swap2\n      pop\n        /* \"#utility.yul\":16983:17076   */\n      tag_638\n        /* \"#utility.yul\":17072:17075   */\n      dup3\n        /* \"#utility.yul\":16983:17076   */\n      tag_639\n      jump\t// in\n    tag_638:\n        /* \"#utility.yul\":17101:17103   */\n      0x20\n        /* \"#utility.yul\":17096:17099   */\n      dup3\n        /* \"#utility.yul\":17092:17104   */\n      add\n        /* \"#utility.yul\":17085:17104   */\n      swap1\n      pop\n        /* \"#utility.yul\":16744:17110   */\n      swap2\n      swap1\n      pop\n      jump\t// out\n        /* \"#utility.yul\":17156:18184   */\n    tag_530:\n        /* \"#utility.yul\":17263:17266   */\n      0x00\n        /* \"#utility.yul\":17299:17303   */\n      0x80\n        /* \"#utility.yul\":17294:17297   */\n      dup4\n        /* \"#utility.yul\":17290:17304   */\n      add\n        /* \"#utility.yul\":17390:17394   */\n      0x00\n        /* \"#utility.yul\":17383:17388   */\n      dup4\n        /* \"#utility.yul\":17379:17395   */\n      add\n        /* \"#utility.yul\":17373:17396   */\n      mload\n        /* \"#utility.yul\":17409:17472   */\n      tag_641\n        /* \"#utility.yul\":17466:17470   */\n      0x00\n        /* \"#utility.yul\":17461:17464   */\n      dup7\n        /* \"#utility.yul\":17457:17471   */\n      add\n        /* \"#utility.yul\":17443:17455   */\n      dup3\n        /* \"#utility.yul\":17409:17472   */\n      tag_522\n      jump\t// in\n    tag_641:\n        /* \"#utility.yul\":17314:17482   */\n      pop\n        /* \"#utility.yul\":17571:17575   */\n      0x20\n        /* \"#utility.yul\":17564:17569   */\n      dup4\n        /* \"#utility.yul\":17560:17576   */\n      add\n        /* \"#utility.yul\":17554:17577   */\n      mload\n        /* \"#utility.yul\":17624:17627   */\n      dup5\n        /* \"#utility.yul\":17618:17622   */\n      dup3\n        /* \"#utility.yul\":17614:17628   */\n      sub\n        /* \"#utility.yul\":17607:17611   */\n      0x20\n        /* \"#utility.yul\":17602:17605   */\n      dup7\n        /* \"#utility.yul\":17598:17612   */\n      add\n        /* \"#utility.yul\":17591:17629   */\n      mstore\n        /* \"#utility.yul\":17650:17723   */\n      tag_642\n        /* \"#utility.yul\":17718:17722   */\n      dup3\n        /* \"#utility.yul\":17704:17716   */\n      dup3\n        /* \"#utility.yul\":17650:17723   */\n      tag_526\n      jump\t// in\n    tag_642:\n        /* \"#utility.yul\":17642:17723   */\n      swap2\n      pop\n        /* \"#utility.yul\":17492:17734   */\n      pop\n        /* \"#utility.yul\":17823:17827   */\n      0x40\n        /* \"#utility.yul\":17816:17821   */\n      dup4\n        /* \"#utility.yul\":17812:17828   */\n      add\n        /* \"#utility.yul\":17806:17829   */\n      mload\n        /* \"#utility.yul\":17876:17879   */\n      dup5\n        /* \"#utility.yul\":17870:17874   */\n      dup3\n        /* \"#utility.yul\":17866:17880   */\n      sub\n        /* \"#utility.yul\":17859:17863   */\n      0x40\n        /* \"#utility.yul\":17854:17857   */\n      dup7\n        /* \"#utility.yul\":17850:17864   */\n      add\n        /* \"#utility.yul\":17843:17881   */\n      mstore\n        /* \"#utility.yul\":17902:17975   */\n      tag_643\n        /* \"#utility.yul\":17970:17974   */\n      dup3\n        /* \"#utility.yul\":17956:17968   */\n      dup3\n        /* \"#utility.yul\":17902:17975   */\n      tag_526\n      jump\t// in\n    tag_643:\n        /* \"#utility.yul\":17894:17975   */\n      swap2\n      pop\n        /* \"#utility.yul\":17744:17986   */\n      pop\n        /* \"#utility.yul\":18071:18075   */\n      0x60\n        /* \"#utility.yul\":18064:18069   */\n      dup4\n        /* \"#utility.yul\":18060:18076   */\n      add\n        /* \"#utility.yul\":18054:18077   */\n      mload\n        /* \"#utility.yul\":18090:18147   */\n      tag_644\n        /* \"#utility.yul\":18141:18145   */\n      0x60\n        /* \"#utility.yul\":18136:18139   */\n      dup7\n        /* \"#utility.yul\":18132:18146   */\n      add\n        /* \"#utility.yul\":18118:18130   */\n      dup3\n        /* \"#utility.yul\":18090:18147   */\n      tag_579\n      jump\t// in\n    tag_644:\n        /* \"#utility.yul\":17996:18157   */\n      pop\n        /* \"#utility.yul\":18174:18178   */\n      dup1\n        /* \"#utility.yul\":18167:18178   */\n      swap2\n      pop\n        /* \"#utility.yul\":17268:18184   */\n      pop\n        /* \"#utility.yul\":17156:18184   */\n      swap3\n      swap2\n      pop\n      pop\n      jump\t// out\n        /* \"#utility.yul\":18190:18308   */\n    tag_645:\n        /* \"#utility.yul\":18277:18301   */\n      tag_647\n        /* \"#utility.yul\":18295:18300   */\n      dup2\n        /* \"#utility.yul\":18277:18301   */\n      tag_648\n      jump\t// in\n    tag_647:\n        /* \"#utility.yul\":18272:18275   */\n      dup3\n        /* \"#utility.yul\":18265:18302   */\n      mstore\n        /* \"#utility.yul\":18190:18308   */\n      pop\n      pop\n      jump\t// out\n        /* \"#utility.yul\":18314:18589   */\n    tag_144:\n        /* \"#utility.yul\":18446:18449   */\n      0x00\n        /* \"#utility.yul\":18468:18563   */\n      tag_650\n        /* \"#utility.yul\":18559:18562   */\n      dup3\n        /* \"#utility.yul\":18550:18556   */\n      dup5\n        /* \"#utility.yul\":18468:18563   */\n      tag_599\n      jump\t// in\n    tag_650:\n        /* \"#utility.yul\":18461:18563   */\n      swap2\n      pop\n        /* \"#utility.yul\":18580:18583   */\n      dup2\n        /* \"#utility.yul\":18573:18583   */\n      swap1\n      pop\n        /* \"#utility.yul\":18314:18589   */\n      swap3\n      swap2\n      pop\n      pop\n      jump\t// out\n        /* \"#utility.yul\":18595:19018   */\n    tag_40:\n        /* \"#utility.yul\":18736:18740   */\n      0x00\n        /* \"#utility.yul\":18774:18776   */\n      0x40\n        /* \"#utility.yul\":18763:18772   */\n      dup3\n        /* \"#utility.yul\":18759:18777   */\n      add\n        /* \"#utility.yul\":18751:18777   */\n      swap1\n      pop\n        /* \"#utility.yul\":18787:18858   */\n      tag_652\n        /* \"#utility.yul\":18855:18856   */\n      0x00\n        /* \"#utility.yul\":18844:18853   */\n      dup4\n        /* \"#utility.yul\":18840:18857   */\n      add\n        /* \"#utility.yul\":18831:18837   */\n      dup6\n        /* \"#utility.yul\":18787:18858   */\n      tag_534\n      jump\t// in\n    tag_652:\n        /* \"#utility.yul\":18905:18914   */\n      dup2\n        /* \"#utility.yul\":18899:18903   */\n      dup2\n        /* \"#utility.yul\":18895:18915   */\n      sub\n        /* \"#utility.yul\":18890:18892   */\n      0x20\n        /* \"#utility.yul\":18879:18888   */\n      dup4\n        /* \"#utility.yul\":18875:18893   */\n      add\n        /* \"#utility.yul\":18868:18916   */\n      mstore\n        /* \"#utility.yul\":18933:19011   */\n      tag_653\n        /* \"#utility.yul\":19006:19010   */\n      dup2\n        /* \"#utility.yul\":18997:19003   */\n      dup5\n        /* \"#utility.yul\":18933:19011   */\n      tag_592\n      jump\t// in\n    tag_653:\n        /* \"#utility.yul\":18925:19011   */\n      swap1\n      pop\n        /* \"#utility.yul\":18595:19018   */\n      swap4\n      swap3\n      pop\n      pop\n      pop\n      jump\t// out\n        /* \"#utility.yul\":19024:20257   */\n    tag_77:\n        /* \"#utility.yul\":19439:19443   */\n      0x00\n        /* \"#utility.yul\":19477:19480   */\n      0x80\n        /* \"#utility.yul\":19466:19475   */\n      dup3\n        /* \"#utility.yul\":19462:19481   */\n      add\n        /* \"#utility.yul\":19454:19481   */\n      swap1\n      pop\n        /* \"#utility.yul\":19527:19536   */\n      dup2\n        /* \"#utility.yul\":19521:19525   */\n      dup2\n        /* \"#utility.yul\":19517:19537   */\n      sub\n        /* \"#utility.yul\":19513:19514   */\n      0x00\n        /* \"#utility.yul\":19502:19511   */\n      dup4\n        /* \"#utility.yul\":19498:19515   */\n      add\n        /* \"#utility.yul\":19491:19538   */\n      mstore\n        /* \"#utility.yul\":19555:19633   */\n      tag_655\n        /* \"#utility.yul\":19628:19632   */\n      dup2\n        /* \"#utility.yul\":19619:19625   */\n      dup8\n        /* \"#utility.yul\":19555:19633   */\n      tag_592\n      jump\t// in\n    tag_655:\n        /* \"#utility.yul\":19547:19633   */\n      swap1\n      pop\n        /* \"#utility.yul\":19680:19689   */\n      dup2\n        /* \"#utility.yul\":19674:19678   */\n      dup2\n        /* \"#utility.yul\":19670:19690   */\n      sub\n        /* \"#utility.yul\":19665:19667   */\n      0x20\n        /* \"#utility.yul\":19654:19663   */\n      dup4\n        /* \"#utility.yul\":19650:19668   */\n      add\n        /* \"#utility.yul\":19643:19691   */\n      mstore\n        /* \"#utility.yul\":19708:19864   */\n      tag_656\n        /* \"#utility.yul\":19859:19863   */\n      dup2\n        /* \"#utility.yul\":19850:19856   */\n      dup7\n        /* \"#utility.yul\":19708:19864   */\n      tag_565\n      jump\t// in\n    tag_656:\n        /* \"#utility.yul\":19700:19864   */\n      swap1\n      pop\n        /* \"#utility.yul\":19911:19920   */\n      dup2\n        /* \"#utility.yul\":19905:19909   */\n      dup2\n        /* \"#utility.yul\":19901:19921   */\n      sub\n        /* \"#utility.yul\":19896:19898   */\n      0x40\n        /* \"#utility.yul\":19885:19894   */\n      dup4\n        /* \"#utility.yul\":19881:19899   */\n      add\n        /* \"#utility.yul\":19874:19922   */\n      mstore\n        /* \"#utility.yul\":19939:20067   */\n      tag_657\n        /* \"#utility.yul\":20062:20066   */\n      dup2\n        /* \"#utility.yul\":20053:20059   */\n      dup6\n        /* \"#utility.yul\":19939:20067   */\n      tag_551\n      jump\t// in\n    tag_657:\n        /* \"#utility.yul\":19931:20067   */\n      swap1\n      pop\n        /* \"#utility.yul\":20114:20123   */\n      dup2\n        /* \"#utility.yul\":20108:20112   */\n      dup2\n        /* \"#utility.yul\":20104:20124   */\n      sub\n        /* \"#utility.yul\":20099:20101   */\n      0x60\n        /* \"#utility.yul\":20088:20097   */\n      dup4\n        /* \"#utility.yul\":20084:20102   */\n      add\n        /* \"#utility.yul\":20077:20125   */\n      mstore\n        /* \"#utility.yul\":20142:20250   */\n      tag_658\n        /* \"#utility.yul\":20245:20249   */\n      dup2\n        /* \"#utility.yul\":20236:20242   */\n      dup5\n        /* \"#utility.yul\":20142:20250   */\n      tag_537\n      jump\t// in\n    tag_658:\n        /* \"#utility.yul\":20134:20250   */\n      swap1\n      pop\n        /* \"#utility.yul\":19024:20257   */\n      swap6\n      swap5\n      pop\n      pop\n      pop\n      pop\n      pop\n      jump\t// out\n        /* \"#utility.yul\":20263:21482   */\n    tag_26:\n        /* \"#utility.yul\":20618:20622   */\n      0x00\n        /* \"#utility.yul\":20656:20659   */\n      0xa0\n        /* \"#utility.yul\":20645:20654   */\n      dup3\n        /* \"#utility.yul\":20641:20660   */\n      add\n        /* \"#utility.yul\":20633:20660   */\n      swap1\n      pop\n        /* \"#utility.yul\":20706:20715   */\n      dup2\n        /* \"#utility.yul\":20700:20704   */\n      dup2\n        /* \"#utility.yul\":20696:20716   */\n      sub\n        /* \"#utility.yul\":20692:20693   */\n      0x00\n        /* \"#utility.yul\":20681:20690   */\n      dup4\n        /* \"#utility.yul\":20677:20694   */\n      add\n        /* \"#utility.yul\":20670:20717   */\n      mstore\n        /* \"#utility.yul\":20734:20812   */\n      tag_660\n        /* \"#utility.yul\":20807:20811   */\n      dup2\n        /* \"#utility.yul\":20798:20804   */\n      dup9\n        /* \"#utility.yul\":20734:20812   */\n      tag_592\n      jump\t// in\n    tag_660:\n        /* \"#utility.yul\":20726:20812   */\n      swap1\n      pop\n        /* \"#utility.yul\":20859:20868   */\n      dup2\n        /* \"#utility.yul\":20853:20857   */\n      dup2\n        /* \"#utility.yul\":20849:20869   */\n      sub\n        /* \"#utility.yul\":20844:20846   */\n      0x20\n        /* \"#utility.yul\":20833:20842   */\n      dup4\n        /* \"#utility.yul\":20829:20847   */\n      add\n        /* \"#utility.yul\":20822:20870   */\n      mstore\n        /* \"#utility.yul\":20887:20965   */\n      tag_661\n        /* \"#utility.yul\":20960:20964   */\n      dup2\n        /* \"#utility.yul\":20951:20957   */\n      dup8\n        /* \"#utility.yul\":20887:20965   */\n      tag_592\n      jump\t// in\n    tag_661:\n        /* \"#utility.yul\":20879:20965   */\n      swap1\n      pop\n        /* \"#utility.yul\":21012:21021   */\n      dup2\n        /* \"#utility.yul\":21006:21010   */\n      dup2\n        /* \"#utility.yul\":21002:21022   */\n      sub\n        /* \"#utility.yul\":20997:20999   */\n      0x40\n        /* \"#utility.yul\":20986:20995   */\n      dup4\n        /* \"#utility.yul\":20982:21000   */\n      add\n        /* \"#utility.yul\":20975:21023   */\n      mstore\n        /* \"#utility.yul\":21040:21118   */\n      tag_662\n        /* \"#utility.yul\":21113:21117   */\n      dup2\n        /* \"#utility.yul\":21104:21110   */\n      dup7\n        /* \"#utility.yul\":21040:21118   */\n      tag_592\n      jump\t// in\n    tag_662:\n        /* \"#utility.yul\":21032:21118   */\n      swap1\n      pop\n        /* \"#utility.yul\":21165:21174   */\n      dup2\n        /* \"#utility.yul\":21159:21163   */\n      dup2\n        /* \"#utility.yul\":21155:21175   */\n      sub\n        /* \"#utility.yul\":21150:21152   */\n      0x60\n        /* \"#utility.yul\":21139:21148   */\n      dup4\n        /* \"#utility.yul\":21135:21153   */\n      add\n        /* \"#utility.yul\":21128:21176   */\n      mstore\n        /* \"#utility.yul\":21193:21271   */\n      tag_663\n        /* \"#utility.yul\":21266:21270   */\n      dup2\n        /* \"#utility.yul\":21257:21263   */\n      dup6\n        /* \"#utility.yul\":21193:21271   */\n      tag_592\n      jump\t// in\n    tag_663:\n        /* \"#utility.yul\":21185:21271   */\n      swap1\n      pop\n        /* \"#utility.yul\":21319:21328   */\n      dup2\n        /* \"#utility.yul\":21313:21317   */\n      dup2\n        /* \"#utility.yul\":21309:21329   */\n      sub\n        /* \"#utility.yul\":21303:21306   */\n      0x80\n        /* \"#utility.yul\":21292:21301   */\n      dup4\n        /* \"#utility.yul\":21288:21307   */\n      add\n        /* \"#utility.yul\":21281:21330   */\n      mstore\n        /* \"#utility.yul\":21347:21475   */\n      tag_664\n        /* \"#utility.yul\":21470:21474   */\n      dup2\n        /* \"#utility.yul\":21461:21467   */\n      dup5\n        /* \"#utility.yul\":21347:21475   */\n      tag_551\n      jump\t// in\n    tag_664:\n        /* \"#utility.yul\":21339:21475   */\n      swap1\n      pop\n        /* \"#utility.yul\":20263:21482   */\n      swap7\n      swap6\n      pop\n      pop\n      pop\n      pop\n      pop\n      pop\n      jump\t// out\n        /* \"#utility.yul\":21488:22414   */\n    tag_65:\n        /* \"#utility.yul\":21775:21779   */\n      0x00\n        /* \"#utility.yul\":21813:21816   */\n      0x80\n        /* \"#utility.yul\":21802:21811   */\n      dup3\n        /* \"#utility.yul\":21798:21817   */\n      add\n        /* \"#utility.yul\":21790:21817   */\n      swap1\n      pop\n        /* \"#utility.yul\":21863:21872   */\n      dup2\n        /* \"#utility.yul\":21857:21861   */\n      dup2\n        /* \"#utility.yul\":21853:21873   */\n      sub\n        /* \"#utility.yul\":21849:21850   */\n      0x00\n        /* \"#utility.yul\":21838:21847   */\n      dup4\n        /* \"#utility.yul\":21834:21851   */\n      add\n        /* \"#utility.yul\":21827:21874   */\n      mstore\n        /* \"#utility.yul\":21891:21969   */\n      tag_666\n        /* \"#utility.yul\":21964:21968   */\n      dup2\n        /* \"#utility.yul\":21955:21961   */\n      dup8\n        /* \"#utility.yul\":21891:21969   */\n      tag_592\n      jump\t// in\n    tag_666:\n        /* \"#utility.yul\":21883:21969   */\n      swap1\n      pop\n        /* \"#utility.yul\":22016:22025   */\n      dup2\n        /* \"#utility.yul\":22010:22014   */\n      dup2\n        /* \"#utility.yul\":22006:22026   */\n      sub\n        /* \"#utility.yul\":22001:22003   */\n      0x20\n        /* \"#utility.yul\":21990:21999   */\n      dup4\n        /* \"#utility.yul\":21986:22004   */\n      add\n        /* \"#utility.yul\":21979:22027   */\n      mstore\n        /* \"#utility.yul\":22044:22122   */\n      tag_667\n        /* \"#utility.yul\":22117:22121   */\n      dup2\n        /* \"#utility.yul\":22108:22114   */\n      dup7\n        /* \"#utility.yul\":22044:22122   */\n      tag_592\n      jump\t// in\n    tag_667:\n        /* \"#utility.yul\":22036:22122   */\n      swap1\n      pop\n        /* \"#utility.yul\":22132:22204   */\n      tag_668\n        /* \"#utility.yul\":22200:22202   */\n      0x40\n        /* \"#utility.yul\":22189:22198   */\n      dup4\n        /* \"#utility.yul\":22185:22203   */\n      add\n        /* \"#utility.yul\":22176:22182   */\n      dup6\n        /* \"#utility.yul\":22132:22204   */\n      tag_645\n      jump\t// in\n    tag_668:\n        /* \"#utility.yul\":22251:22260   */\n      dup2\n        /* \"#utility.yul\":22245:22249   */\n      dup2\n        /* \"#utility.yul\":22241:22261   */\n      sub\n        /* \"#utility.yul\":22236:22238   */\n      0x60\n        /* \"#utility.yul\":22225:22234   */\n      dup4\n        /* \"#utility.yul\":22221:22239   */\n      add\n        /* \"#utility.yul\":22214:22262   */\n      mstore\n        /* \"#utility.yul\":22279:22407   */\n      tag_669\n        /* \"#utility.yul\":22402:22406   */\n      dup2\n        /* \"#utility.yul\":22393:22399   */\n      dup5\n        /* \"#utility.yul\":22279:22407   */\n      tag_551\n      jump\t// in\n    tag_669:\n        /* \"#utility.yul\":22271:22407   */\n      swap1\n      pop\n        /* \"#utility.yul\":21488:22414   */\n      swap6\n      swap5\n      pop\n      pop\n      pop\n      pop\n      pop\n      jump\t// out\n        /* \"#utility.yul\":22420:22839   */\n    tag_368:\n        /* \"#utility.yul\":22586:22590   */\n      0x00\n        /* \"#utility.yul\":22624:22626   */\n      0x20\n        /* \"#utility.yul\":22613:22622   */\n      dup3\n        /* \"#utility.yul\":22609:22627   */\n      add\n        /* \"#utility.yul\":22601:22627   */\n      swap1\n      pop\n        /* \"#utility.yul\":22673:22682   */\n      dup2\n        /* \"#utility.yul\":22667:22671   */\n      dup2\n        /* \"#utility.yul\":22663:22683   */\n      sub\n        /* \"#utility.yul\":22659:22660   */\n      0x00\n        /* \"#utility.yul\":22648:22657   */\n      dup4\n        /* \"#utility.yul\":22644:22661   */\n      add\n        /* \"#utility.yul\":22637:22684   */\n      mstore\n        /* \"#utility.yul\":22701:22832   */\n      tag_671\n        /* \"#utility.yul\":22827:22831   */\n      dup2\n        /* \"#utility.yul\":22701:22832   */\n      tag_605\n      jump\t// in\n    tag_671:\n        /* \"#utility.yul\":22693:22832   */\n      swap1\n      pop\n        /* \"#utility.yul\":22420:22839   */\n      swap2\n      swap1\n      pop\n      jump\t// out\n        /* \"#utility.yul\":22845:23264   */\n    tag_247:\n        /* \"#utility.yul\":23011:23015   */\n      0x00\n        /* \"#utility.yul\":23049:23051   */\n      0x20\n        /* \"#utility.yul\":23038:23047   */\n      dup3\n        /* \"#utility.yul\":23034:23052   */\n      add\n        /* \"#utility.yul\":23026:23052   */\n      swap1\n      pop\n        /* \"#utility.yul\":23098:23107   */\n      dup2\n        /* \"#utility.yul\":23092:23096   */\n      dup2\n        /* \"#utility.yul\":23088:23108   */\n      sub\n        /* \"#utility.yul\":23084:23085   */\n      0x00\n        /* \"#utility.yul\":23073:23082   */\n      dup4\n        /* \"#utility.yul\":23069:23086   */\n      add\n        /* \"#utility.yul\":23062:23109   */\n      mstore\n        /* \"#utility.yul\":23126:23257   */\n      tag_673\n        /* \"#utility.yul\":23252:23256   */\n      dup2\n        /* \"#utility.yul\":23126:23257   */\n      tag_610\n      jump\t// in\n    tag_673:\n        /* \"#utility.yul\":23118:23257   */\n      swap1\n      pop\n        /* \"#utility.yul\":22845:23264   */\n      swap2\n      swap1\n      pop\n      jump\t// out\n        /* \"#utility.yul\":23270:23689   */\n    tag_88:\n        /* \"#utility.yul\":23436:23440   */\n      0x00\n        /* \"#utility.yul\":23474:23476   */\n      0x20\n        /* \"#utility.yul\":23463:23472   */\n      dup3\n        /* \"#utility.yul\":23459:23477   */\n      add\n        /* \"#utility.yul\":23451:23477   */\n      swap1\n      pop\n        /* \"#utility.yul\":23523:23532   */\n      dup2\n        /* \"#utility.yul\":23517:23521   */\n      dup2\n        /* \"#utility.yul\":23513:23533   */\n      sub\n        /* \"#utility.yul\":23509:23510   */\n      0x00\n        /* \"#utility.yul\":23498:23507   */\n      dup4\n        /* \"#utility.yul\":23494:23511   */\n      add\n        /* \"#utility.yul\":23487:23534   */\n      mstore\n        /* \"#utility.yul\":23551:23682   */\n      tag_675\n        /* \"#utility.yul\":23677:23681   */\n      dup2\n        /* \"#utility.yul\":23551:23682   */\n      tag_615\n      jump\t// in\n    tag_675:\n        /* \"#utility.yul\":23543:23682   */\n      swap1\n      pop\n        /* \"#utility.yul\":23270:23689   */\n      swap2\n      swap1\n      pop\n      jump\t// out\n        /* \"#utility.yul\":23695:24114   */\n    tag_138:\n        /* \"#utility.yul\":23861:23865   */\n      0x00\n        /* \"#utility.yul\":23899:23901   */\n      0x20\n        /* \"#utility.yul\":23888:23897   */\n      dup3\n        /* \"#utility.yul\":23884:23902   */\n      add\n        /* \"#utility.yul\":23876:23902   */\n      swap1\n      pop\n        /* \"#utility.yul\":23948:23957   */\n      dup2\n        /* \"#utility.yul\":23942:23946   */\n      dup2\n        /* \"#utility.yul\":23938:23958   */\n      sub\n        /* \"#utility.yul\":23934:23935   */\n      0x00\n        /* \"#utility.yul\":23923:23932   */\n      dup4\n        /* \"#utility.yul\":23919:23936   */\n      add\n        /* \"#utility.yul\":23912:23959   */\n      mstore\n        /* \"#utility.yul\":23976:24107   */\n      tag_677\n        /* \"#utility.yul\":24102:24106   */\n      dup2\n        /* \"#utility.yul\":23976:24107   */\n      tag_620\n      jump\t// in\n    tag_677:\n        /* \"#utility.yul\":23968:24107   */\n      swap1\n      pop\n        /* \"#utility.yul\":23695:24114   */\n      swap2\n      swap1\n      pop\n      jump\t// out\n        /* \"#utility.yul\":24120:24539   */\n    tag_122:\n        /* \"#utility.yul\":24286:24290   */\n      0x00\n        /* \"#utility.yul\":24324:24326   */\n      0x20\n        /* \"#utility.yul\":24313:24322   */\n      dup3\n        /* \"#utility.yul\":24309:24327   */\n      add\n        /* \"#utility.yul\":24301:24327   */\n      swap1\n      pop\n        /* \"#utility.yul\":24373:24382   */\n      dup2\n        /* \"#utility.yul\":24367:24371   */\n      dup2\n        /* \"#utility.yul\":24363:24383   */\n      sub\n        /* \"#utility.yul\":24359:24360   */\n      0x00\n        /* \"#utility.yul\":24348:24357   */\n      dup4\n        /* \"#utility.yul\":24344:24361   */\n      add\n        /* \"#utility.yul\":24337:24384   */\n      mstore\n        /* \"#utility.yul\":24401:24532   */\n      tag_679\n        /* \"#utility.yul\":24527:24531   */\n      dup2\n        /* \"#utility.yul\":24401:24532   */\n      tag_625\n      jump\t// in\n    tag_679:\n        /* \"#utility.yul\":24393:24532   */\n      swap1\n      pop\n        /* \"#utility.yul\":24120:24539   */\n      swap2\n      swap1\n      pop\n      jump\t// out\n        /* \"#utility.yul\":24545:24964   */\n    tag_364:\n        /* \"#utility.yul\":24711:24715   */\n      0x00\n        /* \"#utility.yul\":24749:24751   */\n      0x20\n        /* \"#utility.yul\":24738:24747   */\n      dup3\n        /* \"#utility.yul\":24734:24752   */\n      add\n        /* \"#utility.yul\":24726:24752   */\n      swap1\n      pop\n        /* \"#utility.yul\":24798:24807   */\n      dup2\n        /* \"#utility.yul\":24792:24796   */\n      dup2\n        /* \"#utility.yul\":24788:24808   */\n      sub\n        /* \"#utility.yul\":24784:24785   */\n      0x00\n        /* \"#utility.yul\":24773:24782   */\n      dup4\n        /* \"#utility.yul\":24769:24786   */\n      add\n        /* \"#utility.yul\":24762:24809   */\n      mstore\n        /* \"#utility.yul\":24826:24957   */\n      tag_681\n        /* \"#utility.yul\":24952:24956   */\n      dup2\n        /* \"#utility.yul\":24826:24957   */\n      tag_630\n      jump\t// in\n    tag_681:\n        /* \"#utility.yul\":24818:24957   */\n      swap1\n      pop\n        /* \"#utility.yul\":24545:24964   */\n      swap2\n      swap1\n      pop\n      jump\t// out\n        /* \"#utility.yul\":24970:25389   */\n    tag_150:\n        /* \"#utility.yul\":25136:25140   */\n      0x00\n        /* \"#utility.yul\":25174:25176   */\n      0x20\n        /* \"#utility.yul\":25163:25172   */\n      dup3\n        /* \"#utility.yul\":25159:25177   */\n      add\n        /* \"#utility.yul\":25151:25177   */\n      swap1\n      pop\n        /* \"#utility.yul\":25223:25232   */\n      dup2\n        /* \"#utility.yul\":25217:25221   */\n      dup2\n        /* \"#utility.yul\":25213:25233   */\n      sub\n        /* \"#utility.yul\":25209:25210   */\n      0x00\n        /* \"#utility.yul\":25198:25207   */\n      dup4\n        /* \"#utility.yul\":25194:25211   */\n      add\n        /* \"#utility.yul\":25187:25234   */\n      mstore\n        /* \"#utility.yul\":25251:25382   */\n      tag_683\n        /* \"#utility.yul\":25377:25381   */\n      dup2\n        /* \"#utility.yul\":25251:25382   */\n      tag_635\n      jump\t// in\n    tag_683:\n        /* \"#utility.yul\":25243:25382   */\n      swap1\n      pop\n        /* \"#utility.yul\":24970:25389   */\n      swap2\n      swap1\n      pop\n      jump\t// out\n        /* \"#utility.yul\":25395:25524   */\n    tag_408:\n        /* \"#utility.yul\":25429:25435   */\n      0x00\n        /* \"#utility.yul\":25456:25476   */\n      tag_685\n      tag_686\n      jump\t// in\n    tag_685:\n        /* \"#utility.yul\":25446:25476   */\n      swap1\n      pop\n        /* \"#utility.yul\":25485:25518   */\n      tag_687\n        /* \"#utility.yul\":25513:25517   */\n      dup3\n        /* \"#utility.yul\":25505:25511   */\n      dup3\n        /* \"#utility.yul\":25485:25518   */\n      tag_688\n      jump\t// in\n    tag_687:\n        /* \"#utility.yul\":25395:25524   */\n      swap2\n      swap1\n      pop\n      jump\t// out\n        /* \"#utility.yul\":25530:25605   */\n    tag_686:\n        /* \"#utility.yul\":25563:25569   */\n      0x00\n        /* \"#utility.yul\":25596:25598   */\n      0x40\n        /* \"#utility.yul\":25590:25599   */\n      mload\n        /* \"#utility.yul\":25580:25599   */\n      swap1\n      pop\n        /* \"#utility.yul\":25530:25605   */\n      swap1\n      jump\t// out\n        /* \"#utility.yul\":25611:25919   */\n    tag_407:\n        /* \"#utility.yul\":25673:25677   */\n      0x00\n        /* \"#utility.yul\":25763:25781   */\n      0xffffffffffffffff\n        /* \"#utility.yul\":25755:25761   */\n      dup3\n        /* \"#utility.yul\":25752:25782   */\n      gt\n        /* \"#utility.yul\":25749:25805   */\n      iszero\n      tag_691\n      jumpi\n        /* \"#utility.yul\":25785:25803   */\n      tag_692\n      tag_693\n      jump\t// in\n    tag_692:\n        /* \"#utility.yul\":25749:25805   */\n    tag_691:\n        /* \"#utility.yul\":25823:25852   */\n      tag_694\n        /* \"#utility.yul\":25845:25851   */\n      dup3\n        /* \"#utility.yul\":25823:25852   */\n      tag_591\n      jump\t// in\n    tag_694:\n        /* \"#utility.yul\":25815:25852   */\n      swap1\n      pop\n        /* \"#utility.yul\":25907:25911   */\n      0x20\n        /* \"#utility.yul\":25901:25905   */\n      dup2\n        /* \"#utility.yul\":25897:25912   */\n      add\n        /* \"#utility.yul\":25889:25912   */\n      swap1\n      pop\n        /* \"#utility.yul\":25611:25919   */\n      swap2\n      swap1\n      pop\n      jump\t// out\n        /* \"#utility.yul\":25925:26057   */\n    tag_544:\n        /* \"#utility.yul\":25992:25996   */\n      0x00\n        /* \"#utility.yul\":26015:26018   */\n      dup2\n        /* \"#utility.yul\":26007:26018   */\n      swap1\n      pop\n        /* \"#utility.yul\":26045:26049   */\n      0x20\n        /* \"#utility.yul\":26040:26043   */\n      dup3\n        /* \"#utility.yul\":26036:26050   */\n      add\n        /* \"#utility.yul\":26028:26050   */\n      swap1\n      pop\n        /* \"#utility.yul\":25925:26057   */\n      swap2\n      swap1\n      pop\n      jump\t// out\n        /* \"#utility.yul\":26063:26205   */\n    tag_558:\n        /* \"#utility.yul\":26140:26144   */\n      0x00\n        /* \"#utility.yul\":26163:26166   */\n      dup2\n        /* \"#utility.yul\":26155:26166   */\n      swap1\n      pop\n        /* \"#utility.yul\":26193:26197   */\n      0x20\n        /* \"#utility.yul\":26188:26191   */\n      dup3\n        /* \"#utility.yul\":26184:26198   */\n      add\n        /* \"#utility.yul\":26176:26198   */\n      swap1\n      pop\n        /* \"#utility.yul\":26063:26205   */\n      swap2\n      swap1\n      pop\n      jump\t// out\n        /* \"#utility.yul\":26211:26367   */\n    tag_572:\n        /* \"#utility.yul\":26302:26306   */\n      0x00\n        /* \"#utility.yul\":26325:26328   */\n      dup2\n        /* \"#utility.yul\":26317:26328   */\n      swap1\n      pop\n        /* \"#utility.yul\":26355:26359   */\n      0x20\n        /* \"#utility.yul\":26350:26353   */\n      dup3\n        /* \"#utility.yul\":26346:26360   */\n      add\n        /* \"#utility.yul\":26338:26360   */\n      swap1\n      pop\n        /* \"#utility.yul\":26211:26367   */\n      swap2\n      swap1\n      pop\n      jump\t// out\n        /* \"#utility.yul\":26373:26487   */\n    tag_540:\n        /* \"#utility.yul\":26440:26446   */\n      0x00\n        /* \"#utility.yul\":26474:26479   */\n      dup2\n        /* \"#utility.yul\":26468:26480   */\n      mload\n        /* \"#utility.yul\":26458:26480   */\n      swap1\n      pop\n        /* \"#utility.yul\":26373:26487   */\n      swap2\n      swap1\n      pop\n      jump\t// out\n        /* \"#utility.yul\":26493:26617   */\n    tag_554:\n        /* \"#utility.yul\":26570:26576   */\n      0x00\n        /* \"#utility.yul\":26604:26609   */\n      dup2\n        /* \"#utility.yul\":26598:26610   */\n      mload\n        /* \"#utility.yul\":26588:26610   */\n      swap1\n      pop\n        /* \"#utility.yul\":26493:26617   */\n      swap2\n      swap1\n      pop\n      jump\t// out\n        /* \"#utility.yul\":26623:26761   */\n    tag_568:\n        /* \"#utility.yul\":26714:26720   */\n      0x00\n        /* \"#utility.yul\":26748:26753   */\n      dup2\n        /* \"#utility.yul\":26742:26754   */\n      mload\n        /* \"#utility.yul\":26732:26754   */\n      swap1\n      pop\n        /* \"#utility.yul\":26623:26761   */\n      swap2\n      swap1\n      pop\n      jump\t// out\n        /* \"#utility.yul\":26767:26866   */\n    tag_585:\n        /* \"#utility.yul\":26819:26825   */\n      0x00\n        /* \"#utility.yul\":26853:26858   */\n      dup2\n        /* \"#utility.yul\":26847:26859   */\n      mload\n        /* \"#utility.yul\":26837:26859   */\n      swap1\n      pop\n        /* \"#utility.yul\":26767:26866   */\n      swap2\n      swap1\n      pop\n      jump\t// out\n        /* \"#utility.yul\":26872:26985   */\n    tag_550:\n        /* \"#utility.yul\":26942:26946   */\n      0x00\n        /* \"#utility.yul\":26974:26978   */\n      0x20\n        /* \"#utility.yul\":26969:26972   */\n      dup3\n        /* \"#utility.yul\":26965:26979   */\n      add\n        /* \"#utility.yul\":26957:26979   */\n      swap1\n      pop\n        /* \"#utility.yul\":26872:26985   */\n      swap2\n      swap1\n      pop\n      jump\t// out\n        /* \"#utility.yul\":26991:27114   */\n    tag_564:\n        /* \"#utility.yul\":27071:27075   */\n      0x00\n        /* \"#utility.yul\":27103:27107   */\n      0x20\n        /* \"#utility.yul\":27098:27101   */\n      dup3\n        /* \"#utility.yul\":27094:27108   */\n      add\n        /* \"#utility.yul\":27086:27108   */\n      swap1\n      pop\n        /* \"#utility.yul\":26991:27114   */\n      swap2\n      swap1\n      pop\n      jump\t// out\n        /* \"#utility.yul\":27120:27257   */\n    tag_578:\n        /* \"#utility.yul\":27214:27218   */\n      0x00\n        /* \"#utility.yul\":27246:27250   */\n      0x20\n        /* \"#utility.yul\":27241:27244   */\n      dup3\n        /* \"#utility.yul\":27237:27251   */\n      add\n        /* \"#utility.yul\":27229:27251   */\n      swap1\n      pop\n        /* \"#utility.yul\":27120:27257   */\n      swap2\n      swap1\n      pop\n      jump\t// out\n        /* \"#utility.yul\":27263:27447   */\n    tag_542:\n        /* \"#utility.yul\":27362:27373   */\n      0x00\n        /* \"#utility.yul\":27396:27402   */\n      dup3\n        /* \"#utility.yul\":27391:27394   */\n      dup3\n        /* \"#utility.yul\":27384:27403   */\n      mstore\n        /* \"#utility.yul\":27436:27440   */\n      0x20\n        /* \"#utility.yul\":27431:27434   */\n      dup3\n        /* \"#utility.yul\":27427:27441   */\n      add\n        /* \"#utility.yul\":27412:27441   */\n      swap1\n      pop\n        /* \"#utility.yul\":27263:27447   */\n      swap3\n      swap2\n      pop\n      pop\n      jump\t// out\n        /* \"#utility.yul\":27453:27647   */\n    tag_556:\n        /* \"#utility.yul\":27562:27573   */\n      0x00\n        /* \"#utility.yul\":27596:27602   */\n      dup3\n        /* \"#utility.yul\":27591:27594   */\n      dup3\n        /* \"#utility.yul\":27584:27603   */\n      mstore\n        /* \"#utility.yul\":27636:27640   */\n      0x20\n        /* \"#utility.yul\":27631:27634   */\n      dup3\n        /* \"#utility.yul\":27627:27641   */\n      add\n        /* \"#utility.yul\":27612:27641   */\n      swap1\n      pop\n        /* \"#utility.yul\":27453:27647   */\n      swap3\n      swap2\n      pop\n      pop\n      jump\t// out\n        /* \"#utility.yul\":27653:27861   */\n    tag_570:\n        /* \"#utility.yul\":27776:27787   */\n      0x00\n        /* \"#utility.yul\":27810:27816   */\n      dup3\n        /* \"#utility.yul\":27805:27808   */\n      dup3\n        /* \"#utility.yul\":27798:27817   */\n      mstore\n        /* \"#utility.yul\":27850:27854   */\n      0x20\n        /* \"#utility.yul\":27845:27848   */\n      dup3\n        /* \"#utility.yul\":27841:27855   */\n      add\n        /* \"#utility.yul\":27826:27855   */\n      swap1\n      pop\n        /* \"#utility.yul\":27653:27861   */\n      swap3\n      swap2\n      pop\n      pop\n      jump\t// out\n        /* \"#utility.yul\":27867:28026   */\n    tag_587:\n        /* \"#utility.yul\":27941:27952   */\n      0x00\n        /* \"#utility.yul\":27975:27981   */\n      dup3\n        /* \"#utility.yul\":27970:27973   */\n      dup3\n        /* \"#utility.yul\":27963:27982   */\n      mstore\n        /* \"#utility.yul\":28015:28019   */\n      0x20\n        /* \"#utility.yul\":28010:28013   */\n      dup3\n        /* \"#utility.yul\":28006:28020   */\n      add\n        /* \"#utility.yul\":27991:28020   */\n      swap1\n      pop\n        /* \"#utility.yul\":27867:28026   */\n      swap3\n      swap2\n      pop\n      pop\n      jump\t// out\n        /* \"#utility.yul\":28032:28201   */\n    tag_596:\n        /* \"#utility.yul\":28116:28127   */\n      0x00\n        /* \"#utility.yul\":28150:28156   */\n      dup3\n        /* \"#utility.yul\":28145:28148   */\n      dup3\n        /* \"#utility.yul\":28138:28157   */\n      mstore\n        /* \"#utility.yul\":28190:28194   */\n      0x20\n        /* \"#utility.yul\":28185:28188   */\n      dup3\n        /* \"#utility.yul\":28181:28195   */\n      add\n        /* \"#utility.yul\":28166:28195   */\n      swap1\n      pop\n        /* \"#utility.yul\":28032:28201   */\n      swap3\n      swap2\n      pop\n      pop\n      jump\t// out\n        /* \"#utility.yul\":28207:28355   */\n    tag_603:\n        /* \"#utility.yul\":28309:28320   */\n      0x00\n        /* \"#utility.yul\":28346:28349   */\n      dup2\n        /* \"#utility.yul\":28331:28349   */\n      swap1\n      pop\n        /* \"#utility.yul\":28207:28355   */\n      swap3\n      swap2\n      pop\n      pop\n      jump\t// out\n        /* \"#utility.yul\":28361:28457   */\n    tag_533:\n        /* \"#utility.yul\":28398:28405   */\n      0x00\n        /* \"#utility.yul\":28427:28451   */\n      tag_712\n        /* \"#utility.yul\":28445:28450   */\n      dup3\n        /* \"#utility.yul\":28427:28451   */\n      tag_713\n      jump\t// in\n    tag_712:\n        /* \"#utility.yul\":28416:28451   */\n      swap1\n      pop\n        /* \"#utility.yul\":28361:28457   */\n      swap2\n      swap1\n      pop\n      jump\t// out\n        /* \"#utility.yul\":28463:28567   */\n    tag_714:\n        /* \"#utility.yul\":28508:28515   */\n      0x00\n        /* \"#utility.yul\":28537:28561   */\n      tag_716\n        /* \"#utility.yul\":28555:28560   */\n      dup3\n        /* \"#utility.yul\":28537:28561   */\n      tag_713\n      jump\t// in\n    tag_716:\n        /* \"#utility.yul\":28526:28561   */\n      swap1\n      pop\n        /* \"#utility.yul\":28463:28567   */\n      swap2\n      swap1\n      pop\n      jump\t// out\n        /* \"#utility.yul\":28573:28663   */\n    tag_582:\n        /* \"#utility.yul\":28607:28614   */\n      0x00\n        /* \"#utility.yul\":28650:28655   */\n      dup2\n        /* \"#utility.yul\":28643:28656   */\n      iszero\n        /* \"#utility.yul\":28636:28657   */\n      iszero\n        /* \"#utility.yul\":28625:28657   */\n      swap1\n      pop\n        /* \"#utility.yul\":28573:28663   */\n      swap2\n      swap1\n      pop\n      jump\t// out\n        /* \"#utility.yul\":28669:28745   */\n    tag_718:\n        /* \"#utility.yul\":28705:28712   */\n      0x00\n        /* \"#utility.yul\":28734:28739   */\n      dup2\n        /* \"#utility.yul\":28723:28739   */\n      swap1\n      pop\n        /* \"#utility.yul\":28669:28745   */\n      swap2\n      swap1\n      pop\n      jump\t// out\n        /* \"#utility.yul\":28751:28877   */\n    tag_713:\n        /* \"#utility.yul\":28788:28795   */\n      0x00\n        /* \"#utility.yul\":28828:28870   */\n      0xffffffffffffffffffffffffffffffffffffffff\n        /* \"#utility.yul\":28821:28826   */\n      dup3\n        /* \"#utility.yul\":28817:28871   */\n      and\n        /* \"#utility.yul\":28806:28871   */\n      swap1\n      pop\n        /* \"#utility.yul\":28751:28877   */\n      swap2\n      swap1\n      pop\n      jump\t// out\n        /* \"#utility.yul\":28883:28960   */\n    tag_648:\n        /* \"#utility.yul\":28920:28927   */\n      0x00\n        /* \"#utility.yul\":28949:28954   */\n      dup2\n        /* \"#utility.yul\":28938:28954   */\n      swap1\n      pop\n        /* \"#utility.yul\":28883:28960   */\n      swap2\n      swap1\n      pop\n      jump\t// out\n        /* \"#utility.yul\":28966:29120   */\n    tag_413:\n        /* \"#utility.yul\":29050:29056   */\n      dup3\n        /* \"#utility.yul\":29045:29048   */\n      dup2\n        /* \"#utility.yul\":29040:29043   */\n      dup4\n        /* \"#utility.yul\":29027:29057   */\n      calldatacopy\n        /* \"#utility.yul\":29112:29113   */\n      0x00\n        /* \"#utility.yul\":29103:29109   */\n      dup4\n        /* \"#utility.yul\":29098:29101   */\n      dup4\n        /* \"#utility.yul\":29094:29110   */\n      add\n        /* \"#utility.yul\":29087:29114   */\n      mstore\n        /* \"#utility.yul\":28966:29120   */\n      pop\n      pop\n      pop\n      jump\t// out\n        /* \"#utility.yul\":29126:29433   */\n    tag_589:\n        /* \"#utility.yul\":29194:29195   */\n      0x00\n        /* \"#utility.yul\":29204:29317   */\n    tag_724:\n        /* \"#utility.yul\":29218:29224   */\n      dup4\n        /* \"#utility.yul\":29215:29216   */\n      dup2\n        /* \"#utility.yul\":29212:29225   */\n      lt\n        /* \"#utility.yul\":29204:29317   */\n      iszero\n      tag_726\n      jumpi\n        /* \"#utility.yul\":29303:29304   */\n      dup1\n        /* \"#utility.yul\":29298:29301   */\n      dup3\n        /* \"#utility.yul\":29294:29305   */\n      add\n        /* \"#utility.yul\":29288:29306   */\n      mload\n        /* \"#utility.yul\":29284:29285   */\n      dup2\n        /* \"#utility.yul\":29279:29282   */\n      dup5\n        /* \"#utility.yul\":29275:29286   */\n      add\n        /* \"#utility.yul\":29268:29307   */\n      mstore\n        /* \"#utility.yul\":29240:29242   */\n      0x20\n        /* \"#utility.yul\":29237:29238   */\n      dup2\n        /* \"#utility.yul\":29233:29243   */\n      add\n        /* \"#utility.yul\":29228:29243   */\n      swap1\n      pop\n        /* \"#utility.yul\":29204:29317   */\n      jump(tag_724)\n    tag_726:\n        /* \"#utility.yul\":29335:29341   */\n      dup4\n        /* \"#utility.yul\":29332:29333   */\n      dup2\n        /* \"#utility.yul\":29329:29342   */\n      gt\n        /* \"#utility.yul\":29326:29427   */\n      iszero\n      tag_727\n      jumpi\n        /* \"#utility.yul\":29415:29416   */\n      0x00\n        /* \"#utility.yul\":29406:29412   */\n      dup5\n        /* \"#utility.yul\":29401:29404   */\n      dup5\n        /* \"#utility.yul\":29397:29413   */\n      add\n        /* \"#utility.yul\":29390:29417   */\n      mstore\n        /* \"#utility.yul\":29326:29427   */\n    tag_727:\n        /* \"#utility.yul\":29175:29433   */\n      pop\n        /* \"#utility.yul\":29126:29433   */\n      pop\n      pop\n      pop\n      jump\t// out\n        /* \"#utility.yul\":29439:29759   */\n    tag_91:\n        /* \"#utility.yul\":29483:29489   */\n      0x00\n        /* \"#utility.yul\":29520:29521   */\n      0x02\n        /* \"#utility.yul\":29514:29518   */\n      dup3\n        /* \"#utility.yul\":29510:29522   */\n      div\n        /* \"#utility.yul\":29500:29522   */\n      swap1\n      pop\n        /* \"#utility.yul\":29567:29568   */\n      0x01\n        /* \"#utility.yul\":29561:29565   */\n      dup3\n        /* \"#utility.yul\":29557:29569   */\n      and\n        /* \"#utility.yul\":29588:29606   */\n      dup1\n        /* \"#utility.yul\":29578:29659   */\n      tag_729\n      jumpi\n        /* \"#utility.yul\":29644:29648   */\n      0x7f\n        /* \"#utility.yul\":29636:29642   */\n      dup3\n        /* \"#utility.yul\":29632:29649   */\n      and\n        /* \"#utility.yul\":29622:29649   */\n      swap2\n      pop\n        /* \"#utility.yul\":29578:29659   */\n    tag_729:\n        /* \"#utility.yul\":29706:29708   */\n      0x20\n        /* \"#utility.yul\":29698:29704   */\n      dup3\n        /* \"#utility.yul\":29695:29709   */\n      lt\n        /* \"#utility.yul\":29675:29693   */\n      dup2\n        /* \"#utility.yul\":29672:29710   */\n      eq\n        /* \"#utility.yul\":29669:29753   */\n      iszero\n      tag_730\n      jumpi\n        /* \"#utility.yul\":29725:29743   */\n      tag_731\n      tag_732\n      jump\t// in\n    tag_731:\n        /* \"#utility.yul\":29669:29753   */\n    tag_730:\n        /* \"#utility.yul\":29490:29759   */\n      pop\n        /* \"#utility.yul\":29439:29759   */\n      swap2\n      swap1\n      pop\n      jump\t// out\n        /* \"#utility.yul\":29765:30046   */\n    tag_688:\n        /* \"#utility.yul\":29848:29875   */\n      tag_734\n        /* \"#utility.yul\":29870:29874   */\n      dup3\n        /* \"#utility.yul\":29848:29875   */\n      tag_591\n      jump\t// in\n    tag_734:\n        /* \"#utility.yul\":29840:29846   */\n      dup2\n        /* \"#utility.yul\":29836:29876   */\n      add\n        /* \"#utility.yul\":29978:29984   */\n      dup2\n        /* \"#utility.yul\":29966:29976   */\n      dup2\n        /* \"#utility.yul\":29963:29985   */\n      lt\n        /* \"#utility.yul\":29942:29960   */\n      0xffffffffffffffff\n        /* \"#utility.yul\":29930:29940   */\n      dup3\n        /* \"#utility.yul\":29927:29961   */\n      gt\n        /* \"#utility.yul\":29924:29986   */\n      or\n        /* \"#utility.yul\":29921:30009   */\n      iszero\n      tag_735\n      jumpi\n        /* \"#utility.yul\":29989:30007   */\n      tag_736\n      tag_693\n      jump\t// in\n    tag_736:\n        /* \"#utility.yul\":29921:30009   */\n    tag_735:\n        /* \"#utility.yul\":30029:30039   */\n      dup1\n        /* \"#utility.yul\":30025:30027   */\n      0x40\n        /* \"#utility.yul\":30018:30040   */\n      mstore\n        /* \"#utility.yul\":29808:30046   */\n      pop\n        /* \"#utility.yul\":29765:30046   */\n      pop\n      pop\n      jump\t// out\n        /* \"#utility.yul\":30052:30232   */\n    tag_85:\n        /* \"#utility.yul\":30100:30177   */\n      0x4e487b7100000000000000000000000000000000000000000000000000000000\n        /* \"#utility.yul\":30097:30098   */\n      0x00\n        /* \"#utility.yul\":30090:30178   */\n      mstore\n        /* \"#utility.yul\":30197:30201   */\n      0x21\n        /* \"#utility.yul\":30194:30195   */\n      0x04\n        /* \"#utility.yul\":30187:30202   */\n      mstore\n        /* \"#utility.yul\":30221:30225   */\n      0x24\n        /* \"#utility.yul\":30218:30219   */\n      0x00\n        /* \"#utility.yul\":30211:30226   */\n      revert\n        /* \"#utility.yul\":30238:30418   */\n    tag_732:\n        /* \"#utility.yul\":30286:30363   */\n      0x4e487b7100000000000000000000000000000000000000000000000000000000\n        /* \"#utility.yul\":30283:30284   */\n      0x00\n        /* \"#utility.yul\":30276:30364   */\n      mstore\n        /* \"#utility.yul\":30383:30387   */\n      0x22\n        /* \"#utility.yul\":30380:30381   */\n      0x04\n        /* \"#utility.yul\":30373:30388   */\n      mstore\n        /* \"#utility.yul\":30407:30411   */\n      0x24\n        /* \"#utility.yul\":30404:30405   */\n      0x00\n        /* \"#utility.yul\":30397:30412   */\n      revert\n        /* \"#utility.yul\":30424:30604   */\n    tag_693:\n        /* \"#utility.yul\":30472:30549   */\n      0x4e487b7100000000000000000000000000000000000000000000000000000000\n        /* \"#utility.yul\":30469:30470   */\n      0x00\n        /* \"#utility.yul\":30462:30550   */\n      mstore\n        /* \"#utility.yul\":30569:30573   */\n      0x41\n        /* \"#utility.yul\":30566:30567   */\n      0x04\n        /* \"#utility.yul\":30559:30574   */\n      mstore\n        /* \"#utility.yul\":30593:30597   */\n      0x24\n        /* \"#utility.yul\":30590:30591   */\n      0x00\n        /* \"#utility.yul\":30583:30598   */\n      revert\n        /* \"#utility.yul\":30610:30727   */\n    tag_430:\n        /* \"#utility.yul\":30719:30720   */\n      0x00\n        /* \"#utility.yul\":30716:30717   */\n      dup1\n        /* \"#utility.yul\":30709:30721   */\n      revert\n        /* \"#utility.yul\":30733:30850   */\n    tag_411:\n        /* \"#utility.yul\":30842:30843   */\n      0x00\n        /* \"#utility.yul\":30839:30840   */\n      dup1\n        /* \"#utility.yul\":30832:30844   */\n      revert\n        /* \"#utility.yul\":30856:30973   */\n    tag_447:\n        /* \"#utility.yul\":30965:30966   */\n      0x00\n        /* \"#utility.yul\":30962:30963   */\n      dup1\n        /* \"#utility.yul\":30955:30967   */\n      revert\n        /* \"#utility.yul\":30979:31096   */\n    tag_435:\n        /* \"#utility.yul\":31088:31089   */\n      0x00\n        /* \"#utility.yul\":31085:31086   */\n      dup1\n        /* \"#utility.yul\":31078:31090   */\n      revert\n        /* \"#utility.yul\":31102:31204   */\n    tag_591:\n        /* \"#utility.yul\":31143:31149   */\n      0x00\n        /* \"#utility.yul\":31194:31196   */\n      0x1f\n        /* \"#utility.yul\":31190:31197   */\n      not\n        /* \"#utility.yul\":31185:31187   */\n      0x1f\n        /* \"#utility.yul\":31178:31183   */\n      dup4\n        /* \"#utility.yul\":31174:31188   */\n      add\n        /* \"#utility.yul\":31170:31198   */\n      and\n        /* \"#utility.yul\":31160:31198   */\n      swap1\n      pop\n        /* \"#utility.yul\":31102:31204   */\n      swap2\n      swap1\n      pop\n      jump\t// out\n        /* \"#utility.yul\":31210:31431   */\n    tag_609:\n        /* \"#utility.yul\":31350:31384   */\n      0x596f7572206c6f67696e20616c726561647920657869737420696e2073797374\n        /* \"#utility.yul\":31346:31347   */\n      0x00\n        /* \"#utility.yul\":31338:31344   */\n      dup3\n        /* \"#utility.yul\":31334:31348   */\n      add\n        /* \"#utility.yul\":31327:31385   */\n      mstore\n        /* \"#utility.yul\":31419:31423   */\n      0x656d000000000000000000000000000000000000000000000000000000000000\n        /* \"#utility.yul\":31414:31416   */\n      0x20\n        /* \"#utility.yul\":31406:31412   */\n      dup3\n        /* \"#utility.yul\":31402:31417   */\n      add\n        /* \"#utility.yul\":31395:31424   */\n      mstore\n        /* \"#utility.yul\":31210:31431   */\n      pop\n      jump\t// out\n        /* \"#utility.yul\":31437:31598   */\n    tag_614:\n        /* \"#utility.yul\":31577:31590   */\n      0x4c6f772062616c616e6365000000000000000000000000000000000000000000\n        /* \"#utility.yul\":31573:31574   */\n      0x00\n        /* \"#utility.yul\":31565:31571   */\n      dup3\n        /* \"#utility.yul\":31561:31575   */\n      add\n        /* \"#utility.yul\":31554:31591   */\n      mstore\n        /* \"#utility.yul\":31437:31598   */\n      pop\n      jump\t// out\n        /* \"#utility.yul\":31604:31763   */\n    tag_619:\n        /* \"#utility.yul\":31744:31755   */\n      0x466f7262696464656e0000000000000000000000000000000000000000000000\n        /* \"#utility.yul\":31740:31741   */\n      0x00\n        /* \"#utility.yul\":31732:31738   */\n      dup3\n        /* \"#utility.yul\":31728:31742   */\n      add\n        /* \"#utility.yul\":31721:31756   */\n      mstore\n        /* \"#utility.yul\":31604:31763   */\n      pop\n      jump\t// out\n        /* \"#utility.yul\":31769:31931   */\n    tag_624:\n        /* \"#utility.yul\":31909:31923   */\n      0x596f75206e6f7420757365720000000000000000000000000000000000000000\n        /* \"#utility.yul\":31905:31906   */\n      0x00\n        /* \"#utility.yul\":31897:31903   */\n      dup3\n        /* \"#utility.yul\":31893:31907   */\n      add\n        /* \"#utility.yul\":31886:31924   */\n      mstore\n        /* \"#utility.yul\":31769:31931   */\n      pop\n      jump\t// out\n        /* \"#utility.yul\":31937:32100   */\n    tag_629:\n        /* \"#utility.yul\":32077:32092   */\n      0x596f75206e6f742061646d696e00000000000000000000000000000000000000\n        /* \"#utility.yul\":32073:32074   */\n      0x00\n        /* \"#utility.yul\":32065:32071   */\n      dup3\n        /* \"#utility.yul\":32061:32075   */\n      add\n        /* \"#utility.yul\":32054:32093   */\n      mstore\n        /* \"#utility.yul\":31937:32100   */\n      pop\n      jump\t// out\n        /* \"#utility.yul\":32106:32278   */\n    tag_634:\n        /* \"#utility.yul\":32246:32270   */\n      0x596f7520616c7265616479207265676973746572656400000000000000000000\n        /* \"#utility.yul\":32242:32243   */\n      0x00\n        /* \"#utility.yul\":32234:32240   */\n      dup3\n        /* \"#utility.yul\":32230:32244   */\n      add\n        /* \"#utility.yul\":32223:32271   */\n      mstore\n        /* \"#utility.yul\":32106:32278   */\n      pop\n      jump\t// out\n        /* \"#utility.yul\":32284:32445   */\n    tag_639:\n        /* \"#utility.yul\":32424:32437   */\n      0x57726f6e67204c6f67696e000000000000000000000000000000000000000000\n        /* \"#utility.yul\":32420:32421   */\n      0x00\n        /* \"#utility.yul\":32412:32418   */\n      dup3\n        /* \"#utility.yul\":32408:32422   */\n      add\n        /* \"#utility.yul\":32401:32438   */\n      mstore\n        /* \"#utility.yul\":32284:32445   */\n      pop\n      jump\t// out\n        /* \"#utility.yul\":32451:32573   */\n    tag_417:\n        /* \"#utility.yul\":32524:32548   */\n      tag_753\n        /* \"#utility.yul\":32542:32547   */\n      dup2\n        /* \"#utility.yul\":32524:32548   */\n      tag_533\n      jump\t// in\n    tag_753:\n        /* \"#utility.yul\":32517:32522   */\n      dup2\n        /* \"#utility.yul\":32514:32549   */\n      eq\n        /* \"#utility.yul\":32504:32567   */\n      tag_754\n      jumpi\n        /* \"#utility.yul\":32563:32564   */\n      0x00\n        /* \"#utility.yul\":32560:32561   */\n      dup1\n        /* \"#utility.yul\":32553:32565   */\n      revert\n        /* \"#utility.yul\":32504:32567   */\n    tag_754:\n        /* \"#utility.yul\":32451:32573   */\n      pop\n      jump\t// out\n        /* \"#utility.yul\":32579:32717   */\n    tag_421:\n        /* \"#utility.yul\":32660:32692   */\n      tag_756\n        /* \"#utility.yul\":32686:32691   */\n      dup2\n        /* \"#utility.yul\":32660:32692   */\n      tag_714\n      jump\t// in\n    tag_756:\n        /* \"#utility.yul\":32653:32658   */\n      dup2\n        /* \"#utility.yul\":32650:32693   */\n      eq\n        /* \"#utility.yul\":32640:32711   */\n      tag_757\n      jumpi\n        /* \"#utility.yul\":32707:32708   */\n      0x00\n        /* \"#utility.yul\":32704:32705   */\n      dup1\n        /* \"#utility.yul\":32697:32709   */\n      revert\n        /* \"#utility.yul\":32640:32711   */\n    tag_757:\n        /* \"#utility.yul\":32579:32717   */\n      pop\n      jump\t// out\n        /* \"#utility.yul\":32723:32843   */\n    tag_425:\n        /* \"#utility.yul\":32795:32818   */\n      tag_759\n        /* \"#utility.yul\":32812:32817   */\n      dup2\n        /* \"#utility.yul\":32795:32818   */\n      tag_718\n      jump\t// in\n    tag_759:\n        /* \"#utility.yul\":32788:32793   */\n      dup2\n        /* \"#utility.yul\":32785:32819   */\n      eq\n        /* \"#utility.yul\":32775:32837   */\n      tag_760\n      jumpi\n        /* \"#utility.yul\":32833:32834   */\n      0x00\n        /* \"#utility.yul\":32830:32831   */\n      dup1\n        /* \"#utility.yul\":32823:32835   */\n      revert\n        /* \"#utility.yul\":32775:32837   */\n    tag_760:\n        /* \"#utility.yul\":32723:32843   */\n      pop\n      jump\t// out\n\n    auxdata: 0xa2646970667358221220b7db1fb9bb093cf1411e4d631555d9bafc1e5b24f9db782d140644cc810a362f64736f6c63430008070033\n}\n",
				"bytecode": {
					"linkReferences": {},
					"object": "60806040523480156200001157600080fd5b506040518060400160405280600581526020017f627579657200000000000000000000000000000000000000000000000000000081525060008080815260200190815260200160002090805190602001906200006f92919062000292565b506040518060400160405280600681526020017f73656c6c65720000000000000000000000000000000000000000000000000000815250600080600181526020019081526020016000209080519060200190620000ce92919062000292565b506040518060400160405280600481526020017f73686f70000000000000000000000000000000000000000000000000000000008152506000806002815260200190815260200160002090805190602001906200012d92919062000292565b506040518060400160405280600581526020017f61646d696e0000000000000000000000000000000000000000000000000000008152506000806003815260200190815260200160002090805190602001906200018c92919062000292565b506040518060400160405280600881526020017f70726f7669646572000000000000000000000000000000000000000000000000815250600080600481526020019081526020016000209080519060200190620001eb92919062000292565b506040518060400160405280600481526020017f62616e6b000000000000000000000000000000000000000000000000000000008152506000806005815260200190815260200160002090805190602001906200024a92919062000292565b5033600460006101000a81548173ffffffffffffffffffffffffffffffffffffffff021916908373ffffffffffffffffffffffffffffffffffffffff160217905550620003a7565b828054620002a09062000342565b90600052602060002090601f016020900481019282620002c4576000855562000310565b82601f10620002df57805160ff191683800117855562000310565b8280016001018555821562000310579182015b828111156200030f578251825591602001919060010190620002f2565b5b5090506200031f919062000323565b5090565b5b808211156200033e57600081600090555060010162000324565b5090565b600060028204905060018216806200035b57607f821691505b6020821081141562000372576200037162000378565b5b50919050565b7f4e487b7100000000000000000000000000000000000000000000000000000000600052602260045260246000fd5b613bbf80620003b76000396000f3fe608060405234801561001057600080fd5b50600436106100f55760003560e01c80637ccb2bd8116100975780639d344d10116100665780639d344d1014610266578063a59d105f14610282578063c3d5fd391461029e578063f8f98b79146102bf576100f5565b80637ccb2bd8146101f157806383db0f6d1461020d5780638403f8481461022957806399b958ee14610245576100f5565b80633a7d280c116100d35780633a7d280c1461016657806354504c12146101975780637558b2f8146101b95780637b3c7488146101d5576100f5565b806308e74858146100fa5780632156a7811461012e5780632d6abf591461014a575b600080fd5b610114600480360381019061010f9190612c67565b6102db565b60405161012595949392919061355b565b60405180910390f35b61014860048036038101906101439190612eef565b6107e0565b005b610164600480360381019061015f9190612d4c565b6108a7565b005b610180600480360381019061017b9190612ea6565b610b94565b60405161018e9291906134ca565b60405180910390f35b61019f610f8b565b6040516101b095949392919061355b565b60405180910390f35b6101d360048036038101906101ce9190612deb565b61148e565b005b6101ef60048036038101906101ea9190612ea6565b611609565b005b61020b60048036038101906102069190612eef565b61174e565b005b61022760048036038101906102229190612c94565b611857565b005b610243600480360381019061023e919061304e565b6119a6565b005b61024d611ad4565b60405161025d94939291906135d1565b60405180910390f35b610280600480360381019061027b9190612fc3565b611e89565b005b61029c60048036038101906102979190612cc1565b611eb2565b005b6102a6611fb1565b6040516102b694939291906134fa565b60405180910390f35b6102d960048036038101906102d49190612f4b565b6125ff565b005b60608060608060606003600260003373ffffffffffffffffffffffffffffffffffffffff1673ffffffffffffffffffffffffffffffffffffffff1681526020019081526020016000206000015481600581111561033b5761033a61394d565b5b1461037b576040517f08c379a00000000000000000000000000000000000000000000000000000000081526004016103729061366b565b60405180910390fd5b6000600260008973ffffffffffffffffffffffffffffffffffffffff1673ffffffffffffffffffffffffffffffffffffffff168152602001908152602001600020604051806080016040529081600082015481526020016001820180546103e1906138ea565b80601f016020809104026020016040519081016040528092919081815260200182805461040d906138ea565b801561045a5780601f1061042f5761010080835404028352916020019161045a565b820191906000526020600020905b81548152906001019060200180831161043d57829003601f168201915b50505050508152602001600282018054610473906138ea565b80601f016020809104026020016040519081016040528092919081815260200182805461049f906138ea565b80156104ec5780601f106104c1576101008083540402835291602001916104ec565b820191906000526020600020905b8154815290600101906020018083116104cf57829003601f168201915b5050505050815260200160038201805480602002602001604051908101604052809291908181526020016000905b828210156105c6578382906000526020600020018054610539906138ea565b80601f0160208091040260200160405190810160405280929190818152602001828054610565906138ea565b80156105b25780601f10610587576101008083540402835291602001916105b2565b820191906000526020600020905b81548152906001019060200180831161059557829003601f168201915b50505050508152602001906001019061051a565b505050508152505090506000600b60008a73ffffffffffffffffffffffffffffffffffffffff1673ffffffffffffffffffffffffffffffffffffffff16815260200190815260200160002060009054906101000a900473ffffffffffffffffffffffffffffffffffffffff1690506000600a60008373ffffffffffffffffffffffffffffffffffffffff1673ffffffffffffffffffffffffffffffffffffffff168152602001908152602001600020604051806060016040529081600082018054610690906138ea565b80601f01602080910402602001604051908101604052809291908181526020018280546106bc906138ea565b80156107095780601f106106de57610100808354040283529160200191610709565b820191906000526020600020905b8154815290600101906020018083116106ec57829003601f168201915b50505050508152602001600182018054610722906138ea565b80601f016020809104026020016040519081016040528092919081815260200182805461074e906138ea565b801561079b5780601f106107705761010080835404028352916020019161079b565b820191906000526020600020905b81548152906001019060200180831161077e57829003601f168201915b50505050508152602001600282015481525050905082602001519850826040015197508060200151965080600001519550826060015194505050505091939590929450565b600460009054906101000a900473ffffffffffffffffffffffffffffffffffffffff1673ffffffffffffffffffffffffffffffffffffffff163373ffffffffffffffffffffffffffffffffffffffff1614610870576040517f08c379a0000000000000000000000000000000000000000000000000000000008152600401610867906136ab565b60405180910390fd5b60006005808111156108855761088461394d565b5b90506108a2604051806020016040528060008152508483856126f4565b505050565b61098a600260003373ffffffffffffffffffffffffffffffffffffffff1673ffffffffffffffffffffffffffffffffffffffff16815260200190815260200160002060010180546108f7906138ea565b80601f0160208091040260200160405190810160405280929190818152602001828054610923906138ea565b80156109705780601f1061094557610100808354040283529160200191610970565b820191906000526020600020905b81548152906001019060200180831161095357829003601f168201915b5050505050604051806020016040528060008152506129f8565b156109ca576040517f08c379a00000000000000000000000000000000000000000000000000000000081526004016109c19061368b565b60405180910390fd5b60006040518060c001604052803373ffffffffffffffffffffffffffffffffffffffff1681526020018673ffffffffffffffffffffffffffffffffffffffff1681526020018581526020016000815260200160008152602001838152509050600d60008673ffffffffffffffffffffffffffffffffffffffff1673ffffffffffffffffffffffffffffffffffffffff16815260200190815260200160002083908060018154018082558091505060019003906000526020600020016000909190919091509080519060200190610aa1929190612a51565b5080600e84604051610ab391906134b3565b908152602001604051809103902060008201518160000160006101000a81548173ffffffffffffffffffffffffffffffffffffffff021916908373ffffffffffffffffffffffffffffffffffffffff16021790555060208201518160010160006101000a81548173ffffffffffffffffffffffffffffffffffffffff021916908373ffffffffffffffffffffffffffffffffffffffff1602179055506040820151816002019080519060200190610b6b929190612a51565b50606082015181600301556080820151816004015560a082015181600501559050505050505050565b6000606082600073ffffffffffffffffffffffffffffffffffffffff16600182604051610bc191906134b3565b908152602001604051809103902060009054906101000a900473ffffffffffffffffffffffffffffffffffffffff1673ffffffffffffffffffffffffffffffffffffffff161415610c47576040517f08c379a0000000000000000000000000000000000000000000000000000000008152600401610c3e906136eb565b60405180910390fd5b6000600185604051610c5991906134b3565b908152602001604051809103902060009054906101000a900473ffffffffffffffffffffffffffffffffffffffff1690506000600260008373ffffffffffffffffffffffffffffffffffffffff1673ffffffffffffffffffffffffffffffffffffffff16815260200190815260200160002060405180608001604052908160008201548152602001600182018054610cf0906138ea565b80601f0160208091040260200160405190810160405280929190818152602001828054610d1c906138ea565b8015610d695780601f10610d3e57610100808354040283529160200191610d69565b820191906000526020600020905b815481529060010190602001808311610d4c57829003601f168201915b50505050508152602001600282018054610d82906138ea565b80601f0160208091040260200160405190810160405280929190818152602001828054610dae906138ea565b8015610dfb5780601f10610dd057610100808354040283529160200191610dfb565b820191906000526020600020905b815481529060010190602001808311610dde57829003601f168201915b5050505050815260200160038201805480602002602001604051908101604052809291908181526020016000905b82821015610ed5578382906000526020600020018054610e48906138ea565b80601f0160208091040260200160405190810160405280929190818152602001828054610e74906138ea565b8015610ec15780601f10610e9657610100808354040283529160200191610ec1565b820191906000526020600020905b815481529060010190602001808311610ea457829003601f168201915b505050505081526020019060010190610e29565b50505050815250509050819450600080826000015181526020019081526020016000208054610f03906138ea565b80601f0160208091040260200160405190810160405280929190818152602001828054610f2f906138ea565b8015610f7c5780601f10610f5157610100808354040283529160200191610f7c565b820191906000526020600020905b815481529060010190602001808311610f5f57829003601f168201915b50505050509350505050915091565b60608060608060606001600260003373ffffffffffffffffffffffffffffffffffffffff1673ffffffffffffffffffffffffffffffffffffffff16815260200190815260200160002060000154816005811115610feb57610fea61394d565b5b1461102b576040517f08c379a00000000000000000000000000000000000000000000000000000000081526004016110229061366b565b60405180910390fd5b6000600260003373ffffffffffffffffffffffffffffffffffffffff1673ffffffffffffffffffffffffffffffffffffffff16815260200190815260200160002060405180608001604052908160008201548152602001600182018054611091906138ea565b80601f01602080910402602001604051908101604052809291908181526020018280546110bd906138ea565b801561110a5780601f106110df5761010080835404028352916020019161110a565b820191906000526020600020905b8154815290600101906020018083116110ed57829003601f168201915b50505050508152602001600282018054611123906138ea565b80601f016020809104026020016040519081016040528092919081815260200182805461114f906138ea565b801561119c5780601f106111715761010080835404028352916020019161119c565b820191906000526020600020905b81548152906001019060200180831161117f57829003601f168201915b5050505050815260200160038201805480602002602001604051908101604052809291908181526020016000905b828210156112765783829060005260206000200180546111e9906138ea565b80601f0160208091040260200160405190810160405280929190818152602001828054611215906138ea565b80156112625780601f1061123757610100808354040283529160200191611262565b820191906000526020600020905b81548152906001019060200180831161124557829003601f168201915b5050505050815260200190600101906111ca565b505050508152505090506000600b60003373ffffffffffffffffffffffffffffffffffffffff1673ffffffffffffffffffffffffffffffffffffffff16815260200190815260200160002060009054906101000a900473ffffffffffffffffffffffffffffffffffffffff1690506000600a60008373ffffffffffffffffffffffffffffffffffffffff1673ffffffffffffffffffffffffffffffffffffffff168152602001908152602001600020604051806060016040529081600082018054611340906138ea565b80601f016020809104026020016040519081016040528092919081815260200182805461136c906138ea565b80156113b95780601f1061138e576101008083540402835291602001916113b9565b820191906000526020600020905b81548152906001019060200180831161139c57829003601f168201915b505050505081526020016001820180546113d2906138ea565b80601f01602080910402602001604051908101604052809291908181526020018280546113fe906138ea565b801561144b5780601f106114205761010080835404028352916020019161144b565b820191906000526020600020905b81548152906001019060200180831161142e57829003601f168201915b5050505050815260200160028201548152505090508260200151985082604001519750806020015196508060000151955082606001519450505050509091929394565b6003600260003373ffffffffffffffffffffffffffffffffffffffff1673ffffffffffffffffffffffffffffffffffffffff168152602001908152602001600020600001548160058111156114e6576114e561394d565b5b14611526576040517f08c379a000000000000000000000000000000000000000000000000000000000815260040161151d9061366b565b60405180910390fd5b600060405180606001604052808681526020018581526020016000815250905080600a60008873ffffffffffffffffffffffffffffffffffffffff1673ffffffffffffffffffffffffffffffffffffffff16815260200190815260200160002060008201518160000190805190602001906115a2929190612a51565b5060208201518160010190805190602001906115bf929190612a51565b50604082015181600201559050506000600260058111156115e3576115e261394d565b5b90506116006040518060200160405280600081525085838a6126f4565b50505050505050565b6116ec600260003373ffffffffffffffffffffffffffffffffffffffff1673ffffffffffffffffffffffffffffffffffffffff1681526020019081526020016000206001018054611659906138ea565b80601f0160208091040260200160405190810160405280929190818152602001828054611685906138ea565b80156116d25780601f106116a7576101008083540402835291602001916116d2565b820191906000526020600020905b8154815290600101906020018083116116b557829003601f168201915b5050505050604051806020016040528060008152506129f8565b1561172c576040517f08c379a00000000000000000000000000000000000000000000000000000000081526004016117239061368b565b60405180910390fd5b600e8160405161173c91906134b3565b90815260200160405180910390205050565b600460009054906101000a900473ffffffffffffffffffffffffffffffffffffffff1673ffffffffffffffffffffffffffffffffffffffff163373ffffffffffffffffffffffffffffffffffffffff16146117de576040517f08c379a00000000000000000000000000000000000000000000000000000000081526004016117d5906136ab565b60405180910390fd5b6000600460058111156117f4576117f361394d565b5b9050611811604051806020016040528060008152508483856126f4565b81600360006101000a81548173ffffffffffffffffffffffffffffffffffffffff021916908373ffffffffffffffffffffffffffffffffffffffff160217905550505050565b6005600260003373ffffffffffffffffffffffffffffffffffffffff1673ffffffffffffffffffffffffffffffffffffffff168152602001908152602001600020600001548160058111156118af576118ae61394d565b5b146118ef576040517f08c379a00000000000000000000000000000000000000000000000000000000081526004016118e69061366b565b60405180910390fd5b683635c9adc5dea000003373ffffffffffffffffffffffffffffffffffffffff16311015611952576040517f08c379a00000000000000000000000000000000000000000000000000000000081526004016119499061364b565b60405180910390fd5b8173ffffffffffffffffffffffffffffffffffffffff166108fc683635c9adc5dea000009081150290604051600060405180830381858888f193505050501580156119a1573d6000803e3d6000fd5b505050565b6000600160058111156119bc576119bb61394d565b5b90506119ca858583866126f4565b6007839080600181540180825580915050600190039060005260206000200160009091909190916101000a81548173ffffffffffffffffffffffffffffffffffffffff021916908373ffffffffffffffffffffffffffffffffffffffff160217905550600c60008373ffffffffffffffffffffffffffffffffffffffff1673ffffffffffffffffffffffffffffffffffffffff168152602001908152602001600020839080600181540180825580915050600190039060005260206000200160009091909190916101000a81548173ffffffffffffffffffffffffffffffffffffffff021916908373ffffffffffffffffffffffffffffffffffffffff1602179055505050505050565b60608060006060611bbe600260003373ffffffffffffffffffffffffffffffffffffffff1673ffffffffffffffffffffffffffffffffffffffff1681526020019081526020016000206001018054611b2b906138ea565b80601f0160208091040260200160405190810160405280929190818152602001828054611b57906138ea565b8015611ba45780601f10611b7957610100808354040283529160200191611ba4565b820191906000526020600020905b815481529060010190602001808311611b8757829003601f168201915b5050505050604051806020016040528060008152506129f8565b15611bfe576040517f08c379a0000000000000000000000000000000000000000000000000000000008152600401611bf59061368b565b60405180910390fd5b6000600260003373ffffffffffffffffffffffffffffffffffffffff1673ffffffffffffffffffffffffffffffffffffffff16815260200190815260200160002060405180608001604052908160008201548152602001600182018054611c64906138ea565b80601f0160208091040260200160405190810160405280929190818152602001828054611c90906138ea565b8015611cdd5780601f10611cb257610100808354040283529160200191611cdd565b820191906000526020600020905b815481529060010190602001808311611cc057829003601f168201915b50505050508152602001600282018054611cf6906138ea565b80601f0160208091040260200160405190810160405280929190818152602001828054611d22906138ea565b8015611d6f5780601f10611d4457610100808354040283529160200191611d6f565b820191906000526020600020905b815481529060010190602001808311611d5257829003601f168201915b5050505050815260200160038201805480602002602001604051908101604052809291908181526020016000905b82821015611e49578382906000526020600020018054611dbc906138ea565b80601f0160208091040260200160405190810160405280929190818152602001828054611de8906138ea565b8015611e355780601f10611e0a57610100808354040283529160200191611e35565b820191906000526020600020905b815481529060010190602001808311611e1857829003601f168201915b505050505081526020019060010190611d9d565b5050505081525050905080602001519450806040015193503373ffffffffffffffffffffffffffffffffffffffff16319250806060015191505090919293565b6000806005811115611e9e57611e9d61394d565b5b9050611eac848483856126f4565b50505050565b6003600260003373ffffffffffffffffffffffffffffffffffffffff1673ffffffffffffffffffffffffffffffffffffffff16815260200190815260200160002060000154816005811115611f0a57611f0961394d565b5b14611f4a576040517f08c379a0000000000000000000000000000000000000000000000000000000008152600401611f419061366b565b60405180910390fd5b600060036005811115611f6057611f5f61394d565b5b9050611f6e848483886126f4565b600583908060018154018082558091505060019003906000526020600020016000909190919091509080519060200190611fa9929190612a51565b505050505050565b6060806060806003600260003373ffffffffffffffffffffffffffffffffffffffff1673ffffffffffffffffffffffffffffffffffffffff1681526020019081526020016000206000015481600581111561200f5761200e61394d565b5b1461204f576040517f08c379a00000000000000000000000000000000000000000000000000000000081526004016120469061366b565b60405180910390fd5b6000600260003373ffffffffffffffffffffffffffffffffffffffff1673ffffffffffffffffffffffffffffffffffffffff168152602001908152602001600020604051806080016040529081600082015481526020016001820180546120b5906138ea565b80601f01602080910402602001604051908101604052809291908181526020018280546120e1906138ea565b801561212e5780601f106121035761010080835404028352916020019161212e565b820191906000526020600020905b81548152906001019060200180831161211157829003601f168201915b50505050508152602001600282018054612147906138ea565b80601f0160208091040260200160405190810160405280929190818152602001828054612173906138ea565b80156121c05780601f10612195576101008083540402835291602001916121c0565b820191906000526020600020905b8154815290600101906020018083116121a357829003601f168201915b5050505050815260200160038201805480602002602001604051908101604052809291908181526020016000905b8282101561229a57838290600052602060002001805461220d906138ea565b80601f0160208091040260200160405190810160405280929190818152602001828054612239906138ea565b80156122865780601f1061225b57610100808354040283529160200191612286565b820191906000526020600020905b81548152906001019060200180831161226957829003601f168201915b5050505050815260200190600101906121ee565b50505050815250509050806020015195506009805480602002602001604051908101604052809291908181526020016000905b8282101561249457838290600052602060002090600402016040518060800160405290816000820160009054906101000a900473ffffffffffffffffffffffffffffffffffffffff1673ffffffffffffffffffffffffffffffffffffffff1673ffffffffffffffffffffffffffffffffffffffff168152602001600182018054612356906138ea565b80601f0160208091040260200160405190810160405280929190818152602001828054612382906138ea565b80156123cf5780601f106123a4576101008083540402835291602001916123cf565b820191906000526020600020905b8154815290600101906020018083116123b257829003601f168201915b505050505081526020016002820180546123e8906138ea565b80601f0160208091040260200160405190810160405280929190818152602001828054612414906138ea565b80156124615780601f1061243657610100808354040283529160200191612461565b820191906000526020600020905b81548152906001019060200180831161244457829003601f168201915b505050505081526020016003820160009054906101000a900460ff161515151581525050815260200190600101906122cd565b5050505094506005805480602002602001604051908101604052809291908181526020016000905b828210156125685783829060005260206000200180546124db906138ea565b80601f0160208091040260200160405190810160405280929190818152602001828054612507906138ea565b80156125545780601f1061252957610100808354040283529160200191612554565b820191906000526020600020905b81548152906001019060200180831161253757829003601f168201915b5050505050815260200190600101906124bc565b50505050935060078054806020026020016040519081016040528092919081815260200182805480156125f057602002820191906000526020600020905b8160009054906101000a900473ffffffffffffffffffffffffffffffffffffffff1673ffffffffffffffffffffffffffffffffffffffff16815260200190600101908083116125a6575b50505050509250505090919293565b600460009054906101000a900473ffffffffffffffffffffffffffffffffffffffff1673ffffffffffffffffffffffffffffffffffffffff163373ffffffffffffffffffffffffffffffffffffffff161461268f576040517f08c379a0000000000000000000000000000000000000000000000000000000008152600401612686906136ab565b60405180910390fd5b6000600360058111156126a5576126a461394d565b5b90506126b3838383336126f4565b6005829080600181540180825580915050600190039060005260206000200160009091909190915090805190602001906126ee929190612a51565b50505050565b80836127d9600260008473ffffffffffffffffffffffffffffffffffffffff1673ffffffffffffffffffffffffffffffffffffffff1681526020019081526020016000206002018054612746906138ea565b80601f0160208091040260200160405190810160405280929190818152602001828054612772906138ea565b80156127bf5780601f10612794576101008083540402835291602001916127bf565b820191906000526020600020905b8154815290600101906020018083116127a257829003601f168201915b5050505050604051806020016040528060008152506129f8565b15612819576040517f08c379a0000000000000000000000000000000000000000000000000000000008152600401612810906136cb565b60405180910390fd5b600073ffffffffffffffffffffffffffffffffffffffff1660018260405161284191906134b3565b908152602001604051809103902060009054906101000a900473ffffffffffffffffffffffffffffffffffffffff1673ffffffffffffffffffffffffffffffffffffffff16146128c6576040517f08c379a00000000000000000000000000000000000000000000000000000000081526004016128bd9061362b565b60405180910390fd5b606060006040518060800160405280878152602001888152602001898152602001838152509050846001886040516128fe91906134b3565b908152602001604051809103902060006101000a81548173ffffffffffffffffffffffffffffffffffffffff021916908373ffffffffffffffffffffffffffffffffffffffff16021790555080600260008773ffffffffffffffffffffffffffffffffffffffff1673ffffffffffffffffffffffffffffffffffffffff1681526020019081526020016000206000820151816000015560208201518160010190805190602001906129b0929190612a51565b5060408201518160020190805190602001906129cd929190612a51565b5060608201518160030190805190602001906129ea929190612ad7565b509050505050505050505050565b600081604051602001612a0b91906134b3565b6040516020818303038152906040528051906020012083604051602001612a3291906134b3565b6040516020818303038152906040528051906020012014905092915050565b828054612a5d906138ea565b90600052602060002090601f016020900481019282612a7f5760008555612ac6565b82601f10612a9857805160ff1916838001178555612ac6565b82800160010185558215612ac6579182015b82811115612ac5578251825591602001919060010190612aaa565b5b509050612ad39190612b37565b5090565b828054828255906000526020600020908101928215612b26579160200282015b82811115612b25578251829080519060200190612b15929190612a51565b5091602001919060010190612af7565b5b509050612b339190612b54565b5090565b5b80821115612b50576000816000905550600101612b38565b5090565b5b80821115612b745760008181612b6b9190612b78565b50600101612b55565b5090565b508054612b84906138ea565b6000825580601f10612b965750612bb5565b601f016020900490600052602060002090810190612bb49190612b37565b5b50565b6000612bcb612bc684613730565b61370b565b905082815260208101848484011115612be757612be66139df565b5b612bf28482856138a8565b509392505050565b600081359050612c0981613b44565b92915050565b600081359050612c1e81613b5b565b92915050565b600081359050612c3381613b72565b92915050565b600082601f830112612c4e57612c4d6139da565b5b8135612c5e848260208601612bb8565b91505092915050565b600060208284031215612c7d57612c7c6139e9565b5b6000612c8b84828501612bfa565b91505092915050565b600060208284031215612caa57612ca96139e9565b5b6000612cb884828501612c0f565b91505092915050565b600080600060608486031215612cda57612cd96139e9565b5b6000612ce886828701612bfa565b935050602084013567ffffffffffffffff811115612d0957612d086139e4565b5b612d1586828701612c39565b925050604084013567ffffffffffffffff811115612d3657612d356139e4565b5b612d4286828701612c39565b9150509250925092565b60008060008060808587031215612d6657612d656139e9565b5b6000612d7487828801612bfa565b945050602085013567ffffffffffffffff811115612d9557612d946139e4565b5b612da187828801612c39565b935050604085013567ffffffffffffffff811115612dc257612dc16139e4565b5b612dce87828801612c39565b9250506060612ddf87828801612c24565b91505092959194509250565b60008060008060808587031215612e0557612e046139e9565b5b6000612e1387828801612bfa565b945050602085013567ffffffffffffffff811115612e3457612e336139e4565b5b612e4087828801612c39565b935050604085013567ffffffffffffffff811115612e6157612e606139e4565b5b612e6d87828801612c39565b925050606085013567ffffffffffffffff811115612e8e57612e8d6139e4565b5b612e9a87828801612c39565b91505092959194509250565b600060208284031215612ebc57612ebb6139e9565b5b600082013567ffffffffffffffff811115612eda57612ed96139e4565b5b612ee684828501612c39565b91505092915050565b60008060408385031215612f0657612f056139e9565b5b600083013567ffffffffffffffff811115612f2457612f236139e4565b5b612f3085828601612c39565b9250506020612f4185828601612bfa565b9150509250929050565b60008060408385031215612f6257612f616139e9565b5b600083013567ffffffffffffffff811115612f8057612f7f6139e4565b5b612f8c85828601612c39565b925050602083013567ffffffffffffffff811115612fad57612fac6139e4565b5b612fb985828601612c39565b9150509250929050565b600080600060608486031215612fdc57612fdb6139e9565b5b600084013567ffffffffffffffff811115612ffa57612ff96139e4565b5b61300686828701612c39565b935050602084013567ffffffffffffffff811115613027576130266139e4565b5b61303386828701612c39565b925050604061304486828701612bfa565b9150509250925092565b60008060008060808587031215613068576130676139e9565b5b600085013567ffffffffffffffff811115613086576130856139e4565b5b61309287828801612c39565b945050602085013567ffffffffffffffff8111156130b3576130b26139e4565b5b6130bf87828801612c39565b93505060406130d087828801612bfa565b92505060606130e187828801612bfa565b91505092959194509250565b60006130f9838361312d565b60208301905092915050565b600061311183836132a2565b905092915050565b6000613125838361343a565b905092915050565b61313681613844565b82525050565b61314581613844565b82525050565b600061315682613791565b61316081856137e4565b935061316b83613761565b8060005b8381101561319c57815161318388826130ed565b975061318e836137bd565b92505060018101905061316f565b5085935050505092915050565b60006131b48261379c565b6131be81856137f5565b9350836020820285016131d085613771565b8060005b8581101561320c57848403895281516131ed8582613105565b94506131f8836137ca565b925060208a019950506001810190506131d4565b50829750879550505050505092915050565b6000613229826137a7565b6132338185613806565b93508360208202850161324585613781565b8060005b8581101561328157848403895281516132628582613119565b945061326d836137d7565b925060208a01995050600181019050613249565b50829750879550505050505092915050565b61329c81613868565b82525050565b60006132ad826137b2565b6132b78185613817565b93506132c78185602086016138b7565b6132d0816139ee565b840191505092915050565b60006132e6826137b2565b6132f08185613828565b93506133008185602086016138b7565b613309816139ee565b840191505092915050565b600061331f826137b2565b6133298185613839565b93506133398185602086016138b7565b80840191505092915050565b6000613352602283613828565b915061335d826139ff565b604082019050919050565b6000613375600b83613828565b915061338082613a4e565b602082019050919050565b6000613398600983613828565b91506133a382613a77565b602082019050919050565b60006133bb600c83613828565b91506133c682613aa0565b602082019050919050565b60006133de600d83613828565b91506133e982613ac9565b602082019050919050565b6000613401601683613828565b915061340c82613af2565b602082019050919050565b6000613424600b83613828565b915061342f82613b1b565b602082019050919050565b6000608083016000830151613452600086018261312d565b506020830151848203602086015261346a82826132a2565b9150506040830151848203604086015261348482826132a2565b91505060608301516134996060860182613293565b508091505092915050565b6134ad8161389e565b82525050565b60006134bf8284613314565b915081905092915050565b60006040820190506134df600083018561313c565b81810360208301526134f181846132db565b90509392505050565b6000608082019050818103600083015261351481876132db565b90508181036020830152613528818661321e565b9050818103604083015261353c81856131a9565b90508181036060830152613550818461314b565b905095945050505050565b600060a082019050818103600083015261357581886132db565b9050818103602083015261358981876132db565b9050818103604083015261359d81866132db565b905081810360608301526135b181856132db565b905081810360808301526135c581846131a9565b90509695505050505050565b600060808201905081810360008301526135eb81876132db565b905081810360208301526135ff81866132db565b905061360e60408301856134a4565b818103606083015261362081846131a9565b905095945050505050565b6000602082019050818103600083015261364481613345565b9050919050565b6000602082019050818103600083015261366481613368565b9050919050565b600060208201905081810360008301526136848161338b565b9050919050565b600060208201905081810360008301526136a4816133ae565b9050919050565b600060208201905081810360008301526136c4816133d1565b9050919050565b600060208201905081810360008301526136e4816133f4565b9050919050565b6000602082019050818103600083015261370481613417565b9050919050565b6000613715613726565b9050613721828261391c565b919050565b6000604051905090565b600067ffffffffffffffff82111561374b5761374a6139ab565b5b613754826139ee565b9050602081019050919050565b6000819050602082019050919050565b6000819050602082019050919050565b6000819050602082019050919050565b600081519050919050565b600081519050919050565b600081519050919050565b600081519050919050565b6000602082019050919050565b6000602082019050919050565b6000602082019050919050565b600082825260208201905092915050565b600082825260208201905092915050565b600082825260208201905092915050565b600082825260208201905092915050565b600082825260208201905092915050565b600081905092915050565b600061384f8261387e565b9050919050565b60006138618261387e565b9050919050565b60008115159050919050565b6000819050919050565b600073ffffffffffffffffffffffffffffffffffffffff82169050919050565b6000819050919050565b82818337600083830152505050565b60005b838110156138d55780820151818401526020810190506138ba565b838111156138e4576000848401525b50505050565b6000600282049050600182168061390257607f821691505b602082108114156139165761391561397c565b5b50919050565b613925826139ee565b810181811067ffffffffffffffff82111715613944576139436139ab565b5b80604052505050565b7f4e487b7100000000000000000000000000000000000000000000000000000000600052602160045260246000fd5b7f4e487b7100000000000000000000000000000000000000000000000000000000600052602260045260246000fd5b7f4e487b7100000000000000000000000000000000000000000000000000000000600052604160045260246000fd5b600080fd5b600080fd5b600080fd5b600080fd5b6000601f19601f8301169050919050565b7f596f7572206c6f67696e20616c726561647920657869737420696e207379737460008201527f656d000000000000000000000000000000000000000000000000000000000000602082015250565b7f4c6f772062616c616e6365000000000000000000000000000000000000000000600082015250565b7f466f7262696464656e0000000000000000000000000000000000000000000000600082015250565b7f596f75206e6f7420757365720000000000000000000000000000000000000000600082015250565b7f596f75206e6f742061646d696e00000000000000000000000000000000000000600082015250565b7f596f7520616c7265616479207265676973746572656400000000000000000000600082015250565b7f57726f6e67204c6f67696e000000000000000000000000000000000000000000600082015250565b613b4d81613844565b8114613b5857600080fd5b50565b613b6481613856565b8114613b6f57600080fd5b50565b613b7b81613874565b8114613b8657600080fd5b5056fea2646970667358221220b7db1fb9bb093cf1411e4d631555d9bafc1e5b24f9db782d140644cc810a362f64736f6c63430008070033",
					"opcodes": "PUSH1 0x80 PUSH1 0x40 MSTORE CALLVALUE DUP1 ISZERO PUSH3 0x11 JUMPI PUSH1 0x0 DUP1 REVERT JUMPDEST POP PUSH1 0x40 MLOAD DUP1 PUSH1 0x40 ADD PUSH1 0x40 MSTORE DUP1 PUSH1 0x5 DUP2 MSTORE PUSH1 0x20 ADD PUSH32 0x6275796572000000000000000000000000000000000000000000000000000000 DUP2 MSTORE POP PUSH1 0x0 DUP1 DUP1 DUP2 MSTORE PUSH1 0x20 ADD SWAP1 DUP2 MSTORE PUSH1 0x20 ADD PUSH1 0x0 KECCAK256 SWAP1 DUP1 MLOAD SWAP1 PUSH1 0x20 ADD SWAP1 PUSH3 0x6F SWAP3 SWAP2 SWAP1 PUSH3 0x292 JUMP JUMPDEST POP PUSH1 0x40 MLOAD DUP1 PUSH1 0x40 ADD PUSH1 0x40 MSTORE DUP1 PUSH1 0x6 DUP2 MSTORE PUSH1 0x20 ADD PUSH32 0x73656C6C65720000000000000000000000000000000000000000000000000000 DUP2 MSTORE POP PUSH1 0x0 DUP1 PUSH1 0x1 DUP2 MSTORE PUSH1 0x20 ADD SWAP1 DUP2 MSTORE PUSH1 0x20 ADD PUSH1 0x0 KECCAK256 SWAP1 DUP1 MLOAD SWAP1 PUSH1 0x20 ADD SWAP1 PUSH3 0xCE SWAP3 SWAP2 SWAP1 PUSH3 0x292 JUMP JUMPDEST POP PUSH1 0x40 MLOAD DUP1 PUSH1 0x40 ADD PUSH1 0x40 MSTORE DUP1 PUSH1 0x4 DUP2 MSTORE PUSH1 0x20 ADD PUSH32 0x73686F7000000000000000000000000000000000000000000000000000000000 DUP2 MSTORE POP PUSH1 0x0 DUP1 PUSH1 0x2 DUP2 MSTORE PUSH1 0x20 ADD SWAP1 DUP2 MSTORE PUSH1 0x20 ADD PUSH1 0x0 KECCAK256 SWAP1 DUP1 MLOAD SWAP1 PUSH1 0x20 ADD SWAP1 PUSH3 0x12D SWAP3 SWAP2 SWAP1 PUSH3 0x292 JUMP JUMPDEST POP PUSH1 0x40 MLOAD DUP1 PUSH1 0x40 ADD PUSH1 0x40 MSTORE DUP1 PUSH1 0x5 DUP2 MSTORE PUSH1 0x20 ADD PUSH32 0x61646D696E000000000000000000000000000000000000000000000000000000 DUP2 MSTORE POP PUSH1 0x0 DUP1 PUSH1 0x3 DUP2 MSTORE PUSH1 0x20 ADD SWAP1 DUP2 MSTORE PUSH1 0x20 ADD PUSH1 0x0 KECCAK256 SWAP1 DUP1 MLOAD SWAP1 PUSH1 0x20 ADD SWAP1 PUSH3 0x18C SWAP3 SWAP2 SWAP1 PUSH3 0x292 JUMP JUMPDEST POP PUSH1 0x40 MLOAD DUP1 PUSH1 0x40 ADD PUSH1 0x40 MSTORE DUP1 PUSH1 0x8 DUP2 MSTORE PUSH1 0x20 ADD PUSH32 0x70726F7669646572000000000000000000000000000000000000000000000000 DUP2 MSTORE POP PUSH1 0x0 DUP1 PUSH1 0x4 DUP2 MSTORE PUSH1 0x20 ADD SWAP1 DUP2 MSTORE PUSH1 0x20 ADD PUSH1 0x0 KECCAK256 SWAP1 DUP1 MLOAD SWAP1 PUSH1 0x20 ADD SWAP1 PUSH3 0x1EB SWAP3 SWAP2 SWAP1 PUSH3 0x292 JUMP JUMPDEST POP PUSH1 0x40 MLOAD DUP1 PUSH1 0x40 ADD PUSH1 0x40 MSTORE DUP1 PUSH1 0x4 DUP2 MSTORE PUSH1 0x20 ADD PUSH32 0x62616E6B00000000000000000000000000000000000000000000000000000000 DUP2 MSTORE POP PUSH1 0x0 DUP1 PUSH1 0x5 DUP2 MSTORE PUSH1 0x20 ADD SWAP1 DUP2 MSTORE PUSH1 0x20 ADD PUSH1 0x0 KECCAK256 SWAP1 DUP1 MLOAD SWAP1 PUSH1 0x20 ADD SWAP1 PUSH3 0x24A SWAP3 SWAP2 SWAP1 PUSH3 0x292 JUMP JUMPDEST POP CALLER PUSH1 0x4 PUSH1 0x0 PUSH2 0x100 EXP DUP2 SLOAD DUP2 PUSH20 0xFFFFFFFFFFFFFFFFFFFFFFFFFFFFFFFFFFFFFFFF MUL NOT AND SWAP1 DUP4 PUSH20 0xFFFFFFFFFFFFFFFFFFFFFFFFFFFFFFFFFFFFFFFF AND MUL OR SWAP1 SSTORE POP PUSH3 0x3A7 JUMP JUMPDEST DUP3 DUP1 SLOAD PUSH3 0x2A0 SWAP1 PUSH3 0x342 JUMP JUMPDEST SWAP1 PUSH1 0x0 MSTORE PUSH1 0x20 PUSH1 0x0 KECCAK256 SWAP1 PUSH1 0x1F ADD PUSH1 0x20 SWAP1 DIV DUP2 ADD SWAP3 DUP3 PUSH3 0x2C4 JUMPI PUSH1 0x0 DUP6 SSTORE PUSH3 0x310 JUMP JUMPDEST DUP3 PUSH1 0x1F LT PUSH3 0x2DF JUMPI DUP1 MLOAD PUSH1 0xFF NOT AND DUP4 DUP1 ADD OR DUP6 SSTORE PUSH3 0x310 JUMP JUMPDEST DUP3 DUP1 ADD PUSH1 0x1 ADD DUP6 SSTORE DUP3 ISZERO PUSH3 0x310 JUMPI SWAP2 DUP3 ADD JUMPDEST DUP3 DUP2 GT ISZERO PUSH3 0x30F JUMPI DUP3 MLOAD DUP3 SSTORE SWAP2 PUSH1 0x20 ADD SWAP2 SWAP1 PUSH1 0x1 ADD SWAP1 PUSH3 0x2F2 JUMP JUMPDEST JUMPDEST POP SWAP1 POP PUSH3 0x31F SWAP2 SWAP1 PUSH3 0x323 JUMP JUMPDEST POP SWAP1 JUMP JUMPDEST JUMPDEST DUP1 DUP3 GT ISZERO PUSH3 0x33E JUMPI PUSH1 0x0 DUP2 PUSH1 0x0 SWAP1 SSTORE POP PUSH1 0x1 ADD PUSH3 0x324 JUMP JUMPDEST POP SWAP1 JUMP JUMPDEST PUSH1 0x0 PUSH1 0x2 DUP3 DIV SWAP1 POP PUSH1 0x1 DUP3 AND DUP1 PUSH3 0x35B JUMPI PUSH1 0x7F DUP3 AND SWAP2 POP JUMPDEST PUSH1 0x20 DUP3 LT DUP2 EQ ISZERO PUSH3 0x372 JUMPI PUSH3 0x371 PUSH3 0x378 JUMP JUMPDEST JUMPDEST POP SWAP2 SWAP1 POP JUMP JUMPDEST PUSH32 0x4E487B7100000000000000000000000000000000000000000000000000000000 PUSH1 0x0 MSTORE PUSH1 0x22 PUSH1 0x4 MSTORE PUSH1 0x24 PUSH1 0x0 REVERT JUMPDEST PUSH2 0x3BBF DUP1 PUSH3 0x3B7 PUSH1 0x0 CODECOPY PUSH1 0x0 RETURN INVALID PUSH1 0x80 PUSH1 0x40 MSTORE CALLVALUE DUP1 ISZERO PUSH2 0x10 JUMPI PUSH1 0x0 DUP1 REVERT JUMPDEST POP PUSH1 0x4 CALLDATASIZE LT PUSH2 0xF5 JUMPI PUSH1 0x0 CALLDATALOAD PUSH1 0xE0 SHR DUP1 PUSH4 0x7CCB2BD8 GT PUSH2 0x97 JUMPI DUP1 PUSH4 0x9D344D10 GT PUSH2 0x66 JUMPI DUP1 PUSH4 0x9D344D10 EQ PUSH2 0x266 JUMPI DUP1 PUSH4 0xA59D105F EQ PUSH2 0x282 JUMPI DUP1 PUSH4 0xC3D5FD39 EQ PUSH2 0x29E JUMPI DUP1 PUSH4 0xF8F98B79 EQ PUSH2 0x2BF JUMPI PUSH2 0xF5 JUMP JUMPDEST DUP1 PUSH4 0x7CCB2BD8 EQ PUSH2 0x1F1 JUMPI DUP1 PUSH4 0x83DB0F6D EQ PUSH2 0x20D JUMPI DUP1 PUSH4 0x8403F848 EQ PUSH2 0x229 JUMPI DUP1 PUSH4 0x99B958EE EQ PUSH2 0x245 JUMPI PUSH2 0xF5 JUMP JUMPDEST DUP1 PUSH4 0x3A7D280C GT PUSH2 0xD3 JUMPI DUP1 PUSH4 0x3A7D280C EQ PUSH2 0x166 JUMPI DUP1 PUSH4 0x54504C12 EQ PUSH2 0x197 JUMPI DUP1 PUSH4 0x7558B2F8 EQ PUSH2 0x1B9 JUMPI DUP1 PUSH4 0x7B3C7488 EQ PUSH2 0x1D5 JUMPI PUSH2 0xF5 JUMP JUMPDEST DUP1 PUSH4 0x8E74858 EQ PUSH2 0xFA JUMPI DUP1 PUSH4 0x2156A781 EQ PUSH2 0x12E JUMPI DUP1 PUSH4 0x2D6ABF59 EQ PUSH2 0x14A JUMPI JUMPDEST PUSH1 0x0 DUP1 REVERT JUMPDEST PUSH2 0x114 PUSH1 0x4 DUP1 CALLDATASIZE SUB DUP2 ADD SWAP1 PUSH2 0x10F SWAP2 SWAP1 PUSH2 0x2C67 JUMP JUMPDEST PUSH2 0x2DB JUMP JUMPDEST PUSH1 0x40 MLOAD PUSH2 0x125 SWAP6 SWAP5 SWAP4 SWAP3 SWAP2 SWAP1 PUSH2 0x355B JUMP JUMPDEST PUSH1 0x40 MLOAD DUP1 SWAP2 SUB SWAP1 RETURN JUMPDEST PUSH2 0x148 PUSH1 0x4 DUP1 CALLDATASIZE SUB DUP2 ADD SWAP1 PUSH2 0x143 SWAP2 SWAP1 PUSH2 0x2EEF JUMP JUMPDEST PUSH2 0x7E0 JUMP JUMPDEST STOP JUMPDEST PUSH2 0x164 PUSH1 0x4 DUP1 CALLDATASIZE SUB DUP2 ADD SWAP1 PUSH2 0x15F SWAP2 SWAP1 PUSH2 0x2D4C JUMP JUMPDEST PUSH2 0x8A7 JUMP JUMPDEST STOP JUMPDEST PUSH2 0x180 PUSH1 0x4 DUP1 CALLDATASIZE SUB DUP2 ADD SWAP1 PUSH2 0x17B SWAP2 SWAP1 PUSH2 0x2EA6 JUMP JUMPDEST PUSH2 0xB94 JUMP JUMPDEST PUSH1 0x40 MLOAD PUSH2 0x18E SWAP3 SWAP2 SWAP1 PUSH2 0x34CA JUMP JUMPDEST PUSH1 0x40 MLOAD DUP1 SWAP2 SUB SWAP1 RETURN JUMPDEST PUSH2 0x19F PUSH2 0xF8B JUMP JUMPDEST PUSH1 0x40 MLOAD PUSH2 0x1B0 SWAP6 SWAP5 SWAP4 SWAP3 SWAP2 SWAP1 PUSH2 0x355B JUMP JUMPDEST PUSH1 0x40 MLOAD DUP1 SWAP2 SUB SWAP1 RETURN JUMPDEST PUSH2 0x1D3 PUSH1 0x4 DUP1 CALLDATASIZE SUB DUP2 ADD SWAP1 PUSH2 0x1CE SWAP2 SWAP1 PUSH2 0x2DEB JUMP JUMPDEST PUSH2 0x148E JUMP JUMPDEST STOP JUMPDEST PUSH2 0x1EF PUSH1 0x4 DUP1 CALLDATASIZE SUB DUP2 ADD SWAP1 PUSH2 0x1EA SWAP2 SWAP1 PUSH2 0x2EA6 JUMP JUMPDEST PUSH2 0x1609 JUMP JUMPDEST STOP JUMPDEST PUSH2 0x20B PUSH1 0x4 DUP1 CALLDATASIZE SUB DUP2 ADD SWAP1 PUSH2 0x206 SWAP2 SWAP1 PUSH2 0x2EEF JUMP JUMPDEST PUSH2 0x174E JUMP JUMPDEST STOP JUMPDEST PUSH2 0x227 PUSH1 0x4 DUP1 CALLDATASIZE SUB DUP2 ADD SWAP1 PUSH2 0x222 SWAP2 SWAP1 PUSH2 0x2C94 JUMP JUMPDEST PUSH2 0x1857 JUMP JUMPDEST STOP JUMPDEST PUSH2 0x243 PUSH1 0x4 DUP1 CALLDATASIZE SUB DUP2 ADD SWAP1 PUSH2 0x23E SWAP2 SWAP1 PUSH2 0x304E JUMP JUMPDEST PUSH2 0x19A6 JUMP JUMPDEST STOP JUMPDEST PUSH2 0x24D PUSH2 0x1AD4 JUMP JUMPDEST PUSH1 0x40 MLOAD PUSH2 0x25D SWAP5 SWAP4 SWAP3 SWAP2 SWAP1 PUSH2 0x35D1 JUMP JUMPDEST PUSH1 0x40 MLOAD DUP1 SWAP2 SUB SWAP1 RETURN JUMPDEST PUSH2 0x280 PUSH1 0x4 DUP1 CALLDATASIZE SUB DUP2 ADD SWAP1 PUSH2 0x27B SWAP2 SWAP1 PUSH2 0x2FC3 JUMP JUMPDEST PUSH2 0x1E89 JUMP JUMPDEST STOP JUMPDEST PUSH2 0x29C PUSH1 0x4 DUP1 CALLDATASIZE SUB DUP2 ADD SWAP1 PUSH2 0x297 SWAP2 SWAP1 PUSH2 0x2CC1 JUMP JUMPDEST PUSH2 0x1EB2 JUMP JUMPDEST STOP JUMPDEST PUSH2 0x2A6 PUSH2 0x1FB1 JUMP JUMPDEST PUSH1 0x40 MLOAD PUSH2 0x2B6 SWAP5 SWAP4 SWAP3 SWAP2 SWAP1 PUSH2 0x34FA JUMP JUMPDEST PUSH1 0x40 MLOAD DUP1 SWAP2 SUB SWAP1 RETURN JUMPDEST PUSH2 0x2D9 PUSH1 0x4 DUP1 CALLDATASIZE SUB DUP2 ADD SWAP1 PUSH2 0x2D4 SWAP2 SWAP1 PUSH2 0x2F4B JUMP JUMPDEST PUSH2 0x25FF JUMP JUMPDEST STOP JUMPDEST PUSH1 0x60 DUP1 PUSH1 0x60 DUP1 PUSH1 0x60 PUSH1 0x3 PUSH1 0x2 PUSH1 0x0 CALLER PUSH20 0xFFFFFFFFFFFFFFFFFFFFFFFFFFFFFFFFFFFFFFFF AND PUSH20 0xFFFFFFFFFFFFFFFFFFFFFFFFFFFFFFFFFFFFFFFF AND DUP2 MSTORE PUSH1 0x20 ADD SWAP1 DUP2 MSTORE PUSH1 0x20 ADD PUSH1 0x0 KECCAK256 PUSH1 0x0 ADD SLOAD DUP2 PUSH1 0x5 DUP2 GT ISZERO PUSH2 0x33B JUMPI PUSH2 0x33A PUSH2 0x394D JUMP JUMPDEST JUMPDEST EQ PUSH2 0x37B JUMPI PUSH1 0x40 MLOAD PUSH32 0x8C379A000000000000000000000000000000000000000000000000000000000 DUP2 MSTORE PUSH1 0x4 ADD PUSH2 0x372 SWAP1 PUSH2 0x366B JUMP JUMPDEST PUSH1 0x40 MLOAD DUP1 SWAP2 SUB SWAP1 REVERT JUMPDEST PUSH1 0x0 PUSH1 0x2 PUSH1 0x0 DUP10 PUSH20 0xFFFFFFFFFFFFFFFFFFFFFFFFFFFFFFFFFFFFFFFF AND PUSH20 0xFFFFFFFFFFFFFFFFFFFFFFFFFFFFFFFFFFFFFFFF AND DUP2 MSTORE PUSH1 0x20 ADD SWAP1 DUP2 MSTORE PUSH1 0x20 ADD PUSH1 0x0 KECCAK256 PUSH1 0x40 MLOAD DUP1 PUSH1 0x80 ADD PUSH1 0x40 MSTORE SWAP1 DUP2 PUSH1 0x0 DUP3 ADD SLOAD DUP2 MSTORE PUSH1 0x20 ADD PUSH1 0x1 DUP3 ADD DUP1 SLOAD PUSH2 0x3E1 SWAP1 PUSH2 0x38EA JUMP JUMPDEST DUP1 PUSH1 0x1F ADD PUSH1 0x20 DUP1 SWAP2 DIV MUL PUSH1 0x20 ADD PUSH1 0x40 MLOAD SWAP1 DUP2 ADD PUSH1 0x40 MSTORE DUP1 SWAP3 SWAP2 SWAP1 DUP2 DUP2 MSTORE PUSH1 0x20 ADD DUP3 DUP1 SLOAD PUSH2 0x40D SWAP1 PUSH2 0x38EA JUMP JUMPDEST DUP1 ISZERO PUSH2 0x45A JUMPI DUP1 PUSH1 0x1F LT PUSH2 0x42F JUMPI PUSH2 0x100 DUP1 DUP4 SLOAD DIV MUL DUP4 MSTORE SWAP2 PUSH1 0x20 ADD SWAP2 PUSH2 0x45A JUMP JUMPDEST DUP3 ADD SWAP2 SWAP1 PUSH1 0x0 MSTORE PUSH1 0x20 PUSH1 0x0 KECCAK256 SWAP1 JUMPDEST DUP2 SLOAD DUP2 MSTORE SWAP1 PUSH1 0x1 ADD SWAP1 PUSH1 0x20 ADD DUP1 DUP4 GT PUSH2 0x43D JUMPI DUP3 SWAP1 SUB PUSH1 0x1F AND DUP3 ADD SWAP2 JUMPDEST POP POP POP POP POP DUP2 MSTORE PUSH1 0x20 ADD PUSH1 0x2 DUP3 ADD DUP1 SLOAD PUSH2 0x473 SWAP1 PUSH2 0x38EA JUMP JUMPDEST DUP1 PUSH1 0x1F ADD PUSH1 0x20 DUP1 SWAP2 DIV MUL PUSH1 0x20 ADD PUSH1 0x40 MLOAD SWAP1 DUP2 ADD PUSH1 0x40 MSTORE DUP1 SWAP3 SWAP2 SWAP1 DUP2 DUP2 MSTORE PUSH1 0x20 ADD DUP3 DUP1 SLOAD PUSH2 0x49F SWAP1 PUSH2 0x38EA JUMP JUMPDEST DUP1 ISZERO PUSH2 0x4EC JUMPI DUP1 PUSH1 0x1F LT PUSH2 0x4C1 JUMPI PUSH2 0x100 DUP1 DUP4 SLOAD DIV MUL DUP4 MSTORE SWAP2 PUSH1 0x20 ADD SWAP2 PUSH2 0x4EC JUMP JUMPDEST DUP3 ADD SWAP2 SWAP1 PUSH1 0x0 MSTORE PUSH1 0x20 PUSH1 0x0 KECCAK256 SWAP1 JUMPDEST DUP2 SLOAD DUP2 MSTORE SWAP1 PUSH1 0x1 ADD SWAP1 PUSH1 0x20 ADD DUP1 DUP4 GT PUSH2 0x4CF JUMPI DUP3 SWAP1 SUB PUSH1 0x1F AND DUP3 ADD SWAP2 JUMPDEST POP POP POP POP POP DUP2 MSTORE PUSH1 0x20 ADD PUSH1 0x3 DUP3 ADD DUP1 SLOAD DUP1 PUSH1 0x20 MUL PUSH1 0x20 ADD PUSH1 0x40 MLOAD SWAP1 DUP2 ADD PUSH1 0x40 MSTORE DUP1 SWAP3 SWAP2 SWAP1 DUP2 DUP2 MSTORE PUSH1 0x20 ADD PUSH1 0x0 SWAP1 JUMPDEST DUP3 DUP3 LT ISZERO PUSH2 0x5C6 JUMPI DUP4 DUP3 SWAP1 PUSH1 0x0 MSTORE PUSH1 0x20 PUSH1 0x0 KECCAK256 ADD DUP1 SLOAD PUSH2 0x539 SWAP1 PUSH2 0x38EA JUMP JUMPDEST DUP1 PUSH1 0x1F ADD PUSH1 0x20 DUP1 SWAP2 DIV MUL PUSH1 0x20 ADD PUSH1 0x40 MLOAD SWAP1 DUP2 ADD PUSH1 0x40 MSTORE DUP1 SWAP3 SWAP2 SWAP1 DUP2 DUP2 MSTORE PUSH1 0x20 ADD DUP3 DUP1 SLOAD PUSH2 0x565 SWAP1 PUSH2 0x38EA JUMP JUMPDEST DUP1 ISZERO PUSH2 0x5B2 JUMPI DUP1 PUSH1 0x1F LT PUSH2 0x587 JUMPI PUSH2 0x100 DUP1 DUP4 SLOAD DIV MUL DUP4 MSTORE SWAP2 PUSH1 0x20 ADD SWAP2 PUSH2 0x5B2 JUMP JUMPDEST DUP3 ADD SWAP2 SWAP1 PUSH1 0x0 MSTORE PUSH1 0x20 PUSH1 0x0 KECCAK256 SWAP1 JUMPDEST DUP2 SLOAD DUP2 MSTORE SWAP1 PUSH1 0x1 ADD SWAP1 PUSH1 0x20 ADD DUP1 DUP4 GT PUSH2 0x595 JUMPI DUP3 SWAP1 SUB PUSH1 0x1F AND DUP3 ADD SWAP2 JUMPDEST POP POP POP POP POP DUP2 MSTORE PUSH1 0x20 ADD SWAP1 PUSH1 0x1 ADD SWAP1 PUSH2 0x51A JUMP JUMPDEST POP POP POP POP DUP2 MSTORE POP POP SWAP1 POP PUSH1 0x0 PUSH1 0xB PUSH1 0x0 DUP11 PUSH20 0xFFFFFFFFFFFFFFFFFFFFFFFFFFFFFFFFFFFFFFFF AND PUSH20 0xFFFFFFFFFFFFFFFFFFFFFFFFFFFFFFFFFFFFFFFF AND DUP2 MSTORE PUSH1 0x20 ADD SWAP1 DUP2 MSTORE PUSH1 0x20 ADD PUSH1 0x0 KECCAK256 PUSH1 0x0 SWAP1 SLOAD SWAP1 PUSH2 0x100 EXP SWAP1 DIV PUSH20 0xFFFFFFFFFFFFFFFFFFFFFFFFFFFFFFFFFFFFFFFF AND SWAP1 POP PUSH1 0x0 PUSH1 0xA PUSH1 0x0 DUP4 PUSH20 0xFFFFFFFFFFFFFFFFFFFFFFFFFFFFFFFFFFFFFFFF AND PUSH20 0xFFFFFFFFFFFFFFFFFFFFFFFFFFFFFFFFFFFFFFFF AND DUP2 MSTORE PUSH1 0x20 ADD SWAP1 DUP2 MSTORE PUSH1 0x20 ADD PUSH1 0x0 KECCAK256 PUSH1 0x40 MLOAD DUP1 PUSH1 0x60 ADD PUSH1 0x40 MSTORE SWAP1 DUP2 PUSH1 0x0 DUP3 ADD DUP1 SLOAD PUSH2 0x690 SWAP1 PUSH2 0x38EA JUMP JUMPDEST DUP1 PUSH1 0x1F ADD PUSH1 0x20 DUP1 SWAP2 DIV MUL PUSH1 0x20 ADD PUSH1 0x40 MLOAD SWAP1 DUP2 ADD PUSH1 0x40 MSTORE DUP1 SWAP3 SWAP2 SWAP1 DUP2 DUP2 MSTORE PUSH1 0x20 ADD DUP3 DUP1 SLOAD PUSH2 0x6BC SWAP1 PUSH2 0x38EA JUMP JUMPDEST DUP1 ISZERO PUSH2 0x709 JUMPI DUP1 PUSH1 0x1F LT PUSH2 0x6DE JUMPI PUSH2 0x100 DUP1 DUP4 SLOAD DIV MUL DUP4 MSTORE SWAP2 PUSH1 0x20 ADD SWAP2 PUSH2 0x709 JUMP JUMPDEST DUP3 ADD SWAP2 SWAP1 PUSH1 0x0 MSTORE PUSH1 0x20 PUSH1 0x0 KECCAK256 SWAP1 JUMPDEST DUP2 SLOAD DUP2 MSTORE SWAP1 PUSH1 0x1 ADD SWAP1 PUSH1 0x20 ADD DUP1 DUP4 GT PUSH2 0x6EC JUMPI DUP3 SWAP1 SUB PUSH1 0x1F AND DUP3 ADD SWAP2 JUMPDEST POP POP POP POP POP DUP2 MSTORE PUSH1 0x20 ADD PUSH1 0x1 DUP3 ADD DUP1 SLOAD PUSH2 0x722 SWAP1 PUSH2 0x38EA JUMP JUMPDEST DUP1 PUSH1 0x1F ADD PUSH1 0x20 DUP1 SWAP2 DIV MUL PUSH1 0x20 ADD PUSH1 0x40 MLOAD SWAP1 DUP2 ADD PUSH1 0x40 MSTORE DUP1 SWAP3 SWAP2 SWAP1 DUP2 DUP2 MSTORE PUSH1 0x20 ADD DUP3 DUP1 SLOAD PUSH2 0x74E SWAP1 PUSH2 0x38EA JUMP JUMPDEST DUP1 ISZERO PUSH2 0x79B JUMPI DUP1 PUSH1 0x1F LT PUSH2 0x770 JUMPI PUSH2 0x100 DUP1 DUP4 SLOAD DIV MUL DUP4 MSTORE SWAP2 PUSH1 0x20 ADD SWAP2 PUSH2 0x79B JUMP JUMPDEST DUP3 ADD SWAP2 SWAP1 PUSH1 0x0 MSTORE PUSH1 0x20 PUSH1 0x0 KECCAK256 SWAP1 JUMPDEST DUP2 SLOAD DUP2 MSTORE SWAP1 PUSH1 0x1 ADD SWAP1 PUSH1 0x20 ADD DUP1 DUP4 GT PUSH2 0x77E JUMPI DUP3 SWAP1 SUB PUSH1 0x1F AND DUP3 ADD SWAP2 JUMPDEST POP POP POP POP POP DUP2 MSTORE PUSH1 0x20 ADD PUSH1 0x2 DUP3 ADD SLOAD DUP2 MSTORE POP POP SWAP1 POP DUP3 PUSH1 0x20 ADD MLOAD SWAP9 POP DUP3 PUSH1 0x40 ADD MLOAD SWAP8 POP DUP1 PUSH1 0x20 ADD MLOAD SWAP7 POP DUP1 PUSH1 0x0 ADD MLOAD SWAP6 POP DUP3 PUSH1 0x60 ADD MLOAD SWAP5 POP POP POP POP POP SWAP2 SWAP4 SWAP6 SWAP1 SWAP3 SWAP5 POP JUMP JUMPDEST PUSH1 0x4 PUSH1 0x0 SWAP1 SLOAD SWAP1 PUSH2 0x100 EXP SWAP1 DIV PUSH20 0xFFFFFFFFFFFFFFFFFFFFFFFFFFFFFFFFFFFFFFFF AND PUSH20 0xFFFFFFFFFFFFFFFFFFFFFFFFFFFFFFFFFFFFFFFF AND CALLER PUSH20 0xFFFFFFFFFFFFFFFFFFFFFFFFFFFFFFFFFFFFFFFF AND EQ PUSH2 0x870 JUMPI PUSH1 0x40 MLOAD PUSH32 0x8C379A000000000000000000000000000000000000000000000000000000000 DUP2 MSTORE PUSH1 0x4 ADD PUSH2 0x867 SWAP1 PUSH2 0x36AB JUMP JUMPDEST PUSH1 0x40 MLOAD DUP1 SWAP2 SUB SWAP1 REVERT JUMPDEST PUSH1 0x0 PUSH1 0x5 DUP1 DUP2 GT ISZERO PUSH2 0x885 JUMPI PUSH2 0x884 PUSH2 0x394D JUMP JUMPDEST JUMPDEST SWAP1 POP PUSH2 0x8A2 PUSH1 0x40 MLOAD DUP1 PUSH1 0x20 ADD PUSH1 0x40 MSTORE DUP1 PUSH1 0x0 DUP2 MSTORE POP DUP5 DUP4 DUP6 PUSH2 0x26F4 JUMP JUMPDEST POP POP POP JUMP JUMPDEST PUSH2 0x98A PUSH1 0x2 PUSH1 0x0 CALLER PUSH20 0xFFFFFFFFFFFFFFFFFFFFFFFFFFFFFFFFFFFFFFFF AND PUSH20 0xFFFFFFFFFFFFFFFFFFFFFFFFFFFFFFFFFFFFFFFF AND DUP2 MSTORE PUSH1 0x20 ADD SWAP1 DUP2 MSTORE PUSH1 0x20 ADD PUSH1 0x0 KECCAK256 PUSH1 0x1 ADD DUP1 SLOAD PUSH2 0x8F7 SWAP1 PUSH2 0x38EA JUMP JUMPDEST DUP1 PUSH1 0x1F ADD PUSH1 0x20 DUP1 SWAP2 DIV MUL PUSH1 0x20 ADD PUSH1 0x40 MLOAD SWAP1 DUP2 ADD PUSH1 0x40 MSTORE DUP1 SWAP3 SWAP2 SWAP1 DUP2 DUP2 MSTORE PUSH1 0x20 ADD DUP3 DUP1 SLOAD PUSH2 0x923 SWAP1 PUSH2 0x38EA JUMP JUMPDEST DUP1 ISZERO PUSH2 0x970 JUMPI DUP1 PUSH1 0x1F LT PUSH2 0x945 JUMPI PUSH2 0x100 DUP1 DUP4 SLOAD DIV MUL DUP4 MSTORE SWAP2 PUSH1 0x20 ADD SWAP2 PUSH2 0x970 JUMP JUMPDEST DUP3 ADD SWAP2 SWAP1 PUSH1 0x0 MSTORE PUSH1 0x20 PUSH1 0x0 KECCAK256 SWAP1 JUMPDEST DUP2 SLOAD DUP2 MSTORE SWAP1 PUSH1 0x1 ADD SWAP1 PUSH1 0x20 ADD DUP1 DUP4 GT PUSH2 0x953 JUMPI DUP3 SWAP1 SUB PUSH1 0x1F AND DUP3 ADD SWAP2 JUMPDEST POP POP POP POP POP PUSH1 0x40 MLOAD DUP1 PUSH1 0x20 ADD PUSH1 0x40 MSTORE DUP1 PUSH1 0x0 DUP2 MSTORE POP PUSH2 0x29F8 JUMP JUMPDEST ISZERO PUSH2 0x9CA JUMPI PUSH1 0x40 MLOAD PUSH32 0x8C379A000000000000000000000000000000000000000000000000000000000 DUP2 MSTORE PUSH1 0x4 ADD PUSH2 0x9C1 SWAP1 PUSH2 0x368B JUMP JUMPDEST PUSH1 0x40 MLOAD DUP1 SWAP2 SUB SWAP1 REVERT JUMPDEST PUSH1 0x0 PUSH1 0x40 MLOAD DUP1 PUSH1 0xC0 ADD PUSH1 0x40 MSTORE DUP1 CALLER PUSH20 0xFFFFFFFFFFFFFFFFFFFFFFFFFFFFFFFFFFFFFFFF AND DUP2 MSTORE PUSH1 0x20 ADD DUP7 PUSH20 0xFFFFFFFFFFFFFFFFFFFFFFFFFFFFFFFFFFFFFFFF AND DUP2 MSTORE PUSH1 0x20 ADD DUP6 DUP2 MSTORE PUSH1 0x20 ADD PUSH1 0x0 DUP2 MSTORE PUSH1 0x20 ADD PUSH1 0x0 DUP2 MSTORE PUSH1 0x20 ADD DUP4 DUP2 MSTORE POP SWAP1 POP PUSH1 0xD PUSH1 0x0 DUP7 PUSH20 0xFFFFFFFFFFFFFFFFFFFFFFFFFFFFFFFFFFFFFFFF AND PUSH20 0xFFFFFFFFFFFFFFFFFFFFFFFFFFFFFFFFFFFFFFFF AND DUP2 MSTORE PUSH1 0x20 ADD SWAP1 DUP2 MSTORE PUSH1 0x20 ADD PUSH1 0x0 KECCAK256 DUP4 SWAP1 DUP1 PUSH1 0x1 DUP2 SLOAD ADD DUP1 DUP3 SSTORE DUP1 SWAP2 POP POP PUSH1 0x1 SWAP1 SUB SWAP1 PUSH1 0x0 MSTORE PUSH1 0x20 PUSH1 0x0 KECCAK256 ADD PUSH1 0x0 SWAP1 SWAP2 SWAP1 SWAP2 SWAP1 SWAP2 POP SWAP1 DUP1 MLOAD SWAP1 PUSH1 0x20 ADD SWAP1 PUSH2 0xAA1 SWAP3 SWAP2 SWAP1 PUSH2 0x2A51 JUMP JUMPDEST POP DUP1 PUSH1 0xE DUP5 PUSH1 0x40 MLOAD PUSH2 0xAB3 SWAP2 SWAP1 PUSH2 0x34B3 JUMP JUMPDEST SWAP1 DUP2 MSTORE PUSH1 0x20 ADD PUSH1 0x40 MLOAD DUP1 SWAP2 SUB SWAP1 KECCAK256 PUSH1 0x0 DUP3 ADD MLOAD DUP2 PUSH1 0x0 ADD PUSH1 0x0 PUSH2 0x100 EXP DUP2 SLOAD DUP2 PUSH20 0xFFFFFFFFFFFFFFFFFFFFFFFFFFFFFFFFFFFFFFFF MUL NOT AND SWAP1 DUP4 PUSH20 0xFFFFFFFFFFFFFFFFFFFFFFFFFFFFFFFFFFFFFFFF AND MUL OR SWAP1 SSTORE POP PUSH1 0x20 DUP3 ADD MLOAD DUP2 PUSH1 0x1 ADD PUSH1 0x0 PUSH2 0x100 EXP DUP2 SLOAD DUP2 PUSH20 0xFFFFFFFFFFFFFFFFFFFFFFFFFFFFFFFFFFFFFFFF MUL NOT AND SWAP1 DUP4 PUSH20 0xFFFFFFFFFFFFFFFFFFFFFFFFFFFFFFFFFFFFFFFF AND MUL OR SWAP1 SSTORE POP PUSH1 0x40 DUP3 ADD MLOAD DUP2 PUSH1 0x2 ADD SWAP1 DUP1 MLOAD SWAP1 PUSH1 0x20 ADD SWAP1 PUSH2 0xB6B SWAP3 SWAP2 SWAP1 PUSH2 0x2A51 JUMP JUMPDEST POP PUSH1 0x60 DUP3 ADD MLOAD DUP2 PUSH1 0x3 ADD SSTORE PUSH1 0x80 DUP3 ADD MLOAD DUP2 PUSH1 0x4 ADD SSTORE PUSH1 0xA0 DUP3 ADD MLOAD DUP2 PUSH1 0x5 ADD SSTORE SWAP1 POP POP POP POP POP POP POP JUMP JUMPDEST PUSH1 0x0 PUSH1 0x60 DUP3 PUSH1 0x0 PUSH20 0xFFFFFFFFFFFFFFFFFFFFFFFFFFFFFFFFFFFFFFFF AND PUSH1 0x1 DUP3 PUSH1 0x40 MLOAD PUSH2 0xBC1 SWAP2 SWAP1 PUSH2 0x34B3 JUMP JUMPDEST SWAP1 DUP2 MSTORE PUSH1 0x20 ADD PUSH1 0x40 MLOAD DUP1 SWAP2 SUB SWAP1 KECCAK256 PUSH1 0x0 SWAP1 SLOAD SWAP1 PUSH2 0x100 EXP SWAP1 DIV PUSH20 0xFFFFFFFFFFFFFFFFFFFFFFFFFFFFFFFFFFFFFFFF AND PUSH20 0xFFFFFFFFFFFFFFFFFFFFFFFFFFFFFFFFFFFFFFFF AND EQ ISZERO PUSH2 0xC47 JUMPI PUSH1 0x40 MLOAD PUSH32 0x8C379A000000000000000000000000000000000000000000000000000000000 DUP2 MSTORE PUSH1 0x4 ADD PUSH2 0xC3E SWAP1 PUSH2 0x36EB JUMP JUMPDEST PUSH1 0x40 MLOAD DUP1 SWAP2 SUB SWAP1 REVERT JUMPDEST PUSH1 0x0 PUSH1 0x1 DUP6 PUSH1 0x40 MLOAD PUSH2 0xC59 SWAP2 SWAP1 PUSH2 0x34B3 JUMP JUMPDEST SWAP1 DUP2 MSTORE PUSH1 0x20 ADD PUSH1 0x40 MLOAD DUP1 SWAP2 SUB SWAP1 KECCAK256 PUSH1 0x0 SWAP1 SLOAD SWAP1 PUSH2 0x100 EXP SWAP1 DIV PUSH20 0xFFFFFFFFFFFFFFFFFFFFFFFFFFFFFFFFFFFFFFFF AND SWAP1 POP PUSH1 0x0 PUSH1 0x2 PUSH1 0x0 DUP4 PUSH20 0xFFFFFFFFFFFFFFFFFFFFFFFFFFFFFFFFFFFFFFFF AND PUSH20 0xFFFFFFFFFFFFFFFFFFFFFFFFFFFFFFFFFFFFFFFF AND DUP2 MSTORE PUSH1 0x20 ADD SWAP1 DUP2 MSTORE PUSH1 0x20 ADD PUSH1 0x0 KECCAK256 PUSH1 0x40 MLOAD DUP1 PUSH1 0x80 ADD PUSH1 0x40 MSTORE SWAP1 DUP2 PUSH1 0x0 DUP3 ADD SLOAD DUP2 MSTORE PUSH1 0x20 ADD PUSH1 0x1 DUP3 ADD DUP1 SLOAD PUSH2 0xCF0 SWAP1 PUSH2 0x38EA JUMP JUMPDEST DUP1 PUSH1 0x1F ADD PUSH1 0x20 DUP1 SWAP2 DIV MUL PUSH1 0x20 ADD PUSH1 0x40 MLOAD SWAP1 DUP2 ADD PUSH1 0x40 MSTORE DUP1 SWAP3 SWAP2 SWAP1 DUP2 DUP2 MSTORE PUSH1 0x20 ADD DUP3 DUP1 SLOAD PUSH2 0xD1C SWAP1 PUSH2 0x38EA JUMP JUMPDEST DUP1 ISZERO PUSH2 0xD69 JUMPI DUP1 PUSH1 0x1F LT PUSH2 0xD3E JUMPI PUSH2 0x100 DUP1 DUP4 SLOAD DIV MUL DUP4 MSTORE SWAP2 PUSH1 0x20 ADD SWAP2 PUSH2 0xD69 JUMP JUMPDEST DUP3 ADD SWAP2 SWAP1 PUSH1 0x0 MSTORE PUSH1 0x20 PUSH1 0x0 KECCAK256 SWAP1 JUMPDEST DUP2 SLOAD DUP2 MSTORE SWAP1 PUSH1 0x1 ADD SWAP1 PUSH1 0x20 ADD DUP1 DUP4 GT PUSH2 0xD4C JUMPI DUP3 SWAP1 SUB PUSH1 0x1F AND DUP3 ADD SWAP2 JUMPDEST POP POP POP POP POP DUP2 MSTORE PUSH1 0x20 ADD PUSH1 0x2 DUP3 ADD DUP1 SLOAD PUSH2 0xD82 SWAP1 PUSH2 0x38EA JUMP JUMPDEST DUP1 PUSH1 0x1F ADD PUSH1 0x20 DUP1 SWAP2 DIV MUL PUSH1 0x20 ADD PUSH1 0x40 MLOAD SWAP1 DUP2 ADD PUSH1 0x40 MSTORE DUP1 SWAP3 SWAP2 SWAP1 DUP2 DUP2 MSTORE PUSH1 0x20 ADD DUP3 DUP1 SLOAD PUSH2 0xDAE SWAP1 PUSH2 0x38EA JUMP JUMPDEST DUP1 ISZERO PUSH2 0xDFB JUMPI DUP1 PUSH1 0x1F LT PUSH2 0xDD0 JUMPI PUSH2 0x100 DUP1 DUP4 SLOAD DIV MUL DUP4 MSTORE SWAP2 PUSH1 0x20 ADD SWAP2 PUSH2 0xDFB JUMP JUMPDEST DUP3 ADD SWAP2 SWAP1 PUSH1 0x0 MSTORE PUSH1 0x20 PUSH1 0x0 KECCAK256 SWAP1 JUMPDEST DUP2 SLOAD DUP2 MSTORE SWAP1 PUSH1 0x1 ADD SWAP1 PUSH1 0x20 ADD DUP1 DUP4 GT PUSH2 0xDDE JUMPI DUP3 SWAP1 SUB PUSH1 0x1F AND DUP3 ADD SWAP2 JUMPDEST POP POP POP POP POP DUP2 MSTORE PUSH1 0x20 ADD PUSH1 0x3 DUP3 ADD DUP1 SLOAD DUP1 PUSH1 0x20 MUL PUSH1 0x20 ADD PUSH1 0x40 MLOAD SWAP1 DUP2 ADD PUSH1 0x40 MSTORE DUP1 SWAP3 SWAP2 SWAP1 DUP2 DUP2 MSTORE PUSH1 0x20 ADD PUSH1 0x0 SWAP1 JUMPDEST DUP3 DUP3 LT ISZERO PUSH2 0xED5 JUMPI DUP4 DUP3 SWAP1 PUSH1 0x0 MSTORE PUSH1 0x20 PUSH1 0x0 KECCAK256 ADD DUP1 SLOAD PUSH2 0xE48 SWAP1 PUSH2 0x38EA JUMP JUMPDEST DUP1 PUSH1 0x1F ADD PUSH1 0x20 DUP1 SWAP2 DIV MUL PUSH1 0x20 ADD PUSH1 0x40 MLOAD SWAP1 DUP2 ADD PUSH1 0x40 MSTORE DUP1 SWAP3 SWAP2 SWAP1 DUP2 DUP2 MSTORE PUSH1 0x20 ADD DUP3 DUP1 SLOAD PUSH2 0xE74 SWAP1 PUSH2 0x38EA JUMP JUMPDEST DUP1 ISZERO PUSH2 0xEC1 JUMPI DUP1 PUSH1 0x1F LT PUSH2 0xE96 JUMPI PUSH2 0x100 DUP1 DUP4 SLOAD DIV MUL DUP4 MSTORE SWAP2 PUSH1 0x20 ADD SWAP2 PUSH2 0xEC1 JUMP JUMPDEST DUP3 ADD SWAP2 SWAP1 PUSH1 0x0 MSTORE PUSH1 0x20 PUSH1 0x0 KECCAK256 SWAP1 JUMPDEST DUP2 SLOAD DUP2 MSTORE SWAP1 PUSH1 0x1 ADD SWAP1 PUSH1 0x20 ADD DUP1 DUP4 GT PUSH2 0xEA4 JUMPI DUP3 SWAP1 SUB PUSH1 0x1F AND DUP3 ADD SWAP2 JUMPDEST POP POP POP POP POP DUP2 MSTORE PUSH1 0x20 ADD SWAP1 PUSH1 0x1 ADD SWAP1 PUSH2 0xE29 JUMP JUMPDEST POP POP POP POP DUP2 MSTORE POP POP SWAP1 POP DUP2 SWAP5 POP PUSH1 0x0 DUP1 DUP3 PUSH1 0x0 ADD MLOAD DUP2 MSTORE PUSH1 0x20 ADD SWAP1 DUP2 MSTORE PUSH1 0x20 ADD PUSH1 0x0 KECCAK256 DUP1 SLOAD PUSH2 0xF03 SWAP1 PUSH2 0x38EA JUMP JUMPDEST DUP1 PUSH1 0x1F ADD PUSH1 0x20 DUP1 SWAP2 DIV MUL PUSH1 0x20 ADD PUSH1 0x40 MLOAD SWAP1 DUP2 ADD PUSH1 0x40 MSTORE DUP1 SWAP3 SWAP2 SWAP1 DUP2 DUP2 MSTORE PUSH1 0x20 ADD DUP3 DUP1 SLOAD PUSH2 0xF2F SWAP1 PUSH2 0x38EA JUMP JUMPDEST DUP1 ISZERO PUSH2 0xF7C JUMPI DUP1 PUSH1 0x1F LT PUSH2 0xF51 JUMPI PUSH2 0x100 DUP1 DUP4 SLOAD DIV MUL DUP4 MSTORE SWAP2 PUSH1 0x20 ADD SWAP2 PUSH2 0xF7C JUMP JUMPDEST DUP3 ADD SWAP2 SWAP1 PUSH1 0x0 MSTORE PUSH1 0x20 PUSH1 0x0 KECCAK256 SWAP1 JUMPDEST DUP2 SLOAD DUP2 MSTORE SWAP1 PUSH1 0x1 ADD SWAP1 PUSH1 0x20 ADD DUP1 DUP4 GT PUSH2 0xF5F JUMPI DUP3 SWAP1 SUB PUSH1 0x1F AND DUP3 ADD SWAP2 JUMPDEST POP POP POP POP POP SWAP4 POP POP POP POP SWAP2 POP SWAP2 JUMP JUMPDEST PUSH1 0x60 DUP1 PUSH1 0x60 DUP1 PUSH1 0x60 PUSH1 0x1 PUSH1 0x2 PUSH1 0x0 CALLER PUSH20 0xFFFFFFFFFFFFFFFFFFFFFFFFFFFFFFFFFFFFFFFF AND PUSH20 0xFFFFFFFFFFFFFFFFFFFFFFFFFFFFFFFFFFFFFFFF AND DUP2 MSTORE PUSH1 0x20 ADD SWAP1 DUP2 MSTORE PUSH1 0x20 ADD PUSH1 0x0 KECCAK256 PUSH1 0x0 ADD SLOAD DUP2 PUSH1 0x5 DUP2 GT ISZERO PUSH2 0xFEB JUMPI PUSH2 0xFEA PUSH2 0x394D JUMP JUMPDEST JUMPDEST EQ PUSH2 0x102B JUMPI PUSH1 0x40 MLOAD PUSH32 0x8C379A000000000000000000000000000000000000000000000000000000000 DUP2 MSTORE PUSH1 0x4 ADD PUSH2 0x1022 SWAP1 PUSH2 0x366B JUMP JUMPDEST PUSH1 0x40 MLOAD DUP1 SWAP2 SUB SWAP1 REVERT JUMPDEST PUSH1 0x0 PUSH1 0x2 PUSH1 0x0 CALLER PUSH20 0xFFFFFFFFFFFFFFFFFFFFFFFFFFFFFFFFFFFFFFFF AND PUSH20 0xFFFFFFFFFFFFFFFFFFFFFFFFFFFFFFFFFFFFFFFF AND DUP2 MSTORE PUSH1 0x20 ADD SWAP1 DUP2 MSTORE PUSH1 0x20 ADD PUSH1 0x0 KECCAK256 PUSH1 0x40 MLOAD DUP1 PUSH1 0x80 ADD PUSH1 0x40 MSTORE SWAP1 DUP2 PUSH1 0x0 DUP3 ADD SLOAD DUP2 MSTORE PUSH1 0x20 ADD PUSH1 0x1 DUP3 ADD DUP1 SLOAD PUSH2 0x1091 SWAP1 PUSH2 0x38EA JUMP JUMPDEST DUP1 PUSH1 0x1F ADD PUSH1 0x20 DUP1 SWAP2 DIV MUL PUSH1 0x20 ADD PUSH1 0x40 MLOAD SWAP1 DUP2 ADD PUSH1 0x40 MSTORE DUP1 SWAP3 SWAP2 SWAP1 DUP2 DUP2 MSTORE PUSH1 0x20 ADD DUP3 DUP1 SLOAD PUSH2 0x10BD SWAP1 PUSH2 0x38EA JUMP JUMPDEST DUP1 ISZERO PUSH2 0x110A JUMPI DUP1 PUSH1 0x1F LT PUSH2 0x10DF JUMPI PUSH2 0x100 DUP1 DUP4 SLOAD DIV MUL DUP4 MSTORE SWAP2 PUSH1 0x20 ADD SWAP2 PUSH2 0x110A JUMP JUMPDEST DUP3 ADD SWAP2 SWAP1 PUSH1 0x0 MSTORE PUSH1 0x20 PUSH1 0x0 KECCAK256 SWAP1 JUMPDEST DUP2 SLOAD DUP2 MSTORE SWAP1 PUSH1 0x1 ADD SWAP1 PUSH1 0x20 ADD DUP1 DUP4 GT PUSH2 0x10ED JUMPI DUP3 SWAP1 SUB PUSH1 0x1F AND DUP3 ADD SWAP2 JUMPDEST POP POP POP POP POP DUP2 MSTORE PUSH1 0x20 ADD PUSH1 0x2 DUP3 ADD DUP1 SLOAD PUSH2 0x1123 SWAP1 PUSH2 0x38EA JUMP JUMPDEST DUP1 PUSH1 0x1F ADD PUSH1 0x20 DUP1 SWAP2 DIV MUL PUSH1 0x20 ADD PUSH1 0x40 MLOAD SWAP1 DUP2 ADD PUSH1 0x40 MSTORE DUP1 SWAP3 SWAP2 SWAP1 DUP2 DUP2 MSTORE PUSH1 0x20 ADD DUP3 DUP1 SLOAD PUSH2 0x114F SWAP1 PUSH2 0x38EA JUMP JUMPDEST DUP1 ISZERO PUSH2 0x119C JUMPI DUP1 PUSH1 0x1F LT PUSH2 0x1171 JUMPI PUSH2 0x100 DUP1 DUP4 SLOAD DIV MUL DUP4 MSTORE SWAP2 PUSH1 0x20 ADD SWAP2 PUSH2 0x119C JUMP JUMPDEST DUP3 ADD SWAP2 SWAP1 PUSH1 0x0 MSTORE PUSH1 0x20 PUSH1 0x0 KECCAK256 SWAP1 JUMPDEST DUP2 SLOAD DUP2 MSTORE SWAP1 PUSH1 0x1 ADD SWAP1 PUSH1 0x20 ADD DUP1 DUP4 GT PUSH2 0x117F JUMPI DUP3 SWAP1 SUB PUSH1 0x1F AND DUP3 ADD SWAP2 JUMPDEST POP POP POP POP POP DUP2 MSTORE PUSH1 0x20 ADD PUSH1 0x3 DUP3 ADD DUP1 SLOAD DUP1 PUSH1 0x20 MUL PUSH1 0x20 ADD PUSH1 0x40 MLOAD SWAP1 DUP2 ADD PUSH1 0x40 MSTORE DUP1 SWAP3 SWAP2 SWAP1 DUP2 DUP2 MSTORE PUSH1 0x20 ADD PUSH1 0x0 SWAP1 JUMPDEST DUP3 DUP3 LT ISZERO PUSH2 0x1276 JUMPI DUP4 DUP3 SWAP1 PUSH1 0x0 MSTORE PUSH1 0x20 PUSH1 0x0 KECCAK256 ADD DUP1 SLOAD PUSH2 0x11E9 SWAP1 PUSH2 0x38EA JUMP JUMPDEST DUP1 PUSH1 0x1F ADD PUSH1 0x20 DUP1 SWAP2 DIV MUL PUSH1 0x20 ADD PUSH1 0x40 MLOAD SWAP1 DUP2 ADD PUSH1 0x40 MSTORE DUP1 SWAP3 SWAP2 SWAP1 DUP2 DUP2 MSTORE PUSH1 0x20 ADD DUP3 DUP1 SLOAD PUSH2 0x1215 SWAP1 PUSH2 0x38EA JUMP JUMPDEST DUP1 ISZERO PUSH2 0x1262 JUMPI DUP1 PUSH1 0x1F LT PUSH2 0x1237 JUMPI PUSH2 0x100 DUP1 DUP4 SLOAD DIV MUL DUP4 MSTORE SWAP2 PUSH1 0x20 ADD SWAP2 PUSH2 0x1262 JUMP JUMPDEST DUP3 ADD SWAP2 SWAP1 PUSH1 0x0 MSTORE PUSH1 0x20 PUSH1 0x0 KECCAK256 SWAP1 JUMPDEST DUP2 SLOAD DUP2 MSTORE SWAP1 PUSH1 0x1 ADD SWAP1 PUSH1 0x20 ADD DUP1 DUP4 GT PUSH2 0x1245 JUMPI DUP3 SWAP1 SUB PUSH1 0x1F AND DUP3 ADD SWAP2 JUMPDEST POP POP POP POP POP DUP2 MSTORE PUSH1 0x20 ADD SWAP1 PUSH1 0x1 ADD SWAP1 PUSH2 0x11CA JUMP JUMPDEST POP POP POP POP DUP2 MSTORE POP POP SWAP1 POP PUSH1 0x0 PUSH1 0xB PUSH1 0x0 CALLER PUSH20 0xFFFFFFFFFFFFFFFFFFFFFFFFFFFFFFFFFFFFFFFF AND PUSH20 0xFFFFFFFFFFFFFFFFFFFFFFFFFFFFFFFFFFFFFFFF AND DUP2 MSTORE PUSH1 0x20 ADD SWAP1 DUP2 MSTORE PUSH1 0x20 ADD PUSH1 0x0 KECCAK256 PUSH1 0x0 SWAP1 SLOAD SWAP1 PUSH2 0x100 EXP SWAP1 DIV PUSH20 0xFFFFFFFFFFFFFFFFFFFFFFFFFFFFFFFFFFFFFFFF AND SWAP1 POP PUSH1 0x0 PUSH1 0xA PUSH1 0x0 DUP4 PUSH20 0xFFFFFFFFFFFFFFFFFFFFFFFFFFFFFFFFFFFFFFFF AND PUSH20 0xFFFFFFFFFFFFFFFFFFFFFFFFFFFFFFFFFFFFFFFF AND DUP2 MSTORE PUSH1 0x20 ADD SWAP1 DUP2 MSTORE PUSH1 0x20 ADD PUSH1 0x0 KECCAK256 PUSH1 0x40 MLOAD DUP1 PUSH1 0x60 ADD PUSH1 0x40 MSTORE SWAP1 DUP2 PUSH1 0x0 DUP3 ADD DUP1 SLOAD PUSH2 0x1340 SWAP1 PUSH2 0x38EA JUMP JUMPDEST DUP1 PUSH1 0x1F ADD PUSH1 0x20 DUP1 SWAP2 DIV MUL PUSH1 0x20 ADD PUSH1 0x40 MLOAD SWAP1 DUP2 ADD PUSH1 0x40 MSTORE DUP1 SWAP3 SWAP2 SWAP1 DUP2 DUP2 MSTORE PUSH1 0x20 ADD DUP3 DUP1 SLOAD PUSH2 0x136C SWAP1 PUSH2 0x38EA JUMP JUMPDEST DUP1 ISZERO PUSH2 0x13B9 JUMPI DUP1 PUSH1 0x1F LT PUSH2 0x138E JUMPI PUSH2 0x100 DUP1 DUP4 SLOAD DIV MUL DUP4 MSTORE SWAP2 PUSH1 0x20 ADD SWAP2 PUSH2 0x13B9 JUMP JUMPDEST DUP3 ADD SWAP2 SWAP1 PUSH1 0x0 MSTORE PUSH1 0x20 PUSH1 0x0 KECCAK256 SWAP1 JUMPDEST DUP2 SLOAD DUP2 MSTORE SWAP1 PUSH1 0x1 ADD SWAP1 PUSH1 0x20 ADD DUP1 DUP4 GT PUSH2 0x139C JUMPI DUP3 SWAP1 SUB PUSH1 0x1F AND DUP3 ADD SWAP2 JUMPDEST POP POP POP POP POP DUP2 MSTORE PUSH1 0x20 ADD PUSH1 0x1 DUP3 ADD DUP1 SLOAD PUSH2 0x13D2 SWAP1 PUSH2 0x38EA JUMP JUMPDEST DUP1 PUSH1 0x1F ADD PUSH1 0x20 DUP1 SWAP2 DIV MUL PUSH1 0x20 ADD PUSH1 0x40 MLOAD SWAP1 DUP2 ADD PUSH1 0x40 MSTORE DUP1 SWAP3 SWAP2 SWAP1 DUP2 DUP2 MSTORE PUSH1 0x20 ADD DUP3 DUP1 SLOAD PUSH2 0x13FE SWAP1 PUSH2 0x38EA JUMP JUMPDEST DUP1 ISZERO PUSH2 0x144B JUMPI DUP1 PUSH1 0x1F LT PUSH2 0x1420 JUMPI PUSH2 0x100 DUP1 DUP4 SLOAD DIV MUL DUP4 MSTORE SWAP2 PUSH1 0x20 ADD SWAP2 PUSH2 0x144B JUMP JUMPDEST DUP3 ADD SWAP2 SWAP1 PUSH1 0x0 MSTORE PUSH1 0x20 PUSH1 0x0 KECCAK256 SWAP1 JUMPDEST DUP2 SLOAD DUP2 MSTORE SWAP1 PUSH1 0x1 ADD SWAP1 PUSH1 0x20 ADD DUP1 DUP4 GT PUSH2 0x142E JUMPI DUP3 SWAP1 SUB PUSH1 0x1F AND DUP3 ADD SWAP2 JUMPDEST POP POP POP POP POP DUP2 MSTORE PUSH1 0x20 ADD PUSH1 0x2 DUP3 ADD SLOAD DUP2 MSTORE POP POP SWAP1 POP DUP3 PUSH1 0x20 ADD MLOAD SWAP9 POP DUP3 PUSH1 0x40 ADD MLOAD SWAP8 POP DUP1 PUSH1 0x20 ADD MLOAD SWAP7 POP DUP1 PUSH1 0x0 ADD MLOAD SWAP6 POP DUP3 PUSH1 0x60 ADD MLOAD SWAP5 POP POP POP POP POP SWAP1 SWAP2 SWAP3 SWAP4 SWAP5 JUMP JUMPDEST PUSH1 0x3 PUSH1 0x2 PUSH1 0x0 CALLER PUSH20 0xFFFFFFFFFFFFFFFFFFFFFFFFFFFFFFFFFFFFFFFF AND PUSH20 0xFFFFFFFFFFFFFFFFFFFFFFFFFFFFFFFFFFFFFFFF AND DUP2 MSTORE PUSH1 0x20 ADD SWAP1 DUP2 MSTORE PUSH1 0x20 ADD PUSH1 0x0 KECCAK256 PUSH1 0x0 ADD SLOAD DUP2 PUSH1 0x5 DUP2 GT ISZERO PUSH2 0x14E6 JUMPI PUSH2 0x14E5 PUSH2 0x394D JUMP JUMPDEST JUMPDEST EQ PUSH2 0x1526 JUMPI PUSH1 0x40 MLOAD PUSH32 0x8C379A000000000000000000000000000000000000000000000000000000000 DUP2 MSTORE PUSH1 0x4 ADD PUSH2 0x151D SWAP1 PUSH2 0x366B JUMP JUMPDEST PUSH1 0x40 MLOAD DUP1 SWAP2 SUB SWAP1 REVERT JUMPDEST PUSH1 0x0 PUSH1 0x40 MLOAD DUP1 PUSH1 0x60 ADD PUSH1 0x40 MSTORE DUP1 DUP7 DUP2 MSTORE PUSH1 0x20 ADD DUP6 DUP2 MSTORE PUSH1 0x20 ADD PUSH1 0x0 DUP2 MSTORE POP SWAP1 POP DUP1 PUSH1 0xA PUSH1 0x0 DUP9 PUSH20 0xFFFFFFFFFFFFFFFFFFFFFFFFFFFFFFFFFFFFFFFF AND PUSH20 0xFFFFFFFFFFFFFFFFFFFFFFFFFFFFFFFFFFFFFFFF AND DUP2 MSTORE PUSH1 0x20 ADD SWAP1 DUP2 MSTORE PUSH1 0x20 ADD PUSH1 0x0 KECCAK256 PUSH1 0x0 DUP3 ADD MLOAD DUP2 PUSH1 0x0 ADD SWAP1 DUP1 MLOAD SWAP1 PUSH1 0x20 ADD SWAP1 PUSH2 0x15A2 SWAP3 SWAP2 SWAP1 PUSH2 0x2A51 JUMP JUMPDEST POP PUSH1 0x20 DUP3 ADD MLOAD DUP2 PUSH1 0x1 ADD SWAP1 DUP1 MLOAD SWAP1 PUSH1 0x20 ADD SWAP1 PUSH2 0x15BF SWAP3 SWAP2 SWAP1 PUSH2 0x2A51 JUMP JUMPDEST POP PUSH1 0x40 DUP3 ADD MLOAD DUP2 PUSH1 0x2 ADD SSTORE SWAP1 POP POP PUSH1 0x0 PUSH1 0x2 PUSH1 0x5 DUP2 GT ISZERO PUSH2 0x15E3 JUMPI PUSH2 0x15E2 PUSH2 0x394D JUMP JUMPDEST JUMPDEST SWAP1 POP PUSH2 0x1600 PUSH1 0x40 MLOAD DUP1 PUSH1 0x20 ADD PUSH1 0x40 MSTORE DUP1 PUSH1 0x0 DUP2 MSTORE POP DUP6 DUP4 DUP11 PUSH2 0x26F4 JUMP JUMPDEST POP POP POP POP POP POP POP JUMP JUMPDEST PUSH2 0x16EC PUSH1 0x2 PUSH1 0x0 CALLER PUSH20 0xFFFFFFFFFFFFFFFFFFFFFFFFFFFFFFFFFFFFFFFF AND PUSH20 0xFFFFFFFFFFFFFFFFFFFFFFFFFFFFFFFFFFFFFFFF AND DUP2 MSTORE PUSH1 0x20 ADD SWAP1 DUP2 MSTORE PUSH1 0x20 ADD PUSH1 0x0 KECCAK256 PUSH1 0x1 ADD DUP1 SLOAD PUSH2 0x1659 SWAP1 PUSH2 0x38EA JUMP JUMPDEST DUP1 PUSH1 0x1F ADD PUSH1 0x20 DUP1 SWAP2 DIV MUL PUSH1 0x20 ADD PUSH1 0x40 MLOAD SWAP1 DUP2 ADD PUSH1 0x40 MSTORE DUP1 SWAP3 SWAP2 SWAP1 DUP2 DUP2 MSTORE PUSH1 0x20 ADD DUP3 DUP1 SLOAD PUSH2 0x1685 SWAP1 PUSH2 0x38EA JUMP JUMPDEST DUP1 ISZERO PUSH2 0x16D2 JUMPI DUP1 PUSH1 0x1F LT PUSH2 0x16A7 JUMPI PUSH2 0x100 DUP1 DUP4 SLOAD DIV MUL DUP4 MSTORE SWAP2 PUSH1 0x20 ADD SWAP2 PUSH2 0x16D2 JUMP JUMPDEST DUP3 ADD SWAP2 SWAP1 PUSH1 0x0 MSTORE PUSH1 0x20 PUSH1 0x0 KECCAK256 SWAP1 JUMPDEST DUP2 SLOAD DUP2 MSTORE SWAP1 PUSH1 0x1 ADD SWAP1 PUSH1 0x20 ADD DUP1 DUP4 GT PUSH2 0x16B5 JUMPI DUP3 SWAP1 SUB PUSH1 0x1F AND DUP3 ADD SWAP2 JUMPDEST POP POP POP POP POP PUSH1 0x40 MLOAD DUP1 PUSH1 0x20 ADD PUSH1 0x40 MSTORE DUP1 PUSH1 0x0 DUP2 MSTORE POP PUSH2 0x29F8 JUMP JUMPDEST ISZERO PUSH2 0x172C JUMPI PUSH1 0x40 MLOAD PUSH32 0x8C379A000000000000000000000000000000000000000000000000000000000 DUP2 MSTORE PUSH1 0x4 ADD PUSH2 0x1723 SWAP1 PUSH2 0x368B JUMP JUMPDEST PUSH1 0x40 MLOAD DUP1 SWAP2 SUB SWAP1 REVERT JUMPDEST PUSH1 0xE DUP2 PUSH1 0x40 MLOAD PUSH2 0x173C SWAP2 SWAP1 PUSH2 0x34B3 JUMP JUMPDEST SWAP1 DUP2 MSTORE PUSH1 0x20 ADD PUSH1 0x40 MLOAD DUP1 SWAP2 SUB SWAP1 KECCAK256 POP POP JUMP JUMPDEST PUSH1 0x4 PUSH1 0x0 SWAP1 SLOAD SWAP1 PUSH2 0x100 EXP SWAP1 DIV PUSH20 0xFFFFFFFFFFFFFFFFFFFFFFFFFFFFFFFFFFFFFFFF AND PUSH20 0xFFFFFFFFFFFFFFFFFFFFFFFFFFFFFFFFFFFFFFFF AND CALLER PUSH20 0xFFFFFFFFFFFFFFFFFFFFFFFFFFFFFFFFFFFFFFFF AND EQ PUSH2 0x17DE JUMPI PUSH1 0x40 MLOAD PUSH32 0x8C379A000000000000000000000000000000000000000000000000000000000 DUP2 MSTORE PUSH1 0x4 ADD PUSH2 0x17D5 SWAP1 PUSH2 0x36AB JUMP JUMPDEST PUSH1 0x40 MLOAD DUP1 SWAP2 SUB SWAP1 REVERT JUMPDEST PUSH1 0x0 PUSH1 0x4 PUSH1 0x5 DUP2 GT ISZERO PUSH2 0x17F4 JUMPI PUSH2 0x17F3 PUSH2 0x394D JUMP JUMPDEST JUMPDEST SWAP1 POP PUSH2 0x1811 PUSH1 0x40 MLOAD DUP1 PUSH1 0x20 ADD PUSH1 0x40 MSTORE DUP1 PUSH1 0x0 DUP2 MSTORE POP DUP5 DUP4 DUP6 PUSH2 0x26F4 JUMP JUMPDEST DUP2 PUSH1 0x3 PUSH1 0x0 PUSH2 0x100 EXP DUP2 SLOAD DUP2 PUSH20 0xFFFFFFFFFFFFFFFFFFFFFFFFFFFFFFFFFFFFFFFF MUL NOT AND SWAP1 DUP4 PUSH20 0xFFFFFFFFFFFFFFFFFFFFFFFFFFFFFFFFFFFFFFFF AND MUL OR SWAP1 SSTORE POP POP POP POP JUMP JUMPDEST PUSH1 0x5 PUSH1 0x2 PUSH1 0x0 CALLER PUSH20 0xFFFFFFFFFFFFFFFFFFFFFFFFFFFFFFFFFFFFFFFF AND PUSH20 0xFFFFFFFFFFFFFFFFFFFFFFFFFFFFFFFFFFFFFFFF AND DUP2 MSTORE PUSH1 0x20 ADD SWAP1 DUP2 MSTORE PUSH1 0x20 ADD PUSH1 0x0 KECCAK256 PUSH1 0x0 ADD SLOAD DUP2 PUSH1 0x5 DUP2 GT ISZERO PUSH2 0x18AF JUMPI PUSH2 0x18AE PUSH2 0x394D JUMP JUMPDEST JUMPDEST EQ PUSH2 0x18EF JUMPI PUSH1 0x40 MLOAD PUSH32 0x8C379A000000000000000000000000000000000000000000000000000000000 DUP2 MSTORE PUSH1 0x4 ADD PUSH2 0x18E6 SWAP1 PUSH2 0x366B JUMP JUMPDEST PUSH1 0x40 MLOAD DUP1 SWAP2 SUB SWAP1 REVERT JUMPDEST PUSH9 0x3635C9ADC5DEA00000 CALLER PUSH20 0xFFFFFFFFFFFFFFFFFFFFFFFFFFFFFFFFFFFFFFFF AND BALANCE LT ISZERO PUSH2 0x1952 JUMPI PUSH1 0x40 MLOAD PUSH32 0x8C379A000000000000000000000000000000000000000000000000000000000 DUP2 MSTORE PUSH1 0x4 ADD PUSH2 0x1949 SWAP1 PUSH2 0x364B JUMP JUMPDEST PUSH1 0x40 MLOAD DUP1 SWAP2 SUB SWAP1 REVERT JUMPDEST DUP2 PUSH20 0xFFFFFFFFFFFFFFFFFFFFFFFFFFFFFFFFFFFFFFFF AND PUSH2 0x8FC PUSH9 0x3635C9ADC5DEA00000 SWAP1 DUP2 ISZERO MUL SWAP1 PUSH1 0x40 MLOAD PUSH1 0x0 PUSH1 0x40 MLOAD DUP1 DUP4 SUB DUP2 DUP6 DUP9 DUP9 CALL SWAP4 POP POP POP POP ISZERO DUP1 ISZERO PUSH2 0x19A1 JUMPI RETURNDATASIZE PUSH1 0x0 DUP1 RETURNDATACOPY RETURNDATASIZE PUSH1 0x0 REVERT JUMPDEST POP POP POP JUMP JUMPDEST PUSH1 0x0 PUSH1 0x1 PUSH1 0x5 DUP2 GT ISZERO PUSH2 0x19BC JUMPI PUSH2 0x19BB PUSH2 0x394D JUMP JUMPDEST JUMPDEST SWAP1 POP PUSH2 0x19CA DUP6 DUP6 DUP4 DUP7 PUSH2 0x26F4 JUMP JUMPDEST PUSH1 0x7 DUP4 SWAP1 DUP1 PUSH1 0x1 DUP2 SLOAD ADD DUP1 DUP3 SSTORE DUP1 SWAP2 POP POP PUSH1 0x1 SWAP1 SUB SWAP1 PUSH1 0x0 MSTORE PUSH1 0x20 PUSH1 0x0 KECCAK256 ADD PUSH1 0x0 SWAP1 SWAP2 SWAP1 SWAP2 SWAP1 SWAP2 PUSH2 0x100 EXP DUP2 SLOAD DUP2 PUSH20 0xFFFFFFFFFFFFFFFFFFFFFFFFFFFFFFFFFFFFFFFF MUL NOT AND SWAP1 DUP4 PUSH20 0xFFFFFFFFFFFFFFFFFFFFFFFFFFFFFFFFFFFFFFFF AND MUL OR SWAP1 SSTORE POP PUSH1 0xC PUSH1 0x0 DUP4 PUSH20 0xFFFFFFFFFFFFFFFFFFFFFFFFFFFFFFFFFFFFFFFF AND PUSH20 0xFFFFFFFFFFFFFFFFFFFFFFFFFFFFFFFFFFFFFFFF AND DUP2 MSTORE PUSH1 0x20 ADD SWAP1 DUP2 MSTORE PUSH1 0x20 ADD PUSH1 0x0 KECCAK256 DUP4 SWAP1 DUP1 PUSH1 0x1 DUP2 SLOAD ADD DUP1 DUP3 SSTORE DUP1 SWAP2 POP POP PUSH1 0x1 SWAP1 SUB SWAP1 PUSH1 0x0 MSTORE PUSH1 0x20 PUSH1 0x0 KECCAK256 ADD PUSH1 0x0 SWAP1 SWAP2 SWAP1 SWAP2 SWAP1 SWAP2 PUSH2 0x100 EXP DUP2 SLOAD DUP2 PUSH20 0xFFFFFFFFFFFFFFFFFFFFFFFFFFFFFFFFFFFFFFFF MUL NOT AND SWAP1 DUP4 PUSH20 0xFFFFFFFFFFFFFFFFFFFFFFFFFFFFFFFFFFFFFFFF AND MUL OR SWAP1 SSTORE POP POP POP POP POP POP JUMP JUMPDEST PUSH1 0x60 DUP1 PUSH1 0x0 PUSH1 0x60 PUSH2 0x1BBE PUSH1 0x2 PUSH1 0x0 CALLER PUSH20 0xFFFFFFFFFFFFFFFFFFFFFFFFFFFFFFFFFFFFFFFF AND PUSH20 0xFFFFFFFFFFFFFFFFFFFFFFFFFFFFFFFFFFFFFFFF AND DUP2 MSTORE PUSH1 0x20 ADD SWAP1 DUP2 MSTORE PUSH1 0x20 ADD PUSH1 0x0 KECCAK256 PUSH1 0x1 ADD DUP1 SLOAD PUSH2 0x1B2B SWAP1 PUSH2 0x38EA JUMP JUMPDEST DUP1 PUSH1 0x1F ADD PUSH1 0x20 DUP1 SWAP2 DIV MUL PUSH1 0x20 ADD PUSH1 0x40 MLOAD SWAP1 DUP2 ADD PUSH1 0x40 MSTORE DUP1 SWAP3 SWAP2 SWAP1 DUP2 DUP2 MSTORE PUSH1 0x20 ADD DUP3 DUP1 SLOAD PUSH2 0x1B57 SWAP1 PUSH2 0x38EA JUMP JUMPDEST DUP1 ISZERO PUSH2 0x1BA4 JUMPI DUP1 PUSH1 0x1F LT PUSH2 0x1B79 JUMPI PUSH2 0x100 DUP1 DUP4 SLOAD DIV MUL DUP4 MSTORE SWAP2 PUSH1 0x20 ADD SWAP2 PUSH2 0x1BA4 JUMP JUMPDEST DUP3 ADD SWAP2 SWAP1 PUSH1 0x0 MSTORE PUSH1 0x20 PUSH1 0x0 KECCAK256 SWAP1 JUMPDEST DUP2 SLOAD DUP2 MSTORE SWAP1 PUSH1 0x1 ADD SWAP1 PUSH1 0x20 ADD DUP1 DUP4 GT PUSH2 0x1B87 JUMPI DUP3 SWAP1 SUB PUSH1 0x1F AND DUP3 ADD SWAP2 JUMPDEST POP POP POP POP POP PUSH1 0x40 MLOAD DUP1 PUSH1 0x20 ADD PUSH1 0x40 MSTORE DUP1 PUSH1 0x0 DUP2 MSTORE POP PUSH2 0x29F8 JUMP JUMPDEST ISZERO PUSH2 0x1BFE JUMPI PUSH1 0x40 MLOAD PUSH32 0x8C379A000000000000000000000000000000000000000000000000000000000 DUP2 MSTORE PUSH1 0x4 ADD PUSH2 0x1BF5 SWAP1 PUSH2 0x368B JUMP JUMPDEST PUSH1 0x40 MLOAD DUP1 SWAP2 SUB SWAP1 REVERT JUMPDEST PUSH1 0x0 PUSH1 0x2 PUSH1 0x0 CALLER PUSH20 0xFFFFFFFFFFFFFFFFFFFFFFFFFFFFFFFFFFFFFFFF AND PUSH20 0xFFFFFFFFFFFFFFFFFFFFFFFFFFFFFFFFFFFFFFFF AND DUP2 MSTORE PUSH1 0x20 ADD SWAP1 DUP2 MSTORE PUSH1 0x20 ADD PUSH1 0x0 KECCAK256 PUSH1 0x40 MLOAD DUP1 PUSH1 0x80 ADD PUSH1 0x40 MSTORE SWAP1 DUP2 PUSH1 0x0 DUP3 ADD SLOAD DUP2 MSTORE PUSH1 0x20 ADD PUSH1 0x1 DUP3 ADD DUP1 SLOAD PUSH2 0x1C64 SWAP1 PUSH2 0x38EA JUMP JUMPDEST DUP1 PUSH1 0x1F ADD PUSH1 0x20 DUP1 SWAP2 DIV MUL PUSH1 0x20 ADD PUSH1 0x40 MLOAD SWAP1 DUP2 ADD PUSH1 0x40 MSTORE DUP1 SWAP3 SWAP2 SWAP1 DUP2 DUP2 MSTORE PUSH1 0x20 ADD DUP3 DUP1 SLOAD PUSH2 0x1C90 SWAP1 PUSH2 0x38EA JUMP JUMPDEST DUP1 ISZERO PUSH2 0x1CDD JUMPI DUP1 PUSH1 0x1F LT PUSH2 0x1CB2 JUMPI PUSH2 0x100 DUP1 DUP4 SLOAD DIV MUL DUP4 MSTORE SWAP2 PUSH1 0x20 ADD SWAP2 PUSH2 0x1CDD JUMP JUMPDEST DUP3 ADD SWAP2 SWAP1 PUSH1 0x0 MSTORE PUSH1 0x20 PUSH1 0x0 KECCAK256 SWAP1 JUMPDEST DUP2 SLOAD DUP2 MSTORE SWAP1 PUSH1 0x1 ADD SWAP1 PUSH1 0x20 ADD DUP1 DUP4 GT PUSH2 0x1CC0 JUMPI DUP3 SWAP1 SUB PUSH1 0x1F AND DUP3 ADD SWAP2 JUMPDEST POP POP POP POP POP DUP2 MSTORE PUSH1 0x20 ADD PUSH1 0x2 DUP3 ADD DUP1 SLOAD PUSH2 0x1CF6 SWAP1 PUSH2 0x38EA JUMP JUMPDEST DUP1 PUSH1 0x1F ADD PUSH1 0x20 DUP1 SWAP2 DIV MUL PUSH1 0x20 ADD PUSH1 0x40 MLOAD SWAP1 DUP2 ADD PUSH1 0x40 MSTORE DUP1 SWAP3 SWAP2 SWAP1 DUP2 DUP2 MSTORE PUSH1 0x20 ADD DUP3 DUP1 SLOAD PUSH2 0x1D22 SWAP1 PUSH2 0x38EA JUMP JUMPDEST DUP1 ISZERO PUSH2 0x1D6F JUMPI DUP1 PUSH1 0x1F LT PUSH2 0x1D44 JUMPI PUSH2 0x100 DUP1 DUP4 SLOAD DIV MUL DUP4 MSTORE SWAP2 PUSH1 0x20 ADD SWAP2 PUSH2 0x1D6F JUMP JUMPDEST DUP3 ADD SWAP2 SWAP1 PUSH1 0x0 MSTORE PUSH1 0x20 PUSH1 0x0 KECCAK256 SWAP1 JUMPDEST DUP2 SLOAD DUP2 MSTORE SWAP1 PUSH1 0x1 ADD SWAP1 PUSH1 0x20 ADD DUP1 DUP4 GT PUSH2 0x1D52 JUMPI DUP3 SWAP1 SUB PUSH1 0x1F AND DUP3 ADD SWAP2 JUMPDEST POP POP POP POP POP DUP2 MSTORE PUSH1 0x20 ADD PUSH1 0x3 DUP3 ADD DUP1 SLOAD DUP1 PUSH1 0x20 MUL PUSH1 0x20 ADD PUSH1 0x40 MLOAD SWAP1 DUP2 ADD PUSH1 0x40 MSTORE DUP1 SWAP3 SWAP2 SWAP1 DUP2 DUP2 MSTORE PUSH1 0x20 ADD PUSH1 0x0 SWAP1 JUMPDEST DUP3 DUP3 LT ISZERO PUSH2 0x1E49 JUMPI DUP4 DUP3 SWAP1 PUSH1 0x0 MSTORE PUSH1 0x20 PUSH1 0x0 KECCAK256 ADD DUP1 SLOAD PUSH2 0x1DBC SWAP1 PUSH2 0x38EA JUMP JUMPDEST DUP1 PUSH1 0x1F ADD PUSH1 0x20 DUP1 SWAP2 DIV MUL PUSH1 0x20 ADD PUSH1 0x40 MLOAD SWAP1 DUP2 ADD PUSH1 0x40 MSTORE DUP1 SWAP3 SWAP2 SWAP1 DUP2 DUP2 MSTORE PUSH1 0x20 ADD DUP3 DUP1 SLOAD PUSH2 0x1DE8 SWAP1 PUSH2 0x38EA JUMP JUMPDEST DUP1 ISZERO PUSH2 0x1E35 JUMPI DUP1 PUSH1 0x1F LT PUSH2 0x1E0A JUMPI PUSH2 0x100 DUP1 DUP4 SLOAD DIV MUL DUP4 MSTORE SWAP2 PUSH1 0x20 ADD SWAP2 PUSH2 0x1E35 JUMP JUMPDEST DUP3 ADD SWAP2 SWAP1 PUSH1 0x0 MSTORE PUSH1 0x20 PUSH1 0x0 KECCAK256 SWAP1 JUMPDEST DUP2 SLOAD DUP2 MSTORE SWAP1 PUSH1 0x1 ADD SWAP1 PUSH1 0x20 ADD DUP1 DUP4 GT PUSH2 0x1E18 JUMPI DUP3 SWAP1 SUB PUSH1 0x1F AND DUP3 ADD SWAP2 JUMPDEST POP POP POP POP POP DUP2 MSTORE PUSH1 0x20 ADD SWAP1 PUSH1 0x1 ADD SWAP1 PUSH2 0x1D9D JUMP JUMPDEST POP POP POP POP DUP2 MSTORE POP POP SWAP1 POP DUP1 PUSH1 0x20 ADD MLOAD SWAP5 POP DUP1 PUSH1 0x40 ADD MLOAD SWAP4 POP CALLER PUSH20 0xFFFFFFFFFFFFFFFFFFFFFFFFFFFFFFFFFFFFFFFF AND BALANCE SWAP3 POP DUP1 PUSH1 0x60 ADD MLOAD SWAP2 POP POP SWAP1 SWAP2 SWAP3 SWAP4 JUMP JUMPDEST PUSH1 0x0 DUP1 PUSH1 0x5 DUP2 GT ISZERO PUSH2 0x1E9E JUMPI PUSH2 0x1E9D PUSH2 0x394D JUMP JUMPDEST JUMPDEST SWAP1 POP PUSH2 0x1EAC DUP5 DUP5 DUP4 DUP6 PUSH2 0x26F4 JUMP JUMPDEST POP POP POP POP JUMP JUMPDEST PUSH1 0x3 PUSH1 0x2 PUSH1 0x0 CALLER PUSH20 0xFFFFFFFFFFFFFFFFFFFFFFFFFFFFFFFFFFFFFFFF AND PUSH20 0xFFFFFFFFFFFFFFFFFFFFFFFFFFFFFFFFFFFFFFFF AND DUP2 MSTORE PUSH1 0x20 ADD SWAP1 DUP2 MSTORE PUSH1 0x20 ADD PUSH1 0x0 KECCAK256 PUSH1 0x0 ADD SLOAD DUP2 PUSH1 0x5 DUP2 GT ISZERO PUSH2 0x1F0A JUMPI PUSH2 0x1F09 PUSH2 0x394D JUMP JUMPDEST JUMPDEST EQ PUSH2 0x1F4A JUMPI PUSH1 0x40 MLOAD PUSH32 0x8C379A000000000000000000000000000000000000000000000000000000000 DUP2 MSTORE PUSH1 0x4 ADD PUSH2 0x1F41 SWAP1 PUSH2 0x366B JUMP JUMPDEST PUSH1 0x40 MLOAD DUP1 SWAP2 SUB SWAP1 REVERT JUMPDEST PUSH1 0x0 PUSH1 0x3 PUSH1 0x5 DUP2 GT ISZERO PUSH2 0x1F60 JUMPI PUSH2 0x1F5F PUSH2 0x394D JUMP JUMPDEST JUMPDEST SWAP1 POP PUSH2 0x1F6E DUP5 DUP5 DUP4 DUP9 PUSH2 0x26F4 JUMP JUMPDEST PUSH1 0x5 DUP4 SWAP1 DUP1 PUSH1 0x1 DUP2 SLOAD ADD DUP1 DUP3 SSTORE DUP1 SWAP2 POP POP PUSH1 0x1 SWAP1 SUB SWAP1 PUSH1 0x0 MSTORE PUSH1 0x20 PUSH1 0x0 KECCAK256 ADD PUSH1 0x0 SWAP1 SWAP2 SWAP1 SWAP2 SWAP1 SWAP2 POP SWAP1 DUP1 MLOAD SWAP1 PUSH1 0x20 ADD SWAP1 PUSH2 0x1FA9 SWAP3 SWAP2 SWAP1 PUSH2 0x2A51 JUMP JUMPDEST POP POP POP POP POP POP JUMP JUMPDEST PUSH1 0x60 DUP1 PUSH1 0x60 DUP1 PUSH1 0x3 PUSH1 0x2 PUSH1 0x0 CALLER PUSH20 0xFFFFFFFFFFFFFFFFFFFFFFFFFFFFFFFFFFFFFFFF AND PUSH20 0xFFFFFFFFFFFFFFFFFFFFFFFFFFFFFFFFFFFFFFFF AND DUP2 MSTORE PUSH1 0x20 ADD SWAP1 DUP2 MSTORE PUSH1 0x20 ADD PUSH1 0x0 KECCAK256 PUSH1 0x0 ADD SLOAD DUP2 PUSH1 0x5 DUP2 GT ISZERO PUSH2 0x200F JUMPI PUSH2 0x200E PUSH2 0x394D JUMP JUMPDEST JUMPDEST EQ PUSH2 0x204F JUMPI PUSH1 0x40 MLOAD PUSH32 0x8C379A000000000000000000000000000000000000000000000000000000000 DUP2 MSTORE PUSH1 0x4 ADD PUSH2 0x2046 SWAP1 PUSH2 0x366B JUMP JUMPDEST PUSH1 0x40 MLOAD DUP1 SWAP2 SUB SWAP1 REVERT JUMPDEST PUSH1 0x0 PUSH1 0x2 PUSH1 0x0 CALLER PUSH20 0xFFFFFFFFFFFFFFFFFFFFFFFFFFFFFFFFFFFFFFFF AND PUSH20 0xFFFFFFFFFFFFFFFFFFFFFFFFFFFFFFFFFFFFFFFF AND DUP2 MSTORE PUSH1 0x20 ADD SWAP1 DUP2 MSTORE PUSH1 0x20 ADD PUSH1 0x0 KECCAK256 PUSH1 0x40 MLOAD DUP1 PUSH1 0x80 ADD PUSH1 0x40 MSTORE SWAP1 DUP2 PUSH1 0x0 DUP3 ADD SLOAD DUP2 MSTORE PUSH1 0x20 ADD PUSH1 0x1 DUP3 ADD DUP1 SLOAD PUSH2 0x20B5 SWAP1 PUSH2 0x38EA JUMP JUMPDEST DUP1 PUSH1 0x1F ADD PUSH1 0x20 DUP1 SWAP2 DIV MUL PUSH1 0x20 ADD PUSH1 0x40 MLOAD SWAP1 DUP2 ADD PUSH1 0x40 MSTORE DUP1 SWAP3 SWAP2 SWAP1 DUP2 DUP2 MSTORE PUSH1 0x20 ADD DUP3 DUP1 SLOAD PUSH2 0x20E1 SWAP1 PUSH2 0x38EA JUMP JUMPDEST DUP1 ISZERO PUSH2 0x212E JUMPI DUP1 PUSH1 0x1F LT PUSH2 0x2103 JUMPI PUSH2 0x100 DUP1 DUP4 SLOAD DIV MUL DUP4 MSTORE SWAP2 PUSH1 0x20 ADD SWAP2 PUSH2 0x212E JUMP JUMPDEST DUP3 ADD SWAP2 SWAP1 PUSH1 0x0 MSTORE PUSH1 0x20 PUSH1 0x0 KECCAK256 SWAP1 JUMPDEST DUP2 SLOAD DUP2 MSTORE SWAP1 PUSH1 0x1 ADD SWAP1 PUSH1 0x20 ADD DUP1 DUP4 GT PUSH2 0x2111 JUMPI DUP3 SWAP1 SUB PUSH1 0x1F AND DUP3 ADD SWAP2 JUMPDEST POP POP POP POP POP DUP2 MSTORE PUSH1 0x20 ADD PUSH1 0x2 DUP3 ADD DUP1 SLOAD PUSH2 0x2147 SWAP1 PUSH2 0x38EA JUMP JUMPDEST DUP1 PUSH1 0x1F ADD PUSH1 0x20 DUP1 SWAP2 DIV MUL PUSH1 0x20 ADD PUSH1 0x40 MLOAD SWAP1 DUP2 ADD PUSH1 0x40 MSTORE DUP1 SWAP3 SWAP2 SWAP1 DUP2 DUP2 MSTORE PUSH1 0x20 ADD DUP3 DUP1 SLOAD PUSH2 0x2173 SWAP1 PUSH2 0x38EA JUMP JUMPDEST DUP1 ISZERO PUSH2 0x21C0 JUMPI DUP1 PUSH1 0x1F LT PUSH2 0x2195 JUMPI PUSH2 0x100 DUP1 DUP4 SLOAD DIV MUL DUP4 MSTORE SWAP2 PUSH1 0x20 ADD SWAP2 PUSH2 0x21C0 JUMP JUMPDEST DUP3 ADD SWAP2 SWAP1 PUSH1 0x0 MSTORE PUSH1 0x20 PUSH1 0x0 KECCAK256 SWAP1 JUMPDEST DUP2 SLOAD DUP2 MSTORE SWAP1 PUSH1 0x1 ADD SWAP1 PUSH1 0x20 ADD DUP1 DUP4 GT PUSH2 0x21A3 JUMPI DUP3 SWAP1 SUB PUSH1 0x1F AND DUP3 ADD SWAP2 JUMPDEST POP POP POP POP POP DUP2 MSTORE PUSH1 0x20 ADD PUSH1 0x3 DUP3 ADD DUP1 SLOAD DUP1 PUSH1 0x20 MUL PUSH1 0x20 ADD PUSH1 0x40 MLOAD SWAP1 DUP2 ADD PUSH1 0x40 MSTORE DUP1 SWAP3 SWAP2 SWAP1 DUP2 DUP2 MSTORE PUSH1 0x20 ADD PUSH1 0x0 SWAP1 JUMPDEST DUP3 DUP3 LT ISZERO PUSH2 0x229A JUMPI DUP4 DUP3 SWAP1 PUSH1 0x0 MSTORE PUSH1 0x20 PUSH1 0x0 KECCAK256 ADD DUP1 SLOAD PUSH2 0x220D SWAP1 PUSH2 0x38EA JUMP JUMPDEST DUP1 PUSH1 0x1F ADD PUSH1 0x20 DUP1 SWAP2 DIV MUL PUSH1 0x20 ADD PUSH1 0x40 MLOAD SWAP1 DUP2 ADD PUSH1 0x40 MSTORE DUP1 SWAP3 SWAP2 SWAP1 DUP2 DUP2 MSTORE PUSH1 0x20 ADD DUP3 DUP1 SLOAD PUSH2 0x2239 SWAP1 PUSH2 0x38EA JUMP JUMPDEST DUP1 ISZERO PUSH2 0x2286 JUMPI DUP1 PUSH1 0x1F LT PUSH2 0x225B JUMPI PUSH2 0x100 DUP1 DUP4 SLOAD DIV MUL DUP4 MSTORE SWAP2 PUSH1 0x20 ADD SWAP2 PUSH2 0x2286 JUMP JUMPDEST DUP3 ADD SWAP2 SWAP1 PUSH1 0x0 MSTORE PUSH1 0x20 PUSH1 0x0 KECCAK256 SWAP1 JUMPDEST DUP2 SLOAD DUP2 MSTORE SWAP1 PUSH1 0x1 ADD SWAP1 PUSH1 0x20 ADD DUP1 DUP4 GT PUSH2 0x2269 JUMPI DUP3 SWAP1 SUB PUSH1 0x1F AND DUP3 ADD SWAP2 JUMPDEST POP POP POP POP POP DUP2 MSTORE PUSH1 0x20 ADD SWAP1 PUSH1 0x1 ADD SWAP1 PUSH2 0x21EE JUMP JUMPDEST POP POP POP POP DUP2 MSTORE POP POP SWAP1 POP DUP1 PUSH1 0x20 ADD MLOAD SWAP6 POP PUSH1 0x9 DUP1 SLOAD DUP1 PUSH1 0x20 MUL PUSH1 0x20 ADD PUSH1 0x40 MLOAD SWAP1 DUP2 ADD PUSH1 0x40 MSTORE DUP1 SWAP3 SWAP2 SWAP1 DUP2 DUP2 MSTORE PUSH1 0x20 ADD PUSH1 0x0 SWAP1 JUMPDEST DUP3 DUP3 LT ISZERO PUSH2 0x2494 JUMPI DUP4 DUP3 SWAP1 PUSH1 0x0 MSTORE PUSH1 0x20 PUSH1 0x0 KECCAK256 SWAP1 PUSH1 0x4 MUL ADD PUSH1 0x40 MLOAD DUP1 PUSH1 0x80 ADD PUSH1 0x40 MSTORE SWAP1 DUP2 PUSH1 0x0 DUP3 ADD PUSH1 0x0 SWAP1 SLOAD SWAP1 PUSH2 0x100 EXP SWAP1 DIV PUSH20 0xFFFFFFFFFFFFFFFFFFFFFFFFFFFFFFFFFFFFFFFF AND PUSH20 0xFFFFFFFFFFFFFFFFFFFFFFFFFFFFFFFFFFFFFFFF AND PUSH20 0xFFFFFFFFFFFFFFFFFFFFFFFFFFFFFFFFFFFFFFFF AND DUP2 MSTORE PUSH1 0x20 ADD PUSH1 0x1 DUP3 ADD DUP1 SLOAD PUSH2 0x2356 SWAP1 PUSH2 0x38EA JUMP JUMPDEST DUP1 PUSH1 0x1F ADD PUSH1 0x20 DUP1 SWAP2 DIV MUL PUSH1 0x20 ADD PUSH1 0x40 MLOAD SWAP1 DUP2 ADD PUSH1 0x40 MSTORE DUP1 SWAP3 SWAP2 SWAP1 DUP2 DUP2 MSTORE PUSH1 0x20 ADD DUP3 DUP1 SLOAD PUSH2 0x2382 SWAP1 PUSH2 0x38EA JUMP JUMPDEST DUP1 ISZERO PUSH2 0x23CF JUMPI DUP1 PUSH1 0x1F LT PUSH2 0x23A4 JUMPI PUSH2 0x100 DUP1 DUP4 SLOAD DIV MUL DUP4 MSTORE SWAP2 PUSH1 0x20 ADD SWAP2 PUSH2 0x23CF JUMP JUMPDEST DUP3 ADD SWAP2 SWAP1 PUSH1 0x0 MSTORE PUSH1 0x20 PUSH1 0x0 KECCAK256 SWAP1 JUMPDEST DUP2 SLOAD DUP2 MSTORE SWAP1 PUSH1 0x1 ADD SWAP1 PUSH1 0x20 ADD DUP1 DUP4 GT PUSH2 0x23B2 JUMPI DUP3 SWAP1 SUB PUSH1 0x1F AND DUP3 ADD SWAP2 JUMPDEST POP POP POP POP POP DUP2 MSTORE PUSH1 0x20 ADD PUSH1 0x2 DUP3 ADD DUP1 SLOAD PUSH2 0x23E8 SWAP1 PUSH2 0x38EA JUMP JUMPDEST DUP1 PUSH1 0x1F ADD PUSH1 0x20 DUP1 SWAP2 DIV MUL PUSH1 0x20 ADD PUSH1 0x40 MLOAD SWAP1 DUP2 ADD PUSH1 0x40 MSTORE DUP1 SWAP3 SWAP2 SWAP1 DUP2 DUP2 MSTORE PUSH1 0x20 ADD DUP3 DUP1 SLOAD PUSH2 0x2414 SWAP1 PUSH2 0x38EA JUMP JUMPDEST DUP1 ISZERO PUSH2 0x2461 JUMPI DUP1 PUSH1 0x1F LT PUSH2 0x2436 JUMPI PUSH2 0x100 DUP1 DUP4 SLOAD DIV MUL DUP4 MSTORE SWAP2 PUSH1 0x20 ADD SWAP2 PUSH2 0x2461 JUMP JUMPDEST DUP3 ADD SWAP2 SWAP1 PUSH1 0x0 MSTORE PUSH1 0x20 PUSH1 0x0 KECCAK256 SWAP1 JUMPDEST DUP2 SLOAD DUP2 MSTORE SWAP1 PUSH1 0x1 ADD SWAP1 PUSH1 0x20 ADD DUP1 DUP4 GT PUSH2 0x2444 JUMPI DUP3 SWAP1 SUB PUSH1 0x1F AND DUP3 ADD SWAP2 JUMPDEST POP POP POP POP POP DUP2 MSTORE PUSH1 0x20 ADD PUSH1 0x3 DUP3 ADD PUSH1 0x0 SWAP1 SLOAD SWAP1 PUSH2 0x100 EXP SWAP1 DIV PUSH1 0xFF AND ISZERO ISZERO ISZERO ISZERO DUP2 MSTORE POP POP DUP2 MSTORE PUSH1 0x20 ADD SWAP1 PUSH1 0x1 ADD SWAP1 PUSH2 0x22CD JUMP JUMPDEST POP POP POP POP SWAP5 POP PUSH1 0x5 DUP1 SLOAD DUP1 PUSH1 0x20 MUL PUSH1 0x20 ADD PUSH1 0x40 MLOAD SWAP1 DUP2 ADD PUSH1 0x40 MSTORE DUP1 SWAP3 SWAP2 SWAP1 DUP2 DUP2 MSTORE PUSH1 0x20 ADD PUSH1 0x0 SWAP1 JUMPDEST DUP3 DUP3 LT ISZERO PUSH2 0x2568 JUMPI DUP4 DUP3 SWAP1 PUSH1 0x0 MSTORE PUSH1 0x20 PUSH1 0x0 KECCAK256 ADD DUP1 SLOAD PUSH2 0x24DB SWAP1 PUSH2 0x38EA JUMP JUMPDEST DUP1 PUSH1 0x1F ADD PUSH1 0x20 DUP1 SWAP2 DIV MUL PUSH1 0x20 ADD PUSH1 0x40 MLOAD SWAP1 DUP2 ADD PUSH1 0x40 MSTORE DUP1 SWAP3 SWAP2 SWAP1 DUP2 DUP2 MSTORE PUSH1 0x20 ADD DUP3 DUP1 SLOAD PUSH2 0x2507 SWAP1 PUSH2 0x38EA JUMP JUMPDEST DUP1 ISZERO PUSH2 0x2554 JUMPI DUP1 PUSH1 0x1F LT PUSH2 0x2529 JUMPI PUSH2 0x100 DUP1 DUP4 SLOAD DIV MUL DUP4 MSTORE SWAP2 PUSH1 0x20 ADD SWAP2 PUSH2 0x2554 JUMP JUMPDEST DUP3 ADD SWAP2 SWAP1 PUSH1 0x0 MSTORE PUSH1 0x20 PUSH1 0x0 KECCAK256 SWAP1 JUMPDEST DUP2 SLOAD DUP2 MSTORE SWAP1 PUSH1 0x1 ADD SWAP1 PUSH1 0x20 ADD DUP1 DUP4 GT PUSH2 0x2537 JUMPI DUP3 SWAP1 SUB PUSH1 0x1F AND DUP3 ADD SWAP2 JUMPDEST POP POP POP POP POP DUP2 MSTORE PUSH1 0x20 ADD SWAP1 PUSH1 0x1 ADD SWAP1 PUSH2 0x24BC JUMP JUMPDEST POP POP POP POP SWAP4 POP PUSH1 0x7 DUP1 SLOAD DUP1 PUSH1 0x20 MUL PUSH1 0x20 ADD PUSH1 0x40 MLOAD SWAP1 DUP2 ADD PUSH1 0x40 MSTORE DUP1 SWAP3 SWAP2 SWAP1 DUP2 DUP2 MSTORE PUSH1 0x20 ADD DUP3 DUP1 SLOAD DUP1 ISZERO PUSH2 0x25F0 JUMPI PUSH1 0x20 MUL DUP3 ADD SWAP2 SWAP1 PUSH1 0x0 MSTORE PUSH1 0x20 PUSH1 0x0 KECCAK256 SWAP1 JUMPDEST DUP2 PUSH1 0x0 SWAP1 SLOAD SWAP1 PUSH2 0x100 EXP SWAP1 DIV PUSH20 0xFFFFFFFFFFFFFFFFFFFFFFFFFFFFFFFFFFFFFFFF AND PUSH20 0xFFFFFFFFFFFFFFFFFFFFFFFFFFFFFFFFFFFFFFFF AND DUP2 MSTORE PUSH1 0x20 ADD SWAP1 PUSH1 0x1 ADD SWAP1 DUP1 DUP4 GT PUSH2 0x25A6 JUMPI JUMPDEST POP POP POP POP POP SWAP3 POP POP POP SWAP1 SWAP2 SWAP3 SWAP4 JUMP JUMPDEST PUSH1 0x4 PUSH1 0x0 SWAP1 SLOAD SWAP1 PUSH2 0x100 EXP SWAP1 DIV PUSH20 0xFFFFFFFFFFFFFFFFFFFFFFFFFFFFFFFFFFFFFFFF AND PUSH20 0xFFFFFFFFFFFFFFFFFFFFFFFFFFFFFFFFFFFFFFFF AND CALLER PUSH20 0xFFFFFFFFFFFFFFFFFFFFFFFFFFFFFFFFFFFFFFFF AND EQ PUSH2 0x268F JUMPI PUSH1 0x40 MLOAD PUSH32 0x8C379A000000000000000000000000000000000000000000000000000000000 DUP2 MSTORE PUSH1 0x4 ADD PUSH2 0x2686 SWAP1 PUSH2 0x36AB JUMP JUMPDEST PUSH1 0x40 MLOAD DUP1 SWAP2 SUB SWAP1 REVERT JUMPDEST PUSH1 0x0 PUSH1 0x3 PUSH1 0x5 DUP2 GT ISZERO PUSH2 0x26A5 JUMPI PUSH2 0x26A4 PUSH2 0x394D JUMP JUMPDEST JUMPDEST SWAP1 POP PUSH2 0x26B3 DUP4 DUP4 DUP4 CALLER PUSH2 0x26F4 JUMP JUMPDEST PUSH1 0x5 DUP3 SWAP1 DUP1 PUSH1 0x1 DUP2 SLOAD ADD DUP1 DUP3 SSTORE DUP1 SWAP2 POP POP PUSH1 0x1 SWAP1 SUB SWAP1 PUSH1 0x0 MSTORE PUSH1 0x20 PUSH1 0x0 KECCAK256 ADD PUSH1 0x0 SWAP1 SWAP2 SWAP1 SWAP2 SWAP1 SWAP2 POP SWAP1 DUP1 MLOAD SWAP1 PUSH1 0x20 ADD SWAP1 PUSH2 0x26EE SWAP3 SWAP2 SWAP1 PUSH2 0x2A51 JUMP JUMPDEST POP POP POP POP JUMP JUMPDEST DUP1 DUP4 PUSH2 0x27D9 PUSH1 0x2 PUSH1 0x0 DUP5 PUSH20 0xFFFFFFFFFFFFFFFFFFFFFFFFFFFFFFFFFFFFFFFF AND PUSH20 0xFFFFFFFFFFFFFFFFFFFFFFFFFFFFFFFFFFFFFFFF AND DUP2 MSTORE PUSH1 0x20 ADD SWAP1 DUP2 MSTORE PUSH1 0x20 ADD PUSH1 0x0 KECCAK256 PUSH1 0x2 ADD DUP1 SLOAD PUSH2 0x2746 SWAP1 PUSH2 0x38EA JUMP JUMPDEST DUP1 PUSH1 0x1F ADD PUSH1 0x20 DUP1 SWAP2 DIV MUL PUSH1 0x20 ADD PUSH1 0x40 MLOAD SWAP1 DUP2 ADD PUSH1 0x40 MSTORE DUP1 SWAP3 SWAP2 SWAP1 DUP2 DUP2 MSTORE PUSH1 0x20 ADD DUP3 DUP1 SLOAD PUSH2 0x2772 SWAP1 PUSH2 0x38EA JUMP JUMPDEST DUP1 ISZERO PUSH2 0x27BF JUMPI DUP1 PUSH1 0x1F LT PUSH2 0x2794 JUMPI PUSH2 0x100 DUP1 DUP4 SLOAD DIV MUL DUP4 MSTORE SWAP2 PUSH1 0x20 ADD SWAP2 PUSH2 0x27BF JUMP JUMPDEST DUP3 ADD SWAP2 SWAP1 PUSH1 0x0 MSTORE PUSH1 0x20 PUSH1 0x0 KECCAK256 SWAP1 JUMPDEST DUP2 SLOAD DUP2 MSTORE SWAP1 PUSH1 0x1 ADD SWAP1 PUSH1 0x20 ADD DUP1 DUP4 GT PUSH2 0x27A2 JUMPI DUP3 SWAP1 SUB PUSH1 0x1F AND DUP3 ADD SWAP2 JUMPDEST POP POP POP POP POP PUSH1 0x40 MLOAD DUP1 PUSH1 0x20 ADD PUSH1 0x40 MSTORE DUP1 PUSH1 0x0 DUP2 MSTORE POP PUSH2 0x29F8 JUMP JUMPDEST ISZERO PUSH2 0x2819 JUMPI PUSH1 0x40 MLOAD PUSH32 0x8C379A000000000000000000000000000000000000000000000000000000000 DUP2 MSTORE PUSH1 0x4 ADD PUSH2 0x2810 SWAP1 PUSH2 0x36CB JUMP JUMPDEST PUSH1 0x40 MLOAD DUP1 SWAP2 SUB SWAP1 REVERT JUMPDEST PUSH1 0x0 PUSH20 0xFFFFFFFFFFFFFFFFFFFFFFFFFFFFFFFFFFFFFFFF AND PUSH1 0x1 DUP3 PUSH1 0x40 MLOAD PUSH2 0x2841 SWAP2 SWAP1 PUSH2 0x34B3 JUMP JUMPDEST SWAP1 DUP2 MSTORE PUSH1 0x20 ADD PUSH1 0x40 MLOAD DUP1 SWAP2 SUB SWAP1 KECCAK256 PUSH1 0x0 SWAP1 SLOAD SWAP1 PUSH2 0x100 EXP SWAP1 DIV PUSH20 0xFFFFFFFFFFFFFFFFFFFFFFFFFFFFFFFFFFFFFFFF AND PUSH20 0xFFFFFFFFFFFFFFFFFFFFFFFFFFFFFFFFFFFFFFFF AND EQ PUSH2 0x28C6 JUMPI PUSH1 0x40 MLOAD PUSH32 0x8C379A000000000000000000000000000000000000000000000000000000000 DUP2 MSTORE PUSH1 0x4 ADD PUSH2 0x28BD SWAP1 PUSH2 0x362B JUMP JUMPDEST PUSH1 0x40 MLOAD DUP1 SWAP2 SUB SWAP1 REVERT JUMPDEST PUSH1 0x60 PUSH1 0x0 PUSH1 0x40 MLOAD DUP1 PUSH1 0x80 ADD PUSH1 0x40 MSTORE DUP1 DUP8 DUP2 MSTORE PUSH1 0x20 ADD DUP9 DUP2 MSTORE PUSH1 0x20 ADD DUP10 DUP2 MSTORE PUSH1 0x20 ADD DUP4 DUP2 MSTORE POP SWAP1 POP DUP5 PUSH1 0x1 DUP9 PUSH1 0x40 MLOAD PUSH2 0x28FE SWAP2 SWAP1 PUSH2 0x34B3 JUMP JUMPDEST SWAP1 DUP2 MSTORE PUSH1 0x20 ADD PUSH1 0x40 MLOAD DUP1 SWAP2 SUB SWAP1 KECCAK256 PUSH1 0x0 PUSH2 0x100 EXP DUP2 SLOAD DUP2 PUSH20 0xFFFFFFFFFFFFFFFFFFFFFFFFFFFFFFFFFFFFFFFF MUL NOT AND SWAP1 DUP4 PUSH20 0xFFFFFFFFFFFFFFFFFFFFFFFFFFFFFFFFFFFFFFFF AND MUL OR SWAP1 SSTORE POP DUP1 PUSH1 0x2 PUSH1 0x0 DUP8 PUSH20 0xFFFFFFFFFFFFFFFFFFFFFFFFFFFFFFFFFFFFFFFF AND PUSH20 0xFFFFFFFFFFFFFFFFFFFFFFFFFFFFFFFFFFFFFFFF AND DUP2 MSTORE PUSH1 0x20 ADD SWAP1 DUP2 MSTORE PUSH1 0x20 ADD PUSH1 0x0 KECCAK256 PUSH1 0x0 DUP3 ADD MLOAD DUP2 PUSH1 0x0 ADD SSTORE PUSH1 0x20 DUP3 ADD MLOAD DUP2 PUSH1 0x1 ADD SWAP1 DUP1 MLOAD SWAP1 PUSH1 0x20 ADD SWAP1 PUSH2 0x29B0 SWAP3 SWAP2 SWAP1 PUSH2 0x2A51 JUMP JUMPDEST POP PUSH1 0x40 DUP3 ADD MLOAD DUP2 PUSH1 0x2 ADD SWAP1 DUP1 MLOAD SWAP1 PUSH1 0x20 ADD SWAP1 PUSH2 0x29CD SWAP3 SWAP2 SWAP1 PUSH2 0x2A51 JUMP JUMPDEST POP PUSH1 0x60 DUP3 ADD MLOAD DUP2 PUSH1 0x3 ADD SWAP1 DUP1 MLOAD SWAP1 PUSH1 0x20 ADD SWAP1 PUSH2 0x29EA SWAP3 SWAP2 SWAP1 PUSH2 0x2AD7 JUMP JUMPDEST POP SWAP1 POP POP POP POP POP POP POP POP POP POP JUMP JUMPDEST PUSH1 0x0 DUP2 PUSH1 0x40 MLOAD PUSH1 0x20 ADD PUSH2 0x2A0B SWAP2 SWAP1 PUSH2 0x34B3 JUMP JUMPDEST PUSH1 0x40 MLOAD PUSH1 0x20 DUP2 DUP4 SUB SUB DUP2 MSTORE SWAP1 PUSH1 0x40 MSTORE DUP1 MLOAD SWAP1 PUSH1 0x20 ADD KECCAK256 DUP4 PUSH1 0x40 MLOAD PUSH1 0x20 ADD PUSH2 0x2A32 SWAP2 SWAP1 PUSH2 0x34B3 JUMP JUMPDEST PUSH1 0x40 MLOAD PUSH1 0x20 DUP2 DUP4 SUB SUB DUP2 MSTORE SWAP1 PUSH1 0x40 MSTORE DUP1 MLOAD SWAP1 PUSH1 0x20 ADD KECCAK256 EQ SWAP1 POP SWAP3 SWAP2 POP POP JUMP JUMPDEST DUP3 DUP1 SLOAD PUSH2 0x2A5D SWAP1 PUSH2 0x38EA JUMP JUMPDEST SWAP1 PUSH1 0x0 MSTORE PUSH1 0x20 PUSH1 0x0 KECCAK256 SWAP1 PUSH1 0x1F ADD PUSH1 0x20 SWAP1 DIV DUP2 ADD SWAP3 DUP3 PUSH2 0x2A7F JUMPI PUSH1 0x0 DUP6 SSTORE PUSH2 0x2AC6 JUMP JUMPDEST DUP3 PUSH1 0x1F LT PUSH2 0x2A98 JUMPI DUP1 MLOAD PUSH1 0xFF NOT AND DUP4 DUP1 ADD OR DUP6 SSTORE PUSH2 0x2AC6 JUMP JUMPDEST DUP3 DUP1 ADD PUSH1 0x1 ADD DUP6 SSTORE DUP3 ISZERO PUSH2 0x2AC6 JUMPI SWAP2 DUP3 ADD JUMPDEST DUP3 DUP2 GT ISZERO PUSH2 0x2AC5 JUMPI DUP3 MLOAD DUP3 SSTORE SWAP2 PUSH1 0x20 ADD SWAP2 SWAP1 PUSH1 0x1 ADD SWAP1 PUSH2 0x2AAA JUMP JUMPDEST JUMPDEST POP SWAP1 POP PUSH2 0x2AD3 SWAP2 SWAP1 PUSH2 0x2B37 JUMP JUMPDEST POP SWAP1 JUMP JUMPDEST DUP3 DUP1 SLOAD DUP3 DUP3 SSTORE SWAP1 PUSH1 0x0 MSTORE PUSH1 0x20 PUSH1 0x0 KECCAK256 SWAP1 DUP2 ADD SWAP3 DUP3 ISZERO PUSH2 0x2B26 JUMPI SWAP2 PUSH1 0x20 MUL DUP3 ADD JUMPDEST DUP3 DUP2 GT ISZERO PUSH2 0x2B25 JUMPI DUP3 MLOAD DUP3 SWAP1 DUP1 MLOAD SWAP1 PUSH1 0x20 ADD SWAP1 PUSH2 0x2B15 SWAP3 SWAP2 SWAP1 PUSH2 0x2A51 JUMP JUMPDEST POP SWAP2 PUSH1 0x20 ADD SWAP2 SWAP1 PUSH1 0x1 ADD SWAP1 PUSH2 0x2AF7 JUMP JUMPDEST JUMPDEST POP SWAP1 POP PUSH2 0x2B33 SWAP2 SWAP1 PUSH2 0x2B54 JUMP JUMPDEST POP SWAP1 JUMP JUMPDEST JUMPDEST DUP1 DUP3 GT ISZERO PUSH2 0x2B50 JUMPI PUSH1 0x0 DUP2 PUSH1 0x0 SWAP1 SSTORE POP PUSH1 0x1 ADD PUSH2 0x2B38 JUMP JUMPDEST POP SWAP1 JUMP JUMPDEST JUMPDEST DUP1 DUP3 GT ISZERO PUSH2 0x2B74 JUMPI PUSH1 0x0 DUP2 DUP2 PUSH2 0x2B6B SWAP2 SWAP1 PUSH2 0x2B78 JUMP JUMPDEST POP PUSH1 0x1 ADD PUSH2 0x2B55 JUMP JUMPDEST POP SWAP1 JUMP JUMPDEST POP DUP1 SLOAD PUSH2 0x2B84 SWAP1 PUSH2 0x38EA JUMP JUMPDEST PUSH1 0x0 DUP3 SSTORE DUP1 PUSH1 0x1F LT PUSH2 0x2B96 JUMPI POP PUSH2 0x2BB5 JUMP JUMPDEST PUSH1 0x1F ADD PUSH1 0x20 SWAP1 DIV SWAP1 PUSH1 0x0 MSTORE PUSH1 0x20 PUSH1 0x0 KECCAK256 SWAP1 DUP2 ADD SWAP1 PUSH2 0x2BB4 SWAP2 SWAP1 PUSH2 0x2B37 JUMP JUMPDEST JUMPDEST POP JUMP JUMPDEST PUSH1 0x0 PUSH2 0x2BCB PUSH2 0x2BC6 DUP5 PUSH2 0x3730 JUMP JUMPDEST PUSH2 0x370B JUMP JUMPDEST SWAP1 POP DUP3 DUP2 MSTORE PUSH1 0x20 DUP2 ADD DUP5 DUP5 DUP5 ADD GT ISZERO PUSH2 0x2BE7 JUMPI PUSH2 0x2BE6 PUSH2 0x39DF JUMP JUMPDEST JUMPDEST PUSH2 0x2BF2 DUP5 DUP3 DUP6 PUSH2 0x38A8 JUMP JUMPDEST POP SWAP4 SWAP3 POP POP POP JUMP JUMPDEST PUSH1 0x0 DUP2 CALLDATALOAD SWAP1 POP PUSH2 0x2C09 DUP2 PUSH2 0x3B44 JUMP JUMPDEST SWAP3 SWAP2 POP POP JUMP JUMPDEST PUSH1 0x0 DUP2 CALLDATALOAD SWAP1 POP PUSH2 0x2C1E DUP2 PUSH2 0x3B5B JUMP JUMPDEST SWAP3 SWAP2 POP POP JUMP JUMPDEST PUSH1 0x0 DUP2 CALLDATALOAD SWAP1 POP PUSH2 0x2C33 DUP2 PUSH2 0x3B72 JUMP JUMPDEST SWAP3 SWAP2 POP POP JUMP JUMPDEST PUSH1 0x0 DUP3 PUSH1 0x1F DUP4 ADD SLT PUSH2 0x2C4E JUMPI PUSH2 0x2C4D PUSH2 0x39DA JUMP JUMPDEST JUMPDEST DUP2 CALLDATALOAD PUSH2 0x2C5E DUP5 DUP3 PUSH1 0x20 DUP7 ADD PUSH2 0x2BB8 JUMP JUMPDEST SWAP2 POP POP SWAP3 SWAP2 POP POP JUMP JUMPDEST PUSH1 0x0 PUSH1 0x20 DUP3 DUP5 SUB SLT ISZERO PUSH2 0x2C7D JUMPI PUSH2 0x2C7C PUSH2 0x39E9 JUMP JUMPDEST JUMPDEST PUSH1 0x0 PUSH2 0x2C8B DUP5 DUP3 DUP6 ADD PUSH2 0x2BFA JUMP JUMPDEST SWAP2 POP POP SWAP3 SWAP2 POP POP JUMP JUMPDEST PUSH1 0x0 PUSH1 0x20 DUP3 DUP5 SUB SLT ISZERO PUSH2 0x2CAA JUMPI PUSH2 0x2CA9 PUSH2 0x39E9 JUMP JUMPDEST JUMPDEST PUSH1 0x0 PUSH2 0x2CB8 DUP5 DUP3 DUP6 ADD PUSH2 0x2C0F JUMP JUMPDEST SWAP2 POP POP SWAP3 SWAP2 POP POP JUMP JUMPDEST PUSH1 0x0 DUP1 PUSH1 0x0 PUSH1 0x60 DUP5 DUP7 SUB SLT ISZERO PUSH2 0x2CDA JUMPI PUSH2 0x2CD9 PUSH2 0x39E9 JUMP JUMPDEST JUMPDEST PUSH1 0x0 PUSH2 0x2CE8 DUP7 DUP3 DUP8 ADD PUSH2 0x2BFA JUMP JUMPDEST SWAP4 POP POP PUSH1 0x20 DUP5 ADD CALLDATALOAD PUSH8 0xFFFFFFFFFFFFFFFF DUP2 GT ISZERO PUSH2 0x2D09 JUMPI PUSH2 0x2D08 PUSH2 0x39E4 JUMP JUMPDEST JUMPDEST PUSH2 0x2D15 DUP7 DUP3 DUP8 ADD PUSH2 0x2C39 JUMP JUMPDEST SWAP3 POP POP PUSH1 0x40 DUP5 ADD CALLDATALOAD PUSH8 0xFFFFFFFFFFFFFFFF DUP2 GT ISZERO PUSH2 0x2D36 JUMPI PUSH2 0x2D35 PUSH2 0x39E4 JUMP JUMPDEST JUMPDEST PUSH2 0x2D42 DUP7 DUP3 DUP8 ADD PUSH2 0x2C39 JUMP JUMPDEST SWAP2 POP POP SWAP3 POP SWAP3 POP SWAP3 JUMP JUMPDEST PUSH1 0x0 DUP1 PUSH1 0x0 DUP1 PUSH1 0x80 DUP6 DUP8 SUB SLT ISZERO PUSH2 0x2D66 JUMPI PUSH2 0x2D65 PUSH2 0x39E9 JUMP JUMPDEST JUMPDEST PUSH1 0x0 PUSH2 0x2D74 DUP8 DUP3 DUP9 ADD PUSH2 0x2BFA JUMP JUMPDEST SWAP5 POP POP PUSH1 0x20 DUP6 ADD CALLDATALOAD PUSH8 0xFFFFFFFFFFFFFFFF DUP2 GT ISZERO PUSH2 0x2D95 JUMPI PUSH2 0x2D94 PUSH2 0x39E4 JUMP JUMPDEST JUMPDEST PUSH2 0x2DA1 DUP8 DUP3 DUP9 ADD PUSH2 0x2C39 JUMP JUMPDEST SWAP4 POP POP PUSH1 0x40 DUP6 ADD CALLDATALOAD PUSH8 0xFFFFFFFFFFFFFFFF DUP2 GT ISZERO PUSH2 0x2DC2 JUMPI PUSH2 0x2DC1 PUSH2 0x39E4 JUMP JUMPDEST JUMPDEST PUSH2 0x2DCE DUP8 DUP3 DUP9 ADD PUSH2 0x2C39 JUMP JUMPDEST SWAP3 POP POP PUSH1 0x60 PUSH2 0x2DDF DUP8 DUP3 DUP9 ADD PUSH2 0x2C24 JUMP JUMPDEST SWAP2 POP POP SWAP3 SWAP6 SWAP2 SWAP5 POP SWAP3 POP JUMP JUMPDEST PUSH1 0x0 DUP1 PUSH1 0x0 DUP1 PUSH1 0x80 DUP6 DUP8 SUB SLT ISZERO PUSH2 0x2E05 JUMPI PUSH2 0x2E04 PUSH2 0x39E9 JUMP JUMPDEST JUMPDEST PUSH1 0x0 PUSH2 0x2E13 DUP8 DUP3 DUP9 ADD PUSH2 0x2BFA JUMP JUMPDEST SWAP5 POP POP PUSH1 0x20 DUP6 ADD CALLDATALOAD PUSH8 0xFFFFFFFFFFFFFFFF DUP2 GT ISZERO PUSH2 0x2E34 JUMPI PUSH2 0x2E33 PUSH2 0x39E4 JUMP JUMPDEST JUMPDEST PUSH2 0x2E40 DUP8 DUP3 DUP9 ADD PUSH2 0x2C39 JUMP JUMPDEST SWAP4 POP POP PUSH1 0x40 DUP6 ADD CALLDATALOAD PUSH8 0xFFFFFFFFFFFFFFFF DUP2 GT ISZERO PUSH2 0x2E61 JUMPI PUSH2 0x2E60 PUSH2 0x39E4 JUMP JUMPDEST JUMPDEST PUSH2 0x2E6D DUP8 DUP3 DUP9 ADD PUSH2 0x2C39 JUMP JUMPDEST SWAP3 POP POP PUSH1 0x60 DUP6 ADD CALLDATALOAD PUSH8 0xFFFFFFFFFFFFFFFF DUP2 GT ISZERO PUSH2 0x2E8E JUMPI PUSH2 0x2E8D PUSH2 0x39E4 JUMP JUMPDEST JUMPDEST PUSH2 0x2E9A DUP8 DUP3 DUP9 ADD PUSH2 0x2C39 JUMP JUMPDEST SWAP2 POP POP SWAP3 SWAP6 SWAP2 SWAP5 POP SWAP3 POP JUMP JUMPDEST PUSH1 0x0 PUSH1 0x20 DUP3 DUP5 SUB SLT ISZERO PUSH2 0x2EBC JUMPI PUSH2 0x2EBB PUSH2 0x39E9 JUMP JUMPDEST JUMPDEST PUSH1 0x0 DUP3 ADD CALLDATALOAD PUSH8 0xFFFFFFFFFFFFFFFF DUP2 GT ISZERO PUSH2 0x2EDA JUMPI PUSH2 0x2ED9 PUSH2 0x39E4 JUMP JUMPDEST JUMPDEST PUSH2 0x2EE6 DUP5 DUP3 DUP6 ADD PUSH2 0x2C39 JUMP JUMPDEST SWAP2 POP POP SWAP3 SWAP2 POP POP JUMP JUMPDEST PUSH1 0x0 DUP1 PUSH1 0x40 DUP4 DUP6 SUB SLT ISZERO PUSH2 0x2F06 JUMPI PUSH2 0x2F05 PUSH2 0x39E9 JUMP JUMPDEST JUMPDEST PUSH1 0x0 DUP4 ADD CALLDATALOAD PUSH8 0xFFFFFFFFFFFFFFFF DUP2 GT ISZERO PUSH2 0x2F24 JUMPI PUSH2 0x2F23 PUSH2 0x39E4 JUMP JUMPDEST JUMPDEST PUSH2 0x2F30 DUP6 DUP3 DUP7 ADD PUSH2 0x2C39 JUMP JUMPDEST SWAP3 POP POP PUSH1 0x20 PUSH2 0x2F41 DUP6 DUP3 DUP7 ADD PUSH2 0x2BFA JUMP JUMPDEST SWAP2 POP POP SWAP3 POP SWAP3 SWAP1 POP JUMP JUMPDEST PUSH1 0x0 DUP1 PUSH1 0x40 DUP4 DUP6 SUB SLT ISZERO PUSH2 0x2F62 JUMPI PUSH2 0x2F61 PUSH2 0x39E9 JUMP JUMPDEST JUMPDEST PUSH1 0x0 DUP4 ADD CALLDATALOAD PUSH8 0xFFFFFFFFFFFFFFFF DUP2 GT ISZERO PUSH2 0x2F80 JUMPI PUSH2 0x2F7F PUSH2 0x39E4 JUMP JUMPDEST JUMPDEST PUSH2 0x2F8C DUP6 DUP3 DUP7 ADD PUSH2 0x2C39 JUMP JUMPDEST SWAP3 POP POP PUSH1 0x20 DUP4 ADD CALLDATALOAD PUSH8 0xFFFFFFFFFFFFFFFF DUP2 GT ISZERO PUSH2 0x2FAD JUMPI PUSH2 0x2FAC PUSH2 0x39E4 JUMP JUMPDEST JUMPDEST PUSH2 0x2FB9 DUP6 DUP3 DUP7 ADD PUSH2 0x2C39 JUMP JUMPDEST SWAP2 POP POP SWAP3 POP SWAP3 SWAP1 POP JUMP JUMPDEST PUSH1 0x0 DUP1 PUSH1 0x0 PUSH1 0x60 DUP5 DUP7 SUB SLT ISZERO PUSH2 0x2FDC JUMPI PUSH2 0x2FDB PUSH2 0x39E9 JUMP JUMPDEST JUMPDEST PUSH1 0x0 DUP5 ADD CALLDATALOAD PUSH8 0xFFFFFFFFFFFFFFFF DUP2 GT ISZERO PUSH2 0x2FFA JUMPI PUSH2 0x2FF9 PUSH2 0x39E4 JUMP JUMPDEST JUMPDEST PUSH2 0x3006 DUP7 DUP3 DUP8 ADD PUSH2 0x2C39 JUMP JUMPDEST SWAP4 POP POP PUSH1 0x20 DUP5 ADD CALLDATALOAD PUSH8 0xFFFFFFFFFFFFFFFF DUP2 GT ISZERO PUSH2 0x3027 JUMPI PUSH2 0x3026 PUSH2 0x39E4 JUMP JUMPDEST JUMPDEST PUSH2 0x3033 DUP7 DUP3 DUP8 ADD PUSH2 0x2C39 JUMP JUMPDEST SWAP3 POP POP PUSH1 0x40 PUSH2 0x3044 DUP7 DUP3 DUP8 ADD PUSH2 0x2BFA JUMP JUMPDEST SWAP2 POP POP SWAP3 POP SWAP3 POP SWAP3 JUMP JUMPDEST PUSH1 0x0 DUP1 PUSH1 0x0 DUP1 PUSH1 0x80 DUP6 DUP8 SUB SLT ISZERO PUSH2 0x3068 JUMPI PUSH2 0x3067 PUSH2 0x39E9 JUMP JUMPDEST JUMPDEST PUSH1 0x0 DUP6 ADD CALLDATALOAD PUSH8 0xFFFFFFFFFFFFFFFF DUP2 GT ISZERO PUSH2 0x3086 JUMPI PUSH2 0x3085 PUSH2 0x39E4 JUMP JUMPDEST JUMPDEST PUSH2 0x3092 DUP8 DUP3 DUP9 ADD PUSH2 0x2C39 JUMP JUMPDEST SWAP5 POP POP PUSH1 0x20 DUP6 ADD CALLDATALOAD PUSH8 0xFFFFFFFFFFFFFFFF DUP2 GT ISZERO PUSH2 0x30B3 JUMPI PUSH2 0x30B2 PUSH2 0x39E4 JUMP JUMPDEST JUMPDEST PUSH2 0x30BF DUP8 DUP3 DUP9 ADD PUSH2 0x2C39 JUMP JUMPDEST SWAP4 POP POP PUSH1 0x40 PUSH2 0x30D0 DUP8 DUP3 DUP9 ADD PUSH2 0x2BFA JUMP JUMPDEST SWAP3 POP POP PUSH1 0x60 PUSH2 0x30E1 DUP8 DUP3 DUP9 ADD PUSH2 0x2BFA JUMP JUMPDEST SWAP2 POP POP SWAP3 SWAP6 SWAP2 SWAP5 POP SWAP3 POP JUMP JUMPDEST PUSH1 0x0 PUSH2 0x30F9 DUP4 DUP4 PUSH2 0x312D JUMP JUMPDEST PUSH1 0x20 DUP4 ADD SWAP1 POP SWAP3 SWAP2 POP POP JUMP JUMPDEST PUSH1 0x0 PUSH2 0x3111 DUP4 DUP4 PUSH2 0x32A2 JUMP JUMPDEST SWAP1 POP SWAP3 SWAP2 POP POP JUMP JUMPDEST PUSH1 0x0 PUSH2 0x3125 DUP4 DUP4 PUSH2 0x343A JUMP JUMPDEST SWAP1 POP SWAP3 SWAP2 POP POP JUMP JUMPDEST PUSH2 0x3136 DUP2 PUSH2 0x3844 JUMP JUMPDEST DUP3 MSTORE POP POP JUMP JUMPDEST PUSH2 0x3145 DUP2 PUSH2 0x3844 JUMP JUMPDEST DUP3 MSTORE POP POP JUMP JUMPDEST PUSH1 0x0 PUSH2 0x3156 DUP3 PUSH2 0x3791 JUMP JUMPDEST PUSH2 0x3160 DUP2 DUP6 PUSH2 0x37E4 JUMP JUMPDEST SWAP4 POP PUSH2 0x316B DUP4 PUSH2 0x3761 JUMP JUMPDEST DUP1 PUSH1 0x0 JUMPDEST DUP4 DUP2 LT ISZERO PUSH2 0x319C JUMPI DUP2 MLOAD PUSH2 0x3183 DUP9 DUP3 PUSH2 0x30ED JUMP JUMPDEST SWAP8 POP PUSH2 0x318E DUP4 PUSH2 0x37BD JUMP JUMPDEST SWAP3 POP POP PUSH1 0x1 DUP2 ADD SWAP1 POP PUSH2 0x316F JUMP JUMPDEST POP DUP6 SWAP4 POP POP POP POP SWAP3 SWAP2 POP POP JUMP JUMPDEST PUSH1 0x0 PUSH2 0x31B4 DUP3 PUSH2 0x379C JUMP JUMPDEST PUSH2 0x31BE DUP2 DUP6 PUSH2 0x37F5 JUMP JUMPDEST SWAP4 POP DUP4 PUSH1 0x20 DUP3 MUL DUP6 ADD PUSH2 0x31D0 DUP6 PUSH2 0x3771 JUMP JUMPDEST DUP1 PUSH1 0x0 JUMPDEST DUP6 DUP2 LT ISZERO PUSH2 0x320C JUMPI DUP5 DUP5 SUB DUP10 MSTORE DUP2 MLOAD PUSH2 0x31ED DUP6 DUP3 PUSH2 0x3105 JUMP JUMPDEST SWAP5 POP PUSH2 0x31F8 DUP4 PUSH2 0x37CA JUMP JUMPDEST SWAP3 POP PUSH1 0x20 DUP11 ADD SWAP10 POP POP PUSH1 0x1 DUP2 ADD SWAP1 POP PUSH2 0x31D4 JUMP JUMPDEST POP DUP3 SWAP8 POP DUP8 SWAP6 POP POP POP POP POP POP SWAP3 SWAP2 POP POP JUMP JUMPDEST PUSH1 0x0 PUSH2 0x3229 DUP3 PUSH2 0x37A7 JUMP JUMPDEST PUSH2 0x3233 DUP2 DUP6 PUSH2 0x3806 JUMP JUMPDEST SWAP4 POP DUP4 PUSH1 0x20 DUP3 MUL DUP6 ADD PUSH2 0x3245 DUP6 PUSH2 0x3781 JUMP JUMPDEST DUP1 PUSH1 0x0 JUMPDEST DUP6 DUP2 LT ISZERO PUSH2 0x3281 JUMPI DUP5 DUP5 SUB DUP10 MSTORE DUP2 MLOAD PUSH2 0x3262 DUP6 DUP3 PUSH2 0x3119 JUMP JUMPDEST SWAP5 POP PUSH2 0x326D DUP4 PUSH2 0x37D7 JUMP JUMPDEST SWAP3 POP PUSH1 0x20 DUP11 ADD SWAP10 POP POP PUSH1 0x1 DUP2 ADD SWAP1 POP PUSH2 0x3249 JUMP JUMPDEST POP DUP3 SWAP8 POP DUP8 SWAP6 POP POP POP POP POP POP SWAP3 SWAP2 POP POP JUMP JUMPDEST PUSH2 0x329C DUP2 PUSH2 0x3868 JUMP JUMPDEST DUP3 MSTORE POP POP JUMP JUMPDEST PUSH1 0x0 PUSH2 0x32AD DUP3 PUSH2 0x37B2 JUMP JUMPDEST PUSH2 0x32B7 DUP2 DUP6 PUSH2 0x3817 JUMP JUMPDEST SWAP4 POP PUSH2 0x32C7 DUP2 DUP6 PUSH1 0x20 DUP7 ADD PUSH2 0x38B7 JUMP JUMPDEST PUSH2 0x32D0 DUP2 PUSH2 0x39EE JUMP JUMPDEST DUP5 ADD SWAP2 POP POP SWAP3 SWAP2 POP POP JUMP JUMPDEST PUSH1 0x0 PUSH2 0x32E6 DUP3 PUSH2 0x37B2 JUMP JUMPDEST PUSH2 0x32F0 DUP2 DUP6 PUSH2 0x3828 JUMP JUMPDEST SWAP4 POP PUSH2 0x3300 DUP2 DUP6 PUSH1 0x20 DUP7 ADD PUSH2 0x38B7 JUMP JUMPDEST PUSH2 0x3309 DUP2 PUSH2 0x39EE JUMP JUMPDEST DUP5 ADD SWAP2 POP POP SWAP3 SWAP2 POP POP JUMP JUMPDEST PUSH1 0x0 PUSH2 0x331F DUP3 PUSH2 0x37B2 JUMP JUMPDEST PUSH2 0x3329 DUP2 DUP6 PUSH2 0x3839 JUMP JUMPDEST SWAP4 POP PUSH2 0x3339 DUP2 DUP6 PUSH1 0x20 DUP7 ADD PUSH2 0x38B7 JUMP JUMPDEST DUP1 DUP5 ADD SWAP2 POP POP SWAP3 SWAP2 POP POP JUMP JUMPDEST PUSH1 0x0 PUSH2 0x3352 PUSH1 0x22 DUP4 PUSH2 0x3828 JUMP JUMPDEST SWAP2 POP PUSH2 0x335D DUP3 PUSH2 0x39FF JUMP JUMPDEST PUSH1 0x40 DUP3 ADD SWAP1 POP SWAP2 SWAP1 POP JUMP JUMPDEST PUSH1 0x0 PUSH2 0x3375 PUSH1 0xB DUP4 PUSH2 0x3828 JUMP JUMPDEST SWAP2 POP PUSH2 0x3380 DUP3 PUSH2 0x3A4E JUMP JUMPDEST PUSH1 0x20 DUP3 ADD SWAP1 POP SWAP2 SWAP1 POP JUMP JUMPDEST PUSH1 0x0 PUSH2 0x3398 PUSH1 0x9 DUP4 PUSH2 0x3828 JUMP JUMPDEST SWAP2 POP PUSH2 0x33A3 DUP3 PUSH2 0x3A77 JUMP JUMPDEST PUSH1 0x20 DUP3 ADD SWAP1 POP SWAP2 SWAP1 POP JUMP JUMPDEST PUSH1 0x0 PUSH2 0x33BB PUSH1 0xC DUP4 PUSH2 0x3828 JUMP JUMPDEST SWAP2 POP PUSH2 0x33C6 DUP3 PUSH2 0x3AA0 JUMP JUMPDEST PUSH1 0x20 DUP3 ADD SWAP1 POP SWAP2 SWAP1 POP JUMP JUMPDEST PUSH1 0x0 PUSH2 0x33DE PUSH1 0xD DUP4 PUSH2 0x3828 JUMP JUMPDEST SWAP2 POP PUSH2 0x33E9 DUP3 PUSH2 0x3AC9 JUMP JUMPDEST PUSH1 0x20 DUP3 ADD SWAP1 POP SWAP2 SWAP1 POP JUMP JUMPDEST PUSH1 0x0 PUSH2 0x3401 PUSH1 0x16 DUP4 PUSH2 0x3828 JUMP JUMPDEST SWAP2 POP PUSH2 0x340C DUP3 PUSH2 0x3AF2 JUMP JUMPDEST PUSH1 0x20 DUP3 ADD SWAP1 POP SWAP2 SWAP1 POP JUMP JUMPDEST PUSH1 0x0 PUSH2 0x3424 PUSH1 0xB DUP4 PUSH2 0x3828 JUMP JUMPDEST SWAP2 POP PUSH2 0x342F DUP3 PUSH2 0x3B1B JUMP JUMPDEST PUSH1 0x20 DUP3 ADD SWAP1 POP SWAP2 SWAP1 POP JUMP JUMPDEST PUSH1 0x0 PUSH1 0x80 DUP4 ADD PUSH1 0x0 DUP4 ADD MLOAD PUSH2 0x3452 PUSH1 0x0 DUP7 ADD DUP3 PUSH2 0x312D JUMP JUMPDEST POP PUSH1 0x20 DUP4 ADD MLOAD DUP5 DUP3 SUB PUSH1 0x20 DUP7 ADD MSTORE PUSH2 0x346A DUP3 DUP3 PUSH2 0x32A2 JUMP JUMPDEST SWAP2 POP POP PUSH1 0x40 DUP4 ADD MLOAD DUP5 DUP3 SUB PUSH1 0x40 DUP7 ADD MSTORE PUSH2 0x3484 DUP3 DUP3 PUSH2 0x32A2 JUMP JUMPDEST SWAP2 POP POP PUSH1 0x60 DUP4 ADD MLOAD PUSH2 0x3499 PUSH1 0x60 DUP7 ADD DUP3 PUSH2 0x3293 JUMP JUMPDEST POP DUP1 SWAP2 POP POP SWAP3 SWAP2 POP POP JUMP JUMPDEST PUSH2 0x34AD DUP2 PUSH2 0x389E JUMP JUMPDEST DUP3 MSTORE POP POP JUMP JUMPDEST PUSH1 0x0 PUSH2 0x34BF DUP3 DUP5 PUSH2 0x3314 JUMP JUMPDEST SWAP2 POP DUP2 SWAP1 POP SWAP3 SWAP2 POP POP JUMP JUMPDEST PUSH1 0x0 PUSH1 0x40 DUP3 ADD SWAP1 POP PUSH2 0x34DF PUSH1 0x0 DUP4 ADD DUP6 PUSH2 0x313C JUMP JUMPDEST DUP2 DUP2 SUB PUSH1 0x20 DUP4 ADD MSTORE PUSH2 0x34F1 DUP2 DUP5 PUSH2 0x32DB JUMP JUMPDEST SWAP1 POP SWAP4 SWAP3 POP POP POP JUMP JUMPDEST PUSH1 0x0 PUSH1 0x80 DUP3 ADD SWAP1 POP DUP2 DUP2 SUB PUSH1 0x0 DUP4 ADD MSTORE PUSH2 0x3514 DUP2 DUP8 PUSH2 0x32DB JUMP JUMPDEST SWAP1 POP DUP2 DUP2 SUB PUSH1 0x20 DUP4 ADD MSTORE PUSH2 0x3528 DUP2 DUP7 PUSH2 0x321E JUMP JUMPDEST SWAP1 POP DUP2 DUP2 SUB PUSH1 0x40 DUP4 ADD MSTORE PUSH2 0x353C DUP2 DUP6 PUSH2 0x31A9 JUMP JUMPDEST SWAP1 POP DUP2 DUP2 SUB PUSH1 0x60 DUP4 ADD MSTORE PUSH2 0x3550 DUP2 DUP5 PUSH2 0x314B JUMP JUMPDEST SWAP1 POP SWAP6 SWAP5 POP POP POP POP POP JUMP JUMPDEST PUSH1 0x0 PUSH1 0xA0 DUP3 ADD SWAP1 POP DUP2 DUP2 SUB PUSH1 0x0 DUP4 ADD MSTORE PUSH2 0x3575 DUP2 DUP9 PUSH2 0x32DB JUMP JUMPDEST SWAP1 POP DUP2 DUP2 SUB PUSH1 0x20 DUP4 ADD MSTORE PUSH2 0x3589 DUP2 DUP8 PUSH2 0x32DB JUMP JUMPDEST SWAP1 POP DUP2 DUP2 SUB PUSH1 0x40 DUP4 ADD MSTORE PUSH2 0x359D DUP2 DUP7 PUSH2 0x32DB JUMP JUMPDEST SWAP1 POP DUP2 DUP2 SUB PUSH1 0x60 DUP4 ADD MSTORE PUSH2 0x35B1 DUP2 DUP6 PUSH2 0x32DB JUMP JUMPDEST SWAP1 POP DUP2 DUP2 SUB PUSH1 0x80 DUP4 ADD MSTORE PUSH2 0x35C5 DUP2 DUP5 PUSH2 0x31A9 JUMP JUMPDEST SWAP1 POP SWAP7 SWAP6 POP POP POP POP POP POP JUMP JUMPDEST PUSH1 0x0 PUSH1 0x80 DUP3 ADD SWAP1 POP DUP2 DUP2 SUB PUSH1 0x0 DUP4 ADD MSTORE PUSH2 0x35EB DUP2 DUP8 PUSH2 0x32DB JUMP JUMPDEST SWAP1 POP DUP2 DUP2 SUB PUSH1 0x20 DUP4 ADD MSTORE PUSH2 0x35FF DUP2 DUP7 PUSH2 0x32DB JUMP JUMPDEST SWAP1 POP PUSH2 0x360E PUSH1 0x40 DUP4 ADD DUP6 PUSH2 0x34A4 JUMP JUMPDEST DUP2 DUP2 SUB PUSH1 0x60 DUP4 ADD MSTORE PUSH2 0x3620 DUP2 DUP5 PUSH2 0x31A9 JUMP JUMPDEST SWAP1 POP SWAP6 SWAP5 POP POP POP POP POP JUMP JUMPDEST PUSH1 0x0 PUSH1 0x20 DUP3 ADD SWAP1 POP DUP2 DUP2 SUB PUSH1 0x0 DUP4 ADD MSTORE PUSH2 0x3644 DUP2 PUSH2 0x3345 JUMP JUMPDEST SWAP1 POP SWAP2 SWAP1 POP JUMP JUMPDEST PUSH1 0x0 PUSH1 0x20 DUP3 ADD SWAP1 POP DUP2 DUP2 SUB PUSH1 0x0 DUP4 ADD MSTORE PUSH2 0x3664 DUP2 PUSH2 0x3368 JUMP JUMPDEST SWAP1 POP SWAP2 SWAP1 POP JUMP JUMPDEST PUSH1 0x0 PUSH1 0x20 DUP3 ADD SWAP1 POP DUP2 DUP2 SUB PUSH1 0x0 DUP4 ADD MSTORE PUSH2 0x3684 DUP2 PUSH2 0x338B JUMP JUMPDEST SWAP1 POP SWAP2 SWAP1 POP JUMP JUMPDEST PUSH1 0x0 PUSH1 0x20 DUP3 ADD SWAP1 POP DUP2 DUP2 SUB PUSH1 0x0 DUP4 ADD MSTORE PUSH2 0x36A4 DUP2 PUSH2 0x33AE JUMP JUMPDEST SWAP1 POP SWAP2 SWAP1 POP JUMP JUMPDEST PUSH1 0x0 PUSH1 0x20 DUP3 ADD SWAP1 POP DUP2 DUP2 SUB PUSH1 0x0 DUP4 ADD MSTORE PUSH2 0x36C4 DUP2 PUSH2 0x33D1 JUMP JUMPDEST SWAP1 POP SWAP2 SWAP1 POP JUMP JUMPDEST PUSH1 0x0 PUSH1 0x20 DUP3 ADD SWAP1 POP DUP2 DUP2 SUB PUSH1 0x0 DUP4 ADD MSTORE PUSH2 0x36E4 DUP2 PUSH2 0x33F4 JUMP JUMPDEST SWAP1 POP SWAP2 SWAP1 POP JUMP JUMPDEST PUSH1 0x0 PUSH1 0x20 DUP3 ADD SWAP1 POP DUP2 DUP2 SUB PUSH1 0x0 DUP4 ADD MSTORE PUSH2 0x3704 DUP2 PUSH2 0x3417 JUMP JUMPDEST SWAP1 POP SWAP2 SWAP1 POP JUMP JUMPDEST PUSH1 0x0 PUSH2 0x3715 PUSH2 0x3726 JUMP JUMPDEST SWAP1 POP PUSH2 0x3721 DUP3 DUP3 PUSH2 0x391C JUMP JUMPDEST SWAP2 SWAP1 POP JUMP JUMPDEST PUSH1 0x0 PUSH1 0x40 MLOAD SWAP1 POP SWAP1 JUMP JUMPDEST PUSH1 0x0 PUSH8 0xFFFFFFFFFFFFFFFF DUP3 GT ISZERO PUSH2 0x374B JUMPI PUSH2 0x374A PUSH2 0x39AB JUMP JUMPDEST JUMPDEST PUSH2 0x3754 DUP3 PUSH2 0x39EE JUMP JUMPDEST SWAP1 POP PUSH1 0x20 DUP2 ADD SWAP1 POP SWAP2 SWAP1 POP JUMP JUMPDEST PUSH1 0x0 DUP2 SWAP1 POP PUSH1 0x20 DUP3 ADD SWAP1 POP SWAP2 SWAP1 POP JUMP JUMPDEST PUSH1 0x0 DUP2 SWAP1 POP PUSH1 0x20 DUP3 ADD SWAP1 POP SWAP2 SWAP1 POP JUMP JUMPDEST PUSH1 0x0 DUP2 SWAP1 POP PUSH1 0x20 DUP3 ADD SWAP1 POP SWAP2 SWAP1 POP JUMP JUMPDEST PUSH1 0x0 DUP2 MLOAD SWAP1 POP SWAP2 SWAP1 POP JUMP JUMPDEST PUSH1 0x0 DUP2 MLOAD SWAP1 POP SWAP2 SWAP1 POP JUMP JUMPDEST PUSH1 0x0 DUP2 MLOAD SWAP1 POP SWAP2 SWAP1 POP JUMP JUMPDEST PUSH1 0x0 DUP2 MLOAD SWAP1 POP SWAP2 SWAP1 POP JUMP JUMPDEST PUSH1 0x0 PUSH1 0x20 DUP3 ADD SWAP1 POP SWAP2 SWAP1 POP JUMP JUMPDEST PUSH1 0x0 PUSH1 0x20 DUP3 ADD SWAP1 POP SWAP2 SWAP1 POP JUMP JUMPDEST PUSH1 0x0 PUSH1 0x20 DUP3 ADD SWAP1 POP SWAP2 SWAP1 POP JUMP JUMPDEST PUSH1 0x0 DUP3 DUP3 MSTORE PUSH1 0x20 DUP3 ADD SWAP1 POP SWAP3 SWAP2 POP POP JUMP JUMPDEST PUSH1 0x0 DUP3 DUP3 MSTORE PUSH1 0x20 DUP3 ADD SWAP1 POP SWAP3 SWAP2 POP POP JUMP JUMPDEST PUSH1 0x0 DUP3 DUP3 MSTORE PUSH1 0x20 DUP3 ADD SWAP1 POP SWAP3 SWAP2 POP POP JUMP JUMPDEST PUSH1 0x0 DUP3 DUP3 MSTORE PUSH1 0x20 DUP3 ADD SWAP1 POP SWAP3 SWAP2 POP POP JUMP JUMPDEST PUSH1 0x0 DUP3 DUP3 MSTORE PUSH1 0x20 DUP3 ADD SWAP1 POP SWAP3 SWAP2 POP POP JUMP JUMPDEST PUSH1 0x0 DUP2 SWAP1 POP SWAP3 SWAP2 POP POP JUMP JUMPDEST PUSH1 0x0 PUSH2 0x384F DUP3 PUSH2 0x387E JUMP JUMPDEST SWAP1 POP SWAP2 SWAP1 POP JUMP JUMPDEST PUSH1 0x0 PUSH2 0x3861 DUP3 PUSH2 0x387E JUMP JUMPDEST SWAP1 POP SWAP2 SWAP1 POP JUMP JUMPDEST PUSH1 0x0 DUP2 ISZERO ISZERO SWAP1 POP SWAP2 SWAP1 POP JUMP JUMPDEST PUSH1 0x0 DUP2 SWAP1 POP SWAP2 SWAP1 POP JUMP JUMPDEST PUSH1 0x0 PUSH20 0xFFFFFFFFFFFFFFFFFFFFFFFFFFFFFFFFFFFFFFFF DUP3 AND SWAP1 POP SWAP2 SWAP1 POP JUMP JUMPDEST PUSH1 0x0 DUP2 SWAP1 POP SWAP2 SWAP1 POP JUMP JUMPDEST DUP3 DUP2 DUP4 CALLDATACOPY PUSH1 0x0 DUP4 DUP4 ADD MSTORE POP POP POP JUMP JUMPDEST PUSH1 0x0 JUMPDEST DUP4 DUP2 LT ISZERO PUSH2 0x38D5 JUMPI DUP1 DUP3 ADD MLOAD DUP2 DUP5 ADD MSTORE PUSH1 0x20 DUP2 ADD SWAP1 POP PUSH2 0x38BA JUMP JUMPDEST DUP4 DUP2 GT ISZERO PUSH2 0x38E4 JUMPI PUSH1 0x0 DUP5 DUP5 ADD MSTORE JUMPDEST POP POP POP POP JUMP JUMPDEST PUSH1 0x0 PUSH1 0x2 DUP3 DIV SWAP1 POP PUSH1 0x1 DUP3 AND DUP1 PUSH2 0x3902 JUMPI PUSH1 0x7F DUP3 AND SWAP2 POP JUMPDEST PUSH1 0x20 DUP3 LT DUP2 EQ ISZERO PUSH2 0x3916 JUMPI PUSH2 0x3915 PUSH2 0x397C JUMP JUMPDEST JUMPDEST POP SWAP2 SWAP1 POP JUMP JUMPDEST PUSH2 0x3925 DUP3 PUSH2 0x39EE JUMP JUMPDEST DUP2 ADD DUP2 DUP2 LT PUSH8 0xFFFFFFFFFFFFFFFF DUP3 GT OR ISZERO PUSH2 0x3944 JUMPI PUSH2 0x3943 PUSH2 0x39AB JUMP JUMPDEST JUMPDEST DUP1 PUSH1 0x40 MSTORE POP POP POP JUMP JUMPDEST PUSH32 0x4E487B7100000000000000000000000000000000000000000000000000000000 PUSH1 0x0 MSTORE PUSH1 0x21 PUSH1 0x4 MSTORE PUSH1 0x24 PUSH1 0x0 REVERT JUMPDEST PUSH32 0x4E487B7100000000000000000000000000000000000000000000000000000000 PUSH1 0x0 MSTORE PUSH1 0x22 PUSH1 0x4 MSTORE PUSH1 0x24 PUSH1 0x0 REVERT JUMPDEST PUSH32 0x4E487B7100000000000000000000000000000000000000000000000000000000 PUSH1 0x0 MSTORE PUSH1 0x41 PUSH1 0x4 MSTORE PUSH1 0x24 PUSH1 0x0 REVERT JUMPDEST PUSH1 0x0 DUP1 REVERT JUMPDEST PUSH1 0x0 DUP1 REVERT JUMPDEST PUSH1 0x0 DUP1 REVERT JUMPDEST PUSH1 0x0 DUP1 REVERT JUMPDEST PUSH1 0x0 PUSH1 0x1F NOT PUSH1 0x1F DUP4 ADD AND SWAP1 POP SWAP2 SWAP1 POP JUMP JUMPDEST PUSH32 0x596F7572206C6F67696E20616C726561647920657869737420696E2073797374 PUSH1 0x0 DUP3 ADD MSTORE PUSH32 0x656D000000000000000000000000000000000000000000000000000000000000 PUSH1 0x20 DUP3 ADD MSTORE POP JUMP JUMPDEST PUSH32 0x4C6F772062616C616E6365000000000000000000000000000000000000000000 PUSH1 0x0 DUP3 ADD MSTORE POP JUMP JUMPDEST PUSH32 0x466F7262696464656E0000000000000000000000000000000000000000000000 PUSH1 0x0 DUP3 ADD MSTORE POP JUMP JUMPDEST PUSH32 0x596F75206E6F7420757365720000000000000000000000000000000000000000 PUSH1 0x0 DUP3 ADD MSTORE POP JUMP JUMPDEST PUSH32 0x596F75206E6F742061646D696E00000000000000000000000000000000000000 PUSH1 0x0 DUP3 ADD MSTORE POP JUMP JUMPDEST PUSH32 0x596F7520616C7265616479207265676973746572656400000000000000000000 PUSH1 0x0 DUP3 ADD MSTORE POP JUMP JUMPDEST PUSH32 0x57726F6E67204C6F67696E000000000000000000000000000000000000000000 PUSH1 0x0 DUP3 ADD MSTORE POP JUMP JUMPDEST PUSH2 0x3B4D DUP2 PUSH2 0x3844 JUMP JUMPDEST DUP2 EQ PUSH2 0x3B58 JUMPI PUSH1 0x0 DUP1 REVERT JUMPDEST POP JUMP JUMPDEST PUSH2 0x3B64 DUP2 PUSH2 0x3856 JUMP JUMPDEST DUP2 EQ PUSH2 0x3B6F JUMPI PUSH1 0x0 DUP1 REVERT JUMPDEST POP JUMP JUMPDEST PUSH2 0x3B7B DUP2 PUSH2 0x3874 JUMP JUMPDEST DUP2 EQ PUSH2 0x3B86 JUMPI PUSH1 0x0 DUP1 REVERT JUMPDEST POP JUMP INVALID LOG2 PUSH5 0x6970667358 0x22 SLT KECCAK256 0xB7 0xDB 0x1F 0xB9 0xBB MULMOD EXTCODECOPY CALL COINBASE 0x1E 0x4D PUSH4 0x1555D9BA 0xFC 0x1E JUMPDEST 0x24 0xF9 0xDB PUSH25 0x2D140644CC810A362F64736F6C634300080700330000000000 "
				},
				"gasEstimates": {
					"creation": {
						"codeDepositCost": "3059000",
						"executionCost": "infinite",
						"totalCost": "infinite"
					},
					"external": {
						"createReview(address,string,string,int256)": "infinite",
						"doShopDebt(address)": "infinite",
						"getAdminInfo()": "infinite",
						"getBuyerInfo()": "infinite",
						"getSellerInfo()": "infinite",
						"getSellerInfoByAddr(address)": "infinite",
						"likeReview(string)": "infinite",
						"login(string)": "infinite",
						"regAdmin(address,string,string)": "infinite",
						"registerAdmin(string,string)": "infinite",
						"registerBank(string,address)": "infinite",
						"registerBuyer(string,string,address)": "infinite",
						"registerProvider(string,address)": "infinite",
						"registerSeller(string,string,address,address)": "infinite",
						"registerShop(address,string,string,string)": "infinite"
					}
				},
				"methodIdentifiers": {
					"createReview(address,string,string,int256)": "2d6abf59",
					"doShopDebt(address)": "83db0f6d",
					"getAdminInfo()": "c3d5fd39",
					"getBuyerInfo()": "99b958ee",
					"getSellerInfo()": "54504c12",
					"getSellerInfoByAddr(address)": "08e74858",
					"likeReview(string)": "7b3c7488",
					"login(string)": "3a7d280c",
					"regAdmin(address,string,string)": "a59d105f",
					"registerAdmin(string,string)": "f8f98b79",
					"registerBank(string,address)": "2156a781",
					"registerBuyer(string,string,address)": "9d344d10",
					"registerProvider(string,address)": "7ccb2bd8",
					"registerSeller(string,string,address,address)": "8403f848",
					"registerShop(address,string,string,string)": "7558b2f8"
				}
			},
			"storageLayout": {
				"storage": [
					{
						"astId": 35,
						"contract": "contracts/Shops.sol:ShopsSystem",
						"label": "userStatus",
						"offset": 0,
						"slot": "0",
						"type": "t_mapping(t_uint256,t_string_storage)"
					},
					{
						"astId": 39,
						"contract": "contracts/Shops.sol:ShopsSystem",
						"label": "userLogins",
						"offset": 0,
						"slot": "1",
						"type": "t_mapping(t_string_memory_ptr,t_address)"
					},
					{
						"astId": 44,
						"contract": "contracts/Shops.sol:ShopsSystem",
						"label": "users",
						"offset": 0,
						"slot": "2",
						"type": "t_mapping(t_address,t_struct(User)31_storage)"
					},
					{
						"astId": 333,
						"contract": "contracts/Shops.sol:ShopsSystem",
						"label": "provider",
						"offset": 0,
						"slot": "3",
						"type": "t_address"
					},
					{
						"astId": 335,
						"contract": "contracts/Shops.sol:ShopsSystem",
						"label": "admin",
						"offset": 0,
						"slot": "4",
						"type": "t_address"
					},
					{
						"astId": 338,
						"contract": "contracts/Shops.sol:ShopsSystem",
						"label": "admins",
						"offset": 0,
						"slot": "5",
						"type": "t_array(t_string_storage)dyn_storage"
					},
					{
						"astId": 340,
						"contract": "contracts/Shops.sol:ShopsSystem",
						"label": "bank",
						"offset": 0,
						"slot": "6",
						"type": "t_address_payable"
					},
					{
						"astId": 343,
						"contract": "contracts/Shops.sol:ShopsSystem",
						"label": "sellers",
						"offset": 0,
						"slot": "7",
						"type": "t_array(t_address)dyn_storage"
					},
					{
						"astId": 346,
						"contract": "contracts/Shops.sol:ShopsSystem",
						"label": "shopsAddresses",
						"offset": 0,
						"slot": "8",
						"type": "t_array(t_address)dyn_storage"
					},
					{
						"astId": 350,
						"contract": "contracts/Shops.sol:ShopsSystem",
						"label": "requests",
						"offset": 0,
						"slot": "9",
						"type": "t_array(t_struct(Request)329_storage)dyn_storage"
					},
					{
						"astId": 355,
						"contract": "contracts/Shops.sol:ShopsSystem",
						"label": "ShopsList",
						"offset": 0,
						"slot": "10",
						"type": "t_mapping(t_address,t_struct(Shop)320_storage)"
					},
					{
						"astId": 359,
						"contract": "contracts/Shops.sol:ShopsSystem",
						"label": "salesmanShop",
						"offset": 0,
						"slot": "11",
						"type": "t_mapping(t_address,t_address)"
					},
					{
						"astId": 364,
						"contract": "contracts/Shops.sol:ShopsSystem",
						"label": "salesmen",
						"offset": 0,
						"slot": "12",
						"type": "t_mapping(t_address,t_array(t_address)dyn_storage)"
					},
					{
						"astId": 369,
						"contract": "contracts/Shops.sol:ShopsSystem",
						"label": "shopReviews",
						"offset": 0,
						"slot": "13",
						"type": "t_mapping(t_address,t_array(t_string_storage)dyn_storage)"
					},
					{
						"astId": 374,
						"contract": "contracts/Shops.sol:ShopsSystem",
						"label": "reviewId",
						"offset": 0,
						"slot": "14",
						"type": "t_mapping(t_string_memory_ptr,t_struct(Review)21_storage)"
					}
				],
				"types": {
					"t_address": {
						"encoding": "inplace",
						"label": "address",
						"numberOfBytes": "20"
					},
					"t_address_payable": {
						"encoding": "inplace",
						"label": "address payable",
						"numberOfBytes": "20"
					},
					"t_array(t_address)dyn_storage": {
						"base": "t_address",
						"encoding": "dynamic_array",
						"label": "address[]",
						"numberOfBytes": "32"
					},
					"t_array(t_string_storage)dyn_storage": {
						"base": "t_string_storage",
						"encoding": "dynamic_array",
						"label": "string[]",
						"numberOfBytes": "32"
					},
					"t_array(t_struct(Request)329_storage)dyn_storage": {
						"base": "t_struct(Request)329_storage",
						"encoding": "dynamic_array",
						"label": "struct Request[]",
						"numberOfBytes": "32"
					},
					"t_bool": {
						"encoding": "inplace",
						"label": "bool",
						"numberOfBytes": "1"
					},
					"t_int256": {
						"encoding": "inplace",
						"label": "int256",
						"numberOfBytes": "32"
					},
					"t_mapping(t_address,t_address)": {
						"encoding": "mapping",
						"key": "t_address",
						"label": "mapping(address => address)",
						"numberOfBytes": "32",
						"value": "t_address"
					},
					"t_mapping(t_address,t_array(t_address)dyn_storage)": {
						"encoding": "mapping",
						"key": "t_address",
						"label": "mapping(address => address[])",
						"numberOfBytes": "32",
						"value": "t_array(t_address)dyn_storage"
					},
					"t_mapping(t_address,t_array(t_string_storage)dyn_storage)": {
						"encoding": "mapping",
						"key": "t_address",
						"label": "mapping(address => string[])",
						"numberOfBytes": "32",
						"value": "t_array(t_string_storage)dyn_storage"
					},
					"t_mapping(t_address,t_struct(Shop)320_storage)": {
						"encoding": "mapping",
						"key": "t_address",
						"label": "mapping(address => struct Shop)",
						"numberOfBytes": "32",
						"value": "t_struct(Shop)320_storage"
					},
					"t_mapping(t_address,t_struct(User)31_storage)": {
						"encoding": "mapping",
						"key": "t_address",
						"label": "mapping(address => struct User)",
						"numberOfBytes": "32",
						"value": "t_struct(User)31_storage"
					},
					"t_mapping(t_string_memory_ptr,t_address)": {
						"encoding": "mapping",
						"key": "t_string_memory_ptr",
						"label": "mapping(string => address)",
						"numberOfBytes": "32",
						"value": "t_address"
					},
					"t_mapping(t_string_memory_ptr,t_struct(Review)21_storage)": {
						"encoding": "mapping",
						"key": "t_string_memory_ptr",
						"label": "mapping(string => struct Review)",
						"numberOfBytes": "32",
						"value": "t_struct(Review)21_storage"
					},
					"t_mapping(t_uint256,t_string_storage)": {
						"encoding": "mapping",
						"key": "t_uint256",
						"label": "mapping(uint256 => string)",
						"numberOfBytes": "32",
						"value": "t_string_storage"
					},
					"t_string_memory_ptr": {
						"encoding": "bytes",
						"label": "string",
						"numberOfBytes": "32"
					},
					"t_string_storage": {
						"encoding": "bytes",
						"label": "string",
						"numberOfBytes": "32"
					},
					"t_struct(Request)329_storage": {
						"encoding": "inplace",
						"label": "struct Request",
						"members": [
							{
								"astId": 322,
								"contract": "contracts/Shops.sol:ShopsSystem",
								"label": "userAddr",
								"offset": 0,
								"slot": "0",
								"type": "t_address"
							},
							{
								"astId": 324,
								"contract": "contracts/Shops.sol:ShopsSystem",
								"label": "currentRole",
								"offset": 0,
								"slot": "1",
								"type": "t_string_storage"
							},
							{
								"astId": 326,
								"contract": "contracts/Shops.sol:ShopsSystem",
								"label": "desiredRole",
								"offset": 0,
								"slot": "2",
								"type": "t_string_storage"
							},
							{
								"astId": 328,
								"contract": "contracts/Shops.sol:ShopsSystem",
								"label": "checked",
								"offset": 0,
								"slot": "3",
								"type": "t_bool"
							}
						],
						"numberOfBytes": "128"
					},
					"t_struct(Review)21_storage": {
						"encoding": "inplace",
						"label": "struct Review",
						"members": [
							{
								"astId": 10,
								"contract": "contracts/Shops.sol:ShopsSystem",
								"label": "autorAddress",
								"offset": 0,
								"slot": "0",
								"type": "t_address"
							},
							{
								"astId": 12,
								"contract": "contracts/Shops.sol:ShopsSystem",
								"label": "shopAddr",
								"offset": 0,
								"slot": "1",
								"type": "t_address"
							},
							{
								"astId": 14,
								"contract": "contracts/Shops.sol:ShopsSystem",
								"label": "message",
								"offset": 0,
								"slot": "2",
								"type": "t_string_storage"
							},
							{
								"astId": 16,
								"contract": "contracts/Shops.sol:ShopsSystem",
								"label": "likeCount",
								"offset": 0,
								"slot": "3",
								"type": "t_int256"
							},
							{
								"astId": 18,
								"contract": "contracts/Shops.sol:ShopsSystem",
								"label": "dizlikeCount",
								"offset": 0,
								"slot": "4",
								"type": "t_int256"
							},
							{
								"astId": 20,
								"contract": "contracts/Shops.sol:ShopsSystem",
								"label": "grade",
								"offset": 0,
								"slot": "5",
								"type": "t_int256"
							}
						],
						"numberOfBytes": "192"
					},
					"t_struct(Shop)320_storage": {
						"encoding": "inplace",
						"label": "struct Shop",
						"members": [
							{
								"astId": 315,
								"contract": "contracts/Shops.sol:ShopsSystem",
								"label": "number",
								"offset": 0,
								"slot": "0",
								"type": "t_string_storage"
							},
							{
								"astId": 317,
								"contract": "contracts/Shops.sol:ShopsSystem",
								"label": "city",
								"offset": 0,
								"slot": "1",
								"type": "t_string_storage"
							},
							{
								"astId": 319,
								"contract": "contracts/Shops.sol:ShopsSystem",
								"label": "debt",
								"offset": 0,
								"slot": "2",
								"type": "t_int256"
							}
						],
						"numberOfBytes": "96"
					},
					"t_struct(User)31_storage": {
						"encoding": "inplace",
						"label": "struct User",
						"members": [
							{
								"astId": 23,
								"contract": "contracts/Shops.sol:ShopsSystem",
								"label": "status",
								"offset": 0,
								"slot": "0",
								"type": "t_uint256"
							},
							{
								"astId": 25,
								"contract": "contracts/Shops.sol:ShopsSystem",
								"label": "userLogin",
								"offset": 0,
								"slot": "1",
								"type": "t_string_storage"
							},
							{
								"astId": 27,
								"contract": "contracts/Shops.sol:ShopsSystem",
								"label": "fio",
								"offset": 0,
								"slot": "2",
								"type": "t_string_storage"
							},
							{
								"astId": 30,
								"contract": "contracts/Shops.sol:ShopsSystem",
								"label": "reviews",
								"offset": 0,
								"slot": "3",
								"type": "t_array(t_string_storage)dyn_storage"
							}
						],
						"numberOfBytes": "128"
					},
					"t_uint256": {
						"encoding": "inplace",
						"label": "uint256",
						"numberOfBytes": "32"
					}
				}
			},
			"userdoc": {
				"kind": "user",
				"methods": {},
				"version": 1
			}
		}
	}
}