{
	"contracts/Colhoz.sol": {
		"Colhoz": {
			"abi": [
				{
					"inputs": [
						{
							"components": [
								{
									"internalType": "address",
									"name": "userAddr",
									"type": "address"
								},
								{
									"internalType": "string",
									"name": "login",
									"type": "string"
								},
								{
									"internalType": "string",
									"name": "password",
									"type": "string"
								},
								{
									"internalType": "string",
									"name": "fio",
									"type": "string"
								},
								{
									"internalType": "string",
									"name": "status",
									"type": "string"
								}
							],
							"internalType": "struct User",
							"name": "admin",
							"type": "tuple"
						}
					],
					"name": "add_admin",
					"outputs": [],
					"stateMutability": "nonpayable",
					"type": "function"
				},
				{
					"inputs": [
						{
							"components": [
								{
									"internalType": "address",
									"name": "userAddr",
									"type": "address"
								},
								{
									"internalType": "string",
									"name": "login",
									"type": "string"
								},
								{
									"internalType": "string",
									"name": "password",
									"type": "string"
								},
								{
									"internalType": "string",
									"name": "fio",
									"type": "string"
								},
								{
									"internalType": "string",
									"name": "status",
									"type": "string"
								}
							],
							"internalType": "struct User",
							"name": "user",
							"type": "tuple"
						}
					],
					"name": "add_buyer",
					"outputs": [],
					"stateMutability": "nonpayable",
					"type": "function"
				},
				{
					"inputs": [
						{
							"internalType": "uint256",
							"name": "",
							"type": "uint256"
						}
					],
					"name": "admins",
					"outputs": [
						{
							"internalType": "address",
							"name": "userAddr",
							"type": "address"
						},
						{
							"internalType": "string",
							"name": "login",
							"type": "string"
						},
						{
							"internalType": "string",
							"name": "password",
							"type": "string"
						},
						{
							"internalType": "string",
							"name": "fio",
							"type": "string"
						},
						{
							"internalType": "string",
							"name": "status",
							"type": "string"
						}
					],
					"stateMutability": "view",
					"type": "function"
				},
				{
					"inputs": [],
					"name": "bank",
					"outputs": [
						{
							"internalType": "address",
							"name": "",
							"type": "address"
						}
					],
					"stateMutability": "view",
					"type": "function"
				},
				{
					"inputs": [
						{
							"internalType": "uint256",
							"name": "",
							"type": "uint256"
						}
					],
					"name": "buyers",
					"outputs": [
						{
							"internalType": "address",
							"name": "userAddr",
							"type": "address"
						},
						{
							"internalType": "string",
							"name": "login",
							"type": "string"
						},
						{
							"internalType": "string",
							"name": "password",
							"type": "string"
						},
						{
							"internalType": "string",
							"name": "fio",
							"type": "string"
						},
						{
							"internalType": "string",
							"name": "status",
							"type": "string"
						}
					],
					"stateMutability": "view",
					"type": "function"
				},
				{
					"inputs": [],
					"name": "provider",
					"outputs": [
						{
							"internalType": "address",
							"name": "",
							"type": "address"
						}
					],
					"stateMutability": "view",
					"type": "function"
				},
				{
					"inputs": [
						{
							"internalType": "uint256",
							"name": "index",
							"type": "uint256"
						}
					],
					"name": "remove_buyer",
					"outputs": [],
					"stateMutability": "nonpayable",
					"type": "function"
				},
				{
					"inputs": [
						{
							"internalType": "uint256",
							"name": "",
							"type": "uint256"
						}
					],
					"name": "requests",
					"outputs": [
						{
							"internalType": "address",
							"name": "autor",
							"type": "address"
						},
						{
							"internalType": "string",
							"name": "currentRole",
							"type": "string"
						},
						{
							"internalType": "string",
							"name": "desiredRole",
							"type": "string"
						}
					],
					"stateMutability": "view",
					"type": "function"
				},
				{
					"inputs": [
						{
							"internalType": "uint256",
							"name": "",
							"type": "uint256"
						}
					],
					"name": "reviews",
					"outputs": [
						{
							"internalType": "address",
							"name": "autor",
							"type": "address"
						},
						{
							"internalType": "string",
							"name": "message",
							"type": "string"
						},
						{
							"internalType": "string",
							"name": "shopId",
							"type": "string"
						}
					],
					"stateMutability": "view",
					"type": "function"
				},
				{
					"inputs": [
						{
							"internalType": "uint256",
							"name": "",
							"type": "uint256"
						}
					],
					"name": "sellers",
					"outputs": [
						{
							"internalType": "address",
							"name": "userAddr",
							"type": "address"
						},
						{
							"internalType": "string",
							"name": "login",
							"type": "string"
						},
						{
							"internalType": "string",
							"name": "password",
							"type": "string"
						},
						{
							"internalType": "string",
							"name": "fio",
							"type": "string"
						},
						{
							"internalType": "string",
							"name": "status",
							"type": "string"
						},
						{
							"internalType": "string",
							"name": "shopId",
							"type": "string"
						}
					],
					"stateMutability": "view",
					"type": "function"
				},
				{
					"inputs": [
						{
							"internalType": "address",
							"name": "_bank",
							"type": "address"
						}
					],
					"name": "set_bank",
					"outputs": [],
					"stateMutability": "nonpayable",
					"type": "function"
				},
				{
					"inputs": [
						{
							"internalType": "address",
							"name": "_provider",
							"type": "address"
						}
					],
					"name": "set_provider",
					"outputs": [],
					"stateMutability": "nonpayable",
					"type": "function"
				},
				{
					"inputs": [
						{
							"internalType": "uint256",
							"name": "",
							"type": "uint256"
						}
					],
					"name": "shops",
					"outputs": [
						{
							"internalType": "string",
							"name": "shopId",
							"type": "string"
						},
						{
							"internalType": "address",
							"name": "shopAddr",
							"type": "address"
						},
						{
							"internalType": "string",
							"name": "number",
							"type": "string"
						},
						{
							"internalType": "string",
							"name": "city",
							"type": "string"
						}
					],
					"stateMutability": "view",
					"type": "function"
				},
				{
					"inputs": [
						{
							"internalType": "uint256",
							"name": "index",
							"type": "uint256"
						},
						{
							"components": [
								{
									"internalType": "address",
									"name": "userAddr",
									"type": "address"
								},
								{
									"internalType": "string",
									"name": "login",
									"type": "string"
								},
								{
									"internalType": "string",
									"name": "password",
									"type": "string"
								},
								{
									"internalType": "string",
									"name": "fio",
									"type": "string"
								},
								{
									"internalType": "string",
									"name": "status",
									"type": "string"
								}
							],
							"internalType": "struct User",
							"name": "user",
							"type": "tuple"
						}
					],
					"name": "update_buyer",
					"outputs": [],
					"stateMutability": "nonpayable",
					"type": "function"
				}
			],
			"devdoc": {
				"kind": "dev",
				"methods": {},
				"version": 1
			},
			"evm": {
				"assembly": "    /* \"contracts/Colhoz.sol\":612:1886  contract Colhoz{... */\n  mstore(0x40, 0x80)\n  callvalue\n  dup1\n  iszero\n  tag_1\n  jumpi\n  0x00\n  dup1\n  revert\ntag_1:\n  pop\n  dataSize(sub_0)\n  dup1\n  dataOffset(sub_0)\n  0x00\n  codecopy\n  0x00\n  return\nstop\n\nsub_0: assembly {\n        /* \"contracts/Colhoz.sol\":612:1886  contract Colhoz{... */\n      mstore(0x40, 0x80)\n      callvalue\n      dup1\n      iszero\n      tag_1\n      jumpi\n      0x00\n      dup1\n      revert\n    tag_1:\n      pop\n      jumpi(tag_2, lt(calldatasize, 0x04))\n      shr(0xe0, calldataload(0x00))\n      dup1\n      0xb29f04fe\n      gt\n      tag_17\n      jumpi\n      dup1\n      0xdacf64e2\n      gt\n      tag_18\n      jumpi\n      dup1\n      0xdacf64e2\n      eq\n      tag_13\n      jumpi\n      dup1\n      0xe83ddcea\n      eq\n      tag_14\n      jumpi\n      dup1\n      0xf2aa8218\n      eq\n      tag_15\n      jumpi\n      dup1\n      0xf73c5683\n      eq\n      tag_16\n      jumpi\n      jump(tag_2)\n    tag_18:\n      dup1\n      0xb29f04fe\n      eq\n      tag_10\n      jumpi\n      dup1\n      0xb78842ee\n      eq\n      tag_11\n      jumpi\n      dup1\n      0xcee26ed5\n      eq\n      tag_12\n      jumpi\n      jump(tag_2)\n    tag_17:\n      dup1\n      0x76cdb03b\n      gt\n      tag_19\n      jumpi\n      dup1\n      0x76cdb03b\n      eq\n      tag_6\n      jumpi\n      dup1\n      0x81d12c58\n      eq\n      tag_7\n      jumpi\n      dup1\n      0x856c799d\n      eq\n      tag_8\n      jumpi\n      dup1\n      0x98168b94\n      eq\n      tag_9\n      jumpi\n      jump(tag_2)\n    tag_19:\n      dup1\n      0x085d4883\n      eq\n      tag_3\n      jumpi\n      dup1\n      0x14bfd6d0\n      eq\n      tag_4\n      jumpi\n      dup1\n      0x713aca74\n      eq\n      tag_5\n      jumpi\n    tag_2:\n      0x00\n      dup1\n      revert\n        /* \"contracts/Colhoz.sol\":634:657  address public provider */\n    tag_3:\n      tag_20\n      tag_21\n      jump\t// in\n    tag_20:\n      mload(0x40)\n      tag_22\n      swap2\n      swap1\n      tag_23\n      jump\t// in\n    tag_22:\n      mload(0x40)\n      dup1\n      swap2\n      sub\n      swap1\n      return\n        /* \"contracts/Colhoz.sol\":716:736  User[] public admins */\n    tag_4:\n      tag_24\n      0x04\n      dup1\n      calldatasize\n      sub\n      dup2\n      add\n      swap1\n      tag_25\n      swap2\n      swap1\n      tag_26\n      jump\t// in\n    tag_25:\n      tag_27\n      jump\t// in\n    tag_24:\n      mload(0x40)\n      tag_28\n      swap6\n      swap5\n      swap4\n      swap3\n      swap2\n      swap1\n      tag_29\n      jump\t// in\n    tag_28:\n      mload(0x40)\n      dup1\n      swap2\n      sub\n      swap1\n      return\n        /* \"contracts/Colhoz.sol\":773:792  Shop[] public shops */\n    tag_5:\n      tag_30\n      0x04\n      dup1\n      calldatasize\n      sub\n      dup2\n      add\n      swap1\n      tag_31\n      swap2\n      swap1\n      tag_26\n      jump\t// in\n    tag_31:\n      tag_32\n      jump\t// in\n    tag_30:\n      mload(0x40)\n      tag_33\n      swap5\n      swap4\n      swap3\n      swap2\n      swap1\n      tag_34\n      jump\t// in\n    tag_33:\n      mload(0x40)\n      dup1\n      swap2\n      sub\n      swap1\n      return\n        /* \"contracts/Colhoz.sol\":663:682  address public bank */\n    tag_6:\n      tag_35\n      tag_36\n      jump\t// in\n    tag_35:\n      mload(0x40)\n      tag_37\n      swap2\n      swap1\n      tag_23\n      jump\t// in\n    tag_37:\n      mload(0x40)\n      dup1\n      swap2\n      sub\n      swap1\n      return\n        /* \"contracts/Colhoz.sol\":829:854  Request[] public requests */\n    tag_7:\n      tag_38\n      0x04\n      dup1\n      calldatasize\n      sub\n      dup2\n      add\n      swap1\n      tag_39\n      swap2\n      swap1\n      tag_26\n      jump\t// in\n    tag_39:\n      tag_40\n      jump\t// in\n    tag_38:\n      mload(0x40)\n      tag_41\n      swap4\n      swap3\n      swap2\n      swap1\n      tag_42\n      jump\t// in\n    tag_41:\n      mload(0x40)\n      dup1\n      swap2\n      sub\n      swap1\n      return\n        /* \"contracts/Colhoz.sol\":1031:1109  function add_buyer(User memory user) public {... */\n    tag_8:\n      tag_43\n      0x04\n      dup1\n      calldatasize\n      sub\n      dup2\n      add\n      swap1\n      tag_44\n      swap2\n      swap1\n      tag_45\n      jump\t// in\n    tag_44:\n      tag_46\n      jump\t// in\n    tag_43:\n      stop\n        /* \"contracts/Colhoz.sol\":1199:1294  function update_buyer(uint index,User memory user) public {... */\n    tag_9:\n      tag_47\n      0x04\n      dup1\n      calldatasize\n      sub\n      dup2\n      add\n      swap1\n      tag_48\n      swap2\n      swap1\n      tag_49\n      jump\t// in\n    tag_48:\n      tag_50\n      jump\t// in\n    tag_47:\n      stop\n        /* \"contracts/Colhoz.sol\":861:946  function set_provider(address _provider) public {... */\n    tag_10:\n      tag_51\n      0x04\n      dup1\n      calldatasize\n      sub\n      dup2\n      add\n      swap1\n      tag_52\n      swap2\n      swap1\n      tag_53\n      jump\t// in\n    tag_52:\n      tag_54\n      jump\t// in\n    tag_51:\n      stop\n        /* \"contracts/Colhoz.sol\":1115:1193  function remove_buyer(uint index) public {... */\n    tag_11:\n      tag_55\n      0x04\n      dup1\n      calldatasize\n      sub\n      dup2\n      add\n      swap1\n      tag_56\n      swap2\n      swap1\n      tag_26\n      jump\t// in\n    tag_56:\n      tag_57\n      jump\t// in\n    tag_55:\n      stop\n        /* \"contracts/Colhoz.sol\":743:766  Seller[] public sellers */\n    tag_12:\n      tag_58\n      0x04\n      dup1\n      calldatasize\n      sub\n      dup2\n      add\n      swap1\n      tag_59\n      swap2\n      swap1\n      tag_26\n      jump\t// in\n    tag_59:\n      tag_60\n      jump\t// in\n    tag_58:\n      mload(0x40)\n      tag_61\n      swap7\n      swap6\n      swap5\n      swap4\n      swap3\n      swap2\n      swap1\n      tag_62\n      jump\t// in\n    tag_61:\n      mload(0x40)\n      dup1\n      swap2\n      sub\n      swap1\n      return\n        /* \"contracts/Colhoz.sol\":956:1025  function set_bank(address _bank) public {... */\n    tag_13:\n      tag_63\n      0x04\n      dup1\n      calldatasize\n      sub\n      dup2\n      add\n      swap1\n      tag_64\n      swap2\n      swap1\n      tag_53\n      jump\t// in\n    tag_64:\n      tag_65\n      jump\t// in\n    tag_63:\n      stop\n        /* \"contracts/Colhoz.sol\":799:822  Review[] public reviews */\n    tag_14:\n      tag_66\n      0x04\n      dup1\n      calldatasize\n      sub\n      dup2\n      add\n      swap1\n      tag_67\n      swap2\n      swap1\n      tag_26\n      jump\t// in\n    tag_67:\n      tag_68\n      jump\t// in\n    tag_66:\n      mload(0x40)\n      tag_69\n      swap4\n      swap3\n      swap2\n      swap1\n      tag_42\n      jump\t// in\n    tag_69:\n      mload(0x40)\n      dup1\n      swap2\n      sub\n      swap1\n      return\n        /* \"contracts/Colhoz.sol\":689:709  User[] public buyers */\n    tag_15:\n      tag_70\n      0x04\n      dup1\n      calldatasize\n      sub\n      dup2\n      add\n      swap1\n      tag_71\n      swap2\n      swap1\n      tag_26\n      jump\t// in\n    tag_71:\n      tag_72\n      jump\t// in\n    tag_70:\n      mload(0x40)\n      tag_73\n      swap6\n      swap5\n      swap4\n      swap3\n      swap2\n      swap1\n      tag_29\n      jump\t// in\n    tag_73:\n      mload(0x40)\n      dup1\n      swap2\n      sub\n      swap1\n      return\n        /* \"contracts/Colhoz.sol\":1300:1380  function add_admin(User memory admin) public {... */\n    tag_16:\n      tag_74\n      0x04\n      dup1\n      calldatasize\n      sub\n      dup2\n      add\n      swap1\n      tag_75\n      swap2\n      swap1\n      tag_45\n      jump\t// in\n    tag_75:\n      tag_76\n      jump\t// in\n    tag_74:\n      stop\n        /* \"contracts/Colhoz.sol\":634:657  address public provider */\n    tag_21:\n      0x00\n      dup1\n      sload\n      swap1\n      0x0100\n      exp\n      swap1\n      div\n      0xffffffffffffffffffffffffffffffffffffffff\n      and\n      dup2\n      jump\t// out\n        /* \"contracts/Colhoz.sol\":716:736  User[] public admins */\n    tag_27:\n      0x03\n      dup2\n      dup2\n      sload\n      dup2\n      lt\n      tag_77\n      jumpi\n      0x00\n      dup1\n      revert\n    tag_77:\n      swap1\n      0x00\n      mstore\n      keccak256(0x00, 0x20)\n      swap1\n      0x05\n      mul\n      add\n      0x00\n      swap2\n      pop\n      swap1\n      pop\n      dup1\n      0x00\n      add\n      0x00\n      swap1\n      sload\n      swap1\n      0x0100\n      exp\n      swap1\n      div\n      0xffffffffffffffffffffffffffffffffffffffff\n      and\n      swap1\n      dup1\n      0x01\n      add\n      dup1\n      sload\n      tag_79\n      swap1\n      tag_80\n      jump\t// in\n    tag_79:\n      dup1\n      0x1f\n      add\n      0x20\n      dup1\n      swap2\n      div\n      mul\n      0x20\n      add\n      mload(0x40)\n      swap1\n      dup2\n      add\n      0x40\n      mstore\n      dup1\n      swap3\n      swap2\n      swap1\n      dup2\n      dup2\n      mstore\n      0x20\n      add\n      dup3\n      dup1\n      sload\n      tag_81\n      swap1\n      tag_80\n      jump\t// in\n    tag_81:\n      dup1\n      iszero\n      tag_82\n      jumpi\n      dup1\n      0x1f\n      lt\n      tag_83\n      jumpi\n      0x0100\n      dup1\n      dup4\n      sload\n      div\n      mul\n      dup4\n      mstore\n      swap2\n      0x20\n      add\n      swap2\n      jump(tag_82)\n    tag_83:\n      dup3\n      add\n      swap2\n      swap1\n      0x00\n      mstore\n      keccak256(0x00, 0x20)\n      swap1\n    tag_84:\n      dup2\n      sload\n      dup2\n      mstore\n      swap1\n      0x01\n      add\n      swap1\n      0x20\n      add\n      dup1\n      dup4\n      gt\n      tag_84\n      jumpi\n      dup3\n      swap1\n      sub\n      0x1f\n      and\n      dup3\n      add\n      swap2\n    tag_82:\n      pop\n      pop\n      pop\n      pop\n      pop\n      swap1\n      dup1\n      0x02\n      add\n      dup1\n      sload\n      tag_85\n      swap1\n      tag_80\n      jump\t// in\n    tag_85:\n      dup1\n      0x1f\n      add\n      0x20\n      dup1\n      swap2\n      div\n      mul\n      0x20\n      add\n      mload(0x40)\n      swap1\n      dup2\n      add\n      0x40\n      mstore\n      dup1\n      swap3\n      swap2\n      swap1\n      dup2\n      dup2\n      mstore\n      0x20\n      add\n      dup3\n      dup1\n      sload\n      tag_86\n      swap1\n      tag_80\n      jump\t// in\n    tag_86:\n      dup1\n      iszero\n      tag_87\n      jumpi\n      dup1\n      0x1f\n      lt\n      tag_88\n      jumpi\n      0x0100\n      dup1\n      dup4\n      sload\n      div\n      mul\n      dup4\n      mstore\n      swap2\n      0x20\n      add\n      swap2\n      jump(tag_87)\n    tag_88:\n      dup3\n      add\n      swap2\n      swap1\n      0x00\n      mstore\n      keccak256(0x00, 0x20)\n      swap1\n    tag_89:\n      dup2\n      sload\n      dup2\n      mstore\n      swap1\n      0x01\n      add\n      swap1\n      0x20\n      add\n      dup1\n      dup4\n      gt\n      tag_89\n      jumpi\n      dup3\n      swap1\n      sub\n      0x1f\n      and\n      dup3\n      add\n      swap2\n    tag_87:\n      pop\n      pop\n      pop\n      pop\n      pop\n      swap1\n      dup1\n      0x03\n      add\n      dup1\n      sload\n      tag_90\n      swap1\n      tag_80\n      jump\t// in\n    tag_90:\n      dup1\n      0x1f\n      add\n      0x20\n      dup1\n      swap2\n      div\n      mul\n      0x20\n      add\n      mload(0x40)\n      swap1\n      dup2\n      add\n      0x40\n      mstore\n      dup1\n      swap3\n      swap2\n      swap1\n      dup2\n      dup2\n      mstore\n      0x20\n      add\n      dup3\n      dup1\n      sload\n      tag_91\n      swap1\n      tag_80\n      jump\t// in\n    tag_91:\n      dup1\n      iszero\n      tag_92\n      jumpi\n      dup1\n      0x1f\n      lt\n      tag_93\n      jumpi\n      0x0100\n      dup1\n      dup4\n      sload\n      div\n      mul\n      dup4\n      mstore\n      swap2\n      0x20\n      add\n      swap2\n      jump(tag_92)\n    tag_93:\n      dup3\n      add\n      swap2\n      swap1\n      0x00\n      mstore\n      keccak256(0x00, 0x20)\n      swap1\n    tag_94:\n      dup2\n      sload\n      dup2\n      mstore\n      swap1\n      0x01\n      add\n      swap1\n      0x20\n      add\n      dup1\n      dup4\n      gt\n      tag_94\n      jumpi\n      dup3\n      swap1\n      sub\n      0x1f\n      and\n      dup3\n      add\n      swap2\n    tag_92:\n      pop\n      pop\n      pop\n      pop\n      pop\n      swap1\n      dup1\n      0x04\n      add\n      dup1\n      sload\n      tag_95\n      swap1\n      tag_80\n      jump\t// in\n    tag_95:\n      dup1\n      0x1f\n      add\n      0x20\n      dup1\n      swap2\n      div\n      mul\n      0x20\n      add\n      mload(0x40)\n      swap1\n      dup2\n      add\n      0x40\n      mstore\n      dup1\n      swap3\n      swap2\n      swap1\n      dup2\n      dup2\n      mstore\n      0x20\n      add\n      dup3\n      dup1\n      sload\n      tag_96\n      swap1\n      tag_80\n      jump\t// in\n    tag_96:\n      dup1\n      iszero\n      tag_97\n      jumpi\n      dup1\n      0x1f\n      lt\n      tag_98\n      jumpi\n      0x0100\n      dup1\n      dup4\n      sload\n      div\n      mul\n      dup4\n      mstore\n      swap2\n      0x20\n      add\n      swap2\n      jump(tag_97)\n    tag_98:\n      dup3\n      add\n      swap2\n      swap1\n      0x00\n      mstore\n      keccak256(0x00, 0x20)\n      swap1\n    tag_99:\n      dup2\n      sload\n      dup2\n      mstore\n      swap1\n      0x01\n      add\n      swap1\n      0x20\n      add\n      dup1\n      dup4\n      gt\n      tag_99\n      jumpi\n      dup3\n      swap1\n      sub\n      0x1f\n      and\n      dup3\n      add\n      swap2\n    tag_97:\n      pop\n      pop\n      pop\n      pop\n      pop\n      swap1\n      pop\n      dup6\n      jump\t// out\n        /* \"contracts/Colhoz.sol\":773:792  Shop[] public shops */\n    tag_32:\n      0x05\n      dup2\n      dup2\n      sload\n      dup2\n      lt\n      tag_100\n      jumpi\n      0x00\n      dup1\n      revert\n    tag_100:\n      swap1\n      0x00\n      mstore\n      keccak256(0x00, 0x20)\n      swap1\n      0x04\n      mul\n      add\n      0x00\n      swap2\n      pop\n      swap1\n      pop\n      dup1\n      0x00\n      add\n      dup1\n      sload\n      tag_102\n      swap1\n      tag_80\n      jump\t// in\n    tag_102:\n      dup1\n      0x1f\n      add\n      0x20\n      dup1\n      swap2\n      div\n      mul\n      0x20\n      add\n      mload(0x40)\n      swap1\n      dup2\n      add\n      0x40\n      mstore\n      dup1\n      swap3\n      swap2\n      swap1\n      dup2\n      dup2\n      mstore\n      0x20\n      add\n      dup3\n      dup1\n      sload\n      tag_103\n      swap1\n      tag_80\n      jump\t// in\n    tag_103:\n      dup1\n      iszero\n      tag_104\n      jumpi\n      dup1\n      0x1f\n      lt\n      tag_105\n      jumpi\n      0x0100\n      dup1\n      dup4\n      sload\n      div\n      mul\n      dup4\n      mstore\n      swap2\n      0x20\n      add\n      swap2\n      jump(tag_104)\n    tag_105:\n      dup3\n      add\n      swap2\n      swap1\n      0x00\n      mstore\n      keccak256(0x00, 0x20)\n      swap1\n    tag_106:\n      dup2\n      sload\n      dup2\n      mstore\n      swap1\n      0x01\n      add\n      swap1\n      0x20\n      add\n      dup1\n      dup4\n      gt\n      tag_106\n      jumpi\n      dup3\n      swap1\n      sub\n      0x1f\n      and\n      dup3\n      add\n      swap2\n    tag_104:\n      pop\n      pop\n      pop\n      pop\n      pop\n      swap1\n      dup1\n      0x01\n      add\n      0x00\n      swap1\n      sload\n      swap1\n      0x0100\n      exp\n      swap1\n      div\n      0xffffffffffffffffffffffffffffffffffffffff\n      and\n      swap1\n      dup1\n      0x02\n      add\n      dup1\n      sload\n      tag_107\n      swap1\n      tag_80\n      jump\t// in\n    tag_107:\n      dup1\n      0x1f\n      add\n      0x20\n      dup1\n      swap2\n      div\n      mul\n      0x20\n      add\n      mload(0x40)\n      swap1\n      dup2\n      add\n      0x40\n      mstore\n      dup1\n      swap3\n      swap2\n      swap1\n      dup2\n      dup2\n      mstore\n      0x20\n      add\n      dup3\n      dup1\n      sload\n      tag_108\n      swap1\n      tag_80\n      jump\t// in\n    tag_108:\n      dup1\n      iszero\n      tag_109\n      jumpi\n      dup1\n      0x1f\n      lt\n      tag_110\n      jumpi\n      0x0100\n      dup1\n      dup4\n      sload\n      div\n      mul\n      dup4\n      mstore\n      swap2\n      0x20\n      add\n      swap2\n      jump(tag_109)\n    tag_110:\n      dup3\n      add\n      swap2\n      swap1\n      0x00\n      mstore\n      keccak256(0x00, 0x20)\n      swap1\n    tag_111:\n      dup2\n      sload\n      dup2\n      mstore\n      swap1\n      0x01\n      add\n      swap1\n      0x20\n      add\n      dup1\n      dup4\n      gt\n      tag_111\n      jumpi\n      dup3\n      swap1\n      sub\n      0x1f\n      and\n      dup3\n      add\n      swap2\n    tag_109:\n      pop\n      pop\n      pop\n      pop\n      pop\n      swap1\n      dup1\n      0x03\n      add\n      dup1\n      sload\n      tag_112\n      swap1\n      tag_80\n      jump\t// in\n    tag_112:\n      dup1\n      0x1f\n      add\n      0x20\n      dup1\n      swap2\n      div\n      mul\n      0x20\n      add\n      mload(0x40)\n      swap1\n      dup2\n      add\n      0x40\n      mstore\n      dup1\n      swap3\n      swap2\n      swap1\n      dup2\n      dup2\n      mstore\n      0x20\n      add\n      dup3\n      dup1\n      sload\n      tag_113\n      swap1\n      tag_80\n      jump\t// in\n    tag_113:\n      dup1\n      iszero\n      tag_114\n      jumpi\n      dup1\n      0x1f\n      lt\n      tag_115\n      jumpi\n      0x0100\n      dup1\n      dup4\n      sload\n      div\n      mul\n      dup4\n      mstore\n      swap2\n      0x20\n      add\n      swap2\n      jump(tag_114)\n    tag_115:\n      dup3\n      add\n      swap2\n      swap1\n      0x00\n      mstore\n      keccak256(0x00, 0x20)\n      swap1\n    tag_116:\n      dup2\n      sload\n      dup2\n      mstore\n      swap1\n      0x01\n      add\n      swap1\n      0x20\n      add\n      dup1\n      dup4\n      gt\n      tag_116\n      jumpi\n      dup3\n      swap1\n      sub\n      0x1f\n      and\n      dup3\n      add\n      swap2\n    tag_114:\n      pop\n      pop\n      pop\n      pop\n      pop\n      swap1\n      pop\n      dup5\n      jump\t// out\n        /* \"contracts/Colhoz.sol\":663:682  address public bank */\n    tag_36:\n      0x01\n      0x00\n      swap1\n      sload\n      swap1\n      0x0100\n      exp\n      swap1\n      div\n      0xffffffffffffffffffffffffffffffffffffffff\n      and\n      dup2\n      jump\t// out\n        /* \"contracts/Colhoz.sol\":829:854  Request[] public requests */\n    tag_40:\n      0x07\n      dup2\n      dup2\n      sload\n      dup2\n      lt\n      tag_117\n      jumpi\n      0x00\n      dup1\n      revert\n    tag_117:\n      swap1\n      0x00\n      mstore\n      keccak256(0x00, 0x20)\n      swap1\n      0x03\n      mul\n      add\n      0x00\n      swap2\n      pop\n      swap1\n      pop\n      dup1\n      0x00\n      add\n      0x00\n      swap1\n      sload\n      swap1\n      0x0100\n      exp\n      swap1\n      div\n      0xffffffffffffffffffffffffffffffffffffffff\n      and\n      swap1\n      dup1\n      0x01\n      add\n      dup1\n      sload\n      tag_119\n      swap1\n      tag_80\n      jump\t// in\n    tag_119:\n      dup1\n      0x1f\n      add\n      0x20\n      dup1\n      swap2\n      div\n      mul\n      0x20\n      add\n      mload(0x40)\n      swap1\n      dup2\n      add\n      0x40\n      mstore\n      dup1\n      swap3\n      swap2\n      swap1\n      dup2\n      dup2\n      mstore\n      0x20\n      add\n      dup3\n      dup1\n      sload\n      tag_120\n      swap1\n      tag_80\n      jump\t// in\n    tag_120:\n      dup1\n      iszero\n      tag_121\n      jumpi\n      dup1\n      0x1f\n      lt\n      tag_122\n      jumpi\n      0x0100\n      dup1\n      dup4\n      sload\n      div\n      mul\n      dup4\n      mstore\n      swap2\n      0x20\n      add\n      swap2\n      jump(tag_121)\n    tag_122:\n      dup3\n      add\n      swap2\n      swap1\n      0x00\n      mstore\n      keccak256(0x00, 0x20)\n      swap1\n    tag_123:\n      dup2\n      sload\n      dup2\n      mstore\n      swap1\n      0x01\n      add\n      swap1\n      0x20\n      add\n      dup1\n      dup4\n      gt\n      tag_123\n      jumpi\n      dup3\n      swap1\n      sub\n      0x1f\n      and\n      dup3\n      add\n      swap2\n    tag_121:\n      pop\n      pop\n      pop\n      pop\n      pop\n      swap1\n      dup1\n      0x02\n      add\n      dup1\n      sload\n      tag_124\n      swap1\n      tag_80\n      jump\t// in\n    tag_124:\n      dup1\n      0x1f\n      add\n      0x20\n      dup1\n      swap2\n      div\n      mul\n      0x20\n      add\n      mload(0x40)\n      swap1\n      dup2\n      add\n      0x40\n      mstore\n      dup1\n      swap3\n      swap2\n      swap1\n      dup2\n      dup2\n      mstore\n      0x20\n      add\n      dup3\n      dup1\n      sload\n      tag_125\n      swap1\n      tag_80\n      jump\t// in\n    tag_125:\n      dup1\n      iszero\n      tag_126\n      jumpi\n      dup1\n      0x1f\n      lt\n      tag_127\n      jumpi\n      0x0100\n      dup1\n      dup4\n      sload\n      div\n      mul\n      dup4\n      mstore\n      swap2\n      0x20\n      add\n      swap2\n      jump(tag_126)\n    tag_127:\n      dup3\n      add\n      swap2\n      swap1\n      0x00\n      mstore\n      keccak256(0x00, 0x20)\n      swap1\n    tag_128:\n      dup2\n      sload\n      dup2\n      mstore\n      swap1\n      0x01\n      add\n      swap1\n      0x20\n      add\n      dup1\n      dup4\n      gt\n      tag_128\n      jumpi\n      dup3\n      swap1\n      sub\n      0x1f\n      and\n      dup3\n      add\n      swap2\n    tag_126:\n      pop\n      pop\n      pop\n      pop\n      pop\n      swap1\n      pop\n      dup4\n      jump\t// out\n        /* \"contracts/Colhoz.sol\":1031:1109  function add_buyer(User memory user) public {... */\n    tag_46:\n        /* \"contracts/Colhoz.sol\":1085:1091  buyers */\n      0x02\n        /* \"contracts/Colhoz.sol\":1097:1101  user */\n      dup2\n        /* \"contracts/Colhoz.sol\":1085:1102  buyers.push(user) */\n      swap1\n      dup1\n      0x01\n      dup2\n      sload\n      add\n      dup1\n      dup3\n      sstore\n      dup1\n      swap2\n      pop\n      pop\n      0x01\n      swap1\n      sub\n      swap1\n      0x00\n      mstore\n      keccak256(0x00, 0x20)\n      swap1\n      0x05\n      mul\n      add\n      0x00\n      swap1\n      swap2\n      swap1\n      swap2\n      swap1\n      swap2\n      pop\n      0x00\n      dup3\n      add\n      mload\n      dup2\n      0x00\n      add\n      exp(0x0100, 0x00)\n      dup2\n      sload\n      dup2\n      0xffffffffffffffffffffffffffffffffffffffff\n      mul\n      not\n      and\n      swap1\n      dup4\n      0xffffffffffffffffffffffffffffffffffffffff\n      and\n      mul\n      or\n      swap1\n      sstore\n      pop\n      0x20\n      dup3\n      add\n      mload\n      dup2\n      0x01\n      add\n      swap1\n      dup2\n      tag_131\n      swap2\n      swap1\n      tag_132\n      jump\t// in\n    tag_131:\n      pop\n      0x40\n      dup3\n      add\n      mload\n      dup2\n      0x02\n      add\n      swap1\n      dup2\n      tag_133\n      swap2\n      swap1\n      tag_132\n      jump\t// in\n    tag_133:\n      pop\n      0x60\n      dup3\n      add\n      mload\n      dup2\n      0x03\n      add\n      swap1\n      dup2\n      tag_134\n      swap2\n      swap1\n      tag_132\n      jump\t// in\n    tag_134:\n      pop\n      0x80\n      dup3\n      add\n      mload\n      dup2\n      0x04\n      add\n      swap1\n      dup2\n      tag_135\n      swap2\n      swap1\n      tag_132\n      jump\t// in\n    tag_135:\n      pop\n      pop\n      pop\n        /* \"contracts/Colhoz.sol\":1031:1109  function add_buyer(User memory user) public {... */\n      pop\n      jump\t// out\n        /* \"contracts/Colhoz.sol\":1199:1294  function update_buyer(uint index,User memory user) public {... */\n    tag_50:\n        /* \"contracts/Colhoz.sol\":1283:1287  user */\n      dup1\n        /* \"contracts/Colhoz.sol\":1267:1273  buyers */\n      0x02\n        /* \"contracts/Colhoz.sol\":1274:1279  index */\n      dup4\n        /* \"contracts/Colhoz.sol\":1267:1280  buyers[index] */\n      dup2\n      sload\n      dup2\n      lt\n      tag_137\n      jumpi\n      tag_138\n      tag_139\n      jump\t// in\n    tag_138:\n    tag_137:\n      swap1\n      0x00\n      mstore\n      keccak256(0x00, 0x20)\n      swap1\n      0x05\n      mul\n      add\n        /* \"contracts/Colhoz.sol\":1267:1287  buyers[index] = user */\n      0x00\n      dup3\n      add\n      mload\n      dup2\n      0x00\n      add\n      exp(0x0100, 0x00)\n      dup2\n      sload\n      dup2\n      0xffffffffffffffffffffffffffffffffffffffff\n      mul\n      not\n      and\n      swap1\n      dup4\n      0xffffffffffffffffffffffffffffffffffffffff\n      and\n      mul\n      or\n      swap1\n      sstore\n      pop\n      0x20\n      dup3\n      add\n      mload\n      dup2\n      0x01\n      add\n      swap1\n      dup2\n      tag_141\n      swap2\n      swap1\n      tag_132\n      jump\t// in\n    tag_141:\n      pop\n      0x40\n      dup3\n      add\n      mload\n      dup2\n      0x02\n      add\n      swap1\n      dup2\n      tag_142\n      swap2\n      swap1\n      tag_132\n      jump\t// in\n    tag_142:\n      pop\n      0x60\n      dup3\n      add\n      mload\n      dup2\n      0x03\n      add\n      swap1\n      dup2\n      tag_143\n      swap2\n      swap1\n      tag_132\n      jump\t// in\n    tag_143:\n      pop\n      0x80\n      dup3\n      add\n      mload\n      dup2\n      0x04\n      add\n      swap1\n      dup2\n      tag_144\n      swap2\n      swap1\n      tag_132\n      jump\t// in\n    tag_144:\n      pop\n      swap1\n      pop\n      pop\n        /* \"contracts/Colhoz.sol\":1199:1294  function update_buyer(uint index,User memory user) public {... */\n      pop\n      pop\n      jump\t// out\n        /* \"contracts/Colhoz.sol\":861:946  function set_provider(address _provider) public {... */\n    tag_54:\n        /* \"contracts/Colhoz.sol\":930:939  _provider */\n      dup1\n        /* \"contracts/Colhoz.sol\":919:927  provider */\n      0x00\n      dup1\n        /* \"contracts/Colhoz.sol\":919:939  provider = _provider */\n      0x0100\n      exp\n      dup2\n      sload\n      dup2\n      0xffffffffffffffffffffffffffffffffffffffff\n      mul\n      not\n      and\n      swap1\n      dup4\n      0xffffffffffffffffffffffffffffffffffffffff\n      and\n      mul\n      or\n      swap1\n      sstore\n      pop\n        /* \"contracts/Colhoz.sol\":861:946  function set_provider(address _provider) public {... */\n      pop\n      jump\t// out\n        /* \"contracts/Colhoz.sol\":1115:1193  function remove_buyer(uint index) public {... */\n    tag_57:\n        /* \"contracts/Colhoz.sol\":1173:1179  buyers */\n      0x02\n        /* \"contracts/Colhoz.sol\":1180:1185  index */\n      dup2\n        /* \"contracts/Colhoz.sol\":1173:1186  buyers[index] */\n      dup2\n      sload\n      dup2\n      lt\n      tag_147\n      jumpi\n      tag_148\n      tag_139\n      jump\t// in\n    tag_148:\n    tag_147:\n      swap1\n      0x00\n      mstore\n      keccak256(0x00, 0x20)\n      swap1\n      0x05\n      mul\n      add\n      0x00\n        /* \"contracts/Colhoz.sol\":1166:1186  delete buyers[index] */\n      dup1\n      dup3\n      add\n      exp(0x0100, 0x00)\n      dup2\n      sload\n      swap1\n      0xffffffffffffffffffffffffffffffffffffffff\n      mul\n      not\n      and\n      swap1\n      sstore\n      0x01\n      dup3\n      add\n      0x00\n      tag_150\n      swap2\n      swap1\n      tag_151\n      jump\t// in\n    tag_150:\n      0x02\n      dup3\n      add\n      0x00\n      tag_152\n      swap2\n      swap1\n      tag_151\n      jump\t// in\n    tag_152:\n      0x03\n      dup3\n      add\n      0x00\n      tag_153\n      swap2\n      swap1\n      tag_151\n      jump\t// in\n    tag_153:\n      0x04\n      dup3\n      add\n      0x00\n      tag_154\n      swap2\n      swap1\n      tag_151\n      jump\t// in\n    tag_154:\n      pop\n      pop\n        /* \"contracts/Colhoz.sol\":1115:1193  function remove_buyer(uint index) public {... */\n      pop\n      jump\t// out\n        /* \"contracts/Colhoz.sol\":743:766  Seller[] public sellers */\n    tag_60:\n      0x04\n      dup2\n      dup2\n      sload\n      dup2\n      lt\n      tag_155\n      jumpi\n      0x00\n      dup1\n      revert\n    tag_155:\n      swap1\n      0x00\n      mstore\n      keccak256(0x00, 0x20)\n      swap1\n      0x06\n      mul\n      add\n      0x00\n      swap2\n      pop\n      swap1\n      pop\n      dup1\n      0x00\n      add\n      0x00\n      swap1\n      sload\n      swap1\n      0x0100\n      exp\n      swap1\n      div\n      0xffffffffffffffffffffffffffffffffffffffff\n      and\n      swap1\n      dup1\n      0x01\n      add\n      dup1\n      sload\n      tag_157\n      swap1\n      tag_80\n      jump\t// in\n    tag_157:\n      dup1\n      0x1f\n      add\n      0x20\n      dup1\n      swap2\n      div\n      mul\n      0x20\n      add\n      mload(0x40)\n      swap1\n      dup2\n      add\n      0x40\n      mstore\n      dup1\n      swap3\n      swap2\n      swap1\n      dup2\n      dup2\n      mstore\n      0x20\n      add\n      dup3\n      dup1\n      sload\n      tag_158\n      swap1\n      tag_80\n      jump\t// in\n    tag_158:\n      dup1\n      iszero\n      tag_159\n      jumpi\n      dup1\n      0x1f\n      lt\n      tag_160\n      jumpi\n      0x0100\n      dup1\n      dup4\n      sload\n      div\n      mul\n      dup4\n      mstore\n      swap2\n      0x20\n      add\n      swap2\n      jump(tag_159)\n    tag_160:\n      dup3\n      add\n      swap2\n      swap1\n      0x00\n      mstore\n      keccak256(0x00, 0x20)\n      swap1\n    tag_161:\n      dup2\n      sload\n      dup2\n      mstore\n      swap1\n      0x01\n      add\n      swap1\n      0x20\n      add\n      dup1\n      dup4\n      gt\n      tag_161\n      jumpi\n      dup3\n      swap1\n      sub\n      0x1f\n      and\n      dup3\n      add\n      swap2\n    tag_159:\n      pop\n      pop\n      pop\n      pop\n      pop\n      swap1\n      dup1\n      0x02\n      add\n      dup1\n      sload\n      tag_162\n      swap1\n      tag_80\n      jump\t// in\n    tag_162:\n      dup1\n      0x1f\n      add\n      0x20\n      dup1\n      swap2\n      div\n      mul\n      0x20\n      add\n      mload(0x40)\n      swap1\n      dup2\n      add\n      0x40\n      mstore\n      dup1\n      swap3\n      swap2\n      swap1\n      dup2\n      dup2\n      mstore\n      0x20\n      add\n      dup3\n      dup1\n      sload\n      tag_163\n      swap1\n      tag_80\n      jump\t// in\n    tag_163:\n      dup1\n      iszero\n      tag_164\n      jumpi\n      dup1\n      0x1f\n      lt\n      tag_165\n      jumpi\n      0x0100\n      dup1\n      dup4\n      sload\n      div\n      mul\n      dup4\n      mstore\n      swap2\n      0x20\n      add\n      swap2\n      jump(tag_164)\n    tag_165:\n      dup3\n      add\n      swap2\n      swap1\n      0x00\n      mstore\n      keccak256(0x00, 0x20)\n      swap1\n    tag_166:\n      dup2\n      sload\n      dup2\n      mstore\n      swap1\n      0x01\n      add\n      swap1\n      0x20\n      add\n      dup1\n      dup4\n      gt\n      tag_166\n      jumpi\n      dup3\n      swap1\n      sub\n      0x1f\n      and\n      dup3\n      add\n      swap2\n    tag_164:\n      pop\n      pop\n      pop\n      pop\n      pop\n      swap1\n      dup1\n      0x03\n      add\n      dup1\n      sload\n      tag_167\n      swap1\n      tag_80\n      jump\t// in\n    tag_167:\n      dup1\n      0x1f\n      add\n      0x20\n      dup1\n      swap2\n      div\n      mul\n      0x20\n      add\n      mload(0x40)\n      swap1\n      dup2\n      add\n      0x40\n      mstore\n      dup1\n      swap3\n      swap2\n      swap1\n      dup2\n      dup2\n      mstore\n      0x20\n      add\n      dup3\n      dup1\n      sload\n      tag_168\n      swap1\n      tag_80\n      jump\t// in\n    tag_168:\n      dup1\n      iszero\n      tag_169\n      jumpi\n      dup1\n      0x1f\n      lt\n      tag_170\n      jumpi\n      0x0100\n      dup1\n      dup4\n      sload\n      div\n      mul\n      dup4\n      mstore\n      swap2\n      0x20\n      add\n      swap2\n      jump(tag_169)\n    tag_170:\n      dup3\n      add\n      swap2\n      swap1\n      0x00\n      mstore\n      keccak256(0x00, 0x20)\n      swap1\n    tag_171:\n      dup2\n      sload\n      dup2\n      mstore\n      swap1\n      0x01\n      add\n      swap1\n      0x20\n      add\n      dup1\n      dup4\n      gt\n      tag_171\n      jumpi\n      dup3\n      swap1\n      sub\n      0x1f\n      and\n      dup3\n      add\n      swap2\n    tag_169:\n      pop\n      pop\n      pop\n      pop\n      pop\n      swap1\n      dup1\n      0x04\n      add\n      dup1\n      sload\n      tag_172\n      swap1\n      tag_80\n      jump\t// in\n    tag_172:\n      dup1\n      0x1f\n      add\n      0x20\n      dup1\n      swap2\n      div\n      mul\n      0x20\n      add\n      mload(0x40)\n      swap1\n      dup2\n      add\n      0x40\n      mstore\n      dup1\n      swap3\n      swap2\n      swap1\n      dup2\n      dup2\n      mstore\n      0x20\n      add\n      dup3\n      dup1\n      sload\n      tag_173\n      swap1\n      tag_80\n      jump\t// in\n    tag_173:\n      dup1\n      iszero\n      tag_174\n      jumpi\n      dup1\n      0x1f\n      lt\n      tag_175\n      jumpi\n      0x0100\n      dup1\n      dup4\n      sload\n      div\n      mul\n      dup4\n      mstore\n      swap2\n      0x20\n      add\n      swap2\n      jump(tag_174)\n    tag_175:\n      dup3\n      add\n      swap2\n      swap1\n      0x00\n      mstore\n      keccak256(0x00, 0x20)\n      swap1\n    tag_176:\n      dup2\n      sload\n      dup2\n      mstore\n      swap1\n      0x01\n      add\n      swap1\n      0x20\n      add\n      dup1\n      dup4\n      gt\n      tag_176\n      jumpi\n      dup3\n      swap1\n      sub\n      0x1f\n      and\n      dup3\n      add\n      swap2\n    tag_174:\n      pop\n      pop\n      pop\n      pop\n      pop\n      swap1\n      dup1\n      0x05\n      add\n      dup1\n      sload\n      tag_177\n      swap1\n      tag_80\n      jump\t// in\n    tag_177:\n      dup1\n      0x1f\n      add\n      0x20\n      dup1\n      swap2\n      div\n      mul\n      0x20\n      add\n      mload(0x40)\n      swap1\n      dup2\n      add\n      0x40\n      mstore\n      dup1\n      swap3\n      swap2\n      swap1\n      dup2\n      dup2\n      mstore\n      0x20\n      add\n      dup3\n      dup1\n      sload\n      tag_178\n      swap1\n      tag_80\n      jump\t// in\n    tag_178:\n      dup1\n      iszero\n      tag_179\n      jumpi\n      dup1\n      0x1f\n      lt\n      tag_180\n      jumpi\n      0x0100\n      dup1\n      dup4\n      sload\n      div\n      mul\n      dup4\n      mstore\n      swap2\n      0x20\n      add\n      swap2\n      jump(tag_179)\n    tag_180:\n      dup3\n      add\n      swap2\n      swap1\n      0x00\n      mstore\n      keccak256(0x00, 0x20)\n      swap1\n    tag_181:\n      dup2\n      sload\n      dup2\n      mstore\n      swap1\n      0x01\n      add\n      swap1\n      0x20\n      add\n      dup1\n      dup4\n      gt\n      tag_181\n      jumpi\n      dup3\n      swap1\n      sub\n      0x1f\n      and\n      dup3\n      add\n      swap2\n    tag_179:\n      pop\n      pop\n      pop\n      pop\n      pop\n      swap1\n      pop\n      dup7\n      jump\t// out\n        /* \"contracts/Colhoz.sol\":956:1025  function set_bank(address _bank) public {... */\n    tag_65:\n        /* \"contracts/Colhoz.sol\":1013:1018  _bank */\n      dup1\n        /* \"contracts/Colhoz.sol\":1006:1010  bank */\n      0x01\n      0x00\n        /* \"contracts/Colhoz.sol\":1006:1018  bank = _bank */\n      0x0100\n      exp\n      dup2\n      sload\n      dup2\n      0xffffffffffffffffffffffffffffffffffffffff\n      mul\n      not\n      and\n      swap1\n      dup4\n      0xffffffffffffffffffffffffffffffffffffffff\n      and\n      mul\n      or\n      swap1\n      sstore\n      pop\n        /* \"contracts/Colhoz.sol\":956:1025  function set_bank(address _bank) public {... */\n      pop\n      jump\t// out\n        /* \"contracts/Colhoz.sol\":799:822  Review[] public reviews */\n    tag_68:\n      0x06\n      dup2\n      dup2\n      sload\n      dup2\n      lt\n      tag_183\n      jumpi\n      0x00\n      dup1\n      revert\n    tag_183:\n      swap1\n      0x00\n      mstore\n      keccak256(0x00, 0x20)\n      swap1\n      0x05\n      mul\n      add\n      0x00\n      swap2\n      pop\n      swap1\n      pop\n      dup1\n      0x00\n      add\n      0x00\n      swap1\n      sload\n      swap1\n      0x0100\n      exp\n      swap1\n      div\n      0xffffffffffffffffffffffffffffffffffffffff\n      and\n      swap1\n      dup1\n      0x01\n      add\n      dup1\n      sload\n      tag_185\n      swap1\n      tag_80\n      jump\t// in\n    tag_185:\n      dup1\n      0x1f\n      add\n      0x20\n      dup1\n      swap2\n      div\n      mul\n      0x20\n      add\n      mload(0x40)\n      swap1\n      dup2\n      add\n      0x40\n      mstore\n      dup1\n      swap3\n      swap2\n      swap1\n      dup2\n      dup2\n      mstore\n      0x20\n      add\n      dup3\n      dup1\n      sload\n      tag_186\n      swap1\n      tag_80\n      jump\t// in\n    tag_186:\n      dup1\n      iszero\n      tag_187\n      jumpi\n      dup1\n      0x1f\n      lt\n      tag_188\n      jumpi\n      0x0100\n      dup1\n      dup4\n      sload\n      div\n      mul\n      dup4\n      mstore\n      swap2\n      0x20\n      add\n      swap2\n      jump(tag_187)\n    tag_188:\n      dup3\n      add\n      swap2\n      swap1\n      0x00\n      mstore\n      keccak256(0x00, 0x20)\n      swap1\n    tag_189:\n      dup2\n      sload\n      dup2\n      mstore\n      swap1\n      0x01\n      add\n      swap1\n      0x20\n      add\n      dup1\n      dup4\n      gt\n      tag_189\n      jumpi\n      dup3\n      swap1\n      sub\n      0x1f\n      and\n      dup3\n      add\n      swap2\n    tag_187:\n      pop\n      pop\n      pop\n      pop\n      pop\n      swap1\n      dup1\n      0x02\n      add\n      dup1\n      sload\n      tag_190\n      swap1\n      tag_80\n      jump\t// in\n    tag_190:\n      dup1\n      0x1f\n      add\n      0x20\n      dup1\n      swap2\n      div\n      mul\n      0x20\n      add\n      mload(0x40)\n      swap1\n      dup2\n      add\n      0x40\n      mstore\n      dup1\n      swap3\n      swap2\n      swap1\n      dup2\n      dup2\n      mstore\n      0x20\n      add\n      dup3\n      dup1\n      sload\n      tag_191\n      swap1\n      tag_80\n      jump\t// in\n    tag_191:\n      dup1\n      iszero\n      tag_192\n      jumpi\n      dup1\n      0x1f\n      lt\n      tag_193\n      jumpi\n      0x0100\n      dup1\n      dup4\n      sload\n      div\n      mul\n      dup4\n      mstore\n      swap2\n      0x20\n      add\n      swap2\n      jump(tag_192)\n    tag_193:\n      dup3\n      add\n      swap2\n      swap1\n      0x00\n      mstore\n      keccak256(0x00, 0x20)\n      swap1\n    tag_194:\n      dup2\n      sload\n      dup2\n      mstore\n      swap1\n      0x01\n      add\n      swap1\n      0x20\n      add\n      dup1\n      dup4\n      gt\n      tag_194\n      jumpi\n      dup3\n      swap1\n      sub\n      0x1f\n      and\n      dup3\n      add\n      swap2\n    tag_192:\n      pop\n      pop\n      pop\n      pop\n      pop\n      swap1\n      pop\n      dup4\n      jump\t// out\n        /* \"contracts/Colhoz.sol\":689:709  User[] public buyers */\n    tag_72:\n      0x02\n      dup2\n      dup2\n      sload\n      dup2\n      lt\n      tag_195\n      jumpi\n      0x00\n      dup1\n      revert\n    tag_195:\n      swap1\n      0x00\n      mstore\n      keccak256(0x00, 0x20)\n      swap1\n      0x05\n      mul\n      add\n      0x00\n      swap2\n      pop\n      swap1\n      pop\n      dup1\n      0x00\n      add\n      0x00\n      swap1\n      sload\n      swap1\n      0x0100\n      exp\n      swap1\n      div\n      0xffffffffffffffffffffffffffffffffffffffff\n      and\n      swap1\n      dup1\n      0x01\n      add\n      dup1\n      sload\n      tag_197\n      swap1\n      tag_80\n      jump\t// in\n    tag_197:\n      dup1\n      0x1f\n      add\n      0x20\n      dup1\n      swap2\n      div\n      mul\n      0x20\n      add\n      mload(0x40)\n      swap1\n      dup2\n      add\n      0x40\n      mstore\n      dup1\n      swap3\n      swap2\n      swap1\n      dup2\n      dup2\n      mstore\n      0x20\n      add\n      dup3\n      dup1\n      sload\n      tag_198\n      swap1\n      tag_80\n      jump\t// in\n    tag_198:\n      dup1\n      iszero\n      tag_199\n      jumpi\n      dup1\n      0x1f\n      lt\n      tag_200\n      jumpi\n      0x0100\n      dup1\n      dup4\n      sload\n      div\n      mul\n      dup4\n      mstore\n      swap2\n      0x20\n      add\n      swap2\n      jump(tag_199)\n    tag_200:\n      dup3\n      add\n      swap2\n      swap1\n      0x00\n      mstore\n      keccak256(0x00, 0x20)\n      swap1\n    tag_201:\n      dup2\n      sload\n      dup2\n      mstore\n      swap1\n      0x01\n      add\n      swap1\n      0x20\n      add\n      dup1\n      dup4\n      gt\n      tag_201\n      jumpi\n      dup3\n      swap1\n      sub\n      0x1f\n      and\n      dup3\n      add\n      swap2\n    tag_199:\n      pop\n      pop\n      pop\n      pop\n      pop\n      swap1\n      dup1\n      0x02\n      add\n      dup1\n      sload\n      tag_202\n      swap1\n      tag_80\n      jump\t// in\n    tag_202:\n      dup1\n      0x1f\n      add\n      0x20\n      dup1\n      swap2\n      div\n      mul\n      0x20\n      add\n      mload(0x40)\n      swap1\n      dup2\n      add\n      0x40\n      mstore\n      dup1\n      swap3\n      swap2\n      swap1\n      dup2\n      dup2\n      mstore\n      0x20\n      add\n      dup3\n      dup1\n      sload\n      tag_203\n      swap1\n      tag_80\n      jump\t// in\n    tag_203:\n      dup1\n      iszero\n      tag_204\n      jumpi\n      dup1\n      0x1f\n      lt\n      tag_205\n      jumpi\n      0x0100\n      dup1\n      dup4\n      sload\n      div\n      mul\n      dup4\n      mstore\n      swap2\n      0x20\n      add\n      swap2\n      jump(tag_204)\n    tag_205:\n      dup3\n      add\n      swap2\n      swap1\n      0x00\n      mstore\n      keccak256(0x00, 0x20)\n      swap1\n    tag_206:\n      dup2\n      sload\n      dup2\n      mstore\n      swap1\n      0x01\n      add\n      swap1\n      0x20\n      add\n      dup1\n      dup4\n      gt\n      tag_206\n      jumpi\n      dup3\n      swap1\n      sub\n      0x1f\n      and\n      dup3\n      add\n      swap2\n    tag_204:\n      pop\n      pop\n      pop\n      pop\n      pop\n      swap1\n      dup1\n      0x03\n      add\n      dup1\n      sload\n      tag_207\n      swap1\n      tag_80\n      jump\t// in\n    tag_207:\n      dup1\n      0x1f\n      add\n      0x20\n      dup1\n      swap2\n      div\n      mul\n      0x20\n      add\n      mload(0x40)\n      swap1\n      dup2\n      add\n      0x40\n      mstore\n      dup1\n      swap3\n      swap2\n      swap1\n      dup2\n      dup2\n      mstore\n      0x20\n      add\n      dup3\n      dup1\n      sload\n      tag_208\n      swap1\n      tag_80\n      jump\t// in\n    tag_208:\n      dup1\n      iszero\n      tag_209\n      jumpi\n      dup1\n      0x1f\n      lt\n      tag_210\n      jumpi\n      0x0100\n      dup1\n      dup4\n      sload\n      div\n      mul\n      dup4\n      mstore\n      swap2\n      0x20\n      add\n      swap2\n      jump(tag_209)\n    tag_210:\n      dup3\n      add\n      swap2\n      swap1\n      0x00\n      mstore\n      keccak256(0x00, 0x20)\n      swap1\n    tag_211:\n      dup2\n      sload\n      dup2\n      mstore\n      swap1\n      0x01\n      add\n      swap1\n      0x20\n      add\n      dup1\n      dup4\n      gt\n      tag_211\n      jumpi\n      dup3\n      swap1\n      sub\n      0x1f\n      and\n      dup3\n      add\n      swap2\n    tag_209:\n      pop\n      pop\n      pop\n      pop\n      pop\n      swap1\n      dup1\n      0x04\n      add\n      dup1\n      sload\n      tag_212\n      swap1\n      tag_80\n      jump\t// in\n    tag_212:\n      dup1\n      0x1f\n      add\n      0x20\n      dup1\n      swap2\n      div\n      mul\n      0x20\n      add\n      mload(0x40)\n      swap1\n      dup2\n      add\n      0x40\n      mstore\n      dup1\n      swap3\n      swap2\n      swap1\n      dup2\n      dup2\n      mstore\n      0x20\n      add\n      dup3\n      dup1\n      sload\n      tag_213\n      swap1\n      tag_80\n      jump\t// in\n    tag_213:\n      dup1\n      iszero\n      tag_214\n      jumpi\n      dup1\n      0x1f\n      lt\n      tag_215\n      jumpi\n      0x0100\n      dup1\n      dup4\n      sload\n      div\n      mul\n      dup4\n      mstore\n      swap2\n      0x20\n      add\n      swap2\n      jump(tag_214)\n    tag_215:\n      dup3\n      add\n      swap2\n      swap1\n      0x00\n      mstore\n      keccak256(0x00, 0x20)\n      swap1\n    tag_216:\n      dup2\n      sload\n      dup2\n      mstore\n      swap1\n      0x01\n      add\n      swap1\n      0x20\n      add\n      dup1\n      dup4\n      gt\n      tag_216\n      jumpi\n      dup3\n      swap1\n      sub\n      0x1f\n      and\n      dup3\n      add\n      swap2\n    tag_214:\n      pop\n      pop\n      pop\n      pop\n      pop\n      swap1\n      pop\n      dup6\n      jump\t// out\n        /* \"contracts/Colhoz.sol\":1300:1380  function add_admin(User memory admin) public {... */\n    tag_76:\n        /* \"contracts/Colhoz.sol\":1355:1361  admins */\n      0x03\n        /* \"contracts/Colhoz.sol\":1367:1372  admin */\n      dup2\n        /* \"contracts/Colhoz.sol\":1355:1373  admins.push(admin) */\n      swap1\n      dup1\n      0x01\n      dup2\n      sload\n      add\n      dup1\n      dup3\n      sstore\n      dup1\n      swap2\n      pop\n      pop\n      0x01\n      swap1\n      sub\n      swap1\n      0x00\n      mstore\n      keccak256(0x00, 0x20)\n      swap1\n      0x05\n      mul\n      add\n      0x00\n      swap1\n      swap2\n      swap1\n      swap2\n      swap1\n      swap2\n      pop\n      0x00\n      dup3\n      add\n      mload\n      dup2\n      0x00\n      add\n      exp(0x0100, 0x00)\n      dup2\n      sload\n      dup2\n      0xffffffffffffffffffffffffffffffffffffffff\n      mul\n      not\n      and\n      swap1\n      dup4\n      0xffffffffffffffffffffffffffffffffffffffff\n      and\n      mul\n      or\n      swap1\n      sstore\n      pop\n      0x20\n      dup3\n      add\n      mload\n      dup2\n      0x01\n      add\n      swap1\n      dup2\n      tag_219\n      swap2\n      swap1\n      tag_132\n      jump\t// in\n    tag_219:\n      pop\n      0x40\n      dup3\n      add\n      mload\n      dup2\n      0x02\n      add\n      swap1\n      dup2\n      tag_220\n      swap2\n      swap1\n      tag_132\n      jump\t// in\n    tag_220:\n      pop\n      0x60\n      dup3\n      add\n      mload\n      dup2\n      0x03\n      add\n      swap1\n      dup2\n      tag_221\n      swap2\n      swap1\n      tag_132\n      jump\t// in\n    tag_221:\n      pop\n      0x80\n      dup3\n      add\n      mload\n      dup2\n      0x04\n      add\n      swap1\n      dup2\n      tag_222\n      swap2\n      swap1\n      tag_132\n      jump\t// in\n    tag_222:\n      pop\n      pop\n      pop\n        /* \"contracts/Colhoz.sol\":1300:1380  function add_admin(User memory admin) public {... */\n      pop\n      jump\t// out\n    tag_151:\n      pop\n      dup1\n      sload\n      tag_223\n      swap1\n      tag_80\n      jump\t// in\n    tag_223:\n      0x00\n      dup3\n      sstore\n      dup1\n      0x1f\n      lt\n      tag_225\n      jumpi\n      pop\n      jump(tag_224)\n    tag_225:\n      0x1f\n      add\n      0x20\n      swap1\n      div\n      swap1\n      0x00\n      mstore\n      keccak256(0x00, 0x20)\n      swap1\n      dup2\n      add\n      swap1\n      tag_226\n      swap2\n      swap1\n      tag_227\n      jump\t// in\n    tag_226:\n    tag_224:\n      pop\n      jump\t// out\n    tag_227:\n    tag_228:\n      dup1\n      dup3\n      gt\n      iszero\n      tag_229\n      jumpi\n      0x00\n      dup2\n      0x00\n      swap1\n      sstore\n      pop\n      0x01\n      add\n      jump(tag_228)\n    tag_229:\n      pop\n      swap1\n      jump\t// out\n        /* \"#utility.yul\":7:133   */\n    tag_230:\n        /* \"#utility.yul\":44:51   */\n      0x00\n        /* \"#utility.yul\":84:126   */\n      0xffffffffffffffffffffffffffffffffffffffff\n        /* \"#utility.yul\":77:82   */\n      dup3\n        /* \"#utility.yul\":73:127   */\n      and\n        /* \"#utility.yul\":62:127   */\n      swap1\n      pop\n        /* \"#utility.yul\":7:133   */\n      swap2\n      swap1\n      pop\n      jump\t// out\n        /* \"#utility.yul\":139:235   */\n    tag_231:\n        /* \"#utility.yul\":176:183   */\n      0x00\n        /* \"#utility.yul\":205:229   */\n      tag_277\n        /* \"#utility.yul\":223:228   */\n      dup3\n        /* \"#utility.yul\":205:229   */\n      tag_230\n      jump\t// in\n    tag_277:\n        /* \"#utility.yul\":194:229   */\n      swap1\n      pop\n        /* \"#utility.yul\":139:235   */\n      swap2\n      swap1\n      pop\n      jump\t// out\n        /* \"#utility.yul\":241:359   */\n    tag_232:\n        /* \"#utility.yul\":328:352   */\n      tag_279\n        /* \"#utility.yul\":346:351   */\n      dup2\n        /* \"#utility.yul\":328:352   */\n      tag_231\n      jump\t// in\n    tag_279:\n        /* \"#utility.yul\":323:326   */\n      dup3\n        /* \"#utility.yul\":316:353   */\n      mstore\n        /* \"#utility.yul\":241:359   */\n      pop\n      pop\n      jump\t// out\n        /* \"#utility.yul\":365:587   */\n    tag_23:\n        /* \"#utility.yul\":458:462   */\n      0x00\n        /* \"#utility.yul\":496:498   */\n      0x20\n        /* \"#utility.yul\":485:494   */\n      dup3\n        /* \"#utility.yul\":481:499   */\n      add\n        /* \"#utility.yul\":473:499   */\n      swap1\n      pop\n        /* \"#utility.yul\":509:580   */\n      tag_281\n        /* \"#utility.yul\":577:578   */\n      0x00\n        /* \"#utility.yul\":566:575   */\n      dup4\n        /* \"#utility.yul\":562:579   */\n      add\n        /* \"#utility.yul\":553:559   */\n      dup5\n        /* \"#utility.yul\":509:580   */\n      tag_232\n      jump\t// in\n    tag_281:\n        /* \"#utility.yul\":365:587   */\n      swap3\n      swap2\n      pop\n      pop\n      jump\t// out\n        /* \"#utility.yul\":593:668   */\n    tag_233:\n        /* \"#utility.yul\":626:632   */\n      0x00\n        /* \"#utility.yul\":659:661   */\n      0x40\n        /* \"#utility.yul\":653:662   */\n      mload\n        /* \"#utility.yul\":643:662   */\n      swap1\n      pop\n        /* \"#utility.yul\":593:668   */\n      swap1\n      jump\t// out\n        /* \"#utility.yul\":674:791   */\n    tag_234:\n        /* \"#utility.yul\":783:784   */\n      0x00\n        /* \"#utility.yul\":780:781   */\n      dup1\n        /* \"#utility.yul\":773:785   */\n      revert\n        /* \"#utility.yul\":797:914   */\n    tag_235:\n        /* \"#utility.yul\":906:907   */\n      0x00\n        /* \"#utility.yul\":903:904   */\n      dup1\n        /* \"#utility.yul\":896:908   */\n      revert\n        /* \"#utility.yul\":920:997   */\n    tag_236:\n        /* \"#utility.yul\":957:964   */\n      0x00\n        /* \"#utility.yul\":986:991   */\n      dup2\n        /* \"#utility.yul\":975:991   */\n      swap1\n      pop\n        /* \"#utility.yul\":920:997   */\n      swap2\n      swap1\n      pop\n      jump\t// out\n        /* \"#utility.yul\":1003:1125   */\n    tag_237:\n        /* \"#utility.yul\":1076:1100   */\n      tag_287\n        /* \"#utility.yul\":1094:1099   */\n      dup2\n        /* \"#utility.yul\":1076:1100   */\n      tag_236\n      jump\t// in\n    tag_287:\n        /* \"#utility.yul\":1069:1074   */\n      dup2\n        /* \"#utility.yul\":1066:1101   */\n      eq\n        /* \"#utility.yul\":1056:1119   */\n      tag_288\n      jumpi\n        /* \"#utility.yul\":1115:1116   */\n      0x00\n        /* \"#utility.yul\":1112:1113   */\n      dup1\n        /* \"#utility.yul\":1105:1117   */\n      revert\n        /* \"#utility.yul\":1056:1119   */\n    tag_288:\n        /* \"#utility.yul\":1003:1125   */\n      pop\n      jump\t// out\n        /* \"#utility.yul\":1131:1270   */\n    tag_238:\n        /* \"#utility.yul\":1177:1182   */\n      0x00\n        /* \"#utility.yul\":1215:1221   */\n      dup2\n        /* \"#utility.yul\":1202:1222   */\n      calldataload\n        /* \"#utility.yul\":1193:1222   */\n      swap1\n      pop\n        /* \"#utility.yul\":1231:1264   */\n      tag_290\n        /* \"#utility.yul\":1258:1263   */\n      dup2\n        /* \"#utility.yul\":1231:1264   */\n      tag_237\n      jump\t// in\n    tag_290:\n        /* \"#utility.yul\":1131:1270   */\n      swap3\n      swap2\n      pop\n      pop\n      jump\t// out\n        /* \"#utility.yul\":1276:1605   */\n    tag_26:\n        /* \"#utility.yul\":1335:1341   */\n      0x00\n        /* \"#utility.yul\":1384:1386   */\n      0x20\n        /* \"#utility.yul\":1372:1381   */\n      dup3\n        /* \"#utility.yul\":1363:1370   */\n      dup5\n        /* \"#utility.yul\":1359:1382   */\n      sub\n        /* \"#utility.yul\":1355:1387   */\n      slt\n        /* \"#utility.yul\":1352:1471   */\n      iszero\n      tag_292\n      jumpi\n        /* \"#utility.yul\":1390:1469   */\n      tag_293\n      tag_234\n      jump\t// in\n    tag_293:\n        /* \"#utility.yul\":1352:1471   */\n    tag_292:\n        /* \"#utility.yul\":1510:1511   */\n      0x00\n        /* \"#utility.yul\":1535:1588   */\n      tag_294\n        /* \"#utility.yul\":1580:1587   */\n      dup5\n        /* \"#utility.yul\":1571:1577   */\n      dup3\n        /* \"#utility.yul\":1560:1569   */\n      dup6\n        /* \"#utility.yul\":1556:1578   */\n      add\n        /* \"#utility.yul\":1535:1588   */\n      tag_238\n      jump\t// in\n    tag_294:\n        /* \"#utility.yul\":1525:1588   */\n      swap2\n      pop\n        /* \"#utility.yul\":1481:1598   */\n      pop\n        /* \"#utility.yul\":1276:1605   */\n      swap3\n      swap2\n      pop\n      pop\n      jump\t// out\n        /* \"#utility.yul\":1611:1710   */\n    tag_239:\n        /* \"#utility.yul\":1663:1669   */\n      0x00\n        /* \"#utility.yul\":1697:1702   */\n      dup2\n        /* \"#utility.yul\":1691:1703   */\n      mload\n        /* \"#utility.yul\":1681:1703   */\n      swap1\n      pop\n        /* \"#utility.yul\":1611:1710   */\n      swap2\n      swap1\n      pop\n      jump\t// out\n        /* \"#utility.yul\":1716:1885   */\n    tag_240:\n        /* \"#utility.yul\":1800:1811   */\n      0x00\n        /* \"#utility.yul\":1834:1840   */\n      dup3\n        /* \"#utility.yul\":1829:1832   */\n      dup3\n        /* \"#utility.yul\":1822:1841   */\n      mstore\n        /* \"#utility.yul\":1874:1878   */\n      0x20\n        /* \"#utility.yul\":1869:1872   */\n      dup3\n        /* \"#utility.yul\":1865:1879   */\n      add\n        /* \"#utility.yul\":1850:1879   */\n      swap1\n      pop\n        /* \"#utility.yul\":1716:1885   */\n      swap3\n      swap2\n      pop\n      pop\n      jump\t// out\n        /* \"#utility.yul\":1891:2137   */\n    tag_241:\n        /* \"#utility.yul\":1972:1973   */\n      0x00\n        /* \"#utility.yul\":1982:2095   */\n    tag_298:\n        /* \"#utility.yul\":1996:2002   */\n      dup4\n        /* \"#utility.yul\":1993:1994   */\n      dup2\n        /* \"#utility.yul\":1990:2003   */\n      lt\n        /* \"#utility.yul\":1982:2095   */\n      iszero\n      tag_300\n      jumpi\n        /* \"#utility.yul\":2081:2082   */\n      dup1\n        /* \"#utility.yul\":2076:2079   */\n      dup3\n        /* \"#utility.yul\":2072:2083   */\n      add\n        /* \"#utility.yul\":2066:2084   */\n      mload\n        /* \"#utility.yul\":2062:2063   */\n      dup2\n        /* \"#utility.yul\":2057:2060   */\n      dup5\n        /* \"#utility.yul\":2053:2064   */\n      add\n        /* \"#utility.yul\":2046:2085   */\n      mstore\n        /* \"#utility.yul\":2018:2020   */\n      0x20\n        /* \"#utility.yul\":2015:2016   */\n      dup2\n        /* \"#utility.yul\":2011:2021   */\n      add\n        /* \"#utility.yul\":2006:2021   */\n      swap1\n      pop\n        /* \"#utility.yul\":1982:2095   */\n      jump(tag_298)\n    tag_300:\n        /* \"#utility.yul\":2129:2130   */\n      0x00\n        /* \"#utility.yul\":2120:2126   */\n      dup5\n        /* \"#utility.yul\":2115:2118   */\n      dup5\n        /* \"#utility.yul\":2111:2127   */\n      add\n        /* \"#utility.yul\":2104:2131   */\n      mstore\n        /* \"#utility.yul\":1953:2137   */\n      pop\n        /* \"#utility.yul\":1891:2137   */\n      pop\n      pop\n      pop\n      jump\t// out\n        /* \"#utility.yul\":2143:2245   */\n    tag_242:\n        /* \"#utility.yul\":2184:2190   */\n      0x00\n        /* \"#utility.yul\":2235:2237   */\n      0x1f\n        /* \"#utility.yul\":2231:2238   */\n      not\n        /* \"#utility.yul\":2226:2228   */\n      0x1f\n        /* \"#utility.yul\":2219:2224   */\n      dup4\n        /* \"#utility.yul\":2215:2229   */\n      add\n        /* \"#utility.yul\":2211:2239   */\n      and\n        /* \"#utility.yul\":2201:2239   */\n      swap1\n      pop\n        /* \"#utility.yul\":2143:2245   */\n      swap2\n      swap1\n      pop\n      jump\t// out\n        /* \"#utility.yul\":2251:2628   */\n    tag_243:\n        /* \"#utility.yul\":2339:2342   */\n      0x00\n        /* \"#utility.yul\":2367:2406   */\n      tag_303\n        /* \"#utility.yul\":2400:2405   */\n      dup3\n        /* \"#utility.yul\":2367:2406   */\n      tag_239\n      jump\t// in\n    tag_303:\n        /* \"#utility.yul\":2422:2493   */\n      tag_304\n        /* \"#utility.yul\":2486:2492   */\n      dup2\n        /* \"#utility.yul\":2481:2484   */\n      dup6\n        /* \"#utility.yul\":2422:2493   */\n      tag_240\n      jump\t// in\n    tag_304:\n        /* \"#utility.yul\":2415:2493   */\n      swap4\n      pop\n        /* \"#utility.yul\":2502:2567   */\n      tag_305\n        /* \"#utility.yul\":2560:2566   */\n      dup2\n        /* \"#utility.yul\":2555:2558   */\n      dup6\n        /* \"#utility.yul\":2548:2552   */\n      0x20\n        /* \"#utility.yul\":2541:2546   */\n      dup7\n        /* \"#utility.yul\":2537:2553   */\n      add\n        /* \"#utility.yul\":2502:2567   */\n      tag_241\n      jump\t// in\n    tag_305:\n        /* \"#utility.yul\":2592:2621   */\n      tag_306\n        /* \"#utility.yul\":2614:2620   */\n      dup2\n        /* \"#utility.yul\":2592:2621   */\n      tag_242\n      jump\t// in\n    tag_306:\n        /* \"#utility.yul\":2587:2590   */\n      dup5\n        /* \"#utility.yul\":2583:2622   */\n      add\n        /* \"#utility.yul\":2576:2622   */\n      swap2\n      pop\n        /* \"#utility.yul\":2343:2628   */\n      pop\n        /* \"#utility.yul\":2251:2628   */\n      swap3\n      swap2\n      pop\n      pop\n      jump\t// out\n        /* \"#utility.yul\":2634:3662   */\n    tag_29:\n        /* \"#utility.yul\":2919:2923   */\n      0x00\n        /* \"#utility.yul\":2957:2960   */\n      0xa0\n        /* \"#utility.yul\":2946:2955   */\n      dup3\n        /* \"#utility.yul\":2942:2961   */\n      add\n        /* \"#utility.yul\":2934:2961   */\n      swap1\n      pop\n        /* \"#utility.yul\":2971:3042   */\n      tag_308\n        /* \"#utility.yul\":3039:3040   */\n      0x00\n        /* \"#utility.yul\":3028:3037   */\n      dup4\n        /* \"#utility.yul\":3024:3041   */\n      add\n        /* \"#utility.yul\":3015:3021   */\n      dup9\n        /* \"#utility.yul\":2971:3042   */\n      tag_232\n      jump\t// in\n    tag_308:\n        /* \"#utility.yul\":3089:3098   */\n      dup2\n        /* \"#utility.yul\":3083:3087   */\n      dup2\n        /* \"#utility.yul\":3079:3099   */\n      sub\n        /* \"#utility.yul\":3074:3076   */\n      0x20\n        /* \"#utility.yul\":3063:3072   */\n      dup4\n        /* \"#utility.yul\":3059:3077   */\n      add\n        /* \"#utility.yul\":3052:3100   */\n      mstore\n        /* \"#utility.yul\":3117:3195   */\n      tag_309\n        /* \"#utility.yul\":3190:3194   */\n      dup2\n        /* \"#utility.yul\":3181:3187   */\n      dup8\n        /* \"#utility.yul\":3117:3195   */\n      tag_243\n      jump\t// in\n    tag_309:\n        /* \"#utility.yul\":3109:3195   */\n      swap1\n      pop\n        /* \"#utility.yul\":3242:3251   */\n      dup2\n        /* \"#utility.yul\":3236:3240   */\n      dup2\n        /* \"#utility.yul\":3232:3252   */\n      sub\n        /* \"#utility.yul\":3227:3229   */\n      0x40\n        /* \"#utility.yul\":3216:3225   */\n      dup4\n        /* \"#utility.yul\":3212:3230   */\n      add\n        /* \"#utility.yul\":3205:3253   */\n      mstore\n        /* \"#utility.yul\":3270:3348   */\n      tag_310\n        /* \"#utility.yul\":3343:3347   */\n      dup2\n        /* \"#utility.yul\":3334:3340   */\n      dup7\n        /* \"#utility.yul\":3270:3348   */\n      tag_243\n      jump\t// in\n    tag_310:\n        /* \"#utility.yul\":3262:3348   */\n      swap1\n      pop\n        /* \"#utility.yul\":3395:3404   */\n      dup2\n        /* \"#utility.yul\":3389:3393   */\n      dup2\n        /* \"#utility.yul\":3385:3405   */\n      sub\n        /* \"#utility.yul\":3380:3382   */\n      0x60\n        /* \"#utility.yul\":3369:3378   */\n      dup4\n        /* \"#utility.yul\":3365:3383   */\n      add\n        /* \"#utility.yul\":3358:3406   */\n      mstore\n        /* \"#utility.yul\":3423:3501   */\n      tag_311\n        /* \"#utility.yul\":3496:3500   */\n      dup2\n        /* \"#utility.yul\":3487:3493   */\n      dup6\n        /* \"#utility.yul\":3423:3501   */\n      tag_243\n      jump\t// in\n    tag_311:\n        /* \"#utility.yul\":3415:3501   */\n      swap1\n      pop\n        /* \"#utility.yul\":3549:3558   */\n      dup2\n        /* \"#utility.yul\":3543:3547   */\n      dup2\n        /* \"#utility.yul\":3539:3559   */\n      sub\n        /* \"#utility.yul\":3533:3536   */\n      0x80\n        /* \"#utility.yul\":3522:3531   */\n      dup4\n        /* \"#utility.yul\":3518:3537   */\n      add\n        /* \"#utility.yul\":3511:3560   */\n      mstore\n        /* \"#utility.yul\":3577:3655   */\n      tag_312\n        /* \"#utility.yul\":3650:3654   */\n      dup2\n        /* \"#utility.yul\":3641:3647   */\n      dup5\n        /* \"#utility.yul\":3577:3655   */\n      tag_243\n      jump\t// in\n    tag_312:\n        /* \"#utility.yul\":3569:3655   */\n      swap1\n      pop\n        /* \"#utility.yul\":2634:3662   */\n      swap7\n      swap6\n      pop\n      pop\n      pop\n      pop\n      pop\n      pop\n      jump\t// out\n        /* \"#utility.yul\":3668:4494   */\n    tag_34:\n        /* \"#utility.yul\":3905:3909   */\n      0x00\n        /* \"#utility.yul\":3943:3946   */\n      0x80\n        /* \"#utility.yul\":3932:3941   */\n      dup3\n        /* \"#utility.yul\":3928:3947   */\n      add\n        /* \"#utility.yul\":3920:3947   */\n      swap1\n      pop\n        /* \"#utility.yul\":3993:4002   */\n      dup2\n        /* \"#utility.yul\":3987:3991   */\n      dup2\n        /* \"#utility.yul\":3983:4003   */\n      sub\n        /* \"#utility.yul\":3979:3980   */\n      0x00\n        /* \"#utility.yul\":3968:3977   */\n      dup4\n        /* \"#utility.yul\":3964:3981   */\n      add\n        /* \"#utility.yul\":3957:4004   */\n      mstore\n        /* \"#utility.yul\":4021:4099   */\n      tag_314\n        /* \"#utility.yul\":4094:4098   */\n      dup2\n        /* \"#utility.yul\":4085:4091   */\n      dup8\n        /* \"#utility.yul\":4021:4099   */\n      tag_243\n      jump\t// in\n    tag_314:\n        /* \"#utility.yul\":4013:4099   */\n      swap1\n      pop\n        /* \"#utility.yul\":4109:4181   */\n      tag_315\n        /* \"#utility.yul\":4177:4179   */\n      0x20\n        /* \"#utility.yul\":4166:4175   */\n      dup4\n        /* \"#utility.yul\":4162:4180   */\n      add\n        /* \"#utility.yul\":4153:4159   */\n      dup7\n        /* \"#utility.yul\":4109:4181   */\n      tag_232\n      jump\t// in\n    tag_315:\n        /* \"#utility.yul\":4228:4237   */\n      dup2\n        /* \"#utility.yul\":4222:4226   */\n      dup2\n        /* \"#utility.yul\":4218:4238   */\n      sub\n        /* \"#utility.yul\":4213:4215   */\n      0x40\n        /* \"#utility.yul\":4202:4211   */\n      dup4\n        /* \"#utility.yul\":4198:4216   */\n      add\n        /* \"#utility.yul\":4191:4239   */\n      mstore\n        /* \"#utility.yul\":4256:4334   */\n      tag_316\n        /* \"#utility.yul\":4329:4333   */\n      dup2\n        /* \"#utility.yul\":4320:4326   */\n      dup6\n        /* \"#utility.yul\":4256:4334   */\n      tag_243\n      jump\t// in\n    tag_316:\n        /* \"#utility.yul\":4248:4334   */\n      swap1\n      pop\n        /* \"#utility.yul\":4381:4390   */\n      dup2\n        /* \"#utility.yul\":4375:4379   */\n      dup2\n        /* \"#utility.yul\":4371:4391   */\n      sub\n        /* \"#utility.yul\":4366:4368   */\n      0x60\n        /* \"#utility.yul\":4355:4364   */\n      dup4\n        /* \"#utility.yul\":4351:4369   */\n      add\n        /* \"#utility.yul\":4344:4392   */\n      mstore\n        /* \"#utility.yul\":4409:4487   */\n      tag_317\n        /* \"#utility.yul\":4482:4486   */\n      dup2\n        /* \"#utility.yul\":4473:4479   */\n      dup5\n        /* \"#utility.yul\":4409:4487   */\n      tag_243\n      jump\t// in\n    tag_317:\n        /* \"#utility.yul\":4401:4487   */\n      swap1\n      pop\n        /* \"#utility.yul\":3668:4494   */\n      swap6\n      swap5\n      pop\n      pop\n      pop\n      pop\n      pop\n      jump\t// out\n        /* \"#utility.yul\":4500:5124   */\n    tag_42:\n        /* \"#utility.yul\":4689:4693   */\n      0x00\n        /* \"#utility.yul\":4727:4729   */\n      0x60\n        /* \"#utility.yul\":4716:4725   */\n      dup3\n        /* \"#utility.yul\":4712:4730   */\n      add\n        /* \"#utility.yul\":4704:4730   */\n      swap1\n      pop\n        /* \"#utility.yul\":4740:4811   */\n      tag_319\n        /* \"#utility.yul\":4808:4809   */\n      0x00\n        /* \"#utility.yul\":4797:4806   */\n      dup4\n        /* \"#utility.yul\":4793:4810   */\n      add\n        /* \"#utility.yul\":4784:4790   */\n      dup7\n        /* \"#utility.yul\":4740:4811   */\n      tag_232\n      jump\t// in\n    tag_319:\n        /* \"#utility.yul\":4858:4867   */\n      dup2\n        /* \"#utility.yul\":4852:4856   */\n      dup2\n        /* \"#utility.yul\":4848:4868   */\n      sub\n        /* \"#utility.yul\":4843:4845   */\n      0x20\n        /* \"#utility.yul\":4832:4841   */\n      dup4\n        /* \"#utility.yul\":4828:4846   */\n      add\n        /* \"#utility.yul\":4821:4869   */\n      mstore\n        /* \"#utility.yul\":4886:4964   */\n      tag_320\n        /* \"#utility.yul\":4959:4963   */\n      dup2\n        /* \"#utility.yul\":4950:4956   */\n      dup6\n        /* \"#utility.yul\":4886:4964   */\n      tag_243\n      jump\t// in\n    tag_320:\n        /* \"#utility.yul\":4878:4964   */\n      swap1\n      pop\n        /* \"#utility.yul\":5011:5020   */\n      dup2\n        /* \"#utility.yul\":5005:5009   */\n      dup2\n        /* \"#utility.yul\":5001:5021   */\n      sub\n        /* \"#utility.yul\":4996:4998   */\n      0x40\n        /* \"#utility.yul\":4985:4994   */\n      dup4\n        /* \"#utility.yul\":4981:4999   */\n      add\n        /* \"#utility.yul\":4974:5022   */\n      mstore\n        /* \"#utility.yul\":5039:5117   */\n      tag_321\n        /* \"#utility.yul\":5112:5116   */\n      dup2\n        /* \"#utility.yul\":5103:5109   */\n      dup5\n        /* \"#utility.yul\":5039:5117   */\n      tag_243\n      jump\t// in\n    tag_321:\n        /* \"#utility.yul\":5031:5117   */\n      swap1\n      pop\n        /* \"#utility.yul\":4500:5124   */\n      swap5\n      swap4\n      pop\n      pop\n      pop\n      pop\n      jump\t// out\n        /* \"#utility.yul\":5130:5247   */\n    tag_244:\n        /* \"#utility.yul\":5239:5240   */\n      0x00\n        /* \"#utility.yul\":5236:5237   */\n      dup1\n        /* \"#utility.yul\":5229:5241   */\n      revert\n        /* \"#utility.yul\":5253:5433   */\n    tag_245:\n        /* \"#utility.yul\":5301:5378   */\n      0x4e487b7100000000000000000000000000000000000000000000000000000000\n        /* \"#utility.yul\":5298:5299   */\n      0x00\n        /* \"#utility.yul\":5291:5379   */\n      mstore\n        /* \"#utility.yul\":5398:5402   */\n      0x41\n        /* \"#utility.yul\":5395:5396   */\n      0x04\n        /* \"#utility.yul\":5388:5403   */\n      mstore\n        /* \"#utility.yul\":5422:5426   */\n      0x24\n        /* \"#utility.yul\":5419:5420   */\n      0x00\n        /* \"#utility.yul\":5412:5427   */\n      revert\n        /* \"#utility.yul\":5439:5720   */\n    tag_246:\n        /* \"#utility.yul\":5522:5549   */\n      tag_325\n        /* \"#utility.yul\":5544:5548   */\n      dup3\n        /* \"#utility.yul\":5522:5549   */\n      tag_242\n      jump\t// in\n    tag_325:\n        /* \"#utility.yul\":5514:5520   */\n      dup2\n        /* \"#utility.yul\":5510:5550   */\n      add\n        /* \"#utility.yul\":5652:5658   */\n      dup2\n        /* \"#utility.yul\":5640:5650   */\n      dup2\n        /* \"#utility.yul\":5637:5659   */\n      lt\n        /* \"#utility.yul\":5616:5634   */\n      0xffffffffffffffff\n        /* \"#utility.yul\":5604:5614   */\n      dup3\n        /* \"#utility.yul\":5601:5635   */\n      gt\n        /* \"#utility.yul\":5598:5660   */\n      or\n        /* \"#utility.yul\":5595:5683   */\n      iszero\n      tag_326\n      jumpi\n        /* \"#utility.yul\":5663:5681   */\n      tag_327\n      tag_245\n      jump\t// in\n    tag_327:\n        /* \"#utility.yul\":5595:5683   */\n    tag_326:\n        /* \"#utility.yul\":5703:5713   */\n      dup1\n        /* \"#utility.yul\":5699:5701   */\n      0x40\n        /* \"#utility.yul\":5692:5714   */\n      mstore\n        /* \"#utility.yul\":5482:5720   */\n      pop\n        /* \"#utility.yul\":5439:5720   */\n      pop\n      pop\n      jump\t// out\n        /* \"#utility.yul\":5726:5855   */\n    tag_247:\n        /* \"#utility.yul\":5760:5766   */\n      0x00\n        /* \"#utility.yul\":5787:5807   */\n      tag_329\n      tag_233\n      jump\t// in\n    tag_329:\n        /* \"#utility.yul\":5777:5807   */\n      swap1\n      pop\n        /* \"#utility.yul\":5816:5849   */\n      tag_330\n        /* \"#utility.yul\":5844:5848   */\n      dup3\n        /* \"#utility.yul\":5836:5842   */\n      dup3\n        /* \"#utility.yul\":5816:5849   */\n      tag_246\n      jump\t// in\n    tag_330:\n        /* \"#utility.yul\":5726:5855   */\n      swap2\n      swap1\n      pop\n      jump\t// out\n        /* \"#utility.yul\":5861:5978   */\n    tag_248:\n        /* \"#utility.yul\":5970:5971   */\n      0x00\n        /* \"#utility.yul\":5967:5968   */\n      dup1\n        /* \"#utility.yul\":5960:5972   */\n      revert\n        /* \"#utility.yul\":5984:6106   */\n    tag_249:\n        /* \"#utility.yul\":6057:6081   */\n      tag_333\n        /* \"#utility.yul\":6075:6080   */\n      dup2\n        /* \"#utility.yul\":6057:6081   */\n      tag_231\n      jump\t// in\n    tag_333:\n        /* \"#utility.yul\":6050:6055   */\n      dup2\n        /* \"#utility.yul\":6047:6082   */\n      eq\n        /* \"#utility.yul\":6037:6100   */\n      tag_334\n      jumpi\n        /* \"#utility.yul\":6096:6097   */\n      0x00\n        /* \"#utility.yul\":6093:6094   */\n      dup1\n        /* \"#utility.yul\":6086:6098   */\n      revert\n        /* \"#utility.yul\":6037:6100   */\n    tag_334:\n        /* \"#utility.yul\":5984:6106   */\n      pop\n      jump\t// out\n        /* \"#utility.yul\":6112:6251   */\n    tag_250:\n        /* \"#utility.yul\":6158:6163   */\n      0x00\n        /* \"#utility.yul\":6196:6202   */\n      dup2\n        /* \"#utility.yul\":6183:6203   */\n      calldataload\n        /* \"#utility.yul\":6174:6203   */\n      swap1\n      pop\n        /* \"#utility.yul\":6212:6245   */\n      tag_336\n        /* \"#utility.yul\":6239:6244   */\n      dup2\n        /* \"#utility.yul\":6212:6245   */\n      tag_249\n      jump\t// in\n    tag_336:\n        /* \"#utility.yul\":6112:6251   */\n      swap3\n      swap2\n      pop\n      pop\n      jump\t// out\n        /* \"#utility.yul\":6257:6374   */\n    tag_251:\n        /* \"#utility.yul\":6366:6367   */\n      0x00\n        /* \"#utility.yul\":6363:6364   */\n      dup1\n        /* \"#utility.yul\":6356:6368   */\n      revert\n        /* \"#utility.yul\":6380:6497   */\n    tag_252:\n        /* \"#utility.yul\":6489:6490   */\n      0x00\n        /* \"#utility.yul\":6486:6487   */\n      dup1\n        /* \"#utility.yul\":6479:6491   */\n      revert\n        /* \"#utility.yul\":6503:6811   */\n    tag_253:\n        /* \"#utility.yul\":6565:6569   */\n      0x00\n        /* \"#utility.yul\":6655:6673   */\n      0xffffffffffffffff\n        /* \"#utility.yul\":6647:6653   */\n      dup3\n        /* \"#utility.yul\":6644:6674   */\n      gt\n        /* \"#utility.yul\":6641:6697   */\n      iszero\n      tag_340\n      jumpi\n        /* \"#utility.yul\":6677:6695   */\n      tag_341\n      tag_245\n      jump\t// in\n    tag_341:\n        /* \"#utility.yul\":6641:6697   */\n    tag_340:\n        /* \"#utility.yul\":6715:6744   */\n      tag_342\n        /* \"#utility.yul\":6737:6743   */\n      dup3\n        /* \"#utility.yul\":6715:6744   */\n      tag_242\n      jump\t// in\n    tag_342:\n        /* \"#utility.yul\":6707:6744   */\n      swap1\n      pop\n        /* \"#utility.yul\":6799:6803   */\n      0x20\n        /* \"#utility.yul\":6793:6797   */\n      dup2\n        /* \"#utility.yul\":6789:6804   */\n      add\n        /* \"#utility.yul\":6781:6804   */\n      swap1\n      pop\n        /* \"#utility.yul\":6503:6811   */\n      swap2\n      swap1\n      pop\n      jump\t// out\n        /* \"#utility.yul\":6817:6963   */\n    tag_254:\n        /* \"#utility.yul\":6914:6920   */\n      dup3\n        /* \"#utility.yul\":6909:6912   */\n      dup2\n        /* \"#utility.yul\":6904:6907   */\n      dup4\n        /* \"#utility.yul\":6891:6921   */\n      calldatacopy\n        /* \"#utility.yul\":6955:6956   */\n      0x00\n        /* \"#utility.yul\":6946:6952   */\n      dup4\n        /* \"#utility.yul\":6941:6944   */\n      dup4\n        /* \"#utility.yul\":6937:6953   */\n      add\n        /* \"#utility.yul\":6930:6957   */\n      mstore\n        /* \"#utility.yul\":6817:6963   */\n      pop\n      pop\n      pop\n      jump\t// out\n        /* \"#utility.yul\":6969:7394   */\n    tag_255:\n        /* \"#utility.yul\":7047:7052   */\n      0x00\n        /* \"#utility.yul\":7072:7138   */\n      tag_345\n        /* \"#utility.yul\":7088:7137   */\n      tag_346\n        /* \"#utility.yul\":7130:7136   */\n      dup5\n        /* \"#utility.yul\":7088:7137   */\n      tag_253\n      jump\t// in\n    tag_346:\n        /* \"#utility.yul\":7072:7138   */\n      tag_247\n      jump\t// in\n    tag_345:\n        /* \"#utility.yul\":7063:7138   */\n      swap1\n      pop\n        /* \"#utility.yul\":7161:7167   */\n      dup3\n        /* \"#utility.yul\":7154:7159   */\n      dup2\n        /* \"#utility.yul\":7147:7168   */\n      mstore\n        /* \"#utility.yul\":7199:7203   */\n      0x20\n        /* \"#utility.yul\":7192:7197   */\n      dup2\n        /* \"#utility.yul\":7188:7204   */\n      add\n        /* \"#utility.yul\":7237:7240   */\n      dup5\n        /* \"#utility.yul\":7228:7234   */\n      dup5\n        /* \"#utility.yul\":7223:7226   */\n      dup5\n        /* \"#utility.yul\":7219:7235   */\n      add\n        /* \"#utility.yul\":7216:7241   */\n      gt\n        /* \"#utility.yul\":7213:7325   */\n      iszero\n      tag_347\n      jumpi\n        /* \"#utility.yul\":7244:7323   */\n      tag_348\n      tag_252\n      jump\t// in\n    tag_348:\n        /* \"#utility.yul\":7213:7325   */\n    tag_347:\n        /* \"#utility.yul\":7334:7388   */\n      tag_349\n        /* \"#utility.yul\":7381:7387   */\n      dup5\n        /* \"#utility.yul\":7376:7379   */\n      dup3\n        /* \"#utility.yul\":7371:7374   */\n      dup6\n        /* \"#utility.yul\":7334:7388   */\n      tag_254\n      jump\t// in\n    tag_349:\n        /* \"#utility.yul\":7053:7394   */\n      pop\n        /* \"#utility.yul\":6969:7394   */\n      swap4\n      swap3\n      pop\n      pop\n      pop\n      jump\t// out\n        /* \"#utility.yul\":7414:7754   */\n    tag_256:\n        /* \"#utility.yul\":7470:7475   */\n      0x00\n        /* \"#utility.yul\":7519:7522   */\n      dup3\n        /* \"#utility.yul\":7512:7516   */\n      0x1f\n        /* \"#utility.yul\":7504:7510   */\n      dup4\n        /* \"#utility.yul\":7500:7517   */\n      add\n        /* \"#utility.yul\":7496:7523   */\n      slt\n        /* \"#utility.yul\":7486:7608   */\n      tag_351\n      jumpi\n        /* \"#utility.yul\":7527:7606   */\n      tag_352\n      tag_251\n      jump\t// in\n    tag_352:\n        /* \"#utility.yul\":7486:7608   */\n    tag_351:\n        /* \"#utility.yul\":7644:7650   */\n      dup2\n        /* \"#utility.yul\":7631:7651   */\n      calldataload\n        /* \"#utility.yul\":7669:7748   */\n      tag_353\n        /* \"#utility.yul\":7744:7747   */\n      dup5\n        /* \"#utility.yul\":7736:7742   */\n      dup3\n        /* \"#utility.yul\":7729:7733   */\n      0x20\n        /* \"#utility.yul\":7721:7727   */\n      dup7\n        /* \"#utility.yul\":7717:7734   */\n      add\n        /* \"#utility.yul\":7669:7748   */\n      tag_255\n      jump\t// in\n    tag_353:\n        /* \"#utility.yul\":7660:7748   */\n      swap2\n      pop\n        /* \"#utility.yul\":7476:7754   */\n      pop\n        /* \"#utility.yul\":7414:7754   */\n      swap3\n      swap2\n      pop\n      pop\n      jump\t// out\n        /* \"#utility.yul\":7779:9522   */\n    tag_257:\n        /* \"#utility.yul\":7848:7853   */\n      0x00\n        /* \"#utility.yul\":7892:7896   */\n      0xa0\n        /* \"#utility.yul\":7880:7889   */\n      dup3\n        /* \"#utility.yul\":7875:7878   */\n      dup5\n        /* \"#utility.yul\":7871:7890   */\n      sub\n        /* \"#utility.yul\":7867:7897   */\n      slt\n        /* \"#utility.yul\":7864:7981   */\n      iszero\n      tag_355\n      jumpi\n        /* \"#utility.yul\":7900:7979   */\n      tag_356\n      tag_244\n      jump\t// in\n    tag_356:\n        /* \"#utility.yul\":7864:7981   */\n    tag_355:\n        /* \"#utility.yul\":7999:8020   */\n      tag_357\n        /* \"#utility.yul\":8015:8019   */\n      0xa0\n        /* \"#utility.yul\":7999:8020   */\n      tag_247\n      jump\t// in\n    tag_357:\n        /* \"#utility.yul\":7990:8020   */\n      swap1\n      pop\n        /* \"#utility.yul\":8083:8084   */\n      0x00\n        /* \"#utility.yul\":8123:8172   */\n      tag_358\n        /* \"#utility.yul\":8168:8171   */\n      dup5\n        /* \"#utility.yul\":8159:8165   */\n      dup3\n        /* \"#utility.yul\":8148:8157   */\n      dup6\n        /* \"#utility.yul\":8144:8166   */\n      add\n        /* \"#utility.yul\":8123:8172   */\n      tag_250\n      jump\t// in\n    tag_358:\n        /* \"#utility.yul\":8116:8120   */\n      0x00\n        /* \"#utility.yul\":8109:8114   */\n      dup4\n        /* \"#utility.yul\":8105:8121   */\n      add\n        /* \"#utility.yul\":8098:8173   */\n      mstore\n        /* \"#utility.yul\":8030:8184   */\n      pop\n        /* \"#utility.yul\":8272:8274   */\n      0x20\n        /* \"#utility.yul\":8261:8270   */\n      dup3\n        /* \"#utility.yul\":8257:8275   */\n      add\n        /* \"#utility.yul\":8244:8276   */\n      calldataload\n        /* \"#utility.yul\":8303:8321   */\n      0xffffffffffffffff\n        /* \"#utility.yul\":8295:8301   */\n      dup2\n        /* \"#utility.yul\":8292:8322   */\n      gt\n        /* \"#utility.yul\":8289:8406   */\n      iszero\n      tag_359\n      jumpi\n        /* \"#utility.yul\":8325:8404   */\n      tag_360\n      tag_248\n      jump\t// in\n    tag_360:\n        /* \"#utility.yul\":8289:8406   */\n    tag_359:\n        /* \"#utility.yul\":8445:8504   */\n      tag_361\n        /* \"#utility.yul\":8500:8503   */\n      dup5\n        /* \"#utility.yul\":8491:8497   */\n      dup3\n        /* \"#utility.yul\":8480:8489   */\n      dup6\n        /* \"#utility.yul\":8476:8498   */\n      add\n        /* \"#utility.yul\":8445:8504   */\n      tag_256\n      jump\t// in\n    tag_361:\n        /* \"#utility.yul\":8438:8442   */\n      0x20\n        /* \"#utility.yul\":8431:8436   */\n      dup4\n        /* \"#utility.yul\":8427:8443   */\n      add\n        /* \"#utility.yul\":8420:8505   */\n      mstore\n        /* \"#utility.yul\":8194:8516   */\n      pop\n        /* \"#utility.yul\":8607:8609   */\n      0x40\n        /* \"#utility.yul\":8596:8605   */\n      dup3\n        /* \"#utility.yul\":8592:8610   */\n      add\n        /* \"#utility.yul\":8579:8611   */\n      calldataload\n        /* \"#utility.yul\":8638:8656   */\n      0xffffffffffffffff\n        /* \"#utility.yul\":8630:8636   */\n      dup2\n        /* \"#utility.yul\":8627:8657   */\n      gt\n        /* \"#utility.yul\":8624:8741   */\n      iszero\n      tag_362\n      jumpi\n        /* \"#utility.yul\":8660:8739   */\n      tag_363\n      tag_248\n      jump\t// in\n    tag_363:\n        /* \"#utility.yul\":8624:8741   */\n    tag_362:\n        /* \"#utility.yul\":8780:8839   */\n      tag_364\n        /* \"#utility.yul\":8835:8838   */\n      dup5\n        /* \"#utility.yul\":8826:8832   */\n      dup3\n        /* \"#utility.yul\":8815:8824   */\n      dup6\n        /* \"#utility.yul\":8811:8833   */\n      add\n        /* \"#utility.yul\":8780:8839   */\n      tag_256\n      jump\t// in\n    tag_364:\n        /* \"#utility.yul\":8773:8777   */\n      0x40\n        /* \"#utility.yul\":8766:8771   */\n      dup4\n        /* \"#utility.yul\":8762:8778   */\n      add\n        /* \"#utility.yul\":8755:8840   */\n      mstore\n        /* \"#utility.yul\":8526:8851   */\n      pop\n        /* \"#utility.yul\":8937:8939   */\n      0x60\n        /* \"#utility.yul\":8926:8935   */\n      dup3\n        /* \"#utility.yul\":8922:8940   */\n      add\n        /* \"#utility.yul\":8909:8941   */\n      calldataload\n        /* \"#utility.yul\":8968:8986   */\n      0xffffffffffffffff\n        /* \"#utility.yul\":8960:8966   */\n      dup2\n        /* \"#utility.yul\":8957:8987   */\n      gt\n        /* \"#utility.yul\":8954:9071   */\n      iszero\n      tag_365\n      jumpi\n        /* \"#utility.yul\":8990:9069   */\n      tag_366\n      tag_248\n      jump\t// in\n    tag_366:\n        /* \"#utility.yul\":8954:9071   */\n    tag_365:\n        /* \"#utility.yul\":9110:9169   */\n      tag_367\n        /* \"#utility.yul\":9165:9168   */\n      dup5\n        /* \"#utility.yul\":9156:9162   */\n      dup3\n        /* \"#utility.yul\":9145:9154   */\n      dup6\n        /* \"#utility.yul\":9141:9163   */\n      add\n        /* \"#utility.yul\":9110:9169   */\n      tag_256\n      jump\t// in\n    tag_367:\n        /* \"#utility.yul\":9103:9107   */\n      0x60\n        /* \"#utility.yul\":9096:9101   */\n      dup4\n        /* \"#utility.yul\":9092:9108   */\n      add\n        /* \"#utility.yul\":9085:9170   */\n      mstore\n        /* \"#utility.yul\":8861:9181   */\n      pop\n        /* \"#utility.yul\":9270:9273   */\n      0x80\n        /* \"#utility.yul\":9259:9268   */\n      dup3\n        /* \"#utility.yul\":9255:9274   */\n      add\n        /* \"#utility.yul\":9242:9275   */\n      calldataload\n        /* \"#utility.yul\":9302:9320   */\n      0xffffffffffffffff\n        /* \"#utility.yul\":9294:9300   */\n      dup2\n        /* \"#utility.yul\":9291:9321   */\n      gt\n        /* \"#utility.yul\":9288:9405   */\n      iszero\n      tag_368\n      jumpi\n        /* \"#utility.yul\":9324:9403   */\n      tag_369\n      tag_248\n      jump\t// in\n    tag_369:\n        /* \"#utility.yul\":9288:9405   */\n    tag_368:\n        /* \"#utility.yul\":9444:9503   */\n      tag_370\n        /* \"#utility.yul\":9499:9502   */\n      dup5\n        /* \"#utility.yul\":9490:9496   */\n      dup3\n        /* \"#utility.yul\":9479:9488   */\n      dup6\n        /* \"#utility.yul\":9475:9497   */\n      add\n        /* \"#utility.yul\":9444:9503   */\n      tag_256\n      jump\t// in\n    tag_370:\n        /* \"#utility.yul\":9437:9441   */\n      0x80\n        /* \"#utility.yul\":9430:9435   */\n      dup4\n        /* \"#utility.yul\":9426:9442   */\n      add\n        /* \"#utility.yul\":9419:9504   */\n      mstore\n        /* \"#utility.yul\":9191:9515   */\n      pop\n        /* \"#utility.yul\":7779:9522   */\n      swap3\n      swap2\n      pop\n      pop\n      jump\t// out\n        /* \"#utility.yul\":9528:10057   */\n    tag_45:\n        /* \"#utility.yul\":9607:9613   */\n      0x00\n        /* \"#utility.yul\":9656:9658   */\n      0x20\n        /* \"#utility.yul\":9644:9653   */\n      dup3\n        /* \"#utility.yul\":9635:9642   */\n      dup5\n        /* \"#utility.yul\":9631:9654   */\n      sub\n        /* \"#utility.yul\":9627:9659   */\n      slt\n        /* \"#utility.yul\":9624:9743   */\n      iszero\n      tag_372\n      jumpi\n        /* \"#utility.yul\":9662:9741   */\n      tag_373\n      tag_234\n      jump\t// in\n    tag_373:\n        /* \"#utility.yul\":9624:9743   */\n    tag_372:\n        /* \"#utility.yul\":9810:9811   */\n      0x00\n        /* \"#utility.yul\":9799:9808   */\n      dup3\n        /* \"#utility.yul\":9795:9812   */\n      add\n        /* \"#utility.yul\":9782:9813   */\n      calldataload\n        /* \"#utility.yul\":9840:9858   */\n      0xffffffffffffffff\n        /* \"#utility.yul\":9832:9838   */\n      dup2\n        /* \"#utility.yul\":9829:9859   */\n      gt\n        /* \"#utility.yul\":9826:9943   */\n      iszero\n      tag_374\n      jumpi\n        /* \"#utility.yul\":9862:9941   */\n      tag_375\n      tag_235\n      jump\t// in\n    tag_375:\n        /* \"#utility.yul\":9826:9943   */\n    tag_374:\n        /* \"#utility.yul\":9967:10040   */\n      tag_376\n        /* \"#utility.yul\":10032:10039   */\n      dup5\n        /* \"#utility.yul\":10023:10029   */\n      dup3\n        /* \"#utility.yul\":10012:10021   */\n      dup6\n        /* \"#utility.yul\":10008:10030   */\n      add\n        /* \"#utility.yul\":9967:10040   */\n      tag_257\n      jump\t// in\n    tag_376:\n        /* \"#utility.yul\":9957:10040   */\n      swap2\n      pop\n        /* \"#utility.yul\":9753:10050   */\n      pop\n        /* \"#utility.yul\":9528:10057   */\n      swap3\n      swap2\n      pop\n      pop\n      jump\t// out\n        /* \"#utility.yul\":10063:10737   */\n    tag_49:\n        /* \"#utility.yul\":10151:10157   */\n      0x00\n        /* \"#utility.yul\":10159:10165   */\n      dup1\n        /* \"#utility.yul\":10208:10210   */\n      0x40\n        /* \"#utility.yul\":10196:10205   */\n      dup4\n        /* \"#utility.yul\":10187:10194   */\n      dup6\n        /* \"#utility.yul\":10183:10206   */\n      sub\n        /* \"#utility.yul\":10179:10211   */\n      slt\n        /* \"#utility.yul\":10176:10295   */\n      iszero\n      tag_378\n      jumpi\n        /* \"#utility.yul\":10214:10293   */\n      tag_379\n      tag_234\n      jump\t// in\n    tag_379:\n        /* \"#utility.yul\":10176:10295   */\n    tag_378:\n        /* \"#utility.yul\":10334:10335   */\n      0x00\n        /* \"#utility.yul\":10359:10412   */\n      tag_380\n        /* \"#utility.yul\":10404:10411   */\n      dup6\n        /* \"#utility.yul\":10395:10401   */\n      dup3\n        /* \"#utility.yul\":10384:10393   */\n      dup7\n        /* \"#utility.yul\":10380:10402   */\n      add\n        /* \"#utility.yul\":10359:10412   */\n      tag_238\n      jump\t// in\n    tag_380:\n        /* \"#utility.yul\":10349:10412   */\n      swap3\n      pop\n        /* \"#utility.yul\":10305:10422   */\n      pop\n        /* \"#utility.yul\":10489:10491   */\n      0x20\n        /* \"#utility.yul\":10478:10487   */\n      dup4\n        /* \"#utility.yul\":10474:10492   */\n      add\n        /* \"#utility.yul\":10461:10493   */\n      calldataload\n        /* \"#utility.yul\":10520:10538   */\n      0xffffffffffffffff\n        /* \"#utility.yul\":10512:10518   */\n      dup2\n        /* \"#utility.yul\":10509:10539   */\n      gt\n        /* \"#utility.yul\":10506:10623   */\n      iszero\n      tag_381\n      jumpi\n        /* \"#utility.yul\":10542:10621   */\n      tag_382\n      tag_235\n      jump\t// in\n    tag_382:\n        /* \"#utility.yul\":10506:10623   */\n    tag_381:\n        /* \"#utility.yul\":10647:10720   */\n      tag_383\n        /* \"#utility.yul\":10712:10719   */\n      dup6\n        /* \"#utility.yul\":10703:10709   */\n      dup3\n        /* \"#utility.yul\":10692:10701   */\n      dup7\n        /* \"#utility.yul\":10688:10710   */\n      add\n        /* \"#utility.yul\":10647:10720   */\n      tag_257\n      jump\t// in\n    tag_383:\n        /* \"#utility.yul\":10637:10720   */\n      swap2\n      pop\n        /* \"#utility.yul\":10432:10730   */\n      pop\n        /* \"#utility.yul\":10063:10737   */\n      swap3\n      pop\n      swap3\n      swap1\n      pop\n      jump\t// out\n        /* \"#utility.yul\":10743:11072   */\n    tag_53:\n        /* \"#utility.yul\":10802:10808   */\n      0x00\n        /* \"#utility.yul\":10851:10853   */\n      0x20\n        /* \"#utility.yul\":10839:10848   */\n      dup3\n        /* \"#utility.yul\":10830:10837   */\n      dup5\n        /* \"#utility.yul\":10826:10849   */\n      sub\n        /* \"#utility.yul\":10822:10854   */\n      slt\n        /* \"#utility.yul\":10819:10938   */\n      iszero\n      tag_385\n      jumpi\n        /* \"#utility.yul\":10857:10936   */\n      tag_386\n      tag_234\n      jump\t// in\n    tag_386:\n        /* \"#utility.yul\":10819:10938   */\n    tag_385:\n        /* \"#utility.yul\":10977:10978   */\n      0x00\n        /* \"#utility.yul\":11002:11055   */\n      tag_387\n        /* \"#utility.yul\":11047:11054   */\n      dup5\n        /* \"#utility.yul\":11038:11044   */\n      dup3\n        /* \"#utility.yul\":11027:11036   */\n      dup6\n        /* \"#utility.yul\":11023:11045   */\n      add\n        /* \"#utility.yul\":11002:11055   */\n      tag_250\n      jump\t// in\n    tag_387:\n        /* \"#utility.yul\":10992:11055   */\n      swap2\n      pop\n        /* \"#utility.yul\":10948:11065   */\n      pop\n        /* \"#utility.yul\":10743:11072   */\n      swap3\n      swap2\n      pop\n      pop\n      jump\t// out\n        /* \"#utility.yul\":11078:12308   */\n    tag_62:\n        /* \"#utility.yul\":11411:11415   */\n      0x00\n        /* \"#utility.yul\":11449:11452   */\n      0xc0\n        /* \"#utility.yul\":11438:11447   */\n      dup3\n        /* \"#utility.yul\":11434:11453   */\n      add\n        /* \"#utility.yul\":11426:11453   */\n      swap1\n      pop\n        /* \"#utility.yul\":11463:11534   */\n      tag_389\n        /* \"#utility.yul\":11531:11532   */\n      0x00\n        /* \"#utility.yul\":11520:11529   */\n      dup4\n        /* \"#utility.yul\":11516:11533   */\n      add\n        /* \"#utility.yul\":11507:11513   */\n      dup10\n        /* \"#utility.yul\":11463:11534   */\n      tag_232\n      jump\t// in\n    tag_389:\n        /* \"#utility.yul\":11581:11590   */\n      dup2\n        /* \"#utility.yul\":11575:11579   */\n      dup2\n        /* \"#utility.yul\":11571:11591   */\n      sub\n        /* \"#utility.yul\":11566:11568   */\n      0x20\n        /* \"#utility.yul\":11555:11564   */\n      dup4\n        /* \"#utility.yul\":11551:11569   */\n      add\n        /* \"#utility.yul\":11544:11592   */\n      mstore\n        /* \"#utility.yul\":11609:11687   */\n      tag_390\n        /* \"#utility.yul\":11682:11686   */\n      dup2\n        /* \"#utility.yul\":11673:11679   */\n      dup9\n        /* \"#utility.yul\":11609:11687   */\n      tag_243\n      jump\t// in\n    tag_390:\n        /* \"#utility.yul\":11601:11687   */\n      swap1\n      pop\n        /* \"#utility.yul\":11734:11743   */\n      dup2\n        /* \"#utility.yul\":11728:11732   */\n      dup2\n        /* \"#utility.yul\":11724:11744   */\n      sub\n        /* \"#utility.yul\":11719:11721   */\n      0x40\n        /* \"#utility.yul\":11708:11717   */\n      dup4\n        /* \"#utility.yul\":11704:11722   */\n      add\n        /* \"#utility.yul\":11697:11745   */\n      mstore\n        /* \"#utility.yul\":11762:11840   */\n      tag_391\n        /* \"#utility.yul\":11835:11839   */\n      dup2\n        /* \"#utility.yul\":11826:11832   */\n      dup8\n        /* \"#utility.yul\":11762:11840   */\n      tag_243\n      jump\t// in\n    tag_391:\n        /* \"#utility.yul\":11754:11840   */\n      swap1\n      pop\n        /* \"#utility.yul\":11887:11896   */\n      dup2\n        /* \"#utility.yul\":11881:11885   */\n      dup2\n        /* \"#utility.yul\":11877:11897   */\n      sub\n        /* \"#utility.yul\":11872:11874   */\n      0x60\n        /* \"#utility.yul\":11861:11870   */\n      dup4\n        /* \"#utility.yul\":11857:11875   */\n      add\n        /* \"#utility.yul\":11850:11898   */\n      mstore\n        /* \"#utility.yul\":11915:11993   */\n      tag_392\n        /* \"#utility.yul\":11988:11992   */\n      dup2\n        /* \"#utility.yul\":11979:11985   */\n      dup7\n        /* \"#utility.yul\":11915:11993   */\n      tag_243\n      jump\t// in\n    tag_392:\n        /* \"#utility.yul\":11907:11993   */\n      swap1\n      pop\n        /* \"#utility.yul\":12041:12050   */\n      dup2\n        /* \"#utility.yul\":12035:12039   */\n      dup2\n        /* \"#utility.yul\":12031:12051   */\n      sub\n        /* \"#utility.yul\":12025:12028   */\n      0x80\n        /* \"#utility.yul\":12014:12023   */\n      dup4\n        /* \"#utility.yul\":12010:12029   */\n      add\n        /* \"#utility.yul\":12003:12052   */\n      mstore\n        /* \"#utility.yul\":12069:12147   */\n      tag_393\n        /* \"#utility.yul\":12142:12146   */\n      dup2\n        /* \"#utility.yul\":12133:12139   */\n      dup6\n        /* \"#utility.yul\":12069:12147   */\n      tag_243\n      jump\t// in\n    tag_393:\n        /* \"#utility.yul\":12061:12147   */\n      swap1\n      pop\n        /* \"#utility.yul\":12195:12204   */\n      dup2\n        /* \"#utility.yul\":12189:12193   */\n      dup2\n        /* \"#utility.yul\":12185:12205   */\n      sub\n        /* \"#utility.yul\":12179:12182   */\n      0xa0\n        /* \"#utility.yul\":12168:12177   */\n      dup4\n        /* \"#utility.yul\":12164:12183   */\n      add\n        /* \"#utility.yul\":12157:12206   */\n      mstore\n        /* \"#utility.yul\":12223:12301   */\n      tag_394\n        /* \"#utility.yul\":12296:12300   */\n      dup2\n        /* \"#utility.yul\":12287:12293   */\n      dup5\n        /* \"#utility.yul\":12223:12301   */\n      tag_243\n      jump\t// in\n    tag_394:\n        /* \"#utility.yul\":12215:12301   */\n      swap1\n      pop\n        /* \"#utility.yul\":11078:12308   */\n      swap8\n      swap7\n      pop\n      pop\n      pop\n      pop\n      pop\n      pop\n      pop\n      jump\t// out\n        /* \"#utility.yul\":12314:12494   */\n    tag_258:\n        /* \"#utility.yul\":12362:12439   */\n      0x4e487b7100000000000000000000000000000000000000000000000000000000\n        /* \"#utility.yul\":12359:12360   */\n      0x00\n        /* \"#utility.yul\":12352:12440   */\n      mstore\n        /* \"#utility.yul\":12459:12463   */\n      0x22\n        /* \"#utility.yul\":12456:12457   */\n      0x04\n        /* \"#utility.yul\":12449:12464   */\n      mstore\n        /* \"#utility.yul\":12483:12487   */\n      0x24\n        /* \"#utility.yul\":12480:12481   */\n      0x00\n        /* \"#utility.yul\":12473:12488   */\n      revert\n        /* \"#utility.yul\":12500:12820   */\n    tag_80:\n        /* \"#utility.yul\":12544:12550   */\n      0x00\n        /* \"#utility.yul\":12581:12582   */\n      0x02\n        /* \"#utility.yul\":12575:12579   */\n      dup3\n        /* \"#utility.yul\":12571:12583   */\n      div\n        /* \"#utility.yul\":12561:12583   */\n      swap1\n      pop\n        /* \"#utility.yul\":12628:12629   */\n      0x01\n        /* \"#utility.yul\":12622:12626   */\n      dup3\n        /* \"#utility.yul\":12618:12630   */\n      and\n        /* \"#utility.yul\":12649:12667   */\n      dup1\n        /* \"#utility.yul\":12639:12720   */\n      tag_397\n      jumpi\n        /* \"#utility.yul\":12705:12709   */\n      0x7f\n        /* \"#utility.yul\":12697:12703   */\n      dup3\n        /* \"#utility.yul\":12693:12710   */\n      and\n        /* \"#utility.yul\":12683:12710   */\n      swap2\n      pop\n        /* \"#utility.yul\":12639:12720   */\n    tag_397:\n        /* \"#utility.yul\":12767:12769   */\n      0x20\n        /* \"#utility.yul\":12759:12765   */\n      dup3\n        /* \"#utility.yul\":12756:12770   */\n      lt\n        /* \"#utility.yul\":12736:12754   */\n      dup2\n        /* \"#utility.yul\":12733:12771   */\n      sub\n        /* \"#utility.yul\":12730:12814   */\n      tag_398\n      jumpi\n        /* \"#utility.yul\":12786:12804   */\n      tag_399\n      tag_258\n      jump\t// in\n    tag_399:\n        /* \"#utility.yul\":12730:12814   */\n    tag_398:\n        /* \"#utility.yul\":12551:12820   */\n      pop\n        /* \"#utility.yul\":12500:12820   */\n      swap2\n      swap1\n      pop\n      jump\t// out\n        /* \"#utility.yul\":12826:12967   */\n    tag_259:\n        /* \"#utility.yul\":12875:12879   */\n      0x00\n        /* \"#utility.yul\":12898:12901   */\n      dup2\n        /* \"#utility.yul\":12890:12901   */\n      swap1\n      pop\n        /* \"#utility.yul\":12921:12924   */\n      dup2\n        /* \"#utility.yul\":12918:12919   */\n      0x00\n        /* \"#utility.yul\":12911:12925   */\n      mstore\n        /* \"#utility.yul\":12955:12959   */\n      0x20\n        /* \"#utility.yul\":12952:12953   */\n      0x00\n        /* \"#utility.yul\":12942:12960   */\n      keccak256\n        /* \"#utility.yul\":12934:12960   */\n      swap1\n      pop\n        /* \"#utility.yul\":12826:12967   */\n      swap2\n      swap1\n      pop\n      jump\t// out\n        /* \"#utility.yul\":12973:13066   */\n    tag_260:\n        /* \"#utility.yul\":13010:13016   */\n      0x00\n        /* \"#utility.yul\":13057:13059   */\n      0x20\n        /* \"#utility.yul\":13052:13054   */\n      0x1f\n        /* \"#utility.yul\":13045:13050   */\n      dup4\n        /* \"#utility.yul\":13041:13055   */\n      add\n        /* \"#utility.yul\":13037:13060   */\n      div\n        /* \"#utility.yul\":13027:13060   */\n      swap1\n      pop\n        /* \"#utility.yul\":12973:13066   */\n      swap2\n      swap1\n      pop\n      jump\t// out\n        /* \"#utility.yul\":13072:13179   */\n    tag_261:\n        /* \"#utility.yul\":13116:13124   */\n      0x00\n        /* \"#utility.yul\":13166:13171   */\n      dup3\n        /* \"#utility.yul\":13160:13164   */\n      dup3\n        /* \"#utility.yul\":13156:13172   */\n      shl\n        /* \"#utility.yul\":13135:13172   */\n      swap1\n      pop\n        /* \"#utility.yul\":13072:13179   */\n      swap3\n      swap2\n      pop\n      pop\n      jump\t// out\n        /* \"#utility.yul\":13185:13578   */\n    tag_262:\n        /* \"#utility.yul\":13254:13260   */\n      0x00\n        /* \"#utility.yul\":13304:13305   */\n      0x08\n        /* \"#utility.yul\":13292:13302   */\n      dup4\n        /* \"#utility.yul\":13288:13306   */\n      mul\n        /* \"#utility.yul\":13327:13424   */\n      tag_404\n        /* \"#utility.yul\":13357:13423   */\n      0xffffffffffffffffffffffffffffffffffffffffffffffffffffffffffffffff\n        /* \"#utility.yul\":13346:13355   */\n      dup3\n        /* \"#utility.yul\":13327:13424   */\n      tag_261\n      jump\t// in\n    tag_404:\n        /* \"#utility.yul\":13445:13484   */\n      tag_405\n        /* \"#utility.yul\":13475:13483   */\n      dup7\n        /* \"#utility.yul\":13464:13473   */\n      dup4\n        /* \"#utility.yul\":13445:13484   */\n      tag_261\n      jump\t// in\n    tag_405:\n        /* \"#utility.yul\":13433:13484   */\n      swap6\n      pop\n        /* \"#utility.yul\":13517:13521   */\n      dup1\n        /* \"#utility.yul\":13513:13522   */\n      not\n        /* \"#utility.yul\":13506:13511   */\n      dup5\n        /* \"#utility.yul\":13502:13523   */\n      and\n        /* \"#utility.yul\":13493:13523   */\n      swap4\n      pop\n        /* \"#utility.yul\":13566:13570   */\n      dup1\n        /* \"#utility.yul\":13556:13564   */\n      dup7\n        /* \"#utility.yul\":13552:13571   */\n      and\n        /* \"#utility.yul\":13545:13550   */\n      dup5\n        /* \"#utility.yul\":13542:13572   */\n      or\n        /* \"#utility.yul\":13532:13572   */\n      swap3\n      pop\n        /* \"#utility.yul\":13261:13578   */\n      pop\n      pop\n        /* \"#utility.yul\":13185:13578   */\n      swap4\n      swap3\n      pop\n      pop\n      pop\n      jump\t// out\n        /* \"#utility.yul\":13584:13644   */\n    tag_263:\n        /* \"#utility.yul\":13612:13615   */\n      0x00\n        /* \"#utility.yul\":13633:13638   */\n      dup2\n        /* \"#utility.yul\":13626:13638   */\n      swap1\n      pop\n        /* \"#utility.yul\":13584:13644   */\n      swap2\n      swap1\n      pop\n      jump\t// out\n        /* \"#utility.yul\":13650:13792   */\n    tag_264:\n        /* \"#utility.yul\":13700:13709   */\n      0x00\n        /* \"#utility.yul\":13733:13786   */\n      tag_408\n        /* \"#utility.yul\":13751:13785   */\n      tag_409\n        /* \"#utility.yul\":13760:13784   */\n      tag_410\n        /* \"#utility.yul\":13778:13783   */\n      dup5\n        /* \"#utility.yul\":13760:13784   */\n      tag_236\n      jump\t// in\n    tag_410:\n        /* \"#utility.yul\":13751:13785   */\n      tag_263\n      jump\t// in\n    tag_409:\n        /* \"#utility.yul\":13733:13786   */\n      tag_236\n      jump\t// in\n    tag_408:\n        /* \"#utility.yul\":13720:13786   */\n      swap1\n      pop\n        /* \"#utility.yul\":13650:13792   */\n      swap2\n      swap1\n      pop\n      jump\t// out\n        /* \"#utility.yul\":13798:13873   */\n    tag_265:\n        /* \"#utility.yul\":13841:13844   */\n      0x00\n        /* \"#utility.yul\":13862:13867   */\n      dup2\n        /* \"#utility.yul\":13855:13867   */\n      swap1\n      pop\n        /* \"#utility.yul\":13798:13873   */\n      swap2\n      swap1\n      pop\n      jump\t// out\n        /* \"#utility.yul\":13879:14148   */\n    tag_266:\n        /* \"#utility.yul\":13989:14028   */\n      tag_413\n        /* \"#utility.yul\":14020:14027   */\n      dup4\n        /* \"#utility.yul\":13989:14028   */\n      tag_264\n      jump\t// in\n    tag_413:\n        /* \"#utility.yul\":14050:14141   */\n      tag_414\n        /* \"#utility.yul\":14099:14140   */\n      tag_415\n        /* \"#utility.yul\":14123:14139   */\n      dup3\n        /* \"#utility.yul\":14099:14140   */\n      tag_265\n      jump\t// in\n    tag_415:\n        /* \"#utility.yul\":14091:14097   */\n      dup5\n        /* \"#utility.yul\":14084:14088   */\n      dup5\n        /* \"#utility.yul\":14078:14089   */\n      sload\n        /* \"#utility.yul\":14050:14141   */\n      tag_262\n      jump\t// in\n    tag_414:\n        /* \"#utility.yul\":14044:14048   */\n      dup3\n        /* \"#utility.yul\":14037:14142   */\n      sstore\n        /* \"#utility.yul\":13955:14148   */\n      pop\n        /* \"#utility.yul\":13879:14148   */\n      pop\n      pop\n      pop\n      jump\t// out\n        /* \"#utility.yul\":14154:14227   */\n    tag_267:\n        /* \"#utility.yul\":14199:14202   */\n      0x00\n        /* \"#utility.yul\":14154:14227   */\n      swap1\n      jump\t// out\n        /* \"#utility.yul\":14233:14422   */\n    tag_268:\n        /* \"#utility.yul\":14310:14342   */\n      tag_418\n      tag_267\n      jump\t// in\n    tag_418:\n        /* \"#utility.yul\":14351:14416   */\n      tag_419\n        /* \"#utility.yul\":14409:14415   */\n      dup2\n        /* \"#utility.yul\":14401:14407   */\n      dup5\n        /* \"#utility.yul\":14395:14399   */\n      dup5\n        /* \"#utility.yul\":14351:14416   */\n      tag_266\n      jump\t// in\n    tag_419:\n        /* \"#utility.yul\":14286:14422   */\n      pop\n        /* \"#utility.yul\":14233:14422   */\n      pop\n      pop\n      jump\t// out\n        /* \"#utility.yul\":14428:14614   */\n    tag_269:\n        /* \"#utility.yul\":14488:14608   */\n    tag_421:\n        /* \"#utility.yul\":14505:14508   */\n      dup2\n        /* \"#utility.yul\":14498:14503   */\n      dup2\n        /* \"#utility.yul\":14495:14509   */\n      lt\n        /* \"#utility.yul\":14488:14608   */\n      iszero\n      tag_423\n      jumpi\n        /* \"#utility.yul\":14559:14598   */\n      tag_424\n        /* \"#utility.yul\":14596:14597   */\n      0x00\n        /* \"#utility.yul\":14589:14594   */\n      dup3\n        /* \"#utility.yul\":14559:14598   */\n      tag_268\n      jump\t// in\n    tag_424:\n        /* \"#utility.yul\":14532:14533   */\n      0x01\n        /* \"#utility.yul\":14525:14530   */\n      dup2\n        /* \"#utility.yul\":14521:14534   */\n      add\n        /* \"#utility.yul\":14512:14534   */\n      swap1\n      pop\n        /* \"#utility.yul\":14488:14608   */\n      jump(tag_421)\n    tag_423:\n        /* \"#utility.yul\":14428:14614   */\n      pop\n      pop\n      jump\t// out\n        /* \"#utility.yul\":14620:15163   */\n    tag_270:\n        /* \"#utility.yul\":14721:14723   */\n      0x1f\n        /* \"#utility.yul\":14716:14719   */\n      dup3\n        /* \"#utility.yul\":14713:14724   */\n      gt\n        /* \"#utility.yul\":14710:15156   */\n      iszero\n      tag_426\n      jumpi\n        /* \"#utility.yul\":14755:14793   */\n      tag_427\n        /* \"#utility.yul\":14787:14792   */\n      dup2\n        /* \"#utility.yul\":14755:14793   */\n      tag_259\n      jump\t// in\n    tag_427:\n        /* \"#utility.yul\":14839:14868   */\n      tag_428\n        /* \"#utility.yul\":14857:14867   */\n      dup5\n        /* \"#utility.yul\":14839:14868   */\n      tag_260\n      jump\t// in\n    tag_428:\n        /* \"#utility.yul\":14829:14837   */\n      dup2\n        /* \"#utility.yul\":14825:14869   */\n      add\n        /* \"#utility.yul\":15022:15024   */\n      0x20\n        /* \"#utility.yul\":15010:15020   */\n      dup6\n        /* \"#utility.yul\":15007:15025   */\n      lt\n        /* \"#utility.yul\":15004:15053   */\n      iszero\n      tag_429\n      jumpi\n        /* \"#utility.yul\":15043:15051   */\n      dup2\n        /* \"#utility.yul\":15028:15051   */\n      swap1\n      pop\n        /* \"#utility.yul\":15004:15053   */\n    tag_429:\n        /* \"#utility.yul\":15066:15146   */\n      tag_430\n        /* \"#utility.yul\":15122:15144   */\n      tag_431\n        /* \"#utility.yul\":15140:15143   */\n      dup6\n        /* \"#utility.yul\":15122:15144   */\n      tag_260\n      jump\t// in\n    tag_431:\n        /* \"#utility.yul\":15112:15120   */\n      dup4\n        /* \"#utility.yul\":15108:15145   */\n      add\n        /* \"#utility.yul\":15095:15106   */\n      dup3\n        /* \"#utility.yul\":15066:15146   */\n      tag_269\n      jump\t// in\n    tag_430:\n        /* \"#utility.yul\":14725:15156   */\n      pop\n      pop\n        /* \"#utility.yul\":14710:15156   */\n    tag_426:\n        /* \"#utility.yul\":14620:15163   */\n      pop\n      pop\n      pop\n      jump\t// out\n        /* \"#utility.yul\":15169:15286   */\n    tag_271:\n        /* \"#utility.yul\":15223:15231   */\n      0x00\n        /* \"#utility.yul\":15273:15278   */\n      dup3\n        /* \"#utility.yul\":15267:15271   */\n      dup3\n        /* \"#utility.yul\":15263:15279   */\n      shr\n        /* \"#utility.yul\":15242:15279   */\n      swap1\n      pop\n        /* \"#utility.yul\":15169:15286   */\n      swap3\n      swap2\n      pop\n      pop\n      jump\t// out\n        /* \"#utility.yul\":15292:15461   */\n    tag_272:\n        /* \"#utility.yul\":15336:15342   */\n      0x00\n        /* \"#utility.yul\":15369:15420   */\n      tag_434\n        /* \"#utility.yul\":15417:15418   */\n      0x00\n        /* \"#utility.yul\":15413:15419   */\n      not\n        /* \"#utility.yul\":15405:15410   */\n      dup5\n        /* \"#utility.yul\":15402:15403   */\n      0x08\n        /* \"#utility.yul\":15398:15411   */\n      mul\n        /* \"#utility.yul\":15369:15420   */\n      tag_271\n      jump\t// in\n    tag_434:\n        /* \"#utility.yul\":15365:15421   */\n      not\n        /* \"#utility.yul\":15450:15454   */\n      dup1\n        /* \"#utility.yul\":15444:15448   */\n      dup4\n        /* \"#utility.yul\":15440:15455   */\n      and\n        /* \"#utility.yul\":15430:15455   */\n      swap2\n      pop\n        /* \"#utility.yul\":15343:15461   */\n      pop\n        /* \"#utility.yul\":15292:15461   */\n      swap3\n      swap2\n      pop\n      pop\n      jump\t// out\n        /* \"#utility.yul\":15466:15761   */\n    tag_273:\n        /* \"#utility.yul\":15542:15546   */\n      0x00\n        /* \"#utility.yul\":15688:15717   */\n      tag_436\n        /* \"#utility.yul\":15713:15716   */\n      dup4\n        /* \"#utility.yul\":15707:15711   */\n      dup4\n        /* \"#utility.yul\":15688:15717   */\n      tag_272\n      jump\t// in\n    tag_436:\n        /* \"#utility.yul\":15680:15717   */\n      swap2\n      pop\n        /* \"#utility.yul\":15750:15753   */\n      dup3\n        /* \"#utility.yul\":15747:15748   */\n      0x02\n        /* \"#utility.yul\":15743:15754   */\n      mul\n        /* \"#utility.yul\":15737:15741   */\n      dup3\n        /* \"#utility.yul\":15734:15755   */\n      or\n        /* \"#utility.yul\":15726:15755   */\n      swap1\n      pop\n        /* \"#utility.yul\":15466:15761   */\n      swap3\n      swap2\n      pop\n      pop\n      jump\t// out\n        /* \"#utility.yul\":15766:17161   */\n    tag_132:\n        /* \"#utility.yul\":15883:15920   */\n      tag_438\n        /* \"#utility.yul\":15916:15919   */\n      dup3\n        /* \"#utility.yul\":15883:15920   */\n      tag_239\n      jump\t// in\n    tag_438:\n        /* \"#utility.yul\":15985:16003   */\n      0xffffffffffffffff\n        /* \"#utility.yul\":15977:15983   */\n      dup2\n        /* \"#utility.yul\":15974:16004   */\n      gt\n        /* \"#utility.yul\":15971:16027   */\n      iszero\n      tag_439\n      jumpi\n        /* \"#utility.yul\":16007:16025   */\n      tag_440\n      tag_245\n      jump\t// in\n    tag_440:\n        /* \"#utility.yul\":15971:16027   */\n    tag_439:\n        /* \"#utility.yul\":16051:16089   */\n      tag_441\n        /* \"#utility.yul\":16083:16087   */\n      dup3\n        /* \"#utility.yul\":16077:16088   */\n      sload\n        /* \"#utility.yul\":16051:16089   */\n      tag_80\n      jump\t// in\n    tag_441:\n        /* \"#utility.yul\":16136:16203   */\n      tag_442\n        /* \"#utility.yul\":16196:16202   */\n      dup3\n        /* \"#utility.yul\":16188:16194   */\n      dup3\n        /* \"#utility.yul\":16182:16186   */\n      dup6\n        /* \"#utility.yul\":16136:16203   */\n      tag_270\n      jump\t// in\n    tag_442:\n        /* \"#utility.yul\":16230:16231   */\n      0x00\n        /* \"#utility.yul\":16254:16258   */\n      0x20\n        /* \"#utility.yul\":16241:16258   */\n      swap1\n      pop\n        /* \"#utility.yul\":16286:16288   */\n      0x1f\n        /* \"#utility.yul\":16278:16284   */\n      dup4\n        /* \"#utility.yul\":16275:16289   */\n      gt\n        /* \"#utility.yul\":16303:16304   */\n      0x01\n        /* \"#utility.yul\":16298:16916   */\n      dup2\n      eq\n      tag_444\n      jumpi\n        /* \"#utility.yul\":16960:16961   */\n      0x00\n        /* \"#utility.yul\":16977:16983   */\n      dup5\n        /* \"#utility.yul\":16974:17051   */\n      iszero\n      tag_445\n      jumpi\n        /* \"#utility.yul\":17026:17035   */\n      dup3\n        /* \"#utility.yul\":17021:17024   */\n      dup8\n        /* \"#utility.yul\":17017:17036   */\n      add\n        /* \"#utility.yul\":17011:17037   */\n      mload\n        /* \"#utility.yul\":17002:17037   */\n      swap1\n      pop\n        /* \"#utility.yul\":16974:17051   */\n    tag_445:\n        /* \"#utility.yul\":17077:17144   */\n      tag_446\n        /* \"#utility.yul\":17137:17143   */\n      dup6\n        /* \"#utility.yul\":17130:17135   */\n      dup3\n        /* \"#utility.yul\":17077:17144   */\n      tag_273\n      jump\t// in\n    tag_446:\n        /* \"#utility.yul\":17071:17075   */\n      dup7\n        /* \"#utility.yul\":17064:17145   */\n      sstore\n        /* \"#utility.yul\":16933:17155   */\n      pop\n        /* \"#utility.yul\":16268:17155   */\n      jump(tag_443)\n        /* \"#utility.yul\":16298:16916   */\n    tag_444:\n        /* \"#utility.yul\":16350:16354   */\n      0x1f\n        /* \"#utility.yul\":16346:16355   */\n      not\n        /* \"#utility.yul\":16338:16344   */\n      dup5\n        /* \"#utility.yul\":16334:16356   */\n      and\n        /* \"#utility.yul\":16384:16421   */\n      tag_447\n        /* \"#utility.yul\":16416:16420   */\n      dup7\n        /* \"#utility.yul\":16384:16421   */\n      tag_259\n      jump\t// in\n    tag_447:\n        /* \"#utility.yul\":16443:16444   */\n      0x00\n        /* \"#utility.yul\":16457:16665   */\n    tag_448:\n        /* \"#utility.yul\":16471:16478   */\n      dup3\n        /* \"#utility.yul\":16468:16469   */\n      dup2\n        /* \"#utility.yul\":16465:16479   */\n      lt\n        /* \"#utility.yul\":16457:16665   */\n      iszero\n      tag_450\n      jumpi\n        /* \"#utility.yul\":16550:16559   */\n      dup5\n        /* \"#utility.yul\":16545:16548   */\n      dup10\n        /* \"#utility.yul\":16541:16560   */\n      add\n        /* \"#utility.yul\":16535:16561   */\n      mload\n        /* \"#utility.yul\":16527:16533   */\n      dup3\n        /* \"#utility.yul\":16520:16562   */\n      sstore\n        /* \"#utility.yul\":16601:16602   */\n      0x01\n        /* \"#utility.yul\":16593:16599   */\n      dup3\n        /* \"#utility.yul\":16589:16603   */\n      add\n        /* \"#utility.yul\":16579:16603   */\n      swap2\n      pop\n        /* \"#utility.yul\":16648:16650   */\n      0x20\n        /* \"#utility.yul\":16637:16646   */\n      dup6\n        /* \"#utility.yul\":16633:16651   */\n      add\n        /* \"#utility.yul\":16620:16651   */\n      swap5\n      pop\n        /* \"#utility.yul\":16494:16498   */\n      0x20\n        /* \"#utility.yul\":16491:16492   */\n      dup2\n        /* \"#utility.yul\":16487:16499   */\n      add\n        /* \"#utility.yul\":16482:16499   */\n      swap1\n      pop\n        /* \"#utility.yul\":16457:16665   */\n      jump(tag_448)\n    tag_450:\n        /* \"#utility.yul\":16693:16699   */\n      dup7\n        /* \"#utility.yul\":16684:16691   */\n      dup4\n        /* \"#utility.yul\":16681:16700   */\n      lt\n        /* \"#utility.yul\":16678:16857   */\n      iszero\n      tag_451\n      jumpi\n        /* \"#utility.yul\":16751:16760   */\n      dup5\n        /* \"#utility.yul\":16746:16749   */\n      dup10\n        /* \"#utility.yul\":16742:16761   */\n      add\n        /* \"#utility.yul\":16736:16762   */\n      mload\n        /* \"#utility.yul\":16794:16842   */\n      tag_452\n        /* \"#utility.yul\":16836:16840   */\n      0x1f\n        /* \"#utility.yul\":16828:16834   */\n      dup10\n        /* \"#utility.yul\":16824:16841   */\n      and\n        /* \"#utility.yul\":16813:16822   */\n      dup3\n        /* \"#utility.yul\":16794:16842   */\n      tag_272\n      jump\t// in\n    tag_452:\n        /* \"#utility.yul\":16786:16792   */\n      dup4\n        /* \"#utility.yul\":16779:16843   */\n      sstore\n        /* \"#utility.yul\":16701:16857   */\n      pop\n        /* \"#utility.yul\":16678:16857   */\n    tag_451:\n        /* \"#utility.yul\":16903:16904   */\n      0x01\n        /* \"#utility.yul\":16899:16900   */\n      0x02\n        /* \"#utility.yul\":16891:16897   */\n      dup9\n        /* \"#utility.yul\":16887:16901   */\n      mul\n        /* \"#utility.yul\":16883:16905   */\n      add\n        /* \"#utility.yul\":16877:16881   */\n      dup9\n        /* \"#utility.yul\":16870:16906   */\n      sstore\n        /* \"#utility.yul\":16305:16916   */\n      pop\n      pop\n      pop\n        /* \"#utility.yul\":16268:17155   */\n    tag_443:\n      pop\n        /* \"#utility.yul\":15858:17161   */\n      pop\n      pop\n      pop\n        /* \"#utility.yul\":15766:17161   */\n      pop\n      pop\n      jump\t// out\n        /* \"#utility.yul\":17167:17347   */\n    tag_139:\n        /* \"#utility.yul\":17215:17292   */\n      0x4e487b7100000000000000000000000000000000000000000000000000000000\n        /* \"#utility.yul\":17212:17213   */\n      0x00\n        /* \"#utility.yul\":17205:17293   */\n      mstore\n        /* \"#utility.yul\":17312:17316   */\n      0x32\n        /* \"#utility.yul\":17309:17310   */\n      0x04\n        /* \"#utility.yul\":17302:17317   */\n      mstore\n        /* \"#utility.yul\":17336:17340   */\n      0x24\n        /* \"#utility.yul\":17333:17334   */\n      0x00\n        /* \"#utility.yul\":17326:17341   */\n      revert\n\n    auxdata: 0xa2646970667358221220f4074a225da3071e5ce304f6de45dfd2eb779b47649f4f9be61eadcf9967564764736f6c63430008110033\n}\n",
				"bytecode": {
					"linkReferences": {},
					"object": "608060405234801561001057600080fd5b50611d8a806100206000396000f3fe608060405234801561001057600080fd5b50600436106100ea5760003560e01c8063b29f04fe1161008c578063dacf64e211610066578063dacf64e214610269578063e83ddcea14610285578063f2aa8218146102b7578063f73c5683146102eb576100ea565b8063b29f04fe146101fc578063b78842ee14610218578063cee26ed514610234576100ea565b806376cdb03b116100c857806376cdb03b1461017457806381d12c5814610192578063856c799d146101c457806398168b94146101e0576100ea565b8063085d4883146100ef57806314bfd6d01461010d578063713aca7414610141575b600080fd5b6100f7610307565b604051610104919061145a565b60405180910390f35b610127600480360381019061012291906114bf565b61032b565b60405161013895949392919061157c565b60405180910390f35b61015b600480360381019061015691906114bf565b6105b1565b60405161016b94939291906115eb565b60405180910390f35b61017c6107a9565b604051610189919061145a565b60405180910390f35b6101ac60048036038101906101a791906114bf565b6107cf565b6040516101bb93929190611645565b60405180910390f35b6101de60048036038101906101d991906118f1565b610939565b005b6101fa60048036038101906101f5919061193a565b610a09565b005b61021660048036038101906102119190611996565b610ad2565b005b610232600480360381019061022d91906114bf565b610b15565b005b61024e600480360381019061024991906114bf565b610ba4565b604051610260969594939291906119c3565b60405180910390f35b610283600480360381019061027e9190611996565b610eb8565b005b61029f600480360381019061029a91906114bf565b610efc565b6040516102ae93929190611645565b60405180910390f35b6102d160048036038101906102cc91906114bf565b611066565b6040516102e295949392919061157c565b60405180910390f35b610305600480360381019061030091906118f1565b6112ec565b005b60008054906101000a900473ffffffffffffffffffffffffffffffffffffffff1681565b6003818154811061033b57600080fd5b90600052602060002090600502016000915090508060000160009054906101000a900473ffffffffffffffffffffffffffffffffffffffff169080600101805461038490611a76565b80601f01602080910402602001604051908101604052809291908181526020018280546103b090611a76565b80156103fd5780601f106103d2576101008083540402835291602001916103fd565b820191906000526020600020905b8154815290600101906020018083116103e057829003601f168201915b50505050509080600201805461041290611a76565b80601f016020809104026020016040519081016040528092919081815260200182805461043e90611a76565b801561048b5780601f106104605761010080835404028352916020019161048b565b820191906000526020600020905b81548152906001019060200180831161046e57829003601f168201915b5050505050908060030180546104a090611a76565b80601f01602080910402602001604051908101604052809291908181526020018280546104cc90611a76565b80156105195780601f106104ee57610100808354040283529160200191610519565b820191906000526020600020905b8154815290600101906020018083116104fc57829003601f168201915b50505050509080600401805461052e90611a76565b80601f016020809104026020016040519081016040528092919081815260200182805461055a90611a76565b80156105a75780601f1061057c576101008083540402835291602001916105a7565b820191906000526020600020905b81548152906001019060200180831161058a57829003601f168201915b5050505050905085565b600581815481106105c157600080fd5b90600052602060002090600402016000915090508060000180546105e490611a76565b80601f016020809104026020016040519081016040528092919081815260200182805461061090611a76565b801561065d5780601f106106325761010080835404028352916020019161065d565b820191906000526020600020905b81548152906001019060200180831161064057829003601f168201915b5050505050908060010160009054906101000a900473ffffffffffffffffffffffffffffffffffffffff169080600201805461069890611a76565b80601f01602080910402602001604051908101604052809291908181526020018280546106c490611a76565b80156107115780601f106106e657610100808354040283529160200191610711565b820191906000526020600020905b8154815290600101906020018083116106f457829003601f168201915b50505050509080600301805461072690611a76565b80601f016020809104026020016040519081016040528092919081815260200182805461075290611a76565b801561079f5780601f106107745761010080835404028352916020019161079f565b820191906000526020600020905b81548152906001019060200180831161078257829003601f168201915b5050505050905084565b600160009054906101000a900473ffffffffffffffffffffffffffffffffffffffff1681565b600781815481106107df57600080fd5b90600052602060002090600302016000915090508060000160009054906101000a900473ffffffffffffffffffffffffffffffffffffffff169080600101805461082890611a76565b80601f016020809104026020016040519081016040528092919081815260200182805461085490611a76565b80156108a15780601f10610876576101008083540402835291602001916108a1565b820191906000526020600020905b81548152906001019060200180831161088457829003601f168201915b5050505050908060020180546108b690611a76565b80601f01602080910402602001604051908101604052809291908181526020018280546108e290611a76565b801561092f5780601f106109045761010080835404028352916020019161092f565b820191906000526020600020905b81548152906001019060200180831161091257829003601f168201915b5050505050905083565b600281908060018154018082558091505060019003906000526020600020906005020160009091909190915060008201518160000160006101000a81548173ffffffffffffffffffffffffffffffffffffffff021916908373ffffffffffffffffffffffffffffffffffffffff16021790555060208201518160010190816109c19190611c53565b5060408201518160020190816109d79190611c53565b5060608201518160030190816109ed9190611c53565b506080820151816004019081610a039190611c53565b50505050565b8060028381548110610a1e57610a1d611d25565b5b906000526020600020906005020160008201518160000160006101000a81548173ffffffffffffffffffffffffffffffffffffffff021916908373ffffffffffffffffffffffffffffffffffffffff1602179055506020820151816001019081610a889190611c53565b506040820151816002019081610a9e9190611c53565b506060820151816003019081610ab49190611c53565b506080820151816004019081610aca9190611c53565b509050505050565b806000806101000a81548173ffffffffffffffffffffffffffffffffffffffff021916908373ffffffffffffffffffffffffffffffffffffffff16021790555050565b60028181548110610b2957610b28611d25565b5b9060005260206000209060050201600080820160006101000a81549073ffffffffffffffffffffffffffffffffffffffff0219169055600182016000610b6f91906113bc565b600282016000610b7f91906113bc565b600382016000610b8f91906113bc565b600482016000610b9f91906113bc565b505050565b60048181548110610bb457600080fd5b90600052602060002090600602016000915090508060000160009054906101000a900473ffffffffffffffffffffffffffffffffffffffff1690806001018054610bfd90611a76565b80601f0160208091040260200160405190810160405280929190818152602001828054610c2990611a76565b8015610c765780601f10610c4b57610100808354040283529160200191610c76565b820191906000526020600020905b815481529060010190602001808311610c5957829003601f168201915b505050505090806002018054610c8b90611a76565b80601f0160208091040260200160405190810160405280929190818152602001828054610cb790611a76565b8015610d045780601f10610cd957610100808354040283529160200191610d04565b820191906000526020600020905b815481529060010190602001808311610ce757829003601f168201915b505050505090806003018054610d1990611a76565b80601f0160208091040260200160405190810160405280929190818152602001828054610d4590611a76565b8015610d925780601f10610d6757610100808354040283529160200191610d92565b820191906000526020600020905b815481529060010190602001808311610d7557829003601f168201915b505050505090806004018054610da790611a76565b80601f0160208091040260200160405190810160405280929190818152602001828054610dd390611a76565b8015610e205780601f10610df557610100808354040283529160200191610e20565b820191906000526020600020905b815481529060010190602001808311610e0357829003601f168201915b505050505090806005018054610e3590611a76565b80601f0160208091040260200160405190810160405280929190818152602001828054610e6190611a76565b8015610eae5780601f10610e8357610100808354040283529160200191610eae565b820191906000526020600020905b815481529060010190602001808311610e9157829003601f168201915b5050505050905086565b80600160006101000a81548173ffffffffffffffffffffffffffffffffffffffff021916908373ffffffffffffffffffffffffffffffffffffffff16021790555050565b60068181548110610f0c57600080fd5b90600052602060002090600502016000915090508060000160009054906101000a900473ffffffffffffffffffffffffffffffffffffffff1690806001018054610f5590611a76565b80601f0160208091040260200160405190810160405280929190818152602001828054610f8190611a76565b8015610fce5780601f10610fa357610100808354040283529160200191610fce565b820191906000526020600020905b815481529060010190602001808311610fb157829003601f168201915b505050505090806002018054610fe390611a76565b80601f016020809104026020016040519081016040528092919081815260200182805461100f90611a76565b801561105c5780601f106110315761010080835404028352916020019161105c565b820191906000526020600020905b81548152906001019060200180831161103f57829003601f168201915b5050505050905083565b6002818154811061107657600080fd5b90600052602060002090600502016000915090508060000160009054906101000a900473ffffffffffffffffffffffffffffffffffffffff16908060010180546110bf90611a76565b80601f01602080910402602001604051908101604052809291908181526020018280546110eb90611a76565b80156111385780601f1061110d57610100808354040283529160200191611138565b820191906000526020600020905b81548152906001019060200180831161111b57829003601f168201915b50505050509080600201805461114d90611a76565b80601f016020809104026020016040519081016040528092919081815260200182805461117990611a76565b80156111c65780601f1061119b576101008083540402835291602001916111c6565b820191906000526020600020905b8154815290600101906020018083116111a957829003601f168201915b5050505050908060030180546111db90611a76565b80601f016020809104026020016040519081016040528092919081815260200182805461120790611a76565b80156112545780601f1061122957610100808354040283529160200191611254565b820191906000526020600020905b81548152906001019060200180831161123757829003601f168201915b50505050509080600401805461126990611a76565b80601f016020809104026020016040519081016040528092919081815260200182805461129590611a76565b80156112e25780601f106112b7576101008083540402835291602001916112e2565b820191906000526020600020905b8154815290600101906020018083116112c557829003601f168201915b5050505050905085565b600381908060018154018082558091505060019003906000526020600020906005020160009091909190915060008201518160000160006101000a81548173ffffffffffffffffffffffffffffffffffffffff021916908373ffffffffffffffffffffffffffffffffffffffff16021790555060208201518160010190816113749190611c53565b50604082015181600201908161138a9190611c53565b5060608201518160030190816113a09190611c53565b5060808201518160040190816113b69190611c53565b50505050565b5080546113c890611a76565b6000825580601f106113da57506113f9565b601f0160209004906000526020600020908101906113f891906113fc565b5b50565b5b808211156114155760008160009055506001016113fd565b5090565b600073ffffffffffffffffffffffffffffffffffffffff82169050919050565b600061144482611419565b9050919050565b61145481611439565b82525050565b600060208201905061146f600083018461144b565b92915050565b6000604051905090565b600080fd5b600080fd5b6000819050919050565b61149c81611489565b81146114a757600080fd5b50565b6000813590506114b981611493565b92915050565b6000602082840312156114d5576114d461147f565b5b60006114e3848285016114aa565b91505092915050565b600081519050919050565b600082825260208201905092915050565b60005b8381101561152657808201518184015260208101905061150b565b60008484015250505050565b6000601f19601f8301169050919050565b600061154e826114ec565b61155881856114f7565b9350611568818560208601611508565b61157181611532565b840191505092915050565b600060a082019050611591600083018861144b565b81810360208301526115a38187611543565b905081810360408301526115b78186611543565b905081810360608301526115cb8185611543565b905081810360808301526115df8184611543565b90509695505050505050565b600060808201905081810360008301526116058187611543565b9050611614602083018661144b565b81810360408301526116268185611543565b9050818103606083015261163a8184611543565b905095945050505050565b600060608201905061165a600083018661144b565b818103602083015261166c8185611543565b905081810360408301526116808184611543565b9050949350505050565b600080fd5b7f4e487b7100000000000000000000000000000000000000000000000000000000600052604160045260246000fd5b6116c782611532565b810181811067ffffffffffffffff821117156116e6576116e561168f565b5b80604052505050565b60006116f9611475565b905061170582826116be565b919050565b600080fd5b61171881611439565b811461172357600080fd5b50565b6000813590506117358161170f565b92915050565b600080fd5b600080fd5b600067ffffffffffffffff8211156117605761175f61168f565b5b61176982611532565b9050602081019050919050565b82818337600083830152505050565b600061179861179384611745565b6116ef565b9050828152602081018484840111156117b4576117b3611740565b5b6117bf848285611776565b509392505050565b600082601f8301126117dc576117db61173b565b5b81356117ec848260208601611785565b91505092915050565b600060a0828403121561180b5761180a61168a565b5b61181560a06116ef565b9050600061182584828501611726565b600083015250602082013567ffffffffffffffff8111156118495761184861170a565b5b611855848285016117c7565b602083015250604082013567ffffffffffffffff8111156118795761187861170a565b5b611885848285016117c7565b604083015250606082013567ffffffffffffffff8111156118a9576118a861170a565b5b6118b5848285016117c7565b606083015250608082013567ffffffffffffffff8111156118d9576118d861170a565b5b6118e5848285016117c7565b60808301525092915050565b6000602082840312156119075761190661147f565b5b600082013567ffffffffffffffff81111561192557611924611484565b5b611931848285016117f5565b91505092915050565b600080604083850312156119515761195061147f565b5b600061195f858286016114aa565b925050602083013567ffffffffffffffff8111156119805761197f611484565b5b61198c858286016117f5565b9150509250929050565b6000602082840312156119ac576119ab61147f565b5b60006119ba84828501611726565b91505092915050565b600060c0820190506119d8600083018961144b565b81810360208301526119ea8188611543565b905081810360408301526119fe8187611543565b90508181036060830152611a128186611543565b90508181036080830152611a268185611543565b905081810360a0830152611a3a8184611543565b9050979650505050505050565b7f4e487b7100000000000000000000000000000000000000000000000000000000600052602260045260246000fd5b60006002820490506001821680611a8e57607f821691505b602082108103611aa157611aa0611a47565b5b50919050565b60008190508160005260206000209050919050565b60006020601f8301049050919050565b600082821b905092915050565b600060088302611b097fffffffffffffffffffffffffffffffffffffffffffffffffffffffffffffffff82611acc565b611b138683611acc565b95508019841693508086168417925050509392505050565b6000819050919050565b6000611b50611b4b611b4684611489565b611b2b565b611489565b9050919050565b6000819050919050565b611b6a83611b35565b611b7e611b7682611b57565b848454611ad9565b825550505050565b600090565b611b93611b86565b611b9e818484611b61565b505050565b5b81811015611bc257611bb7600082611b8b565b600181019050611ba4565b5050565b601f821115611c0757611bd881611aa7565b611be184611abc565b81016020851015611bf0578190505b611c04611bfc85611abc565b830182611ba3565b50505b505050565b600082821c905092915050565b6000611c2a60001984600802611c0c565b1980831691505092915050565b6000611c438383611c19565b9150826002028217905092915050565b611c5c826114ec565b67ffffffffffffffff811115611c7557611c7461168f565b5b611c7f8254611a76565b611c8a828285611bc6565b600060209050601f831160018114611cbd5760008415611cab578287015190505b611cb58582611c37565b865550611d1d565b601f198416611ccb86611aa7565b60005b82811015611cf357848901518255600182019150602085019450602081019050611cce565b86831015611d105784890151611d0c601f891682611c19565b8355505b6001600288020188555050505b505050505050565b7f4e487b7100000000000000000000000000000000000000000000000000000000600052603260045260246000fdfea2646970667358221220f4074a225da3071e5ce304f6de45dfd2eb779b47649f4f9be61eadcf9967564764736f6c63430008110033",
					"opcodes": "PUSH1 0x80 PUSH1 0x40 MSTORE CALLVALUE DUP1 ISZERO PUSH2 0x10 JUMPI PUSH1 0x0 DUP1 REVERT JUMPDEST POP PUSH2 0x1D8A DUP1 PUSH2 0x20 PUSH1 0x0 CODECOPY PUSH1 0x0 RETURN INVALID PUSH1 0x80 PUSH1 0x40 MSTORE CALLVALUE DUP1 ISZERO PUSH2 0x10 JUMPI PUSH1 0x0 DUP1 REVERT JUMPDEST POP PUSH1 0x4 CALLDATASIZE LT PUSH2 0xEA JUMPI PUSH1 0x0 CALLDATALOAD PUSH1 0xE0 SHR DUP1 PUSH4 0xB29F04FE GT PUSH2 0x8C JUMPI DUP1 PUSH4 0xDACF64E2 GT PUSH2 0x66 JUMPI DUP1 PUSH4 0xDACF64E2 EQ PUSH2 0x269 JUMPI DUP1 PUSH4 0xE83DDCEA EQ PUSH2 0x285 JUMPI DUP1 PUSH4 0xF2AA8218 EQ PUSH2 0x2B7 JUMPI DUP1 PUSH4 0xF73C5683 EQ PUSH2 0x2EB JUMPI PUSH2 0xEA JUMP JUMPDEST DUP1 PUSH4 0xB29F04FE EQ PUSH2 0x1FC JUMPI DUP1 PUSH4 0xB78842EE EQ PUSH2 0x218 JUMPI DUP1 PUSH4 0xCEE26ED5 EQ PUSH2 0x234 JUMPI PUSH2 0xEA JUMP JUMPDEST DUP1 PUSH4 0x76CDB03B GT PUSH2 0xC8 JUMPI DUP1 PUSH4 0x76CDB03B EQ PUSH2 0x174 JUMPI DUP1 PUSH4 0x81D12C58 EQ PUSH2 0x192 JUMPI DUP1 PUSH4 0x856C799D EQ PUSH2 0x1C4 JUMPI DUP1 PUSH4 0x98168B94 EQ PUSH2 0x1E0 JUMPI PUSH2 0xEA JUMP JUMPDEST DUP1 PUSH4 0x85D4883 EQ PUSH2 0xEF JUMPI DUP1 PUSH4 0x14BFD6D0 EQ PUSH2 0x10D JUMPI DUP1 PUSH4 0x713ACA74 EQ PUSH2 0x141 JUMPI JUMPDEST PUSH1 0x0 DUP1 REVERT JUMPDEST PUSH2 0xF7 PUSH2 0x307 JUMP JUMPDEST PUSH1 0x40 MLOAD PUSH2 0x104 SWAP2 SWAP1 PUSH2 0x145A JUMP JUMPDEST PUSH1 0x40 MLOAD DUP1 SWAP2 SUB SWAP1 RETURN JUMPDEST PUSH2 0x127 PUSH1 0x4 DUP1 CALLDATASIZE SUB DUP2 ADD SWAP1 PUSH2 0x122 SWAP2 SWAP1 PUSH2 0x14BF JUMP JUMPDEST PUSH2 0x32B JUMP JUMPDEST PUSH1 0x40 MLOAD PUSH2 0x138 SWAP6 SWAP5 SWAP4 SWAP3 SWAP2 SWAP1 PUSH2 0x157C JUMP JUMPDEST PUSH1 0x40 MLOAD DUP1 SWAP2 SUB SWAP1 RETURN JUMPDEST PUSH2 0x15B PUSH1 0x4 DUP1 CALLDATASIZE SUB DUP2 ADD SWAP1 PUSH2 0x156 SWAP2 SWAP1 PUSH2 0x14BF JUMP JUMPDEST PUSH2 0x5B1 JUMP JUMPDEST PUSH1 0x40 MLOAD PUSH2 0x16B SWAP5 SWAP4 SWAP3 SWAP2 SWAP1 PUSH2 0x15EB JUMP JUMPDEST PUSH1 0x40 MLOAD DUP1 SWAP2 SUB SWAP1 RETURN JUMPDEST PUSH2 0x17C PUSH2 0x7A9 JUMP JUMPDEST PUSH1 0x40 MLOAD PUSH2 0x189 SWAP2 SWAP1 PUSH2 0x145A JUMP JUMPDEST PUSH1 0x40 MLOAD DUP1 SWAP2 SUB SWAP1 RETURN JUMPDEST PUSH2 0x1AC PUSH1 0x4 DUP1 CALLDATASIZE SUB DUP2 ADD SWAP1 PUSH2 0x1A7 SWAP2 SWAP1 PUSH2 0x14BF JUMP JUMPDEST PUSH2 0x7CF JUMP JUMPDEST PUSH1 0x40 MLOAD PUSH2 0x1BB SWAP4 SWAP3 SWAP2 SWAP1 PUSH2 0x1645 JUMP JUMPDEST PUSH1 0x40 MLOAD DUP1 SWAP2 SUB SWAP1 RETURN JUMPDEST PUSH2 0x1DE PUSH1 0x4 DUP1 CALLDATASIZE SUB DUP2 ADD SWAP1 PUSH2 0x1D9 SWAP2 SWAP1 PUSH2 0x18F1 JUMP JUMPDEST PUSH2 0x939 JUMP JUMPDEST STOP JUMPDEST PUSH2 0x1FA PUSH1 0x4 DUP1 CALLDATASIZE SUB DUP2 ADD SWAP1 PUSH2 0x1F5 SWAP2 SWAP1 PUSH2 0x193A JUMP JUMPDEST PUSH2 0xA09 JUMP JUMPDEST STOP JUMPDEST PUSH2 0x216 PUSH1 0x4 DUP1 CALLDATASIZE SUB DUP2 ADD SWAP1 PUSH2 0x211 SWAP2 SWAP1 PUSH2 0x1996 JUMP JUMPDEST PUSH2 0xAD2 JUMP JUMPDEST STOP JUMPDEST PUSH2 0x232 PUSH1 0x4 DUP1 CALLDATASIZE SUB DUP2 ADD SWAP1 PUSH2 0x22D SWAP2 SWAP1 PUSH2 0x14BF JUMP JUMPDEST PUSH2 0xB15 JUMP JUMPDEST STOP JUMPDEST PUSH2 0x24E PUSH1 0x4 DUP1 CALLDATASIZE SUB DUP2 ADD SWAP1 PUSH2 0x249 SWAP2 SWAP1 PUSH2 0x14BF JUMP JUMPDEST PUSH2 0xBA4 JUMP JUMPDEST PUSH1 0x40 MLOAD PUSH2 0x260 SWAP7 SWAP6 SWAP5 SWAP4 SWAP3 SWAP2 SWAP1 PUSH2 0x19C3 JUMP JUMPDEST PUSH1 0x40 MLOAD DUP1 SWAP2 SUB SWAP1 RETURN JUMPDEST PUSH2 0x283 PUSH1 0x4 DUP1 CALLDATASIZE SUB DUP2 ADD SWAP1 PUSH2 0x27E SWAP2 SWAP1 PUSH2 0x1996 JUMP JUMPDEST PUSH2 0xEB8 JUMP JUMPDEST STOP JUMPDEST PUSH2 0x29F PUSH1 0x4 DUP1 CALLDATASIZE SUB DUP2 ADD SWAP1 PUSH2 0x29A SWAP2 SWAP1 PUSH2 0x14BF JUMP JUMPDEST PUSH2 0xEFC JUMP JUMPDEST PUSH1 0x40 MLOAD PUSH2 0x2AE SWAP4 SWAP3 SWAP2 SWAP1 PUSH2 0x1645 JUMP JUMPDEST PUSH1 0x40 MLOAD DUP1 SWAP2 SUB SWAP1 RETURN JUMPDEST PUSH2 0x2D1 PUSH1 0x4 DUP1 CALLDATASIZE SUB DUP2 ADD SWAP1 PUSH2 0x2CC SWAP2 SWAP1 PUSH2 0x14BF JUMP JUMPDEST PUSH2 0x1066 JUMP JUMPDEST PUSH1 0x40 MLOAD PUSH2 0x2E2 SWAP6 SWAP5 SWAP4 SWAP3 SWAP2 SWAP1 PUSH2 0x157C JUMP JUMPDEST PUSH1 0x40 MLOAD DUP1 SWAP2 SUB SWAP1 RETURN JUMPDEST PUSH2 0x305 PUSH1 0x4 DUP1 CALLDATASIZE SUB DUP2 ADD SWAP1 PUSH2 0x300 SWAP2 SWAP1 PUSH2 0x18F1 JUMP JUMPDEST PUSH2 0x12EC JUMP JUMPDEST STOP JUMPDEST PUSH1 0x0 DUP1 SLOAD SWAP1 PUSH2 0x100 EXP SWAP1 DIV PUSH20 0xFFFFFFFFFFFFFFFFFFFFFFFFFFFFFFFFFFFFFFFF AND DUP2 JUMP JUMPDEST PUSH1 0x3 DUP2 DUP2 SLOAD DUP2 LT PUSH2 0x33B JUMPI PUSH1 0x0 DUP1 REVERT JUMPDEST SWAP1 PUSH1 0x0 MSTORE PUSH1 0x20 PUSH1 0x0 KECCAK256 SWAP1 PUSH1 0x5 MUL ADD PUSH1 0x0 SWAP2 POP SWAP1 POP DUP1 PUSH1 0x0 ADD PUSH1 0x0 SWAP1 SLOAD SWAP1 PUSH2 0x100 EXP SWAP1 DIV PUSH20 0xFFFFFFFFFFFFFFFFFFFFFFFFFFFFFFFFFFFFFFFF AND SWAP1 DUP1 PUSH1 0x1 ADD DUP1 SLOAD PUSH2 0x384 SWAP1 PUSH2 0x1A76 JUMP JUMPDEST DUP1 PUSH1 0x1F ADD PUSH1 0x20 DUP1 SWAP2 DIV MUL PUSH1 0x20 ADD PUSH1 0x40 MLOAD SWAP1 DUP2 ADD PUSH1 0x40 MSTORE DUP1 SWAP3 SWAP2 SWAP1 DUP2 DUP2 MSTORE PUSH1 0x20 ADD DUP3 DUP1 SLOAD PUSH2 0x3B0 SWAP1 PUSH2 0x1A76 JUMP JUMPDEST DUP1 ISZERO PUSH2 0x3FD JUMPI DUP1 PUSH1 0x1F LT PUSH2 0x3D2 JUMPI PUSH2 0x100 DUP1 DUP4 SLOAD DIV MUL DUP4 MSTORE SWAP2 PUSH1 0x20 ADD SWAP2 PUSH2 0x3FD JUMP JUMPDEST DUP3 ADD SWAP2 SWAP1 PUSH1 0x0 MSTORE PUSH1 0x20 PUSH1 0x0 KECCAK256 SWAP1 JUMPDEST DUP2 SLOAD DUP2 MSTORE SWAP1 PUSH1 0x1 ADD SWAP1 PUSH1 0x20 ADD DUP1 DUP4 GT PUSH2 0x3E0 JUMPI DUP3 SWAP1 SUB PUSH1 0x1F AND DUP3 ADD SWAP2 JUMPDEST POP POP POP POP POP SWAP1 DUP1 PUSH1 0x2 ADD DUP1 SLOAD PUSH2 0x412 SWAP1 PUSH2 0x1A76 JUMP JUMPDEST DUP1 PUSH1 0x1F ADD PUSH1 0x20 DUP1 SWAP2 DIV MUL PUSH1 0x20 ADD PUSH1 0x40 MLOAD SWAP1 DUP2 ADD PUSH1 0x40 MSTORE DUP1 SWAP3 SWAP2 SWAP1 DUP2 DUP2 MSTORE PUSH1 0x20 ADD DUP3 DUP1 SLOAD PUSH2 0x43E SWAP1 PUSH2 0x1A76 JUMP JUMPDEST DUP1 ISZERO PUSH2 0x48B JUMPI DUP1 PUSH1 0x1F LT PUSH2 0x460 JUMPI PUSH2 0x100 DUP1 DUP4 SLOAD DIV MUL DUP4 MSTORE SWAP2 PUSH1 0x20 ADD SWAP2 PUSH2 0x48B JUMP JUMPDEST DUP3 ADD SWAP2 SWAP1 PUSH1 0x0 MSTORE PUSH1 0x20 PUSH1 0x0 KECCAK256 SWAP1 JUMPDEST DUP2 SLOAD DUP2 MSTORE SWAP1 PUSH1 0x1 ADD SWAP1 PUSH1 0x20 ADD DUP1 DUP4 GT PUSH2 0x46E JUMPI DUP3 SWAP1 SUB PUSH1 0x1F AND DUP3 ADD SWAP2 JUMPDEST POP POP POP POP POP SWAP1 DUP1 PUSH1 0x3 ADD DUP1 SLOAD PUSH2 0x4A0 SWAP1 PUSH2 0x1A76 JUMP JUMPDEST DUP1 PUSH1 0x1F ADD PUSH1 0x20 DUP1 SWAP2 DIV MUL PUSH1 0x20 ADD PUSH1 0x40 MLOAD SWAP1 DUP2 ADD PUSH1 0x40 MSTORE DUP1 SWAP3 SWAP2 SWAP1 DUP2 DUP2 MSTORE PUSH1 0x20 ADD DUP3 DUP1 SLOAD PUSH2 0x4CC SWAP1 PUSH2 0x1A76 JUMP JUMPDEST DUP1 ISZERO PUSH2 0x519 JUMPI DUP1 PUSH1 0x1F LT PUSH2 0x4EE JUMPI PUSH2 0x100 DUP1 DUP4 SLOAD DIV MUL DUP4 MSTORE SWAP2 PUSH1 0x20 ADD SWAP2 PUSH2 0x519 JUMP JUMPDEST DUP3 ADD SWAP2 SWAP1 PUSH1 0x0 MSTORE PUSH1 0x20 PUSH1 0x0 KECCAK256 SWAP1 JUMPDEST DUP2 SLOAD DUP2 MSTORE SWAP1 PUSH1 0x1 ADD SWAP1 PUSH1 0x20 ADD DUP1 DUP4 GT PUSH2 0x4FC JUMPI DUP3 SWAP1 SUB PUSH1 0x1F AND DUP3 ADD SWAP2 JUMPDEST POP POP POP POP POP SWAP1 DUP1 PUSH1 0x4 ADD DUP1 SLOAD PUSH2 0x52E SWAP1 PUSH2 0x1A76 JUMP JUMPDEST DUP1 PUSH1 0x1F ADD PUSH1 0x20 DUP1 SWAP2 DIV MUL PUSH1 0x20 ADD PUSH1 0x40 MLOAD SWAP1 DUP2 ADD PUSH1 0x40 MSTORE DUP1 SWAP3 SWAP2 SWAP1 DUP2 DUP2 MSTORE PUSH1 0x20 ADD DUP3 DUP1 SLOAD PUSH2 0x55A SWAP1 PUSH2 0x1A76 JUMP JUMPDEST DUP1 ISZERO PUSH2 0x5A7 JUMPI DUP1 PUSH1 0x1F LT PUSH2 0x57C JUMPI PUSH2 0x100 DUP1 DUP4 SLOAD DIV MUL DUP4 MSTORE SWAP2 PUSH1 0x20 ADD SWAP2 PUSH2 0x5A7 JUMP JUMPDEST DUP3 ADD SWAP2 SWAP1 PUSH1 0x0 MSTORE PUSH1 0x20 PUSH1 0x0 KECCAK256 SWAP1 JUMPDEST DUP2 SLOAD DUP2 MSTORE SWAP1 PUSH1 0x1 ADD SWAP1 PUSH1 0x20 ADD DUP1 DUP4 GT PUSH2 0x58A JUMPI DUP3 SWAP1 SUB PUSH1 0x1F AND DUP3 ADD SWAP2 JUMPDEST POP POP POP POP POP SWAP1 POP DUP6 JUMP JUMPDEST PUSH1 0x5 DUP2 DUP2 SLOAD DUP2 LT PUSH2 0x5C1 JUMPI PUSH1 0x0 DUP1 REVERT JUMPDEST SWAP1 PUSH1 0x0 MSTORE PUSH1 0x20 PUSH1 0x0 KECCAK256 SWAP1 PUSH1 0x4 MUL ADD PUSH1 0x0 SWAP2 POP SWAP1 POP DUP1 PUSH1 0x0 ADD DUP1 SLOAD PUSH2 0x5E4 SWAP1 PUSH2 0x1A76 JUMP JUMPDEST DUP1 PUSH1 0x1F ADD PUSH1 0x20 DUP1 SWAP2 DIV MUL PUSH1 0x20 ADD PUSH1 0x40 MLOAD SWAP1 DUP2 ADD PUSH1 0x40 MSTORE DUP1 SWAP3 SWAP2 SWAP1 DUP2 DUP2 MSTORE PUSH1 0x20 ADD DUP3 DUP1 SLOAD PUSH2 0x610 SWAP1 PUSH2 0x1A76 JUMP JUMPDEST DUP1 ISZERO PUSH2 0x65D JUMPI DUP1 PUSH1 0x1F LT PUSH2 0x632 JUMPI PUSH2 0x100 DUP1 DUP4 SLOAD DIV MUL DUP4 MSTORE SWAP2 PUSH1 0x20 ADD SWAP2 PUSH2 0x65D JUMP JUMPDEST DUP3 ADD SWAP2 SWAP1 PUSH1 0x0 MSTORE PUSH1 0x20 PUSH1 0x0 KECCAK256 SWAP1 JUMPDEST DUP2 SLOAD DUP2 MSTORE SWAP1 PUSH1 0x1 ADD SWAP1 PUSH1 0x20 ADD DUP1 DUP4 GT PUSH2 0x640 JUMPI DUP3 SWAP1 SUB PUSH1 0x1F AND DUP3 ADD SWAP2 JUMPDEST POP POP POP POP POP SWAP1 DUP1 PUSH1 0x1 ADD PUSH1 0x0 SWAP1 SLOAD SWAP1 PUSH2 0x100 EXP SWAP1 DIV PUSH20 0xFFFFFFFFFFFFFFFFFFFFFFFFFFFFFFFFFFFFFFFF AND SWAP1 DUP1 PUSH1 0x2 ADD DUP1 SLOAD PUSH2 0x698 SWAP1 PUSH2 0x1A76 JUMP JUMPDEST DUP1 PUSH1 0x1F ADD PUSH1 0x20 DUP1 SWAP2 DIV MUL PUSH1 0x20 ADD PUSH1 0x40 MLOAD SWAP1 DUP2 ADD PUSH1 0x40 MSTORE DUP1 SWAP3 SWAP2 SWAP1 DUP2 DUP2 MSTORE PUSH1 0x20 ADD DUP3 DUP1 SLOAD PUSH2 0x6C4 SWAP1 PUSH2 0x1A76 JUMP JUMPDEST DUP1 ISZERO PUSH2 0x711 JUMPI DUP1 PUSH1 0x1F LT PUSH2 0x6E6 JUMPI PUSH2 0x100 DUP1 DUP4 SLOAD DIV MUL DUP4 MSTORE SWAP2 PUSH1 0x20 ADD SWAP2 PUSH2 0x711 JUMP JUMPDEST DUP3 ADD SWAP2 SWAP1 PUSH1 0x0 MSTORE PUSH1 0x20 PUSH1 0x0 KECCAK256 SWAP1 JUMPDEST DUP2 SLOAD DUP2 MSTORE SWAP1 PUSH1 0x1 ADD SWAP1 PUSH1 0x20 ADD DUP1 DUP4 GT PUSH2 0x6F4 JUMPI DUP3 SWAP1 SUB PUSH1 0x1F AND DUP3 ADD SWAP2 JUMPDEST POP POP POP POP POP SWAP1 DUP1 PUSH1 0x3 ADD DUP1 SLOAD PUSH2 0x726 SWAP1 PUSH2 0x1A76 JUMP JUMPDEST DUP1 PUSH1 0x1F ADD PUSH1 0x20 DUP1 SWAP2 DIV MUL PUSH1 0x20 ADD PUSH1 0x40 MLOAD SWAP1 DUP2 ADD PUSH1 0x40 MSTORE DUP1 SWAP3 SWAP2 SWAP1 DUP2 DUP2 MSTORE PUSH1 0x20 ADD DUP3 DUP1 SLOAD PUSH2 0x752 SWAP1 PUSH2 0x1A76 JUMP JUMPDEST DUP1 ISZERO PUSH2 0x79F JUMPI DUP1 PUSH1 0x1F LT PUSH2 0x774 JUMPI PUSH2 0x100 DUP1 DUP4 SLOAD DIV MUL DUP4 MSTORE SWAP2 PUSH1 0x20 ADD SWAP2 PUSH2 0x79F JUMP JUMPDEST DUP3 ADD SWAP2 SWAP1 PUSH1 0x0 MSTORE PUSH1 0x20 PUSH1 0x0 KECCAK256 SWAP1 JUMPDEST DUP2 SLOAD DUP2 MSTORE SWAP1 PUSH1 0x1 ADD SWAP1 PUSH1 0x20 ADD DUP1 DUP4 GT PUSH2 0x782 JUMPI DUP3 SWAP1 SUB PUSH1 0x1F AND DUP3 ADD SWAP2 JUMPDEST POP POP POP POP POP SWAP1 POP DUP5 JUMP JUMPDEST PUSH1 0x1 PUSH1 0x0 SWAP1 SLOAD SWAP1 PUSH2 0x100 EXP SWAP1 DIV PUSH20 0xFFFFFFFFFFFFFFFFFFFFFFFFFFFFFFFFFFFFFFFF AND DUP2 JUMP JUMPDEST PUSH1 0x7 DUP2 DUP2 SLOAD DUP2 LT PUSH2 0x7DF JUMPI PUSH1 0x0 DUP1 REVERT JUMPDEST SWAP1 PUSH1 0x0 MSTORE PUSH1 0x20 PUSH1 0x0 KECCAK256 SWAP1 PUSH1 0x3 MUL ADD PUSH1 0x0 SWAP2 POP SWAP1 POP DUP1 PUSH1 0x0 ADD PUSH1 0x0 SWAP1 SLOAD SWAP1 PUSH2 0x100 EXP SWAP1 DIV PUSH20 0xFFFFFFFFFFFFFFFFFFFFFFFFFFFFFFFFFFFFFFFF AND SWAP1 DUP1 PUSH1 0x1 ADD DUP1 SLOAD PUSH2 0x828 SWAP1 PUSH2 0x1A76 JUMP JUMPDEST DUP1 PUSH1 0x1F ADD PUSH1 0x20 DUP1 SWAP2 DIV MUL PUSH1 0x20 ADD PUSH1 0x40 MLOAD SWAP1 DUP2 ADD PUSH1 0x40 MSTORE DUP1 SWAP3 SWAP2 SWAP1 DUP2 DUP2 MSTORE PUSH1 0x20 ADD DUP3 DUP1 SLOAD PUSH2 0x854 SWAP1 PUSH2 0x1A76 JUMP JUMPDEST DUP1 ISZERO PUSH2 0x8A1 JUMPI DUP1 PUSH1 0x1F LT PUSH2 0x876 JUMPI PUSH2 0x100 DUP1 DUP4 SLOAD DIV MUL DUP4 MSTORE SWAP2 PUSH1 0x20 ADD SWAP2 PUSH2 0x8A1 JUMP JUMPDEST DUP3 ADD SWAP2 SWAP1 PUSH1 0x0 MSTORE PUSH1 0x20 PUSH1 0x0 KECCAK256 SWAP1 JUMPDEST DUP2 SLOAD DUP2 MSTORE SWAP1 PUSH1 0x1 ADD SWAP1 PUSH1 0x20 ADD DUP1 DUP4 GT PUSH2 0x884 JUMPI DUP3 SWAP1 SUB PUSH1 0x1F AND DUP3 ADD SWAP2 JUMPDEST POP POP POP POP POP SWAP1 DUP1 PUSH1 0x2 ADD DUP1 SLOAD PUSH2 0x8B6 SWAP1 PUSH2 0x1A76 JUMP JUMPDEST DUP1 PUSH1 0x1F ADD PUSH1 0x20 DUP1 SWAP2 DIV MUL PUSH1 0x20 ADD PUSH1 0x40 MLOAD SWAP1 DUP2 ADD PUSH1 0x40 MSTORE DUP1 SWAP3 SWAP2 SWAP1 DUP2 DUP2 MSTORE PUSH1 0x20 ADD DUP3 DUP1 SLOAD PUSH2 0x8E2 SWAP1 PUSH2 0x1A76 JUMP JUMPDEST DUP1 ISZERO PUSH2 0x92F JUMPI DUP1 PUSH1 0x1F LT PUSH2 0x904 JUMPI PUSH2 0x100 DUP1 DUP4 SLOAD DIV MUL DUP4 MSTORE SWAP2 PUSH1 0x20 ADD SWAP2 PUSH2 0x92F JUMP JUMPDEST DUP3 ADD SWAP2 SWAP1 PUSH1 0x0 MSTORE PUSH1 0x20 PUSH1 0x0 KECCAK256 SWAP1 JUMPDEST DUP2 SLOAD DUP2 MSTORE SWAP1 PUSH1 0x1 ADD SWAP1 PUSH1 0x20 ADD DUP1 DUP4 GT PUSH2 0x912 JUMPI DUP3 SWAP1 SUB PUSH1 0x1F AND DUP3 ADD SWAP2 JUMPDEST POP POP POP POP POP SWAP1 POP DUP4 JUMP JUMPDEST PUSH1 0x2 DUP2 SWAP1 DUP1 PUSH1 0x1 DUP2 SLOAD ADD DUP1 DUP3 SSTORE DUP1 SWAP2 POP POP PUSH1 0x1 SWAP1 SUB SWAP1 PUSH1 0x0 MSTORE PUSH1 0x20 PUSH1 0x0 KECCAK256 SWAP1 PUSH1 0x5 MUL ADD PUSH1 0x0 SWAP1 SWAP2 SWAP1 SWAP2 SWAP1 SWAP2 POP PUSH1 0x0 DUP3 ADD MLOAD DUP2 PUSH1 0x0 ADD PUSH1 0x0 PUSH2 0x100 EXP DUP2 SLOAD DUP2 PUSH20 0xFFFFFFFFFFFFFFFFFFFFFFFFFFFFFFFFFFFFFFFF MUL NOT AND SWAP1 DUP4 PUSH20 0xFFFFFFFFFFFFFFFFFFFFFFFFFFFFFFFFFFFFFFFF AND MUL OR SWAP1 SSTORE POP PUSH1 0x20 DUP3 ADD MLOAD DUP2 PUSH1 0x1 ADD SWAP1 DUP2 PUSH2 0x9C1 SWAP2 SWAP1 PUSH2 0x1C53 JUMP JUMPDEST POP PUSH1 0x40 DUP3 ADD MLOAD DUP2 PUSH1 0x2 ADD SWAP1 DUP2 PUSH2 0x9D7 SWAP2 SWAP1 PUSH2 0x1C53 JUMP JUMPDEST POP PUSH1 0x60 DUP3 ADD MLOAD DUP2 PUSH1 0x3 ADD SWAP1 DUP2 PUSH2 0x9ED SWAP2 SWAP1 PUSH2 0x1C53 JUMP JUMPDEST POP PUSH1 0x80 DUP3 ADD MLOAD DUP2 PUSH1 0x4 ADD SWAP1 DUP2 PUSH2 0xA03 SWAP2 SWAP1 PUSH2 0x1C53 JUMP JUMPDEST POP POP POP POP JUMP JUMPDEST DUP1 PUSH1 0x2 DUP4 DUP2 SLOAD DUP2 LT PUSH2 0xA1E JUMPI PUSH2 0xA1D PUSH2 0x1D25 JUMP JUMPDEST JUMPDEST SWAP1 PUSH1 0x0 MSTORE PUSH1 0x20 PUSH1 0x0 KECCAK256 SWAP1 PUSH1 0x5 MUL ADD PUSH1 0x0 DUP3 ADD MLOAD DUP2 PUSH1 0x0 ADD PUSH1 0x0 PUSH2 0x100 EXP DUP2 SLOAD DUP2 PUSH20 0xFFFFFFFFFFFFFFFFFFFFFFFFFFFFFFFFFFFFFFFF MUL NOT AND SWAP1 DUP4 PUSH20 0xFFFFFFFFFFFFFFFFFFFFFFFFFFFFFFFFFFFFFFFF AND MUL OR SWAP1 SSTORE POP PUSH1 0x20 DUP3 ADD MLOAD DUP2 PUSH1 0x1 ADD SWAP1 DUP2 PUSH2 0xA88 SWAP2 SWAP1 PUSH2 0x1C53 JUMP JUMPDEST POP PUSH1 0x40 DUP3 ADD MLOAD DUP2 PUSH1 0x2 ADD SWAP1 DUP2 PUSH2 0xA9E SWAP2 SWAP1 PUSH2 0x1C53 JUMP JUMPDEST POP PUSH1 0x60 DUP3 ADD MLOAD DUP2 PUSH1 0x3 ADD SWAP1 DUP2 PUSH2 0xAB4 SWAP2 SWAP1 PUSH2 0x1C53 JUMP JUMPDEST POP PUSH1 0x80 DUP3 ADD MLOAD DUP2 PUSH1 0x4 ADD SWAP1 DUP2 PUSH2 0xACA SWAP2 SWAP1 PUSH2 0x1C53 JUMP JUMPDEST POP SWAP1 POP POP POP POP JUMP JUMPDEST DUP1 PUSH1 0x0 DUP1 PUSH2 0x100 EXP DUP2 SLOAD DUP2 PUSH20 0xFFFFFFFFFFFFFFFFFFFFFFFFFFFFFFFFFFFFFFFF MUL NOT AND SWAP1 DUP4 PUSH20 0xFFFFFFFFFFFFFFFFFFFFFFFFFFFFFFFFFFFFFFFF AND MUL OR SWAP1 SSTORE POP POP JUMP JUMPDEST PUSH1 0x2 DUP2 DUP2 SLOAD DUP2 LT PUSH2 0xB29 JUMPI PUSH2 0xB28 PUSH2 0x1D25 JUMP JUMPDEST JUMPDEST SWAP1 PUSH1 0x0 MSTORE PUSH1 0x20 PUSH1 0x0 KECCAK256 SWAP1 PUSH1 0x5 MUL ADD PUSH1 0x0 DUP1 DUP3 ADD PUSH1 0x0 PUSH2 0x100 EXP DUP2 SLOAD SWAP1 PUSH20 0xFFFFFFFFFFFFFFFFFFFFFFFFFFFFFFFFFFFFFFFF MUL NOT AND SWAP1 SSTORE PUSH1 0x1 DUP3 ADD PUSH1 0x0 PUSH2 0xB6F SWAP2 SWAP1 PUSH2 0x13BC JUMP JUMPDEST PUSH1 0x2 DUP3 ADD PUSH1 0x0 PUSH2 0xB7F SWAP2 SWAP1 PUSH2 0x13BC JUMP JUMPDEST PUSH1 0x3 DUP3 ADD PUSH1 0x0 PUSH2 0xB8F SWAP2 SWAP1 PUSH2 0x13BC JUMP JUMPDEST PUSH1 0x4 DUP3 ADD PUSH1 0x0 PUSH2 0xB9F SWAP2 SWAP1 PUSH2 0x13BC JUMP JUMPDEST POP POP POP JUMP JUMPDEST PUSH1 0x4 DUP2 DUP2 SLOAD DUP2 LT PUSH2 0xBB4 JUMPI PUSH1 0x0 DUP1 REVERT JUMPDEST SWAP1 PUSH1 0x0 MSTORE PUSH1 0x20 PUSH1 0x0 KECCAK256 SWAP1 PUSH1 0x6 MUL ADD PUSH1 0x0 SWAP2 POP SWAP1 POP DUP1 PUSH1 0x0 ADD PUSH1 0x0 SWAP1 SLOAD SWAP1 PUSH2 0x100 EXP SWAP1 DIV PUSH20 0xFFFFFFFFFFFFFFFFFFFFFFFFFFFFFFFFFFFFFFFF AND SWAP1 DUP1 PUSH1 0x1 ADD DUP1 SLOAD PUSH2 0xBFD SWAP1 PUSH2 0x1A76 JUMP JUMPDEST DUP1 PUSH1 0x1F ADD PUSH1 0x20 DUP1 SWAP2 DIV MUL PUSH1 0x20 ADD PUSH1 0x40 MLOAD SWAP1 DUP2 ADD PUSH1 0x40 MSTORE DUP1 SWAP3 SWAP2 SWAP1 DUP2 DUP2 MSTORE PUSH1 0x20 ADD DUP3 DUP1 SLOAD PUSH2 0xC29 SWAP1 PUSH2 0x1A76 JUMP JUMPDEST DUP1 ISZERO PUSH2 0xC76 JUMPI DUP1 PUSH1 0x1F LT PUSH2 0xC4B JUMPI PUSH2 0x100 DUP1 DUP4 SLOAD DIV MUL DUP4 MSTORE SWAP2 PUSH1 0x20 ADD SWAP2 PUSH2 0xC76 JUMP JUMPDEST DUP3 ADD SWAP2 SWAP1 PUSH1 0x0 MSTORE PUSH1 0x20 PUSH1 0x0 KECCAK256 SWAP1 JUMPDEST DUP2 SLOAD DUP2 MSTORE SWAP1 PUSH1 0x1 ADD SWAP1 PUSH1 0x20 ADD DUP1 DUP4 GT PUSH2 0xC59 JUMPI DUP3 SWAP1 SUB PUSH1 0x1F AND DUP3 ADD SWAP2 JUMPDEST POP POP POP POP POP SWAP1 DUP1 PUSH1 0x2 ADD DUP1 SLOAD PUSH2 0xC8B SWAP1 PUSH2 0x1A76 JUMP JUMPDEST DUP1 PUSH1 0x1F ADD PUSH1 0x20 DUP1 SWAP2 DIV MUL PUSH1 0x20 ADD PUSH1 0x40 MLOAD SWAP1 DUP2 ADD PUSH1 0x40 MSTORE DUP1 SWAP3 SWAP2 SWAP1 DUP2 DUP2 MSTORE PUSH1 0x20 ADD DUP3 DUP1 SLOAD PUSH2 0xCB7 SWAP1 PUSH2 0x1A76 JUMP JUMPDEST DUP1 ISZERO PUSH2 0xD04 JUMPI DUP1 PUSH1 0x1F LT PUSH2 0xCD9 JUMPI PUSH2 0x100 DUP1 DUP4 SLOAD DIV MUL DUP4 MSTORE SWAP2 PUSH1 0x20 ADD SWAP2 PUSH2 0xD04 JUMP JUMPDEST DUP3 ADD SWAP2 SWAP1 PUSH1 0x0 MSTORE PUSH1 0x20 PUSH1 0x0 KECCAK256 SWAP1 JUMPDEST DUP2 SLOAD DUP2 MSTORE SWAP1 PUSH1 0x1 ADD SWAP1 PUSH1 0x20 ADD DUP1 DUP4 GT PUSH2 0xCE7 JUMPI DUP3 SWAP1 SUB PUSH1 0x1F AND DUP3 ADD SWAP2 JUMPDEST POP POP POP POP POP SWAP1 DUP1 PUSH1 0x3 ADD DUP1 SLOAD PUSH2 0xD19 SWAP1 PUSH2 0x1A76 JUMP JUMPDEST DUP1 PUSH1 0x1F ADD PUSH1 0x20 DUP1 SWAP2 DIV MUL PUSH1 0x20 ADD PUSH1 0x40 MLOAD SWAP1 DUP2 ADD PUSH1 0x40 MSTORE DUP1 SWAP3 SWAP2 SWAP1 DUP2 DUP2 MSTORE PUSH1 0x20 ADD DUP3 DUP1 SLOAD PUSH2 0xD45 SWAP1 PUSH2 0x1A76 JUMP JUMPDEST DUP1 ISZERO PUSH2 0xD92 JUMPI DUP1 PUSH1 0x1F LT PUSH2 0xD67 JUMPI PUSH2 0x100 DUP1 DUP4 SLOAD DIV MUL DUP4 MSTORE SWAP2 PUSH1 0x20 ADD SWAP2 PUSH2 0xD92 JUMP JUMPDEST DUP3 ADD SWAP2 SWAP1 PUSH1 0x0 MSTORE PUSH1 0x20 PUSH1 0x0 KECCAK256 SWAP1 JUMPDEST DUP2 SLOAD DUP2 MSTORE SWAP1 PUSH1 0x1 ADD SWAP1 PUSH1 0x20 ADD DUP1 DUP4 GT PUSH2 0xD75 JUMPI DUP3 SWAP1 SUB PUSH1 0x1F AND DUP3 ADD SWAP2 JUMPDEST POP POP POP POP POP SWAP1 DUP1 PUSH1 0x4 ADD DUP1 SLOAD PUSH2 0xDA7 SWAP1 PUSH2 0x1A76 JUMP JUMPDEST DUP1 PUSH1 0x1F ADD PUSH1 0x20 DUP1 SWAP2 DIV MUL PUSH1 0x20 ADD PUSH1 0x40 MLOAD SWAP1 DUP2 ADD PUSH1 0x40 MSTORE DUP1 SWAP3 SWAP2 SWAP1 DUP2 DUP2 MSTORE PUSH1 0x20 ADD DUP3 DUP1 SLOAD PUSH2 0xDD3 SWAP1 PUSH2 0x1A76 JUMP JUMPDEST DUP1 ISZERO PUSH2 0xE20 JUMPI DUP1 PUSH1 0x1F LT PUSH2 0xDF5 JUMPI PUSH2 0x100 DUP1 DUP4 SLOAD DIV MUL DUP4 MSTORE SWAP2 PUSH1 0x20 ADD SWAP2 PUSH2 0xE20 JUMP JUMPDEST DUP3 ADD SWAP2 SWAP1 PUSH1 0x0 MSTORE PUSH1 0x20 PUSH1 0x0 KECCAK256 SWAP1 JUMPDEST DUP2 SLOAD DUP2 MSTORE SWAP1 PUSH1 0x1 ADD SWAP1 PUSH1 0x20 ADD DUP1 DUP4 GT PUSH2 0xE03 JUMPI DUP3 SWAP1 SUB PUSH1 0x1F AND DUP3 ADD SWAP2 JUMPDEST POP POP POP POP POP SWAP1 DUP1 PUSH1 0x5 ADD DUP1 SLOAD PUSH2 0xE35 SWAP1 PUSH2 0x1A76 JUMP JUMPDEST DUP1 PUSH1 0x1F ADD PUSH1 0x20 DUP1 SWAP2 DIV MUL PUSH1 0x20 ADD PUSH1 0x40 MLOAD SWAP1 DUP2 ADD PUSH1 0x40 MSTORE DUP1 SWAP3 SWAP2 SWAP1 DUP2 DUP2 MSTORE PUSH1 0x20 ADD DUP3 DUP1 SLOAD PUSH2 0xE61 SWAP1 PUSH2 0x1A76 JUMP JUMPDEST DUP1 ISZERO PUSH2 0xEAE JUMPI DUP1 PUSH1 0x1F LT PUSH2 0xE83 JUMPI PUSH2 0x100 DUP1 DUP4 SLOAD DIV MUL DUP4 MSTORE SWAP2 PUSH1 0x20 ADD SWAP2 PUSH2 0xEAE JUMP JUMPDEST DUP3 ADD SWAP2 SWAP1 PUSH1 0x0 MSTORE PUSH1 0x20 PUSH1 0x0 KECCAK256 SWAP1 JUMPDEST DUP2 SLOAD DUP2 MSTORE SWAP1 PUSH1 0x1 ADD SWAP1 PUSH1 0x20 ADD DUP1 DUP4 GT PUSH2 0xE91 JUMPI DUP3 SWAP1 SUB PUSH1 0x1F AND DUP3 ADD SWAP2 JUMPDEST POP POP POP POP POP SWAP1 POP DUP7 JUMP JUMPDEST DUP1 PUSH1 0x1 PUSH1 0x0 PUSH2 0x100 EXP DUP2 SLOAD DUP2 PUSH20 0xFFFFFFFFFFFFFFFFFFFFFFFFFFFFFFFFFFFFFFFF MUL NOT AND SWAP1 DUP4 PUSH20 0xFFFFFFFFFFFFFFFFFFFFFFFFFFFFFFFFFFFFFFFF AND MUL OR SWAP1 SSTORE POP POP JUMP JUMPDEST PUSH1 0x6 DUP2 DUP2 SLOAD DUP2 LT PUSH2 0xF0C JUMPI PUSH1 0x0 DUP1 REVERT JUMPDEST SWAP1 PUSH1 0x0 MSTORE PUSH1 0x20 PUSH1 0x0 KECCAK256 SWAP1 PUSH1 0x5 MUL ADD PUSH1 0x0 SWAP2 POP SWAP1 POP DUP1 PUSH1 0x0 ADD PUSH1 0x0 SWAP1 SLOAD SWAP1 PUSH2 0x100 EXP SWAP1 DIV PUSH20 0xFFFFFFFFFFFFFFFFFFFFFFFFFFFFFFFFFFFFFFFF AND SWAP1 DUP1 PUSH1 0x1 ADD DUP1 SLOAD PUSH2 0xF55 SWAP1 PUSH2 0x1A76 JUMP JUMPDEST DUP1 PUSH1 0x1F ADD PUSH1 0x20 DUP1 SWAP2 DIV MUL PUSH1 0x20 ADD PUSH1 0x40 MLOAD SWAP1 DUP2 ADD PUSH1 0x40 MSTORE DUP1 SWAP3 SWAP2 SWAP1 DUP2 DUP2 MSTORE PUSH1 0x20 ADD DUP3 DUP1 SLOAD PUSH2 0xF81 SWAP1 PUSH2 0x1A76 JUMP JUMPDEST DUP1 ISZERO PUSH2 0xFCE JUMPI DUP1 PUSH1 0x1F LT PUSH2 0xFA3 JUMPI PUSH2 0x100 DUP1 DUP4 SLOAD DIV MUL DUP4 MSTORE SWAP2 PUSH1 0x20 ADD SWAP2 PUSH2 0xFCE JUMP JUMPDEST DUP3 ADD SWAP2 SWAP1 PUSH1 0x0 MSTORE PUSH1 0x20 PUSH1 0x0 KECCAK256 SWAP1 JUMPDEST DUP2 SLOAD DUP2 MSTORE SWAP1 PUSH1 0x1 ADD SWAP1 PUSH1 0x20 ADD DUP1 DUP4 GT PUSH2 0xFB1 JUMPI DUP3 SWAP1 SUB PUSH1 0x1F AND DUP3 ADD SWAP2 JUMPDEST POP POP POP POP POP SWAP1 DUP1 PUSH1 0x2 ADD DUP1 SLOAD PUSH2 0xFE3 SWAP1 PUSH2 0x1A76 JUMP JUMPDEST DUP1 PUSH1 0x1F ADD PUSH1 0x20 DUP1 SWAP2 DIV MUL PUSH1 0x20 ADD PUSH1 0x40 MLOAD SWAP1 DUP2 ADD PUSH1 0x40 MSTORE DUP1 SWAP3 SWAP2 SWAP1 DUP2 DUP2 MSTORE PUSH1 0x20 ADD DUP3 DUP1 SLOAD PUSH2 0x100F SWAP1 PUSH2 0x1A76 JUMP JUMPDEST DUP1 ISZERO PUSH2 0x105C JUMPI DUP1 PUSH1 0x1F LT PUSH2 0x1031 JUMPI PUSH2 0x100 DUP1 DUP4 SLOAD DIV MUL DUP4 MSTORE SWAP2 PUSH1 0x20 ADD SWAP2 PUSH2 0x105C JUMP JUMPDEST DUP3 ADD SWAP2 SWAP1 PUSH1 0x0 MSTORE PUSH1 0x20 PUSH1 0x0 KECCAK256 SWAP1 JUMPDEST DUP2 SLOAD DUP2 MSTORE SWAP1 PUSH1 0x1 ADD SWAP1 PUSH1 0x20 ADD DUP1 DUP4 GT PUSH2 0x103F JUMPI DUP3 SWAP1 SUB PUSH1 0x1F AND DUP3 ADD SWAP2 JUMPDEST POP POP POP POP POP SWAP1 POP DUP4 JUMP JUMPDEST PUSH1 0x2 DUP2 DUP2 SLOAD DUP2 LT PUSH2 0x1076 JUMPI PUSH1 0x0 DUP1 REVERT JUMPDEST SWAP1 PUSH1 0x0 MSTORE PUSH1 0x20 PUSH1 0x0 KECCAK256 SWAP1 PUSH1 0x5 MUL ADD PUSH1 0x0 SWAP2 POP SWAP1 POP DUP1 PUSH1 0x0 ADD PUSH1 0x0 SWAP1 SLOAD SWAP1 PUSH2 0x100 EXP SWAP1 DIV PUSH20 0xFFFFFFFFFFFFFFFFFFFFFFFFFFFFFFFFFFFFFFFF AND SWAP1 DUP1 PUSH1 0x1 ADD DUP1 SLOAD PUSH2 0x10BF SWAP1 PUSH2 0x1A76 JUMP JUMPDEST DUP1 PUSH1 0x1F ADD PUSH1 0x20 DUP1 SWAP2 DIV MUL PUSH1 0x20 ADD PUSH1 0x40 MLOAD SWAP1 DUP2 ADD PUSH1 0x40 MSTORE DUP1 SWAP3 SWAP2 SWAP1 DUP2 DUP2 MSTORE PUSH1 0x20 ADD DUP3 DUP1 SLOAD PUSH2 0x10EB SWAP1 PUSH2 0x1A76 JUMP JUMPDEST DUP1 ISZERO PUSH2 0x1138 JUMPI DUP1 PUSH1 0x1F LT PUSH2 0x110D JUMPI PUSH2 0x100 DUP1 DUP4 SLOAD DIV MUL DUP4 MSTORE SWAP2 PUSH1 0x20 ADD SWAP2 PUSH2 0x1138 JUMP JUMPDEST DUP3 ADD SWAP2 SWAP1 PUSH1 0x0 MSTORE PUSH1 0x20 PUSH1 0x0 KECCAK256 SWAP1 JUMPDEST DUP2 SLOAD DUP2 MSTORE SWAP1 PUSH1 0x1 ADD SWAP1 PUSH1 0x20 ADD DUP1 DUP4 GT PUSH2 0x111B JUMPI DUP3 SWAP1 SUB PUSH1 0x1F AND DUP3 ADD SWAP2 JUMPDEST POP POP POP POP POP SWAP1 DUP1 PUSH1 0x2 ADD DUP1 SLOAD PUSH2 0x114D SWAP1 PUSH2 0x1A76 JUMP JUMPDEST DUP1 PUSH1 0x1F ADD PUSH1 0x20 DUP1 SWAP2 DIV MUL PUSH1 0x20 ADD PUSH1 0x40 MLOAD SWAP1 DUP2 ADD PUSH1 0x40 MSTORE DUP1 SWAP3 SWAP2 SWAP1 DUP2 DUP2 MSTORE PUSH1 0x20 ADD DUP3 DUP1 SLOAD PUSH2 0x1179 SWAP1 PUSH2 0x1A76 JUMP JUMPDEST DUP1 ISZERO PUSH2 0x11C6 JUMPI DUP1 PUSH1 0x1F LT PUSH2 0x119B JUMPI PUSH2 0x100 DUP1 DUP4 SLOAD DIV MUL DUP4 MSTORE SWAP2 PUSH1 0x20 ADD SWAP2 PUSH2 0x11C6 JUMP JUMPDEST DUP3 ADD SWAP2 SWAP1 PUSH1 0x0 MSTORE PUSH1 0x20 PUSH1 0x0 KECCAK256 SWAP1 JUMPDEST DUP2 SLOAD DUP2 MSTORE SWAP1 PUSH1 0x1 ADD SWAP1 PUSH1 0x20 ADD DUP1 DUP4 GT PUSH2 0x11A9 JUMPI DUP3 SWAP1 SUB PUSH1 0x1F AND DUP3 ADD SWAP2 JUMPDEST POP POP POP POP POP SWAP1 DUP1 PUSH1 0x3 ADD DUP1 SLOAD PUSH2 0x11DB SWAP1 PUSH2 0x1A76 JUMP JUMPDEST DUP1 PUSH1 0x1F ADD PUSH1 0x20 DUP1 SWAP2 DIV MUL PUSH1 0x20 ADD PUSH1 0x40 MLOAD SWAP1 DUP2 ADD PUSH1 0x40 MSTORE DUP1 SWAP3 SWAP2 SWAP1 DUP2 DUP2 MSTORE PUSH1 0x20 ADD DUP3 DUP1 SLOAD PUSH2 0x1207 SWAP1 PUSH2 0x1A76 JUMP JUMPDEST DUP1 ISZERO PUSH2 0x1254 JUMPI DUP1 PUSH1 0x1F LT PUSH2 0x1229 JUMPI PUSH2 0x100 DUP1 DUP4 SLOAD DIV MUL DUP4 MSTORE SWAP2 PUSH1 0x20 ADD SWAP2 PUSH2 0x1254 JUMP JUMPDEST DUP3 ADD SWAP2 SWAP1 PUSH1 0x0 MSTORE PUSH1 0x20 PUSH1 0x0 KECCAK256 SWAP1 JUMPDEST DUP2 SLOAD DUP2 MSTORE SWAP1 PUSH1 0x1 ADD SWAP1 PUSH1 0x20 ADD DUP1 DUP4 GT PUSH2 0x1237 JUMPI DUP3 SWAP1 SUB PUSH1 0x1F AND DUP3 ADD SWAP2 JUMPDEST POP POP POP POP POP SWAP1 DUP1 PUSH1 0x4 ADD DUP1 SLOAD PUSH2 0x1269 SWAP1 PUSH2 0x1A76 JUMP JUMPDEST DUP1 PUSH1 0x1F ADD PUSH1 0x20 DUP1 SWAP2 DIV MUL PUSH1 0x20 ADD PUSH1 0x40 MLOAD SWAP1 DUP2 ADD PUSH1 0x40 MSTORE DUP1 SWAP3 SWAP2 SWAP1 DUP2 DUP2 MSTORE PUSH1 0x20 ADD DUP3 DUP1 SLOAD PUSH2 0x1295 SWAP1 PUSH2 0x1A76 JUMP JUMPDEST DUP1 ISZERO PUSH2 0x12E2 JUMPI DUP1 PUSH1 0x1F LT PUSH2 0x12B7 JUMPI PUSH2 0x100 DUP1 DUP4 SLOAD DIV MUL DUP4 MSTORE SWAP2 PUSH1 0x20 ADD SWAP2 PUSH2 0x12E2 JUMP JUMPDEST DUP3 ADD SWAP2 SWAP1 PUSH1 0x0 MSTORE PUSH1 0x20 PUSH1 0x0 KECCAK256 SWAP1 JUMPDEST DUP2 SLOAD DUP2 MSTORE SWAP1 PUSH1 0x1 ADD SWAP1 PUSH1 0x20 ADD DUP1 DUP4 GT PUSH2 0x12C5 JUMPI DUP3 SWAP1 SUB PUSH1 0x1F AND DUP3 ADD SWAP2 JUMPDEST POP POP POP POP POP SWAP1 POP DUP6 JUMP JUMPDEST PUSH1 0x3 DUP2 SWAP1 DUP1 PUSH1 0x1 DUP2 SLOAD ADD DUP1 DUP3 SSTORE DUP1 SWAP2 POP POP PUSH1 0x1 SWAP1 SUB SWAP1 PUSH1 0x0 MSTORE PUSH1 0x20 PUSH1 0x0 KECCAK256 SWAP1 PUSH1 0x5 MUL ADD PUSH1 0x0 SWAP1 SWAP2 SWAP1 SWAP2 SWAP1 SWAP2 POP PUSH1 0x0 DUP3 ADD MLOAD DUP2 PUSH1 0x0 ADD PUSH1 0x0 PUSH2 0x100 EXP DUP2 SLOAD DUP2 PUSH20 0xFFFFFFFFFFFFFFFFFFFFFFFFFFFFFFFFFFFFFFFF MUL NOT AND SWAP1 DUP4 PUSH20 0xFFFFFFFFFFFFFFFFFFFFFFFFFFFFFFFFFFFFFFFF AND MUL OR SWAP1 SSTORE POP PUSH1 0x20 DUP3 ADD MLOAD DUP2 PUSH1 0x1 ADD SWAP1 DUP2 PUSH2 0x1374 SWAP2 SWAP1 PUSH2 0x1C53 JUMP JUMPDEST POP PUSH1 0x40 DUP3 ADD MLOAD DUP2 PUSH1 0x2 ADD SWAP1 DUP2 PUSH2 0x138A SWAP2 SWAP1 PUSH2 0x1C53 JUMP JUMPDEST POP PUSH1 0x60 DUP3 ADD MLOAD DUP2 PUSH1 0x3 ADD SWAP1 DUP2 PUSH2 0x13A0 SWAP2 SWAP1 PUSH2 0x1C53 JUMP JUMPDEST POP PUSH1 0x80 DUP3 ADD MLOAD DUP2 PUSH1 0x4 ADD SWAP1 DUP2 PUSH2 0x13B6 SWAP2 SWAP1 PUSH2 0x1C53 JUMP JUMPDEST POP POP POP POP JUMP JUMPDEST POP DUP1 SLOAD PUSH2 0x13C8 SWAP1 PUSH2 0x1A76 JUMP JUMPDEST PUSH1 0x0 DUP3 SSTORE DUP1 PUSH1 0x1F LT PUSH2 0x13DA JUMPI POP PUSH2 0x13F9 JUMP JUMPDEST PUSH1 0x1F ADD PUSH1 0x20 SWAP1 DIV SWAP1 PUSH1 0x0 MSTORE PUSH1 0x20 PUSH1 0x0 KECCAK256 SWAP1 DUP2 ADD SWAP1 PUSH2 0x13F8 SWAP2 SWAP1 PUSH2 0x13FC JUMP JUMPDEST JUMPDEST POP JUMP JUMPDEST JUMPDEST DUP1 DUP3 GT ISZERO PUSH2 0x1415 JUMPI PUSH1 0x0 DUP2 PUSH1 0x0 SWAP1 SSTORE POP PUSH1 0x1 ADD PUSH2 0x13FD JUMP JUMPDEST POP SWAP1 JUMP JUMPDEST PUSH1 0x0 PUSH20 0xFFFFFFFFFFFFFFFFFFFFFFFFFFFFFFFFFFFFFFFF DUP3 AND SWAP1 POP SWAP2 SWAP1 POP JUMP JUMPDEST PUSH1 0x0 PUSH2 0x1444 DUP3 PUSH2 0x1419 JUMP JUMPDEST SWAP1 POP SWAP2 SWAP1 POP JUMP JUMPDEST PUSH2 0x1454 DUP2 PUSH2 0x1439 JUMP JUMPDEST DUP3 MSTORE POP POP JUMP JUMPDEST PUSH1 0x0 PUSH1 0x20 DUP3 ADD SWAP1 POP PUSH2 0x146F PUSH1 0x0 DUP4 ADD DUP5 PUSH2 0x144B JUMP JUMPDEST SWAP3 SWAP2 POP POP JUMP JUMPDEST PUSH1 0x0 PUSH1 0x40 MLOAD SWAP1 POP SWAP1 JUMP JUMPDEST PUSH1 0x0 DUP1 REVERT JUMPDEST PUSH1 0x0 DUP1 REVERT JUMPDEST PUSH1 0x0 DUP2 SWAP1 POP SWAP2 SWAP1 POP JUMP JUMPDEST PUSH2 0x149C DUP2 PUSH2 0x1489 JUMP JUMPDEST DUP2 EQ PUSH2 0x14A7 JUMPI PUSH1 0x0 DUP1 REVERT JUMPDEST POP JUMP JUMPDEST PUSH1 0x0 DUP2 CALLDATALOAD SWAP1 POP PUSH2 0x14B9 DUP2 PUSH2 0x1493 JUMP JUMPDEST SWAP3 SWAP2 POP POP JUMP JUMPDEST PUSH1 0x0 PUSH1 0x20 DUP3 DUP5 SUB SLT ISZERO PUSH2 0x14D5 JUMPI PUSH2 0x14D4 PUSH2 0x147F JUMP JUMPDEST JUMPDEST PUSH1 0x0 PUSH2 0x14E3 DUP5 DUP3 DUP6 ADD PUSH2 0x14AA JUMP JUMPDEST SWAP2 POP POP SWAP3 SWAP2 POP POP JUMP JUMPDEST PUSH1 0x0 DUP2 MLOAD SWAP1 POP SWAP2 SWAP1 POP JUMP JUMPDEST PUSH1 0x0 DUP3 DUP3 MSTORE PUSH1 0x20 DUP3 ADD SWAP1 POP SWAP3 SWAP2 POP POP JUMP JUMPDEST PUSH1 0x0 JUMPDEST DUP4 DUP2 LT ISZERO PUSH2 0x1526 JUMPI DUP1 DUP3 ADD MLOAD DUP2 DUP5 ADD MSTORE PUSH1 0x20 DUP2 ADD SWAP1 POP PUSH2 0x150B JUMP JUMPDEST PUSH1 0x0 DUP5 DUP5 ADD MSTORE POP POP POP POP JUMP JUMPDEST PUSH1 0x0 PUSH1 0x1F NOT PUSH1 0x1F DUP4 ADD AND SWAP1 POP SWAP2 SWAP1 POP JUMP JUMPDEST PUSH1 0x0 PUSH2 0x154E DUP3 PUSH2 0x14EC JUMP JUMPDEST PUSH2 0x1558 DUP2 DUP6 PUSH2 0x14F7 JUMP JUMPDEST SWAP4 POP PUSH2 0x1568 DUP2 DUP6 PUSH1 0x20 DUP7 ADD PUSH2 0x1508 JUMP JUMPDEST PUSH2 0x1571 DUP2 PUSH2 0x1532 JUMP JUMPDEST DUP5 ADD SWAP2 POP POP SWAP3 SWAP2 POP POP JUMP JUMPDEST PUSH1 0x0 PUSH1 0xA0 DUP3 ADD SWAP1 POP PUSH2 0x1591 PUSH1 0x0 DUP4 ADD DUP9 PUSH2 0x144B JUMP JUMPDEST DUP2 DUP2 SUB PUSH1 0x20 DUP4 ADD MSTORE PUSH2 0x15A3 DUP2 DUP8 PUSH2 0x1543 JUMP JUMPDEST SWAP1 POP DUP2 DUP2 SUB PUSH1 0x40 DUP4 ADD MSTORE PUSH2 0x15B7 DUP2 DUP7 PUSH2 0x1543 JUMP JUMPDEST SWAP1 POP DUP2 DUP2 SUB PUSH1 0x60 DUP4 ADD MSTORE PUSH2 0x15CB DUP2 DUP6 PUSH2 0x1543 JUMP JUMPDEST SWAP1 POP DUP2 DUP2 SUB PUSH1 0x80 DUP4 ADD MSTORE PUSH2 0x15DF DUP2 DUP5 PUSH2 0x1543 JUMP JUMPDEST SWAP1 POP SWAP7 SWAP6 POP POP POP POP POP POP JUMP JUMPDEST PUSH1 0x0 PUSH1 0x80 DUP3 ADD SWAP1 POP DUP2 DUP2 SUB PUSH1 0x0 DUP4 ADD MSTORE PUSH2 0x1605 DUP2 DUP8 PUSH2 0x1543 JUMP JUMPDEST SWAP1 POP PUSH2 0x1614 PUSH1 0x20 DUP4 ADD DUP7 PUSH2 0x144B JUMP JUMPDEST DUP2 DUP2 SUB PUSH1 0x40 DUP4 ADD MSTORE PUSH2 0x1626 DUP2 DUP6 PUSH2 0x1543 JUMP JUMPDEST SWAP1 POP DUP2 DUP2 SUB PUSH1 0x60 DUP4 ADD MSTORE PUSH2 0x163A DUP2 DUP5 PUSH2 0x1543 JUMP JUMPDEST SWAP1 POP SWAP6 SWAP5 POP POP POP POP POP JUMP JUMPDEST PUSH1 0x0 PUSH1 0x60 DUP3 ADD SWAP1 POP PUSH2 0x165A PUSH1 0x0 DUP4 ADD DUP7 PUSH2 0x144B JUMP JUMPDEST DUP2 DUP2 SUB PUSH1 0x20 DUP4 ADD MSTORE PUSH2 0x166C DUP2 DUP6 PUSH2 0x1543 JUMP JUMPDEST SWAP1 POP DUP2 DUP2 SUB PUSH1 0x40 DUP4 ADD MSTORE PUSH2 0x1680 DUP2 DUP5 PUSH2 0x1543 JUMP JUMPDEST SWAP1 POP SWAP5 SWAP4 POP POP POP POP JUMP JUMPDEST PUSH1 0x0 DUP1 REVERT JUMPDEST PUSH32 0x4E487B7100000000000000000000000000000000000000000000000000000000 PUSH1 0x0 MSTORE PUSH1 0x41 PUSH1 0x4 MSTORE PUSH1 0x24 PUSH1 0x0 REVERT JUMPDEST PUSH2 0x16C7 DUP3 PUSH2 0x1532 JUMP JUMPDEST DUP2 ADD DUP2 DUP2 LT PUSH8 0xFFFFFFFFFFFFFFFF DUP3 GT OR ISZERO PUSH2 0x16E6 JUMPI PUSH2 0x16E5 PUSH2 0x168F JUMP JUMPDEST JUMPDEST DUP1 PUSH1 0x40 MSTORE POP POP POP JUMP JUMPDEST PUSH1 0x0 PUSH2 0x16F9 PUSH2 0x1475 JUMP JUMPDEST SWAP1 POP PUSH2 0x1705 DUP3 DUP3 PUSH2 0x16BE JUMP JUMPDEST SWAP2 SWAP1 POP JUMP JUMPDEST PUSH1 0x0 DUP1 REVERT JUMPDEST PUSH2 0x1718 DUP2 PUSH2 0x1439 JUMP JUMPDEST DUP2 EQ PUSH2 0x1723 JUMPI PUSH1 0x0 DUP1 REVERT JUMPDEST POP JUMP JUMPDEST PUSH1 0x0 DUP2 CALLDATALOAD SWAP1 POP PUSH2 0x1735 DUP2 PUSH2 0x170F JUMP JUMPDEST SWAP3 SWAP2 POP POP JUMP JUMPDEST PUSH1 0x0 DUP1 REVERT JUMPDEST PUSH1 0x0 DUP1 REVERT JUMPDEST PUSH1 0x0 PUSH8 0xFFFFFFFFFFFFFFFF DUP3 GT ISZERO PUSH2 0x1760 JUMPI PUSH2 0x175F PUSH2 0x168F JUMP JUMPDEST JUMPDEST PUSH2 0x1769 DUP3 PUSH2 0x1532 JUMP JUMPDEST SWAP1 POP PUSH1 0x20 DUP2 ADD SWAP1 POP SWAP2 SWAP1 POP JUMP JUMPDEST DUP3 DUP2 DUP4 CALLDATACOPY PUSH1 0x0 DUP4 DUP4 ADD MSTORE POP POP POP JUMP JUMPDEST PUSH1 0x0 PUSH2 0x1798 PUSH2 0x1793 DUP5 PUSH2 0x1745 JUMP JUMPDEST PUSH2 0x16EF JUMP JUMPDEST SWAP1 POP DUP3 DUP2 MSTORE PUSH1 0x20 DUP2 ADD DUP5 DUP5 DUP5 ADD GT ISZERO PUSH2 0x17B4 JUMPI PUSH2 0x17B3 PUSH2 0x1740 JUMP JUMPDEST JUMPDEST PUSH2 0x17BF DUP5 DUP3 DUP6 PUSH2 0x1776 JUMP JUMPDEST POP SWAP4 SWAP3 POP POP POP JUMP JUMPDEST PUSH1 0x0 DUP3 PUSH1 0x1F DUP4 ADD SLT PUSH2 0x17DC JUMPI PUSH2 0x17DB PUSH2 0x173B JUMP JUMPDEST JUMPDEST DUP2 CALLDATALOAD PUSH2 0x17EC DUP5 DUP3 PUSH1 0x20 DUP7 ADD PUSH2 0x1785 JUMP JUMPDEST SWAP2 POP POP SWAP3 SWAP2 POP POP JUMP JUMPDEST PUSH1 0x0 PUSH1 0xA0 DUP3 DUP5 SUB SLT ISZERO PUSH2 0x180B JUMPI PUSH2 0x180A PUSH2 0x168A JUMP JUMPDEST JUMPDEST PUSH2 0x1815 PUSH1 0xA0 PUSH2 0x16EF JUMP JUMPDEST SWAP1 POP PUSH1 0x0 PUSH2 0x1825 DUP5 DUP3 DUP6 ADD PUSH2 0x1726 JUMP JUMPDEST PUSH1 0x0 DUP4 ADD MSTORE POP PUSH1 0x20 DUP3 ADD CALLDATALOAD PUSH8 0xFFFFFFFFFFFFFFFF DUP2 GT ISZERO PUSH2 0x1849 JUMPI PUSH2 0x1848 PUSH2 0x170A JUMP JUMPDEST JUMPDEST PUSH2 0x1855 DUP5 DUP3 DUP6 ADD PUSH2 0x17C7 JUMP JUMPDEST PUSH1 0x20 DUP4 ADD MSTORE POP PUSH1 0x40 DUP3 ADD CALLDATALOAD PUSH8 0xFFFFFFFFFFFFFFFF DUP2 GT ISZERO PUSH2 0x1879 JUMPI PUSH2 0x1878 PUSH2 0x170A JUMP JUMPDEST JUMPDEST PUSH2 0x1885 DUP5 DUP3 DUP6 ADD PUSH2 0x17C7 JUMP JUMPDEST PUSH1 0x40 DUP4 ADD MSTORE POP PUSH1 0x60 DUP3 ADD CALLDATALOAD PUSH8 0xFFFFFFFFFFFFFFFF DUP2 GT ISZERO PUSH2 0x18A9 JUMPI PUSH2 0x18A8 PUSH2 0x170A JUMP JUMPDEST JUMPDEST PUSH2 0x18B5 DUP5 DUP3 DUP6 ADD PUSH2 0x17C7 JUMP JUMPDEST PUSH1 0x60 DUP4 ADD MSTORE POP PUSH1 0x80 DUP3 ADD CALLDATALOAD PUSH8 0xFFFFFFFFFFFFFFFF DUP2 GT ISZERO PUSH2 0x18D9 JUMPI PUSH2 0x18D8 PUSH2 0x170A JUMP JUMPDEST JUMPDEST PUSH2 0x18E5 DUP5 DUP3 DUP6 ADD PUSH2 0x17C7 JUMP JUMPDEST PUSH1 0x80 DUP4 ADD MSTORE POP SWAP3 SWAP2 POP POP JUMP JUMPDEST PUSH1 0x0 PUSH1 0x20 DUP3 DUP5 SUB SLT ISZERO PUSH2 0x1907 JUMPI PUSH2 0x1906 PUSH2 0x147F JUMP JUMPDEST JUMPDEST PUSH1 0x0 DUP3 ADD CALLDATALOAD PUSH8 0xFFFFFFFFFFFFFFFF DUP2 GT ISZERO PUSH2 0x1925 JUMPI PUSH2 0x1924 PUSH2 0x1484 JUMP JUMPDEST JUMPDEST PUSH2 0x1931 DUP5 DUP3 DUP6 ADD PUSH2 0x17F5 JUMP JUMPDEST SWAP2 POP POP SWAP3 SWAP2 POP POP JUMP JUMPDEST PUSH1 0x0 DUP1 PUSH1 0x40 DUP4 DUP6 SUB SLT ISZERO PUSH2 0x1951 JUMPI PUSH2 0x1950 PUSH2 0x147F JUMP JUMPDEST JUMPDEST PUSH1 0x0 PUSH2 0x195F DUP6 DUP3 DUP7 ADD PUSH2 0x14AA JUMP JUMPDEST SWAP3 POP POP PUSH1 0x20 DUP4 ADD CALLDATALOAD PUSH8 0xFFFFFFFFFFFFFFFF DUP2 GT ISZERO PUSH2 0x1980 JUMPI PUSH2 0x197F PUSH2 0x1484 JUMP JUMPDEST JUMPDEST PUSH2 0x198C DUP6 DUP3 DUP7 ADD PUSH2 0x17F5 JUMP JUMPDEST SWAP2 POP POP SWAP3 POP SWAP3 SWAP1 POP JUMP JUMPDEST PUSH1 0x0 PUSH1 0x20 DUP3 DUP5 SUB SLT ISZERO PUSH2 0x19AC JUMPI PUSH2 0x19AB PUSH2 0x147F JUMP JUMPDEST JUMPDEST PUSH1 0x0 PUSH2 0x19BA DUP5 DUP3 DUP6 ADD PUSH2 0x1726 JUMP JUMPDEST SWAP2 POP POP SWAP3 SWAP2 POP POP JUMP JUMPDEST PUSH1 0x0 PUSH1 0xC0 DUP3 ADD SWAP1 POP PUSH2 0x19D8 PUSH1 0x0 DUP4 ADD DUP10 PUSH2 0x144B JUMP JUMPDEST DUP2 DUP2 SUB PUSH1 0x20 DUP4 ADD MSTORE PUSH2 0x19EA DUP2 DUP9 PUSH2 0x1543 JUMP JUMPDEST SWAP1 POP DUP2 DUP2 SUB PUSH1 0x40 DUP4 ADD MSTORE PUSH2 0x19FE DUP2 DUP8 PUSH2 0x1543 JUMP JUMPDEST SWAP1 POP DUP2 DUP2 SUB PUSH1 0x60 DUP4 ADD MSTORE PUSH2 0x1A12 DUP2 DUP7 PUSH2 0x1543 JUMP JUMPDEST SWAP1 POP DUP2 DUP2 SUB PUSH1 0x80 DUP4 ADD MSTORE PUSH2 0x1A26 DUP2 DUP6 PUSH2 0x1543 JUMP JUMPDEST SWAP1 POP DUP2 DUP2 SUB PUSH1 0xA0 DUP4 ADD MSTORE PUSH2 0x1A3A DUP2 DUP5 PUSH2 0x1543 JUMP JUMPDEST SWAP1 POP SWAP8 SWAP7 POP POP POP POP POP POP POP JUMP JUMPDEST PUSH32 0x4E487B7100000000000000000000000000000000000000000000000000000000 PUSH1 0x0 MSTORE PUSH1 0x22 PUSH1 0x4 MSTORE PUSH1 0x24 PUSH1 0x0 REVERT JUMPDEST PUSH1 0x0 PUSH1 0x2 DUP3 DIV SWAP1 POP PUSH1 0x1 DUP3 AND DUP1 PUSH2 0x1A8E JUMPI PUSH1 0x7F DUP3 AND SWAP2 POP JUMPDEST PUSH1 0x20 DUP3 LT DUP2 SUB PUSH2 0x1AA1 JUMPI PUSH2 0x1AA0 PUSH2 0x1A47 JUMP JUMPDEST JUMPDEST POP SWAP2 SWAP1 POP JUMP JUMPDEST PUSH1 0x0 DUP2 SWAP1 POP DUP2 PUSH1 0x0 MSTORE PUSH1 0x20 PUSH1 0x0 KECCAK256 SWAP1 POP SWAP2 SWAP1 POP JUMP JUMPDEST PUSH1 0x0 PUSH1 0x20 PUSH1 0x1F DUP4 ADD DIV SWAP1 POP SWAP2 SWAP1 POP JUMP JUMPDEST PUSH1 0x0 DUP3 DUP3 SHL SWAP1 POP SWAP3 SWAP2 POP POP JUMP JUMPDEST PUSH1 0x0 PUSH1 0x8 DUP4 MUL PUSH2 0x1B09 PUSH32 0xFFFFFFFFFFFFFFFFFFFFFFFFFFFFFFFFFFFFFFFFFFFFFFFFFFFFFFFFFFFFFFFF DUP3 PUSH2 0x1ACC JUMP JUMPDEST PUSH2 0x1B13 DUP7 DUP4 PUSH2 0x1ACC JUMP JUMPDEST SWAP6 POP DUP1 NOT DUP5 AND SWAP4 POP DUP1 DUP7 AND DUP5 OR SWAP3 POP POP POP SWAP4 SWAP3 POP POP POP JUMP JUMPDEST PUSH1 0x0 DUP2 SWAP1 POP SWAP2 SWAP1 POP JUMP JUMPDEST PUSH1 0x0 PUSH2 0x1B50 PUSH2 0x1B4B PUSH2 0x1B46 DUP5 PUSH2 0x1489 JUMP JUMPDEST PUSH2 0x1B2B JUMP JUMPDEST PUSH2 0x1489 JUMP JUMPDEST SWAP1 POP SWAP2 SWAP1 POP JUMP JUMPDEST PUSH1 0x0 DUP2 SWAP1 POP SWAP2 SWAP1 POP JUMP JUMPDEST PUSH2 0x1B6A DUP4 PUSH2 0x1B35 JUMP JUMPDEST PUSH2 0x1B7E PUSH2 0x1B76 DUP3 PUSH2 0x1B57 JUMP JUMPDEST DUP5 DUP5 SLOAD PUSH2 0x1AD9 JUMP JUMPDEST DUP3 SSTORE POP POP POP POP JUMP JUMPDEST PUSH1 0x0 SWAP1 JUMP JUMPDEST PUSH2 0x1B93 PUSH2 0x1B86 JUMP JUMPDEST PUSH2 0x1B9E DUP2 DUP5 DUP5 PUSH2 0x1B61 JUMP JUMPDEST POP POP POP JUMP JUMPDEST JUMPDEST DUP2 DUP2 LT ISZERO PUSH2 0x1BC2 JUMPI PUSH2 0x1BB7 PUSH1 0x0 DUP3 PUSH2 0x1B8B JUMP JUMPDEST PUSH1 0x1 DUP2 ADD SWAP1 POP PUSH2 0x1BA4 JUMP JUMPDEST POP POP JUMP JUMPDEST PUSH1 0x1F DUP3 GT ISZERO PUSH2 0x1C07 JUMPI PUSH2 0x1BD8 DUP2 PUSH2 0x1AA7 JUMP JUMPDEST PUSH2 0x1BE1 DUP5 PUSH2 0x1ABC JUMP JUMPDEST DUP2 ADD PUSH1 0x20 DUP6 LT ISZERO PUSH2 0x1BF0 JUMPI DUP2 SWAP1 POP JUMPDEST PUSH2 0x1C04 PUSH2 0x1BFC DUP6 PUSH2 0x1ABC JUMP JUMPDEST DUP4 ADD DUP3 PUSH2 0x1BA3 JUMP JUMPDEST POP POP JUMPDEST POP POP POP JUMP JUMPDEST PUSH1 0x0 DUP3 DUP3 SHR SWAP1 POP SWAP3 SWAP2 POP POP JUMP JUMPDEST PUSH1 0x0 PUSH2 0x1C2A PUSH1 0x0 NOT DUP5 PUSH1 0x8 MUL PUSH2 0x1C0C JUMP JUMPDEST NOT DUP1 DUP4 AND SWAP2 POP POP SWAP3 SWAP2 POP POP JUMP JUMPDEST PUSH1 0x0 PUSH2 0x1C43 DUP4 DUP4 PUSH2 0x1C19 JUMP JUMPDEST SWAP2 POP DUP3 PUSH1 0x2 MUL DUP3 OR SWAP1 POP SWAP3 SWAP2 POP POP JUMP JUMPDEST PUSH2 0x1C5C DUP3 PUSH2 0x14EC JUMP JUMPDEST PUSH8 0xFFFFFFFFFFFFFFFF DUP2 GT ISZERO PUSH2 0x1C75 JUMPI PUSH2 0x1C74 PUSH2 0x168F JUMP JUMPDEST JUMPDEST PUSH2 0x1C7F DUP3 SLOAD PUSH2 0x1A76 JUMP JUMPDEST PUSH2 0x1C8A DUP3 DUP3 DUP6 PUSH2 0x1BC6 JUMP JUMPDEST PUSH1 0x0 PUSH1 0x20 SWAP1 POP PUSH1 0x1F DUP4 GT PUSH1 0x1 DUP2 EQ PUSH2 0x1CBD JUMPI PUSH1 0x0 DUP5 ISZERO PUSH2 0x1CAB JUMPI DUP3 DUP8 ADD MLOAD SWAP1 POP JUMPDEST PUSH2 0x1CB5 DUP6 DUP3 PUSH2 0x1C37 JUMP JUMPDEST DUP7 SSTORE POP PUSH2 0x1D1D JUMP JUMPDEST PUSH1 0x1F NOT DUP5 AND PUSH2 0x1CCB DUP7 PUSH2 0x1AA7 JUMP JUMPDEST PUSH1 0x0 JUMPDEST DUP3 DUP2 LT ISZERO PUSH2 0x1CF3 JUMPI DUP5 DUP10 ADD MLOAD DUP3 SSTORE PUSH1 0x1 DUP3 ADD SWAP2 POP PUSH1 0x20 DUP6 ADD SWAP5 POP PUSH1 0x20 DUP2 ADD SWAP1 POP PUSH2 0x1CCE JUMP JUMPDEST DUP7 DUP4 LT ISZERO PUSH2 0x1D10 JUMPI DUP5 DUP10 ADD MLOAD PUSH2 0x1D0C PUSH1 0x1F DUP10 AND DUP3 PUSH2 0x1C19 JUMP JUMPDEST DUP4 SSTORE POP JUMPDEST PUSH1 0x1 PUSH1 0x2 DUP9 MUL ADD DUP9 SSTORE POP POP POP JUMPDEST POP POP POP POP POP POP JUMP JUMPDEST PUSH32 0x4E487B7100000000000000000000000000000000000000000000000000000000 PUSH1 0x0 MSTORE PUSH1 0x32 PUSH1 0x4 MSTORE PUSH1 0x24 PUSH1 0x0 REVERT INVALID LOG2 PUSH5 0x6970667358 0x22 SLT KECCAK256 DELEGATECALL SMOD 0x4A 0x22 0x5D LOG3 SMOD 0x1E 0x5C 0xE3 DIV 0xF6 0xDE GASLIMIT 0xDF 0xD2 0xEB PUSH24 0x9B47649F4F9BE61EADCF9967564764736F6C634300081100 CALLER "
				},
				"gasEstimates": {
					"creation": {
						"codeDepositCost": "1512400",
						"executionCost": "1582",
						"totalCost": "1513982"
					},
					"external": {
						"add_admin((address,string,string,string,string))": "infinite",
						"add_buyer((address,string,string,string,string))": "infinite",
						"admins(uint256)": "infinite",
						"bank()": "2537",
						"buyers(uint256)": "infinite",
						"provider()": "2535",
						"remove_buyer(uint256)": "infinite",
						"requests(uint256)": "infinite",
						"reviews(uint256)": "infinite",
						"sellers(uint256)": "infinite",
						"set_bank(address)": "24744",
						"set_provider(address)": "24745",
						"shops(uint256)": "infinite",
						"update_buyer(uint256,(address,string,string,string,string))": "infinite"
					}
				},
				"methodIdentifiers": {
					"add_admin((address,string,string,string,string))": "f73c5683",
					"add_buyer((address,string,string,string,string))": "856c799d",
					"admins(uint256)": "14bfd6d0",
					"bank()": "76cdb03b",
					"buyers(uint256)": "f2aa8218",
					"provider()": "085d4883",
					"remove_buyer(uint256)": "b78842ee",
					"requests(uint256)": "81d12c58",
					"reviews(uint256)": "e83ddcea",
					"sellers(uint256)": "cee26ed5",
					"set_bank(address)": "dacf64e2",
					"set_provider(address)": "b29f04fe",
					"shops(uint256)": "713aca74",
					"update_buyer(uint256,(address,string,string,string,string))": "98168b94"
				}
			},
			"storageLayout": {
				"storage": [
					{
						"astId": 56,
						"contract": "contracts/Colhoz.sol:Colhoz",
						"label": "provider",
						"offset": 0,
						"slot": "0",
						"type": "t_address"
					},
					{
						"astId": 58,
						"contract": "contracts/Colhoz.sol:Colhoz",
						"label": "bank",
						"offset": 0,
						"slot": "1",
						"type": "t_address"
					},
					{
						"astId": 62,
						"contract": "contracts/Colhoz.sol:Colhoz",
						"label": "buyers",
						"offset": 0,
						"slot": "2",
						"type": "t_array(t_struct(User)12_storage)dyn_storage"
					},
					{
						"astId": 66,
						"contract": "contracts/Colhoz.sol:Colhoz",
						"label": "admins",
						"offset": 0,
						"slot": "3",
						"type": "t_array(t_struct(User)12_storage)dyn_storage"
					},
					{
						"astId": 70,
						"contract": "contracts/Colhoz.sol:Colhoz",
						"label": "sellers",
						"offset": 0,
						"slot": "4",
						"type": "t_array(t_struct(Seller)25_storage)dyn_storage"
					},
					{
						"astId": 74,
						"contract": "contracts/Colhoz.sol:Colhoz",
						"label": "shops",
						"offset": 0,
						"slot": "5",
						"type": "t_array(t_struct(Shop)34_storage)dyn_storage"
					},
					{
						"astId": 78,
						"contract": "contracts/Colhoz.sol:Colhoz",
						"label": "reviews",
						"offset": 0,
						"slot": "6",
						"type": "t_array(t_struct(Review)47_storage)dyn_storage"
					},
					{
						"astId": 82,
						"contract": "contracts/Colhoz.sol:Colhoz",
						"label": "requests",
						"offset": 0,
						"slot": "7",
						"type": "t_array(t_struct(Request)54_storage)dyn_storage"
					}
				],
				"types": {
					"t_address": {
						"encoding": "inplace",
						"label": "address",
						"numberOfBytes": "20"
					},
					"t_array(t_address)dyn_storage": {
						"base": "t_address",
						"encoding": "dynamic_array",
						"label": "address[]",
						"numberOfBytes": "32"
					},
					"t_array(t_struct(Request)54_storage)dyn_storage": {
						"base": "t_struct(Request)54_storage",
						"encoding": "dynamic_array",
						"label": "struct Request[]",
						"numberOfBytes": "32"
					},
					"t_array(t_struct(Review)47_storage)dyn_storage": {
						"base": "t_struct(Review)47_storage",
						"encoding": "dynamic_array",
						"label": "struct Review[]",
						"numberOfBytes": "32"
					},
					"t_array(t_struct(Seller)25_storage)dyn_storage": {
						"base": "t_struct(Seller)25_storage",
						"encoding": "dynamic_array",
						"label": "struct Seller[]",
						"numberOfBytes": "32"
					},
					"t_array(t_struct(Shop)34_storage)dyn_storage": {
						"base": "t_struct(Shop)34_storage",
						"encoding": "dynamic_array",
						"label": "struct Shop[]",
						"numberOfBytes": "32"
					},
					"t_array(t_struct(User)12_storage)dyn_storage": {
						"base": "t_struct(User)12_storage",
						"encoding": "dynamic_array",
						"label": "struct User[]",
						"numberOfBytes": "32"
					},
					"t_string_storage": {
						"encoding": "bytes",
						"label": "string",
						"numberOfBytes": "32"
					},
					"t_struct(Request)54_storage": {
						"encoding": "inplace",
						"label": "struct Request",
						"members": [
							{
								"astId": 49,
								"contract": "contracts/Colhoz.sol:Colhoz",
								"label": "autor",
								"offset": 0,
								"slot": "0",
								"type": "t_address"
							},
							{
								"astId": 51,
								"contract": "contracts/Colhoz.sol:Colhoz",
								"label": "currentRole",
								"offset": 0,
								"slot": "1",
								"type": "t_string_storage"
							},
							{
								"astId": 53,
								"contract": "contracts/Colhoz.sol:Colhoz",
								"label": "desiredRole",
								"offset": 0,
								"slot": "2",
								"type": "t_string_storage"
							}
						],
						"numberOfBytes": "96"
					},
					"t_struct(Review)47_storage": {
						"encoding": "inplace",
						"label": "struct Review",
						"members": [
							{
								"astId": 36,
								"contract": "contracts/Colhoz.sol:Colhoz",
								"label": "autor",
								"offset": 0,
								"slot": "0",
								"type": "t_address"
							},
							{
								"astId": 38,
								"contract": "contracts/Colhoz.sol:Colhoz",
								"label": "message",
								"offset": 0,
								"slot": "1",
								"type": "t_string_storage"
							},
							{
								"astId": 40,
								"contract": "contracts/Colhoz.sol:Colhoz",
								"label": "shopId",
								"offset": 0,
								"slot": "2",
								"type": "t_string_storage"
							},
							{
								"astId": 43,
								"contract": "contracts/Colhoz.sol:Colhoz",
								"label": "likes",
								"offset": 0,
								"slot": "3",
								"type": "t_array(t_address)dyn_storage"
							},
							{
								"astId": 46,
								"contract": "contracts/Colhoz.sol:Colhoz",
								"label": "dislikes",
								"offset": 0,
								"slot": "4",
								"type": "t_array(t_address)dyn_storage"
							}
						],
						"numberOfBytes": "160"
					},
					"t_struct(Seller)25_storage": {
						"encoding": "inplace",
						"label": "struct Seller",
						"members": [
							{
								"astId": 14,
								"contract": "contracts/Colhoz.sol:Colhoz",
								"label": "userAddr",
								"offset": 0,
								"slot": "0",
								"type": "t_address"
							},
							{
								"astId": 16,
								"contract": "contracts/Colhoz.sol:Colhoz",
								"label": "login",
								"offset": 0,
								"slot": "1",
								"type": "t_string_storage"
							},
							{
								"astId": 18,
								"contract": "contracts/Colhoz.sol:Colhoz",
								"label": "password",
								"offset": 0,
								"slot": "2",
								"type": "t_string_storage"
							},
							{
								"astId": 20,
								"contract": "contracts/Colhoz.sol:Colhoz",
								"label": "fio",
								"offset": 0,
								"slot": "3",
								"type": "t_string_storage"
							},
							{
								"astId": 22,
								"contract": "contracts/Colhoz.sol:Colhoz",
								"label": "status",
								"offset": 0,
								"slot": "4",
								"type": "t_string_storage"
							},
							{
								"astId": 24,
								"contract": "contracts/Colhoz.sol:Colhoz",
								"label": "shopId",
								"offset": 0,
								"slot": "5",
								"type": "t_string_storage"
							}
						],
						"numberOfBytes": "192"
					},
					"t_struct(Shop)34_storage": {
						"encoding": "inplace",
						"label": "struct Shop",
						"members": [
							{
								"astId": 27,
								"contract": "contracts/Colhoz.sol:Colhoz",
								"label": "shopId",
								"offset": 0,
								"slot": "0",
								"type": "t_string_storage"
							},
							{
								"astId": 29,
								"contract": "contracts/Colhoz.sol:Colhoz",
								"label": "shopAddr",
								"offset": 0,
								"slot": "1",
								"type": "t_address"
							},
							{
								"astId": 31,
								"contract": "contracts/Colhoz.sol:Colhoz",
								"label": "number",
								"offset": 0,
								"slot": "2",
								"type": "t_string_storage"
							},
							{
								"astId": 33,
								"contract": "contracts/Colhoz.sol:Colhoz",
								"label": "city",
								"offset": 0,
								"slot": "3",
								"type": "t_string_storage"
							}
						],
						"numberOfBytes": "128"
					},
					"t_struct(User)12_storage": {
						"encoding": "inplace",
						"label": "struct User",
						"members": [
							{
								"astId": 3,
								"contract": "contracts/Colhoz.sol:Colhoz",
								"label": "userAddr",
								"offset": 0,
								"slot": "0",
								"type": "t_address"
							},
							{
								"astId": 5,
								"contract": "contracts/Colhoz.sol:Colhoz",
								"label": "login",
								"offset": 0,
								"slot": "1",
								"type": "t_string_storage"
							},
							{
								"astId": 7,
								"contract": "contracts/Colhoz.sol:Colhoz",
								"label": "password",
								"offset": 0,
								"slot": "2",
								"type": "t_string_storage"
							},
							{
								"astId": 9,
								"contract": "contracts/Colhoz.sol:Colhoz",
								"label": "fio",
								"offset": 0,
								"slot": "3",
								"type": "t_string_storage"
							},
							{
								"astId": 11,
								"contract": "contracts/Colhoz.sol:Colhoz",
								"label": "status",
								"offset": 0,
								"slot": "4",
								"type": "t_string_storage"
							}
						],
						"numberOfBytes": "160"
					}
				}
			},
			"userdoc": {
				"kind": "user",
				"methods": {},
				"version": 1
			}
		}
	}
}