{
	"contracts/Shops.sol": {
		"ShopsSystem": {
			"abi": [
				{
					"inputs": [],
					"stateMutability": "nonpayable",
					"type": "constructor"
				},
				{
					"inputs": [
						{
							"internalType": "string",
							"name": "id",
							"type": "string"
						},
						{
							"internalType": "bool",
							"name": "isUpper",
							"type": "bool"
						}
					],
					"name": "checkRequest",
					"outputs": [],
					"stateMutability": "nonpayable",
					"type": "function"
				},
				{
					"inputs": [
						{
							"internalType": "address",
							"name": "shopAddr",
							"type": "address"
						},
						{
							"internalType": "string",
							"name": "userMessage",
							"type": "string"
						},
						{
							"internalType": "string",
							"name": "id",
							"type": "string"
						},
						{
							"internalType": "int256",
							"name": "grade",
							"type": "int256"
						}
					],
					"name": "createReview",
					"outputs": [],
					"stateMutability": "nonpayable",
					"type": "function"
				},
				{
					"inputs": [
						{
							"internalType": "string",
							"name": "id",
							"type": "string"
						}
					],
					"name": "disLikeReview",
					"outputs": [],
					"stateMutability": "nonpayable",
					"type": "function"
				},
				{
					"inputs": [
						{
							"internalType": "address payable",
							"name": "shopAddr",
							"type": "address"
						}
					],
					"name": "doShopDebt",
					"outputs": [],
					"stateMutability": "nonpayable",
					"type": "function"
				},
				{
					"inputs": [
						{
							"internalType": "string",
							"name": "id",
							"type": "string"
						}
					],
					"name": "downRequestToByer",
					"outputs": [],
					"stateMutability": "nonpayable",
					"type": "function"
				},
				{
					"inputs": [],
					"name": "getAdminInfo",
					"outputs": [
						{
							"internalType": "string",
							"name": "login",
							"type": "string"
						},
						{
							"internalType": "string[]",
							"name": "userRequests",
							"type": "string[]"
						},
						{
							"internalType": "string[]",
							"name": "adminList",
							"type": "string[]"
						},
						{
							"internalType": "address[]",
							"name": "sellersAddr",
							"type": "address[]"
						}
					],
					"stateMutability": "view",
					"type": "function"
				},
				{
					"inputs": [],
					"name": "getBuyerInfo",
					"outputs": [
						{
							"internalType": "string",
							"name": "userLogin",
							"type": "string"
						},
						{
							"internalType": "string",
							"name": "fio",
							"type": "string"
						},
						{
							"internalType": "uint256",
							"name": "balance",
							"type": "uint256"
						},
						{
							"internalType": "string[]",
							"name": "reviews",
							"type": "string[]"
						}
					],
					"stateMutability": "view",
					"type": "function"
				},
				{
					"inputs": [
						{
							"internalType": "string",
							"name": "id",
							"type": "string"
						}
					],
					"name": "getRequestById",
					"outputs": [
						{
							"internalType": "address",
							"name": "userAddr",
							"type": "address"
						},
						{
							"internalType": "string",
							"name": "currentRole",
							"type": "string"
						},
						{
							"internalType": "string",
							"name": "desiredRole",
							"type": "string"
						}
					],
					"stateMutability": "view",
					"type": "function"
				},
				{
					"inputs": [
						{
							"internalType": "string",
							"name": "id",
							"type": "string"
						}
					],
					"name": "getReviewById",
					"outputs": [
						{
							"internalType": "address",
							"name": "autorAddr",
							"type": "address"
						},
						{
							"internalType": "address",
							"name": "shopAddr",
							"type": "address"
						},
						{
							"internalType": "string",
							"name": "reviewMessage",
							"type": "string"
						},
						{
							"internalType": "uint256",
							"name": "likeCount",
							"type": "uint256"
						},
						{
							"internalType": "uint256",
							"name": "disLikeCount",
							"type": "uint256"
						},
						{
							"internalType": "int256",
							"name": "grade",
							"type": "int256"
						}
					],
					"stateMutability": "view",
					"type": "function"
				},
				{
					"inputs": [],
					"name": "getSellerInfo",
					"outputs": [
						{
							"internalType": "string",
							"name": "sellerLogin",
							"type": "string"
						},
						{
							"internalType": "string",
							"name": "fio",
							"type": "string"
						},
						{
							"internalType": "string",
							"name": "city",
							"type": "string"
						},
						{
							"internalType": "string",
							"name": "shopNumber",
							"type": "string"
						},
						{
							"internalType": "string[]",
							"name": "reviews",
							"type": "string[]"
						}
					],
					"stateMutability": "view",
					"type": "function"
				},
				{
					"inputs": [
						{
							"internalType": "address",
							"name": "sellerAddr",
							"type": "address"
						}
					],
					"name": "getSellerInfoByAddr",
					"outputs": [
						{
							"internalType": "string",
							"name": "sellerLogin",
							"type": "string"
						},
						{
							"internalType": "string",
							"name": "fio",
							"type": "string"
						},
						{
							"internalType": "string",
							"name": "city",
							"type": "string"
						},
						{
							"internalType": "string",
							"name": "shopNumber",
							"type": "string"
						},
						{
							"internalType": "string[]",
							"name": "reviews",
							"type": "string[]"
						}
					],
					"stateMutability": "view",
					"type": "function"
				},
				{
					"inputs": [
						{
							"internalType": "string",
							"name": "id",
							"type": "string"
						}
					],
					"name": "likeReview",
					"outputs": [],
					"stateMutability": "nonpayable",
					"type": "function"
				},
				{
					"inputs": [
						{
							"internalType": "string",
							"name": "userLogin",
							"type": "string"
						}
					],
					"name": "login",
					"outputs": [
						{
							"internalType": "address",
							"name": "userAddress",
							"type": "address"
						},
						{
							"internalType": "string",
							"name": "status",
							"type": "string"
						}
					],
					"stateMutability": "view",
					"type": "function"
				},
				{
					"inputs": [
						{
							"internalType": "address",
							"name": "adminAddr",
							"type": "address"
						},
						{
							"internalType": "string",
							"name": "fio",
							"type": "string"
						},
						{
							"internalType": "string",
							"name": "userLogin",
							"type": "string"
						}
					],
					"name": "regAdmin",
					"outputs": [],
					"stateMutability": "nonpayable",
					"type": "function"
				},
				{
					"inputs": [
						{
							"internalType": "string",
							"name": "fio",
							"type": "string"
						},
						{
							"internalType": "string",
							"name": "userLogin",
							"type": "string"
						}
					],
					"name": "registerAdmin",
					"outputs": [],
					"stateMutability": "nonpayable",
					"type": "function"
				},
				{
					"inputs": [
						{
							"internalType": "string",
							"name": "bankLogin",
							"type": "string"
						},
						{
							"internalType": "address",
							"name": "bankAddr",
							"type": "address"
						}
					],
					"name": "registerBank",
					"outputs": [],
					"stateMutability": "nonpayable",
					"type": "function"
				},
				{
					"inputs": [
						{
							"internalType": "string",
							"name": "fio",
							"type": "string"
						},
						{
							"internalType": "string",
							"name": "userLogin",
							"type": "string"
						},
						{
							"internalType": "address",
							"name": "userAddr",
							"type": "address"
						}
					],
					"name": "registerBuyer",
					"outputs": [],
					"stateMutability": "nonpayable",
					"type": "function"
				},
				{
					"inputs": [
						{
							"internalType": "string",
							"name": "providerLogin",
							"type": "string"
						},
						{
							"internalType": "address",
							"name": "providerAddr",
							"type": "address"
						}
					],
					"name": "registerProvider",
					"outputs": [],
					"stateMutability": "nonpayable",
					"type": "function"
				},
				{
					"inputs": [
						{
							"internalType": "string",
							"name": "fio",
							"type": "string"
						},
						{
							"internalType": "string",
							"name": "userLogin",
							"type": "string"
						},
						{
							"internalType": "address",
							"name": "userAddress",
							"type": "address"
						},
						{
							"internalType": "address",
							"name": "shopAddr",
							"type": "address"
						}
					],
					"name": "registerSeller",
					"outputs": [],
					"stateMutability": "nonpayable",
					"type": "function"
				},
				{
					"inputs": [
						{
							"internalType": "address",
							"name": "shopAddr",
							"type": "address"
						},
						{
							"internalType": "string",
							"name": "number",
							"type": "string"
						},
						{
							"internalType": "string",
							"name": "city",
							"type": "string"
						},
						{
							"internalType": "string",
							"name": "shopLogin",
							"type": "string"
						}
					],
					"name": "registerShop",
					"outputs": [],
					"stateMutability": "nonpayable",
					"type": "function"
				},
				{
					"inputs": [
						{
							"internalType": "string",
							"name": "id",
							"type": "string"
						}
					],
					"name": "requestToSeller",
					"outputs": [],
					"stateMutability": "nonpayable",
					"type": "function"
				}
			],
			"devdoc": {
				"kind": "dev",
				"methods": {},
				"version": 1
			},
			"evm": {
				"assembly": "    /* \"contracts/Shops.sol\":269:8945  contract ShopsSystem is AuthService{... */\n  mstore(0x40, 0x80)\n    /* \"contracts/Shops.sol\":996:1044  constructor(){... */\n  callvalue\n  dup1\n  iszero\n  tag_1\n  jumpi\n  0x00\n  dup1\n  revert\ntag_1:\n  pop\n    /* \"contracts/AuthService.sol\":576:599  userStatus[0] = \"buyer\" */\n  mload(0x40)\n  dup1\n  0x40\n  add\n  0x40\n  mstore\n  dup1\n  0x05\n  dup2\n  mstore\n  0x20\n  add\n  0x6275796572000000000000000000000000000000000000000000000000000000\n  dup2\n  mstore\n  pop\n    /* \"contracts/AuthService.sol\":576:586  userStatus */\n  0x00\n    /* \"contracts/AuthService.sol\":576:589  userStatus[0] */\n  dup1\n    /* \"contracts/AuthService.sol\":587:588  0 */\n  dup1\n    /* \"contracts/AuthService.sol\":576:589  userStatus[0] */\n  dup2\n  mstore\n  0x20\n  add\n  swap1\n  dup2\n  mstore\n  0x20\n  add\n  0x00\n  keccak256\n    /* \"contracts/AuthService.sol\":576:599  userStatus[0] = \"buyer\" */\n  swap1\n  dup1\n  mload\n  swap1\n  0x20\n  add\n  swap1\n  tag_5\n  swap3\n  swap2\n  swap1\n  tag_6\n  jump\t// in\ntag_5:\n  pop\n    /* \"contracts/AuthService.sol\":609:633  userStatus[1] = \"seller\" */\n  mload(0x40)\n  dup1\n  0x40\n  add\n  0x40\n  mstore\n  dup1\n  0x06\n  dup2\n  mstore\n  0x20\n  add\n  0x73656c6c65720000000000000000000000000000000000000000000000000000\n  dup2\n  mstore\n  pop\n    /* \"contracts/AuthService.sol\":609:619  userStatus */\n  0x00\n    /* \"contracts/AuthService.sol\":609:622  userStatus[1] */\n  dup1\n    /* \"contracts/AuthService.sol\":620:621  1 */\n  0x01\n    /* \"contracts/AuthService.sol\":609:622  userStatus[1] */\n  dup2\n  mstore\n  0x20\n  add\n  swap1\n  dup2\n  mstore\n  0x20\n  add\n  0x00\n  keccak256\n    /* \"contracts/AuthService.sol\":609:633  userStatus[1] = \"seller\" */\n  swap1\n  dup1\n  mload\n  swap1\n  0x20\n  add\n  swap1\n  tag_7\n  swap3\n  swap2\n  swap1\n  tag_6\n  jump\t// in\ntag_7:\n  pop\n    /* \"contracts/AuthService.sol\":643:665  userStatus[2] = \"shop\" */\n  mload(0x40)\n  dup1\n  0x40\n  add\n  0x40\n  mstore\n  dup1\n  0x04\n  dup2\n  mstore\n  0x20\n  add\n  0x73686f7000000000000000000000000000000000000000000000000000000000\n  dup2\n  mstore\n  pop\n    /* \"contracts/AuthService.sol\":643:653  userStatus */\n  0x00\n    /* \"contracts/AuthService.sol\":643:656  userStatus[2] */\n  dup1\n    /* \"contracts/AuthService.sol\":654:655  2 */\n  0x02\n    /* \"contracts/AuthService.sol\":643:656  userStatus[2] */\n  dup2\n  mstore\n  0x20\n  add\n  swap1\n  dup2\n  mstore\n  0x20\n  add\n  0x00\n  keccak256\n    /* \"contracts/AuthService.sol\":643:665  userStatus[2] = \"shop\" */\n  swap1\n  dup1\n  mload\n  swap1\n  0x20\n  add\n  swap1\n  tag_8\n  swap3\n  swap2\n  swap1\n  tag_6\n  jump\t// in\ntag_8:\n  pop\n    /* \"contracts/AuthService.sol\":675:698  userStatus[3] = \"admin\" */\n  mload(0x40)\n  dup1\n  0x40\n  add\n  0x40\n  mstore\n  dup1\n  0x05\n  dup2\n  mstore\n  0x20\n  add\n  0x61646d696e000000000000000000000000000000000000000000000000000000\n  dup2\n  mstore\n  pop\n    /* \"contracts/AuthService.sol\":675:685  userStatus */\n  0x00\n    /* \"contracts/AuthService.sol\":675:688  userStatus[3] */\n  dup1\n    /* \"contracts/AuthService.sol\":686:687  3 */\n  0x03\n    /* \"contracts/AuthService.sol\":675:688  userStatus[3] */\n  dup2\n  mstore\n  0x20\n  add\n  swap1\n  dup2\n  mstore\n  0x20\n  add\n  0x00\n  keccak256\n    /* \"contracts/AuthService.sol\":675:698  userStatus[3] = \"admin\" */\n  swap1\n  dup1\n  mload\n  swap1\n  0x20\n  add\n  swap1\n  tag_9\n  swap3\n  swap2\n  swap1\n  tag_6\n  jump\t// in\ntag_9:\n  pop\n    /* \"contracts/AuthService.sol\":708:734  userStatus[4] = \"provider\" */\n  mload(0x40)\n  dup1\n  0x40\n  add\n  0x40\n  mstore\n  dup1\n  0x08\n  dup2\n  mstore\n  0x20\n  add\n  0x70726f7669646572000000000000000000000000000000000000000000000000\n  dup2\n  mstore\n  pop\n    /* \"contracts/AuthService.sol\":708:718  userStatus */\n  0x00\n    /* \"contracts/AuthService.sol\":708:721  userStatus[4] */\n  dup1\n    /* \"contracts/AuthService.sol\":719:720  4 */\n  0x04\n    /* \"contracts/AuthService.sol\":708:721  userStatus[4] */\n  dup2\n  mstore\n  0x20\n  add\n  swap1\n  dup2\n  mstore\n  0x20\n  add\n  0x00\n  keccak256\n    /* \"contracts/AuthService.sol\":708:734  userStatus[4] = \"provider\" */\n  swap1\n  dup1\n  mload\n  swap1\n  0x20\n  add\n  swap1\n  tag_10\n  swap3\n  swap2\n  swap1\n  tag_6\n  jump\t// in\ntag_10:\n  pop\n    /* \"contracts/AuthService.sol\":744:766  userStatus[5] = \"bank\" */\n  mload(0x40)\n  dup1\n  0x40\n  add\n  0x40\n  mstore\n  dup1\n  0x04\n  dup2\n  mstore\n  0x20\n  add\n  0x62616e6b00000000000000000000000000000000000000000000000000000000\n  dup2\n  mstore\n  pop\n    /* \"contracts/AuthService.sol\":744:754  userStatus */\n  0x00\n    /* \"contracts/AuthService.sol\":744:757  userStatus[5] */\n  dup1\n    /* \"contracts/AuthService.sol\":755:756  5 */\n  0x05\n    /* \"contracts/AuthService.sol\":744:757  userStatus[5] */\n  dup2\n  mstore\n  0x20\n  add\n  swap1\n  dup2\n  mstore\n  0x20\n  add\n  0x00\n  keccak256\n    /* \"contracts/AuthService.sol\":744:766  userStatus[5] = \"bank\" */\n  swap1\n  dup1\n  mload\n  swap1\n  0x20\n  add\n  swap1\n  tag_11\n  swap3\n  swap2\n  swap1\n  tag_6\n  jump\t// in\ntag_11:\n  pop\n    /* \"contracts/Shops.sol\":1027:1037  msg.sender */\n  caller\n    /* \"contracts/Shops.sol\":1019:1024  admin */\n  0x05\n  0x00\n    /* \"contracts/Shops.sol\":1019:1037  admin = msg.sender */\n  0x0100\n  exp\n  dup2\n  sload\n  dup2\n  0xffffffffffffffffffffffffffffffffffffffff\n  mul\n  not\n  and\n  swap1\n  dup4\n  0xffffffffffffffffffffffffffffffffffffffff\n  and\n  mul\n  or\n  swap1\n  sstore\n  pop\n    /* \"contracts/Shops.sol\":269:8945  contract ShopsSystem is AuthService{... */\n  jump(tag_13)\ntag_6:\n  dup3\n  dup1\n  sload\n  tag_14\n  swap1\n  tag_15\n  jump\t// in\ntag_14:\n  swap1\n  0x00\n  mstore\n  keccak256(0x00, 0x20)\n  swap1\n  0x1f\n  add\n  0x20\n  swap1\n  div\n  dup2\n  add\n  swap3\n  dup3\n  tag_17\n  jumpi\n  0x00\n  dup6\n  sstore\n  jump(tag_16)\ntag_17:\n  dup3\n  0x1f\n  lt\n  tag_18\n  jumpi\n  dup1\n  mload\n  not(0xff)\n  and\n  dup4\n  dup1\n  add\n  or\n  dup6\n  sstore\n  jump(tag_16)\ntag_18:\n  dup3\n  dup1\n  add\n  0x01\n  add\n  dup6\n  sstore\n  dup3\n  iszero\n  tag_16\n  jumpi\n  swap2\n  dup3\n  add\ntag_19:\n  dup3\n  dup2\n  gt\n  iszero\n  tag_20\n  jumpi\n  dup3\n  mload\n  dup3\n  sstore\n  swap2\n  0x20\n  add\n  swap2\n  swap1\n  0x01\n  add\n  swap1\n  jump(tag_19)\ntag_20:\ntag_16:\n  pop\n  swap1\n  pop\n  tag_21\n  swap2\n  swap1\n  tag_22\n  jump\t// in\ntag_21:\n  pop\n  swap1\n  jump\t// out\ntag_22:\ntag_23:\n  dup1\n  dup3\n  gt\n  iszero\n  tag_24\n  jumpi\n  0x00\n  dup2\n  0x00\n  swap1\n  sstore\n  pop\n  0x01\n  add\n  jump(tag_23)\ntag_24:\n  pop\n  swap1\n  jump\t// out\n    /* \"#utility.yul\":7:327   */\ntag_15:\n    /* \"#utility.yul\":51:57   */\n  0x00\n    /* \"#utility.yul\":88:89   */\n  0x02\n    /* \"#utility.yul\":82:86   */\n  dup3\n    /* \"#utility.yul\":78:90   */\n  div\n    /* \"#utility.yul\":68:90   */\n  swap1\n  pop\n    /* \"#utility.yul\":135:136   */\n  0x01\n    /* \"#utility.yul\":129:133   */\n  dup3\n    /* \"#utility.yul\":125:137   */\n  and\n    /* \"#utility.yul\":156:174   */\n  dup1\n    /* \"#utility.yul\":146:227   */\n  tag_27\n  jumpi\n    /* \"#utility.yul\":212:216   */\n  0x7f\n    /* \"#utility.yul\":204:210   */\n  dup3\n    /* \"#utility.yul\":200:217   */\n  and\n    /* \"#utility.yul\":190:217   */\n  swap2\n  pop\n    /* \"#utility.yul\":146:227   */\ntag_27:\n    /* \"#utility.yul\":274:276   */\n  0x20\n    /* \"#utility.yul\":266:272   */\n  dup3\n    /* \"#utility.yul\":263:277   */\n  lt\n    /* \"#utility.yul\":243:261   */\n  dup2\n    /* \"#utility.yul\":240:278   */\n  eq\n    /* \"#utility.yul\":237:321   */\n  iszero\n  tag_28\n  jumpi\n    /* \"#utility.yul\":293:311   */\n  tag_29\n  tag_30\n  jump\t// in\ntag_29:\n    /* \"#utility.yul\":237:321   */\ntag_28:\n    /* \"#utility.yul\":58:327   */\n  pop\n    /* \"#utility.yul\":7:327   */\n  swap2\n  swap1\n  pop\n  jump\t// out\n    /* \"#utility.yul\":333:513   */\ntag_30:\n    /* \"#utility.yul\":381:458   */\n  0x4e487b7100000000000000000000000000000000000000000000000000000000\n    /* \"#utility.yul\":378:379   */\n  0x00\n    /* \"#utility.yul\":371:459   */\n  mstore\n    /* \"#utility.yul\":478:482   */\n  0x22\n    /* \"#utility.yul\":475:476   */\n  0x04\n    /* \"#utility.yul\":468:483   */\n  mstore\n    /* \"#utility.yul\":502:506   */\n  0x24\n    /* \"#utility.yul\":499:500   */\n  0x00\n    /* \"#utility.yul\":492:507   */\n  revert\n    /* \"contracts/Shops.sol\":269:8945  contract ShopsSystem is AuthService{... */\ntag_13:\n  dataSize(sub_0)\n  dup1\n  dataOffset(sub_0)\n  0x00\n  codecopy\n  0x00\n  return\nstop\n\nsub_0: assembly {\n        /* \"contracts/Shops.sol\":269:8945  contract ShopsSystem is AuthService{... */\n      mstore(0x40, 0x80)\n      callvalue\n      dup1\n      iszero\n      tag_1\n      jumpi\n      0x00\n      dup1\n      revert\n    tag_1:\n      pop\n      jumpi(tag_2, lt(calldatasize, 0x04))\n      shr(0xe0, calldataload(0x00))\n      dup1\n      0x83db0f6d\n      gt\n      tag_24\n      jumpi\n      dup1\n      0xac6fa7c3\n      gt\n      tag_25\n      jumpi\n      dup1\n      0xac6fa7c3\n      eq\n      tag_18\n      jumpi\n      dup1\n      0xb038316c\n      eq\n      tag_19\n      jumpi\n      dup1\n      0xbce62a74\n      eq\n      tag_20\n      jumpi\n      dup1\n      0xc3d5fd39\n      eq\n      tag_21\n      jumpi\n      dup1\n      0xdffc8b06\n      eq\n      tag_22\n      jumpi\n      dup1\n      0xf8f98b79\n      eq\n      tag_23\n      jumpi\n      jump(tag_2)\n    tag_25:\n      dup1\n      0x83db0f6d\n      eq\n      tag_13\n      jumpi\n      dup1\n      0x8403f848\n      eq\n      tag_14\n      jumpi\n      dup1\n      0x99b958ee\n      eq\n      tag_15\n      jumpi\n      dup1\n      0x9d344d10\n      eq\n      tag_16\n      jumpi\n      dup1\n      0xa59d105f\n      eq\n      tag_17\n      jumpi\n      jump(tag_2)\n    tag_24:\n      dup1\n      0x3a7d280c\n      gt\n      tag_26\n      jumpi\n      dup1\n      0x3a7d280c\n      eq\n      tag_8\n      jumpi\n      dup1\n      0x54504c12\n      eq\n      tag_9\n      jumpi\n      dup1\n      0x7558b2f8\n      eq\n      tag_10\n      jumpi\n      dup1\n      0x7b3c7488\n      eq\n      tag_11\n      jumpi\n      dup1\n      0x7ccb2bd8\n      eq\n      tag_12\n      jumpi\n      jump(tag_2)\n    tag_26:\n      dup1\n      0x08e74858\n      eq\n      tag_3\n      jumpi\n      dup1\n      0x2059b7ad\n      eq\n      tag_4\n      jumpi\n      dup1\n      0x2156a781\n      eq\n      tag_5\n      jumpi\n      dup1\n      0x2d6abf59\n      eq\n      tag_6\n      jumpi\n      dup1\n      0x2f0185c4\n      eq\n      tag_7\n      jumpi\n    tag_2:\n      0x00\n      dup1\n      revert\n        /* \"contracts/Shops.sol\":5478:6091  function getSellerInfoByAddr(address sellerAddr) public view isUserStatus(UserRoles.admin)returns(... */\n    tag_3:\n      tag_27\n      0x04\n      dup1\n      calldatasize\n      sub\n      dup2\n      add\n      swap1\n      tag_28\n      swap2\n      swap1\n      tag_29\n      jump\t// in\n    tag_28:\n      tag_30\n      jump\t// in\n    tag_27:\n      mload(0x40)\n      tag_31\n      swap6\n      swap5\n      swap4\n      swap3\n      swap2\n      swap1\n      tag_32\n      jump\t// in\n    tag_31:\n      mload(0x40)\n      dup1\n      swap2\n      sub\n      swap1\n      return\n        /* \"contracts/Shops.sol\":8396:8554  function checkRequest(string memory id,bool isUpper) public isUserStatus(UserRoles.admin) {... */\n    tag_4:\n      tag_33\n      0x04\n      dup1\n      calldatasize\n      sub\n      dup2\n      add\n      swap1\n      tag_34\n      swap2\n      swap1\n      tag_35\n      jump\t// in\n    tag_34:\n      tag_36\n      jump\t// in\n    tag_33:\n      stop\n        /* \"contracts/Shops.sol\":2663:2850  function registerBank(string memory bankLogin,address bankAddr) public isAdmin {... */\n    tag_5:\n      tag_37\n      0x04\n      dup1\n      calldatasize\n      sub\n      dup2\n      add\n      swap1\n      tag_38\n      swap2\n      swap1\n      tag_39\n      jump\t// in\n    tag_38:\n      tag_40\n      jump\t// in\n    tag_37:\n      stop\n        /* \"contracts/Shops.sol\":6097:6551  function createReview(... */\n    tag_6:\n      tag_41\n      0x04\n      dup1\n      calldatasize\n      sub\n      dup2\n      add\n      swap1\n      tag_42\n      swap2\n      swap1\n      tag_43\n      jump\t// in\n    tag_42:\n      tag_44\n      jump\t// in\n    tag_41:\n      stop\n        /* \"contracts/Shops.sol\":7041:7527  function getReviewById(string memory id) public view returns(... */\n    tag_7:\n      tag_45\n      0x04\n      dup1\n      calldatasize\n      sub\n      dup2\n      add\n      swap1\n      tag_46\n      swap2\n      swap1\n      tag_47\n      jump\t// in\n    tag_46:\n      tag_48\n      jump\t// in\n    tag_45:\n      mload(0x40)\n      tag_49\n      swap7\n      swap6\n      swap5\n      swap4\n      swap3\n      swap2\n      swap1\n      tag_50\n      jump\t// in\n    tag_49:\n      mload(0x40)\n      dup1\n      swap2\n      sub\n      swap1\n      return\n        /* \"contracts/AuthService.sol\":2256:2556  function login(string memory userLogin) public view isRegistered(userLogin) returns(address userAddress,string memory status){... */\n    tag_8:\n      tag_51\n      0x04\n      dup1\n      calldatasize\n      sub\n      dup2\n      add\n      swap1\n      tag_52\n      swap2\n      swap1\n      tag_47\n      jump\t// in\n    tag_52:\n      tag_53\n      jump\t// in\n    tag_51:\n      mload(0x40)\n      tag_54\n      swap3\n      swap2\n      swap1\n      tag_55\n      jump\t// in\n    tag_54:\n      mload(0x40)\n      dup1\n      swap2\n      sub\n      swap1\n      return\n        /* \"contracts/Shops.sol\":3859:4450  function getSellerInfo() public view isUserStatus(UserRoles.seller) returns(... */\n    tag_9:\n      tag_56\n      tag_57\n      jump\t// in\n    tag_56:\n      mload(0x40)\n      tag_58\n      swap6\n      swap5\n      swap4\n      swap3\n      swap2\n      swap1\n      tag_32\n      jump\t// in\n    tag_58:\n      mload(0x40)\n      dup1\n      swap2\n      sub\n      swap1\n      return\n        /* \"contracts/Shops.sol\":1893:2244  function registerShop(address shopAddr,string memory number,string memory city,string memory shopLogin) public isUserStatus(UserRoles.admin){... */\n    tag_10:\n      tag_59\n      0x04\n      dup1\n      calldatasize\n      sub\n      dup2\n      add\n      swap1\n      tag_60\n      swap2\n      swap1\n      tag_61\n      jump\t// in\n    tag_60:\n      tag_62\n      jump\t// in\n    tag_59:\n      stop\n        /* \"contracts/Shops.sol\":6557:6790  function likeReview(string memory id) public isUser {... */\n    tag_11:\n      tag_63\n      0x04\n      dup1\n      calldatasize\n      sub\n      dup2\n      add\n      swap1\n      tag_64\n      swap2\n      swap1\n      tag_47\n      jump\t// in\n    tag_64:\n      tag_65\n      jump\t// in\n    tag_63:\n      stop\n        /* \"contracts/Shops.sol\":2344:2588  function registerProvider(string memory providerLogin,address providerAddr) public isAdmin {... */\n    tag_12:\n      tag_66\n      0x04\n      dup1\n      calldatasize\n      sub\n      dup2\n      add\n      swap1\n      tag_67\n      swap2\n      swap1\n      tag_39\n      jump\t// in\n    tag_67:\n      tag_68\n      jump\t// in\n    tag_66:\n      stop\n        /* \"contracts/Shops.sol\":3580:3783  function doShopDebt(address payable shopAddr) public isUserStatus(UserRoles.bank) {... */\n    tag_13:\n      tag_69\n      0x04\n      dup1\n      calldatasize\n      sub\n      dup2\n      add\n      swap1\n      tag_70\n      swap2\n      swap1\n      tag_71\n      jump\t// in\n    tag_70:\n      tag_72\n      jump\t// in\n    tag_69:\n      stop\n        /* \"contracts/Shops.sol\":2913:3219  function registerSeller(string memory fio,string memory userLogin,address userAddress,address shopAddr) public {... */\n    tag_14:\n      tag_73\n      0x04\n      dup1\n      calldatasize\n      sub\n      dup2\n      add\n      swap1\n      tag_74\n      swap2\n      swap1\n      tag_75\n      jump\t// in\n    tag_74:\n      tag_76\n      jump\t// in\n    tag_73:\n      stop\n        /* \"contracts/Shops.sol\":4549:4913  function getBuyerInfo() public view isUser returns(... */\n    tag_15:\n      tag_77\n      tag_78\n      jump\t// in\n    tag_77:\n      mload(0x40)\n      tag_79\n      swap5\n      swap4\n      swap3\n      swap2\n      swap1\n      tag_80\n      jump\t// in\n    tag_79:\n      mload(0x40)\n      dup1\n      swap2\n      sub\n      swap1\n      return\n        /* \"contracts/Shops.sol\":3286:3485  function registerBuyer(string memory fio,string memory userLogin,address userAddr) public{... */\n    tag_16:\n      tag_81\n      0x04\n      dup1\n      calldatasize\n      sub\n      dup2\n      add\n      swap1\n      tag_82\n      swap2\n      swap1\n      tag_83\n      jump\t// in\n    tag_82:\n      tag_84\n      jump\t// in\n    tag_81:\n      stop\n        /* \"contracts/Shops.sol\":1574:1832  function regAdmin(address adminAddr,string memory fio,string memory userLogin) public isUserStatus(UserRoles.admin){... */\n    tag_17:\n      tag_85\n      0x04\n      dup1\n      calldatasize\n      sub\n      dup2\n      add\n      swap1\n      tag_86\n      swap2\n      swap1\n      tag_87\n      jump\t// in\n    tag_86:\n      tag_88\n      jump\t// in\n    tag_85:\n      stop\n        /* \"contracts/Shops.sol\":7533:7957  function requestToSeller(string memory id) public isUserStatus(UserRoles.buyer){... */\n    tag_18:\n      tag_89\n      0x04\n      dup1\n      calldatasize\n      sub\n      dup2\n      add\n      swap1\n      tag_90\n      swap2\n      swap1\n      tag_47\n      jump\t// in\n    tag_90:\n      tag_91\n      jump\t// in\n    tag_89:\n      stop\n        /* \"contracts/Shops.sol\":7963:8390  function downRequestToByer(string memory id) public isUserStatus(UserRoles.seller){... */\n    tag_19:\n      tag_92\n      0x04\n      dup1\n      calldatasize\n      sub\n      dup2\n      add\n      swap1\n      tag_93\n      swap2\n      swap1\n      tag_47\n      jump\t// in\n    tag_93:\n      tag_94\n      jump\t// in\n    tag_92:\n      stop\n        /* \"contracts/Shops.sol\":6796:7035  function disLikeReview(string memory id) public isUser {... */\n    tag_20:\n      tag_95\n      0x04\n      dup1\n      calldatasize\n      sub\n      dup2\n      add\n      swap1\n      tag_96\n      swap2\n      swap1\n      tag_47\n      jump\t// in\n    tag_96:\n      tag_97\n      jump\t// in\n    tag_95:\n      stop\n        /* \"contracts/Shops.sol\":4983:5381  function getAdminInfo() public view isUserStatus(UserRoles.admin) returns(... */\n    tag_21:\n      tag_98\n      tag_99\n      jump\t// in\n    tag_98:\n      mload(0x40)\n      tag_100\n      swap5\n      swap4\n      swap3\n      swap2\n      swap1\n      tag_101\n      jump\t// in\n    tag_100:\n      mload(0x40)\n      dup1\n      swap2\n      sub\n      swap1\n      return\n        /* \"contracts/Shops.sol\":8560:8881  function getRequestById(string memory id) public view returns(... */\n    tag_22:\n      tag_102\n      0x04\n      dup1\n      calldatasize\n      sub\n      dup2\n      add\n      swap1\n      tag_103\n      swap2\n      swap1\n      tag_47\n      jump\t// in\n    tag_103:\n      tag_104\n      jump\t// in\n    tag_102:\n      mload(0x40)\n      tag_105\n      swap4\n      swap3\n      swap2\n      swap1\n      tag_106\n      jump\t// in\n    tag_105:\n      mload(0x40)\n      dup1\n      swap2\n      sub\n      swap1\n      return\n        /* \"contracts/Shops.sol\":1258:1483  function registerAdmin(string memory fio,string memory userLogin) isAdmin public {... */\n    tag_23:\n      tag_107\n      0x04\n      dup1\n      calldatasize\n      sub\n      dup2\n      add\n      swap1\n      tag_108\n      swap2\n      swap1\n      tag_109\n      jump\t// in\n    tag_108:\n      tag_110\n      jump\t// in\n    tag_107:\n      stop\n        /* \"contracts/Shops.sol\":5478:6091  function getSellerInfoByAddr(address sellerAddr) public view isUserStatus(UserRoles.admin)returns(... */\n    tag_30:\n        /* \"contracts/Shops.sol\":5585:5610  string memory sellerLogin */\n      0x60\n        /* \"contracts/Shops.sol\":5620:5637  string memory fio */\n      dup1\n        /* \"contracts/Shops.sol\":5647:5665  string memory city */\n      0x60\n        /* \"contracts/Shops.sol\":5675:5699  string memory shopNumber */\n      dup1\n        /* \"contracts/Shops.sol\":5709:5732  string[] memory reviews */\n      0x60\n        /* \"contracts/Shops.sol\":5552:5567  UserRoles.admin */\n      0x03\n        /* \"contracts/AuthService.sol\":1617:1622  users */\n      0x02\n        /* \"contracts/AuthService.sol\":1617:1634  users[msg.sender] */\n      0x00\n        /* \"contracts/AuthService.sol\":1623:1633  msg.sender */\n      caller\n        /* \"contracts/AuthService.sol\":1617:1634  users[msg.sender] */\n      0xffffffffffffffffffffffffffffffffffffffff\n      and\n      0xffffffffffffffffffffffffffffffffffffffff\n      and\n      dup2\n      mstore\n      0x20\n      add\n      swap1\n      dup2\n      mstore\n      0x20\n      add\n      0x00\n      keccak256\n        /* \"contracts/AuthService.sol\":1617:1641  users[msg.sender].status */\n      0x00\n      add\n      sload\n        /* \"contracts/AuthService.sol\":1606:1612  status */\n      dup2\n        /* \"contracts/AuthService.sol\":1601:1613  uint(status) */\n      0x05\n      dup2\n      gt\n      iszero\n      tag_112\n      jumpi\n      tag_113\n      tag_114\n      jump\t// in\n    tag_113:\n    tag_112:\n        /* \"contracts/AuthService.sol\":1601:1641  uint(status) == users[msg.sender].status */\n      eq\n        /* \"contracts/AuthService.sol\":1593:1654  require(uint(status) == users[msg.sender].status,\"Forbidden\") */\n      tag_115\n      jumpi\n      mload(0x40)\n      0x08c379a000000000000000000000000000000000000000000000000000000000\n      dup2\n      mstore\n      0x04\n      add\n      tag_116\n      swap1\n      tag_117\n      jump\t// in\n    tag_116:\n      mload(0x40)\n      dup1\n      swap2\n      sub\n      swap1\n      revert\n    tag_115:\n        /* \"contracts/Shops.sol\":5748:5768  User memory sellUser */\n      0x00\n        /* \"contracts/Shops.sol\":5771:5776  users */\n      0x02\n        /* \"contracts/Shops.sol\":5771:5788  users[sellerAddr] */\n      0x00\n        /* \"contracts/Shops.sol\":5777:5787  sellerAddr */\n      dup10\n        /* \"contracts/Shops.sol\":5771:5788  users[sellerAddr] */\n      0xffffffffffffffffffffffffffffffffffffffff\n      and\n      0xffffffffffffffffffffffffffffffffffffffff\n      and\n      dup2\n      mstore\n      0x20\n      add\n      swap1\n      dup2\n      mstore\n      0x20\n      add\n      0x00\n      keccak256\n        /* \"contracts/Shops.sol\":5748:5788  User memory sellUser = users[sellerAddr] */\n      mload(0x40)\n      dup1\n      0x80\n      add\n      0x40\n      mstore\n      swap1\n      dup2\n      0x00\n      dup3\n      add\n      sload\n      dup2\n      mstore\n      0x20\n      add\n      0x01\n      dup3\n      add\n      dup1\n      sload\n      tag_119\n      swap1\n      tag_120\n      jump\t// in\n    tag_119:\n      dup1\n      0x1f\n      add\n      0x20\n      dup1\n      swap2\n      div\n      mul\n      0x20\n      add\n      mload(0x40)\n      swap1\n      dup2\n      add\n      0x40\n      mstore\n      dup1\n      swap3\n      swap2\n      swap1\n      dup2\n      dup2\n      mstore\n      0x20\n      add\n      dup3\n      dup1\n      sload\n      tag_121\n      swap1\n      tag_120\n      jump\t// in\n    tag_121:\n      dup1\n      iszero\n      tag_122\n      jumpi\n      dup1\n      0x1f\n      lt\n      tag_123\n      jumpi\n      0x0100\n      dup1\n      dup4\n      sload\n      div\n      mul\n      dup4\n      mstore\n      swap2\n      0x20\n      add\n      swap2\n      jump(tag_122)\n    tag_123:\n      dup3\n      add\n      swap2\n      swap1\n      0x00\n      mstore\n      keccak256(0x00, 0x20)\n      swap1\n    tag_124:\n      dup2\n      sload\n      dup2\n      mstore\n      swap1\n      0x01\n      add\n      swap1\n      0x20\n      add\n      dup1\n      dup4\n      gt\n      tag_124\n      jumpi\n      dup3\n      swap1\n      sub\n      0x1f\n      and\n      dup3\n      add\n      swap2\n    tag_122:\n      pop\n      pop\n      pop\n      pop\n      pop\n      dup2\n      mstore\n      0x20\n      add\n      0x02\n      dup3\n      add\n      dup1\n      sload\n      tag_125\n      swap1\n      tag_120\n      jump\t// in\n    tag_125:\n      dup1\n      0x1f\n      add\n      0x20\n      dup1\n      swap2\n      div\n      mul\n      0x20\n      add\n      mload(0x40)\n      swap1\n      dup2\n      add\n      0x40\n      mstore\n      dup1\n      swap3\n      swap2\n      swap1\n      dup2\n      dup2\n      mstore\n      0x20\n      add\n      dup3\n      dup1\n      sload\n      tag_126\n      swap1\n      tag_120\n      jump\t// in\n    tag_126:\n      dup1\n      iszero\n      tag_127\n      jumpi\n      dup1\n      0x1f\n      lt\n      tag_128\n      jumpi\n      0x0100\n      dup1\n      dup4\n      sload\n      div\n      mul\n      dup4\n      mstore\n      swap2\n      0x20\n      add\n      swap2\n      jump(tag_127)\n    tag_128:\n      dup3\n      add\n      swap2\n      swap1\n      0x00\n      mstore\n      keccak256(0x00, 0x20)\n      swap1\n    tag_129:\n      dup2\n      sload\n      dup2\n      mstore\n      swap1\n      0x01\n      add\n      swap1\n      0x20\n      add\n      dup1\n      dup4\n      gt\n      tag_129\n      jumpi\n      dup3\n      swap1\n      sub\n      0x1f\n      and\n      dup3\n      add\n      swap2\n    tag_127:\n      pop\n      pop\n      pop\n      pop\n      pop\n      dup2\n      mstore\n      0x20\n      add\n      0x03\n      dup3\n      add\n      dup1\n      sload\n      dup1\n      0x20\n      mul\n      0x20\n      add\n      mload(0x40)\n      swap1\n      dup2\n      add\n      0x40\n      mstore\n      dup1\n      swap3\n      swap2\n      swap1\n      dup2\n      dup2\n      mstore\n      0x20\n      add\n      0x00\n      swap1\n    tag_130:\n      dup3\n      dup3\n      lt\n      iszero\n      tag_131\n      jumpi\n      dup4\n      dup3\n      swap1\n      0x00\n      mstore\n      keccak256(0x00, 0x20)\n      add\n      dup1\n      sload\n      tag_133\n      swap1\n      tag_120\n      jump\t// in\n    tag_133:\n      dup1\n      0x1f\n      add\n      0x20\n      dup1\n      swap2\n      div\n      mul\n      0x20\n      add\n      mload(0x40)\n      swap1\n      dup2\n      add\n      0x40\n      mstore\n      dup1\n      swap3\n      swap2\n      swap1\n      dup2\n      dup2\n      mstore\n      0x20\n      add\n      dup3\n      dup1\n      sload\n      tag_134\n      swap1\n      tag_120\n      jump\t// in\n    tag_134:\n      dup1\n      iszero\n      tag_135\n      jumpi\n      dup1\n      0x1f\n      lt\n      tag_136\n      jumpi\n      0x0100\n      dup1\n      dup4\n      sload\n      div\n      mul\n      dup4\n      mstore\n      swap2\n      0x20\n      add\n      swap2\n      jump(tag_135)\n    tag_136:\n      dup3\n      add\n      swap2\n      swap1\n      0x00\n      mstore\n      keccak256(0x00, 0x20)\n      swap1\n    tag_137:\n      dup2\n      sload\n      dup2\n      mstore\n      swap1\n      0x01\n      add\n      swap1\n      0x20\n      add\n      dup1\n      dup4\n      gt\n      tag_137\n      jumpi\n      dup3\n      swap1\n      sub\n      0x1f\n      and\n      dup3\n      add\n      swap2\n    tag_135:\n      pop\n      pop\n      pop\n      pop\n      pop\n      dup2\n      mstore\n      0x20\n      add\n      swap1\n      0x01\n      add\n      swap1\n      jump(tag_130)\n    tag_131:\n      pop\n      pop\n      pop\n      pop\n      dup2\n      mstore\n      pop\n      pop\n      swap1\n      pop\n        /* \"contracts/Shops.sol\":5798:5818  address sellShopAddr */\n      0x00\n        /* \"contracts/Shops.sol\":5821:5833  salesmanShop */\n      0x0c\n        /* \"contracts/Shops.sol\":5821:5845  salesmanShop[sellerAddr] */\n      0x00\n        /* \"contracts/Shops.sol\":5834:5844  sellerAddr */\n      dup11\n        /* \"contracts/Shops.sol\":5821:5845  salesmanShop[sellerAddr] */\n      0xffffffffffffffffffffffffffffffffffffffff\n      and\n      0xffffffffffffffffffffffffffffffffffffffff\n      and\n      dup2\n      mstore\n      0x20\n      add\n      swap1\n      dup2\n      mstore\n      0x20\n      add\n      0x00\n      keccak256\n      0x00\n      swap1\n      sload\n      swap1\n      0x0100\n      exp\n      swap1\n      div\n      0xffffffffffffffffffffffffffffffffffffffff\n      and\n        /* \"contracts/Shops.sol\":5798:5845  address sellShopAddr = salesmanShop[sellerAddr] */\n      swap1\n      pop\n        /* \"contracts/Shops.sol\":5855:5875  Shop memory sellShop */\n      0x00\n        /* \"contracts/Shops.sol\":5878:5887  ShopsList */\n      0x0b\n        /* \"contracts/Shops.sol\":5878:5901  ShopsList[sellShopAddr] */\n      0x00\n        /* \"contracts/Shops.sol\":5888:5900  sellShopAddr */\n      dup4\n        /* \"contracts/Shops.sol\":5878:5901  ShopsList[sellShopAddr] */\n      0xffffffffffffffffffffffffffffffffffffffff\n      and\n      0xffffffffffffffffffffffffffffffffffffffff\n      and\n      dup2\n      mstore\n      0x20\n      add\n      swap1\n      dup2\n      mstore\n      0x20\n      add\n      0x00\n      keccak256\n        /* \"contracts/Shops.sol\":5855:5901  Shop memory sellShop = ShopsList[sellShopAddr] */\n      mload(0x40)\n      dup1\n      0x60\n      add\n      0x40\n      mstore\n      swap1\n      dup2\n      0x00\n      dup3\n      add\n      dup1\n      sload\n      tag_138\n      swap1\n      tag_120\n      jump\t// in\n    tag_138:\n      dup1\n      0x1f\n      add\n      0x20\n      dup1\n      swap2\n      div\n      mul\n      0x20\n      add\n      mload(0x40)\n      swap1\n      dup2\n      add\n      0x40\n      mstore\n      dup1\n      swap3\n      swap2\n      swap1\n      dup2\n      dup2\n      mstore\n      0x20\n      add\n      dup3\n      dup1\n      sload\n      tag_139\n      swap1\n      tag_120\n      jump\t// in\n    tag_139:\n      dup1\n      iszero\n      tag_140\n      jumpi\n      dup1\n      0x1f\n      lt\n      tag_141\n      jumpi\n      0x0100\n      dup1\n      dup4\n      sload\n      div\n      mul\n      dup4\n      mstore\n      swap2\n      0x20\n      add\n      swap2\n      jump(tag_140)\n    tag_141:\n      dup3\n      add\n      swap2\n      swap1\n      0x00\n      mstore\n      keccak256(0x00, 0x20)\n      swap1\n    tag_142:\n      dup2\n      sload\n      dup2\n      mstore\n      swap1\n      0x01\n      add\n      swap1\n      0x20\n      add\n      dup1\n      dup4\n      gt\n      tag_142\n      jumpi\n      dup3\n      swap1\n      sub\n      0x1f\n      and\n      dup3\n      add\n      swap2\n    tag_140:\n      pop\n      pop\n      pop\n      pop\n      pop\n      dup2\n      mstore\n      0x20\n      add\n      0x01\n      dup3\n      add\n      dup1\n      sload\n      tag_143\n      swap1\n      tag_120\n      jump\t// in\n    tag_143:\n      dup1\n      0x1f\n      add\n      0x20\n      dup1\n      swap2\n      div\n      mul\n      0x20\n      add\n      mload(0x40)\n      swap1\n      dup2\n      add\n      0x40\n      mstore\n      dup1\n      swap3\n      swap2\n      swap1\n      dup2\n      dup2\n      mstore\n      0x20\n      add\n      dup3\n      dup1\n      sload\n      tag_144\n      swap1\n      tag_120\n      jump\t// in\n    tag_144:\n      dup1\n      iszero\n      tag_145\n      jumpi\n      dup1\n      0x1f\n      lt\n      tag_146\n      jumpi\n      0x0100\n      dup1\n      dup4\n      sload\n      div\n      mul\n      dup4\n      mstore\n      swap2\n      0x20\n      add\n      swap2\n      jump(tag_145)\n    tag_146:\n      dup3\n      add\n      swap2\n      swap1\n      0x00\n      mstore\n      keccak256(0x00, 0x20)\n      swap1\n    tag_147:\n      dup2\n      sload\n      dup2\n      mstore\n      swap1\n      0x01\n      add\n      swap1\n      0x20\n      add\n      dup1\n      dup4\n      gt\n      tag_147\n      jumpi\n      dup3\n      swap1\n      sub\n      0x1f\n      and\n      dup3\n      add\n      swap2\n    tag_145:\n      pop\n      pop\n      pop\n      pop\n      pop\n      dup2\n      mstore\n      0x20\n      add\n      0x02\n      dup3\n      add\n      sload\n      dup2\n      mstore\n      pop\n      pop\n      swap1\n      pop\n        /* \"contracts/Shops.sol\":5934:5942  sellUser */\n      dup3\n        /* \"contracts/Shops.sol\":5934:5952  sellUser.userLogin */\n      0x20\n      add\n      mload\n        /* \"contracts/Shops.sol\":5920:5952  sellerLogin = sellUser.userLogin */\n      swap9\n      pop\n        /* \"contracts/Shops.sol\":5968:5976  sellUser */\n      dup3\n        /* \"contracts/Shops.sol\":5968:5980  sellUser.fio */\n      0x40\n      add\n      mload\n        /* \"contracts/Shops.sol\":5962:5980  fio = sellUser.fio */\n      swap8\n      pop\n        /* \"contracts/Shops.sol\":5997:6005  sellShop */\n      dup1\n        /* \"contracts/Shops.sol\":5997:6010  sellShop.city */\n      0x20\n      add\n      mload\n        /* \"contracts/Shops.sol\":5990:6010  city = sellShop.city */\n      swap7\n      pop\n        /* \"contracts/Shops.sol\":6033:6041  sellShop */\n      dup1\n        /* \"contracts/Shops.sol\":6033:6048  sellShop.number */\n      0x00\n      add\n      mload\n        /* \"contracts/Shops.sol\":6020:6048  shopNumber = sellShop.number */\n      swap6\n      pop\n        /* \"contracts/Shops.sol\":6068:6076  sellUser */\n      dup3\n        /* \"contracts/Shops.sol\":6068:6084  sellUser.reviews */\n      0x60\n      add\n      mload\n        /* \"contracts/Shops.sol\":6058:6084  reviews = sellUser.reviews */\n      swap5\n      pop\n        /* \"contracts/Shops.sol\":5738:6091  {... */\n      pop\n      pop\n      pop\n        /* \"contracts/Shops.sol\":5478:6091  function getSellerInfoByAddr(address sellerAddr) public view isUserStatus(UserRoles.admin)returns(... */\n      pop\n      swap2\n      swap4\n      swap6\n      swap1\n      swap3\n      swap5\n      pop\n      jump\t// out\n        /* \"contracts/Shops.sol\":8396:8554  function checkRequest(string memory id,bool isUpper) public isUserStatus(UserRoles.admin) {... */\n    tag_36:\n        /* \"contracts/Shops.sol\":8469:8484  UserRoles.admin */\n      0x03\n        /* \"contracts/AuthService.sol\":1617:1622  users */\n      0x02\n        /* \"contracts/AuthService.sol\":1617:1634  users[msg.sender] */\n      0x00\n        /* \"contracts/AuthService.sol\":1623:1633  msg.sender */\n      caller\n        /* \"contracts/AuthService.sol\":1617:1634  users[msg.sender] */\n      0xffffffffffffffffffffffffffffffffffffffff\n      and\n      0xffffffffffffffffffffffffffffffffffffffff\n      and\n      dup2\n      mstore\n      0x20\n      add\n      swap1\n      dup2\n      mstore\n      0x20\n      add\n      0x00\n      keccak256\n        /* \"contracts/AuthService.sol\":1617:1641  users[msg.sender].status */\n      0x00\n      add\n      sload\n        /* \"contracts/AuthService.sol\":1606:1612  status */\n      dup2\n        /* \"contracts/AuthService.sol\":1601:1613  uint(status) */\n      0x05\n      dup2\n      gt\n      iszero\n      tag_149\n      jumpi\n      tag_150\n      tag_114\n      jump\t// in\n    tag_150:\n    tag_149:\n        /* \"contracts/AuthService.sol\":1601:1641  uint(status) == users[msg.sender].status */\n      eq\n        /* \"contracts/AuthService.sol\":1593:1654  require(uint(status) == users[msg.sender].status,\"Forbidden\") */\n      tag_151\n      jumpi\n      mload(0x40)\n      0x08c379a000000000000000000000000000000000000000000000000000000000\n      dup2\n      mstore\n      0x04\n      add\n      tag_152\n      swap1\n      tag_117\n      jump\t// in\n    tag_152:\n      mload(0x40)\n      dup1\n      swap2\n      sub\n      swap1\n      revert\n    tag_151:\n        /* \"contracts/Shops.sol\":8500:8507  isUpper */\n      dup2\n        /* \"contracts/Shops.sol\":8496:8548  if (isUpper){... */\n      iszero\n      tag_154\n      jumpi\n      jump(tag_155)\n    tag_154:\n    tag_155:\n        /* \"contracts/Shops.sol\":8396:8554  function checkRequest(string memory id,bool isUpper) public isUserStatus(UserRoles.admin) {... */\n      pop\n      pop\n      pop\n      jump\t// out\n        /* \"contracts/Shops.sol\":2663:2850  function registerBank(string memory bankLogin,address bankAddr) public isAdmin {... */\n    tag_40:\n        /* \"contracts/Shops.sol\":1100:1105  admin */\n      0x05\n      0x00\n      swap1\n      sload\n      swap1\n      0x0100\n      exp\n      swap1\n      div\n      0xffffffffffffffffffffffffffffffffffffffff\n      and\n        /* \"contracts/Shops.sol\":1086:1105  msg.sender == admin */\n      0xffffffffffffffffffffffffffffffffffffffff\n      and\n        /* \"contracts/Shops.sol\":1086:1096  msg.sender */\n      caller\n        /* \"contracts/Shops.sol\":1086:1105  msg.sender == admin */\n      0xffffffffffffffffffffffffffffffffffffffff\n      and\n      eq\n        /* \"contracts/Shops.sol\":1078:1122  require(msg.sender == admin,\"You not admin\") */\n      tag_157\n      jumpi\n      mload(0x40)\n      0x08c379a000000000000000000000000000000000000000000000000000000000\n      dup2\n      mstore\n      0x04\n      add\n      tag_158\n      swap1\n      tag_159\n      jump\t// in\n    tag_158:\n      mload(0x40)\n      dup1\n      swap2\n      sub\n      swap1\n      revert\n    tag_157:\n        /* \"contracts/Shops.sol\":2752:2763  uint status */\n      0x00\n        /* \"contracts/Shops.sol\":2771:2785  UserRoles.bank */\n      0x05\n        /* \"contracts/Shops.sol\":2766:2786  uint(UserRoles.bank) */\n      dup1\n      dup2\n      gt\n      iszero\n      tag_161\n      jumpi\n      tag_162\n      tag_114\n      jump\t// in\n    tag_162:\n    tag_161:\n        /* \"contracts/Shops.sol\":2752:2786  uint status = uint(UserRoles.bank) */\n      swap1\n      pop\n        /* \"contracts/Shops.sol\":2796:2843  registerFromAdmin(\"\",bankLogin,status,bankAddr) */\n      tag_163\n      mload(0x40)\n      dup1\n      0x20\n      add\n      0x40\n      mstore\n      dup1\n      0x00\n      dup2\n      mstore\n      pop\n        /* \"contracts/Shops.sol\":2817:2826  bankLogin */\n      dup5\n        /* \"contracts/Shops.sol\":2827:2833  status */\n      dup4\n        /* \"contracts/Shops.sol\":2834:2842  bankAddr */\n      dup6\n        /* \"contracts/Shops.sol\":2796:2813  registerFromAdmin */\n      tag_164\n        /* \"contracts/Shops.sol\":2796:2843  registerFromAdmin(\"\",bankLogin,status,bankAddr) */\n      jump\t// in\n    tag_163:\n        /* \"contracts/Shops.sol\":2742:2850  {... */\n      pop\n        /* \"contracts/Shops.sol\":2663:2850  function registerBank(string memory bankLogin,address bankAddr) public isAdmin {... */\n      pop\n      pop\n      jump\t// out\n        /* \"contracts/Shops.sol\":6097:6551  function createReview(... */\n    tag_44:\n        /* \"contracts/AuthService.sol\":1465:1504  compare(users[msg.sender].userLogin,\"\") */\n      tag_166\n        /* \"contracts/AuthService.sol\":1473:1478  users */\n      0x02\n        /* \"contracts/AuthService.sol\":1473:1490  users[msg.sender] */\n      0x00\n        /* \"contracts/AuthService.sol\":1479:1489  msg.sender */\n      caller\n        /* \"contracts/AuthService.sol\":1473:1490  users[msg.sender] */\n      0xffffffffffffffffffffffffffffffffffffffff\n      and\n      0xffffffffffffffffffffffffffffffffffffffff\n      and\n      dup2\n      mstore\n      0x20\n      add\n      swap1\n      dup2\n      mstore\n      0x20\n      add\n      0x00\n      keccak256\n        /* \"contracts/AuthService.sol\":1473:1500  users[msg.sender].userLogin */\n      0x01\n      add\n        /* \"contracts/AuthService.sol\":1465:1504  compare(users[msg.sender].userLogin,\"\") */\n      dup1\n      sload\n      tag_167\n      swap1\n      tag_120\n      jump\t// in\n    tag_167:\n      dup1\n      0x1f\n      add\n      0x20\n      dup1\n      swap2\n      div\n      mul\n      0x20\n      add\n      mload(0x40)\n      swap1\n      dup2\n      add\n      0x40\n      mstore\n      dup1\n      swap3\n      swap2\n      swap1\n      dup2\n      dup2\n      mstore\n      0x20\n      add\n      dup3\n      dup1\n      sload\n      tag_168\n      swap1\n      tag_120\n      jump\t// in\n    tag_168:\n      dup1\n      iszero\n      tag_169\n      jumpi\n      dup1\n      0x1f\n      lt\n      tag_170\n      jumpi\n      0x0100\n      dup1\n      dup4\n      sload\n      div\n      mul\n      dup4\n      mstore\n      swap2\n      0x20\n      add\n      swap2\n      jump(tag_169)\n    tag_170:\n      dup3\n      add\n      swap2\n      swap1\n      0x00\n      mstore\n      keccak256(0x00, 0x20)\n      swap1\n    tag_171:\n      dup2\n      sload\n      dup2\n      mstore\n      swap1\n      0x01\n      add\n      swap1\n      0x20\n      add\n      dup1\n      dup4\n      gt\n      tag_171\n      jumpi\n      dup3\n      swap1\n      sub\n      0x1f\n      and\n      dup3\n      add\n      swap2\n    tag_169:\n      pop\n      pop\n      pop\n      pop\n      pop\n      mload(0x40)\n      dup1\n      0x20\n      add\n      0x40\n      mstore\n      dup1\n      0x00\n      dup2\n      mstore\n      pop\n        /* \"contracts/AuthService.sol\":1465:1472  compare */\n      tag_172\n        /* \"contracts/AuthService.sol\":1465:1504  compare(users[msg.sender].userLogin,\"\") */\n      jump\t// in\n    tag_166:\n        /* \"contracts/AuthService.sol\":1464:1504  !compare(users[msg.sender].userLogin,\"\") */\n      iszero\n        /* \"contracts/AuthService.sol\":1456:1520  require(!compare(users[msg.sender].userLogin,\"\"),\"You not user\") */\n      tag_173\n      jumpi\n      mload(0x40)\n      0x08c379a000000000000000000000000000000000000000000000000000000000\n      dup2\n      mstore\n      0x04\n      add\n      tag_174\n      swap1\n      tag_175\n      jump\t// in\n    tag_174:\n      mload(0x40)\n      dup1\n      swap2\n      sub\n      swap1\n      revert\n    tag_173:\n        /* \"contracts/Shops.sol\":6255:6281  address[] memory likeCount */\n      0x60\n        /* \"contracts/Shops.sol\":6291:6320  address[] memory disLikeCount */\n      dup1\n        /* \"contracts/Shops.sol\":6330:6354  Review memory userReview */\n      0x00\n        /* \"contracts/Shops.sol\":6357:6425  Review(msg.sender,shopAddr,userMessage,likeCount,disLikeCount,grade) */\n      mload(0x40)\n      dup1\n      0xc0\n      add\n      0x40\n      mstore\n      dup1\n        /* \"contracts/Shops.sol\":6364:6374  msg.sender */\n      caller\n        /* \"contracts/Shops.sol\":6357:6425  Review(msg.sender,shopAddr,userMessage,likeCount,disLikeCount,grade) */\n      0xffffffffffffffffffffffffffffffffffffffff\n      and\n      dup2\n      mstore\n      0x20\n      add\n        /* \"contracts/Shops.sol\":6375:6383  shopAddr */\n      dup9\n        /* \"contracts/Shops.sol\":6357:6425  Review(msg.sender,shopAddr,userMessage,likeCount,disLikeCount,grade) */\n      0xffffffffffffffffffffffffffffffffffffffff\n      and\n      dup2\n      mstore\n      0x20\n      add\n        /* \"contracts/Shops.sol\":6384:6395  userMessage */\n      dup8\n        /* \"contracts/Shops.sol\":6357:6425  Review(msg.sender,shopAddr,userMessage,likeCount,disLikeCount,grade) */\n      dup2\n      mstore\n      0x20\n      add\n        /* \"contracts/Shops.sol\":6396:6405  likeCount */\n      dup5\n        /* \"contracts/Shops.sol\":6357:6425  Review(msg.sender,shopAddr,userMessage,likeCount,disLikeCount,grade) */\n      dup2\n      mstore\n      0x20\n      add\n        /* \"contracts/Shops.sol\":6406:6418  disLikeCount */\n      dup4\n        /* \"contracts/Shops.sol\":6357:6425  Review(msg.sender,shopAddr,userMessage,likeCount,disLikeCount,grade) */\n      dup2\n      mstore\n      0x20\n      add\n        /* \"contracts/Shops.sol\":6419:6424  grade */\n      dup6\n        /* \"contracts/Shops.sol\":6357:6425  Review(msg.sender,shopAddr,userMessage,likeCount,disLikeCount,grade) */\n      dup2\n      mstore\n      pop\n        /* \"contracts/Shops.sol\":6330:6425  Review memory userReview = Review(msg.sender,shopAddr,userMessage,likeCount,disLikeCount,grade) */\n      swap1\n      pop\n        /* \"contracts/Shops.sol\":6435:6446  shopReviews */\n      0x0e\n        /* \"contracts/Shops.sol\":6435:6456  shopReviews[shopAddr] */\n      0x00\n        /* \"contracts/Shops.sol\":6447:6455  shopAddr */\n      dup9\n        /* \"contracts/Shops.sol\":6435:6456  shopReviews[shopAddr] */\n      0xffffffffffffffffffffffffffffffffffffffff\n      and\n      0xffffffffffffffffffffffffffffffffffffffff\n      and\n      dup2\n      mstore\n      0x20\n      add\n      swap1\n      dup2\n      mstore\n      0x20\n      add\n      0x00\n      keccak256\n        /* \"contracts/Shops.sol\":6462:6464  id */\n      dup6\n        /* \"contracts/Shops.sol\":6435:6465  shopReviews[shopAddr].push(id) */\n      swap1\n      dup1\n      0x01\n      dup2\n      sload\n      add\n      dup1\n      dup3\n      sstore\n      dup1\n      swap2\n      pop\n      pop\n      0x01\n      swap1\n      sub\n      swap1\n      0x00\n      mstore\n      keccak256(0x00, 0x20)\n      add\n      0x00\n      swap1\n      swap2\n      swap1\n      swap2\n      swap1\n      swap2\n      pop\n      swap1\n      dup1\n      mload\n      swap1\n      0x20\n      add\n      swap1\n      tag_178\n      swap3\n      swap2\n      swap1\n      tag_179\n      jump\t// in\n    tag_178:\n      pop\n        /* \"contracts/Shops.sol\":6475:6480  users */\n      0x02\n        /* \"contracts/Shops.sol\":6475:6492  users[msg.sender] */\n      0x00\n        /* \"contracts/Shops.sol\":6481:6491  msg.sender */\n      caller\n        /* \"contracts/Shops.sol\":6475:6492  users[msg.sender] */\n      0xffffffffffffffffffffffffffffffffffffffff\n      and\n      0xffffffffffffffffffffffffffffffffffffffff\n      and\n      dup2\n      mstore\n      0x20\n      add\n      swap1\n      dup2\n      mstore\n      0x20\n      add\n      0x00\n      keccak256\n        /* \"contracts/Shops.sol\":6475:6500  users[msg.sender].reviews */\n      0x03\n      add\n        /* \"contracts/Shops.sol\":6506:6508  id */\n      dup6\n        /* \"contracts/Shops.sol\":6475:6509  users[msg.sender].reviews.push(id) */\n      swap1\n      dup1\n      0x01\n      dup2\n      sload\n      add\n      dup1\n      dup3\n      sstore\n      dup1\n      swap2\n      pop\n      pop\n      0x01\n      swap1\n      sub\n      swap1\n      0x00\n      mstore\n      keccak256(0x00, 0x20)\n      add\n      0x00\n      swap1\n      swap2\n      swap1\n      swap2\n      swap1\n      swap2\n      pop\n      swap1\n      dup1\n      mload\n      swap1\n      0x20\n      add\n      swap1\n      tag_181\n      swap3\n      swap2\n      swap1\n      tag_179\n      jump\t// in\n    tag_181:\n      pop\n        /* \"contracts/Shops.sol\":6534:6544  userReview */\n      dup1\n        /* \"contracts/Shops.sol\":6519:6527  reviewId */\n      0x0f\n        /* \"contracts/Shops.sol\":6528:6530  id */\n      dup7\n        /* \"contracts/Shops.sol\":6519:6531  reviewId[id] */\n      mload(0x40)\n      tag_182\n      swap2\n      swap1\n      tag_183\n      jump\t// in\n    tag_182:\n      swap1\n      dup2\n      mstore\n      0x20\n      add\n      mload(0x40)\n      dup1\n      swap2\n      sub\n      swap1\n      keccak256\n        /* \"contracts/Shops.sol\":6519:6544  reviewId[id] = userReview */\n      0x00\n      dup3\n      add\n      mload\n      dup2\n      0x00\n      add\n      exp(0x0100, 0x00)\n      dup2\n      sload\n      dup2\n      0xffffffffffffffffffffffffffffffffffffffff\n      mul\n      not\n      and\n      swap1\n      dup4\n      0xffffffffffffffffffffffffffffffffffffffff\n      and\n      mul\n      or\n      swap1\n      sstore\n      pop\n      0x20\n      dup3\n      add\n      mload\n      dup2\n      0x01\n      add\n      exp(0x0100, 0x00)\n      dup2\n      sload\n      dup2\n      0xffffffffffffffffffffffffffffffffffffffff\n      mul\n      not\n      and\n      swap1\n      dup4\n      0xffffffffffffffffffffffffffffffffffffffff\n      and\n      mul\n      or\n      swap1\n      sstore\n      pop\n      0x40\n      dup3\n      add\n      mload\n      dup2\n      0x02\n      add\n      swap1\n      dup1\n      mload\n      swap1\n      0x20\n      add\n      swap1\n      tag_184\n      swap3\n      swap2\n      swap1\n      tag_179\n      jump\t// in\n    tag_184:\n      pop\n      0x60\n      dup3\n      add\n      mload\n      dup2\n      0x03\n      add\n      swap1\n      dup1\n      mload\n      swap1\n      0x20\n      add\n      swap1\n      tag_185\n      swap3\n      swap2\n      swap1\n      tag_186\n      jump\t// in\n    tag_185:\n      pop\n      0x80\n      dup3\n      add\n      mload\n      dup2\n      0x04\n      add\n      swap1\n      dup1\n      mload\n      swap1\n      0x20\n      add\n      swap1\n      tag_187\n      swap3\n      swap2\n      swap1\n      tag_186\n      jump\t// in\n    tag_187:\n      pop\n      0xa0\n      dup3\n      add\n      mload\n      dup2\n      0x05\n      add\n      sstore\n      swap1\n      pop\n      pop\n        /* \"contracts/Shops.sol\":6245:6551  {... */\n      pop\n      pop\n      pop\n        /* \"contracts/Shops.sol\":6097:6551  function createReview(... */\n      pop\n      pop\n      pop\n      pop\n      jump\t// out\n        /* \"contracts/Shops.sol\":7041:7527  function getReviewById(string memory id) public view returns(... */\n    tag_48:\n        /* \"contracts/Shops.sol\":7111:7128  address autorAddr */\n      0x00\n        /* \"contracts/Shops.sol\":7138:7154  address shopAddr */\n      dup1\n        /* \"contracts/Shops.sol\":7164:7191  string memory reviewMessage */\n      0x60\n        /* \"contracts/Shops.sol\":7201:7215  uint likeCount */\n      0x00\n        /* \"contracts/Shops.sol\":7225:7242  uint disLikeCount */\n      dup1\n        /* \"contracts/Shops.sol\":7252:7261  int grade */\n      0x00\n        /* \"contracts/Shops.sol\":7277:7292  Review memory r */\n      dup1\n        /* \"contracts/Shops.sol\":7295:7303  reviewId */\n      0x0f\n        /* \"contracts/Shops.sol\":7304:7306  id */\n      dup9\n        /* \"contracts/Shops.sol\":7295:7307  reviewId[id] */\n      mload(0x40)\n      tag_189\n      swap2\n      swap1\n      tag_183\n      jump\t// in\n    tag_189:\n      swap1\n      dup2\n      mstore\n      0x20\n      add\n      mload(0x40)\n      dup1\n      swap2\n      sub\n      swap1\n      keccak256\n        /* \"contracts/Shops.sol\":7277:7307  Review memory r = reviewId[id] */\n      mload(0x40)\n      dup1\n      0xc0\n      add\n      0x40\n      mstore\n      swap1\n      dup2\n      0x00\n      dup3\n      add\n      0x00\n      swap1\n      sload\n      swap1\n      0x0100\n      exp\n      swap1\n      div\n      0xffffffffffffffffffffffffffffffffffffffff\n      and\n      0xffffffffffffffffffffffffffffffffffffffff\n      and\n      0xffffffffffffffffffffffffffffffffffffffff\n      and\n      dup2\n      mstore\n      0x20\n      add\n      0x01\n      dup3\n      add\n      0x00\n      swap1\n      sload\n      swap1\n      0x0100\n      exp\n      swap1\n      div\n      0xffffffffffffffffffffffffffffffffffffffff\n      and\n      0xffffffffffffffffffffffffffffffffffffffff\n      and\n      0xffffffffffffffffffffffffffffffffffffffff\n      and\n      dup2\n      mstore\n      0x20\n      add\n      0x02\n      dup3\n      add\n      dup1\n      sload\n      tag_190\n      swap1\n      tag_120\n      jump\t// in\n    tag_190:\n      dup1\n      0x1f\n      add\n      0x20\n      dup1\n      swap2\n      div\n      mul\n      0x20\n      add\n      mload(0x40)\n      swap1\n      dup2\n      add\n      0x40\n      mstore\n      dup1\n      swap3\n      swap2\n      swap1\n      dup2\n      dup2\n      mstore\n      0x20\n      add\n      dup3\n      dup1\n      sload\n      tag_191\n      swap1\n      tag_120\n      jump\t// in\n    tag_191:\n      dup1\n      iszero\n      tag_192\n      jumpi\n      dup1\n      0x1f\n      lt\n      tag_193\n      jumpi\n      0x0100\n      dup1\n      dup4\n      sload\n      div\n      mul\n      dup4\n      mstore\n      swap2\n      0x20\n      add\n      swap2\n      jump(tag_192)\n    tag_193:\n      dup3\n      add\n      swap2\n      swap1\n      0x00\n      mstore\n      keccak256(0x00, 0x20)\n      swap1\n    tag_194:\n      dup2\n      sload\n      dup2\n      mstore\n      swap1\n      0x01\n      add\n      swap1\n      0x20\n      add\n      dup1\n      dup4\n      gt\n      tag_194\n      jumpi\n      dup3\n      swap1\n      sub\n      0x1f\n      and\n      dup3\n      add\n      swap2\n    tag_192:\n      pop\n      pop\n      pop\n      pop\n      pop\n      dup2\n      mstore\n      0x20\n      add\n      0x03\n      dup3\n      add\n      dup1\n      sload\n      dup1\n      0x20\n      mul\n      0x20\n      add\n      mload(0x40)\n      swap1\n      dup2\n      add\n      0x40\n      mstore\n      dup1\n      swap3\n      swap2\n      swap1\n      dup2\n      dup2\n      mstore\n      0x20\n      add\n      dup3\n      dup1\n      sload\n      dup1\n      iszero\n      tag_195\n      jumpi\n      0x20\n      mul\n      dup3\n      add\n      swap2\n      swap1\n      0x00\n      mstore\n      keccak256(0x00, 0x20)\n      swap1\n    tag_196:\n      dup2\n      0x00\n      swap1\n      sload\n      swap1\n      0x0100\n      exp\n      swap1\n      div\n      0xffffffffffffffffffffffffffffffffffffffff\n      and\n      0xffffffffffffffffffffffffffffffffffffffff\n      and\n      dup2\n      mstore\n      0x20\n      add\n      swap1\n      0x01\n      add\n      swap1\n      dup1\n      dup4\n      gt\n      tag_196\n      jumpi\n    tag_195:\n      pop\n      pop\n      pop\n      pop\n      pop\n      dup2\n      mstore\n      0x20\n      add\n      0x04\n      dup3\n      add\n      dup1\n      sload\n      dup1\n      0x20\n      mul\n      0x20\n      add\n      mload(0x40)\n      swap1\n      dup2\n      add\n      0x40\n      mstore\n      dup1\n      swap3\n      swap2\n      swap1\n      dup2\n      dup2\n      mstore\n      0x20\n      add\n      dup3\n      dup1\n      sload\n      dup1\n      iszero\n      tag_197\n      jumpi\n      0x20\n      mul\n      dup3\n      add\n      swap2\n      swap1\n      0x00\n      mstore\n      keccak256(0x00, 0x20)\n      swap1\n    tag_198:\n      dup2\n      0x00\n      swap1\n      sload\n      swap1\n      0x0100\n      exp\n      swap1\n      div\n      0xffffffffffffffffffffffffffffffffffffffff\n      and\n      0xffffffffffffffffffffffffffffffffffffffff\n      and\n      dup2\n      mstore\n      0x20\n      add\n      swap1\n      0x01\n      add\n      swap1\n      dup1\n      dup4\n      gt\n      tag_198\n      jumpi\n    tag_197:\n      pop\n      pop\n      pop\n      pop\n      pop\n      dup2\n      mstore\n      0x20\n      add\n      0x05\n      dup3\n      add\n      sload\n      dup2\n      mstore\n      pop\n      pop\n      swap1\n      pop\n        /* \"contracts/Shops.sol\":7329:7330  r */\n      dup1\n        /* \"contracts/Shops.sol\":7329:7343  r.autorAddress */\n      0x00\n      add\n      mload\n        /* \"contracts/Shops.sol\":7317:7343  autorAddr = r.autorAddress */\n      swap7\n      pop\n        /* \"contracts/Shops.sol\":7364:7365  r */\n      dup1\n        /* \"contracts/Shops.sol\":7364:7374  r.shopAddr */\n      0x20\n      add\n      mload\n        /* \"contracts/Shops.sol\":7353:7374  shopAddr = r.shopAddr */\n      swap6\n      pop\n        /* \"contracts/Shops.sol\":7400:7401  r */\n      dup1\n        /* \"contracts/Shops.sol\":7400:7409  r.message */\n      0x40\n      add\n      mload\n        /* \"contracts/Shops.sol\":7384:7409  reviewMessage = r.message */\n      swap5\n      pop\n        /* \"contracts/Shops.sol\":7431:7432  r */\n      dup1\n        /* \"contracts/Shops.sol\":7431:7442  r.likeCount */\n      0x60\n      add\n      mload\n        /* \"contracts/Shops.sol\":7431:7449  r.likeCount.length */\n      mload\n        /* \"contracts/Shops.sol\":7419:7449  likeCount = r.likeCount.length */\n      swap4\n      pop\n        /* \"contracts/Shops.sol\":7474:7475  r */\n      dup1\n        /* \"contracts/Shops.sol\":7474:7488  r.disLikeCount */\n      0x80\n      add\n      mload\n        /* \"contracts/Shops.sol\":7474:7495  r.disLikeCount.length */\n      mload\n        /* \"contracts/Shops.sol\":7459:7495  disLikeCount = r.disLikeCount.length */\n      swap3\n      pop\n        /* \"contracts/Shops.sol\":7513:7514  r */\n      dup1\n        /* \"contracts/Shops.sol\":7513:7520  r.grade */\n      0xa0\n      add\n      mload\n        /* \"contracts/Shops.sol\":7505:7520  grade = r.grade */\n      swap2\n      pop\n        /* \"contracts/Shops.sol\":7267:7527  {... */\n      pop\n        /* \"contracts/Shops.sol\":7041:7527  function getReviewById(string memory id) public view returns(... */\n      swap2\n      swap4\n      swap6\n      pop\n      swap2\n      swap4\n      swap6\n      jump\t// out\n        /* \"contracts/AuthService.sol\":2256:2556  function login(string memory userLogin) public view isRegistered(userLogin) returns(address userAddress,string memory status){... */\n    tag_53:\n        /* \"contracts/AuthService.sol\":2340:2359  address userAddress */\n      0x00\n        /* \"contracts/AuthService.sol\":2360:2380  string memory status */\n      0x60\n        /* \"contracts/AuthService.sol\":2321:2330  userLogin */\n      dup3\n        /* \"contracts/AuthService.sol\":1388:1389  0 */\n      0x00\n        /* \"contracts/AuthService.sol\":1355:1390  userLogins[userLogin] != address(0) */\n      0xffffffffffffffffffffffffffffffffffffffff\n      and\n        /* \"contracts/AuthService.sol\":1355:1365  userLogins */\n      0x01\n        /* \"contracts/AuthService.sol\":1366:1375  userLogin */\n      dup3\n        /* \"contracts/AuthService.sol\":1355:1376  userLogins[userLogin] */\n      mload(0x40)\n      tag_200\n      swap2\n      swap1\n      tag_183\n      jump\t// in\n    tag_200:\n      swap1\n      dup2\n      mstore\n      0x20\n      add\n      mload(0x40)\n      dup1\n      swap2\n      sub\n      swap1\n      keccak256\n      0x00\n      swap1\n      sload\n      swap1\n      0x0100\n      exp\n      swap1\n      div\n      0xffffffffffffffffffffffffffffffffffffffff\n      and\n        /* \"contracts/AuthService.sol\":1355:1390  userLogins[userLogin] != address(0) */\n      0xffffffffffffffffffffffffffffffffffffffff\n      and\n      eq\n      iszero\n        /* \"contracts/AuthService.sol\":1347:1405  require(userLogins[userLogin] != address(0),\"Wrong Login\") */\n      tag_201\n      jumpi\n      mload(0x40)\n      0x08c379a000000000000000000000000000000000000000000000000000000000\n      dup2\n      mstore\n      0x04\n      add\n      tag_202\n      swap1\n      tag_203\n      jump\t// in\n    tag_202:\n      mload(0x40)\n      dup1\n      swap2\n      sub\n      swap1\n      revert\n    tag_201:\n        /* \"contracts/AuthService.sol\":2391:2407  address userAddr */\n      0x00\n        /* \"contracts/AuthService.sol\":2410:2420  userLogins */\n      0x01\n        /* \"contracts/AuthService.sol\":2421:2430  userLogin */\n      dup6\n        /* \"contracts/AuthService.sol\":2410:2431  userLogins[userLogin] */\n      mload(0x40)\n      tag_205\n      swap2\n      swap1\n      tag_183\n      jump\t// in\n    tag_205:\n      swap1\n      dup2\n      mstore\n      0x20\n      add\n      mload(0x40)\n      dup1\n      swap2\n      sub\n      swap1\n      keccak256\n      0x00\n      swap1\n      sload\n      swap1\n      0x0100\n      exp\n      swap1\n      div\n      0xffffffffffffffffffffffffffffffffffffffff\n      and\n        /* \"contracts/AuthService.sol\":2391:2431  address userAddr = userLogins[userLogin] */\n      swap1\n      pop\n        /* \"contracts/AuthService.sol\":2441:2457  User memory user */\n      0x00\n        /* \"contracts/AuthService.sol\":2460:2465  users */\n      0x02\n        /* \"contracts/AuthService.sol\":2460:2475  users[userAddr] */\n      0x00\n        /* \"contracts/AuthService.sol\":2466:2474  userAddr */\n      dup4\n        /* \"contracts/AuthService.sol\":2460:2475  users[userAddr] */\n      0xffffffffffffffffffffffffffffffffffffffff\n      and\n      0xffffffffffffffffffffffffffffffffffffffff\n      and\n      dup2\n      mstore\n      0x20\n      add\n      swap1\n      dup2\n      mstore\n      0x20\n      add\n      0x00\n      keccak256\n        /* \"contracts/AuthService.sol\":2441:2475  User memory user = users[userAddr] */\n      mload(0x40)\n      dup1\n      0x80\n      add\n      0x40\n      mstore\n      swap1\n      dup2\n      0x00\n      dup3\n      add\n      sload\n      dup2\n      mstore\n      0x20\n      add\n      0x01\n      dup3\n      add\n      dup1\n      sload\n      tag_206\n      swap1\n      tag_120\n      jump\t// in\n    tag_206:\n      dup1\n      0x1f\n      add\n      0x20\n      dup1\n      swap2\n      div\n      mul\n      0x20\n      add\n      mload(0x40)\n      swap1\n      dup2\n      add\n      0x40\n      mstore\n      dup1\n      swap3\n      swap2\n      swap1\n      dup2\n      dup2\n      mstore\n      0x20\n      add\n      dup3\n      dup1\n      sload\n      tag_207\n      swap1\n      tag_120\n      jump\t// in\n    tag_207:\n      dup1\n      iszero\n      tag_208\n      jumpi\n      dup1\n      0x1f\n      lt\n      tag_209\n      jumpi\n      0x0100\n      dup1\n      dup4\n      sload\n      div\n      mul\n      dup4\n      mstore\n      swap2\n      0x20\n      add\n      swap2\n      jump(tag_208)\n    tag_209:\n      dup3\n      add\n      swap2\n      swap1\n      0x00\n      mstore\n      keccak256(0x00, 0x20)\n      swap1\n    tag_210:\n      dup2\n      sload\n      dup2\n      mstore\n      swap1\n      0x01\n      add\n      swap1\n      0x20\n      add\n      dup1\n      dup4\n      gt\n      tag_210\n      jumpi\n      dup3\n      swap1\n      sub\n      0x1f\n      and\n      dup3\n      add\n      swap2\n    tag_208:\n      pop\n      pop\n      pop\n      pop\n      pop\n      dup2\n      mstore\n      0x20\n      add\n      0x02\n      dup3\n      add\n      dup1\n      sload\n      tag_211\n      swap1\n      tag_120\n      jump\t// in\n    tag_211:\n      dup1\n      0x1f\n      add\n      0x20\n      dup1\n      swap2\n      div\n      mul\n      0x20\n      add\n      mload(0x40)\n      swap1\n      dup2\n      add\n      0x40\n      mstore\n      dup1\n      swap3\n      swap2\n      swap1\n      dup2\n      dup2\n      mstore\n      0x20\n      add\n      dup3\n      dup1\n      sload\n      tag_212\n      swap1\n      tag_120\n      jump\t// in\n    tag_212:\n      dup1\n      iszero\n      tag_213\n      jumpi\n      dup1\n      0x1f\n      lt\n      tag_214\n      jumpi\n      0x0100\n      dup1\n      dup4\n      sload\n      div\n      mul\n      dup4\n      mstore\n      swap2\n      0x20\n      add\n      swap2\n      jump(tag_213)\n    tag_214:\n      dup3\n      add\n      swap2\n      swap1\n      0x00\n      mstore\n      keccak256(0x00, 0x20)\n      swap1\n    tag_215:\n      dup2\n      sload\n      dup2\n      mstore\n      swap1\n      0x01\n      add\n      swap1\n      0x20\n      add\n      dup1\n      dup4\n      gt\n      tag_215\n      jumpi\n      dup3\n      swap1\n      sub\n      0x1f\n      and\n      dup3\n      add\n      swap2\n    tag_213:\n      pop\n      pop\n      pop\n      pop\n      pop\n      dup2\n      mstore\n      0x20\n      add\n      0x03\n      dup3\n      add\n      dup1\n      sload\n      dup1\n      0x20\n      mul\n      0x20\n      add\n      mload(0x40)\n      swap1\n      dup2\n      add\n      0x40\n      mstore\n      dup1\n      swap3\n      swap2\n      swap1\n      dup2\n      dup2\n      mstore\n      0x20\n      add\n      0x00\n      swap1\n    tag_216:\n      dup3\n      dup3\n      lt\n      iszero\n      tag_217\n      jumpi\n      dup4\n      dup3\n      swap1\n      0x00\n      mstore\n      keccak256(0x00, 0x20)\n      add\n      dup1\n      sload\n      tag_219\n      swap1\n      tag_120\n      jump\t// in\n    tag_219:\n      dup1\n      0x1f\n      add\n      0x20\n      dup1\n      swap2\n      div\n      mul\n      0x20\n      add\n      mload(0x40)\n      swap1\n      dup2\n      add\n      0x40\n      mstore\n      dup1\n      swap3\n      swap2\n      swap1\n      dup2\n      dup2\n      mstore\n      0x20\n      add\n      dup3\n      dup1\n      sload\n      tag_220\n      swap1\n      tag_120\n      jump\t// in\n    tag_220:\n      dup1\n      iszero\n      tag_221\n      jumpi\n      dup1\n      0x1f\n      lt\n      tag_222\n      jumpi\n      0x0100\n      dup1\n      dup4\n      sload\n      div\n      mul\n      dup4\n      mstore\n      swap2\n      0x20\n      add\n      swap2\n      jump(tag_221)\n    tag_222:\n      dup3\n      add\n      swap2\n      swap1\n      0x00\n      mstore\n      keccak256(0x00, 0x20)\n      swap1\n    tag_223:\n      dup2\n      sload\n      dup2\n      mstore\n      swap1\n      0x01\n      add\n      swap1\n      0x20\n      add\n      dup1\n      dup4\n      gt\n      tag_223\n      jumpi\n      dup3\n      swap1\n      sub\n      0x1f\n      and\n      dup3\n      add\n      swap2\n    tag_221:\n      pop\n      pop\n      pop\n      pop\n      pop\n      dup2\n      mstore\n      0x20\n      add\n      swap1\n      0x01\n      add\n      swap1\n      jump(tag_216)\n    tag_217:\n      pop\n      pop\n      pop\n      pop\n      dup2\n      mstore\n      pop\n      pop\n      swap1\n      pop\n        /* \"contracts/AuthService.sol\":2499:2507  userAddr */\n      dup2\n        /* \"contracts/AuthService.sol\":2485:2507  userAddress = userAddr */\n      swap5\n      pop\n        /* \"contracts/AuthService.sol\":2526:2536  userStatus */\n      0x00\n        /* \"contracts/AuthService.sol\":2526:2549  userStatus[user.status] */\n      dup1\n        /* \"contracts/AuthService.sol\":2537:2541  user */\n      dup3\n        /* \"contracts/AuthService.sol\":2537:2548  user.status */\n      0x00\n      add\n      mload\n        /* \"contracts/AuthService.sol\":2526:2549  userStatus[user.status] */\n      dup2\n      mstore\n      0x20\n      add\n      swap1\n      dup2\n      mstore\n      0x20\n      add\n      0x00\n      keccak256\n        /* \"contracts/AuthService.sol\":2517:2549  status = userStatus[user.status] */\n      dup1\n      sload\n      tag_224\n      swap1\n      tag_120\n      jump\t// in\n    tag_224:\n      dup1\n      0x1f\n      add\n      0x20\n      dup1\n      swap2\n      div\n      mul\n      0x20\n      add\n      mload(0x40)\n      swap1\n      dup2\n      add\n      0x40\n      mstore\n      dup1\n      swap3\n      swap2\n      swap1\n      dup2\n      dup2\n      mstore\n      0x20\n      add\n      dup3\n      dup1\n      sload\n      tag_225\n      swap1\n      tag_120\n      jump\t// in\n    tag_225:\n      dup1\n      iszero\n      tag_226\n      jumpi\n      dup1\n      0x1f\n      lt\n      tag_227\n      jumpi\n      0x0100\n      dup1\n      dup4\n      sload\n      div\n      mul\n      dup4\n      mstore\n      swap2\n      0x20\n      add\n      swap2\n      jump(tag_226)\n    tag_227:\n      dup3\n      add\n      swap2\n      swap1\n      0x00\n      mstore\n      keccak256(0x00, 0x20)\n      swap1\n    tag_228:\n      dup2\n      sload\n      dup2\n      mstore\n      swap1\n      0x01\n      add\n      swap1\n      0x20\n      add\n      dup1\n      dup4\n      gt\n      tag_228\n      jumpi\n      dup3\n      swap1\n      sub\n      0x1f\n      and\n      dup3\n      add\n      swap2\n    tag_226:\n      pop\n      pop\n      pop\n      pop\n      pop\n      swap4\n      pop\n        /* \"contracts/AuthService.sol\":2381:2556  {... */\n      pop\n      pop\n        /* \"contracts/AuthService.sol\":2256:2556  function login(string memory userLogin) public view isRegistered(userLogin) returns(address userAddress,string memory status){... */\n      pop\n      swap2\n      pop\n      swap2\n      jump\t// out\n        /* \"contracts/Shops.sol\":3859:4450  function getSellerInfo() public view isUserStatus(UserRoles.seller) returns(... */\n    tag_57:\n        /* \"contracts/Shops.sol\":3944:3969  string memory sellerLogin */\n      0x60\n        /* \"contracts/Shops.sol\":3979:3996  string memory fio */\n      dup1\n        /* \"contracts/Shops.sol\":4006:4024  string memory city */\n      0x60\n        /* \"contracts/Shops.sol\":4034:4058  string memory shopNumber */\n      dup1\n        /* \"contracts/Shops.sol\":4068:4091  string[] memory reviews */\n      0x60\n        /* \"contracts/Shops.sol\":3909:3925  UserRoles.seller */\n      0x01\n        /* \"contracts/AuthService.sol\":1617:1622  users */\n      0x02\n        /* \"contracts/AuthService.sol\":1617:1634  users[msg.sender] */\n      0x00\n        /* \"contracts/AuthService.sol\":1623:1633  msg.sender */\n      caller\n        /* \"contracts/AuthService.sol\":1617:1634  users[msg.sender] */\n      0xffffffffffffffffffffffffffffffffffffffff\n      and\n      0xffffffffffffffffffffffffffffffffffffffff\n      and\n      dup2\n      mstore\n      0x20\n      add\n      swap1\n      dup2\n      mstore\n      0x20\n      add\n      0x00\n      keccak256\n        /* \"contracts/AuthService.sol\":1617:1641  users[msg.sender].status */\n      0x00\n      add\n      sload\n        /* \"contracts/AuthService.sol\":1606:1612  status */\n      dup2\n        /* \"contracts/AuthService.sol\":1601:1613  uint(status) */\n      0x05\n      dup2\n      gt\n      iszero\n      tag_230\n      jumpi\n      tag_231\n      tag_114\n      jump\t// in\n    tag_231:\n    tag_230:\n        /* \"contracts/AuthService.sol\":1601:1641  uint(status) == users[msg.sender].status */\n      eq\n        /* \"contracts/AuthService.sol\":1593:1654  require(uint(status) == users[msg.sender].status,\"Forbidden\") */\n      tag_232\n      jumpi\n      mload(0x40)\n      0x08c379a000000000000000000000000000000000000000000000000000000000\n      dup2\n      mstore\n      0x04\n      add\n      tag_233\n      swap1\n      tag_117\n      jump\t// in\n    tag_233:\n      mload(0x40)\n      dup1\n      swap2\n      sub\n      swap1\n      revert\n    tag_232:\n        /* \"contracts/Shops.sol\":4107:4127  User memory sellUser */\n      0x00\n        /* \"contracts/Shops.sol\":4130:4135  users */\n      0x02\n        /* \"contracts/Shops.sol\":4130:4147  users[msg.sender] */\n      0x00\n        /* \"contracts/Shops.sol\":4136:4146  msg.sender */\n      caller\n        /* \"contracts/Shops.sol\":4130:4147  users[msg.sender] */\n      0xffffffffffffffffffffffffffffffffffffffff\n      and\n      0xffffffffffffffffffffffffffffffffffffffff\n      and\n      dup2\n      mstore\n      0x20\n      add\n      swap1\n      dup2\n      mstore\n      0x20\n      add\n      0x00\n      keccak256\n        /* \"contracts/Shops.sol\":4107:4147  User memory sellUser = users[msg.sender] */\n      mload(0x40)\n      dup1\n      0x80\n      add\n      0x40\n      mstore\n      swap1\n      dup2\n      0x00\n      dup3\n      add\n      sload\n      dup2\n      mstore\n      0x20\n      add\n      0x01\n      dup3\n      add\n      dup1\n      sload\n      tag_235\n      swap1\n      tag_120\n      jump\t// in\n    tag_235:\n      dup1\n      0x1f\n      add\n      0x20\n      dup1\n      swap2\n      div\n      mul\n      0x20\n      add\n      mload(0x40)\n      swap1\n      dup2\n      add\n      0x40\n      mstore\n      dup1\n      swap3\n      swap2\n      swap1\n      dup2\n      dup2\n      mstore\n      0x20\n      add\n      dup3\n      dup1\n      sload\n      tag_236\n      swap1\n      tag_120\n      jump\t// in\n    tag_236:\n      dup1\n      iszero\n      tag_237\n      jumpi\n      dup1\n      0x1f\n      lt\n      tag_238\n      jumpi\n      0x0100\n      dup1\n      dup4\n      sload\n      div\n      mul\n      dup4\n      mstore\n      swap2\n      0x20\n      add\n      swap2\n      jump(tag_237)\n    tag_238:\n      dup3\n      add\n      swap2\n      swap1\n      0x00\n      mstore\n      keccak256(0x00, 0x20)\n      swap1\n    tag_239:\n      dup2\n      sload\n      dup2\n      mstore\n      swap1\n      0x01\n      add\n      swap1\n      0x20\n      add\n      dup1\n      dup4\n      gt\n      tag_239\n      jumpi\n      dup3\n      swap1\n      sub\n      0x1f\n      and\n      dup3\n      add\n      swap2\n    tag_237:\n      pop\n      pop\n      pop\n      pop\n      pop\n      dup2\n      mstore\n      0x20\n      add\n      0x02\n      dup3\n      add\n      dup1\n      sload\n      tag_240\n      swap1\n      tag_120\n      jump\t// in\n    tag_240:\n      dup1\n      0x1f\n      add\n      0x20\n      dup1\n      swap2\n      div\n      mul\n      0x20\n      add\n      mload(0x40)\n      swap1\n      dup2\n      add\n      0x40\n      mstore\n      dup1\n      swap3\n      swap2\n      swap1\n      dup2\n      dup2\n      mstore\n      0x20\n      add\n      dup3\n      dup1\n      sload\n      tag_241\n      swap1\n      tag_120\n      jump\t// in\n    tag_241:\n      dup1\n      iszero\n      tag_242\n      jumpi\n      dup1\n      0x1f\n      lt\n      tag_243\n      jumpi\n      0x0100\n      dup1\n      dup4\n      sload\n      div\n      mul\n      dup4\n      mstore\n      swap2\n      0x20\n      add\n      swap2\n      jump(tag_242)\n    tag_243:\n      dup3\n      add\n      swap2\n      swap1\n      0x00\n      mstore\n      keccak256(0x00, 0x20)\n      swap1\n    tag_244:\n      dup2\n      sload\n      dup2\n      mstore\n      swap1\n      0x01\n      add\n      swap1\n      0x20\n      add\n      dup1\n      dup4\n      gt\n      tag_244\n      jumpi\n      dup3\n      swap1\n      sub\n      0x1f\n      and\n      dup3\n      add\n      swap2\n    tag_242:\n      pop\n      pop\n      pop\n      pop\n      pop\n      dup2\n      mstore\n      0x20\n      add\n      0x03\n      dup3\n      add\n      dup1\n      sload\n      dup1\n      0x20\n      mul\n      0x20\n      add\n      mload(0x40)\n      swap1\n      dup2\n      add\n      0x40\n      mstore\n      dup1\n      swap3\n      swap2\n      swap1\n      dup2\n      dup2\n      mstore\n      0x20\n      add\n      0x00\n      swap1\n    tag_245:\n      dup3\n      dup3\n      lt\n      iszero\n      tag_246\n      jumpi\n      dup4\n      dup3\n      swap1\n      0x00\n      mstore\n      keccak256(0x00, 0x20)\n      add\n      dup1\n      sload\n      tag_248\n      swap1\n      tag_120\n      jump\t// in\n    tag_248:\n      dup1\n      0x1f\n      add\n      0x20\n      dup1\n      swap2\n      div\n      mul\n      0x20\n      add\n      mload(0x40)\n      swap1\n      dup2\n      add\n      0x40\n      mstore\n      dup1\n      swap3\n      swap2\n      swap1\n      dup2\n      dup2\n      mstore\n      0x20\n      add\n      dup3\n      dup1\n      sload\n      tag_249\n      swap1\n      tag_120\n      jump\t// in\n    tag_249:\n      dup1\n      iszero\n      tag_250\n      jumpi\n      dup1\n      0x1f\n      lt\n      tag_251\n      jumpi\n      0x0100\n      dup1\n      dup4\n      sload\n      div\n      mul\n      dup4\n      mstore\n      swap2\n      0x20\n      add\n      swap2\n      jump(tag_250)\n    tag_251:\n      dup3\n      add\n      swap2\n      swap1\n      0x00\n      mstore\n      keccak256(0x00, 0x20)\n      swap1\n    tag_252:\n      dup2\n      sload\n      dup2\n      mstore\n      swap1\n      0x01\n      add\n      swap1\n      0x20\n      add\n      dup1\n      dup4\n      gt\n      tag_252\n      jumpi\n      dup3\n      swap1\n      sub\n      0x1f\n      and\n      dup3\n      add\n      swap2\n    tag_250:\n      pop\n      pop\n      pop\n      pop\n      pop\n      dup2\n      mstore\n      0x20\n      add\n      swap1\n      0x01\n      add\n      swap1\n      jump(tag_245)\n    tag_246:\n      pop\n      pop\n      pop\n      pop\n      dup2\n      mstore\n      pop\n      pop\n      swap1\n      pop\n        /* \"contracts/Shops.sol\":4157:4177  address sellShopAddr */\n      0x00\n        /* \"contracts/Shops.sol\":4180:4192  salesmanShop */\n      0x0c\n        /* \"contracts/Shops.sol\":4180:4204  salesmanShop[msg.sender] */\n      0x00\n        /* \"contracts/Shops.sol\":4193:4203  msg.sender */\n      caller\n        /* \"contracts/Shops.sol\":4180:4204  salesmanShop[msg.sender] */\n      0xffffffffffffffffffffffffffffffffffffffff\n      and\n      0xffffffffffffffffffffffffffffffffffffffff\n      and\n      dup2\n      mstore\n      0x20\n      add\n      swap1\n      dup2\n      mstore\n      0x20\n      add\n      0x00\n      keccak256\n      0x00\n      swap1\n      sload\n      swap1\n      0x0100\n      exp\n      swap1\n      div\n      0xffffffffffffffffffffffffffffffffffffffff\n      and\n        /* \"contracts/Shops.sol\":4157:4204  address sellShopAddr = salesmanShop[msg.sender] */\n      swap1\n      pop\n        /* \"contracts/Shops.sol\":4214:4234  Shop memory sellShop */\n      0x00\n        /* \"contracts/Shops.sol\":4237:4246  ShopsList */\n      0x0b\n        /* \"contracts/Shops.sol\":4237:4260  ShopsList[sellShopAddr] */\n      0x00\n        /* \"contracts/Shops.sol\":4247:4259  sellShopAddr */\n      dup4\n        /* \"contracts/Shops.sol\":4237:4260  ShopsList[sellShopAddr] */\n      0xffffffffffffffffffffffffffffffffffffffff\n      and\n      0xffffffffffffffffffffffffffffffffffffffff\n      and\n      dup2\n      mstore\n      0x20\n      add\n      swap1\n      dup2\n      mstore\n      0x20\n      add\n      0x00\n      keccak256\n        /* \"contracts/Shops.sol\":4214:4260  Shop memory sellShop = ShopsList[sellShopAddr] */\n      mload(0x40)\n      dup1\n      0x60\n      add\n      0x40\n      mstore\n      swap1\n      dup2\n      0x00\n      dup3\n      add\n      dup1\n      sload\n      tag_253\n      swap1\n      tag_120\n      jump\t// in\n    tag_253:\n      dup1\n      0x1f\n      add\n      0x20\n      dup1\n      swap2\n      div\n      mul\n      0x20\n      add\n      mload(0x40)\n      swap1\n      dup2\n      add\n      0x40\n      mstore\n      dup1\n      swap3\n      swap2\n      swap1\n      dup2\n      dup2\n      mstore\n      0x20\n      add\n      dup3\n      dup1\n      sload\n      tag_254\n      swap1\n      tag_120\n      jump\t// in\n    tag_254:\n      dup1\n      iszero\n      tag_255\n      jumpi\n      dup1\n      0x1f\n      lt\n      tag_256\n      jumpi\n      0x0100\n      dup1\n      dup4\n      sload\n      div\n      mul\n      dup4\n      mstore\n      swap2\n      0x20\n      add\n      swap2\n      jump(tag_255)\n    tag_256:\n      dup3\n      add\n      swap2\n      swap1\n      0x00\n      mstore\n      keccak256(0x00, 0x20)\n      swap1\n    tag_257:\n      dup2\n      sload\n      dup2\n      mstore\n      swap1\n      0x01\n      add\n      swap1\n      0x20\n      add\n      dup1\n      dup4\n      gt\n      tag_257\n      jumpi\n      dup3\n      swap1\n      sub\n      0x1f\n      and\n      dup3\n      add\n      swap2\n    tag_255:\n      pop\n      pop\n      pop\n      pop\n      pop\n      dup2\n      mstore\n      0x20\n      add\n      0x01\n      dup3\n      add\n      dup1\n      sload\n      tag_258\n      swap1\n      tag_120\n      jump\t// in\n    tag_258:\n      dup1\n      0x1f\n      add\n      0x20\n      dup1\n      swap2\n      div\n      mul\n      0x20\n      add\n      mload(0x40)\n      swap1\n      dup2\n      add\n      0x40\n      mstore\n      dup1\n      swap3\n      swap2\n      swap1\n      dup2\n      dup2\n      mstore\n      0x20\n      add\n      dup3\n      dup1\n      sload\n      tag_259\n      swap1\n      tag_120\n      jump\t// in\n    tag_259:\n      dup1\n      iszero\n      tag_260\n      jumpi\n      dup1\n      0x1f\n      lt\n      tag_261\n      jumpi\n      0x0100\n      dup1\n      dup4\n      sload\n      div\n      mul\n      dup4\n      mstore\n      swap2\n      0x20\n      add\n      swap2\n      jump(tag_260)\n    tag_261:\n      dup3\n      add\n      swap2\n      swap1\n      0x00\n      mstore\n      keccak256(0x00, 0x20)\n      swap1\n    tag_262:\n      dup2\n      sload\n      dup2\n      mstore\n      swap1\n      0x01\n      add\n      swap1\n      0x20\n      add\n      dup1\n      dup4\n      gt\n      tag_262\n      jumpi\n      dup3\n      swap1\n      sub\n      0x1f\n      and\n      dup3\n      add\n      swap2\n    tag_260:\n      pop\n      pop\n      pop\n      pop\n      pop\n      dup2\n      mstore\n      0x20\n      add\n      0x02\n      dup3\n      add\n      sload\n      dup2\n      mstore\n      pop\n      pop\n      swap1\n      pop\n        /* \"contracts/Shops.sol\":4293:4301  sellUser */\n      dup3\n        /* \"contracts/Shops.sol\":4293:4311  sellUser.userLogin */\n      0x20\n      add\n      mload\n        /* \"contracts/Shops.sol\":4279:4311  sellerLogin = sellUser.userLogin */\n      swap9\n      pop\n        /* \"contracts/Shops.sol\":4327:4335  sellUser */\n      dup3\n        /* \"contracts/Shops.sol\":4327:4339  sellUser.fio */\n      0x40\n      add\n      mload\n        /* \"contracts/Shops.sol\":4321:4339  fio = sellUser.fio */\n      swap8\n      pop\n        /* \"contracts/Shops.sol\":4356:4364  sellShop */\n      dup1\n        /* \"contracts/Shops.sol\":4356:4369  sellShop.city */\n      0x20\n      add\n      mload\n        /* \"contracts/Shops.sol\":4349:4369  city = sellShop.city */\n      swap7\n      pop\n        /* \"contracts/Shops.sol\":4392:4400  sellShop */\n      dup1\n        /* \"contracts/Shops.sol\":4392:4407  sellShop.number */\n      0x00\n      add\n      mload\n        /* \"contracts/Shops.sol\":4379:4407  shopNumber = sellShop.number */\n      swap6\n      pop\n        /* \"contracts/Shops.sol\":4427:4435  sellUser */\n      dup3\n        /* \"contracts/Shops.sol\":4427:4443  sellUser.reviews */\n      0x60\n      add\n      mload\n        /* \"contracts/Shops.sol\":4417:4443  reviews = sellUser.reviews */\n      swap5\n      pop\n        /* \"contracts/Shops.sol\":4097:4450  {... */\n      pop\n      pop\n      pop\n        /* \"contracts/Shops.sol\":3859:4450  function getSellerInfo() public view isUserStatus(UserRoles.seller) returns(... */\n      pop\n      swap1\n      swap2\n      swap3\n      swap4\n      swap5\n      jump\t// out\n        /* \"contracts/Shops.sol\":1893:2244  function registerShop(address shopAddr,string memory number,string memory city,string memory shopLogin) public isUserStatus(UserRoles.admin){... */\n    tag_62:\n        /* \"contracts/Shops.sol\":2017:2032  UserRoles.admin */\n      0x03\n        /* \"contracts/AuthService.sol\":1617:1622  users */\n      0x02\n        /* \"contracts/AuthService.sol\":1617:1634  users[msg.sender] */\n      0x00\n        /* \"contracts/AuthService.sol\":1623:1633  msg.sender */\n      caller\n        /* \"contracts/AuthService.sol\":1617:1634  users[msg.sender] */\n      0xffffffffffffffffffffffffffffffffffffffff\n      and\n      0xffffffffffffffffffffffffffffffffffffffff\n      and\n      dup2\n      mstore\n      0x20\n      add\n      swap1\n      dup2\n      mstore\n      0x20\n      add\n      0x00\n      keccak256\n        /* \"contracts/AuthService.sol\":1617:1641  users[msg.sender].status */\n      0x00\n      add\n      sload\n        /* \"contracts/AuthService.sol\":1606:1612  status */\n      dup2\n        /* \"contracts/AuthService.sol\":1601:1613  uint(status) */\n      0x05\n      dup2\n      gt\n      iszero\n      tag_264\n      jumpi\n      tag_265\n      tag_114\n      jump\t// in\n    tag_265:\n    tag_264:\n        /* \"contracts/AuthService.sol\":1601:1641  uint(status) == users[msg.sender].status */\n      eq\n        /* \"contracts/AuthService.sol\":1593:1654  require(uint(status) == users[msg.sender].status,\"Forbidden\") */\n      tag_266\n      jumpi\n      mload(0x40)\n      0x08c379a000000000000000000000000000000000000000000000000000000000\n      dup2\n      mstore\n      0x04\n      add\n      tag_267\n      swap1\n      tag_117\n      jump\t// in\n    tag_267:\n      mload(0x40)\n      dup1\n      swap2\n      sub\n      swap1\n      revert\n    tag_266:\n        /* \"contracts/Shops.sol\":2043:2059  Shop memory shop */\n      0x00\n        /* \"contracts/Shops.sol\":2062:2100  Shop({number:number,city:city,debt:0}) */\n      mload(0x40)\n      dup1\n      0x60\n      add\n      0x40\n      mstore\n      dup1\n        /* \"contracts/Shops.sol\":2075:2081  number */\n      dup7\n        /* \"contracts/Shops.sol\":2062:2100  Shop({number:number,city:city,debt:0}) */\n      dup2\n      mstore\n      0x20\n      add\n        /* \"contracts/Shops.sol\":2087:2091  city */\n      dup6\n        /* \"contracts/Shops.sol\":2062:2100  Shop({number:number,city:city,debt:0}) */\n      dup2\n      mstore\n      0x20\n      add\n        /* \"contracts/Shops.sol\":2097:2098  0 */\n      0x00\n        /* \"contracts/Shops.sol\":2062:2100  Shop({number:number,city:city,debt:0}) */\n      dup2\n      mstore\n      pop\n        /* \"contracts/Shops.sol\":2043:2100  Shop memory shop = Shop({number:number,city:city,debt:0}) */\n      swap1\n      pop\n        /* \"contracts/Shops.sol\":2132:2136  shop */\n      dup1\n        /* \"contracts/Shops.sol\":2110:2119  ShopsList */\n      0x0b\n        /* \"contracts/Shops.sol\":2110:2129  ShopsList[shopAddr] */\n      0x00\n        /* \"contracts/Shops.sol\":2120:2128  shopAddr */\n      dup9\n        /* \"contracts/Shops.sol\":2110:2129  ShopsList[shopAddr] */\n      0xffffffffffffffffffffffffffffffffffffffff\n      and\n      0xffffffffffffffffffffffffffffffffffffffff\n      and\n      dup2\n      mstore\n      0x20\n      add\n      swap1\n      dup2\n      mstore\n      0x20\n      add\n      0x00\n      keccak256\n        /* \"contracts/Shops.sol\":2110:2136  ShopsList[shopAddr] = shop */\n      0x00\n      dup3\n      add\n      mload\n      dup2\n      0x00\n      add\n      swap1\n      dup1\n      mload\n      swap1\n      0x20\n      add\n      swap1\n      tag_269\n      swap3\n      swap2\n      swap1\n      tag_179\n      jump\t// in\n    tag_269:\n      pop\n      0x20\n      dup3\n      add\n      mload\n      dup2\n      0x01\n      add\n      swap1\n      dup1\n      mload\n      swap1\n      0x20\n      add\n      swap1\n      tag_270\n      swap3\n      swap2\n      swap1\n      tag_179\n      jump\t// in\n    tag_270:\n      pop\n      0x40\n      dup3\n      add\n      mload\n      dup2\n      0x02\n      add\n      sstore\n      swap1\n      pop\n      pop\n        /* \"contracts/Shops.sol\":2146:2157  uint status */\n      0x00\n        /* \"contracts/Shops.sol\":2165:2179  UserRoles.shop */\n      0x02\n        /* \"contracts/Shops.sol\":2160:2180  uint(UserRoles.shop) */\n      0x05\n      dup2\n      gt\n      iszero\n      tag_271\n      jumpi\n      tag_272\n      tag_114\n      jump\t// in\n    tag_272:\n    tag_271:\n        /* \"contracts/Shops.sol\":2146:2180  uint status = uint(UserRoles.shop) */\n      swap1\n      pop\n        /* \"contracts/Shops.sol\":2190:2237  registerFromAdmin(\"\",shopLogin,status,shopAddr) */\n      tag_273\n      mload(0x40)\n      dup1\n      0x20\n      add\n      0x40\n      mstore\n      dup1\n      0x00\n      dup2\n      mstore\n      pop\n        /* \"contracts/Shops.sol\":2211:2220  shopLogin */\n      dup6\n        /* \"contracts/Shops.sol\":2221:2227  status */\n      dup4\n        /* \"contracts/Shops.sol\":2228:2236  shopAddr */\n      dup11\n        /* \"contracts/Shops.sol\":2190:2207  registerFromAdmin */\n      tag_164\n        /* \"contracts/Shops.sol\":2190:2237  registerFromAdmin(\"\",shopLogin,status,shopAddr) */\n      jump\t// in\n    tag_273:\n        /* \"contracts/Shops.sol\":2033:2244  {... */\n      pop\n      pop\n        /* \"contracts/Shops.sol\":1893:2244  function registerShop(address shopAddr,string memory number,string memory city,string memory shopLogin) public isUserStatus(UserRoles.admin){... */\n      pop\n      pop\n      pop\n      pop\n      pop\n      jump\t// out\n        /* \"contracts/Shops.sol\":6557:6790  function likeReview(string memory id) public isUser {... */\n    tag_65:\n        /* \"contracts/AuthService.sol\":1465:1504  compare(users[msg.sender].userLogin,\"\") */\n      tag_275\n        /* \"contracts/AuthService.sol\":1473:1478  users */\n      0x02\n        /* \"contracts/AuthService.sol\":1473:1490  users[msg.sender] */\n      0x00\n        /* \"contracts/AuthService.sol\":1479:1489  msg.sender */\n      caller\n        /* \"contracts/AuthService.sol\":1473:1490  users[msg.sender] */\n      0xffffffffffffffffffffffffffffffffffffffff\n      and\n      0xffffffffffffffffffffffffffffffffffffffff\n      and\n      dup2\n      mstore\n      0x20\n      add\n      swap1\n      dup2\n      mstore\n      0x20\n      add\n      0x00\n      keccak256\n        /* \"contracts/AuthService.sol\":1473:1500  users[msg.sender].userLogin */\n      0x01\n      add\n        /* \"contracts/AuthService.sol\":1465:1504  compare(users[msg.sender].userLogin,\"\") */\n      dup1\n      sload\n      tag_276\n      swap1\n      tag_120\n      jump\t// in\n    tag_276:\n      dup1\n      0x1f\n      add\n      0x20\n      dup1\n      swap2\n      div\n      mul\n      0x20\n      add\n      mload(0x40)\n      swap1\n      dup2\n      add\n      0x40\n      mstore\n      dup1\n      swap3\n      swap2\n      swap1\n      dup2\n      dup2\n      mstore\n      0x20\n      add\n      dup3\n      dup1\n      sload\n      tag_277\n      swap1\n      tag_120\n      jump\t// in\n    tag_277:\n      dup1\n      iszero\n      tag_278\n      jumpi\n      dup1\n      0x1f\n      lt\n      tag_279\n      jumpi\n      0x0100\n      dup1\n      dup4\n      sload\n      div\n      mul\n      dup4\n      mstore\n      swap2\n      0x20\n      add\n      swap2\n      jump(tag_278)\n    tag_279:\n      dup3\n      add\n      swap2\n      swap1\n      0x00\n      mstore\n      keccak256(0x00, 0x20)\n      swap1\n    tag_280:\n      dup2\n      sload\n      dup2\n      mstore\n      swap1\n      0x01\n      add\n      swap1\n      0x20\n      add\n      dup1\n      dup4\n      gt\n      tag_280\n      jumpi\n      dup3\n      swap1\n      sub\n      0x1f\n      and\n      dup3\n      add\n      swap2\n    tag_278:\n      pop\n      pop\n      pop\n      pop\n      pop\n      mload(0x40)\n      dup1\n      0x20\n      add\n      0x40\n      mstore\n      dup1\n      0x00\n      dup2\n      mstore\n      pop\n        /* \"contracts/AuthService.sol\":1465:1472  compare */\n      tag_172\n        /* \"contracts/AuthService.sol\":1465:1504  compare(users[msg.sender].userLogin,\"\") */\n      jump\t// in\n    tag_275:\n        /* \"contracts/AuthService.sol\":1464:1504  !compare(users[msg.sender].userLogin,\"\") */\n      iszero\n        /* \"contracts/AuthService.sol\":1456:1520  require(!compare(users[msg.sender].userLogin,\"\"),\"You not user\") */\n      tag_281\n      jumpi\n      mload(0x40)\n      0x08c379a000000000000000000000000000000000000000000000000000000000\n      dup2\n      mstore\n      0x04\n      add\n      tag_282\n      swap1\n      tag_175\n      jump\t// in\n    tag_282:\n      mload(0x40)\n      dup1\n      swap2\n      sub\n      swap1\n      revert\n    tag_281:\n        /* \"contracts/Shops.sol\":6656:6661  false */\n      0x00\n        /* \"contracts/Shops.sol\":6627:6661  reviewCom[id][msg.sender] == false */\n      iszero\n      iszero\n        /* \"contracts/Shops.sol\":6627:6636  reviewCom */\n      0x11\n        /* \"contracts/Shops.sol\":6637:6639  id */\n      dup3\n        /* \"contracts/Shops.sol\":6627:6640  reviewCom[id] */\n      mload(0x40)\n      tag_284\n      swap2\n      swap1\n      tag_183\n      jump\t// in\n    tag_284:\n      swap1\n      dup2\n      mstore\n      0x20\n      add\n      mload(0x40)\n      dup1\n      swap2\n      sub\n      swap1\n      keccak256\n        /* \"contracts/Shops.sol\":6627:6652  reviewCom[id][msg.sender] */\n      0x00\n        /* \"contracts/Shops.sol\":6641:6651  msg.sender */\n      caller\n        /* \"contracts/Shops.sol\":6627:6652  reviewCom[id][msg.sender] */\n      0xffffffffffffffffffffffffffffffffffffffff\n      and\n      0xffffffffffffffffffffffffffffffffffffffff\n      and\n      dup2\n      mstore\n      0x20\n      add\n      swap1\n      dup2\n      mstore\n      0x20\n      add\n      0x00\n      keccak256\n      0x00\n      swap1\n      sload\n      swap1\n      0x0100\n      exp\n      swap1\n      div\n      0xff\n      and\n        /* \"contracts/Shops.sol\":6627:6661  reviewCom[id][msg.sender] == false */\n      iszero\n      iszero\n      eq\n        /* \"contracts/Shops.sol\":6619:6692  require(reviewCom[id][msg.sender] == false,\"You already check this case\") */\n      tag_285\n      jumpi\n      mload(0x40)\n      0x08c379a000000000000000000000000000000000000000000000000000000000\n      dup2\n      mstore\n      0x04\n      add\n      tag_286\n      swap1\n      tag_287\n      jump\t// in\n    tag_286:\n      mload(0x40)\n      dup1\n      swap2\n      sub\n      swap1\n      revert\n    tag_285:\n        /* \"contracts/Shops.sol\":6702:6710  reviewId */\n      0x0f\n        /* \"contracts/Shops.sol\":6711:6713  id */\n      dup2\n        /* \"contracts/Shops.sol\":6702:6714  reviewId[id] */\n      mload(0x40)\n      tag_288\n      swap2\n      swap1\n      tag_183\n      jump\t// in\n    tag_288:\n      swap1\n      dup2\n      mstore\n      0x20\n      add\n      mload(0x40)\n      dup1\n      swap2\n      sub\n      swap1\n      keccak256\n        /* \"contracts/Shops.sol\":6702:6724  reviewId[id].likeCount */\n      0x03\n      add\n        /* \"contracts/Shops.sol\":6730:6740  msg.sender */\n      caller\n        /* \"contracts/Shops.sol\":6702:6741  reviewId[id].likeCount.push(msg.sender) */\n      swap1\n      dup1\n      0x01\n      dup2\n      sload\n      add\n      dup1\n      dup3\n      sstore\n      dup1\n      swap2\n      pop\n      pop\n      0x01\n      swap1\n      sub\n      swap1\n      0x00\n      mstore\n      keccak256(0x00, 0x20)\n      add\n      0x00\n      swap1\n      swap2\n      swap1\n      swap2\n      swap1\n      swap2\n      0x0100\n      exp\n      dup2\n      sload\n      dup2\n      0xffffffffffffffffffffffffffffffffffffffff\n      mul\n      not\n      and\n      swap1\n      dup4\n      0xffffffffffffffffffffffffffffffffffffffff\n      and\n      mul\n      or\n      swap1\n      sstore\n      pop\n        /* \"contracts/Shops.sol\":6779:6783  true */\n      0x01\n        /* \"contracts/Shops.sol\":6751:6760  reviewCom */\n      0x11\n        /* \"contracts/Shops.sol\":6761:6763  id */\n      dup3\n        /* \"contracts/Shops.sol\":6751:6764  reviewCom[id] */\n      mload(0x40)\n      tag_290\n      swap2\n      swap1\n      tag_183\n      jump\t// in\n    tag_290:\n      swap1\n      dup2\n      mstore\n      0x20\n      add\n      mload(0x40)\n      dup1\n      swap2\n      sub\n      swap1\n      keccak256\n        /* \"contracts/Shops.sol\":6751:6776  reviewCom[id][msg.sender] */\n      0x00\n        /* \"contracts/Shops.sol\":6765:6775  msg.sender */\n      caller\n        /* \"contracts/Shops.sol\":6751:6776  reviewCom[id][msg.sender] */\n      0xffffffffffffffffffffffffffffffffffffffff\n      and\n      0xffffffffffffffffffffffffffffffffffffffff\n      and\n      dup2\n      mstore\n      0x20\n      add\n      swap1\n      dup2\n      mstore\n      0x20\n      add\n      0x00\n      keccak256\n      0x00\n        /* \"contracts/Shops.sol\":6751:6783  reviewCom[id][msg.sender] = true */\n      0x0100\n      exp\n      dup2\n      sload\n      dup2\n      0xff\n      mul\n      not\n      and\n      swap1\n      dup4\n      iszero\n      iszero\n      mul\n      or\n      swap1\n      sstore\n      pop\n        /* \"contracts/Shops.sol\":6557:6790  function likeReview(string memory id) public isUser {... */\n      pop\n      jump\t// out\n        /* \"contracts/Shops.sol\":2344:2588  function registerProvider(string memory providerLogin,address providerAddr) public isAdmin {... */\n    tag_68:\n        /* \"contracts/Shops.sol\":1100:1105  admin */\n      0x05\n      0x00\n      swap1\n      sload\n      swap1\n      0x0100\n      exp\n      swap1\n      div\n      0xffffffffffffffffffffffffffffffffffffffff\n      and\n        /* \"contracts/Shops.sol\":1086:1105  msg.sender == admin */\n      0xffffffffffffffffffffffffffffffffffffffff\n      and\n        /* \"contracts/Shops.sol\":1086:1096  msg.sender */\n      caller\n        /* \"contracts/Shops.sol\":1086:1105  msg.sender == admin */\n      0xffffffffffffffffffffffffffffffffffffffff\n      and\n      eq\n        /* \"contracts/Shops.sol\":1078:1122  require(msg.sender == admin,\"You not admin\") */\n      tag_292\n      jumpi\n      mload(0x40)\n      0x08c379a000000000000000000000000000000000000000000000000000000000\n      dup2\n      mstore\n      0x04\n      add\n      tag_293\n      swap1\n      tag_159\n      jump\t// in\n    tag_293:\n      mload(0x40)\n      dup1\n      swap2\n      sub\n      swap1\n      revert\n    tag_292:\n        /* \"contracts/Shops.sol\":2445:2456  uint status */\n      0x00\n        /* \"contracts/Shops.sol\":2464:2482  UserRoles.provider */\n      0x04\n        /* \"contracts/Shops.sol\":2459:2483  uint(UserRoles.provider) */\n      0x05\n      dup2\n      gt\n      iszero\n      tag_295\n      jumpi\n      tag_296\n      tag_114\n      jump\t// in\n    tag_296:\n    tag_295:\n        /* \"contracts/Shops.sol\":2445:2483  uint status = uint(UserRoles.provider) */\n      swap1\n      pop\n        /* \"contracts/Shops.sol\":2493:2548  registerFromAdmin(\"\",providerLogin,status,providerAddr) */\n      tag_297\n      mload(0x40)\n      dup1\n      0x20\n      add\n      0x40\n      mstore\n      dup1\n      0x00\n      dup2\n      mstore\n      pop\n        /* \"contracts/Shops.sol\":2514:2527  providerLogin */\n      dup5\n        /* \"contracts/Shops.sol\":2528:2534  status */\n      dup4\n        /* \"contracts/Shops.sol\":2535:2547  providerAddr */\n      dup6\n        /* \"contracts/Shops.sol\":2493:2510  registerFromAdmin */\n      tag_164\n        /* \"contracts/Shops.sol\":2493:2548  registerFromAdmin(\"\",providerLogin,status,providerAddr) */\n      jump\t// in\n    tag_297:\n        /* \"contracts/Shops.sol\":2569:2581  providerAddr */\n      dup2\n        /* \"contracts/Shops.sol\":2558:2566  provider */\n      0x04\n      0x00\n        /* \"contracts/Shops.sol\":2558:2581  provider = providerAddr */\n      0x0100\n      exp\n      dup2\n      sload\n      dup2\n      0xffffffffffffffffffffffffffffffffffffffff\n      mul\n      not\n      and\n      swap1\n      dup4\n      0xffffffffffffffffffffffffffffffffffffffff\n      and\n      mul\n      or\n      swap1\n      sstore\n      pop\n        /* \"contracts/Shops.sol\":2435:2588  {... */\n      pop\n        /* \"contracts/Shops.sol\":2344:2588  function registerProvider(string memory providerLogin,address providerAddr) public isAdmin {... */\n      pop\n      pop\n      jump\t// out\n        /* \"contracts/Shops.sol\":3580:3783  function doShopDebt(address payable shopAddr) public isUserStatus(UserRoles.bank) {... */\n    tag_72:\n        /* \"contracts/Shops.sol\":3646:3660  UserRoles.bank */\n      0x05\n        /* \"contracts/AuthService.sol\":1617:1622  users */\n      0x02\n        /* \"contracts/AuthService.sol\":1617:1634  users[msg.sender] */\n      0x00\n        /* \"contracts/AuthService.sol\":1623:1633  msg.sender */\n      caller\n        /* \"contracts/AuthService.sol\":1617:1634  users[msg.sender] */\n      0xffffffffffffffffffffffffffffffffffffffff\n      and\n      0xffffffffffffffffffffffffffffffffffffffff\n      and\n      dup2\n      mstore\n      0x20\n      add\n      swap1\n      dup2\n      mstore\n      0x20\n      add\n      0x00\n      keccak256\n        /* \"contracts/AuthService.sol\":1617:1641  users[msg.sender].status */\n      0x00\n      add\n      sload\n        /* \"contracts/AuthService.sol\":1606:1612  status */\n      dup2\n        /* \"contracts/AuthService.sol\":1601:1613  uint(status) */\n      0x05\n      dup2\n      gt\n      iszero\n      tag_299\n      jumpi\n      tag_300\n      tag_114\n      jump\t// in\n    tag_300:\n    tag_299:\n        /* \"contracts/AuthService.sol\":1601:1641  uint(status) == users[msg.sender].status */\n      eq\n        /* \"contracts/AuthService.sol\":1593:1654  require(uint(status) == users[msg.sender].status,\"Forbidden\") */\n      tag_301\n      jumpi\n      mload(0x40)\n      0x08c379a000000000000000000000000000000000000000000000000000000000\n      dup2\n      mstore\n      0x04\n      add\n      tag_302\n      swap1\n      tag_117\n      jump\t// in\n    tag_302:\n      mload(0x40)\n      dup1\n      swap2\n      sub\n      swap1\n      revert\n    tag_301:\n        /* \"contracts/Shops.sol\":3711:3721  1000 ether */\n      0x3635c9adc5dea00000\n        /* \"contracts/Shops.sol\":3688:3698  msg.sender */\n      caller\n        /* \"contracts/Shops.sol\":3680:3707  payable(msg.sender).balance */\n      0xffffffffffffffffffffffffffffffffffffffff\n      and\n      balance\n        /* \"contracts/Shops.sol\":3680:3721  payable(msg.sender).balance >= 1000 ether */\n      lt\n      iszero\n        /* \"contracts/Shops.sol\":3672:3736  require(payable(msg.sender).balance >= 1000 ether,\"Low balance\") */\n      tag_304\n      jumpi\n      mload(0x40)\n      0x08c379a000000000000000000000000000000000000000000000000000000000\n      dup2\n      mstore\n      0x04\n      add\n      tag_305\n      swap1\n      tag_306\n      jump\t// in\n    tag_305:\n      mload(0x40)\n      dup1\n      swap2\n      sub\n      swap1\n      revert\n    tag_304:\n        /* \"contracts/Shops.sol\":3746:3754  shopAddr */\n      dup2\n        /* \"contracts/Shops.sol\":3746:3763  shopAddr.transfer */\n      0xffffffffffffffffffffffffffffffffffffffff\n      and\n        /* \"contracts/Shops.sol\":3746:3775  shopAddr.transfer(1000 ether) */\n      0x08fc\n        /* \"contracts/Shops.sol\":3764:3774  1000 ether */\n      0x3635c9adc5dea00000\n        /* \"contracts/Shops.sol\":3746:3775  shopAddr.transfer(1000 ether) */\n      swap1\n      dup2\n      iszero\n      mul\n      swap1\n      mload(0x40)\n      0x00\n      mload(0x40)\n      dup1\n      dup4\n      sub\n      dup2\n      dup6\n      dup9\n      dup9\n      call\n      swap4\n      pop\n      pop\n      pop\n      pop\n      iszero\n      dup1\n      iszero\n      tag_308\n      jumpi\n      returndatasize\n      0x00\n      dup1\n      returndatacopy\n      revert(0x00, returndatasize)\n    tag_308:\n      pop\n        /* \"contracts/Shops.sol\":3580:3783  function doShopDebt(address payable shopAddr) public isUserStatus(UserRoles.bank) {... */\n      pop\n      pop\n      jump\t// out\n        /* \"contracts/Shops.sol\":2913:3219  function registerSeller(string memory fio,string memory userLogin,address userAddress,address shopAddr) public {... */\n    tag_76:\n        /* \"contracts/Shops.sol\":3034:3045  uint status */\n      0x00\n        /* \"contracts/Shops.sol\":3053:3069  UserRoles.seller */\n      0x01\n        /* \"contracts/Shops.sol\":3048:3070  uint(UserRoles.seller) */\n      0x05\n      dup2\n      gt\n      iszero\n      tag_310\n      jumpi\n      tag_311\n      tag_114\n      jump\t// in\n    tag_311:\n    tag_310:\n        /* \"contracts/Shops.sol\":3034:3070  uint status = uint(UserRoles.seller) */\n      swap1\n      pop\n        /* \"contracts/Shops.sol\":3080:3131  registerFromAdmin(fio,userLogin,status,userAddress) */\n      tag_312\n        /* \"contracts/Shops.sol\":3098:3101  fio */\n      dup6\n        /* \"contracts/Shops.sol\":3102:3111  userLogin */\n      dup6\n        /* \"contracts/Shops.sol\":3112:3118  status */\n      dup4\n        /* \"contracts/Shops.sol\":3119:3130  userAddress */\n      dup7\n        /* \"contracts/Shops.sol\":3080:3097  registerFromAdmin */\n      tag_164\n        /* \"contracts/Shops.sol\":3080:3131  registerFromAdmin(fio,userLogin,status,userAddress) */\n      jump\t// in\n    tag_312:\n        /* \"contracts/Shops.sol\":3141:3148  sellers */\n      0x08\n        /* \"contracts/Shops.sol\":3154:3165  userAddress */\n      dup4\n        /* \"contracts/Shops.sol\":3141:3166  sellers.push(userAddress) */\n      swap1\n      dup1\n      0x01\n      dup2\n      sload\n      add\n      dup1\n      dup3\n      sstore\n      dup1\n      swap2\n      pop\n      pop\n      0x01\n      swap1\n      sub\n      swap1\n      0x00\n      mstore\n      keccak256(0x00, 0x20)\n      add\n      0x00\n      swap1\n      swap2\n      swap1\n      swap2\n      swap1\n      swap2\n      0x0100\n      exp\n      dup2\n      sload\n      dup2\n      0xffffffffffffffffffffffffffffffffffffffff\n      mul\n      not\n      and\n      swap1\n      dup4\n      0xffffffffffffffffffffffffffffffffffffffff\n      and\n      mul\n      or\n      swap1\n      sstore\n      pop\n        /* \"contracts/Shops.sol\":3176:3184  salesmen */\n      0x0d\n        /* \"contracts/Shops.sol\":3176:3194  salesmen[shopAddr] */\n      0x00\n        /* \"contracts/Shops.sol\":3185:3193  shopAddr */\n      dup4\n        /* \"contracts/Shops.sol\":3176:3194  salesmen[shopAddr] */\n      0xffffffffffffffffffffffffffffffffffffffff\n      and\n      0xffffffffffffffffffffffffffffffffffffffff\n      and\n      dup2\n      mstore\n      0x20\n      add\n      swap1\n      dup2\n      mstore\n      0x20\n      add\n      0x00\n      keccak256\n        /* \"contracts/Shops.sol\":3200:3211  userAddress */\n      dup4\n        /* \"contracts/Shops.sol\":3176:3212  salesmen[shopAddr].push(userAddress) */\n      swap1\n      dup1\n      0x01\n      dup2\n      sload\n      add\n      dup1\n      dup3\n      sstore\n      dup1\n      swap2\n      pop\n      pop\n      0x01\n      swap1\n      sub\n      swap1\n      0x00\n      mstore\n      keccak256(0x00, 0x20)\n      add\n      0x00\n      swap1\n      swap2\n      swap1\n      swap2\n      swap1\n      swap2\n      0x0100\n      exp\n      dup2\n      sload\n      dup2\n      0xffffffffffffffffffffffffffffffffffffffff\n      mul\n      not\n      and\n      swap1\n      dup4\n      0xffffffffffffffffffffffffffffffffffffffff\n      and\n      mul\n      or\n      swap1\n      sstore\n      pop\n        /* \"contracts/Shops.sol\":3024:3219  {... */\n      pop\n        /* \"contracts/Shops.sol\":2913:3219  function registerSeller(string memory fio,string memory userLogin,address userAddress,address shopAddr) public {... */\n      pop\n      pop\n      pop\n      pop\n      jump\t// out\n        /* \"contracts/Shops.sol\":4549:4913  function getBuyerInfo() public view isUser returns(... */\n    tag_78:\n        /* \"contracts/Shops.sol\":4609:4632  string memory userLogin */\n      0x60\n        /* \"contracts/Shops.sol\":4642:4659  string memory fio */\n      dup1\n        /* \"contracts/Shops.sol\":4669:4681  uint balance */\n      0x00\n        /* \"contracts/Shops.sol\":4691:4714  string[] memory reviews */\n      0x60\n        /* \"contracts/AuthService.sol\":1465:1504  compare(users[msg.sender].userLogin,\"\") */\n      tag_316\n        /* \"contracts/AuthService.sol\":1473:1478  users */\n      0x02\n        /* \"contracts/AuthService.sol\":1473:1490  users[msg.sender] */\n      0x00\n        /* \"contracts/AuthService.sol\":1479:1489  msg.sender */\n      caller\n        /* \"contracts/AuthService.sol\":1473:1490  users[msg.sender] */\n      0xffffffffffffffffffffffffffffffffffffffff\n      and\n      0xffffffffffffffffffffffffffffffffffffffff\n      and\n      dup2\n      mstore\n      0x20\n      add\n      swap1\n      dup2\n      mstore\n      0x20\n      add\n      0x00\n      keccak256\n        /* \"contracts/AuthService.sol\":1473:1500  users[msg.sender].userLogin */\n      0x01\n      add\n        /* \"contracts/AuthService.sol\":1465:1504  compare(users[msg.sender].userLogin,\"\") */\n      dup1\n      sload\n      tag_317\n      swap1\n      tag_120\n      jump\t// in\n    tag_317:\n      dup1\n      0x1f\n      add\n      0x20\n      dup1\n      swap2\n      div\n      mul\n      0x20\n      add\n      mload(0x40)\n      swap1\n      dup2\n      add\n      0x40\n      mstore\n      dup1\n      swap3\n      swap2\n      swap1\n      dup2\n      dup2\n      mstore\n      0x20\n      add\n      dup3\n      dup1\n      sload\n      tag_318\n      swap1\n      tag_120\n      jump\t// in\n    tag_318:\n      dup1\n      iszero\n      tag_319\n      jumpi\n      dup1\n      0x1f\n      lt\n      tag_320\n      jumpi\n      0x0100\n      dup1\n      dup4\n      sload\n      div\n      mul\n      dup4\n      mstore\n      swap2\n      0x20\n      add\n      swap2\n      jump(tag_319)\n    tag_320:\n      dup3\n      add\n      swap2\n      swap1\n      0x00\n      mstore\n      keccak256(0x00, 0x20)\n      swap1\n    tag_321:\n      dup2\n      sload\n      dup2\n      mstore\n      swap1\n      0x01\n      add\n      swap1\n      0x20\n      add\n      dup1\n      dup4\n      gt\n      tag_321\n      jumpi\n      dup3\n      swap1\n      sub\n      0x1f\n      and\n      dup3\n      add\n      swap2\n    tag_319:\n      pop\n      pop\n      pop\n      pop\n      pop\n      mload(0x40)\n      dup1\n      0x20\n      add\n      0x40\n      mstore\n      dup1\n      0x00\n      dup2\n      mstore\n      pop\n        /* \"contracts/AuthService.sol\":1465:1472  compare */\n      tag_172\n        /* \"contracts/AuthService.sol\":1465:1504  compare(users[msg.sender].userLogin,\"\") */\n      jump\t// in\n    tag_316:\n        /* \"contracts/AuthService.sol\":1464:1504  !compare(users[msg.sender].userLogin,\"\") */\n      iszero\n        /* \"contracts/AuthService.sol\":1456:1520  require(!compare(users[msg.sender].userLogin,\"\"),\"You not user\") */\n      tag_322\n      jumpi\n      mload(0x40)\n      0x08c379a000000000000000000000000000000000000000000000000000000000\n      dup2\n      mstore\n      0x04\n      add\n      tag_323\n      swap1\n      tag_175\n      jump\t// in\n    tag_323:\n      mload(0x40)\n      dup1\n      swap2\n      sub\n      swap1\n      revert\n    tag_322:\n        /* \"contracts/Shops.sol\":4730:4746  User memory user */\n      0x00\n        /* \"contracts/Shops.sol\":4749:4754  users */\n      0x02\n        /* \"contracts/Shops.sol\":4749:4766  users[msg.sender] */\n      0x00\n        /* \"contracts/Shops.sol\":4755:4765  msg.sender */\n      caller\n        /* \"contracts/Shops.sol\":4749:4766  users[msg.sender] */\n      0xffffffffffffffffffffffffffffffffffffffff\n      and\n      0xffffffffffffffffffffffffffffffffffffffff\n      and\n      dup2\n      mstore\n      0x20\n      add\n      swap1\n      dup2\n      mstore\n      0x20\n      add\n      0x00\n      keccak256\n        /* \"contracts/Shops.sol\":4730:4766  User memory user = users[msg.sender] */\n      mload(0x40)\n      dup1\n      0x80\n      add\n      0x40\n      mstore\n      swap1\n      dup2\n      0x00\n      dup3\n      add\n      sload\n      dup2\n      mstore\n      0x20\n      add\n      0x01\n      dup3\n      add\n      dup1\n      sload\n      tag_325\n      swap1\n      tag_120\n      jump\t// in\n    tag_325:\n      dup1\n      0x1f\n      add\n      0x20\n      dup1\n      swap2\n      div\n      mul\n      0x20\n      add\n      mload(0x40)\n      swap1\n      dup2\n      add\n      0x40\n      mstore\n      dup1\n      swap3\n      swap2\n      swap1\n      dup2\n      dup2\n      mstore\n      0x20\n      add\n      dup3\n      dup1\n      sload\n      tag_326\n      swap1\n      tag_120\n      jump\t// in\n    tag_326:\n      dup1\n      iszero\n      tag_327\n      jumpi\n      dup1\n      0x1f\n      lt\n      tag_328\n      jumpi\n      0x0100\n      dup1\n      dup4\n      sload\n      div\n      mul\n      dup4\n      mstore\n      swap2\n      0x20\n      add\n      swap2\n      jump(tag_327)\n    tag_328:\n      dup3\n      add\n      swap2\n      swap1\n      0x00\n      mstore\n      keccak256(0x00, 0x20)\n      swap1\n    tag_329:\n      dup2\n      sload\n      dup2\n      mstore\n      swap1\n      0x01\n      add\n      swap1\n      0x20\n      add\n      dup1\n      dup4\n      gt\n      tag_329\n      jumpi\n      dup3\n      swap1\n      sub\n      0x1f\n      and\n      dup3\n      add\n      swap2\n    tag_327:\n      pop\n      pop\n      pop\n      pop\n      pop\n      dup2\n      mstore\n      0x20\n      add\n      0x02\n      dup3\n      add\n      dup1\n      sload\n      tag_330\n      swap1\n      tag_120\n      jump\t// in\n    tag_330:\n      dup1\n      0x1f\n      add\n      0x20\n      dup1\n      swap2\n      div\n      mul\n      0x20\n      add\n      mload(0x40)\n      swap1\n      dup2\n      add\n      0x40\n      mstore\n      dup1\n      swap3\n      swap2\n      swap1\n      dup2\n      dup2\n      mstore\n      0x20\n      add\n      dup3\n      dup1\n      sload\n      tag_331\n      swap1\n      tag_120\n      jump\t// in\n    tag_331:\n      dup1\n      iszero\n      tag_332\n      jumpi\n      dup1\n      0x1f\n      lt\n      tag_333\n      jumpi\n      0x0100\n      dup1\n      dup4\n      sload\n      div\n      mul\n      dup4\n      mstore\n      swap2\n      0x20\n      add\n      swap2\n      jump(tag_332)\n    tag_333:\n      dup3\n      add\n      swap2\n      swap1\n      0x00\n      mstore\n      keccak256(0x00, 0x20)\n      swap1\n    tag_334:\n      dup2\n      sload\n      dup2\n      mstore\n      swap1\n      0x01\n      add\n      swap1\n      0x20\n      add\n      dup1\n      dup4\n      gt\n      tag_334\n      jumpi\n      dup3\n      swap1\n      sub\n      0x1f\n      and\n      dup3\n      add\n      swap2\n    tag_332:\n      pop\n      pop\n      pop\n      pop\n      pop\n      dup2\n      mstore\n      0x20\n      add\n      0x03\n      dup3\n      add\n      dup1\n      sload\n      dup1\n      0x20\n      mul\n      0x20\n      add\n      mload(0x40)\n      swap1\n      dup2\n      add\n      0x40\n      mstore\n      dup1\n      swap3\n      swap2\n      swap1\n      dup2\n      dup2\n      mstore\n      0x20\n      add\n      0x00\n      swap1\n    tag_335:\n      dup3\n      dup3\n      lt\n      iszero\n      tag_336\n      jumpi\n      dup4\n      dup3\n      swap1\n      0x00\n      mstore\n      keccak256(0x00, 0x20)\n      add\n      dup1\n      sload\n      tag_338\n      swap1\n      tag_120\n      jump\t// in\n    tag_338:\n      dup1\n      0x1f\n      add\n      0x20\n      dup1\n      swap2\n      div\n      mul\n      0x20\n      add\n      mload(0x40)\n      swap1\n      dup2\n      add\n      0x40\n      mstore\n      dup1\n      swap3\n      swap2\n      swap1\n      dup2\n      dup2\n      mstore\n      0x20\n      add\n      dup3\n      dup1\n      sload\n      tag_339\n      swap1\n      tag_120\n      jump\t// in\n    tag_339:\n      dup1\n      iszero\n      tag_340\n      jumpi\n      dup1\n      0x1f\n      lt\n      tag_341\n      jumpi\n      0x0100\n      dup1\n      dup4\n      sload\n      div\n      mul\n      dup4\n      mstore\n      swap2\n      0x20\n      add\n      swap2\n      jump(tag_340)\n    tag_341:\n      dup3\n      add\n      swap2\n      swap1\n      0x00\n      mstore\n      keccak256(0x00, 0x20)\n      swap1\n    tag_342:\n      dup2\n      sload\n      dup2\n      mstore\n      swap1\n      0x01\n      add\n      swap1\n      0x20\n      add\n      dup1\n      dup4\n      gt\n      tag_342\n      jumpi\n      dup3\n      swap1\n      sub\n      0x1f\n      and\n      dup3\n      add\n      swap2\n    tag_340:\n      pop\n      pop\n      pop\n      pop\n      pop\n      dup2\n      mstore\n      0x20\n      add\n      swap1\n      0x01\n      add\n      swap1\n      jump(tag_335)\n    tag_336:\n      pop\n      pop\n      pop\n      pop\n      dup2\n      mstore\n      pop\n      pop\n      swap1\n      pop\n        /* \"contracts/Shops.sol\":4789:4793  user */\n      dup1\n        /* \"contracts/Shops.sol\":4789:4803  user.userLogin */\n      0x20\n      add\n      mload\n        /* \"contracts/Shops.sol\":4777:4803  userLogin = user.userLogin */\n      swap5\n      pop\n        /* \"contracts/Shops.sol\":4819:4823  user */\n      dup1\n        /* \"contracts/Shops.sol\":4819:4827  user.fio */\n      0x40\n      add\n      mload\n        /* \"contracts/Shops.sol\":4813:4827  fio = user.fio */\n      swap4\n      pop\n        /* \"contracts/Shops.sol\":4855:4865  msg.sender */\n      caller\n        /* \"contracts/Shops.sol\":4847:4874  payable(msg.sender).balance */\n      0xffffffffffffffffffffffffffffffffffffffff\n      and\n      balance\n        /* \"contracts/Shops.sol\":4837:4874  balance = payable(msg.sender).balance */\n      swap3\n      pop\n        /* \"contracts/Shops.sol\":4894:4898  user */\n      dup1\n        /* \"contracts/Shops.sol\":4894:4906  user.reviews */\n      0x60\n      add\n      mload\n        /* \"contracts/Shops.sol\":4884:4906  reviews = user.reviews */\n      swap2\n      pop\n        /* \"contracts/Shops.sol\":4720:4913  {... */\n      pop\n        /* \"contracts/Shops.sol\":4549:4913  function getBuyerInfo() public view isUser returns(... */\n      swap1\n      swap2\n      swap3\n      swap4\n      jump\t// out\n        /* \"contracts/Shops.sol\":3286:3485  function registerBuyer(string memory fio,string memory userLogin,address userAddr) public{... */\n    tag_84:\n        /* \"contracts/Shops.sol\":3385:3396  uint status */\n      0x00\n        /* \"contracts/Shops.sol\":3404:3419  UserRoles.buyer */\n      dup1\n        /* \"contracts/Shops.sol\":3399:3420  uint(UserRoles.buyer) */\n      0x05\n      dup2\n      gt\n      iszero\n      tag_344\n      jumpi\n      tag_345\n      tag_114\n      jump\t// in\n    tag_345:\n    tag_344:\n        /* \"contracts/Shops.sol\":3385:3420  uint status = uint(UserRoles.buyer) */\n      swap1\n      pop\n        /* \"contracts/Shops.sol\":3430:3478  registerFromAdmin(fio,userLogin,status,userAddr) */\n      tag_346\n        /* \"contracts/Shops.sol\":3448:3451  fio */\n      dup5\n        /* \"contracts/Shops.sol\":3452:3461  userLogin */\n      dup5\n        /* \"contracts/Shops.sol\":3462:3468  status */\n      dup4\n        /* \"contracts/Shops.sol\":3469:3477  userAddr */\n      dup6\n        /* \"contracts/Shops.sol\":3430:3447  registerFromAdmin */\n      tag_164\n        /* \"contracts/Shops.sol\":3430:3478  registerFromAdmin(fio,userLogin,status,userAddr) */\n      jump\t// in\n    tag_346:\n        /* \"contracts/Shops.sol\":3375:3485  {... */\n      pop\n        /* \"contracts/Shops.sol\":3286:3485  function registerBuyer(string memory fio,string memory userLogin,address userAddr) public{... */\n      pop\n      pop\n      pop\n      jump\t// out\n        /* \"contracts/Shops.sol\":1574:1832  function regAdmin(address adminAddr,string memory fio,string memory userLogin) public isUserStatus(UserRoles.admin){... */\n    tag_88:\n        /* \"contracts/Shops.sol\":1673:1688  UserRoles.admin */\n      0x03\n        /* \"contracts/AuthService.sol\":1617:1622  users */\n      0x02\n        /* \"contracts/AuthService.sol\":1617:1634  users[msg.sender] */\n      0x00\n        /* \"contracts/AuthService.sol\":1623:1633  msg.sender */\n      caller\n        /* \"contracts/AuthService.sol\":1617:1634  users[msg.sender] */\n      0xffffffffffffffffffffffffffffffffffffffff\n      and\n      0xffffffffffffffffffffffffffffffffffffffff\n      and\n      dup2\n      mstore\n      0x20\n      add\n      swap1\n      dup2\n      mstore\n      0x20\n      add\n      0x00\n      keccak256\n        /* \"contracts/AuthService.sol\":1617:1641  users[msg.sender].status */\n      0x00\n      add\n      sload\n        /* \"contracts/AuthService.sol\":1606:1612  status */\n      dup2\n        /* \"contracts/AuthService.sol\":1601:1613  uint(status) */\n      0x05\n      dup2\n      gt\n      iszero\n      tag_348\n      jumpi\n      tag_349\n      tag_114\n      jump\t// in\n    tag_349:\n    tag_348:\n        /* \"contracts/AuthService.sol\":1601:1641  uint(status) == users[msg.sender].status */\n      eq\n        /* \"contracts/AuthService.sol\":1593:1654  require(uint(status) == users[msg.sender].status,\"Forbidden\") */\n      tag_350\n      jumpi\n      mload(0x40)\n      0x08c379a000000000000000000000000000000000000000000000000000000000\n      dup2\n      mstore\n      0x04\n      add\n      tag_351\n      swap1\n      tag_117\n      jump\t// in\n    tag_351:\n      mload(0x40)\n      dup1\n      swap2\n      sub\n      swap1\n      revert\n    tag_350:\n        /* \"contracts/Shops.sol\":1699:1710  uint status */\n      0x00\n        /* \"contracts/Shops.sol\":1718:1733  UserRoles.admin */\n      0x03\n        /* \"contracts/Shops.sol\":1713:1734  uint(UserRoles.admin) */\n      0x05\n      dup2\n      gt\n      iszero\n      tag_353\n      jumpi\n      tag_354\n      tag_114\n      jump\t// in\n    tag_354:\n    tag_353:\n        /* \"contracts/Shops.sol\":1699:1734  uint status = uint(UserRoles.admin) */\n      swap1\n      pop\n        /* \"contracts/Shops.sol\":1744:1793  registerFromAdmin(fio,userLogin,status,adminAddr) */\n      tag_355\n        /* \"contracts/Shops.sol\":1762:1765  fio */\n      dup5\n        /* \"contracts/Shops.sol\":1766:1775  userLogin */\n      dup5\n        /* \"contracts/Shops.sol\":1776:1782  status */\n      dup4\n        /* \"contracts/Shops.sol\":1783:1792  adminAddr */\n      dup9\n        /* \"contracts/Shops.sol\":1744:1761  registerFromAdmin */\n      tag_164\n        /* \"contracts/Shops.sol\":1744:1793  registerFromAdmin(fio,userLogin,status,adminAddr) */\n      jump\t// in\n    tag_355:\n        /* \"contracts/Shops.sol\":1803:1809  admins */\n      0x06\n        /* \"contracts/Shops.sol\":1815:1824  userLogin */\n      dup4\n        /* \"contracts/Shops.sol\":1803:1825  admins.push(userLogin) */\n      swap1\n      dup1\n      0x01\n      dup2\n      sload\n      add\n      dup1\n      dup3\n      sstore\n      dup1\n      swap2\n      pop\n      pop\n      0x01\n      swap1\n      sub\n      swap1\n      0x00\n      mstore\n      keccak256(0x00, 0x20)\n      add\n      0x00\n      swap1\n      swap2\n      swap1\n      swap2\n      swap1\n      swap2\n      pop\n      swap1\n      dup1\n      mload\n      swap1\n      0x20\n      add\n      swap1\n      tag_357\n      swap3\n      swap2\n      swap1\n      tag_179\n      jump\t// in\n    tag_357:\n      pop\n        /* \"contracts/Shops.sol\":1689:1832  {... */\n      pop\n        /* \"contracts/Shops.sol\":1574:1832  function regAdmin(address adminAddr,string memory fio,string memory userLogin) public isUserStatus(UserRoles.admin){... */\n      pop\n      pop\n      pop\n      pop\n      jump\t// out\n        /* \"contracts/Shops.sol\":7533:7957  function requestToSeller(string memory id) public isUserStatus(UserRoles.buyer){... */\n    tag_91:\n        /* \"contracts/Shops.sol\":7596:7611  UserRoles.buyer */\n      0x00\n        /* \"contracts/AuthService.sol\":1617:1622  users */\n      0x02\n        /* \"contracts/AuthService.sol\":1617:1634  users[msg.sender] */\n      0x00\n        /* \"contracts/AuthService.sol\":1623:1633  msg.sender */\n      caller\n        /* \"contracts/AuthService.sol\":1617:1634  users[msg.sender] */\n      0xffffffffffffffffffffffffffffffffffffffff\n      and\n      0xffffffffffffffffffffffffffffffffffffffff\n      and\n      dup2\n      mstore\n      0x20\n      add\n      swap1\n      dup2\n      mstore\n      0x20\n      add\n      0x00\n      keccak256\n        /* \"contracts/AuthService.sol\":1617:1641  users[msg.sender].status */\n      0x00\n      add\n      sload\n        /* \"contracts/AuthService.sol\":1606:1612  status */\n      dup2\n        /* \"contracts/AuthService.sol\":1601:1613  uint(status) */\n      0x05\n      dup2\n      gt\n      iszero\n      tag_359\n      jumpi\n      tag_360\n      tag_114\n      jump\t// in\n    tag_360:\n    tag_359:\n        /* \"contracts/AuthService.sol\":1601:1641  uint(status) == users[msg.sender].status */\n      eq\n        /* \"contracts/AuthService.sol\":1593:1654  require(uint(status) == users[msg.sender].status,\"Forbidden\") */\n      tag_361\n      jumpi\n      mload(0x40)\n      0x08c379a000000000000000000000000000000000000000000000000000000000\n      dup2\n      mstore\n      0x04\n      add\n      tag_362\n      swap1\n      tag_117\n      jump\t// in\n    tag_362:\n      mload(0x40)\n      dup1\n      swap2\n      sub\n      swap1\n      revert\n    tag_361:\n        /* \"contracts/Shops.sol\":7622:7647  string memory currentRole */\n      0x00\n        /* \"contracts/Shops.sol\":7650:7660  userStatus */\n      dup1\n        /* \"contracts/Shops.sol\":7650:7683  userStatus[uint(UserRoles.buyer)] */\n      0x00\n        /* \"contracts/Shops.sol\":7666:7681  UserRoles.buyer */\n      dup1\n        /* \"contracts/Shops.sol\":7661:7682  uint(UserRoles.buyer) */\n      0x05\n      dup2\n      gt\n      iszero\n      tag_364\n      jumpi\n      tag_365\n      tag_114\n      jump\t// in\n    tag_365:\n    tag_364:\n        /* \"contracts/Shops.sol\":7650:7683  userStatus[uint(UserRoles.buyer)] */\n      dup2\n      mstore\n      0x20\n      add\n      swap1\n      dup2\n      mstore\n      0x20\n      add\n      0x00\n      keccak256\n        /* \"contracts/Shops.sol\":7622:7683  string memory currentRole = userStatus[uint(UserRoles.buyer)] */\n      dup1\n      sload\n      tag_366\n      swap1\n      tag_120\n      jump\t// in\n    tag_366:\n      dup1\n      0x1f\n      add\n      0x20\n      dup1\n      swap2\n      div\n      mul\n      0x20\n      add\n      mload(0x40)\n      swap1\n      dup2\n      add\n      0x40\n      mstore\n      dup1\n      swap3\n      swap2\n      swap1\n      dup2\n      dup2\n      mstore\n      0x20\n      add\n      dup3\n      dup1\n      sload\n      tag_367\n      swap1\n      tag_120\n      jump\t// in\n    tag_367:\n      dup1\n      iszero\n      tag_368\n      jumpi\n      dup1\n      0x1f\n      lt\n      tag_369\n      jumpi\n      0x0100\n      dup1\n      dup4\n      sload\n      div\n      mul\n      dup4\n      mstore\n      swap2\n      0x20\n      add\n      swap2\n      jump(tag_368)\n    tag_369:\n      dup3\n      add\n      swap2\n      swap1\n      0x00\n      mstore\n      keccak256(0x00, 0x20)\n      swap1\n    tag_370:\n      dup2\n      sload\n      dup2\n      mstore\n      swap1\n      0x01\n      add\n      swap1\n      0x20\n      add\n      dup1\n      dup4\n      gt\n      tag_370\n      jumpi\n      dup3\n      swap1\n      sub\n      0x1f\n      and\n      dup3\n      add\n      swap2\n    tag_368:\n      pop\n      pop\n      pop\n      pop\n      pop\n      swap1\n      pop\n        /* \"contracts/Shops.sol\":7693:7718  string memory desiredRole */\n      0x00\n        /* \"contracts/Shops.sol\":7721:7731  userStatus */\n      dup1\n        /* \"contracts/Shops.sol\":7721:7755  userStatus[uint(UserRoles.seller)] */\n      0x00\n        /* \"contracts/Shops.sol\":7737:7753  UserRoles.seller */\n      0x01\n        /* \"contracts/Shops.sol\":7732:7754  uint(UserRoles.seller) */\n      0x05\n      dup2\n      gt\n      iszero\n      tag_371\n      jumpi\n      tag_372\n      tag_114\n      jump\t// in\n    tag_372:\n    tag_371:\n        /* \"contracts/Shops.sol\":7721:7755  userStatus[uint(UserRoles.seller)] */\n      dup2\n      mstore\n      0x20\n      add\n      swap1\n      dup2\n      mstore\n      0x20\n      add\n      0x00\n      keccak256\n        /* \"contracts/Shops.sol\":7693:7755  string memory desiredRole = userStatus[uint(UserRoles.seller)] */\n      dup1\n      sload\n      tag_373\n      swap1\n      tag_120\n      jump\t// in\n    tag_373:\n      dup1\n      0x1f\n      add\n      0x20\n      dup1\n      swap2\n      div\n      mul\n      0x20\n      add\n      mload(0x40)\n      swap1\n      dup2\n      add\n      0x40\n      mstore\n      dup1\n      swap3\n      swap2\n      swap1\n      dup2\n      dup2\n      mstore\n      0x20\n      add\n      dup3\n      dup1\n      sload\n      tag_374\n      swap1\n      tag_120\n      jump\t// in\n    tag_374:\n      dup1\n      iszero\n      tag_375\n      jumpi\n      dup1\n      0x1f\n      lt\n      tag_376\n      jumpi\n      0x0100\n      dup1\n      dup4\n      sload\n      div\n      mul\n      dup4\n      mstore\n      swap2\n      0x20\n      add\n      swap2\n      jump(tag_375)\n    tag_376:\n      dup3\n      add\n      swap2\n      swap1\n      0x00\n      mstore\n      keccak256(0x00, 0x20)\n      swap1\n    tag_377:\n      dup2\n      sload\n      dup2\n      mstore\n      swap1\n      0x01\n      add\n      swap1\n      0x20\n      add\n      dup1\n      dup4\n      gt\n      tag_377\n      jumpi\n      dup3\n      swap1\n      sub\n      0x1f\n      and\n      dup3\n      add\n      swap2\n    tag_375:\n      pop\n      pop\n      pop\n      pop\n      pop\n      swap1\n      pop\n        /* \"contracts/Shops.sol\":7765:7782  Request memory rq */\n      0x00\n        /* \"contracts/Shops.sol\":7785:7895  Request(... */\n      mload(0x40)\n      dup1\n      0x80\n      add\n      0x40\n      mstore\n      dup1\n        /* \"contracts/Shops.sol\":7806:7816  msg.sender */\n      caller\n        /* \"contracts/Shops.sol\":7785:7895  Request(... */\n      0xffffffffffffffffffffffffffffffffffffffff\n      and\n      dup2\n      mstore\n      0x20\n      add\n        /* \"contracts/Shops.sol\":7830:7841  currentRole */\n      dup5\n        /* \"contracts/Shops.sol\":7785:7895  Request(... */\n      dup2\n      mstore\n      0x20\n      add\n        /* \"contracts/Shops.sol\":7855:7866  desiredRole */\n      dup4\n        /* \"contracts/Shops.sol\":7785:7895  Request(... */\n      dup2\n      mstore\n      0x20\n      add\n        /* \"contracts/Shops.sol\":7880:7885  false */\n      0x00\n        /* \"contracts/Shops.sol\":7785:7895  Request(... */\n      iszero\n      iszero\n      dup2\n      mstore\n      pop\n        /* \"contracts/Shops.sol\":7765:7895  Request memory rq = Request(... */\n      swap1\n      pop\n        /* \"contracts/Shops.sol\":7921:7923  rq */\n      dup1\n        /* \"contracts/Shops.sol\":7905:7914  requestId */\n      0x10\n        /* \"contracts/Shops.sol\":7915:7917  id */\n      dup7\n        /* \"contracts/Shops.sol\":7905:7918  requestId[id] */\n      mload(0x40)\n      tag_378\n      swap2\n      swap1\n      tag_183\n      jump\t// in\n    tag_378:\n      swap1\n      dup2\n      mstore\n      0x20\n      add\n      mload(0x40)\n      dup1\n      swap2\n      sub\n      swap1\n      keccak256\n        /* \"contracts/Shops.sol\":7905:7923  requestId[id] = rq */\n      0x00\n      dup3\n      add\n      mload\n      dup2\n      0x00\n      add\n      exp(0x0100, 0x00)\n      dup2\n      sload\n      dup2\n      0xffffffffffffffffffffffffffffffffffffffff\n      mul\n      not\n      and\n      swap1\n      dup4\n      0xffffffffffffffffffffffffffffffffffffffff\n      and\n      mul\n      or\n      swap1\n      sstore\n      pop\n      0x20\n      dup3\n      add\n      mload\n      dup2\n      0x01\n      add\n      swap1\n      dup1\n      mload\n      swap1\n      0x20\n      add\n      swap1\n      tag_379\n      swap3\n      swap2\n      swap1\n      tag_179\n      jump\t// in\n    tag_379:\n      pop\n      0x40\n      dup3\n      add\n      mload\n      dup2\n      0x02\n      add\n      swap1\n      dup1\n      mload\n      swap1\n      0x20\n      add\n      swap1\n      tag_380\n      swap3\n      swap2\n      swap1\n      tag_179\n      jump\t// in\n    tag_380:\n      pop\n      0x60\n      dup3\n      add\n      mload\n      dup2\n      0x03\n      add\n      exp(0x0100, 0x00)\n      dup2\n      sload\n      dup2\n      0xff\n      mul\n      not\n      and\n      swap1\n      dup4\n      iszero\n      iszero\n      mul\n      or\n      swap1\n      sstore\n      pop\n      swap1\n      pop\n      pop\n        /* \"contracts/Shops.sol\":7933:7941  requests */\n      0x0a\n        /* \"contracts/Shops.sol\":7947:7949  id */\n      dup6\n        /* \"contracts/Shops.sol\":7933:7950  requests.push(id) */\n      swap1\n      dup1\n      0x01\n      dup2\n      sload\n      add\n      dup1\n      dup3\n      sstore\n      dup1\n      swap2\n      pop\n      pop\n      0x01\n      swap1\n      sub\n      swap1\n      0x00\n      mstore\n      keccak256(0x00, 0x20)\n      add\n      0x00\n      swap1\n      swap2\n      swap1\n      swap2\n      swap1\n      swap2\n      pop\n      swap1\n      dup1\n      mload\n      swap1\n      0x20\n      add\n      swap1\n      tag_382\n      swap3\n      swap2\n      swap1\n      tag_179\n      jump\t// in\n    tag_382:\n      pop\n        /* \"contracts/Shops.sol\":7612:7957  {... */\n      pop\n      pop\n      pop\n        /* \"contracts/Shops.sol\":7533:7957  function requestToSeller(string memory id) public isUserStatus(UserRoles.buyer){... */\n      pop\n      pop\n      jump\t// out\n        /* \"contracts/Shops.sol\":7963:8390  function downRequestToByer(string memory id) public isUserStatus(UserRoles.seller){... */\n    tag_94:\n        /* \"contracts/Shops.sol\":8028:8044  UserRoles.seller */\n      0x01\n        /* \"contracts/AuthService.sol\":1617:1622  users */\n      0x02\n        /* \"contracts/AuthService.sol\":1617:1634  users[msg.sender] */\n      0x00\n        /* \"contracts/AuthService.sol\":1623:1633  msg.sender */\n      caller\n        /* \"contracts/AuthService.sol\":1617:1634  users[msg.sender] */\n      0xffffffffffffffffffffffffffffffffffffffff\n      and\n      0xffffffffffffffffffffffffffffffffffffffff\n      and\n      dup2\n      mstore\n      0x20\n      add\n      swap1\n      dup2\n      mstore\n      0x20\n      add\n      0x00\n      keccak256\n        /* \"contracts/AuthService.sol\":1617:1641  users[msg.sender].status */\n      0x00\n      add\n      sload\n        /* \"contracts/AuthService.sol\":1606:1612  status */\n      dup2\n        /* \"contracts/AuthService.sol\":1601:1613  uint(status) */\n      0x05\n      dup2\n      gt\n      iszero\n      tag_384\n      jumpi\n      tag_385\n      tag_114\n      jump\t// in\n    tag_385:\n    tag_384:\n        /* \"contracts/AuthService.sol\":1601:1641  uint(status) == users[msg.sender].status */\n      eq\n        /* \"contracts/AuthService.sol\":1593:1654  require(uint(status) == users[msg.sender].status,\"Forbidden\") */\n      tag_386\n      jumpi\n      mload(0x40)\n      0x08c379a000000000000000000000000000000000000000000000000000000000\n      dup2\n      mstore\n      0x04\n      add\n      tag_387\n      swap1\n      tag_117\n      jump\t// in\n    tag_387:\n      mload(0x40)\n      dup1\n      swap2\n      sub\n      swap1\n      revert\n    tag_386:\n        /* \"contracts/Shops.sol\":8055:8080  string memory desiredRole */\n      0x00\n        /* \"contracts/Shops.sol\":8083:8093  userStatus */\n      dup1\n        /* \"contracts/Shops.sol\":8083:8116  userStatus[uint(UserRoles.buyer)] */\n      0x00\n        /* \"contracts/Shops.sol\":8099:8114  UserRoles.buyer */\n      dup1\n        /* \"contracts/Shops.sol\":8094:8115  uint(UserRoles.buyer) */\n      0x05\n      dup2\n      gt\n      iszero\n      tag_389\n      jumpi\n      tag_390\n      tag_114\n      jump\t// in\n    tag_390:\n    tag_389:\n        /* \"contracts/Shops.sol\":8083:8116  userStatus[uint(UserRoles.buyer)] */\n      dup2\n      mstore\n      0x20\n      add\n      swap1\n      dup2\n      mstore\n      0x20\n      add\n      0x00\n      keccak256\n        /* \"contracts/Shops.sol\":8055:8116  string memory desiredRole = userStatus[uint(UserRoles.buyer)] */\n      dup1\n      sload\n      tag_391\n      swap1\n      tag_120\n      jump\t// in\n    tag_391:\n      dup1\n      0x1f\n      add\n      0x20\n      dup1\n      swap2\n      div\n      mul\n      0x20\n      add\n      mload(0x40)\n      swap1\n      dup2\n      add\n      0x40\n      mstore\n      dup1\n      swap3\n      swap2\n      swap1\n      dup2\n      dup2\n      mstore\n      0x20\n      add\n      dup3\n      dup1\n      sload\n      tag_392\n      swap1\n      tag_120\n      jump\t// in\n    tag_392:\n      dup1\n      iszero\n      tag_393\n      jumpi\n      dup1\n      0x1f\n      lt\n      tag_394\n      jumpi\n      0x0100\n      dup1\n      dup4\n      sload\n      div\n      mul\n      dup4\n      mstore\n      swap2\n      0x20\n      add\n      swap2\n      jump(tag_393)\n    tag_394:\n      dup3\n      add\n      swap2\n      swap1\n      0x00\n      mstore\n      keccak256(0x00, 0x20)\n      swap1\n    tag_395:\n      dup2\n      sload\n      dup2\n      mstore\n      swap1\n      0x01\n      add\n      swap1\n      0x20\n      add\n      dup1\n      dup4\n      gt\n      tag_395\n      jumpi\n      dup3\n      swap1\n      sub\n      0x1f\n      and\n      dup3\n      add\n      swap2\n    tag_393:\n      pop\n      pop\n      pop\n      pop\n      pop\n      swap1\n      pop\n        /* \"contracts/Shops.sol\":8126:8151  string memory currentRole */\n      0x00\n        /* \"contracts/Shops.sol\":8154:8164  userStatus */\n      dup1\n        /* \"contracts/Shops.sol\":8154:8188  userStatus[uint(UserRoles.seller)] */\n      0x00\n        /* \"contracts/Shops.sol\":8170:8186  UserRoles.seller */\n      0x01\n        /* \"contracts/Shops.sol\":8165:8187  uint(UserRoles.seller) */\n      0x05\n      dup2\n      gt\n      iszero\n      tag_396\n      jumpi\n      tag_397\n      tag_114\n      jump\t// in\n    tag_397:\n    tag_396:\n        /* \"contracts/Shops.sol\":8154:8188  userStatus[uint(UserRoles.seller)] */\n      dup2\n      mstore\n      0x20\n      add\n      swap1\n      dup2\n      mstore\n      0x20\n      add\n      0x00\n      keccak256\n        /* \"contracts/Shops.sol\":8126:8188  string memory currentRole = userStatus[uint(UserRoles.seller)] */\n      dup1\n      sload\n      tag_398\n      swap1\n      tag_120\n      jump\t// in\n    tag_398:\n      dup1\n      0x1f\n      add\n      0x20\n      dup1\n      swap2\n      div\n      mul\n      0x20\n      add\n      mload(0x40)\n      swap1\n      dup2\n      add\n      0x40\n      mstore\n      dup1\n      swap3\n      swap2\n      swap1\n      dup2\n      dup2\n      mstore\n      0x20\n      add\n      dup3\n      dup1\n      sload\n      tag_399\n      swap1\n      tag_120\n      jump\t// in\n    tag_399:\n      dup1\n      iszero\n      tag_400\n      jumpi\n      dup1\n      0x1f\n      lt\n      tag_401\n      jumpi\n      0x0100\n      dup1\n      dup4\n      sload\n      div\n      mul\n      dup4\n      mstore\n      swap2\n      0x20\n      add\n      swap2\n      jump(tag_400)\n    tag_401:\n      dup3\n      add\n      swap2\n      swap1\n      0x00\n      mstore\n      keccak256(0x00, 0x20)\n      swap1\n    tag_402:\n      dup2\n      sload\n      dup2\n      mstore\n      swap1\n      0x01\n      add\n      swap1\n      0x20\n      add\n      dup1\n      dup4\n      gt\n      tag_402\n      jumpi\n      dup3\n      swap1\n      sub\n      0x1f\n      and\n      dup3\n      add\n      swap2\n    tag_400:\n      pop\n      pop\n      pop\n      pop\n      pop\n      swap1\n      pop\n        /* \"contracts/Shops.sol\":8198:8215  Request memory rq */\n      0x00\n        /* \"contracts/Shops.sol\":8218:8328  Request(... */\n      mload(0x40)\n      dup1\n      0x80\n      add\n      0x40\n      mstore\n      dup1\n        /* \"contracts/Shops.sol\":8239:8249  msg.sender */\n      caller\n        /* \"contracts/Shops.sol\":8218:8328  Request(... */\n      0xffffffffffffffffffffffffffffffffffffffff\n      and\n      dup2\n      mstore\n      0x20\n      add\n        /* \"contracts/Shops.sol\":8263:8274  currentRole */\n      dup4\n        /* \"contracts/Shops.sol\":8218:8328  Request(... */\n      dup2\n      mstore\n      0x20\n      add\n        /* \"contracts/Shops.sol\":8288:8299  desiredRole */\n      dup5\n        /* \"contracts/Shops.sol\":8218:8328  Request(... */\n      dup2\n      mstore\n      0x20\n      add\n        /* \"contracts/Shops.sol\":8313:8318  false */\n      0x00\n        /* \"contracts/Shops.sol\":8218:8328  Request(... */\n      iszero\n      iszero\n      dup2\n      mstore\n      pop\n        /* \"contracts/Shops.sol\":8198:8328  Request memory rq = Request(... */\n      swap1\n      pop\n        /* \"contracts/Shops.sol\":8354:8356  rq */\n      dup1\n        /* \"contracts/Shops.sol\":8338:8347  requestId */\n      0x10\n        /* \"contracts/Shops.sol\":8348:8350  id */\n      dup7\n        /* \"contracts/Shops.sol\":8338:8351  requestId[id] */\n      mload(0x40)\n      tag_403\n      swap2\n      swap1\n      tag_183\n      jump\t// in\n    tag_403:\n      swap1\n      dup2\n      mstore\n      0x20\n      add\n      mload(0x40)\n      dup1\n      swap2\n      sub\n      swap1\n      keccak256\n        /* \"contracts/Shops.sol\":8338:8356  requestId[id] = rq */\n      0x00\n      dup3\n      add\n      mload\n      dup2\n      0x00\n      add\n      exp(0x0100, 0x00)\n      dup2\n      sload\n      dup2\n      0xffffffffffffffffffffffffffffffffffffffff\n      mul\n      not\n      and\n      swap1\n      dup4\n      0xffffffffffffffffffffffffffffffffffffffff\n      and\n      mul\n      or\n      swap1\n      sstore\n      pop\n      0x20\n      dup3\n      add\n      mload\n      dup2\n      0x01\n      add\n      swap1\n      dup1\n      mload\n      swap1\n      0x20\n      add\n      swap1\n      tag_404\n      swap3\n      swap2\n      swap1\n      tag_179\n      jump\t// in\n    tag_404:\n      pop\n      0x40\n      dup3\n      add\n      mload\n      dup2\n      0x02\n      add\n      swap1\n      dup1\n      mload\n      swap1\n      0x20\n      add\n      swap1\n      tag_405\n      swap3\n      swap2\n      swap1\n      tag_179\n      jump\t// in\n    tag_405:\n      pop\n      0x60\n      dup3\n      add\n      mload\n      dup2\n      0x03\n      add\n      exp(0x0100, 0x00)\n      dup2\n      sload\n      dup2\n      0xff\n      mul\n      not\n      and\n      swap1\n      dup4\n      iszero\n      iszero\n      mul\n      or\n      swap1\n      sstore\n      pop\n      swap1\n      pop\n      pop\n        /* \"contracts/Shops.sol\":8366:8374  requests */\n      0x0a\n        /* \"contracts/Shops.sol\":8380:8382  id */\n      dup6\n        /* \"contracts/Shops.sol\":8366:8383  requests.push(id) */\n      swap1\n      dup1\n      0x01\n      dup2\n      sload\n      add\n      dup1\n      dup3\n      sstore\n      dup1\n      swap2\n      pop\n      pop\n      0x01\n      swap1\n      sub\n      swap1\n      0x00\n      mstore\n      keccak256(0x00, 0x20)\n      add\n      0x00\n      swap1\n      swap2\n      swap1\n      swap2\n      swap1\n      swap2\n      pop\n      swap1\n      dup1\n      mload\n      swap1\n      0x20\n      add\n      swap1\n      tag_407\n      swap3\n      swap2\n      swap1\n      tag_179\n      jump\t// in\n    tag_407:\n      pop\n        /* \"contracts/Shops.sol\":8045:8390  {... */\n      pop\n      pop\n      pop\n        /* \"contracts/Shops.sol\":7963:8390  function downRequestToByer(string memory id) public isUserStatus(UserRoles.seller){... */\n      pop\n      pop\n      jump\t// out\n        /* \"contracts/Shops.sol\":6796:7035  function disLikeReview(string memory id) public isUser {... */\n    tag_97:\n        /* \"contracts/AuthService.sol\":1465:1504  compare(users[msg.sender].userLogin,\"\") */\n      tag_409\n        /* \"contracts/AuthService.sol\":1473:1478  users */\n      0x02\n        /* \"contracts/AuthService.sol\":1473:1490  users[msg.sender] */\n      0x00\n        /* \"contracts/AuthService.sol\":1479:1489  msg.sender */\n      caller\n        /* \"contracts/AuthService.sol\":1473:1490  users[msg.sender] */\n      0xffffffffffffffffffffffffffffffffffffffff\n      and\n      0xffffffffffffffffffffffffffffffffffffffff\n      and\n      dup2\n      mstore\n      0x20\n      add\n      swap1\n      dup2\n      mstore\n      0x20\n      add\n      0x00\n      keccak256\n        /* \"contracts/AuthService.sol\":1473:1500  users[msg.sender].userLogin */\n      0x01\n      add\n        /* \"contracts/AuthService.sol\":1465:1504  compare(users[msg.sender].userLogin,\"\") */\n      dup1\n      sload\n      tag_410\n      swap1\n      tag_120\n      jump\t// in\n    tag_410:\n      dup1\n      0x1f\n      add\n      0x20\n      dup1\n      swap2\n      div\n      mul\n      0x20\n      add\n      mload(0x40)\n      swap1\n      dup2\n      add\n      0x40\n      mstore\n      dup1\n      swap3\n      swap2\n      swap1\n      dup2\n      dup2\n      mstore\n      0x20\n      add\n      dup3\n      dup1\n      sload\n      tag_411\n      swap1\n      tag_120\n      jump\t// in\n    tag_411:\n      dup1\n      iszero\n      tag_412\n      jumpi\n      dup1\n      0x1f\n      lt\n      tag_413\n      jumpi\n      0x0100\n      dup1\n      dup4\n      sload\n      div\n      mul\n      dup4\n      mstore\n      swap2\n      0x20\n      add\n      swap2\n      jump(tag_412)\n    tag_413:\n      dup3\n      add\n      swap2\n      swap1\n      0x00\n      mstore\n      keccak256(0x00, 0x20)\n      swap1\n    tag_414:\n      dup2\n      sload\n      dup2\n      mstore\n      swap1\n      0x01\n      add\n      swap1\n      0x20\n      add\n      dup1\n      dup4\n      gt\n      tag_414\n      jumpi\n      dup3\n      swap1\n      sub\n      0x1f\n      and\n      dup3\n      add\n      swap2\n    tag_412:\n      pop\n      pop\n      pop\n      pop\n      pop\n      mload(0x40)\n      dup1\n      0x20\n      add\n      0x40\n      mstore\n      dup1\n      0x00\n      dup2\n      mstore\n      pop\n        /* \"contracts/AuthService.sol\":1465:1472  compare */\n      tag_172\n        /* \"contracts/AuthService.sol\":1465:1504  compare(users[msg.sender].userLogin,\"\") */\n      jump\t// in\n    tag_409:\n        /* \"contracts/AuthService.sol\":1464:1504  !compare(users[msg.sender].userLogin,\"\") */\n      iszero\n        /* \"contracts/AuthService.sol\":1456:1520  require(!compare(users[msg.sender].userLogin,\"\"),\"You not user\") */\n      tag_415\n      jumpi\n      mload(0x40)\n      0x08c379a000000000000000000000000000000000000000000000000000000000\n      dup2\n      mstore\n      0x04\n      add\n      tag_416\n      swap1\n      tag_175\n      jump\t// in\n    tag_416:\n      mload(0x40)\n      dup1\n      swap2\n      sub\n      swap1\n      revert\n    tag_415:\n        /* \"contracts/Shops.sol\":6898:6903  false */\n      0x00\n        /* \"contracts/Shops.sol\":6869:6903  reviewCom[id][msg.sender] == false */\n      iszero\n      iszero\n        /* \"contracts/Shops.sol\":6869:6878  reviewCom */\n      0x11\n        /* \"contracts/Shops.sol\":6879:6881  id */\n      dup3\n        /* \"contracts/Shops.sol\":6869:6882  reviewCom[id] */\n      mload(0x40)\n      tag_418\n      swap2\n      swap1\n      tag_183\n      jump\t// in\n    tag_418:\n      swap1\n      dup2\n      mstore\n      0x20\n      add\n      mload(0x40)\n      dup1\n      swap2\n      sub\n      swap1\n      keccak256\n        /* \"contracts/Shops.sol\":6869:6894  reviewCom[id][msg.sender] */\n      0x00\n        /* \"contracts/Shops.sol\":6883:6893  msg.sender */\n      caller\n        /* \"contracts/Shops.sol\":6869:6894  reviewCom[id][msg.sender] */\n      0xffffffffffffffffffffffffffffffffffffffff\n      and\n      0xffffffffffffffffffffffffffffffffffffffff\n      and\n      dup2\n      mstore\n      0x20\n      add\n      swap1\n      dup2\n      mstore\n      0x20\n      add\n      0x00\n      keccak256\n      0x00\n      swap1\n      sload\n      swap1\n      0x0100\n      exp\n      swap1\n      div\n      0xff\n      and\n        /* \"contracts/Shops.sol\":6869:6903  reviewCom[id][msg.sender] == false */\n      iszero\n      iszero\n      eq\n        /* \"contracts/Shops.sol\":6861:6934  require(reviewCom[id][msg.sender] == false,\"You already check this case\") */\n      tag_419\n      jumpi\n      mload(0x40)\n      0x08c379a000000000000000000000000000000000000000000000000000000000\n      dup2\n      mstore\n      0x04\n      add\n      tag_420\n      swap1\n      tag_287\n      jump\t// in\n    tag_420:\n      mload(0x40)\n      dup1\n      swap2\n      sub\n      swap1\n      revert\n    tag_419:\n        /* \"contracts/Shops.sol\":6944:6952  reviewId */\n      0x0f\n        /* \"contracts/Shops.sol\":6953:6955  id */\n      dup2\n        /* \"contracts/Shops.sol\":6944:6956  reviewId[id] */\n      mload(0x40)\n      tag_421\n      swap2\n      swap1\n      tag_183\n      jump\t// in\n    tag_421:\n      swap1\n      dup2\n      mstore\n      0x20\n      add\n      mload(0x40)\n      dup1\n      swap2\n      sub\n      swap1\n      keccak256\n        /* \"contracts/Shops.sol\":6944:6969  reviewId[id].disLikeCount */\n      0x04\n      add\n        /* \"contracts/Shops.sol\":6975:6985  msg.sender */\n      caller\n        /* \"contracts/Shops.sol\":6944:6986  reviewId[id].disLikeCount.push(msg.sender) */\n      swap1\n      dup1\n      0x01\n      dup2\n      sload\n      add\n      dup1\n      dup3\n      sstore\n      dup1\n      swap2\n      pop\n      pop\n      0x01\n      swap1\n      sub\n      swap1\n      0x00\n      mstore\n      keccak256(0x00, 0x20)\n      add\n      0x00\n      swap1\n      swap2\n      swap1\n      swap2\n      swap1\n      swap2\n      0x0100\n      exp\n      dup2\n      sload\n      dup2\n      0xffffffffffffffffffffffffffffffffffffffff\n      mul\n      not\n      and\n      swap1\n      dup4\n      0xffffffffffffffffffffffffffffffffffffffff\n      and\n      mul\n      or\n      swap1\n      sstore\n      pop\n        /* \"contracts/Shops.sol\":7024:7028  true */\n      0x01\n        /* \"contracts/Shops.sol\":6996:7005  reviewCom */\n      0x11\n        /* \"contracts/Shops.sol\":7006:7008  id */\n      dup3\n        /* \"contracts/Shops.sol\":6996:7009  reviewCom[id] */\n      mload(0x40)\n      tag_423\n      swap2\n      swap1\n      tag_183\n      jump\t// in\n    tag_423:\n      swap1\n      dup2\n      mstore\n      0x20\n      add\n      mload(0x40)\n      dup1\n      swap2\n      sub\n      swap1\n      keccak256\n        /* \"contracts/Shops.sol\":6996:7021  reviewCom[id][msg.sender] */\n      0x00\n        /* \"contracts/Shops.sol\":7010:7020  msg.sender */\n      caller\n        /* \"contracts/Shops.sol\":6996:7021  reviewCom[id][msg.sender] */\n      0xffffffffffffffffffffffffffffffffffffffff\n      and\n      0xffffffffffffffffffffffffffffffffffffffff\n      and\n      dup2\n      mstore\n      0x20\n      add\n      swap1\n      dup2\n      mstore\n      0x20\n      add\n      0x00\n      keccak256\n      0x00\n        /* \"contracts/Shops.sol\":6996:7028  reviewCom[id][msg.sender] = true */\n      0x0100\n      exp\n      dup2\n      sload\n      dup2\n      0xff\n      mul\n      not\n      and\n      swap1\n      dup4\n      iszero\n      iszero\n      mul\n      or\n      swap1\n      sstore\n      pop\n        /* \"contracts/Shops.sol\":6796:7035  function disLikeReview(string memory id) public isUser {... */\n      pop\n      jump\t// out\n        /* \"contracts/Shops.sol\":4983:5381  function getAdminInfo() public view isUserStatus(UserRoles.admin) returns(... */\n    tag_99:\n        /* \"contracts/Shops.sol\":5066:5085  string memory login */\n      0x60\n        /* \"contracts/Shops.sol\":5095:5123  string[] memory userRequests */\n      dup1\n        /* \"contracts/Shops.sol\":5133:5158  string[] memory adminList */\n      0x60\n        /* \"contracts/Shops.sol\":5168:5196  address[] memory sellersAddr */\n      dup1\n        /* \"contracts/Shops.sol\":5032:5047  UserRoles.admin */\n      0x03\n        /* \"contracts/AuthService.sol\":1617:1622  users */\n      0x02\n        /* \"contracts/AuthService.sol\":1617:1634  users[msg.sender] */\n      0x00\n        /* \"contracts/AuthService.sol\":1623:1633  msg.sender */\n      caller\n        /* \"contracts/AuthService.sol\":1617:1634  users[msg.sender] */\n      0xffffffffffffffffffffffffffffffffffffffff\n      and\n      0xffffffffffffffffffffffffffffffffffffffff\n      and\n      dup2\n      mstore\n      0x20\n      add\n      swap1\n      dup2\n      mstore\n      0x20\n      add\n      0x00\n      keccak256\n        /* \"contracts/AuthService.sol\":1617:1641  users[msg.sender].status */\n      0x00\n      add\n      sload\n        /* \"contracts/AuthService.sol\":1606:1612  status */\n      dup2\n        /* \"contracts/AuthService.sol\":1601:1613  uint(status) */\n      0x05\n      dup2\n      gt\n      iszero\n      tag_425\n      jumpi\n      tag_426\n      tag_114\n      jump\t// in\n    tag_426:\n    tag_425:\n        /* \"contracts/AuthService.sol\":1601:1641  uint(status) == users[msg.sender].status */\n      eq\n        /* \"contracts/AuthService.sol\":1593:1654  require(uint(status) == users[msg.sender].status,\"Forbidden\") */\n      tag_427\n      jumpi\n      mload(0x40)\n      0x08c379a000000000000000000000000000000000000000000000000000000000\n      dup2\n      mstore\n      0x04\n      add\n      tag_428\n      swap1\n      tag_117\n      jump\t// in\n    tag_428:\n      mload(0x40)\n      dup1\n      swap2\n      sub\n      swap1\n      revert\n    tag_427:\n        /* \"contracts/Shops.sol\":5213:5229  User memory user */\n      0x00\n        /* \"contracts/Shops.sol\":5232:5237  users */\n      0x02\n        /* \"contracts/Shops.sol\":5232:5249  users[msg.sender] */\n      0x00\n        /* \"contracts/Shops.sol\":5238:5248  msg.sender */\n      caller\n        /* \"contracts/Shops.sol\":5232:5249  users[msg.sender] */\n      0xffffffffffffffffffffffffffffffffffffffff\n      and\n      0xffffffffffffffffffffffffffffffffffffffff\n      and\n      dup2\n      mstore\n      0x20\n      add\n      swap1\n      dup2\n      mstore\n      0x20\n      add\n      0x00\n      keccak256\n        /* \"contracts/Shops.sol\":5213:5249  User memory user = users[msg.sender] */\n      mload(0x40)\n      dup1\n      0x80\n      add\n      0x40\n      mstore\n      swap1\n      dup2\n      0x00\n      dup3\n      add\n      sload\n      dup2\n      mstore\n      0x20\n      add\n      0x01\n      dup3\n      add\n      dup1\n      sload\n      tag_430\n      swap1\n      tag_120\n      jump\t// in\n    tag_430:\n      dup1\n      0x1f\n      add\n      0x20\n      dup1\n      swap2\n      div\n      mul\n      0x20\n      add\n      mload(0x40)\n      swap1\n      dup2\n      add\n      0x40\n      mstore\n      dup1\n      swap3\n      swap2\n      swap1\n      dup2\n      dup2\n      mstore\n      0x20\n      add\n      dup3\n      dup1\n      sload\n      tag_431\n      swap1\n      tag_120\n      jump\t// in\n    tag_431:\n      dup1\n      iszero\n      tag_432\n      jumpi\n      dup1\n      0x1f\n      lt\n      tag_433\n      jumpi\n      0x0100\n      dup1\n      dup4\n      sload\n      div\n      mul\n      dup4\n      mstore\n      swap2\n      0x20\n      add\n      swap2\n      jump(tag_432)\n    tag_433:\n      dup3\n      add\n      swap2\n      swap1\n      0x00\n      mstore\n      keccak256(0x00, 0x20)\n      swap1\n    tag_434:\n      dup2\n      sload\n      dup2\n      mstore\n      swap1\n      0x01\n      add\n      swap1\n      0x20\n      add\n      dup1\n      dup4\n      gt\n      tag_434\n      jumpi\n      dup3\n      swap1\n      sub\n      0x1f\n      and\n      dup3\n      add\n      swap2\n    tag_432:\n      pop\n      pop\n      pop\n      pop\n      pop\n      dup2\n      mstore\n      0x20\n      add\n      0x02\n      dup3\n      add\n      dup1\n      sload\n      tag_435\n      swap1\n      tag_120\n      jump\t// in\n    tag_435:\n      dup1\n      0x1f\n      add\n      0x20\n      dup1\n      swap2\n      div\n      mul\n      0x20\n      add\n      mload(0x40)\n      swap1\n      dup2\n      add\n      0x40\n      mstore\n      dup1\n      swap3\n      swap2\n      swap1\n      dup2\n      dup2\n      mstore\n      0x20\n      add\n      dup3\n      dup1\n      sload\n      tag_436\n      swap1\n      tag_120\n      jump\t// in\n    tag_436:\n      dup1\n      iszero\n      tag_437\n      jumpi\n      dup1\n      0x1f\n      lt\n      tag_438\n      jumpi\n      0x0100\n      dup1\n      dup4\n      sload\n      div\n      mul\n      dup4\n      mstore\n      swap2\n      0x20\n      add\n      swap2\n      jump(tag_437)\n    tag_438:\n      dup3\n      add\n      swap2\n      swap1\n      0x00\n      mstore\n      keccak256(0x00, 0x20)\n      swap1\n    tag_439:\n      dup2\n      sload\n      dup2\n      mstore\n      swap1\n      0x01\n      add\n      swap1\n      0x20\n      add\n      dup1\n      dup4\n      gt\n      tag_439\n      jumpi\n      dup3\n      swap1\n      sub\n      0x1f\n      and\n      dup3\n      add\n      swap2\n    tag_437:\n      pop\n      pop\n      pop\n      pop\n      pop\n      dup2\n      mstore\n      0x20\n      add\n      0x03\n      dup3\n      add\n      dup1\n      sload\n      dup1\n      0x20\n      mul\n      0x20\n      add\n      mload(0x40)\n      swap1\n      dup2\n      add\n      0x40\n      mstore\n      dup1\n      swap3\n      swap2\n      swap1\n      dup2\n      dup2\n      mstore\n      0x20\n      add\n      0x00\n      swap1\n    tag_440:\n      dup3\n      dup3\n      lt\n      iszero\n      tag_441\n      jumpi\n      dup4\n      dup3\n      swap1\n      0x00\n      mstore\n      keccak256(0x00, 0x20)\n      add\n      dup1\n      sload\n      tag_443\n      swap1\n      tag_120\n      jump\t// in\n    tag_443:\n      dup1\n      0x1f\n      add\n      0x20\n      dup1\n      swap2\n      div\n      mul\n      0x20\n      add\n      mload(0x40)\n      swap1\n      dup2\n      add\n      0x40\n      mstore\n      dup1\n      swap3\n      swap2\n      swap1\n      dup2\n      dup2\n      mstore\n      0x20\n      add\n      dup3\n      dup1\n      sload\n      tag_444\n      swap1\n      tag_120\n      jump\t// in\n    tag_444:\n      dup1\n      iszero\n      tag_445\n      jumpi\n      dup1\n      0x1f\n      lt\n      tag_446\n      jumpi\n      0x0100\n      dup1\n      dup4\n      sload\n      div\n      mul\n      dup4\n      mstore\n      swap2\n      0x20\n      add\n      swap2\n      jump(tag_445)\n    tag_446:\n      dup3\n      add\n      swap2\n      swap1\n      0x00\n      mstore\n      keccak256(0x00, 0x20)\n      swap1\n    tag_447:\n      dup2\n      sload\n      dup2\n      mstore\n      swap1\n      0x01\n      add\n      swap1\n      0x20\n      add\n      dup1\n      dup4\n      gt\n      tag_447\n      jumpi\n      dup3\n      swap1\n      sub\n      0x1f\n      and\n      dup3\n      add\n      swap2\n    tag_445:\n      pop\n      pop\n      pop\n      pop\n      pop\n      dup2\n      mstore\n      0x20\n      add\n      swap1\n      0x01\n      add\n      swap1\n      jump(tag_440)\n    tag_441:\n      pop\n      pop\n      pop\n      pop\n      dup2\n      mstore\n      pop\n      pop\n      swap1\n      pop\n        /* \"contracts/Shops.sol\":5268:5272  user */\n      dup1\n        /* \"contracts/Shops.sol\":5268:5282  user.userLogin */\n      0x20\n      add\n      mload\n        /* \"contracts/Shops.sol\":5260:5282  login = user.userLogin */\n      swap6\n      pop\n        /* \"contracts/Shops.sol\":5307:5315  requests */\n      0x0a\n        /* \"contracts/Shops.sol\":5292:5315  userRequests = requests */\n      dup1\n      sload\n      dup1\n      0x20\n      mul\n      0x20\n      add\n      mload(0x40)\n      swap1\n      dup2\n      add\n      0x40\n      mstore\n      dup1\n      swap3\n      swap2\n      swap1\n      dup2\n      dup2\n      mstore\n      0x20\n      add\n      0x00\n      swap1\n    tag_448:\n      dup3\n      dup3\n      lt\n      iszero\n      tag_449\n      jumpi\n      dup4\n      dup3\n      swap1\n      0x00\n      mstore\n      keccak256(0x00, 0x20)\n      add\n      dup1\n      sload\n      tag_451\n      swap1\n      tag_120\n      jump\t// in\n    tag_451:\n      dup1\n      0x1f\n      add\n      0x20\n      dup1\n      swap2\n      div\n      mul\n      0x20\n      add\n      mload(0x40)\n      swap1\n      dup2\n      add\n      0x40\n      mstore\n      dup1\n      swap3\n      swap2\n      swap1\n      dup2\n      dup2\n      mstore\n      0x20\n      add\n      dup3\n      dup1\n      sload\n      tag_452\n      swap1\n      tag_120\n      jump\t// in\n    tag_452:\n      dup1\n      iszero\n      tag_453\n      jumpi\n      dup1\n      0x1f\n      lt\n      tag_454\n      jumpi\n      0x0100\n      dup1\n      dup4\n      sload\n      div\n      mul\n      dup4\n      mstore\n      swap2\n      0x20\n      add\n      swap2\n      jump(tag_453)\n    tag_454:\n      dup3\n      add\n      swap2\n      swap1\n      0x00\n      mstore\n      keccak256(0x00, 0x20)\n      swap1\n    tag_455:\n      dup2\n      sload\n      dup2\n      mstore\n      swap1\n      0x01\n      add\n      swap1\n      0x20\n      add\n      dup1\n      dup4\n      gt\n      tag_455\n      jumpi\n      dup3\n      swap1\n      sub\n      0x1f\n      and\n      dup3\n      add\n      swap2\n    tag_453:\n      pop\n      pop\n      pop\n      pop\n      pop\n      dup2\n      mstore\n      0x20\n      add\n      swap1\n      0x01\n      add\n      swap1\n      jump(tag_448)\n    tag_449:\n      pop\n      pop\n      pop\n      pop\n      swap5\n      pop\n        /* \"contracts/Shops.sol\":5337:5343  admins */\n      0x06\n        /* \"contracts/Shops.sol\":5325:5343  adminList = admins */\n      dup1\n      sload\n      dup1\n      0x20\n      mul\n      0x20\n      add\n      mload(0x40)\n      swap1\n      dup2\n      add\n      0x40\n      mstore\n      dup1\n      swap3\n      swap2\n      swap1\n      dup2\n      dup2\n      mstore\n      0x20\n      add\n      0x00\n      swap1\n    tag_456:\n      dup3\n      dup3\n      lt\n      iszero\n      tag_457\n      jumpi\n      dup4\n      dup3\n      swap1\n      0x00\n      mstore\n      keccak256(0x00, 0x20)\n      add\n      dup1\n      sload\n      tag_459\n      swap1\n      tag_120\n      jump\t// in\n    tag_459:\n      dup1\n      0x1f\n      add\n      0x20\n      dup1\n      swap2\n      div\n      mul\n      0x20\n      add\n      mload(0x40)\n      swap1\n      dup2\n      add\n      0x40\n      mstore\n      dup1\n      swap3\n      swap2\n      swap1\n      dup2\n      dup2\n      mstore\n      0x20\n      add\n      dup3\n      dup1\n      sload\n      tag_460\n      swap1\n      tag_120\n      jump\t// in\n    tag_460:\n      dup1\n      iszero\n      tag_461\n      jumpi\n      dup1\n      0x1f\n      lt\n      tag_462\n      jumpi\n      0x0100\n      dup1\n      dup4\n      sload\n      div\n      mul\n      dup4\n      mstore\n      swap2\n      0x20\n      add\n      swap2\n      jump(tag_461)\n    tag_462:\n      dup3\n      add\n      swap2\n      swap1\n      0x00\n      mstore\n      keccak256(0x00, 0x20)\n      swap1\n    tag_463:\n      dup2\n      sload\n      dup2\n      mstore\n      swap1\n      0x01\n      add\n      swap1\n      0x20\n      add\n      dup1\n      dup4\n      gt\n      tag_463\n      jumpi\n      dup3\n      swap1\n      sub\n      0x1f\n      and\n      dup3\n      add\n      swap2\n    tag_461:\n      pop\n      pop\n      pop\n      pop\n      pop\n      dup2\n      mstore\n      0x20\n      add\n      swap1\n      0x01\n      add\n      swap1\n      jump(tag_456)\n    tag_457:\n      pop\n      pop\n      pop\n      pop\n      swap4\n      pop\n        /* \"contracts/Shops.sol\":5367:5374  sellers */\n      0x08\n        /* \"contracts/Shops.sol\":5353:5374  sellersAddr = sellers */\n      dup1\n      sload\n      dup1\n      0x20\n      mul\n      0x20\n      add\n      mload(0x40)\n      swap1\n      dup2\n      add\n      0x40\n      mstore\n      dup1\n      swap3\n      swap2\n      swap1\n      dup2\n      dup2\n      mstore\n      0x20\n      add\n      dup3\n      dup1\n      sload\n      dup1\n      iszero\n      tag_464\n      jumpi\n      0x20\n      mul\n      dup3\n      add\n      swap2\n      swap1\n      0x00\n      mstore\n      keccak256(0x00, 0x20)\n      swap1\n    tag_465:\n      dup2\n      0x00\n      swap1\n      sload\n      swap1\n      0x0100\n      exp\n      swap1\n      div\n      0xffffffffffffffffffffffffffffffffffffffff\n      and\n      0xffffffffffffffffffffffffffffffffffffffff\n      and\n      dup2\n      mstore\n      0x20\n      add\n      swap1\n      0x01\n      add\n      swap1\n      dup1\n      dup4\n      gt\n      tag_465\n      jumpi\n    tag_464:\n      pop\n      pop\n      pop\n      pop\n      pop\n      swap3\n      pop\n        /* \"contracts/Shops.sol\":5203:5381  {... */\n      pop\n        /* \"contracts/Shops.sol\":4983:5381  function getAdminInfo() public view isUserStatus(UserRoles.admin) returns(... */\n      pop\n      swap1\n      swap2\n      swap3\n      swap4\n      jump\t// out\n        /* \"contracts/Shops.sol\":8560:8881  function getRequestById(string memory id) public view returns(... */\n    tag_104:\n        /* \"contracts/Shops.sol\":8631:8647  address userAddr */\n      0x00\n        /* \"contracts/Shops.sol\":8657:8682  string memory currentRole */\n      0x60\n        /* \"contracts/Shops.sol\":8692:8717  string memory desiredRole */\n      dup1\n        /* \"contracts/Shops.sol\":8733:8750  Request memory rq */\n      0x00\n        /* \"contracts/Shops.sol\":8753:8762  requestId */\n      0x10\n        /* \"contracts/Shops.sol\":8763:8765  id */\n      dup6\n        /* \"contracts/Shops.sol\":8753:8766  requestId[id] */\n      mload(0x40)\n      tag_467\n      swap2\n      swap1\n      tag_183\n      jump\t// in\n    tag_467:\n      swap1\n      dup2\n      mstore\n      0x20\n      add\n      mload(0x40)\n      dup1\n      swap2\n      sub\n      swap1\n      keccak256\n        /* \"contracts/Shops.sol\":8733:8766  Request memory rq = requestId[id] */\n      mload(0x40)\n      dup1\n      0x80\n      add\n      0x40\n      mstore\n      swap1\n      dup2\n      0x00\n      dup3\n      add\n      0x00\n      swap1\n      sload\n      swap1\n      0x0100\n      exp\n      swap1\n      div\n      0xffffffffffffffffffffffffffffffffffffffff\n      and\n      0xffffffffffffffffffffffffffffffffffffffff\n      and\n      0xffffffffffffffffffffffffffffffffffffffff\n      and\n      dup2\n      mstore\n      0x20\n      add\n      0x01\n      dup3\n      add\n      dup1\n      sload\n      tag_468\n      swap1\n      tag_120\n      jump\t// in\n    tag_468:\n      dup1\n      0x1f\n      add\n      0x20\n      dup1\n      swap2\n      div\n      mul\n      0x20\n      add\n      mload(0x40)\n      swap1\n      dup2\n      add\n      0x40\n      mstore\n      dup1\n      swap3\n      swap2\n      swap1\n      dup2\n      dup2\n      mstore\n      0x20\n      add\n      dup3\n      dup1\n      sload\n      tag_469\n      swap1\n      tag_120\n      jump\t// in\n    tag_469:\n      dup1\n      iszero\n      tag_470\n      jumpi\n      dup1\n      0x1f\n      lt\n      tag_471\n      jumpi\n      0x0100\n      dup1\n      dup4\n      sload\n      div\n      mul\n      dup4\n      mstore\n      swap2\n      0x20\n      add\n      swap2\n      jump(tag_470)\n    tag_471:\n      dup3\n      add\n      swap2\n      swap1\n      0x00\n      mstore\n      keccak256(0x00, 0x20)\n      swap1\n    tag_472:\n      dup2\n      sload\n      dup2\n      mstore\n      swap1\n      0x01\n      add\n      swap1\n      0x20\n      add\n      dup1\n      dup4\n      gt\n      tag_472\n      jumpi\n      dup3\n      swap1\n      sub\n      0x1f\n      and\n      dup3\n      add\n      swap2\n    tag_470:\n      pop\n      pop\n      pop\n      pop\n      pop\n      dup2\n      mstore\n      0x20\n      add\n      0x02\n      dup3\n      add\n      dup1\n      sload\n      tag_473\n      swap1\n      tag_120\n      jump\t// in\n    tag_473:\n      dup1\n      0x1f\n      add\n      0x20\n      dup1\n      swap2\n      div\n      mul\n      0x20\n      add\n      mload(0x40)\n      swap1\n      dup2\n      add\n      0x40\n      mstore\n      dup1\n      swap3\n      swap2\n      swap1\n      dup2\n      dup2\n      mstore\n      0x20\n      add\n      dup3\n      dup1\n      sload\n      tag_474\n      swap1\n      tag_120\n      jump\t// in\n    tag_474:\n      dup1\n      iszero\n      tag_475\n      jumpi\n      dup1\n      0x1f\n      lt\n      tag_476\n      jumpi\n      0x0100\n      dup1\n      dup4\n      sload\n      div\n      mul\n      dup4\n      mstore\n      swap2\n      0x20\n      add\n      swap2\n      jump(tag_475)\n    tag_476:\n      dup3\n      add\n      swap2\n      swap1\n      0x00\n      mstore\n      keccak256(0x00, 0x20)\n      swap1\n    tag_477:\n      dup2\n      sload\n      dup2\n      mstore\n      swap1\n      0x01\n      add\n      swap1\n      0x20\n      add\n      dup1\n      dup4\n      gt\n      tag_477\n      jumpi\n      dup3\n      swap1\n      sub\n      0x1f\n      and\n      dup3\n      add\n      swap2\n    tag_475:\n      pop\n      pop\n      pop\n      pop\n      pop\n      dup2\n      mstore\n      0x20\n      add\n      0x03\n      dup3\n      add\n      0x00\n      swap1\n      sload\n      swap1\n      0x0100\n      exp\n      swap1\n      div\n      0xff\n      and\n      iszero\n      iszero\n      iszero\n      iszero\n      dup2\n      mstore\n      pop\n      pop\n      swap1\n      pop\n        /* \"contracts/Shops.sol\":8787:8789  rq */\n      dup1\n        /* \"contracts/Shops.sol\":8787:8798  rq.userAddr */\n      0x00\n      add\n      mload\n        /* \"contracts/Shops.sol\":8776:8798  userAddr = rq.userAddr */\n      swap4\n      pop\n        /* \"contracts/Shops.sol\":8822:8824  rq */\n      dup1\n        /* \"contracts/Shops.sol\":8822:8836  rq.currentRole */\n      0x20\n      add\n      mload\n        /* \"contracts/Shops.sol\":8808:8836  currentRole = rq.currentRole */\n      swap3\n      pop\n        /* \"contracts/Shops.sol\":8860:8862  rq */\n      dup1\n        /* \"contracts/Shops.sol\":8860:8874  rq.desiredRole */\n      0x40\n      add\n      mload\n        /* \"contracts/Shops.sol\":8846:8874  desiredRole = rq.desiredRole */\n      swap2\n      pop\n        /* \"contracts/Shops.sol\":8723:8881  {... */\n      pop\n        /* \"contracts/Shops.sol\":8560:8881  function getRequestById(string memory id) public view returns(... */\n      swap2\n      swap4\n      swap1\n      swap3\n      pop\n      jump\t// out\n        /* \"contracts/Shops.sol\":1258:1483  function registerAdmin(string memory fio,string memory userLogin) isAdmin public {... */\n    tag_110:\n        /* \"contracts/Shops.sol\":1100:1105  admin */\n      0x05\n      0x00\n      swap1\n      sload\n      swap1\n      0x0100\n      exp\n      swap1\n      div\n      0xffffffffffffffffffffffffffffffffffffffff\n      and\n        /* \"contracts/Shops.sol\":1086:1105  msg.sender == admin */\n      0xffffffffffffffffffffffffffffffffffffffff\n      and\n        /* \"contracts/Shops.sol\":1086:1096  msg.sender */\n      caller\n        /* \"contracts/Shops.sol\":1086:1105  msg.sender == admin */\n      0xffffffffffffffffffffffffffffffffffffffff\n      and\n      eq\n        /* \"contracts/Shops.sol\":1078:1122  require(msg.sender == admin,\"You not admin\") */\n      tag_479\n      jumpi\n      mload(0x40)\n      0x08c379a000000000000000000000000000000000000000000000000000000000\n      dup2\n      mstore\n      0x04\n      add\n      tag_480\n      swap1\n      tag_159\n      jump\t// in\n    tag_480:\n      mload(0x40)\n      dup1\n      swap2\n      sub\n      swap1\n      revert\n    tag_479:\n        /* \"contracts/Shops.sol\":1349:1360  uint status */\n      0x00\n        /* \"contracts/Shops.sol\":1368:1383  UserRoles.admin */\n      0x03\n        /* \"contracts/Shops.sol\":1363:1384  uint(UserRoles.admin) */\n      0x05\n      dup2\n      gt\n      iszero\n      tag_482\n      jumpi\n      tag_483\n      tag_114\n      jump\t// in\n    tag_483:\n    tag_482:\n        /* \"contracts/Shops.sol\":1349:1384  uint status = uint(UserRoles.admin) */\n      swap1\n      pop\n        /* \"contracts/Shops.sol\":1394:1444  registerFromAdmin(fio,userLogin,status,msg.sender) */\n      tag_484\n        /* \"contracts/Shops.sol\":1412:1415  fio */\n      dup4\n        /* \"contracts/Shops.sol\":1416:1425  userLogin */\n      dup4\n        /* \"contracts/Shops.sol\":1426:1432  status */\n      dup4\n        /* \"contracts/Shops.sol\":1433:1443  msg.sender */\n      caller\n        /* \"contracts/Shops.sol\":1394:1411  registerFromAdmin */\n      tag_164\n        /* \"contracts/Shops.sol\":1394:1444  registerFromAdmin(fio,userLogin,status,msg.sender) */\n      jump\t// in\n    tag_484:\n        /* \"contracts/Shops.sol\":1454:1460  admins */\n      0x06\n        /* \"contracts/Shops.sol\":1466:1475  userLogin */\n      dup3\n        /* \"contracts/Shops.sol\":1454:1476  admins.push(userLogin) */\n      swap1\n      dup1\n      0x01\n      dup2\n      sload\n      add\n      dup1\n      dup3\n      sstore\n      dup1\n      swap2\n      pop\n      pop\n      0x01\n      swap1\n      sub\n      swap1\n      0x00\n      mstore\n      keccak256(0x00, 0x20)\n      add\n      0x00\n      swap1\n      swap2\n      swap1\n      swap2\n      swap1\n      swap2\n      pop\n      swap1\n      dup1\n      mload\n      swap1\n      0x20\n      add\n      swap1\n      tag_486\n      swap3\n      swap2\n      swap1\n      tag_179\n      jump\t// in\n    tag_486:\n      pop\n        /* \"contracts/Shops.sol\":1339:1483  {... */\n      pop\n        /* \"contracts/Shops.sol\":1258:1483  function registerAdmin(string memory fio,string memory userLogin) isAdmin public {... */\n      pop\n      pop\n      jump\t// out\n        /* \"contracts/AuthService.sol\":1875:2250  function registerFromAdmin(string memory fio,string memory userLogin,uint status,address userAddress) internal isNotRegistered(userAddress,userLogin){... */\n    tag_164:\n        /* \"contracts/AuthService.sol\":2002:2013  userAddress */\n      dup1\n        /* \"contracts/AuthService.sol\":2014:2023  userLogin */\n      dup4\n        /* \"contracts/AuthService.sol\":1039:1073  compare(users[userAddress].fio,\"\") */\n      tag_488\n        /* \"contracts/AuthService.sol\":1047:1052  users */\n      0x02\n        /* \"contracts/AuthService.sol\":1047:1065  users[userAddress] */\n      0x00\n        /* \"contracts/AuthService.sol\":1053:1064  userAddress */\n      dup5\n        /* \"contracts/AuthService.sol\":1047:1065  users[userAddress] */\n      0xffffffffffffffffffffffffffffffffffffffff\n      and\n      0xffffffffffffffffffffffffffffffffffffffff\n      and\n      dup2\n      mstore\n      0x20\n      add\n      swap1\n      dup2\n      mstore\n      0x20\n      add\n      0x00\n      keccak256\n        /* \"contracts/AuthService.sol\":1047:1069  users[userAddress].fio */\n      0x02\n      add\n        /* \"contracts/AuthService.sol\":1039:1073  compare(users[userAddress].fio,\"\") */\n      dup1\n      sload\n      tag_489\n      swap1\n      tag_120\n      jump\t// in\n    tag_489:\n      dup1\n      0x1f\n      add\n      0x20\n      dup1\n      swap2\n      div\n      mul\n      0x20\n      add\n      mload(0x40)\n      swap1\n      dup2\n      add\n      0x40\n      mstore\n      dup1\n      swap3\n      swap2\n      swap1\n      dup2\n      dup2\n      mstore\n      0x20\n      add\n      dup3\n      dup1\n      sload\n      tag_490\n      swap1\n      tag_120\n      jump\t// in\n    tag_490:\n      dup1\n      iszero\n      tag_491\n      jumpi\n      dup1\n      0x1f\n      lt\n      tag_492\n      jumpi\n      0x0100\n      dup1\n      dup4\n      sload\n      div\n      mul\n      dup4\n      mstore\n      swap2\n      0x20\n      add\n      swap2\n      jump(tag_491)\n    tag_492:\n      dup3\n      add\n      swap2\n      swap1\n      0x00\n      mstore\n      keccak256(0x00, 0x20)\n      swap1\n    tag_493:\n      dup2\n      sload\n      dup2\n      mstore\n      swap1\n      0x01\n      add\n      swap1\n      0x20\n      add\n      dup1\n      dup4\n      gt\n      tag_493\n      jumpi\n      dup3\n      swap1\n      sub\n      0x1f\n      and\n      dup3\n      add\n      swap2\n    tag_491:\n      pop\n      pop\n      pop\n      pop\n      pop\n      mload(0x40)\n      dup1\n      0x20\n      add\n      0x40\n      mstore\n      dup1\n      0x00\n      dup2\n      mstore\n      pop\n        /* \"contracts/AuthService.sol\":1039:1046  compare */\n      tag_172\n        /* \"contracts/AuthService.sol\":1039:1073  compare(users[userAddress].fio,\"\") */\n      jump\t// in\n    tag_488:\n        /* \"contracts/AuthService.sol\":1038:1073  !compare(users[userAddress].fio,\"\") */\n      iszero\n        /* \"contracts/AuthService.sol\":1030:1099  require(!compare(users[userAddress].fio,\"\"),\"You already registered\") */\n      tag_494\n      jumpi\n      mload(0x40)\n      0x08c379a000000000000000000000000000000000000000000000000000000000\n      dup2\n      mstore\n      0x04\n      add\n      tag_495\n      swap1\n      tag_496\n      jump\t// in\n    tag_495:\n      mload(0x40)\n      dup1\n      swap2\n      sub\n      swap1\n      revert\n    tag_494:\n        /* \"contracts/AuthService.sol\":1150:1151  0 */\n      0x00\n        /* \"contracts/AuthService.sol\":1117:1152  userLogins[userLogin] == address(0) */\n      0xffffffffffffffffffffffffffffffffffffffff\n      and\n        /* \"contracts/AuthService.sol\":1117:1127  userLogins */\n      0x01\n        /* \"contracts/AuthService.sol\":1128:1137  userLogin */\n      dup3\n        /* \"contracts/AuthService.sol\":1117:1138  userLogins[userLogin] */\n      mload(0x40)\n      tag_497\n      swap2\n      swap1\n      tag_183\n      jump\t// in\n    tag_497:\n      swap1\n      dup2\n      mstore\n      0x20\n      add\n      mload(0x40)\n      dup1\n      swap2\n      sub\n      swap1\n      keccak256\n      0x00\n      swap1\n      sload\n      swap1\n      0x0100\n      exp\n      swap1\n      div\n      0xffffffffffffffffffffffffffffffffffffffff\n      and\n        /* \"contracts/AuthService.sol\":1117:1152  userLogins[userLogin] == address(0) */\n      0xffffffffffffffffffffffffffffffffffffffff\n      and\n      eq\n        /* \"contracts/AuthService.sol\":1109:1190  require(userLogins[userLogin] == address(0),\"Your login already exist in system\") */\n      tag_498\n      jumpi\n      mload(0x40)\n      0x08c379a000000000000000000000000000000000000000000000000000000000\n      dup2\n      mstore\n      0x04\n      add\n      tag_499\n      swap1\n      tag_500\n      jump\t// in\n    tag_499:\n      mload(0x40)\n      dup1\n      swap2\n      sub\n      swap1\n      revert\n    tag_498:\n        /* \"contracts/AuthService.sol\":2034:2060  string[] memory reviewList */\n      0x60\n        /* \"contracts/AuthService.sol\":2070:2089  User memory newUser */\n      0x00\n        /* \"contracts/AuthService.sol\":2092:2160  User({fio:fio,userLogin:userLogin,status:status,reviews:reviewList}) */\n      mload(0x40)\n      dup1\n      0x80\n      add\n      0x40\n      mstore\n      dup1\n        /* \"contracts/AuthService.sol\":2133:2139  status */\n      dup8\n        /* \"contracts/AuthService.sol\":2092:2160  User({fio:fio,userLogin:userLogin,status:status,reviews:reviewList}) */\n      dup2\n      mstore\n      0x20\n      add\n        /* \"contracts/AuthService.sol\":2116:2125  userLogin */\n      dup9\n        /* \"contracts/AuthService.sol\":2092:2160  User({fio:fio,userLogin:userLogin,status:status,reviews:reviewList}) */\n      dup2\n      mstore\n      0x20\n      add\n        /* \"contracts/AuthService.sol\":2102:2105  fio */\n      dup10\n        /* \"contracts/AuthService.sol\":2092:2160  User({fio:fio,userLogin:userLogin,status:status,reviews:reviewList}) */\n      dup2\n      mstore\n      0x20\n      add\n        /* \"contracts/AuthService.sol\":2148:2158  reviewList */\n      dup4\n        /* \"contracts/AuthService.sol\":2092:2160  User({fio:fio,userLogin:userLogin,status:status,reviews:reviewList}) */\n      dup2\n      mstore\n      pop\n        /* \"contracts/AuthService.sol\":2070:2160  User memory newUser = User({fio:fio,userLogin:userLogin,status:status,reviews:reviewList}) */\n      swap1\n      pop\n        /* \"contracts/AuthService.sol\":2194:2205  userAddress */\n      dup5\n        /* \"contracts/AuthService.sol\":2170:2180  userLogins */\n      0x01\n        /* \"contracts/AuthService.sol\":2181:2190  userLogin */\n      dup9\n        /* \"contracts/AuthService.sol\":2170:2191  userLogins[userLogin] */\n      mload(0x40)\n      tag_502\n      swap2\n      swap1\n      tag_183\n      jump\t// in\n    tag_502:\n      swap1\n      dup2\n      mstore\n      0x20\n      add\n      mload(0x40)\n      dup1\n      swap2\n      sub\n      swap1\n      keccak256\n      0x00\n        /* \"contracts/AuthService.sol\":2170:2205  userLogins[userLogin] = userAddress */\n      0x0100\n      exp\n      dup2\n      sload\n      dup2\n      0xffffffffffffffffffffffffffffffffffffffff\n      mul\n      not\n      and\n      swap1\n      dup4\n      0xffffffffffffffffffffffffffffffffffffffff\n      and\n      mul\n      or\n      swap1\n      sstore\n      pop\n        /* \"contracts/AuthService.sol\":2236:2243  newUser */\n      dup1\n        /* \"contracts/AuthService.sol\":2215:2220  users */\n      0x02\n        /* \"contracts/AuthService.sol\":2215:2233  users[userAddress] */\n      0x00\n        /* \"contracts/AuthService.sol\":2221:2232  userAddress */\n      dup8\n        /* \"contracts/AuthService.sol\":2215:2233  users[userAddress] */\n      0xffffffffffffffffffffffffffffffffffffffff\n      and\n      0xffffffffffffffffffffffffffffffffffffffff\n      and\n      dup2\n      mstore\n      0x20\n      add\n      swap1\n      dup2\n      mstore\n      0x20\n      add\n      0x00\n      keccak256\n        /* \"contracts/AuthService.sol\":2215:2243  users[userAddress] = newUser */\n      0x00\n      dup3\n      add\n      mload\n      dup2\n      0x00\n      add\n      sstore\n      0x20\n      dup3\n      add\n      mload\n      dup2\n      0x01\n      add\n      swap1\n      dup1\n      mload\n      swap1\n      0x20\n      add\n      swap1\n      tag_503\n      swap3\n      swap2\n      swap1\n      tag_179\n      jump\t// in\n    tag_503:\n      pop\n      0x40\n      dup3\n      add\n      mload\n      dup2\n      0x02\n      add\n      swap1\n      dup1\n      mload\n      swap1\n      0x20\n      add\n      swap1\n      tag_504\n      swap3\n      swap2\n      swap1\n      tag_179\n      jump\t// in\n    tag_504:\n      pop\n      0x60\n      dup3\n      add\n      mload\n      dup2\n      0x03\n      add\n      swap1\n      dup1\n      mload\n      swap1\n      0x20\n      add\n      swap1\n      tag_505\n      swap3\n      swap2\n      swap1\n      tag_506\n      jump\t// in\n    tag_505:\n      pop\n      swap1\n      pop\n      pop\n        /* \"contracts/AuthService.sol\":2024:2250  {... */\n      pop\n      pop\n        /* \"contracts/AuthService.sol\":1875:2250  function registerFromAdmin(string memory fio,string memory userLogin,uint status,address userAddress) internal isNotRegistered(userAddress,userLogin){... */\n      pop\n      pop\n      pop\n      pop\n      pop\n      pop\n      jump\t// out\n        /* \"contracts/AuthService.sol\":779:945  function compare(string memory a,string memory b) internal pure returns (bool){... */\n    tag_172:\n        /* \"contracts/AuthService.sol\":852:856  bool */\n      0x00\n        /* \"contracts/AuthService.sol\":935:936  b */\n      dup2\n        /* \"contracts/AuthService.sol\":918:937  abi.encodePacked(b) */\n      add(0x20, mload(0x40))\n      tag_508\n      swap2\n      swap1\n      tag_183\n      jump\t// in\n    tag_508:\n      mload(0x40)\n      0x20\n      dup2\n      dup4\n      sub\n      sub\n      dup2\n      mstore\n      swap1\n      0x40\n      mstore\n        /* \"contracts/AuthService.sol\":908:938  keccak256(abi.encodePacked(b)) */\n      dup1\n      mload\n      swap1\n      0x20\n      add\n      keccak256\n        /* \"contracts/AuthService.sol\":901:902  a */\n      dup4\n        /* \"contracts/AuthService.sol\":884:903  abi.encodePacked(a) */\n      add(0x20, mload(0x40))\n      tag_509\n      swap2\n      swap1\n      tag_183\n      jump\t// in\n    tag_509:\n      mload(0x40)\n      0x20\n      dup2\n      dup4\n      sub\n      sub\n      dup2\n      mstore\n      swap1\n      0x40\n      mstore\n        /* \"contracts/AuthService.sol\":874:904  keccak256(abi.encodePacked(a)) */\n      dup1\n      mload\n      swap1\n      0x20\n      add\n      keccak256\n        /* \"contracts/AuthService.sol\":874:938  keccak256(abi.encodePacked(a)) == keccak256(abi.encodePacked(b)) */\n      eq\n        /* \"contracts/AuthService.sol\":867:938  return keccak256(abi.encodePacked(a)) == keccak256(abi.encodePacked(b)) */\n      swap1\n      pop\n        /* \"contracts/AuthService.sol\":779:945  function compare(string memory a,string memory b) internal pure returns (bool){... */\n      swap3\n      swap2\n      pop\n      pop\n      jump\t// out\n    tag_179:\n      dup3\n      dup1\n      sload\n      tag_510\n      swap1\n      tag_120\n      jump\t// in\n    tag_510:\n      swap1\n      0x00\n      mstore\n      keccak256(0x00, 0x20)\n      swap1\n      0x1f\n      add\n      0x20\n      swap1\n      div\n      dup2\n      add\n      swap3\n      dup3\n      tag_512\n      jumpi\n      0x00\n      dup6\n      sstore\n      jump(tag_511)\n    tag_512:\n      dup3\n      0x1f\n      lt\n      tag_513\n      jumpi\n      dup1\n      mload\n      not(0xff)\n      and\n      dup4\n      dup1\n      add\n      or\n      dup6\n      sstore\n      jump(tag_511)\n    tag_513:\n      dup3\n      dup1\n      add\n      0x01\n      add\n      dup6\n      sstore\n      dup3\n      iszero\n      tag_511\n      jumpi\n      swap2\n      dup3\n      add\n    tag_514:\n      dup3\n      dup2\n      gt\n      iszero\n      tag_515\n      jumpi\n      dup3\n      mload\n      dup3\n      sstore\n      swap2\n      0x20\n      add\n      swap2\n      swap1\n      0x01\n      add\n      swap1\n      jump(tag_514)\n    tag_515:\n    tag_511:\n      pop\n      swap1\n      pop\n      tag_516\n      swap2\n      swap1\n      tag_517\n      jump\t// in\n    tag_516:\n      pop\n      swap1\n      jump\t// out\n    tag_186:\n      dup3\n      dup1\n      sload\n      dup3\n      dup3\n      sstore\n      swap1\n      0x00\n      mstore\n      keccak256(0x00, 0x20)\n      swap1\n      dup2\n      add\n      swap3\n      dup3\n      iszero\n      tag_518\n      jumpi\n      swap2\n      0x20\n      mul\n      dup3\n      add\n    tag_519:\n      dup3\n      dup2\n      gt\n      iszero\n      tag_520\n      jumpi\n      dup3\n      mload\n      dup3\n      exp(0x0100, 0x00)\n      dup2\n      sload\n      dup2\n      0xffffffffffffffffffffffffffffffffffffffff\n      mul\n      not\n      and\n      swap1\n      dup4\n      0xffffffffffffffffffffffffffffffffffffffff\n      and\n      mul\n      or\n      swap1\n      sstore\n      pop\n      swap2\n      0x20\n      add\n      swap2\n      swap1\n      0x01\n      add\n      swap1\n      jump(tag_519)\n    tag_520:\n    tag_518:\n      pop\n      swap1\n      pop\n      tag_521\n      swap2\n      swap1\n      tag_517\n      jump\t// in\n    tag_521:\n      pop\n      swap1\n      jump\t// out\n    tag_506:\n      dup3\n      dup1\n      sload\n      dup3\n      dup3\n      sstore\n      swap1\n      0x00\n      mstore\n      keccak256(0x00, 0x20)\n      swap1\n      dup2\n      add\n      swap3\n      dup3\n      iszero\n      tag_522\n      jumpi\n      swap2\n      0x20\n      mul\n      dup3\n      add\n    tag_523:\n      dup3\n      dup2\n      gt\n      iszero\n      tag_524\n      jumpi\n      dup3\n      mload\n      dup3\n      swap1\n      dup1\n      mload\n      swap1\n      0x20\n      add\n      swap1\n      tag_525\n      swap3\n      swap2\n      swap1\n      tag_179\n      jump\t// in\n    tag_525:\n      pop\n      swap2\n      0x20\n      add\n      swap2\n      swap1\n      0x01\n      add\n      swap1\n      jump(tag_523)\n    tag_524:\n    tag_522:\n      pop\n      swap1\n      pop\n      tag_526\n      swap2\n      swap1\n      tag_527\n      jump\t// in\n    tag_526:\n      pop\n      swap1\n      jump\t// out\n    tag_517:\n    tag_528:\n      dup1\n      dup3\n      gt\n      iszero\n      tag_529\n      jumpi\n      0x00\n      dup2\n      0x00\n      swap1\n      sstore\n      pop\n      0x01\n      add\n      jump(tag_528)\n    tag_529:\n      pop\n      swap1\n      jump\t// out\n    tag_527:\n    tag_530:\n      dup1\n      dup3\n      gt\n      iszero\n      tag_531\n      jumpi\n      0x00\n      dup2\n      dup2\n      tag_532\n      swap2\n      swap1\n      tag_533\n      jump\t// in\n    tag_532:\n      pop\n      0x01\n      add\n      jump(tag_530)\n    tag_531:\n      pop\n      swap1\n      jump\t// out\n    tag_533:\n      pop\n      dup1\n      sload\n      tag_534\n      swap1\n      tag_120\n      jump\t// in\n    tag_534:\n      0x00\n      dup3\n      sstore\n      dup1\n      0x1f\n      lt\n      tag_536\n      jumpi\n      pop\n      jump(tag_535)\n    tag_536:\n      0x1f\n      add\n      0x20\n      swap1\n      div\n      swap1\n      0x00\n      mstore\n      keccak256(0x00, 0x20)\n      swap1\n      dup2\n      add\n      swap1\n      tag_537\n      swap2\n      swap1\n      tag_517\n      jump\t// in\n    tag_537:\n    tag_535:\n      pop\n      jump\t// out\n        /* \"#utility.yul\":7:419   */\n    tag_539:\n        /* \"#utility.yul\":85:90   */\n      0x00\n        /* \"#utility.yul\":110:176   */\n      tag_541\n        /* \"#utility.yul\":126:175   */\n      tag_542\n        /* \"#utility.yul\":168:174   */\n      dup5\n        /* \"#utility.yul\":126:175   */\n      tag_543\n      jump\t// in\n    tag_542:\n        /* \"#utility.yul\":110:176   */\n      tag_544\n      jump\t// in\n    tag_541:\n        /* \"#utility.yul\":101:176   */\n      swap1\n      pop\n        /* \"#utility.yul\":199:205   */\n      dup3\n        /* \"#utility.yul\":192:197   */\n      dup2\n        /* \"#utility.yul\":185:206   */\n      mstore\n        /* \"#utility.yul\":237:241   */\n      0x20\n        /* \"#utility.yul\":230:235   */\n      dup2\n        /* \"#utility.yul\":226:242   */\n      add\n        /* \"#utility.yul\":275:278   */\n      dup5\n        /* \"#utility.yul\":266:272   */\n      dup5\n        /* \"#utility.yul\":261:264   */\n      dup5\n        /* \"#utility.yul\":257:273   */\n      add\n        /* \"#utility.yul\":254:279   */\n      gt\n        /* \"#utility.yul\":251:363   */\n      iszero\n      tag_545\n      jumpi\n        /* \"#utility.yul\":282:361   */\n      tag_546\n      tag_547\n      jump\t// in\n    tag_546:\n        /* \"#utility.yul\":251:363   */\n    tag_545:\n        /* \"#utility.yul\":372:413   */\n      tag_548\n        /* \"#utility.yul\":406:412   */\n      dup5\n        /* \"#utility.yul\":401:404   */\n      dup3\n        /* \"#utility.yul\":396:399   */\n      dup6\n        /* \"#utility.yul\":372:413   */\n      tag_549\n      jump\t// in\n    tag_548:\n        /* \"#utility.yul\":91:419   */\n      pop\n        /* \"#utility.yul\":7:419   */\n      swap4\n      swap3\n      pop\n      pop\n      pop\n      jump\t// out\n        /* \"#utility.yul\":425:564   */\n    tag_550:\n        /* \"#utility.yul\":471:476   */\n      0x00\n        /* \"#utility.yul\":509:515   */\n      dup2\n        /* \"#utility.yul\":496:516   */\n      calldataload\n        /* \"#utility.yul\":487:516   */\n      swap1\n      pop\n        /* \"#utility.yul\":525:558   */\n      tag_552\n        /* \"#utility.yul\":552:557   */\n      dup2\n        /* \"#utility.yul\":525:558   */\n      tag_553\n      jump\t// in\n    tag_552:\n        /* \"#utility.yul\":425:564   */\n      swap3\n      swap2\n      pop\n      pop\n      jump\t// out\n        /* \"#utility.yul\":570:725   */\n    tag_554:\n        /* \"#utility.yul\":624:629   */\n      0x00\n        /* \"#utility.yul\":662:668   */\n      dup2\n        /* \"#utility.yul\":649:669   */\n      calldataload\n        /* \"#utility.yul\":640:669   */\n      swap1\n      pop\n        /* \"#utility.yul\":678:719   */\n      tag_556\n        /* \"#utility.yul\":713:718   */\n      dup2\n        /* \"#utility.yul\":678:719   */\n      tag_557\n      jump\t// in\n    tag_556:\n        /* \"#utility.yul\":570:725   */\n      swap3\n      swap2\n      pop\n      pop\n      jump\t// out\n        /* \"#utility.yul\":731:864   */\n    tag_558:\n        /* \"#utility.yul\":774:779   */\n      0x00\n        /* \"#utility.yul\":812:818   */\n      dup2\n        /* \"#utility.yul\":799:819   */\n      calldataload\n        /* \"#utility.yul\":790:819   */\n      swap1\n      pop\n        /* \"#utility.yul\":828:858   */\n      tag_560\n        /* \"#utility.yul\":852:857   */\n      dup2\n        /* \"#utility.yul\":828:858   */\n      tag_561\n      jump\t// in\n    tag_560:\n        /* \"#utility.yul\":731:864   */\n      swap3\n      swap2\n      pop\n      pop\n      jump\t// out\n        /* \"#utility.yul\":870:1007   */\n    tag_562:\n        /* \"#utility.yul\":915:920   */\n      0x00\n        /* \"#utility.yul\":953:959   */\n      dup2\n        /* \"#utility.yul\":940:960   */\n      calldataload\n        /* \"#utility.yul\":931:960   */\n      swap1\n      pop\n        /* \"#utility.yul\":969:1001   */\n      tag_564\n        /* \"#utility.yul\":995:1000   */\n      dup2\n        /* \"#utility.yul\":969:1001   */\n      tag_565\n      jump\t// in\n    tag_564:\n        /* \"#utility.yul\":870:1007   */\n      swap3\n      swap2\n      pop\n      pop\n      jump\t// out\n        /* \"#utility.yul\":1027:1367   */\n    tag_566:\n        /* \"#utility.yul\":1083:1088   */\n      0x00\n        /* \"#utility.yul\":1132:1135   */\n      dup3\n        /* \"#utility.yul\":1125:1129   */\n      0x1f\n        /* \"#utility.yul\":1117:1123   */\n      dup4\n        /* \"#utility.yul\":1113:1130   */\n      add\n        /* \"#utility.yul\":1109:1136   */\n      slt\n        /* \"#utility.yul\":1099:1221   */\n      tag_568\n      jumpi\n        /* \"#utility.yul\":1140:1219   */\n      tag_569\n      tag_570\n      jump\t// in\n    tag_569:\n        /* \"#utility.yul\":1099:1221   */\n    tag_568:\n        /* \"#utility.yul\":1257:1263   */\n      dup2\n        /* \"#utility.yul\":1244:1264   */\n      calldataload\n        /* \"#utility.yul\":1282:1361   */\n      tag_571\n        /* \"#utility.yul\":1357:1360   */\n      dup5\n        /* \"#utility.yul\":1349:1355   */\n      dup3\n        /* \"#utility.yul\":1342:1346   */\n      0x20\n        /* \"#utility.yul\":1334:1340   */\n      dup7\n        /* \"#utility.yul\":1330:1347   */\n      add\n        /* \"#utility.yul\":1282:1361   */\n      tag_539\n      jump\t// in\n    tag_571:\n        /* \"#utility.yul\":1273:1361   */\n      swap2\n      pop\n        /* \"#utility.yul\":1089:1367   */\n      pop\n        /* \"#utility.yul\":1027:1367   */\n      swap3\n      swap2\n      pop\n      pop\n      jump\t// out\n        /* \"#utility.yul\":1373:1702   */\n    tag_29:\n        /* \"#utility.yul\":1432:1438   */\n      0x00\n        /* \"#utility.yul\":1481:1483   */\n      0x20\n        /* \"#utility.yul\":1469:1478   */\n      dup3\n        /* \"#utility.yul\":1460:1467   */\n      dup5\n        /* \"#utility.yul\":1456:1479   */\n      sub\n        /* \"#utility.yul\":1452:1484   */\n      slt\n        /* \"#utility.yul\":1449:1568   */\n      iszero\n      tag_573\n      jumpi\n        /* \"#utility.yul\":1487:1566   */\n      tag_574\n      tag_575\n      jump\t// in\n    tag_574:\n        /* \"#utility.yul\":1449:1568   */\n    tag_573:\n        /* \"#utility.yul\":1607:1608   */\n      0x00\n        /* \"#utility.yul\":1632:1685   */\n      tag_576\n        /* \"#utility.yul\":1677:1684   */\n      dup5\n        /* \"#utility.yul\":1668:1674   */\n      dup3\n        /* \"#utility.yul\":1657:1666   */\n      dup6\n        /* \"#utility.yul\":1653:1675   */\n      add\n        /* \"#utility.yul\":1632:1685   */\n      tag_550\n      jump\t// in\n    tag_576:\n        /* \"#utility.yul\":1622:1685   */\n      swap2\n      pop\n        /* \"#utility.yul\":1578:1695   */\n      pop\n        /* \"#utility.yul\":1373:1702   */\n      swap3\n      swap2\n      pop\n      pop\n      jump\t// out\n        /* \"#utility.yul\":1708:2053   */\n    tag_71:\n        /* \"#utility.yul\":1775:1781   */\n      0x00\n        /* \"#utility.yul\":1824:1826   */\n      0x20\n        /* \"#utility.yul\":1812:1821   */\n      dup3\n        /* \"#utility.yul\":1803:1810   */\n      dup5\n        /* \"#utility.yul\":1799:1822   */\n      sub\n        /* \"#utility.yul\":1795:1827   */\n      slt\n        /* \"#utility.yul\":1792:1911   */\n      iszero\n      tag_578\n      jumpi\n        /* \"#utility.yul\":1830:1909   */\n      tag_579\n      tag_575\n      jump\t// in\n    tag_579:\n        /* \"#utility.yul\":1792:1911   */\n    tag_578:\n        /* \"#utility.yul\":1950:1951   */\n      0x00\n        /* \"#utility.yul\":1975:2036   */\n      tag_580\n        /* \"#utility.yul\":2028:2035   */\n      dup5\n        /* \"#utility.yul\":2019:2025   */\n      dup3\n        /* \"#utility.yul\":2008:2017   */\n      dup6\n        /* \"#utility.yul\":2004:2026   */\n      add\n        /* \"#utility.yul\":1975:2036   */\n      tag_554\n      jump\t// in\n    tag_580:\n        /* \"#utility.yul\":1965:2036   */\n      swap2\n      pop\n        /* \"#utility.yul\":1921:2046   */\n      pop\n        /* \"#utility.yul\":1708:2053   */\n      swap3\n      swap2\n      pop\n      pop\n      jump\t// out\n        /* \"#utility.yul\":2059:3038   */\n    tag_87:\n        /* \"#utility.yul\":2156:2162   */\n      0x00\n        /* \"#utility.yul\":2164:2170   */\n      dup1\n        /* \"#utility.yul\":2172:2178   */\n      0x00\n        /* \"#utility.yul\":2221:2223   */\n      0x60\n        /* \"#utility.yul\":2209:2218   */\n      dup5\n        /* \"#utility.yul\":2200:2207   */\n      dup7\n        /* \"#utility.yul\":2196:2219   */\n      sub\n        /* \"#utility.yul\":2192:2224   */\n      slt\n        /* \"#utility.yul\":2189:2308   */\n      iszero\n      tag_582\n      jumpi\n        /* \"#utility.yul\":2227:2306   */\n      tag_583\n      tag_575\n      jump\t// in\n    tag_583:\n        /* \"#utility.yul\":2189:2308   */\n    tag_582:\n        /* \"#utility.yul\":2347:2348   */\n      0x00\n        /* \"#utility.yul\":2372:2425   */\n      tag_584\n        /* \"#utility.yul\":2417:2424   */\n      dup7\n        /* \"#utility.yul\":2408:2414   */\n      dup3\n        /* \"#utility.yul\":2397:2406   */\n      dup8\n        /* \"#utility.yul\":2393:2415   */\n      add\n        /* \"#utility.yul\":2372:2425   */\n      tag_550\n      jump\t// in\n    tag_584:\n        /* \"#utility.yul\":2362:2425   */\n      swap4\n      pop\n        /* \"#utility.yul\":2318:2435   */\n      pop\n        /* \"#utility.yul\":2502:2504   */\n      0x20\n        /* \"#utility.yul\":2491:2500   */\n      dup5\n        /* \"#utility.yul\":2487:2505   */\n      add\n        /* \"#utility.yul\":2474:2506   */\n      calldataload\n        /* \"#utility.yul\":2533:2551   */\n      0xffffffffffffffff\n        /* \"#utility.yul\":2525:2531   */\n      dup2\n        /* \"#utility.yul\":2522:2552   */\n      gt\n        /* \"#utility.yul\":2519:2636   */\n      iszero\n      tag_585\n      jumpi\n        /* \"#utility.yul\":2555:2634   */\n      tag_586\n      tag_587\n      jump\t// in\n    tag_586:\n        /* \"#utility.yul\":2519:2636   */\n    tag_585:\n        /* \"#utility.yul\":2660:2723   */\n      tag_588\n        /* \"#utility.yul\":2715:2722   */\n      dup7\n        /* \"#utility.yul\":2706:2712   */\n      dup3\n        /* \"#utility.yul\":2695:2704   */\n      dup8\n        /* \"#utility.yul\":2691:2713   */\n      add\n        /* \"#utility.yul\":2660:2723   */\n      tag_566\n      jump\t// in\n    tag_588:\n        /* \"#utility.yul\":2650:2723   */\n      swap3\n      pop\n        /* \"#utility.yul\":2445:2733   */\n      pop\n        /* \"#utility.yul\":2800:2802   */\n      0x40\n        /* \"#utility.yul\":2789:2798   */\n      dup5\n        /* \"#utility.yul\":2785:2803   */\n      add\n        /* \"#utility.yul\":2772:2804   */\n      calldataload\n        /* \"#utility.yul\":2831:2849   */\n      0xffffffffffffffff\n        /* \"#utility.yul\":2823:2829   */\n      dup2\n        /* \"#utility.yul\":2820:2850   */\n      gt\n        /* \"#utility.yul\":2817:2934   */\n      iszero\n      tag_589\n      jumpi\n        /* \"#utility.yul\":2853:2932   */\n      tag_590\n      tag_587\n      jump\t// in\n    tag_590:\n        /* \"#utility.yul\":2817:2934   */\n    tag_589:\n        /* \"#utility.yul\":2958:3021   */\n      tag_591\n        /* \"#utility.yul\":3013:3020   */\n      dup7\n        /* \"#utility.yul\":3004:3010   */\n      dup3\n        /* \"#utility.yul\":2993:3002   */\n      dup8\n        /* \"#utility.yul\":2989:3011   */\n      add\n        /* \"#utility.yul\":2958:3021   */\n      tag_566\n      jump\t// in\n    tag_591:\n        /* \"#utility.yul\":2948:3021   */\n      swap2\n      pop\n        /* \"#utility.yul\":2743:3031   */\n      pop\n        /* \"#utility.yul\":2059:3038   */\n      swap3\n      pop\n      swap3\n      pop\n      swap3\n      jump\t// out\n        /* \"#utility.yul\":3044:4167   */\n    tag_43:\n        /* \"#utility.yul\":3149:3155   */\n      0x00\n        /* \"#utility.yul\":3157:3163   */\n      dup1\n        /* \"#utility.yul\":3165:3171   */\n      0x00\n        /* \"#utility.yul\":3173:3179   */\n      dup1\n        /* \"#utility.yul\":3222:3225   */\n      0x80\n        /* \"#utility.yul\":3210:3219   */\n      dup6\n        /* \"#utility.yul\":3201:3208   */\n      dup8\n        /* \"#utility.yul\":3197:3220   */\n      sub\n        /* \"#utility.yul\":3193:3226   */\n      slt\n        /* \"#utility.yul\":3190:3310   */\n      iszero\n      tag_593\n      jumpi\n        /* \"#utility.yul\":3229:3308   */\n      tag_594\n      tag_575\n      jump\t// in\n    tag_594:\n        /* \"#utility.yul\":3190:3310   */\n    tag_593:\n        /* \"#utility.yul\":3349:3350   */\n      0x00\n        /* \"#utility.yul\":3374:3427   */\n      tag_595\n        /* \"#utility.yul\":3419:3426   */\n      dup8\n        /* \"#utility.yul\":3410:3416   */\n      dup3\n        /* \"#utility.yul\":3399:3408   */\n      dup9\n        /* \"#utility.yul\":3395:3417   */\n      add\n        /* \"#utility.yul\":3374:3427   */\n      tag_550\n      jump\t// in\n    tag_595:\n        /* \"#utility.yul\":3364:3427   */\n      swap5\n      pop\n        /* \"#utility.yul\":3320:3437   */\n      pop\n        /* \"#utility.yul\":3504:3506   */\n      0x20\n        /* \"#utility.yul\":3493:3502   */\n      dup6\n        /* \"#utility.yul\":3489:3507   */\n      add\n        /* \"#utility.yul\":3476:3508   */\n      calldataload\n        /* \"#utility.yul\":3535:3553   */\n      0xffffffffffffffff\n        /* \"#utility.yul\":3527:3533   */\n      dup2\n        /* \"#utility.yul\":3524:3554   */\n      gt\n        /* \"#utility.yul\":3521:3638   */\n      iszero\n      tag_596\n      jumpi\n        /* \"#utility.yul\":3557:3636   */\n      tag_597\n      tag_587\n      jump\t// in\n    tag_597:\n        /* \"#utility.yul\":3521:3638   */\n    tag_596:\n        /* \"#utility.yul\":3662:3725   */\n      tag_598\n        /* \"#utility.yul\":3717:3724   */\n      dup8\n        /* \"#utility.yul\":3708:3714   */\n      dup3\n        /* \"#utility.yul\":3697:3706   */\n      dup9\n        /* \"#utility.yul\":3693:3715   */\n      add\n        /* \"#utility.yul\":3662:3725   */\n      tag_566\n      jump\t// in\n    tag_598:\n        /* \"#utility.yul\":3652:3725   */\n      swap4\n      pop\n        /* \"#utility.yul\":3447:3735   */\n      pop\n        /* \"#utility.yul\":3802:3804   */\n      0x40\n        /* \"#utility.yul\":3791:3800   */\n      dup6\n        /* \"#utility.yul\":3787:3805   */\n      add\n        /* \"#utility.yul\":3774:3806   */\n      calldataload\n        /* \"#utility.yul\":3833:3851   */\n      0xffffffffffffffff\n        /* \"#utility.yul\":3825:3831   */\n      dup2\n        /* \"#utility.yul\":3822:3852   */\n      gt\n        /* \"#utility.yul\":3819:3936   */\n      iszero\n      tag_599\n      jumpi\n        /* \"#utility.yul\":3855:3934   */\n      tag_600\n      tag_587\n      jump\t// in\n    tag_600:\n        /* \"#utility.yul\":3819:3936   */\n    tag_599:\n        /* \"#utility.yul\":3960:4023   */\n      tag_601\n        /* \"#utility.yul\":4015:4022   */\n      dup8\n        /* \"#utility.yul\":4006:4012   */\n      dup3\n        /* \"#utility.yul\":3995:4004   */\n      dup9\n        /* \"#utility.yul\":3991:4013   */\n      add\n        /* \"#utility.yul\":3960:4023   */\n      tag_566\n      jump\t// in\n    tag_601:\n        /* \"#utility.yul\":3950:4023   */\n      swap3\n      pop\n        /* \"#utility.yul\":3745:4033   */\n      pop\n        /* \"#utility.yul\":4072:4074   */\n      0x60\n        /* \"#utility.yul\":4098:4150   */\n      tag_602\n        /* \"#utility.yul\":4142:4149   */\n      dup8\n        /* \"#utility.yul\":4133:4139   */\n      dup3\n        /* \"#utility.yul\":4122:4131   */\n      dup9\n        /* \"#utility.yul\":4118:4140   */\n      add\n        /* \"#utility.yul\":4098:4150   */\n      tag_562\n      jump\t// in\n    tag_602:\n        /* \"#utility.yul\":4088:4150   */\n      swap2\n      pop\n        /* \"#utility.yul\":4043:4160   */\n      pop\n        /* \"#utility.yul\":3044:4167   */\n      swap3\n      swap6\n      swap2\n      swap5\n      pop\n      swap3\n      pop\n      jump\t// out\n        /* \"#utility.yul\":4173:5478   */\n    tag_61:\n        /* \"#utility.yul\":4289:4295   */\n      0x00\n        /* \"#utility.yul\":4297:4303   */\n      dup1\n        /* \"#utility.yul\":4305:4311   */\n      0x00\n        /* \"#utility.yul\":4313:4319   */\n      dup1\n        /* \"#utility.yul\":4362:4365   */\n      0x80\n        /* \"#utility.yul\":4350:4359   */\n      dup6\n        /* \"#utility.yul\":4341:4348   */\n      dup8\n        /* \"#utility.yul\":4337:4360   */\n      sub\n        /* \"#utility.yul\":4333:4366   */\n      slt\n        /* \"#utility.yul\":4330:4450   */\n      iszero\n      tag_604\n      jumpi\n        /* \"#utility.yul\":4369:4448   */\n      tag_605\n      tag_575\n      jump\t// in\n    tag_605:\n        /* \"#utility.yul\":4330:4450   */\n    tag_604:\n        /* \"#utility.yul\":4489:4490   */\n      0x00\n        /* \"#utility.yul\":4514:4567   */\n      tag_606\n        /* \"#utility.yul\":4559:4566   */\n      dup8\n        /* \"#utility.yul\":4550:4556   */\n      dup3\n        /* \"#utility.yul\":4539:4548   */\n      dup9\n        /* \"#utility.yul\":4535:4557   */\n      add\n        /* \"#utility.yul\":4514:4567   */\n      tag_550\n      jump\t// in\n    tag_606:\n        /* \"#utility.yul\":4504:4567   */\n      swap5\n      pop\n        /* \"#utility.yul\":4460:4577   */\n      pop\n        /* \"#utility.yul\":4644:4646   */\n      0x20\n        /* \"#utility.yul\":4633:4642   */\n      dup6\n        /* \"#utility.yul\":4629:4647   */\n      add\n        /* \"#utility.yul\":4616:4648   */\n      calldataload\n        /* \"#utility.yul\":4675:4693   */\n      0xffffffffffffffff\n        /* \"#utility.yul\":4667:4673   */\n      dup2\n        /* \"#utility.yul\":4664:4694   */\n      gt\n        /* \"#utility.yul\":4661:4778   */\n      iszero\n      tag_607\n      jumpi\n        /* \"#utility.yul\":4697:4776   */\n      tag_608\n      tag_587\n      jump\t// in\n    tag_608:\n        /* \"#utility.yul\":4661:4778   */\n    tag_607:\n        /* \"#utility.yul\":4802:4865   */\n      tag_609\n        /* \"#utility.yul\":4857:4864   */\n      dup8\n        /* \"#utility.yul\":4848:4854   */\n      dup3\n        /* \"#utility.yul\":4837:4846   */\n      dup9\n        /* \"#utility.yul\":4833:4855   */\n      add\n        /* \"#utility.yul\":4802:4865   */\n      tag_566\n      jump\t// in\n    tag_609:\n        /* \"#utility.yul\":4792:4865   */\n      swap4\n      pop\n        /* \"#utility.yul\":4587:4875   */\n      pop\n        /* \"#utility.yul\":4942:4944   */\n      0x40\n        /* \"#utility.yul\":4931:4940   */\n      dup6\n        /* \"#utility.yul\":4927:4945   */\n      add\n        /* \"#utility.yul\":4914:4946   */\n      calldataload\n        /* \"#utility.yul\":4973:4991   */\n      0xffffffffffffffff\n        /* \"#utility.yul\":4965:4971   */\n      dup2\n        /* \"#utility.yul\":4962:4992   */\n      gt\n        /* \"#utility.yul\":4959:5076   */\n      iszero\n      tag_610\n      jumpi\n        /* \"#utility.yul\":4995:5074   */\n      tag_611\n      tag_587\n      jump\t// in\n    tag_611:\n        /* \"#utility.yul\":4959:5076   */\n    tag_610:\n        /* \"#utility.yul\":5100:5163   */\n      tag_612\n        /* \"#utility.yul\":5155:5162   */\n      dup8\n        /* \"#utility.yul\":5146:5152   */\n      dup3\n        /* \"#utility.yul\":5135:5144   */\n      dup9\n        /* \"#utility.yul\":5131:5153   */\n      add\n        /* \"#utility.yul\":5100:5163   */\n      tag_566\n      jump\t// in\n    tag_612:\n        /* \"#utility.yul\":5090:5163   */\n      swap3\n      pop\n        /* \"#utility.yul\":4885:5173   */\n      pop\n        /* \"#utility.yul\":5240:5242   */\n      0x60\n        /* \"#utility.yul\":5229:5238   */\n      dup6\n        /* \"#utility.yul\":5225:5243   */\n      add\n        /* \"#utility.yul\":5212:5244   */\n      calldataload\n        /* \"#utility.yul\":5271:5289   */\n      0xffffffffffffffff\n        /* \"#utility.yul\":5263:5269   */\n      dup2\n        /* \"#utility.yul\":5260:5290   */\n      gt\n        /* \"#utility.yul\":5257:5374   */\n      iszero\n      tag_613\n      jumpi\n        /* \"#utility.yul\":5293:5372   */\n      tag_614\n      tag_587\n      jump\t// in\n    tag_614:\n        /* \"#utility.yul\":5257:5374   */\n    tag_613:\n        /* \"#utility.yul\":5398:5461   */\n      tag_615\n        /* \"#utility.yul\":5453:5460   */\n      dup8\n        /* \"#utility.yul\":5444:5450   */\n      dup3\n        /* \"#utility.yul\":5433:5442   */\n      dup9\n        /* \"#utility.yul\":5429:5451   */\n      add\n        /* \"#utility.yul\":5398:5461   */\n      tag_566\n      jump\t// in\n    tag_615:\n        /* \"#utility.yul\":5388:5461   */\n      swap2\n      pop\n        /* \"#utility.yul\":5183:5471   */\n      pop\n        /* \"#utility.yul\":4173:5478   */\n      swap3\n      swap6\n      swap2\n      swap5\n      pop\n      swap3\n      pop\n      jump\t// out\n        /* \"#utility.yul\":5484:5993   */\n    tag_47:\n        /* \"#utility.yul\":5553:5559   */\n      0x00\n        /* \"#utility.yul\":5602:5604   */\n      0x20\n        /* \"#utility.yul\":5590:5599   */\n      dup3\n        /* \"#utility.yul\":5581:5588   */\n      dup5\n        /* \"#utility.yul\":5577:5600   */\n      sub\n        /* \"#utility.yul\":5573:5605   */\n      slt\n        /* \"#utility.yul\":5570:5689   */\n      iszero\n      tag_617\n      jumpi\n        /* \"#utility.yul\":5608:5687   */\n      tag_618\n      tag_575\n      jump\t// in\n    tag_618:\n        /* \"#utility.yul\":5570:5689   */\n    tag_617:\n        /* \"#utility.yul\":5756:5757   */\n      0x00\n        /* \"#utility.yul\":5745:5754   */\n      dup3\n        /* \"#utility.yul\":5741:5758   */\n      add\n        /* \"#utility.yul\":5728:5759   */\n      calldataload\n        /* \"#utility.yul\":5786:5804   */\n      0xffffffffffffffff\n        /* \"#utility.yul\":5778:5784   */\n      dup2\n        /* \"#utility.yul\":5775:5805   */\n      gt\n        /* \"#utility.yul\":5772:5889   */\n      iszero\n      tag_619\n      jumpi\n        /* \"#utility.yul\":5808:5887   */\n      tag_620\n      tag_587\n      jump\t// in\n    tag_620:\n        /* \"#utility.yul\":5772:5889   */\n    tag_619:\n        /* \"#utility.yul\":5913:5976   */\n      tag_621\n        /* \"#utility.yul\":5968:5975   */\n      dup5\n        /* \"#utility.yul\":5959:5965   */\n      dup3\n        /* \"#utility.yul\":5948:5957   */\n      dup6\n        /* \"#utility.yul\":5944:5966   */\n      add\n        /* \"#utility.yul\":5913:5976   */\n      tag_566\n      jump\t// in\n    tag_621:\n        /* \"#utility.yul\":5903:5976   */\n      swap2\n      pop\n        /* \"#utility.yul\":5699:5986   */\n      pop\n        /* \"#utility.yul\":5484:5993   */\n      swap3\n      swap2\n      pop\n      pop\n      jump\t// out\n        /* \"#utility.yul\":5999:6653   */\n    tag_39:\n        /* \"#utility.yul\":6077:6083   */\n      0x00\n        /* \"#utility.yul\":6085:6091   */\n      dup1\n        /* \"#utility.yul\":6134:6136   */\n      0x40\n        /* \"#utility.yul\":6122:6131   */\n      dup4\n        /* \"#utility.yul\":6113:6120   */\n      dup6\n        /* \"#utility.yul\":6109:6132   */\n      sub\n        /* \"#utility.yul\":6105:6137   */\n      slt\n        /* \"#utility.yul\":6102:6221   */\n      iszero\n      tag_623\n      jumpi\n        /* \"#utility.yul\":6140:6219   */\n      tag_624\n      tag_575\n      jump\t// in\n    tag_624:\n        /* \"#utility.yul\":6102:6221   */\n    tag_623:\n        /* \"#utility.yul\":6288:6289   */\n      0x00\n        /* \"#utility.yul\":6277:6286   */\n      dup4\n        /* \"#utility.yul\":6273:6290   */\n      add\n        /* \"#utility.yul\":6260:6291   */\n      calldataload\n        /* \"#utility.yul\":6318:6336   */\n      0xffffffffffffffff\n        /* \"#utility.yul\":6310:6316   */\n      dup2\n        /* \"#utility.yul\":6307:6337   */\n      gt\n        /* \"#utility.yul\":6304:6421   */\n      iszero\n      tag_625\n      jumpi\n        /* \"#utility.yul\":6340:6419   */\n      tag_626\n      tag_587\n      jump\t// in\n    tag_626:\n        /* \"#utility.yul\":6304:6421   */\n    tag_625:\n        /* \"#utility.yul\":6445:6508   */\n      tag_627\n        /* \"#utility.yul\":6500:6507   */\n      dup6\n        /* \"#utility.yul\":6491:6497   */\n      dup3\n        /* \"#utility.yul\":6480:6489   */\n      dup7\n        /* \"#utility.yul\":6476:6498   */\n      add\n        /* \"#utility.yul\":6445:6508   */\n      tag_566\n      jump\t// in\n    tag_627:\n        /* \"#utility.yul\":6435:6508   */\n      swap3\n      pop\n        /* \"#utility.yul\":6231:6518   */\n      pop\n        /* \"#utility.yul\":6557:6559   */\n      0x20\n        /* \"#utility.yul\":6583:6636   */\n      tag_628\n        /* \"#utility.yul\":6628:6635   */\n      dup6\n        /* \"#utility.yul\":6619:6625   */\n      dup3\n        /* \"#utility.yul\":6608:6617   */\n      dup7\n        /* \"#utility.yul\":6604:6626   */\n      add\n        /* \"#utility.yul\":6583:6636   */\n      tag_550\n      jump\t// in\n    tag_628:\n        /* \"#utility.yul\":6573:6636   */\n      swap2\n      pop\n        /* \"#utility.yul\":6528:6646   */\n      pop\n        /* \"#utility.yul\":5999:6653   */\n      swap3\n      pop\n      swap3\n      swap1\n      pop\n      jump\t// out\n        /* \"#utility.yul\":6659:7307   */\n    tag_35:\n        /* \"#utility.yul\":6734:6740   */\n      0x00\n        /* \"#utility.yul\":6742:6748   */\n      dup1\n        /* \"#utility.yul\":6791:6793   */\n      0x40\n        /* \"#utility.yul\":6779:6788   */\n      dup4\n        /* \"#utility.yul\":6770:6777   */\n      dup6\n        /* \"#utility.yul\":6766:6789   */\n      sub\n        /* \"#utility.yul\":6762:6794   */\n      slt\n        /* \"#utility.yul\":6759:6878   */\n      iszero\n      tag_630\n      jumpi\n        /* \"#utility.yul\":6797:6876   */\n      tag_631\n      tag_575\n      jump\t// in\n    tag_631:\n        /* \"#utility.yul\":6759:6878   */\n    tag_630:\n        /* \"#utility.yul\":6945:6946   */\n      0x00\n        /* \"#utility.yul\":6934:6943   */\n      dup4\n        /* \"#utility.yul\":6930:6947   */\n      add\n        /* \"#utility.yul\":6917:6948   */\n      calldataload\n        /* \"#utility.yul\":6975:6993   */\n      0xffffffffffffffff\n        /* \"#utility.yul\":6967:6973   */\n      dup2\n        /* \"#utility.yul\":6964:6994   */\n      gt\n        /* \"#utility.yul\":6961:7078   */\n      iszero\n      tag_632\n      jumpi\n        /* \"#utility.yul\":6997:7076   */\n      tag_633\n      tag_587\n      jump\t// in\n    tag_633:\n        /* \"#utility.yul\":6961:7078   */\n    tag_632:\n        /* \"#utility.yul\":7102:7165   */\n      tag_634\n        /* \"#utility.yul\":7157:7164   */\n      dup6\n        /* \"#utility.yul\":7148:7154   */\n      dup3\n        /* \"#utility.yul\":7137:7146   */\n      dup7\n        /* \"#utility.yul\":7133:7155   */\n      add\n        /* \"#utility.yul\":7102:7165   */\n      tag_566\n      jump\t// in\n    tag_634:\n        /* \"#utility.yul\":7092:7165   */\n      swap3\n      pop\n        /* \"#utility.yul\":6888:7175   */\n      pop\n        /* \"#utility.yul\":7214:7216   */\n      0x20\n        /* \"#utility.yul\":7240:7290   */\n      tag_635\n        /* \"#utility.yul\":7282:7289   */\n      dup6\n        /* \"#utility.yul\":7273:7279   */\n      dup3\n        /* \"#utility.yul\":7262:7271   */\n      dup7\n        /* \"#utility.yul\":7258:7280   */\n      add\n        /* \"#utility.yul\":7240:7290   */\n      tag_558\n      jump\t// in\n    tag_635:\n        /* \"#utility.yul\":7230:7290   */\n      swap2\n      pop\n        /* \"#utility.yul\":7185:7300   */\n      pop\n        /* \"#utility.yul\":6659:7307   */\n      swap3\n      pop\n      swap3\n      swap1\n      pop\n      jump\t// out\n        /* \"#utility.yul\":7313:8147   */\n    tag_109:\n        /* \"#utility.yul\":7401:7407   */\n      0x00\n        /* \"#utility.yul\":7409:7415   */\n      dup1\n        /* \"#utility.yul\":7458:7460   */\n      0x40\n        /* \"#utility.yul\":7446:7455   */\n      dup4\n        /* \"#utility.yul\":7437:7444   */\n      dup6\n        /* \"#utility.yul\":7433:7456   */\n      sub\n        /* \"#utility.yul\":7429:7461   */\n      slt\n        /* \"#utility.yul\":7426:7545   */\n      iszero\n      tag_637\n      jumpi\n        /* \"#utility.yul\":7464:7543   */\n      tag_638\n      tag_575\n      jump\t// in\n    tag_638:\n        /* \"#utility.yul\":7426:7545   */\n    tag_637:\n        /* \"#utility.yul\":7612:7613   */\n      0x00\n        /* \"#utility.yul\":7601:7610   */\n      dup4\n        /* \"#utility.yul\":7597:7614   */\n      add\n        /* \"#utility.yul\":7584:7615   */\n      calldataload\n        /* \"#utility.yul\":7642:7660   */\n      0xffffffffffffffff\n        /* \"#utility.yul\":7634:7640   */\n      dup2\n        /* \"#utility.yul\":7631:7661   */\n      gt\n        /* \"#utility.yul\":7628:7745   */\n      iszero\n      tag_639\n      jumpi\n        /* \"#utility.yul\":7664:7743   */\n      tag_640\n      tag_587\n      jump\t// in\n    tag_640:\n        /* \"#utility.yul\":7628:7745   */\n    tag_639:\n        /* \"#utility.yul\":7769:7832   */\n      tag_641\n        /* \"#utility.yul\":7824:7831   */\n      dup6\n        /* \"#utility.yul\":7815:7821   */\n      dup3\n        /* \"#utility.yul\":7804:7813   */\n      dup7\n        /* \"#utility.yul\":7800:7822   */\n      add\n        /* \"#utility.yul\":7769:7832   */\n      tag_566\n      jump\t// in\n    tag_641:\n        /* \"#utility.yul\":7759:7832   */\n      swap3\n      pop\n        /* \"#utility.yul\":7555:7842   */\n      pop\n        /* \"#utility.yul\":7909:7911   */\n      0x20\n        /* \"#utility.yul\":7898:7907   */\n      dup4\n        /* \"#utility.yul\":7894:7912   */\n      add\n        /* \"#utility.yul\":7881:7913   */\n      calldataload\n        /* \"#utility.yul\":7940:7958   */\n      0xffffffffffffffff\n        /* \"#utility.yul\":7932:7938   */\n      dup2\n        /* \"#utility.yul\":7929:7959   */\n      gt\n        /* \"#utility.yul\":7926:8043   */\n      iszero\n      tag_642\n      jumpi\n        /* \"#utility.yul\":7962:8041   */\n      tag_643\n      tag_587\n      jump\t// in\n    tag_643:\n        /* \"#utility.yul\":7926:8043   */\n    tag_642:\n        /* \"#utility.yul\":8067:8130   */\n      tag_644\n        /* \"#utility.yul\":8122:8129   */\n      dup6\n        /* \"#utility.yul\":8113:8119   */\n      dup3\n        /* \"#utility.yul\":8102:8111   */\n      dup7\n        /* \"#utility.yul\":8098:8120   */\n      add\n        /* \"#utility.yul\":8067:8130   */\n      tag_566\n      jump\t// in\n    tag_644:\n        /* \"#utility.yul\":8057:8130   */\n      swap2\n      pop\n        /* \"#utility.yul\":7852:8140   */\n      pop\n        /* \"#utility.yul\":7313:8147   */\n      swap3\n      pop\n      swap3\n      swap1\n      pop\n      jump\t// out\n        /* \"#utility.yul\":8153:9132   */\n    tag_83:\n        /* \"#utility.yul\":8250:8256   */\n      0x00\n        /* \"#utility.yul\":8258:8264   */\n      dup1\n        /* \"#utility.yul\":8266:8272   */\n      0x00\n        /* \"#utility.yul\":8315:8317   */\n      0x60\n        /* \"#utility.yul\":8303:8312   */\n      dup5\n        /* \"#utility.yul\":8294:8301   */\n      dup7\n        /* \"#utility.yul\":8290:8313   */\n      sub\n        /* \"#utility.yul\":8286:8318   */\n      slt\n        /* \"#utility.yul\":8283:8402   */\n      iszero\n      tag_646\n      jumpi\n        /* \"#utility.yul\":8321:8400   */\n      tag_647\n      tag_575\n      jump\t// in\n    tag_647:\n        /* \"#utility.yul\":8283:8402   */\n    tag_646:\n        /* \"#utility.yul\":8469:8470   */\n      0x00\n        /* \"#utility.yul\":8458:8467   */\n      dup5\n        /* \"#utility.yul\":8454:8471   */\n      add\n        /* \"#utility.yul\":8441:8472   */\n      calldataload\n        /* \"#utility.yul\":8499:8517   */\n      0xffffffffffffffff\n        /* \"#utility.yul\":8491:8497   */\n      dup2\n        /* \"#utility.yul\":8488:8518   */\n      gt\n        /* \"#utility.yul\":8485:8602   */\n      iszero\n      tag_648\n      jumpi\n        /* \"#utility.yul\":8521:8600   */\n      tag_649\n      tag_587\n      jump\t// in\n    tag_649:\n        /* \"#utility.yul\":8485:8602   */\n    tag_648:\n        /* \"#utility.yul\":8626:8689   */\n      tag_650\n        /* \"#utility.yul\":8681:8688   */\n      dup7\n        /* \"#utility.yul\":8672:8678   */\n      dup3\n        /* \"#utility.yul\":8661:8670   */\n      dup8\n        /* \"#utility.yul\":8657:8679   */\n      add\n        /* \"#utility.yul\":8626:8689   */\n      tag_566\n      jump\t// in\n    tag_650:\n        /* \"#utility.yul\":8616:8689   */\n      swap4\n      pop\n        /* \"#utility.yul\":8412:8699   */\n      pop\n        /* \"#utility.yul\":8766:8768   */\n      0x20\n        /* \"#utility.yul\":8755:8764   */\n      dup5\n        /* \"#utility.yul\":8751:8769   */\n      add\n        /* \"#utility.yul\":8738:8770   */\n      calldataload\n        /* \"#utility.yul\":8797:8815   */\n      0xffffffffffffffff\n        /* \"#utility.yul\":8789:8795   */\n      dup2\n        /* \"#utility.yul\":8786:8816   */\n      gt\n        /* \"#utility.yul\":8783:8900   */\n      iszero\n      tag_651\n      jumpi\n        /* \"#utility.yul\":8819:8898   */\n      tag_652\n      tag_587\n      jump\t// in\n    tag_652:\n        /* \"#utility.yul\":8783:8900   */\n    tag_651:\n        /* \"#utility.yul\":8924:8987   */\n      tag_653\n        /* \"#utility.yul\":8979:8986   */\n      dup7\n        /* \"#utility.yul\":8970:8976   */\n      dup3\n        /* \"#utility.yul\":8959:8968   */\n      dup8\n        /* \"#utility.yul\":8955:8977   */\n      add\n        /* \"#utility.yul\":8924:8987   */\n      tag_566\n      jump\t// in\n    tag_653:\n        /* \"#utility.yul\":8914:8987   */\n      swap3\n      pop\n        /* \"#utility.yul\":8709:8997   */\n      pop\n        /* \"#utility.yul\":9036:9038   */\n      0x40\n        /* \"#utility.yul\":9062:9115   */\n      tag_654\n        /* \"#utility.yul\":9107:9114   */\n      dup7\n        /* \"#utility.yul\":9098:9104   */\n      dup3\n        /* \"#utility.yul\":9087:9096   */\n      dup8\n        /* \"#utility.yul\":9083:9105   */\n      add\n        /* \"#utility.yul\":9062:9115   */\n      tag_550\n      jump\t// in\n    tag_654:\n        /* \"#utility.yul\":9052:9115   */\n      swap2\n      pop\n        /* \"#utility.yul\":9007:9125   */\n      pop\n        /* \"#utility.yul\":8153:9132   */\n      swap3\n      pop\n      swap3\n      pop\n      swap3\n      jump\t// out\n        /* \"#utility.yul\":9138:10263   */\n    tag_75:\n        /* \"#utility.yul\":9244:9250   */\n      0x00\n        /* \"#utility.yul\":9252:9258   */\n      dup1\n        /* \"#utility.yul\":9260:9266   */\n      0x00\n        /* \"#utility.yul\":9268:9274   */\n      dup1\n        /* \"#utility.yul\":9317:9320   */\n      0x80\n        /* \"#utility.yul\":9305:9314   */\n      dup6\n        /* \"#utility.yul\":9296:9303   */\n      dup8\n        /* \"#utility.yul\":9292:9315   */\n      sub\n        /* \"#utility.yul\":9288:9321   */\n      slt\n        /* \"#utility.yul\":9285:9405   */\n      iszero\n      tag_656\n      jumpi\n        /* \"#utility.yul\":9324:9403   */\n      tag_657\n      tag_575\n      jump\t// in\n    tag_657:\n        /* \"#utility.yul\":9285:9405   */\n    tag_656:\n        /* \"#utility.yul\":9472:9473   */\n      0x00\n        /* \"#utility.yul\":9461:9470   */\n      dup6\n        /* \"#utility.yul\":9457:9474   */\n      add\n        /* \"#utility.yul\":9444:9475   */\n      calldataload\n        /* \"#utility.yul\":9502:9520   */\n      0xffffffffffffffff\n        /* \"#utility.yul\":9494:9500   */\n      dup2\n        /* \"#utility.yul\":9491:9521   */\n      gt\n        /* \"#utility.yul\":9488:9605   */\n      iszero\n      tag_658\n      jumpi\n        /* \"#utility.yul\":9524:9603   */\n      tag_659\n      tag_587\n      jump\t// in\n    tag_659:\n        /* \"#utility.yul\":9488:9605   */\n    tag_658:\n        /* \"#utility.yul\":9629:9692   */\n      tag_660\n        /* \"#utility.yul\":9684:9691   */\n      dup8\n        /* \"#utility.yul\":9675:9681   */\n      dup3\n        /* \"#utility.yul\":9664:9673   */\n      dup9\n        /* \"#utility.yul\":9660:9682   */\n      add\n        /* \"#utility.yul\":9629:9692   */\n      tag_566\n      jump\t// in\n    tag_660:\n        /* \"#utility.yul\":9619:9692   */\n      swap5\n      pop\n        /* \"#utility.yul\":9415:9702   */\n      pop\n        /* \"#utility.yul\":9769:9771   */\n      0x20\n        /* \"#utility.yul\":9758:9767   */\n      dup6\n        /* \"#utility.yul\":9754:9772   */\n      add\n        /* \"#utility.yul\":9741:9773   */\n      calldataload\n        /* \"#utility.yul\":9800:9818   */\n      0xffffffffffffffff\n        /* \"#utility.yul\":9792:9798   */\n      dup2\n        /* \"#utility.yul\":9789:9819   */\n      gt\n        /* \"#utility.yul\":9786:9903   */\n      iszero\n      tag_661\n      jumpi\n        /* \"#utility.yul\":9822:9901   */\n      tag_662\n      tag_587\n      jump\t// in\n    tag_662:\n        /* \"#utility.yul\":9786:9903   */\n    tag_661:\n        /* \"#utility.yul\":9927:9990   */\n      tag_663\n        /* \"#utility.yul\":9982:9989   */\n      dup8\n        /* \"#utility.yul\":9973:9979   */\n      dup3\n        /* \"#utility.yul\":9962:9971   */\n      dup9\n        /* \"#utility.yul\":9958:9980   */\n      add\n        /* \"#utility.yul\":9927:9990   */\n      tag_566\n      jump\t// in\n    tag_663:\n        /* \"#utility.yul\":9917:9990   */\n      swap4\n      pop\n        /* \"#utility.yul\":9712:10000   */\n      pop\n        /* \"#utility.yul\":10039:10041   */\n      0x40\n        /* \"#utility.yul\":10065:10118   */\n      tag_664\n        /* \"#utility.yul\":10110:10117   */\n      dup8\n        /* \"#utility.yul\":10101:10107   */\n      dup3\n        /* \"#utility.yul\":10090:10099   */\n      dup9\n        /* \"#utility.yul\":10086:10108   */\n      add\n        /* \"#utility.yul\":10065:10118   */\n      tag_550\n      jump\t// in\n    tag_664:\n        /* \"#utility.yul\":10055:10118   */\n      swap3\n      pop\n        /* \"#utility.yul\":10010:10128   */\n      pop\n        /* \"#utility.yul\":10167:10169   */\n      0x60\n        /* \"#utility.yul\":10193:10246   */\n      tag_665\n        /* \"#utility.yul\":10238:10245   */\n      dup8\n        /* \"#utility.yul\":10229:10235   */\n      dup3\n        /* \"#utility.yul\":10218:10227   */\n      dup9\n        /* \"#utility.yul\":10214:10236   */\n      add\n        /* \"#utility.yul\":10193:10246   */\n      tag_550\n      jump\t// in\n    tag_665:\n        /* \"#utility.yul\":10183:10246   */\n      swap2\n      pop\n        /* \"#utility.yul\":10138:10256   */\n      pop\n        /* \"#utility.yul\":9138:10263   */\n      swap3\n      swap6\n      swap2\n      swap5\n      pop\n      swap3\n      pop\n      jump\t// out\n        /* \"#utility.yul\":10269:10448   */\n    tag_666:\n        /* \"#utility.yul\":10338:10348   */\n      0x00\n        /* \"#utility.yul\":10359:10405   */\n      tag_668\n        /* \"#utility.yul\":10401:10404   */\n      dup4\n        /* \"#utility.yul\":10393:10399   */\n      dup4\n        /* \"#utility.yul\":10359:10405   */\n      tag_669\n      jump\t// in\n    tag_668:\n        /* \"#utility.yul\":10437:10441   */\n      0x20\n        /* \"#utility.yul\":10432:10435   */\n      dup4\n        /* \"#utility.yul\":10428:10442   */\n      add\n        /* \"#utility.yul\":10414:10442   */\n      swap1\n      pop\n        /* \"#utility.yul\":10269:10448   */\n      swap3\n      swap2\n      pop\n      pop\n      jump\t// out\n        /* \"#utility.yul\":10454:10650   */\n    tag_670:\n        /* \"#utility.yul\":10543:10553   */\n      0x00\n        /* \"#utility.yul\":10578:10644   */\n      tag_672\n        /* \"#utility.yul\":10640:10643   */\n      dup4\n        /* \"#utility.yul\":10632:10638   */\n      dup4\n        /* \"#utility.yul\":10578:10644   */\n      tag_673\n      jump\t// in\n    tag_672:\n        /* \"#utility.yul\":10564:10644   */\n      swap1\n      pop\n        /* \"#utility.yul\":10454:10650   */\n      swap3\n      swap2\n      pop\n      pop\n      jump\t// out\n        /* \"#utility.yul\":10656:10764   */\n    tag_669:\n        /* \"#utility.yul\":10733:10757   */\n      tag_675\n        /* \"#utility.yul\":10751:10756   */\n      dup2\n        /* \"#utility.yul\":10733:10757   */\n      tag_676\n      jump\t// in\n    tag_675:\n        /* \"#utility.yul\":10728:10731   */\n      dup3\n        /* \"#utility.yul\":10721:10758   */\n      mstore\n        /* \"#utility.yul\":10656:10764   */\n      pop\n      pop\n      jump\t// out\n        /* \"#utility.yul\":10770:10888   */\n    tag_677:\n        /* \"#utility.yul\":10857:10881   */\n      tag_679\n        /* \"#utility.yul\":10875:10880   */\n      dup2\n        /* \"#utility.yul\":10857:10881   */\n      tag_676\n      jump\t// in\n    tag_679:\n        /* \"#utility.yul\":10852:10855   */\n      dup3\n        /* \"#utility.yul\":10845:10882   */\n      mstore\n        /* \"#utility.yul\":10770:10888   */\n      pop\n      pop\n      jump\t// out\n        /* \"#utility.yul\":10924:11656   */\n    tag_680:\n        /* \"#utility.yul\":11043:11046   */\n      0x00\n        /* \"#utility.yul\":11072:11126   */\n      tag_682\n        /* \"#utility.yul\":11120:11125   */\n      dup3\n        /* \"#utility.yul\":11072:11126   */\n      tag_683\n      jump\t// in\n    tag_682:\n        /* \"#utility.yul\":11142:11228   */\n      tag_684\n        /* \"#utility.yul\":11221:11227   */\n      dup2\n        /* \"#utility.yul\":11216:11219   */\n      dup6\n        /* \"#utility.yul\":11142:11228   */\n      tag_685\n      jump\t// in\n    tag_684:\n        /* \"#utility.yul\":11135:11228   */\n      swap4\n      pop\n        /* \"#utility.yul\":11252:11308   */\n      tag_686\n        /* \"#utility.yul\":11302:11307   */\n      dup4\n        /* \"#utility.yul\":11252:11308   */\n      tag_687\n      jump\t// in\n    tag_686:\n        /* \"#utility.yul\":11331:11338   */\n      dup1\n        /* \"#utility.yul\":11362:11363   */\n      0x00\n        /* \"#utility.yul\":11347:11631   */\n    tag_688:\n        /* \"#utility.yul\":11372:11378   */\n      dup4\n        /* \"#utility.yul\":11369:11370   */\n      dup2\n        /* \"#utility.yul\":11366:11379   */\n      lt\n        /* \"#utility.yul\":11347:11631   */\n      iszero\n      tag_690\n      jumpi\n        /* \"#utility.yul\":11448:11454   */\n      dup2\n        /* \"#utility.yul\":11442:11455   */\n      mload\n        /* \"#utility.yul\":11475:11538   */\n      tag_691\n        /* \"#utility.yul\":11534:11537   */\n      dup9\n        /* \"#utility.yul\":11519:11532   */\n      dup3\n        /* \"#utility.yul\":11475:11538   */\n      tag_666\n      jump\t// in\n    tag_691:\n        /* \"#utility.yul\":11468:11538   */\n      swap8\n      pop\n        /* \"#utility.yul\":11561:11621   */\n      tag_692\n        /* \"#utility.yul\":11614:11620   */\n      dup4\n        /* \"#utility.yul\":11561:11621   */\n      tag_693\n      jump\t// in\n    tag_692:\n        /* \"#utility.yul\":11551:11621   */\n      swap3\n      pop\n        /* \"#utility.yul\":11407:11631   */\n      pop\n        /* \"#utility.yul\":11394:11395   */\n      0x01\n        /* \"#utility.yul\":11391:11392   */\n      dup2\n        /* \"#utility.yul\":11387:11396   */\n      add\n        /* \"#utility.yul\":11382:11396   */\n      swap1\n      pop\n        /* \"#utility.yul\":11347:11631   */\n      jump(tag_688)\n    tag_690:\n        /* \"#utility.yul\":11351:11365   */\n      pop\n        /* \"#utility.yul\":11647:11650   */\n      dup6\n        /* \"#utility.yul\":11640:11650   */\n      swap4\n      pop\n        /* \"#utility.yul\":11048:11656   */\n      pop\n      pop\n      pop\n        /* \"#utility.yul\":10924:11656   */\n      swap3\n      swap2\n      pop\n      pop\n      jump\t// out\n        /* \"#utility.yul\":11690:12681   */\n    tag_694:\n        /* \"#utility.yul\":11829:11832   */\n      0x00\n        /* \"#utility.yul\":11858:11922   */\n      tag_696\n        /* \"#utility.yul\":11916:11921   */\n      dup3\n        /* \"#utility.yul\":11858:11922   */\n      tag_697\n      jump\t// in\n    tag_696:\n        /* \"#utility.yul\":11938:12034   */\n      tag_698\n        /* \"#utility.yul\":12027:12033   */\n      dup2\n        /* \"#utility.yul\":12022:12025   */\n      dup6\n        /* \"#utility.yul\":11938:12034   */\n      tag_699\n      jump\t// in\n    tag_698:\n        /* \"#utility.yul\":11931:12034   */\n      swap4\n      pop\n        /* \"#utility.yul\":12060:12063   */\n      dup4\n        /* \"#utility.yul\":12105:12109   */\n      0x20\n        /* \"#utility.yul\":12097:12103   */\n      dup3\n        /* \"#utility.yul\":12093:12110   */\n      mul\n        /* \"#utility.yul\":12088:12091   */\n      dup6\n        /* \"#utility.yul\":12084:12111   */\n      add\n        /* \"#utility.yul\":12135:12201   */\n      tag_700\n        /* \"#utility.yul\":12195:12200   */\n      dup6\n        /* \"#utility.yul\":12135:12201   */\n      tag_701\n      jump\t// in\n    tag_700:\n        /* \"#utility.yul\":12224:12231   */\n      dup1\n        /* \"#utility.yul\":12255:12256   */\n      0x00\n        /* \"#utility.yul\":12240:12636   */\n    tag_702:\n        /* \"#utility.yul\":12265:12271   */\n      dup6\n        /* \"#utility.yul\":12262:12263   */\n      dup2\n        /* \"#utility.yul\":12259:12272   */\n      lt\n        /* \"#utility.yul\":12240:12636   */\n      iszero\n      tag_704\n      jumpi\n        /* \"#utility.yul\":12336:12345   */\n      dup5\n        /* \"#utility.yul\":12330:12334   */\n      dup5\n        /* \"#utility.yul\":12326:12346   */\n      sub\n        /* \"#utility.yul\":12321:12324   */\n      dup10\n        /* \"#utility.yul\":12314:12347   */\n      mstore\n        /* \"#utility.yul\":12387:12393   */\n      dup2\n        /* \"#utility.yul\":12381:12394   */\n      mload\n        /* \"#utility.yul\":12415:12499   */\n      tag_705\n        /* \"#utility.yul\":12494:12498   */\n      dup6\n        /* \"#utility.yul\":12479:12492   */\n      dup3\n        /* \"#utility.yul\":12415:12499   */\n      tag_670\n      jump\t// in\n    tag_705:\n        /* \"#utility.yul\":12407:12499   */\n      swap5\n      pop\n        /* \"#utility.yul\":12522:12592   */\n      tag_706\n        /* \"#utility.yul\":12585:12591   */\n      dup4\n        /* \"#utility.yul\":12522:12592   */\n      tag_707\n      jump\t// in\n    tag_706:\n        /* \"#utility.yul\":12512:12592   */\n      swap3\n      pop\n        /* \"#utility.yul\":12621:12625   */\n      0x20\n        /* \"#utility.yul\":12616:12619   */\n      dup11\n        /* \"#utility.yul\":12612:12626   */\n      add\n        /* \"#utility.yul\":12605:12626   */\n      swap10\n      pop\n        /* \"#utility.yul\":12300:12636   */\n      pop\n        /* \"#utility.yul\":12287:12288   */\n      0x01\n        /* \"#utility.yul\":12284:12285   */\n      dup2\n        /* \"#utility.yul\":12280:12289   */\n      add\n        /* \"#utility.yul\":12275:12289   */\n      swap1\n      pop\n        /* \"#utility.yul\":12240:12636   */\n      jump(tag_702)\n    tag_704:\n        /* \"#utility.yul\":12244:12258   */\n      pop\n        /* \"#utility.yul\":12652:12656   */\n      dup3\n        /* \"#utility.yul\":12645:12656   */\n      swap8\n      pop\n        /* \"#utility.yul\":12672:12675   */\n      dup8\n        /* \"#utility.yul\":12665:12675   */\n      swap6\n      pop\n        /* \"#utility.yul\":11834:12681   */\n      pop\n      pop\n      pop\n      pop\n      pop\n        /* \"#utility.yul\":11690:12681   */\n      swap3\n      swap2\n      pop\n      pop\n      jump\t// out\n        /* \"#utility.yul\":12687:12802   */\n    tag_708:\n        /* \"#utility.yul\":12772:12795   */\n      tag_710\n        /* \"#utility.yul\":12789:12794   */\n      dup2\n        /* \"#utility.yul\":12772:12795   */\n      tag_711\n      jump\t// in\n    tag_710:\n        /* \"#utility.yul\":12767:12770   */\n      dup3\n        /* \"#utility.yul\":12760:12796   */\n      mstore\n        /* \"#utility.yul\":12687:12802   */\n      pop\n      pop\n      jump\t// out\n        /* \"#utility.yul\":12808:13152   */\n    tag_673:\n        /* \"#utility.yul\":12886:12889   */\n      0x00\n        /* \"#utility.yul\":12914:12953   */\n      tag_713\n        /* \"#utility.yul\":12947:12952   */\n      dup3\n        /* \"#utility.yul\":12914:12953   */\n      tag_714\n      jump\t// in\n    tag_713:\n        /* \"#utility.yul\":12969:13030   */\n      tag_715\n        /* \"#utility.yul\":13023:13029   */\n      dup2\n        /* \"#utility.yul\":13018:13021   */\n      dup6\n        /* \"#utility.yul\":12969:13030   */\n      tag_716\n      jump\t// in\n    tag_715:\n        /* \"#utility.yul\":12962:13030   */\n      swap4\n      pop\n        /* \"#utility.yul\":13039:13091   */\n      tag_717\n        /* \"#utility.yul\":13084:13090   */\n      dup2\n        /* \"#utility.yul\":13079:13082   */\n      dup6\n        /* \"#utility.yul\":13072:13076   */\n      0x20\n        /* \"#utility.yul\":13065:13070   */\n      dup7\n        /* \"#utility.yul\":13061:13077   */\n      add\n        /* \"#utility.yul\":13039:13091   */\n      tag_718\n      jump\t// in\n    tag_717:\n        /* \"#utility.yul\":13116:13145   */\n      tag_719\n        /* \"#utility.yul\":13138:13144   */\n      dup2\n        /* \"#utility.yul\":13116:13145   */\n      tag_720\n      jump\t// in\n    tag_719:\n        /* \"#utility.yul\":13111:13114   */\n      dup5\n        /* \"#utility.yul\":13107:13146   */\n      add\n        /* \"#utility.yul\":13100:13146   */\n      swap2\n      pop\n        /* \"#utility.yul\":12890:13152   */\n      pop\n        /* \"#utility.yul\":12808:13152   */\n      swap3\n      swap2\n      pop\n      pop\n      jump\t// out\n        /* \"#utility.yul\":13158:13522   */\n    tag_721:\n        /* \"#utility.yul\":13246:13249   */\n      0x00\n        /* \"#utility.yul\":13274:13313   */\n      tag_723\n        /* \"#utility.yul\":13307:13312   */\n      dup3\n        /* \"#utility.yul\":13274:13313   */\n      tag_714\n      jump\t// in\n    tag_723:\n        /* \"#utility.yul\":13329:13400   */\n      tag_724\n        /* \"#utility.yul\":13393:13399   */\n      dup2\n        /* \"#utility.yul\":13388:13391   */\n      dup6\n        /* \"#utility.yul\":13329:13400   */\n      tag_725\n      jump\t// in\n    tag_724:\n        /* \"#utility.yul\":13322:13400   */\n      swap4\n      pop\n        /* \"#utility.yul\":13409:13461   */\n      tag_726\n        /* \"#utility.yul\":13454:13460   */\n      dup2\n        /* \"#utility.yul\":13449:13452   */\n      dup6\n        /* \"#utility.yul\":13442:13446   */\n      0x20\n        /* \"#utility.yul\":13435:13440   */\n      dup7\n        /* \"#utility.yul\":13431:13447   */\n      add\n        /* \"#utility.yul\":13409:13461   */\n      tag_718\n      jump\t// in\n    tag_726:\n        /* \"#utility.yul\":13486:13515   */\n      tag_727\n        /* \"#utility.yul\":13508:13514   */\n      dup2\n        /* \"#utility.yul\":13486:13515   */\n      tag_720\n      jump\t// in\n    tag_727:\n        /* \"#utility.yul\":13481:13484   */\n      dup5\n        /* \"#utility.yul\":13477:13516   */\n      add\n        /* \"#utility.yul\":13470:13516   */\n      swap2\n      pop\n        /* \"#utility.yul\":13250:13522   */\n      pop\n        /* \"#utility.yul\":13158:13522   */\n      swap3\n      swap2\n      pop\n      pop\n      jump\t// out\n        /* \"#utility.yul\":13528:13905   */\n    tag_728:\n        /* \"#utility.yul\":13634:13637   */\n      0x00\n        /* \"#utility.yul\":13662:13701   */\n      tag_730\n        /* \"#utility.yul\":13695:13700   */\n      dup3\n        /* \"#utility.yul\":13662:13701   */\n      tag_714\n      jump\t// in\n    tag_730:\n        /* \"#utility.yul\":13717:13806   */\n      tag_731\n        /* \"#utility.yul\":13799:13805   */\n      dup2\n        /* \"#utility.yul\":13794:13797   */\n      dup6\n        /* \"#utility.yul\":13717:13806   */\n      tag_732\n      jump\t// in\n    tag_731:\n        /* \"#utility.yul\":13710:13806   */\n      swap4\n      pop\n        /* \"#utility.yul\":13815:13867   */\n      tag_733\n        /* \"#utility.yul\":13860:13866   */\n      dup2\n        /* \"#utility.yul\":13855:13858   */\n      dup6\n        /* \"#utility.yul\":13848:13852   */\n      0x20\n        /* \"#utility.yul\":13841:13846   */\n      dup7\n        /* \"#utility.yul\":13837:13853   */\n      add\n        /* \"#utility.yul\":13815:13867   */\n      tag_718\n      jump\t// in\n    tag_733:\n        /* \"#utility.yul\":13892:13898   */\n      dup1\n        /* \"#utility.yul\":13887:13890   */\n      dup5\n        /* \"#utility.yul\":13883:13899   */\n      add\n        /* \"#utility.yul\":13876:13899   */\n      swap2\n      pop\n        /* \"#utility.yul\":13638:13905   */\n      pop\n        /* \"#utility.yul\":13528:13905   */\n      swap3\n      swap2\n      pop\n      pop\n      jump\t// out\n        /* \"#utility.yul\":13911:14277   */\n    tag_734:\n        /* \"#utility.yul\":14053:14056   */\n      0x00\n        /* \"#utility.yul\":14074:14141   */\n      tag_736\n        /* \"#utility.yul\":14138:14140   */\n      0x1b\n        /* \"#utility.yul\":14133:14136   */\n      dup4\n        /* \"#utility.yul\":14074:14141   */\n      tag_725\n      jump\t// in\n    tag_736:\n        /* \"#utility.yul\":14067:14141   */\n      swap2\n      pop\n        /* \"#utility.yul\":14150:14243   */\n      tag_737\n        /* \"#utility.yul\":14239:14242   */\n      dup3\n        /* \"#utility.yul\":14150:14243   */\n      tag_738\n      jump\t// in\n    tag_737:\n        /* \"#utility.yul\":14268:14270   */\n      0x20\n        /* \"#utility.yul\":14263:14266   */\n      dup3\n        /* \"#utility.yul\":14259:14271   */\n      add\n        /* \"#utility.yul\":14252:14271   */\n      swap1\n      pop\n        /* \"#utility.yul\":13911:14277   */\n      swap2\n      swap1\n      pop\n      jump\t// out\n        /* \"#utility.yul\":14283:14649   */\n    tag_739:\n        /* \"#utility.yul\":14425:14428   */\n      0x00\n        /* \"#utility.yul\":14446:14513   */\n      tag_741\n        /* \"#utility.yul\":14510:14512   */\n      0x22\n        /* \"#utility.yul\":14505:14508   */\n      dup4\n        /* \"#utility.yul\":14446:14513   */\n      tag_725\n      jump\t// in\n    tag_741:\n        /* \"#utility.yul\":14439:14513   */\n      swap2\n      pop\n        /* \"#utility.yul\":14522:14615   */\n      tag_742\n        /* \"#utility.yul\":14611:14614   */\n      dup3\n        /* \"#utility.yul\":14522:14615   */\n      tag_743\n      jump\t// in\n    tag_742:\n        /* \"#utility.yul\":14640:14642   */\n      0x40\n        /* \"#utility.yul\":14635:14638   */\n      dup3\n        /* \"#utility.yul\":14631:14643   */\n      add\n        /* \"#utility.yul\":14624:14643   */\n      swap1\n      pop\n        /* \"#utility.yul\":14283:14649   */\n      swap2\n      swap1\n      pop\n      jump\t// out\n        /* \"#utility.yul\":14655:15021   */\n    tag_744:\n        /* \"#utility.yul\":14797:14800   */\n      0x00\n        /* \"#utility.yul\":14818:14885   */\n      tag_746\n        /* \"#utility.yul\":14882:14884   */\n      0x0b\n        /* \"#utility.yul\":14877:14880   */\n      dup4\n        /* \"#utility.yul\":14818:14885   */\n      tag_725\n      jump\t// in\n    tag_746:\n        /* \"#utility.yul\":14811:14885   */\n      swap2\n      pop\n        /* \"#utility.yul\":14894:14987   */\n      tag_747\n        /* \"#utility.yul\":14983:14986   */\n      dup3\n        /* \"#utility.yul\":14894:14987   */\n      tag_748\n      jump\t// in\n    tag_747:\n        /* \"#utility.yul\":15012:15014   */\n      0x20\n        /* \"#utility.yul\":15007:15010   */\n      dup3\n        /* \"#utility.yul\":15003:15015   */\n      add\n        /* \"#utility.yul\":14996:15015   */\n      swap1\n      pop\n        /* \"#utility.yul\":14655:15021   */\n      swap2\n      swap1\n      pop\n      jump\t// out\n        /* \"#utility.yul\":15027:15392   */\n    tag_749:\n        /* \"#utility.yul\":15169:15172   */\n      0x00\n        /* \"#utility.yul\":15190:15256   */\n      tag_751\n        /* \"#utility.yul\":15254:15255   */\n      0x09\n        /* \"#utility.yul\":15249:15252   */\n      dup4\n        /* \"#utility.yul\":15190:15256   */\n      tag_725\n      jump\t// in\n    tag_751:\n        /* \"#utility.yul\":15183:15256   */\n      swap2\n      pop\n        /* \"#utility.yul\":15265:15358   */\n      tag_752\n        /* \"#utility.yul\":15354:15357   */\n      dup3\n        /* \"#utility.yul\":15265:15358   */\n      tag_753\n      jump\t// in\n    tag_752:\n        /* \"#utility.yul\":15383:15385   */\n      0x20\n        /* \"#utility.yul\":15378:15381   */\n      dup3\n        /* \"#utility.yul\":15374:15386   */\n      add\n        /* \"#utility.yul\":15367:15386   */\n      swap1\n      pop\n        /* \"#utility.yul\":15027:15392   */\n      swap2\n      swap1\n      pop\n      jump\t// out\n        /* \"#utility.yul\":15398:15764   */\n    tag_754:\n        /* \"#utility.yul\":15540:15543   */\n      0x00\n        /* \"#utility.yul\":15561:15628   */\n      tag_756\n        /* \"#utility.yul\":15625:15627   */\n      0x0c\n        /* \"#utility.yul\":15620:15623   */\n      dup4\n        /* \"#utility.yul\":15561:15628   */\n      tag_725\n      jump\t// in\n    tag_756:\n        /* \"#utility.yul\":15554:15628   */\n      swap2\n      pop\n        /* \"#utility.yul\":15637:15730   */\n      tag_757\n        /* \"#utility.yul\":15726:15729   */\n      dup3\n        /* \"#utility.yul\":15637:15730   */\n      tag_758\n      jump\t// in\n    tag_757:\n        /* \"#utility.yul\":15755:15757   */\n      0x20\n        /* \"#utility.yul\":15750:15753   */\n      dup3\n        /* \"#utility.yul\":15746:15758   */\n      add\n        /* \"#utility.yul\":15739:15758   */\n      swap1\n      pop\n        /* \"#utility.yul\":15398:15764   */\n      swap2\n      swap1\n      pop\n      jump\t// out\n        /* \"#utility.yul\":15770:16136   */\n    tag_759:\n        /* \"#utility.yul\":15912:15915   */\n      0x00\n        /* \"#utility.yul\":15933:16000   */\n      tag_761\n        /* \"#utility.yul\":15997:15999   */\n      0x0d\n        /* \"#utility.yul\":15992:15995   */\n      dup4\n        /* \"#utility.yul\":15933:16000   */\n      tag_725\n      jump\t// in\n    tag_761:\n        /* \"#utility.yul\":15926:16000   */\n      swap2\n      pop\n        /* \"#utility.yul\":16009:16102   */\n      tag_762\n        /* \"#utility.yul\":16098:16101   */\n      dup3\n        /* \"#utility.yul\":16009:16102   */\n      tag_763\n      jump\t// in\n    tag_762:\n        /* \"#utility.yul\":16127:16129   */\n      0x20\n        /* \"#utility.yul\":16122:16125   */\n      dup3\n        /* \"#utility.yul\":16118:16130   */\n      add\n        /* \"#utility.yul\":16111:16130   */\n      swap1\n      pop\n        /* \"#utility.yul\":15770:16136   */\n      swap2\n      swap1\n      pop\n      jump\t// out\n        /* \"#utility.yul\":16142:16508   */\n    tag_764:\n        /* \"#utility.yul\":16284:16287   */\n      0x00\n        /* \"#utility.yul\":16305:16372   */\n      tag_766\n        /* \"#utility.yul\":16369:16371   */\n      0x16\n        /* \"#utility.yul\":16364:16367   */\n      dup4\n        /* \"#utility.yul\":16305:16372   */\n      tag_725\n      jump\t// in\n    tag_766:\n        /* \"#utility.yul\":16298:16372   */\n      swap2\n      pop\n        /* \"#utility.yul\":16381:16474   */\n      tag_767\n        /* \"#utility.yul\":16470:16473   */\n      dup3\n        /* \"#utility.yul\":16381:16474   */\n      tag_768\n      jump\t// in\n    tag_767:\n        /* \"#utility.yul\":16499:16501   */\n      0x20\n        /* \"#utility.yul\":16494:16497   */\n      dup3\n        /* \"#utility.yul\":16490:16502   */\n      add\n        /* \"#utility.yul\":16483:16502   */\n      swap1\n      pop\n        /* \"#utility.yul\":16142:16508   */\n      swap2\n      swap1\n      pop\n      jump\t// out\n        /* \"#utility.yul\":16514:16880   */\n    tag_769:\n        /* \"#utility.yul\":16656:16659   */\n      0x00\n        /* \"#utility.yul\":16677:16744   */\n      tag_771\n        /* \"#utility.yul\":16741:16743   */\n      0x0b\n        /* \"#utility.yul\":16736:16739   */\n      dup4\n        /* \"#utility.yul\":16677:16744   */\n      tag_725\n      jump\t// in\n    tag_771:\n        /* \"#utility.yul\":16670:16744   */\n      swap2\n      pop\n        /* \"#utility.yul\":16753:16846   */\n      tag_772\n        /* \"#utility.yul\":16842:16845   */\n      dup3\n        /* \"#utility.yul\":16753:16846   */\n      tag_773\n      jump\t// in\n    tag_772:\n        /* \"#utility.yul\":16871:16873   */\n      0x20\n        /* \"#utility.yul\":16866:16869   */\n      dup3\n        /* \"#utility.yul\":16862:16874   */\n      add\n        /* \"#utility.yul\":16855:16874   */\n      swap1\n      pop\n        /* \"#utility.yul\":16514:16880   */\n      swap2\n      swap1\n      pop\n      jump\t// out\n        /* \"#utility.yul\":16886:17004   */\n    tag_774:\n        /* \"#utility.yul\":16973:16997   */\n      tag_776\n        /* \"#utility.yul\":16991:16996   */\n      dup2\n        /* \"#utility.yul\":16973:16997   */\n      tag_777\n      jump\t// in\n    tag_776:\n        /* \"#utility.yul\":16968:16971   */\n      dup3\n        /* \"#utility.yul\":16961:16998   */\n      mstore\n        /* \"#utility.yul\":16886:17004   */\n      pop\n      pop\n      jump\t// out\n        /* \"#utility.yul\":17010:17285   */\n    tag_183:\n        /* \"#utility.yul\":17142:17145   */\n      0x00\n        /* \"#utility.yul\":17164:17259   */\n      tag_779\n        /* \"#utility.yul\":17255:17258   */\n      dup3\n        /* \"#utility.yul\":17246:17252   */\n      dup5\n        /* \"#utility.yul\":17164:17259   */\n      tag_728\n      jump\t// in\n    tag_779:\n        /* \"#utility.yul\":17157:17259   */\n      swap2\n      pop\n        /* \"#utility.yul\":17276:17279   */\n      dup2\n        /* \"#utility.yul\":17269:17279   */\n      swap1\n      pop\n        /* \"#utility.yul\":17010:17285   */\n      swap3\n      swap2\n      pop\n      pop\n      jump\t// out\n        /* \"#utility.yul\":17291:18153   */\n    tag_50:\n        /* \"#utility.yul\":17542:17546   */\n      0x00\n        /* \"#utility.yul\":17580:17583   */\n      0xc0\n        /* \"#utility.yul\":17569:17578   */\n      dup3\n        /* \"#utility.yul\":17565:17584   */\n      add\n        /* \"#utility.yul\":17557:17584   */\n      swap1\n      pop\n        /* \"#utility.yul\":17594:17665   */\n      tag_781\n        /* \"#utility.yul\":17662:17663   */\n      0x00\n        /* \"#utility.yul\":17651:17660   */\n      dup4\n        /* \"#utility.yul\":17647:17664   */\n      add\n        /* \"#utility.yul\":17638:17644   */\n      dup10\n        /* \"#utility.yul\":17594:17665   */\n      tag_677\n      jump\t// in\n    tag_781:\n        /* \"#utility.yul\":17675:17747   */\n      tag_782\n        /* \"#utility.yul\":17743:17745   */\n      0x20\n        /* \"#utility.yul\":17732:17741   */\n      dup4\n        /* \"#utility.yul\":17728:17746   */\n      add\n        /* \"#utility.yul\":17719:17725   */\n      dup9\n        /* \"#utility.yul\":17675:17747   */\n      tag_677\n      jump\t// in\n    tag_782:\n        /* \"#utility.yul\":17794:17803   */\n      dup2\n        /* \"#utility.yul\":17788:17792   */\n      dup2\n        /* \"#utility.yul\":17784:17804   */\n      sub\n        /* \"#utility.yul\":17779:17781   */\n      0x40\n        /* \"#utility.yul\":17768:17777   */\n      dup4\n        /* \"#utility.yul\":17764:17782   */\n      add\n        /* \"#utility.yul\":17757:17805   */\n      mstore\n        /* \"#utility.yul\":17822:17900   */\n      tag_783\n        /* \"#utility.yul\":17895:17899   */\n      dup2\n        /* \"#utility.yul\":17886:17892   */\n      dup8\n        /* \"#utility.yul\":17822:17900   */\n      tag_721\n      jump\t// in\n    tag_783:\n        /* \"#utility.yul\":17814:17900   */\n      swap1\n      pop\n        /* \"#utility.yul\":17910:17982   */\n      tag_784\n        /* \"#utility.yul\":17978:17980   */\n      0x60\n        /* \"#utility.yul\":17967:17976   */\n      dup4\n        /* \"#utility.yul\":17963:17981   */\n      add\n        /* \"#utility.yul\":17954:17960   */\n      dup7\n        /* \"#utility.yul\":17910:17982   */\n      tag_774\n      jump\t// in\n    tag_784:\n        /* \"#utility.yul\":17992:18065   */\n      tag_785\n        /* \"#utility.yul\":18060:18063   */\n      0x80\n        /* \"#utility.yul\":18049:18058   */\n      dup4\n        /* \"#utility.yul\":18045:18064   */\n      add\n        /* \"#utility.yul\":18036:18042   */\n      dup6\n        /* \"#utility.yul\":17992:18065   */\n      tag_774\n      jump\t// in\n    tag_785:\n        /* \"#utility.yul\":18075:18146   */\n      tag_786\n        /* \"#utility.yul\":18141:18144   */\n      0xa0\n        /* \"#utility.yul\":18130:18139   */\n      dup4\n        /* \"#utility.yul\":18126:18145   */\n      add\n        /* \"#utility.yul\":18117:18123   */\n      dup5\n        /* \"#utility.yul\":18075:18146   */\n      tag_708\n      jump\t// in\n    tag_786:\n        /* \"#utility.yul\":17291:18153   */\n      swap8\n      swap7\n      pop\n      pop\n      pop\n      pop\n      pop\n      pop\n      pop\n      jump\t// out\n        /* \"#utility.yul\":18159:18582   */\n    tag_55:\n        /* \"#utility.yul\":18300:18304   */\n      0x00\n        /* \"#utility.yul\":18338:18340   */\n      0x40\n        /* \"#utility.yul\":18327:18336   */\n      dup3\n        /* \"#utility.yul\":18323:18341   */\n      add\n        /* \"#utility.yul\":18315:18341   */\n      swap1\n      pop\n        /* \"#utility.yul\":18351:18422   */\n      tag_788\n        /* \"#utility.yul\":18419:18420   */\n      0x00\n        /* \"#utility.yul\":18408:18417   */\n      dup4\n        /* \"#utility.yul\":18404:18421   */\n      add\n        /* \"#utility.yul\":18395:18401   */\n      dup6\n        /* \"#utility.yul\":18351:18422   */\n      tag_677\n      jump\t// in\n    tag_788:\n        /* \"#utility.yul\":18469:18478   */\n      dup2\n        /* \"#utility.yul\":18463:18467   */\n      dup2\n        /* \"#utility.yul\":18459:18479   */\n      sub\n        /* \"#utility.yul\":18454:18456   */\n      0x20\n        /* \"#utility.yul\":18443:18452   */\n      dup4\n        /* \"#utility.yul\":18439:18457   */\n      add\n        /* \"#utility.yul\":18432:18480   */\n      mstore\n        /* \"#utility.yul\":18497:18575   */\n      tag_789\n        /* \"#utility.yul\":18570:18574   */\n      dup2\n        /* \"#utility.yul\":18561:18567   */\n      dup5\n        /* \"#utility.yul\":18497:18575   */\n      tag_721\n      jump\t// in\n    tag_789:\n        /* \"#utility.yul\":18489:18575   */\n      swap1\n      pop\n        /* \"#utility.yul\":18159:18582   */\n      swap4\n      swap3\n      pop\n      pop\n      pop\n      jump\t// out\n        /* \"#utility.yul\":18588:19212   */\n    tag_106:\n        /* \"#utility.yul\":18777:18781   */\n      0x00\n        /* \"#utility.yul\":18815:18817   */\n      0x60\n        /* \"#utility.yul\":18804:18813   */\n      dup3\n        /* \"#utility.yul\":18800:18818   */\n      add\n        /* \"#utility.yul\":18792:18818   */\n      swap1\n      pop\n        /* \"#utility.yul\":18828:18899   */\n      tag_791\n        /* \"#utility.yul\":18896:18897   */\n      0x00\n        /* \"#utility.yul\":18885:18894   */\n      dup4\n        /* \"#utility.yul\":18881:18898   */\n      add\n        /* \"#utility.yul\":18872:18878   */\n      dup7\n        /* \"#utility.yul\":18828:18899   */\n      tag_677\n      jump\t// in\n    tag_791:\n        /* \"#utility.yul\":18946:18955   */\n      dup2\n        /* \"#utility.yul\":18940:18944   */\n      dup2\n        /* \"#utility.yul\":18936:18956   */\n      sub\n        /* \"#utility.yul\":18931:18933   */\n      0x20\n        /* \"#utility.yul\":18920:18929   */\n      dup4\n        /* \"#utility.yul\":18916:18934   */\n      add\n        /* \"#utility.yul\":18909:18957   */\n      mstore\n        /* \"#utility.yul\":18974:19052   */\n      tag_792\n        /* \"#utility.yul\":19047:19051   */\n      dup2\n        /* \"#utility.yul\":19038:19044   */\n      dup6\n        /* \"#utility.yul\":18974:19052   */\n      tag_721\n      jump\t// in\n    tag_792:\n        /* \"#utility.yul\":18966:19052   */\n      swap1\n      pop\n        /* \"#utility.yul\":19099:19108   */\n      dup2\n        /* \"#utility.yul\":19093:19097   */\n      dup2\n        /* \"#utility.yul\":19089:19109   */\n      sub\n        /* \"#utility.yul\":19084:19086   */\n      0x40\n        /* \"#utility.yul\":19073:19082   */\n      dup4\n        /* \"#utility.yul\":19069:19087   */\n      add\n        /* \"#utility.yul\":19062:19110   */\n      mstore\n        /* \"#utility.yul\":19127:19205   */\n      tag_793\n        /* \"#utility.yul\":19200:19204   */\n      dup2\n        /* \"#utility.yul\":19191:19197   */\n      dup5\n        /* \"#utility.yul\":19127:19205   */\n      tag_721\n      jump\t// in\n    tag_793:\n        /* \"#utility.yul\":19119:19205   */\n      swap1\n      pop\n        /* \"#utility.yul\":18588:19212   */\n      swap5\n      swap4\n      pop\n      pop\n      pop\n      pop\n      jump\t// out\n        /* \"#utility.yul\":19218:20395   */\n    tag_101:\n        /* \"#utility.yul\":19605:19609   */\n      0x00\n        /* \"#utility.yul\":19643:19646   */\n      0x80\n        /* \"#utility.yul\":19632:19641   */\n      dup3\n        /* \"#utility.yul\":19628:19647   */\n      add\n        /* \"#utility.yul\":19620:19647   */\n      swap1\n      pop\n        /* \"#utility.yul\":19693:19702   */\n      dup2\n        /* \"#utility.yul\":19687:19691   */\n      dup2\n        /* \"#utility.yul\":19683:19703   */\n      sub\n        /* \"#utility.yul\":19679:19680   */\n      0x00\n        /* \"#utility.yul\":19668:19677   */\n      dup4\n        /* \"#utility.yul\":19664:19681   */\n      add\n        /* \"#utility.yul\":19657:19704   */\n      mstore\n        /* \"#utility.yul\":19721:19799   */\n      tag_795\n        /* \"#utility.yul\":19794:19798   */\n      dup2\n        /* \"#utility.yul\":19785:19791   */\n      dup8\n        /* \"#utility.yul\":19721:19799   */\n      tag_721\n      jump\t// in\n    tag_795:\n        /* \"#utility.yul\":19713:19799   */\n      swap1\n      pop\n        /* \"#utility.yul\":19846:19855   */\n      dup2\n        /* \"#utility.yul\":19840:19844   */\n      dup2\n        /* \"#utility.yul\":19836:19856   */\n      sub\n        /* \"#utility.yul\":19831:19833   */\n      0x20\n        /* \"#utility.yul\":19820:19829   */\n      dup4\n        /* \"#utility.yul\":19816:19834   */\n      add\n        /* \"#utility.yul\":19809:19857   */\n      mstore\n        /* \"#utility.yul\":19874:20002   */\n      tag_796\n        /* \"#utility.yul\":19997:20001   */\n      dup2\n        /* \"#utility.yul\":19988:19994   */\n      dup7\n        /* \"#utility.yul\":19874:20002   */\n      tag_694\n      jump\t// in\n    tag_796:\n        /* \"#utility.yul\":19866:20002   */\n      swap1\n      pop\n        /* \"#utility.yul\":20049:20058   */\n      dup2\n        /* \"#utility.yul\":20043:20047   */\n      dup2\n        /* \"#utility.yul\":20039:20059   */\n      sub\n        /* \"#utility.yul\":20034:20036   */\n      0x40\n        /* \"#utility.yul\":20023:20032   */\n      dup4\n        /* \"#utility.yul\":20019:20037   */\n      add\n        /* \"#utility.yul\":20012:20060   */\n      mstore\n        /* \"#utility.yul\":20077:20205   */\n      tag_797\n        /* \"#utility.yul\":20200:20204   */\n      dup2\n        /* \"#utility.yul\":20191:20197   */\n      dup6\n        /* \"#utility.yul\":20077:20205   */\n      tag_694\n      jump\t// in\n    tag_797:\n        /* \"#utility.yul\":20069:20205   */\n      swap1\n      pop\n        /* \"#utility.yul\":20252:20261   */\n      dup2\n        /* \"#utility.yul\":20246:20250   */\n      dup2\n        /* \"#utility.yul\":20242:20262   */\n      sub\n        /* \"#utility.yul\":20237:20239   */\n      0x60\n        /* \"#utility.yul\":20226:20235   */\n      dup4\n        /* \"#utility.yul\":20222:20240   */\n      add\n        /* \"#utility.yul\":20215:20263   */\n      mstore\n        /* \"#utility.yul\":20280:20388   */\n      tag_798\n        /* \"#utility.yul\":20383:20387   */\n      dup2\n        /* \"#utility.yul\":20374:20380   */\n      dup5\n        /* \"#utility.yul\":20280:20388   */\n      tag_680\n      jump\t// in\n    tag_798:\n        /* \"#utility.yul\":20272:20388   */\n      swap1\n      pop\n        /* \"#utility.yul\":19218:20395   */\n      swap6\n      swap5\n      pop\n      pop\n      pop\n      pop\n      pop\n      jump\t// out\n        /* \"#utility.yul\":20401:21620   */\n    tag_32:\n        /* \"#utility.yul\":20756:20760   */\n      0x00\n        /* \"#utility.yul\":20794:20797   */\n      0xa0\n        /* \"#utility.yul\":20783:20792   */\n      dup3\n        /* \"#utility.yul\":20779:20798   */\n      add\n        /* \"#utility.yul\":20771:20798   */\n      swap1\n      pop\n        /* \"#utility.yul\":20844:20853   */\n      dup2\n        /* \"#utility.yul\":20838:20842   */\n      dup2\n        /* \"#utility.yul\":20834:20854   */\n      sub\n        /* \"#utility.yul\":20830:20831   */\n      0x00\n        /* \"#utility.yul\":20819:20828   */\n      dup4\n        /* \"#utility.yul\":20815:20832   */\n      add\n        /* \"#utility.yul\":20808:20855   */\n      mstore\n        /* \"#utility.yul\":20872:20950   */\n      tag_800\n        /* \"#utility.yul\":20945:20949   */\n      dup2\n        /* \"#utility.yul\":20936:20942   */\n      dup9\n        /* \"#utility.yul\":20872:20950   */\n      tag_721\n      jump\t// in\n    tag_800:\n        /* \"#utility.yul\":20864:20950   */\n      swap1\n      pop\n        /* \"#utility.yul\":20997:21006   */\n      dup2\n        /* \"#utility.yul\":20991:20995   */\n      dup2\n        /* \"#utility.yul\":20987:21007   */\n      sub\n        /* \"#utility.yul\":20982:20984   */\n      0x20\n        /* \"#utility.yul\":20971:20980   */\n      dup4\n        /* \"#utility.yul\":20967:20985   */\n      add\n        /* \"#utility.yul\":20960:21008   */\n      mstore\n        /* \"#utility.yul\":21025:21103   */\n      tag_801\n        /* \"#utility.yul\":21098:21102   */\n      dup2\n        /* \"#utility.yul\":21089:21095   */\n      dup8\n        /* \"#utility.yul\":21025:21103   */\n      tag_721\n      jump\t// in\n    tag_801:\n        /* \"#utility.yul\":21017:21103   */\n      swap1\n      pop\n        /* \"#utility.yul\":21150:21159   */\n      dup2\n        /* \"#utility.yul\":21144:21148   */\n      dup2\n        /* \"#utility.yul\":21140:21160   */\n      sub\n        /* \"#utility.yul\":21135:21137   */\n      0x40\n        /* \"#utility.yul\":21124:21133   */\n      dup4\n        /* \"#utility.yul\":21120:21138   */\n      add\n        /* \"#utility.yul\":21113:21161   */\n      mstore\n        /* \"#utility.yul\":21178:21256   */\n      tag_802\n        /* \"#utility.yul\":21251:21255   */\n      dup2\n        /* \"#utility.yul\":21242:21248   */\n      dup7\n        /* \"#utility.yul\":21178:21256   */\n      tag_721\n      jump\t// in\n    tag_802:\n        /* \"#utility.yul\":21170:21256   */\n      swap1\n      pop\n        /* \"#utility.yul\":21303:21312   */\n      dup2\n        /* \"#utility.yul\":21297:21301   */\n      dup2\n        /* \"#utility.yul\":21293:21313   */\n      sub\n        /* \"#utility.yul\":21288:21290   */\n      0x60\n        /* \"#utility.yul\":21277:21286   */\n      dup4\n        /* \"#utility.yul\":21273:21291   */\n      add\n        /* \"#utility.yul\":21266:21314   */\n      mstore\n        /* \"#utility.yul\":21331:21409   */\n      tag_803\n        /* \"#utility.yul\":21404:21408   */\n      dup2\n        /* \"#utility.yul\":21395:21401   */\n      dup6\n        /* \"#utility.yul\":21331:21409   */\n      tag_721\n      jump\t// in\n    tag_803:\n        /* \"#utility.yul\":21323:21409   */\n      swap1\n      pop\n        /* \"#utility.yul\":21457:21466   */\n      dup2\n        /* \"#utility.yul\":21451:21455   */\n      dup2\n        /* \"#utility.yul\":21447:21467   */\n      sub\n        /* \"#utility.yul\":21441:21444   */\n      0x80\n        /* \"#utility.yul\":21430:21439   */\n      dup4\n        /* \"#utility.yul\":21426:21445   */\n      add\n        /* \"#utility.yul\":21419:21468   */\n      mstore\n        /* \"#utility.yul\":21485:21613   */\n      tag_804\n        /* \"#utility.yul\":21608:21612   */\n      dup2\n        /* \"#utility.yul\":21599:21605   */\n      dup5\n        /* \"#utility.yul\":21485:21613   */\n      tag_694\n      jump\t// in\n    tag_804:\n        /* \"#utility.yul\":21477:21613   */\n      swap1\n      pop\n        /* \"#utility.yul\":20401:21620   */\n      swap7\n      swap6\n      pop\n      pop\n      pop\n      pop\n      pop\n      pop\n      jump\t// out\n        /* \"#utility.yul\":21626:22552   */\n    tag_80:\n        /* \"#utility.yul\":21913:21917   */\n      0x00\n        /* \"#utility.yul\":21951:21954   */\n      0x80\n        /* \"#utility.yul\":21940:21949   */\n      dup3\n        /* \"#utility.yul\":21936:21955   */\n      add\n        /* \"#utility.yul\":21928:21955   */\n      swap1\n      pop\n        /* \"#utility.yul\":22001:22010   */\n      dup2\n        /* \"#utility.yul\":21995:21999   */\n      dup2\n        /* \"#utility.yul\":21991:22011   */\n      sub\n        /* \"#utility.yul\":21987:21988   */\n      0x00\n        /* \"#utility.yul\":21976:21985   */\n      dup4\n        /* \"#utility.yul\":21972:21989   */\n      add\n        /* \"#utility.yul\":21965:22012   */\n      mstore\n        /* \"#utility.yul\":22029:22107   */\n      tag_806\n        /* \"#utility.yul\":22102:22106   */\n      dup2\n        /* \"#utility.yul\":22093:22099   */\n      dup8\n        /* \"#utility.yul\":22029:22107   */\n      tag_721\n      jump\t// in\n    tag_806:\n        /* \"#utility.yul\":22021:22107   */\n      swap1\n      pop\n        /* \"#utility.yul\":22154:22163   */\n      dup2\n        /* \"#utility.yul\":22148:22152   */\n      dup2\n        /* \"#utility.yul\":22144:22164   */\n      sub\n        /* \"#utility.yul\":22139:22141   */\n      0x20\n        /* \"#utility.yul\":22128:22137   */\n      dup4\n        /* \"#utility.yul\":22124:22142   */\n      add\n        /* \"#utility.yul\":22117:22165   */\n      mstore\n        /* \"#utility.yul\":22182:22260   */\n      tag_807\n        /* \"#utility.yul\":22255:22259   */\n      dup2\n        /* \"#utility.yul\":22246:22252   */\n      dup7\n        /* \"#utility.yul\":22182:22260   */\n      tag_721\n      jump\t// in\n    tag_807:\n        /* \"#utility.yul\":22174:22260   */\n      swap1\n      pop\n        /* \"#utility.yul\":22270:22342   */\n      tag_808\n        /* \"#utility.yul\":22338:22340   */\n      0x40\n        /* \"#utility.yul\":22327:22336   */\n      dup4\n        /* \"#utility.yul\":22323:22341   */\n      add\n        /* \"#utility.yul\":22314:22320   */\n      dup6\n        /* \"#utility.yul\":22270:22342   */\n      tag_774\n      jump\t// in\n    tag_808:\n        /* \"#utility.yul\":22389:22398   */\n      dup2\n        /* \"#utility.yul\":22383:22387   */\n      dup2\n        /* \"#utility.yul\":22379:22399   */\n      sub\n        /* \"#utility.yul\":22374:22376   */\n      0x60\n        /* \"#utility.yul\":22363:22372   */\n      dup4\n        /* \"#utility.yul\":22359:22377   */\n      add\n        /* \"#utility.yul\":22352:22400   */\n      mstore\n        /* \"#utility.yul\":22417:22545   */\n      tag_809\n        /* \"#utility.yul\":22540:22544   */\n      dup2\n        /* \"#utility.yul\":22531:22537   */\n      dup5\n        /* \"#utility.yul\":22417:22545   */\n      tag_694\n      jump\t// in\n    tag_809:\n        /* \"#utility.yul\":22409:22545   */\n      swap1\n      pop\n        /* \"#utility.yul\":21626:22552   */\n      swap6\n      swap5\n      pop\n      pop\n      pop\n      pop\n      pop\n      jump\t// out\n        /* \"#utility.yul\":22558:22977   */\n    tag_287:\n        /* \"#utility.yul\":22724:22728   */\n      0x00\n        /* \"#utility.yul\":22762:22764   */\n      0x20\n        /* \"#utility.yul\":22751:22760   */\n      dup3\n        /* \"#utility.yul\":22747:22765   */\n      add\n        /* \"#utility.yul\":22739:22765   */\n      swap1\n      pop\n        /* \"#utility.yul\":22811:22820   */\n      dup2\n        /* \"#utility.yul\":22805:22809   */\n      dup2\n        /* \"#utility.yul\":22801:22821   */\n      sub\n        /* \"#utility.yul\":22797:22798   */\n      0x00\n        /* \"#utility.yul\":22786:22795   */\n      dup4\n        /* \"#utility.yul\":22782:22799   */\n      add\n        /* \"#utility.yul\":22775:22822   */\n      mstore\n        /* \"#utility.yul\":22839:22970   */\n      tag_811\n        /* \"#utility.yul\":22965:22969   */\n      dup2\n        /* \"#utility.yul\":22839:22970   */\n      tag_734\n      jump\t// in\n    tag_811:\n        /* \"#utility.yul\":22831:22970   */\n      swap1\n      pop\n        /* \"#utility.yul\":22558:22977   */\n      swap2\n      swap1\n      pop\n      jump\t// out\n        /* \"#utility.yul\":22983:23402   */\n    tag_500:\n        /* \"#utility.yul\":23149:23153   */\n      0x00\n        /* \"#utility.yul\":23187:23189   */\n      0x20\n        /* \"#utility.yul\":23176:23185   */\n      dup3\n        /* \"#utility.yul\":23172:23190   */\n      add\n        /* \"#utility.yul\":23164:23190   */\n      swap1\n      pop\n        /* \"#utility.yul\":23236:23245   */\n      dup2\n        /* \"#utility.yul\":23230:23234   */\n      dup2\n        /* \"#utility.yul\":23226:23246   */\n      sub\n        /* \"#utility.yul\":23222:23223   */\n      0x00\n        /* \"#utility.yul\":23211:23220   */\n      dup4\n        /* \"#utility.yul\":23207:23224   */\n      add\n        /* \"#utility.yul\":23200:23247   */\n      mstore\n        /* \"#utility.yul\":23264:23395   */\n      tag_813\n        /* \"#utility.yul\":23390:23394   */\n      dup2\n        /* \"#utility.yul\":23264:23395   */\n      tag_739\n      jump\t// in\n    tag_813:\n        /* \"#utility.yul\":23256:23395   */\n      swap1\n      pop\n        /* \"#utility.yul\":22983:23402   */\n      swap2\n      swap1\n      pop\n      jump\t// out\n        /* \"#utility.yul\":23408:23827   */\n    tag_306:\n        /* \"#utility.yul\":23574:23578   */\n      0x00\n        /* \"#utility.yul\":23612:23614   */\n      0x20\n        /* \"#utility.yul\":23601:23610   */\n      dup3\n        /* \"#utility.yul\":23597:23615   */\n      add\n        /* \"#utility.yul\":23589:23615   */\n      swap1\n      pop\n        /* \"#utility.yul\":23661:23670   */\n      dup2\n        /* \"#utility.yul\":23655:23659   */\n      dup2\n        /* \"#utility.yul\":23651:23671   */\n      sub\n        /* \"#utility.yul\":23647:23648   */\n      0x00\n        /* \"#utility.yul\":23636:23645   */\n      dup4\n        /* \"#utility.yul\":23632:23649   */\n      add\n        /* \"#utility.yul\":23625:23672   */\n      mstore\n        /* \"#utility.yul\":23689:23820   */\n      tag_815\n        /* \"#utility.yul\":23815:23819   */\n      dup2\n        /* \"#utility.yul\":23689:23820   */\n      tag_744\n      jump\t// in\n    tag_815:\n        /* \"#utility.yul\":23681:23820   */\n      swap1\n      pop\n        /* \"#utility.yul\":23408:23827   */\n      swap2\n      swap1\n      pop\n      jump\t// out\n        /* \"#utility.yul\":23833:24252   */\n    tag_117:\n        /* \"#utility.yul\":23999:24003   */\n      0x00\n        /* \"#utility.yul\":24037:24039   */\n      0x20\n        /* \"#utility.yul\":24026:24035   */\n      dup3\n        /* \"#utility.yul\":24022:24040   */\n      add\n        /* \"#utility.yul\":24014:24040   */\n      swap1\n      pop\n        /* \"#utility.yul\":24086:24095   */\n      dup2\n        /* \"#utility.yul\":24080:24084   */\n      dup2\n        /* \"#utility.yul\":24076:24096   */\n      sub\n        /* \"#utility.yul\":24072:24073   */\n      0x00\n        /* \"#utility.yul\":24061:24070   */\n      dup4\n        /* \"#utility.yul\":24057:24074   */\n      add\n        /* \"#utility.yul\":24050:24097   */\n      mstore\n        /* \"#utility.yul\":24114:24245   */\n      tag_817\n        /* \"#utility.yul\":24240:24244   */\n      dup2\n        /* \"#utility.yul\":24114:24245   */\n      tag_749\n      jump\t// in\n    tag_817:\n        /* \"#utility.yul\":24106:24245   */\n      swap1\n      pop\n        /* \"#utility.yul\":23833:24252   */\n      swap2\n      swap1\n      pop\n      jump\t// out\n        /* \"#utility.yul\":24258:24677   */\n    tag_175:\n        /* \"#utility.yul\":24424:24428   */\n      0x00\n        /* \"#utility.yul\":24462:24464   */\n      0x20\n        /* \"#utility.yul\":24451:24460   */\n      dup3\n        /* \"#utility.yul\":24447:24465   */\n      add\n        /* \"#utility.yul\":24439:24465   */\n      swap1\n      pop\n        /* \"#utility.yul\":24511:24520   */\n      dup2\n        /* \"#utility.yul\":24505:24509   */\n      dup2\n        /* \"#utility.yul\":24501:24521   */\n      sub\n        /* \"#utility.yul\":24497:24498   */\n      0x00\n        /* \"#utility.yul\":24486:24495   */\n      dup4\n        /* \"#utility.yul\":24482:24499   */\n      add\n        /* \"#utility.yul\":24475:24522   */\n      mstore\n        /* \"#utility.yul\":24539:24670   */\n      tag_819\n        /* \"#utility.yul\":24665:24669   */\n      dup2\n        /* \"#utility.yul\":24539:24670   */\n      tag_754\n      jump\t// in\n    tag_819:\n        /* \"#utility.yul\":24531:24670   */\n      swap1\n      pop\n        /* \"#utility.yul\":24258:24677   */\n      swap2\n      swap1\n      pop\n      jump\t// out\n        /* \"#utility.yul\":24683:25102   */\n    tag_159:\n        /* \"#utility.yul\":24849:24853   */\n      0x00\n        /* \"#utility.yul\":24887:24889   */\n      0x20\n        /* \"#utility.yul\":24876:24885   */\n      dup3\n        /* \"#utility.yul\":24872:24890   */\n      add\n        /* \"#utility.yul\":24864:24890   */\n      swap1\n      pop\n        /* \"#utility.yul\":24936:24945   */\n      dup2\n        /* \"#utility.yul\":24930:24934   */\n      dup2\n        /* \"#utility.yul\":24926:24946   */\n      sub\n        /* \"#utility.yul\":24922:24923   */\n      0x00\n        /* \"#utility.yul\":24911:24920   */\n      dup4\n        /* \"#utility.yul\":24907:24924   */\n      add\n        /* \"#utility.yul\":24900:24947   */\n      mstore\n        /* \"#utility.yul\":24964:25095   */\n      tag_821\n        /* \"#utility.yul\":25090:25094   */\n      dup2\n        /* \"#utility.yul\":24964:25095   */\n      tag_759\n      jump\t// in\n    tag_821:\n        /* \"#utility.yul\":24956:25095   */\n      swap1\n      pop\n        /* \"#utility.yul\":24683:25102   */\n      swap2\n      swap1\n      pop\n      jump\t// out\n        /* \"#utility.yul\":25108:25527   */\n    tag_496:\n        /* \"#utility.yul\":25274:25278   */\n      0x00\n        /* \"#utility.yul\":25312:25314   */\n      0x20\n        /* \"#utility.yul\":25301:25310   */\n      dup3\n        /* \"#utility.yul\":25297:25315   */\n      add\n        /* \"#utility.yul\":25289:25315   */\n      swap1\n      pop\n        /* \"#utility.yul\":25361:25370   */\n      dup2\n        /* \"#utility.yul\":25355:25359   */\n      dup2\n        /* \"#utility.yul\":25351:25371   */\n      sub\n        /* \"#utility.yul\":25347:25348   */\n      0x00\n        /* \"#utility.yul\":25336:25345   */\n      dup4\n        /* \"#utility.yul\":25332:25349   */\n      add\n        /* \"#utility.yul\":25325:25372   */\n      mstore\n        /* \"#utility.yul\":25389:25520   */\n      tag_823\n        /* \"#utility.yul\":25515:25519   */\n      dup2\n        /* \"#utility.yul\":25389:25520   */\n      tag_764\n      jump\t// in\n    tag_823:\n        /* \"#utility.yul\":25381:25520   */\n      swap1\n      pop\n        /* \"#utility.yul\":25108:25527   */\n      swap2\n      swap1\n      pop\n      jump\t// out\n        /* \"#utility.yul\":25533:25952   */\n    tag_203:\n        /* \"#utility.yul\":25699:25703   */\n      0x00\n        /* \"#utility.yul\":25737:25739   */\n      0x20\n        /* \"#utility.yul\":25726:25735   */\n      dup3\n        /* \"#utility.yul\":25722:25740   */\n      add\n        /* \"#utility.yul\":25714:25740   */\n      swap1\n      pop\n        /* \"#utility.yul\":25786:25795   */\n      dup2\n        /* \"#utility.yul\":25780:25784   */\n      dup2\n        /* \"#utility.yul\":25776:25796   */\n      sub\n        /* \"#utility.yul\":25772:25773   */\n      0x00\n        /* \"#utility.yul\":25761:25770   */\n      dup4\n        /* \"#utility.yul\":25757:25774   */\n      add\n        /* \"#utility.yul\":25750:25797   */\n      mstore\n        /* \"#utility.yul\":25814:25945   */\n      tag_825\n        /* \"#utility.yul\":25940:25944   */\n      dup2\n        /* \"#utility.yul\":25814:25945   */\n      tag_769\n      jump\t// in\n    tag_825:\n        /* \"#utility.yul\":25806:25945   */\n      swap1\n      pop\n        /* \"#utility.yul\":25533:25952   */\n      swap2\n      swap1\n      pop\n      jump\t// out\n        /* \"#utility.yul\":25958:26087   */\n    tag_544:\n        /* \"#utility.yul\":25992:25998   */\n      0x00\n        /* \"#utility.yul\":26019:26039   */\n      tag_827\n      tag_828\n      jump\t// in\n    tag_827:\n        /* \"#utility.yul\":26009:26039   */\n      swap1\n      pop\n        /* \"#utility.yul\":26048:26081   */\n      tag_829\n        /* \"#utility.yul\":26076:26080   */\n      dup3\n        /* \"#utility.yul\":26068:26074   */\n      dup3\n        /* \"#utility.yul\":26048:26081   */\n      tag_830\n      jump\t// in\n    tag_829:\n        /* \"#utility.yul\":25958:26087   */\n      swap2\n      swap1\n      pop\n      jump\t// out\n        /* \"#utility.yul\":26093:26168   */\n    tag_828:\n        /* \"#utility.yul\":26126:26132   */\n      0x00\n        /* \"#utility.yul\":26159:26161   */\n      0x40\n        /* \"#utility.yul\":26153:26162   */\n      mload\n        /* \"#utility.yul\":26143:26162   */\n      swap1\n      pop\n        /* \"#utility.yul\":26093:26168   */\n      swap1\n      jump\t// out\n        /* \"#utility.yul\":26174:26482   */\n    tag_543:\n        /* \"#utility.yul\":26236:26240   */\n      0x00\n        /* \"#utility.yul\":26326:26344   */\n      0xffffffffffffffff\n        /* \"#utility.yul\":26318:26324   */\n      dup3\n        /* \"#utility.yul\":26315:26345   */\n      gt\n        /* \"#utility.yul\":26312:26368   */\n      iszero\n      tag_833\n      jumpi\n        /* \"#utility.yul\":26348:26366   */\n      tag_834\n      tag_835\n      jump\t// in\n    tag_834:\n        /* \"#utility.yul\":26312:26368   */\n    tag_833:\n        /* \"#utility.yul\":26386:26415   */\n      tag_836\n        /* \"#utility.yul\":26408:26414   */\n      dup3\n        /* \"#utility.yul\":26386:26415   */\n      tag_720\n      jump\t// in\n    tag_836:\n        /* \"#utility.yul\":26378:26415   */\n      swap1\n      pop\n        /* \"#utility.yul\":26470:26474   */\n      0x20\n        /* \"#utility.yul\":26464:26468   */\n      dup2\n        /* \"#utility.yul\":26460:26475   */\n      add\n        /* \"#utility.yul\":26452:26475   */\n      swap1\n      pop\n        /* \"#utility.yul\":26174:26482   */\n      swap2\n      swap1\n      pop\n      jump\t// out\n        /* \"#utility.yul\":26488:26620   */\n    tag_687:\n        /* \"#utility.yul\":26555:26559   */\n      0x00\n        /* \"#utility.yul\":26578:26581   */\n      dup2\n        /* \"#utility.yul\":26570:26581   */\n      swap1\n      pop\n        /* \"#utility.yul\":26608:26612   */\n      0x20\n        /* \"#utility.yul\":26603:26606   */\n      dup3\n        /* \"#utility.yul\":26599:26613   */\n      add\n        /* \"#utility.yul\":26591:26613   */\n      swap1\n      pop\n        /* \"#utility.yul\":26488:26620   */\n      swap2\n      swap1\n      pop\n      jump\t// out\n        /* \"#utility.yul\":26626:26768   */\n    tag_701:\n        /* \"#utility.yul\":26703:26707   */\n      0x00\n        /* \"#utility.yul\":26726:26729   */\n      dup2\n        /* \"#utility.yul\":26718:26729   */\n      swap1\n      pop\n        /* \"#utility.yul\":26756:26760   */\n      0x20\n        /* \"#utility.yul\":26751:26754   */\n      dup3\n        /* \"#utility.yul\":26747:26761   */\n      add\n        /* \"#utility.yul\":26739:26761   */\n      swap1\n      pop\n        /* \"#utility.yul\":26626:26768   */\n      swap2\n      swap1\n      pop\n      jump\t// out\n        /* \"#utility.yul\":26774:26888   */\n    tag_683:\n        /* \"#utility.yul\":26841:26847   */\n      0x00\n        /* \"#utility.yul\":26875:26880   */\n      dup2\n        /* \"#utility.yul\":26869:26881   */\n      mload\n        /* \"#utility.yul\":26859:26881   */\n      swap1\n      pop\n        /* \"#utility.yul\":26774:26888   */\n      swap2\n      swap1\n      pop\n      jump\t// out\n        /* \"#utility.yul\":26894:27018   */\n    tag_697:\n        /* \"#utility.yul\":26971:26977   */\n      0x00\n        /* \"#utility.yul\":27005:27010   */\n      dup2\n        /* \"#utility.yul\":26999:27011   */\n      mload\n        /* \"#utility.yul\":26989:27011   */\n      swap1\n      pop\n        /* \"#utility.yul\":26894:27018   */\n      swap2\n      swap1\n      pop\n      jump\t// out\n        /* \"#utility.yul\":27024:27123   */\n    tag_714:\n        /* \"#utility.yul\":27076:27082   */\n      0x00\n        /* \"#utility.yul\":27110:27115   */\n      dup2\n        /* \"#utility.yul\":27104:27116   */\n      mload\n        /* \"#utility.yul\":27094:27116   */\n      swap1\n      pop\n        /* \"#utility.yul\":27024:27123   */\n      swap2\n      swap1\n      pop\n      jump\t// out\n        /* \"#utility.yul\":27129:27242   */\n    tag_693:\n        /* \"#utility.yul\":27199:27203   */\n      0x00\n        /* \"#utility.yul\":27231:27235   */\n      0x20\n        /* \"#utility.yul\":27226:27229   */\n      dup3\n        /* \"#utility.yul\":27222:27236   */\n      add\n        /* \"#utility.yul\":27214:27236   */\n      swap1\n      pop\n        /* \"#utility.yul\":27129:27242   */\n      swap2\n      swap1\n      pop\n      jump\t// out\n        /* \"#utility.yul\":27248:27371   */\n    tag_707:\n        /* \"#utility.yul\":27328:27332   */\n      0x00\n        /* \"#utility.yul\":27360:27364   */\n      0x20\n        /* \"#utility.yul\":27355:27358   */\n      dup3\n        /* \"#utility.yul\":27351:27365   */\n      add\n        /* \"#utility.yul\":27343:27365   */\n      swap1\n      pop\n        /* \"#utility.yul\":27248:27371   */\n      swap2\n      swap1\n      pop\n      jump\t// out\n        /* \"#utility.yul\":27377:27561   */\n    tag_685:\n        /* \"#utility.yul\":27476:27487   */\n      0x00\n        /* \"#utility.yul\":27510:27516   */\n      dup3\n        /* \"#utility.yul\":27505:27508   */\n      dup3\n        /* \"#utility.yul\":27498:27517   */\n      mstore\n        /* \"#utility.yul\":27550:27554   */\n      0x20\n        /* \"#utility.yul\":27545:27548   */\n      dup3\n        /* \"#utility.yul\":27541:27555   */\n      add\n        /* \"#utility.yul\":27526:27555   */\n      swap1\n      pop\n        /* \"#utility.yul\":27377:27561   */\n      swap3\n      swap2\n      pop\n      pop\n      jump\t// out\n        /* \"#utility.yul\":27567:27761   */\n    tag_699:\n        /* \"#utility.yul\":27676:27687   */\n      0x00\n        /* \"#utility.yul\":27710:27716   */\n      dup3\n        /* \"#utility.yul\":27705:27708   */\n      dup3\n        /* \"#utility.yul\":27698:27717   */\n      mstore\n        /* \"#utility.yul\":27750:27754   */\n      0x20\n        /* \"#utility.yul\":27745:27748   */\n      dup3\n        /* \"#utility.yul\":27741:27755   */\n      add\n        /* \"#utility.yul\":27726:27755   */\n      swap1\n      pop\n        /* \"#utility.yul\":27567:27761   */\n      swap3\n      swap2\n      pop\n      pop\n      jump\t// out\n        /* \"#utility.yul\":27767:27926   */\n    tag_716:\n        /* \"#utility.yul\":27841:27852   */\n      0x00\n        /* \"#utility.yul\":27875:27881   */\n      dup3\n        /* \"#utility.yul\":27870:27873   */\n      dup3\n        /* \"#utility.yul\":27863:27882   */\n      mstore\n        /* \"#utility.yul\":27915:27919   */\n      0x20\n        /* \"#utility.yul\":27910:27913   */\n      dup3\n        /* \"#utility.yul\":27906:27920   */\n      add\n        /* \"#utility.yul\":27891:27920   */\n      swap1\n      pop\n        /* \"#utility.yul\":27767:27926   */\n      swap3\n      swap2\n      pop\n      pop\n      jump\t// out\n        /* \"#utility.yul\":27932:28101   */\n    tag_725:\n        /* \"#utility.yul\":28016:28027   */\n      0x00\n        /* \"#utility.yul\":28050:28056   */\n      dup3\n        /* \"#utility.yul\":28045:28048   */\n      dup3\n        /* \"#utility.yul\":28038:28057   */\n      mstore\n        /* \"#utility.yul\":28090:28094   */\n      0x20\n        /* \"#utility.yul\":28085:28088   */\n      dup3\n        /* \"#utility.yul\":28081:28095   */\n      add\n        /* \"#utility.yul\":28066:28095   */\n      swap1\n      pop\n        /* \"#utility.yul\":27932:28101   */\n      swap3\n      swap2\n      pop\n      pop\n      jump\t// out\n        /* \"#utility.yul\":28107:28255   */\n    tag_732:\n        /* \"#utility.yul\":28209:28220   */\n      0x00\n        /* \"#utility.yul\":28246:28249   */\n      dup2\n        /* \"#utility.yul\":28231:28249   */\n      swap1\n      pop\n        /* \"#utility.yul\":28107:28255   */\n      swap3\n      swap2\n      pop\n      pop\n      jump\t// out\n        /* \"#utility.yul\":28261:28357   */\n    tag_676:\n        /* \"#utility.yul\":28298:28305   */\n      0x00\n        /* \"#utility.yul\":28327:28351   */\n      tag_850\n        /* \"#utility.yul\":28345:28350   */\n      dup3\n        /* \"#utility.yul\":28327:28351   */\n      tag_851\n      jump\t// in\n    tag_850:\n        /* \"#utility.yul\":28316:28351   */\n      swap1\n      pop\n        /* \"#utility.yul\":28261:28357   */\n      swap2\n      swap1\n      pop\n      jump\t// out\n        /* \"#utility.yul\":28363:28467   */\n    tag_852:\n        /* \"#utility.yul\":28408:28415   */\n      0x00\n        /* \"#utility.yul\":28437:28461   */\n      tag_854\n        /* \"#utility.yul\":28455:28460   */\n      dup3\n        /* \"#utility.yul\":28437:28461   */\n      tag_851\n      jump\t// in\n    tag_854:\n        /* \"#utility.yul\":28426:28461   */\n      swap1\n      pop\n        /* \"#utility.yul\":28363:28467   */\n      swap2\n      swap1\n      pop\n      jump\t// out\n        /* \"#utility.yul\":28473:28563   */\n    tag_855:\n        /* \"#utility.yul\":28507:28514   */\n      0x00\n        /* \"#utility.yul\":28550:28555   */\n      dup2\n        /* \"#utility.yul\":28543:28556   */\n      iszero\n        /* \"#utility.yul\":28536:28557   */\n      iszero\n        /* \"#utility.yul\":28525:28557   */\n      swap1\n      pop\n        /* \"#utility.yul\":28473:28563   */\n      swap2\n      swap1\n      pop\n      jump\t// out\n        /* \"#utility.yul\":28569:28645   */\n    tag_711:\n        /* \"#utility.yul\":28605:28612   */\n      0x00\n        /* \"#utility.yul\":28634:28639   */\n      dup2\n        /* \"#utility.yul\":28623:28639   */\n      swap1\n      pop\n        /* \"#utility.yul\":28569:28645   */\n      swap2\n      swap1\n      pop\n      jump\t// out\n        /* \"#utility.yul\":28651:28777   */\n    tag_851:\n        /* \"#utility.yul\":28688:28695   */\n      0x00\n        /* \"#utility.yul\":28728:28770   */\n      0xffffffffffffffffffffffffffffffffffffffff\n        /* \"#utility.yul\":28721:28726   */\n      dup3\n        /* \"#utility.yul\":28717:28771   */\n      and\n        /* \"#utility.yul\":28706:28771   */\n      swap1\n      pop\n        /* \"#utility.yul\":28651:28777   */\n      swap2\n      swap1\n      pop\n      jump\t// out\n        /* \"#utility.yul\":28783:28860   */\n    tag_777:\n        /* \"#utility.yul\":28820:28827   */\n      0x00\n        /* \"#utility.yul\":28849:28854   */\n      dup2\n        /* \"#utility.yul\":28838:28854   */\n      swap1\n      pop\n        /* \"#utility.yul\":28783:28860   */\n      swap2\n      swap1\n      pop\n      jump\t// out\n        /* \"#utility.yul\":28866:29020   */\n    tag_549:\n        /* \"#utility.yul\":28950:28956   */\n      dup3\n        /* \"#utility.yul\":28945:28948   */\n      dup2\n        /* \"#utility.yul\":28940:28943   */\n      dup4\n        /* \"#utility.yul\":28927:28957   */\n      calldatacopy\n        /* \"#utility.yul\":29012:29013   */\n      0x00\n        /* \"#utility.yul\":29003:29009   */\n      dup4\n        /* \"#utility.yul\":28998:29001   */\n      dup4\n        /* \"#utility.yul\":28994:29010   */\n      add\n        /* \"#utility.yul\":28987:29014   */\n      mstore\n        /* \"#utility.yul\":28866:29020   */\n      pop\n      pop\n      pop\n      jump\t// out\n        /* \"#utility.yul\":29026:29333   */\n    tag_718:\n        /* \"#utility.yul\":29094:29095   */\n      0x00\n        /* \"#utility.yul\":29104:29217   */\n    tag_862:\n        /* \"#utility.yul\":29118:29124   */\n      dup4\n        /* \"#utility.yul\":29115:29116   */\n      dup2\n        /* \"#utility.yul\":29112:29125   */\n      lt\n        /* \"#utility.yul\":29104:29217   */\n      iszero\n      tag_864\n      jumpi\n        /* \"#utility.yul\":29203:29204   */\n      dup1\n        /* \"#utility.yul\":29198:29201   */\n      dup3\n        /* \"#utility.yul\":29194:29205   */\n      add\n        /* \"#utility.yul\":29188:29206   */\n      mload\n        /* \"#utility.yul\":29184:29185   */\n      dup2\n        /* \"#utility.yul\":29179:29182   */\n      dup5\n        /* \"#utility.yul\":29175:29186   */\n      add\n        /* \"#utility.yul\":29168:29207   */\n      mstore\n        /* \"#utility.yul\":29140:29142   */\n      0x20\n        /* \"#utility.yul\":29137:29138   */\n      dup2\n        /* \"#utility.yul\":29133:29143   */\n      add\n        /* \"#utility.yul\":29128:29143   */\n      swap1\n      pop\n        /* \"#utility.yul\":29104:29217   */\n      jump(tag_862)\n    tag_864:\n        /* \"#utility.yul\":29235:29241   */\n      dup4\n        /* \"#utility.yul\":29232:29233   */\n      dup2\n        /* \"#utility.yul\":29229:29242   */\n      gt\n        /* \"#utility.yul\":29226:29327   */\n      iszero\n      tag_865\n      jumpi\n        /* \"#utility.yul\":29315:29316   */\n      0x00\n        /* \"#utility.yul\":29306:29312   */\n      dup5\n        /* \"#utility.yul\":29301:29304   */\n      dup5\n        /* \"#utility.yul\":29297:29313   */\n      add\n        /* \"#utility.yul\":29290:29317   */\n      mstore\n        /* \"#utility.yul\":29226:29327   */\n    tag_865:\n        /* \"#utility.yul\":29075:29333   */\n      pop\n        /* \"#utility.yul\":29026:29333   */\n      pop\n      pop\n      pop\n      jump\t// out\n        /* \"#utility.yul\":29339:29659   */\n    tag_120:\n        /* \"#utility.yul\":29383:29389   */\n      0x00\n        /* \"#utility.yul\":29420:29421   */\n      0x02\n        /* \"#utility.yul\":29414:29418   */\n      dup3\n        /* \"#utility.yul\":29410:29422   */\n      div\n        /* \"#utility.yul\":29400:29422   */\n      swap1\n      pop\n        /* \"#utility.yul\":29467:29468   */\n      0x01\n        /* \"#utility.yul\":29461:29465   */\n      dup3\n        /* \"#utility.yul\":29457:29469   */\n      and\n        /* \"#utility.yul\":29488:29506   */\n      dup1\n        /* \"#utility.yul\":29478:29559   */\n      tag_867\n      jumpi\n        /* \"#utility.yul\":29544:29548   */\n      0x7f\n        /* \"#utility.yul\":29536:29542   */\n      dup3\n        /* \"#utility.yul\":29532:29549   */\n      and\n        /* \"#utility.yul\":29522:29549   */\n      swap2\n      pop\n        /* \"#utility.yul\":29478:29559   */\n    tag_867:\n        /* \"#utility.yul\":29606:29608   */\n      0x20\n        /* \"#utility.yul\":29598:29604   */\n      dup3\n        /* \"#utility.yul\":29595:29609   */\n      lt\n        /* \"#utility.yul\":29575:29593   */\n      dup2\n        /* \"#utility.yul\":29572:29610   */\n      eq\n        /* \"#utility.yul\":29569:29653   */\n      iszero\n      tag_868\n      jumpi\n        /* \"#utility.yul\":29625:29643   */\n      tag_869\n      tag_870\n      jump\t// in\n    tag_869:\n        /* \"#utility.yul\":29569:29653   */\n    tag_868:\n        /* \"#utility.yul\":29390:29659   */\n      pop\n        /* \"#utility.yul\":29339:29659   */\n      swap2\n      swap1\n      pop\n      jump\t// out\n        /* \"#utility.yul\":29665:29946   */\n    tag_830:\n        /* \"#utility.yul\":29748:29775   */\n      tag_872\n        /* \"#utility.yul\":29770:29774   */\n      dup3\n        /* \"#utility.yul\":29748:29775   */\n      tag_720\n      jump\t// in\n    tag_872:\n        /* \"#utility.yul\":29740:29746   */\n      dup2\n        /* \"#utility.yul\":29736:29776   */\n      add\n        /* \"#utility.yul\":29878:29884   */\n      dup2\n        /* \"#utility.yul\":29866:29876   */\n      dup2\n        /* \"#utility.yul\":29863:29885   */\n      lt\n        /* \"#utility.yul\":29842:29860   */\n      0xffffffffffffffff\n        /* \"#utility.yul\":29830:29840   */\n      dup3\n        /* \"#utility.yul\":29827:29861   */\n      gt\n        /* \"#utility.yul\":29824:29886   */\n      or\n        /* \"#utility.yul\":29821:29909   */\n      iszero\n      tag_873\n      jumpi\n        /* \"#utility.yul\":29889:29907   */\n      tag_874\n      tag_835\n      jump\t// in\n    tag_874:\n        /* \"#utility.yul\":29821:29909   */\n    tag_873:\n        /* \"#utility.yul\":29929:29939   */\n      dup1\n        /* \"#utility.yul\":29925:29927   */\n      0x40\n        /* \"#utility.yul\":29918:29940   */\n      mstore\n        /* \"#utility.yul\":29708:29946   */\n      pop\n        /* \"#utility.yul\":29665:29946   */\n      pop\n      pop\n      jump\t// out\n        /* \"#utility.yul\":29952:30132   */\n    tag_114:\n        /* \"#utility.yul\":30000:30077   */\n      0x4e487b7100000000000000000000000000000000000000000000000000000000\n        /* \"#utility.yul\":29997:29998   */\n      0x00\n        /* \"#utility.yul\":29990:30078   */\n      mstore\n        /* \"#utility.yul\":30097:30101   */\n      0x21\n        /* \"#utility.yul\":30094:30095   */\n      0x04\n        /* \"#utility.yul\":30087:30102   */\n      mstore\n        /* \"#utility.yul\":30121:30125   */\n      0x24\n        /* \"#utility.yul\":30118:30119   */\n      0x00\n        /* \"#utility.yul\":30111:30126   */\n      revert\n        /* \"#utility.yul\":30138:30318   */\n    tag_870:\n        /* \"#utility.yul\":30186:30263   */\n      0x4e487b7100000000000000000000000000000000000000000000000000000000\n        /* \"#utility.yul\":30183:30184   */\n      0x00\n        /* \"#utility.yul\":30176:30264   */\n      mstore\n        /* \"#utility.yul\":30283:30287   */\n      0x22\n        /* \"#utility.yul\":30280:30281   */\n      0x04\n        /* \"#utility.yul\":30273:30288   */\n      mstore\n        /* \"#utility.yul\":30307:30311   */\n      0x24\n        /* \"#utility.yul\":30304:30305   */\n      0x00\n        /* \"#utility.yul\":30297:30312   */\n      revert\n        /* \"#utility.yul\":30324:30504   */\n    tag_835:\n        /* \"#utility.yul\":30372:30449   */\n      0x4e487b7100000000000000000000000000000000000000000000000000000000\n        /* \"#utility.yul\":30369:30370   */\n      0x00\n        /* \"#utility.yul\":30362:30450   */\n      mstore\n        /* \"#utility.yul\":30469:30473   */\n      0x41\n        /* \"#utility.yul\":30466:30467   */\n      0x04\n        /* \"#utility.yul\":30459:30474   */\n      mstore\n        /* \"#utility.yul\":30493:30497   */\n      0x24\n        /* \"#utility.yul\":30490:30491   */\n      0x00\n        /* \"#utility.yul\":30483:30498   */\n      revert\n        /* \"#utility.yul\":30510:30627   */\n    tag_570:\n        /* \"#utility.yul\":30619:30620   */\n      0x00\n        /* \"#utility.yul\":30616:30617   */\n      dup1\n        /* \"#utility.yul\":30609:30621   */\n      revert\n        /* \"#utility.yul\":30633:30750   */\n    tag_547:\n        /* \"#utility.yul\":30742:30743   */\n      0x00\n        /* \"#utility.yul\":30739:30740   */\n      dup1\n        /* \"#utility.yul\":30732:30744   */\n      revert\n        /* \"#utility.yul\":30756:30873   */\n    tag_587:\n        /* \"#utility.yul\":30865:30866   */\n      0x00\n        /* \"#utility.yul\":30862:30863   */\n      dup1\n        /* \"#utility.yul\":30855:30867   */\n      revert\n        /* \"#utility.yul\":30879:30996   */\n    tag_575:\n        /* \"#utility.yul\":30988:30989   */\n      0x00\n        /* \"#utility.yul\":30985:30986   */\n      dup1\n        /* \"#utility.yul\":30978:30990   */\n      revert\n        /* \"#utility.yul\":31002:31104   */\n    tag_720:\n        /* \"#utility.yul\":31043:31049   */\n      0x00\n        /* \"#utility.yul\":31094:31096   */\n      0x1f\n        /* \"#utility.yul\":31090:31097   */\n      not\n        /* \"#utility.yul\":31085:31087   */\n      0x1f\n        /* \"#utility.yul\":31078:31083   */\n      dup4\n        /* \"#utility.yul\":31074:31088   */\n      add\n        /* \"#utility.yul\":31070:31098   */\n      and\n        /* \"#utility.yul\":31060:31098   */\n      swap1\n      pop\n        /* \"#utility.yul\":31002:31104   */\n      swap2\n      swap1\n      pop\n      jump\t// out\n        /* \"#utility.yul\":31110:31287   */\n    tag_738:\n        /* \"#utility.yul\":31250:31279   */\n      0x596f7520616c726561647920636865636b207468697320636173650000000000\n        /* \"#utility.yul\":31246:31247   */\n      0x00\n        /* \"#utility.yul\":31238:31244   */\n      dup3\n        /* \"#utility.yul\":31234:31248   */\n      add\n        /* \"#utility.yul\":31227:31280   */\n      mstore\n        /* \"#utility.yul\":31110:31287   */\n      pop\n      jump\t// out\n        /* \"#utility.yul\":31293:31514   */\n    tag_743:\n        /* \"#utility.yul\":31433:31467   */\n      0x596f7572206c6f67696e20616c726561647920657869737420696e2073797374\n        /* \"#utility.yul\":31429:31430   */\n      0x00\n        /* \"#utility.yul\":31421:31427   */\n      dup3\n        /* \"#utility.yul\":31417:31431   */\n      add\n        /* \"#utility.yul\":31410:31468   */\n      mstore\n        /* \"#utility.yul\":31502:31506   */\n      0x656d000000000000000000000000000000000000000000000000000000000000\n        /* \"#utility.yul\":31497:31499   */\n      0x20\n        /* \"#utility.yul\":31489:31495   */\n      dup3\n        /* \"#utility.yul\":31485:31500   */\n      add\n        /* \"#utility.yul\":31478:31507   */\n      mstore\n        /* \"#utility.yul\":31293:31514   */\n      pop\n      jump\t// out\n        /* \"#utility.yul\":31520:31681   */\n    tag_748:\n        /* \"#utility.yul\":31660:31673   */\n      0x4c6f772062616c616e6365000000000000000000000000000000000000000000\n        /* \"#utility.yul\":31656:31657   */\n      0x00\n        /* \"#utility.yul\":31648:31654   */\n      dup3\n        /* \"#utility.yul\":31644:31658   */\n      add\n        /* \"#utility.yul\":31637:31674   */\n      mstore\n        /* \"#utility.yul\":31520:31681   */\n      pop\n      jump\t// out\n        /* \"#utility.yul\":31687:31846   */\n    tag_753:\n        /* \"#utility.yul\":31827:31838   */\n      0x466f7262696464656e0000000000000000000000000000000000000000000000\n        /* \"#utility.yul\":31823:31824   */\n      0x00\n        /* \"#utility.yul\":31815:31821   */\n      dup3\n        /* \"#utility.yul\":31811:31825   */\n      add\n        /* \"#utility.yul\":31804:31839   */\n      mstore\n        /* \"#utility.yul\":31687:31846   */\n      pop\n      jump\t// out\n        /* \"#utility.yul\":31852:32014   */\n    tag_758:\n        /* \"#utility.yul\":31992:32006   */\n      0x596f75206e6f7420757365720000000000000000000000000000000000000000\n        /* \"#utility.yul\":31988:31989   */\n      0x00\n        /* \"#utility.yul\":31980:31986   */\n      dup3\n        /* \"#utility.yul\":31976:31990   */\n      add\n        /* \"#utility.yul\":31969:32007   */\n      mstore\n        /* \"#utility.yul\":31852:32014   */\n      pop\n      jump\t// out\n        /* \"#utility.yul\":32020:32183   */\n    tag_763:\n        /* \"#utility.yul\":32160:32175   */\n      0x596f75206e6f742061646d696e00000000000000000000000000000000000000\n        /* \"#utility.yul\":32156:32157   */\n      0x00\n        /* \"#utility.yul\":32148:32154   */\n      dup3\n        /* \"#utility.yul\":32144:32158   */\n      add\n        /* \"#utility.yul\":32137:32176   */\n      mstore\n        /* \"#utility.yul\":32020:32183   */\n      pop\n      jump\t// out\n        /* \"#utility.yul\":32189:32361   */\n    tag_768:\n        /* \"#utility.yul\":32329:32353   */\n      0x596f7520616c7265616479207265676973746572656400000000000000000000\n        /* \"#utility.yul\":32325:32326   */\n      0x00\n        /* \"#utility.yul\":32317:32323   */\n      dup3\n        /* \"#utility.yul\":32313:32327   */\n      add\n        /* \"#utility.yul\":32306:32354   */\n      mstore\n        /* \"#utility.yul\":32189:32361   */\n      pop\n      jump\t// out\n        /* \"#utility.yul\":32367:32528   */\n    tag_773:\n        /* \"#utility.yul\":32507:32520   */\n      0x57726f6e67204c6f67696e000000000000000000000000000000000000000000\n        /* \"#utility.yul\":32503:32504   */\n      0x00\n        /* \"#utility.yul\":32495:32501   */\n      dup3\n        /* \"#utility.yul\":32491:32505   */\n      add\n        /* \"#utility.yul\":32484:32521   */\n      mstore\n        /* \"#utility.yul\":32367:32528   */\n      pop\n      jump\t// out\n        /* \"#utility.yul\":32534:32656   */\n    tag_553:\n        /* \"#utility.yul\":32607:32631   */\n      tag_892\n        /* \"#utility.yul\":32625:32630   */\n      dup2\n        /* \"#utility.yul\":32607:32631   */\n      tag_676\n      jump\t// in\n    tag_892:\n        /* \"#utility.yul\":32600:32605   */\n      dup2\n        /* \"#utility.yul\":32597:32632   */\n      eq\n        /* \"#utility.yul\":32587:32650   */\n      tag_893\n      jumpi\n        /* \"#utility.yul\":32646:32647   */\n      0x00\n        /* \"#utility.yul\":32643:32644   */\n      dup1\n        /* \"#utility.yul\":32636:32648   */\n      revert\n        /* \"#utility.yul\":32587:32650   */\n    tag_893:\n        /* \"#utility.yul\":32534:32656   */\n      pop\n      jump\t// out\n        /* \"#utility.yul\":32662:32800   */\n    tag_557:\n        /* \"#utility.yul\":32743:32775   */\n      tag_895\n        /* \"#utility.yul\":32769:32774   */\n      dup2\n        /* \"#utility.yul\":32743:32775   */\n      tag_852\n      jump\t// in\n    tag_895:\n        /* \"#utility.yul\":32736:32741   */\n      dup2\n        /* \"#utility.yul\":32733:32776   */\n      eq\n        /* \"#utility.yul\":32723:32794   */\n      tag_896\n      jumpi\n        /* \"#utility.yul\":32790:32791   */\n      0x00\n        /* \"#utility.yul\":32787:32788   */\n      dup1\n        /* \"#utility.yul\":32780:32792   */\n      revert\n        /* \"#utility.yul\":32723:32794   */\n    tag_896:\n        /* \"#utility.yul\":32662:32800   */\n      pop\n      jump\t// out\n        /* \"#utility.yul\":32806:32922   */\n    tag_561:\n        /* \"#utility.yul\":32876:32897   */\n      tag_898\n        /* \"#utility.yul\":32891:32896   */\n      dup2\n        /* \"#utility.yul\":32876:32897   */\n      tag_855\n      jump\t// in\n    tag_898:\n        /* \"#utility.yul\":32869:32874   */\n      dup2\n        /* \"#utility.yul\":32866:32898   */\n      eq\n        /* \"#utility.yul\":32856:32916   */\n      tag_899\n      jumpi\n        /* \"#utility.yul\":32912:32913   */\n      0x00\n        /* \"#utility.yul\":32909:32910   */\n      dup1\n        /* \"#utility.yul\":32902:32914   */\n      revert\n        /* \"#utility.yul\":32856:32916   */\n    tag_899:\n        /* \"#utility.yul\":32806:32922   */\n      pop\n      jump\t// out\n        /* \"#utility.yul\":32928:33048   */\n    tag_565:\n        /* \"#utility.yul\":33000:33023   */\n      tag_901\n        /* \"#utility.yul\":33017:33022   */\n      dup2\n        /* \"#utility.yul\":33000:33023   */\n      tag_711\n      jump\t// in\n    tag_901:\n        /* \"#utility.yul\":32993:32998   */\n      dup2\n        /* \"#utility.yul\":32990:33024   */\n      eq\n        /* \"#utility.yul\":32980:33042   */\n      tag_902\n      jumpi\n        /* \"#utility.yul\":33038:33039   */\n      0x00\n        /* \"#utility.yul\":33035:33036   */\n      dup1\n        /* \"#utility.yul\":33028:33040   */\n      revert\n        /* \"#utility.yul\":32980:33042   */\n    tag_902:\n        /* \"#utility.yul\":32928:33048   */\n      pop\n      jump\t// out\n\n    auxdata: 0xa2646970667358221220bfe2cae7eca33fc7e3eef3770a46bae708c34d48a478a94004b1c86666c1e01e64736f6c63430008070033\n}\n",
				"bytecode": {
					"linkReferences": {},
					"object": "60806040523480156200001157600080fd5b506040518060400160405280600581526020017f627579657200000000000000000000000000000000000000000000000000000081525060008080815260200190815260200160002090805190602001906200006f92919062000292565b506040518060400160405280600681526020017f73656c6c65720000000000000000000000000000000000000000000000000000815250600080600181526020019081526020016000209080519060200190620000ce92919062000292565b506040518060400160405280600481526020017f73686f70000000000000000000000000000000000000000000000000000000008152506000806002815260200190815260200160002090805190602001906200012d92919062000292565b506040518060400160405280600581526020017f61646d696e0000000000000000000000000000000000000000000000000000008152506000806003815260200190815260200160002090805190602001906200018c92919062000292565b506040518060400160405280600881526020017f70726f7669646572000000000000000000000000000000000000000000000000815250600080600481526020019081526020016000209080519060200190620001eb92919062000292565b506040518060400160405280600481526020017f62616e6b000000000000000000000000000000000000000000000000000000008152506000806005815260200190815260200160002090805190602001906200024a92919062000292565b5033600560006101000a81548173ffffffffffffffffffffffffffffffffffffffff021916908373ffffffffffffffffffffffffffffffffffffffff160217905550620003a7565b828054620002a09062000342565b90600052602060002090601f016020900481019282620002c4576000855562000310565b82601f10620002df57805160ff191683800117855562000310565b8280016001018555821562000310579182015b828111156200030f578251825591602001919060010190620002f2565b5b5090506200031f919062000323565b5090565b5b808211156200033e57600081600090555060010162000324565b5090565b600060028204905060018216806200035b57607f821691505b6020821081141562000372576200037162000378565b5b50919050565b7f4e487b7100000000000000000000000000000000000000000000000000000000600052602260045260246000fd5b614d8d80620003b76000396000f3fe608060405234801561001057600080fd5b50600436106101375760003560e01c806383db0f6d116100b8578063ac6fa7c31161007c578063ac6fa7c314610331578063b038316c1461034d578063bce62a7414610369578063c3d5fd3914610385578063dffc8b06146103a6578063f8f98b79146103d857610137565b806383db0f6d146102a05780638403f848146102bc57806399b958ee146102d85780639d344d10146102f9578063a59d105f1461031557610137565b80633a7d280c116100ff5780633a7d280c146101f957806354504c121461022a5780637558b2f81461024c5780637b3c7488146102685780637ccb2bd81461028457610137565b806308e748581461013c5780632059b7ad146101705780632156a7811461018c5780632d6abf59146101a85780632f0185c4146101c4575b600080fd5b61015660048036038101906101519190613dd5565b6103f4565b604051610167959493929190614702565b60405180910390f35b61018a600480360381019061018591906140b9565b6108f9565b005b6101a660048036038101906101a1919061405d565b6109a2565b005b6101c260048036038101906101bd9190613eba565b610a69565b005b6101de60048036038101906101d99190614014565b610dfb565b6040516101f0969594939291906145c4565b60405180910390f35b610213600480360381019061020e9190614014565b6110cb565b60405161022192919061462c565b60405180910390f35b6102326114c2565b604051610243959493929190614702565b60405180910390f35b61026660048036038101906102619190613f59565b6119c5565b005b610282600480360381019061027d9190614014565b611b40565b005b61029e6004803603810190610299919061405d565b611e0b565b005b6102ba60048036038101906102b59190613e02565b611f14565b005b6102d660048036038101906102d19190614218565b612063565b005b6102e0612191565b6040516102f09493929190614778565b60405180910390f35b610313600480360381019061030e919061418d565b612546565b005b61032f600480360381019061032a9190613e2f565b61256f565b005b61034b60048036038101906103469190614014565b61266e565b005b61036760048036038101906103629190614014565b6129ad565b005b610383600480360381019061037e9190614014565b612cec565b005b61038d612fb7565b60405161039d94939291906146a1565b60405180910390f35b6103c060048036038101906103bb9190614014565b6134ea565b6040516103cf9392919061465c565b60405180910390f35b6103f260048036038101906103ed9190614115565b6136ce565b005b60608060608060606003600260003373ffffffffffffffffffffffffffffffffffffffff1673ffffffffffffffffffffffffffffffffffffffff1681526020019081526020016000206000015481600581111561045457610453614adb565b5b14610494576040517f08c379a000000000000000000000000000000000000000000000000000000000815260040161048b90614832565b60405180910390fd5b6000600260008973ffffffffffffffffffffffffffffffffffffffff1673ffffffffffffffffffffffffffffffffffffffff168152602001908152602001600020604051806080016040529081600082015481526020016001820180546104fa90614a78565b80601f016020809104026020016040519081016040528092919081815260200182805461052690614a78565b80156105735780601f1061054857610100808354040283529160200191610573565b820191906000526020600020905b81548152906001019060200180831161055657829003601f168201915b5050505050815260200160028201805461058c90614a78565b80601f01602080910402602001604051908101604052809291908181526020018280546105b890614a78565b80156106055780601f106105da57610100808354040283529160200191610605565b820191906000526020600020905b8154815290600101906020018083116105e857829003601f168201915b5050505050815260200160038201805480602002602001604051908101604052809291908181526020016000905b828210156106df57838290600052602060002001805461065290614a78565b80601f016020809104026020016040519081016040528092919081815260200182805461067e90614a78565b80156106cb5780601f106106a0576101008083540402835291602001916106cb565b820191906000526020600020905b8154815290600101906020018083116106ae57829003601f168201915b505050505081526020019060010190610633565b505050508152505090506000600c60008a73ffffffffffffffffffffffffffffffffffffffff1673ffffffffffffffffffffffffffffffffffffffff16815260200190815260200160002060009054906101000a900473ffffffffffffffffffffffffffffffffffffffff1690506000600b60008373ffffffffffffffffffffffffffffffffffffffff1673ffffffffffffffffffffffffffffffffffffffff1681526020019081526020016000206040518060600160405290816000820180546107a990614a78565b80601f01602080910402602001604051908101604052809291908181526020018280546107d590614a78565b80156108225780601f106107f757610100808354040283529160200191610822565b820191906000526020600020905b81548152906001019060200180831161080557829003601f168201915b5050505050815260200160018201805461083b90614a78565b80601f016020809104026020016040519081016040528092919081815260200182805461086790614a78565b80156108b45780601f10610889576101008083540402835291602001916108b4565b820191906000526020600020905b81548152906001019060200180831161089757829003601f168201915b50505050508152602001600282015481525050905082602001519850826040015197508060200151965080600001519550826060015194505050505091939590929450565b6003600260003373ffffffffffffffffffffffffffffffffffffffff1673ffffffffffffffffffffffffffffffffffffffff1681526020019081526020016000206000015481600581111561095157610950614adb565b5b14610991576040517f08c379a000000000000000000000000000000000000000000000000000000000815260040161098890614832565b60405180910390fd5b811561099c5761099d565b5b505050565b600560009054906101000a900473ffffffffffffffffffffffffffffffffffffffff1673ffffffffffffffffffffffffffffffffffffffff163373ffffffffffffffffffffffffffffffffffffffff1614610a32576040517f08c379a0000000000000000000000000000000000000000000000000000000008152600401610a2990614872565b60405180910390fd5b6000600580811115610a4757610a46614adb565b5b9050610a64604051806020016040528060008152508483856137c3565b505050565b610b4c600260003373ffffffffffffffffffffffffffffffffffffffff1673ffffffffffffffffffffffffffffffffffffffff1681526020019081526020016000206001018054610ab990614a78565b80601f0160208091040260200160405190810160405280929190818152602001828054610ae590614a78565b8015610b325780601f10610b0757610100808354040283529160200191610b32565b820191906000526020600020905b815481529060010190602001808311610b1557829003601f168201915b505050505060405180602001604052806000815250613ac7565b15610b8c576040517f08c379a0000000000000000000000000000000000000000000000000000000008152600401610b8390614852565b60405180910390fd5b60608060006040518060c001604052803373ffffffffffffffffffffffffffffffffffffffff1681526020018873ffffffffffffffffffffffffffffffffffffffff168152602001878152602001848152602001838152602001858152509050600e60008873ffffffffffffffffffffffffffffffffffffffff1673ffffffffffffffffffffffffffffffffffffffff16815260200190815260200160002085908060018154018082558091505060019003906000526020600020016000909190919091509080519060200190610c64929190613b20565b50600260003373ffffffffffffffffffffffffffffffffffffffff1673ffffffffffffffffffffffffffffffffffffffff16815260200190815260200160002060030185908060018154018082558091505060019003906000526020600020016000909190919091509080519060200190610ce0929190613b20565b5080600f86604051610cf291906145ad565b908152602001604051809103902060008201518160000160006101000a81548173ffffffffffffffffffffffffffffffffffffffff021916908373ffffffffffffffffffffffffffffffffffffffff16021790555060208201518160010160006101000a81548173ffffffffffffffffffffffffffffffffffffffff021916908373ffffffffffffffffffffffffffffffffffffffff1602179055506040820151816002019080519060200190610daa929190613b20565b506060820151816003019080519060200190610dc7929190613ba6565b506080820151816004019080519060200190610de4929190613ba6565b5060a0820151816005015590505050505050505050565b6000806060600080600080600f88604051610e1691906145ad565b90815260200160405180910390206040518060c00160405290816000820160009054906101000a900473ffffffffffffffffffffffffffffffffffffffff1673ffffffffffffffffffffffffffffffffffffffff1673ffffffffffffffffffffffffffffffffffffffff1681526020016001820160009054906101000a900473ffffffffffffffffffffffffffffffffffffffff1673ffffffffffffffffffffffffffffffffffffffff1673ffffffffffffffffffffffffffffffffffffffff168152602001600282018054610eeb90614a78565b80601f0160208091040260200160405190810160405280929190818152602001828054610f1790614a78565b8015610f645780601f10610f3957610100808354040283529160200191610f64565b820191906000526020600020905b815481529060010190602001808311610f4757829003601f168201915b5050505050815260200160038201805480602002602001604051908101604052809291908181526020018280548015610ff257602002820191906000526020600020905b8160009054906101000a900473ffffffffffffffffffffffffffffffffffffffff1673ffffffffffffffffffffffffffffffffffffffff1681526020019060010190808311610fa8575b505050505081526020016004820180548060200260200160405190810160405280929190818152602001828054801561108057602002820191906000526020600020905b8160009054906101000a900473ffffffffffffffffffffffffffffffffffffffff1673ffffffffffffffffffffffffffffffffffffffff1681526020019060010190808311611036575b505050505081526020016005820154815250509050806000015196508060200151955080604001519450806060015151935080608001515192508060a0015191505091939550919395565b6000606082600073ffffffffffffffffffffffffffffffffffffffff166001826040516110f891906145ad565b908152602001604051809103902060009054906101000a900473ffffffffffffffffffffffffffffffffffffffff1673ffffffffffffffffffffffffffffffffffffffff16141561117e576040517f08c379a0000000000000000000000000000000000000000000000000000000008152600401611175906148b2565b60405180910390fd5b600060018560405161119091906145ad565b908152602001604051809103902060009054906101000a900473ffffffffffffffffffffffffffffffffffffffff1690506000600260008373ffffffffffffffffffffffffffffffffffffffff1673ffffffffffffffffffffffffffffffffffffffff1681526020019081526020016000206040518060800160405290816000820154815260200160018201805461122790614a78565b80601f016020809104026020016040519081016040528092919081815260200182805461125390614a78565b80156112a05780601f10611275576101008083540402835291602001916112a0565b820191906000526020600020905b81548152906001019060200180831161128357829003601f168201915b505050505081526020016002820180546112b990614a78565b80601f01602080910402602001604051908101604052809291908181526020018280546112e590614a78565b80156113325780601f1061130757610100808354040283529160200191611332565b820191906000526020600020905b81548152906001019060200180831161131557829003601f168201915b5050505050815260200160038201805480602002602001604051908101604052809291908181526020016000905b8282101561140c57838290600052602060002001805461137f90614a78565b80601f01602080910402602001604051908101604052809291908181526020018280546113ab90614a78565b80156113f85780601f106113cd576101008083540402835291602001916113f8565b820191906000526020600020905b8154815290600101906020018083116113db57829003601f168201915b505050505081526020019060010190611360565b5050505081525050905081945060008082600001518152602001908152602001600020805461143a90614a78565b80601f016020809104026020016040519081016040528092919081815260200182805461146690614a78565b80156114b35780601f10611488576101008083540402835291602001916114b3565b820191906000526020600020905b81548152906001019060200180831161149657829003601f168201915b50505050509350505050915091565b60608060608060606001600260003373ffffffffffffffffffffffffffffffffffffffff1673ffffffffffffffffffffffffffffffffffffffff1681526020019081526020016000206000015481600581111561152257611521614adb565b5b14611562576040517f08c379a000000000000000000000000000000000000000000000000000000000815260040161155990614832565b60405180910390fd5b6000600260003373ffffffffffffffffffffffffffffffffffffffff1673ffffffffffffffffffffffffffffffffffffffff168152602001908152602001600020604051806080016040529081600082015481526020016001820180546115c890614a78565b80601f01602080910402602001604051908101604052809291908181526020018280546115f490614a78565b80156116415780601f1061161657610100808354040283529160200191611641565b820191906000526020600020905b81548152906001019060200180831161162457829003601f168201915b5050505050815260200160028201805461165a90614a78565b80601f016020809104026020016040519081016040528092919081815260200182805461168690614a78565b80156116d35780601f106116a8576101008083540402835291602001916116d3565b820191906000526020600020905b8154815290600101906020018083116116b657829003601f168201915b5050505050815260200160038201805480602002602001604051908101604052809291908181526020016000905b828210156117ad57838290600052602060002001805461172090614a78565b80601f016020809104026020016040519081016040528092919081815260200182805461174c90614a78565b80156117995780601f1061176e57610100808354040283529160200191611799565b820191906000526020600020905b81548152906001019060200180831161177c57829003601f168201915b505050505081526020019060010190611701565b505050508152505090506000600c60003373ffffffffffffffffffffffffffffffffffffffff1673ffffffffffffffffffffffffffffffffffffffff16815260200190815260200160002060009054906101000a900473ffffffffffffffffffffffffffffffffffffffff1690506000600b60008373ffffffffffffffffffffffffffffffffffffffff1673ffffffffffffffffffffffffffffffffffffffff16815260200190815260200160002060405180606001604052908160008201805461187790614a78565b80601f01602080910402602001604051908101604052809291908181526020018280546118a390614a78565b80156118f05780601f106118c5576101008083540402835291602001916118f0565b820191906000526020600020905b8154815290600101906020018083116118d357829003601f168201915b5050505050815260200160018201805461190990614a78565b80601f016020809104026020016040519081016040528092919081815260200182805461193590614a78565b80156119825780601f1061195757610100808354040283529160200191611982565b820191906000526020600020905b81548152906001019060200180831161196557829003601f168201915b5050505050815260200160028201548152505090508260200151985082604001519750806020015196508060000151955082606001519450505050509091929394565b6003600260003373ffffffffffffffffffffffffffffffffffffffff1673ffffffffffffffffffffffffffffffffffffffff16815260200190815260200160002060000154816005811115611a1d57611a1c614adb565b5b14611a5d576040517f08c379a0000000000000000000000000000000000000000000000000000000008152600401611a5490614832565b60405180910390fd5b600060405180606001604052808681526020018581526020016000815250905080600b60008873ffffffffffffffffffffffffffffffffffffffff1673ffffffffffffffffffffffffffffffffffffffff1681526020019081526020016000206000820151816000019080519060200190611ad9929190613b20565b506020820151816001019080519060200190611af6929190613b20565b5060408201518160020155905050600060026005811115611b1a57611b19614adb565b5b9050611b376040518060200160405280600081525085838a6137c3565b50505050505050565b611c23600260003373ffffffffffffffffffffffffffffffffffffffff1673ffffffffffffffffffffffffffffffffffffffff1681526020019081526020016000206001018054611b9090614a78565b80601f0160208091040260200160405190810160405280929190818152602001828054611bbc90614a78565b8015611c095780601f10611bde57610100808354040283529160200191611c09565b820191906000526020600020905b815481529060010190602001808311611bec57829003601f168201915b505050505060405180602001604052806000815250613ac7565b15611c63576040517f08c379a0000000000000000000000000000000000000000000000000000000008152600401611c5a90614852565b60405180910390fd5b60001515601182604051611c7791906145ad565b908152602001604051809103902060003373ffffffffffffffffffffffffffffffffffffffff1673ffffffffffffffffffffffffffffffffffffffff16815260200190815260200160002060009054906101000a900460ff16151514611d12576040517f08c379a0000000000000000000000000000000000000000000000000000000008152600401611d09906147d2565b60405180910390fd5b600f81604051611d2291906145ad565b9081526020016040518091039020600301339080600181540180825580915050600190039060005260206000200160009091909190916101000a81548173ffffffffffffffffffffffffffffffffffffffff021916908373ffffffffffffffffffffffffffffffffffffffff1602179055506001601182604051611da691906145ad565b908152602001604051809103902060003373ffffffffffffffffffffffffffffffffffffffff1673ffffffffffffffffffffffffffffffffffffffff16815260200190815260200160002060006101000a81548160ff02191690831515021790555050565b600560009054906101000a900473ffffffffffffffffffffffffffffffffffffffff1673ffffffffffffffffffffffffffffffffffffffff163373ffffffffffffffffffffffffffffffffffffffff1614611e9b576040517f08c379a0000000000000000000000000000000000000000000000000000000008152600401611e9290614872565b60405180910390fd5b600060046005811115611eb157611eb0614adb565b5b9050611ece604051806020016040528060008152508483856137c3565b81600460006101000a81548173ffffffffffffffffffffffffffffffffffffffff021916908373ffffffffffffffffffffffffffffffffffffffff160217905550505050565b6005600260003373ffffffffffffffffffffffffffffffffffffffff1673ffffffffffffffffffffffffffffffffffffffff16815260200190815260200160002060000154816005811115611f6c57611f6b614adb565b5b14611fac576040517f08c379a0000000000000000000000000000000000000000000000000000000008152600401611fa390614832565b60405180910390fd5b683635c9adc5dea000003373ffffffffffffffffffffffffffffffffffffffff1631101561200f576040517f08c379a000000000000000000000000000000000000000000000000000000000815260040161200690614812565b60405180910390fd5b8173ffffffffffffffffffffffffffffffffffffffff166108fc683635c9adc5dea000009081150290604051600060405180830381858888f1935050505015801561205e573d6000803e3d6000fd5b505050565b60006001600581111561207957612078614adb565b5b9050612087858583866137c3565b6008839080600181540180825580915050600190039060005260206000200160009091909190916101000a81548173ffffffffffffffffffffffffffffffffffffffff021916908373ffffffffffffffffffffffffffffffffffffffff160217905550600d60008373ffffffffffffffffffffffffffffffffffffffff1673ffffffffffffffffffffffffffffffffffffffff168152602001908152602001600020839080600181540180825580915050600190039060005260206000200160009091909190916101000a81548173ffffffffffffffffffffffffffffffffffffffff021916908373ffffffffffffffffffffffffffffffffffffffff1602179055505050505050565b6060806000606061227b600260003373ffffffffffffffffffffffffffffffffffffffff1673ffffffffffffffffffffffffffffffffffffffff16815260200190815260200160002060010180546121e890614a78565b80601f016020809104026020016040519081016040528092919081815260200182805461221490614a78565b80156122615780601f1061223657610100808354040283529160200191612261565b820191906000526020600020905b81548152906001019060200180831161224457829003601f168201915b505050505060405180602001604052806000815250613ac7565b156122bb576040517f08c379a00000000000000000000000000000000000000000000000000000000081526004016122b290614852565b60405180910390fd5b6000600260003373ffffffffffffffffffffffffffffffffffffffff1673ffffffffffffffffffffffffffffffffffffffff1681526020019081526020016000206040518060800160405290816000820154815260200160018201805461232190614a78565b80601f016020809104026020016040519081016040528092919081815260200182805461234d90614a78565b801561239a5780601f1061236f5761010080835404028352916020019161239a565b820191906000526020600020905b81548152906001019060200180831161237d57829003601f168201915b505050505081526020016002820180546123b390614a78565b80601f01602080910402602001604051908101604052809291908181526020018280546123df90614a78565b801561242c5780601f106124015761010080835404028352916020019161242c565b820191906000526020600020905b81548152906001019060200180831161240f57829003601f168201915b5050505050815260200160038201805480602002602001604051908101604052809291908181526020016000905b8282101561250657838290600052602060002001805461247990614a78565b80601f01602080910402602001604051908101604052809291908181526020018280546124a590614a78565b80156124f25780601f106124c7576101008083540402835291602001916124f2565b820191906000526020600020905b8154815290600101906020018083116124d557829003601f168201915b50505050508152602001906001019061245a565b5050505081525050905080602001519450806040015193503373ffffffffffffffffffffffffffffffffffffffff16319250806060015191505090919293565b600080600581111561255b5761255a614adb565b5b9050612569848483856137c3565b50505050565b6003600260003373ffffffffffffffffffffffffffffffffffffffff1673ffffffffffffffffffffffffffffffffffffffff168152602001908152602001600020600001548160058111156125c7576125c6614adb565b5b14612607576040517f08c379a00000000000000000000000000000000000000000000000000000000081526004016125fe90614832565b60405180910390fd5b60006003600581111561261d5761261c614adb565b5b905061262b848483886137c3565b600683908060018154018082558091505060019003906000526020600020016000909190919091509080519060200190612666929190613b20565b505050505050565b6000600260003373ffffffffffffffffffffffffffffffffffffffff1673ffffffffffffffffffffffffffffffffffffffff168152602001908152602001600020600001548160058111156126c6576126c5614adb565b5b14612706576040517f08c379a00000000000000000000000000000000000000000000000000000000081526004016126fd90614832565b60405180910390fd5b600080600080600581111561271e5761271d614adb565b5b8152602001908152602001600020805461273790614a78565b80601f016020809104026020016040519081016040528092919081815260200182805461276390614a78565b80156127b05780601f10612785576101008083540402835291602001916127b0565b820191906000526020600020905b81548152906001019060200180831161279357829003601f168201915b505050505090506000806000600160058111156127d0576127cf614adb565b5b815260200190815260200160002080546127e990614a78565b80601f016020809104026020016040519081016040528092919081815260200182805461281590614a78565b80156128625780601f1061283757610100808354040283529160200191612862565b820191906000526020600020905b81548152906001019060200180831161284557829003601f168201915b50505050509050600060405180608001604052803373ffffffffffffffffffffffffffffffffffffffff168152602001848152602001838152602001600015158152509050806010866040516128b891906145ad565b908152602001604051809103902060008201518160000160006101000a81548173ffffffffffffffffffffffffffffffffffffffff021916908373ffffffffffffffffffffffffffffffffffffffff1602179055506020820151816001019080519060200190612929929190613b20565b506040820151816002019080519060200190612946929190613b20565b5060608201518160030160006101000a81548160ff021916908315150217905550905050600a859080600181540180825580915050600190039060005260206000200160009091909190915090805190602001906129a5929190613b20565b505050505050565b6001600260003373ffffffffffffffffffffffffffffffffffffffff1673ffffffffffffffffffffffffffffffffffffffff16815260200190815260200160002060000154816005811115612a0557612a04614adb565b5b14612a45576040517f08c379a0000000000000000000000000000000000000000000000000000000008152600401612a3c90614832565b60405180910390fd5b6000806000806005811115612a5d57612a5c614adb565b5b81526020019081526020016000208054612a7690614a78565b80601f0160208091040260200160405190810160405280929190818152602001828054612aa290614a78565b8015612aef5780601f10612ac457610100808354040283529160200191612aef565b820191906000526020600020905b815481529060010190602001808311612ad257829003601f168201915b50505050509050600080600060016005811115612b0f57612b0e614adb565b5b81526020019081526020016000208054612b2890614a78565b80601f0160208091040260200160405190810160405280929190818152602001828054612b5490614a78565b8015612ba15780601f10612b7657610100808354040283529160200191612ba1565b820191906000526020600020905b815481529060010190602001808311612b8457829003601f168201915b50505050509050600060405180608001604052803373ffffffffffffffffffffffffffffffffffffffff16815260200183815260200184815260200160001515815250905080601086604051612bf791906145ad565b908152602001604051809103902060008201518160000160006101000a81548173ffffffffffffffffffffffffffffffffffffffff021916908373ffffffffffffffffffffffffffffffffffffffff1602179055506020820151816001019080519060200190612c68929190613b20565b506040820151816002019080519060200190612c85929190613b20565b5060608201518160030160006101000a81548160ff021916908315150217905550905050600a85908060018154018082558091505060019003906000526020600020016000909190919091509080519060200190612ce4929190613b20565b505050505050565b612dcf600260003373ffffffffffffffffffffffffffffffffffffffff1673ffffffffffffffffffffffffffffffffffffffff1681526020019081526020016000206001018054612d3c90614a78565b80601f0160208091040260200160405190810160405280929190818152602001828054612d6890614a78565b8015612db55780601f10612d8a57610100808354040283529160200191612db5565b820191906000526020600020905b815481529060010190602001808311612d9857829003601f168201915b505050505060405180602001604052806000815250613ac7565b15612e0f576040517f08c379a0000000000000000000000000000000000000000000000000000000008152600401612e0690614852565b60405180910390fd5b60001515601182604051612e2391906145ad565b908152602001604051809103902060003373ffffffffffffffffffffffffffffffffffffffff1673ffffffffffffffffffffffffffffffffffffffff16815260200190815260200160002060009054906101000a900460ff16151514612ebe576040517f08c379a0000000000000000000000000000000000000000000000000000000008152600401612eb5906147d2565b60405180910390fd5b600f81604051612ece91906145ad565b9081526020016040518091039020600401339080600181540180825580915050600190039060005260206000200160009091909190916101000a81548173ffffffffffffffffffffffffffffffffffffffff021916908373ffffffffffffffffffffffffffffffffffffffff1602179055506001601182604051612f5291906145ad565b908152602001604051809103902060003373ffffffffffffffffffffffffffffffffffffffff1673ffffffffffffffffffffffffffffffffffffffff16815260200190815260200160002060006101000a81548160ff02191690831515021790555050565b6060806060806003600260003373ffffffffffffffffffffffffffffffffffffffff1673ffffffffffffffffffffffffffffffffffffffff1681526020019081526020016000206000015481600581111561301557613014614adb565b5b14613055576040517f08c379a000000000000000000000000000000000000000000000000000000000815260040161304c90614832565b60405180910390fd5b6000600260003373ffffffffffffffffffffffffffffffffffffffff1673ffffffffffffffffffffffffffffffffffffffff168152602001908152602001600020604051806080016040529081600082015481526020016001820180546130bb90614a78565b80601f01602080910402602001604051908101604052809291908181526020018280546130e790614a78565b80156131345780601f1061310957610100808354040283529160200191613134565b820191906000526020600020905b81548152906001019060200180831161311757829003601f168201915b5050505050815260200160028201805461314d90614a78565b80601f016020809104026020016040519081016040528092919081815260200182805461317990614a78565b80156131c65780601f1061319b576101008083540402835291602001916131c6565b820191906000526020600020905b8154815290600101906020018083116131a957829003601f168201915b5050505050815260200160038201805480602002602001604051908101604052809291908181526020016000905b828210156132a057838290600052602060002001805461321390614a78565b80601f016020809104026020016040519081016040528092919081815260200182805461323f90614a78565b801561328c5780601f106132615761010080835404028352916020019161328c565b820191906000526020600020905b81548152906001019060200180831161326f57829003601f168201915b5050505050815260200190600101906131f4565b5050505081525050905080602001519550600a805480602002602001604051908101604052809291908181526020016000905b8282101561337f5783829060005260206000200180546132f290614a78565b80601f016020809104026020016040519081016040528092919081815260200182805461331e90614a78565b801561336b5780601f106133405761010080835404028352916020019161336b565b820191906000526020600020905b81548152906001019060200180831161334e57829003601f168201915b5050505050815260200190600101906132d3565b5050505094506006805480602002602001604051908101604052809291908181526020016000905b828210156134535783829060005260206000200180546133c690614a78565b80601f01602080910402602001604051908101604052809291908181526020018280546133f290614a78565b801561343f5780601f106134145761010080835404028352916020019161343f565b820191906000526020600020905b81548152906001019060200180831161342257829003601f168201915b5050505050815260200190600101906133a7565b50505050935060088054806020026020016040519081016040528092919081815260200182805480156134db57602002820191906000526020600020905b8160009054906101000a900473ffffffffffffffffffffffffffffffffffffffff1673ffffffffffffffffffffffffffffffffffffffff1681526020019060010190808311613491575b50505050509250505090919293565b6000606080600060108560405161350191906145ad565b90815260200160405180910390206040518060800160405290816000820160009054906101000a900473ffffffffffffffffffffffffffffffffffffffff1673ffffffffffffffffffffffffffffffffffffffff1673ffffffffffffffffffffffffffffffffffffffff16815260200160018201805461358090614a78565b80601f01602080910402602001604051908101604052809291908181526020018280546135ac90614a78565b80156135f95780601f106135ce576101008083540402835291602001916135f9565b820191906000526020600020905b8154815290600101906020018083116135dc57829003601f168201915b5050505050815260200160028201805461361290614a78565b80601f016020809104026020016040519081016040528092919081815260200182805461363e90614a78565b801561368b5780601f106136605761010080835404028352916020019161368b565b820191906000526020600020905b81548152906001019060200180831161366e57829003601f168201915b505050505081526020016003820160009054906101000a900460ff1615151515815250509050806000015193508060200151925080604001519150509193909250565b600560009054906101000a900473ffffffffffffffffffffffffffffffffffffffff1673ffffffffffffffffffffffffffffffffffffffff163373ffffffffffffffffffffffffffffffffffffffff161461375e576040517f08c379a000000000000000000000000000000000000000000000000000000000815260040161375590614872565b60405180910390fd5b60006003600581111561377457613773614adb565b5b9050613782838383336137c3565b6006829080600181540180825580915050600190039060005260206000200160009091909190915090805190602001906137bd929190613b20565b50505050565b80836138a8600260008473ffffffffffffffffffffffffffffffffffffffff1673ffffffffffffffffffffffffffffffffffffffff168152602001908152602001600020600201805461381590614a78565b80601f016020809104026020016040519081016040528092919081815260200182805461384190614a78565b801561388e5780601f106138635761010080835404028352916020019161388e565b820191906000526020600020905b81548152906001019060200180831161387157829003601f168201915b505050505060405180602001604052806000815250613ac7565b156138e8576040517f08c379a00000000000000000000000000000000000000000000000000000000081526004016138df90614892565b60405180910390fd5b600073ffffffffffffffffffffffffffffffffffffffff1660018260405161391091906145ad565b908152602001604051809103902060009054906101000a900473ffffffffffffffffffffffffffffffffffffffff1673ffffffffffffffffffffffffffffffffffffffff1614613995576040517f08c379a000000000000000000000000000000000000000000000000000000000815260040161398c906147f2565b60405180910390fd5b606060006040518060800160405280878152602001888152602001898152602001838152509050846001886040516139cd91906145ad565b908152602001604051809103902060006101000a81548173ffffffffffffffffffffffffffffffffffffffff021916908373ffffffffffffffffffffffffffffffffffffffff16021790555080600260008773ffffffffffffffffffffffffffffffffffffffff1673ffffffffffffffffffffffffffffffffffffffff168152602001908152602001600020600082015181600001556020820151816001019080519060200190613a7f929190613b20565b506040820151816002019080519060200190613a9c929190613b20565b506060820151816003019080519060200190613ab9929190613c30565b509050505050505050505050565b600081604051602001613ada91906145ad565b6040516020818303038152906040528051906020012083604051602001613b0191906145ad565b6040516020818303038152906040528051906020012014905092915050565b828054613b2c90614a78565b90600052602060002090601f016020900481019282613b4e5760008555613b95565b82601f10613b6757805160ff1916838001178555613b95565b82800160010185558215613b95579182015b82811115613b94578251825591602001919060010190613b79565b5b509050613ba29190613c90565b5090565b828054828255906000526020600020908101928215613c1f579160200282015b82811115613c1e5782518260006101000a81548173ffffffffffffffffffffffffffffffffffffffff021916908373ffffffffffffffffffffffffffffffffffffffff16021790555091602001919060010190613bc6565b5b509050613c2c9190613c90565b5090565b828054828255906000526020600020908101928215613c7f579160200282015b82811115613c7e578251829080519060200190613c6e929190613b20565b5091602001919060010190613c50565b5b509050613c8c9190613cad565b5090565b5b80821115613ca9576000816000905550600101613c91565b5090565b5b80821115613ccd5760008181613cc49190613cd1565b50600101613cae565b5090565b508054613cdd90614a78565b6000825580601f10613cef5750613d0e565b601f016020900490600052602060002090810190613d0d9190613c90565b5b50565b6000613d24613d1f846148f7565b6148d2565b905082815260208101848484011115613d4057613d3f614b6d565b5b613d4b848285614a36565b509392505050565b600081359050613d6281614cfb565b92915050565b600081359050613d7781614d12565b92915050565b600081359050613d8c81614d29565b92915050565b600081359050613da181614d40565b92915050565b600082601f830112613dbc57613dbb614b68565b5b8135613dcc848260208601613d11565b91505092915050565b600060208284031215613deb57613dea614b77565b5b6000613df984828501613d53565b91505092915050565b600060208284031215613e1857613e17614b77565b5b6000613e2684828501613d68565b91505092915050565b600080600060608486031215613e4857613e47614b77565b5b6000613e5686828701613d53565b935050602084013567ffffffffffffffff811115613e7757613e76614b72565b5b613e8386828701613da7565b925050604084013567ffffffffffffffff811115613ea457613ea3614b72565b5b613eb086828701613da7565b9150509250925092565b60008060008060808587031215613ed457613ed3614b77565b5b6000613ee287828801613d53565b945050602085013567ffffffffffffffff811115613f0357613f02614b72565b5b613f0f87828801613da7565b935050604085013567ffffffffffffffff811115613f3057613f2f614b72565b5b613f3c87828801613da7565b9250506060613f4d87828801613d92565b91505092959194509250565b60008060008060808587031215613f7357613f72614b77565b5b6000613f8187828801613d53565b945050602085013567ffffffffffffffff811115613fa257613fa1614b72565b5b613fae87828801613da7565b935050604085013567ffffffffffffffff811115613fcf57613fce614b72565b5b613fdb87828801613da7565b925050606085013567ffffffffffffffff811115613ffc57613ffb614b72565b5b61400887828801613da7565b91505092959194509250565b60006020828403121561402a57614029614b77565b5b600082013567ffffffffffffffff81111561404857614047614b72565b5b61405484828501613da7565b91505092915050565b6000806040838503121561407457614073614b77565b5b600083013567ffffffffffffffff81111561409257614091614b72565b5b61409e85828601613da7565b92505060206140af85828601613d53565b9150509250929050565b600080604083850312156140d0576140cf614b77565b5b600083013567ffffffffffffffff8111156140ee576140ed614b72565b5b6140fa85828601613da7565b925050602061410b85828601613d7d565b9150509250929050565b6000806040838503121561412c5761412b614b77565b5b600083013567ffffffffffffffff81111561414a57614149614b72565b5b61415685828601613da7565b925050602083013567ffffffffffffffff81111561417757614176614b72565b5b61418385828601613da7565b9150509250929050565b6000806000606084860312156141a6576141a5614b77565b5b600084013567ffffffffffffffff8111156141c4576141c3614b72565b5b6141d086828701613da7565b935050602084013567ffffffffffffffff8111156141f1576141f0614b72565b5b6141fd86828701613da7565b925050604061420e86828701613d53565b9150509250925092565b6000806000806080858703121561423257614231614b77565b5b600085013567ffffffffffffffff8111156142505761424f614b72565b5b61425c87828801613da7565b945050602085013567ffffffffffffffff81111561427d5761427c614b72565b5b61428987828801613da7565b935050604061429a87828801613d53565b92505060606142ab87828801613d53565b91505092959194509250565b60006142c383836142e3565b60208301905092915050565b60006142db83836143e3565b905092915050565b6142ec816149d2565b82525050565b6142fb816149d2565b82525050565b600061430c82614948565b6143168185614983565b935061432183614928565b8060005b8381101561435257815161433988826142b7565b975061434483614969565b925050600181019050614325565b5085935050505092915050565b600061436a82614953565b6143748185614994565b93508360208202850161438685614938565b8060005b858110156143c257848403895281516143a385826142cf565b94506143ae83614976565b925060208a0199505060018101905061438a565b50829750879550505050505092915050565b6143dd81614a02565b82525050565b60006143ee8261495e565b6143f881856149a5565b9350614408818560208601614a45565b61441181614b7c565b840191505092915050565b60006144278261495e565b61443181856149b6565b9350614441818560208601614a45565b61444a81614b7c565b840191505092915050565b60006144608261495e565b61446a81856149c7565b935061447a818560208601614a45565b80840191505092915050565b6000614493601b836149b6565b915061449e82614b8d565b602082019050919050565b60006144b66022836149b6565b91506144c182614bb6565b604082019050919050565b60006144d9600b836149b6565b91506144e482614c05565b602082019050919050565b60006144fc6009836149b6565b915061450782614c2e565b602082019050919050565b600061451f600c836149b6565b915061452a82614c57565b602082019050919050565b6000614542600d836149b6565b915061454d82614c80565b602082019050919050565b60006145656016836149b6565b915061457082614ca9565b602082019050919050565b6000614588600b836149b6565b915061459382614cd2565b602082019050919050565b6145a781614a2c565b82525050565b60006145b98284614455565b915081905092915050565b600060c0820190506145d960008301896142f2565b6145e660208301886142f2565b81810360408301526145f8818761441c565b9050614607606083018661459e565b614614608083018561459e565b61462160a08301846143d4565b979650505050505050565b600060408201905061464160008301856142f2565b8181036020830152614653818461441c565b90509392505050565b600060608201905061467160008301866142f2565b8181036020830152614683818561441c565b90508181036040830152614697818461441c565b9050949350505050565b600060808201905081810360008301526146bb818761441c565b905081810360208301526146cf818661435f565b905081810360408301526146e3818561435f565b905081810360608301526146f78184614301565b905095945050505050565b600060a082019050818103600083015261471c818861441c565b90508181036020830152614730818761441c565b90508181036040830152614744818661441c565b90508181036060830152614758818561441c565b9050818103608083015261476c818461435f565b90509695505050505050565b60006080820190508181036000830152614792818761441c565b905081810360208301526147a6818661441c565b90506147b5604083018561459e565b81810360608301526147c7818461435f565b905095945050505050565b600060208201905081810360008301526147eb81614486565b9050919050565b6000602082019050818103600083015261480b816144a9565b9050919050565b6000602082019050818103600083015261482b816144cc565b9050919050565b6000602082019050818103600083015261484b816144ef565b9050919050565b6000602082019050818103600083015261486b81614512565b9050919050565b6000602082019050818103600083015261488b81614535565b9050919050565b600060208201905081810360008301526148ab81614558565b9050919050565b600060208201905081810360008301526148cb8161457b565b9050919050565b60006148dc6148ed565b90506148e88282614aaa565b919050565b6000604051905090565b600067ffffffffffffffff82111561491257614911614b39565b5b61491b82614b7c565b9050602081019050919050565b6000819050602082019050919050565b6000819050602082019050919050565b600081519050919050565b600081519050919050565b600081519050919050565b6000602082019050919050565b6000602082019050919050565b600082825260208201905092915050565b600082825260208201905092915050565b600082825260208201905092915050565b600082825260208201905092915050565b600081905092915050565b60006149dd82614a0c565b9050919050565b60006149ef82614a0c565b9050919050565b60008115159050919050565b6000819050919050565b600073ffffffffffffffffffffffffffffffffffffffff82169050919050565b6000819050919050565b82818337600083830152505050565b60005b83811015614a63578082015181840152602081019050614a48565b83811115614a72576000848401525b50505050565b60006002820490506001821680614a9057607f821691505b60208210811415614aa457614aa3614b0a565b5b50919050565b614ab382614b7c565b810181811067ffffffffffffffff82111715614ad257614ad1614b39565b5b80604052505050565b7f4e487b7100000000000000000000000000000000000000000000000000000000600052602160045260246000fd5b7f4e487b7100000000000000000000000000000000000000000000000000000000600052602260045260246000fd5b7f4e487b7100000000000000000000000000000000000000000000000000000000600052604160045260246000fd5b600080fd5b600080fd5b600080fd5b600080fd5b6000601f19601f8301169050919050565b7f596f7520616c726561647920636865636b207468697320636173650000000000600082015250565b7f596f7572206c6f67696e20616c726561647920657869737420696e207379737460008201527f656d000000000000000000000000000000000000000000000000000000000000602082015250565b7f4c6f772062616c616e6365000000000000000000000000000000000000000000600082015250565b7f466f7262696464656e0000000000000000000000000000000000000000000000600082015250565b7f596f75206e6f7420757365720000000000000000000000000000000000000000600082015250565b7f596f75206e6f742061646d696e00000000000000000000000000000000000000600082015250565b7f596f7520616c7265616479207265676973746572656400000000000000000000600082015250565b7f57726f6e67204c6f67696e000000000000000000000000000000000000000000600082015250565b614d04816149d2565b8114614d0f57600080fd5b50565b614d1b816149e4565b8114614d2657600080fd5b50565b614d32816149f6565b8114614d3d57600080fd5b50565b614d4981614a02565b8114614d5457600080fd5b5056fea2646970667358221220bfe2cae7eca33fc7e3eef3770a46bae708c34d48a478a94004b1c86666c1e01e64736f6c63430008070033",
					"opcodes": "PUSH1 0x80 PUSH1 0x40 MSTORE CALLVALUE DUP1 ISZERO PUSH3 0x11 JUMPI PUSH1 0x0 DUP1 REVERT JUMPDEST POP PUSH1 0x40 MLOAD DUP1 PUSH1 0x40 ADD PUSH1 0x40 MSTORE DUP1 PUSH1 0x5 DUP2 MSTORE PUSH1 0x20 ADD PUSH32 0x6275796572000000000000000000000000000000000000000000000000000000 DUP2 MSTORE POP PUSH1 0x0 DUP1 DUP1 DUP2 MSTORE PUSH1 0x20 ADD SWAP1 DUP2 MSTORE PUSH1 0x20 ADD PUSH1 0x0 KECCAK256 SWAP1 DUP1 MLOAD SWAP1 PUSH1 0x20 ADD SWAP1 PUSH3 0x6F SWAP3 SWAP2 SWAP1 PUSH3 0x292 JUMP JUMPDEST POP PUSH1 0x40 MLOAD DUP1 PUSH1 0x40 ADD PUSH1 0x40 MSTORE DUP1 PUSH1 0x6 DUP2 MSTORE PUSH1 0x20 ADD PUSH32 0x73656C6C65720000000000000000000000000000000000000000000000000000 DUP2 MSTORE POP PUSH1 0x0 DUP1 PUSH1 0x1 DUP2 MSTORE PUSH1 0x20 ADD SWAP1 DUP2 MSTORE PUSH1 0x20 ADD PUSH1 0x0 KECCAK256 SWAP1 DUP1 MLOAD SWAP1 PUSH1 0x20 ADD SWAP1 PUSH3 0xCE SWAP3 SWAP2 SWAP1 PUSH3 0x292 JUMP JUMPDEST POP PUSH1 0x40 MLOAD DUP1 PUSH1 0x40 ADD PUSH1 0x40 MSTORE DUP1 PUSH1 0x4 DUP2 MSTORE PUSH1 0x20 ADD PUSH32 0x73686F7000000000000000000000000000000000000000000000000000000000 DUP2 MSTORE POP PUSH1 0x0 DUP1 PUSH1 0x2 DUP2 MSTORE PUSH1 0x20 ADD SWAP1 DUP2 MSTORE PUSH1 0x20 ADD PUSH1 0x0 KECCAK256 SWAP1 DUP1 MLOAD SWAP1 PUSH1 0x20 ADD SWAP1 PUSH3 0x12D SWAP3 SWAP2 SWAP1 PUSH3 0x292 JUMP JUMPDEST POP PUSH1 0x40 MLOAD DUP1 PUSH1 0x40 ADD PUSH1 0x40 MSTORE DUP1 PUSH1 0x5 DUP2 MSTORE PUSH1 0x20 ADD PUSH32 0x61646D696E000000000000000000000000000000000000000000000000000000 DUP2 MSTORE POP PUSH1 0x0 DUP1 PUSH1 0x3 DUP2 MSTORE PUSH1 0x20 ADD SWAP1 DUP2 MSTORE PUSH1 0x20 ADD PUSH1 0x0 KECCAK256 SWAP1 DUP1 MLOAD SWAP1 PUSH1 0x20 ADD SWAP1 PUSH3 0x18C SWAP3 SWAP2 SWAP1 PUSH3 0x292 JUMP JUMPDEST POP PUSH1 0x40 MLOAD DUP1 PUSH1 0x40 ADD PUSH1 0x40 MSTORE DUP1 PUSH1 0x8 DUP2 MSTORE PUSH1 0x20 ADD PUSH32 0x70726F7669646572000000000000000000000000000000000000000000000000 DUP2 MSTORE POP PUSH1 0x0 DUP1 PUSH1 0x4 DUP2 MSTORE PUSH1 0x20 ADD SWAP1 DUP2 MSTORE PUSH1 0x20 ADD PUSH1 0x0 KECCAK256 SWAP1 DUP1 MLOAD SWAP1 PUSH1 0x20 ADD SWAP1 PUSH3 0x1EB SWAP3 SWAP2 SWAP1 PUSH3 0x292 JUMP JUMPDEST POP PUSH1 0x40 MLOAD DUP1 PUSH1 0x40 ADD PUSH1 0x40 MSTORE DUP1 PUSH1 0x4 DUP2 MSTORE PUSH1 0x20 ADD PUSH32 0x62616E6B00000000000000000000000000000000000000000000000000000000 DUP2 MSTORE POP PUSH1 0x0 DUP1 PUSH1 0x5 DUP2 MSTORE PUSH1 0x20 ADD SWAP1 DUP2 MSTORE PUSH1 0x20 ADD PUSH1 0x0 KECCAK256 SWAP1 DUP1 MLOAD SWAP1 PUSH1 0x20 ADD SWAP1 PUSH3 0x24A SWAP3 SWAP2 SWAP1 PUSH3 0x292 JUMP JUMPDEST POP CALLER PUSH1 0x5 PUSH1 0x0 PUSH2 0x100 EXP DUP2 SLOAD DUP2 PUSH20 0xFFFFFFFFFFFFFFFFFFFFFFFFFFFFFFFFFFFFFFFF MUL NOT AND SWAP1 DUP4 PUSH20 0xFFFFFFFFFFFFFFFFFFFFFFFFFFFFFFFFFFFFFFFF AND MUL OR SWAP1 SSTORE POP PUSH3 0x3A7 JUMP JUMPDEST DUP3 DUP1 SLOAD PUSH3 0x2A0 SWAP1 PUSH3 0x342 JUMP JUMPDEST SWAP1 PUSH1 0x0 MSTORE PUSH1 0x20 PUSH1 0x0 KECCAK256 SWAP1 PUSH1 0x1F ADD PUSH1 0x20 SWAP1 DIV DUP2 ADD SWAP3 DUP3 PUSH3 0x2C4 JUMPI PUSH1 0x0 DUP6 SSTORE PUSH3 0x310 JUMP JUMPDEST DUP3 PUSH1 0x1F LT PUSH3 0x2DF JUMPI DUP1 MLOAD PUSH1 0xFF NOT AND DUP4 DUP1 ADD OR DUP6 SSTORE PUSH3 0x310 JUMP JUMPDEST DUP3 DUP1 ADD PUSH1 0x1 ADD DUP6 SSTORE DUP3 ISZERO PUSH3 0x310 JUMPI SWAP2 DUP3 ADD JUMPDEST DUP3 DUP2 GT ISZERO PUSH3 0x30F JUMPI DUP3 MLOAD DUP3 SSTORE SWAP2 PUSH1 0x20 ADD SWAP2 SWAP1 PUSH1 0x1 ADD SWAP1 PUSH3 0x2F2 JUMP JUMPDEST JUMPDEST POP SWAP1 POP PUSH3 0x31F SWAP2 SWAP1 PUSH3 0x323 JUMP JUMPDEST POP SWAP1 JUMP JUMPDEST JUMPDEST DUP1 DUP3 GT ISZERO PUSH3 0x33E JUMPI PUSH1 0x0 DUP2 PUSH1 0x0 SWAP1 SSTORE POP PUSH1 0x1 ADD PUSH3 0x324 JUMP JUMPDEST POP SWAP1 JUMP JUMPDEST PUSH1 0x0 PUSH1 0x2 DUP3 DIV SWAP1 POP PUSH1 0x1 DUP3 AND DUP1 PUSH3 0x35B JUMPI PUSH1 0x7F DUP3 AND SWAP2 POP JUMPDEST PUSH1 0x20 DUP3 LT DUP2 EQ ISZERO PUSH3 0x372 JUMPI PUSH3 0x371 PUSH3 0x378 JUMP JUMPDEST JUMPDEST POP SWAP2 SWAP1 POP JUMP JUMPDEST PUSH32 0x4E487B7100000000000000000000000000000000000000000000000000000000 PUSH1 0x0 MSTORE PUSH1 0x22 PUSH1 0x4 MSTORE PUSH1 0x24 PUSH1 0x0 REVERT JUMPDEST PUSH2 0x4D8D DUP1 PUSH3 0x3B7 PUSH1 0x0 CODECOPY PUSH1 0x0 RETURN INVALID PUSH1 0x80 PUSH1 0x40 MSTORE CALLVALUE DUP1 ISZERO PUSH2 0x10 JUMPI PUSH1 0x0 DUP1 REVERT JUMPDEST POP PUSH1 0x4 CALLDATASIZE LT PUSH2 0x137 JUMPI PUSH1 0x0 CALLDATALOAD PUSH1 0xE0 SHR DUP1 PUSH4 0x83DB0F6D GT PUSH2 0xB8 JUMPI DUP1 PUSH4 0xAC6FA7C3 GT PUSH2 0x7C JUMPI DUP1 PUSH4 0xAC6FA7C3 EQ PUSH2 0x331 JUMPI DUP1 PUSH4 0xB038316C EQ PUSH2 0x34D JUMPI DUP1 PUSH4 0xBCE62A74 EQ PUSH2 0x369 JUMPI DUP1 PUSH4 0xC3D5FD39 EQ PUSH2 0x385 JUMPI DUP1 PUSH4 0xDFFC8B06 EQ PUSH2 0x3A6 JUMPI DUP1 PUSH4 0xF8F98B79 EQ PUSH2 0x3D8 JUMPI PUSH2 0x137 JUMP JUMPDEST DUP1 PUSH4 0x83DB0F6D EQ PUSH2 0x2A0 JUMPI DUP1 PUSH4 0x8403F848 EQ PUSH2 0x2BC JUMPI DUP1 PUSH4 0x99B958EE EQ PUSH2 0x2D8 JUMPI DUP1 PUSH4 0x9D344D10 EQ PUSH2 0x2F9 JUMPI DUP1 PUSH4 0xA59D105F EQ PUSH2 0x315 JUMPI PUSH2 0x137 JUMP JUMPDEST DUP1 PUSH4 0x3A7D280C GT PUSH2 0xFF JUMPI DUP1 PUSH4 0x3A7D280C EQ PUSH2 0x1F9 JUMPI DUP1 PUSH4 0x54504C12 EQ PUSH2 0x22A JUMPI DUP1 PUSH4 0x7558B2F8 EQ PUSH2 0x24C JUMPI DUP1 PUSH4 0x7B3C7488 EQ PUSH2 0x268 JUMPI DUP1 PUSH4 0x7CCB2BD8 EQ PUSH2 0x284 JUMPI PUSH2 0x137 JUMP JUMPDEST DUP1 PUSH4 0x8E74858 EQ PUSH2 0x13C JUMPI DUP1 PUSH4 0x2059B7AD EQ PUSH2 0x170 JUMPI DUP1 PUSH4 0x2156A781 EQ PUSH2 0x18C JUMPI DUP1 PUSH4 0x2D6ABF59 EQ PUSH2 0x1A8 JUMPI DUP1 PUSH4 0x2F0185C4 EQ PUSH2 0x1C4 JUMPI JUMPDEST PUSH1 0x0 DUP1 REVERT JUMPDEST PUSH2 0x156 PUSH1 0x4 DUP1 CALLDATASIZE SUB DUP2 ADD SWAP1 PUSH2 0x151 SWAP2 SWAP1 PUSH2 0x3DD5 JUMP JUMPDEST PUSH2 0x3F4 JUMP JUMPDEST PUSH1 0x40 MLOAD PUSH2 0x167 SWAP6 SWAP5 SWAP4 SWAP3 SWAP2 SWAP1 PUSH2 0x4702 JUMP JUMPDEST PUSH1 0x40 MLOAD DUP1 SWAP2 SUB SWAP1 RETURN JUMPDEST PUSH2 0x18A PUSH1 0x4 DUP1 CALLDATASIZE SUB DUP2 ADD SWAP1 PUSH2 0x185 SWAP2 SWAP1 PUSH2 0x40B9 JUMP JUMPDEST PUSH2 0x8F9 JUMP JUMPDEST STOP JUMPDEST PUSH2 0x1A6 PUSH1 0x4 DUP1 CALLDATASIZE SUB DUP2 ADD SWAP1 PUSH2 0x1A1 SWAP2 SWAP1 PUSH2 0x405D JUMP JUMPDEST PUSH2 0x9A2 JUMP JUMPDEST STOP JUMPDEST PUSH2 0x1C2 PUSH1 0x4 DUP1 CALLDATASIZE SUB DUP2 ADD SWAP1 PUSH2 0x1BD SWAP2 SWAP1 PUSH2 0x3EBA JUMP JUMPDEST PUSH2 0xA69 JUMP JUMPDEST STOP JUMPDEST PUSH2 0x1DE PUSH1 0x4 DUP1 CALLDATASIZE SUB DUP2 ADD SWAP1 PUSH2 0x1D9 SWAP2 SWAP1 PUSH2 0x4014 JUMP JUMPDEST PUSH2 0xDFB JUMP JUMPDEST PUSH1 0x40 MLOAD PUSH2 0x1F0 SWAP7 SWAP6 SWAP5 SWAP4 SWAP3 SWAP2 SWAP1 PUSH2 0x45C4 JUMP JUMPDEST PUSH1 0x40 MLOAD DUP1 SWAP2 SUB SWAP1 RETURN JUMPDEST PUSH2 0x213 PUSH1 0x4 DUP1 CALLDATASIZE SUB DUP2 ADD SWAP1 PUSH2 0x20E SWAP2 SWAP1 PUSH2 0x4014 JUMP JUMPDEST PUSH2 0x10CB JUMP JUMPDEST PUSH1 0x40 MLOAD PUSH2 0x221 SWAP3 SWAP2 SWAP1 PUSH2 0x462C JUMP JUMPDEST PUSH1 0x40 MLOAD DUP1 SWAP2 SUB SWAP1 RETURN JUMPDEST PUSH2 0x232 PUSH2 0x14C2 JUMP JUMPDEST PUSH1 0x40 MLOAD PUSH2 0x243 SWAP6 SWAP5 SWAP4 SWAP3 SWAP2 SWAP1 PUSH2 0x4702 JUMP JUMPDEST PUSH1 0x40 MLOAD DUP1 SWAP2 SUB SWAP1 RETURN JUMPDEST PUSH2 0x266 PUSH1 0x4 DUP1 CALLDATASIZE SUB DUP2 ADD SWAP1 PUSH2 0x261 SWAP2 SWAP1 PUSH2 0x3F59 JUMP JUMPDEST PUSH2 0x19C5 JUMP JUMPDEST STOP JUMPDEST PUSH2 0x282 PUSH1 0x4 DUP1 CALLDATASIZE SUB DUP2 ADD SWAP1 PUSH2 0x27D SWAP2 SWAP1 PUSH2 0x4014 JUMP JUMPDEST PUSH2 0x1B40 JUMP JUMPDEST STOP JUMPDEST PUSH2 0x29E PUSH1 0x4 DUP1 CALLDATASIZE SUB DUP2 ADD SWAP1 PUSH2 0x299 SWAP2 SWAP1 PUSH2 0x405D JUMP JUMPDEST PUSH2 0x1E0B JUMP JUMPDEST STOP JUMPDEST PUSH2 0x2BA PUSH1 0x4 DUP1 CALLDATASIZE SUB DUP2 ADD SWAP1 PUSH2 0x2B5 SWAP2 SWAP1 PUSH2 0x3E02 JUMP JUMPDEST PUSH2 0x1F14 JUMP JUMPDEST STOP JUMPDEST PUSH2 0x2D6 PUSH1 0x4 DUP1 CALLDATASIZE SUB DUP2 ADD SWAP1 PUSH2 0x2D1 SWAP2 SWAP1 PUSH2 0x4218 JUMP JUMPDEST PUSH2 0x2063 JUMP JUMPDEST STOP JUMPDEST PUSH2 0x2E0 PUSH2 0x2191 JUMP JUMPDEST PUSH1 0x40 MLOAD PUSH2 0x2F0 SWAP5 SWAP4 SWAP3 SWAP2 SWAP1 PUSH2 0x4778 JUMP JUMPDEST PUSH1 0x40 MLOAD DUP1 SWAP2 SUB SWAP1 RETURN JUMPDEST PUSH2 0x313 PUSH1 0x4 DUP1 CALLDATASIZE SUB DUP2 ADD SWAP1 PUSH2 0x30E SWAP2 SWAP1 PUSH2 0x418D JUMP JUMPDEST PUSH2 0x2546 JUMP JUMPDEST STOP JUMPDEST PUSH2 0x32F PUSH1 0x4 DUP1 CALLDATASIZE SUB DUP2 ADD SWAP1 PUSH2 0x32A SWAP2 SWAP1 PUSH2 0x3E2F JUMP JUMPDEST PUSH2 0x256F JUMP JUMPDEST STOP JUMPDEST PUSH2 0x34B PUSH1 0x4 DUP1 CALLDATASIZE SUB DUP2 ADD SWAP1 PUSH2 0x346 SWAP2 SWAP1 PUSH2 0x4014 JUMP JUMPDEST PUSH2 0x266E JUMP JUMPDEST STOP JUMPDEST PUSH2 0x367 PUSH1 0x4 DUP1 CALLDATASIZE SUB DUP2 ADD SWAP1 PUSH2 0x362 SWAP2 SWAP1 PUSH2 0x4014 JUMP JUMPDEST PUSH2 0x29AD JUMP JUMPDEST STOP JUMPDEST PUSH2 0x383 PUSH1 0x4 DUP1 CALLDATASIZE SUB DUP2 ADD SWAP1 PUSH2 0x37E SWAP2 SWAP1 PUSH2 0x4014 JUMP JUMPDEST PUSH2 0x2CEC JUMP JUMPDEST STOP JUMPDEST PUSH2 0x38D PUSH2 0x2FB7 JUMP JUMPDEST PUSH1 0x40 MLOAD PUSH2 0x39D SWAP5 SWAP4 SWAP3 SWAP2 SWAP1 PUSH2 0x46A1 JUMP JUMPDEST PUSH1 0x40 MLOAD DUP1 SWAP2 SUB SWAP1 RETURN JUMPDEST PUSH2 0x3C0 PUSH1 0x4 DUP1 CALLDATASIZE SUB DUP2 ADD SWAP1 PUSH2 0x3BB SWAP2 SWAP1 PUSH2 0x4014 JUMP JUMPDEST PUSH2 0x34EA JUMP JUMPDEST PUSH1 0x40 MLOAD PUSH2 0x3CF SWAP4 SWAP3 SWAP2 SWAP1 PUSH2 0x465C JUMP JUMPDEST PUSH1 0x40 MLOAD DUP1 SWAP2 SUB SWAP1 RETURN JUMPDEST PUSH2 0x3F2 PUSH1 0x4 DUP1 CALLDATASIZE SUB DUP2 ADD SWAP1 PUSH2 0x3ED SWAP2 SWAP1 PUSH2 0x4115 JUMP JUMPDEST PUSH2 0x36CE JUMP JUMPDEST STOP JUMPDEST PUSH1 0x60 DUP1 PUSH1 0x60 DUP1 PUSH1 0x60 PUSH1 0x3 PUSH1 0x2 PUSH1 0x0 CALLER PUSH20 0xFFFFFFFFFFFFFFFFFFFFFFFFFFFFFFFFFFFFFFFF AND PUSH20 0xFFFFFFFFFFFFFFFFFFFFFFFFFFFFFFFFFFFFFFFF AND DUP2 MSTORE PUSH1 0x20 ADD SWAP1 DUP2 MSTORE PUSH1 0x20 ADD PUSH1 0x0 KECCAK256 PUSH1 0x0 ADD SLOAD DUP2 PUSH1 0x5 DUP2 GT ISZERO PUSH2 0x454 JUMPI PUSH2 0x453 PUSH2 0x4ADB JUMP JUMPDEST JUMPDEST EQ PUSH2 0x494 JUMPI PUSH1 0x40 MLOAD PUSH32 0x8C379A000000000000000000000000000000000000000000000000000000000 DUP2 MSTORE PUSH1 0x4 ADD PUSH2 0x48B SWAP1 PUSH2 0x4832 JUMP JUMPDEST PUSH1 0x40 MLOAD DUP1 SWAP2 SUB SWAP1 REVERT JUMPDEST PUSH1 0x0 PUSH1 0x2 PUSH1 0x0 DUP10 PUSH20 0xFFFFFFFFFFFFFFFFFFFFFFFFFFFFFFFFFFFFFFFF AND PUSH20 0xFFFFFFFFFFFFFFFFFFFFFFFFFFFFFFFFFFFFFFFF AND DUP2 MSTORE PUSH1 0x20 ADD SWAP1 DUP2 MSTORE PUSH1 0x20 ADD PUSH1 0x0 KECCAK256 PUSH1 0x40 MLOAD DUP1 PUSH1 0x80 ADD PUSH1 0x40 MSTORE SWAP1 DUP2 PUSH1 0x0 DUP3 ADD SLOAD DUP2 MSTORE PUSH1 0x20 ADD PUSH1 0x1 DUP3 ADD DUP1 SLOAD PUSH2 0x4FA SWAP1 PUSH2 0x4A78 JUMP JUMPDEST DUP1 PUSH1 0x1F ADD PUSH1 0x20 DUP1 SWAP2 DIV MUL PUSH1 0x20 ADD PUSH1 0x40 MLOAD SWAP1 DUP2 ADD PUSH1 0x40 MSTORE DUP1 SWAP3 SWAP2 SWAP1 DUP2 DUP2 MSTORE PUSH1 0x20 ADD DUP3 DUP1 SLOAD PUSH2 0x526 SWAP1 PUSH2 0x4A78 JUMP JUMPDEST DUP1 ISZERO PUSH2 0x573 JUMPI DUP1 PUSH1 0x1F LT PUSH2 0x548 JUMPI PUSH2 0x100 DUP1 DUP4 SLOAD DIV MUL DUP4 MSTORE SWAP2 PUSH1 0x20 ADD SWAP2 PUSH2 0x573 JUMP JUMPDEST DUP3 ADD SWAP2 SWAP1 PUSH1 0x0 MSTORE PUSH1 0x20 PUSH1 0x0 KECCAK256 SWAP1 JUMPDEST DUP2 SLOAD DUP2 MSTORE SWAP1 PUSH1 0x1 ADD SWAP1 PUSH1 0x20 ADD DUP1 DUP4 GT PUSH2 0x556 JUMPI DUP3 SWAP1 SUB PUSH1 0x1F AND DUP3 ADD SWAP2 JUMPDEST POP POP POP POP POP DUP2 MSTORE PUSH1 0x20 ADD PUSH1 0x2 DUP3 ADD DUP1 SLOAD PUSH2 0x58C SWAP1 PUSH2 0x4A78 JUMP JUMPDEST DUP1 PUSH1 0x1F ADD PUSH1 0x20 DUP1 SWAP2 DIV MUL PUSH1 0x20 ADD PUSH1 0x40 MLOAD SWAP1 DUP2 ADD PUSH1 0x40 MSTORE DUP1 SWAP3 SWAP2 SWAP1 DUP2 DUP2 MSTORE PUSH1 0x20 ADD DUP3 DUP1 SLOAD PUSH2 0x5B8 SWAP1 PUSH2 0x4A78 JUMP JUMPDEST DUP1 ISZERO PUSH2 0x605 JUMPI DUP1 PUSH1 0x1F LT PUSH2 0x5DA JUMPI PUSH2 0x100 DUP1 DUP4 SLOAD DIV MUL DUP4 MSTORE SWAP2 PUSH1 0x20 ADD SWAP2 PUSH2 0x605 JUMP JUMPDEST DUP3 ADD SWAP2 SWAP1 PUSH1 0x0 MSTORE PUSH1 0x20 PUSH1 0x0 KECCAK256 SWAP1 JUMPDEST DUP2 SLOAD DUP2 MSTORE SWAP1 PUSH1 0x1 ADD SWAP1 PUSH1 0x20 ADD DUP1 DUP4 GT PUSH2 0x5E8 JUMPI DUP3 SWAP1 SUB PUSH1 0x1F AND DUP3 ADD SWAP2 JUMPDEST POP POP POP POP POP DUP2 MSTORE PUSH1 0x20 ADD PUSH1 0x3 DUP3 ADD DUP1 SLOAD DUP1 PUSH1 0x20 MUL PUSH1 0x20 ADD PUSH1 0x40 MLOAD SWAP1 DUP2 ADD PUSH1 0x40 MSTORE DUP1 SWAP3 SWAP2 SWAP1 DUP2 DUP2 MSTORE PUSH1 0x20 ADD PUSH1 0x0 SWAP1 JUMPDEST DUP3 DUP3 LT ISZERO PUSH2 0x6DF JUMPI DUP4 DUP3 SWAP1 PUSH1 0x0 MSTORE PUSH1 0x20 PUSH1 0x0 KECCAK256 ADD DUP1 SLOAD PUSH2 0x652 SWAP1 PUSH2 0x4A78 JUMP JUMPDEST DUP1 PUSH1 0x1F ADD PUSH1 0x20 DUP1 SWAP2 DIV MUL PUSH1 0x20 ADD PUSH1 0x40 MLOAD SWAP1 DUP2 ADD PUSH1 0x40 MSTORE DUP1 SWAP3 SWAP2 SWAP1 DUP2 DUP2 MSTORE PUSH1 0x20 ADD DUP3 DUP1 SLOAD PUSH2 0x67E SWAP1 PUSH2 0x4A78 JUMP JUMPDEST DUP1 ISZERO PUSH2 0x6CB JUMPI DUP1 PUSH1 0x1F LT PUSH2 0x6A0 JUMPI PUSH2 0x100 DUP1 DUP4 SLOAD DIV MUL DUP4 MSTORE SWAP2 PUSH1 0x20 ADD SWAP2 PUSH2 0x6CB JUMP JUMPDEST DUP3 ADD SWAP2 SWAP1 PUSH1 0x0 MSTORE PUSH1 0x20 PUSH1 0x0 KECCAK256 SWAP1 JUMPDEST DUP2 SLOAD DUP2 MSTORE SWAP1 PUSH1 0x1 ADD SWAP1 PUSH1 0x20 ADD DUP1 DUP4 GT PUSH2 0x6AE JUMPI DUP3 SWAP1 SUB PUSH1 0x1F AND DUP3 ADD SWAP2 JUMPDEST POP POP POP POP POP DUP2 MSTORE PUSH1 0x20 ADD SWAP1 PUSH1 0x1 ADD SWAP1 PUSH2 0x633 JUMP JUMPDEST POP POP POP POP DUP2 MSTORE POP POP SWAP1 POP PUSH1 0x0 PUSH1 0xC PUSH1 0x0 DUP11 PUSH20 0xFFFFFFFFFFFFFFFFFFFFFFFFFFFFFFFFFFFFFFFF AND PUSH20 0xFFFFFFFFFFFFFFFFFFFFFFFFFFFFFFFFFFFFFFFF AND DUP2 MSTORE PUSH1 0x20 ADD SWAP1 DUP2 MSTORE PUSH1 0x20 ADD PUSH1 0x0 KECCAK256 PUSH1 0x0 SWAP1 SLOAD SWAP1 PUSH2 0x100 EXP SWAP1 DIV PUSH20 0xFFFFFFFFFFFFFFFFFFFFFFFFFFFFFFFFFFFFFFFF AND SWAP1 POP PUSH1 0x0 PUSH1 0xB PUSH1 0x0 DUP4 PUSH20 0xFFFFFFFFFFFFFFFFFFFFFFFFFFFFFFFFFFFFFFFF AND PUSH20 0xFFFFFFFFFFFFFFFFFFFFFFFFFFFFFFFFFFFFFFFF AND DUP2 MSTORE PUSH1 0x20 ADD SWAP1 DUP2 MSTORE PUSH1 0x20 ADD PUSH1 0x0 KECCAK256 PUSH1 0x40 MLOAD DUP1 PUSH1 0x60 ADD PUSH1 0x40 MSTORE SWAP1 DUP2 PUSH1 0x0 DUP3 ADD DUP1 SLOAD PUSH2 0x7A9 SWAP1 PUSH2 0x4A78 JUMP JUMPDEST DUP1 PUSH1 0x1F ADD PUSH1 0x20 DUP1 SWAP2 DIV MUL PUSH1 0x20 ADD PUSH1 0x40 MLOAD SWAP1 DUP2 ADD PUSH1 0x40 MSTORE DUP1 SWAP3 SWAP2 SWAP1 DUP2 DUP2 MSTORE PUSH1 0x20 ADD DUP3 DUP1 SLOAD PUSH2 0x7D5 SWAP1 PUSH2 0x4A78 JUMP JUMPDEST DUP1 ISZERO PUSH2 0x822 JUMPI DUP1 PUSH1 0x1F LT PUSH2 0x7F7 JUMPI PUSH2 0x100 DUP1 DUP4 SLOAD DIV MUL DUP4 MSTORE SWAP2 PUSH1 0x20 ADD SWAP2 PUSH2 0x822 JUMP JUMPDEST DUP3 ADD SWAP2 SWAP1 PUSH1 0x0 MSTORE PUSH1 0x20 PUSH1 0x0 KECCAK256 SWAP1 JUMPDEST DUP2 SLOAD DUP2 MSTORE SWAP1 PUSH1 0x1 ADD SWAP1 PUSH1 0x20 ADD DUP1 DUP4 GT PUSH2 0x805 JUMPI DUP3 SWAP1 SUB PUSH1 0x1F AND DUP3 ADD SWAP2 JUMPDEST POP POP POP POP POP DUP2 MSTORE PUSH1 0x20 ADD PUSH1 0x1 DUP3 ADD DUP1 SLOAD PUSH2 0x83B SWAP1 PUSH2 0x4A78 JUMP JUMPDEST DUP1 PUSH1 0x1F ADD PUSH1 0x20 DUP1 SWAP2 DIV MUL PUSH1 0x20 ADD PUSH1 0x40 MLOAD SWAP1 DUP2 ADD PUSH1 0x40 MSTORE DUP1 SWAP3 SWAP2 SWAP1 DUP2 DUP2 MSTORE PUSH1 0x20 ADD DUP3 DUP1 SLOAD PUSH2 0x867 SWAP1 PUSH2 0x4A78 JUMP JUMPDEST DUP1 ISZERO PUSH2 0x8B4 JUMPI DUP1 PUSH1 0x1F LT PUSH2 0x889 JUMPI PUSH2 0x100 DUP1 DUP4 SLOAD DIV MUL DUP4 MSTORE SWAP2 PUSH1 0x20 ADD SWAP2 PUSH2 0x8B4 JUMP JUMPDEST DUP3 ADD SWAP2 SWAP1 PUSH1 0x0 MSTORE PUSH1 0x20 PUSH1 0x0 KECCAK256 SWAP1 JUMPDEST DUP2 SLOAD DUP2 MSTORE SWAP1 PUSH1 0x1 ADD SWAP1 PUSH1 0x20 ADD DUP1 DUP4 GT PUSH2 0x897 JUMPI DUP3 SWAP1 SUB PUSH1 0x1F AND DUP3 ADD SWAP2 JUMPDEST POP POP POP POP POP DUP2 MSTORE PUSH1 0x20 ADD PUSH1 0x2 DUP3 ADD SLOAD DUP2 MSTORE POP POP SWAP1 POP DUP3 PUSH1 0x20 ADD MLOAD SWAP9 POP DUP3 PUSH1 0x40 ADD MLOAD SWAP8 POP DUP1 PUSH1 0x20 ADD MLOAD SWAP7 POP DUP1 PUSH1 0x0 ADD MLOAD SWAP6 POP DUP3 PUSH1 0x60 ADD MLOAD SWAP5 POP POP POP POP POP SWAP2 SWAP4 SWAP6 SWAP1 SWAP3 SWAP5 POP JUMP JUMPDEST PUSH1 0x3 PUSH1 0x2 PUSH1 0x0 CALLER PUSH20 0xFFFFFFFFFFFFFFFFFFFFFFFFFFFFFFFFFFFFFFFF AND PUSH20 0xFFFFFFFFFFFFFFFFFFFFFFFFFFFFFFFFFFFFFFFF AND DUP2 MSTORE PUSH1 0x20 ADD SWAP1 DUP2 MSTORE PUSH1 0x20 ADD PUSH1 0x0 KECCAK256 PUSH1 0x0 ADD SLOAD DUP2 PUSH1 0x5 DUP2 GT ISZERO PUSH2 0x951 JUMPI PUSH2 0x950 PUSH2 0x4ADB JUMP JUMPDEST JUMPDEST EQ PUSH2 0x991 JUMPI PUSH1 0x40 MLOAD PUSH32 0x8C379A000000000000000000000000000000000000000000000000000000000 DUP2 MSTORE PUSH1 0x4 ADD PUSH2 0x988 SWAP1 PUSH2 0x4832 JUMP JUMPDEST PUSH1 0x40 MLOAD DUP1 SWAP2 SUB SWAP1 REVERT JUMPDEST DUP2 ISZERO PUSH2 0x99C JUMPI PUSH2 0x99D JUMP JUMPDEST JUMPDEST POP POP POP JUMP JUMPDEST PUSH1 0x5 PUSH1 0x0 SWAP1 SLOAD SWAP1 PUSH2 0x100 EXP SWAP1 DIV PUSH20 0xFFFFFFFFFFFFFFFFFFFFFFFFFFFFFFFFFFFFFFFF AND PUSH20 0xFFFFFFFFFFFFFFFFFFFFFFFFFFFFFFFFFFFFFFFF AND CALLER PUSH20 0xFFFFFFFFFFFFFFFFFFFFFFFFFFFFFFFFFFFFFFFF AND EQ PUSH2 0xA32 JUMPI PUSH1 0x40 MLOAD PUSH32 0x8C379A000000000000000000000000000000000000000000000000000000000 DUP2 MSTORE PUSH1 0x4 ADD PUSH2 0xA29 SWAP1 PUSH2 0x4872 JUMP JUMPDEST PUSH1 0x40 MLOAD DUP1 SWAP2 SUB SWAP1 REVERT JUMPDEST PUSH1 0x0 PUSH1 0x5 DUP1 DUP2 GT ISZERO PUSH2 0xA47 JUMPI PUSH2 0xA46 PUSH2 0x4ADB JUMP JUMPDEST JUMPDEST SWAP1 POP PUSH2 0xA64 PUSH1 0x40 MLOAD DUP1 PUSH1 0x20 ADD PUSH1 0x40 MSTORE DUP1 PUSH1 0x0 DUP2 MSTORE POP DUP5 DUP4 DUP6 PUSH2 0x37C3 JUMP JUMPDEST POP POP POP JUMP JUMPDEST PUSH2 0xB4C PUSH1 0x2 PUSH1 0x0 CALLER PUSH20 0xFFFFFFFFFFFFFFFFFFFFFFFFFFFFFFFFFFFFFFFF AND PUSH20 0xFFFFFFFFFFFFFFFFFFFFFFFFFFFFFFFFFFFFFFFF AND DUP2 MSTORE PUSH1 0x20 ADD SWAP1 DUP2 MSTORE PUSH1 0x20 ADD PUSH1 0x0 KECCAK256 PUSH1 0x1 ADD DUP1 SLOAD PUSH2 0xAB9 SWAP1 PUSH2 0x4A78 JUMP JUMPDEST DUP1 PUSH1 0x1F ADD PUSH1 0x20 DUP1 SWAP2 DIV MUL PUSH1 0x20 ADD PUSH1 0x40 MLOAD SWAP1 DUP2 ADD PUSH1 0x40 MSTORE DUP1 SWAP3 SWAP2 SWAP1 DUP2 DUP2 MSTORE PUSH1 0x20 ADD DUP3 DUP1 SLOAD PUSH2 0xAE5 SWAP1 PUSH2 0x4A78 JUMP JUMPDEST DUP1 ISZERO PUSH2 0xB32 JUMPI DUP1 PUSH1 0x1F LT PUSH2 0xB07 JUMPI PUSH2 0x100 DUP1 DUP4 SLOAD DIV MUL DUP4 MSTORE SWAP2 PUSH1 0x20 ADD SWAP2 PUSH2 0xB32 JUMP JUMPDEST DUP3 ADD SWAP2 SWAP1 PUSH1 0x0 MSTORE PUSH1 0x20 PUSH1 0x0 KECCAK256 SWAP1 JUMPDEST DUP2 SLOAD DUP2 MSTORE SWAP1 PUSH1 0x1 ADD SWAP1 PUSH1 0x20 ADD DUP1 DUP4 GT PUSH2 0xB15 JUMPI DUP3 SWAP1 SUB PUSH1 0x1F AND DUP3 ADD SWAP2 JUMPDEST POP POP POP POP POP PUSH1 0x40 MLOAD DUP1 PUSH1 0x20 ADD PUSH1 0x40 MSTORE DUP1 PUSH1 0x0 DUP2 MSTORE POP PUSH2 0x3AC7 JUMP JUMPDEST ISZERO PUSH2 0xB8C JUMPI PUSH1 0x40 MLOAD PUSH32 0x8C379A000000000000000000000000000000000000000000000000000000000 DUP2 MSTORE PUSH1 0x4 ADD PUSH2 0xB83 SWAP1 PUSH2 0x4852 JUMP JUMPDEST PUSH1 0x40 MLOAD DUP1 SWAP2 SUB SWAP1 REVERT JUMPDEST PUSH1 0x60 DUP1 PUSH1 0x0 PUSH1 0x40 MLOAD DUP1 PUSH1 0xC0 ADD PUSH1 0x40 MSTORE DUP1 CALLER PUSH20 0xFFFFFFFFFFFFFFFFFFFFFFFFFFFFFFFFFFFFFFFF AND DUP2 MSTORE PUSH1 0x20 ADD DUP9 PUSH20 0xFFFFFFFFFFFFFFFFFFFFFFFFFFFFFFFFFFFFFFFF AND DUP2 MSTORE PUSH1 0x20 ADD DUP8 DUP2 MSTORE PUSH1 0x20 ADD DUP5 DUP2 MSTORE PUSH1 0x20 ADD DUP4 DUP2 MSTORE PUSH1 0x20 ADD DUP6 DUP2 MSTORE POP SWAP1 POP PUSH1 0xE PUSH1 0x0 DUP9 PUSH20 0xFFFFFFFFFFFFFFFFFFFFFFFFFFFFFFFFFFFFFFFF AND PUSH20 0xFFFFFFFFFFFFFFFFFFFFFFFFFFFFFFFFFFFFFFFF AND DUP2 MSTORE PUSH1 0x20 ADD SWAP1 DUP2 MSTORE PUSH1 0x20 ADD PUSH1 0x0 KECCAK256 DUP6 SWAP1 DUP1 PUSH1 0x1 DUP2 SLOAD ADD DUP1 DUP3 SSTORE DUP1 SWAP2 POP POP PUSH1 0x1 SWAP1 SUB SWAP1 PUSH1 0x0 MSTORE PUSH1 0x20 PUSH1 0x0 KECCAK256 ADD PUSH1 0x0 SWAP1 SWAP2 SWAP1 SWAP2 SWAP1 SWAP2 POP SWAP1 DUP1 MLOAD SWAP1 PUSH1 0x20 ADD SWAP1 PUSH2 0xC64 SWAP3 SWAP2 SWAP1 PUSH2 0x3B20 JUMP JUMPDEST POP PUSH1 0x2 PUSH1 0x0 CALLER PUSH20 0xFFFFFFFFFFFFFFFFFFFFFFFFFFFFFFFFFFFFFFFF AND PUSH20 0xFFFFFFFFFFFFFFFFFFFFFFFFFFFFFFFFFFFFFFFF AND DUP2 MSTORE PUSH1 0x20 ADD SWAP1 DUP2 MSTORE PUSH1 0x20 ADD PUSH1 0x0 KECCAK256 PUSH1 0x3 ADD DUP6 SWAP1 DUP1 PUSH1 0x1 DUP2 SLOAD ADD DUP1 DUP3 SSTORE DUP1 SWAP2 POP POP PUSH1 0x1 SWAP1 SUB SWAP1 PUSH1 0x0 MSTORE PUSH1 0x20 PUSH1 0x0 KECCAK256 ADD PUSH1 0x0 SWAP1 SWAP2 SWAP1 SWAP2 SWAP1 SWAP2 POP SWAP1 DUP1 MLOAD SWAP1 PUSH1 0x20 ADD SWAP1 PUSH2 0xCE0 SWAP3 SWAP2 SWAP1 PUSH2 0x3B20 JUMP JUMPDEST POP DUP1 PUSH1 0xF DUP7 PUSH1 0x40 MLOAD PUSH2 0xCF2 SWAP2 SWAP1 PUSH2 0x45AD JUMP JUMPDEST SWAP1 DUP2 MSTORE PUSH1 0x20 ADD PUSH1 0x40 MLOAD DUP1 SWAP2 SUB SWAP1 KECCAK256 PUSH1 0x0 DUP3 ADD MLOAD DUP2 PUSH1 0x0 ADD PUSH1 0x0 PUSH2 0x100 EXP DUP2 SLOAD DUP2 PUSH20 0xFFFFFFFFFFFFFFFFFFFFFFFFFFFFFFFFFFFFFFFF MUL NOT AND SWAP1 DUP4 PUSH20 0xFFFFFFFFFFFFFFFFFFFFFFFFFFFFFFFFFFFFFFFF AND MUL OR SWAP1 SSTORE POP PUSH1 0x20 DUP3 ADD MLOAD DUP2 PUSH1 0x1 ADD PUSH1 0x0 PUSH2 0x100 EXP DUP2 SLOAD DUP2 PUSH20 0xFFFFFFFFFFFFFFFFFFFFFFFFFFFFFFFFFFFFFFFF MUL NOT AND SWAP1 DUP4 PUSH20 0xFFFFFFFFFFFFFFFFFFFFFFFFFFFFFFFFFFFFFFFF AND MUL OR SWAP1 SSTORE POP PUSH1 0x40 DUP3 ADD MLOAD DUP2 PUSH1 0x2 ADD SWAP1 DUP1 MLOAD SWAP1 PUSH1 0x20 ADD SWAP1 PUSH2 0xDAA SWAP3 SWAP2 SWAP1 PUSH2 0x3B20 JUMP JUMPDEST POP PUSH1 0x60 DUP3 ADD MLOAD DUP2 PUSH1 0x3 ADD SWAP1 DUP1 MLOAD SWAP1 PUSH1 0x20 ADD SWAP1 PUSH2 0xDC7 SWAP3 SWAP2 SWAP1 PUSH2 0x3BA6 JUMP JUMPDEST POP PUSH1 0x80 DUP3 ADD MLOAD DUP2 PUSH1 0x4 ADD SWAP1 DUP1 MLOAD SWAP1 PUSH1 0x20 ADD SWAP1 PUSH2 0xDE4 SWAP3 SWAP2 SWAP1 PUSH2 0x3BA6 JUMP JUMPDEST POP PUSH1 0xA0 DUP3 ADD MLOAD DUP2 PUSH1 0x5 ADD SSTORE SWAP1 POP POP POP POP POP POP POP POP POP JUMP JUMPDEST PUSH1 0x0 DUP1 PUSH1 0x60 PUSH1 0x0 DUP1 PUSH1 0x0 DUP1 PUSH1 0xF DUP9 PUSH1 0x40 MLOAD PUSH2 0xE16 SWAP2 SWAP1 PUSH2 0x45AD JUMP JUMPDEST SWAP1 DUP2 MSTORE PUSH1 0x20 ADD PUSH1 0x40 MLOAD DUP1 SWAP2 SUB SWAP1 KECCAK256 PUSH1 0x40 MLOAD DUP1 PUSH1 0xC0 ADD PUSH1 0x40 MSTORE SWAP1 DUP2 PUSH1 0x0 DUP3 ADD PUSH1 0x0 SWAP1 SLOAD SWAP1 PUSH2 0x100 EXP SWAP1 DIV PUSH20 0xFFFFFFFFFFFFFFFFFFFFFFFFFFFFFFFFFFFFFFFF AND PUSH20 0xFFFFFFFFFFFFFFFFFFFFFFFFFFFFFFFFFFFFFFFF AND PUSH20 0xFFFFFFFFFFFFFFFFFFFFFFFFFFFFFFFFFFFFFFFF AND DUP2 MSTORE PUSH1 0x20 ADD PUSH1 0x1 DUP3 ADD PUSH1 0x0 SWAP1 SLOAD SWAP1 PUSH2 0x100 EXP SWAP1 DIV PUSH20 0xFFFFFFFFFFFFFFFFFFFFFFFFFFFFFFFFFFFFFFFF AND PUSH20 0xFFFFFFFFFFFFFFFFFFFFFFFFFFFFFFFFFFFFFFFF AND PUSH20 0xFFFFFFFFFFFFFFFFFFFFFFFFFFFFFFFFFFFFFFFF AND DUP2 MSTORE PUSH1 0x20 ADD PUSH1 0x2 DUP3 ADD DUP1 SLOAD PUSH2 0xEEB SWAP1 PUSH2 0x4A78 JUMP JUMPDEST DUP1 PUSH1 0x1F ADD PUSH1 0x20 DUP1 SWAP2 DIV MUL PUSH1 0x20 ADD PUSH1 0x40 MLOAD SWAP1 DUP2 ADD PUSH1 0x40 MSTORE DUP1 SWAP3 SWAP2 SWAP1 DUP2 DUP2 MSTORE PUSH1 0x20 ADD DUP3 DUP1 SLOAD PUSH2 0xF17 SWAP1 PUSH2 0x4A78 JUMP JUMPDEST DUP1 ISZERO PUSH2 0xF64 JUMPI DUP1 PUSH1 0x1F LT PUSH2 0xF39 JUMPI PUSH2 0x100 DUP1 DUP4 SLOAD DIV MUL DUP4 MSTORE SWAP2 PUSH1 0x20 ADD SWAP2 PUSH2 0xF64 JUMP JUMPDEST DUP3 ADD SWAP2 SWAP1 PUSH1 0x0 MSTORE PUSH1 0x20 PUSH1 0x0 KECCAK256 SWAP1 JUMPDEST DUP2 SLOAD DUP2 MSTORE SWAP1 PUSH1 0x1 ADD SWAP1 PUSH1 0x20 ADD DUP1 DUP4 GT PUSH2 0xF47 JUMPI DUP3 SWAP1 SUB PUSH1 0x1F AND DUP3 ADD SWAP2 JUMPDEST POP POP POP POP POP DUP2 MSTORE PUSH1 0x20 ADD PUSH1 0x3 DUP3 ADD DUP1 SLOAD DUP1 PUSH1 0x20 MUL PUSH1 0x20 ADD PUSH1 0x40 MLOAD SWAP1 DUP2 ADD PUSH1 0x40 MSTORE DUP1 SWAP3 SWAP2 SWAP1 DUP2 DUP2 MSTORE PUSH1 0x20 ADD DUP3 DUP1 SLOAD DUP1 ISZERO PUSH2 0xFF2 JUMPI PUSH1 0x20 MUL DUP3 ADD SWAP2 SWAP1 PUSH1 0x0 MSTORE PUSH1 0x20 PUSH1 0x0 KECCAK256 SWAP1 JUMPDEST DUP2 PUSH1 0x0 SWAP1 SLOAD SWAP1 PUSH2 0x100 EXP SWAP1 DIV PUSH20 0xFFFFFFFFFFFFFFFFFFFFFFFFFFFFFFFFFFFFFFFF AND PUSH20 0xFFFFFFFFFFFFFFFFFFFFFFFFFFFFFFFFFFFFFFFF AND DUP2 MSTORE PUSH1 0x20 ADD SWAP1 PUSH1 0x1 ADD SWAP1 DUP1 DUP4 GT PUSH2 0xFA8 JUMPI JUMPDEST POP POP POP POP POP DUP2 MSTORE PUSH1 0x20 ADD PUSH1 0x4 DUP3 ADD DUP1 SLOAD DUP1 PUSH1 0x20 MUL PUSH1 0x20 ADD PUSH1 0x40 MLOAD SWAP1 DUP2 ADD PUSH1 0x40 MSTORE DUP1 SWAP3 SWAP2 SWAP1 DUP2 DUP2 MSTORE PUSH1 0x20 ADD DUP3 DUP1 SLOAD DUP1 ISZERO PUSH2 0x1080 JUMPI PUSH1 0x20 MUL DUP3 ADD SWAP2 SWAP1 PUSH1 0x0 MSTORE PUSH1 0x20 PUSH1 0x0 KECCAK256 SWAP1 JUMPDEST DUP2 PUSH1 0x0 SWAP1 SLOAD SWAP1 PUSH2 0x100 EXP SWAP1 DIV PUSH20 0xFFFFFFFFFFFFFFFFFFFFFFFFFFFFFFFFFFFFFFFF AND PUSH20 0xFFFFFFFFFFFFFFFFFFFFFFFFFFFFFFFFFFFFFFFF AND DUP2 MSTORE PUSH1 0x20 ADD SWAP1 PUSH1 0x1 ADD SWAP1 DUP1 DUP4 GT PUSH2 0x1036 JUMPI JUMPDEST POP POP POP POP POP DUP2 MSTORE PUSH1 0x20 ADD PUSH1 0x5 DUP3 ADD SLOAD DUP2 MSTORE POP POP SWAP1 POP DUP1 PUSH1 0x0 ADD MLOAD SWAP7 POP DUP1 PUSH1 0x20 ADD MLOAD SWAP6 POP DUP1 PUSH1 0x40 ADD MLOAD SWAP5 POP DUP1 PUSH1 0x60 ADD MLOAD MLOAD SWAP4 POP DUP1 PUSH1 0x80 ADD MLOAD MLOAD SWAP3 POP DUP1 PUSH1 0xA0 ADD MLOAD SWAP2 POP POP SWAP2 SWAP4 SWAP6 POP SWAP2 SWAP4 SWAP6 JUMP JUMPDEST PUSH1 0x0 PUSH1 0x60 DUP3 PUSH1 0x0 PUSH20 0xFFFFFFFFFFFFFFFFFFFFFFFFFFFFFFFFFFFFFFFF AND PUSH1 0x1 DUP3 PUSH1 0x40 MLOAD PUSH2 0x10F8 SWAP2 SWAP1 PUSH2 0x45AD JUMP JUMPDEST SWAP1 DUP2 MSTORE PUSH1 0x20 ADD PUSH1 0x40 MLOAD DUP1 SWAP2 SUB SWAP1 KECCAK256 PUSH1 0x0 SWAP1 SLOAD SWAP1 PUSH2 0x100 EXP SWAP1 DIV PUSH20 0xFFFFFFFFFFFFFFFFFFFFFFFFFFFFFFFFFFFFFFFF AND PUSH20 0xFFFFFFFFFFFFFFFFFFFFFFFFFFFFFFFFFFFFFFFF AND EQ ISZERO PUSH2 0x117E JUMPI PUSH1 0x40 MLOAD PUSH32 0x8C379A000000000000000000000000000000000000000000000000000000000 DUP2 MSTORE PUSH1 0x4 ADD PUSH2 0x1175 SWAP1 PUSH2 0x48B2 JUMP JUMPDEST PUSH1 0x40 MLOAD DUP1 SWAP2 SUB SWAP1 REVERT JUMPDEST PUSH1 0x0 PUSH1 0x1 DUP6 PUSH1 0x40 MLOAD PUSH2 0x1190 SWAP2 SWAP1 PUSH2 0x45AD JUMP JUMPDEST SWAP1 DUP2 MSTORE PUSH1 0x20 ADD PUSH1 0x40 MLOAD DUP1 SWAP2 SUB SWAP1 KECCAK256 PUSH1 0x0 SWAP1 SLOAD SWAP1 PUSH2 0x100 EXP SWAP1 DIV PUSH20 0xFFFFFFFFFFFFFFFFFFFFFFFFFFFFFFFFFFFFFFFF AND SWAP1 POP PUSH1 0x0 PUSH1 0x2 PUSH1 0x0 DUP4 PUSH20 0xFFFFFFFFFFFFFFFFFFFFFFFFFFFFFFFFFFFFFFFF AND PUSH20 0xFFFFFFFFFFFFFFFFFFFFFFFFFFFFFFFFFFFFFFFF AND DUP2 MSTORE PUSH1 0x20 ADD SWAP1 DUP2 MSTORE PUSH1 0x20 ADD PUSH1 0x0 KECCAK256 PUSH1 0x40 MLOAD DUP1 PUSH1 0x80 ADD PUSH1 0x40 MSTORE SWAP1 DUP2 PUSH1 0x0 DUP3 ADD SLOAD DUP2 MSTORE PUSH1 0x20 ADD PUSH1 0x1 DUP3 ADD DUP1 SLOAD PUSH2 0x1227 SWAP1 PUSH2 0x4A78 JUMP JUMPDEST DUP1 PUSH1 0x1F ADD PUSH1 0x20 DUP1 SWAP2 DIV MUL PUSH1 0x20 ADD PUSH1 0x40 MLOAD SWAP1 DUP2 ADD PUSH1 0x40 MSTORE DUP1 SWAP3 SWAP2 SWAP1 DUP2 DUP2 MSTORE PUSH1 0x20 ADD DUP3 DUP1 SLOAD PUSH2 0x1253 SWAP1 PUSH2 0x4A78 JUMP JUMPDEST DUP1 ISZERO PUSH2 0x12A0 JUMPI DUP1 PUSH1 0x1F LT PUSH2 0x1275 JUMPI PUSH2 0x100 DUP1 DUP4 SLOAD DIV MUL DUP4 MSTORE SWAP2 PUSH1 0x20 ADD SWAP2 PUSH2 0x12A0 JUMP JUMPDEST DUP3 ADD SWAP2 SWAP1 PUSH1 0x0 MSTORE PUSH1 0x20 PUSH1 0x0 KECCAK256 SWAP1 JUMPDEST DUP2 SLOAD DUP2 MSTORE SWAP1 PUSH1 0x1 ADD SWAP1 PUSH1 0x20 ADD DUP1 DUP4 GT PUSH2 0x1283 JUMPI DUP3 SWAP1 SUB PUSH1 0x1F AND DUP3 ADD SWAP2 JUMPDEST POP POP POP POP POP DUP2 MSTORE PUSH1 0x20 ADD PUSH1 0x2 DUP3 ADD DUP1 SLOAD PUSH2 0x12B9 SWAP1 PUSH2 0x4A78 JUMP JUMPDEST DUP1 PUSH1 0x1F ADD PUSH1 0x20 DUP1 SWAP2 DIV MUL PUSH1 0x20 ADD PUSH1 0x40 MLOAD SWAP1 DUP2 ADD PUSH1 0x40 MSTORE DUP1 SWAP3 SWAP2 SWAP1 DUP2 DUP2 MSTORE PUSH1 0x20 ADD DUP3 DUP1 SLOAD PUSH2 0x12E5 SWAP1 PUSH2 0x4A78 JUMP JUMPDEST DUP1 ISZERO PUSH2 0x1332 JUMPI DUP1 PUSH1 0x1F LT PUSH2 0x1307 JUMPI PUSH2 0x100 DUP1 DUP4 SLOAD DIV MUL DUP4 MSTORE SWAP2 PUSH1 0x20 ADD SWAP2 PUSH2 0x1332 JUMP JUMPDEST DUP3 ADD SWAP2 SWAP1 PUSH1 0x0 MSTORE PUSH1 0x20 PUSH1 0x0 KECCAK256 SWAP1 JUMPDEST DUP2 SLOAD DUP2 MSTORE SWAP1 PUSH1 0x1 ADD SWAP1 PUSH1 0x20 ADD DUP1 DUP4 GT PUSH2 0x1315 JUMPI DUP3 SWAP1 SUB PUSH1 0x1F AND DUP3 ADD SWAP2 JUMPDEST POP POP POP POP POP DUP2 MSTORE PUSH1 0x20 ADD PUSH1 0x3 DUP3 ADD DUP1 SLOAD DUP1 PUSH1 0x20 MUL PUSH1 0x20 ADD PUSH1 0x40 MLOAD SWAP1 DUP2 ADD PUSH1 0x40 MSTORE DUP1 SWAP3 SWAP2 SWAP1 DUP2 DUP2 MSTORE PUSH1 0x20 ADD PUSH1 0x0 SWAP1 JUMPDEST DUP3 DUP3 LT ISZERO PUSH2 0x140C JUMPI DUP4 DUP3 SWAP1 PUSH1 0x0 MSTORE PUSH1 0x20 PUSH1 0x0 KECCAK256 ADD DUP1 SLOAD PUSH2 0x137F SWAP1 PUSH2 0x4A78 JUMP JUMPDEST DUP1 PUSH1 0x1F ADD PUSH1 0x20 DUP1 SWAP2 DIV MUL PUSH1 0x20 ADD PUSH1 0x40 MLOAD SWAP1 DUP2 ADD PUSH1 0x40 MSTORE DUP1 SWAP3 SWAP2 SWAP1 DUP2 DUP2 MSTORE PUSH1 0x20 ADD DUP3 DUP1 SLOAD PUSH2 0x13AB SWAP1 PUSH2 0x4A78 JUMP JUMPDEST DUP1 ISZERO PUSH2 0x13F8 JUMPI DUP1 PUSH1 0x1F LT PUSH2 0x13CD JUMPI PUSH2 0x100 DUP1 DUP4 SLOAD DIV MUL DUP4 MSTORE SWAP2 PUSH1 0x20 ADD SWAP2 PUSH2 0x13F8 JUMP JUMPDEST DUP3 ADD SWAP2 SWAP1 PUSH1 0x0 MSTORE PUSH1 0x20 PUSH1 0x0 KECCAK256 SWAP1 JUMPDEST DUP2 SLOAD DUP2 MSTORE SWAP1 PUSH1 0x1 ADD SWAP1 PUSH1 0x20 ADD DUP1 DUP4 GT PUSH2 0x13DB JUMPI DUP3 SWAP1 SUB PUSH1 0x1F AND DUP3 ADD SWAP2 JUMPDEST POP POP POP POP POP DUP2 MSTORE PUSH1 0x20 ADD SWAP1 PUSH1 0x1 ADD SWAP1 PUSH2 0x1360 JUMP JUMPDEST POP POP POP POP DUP2 MSTORE POP POP SWAP1 POP DUP2 SWAP5 POP PUSH1 0x0 DUP1 DUP3 PUSH1 0x0 ADD MLOAD DUP2 MSTORE PUSH1 0x20 ADD SWAP1 DUP2 MSTORE PUSH1 0x20 ADD PUSH1 0x0 KECCAK256 DUP1 SLOAD PUSH2 0x143A SWAP1 PUSH2 0x4A78 JUMP JUMPDEST DUP1 PUSH1 0x1F ADD PUSH1 0x20 DUP1 SWAP2 DIV MUL PUSH1 0x20 ADD PUSH1 0x40 MLOAD SWAP1 DUP2 ADD PUSH1 0x40 MSTORE DUP1 SWAP3 SWAP2 SWAP1 DUP2 DUP2 MSTORE PUSH1 0x20 ADD DUP3 DUP1 SLOAD PUSH2 0x1466 SWAP1 PUSH2 0x4A78 JUMP JUMPDEST DUP1 ISZERO PUSH2 0x14B3 JUMPI DUP1 PUSH1 0x1F LT PUSH2 0x1488 JUMPI PUSH2 0x100 DUP1 DUP4 SLOAD DIV MUL DUP4 MSTORE SWAP2 PUSH1 0x20 ADD SWAP2 PUSH2 0x14B3 JUMP JUMPDEST DUP3 ADD SWAP2 SWAP1 PUSH1 0x0 MSTORE PUSH1 0x20 PUSH1 0x0 KECCAK256 SWAP1 JUMPDEST DUP2 SLOAD DUP2 MSTORE SWAP1 PUSH1 0x1 ADD SWAP1 PUSH1 0x20 ADD DUP1 DUP4 GT PUSH2 0x1496 JUMPI DUP3 SWAP1 SUB PUSH1 0x1F AND DUP3 ADD SWAP2 JUMPDEST POP POP POP POP POP SWAP4 POP POP POP POP SWAP2 POP SWAP2 JUMP JUMPDEST PUSH1 0x60 DUP1 PUSH1 0x60 DUP1 PUSH1 0x60 PUSH1 0x1 PUSH1 0x2 PUSH1 0x0 CALLER PUSH20 0xFFFFFFFFFFFFFFFFFFFFFFFFFFFFFFFFFFFFFFFF AND PUSH20 0xFFFFFFFFFFFFFFFFFFFFFFFFFFFFFFFFFFFFFFFF AND DUP2 MSTORE PUSH1 0x20 ADD SWAP1 DUP2 MSTORE PUSH1 0x20 ADD PUSH1 0x0 KECCAK256 PUSH1 0x0 ADD SLOAD DUP2 PUSH1 0x5 DUP2 GT ISZERO PUSH2 0x1522 JUMPI PUSH2 0x1521 PUSH2 0x4ADB JUMP JUMPDEST JUMPDEST EQ PUSH2 0x1562 JUMPI PUSH1 0x40 MLOAD PUSH32 0x8C379A000000000000000000000000000000000000000000000000000000000 DUP2 MSTORE PUSH1 0x4 ADD PUSH2 0x1559 SWAP1 PUSH2 0x4832 JUMP JUMPDEST PUSH1 0x40 MLOAD DUP1 SWAP2 SUB SWAP1 REVERT JUMPDEST PUSH1 0x0 PUSH1 0x2 PUSH1 0x0 CALLER PUSH20 0xFFFFFFFFFFFFFFFFFFFFFFFFFFFFFFFFFFFFFFFF AND PUSH20 0xFFFFFFFFFFFFFFFFFFFFFFFFFFFFFFFFFFFFFFFF AND DUP2 MSTORE PUSH1 0x20 ADD SWAP1 DUP2 MSTORE PUSH1 0x20 ADD PUSH1 0x0 KECCAK256 PUSH1 0x40 MLOAD DUP1 PUSH1 0x80 ADD PUSH1 0x40 MSTORE SWAP1 DUP2 PUSH1 0x0 DUP3 ADD SLOAD DUP2 MSTORE PUSH1 0x20 ADD PUSH1 0x1 DUP3 ADD DUP1 SLOAD PUSH2 0x15C8 SWAP1 PUSH2 0x4A78 JUMP JUMPDEST DUP1 PUSH1 0x1F ADD PUSH1 0x20 DUP1 SWAP2 DIV MUL PUSH1 0x20 ADD PUSH1 0x40 MLOAD SWAP1 DUP2 ADD PUSH1 0x40 MSTORE DUP1 SWAP3 SWAP2 SWAP1 DUP2 DUP2 MSTORE PUSH1 0x20 ADD DUP3 DUP1 SLOAD PUSH2 0x15F4 SWAP1 PUSH2 0x4A78 JUMP JUMPDEST DUP1 ISZERO PUSH2 0x1641 JUMPI DUP1 PUSH1 0x1F LT PUSH2 0x1616 JUMPI PUSH2 0x100 DUP1 DUP4 SLOAD DIV MUL DUP4 MSTORE SWAP2 PUSH1 0x20 ADD SWAP2 PUSH2 0x1641 JUMP JUMPDEST DUP3 ADD SWAP2 SWAP1 PUSH1 0x0 MSTORE PUSH1 0x20 PUSH1 0x0 KECCAK256 SWAP1 JUMPDEST DUP2 SLOAD DUP2 MSTORE SWAP1 PUSH1 0x1 ADD SWAP1 PUSH1 0x20 ADD DUP1 DUP4 GT PUSH2 0x1624 JUMPI DUP3 SWAP1 SUB PUSH1 0x1F AND DUP3 ADD SWAP2 JUMPDEST POP POP POP POP POP DUP2 MSTORE PUSH1 0x20 ADD PUSH1 0x2 DUP3 ADD DUP1 SLOAD PUSH2 0x165A SWAP1 PUSH2 0x4A78 JUMP JUMPDEST DUP1 PUSH1 0x1F ADD PUSH1 0x20 DUP1 SWAP2 DIV MUL PUSH1 0x20 ADD PUSH1 0x40 MLOAD SWAP1 DUP2 ADD PUSH1 0x40 MSTORE DUP1 SWAP3 SWAP2 SWAP1 DUP2 DUP2 MSTORE PUSH1 0x20 ADD DUP3 DUP1 SLOAD PUSH2 0x1686 SWAP1 PUSH2 0x4A78 JUMP JUMPDEST DUP1 ISZERO PUSH2 0x16D3 JUMPI DUP1 PUSH1 0x1F LT PUSH2 0x16A8 JUMPI PUSH2 0x100 DUP1 DUP4 SLOAD DIV MUL DUP4 MSTORE SWAP2 PUSH1 0x20 ADD SWAP2 PUSH2 0x16D3 JUMP JUMPDEST DUP3 ADD SWAP2 SWAP1 PUSH1 0x0 MSTORE PUSH1 0x20 PUSH1 0x0 KECCAK256 SWAP1 JUMPDEST DUP2 SLOAD DUP2 MSTORE SWAP1 PUSH1 0x1 ADD SWAP1 PUSH1 0x20 ADD DUP1 DUP4 GT PUSH2 0x16B6 JUMPI DUP3 SWAP1 SUB PUSH1 0x1F AND DUP3 ADD SWAP2 JUMPDEST POP POP POP POP POP DUP2 MSTORE PUSH1 0x20 ADD PUSH1 0x3 DUP3 ADD DUP1 SLOAD DUP1 PUSH1 0x20 MUL PUSH1 0x20 ADD PUSH1 0x40 MLOAD SWAP1 DUP2 ADD PUSH1 0x40 MSTORE DUP1 SWAP3 SWAP2 SWAP1 DUP2 DUP2 MSTORE PUSH1 0x20 ADD PUSH1 0x0 SWAP1 JUMPDEST DUP3 DUP3 LT ISZERO PUSH2 0x17AD JUMPI DUP4 DUP3 SWAP1 PUSH1 0x0 MSTORE PUSH1 0x20 PUSH1 0x0 KECCAK256 ADD DUP1 SLOAD PUSH2 0x1720 SWAP1 PUSH2 0x4A78 JUMP JUMPDEST DUP1 PUSH1 0x1F ADD PUSH1 0x20 DUP1 SWAP2 DIV MUL PUSH1 0x20 ADD PUSH1 0x40 MLOAD SWAP1 DUP2 ADD PUSH1 0x40 MSTORE DUP1 SWAP3 SWAP2 SWAP1 DUP2 DUP2 MSTORE PUSH1 0x20 ADD DUP3 DUP1 SLOAD PUSH2 0x174C SWAP1 PUSH2 0x4A78 JUMP JUMPDEST DUP1 ISZERO PUSH2 0x1799 JUMPI DUP1 PUSH1 0x1F LT PUSH2 0x176E JUMPI PUSH2 0x100 DUP1 DUP4 SLOAD DIV MUL DUP4 MSTORE SWAP2 PUSH1 0x20 ADD SWAP2 PUSH2 0x1799 JUMP JUMPDEST DUP3 ADD SWAP2 SWAP1 PUSH1 0x0 MSTORE PUSH1 0x20 PUSH1 0x0 KECCAK256 SWAP1 JUMPDEST DUP2 SLOAD DUP2 MSTORE SWAP1 PUSH1 0x1 ADD SWAP1 PUSH1 0x20 ADD DUP1 DUP4 GT PUSH2 0x177C JUMPI DUP3 SWAP1 SUB PUSH1 0x1F AND DUP3 ADD SWAP2 JUMPDEST POP POP POP POP POP DUP2 MSTORE PUSH1 0x20 ADD SWAP1 PUSH1 0x1 ADD SWAP1 PUSH2 0x1701 JUMP JUMPDEST POP POP POP POP DUP2 MSTORE POP POP SWAP1 POP PUSH1 0x0 PUSH1 0xC PUSH1 0x0 CALLER PUSH20 0xFFFFFFFFFFFFFFFFFFFFFFFFFFFFFFFFFFFFFFFF AND PUSH20 0xFFFFFFFFFFFFFFFFFFFFFFFFFFFFFFFFFFFFFFFF AND DUP2 MSTORE PUSH1 0x20 ADD SWAP1 DUP2 MSTORE PUSH1 0x20 ADD PUSH1 0x0 KECCAK256 PUSH1 0x0 SWAP1 SLOAD SWAP1 PUSH2 0x100 EXP SWAP1 DIV PUSH20 0xFFFFFFFFFFFFFFFFFFFFFFFFFFFFFFFFFFFFFFFF AND SWAP1 POP PUSH1 0x0 PUSH1 0xB PUSH1 0x0 DUP4 PUSH20 0xFFFFFFFFFFFFFFFFFFFFFFFFFFFFFFFFFFFFFFFF AND PUSH20 0xFFFFFFFFFFFFFFFFFFFFFFFFFFFFFFFFFFFFFFFF AND DUP2 MSTORE PUSH1 0x20 ADD SWAP1 DUP2 MSTORE PUSH1 0x20 ADD PUSH1 0x0 KECCAK256 PUSH1 0x40 MLOAD DUP1 PUSH1 0x60 ADD PUSH1 0x40 MSTORE SWAP1 DUP2 PUSH1 0x0 DUP3 ADD DUP1 SLOAD PUSH2 0x1877 SWAP1 PUSH2 0x4A78 JUMP JUMPDEST DUP1 PUSH1 0x1F ADD PUSH1 0x20 DUP1 SWAP2 DIV MUL PUSH1 0x20 ADD PUSH1 0x40 MLOAD SWAP1 DUP2 ADD PUSH1 0x40 MSTORE DUP1 SWAP3 SWAP2 SWAP1 DUP2 DUP2 MSTORE PUSH1 0x20 ADD DUP3 DUP1 SLOAD PUSH2 0x18A3 SWAP1 PUSH2 0x4A78 JUMP JUMPDEST DUP1 ISZERO PUSH2 0x18F0 JUMPI DUP1 PUSH1 0x1F LT PUSH2 0x18C5 JUMPI PUSH2 0x100 DUP1 DUP4 SLOAD DIV MUL DUP4 MSTORE SWAP2 PUSH1 0x20 ADD SWAP2 PUSH2 0x18F0 JUMP JUMPDEST DUP3 ADD SWAP2 SWAP1 PUSH1 0x0 MSTORE PUSH1 0x20 PUSH1 0x0 KECCAK256 SWAP1 JUMPDEST DUP2 SLOAD DUP2 MSTORE SWAP1 PUSH1 0x1 ADD SWAP1 PUSH1 0x20 ADD DUP1 DUP4 GT PUSH2 0x18D3 JUMPI DUP3 SWAP1 SUB PUSH1 0x1F AND DUP3 ADD SWAP2 JUMPDEST POP POP POP POP POP DUP2 MSTORE PUSH1 0x20 ADD PUSH1 0x1 DUP3 ADD DUP1 SLOAD PUSH2 0x1909 SWAP1 PUSH2 0x4A78 JUMP JUMPDEST DUP1 PUSH1 0x1F ADD PUSH1 0x20 DUP1 SWAP2 DIV MUL PUSH1 0x20 ADD PUSH1 0x40 MLOAD SWAP1 DUP2 ADD PUSH1 0x40 MSTORE DUP1 SWAP3 SWAP2 SWAP1 DUP2 DUP2 MSTORE PUSH1 0x20 ADD DUP3 DUP1 SLOAD PUSH2 0x1935 SWAP1 PUSH2 0x4A78 JUMP JUMPDEST DUP1 ISZERO PUSH2 0x1982 JUMPI DUP1 PUSH1 0x1F LT PUSH2 0x1957 JUMPI PUSH2 0x100 DUP1 DUP4 SLOAD DIV MUL DUP4 MSTORE SWAP2 PUSH1 0x20 ADD SWAP2 PUSH2 0x1982 JUMP JUMPDEST DUP3 ADD SWAP2 SWAP1 PUSH1 0x0 MSTORE PUSH1 0x20 PUSH1 0x0 KECCAK256 SWAP1 JUMPDEST DUP2 SLOAD DUP2 MSTORE SWAP1 PUSH1 0x1 ADD SWAP1 PUSH1 0x20 ADD DUP1 DUP4 GT PUSH2 0x1965 JUMPI DUP3 SWAP1 SUB PUSH1 0x1F AND DUP3 ADD SWAP2 JUMPDEST POP POP POP POP POP DUP2 MSTORE PUSH1 0x20 ADD PUSH1 0x2 DUP3 ADD SLOAD DUP2 MSTORE POP POP SWAP1 POP DUP3 PUSH1 0x20 ADD MLOAD SWAP9 POP DUP3 PUSH1 0x40 ADD MLOAD SWAP8 POP DUP1 PUSH1 0x20 ADD MLOAD SWAP7 POP DUP1 PUSH1 0x0 ADD MLOAD SWAP6 POP DUP3 PUSH1 0x60 ADD MLOAD SWAP5 POP POP POP POP POP SWAP1 SWAP2 SWAP3 SWAP4 SWAP5 JUMP JUMPDEST PUSH1 0x3 PUSH1 0x2 PUSH1 0x0 CALLER PUSH20 0xFFFFFFFFFFFFFFFFFFFFFFFFFFFFFFFFFFFFFFFF AND PUSH20 0xFFFFFFFFFFFFFFFFFFFFFFFFFFFFFFFFFFFFFFFF AND DUP2 MSTORE PUSH1 0x20 ADD SWAP1 DUP2 MSTORE PUSH1 0x20 ADD PUSH1 0x0 KECCAK256 PUSH1 0x0 ADD SLOAD DUP2 PUSH1 0x5 DUP2 GT ISZERO PUSH2 0x1A1D JUMPI PUSH2 0x1A1C PUSH2 0x4ADB JUMP JUMPDEST JUMPDEST EQ PUSH2 0x1A5D JUMPI PUSH1 0x40 MLOAD PUSH32 0x8C379A000000000000000000000000000000000000000000000000000000000 DUP2 MSTORE PUSH1 0x4 ADD PUSH2 0x1A54 SWAP1 PUSH2 0x4832 JUMP JUMPDEST PUSH1 0x40 MLOAD DUP1 SWAP2 SUB SWAP1 REVERT JUMPDEST PUSH1 0x0 PUSH1 0x40 MLOAD DUP1 PUSH1 0x60 ADD PUSH1 0x40 MSTORE DUP1 DUP7 DUP2 MSTORE PUSH1 0x20 ADD DUP6 DUP2 MSTORE PUSH1 0x20 ADD PUSH1 0x0 DUP2 MSTORE POP SWAP1 POP DUP1 PUSH1 0xB PUSH1 0x0 DUP9 PUSH20 0xFFFFFFFFFFFFFFFFFFFFFFFFFFFFFFFFFFFFFFFF AND PUSH20 0xFFFFFFFFFFFFFFFFFFFFFFFFFFFFFFFFFFFFFFFF AND DUP2 MSTORE PUSH1 0x20 ADD SWAP1 DUP2 MSTORE PUSH1 0x20 ADD PUSH1 0x0 KECCAK256 PUSH1 0x0 DUP3 ADD MLOAD DUP2 PUSH1 0x0 ADD SWAP1 DUP1 MLOAD SWAP1 PUSH1 0x20 ADD SWAP1 PUSH2 0x1AD9 SWAP3 SWAP2 SWAP1 PUSH2 0x3B20 JUMP JUMPDEST POP PUSH1 0x20 DUP3 ADD MLOAD DUP2 PUSH1 0x1 ADD SWAP1 DUP1 MLOAD SWAP1 PUSH1 0x20 ADD SWAP1 PUSH2 0x1AF6 SWAP3 SWAP2 SWAP1 PUSH2 0x3B20 JUMP JUMPDEST POP PUSH1 0x40 DUP3 ADD MLOAD DUP2 PUSH1 0x2 ADD SSTORE SWAP1 POP POP PUSH1 0x0 PUSH1 0x2 PUSH1 0x5 DUP2 GT ISZERO PUSH2 0x1B1A JUMPI PUSH2 0x1B19 PUSH2 0x4ADB JUMP JUMPDEST JUMPDEST SWAP1 POP PUSH2 0x1B37 PUSH1 0x40 MLOAD DUP1 PUSH1 0x20 ADD PUSH1 0x40 MSTORE DUP1 PUSH1 0x0 DUP2 MSTORE POP DUP6 DUP4 DUP11 PUSH2 0x37C3 JUMP JUMPDEST POP POP POP POP POP POP POP JUMP JUMPDEST PUSH2 0x1C23 PUSH1 0x2 PUSH1 0x0 CALLER PUSH20 0xFFFFFFFFFFFFFFFFFFFFFFFFFFFFFFFFFFFFFFFF AND PUSH20 0xFFFFFFFFFFFFFFFFFFFFFFFFFFFFFFFFFFFFFFFF AND DUP2 MSTORE PUSH1 0x20 ADD SWAP1 DUP2 MSTORE PUSH1 0x20 ADD PUSH1 0x0 KECCAK256 PUSH1 0x1 ADD DUP1 SLOAD PUSH2 0x1B90 SWAP1 PUSH2 0x4A78 JUMP JUMPDEST DUP1 PUSH1 0x1F ADD PUSH1 0x20 DUP1 SWAP2 DIV MUL PUSH1 0x20 ADD PUSH1 0x40 MLOAD SWAP1 DUP2 ADD PUSH1 0x40 MSTORE DUP1 SWAP3 SWAP2 SWAP1 DUP2 DUP2 MSTORE PUSH1 0x20 ADD DUP3 DUP1 SLOAD PUSH2 0x1BBC SWAP1 PUSH2 0x4A78 JUMP JUMPDEST DUP1 ISZERO PUSH2 0x1C09 JUMPI DUP1 PUSH1 0x1F LT PUSH2 0x1BDE JUMPI PUSH2 0x100 DUP1 DUP4 SLOAD DIV MUL DUP4 MSTORE SWAP2 PUSH1 0x20 ADD SWAP2 PUSH2 0x1C09 JUMP JUMPDEST DUP3 ADD SWAP2 SWAP1 PUSH1 0x0 MSTORE PUSH1 0x20 PUSH1 0x0 KECCAK256 SWAP1 JUMPDEST DUP2 SLOAD DUP2 MSTORE SWAP1 PUSH1 0x1 ADD SWAP1 PUSH1 0x20 ADD DUP1 DUP4 GT PUSH2 0x1BEC JUMPI DUP3 SWAP1 SUB PUSH1 0x1F AND DUP3 ADD SWAP2 JUMPDEST POP POP POP POP POP PUSH1 0x40 MLOAD DUP1 PUSH1 0x20 ADD PUSH1 0x40 MSTORE DUP1 PUSH1 0x0 DUP2 MSTORE POP PUSH2 0x3AC7 JUMP JUMPDEST ISZERO PUSH2 0x1C63 JUMPI PUSH1 0x40 MLOAD PUSH32 0x8C379A000000000000000000000000000000000000000000000000000000000 DUP2 MSTORE PUSH1 0x4 ADD PUSH2 0x1C5A SWAP1 PUSH2 0x4852 JUMP JUMPDEST PUSH1 0x40 MLOAD DUP1 SWAP2 SUB SWAP1 REVERT JUMPDEST PUSH1 0x0 ISZERO ISZERO PUSH1 0x11 DUP3 PUSH1 0x40 MLOAD PUSH2 0x1C77 SWAP2 SWAP1 PUSH2 0x45AD JUMP JUMPDEST SWAP1 DUP2 MSTORE PUSH1 0x20 ADD PUSH1 0x40 MLOAD DUP1 SWAP2 SUB SWAP1 KECCAK256 PUSH1 0x0 CALLER PUSH20 0xFFFFFFFFFFFFFFFFFFFFFFFFFFFFFFFFFFFFFFFF AND PUSH20 0xFFFFFFFFFFFFFFFFFFFFFFFFFFFFFFFFFFFFFFFF AND DUP2 MSTORE PUSH1 0x20 ADD SWAP1 DUP2 MSTORE PUSH1 0x20 ADD PUSH1 0x0 KECCAK256 PUSH1 0x0 SWAP1 SLOAD SWAP1 PUSH2 0x100 EXP SWAP1 DIV PUSH1 0xFF AND ISZERO ISZERO EQ PUSH2 0x1D12 JUMPI PUSH1 0x40 MLOAD PUSH32 0x8C379A000000000000000000000000000000000000000000000000000000000 DUP2 MSTORE PUSH1 0x4 ADD PUSH2 0x1D09 SWAP1 PUSH2 0x47D2 JUMP JUMPDEST PUSH1 0x40 MLOAD DUP1 SWAP2 SUB SWAP1 REVERT JUMPDEST PUSH1 0xF DUP2 PUSH1 0x40 MLOAD PUSH2 0x1D22 SWAP2 SWAP1 PUSH2 0x45AD JUMP JUMPDEST SWAP1 DUP2 MSTORE PUSH1 0x20 ADD PUSH1 0x40 MLOAD DUP1 SWAP2 SUB SWAP1 KECCAK256 PUSH1 0x3 ADD CALLER SWAP1 DUP1 PUSH1 0x1 DUP2 SLOAD ADD DUP1 DUP3 SSTORE DUP1 SWAP2 POP POP PUSH1 0x1 SWAP1 SUB SWAP1 PUSH1 0x0 MSTORE PUSH1 0x20 PUSH1 0x0 KECCAK256 ADD PUSH1 0x0 SWAP1 SWAP2 SWAP1 SWAP2 SWAP1 SWAP2 PUSH2 0x100 EXP DUP2 SLOAD DUP2 PUSH20 0xFFFFFFFFFFFFFFFFFFFFFFFFFFFFFFFFFFFFFFFF MUL NOT AND SWAP1 DUP4 PUSH20 0xFFFFFFFFFFFFFFFFFFFFFFFFFFFFFFFFFFFFFFFF AND MUL OR SWAP1 SSTORE POP PUSH1 0x1 PUSH1 0x11 DUP3 PUSH1 0x40 MLOAD PUSH2 0x1DA6 SWAP2 SWAP1 PUSH2 0x45AD JUMP JUMPDEST SWAP1 DUP2 MSTORE PUSH1 0x20 ADD PUSH1 0x40 MLOAD DUP1 SWAP2 SUB SWAP1 KECCAK256 PUSH1 0x0 CALLER PUSH20 0xFFFFFFFFFFFFFFFFFFFFFFFFFFFFFFFFFFFFFFFF AND PUSH20 0xFFFFFFFFFFFFFFFFFFFFFFFFFFFFFFFFFFFFFFFF AND DUP2 MSTORE PUSH1 0x20 ADD SWAP1 DUP2 MSTORE PUSH1 0x20 ADD PUSH1 0x0 KECCAK256 PUSH1 0x0 PUSH2 0x100 EXP DUP2 SLOAD DUP2 PUSH1 0xFF MUL NOT AND SWAP1 DUP4 ISZERO ISZERO MUL OR SWAP1 SSTORE POP POP JUMP JUMPDEST PUSH1 0x5 PUSH1 0x0 SWAP1 SLOAD SWAP1 PUSH2 0x100 EXP SWAP1 DIV PUSH20 0xFFFFFFFFFFFFFFFFFFFFFFFFFFFFFFFFFFFFFFFF AND PUSH20 0xFFFFFFFFFFFFFFFFFFFFFFFFFFFFFFFFFFFFFFFF AND CALLER PUSH20 0xFFFFFFFFFFFFFFFFFFFFFFFFFFFFFFFFFFFFFFFF AND EQ PUSH2 0x1E9B JUMPI PUSH1 0x40 MLOAD PUSH32 0x8C379A000000000000000000000000000000000000000000000000000000000 DUP2 MSTORE PUSH1 0x4 ADD PUSH2 0x1E92 SWAP1 PUSH2 0x4872 JUMP JUMPDEST PUSH1 0x40 MLOAD DUP1 SWAP2 SUB SWAP1 REVERT JUMPDEST PUSH1 0x0 PUSH1 0x4 PUSH1 0x5 DUP2 GT ISZERO PUSH2 0x1EB1 JUMPI PUSH2 0x1EB0 PUSH2 0x4ADB JUMP JUMPDEST JUMPDEST SWAP1 POP PUSH2 0x1ECE PUSH1 0x40 MLOAD DUP1 PUSH1 0x20 ADD PUSH1 0x40 MSTORE DUP1 PUSH1 0x0 DUP2 MSTORE POP DUP5 DUP4 DUP6 PUSH2 0x37C3 JUMP JUMPDEST DUP2 PUSH1 0x4 PUSH1 0x0 PUSH2 0x100 EXP DUP2 SLOAD DUP2 PUSH20 0xFFFFFFFFFFFFFFFFFFFFFFFFFFFFFFFFFFFFFFFF MUL NOT AND SWAP1 DUP4 PUSH20 0xFFFFFFFFFFFFFFFFFFFFFFFFFFFFFFFFFFFFFFFF AND MUL OR SWAP1 SSTORE POP POP POP POP JUMP JUMPDEST PUSH1 0x5 PUSH1 0x2 PUSH1 0x0 CALLER PUSH20 0xFFFFFFFFFFFFFFFFFFFFFFFFFFFFFFFFFFFFFFFF AND PUSH20 0xFFFFFFFFFFFFFFFFFFFFFFFFFFFFFFFFFFFFFFFF AND DUP2 MSTORE PUSH1 0x20 ADD SWAP1 DUP2 MSTORE PUSH1 0x20 ADD PUSH1 0x0 KECCAK256 PUSH1 0x0 ADD SLOAD DUP2 PUSH1 0x5 DUP2 GT ISZERO PUSH2 0x1F6C JUMPI PUSH2 0x1F6B PUSH2 0x4ADB JUMP JUMPDEST JUMPDEST EQ PUSH2 0x1FAC JUMPI PUSH1 0x40 MLOAD PUSH32 0x8C379A000000000000000000000000000000000000000000000000000000000 DUP2 MSTORE PUSH1 0x4 ADD PUSH2 0x1FA3 SWAP1 PUSH2 0x4832 JUMP JUMPDEST PUSH1 0x40 MLOAD DUP1 SWAP2 SUB SWAP1 REVERT JUMPDEST PUSH9 0x3635C9ADC5DEA00000 CALLER PUSH20 0xFFFFFFFFFFFFFFFFFFFFFFFFFFFFFFFFFFFFFFFF AND BALANCE LT ISZERO PUSH2 0x200F JUMPI PUSH1 0x40 MLOAD PUSH32 0x8C379A000000000000000000000000000000000000000000000000000000000 DUP2 MSTORE PUSH1 0x4 ADD PUSH2 0x2006 SWAP1 PUSH2 0x4812 JUMP JUMPDEST PUSH1 0x40 MLOAD DUP1 SWAP2 SUB SWAP1 REVERT JUMPDEST DUP2 PUSH20 0xFFFFFFFFFFFFFFFFFFFFFFFFFFFFFFFFFFFFFFFF AND PUSH2 0x8FC PUSH9 0x3635C9ADC5DEA00000 SWAP1 DUP2 ISZERO MUL SWAP1 PUSH1 0x40 MLOAD PUSH1 0x0 PUSH1 0x40 MLOAD DUP1 DUP4 SUB DUP2 DUP6 DUP9 DUP9 CALL SWAP4 POP POP POP POP ISZERO DUP1 ISZERO PUSH2 0x205E JUMPI RETURNDATASIZE PUSH1 0x0 DUP1 RETURNDATACOPY RETURNDATASIZE PUSH1 0x0 REVERT JUMPDEST POP POP POP JUMP JUMPDEST PUSH1 0x0 PUSH1 0x1 PUSH1 0x5 DUP2 GT ISZERO PUSH2 0x2079 JUMPI PUSH2 0x2078 PUSH2 0x4ADB JUMP JUMPDEST JUMPDEST SWAP1 POP PUSH2 0x2087 DUP6 DUP6 DUP4 DUP7 PUSH2 0x37C3 JUMP JUMPDEST PUSH1 0x8 DUP4 SWAP1 DUP1 PUSH1 0x1 DUP2 SLOAD ADD DUP1 DUP3 SSTORE DUP1 SWAP2 POP POP PUSH1 0x1 SWAP1 SUB SWAP1 PUSH1 0x0 MSTORE PUSH1 0x20 PUSH1 0x0 KECCAK256 ADD PUSH1 0x0 SWAP1 SWAP2 SWAP1 SWAP2 SWAP1 SWAP2 PUSH2 0x100 EXP DUP2 SLOAD DUP2 PUSH20 0xFFFFFFFFFFFFFFFFFFFFFFFFFFFFFFFFFFFFFFFF MUL NOT AND SWAP1 DUP4 PUSH20 0xFFFFFFFFFFFFFFFFFFFFFFFFFFFFFFFFFFFFFFFF AND MUL OR SWAP1 SSTORE POP PUSH1 0xD PUSH1 0x0 DUP4 PUSH20 0xFFFFFFFFFFFFFFFFFFFFFFFFFFFFFFFFFFFFFFFF AND PUSH20 0xFFFFFFFFFFFFFFFFFFFFFFFFFFFFFFFFFFFFFFFF AND DUP2 MSTORE PUSH1 0x20 ADD SWAP1 DUP2 MSTORE PUSH1 0x20 ADD PUSH1 0x0 KECCAK256 DUP4 SWAP1 DUP1 PUSH1 0x1 DUP2 SLOAD ADD DUP1 DUP3 SSTORE DUP1 SWAP2 POP POP PUSH1 0x1 SWAP1 SUB SWAP1 PUSH1 0x0 MSTORE PUSH1 0x20 PUSH1 0x0 KECCAK256 ADD PUSH1 0x0 SWAP1 SWAP2 SWAP1 SWAP2 SWAP1 SWAP2 PUSH2 0x100 EXP DUP2 SLOAD DUP2 PUSH20 0xFFFFFFFFFFFFFFFFFFFFFFFFFFFFFFFFFFFFFFFF MUL NOT AND SWAP1 DUP4 PUSH20 0xFFFFFFFFFFFFFFFFFFFFFFFFFFFFFFFFFFFFFFFF AND MUL OR SWAP1 SSTORE POP POP POP POP POP POP JUMP JUMPDEST PUSH1 0x60 DUP1 PUSH1 0x0 PUSH1 0x60 PUSH2 0x227B PUSH1 0x2 PUSH1 0x0 CALLER PUSH20 0xFFFFFFFFFFFFFFFFFFFFFFFFFFFFFFFFFFFFFFFF AND PUSH20 0xFFFFFFFFFFFFFFFFFFFFFFFFFFFFFFFFFFFFFFFF AND DUP2 MSTORE PUSH1 0x20 ADD SWAP1 DUP2 MSTORE PUSH1 0x20 ADD PUSH1 0x0 KECCAK256 PUSH1 0x1 ADD DUP1 SLOAD PUSH2 0x21E8 SWAP1 PUSH2 0x4A78 JUMP JUMPDEST DUP1 PUSH1 0x1F ADD PUSH1 0x20 DUP1 SWAP2 DIV MUL PUSH1 0x20 ADD PUSH1 0x40 MLOAD SWAP1 DUP2 ADD PUSH1 0x40 MSTORE DUP1 SWAP3 SWAP2 SWAP1 DUP2 DUP2 MSTORE PUSH1 0x20 ADD DUP3 DUP1 SLOAD PUSH2 0x2214 SWAP1 PUSH2 0x4A78 JUMP JUMPDEST DUP1 ISZERO PUSH2 0x2261 JUMPI DUP1 PUSH1 0x1F LT PUSH2 0x2236 JUMPI PUSH2 0x100 DUP1 DUP4 SLOAD DIV MUL DUP4 MSTORE SWAP2 PUSH1 0x20 ADD SWAP2 PUSH2 0x2261 JUMP JUMPDEST DUP3 ADD SWAP2 SWAP1 PUSH1 0x0 MSTORE PUSH1 0x20 PUSH1 0x0 KECCAK256 SWAP1 JUMPDEST DUP2 SLOAD DUP2 MSTORE SWAP1 PUSH1 0x1 ADD SWAP1 PUSH1 0x20 ADD DUP1 DUP4 GT PUSH2 0x2244 JUMPI DUP3 SWAP1 SUB PUSH1 0x1F AND DUP3 ADD SWAP2 JUMPDEST POP POP POP POP POP PUSH1 0x40 MLOAD DUP1 PUSH1 0x20 ADD PUSH1 0x40 MSTORE DUP1 PUSH1 0x0 DUP2 MSTORE POP PUSH2 0x3AC7 JUMP JUMPDEST ISZERO PUSH2 0x22BB JUMPI PUSH1 0x40 MLOAD PUSH32 0x8C379A000000000000000000000000000000000000000000000000000000000 DUP2 MSTORE PUSH1 0x4 ADD PUSH2 0x22B2 SWAP1 PUSH2 0x4852 JUMP JUMPDEST PUSH1 0x40 MLOAD DUP1 SWAP2 SUB SWAP1 REVERT JUMPDEST PUSH1 0x0 PUSH1 0x2 PUSH1 0x0 CALLER PUSH20 0xFFFFFFFFFFFFFFFFFFFFFFFFFFFFFFFFFFFFFFFF AND PUSH20 0xFFFFFFFFFFFFFFFFFFFFFFFFFFFFFFFFFFFFFFFF AND DUP2 MSTORE PUSH1 0x20 ADD SWAP1 DUP2 MSTORE PUSH1 0x20 ADD PUSH1 0x0 KECCAK256 PUSH1 0x40 MLOAD DUP1 PUSH1 0x80 ADD PUSH1 0x40 MSTORE SWAP1 DUP2 PUSH1 0x0 DUP3 ADD SLOAD DUP2 MSTORE PUSH1 0x20 ADD PUSH1 0x1 DUP3 ADD DUP1 SLOAD PUSH2 0x2321 SWAP1 PUSH2 0x4A78 JUMP JUMPDEST DUP1 PUSH1 0x1F ADD PUSH1 0x20 DUP1 SWAP2 DIV MUL PUSH1 0x20 ADD PUSH1 0x40 MLOAD SWAP1 DUP2 ADD PUSH1 0x40 MSTORE DUP1 SWAP3 SWAP2 SWAP1 DUP2 DUP2 MSTORE PUSH1 0x20 ADD DUP3 DUP1 SLOAD PUSH2 0x234D SWAP1 PUSH2 0x4A78 JUMP JUMPDEST DUP1 ISZERO PUSH2 0x239A JUMPI DUP1 PUSH1 0x1F LT PUSH2 0x236F JUMPI PUSH2 0x100 DUP1 DUP4 SLOAD DIV MUL DUP4 MSTORE SWAP2 PUSH1 0x20 ADD SWAP2 PUSH2 0x239A JUMP JUMPDEST DUP3 ADD SWAP2 SWAP1 PUSH1 0x0 MSTORE PUSH1 0x20 PUSH1 0x0 KECCAK256 SWAP1 JUMPDEST DUP2 SLOAD DUP2 MSTORE SWAP1 PUSH1 0x1 ADD SWAP1 PUSH1 0x20 ADD DUP1 DUP4 GT PUSH2 0x237D JUMPI DUP3 SWAP1 SUB PUSH1 0x1F AND DUP3 ADD SWAP2 JUMPDEST POP POP POP POP POP DUP2 MSTORE PUSH1 0x20 ADD PUSH1 0x2 DUP3 ADD DUP1 SLOAD PUSH2 0x23B3 SWAP1 PUSH2 0x4A78 JUMP JUMPDEST DUP1 PUSH1 0x1F ADD PUSH1 0x20 DUP1 SWAP2 DIV MUL PUSH1 0x20 ADD PUSH1 0x40 MLOAD SWAP1 DUP2 ADD PUSH1 0x40 MSTORE DUP1 SWAP3 SWAP2 SWAP1 DUP2 DUP2 MSTORE PUSH1 0x20 ADD DUP3 DUP1 SLOAD PUSH2 0x23DF SWAP1 PUSH2 0x4A78 JUMP JUMPDEST DUP1 ISZERO PUSH2 0x242C JUMPI DUP1 PUSH1 0x1F LT PUSH2 0x2401 JUMPI PUSH2 0x100 DUP1 DUP4 SLOAD DIV MUL DUP4 MSTORE SWAP2 PUSH1 0x20 ADD SWAP2 PUSH2 0x242C JUMP JUMPDEST DUP3 ADD SWAP2 SWAP1 PUSH1 0x0 MSTORE PUSH1 0x20 PUSH1 0x0 KECCAK256 SWAP1 JUMPDEST DUP2 SLOAD DUP2 MSTORE SWAP1 PUSH1 0x1 ADD SWAP1 PUSH1 0x20 ADD DUP1 DUP4 GT PUSH2 0x240F JUMPI DUP3 SWAP1 SUB PUSH1 0x1F AND DUP3 ADD SWAP2 JUMPDEST POP POP POP POP POP DUP2 MSTORE PUSH1 0x20 ADD PUSH1 0x3 DUP3 ADD DUP1 SLOAD DUP1 PUSH1 0x20 MUL PUSH1 0x20 ADD PUSH1 0x40 MLOAD SWAP1 DUP2 ADD PUSH1 0x40 MSTORE DUP1 SWAP3 SWAP2 SWAP1 DUP2 DUP2 MSTORE PUSH1 0x20 ADD PUSH1 0x0 SWAP1 JUMPDEST DUP3 DUP3 LT ISZERO PUSH2 0x2506 JUMPI DUP4 DUP3 SWAP1 PUSH1 0x0 MSTORE PUSH1 0x20 PUSH1 0x0 KECCAK256 ADD DUP1 SLOAD PUSH2 0x2479 SWAP1 PUSH2 0x4A78 JUMP JUMPDEST DUP1 PUSH1 0x1F ADD PUSH1 0x20 DUP1 SWAP2 DIV MUL PUSH1 0x20 ADD PUSH1 0x40 MLOAD SWAP1 DUP2 ADD PUSH1 0x40 MSTORE DUP1 SWAP3 SWAP2 SWAP1 DUP2 DUP2 MSTORE PUSH1 0x20 ADD DUP3 DUP1 SLOAD PUSH2 0x24A5 SWAP1 PUSH2 0x4A78 JUMP JUMPDEST DUP1 ISZERO PUSH2 0x24F2 JUMPI DUP1 PUSH1 0x1F LT PUSH2 0x24C7 JUMPI PUSH2 0x100 DUP1 DUP4 SLOAD DIV MUL DUP4 MSTORE SWAP2 PUSH1 0x20 ADD SWAP2 PUSH2 0x24F2 JUMP JUMPDEST DUP3 ADD SWAP2 SWAP1 PUSH1 0x0 MSTORE PUSH1 0x20 PUSH1 0x0 KECCAK256 SWAP1 JUMPDEST DUP2 SLOAD DUP2 MSTORE SWAP1 PUSH1 0x1 ADD SWAP1 PUSH1 0x20 ADD DUP1 DUP4 GT PUSH2 0x24D5 JUMPI DUP3 SWAP1 SUB PUSH1 0x1F AND DUP3 ADD SWAP2 JUMPDEST POP POP POP POP POP DUP2 MSTORE PUSH1 0x20 ADD SWAP1 PUSH1 0x1 ADD SWAP1 PUSH2 0x245A JUMP JUMPDEST POP POP POP POP DUP2 MSTORE POP POP SWAP1 POP DUP1 PUSH1 0x20 ADD MLOAD SWAP5 POP DUP1 PUSH1 0x40 ADD MLOAD SWAP4 POP CALLER PUSH20 0xFFFFFFFFFFFFFFFFFFFFFFFFFFFFFFFFFFFFFFFF AND BALANCE SWAP3 POP DUP1 PUSH1 0x60 ADD MLOAD SWAP2 POP POP SWAP1 SWAP2 SWAP3 SWAP4 JUMP JUMPDEST PUSH1 0x0 DUP1 PUSH1 0x5 DUP2 GT ISZERO PUSH2 0x255B JUMPI PUSH2 0x255A PUSH2 0x4ADB JUMP JUMPDEST JUMPDEST SWAP1 POP PUSH2 0x2569 DUP5 DUP5 DUP4 DUP6 PUSH2 0x37C3 JUMP JUMPDEST POP POP POP POP JUMP JUMPDEST PUSH1 0x3 PUSH1 0x2 PUSH1 0x0 CALLER PUSH20 0xFFFFFFFFFFFFFFFFFFFFFFFFFFFFFFFFFFFFFFFF AND PUSH20 0xFFFFFFFFFFFFFFFFFFFFFFFFFFFFFFFFFFFFFFFF AND DUP2 MSTORE PUSH1 0x20 ADD SWAP1 DUP2 MSTORE PUSH1 0x20 ADD PUSH1 0x0 KECCAK256 PUSH1 0x0 ADD SLOAD DUP2 PUSH1 0x5 DUP2 GT ISZERO PUSH2 0x25C7 JUMPI PUSH2 0x25C6 PUSH2 0x4ADB JUMP JUMPDEST JUMPDEST EQ PUSH2 0x2607 JUMPI PUSH1 0x40 MLOAD PUSH32 0x8C379A000000000000000000000000000000000000000000000000000000000 DUP2 MSTORE PUSH1 0x4 ADD PUSH2 0x25FE SWAP1 PUSH2 0x4832 JUMP JUMPDEST PUSH1 0x40 MLOAD DUP1 SWAP2 SUB SWAP1 REVERT JUMPDEST PUSH1 0x0 PUSH1 0x3 PUSH1 0x5 DUP2 GT ISZERO PUSH2 0x261D JUMPI PUSH2 0x261C PUSH2 0x4ADB JUMP JUMPDEST JUMPDEST SWAP1 POP PUSH2 0x262B DUP5 DUP5 DUP4 DUP9 PUSH2 0x37C3 JUMP JUMPDEST PUSH1 0x6 DUP4 SWAP1 DUP1 PUSH1 0x1 DUP2 SLOAD ADD DUP1 DUP3 SSTORE DUP1 SWAP2 POP POP PUSH1 0x1 SWAP1 SUB SWAP1 PUSH1 0x0 MSTORE PUSH1 0x20 PUSH1 0x0 KECCAK256 ADD PUSH1 0x0 SWAP1 SWAP2 SWAP1 SWAP2 SWAP1 SWAP2 POP SWAP1 DUP1 MLOAD SWAP1 PUSH1 0x20 ADD SWAP1 PUSH2 0x2666 SWAP3 SWAP2 SWAP1 PUSH2 0x3B20 JUMP JUMPDEST POP POP POP POP POP POP JUMP JUMPDEST PUSH1 0x0 PUSH1 0x2 PUSH1 0x0 CALLER PUSH20 0xFFFFFFFFFFFFFFFFFFFFFFFFFFFFFFFFFFFFFFFF AND PUSH20 0xFFFFFFFFFFFFFFFFFFFFFFFFFFFFFFFFFFFFFFFF AND DUP2 MSTORE PUSH1 0x20 ADD SWAP1 DUP2 MSTORE PUSH1 0x20 ADD PUSH1 0x0 KECCAK256 PUSH1 0x0 ADD SLOAD DUP2 PUSH1 0x5 DUP2 GT ISZERO PUSH2 0x26C6 JUMPI PUSH2 0x26C5 PUSH2 0x4ADB JUMP JUMPDEST JUMPDEST EQ PUSH2 0x2706 JUMPI PUSH1 0x40 MLOAD PUSH32 0x8C379A000000000000000000000000000000000000000000000000000000000 DUP2 MSTORE PUSH1 0x4 ADD PUSH2 0x26FD SWAP1 PUSH2 0x4832 JUMP JUMPDEST PUSH1 0x40 MLOAD DUP1 SWAP2 SUB SWAP1 REVERT JUMPDEST PUSH1 0x0 DUP1 PUSH1 0x0 DUP1 PUSH1 0x5 DUP2 GT ISZERO PUSH2 0x271E JUMPI PUSH2 0x271D PUSH2 0x4ADB JUMP JUMPDEST JUMPDEST DUP2 MSTORE PUSH1 0x20 ADD SWAP1 DUP2 MSTORE PUSH1 0x20 ADD PUSH1 0x0 KECCAK256 DUP1 SLOAD PUSH2 0x2737 SWAP1 PUSH2 0x4A78 JUMP JUMPDEST DUP1 PUSH1 0x1F ADD PUSH1 0x20 DUP1 SWAP2 DIV MUL PUSH1 0x20 ADD PUSH1 0x40 MLOAD SWAP1 DUP2 ADD PUSH1 0x40 MSTORE DUP1 SWAP3 SWAP2 SWAP1 DUP2 DUP2 MSTORE PUSH1 0x20 ADD DUP3 DUP1 SLOAD PUSH2 0x2763 SWAP1 PUSH2 0x4A78 JUMP JUMPDEST DUP1 ISZERO PUSH2 0x27B0 JUMPI DUP1 PUSH1 0x1F LT PUSH2 0x2785 JUMPI PUSH2 0x100 DUP1 DUP4 SLOAD DIV MUL DUP4 MSTORE SWAP2 PUSH1 0x20 ADD SWAP2 PUSH2 0x27B0 JUMP JUMPDEST DUP3 ADD SWAP2 SWAP1 PUSH1 0x0 MSTORE PUSH1 0x20 PUSH1 0x0 KECCAK256 SWAP1 JUMPDEST DUP2 SLOAD DUP2 MSTORE SWAP1 PUSH1 0x1 ADD SWAP1 PUSH1 0x20 ADD DUP1 DUP4 GT PUSH2 0x2793 JUMPI DUP3 SWAP1 SUB PUSH1 0x1F AND DUP3 ADD SWAP2 JUMPDEST POP POP POP POP POP SWAP1 POP PUSH1 0x0 DUP1 PUSH1 0x0 PUSH1 0x1 PUSH1 0x5 DUP2 GT ISZERO PUSH2 0x27D0 JUMPI PUSH2 0x27CF PUSH2 0x4ADB JUMP JUMPDEST JUMPDEST DUP2 MSTORE PUSH1 0x20 ADD SWAP1 DUP2 MSTORE PUSH1 0x20 ADD PUSH1 0x0 KECCAK256 DUP1 SLOAD PUSH2 0x27E9 SWAP1 PUSH2 0x4A78 JUMP JUMPDEST DUP1 PUSH1 0x1F ADD PUSH1 0x20 DUP1 SWAP2 DIV MUL PUSH1 0x20 ADD PUSH1 0x40 MLOAD SWAP1 DUP2 ADD PUSH1 0x40 MSTORE DUP1 SWAP3 SWAP2 SWAP1 DUP2 DUP2 MSTORE PUSH1 0x20 ADD DUP3 DUP1 SLOAD PUSH2 0x2815 SWAP1 PUSH2 0x4A78 JUMP JUMPDEST DUP1 ISZERO PUSH2 0x2862 JUMPI DUP1 PUSH1 0x1F LT PUSH2 0x2837 JUMPI PUSH2 0x100 DUP1 DUP4 SLOAD DIV MUL DUP4 MSTORE SWAP2 PUSH1 0x20 ADD SWAP2 PUSH2 0x2862 JUMP JUMPDEST DUP3 ADD SWAP2 SWAP1 PUSH1 0x0 MSTORE PUSH1 0x20 PUSH1 0x0 KECCAK256 SWAP1 JUMPDEST DUP2 SLOAD DUP2 MSTORE SWAP1 PUSH1 0x1 ADD SWAP1 PUSH1 0x20 ADD DUP1 DUP4 GT PUSH2 0x2845 JUMPI DUP3 SWAP1 SUB PUSH1 0x1F AND DUP3 ADD SWAP2 JUMPDEST POP POP POP POP POP SWAP1 POP PUSH1 0x0 PUSH1 0x40 MLOAD DUP1 PUSH1 0x80 ADD PUSH1 0x40 MSTORE DUP1 CALLER PUSH20 0xFFFFFFFFFFFFFFFFFFFFFFFFFFFFFFFFFFFFFFFF AND DUP2 MSTORE PUSH1 0x20 ADD DUP5 DUP2 MSTORE PUSH1 0x20 ADD DUP4 DUP2 MSTORE PUSH1 0x20 ADD PUSH1 0x0 ISZERO ISZERO DUP2 MSTORE POP SWAP1 POP DUP1 PUSH1 0x10 DUP7 PUSH1 0x40 MLOAD PUSH2 0x28B8 SWAP2 SWAP1 PUSH2 0x45AD JUMP JUMPDEST SWAP1 DUP2 MSTORE PUSH1 0x20 ADD PUSH1 0x40 MLOAD DUP1 SWAP2 SUB SWAP1 KECCAK256 PUSH1 0x0 DUP3 ADD MLOAD DUP2 PUSH1 0x0 ADD PUSH1 0x0 PUSH2 0x100 EXP DUP2 SLOAD DUP2 PUSH20 0xFFFFFFFFFFFFFFFFFFFFFFFFFFFFFFFFFFFFFFFF MUL NOT AND SWAP1 DUP4 PUSH20 0xFFFFFFFFFFFFFFFFFFFFFFFFFFFFFFFFFFFFFFFF AND MUL OR SWAP1 SSTORE POP PUSH1 0x20 DUP3 ADD MLOAD DUP2 PUSH1 0x1 ADD SWAP1 DUP1 MLOAD SWAP1 PUSH1 0x20 ADD SWAP1 PUSH2 0x2929 SWAP3 SWAP2 SWAP1 PUSH2 0x3B20 JUMP JUMPDEST POP PUSH1 0x40 DUP3 ADD MLOAD DUP2 PUSH1 0x2 ADD SWAP1 DUP1 MLOAD SWAP1 PUSH1 0x20 ADD SWAP1 PUSH2 0x2946 SWAP3 SWAP2 SWAP1 PUSH2 0x3B20 JUMP JUMPDEST POP PUSH1 0x60 DUP3 ADD MLOAD DUP2 PUSH1 0x3 ADD PUSH1 0x0 PUSH2 0x100 EXP DUP2 SLOAD DUP2 PUSH1 0xFF MUL NOT AND SWAP1 DUP4 ISZERO ISZERO MUL OR SWAP1 SSTORE POP SWAP1 POP POP PUSH1 0xA DUP6 SWAP1 DUP1 PUSH1 0x1 DUP2 SLOAD ADD DUP1 DUP3 SSTORE DUP1 SWAP2 POP POP PUSH1 0x1 SWAP1 SUB SWAP1 PUSH1 0x0 MSTORE PUSH1 0x20 PUSH1 0x0 KECCAK256 ADD PUSH1 0x0 SWAP1 SWAP2 SWAP1 SWAP2 SWAP1 SWAP2 POP SWAP1 DUP1 MLOAD SWAP1 PUSH1 0x20 ADD SWAP1 PUSH2 0x29A5 SWAP3 SWAP2 SWAP1 PUSH2 0x3B20 JUMP JUMPDEST POP POP POP POP POP POP JUMP JUMPDEST PUSH1 0x1 PUSH1 0x2 PUSH1 0x0 CALLER PUSH20 0xFFFFFFFFFFFFFFFFFFFFFFFFFFFFFFFFFFFFFFFF AND PUSH20 0xFFFFFFFFFFFFFFFFFFFFFFFFFFFFFFFFFFFFFFFF AND DUP2 MSTORE PUSH1 0x20 ADD SWAP1 DUP2 MSTORE PUSH1 0x20 ADD PUSH1 0x0 KECCAK256 PUSH1 0x0 ADD SLOAD DUP2 PUSH1 0x5 DUP2 GT ISZERO PUSH2 0x2A05 JUMPI PUSH2 0x2A04 PUSH2 0x4ADB JUMP JUMPDEST JUMPDEST EQ PUSH2 0x2A45 JUMPI PUSH1 0x40 MLOAD PUSH32 0x8C379A000000000000000000000000000000000000000000000000000000000 DUP2 MSTORE PUSH1 0x4 ADD PUSH2 0x2A3C SWAP1 PUSH2 0x4832 JUMP JUMPDEST PUSH1 0x40 MLOAD DUP1 SWAP2 SUB SWAP1 REVERT JUMPDEST PUSH1 0x0 DUP1 PUSH1 0x0 DUP1 PUSH1 0x5 DUP2 GT ISZERO PUSH2 0x2A5D JUMPI PUSH2 0x2A5C PUSH2 0x4ADB JUMP JUMPDEST JUMPDEST DUP2 MSTORE PUSH1 0x20 ADD SWAP1 DUP2 MSTORE PUSH1 0x20 ADD PUSH1 0x0 KECCAK256 DUP1 SLOAD PUSH2 0x2A76 SWAP1 PUSH2 0x4A78 JUMP JUMPDEST DUP1 PUSH1 0x1F ADD PUSH1 0x20 DUP1 SWAP2 DIV MUL PUSH1 0x20 ADD PUSH1 0x40 MLOAD SWAP1 DUP2 ADD PUSH1 0x40 MSTORE DUP1 SWAP3 SWAP2 SWAP1 DUP2 DUP2 MSTORE PUSH1 0x20 ADD DUP3 DUP1 SLOAD PUSH2 0x2AA2 SWAP1 PUSH2 0x4A78 JUMP JUMPDEST DUP1 ISZERO PUSH2 0x2AEF JUMPI DUP1 PUSH1 0x1F LT PUSH2 0x2AC4 JUMPI PUSH2 0x100 DUP1 DUP4 SLOAD DIV MUL DUP4 MSTORE SWAP2 PUSH1 0x20 ADD SWAP2 PUSH2 0x2AEF JUMP JUMPDEST DUP3 ADD SWAP2 SWAP1 PUSH1 0x0 MSTORE PUSH1 0x20 PUSH1 0x0 KECCAK256 SWAP1 JUMPDEST DUP2 SLOAD DUP2 MSTORE SWAP1 PUSH1 0x1 ADD SWAP1 PUSH1 0x20 ADD DUP1 DUP4 GT PUSH2 0x2AD2 JUMPI DUP3 SWAP1 SUB PUSH1 0x1F AND DUP3 ADD SWAP2 JUMPDEST POP POP POP POP POP SWAP1 POP PUSH1 0x0 DUP1 PUSH1 0x0 PUSH1 0x1 PUSH1 0x5 DUP2 GT ISZERO PUSH2 0x2B0F JUMPI PUSH2 0x2B0E PUSH2 0x4ADB JUMP JUMPDEST JUMPDEST DUP2 MSTORE PUSH1 0x20 ADD SWAP1 DUP2 MSTORE PUSH1 0x20 ADD PUSH1 0x0 KECCAK256 DUP1 SLOAD PUSH2 0x2B28 SWAP1 PUSH2 0x4A78 JUMP JUMPDEST DUP1 PUSH1 0x1F ADD PUSH1 0x20 DUP1 SWAP2 DIV MUL PUSH1 0x20 ADD PUSH1 0x40 MLOAD SWAP1 DUP2 ADD PUSH1 0x40 MSTORE DUP1 SWAP3 SWAP2 SWAP1 DUP2 DUP2 MSTORE PUSH1 0x20 ADD DUP3 DUP1 SLOAD PUSH2 0x2B54 SWAP1 PUSH2 0x4A78 JUMP JUMPDEST DUP1 ISZERO PUSH2 0x2BA1 JUMPI DUP1 PUSH1 0x1F LT PUSH2 0x2B76 JUMPI PUSH2 0x100 DUP1 DUP4 SLOAD DIV MUL DUP4 MSTORE SWAP2 PUSH1 0x20 ADD SWAP2 PUSH2 0x2BA1 JUMP JUMPDEST DUP3 ADD SWAP2 SWAP1 PUSH1 0x0 MSTORE PUSH1 0x20 PUSH1 0x0 KECCAK256 SWAP1 JUMPDEST DUP2 SLOAD DUP2 MSTORE SWAP1 PUSH1 0x1 ADD SWAP1 PUSH1 0x20 ADD DUP1 DUP4 GT PUSH2 0x2B84 JUMPI DUP3 SWAP1 SUB PUSH1 0x1F AND DUP3 ADD SWAP2 JUMPDEST POP POP POP POP POP SWAP1 POP PUSH1 0x0 PUSH1 0x40 MLOAD DUP1 PUSH1 0x80 ADD PUSH1 0x40 MSTORE DUP1 CALLER PUSH20 0xFFFFFFFFFFFFFFFFFFFFFFFFFFFFFFFFFFFFFFFF AND DUP2 MSTORE PUSH1 0x20 ADD DUP4 DUP2 MSTORE PUSH1 0x20 ADD DUP5 DUP2 MSTORE PUSH1 0x20 ADD PUSH1 0x0 ISZERO ISZERO DUP2 MSTORE POP SWAP1 POP DUP1 PUSH1 0x10 DUP7 PUSH1 0x40 MLOAD PUSH2 0x2BF7 SWAP2 SWAP1 PUSH2 0x45AD JUMP JUMPDEST SWAP1 DUP2 MSTORE PUSH1 0x20 ADD PUSH1 0x40 MLOAD DUP1 SWAP2 SUB SWAP1 KECCAK256 PUSH1 0x0 DUP3 ADD MLOAD DUP2 PUSH1 0x0 ADD PUSH1 0x0 PUSH2 0x100 EXP DUP2 SLOAD DUP2 PUSH20 0xFFFFFFFFFFFFFFFFFFFFFFFFFFFFFFFFFFFFFFFF MUL NOT AND SWAP1 DUP4 PUSH20 0xFFFFFFFFFFFFFFFFFFFFFFFFFFFFFFFFFFFFFFFF AND MUL OR SWAP1 SSTORE POP PUSH1 0x20 DUP3 ADD MLOAD DUP2 PUSH1 0x1 ADD SWAP1 DUP1 MLOAD SWAP1 PUSH1 0x20 ADD SWAP1 PUSH2 0x2C68 SWAP3 SWAP2 SWAP1 PUSH2 0x3B20 JUMP JUMPDEST POP PUSH1 0x40 DUP3 ADD MLOAD DUP2 PUSH1 0x2 ADD SWAP1 DUP1 MLOAD SWAP1 PUSH1 0x20 ADD SWAP1 PUSH2 0x2C85 SWAP3 SWAP2 SWAP1 PUSH2 0x3B20 JUMP JUMPDEST POP PUSH1 0x60 DUP3 ADD MLOAD DUP2 PUSH1 0x3 ADD PUSH1 0x0 PUSH2 0x100 EXP DUP2 SLOAD DUP2 PUSH1 0xFF MUL NOT AND SWAP1 DUP4 ISZERO ISZERO MUL OR SWAP1 SSTORE POP SWAP1 POP POP PUSH1 0xA DUP6 SWAP1 DUP1 PUSH1 0x1 DUP2 SLOAD ADD DUP1 DUP3 SSTORE DUP1 SWAP2 POP POP PUSH1 0x1 SWAP1 SUB SWAP1 PUSH1 0x0 MSTORE PUSH1 0x20 PUSH1 0x0 KECCAK256 ADD PUSH1 0x0 SWAP1 SWAP2 SWAP1 SWAP2 SWAP1 SWAP2 POP SWAP1 DUP1 MLOAD SWAP1 PUSH1 0x20 ADD SWAP1 PUSH2 0x2CE4 SWAP3 SWAP2 SWAP1 PUSH2 0x3B20 JUMP JUMPDEST POP POP POP POP POP POP JUMP JUMPDEST PUSH2 0x2DCF PUSH1 0x2 PUSH1 0x0 CALLER PUSH20 0xFFFFFFFFFFFFFFFFFFFFFFFFFFFFFFFFFFFFFFFF AND PUSH20 0xFFFFFFFFFFFFFFFFFFFFFFFFFFFFFFFFFFFFFFFF AND DUP2 MSTORE PUSH1 0x20 ADD SWAP1 DUP2 MSTORE PUSH1 0x20 ADD PUSH1 0x0 KECCAK256 PUSH1 0x1 ADD DUP1 SLOAD PUSH2 0x2D3C SWAP1 PUSH2 0x4A78 JUMP JUMPDEST DUP1 PUSH1 0x1F ADD PUSH1 0x20 DUP1 SWAP2 DIV MUL PUSH1 0x20 ADD PUSH1 0x40 MLOAD SWAP1 DUP2 ADD PUSH1 0x40 MSTORE DUP1 SWAP3 SWAP2 SWAP1 DUP2 DUP2 MSTORE PUSH1 0x20 ADD DUP3 DUP1 SLOAD PUSH2 0x2D68 SWAP1 PUSH2 0x4A78 JUMP JUMPDEST DUP1 ISZERO PUSH2 0x2DB5 JUMPI DUP1 PUSH1 0x1F LT PUSH2 0x2D8A JUMPI PUSH2 0x100 DUP1 DUP4 SLOAD DIV MUL DUP4 MSTORE SWAP2 PUSH1 0x20 ADD SWAP2 PUSH2 0x2DB5 JUMP JUMPDEST DUP3 ADD SWAP2 SWAP1 PUSH1 0x0 MSTORE PUSH1 0x20 PUSH1 0x0 KECCAK256 SWAP1 JUMPDEST DUP2 SLOAD DUP2 MSTORE SWAP1 PUSH1 0x1 ADD SWAP1 PUSH1 0x20 ADD DUP1 DUP4 GT PUSH2 0x2D98 JUMPI DUP3 SWAP1 SUB PUSH1 0x1F AND DUP3 ADD SWAP2 JUMPDEST POP POP POP POP POP PUSH1 0x40 MLOAD DUP1 PUSH1 0x20 ADD PUSH1 0x40 MSTORE DUP1 PUSH1 0x0 DUP2 MSTORE POP PUSH2 0x3AC7 JUMP JUMPDEST ISZERO PUSH2 0x2E0F JUMPI PUSH1 0x40 MLOAD PUSH32 0x8C379A000000000000000000000000000000000000000000000000000000000 DUP2 MSTORE PUSH1 0x4 ADD PUSH2 0x2E06 SWAP1 PUSH2 0x4852 JUMP JUMPDEST PUSH1 0x40 MLOAD DUP1 SWAP2 SUB SWAP1 REVERT JUMPDEST PUSH1 0x0 ISZERO ISZERO PUSH1 0x11 DUP3 PUSH1 0x40 MLOAD PUSH2 0x2E23 SWAP2 SWAP1 PUSH2 0x45AD JUMP JUMPDEST SWAP1 DUP2 MSTORE PUSH1 0x20 ADD PUSH1 0x40 MLOAD DUP1 SWAP2 SUB SWAP1 KECCAK256 PUSH1 0x0 CALLER PUSH20 0xFFFFFFFFFFFFFFFFFFFFFFFFFFFFFFFFFFFFFFFF AND PUSH20 0xFFFFFFFFFFFFFFFFFFFFFFFFFFFFFFFFFFFFFFFF AND DUP2 MSTORE PUSH1 0x20 ADD SWAP1 DUP2 MSTORE PUSH1 0x20 ADD PUSH1 0x0 KECCAK256 PUSH1 0x0 SWAP1 SLOAD SWAP1 PUSH2 0x100 EXP SWAP1 DIV PUSH1 0xFF AND ISZERO ISZERO EQ PUSH2 0x2EBE JUMPI PUSH1 0x40 MLOAD PUSH32 0x8C379A000000000000000000000000000000000000000000000000000000000 DUP2 MSTORE PUSH1 0x4 ADD PUSH2 0x2EB5 SWAP1 PUSH2 0x47D2 JUMP JUMPDEST PUSH1 0x40 MLOAD DUP1 SWAP2 SUB SWAP1 REVERT JUMPDEST PUSH1 0xF DUP2 PUSH1 0x40 MLOAD PUSH2 0x2ECE SWAP2 SWAP1 PUSH2 0x45AD JUMP JUMPDEST SWAP1 DUP2 MSTORE PUSH1 0x20 ADD PUSH1 0x40 MLOAD DUP1 SWAP2 SUB SWAP1 KECCAK256 PUSH1 0x4 ADD CALLER SWAP1 DUP1 PUSH1 0x1 DUP2 SLOAD ADD DUP1 DUP3 SSTORE DUP1 SWAP2 POP POP PUSH1 0x1 SWAP1 SUB SWAP1 PUSH1 0x0 MSTORE PUSH1 0x20 PUSH1 0x0 KECCAK256 ADD PUSH1 0x0 SWAP1 SWAP2 SWAP1 SWAP2 SWAP1 SWAP2 PUSH2 0x100 EXP DUP2 SLOAD DUP2 PUSH20 0xFFFFFFFFFFFFFFFFFFFFFFFFFFFFFFFFFFFFFFFF MUL NOT AND SWAP1 DUP4 PUSH20 0xFFFFFFFFFFFFFFFFFFFFFFFFFFFFFFFFFFFFFFFF AND MUL OR SWAP1 SSTORE POP PUSH1 0x1 PUSH1 0x11 DUP3 PUSH1 0x40 MLOAD PUSH2 0x2F52 SWAP2 SWAP1 PUSH2 0x45AD JUMP JUMPDEST SWAP1 DUP2 MSTORE PUSH1 0x20 ADD PUSH1 0x40 MLOAD DUP1 SWAP2 SUB SWAP1 KECCAK256 PUSH1 0x0 CALLER PUSH20 0xFFFFFFFFFFFFFFFFFFFFFFFFFFFFFFFFFFFFFFFF AND PUSH20 0xFFFFFFFFFFFFFFFFFFFFFFFFFFFFFFFFFFFFFFFF AND DUP2 MSTORE PUSH1 0x20 ADD SWAP1 DUP2 MSTORE PUSH1 0x20 ADD PUSH1 0x0 KECCAK256 PUSH1 0x0 PUSH2 0x100 EXP DUP2 SLOAD DUP2 PUSH1 0xFF MUL NOT AND SWAP1 DUP4 ISZERO ISZERO MUL OR SWAP1 SSTORE POP POP JUMP JUMPDEST PUSH1 0x60 DUP1 PUSH1 0x60 DUP1 PUSH1 0x3 PUSH1 0x2 PUSH1 0x0 CALLER PUSH20 0xFFFFFFFFFFFFFFFFFFFFFFFFFFFFFFFFFFFFFFFF AND PUSH20 0xFFFFFFFFFFFFFFFFFFFFFFFFFFFFFFFFFFFFFFFF AND DUP2 MSTORE PUSH1 0x20 ADD SWAP1 DUP2 MSTORE PUSH1 0x20 ADD PUSH1 0x0 KECCAK256 PUSH1 0x0 ADD SLOAD DUP2 PUSH1 0x5 DUP2 GT ISZERO PUSH2 0x3015 JUMPI PUSH2 0x3014 PUSH2 0x4ADB JUMP JUMPDEST JUMPDEST EQ PUSH2 0x3055 JUMPI PUSH1 0x40 MLOAD PUSH32 0x8C379A000000000000000000000000000000000000000000000000000000000 DUP2 MSTORE PUSH1 0x4 ADD PUSH2 0x304C SWAP1 PUSH2 0x4832 JUMP JUMPDEST PUSH1 0x40 MLOAD DUP1 SWAP2 SUB SWAP1 REVERT JUMPDEST PUSH1 0x0 PUSH1 0x2 PUSH1 0x0 CALLER PUSH20 0xFFFFFFFFFFFFFFFFFFFFFFFFFFFFFFFFFFFFFFFF AND PUSH20 0xFFFFFFFFFFFFFFFFFFFFFFFFFFFFFFFFFFFFFFFF AND DUP2 MSTORE PUSH1 0x20 ADD SWAP1 DUP2 MSTORE PUSH1 0x20 ADD PUSH1 0x0 KECCAK256 PUSH1 0x40 MLOAD DUP1 PUSH1 0x80 ADD PUSH1 0x40 MSTORE SWAP1 DUP2 PUSH1 0x0 DUP3 ADD SLOAD DUP2 MSTORE PUSH1 0x20 ADD PUSH1 0x1 DUP3 ADD DUP1 SLOAD PUSH2 0x30BB SWAP1 PUSH2 0x4A78 JUMP JUMPDEST DUP1 PUSH1 0x1F ADD PUSH1 0x20 DUP1 SWAP2 DIV MUL PUSH1 0x20 ADD PUSH1 0x40 MLOAD SWAP1 DUP2 ADD PUSH1 0x40 MSTORE DUP1 SWAP3 SWAP2 SWAP1 DUP2 DUP2 MSTORE PUSH1 0x20 ADD DUP3 DUP1 SLOAD PUSH2 0x30E7 SWAP1 PUSH2 0x4A78 JUMP JUMPDEST DUP1 ISZERO PUSH2 0x3134 JUMPI DUP1 PUSH1 0x1F LT PUSH2 0x3109 JUMPI PUSH2 0x100 DUP1 DUP4 SLOAD DIV MUL DUP4 MSTORE SWAP2 PUSH1 0x20 ADD SWAP2 PUSH2 0x3134 JUMP JUMPDEST DUP3 ADD SWAP2 SWAP1 PUSH1 0x0 MSTORE PUSH1 0x20 PUSH1 0x0 KECCAK256 SWAP1 JUMPDEST DUP2 SLOAD DUP2 MSTORE SWAP1 PUSH1 0x1 ADD SWAP1 PUSH1 0x20 ADD DUP1 DUP4 GT PUSH2 0x3117 JUMPI DUP3 SWAP1 SUB PUSH1 0x1F AND DUP3 ADD SWAP2 JUMPDEST POP POP POP POP POP DUP2 MSTORE PUSH1 0x20 ADD PUSH1 0x2 DUP3 ADD DUP1 SLOAD PUSH2 0x314D SWAP1 PUSH2 0x4A78 JUMP JUMPDEST DUP1 PUSH1 0x1F ADD PUSH1 0x20 DUP1 SWAP2 DIV MUL PUSH1 0x20 ADD PUSH1 0x40 MLOAD SWAP1 DUP2 ADD PUSH1 0x40 MSTORE DUP1 SWAP3 SWAP2 SWAP1 DUP2 DUP2 MSTORE PUSH1 0x20 ADD DUP3 DUP1 SLOAD PUSH2 0x3179 SWAP1 PUSH2 0x4A78 JUMP JUMPDEST DUP1 ISZERO PUSH2 0x31C6 JUMPI DUP1 PUSH1 0x1F LT PUSH2 0x319B JUMPI PUSH2 0x100 DUP1 DUP4 SLOAD DIV MUL DUP4 MSTORE SWAP2 PUSH1 0x20 ADD SWAP2 PUSH2 0x31C6 JUMP JUMPDEST DUP3 ADD SWAP2 SWAP1 PUSH1 0x0 MSTORE PUSH1 0x20 PUSH1 0x0 KECCAK256 SWAP1 JUMPDEST DUP2 SLOAD DUP2 MSTORE SWAP1 PUSH1 0x1 ADD SWAP1 PUSH1 0x20 ADD DUP1 DUP4 GT PUSH2 0x31A9 JUMPI DUP3 SWAP1 SUB PUSH1 0x1F AND DUP3 ADD SWAP2 JUMPDEST POP POP POP POP POP DUP2 MSTORE PUSH1 0x20 ADD PUSH1 0x3 DUP3 ADD DUP1 SLOAD DUP1 PUSH1 0x20 MUL PUSH1 0x20 ADD PUSH1 0x40 MLOAD SWAP1 DUP2 ADD PUSH1 0x40 MSTORE DUP1 SWAP3 SWAP2 SWAP1 DUP2 DUP2 MSTORE PUSH1 0x20 ADD PUSH1 0x0 SWAP1 JUMPDEST DUP3 DUP3 LT ISZERO PUSH2 0x32A0 JUMPI DUP4 DUP3 SWAP1 PUSH1 0x0 MSTORE PUSH1 0x20 PUSH1 0x0 KECCAK256 ADD DUP1 SLOAD PUSH2 0x3213 SWAP1 PUSH2 0x4A78 JUMP JUMPDEST DUP1 PUSH1 0x1F ADD PUSH1 0x20 DUP1 SWAP2 DIV MUL PUSH1 0x20 ADD PUSH1 0x40 MLOAD SWAP1 DUP2 ADD PUSH1 0x40 MSTORE DUP1 SWAP3 SWAP2 SWAP1 DUP2 DUP2 MSTORE PUSH1 0x20 ADD DUP3 DUP1 SLOAD PUSH2 0x323F SWAP1 PUSH2 0x4A78 JUMP JUMPDEST DUP1 ISZERO PUSH2 0x328C JUMPI DUP1 PUSH1 0x1F LT PUSH2 0x3261 JUMPI PUSH2 0x100 DUP1 DUP4 SLOAD DIV MUL DUP4 MSTORE SWAP2 PUSH1 0x20 ADD SWAP2 PUSH2 0x328C JUMP JUMPDEST DUP3 ADD SWAP2 SWAP1 PUSH1 0x0 MSTORE PUSH1 0x20 PUSH1 0x0 KECCAK256 SWAP1 JUMPDEST DUP2 SLOAD DUP2 MSTORE SWAP1 PUSH1 0x1 ADD SWAP1 PUSH1 0x20 ADD DUP1 DUP4 GT PUSH2 0x326F JUMPI DUP3 SWAP1 SUB PUSH1 0x1F AND DUP3 ADD SWAP2 JUMPDEST POP POP POP POP POP DUP2 MSTORE PUSH1 0x20 ADD SWAP1 PUSH1 0x1 ADD SWAP1 PUSH2 0x31F4 JUMP JUMPDEST POP POP POP POP DUP2 MSTORE POP POP SWAP1 POP DUP1 PUSH1 0x20 ADD MLOAD SWAP6 POP PUSH1 0xA DUP1 SLOAD DUP1 PUSH1 0x20 MUL PUSH1 0x20 ADD PUSH1 0x40 MLOAD SWAP1 DUP2 ADD PUSH1 0x40 MSTORE DUP1 SWAP3 SWAP2 SWAP1 DUP2 DUP2 MSTORE PUSH1 0x20 ADD PUSH1 0x0 SWAP1 JUMPDEST DUP3 DUP3 LT ISZERO PUSH2 0x337F JUMPI DUP4 DUP3 SWAP1 PUSH1 0x0 MSTORE PUSH1 0x20 PUSH1 0x0 KECCAK256 ADD DUP1 SLOAD PUSH2 0x32F2 SWAP1 PUSH2 0x4A78 JUMP JUMPDEST DUP1 PUSH1 0x1F ADD PUSH1 0x20 DUP1 SWAP2 DIV MUL PUSH1 0x20 ADD PUSH1 0x40 MLOAD SWAP1 DUP2 ADD PUSH1 0x40 MSTORE DUP1 SWAP3 SWAP2 SWAP1 DUP2 DUP2 MSTORE PUSH1 0x20 ADD DUP3 DUP1 SLOAD PUSH2 0x331E SWAP1 PUSH2 0x4A78 JUMP JUMPDEST DUP1 ISZERO PUSH2 0x336B JUMPI DUP1 PUSH1 0x1F LT PUSH2 0x3340 JUMPI PUSH2 0x100 DUP1 DUP4 SLOAD DIV MUL DUP4 MSTORE SWAP2 PUSH1 0x20 ADD SWAP2 PUSH2 0x336B JUMP JUMPDEST DUP3 ADD SWAP2 SWAP1 PUSH1 0x0 MSTORE PUSH1 0x20 PUSH1 0x0 KECCAK256 SWAP1 JUMPDEST DUP2 SLOAD DUP2 MSTORE SWAP1 PUSH1 0x1 ADD SWAP1 PUSH1 0x20 ADD DUP1 DUP4 GT PUSH2 0x334E JUMPI DUP3 SWAP1 SUB PUSH1 0x1F AND DUP3 ADD SWAP2 JUMPDEST POP POP POP POP POP DUP2 MSTORE PUSH1 0x20 ADD SWAP1 PUSH1 0x1 ADD SWAP1 PUSH2 0x32D3 JUMP JUMPDEST POP POP POP POP SWAP5 POP PUSH1 0x6 DUP1 SLOAD DUP1 PUSH1 0x20 MUL PUSH1 0x20 ADD PUSH1 0x40 MLOAD SWAP1 DUP2 ADD PUSH1 0x40 MSTORE DUP1 SWAP3 SWAP2 SWAP1 DUP2 DUP2 MSTORE PUSH1 0x20 ADD PUSH1 0x0 SWAP1 JUMPDEST DUP3 DUP3 LT ISZERO PUSH2 0x3453 JUMPI DUP4 DUP3 SWAP1 PUSH1 0x0 MSTORE PUSH1 0x20 PUSH1 0x0 KECCAK256 ADD DUP1 SLOAD PUSH2 0x33C6 SWAP1 PUSH2 0x4A78 JUMP JUMPDEST DUP1 PUSH1 0x1F ADD PUSH1 0x20 DUP1 SWAP2 DIV MUL PUSH1 0x20 ADD PUSH1 0x40 MLOAD SWAP1 DUP2 ADD PUSH1 0x40 MSTORE DUP1 SWAP3 SWAP2 SWAP1 DUP2 DUP2 MSTORE PUSH1 0x20 ADD DUP3 DUP1 SLOAD PUSH2 0x33F2 SWAP1 PUSH2 0x4A78 JUMP JUMPDEST DUP1 ISZERO PUSH2 0x343F JUMPI DUP1 PUSH1 0x1F LT PUSH2 0x3414 JUMPI PUSH2 0x100 DUP1 DUP4 SLOAD DIV MUL DUP4 MSTORE SWAP2 PUSH1 0x20 ADD SWAP2 PUSH2 0x343F JUMP JUMPDEST DUP3 ADD SWAP2 SWAP1 PUSH1 0x0 MSTORE PUSH1 0x20 PUSH1 0x0 KECCAK256 SWAP1 JUMPDEST DUP2 SLOAD DUP2 MSTORE SWAP1 PUSH1 0x1 ADD SWAP1 PUSH1 0x20 ADD DUP1 DUP4 GT PUSH2 0x3422 JUMPI DUP3 SWAP1 SUB PUSH1 0x1F AND DUP3 ADD SWAP2 JUMPDEST POP POP POP POP POP DUP2 MSTORE PUSH1 0x20 ADD SWAP1 PUSH1 0x1 ADD SWAP1 PUSH2 0x33A7 JUMP JUMPDEST POP POP POP POP SWAP4 POP PUSH1 0x8 DUP1 SLOAD DUP1 PUSH1 0x20 MUL PUSH1 0x20 ADD PUSH1 0x40 MLOAD SWAP1 DUP2 ADD PUSH1 0x40 MSTORE DUP1 SWAP3 SWAP2 SWAP1 DUP2 DUP2 MSTORE PUSH1 0x20 ADD DUP3 DUP1 SLOAD DUP1 ISZERO PUSH2 0x34DB JUMPI PUSH1 0x20 MUL DUP3 ADD SWAP2 SWAP1 PUSH1 0x0 MSTORE PUSH1 0x20 PUSH1 0x0 KECCAK256 SWAP1 JUMPDEST DUP2 PUSH1 0x0 SWAP1 SLOAD SWAP1 PUSH2 0x100 EXP SWAP1 DIV PUSH20 0xFFFFFFFFFFFFFFFFFFFFFFFFFFFFFFFFFFFFFFFF AND PUSH20 0xFFFFFFFFFFFFFFFFFFFFFFFFFFFFFFFFFFFFFFFF AND DUP2 MSTORE PUSH1 0x20 ADD SWAP1 PUSH1 0x1 ADD SWAP1 DUP1 DUP4 GT PUSH2 0x3491 JUMPI JUMPDEST POP POP POP POP POP SWAP3 POP POP POP SWAP1 SWAP2 SWAP3 SWAP4 JUMP JUMPDEST PUSH1 0x0 PUSH1 0x60 DUP1 PUSH1 0x0 PUSH1 0x10 DUP6 PUSH1 0x40 MLOAD PUSH2 0x3501 SWAP2 SWAP1 PUSH2 0x45AD JUMP JUMPDEST SWAP1 DUP2 MSTORE PUSH1 0x20 ADD PUSH1 0x40 MLOAD DUP1 SWAP2 SUB SWAP1 KECCAK256 PUSH1 0x40 MLOAD DUP1 PUSH1 0x80 ADD PUSH1 0x40 MSTORE SWAP1 DUP2 PUSH1 0x0 DUP3 ADD PUSH1 0x0 SWAP1 SLOAD SWAP1 PUSH2 0x100 EXP SWAP1 DIV PUSH20 0xFFFFFFFFFFFFFFFFFFFFFFFFFFFFFFFFFFFFFFFF AND PUSH20 0xFFFFFFFFFFFFFFFFFFFFFFFFFFFFFFFFFFFFFFFF AND PUSH20 0xFFFFFFFFFFFFFFFFFFFFFFFFFFFFFFFFFFFFFFFF AND DUP2 MSTORE PUSH1 0x20 ADD PUSH1 0x1 DUP3 ADD DUP1 SLOAD PUSH2 0x3580 SWAP1 PUSH2 0x4A78 JUMP JUMPDEST DUP1 PUSH1 0x1F ADD PUSH1 0x20 DUP1 SWAP2 DIV MUL PUSH1 0x20 ADD PUSH1 0x40 MLOAD SWAP1 DUP2 ADD PUSH1 0x40 MSTORE DUP1 SWAP3 SWAP2 SWAP1 DUP2 DUP2 MSTORE PUSH1 0x20 ADD DUP3 DUP1 SLOAD PUSH2 0x35AC SWAP1 PUSH2 0x4A78 JUMP JUMPDEST DUP1 ISZERO PUSH2 0x35F9 JUMPI DUP1 PUSH1 0x1F LT PUSH2 0x35CE JUMPI PUSH2 0x100 DUP1 DUP4 SLOAD DIV MUL DUP4 MSTORE SWAP2 PUSH1 0x20 ADD SWAP2 PUSH2 0x35F9 JUMP JUMPDEST DUP3 ADD SWAP2 SWAP1 PUSH1 0x0 MSTORE PUSH1 0x20 PUSH1 0x0 KECCAK256 SWAP1 JUMPDEST DUP2 SLOAD DUP2 MSTORE SWAP1 PUSH1 0x1 ADD SWAP1 PUSH1 0x20 ADD DUP1 DUP4 GT PUSH2 0x35DC JUMPI DUP3 SWAP1 SUB PUSH1 0x1F AND DUP3 ADD SWAP2 JUMPDEST POP POP POP POP POP DUP2 MSTORE PUSH1 0x20 ADD PUSH1 0x2 DUP3 ADD DUP1 SLOAD PUSH2 0x3612 SWAP1 PUSH2 0x4A78 JUMP JUMPDEST DUP1 PUSH1 0x1F ADD PUSH1 0x20 DUP1 SWAP2 DIV MUL PUSH1 0x20 ADD PUSH1 0x40 MLOAD SWAP1 DUP2 ADD PUSH1 0x40 MSTORE DUP1 SWAP3 SWAP2 SWAP1 DUP2 DUP2 MSTORE PUSH1 0x20 ADD DUP3 DUP1 SLOAD PUSH2 0x363E SWAP1 PUSH2 0x4A78 JUMP JUMPDEST DUP1 ISZERO PUSH2 0x368B JUMPI DUP1 PUSH1 0x1F LT PUSH2 0x3660 JUMPI PUSH2 0x100 DUP1 DUP4 SLOAD DIV MUL DUP4 MSTORE SWAP2 PUSH1 0x20 ADD SWAP2 PUSH2 0x368B JUMP JUMPDEST DUP3 ADD SWAP2 SWAP1 PUSH1 0x0 MSTORE PUSH1 0x20 PUSH1 0x0 KECCAK256 SWAP1 JUMPDEST DUP2 SLOAD DUP2 MSTORE SWAP1 PUSH1 0x1 ADD SWAP1 PUSH1 0x20 ADD DUP1 DUP4 GT PUSH2 0x366E JUMPI DUP3 SWAP1 SUB PUSH1 0x1F AND DUP3 ADD SWAP2 JUMPDEST POP POP POP POP POP DUP2 MSTORE PUSH1 0x20 ADD PUSH1 0x3 DUP3 ADD PUSH1 0x0 SWAP1 SLOAD SWAP1 PUSH2 0x100 EXP SWAP1 DIV PUSH1 0xFF AND ISZERO ISZERO ISZERO ISZERO DUP2 MSTORE POP POP SWAP1 POP DUP1 PUSH1 0x0 ADD MLOAD SWAP4 POP DUP1 PUSH1 0x20 ADD MLOAD SWAP3 POP DUP1 PUSH1 0x40 ADD MLOAD SWAP2 POP POP SWAP2 SWAP4 SWAP1 SWAP3 POP JUMP JUMPDEST PUSH1 0x5 PUSH1 0x0 SWAP1 SLOAD SWAP1 PUSH2 0x100 EXP SWAP1 DIV PUSH20 0xFFFFFFFFFFFFFFFFFFFFFFFFFFFFFFFFFFFFFFFF AND PUSH20 0xFFFFFFFFFFFFFFFFFFFFFFFFFFFFFFFFFFFFFFFF AND CALLER PUSH20 0xFFFFFFFFFFFFFFFFFFFFFFFFFFFFFFFFFFFFFFFF AND EQ PUSH2 0x375E JUMPI PUSH1 0x40 MLOAD PUSH32 0x8C379A000000000000000000000000000000000000000000000000000000000 DUP2 MSTORE PUSH1 0x4 ADD PUSH2 0x3755 SWAP1 PUSH2 0x4872 JUMP JUMPDEST PUSH1 0x40 MLOAD DUP1 SWAP2 SUB SWAP1 REVERT JUMPDEST PUSH1 0x0 PUSH1 0x3 PUSH1 0x5 DUP2 GT ISZERO PUSH2 0x3774 JUMPI PUSH2 0x3773 PUSH2 0x4ADB JUMP JUMPDEST JUMPDEST SWAP1 POP PUSH2 0x3782 DUP4 DUP4 DUP4 CALLER PUSH2 0x37C3 JUMP JUMPDEST PUSH1 0x6 DUP3 SWAP1 DUP1 PUSH1 0x1 DUP2 SLOAD ADD DUP1 DUP3 SSTORE DUP1 SWAP2 POP POP PUSH1 0x1 SWAP1 SUB SWAP1 PUSH1 0x0 MSTORE PUSH1 0x20 PUSH1 0x0 KECCAK256 ADD PUSH1 0x0 SWAP1 SWAP2 SWAP1 SWAP2 SWAP1 SWAP2 POP SWAP1 DUP1 MLOAD SWAP1 PUSH1 0x20 ADD SWAP1 PUSH2 0x37BD SWAP3 SWAP2 SWAP1 PUSH2 0x3B20 JUMP JUMPDEST POP POP POP POP JUMP JUMPDEST DUP1 DUP4 PUSH2 0x38A8 PUSH1 0x2 PUSH1 0x0 DUP5 PUSH20 0xFFFFFFFFFFFFFFFFFFFFFFFFFFFFFFFFFFFFFFFF AND PUSH20 0xFFFFFFFFFFFFFFFFFFFFFFFFFFFFFFFFFFFFFFFF AND DUP2 MSTORE PUSH1 0x20 ADD SWAP1 DUP2 MSTORE PUSH1 0x20 ADD PUSH1 0x0 KECCAK256 PUSH1 0x2 ADD DUP1 SLOAD PUSH2 0x3815 SWAP1 PUSH2 0x4A78 JUMP JUMPDEST DUP1 PUSH1 0x1F ADD PUSH1 0x20 DUP1 SWAP2 DIV MUL PUSH1 0x20 ADD PUSH1 0x40 MLOAD SWAP1 DUP2 ADD PUSH1 0x40 MSTORE DUP1 SWAP3 SWAP2 SWAP1 DUP2 DUP2 MSTORE PUSH1 0x20 ADD DUP3 DUP1 SLOAD PUSH2 0x3841 SWAP1 PUSH2 0x4A78 JUMP JUMPDEST DUP1 ISZERO PUSH2 0x388E JUMPI DUP1 PUSH1 0x1F LT PUSH2 0x3863 JUMPI PUSH2 0x100 DUP1 DUP4 SLOAD DIV MUL DUP4 MSTORE SWAP2 PUSH1 0x20 ADD SWAP2 PUSH2 0x388E JUMP JUMPDEST DUP3 ADD SWAP2 SWAP1 PUSH1 0x0 MSTORE PUSH1 0x20 PUSH1 0x0 KECCAK256 SWAP1 JUMPDEST DUP2 SLOAD DUP2 MSTORE SWAP1 PUSH1 0x1 ADD SWAP1 PUSH1 0x20 ADD DUP1 DUP4 GT PUSH2 0x3871 JUMPI DUP3 SWAP1 SUB PUSH1 0x1F AND DUP3 ADD SWAP2 JUMPDEST POP POP POP POP POP PUSH1 0x40 MLOAD DUP1 PUSH1 0x20 ADD PUSH1 0x40 MSTORE DUP1 PUSH1 0x0 DUP2 MSTORE POP PUSH2 0x3AC7 JUMP JUMPDEST ISZERO PUSH2 0x38E8 JUMPI PUSH1 0x40 MLOAD PUSH32 0x8C379A000000000000000000000000000000000000000000000000000000000 DUP2 MSTORE PUSH1 0x4 ADD PUSH2 0x38DF SWAP1 PUSH2 0x4892 JUMP JUMPDEST PUSH1 0x40 MLOAD DUP1 SWAP2 SUB SWAP1 REVERT JUMPDEST PUSH1 0x0 PUSH20 0xFFFFFFFFFFFFFFFFFFFFFFFFFFFFFFFFFFFFFFFF AND PUSH1 0x1 DUP3 PUSH1 0x40 MLOAD PUSH2 0x3910 SWAP2 SWAP1 PUSH2 0x45AD JUMP JUMPDEST SWAP1 DUP2 MSTORE PUSH1 0x20 ADD PUSH1 0x40 MLOAD DUP1 SWAP2 SUB SWAP1 KECCAK256 PUSH1 0x0 SWAP1 SLOAD SWAP1 PUSH2 0x100 EXP SWAP1 DIV PUSH20 0xFFFFFFFFFFFFFFFFFFFFFFFFFFFFFFFFFFFFFFFF AND PUSH20 0xFFFFFFFFFFFFFFFFFFFFFFFFFFFFFFFFFFFFFFFF AND EQ PUSH2 0x3995 JUMPI PUSH1 0x40 MLOAD PUSH32 0x8C379A000000000000000000000000000000000000000000000000000000000 DUP2 MSTORE PUSH1 0x4 ADD PUSH2 0x398C SWAP1 PUSH2 0x47F2 JUMP JUMPDEST PUSH1 0x40 MLOAD DUP1 SWAP2 SUB SWAP1 REVERT JUMPDEST PUSH1 0x60 PUSH1 0x0 PUSH1 0x40 MLOAD DUP1 PUSH1 0x80 ADD PUSH1 0x40 MSTORE DUP1 DUP8 DUP2 MSTORE PUSH1 0x20 ADD DUP9 DUP2 MSTORE PUSH1 0x20 ADD DUP10 DUP2 MSTORE PUSH1 0x20 ADD DUP4 DUP2 MSTORE POP SWAP1 POP DUP5 PUSH1 0x1 DUP9 PUSH1 0x40 MLOAD PUSH2 0x39CD SWAP2 SWAP1 PUSH2 0x45AD JUMP JUMPDEST SWAP1 DUP2 MSTORE PUSH1 0x20 ADD PUSH1 0x40 MLOAD DUP1 SWAP2 SUB SWAP1 KECCAK256 PUSH1 0x0 PUSH2 0x100 EXP DUP2 SLOAD DUP2 PUSH20 0xFFFFFFFFFFFFFFFFFFFFFFFFFFFFFFFFFFFFFFFF MUL NOT AND SWAP1 DUP4 PUSH20 0xFFFFFFFFFFFFFFFFFFFFFFFFFFFFFFFFFFFFFFFF AND MUL OR SWAP1 SSTORE POP DUP1 PUSH1 0x2 PUSH1 0x0 DUP8 PUSH20 0xFFFFFFFFFFFFFFFFFFFFFFFFFFFFFFFFFFFFFFFF AND PUSH20 0xFFFFFFFFFFFFFFFFFFFFFFFFFFFFFFFFFFFFFFFF AND DUP2 MSTORE PUSH1 0x20 ADD SWAP1 DUP2 MSTORE PUSH1 0x20 ADD PUSH1 0x0 KECCAK256 PUSH1 0x0 DUP3 ADD MLOAD DUP2 PUSH1 0x0 ADD SSTORE PUSH1 0x20 DUP3 ADD MLOAD DUP2 PUSH1 0x1 ADD SWAP1 DUP1 MLOAD SWAP1 PUSH1 0x20 ADD SWAP1 PUSH2 0x3A7F SWAP3 SWAP2 SWAP1 PUSH2 0x3B20 JUMP JUMPDEST POP PUSH1 0x40 DUP3 ADD MLOAD DUP2 PUSH1 0x2 ADD SWAP1 DUP1 MLOAD SWAP1 PUSH1 0x20 ADD SWAP1 PUSH2 0x3A9C SWAP3 SWAP2 SWAP1 PUSH2 0x3B20 JUMP JUMPDEST POP PUSH1 0x60 DUP3 ADD MLOAD DUP2 PUSH1 0x3 ADD SWAP1 DUP1 MLOAD SWAP1 PUSH1 0x20 ADD SWAP1 PUSH2 0x3AB9 SWAP3 SWAP2 SWAP1 PUSH2 0x3C30 JUMP JUMPDEST POP SWAP1 POP POP POP POP POP POP POP POP POP POP JUMP JUMPDEST PUSH1 0x0 DUP2 PUSH1 0x40 MLOAD PUSH1 0x20 ADD PUSH2 0x3ADA SWAP2 SWAP1 PUSH2 0x45AD JUMP JUMPDEST PUSH1 0x40 MLOAD PUSH1 0x20 DUP2 DUP4 SUB SUB DUP2 MSTORE SWAP1 PUSH1 0x40 MSTORE DUP1 MLOAD SWAP1 PUSH1 0x20 ADD KECCAK256 DUP4 PUSH1 0x40 MLOAD PUSH1 0x20 ADD PUSH2 0x3B01 SWAP2 SWAP1 PUSH2 0x45AD JUMP JUMPDEST PUSH1 0x40 MLOAD PUSH1 0x20 DUP2 DUP4 SUB SUB DUP2 MSTORE SWAP1 PUSH1 0x40 MSTORE DUP1 MLOAD SWAP1 PUSH1 0x20 ADD KECCAK256 EQ SWAP1 POP SWAP3 SWAP2 POP POP JUMP JUMPDEST DUP3 DUP1 SLOAD PUSH2 0x3B2C SWAP1 PUSH2 0x4A78 JUMP JUMPDEST SWAP1 PUSH1 0x0 MSTORE PUSH1 0x20 PUSH1 0x0 KECCAK256 SWAP1 PUSH1 0x1F ADD PUSH1 0x20 SWAP1 DIV DUP2 ADD SWAP3 DUP3 PUSH2 0x3B4E JUMPI PUSH1 0x0 DUP6 SSTORE PUSH2 0x3B95 JUMP JUMPDEST DUP3 PUSH1 0x1F LT PUSH2 0x3B67 JUMPI DUP1 MLOAD PUSH1 0xFF NOT AND DUP4 DUP1 ADD OR DUP6 SSTORE PUSH2 0x3B95 JUMP JUMPDEST DUP3 DUP1 ADD PUSH1 0x1 ADD DUP6 SSTORE DUP3 ISZERO PUSH2 0x3B95 JUMPI SWAP2 DUP3 ADD JUMPDEST DUP3 DUP2 GT ISZERO PUSH2 0x3B94 JUMPI DUP3 MLOAD DUP3 SSTORE SWAP2 PUSH1 0x20 ADD SWAP2 SWAP1 PUSH1 0x1 ADD SWAP1 PUSH2 0x3B79 JUMP JUMPDEST JUMPDEST POP SWAP1 POP PUSH2 0x3BA2 SWAP2 SWAP1 PUSH2 0x3C90 JUMP JUMPDEST POP SWAP1 JUMP JUMPDEST DUP3 DUP1 SLOAD DUP3 DUP3 SSTORE SWAP1 PUSH1 0x0 MSTORE PUSH1 0x20 PUSH1 0x0 KECCAK256 SWAP1 DUP2 ADD SWAP3 DUP3 ISZERO PUSH2 0x3C1F JUMPI SWAP2 PUSH1 0x20 MUL DUP3 ADD JUMPDEST DUP3 DUP2 GT ISZERO PUSH2 0x3C1E JUMPI DUP3 MLOAD DUP3 PUSH1 0x0 PUSH2 0x100 EXP DUP2 SLOAD DUP2 PUSH20 0xFFFFFFFFFFFFFFFFFFFFFFFFFFFFFFFFFFFFFFFF MUL NOT AND SWAP1 DUP4 PUSH20 0xFFFFFFFFFFFFFFFFFFFFFFFFFFFFFFFFFFFFFFFF AND MUL OR SWAP1 SSTORE POP SWAP2 PUSH1 0x20 ADD SWAP2 SWAP1 PUSH1 0x1 ADD SWAP1 PUSH2 0x3BC6 JUMP JUMPDEST JUMPDEST POP SWAP1 POP PUSH2 0x3C2C SWAP2 SWAP1 PUSH2 0x3C90 JUMP JUMPDEST POP SWAP1 JUMP JUMPDEST DUP3 DUP1 SLOAD DUP3 DUP3 SSTORE SWAP1 PUSH1 0x0 MSTORE PUSH1 0x20 PUSH1 0x0 KECCAK256 SWAP1 DUP2 ADD SWAP3 DUP3 ISZERO PUSH2 0x3C7F JUMPI SWAP2 PUSH1 0x20 MUL DUP3 ADD JUMPDEST DUP3 DUP2 GT ISZERO PUSH2 0x3C7E JUMPI DUP3 MLOAD DUP3 SWAP1 DUP1 MLOAD SWAP1 PUSH1 0x20 ADD SWAP1 PUSH2 0x3C6E SWAP3 SWAP2 SWAP1 PUSH2 0x3B20 JUMP JUMPDEST POP SWAP2 PUSH1 0x20 ADD SWAP2 SWAP1 PUSH1 0x1 ADD SWAP1 PUSH2 0x3C50 JUMP JUMPDEST JUMPDEST POP SWAP1 POP PUSH2 0x3C8C SWAP2 SWAP1 PUSH2 0x3CAD JUMP JUMPDEST POP SWAP1 JUMP JUMPDEST JUMPDEST DUP1 DUP3 GT ISZERO PUSH2 0x3CA9 JUMPI PUSH1 0x0 DUP2 PUSH1 0x0 SWAP1 SSTORE POP PUSH1 0x1 ADD PUSH2 0x3C91 JUMP JUMPDEST POP SWAP1 JUMP JUMPDEST JUMPDEST DUP1 DUP3 GT ISZERO PUSH2 0x3CCD JUMPI PUSH1 0x0 DUP2 DUP2 PUSH2 0x3CC4 SWAP2 SWAP1 PUSH2 0x3CD1 JUMP JUMPDEST POP PUSH1 0x1 ADD PUSH2 0x3CAE JUMP JUMPDEST POP SWAP1 JUMP JUMPDEST POP DUP1 SLOAD PUSH2 0x3CDD SWAP1 PUSH2 0x4A78 JUMP JUMPDEST PUSH1 0x0 DUP3 SSTORE DUP1 PUSH1 0x1F LT PUSH2 0x3CEF JUMPI POP PUSH2 0x3D0E JUMP JUMPDEST PUSH1 0x1F ADD PUSH1 0x20 SWAP1 DIV SWAP1 PUSH1 0x0 MSTORE PUSH1 0x20 PUSH1 0x0 KECCAK256 SWAP1 DUP2 ADD SWAP1 PUSH2 0x3D0D SWAP2 SWAP1 PUSH2 0x3C90 JUMP JUMPDEST JUMPDEST POP JUMP JUMPDEST PUSH1 0x0 PUSH2 0x3D24 PUSH2 0x3D1F DUP5 PUSH2 0x48F7 JUMP JUMPDEST PUSH2 0x48D2 JUMP JUMPDEST SWAP1 POP DUP3 DUP2 MSTORE PUSH1 0x20 DUP2 ADD DUP5 DUP5 DUP5 ADD GT ISZERO PUSH2 0x3D40 JUMPI PUSH2 0x3D3F PUSH2 0x4B6D JUMP JUMPDEST JUMPDEST PUSH2 0x3D4B DUP5 DUP3 DUP6 PUSH2 0x4A36 JUMP JUMPDEST POP SWAP4 SWAP3 POP POP POP JUMP JUMPDEST PUSH1 0x0 DUP2 CALLDATALOAD SWAP1 POP PUSH2 0x3D62 DUP2 PUSH2 0x4CFB JUMP JUMPDEST SWAP3 SWAP2 POP POP JUMP JUMPDEST PUSH1 0x0 DUP2 CALLDATALOAD SWAP1 POP PUSH2 0x3D77 DUP2 PUSH2 0x4D12 JUMP JUMPDEST SWAP3 SWAP2 POP POP JUMP JUMPDEST PUSH1 0x0 DUP2 CALLDATALOAD SWAP1 POP PUSH2 0x3D8C DUP2 PUSH2 0x4D29 JUMP JUMPDEST SWAP3 SWAP2 POP POP JUMP JUMPDEST PUSH1 0x0 DUP2 CALLDATALOAD SWAP1 POP PUSH2 0x3DA1 DUP2 PUSH2 0x4D40 JUMP JUMPDEST SWAP3 SWAP2 POP POP JUMP JUMPDEST PUSH1 0x0 DUP3 PUSH1 0x1F DUP4 ADD SLT PUSH2 0x3DBC JUMPI PUSH2 0x3DBB PUSH2 0x4B68 JUMP JUMPDEST JUMPDEST DUP2 CALLDATALOAD PUSH2 0x3DCC DUP5 DUP3 PUSH1 0x20 DUP7 ADD PUSH2 0x3D11 JUMP JUMPDEST SWAP2 POP POP SWAP3 SWAP2 POP POP JUMP JUMPDEST PUSH1 0x0 PUSH1 0x20 DUP3 DUP5 SUB SLT ISZERO PUSH2 0x3DEB JUMPI PUSH2 0x3DEA PUSH2 0x4B77 JUMP JUMPDEST JUMPDEST PUSH1 0x0 PUSH2 0x3DF9 DUP5 DUP3 DUP6 ADD PUSH2 0x3D53 JUMP JUMPDEST SWAP2 POP POP SWAP3 SWAP2 POP POP JUMP JUMPDEST PUSH1 0x0 PUSH1 0x20 DUP3 DUP5 SUB SLT ISZERO PUSH2 0x3E18 JUMPI PUSH2 0x3E17 PUSH2 0x4B77 JUMP JUMPDEST JUMPDEST PUSH1 0x0 PUSH2 0x3E26 DUP5 DUP3 DUP6 ADD PUSH2 0x3D68 JUMP JUMPDEST SWAP2 POP POP SWAP3 SWAP2 POP POP JUMP JUMPDEST PUSH1 0x0 DUP1 PUSH1 0x0 PUSH1 0x60 DUP5 DUP7 SUB SLT ISZERO PUSH2 0x3E48 JUMPI PUSH2 0x3E47 PUSH2 0x4B77 JUMP JUMPDEST JUMPDEST PUSH1 0x0 PUSH2 0x3E56 DUP7 DUP3 DUP8 ADD PUSH2 0x3D53 JUMP JUMPDEST SWAP4 POP POP PUSH1 0x20 DUP5 ADD CALLDATALOAD PUSH8 0xFFFFFFFFFFFFFFFF DUP2 GT ISZERO PUSH2 0x3E77 JUMPI PUSH2 0x3E76 PUSH2 0x4B72 JUMP JUMPDEST JUMPDEST PUSH2 0x3E83 DUP7 DUP3 DUP8 ADD PUSH2 0x3DA7 JUMP JUMPDEST SWAP3 POP POP PUSH1 0x40 DUP5 ADD CALLDATALOAD PUSH8 0xFFFFFFFFFFFFFFFF DUP2 GT ISZERO PUSH2 0x3EA4 JUMPI PUSH2 0x3EA3 PUSH2 0x4B72 JUMP JUMPDEST JUMPDEST PUSH2 0x3EB0 DUP7 DUP3 DUP8 ADD PUSH2 0x3DA7 JUMP JUMPDEST SWAP2 POP POP SWAP3 POP SWAP3 POP SWAP3 JUMP JUMPDEST PUSH1 0x0 DUP1 PUSH1 0x0 DUP1 PUSH1 0x80 DUP6 DUP8 SUB SLT ISZERO PUSH2 0x3ED4 JUMPI PUSH2 0x3ED3 PUSH2 0x4B77 JUMP JUMPDEST JUMPDEST PUSH1 0x0 PUSH2 0x3EE2 DUP8 DUP3 DUP9 ADD PUSH2 0x3D53 JUMP JUMPDEST SWAP5 POP POP PUSH1 0x20 DUP6 ADD CALLDATALOAD PUSH8 0xFFFFFFFFFFFFFFFF DUP2 GT ISZERO PUSH2 0x3F03 JUMPI PUSH2 0x3F02 PUSH2 0x4B72 JUMP JUMPDEST JUMPDEST PUSH2 0x3F0F DUP8 DUP3 DUP9 ADD PUSH2 0x3DA7 JUMP JUMPDEST SWAP4 POP POP PUSH1 0x40 DUP6 ADD CALLDATALOAD PUSH8 0xFFFFFFFFFFFFFFFF DUP2 GT ISZERO PUSH2 0x3F30 JUMPI PUSH2 0x3F2F PUSH2 0x4B72 JUMP JUMPDEST JUMPDEST PUSH2 0x3F3C DUP8 DUP3 DUP9 ADD PUSH2 0x3DA7 JUMP JUMPDEST SWAP3 POP POP PUSH1 0x60 PUSH2 0x3F4D DUP8 DUP3 DUP9 ADD PUSH2 0x3D92 JUMP JUMPDEST SWAP2 POP POP SWAP3 SWAP6 SWAP2 SWAP5 POP SWAP3 POP JUMP JUMPDEST PUSH1 0x0 DUP1 PUSH1 0x0 DUP1 PUSH1 0x80 DUP6 DUP8 SUB SLT ISZERO PUSH2 0x3F73 JUMPI PUSH2 0x3F72 PUSH2 0x4B77 JUMP JUMPDEST JUMPDEST PUSH1 0x0 PUSH2 0x3F81 DUP8 DUP3 DUP9 ADD PUSH2 0x3D53 JUMP JUMPDEST SWAP5 POP POP PUSH1 0x20 DUP6 ADD CALLDATALOAD PUSH8 0xFFFFFFFFFFFFFFFF DUP2 GT ISZERO PUSH2 0x3FA2 JUMPI PUSH2 0x3FA1 PUSH2 0x4B72 JUMP JUMPDEST JUMPDEST PUSH2 0x3FAE DUP8 DUP3 DUP9 ADD PUSH2 0x3DA7 JUMP JUMPDEST SWAP4 POP POP PUSH1 0x40 DUP6 ADD CALLDATALOAD PUSH8 0xFFFFFFFFFFFFFFFF DUP2 GT ISZERO PUSH2 0x3FCF JUMPI PUSH2 0x3FCE PUSH2 0x4B72 JUMP JUMPDEST JUMPDEST PUSH2 0x3FDB DUP8 DUP3 DUP9 ADD PUSH2 0x3DA7 JUMP JUMPDEST SWAP3 POP POP PUSH1 0x60 DUP6 ADD CALLDATALOAD PUSH8 0xFFFFFFFFFFFFFFFF DUP2 GT ISZERO PUSH2 0x3FFC JUMPI PUSH2 0x3FFB PUSH2 0x4B72 JUMP JUMPDEST JUMPDEST PUSH2 0x4008 DUP8 DUP3 DUP9 ADD PUSH2 0x3DA7 JUMP JUMPDEST SWAP2 POP POP SWAP3 SWAP6 SWAP2 SWAP5 POP SWAP3 POP JUMP JUMPDEST PUSH1 0x0 PUSH1 0x20 DUP3 DUP5 SUB SLT ISZERO PUSH2 0x402A JUMPI PUSH2 0x4029 PUSH2 0x4B77 JUMP JUMPDEST JUMPDEST PUSH1 0x0 DUP3 ADD CALLDATALOAD PUSH8 0xFFFFFFFFFFFFFFFF DUP2 GT ISZERO PUSH2 0x4048 JUMPI PUSH2 0x4047 PUSH2 0x4B72 JUMP JUMPDEST JUMPDEST PUSH2 0x4054 DUP5 DUP3 DUP6 ADD PUSH2 0x3DA7 JUMP JUMPDEST SWAP2 POP POP SWAP3 SWAP2 POP POP JUMP JUMPDEST PUSH1 0x0 DUP1 PUSH1 0x40 DUP4 DUP6 SUB SLT ISZERO PUSH2 0x4074 JUMPI PUSH2 0x4073 PUSH2 0x4B77 JUMP JUMPDEST JUMPDEST PUSH1 0x0 DUP4 ADD CALLDATALOAD PUSH8 0xFFFFFFFFFFFFFFFF DUP2 GT ISZERO PUSH2 0x4092 JUMPI PUSH2 0x4091 PUSH2 0x4B72 JUMP JUMPDEST JUMPDEST PUSH2 0x409E DUP6 DUP3 DUP7 ADD PUSH2 0x3DA7 JUMP JUMPDEST SWAP3 POP POP PUSH1 0x20 PUSH2 0x40AF DUP6 DUP3 DUP7 ADD PUSH2 0x3D53 JUMP JUMPDEST SWAP2 POP POP SWAP3 POP SWAP3 SWAP1 POP JUMP JUMPDEST PUSH1 0x0 DUP1 PUSH1 0x40 DUP4 DUP6 SUB SLT ISZERO PUSH2 0x40D0 JUMPI PUSH2 0x40CF PUSH2 0x4B77 JUMP JUMPDEST JUMPDEST PUSH1 0x0 DUP4 ADD CALLDATALOAD PUSH8 0xFFFFFFFFFFFFFFFF DUP2 GT ISZERO PUSH2 0x40EE JUMPI PUSH2 0x40ED PUSH2 0x4B72 JUMP JUMPDEST JUMPDEST PUSH2 0x40FA DUP6 DUP3 DUP7 ADD PUSH2 0x3DA7 JUMP JUMPDEST SWAP3 POP POP PUSH1 0x20 PUSH2 0x410B DUP6 DUP3 DUP7 ADD PUSH2 0x3D7D JUMP JUMPDEST SWAP2 POP POP SWAP3 POP SWAP3 SWAP1 POP JUMP JUMPDEST PUSH1 0x0 DUP1 PUSH1 0x40 DUP4 DUP6 SUB SLT ISZERO PUSH2 0x412C JUMPI PUSH2 0x412B PUSH2 0x4B77 JUMP JUMPDEST JUMPDEST PUSH1 0x0 DUP4 ADD CALLDATALOAD PUSH8 0xFFFFFFFFFFFFFFFF DUP2 GT ISZERO PUSH2 0x414A JUMPI PUSH2 0x4149 PUSH2 0x4B72 JUMP JUMPDEST JUMPDEST PUSH2 0x4156 DUP6 DUP3 DUP7 ADD PUSH2 0x3DA7 JUMP JUMPDEST SWAP3 POP POP PUSH1 0x20 DUP4 ADD CALLDATALOAD PUSH8 0xFFFFFFFFFFFFFFFF DUP2 GT ISZERO PUSH2 0x4177 JUMPI PUSH2 0x4176 PUSH2 0x4B72 JUMP JUMPDEST JUMPDEST PUSH2 0x4183 DUP6 DUP3 DUP7 ADD PUSH2 0x3DA7 JUMP JUMPDEST SWAP2 POP POP SWAP3 POP SWAP3 SWAP1 POP JUMP JUMPDEST PUSH1 0x0 DUP1 PUSH1 0x0 PUSH1 0x60 DUP5 DUP7 SUB SLT ISZERO PUSH2 0x41A6 JUMPI PUSH2 0x41A5 PUSH2 0x4B77 JUMP JUMPDEST JUMPDEST PUSH1 0x0 DUP5 ADD CALLDATALOAD PUSH8 0xFFFFFFFFFFFFFFFF DUP2 GT ISZERO PUSH2 0x41C4 JUMPI PUSH2 0x41C3 PUSH2 0x4B72 JUMP JUMPDEST JUMPDEST PUSH2 0x41D0 DUP7 DUP3 DUP8 ADD PUSH2 0x3DA7 JUMP JUMPDEST SWAP4 POP POP PUSH1 0x20 DUP5 ADD CALLDATALOAD PUSH8 0xFFFFFFFFFFFFFFFF DUP2 GT ISZERO PUSH2 0x41F1 JUMPI PUSH2 0x41F0 PUSH2 0x4B72 JUMP JUMPDEST JUMPDEST PUSH2 0x41FD DUP7 DUP3 DUP8 ADD PUSH2 0x3DA7 JUMP JUMPDEST SWAP3 POP POP PUSH1 0x40 PUSH2 0x420E DUP7 DUP3 DUP8 ADD PUSH2 0x3D53 JUMP JUMPDEST SWAP2 POP POP SWAP3 POP SWAP3 POP SWAP3 JUMP JUMPDEST PUSH1 0x0 DUP1 PUSH1 0x0 DUP1 PUSH1 0x80 DUP6 DUP8 SUB SLT ISZERO PUSH2 0x4232 JUMPI PUSH2 0x4231 PUSH2 0x4B77 JUMP JUMPDEST JUMPDEST PUSH1 0x0 DUP6 ADD CALLDATALOAD PUSH8 0xFFFFFFFFFFFFFFFF DUP2 GT ISZERO PUSH2 0x4250 JUMPI PUSH2 0x424F PUSH2 0x4B72 JUMP JUMPDEST JUMPDEST PUSH2 0x425C DUP8 DUP3 DUP9 ADD PUSH2 0x3DA7 JUMP JUMPDEST SWAP5 POP POP PUSH1 0x20 DUP6 ADD CALLDATALOAD PUSH8 0xFFFFFFFFFFFFFFFF DUP2 GT ISZERO PUSH2 0x427D JUMPI PUSH2 0x427C PUSH2 0x4B72 JUMP JUMPDEST JUMPDEST PUSH2 0x4289 DUP8 DUP3 DUP9 ADD PUSH2 0x3DA7 JUMP JUMPDEST SWAP4 POP POP PUSH1 0x40 PUSH2 0x429A DUP8 DUP3 DUP9 ADD PUSH2 0x3D53 JUMP JUMPDEST SWAP3 POP POP PUSH1 0x60 PUSH2 0x42AB DUP8 DUP3 DUP9 ADD PUSH2 0x3D53 JUMP JUMPDEST SWAP2 POP POP SWAP3 SWAP6 SWAP2 SWAP5 POP SWAP3 POP JUMP JUMPDEST PUSH1 0x0 PUSH2 0x42C3 DUP4 DUP4 PUSH2 0x42E3 JUMP JUMPDEST PUSH1 0x20 DUP4 ADD SWAP1 POP SWAP3 SWAP2 POP POP JUMP JUMPDEST PUSH1 0x0 PUSH2 0x42DB DUP4 DUP4 PUSH2 0x43E3 JUMP JUMPDEST SWAP1 POP SWAP3 SWAP2 POP POP JUMP JUMPDEST PUSH2 0x42EC DUP2 PUSH2 0x49D2 JUMP JUMPDEST DUP3 MSTORE POP POP JUMP JUMPDEST PUSH2 0x42FB DUP2 PUSH2 0x49D2 JUMP JUMPDEST DUP3 MSTORE POP POP JUMP JUMPDEST PUSH1 0x0 PUSH2 0x430C DUP3 PUSH2 0x4948 JUMP JUMPDEST PUSH2 0x4316 DUP2 DUP6 PUSH2 0x4983 JUMP JUMPDEST SWAP4 POP PUSH2 0x4321 DUP4 PUSH2 0x4928 JUMP JUMPDEST DUP1 PUSH1 0x0 JUMPDEST DUP4 DUP2 LT ISZERO PUSH2 0x4352 JUMPI DUP2 MLOAD PUSH2 0x4339 DUP9 DUP3 PUSH2 0x42B7 JUMP JUMPDEST SWAP8 POP PUSH2 0x4344 DUP4 PUSH2 0x4969 JUMP JUMPDEST SWAP3 POP POP PUSH1 0x1 DUP2 ADD SWAP1 POP PUSH2 0x4325 JUMP JUMPDEST POP DUP6 SWAP4 POP POP POP POP SWAP3 SWAP2 POP POP JUMP JUMPDEST PUSH1 0x0 PUSH2 0x436A DUP3 PUSH2 0x4953 JUMP JUMPDEST PUSH2 0x4374 DUP2 DUP6 PUSH2 0x4994 JUMP JUMPDEST SWAP4 POP DUP4 PUSH1 0x20 DUP3 MUL DUP6 ADD PUSH2 0x4386 DUP6 PUSH2 0x4938 JUMP JUMPDEST DUP1 PUSH1 0x0 JUMPDEST DUP6 DUP2 LT ISZERO PUSH2 0x43C2 JUMPI DUP5 DUP5 SUB DUP10 MSTORE DUP2 MLOAD PUSH2 0x43A3 DUP6 DUP3 PUSH2 0x42CF JUMP JUMPDEST SWAP5 POP PUSH2 0x43AE DUP4 PUSH2 0x4976 JUMP JUMPDEST SWAP3 POP PUSH1 0x20 DUP11 ADD SWAP10 POP POP PUSH1 0x1 DUP2 ADD SWAP1 POP PUSH2 0x438A JUMP JUMPDEST POP DUP3 SWAP8 POP DUP8 SWAP6 POP POP POP POP POP POP SWAP3 SWAP2 POP POP JUMP JUMPDEST PUSH2 0x43DD DUP2 PUSH2 0x4A02 JUMP JUMPDEST DUP3 MSTORE POP POP JUMP JUMPDEST PUSH1 0x0 PUSH2 0x43EE DUP3 PUSH2 0x495E JUMP JUMPDEST PUSH2 0x43F8 DUP2 DUP6 PUSH2 0x49A5 JUMP JUMPDEST SWAP4 POP PUSH2 0x4408 DUP2 DUP6 PUSH1 0x20 DUP7 ADD PUSH2 0x4A45 JUMP JUMPDEST PUSH2 0x4411 DUP2 PUSH2 0x4B7C JUMP JUMPDEST DUP5 ADD SWAP2 POP POP SWAP3 SWAP2 POP POP JUMP JUMPDEST PUSH1 0x0 PUSH2 0x4427 DUP3 PUSH2 0x495E JUMP JUMPDEST PUSH2 0x4431 DUP2 DUP6 PUSH2 0x49B6 JUMP JUMPDEST SWAP4 POP PUSH2 0x4441 DUP2 DUP6 PUSH1 0x20 DUP7 ADD PUSH2 0x4A45 JUMP JUMPDEST PUSH2 0x444A DUP2 PUSH2 0x4B7C JUMP JUMPDEST DUP5 ADD SWAP2 POP POP SWAP3 SWAP2 POP POP JUMP JUMPDEST PUSH1 0x0 PUSH2 0x4460 DUP3 PUSH2 0x495E JUMP JUMPDEST PUSH2 0x446A DUP2 DUP6 PUSH2 0x49C7 JUMP JUMPDEST SWAP4 POP PUSH2 0x447A DUP2 DUP6 PUSH1 0x20 DUP7 ADD PUSH2 0x4A45 JUMP JUMPDEST DUP1 DUP5 ADD SWAP2 POP POP SWAP3 SWAP2 POP POP JUMP JUMPDEST PUSH1 0x0 PUSH2 0x4493 PUSH1 0x1B DUP4 PUSH2 0x49B6 JUMP JUMPDEST SWAP2 POP PUSH2 0x449E DUP3 PUSH2 0x4B8D JUMP JUMPDEST PUSH1 0x20 DUP3 ADD SWAP1 POP SWAP2 SWAP1 POP JUMP JUMPDEST PUSH1 0x0 PUSH2 0x44B6 PUSH1 0x22 DUP4 PUSH2 0x49B6 JUMP JUMPDEST SWAP2 POP PUSH2 0x44C1 DUP3 PUSH2 0x4BB6 JUMP JUMPDEST PUSH1 0x40 DUP3 ADD SWAP1 POP SWAP2 SWAP1 POP JUMP JUMPDEST PUSH1 0x0 PUSH2 0x44D9 PUSH1 0xB DUP4 PUSH2 0x49B6 JUMP JUMPDEST SWAP2 POP PUSH2 0x44E4 DUP3 PUSH2 0x4C05 JUMP JUMPDEST PUSH1 0x20 DUP3 ADD SWAP1 POP SWAP2 SWAP1 POP JUMP JUMPDEST PUSH1 0x0 PUSH2 0x44FC PUSH1 0x9 DUP4 PUSH2 0x49B6 JUMP JUMPDEST SWAP2 POP PUSH2 0x4507 DUP3 PUSH2 0x4C2E JUMP JUMPDEST PUSH1 0x20 DUP3 ADD SWAP1 POP SWAP2 SWAP1 POP JUMP JUMPDEST PUSH1 0x0 PUSH2 0x451F PUSH1 0xC DUP4 PUSH2 0x49B6 JUMP JUMPDEST SWAP2 POP PUSH2 0x452A DUP3 PUSH2 0x4C57 JUMP JUMPDEST PUSH1 0x20 DUP3 ADD SWAP1 POP SWAP2 SWAP1 POP JUMP JUMPDEST PUSH1 0x0 PUSH2 0x4542 PUSH1 0xD DUP4 PUSH2 0x49B6 JUMP JUMPDEST SWAP2 POP PUSH2 0x454D DUP3 PUSH2 0x4C80 JUMP JUMPDEST PUSH1 0x20 DUP3 ADD SWAP1 POP SWAP2 SWAP1 POP JUMP JUMPDEST PUSH1 0x0 PUSH2 0x4565 PUSH1 0x16 DUP4 PUSH2 0x49B6 JUMP JUMPDEST SWAP2 POP PUSH2 0x4570 DUP3 PUSH2 0x4CA9 JUMP JUMPDEST PUSH1 0x20 DUP3 ADD SWAP1 POP SWAP2 SWAP1 POP JUMP JUMPDEST PUSH1 0x0 PUSH2 0x4588 PUSH1 0xB DUP4 PUSH2 0x49B6 JUMP JUMPDEST SWAP2 POP PUSH2 0x4593 DUP3 PUSH2 0x4CD2 JUMP JUMPDEST PUSH1 0x20 DUP3 ADD SWAP1 POP SWAP2 SWAP1 POP JUMP JUMPDEST PUSH2 0x45A7 DUP2 PUSH2 0x4A2C JUMP JUMPDEST DUP3 MSTORE POP POP JUMP JUMPDEST PUSH1 0x0 PUSH2 0x45B9 DUP3 DUP5 PUSH2 0x4455 JUMP JUMPDEST SWAP2 POP DUP2 SWAP1 POP SWAP3 SWAP2 POP POP JUMP JUMPDEST PUSH1 0x0 PUSH1 0xC0 DUP3 ADD SWAP1 POP PUSH2 0x45D9 PUSH1 0x0 DUP4 ADD DUP10 PUSH2 0x42F2 JUMP JUMPDEST PUSH2 0x45E6 PUSH1 0x20 DUP4 ADD DUP9 PUSH2 0x42F2 JUMP JUMPDEST DUP2 DUP2 SUB PUSH1 0x40 DUP4 ADD MSTORE PUSH2 0x45F8 DUP2 DUP8 PUSH2 0x441C JUMP JUMPDEST SWAP1 POP PUSH2 0x4607 PUSH1 0x60 DUP4 ADD DUP7 PUSH2 0x459E JUMP JUMPDEST PUSH2 0x4614 PUSH1 0x80 DUP4 ADD DUP6 PUSH2 0x459E JUMP JUMPDEST PUSH2 0x4621 PUSH1 0xA0 DUP4 ADD DUP5 PUSH2 0x43D4 JUMP JUMPDEST SWAP8 SWAP7 POP POP POP POP POP POP POP JUMP JUMPDEST PUSH1 0x0 PUSH1 0x40 DUP3 ADD SWAP1 POP PUSH2 0x4641 PUSH1 0x0 DUP4 ADD DUP6 PUSH2 0x42F2 JUMP JUMPDEST DUP2 DUP2 SUB PUSH1 0x20 DUP4 ADD MSTORE PUSH2 0x4653 DUP2 DUP5 PUSH2 0x441C JUMP JUMPDEST SWAP1 POP SWAP4 SWAP3 POP POP POP JUMP JUMPDEST PUSH1 0x0 PUSH1 0x60 DUP3 ADD SWAP1 POP PUSH2 0x4671 PUSH1 0x0 DUP4 ADD DUP7 PUSH2 0x42F2 JUMP JUMPDEST DUP2 DUP2 SUB PUSH1 0x20 DUP4 ADD MSTORE PUSH2 0x4683 DUP2 DUP6 PUSH2 0x441C JUMP JUMPDEST SWAP1 POP DUP2 DUP2 SUB PUSH1 0x40 DUP4 ADD MSTORE PUSH2 0x4697 DUP2 DUP5 PUSH2 0x441C JUMP JUMPDEST SWAP1 POP SWAP5 SWAP4 POP POP POP POP JUMP JUMPDEST PUSH1 0x0 PUSH1 0x80 DUP3 ADD SWAP1 POP DUP2 DUP2 SUB PUSH1 0x0 DUP4 ADD MSTORE PUSH2 0x46BB DUP2 DUP8 PUSH2 0x441C JUMP JUMPDEST SWAP1 POP DUP2 DUP2 SUB PUSH1 0x20 DUP4 ADD MSTORE PUSH2 0x46CF DUP2 DUP7 PUSH2 0x435F JUMP JUMPDEST SWAP1 POP DUP2 DUP2 SUB PUSH1 0x40 DUP4 ADD MSTORE PUSH2 0x46E3 DUP2 DUP6 PUSH2 0x435F JUMP JUMPDEST SWAP1 POP DUP2 DUP2 SUB PUSH1 0x60 DUP4 ADD MSTORE PUSH2 0x46F7 DUP2 DUP5 PUSH2 0x4301 JUMP JUMPDEST SWAP1 POP SWAP6 SWAP5 POP POP POP POP POP JUMP JUMPDEST PUSH1 0x0 PUSH1 0xA0 DUP3 ADD SWAP1 POP DUP2 DUP2 SUB PUSH1 0x0 DUP4 ADD MSTORE PUSH2 0x471C DUP2 DUP9 PUSH2 0x441C JUMP JUMPDEST SWAP1 POP DUP2 DUP2 SUB PUSH1 0x20 DUP4 ADD MSTORE PUSH2 0x4730 DUP2 DUP8 PUSH2 0x441C JUMP JUMPDEST SWAP1 POP DUP2 DUP2 SUB PUSH1 0x40 DUP4 ADD MSTORE PUSH2 0x4744 DUP2 DUP7 PUSH2 0x441C JUMP JUMPDEST SWAP1 POP DUP2 DUP2 SUB PUSH1 0x60 DUP4 ADD MSTORE PUSH2 0x4758 DUP2 DUP6 PUSH2 0x441C JUMP JUMPDEST SWAP1 POP DUP2 DUP2 SUB PUSH1 0x80 DUP4 ADD MSTORE PUSH2 0x476C DUP2 DUP5 PUSH2 0x435F JUMP JUMPDEST SWAP1 POP SWAP7 SWAP6 POP POP POP POP POP POP JUMP JUMPDEST PUSH1 0x0 PUSH1 0x80 DUP3 ADD SWAP1 POP DUP2 DUP2 SUB PUSH1 0x0 DUP4 ADD MSTORE PUSH2 0x4792 DUP2 DUP8 PUSH2 0x441C JUMP JUMPDEST SWAP1 POP DUP2 DUP2 SUB PUSH1 0x20 DUP4 ADD MSTORE PUSH2 0x47A6 DUP2 DUP7 PUSH2 0x441C JUMP JUMPDEST SWAP1 POP PUSH2 0x47B5 PUSH1 0x40 DUP4 ADD DUP6 PUSH2 0x459E JUMP JUMPDEST DUP2 DUP2 SUB PUSH1 0x60 DUP4 ADD MSTORE PUSH2 0x47C7 DUP2 DUP5 PUSH2 0x435F JUMP JUMPDEST SWAP1 POP SWAP6 SWAP5 POP POP POP POP POP JUMP JUMPDEST PUSH1 0x0 PUSH1 0x20 DUP3 ADD SWAP1 POP DUP2 DUP2 SUB PUSH1 0x0 DUP4 ADD MSTORE PUSH2 0x47EB DUP2 PUSH2 0x4486 JUMP JUMPDEST SWAP1 POP SWAP2 SWAP1 POP JUMP JUMPDEST PUSH1 0x0 PUSH1 0x20 DUP3 ADD SWAP1 POP DUP2 DUP2 SUB PUSH1 0x0 DUP4 ADD MSTORE PUSH2 0x480B DUP2 PUSH2 0x44A9 JUMP JUMPDEST SWAP1 POP SWAP2 SWAP1 POP JUMP JUMPDEST PUSH1 0x0 PUSH1 0x20 DUP3 ADD SWAP1 POP DUP2 DUP2 SUB PUSH1 0x0 DUP4 ADD MSTORE PUSH2 0x482B DUP2 PUSH2 0x44CC JUMP JUMPDEST SWAP1 POP SWAP2 SWAP1 POP JUMP JUMPDEST PUSH1 0x0 PUSH1 0x20 DUP3 ADD SWAP1 POP DUP2 DUP2 SUB PUSH1 0x0 DUP4 ADD MSTORE PUSH2 0x484B DUP2 PUSH2 0x44EF JUMP JUMPDEST SWAP1 POP SWAP2 SWAP1 POP JUMP JUMPDEST PUSH1 0x0 PUSH1 0x20 DUP3 ADD SWAP1 POP DUP2 DUP2 SUB PUSH1 0x0 DUP4 ADD MSTORE PUSH2 0x486B DUP2 PUSH2 0x4512 JUMP JUMPDEST SWAP1 POP SWAP2 SWAP1 POP JUMP JUMPDEST PUSH1 0x0 PUSH1 0x20 DUP3 ADD SWAP1 POP DUP2 DUP2 SUB PUSH1 0x0 DUP4 ADD MSTORE PUSH2 0x488B DUP2 PUSH2 0x4535 JUMP JUMPDEST SWAP1 POP SWAP2 SWAP1 POP JUMP JUMPDEST PUSH1 0x0 PUSH1 0x20 DUP3 ADD SWAP1 POP DUP2 DUP2 SUB PUSH1 0x0 DUP4 ADD MSTORE PUSH2 0x48AB DUP2 PUSH2 0x4558 JUMP JUMPDEST SWAP1 POP SWAP2 SWAP1 POP JUMP JUMPDEST PUSH1 0x0 PUSH1 0x20 DUP3 ADD SWAP1 POP DUP2 DUP2 SUB PUSH1 0x0 DUP4 ADD MSTORE PUSH2 0x48CB DUP2 PUSH2 0x457B JUMP JUMPDEST SWAP1 POP SWAP2 SWAP1 POP JUMP JUMPDEST PUSH1 0x0 PUSH2 0x48DC PUSH2 0x48ED JUMP JUMPDEST SWAP1 POP PUSH2 0x48E8 DUP3 DUP3 PUSH2 0x4AAA JUMP JUMPDEST SWAP2 SWAP1 POP JUMP JUMPDEST PUSH1 0x0 PUSH1 0x40 MLOAD SWAP1 POP SWAP1 JUMP JUMPDEST PUSH1 0x0 PUSH8 0xFFFFFFFFFFFFFFFF DUP3 GT ISZERO PUSH2 0x4912 JUMPI PUSH2 0x4911 PUSH2 0x4B39 JUMP JUMPDEST JUMPDEST PUSH2 0x491B DUP3 PUSH2 0x4B7C JUMP JUMPDEST SWAP1 POP PUSH1 0x20 DUP2 ADD SWAP1 POP SWAP2 SWAP1 POP JUMP JUMPDEST PUSH1 0x0 DUP2 SWAP1 POP PUSH1 0x20 DUP3 ADD SWAP1 POP SWAP2 SWAP1 POP JUMP JUMPDEST PUSH1 0x0 DUP2 SWAP1 POP PUSH1 0x20 DUP3 ADD SWAP1 POP SWAP2 SWAP1 POP JUMP JUMPDEST PUSH1 0x0 DUP2 MLOAD SWAP1 POP SWAP2 SWAP1 POP JUMP JUMPDEST PUSH1 0x0 DUP2 MLOAD SWAP1 POP SWAP2 SWAP1 POP JUMP JUMPDEST PUSH1 0x0 DUP2 MLOAD SWAP1 POP SWAP2 SWAP1 POP JUMP JUMPDEST PUSH1 0x0 PUSH1 0x20 DUP3 ADD SWAP1 POP SWAP2 SWAP1 POP JUMP JUMPDEST PUSH1 0x0 PUSH1 0x20 DUP3 ADD SWAP1 POP SWAP2 SWAP1 POP JUMP JUMPDEST PUSH1 0x0 DUP3 DUP3 MSTORE PUSH1 0x20 DUP3 ADD SWAP1 POP SWAP3 SWAP2 POP POP JUMP JUMPDEST PUSH1 0x0 DUP3 DUP3 MSTORE PUSH1 0x20 DUP3 ADD SWAP1 POP SWAP3 SWAP2 POP POP JUMP JUMPDEST PUSH1 0x0 DUP3 DUP3 MSTORE PUSH1 0x20 DUP3 ADD SWAP1 POP SWAP3 SWAP2 POP POP JUMP JUMPDEST PUSH1 0x0 DUP3 DUP3 MSTORE PUSH1 0x20 DUP3 ADD SWAP1 POP SWAP3 SWAP2 POP POP JUMP JUMPDEST PUSH1 0x0 DUP2 SWAP1 POP SWAP3 SWAP2 POP POP JUMP JUMPDEST PUSH1 0x0 PUSH2 0x49DD DUP3 PUSH2 0x4A0C JUMP JUMPDEST SWAP1 POP SWAP2 SWAP1 POP JUMP JUMPDEST PUSH1 0x0 PUSH2 0x49EF DUP3 PUSH2 0x4A0C JUMP JUMPDEST SWAP1 POP SWAP2 SWAP1 POP JUMP JUMPDEST PUSH1 0x0 DUP2 ISZERO ISZERO SWAP1 POP SWAP2 SWAP1 POP JUMP JUMPDEST PUSH1 0x0 DUP2 SWAP1 POP SWAP2 SWAP1 POP JUMP JUMPDEST PUSH1 0x0 PUSH20 0xFFFFFFFFFFFFFFFFFFFFFFFFFFFFFFFFFFFFFFFF DUP3 AND SWAP1 POP SWAP2 SWAP1 POP JUMP JUMPDEST PUSH1 0x0 DUP2 SWAP1 POP SWAP2 SWAP1 POP JUMP JUMPDEST DUP3 DUP2 DUP4 CALLDATACOPY PUSH1 0x0 DUP4 DUP4 ADD MSTORE POP POP POP JUMP JUMPDEST PUSH1 0x0 JUMPDEST DUP4 DUP2 LT ISZERO PUSH2 0x4A63 JUMPI DUP1 DUP3 ADD MLOAD DUP2 DUP5 ADD MSTORE PUSH1 0x20 DUP2 ADD SWAP1 POP PUSH2 0x4A48 JUMP JUMPDEST DUP4 DUP2 GT ISZERO PUSH2 0x4A72 JUMPI PUSH1 0x0 DUP5 DUP5 ADD MSTORE JUMPDEST POP POP POP POP JUMP JUMPDEST PUSH1 0x0 PUSH1 0x2 DUP3 DIV SWAP1 POP PUSH1 0x1 DUP3 AND DUP1 PUSH2 0x4A90 JUMPI PUSH1 0x7F DUP3 AND SWAP2 POP JUMPDEST PUSH1 0x20 DUP3 LT DUP2 EQ ISZERO PUSH2 0x4AA4 JUMPI PUSH2 0x4AA3 PUSH2 0x4B0A JUMP JUMPDEST JUMPDEST POP SWAP2 SWAP1 POP JUMP JUMPDEST PUSH2 0x4AB3 DUP3 PUSH2 0x4B7C JUMP JUMPDEST DUP2 ADD DUP2 DUP2 LT PUSH8 0xFFFFFFFFFFFFFFFF DUP3 GT OR ISZERO PUSH2 0x4AD2 JUMPI PUSH2 0x4AD1 PUSH2 0x4B39 JUMP JUMPDEST JUMPDEST DUP1 PUSH1 0x40 MSTORE POP POP POP JUMP JUMPDEST PUSH32 0x4E487B7100000000000000000000000000000000000000000000000000000000 PUSH1 0x0 MSTORE PUSH1 0x21 PUSH1 0x4 MSTORE PUSH1 0x24 PUSH1 0x0 REVERT JUMPDEST PUSH32 0x4E487B7100000000000000000000000000000000000000000000000000000000 PUSH1 0x0 MSTORE PUSH1 0x22 PUSH1 0x4 MSTORE PUSH1 0x24 PUSH1 0x0 REVERT JUMPDEST PUSH32 0x4E487B7100000000000000000000000000000000000000000000000000000000 PUSH1 0x0 MSTORE PUSH1 0x41 PUSH1 0x4 MSTORE PUSH1 0x24 PUSH1 0x0 REVERT JUMPDEST PUSH1 0x0 DUP1 REVERT JUMPDEST PUSH1 0x0 DUP1 REVERT JUMPDEST PUSH1 0x0 DUP1 REVERT JUMPDEST PUSH1 0x0 DUP1 REVERT JUMPDEST PUSH1 0x0 PUSH1 0x1F NOT PUSH1 0x1F DUP4 ADD AND SWAP1 POP SWAP2 SWAP1 POP JUMP JUMPDEST PUSH32 0x596F7520616C726561647920636865636B207468697320636173650000000000 PUSH1 0x0 DUP3 ADD MSTORE POP JUMP JUMPDEST PUSH32 0x596F7572206C6F67696E20616C726561647920657869737420696E2073797374 PUSH1 0x0 DUP3 ADD MSTORE PUSH32 0x656D000000000000000000000000000000000000000000000000000000000000 PUSH1 0x20 DUP3 ADD MSTORE POP JUMP JUMPDEST PUSH32 0x4C6F772062616C616E6365000000000000000000000000000000000000000000 PUSH1 0x0 DUP3 ADD MSTORE POP JUMP JUMPDEST PUSH32 0x466F7262696464656E0000000000000000000000000000000000000000000000 PUSH1 0x0 DUP3 ADD MSTORE POP JUMP JUMPDEST PUSH32 0x596F75206E6F7420757365720000000000000000000000000000000000000000 PUSH1 0x0 DUP3 ADD MSTORE POP JUMP JUMPDEST PUSH32 0x596F75206E6F742061646D696E00000000000000000000000000000000000000 PUSH1 0x0 DUP3 ADD MSTORE POP JUMP JUMPDEST PUSH32 0x596F7520616C7265616479207265676973746572656400000000000000000000 PUSH1 0x0 DUP3 ADD MSTORE POP JUMP JUMPDEST PUSH32 0x57726F6E67204C6F67696E000000000000000000000000000000000000000000 PUSH1 0x0 DUP3 ADD MSTORE POP JUMP JUMPDEST PUSH2 0x4D04 DUP2 PUSH2 0x49D2 JUMP JUMPDEST DUP2 EQ PUSH2 0x4D0F JUMPI PUSH1 0x0 DUP1 REVERT JUMPDEST POP JUMP JUMPDEST PUSH2 0x4D1B DUP2 PUSH2 0x49E4 JUMP JUMPDEST DUP2 EQ PUSH2 0x4D26 JUMPI PUSH1 0x0 DUP1 REVERT JUMPDEST POP JUMP JUMPDEST PUSH2 0x4D32 DUP2 PUSH2 0x49F6 JUMP JUMPDEST DUP2 EQ PUSH2 0x4D3D JUMPI PUSH1 0x0 DUP1 REVERT JUMPDEST POP JUMP JUMPDEST PUSH2 0x4D49 DUP2 PUSH2 0x4A02 JUMP JUMPDEST DUP2 EQ PUSH2 0x4D54 JUMPI PUSH1 0x0 DUP1 REVERT JUMPDEST POP JUMP INVALID LOG2 PUSH5 0x6970667358 0x22 SLT KECCAK256 0xBF 0xE2 0xCA 0xE7 0xEC LOG3 EXTCODEHASH 0xC7 0xE3 0xEE RETURN PUSH24 0xA46BAE708C34D48A478A94004B1C86666C1E01E64736F6C PUSH4 0x43000807 STOP CALLER "
				},
				"gasEstimates": {
					"creation": {
						"codeDepositCost": "3970600",
						"executionCost": "infinite",
						"totalCost": "infinite"
					},
					"external": {
						"checkRequest(string,bool)": "infinite",
						"createReview(address,string,string,int256)": "infinite",
						"disLikeReview(string)": "infinite",
						"doShopDebt(address)": "infinite",
						"downRequestToByer(string)": "infinite",
						"getAdminInfo()": "infinite",
						"getBuyerInfo()": "infinite",
						"getRequestById(string)": "infinite",
						"getReviewById(string)": "infinite",
						"getSellerInfo()": "infinite",
						"getSellerInfoByAddr(address)": "infinite",
						"likeReview(string)": "infinite",
						"login(string)": "infinite",
						"regAdmin(address,string,string)": "infinite",
						"registerAdmin(string,string)": "infinite",
						"registerBank(string,address)": "infinite",
						"registerBuyer(string,string,address)": "infinite",
						"registerProvider(string,address)": "infinite",
						"registerSeller(string,string,address,address)": "infinite",
						"registerShop(address,string,string,string)": "infinite",
						"requestToSeller(string)": "infinite"
					}
				},
				"methodIdentifiers": {
					"checkRequest(string,bool)": "2059b7ad",
					"createReview(address,string,string,int256)": "2d6abf59",
					"disLikeReview(string)": "bce62a74",
					"doShopDebt(address)": "83db0f6d",
					"downRequestToByer(string)": "b038316c",
					"getAdminInfo()": "c3d5fd39",
					"getBuyerInfo()": "99b958ee",
					"getRequestById(string)": "dffc8b06",
					"getReviewById(string)": "2f0185c4",
					"getSellerInfo()": "54504c12",
					"getSellerInfoByAddr(address)": "08e74858",
					"likeReview(string)": "7b3c7488",
					"login(string)": "3a7d280c",
					"regAdmin(address,string,string)": "a59d105f",
					"registerAdmin(string,string)": "f8f98b79",
					"registerBank(string,address)": "2156a781",
					"registerBuyer(string,string,address)": "9d344d10",
					"registerProvider(string,address)": "7ccb2bd8",
					"registerSeller(string,string,address,address)": "8403f848",
					"registerShop(address,string,string,string)": "7558b2f8",
					"requestToSeller(string)": "ac6fa7c3"
				}
			},
			"storageLayout": {
				"storage": [
					{
						"astId": 37,
						"contract": "contracts/Shops.sol:ShopsSystem",
						"label": "userStatus",
						"offset": 0,
						"slot": "0",
						"type": "t_mapping(t_uint256,t_string_storage)"
					},
					{
						"astId": 41,
						"contract": "contracts/Shops.sol:ShopsSystem",
						"label": "userLogins",
						"offset": 0,
						"slot": "1",
						"type": "t_mapping(t_string_memory_ptr,t_address)"
					},
					{
						"astId": 46,
						"contract": "contracts/Shops.sol:ShopsSystem",
						"label": "users",
						"offset": 0,
						"slot": "2",
						"type": "t_mapping(t_address,t_struct(User)33_storage)"
					},
					{
						"astId": 337,
						"contract": "contracts/Shops.sol:ShopsSystem",
						"label": "likeCountCheck",
						"offset": 0,
						"slot": "3",
						"type": "t_mapping(t_address,t_bool)"
					},
					{
						"astId": 339,
						"contract": "contracts/Shops.sol:ShopsSystem",
						"label": "provider",
						"offset": 0,
						"slot": "4",
						"type": "t_address"
					},
					{
						"astId": 341,
						"contract": "contracts/Shops.sol:ShopsSystem",
						"label": "admin",
						"offset": 0,
						"slot": "5",
						"type": "t_address"
					},
					{
						"astId": 344,
						"contract": "contracts/Shops.sol:ShopsSystem",
						"label": "admins",
						"offset": 0,
						"slot": "6",
						"type": "t_array(t_string_storage)dyn_storage"
					},
					{
						"astId": 346,
						"contract": "contracts/Shops.sol:ShopsSystem",
						"label": "bank",
						"offset": 0,
						"slot": "7",
						"type": "t_address_payable"
					},
					{
						"astId": 349,
						"contract": "contracts/Shops.sol:ShopsSystem",
						"label": "sellers",
						"offset": 0,
						"slot": "8",
						"type": "t_array(t_address)dyn_storage"
					},
					{
						"astId": 352,
						"contract": "contracts/Shops.sol:ShopsSystem",
						"label": "shopsAddresses",
						"offset": 0,
						"slot": "9",
						"type": "t_array(t_address)dyn_storage"
					},
					{
						"astId": 355,
						"contract": "contracts/Shops.sol:ShopsSystem",
						"label": "requests",
						"offset": 0,
						"slot": "10",
						"type": "t_array(t_string_storage)dyn_storage"
					},
					{
						"astId": 360,
						"contract": "contracts/Shops.sol:ShopsSystem",
						"label": "ShopsList",
						"offset": 0,
						"slot": "11",
						"type": "t_mapping(t_address,t_struct(Shop)322_storage)"
					},
					{
						"astId": 364,
						"contract": "contracts/Shops.sol:ShopsSystem",
						"label": "salesmanShop",
						"offset": 0,
						"slot": "12",
						"type": "t_mapping(t_address,t_address)"
					},
					{
						"astId": 369,
						"contract": "contracts/Shops.sol:ShopsSystem",
						"label": "salesmen",
						"offset": 0,
						"slot": "13",
						"type": "t_mapping(t_address,t_array(t_address)dyn_storage)"
					},
					{
						"astId": 374,
						"contract": "contracts/Shops.sol:ShopsSystem",
						"label": "shopReviews",
						"offset": 0,
						"slot": "14",
						"type": "t_mapping(t_address,t_array(t_string_storage)dyn_storage)"
					},
					{
						"astId": 379,
						"contract": "contracts/Shops.sol:ShopsSystem",
						"label": "reviewId",
						"offset": 0,
						"slot": "15",
						"type": "t_mapping(t_string_memory_ptr,t_struct(Review)23_storage)"
					},
					{
						"astId": 384,
						"contract": "contracts/Shops.sol:ShopsSystem",
						"label": "requestId",
						"offset": 0,
						"slot": "16",
						"type": "t_mapping(t_string_memory_ptr,t_struct(Request)331_storage)"
					},
					{
						"astId": 390,
						"contract": "contracts/Shops.sol:ShopsSystem",
						"label": "reviewCom",
						"offset": 0,
						"slot": "17",
						"type": "t_mapping(t_string_memory_ptr,t_mapping(t_address,t_bool))"
					}
				],
				"types": {
					"t_address": {
						"encoding": "inplace",
						"label": "address",
						"numberOfBytes": "20"
					},
					"t_address_payable": {
						"encoding": "inplace",
						"label": "address payable",
						"numberOfBytes": "20"
					},
					"t_array(t_address)dyn_storage": {
						"base": "t_address",
						"encoding": "dynamic_array",
						"label": "address[]",
						"numberOfBytes": "32"
					},
					"t_array(t_string_storage)dyn_storage": {
						"base": "t_string_storage",
						"encoding": "dynamic_array",
						"label": "string[]",
						"numberOfBytes": "32"
					},
					"t_bool": {
						"encoding": "inplace",
						"label": "bool",
						"numberOfBytes": "1"
					},
					"t_int256": {
						"encoding": "inplace",
						"label": "int256",
						"numberOfBytes": "32"
					},
					"t_mapping(t_address,t_address)": {
						"encoding": "mapping",
						"key": "t_address",
						"label": "mapping(address => address)",
						"numberOfBytes": "32",
						"value": "t_address"
					},
					"t_mapping(t_address,t_array(t_address)dyn_storage)": {
						"encoding": "mapping",
						"key": "t_address",
						"label": "mapping(address => address[])",
						"numberOfBytes": "32",
						"value": "t_array(t_address)dyn_storage"
					},
					"t_mapping(t_address,t_array(t_string_storage)dyn_storage)": {
						"encoding": "mapping",
						"key": "t_address",
						"label": "mapping(address => string[])",
						"numberOfBytes": "32",
						"value": "t_array(t_string_storage)dyn_storage"
					},
					"t_mapping(t_address,t_bool)": {
						"encoding": "mapping",
						"key": "t_address",
						"label": "mapping(address => bool)",
						"numberOfBytes": "32",
						"value": "t_bool"
					},
					"t_mapping(t_address,t_struct(Shop)322_storage)": {
						"encoding": "mapping",
						"key": "t_address",
						"label": "mapping(address => struct Shop)",
						"numberOfBytes": "32",
						"value": "t_struct(Shop)322_storage"
					},
					"t_mapping(t_address,t_struct(User)33_storage)": {
						"encoding": "mapping",
						"key": "t_address",
						"label": "mapping(address => struct User)",
						"numberOfBytes": "32",
						"value": "t_struct(User)33_storage"
					},
					"t_mapping(t_string_memory_ptr,t_address)": {
						"encoding": "mapping",
						"key": "t_string_memory_ptr",
						"label": "mapping(string => address)",
						"numberOfBytes": "32",
						"value": "t_address"
					},
					"t_mapping(t_string_memory_ptr,t_mapping(t_address,t_bool))": {
						"encoding": "mapping",
						"key": "t_string_memory_ptr",
						"label": "mapping(string => mapping(address => bool))",
						"numberOfBytes": "32",
						"value": "t_mapping(t_address,t_bool)"
					},
					"t_mapping(t_string_memory_ptr,t_struct(Request)331_storage)": {
						"encoding": "mapping",
						"key": "t_string_memory_ptr",
						"label": "mapping(string => struct Request)",
						"numberOfBytes": "32",
						"value": "t_struct(Request)331_storage"
					},
					"t_mapping(t_string_memory_ptr,t_struct(Review)23_storage)": {
						"encoding": "mapping",
						"key": "t_string_memory_ptr",
						"label": "mapping(string => struct Review)",
						"numberOfBytes": "32",
						"value": "t_struct(Review)23_storage"
					},
					"t_mapping(t_uint256,t_string_storage)": {
						"encoding": "mapping",
						"key": "t_uint256",
						"label": "mapping(uint256 => string)",
						"numberOfBytes": "32",
						"value": "t_string_storage"
					},
					"t_string_memory_ptr": {
						"encoding": "bytes",
						"label": "string",
						"numberOfBytes": "32"
					},
					"t_string_storage": {
						"encoding": "bytes",
						"label": "string",
						"numberOfBytes": "32"
					},
					"t_struct(Request)331_storage": {
						"encoding": "inplace",
						"label": "struct Request",
						"members": [
							{
								"astId": 324,
								"contract": "contracts/Shops.sol:ShopsSystem",
								"label": "userAddr",
								"offset": 0,
								"slot": "0",
								"type": "t_address"
							},
							{
								"astId": 326,
								"contract": "contracts/Shops.sol:ShopsSystem",
								"label": "currentRole",
								"offset": 0,
								"slot": "1",
								"type": "t_string_storage"
							},
							{
								"astId": 328,
								"contract": "contracts/Shops.sol:ShopsSystem",
								"label": "desiredRole",
								"offset": 0,
								"slot": "2",
								"type": "t_string_storage"
							},
							{
								"astId": 330,
								"contract": "contracts/Shops.sol:ShopsSystem",
								"label": "checked",
								"offset": 0,
								"slot": "3",
								"type": "t_bool"
							}
						],
						"numberOfBytes": "128"
					},
					"t_struct(Review)23_storage": {
						"encoding": "inplace",
						"label": "struct Review",
						"members": [
							{
								"astId": 10,
								"contract": "contracts/Shops.sol:ShopsSystem",
								"label": "autorAddress",
								"offset": 0,
								"slot": "0",
								"type": "t_address"
							},
							{
								"astId": 12,
								"contract": "contracts/Shops.sol:ShopsSystem",
								"label": "shopAddr",
								"offset": 0,
								"slot": "1",
								"type": "t_address"
							},
							{
								"astId": 14,
								"contract": "contracts/Shops.sol:ShopsSystem",
								"label": "message",
								"offset": 0,
								"slot": "2",
								"type": "t_string_storage"
							},
							{
								"astId": 17,
								"contract": "contracts/Shops.sol:ShopsSystem",
								"label": "likeCount",
								"offset": 0,
								"slot": "3",
								"type": "t_array(t_address)dyn_storage"
							},
							{
								"astId": 20,
								"contract": "contracts/Shops.sol:ShopsSystem",
								"label": "disLikeCount",
								"offset": 0,
								"slot": "4",
								"type": "t_array(t_address)dyn_storage"
							},
							{
								"astId": 22,
								"contract": "contracts/Shops.sol:ShopsSystem",
								"label": "grade",
								"offset": 0,
								"slot": "5",
								"type": "t_int256"
							}
						],
						"numberOfBytes": "192"
					},
					"t_struct(Shop)322_storage": {
						"encoding": "inplace",
						"label": "struct Shop",
						"members": [
							{
								"astId": 317,
								"contract": "contracts/Shops.sol:ShopsSystem",
								"label": "number",
								"offset": 0,
								"slot": "0",
								"type": "t_string_storage"
							},
							{
								"astId": 319,
								"contract": "contracts/Shops.sol:ShopsSystem",
								"label": "city",
								"offset": 0,
								"slot": "1",
								"type": "t_string_storage"
							},
							{
								"astId": 321,
								"contract": "contracts/Shops.sol:ShopsSystem",
								"label": "debt",
								"offset": 0,
								"slot": "2",
								"type": "t_int256"
							}
						],
						"numberOfBytes": "96"
					},
					"t_struct(User)33_storage": {
						"encoding": "inplace",
						"label": "struct User",
						"members": [
							{
								"astId": 25,
								"contract": "contracts/Shops.sol:ShopsSystem",
								"label": "status",
								"offset": 0,
								"slot": "0",
								"type": "t_uint256"
							},
							{
								"astId": 27,
								"contract": "contracts/Shops.sol:ShopsSystem",
								"label": "userLogin",
								"offset": 0,
								"slot": "1",
								"type": "t_string_storage"
							},
							{
								"astId": 29,
								"contract": "contracts/Shops.sol:ShopsSystem",
								"label": "fio",
								"offset": 0,
								"slot": "2",
								"type": "t_string_storage"
							},
							{
								"astId": 32,
								"contract": "contracts/Shops.sol:ShopsSystem",
								"label": "reviews",
								"offset": 0,
								"slot": "3",
								"type": "t_array(t_string_storage)dyn_storage"
							}
						],
						"numberOfBytes": "128"
					},
					"t_uint256": {
						"encoding": "inplace",
						"label": "uint256",
						"numberOfBytes": "32"
					}
				}
			},
			"userdoc": {
				"kind": "user",
				"methods": {},
				"version": 1
			}
		}
	}
}