{
	"contracts/Shops.sol": {
		"ShopsSystem": {
			"abi": [
				{
					"inputs": [],
					"stateMutability": "nonpayable",
					"type": "constructor"
				},
				{
					"inputs": [
						{
							"internalType": "string",
							"name": "id",
							"type": "string"
						},
						{
							"internalType": "bool",
							"name": "isAccept",
							"type": "bool"
						}
					],
					"name": "checkRequest",
					"outputs": [],
					"stateMutability": "nonpayable",
					"type": "function"
				},
				{
					"inputs": [
						{
							"internalType": "address",
							"name": "shopAddr",
							"type": "address"
						},
						{
							"internalType": "string",
							"name": "userMessage",
							"type": "string"
						},
						{
							"internalType": "string",
							"name": "id",
							"type": "string"
						},
						{
							"internalType": "int256",
							"name": "grade",
							"type": "int256"
						}
					],
					"name": "createReview",
					"outputs": [],
					"stateMutability": "nonpayable",
					"type": "function"
				},
				{
					"inputs": [
						{
							"internalType": "string",
							"name": "id",
							"type": "string"
						}
					],
					"name": "disLikeReview",
					"outputs": [],
					"stateMutability": "nonpayable",
					"type": "function"
				},
				{
					"inputs": [
						{
							"internalType": "address payable",
							"name": "shopAddr",
							"type": "address"
						}
					],
					"name": "doShopDebt",
					"outputs": [],
					"stateMutability": "nonpayable",
					"type": "function"
				},
				{
					"inputs": [
						{
							"internalType": "string",
							"name": "id",
							"type": "string"
						}
					],
					"name": "downRequestToByer",
					"outputs": [],
					"stateMutability": "nonpayable",
					"type": "function"
				},
				{
					"inputs": [],
					"name": "getAdminInfo",
					"outputs": [
						{
							"internalType": "string",
							"name": "login",
							"type": "string"
						},
						{
							"internalType": "string[]",
							"name": "userRequests",
							"type": "string[]"
						},
						{
							"internalType": "string[]",
							"name": "adminList",
							"type": "string[]"
						},
						{
							"internalType": "address[]",
							"name": "sellersAddr",
							"type": "address[]"
						}
					],
					"stateMutability": "view",
					"type": "function"
				},
				{
					"inputs": [],
					"name": "getBuyerInfo",
					"outputs": [
						{
							"internalType": "string",
							"name": "userLogin",
							"type": "string"
						},
						{
							"internalType": "string",
							"name": "fio",
							"type": "string"
						},
						{
							"internalType": "uint256",
							"name": "balance",
							"type": "uint256"
						},
						{
							"internalType": "string[]",
							"name": "reviews",
							"type": "string[]"
						}
					],
					"stateMutability": "view",
					"type": "function"
				},
				{
					"inputs": [
						{
							"internalType": "string",
							"name": "id",
							"type": "string"
						}
					],
					"name": "getRequestById",
					"outputs": [
						{
							"internalType": "address",
							"name": "userAddr",
							"type": "address"
						},
						{
							"internalType": "string",
							"name": "currentRole",
							"type": "string"
						},
						{
							"internalType": "string",
							"name": "desiredRole",
							"type": "string"
						}
					],
					"stateMutability": "view",
					"type": "function"
				},
				{
					"inputs": [
						{
							"internalType": "string",
							"name": "id",
							"type": "string"
						}
					],
					"name": "getReviewById",
					"outputs": [
						{
							"internalType": "address",
							"name": "autorAddr",
							"type": "address"
						},
						{
							"internalType": "address",
							"name": "shopAddr",
							"type": "address"
						},
						{
							"internalType": "string",
							"name": "reviewMessage",
							"type": "string"
						},
						{
							"internalType": "uint256",
							"name": "likeCount",
							"type": "uint256"
						},
						{
							"internalType": "uint256",
							"name": "disLikeCount",
							"type": "uint256"
						},
						{
							"internalType": "int256",
							"name": "grade",
							"type": "int256"
						}
					],
					"stateMutability": "view",
					"type": "function"
				},
				{
					"inputs": [],
					"name": "getSellerInfo",
					"outputs": [
						{
							"internalType": "string",
							"name": "sellerLogin",
							"type": "string"
						},
						{
							"internalType": "string",
							"name": "fio",
							"type": "string"
						},
						{
							"internalType": "string",
							"name": "city",
							"type": "string"
						},
						{
							"internalType": "string",
							"name": "shopNumber",
							"type": "string"
						},
						{
							"internalType": "string[]",
							"name": "reviews",
							"type": "string[]"
						}
					],
					"stateMutability": "view",
					"type": "function"
				},
				{
					"inputs": [
						{
							"internalType": "address",
							"name": "sellerAddr",
							"type": "address"
						}
					],
					"name": "getSellerInfoByAddr",
					"outputs": [
						{
							"internalType": "string",
							"name": "sellerLogin",
							"type": "string"
						},
						{
							"internalType": "string",
							"name": "fio",
							"type": "string"
						},
						{
							"internalType": "string",
							"name": "city",
							"type": "string"
						},
						{
							"internalType": "string",
							"name": "shopNumber",
							"type": "string"
						},
						{
							"internalType": "string[]",
							"name": "reviews",
							"type": "string[]"
						}
					],
					"stateMutability": "view",
					"type": "function"
				},
				{
					"inputs": [
						{
							"internalType": "string",
							"name": "id",
							"type": "string"
						}
					],
					"name": "likeReview",
					"outputs": [],
					"stateMutability": "nonpayable",
					"type": "function"
				},
				{
					"inputs": [
						{
							"internalType": "string",
							"name": "userLogin",
							"type": "string"
						}
					],
					"name": "login",
					"outputs": [
						{
							"internalType": "address",
							"name": "userAddress",
							"type": "address"
						},
						{
							"internalType": "string",
							"name": "status",
							"type": "string"
						}
					],
					"stateMutability": "view",
					"type": "function"
				},
				{
					"inputs": [
						{
							"internalType": "address",
							"name": "adminAddr",
							"type": "address"
						},
						{
							"internalType": "string",
							"name": "fio",
							"type": "string"
						},
						{
							"internalType": "string",
							"name": "userLogin",
							"type": "string"
						}
					],
					"name": "regAdmin",
					"outputs": [],
					"stateMutability": "nonpayable",
					"type": "function"
				},
				{
					"inputs": [
						{
							"internalType": "string",
							"name": "fio",
							"type": "string"
						},
						{
							"internalType": "string",
							"name": "userLogin",
							"type": "string"
						}
					],
					"name": "registerAdmin",
					"outputs": [],
					"stateMutability": "nonpayable",
					"type": "function"
				},
				{
					"inputs": [
						{
							"internalType": "string",
							"name": "bankLogin",
							"type": "string"
						},
						{
							"internalType": "address",
							"name": "bankAddr",
							"type": "address"
						}
					],
					"name": "registerBank",
					"outputs": [],
					"stateMutability": "nonpayable",
					"type": "function"
				},
				{
					"inputs": [
						{
							"internalType": "string",
							"name": "fio",
							"type": "string"
						},
						{
							"internalType": "string",
							"name": "userLogin",
							"type": "string"
						},
						{
							"internalType": "address",
							"name": "userAddr",
							"type": "address"
						}
					],
					"name": "registerBuyer",
					"outputs": [],
					"stateMutability": "nonpayable",
					"type": "function"
				},
				{
					"inputs": [
						{
							"internalType": "string",
							"name": "providerLogin",
							"type": "string"
						},
						{
							"internalType": "address",
							"name": "providerAddr",
							"type": "address"
						}
					],
					"name": "registerProvider",
					"outputs": [],
					"stateMutability": "nonpayable",
					"type": "function"
				},
				{
					"inputs": [
						{
							"internalType": "string",
							"name": "fio",
							"type": "string"
						},
						{
							"internalType": "string",
							"name": "userLogin",
							"type": "string"
						},
						{
							"internalType": "address",
							"name": "userAddress",
							"type": "address"
						},
						{
							"internalType": "address",
							"name": "shopAddr",
							"type": "address"
						}
					],
					"name": "registerSeller",
					"outputs": [],
					"stateMutability": "nonpayable",
					"type": "function"
				},
				{
					"inputs": [
						{
							"internalType": "address",
							"name": "shopAddr",
							"type": "address"
						},
						{
							"internalType": "string",
							"name": "number",
							"type": "string"
						},
						{
							"internalType": "string",
							"name": "city",
							"type": "string"
						},
						{
							"internalType": "string",
							"name": "shopLogin",
							"type": "string"
						}
					],
					"name": "registerShop",
					"outputs": [],
					"stateMutability": "nonpayable",
					"type": "function"
				},
				{
					"inputs": [
						{
							"internalType": "string",
							"name": "id",
							"type": "string"
						}
					],
					"name": "requestToSeller",
					"outputs": [],
					"stateMutability": "nonpayable",
					"type": "function"
				}
			],
			"devdoc": {
				"kind": "dev",
				"methods": {},
				"version": 1
			},
			"evm": {
				"assembly": "    /* \"contracts/Shops.sol\":265:8865  contract ShopsSystem is AuthService{... */\n  mstore(0x40, 0x80)\n    /* \"contracts/Shops.sol\":992:1040  constructor(){... */\n  callvalue\n  dup1\n  iszero\n  tag_1\n  jumpi\n  0x00\n  dup1\n  revert\ntag_1:\n  pop\n    /* \"contracts/AuthService.sol\":576:599  userStatus[0] = \"buyer\" */\n  mload(0x40)\n  dup1\n  0x40\n  add\n  0x40\n  mstore\n  dup1\n  0x05\n  dup2\n  mstore\n  0x20\n  add\n  0x6275796572000000000000000000000000000000000000000000000000000000\n  dup2\n  mstore\n  pop\n    /* \"contracts/AuthService.sol\":576:586  userStatus */\n  0x00\n    /* \"contracts/AuthService.sol\":576:589  userStatus[0] */\n  dup1\n    /* \"contracts/AuthService.sol\":587:588  0 */\n  dup1\n    /* \"contracts/AuthService.sol\":576:589  userStatus[0] */\n  dup2\n  mstore\n  0x20\n  add\n  swap1\n  dup2\n  mstore\n  0x20\n  add\n  0x00\n  keccak256\n    /* \"contracts/AuthService.sol\":576:599  userStatus[0] = \"buyer\" */\n  swap1\n  dup1\n  mload\n  swap1\n  0x20\n  add\n  swap1\n  tag_5\n  swap3\n  swap2\n  swap1\n  tag_6\n  jump\t// in\ntag_5:\n  pop\n    /* \"contracts/AuthService.sol\":609:633  userStatus[1] = \"seller\" */\n  mload(0x40)\n  dup1\n  0x40\n  add\n  0x40\n  mstore\n  dup1\n  0x06\n  dup2\n  mstore\n  0x20\n  add\n  0x73656c6c65720000000000000000000000000000000000000000000000000000\n  dup2\n  mstore\n  pop\n    /* \"contracts/AuthService.sol\":609:619  userStatus */\n  0x00\n    /* \"contracts/AuthService.sol\":609:622  userStatus[1] */\n  dup1\n    /* \"contracts/AuthService.sol\":620:621  1 */\n  0x01\n    /* \"contracts/AuthService.sol\":609:622  userStatus[1] */\n  dup2\n  mstore\n  0x20\n  add\n  swap1\n  dup2\n  mstore\n  0x20\n  add\n  0x00\n  keccak256\n    /* \"contracts/AuthService.sol\":609:633  userStatus[1] = \"seller\" */\n  swap1\n  dup1\n  mload\n  swap1\n  0x20\n  add\n  swap1\n  tag_7\n  swap3\n  swap2\n  swap1\n  tag_6\n  jump\t// in\ntag_7:\n  pop\n    /* \"contracts/AuthService.sol\":643:665  userStatus[2] = \"shop\" */\n  mload(0x40)\n  dup1\n  0x40\n  add\n  0x40\n  mstore\n  dup1\n  0x04\n  dup2\n  mstore\n  0x20\n  add\n  0x73686f7000000000000000000000000000000000000000000000000000000000\n  dup2\n  mstore\n  pop\n    /* \"contracts/AuthService.sol\":643:653  userStatus */\n  0x00\n    /* \"contracts/AuthService.sol\":643:656  userStatus[2] */\n  dup1\n    /* \"contracts/AuthService.sol\":654:655  2 */\n  0x02\n    /* \"contracts/AuthService.sol\":643:656  userStatus[2] */\n  dup2\n  mstore\n  0x20\n  add\n  swap1\n  dup2\n  mstore\n  0x20\n  add\n  0x00\n  keccak256\n    /* \"contracts/AuthService.sol\":643:665  userStatus[2] = \"shop\" */\n  swap1\n  dup1\n  mload\n  swap1\n  0x20\n  add\n  swap1\n  tag_8\n  swap3\n  swap2\n  swap1\n  tag_6\n  jump\t// in\ntag_8:\n  pop\n    /* \"contracts/AuthService.sol\":675:698  userStatus[3] = \"admin\" */\n  mload(0x40)\n  dup1\n  0x40\n  add\n  0x40\n  mstore\n  dup1\n  0x05\n  dup2\n  mstore\n  0x20\n  add\n  0x61646d696e000000000000000000000000000000000000000000000000000000\n  dup2\n  mstore\n  pop\n    /* \"contracts/AuthService.sol\":675:685  userStatus */\n  0x00\n    /* \"contracts/AuthService.sol\":675:688  userStatus[3] */\n  dup1\n    /* \"contracts/AuthService.sol\":686:687  3 */\n  0x03\n    /* \"contracts/AuthService.sol\":675:688  userStatus[3] */\n  dup2\n  mstore\n  0x20\n  add\n  swap1\n  dup2\n  mstore\n  0x20\n  add\n  0x00\n  keccak256\n    /* \"contracts/AuthService.sol\":675:698  userStatus[3] = \"admin\" */\n  swap1\n  dup1\n  mload\n  swap1\n  0x20\n  add\n  swap1\n  tag_9\n  swap3\n  swap2\n  swap1\n  tag_6\n  jump\t// in\ntag_9:\n  pop\n    /* \"contracts/AuthService.sol\":708:734  userStatus[4] = \"provider\" */\n  mload(0x40)\n  dup1\n  0x40\n  add\n  0x40\n  mstore\n  dup1\n  0x08\n  dup2\n  mstore\n  0x20\n  add\n  0x70726f7669646572000000000000000000000000000000000000000000000000\n  dup2\n  mstore\n  pop\n    /* \"contracts/AuthService.sol\":708:718  userStatus */\n  0x00\n    /* \"contracts/AuthService.sol\":708:721  userStatus[4] */\n  dup1\n    /* \"contracts/AuthService.sol\":719:720  4 */\n  0x04\n    /* \"contracts/AuthService.sol\":708:721  userStatus[4] */\n  dup2\n  mstore\n  0x20\n  add\n  swap1\n  dup2\n  mstore\n  0x20\n  add\n  0x00\n  keccak256\n    /* \"contracts/AuthService.sol\":708:734  userStatus[4] = \"provider\" */\n  swap1\n  dup1\n  mload\n  swap1\n  0x20\n  add\n  swap1\n  tag_10\n  swap3\n  swap2\n  swap1\n  tag_6\n  jump\t// in\ntag_10:\n  pop\n    /* \"contracts/AuthService.sol\":744:766  userStatus[5] = \"bank\" */\n  mload(0x40)\n  dup1\n  0x40\n  add\n  0x40\n  mstore\n  dup1\n  0x04\n  dup2\n  mstore\n  0x20\n  add\n  0x62616e6b00000000000000000000000000000000000000000000000000000000\n  dup2\n  mstore\n  pop\n    /* \"contracts/AuthService.sol\":744:754  userStatus */\n  0x00\n    /* \"contracts/AuthService.sol\":744:757  userStatus[5] */\n  dup1\n    /* \"contracts/AuthService.sol\":755:756  5 */\n  0x05\n    /* \"contracts/AuthService.sol\":744:757  userStatus[5] */\n  dup2\n  mstore\n  0x20\n  add\n  swap1\n  dup2\n  mstore\n  0x20\n  add\n  0x00\n  keccak256\n    /* \"contracts/AuthService.sol\":744:766  userStatus[5] = \"bank\" */\n  swap1\n  dup1\n  mload\n  swap1\n  0x20\n  add\n  swap1\n  tag_11\n  swap3\n  swap2\n  swap1\n  tag_6\n  jump\t// in\ntag_11:\n  pop\n    /* \"contracts/Shops.sol\":1023:1033  msg.sender */\n  caller\n    /* \"contracts/Shops.sol\":1015:1020  admin */\n  0x05\n  0x00\n    /* \"contracts/Shops.sol\":1015:1033  admin = msg.sender */\n  0x0100\n  exp\n  dup2\n  sload\n  dup2\n  0xffffffffffffffffffffffffffffffffffffffff\n  mul\n  not\n  and\n  swap1\n  dup4\n  0xffffffffffffffffffffffffffffffffffffffff\n  and\n  mul\n  or\n  swap1\n  sstore\n  pop\n    /* \"contracts/Shops.sol\":265:8865  contract ShopsSystem is AuthService{... */\n  jump(tag_13)\ntag_6:\n  dup3\n  dup1\n  sload\n  tag_14\n  swap1\n  tag_15\n  jump\t// in\ntag_14:\n  swap1\n  0x00\n  mstore\n  keccak256(0x00, 0x20)\n  swap1\n  0x1f\n  add\n  0x20\n  swap1\n  div\n  dup2\n  add\n  swap3\n  dup3\n  tag_17\n  jumpi\n  0x00\n  dup6\n  sstore\n  jump(tag_16)\ntag_17:\n  dup3\n  0x1f\n  lt\n  tag_18\n  jumpi\n  dup1\n  mload\n  not(0xff)\n  and\n  dup4\n  dup1\n  add\n  or\n  dup6\n  sstore\n  jump(tag_16)\ntag_18:\n  dup3\n  dup1\n  add\n  0x01\n  add\n  dup6\n  sstore\n  dup3\n  iszero\n  tag_16\n  jumpi\n  swap2\n  dup3\n  add\ntag_19:\n  dup3\n  dup2\n  gt\n  iszero\n  tag_20\n  jumpi\n  dup3\n  mload\n  dup3\n  sstore\n  swap2\n  0x20\n  add\n  swap2\n  swap1\n  0x01\n  add\n  swap1\n  jump(tag_19)\ntag_20:\ntag_16:\n  pop\n  swap1\n  pop\n  tag_21\n  swap2\n  swap1\n  tag_22\n  jump\t// in\ntag_21:\n  pop\n  swap1\n  jump\t// out\ntag_22:\ntag_23:\n  dup1\n  dup3\n  gt\n  iszero\n  tag_24\n  jumpi\n  0x00\n  dup2\n  0x00\n  swap1\n  sstore\n  pop\n  0x01\n  add\n  jump(tag_23)\ntag_24:\n  pop\n  swap1\n  jump\t// out\n    /* \"#utility.yul\":7:327   */\ntag_15:\n    /* \"#utility.yul\":51:57   */\n  0x00\n    /* \"#utility.yul\":88:89   */\n  0x02\n    /* \"#utility.yul\":82:86   */\n  dup3\n    /* \"#utility.yul\":78:90   */\n  div\n    /* \"#utility.yul\":68:90   */\n  swap1\n  pop\n    /* \"#utility.yul\":135:136   */\n  0x01\n    /* \"#utility.yul\":129:133   */\n  dup3\n    /* \"#utility.yul\":125:137   */\n  and\n    /* \"#utility.yul\":156:174   */\n  dup1\n    /* \"#utility.yul\":146:227   */\n  tag_27\n  jumpi\n    /* \"#utility.yul\":212:216   */\n  0x7f\n    /* \"#utility.yul\":204:210   */\n  dup3\n    /* \"#utility.yul\":200:217   */\n  and\n    /* \"#utility.yul\":190:217   */\n  swap2\n  pop\n    /* \"#utility.yul\":146:227   */\ntag_27:\n    /* \"#utility.yul\":274:276   */\n  0x20\n    /* \"#utility.yul\":266:272   */\n  dup3\n    /* \"#utility.yul\":263:277   */\n  lt\n    /* \"#utility.yul\":243:261   */\n  dup2\n    /* \"#utility.yul\":240:278   */\n  eq\n    /* \"#utility.yul\":237:321   */\n  iszero\n  tag_28\n  jumpi\n    /* \"#utility.yul\":293:311   */\n  tag_29\n  tag_30\n  jump\t// in\ntag_29:\n    /* \"#utility.yul\":237:321   */\ntag_28:\n    /* \"#utility.yul\":58:327   */\n  pop\n    /* \"#utility.yul\":7:327   */\n  swap2\n  swap1\n  pop\n  jump\t// out\n    /* \"#utility.yul\":333:513   */\ntag_30:\n    /* \"#utility.yul\":381:458   */\n  0x4e487b7100000000000000000000000000000000000000000000000000000000\n    /* \"#utility.yul\":378:379   */\n  0x00\n    /* \"#utility.yul\":371:459   */\n  mstore\n    /* \"#utility.yul\":478:482   */\n  0x22\n    /* \"#utility.yul\":475:476   */\n  0x04\n    /* \"#utility.yul\":468:483   */\n  mstore\n    /* \"#utility.yul\":502:506   */\n  0x24\n    /* \"#utility.yul\":499:500   */\n  0x00\n    /* \"#utility.yul\":492:507   */\n  revert\n    /* \"contracts/Shops.sol\":265:8865  contract ShopsSystem is AuthService{... */\ntag_13:\n  dataSize(sub_0)\n  dup1\n  dataOffset(sub_0)\n  0x00\n  codecopy\n  0x00\n  return\nstop\n\nsub_0: assembly {\n        /* \"contracts/Shops.sol\":265:8865  contract ShopsSystem is AuthService{... */\n      mstore(0x40, 0x80)\n      callvalue\n      dup1\n      iszero\n      tag_1\n      jumpi\n      0x00\n      dup1\n      revert\n    tag_1:\n      pop\n      jumpi(tag_2, lt(calldatasize, 0x04))\n      shr(0xe0, calldataload(0x00))\n      dup1\n      0x83db0f6d\n      gt\n      tag_24\n      jumpi\n      dup1\n      0xac6fa7c3\n      gt\n      tag_25\n      jumpi\n      dup1\n      0xac6fa7c3\n      eq\n      tag_18\n      jumpi\n      dup1\n      0xb038316c\n      eq\n      tag_19\n      jumpi\n      dup1\n      0xbce62a74\n      eq\n      tag_20\n      jumpi\n      dup1\n      0xc3d5fd39\n      eq\n      tag_21\n      jumpi\n      dup1\n      0xdffc8b06\n      eq\n      tag_22\n      jumpi\n      dup1\n      0xf8f98b79\n      eq\n      tag_23\n      jumpi\n      jump(tag_2)\n    tag_25:\n      dup1\n      0x83db0f6d\n      eq\n      tag_13\n      jumpi\n      dup1\n      0x8403f848\n      eq\n      tag_14\n      jumpi\n      dup1\n      0x99b958ee\n      eq\n      tag_15\n      jumpi\n      dup1\n      0x9d344d10\n      eq\n      tag_16\n      jumpi\n      dup1\n      0xa59d105f\n      eq\n      tag_17\n      jumpi\n      jump(tag_2)\n    tag_24:\n      dup1\n      0x3a7d280c\n      gt\n      tag_26\n      jumpi\n      dup1\n      0x3a7d280c\n      eq\n      tag_8\n      jumpi\n      dup1\n      0x54504c12\n      eq\n      tag_9\n      jumpi\n      dup1\n      0x7558b2f8\n      eq\n      tag_10\n      jumpi\n      dup1\n      0x7b3c7488\n      eq\n      tag_11\n      jumpi\n      dup1\n      0x7ccb2bd8\n      eq\n      tag_12\n      jumpi\n      jump(tag_2)\n    tag_26:\n      dup1\n      0x08e74858\n      eq\n      tag_3\n      jumpi\n      dup1\n      0x2059b7ad\n      eq\n      tag_4\n      jumpi\n      dup1\n      0x2156a781\n      eq\n      tag_5\n      jumpi\n      dup1\n      0x2d6abf59\n      eq\n      tag_6\n      jumpi\n      dup1\n      0x2f0185c4\n      eq\n      tag_7\n      jumpi\n    tag_2:\n      0x00\n      dup1\n      revert\n        /* \"contracts/Shops.sol\":5474:6087  function getSellerInfoByAddr(address sellerAddr) public view isUserStatus(UserRoles.admin)returns(... */\n    tag_3:\n      tag_27\n      0x04\n      dup1\n      calldatasize\n      sub\n      dup2\n      add\n      swap1\n      tag_28\n      swap2\n      swap1\n      tag_29\n      jump\t// in\n    tag_28:\n      tag_30\n      jump\t// in\n    tag_27:\n      mload(0x40)\n      tag_31\n      swap6\n      swap5\n      swap4\n      swap3\n      swap2\n      swap1\n      tag_32\n      jump\t// in\n    tag_31:\n      mload(0x40)\n      dup1\n      swap2\n      sub\n      swap1\n      return\n        /* \"contracts/Shops.sol\":8148:8450  function checkRequest(string memory id,bool isAccept) public isUserStatus(UserRoles.admin) {... */\n    tag_4:\n      tag_33\n      0x04\n      dup1\n      calldatasize\n      sub\n      dup2\n      add\n      swap1\n      tag_34\n      swap2\n      swap1\n      tag_35\n      jump\t// in\n    tag_34:\n      tag_36\n      jump\t// in\n    tag_33:\n      stop\n        /* \"contracts/Shops.sol\":2659:2846  function registerBank(string memory bankLogin,address bankAddr) public isAdmin {... */\n    tag_5:\n      tag_37\n      0x04\n      dup1\n      calldatasize\n      sub\n      dup2\n      add\n      swap1\n      tag_38\n      swap2\n      swap1\n      tag_39\n      jump\t// in\n    tag_38:\n      tag_40\n      jump\t// in\n    tag_37:\n      stop\n        /* \"contracts/Shops.sol\":6093:6547  function createReview(... */\n    tag_6:\n      tag_41\n      0x04\n      dup1\n      calldatasize\n      sub\n      dup2\n      add\n      swap1\n      tag_42\n      swap2\n      swap1\n      tag_43\n      jump\t// in\n    tag_42:\n      tag_44\n      jump\t// in\n    tag_41:\n      stop\n        /* \"contracts/Shops.sol\":7037:7523  function getReviewById(string memory id) public view returns(... */\n    tag_7:\n      tag_45\n      0x04\n      dup1\n      calldatasize\n      sub\n      dup2\n      add\n      swap1\n      tag_46\n      swap2\n      swap1\n      tag_47\n      jump\t// in\n    tag_46:\n      tag_48\n      jump\t// in\n    tag_45:\n      mload(0x40)\n      tag_49\n      swap7\n      swap6\n      swap5\n      swap4\n      swap3\n      swap2\n      swap1\n      tag_50\n      jump\t// in\n    tag_49:\n      mload(0x40)\n      dup1\n      swap2\n      sub\n      swap1\n      return\n        /* \"contracts/AuthService.sol\":2255:2555  function login(string memory userLogin) public view isRegistered(userLogin) returns(address userAddress,string memory status){... */\n    tag_8:\n      tag_51\n      0x04\n      dup1\n      calldatasize\n      sub\n      dup2\n      add\n      swap1\n      tag_52\n      swap2\n      swap1\n      tag_47\n      jump\t// in\n    tag_52:\n      tag_53\n      jump\t// in\n    tag_51:\n      mload(0x40)\n      tag_54\n      swap3\n      swap2\n      swap1\n      tag_55\n      jump\t// in\n    tag_54:\n      mload(0x40)\n      dup1\n      swap2\n      sub\n      swap1\n      return\n        /* \"contracts/Shops.sol\":3855:4446  function getSellerInfo() public view isUserStatus(UserRoles.seller) returns(... */\n    tag_9:\n      tag_56\n      tag_57\n      jump\t// in\n    tag_56:\n      mload(0x40)\n      tag_58\n      swap6\n      swap5\n      swap4\n      swap3\n      swap2\n      swap1\n      tag_32\n      jump\t// in\n    tag_58:\n      mload(0x40)\n      dup1\n      swap2\n      sub\n      swap1\n      return\n        /* \"contracts/Shops.sol\":1889:2240  function registerShop(address shopAddr,string memory number,string memory city,string memory shopLogin) public isUserStatus(UserRoles.admin){... */\n    tag_10:\n      tag_59\n      0x04\n      dup1\n      calldatasize\n      sub\n      dup2\n      add\n      swap1\n      tag_60\n      swap2\n      swap1\n      tag_61\n      jump\t// in\n    tag_60:\n      tag_62\n      jump\t// in\n    tag_59:\n      stop\n        /* \"contracts/Shops.sol\":6553:6786  function likeReview(string memory id) public isUser {... */\n    tag_11:\n      tag_63\n      0x04\n      dup1\n      calldatasize\n      sub\n      dup2\n      add\n      swap1\n      tag_64\n      swap2\n      swap1\n      tag_47\n      jump\t// in\n    tag_64:\n      tag_65\n      jump\t// in\n    tag_63:\n      stop\n        /* \"contracts/Shops.sol\":2340:2584  function registerProvider(string memory providerLogin,address providerAddr) public isAdmin {... */\n    tag_12:\n      tag_66\n      0x04\n      dup1\n      calldatasize\n      sub\n      dup2\n      add\n      swap1\n      tag_67\n      swap2\n      swap1\n      tag_39\n      jump\t// in\n    tag_67:\n      tag_68\n      jump\t// in\n    tag_66:\n      stop\n        /* \"contracts/Shops.sol\":3576:3779  function doShopDebt(address payable shopAddr) public isUserStatus(UserRoles.bank) {... */\n    tag_13:\n      tag_69\n      0x04\n      dup1\n      calldatasize\n      sub\n      dup2\n      add\n      swap1\n      tag_70\n      swap2\n      swap1\n      tag_71\n      jump\t// in\n    tag_70:\n      tag_72\n      jump\t// in\n    tag_69:\n      stop\n        /* \"contracts/Shops.sol\":2909:3215  function registerSeller(string memory fio,string memory userLogin,address userAddress,address shopAddr) public {... */\n    tag_14:\n      tag_73\n      0x04\n      dup1\n      calldatasize\n      sub\n      dup2\n      add\n      swap1\n      tag_74\n      swap2\n      swap1\n      tag_75\n      jump\t// in\n    tag_74:\n      tag_76\n      jump\t// in\n    tag_73:\n      stop\n        /* \"contracts/Shops.sol\":4545:4909  function getBuyerInfo() public view isUser returns(... */\n    tag_15:\n      tag_77\n      tag_78\n      jump\t// in\n    tag_77:\n      mload(0x40)\n      tag_79\n      swap5\n      swap4\n      swap3\n      swap2\n      swap1\n      tag_80\n      jump\t// in\n    tag_79:\n      mload(0x40)\n      dup1\n      swap2\n      sub\n      swap1\n      return\n        /* \"contracts/Shops.sol\":3282:3481  function registerBuyer(string memory fio,string memory userLogin,address userAddr) public{... */\n    tag_16:\n      tag_81\n      0x04\n      dup1\n      calldatasize\n      sub\n      dup2\n      add\n      swap1\n      tag_82\n      swap2\n      swap1\n      tag_83\n      jump\t// in\n    tag_82:\n      tag_84\n      jump\t// in\n    tag_81:\n      stop\n        /* \"contracts/Shops.sol\":1570:1828  function regAdmin(address adminAddr,string memory fio,string memory userLogin) public isUserStatus(UserRoles.admin){... */\n    tag_17:\n      tag_85\n      0x04\n      dup1\n      calldatasize\n      sub\n      dup2\n      add\n      swap1\n      tag_86\n      swap2\n      swap1\n      tag_87\n      jump\t// in\n    tag_86:\n      tag_88\n      jump\t// in\n    tag_85:\n      stop\n        /* \"contracts/Shops.sol\":7529:7831  function requestToSeller(string memory id) public isUserStatus(UserRoles.buyer){... */\n    tag_18:\n      tag_89\n      0x04\n      dup1\n      calldatasize\n      sub\n      dup2\n      add\n      swap1\n      tag_90\n      swap2\n      swap1\n      tag_47\n      jump\t// in\n    tag_90:\n      tag_91\n      jump\t// in\n    tag_89:\n      stop\n        /* \"contracts/Shops.sol\":7837:8142  function downRequestToByer(string memory id) public isUserStatus(UserRoles.seller){... */\n    tag_19:\n      tag_92\n      0x04\n      dup1\n      calldatasize\n      sub\n      dup2\n      add\n      swap1\n      tag_93\n      swap2\n      swap1\n      tag_47\n      jump\t// in\n    tag_93:\n      tag_94\n      jump\t// in\n    tag_92:\n      stop\n        /* \"contracts/Shops.sol\":6792:7031  function disLikeReview(string memory id) public isUser {... */\n    tag_20:\n      tag_95\n      0x04\n      dup1\n      calldatasize\n      sub\n      dup2\n      add\n      swap1\n      tag_96\n      swap2\n      swap1\n      tag_47\n      jump\t// in\n    tag_96:\n      tag_97\n      jump\t// in\n    tag_95:\n      stop\n        /* \"contracts/Shops.sol\":4979:5377  function getAdminInfo() public view isUserStatus(UserRoles.admin) returns(... */\n    tag_21:\n      tag_98\n      tag_99\n      jump\t// in\n    tag_98:\n      mload(0x40)\n      tag_100\n      swap5\n      swap4\n      swap3\n      swap2\n      swap1\n      tag_101\n      jump\t// in\n    tag_100:\n      mload(0x40)\n      dup1\n      swap2\n      sub\n      swap1\n      return\n        /* \"contracts/Shops.sol\":8456:8801  function getRequestById(string memory id) public view returns(... */\n    tag_22:\n      tag_102\n      0x04\n      dup1\n      calldatasize\n      sub\n      dup2\n      add\n      swap1\n      tag_103\n      swap2\n      swap1\n      tag_47\n      jump\t// in\n    tag_103:\n      tag_104\n      jump\t// in\n    tag_102:\n      mload(0x40)\n      tag_105\n      swap4\n      swap3\n      swap2\n      swap1\n      tag_106\n      jump\t// in\n    tag_105:\n      mload(0x40)\n      dup1\n      swap2\n      sub\n      swap1\n      return\n        /* \"contracts/Shops.sol\":1254:1479  function registerAdmin(string memory fio,string memory userLogin) isAdmin public {... */\n    tag_23:\n      tag_107\n      0x04\n      dup1\n      calldatasize\n      sub\n      dup2\n      add\n      swap1\n      tag_108\n      swap2\n      swap1\n      tag_109\n      jump\t// in\n    tag_108:\n      tag_110\n      jump\t// in\n    tag_107:\n      stop\n        /* \"contracts/Shops.sol\":5474:6087  function getSellerInfoByAddr(address sellerAddr) public view isUserStatus(UserRoles.admin)returns(... */\n    tag_30:\n        /* \"contracts/Shops.sol\":5581:5606  string memory sellerLogin */\n      0x60\n        /* \"contracts/Shops.sol\":5616:5633  string memory fio */\n      dup1\n        /* \"contracts/Shops.sol\":5643:5661  string memory city */\n      0x60\n        /* \"contracts/Shops.sol\":5671:5695  string memory shopNumber */\n      dup1\n        /* \"contracts/Shops.sol\":5705:5728  string[] memory reviews */\n      0x60\n        /* \"contracts/Shops.sol\":5548:5563  UserRoles.admin */\n      0x03\n        /* \"contracts/AuthService.sol\":1616:1621  users */\n      0x02\n        /* \"contracts/AuthService.sol\":1616:1633  users[msg.sender] */\n      0x00\n        /* \"contracts/AuthService.sol\":1622:1632  msg.sender */\n      caller\n        /* \"contracts/AuthService.sol\":1616:1633  users[msg.sender] */\n      0xffffffffffffffffffffffffffffffffffffffff\n      and\n      0xffffffffffffffffffffffffffffffffffffffff\n      and\n      dup2\n      mstore\n      0x20\n      add\n      swap1\n      dup2\n      mstore\n      0x20\n      add\n      0x00\n      keccak256\n        /* \"contracts/AuthService.sol\":1616:1640  users[msg.sender].status */\n      0x00\n      add\n      sload\n        /* \"contracts/AuthService.sol\":1605:1611  status */\n      dup2\n        /* \"contracts/AuthService.sol\":1600:1612  uint(status) */\n      0x05\n      dup2\n      gt\n      iszero\n      tag_112\n      jumpi\n      tag_113\n      tag_114\n      jump\t// in\n    tag_113:\n    tag_112:\n        /* \"contracts/AuthService.sol\":1600:1640  uint(status) == users[msg.sender].status */\n      eq\n        /* \"contracts/AuthService.sol\":1592:1653  require(uint(status) == users[msg.sender].status,\"Forbidden\") */\n      tag_115\n      jumpi\n      mload(0x40)\n      0x08c379a000000000000000000000000000000000000000000000000000000000\n      dup2\n      mstore\n      0x04\n      add\n      tag_116\n      swap1\n      tag_117\n      jump\t// in\n    tag_116:\n      mload(0x40)\n      dup1\n      swap2\n      sub\n      swap1\n      revert\n    tag_115:\n        /* \"contracts/Shops.sol\":5744:5764  User memory sellUser */\n      0x00\n        /* \"contracts/Shops.sol\":5767:5772  users */\n      0x02\n        /* \"contracts/Shops.sol\":5767:5784  users[sellerAddr] */\n      0x00\n        /* \"contracts/Shops.sol\":5773:5783  sellerAddr */\n      dup10\n        /* \"contracts/Shops.sol\":5767:5784  users[sellerAddr] */\n      0xffffffffffffffffffffffffffffffffffffffff\n      and\n      0xffffffffffffffffffffffffffffffffffffffff\n      and\n      dup2\n      mstore\n      0x20\n      add\n      swap1\n      dup2\n      mstore\n      0x20\n      add\n      0x00\n      keccak256\n        /* \"contracts/Shops.sol\":5744:5784  User memory sellUser = users[sellerAddr] */\n      mload(0x40)\n      dup1\n      0x80\n      add\n      0x40\n      mstore\n      swap1\n      dup2\n      0x00\n      dup3\n      add\n      sload\n      dup2\n      mstore\n      0x20\n      add\n      0x01\n      dup3\n      add\n      dup1\n      sload\n      tag_119\n      swap1\n      tag_120\n      jump\t// in\n    tag_119:\n      dup1\n      0x1f\n      add\n      0x20\n      dup1\n      swap2\n      div\n      mul\n      0x20\n      add\n      mload(0x40)\n      swap1\n      dup2\n      add\n      0x40\n      mstore\n      dup1\n      swap3\n      swap2\n      swap1\n      dup2\n      dup2\n      mstore\n      0x20\n      add\n      dup3\n      dup1\n      sload\n      tag_121\n      swap1\n      tag_120\n      jump\t// in\n    tag_121:\n      dup1\n      iszero\n      tag_122\n      jumpi\n      dup1\n      0x1f\n      lt\n      tag_123\n      jumpi\n      0x0100\n      dup1\n      dup4\n      sload\n      div\n      mul\n      dup4\n      mstore\n      swap2\n      0x20\n      add\n      swap2\n      jump(tag_122)\n    tag_123:\n      dup3\n      add\n      swap2\n      swap1\n      0x00\n      mstore\n      keccak256(0x00, 0x20)\n      swap1\n    tag_124:\n      dup2\n      sload\n      dup2\n      mstore\n      swap1\n      0x01\n      add\n      swap1\n      0x20\n      add\n      dup1\n      dup4\n      gt\n      tag_124\n      jumpi\n      dup3\n      swap1\n      sub\n      0x1f\n      and\n      dup3\n      add\n      swap2\n    tag_122:\n      pop\n      pop\n      pop\n      pop\n      pop\n      dup2\n      mstore\n      0x20\n      add\n      0x02\n      dup3\n      add\n      dup1\n      sload\n      tag_125\n      swap1\n      tag_120\n      jump\t// in\n    tag_125:\n      dup1\n      0x1f\n      add\n      0x20\n      dup1\n      swap2\n      div\n      mul\n      0x20\n      add\n      mload(0x40)\n      swap1\n      dup2\n      add\n      0x40\n      mstore\n      dup1\n      swap3\n      swap2\n      swap1\n      dup2\n      dup2\n      mstore\n      0x20\n      add\n      dup3\n      dup1\n      sload\n      tag_126\n      swap1\n      tag_120\n      jump\t// in\n    tag_126:\n      dup1\n      iszero\n      tag_127\n      jumpi\n      dup1\n      0x1f\n      lt\n      tag_128\n      jumpi\n      0x0100\n      dup1\n      dup4\n      sload\n      div\n      mul\n      dup4\n      mstore\n      swap2\n      0x20\n      add\n      swap2\n      jump(tag_127)\n    tag_128:\n      dup3\n      add\n      swap2\n      swap1\n      0x00\n      mstore\n      keccak256(0x00, 0x20)\n      swap1\n    tag_129:\n      dup2\n      sload\n      dup2\n      mstore\n      swap1\n      0x01\n      add\n      swap1\n      0x20\n      add\n      dup1\n      dup4\n      gt\n      tag_129\n      jumpi\n      dup3\n      swap1\n      sub\n      0x1f\n      and\n      dup3\n      add\n      swap2\n    tag_127:\n      pop\n      pop\n      pop\n      pop\n      pop\n      dup2\n      mstore\n      0x20\n      add\n      0x03\n      dup3\n      add\n      dup1\n      sload\n      dup1\n      0x20\n      mul\n      0x20\n      add\n      mload(0x40)\n      swap1\n      dup2\n      add\n      0x40\n      mstore\n      dup1\n      swap3\n      swap2\n      swap1\n      dup2\n      dup2\n      mstore\n      0x20\n      add\n      0x00\n      swap1\n    tag_130:\n      dup3\n      dup3\n      lt\n      iszero\n      tag_131\n      jumpi\n      dup4\n      dup3\n      swap1\n      0x00\n      mstore\n      keccak256(0x00, 0x20)\n      add\n      dup1\n      sload\n      tag_133\n      swap1\n      tag_120\n      jump\t// in\n    tag_133:\n      dup1\n      0x1f\n      add\n      0x20\n      dup1\n      swap2\n      div\n      mul\n      0x20\n      add\n      mload(0x40)\n      swap1\n      dup2\n      add\n      0x40\n      mstore\n      dup1\n      swap3\n      swap2\n      swap1\n      dup2\n      dup2\n      mstore\n      0x20\n      add\n      dup3\n      dup1\n      sload\n      tag_134\n      swap1\n      tag_120\n      jump\t// in\n    tag_134:\n      dup1\n      iszero\n      tag_135\n      jumpi\n      dup1\n      0x1f\n      lt\n      tag_136\n      jumpi\n      0x0100\n      dup1\n      dup4\n      sload\n      div\n      mul\n      dup4\n      mstore\n      swap2\n      0x20\n      add\n      swap2\n      jump(tag_135)\n    tag_136:\n      dup3\n      add\n      swap2\n      swap1\n      0x00\n      mstore\n      keccak256(0x00, 0x20)\n      swap1\n    tag_137:\n      dup2\n      sload\n      dup2\n      mstore\n      swap1\n      0x01\n      add\n      swap1\n      0x20\n      add\n      dup1\n      dup4\n      gt\n      tag_137\n      jumpi\n      dup3\n      swap1\n      sub\n      0x1f\n      and\n      dup3\n      add\n      swap2\n    tag_135:\n      pop\n      pop\n      pop\n      pop\n      pop\n      dup2\n      mstore\n      0x20\n      add\n      swap1\n      0x01\n      add\n      swap1\n      jump(tag_130)\n    tag_131:\n      pop\n      pop\n      pop\n      pop\n      dup2\n      mstore\n      pop\n      pop\n      swap1\n      pop\n        /* \"contracts/Shops.sol\":5794:5814  address sellShopAddr */\n      0x00\n        /* \"contracts/Shops.sol\":5817:5829  salesmanShop */\n      0x0c\n        /* \"contracts/Shops.sol\":5817:5841  salesmanShop[sellerAddr] */\n      0x00\n        /* \"contracts/Shops.sol\":5830:5840  sellerAddr */\n      dup11\n        /* \"contracts/Shops.sol\":5817:5841  salesmanShop[sellerAddr] */\n      0xffffffffffffffffffffffffffffffffffffffff\n      and\n      0xffffffffffffffffffffffffffffffffffffffff\n      and\n      dup2\n      mstore\n      0x20\n      add\n      swap1\n      dup2\n      mstore\n      0x20\n      add\n      0x00\n      keccak256\n      0x00\n      swap1\n      sload\n      swap1\n      0x0100\n      exp\n      swap1\n      div\n      0xffffffffffffffffffffffffffffffffffffffff\n      and\n        /* \"contracts/Shops.sol\":5794:5841  address sellShopAddr = salesmanShop[sellerAddr] */\n      swap1\n      pop\n        /* \"contracts/Shops.sol\":5851:5871  Shop memory sellShop */\n      0x00\n        /* \"contracts/Shops.sol\":5874:5883  ShopsList */\n      0x0b\n        /* \"contracts/Shops.sol\":5874:5897  ShopsList[sellShopAddr] */\n      0x00\n        /* \"contracts/Shops.sol\":5884:5896  sellShopAddr */\n      dup4\n        /* \"contracts/Shops.sol\":5874:5897  ShopsList[sellShopAddr] */\n      0xffffffffffffffffffffffffffffffffffffffff\n      and\n      0xffffffffffffffffffffffffffffffffffffffff\n      and\n      dup2\n      mstore\n      0x20\n      add\n      swap1\n      dup2\n      mstore\n      0x20\n      add\n      0x00\n      keccak256\n        /* \"contracts/Shops.sol\":5851:5897  Shop memory sellShop = ShopsList[sellShopAddr] */\n      mload(0x40)\n      dup1\n      0x60\n      add\n      0x40\n      mstore\n      swap1\n      dup2\n      0x00\n      dup3\n      add\n      dup1\n      sload\n      tag_138\n      swap1\n      tag_120\n      jump\t// in\n    tag_138:\n      dup1\n      0x1f\n      add\n      0x20\n      dup1\n      swap2\n      div\n      mul\n      0x20\n      add\n      mload(0x40)\n      swap1\n      dup2\n      add\n      0x40\n      mstore\n      dup1\n      swap3\n      swap2\n      swap1\n      dup2\n      dup2\n      mstore\n      0x20\n      add\n      dup3\n      dup1\n      sload\n      tag_139\n      swap1\n      tag_120\n      jump\t// in\n    tag_139:\n      dup1\n      iszero\n      tag_140\n      jumpi\n      dup1\n      0x1f\n      lt\n      tag_141\n      jumpi\n      0x0100\n      dup1\n      dup4\n      sload\n      div\n      mul\n      dup4\n      mstore\n      swap2\n      0x20\n      add\n      swap2\n      jump(tag_140)\n    tag_141:\n      dup3\n      add\n      swap2\n      swap1\n      0x00\n      mstore\n      keccak256(0x00, 0x20)\n      swap1\n    tag_142:\n      dup2\n      sload\n      dup2\n      mstore\n      swap1\n      0x01\n      add\n      swap1\n      0x20\n      add\n      dup1\n      dup4\n      gt\n      tag_142\n      jumpi\n      dup3\n      swap1\n      sub\n      0x1f\n      and\n      dup3\n      add\n      swap2\n    tag_140:\n      pop\n      pop\n      pop\n      pop\n      pop\n      dup2\n      mstore\n      0x20\n      add\n      0x01\n      dup3\n      add\n      dup1\n      sload\n      tag_143\n      swap1\n      tag_120\n      jump\t// in\n    tag_143:\n      dup1\n      0x1f\n      add\n      0x20\n      dup1\n      swap2\n      div\n      mul\n      0x20\n      add\n      mload(0x40)\n      swap1\n      dup2\n      add\n      0x40\n      mstore\n      dup1\n      swap3\n      swap2\n      swap1\n      dup2\n      dup2\n      mstore\n      0x20\n      add\n      dup3\n      dup1\n      sload\n      tag_144\n      swap1\n      tag_120\n      jump\t// in\n    tag_144:\n      dup1\n      iszero\n      tag_145\n      jumpi\n      dup1\n      0x1f\n      lt\n      tag_146\n      jumpi\n      0x0100\n      dup1\n      dup4\n      sload\n      div\n      mul\n      dup4\n      mstore\n      swap2\n      0x20\n      add\n      swap2\n      jump(tag_145)\n    tag_146:\n      dup3\n      add\n      swap2\n      swap1\n      0x00\n      mstore\n      keccak256(0x00, 0x20)\n      swap1\n    tag_147:\n      dup2\n      sload\n      dup2\n      mstore\n      swap1\n      0x01\n      add\n      swap1\n      0x20\n      add\n      dup1\n      dup4\n      gt\n      tag_147\n      jumpi\n      dup3\n      swap1\n      sub\n      0x1f\n      and\n      dup3\n      add\n      swap2\n    tag_145:\n      pop\n      pop\n      pop\n      pop\n      pop\n      dup2\n      mstore\n      0x20\n      add\n      0x02\n      dup3\n      add\n      sload\n      dup2\n      mstore\n      pop\n      pop\n      swap1\n      pop\n        /* \"contracts/Shops.sol\":5930:5938  sellUser */\n      dup3\n        /* \"contracts/Shops.sol\":5930:5948  sellUser.userLogin */\n      0x20\n      add\n      mload\n        /* \"contracts/Shops.sol\":5916:5948  sellerLogin = sellUser.userLogin */\n      swap9\n      pop\n        /* \"contracts/Shops.sol\":5964:5972  sellUser */\n      dup3\n        /* \"contracts/Shops.sol\":5964:5976  sellUser.fio */\n      0x40\n      add\n      mload\n        /* \"contracts/Shops.sol\":5958:5976  fio = sellUser.fio */\n      swap8\n      pop\n        /* \"contracts/Shops.sol\":5993:6001  sellShop */\n      dup1\n        /* \"contracts/Shops.sol\":5993:6006  sellShop.city */\n      0x20\n      add\n      mload\n        /* \"contracts/Shops.sol\":5986:6006  city = sellShop.city */\n      swap7\n      pop\n        /* \"contracts/Shops.sol\":6029:6037  sellShop */\n      dup1\n        /* \"contracts/Shops.sol\":6029:6044  sellShop.number */\n      0x00\n      add\n      mload\n        /* \"contracts/Shops.sol\":6016:6044  shopNumber = sellShop.number */\n      swap6\n      pop\n        /* \"contracts/Shops.sol\":6064:6072  sellUser */\n      dup3\n        /* \"contracts/Shops.sol\":6064:6080  sellUser.reviews */\n      0x60\n      add\n      mload\n        /* \"contracts/Shops.sol\":6054:6080  reviews = sellUser.reviews */\n      swap5\n      pop\n        /* \"contracts/Shops.sol\":5734:6087  {... */\n      pop\n      pop\n      pop\n        /* \"contracts/Shops.sol\":5474:6087  function getSellerInfoByAddr(address sellerAddr) public view isUserStatus(UserRoles.admin)returns(... */\n      pop\n      swap2\n      swap4\n      swap6\n      swap1\n      swap3\n      swap5\n      pop\n      jump\t// out\n        /* \"contracts/Shops.sol\":8148:8450  function checkRequest(string memory id,bool isAccept) public isUserStatus(UserRoles.admin) {... */\n    tag_36:\n        /* \"contracts/Shops.sol\":8222:8237  UserRoles.admin */\n      0x03\n        /* \"contracts/AuthService.sol\":1616:1621  users */\n      0x02\n        /* \"contracts/AuthService.sol\":1616:1633  users[msg.sender] */\n      0x00\n        /* \"contracts/AuthService.sol\":1622:1632  msg.sender */\n      caller\n        /* \"contracts/AuthService.sol\":1616:1633  users[msg.sender] */\n      0xffffffffffffffffffffffffffffffffffffffff\n      and\n      0xffffffffffffffffffffffffffffffffffffffff\n      and\n      dup2\n      mstore\n      0x20\n      add\n      swap1\n      dup2\n      mstore\n      0x20\n      add\n      0x00\n      keccak256\n        /* \"contracts/AuthService.sol\":1616:1640  users[msg.sender].status */\n      0x00\n      add\n      sload\n        /* \"contracts/AuthService.sol\":1605:1611  status */\n      dup2\n        /* \"contracts/AuthService.sol\":1600:1612  uint(status) */\n      0x05\n      dup2\n      gt\n      iszero\n      tag_149\n      jumpi\n      tag_150\n      tag_114\n      jump\t// in\n    tag_150:\n    tag_149:\n        /* \"contracts/AuthService.sol\":1600:1640  uint(status) == users[msg.sender].status */\n      eq\n        /* \"contracts/AuthService.sol\":1592:1653  require(uint(status) == users[msg.sender].status,\"Forbidden\") */\n      tag_151\n      jumpi\n      mload(0x40)\n      0x08c379a000000000000000000000000000000000000000000000000000000000\n      dup2\n      mstore\n      0x04\n      add\n      tag_152\n      swap1\n      tag_117\n      jump\t// in\n    tag_152:\n      mload(0x40)\n      dup1\n      swap2\n      sub\n      swap1\n      revert\n    tag_151:\n        /* \"contracts/Shops.sol\":8249:8266  Request memory rq */\n      0x00\n        /* \"contracts/Shops.sol\":8269:8278  requestId */\n      0x10\n        /* \"contracts/Shops.sol\":8279:8281  id */\n      dup5\n        /* \"contracts/Shops.sol\":8269:8282  requestId[id] */\n      mload(0x40)\n      tag_154\n      swap2\n      swap1\n      tag_155\n      jump\t// in\n    tag_154:\n      swap1\n      dup2\n      mstore\n      0x20\n      add\n      mload(0x40)\n      dup1\n      swap2\n      sub\n      swap1\n      keccak256\n        /* \"contracts/Shops.sol\":8249:8282  Request memory rq = requestId[id] */\n      mload(0x40)\n      dup1\n      0x80\n      add\n      0x40\n      mstore\n      swap1\n      dup2\n      0x00\n      dup3\n      add\n      0x00\n      swap1\n      sload\n      swap1\n      0x0100\n      exp\n      swap1\n      div\n      0xffffffffffffffffffffffffffffffffffffffff\n      and\n      0xffffffffffffffffffffffffffffffffffffffff\n      and\n      0xffffffffffffffffffffffffffffffffffffffff\n      and\n      dup2\n      mstore\n      0x20\n      add\n      0x01\n      dup3\n      add\n      sload\n      dup2\n      mstore\n      0x20\n      add\n      0x02\n      dup3\n      add\n      sload\n      dup2\n      mstore\n      0x20\n      add\n      0x03\n      dup3\n      add\n      0x00\n      swap1\n      sload\n      swap1\n      0x0100\n      exp\n      swap1\n      div\n      0xff\n      and\n      iszero\n      iszero\n      iszero\n      iszero\n      dup2\n      mstore\n      pop\n      pop\n      swap1\n      pop\n        /* \"contracts/Shops.sol\":8292:8305  uint userRole */\n      0x00\n        /* \"contracts/Shops.sol\":8308:8310  rq */\n      dup2\n        /* \"contracts/Shops.sol\":8308:8322  rq.desiredRole */\n      0x40\n      add\n      mload\n        /* \"contracts/Shops.sol\":8292:8322  uint userRole = rq.desiredRole */\n      swap1\n      pop\n        /* \"contracts/Shops.sol\":8336:8344  isAccept */\n      dup4\n        /* \"contracts/Shops.sol\":8332:8406  if (isAccept){... */\n      iszero\n      tag_156\n      jumpi\n        /* \"contracts/Shops.sol\":8387:8395  userRole */\n      dup1\n        /* \"contracts/Shops.sol\":8359:8364  users */\n      0x02\n        /* \"contracts/Shops.sol\":8359:8377  users[rq.userAddr] */\n      0x00\n        /* \"contracts/Shops.sol\":8365:8367  rq */\n      dup5\n        /* \"contracts/Shops.sol\":8365:8376  rq.userAddr */\n      0x00\n      add\n      mload\n        /* \"contracts/Shops.sol\":8359:8377  users[rq.userAddr] */\n      0xffffffffffffffffffffffffffffffffffffffff\n      and\n      0xffffffffffffffffffffffffffffffffffffffff\n      and\n      dup2\n      mstore\n      0x20\n      add\n      swap1\n      dup2\n      mstore\n      0x20\n      add\n      0x00\n      keccak256\n        /* \"contracts/Shops.sol\":8359:8384  users[rq.userAddr].status */\n      0x00\n      add\n        /* \"contracts/Shops.sol\":8359:8395  users[rq.userAddr].status = userRole */\n      dup2\n      swap1\n      sstore\n      pop\n        /* \"contracts/Shops.sol\":8332:8406  if (isAccept){... */\n    tag_156:\n        /* \"contracts/Shops.sol\":8439:8443  true */\n      0x01\n        /* \"contracts/Shops.sol\":8415:8424  requestId */\n      0x10\n        /* \"contracts/Shops.sol\":8425:8427  id */\n      dup7\n        /* \"contracts/Shops.sol\":8415:8428  requestId[id] */\n      mload(0x40)\n      tag_157\n      swap2\n      swap1\n      tag_155\n      jump\t// in\n    tag_157:\n      swap1\n      dup2\n      mstore\n      0x20\n      add\n      mload(0x40)\n      dup1\n      swap2\n      sub\n      swap1\n      keccak256\n        /* \"contracts/Shops.sol\":8415:8436  requestId[id].checked */\n      0x03\n      add\n      0x00\n        /* \"contracts/Shops.sol\":8415:8443  requestId[id].checked = true */\n      0x0100\n      exp\n      dup2\n      sload\n      dup2\n      0xff\n      mul\n      not\n      and\n      swap1\n      dup4\n      iszero\n      iszero\n      mul\n      or\n      swap1\n      sstore\n      pop\n        /* \"contracts/Shops.sol\":8239:8450  {... */\n      pop\n      pop\n        /* \"contracts/Shops.sol\":8148:8450  function checkRequest(string memory id,bool isAccept) public isUserStatus(UserRoles.admin) {... */\n      pop\n      pop\n      pop\n      jump\t// out\n        /* \"contracts/Shops.sol\":2659:2846  function registerBank(string memory bankLogin,address bankAddr) public isAdmin {... */\n    tag_40:\n        /* \"contracts/Shops.sol\":1096:1101  admin */\n      0x05\n      0x00\n      swap1\n      sload\n      swap1\n      0x0100\n      exp\n      swap1\n      div\n      0xffffffffffffffffffffffffffffffffffffffff\n      and\n        /* \"contracts/Shops.sol\":1082:1101  msg.sender == admin */\n      0xffffffffffffffffffffffffffffffffffffffff\n      and\n        /* \"contracts/Shops.sol\":1082:1092  msg.sender */\n      caller\n        /* \"contracts/Shops.sol\":1082:1101  msg.sender == admin */\n      0xffffffffffffffffffffffffffffffffffffffff\n      and\n      eq\n        /* \"contracts/Shops.sol\":1074:1118  require(msg.sender == admin,\"You not admin\") */\n      tag_159\n      jumpi\n      mload(0x40)\n      0x08c379a000000000000000000000000000000000000000000000000000000000\n      dup2\n      mstore\n      0x04\n      add\n      tag_160\n      swap1\n      tag_161\n      jump\t// in\n    tag_160:\n      mload(0x40)\n      dup1\n      swap2\n      sub\n      swap1\n      revert\n    tag_159:\n        /* \"contracts/Shops.sol\":2748:2759  uint status */\n      0x00\n        /* \"contracts/Shops.sol\":2767:2781  UserRoles.bank */\n      0x05\n        /* \"contracts/Shops.sol\":2762:2782  uint(UserRoles.bank) */\n      dup1\n      dup2\n      gt\n      iszero\n      tag_163\n      jumpi\n      tag_164\n      tag_114\n      jump\t// in\n    tag_164:\n    tag_163:\n        /* \"contracts/Shops.sol\":2748:2782  uint status = uint(UserRoles.bank) */\n      swap1\n      pop\n        /* \"contracts/Shops.sol\":2792:2839  registerFromAdmin(\"\",bankLogin,status,bankAddr) */\n      tag_165\n      mload(0x40)\n      dup1\n      0x20\n      add\n      0x40\n      mstore\n      dup1\n      0x00\n      dup2\n      mstore\n      pop\n        /* \"contracts/Shops.sol\":2813:2822  bankLogin */\n      dup5\n        /* \"contracts/Shops.sol\":2823:2829  status */\n      dup4\n        /* \"contracts/Shops.sol\":2830:2838  bankAddr */\n      dup6\n        /* \"contracts/Shops.sol\":2792:2809  registerFromAdmin */\n      tag_166\n        /* \"contracts/Shops.sol\":2792:2839  registerFromAdmin(\"\",bankLogin,status,bankAddr) */\n      jump\t// in\n    tag_165:\n        /* \"contracts/Shops.sol\":2738:2846  {... */\n      pop\n        /* \"contracts/Shops.sol\":2659:2846  function registerBank(string memory bankLogin,address bankAddr) public isAdmin {... */\n      pop\n      pop\n      jump\t// out\n        /* \"contracts/Shops.sol\":6093:6547  function createReview(... */\n    tag_44:\n        /* \"contracts/AuthService.sol\":1464:1503  compare(users[msg.sender].userLogin,\"\") */\n      tag_168\n        /* \"contracts/AuthService.sol\":1472:1477  users */\n      0x02\n        /* \"contracts/AuthService.sol\":1472:1489  users[msg.sender] */\n      0x00\n        /* \"contracts/AuthService.sol\":1478:1488  msg.sender */\n      caller\n        /* \"contracts/AuthService.sol\":1472:1489  users[msg.sender] */\n      0xffffffffffffffffffffffffffffffffffffffff\n      and\n      0xffffffffffffffffffffffffffffffffffffffff\n      and\n      dup2\n      mstore\n      0x20\n      add\n      swap1\n      dup2\n      mstore\n      0x20\n      add\n      0x00\n      keccak256\n        /* \"contracts/AuthService.sol\":1472:1499  users[msg.sender].userLogin */\n      0x01\n      add\n        /* \"contracts/AuthService.sol\":1464:1503  compare(users[msg.sender].userLogin,\"\") */\n      dup1\n      sload\n      tag_169\n      swap1\n      tag_120\n      jump\t// in\n    tag_169:\n      dup1\n      0x1f\n      add\n      0x20\n      dup1\n      swap2\n      div\n      mul\n      0x20\n      add\n      mload(0x40)\n      swap1\n      dup2\n      add\n      0x40\n      mstore\n      dup1\n      swap3\n      swap2\n      swap1\n      dup2\n      dup2\n      mstore\n      0x20\n      add\n      dup3\n      dup1\n      sload\n      tag_170\n      swap1\n      tag_120\n      jump\t// in\n    tag_170:\n      dup1\n      iszero\n      tag_171\n      jumpi\n      dup1\n      0x1f\n      lt\n      tag_172\n      jumpi\n      0x0100\n      dup1\n      dup4\n      sload\n      div\n      mul\n      dup4\n      mstore\n      swap2\n      0x20\n      add\n      swap2\n      jump(tag_171)\n    tag_172:\n      dup3\n      add\n      swap2\n      swap1\n      0x00\n      mstore\n      keccak256(0x00, 0x20)\n      swap1\n    tag_173:\n      dup2\n      sload\n      dup2\n      mstore\n      swap1\n      0x01\n      add\n      swap1\n      0x20\n      add\n      dup1\n      dup4\n      gt\n      tag_173\n      jumpi\n      dup3\n      swap1\n      sub\n      0x1f\n      and\n      dup3\n      add\n      swap2\n    tag_171:\n      pop\n      pop\n      pop\n      pop\n      pop\n      mload(0x40)\n      dup1\n      0x20\n      add\n      0x40\n      mstore\n      dup1\n      0x00\n      dup2\n      mstore\n      pop\n        /* \"contracts/AuthService.sol\":1464:1471  compare */\n      tag_174\n        /* \"contracts/AuthService.sol\":1464:1503  compare(users[msg.sender].userLogin,\"\") */\n      jump\t// in\n    tag_168:\n        /* \"contracts/AuthService.sol\":1463:1503  !compare(users[msg.sender].userLogin,\"\") */\n      iszero\n        /* \"contracts/AuthService.sol\":1455:1519  require(!compare(users[msg.sender].userLogin,\"\"),\"You not user\") */\n      tag_175\n      jumpi\n      mload(0x40)\n      0x08c379a000000000000000000000000000000000000000000000000000000000\n      dup2\n      mstore\n      0x04\n      add\n      tag_176\n      swap1\n      tag_177\n      jump\t// in\n    tag_176:\n      mload(0x40)\n      dup1\n      swap2\n      sub\n      swap1\n      revert\n    tag_175:\n        /* \"contracts/Shops.sol\":6251:6277  address[] memory likeCount */\n      0x60\n        /* \"contracts/Shops.sol\":6287:6316  address[] memory disLikeCount */\n      dup1\n        /* \"contracts/Shops.sol\":6326:6350  Review memory userReview */\n      0x00\n        /* \"contracts/Shops.sol\":6353:6421  Review(msg.sender,shopAddr,userMessage,likeCount,disLikeCount,grade) */\n      mload(0x40)\n      dup1\n      0xc0\n      add\n      0x40\n      mstore\n      dup1\n        /* \"contracts/Shops.sol\":6360:6370  msg.sender */\n      caller\n        /* \"contracts/Shops.sol\":6353:6421  Review(msg.sender,shopAddr,userMessage,likeCount,disLikeCount,grade) */\n      0xffffffffffffffffffffffffffffffffffffffff\n      and\n      dup2\n      mstore\n      0x20\n      add\n        /* \"contracts/Shops.sol\":6371:6379  shopAddr */\n      dup9\n        /* \"contracts/Shops.sol\":6353:6421  Review(msg.sender,shopAddr,userMessage,likeCount,disLikeCount,grade) */\n      0xffffffffffffffffffffffffffffffffffffffff\n      and\n      dup2\n      mstore\n      0x20\n      add\n        /* \"contracts/Shops.sol\":6380:6391  userMessage */\n      dup8\n        /* \"contracts/Shops.sol\":6353:6421  Review(msg.sender,shopAddr,userMessage,likeCount,disLikeCount,grade) */\n      dup2\n      mstore\n      0x20\n      add\n        /* \"contracts/Shops.sol\":6392:6401  likeCount */\n      dup5\n        /* \"contracts/Shops.sol\":6353:6421  Review(msg.sender,shopAddr,userMessage,likeCount,disLikeCount,grade) */\n      dup2\n      mstore\n      0x20\n      add\n        /* \"contracts/Shops.sol\":6402:6414  disLikeCount */\n      dup4\n        /* \"contracts/Shops.sol\":6353:6421  Review(msg.sender,shopAddr,userMessage,likeCount,disLikeCount,grade) */\n      dup2\n      mstore\n      0x20\n      add\n        /* \"contracts/Shops.sol\":6415:6420  grade */\n      dup6\n        /* \"contracts/Shops.sol\":6353:6421  Review(msg.sender,shopAddr,userMessage,likeCount,disLikeCount,grade) */\n      dup2\n      mstore\n      pop\n        /* \"contracts/Shops.sol\":6326:6421  Review memory userReview = Review(msg.sender,shopAddr,userMessage,likeCount,disLikeCount,grade) */\n      swap1\n      pop\n        /* \"contracts/Shops.sol\":6431:6442  shopReviews */\n      0x0e\n        /* \"contracts/Shops.sol\":6431:6452  shopReviews[shopAddr] */\n      0x00\n        /* \"contracts/Shops.sol\":6443:6451  shopAddr */\n      dup9\n        /* \"contracts/Shops.sol\":6431:6452  shopReviews[shopAddr] */\n      0xffffffffffffffffffffffffffffffffffffffff\n      and\n      0xffffffffffffffffffffffffffffffffffffffff\n      and\n      dup2\n      mstore\n      0x20\n      add\n      swap1\n      dup2\n      mstore\n      0x20\n      add\n      0x00\n      keccak256\n        /* \"contracts/Shops.sol\":6458:6460  id */\n      dup6\n        /* \"contracts/Shops.sol\":6431:6461  shopReviews[shopAddr].push(id) */\n      swap1\n      dup1\n      0x01\n      dup2\n      sload\n      add\n      dup1\n      dup3\n      sstore\n      dup1\n      swap2\n      pop\n      pop\n      0x01\n      swap1\n      sub\n      swap1\n      0x00\n      mstore\n      keccak256(0x00, 0x20)\n      add\n      0x00\n      swap1\n      swap2\n      swap1\n      swap2\n      swap1\n      swap2\n      pop\n      swap1\n      dup1\n      mload\n      swap1\n      0x20\n      add\n      swap1\n      tag_180\n      swap3\n      swap2\n      swap1\n      tag_181\n      jump\t// in\n    tag_180:\n      pop\n        /* \"contracts/Shops.sol\":6471:6476  users */\n      0x02\n        /* \"contracts/Shops.sol\":6471:6488  users[msg.sender] */\n      0x00\n        /* \"contracts/Shops.sol\":6477:6487  msg.sender */\n      caller\n        /* \"contracts/Shops.sol\":6471:6488  users[msg.sender] */\n      0xffffffffffffffffffffffffffffffffffffffff\n      and\n      0xffffffffffffffffffffffffffffffffffffffff\n      and\n      dup2\n      mstore\n      0x20\n      add\n      swap1\n      dup2\n      mstore\n      0x20\n      add\n      0x00\n      keccak256\n        /* \"contracts/Shops.sol\":6471:6496  users[msg.sender].reviews */\n      0x03\n      add\n        /* \"contracts/Shops.sol\":6502:6504  id */\n      dup6\n        /* \"contracts/Shops.sol\":6471:6505  users[msg.sender].reviews.push(id) */\n      swap1\n      dup1\n      0x01\n      dup2\n      sload\n      add\n      dup1\n      dup3\n      sstore\n      dup1\n      swap2\n      pop\n      pop\n      0x01\n      swap1\n      sub\n      swap1\n      0x00\n      mstore\n      keccak256(0x00, 0x20)\n      add\n      0x00\n      swap1\n      swap2\n      swap1\n      swap2\n      swap1\n      swap2\n      pop\n      swap1\n      dup1\n      mload\n      swap1\n      0x20\n      add\n      swap1\n      tag_183\n      swap3\n      swap2\n      swap1\n      tag_181\n      jump\t// in\n    tag_183:\n      pop\n        /* \"contracts/Shops.sol\":6530:6540  userReview */\n      dup1\n        /* \"contracts/Shops.sol\":6515:6523  reviewId */\n      0x0f\n        /* \"contracts/Shops.sol\":6524:6526  id */\n      dup7\n        /* \"contracts/Shops.sol\":6515:6527  reviewId[id] */\n      mload(0x40)\n      tag_184\n      swap2\n      swap1\n      tag_155\n      jump\t// in\n    tag_184:\n      swap1\n      dup2\n      mstore\n      0x20\n      add\n      mload(0x40)\n      dup1\n      swap2\n      sub\n      swap1\n      keccak256\n        /* \"contracts/Shops.sol\":6515:6540  reviewId[id] = userReview */\n      0x00\n      dup3\n      add\n      mload\n      dup2\n      0x00\n      add\n      exp(0x0100, 0x00)\n      dup2\n      sload\n      dup2\n      0xffffffffffffffffffffffffffffffffffffffff\n      mul\n      not\n      and\n      swap1\n      dup4\n      0xffffffffffffffffffffffffffffffffffffffff\n      and\n      mul\n      or\n      swap1\n      sstore\n      pop\n      0x20\n      dup3\n      add\n      mload\n      dup2\n      0x01\n      add\n      exp(0x0100, 0x00)\n      dup2\n      sload\n      dup2\n      0xffffffffffffffffffffffffffffffffffffffff\n      mul\n      not\n      and\n      swap1\n      dup4\n      0xffffffffffffffffffffffffffffffffffffffff\n      and\n      mul\n      or\n      swap1\n      sstore\n      pop\n      0x40\n      dup3\n      add\n      mload\n      dup2\n      0x02\n      add\n      swap1\n      dup1\n      mload\n      swap1\n      0x20\n      add\n      swap1\n      tag_185\n      swap3\n      swap2\n      swap1\n      tag_181\n      jump\t// in\n    tag_185:\n      pop\n      0x60\n      dup3\n      add\n      mload\n      dup2\n      0x03\n      add\n      swap1\n      dup1\n      mload\n      swap1\n      0x20\n      add\n      swap1\n      tag_186\n      swap3\n      swap2\n      swap1\n      tag_187\n      jump\t// in\n    tag_186:\n      pop\n      0x80\n      dup3\n      add\n      mload\n      dup2\n      0x04\n      add\n      swap1\n      dup1\n      mload\n      swap1\n      0x20\n      add\n      swap1\n      tag_188\n      swap3\n      swap2\n      swap1\n      tag_187\n      jump\t// in\n    tag_188:\n      pop\n      0xa0\n      dup3\n      add\n      mload\n      dup2\n      0x05\n      add\n      sstore\n      swap1\n      pop\n      pop\n        /* \"contracts/Shops.sol\":6241:6547  {... */\n      pop\n      pop\n      pop\n        /* \"contracts/Shops.sol\":6093:6547  function createReview(... */\n      pop\n      pop\n      pop\n      pop\n      jump\t// out\n        /* \"contracts/Shops.sol\":7037:7523  function getReviewById(string memory id) public view returns(... */\n    tag_48:\n        /* \"contracts/Shops.sol\":7107:7124  address autorAddr */\n      0x00\n        /* \"contracts/Shops.sol\":7134:7150  address shopAddr */\n      dup1\n        /* \"contracts/Shops.sol\":7160:7187  string memory reviewMessage */\n      0x60\n        /* \"contracts/Shops.sol\":7197:7211  uint likeCount */\n      0x00\n        /* \"contracts/Shops.sol\":7221:7238  uint disLikeCount */\n      dup1\n        /* \"contracts/Shops.sol\":7248:7257  int grade */\n      0x00\n        /* \"contracts/Shops.sol\":7273:7288  Review memory r */\n      dup1\n        /* \"contracts/Shops.sol\":7291:7299  reviewId */\n      0x0f\n        /* \"contracts/Shops.sol\":7300:7302  id */\n      dup9\n        /* \"contracts/Shops.sol\":7291:7303  reviewId[id] */\n      mload(0x40)\n      tag_190\n      swap2\n      swap1\n      tag_155\n      jump\t// in\n    tag_190:\n      swap1\n      dup2\n      mstore\n      0x20\n      add\n      mload(0x40)\n      dup1\n      swap2\n      sub\n      swap1\n      keccak256\n        /* \"contracts/Shops.sol\":7273:7303  Review memory r = reviewId[id] */\n      mload(0x40)\n      dup1\n      0xc0\n      add\n      0x40\n      mstore\n      swap1\n      dup2\n      0x00\n      dup3\n      add\n      0x00\n      swap1\n      sload\n      swap1\n      0x0100\n      exp\n      swap1\n      div\n      0xffffffffffffffffffffffffffffffffffffffff\n      and\n      0xffffffffffffffffffffffffffffffffffffffff\n      and\n      0xffffffffffffffffffffffffffffffffffffffff\n      and\n      dup2\n      mstore\n      0x20\n      add\n      0x01\n      dup3\n      add\n      0x00\n      swap1\n      sload\n      swap1\n      0x0100\n      exp\n      swap1\n      div\n      0xffffffffffffffffffffffffffffffffffffffff\n      and\n      0xffffffffffffffffffffffffffffffffffffffff\n      and\n      0xffffffffffffffffffffffffffffffffffffffff\n      and\n      dup2\n      mstore\n      0x20\n      add\n      0x02\n      dup3\n      add\n      dup1\n      sload\n      tag_191\n      swap1\n      tag_120\n      jump\t// in\n    tag_191:\n      dup1\n      0x1f\n      add\n      0x20\n      dup1\n      swap2\n      div\n      mul\n      0x20\n      add\n      mload(0x40)\n      swap1\n      dup2\n      add\n      0x40\n      mstore\n      dup1\n      swap3\n      swap2\n      swap1\n      dup2\n      dup2\n      mstore\n      0x20\n      add\n      dup3\n      dup1\n      sload\n      tag_192\n      swap1\n      tag_120\n      jump\t// in\n    tag_192:\n      dup1\n      iszero\n      tag_193\n      jumpi\n      dup1\n      0x1f\n      lt\n      tag_194\n      jumpi\n      0x0100\n      dup1\n      dup4\n      sload\n      div\n      mul\n      dup4\n      mstore\n      swap2\n      0x20\n      add\n      swap2\n      jump(tag_193)\n    tag_194:\n      dup3\n      add\n      swap2\n      swap1\n      0x00\n      mstore\n      keccak256(0x00, 0x20)\n      swap1\n    tag_195:\n      dup2\n      sload\n      dup2\n      mstore\n      swap1\n      0x01\n      add\n      swap1\n      0x20\n      add\n      dup1\n      dup4\n      gt\n      tag_195\n      jumpi\n      dup3\n      swap1\n      sub\n      0x1f\n      and\n      dup3\n      add\n      swap2\n    tag_193:\n      pop\n      pop\n      pop\n      pop\n      pop\n      dup2\n      mstore\n      0x20\n      add\n      0x03\n      dup3\n      add\n      dup1\n      sload\n      dup1\n      0x20\n      mul\n      0x20\n      add\n      mload(0x40)\n      swap1\n      dup2\n      add\n      0x40\n      mstore\n      dup1\n      swap3\n      swap2\n      swap1\n      dup2\n      dup2\n      mstore\n      0x20\n      add\n      dup3\n      dup1\n      sload\n      dup1\n      iszero\n      tag_196\n      jumpi\n      0x20\n      mul\n      dup3\n      add\n      swap2\n      swap1\n      0x00\n      mstore\n      keccak256(0x00, 0x20)\n      swap1\n    tag_197:\n      dup2\n      0x00\n      swap1\n      sload\n      swap1\n      0x0100\n      exp\n      swap1\n      div\n      0xffffffffffffffffffffffffffffffffffffffff\n      and\n      0xffffffffffffffffffffffffffffffffffffffff\n      and\n      dup2\n      mstore\n      0x20\n      add\n      swap1\n      0x01\n      add\n      swap1\n      dup1\n      dup4\n      gt\n      tag_197\n      jumpi\n    tag_196:\n      pop\n      pop\n      pop\n      pop\n      pop\n      dup2\n      mstore\n      0x20\n      add\n      0x04\n      dup3\n      add\n      dup1\n      sload\n      dup1\n      0x20\n      mul\n      0x20\n      add\n      mload(0x40)\n      swap1\n      dup2\n      add\n      0x40\n      mstore\n      dup1\n      swap3\n      swap2\n      swap1\n      dup2\n      dup2\n      mstore\n      0x20\n      add\n      dup3\n      dup1\n      sload\n      dup1\n      iszero\n      tag_198\n      jumpi\n      0x20\n      mul\n      dup3\n      add\n      swap2\n      swap1\n      0x00\n      mstore\n      keccak256(0x00, 0x20)\n      swap1\n    tag_199:\n      dup2\n      0x00\n      swap1\n      sload\n      swap1\n      0x0100\n      exp\n      swap1\n      div\n      0xffffffffffffffffffffffffffffffffffffffff\n      and\n      0xffffffffffffffffffffffffffffffffffffffff\n      and\n      dup2\n      mstore\n      0x20\n      add\n      swap1\n      0x01\n      add\n      swap1\n      dup1\n      dup4\n      gt\n      tag_199\n      jumpi\n    tag_198:\n      pop\n      pop\n      pop\n      pop\n      pop\n      dup2\n      mstore\n      0x20\n      add\n      0x05\n      dup3\n      add\n      sload\n      dup2\n      mstore\n      pop\n      pop\n      swap1\n      pop\n        /* \"contracts/Shops.sol\":7325:7326  r */\n      dup1\n        /* \"contracts/Shops.sol\":7325:7339  r.autorAddress */\n      0x00\n      add\n      mload\n        /* \"contracts/Shops.sol\":7313:7339  autorAddr = r.autorAddress */\n      swap7\n      pop\n        /* \"contracts/Shops.sol\":7360:7361  r */\n      dup1\n        /* \"contracts/Shops.sol\":7360:7370  r.shopAddr */\n      0x20\n      add\n      mload\n        /* \"contracts/Shops.sol\":7349:7370  shopAddr = r.shopAddr */\n      swap6\n      pop\n        /* \"contracts/Shops.sol\":7396:7397  r */\n      dup1\n        /* \"contracts/Shops.sol\":7396:7405  r.message */\n      0x40\n      add\n      mload\n        /* \"contracts/Shops.sol\":7380:7405  reviewMessage = r.message */\n      swap5\n      pop\n        /* \"contracts/Shops.sol\":7427:7428  r */\n      dup1\n        /* \"contracts/Shops.sol\":7427:7438  r.likeCount */\n      0x60\n      add\n      mload\n        /* \"contracts/Shops.sol\":7427:7445  r.likeCount.length */\n      mload\n        /* \"contracts/Shops.sol\":7415:7445  likeCount = r.likeCount.length */\n      swap4\n      pop\n        /* \"contracts/Shops.sol\":7470:7471  r */\n      dup1\n        /* \"contracts/Shops.sol\":7470:7484  r.disLikeCount */\n      0x80\n      add\n      mload\n        /* \"contracts/Shops.sol\":7470:7491  r.disLikeCount.length */\n      mload\n        /* \"contracts/Shops.sol\":7455:7491  disLikeCount = r.disLikeCount.length */\n      swap3\n      pop\n        /* \"contracts/Shops.sol\":7509:7510  r */\n      dup1\n        /* \"contracts/Shops.sol\":7509:7516  r.grade */\n      0xa0\n      add\n      mload\n        /* \"contracts/Shops.sol\":7501:7516  grade = r.grade */\n      swap2\n      pop\n        /* \"contracts/Shops.sol\":7263:7523  {... */\n      pop\n        /* \"contracts/Shops.sol\":7037:7523  function getReviewById(string memory id) public view returns(... */\n      swap2\n      swap4\n      swap6\n      pop\n      swap2\n      swap4\n      swap6\n      jump\t// out\n        /* \"contracts/AuthService.sol\":2255:2555  function login(string memory userLogin) public view isRegistered(userLogin) returns(address userAddress,string memory status){... */\n    tag_53:\n        /* \"contracts/AuthService.sol\":2339:2358  address userAddress */\n      0x00\n        /* \"contracts/AuthService.sol\":2359:2379  string memory status */\n      0x60\n        /* \"contracts/AuthService.sol\":2320:2329  userLogin */\n      dup3\n        /* \"contracts/AuthService.sol\":1387:1388  0 */\n      0x00\n        /* \"contracts/AuthService.sol\":1354:1389  userLogins[userLogin] != address(0) */\n      0xffffffffffffffffffffffffffffffffffffffff\n      and\n        /* \"contracts/AuthService.sol\":1354:1364  userLogins */\n      0x01\n        /* \"contracts/AuthService.sol\":1365:1374  userLogin */\n      dup3\n        /* \"contracts/AuthService.sol\":1354:1375  userLogins[userLogin] */\n      mload(0x40)\n      tag_201\n      swap2\n      swap1\n      tag_155\n      jump\t// in\n    tag_201:\n      swap1\n      dup2\n      mstore\n      0x20\n      add\n      mload(0x40)\n      dup1\n      swap2\n      sub\n      swap1\n      keccak256\n      0x00\n      swap1\n      sload\n      swap1\n      0x0100\n      exp\n      swap1\n      div\n      0xffffffffffffffffffffffffffffffffffffffff\n      and\n        /* \"contracts/AuthService.sol\":1354:1389  userLogins[userLogin] != address(0) */\n      0xffffffffffffffffffffffffffffffffffffffff\n      and\n      eq\n      iszero\n        /* \"contracts/AuthService.sol\":1346:1404  require(userLogins[userLogin] != address(0),\"Wrong Login\") */\n      tag_202\n      jumpi\n      mload(0x40)\n      0x08c379a000000000000000000000000000000000000000000000000000000000\n      dup2\n      mstore\n      0x04\n      add\n      tag_203\n      swap1\n      tag_204\n      jump\t// in\n    tag_203:\n      mload(0x40)\n      dup1\n      swap2\n      sub\n      swap1\n      revert\n    tag_202:\n        /* \"contracts/AuthService.sol\":2390:2406  address userAddr */\n      0x00\n        /* \"contracts/AuthService.sol\":2409:2419  userLogins */\n      0x01\n        /* \"contracts/AuthService.sol\":2420:2429  userLogin */\n      dup6\n        /* \"contracts/AuthService.sol\":2409:2430  userLogins[userLogin] */\n      mload(0x40)\n      tag_206\n      swap2\n      swap1\n      tag_155\n      jump\t// in\n    tag_206:\n      swap1\n      dup2\n      mstore\n      0x20\n      add\n      mload(0x40)\n      dup1\n      swap2\n      sub\n      swap1\n      keccak256\n      0x00\n      swap1\n      sload\n      swap1\n      0x0100\n      exp\n      swap1\n      div\n      0xffffffffffffffffffffffffffffffffffffffff\n      and\n        /* \"contracts/AuthService.sol\":2390:2430  address userAddr = userLogins[userLogin] */\n      swap1\n      pop\n        /* \"contracts/AuthService.sol\":2440:2456  User memory user */\n      0x00\n        /* \"contracts/AuthService.sol\":2459:2464  users */\n      0x02\n        /* \"contracts/AuthService.sol\":2459:2474  users[userAddr] */\n      0x00\n        /* \"contracts/AuthService.sol\":2465:2473  userAddr */\n      dup4\n        /* \"contracts/AuthService.sol\":2459:2474  users[userAddr] */\n      0xffffffffffffffffffffffffffffffffffffffff\n      and\n      0xffffffffffffffffffffffffffffffffffffffff\n      and\n      dup2\n      mstore\n      0x20\n      add\n      swap1\n      dup2\n      mstore\n      0x20\n      add\n      0x00\n      keccak256\n        /* \"contracts/AuthService.sol\":2440:2474  User memory user = users[userAddr] */\n      mload(0x40)\n      dup1\n      0x80\n      add\n      0x40\n      mstore\n      swap1\n      dup2\n      0x00\n      dup3\n      add\n      sload\n      dup2\n      mstore\n      0x20\n      add\n      0x01\n      dup3\n      add\n      dup1\n      sload\n      tag_207\n      swap1\n      tag_120\n      jump\t// in\n    tag_207:\n      dup1\n      0x1f\n      add\n      0x20\n      dup1\n      swap2\n      div\n      mul\n      0x20\n      add\n      mload(0x40)\n      swap1\n      dup2\n      add\n      0x40\n      mstore\n      dup1\n      swap3\n      swap2\n      swap1\n      dup2\n      dup2\n      mstore\n      0x20\n      add\n      dup3\n      dup1\n      sload\n      tag_208\n      swap1\n      tag_120\n      jump\t// in\n    tag_208:\n      dup1\n      iszero\n      tag_209\n      jumpi\n      dup1\n      0x1f\n      lt\n      tag_210\n      jumpi\n      0x0100\n      dup1\n      dup4\n      sload\n      div\n      mul\n      dup4\n      mstore\n      swap2\n      0x20\n      add\n      swap2\n      jump(tag_209)\n    tag_210:\n      dup3\n      add\n      swap2\n      swap1\n      0x00\n      mstore\n      keccak256(0x00, 0x20)\n      swap1\n    tag_211:\n      dup2\n      sload\n      dup2\n      mstore\n      swap1\n      0x01\n      add\n      swap1\n      0x20\n      add\n      dup1\n      dup4\n      gt\n      tag_211\n      jumpi\n      dup3\n      swap1\n      sub\n      0x1f\n      and\n      dup3\n      add\n      swap2\n    tag_209:\n      pop\n      pop\n      pop\n      pop\n      pop\n      dup2\n      mstore\n      0x20\n      add\n      0x02\n      dup3\n      add\n      dup1\n      sload\n      tag_212\n      swap1\n      tag_120\n      jump\t// in\n    tag_212:\n      dup1\n      0x1f\n      add\n      0x20\n      dup1\n      swap2\n      div\n      mul\n      0x20\n      add\n      mload(0x40)\n      swap1\n      dup2\n      add\n      0x40\n      mstore\n      dup1\n      swap3\n      swap2\n      swap1\n      dup2\n      dup2\n      mstore\n      0x20\n      add\n      dup3\n      dup1\n      sload\n      tag_213\n      swap1\n      tag_120\n      jump\t// in\n    tag_213:\n      dup1\n      iszero\n      tag_214\n      jumpi\n      dup1\n      0x1f\n      lt\n      tag_215\n      jumpi\n      0x0100\n      dup1\n      dup4\n      sload\n      div\n      mul\n      dup4\n      mstore\n      swap2\n      0x20\n      add\n      swap2\n      jump(tag_214)\n    tag_215:\n      dup3\n      add\n      swap2\n      swap1\n      0x00\n      mstore\n      keccak256(0x00, 0x20)\n      swap1\n    tag_216:\n      dup2\n      sload\n      dup2\n      mstore\n      swap1\n      0x01\n      add\n      swap1\n      0x20\n      add\n      dup1\n      dup4\n      gt\n      tag_216\n      jumpi\n      dup3\n      swap1\n      sub\n      0x1f\n      and\n      dup3\n      add\n      swap2\n    tag_214:\n      pop\n      pop\n      pop\n      pop\n      pop\n      dup2\n      mstore\n      0x20\n      add\n      0x03\n      dup3\n      add\n      dup1\n      sload\n      dup1\n      0x20\n      mul\n      0x20\n      add\n      mload(0x40)\n      swap1\n      dup2\n      add\n      0x40\n      mstore\n      dup1\n      swap3\n      swap2\n      swap1\n      dup2\n      dup2\n      mstore\n      0x20\n      add\n      0x00\n      swap1\n    tag_217:\n      dup3\n      dup3\n      lt\n      iszero\n      tag_218\n      jumpi\n      dup4\n      dup3\n      swap1\n      0x00\n      mstore\n      keccak256(0x00, 0x20)\n      add\n      dup1\n      sload\n      tag_220\n      swap1\n      tag_120\n      jump\t// in\n    tag_220:\n      dup1\n      0x1f\n      add\n      0x20\n      dup1\n      swap2\n      div\n      mul\n      0x20\n      add\n      mload(0x40)\n      swap1\n      dup2\n      add\n      0x40\n      mstore\n      dup1\n      swap3\n      swap2\n      swap1\n      dup2\n      dup2\n      mstore\n      0x20\n      add\n      dup3\n      dup1\n      sload\n      tag_221\n      swap1\n      tag_120\n      jump\t// in\n    tag_221:\n      dup1\n      iszero\n      tag_222\n      jumpi\n      dup1\n      0x1f\n      lt\n      tag_223\n      jumpi\n      0x0100\n      dup1\n      dup4\n      sload\n      div\n      mul\n      dup4\n      mstore\n      swap2\n      0x20\n      add\n      swap2\n      jump(tag_222)\n    tag_223:\n      dup3\n      add\n      swap2\n      swap1\n      0x00\n      mstore\n      keccak256(0x00, 0x20)\n      swap1\n    tag_224:\n      dup2\n      sload\n      dup2\n      mstore\n      swap1\n      0x01\n      add\n      swap1\n      0x20\n      add\n      dup1\n      dup4\n      gt\n      tag_224\n      jumpi\n      dup3\n      swap1\n      sub\n      0x1f\n      and\n      dup3\n      add\n      swap2\n    tag_222:\n      pop\n      pop\n      pop\n      pop\n      pop\n      dup2\n      mstore\n      0x20\n      add\n      swap1\n      0x01\n      add\n      swap1\n      jump(tag_217)\n    tag_218:\n      pop\n      pop\n      pop\n      pop\n      dup2\n      mstore\n      pop\n      pop\n      swap1\n      pop\n        /* \"contracts/AuthService.sol\":2498:2506  userAddr */\n      dup2\n        /* \"contracts/AuthService.sol\":2484:2506  userAddress = userAddr */\n      swap5\n      pop\n        /* \"contracts/AuthService.sol\":2525:2535  userStatus */\n      0x00\n        /* \"contracts/AuthService.sol\":2525:2548  userStatus[user.status] */\n      dup1\n        /* \"contracts/AuthService.sol\":2536:2540  user */\n      dup3\n        /* \"contracts/AuthService.sol\":2536:2547  user.status */\n      0x00\n      add\n      mload\n        /* \"contracts/AuthService.sol\":2525:2548  userStatus[user.status] */\n      dup2\n      mstore\n      0x20\n      add\n      swap1\n      dup2\n      mstore\n      0x20\n      add\n      0x00\n      keccak256\n        /* \"contracts/AuthService.sol\":2516:2548  status = userStatus[user.status] */\n      dup1\n      sload\n      tag_225\n      swap1\n      tag_120\n      jump\t// in\n    tag_225:\n      dup1\n      0x1f\n      add\n      0x20\n      dup1\n      swap2\n      div\n      mul\n      0x20\n      add\n      mload(0x40)\n      swap1\n      dup2\n      add\n      0x40\n      mstore\n      dup1\n      swap3\n      swap2\n      swap1\n      dup2\n      dup2\n      mstore\n      0x20\n      add\n      dup3\n      dup1\n      sload\n      tag_226\n      swap1\n      tag_120\n      jump\t// in\n    tag_226:\n      dup1\n      iszero\n      tag_227\n      jumpi\n      dup1\n      0x1f\n      lt\n      tag_228\n      jumpi\n      0x0100\n      dup1\n      dup4\n      sload\n      div\n      mul\n      dup4\n      mstore\n      swap2\n      0x20\n      add\n      swap2\n      jump(tag_227)\n    tag_228:\n      dup3\n      add\n      swap2\n      swap1\n      0x00\n      mstore\n      keccak256(0x00, 0x20)\n      swap1\n    tag_229:\n      dup2\n      sload\n      dup2\n      mstore\n      swap1\n      0x01\n      add\n      swap1\n      0x20\n      add\n      dup1\n      dup4\n      gt\n      tag_229\n      jumpi\n      dup3\n      swap1\n      sub\n      0x1f\n      and\n      dup3\n      add\n      swap2\n    tag_227:\n      pop\n      pop\n      pop\n      pop\n      pop\n      swap4\n      pop\n        /* \"contracts/AuthService.sol\":2380:2555  {... */\n      pop\n      pop\n        /* \"contracts/AuthService.sol\":2255:2555  function login(string memory userLogin) public view isRegistered(userLogin) returns(address userAddress,string memory status){... */\n      pop\n      swap2\n      pop\n      swap2\n      jump\t// out\n        /* \"contracts/Shops.sol\":3855:4446  function getSellerInfo() public view isUserStatus(UserRoles.seller) returns(... */\n    tag_57:\n        /* \"contracts/Shops.sol\":3940:3965  string memory sellerLogin */\n      0x60\n        /* \"contracts/Shops.sol\":3975:3992  string memory fio */\n      dup1\n        /* \"contracts/Shops.sol\":4002:4020  string memory city */\n      0x60\n        /* \"contracts/Shops.sol\":4030:4054  string memory shopNumber */\n      dup1\n        /* \"contracts/Shops.sol\":4064:4087  string[] memory reviews */\n      0x60\n        /* \"contracts/Shops.sol\":3905:3921  UserRoles.seller */\n      0x01\n        /* \"contracts/AuthService.sol\":1616:1621  users */\n      0x02\n        /* \"contracts/AuthService.sol\":1616:1633  users[msg.sender] */\n      0x00\n        /* \"contracts/AuthService.sol\":1622:1632  msg.sender */\n      caller\n        /* \"contracts/AuthService.sol\":1616:1633  users[msg.sender] */\n      0xffffffffffffffffffffffffffffffffffffffff\n      and\n      0xffffffffffffffffffffffffffffffffffffffff\n      and\n      dup2\n      mstore\n      0x20\n      add\n      swap1\n      dup2\n      mstore\n      0x20\n      add\n      0x00\n      keccak256\n        /* \"contracts/AuthService.sol\":1616:1640  users[msg.sender].status */\n      0x00\n      add\n      sload\n        /* \"contracts/AuthService.sol\":1605:1611  status */\n      dup2\n        /* \"contracts/AuthService.sol\":1600:1612  uint(status) */\n      0x05\n      dup2\n      gt\n      iszero\n      tag_231\n      jumpi\n      tag_232\n      tag_114\n      jump\t// in\n    tag_232:\n    tag_231:\n        /* \"contracts/AuthService.sol\":1600:1640  uint(status) == users[msg.sender].status */\n      eq\n        /* \"contracts/AuthService.sol\":1592:1653  require(uint(status) == users[msg.sender].status,\"Forbidden\") */\n      tag_233\n      jumpi\n      mload(0x40)\n      0x08c379a000000000000000000000000000000000000000000000000000000000\n      dup2\n      mstore\n      0x04\n      add\n      tag_234\n      swap1\n      tag_117\n      jump\t// in\n    tag_234:\n      mload(0x40)\n      dup1\n      swap2\n      sub\n      swap1\n      revert\n    tag_233:\n        /* \"contracts/Shops.sol\":4103:4123  User memory sellUser */\n      0x00\n        /* \"contracts/Shops.sol\":4126:4131  users */\n      0x02\n        /* \"contracts/Shops.sol\":4126:4143  users[msg.sender] */\n      0x00\n        /* \"contracts/Shops.sol\":4132:4142  msg.sender */\n      caller\n        /* \"contracts/Shops.sol\":4126:4143  users[msg.sender] */\n      0xffffffffffffffffffffffffffffffffffffffff\n      and\n      0xffffffffffffffffffffffffffffffffffffffff\n      and\n      dup2\n      mstore\n      0x20\n      add\n      swap1\n      dup2\n      mstore\n      0x20\n      add\n      0x00\n      keccak256\n        /* \"contracts/Shops.sol\":4103:4143  User memory sellUser = users[msg.sender] */\n      mload(0x40)\n      dup1\n      0x80\n      add\n      0x40\n      mstore\n      swap1\n      dup2\n      0x00\n      dup3\n      add\n      sload\n      dup2\n      mstore\n      0x20\n      add\n      0x01\n      dup3\n      add\n      dup1\n      sload\n      tag_236\n      swap1\n      tag_120\n      jump\t// in\n    tag_236:\n      dup1\n      0x1f\n      add\n      0x20\n      dup1\n      swap2\n      div\n      mul\n      0x20\n      add\n      mload(0x40)\n      swap1\n      dup2\n      add\n      0x40\n      mstore\n      dup1\n      swap3\n      swap2\n      swap1\n      dup2\n      dup2\n      mstore\n      0x20\n      add\n      dup3\n      dup1\n      sload\n      tag_237\n      swap1\n      tag_120\n      jump\t// in\n    tag_237:\n      dup1\n      iszero\n      tag_238\n      jumpi\n      dup1\n      0x1f\n      lt\n      tag_239\n      jumpi\n      0x0100\n      dup1\n      dup4\n      sload\n      div\n      mul\n      dup4\n      mstore\n      swap2\n      0x20\n      add\n      swap2\n      jump(tag_238)\n    tag_239:\n      dup3\n      add\n      swap2\n      swap1\n      0x00\n      mstore\n      keccak256(0x00, 0x20)\n      swap1\n    tag_240:\n      dup2\n      sload\n      dup2\n      mstore\n      swap1\n      0x01\n      add\n      swap1\n      0x20\n      add\n      dup1\n      dup4\n      gt\n      tag_240\n      jumpi\n      dup3\n      swap1\n      sub\n      0x1f\n      and\n      dup3\n      add\n      swap2\n    tag_238:\n      pop\n      pop\n      pop\n      pop\n      pop\n      dup2\n      mstore\n      0x20\n      add\n      0x02\n      dup3\n      add\n      dup1\n      sload\n      tag_241\n      swap1\n      tag_120\n      jump\t// in\n    tag_241:\n      dup1\n      0x1f\n      add\n      0x20\n      dup1\n      swap2\n      div\n      mul\n      0x20\n      add\n      mload(0x40)\n      swap1\n      dup2\n      add\n      0x40\n      mstore\n      dup1\n      swap3\n      swap2\n      swap1\n      dup2\n      dup2\n      mstore\n      0x20\n      add\n      dup3\n      dup1\n      sload\n      tag_242\n      swap1\n      tag_120\n      jump\t// in\n    tag_242:\n      dup1\n      iszero\n      tag_243\n      jumpi\n      dup1\n      0x1f\n      lt\n      tag_244\n      jumpi\n      0x0100\n      dup1\n      dup4\n      sload\n      div\n      mul\n      dup4\n      mstore\n      swap2\n      0x20\n      add\n      swap2\n      jump(tag_243)\n    tag_244:\n      dup3\n      add\n      swap2\n      swap1\n      0x00\n      mstore\n      keccak256(0x00, 0x20)\n      swap1\n    tag_245:\n      dup2\n      sload\n      dup2\n      mstore\n      swap1\n      0x01\n      add\n      swap1\n      0x20\n      add\n      dup1\n      dup4\n      gt\n      tag_245\n      jumpi\n      dup3\n      swap1\n      sub\n      0x1f\n      and\n      dup3\n      add\n      swap2\n    tag_243:\n      pop\n      pop\n      pop\n      pop\n      pop\n      dup2\n      mstore\n      0x20\n      add\n      0x03\n      dup3\n      add\n      dup1\n      sload\n      dup1\n      0x20\n      mul\n      0x20\n      add\n      mload(0x40)\n      swap1\n      dup2\n      add\n      0x40\n      mstore\n      dup1\n      swap3\n      swap2\n      swap1\n      dup2\n      dup2\n      mstore\n      0x20\n      add\n      0x00\n      swap1\n    tag_246:\n      dup3\n      dup3\n      lt\n      iszero\n      tag_247\n      jumpi\n      dup4\n      dup3\n      swap1\n      0x00\n      mstore\n      keccak256(0x00, 0x20)\n      add\n      dup1\n      sload\n      tag_249\n      swap1\n      tag_120\n      jump\t// in\n    tag_249:\n      dup1\n      0x1f\n      add\n      0x20\n      dup1\n      swap2\n      div\n      mul\n      0x20\n      add\n      mload(0x40)\n      swap1\n      dup2\n      add\n      0x40\n      mstore\n      dup1\n      swap3\n      swap2\n      swap1\n      dup2\n      dup2\n      mstore\n      0x20\n      add\n      dup3\n      dup1\n      sload\n      tag_250\n      swap1\n      tag_120\n      jump\t// in\n    tag_250:\n      dup1\n      iszero\n      tag_251\n      jumpi\n      dup1\n      0x1f\n      lt\n      tag_252\n      jumpi\n      0x0100\n      dup1\n      dup4\n      sload\n      div\n      mul\n      dup4\n      mstore\n      swap2\n      0x20\n      add\n      swap2\n      jump(tag_251)\n    tag_252:\n      dup3\n      add\n      swap2\n      swap1\n      0x00\n      mstore\n      keccak256(0x00, 0x20)\n      swap1\n    tag_253:\n      dup2\n      sload\n      dup2\n      mstore\n      swap1\n      0x01\n      add\n      swap1\n      0x20\n      add\n      dup1\n      dup4\n      gt\n      tag_253\n      jumpi\n      dup3\n      swap1\n      sub\n      0x1f\n      and\n      dup3\n      add\n      swap2\n    tag_251:\n      pop\n      pop\n      pop\n      pop\n      pop\n      dup2\n      mstore\n      0x20\n      add\n      swap1\n      0x01\n      add\n      swap1\n      jump(tag_246)\n    tag_247:\n      pop\n      pop\n      pop\n      pop\n      dup2\n      mstore\n      pop\n      pop\n      swap1\n      pop\n        /* \"contracts/Shops.sol\":4153:4173  address sellShopAddr */\n      0x00\n        /* \"contracts/Shops.sol\":4176:4188  salesmanShop */\n      0x0c\n        /* \"contracts/Shops.sol\":4176:4200  salesmanShop[msg.sender] */\n      0x00\n        /* \"contracts/Shops.sol\":4189:4199  msg.sender */\n      caller\n        /* \"contracts/Shops.sol\":4176:4200  salesmanShop[msg.sender] */\n      0xffffffffffffffffffffffffffffffffffffffff\n      and\n      0xffffffffffffffffffffffffffffffffffffffff\n      and\n      dup2\n      mstore\n      0x20\n      add\n      swap1\n      dup2\n      mstore\n      0x20\n      add\n      0x00\n      keccak256\n      0x00\n      swap1\n      sload\n      swap1\n      0x0100\n      exp\n      swap1\n      div\n      0xffffffffffffffffffffffffffffffffffffffff\n      and\n        /* \"contracts/Shops.sol\":4153:4200  address sellShopAddr = salesmanShop[msg.sender] */\n      swap1\n      pop\n        /* \"contracts/Shops.sol\":4210:4230  Shop memory sellShop */\n      0x00\n        /* \"contracts/Shops.sol\":4233:4242  ShopsList */\n      0x0b\n        /* \"contracts/Shops.sol\":4233:4256  ShopsList[sellShopAddr] */\n      0x00\n        /* \"contracts/Shops.sol\":4243:4255  sellShopAddr */\n      dup4\n        /* \"contracts/Shops.sol\":4233:4256  ShopsList[sellShopAddr] */\n      0xffffffffffffffffffffffffffffffffffffffff\n      and\n      0xffffffffffffffffffffffffffffffffffffffff\n      and\n      dup2\n      mstore\n      0x20\n      add\n      swap1\n      dup2\n      mstore\n      0x20\n      add\n      0x00\n      keccak256\n        /* \"contracts/Shops.sol\":4210:4256  Shop memory sellShop = ShopsList[sellShopAddr] */\n      mload(0x40)\n      dup1\n      0x60\n      add\n      0x40\n      mstore\n      swap1\n      dup2\n      0x00\n      dup3\n      add\n      dup1\n      sload\n      tag_254\n      swap1\n      tag_120\n      jump\t// in\n    tag_254:\n      dup1\n      0x1f\n      add\n      0x20\n      dup1\n      swap2\n      div\n      mul\n      0x20\n      add\n      mload(0x40)\n      swap1\n      dup2\n      add\n      0x40\n      mstore\n      dup1\n      swap3\n      swap2\n      swap1\n      dup2\n      dup2\n      mstore\n      0x20\n      add\n      dup3\n      dup1\n      sload\n      tag_255\n      swap1\n      tag_120\n      jump\t// in\n    tag_255:\n      dup1\n      iszero\n      tag_256\n      jumpi\n      dup1\n      0x1f\n      lt\n      tag_257\n      jumpi\n      0x0100\n      dup1\n      dup4\n      sload\n      div\n      mul\n      dup4\n      mstore\n      swap2\n      0x20\n      add\n      swap2\n      jump(tag_256)\n    tag_257:\n      dup3\n      add\n      swap2\n      swap1\n      0x00\n      mstore\n      keccak256(0x00, 0x20)\n      swap1\n    tag_258:\n      dup2\n      sload\n      dup2\n      mstore\n      swap1\n      0x01\n      add\n      swap1\n      0x20\n      add\n      dup1\n      dup4\n      gt\n      tag_258\n      jumpi\n      dup3\n      swap1\n      sub\n      0x1f\n      and\n      dup3\n      add\n      swap2\n    tag_256:\n      pop\n      pop\n      pop\n      pop\n      pop\n      dup2\n      mstore\n      0x20\n      add\n      0x01\n      dup3\n      add\n      dup1\n      sload\n      tag_259\n      swap1\n      tag_120\n      jump\t// in\n    tag_259:\n      dup1\n      0x1f\n      add\n      0x20\n      dup1\n      swap2\n      div\n      mul\n      0x20\n      add\n      mload(0x40)\n      swap1\n      dup2\n      add\n      0x40\n      mstore\n      dup1\n      swap3\n      swap2\n      swap1\n      dup2\n      dup2\n      mstore\n      0x20\n      add\n      dup3\n      dup1\n      sload\n      tag_260\n      swap1\n      tag_120\n      jump\t// in\n    tag_260:\n      dup1\n      iszero\n      tag_261\n      jumpi\n      dup1\n      0x1f\n      lt\n      tag_262\n      jumpi\n      0x0100\n      dup1\n      dup4\n      sload\n      div\n      mul\n      dup4\n      mstore\n      swap2\n      0x20\n      add\n      swap2\n      jump(tag_261)\n    tag_262:\n      dup3\n      add\n      swap2\n      swap1\n      0x00\n      mstore\n      keccak256(0x00, 0x20)\n      swap1\n    tag_263:\n      dup2\n      sload\n      dup2\n      mstore\n      swap1\n      0x01\n      add\n      swap1\n      0x20\n      add\n      dup1\n      dup4\n      gt\n      tag_263\n      jumpi\n      dup3\n      swap1\n      sub\n      0x1f\n      and\n      dup3\n      add\n      swap2\n    tag_261:\n      pop\n      pop\n      pop\n      pop\n      pop\n      dup2\n      mstore\n      0x20\n      add\n      0x02\n      dup3\n      add\n      sload\n      dup2\n      mstore\n      pop\n      pop\n      swap1\n      pop\n        /* \"contracts/Shops.sol\":4289:4297  sellUser */\n      dup3\n        /* \"contracts/Shops.sol\":4289:4307  sellUser.userLogin */\n      0x20\n      add\n      mload\n        /* \"contracts/Shops.sol\":4275:4307  sellerLogin = sellUser.userLogin */\n      swap9\n      pop\n        /* \"contracts/Shops.sol\":4323:4331  sellUser */\n      dup3\n        /* \"contracts/Shops.sol\":4323:4335  sellUser.fio */\n      0x40\n      add\n      mload\n        /* \"contracts/Shops.sol\":4317:4335  fio = sellUser.fio */\n      swap8\n      pop\n        /* \"contracts/Shops.sol\":4352:4360  sellShop */\n      dup1\n        /* \"contracts/Shops.sol\":4352:4365  sellShop.city */\n      0x20\n      add\n      mload\n        /* \"contracts/Shops.sol\":4345:4365  city = sellShop.city */\n      swap7\n      pop\n        /* \"contracts/Shops.sol\":4388:4396  sellShop */\n      dup1\n        /* \"contracts/Shops.sol\":4388:4403  sellShop.number */\n      0x00\n      add\n      mload\n        /* \"contracts/Shops.sol\":4375:4403  shopNumber = sellShop.number */\n      swap6\n      pop\n        /* \"contracts/Shops.sol\":4423:4431  sellUser */\n      dup3\n        /* \"contracts/Shops.sol\":4423:4439  sellUser.reviews */\n      0x60\n      add\n      mload\n        /* \"contracts/Shops.sol\":4413:4439  reviews = sellUser.reviews */\n      swap5\n      pop\n        /* \"contracts/Shops.sol\":4093:4446  {... */\n      pop\n      pop\n      pop\n        /* \"contracts/Shops.sol\":3855:4446  function getSellerInfo() public view isUserStatus(UserRoles.seller) returns(... */\n      pop\n      swap1\n      swap2\n      swap3\n      swap4\n      swap5\n      jump\t// out\n        /* \"contracts/Shops.sol\":1889:2240  function registerShop(address shopAddr,string memory number,string memory city,string memory shopLogin) public isUserStatus(UserRoles.admin){... */\n    tag_62:\n        /* \"contracts/Shops.sol\":2013:2028  UserRoles.admin */\n      0x03\n        /* \"contracts/AuthService.sol\":1616:1621  users */\n      0x02\n        /* \"contracts/AuthService.sol\":1616:1633  users[msg.sender] */\n      0x00\n        /* \"contracts/AuthService.sol\":1622:1632  msg.sender */\n      caller\n        /* \"contracts/AuthService.sol\":1616:1633  users[msg.sender] */\n      0xffffffffffffffffffffffffffffffffffffffff\n      and\n      0xffffffffffffffffffffffffffffffffffffffff\n      and\n      dup2\n      mstore\n      0x20\n      add\n      swap1\n      dup2\n      mstore\n      0x20\n      add\n      0x00\n      keccak256\n        /* \"contracts/AuthService.sol\":1616:1640  users[msg.sender].status */\n      0x00\n      add\n      sload\n        /* \"contracts/AuthService.sol\":1605:1611  status */\n      dup2\n        /* \"contracts/AuthService.sol\":1600:1612  uint(status) */\n      0x05\n      dup2\n      gt\n      iszero\n      tag_265\n      jumpi\n      tag_266\n      tag_114\n      jump\t// in\n    tag_266:\n    tag_265:\n        /* \"contracts/AuthService.sol\":1600:1640  uint(status) == users[msg.sender].status */\n      eq\n        /* \"contracts/AuthService.sol\":1592:1653  require(uint(status) == users[msg.sender].status,\"Forbidden\") */\n      tag_267\n      jumpi\n      mload(0x40)\n      0x08c379a000000000000000000000000000000000000000000000000000000000\n      dup2\n      mstore\n      0x04\n      add\n      tag_268\n      swap1\n      tag_117\n      jump\t// in\n    tag_268:\n      mload(0x40)\n      dup1\n      swap2\n      sub\n      swap1\n      revert\n    tag_267:\n        /* \"contracts/Shops.sol\":2039:2055  Shop memory shop */\n      0x00\n        /* \"contracts/Shops.sol\":2058:2096  Shop({number:number,city:city,debt:0}) */\n      mload(0x40)\n      dup1\n      0x60\n      add\n      0x40\n      mstore\n      dup1\n        /* \"contracts/Shops.sol\":2071:2077  number */\n      dup7\n        /* \"contracts/Shops.sol\":2058:2096  Shop({number:number,city:city,debt:0}) */\n      dup2\n      mstore\n      0x20\n      add\n        /* \"contracts/Shops.sol\":2083:2087  city */\n      dup6\n        /* \"contracts/Shops.sol\":2058:2096  Shop({number:number,city:city,debt:0}) */\n      dup2\n      mstore\n      0x20\n      add\n        /* \"contracts/Shops.sol\":2093:2094  0 */\n      0x00\n        /* \"contracts/Shops.sol\":2058:2096  Shop({number:number,city:city,debt:0}) */\n      dup2\n      mstore\n      pop\n        /* \"contracts/Shops.sol\":2039:2096  Shop memory shop = Shop({number:number,city:city,debt:0}) */\n      swap1\n      pop\n        /* \"contracts/Shops.sol\":2128:2132  shop */\n      dup1\n        /* \"contracts/Shops.sol\":2106:2115  ShopsList */\n      0x0b\n        /* \"contracts/Shops.sol\":2106:2125  ShopsList[shopAddr] */\n      0x00\n        /* \"contracts/Shops.sol\":2116:2124  shopAddr */\n      dup9\n        /* \"contracts/Shops.sol\":2106:2125  ShopsList[shopAddr] */\n      0xffffffffffffffffffffffffffffffffffffffff\n      and\n      0xffffffffffffffffffffffffffffffffffffffff\n      and\n      dup2\n      mstore\n      0x20\n      add\n      swap1\n      dup2\n      mstore\n      0x20\n      add\n      0x00\n      keccak256\n        /* \"contracts/Shops.sol\":2106:2132  ShopsList[shopAddr] = shop */\n      0x00\n      dup3\n      add\n      mload\n      dup2\n      0x00\n      add\n      swap1\n      dup1\n      mload\n      swap1\n      0x20\n      add\n      swap1\n      tag_270\n      swap3\n      swap2\n      swap1\n      tag_181\n      jump\t// in\n    tag_270:\n      pop\n      0x20\n      dup3\n      add\n      mload\n      dup2\n      0x01\n      add\n      swap1\n      dup1\n      mload\n      swap1\n      0x20\n      add\n      swap1\n      tag_271\n      swap3\n      swap2\n      swap1\n      tag_181\n      jump\t// in\n    tag_271:\n      pop\n      0x40\n      dup3\n      add\n      mload\n      dup2\n      0x02\n      add\n      sstore\n      swap1\n      pop\n      pop\n        /* \"contracts/Shops.sol\":2142:2153  uint status */\n      0x00\n        /* \"contracts/Shops.sol\":2161:2175  UserRoles.shop */\n      0x02\n        /* \"contracts/Shops.sol\":2156:2176  uint(UserRoles.shop) */\n      0x05\n      dup2\n      gt\n      iszero\n      tag_272\n      jumpi\n      tag_273\n      tag_114\n      jump\t// in\n    tag_273:\n    tag_272:\n        /* \"contracts/Shops.sol\":2142:2176  uint status = uint(UserRoles.shop) */\n      swap1\n      pop\n        /* \"contracts/Shops.sol\":2186:2233  registerFromAdmin(\"\",shopLogin,status,shopAddr) */\n      tag_274\n      mload(0x40)\n      dup1\n      0x20\n      add\n      0x40\n      mstore\n      dup1\n      0x00\n      dup2\n      mstore\n      pop\n        /* \"contracts/Shops.sol\":2207:2216  shopLogin */\n      dup6\n        /* \"contracts/Shops.sol\":2217:2223  status */\n      dup4\n        /* \"contracts/Shops.sol\":2224:2232  shopAddr */\n      dup11\n        /* \"contracts/Shops.sol\":2186:2203  registerFromAdmin */\n      tag_166\n        /* \"contracts/Shops.sol\":2186:2233  registerFromAdmin(\"\",shopLogin,status,shopAddr) */\n      jump\t// in\n    tag_274:\n        /* \"contracts/Shops.sol\":2029:2240  {... */\n      pop\n      pop\n        /* \"contracts/Shops.sol\":1889:2240  function registerShop(address shopAddr,string memory number,string memory city,string memory shopLogin) public isUserStatus(UserRoles.admin){... */\n      pop\n      pop\n      pop\n      pop\n      pop\n      jump\t// out\n        /* \"contracts/Shops.sol\":6553:6786  function likeReview(string memory id) public isUser {... */\n    tag_65:\n        /* \"contracts/AuthService.sol\":1464:1503  compare(users[msg.sender].userLogin,\"\") */\n      tag_276\n        /* \"contracts/AuthService.sol\":1472:1477  users */\n      0x02\n        /* \"contracts/AuthService.sol\":1472:1489  users[msg.sender] */\n      0x00\n        /* \"contracts/AuthService.sol\":1478:1488  msg.sender */\n      caller\n        /* \"contracts/AuthService.sol\":1472:1489  users[msg.sender] */\n      0xffffffffffffffffffffffffffffffffffffffff\n      and\n      0xffffffffffffffffffffffffffffffffffffffff\n      and\n      dup2\n      mstore\n      0x20\n      add\n      swap1\n      dup2\n      mstore\n      0x20\n      add\n      0x00\n      keccak256\n        /* \"contracts/AuthService.sol\":1472:1499  users[msg.sender].userLogin */\n      0x01\n      add\n        /* \"contracts/AuthService.sol\":1464:1503  compare(users[msg.sender].userLogin,\"\") */\n      dup1\n      sload\n      tag_277\n      swap1\n      tag_120\n      jump\t// in\n    tag_277:\n      dup1\n      0x1f\n      add\n      0x20\n      dup1\n      swap2\n      div\n      mul\n      0x20\n      add\n      mload(0x40)\n      swap1\n      dup2\n      add\n      0x40\n      mstore\n      dup1\n      swap3\n      swap2\n      swap1\n      dup2\n      dup2\n      mstore\n      0x20\n      add\n      dup3\n      dup1\n      sload\n      tag_278\n      swap1\n      tag_120\n      jump\t// in\n    tag_278:\n      dup1\n      iszero\n      tag_279\n      jumpi\n      dup1\n      0x1f\n      lt\n      tag_280\n      jumpi\n      0x0100\n      dup1\n      dup4\n      sload\n      div\n      mul\n      dup4\n      mstore\n      swap2\n      0x20\n      add\n      swap2\n      jump(tag_279)\n    tag_280:\n      dup3\n      add\n      swap2\n      swap1\n      0x00\n      mstore\n      keccak256(0x00, 0x20)\n      swap1\n    tag_281:\n      dup2\n      sload\n      dup2\n      mstore\n      swap1\n      0x01\n      add\n      swap1\n      0x20\n      add\n      dup1\n      dup4\n      gt\n      tag_281\n      jumpi\n      dup3\n      swap1\n      sub\n      0x1f\n      and\n      dup3\n      add\n      swap2\n    tag_279:\n      pop\n      pop\n      pop\n      pop\n      pop\n      mload(0x40)\n      dup1\n      0x20\n      add\n      0x40\n      mstore\n      dup1\n      0x00\n      dup2\n      mstore\n      pop\n        /* \"contracts/AuthService.sol\":1464:1471  compare */\n      tag_174\n        /* \"contracts/AuthService.sol\":1464:1503  compare(users[msg.sender].userLogin,\"\") */\n      jump\t// in\n    tag_276:\n        /* \"contracts/AuthService.sol\":1463:1503  !compare(users[msg.sender].userLogin,\"\") */\n      iszero\n        /* \"contracts/AuthService.sol\":1455:1519  require(!compare(users[msg.sender].userLogin,\"\"),\"You not user\") */\n      tag_282\n      jumpi\n      mload(0x40)\n      0x08c379a000000000000000000000000000000000000000000000000000000000\n      dup2\n      mstore\n      0x04\n      add\n      tag_283\n      swap1\n      tag_177\n      jump\t// in\n    tag_283:\n      mload(0x40)\n      dup1\n      swap2\n      sub\n      swap1\n      revert\n    tag_282:\n        /* \"contracts/Shops.sol\":6652:6657  false */\n      0x00\n        /* \"contracts/Shops.sol\":6623:6657  reviewCom[id][msg.sender] == false */\n      iszero\n      iszero\n        /* \"contracts/Shops.sol\":6623:6632  reviewCom */\n      0x11\n        /* \"contracts/Shops.sol\":6633:6635  id */\n      dup3\n        /* \"contracts/Shops.sol\":6623:6636  reviewCom[id] */\n      mload(0x40)\n      tag_285\n      swap2\n      swap1\n      tag_155\n      jump\t// in\n    tag_285:\n      swap1\n      dup2\n      mstore\n      0x20\n      add\n      mload(0x40)\n      dup1\n      swap2\n      sub\n      swap1\n      keccak256\n        /* \"contracts/Shops.sol\":6623:6648  reviewCom[id][msg.sender] */\n      0x00\n        /* \"contracts/Shops.sol\":6637:6647  msg.sender */\n      caller\n        /* \"contracts/Shops.sol\":6623:6648  reviewCom[id][msg.sender] */\n      0xffffffffffffffffffffffffffffffffffffffff\n      and\n      0xffffffffffffffffffffffffffffffffffffffff\n      and\n      dup2\n      mstore\n      0x20\n      add\n      swap1\n      dup2\n      mstore\n      0x20\n      add\n      0x00\n      keccak256\n      0x00\n      swap1\n      sload\n      swap1\n      0x0100\n      exp\n      swap1\n      div\n      0xff\n      and\n        /* \"contracts/Shops.sol\":6623:6657  reviewCom[id][msg.sender] == false */\n      iszero\n      iszero\n      eq\n        /* \"contracts/Shops.sol\":6615:6688  require(reviewCom[id][msg.sender] == false,\"You already check this case\") */\n      tag_286\n      jumpi\n      mload(0x40)\n      0x08c379a000000000000000000000000000000000000000000000000000000000\n      dup2\n      mstore\n      0x04\n      add\n      tag_287\n      swap1\n      tag_288\n      jump\t// in\n    tag_287:\n      mload(0x40)\n      dup1\n      swap2\n      sub\n      swap1\n      revert\n    tag_286:\n        /* \"contracts/Shops.sol\":6698:6706  reviewId */\n      0x0f\n        /* \"contracts/Shops.sol\":6707:6709  id */\n      dup2\n        /* \"contracts/Shops.sol\":6698:6710  reviewId[id] */\n      mload(0x40)\n      tag_289\n      swap2\n      swap1\n      tag_155\n      jump\t// in\n    tag_289:\n      swap1\n      dup2\n      mstore\n      0x20\n      add\n      mload(0x40)\n      dup1\n      swap2\n      sub\n      swap1\n      keccak256\n        /* \"contracts/Shops.sol\":6698:6720  reviewId[id].likeCount */\n      0x03\n      add\n        /* \"contracts/Shops.sol\":6726:6736  msg.sender */\n      caller\n        /* \"contracts/Shops.sol\":6698:6737  reviewId[id].likeCount.push(msg.sender) */\n      swap1\n      dup1\n      0x01\n      dup2\n      sload\n      add\n      dup1\n      dup3\n      sstore\n      dup1\n      swap2\n      pop\n      pop\n      0x01\n      swap1\n      sub\n      swap1\n      0x00\n      mstore\n      keccak256(0x00, 0x20)\n      add\n      0x00\n      swap1\n      swap2\n      swap1\n      swap2\n      swap1\n      swap2\n      0x0100\n      exp\n      dup2\n      sload\n      dup2\n      0xffffffffffffffffffffffffffffffffffffffff\n      mul\n      not\n      and\n      swap1\n      dup4\n      0xffffffffffffffffffffffffffffffffffffffff\n      and\n      mul\n      or\n      swap1\n      sstore\n      pop\n        /* \"contracts/Shops.sol\":6775:6779  true */\n      0x01\n        /* \"contracts/Shops.sol\":6747:6756  reviewCom */\n      0x11\n        /* \"contracts/Shops.sol\":6757:6759  id */\n      dup3\n        /* \"contracts/Shops.sol\":6747:6760  reviewCom[id] */\n      mload(0x40)\n      tag_291\n      swap2\n      swap1\n      tag_155\n      jump\t// in\n    tag_291:\n      swap1\n      dup2\n      mstore\n      0x20\n      add\n      mload(0x40)\n      dup1\n      swap2\n      sub\n      swap1\n      keccak256\n        /* \"contracts/Shops.sol\":6747:6772  reviewCom[id][msg.sender] */\n      0x00\n        /* \"contracts/Shops.sol\":6761:6771  msg.sender */\n      caller\n        /* \"contracts/Shops.sol\":6747:6772  reviewCom[id][msg.sender] */\n      0xffffffffffffffffffffffffffffffffffffffff\n      and\n      0xffffffffffffffffffffffffffffffffffffffff\n      and\n      dup2\n      mstore\n      0x20\n      add\n      swap1\n      dup2\n      mstore\n      0x20\n      add\n      0x00\n      keccak256\n      0x00\n        /* \"contracts/Shops.sol\":6747:6779  reviewCom[id][msg.sender] = true */\n      0x0100\n      exp\n      dup2\n      sload\n      dup2\n      0xff\n      mul\n      not\n      and\n      swap1\n      dup4\n      iszero\n      iszero\n      mul\n      or\n      swap1\n      sstore\n      pop\n        /* \"contracts/Shops.sol\":6553:6786  function likeReview(string memory id) public isUser {... */\n      pop\n      jump\t// out\n        /* \"contracts/Shops.sol\":2340:2584  function registerProvider(string memory providerLogin,address providerAddr) public isAdmin {... */\n    tag_68:\n        /* \"contracts/Shops.sol\":1096:1101  admin */\n      0x05\n      0x00\n      swap1\n      sload\n      swap1\n      0x0100\n      exp\n      swap1\n      div\n      0xffffffffffffffffffffffffffffffffffffffff\n      and\n        /* \"contracts/Shops.sol\":1082:1101  msg.sender == admin */\n      0xffffffffffffffffffffffffffffffffffffffff\n      and\n        /* \"contracts/Shops.sol\":1082:1092  msg.sender */\n      caller\n        /* \"contracts/Shops.sol\":1082:1101  msg.sender == admin */\n      0xffffffffffffffffffffffffffffffffffffffff\n      and\n      eq\n        /* \"contracts/Shops.sol\":1074:1118  require(msg.sender == admin,\"You not admin\") */\n      tag_293\n      jumpi\n      mload(0x40)\n      0x08c379a000000000000000000000000000000000000000000000000000000000\n      dup2\n      mstore\n      0x04\n      add\n      tag_294\n      swap1\n      tag_161\n      jump\t// in\n    tag_294:\n      mload(0x40)\n      dup1\n      swap2\n      sub\n      swap1\n      revert\n    tag_293:\n        /* \"contracts/Shops.sol\":2441:2452  uint status */\n      0x00\n        /* \"contracts/Shops.sol\":2460:2478  UserRoles.provider */\n      0x04\n        /* \"contracts/Shops.sol\":2455:2479  uint(UserRoles.provider) */\n      0x05\n      dup2\n      gt\n      iszero\n      tag_296\n      jumpi\n      tag_297\n      tag_114\n      jump\t// in\n    tag_297:\n    tag_296:\n        /* \"contracts/Shops.sol\":2441:2479  uint status = uint(UserRoles.provider) */\n      swap1\n      pop\n        /* \"contracts/Shops.sol\":2489:2544  registerFromAdmin(\"\",providerLogin,status,providerAddr) */\n      tag_298\n      mload(0x40)\n      dup1\n      0x20\n      add\n      0x40\n      mstore\n      dup1\n      0x00\n      dup2\n      mstore\n      pop\n        /* \"contracts/Shops.sol\":2510:2523  providerLogin */\n      dup5\n        /* \"contracts/Shops.sol\":2524:2530  status */\n      dup4\n        /* \"contracts/Shops.sol\":2531:2543  providerAddr */\n      dup6\n        /* \"contracts/Shops.sol\":2489:2506  registerFromAdmin */\n      tag_166\n        /* \"contracts/Shops.sol\":2489:2544  registerFromAdmin(\"\",providerLogin,status,providerAddr) */\n      jump\t// in\n    tag_298:\n        /* \"contracts/Shops.sol\":2565:2577  providerAddr */\n      dup2\n        /* \"contracts/Shops.sol\":2554:2562  provider */\n      0x04\n      0x00\n        /* \"contracts/Shops.sol\":2554:2577  provider = providerAddr */\n      0x0100\n      exp\n      dup2\n      sload\n      dup2\n      0xffffffffffffffffffffffffffffffffffffffff\n      mul\n      not\n      and\n      swap1\n      dup4\n      0xffffffffffffffffffffffffffffffffffffffff\n      and\n      mul\n      or\n      swap1\n      sstore\n      pop\n        /* \"contracts/Shops.sol\":2431:2584  {... */\n      pop\n        /* \"contracts/Shops.sol\":2340:2584  function registerProvider(string memory providerLogin,address providerAddr) public isAdmin {... */\n      pop\n      pop\n      jump\t// out\n        /* \"contracts/Shops.sol\":3576:3779  function doShopDebt(address payable shopAddr) public isUserStatus(UserRoles.bank) {... */\n    tag_72:\n        /* \"contracts/Shops.sol\":3642:3656  UserRoles.bank */\n      0x05\n        /* \"contracts/AuthService.sol\":1616:1621  users */\n      0x02\n        /* \"contracts/AuthService.sol\":1616:1633  users[msg.sender] */\n      0x00\n        /* \"contracts/AuthService.sol\":1622:1632  msg.sender */\n      caller\n        /* \"contracts/AuthService.sol\":1616:1633  users[msg.sender] */\n      0xffffffffffffffffffffffffffffffffffffffff\n      and\n      0xffffffffffffffffffffffffffffffffffffffff\n      and\n      dup2\n      mstore\n      0x20\n      add\n      swap1\n      dup2\n      mstore\n      0x20\n      add\n      0x00\n      keccak256\n        /* \"contracts/AuthService.sol\":1616:1640  users[msg.sender].status */\n      0x00\n      add\n      sload\n        /* \"contracts/AuthService.sol\":1605:1611  status */\n      dup2\n        /* \"contracts/AuthService.sol\":1600:1612  uint(status) */\n      0x05\n      dup2\n      gt\n      iszero\n      tag_300\n      jumpi\n      tag_301\n      tag_114\n      jump\t// in\n    tag_301:\n    tag_300:\n        /* \"contracts/AuthService.sol\":1600:1640  uint(status) == users[msg.sender].status */\n      eq\n        /* \"contracts/AuthService.sol\":1592:1653  require(uint(status) == users[msg.sender].status,\"Forbidden\") */\n      tag_302\n      jumpi\n      mload(0x40)\n      0x08c379a000000000000000000000000000000000000000000000000000000000\n      dup2\n      mstore\n      0x04\n      add\n      tag_303\n      swap1\n      tag_117\n      jump\t// in\n    tag_303:\n      mload(0x40)\n      dup1\n      swap2\n      sub\n      swap1\n      revert\n    tag_302:\n        /* \"contracts/Shops.sol\":3707:3717  1000 ether */\n      0x3635c9adc5dea00000\n        /* \"contracts/Shops.sol\":3684:3694  msg.sender */\n      caller\n        /* \"contracts/Shops.sol\":3676:3703  payable(msg.sender).balance */\n      0xffffffffffffffffffffffffffffffffffffffff\n      and\n      balance\n        /* \"contracts/Shops.sol\":3676:3717  payable(msg.sender).balance >= 1000 ether */\n      lt\n      iszero\n        /* \"contracts/Shops.sol\":3668:3732  require(payable(msg.sender).balance >= 1000 ether,\"Low balance\") */\n      tag_305\n      jumpi\n      mload(0x40)\n      0x08c379a000000000000000000000000000000000000000000000000000000000\n      dup2\n      mstore\n      0x04\n      add\n      tag_306\n      swap1\n      tag_307\n      jump\t// in\n    tag_306:\n      mload(0x40)\n      dup1\n      swap2\n      sub\n      swap1\n      revert\n    tag_305:\n        /* \"contracts/Shops.sol\":3742:3750  shopAddr */\n      dup2\n        /* \"contracts/Shops.sol\":3742:3759  shopAddr.transfer */\n      0xffffffffffffffffffffffffffffffffffffffff\n      and\n        /* \"contracts/Shops.sol\":3742:3771  shopAddr.transfer(1000 ether) */\n      0x08fc\n        /* \"contracts/Shops.sol\":3760:3770  1000 ether */\n      0x3635c9adc5dea00000\n        /* \"contracts/Shops.sol\":3742:3771  shopAddr.transfer(1000 ether) */\n      swap1\n      dup2\n      iszero\n      mul\n      swap1\n      mload(0x40)\n      0x00\n      mload(0x40)\n      dup1\n      dup4\n      sub\n      dup2\n      dup6\n      dup9\n      dup9\n      call\n      swap4\n      pop\n      pop\n      pop\n      pop\n      iszero\n      dup1\n      iszero\n      tag_309\n      jumpi\n      returndatasize\n      0x00\n      dup1\n      returndatacopy\n      revert(0x00, returndatasize)\n    tag_309:\n      pop\n        /* \"contracts/Shops.sol\":3576:3779  function doShopDebt(address payable shopAddr) public isUserStatus(UserRoles.bank) {... */\n      pop\n      pop\n      jump\t// out\n        /* \"contracts/Shops.sol\":2909:3215  function registerSeller(string memory fio,string memory userLogin,address userAddress,address shopAddr) public {... */\n    tag_76:\n        /* \"contracts/Shops.sol\":3030:3041  uint status */\n      0x00\n        /* \"contracts/Shops.sol\":3049:3065  UserRoles.seller */\n      0x01\n        /* \"contracts/Shops.sol\":3044:3066  uint(UserRoles.seller) */\n      0x05\n      dup2\n      gt\n      iszero\n      tag_311\n      jumpi\n      tag_312\n      tag_114\n      jump\t// in\n    tag_312:\n    tag_311:\n        /* \"contracts/Shops.sol\":3030:3066  uint status = uint(UserRoles.seller) */\n      swap1\n      pop\n        /* \"contracts/Shops.sol\":3076:3127  registerFromAdmin(fio,userLogin,status,userAddress) */\n      tag_313\n        /* \"contracts/Shops.sol\":3094:3097  fio */\n      dup6\n        /* \"contracts/Shops.sol\":3098:3107  userLogin */\n      dup6\n        /* \"contracts/Shops.sol\":3108:3114  status */\n      dup4\n        /* \"contracts/Shops.sol\":3115:3126  userAddress */\n      dup7\n        /* \"contracts/Shops.sol\":3076:3093  registerFromAdmin */\n      tag_166\n        /* \"contracts/Shops.sol\":3076:3127  registerFromAdmin(fio,userLogin,status,userAddress) */\n      jump\t// in\n    tag_313:\n        /* \"contracts/Shops.sol\":3137:3144  sellers */\n      0x08\n        /* \"contracts/Shops.sol\":3150:3161  userAddress */\n      dup4\n        /* \"contracts/Shops.sol\":3137:3162  sellers.push(userAddress) */\n      swap1\n      dup1\n      0x01\n      dup2\n      sload\n      add\n      dup1\n      dup3\n      sstore\n      dup1\n      swap2\n      pop\n      pop\n      0x01\n      swap1\n      sub\n      swap1\n      0x00\n      mstore\n      keccak256(0x00, 0x20)\n      add\n      0x00\n      swap1\n      swap2\n      swap1\n      swap2\n      swap1\n      swap2\n      0x0100\n      exp\n      dup2\n      sload\n      dup2\n      0xffffffffffffffffffffffffffffffffffffffff\n      mul\n      not\n      and\n      swap1\n      dup4\n      0xffffffffffffffffffffffffffffffffffffffff\n      and\n      mul\n      or\n      swap1\n      sstore\n      pop\n        /* \"contracts/Shops.sol\":3172:3180  salesmen */\n      0x0d\n        /* \"contracts/Shops.sol\":3172:3190  salesmen[shopAddr] */\n      0x00\n        /* \"contracts/Shops.sol\":3181:3189  shopAddr */\n      dup4\n        /* \"contracts/Shops.sol\":3172:3190  salesmen[shopAddr] */\n      0xffffffffffffffffffffffffffffffffffffffff\n      and\n      0xffffffffffffffffffffffffffffffffffffffff\n      and\n      dup2\n      mstore\n      0x20\n      add\n      swap1\n      dup2\n      mstore\n      0x20\n      add\n      0x00\n      keccak256\n        /* \"contracts/Shops.sol\":3196:3207  userAddress */\n      dup4\n        /* \"contracts/Shops.sol\":3172:3208  salesmen[shopAddr].push(userAddress) */\n      swap1\n      dup1\n      0x01\n      dup2\n      sload\n      add\n      dup1\n      dup3\n      sstore\n      dup1\n      swap2\n      pop\n      pop\n      0x01\n      swap1\n      sub\n      swap1\n      0x00\n      mstore\n      keccak256(0x00, 0x20)\n      add\n      0x00\n      swap1\n      swap2\n      swap1\n      swap2\n      swap1\n      swap2\n      0x0100\n      exp\n      dup2\n      sload\n      dup2\n      0xffffffffffffffffffffffffffffffffffffffff\n      mul\n      not\n      and\n      swap1\n      dup4\n      0xffffffffffffffffffffffffffffffffffffffff\n      and\n      mul\n      or\n      swap1\n      sstore\n      pop\n        /* \"contracts/Shops.sol\":3020:3215  {... */\n      pop\n        /* \"contracts/Shops.sol\":2909:3215  function registerSeller(string memory fio,string memory userLogin,address userAddress,address shopAddr) public {... */\n      pop\n      pop\n      pop\n      pop\n      jump\t// out\n        /* \"contracts/Shops.sol\":4545:4909  function getBuyerInfo() public view isUser returns(... */\n    tag_78:\n        /* \"contracts/Shops.sol\":4605:4628  string memory userLogin */\n      0x60\n        /* \"contracts/Shops.sol\":4638:4655  string memory fio */\n      dup1\n        /* \"contracts/Shops.sol\":4665:4677  uint balance */\n      0x00\n        /* \"contracts/Shops.sol\":4687:4710  string[] memory reviews */\n      0x60\n        /* \"contracts/AuthService.sol\":1464:1503  compare(users[msg.sender].userLogin,\"\") */\n      tag_317\n        /* \"contracts/AuthService.sol\":1472:1477  users */\n      0x02\n        /* \"contracts/AuthService.sol\":1472:1489  users[msg.sender] */\n      0x00\n        /* \"contracts/AuthService.sol\":1478:1488  msg.sender */\n      caller\n        /* \"contracts/AuthService.sol\":1472:1489  users[msg.sender] */\n      0xffffffffffffffffffffffffffffffffffffffff\n      and\n      0xffffffffffffffffffffffffffffffffffffffff\n      and\n      dup2\n      mstore\n      0x20\n      add\n      swap1\n      dup2\n      mstore\n      0x20\n      add\n      0x00\n      keccak256\n        /* \"contracts/AuthService.sol\":1472:1499  users[msg.sender].userLogin */\n      0x01\n      add\n        /* \"contracts/AuthService.sol\":1464:1503  compare(users[msg.sender].userLogin,\"\") */\n      dup1\n      sload\n      tag_318\n      swap1\n      tag_120\n      jump\t// in\n    tag_318:\n      dup1\n      0x1f\n      add\n      0x20\n      dup1\n      swap2\n      div\n      mul\n      0x20\n      add\n      mload(0x40)\n      swap1\n      dup2\n      add\n      0x40\n      mstore\n      dup1\n      swap3\n      swap2\n      swap1\n      dup2\n      dup2\n      mstore\n      0x20\n      add\n      dup3\n      dup1\n      sload\n      tag_319\n      swap1\n      tag_120\n      jump\t// in\n    tag_319:\n      dup1\n      iszero\n      tag_320\n      jumpi\n      dup1\n      0x1f\n      lt\n      tag_321\n      jumpi\n      0x0100\n      dup1\n      dup4\n      sload\n      div\n      mul\n      dup4\n      mstore\n      swap2\n      0x20\n      add\n      swap2\n      jump(tag_320)\n    tag_321:\n      dup3\n      add\n      swap2\n      swap1\n      0x00\n      mstore\n      keccak256(0x00, 0x20)\n      swap1\n    tag_322:\n      dup2\n      sload\n      dup2\n      mstore\n      swap1\n      0x01\n      add\n      swap1\n      0x20\n      add\n      dup1\n      dup4\n      gt\n      tag_322\n      jumpi\n      dup3\n      swap1\n      sub\n      0x1f\n      and\n      dup3\n      add\n      swap2\n    tag_320:\n      pop\n      pop\n      pop\n      pop\n      pop\n      mload(0x40)\n      dup1\n      0x20\n      add\n      0x40\n      mstore\n      dup1\n      0x00\n      dup2\n      mstore\n      pop\n        /* \"contracts/AuthService.sol\":1464:1471  compare */\n      tag_174\n        /* \"contracts/AuthService.sol\":1464:1503  compare(users[msg.sender].userLogin,\"\") */\n      jump\t// in\n    tag_317:\n        /* \"contracts/AuthService.sol\":1463:1503  !compare(users[msg.sender].userLogin,\"\") */\n      iszero\n        /* \"contracts/AuthService.sol\":1455:1519  require(!compare(users[msg.sender].userLogin,\"\"),\"You not user\") */\n      tag_323\n      jumpi\n      mload(0x40)\n      0x08c379a000000000000000000000000000000000000000000000000000000000\n      dup2\n      mstore\n      0x04\n      add\n      tag_324\n      swap1\n      tag_177\n      jump\t// in\n    tag_324:\n      mload(0x40)\n      dup1\n      swap2\n      sub\n      swap1\n      revert\n    tag_323:\n        /* \"contracts/Shops.sol\":4726:4742  User memory user */\n      0x00\n        /* \"contracts/Shops.sol\":4745:4750  users */\n      0x02\n        /* \"contracts/Shops.sol\":4745:4762  users[msg.sender] */\n      0x00\n        /* \"contracts/Shops.sol\":4751:4761  msg.sender */\n      caller\n        /* \"contracts/Shops.sol\":4745:4762  users[msg.sender] */\n      0xffffffffffffffffffffffffffffffffffffffff\n      and\n      0xffffffffffffffffffffffffffffffffffffffff\n      and\n      dup2\n      mstore\n      0x20\n      add\n      swap1\n      dup2\n      mstore\n      0x20\n      add\n      0x00\n      keccak256\n        /* \"contracts/Shops.sol\":4726:4762  User memory user = users[msg.sender] */\n      mload(0x40)\n      dup1\n      0x80\n      add\n      0x40\n      mstore\n      swap1\n      dup2\n      0x00\n      dup3\n      add\n      sload\n      dup2\n      mstore\n      0x20\n      add\n      0x01\n      dup3\n      add\n      dup1\n      sload\n      tag_326\n      swap1\n      tag_120\n      jump\t// in\n    tag_326:\n      dup1\n      0x1f\n      add\n      0x20\n      dup1\n      swap2\n      div\n      mul\n      0x20\n      add\n      mload(0x40)\n      swap1\n      dup2\n      add\n      0x40\n      mstore\n      dup1\n      swap3\n      swap2\n      swap1\n      dup2\n      dup2\n      mstore\n      0x20\n      add\n      dup3\n      dup1\n      sload\n      tag_327\n      swap1\n      tag_120\n      jump\t// in\n    tag_327:\n      dup1\n      iszero\n      tag_328\n      jumpi\n      dup1\n      0x1f\n      lt\n      tag_329\n      jumpi\n      0x0100\n      dup1\n      dup4\n      sload\n      div\n      mul\n      dup4\n      mstore\n      swap2\n      0x20\n      add\n      swap2\n      jump(tag_328)\n    tag_329:\n      dup3\n      add\n      swap2\n      swap1\n      0x00\n      mstore\n      keccak256(0x00, 0x20)\n      swap1\n    tag_330:\n      dup2\n      sload\n      dup2\n      mstore\n      swap1\n      0x01\n      add\n      swap1\n      0x20\n      add\n      dup1\n      dup4\n      gt\n      tag_330\n      jumpi\n      dup3\n      swap1\n      sub\n      0x1f\n      and\n      dup3\n      add\n      swap2\n    tag_328:\n      pop\n      pop\n      pop\n      pop\n      pop\n      dup2\n      mstore\n      0x20\n      add\n      0x02\n      dup3\n      add\n      dup1\n      sload\n      tag_331\n      swap1\n      tag_120\n      jump\t// in\n    tag_331:\n      dup1\n      0x1f\n      add\n      0x20\n      dup1\n      swap2\n      div\n      mul\n      0x20\n      add\n      mload(0x40)\n      swap1\n      dup2\n      add\n      0x40\n      mstore\n      dup1\n      swap3\n      swap2\n      swap1\n      dup2\n      dup2\n      mstore\n      0x20\n      add\n      dup3\n      dup1\n      sload\n      tag_332\n      swap1\n      tag_120\n      jump\t// in\n    tag_332:\n      dup1\n      iszero\n      tag_333\n      jumpi\n      dup1\n      0x1f\n      lt\n      tag_334\n      jumpi\n      0x0100\n      dup1\n      dup4\n      sload\n      div\n      mul\n      dup4\n      mstore\n      swap2\n      0x20\n      add\n      swap2\n      jump(tag_333)\n    tag_334:\n      dup3\n      add\n      swap2\n      swap1\n      0x00\n      mstore\n      keccak256(0x00, 0x20)\n      swap1\n    tag_335:\n      dup2\n      sload\n      dup2\n      mstore\n      swap1\n      0x01\n      add\n      swap1\n      0x20\n      add\n      dup1\n      dup4\n      gt\n      tag_335\n      jumpi\n      dup3\n      swap1\n      sub\n      0x1f\n      and\n      dup3\n      add\n      swap2\n    tag_333:\n      pop\n      pop\n      pop\n      pop\n      pop\n      dup2\n      mstore\n      0x20\n      add\n      0x03\n      dup3\n      add\n      dup1\n      sload\n      dup1\n      0x20\n      mul\n      0x20\n      add\n      mload(0x40)\n      swap1\n      dup2\n      add\n      0x40\n      mstore\n      dup1\n      swap3\n      swap2\n      swap1\n      dup2\n      dup2\n      mstore\n      0x20\n      add\n      0x00\n      swap1\n    tag_336:\n      dup3\n      dup3\n      lt\n      iszero\n      tag_337\n      jumpi\n      dup4\n      dup3\n      swap1\n      0x00\n      mstore\n      keccak256(0x00, 0x20)\n      add\n      dup1\n      sload\n      tag_339\n      swap1\n      tag_120\n      jump\t// in\n    tag_339:\n      dup1\n      0x1f\n      add\n      0x20\n      dup1\n      swap2\n      div\n      mul\n      0x20\n      add\n      mload(0x40)\n      swap1\n      dup2\n      add\n      0x40\n      mstore\n      dup1\n      swap3\n      swap2\n      swap1\n      dup2\n      dup2\n      mstore\n      0x20\n      add\n      dup3\n      dup1\n      sload\n      tag_340\n      swap1\n      tag_120\n      jump\t// in\n    tag_340:\n      dup1\n      iszero\n      tag_341\n      jumpi\n      dup1\n      0x1f\n      lt\n      tag_342\n      jumpi\n      0x0100\n      dup1\n      dup4\n      sload\n      div\n      mul\n      dup4\n      mstore\n      swap2\n      0x20\n      add\n      swap2\n      jump(tag_341)\n    tag_342:\n      dup3\n      add\n      swap2\n      swap1\n      0x00\n      mstore\n      keccak256(0x00, 0x20)\n      swap1\n    tag_343:\n      dup2\n      sload\n      dup2\n      mstore\n      swap1\n      0x01\n      add\n      swap1\n      0x20\n      add\n      dup1\n      dup4\n      gt\n      tag_343\n      jumpi\n      dup3\n      swap1\n      sub\n      0x1f\n      and\n      dup3\n      add\n      swap2\n    tag_341:\n      pop\n      pop\n      pop\n      pop\n      pop\n      dup2\n      mstore\n      0x20\n      add\n      swap1\n      0x01\n      add\n      swap1\n      jump(tag_336)\n    tag_337:\n      pop\n      pop\n      pop\n      pop\n      dup2\n      mstore\n      pop\n      pop\n      swap1\n      pop\n        /* \"contracts/Shops.sol\":4785:4789  user */\n      dup1\n        /* \"contracts/Shops.sol\":4785:4799  user.userLogin */\n      0x20\n      add\n      mload\n        /* \"contracts/Shops.sol\":4773:4799  userLogin = user.userLogin */\n      swap5\n      pop\n        /* \"contracts/Shops.sol\":4815:4819  user */\n      dup1\n        /* \"contracts/Shops.sol\":4815:4823  user.fio */\n      0x40\n      add\n      mload\n        /* \"contracts/Shops.sol\":4809:4823  fio = user.fio */\n      swap4\n      pop\n        /* \"contracts/Shops.sol\":4851:4861  msg.sender */\n      caller\n        /* \"contracts/Shops.sol\":4843:4870  payable(msg.sender).balance */\n      0xffffffffffffffffffffffffffffffffffffffff\n      and\n      balance\n        /* \"contracts/Shops.sol\":4833:4870  balance = payable(msg.sender).balance */\n      swap3\n      pop\n        /* \"contracts/Shops.sol\":4890:4894  user */\n      dup1\n        /* \"contracts/Shops.sol\":4890:4902  user.reviews */\n      0x60\n      add\n      mload\n        /* \"contracts/Shops.sol\":4880:4902  reviews = user.reviews */\n      swap2\n      pop\n        /* \"contracts/Shops.sol\":4716:4909  {... */\n      pop\n        /* \"contracts/Shops.sol\":4545:4909  function getBuyerInfo() public view isUser returns(... */\n      swap1\n      swap2\n      swap3\n      swap4\n      jump\t// out\n        /* \"contracts/Shops.sol\":3282:3481  function registerBuyer(string memory fio,string memory userLogin,address userAddr) public{... */\n    tag_84:\n        /* \"contracts/Shops.sol\":3381:3392  uint status */\n      0x00\n        /* \"contracts/Shops.sol\":3400:3415  UserRoles.buyer */\n      dup1\n        /* \"contracts/Shops.sol\":3395:3416  uint(UserRoles.buyer) */\n      0x05\n      dup2\n      gt\n      iszero\n      tag_345\n      jumpi\n      tag_346\n      tag_114\n      jump\t// in\n    tag_346:\n    tag_345:\n        /* \"contracts/Shops.sol\":3381:3416  uint status = uint(UserRoles.buyer) */\n      swap1\n      pop\n        /* \"contracts/Shops.sol\":3426:3474  registerFromAdmin(fio,userLogin,status,userAddr) */\n      tag_347\n        /* \"contracts/Shops.sol\":3444:3447  fio */\n      dup5\n        /* \"contracts/Shops.sol\":3448:3457  userLogin */\n      dup5\n        /* \"contracts/Shops.sol\":3458:3464  status */\n      dup4\n        /* \"contracts/Shops.sol\":3465:3473  userAddr */\n      dup6\n        /* \"contracts/Shops.sol\":3426:3443  registerFromAdmin */\n      tag_166\n        /* \"contracts/Shops.sol\":3426:3474  registerFromAdmin(fio,userLogin,status,userAddr) */\n      jump\t// in\n    tag_347:\n        /* \"contracts/Shops.sol\":3371:3481  {... */\n      pop\n        /* \"contracts/Shops.sol\":3282:3481  function registerBuyer(string memory fio,string memory userLogin,address userAddr) public{... */\n      pop\n      pop\n      pop\n      jump\t// out\n        /* \"contracts/Shops.sol\":1570:1828  function regAdmin(address adminAddr,string memory fio,string memory userLogin) public isUserStatus(UserRoles.admin){... */\n    tag_88:\n        /* \"contracts/Shops.sol\":1669:1684  UserRoles.admin */\n      0x03\n        /* \"contracts/AuthService.sol\":1616:1621  users */\n      0x02\n        /* \"contracts/AuthService.sol\":1616:1633  users[msg.sender] */\n      0x00\n        /* \"contracts/AuthService.sol\":1622:1632  msg.sender */\n      caller\n        /* \"contracts/AuthService.sol\":1616:1633  users[msg.sender] */\n      0xffffffffffffffffffffffffffffffffffffffff\n      and\n      0xffffffffffffffffffffffffffffffffffffffff\n      and\n      dup2\n      mstore\n      0x20\n      add\n      swap1\n      dup2\n      mstore\n      0x20\n      add\n      0x00\n      keccak256\n        /* \"contracts/AuthService.sol\":1616:1640  users[msg.sender].status */\n      0x00\n      add\n      sload\n        /* \"contracts/AuthService.sol\":1605:1611  status */\n      dup2\n        /* \"contracts/AuthService.sol\":1600:1612  uint(status) */\n      0x05\n      dup2\n      gt\n      iszero\n      tag_349\n      jumpi\n      tag_350\n      tag_114\n      jump\t// in\n    tag_350:\n    tag_349:\n        /* \"contracts/AuthService.sol\":1600:1640  uint(status) == users[msg.sender].status */\n      eq\n        /* \"contracts/AuthService.sol\":1592:1653  require(uint(status) == users[msg.sender].status,\"Forbidden\") */\n      tag_351\n      jumpi\n      mload(0x40)\n      0x08c379a000000000000000000000000000000000000000000000000000000000\n      dup2\n      mstore\n      0x04\n      add\n      tag_352\n      swap1\n      tag_117\n      jump\t// in\n    tag_352:\n      mload(0x40)\n      dup1\n      swap2\n      sub\n      swap1\n      revert\n    tag_351:\n        /* \"contracts/Shops.sol\":1695:1706  uint status */\n      0x00\n        /* \"contracts/Shops.sol\":1714:1729  UserRoles.admin */\n      0x03\n        /* \"contracts/Shops.sol\":1709:1730  uint(UserRoles.admin) */\n      0x05\n      dup2\n      gt\n      iszero\n      tag_354\n      jumpi\n      tag_355\n      tag_114\n      jump\t// in\n    tag_355:\n    tag_354:\n        /* \"contracts/Shops.sol\":1695:1730  uint status = uint(UserRoles.admin) */\n      swap1\n      pop\n        /* \"contracts/Shops.sol\":1740:1789  registerFromAdmin(fio,userLogin,status,adminAddr) */\n      tag_356\n        /* \"contracts/Shops.sol\":1758:1761  fio */\n      dup5\n        /* \"contracts/Shops.sol\":1762:1771  userLogin */\n      dup5\n        /* \"contracts/Shops.sol\":1772:1778  status */\n      dup4\n        /* \"contracts/Shops.sol\":1779:1788  adminAddr */\n      dup9\n        /* \"contracts/Shops.sol\":1740:1757  registerFromAdmin */\n      tag_166\n        /* \"contracts/Shops.sol\":1740:1789  registerFromAdmin(fio,userLogin,status,adminAddr) */\n      jump\t// in\n    tag_356:\n        /* \"contracts/Shops.sol\":1799:1805  admins */\n      0x06\n        /* \"contracts/Shops.sol\":1811:1820  userLogin */\n      dup4\n        /* \"contracts/Shops.sol\":1799:1821  admins.push(userLogin) */\n      swap1\n      dup1\n      0x01\n      dup2\n      sload\n      add\n      dup1\n      dup3\n      sstore\n      dup1\n      swap2\n      pop\n      pop\n      0x01\n      swap1\n      sub\n      swap1\n      0x00\n      mstore\n      keccak256(0x00, 0x20)\n      add\n      0x00\n      swap1\n      swap2\n      swap1\n      swap2\n      swap1\n      swap2\n      pop\n      swap1\n      dup1\n      mload\n      swap1\n      0x20\n      add\n      swap1\n      tag_358\n      swap3\n      swap2\n      swap1\n      tag_181\n      jump\t// in\n    tag_358:\n      pop\n        /* \"contracts/Shops.sol\":1685:1828  {... */\n      pop\n        /* \"contracts/Shops.sol\":1570:1828  function regAdmin(address adminAddr,string memory fio,string memory userLogin) public isUserStatus(UserRoles.admin){... */\n      pop\n      pop\n      pop\n      pop\n      jump\t// out\n        /* \"contracts/Shops.sol\":7529:7831  function requestToSeller(string memory id) public isUserStatus(UserRoles.buyer){... */\n    tag_91:\n        /* \"contracts/Shops.sol\":7592:7607  UserRoles.buyer */\n      0x00\n        /* \"contracts/AuthService.sol\":1616:1621  users */\n      0x02\n        /* \"contracts/AuthService.sol\":1616:1633  users[msg.sender] */\n      0x00\n        /* \"contracts/AuthService.sol\":1622:1632  msg.sender */\n      caller\n        /* \"contracts/AuthService.sol\":1616:1633  users[msg.sender] */\n      0xffffffffffffffffffffffffffffffffffffffff\n      and\n      0xffffffffffffffffffffffffffffffffffffffff\n      and\n      dup2\n      mstore\n      0x20\n      add\n      swap1\n      dup2\n      mstore\n      0x20\n      add\n      0x00\n      keccak256\n        /* \"contracts/AuthService.sol\":1616:1640  users[msg.sender].status */\n      0x00\n      add\n      sload\n        /* \"contracts/AuthService.sol\":1605:1611  status */\n      dup2\n        /* \"contracts/AuthService.sol\":1600:1612  uint(status) */\n      0x05\n      dup2\n      gt\n      iszero\n      tag_360\n      jumpi\n      tag_361\n      tag_114\n      jump\t// in\n    tag_361:\n    tag_360:\n        /* \"contracts/AuthService.sol\":1600:1640  uint(status) == users[msg.sender].status */\n      eq\n        /* \"contracts/AuthService.sol\":1592:1653  require(uint(status) == users[msg.sender].status,\"Forbidden\") */\n      tag_362\n      jumpi\n      mload(0x40)\n      0x08c379a000000000000000000000000000000000000000000000000000000000\n      dup2\n      mstore\n      0x04\n      add\n      tag_363\n      swap1\n      tag_117\n      jump\t// in\n    tag_363:\n      mload(0x40)\n      dup1\n      swap2\n      sub\n      swap1\n      revert\n    tag_362:\n        /* \"contracts/Shops.sol\":7618:7635  Request memory rq */\n      0x00\n        /* \"contracts/Shops.sol\":7638:7769  Request(... */\n      mload(0x40)\n      dup1\n      0x80\n      add\n      0x40\n      mstore\n      dup1\n        /* \"contracts/Shops.sol\":7659:7669  msg.sender */\n      caller\n        /* \"contracts/Shops.sol\":7638:7769  Request(... */\n      0xffffffffffffffffffffffffffffffffffffffff\n      and\n      dup2\n      mstore\n      0x20\n      add\n        /* \"contracts/Shops.sol\":7688:7703  UserRoles.buyer */\n      0x00\n        /* \"contracts/Shops.sol\":7683:7704  uint(UserRoles.buyer) */\n      0x05\n      dup2\n      gt\n      iszero\n      tag_365\n      jumpi\n      tag_366\n      tag_114\n      jump\t// in\n    tag_366:\n    tag_365:\n        /* \"contracts/Shops.sol\":7638:7769  Request(... */\n      dup2\n      mstore\n      0x20\n      add\n        /* \"contracts/Shops.sol\":7723:7739  UserRoles.seller */\n      0x01\n        /* \"contracts/Shops.sol\":7718:7740  uint(UserRoles.seller) */\n      0x05\n      dup2\n      gt\n      iszero\n      tag_367\n      jumpi\n      tag_368\n      tag_114\n      jump\t// in\n    tag_368:\n    tag_367:\n        /* \"contracts/Shops.sol\":7638:7769  Request(... */\n      dup2\n      mstore\n      0x20\n      add\n        /* \"contracts/Shops.sol\":7754:7759  false */\n      0x00\n        /* \"contracts/Shops.sol\":7638:7769  Request(... */\n      iszero\n      iszero\n      dup2\n      mstore\n      pop\n        /* \"contracts/Shops.sol\":7618:7769  Request memory rq = Request(... */\n      swap1\n      pop\n        /* \"contracts/Shops.sol\":7795:7797  rq */\n      dup1\n        /* \"contracts/Shops.sol\":7779:7788  requestId */\n      0x10\n        /* \"contracts/Shops.sol\":7789:7791  id */\n      dup5\n        /* \"contracts/Shops.sol\":7779:7792  requestId[id] */\n      mload(0x40)\n      tag_369\n      swap2\n      swap1\n      tag_155\n      jump\t// in\n    tag_369:\n      swap1\n      dup2\n      mstore\n      0x20\n      add\n      mload(0x40)\n      dup1\n      swap2\n      sub\n      swap1\n      keccak256\n        /* \"contracts/Shops.sol\":7779:7797  requestId[id] = rq */\n      0x00\n      dup3\n      add\n      mload\n      dup2\n      0x00\n      add\n      exp(0x0100, 0x00)\n      dup2\n      sload\n      dup2\n      0xffffffffffffffffffffffffffffffffffffffff\n      mul\n      not\n      and\n      swap1\n      dup4\n      0xffffffffffffffffffffffffffffffffffffffff\n      and\n      mul\n      or\n      swap1\n      sstore\n      pop\n      0x20\n      dup3\n      add\n      mload\n      dup2\n      0x01\n      add\n      sstore\n      0x40\n      dup3\n      add\n      mload\n      dup2\n      0x02\n      add\n      sstore\n      0x60\n      dup3\n      add\n      mload\n      dup2\n      0x03\n      add\n      exp(0x0100, 0x00)\n      dup2\n      sload\n      dup2\n      0xff\n      mul\n      not\n      and\n      swap1\n      dup4\n      iszero\n      iszero\n      mul\n      or\n      swap1\n      sstore\n      pop\n      swap1\n      pop\n      pop\n        /* \"contracts/Shops.sol\":7807:7815  requests */\n      0x0a\n        /* \"contracts/Shops.sol\":7821:7823  id */\n      dup4\n        /* \"contracts/Shops.sol\":7807:7824  requests.push(id) */\n      swap1\n      dup1\n      0x01\n      dup2\n      sload\n      add\n      dup1\n      dup3\n      sstore\n      dup1\n      swap2\n      pop\n      pop\n      0x01\n      swap1\n      sub\n      swap1\n      0x00\n      mstore\n      keccak256(0x00, 0x20)\n      add\n      0x00\n      swap1\n      swap2\n      swap1\n      swap2\n      swap1\n      swap2\n      pop\n      swap1\n      dup1\n      mload\n      swap1\n      0x20\n      add\n      swap1\n      tag_371\n      swap3\n      swap2\n      swap1\n      tag_181\n      jump\t// in\n    tag_371:\n      pop\n        /* \"contracts/Shops.sol\":7608:7831  {... */\n      pop\n        /* \"contracts/Shops.sol\":7529:7831  function requestToSeller(string memory id) public isUserStatus(UserRoles.buyer){... */\n      pop\n      pop\n      jump\t// out\n        /* \"contracts/Shops.sol\":7837:8142  function downRequestToByer(string memory id) public isUserStatus(UserRoles.seller){... */\n    tag_94:\n        /* \"contracts/Shops.sol\":7902:7918  UserRoles.seller */\n      0x01\n        /* \"contracts/AuthService.sol\":1616:1621  users */\n      0x02\n        /* \"contracts/AuthService.sol\":1616:1633  users[msg.sender] */\n      0x00\n        /* \"contracts/AuthService.sol\":1622:1632  msg.sender */\n      caller\n        /* \"contracts/AuthService.sol\":1616:1633  users[msg.sender] */\n      0xffffffffffffffffffffffffffffffffffffffff\n      and\n      0xffffffffffffffffffffffffffffffffffffffff\n      and\n      dup2\n      mstore\n      0x20\n      add\n      swap1\n      dup2\n      mstore\n      0x20\n      add\n      0x00\n      keccak256\n        /* \"contracts/AuthService.sol\":1616:1640  users[msg.sender].status */\n      0x00\n      add\n      sload\n        /* \"contracts/AuthService.sol\":1605:1611  status */\n      dup2\n        /* \"contracts/AuthService.sol\":1600:1612  uint(status) */\n      0x05\n      dup2\n      gt\n      iszero\n      tag_373\n      jumpi\n      tag_374\n      tag_114\n      jump\t// in\n    tag_374:\n    tag_373:\n        /* \"contracts/AuthService.sol\":1600:1640  uint(status) == users[msg.sender].status */\n      eq\n        /* \"contracts/AuthService.sol\":1592:1653  require(uint(status) == users[msg.sender].status,\"Forbidden\") */\n      tag_375\n      jumpi\n      mload(0x40)\n      0x08c379a000000000000000000000000000000000000000000000000000000000\n      dup2\n      mstore\n      0x04\n      add\n      tag_376\n      swap1\n      tag_117\n      jump\t// in\n    tag_376:\n      mload(0x40)\n      dup1\n      swap2\n      sub\n      swap1\n      revert\n    tag_375:\n        /* \"contracts/Shops.sol\":7929:7946  Request memory rq */\n      0x00\n        /* \"contracts/Shops.sol\":7949:8080  Request(... */\n      mload(0x40)\n      dup1\n      0x80\n      add\n      0x40\n      mstore\n      dup1\n        /* \"contracts/Shops.sol\":7970:7980  msg.sender */\n      caller\n        /* \"contracts/Shops.sol\":7949:8080  Request(... */\n      0xffffffffffffffffffffffffffffffffffffffff\n      and\n      dup2\n      mstore\n      0x20\n      add\n        /* \"contracts/Shops.sol\":7999:8015  UserRoles.seller */\n      0x01\n        /* \"contracts/Shops.sol\":7994:8016  uint(UserRoles.seller) */\n      0x05\n      dup2\n      gt\n      iszero\n      tag_378\n      jumpi\n      tag_379\n      tag_114\n      jump\t// in\n    tag_379:\n    tag_378:\n        /* \"contracts/Shops.sol\":7949:8080  Request(... */\n      dup2\n      mstore\n      0x20\n      add\n        /* \"contracts/Shops.sol\":8035:8050  UserRoles.buyer */\n      0x00\n        /* \"contracts/Shops.sol\":8030:8051  uint(UserRoles.buyer) */\n      0x05\n      dup2\n      gt\n      iszero\n      tag_380\n      jumpi\n      tag_381\n      tag_114\n      jump\t// in\n    tag_381:\n    tag_380:\n        /* \"contracts/Shops.sol\":7949:8080  Request(... */\n      dup2\n      mstore\n      0x20\n      add\n        /* \"contracts/Shops.sol\":8065:8070  false */\n      0x00\n        /* \"contracts/Shops.sol\":7949:8080  Request(... */\n      iszero\n      iszero\n      dup2\n      mstore\n      pop\n        /* \"contracts/Shops.sol\":7929:8080  Request memory rq = Request(... */\n      swap1\n      pop\n        /* \"contracts/Shops.sol\":8106:8108  rq */\n      dup1\n        /* \"contracts/Shops.sol\":8090:8099  requestId */\n      0x10\n        /* \"contracts/Shops.sol\":8100:8102  id */\n      dup5\n        /* \"contracts/Shops.sol\":8090:8103  requestId[id] */\n      mload(0x40)\n      tag_382\n      swap2\n      swap1\n      tag_155\n      jump\t// in\n    tag_382:\n      swap1\n      dup2\n      mstore\n      0x20\n      add\n      mload(0x40)\n      dup1\n      swap2\n      sub\n      swap1\n      keccak256\n        /* \"contracts/Shops.sol\":8090:8108  requestId[id] = rq */\n      0x00\n      dup3\n      add\n      mload\n      dup2\n      0x00\n      add\n      exp(0x0100, 0x00)\n      dup2\n      sload\n      dup2\n      0xffffffffffffffffffffffffffffffffffffffff\n      mul\n      not\n      and\n      swap1\n      dup4\n      0xffffffffffffffffffffffffffffffffffffffff\n      and\n      mul\n      or\n      swap1\n      sstore\n      pop\n      0x20\n      dup3\n      add\n      mload\n      dup2\n      0x01\n      add\n      sstore\n      0x40\n      dup3\n      add\n      mload\n      dup2\n      0x02\n      add\n      sstore\n      0x60\n      dup3\n      add\n      mload\n      dup2\n      0x03\n      add\n      exp(0x0100, 0x00)\n      dup2\n      sload\n      dup2\n      0xff\n      mul\n      not\n      and\n      swap1\n      dup4\n      iszero\n      iszero\n      mul\n      or\n      swap1\n      sstore\n      pop\n      swap1\n      pop\n      pop\n        /* \"contracts/Shops.sol\":8118:8126  requests */\n      0x0a\n        /* \"contracts/Shops.sol\":8132:8134  id */\n      dup4\n        /* \"contracts/Shops.sol\":8118:8135  requests.push(id) */\n      swap1\n      dup1\n      0x01\n      dup2\n      sload\n      add\n      dup1\n      dup3\n      sstore\n      dup1\n      swap2\n      pop\n      pop\n      0x01\n      swap1\n      sub\n      swap1\n      0x00\n      mstore\n      keccak256(0x00, 0x20)\n      add\n      0x00\n      swap1\n      swap2\n      swap1\n      swap2\n      swap1\n      swap2\n      pop\n      swap1\n      dup1\n      mload\n      swap1\n      0x20\n      add\n      swap1\n      tag_384\n      swap3\n      swap2\n      swap1\n      tag_181\n      jump\t// in\n    tag_384:\n      pop\n        /* \"contracts/Shops.sol\":7919:8142  {... */\n      pop\n        /* \"contracts/Shops.sol\":7837:8142  function downRequestToByer(string memory id) public isUserStatus(UserRoles.seller){... */\n      pop\n      pop\n      jump\t// out\n        /* \"contracts/Shops.sol\":6792:7031  function disLikeReview(string memory id) public isUser {... */\n    tag_97:\n        /* \"contracts/AuthService.sol\":1464:1503  compare(users[msg.sender].userLogin,\"\") */\n      tag_386\n        /* \"contracts/AuthService.sol\":1472:1477  users */\n      0x02\n        /* \"contracts/AuthService.sol\":1472:1489  users[msg.sender] */\n      0x00\n        /* \"contracts/AuthService.sol\":1478:1488  msg.sender */\n      caller\n        /* \"contracts/AuthService.sol\":1472:1489  users[msg.sender] */\n      0xffffffffffffffffffffffffffffffffffffffff\n      and\n      0xffffffffffffffffffffffffffffffffffffffff\n      and\n      dup2\n      mstore\n      0x20\n      add\n      swap1\n      dup2\n      mstore\n      0x20\n      add\n      0x00\n      keccak256\n        /* \"contracts/AuthService.sol\":1472:1499  users[msg.sender].userLogin */\n      0x01\n      add\n        /* \"contracts/AuthService.sol\":1464:1503  compare(users[msg.sender].userLogin,\"\") */\n      dup1\n      sload\n      tag_387\n      swap1\n      tag_120\n      jump\t// in\n    tag_387:\n      dup1\n      0x1f\n      add\n      0x20\n      dup1\n      swap2\n      div\n      mul\n      0x20\n      add\n      mload(0x40)\n      swap1\n      dup2\n      add\n      0x40\n      mstore\n      dup1\n      swap3\n      swap2\n      swap1\n      dup2\n      dup2\n      mstore\n      0x20\n      add\n      dup3\n      dup1\n      sload\n      tag_388\n      swap1\n      tag_120\n      jump\t// in\n    tag_388:\n      dup1\n      iszero\n      tag_389\n      jumpi\n      dup1\n      0x1f\n      lt\n      tag_390\n      jumpi\n      0x0100\n      dup1\n      dup4\n      sload\n      div\n      mul\n      dup4\n      mstore\n      swap2\n      0x20\n      add\n      swap2\n      jump(tag_389)\n    tag_390:\n      dup3\n      add\n      swap2\n      swap1\n      0x00\n      mstore\n      keccak256(0x00, 0x20)\n      swap1\n    tag_391:\n      dup2\n      sload\n      dup2\n      mstore\n      swap1\n      0x01\n      add\n      swap1\n      0x20\n      add\n      dup1\n      dup4\n      gt\n      tag_391\n      jumpi\n      dup3\n      swap1\n      sub\n      0x1f\n      and\n      dup3\n      add\n      swap2\n    tag_389:\n      pop\n      pop\n      pop\n      pop\n      pop\n      mload(0x40)\n      dup1\n      0x20\n      add\n      0x40\n      mstore\n      dup1\n      0x00\n      dup2\n      mstore\n      pop\n        /* \"contracts/AuthService.sol\":1464:1471  compare */\n      tag_174\n        /* \"contracts/AuthService.sol\":1464:1503  compare(users[msg.sender].userLogin,\"\") */\n      jump\t// in\n    tag_386:\n        /* \"contracts/AuthService.sol\":1463:1503  !compare(users[msg.sender].userLogin,\"\") */\n      iszero\n        /* \"contracts/AuthService.sol\":1455:1519  require(!compare(users[msg.sender].userLogin,\"\"),\"You not user\") */\n      tag_392\n      jumpi\n      mload(0x40)\n      0x08c379a000000000000000000000000000000000000000000000000000000000\n      dup2\n      mstore\n      0x04\n      add\n      tag_393\n      swap1\n      tag_177\n      jump\t// in\n    tag_393:\n      mload(0x40)\n      dup1\n      swap2\n      sub\n      swap1\n      revert\n    tag_392:\n        /* \"contracts/Shops.sol\":6894:6899  false */\n      0x00\n        /* \"contracts/Shops.sol\":6865:6899  reviewCom[id][msg.sender] == false */\n      iszero\n      iszero\n        /* \"contracts/Shops.sol\":6865:6874  reviewCom */\n      0x11\n        /* \"contracts/Shops.sol\":6875:6877  id */\n      dup3\n        /* \"contracts/Shops.sol\":6865:6878  reviewCom[id] */\n      mload(0x40)\n      tag_395\n      swap2\n      swap1\n      tag_155\n      jump\t// in\n    tag_395:\n      swap1\n      dup2\n      mstore\n      0x20\n      add\n      mload(0x40)\n      dup1\n      swap2\n      sub\n      swap1\n      keccak256\n        /* \"contracts/Shops.sol\":6865:6890  reviewCom[id][msg.sender] */\n      0x00\n        /* \"contracts/Shops.sol\":6879:6889  msg.sender */\n      caller\n        /* \"contracts/Shops.sol\":6865:6890  reviewCom[id][msg.sender] */\n      0xffffffffffffffffffffffffffffffffffffffff\n      and\n      0xffffffffffffffffffffffffffffffffffffffff\n      and\n      dup2\n      mstore\n      0x20\n      add\n      swap1\n      dup2\n      mstore\n      0x20\n      add\n      0x00\n      keccak256\n      0x00\n      swap1\n      sload\n      swap1\n      0x0100\n      exp\n      swap1\n      div\n      0xff\n      and\n        /* \"contracts/Shops.sol\":6865:6899  reviewCom[id][msg.sender] == false */\n      iszero\n      iszero\n      eq\n        /* \"contracts/Shops.sol\":6857:6930  require(reviewCom[id][msg.sender] == false,\"You already check this case\") */\n      tag_396\n      jumpi\n      mload(0x40)\n      0x08c379a000000000000000000000000000000000000000000000000000000000\n      dup2\n      mstore\n      0x04\n      add\n      tag_397\n      swap1\n      tag_288\n      jump\t// in\n    tag_397:\n      mload(0x40)\n      dup1\n      swap2\n      sub\n      swap1\n      revert\n    tag_396:\n        /* \"contracts/Shops.sol\":6940:6948  reviewId */\n      0x0f\n        /* \"contracts/Shops.sol\":6949:6951  id */\n      dup2\n        /* \"contracts/Shops.sol\":6940:6952  reviewId[id] */\n      mload(0x40)\n      tag_398\n      swap2\n      swap1\n      tag_155\n      jump\t// in\n    tag_398:\n      swap1\n      dup2\n      mstore\n      0x20\n      add\n      mload(0x40)\n      dup1\n      swap2\n      sub\n      swap1\n      keccak256\n        /* \"contracts/Shops.sol\":6940:6965  reviewId[id].disLikeCount */\n      0x04\n      add\n        /* \"contracts/Shops.sol\":6971:6981  msg.sender */\n      caller\n        /* \"contracts/Shops.sol\":6940:6982  reviewId[id].disLikeCount.push(msg.sender) */\n      swap1\n      dup1\n      0x01\n      dup2\n      sload\n      add\n      dup1\n      dup3\n      sstore\n      dup1\n      swap2\n      pop\n      pop\n      0x01\n      swap1\n      sub\n      swap1\n      0x00\n      mstore\n      keccak256(0x00, 0x20)\n      add\n      0x00\n      swap1\n      swap2\n      swap1\n      swap2\n      swap1\n      swap2\n      0x0100\n      exp\n      dup2\n      sload\n      dup2\n      0xffffffffffffffffffffffffffffffffffffffff\n      mul\n      not\n      and\n      swap1\n      dup4\n      0xffffffffffffffffffffffffffffffffffffffff\n      and\n      mul\n      or\n      swap1\n      sstore\n      pop\n        /* \"contracts/Shops.sol\":7020:7024  true */\n      0x01\n        /* \"contracts/Shops.sol\":6992:7001  reviewCom */\n      0x11\n        /* \"contracts/Shops.sol\":7002:7004  id */\n      dup3\n        /* \"contracts/Shops.sol\":6992:7005  reviewCom[id] */\n      mload(0x40)\n      tag_400\n      swap2\n      swap1\n      tag_155\n      jump\t// in\n    tag_400:\n      swap1\n      dup2\n      mstore\n      0x20\n      add\n      mload(0x40)\n      dup1\n      swap2\n      sub\n      swap1\n      keccak256\n        /* \"contracts/Shops.sol\":6992:7017  reviewCom[id][msg.sender] */\n      0x00\n        /* \"contracts/Shops.sol\":7006:7016  msg.sender */\n      caller\n        /* \"contracts/Shops.sol\":6992:7017  reviewCom[id][msg.sender] */\n      0xffffffffffffffffffffffffffffffffffffffff\n      and\n      0xffffffffffffffffffffffffffffffffffffffff\n      and\n      dup2\n      mstore\n      0x20\n      add\n      swap1\n      dup2\n      mstore\n      0x20\n      add\n      0x00\n      keccak256\n      0x00\n        /* \"contracts/Shops.sol\":6992:7024  reviewCom[id][msg.sender] = true */\n      0x0100\n      exp\n      dup2\n      sload\n      dup2\n      0xff\n      mul\n      not\n      and\n      swap1\n      dup4\n      iszero\n      iszero\n      mul\n      or\n      swap1\n      sstore\n      pop\n        /* \"contracts/Shops.sol\":6792:7031  function disLikeReview(string memory id) public isUser {... */\n      pop\n      jump\t// out\n        /* \"contracts/Shops.sol\":4979:5377  function getAdminInfo() public view isUserStatus(UserRoles.admin) returns(... */\n    tag_99:\n        /* \"contracts/Shops.sol\":5062:5081  string memory login */\n      0x60\n        /* \"contracts/Shops.sol\":5091:5119  string[] memory userRequests */\n      dup1\n        /* \"contracts/Shops.sol\":5129:5154  string[] memory adminList */\n      0x60\n        /* \"contracts/Shops.sol\":5164:5192  address[] memory sellersAddr */\n      dup1\n        /* \"contracts/Shops.sol\":5028:5043  UserRoles.admin */\n      0x03\n        /* \"contracts/AuthService.sol\":1616:1621  users */\n      0x02\n        /* \"contracts/AuthService.sol\":1616:1633  users[msg.sender] */\n      0x00\n        /* \"contracts/AuthService.sol\":1622:1632  msg.sender */\n      caller\n        /* \"contracts/AuthService.sol\":1616:1633  users[msg.sender] */\n      0xffffffffffffffffffffffffffffffffffffffff\n      and\n      0xffffffffffffffffffffffffffffffffffffffff\n      and\n      dup2\n      mstore\n      0x20\n      add\n      swap1\n      dup2\n      mstore\n      0x20\n      add\n      0x00\n      keccak256\n        /* \"contracts/AuthService.sol\":1616:1640  users[msg.sender].status */\n      0x00\n      add\n      sload\n        /* \"contracts/AuthService.sol\":1605:1611  status */\n      dup2\n        /* \"contracts/AuthService.sol\":1600:1612  uint(status) */\n      0x05\n      dup2\n      gt\n      iszero\n      tag_402\n      jumpi\n      tag_403\n      tag_114\n      jump\t// in\n    tag_403:\n    tag_402:\n        /* \"contracts/AuthService.sol\":1600:1640  uint(status) == users[msg.sender].status */\n      eq\n        /* \"contracts/AuthService.sol\":1592:1653  require(uint(status) == users[msg.sender].status,\"Forbidden\") */\n      tag_404\n      jumpi\n      mload(0x40)\n      0x08c379a000000000000000000000000000000000000000000000000000000000\n      dup2\n      mstore\n      0x04\n      add\n      tag_405\n      swap1\n      tag_117\n      jump\t// in\n    tag_405:\n      mload(0x40)\n      dup1\n      swap2\n      sub\n      swap1\n      revert\n    tag_404:\n        /* \"contracts/Shops.sol\":5209:5225  User memory user */\n      0x00\n        /* \"contracts/Shops.sol\":5228:5233  users */\n      0x02\n        /* \"contracts/Shops.sol\":5228:5245  users[msg.sender] */\n      0x00\n        /* \"contracts/Shops.sol\":5234:5244  msg.sender */\n      caller\n        /* \"contracts/Shops.sol\":5228:5245  users[msg.sender] */\n      0xffffffffffffffffffffffffffffffffffffffff\n      and\n      0xffffffffffffffffffffffffffffffffffffffff\n      and\n      dup2\n      mstore\n      0x20\n      add\n      swap1\n      dup2\n      mstore\n      0x20\n      add\n      0x00\n      keccak256\n        /* \"contracts/Shops.sol\":5209:5245  User memory user = users[msg.sender] */\n      mload(0x40)\n      dup1\n      0x80\n      add\n      0x40\n      mstore\n      swap1\n      dup2\n      0x00\n      dup3\n      add\n      sload\n      dup2\n      mstore\n      0x20\n      add\n      0x01\n      dup3\n      add\n      dup1\n      sload\n      tag_407\n      swap1\n      tag_120\n      jump\t// in\n    tag_407:\n      dup1\n      0x1f\n      add\n      0x20\n      dup1\n      swap2\n      div\n      mul\n      0x20\n      add\n      mload(0x40)\n      swap1\n      dup2\n      add\n      0x40\n      mstore\n      dup1\n      swap3\n      swap2\n      swap1\n      dup2\n      dup2\n      mstore\n      0x20\n      add\n      dup3\n      dup1\n      sload\n      tag_408\n      swap1\n      tag_120\n      jump\t// in\n    tag_408:\n      dup1\n      iszero\n      tag_409\n      jumpi\n      dup1\n      0x1f\n      lt\n      tag_410\n      jumpi\n      0x0100\n      dup1\n      dup4\n      sload\n      div\n      mul\n      dup4\n      mstore\n      swap2\n      0x20\n      add\n      swap2\n      jump(tag_409)\n    tag_410:\n      dup3\n      add\n      swap2\n      swap1\n      0x00\n      mstore\n      keccak256(0x00, 0x20)\n      swap1\n    tag_411:\n      dup2\n      sload\n      dup2\n      mstore\n      swap1\n      0x01\n      add\n      swap1\n      0x20\n      add\n      dup1\n      dup4\n      gt\n      tag_411\n      jumpi\n      dup3\n      swap1\n      sub\n      0x1f\n      and\n      dup3\n      add\n      swap2\n    tag_409:\n      pop\n      pop\n      pop\n      pop\n      pop\n      dup2\n      mstore\n      0x20\n      add\n      0x02\n      dup3\n      add\n      dup1\n      sload\n      tag_412\n      swap1\n      tag_120\n      jump\t// in\n    tag_412:\n      dup1\n      0x1f\n      add\n      0x20\n      dup1\n      swap2\n      div\n      mul\n      0x20\n      add\n      mload(0x40)\n      swap1\n      dup2\n      add\n      0x40\n      mstore\n      dup1\n      swap3\n      swap2\n      swap1\n      dup2\n      dup2\n      mstore\n      0x20\n      add\n      dup3\n      dup1\n      sload\n      tag_413\n      swap1\n      tag_120\n      jump\t// in\n    tag_413:\n      dup1\n      iszero\n      tag_414\n      jumpi\n      dup1\n      0x1f\n      lt\n      tag_415\n      jumpi\n      0x0100\n      dup1\n      dup4\n      sload\n      div\n      mul\n      dup4\n      mstore\n      swap2\n      0x20\n      add\n      swap2\n      jump(tag_414)\n    tag_415:\n      dup3\n      add\n      swap2\n      swap1\n      0x00\n      mstore\n      keccak256(0x00, 0x20)\n      swap1\n    tag_416:\n      dup2\n      sload\n      dup2\n      mstore\n      swap1\n      0x01\n      add\n      swap1\n      0x20\n      add\n      dup1\n      dup4\n      gt\n      tag_416\n      jumpi\n      dup3\n      swap1\n      sub\n      0x1f\n      and\n      dup3\n      add\n      swap2\n    tag_414:\n      pop\n      pop\n      pop\n      pop\n      pop\n      dup2\n      mstore\n      0x20\n      add\n      0x03\n      dup3\n      add\n      dup1\n      sload\n      dup1\n      0x20\n      mul\n      0x20\n      add\n      mload(0x40)\n      swap1\n      dup2\n      add\n      0x40\n      mstore\n      dup1\n      swap3\n      swap2\n      swap1\n      dup2\n      dup2\n      mstore\n      0x20\n      add\n      0x00\n      swap1\n    tag_417:\n      dup3\n      dup3\n      lt\n      iszero\n      tag_418\n      jumpi\n      dup4\n      dup3\n      swap1\n      0x00\n      mstore\n      keccak256(0x00, 0x20)\n      add\n      dup1\n      sload\n      tag_420\n      swap1\n      tag_120\n      jump\t// in\n    tag_420:\n      dup1\n      0x1f\n      add\n      0x20\n      dup1\n      swap2\n      div\n      mul\n      0x20\n      add\n      mload(0x40)\n      swap1\n      dup2\n      add\n      0x40\n      mstore\n      dup1\n      swap3\n      swap2\n      swap1\n      dup2\n      dup2\n      mstore\n      0x20\n      add\n      dup3\n      dup1\n      sload\n      tag_421\n      swap1\n      tag_120\n      jump\t// in\n    tag_421:\n      dup1\n      iszero\n      tag_422\n      jumpi\n      dup1\n      0x1f\n      lt\n      tag_423\n      jumpi\n      0x0100\n      dup1\n      dup4\n      sload\n      div\n      mul\n      dup4\n      mstore\n      swap2\n      0x20\n      add\n      swap2\n      jump(tag_422)\n    tag_423:\n      dup3\n      add\n      swap2\n      swap1\n      0x00\n      mstore\n      keccak256(0x00, 0x20)\n      swap1\n    tag_424:\n      dup2\n      sload\n      dup2\n      mstore\n      swap1\n      0x01\n      add\n      swap1\n      0x20\n      add\n      dup1\n      dup4\n      gt\n      tag_424\n      jumpi\n      dup3\n      swap1\n      sub\n      0x1f\n      and\n      dup3\n      add\n      swap2\n    tag_422:\n      pop\n      pop\n      pop\n      pop\n      pop\n      dup2\n      mstore\n      0x20\n      add\n      swap1\n      0x01\n      add\n      swap1\n      jump(tag_417)\n    tag_418:\n      pop\n      pop\n      pop\n      pop\n      dup2\n      mstore\n      pop\n      pop\n      swap1\n      pop\n        /* \"contracts/Shops.sol\":5264:5268  user */\n      dup1\n        /* \"contracts/Shops.sol\":5264:5278  user.userLogin */\n      0x20\n      add\n      mload\n        /* \"contracts/Shops.sol\":5256:5278  login = user.userLogin */\n      swap6\n      pop\n        /* \"contracts/Shops.sol\":5303:5311  requests */\n      0x0a\n        /* \"contracts/Shops.sol\":5288:5311  userRequests = requests */\n      dup1\n      sload\n      dup1\n      0x20\n      mul\n      0x20\n      add\n      mload(0x40)\n      swap1\n      dup2\n      add\n      0x40\n      mstore\n      dup1\n      swap3\n      swap2\n      swap1\n      dup2\n      dup2\n      mstore\n      0x20\n      add\n      0x00\n      swap1\n    tag_425:\n      dup3\n      dup3\n      lt\n      iszero\n      tag_426\n      jumpi\n      dup4\n      dup3\n      swap1\n      0x00\n      mstore\n      keccak256(0x00, 0x20)\n      add\n      dup1\n      sload\n      tag_428\n      swap1\n      tag_120\n      jump\t// in\n    tag_428:\n      dup1\n      0x1f\n      add\n      0x20\n      dup1\n      swap2\n      div\n      mul\n      0x20\n      add\n      mload(0x40)\n      swap1\n      dup2\n      add\n      0x40\n      mstore\n      dup1\n      swap3\n      swap2\n      swap1\n      dup2\n      dup2\n      mstore\n      0x20\n      add\n      dup3\n      dup1\n      sload\n      tag_429\n      swap1\n      tag_120\n      jump\t// in\n    tag_429:\n      dup1\n      iszero\n      tag_430\n      jumpi\n      dup1\n      0x1f\n      lt\n      tag_431\n      jumpi\n      0x0100\n      dup1\n      dup4\n      sload\n      div\n      mul\n      dup4\n      mstore\n      swap2\n      0x20\n      add\n      swap2\n      jump(tag_430)\n    tag_431:\n      dup3\n      add\n      swap2\n      swap1\n      0x00\n      mstore\n      keccak256(0x00, 0x20)\n      swap1\n    tag_432:\n      dup2\n      sload\n      dup2\n      mstore\n      swap1\n      0x01\n      add\n      swap1\n      0x20\n      add\n      dup1\n      dup4\n      gt\n      tag_432\n      jumpi\n      dup3\n      swap1\n      sub\n      0x1f\n      and\n      dup3\n      add\n      swap2\n    tag_430:\n      pop\n      pop\n      pop\n      pop\n      pop\n      dup2\n      mstore\n      0x20\n      add\n      swap1\n      0x01\n      add\n      swap1\n      jump(tag_425)\n    tag_426:\n      pop\n      pop\n      pop\n      pop\n      swap5\n      pop\n        /* \"contracts/Shops.sol\":5333:5339  admins */\n      0x06\n        /* \"contracts/Shops.sol\":5321:5339  adminList = admins */\n      dup1\n      sload\n      dup1\n      0x20\n      mul\n      0x20\n      add\n      mload(0x40)\n      swap1\n      dup2\n      add\n      0x40\n      mstore\n      dup1\n      swap3\n      swap2\n      swap1\n      dup2\n      dup2\n      mstore\n      0x20\n      add\n      0x00\n      swap1\n    tag_433:\n      dup3\n      dup3\n      lt\n      iszero\n      tag_434\n      jumpi\n      dup4\n      dup3\n      swap1\n      0x00\n      mstore\n      keccak256(0x00, 0x20)\n      add\n      dup1\n      sload\n      tag_436\n      swap1\n      tag_120\n      jump\t// in\n    tag_436:\n      dup1\n      0x1f\n      add\n      0x20\n      dup1\n      swap2\n      div\n      mul\n      0x20\n      add\n      mload(0x40)\n      swap1\n      dup2\n      add\n      0x40\n      mstore\n      dup1\n      swap3\n      swap2\n      swap1\n      dup2\n      dup2\n      mstore\n      0x20\n      add\n      dup3\n      dup1\n      sload\n      tag_437\n      swap1\n      tag_120\n      jump\t// in\n    tag_437:\n      dup1\n      iszero\n      tag_438\n      jumpi\n      dup1\n      0x1f\n      lt\n      tag_439\n      jumpi\n      0x0100\n      dup1\n      dup4\n      sload\n      div\n      mul\n      dup4\n      mstore\n      swap2\n      0x20\n      add\n      swap2\n      jump(tag_438)\n    tag_439:\n      dup3\n      add\n      swap2\n      swap1\n      0x00\n      mstore\n      keccak256(0x00, 0x20)\n      swap1\n    tag_440:\n      dup2\n      sload\n      dup2\n      mstore\n      swap1\n      0x01\n      add\n      swap1\n      0x20\n      add\n      dup1\n      dup4\n      gt\n      tag_440\n      jumpi\n      dup3\n      swap1\n      sub\n      0x1f\n      and\n      dup3\n      add\n      swap2\n    tag_438:\n      pop\n      pop\n      pop\n      pop\n      pop\n      dup2\n      mstore\n      0x20\n      add\n      swap1\n      0x01\n      add\n      swap1\n      jump(tag_433)\n    tag_434:\n      pop\n      pop\n      pop\n      pop\n      swap4\n      pop\n        /* \"contracts/Shops.sol\":5363:5370  sellers */\n      0x08\n        /* \"contracts/Shops.sol\":5349:5370  sellersAddr = sellers */\n      dup1\n      sload\n      dup1\n      0x20\n      mul\n      0x20\n      add\n      mload(0x40)\n      swap1\n      dup2\n      add\n      0x40\n      mstore\n      dup1\n      swap3\n      swap2\n      swap1\n      dup2\n      dup2\n      mstore\n      0x20\n      add\n      dup3\n      dup1\n      sload\n      dup1\n      iszero\n      tag_441\n      jumpi\n      0x20\n      mul\n      dup3\n      add\n      swap2\n      swap1\n      0x00\n      mstore\n      keccak256(0x00, 0x20)\n      swap1\n    tag_442:\n      dup2\n      0x00\n      swap1\n      sload\n      swap1\n      0x0100\n      exp\n      swap1\n      div\n      0xffffffffffffffffffffffffffffffffffffffff\n      and\n      0xffffffffffffffffffffffffffffffffffffffff\n      and\n      dup2\n      mstore\n      0x20\n      add\n      swap1\n      0x01\n      add\n      swap1\n      dup1\n      dup4\n      gt\n      tag_442\n      jumpi\n    tag_441:\n      pop\n      pop\n      pop\n      pop\n      pop\n      swap3\n      pop\n        /* \"contracts/Shops.sol\":5199:5377  {... */\n      pop\n        /* \"contracts/Shops.sol\":4979:5377  function getAdminInfo() public view isUserStatus(UserRoles.admin) returns(... */\n      pop\n      swap1\n      swap2\n      swap3\n      swap4\n      jump\t// out\n        /* \"contracts/Shops.sol\":8456:8801  function getRequestById(string memory id) public view returns(... */\n    tag_104:\n        /* \"contracts/Shops.sol\":8527:8543  address userAddr */\n      0x00\n        /* \"contracts/Shops.sol\":8553:8578  string memory currentRole */\n      0x60\n        /* \"contracts/Shops.sol\":8588:8613  string memory desiredRole */\n      dup1\n        /* \"contracts/Shops.sol\":8629:8646  Request memory rq */\n      0x00\n        /* \"contracts/Shops.sol\":8649:8658  requestId */\n      0x10\n        /* \"contracts/Shops.sol\":8659:8661  id */\n      dup6\n        /* \"contracts/Shops.sol\":8649:8662  requestId[id] */\n      mload(0x40)\n      tag_444\n      swap2\n      swap1\n      tag_155\n      jump\t// in\n    tag_444:\n      swap1\n      dup2\n      mstore\n      0x20\n      add\n      mload(0x40)\n      dup1\n      swap2\n      sub\n      swap1\n      keccak256\n        /* \"contracts/Shops.sol\":8629:8662  Request memory rq = requestId[id] */\n      mload(0x40)\n      dup1\n      0x80\n      add\n      0x40\n      mstore\n      swap1\n      dup2\n      0x00\n      dup3\n      add\n      0x00\n      swap1\n      sload\n      swap1\n      0x0100\n      exp\n      swap1\n      div\n      0xffffffffffffffffffffffffffffffffffffffff\n      and\n      0xffffffffffffffffffffffffffffffffffffffff\n      and\n      0xffffffffffffffffffffffffffffffffffffffff\n      and\n      dup2\n      mstore\n      0x20\n      add\n      0x01\n      dup3\n      add\n      sload\n      dup2\n      mstore\n      0x20\n      add\n      0x02\n      dup3\n      add\n      sload\n      dup2\n      mstore\n      0x20\n      add\n      0x03\n      dup3\n      add\n      0x00\n      swap1\n      sload\n      swap1\n      0x0100\n      exp\n      swap1\n      div\n      0xff\n      and\n      iszero\n      iszero\n      iszero\n      iszero\n      dup2\n      mstore\n      pop\n      pop\n      swap1\n      pop\n        /* \"contracts/Shops.sol\":8683:8685  rq */\n      dup1\n        /* \"contracts/Shops.sol\":8683:8694  rq.userAddr */\n      0x00\n      add\n      mload\n        /* \"contracts/Shops.sol\":8672:8694  userAddr = rq.userAddr */\n      swap4\n      pop\n        /* \"contracts/Shops.sol\":8718:8728  userStatus */\n      0x00\n        /* \"contracts/Shops.sol\":8718:8744  userStatus[rq.currentRole] */\n      dup1\n        /* \"contracts/Shops.sol\":8729:8731  rq */\n      dup3\n        /* \"contracts/Shops.sol\":8729:8743  rq.currentRole */\n      0x20\n      add\n      mload\n        /* \"contracts/Shops.sol\":8718:8744  userStatus[rq.currentRole] */\n      dup2\n      mstore\n      0x20\n      add\n      swap1\n      dup2\n      mstore\n      0x20\n      add\n      0x00\n      keccak256\n        /* \"contracts/Shops.sol\":8704:8744  currentRole = userStatus[rq.currentRole] */\n      dup1\n      sload\n      tag_445\n      swap1\n      tag_120\n      jump\t// in\n    tag_445:\n      dup1\n      0x1f\n      add\n      0x20\n      dup1\n      swap2\n      div\n      mul\n      0x20\n      add\n      mload(0x40)\n      swap1\n      dup2\n      add\n      0x40\n      mstore\n      dup1\n      swap3\n      swap2\n      swap1\n      dup2\n      dup2\n      mstore\n      0x20\n      add\n      dup3\n      dup1\n      sload\n      tag_446\n      swap1\n      tag_120\n      jump\t// in\n    tag_446:\n      dup1\n      iszero\n      tag_447\n      jumpi\n      dup1\n      0x1f\n      lt\n      tag_448\n      jumpi\n      0x0100\n      dup1\n      dup4\n      sload\n      div\n      mul\n      dup4\n      mstore\n      swap2\n      0x20\n      add\n      swap2\n      jump(tag_447)\n    tag_448:\n      dup3\n      add\n      swap2\n      swap1\n      0x00\n      mstore\n      keccak256(0x00, 0x20)\n      swap1\n    tag_449:\n      dup2\n      sload\n      dup2\n      mstore\n      swap1\n      0x01\n      add\n      swap1\n      0x20\n      add\n      dup1\n      dup4\n      gt\n      tag_449\n      jumpi\n      dup3\n      swap1\n      sub\n      0x1f\n      and\n      dup3\n      add\n      swap2\n    tag_447:\n      pop\n      pop\n      pop\n      pop\n      pop\n      swap3\n      pop\n        /* \"contracts/Shops.sol\":8768:8778  userStatus */\n      0x00\n        /* \"contracts/Shops.sol\":8768:8794  userStatus[rq.desiredRole] */\n      dup1\n        /* \"contracts/Shops.sol\":8779:8781  rq */\n      dup3\n        /* \"contracts/Shops.sol\":8779:8793  rq.desiredRole */\n      0x40\n      add\n      mload\n        /* \"contracts/Shops.sol\":8768:8794  userStatus[rq.desiredRole] */\n      dup2\n      mstore\n      0x20\n      add\n      swap1\n      dup2\n      mstore\n      0x20\n      add\n      0x00\n      keccak256\n        /* \"contracts/Shops.sol\":8754:8794  desiredRole = userStatus[rq.desiredRole] */\n      dup1\n      sload\n      tag_450\n      swap1\n      tag_120\n      jump\t// in\n    tag_450:\n      dup1\n      0x1f\n      add\n      0x20\n      dup1\n      swap2\n      div\n      mul\n      0x20\n      add\n      mload(0x40)\n      swap1\n      dup2\n      add\n      0x40\n      mstore\n      dup1\n      swap3\n      swap2\n      swap1\n      dup2\n      dup2\n      mstore\n      0x20\n      add\n      dup3\n      dup1\n      sload\n      tag_451\n      swap1\n      tag_120\n      jump\t// in\n    tag_451:\n      dup1\n      iszero\n      tag_452\n      jumpi\n      dup1\n      0x1f\n      lt\n      tag_453\n      jumpi\n      0x0100\n      dup1\n      dup4\n      sload\n      div\n      mul\n      dup4\n      mstore\n      swap2\n      0x20\n      add\n      swap2\n      jump(tag_452)\n    tag_453:\n      dup3\n      add\n      swap2\n      swap1\n      0x00\n      mstore\n      keccak256(0x00, 0x20)\n      swap1\n    tag_454:\n      dup2\n      sload\n      dup2\n      mstore\n      swap1\n      0x01\n      add\n      swap1\n      0x20\n      add\n      dup1\n      dup4\n      gt\n      tag_454\n      jumpi\n      dup3\n      swap1\n      sub\n      0x1f\n      and\n      dup3\n      add\n      swap2\n    tag_452:\n      pop\n      pop\n      pop\n      pop\n      pop\n      swap2\n      pop\n        /* \"contracts/Shops.sol\":8619:8801  {... */\n      pop\n        /* \"contracts/Shops.sol\":8456:8801  function getRequestById(string memory id) public view returns(... */\n      swap2\n      swap4\n      swap1\n      swap3\n      pop\n      jump\t// out\n        /* \"contracts/Shops.sol\":1254:1479  function registerAdmin(string memory fio,string memory userLogin) isAdmin public {... */\n    tag_110:\n        /* \"contracts/Shops.sol\":1096:1101  admin */\n      0x05\n      0x00\n      swap1\n      sload\n      swap1\n      0x0100\n      exp\n      swap1\n      div\n      0xffffffffffffffffffffffffffffffffffffffff\n      and\n        /* \"contracts/Shops.sol\":1082:1101  msg.sender == admin */\n      0xffffffffffffffffffffffffffffffffffffffff\n      and\n        /* \"contracts/Shops.sol\":1082:1092  msg.sender */\n      caller\n        /* \"contracts/Shops.sol\":1082:1101  msg.sender == admin */\n      0xffffffffffffffffffffffffffffffffffffffff\n      and\n      eq\n        /* \"contracts/Shops.sol\":1074:1118  require(msg.sender == admin,\"You not admin\") */\n      tag_456\n      jumpi\n      mload(0x40)\n      0x08c379a000000000000000000000000000000000000000000000000000000000\n      dup2\n      mstore\n      0x04\n      add\n      tag_457\n      swap1\n      tag_161\n      jump\t// in\n    tag_457:\n      mload(0x40)\n      dup1\n      swap2\n      sub\n      swap1\n      revert\n    tag_456:\n        /* \"contracts/Shops.sol\":1345:1356  uint status */\n      0x00\n        /* \"contracts/Shops.sol\":1364:1379  UserRoles.admin */\n      0x03\n        /* \"contracts/Shops.sol\":1359:1380  uint(UserRoles.admin) */\n      0x05\n      dup2\n      gt\n      iszero\n      tag_459\n      jumpi\n      tag_460\n      tag_114\n      jump\t// in\n    tag_460:\n    tag_459:\n        /* \"contracts/Shops.sol\":1345:1380  uint status = uint(UserRoles.admin) */\n      swap1\n      pop\n        /* \"contracts/Shops.sol\":1390:1440  registerFromAdmin(fio,userLogin,status,msg.sender) */\n      tag_461\n        /* \"contracts/Shops.sol\":1408:1411  fio */\n      dup4\n        /* \"contracts/Shops.sol\":1412:1421  userLogin */\n      dup4\n        /* \"contracts/Shops.sol\":1422:1428  status */\n      dup4\n        /* \"contracts/Shops.sol\":1429:1439  msg.sender */\n      caller\n        /* \"contracts/Shops.sol\":1390:1407  registerFromAdmin */\n      tag_166\n        /* \"contracts/Shops.sol\":1390:1440  registerFromAdmin(fio,userLogin,status,msg.sender) */\n      jump\t// in\n    tag_461:\n        /* \"contracts/Shops.sol\":1450:1456  admins */\n      0x06\n        /* \"contracts/Shops.sol\":1462:1471  userLogin */\n      dup3\n        /* \"contracts/Shops.sol\":1450:1472  admins.push(userLogin) */\n      swap1\n      dup1\n      0x01\n      dup2\n      sload\n      add\n      dup1\n      dup3\n      sstore\n      dup1\n      swap2\n      pop\n      pop\n      0x01\n      swap1\n      sub\n      swap1\n      0x00\n      mstore\n      keccak256(0x00, 0x20)\n      add\n      0x00\n      swap1\n      swap2\n      swap1\n      swap2\n      swap1\n      swap2\n      pop\n      swap1\n      dup1\n      mload\n      swap1\n      0x20\n      add\n      swap1\n      tag_463\n      swap3\n      swap2\n      swap1\n      tag_181\n      jump\t// in\n    tag_463:\n      pop\n        /* \"contracts/Shops.sol\":1335:1479  {... */\n      pop\n        /* \"contracts/Shops.sol\":1254:1479  function registerAdmin(string memory fio,string memory userLogin) isAdmin public {... */\n      pop\n      pop\n      jump\t// out\n        /* \"contracts/AuthService.sol\":1874:2249  function registerFromAdmin(string memory fio,string memory userLogin,uint status,address userAddress) internal isNotRegistered(userAddress,userLogin){... */\n    tag_166:\n        /* \"contracts/AuthService.sol\":2001:2012  userAddress */\n      dup1\n        /* \"contracts/AuthService.sol\":2013:2022  userLogin */\n      dup4\n        /* \"contracts/AuthService.sol\":1038:1072  compare(users[userAddress].fio,\"\") */\n      tag_465\n        /* \"contracts/AuthService.sol\":1046:1051  users */\n      0x02\n        /* \"contracts/AuthService.sol\":1046:1064  users[userAddress] */\n      0x00\n        /* \"contracts/AuthService.sol\":1052:1063  userAddress */\n      dup5\n        /* \"contracts/AuthService.sol\":1046:1064  users[userAddress] */\n      0xffffffffffffffffffffffffffffffffffffffff\n      and\n      0xffffffffffffffffffffffffffffffffffffffff\n      and\n      dup2\n      mstore\n      0x20\n      add\n      swap1\n      dup2\n      mstore\n      0x20\n      add\n      0x00\n      keccak256\n        /* \"contracts/AuthService.sol\":1046:1068  users[userAddress].fio */\n      0x02\n      add\n        /* \"contracts/AuthService.sol\":1038:1072  compare(users[userAddress].fio,\"\") */\n      dup1\n      sload\n      tag_466\n      swap1\n      tag_120\n      jump\t// in\n    tag_466:\n      dup1\n      0x1f\n      add\n      0x20\n      dup1\n      swap2\n      div\n      mul\n      0x20\n      add\n      mload(0x40)\n      swap1\n      dup2\n      add\n      0x40\n      mstore\n      dup1\n      swap3\n      swap2\n      swap1\n      dup2\n      dup2\n      mstore\n      0x20\n      add\n      dup3\n      dup1\n      sload\n      tag_467\n      swap1\n      tag_120\n      jump\t// in\n    tag_467:\n      dup1\n      iszero\n      tag_468\n      jumpi\n      dup1\n      0x1f\n      lt\n      tag_469\n      jumpi\n      0x0100\n      dup1\n      dup4\n      sload\n      div\n      mul\n      dup4\n      mstore\n      swap2\n      0x20\n      add\n      swap2\n      jump(tag_468)\n    tag_469:\n      dup3\n      add\n      swap2\n      swap1\n      0x00\n      mstore\n      keccak256(0x00, 0x20)\n      swap1\n    tag_470:\n      dup2\n      sload\n      dup2\n      mstore\n      swap1\n      0x01\n      add\n      swap1\n      0x20\n      add\n      dup1\n      dup4\n      gt\n      tag_470\n      jumpi\n      dup3\n      swap1\n      sub\n      0x1f\n      and\n      dup3\n      add\n      swap2\n    tag_468:\n      pop\n      pop\n      pop\n      pop\n      pop\n      mload(0x40)\n      dup1\n      0x20\n      add\n      0x40\n      mstore\n      dup1\n      0x00\n      dup2\n      mstore\n      pop\n        /* \"contracts/AuthService.sol\":1038:1045  compare */\n      tag_174\n        /* \"contracts/AuthService.sol\":1038:1072  compare(users[userAddress].fio,\"\") */\n      jump\t// in\n    tag_465:\n        /* \"contracts/AuthService.sol\":1030:1098  require(compare(users[userAddress].fio,\"\"),\"You already registered\") */\n      tag_471\n      jumpi\n      mload(0x40)\n      0x08c379a000000000000000000000000000000000000000000000000000000000\n      dup2\n      mstore\n      0x04\n      add\n      tag_472\n      swap1\n      tag_473\n      jump\t// in\n    tag_472:\n      mload(0x40)\n      dup1\n      swap2\n      sub\n      swap1\n      revert\n    tag_471:\n        /* \"contracts/AuthService.sol\":1149:1150  0 */\n      0x00\n        /* \"contracts/AuthService.sol\":1116:1151  userLogins[userLogin] == address(0) */\n      0xffffffffffffffffffffffffffffffffffffffff\n      and\n        /* \"contracts/AuthService.sol\":1116:1126  userLogins */\n      0x01\n        /* \"contracts/AuthService.sol\":1127:1136  userLogin */\n      dup3\n        /* \"contracts/AuthService.sol\":1116:1137  userLogins[userLogin] */\n      mload(0x40)\n      tag_474\n      swap2\n      swap1\n      tag_155\n      jump\t// in\n    tag_474:\n      swap1\n      dup2\n      mstore\n      0x20\n      add\n      mload(0x40)\n      dup1\n      swap2\n      sub\n      swap1\n      keccak256\n      0x00\n      swap1\n      sload\n      swap1\n      0x0100\n      exp\n      swap1\n      div\n      0xffffffffffffffffffffffffffffffffffffffff\n      and\n        /* \"contracts/AuthService.sol\":1116:1151  userLogins[userLogin] == address(0) */\n      0xffffffffffffffffffffffffffffffffffffffff\n      and\n      eq\n        /* \"contracts/AuthService.sol\":1108:1189  require(userLogins[userLogin] == address(0),\"Your login already exist in system\") */\n      tag_475\n      jumpi\n      mload(0x40)\n      0x08c379a000000000000000000000000000000000000000000000000000000000\n      dup2\n      mstore\n      0x04\n      add\n      tag_476\n      swap1\n      tag_477\n      jump\t// in\n    tag_476:\n      mload(0x40)\n      dup1\n      swap2\n      sub\n      swap1\n      revert\n    tag_475:\n        /* \"contracts/AuthService.sol\":2033:2059  string[] memory reviewList */\n      0x60\n        /* \"contracts/AuthService.sol\":2069:2088  User memory newUser */\n      0x00\n        /* \"contracts/AuthService.sol\":2091:2159  User({fio:fio,userLogin:userLogin,status:status,reviews:reviewList}) */\n      mload(0x40)\n      dup1\n      0x80\n      add\n      0x40\n      mstore\n      dup1\n        /* \"contracts/AuthService.sol\":2132:2138  status */\n      dup8\n        /* \"contracts/AuthService.sol\":2091:2159  User({fio:fio,userLogin:userLogin,status:status,reviews:reviewList}) */\n      dup2\n      mstore\n      0x20\n      add\n        /* \"contracts/AuthService.sol\":2115:2124  userLogin */\n      dup9\n        /* \"contracts/AuthService.sol\":2091:2159  User({fio:fio,userLogin:userLogin,status:status,reviews:reviewList}) */\n      dup2\n      mstore\n      0x20\n      add\n        /* \"contracts/AuthService.sol\":2101:2104  fio */\n      dup10\n        /* \"contracts/AuthService.sol\":2091:2159  User({fio:fio,userLogin:userLogin,status:status,reviews:reviewList}) */\n      dup2\n      mstore\n      0x20\n      add\n        /* \"contracts/AuthService.sol\":2147:2157  reviewList */\n      dup4\n        /* \"contracts/AuthService.sol\":2091:2159  User({fio:fio,userLogin:userLogin,status:status,reviews:reviewList}) */\n      dup2\n      mstore\n      pop\n        /* \"contracts/AuthService.sol\":2069:2159  User memory newUser = User({fio:fio,userLogin:userLogin,status:status,reviews:reviewList}) */\n      swap1\n      pop\n        /* \"contracts/AuthService.sol\":2193:2204  userAddress */\n      dup5\n        /* \"contracts/AuthService.sol\":2169:2179  userLogins */\n      0x01\n        /* \"contracts/AuthService.sol\":2180:2189  userLogin */\n      dup9\n        /* \"contracts/AuthService.sol\":2169:2190  userLogins[userLogin] */\n      mload(0x40)\n      tag_479\n      swap2\n      swap1\n      tag_155\n      jump\t// in\n    tag_479:\n      swap1\n      dup2\n      mstore\n      0x20\n      add\n      mload(0x40)\n      dup1\n      swap2\n      sub\n      swap1\n      keccak256\n      0x00\n        /* \"contracts/AuthService.sol\":2169:2204  userLogins[userLogin] = userAddress */\n      0x0100\n      exp\n      dup2\n      sload\n      dup2\n      0xffffffffffffffffffffffffffffffffffffffff\n      mul\n      not\n      and\n      swap1\n      dup4\n      0xffffffffffffffffffffffffffffffffffffffff\n      and\n      mul\n      or\n      swap1\n      sstore\n      pop\n        /* \"contracts/AuthService.sol\":2235:2242  newUser */\n      dup1\n        /* \"contracts/AuthService.sol\":2214:2219  users */\n      0x02\n        /* \"contracts/AuthService.sol\":2214:2232  users[userAddress] */\n      0x00\n        /* \"contracts/AuthService.sol\":2220:2231  userAddress */\n      dup8\n        /* \"contracts/AuthService.sol\":2214:2232  users[userAddress] */\n      0xffffffffffffffffffffffffffffffffffffffff\n      and\n      0xffffffffffffffffffffffffffffffffffffffff\n      and\n      dup2\n      mstore\n      0x20\n      add\n      swap1\n      dup2\n      mstore\n      0x20\n      add\n      0x00\n      keccak256\n        /* \"contracts/AuthService.sol\":2214:2242  users[userAddress] = newUser */\n      0x00\n      dup3\n      add\n      mload\n      dup2\n      0x00\n      add\n      sstore\n      0x20\n      dup3\n      add\n      mload\n      dup2\n      0x01\n      add\n      swap1\n      dup1\n      mload\n      swap1\n      0x20\n      add\n      swap1\n      tag_480\n      swap3\n      swap2\n      swap1\n      tag_181\n      jump\t// in\n    tag_480:\n      pop\n      0x40\n      dup3\n      add\n      mload\n      dup2\n      0x02\n      add\n      swap1\n      dup1\n      mload\n      swap1\n      0x20\n      add\n      swap1\n      tag_481\n      swap3\n      swap2\n      swap1\n      tag_181\n      jump\t// in\n    tag_481:\n      pop\n      0x60\n      dup3\n      add\n      mload\n      dup2\n      0x03\n      add\n      swap1\n      dup1\n      mload\n      swap1\n      0x20\n      add\n      swap1\n      tag_482\n      swap3\n      swap2\n      swap1\n      tag_483\n      jump\t// in\n    tag_482:\n      pop\n      swap1\n      pop\n      pop\n        /* \"contracts/AuthService.sol\":2023:2249  {... */\n      pop\n      pop\n        /* \"contracts/AuthService.sol\":1874:2249  function registerFromAdmin(string memory fio,string memory userLogin,uint status,address userAddress) internal isNotRegistered(userAddress,userLogin){... */\n      pop\n      pop\n      pop\n      pop\n      pop\n      pop\n      jump\t// out\n        /* \"contracts/AuthService.sol\":779:945  function compare(string memory a,string memory b) internal pure returns (bool){... */\n    tag_174:\n        /* \"contracts/AuthService.sol\":852:856  bool */\n      0x00\n        /* \"contracts/AuthService.sol\":935:936  b */\n      dup2\n        /* \"contracts/AuthService.sol\":918:937  abi.encodePacked(b) */\n      add(0x20, mload(0x40))\n      tag_485\n      swap2\n      swap1\n      tag_155\n      jump\t// in\n    tag_485:\n      mload(0x40)\n      0x20\n      dup2\n      dup4\n      sub\n      sub\n      dup2\n      mstore\n      swap1\n      0x40\n      mstore\n        /* \"contracts/AuthService.sol\":908:938  keccak256(abi.encodePacked(b)) */\n      dup1\n      mload\n      swap1\n      0x20\n      add\n      keccak256\n        /* \"contracts/AuthService.sol\":901:902  a */\n      dup4\n        /* \"contracts/AuthService.sol\":884:903  abi.encodePacked(a) */\n      add(0x20, mload(0x40))\n      tag_486\n      swap2\n      swap1\n      tag_155\n      jump\t// in\n    tag_486:\n      mload(0x40)\n      0x20\n      dup2\n      dup4\n      sub\n      sub\n      dup2\n      mstore\n      swap1\n      0x40\n      mstore\n        /* \"contracts/AuthService.sol\":874:904  keccak256(abi.encodePacked(a)) */\n      dup1\n      mload\n      swap1\n      0x20\n      add\n      keccak256\n        /* \"contracts/AuthService.sol\":874:938  keccak256(abi.encodePacked(a)) == keccak256(abi.encodePacked(b)) */\n      eq\n        /* \"contracts/AuthService.sol\":867:938  return keccak256(abi.encodePacked(a)) == keccak256(abi.encodePacked(b)) */\n      swap1\n      pop\n        /* \"contracts/AuthService.sol\":779:945  function compare(string memory a,string memory b) internal pure returns (bool){... */\n      swap3\n      swap2\n      pop\n      pop\n      jump\t// out\n    tag_181:\n      dup3\n      dup1\n      sload\n      tag_487\n      swap1\n      tag_120\n      jump\t// in\n    tag_487:\n      swap1\n      0x00\n      mstore\n      keccak256(0x00, 0x20)\n      swap1\n      0x1f\n      add\n      0x20\n      swap1\n      div\n      dup2\n      add\n      swap3\n      dup3\n      tag_489\n      jumpi\n      0x00\n      dup6\n      sstore\n      jump(tag_488)\n    tag_489:\n      dup3\n      0x1f\n      lt\n      tag_490\n      jumpi\n      dup1\n      mload\n      not(0xff)\n      and\n      dup4\n      dup1\n      add\n      or\n      dup6\n      sstore\n      jump(tag_488)\n    tag_490:\n      dup3\n      dup1\n      add\n      0x01\n      add\n      dup6\n      sstore\n      dup3\n      iszero\n      tag_488\n      jumpi\n      swap2\n      dup3\n      add\n    tag_491:\n      dup3\n      dup2\n      gt\n      iszero\n      tag_492\n      jumpi\n      dup3\n      mload\n      dup3\n      sstore\n      swap2\n      0x20\n      add\n      swap2\n      swap1\n      0x01\n      add\n      swap1\n      jump(tag_491)\n    tag_492:\n    tag_488:\n      pop\n      swap1\n      pop\n      tag_493\n      swap2\n      swap1\n      tag_494\n      jump\t// in\n    tag_493:\n      pop\n      swap1\n      jump\t// out\n    tag_187:\n      dup3\n      dup1\n      sload\n      dup3\n      dup3\n      sstore\n      swap1\n      0x00\n      mstore\n      keccak256(0x00, 0x20)\n      swap1\n      dup2\n      add\n      swap3\n      dup3\n      iszero\n      tag_495\n      jumpi\n      swap2\n      0x20\n      mul\n      dup3\n      add\n    tag_496:\n      dup3\n      dup2\n      gt\n      iszero\n      tag_497\n      jumpi\n      dup3\n      mload\n      dup3\n      exp(0x0100, 0x00)\n      dup2\n      sload\n      dup2\n      0xffffffffffffffffffffffffffffffffffffffff\n      mul\n      not\n      and\n      swap1\n      dup4\n      0xffffffffffffffffffffffffffffffffffffffff\n      and\n      mul\n      or\n      swap1\n      sstore\n      pop\n      swap2\n      0x20\n      add\n      swap2\n      swap1\n      0x01\n      add\n      swap1\n      jump(tag_496)\n    tag_497:\n    tag_495:\n      pop\n      swap1\n      pop\n      tag_498\n      swap2\n      swap1\n      tag_494\n      jump\t// in\n    tag_498:\n      pop\n      swap1\n      jump\t// out\n    tag_483:\n      dup3\n      dup1\n      sload\n      dup3\n      dup3\n      sstore\n      swap1\n      0x00\n      mstore\n      keccak256(0x00, 0x20)\n      swap1\n      dup2\n      add\n      swap3\n      dup3\n      iszero\n      tag_499\n      jumpi\n      swap2\n      0x20\n      mul\n      dup3\n      add\n    tag_500:\n      dup3\n      dup2\n      gt\n      iszero\n      tag_501\n      jumpi\n      dup3\n      mload\n      dup3\n      swap1\n      dup1\n      mload\n      swap1\n      0x20\n      add\n      swap1\n      tag_502\n      swap3\n      swap2\n      swap1\n      tag_181\n      jump\t// in\n    tag_502:\n      pop\n      swap2\n      0x20\n      add\n      swap2\n      swap1\n      0x01\n      add\n      swap1\n      jump(tag_500)\n    tag_501:\n    tag_499:\n      pop\n      swap1\n      pop\n      tag_503\n      swap2\n      swap1\n      tag_504\n      jump\t// in\n    tag_503:\n      pop\n      swap1\n      jump\t// out\n    tag_494:\n    tag_505:\n      dup1\n      dup3\n      gt\n      iszero\n      tag_506\n      jumpi\n      0x00\n      dup2\n      0x00\n      swap1\n      sstore\n      pop\n      0x01\n      add\n      jump(tag_505)\n    tag_506:\n      pop\n      swap1\n      jump\t// out\n    tag_504:\n    tag_507:\n      dup1\n      dup3\n      gt\n      iszero\n      tag_508\n      jumpi\n      0x00\n      dup2\n      dup2\n      tag_509\n      swap2\n      swap1\n      tag_510\n      jump\t// in\n    tag_509:\n      pop\n      0x01\n      add\n      jump(tag_507)\n    tag_508:\n      pop\n      swap1\n      jump\t// out\n    tag_510:\n      pop\n      dup1\n      sload\n      tag_511\n      swap1\n      tag_120\n      jump\t// in\n    tag_511:\n      0x00\n      dup3\n      sstore\n      dup1\n      0x1f\n      lt\n      tag_513\n      jumpi\n      pop\n      jump(tag_512)\n    tag_513:\n      0x1f\n      add\n      0x20\n      swap1\n      div\n      swap1\n      0x00\n      mstore\n      keccak256(0x00, 0x20)\n      swap1\n      dup2\n      add\n      swap1\n      tag_514\n      swap2\n      swap1\n      tag_494\n      jump\t// in\n    tag_514:\n    tag_512:\n      pop\n      jump\t// out\n        /* \"#utility.yul\":7:419   */\n    tag_516:\n        /* \"#utility.yul\":85:90   */\n      0x00\n        /* \"#utility.yul\":110:176   */\n      tag_518\n        /* \"#utility.yul\":126:175   */\n      tag_519\n        /* \"#utility.yul\":168:174   */\n      dup5\n        /* \"#utility.yul\":126:175   */\n      tag_520\n      jump\t// in\n    tag_519:\n        /* \"#utility.yul\":110:176   */\n      tag_521\n      jump\t// in\n    tag_518:\n        /* \"#utility.yul\":101:176   */\n      swap1\n      pop\n        /* \"#utility.yul\":199:205   */\n      dup3\n        /* \"#utility.yul\":192:197   */\n      dup2\n        /* \"#utility.yul\":185:206   */\n      mstore\n        /* \"#utility.yul\":237:241   */\n      0x20\n        /* \"#utility.yul\":230:235   */\n      dup2\n        /* \"#utility.yul\":226:242   */\n      add\n        /* \"#utility.yul\":275:278   */\n      dup5\n        /* \"#utility.yul\":266:272   */\n      dup5\n        /* \"#utility.yul\":261:264   */\n      dup5\n        /* \"#utility.yul\":257:273   */\n      add\n        /* \"#utility.yul\":254:279   */\n      gt\n        /* \"#utility.yul\":251:363   */\n      iszero\n      tag_522\n      jumpi\n        /* \"#utility.yul\":282:361   */\n      tag_523\n      tag_524\n      jump\t// in\n    tag_523:\n        /* \"#utility.yul\":251:363   */\n    tag_522:\n        /* \"#utility.yul\":372:413   */\n      tag_525\n        /* \"#utility.yul\":406:412   */\n      dup5\n        /* \"#utility.yul\":401:404   */\n      dup3\n        /* \"#utility.yul\":396:399   */\n      dup6\n        /* \"#utility.yul\":372:413   */\n      tag_526\n      jump\t// in\n    tag_525:\n        /* \"#utility.yul\":91:419   */\n      pop\n        /* \"#utility.yul\":7:419   */\n      swap4\n      swap3\n      pop\n      pop\n      pop\n      jump\t// out\n        /* \"#utility.yul\":425:564   */\n    tag_527:\n        /* \"#utility.yul\":471:476   */\n      0x00\n        /* \"#utility.yul\":509:515   */\n      dup2\n        /* \"#utility.yul\":496:516   */\n      calldataload\n        /* \"#utility.yul\":487:516   */\n      swap1\n      pop\n        /* \"#utility.yul\":525:558   */\n      tag_529\n        /* \"#utility.yul\":552:557   */\n      dup2\n        /* \"#utility.yul\":525:558   */\n      tag_530\n      jump\t// in\n    tag_529:\n        /* \"#utility.yul\":425:564   */\n      swap3\n      swap2\n      pop\n      pop\n      jump\t// out\n        /* \"#utility.yul\":570:725   */\n    tag_531:\n        /* \"#utility.yul\":624:629   */\n      0x00\n        /* \"#utility.yul\":662:668   */\n      dup2\n        /* \"#utility.yul\":649:669   */\n      calldataload\n        /* \"#utility.yul\":640:669   */\n      swap1\n      pop\n        /* \"#utility.yul\":678:719   */\n      tag_533\n        /* \"#utility.yul\":713:718   */\n      dup2\n        /* \"#utility.yul\":678:719   */\n      tag_534\n      jump\t// in\n    tag_533:\n        /* \"#utility.yul\":570:725   */\n      swap3\n      swap2\n      pop\n      pop\n      jump\t// out\n        /* \"#utility.yul\":731:864   */\n    tag_535:\n        /* \"#utility.yul\":774:779   */\n      0x00\n        /* \"#utility.yul\":812:818   */\n      dup2\n        /* \"#utility.yul\":799:819   */\n      calldataload\n        /* \"#utility.yul\":790:819   */\n      swap1\n      pop\n        /* \"#utility.yul\":828:858   */\n      tag_537\n        /* \"#utility.yul\":852:857   */\n      dup2\n        /* \"#utility.yul\":828:858   */\n      tag_538\n      jump\t// in\n    tag_537:\n        /* \"#utility.yul\":731:864   */\n      swap3\n      swap2\n      pop\n      pop\n      jump\t// out\n        /* \"#utility.yul\":870:1007   */\n    tag_539:\n        /* \"#utility.yul\":915:920   */\n      0x00\n        /* \"#utility.yul\":953:959   */\n      dup2\n        /* \"#utility.yul\":940:960   */\n      calldataload\n        /* \"#utility.yul\":931:960   */\n      swap1\n      pop\n        /* \"#utility.yul\":969:1001   */\n      tag_541\n        /* \"#utility.yul\":995:1000   */\n      dup2\n        /* \"#utility.yul\":969:1001   */\n      tag_542\n      jump\t// in\n    tag_541:\n        /* \"#utility.yul\":870:1007   */\n      swap3\n      swap2\n      pop\n      pop\n      jump\t// out\n        /* \"#utility.yul\":1027:1367   */\n    tag_543:\n        /* \"#utility.yul\":1083:1088   */\n      0x00\n        /* \"#utility.yul\":1132:1135   */\n      dup3\n        /* \"#utility.yul\":1125:1129   */\n      0x1f\n        /* \"#utility.yul\":1117:1123   */\n      dup4\n        /* \"#utility.yul\":1113:1130   */\n      add\n        /* \"#utility.yul\":1109:1136   */\n      slt\n        /* \"#utility.yul\":1099:1221   */\n      tag_545\n      jumpi\n        /* \"#utility.yul\":1140:1219   */\n      tag_546\n      tag_547\n      jump\t// in\n    tag_546:\n        /* \"#utility.yul\":1099:1221   */\n    tag_545:\n        /* \"#utility.yul\":1257:1263   */\n      dup2\n        /* \"#utility.yul\":1244:1264   */\n      calldataload\n        /* \"#utility.yul\":1282:1361   */\n      tag_548\n        /* \"#utility.yul\":1357:1360   */\n      dup5\n        /* \"#utility.yul\":1349:1355   */\n      dup3\n        /* \"#utility.yul\":1342:1346   */\n      0x20\n        /* \"#utility.yul\":1334:1340   */\n      dup7\n        /* \"#utility.yul\":1330:1347   */\n      add\n        /* \"#utility.yul\":1282:1361   */\n      tag_516\n      jump\t// in\n    tag_548:\n        /* \"#utility.yul\":1273:1361   */\n      swap2\n      pop\n        /* \"#utility.yul\":1089:1367   */\n      pop\n        /* \"#utility.yul\":1027:1367   */\n      swap3\n      swap2\n      pop\n      pop\n      jump\t// out\n        /* \"#utility.yul\":1373:1702   */\n    tag_29:\n        /* \"#utility.yul\":1432:1438   */\n      0x00\n        /* \"#utility.yul\":1481:1483   */\n      0x20\n        /* \"#utility.yul\":1469:1478   */\n      dup3\n        /* \"#utility.yul\":1460:1467   */\n      dup5\n        /* \"#utility.yul\":1456:1479   */\n      sub\n        /* \"#utility.yul\":1452:1484   */\n      slt\n        /* \"#utility.yul\":1449:1568   */\n      iszero\n      tag_550\n      jumpi\n        /* \"#utility.yul\":1487:1566   */\n      tag_551\n      tag_552\n      jump\t// in\n    tag_551:\n        /* \"#utility.yul\":1449:1568   */\n    tag_550:\n        /* \"#utility.yul\":1607:1608   */\n      0x00\n        /* \"#utility.yul\":1632:1685   */\n      tag_553\n        /* \"#utility.yul\":1677:1684   */\n      dup5\n        /* \"#utility.yul\":1668:1674   */\n      dup3\n        /* \"#utility.yul\":1657:1666   */\n      dup6\n        /* \"#utility.yul\":1653:1675   */\n      add\n        /* \"#utility.yul\":1632:1685   */\n      tag_527\n      jump\t// in\n    tag_553:\n        /* \"#utility.yul\":1622:1685   */\n      swap2\n      pop\n        /* \"#utility.yul\":1578:1695   */\n      pop\n        /* \"#utility.yul\":1373:1702   */\n      swap3\n      swap2\n      pop\n      pop\n      jump\t// out\n        /* \"#utility.yul\":1708:2053   */\n    tag_71:\n        /* \"#utility.yul\":1775:1781   */\n      0x00\n        /* \"#utility.yul\":1824:1826   */\n      0x20\n        /* \"#utility.yul\":1812:1821   */\n      dup3\n        /* \"#utility.yul\":1803:1810   */\n      dup5\n        /* \"#utility.yul\":1799:1822   */\n      sub\n        /* \"#utility.yul\":1795:1827   */\n      slt\n        /* \"#utility.yul\":1792:1911   */\n      iszero\n      tag_555\n      jumpi\n        /* \"#utility.yul\":1830:1909   */\n      tag_556\n      tag_552\n      jump\t// in\n    tag_556:\n        /* \"#utility.yul\":1792:1911   */\n    tag_555:\n        /* \"#utility.yul\":1950:1951   */\n      0x00\n        /* \"#utility.yul\":1975:2036   */\n      tag_557\n        /* \"#utility.yul\":2028:2035   */\n      dup5\n        /* \"#utility.yul\":2019:2025   */\n      dup3\n        /* \"#utility.yul\":2008:2017   */\n      dup6\n        /* \"#utility.yul\":2004:2026   */\n      add\n        /* \"#utility.yul\":1975:2036   */\n      tag_531\n      jump\t// in\n    tag_557:\n        /* \"#utility.yul\":1965:2036   */\n      swap2\n      pop\n        /* \"#utility.yul\":1921:2046   */\n      pop\n        /* \"#utility.yul\":1708:2053   */\n      swap3\n      swap2\n      pop\n      pop\n      jump\t// out\n        /* \"#utility.yul\":2059:3038   */\n    tag_87:\n        /* \"#utility.yul\":2156:2162   */\n      0x00\n        /* \"#utility.yul\":2164:2170   */\n      dup1\n        /* \"#utility.yul\":2172:2178   */\n      0x00\n        /* \"#utility.yul\":2221:2223   */\n      0x60\n        /* \"#utility.yul\":2209:2218   */\n      dup5\n        /* \"#utility.yul\":2200:2207   */\n      dup7\n        /* \"#utility.yul\":2196:2219   */\n      sub\n        /* \"#utility.yul\":2192:2224   */\n      slt\n        /* \"#utility.yul\":2189:2308   */\n      iszero\n      tag_559\n      jumpi\n        /* \"#utility.yul\":2227:2306   */\n      tag_560\n      tag_552\n      jump\t// in\n    tag_560:\n        /* \"#utility.yul\":2189:2308   */\n    tag_559:\n        /* \"#utility.yul\":2347:2348   */\n      0x00\n        /* \"#utility.yul\":2372:2425   */\n      tag_561\n        /* \"#utility.yul\":2417:2424   */\n      dup7\n        /* \"#utility.yul\":2408:2414   */\n      dup3\n        /* \"#utility.yul\":2397:2406   */\n      dup8\n        /* \"#utility.yul\":2393:2415   */\n      add\n        /* \"#utility.yul\":2372:2425   */\n      tag_527\n      jump\t// in\n    tag_561:\n        /* \"#utility.yul\":2362:2425   */\n      swap4\n      pop\n        /* \"#utility.yul\":2318:2435   */\n      pop\n        /* \"#utility.yul\":2502:2504   */\n      0x20\n        /* \"#utility.yul\":2491:2500   */\n      dup5\n        /* \"#utility.yul\":2487:2505   */\n      add\n        /* \"#utility.yul\":2474:2506   */\n      calldataload\n        /* \"#utility.yul\":2533:2551   */\n      0xffffffffffffffff\n        /* \"#utility.yul\":2525:2531   */\n      dup2\n        /* \"#utility.yul\":2522:2552   */\n      gt\n        /* \"#utility.yul\":2519:2636   */\n      iszero\n      tag_562\n      jumpi\n        /* \"#utility.yul\":2555:2634   */\n      tag_563\n      tag_564\n      jump\t// in\n    tag_563:\n        /* \"#utility.yul\":2519:2636   */\n    tag_562:\n        /* \"#utility.yul\":2660:2723   */\n      tag_565\n        /* \"#utility.yul\":2715:2722   */\n      dup7\n        /* \"#utility.yul\":2706:2712   */\n      dup3\n        /* \"#utility.yul\":2695:2704   */\n      dup8\n        /* \"#utility.yul\":2691:2713   */\n      add\n        /* \"#utility.yul\":2660:2723   */\n      tag_543\n      jump\t// in\n    tag_565:\n        /* \"#utility.yul\":2650:2723   */\n      swap3\n      pop\n        /* \"#utility.yul\":2445:2733   */\n      pop\n        /* \"#utility.yul\":2800:2802   */\n      0x40\n        /* \"#utility.yul\":2789:2798   */\n      dup5\n        /* \"#utility.yul\":2785:2803   */\n      add\n        /* \"#utility.yul\":2772:2804   */\n      calldataload\n        /* \"#utility.yul\":2831:2849   */\n      0xffffffffffffffff\n        /* \"#utility.yul\":2823:2829   */\n      dup2\n        /* \"#utility.yul\":2820:2850   */\n      gt\n        /* \"#utility.yul\":2817:2934   */\n      iszero\n      tag_566\n      jumpi\n        /* \"#utility.yul\":2853:2932   */\n      tag_567\n      tag_564\n      jump\t// in\n    tag_567:\n        /* \"#utility.yul\":2817:2934   */\n    tag_566:\n        /* \"#utility.yul\":2958:3021   */\n      tag_568\n        /* \"#utility.yul\":3013:3020   */\n      dup7\n        /* \"#utility.yul\":3004:3010   */\n      dup3\n        /* \"#utility.yul\":2993:3002   */\n      dup8\n        /* \"#utility.yul\":2989:3011   */\n      add\n        /* \"#utility.yul\":2958:3021   */\n      tag_543\n      jump\t// in\n    tag_568:\n        /* \"#utility.yul\":2948:3021   */\n      swap2\n      pop\n        /* \"#utility.yul\":2743:3031   */\n      pop\n        /* \"#utility.yul\":2059:3038   */\n      swap3\n      pop\n      swap3\n      pop\n      swap3\n      jump\t// out\n        /* \"#utility.yul\":3044:4167   */\n    tag_43:\n        /* \"#utility.yul\":3149:3155   */\n      0x00\n        /* \"#utility.yul\":3157:3163   */\n      dup1\n        /* \"#utility.yul\":3165:3171   */\n      0x00\n        /* \"#utility.yul\":3173:3179   */\n      dup1\n        /* \"#utility.yul\":3222:3225   */\n      0x80\n        /* \"#utility.yul\":3210:3219   */\n      dup6\n        /* \"#utility.yul\":3201:3208   */\n      dup8\n        /* \"#utility.yul\":3197:3220   */\n      sub\n        /* \"#utility.yul\":3193:3226   */\n      slt\n        /* \"#utility.yul\":3190:3310   */\n      iszero\n      tag_570\n      jumpi\n        /* \"#utility.yul\":3229:3308   */\n      tag_571\n      tag_552\n      jump\t// in\n    tag_571:\n        /* \"#utility.yul\":3190:3310   */\n    tag_570:\n        /* \"#utility.yul\":3349:3350   */\n      0x00\n        /* \"#utility.yul\":3374:3427   */\n      tag_572\n        /* \"#utility.yul\":3419:3426   */\n      dup8\n        /* \"#utility.yul\":3410:3416   */\n      dup3\n        /* \"#utility.yul\":3399:3408   */\n      dup9\n        /* \"#utility.yul\":3395:3417   */\n      add\n        /* \"#utility.yul\":3374:3427   */\n      tag_527\n      jump\t// in\n    tag_572:\n        /* \"#utility.yul\":3364:3427   */\n      swap5\n      pop\n        /* \"#utility.yul\":3320:3437   */\n      pop\n        /* \"#utility.yul\":3504:3506   */\n      0x20\n        /* \"#utility.yul\":3493:3502   */\n      dup6\n        /* \"#utility.yul\":3489:3507   */\n      add\n        /* \"#utility.yul\":3476:3508   */\n      calldataload\n        /* \"#utility.yul\":3535:3553   */\n      0xffffffffffffffff\n        /* \"#utility.yul\":3527:3533   */\n      dup2\n        /* \"#utility.yul\":3524:3554   */\n      gt\n        /* \"#utility.yul\":3521:3638   */\n      iszero\n      tag_573\n      jumpi\n        /* \"#utility.yul\":3557:3636   */\n      tag_574\n      tag_564\n      jump\t// in\n    tag_574:\n        /* \"#utility.yul\":3521:3638   */\n    tag_573:\n        /* \"#utility.yul\":3662:3725   */\n      tag_575\n        /* \"#utility.yul\":3717:3724   */\n      dup8\n        /* \"#utility.yul\":3708:3714   */\n      dup3\n        /* \"#utility.yul\":3697:3706   */\n      dup9\n        /* \"#utility.yul\":3693:3715   */\n      add\n        /* \"#utility.yul\":3662:3725   */\n      tag_543\n      jump\t// in\n    tag_575:\n        /* \"#utility.yul\":3652:3725   */\n      swap4\n      pop\n        /* \"#utility.yul\":3447:3735   */\n      pop\n        /* \"#utility.yul\":3802:3804   */\n      0x40\n        /* \"#utility.yul\":3791:3800   */\n      dup6\n        /* \"#utility.yul\":3787:3805   */\n      add\n        /* \"#utility.yul\":3774:3806   */\n      calldataload\n        /* \"#utility.yul\":3833:3851   */\n      0xffffffffffffffff\n        /* \"#utility.yul\":3825:3831   */\n      dup2\n        /* \"#utility.yul\":3822:3852   */\n      gt\n        /* \"#utility.yul\":3819:3936   */\n      iszero\n      tag_576\n      jumpi\n        /* \"#utility.yul\":3855:3934   */\n      tag_577\n      tag_564\n      jump\t// in\n    tag_577:\n        /* \"#utility.yul\":3819:3936   */\n    tag_576:\n        /* \"#utility.yul\":3960:4023   */\n      tag_578\n        /* \"#utility.yul\":4015:4022   */\n      dup8\n        /* \"#utility.yul\":4006:4012   */\n      dup3\n        /* \"#utility.yul\":3995:4004   */\n      dup9\n        /* \"#utility.yul\":3991:4013   */\n      add\n        /* \"#utility.yul\":3960:4023   */\n      tag_543\n      jump\t// in\n    tag_578:\n        /* \"#utility.yul\":3950:4023   */\n      swap3\n      pop\n        /* \"#utility.yul\":3745:4033   */\n      pop\n        /* \"#utility.yul\":4072:4074   */\n      0x60\n        /* \"#utility.yul\":4098:4150   */\n      tag_579\n        /* \"#utility.yul\":4142:4149   */\n      dup8\n        /* \"#utility.yul\":4133:4139   */\n      dup3\n        /* \"#utility.yul\":4122:4131   */\n      dup9\n        /* \"#utility.yul\":4118:4140   */\n      add\n        /* \"#utility.yul\":4098:4150   */\n      tag_539\n      jump\t// in\n    tag_579:\n        /* \"#utility.yul\":4088:4150   */\n      swap2\n      pop\n        /* \"#utility.yul\":4043:4160   */\n      pop\n        /* \"#utility.yul\":3044:4167   */\n      swap3\n      swap6\n      swap2\n      swap5\n      pop\n      swap3\n      pop\n      jump\t// out\n        /* \"#utility.yul\":4173:5478   */\n    tag_61:\n        /* \"#utility.yul\":4289:4295   */\n      0x00\n        /* \"#utility.yul\":4297:4303   */\n      dup1\n        /* \"#utility.yul\":4305:4311   */\n      0x00\n        /* \"#utility.yul\":4313:4319   */\n      dup1\n        /* \"#utility.yul\":4362:4365   */\n      0x80\n        /* \"#utility.yul\":4350:4359   */\n      dup6\n        /* \"#utility.yul\":4341:4348   */\n      dup8\n        /* \"#utility.yul\":4337:4360   */\n      sub\n        /* \"#utility.yul\":4333:4366   */\n      slt\n        /* \"#utility.yul\":4330:4450   */\n      iszero\n      tag_581\n      jumpi\n        /* \"#utility.yul\":4369:4448   */\n      tag_582\n      tag_552\n      jump\t// in\n    tag_582:\n        /* \"#utility.yul\":4330:4450   */\n    tag_581:\n        /* \"#utility.yul\":4489:4490   */\n      0x00\n        /* \"#utility.yul\":4514:4567   */\n      tag_583\n        /* \"#utility.yul\":4559:4566   */\n      dup8\n        /* \"#utility.yul\":4550:4556   */\n      dup3\n        /* \"#utility.yul\":4539:4548   */\n      dup9\n        /* \"#utility.yul\":4535:4557   */\n      add\n        /* \"#utility.yul\":4514:4567   */\n      tag_527\n      jump\t// in\n    tag_583:\n        /* \"#utility.yul\":4504:4567   */\n      swap5\n      pop\n        /* \"#utility.yul\":4460:4577   */\n      pop\n        /* \"#utility.yul\":4644:4646   */\n      0x20\n        /* \"#utility.yul\":4633:4642   */\n      dup6\n        /* \"#utility.yul\":4629:4647   */\n      add\n        /* \"#utility.yul\":4616:4648   */\n      calldataload\n        /* \"#utility.yul\":4675:4693   */\n      0xffffffffffffffff\n        /* \"#utility.yul\":4667:4673   */\n      dup2\n        /* \"#utility.yul\":4664:4694   */\n      gt\n        /* \"#utility.yul\":4661:4778   */\n      iszero\n      tag_584\n      jumpi\n        /* \"#utility.yul\":4697:4776   */\n      tag_585\n      tag_564\n      jump\t// in\n    tag_585:\n        /* \"#utility.yul\":4661:4778   */\n    tag_584:\n        /* \"#utility.yul\":4802:4865   */\n      tag_586\n        /* \"#utility.yul\":4857:4864   */\n      dup8\n        /* \"#utility.yul\":4848:4854   */\n      dup3\n        /* \"#utility.yul\":4837:4846   */\n      dup9\n        /* \"#utility.yul\":4833:4855   */\n      add\n        /* \"#utility.yul\":4802:4865   */\n      tag_543\n      jump\t// in\n    tag_586:\n        /* \"#utility.yul\":4792:4865   */\n      swap4\n      pop\n        /* \"#utility.yul\":4587:4875   */\n      pop\n        /* \"#utility.yul\":4942:4944   */\n      0x40\n        /* \"#utility.yul\":4931:4940   */\n      dup6\n        /* \"#utility.yul\":4927:4945   */\n      add\n        /* \"#utility.yul\":4914:4946   */\n      calldataload\n        /* \"#utility.yul\":4973:4991   */\n      0xffffffffffffffff\n        /* \"#utility.yul\":4965:4971   */\n      dup2\n        /* \"#utility.yul\":4962:4992   */\n      gt\n        /* \"#utility.yul\":4959:5076   */\n      iszero\n      tag_587\n      jumpi\n        /* \"#utility.yul\":4995:5074   */\n      tag_588\n      tag_564\n      jump\t// in\n    tag_588:\n        /* \"#utility.yul\":4959:5076   */\n    tag_587:\n        /* \"#utility.yul\":5100:5163   */\n      tag_589\n        /* \"#utility.yul\":5155:5162   */\n      dup8\n        /* \"#utility.yul\":5146:5152   */\n      dup3\n        /* \"#utility.yul\":5135:5144   */\n      dup9\n        /* \"#utility.yul\":5131:5153   */\n      add\n        /* \"#utility.yul\":5100:5163   */\n      tag_543\n      jump\t// in\n    tag_589:\n        /* \"#utility.yul\":5090:5163   */\n      swap3\n      pop\n        /* \"#utility.yul\":4885:5173   */\n      pop\n        /* \"#utility.yul\":5240:5242   */\n      0x60\n        /* \"#utility.yul\":5229:5238   */\n      dup6\n        /* \"#utility.yul\":5225:5243   */\n      add\n        /* \"#utility.yul\":5212:5244   */\n      calldataload\n        /* \"#utility.yul\":5271:5289   */\n      0xffffffffffffffff\n        /* \"#utility.yul\":5263:5269   */\n      dup2\n        /* \"#utility.yul\":5260:5290   */\n      gt\n        /* \"#utility.yul\":5257:5374   */\n      iszero\n      tag_590\n      jumpi\n        /* \"#utility.yul\":5293:5372   */\n      tag_591\n      tag_564\n      jump\t// in\n    tag_591:\n        /* \"#utility.yul\":5257:5374   */\n    tag_590:\n        /* \"#utility.yul\":5398:5461   */\n      tag_592\n        /* \"#utility.yul\":5453:5460   */\n      dup8\n        /* \"#utility.yul\":5444:5450   */\n      dup3\n        /* \"#utility.yul\":5433:5442   */\n      dup9\n        /* \"#utility.yul\":5429:5451   */\n      add\n        /* \"#utility.yul\":5398:5461   */\n      tag_543\n      jump\t// in\n    tag_592:\n        /* \"#utility.yul\":5388:5461   */\n      swap2\n      pop\n        /* \"#utility.yul\":5183:5471   */\n      pop\n        /* \"#utility.yul\":4173:5478   */\n      swap3\n      swap6\n      swap2\n      swap5\n      pop\n      swap3\n      pop\n      jump\t// out\n        /* \"#utility.yul\":5484:5993   */\n    tag_47:\n        /* \"#utility.yul\":5553:5559   */\n      0x00\n        /* \"#utility.yul\":5602:5604   */\n      0x20\n        /* \"#utility.yul\":5590:5599   */\n      dup3\n        /* \"#utility.yul\":5581:5588   */\n      dup5\n        /* \"#utility.yul\":5577:5600   */\n      sub\n        /* \"#utility.yul\":5573:5605   */\n      slt\n        /* \"#utility.yul\":5570:5689   */\n      iszero\n      tag_594\n      jumpi\n        /* \"#utility.yul\":5608:5687   */\n      tag_595\n      tag_552\n      jump\t// in\n    tag_595:\n        /* \"#utility.yul\":5570:5689   */\n    tag_594:\n        /* \"#utility.yul\":5756:5757   */\n      0x00\n        /* \"#utility.yul\":5745:5754   */\n      dup3\n        /* \"#utility.yul\":5741:5758   */\n      add\n        /* \"#utility.yul\":5728:5759   */\n      calldataload\n        /* \"#utility.yul\":5786:5804   */\n      0xffffffffffffffff\n        /* \"#utility.yul\":5778:5784   */\n      dup2\n        /* \"#utility.yul\":5775:5805   */\n      gt\n        /* \"#utility.yul\":5772:5889   */\n      iszero\n      tag_596\n      jumpi\n        /* \"#utility.yul\":5808:5887   */\n      tag_597\n      tag_564\n      jump\t// in\n    tag_597:\n        /* \"#utility.yul\":5772:5889   */\n    tag_596:\n        /* \"#utility.yul\":5913:5976   */\n      tag_598\n        /* \"#utility.yul\":5968:5975   */\n      dup5\n        /* \"#utility.yul\":5959:5965   */\n      dup3\n        /* \"#utility.yul\":5948:5957   */\n      dup6\n        /* \"#utility.yul\":5944:5966   */\n      add\n        /* \"#utility.yul\":5913:5976   */\n      tag_543\n      jump\t// in\n    tag_598:\n        /* \"#utility.yul\":5903:5976   */\n      swap2\n      pop\n        /* \"#utility.yul\":5699:5986   */\n      pop\n        /* \"#utility.yul\":5484:5993   */\n      swap3\n      swap2\n      pop\n      pop\n      jump\t// out\n        /* \"#utility.yul\":5999:6653   */\n    tag_39:\n        /* \"#utility.yul\":6077:6083   */\n      0x00\n        /* \"#utility.yul\":6085:6091   */\n      dup1\n        /* \"#utility.yul\":6134:6136   */\n      0x40\n        /* \"#utility.yul\":6122:6131   */\n      dup4\n        /* \"#utility.yul\":6113:6120   */\n      dup6\n        /* \"#utility.yul\":6109:6132   */\n      sub\n        /* \"#utility.yul\":6105:6137   */\n      slt\n        /* \"#utility.yul\":6102:6221   */\n      iszero\n      tag_600\n      jumpi\n        /* \"#utility.yul\":6140:6219   */\n      tag_601\n      tag_552\n      jump\t// in\n    tag_601:\n        /* \"#utility.yul\":6102:6221   */\n    tag_600:\n        /* \"#utility.yul\":6288:6289   */\n      0x00\n        /* \"#utility.yul\":6277:6286   */\n      dup4\n        /* \"#utility.yul\":6273:6290   */\n      add\n        /* \"#utility.yul\":6260:6291   */\n      calldataload\n        /* \"#utility.yul\":6318:6336   */\n      0xffffffffffffffff\n        /* \"#utility.yul\":6310:6316   */\n      dup2\n        /* \"#utility.yul\":6307:6337   */\n      gt\n        /* \"#utility.yul\":6304:6421   */\n      iszero\n      tag_602\n      jumpi\n        /* \"#utility.yul\":6340:6419   */\n      tag_603\n      tag_564\n      jump\t// in\n    tag_603:\n        /* \"#utility.yul\":6304:6421   */\n    tag_602:\n        /* \"#utility.yul\":6445:6508   */\n      tag_604\n        /* \"#utility.yul\":6500:6507   */\n      dup6\n        /* \"#utility.yul\":6491:6497   */\n      dup3\n        /* \"#utility.yul\":6480:6489   */\n      dup7\n        /* \"#utility.yul\":6476:6498   */\n      add\n        /* \"#utility.yul\":6445:6508   */\n      tag_543\n      jump\t// in\n    tag_604:\n        /* \"#utility.yul\":6435:6508   */\n      swap3\n      pop\n        /* \"#utility.yul\":6231:6518   */\n      pop\n        /* \"#utility.yul\":6557:6559   */\n      0x20\n        /* \"#utility.yul\":6583:6636   */\n      tag_605\n        /* \"#utility.yul\":6628:6635   */\n      dup6\n        /* \"#utility.yul\":6619:6625   */\n      dup3\n        /* \"#utility.yul\":6608:6617   */\n      dup7\n        /* \"#utility.yul\":6604:6626   */\n      add\n        /* \"#utility.yul\":6583:6636   */\n      tag_527\n      jump\t// in\n    tag_605:\n        /* \"#utility.yul\":6573:6636   */\n      swap2\n      pop\n        /* \"#utility.yul\":6528:6646   */\n      pop\n        /* \"#utility.yul\":5999:6653   */\n      swap3\n      pop\n      swap3\n      swap1\n      pop\n      jump\t// out\n        /* \"#utility.yul\":6659:7307   */\n    tag_35:\n        /* \"#utility.yul\":6734:6740   */\n      0x00\n        /* \"#utility.yul\":6742:6748   */\n      dup1\n        /* \"#utility.yul\":6791:6793   */\n      0x40\n        /* \"#utility.yul\":6779:6788   */\n      dup4\n        /* \"#utility.yul\":6770:6777   */\n      dup6\n        /* \"#utility.yul\":6766:6789   */\n      sub\n        /* \"#utility.yul\":6762:6794   */\n      slt\n        /* \"#utility.yul\":6759:6878   */\n      iszero\n      tag_607\n      jumpi\n        /* \"#utility.yul\":6797:6876   */\n      tag_608\n      tag_552\n      jump\t// in\n    tag_608:\n        /* \"#utility.yul\":6759:6878   */\n    tag_607:\n        /* \"#utility.yul\":6945:6946   */\n      0x00\n        /* \"#utility.yul\":6934:6943   */\n      dup4\n        /* \"#utility.yul\":6930:6947   */\n      add\n        /* \"#utility.yul\":6917:6948   */\n      calldataload\n        /* \"#utility.yul\":6975:6993   */\n      0xffffffffffffffff\n        /* \"#utility.yul\":6967:6973   */\n      dup2\n        /* \"#utility.yul\":6964:6994   */\n      gt\n        /* \"#utility.yul\":6961:7078   */\n      iszero\n      tag_609\n      jumpi\n        /* \"#utility.yul\":6997:7076   */\n      tag_610\n      tag_564\n      jump\t// in\n    tag_610:\n        /* \"#utility.yul\":6961:7078   */\n    tag_609:\n        /* \"#utility.yul\":7102:7165   */\n      tag_611\n        /* \"#utility.yul\":7157:7164   */\n      dup6\n        /* \"#utility.yul\":7148:7154   */\n      dup3\n        /* \"#utility.yul\":7137:7146   */\n      dup7\n        /* \"#utility.yul\":7133:7155   */\n      add\n        /* \"#utility.yul\":7102:7165   */\n      tag_543\n      jump\t// in\n    tag_611:\n        /* \"#utility.yul\":7092:7165   */\n      swap3\n      pop\n        /* \"#utility.yul\":6888:7175   */\n      pop\n        /* \"#utility.yul\":7214:7216   */\n      0x20\n        /* \"#utility.yul\":7240:7290   */\n      tag_612\n        /* \"#utility.yul\":7282:7289   */\n      dup6\n        /* \"#utility.yul\":7273:7279   */\n      dup3\n        /* \"#utility.yul\":7262:7271   */\n      dup7\n        /* \"#utility.yul\":7258:7280   */\n      add\n        /* \"#utility.yul\":7240:7290   */\n      tag_535\n      jump\t// in\n    tag_612:\n        /* \"#utility.yul\":7230:7290   */\n      swap2\n      pop\n        /* \"#utility.yul\":7185:7300   */\n      pop\n        /* \"#utility.yul\":6659:7307   */\n      swap3\n      pop\n      swap3\n      swap1\n      pop\n      jump\t// out\n        /* \"#utility.yul\":7313:8147   */\n    tag_109:\n        /* \"#utility.yul\":7401:7407   */\n      0x00\n        /* \"#utility.yul\":7409:7415   */\n      dup1\n        /* \"#utility.yul\":7458:7460   */\n      0x40\n        /* \"#utility.yul\":7446:7455   */\n      dup4\n        /* \"#utility.yul\":7437:7444   */\n      dup6\n        /* \"#utility.yul\":7433:7456   */\n      sub\n        /* \"#utility.yul\":7429:7461   */\n      slt\n        /* \"#utility.yul\":7426:7545   */\n      iszero\n      tag_614\n      jumpi\n        /* \"#utility.yul\":7464:7543   */\n      tag_615\n      tag_552\n      jump\t// in\n    tag_615:\n        /* \"#utility.yul\":7426:7545   */\n    tag_614:\n        /* \"#utility.yul\":7612:7613   */\n      0x00\n        /* \"#utility.yul\":7601:7610   */\n      dup4\n        /* \"#utility.yul\":7597:7614   */\n      add\n        /* \"#utility.yul\":7584:7615   */\n      calldataload\n        /* \"#utility.yul\":7642:7660   */\n      0xffffffffffffffff\n        /* \"#utility.yul\":7634:7640   */\n      dup2\n        /* \"#utility.yul\":7631:7661   */\n      gt\n        /* \"#utility.yul\":7628:7745   */\n      iszero\n      tag_616\n      jumpi\n        /* \"#utility.yul\":7664:7743   */\n      tag_617\n      tag_564\n      jump\t// in\n    tag_617:\n        /* \"#utility.yul\":7628:7745   */\n    tag_616:\n        /* \"#utility.yul\":7769:7832   */\n      tag_618\n        /* \"#utility.yul\":7824:7831   */\n      dup6\n        /* \"#utility.yul\":7815:7821   */\n      dup3\n        /* \"#utility.yul\":7804:7813   */\n      dup7\n        /* \"#utility.yul\":7800:7822   */\n      add\n        /* \"#utility.yul\":7769:7832   */\n      tag_543\n      jump\t// in\n    tag_618:\n        /* \"#utility.yul\":7759:7832   */\n      swap3\n      pop\n        /* \"#utility.yul\":7555:7842   */\n      pop\n        /* \"#utility.yul\":7909:7911   */\n      0x20\n        /* \"#utility.yul\":7898:7907   */\n      dup4\n        /* \"#utility.yul\":7894:7912   */\n      add\n        /* \"#utility.yul\":7881:7913   */\n      calldataload\n        /* \"#utility.yul\":7940:7958   */\n      0xffffffffffffffff\n        /* \"#utility.yul\":7932:7938   */\n      dup2\n        /* \"#utility.yul\":7929:7959   */\n      gt\n        /* \"#utility.yul\":7926:8043   */\n      iszero\n      tag_619\n      jumpi\n        /* \"#utility.yul\":7962:8041   */\n      tag_620\n      tag_564\n      jump\t// in\n    tag_620:\n        /* \"#utility.yul\":7926:8043   */\n    tag_619:\n        /* \"#utility.yul\":8067:8130   */\n      tag_621\n        /* \"#utility.yul\":8122:8129   */\n      dup6\n        /* \"#utility.yul\":8113:8119   */\n      dup3\n        /* \"#utility.yul\":8102:8111   */\n      dup7\n        /* \"#utility.yul\":8098:8120   */\n      add\n        /* \"#utility.yul\":8067:8130   */\n      tag_543\n      jump\t// in\n    tag_621:\n        /* \"#utility.yul\":8057:8130   */\n      swap2\n      pop\n        /* \"#utility.yul\":7852:8140   */\n      pop\n        /* \"#utility.yul\":7313:8147   */\n      swap3\n      pop\n      swap3\n      swap1\n      pop\n      jump\t// out\n        /* \"#utility.yul\":8153:9132   */\n    tag_83:\n        /* \"#utility.yul\":8250:8256   */\n      0x00\n        /* \"#utility.yul\":8258:8264   */\n      dup1\n        /* \"#utility.yul\":8266:8272   */\n      0x00\n        /* \"#utility.yul\":8315:8317   */\n      0x60\n        /* \"#utility.yul\":8303:8312   */\n      dup5\n        /* \"#utility.yul\":8294:8301   */\n      dup7\n        /* \"#utility.yul\":8290:8313   */\n      sub\n        /* \"#utility.yul\":8286:8318   */\n      slt\n        /* \"#utility.yul\":8283:8402   */\n      iszero\n      tag_623\n      jumpi\n        /* \"#utility.yul\":8321:8400   */\n      tag_624\n      tag_552\n      jump\t// in\n    tag_624:\n        /* \"#utility.yul\":8283:8402   */\n    tag_623:\n        /* \"#utility.yul\":8469:8470   */\n      0x00\n        /* \"#utility.yul\":8458:8467   */\n      dup5\n        /* \"#utility.yul\":8454:8471   */\n      add\n        /* \"#utility.yul\":8441:8472   */\n      calldataload\n        /* \"#utility.yul\":8499:8517   */\n      0xffffffffffffffff\n        /* \"#utility.yul\":8491:8497   */\n      dup2\n        /* \"#utility.yul\":8488:8518   */\n      gt\n        /* \"#utility.yul\":8485:8602   */\n      iszero\n      tag_625\n      jumpi\n        /* \"#utility.yul\":8521:8600   */\n      tag_626\n      tag_564\n      jump\t// in\n    tag_626:\n        /* \"#utility.yul\":8485:8602   */\n    tag_625:\n        /* \"#utility.yul\":8626:8689   */\n      tag_627\n        /* \"#utility.yul\":8681:8688   */\n      dup7\n        /* \"#utility.yul\":8672:8678   */\n      dup3\n        /* \"#utility.yul\":8661:8670   */\n      dup8\n        /* \"#utility.yul\":8657:8679   */\n      add\n        /* \"#utility.yul\":8626:8689   */\n      tag_543\n      jump\t// in\n    tag_627:\n        /* \"#utility.yul\":8616:8689   */\n      swap4\n      pop\n        /* \"#utility.yul\":8412:8699   */\n      pop\n        /* \"#utility.yul\":8766:8768   */\n      0x20\n        /* \"#utility.yul\":8755:8764   */\n      dup5\n        /* \"#utility.yul\":8751:8769   */\n      add\n        /* \"#utility.yul\":8738:8770   */\n      calldataload\n        /* \"#utility.yul\":8797:8815   */\n      0xffffffffffffffff\n        /* \"#utility.yul\":8789:8795   */\n      dup2\n        /* \"#utility.yul\":8786:8816   */\n      gt\n        /* \"#utility.yul\":8783:8900   */\n      iszero\n      tag_628\n      jumpi\n        /* \"#utility.yul\":8819:8898   */\n      tag_629\n      tag_564\n      jump\t// in\n    tag_629:\n        /* \"#utility.yul\":8783:8900   */\n    tag_628:\n        /* \"#utility.yul\":8924:8987   */\n      tag_630\n        /* \"#utility.yul\":8979:8986   */\n      dup7\n        /* \"#utility.yul\":8970:8976   */\n      dup3\n        /* \"#utility.yul\":8959:8968   */\n      dup8\n        /* \"#utility.yul\":8955:8977   */\n      add\n        /* \"#utility.yul\":8924:8987   */\n      tag_543\n      jump\t// in\n    tag_630:\n        /* \"#utility.yul\":8914:8987   */\n      swap3\n      pop\n        /* \"#utility.yul\":8709:8997   */\n      pop\n        /* \"#utility.yul\":9036:9038   */\n      0x40\n        /* \"#utility.yul\":9062:9115   */\n      tag_631\n        /* \"#utility.yul\":9107:9114   */\n      dup7\n        /* \"#utility.yul\":9098:9104   */\n      dup3\n        /* \"#utility.yul\":9087:9096   */\n      dup8\n        /* \"#utility.yul\":9083:9105   */\n      add\n        /* \"#utility.yul\":9062:9115   */\n      tag_527\n      jump\t// in\n    tag_631:\n        /* \"#utility.yul\":9052:9115   */\n      swap2\n      pop\n        /* \"#utility.yul\":9007:9125   */\n      pop\n        /* \"#utility.yul\":8153:9132   */\n      swap3\n      pop\n      swap3\n      pop\n      swap3\n      jump\t// out\n        /* \"#utility.yul\":9138:10263   */\n    tag_75:\n        /* \"#utility.yul\":9244:9250   */\n      0x00\n        /* \"#utility.yul\":9252:9258   */\n      dup1\n        /* \"#utility.yul\":9260:9266   */\n      0x00\n        /* \"#utility.yul\":9268:9274   */\n      dup1\n        /* \"#utility.yul\":9317:9320   */\n      0x80\n        /* \"#utility.yul\":9305:9314   */\n      dup6\n        /* \"#utility.yul\":9296:9303   */\n      dup8\n        /* \"#utility.yul\":9292:9315   */\n      sub\n        /* \"#utility.yul\":9288:9321   */\n      slt\n        /* \"#utility.yul\":9285:9405   */\n      iszero\n      tag_633\n      jumpi\n        /* \"#utility.yul\":9324:9403   */\n      tag_634\n      tag_552\n      jump\t// in\n    tag_634:\n        /* \"#utility.yul\":9285:9405   */\n    tag_633:\n        /* \"#utility.yul\":9472:9473   */\n      0x00\n        /* \"#utility.yul\":9461:9470   */\n      dup6\n        /* \"#utility.yul\":9457:9474   */\n      add\n        /* \"#utility.yul\":9444:9475   */\n      calldataload\n        /* \"#utility.yul\":9502:9520   */\n      0xffffffffffffffff\n        /* \"#utility.yul\":9494:9500   */\n      dup2\n        /* \"#utility.yul\":9491:9521   */\n      gt\n        /* \"#utility.yul\":9488:9605   */\n      iszero\n      tag_635\n      jumpi\n        /* \"#utility.yul\":9524:9603   */\n      tag_636\n      tag_564\n      jump\t// in\n    tag_636:\n        /* \"#utility.yul\":9488:9605   */\n    tag_635:\n        /* \"#utility.yul\":9629:9692   */\n      tag_637\n        /* \"#utility.yul\":9684:9691   */\n      dup8\n        /* \"#utility.yul\":9675:9681   */\n      dup3\n        /* \"#utility.yul\":9664:9673   */\n      dup9\n        /* \"#utility.yul\":9660:9682   */\n      add\n        /* \"#utility.yul\":9629:9692   */\n      tag_543\n      jump\t// in\n    tag_637:\n        /* \"#utility.yul\":9619:9692   */\n      swap5\n      pop\n        /* \"#utility.yul\":9415:9702   */\n      pop\n        /* \"#utility.yul\":9769:9771   */\n      0x20\n        /* \"#utility.yul\":9758:9767   */\n      dup6\n        /* \"#utility.yul\":9754:9772   */\n      add\n        /* \"#utility.yul\":9741:9773   */\n      calldataload\n        /* \"#utility.yul\":9800:9818   */\n      0xffffffffffffffff\n        /* \"#utility.yul\":9792:9798   */\n      dup2\n        /* \"#utility.yul\":9789:9819   */\n      gt\n        /* \"#utility.yul\":9786:9903   */\n      iszero\n      tag_638\n      jumpi\n        /* \"#utility.yul\":9822:9901   */\n      tag_639\n      tag_564\n      jump\t// in\n    tag_639:\n        /* \"#utility.yul\":9786:9903   */\n    tag_638:\n        /* \"#utility.yul\":9927:9990   */\n      tag_640\n        /* \"#utility.yul\":9982:9989   */\n      dup8\n        /* \"#utility.yul\":9973:9979   */\n      dup3\n        /* \"#utility.yul\":9962:9971   */\n      dup9\n        /* \"#utility.yul\":9958:9980   */\n      add\n        /* \"#utility.yul\":9927:9990   */\n      tag_543\n      jump\t// in\n    tag_640:\n        /* \"#utility.yul\":9917:9990   */\n      swap4\n      pop\n        /* \"#utility.yul\":9712:10000   */\n      pop\n        /* \"#utility.yul\":10039:10041   */\n      0x40\n        /* \"#utility.yul\":10065:10118   */\n      tag_641\n        /* \"#utility.yul\":10110:10117   */\n      dup8\n        /* \"#utility.yul\":10101:10107   */\n      dup3\n        /* \"#utility.yul\":10090:10099   */\n      dup9\n        /* \"#utility.yul\":10086:10108   */\n      add\n        /* \"#utility.yul\":10065:10118   */\n      tag_527\n      jump\t// in\n    tag_641:\n        /* \"#utility.yul\":10055:10118   */\n      swap3\n      pop\n        /* \"#utility.yul\":10010:10128   */\n      pop\n        /* \"#utility.yul\":10167:10169   */\n      0x60\n        /* \"#utility.yul\":10193:10246   */\n      tag_642\n        /* \"#utility.yul\":10238:10245   */\n      dup8\n        /* \"#utility.yul\":10229:10235   */\n      dup3\n        /* \"#utility.yul\":10218:10227   */\n      dup9\n        /* \"#utility.yul\":10214:10236   */\n      add\n        /* \"#utility.yul\":10193:10246   */\n      tag_527\n      jump\t// in\n    tag_642:\n        /* \"#utility.yul\":10183:10246   */\n      swap2\n      pop\n        /* \"#utility.yul\":10138:10256   */\n      pop\n        /* \"#utility.yul\":9138:10263   */\n      swap3\n      swap6\n      swap2\n      swap5\n      pop\n      swap3\n      pop\n      jump\t// out\n        /* \"#utility.yul\":10269:10448   */\n    tag_643:\n        /* \"#utility.yul\":10338:10348   */\n      0x00\n        /* \"#utility.yul\":10359:10405   */\n      tag_645\n        /* \"#utility.yul\":10401:10404   */\n      dup4\n        /* \"#utility.yul\":10393:10399   */\n      dup4\n        /* \"#utility.yul\":10359:10405   */\n      tag_646\n      jump\t// in\n    tag_645:\n        /* \"#utility.yul\":10437:10441   */\n      0x20\n        /* \"#utility.yul\":10432:10435   */\n      dup4\n        /* \"#utility.yul\":10428:10442   */\n      add\n        /* \"#utility.yul\":10414:10442   */\n      swap1\n      pop\n        /* \"#utility.yul\":10269:10448   */\n      swap3\n      swap2\n      pop\n      pop\n      jump\t// out\n        /* \"#utility.yul\":10454:10650   */\n    tag_647:\n        /* \"#utility.yul\":10543:10553   */\n      0x00\n        /* \"#utility.yul\":10578:10644   */\n      tag_649\n        /* \"#utility.yul\":10640:10643   */\n      dup4\n        /* \"#utility.yul\":10632:10638   */\n      dup4\n        /* \"#utility.yul\":10578:10644   */\n      tag_650\n      jump\t// in\n    tag_649:\n        /* \"#utility.yul\":10564:10644   */\n      swap1\n      pop\n        /* \"#utility.yul\":10454:10650   */\n      swap3\n      swap2\n      pop\n      pop\n      jump\t// out\n        /* \"#utility.yul\":10656:10764   */\n    tag_646:\n        /* \"#utility.yul\":10733:10757   */\n      tag_652\n        /* \"#utility.yul\":10751:10756   */\n      dup2\n        /* \"#utility.yul\":10733:10757   */\n      tag_653\n      jump\t// in\n    tag_652:\n        /* \"#utility.yul\":10728:10731   */\n      dup3\n        /* \"#utility.yul\":10721:10758   */\n      mstore\n        /* \"#utility.yul\":10656:10764   */\n      pop\n      pop\n      jump\t// out\n        /* \"#utility.yul\":10770:10888   */\n    tag_654:\n        /* \"#utility.yul\":10857:10881   */\n      tag_656\n        /* \"#utility.yul\":10875:10880   */\n      dup2\n        /* \"#utility.yul\":10857:10881   */\n      tag_653\n      jump\t// in\n    tag_656:\n        /* \"#utility.yul\":10852:10855   */\n      dup3\n        /* \"#utility.yul\":10845:10882   */\n      mstore\n        /* \"#utility.yul\":10770:10888   */\n      pop\n      pop\n      jump\t// out\n        /* \"#utility.yul\":10924:11656   */\n    tag_657:\n        /* \"#utility.yul\":11043:11046   */\n      0x00\n        /* \"#utility.yul\":11072:11126   */\n      tag_659\n        /* \"#utility.yul\":11120:11125   */\n      dup3\n        /* \"#utility.yul\":11072:11126   */\n      tag_660\n      jump\t// in\n    tag_659:\n        /* \"#utility.yul\":11142:11228   */\n      tag_661\n        /* \"#utility.yul\":11221:11227   */\n      dup2\n        /* \"#utility.yul\":11216:11219   */\n      dup6\n        /* \"#utility.yul\":11142:11228   */\n      tag_662\n      jump\t// in\n    tag_661:\n        /* \"#utility.yul\":11135:11228   */\n      swap4\n      pop\n        /* \"#utility.yul\":11252:11308   */\n      tag_663\n        /* \"#utility.yul\":11302:11307   */\n      dup4\n        /* \"#utility.yul\":11252:11308   */\n      tag_664\n      jump\t// in\n    tag_663:\n        /* \"#utility.yul\":11331:11338   */\n      dup1\n        /* \"#utility.yul\":11362:11363   */\n      0x00\n        /* \"#utility.yul\":11347:11631   */\n    tag_665:\n        /* \"#utility.yul\":11372:11378   */\n      dup4\n        /* \"#utility.yul\":11369:11370   */\n      dup2\n        /* \"#utility.yul\":11366:11379   */\n      lt\n        /* \"#utility.yul\":11347:11631   */\n      iszero\n      tag_667\n      jumpi\n        /* \"#utility.yul\":11448:11454   */\n      dup2\n        /* \"#utility.yul\":11442:11455   */\n      mload\n        /* \"#utility.yul\":11475:11538   */\n      tag_668\n        /* \"#utility.yul\":11534:11537   */\n      dup9\n        /* \"#utility.yul\":11519:11532   */\n      dup3\n        /* \"#utility.yul\":11475:11538   */\n      tag_643\n      jump\t// in\n    tag_668:\n        /* \"#utility.yul\":11468:11538   */\n      swap8\n      pop\n        /* \"#utility.yul\":11561:11621   */\n      tag_669\n        /* \"#utility.yul\":11614:11620   */\n      dup4\n        /* \"#utility.yul\":11561:11621   */\n      tag_670\n      jump\t// in\n    tag_669:\n        /* \"#utility.yul\":11551:11621   */\n      swap3\n      pop\n        /* \"#utility.yul\":11407:11631   */\n      pop\n        /* \"#utility.yul\":11394:11395   */\n      0x01\n        /* \"#utility.yul\":11391:11392   */\n      dup2\n        /* \"#utility.yul\":11387:11396   */\n      add\n        /* \"#utility.yul\":11382:11396   */\n      swap1\n      pop\n        /* \"#utility.yul\":11347:11631   */\n      jump(tag_665)\n    tag_667:\n        /* \"#utility.yul\":11351:11365   */\n      pop\n        /* \"#utility.yul\":11647:11650   */\n      dup6\n        /* \"#utility.yul\":11640:11650   */\n      swap4\n      pop\n        /* \"#utility.yul\":11048:11656   */\n      pop\n      pop\n      pop\n        /* \"#utility.yul\":10924:11656   */\n      swap3\n      swap2\n      pop\n      pop\n      jump\t// out\n        /* \"#utility.yul\":11690:12681   */\n    tag_671:\n        /* \"#utility.yul\":11829:11832   */\n      0x00\n        /* \"#utility.yul\":11858:11922   */\n      tag_673\n        /* \"#utility.yul\":11916:11921   */\n      dup3\n        /* \"#utility.yul\":11858:11922   */\n      tag_674\n      jump\t// in\n    tag_673:\n        /* \"#utility.yul\":11938:12034   */\n      tag_675\n        /* \"#utility.yul\":12027:12033   */\n      dup2\n        /* \"#utility.yul\":12022:12025   */\n      dup6\n        /* \"#utility.yul\":11938:12034   */\n      tag_676\n      jump\t// in\n    tag_675:\n        /* \"#utility.yul\":11931:12034   */\n      swap4\n      pop\n        /* \"#utility.yul\":12060:12063   */\n      dup4\n        /* \"#utility.yul\":12105:12109   */\n      0x20\n        /* \"#utility.yul\":12097:12103   */\n      dup3\n        /* \"#utility.yul\":12093:12110   */\n      mul\n        /* \"#utility.yul\":12088:12091   */\n      dup6\n        /* \"#utility.yul\":12084:12111   */\n      add\n        /* \"#utility.yul\":12135:12201   */\n      tag_677\n        /* \"#utility.yul\":12195:12200   */\n      dup6\n        /* \"#utility.yul\":12135:12201   */\n      tag_678\n      jump\t// in\n    tag_677:\n        /* \"#utility.yul\":12224:12231   */\n      dup1\n        /* \"#utility.yul\":12255:12256   */\n      0x00\n        /* \"#utility.yul\":12240:12636   */\n    tag_679:\n        /* \"#utility.yul\":12265:12271   */\n      dup6\n        /* \"#utility.yul\":12262:12263   */\n      dup2\n        /* \"#utility.yul\":12259:12272   */\n      lt\n        /* \"#utility.yul\":12240:12636   */\n      iszero\n      tag_681\n      jumpi\n        /* \"#utility.yul\":12336:12345   */\n      dup5\n        /* \"#utility.yul\":12330:12334   */\n      dup5\n        /* \"#utility.yul\":12326:12346   */\n      sub\n        /* \"#utility.yul\":12321:12324   */\n      dup10\n        /* \"#utility.yul\":12314:12347   */\n      mstore\n        /* \"#utility.yul\":12387:12393   */\n      dup2\n        /* \"#utility.yul\":12381:12394   */\n      mload\n        /* \"#utility.yul\":12415:12499   */\n      tag_682\n        /* \"#utility.yul\":12494:12498   */\n      dup6\n        /* \"#utility.yul\":12479:12492   */\n      dup3\n        /* \"#utility.yul\":12415:12499   */\n      tag_647\n      jump\t// in\n    tag_682:\n        /* \"#utility.yul\":12407:12499   */\n      swap5\n      pop\n        /* \"#utility.yul\":12522:12592   */\n      tag_683\n        /* \"#utility.yul\":12585:12591   */\n      dup4\n        /* \"#utility.yul\":12522:12592   */\n      tag_684\n      jump\t// in\n    tag_683:\n        /* \"#utility.yul\":12512:12592   */\n      swap3\n      pop\n        /* \"#utility.yul\":12621:12625   */\n      0x20\n        /* \"#utility.yul\":12616:12619   */\n      dup11\n        /* \"#utility.yul\":12612:12626   */\n      add\n        /* \"#utility.yul\":12605:12626   */\n      swap10\n      pop\n        /* \"#utility.yul\":12300:12636   */\n      pop\n        /* \"#utility.yul\":12287:12288   */\n      0x01\n        /* \"#utility.yul\":12284:12285   */\n      dup2\n        /* \"#utility.yul\":12280:12289   */\n      add\n        /* \"#utility.yul\":12275:12289   */\n      swap1\n      pop\n        /* \"#utility.yul\":12240:12636   */\n      jump(tag_679)\n    tag_681:\n        /* \"#utility.yul\":12244:12258   */\n      pop\n        /* \"#utility.yul\":12652:12656   */\n      dup3\n        /* \"#utility.yul\":12645:12656   */\n      swap8\n      pop\n        /* \"#utility.yul\":12672:12675   */\n      dup8\n        /* \"#utility.yul\":12665:12675   */\n      swap6\n      pop\n        /* \"#utility.yul\":11834:12681   */\n      pop\n      pop\n      pop\n      pop\n      pop\n        /* \"#utility.yul\":11690:12681   */\n      swap3\n      swap2\n      pop\n      pop\n      jump\t// out\n        /* \"#utility.yul\":12687:12802   */\n    tag_685:\n        /* \"#utility.yul\":12772:12795   */\n      tag_687\n        /* \"#utility.yul\":12789:12794   */\n      dup2\n        /* \"#utility.yul\":12772:12795   */\n      tag_688\n      jump\t// in\n    tag_687:\n        /* \"#utility.yul\":12767:12770   */\n      dup3\n        /* \"#utility.yul\":12760:12796   */\n      mstore\n        /* \"#utility.yul\":12687:12802   */\n      pop\n      pop\n      jump\t// out\n        /* \"#utility.yul\":12808:13152   */\n    tag_650:\n        /* \"#utility.yul\":12886:12889   */\n      0x00\n        /* \"#utility.yul\":12914:12953   */\n      tag_690\n        /* \"#utility.yul\":12947:12952   */\n      dup3\n        /* \"#utility.yul\":12914:12953   */\n      tag_691\n      jump\t// in\n    tag_690:\n        /* \"#utility.yul\":12969:13030   */\n      tag_692\n        /* \"#utility.yul\":13023:13029   */\n      dup2\n        /* \"#utility.yul\":13018:13021   */\n      dup6\n        /* \"#utility.yul\":12969:13030   */\n      tag_693\n      jump\t// in\n    tag_692:\n        /* \"#utility.yul\":12962:13030   */\n      swap4\n      pop\n        /* \"#utility.yul\":13039:13091   */\n      tag_694\n        /* \"#utility.yul\":13084:13090   */\n      dup2\n        /* \"#utility.yul\":13079:13082   */\n      dup6\n        /* \"#utility.yul\":13072:13076   */\n      0x20\n        /* \"#utility.yul\":13065:13070   */\n      dup7\n        /* \"#utility.yul\":13061:13077   */\n      add\n        /* \"#utility.yul\":13039:13091   */\n      tag_695\n      jump\t// in\n    tag_694:\n        /* \"#utility.yul\":13116:13145   */\n      tag_696\n        /* \"#utility.yul\":13138:13144   */\n      dup2\n        /* \"#utility.yul\":13116:13145   */\n      tag_697\n      jump\t// in\n    tag_696:\n        /* \"#utility.yul\":13111:13114   */\n      dup5\n        /* \"#utility.yul\":13107:13146   */\n      add\n        /* \"#utility.yul\":13100:13146   */\n      swap2\n      pop\n        /* \"#utility.yul\":12890:13152   */\n      pop\n        /* \"#utility.yul\":12808:13152   */\n      swap3\n      swap2\n      pop\n      pop\n      jump\t// out\n        /* \"#utility.yul\":13158:13522   */\n    tag_698:\n        /* \"#utility.yul\":13246:13249   */\n      0x00\n        /* \"#utility.yul\":13274:13313   */\n      tag_700\n        /* \"#utility.yul\":13307:13312   */\n      dup3\n        /* \"#utility.yul\":13274:13313   */\n      tag_691\n      jump\t// in\n    tag_700:\n        /* \"#utility.yul\":13329:13400   */\n      tag_701\n        /* \"#utility.yul\":13393:13399   */\n      dup2\n        /* \"#utility.yul\":13388:13391   */\n      dup6\n        /* \"#utility.yul\":13329:13400   */\n      tag_702\n      jump\t// in\n    tag_701:\n        /* \"#utility.yul\":13322:13400   */\n      swap4\n      pop\n        /* \"#utility.yul\":13409:13461   */\n      tag_703\n        /* \"#utility.yul\":13454:13460   */\n      dup2\n        /* \"#utility.yul\":13449:13452   */\n      dup6\n        /* \"#utility.yul\":13442:13446   */\n      0x20\n        /* \"#utility.yul\":13435:13440   */\n      dup7\n        /* \"#utility.yul\":13431:13447   */\n      add\n        /* \"#utility.yul\":13409:13461   */\n      tag_695\n      jump\t// in\n    tag_703:\n        /* \"#utility.yul\":13486:13515   */\n      tag_704\n        /* \"#utility.yul\":13508:13514   */\n      dup2\n        /* \"#utility.yul\":13486:13515   */\n      tag_697\n      jump\t// in\n    tag_704:\n        /* \"#utility.yul\":13481:13484   */\n      dup5\n        /* \"#utility.yul\":13477:13516   */\n      add\n        /* \"#utility.yul\":13470:13516   */\n      swap2\n      pop\n        /* \"#utility.yul\":13250:13522   */\n      pop\n        /* \"#utility.yul\":13158:13522   */\n      swap3\n      swap2\n      pop\n      pop\n      jump\t// out\n        /* \"#utility.yul\":13528:13905   */\n    tag_705:\n        /* \"#utility.yul\":13634:13637   */\n      0x00\n        /* \"#utility.yul\":13662:13701   */\n      tag_707\n        /* \"#utility.yul\":13695:13700   */\n      dup3\n        /* \"#utility.yul\":13662:13701   */\n      tag_691\n      jump\t// in\n    tag_707:\n        /* \"#utility.yul\":13717:13806   */\n      tag_708\n        /* \"#utility.yul\":13799:13805   */\n      dup2\n        /* \"#utility.yul\":13794:13797   */\n      dup6\n        /* \"#utility.yul\":13717:13806   */\n      tag_709\n      jump\t// in\n    tag_708:\n        /* \"#utility.yul\":13710:13806   */\n      swap4\n      pop\n        /* \"#utility.yul\":13815:13867   */\n      tag_710\n        /* \"#utility.yul\":13860:13866   */\n      dup2\n        /* \"#utility.yul\":13855:13858   */\n      dup6\n        /* \"#utility.yul\":13848:13852   */\n      0x20\n        /* \"#utility.yul\":13841:13846   */\n      dup7\n        /* \"#utility.yul\":13837:13853   */\n      add\n        /* \"#utility.yul\":13815:13867   */\n      tag_695\n      jump\t// in\n    tag_710:\n        /* \"#utility.yul\":13892:13898   */\n      dup1\n        /* \"#utility.yul\":13887:13890   */\n      dup5\n        /* \"#utility.yul\":13883:13899   */\n      add\n        /* \"#utility.yul\":13876:13899   */\n      swap2\n      pop\n        /* \"#utility.yul\":13638:13905   */\n      pop\n        /* \"#utility.yul\":13528:13905   */\n      swap3\n      swap2\n      pop\n      pop\n      jump\t// out\n        /* \"#utility.yul\":13911:14277   */\n    tag_711:\n        /* \"#utility.yul\":14053:14056   */\n      0x00\n        /* \"#utility.yul\":14074:14141   */\n      tag_713\n        /* \"#utility.yul\":14138:14140   */\n      0x1b\n        /* \"#utility.yul\":14133:14136   */\n      dup4\n        /* \"#utility.yul\":14074:14141   */\n      tag_702\n      jump\t// in\n    tag_713:\n        /* \"#utility.yul\":14067:14141   */\n      swap2\n      pop\n        /* \"#utility.yul\":14150:14243   */\n      tag_714\n        /* \"#utility.yul\":14239:14242   */\n      dup3\n        /* \"#utility.yul\":14150:14243   */\n      tag_715\n      jump\t// in\n    tag_714:\n        /* \"#utility.yul\":14268:14270   */\n      0x20\n        /* \"#utility.yul\":14263:14266   */\n      dup3\n        /* \"#utility.yul\":14259:14271   */\n      add\n        /* \"#utility.yul\":14252:14271   */\n      swap1\n      pop\n        /* \"#utility.yul\":13911:14277   */\n      swap2\n      swap1\n      pop\n      jump\t// out\n        /* \"#utility.yul\":14283:14649   */\n    tag_716:\n        /* \"#utility.yul\":14425:14428   */\n      0x00\n        /* \"#utility.yul\":14446:14513   */\n      tag_718\n        /* \"#utility.yul\":14510:14512   */\n      0x22\n        /* \"#utility.yul\":14505:14508   */\n      dup4\n        /* \"#utility.yul\":14446:14513   */\n      tag_702\n      jump\t// in\n    tag_718:\n        /* \"#utility.yul\":14439:14513   */\n      swap2\n      pop\n        /* \"#utility.yul\":14522:14615   */\n      tag_719\n        /* \"#utility.yul\":14611:14614   */\n      dup3\n        /* \"#utility.yul\":14522:14615   */\n      tag_720\n      jump\t// in\n    tag_719:\n        /* \"#utility.yul\":14640:14642   */\n      0x40\n        /* \"#utility.yul\":14635:14638   */\n      dup3\n        /* \"#utility.yul\":14631:14643   */\n      add\n        /* \"#utility.yul\":14624:14643   */\n      swap1\n      pop\n        /* \"#utility.yul\":14283:14649   */\n      swap2\n      swap1\n      pop\n      jump\t// out\n        /* \"#utility.yul\":14655:15021   */\n    tag_721:\n        /* \"#utility.yul\":14797:14800   */\n      0x00\n        /* \"#utility.yul\":14818:14885   */\n      tag_723\n        /* \"#utility.yul\":14882:14884   */\n      0x0b\n        /* \"#utility.yul\":14877:14880   */\n      dup4\n        /* \"#utility.yul\":14818:14885   */\n      tag_702\n      jump\t// in\n    tag_723:\n        /* \"#utility.yul\":14811:14885   */\n      swap2\n      pop\n        /* \"#utility.yul\":14894:14987   */\n      tag_724\n        /* \"#utility.yul\":14983:14986   */\n      dup3\n        /* \"#utility.yul\":14894:14987   */\n      tag_725\n      jump\t// in\n    tag_724:\n        /* \"#utility.yul\":15012:15014   */\n      0x20\n        /* \"#utility.yul\":15007:15010   */\n      dup3\n        /* \"#utility.yul\":15003:15015   */\n      add\n        /* \"#utility.yul\":14996:15015   */\n      swap1\n      pop\n        /* \"#utility.yul\":14655:15021   */\n      swap2\n      swap1\n      pop\n      jump\t// out\n        /* \"#utility.yul\":15027:15392   */\n    tag_726:\n        /* \"#utility.yul\":15169:15172   */\n      0x00\n        /* \"#utility.yul\":15190:15256   */\n      tag_728\n        /* \"#utility.yul\":15254:15255   */\n      0x09\n        /* \"#utility.yul\":15249:15252   */\n      dup4\n        /* \"#utility.yul\":15190:15256   */\n      tag_702\n      jump\t// in\n    tag_728:\n        /* \"#utility.yul\":15183:15256   */\n      swap2\n      pop\n        /* \"#utility.yul\":15265:15358   */\n      tag_729\n        /* \"#utility.yul\":15354:15357   */\n      dup3\n        /* \"#utility.yul\":15265:15358   */\n      tag_730\n      jump\t// in\n    tag_729:\n        /* \"#utility.yul\":15383:15385   */\n      0x20\n        /* \"#utility.yul\":15378:15381   */\n      dup3\n        /* \"#utility.yul\":15374:15386   */\n      add\n        /* \"#utility.yul\":15367:15386   */\n      swap1\n      pop\n        /* \"#utility.yul\":15027:15392   */\n      swap2\n      swap1\n      pop\n      jump\t// out\n        /* \"#utility.yul\":15398:15764   */\n    tag_731:\n        /* \"#utility.yul\":15540:15543   */\n      0x00\n        /* \"#utility.yul\":15561:15628   */\n      tag_733\n        /* \"#utility.yul\":15625:15627   */\n      0x0c\n        /* \"#utility.yul\":15620:15623   */\n      dup4\n        /* \"#utility.yul\":15561:15628   */\n      tag_702\n      jump\t// in\n    tag_733:\n        /* \"#utility.yul\":15554:15628   */\n      swap2\n      pop\n        /* \"#utility.yul\":15637:15730   */\n      tag_734\n        /* \"#utility.yul\":15726:15729   */\n      dup3\n        /* \"#utility.yul\":15637:15730   */\n      tag_735\n      jump\t// in\n    tag_734:\n        /* \"#utility.yul\":15755:15757   */\n      0x20\n        /* \"#utility.yul\":15750:15753   */\n      dup3\n        /* \"#utility.yul\":15746:15758   */\n      add\n        /* \"#utility.yul\":15739:15758   */\n      swap1\n      pop\n        /* \"#utility.yul\":15398:15764   */\n      swap2\n      swap1\n      pop\n      jump\t// out\n        /* \"#utility.yul\":15770:16136   */\n    tag_736:\n        /* \"#utility.yul\":15912:15915   */\n      0x00\n        /* \"#utility.yul\":15933:16000   */\n      tag_738\n        /* \"#utility.yul\":15997:15999   */\n      0x0d\n        /* \"#utility.yul\":15992:15995   */\n      dup4\n        /* \"#utility.yul\":15933:16000   */\n      tag_702\n      jump\t// in\n    tag_738:\n        /* \"#utility.yul\":15926:16000   */\n      swap2\n      pop\n        /* \"#utility.yul\":16009:16102   */\n      tag_739\n        /* \"#utility.yul\":16098:16101   */\n      dup3\n        /* \"#utility.yul\":16009:16102   */\n      tag_740\n      jump\t// in\n    tag_739:\n        /* \"#utility.yul\":16127:16129   */\n      0x20\n        /* \"#utility.yul\":16122:16125   */\n      dup3\n        /* \"#utility.yul\":16118:16130   */\n      add\n        /* \"#utility.yul\":16111:16130   */\n      swap1\n      pop\n        /* \"#utility.yul\":15770:16136   */\n      swap2\n      swap1\n      pop\n      jump\t// out\n        /* \"#utility.yul\":16142:16508   */\n    tag_741:\n        /* \"#utility.yul\":16284:16287   */\n      0x00\n        /* \"#utility.yul\":16305:16372   */\n      tag_743\n        /* \"#utility.yul\":16369:16371   */\n      0x16\n        /* \"#utility.yul\":16364:16367   */\n      dup4\n        /* \"#utility.yul\":16305:16372   */\n      tag_702\n      jump\t// in\n    tag_743:\n        /* \"#utility.yul\":16298:16372   */\n      swap2\n      pop\n        /* \"#utility.yul\":16381:16474   */\n      tag_744\n        /* \"#utility.yul\":16470:16473   */\n      dup3\n        /* \"#utility.yul\":16381:16474   */\n      tag_745\n      jump\t// in\n    tag_744:\n        /* \"#utility.yul\":16499:16501   */\n      0x20\n        /* \"#utility.yul\":16494:16497   */\n      dup3\n        /* \"#utility.yul\":16490:16502   */\n      add\n        /* \"#utility.yul\":16483:16502   */\n      swap1\n      pop\n        /* \"#utility.yul\":16142:16508   */\n      swap2\n      swap1\n      pop\n      jump\t// out\n        /* \"#utility.yul\":16514:16880   */\n    tag_746:\n        /* \"#utility.yul\":16656:16659   */\n      0x00\n        /* \"#utility.yul\":16677:16744   */\n      tag_748\n        /* \"#utility.yul\":16741:16743   */\n      0x0b\n        /* \"#utility.yul\":16736:16739   */\n      dup4\n        /* \"#utility.yul\":16677:16744   */\n      tag_702\n      jump\t// in\n    tag_748:\n        /* \"#utility.yul\":16670:16744   */\n      swap2\n      pop\n        /* \"#utility.yul\":16753:16846   */\n      tag_749\n        /* \"#utility.yul\":16842:16845   */\n      dup3\n        /* \"#utility.yul\":16753:16846   */\n      tag_750\n      jump\t// in\n    tag_749:\n        /* \"#utility.yul\":16871:16873   */\n      0x20\n        /* \"#utility.yul\":16866:16869   */\n      dup3\n        /* \"#utility.yul\":16862:16874   */\n      add\n        /* \"#utility.yul\":16855:16874   */\n      swap1\n      pop\n        /* \"#utility.yul\":16514:16880   */\n      swap2\n      swap1\n      pop\n      jump\t// out\n        /* \"#utility.yul\":16886:17004   */\n    tag_751:\n        /* \"#utility.yul\":16973:16997   */\n      tag_753\n        /* \"#utility.yul\":16991:16996   */\n      dup2\n        /* \"#utility.yul\":16973:16997   */\n      tag_754\n      jump\t// in\n    tag_753:\n        /* \"#utility.yul\":16968:16971   */\n      dup3\n        /* \"#utility.yul\":16961:16998   */\n      mstore\n        /* \"#utility.yul\":16886:17004   */\n      pop\n      pop\n      jump\t// out\n        /* \"#utility.yul\":17010:17285   */\n    tag_155:\n        /* \"#utility.yul\":17142:17145   */\n      0x00\n        /* \"#utility.yul\":17164:17259   */\n      tag_756\n        /* \"#utility.yul\":17255:17258   */\n      dup3\n        /* \"#utility.yul\":17246:17252   */\n      dup5\n        /* \"#utility.yul\":17164:17259   */\n      tag_705\n      jump\t// in\n    tag_756:\n        /* \"#utility.yul\":17157:17259   */\n      swap2\n      pop\n        /* \"#utility.yul\":17276:17279   */\n      dup2\n        /* \"#utility.yul\":17269:17279   */\n      swap1\n      pop\n        /* \"#utility.yul\":17010:17285   */\n      swap3\n      swap2\n      pop\n      pop\n      jump\t// out\n        /* \"#utility.yul\":17291:18153   */\n    tag_50:\n        /* \"#utility.yul\":17542:17546   */\n      0x00\n        /* \"#utility.yul\":17580:17583   */\n      0xc0\n        /* \"#utility.yul\":17569:17578   */\n      dup3\n        /* \"#utility.yul\":17565:17584   */\n      add\n        /* \"#utility.yul\":17557:17584   */\n      swap1\n      pop\n        /* \"#utility.yul\":17594:17665   */\n      tag_758\n        /* \"#utility.yul\":17662:17663   */\n      0x00\n        /* \"#utility.yul\":17651:17660   */\n      dup4\n        /* \"#utility.yul\":17647:17664   */\n      add\n        /* \"#utility.yul\":17638:17644   */\n      dup10\n        /* \"#utility.yul\":17594:17665   */\n      tag_654\n      jump\t// in\n    tag_758:\n        /* \"#utility.yul\":17675:17747   */\n      tag_759\n        /* \"#utility.yul\":17743:17745   */\n      0x20\n        /* \"#utility.yul\":17732:17741   */\n      dup4\n        /* \"#utility.yul\":17728:17746   */\n      add\n        /* \"#utility.yul\":17719:17725   */\n      dup9\n        /* \"#utility.yul\":17675:17747   */\n      tag_654\n      jump\t// in\n    tag_759:\n        /* \"#utility.yul\":17794:17803   */\n      dup2\n        /* \"#utility.yul\":17788:17792   */\n      dup2\n        /* \"#utility.yul\":17784:17804   */\n      sub\n        /* \"#utility.yul\":17779:17781   */\n      0x40\n        /* \"#utility.yul\":17768:17777   */\n      dup4\n        /* \"#utility.yul\":17764:17782   */\n      add\n        /* \"#utility.yul\":17757:17805   */\n      mstore\n        /* \"#utility.yul\":17822:17900   */\n      tag_760\n        /* \"#utility.yul\":17895:17899   */\n      dup2\n        /* \"#utility.yul\":17886:17892   */\n      dup8\n        /* \"#utility.yul\":17822:17900   */\n      tag_698\n      jump\t// in\n    tag_760:\n        /* \"#utility.yul\":17814:17900   */\n      swap1\n      pop\n        /* \"#utility.yul\":17910:17982   */\n      tag_761\n        /* \"#utility.yul\":17978:17980   */\n      0x60\n        /* \"#utility.yul\":17967:17976   */\n      dup4\n        /* \"#utility.yul\":17963:17981   */\n      add\n        /* \"#utility.yul\":17954:17960   */\n      dup7\n        /* \"#utility.yul\":17910:17982   */\n      tag_751\n      jump\t// in\n    tag_761:\n        /* \"#utility.yul\":17992:18065   */\n      tag_762\n        /* \"#utility.yul\":18060:18063   */\n      0x80\n        /* \"#utility.yul\":18049:18058   */\n      dup4\n        /* \"#utility.yul\":18045:18064   */\n      add\n        /* \"#utility.yul\":18036:18042   */\n      dup6\n        /* \"#utility.yul\":17992:18065   */\n      tag_751\n      jump\t// in\n    tag_762:\n        /* \"#utility.yul\":18075:18146   */\n      tag_763\n        /* \"#utility.yul\":18141:18144   */\n      0xa0\n        /* \"#utility.yul\":18130:18139   */\n      dup4\n        /* \"#utility.yul\":18126:18145   */\n      add\n        /* \"#utility.yul\":18117:18123   */\n      dup5\n        /* \"#utility.yul\":18075:18146   */\n      tag_685\n      jump\t// in\n    tag_763:\n        /* \"#utility.yul\":17291:18153   */\n      swap8\n      swap7\n      pop\n      pop\n      pop\n      pop\n      pop\n      pop\n      pop\n      jump\t// out\n        /* \"#utility.yul\":18159:18582   */\n    tag_55:\n        /* \"#utility.yul\":18300:18304   */\n      0x00\n        /* \"#utility.yul\":18338:18340   */\n      0x40\n        /* \"#utility.yul\":18327:18336   */\n      dup3\n        /* \"#utility.yul\":18323:18341   */\n      add\n        /* \"#utility.yul\":18315:18341   */\n      swap1\n      pop\n        /* \"#utility.yul\":18351:18422   */\n      tag_765\n        /* \"#utility.yul\":18419:18420   */\n      0x00\n        /* \"#utility.yul\":18408:18417   */\n      dup4\n        /* \"#utility.yul\":18404:18421   */\n      add\n        /* \"#utility.yul\":18395:18401   */\n      dup6\n        /* \"#utility.yul\":18351:18422   */\n      tag_654\n      jump\t// in\n    tag_765:\n        /* \"#utility.yul\":18469:18478   */\n      dup2\n        /* \"#utility.yul\":18463:18467   */\n      dup2\n        /* \"#utility.yul\":18459:18479   */\n      sub\n        /* \"#utility.yul\":18454:18456   */\n      0x20\n        /* \"#utility.yul\":18443:18452   */\n      dup4\n        /* \"#utility.yul\":18439:18457   */\n      add\n        /* \"#utility.yul\":18432:18480   */\n      mstore\n        /* \"#utility.yul\":18497:18575   */\n      tag_766\n        /* \"#utility.yul\":18570:18574   */\n      dup2\n        /* \"#utility.yul\":18561:18567   */\n      dup5\n        /* \"#utility.yul\":18497:18575   */\n      tag_698\n      jump\t// in\n    tag_766:\n        /* \"#utility.yul\":18489:18575   */\n      swap1\n      pop\n        /* \"#utility.yul\":18159:18582   */\n      swap4\n      swap3\n      pop\n      pop\n      pop\n      jump\t// out\n        /* \"#utility.yul\":18588:19212   */\n    tag_106:\n        /* \"#utility.yul\":18777:18781   */\n      0x00\n        /* \"#utility.yul\":18815:18817   */\n      0x60\n        /* \"#utility.yul\":18804:18813   */\n      dup3\n        /* \"#utility.yul\":18800:18818   */\n      add\n        /* \"#utility.yul\":18792:18818   */\n      swap1\n      pop\n        /* \"#utility.yul\":18828:18899   */\n      tag_768\n        /* \"#utility.yul\":18896:18897   */\n      0x00\n        /* \"#utility.yul\":18885:18894   */\n      dup4\n        /* \"#utility.yul\":18881:18898   */\n      add\n        /* \"#utility.yul\":18872:18878   */\n      dup7\n        /* \"#utility.yul\":18828:18899   */\n      tag_654\n      jump\t// in\n    tag_768:\n        /* \"#utility.yul\":18946:18955   */\n      dup2\n        /* \"#utility.yul\":18940:18944   */\n      dup2\n        /* \"#utility.yul\":18936:18956   */\n      sub\n        /* \"#utility.yul\":18931:18933   */\n      0x20\n        /* \"#utility.yul\":18920:18929   */\n      dup4\n        /* \"#utility.yul\":18916:18934   */\n      add\n        /* \"#utility.yul\":18909:18957   */\n      mstore\n        /* \"#utility.yul\":18974:19052   */\n      tag_769\n        /* \"#utility.yul\":19047:19051   */\n      dup2\n        /* \"#utility.yul\":19038:19044   */\n      dup6\n        /* \"#utility.yul\":18974:19052   */\n      tag_698\n      jump\t// in\n    tag_769:\n        /* \"#utility.yul\":18966:19052   */\n      swap1\n      pop\n        /* \"#utility.yul\":19099:19108   */\n      dup2\n        /* \"#utility.yul\":19093:19097   */\n      dup2\n        /* \"#utility.yul\":19089:19109   */\n      sub\n        /* \"#utility.yul\":19084:19086   */\n      0x40\n        /* \"#utility.yul\":19073:19082   */\n      dup4\n        /* \"#utility.yul\":19069:19087   */\n      add\n        /* \"#utility.yul\":19062:19110   */\n      mstore\n        /* \"#utility.yul\":19127:19205   */\n      tag_770\n        /* \"#utility.yul\":19200:19204   */\n      dup2\n        /* \"#utility.yul\":19191:19197   */\n      dup5\n        /* \"#utility.yul\":19127:19205   */\n      tag_698\n      jump\t// in\n    tag_770:\n        /* \"#utility.yul\":19119:19205   */\n      swap1\n      pop\n        /* \"#utility.yul\":18588:19212   */\n      swap5\n      swap4\n      pop\n      pop\n      pop\n      pop\n      jump\t// out\n        /* \"#utility.yul\":19218:20395   */\n    tag_101:\n        /* \"#utility.yul\":19605:19609   */\n      0x00\n        /* \"#utility.yul\":19643:19646   */\n      0x80\n        /* \"#utility.yul\":19632:19641   */\n      dup3\n        /* \"#utility.yul\":19628:19647   */\n      add\n        /* \"#utility.yul\":19620:19647   */\n      swap1\n      pop\n        /* \"#utility.yul\":19693:19702   */\n      dup2\n        /* \"#utility.yul\":19687:19691   */\n      dup2\n        /* \"#utility.yul\":19683:19703   */\n      sub\n        /* \"#utility.yul\":19679:19680   */\n      0x00\n        /* \"#utility.yul\":19668:19677   */\n      dup4\n        /* \"#utility.yul\":19664:19681   */\n      add\n        /* \"#utility.yul\":19657:19704   */\n      mstore\n        /* \"#utility.yul\":19721:19799   */\n      tag_772\n        /* \"#utility.yul\":19794:19798   */\n      dup2\n        /* \"#utility.yul\":19785:19791   */\n      dup8\n        /* \"#utility.yul\":19721:19799   */\n      tag_698\n      jump\t// in\n    tag_772:\n        /* \"#utility.yul\":19713:19799   */\n      swap1\n      pop\n        /* \"#utility.yul\":19846:19855   */\n      dup2\n        /* \"#utility.yul\":19840:19844   */\n      dup2\n        /* \"#utility.yul\":19836:19856   */\n      sub\n        /* \"#utility.yul\":19831:19833   */\n      0x20\n        /* \"#utility.yul\":19820:19829   */\n      dup4\n        /* \"#utility.yul\":19816:19834   */\n      add\n        /* \"#utility.yul\":19809:19857   */\n      mstore\n        /* \"#utility.yul\":19874:20002   */\n      tag_773\n        /* \"#utility.yul\":19997:20001   */\n      dup2\n        /* \"#utility.yul\":19988:19994   */\n      dup7\n        /* \"#utility.yul\":19874:20002   */\n      tag_671\n      jump\t// in\n    tag_773:\n        /* \"#utility.yul\":19866:20002   */\n      swap1\n      pop\n        /* \"#utility.yul\":20049:20058   */\n      dup2\n        /* \"#utility.yul\":20043:20047   */\n      dup2\n        /* \"#utility.yul\":20039:20059   */\n      sub\n        /* \"#utility.yul\":20034:20036   */\n      0x40\n        /* \"#utility.yul\":20023:20032   */\n      dup4\n        /* \"#utility.yul\":20019:20037   */\n      add\n        /* \"#utility.yul\":20012:20060   */\n      mstore\n        /* \"#utility.yul\":20077:20205   */\n      tag_774\n        /* \"#utility.yul\":20200:20204   */\n      dup2\n        /* \"#utility.yul\":20191:20197   */\n      dup6\n        /* \"#utility.yul\":20077:20205   */\n      tag_671\n      jump\t// in\n    tag_774:\n        /* \"#utility.yul\":20069:20205   */\n      swap1\n      pop\n        /* \"#utility.yul\":20252:20261   */\n      dup2\n        /* \"#utility.yul\":20246:20250   */\n      dup2\n        /* \"#utility.yul\":20242:20262   */\n      sub\n        /* \"#utility.yul\":20237:20239   */\n      0x60\n        /* \"#utility.yul\":20226:20235   */\n      dup4\n        /* \"#utility.yul\":20222:20240   */\n      add\n        /* \"#utility.yul\":20215:20263   */\n      mstore\n        /* \"#utility.yul\":20280:20388   */\n      tag_775\n        /* \"#utility.yul\":20383:20387   */\n      dup2\n        /* \"#utility.yul\":20374:20380   */\n      dup5\n        /* \"#utility.yul\":20280:20388   */\n      tag_657\n      jump\t// in\n    tag_775:\n        /* \"#utility.yul\":20272:20388   */\n      swap1\n      pop\n        /* \"#utility.yul\":19218:20395   */\n      swap6\n      swap5\n      pop\n      pop\n      pop\n      pop\n      pop\n      jump\t// out\n        /* \"#utility.yul\":20401:21620   */\n    tag_32:\n        /* \"#utility.yul\":20756:20760   */\n      0x00\n        /* \"#utility.yul\":20794:20797   */\n      0xa0\n        /* \"#utility.yul\":20783:20792   */\n      dup3\n        /* \"#utility.yul\":20779:20798   */\n      add\n        /* \"#utility.yul\":20771:20798   */\n      swap1\n      pop\n        /* \"#utility.yul\":20844:20853   */\n      dup2\n        /* \"#utility.yul\":20838:20842   */\n      dup2\n        /* \"#utility.yul\":20834:20854   */\n      sub\n        /* \"#utility.yul\":20830:20831   */\n      0x00\n        /* \"#utility.yul\":20819:20828   */\n      dup4\n        /* \"#utility.yul\":20815:20832   */\n      add\n        /* \"#utility.yul\":20808:20855   */\n      mstore\n        /* \"#utility.yul\":20872:20950   */\n      tag_777\n        /* \"#utility.yul\":20945:20949   */\n      dup2\n        /* \"#utility.yul\":20936:20942   */\n      dup9\n        /* \"#utility.yul\":20872:20950   */\n      tag_698\n      jump\t// in\n    tag_777:\n        /* \"#utility.yul\":20864:20950   */\n      swap1\n      pop\n        /* \"#utility.yul\":20997:21006   */\n      dup2\n        /* \"#utility.yul\":20991:20995   */\n      dup2\n        /* \"#utility.yul\":20987:21007   */\n      sub\n        /* \"#utility.yul\":20982:20984   */\n      0x20\n        /* \"#utility.yul\":20971:20980   */\n      dup4\n        /* \"#utility.yul\":20967:20985   */\n      add\n        /* \"#utility.yul\":20960:21008   */\n      mstore\n        /* \"#utility.yul\":21025:21103   */\n      tag_778\n        /* \"#utility.yul\":21098:21102   */\n      dup2\n        /* \"#utility.yul\":21089:21095   */\n      dup8\n        /* \"#utility.yul\":21025:21103   */\n      tag_698\n      jump\t// in\n    tag_778:\n        /* \"#utility.yul\":21017:21103   */\n      swap1\n      pop\n        /* \"#utility.yul\":21150:21159   */\n      dup2\n        /* \"#utility.yul\":21144:21148   */\n      dup2\n        /* \"#utility.yul\":21140:21160   */\n      sub\n        /* \"#utility.yul\":21135:21137   */\n      0x40\n        /* \"#utility.yul\":21124:21133   */\n      dup4\n        /* \"#utility.yul\":21120:21138   */\n      add\n        /* \"#utility.yul\":21113:21161   */\n      mstore\n        /* \"#utility.yul\":21178:21256   */\n      tag_779\n        /* \"#utility.yul\":21251:21255   */\n      dup2\n        /* \"#utility.yul\":21242:21248   */\n      dup7\n        /* \"#utility.yul\":21178:21256   */\n      tag_698\n      jump\t// in\n    tag_779:\n        /* \"#utility.yul\":21170:21256   */\n      swap1\n      pop\n        /* \"#utility.yul\":21303:21312   */\n      dup2\n        /* \"#utility.yul\":21297:21301   */\n      dup2\n        /* \"#utility.yul\":21293:21313   */\n      sub\n        /* \"#utility.yul\":21288:21290   */\n      0x60\n        /* \"#utility.yul\":21277:21286   */\n      dup4\n        /* \"#utility.yul\":21273:21291   */\n      add\n        /* \"#utility.yul\":21266:21314   */\n      mstore\n        /* \"#utility.yul\":21331:21409   */\n      tag_780\n        /* \"#utility.yul\":21404:21408   */\n      dup2\n        /* \"#utility.yul\":21395:21401   */\n      dup6\n        /* \"#utility.yul\":21331:21409   */\n      tag_698\n      jump\t// in\n    tag_780:\n        /* \"#utility.yul\":21323:21409   */\n      swap1\n      pop\n        /* \"#utility.yul\":21457:21466   */\n      dup2\n        /* \"#utility.yul\":21451:21455   */\n      dup2\n        /* \"#utility.yul\":21447:21467   */\n      sub\n        /* \"#utility.yul\":21441:21444   */\n      0x80\n        /* \"#utility.yul\":21430:21439   */\n      dup4\n        /* \"#utility.yul\":21426:21445   */\n      add\n        /* \"#utility.yul\":21419:21468   */\n      mstore\n        /* \"#utility.yul\":21485:21613   */\n      tag_781\n        /* \"#utility.yul\":21608:21612   */\n      dup2\n        /* \"#utility.yul\":21599:21605   */\n      dup5\n        /* \"#utility.yul\":21485:21613   */\n      tag_671\n      jump\t// in\n    tag_781:\n        /* \"#utility.yul\":21477:21613   */\n      swap1\n      pop\n        /* \"#utility.yul\":20401:21620   */\n      swap7\n      swap6\n      pop\n      pop\n      pop\n      pop\n      pop\n      pop\n      jump\t// out\n        /* \"#utility.yul\":21626:22552   */\n    tag_80:\n        /* \"#utility.yul\":21913:21917   */\n      0x00\n        /* \"#utility.yul\":21951:21954   */\n      0x80\n        /* \"#utility.yul\":21940:21949   */\n      dup3\n        /* \"#utility.yul\":21936:21955   */\n      add\n        /* \"#utility.yul\":21928:21955   */\n      swap1\n      pop\n        /* \"#utility.yul\":22001:22010   */\n      dup2\n        /* \"#utility.yul\":21995:21999   */\n      dup2\n        /* \"#utility.yul\":21991:22011   */\n      sub\n        /* \"#utility.yul\":21987:21988   */\n      0x00\n        /* \"#utility.yul\":21976:21985   */\n      dup4\n        /* \"#utility.yul\":21972:21989   */\n      add\n        /* \"#utility.yul\":21965:22012   */\n      mstore\n        /* \"#utility.yul\":22029:22107   */\n      tag_783\n        /* \"#utility.yul\":22102:22106   */\n      dup2\n        /* \"#utility.yul\":22093:22099   */\n      dup8\n        /* \"#utility.yul\":22029:22107   */\n      tag_698\n      jump\t// in\n    tag_783:\n        /* \"#utility.yul\":22021:22107   */\n      swap1\n      pop\n        /* \"#utility.yul\":22154:22163   */\n      dup2\n        /* \"#utility.yul\":22148:22152   */\n      dup2\n        /* \"#utility.yul\":22144:22164   */\n      sub\n        /* \"#utility.yul\":22139:22141   */\n      0x20\n        /* \"#utility.yul\":22128:22137   */\n      dup4\n        /* \"#utility.yul\":22124:22142   */\n      add\n        /* \"#utility.yul\":22117:22165   */\n      mstore\n        /* \"#utility.yul\":22182:22260   */\n      tag_784\n        /* \"#utility.yul\":22255:22259   */\n      dup2\n        /* \"#utility.yul\":22246:22252   */\n      dup7\n        /* \"#utility.yul\":22182:22260   */\n      tag_698\n      jump\t// in\n    tag_784:\n        /* \"#utility.yul\":22174:22260   */\n      swap1\n      pop\n        /* \"#utility.yul\":22270:22342   */\n      tag_785\n        /* \"#utility.yul\":22338:22340   */\n      0x40\n        /* \"#utility.yul\":22327:22336   */\n      dup4\n        /* \"#utility.yul\":22323:22341   */\n      add\n        /* \"#utility.yul\":22314:22320   */\n      dup6\n        /* \"#utility.yul\":22270:22342   */\n      tag_751\n      jump\t// in\n    tag_785:\n        /* \"#utility.yul\":22389:22398   */\n      dup2\n        /* \"#utility.yul\":22383:22387   */\n      dup2\n        /* \"#utility.yul\":22379:22399   */\n      sub\n        /* \"#utility.yul\":22374:22376   */\n      0x60\n        /* \"#utility.yul\":22363:22372   */\n      dup4\n        /* \"#utility.yul\":22359:22377   */\n      add\n        /* \"#utility.yul\":22352:22400   */\n      mstore\n        /* \"#utility.yul\":22417:22545   */\n      tag_786\n        /* \"#utility.yul\":22540:22544   */\n      dup2\n        /* \"#utility.yul\":22531:22537   */\n      dup5\n        /* \"#utility.yul\":22417:22545   */\n      tag_671\n      jump\t// in\n    tag_786:\n        /* \"#utility.yul\":22409:22545   */\n      swap1\n      pop\n        /* \"#utility.yul\":21626:22552   */\n      swap6\n      swap5\n      pop\n      pop\n      pop\n      pop\n      pop\n      jump\t// out\n        /* \"#utility.yul\":22558:22977   */\n    tag_288:\n        /* \"#utility.yul\":22724:22728   */\n      0x00\n        /* \"#utility.yul\":22762:22764   */\n      0x20\n        /* \"#utility.yul\":22751:22760   */\n      dup3\n        /* \"#utility.yul\":22747:22765   */\n      add\n        /* \"#utility.yul\":22739:22765   */\n      swap1\n      pop\n        /* \"#utility.yul\":22811:22820   */\n      dup2\n        /* \"#utility.yul\":22805:22809   */\n      dup2\n        /* \"#utility.yul\":22801:22821   */\n      sub\n        /* \"#utility.yul\":22797:22798   */\n      0x00\n        /* \"#utility.yul\":22786:22795   */\n      dup4\n        /* \"#utility.yul\":22782:22799   */\n      add\n        /* \"#utility.yul\":22775:22822   */\n      mstore\n        /* \"#utility.yul\":22839:22970   */\n      tag_788\n        /* \"#utility.yul\":22965:22969   */\n      dup2\n        /* \"#utility.yul\":22839:22970   */\n      tag_711\n      jump\t// in\n    tag_788:\n        /* \"#utility.yul\":22831:22970   */\n      swap1\n      pop\n        /* \"#utility.yul\":22558:22977   */\n      swap2\n      swap1\n      pop\n      jump\t// out\n        /* \"#utility.yul\":22983:23402   */\n    tag_477:\n        /* \"#utility.yul\":23149:23153   */\n      0x00\n        /* \"#utility.yul\":23187:23189   */\n      0x20\n        /* \"#utility.yul\":23176:23185   */\n      dup3\n        /* \"#utility.yul\":23172:23190   */\n      add\n        /* \"#utility.yul\":23164:23190   */\n      swap1\n      pop\n        /* \"#utility.yul\":23236:23245   */\n      dup2\n        /* \"#utility.yul\":23230:23234   */\n      dup2\n        /* \"#utility.yul\":23226:23246   */\n      sub\n        /* \"#utility.yul\":23222:23223   */\n      0x00\n        /* \"#utility.yul\":23211:23220   */\n      dup4\n        /* \"#utility.yul\":23207:23224   */\n      add\n        /* \"#utility.yul\":23200:23247   */\n      mstore\n        /* \"#utility.yul\":23264:23395   */\n      tag_790\n        /* \"#utility.yul\":23390:23394   */\n      dup2\n        /* \"#utility.yul\":23264:23395   */\n      tag_716\n      jump\t// in\n    tag_790:\n        /* \"#utility.yul\":23256:23395   */\n      swap1\n      pop\n        /* \"#utility.yul\":22983:23402   */\n      swap2\n      swap1\n      pop\n      jump\t// out\n        /* \"#utility.yul\":23408:23827   */\n    tag_307:\n        /* \"#utility.yul\":23574:23578   */\n      0x00\n        /* \"#utility.yul\":23612:23614   */\n      0x20\n        /* \"#utility.yul\":23601:23610   */\n      dup3\n        /* \"#utility.yul\":23597:23615   */\n      add\n        /* \"#utility.yul\":23589:23615   */\n      swap1\n      pop\n        /* \"#utility.yul\":23661:23670   */\n      dup2\n        /* \"#utility.yul\":23655:23659   */\n      dup2\n        /* \"#utility.yul\":23651:23671   */\n      sub\n        /* \"#utility.yul\":23647:23648   */\n      0x00\n        /* \"#utility.yul\":23636:23645   */\n      dup4\n        /* \"#utility.yul\":23632:23649   */\n      add\n        /* \"#utility.yul\":23625:23672   */\n      mstore\n        /* \"#utility.yul\":23689:23820   */\n      tag_792\n        /* \"#utility.yul\":23815:23819   */\n      dup2\n        /* \"#utility.yul\":23689:23820   */\n      tag_721\n      jump\t// in\n    tag_792:\n        /* \"#utility.yul\":23681:23820   */\n      swap1\n      pop\n        /* \"#utility.yul\":23408:23827   */\n      swap2\n      swap1\n      pop\n      jump\t// out\n        /* \"#utility.yul\":23833:24252   */\n    tag_117:\n        /* \"#utility.yul\":23999:24003   */\n      0x00\n        /* \"#utility.yul\":24037:24039   */\n      0x20\n        /* \"#utility.yul\":24026:24035   */\n      dup3\n        /* \"#utility.yul\":24022:24040   */\n      add\n        /* \"#utility.yul\":24014:24040   */\n      swap1\n      pop\n        /* \"#utility.yul\":24086:24095   */\n      dup2\n        /* \"#utility.yul\":24080:24084   */\n      dup2\n        /* \"#utility.yul\":24076:24096   */\n      sub\n        /* \"#utility.yul\":24072:24073   */\n      0x00\n        /* \"#utility.yul\":24061:24070   */\n      dup4\n        /* \"#utility.yul\":24057:24074   */\n      add\n        /* \"#utility.yul\":24050:24097   */\n      mstore\n        /* \"#utility.yul\":24114:24245   */\n      tag_794\n        /* \"#utility.yul\":24240:24244   */\n      dup2\n        /* \"#utility.yul\":24114:24245   */\n      tag_726\n      jump\t// in\n    tag_794:\n        /* \"#utility.yul\":24106:24245   */\n      swap1\n      pop\n        /* \"#utility.yul\":23833:24252   */\n      swap2\n      swap1\n      pop\n      jump\t// out\n        /* \"#utility.yul\":24258:24677   */\n    tag_177:\n        /* \"#utility.yul\":24424:24428   */\n      0x00\n        /* \"#utility.yul\":24462:24464   */\n      0x20\n        /* \"#utility.yul\":24451:24460   */\n      dup3\n        /* \"#utility.yul\":24447:24465   */\n      add\n        /* \"#utility.yul\":24439:24465   */\n      swap1\n      pop\n        /* \"#utility.yul\":24511:24520   */\n      dup2\n        /* \"#utility.yul\":24505:24509   */\n      dup2\n        /* \"#utility.yul\":24501:24521   */\n      sub\n        /* \"#utility.yul\":24497:24498   */\n      0x00\n        /* \"#utility.yul\":24486:24495   */\n      dup4\n        /* \"#utility.yul\":24482:24499   */\n      add\n        /* \"#utility.yul\":24475:24522   */\n      mstore\n        /* \"#utility.yul\":24539:24670   */\n      tag_796\n        /* \"#utility.yul\":24665:24669   */\n      dup2\n        /* \"#utility.yul\":24539:24670   */\n      tag_731\n      jump\t// in\n    tag_796:\n        /* \"#utility.yul\":24531:24670   */\n      swap1\n      pop\n        /* \"#utility.yul\":24258:24677   */\n      swap2\n      swap1\n      pop\n      jump\t// out\n        /* \"#utility.yul\":24683:25102   */\n    tag_161:\n        /* \"#utility.yul\":24849:24853   */\n      0x00\n        /* \"#utility.yul\":24887:24889   */\n      0x20\n        /* \"#utility.yul\":24876:24885   */\n      dup3\n        /* \"#utility.yul\":24872:24890   */\n      add\n        /* \"#utility.yul\":24864:24890   */\n      swap1\n      pop\n        /* \"#utility.yul\":24936:24945   */\n      dup2\n        /* \"#utility.yul\":24930:24934   */\n      dup2\n        /* \"#utility.yul\":24926:24946   */\n      sub\n        /* \"#utility.yul\":24922:24923   */\n      0x00\n        /* \"#utility.yul\":24911:24920   */\n      dup4\n        /* \"#utility.yul\":24907:24924   */\n      add\n        /* \"#utility.yul\":24900:24947   */\n      mstore\n        /* \"#utility.yul\":24964:25095   */\n      tag_798\n        /* \"#utility.yul\":25090:25094   */\n      dup2\n        /* \"#utility.yul\":24964:25095   */\n      tag_736\n      jump\t// in\n    tag_798:\n        /* \"#utility.yul\":24956:25095   */\n      swap1\n      pop\n        /* \"#utility.yul\":24683:25102   */\n      swap2\n      swap1\n      pop\n      jump\t// out\n        /* \"#utility.yul\":25108:25527   */\n    tag_473:\n        /* \"#utility.yul\":25274:25278   */\n      0x00\n        /* \"#utility.yul\":25312:25314   */\n      0x20\n        /* \"#utility.yul\":25301:25310   */\n      dup3\n        /* \"#utility.yul\":25297:25315   */\n      add\n        /* \"#utility.yul\":25289:25315   */\n      swap1\n      pop\n        /* \"#utility.yul\":25361:25370   */\n      dup2\n        /* \"#utility.yul\":25355:25359   */\n      dup2\n        /* \"#utility.yul\":25351:25371   */\n      sub\n        /* \"#utility.yul\":25347:25348   */\n      0x00\n        /* \"#utility.yul\":25336:25345   */\n      dup4\n        /* \"#utility.yul\":25332:25349   */\n      add\n        /* \"#utility.yul\":25325:25372   */\n      mstore\n        /* \"#utility.yul\":25389:25520   */\n      tag_800\n        /* \"#utility.yul\":25515:25519   */\n      dup2\n        /* \"#utility.yul\":25389:25520   */\n      tag_741\n      jump\t// in\n    tag_800:\n        /* \"#utility.yul\":25381:25520   */\n      swap1\n      pop\n        /* \"#utility.yul\":25108:25527   */\n      swap2\n      swap1\n      pop\n      jump\t// out\n        /* \"#utility.yul\":25533:25952   */\n    tag_204:\n        /* \"#utility.yul\":25699:25703   */\n      0x00\n        /* \"#utility.yul\":25737:25739   */\n      0x20\n        /* \"#utility.yul\":25726:25735   */\n      dup3\n        /* \"#utility.yul\":25722:25740   */\n      add\n        /* \"#utility.yul\":25714:25740   */\n      swap1\n      pop\n        /* \"#utility.yul\":25786:25795   */\n      dup2\n        /* \"#utility.yul\":25780:25784   */\n      dup2\n        /* \"#utility.yul\":25776:25796   */\n      sub\n        /* \"#utility.yul\":25772:25773   */\n      0x00\n        /* \"#utility.yul\":25761:25770   */\n      dup4\n        /* \"#utility.yul\":25757:25774   */\n      add\n        /* \"#utility.yul\":25750:25797   */\n      mstore\n        /* \"#utility.yul\":25814:25945   */\n      tag_802\n        /* \"#utility.yul\":25940:25944   */\n      dup2\n        /* \"#utility.yul\":25814:25945   */\n      tag_746\n      jump\t// in\n    tag_802:\n        /* \"#utility.yul\":25806:25945   */\n      swap1\n      pop\n        /* \"#utility.yul\":25533:25952   */\n      swap2\n      swap1\n      pop\n      jump\t// out\n        /* \"#utility.yul\":25958:26087   */\n    tag_521:\n        /* \"#utility.yul\":25992:25998   */\n      0x00\n        /* \"#utility.yul\":26019:26039   */\n      tag_804\n      tag_805\n      jump\t// in\n    tag_804:\n        /* \"#utility.yul\":26009:26039   */\n      swap1\n      pop\n        /* \"#utility.yul\":26048:26081   */\n      tag_806\n        /* \"#utility.yul\":26076:26080   */\n      dup3\n        /* \"#utility.yul\":26068:26074   */\n      dup3\n        /* \"#utility.yul\":26048:26081   */\n      tag_807\n      jump\t// in\n    tag_806:\n        /* \"#utility.yul\":25958:26087   */\n      swap2\n      swap1\n      pop\n      jump\t// out\n        /* \"#utility.yul\":26093:26168   */\n    tag_805:\n        /* \"#utility.yul\":26126:26132   */\n      0x00\n        /* \"#utility.yul\":26159:26161   */\n      0x40\n        /* \"#utility.yul\":26153:26162   */\n      mload\n        /* \"#utility.yul\":26143:26162   */\n      swap1\n      pop\n        /* \"#utility.yul\":26093:26168   */\n      swap1\n      jump\t// out\n        /* \"#utility.yul\":26174:26482   */\n    tag_520:\n        /* \"#utility.yul\":26236:26240   */\n      0x00\n        /* \"#utility.yul\":26326:26344   */\n      0xffffffffffffffff\n        /* \"#utility.yul\":26318:26324   */\n      dup3\n        /* \"#utility.yul\":26315:26345   */\n      gt\n        /* \"#utility.yul\":26312:26368   */\n      iszero\n      tag_810\n      jumpi\n        /* \"#utility.yul\":26348:26366   */\n      tag_811\n      tag_812\n      jump\t// in\n    tag_811:\n        /* \"#utility.yul\":26312:26368   */\n    tag_810:\n        /* \"#utility.yul\":26386:26415   */\n      tag_813\n        /* \"#utility.yul\":26408:26414   */\n      dup3\n        /* \"#utility.yul\":26386:26415   */\n      tag_697\n      jump\t// in\n    tag_813:\n        /* \"#utility.yul\":26378:26415   */\n      swap1\n      pop\n        /* \"#utility.yul\":26470:26474   */\n      0x20\n        /* \"#utility.yul\":26464:26468   */\n      dup2\n        /* \"#utility.yul\":26460:26475   */\n      add\n        /* \"#utility.yul\":26452:26475   */\n      swap1\n      pop\n        /* \"#utility.yul\":26174:26482   */\n      swap2\n      swap1\n      pop\n      jump\t// out\n        /* \"#utility.yul\":26488:26620   */\n    tag_664:\n        /* \"#utility.yul\":26555:26559   */\n      0x00\n        /* \"#utility.yul\":26578:26581   */\n      dup2\n        /* \"#utility.yul\":26570:26581   */\n      swap1\n      pop\n        /* \"#utility.yul\":26608:26612   */\n      0x20\n        /* \"#utility.yul\":26603:26606   */\n      dup3\n        /* \"#utility.yul\":26599:26613   */\n      add\n        /* \"#utility.yul\":26591:26613   */\n      swap1\n      pop\n        /* \"#utility.yul\":26488:26620   */\n      swap2\n      swap1\n      pop\n      jump\t// out\n        /* \"#utility.yul\":26626:26768   */\n    tag_678:\n        /* \"#utility.yul\":26703:26707   */\n      0x00\n        /* \"#utility.yul\":26726:26729   */\n      dup2\n        /* \"#utility.yul\":26718:26729   */\n      swap1\n      pop\n        /* \"#utility.yul\":26756:26760   */\n      0x20\n        /* \"#utility.yul\":26751:26754   */\n      dup3\n        /* \"#utility.yul\":26747:26761   */\n      add\n        /* \"#utility.yul\":26739:26761   */\n      swap1\n      pop\n        /* \"#utility.yul\":26626:26768   */\n      swap2\n      swap1\n      pop\n      jump\t// out\n        /* \"#utility.yul\":26774:26888   */\n    tag_660:\n        /* \"#utility.yul\":26841:26847   */\n      0x00\n        /* \"#utility.yul\":26875:26880   */\n      dup2\n        /* \"#utility.yul\":26869:26881   */\n      mload\n        /* \"#utility.yul\":26859:26881   */\n      swap1\n      pop\n        /* \"#utility.yul\":26774:26888   */\n      swap2\n      swap1\n      pop\n      jump\t// out\n        /* \"#utility.yul\":26894:27018   */\n    tag_674:\n        /* \"#utility.yul\":26971:26977   */\n      0x00\n        /* \"#utility.yul\":27005:27010   */\n      dup2\n        /* \"#utility.yul\":26999:27011   */\n      mload\n        /* \"#utility.yul\":26989:27011   */\n      swap1\n      pop\n        /* \"#utility.yul\":26894:27018   */\n      swap2\n      swap1\n      pop\n      jump\t// out\n        /* \"#utility.yul\":27024:27123   */\n    tag_691:\n        /* \"#utility.yul\":27076:27082   */\n      0x00\n        /* \"#utility.yul\":27110:27115   */\n      dup2\n        /* \"#utility.yul\":27104:27116   */\n      mload\n        /* \"#utility.yul\":27094:27116   */\n      swap1\n      pop\n        /* \"#utility.yul\":27024:27123   */\n      swap2\n      swap1\n      pop\n      jump\t// out\n        /* \"#utility.yul\":27129:27242   */\n    tag_670:\n        /* \"#utility.yul\":27199:27203   */\n      0x00\n        /* \"#utility.yul\":27231:27235   */\n      0x20\n        /* \"#utility.yul\":27226:27229   */\n      dup3\n        /* \"#utility.yul\":27222:27236   */\n      add\n        /* \"#utility.yul\":27214:27236   */\n      swap1\n      pop\n        /* \"#utility.yul\":27129:27242   */\n      swap2\n      swap1\n      pop\n      jump\t// out\n        /* \"#utility.yul\":27248:27371   */\n    tag_684:\n        /* \"#utility.yul\":27328:27332   */\n      0x00\n        /* \"#utility.yul\":27360:27364   */\n      0x20\n        /* \"#utility.yul\":27355:27358   */\n      dup3\n        /* \"#utility.yul\":27351:27365   */\n      add\n        /* \"#utility.yul\":27343:27365   */\n      swap1\n      pop\n        /* \"#utility.yul\":27248:27371   */\n      swap2\n      swap1\n      pop\n      jump\t// out\n        /* \"#utility.yul\":27377:27561   */\n    tag_662:\n        /* \"#utility.yul\":27476:27487   */\n      0x00\n        /* \"#utility.yul\":27510:27516   */\n      dup3\n        /* \"#utility.yul\":27505:27508   */\n      dup3\n        /* \"#utility.yul\":27498:27517   */\n      mstore\n        /* \"#utility.yul\":27550:27554   */\n      0x20\n        /* \"#utility.yul\":27545:27548   */\n      dup3\n        /* \"#utility.yul\":27541:27555   */\n      add\n        /* \"#utility.yul\":27526:27555   */\n      swap1\n      pop\n        /* \"#utility.yul\":27377:27561   */\n      swap3\n      swap2\n      pop\n      pop\n      jump\t// out\n        /* \"#utility.yul\":27567:27761   */\n    tag_676:\n        /* \"#utility.yul\":27676:27687   */\n      0x00\n        /* \"#utility.yul\":27710:27716   */\n      dup3\n        /* \"#utility.yul\":27705:27708   */\n      dup3\n        /* \"#utility.yul\":27698:27717   */\n      mstore\n        /* \"#utility.yul\":27750:27754   */\n      0x20\n        /* \"#utility.yul\":27745:27748   */\n      dup3\n        /* \"#utility.yul\":27741:27755   */\n      add\n        /* \"#utility.yul\":27726:27755   */\n      swap1\n      pop\n        /* \"#utility.yul\":27567:27761   */\n      swap3\n      swap2\n      pop\n      pop\n      jump\t// out\n        /* \"#utility.yul\":27767:27926   */\n    tag_693:\n        /* \"#utility.yul\":27841:27852   */\n      0x00\n        /* \"#utility.yul\":27875:27881   */\n      dup3\n        /* \"#utility.yul\":27870:27873   */\n      dup3\n        /* \"#utility.yul\":27863:27882   */\n      mstore\n        /* \"#utility.yul\":27915:27919   */\n      0x20\n        /* \"#utility.yul\":27910:27913   */\n      dup3\n        /* \"#utility.yul\":27906:27920   */\n      add\n        /* \"#utility.yul\":27891:27920   */\n      swap1\n      pop\n        /* \"#utility.yul\":27767:27926   */\n      swap3\n      swap2\n      pop\n      pop\n      jump\t// out\n        /* \"#utility.yul\":27932:28101   */\n    tag_702:\n        /* \"#utility.yul\":28016:28027   */\n      0x00\n        /* \"#utility.yul\":28050:28056   */\n      dup3\n        /* \"#utility.yul\":28045:28048   */\n      dup3\n        /* \"#utility.yul\":28038:28057   */\n      mstore\n        /* \"#utility.yul\":28090:28094   */\n      0x20\n        /* \"#utility.yul\":28085:28088   */\n      dup3\n        /* \"#utility.yul\":28081:28095   */\n      add\n        /* \"#utility.yul\":28066:28095   */\n      swap1\n      pop\n        /* \"#utility.yul\":27932:28101   */\n      swap3\n      swap2\n      pop\n      pop\n      jump\t// out\n        /* \"#utility.yul\":28107:28255   */\n    tag_709:\n        /* \"#utility.yul\":28209:28220   */\n      0x00\n        /* \"#utility.yul\":28246:28249   */\n      dup2\n        /* \"#utility.yul\":28231:28249   */\n      swap1\n      pop\n        /* \"#utility.yul\":28107:28255   */\n      swap3\n      swap2\n      pop\n      pop\n      jump\t// out\n        /* \"#utility.yul\":28261:28357   */\n    tag_653:\n        /* \"#utility.yul\":28298:28305   */\n      0x00\n        /* \"#utility.yul\":28327:28351   */\n      tag_827\n        /* \"#utility.yul\":28345:28350   */\n      dup3\n        /* \"#utility.yul\":28327:28351   */\n      tag_828\n      jump\t// in\n    tag_827:\n        /* \"#utility.yul\":28316:28351   */\n      swap1\n      pop\n        /* \"#utility.yul\":28261:28357   */\n      swap2\n      swap1\n      pop\n      jump\t// out\n        /* \"#utility.yul\":28363:28467   */\n    tag_829:\n        /* \"#utility.yul\":28408:28415   */\n      0x00\n        /* \"#utility.yul\":28437:28461   */\n      tag_831\n        /* \"#utility.yul\":28455:28460   */\n      dup3\n        /* \"#utility.yul\":28437:28461   */\n      tag_828\n      jump\t// in\n    tag_831:\n        /* \"#utility.yul\":28426:28461   */\n      swap1\n      pop\n        /* \"#utility.yul\":28363:28467   */\n      swap2\n      swap1\n      pop\n      jump\t// out\n        /* \"#utility.yul\":28473:28563   */\n    tag_832:\n        /* \"#utility.yul\":28507:28514   */\n      0x00\n        /* \"#utility.yul\":28550:28555   */\n      dup2\n        /* \"#utility.yul\":28543:28556   */\n      iszero\n        /* \"#utility.yul\":28536:28557   */\n      iszero\n        /* \"#utility.yul\":28525:28557   */\n      swap1\n      pop\n        /* \"#utility.yul\":28473:28563   */\n      swap2\n      swap1\n      pop\n      jump\t// out\n        /* \"#utility.yul\":28569:28645   */\n    tag_688:\n        /* \"#utility.yul\":28605:28612   */\n      0x00\n        /* \"#utility.yul\":28634:28639   */\n      dup2\n        /* \"#utility.yul\":28623:28639   */\n      swap1\n      pop\n        /* \"#utility.yul\":28569:28645   */\n      swap2\n      swap1\n      pop\n      jump\t// out\n        /* \"#utility.yul\":28651:28777   */\n    tag_828:\n        /* \"#utility.yul\":28688:28695   */\n      0x00\n        /* \"#utility.yul\":28728:28770   */\n      0xffffffffffffffffffffffffffffffffffffffff\n        /* \"#utility.yul\":28721:28726   */\n      dup3\n        /* \"#utility.yul\":28717:28771   */\n      and\n        /* \"#utility.yul\":28706:28771   */\n      swap1\n      pop\n        /* \"#utility.yul\":28651:28777   */\n      swap2\n      swap1\n      pop\n      jump\t// out\n        /* \"#utility.yul\":28783:28860   */\n    tag_754:\n        /* \"#utility.yul\":28820:28827   */\n      0x00\n        /* \"#utility.yul\":28849:28854   */\n      dup2\n        /* \"#utility.yul\":28838:28854   */\n      swap1\n      pop\n        /* \"#utility.yul\":28783:28860   */\n      swap2\n      swap1\n      pop\n      jump\t// out\n        /* \"#utility.yul\":28866:29020   */\n    tag_526:\n        /* \"#utility.yul\":28950:28956   */\n      dup3\n        /* \"#utility.yul\":28945:28948   */\n      dup2\n        /* \"#utility.yul\":28940:28943   */\n      dup4\n        /* \"#utility.yul\":28927:28957   */\n      calldatacopy\n        /* \"#utility.yul\":29012:29013   */\n      0x00\n        /* \"#utility.yul\":29003:29009   */\n      dup4\n        /* \"#utility.yul\":28998:29001   */\n      dup4\n        /* \"#utility.yul\":28994:29010   */\n      add\n        /* \"#utility.yul\":28987:29014   */\n      mstore\n        /* \"#utility.yul\":28866:29020   */\n      pop\n      pop\n      pop\n      jump\t// out\n        /* \"#utility.yul\":29026:29333   */\n    tag_695:\n        /* \"#utility.yul\":29094:29095   */\n      0x00\n        /* \"#utility.yul\":29104:29217   */\n    tag_839:\n        /* \"#utility.yul\":29118:29124   */\n      dup4\n        /* \"#utility.yul\":29115:29116   */\n      dup2\n        /* \"#utility.yul\":29112:29125   */\n      lt\n        /* \"#utility.yul\":29104:29217   */\n      iszero\n      tag_841\n      jumpi\n        /* \"#utility.yul\":29203:29204   */\n      dup1\n        /* \"#utility.yul\":29198:29201   */\n      dup3\n        /* \"#utility.yul\":29194:29205   */\n      add\n        /* \"#utility.yul\":29188:29206   */\n      mload\n        /* \"#utility.yul\":29184:29185   */\n      dup2\n        /* \"#utility.yul\":29179:29182   */\n      dup5\n        /* \"#utility.yul\":29175:29186   */\n      add\n        /* \"#utility.yul\":29168:29207   */\n      mstore\n        /* \"#utility.yul\":29140:29142   */\n      0x20\n        /* \"#utility.yul\":29137:29138   */\n      dup2\n        /* \"#utility.yul\":29133:29143   */\n      add\n        /* \"#utility.yul\":29128:29143   */\n      swap1\n      pop\n        /* \"#utility.yul\":29104:29217   */\n      jump(tag_839)\n    tag_841:\n        /* \"#utility.yul\":29235:29241   */\n      dup4\n        /* \"#utility.yul\":29232:29233   */\n      dup2\n        /* \"#utility.yul\":29229:29242   */\n      gt\n        /* \"#utility.yul\":29226:29327   */\n      iszero\n      tag_842\n      jumpi\n        /* \"#utility.yul\":29315:29316   */\n      0x00\n        /* \"#utility.yul\":29306:29312   */\n      dup5\n        /* \"#utility.yul\":29301:29304   */\n      dup5\n        /* \"#utility.yul\":29297:29313   */\n      add\n        /* \"#utility.yul\":29290:29317   */\n      mstore\n        /* \"#utility.yul\":29226:29327   */\n    tag_842:\n        /* \"#utility.yul\":29075:29333   */\n      pop\n        /* \"#utility.yul\":29026:29333   */\n      pop\n      pop\n      pop\n      jump\t// out\n        /* \"#utility.yul\":29339:29659   */\n    tag_120:\n        /* \"#utility.yul\":29383:29389   */\n      0x00\n        /* \"#utility.yul\":29420:29421   */\n      0x02\n        /* \"#utility.yul\":29414:29418   */\n      dup3\n        /* \"#utility.yul\":29410:29422   */\n      div\n        /* \"#utility.yul\":29400:29422   */\n      swap1\n      pop\n        /* \"#utility.yul\":29467:29468   */\n      0x01\n        /* \"#utility.yul\":29461:29465   */\n      dup3\n        /* \"#utility.yul\":29457:29469   */\n      and\n        /* \"#utility.yul\":29488:29506   */\n      dup1\n        /* \"#utility.yul\":29478:29559   */\n      tag_844\n      jumpi\n        /* \"#utility.yul\":29544:29548   */\n      0x7f\n        /* \"#utility.yul\":29536:29542   */\n      dup3\n        /* \"#utility.yul\":29532:29549   */\n      and\n        /* \"#utility.yul\":29522:29549   */\n      swap2\n      pop\n        /* \"#utility.yul\":29478:29559   */\n    tag_844:\n        /* \"#utility.yul\":29606:29608   */\n      0x20\n        /* \"#utility.yul\":29598:29604   */\n      dup3\n        /* \"#utility.yul\":29595:29609   */\n      lt\n        /* \"#utility.yul\":29575:29593   */\n      dup2\n        /* \"#utility.yul\":29572:29610   */\n      eq\n        /* \"#utility.yul\":29569:29653   */\n      iszero\n      tag_845\n      jumpi\n        /* \"#utility.yul\":29625:29643   */\n      tag_846\n      tag_847\n      jump\t// in\n    tag_846:\n        /* \"#utility.yul\":29569:29653   */\n    tag_845:\n        /* \"#utility.yul\":29390:29659   */\n      pop\n        /* \"#utility.yul\":29339:29659   */\n      swap2\n      swap1\n      pop\n      jump\t// out\n        /* \"#utility.yul\":29665:29946   */\n    tag_807:\n        /* \"#utility.yul\":29748:29775   */\n      tag_849\n        /* \"#utility.yul\":29770:29774   */\n      dup3\n        /* \"#utility.yul\":29748:29775   */\n      tag_697\n      jump\t// in\n    tag_849:\n        /* \"#utility.yul\":29740:29746   */\n      dup2\n        /* \"#utility.yul\":29736:29776   */\n      add\n        /* \"#utility.yul\":29878:29884   */\n      dup2\n        /* \"#utility.yul\":29866:29876   */\n      dup2\n        /* \"#utility.yul\":29863:29885   */\n      lt\n        /* \"#utility.yul\":29842:29860   */\n      0xffffffffffffffff\n        /* \"#utility.yul\":29830:29840   */\n      dup3\n        /* \"#utility.yul\":29827:29861   */\n      gt\n        /* \"#utility.yul\":29824:29886   */\n      or\n        /* \"#utility.yul\":29821:29909   */\n      iszero\n      tag_850\n      jumpi\n        /* \"#utility.yul\":29889:29907   */\n      tag_851\n      tag_812\n      jump\t// in\n    tag_851:\n        /* \"#utility.yul\":29821:29909   */\n    tag_850:\n        /* \"#utility.yul\":29929:29939   */\n      dup1\n        /* \"#utility.yul\":29925:29927   */\n      0x40\n        /* \"#utility.yul\":29918:29940   */\n      mstore\n        /* \"#utility.yul\":29708:29946   */\n      pop\n        /* \"#utility.yul\":29665:29946   */\n      pop\n      pop\n      jump\t// out\n        /* \"#utility.yul\":29952:30132   */\n    tag_114:\n        /* \"#utility.yul\":30000:30077   */\n      0x4e487b7100000000000000000000000000000000000000000000000000000000\n        /* \"#utility.yul\":29997:29998   */\n      0x00\n        /* \"#utility.yul\":29990:30078   */\n      mstore\n        /* \"#utility.yul\":30097:30101   */\n      0x21\n        /* \"#utility.yul\":30094:30095   */\n      0x04\n        /* \"#utility.yul\":30087:30102   */\n      mstore\n        /* \"#utility.yul\":30121:30125   */\n      0x24\n        /* \"#utility.yul\":30118:30119   */\n      0x00\n        /* \"#utility.yul\":30111:30126   */\n      revert\n        /* \"#utility.yul\":30138:30318   */\n    tag_847:\n        /* \"#utility.yul\":30186:30263   */\n      0x4e487b7100000000000000000000000000000000000000000000000000000000\n        /* \"#utility.yul\":30183:30184   */\n      0x00\n        /* \"#utility.yul\":30176:30264   */\n      mstore\n        /* \"#utility.yul\":30283:30287   */\n      0x22\n        /* \"#utility.yul\":30280:30281   */\n      0x04\n        /* \"#utility.yul\":30273:30288   */\n      mstore\n        /* \"#utility.yul\":30307:30311   */\n      0x24\n        /* \"#utility.yul\":30304:30305   */\n      0x00\n        /* \"#utility.yul\":30297:30312   */\n      revert\n        /* \"#utility.yul\":30324:30504   */\n    tag_812:\n        /* \"#utility.yul\":30372:30449   */\n      0x4e487b7100000000000000000000000000000000000000000000000000000000\n        /* \"#utility.yul\":30369:30370   */\n      0x00\n        /* \"#utility.yul\":30362:30450   */\n      mstore\n        /* \"#utility.yul\":30469:30473   */\n      0x41\n        /* \"#utility.yul\":30466:30467   */\n      0x04\n        /* \"#utility.yul\":30459:30474   */\n      mstore\n        /* \"#utility.yul\":30493:30497   */\n      0x24\n        /* \"#utility.yul\":30490:30491   */\n      0x00\n        /* \"#utility.yul\":30483:30498   */\n      revert\n        /* \"#utility.yul\":30510:30627   */\n    tag_547:\n        /* \"#utility.yul\":30619:30620   */\n      0x00\n        /* \"#utility.yul\":30616:30617   */\n      dup1\n        /* \"#utility.yul\":30609:30621   */\n      revert\n        /* \"#utility.yul\":30633:30750   */\n    tag_524:\n        /* \"#utility.yul\":30742:30743   */\n      0x00\n        /* \"#utility.yul\":30739:30740   */\n      dup1\n        /* \"#utility.yul\":30732:30744   */\n      revert\n        /* \"#utility.yul\":30756:30873   */\n    tag_564:\n        /* \"#utility.yul\":30865:30866   */\n      0x00\n        /* \"#utility.yul\":30862:30863   */\n      dup1\n        /* \"#utility.yul\":30855:30867   */\n      revert\n        /* \"#utility.yul\":30879:30996   */\n    tag_552:\n        /* \"#utility.yul\":30988:30989   */\n      0x00\n        /* \"#utility.yul\":30985:30986   */\n      dup1\n        /* \"#utility.yul\":30978:30990   */\n      revert\n        /* \"#utility.yul\":31002:31104   */\n    tag_697:\n        /* \"#utility.yul\":31043:31049   */\n      0x00\n        /* \"#utility.yul\":31094:31096   */\n      0x1f\n        /* \"#utility.yul\":31090:31097   */\n      not\n        /* \"#utility.yul\":31085:31087   */\n      0x1f\n        /* \"#utility.yul\":31078:31083   */\n      dup4\n        /* \"#utility.yul\":31074:31088   */\n      add\n        /* \"#utility.yul\":31070:31098   */\n      and\n        /* \"#utility.yul\":31060:31098   */\n      swap1\n      pop\n        /* \"#utility.yul\":31002:31104   */\n      swap2\n      swap1\n      pop\n      jump\t// out\n        /* \"#utility.yul\":31110:31287   */\n    tag_715:\n        /* \"#utility.yul\":31250:31279   */\n      0x596f7520616c726561647920636865636b207468697320636173650000000000\n        /* \"#utility.yul\":31246:31247   */\n      0x00\n        /* \"#utility.yul\":31238:31244   */\n      dup3\n        /* \"#utility.yul\":31234:31248   */\n      add\n        /* \"#utility.yul\":31227:31280   */\n      mstore\n        /* \"#utility.yul\":31110:31287   */\n      pop\n      jump\t// out\n        /* \"#utility.yul\":31293:31514   */\n    tag_720:\n        /* \"#utility.yul\":31433:31467   */\n      0x596f7572206c6f67696e20616c726561647920657869737420696e2073797374\n        /* \"#utility.yul\":31429:31430   */\n      0x00\n        /* \"#utility.yul\":31421:31427   */\n      dup3\n        /* \"#utility.yul\":31417:31431   */\n      add\n        /* \"#utility.yul\":31410:31468   */\n      mstore\n        /* \"#utility.yul\":31502:31506   */\n      0x656d000000000000000000000000000000000000000000000000000000000000\n        /* \"#utility.yul\":31497:31499   */\n      0x20\n        /* \"#utility.yul\":31489:31495   */\n      dup3\n        /* \"#utility.yul\":31485:31500   */\n      add\n        /* \"#utility.yul\":31478:31507   */\n      mstore\n        /* \"#utility.yul\":31293:31514   */\n      pop\n      jump\t// out\n        /* \"#utility.yul\":31520:31681   */\n    tag_725:\n        /* \"#utility.yul\":31660:31673   */\n      0x4c6f772062616c616e6365000000000000000000000000000000000000000000\n        /* \"#utility.yul\":31656:31657   */\n      0x00\n        /* \"#utility.yul\":31648:31654   */\n      dup3\n        /* \"#utility.yul\":31644:31658   */\n      add\n        /* \"#utility.yul\":31637:31674   */\n      mstore\n        /* \"#utility.yul\":31520:31681   */\n      pop\n      jump\t// out\n        /* \"#utility.yul\":31687:31846   */\n    tag_730:\n        /* \"#utility.yul\":31827:31838   */\n      0x466f7262696464656e0000000000000000000000000000000000000000000000\n        /* \"#utility.yul\":31823:31824   */\n      0x00\n        /* \"#utility.yul\":31815:31821   */\n      dup3\n        /* \"#utility.yul\":31811:31825   */\n      add\n        /* \"#utility.yul\":31804:31839   */\n      mstore\n        /* \"#utility.yul\":31687:31846   */\n      pop\n      jump\t// out\n        /* \"#utility.yul\":31852:32014   */\n    tag_735:\n        /* \"#utility.yul\":31992:32006   */\n      0x596f75206e6f7420757365720000000000000000000000000000000000000000\n        /* \"#utility.yul\":31988:31989   */\n      0x00\n        /* \"#utility.yul\":31980:31986   */\n      dup3\n        /* \"#utility.yul\":31976:31990   */\n      add\n        /* \"#utility.yul\":31969:32007   */\n      mstore\n        /* \"#utility.yul\":31852:32014   */\n      pop\n      jump\t// out\n        /* \"#utility.yul\":32020:32183   */\n    tag_740:\n        /* \"#utility.yul\":32160:32175   */\n      0x596f75206e6f742061646d696e00000000000000000000000000000000000000\n        /* \"#utility.yul\":32156:32157   */\n      0x00\n        /* \"#utility.yul\":32148:32154   */\n      dup3\n        /* \"#utility.yul\":32144:32158   */\n      add\n        /* \"#utility.yul\":32137:32176   */\n      mstore\n        /* \"#utility.yul\":32020:32183   */\n      pop\n      jump\t// out\n        /* \"#utility.yul\":32189:32361   */\n    tag_745:\n        /* \"#utility.yul\":32329:32353   */\n      0x596f7520616c7265616479207265676973746572656400000000000000000000\n        /* \"#utility.yul\":32325:32326   */\n      0x00\n        /* \"#utility.yul\":32317:32323   */\n      dup3\n        /* \"#utility.yul\":32313:32327   */\n      add\n        /* \"#utility.yul\":32306:32354   */\n      mstore\n        /* \"#utility.yul\":32189:32361   */\n      pop\n      jump\t// out\n        /* \"#utility.yul\":32367:32528   */\n    tag_750:\n        /* \"#utility.yul\":32507:32520   */\n      0x57726f6e67204c6f67696e000000000000000000000000000000000000000000\n        /* \"#utility.yul\":32503:32504   */\n      0x00\n        /* \"#utility.yul\":32495:32501   */\n      dup3\n        /* \"#utility.yul\":32491:32505   */\n      add\n        /* \"#utility.yul\":32484:32521   */\n      mstore\n        /* \"#utility.yul\":32367:32528   */\n      pop\n      jump\t// out\n        /* \"#utility.yul\":32534:32656   */\n    tag_530:\n        /* \"#utility.yul\":32607:32631   */\n      tag_869\n        /* \"#utility.yul\":32625:32630   */\n      dup2\n        /* \"#utility.yul\":32607:32631   */\n      tag_653\n      jump\t// in\n    tag_869:\n        /* \"#utility.yul\":32600:32605   */\n      dup2\n        /* \"#utility.yul\":32597:32632   */\n      eq\n        /* \"#utility.yul\":32587:32650   */\n      tag_870\n      jumpi\n        /* \"#utility.yul\":32646:32647   */\n      0x00\n        /* \"#utility.yul\":32643:32644   */\n      dup1\n        /* \"#utility.yul\":32636:32648   */\n      revert\n        /* \"#utility.yul\":32587:32650   */\n    tag_870:\n        /* \"#utility.yul\":32534:32656   */\n      pop\n      jump\t// out\n        /* \"#utility.yul\":32662:32800   */\n    tag_534:\n        /* \"#utility.yul\":32743:32775   */\n      tag_872\n        /* \"#utility.yul\":32769:32774   */\n      dup2\n        /* \"#utility.yul\":32743:32775   */\n      tag_829\n      jump\t// in\n    tag_872:\n        /* \"#utility.yul\":32736:32741   */\n      dup2\n        /* \"#utility.yul\":32733:32776   */\n      eq\n        /* \"#utility.yul\":32723:32794   */\n      tag_873\n      jumpi\n        /* \"#utility.yul\":32790:32791   */\n      0x00\n        /* \"#utility.yul\":32787:32788   */\n      dup1\n        /* \"#utility.yul\":32780:32792   */\n      revert\n        /* \"#utility.yul\":32723:32794   */\n    tag_873:\n        /* \"#utility.yul\":32662:32800   */\n      pop\n      jump\t// out\n        /* \"#utility.yul\":32806:32922   */\n    tag_538:\n        /* \"#utility.yul\":32876:32897   */\n      tag_875\n        /* \"#utility.yul\":32891:32896   */\n      dup2\n        /* \"#utility.yul\":32876:32897   */\n      tag_832\n      jump\t// in\n    tag_875:\n        /* \"#utility.yul\":32869:32874   */\n      dup2\n        /* \"#utility.yul\":32866:32898   */\n      eq\n        /* \"#utility.yul\":32856:32916   */\n      tag_876\n      jumpi\n        /* \"#utility.yul\":32912:32913   */\n      0x00\n        /* \"#utility.yul\":32909:32910   */\n      dup1\n        /* \"#utility.yul\":32902:32914   */\n      revert\n        /* \"#utility.yul\":32856:32916   */\n    tag_876:\n        /* \"#utility.yul\":32806:32922   */\n      pop\n      jump\t// out\n        /* \"#utility.yul\":32928:33048   */\n    tag_542:\n        /* \"#utility.yul\":33000:33023   */\n      tag_878\n        /* \"#utility.yul\":33017:33022   */\n      dup2\n        /* \"#utility.yul\":33000:33023   */\n      tag_688\n      jump\t// in\n    tag_878:\n        /* \"#utility.yul\":32993:32998   */\n      dup2\n        /* \"#utility.yul\":32990:33024   */\n      eq\n        /* \"#utility.yul\":32980:33042   */\n      tag_879\n      jumpi\n        /* \"#utility.yul\":33038:33039   */\n      0x00\n        /* \"#utility.yul\":33035:33036   */\n      dup1\n        /* \"#utility.yul\":33028:33040   */\n      revert\n        /* \"#utility.yul\":32980:33042   */\n    tag_879:\n        /* \"#utility.yul\":32928:33048   */\n      pop\n      jump\t// out\n\n    auxdata: 0xa2646970667358221220384bfd64ec4e9245cee4f32f6e13b2ef57d52668173097701f31bd3e6247b7f264736f6c63430008070033\n}\n",
				"bytecode": {
					"linkReferences": {},
					"object": "60806040523480156200001157600080fd5b506040518060400160405280600581526020017f627579657200000000000000000000000000000000000000000000000000000081525060008080815260200190815260200160002090805190602001906200006f92919062000292565b506040518060400160405280600681526020017f73656c6c65720000000000000000000000000000000000000000000000000000815250600080600181526020019081526020016000209080519060200190620000ce92919062000292565b506040518060400160405280600481526020017f73686f70000000000000000000000000000000000000000000000000000000008152506000806002815260200190815260200160002090805190602001906200012d92919062000292565b506040518060400160405280600581526020017f61646d696e0000000000000000000000000000000000000000000000000000008152506000806003815260200190815260200160002090805190602001906200018c92919062000292565b506040518060400160405280600881526020017f70726f7669646572000000000000000000000000000000000000000000000000815250600080600481526020019081526020016000209080519060200190620001eb92919062000292565b506040518060400160405280600481526020017f62616e6b000000000000000000000000000000000000000000000000000000008152506000806005815260200190815260200160002090805190602001906200024a92919062000292565b5033600560006101000a81548173ffffffffffffffffffffffffffffffffffffffff021916908373ffffffffffffffffffffffffffffffffffffffff160217905550620003a7565b828054620002a09062000342565b90600052602060002090601f016020900481019282620002c4576000855562000310565b82601f10620002df57805160ff191683800117855562000310565b8280016001018555821562000310579182015b828111156200030f578251825591602001919060010190620002f2565b5b5090506200031f919062000323565b5090565b5b808211156200033e57600081600090555060010162000324565b5090565b600060028204905060018216806200035b57607f821691505b6020821081141562000372576200037162000378565b5b50919050565b7f4e487b7100000000000000000000000000000000000000000000000000000000600052602260045260246000fd5b614c2380620003b76000396000f3fe608060405234801561001057600080fd5b50600436106101375760003560e01c806383db0f6d116100b8578063ac6fa7c31161007c578063ac6fa7c314610331578063b038316c1461034d578063bce62a7414610369578063c3d5fd3914610385578063dffc8b06146103a6578063f8f98b79146103d857610137565b806383db0f6d146102a05780638403f848146102bc57806399b958ee146102d85780639d344d10146102f9578063a59d105f1461031557610137565b80633a7d280c116100ff5780633a7d280c146101f957806354504c121461022a5780637558b2f81461024c5780637b3c7488146102685780637ccb2bd81461028457610137565b806308e748581461013c5780632059b7ad146101705780632156a7811461018c5780632d6abf59146101a85780632f0185c4146101c4575b600080fd5b61015660048036038101906101519190613c6b565b6103f4565b604051610167959493929190614598565b60405180910390f35b61018a60048036038101906101859190613f4f565b6108f9565b005b6101a660048036038101906101a19190613ef3565b610adf565b005b6101c260048036038101906101bd9190613d50565b610ba6565b005b6101de60048036038101906101d99190613eaa565b610f38565b6040516101f09695949392919061445a565b60405180910390f35b610213600480360381019061020e9190613eaa565b611208565b6040516102219291906144c2565b60405180910390f35b6102326115ff565b604051610243959493929190614598565b60405180910390f35b61026660048036038101906102619190613def565b611b02565b005b610282600480360381019061027d9190613eaa565b611c7d565b005b61029e60048036038101906102999190613ef3565b611f48565b005b6102ba60048036038101906102b59190613c98565b612051565b005b6102d660048036038101906102d191906140ae565b6121a0565b005b6102e06122ce565b6040516102f0949392919061460e565b60405180910390f35b610313600480360381019061030e9190614023565b612683565b005b61032f600480360381019061032a9190613cc5565b6126ac565b005b61034b60048036038101906103469190613eaa565b6127ab565b005b61036760048036038101906103629190613eaa565b612985565b005b610383600480360381019061037e9190613eaa565b612b5f565b005b61038d612e2a565b60405161039d9493929190614537565b60405180910390f35b6103c060048036038101906103bb9190613eaa565b61335d565b6040516103cf939291906144f2565b60405180910390f35b6103f260048036038101906103ed9190613fab565b613565565b005b60608060608060606003600260003373ffffffffffffffffffffffffffffffffffffffff1673ffffffffffffffffffffffffffffffffffffffff1681526020019081526020016000206000015481600581111561045457610453614971565b5b14610494576040517f08c379a000000000000000000000000000000000000000000000000000000000815260040161048b906146c8565b60405180910390fd5b6000600260008973ffffffffffffffffffffffffffffffffffffffff1673ffffffffffffffffffffffffffffffffffffffff168152602001908152602001600020604051806080016040529081600082015481526020016001820180546104fa9061490e565b80601f01602080910402602001604051908101604052809291908181526020018280546105269061490e565b80156105735780601f1061054857610100808354040283529160200191610573565b820191906000526020600020905b81548152906001019060200180831161055657829003601f168201915b5050505050815260200160028201805461058c9061490e565b80601f01602080910402602001604051908101604052809291908181526020018280546105b89061490e565b80156106055780601f106105da57610100808354040283529160200191610605565b820191906000526020600020905b8154815290600101906020018083116105e857829003601f168201915b5050505050815260200160038201805480602002602001604051908101604052809291908181526020016000905b828210156106df5783829060005260206000200180546106529061490e565b80601f016020809104026020016040519081016040528092919081815260200182805461067e9061490e565b80156106cb5780601f106106a0576101008083540402835291602001916106cb565b820191906000526020600020905b8154815290600101906020018083116106ae57829003601f168201915b505050505081526020019060010190610633565b505050508152505090506000600c60008a73ffffffffffffffffffffffffffffffffffffffff1673ffffffffffffffffffffffffffffffffffffffff16815260200190815260200160002060009054906101000a900473ffffffffffffffffffffffffffffffffffffffff1690506000600b60008373ffffffffffffffffffffffffffffffffffffffff1673ffffffffffffffffffffffffffffffffffffffff1681526020019081526020016000206040518060600160405290816000820180546107a99061490e565b80601f01602080910402602001604051908101604052809291908181526020018280546107d59061490e565b80156108225780601f106107f757610100808354040283529160200191610822565b820191906000526020600020905b81548152906001019060200180831161080557829003601f168201915b5050505050815260200160018201805461083b9061490e565b80601f01602080910402602001604051908101604052809291908181526020018280546108679061490e565b80156108b45780601f10610889576101008083540402835291602001916108b4565b820191906000526020600020905b81548152906001019060200180831161089757829003601f168201915b50505050508152602001600282015481525050905082602001519850826040015197508060200151965080600001519550826060015194505050505091939590929450565b6003600260003373ffffffffffffffffffffffffffffffffffffffff1673ffffffffffffffffffffffffffffffffffffffff1681526020019081526020016000206000015481600581111561095157610950614971565b5b14610991576040517f08c379a0000000000000000000000000000000000000000000000000000000008152600401610988906146c8565b60405180910390fd5b60006010846040516109a39190614443565b90815260200160405180910390206040518060800160405290816000820160009054906101000a900473ffffffffffffffffffffffffffffffffffffffff1673ffffffffffffffffffffffffffffffffffffffff1673ffffffffffffffffffffffffffffffffffffffff16815260200160018201548152602001600282015481526020016003820160009054906101000a900460ff16151515158152505090506000816040015190508315610a9e578060026000846000015173ffffffffffffffffffffffffffffffffffffffff1673ffffffffffffffffffffffffffffffffffffffff168152602001908152602001600020600001819055505b6001601086604051610ab09190614443565b908152602001604051809103902060030160006101000a81548160ff0219169083151502179055505050505050565b600560009054906101000a900473ffffffffffffffffffffffffffffffffffffffff1673ffffffffffffffffffffffffffffffffffffffff163373ffffffffffffffffffffffffffffffffffffffff1614610b6f576040517f08c379a0000000000000000000000000000000000000000000000000000000008152600401610b6690614708565b60405180910390fd5b6000600580811115610b8457610b83614971565b5b9050610ba16040518060200160405280600081525084838561365a565b505050565b610c89600260003373ffffffffffffffffffffffffffffffffffffffff1673ffffffffffffffffffffffffffffffffffffffff1681526020019081526020016000206001018054610bf69061490e565b80601f0160208091040260200160405190810160405280929190818152602001828054610c229061490e565b8015610c6f5780601f10610c4457610100808354040283529160200191610c6f565b820191906000526020600020905b815481529060010190602001808311610c5257829003601f168201915b50505050506040518060200160405280600081525061395d565b15610cc9576040517f08c379a0000000000000000000000000000000000000000000000000000000008152600401610cc0906146e8565b60405180910390fd5b60608060006040518060c001604052803373ffffffffffffffffffffffffffffffffffffffff1681526020018873ffffffffffffffffffffffffffffffffffffffff168152602001878152602001848152602001838152602001858152509050600e60008873ffffffffffffffffffffffffffffffffffffffff1673ffffffffffffffffffffffffffffffffffffffff16815260200190815260200160002085908060018154018082558091505060019003906000526020600020016000909190919091509080519060200190610da19291906139b6565b50600260003373ffffffffffffffffffffffffffffffffffffffff1673ffffffffffffffffffffffffffffffffffffffff16815260200190815260200160002060030185908060018154018082558091505060019003906000526020600020016000909190919091509080519060200190610e1d9291906139b6565b5080600f86604051610e2f9190614443565b908152602001604051809103902060008201518160000160006101000a81548173ffffffffffffffffffffffffffffffffffffffff021916908373ffffffffffffffffffffffffffffffffffffffff16021790555060208201518160010160006101000a81548173ffffffffffffffffffffffffffffffffffffffff021916908373ffffffffffffffffffffffffffffffffffffffff1602179055506040820151816002019080519060200190610ee79291906139b6565b506060820151816003019080519060200190610f04929190613a3c565b506080820151816004019080519060200190610f21929190613a3c565b5060a0820151816005015590505050505050505050565b6000806060600080600080600f88604051610f539190614443565b90815260200160405180910390206040518060c00160405290816000820160009054906101000a900473ffffffffffffffffffffffffffffffffffffffff1673ffffffffffffffffffffffffffffffffffffffff1673ffffffffffffffffffffffffffffffffffffffff1681526020016001820160009054906101000a900473ffffffffffffffffffffffffffffffffffffffff1673ffffffffffffffffffffffffffffffffffffffff1673ffffffffffffffffffffffffffffffffffffffff1681526020016002820180546110289061490e565b80601f01602080910402602001604051908101604052809291908181526020018280546110549061490e565b80156110a15780601f10611076576101008083540402835291602001916110a1565b820191906000526020600020905b81548152906001019060200180831161108457829003601f168201915b505050505081526020016003820180548060200260200160405190810160405280929190818152602001828054801561112f57602002820191906000526020600020905b8160009054906101000a900473ffffffffffffffffffffffffffffffffffffffff1673ffffffffffffffffffffffffffffffffffffffff16815260200190600101908083116110e5575b50505050508152602001600482018054806020026020016040519081016040528092919081815260200182805480156111bd57602002820191906000526020600020905b8160009054906101000a900473ffffffffffffffffffffffffffffffffffffffff1673ffffffffffffffffffffffffffffffffffffffff1681526020019060010190808311611173575b505050505081526020016005820154815250509050806000015196508060200151955080604001519450806060015151935080608001515192508060a0015191505091939550919395565b6000606082600073ffffffffffffffffffffffffffffffffffffffff166001826040516112359190614443565b908152602001604051809103902060009054906101000a900473ffffffffffffffffffffffffffffffffffffffff1673ffffffffffffffffffffffffffffffffffffffff1614156112bb576040517f08c379a00000000000000000000000000000000000000000000000000000000081526004016112b290614748565b60405180910390fd5b60006001856040516112cd9190614443565b908152602001604051809103902060009054906101000a900473ffffffffffffffffffffffffffffffffffffffff1690506000600260008373ffffffffffffffffffffffffffffffffffffffff1673ffffffffffffffffffffffffffffffffffffffff168152602001908152602001600020604051806080016040529081600082015481526020016001820180546113649061490e565b80601f01602080910402602001604051908101604052809291908181526020018280546113909061490e565b80156113dd5780601f106113b2576101008083540402835291602001916113dd565b820191906000526020600020905b8154815290600101906020018083116113c057829003601f168201915b505050505081526020016002820180546113f69061490e565b80601f01602080910402602001604051908101604052809291908181526020018280546114229061490e565b801561146f5780601f106114445761010080835404028352916020019161146f565b820191906000526020600020905b81548152906001019060200180831161145257829003601f168201915b5050505050815260200160038201805480602002602001604051908101604052809291908181526020016000905b828210156115495783829060005260206000200180546114bc9061490e565b80601f01602080910402602001604051908101604052809291908181526020018280546114e89061490e565b80156115355780601f1061150a57610100808354040283529160200191611535565b820191906000526020600020905b81548152906001019060200180831161151857829003601f168201915b50505050508152602001906001019061149d565b505050508152505090508194506000808260000151815260200190815260200160002080546115779061490e565b80601f01602080910402602001604051908101604052809291908181526020018280546115a39061490e565b80156115f05780601f106115c5576101008083540402835291602001916115f0565b820191906000526020600020905b8154815290600101906020018083116115d357829003601f168201915b50505050509350505050915091565b60608060608060606001600260003373ffffffffffffffffffffffffffffffffffffffff1673ffffffffffffffffffffffffffffffffffffffff1681526020019081526020016000206000015481600581111561165f5761165e614971565b5b1461169f576040517f08c379a0000000000000000000000000000000000000000000000000000000008152600401611696906146c8565b60405180910390fd5b6000600260003373ffffffffffffffffffffffffffffffffffffffff1673ffffffffffffffffffffffffffffffffffffffff168152602001908152602001600020604051806080016040529081600082015481526020016001820180546117059061490e565b80601f01602080910402602001604051908101604052809291908181526020018280546117319061490e565b801561177e5780601f106117535761010080835404028352916020019161177e565b820191906000526020600020905b81548152906001019060200180831161176157829003601f168201915b505050505081526020016002820180546117979061490e565b80601f01602080910402602001604051908101604052809291908181526020018280546117c39061490e565b80156118105780601f106117e557610100808354040283529160200191611810565b820191906000526020600020905b8154815290600101906020018083116117f357829003601f168201915b5050505050815260200160038201805480602002602001604051908101604052809291908181526020016000905b828210156118ea57838290600052602060002001805461185d9061490e565b80601f01602080910402602001604051908101604052809291908181526020018280546118899061490e565b80156118d65780601f106118ab576101008083540402835291602001916118d6565b820191906000526020600020905b8154815290600101906020018083116118b957829003601f168201915b50505050508152602001906001019061183e565b505050508152505090506000600c60003373ffffffffffffffffffffffffffffffffffffffff1673ffffffffffffffffffffffffffffffffffffffff16815260200190815260200160002060009054906101000a900473ffffffffffffffffffffffffffffffffffffffff1690506000600b60008373ffffffffffffffffffffffffffffffffffffffff1673ffffffffffffffffffffffffffffffffffffffff1681526020019081526020016000206040518060600160405290816000820180546119b49061490e565b80601f01602080910402602001604051908101604052809291908181526020018280546119e09061490e565b8015611a2d5780601f10611a0257610100808354040283529160200191611a2d565b820191906000526020600020905b815481529060010190602001808311611a1057829003601f168201915b50505050508152602001600182018054611a469061490e565b80601f0160208091040260200160405190810160405280929190818152602001828054611a729061490e565b8015611abf5780601f10611a9457610100808354040283529160200191611abf565b820191906000526020600020905b815481529060010190602001808311611aa257829003601f168201915b5050505050815260200160028201548152505090508260200151985082604001519750806020015196508060000151955082606001519450505050509091929394565b6003600260003373ffffffffffffffffffffffffffffffffffffffff1673ffffffffffffffffffffffffffffffffffffffff16815260200190815260200160002060000154816005811115611b5a57611b59614971565b5b14611b9a576040517f08c379a0000000000000000000000000000000000000000000000000000000008152600401611b91906146c8565b60405180910390fd5b600060405180606001604052808681526020018581526020016000815250905080600b60008873ffffffffffffffffffffffffffffffffffffffff1673ffffffffffffffffffffffffffffffffffffffff1681526020019081526020016000206000820151816000019080519060200190611c169291906139b6565b506020820151816001019080519060200190611c339291906139b6565b5060408201518160020155905050600060026005811115611c5757611c56614971565b5b9050611c746040518060200160405280600081525085838a61365a565b50505050505050565b611d60600260003373ffffffffffffffffffffffffffffffffffffffff1673ffffffffffffffffffffffffffffffffffffffff1681526020019081526020016000206001018054611ccd9061490e565b80601f0160208091040260200160405190810160405280929190818152602001828054611cf99061490e565b8015611d465780601f10611d1b57610100808354040283529160200191611d46565b820191906000526020600020905b815481529060010190602001808311611d2957829003601f168201915b50505050506040518060200160405280600081525061395d565b15611da0576040517f08c379a0000000000000000000000000000000000000000000000000000000008152600401611d97906146e8565b60405180910390fd5b60001515601182604051611db49190614443565b908152602001604051809103902060003373ffffffffffffffffffffffffffffffffffffffff1673ffffffffffffffffffffffffffffffffffffffff16815260200190815260200160002060009054906101000a900460ff16151514611e4f576040517f08c379a0000000000000000000000000000000000000000000000000000000008152600401611e4690614668565b60405180910390fd5b600f81604051611e5f9190614443565b9081526020016040518091039020600301339080600181540180825580915050600190039060005260206000200160009091909190916101000a81548173ffffffffffffffffffffffffffffffffffffffff021916908373ffffffffffffffffffffffffffffffffffffffff1602179055506001601182604051611ee39190614443565b908152602001604051809103902060003373ffffffffffffffffffffffffffffffffffffffff1673ffffffffffffffffffffffffffffffffffffffff16815260200190815260200160002060006101000a81548160ff02191690831515021790555050565b600560009054906101000a900473ffffffffffffffffffffffffffffffffffffffff1673ffffffffffffffffffffffffffffffffffffffff163373ffffffffffffffffffffffffffffffffffffffff1614611fd8576040517f08c379a0000000000000000000000000000000000000000000000000000000008152600401611fcf90614708565b60405180910390fd5b600060046005811115611fee57611fed614971565b5b905061200b6040518060200160405280600081525084838561365a565b81600460006101000a81548173ffffffffffffffffffffffffffffffffffffffff021916908373ffffffffffffffffffffffffffffffffffffffff160217905550505050565b6005600260003373ffffffffffffffffffffffffffffffffffffffff1673ffffffffffffffffffffffffffffffffffffffff168152602001908152602001600020600001548160058111156120a9576120a8614971565b5b146120e9576040517f08c379a00000000000000000000000000000000000000000000000000000000081526004016120e0906146c8565b60405180910390fd5b683635c9adc5dea000003373ffffffffffffffffffffffffffffffffffffffff1631101561214c576040517f08c379a0000000000000000000000000000000000000000000000000000000008152600401612143906146a8565b60405180910390fd5b8173ffffffffffffffffffffffffffffffffffffffff166108fc683635c9adc5dea000009081150290604051600060405180830381858888f1935050505015801561219b573d6000803e3d6000fd5b505050565b6000600160058111156121b6576121b5614971565b5b90506121c48585838661365a565b6008839080600181540180825580915050600190039060005260206000200160009091909190916101000a81548173ffffffffffffffffffffffffffffffffffffffff021916908373ffffffffffffffffffffffffffffffffffffffff160217905550600d60008373ffffffffffffffffffffffffffffffffffffffff1673ffffffffffffffffffffffffffffffffffffffff168152602001908152602001600020839080600181540180825580915050600190039060005260206000200160009091909190916101000a81548173ffffffffffffffffffffffffffffffffffffffff021916908373ffffffffffffffffffffffffffffffffffffffff1602179055505050505050565b606080600060606123b8600260003373ffffffffffffffffffffffffffffffffffffffff1673ffffffffffffffffffffffffffffffffffffffff16815260200190815260200160002060010180546123259061490e565b80601f01602080910402602001604051908101604052809291908181526020018280546123519061490e565b801561239e5780601f106123735761010080835404028352916020019161239e565b820191906000526020600020905b81548152906001019060200180831161238157829003601f168201915b50505050506040518060200160405280600081525061395d565b156123f8576040517f08c379a00000000000000000000000000000000000000000000000000000000081526004016123ef906146e8565b60405180910390fd5b6000600260003373ffffffffffffffffffffffffffffffffffffffff1673ffffffffffffffffffffffffffffffffffffffff1681526020019081526020016000206040518060800160405290816000820154815260200160018201805461245e9061490e565b80601f016020809104026020016040519081016040528092919081815260200182805461248a9061490e565b80156124d75780601f106124ac576101008083540402835291602001916124d7565b820191906000526020600020905b8154815290600101906020018083116124ba57829003601f168201915b505050505081526020016002820180546124f09061490e565b80601f016020809104026020016040519081016040528092919081815260200182805461251c9061490e565b80156125695780601f1061253e57610100808354040283529160200191612569565b820191906000526020600020905b81548152906001019060200180831161254c57829003601f168201915b5050505050815260200160038201805480602002602001604051908101604052809291908181526020016000905b828210156126435783829060005260206000200180546125b69061490e565b80601f01602080910402602001604051908101604052809291908181526020018280546125e29061490e565b801561262f5780601f106126045761010080835404028352916020019161262f565b820191906000526020600020905b81548152906001019060200180831161261257829003601f168201915b505050505081526020019060010190612597565b5050505081525050905080602001519450806040015193503373ffffffffffffffffffffffffffffffffffffffff16319250806060015191505090919293565b600080600581111561269857612697614971565b5b90506126a68484838561365a565b50505050565b6003600260003373ffffffffffffffffffffffffffffffffffffffff1673ffffffffffffffffffffffffffffffffffffffff1681526020019081526020016000206000015481600581111561270457612703614971565b5b14612744576040517f08c379a000000000000000000000000000000000000000000000000000000000815260040161273b906146c8565b60405180910390fd5b60006003600581111561275a57612759614971565b5b90506127688484838861365a565b6006839080600181540180825580915050600190039060005260206000200160009091909190915090805190602001906127a39291906139b6565b505050505050565b6000600260003373ffffffffffffffffffffffffffffffffffffffff1673ffffffffffffffffffffffffffffffffffffffff1681526020019081526020016000206000015481600581111561280357612802614971565b5b14612843576040517f08c379a000000000000000000000000000000000000000000000000000000000815260040161283a906146c8565b60405180910390fd5b600060405180608001604052803373ffffffffffffffffffffffffffffffffffffffff168152602001600060058111156128805761287f614971565b5b81526020016001600581111561289957612898614971565b5b8152602001600015158152509050806010846040516128b89190614443565b908152602001604051809103902060008201518160000160006101000a81548173ffffffffffffffffffffffffffffffffffffffff021916908373ffffffffffffffffffffffffffffffffffffffff160217905550602082015181600101556040820151816002015560608201518160030160006101000a81548160ff021916908315150217905550905050600a8390806001815401808255809150506001900390600052602060002001600090919091909150908051906020019061297f9291906139b6565b50505050565b6001600260003373ffffffffffffffffffffffffffffffffffffffff1673ffffffffffffffffffffffffffffffffffffffff168152602001908152602001600020600001548160058111156129dd576129dc614971565b5b14612a1d576040517f08c379a0000000000000000000000000000000000000000000000000000000008152600401612a14906146c8565b60405180910390fd5b600060405180608001604052803373ffffffffffffffffffffffffffffffffffffffff16815260200160016005811115612a5a57612a59614971565b5b815260200160006005811115612a7357612a72614971565b5b815260200160001515815250905080601084604051612a929190614443565b908152602001604051809103902060008201518160000160006101000a81548173ffffffffffffffffffffffffffffffffffffffff021916908373ffffffffffffffffffffffffffffffffffffffff160217905550602082015181600101556040820151816002015560608201518160030160006101000a81548160ff021916908315150217905550905050600a83908060018154018082558091505060019003906000526020600020016000909190919091509080519060200190612b599291906139b6565b50505050565b612c42600260003373ffffffffffffffffffffffffffffffffffffffff1673ffffffffffffffffffffffffffffffffffffffff1681526020019081526020016000206001018054612baf9061490e565b80601f0160208091040260200160405190810160405280929190818152602001828054612bdb9061490e565b8015612c285780601f10612bfd57610100808354040283529160200191612c28565b820191906000526020600020905b815481529060010190602001808311612c0b57829003601f168201915b50505050506040518060200160405280600081525061395d565b15612c82576040517f08c379a0000000000000000000000000000000000000000000000000000000008152600401612c79906146e8565b60405180910390fd5b60001515601182604051612c969190614443565b908152602001604051809103902060003373ffffffffffffffffffffffffffffffffffffffff1673ffffffffffffffffffffffffffffffffffffffff16815260200190815260200160002060009054906101000a900460ff16151514612d31576040517f08c379a0000000000000000000000000000000000000000000000000000000008152600401612d2890614668565b60405180910390fd5b600f81604051612d419190614443565b9081526020016040518091039020600401339080600181540180825580915050600190039060005260206000200160009091909190916101000a81548173ffffffffffffffffffffffffffffffffffffffff021916908373ffffffffffffffffffffffffffffffffffffffff1602179055506001601182604051612dc59190614443565b908152602001604051809103902060003373ffffffffffffffffffffffffffffffffffffffff1673ffffffffffffffffffffffffffffffffffffffff16815260200190815260200160002060006101000a81548160ff02191690831515021790555050565b6060806060806003600260003373ffffffffffffffffffffffffffffffffffffffff1673ffffffffffffffffffffffffffffffffffffffff16815260200190815260200160002060000154816005811115612e8857612e87614971565b5b14612ec8576040517f08c379a0000000000000000000000000000000000000000000000000000000008152600401612ebf906146c8565b60405180910390fd5b6000600260003373ffffffffffffffffffffffffffffffffffffffff1673ffffffffffffffffffffffffffffffffffffffff16815260200190815260200160002060405180608001604052908160008201548152602001600182018054612f2e9061490e565b80601f0160208091040260200160405190810160405280929190818152602001828054612f5a9061490e565b8015612fa75780601f10612f7c57610100808354040283529160200191612fa7565b820191906000526020600020905b815481529060010190602001808311612f8a57829003601f168201915b50505050508152602001600282018054612fc09061490e565b80601f0160208091040260200160405190810160405280929190818152602001828054612fec9061490e565b80156130395780601f1061300e57610100808354040283529160200191613039565b820191906000526020600020905b81548152906001019060200180831161301c57829003601f168201915b5050505050815260200160038201805480602002602001604051908101604052809291908181526020016000905b828210156131135783829060005260206000200180546130869061490e565b80601f01602080910402602001604051908101604052809291908181526020018280546130b29061490e565b80156130ff5780601f106130d4576101008083540402835291602001916130ff565b820191906000526020600020905b8154815290600101906020018083116130e257829003601f168201915b505050505081526020019060010190613067565b5050505081525050905080602001519550600a805480602002602001604051908101604052809291908181526020016000905b828210156131f25783829060005260206000200180546131659061490e565b80601f01602080910402602001604051908101604052809291908181526020018280546131919061490e565b80156131de5780601f106131b3576101008083540402835291602001916131de565b820191906000526020600020905b8154815290600101906020018083116131c157829003601f168201915b505050505081526020019060010190613146565b5050505094506006805480602002602001604051908101604052809291908181526020016000905b828210156132c65783829060005260206000200180546132399061490e565b80601f01602080910402602001604051908101604052809291908181526020018280546132659061490e565b80156132b25780601f10613287576101008083540402835291602001916132b2565b820191906000526020600020905b81548152906001019060200180831161329557829003601f168201915b50505050508152602001906001019061321a565b505050509350600880548060200260200160405190810160405280929190818152602001828054801561334e57602002820191906000526020600020905b8160009054906101000a900473ffffffffffffffffffffffffffffffffffffffff1673ffffffffffffffffffffffffffffffffffffffff1681526020019060010190808311613304575b50505050509250505090919293565b600060608060006010856040516133749190614443565b90815260200160405180910390206040518060800160405290816000820160009054906101000a900473ffffffffffffffffffffffffffffffffffffffff1673ffffffffffffffffffffffffffffffffffffffff1673ffffffffffffffffffffffffffffffffffffffff16815260200160018201548152602001600282015481526020016003820160009054906101000a900460ff16151515158152505090508060000151935060008082602001518152602001908152602001600020805461343c9061490e565b80601f01602080910402602001604051908101604052809291908181526020018280546134689061490e565b80156134b55780601f1061348a576101008083540402835291602001916134b5565b820191906000526020600020905b81548152906001019060200180831161349857829003601f168201915b505050505092506000808260400151815260200190815260200160002080546134dd9061490e565b80601f01602080910402602001604051908101604052809291908181526020018280546135099061490e565b80156135565780601f1061352b57610100808354040283529160200191613556565b820191906000526020600020905b81548152906001019060200180831161353957829003601f168201915b50505050509150509193909250565b600560009054906101000a900473ffffffffffffffffffffffffffffffffffffffff1673ffffffffffffffffffffffffffffffffffffffff163373ffffffffffffffffffffffffffffffffffffffff16146135f5576040517f08c379a00000000000000000000000000000000000000000000000000000000081526004016135ec90614708565b60405180910390fd5b60006003600581111561360b5761360a614971565b5b90506136198383833361365a565b6006829080600181540180825580915050600190039060005260206000200160009091909190915090805190602001906136549291906139b6565b50505050565b808361373f600260008473ffffffffffffffffffffffffffffffffffffffff1673ffffffffffffffffffffffffffffffffffffffff16815260200190815260200160002060020180546136ac9061490e565b80601f01602080910402602001604051908101604052809291908181526020018280546136d89061490e565b80156137255780601f106136fa57610100808354040283529160200191613725565b820191906000526020600020905b81548152906001019060200180831161370857829003601f168201915b50505050506040518060200160405280600081525061395d565b61377e576040517f08c379a000000000000000000000000000000000000000000000000000000000815260040161377590614728565b60405180910390fd5b600073ffffffffffffffffffffffffffffffffffffffff166001826040516137a69190614443565b908152602001604051809103902060009054906101000a900473ffffffffffffffffffffffffffffffffffffffff1673ffffffffffffffffffffffffffffffffffffffff161461382b576040517f08c379a000000000000000000000000000000000000000000000000000000000815260040161382290614688565b60405180910390fd5b606060006040518060800160405280878152602001888152602001898152602001838152509050846001886040516138639190614443565b908152602001604051809103902060006101000a81548173ffffffffffffffffffffffffffffffffffffffff021916908373ffffffffffffffffffffffffffffffffffffffff16021790555080600260008773ffffffffffffffffffffffffffffffffffffffff1673ffffffffffffffffffffffffffffffffffffffff1681526020019081526020016000206000820151816000015560208201518160010190805190602001906139159291906139b6565b5060408201518160020190805190602001906139329291906139b6565b50606082015181600301908051906020019061394f929190613ac6565b509050505050505050505050565b6000816040516020016139709190614443565b60405160208183030381529060405280519060200120836040516020016139979190614443565b6040516020818303038152906040528051906020012014905092915050565b8280546139c29061490e565b90600052602060002090601f0160209004810192826139e45760008555613a2b565b82601f106139fd57805160ff1916838001178555613a2b565b82800160010185558215613a2b579182015b82811115613a2a578251825591602001919060010190613a0f565b5b509050613a389190613b26565b5090565b828054828255906000526020600020908101928215613ab5579160200282015b82811115613ab45782518260006101000a81548173ffffffffffffffffffffffffffffffffffffffff021916908373ffffffffffffffffffffffffffffffffffffffff16021790555091602001919060010190613a5c565b5b509050613ac29190613b26565b5090565b828054828255906000526020600020908101928215613b15579160200282015b82811115613b14578251829080519060200190613b049291906139b6565b5091602001919060010190613ae6565b5b509050613b229190613b43565b5090565b5b80821115613b3f576000816000905550600101613b27565b5090565b5b80821115613b635760008181613b5a9190613b67565b50600101613b44565b5090565b508054613b739061490e565b6000825580601f10613b855750613ba4565b601f016020900490600052602060002090810190613ba39190613b26565b5b50565b6000613bba613bb58461478d565b614768565b905082815260208101848484011115613bd657613bd5614a03565b5b613be18482856148cc565b509392505050565b600081359050613bf881614b91565b92915050565b600081359050613c0d81614ba8565b92915050565b600081359050613c2281614bbf565b92915050565b600081359050613c3781614bd6565b92915050565b600082601f830112613c5257613c516149fe565b5b8135613c62848260208601613ba7565b91505092915050565b600060208284031215613c8157613c80614a0d565b5b6000613c8f84828501613be9565b91505092915050565b600060208284031215613cae57613cad614a0d565b5b6000613cbc84828501613bfe565b91505092915050565b600080600060608486031215613cde57613cdd614a0d565b5b6000613cec86828701613be9565b935050602084013567ffffffffffffffff811115613d0d57613d0c614a08565b5b613d1986828701613c3d565b925050604084013567ffffffffffffffff811115613d3a57613d39614a08565b5b613d4686828701613c3d565b9150509250925092565b60008060008060808587031215613d6a57613d69614a0d565b5b6000613d7887828801613be9565b945050602085013567ffffffffffffffff811115613d9957613d98614a08565b5b613da587828801613c3d565b935050604085013567ffffffffffffffff811115613dc657613dc5614a08565b5b613dd287828801613c3d565b9250506060613de387828801613c28565b91505092959194509250565b60008060008060808587031215613e0957613e08614a0d565b5b6000613e1787828801613be9565b945050602085013567ffffffffffffffff811115613e3857613e37614a08565b5b613e4487828801613c3d565b935050604085013567ffffffffffffffff811115613e6557613e64614a08565b5b613e7187828801613c3d565b925050606085013567ffffffffffffffff811115613e9257613e91614a08565b5b613e9e87828801613c3d565b91505092959194509250565b600060208284031215613ec057613ebf614a0d565b5b600082013567ffffffffffffffff811115613ede57613edd614a08565b5b613eea84828501613c3d565b91505092915050565b60008060408385031215613f0a57613f09614a0d565b5b600083013567ffffffffffffffff811115613f2857613f27614a08565b5b613f3485828601613c3d565b9250506020613f4585828601613be9565b9150509250929050565b60008060408385031215613f6657613f65614a0d565b5b600083013567ffffffffffffffff811115613f8457613f83614a08565b5b613f9085828601613c3d565b9250506020613fa185828601613c13565b9150509250929050565b60008060408385031215613fc257613fc1614a0d565b5b600083013567ffffffffffffffff811115613fe057613fdf614a08565b5b613fec85828601613c3d565b925050602083013567ffffffffffffffff81111561400d5761400c614a08565b5b61401985828601613c3d565b9150509250929050565b60008060006060848603121561403c5761403b614a0d565b5b600084013567ffffffffffffffff81111561405a57614059614a08565b5b61406686828701613c3d565b935050602084013567ffffffffffffffff81111561408757614086614a08565b5b61409386828701613c3d565b92505060406140a486828701613be9565b9150509250925092565b600080600080608085870312156140c8576140c7614a0d565b5b600085013567ffffffffffffffff8111156140e6576140e5614a08565b5b6140f287828801613c3d565b945050602085013567ffffffffffffffff81111561411357614112614a08565b5b61411f87828801613c3d565b935050604061413087828801613be9565b925050606061414187828801613be9565b91505092959194509250565b60006141598383614179565b60208301905092915050565b60006141718383614279565b905092915050565b61418281614868565b82525050565b61419181614868565b82525050565b60006141a2826147de565b6141ac8185614819565b93506141b7836147be565b8060005b838110156141e85781516141cf888261414d565b97506141da836147ff565b9250506001810190506141bb565b5085935050505092915050565b6000614200826147e9565b61420a818561482a565b93508360208202850161421c856147ce565b8060005b8581101561425857848403895281516142398582614165565b94506142448361480c565b925060208a01995050600181019050614220565b50829750879550505050505092915050565b61427381614898565b82525050565b6000614284826147f4565b61428e818561483b565b935061429e8185602086016148db565b6142a781614a12565b840191505092915050565b60006142bd826147f4565b6142c7818561484c565b93506142d78185602086016148db565b6142e081614a12565b840191505092915050565b60006142f6826147f4565b614300818561485d565b93506143108185602086016148db565b80840191505092915050565b6000614329601b8361484c565b915061433482614a23565b602082019050919050565b600061434c60228361484c565b915061435782614a4c565b604082019050919050565b600061436f600b8361484c565b915061437a82614a9b565b602082019050919050565b600061439260098361484c565b915061439d82614ac4565b602082019050919050565b60006143b5600c8361484c565b91506143c082614aed565b602082019050919050565b60006143d8600d8361484c565b91506143e382614b16565b602082019050919050565b60006143fb60168361484c565b915061440682614b3f565b602082019050919050565b600061441e600b8361484c565b915061442982614b68565b602082019050919050565b61443d816148c2565b82525050565b600061444f82846142eb565b915081905092915050565b600060c08201905061446f6000830189614188565b61447c6020830188614188565b818103604083015261448e81876142b2565b905061449d6060830186614434565b6144aa6080830185614434565b6144b760a083018461426a565b979650505050505050565b60006040820190506144d76000830185614188565b81810360208301526144e981846142b2565b90509392505050565b60006060820190506145076000830186614188565b818103602083015261451981856142b2565b9050818103604083015261452d81846142b2565b9050949350505050565b6000608082019050818103600083015261455181876142b2565b9050818103602083015261456581866141f5565b9050818103604083015261457981856141f5565b9050818103606083015261458d8184614197565b905095945050505050565b600060a08201905081810360008301526145b281886142b2565b905081810360208301526145c681876142b2565b905081810360408301526145da81866142b2565b905081810360608301526145ee81856142b2565b9050818103608083015261460281846141f5565b90509695505050505050565b6000608082019050818103600083015261462881876142b2565b9050818103602083015261463c81866142b2565b905061464b6040830185614434565b818103606083015261465d81846141f5565b905095945050505050565b600060208201905081810360008301526146818161431c565b9050919050565b600060208201905081810360008301526146a18161433f565b9050919050565b600060208201905081810360008301526146c181614362565b9050919050565b600060208201905081810360008301526146e181614385565b9050919050565b60006020820190508181036000830152614701816143a8565b9050919050565b60006020820190508181036000830152614721816143cb565b9050919050565b60006020820190508181036000830152614741816143ee565b9050919050565b6000602082019050818103600083015261476181614411565b9050919050565b6000614772614783565b905061477e8282614940565b919050565b6000604051905090565b600067ffffffffffffffff8211156147a8576147a76149cf565b5b6147b182614a12565b9050602081019050919050565b6000819050602082019050919050565b6000819050602082019050919050565b600081519050919050565b600081519050919050565b600081519050919050565b6000602082019050919050565b6000602082019050919050565b600082825260208201905092915050565b600082825260208201905092915050565b600082825260208201905092915050565b600082825260208201905092915050565b600081905092915050565b6000614873826148a2565b9050919050565b6000614885826148a2565b9050919050565b60008115159050919050565b6000819050919050565b600073ffffffffffffffffffffffffffffffffffffffff82169050919050565b6000819050919050565b82818337600083830152505050565b60005b838110156148f95780820151818401526020810190506148de565b83811115614908576000848401525b50505050565b6000600282049050600182168061492657607f821691505b6020821081141561493a576149396149a0565b5b50919050565b61494982614a12565b810181811067ffffffffffffffff82111715614968576149676149cf565b5b80604052505050565b7f4e487b7100000000000000000000000000000000000000000000000000000000600052602160045260246000fd5b7f4e487b7100000000000000000000000000000000000000000000000000000000600052602260045260246000fd5b7f4e487b7100000000000000000000000000000000000000000000000000000000600052604160045260246000fd5b600080fd5b600080fd5b600080fd5b600080fd5b6000601f19601f8301169050919050565b7f596f7520616c726561647920636865636b207468697320636173650000000000600082015250565b7f596f7572206c6f67696e20616c726561647920657869737420696e207379737460008201527f656d000000000000000000000000000000000000000000000000000000000000602082015250565b7f4c6f772062616c616e6365000000000000000000000000000000000000000000600082015250565b7f466f7262696464656e0000000000000000000000000000000000000000000000600082015250565b7f596f75206e6f7420757365720000000000000000000000000000000000000000600082015250565b7f596f75206e6f742061646d696e00000000000000000000000000000000000000600082015250565b7f596f7520616c7265616479207265676973746572656400000000000000000000600082015250565b7f57726f6e67204c6f67696e000000000000000000000000000000000000000000600082015250565b614b9a81614868565b8114614ba557600080fd5b50565b614bb18161487a565b8114614bbc57600080fd5b50565b614bc88161488c565b8114614bd357600080fd5b50565b614bdf81614898565b8114614bea57600080fd5b5056fea2646970667358221220384bfd64ec4e9245cee4f32f6e13b2ef57d52668173097701f31bd3e6247b7f264736f6c63430008070033",
					"opcodes": "PUSH1 0x80 PUSH1 0x40 MSTORE CALLVALUE DUP1 ISZERO PUSH3 0x11 JUMPI PUSH1 0x0 DUP1 REVERT JUMPDEST POP PUSH1 0x40 MLOAD DUP1 PUSH1 0x40 ADD PUSH1 0x40 MSTORE DUP1 PUSH1 0x5 DUP2 MSTORE PUSH1 0x20 ADD PUSH32 0x6275796572000000000000000000000000000000000000000000000000000000 DUP2 MSTORE POP PUSH1 0x0 DUP1 DUP1 DUP2 MSTORE PUSH1 0x20 ADD SWAP1 DUP2 MSTORE PUSH1 0x20 ADD PUSH1 0x0 KECCAK256 SWAP1 DUP1 MLOAD SWAP1 PUSH1 0x20 ADD SWAP1 PUSH3 0x6F SWAP3 SWAP2 SWAP1 PUSH3 0x292 JUMP JUMPDEST POP PUSH1 0x40 MLOAD DUP1 PUSH1 0x40 ADD PUSH1 0x40 MSTORE DUP1 PUSH1 0x6 DUP2 MSTORE PUSH1 0x20 ADD PUSH32 0x73656C6C65720000000000000000000000000000000000000000000000000000 DUP2 MSTORE POP PUSH1 0x0 DUP1 PUSH1 0x1 DUP2 MSTORE PUSH1 0x20 ADD SWAP1 DUP2 MSTORE PUSH1 0x20 ADD PUSH1 0x0 KECCAK256 SWAP1 DUP1 MLOAD SWAP1 PUSH1 0x20 ADD SWAP1 PUSH3 0xCE SWAP3 SWAP2 SWAP1 PUSH3 0x292 JUMP JUMPDEST POP PUSH1 0x40 MLOAD DUP1 PUSH1 0x40 ADD PUSH1 0x40 MSTORE DUP1 PUSH1 0x4 DUP2 MSTORE PUSH1 0x20 ADD PUSH32 0x73686F7000000000000000000000000000000000000000000000000000000000 DUP2 MSTORE POP PUSH1 0x0 DUP1 PUSH1 0x2 DUP2 MSTORE PUSH1 0x20 ADD SWAP1 DUP2 MSTORE PUSH1 0x20 ADD PUSH1 0x0 KECCAK256 SWAP1 DUP1 MLOAD SWAP1 PUSH1 0x20 ADD SWAP1 PUSH3 0x12D SWAP3 SWAP2 SWAP1 PUSH3 0x292 JUMP JUMPDEST POP PUSH1 0x40 MLOAD DUP1 PUSH1 0x40 ADD PUSH1 0x40 MSTORE DUP1 PUSH1 0x5 DUP2 MSTORE PUSH1 0x20 ADD PUSH32 0x61646D696E000000000000000000000000000000000000000000000000000000 DUP2 MSTORE POP PUSH1 0x0 DUP1 PUSH1 0x3 DUP2 MSTORE PUSH1 0x20 ADD SWAP1 DUP2 MSTORE PUSH1 0x20 ADD PUSH1 0x0 KECCAK256 SWAP1 DUP1 MLOAD SWAP1 PUSH1 0x20 ADD SWAP1 PUSH3 0x18C SWAP3 SWAP2 SWAP1 PUSH3 0x292 JUMP JUMPDEST POP PUSH1 0x40 MLOAD DUP1 PUSH1 0x40 ADD PUSH1 0x40 MSTORE DUP1 PUSH1 0x8 DUP2 MSTORE PUSH1 0x20 ADD PUSH32 0x70726F7669646572000000000000000000000000000000000000000000000000 DUP2 MSTORE POP PUSH1 0x0 DUP1 PUSH1 0x4 DUP2 MSTORE PUSH1 0x20 ADD SWAP1 DUP2 MSTORE PUSH1 0x20 ADD PUSH1 0x0 KECCAK256 SWAP1 DUP1 MLOAD SWAP1 PUSH1 0x20 ADD SWAP1 PUSH3 0x1EB SWAP3 SWAP2 SWAP1 PUSH3 0x292 JUMP JUMPDEST POP PUSH1 0x40 MLOAD DUP1 PUSH1 0x40 ADD PUSH1 0x40 MSTORE DUP1 PUSH1 0x4 DUP2 MSTORE PUSH1 0x20 ADD PUSH32 0x62616E6B00000000000000000000000000000000000000000000000000000000 DUP2 MSTORE POP PUSH1 0x0 DUP1 PUSH1 0x5 DUP2 MSTORE PUSH1 0x20 ADD SWAP1 DUP2 MSTORE PUSH1 0x20 ADD PUSH1 0x0 KECCAK256 SWAP1 DUP1 MLOAD SWAP1 PUSH1 0x20 ADD SWAP1 PUSH3 0x24A SWAP3 SWAP2 SWAP1 PUSH3 0x292 JUMP JUMPDEST POP CALLER PUSH1 0x5 PUSH1 0x0 PUSH2 0x100 EXP DUP2 SLOAD DUP2 PUSH20 0xFFFFFFFFFFFFFFFFFFFFFFFFFFFFFFFFFFFFFFFF MUL NOT AND SWAP1 DUP4 PUSH20 0xFFFFFFFFFFFFFFFFFFFFFFFFFFFFFFFFFFFFFFFF AND MUL OR SWAP1 SSTORE POP PUSH3 0x3A7 JUMP JUMPDEST DUP3 DUP1 SLOAD PUSH3 0x2A0 SWAP1 PUSH3 0x342 JUMP JUMPDEST SWAP1 PUSH1 0x0 MSTORE PUSH1 0x20 PUSH1 0x0 KECCAK256 SWAP1 PUSH1 0x1F ADD PUSH1 0x20 SWAP1 DIV DUP2 ADD SWAP3 DUP3 PUSH3 0x2C4 JUMPI PUSH1 0x0 DUP6 SSTORE PUSH3 0x310 JUMP JUMPDEST DUP3 PUSH1 0x1F LT PUSH3 0x2DF JUMPI DUP1 MLOAD PUSH1 0xFF NOT AND DUP4 DUP1 ADD OR DUP6 SSTORE PUSH3 0x310 JUMP JUMPDEST DUP3 DUP1 ADD PUSH1 0x1 ADD DUP6 SSTORE DUP3 ISZERO PUSH3 0x310 JUMPI SWAP2 DUP3 ADD JUMPDEST DUP3 DUP2 GT ISZERO PUSH3 0x30F JUMPI DUP3 MLOAD DUP3 SSTORE SWAP2 PUSH1 0x20 ADD SWAP2 SWAP1 PUSH1 0x1 ADD SWAP1 PUSH3 0x2F2 JUMP JUMPDEST JUMPDEST POP SWAP1 POP PUSH3 0x31F SWAP2 SWAP1 PUSH3 0x323 JUMP JUMPDEST POP SWAP1 JUMP JUMPDEST JUMPDEST DUP1 DUP3 GT ISZERO PUSH3 0x33E JUMPI PUSH1 0x0 DUP2 PUSH1 0x0 SWAP1 SSTORE POP PUSH1 0x1 ADD PUSH3 0x324 JUMP JUMPDEST POP SWAP1 JUMP JUMPDEST PUSH1 0x0 PUSH1 0x2 DUP3 DIV SWAP1 POP PUSH1 0x1 DUP3 AND DUP1 PUSH3 0x35B JUMPI PUSH1 0x7F DUP3 AND SWAP2 POP JUMPDEST PUSH1 0x20 DUP3 LT DUP2 EQ ISZERO PUSH3 0x372 JUMPI PUSH3 0x371 PUSH3 0x378 JUMP JUMPDEST JUMPDEST POP SWAP2 SWAP1 POP JUMP JUMPDEST PUSH32 0x4E487B7100000000000000000000000000000000000000000000000000000000 PUSH1 0x0 MSTORE PUSH1 0x22 PUSH1 0x4 MSTORE PUSH1 0x24 PUSH1 0x0 REVERT JUMPDEST PUSH2 0x4C23 DUP1 PUSH3 0x3B7 PUSH1 0x0 CODECOPY PUSH1 0x0 RETURN INVALID PUSH1 0x80 PUSH1 0x40 MSTORE CALLVALUE DUP1 ISZERO PUSH2 0x10 JUMPI PUSH1 0x0 DUP1 REVERT JUMPDEST POP PUSH1 0x4 CALLDATASIZE LT PUSH2 0x137 JUMPI PUSH1 0x0 CALLDATALOAD PUSH1 0xE0 SHR DUP1 PUSH4 0x83DB0F6D GT PUSH2 0xB8 JUMPI DUP1 PUSH4 0xAC6FA7C3 GT PUSH2 0x7C JUMPI DUP1 PUSH4 0xAC6FA7C3 EQ PUSH2 0x331 JUMPI DUP1 PUSH4 0xB038316C EQ PUSH2 0x34D JUMPI DUP1 PUSH4 0xBCE62A74 EQ PUSH2 0x369 JUMPI DUP1 PUSH4 0xC3D5FD39 EQ PUSH2 0x385 JUMPI DUP1 PUSH4 0xDFFC8B06 EQ PUSH2 0x3A6 JUMPI DUP1 PUSH4 0xF8F98B79 EQ PUSH2 0x3D8 JUMPI PUSH2 0x137 JUMP JUMPDEST DUP1 PUSH4 0x83DB0F6D EQ PUSH2 0x2A0 JUMPI DUP1 PUSH4 0x8403F848 EQ PUSH2 0x2BC JUMPI DUP1 PUSH4 0x99B958EE EQ PUSH2 0x2D8 JUMPI DUP1 PUSH4 0x9D344D10 EQ PUSH2 0x2F9 JUMPI DUP1 PUSH4 0xA59D105F EQ PUSH2 0x315 JUMPI PUSH2 0x137 JUMP JUMPDEST DUP1 PUSH4 0x3A7D280C GT PUSH2 0xFF JUMPI DUP1 PUSH4 0x3A7D280C EQ PUSH2 0x1F9 JUMPI DUP1 PUSH4 0x54504C12 EQ PUSH2 0x22A JUMPI DUP1 PUSH4 0x7558B2F8 EQ PUSH2 0x24C JUMPI DUP1 PUSH4 0x7B3C7488 EQ PUSH2 0x268 JUMPI DUP1 PUSH4 0x7CCB2BD8 EQ PUSH2 0x284 JUMPI PUSH2 0x137 JUMP JUMPDEST DUP1 PUSH4 0x8E74858 EQ PUSH2 0x13C JUMPI DUP1 PUSH4 0x2059B7AD EQ PUSH2 0x170 JUMPI DUP1 PUSH4 0x2156A781 EQ PUSH2 0x18C JUMPI DUP1 PUSH4 0x2D6ABF59 EQ PUSH2 0x1A8 JUMPI DUP1 PUSH4 0x2F0185C4 EQ PUSH2 0x1C4 JUMPI JUMPDEST PUSH1 0x0 DUP1 REVERT JUMPDEST PUSH2 0x156 PUSH1 0x4 DUP1 CALLDATASIZE SUB DUP2 ADD SWAP1 PUSH2 0x151 SWAP2 SWAP1 PUSH2 0x3C6B JUMP JUMPDEST PUSH2 0x3F4 JUMP JUMPDEST PUSH1 0x40 MLOAD PUSH2 0x167 SWAP6 SWAP5 SWAP4 SWAP3 SWAP2 SWAP1 PUSH2 0x4598 JUMP JUMPDEST PUSH1 0x40 MLOAD DUP1 SWAP2 SUB SWAP1 RETURN JUMPDEST PUSH2 0x18A PUSH1 0x4 DUP1 CALLDATASIZE SUB DUP2 ADD SWAP1 PUSH2 0x185 SWAP2 SWAP1 PUSH2 0x3F4F JUMP JUMPDEST PUSH2 0x8F9 JUMP JUMPDEST STOP JUMPDEST PUSH2 0x1A6 PUSH1 0x4 DUP1 CALLDATASIZE SUB DUP2 ADD SWAP1 PUSH2 0x1A1 SWAP2 SWAP1 PUSH2 0x3EF3 JUMP JUMPDEST PUSH2 0xADF JUMP JUMPDEST STOP JUMPDEST PUSH2 0x1C2 PUSH1 0x4 DUP1 CALLDATASIZE SUB DUP2 ADD SWAP1 PUSH2 0x1BD SWAP2 SWAP1 PUSH2 0x3D50 JUMP JUMPDEST PUSH2 0xBA6 JUMP JUMPDEST STOP JUMPDEST PUSH2 0x1DE PUSH1 0x4 DUP1 CALLDATASIZE SUB DUP2 ADD SWAP1 PUSH2 0x1D9 SWAP2 SWAP1 PUSH2 0x3EAA JUMP JUMPDEST PUSH2 0xF38 JUMP JUMPDEST PUSH1 0x40 MLOAD PUSH2 0x1F0 SWAP7 SWAP6 SWAP5 SWAP4 SWAP3 SWAP2 SWAP1 PUSH2 0x445A JUMP JUMPDEST PUSH1 0x40 MLOAD DUP1 SWAP2 SUB SWAP1 RETURN JUMPDEST PUSH2 0x213 PUSH1 0x4 DUP1 CALLDATASIZE SUB DUP2 ADD SWAP1 PUSH2 0x20E SWAP2 SWAP1 PUSH2 0x3EAA JUMP JUMPDEST PUSH2 0x1208 JUMP JUMPDEST PUSH1 0x40 MLOAD PUSH2 0x221 SWAP3 SWAP2 SWAP1 PUSH2 0x44C2 JUMP JUMPDEST PUSH1 0x40 MLOAD DUP1 SWAP2 SUB SWAP1 RETURN JUMPDEST PUSH2 0x232 PUSH2 0x15FF JUMP JUMPDEST PUSH1 0x40 MLOAD PUSH2 0x243 SWAP6 SWAP5 SWAP4 SWAP3 SWAP2 SWAP1 PUSH2 0x4598 JUMP JUMPDEST PUSH1 0x40 MLOAD DUP1 SWAP2 SUB SWAP1 RETURN JUMPDEST PUSH2 0x266 PUSH1 0x4 DUP1 CALLDATASIZE SUB DUP2 ADD SWAP1 PUSH2 0x261 SWAP2 SWAP1 PUSH2 0x3DEF JUMP JUMPDEST PUSH2 0x1B02 JUMP JUMPDEST STOP JUMPDEST PUSH2 0x282 PUSH1 0x4 DUP1 CALLDATASIZE SUB DUP2 ADD SWAP1 PUSH2 0x27D SWAP2 SWAP1 PUSH2 0x3EAA JUMP JUMPDEST PUSH2 0x1C7D JUMP JUMPDEST STOP JUMPDEST PUSH2 0x29E PUSH1 0x4 DUP1 CALLDATASIZE SUB DUP2 ADD SWAP1 PUSH2 0x299 SWAP2 SWAP1 PUSH2 0x3EF3 JUMP JUMPDEST PUSH2 0x1F48 JUMP JUMPDEST STOP JUMPDEST PUSH2 0x2BA PUSH1 0x4 DUP1 CALLDATASIZE SUB DUP2 ADD SWAP1 PUSH2 0x2B5 SWAP2 SWAP1 PUSH2 0x3C98 JUMP JUMPDEST PUSH2 0x2051 JUMP JUMPDEST STOP JUMPDEST PUSH2 0x2D6 PUSH1 0x4 DUP1 CALLDATASIZE SUB DUP2 ADD SWAP1 PUSH2 0x2D1 SWAP2 SWAP1 PUSH2 0x40AE JUMP JUMPDEST PUSH2 0x21A0 JUMP JUMPDEST STOP JUMPDEST PUSH2 0x2E0 PUSH2 0x22CE JUMP JUMPDEST PUSH1 0x40 MLOAD PUSH2 0x2F0 SWAP5 SWAP4 SWAP3 SWAP2 SWAP1 PUSH2 0x460E JUMP JUMPDEST PUSH1 0x40 MLOAD DUP1 SWAP2 SUB SWAP1 RETURN JUMPDEST PUSH2 0x313 PUSH1 0x4 DUP1 CALLDATASIZE SUB DUP2 ADD SWAP1 PUSH2 0x30E SWAP2 SWAP1 PUSH2 0x4023 JUMP JUMPDEST PUSH2 0x2683 JUMP JUMPDEST STOP JUMPDEST PUSH2 0x32F PUSH1 0x4 DUP1 CALLDATASIZE SUB DUP2 ADD SWAP1 PUSH2 0x32A SWAP2 SWAP1 PUSH2 0x3CC5 JUMP JUMPDEST PUSH2 0x26AC JUMP JUMPDEST STOP JUMPDEST PUSH2 0x34B PUSH1 0x4 DUP1 CALLDATASIZE SUB DUP2 ADD SWAP1 PUSH2 0x346 SWAP2 SWAP1 PUSH2 0x3EAA JUMP JUMPDEST PUSH2 0x27AB JUMP JUMPDEST STOP JUMPDEST PUSH2 0x367 PUSH1 0x4 DUP1 CALLDATASIZE SUB DUP2 ADD SWAP1 PUSH2 0x362 SWAP2 SWAP1 PUSH2 0x3EAA JUMP JUMPDEST PUSH2 0x2985 JUMP JUMPDEST STOP JUMPDEST PUSH2 0x383 PUSH1 0x4 DUP1 CALLDATASIZE SUB DUP2 ADD SWAP1 PUSH2 0x37E SWAP2 SWAP1 PUSH2 0x3EAA JUMP JUMPDEST PUSH2 0x2B5F JUMP JUMPDEST STOP JUMPDEST PUSH2 0x38D PUSH2 0x2E2A JUMP JUMPDEST PUSH1 0x40 MLOAD PUSH2 0x39D SWAP5 SWAP4 SWAP3 SWAP2 SWAP1 PUSH2 0x4537 JUMP JUMPDEST PUSH1 0x40 MLOAD DUP1 SWAP2 SUB SWAP1 RETURN JUMPDEST PUSH2 0x3C0 PUSH1 0x4 DUP1 CALLDATASIZE SUB DUP2 ADD SWAP1 PUSH2 0x3BB SWAP2 SWAP1 PUSH2 0x3EAA JUMP JUMPDEST PUSH2 0x335D JUMP JUMPDEST PUSH1 0x40 MLOAD PUSH2 0x3CF SWAP4 SWAP3 SWAP2 SWAP1 PUSH2 0x44F2 JUMP JUMPDEST PUSH1 0x40 MLOAD DUP1 SWAP2 SUB SWAP1 RETURN JUMPDEST PUSH2 0x3F2 PUSH1 0x4 DUP1 CALLDATASIZE SUB DUP2 ADD SWAP1 PUSH2 0x3ED SWAP2 SWAP1 PUSH2 0x3FAB JUMP JUMPDEST PUSH2 0x3565 JUMP JUMPDEST STOP JUMPDEST PUSH1 0x60 DUP1 PUSH1 0x60 DUP1 PUSH1 0x60 PUSH1 0x3 PUSH1 0x2 PUSH1 0x0 CALLER PUSH20 0xFFFFFFFFFFFFFFFFFFFFFFFFFFFFFFFFFFFFFFFF AND PUSH20 0xFFFFFFFFFFFFFFFFFFFFFFFFFFFFFFFFFFFFFFFF AND DUP2 MSTORE PUSH1 0x20 ADD SWAP1 DUP2 MSTORE PUSH1 0x20 ADD PUSH1 0x0 KECCAK256 PUSH1 0x0 ADD SLOAD DUP2 PUSH1 0x5 DUP2 GT ISZERO PUSH2 0x454 JUMPI PUSH2 0x453 PUSH2 0x4971 JUMP JUMPDEST JUMPDEST EQ PUSH2 0x494 JUMPI PUSH1 0x40 MLOAD PUSH32 0x8C379A000000000000000000000000000000000000000000000000000000000 DUP2 MSTORE PUSH1 0x4 ADD PUSH2 0x48B SWAP1 PUSH2 0x46C8 JUMP JUMPDEST PUSH1 0x40 MLOAD DUP1 SWAP2 SUB SWAP1 REVERT JUMPDEST PUSH1 0x0 PUSH1 0x2 PUSH1 0x0 DUP10 PUSH20 0xFFFFFFFFFFFFFFFFFFFFFFFFFFFFFFFFFFFFFFFF AND PUSH20 0xFFFFFFFFFFFFFFFFFFFFFFFFFFFFFFFFFFFFFFFF AND DUP2 MSTORE PUSH1 0x20 ADD SWAP1 DUP2 MSTORE PUSH1 0x20 ADD PUSH1 0x0 KECCAK256 PUSH1 0x40 MLOAD DUP1 PUSH1 0x80 ADD PUSH1 0x40 MSTORE SWAP1 DUP2 PUSH1 0x0 DUP3 ADD SLOAD DUP2 MSTORE PUSH1 0x20 ADD PUSH1 0x1 DUP3 ADD DUP1 SLOAD PUSH2 0x4FA SWAP1 PUSH2 0x490E JUMP JUMPDEST DUP1 PUSH1 0x1F ADD PUSH1 0x20 DUP1 SWAP2 DIV MUL PUSH1 0x20 ADD PUSH1 0x40 MLOAD SWAP1 DUP2 ADD PUSH1 0x40 MSTORE DUP1 SWAP3 SWAP2 SWAP1 DUP2 DUP2 MSTORE PUSH1 0x20 ADD DUP3 DUP1 SLOAD PUSH2 0x526 SWAP1 PUSH2 0x490E JUMP JUMPDEST DUP1 ISZERO PUSH2 0x573 JUMPI DUP1 PUSH1 0x1F LT PUSH2 0x548 JUMPI PUSH2 0x100 DUP1 DUP4 SLOAD DIV MUL DUP4 MSTORE SWAP2 PUSH1 0x20 ADD SWAP2 PUSH2 0x573 JUMP JUMPDEST DUP3 ADD SWAP2 SWAP1 PUSH1 0x0 MSTORE PUSH1 0x20 PUSH1 0x0 KECCAK256 SWAP1 JUMPDEST DUP2 SLOAD DUP2 MSTORE SWAP1 PUSH1 0x1 ADD SWAP1 PUSH1 0x20 ADD DUP1 DUP4 GT PUSH2 0x556 JUMPI DUP3 SWAP1 SUB PUSH1 0x1F AND DUP3 ADD SWAP2 JUMPDEST POP POP POP POP POP DUP2 MSTORE PUSH1 0x20 ADD PUSH1 0x2 DUP3 ADD DUP1 SLOAD PUSH2 0x58C SWAP1 PUSH2 0x490E JUMP JUMPDEST DUP1 PUSH1 0x1F ADD PUSH1 0x20 DUP1 SWAP2 DIV MUL PUSH1 0x20 ADD PUSH1 0x40 MLOAD SWAP1 DUP2 ADD PUSH1 0x40 MSTORE DUP1 SWAP3 SWAP2 SWAP1 DUP2 DUP2 MSTORE PUSH1 0x20 ADD DUP3 DUP1 SLOAD PUSH2 0x5B8 SWAP1 PUSH2 0x490E JUMP JUMPDEST DUP1 ISZERO PUSH2 0x605 JUMPI DUP1 PUSH1 0x1F LT PUSH2 0x5DA JUMPI PUSH2 0x100 DUP1 DUP4 SLOAD DIV MUL DUP4 MSTORE SWAP2 PUSH1 0x20 ADD SWAP2 PUSH2 0x605 JUMP JUMPDEST DUP3 ADD SWAP2 SWAP1 PUSH1 0x0 MSTORE PUSH1 0x20 PUSH1 0x0 KECCAK256 SWAP1 JUMPDEST DUP2 SLOAD DUP2 MSTORE SWAP1 PUSH1 0x1 ADD SWAP1 PUSH1 0x20 ADD DUP1 DUP4 GT PUSH2 0x5E8 JUMPI DUP3 SWAP1 SUB PUSH1 0x1F AND DUP3 ADD SWAP2 JUMPDEST POP POP POP POP POP DUP2 MSTORE PUSH1 0x20 ADD PUSH1 0x3 DUP3 ADD DUP1 SLOAD DUP1 PUSH1 0x20 MUL PUSH1 0x20 ADD PUSH1 0x40 MLOAD SWAP1 DUP2 ADD PUSH1 0x40 MSTORE DUP1 SWAP3 SWAP2 SWAP1 DUP2 DUP2 MSTORE PUSH1 0x20 ADD PUSH1 0x0 SWAP1 JUMPDEST DUP3 DUP3 LT ISZERO PUSH2 0x6DF JUMPI DUP4 DUP3 SWAP1 PUSH1 0x0 MSTORE PUSH1 0x20 PUSH1 0x0 KECCAK256 ADD DUP1 SLOAD PUSH2 0x652 SWAP1 PUSH2 0x490E JUMP JUMPDEST DUP1 PUSH1 0x1F ADD PUSH1 0x20 DUP1 SWAP2 DIV MUL PUSH1 0x20 ADD PUSH1 0x40 MLOAD SWAP1 DUP2 ADD PUSH1 0x40 MSTORE DUP1 SWAP3 SWAP2 SWAP1 DUP2 DUP2 MSTORE PUSH1 0x20 ADD DUP3 DUP1 SLOAD PUSH2 0x67E SWAP1 PUSH2 0x490E JUMP JUMPDEST DUP1 ISZERO PUSH2 0x6CB JUMPI DUP1 PUSH1 0x1F LT PUSH2 0x6A0 JUMPI PUSH2 0x100 DUP1 DUP4 SLOAD DIV MUL DUP4 MSTORE SWAP2 PUSH1 0x20 ADD SWAP2 PUSH2 0x6CB JUMP JUMPDEST DUP3 ADD SWAP2 SWAP1 PUSH1 0x0 MSTORE PUSH1 0x20 PUSH1 0x0 KECCAK256 SWAP1 JUMPDEST DUP2 SLOAD DUP2 MSTORE SWAP1 PUSH1 0x1 ADD SWAP1 PUSH1 0x20 ADD DUP1 DUP4 GT PUSH2 0x6AE JUMPI DUP3 SWAP1 SUB PUSH1 0x1F AND DUP3 ADD SWAP2 JUMPDEST POP POP POP POP POP DUP2 MSTORE PUSH1 0x20 ADD SWAP1 PUSH1 0x1 ADD SWAP1 PUSH2 0x633 JUMP JUMPDEST POP POP POP POP DUP2 MSTORE POP POP SWAP1 POP PUSH1 0x0 PUSH1 0xC PUSH1 0x0 DUP11 PUSH20 0xFFFFFFFFFFFFFFFFFFFFFFFFFFFFFFFFFFFFFFFF AND PUSH20 0xFFFFFFFFFFFFFFFFFFFFFFFFFFFFFFFFFFFFFFFF AND DUP2 MSTORE PUSH1 0x20 ADD SWAP1 DUP2 MSTORE PUSH1 0x20 ADD PUSH1 0x0 KECCAK256 PUSH1 0x0 SWAP1 SLOAD SWAP1 PUSH2 0x100 EXP SWAP1 DIV PUSH20 0xFFFFFFFFFFFFFFFFFFFFFFFFFFFFFFFFFFFFFFFF AND SWAP1 POP PUSH1 0x0 PUSH1 0xB PUSH1 0x0 DUP4 PUSH20 0xFFFFFFFFFFFFFFFFFFFFFFFFFFFFFFFFFFFFFFFF AND PUSH20 0xFFFFFFFFFFFFFFFFFFFFFFFFFFFFFFFFFFFFFFFF AND DUP2 MSTORE PUSH1 0x20 ADD SWAP1 DUP2 MSTORE PUSH1 0x20 ADD PUSH1 0x0 KECCAK256 PUSH1 0x40 MLOAD DUP1 PUSH1 0x60 ADD PUSH1 0x40 MSTORE SWAP1 DUP2 PUSH1 0x0 DUP3 ADD DUP1 SLOAD PUSH2 0x7A9 SWAP1 PUSH2 0x490E JUMP JUMPDEST DUP1 PUSH1 0x1F ADD PUSH1 0x20 DUP1 SWAP2 DIV MUL PUSH1 0x20 ADD PUSH1 0x40 MLOAD SWAP1 DUP2 ADD PUSH1 0x40 MSTORE DUP1 SWAP3 SWAP2 SWAP1 DUP2 DUP2 MSTORE PUSH1 0x20 ADD DUP3 DUP1 SLOAD PUSH2 0x7D5 SWAP1 PUSH2 0x490E JUMP JUMPDEST DUP1 ISZERO PUSH2 0x822 JUMPI DUP1 PUSH1 0x1F LT PUSH2 0x7F7 JUMPI PUSH2 0x100 DUP1 DUP4 SLOAD DIV MUL DUP4 MSTORE SWAP2 PUSH1 0x20 ADD SWAP2 PUSH2 0x822 JUMP JUMPDEST DUP3 ADD SWAP2 SWAP1 PUSH1 0x0 MSTORE PUSH1 0x20 PUSH1 0x0 KECCAK256 SWAP1 JUMPDEST DUP2 SLOAD DUP2 MSTORE SWAP1 PUSH1 0x1 ADD SWAP1 PUSH1 0x20 ADD DUP1 DUP4 GT PUSH2 0x805 JUMPI DUP3 SWAP1 SUB PUSH1 0x1F AND DUP3 ADD SWAP2 JUMPDEST POP POP POP POP POP DUP2 MSTORE PUSH1 0x20 ADD PUSH1 0x1 DUP3 ADD DUP1 SLOAD PUSH2 0x83B SWAP1 PUSH2 0x490E JUMP JUMPDEST DUP1 PUSH1 0x1F ADD PUSH1 0x20 DUP1 SWAP2 DIV MUL PUSH1 0x20 ADD PUSH1 0x40 MLOAD SWAP1 DUP2 ADD PUSH1 0x40 MSTORE DUP1 SWAP3 SWAP2 SWAP1 DUP2 DUP2 MSTORE PUSH1 0x20 ADD DUP3 DUP1 SLOAD PUSH2 0x867 SWAP1 PUSH2 0x490E JUMP JUMPDEST DUP1 ISZERO PUSH2 0x8B4 JUMPI DUP1 PUSH1 0x1F LT PUSH2 0x889 JUMPI PUSH2 0x100 DUP1 DUP4 SLOAD DIV MUL DUP4 MSTORE SWAP2 PUSH1 0x20 ADD SWAP2 PUSH2 0x8B4 JUMP JUMPDEST DUP3 ADD SWAP2 SWAP1 PUSH1 0x0 MSTORE PUSH1 0x20 PUSH1 0x0 KECCAK256 SWAP1 JUMPDEST DUP2 SLOAD DUP2 MSTORE SWAP1 PUSH1 0x1 ADD SWAP1 PUSH1 0x20 ADD DUP1 DUP4 GT PUSH2 0x897 JUMPI DUP3 SWAP1 SUB PUSH1 0x1F AND DUP3 ADD SWAP2 JUMPDEST POP POP POP POP POP DUP2 MSTORE PUSH1 0x20 ADD PUSH1 0x2 DUP3 ADD SLOAD DUP2 MSTORE POP POP SWAP1 POP DUP3 PUSH1 0x20 ADD MLOAD SWAP9 POP DUP3 PUSH1 0x40 ADD MLOAD SWAP8 POP DUP1 PUSH1 0x20 ADD MLOAD SWAP7 POP DUP1 PUSH1 0x0 ADD MLOAD SWAP6 POP DUP3 PUSH1 0x60 ADD MLOAD SWAP5 POP POP POP POP POP SWAP2 SWAP4 SWAP6 SWAP1 SWAP3 SWAP5 POP JUMP JUMPDEST PUSH1 0x3 PUSH1 0x2 PUSH1 0x0 CALLER PUSH20 0xFFFFFFFFFFFFFFFFFFFFFFFFFFFFFFFFFFFFFFFF AND PUSH20 0xFFFFFFFFFFFFFFFFFFFFFFFFFFFFFFFFFFFFFFFF AND DUP2 MSTORE PUSH1 0x20 ADD SWAP1 DUP2 MSTORE PUSH1 0x20 ADD PUSH1 0x0 KECCAK256 PUSH1 0x0 ADD SLOAD DUP2 PUSH1 0x5 DUP2 GT ISZERO PUSH2 0x951 JUMPI PUSH2 0x950 PUSH2 0x4971 JUMP JUMPDEST JUMPDEST EQ PUSH2 0x991 JUMPI PUSH1 0x40 MLOAD PUSH32 0x8C379A000000000000000000000000000000000000000000000000000000000 DUP2 MSTORE PUSH1 0x4 ADD PUSH2 0x988 SWAP1 PUSH2 0x46C8 JUMP JUMPDEST PUSH1 0x40 MLOAD DUP1 SWAP2 SUB SWAP1 REVERT JUMPDEST PUSH1 0x0 PUSH1 0x10 DUP5 PUSH1 0x40 MLOAD PUSH2 0x9A3 SWAP2 SWAP1 PUSH2 0x4443 JUMP JUMPDEST SWAP1 DUP2 MSTORE PUSH1 0x20 ADD PUSH1 0x40 MLOAD DUP1 SWAP2 SUB SWAP1 KECCAK256 PUSH1 0x40 MLOAD DUP1 PUSH1 0x80 ADD PUSH1 0x40 MSTORE SWAP1 DUP2 PUSH1 0x0 DUP3 ADD PUSH1 0x0 SWAP1 SLOAD SWAP1 PUSH2 0x100 EXP SWAP1 DIV PUSH20 0xFFFFFFFFFFFFFFFFFFFFFFFFFFFFFFFFFFFFFFFF AND PUSH20 0xFFFFFFFFFFFFFFFFFFFFFFFFFFFFFFFFFFFFFFFF AND PUSH20 0xFFFFFFFFFFFFFFFFFFFFFFFFFFFFFFFFFFFFFFFF AND DUP2 MSTORE PUSH1 0x20 ADD PUSH1 0x1 DUP3 ADD SLOAD DUP2 MSTORE PUSH1 0x20 ADD PUSH1 0x2 DUP3 ADD SLOAD DUP2 MSTORE PUSH1 0x20 ADD PUSH1 0x3 DUP3 ADD PUSH1 0x0 SWAP1 SLOAD SWAP1 PUSH2 0x100 EXP SWAP1 DIV PUSH1 0xFF AND ISZERO ISZERO ISZERO ISZERO DUP2 MSTORE POP POP SWAP1 POP PUSH1 0x0 DUP2 PUSH1 0x40 ADD MLOAD SWAP1 POP DUP4 ISZERO PUSH2 0xA9E JUMPI DUP1 PUSH1 0x2 PUSH1 0x0 DUP5 PUSH1 0x0 ADD MLOAD PUSH20 0xFFFFFFFFFFFFFFFFFFFFFFFFFFFFFFFFFFFFFFFF AND PUSH20 0xFFFFFFFFFFFFFFFFFFFFFFFFFFFFFFFFFFFFFFFF AND DUP2 MSTORE PUSH1 0x20 ADD SWAP1 DUP2 MSTORE PUSH1 0x20 ADD PUSH1 0x0 KECCAK256 PUSH1 0x0 ADD DUP2 SWAP1 SSTORE POP JUMPDEST PUSH1 0x1 PUSH1 0x10 DUP7 PUSH1 0x40 MLOAD PUSH2 0xAB0 SWAP2 SWAP1 PUSH2 0x4443 JUMP JUMPDEST SWAP1 DUP2 MSTORE PUSH1 0x20 ADD PUSH1 0x40 MLOAD DUP1 SWAP2 SUB SWAP1 KECCAK256 PUSH1 0x3 ADD PUSH1 0x0 PUSH2 0x100 EXP DUP2 SLOAD DUP2 PUSH1 0xFF MUL NOT AND SWAP1 DUP4 ISZERO ISZERO MUL OR SWAP1 SSTORE POP POP POP POP POP POP JUMP JUMPDEST PUSH1 0x5 PUSH1 0x0 SWAP1 SLOAD SWAP1 PUSH2 0x100 EXP SWAP1 DIV PUSH20 0xFFFFFFFFFFFFFFFFFFFFFFFFFFFFFFFFFFFFFFFF AND PUSH20 0xFFFFFFFFFFFFFFFFFFFFFFFFFFFFFFFFFFFFFFFF AND CALLER PUSH20 0xFFFFFFFFFFFFFFFFFFFFFFFFFFFFFFFFFFFFFFFF AND EQ PUSH2 0xB6F JUMPI PUSH1 0x40 MLOAD PUSH32 0x8C379A000000000000000000000000000000000000000000000000000000000 DUP2 MSTORE PUSH1 0x4 ADD PUSH2 0xB66 SWAP1 PUSH2 0x4708 JUMP JUMPDEST PUSH1 0x40 MLOAD DUP1 SWAP2 SUB SWAP1 REVERT JUMPDEST PUSH1 0x0 PUSH1 0x5 DUP1 DUP2 GT ISZERO PUSH2 0xB84 JUMPI PUSH2 0xB83 PUSH2 0x4971 JUMP JUMPDEST JUMPDEST SWAP1 POP PUSH2 0xBA1 PUSH1 0x40 MLOAD DUP1 PUSH1 0x20 ADD PUSH1 0x40 MSTORE DUP1 PUSH1 0x0 DUP2 MSTORE POP DUP5 DUP4 DUP6 PUSH2 0x365A JUMP JUMPDEST POP POP POP JUMP JUMPDEST PUSH2 0xC89 PUSH1 0x2 PUSH1 0x0 CALLER PUSH20 0xFFFFFFFFFFFFFFFFFFFFFFFFFFFFFFFFFFFFFFFF AND PUSH20 0xFFFFFFFFFFFFFFFFFFFFFFFFFFFFFFFFFFFFFFFF AND DUP2 MSTORE PUSH1 0x20 ADD SWAP1 DUP2 MSTORE PUSH1 0x20 ADD PUSH1 0x0 KECCAK256 PUSH1 0x1 ADD DUP1 SLOAD PUSH2 0xBF6 SWAP1 PUSH2 0x490E JUMP JUMPDEST DUP1 PUSH1 0x1F ADD PUSH1 0x20 DUP1 SWAP2 DIV MUL PUSH1 0x20 ADD PUSH1 0x40 MLOAD SWAP1 DUP2 ADD PUSH1 0x40 MSTORE DUP1 SWAP3 SWAP2 SWAP1 DUP2 DUP2 MSTORE PUSH1 0x20 ADD DUP3 DUP1 SLOAD PUSH2 0xC22 SWAP1 PUSH2 0x490E JUMP JUMPDEST DUP1 ISZERO PUSH2 0xC6F JUMPI DUP1 PUSH1 0x1F LT PUSH2 0xC44 JUMPI PUSH2 0x100 DUP1 DUP4 SLOAD DIV MUL DUP4 MSTORE SWAP2 PUSH1 0x20 ADD SWAP2 PUSH2 0xC6F JUMP JUMPDEST DUP3 ADD SWAP2 SWAP1 PUSH1 0x0 MSTORE PUSH1 0x20 PUSH1 0x0 KECCAK256 SWAP1 JUMPDEST DUP2 SLOAD DUP2 MSTORE SWAP1 PUSH1 0x1 ADD SWAP1 PUSH1 0x20 ADD DUP1 DUP4 GT PUSH2 0xC52 JUMPI DUP3 SWAP1 SUB PUSH1 0x1F AND DUP3 ADD SWAP2 JUMPDEST POP POP POP POP POP PUSH1 0x40 MLOAD DUP1 PUSH1 0x20 ADD PUSH1 0x40 MSTORE DUP1 PUSH1 0x0 DUP2 MSTORE POP PUSH2 0x395D JUMP JUMPDEST ISZERO PUSH2 0xCC9 JUMPI PUSH1 0x40 MLOAD PUSH32 0x8C379A000000000000000000000000000000000000000000000000000000000 DUP2 MSTORE PUSH1 0x4 ADD PUSH2 0xCC0 SWAP1 PUSH2 0x46E8 JUMP JUMPDEST PUSH1 0x40 MLOAD DUP1 SWAP2 SUB SWAP1 REVERT JUMPDEST PUSH1 0x60 DUP1 PUSH1 0x0 PUSH1 0x40 MLOAD DUP1 PUSH1 0xC0 ADD PUSH1 0x40 MSTORE DUP1 CALLER PUSH20 0xFFFFFFFFFFFFFFFFFFFFFFFFFFFFFFFFFFFFFFFF AND DUP2 MSTORE PUSH1 0x20 ADD DUP9 PUSH20 0xFFFFFFFFFFFFFFFFFFFFFFFFFFFFFFFFFFFFFFFF AND DUP2 MSTORE PUSH1 0x20 ADD DUP8 DUP2 MSTORE PUSH1 0x20 ADD DUP5 DUP2 MSTORE PUSH1 0x20 ADD DUP4 DUP2 MSTORE PUSH1 0x20 ADD DUP6 DUP2 MSTORE POP SWAP1 POP PUSH1 0xE PUSH1 0x0 DUP9 PUSH20 0xFFFFFFFFFFFFFFFFFFFFFFFFFFFFFFFFFFFFFFFF AND PUSH20 0xFFFFFFFFFFFFFFFFFFFFFFFFFFFFFFFFFFFFFFFF AND DUP2 MSTORE PUSH1 0x20 ADD SWAP1 DUP2 MSTORE PUSH1 0x20 ADD PUSH1 0x0 KECCAK256 DUP6 SWAP1 DUP1 PUSH1 0x1 DUP2 SLOAD ADD DUP1 DUP3 SSTORE DUP1 SWAP2 POP POP PUSH1 0x1 SWAP1 SUB SWAP1 PUSH1 0x0 MSTORE PUSH1 0x20 PUSH1 0x0 KECCAK256 ADD PUSH1 0x0 SWAP1 SWAP2 SWAP1 SWAP2 SWAP1 SWAP2 POP SWAP1 DUP1 MLOAD SWAP1 PUSH1 0x20 ADD SWAP1 PUSH2 0xDA1 SWAP3 SWAP2 SWAP1 PUSH2 0x39B6 JUMP JUMPDEST POP PUSH1 0x2 PUSH1 0x0 CALLER PUSH20 0xFFFFFFFFFFFFFFFFFFFFFFFFFFFFFFFFFFFFFFFF AND PUSH20 0xFFFFFFFFFFFFFFFFFFFFFFFFFFFFFFFFFFFFFFFF AND DUP2 MSTORE PUSH1 0x20 ADD SWAP1 DUP2 MSTORE PUSH1 0x20 ADD PUSH1 0x0 KECCAK256 PUSH1 0x3 ADD DUP6 SWAP1 DUP1 PUSH1 0x1 DUP2 SLOAD ADD DUP1 DUP3 SSTORE DUP1 SWAP2 POP POP PUSH1 0x1 SWAP1 SUB SWAP1 PUSH1 0x0 MSTORE PUSH1 0x20 PUSH1 0x0 KECCAK256 ADD PUSH1 0x0 SWAP1 SWAP2 SWAP1 SWAP2 SWAP1 SWAP2 POP SWAP1 DUP1 MLOAD SWAP1 PUSH1 0x20 ADD SWAP1 PUSH2 0xE1D SWAP3 SWAP2 SWAP1 PUSH2 0x39B6 JUMP JUMPDEST POP DUP1 PUSH1 0xF DUP7 PUSH1 0x40 MLOAD PUSH2 0xE2F SWAP2 SWAP1 PUSH2 0x4443 JUMP JUMPDEST SWAP1 DUP2 MSTORE PUSH1 0x20 ADD PUSH1 0x40 MLOAD DUP1 SWAP2 SUB SWAP1 KECCAK256 PUSH1 0x0 DUP3 ADD MLOAD DUP2 PUSH1 0x0 ADD PUSH1 0x0 PUSH2 0x100 EXP DUP2 SLOAD DUP2 PUSH20 0xFFFFFFFFFFFFFFFFFFFFFFFFFFFFFFFFFFFFFFFF MUL NOT AND SWAP1 DUP4 PUSH20 0xFFFFFFFFFFFFFFFFFFFFFFFFFFFFFFFFFFFFFFFF AND MUL OR SWAP1 SSTORE POP PUSH1 0x20 DUP3 ADD MLOAD DUP2 PUSH1 0x1 ADD PUSH1 0x0 PUSH2 0x100 EXP DUP2 SLOAD DUP2 PUSH20 0xFFFFFFFFFFFFFFFFFFFFFFFFFFFFFFFFFFFFFFFF MUL NOT AND SWAP1 DUP4 PUSH20 0xFFFFFFFFFFFFFFFFFFFFFFFFFFFFFFFFFFFFFFFF AND MUL OR SWAP1 SSTORE POP PUSH1 0x40 DUP3 ADD MLOAD DUP2 PUSH1 0x2 ADD SWAP1 DUP1 MLOAD SWAP1 PUSH1 0x20 ADD SWAP1 PUSH2 0xEE7 SWAP3 SWAP2 SWAP1 PUSH2 0x39B6 JUMP JUMPDEST POP PUSH1 0x60 DUP3 ADD MLOAD DUP2 PUSH1 0x3 ADD SWAP1 DUP1 MLOAD SWAP1 PUSH1 0x20 ADD SWAP1 PUSH2 0xF04 SWAP3 SWAP2 SWAP1 PUSH2 0x3A3C JUMP JUMPDEST POP PUSH1 0x80 DUP3 ADD MLOAD DUP2 PUSH1 0x4 ADD SWAP1 DUP1 MLOAD SWAP1 PUSH1 0x20 ADD SWAP1 PUSH2 0xF21 SWAP3 SWAP2 SWAP1 PUSH2 0x3A3C JUMP JUMPDEST POP PUSH1 0xA0 DUP3 ADD MLOAD DUP2 PUSH1 0x5 ADD SSTORE SWAP1 POP POP POP POP POP POP POP POP POP JUMP JUMPDEST PUSH1 0x0 DUP1 PUSH1 0x60 PUSH1 0x0 DUP1 PUSH1 0x0 DUP1 PUSH1 0xF DUP9 PUSH1 0x40 MLOAD PUSH2 0xF53 SWAP2 SWAP1 PUSH2 0x4443 JUMP JUMPDEST SWAP1 DUP2 MSTORE PUSH1 0x20 ADD PUSH1 0x40 MLOAD DUP1 SWAP2 SUB SWAP1 KECCAK256 PUSH1 0x40 MLOAD DUP1 PUSH1 0xC0 ADD PUSH1 0x40 MSTORE SWAP1 DUP2 PUSH1 0x0 DUP3 ADD PUSH1 0x0 SWAP1 SLOAD SWAP1 PUSH2 0x100 EXP SWAP1 DIV PUSH20 0xFFFFFFFFFFFFFFFFFFFFFFFFFFFFFFFFFFFFFFFF AND PUSH20 0xFFFFFFFFFFFFFFFFFFFFFFFFFFFFFFFFFFFFFFFF AND PUSH20 0xFFFFFFFFFFFFFFFFFFFFFFFFFFFFFFFFFFFFFFFF AND DUP2 MSTORE PUSH1 0x20 ADD PUSH1 0x1 DUP3 ADD PUSH1 0x0 SWAP1 SLOAD SWAP1 PUSH2 0x100 EXP SWAP1 DIV PUSH20 0xFFFFFFFFFFFFFFFFFFFFFFFFFFFFFFFFFFFFFFFF AND PUSH20 0xFFFFFFFFFFFFFFFFFFFFFFFFFFFFFFFFFFFFFFFF AND PUSH20 0xFFFFFFFFFFFFFFFFFFFFFFFFFFFFFFFFFFFFFFFF AND DUP2 MSTORE PUSH1 0x20 ADD PUSH1 0x2 DUP3 ADD DUP1 SLOAD PUSH2 0x1028 SWAP1 PUSH2 0x490E JUMP JUMPDEST DUP1 PUSH1 0x1F ADD PUSH1 0x20 DUP1 SWAP2 DIV MUL PUSH1 0x20 ADD PUSH1 0x40 MLOAD SWAP1 DUP2 ADD PUSH1 0x40 MSTORE DUP1 SWAP3 SWAP2 SWAP1 DUP2 DUP2 MSTORE PUSH1 0x20 ADD DUP3 DUP1 SLOAD PUSH2 0x1054 SWAP1 PUSH2 0x490E JUMP JUMPDEST DUP1 ISZERO PUSH2 0x10A1 JUMPI DUP1 PUSH1 0x1F LT PUSH2 0x1076 JUMPI PUSH2 0x100 DUP1 DUP4 SLOAD DIV MUL DUP4 MSTORE SWAP2 PUSH1 0x20 ADD SWAP2 PUSH2 0x10A1 JUMP JUMPDEST DUP3 ADD SWAP2 SWAP1 PUSH1 0x0 MSTORE PUSH1 0x20 PUSH1 0x0 KECCAK256 SWAP1 JUMPDEST DUP2 SLOAD DUP2 MSTORE SWAP1 PUSH1 0x1 ADD SWAP1 PUSH1 0x20 ADD DUP1 DUP4 GT PUSH2 0x1084 JUMPI DUP3 SWAP1 SUB PUSH1 0x1F AND DUP3 ADD SWAP2 JUMPDEST POP POP POP POP POP DUP2 MSTORE PUSH1 0x20 ADD PUSH1 0x3 DUP3 ADD DUP1 SLOAD DUP1 PUSH1 0x20 MUL PUSH1 0x20 ADD PUSH1 0x40 MLOAD SWAP1 DUP2 ADD PUSH1 0x40 MSTORE DUP1 SWAP3 SWAP2 SWAP1 DUP2 DUP2 MSTORE PUSH1 0x20 ADD DUP3 DUP1 SLOAD DUP1 ISZERO PUSH2 0x112F JUMPI PUSH1 0x20 MUL DUP3 ADD SWAP2 SWAP1 PUSH1 0x0 MSTORE PUSH1 0x20 PUSH1 0x0 KECCAK256 SWAP1 JUMPDEST DUP2 PUSH1 0x0 SWAP1 SLOAD SWAP1 PUSH2 0x100 EXP SWAP1 DIV PUSH20 0xFFFFFFFFFFFFFFFFFFFFFFFFFFFFFFFFFFFFFFFF AND PUSH20 0xFFFFFFFFFFFFFFFFFFFFFFFFFFFFFFFFFFFFFFFF AND DUP2 MSTORE PUSH1 0x20 ADD SWAP1 PUSH1 0x1 ADD SWAP1 DUP1 DUP4 GT PUSH2 0x10E5 JUMPI JUMPDEST POP POP POP POP POP DUP2 MSTORE PUSH1 0x20 ADD PUSH1 0x4 DUP3 ADD DUP1 SLOAD DUP1 PUSH1 0x20 MUL PUSH1 0x20 ADD PUSH1 0x40 MLOAD SWAP1 DUP2 ADD PUSH1 0x40 MSTORE DUP1 SWAP3 SWAP2 SWAP1 DUP2 DUP2 MSTORE PUSH1 0x20 ADD DUP3 DUP1 SLOAD DUP1 ISZERO PUSH2 0x11BD JUMPI PUSH1 0x20 MUL DUP3 ADD SWAP2 SWAP1 PUSH1 0x0 MSTORE PUSH1 0x20 PUSH1 0x0 KECCAK256 SWAP1 JUMPDEST DUP2 PUSH1 0x0 SWAP1 SLOAD SWAP1 PUSH2 0x100 EXP SWAP1 DIV PUSH20 0xFFFFFFFFFFFFFFFFFFFFFFFFFFFFFFFFFFFFFFFF AND PUSH20 0xFFFFFFFFFFFFFFFFFFFFFFFFFFFFFFFFFFFFFFFF AND DUP2 MSTORE PUSH1 0x20 ADD SWAP1 PUSH1 0x1 ADD SWAP1 DUP1 DUP4 GT PUSH2 0x1173 JUMPI JUMPDEST POP POP POP POP POP DUP2 MSTORE PUSH1 0x20 ADD PUSH1 0x5 DUP3 ADD SLOAD DUP2 MSTORE POP POP SWAP1 POP DUP1 PUSH1 0x0 ADD MLOAD SWAP7 POP DUP1 PUSH1 0x20 ADD MLOAD SWAP6 POP DUP1 PUSH1 0x40 ADD MLOAD SWAP5 POP DUP1 PUSH1 0x60 ADD MLOAD MLOAD SWAP4 POP DUP1 PUSH1 0x80 ADD MLOAD MLOAD SWAP3 POP DUP1 PUSH1 0xA0 ADD MLOAD SWAP2 POP POP SWAP2 SWAP4 SWAP6 POP SWAP2 SWAP4 SWAP6 JUMP JUMPDEST PUSH1 0x0 PUSH1 0x60 DUP3 PUSH1 0x0 PUSH20 0xFFFFFFFFFFFFFFFFFFFFFFFFFFFFFFFFFFFFFFFF AND PUSH1 0x1 DUP3 PUSH1 0x40 MLOAD PUSH2 0x1235 SWAP2 SWAP1 PUSH2 0x4443 JUMP JUMPDEST SWAP1 DUP2 MSTORE PUSH1 0x20 ADD PUSH1 0x40 MLOAD DUP1 SWAP2 SUB SWAP1 KECCAK256 PUSH1 0x0 SWAP1 SLOAD SWAP1 PUSH2 0x100 EXP SWAP1 DIV PUSH20 0xFFFFFFFFFFFFFFFFFFFFFFFFFFFFFFFFFFFFFFFF AND PUSH20 0xFFFFFFFFFFFFFFFFFFFFFFFFFFFFFFFFFFFFFFFF AND EQ ISZERO PUSH2 0x12BB JUMPI PUSH1 0x40 MLOAD PUSH32 0x8C379A000000000000000000000000000000000000000000000000000000000 DUP2 MSTORE PUSH1 0x4 ADD PUSH2 0x12B2 SWAP1 PUSH2 0x4748 JUMP JUMPDEST PUSH1 0x40 MLOAD DUP1 SWAP2 SUB SWAP1 REVERT JUMPDEST PUSH1 0x0 PUSH1 0x1 DUP6 PUSH1 0x40 MLOAD PUSH2 0x12CD SWAP2 SWAP1 PUSH2 0x4443 JUMP JUMPDEST SWAP1 DUP2 MSTORE PUSH1 0x20 ADD PUSH1 0x40 MLOAD DUP1 SWAP2 SUB SWAP1 KECCAK256 PUSH1 0x0 SWAP1 SLOAD SWAP1 PUSH2 0x100 EXP SWAP1 DIV PUSH20 0xFFFFFFFFFFFFFFFFFFFFFFFFFFFFFFFFFFFFFFFF AND SWAP1 POP PUSH1 0x0 PUSH1 0x2 PUSH1 0x0 DUP4 PUSH20 0xFFFFFFFFFFFFFFFFFFFFFFFFFFFFFFFFFFFFFFFF AND PUSH20 0xFFFFFFFFFFFFFFFFFFFFFFFFFFFFFFFFFFFFFFFF AND DUP2 MSTORE PUSH1 0x20 ADD SWAP1 DUP2 MSTORE PUSH1 0x20 ADD PUSH1 0x0 KECCAK256 PUSH1 0x40 MLOAD DUP1 PUSH1 0x80 ADD PUSH1 0x40 MSTORE SWAP1 DUP2 PUSH1 0x0 DUP3 ADD SLOAD DUP2 MSTORE PUSH1 0x20 ADD PUSH1 0x1 DUP3 ADD DUP1 SLOAD PUSH2 0x1364 SWAP1 PUSH2 0x490E JUMP JUMPDEST DUP1 PUSH1 0x1F ADD PUSH1 0x20 DUP1 SWAP2 DIV MUL PUSH1 0x20 ADD PUSH1 0x40 MLOAD SWAP1 DUP2 ADD PUSH1 0x40 MSTORE DUP1 SWAP3 SWAP2 SWAP1 DUP2 DUP2 MSTORE PUSH1 0x20 ADD DUP3 DUP1 SLOAD PUSH2 0x1390 SWAP1 PUSH2 0x490E JUMP JUMPDEST DUP1 ISZERO PUSH2 0x13DD JUMPI DUP1 PUSH1 0x1F LT PUSH2 0x13B2 JUMPI PUSH2 0x100 DUP1 DUP4 SLOAD DIV MUL DUP4 MSTORE SWAP2 PUSH1 0x20 ADD SWAP2 PUSH2 0x13DD JUMP JUMPDEST DUP3 ADD SWAP2 SWAP1 PUSH1 0x0 MSTORE PUSH1 0x20 PUSH1 0x0 KECCAK256 SWAP1 JUMPDEST DUP2 SLOAD DUP2 MSTORE SWAP1 PUSH1 0x1 ADD SWAP1 PUSH1 0x20 ADD DUP1 DUP4 GT PUSH2 0x13C0 JUMPI DUP3 SWAP1 SUB PUSH1 0x1F AND DUP3 ADD SWAP2 JUMPDEST POP POP POP POP POP DUP2 MSTORE PUSH1 0x20 ADD PUSH1 0x2 DUP3 ADD DUP1 SLOAD PUSH2 0x13F6 SWAP1 PUSH2 0x490E JUMP JUMPDEST DUP1 PUSH1 0x1F ADD PUSH1 0x20 DUP1 SWAP2 DIV MUL PUSH1 0x20 ADD PUSH1 0x40 MLOAD SWAP1 DUP2 ADD PUSH1 0x40 MSTORE DUP1 SWAP3 SWAP2 SWAP1 DUP2 DUP2 MSTORE PUSH1 0x20 ADD DUP3 DUP1 SLOAD PUSH2 0x1422 SWAP1 PUSH2 0x490E JUMP JUMPDEST DUP1 ISZERO PUSH2 0x146F JUMPI DUP1 PUSH1 0x1F LT PUSH2 0x1444 JUMPI PUSH2 0x100 DUP1 DUP4 SLOAD DIV MUL DUP4 MSTORE SWAP2 PUSH1 0x20 ADD SWAP2 PUSH2 0x146F JUMP JUMPDEST DUP3 ADD SWAP2 SWAP1 PUSH1 0x0 MSTORE PUSH1 0x20 PUSH1 0x0 KECCAK256 SWAP1 JUMPDEST DUP2 SLOAD DUP2 MSTORE SWAP1 PUSH1 0x1 ADD SWAP1 PUSH1 0x20 ADD DUP1 DUP4 GT PUSH2 0x1452 JUMPI DUP3 SWAP1 SUB PUSH1 0x1F AND DUP3 ADD SWAP2 JUMPDEST POP POP POP POP POP DUP2 MSTORE PUSH1 0x20 ADD PUSH1 0x3 DUP3 ADD DUP1 SLOAD DUP1 PUSH1 0x20 MUL PUSH1 0x20 ADD PUSH1 0x40 MLOAD SWAP1 DUP2 ADD PUSH1 0x40 MSTORE DUP1 SWAP3 SWAP2 SWAP1 DUP2 DUP2 MSTORE PUSH1 0x20 ADD PUSH1 0x0 SWAP1 JUMPDEST DUP3 DUP3 LT ISZERO PUSH2 0x1549 JUMPI DUP4 DUP3 SWAP1 PUSH1 0x0 MSTORE PUSH1 0x20 PUSH1 0x0 KECCAK256 ADD DUP1 SLOAD PUSH2 0x14BC SWAP1 PUSH2 0x490E JUMP JUMPDEST DUP1 PUSH1 0x1F ADD PUSH1 0x20 DUP1 SWAP2 DIV MUL PUSH1 0x20 ADD PUSH1 0x40 MLOAD SWAP1 DUP2 ADD PUSH1 0x40 MSTORE DUP1 SWAP3 SWAP2 SWAP1 DUP2 DUP2 MSTORE PUSH1 0x20 ADD DUP3 DUP1 SLOAD PUSH2 0x14E8 SWAP1 PUSH2 0x490E JUMP JUMPDEST DUP1 ISZERO PUSH2 0x1535 JUMPI DUP1 PUSH1 0x1F LT PUSH2 0x150A JUMPI PUSH2 0x100 DUP1 DUP4 SLOAD DIV MUL DUP4 MSTORE SWAP2 PUSH1 0x20 ADD SWAP2 PUSH2 0x1535 JUMP JUMPDEST DUP3 ADD SWAP2 SWAP1 PUSH1 0x0 MSTORE PUSH1 0x20 PUSH1 0x0 KECCAK256 SWAP1 JUMPDEST DUP2 SLOAD DUP2 MSTORE SWAP1 PUSH1 0x1 ADD SWAP1 PUSH1 0x20 ADD DUP1 DUP4 GT PUSH2 0x1518 JUMPI DUP3 SWAP1 SUB PUSH1 0x1F AND DUP3 ADD SWAP2 JUMPDEST POP POP POP POP POP DUP2 MSTORE PUSH1 0x20 ADD SWAP1 PUSH1 0x1 ADD SWAP1 PUSH2 0x149D JUMP JUMPDEST POP POP POP POP DUP2 MSTORE POP POP SWAP1 POP DUP2 SWAP5 POP PUSH1 0x0 DUP1 DUP3 PUSH1 0x0 ADD MLOAD DUP2 MSTORE PUSH1 0x20 ADD SWAP1 DUP2 MSTORE PUSH1 0x20 ADD PUSH1 0x0 KECCAK256 DUP1 SLOAD PUSH2 0x1577 SWAP1 PUSH2 0x490E JUMP JUMPDEST DUP1 PUSH1 0x1F ADD PUSH1 0x20 DUP1 SWAP2 DIV MUL PUSH1 0x20 ADD PUSH1 0x40 MLOAD SWAP1 DUP2 ADD PUSH1 0x40 MSTORE DUP1 SWAP3 SWAP2 SWAP1 DUP2 DUP2 MSTORE PUSH1 0x20 ADD DUP3 DUP1 SLOAD PUSH2 0x15A3 SWAP1 PUSH2 0x490E JUMP JUMPDEST DUP1 ISZERO PUSH2 0x15F0 JUMPI DUP1 PUSH1 0x1F LT PUSH2 0x15C5 JUMPI PUSH2 0x100 DUP1 DUP4 SLOAD DIV MUL DUP4 MSTORE SWAP2 PUSH1 0x20 ADD SWAP2 PUSH2 0x15F0 JUMP JUMPDEST DUP3 ADD SWAP2 SWAP1 PUSH1 0x0 MSTORE PUSH1 0x20 PUSH1 0x0 KECCAK256 SWAP1 JUMPDEST DUP2 SLOAD DUP2 MSTORE SWAP1 PUSH1 0x1 ADD SWAP1 PUSH1 0x20 ADD DUP1 DUP4 GT PUSH2 0x15D3 JUMPI DUP3 SWAP1 SUB PUSH1 0x1F AND DUP3 ADD SWAP2 JUMPDEST POP POP POP POP POP SWAP4 POP POP POP POP SWAP2 POP SWAP2 JUMP JUMPDEST PUSH1 0x60 DUP1 PUSH1 0x60 DUP1 PUSH1 0x60 PUSH1 0x1 PUSH1 0x2 PUSH1 0x0 CALLER PUSH20 0xFFFFFFFFFFFFFFFFFFFFFFFFFFFFFFFFFFFFFFFF AND PUSH20 0xFFFFFFFFFFFFFFFFFFFFFFFFFFFFFFFFFFFFFFFF AND DUP2 MSTORE PUSH1 0x20 ADD SWAP1 DUP2 MSTORE PUSH1 0x20 ADD PUSH1 0x0 KECCAK256 PUSH1 0x0 ADD SLOAD DUP2 PUSH1 0x5 DUP2 GT ISZERO PUSH2 0x165F JUMPI PUSH2 0x165E PUSH2 0x4971 JUMP JUMPDEST JUMPDEST EQ PUSH2 0x169F JUMPI PUSH1 0x40 MLOAD PUSH32 0x8C379A000000000000000000000000000000000000000000000000000000000 DUP2 MSTORE PUSH1 0x4 ADD PUSH2 0x1696 SWAP1 PUSH2 0x46C8 JUMP JUMPDEST PUSH1 0x40 MLOAD DUP1 SWAP2 SUB SWAP1 REVERT JUMPDEST PUSH1 0x0 PUSH1 0x2 PUSH1 0x0 CALLER PUSH20 0xFFFFFFFFFFFFFFFFFFFFFFFFFFFFFFFFFFFFFFFF AND PUSH20 0xFFFFFFFFFFFFFFFFFFFFFFFFFFFFFFFFFFFFFFFF AND DUP2 MSTORE PUSH1 0x20 ADD SWAP1 DUP2 MSTORE PUSH1 0x20 ADD PUSH1 0x0 KECCAK256 PUSH1 0x40 MLOAD DUP1 PUSH1 0x80 ADD PUSH1 0x40 MSTORE SWAP1 DUP2 PUSH1 0x0 DUP3 ADD SLOAD DUP2 MSTORE PUSH1 0x20 ADD PUSH1 0x1 DUP3 ADD DUP1 SLOAD PUSH2 0x1705 SWAP1 PUSH2 0x490E JUMP JUMPDEST DUP1 PUSH1 0x1F ADD PUSH1 0x20 DUP1 SWAP2 DIV MUL PUSH1 0x20 ADD PUSH1 0x40 MLOAD SWAP1 DUP2 ADD PUSH1 0x40 MSTORE DUP1 SWAP3 SWAP2 SWAP1 DUP2 DUP2 MSTORE PUSH1 0x20 ADD DUP3 DUP1 SLOAD PUSH2 0x1731 SWAP1 PUSH2 0x490E JUMP JUMPDEST DUP1 ISZERO PUSH2 0x177E JUMPI DUP1 PUSH1 0x1F LT PUSH2 0x1753 JUMPI PUSH2 0x100 DUP1 DUP4 SLOAD DIV MUL DUP4 MSTORE SWAP2 PUSH1 0x20 ADD SWAP2 PUSH2 0x177E JUMP JUMPDEST DUP3 ADD SWAP2 SWAP1 PUSH1 0x0 MSTORE PUSH1 0x20 PUSH1 0x0 KECCAK256 SWAP1 JUMPDEST DUP2 SLOAD DUP2 MSTORE SWAP1 PUSH1 0x1 ADD SWAP1 PUSH1 0x20 ADD DUP1 DUP4 GT PUSH2 0x1761 JUMPI DUP3 SWAP1 SUB PUSH1 0x1F AND DUP3 ADD SWAP2 JUMPDEST POP POP POP POP POP DUP2 MSTORE PUSH1 0x20 ADD PUSH1 0x2 DUP3 ADD DUP1 SLOAD PUSH2 0x1797 SWAP1 PUSH2 0x490E JUMP JUMPDEST DUP1 PUSH1 0x1F ADD PUSH1 0x20 DUP1 SWAP2 DIV MUL PUSH1 0x20 ADD PUSH1 0x40 MLOAD SWAP1 DUP2 ADD PUSH1 0x40 MSTORE DUP1 SWAP3 SWAP2 SWAP1 DUP2 DUP2 MSTORE PUSH1 0x20 ADD DUP3 DUP1 SLOAD PUSH2 0x17C3 SWAP1 PUSH2 0x490E JUMP JUMPDEST DUP1 ISZERO PUSH2 0x1810 JUMPI DUP1 PUSH1 0x1F LT PUSH2 0x17E5 JUMPI PUSH2 0x100 DUP1 DUP4 SLOAD DIV MUL DUP4 MSTORE SWAP2 PUSH1 0x20 ADD SWAP2 PUSH2 0x1810 JUMP JUMPDEST DUP3 ADD SWAP2 SWAP1 PUSH1 0x0 MSTORE PUSH1 0x20 PUSH1 0x0 KECCAK256 SWAP1 JUMPDEST DUP2 SLOAD DUP2 MSTORE SWAP1 PUSH1 0x1 ADD SWAP1 PUSH1 0x20 ADD DUP1 DUP4 GT PUSH2 0x17F3 JUMPI DUP3 SWAP1 SUB PUSH1 0x1F AND DUP3 ADD SWAP2 JUMPDEST POP POP POP POP POP DUP2 MSTORE PUSH1 0x20 ADD PUSH1 0x3 DUP3 ADD DUP1 SLOAD DUP1 PUSH1 0x20 MUL PUSH1 0x20 ADD PUSH1 0x40 MLOAD SWAP1 DUP2 ADD PUSH1 0x40 MSTORE DUP1 SWAP3 SWAP2 SWAP1 DUP2 DUP2 MSTORE PUSH1 0x20 ADD PUSH1 0x0 SWAP1 JUMPDEST DUP3 DUP3 LT ISZERO PUSH2 0x18EA JUMPI DUP4 DUP3 SWAP1 PUSH1 0x0 MSTORE PUSH1 0x20 PUSH1 0x0 KECCAK256 ADD DUP1 SLOAD PUSH2 0x185D SWAP1 PUSH2 0x490E JUMP JUMPDEST DUP1 PUSH1 0x1F ADD PUSH1 0x20 DUP1 SWAP2 DIV MUL PUSH1 0x20 ADD PUSH1 0x40 MLOAD SWAP1 DUP2 ADD PUSH1 0x40 MSTORE DUP1 SWAP3 SWAP2 SWAP1 DUP2 DUP2 MSTORE PUSH1 0x20 ADD DUP3 DUP1 SLOAD PUSH2 0x1889 SWAP1 PUSH2 0x490E JUMP JUMPDEST DUP1 ISZERO PUSH2 0x18D6 JUMPI DUP1 PUSH1 0x1F LT PUSH2 0x18AB JUMPI PUSH2 0x100 DUP1 DUP4 SLOAD DIV MUL DUP4 MSTORE SWAP2 PUSH1 0x20 ADD SWAP2 PUSH2 0x18D6 JUMP JUMPDEST DUP3 ADD SWAP2 SWAP1 PUSH1 0x0 MSTORE PUSH1 0x20 PUSH1 0x0 KECCAK256 SWAP1 JUMPDEST DUP2 SLOAD DUP2 MSTORE SWAP1 PUSH1 0x1 ADD SWAP1 PUSH1 0x20 ADD DUP1 DUP4 GT PUSH2 0x18B9 JUMPI DUP3 SWAP1 SUB PUSH1 0x1F AND DUP3 ADD SWAP2 JUMPDEST POP POP POP POP POP DUP2 MSTORE PUSH1 0x20 ADD SWAP1 PUSH1 0x1 ADD SWAP1 PUSH2 0x183E JUMP JUMPDEST POP POP POP POP DUP2 MSTORE POP POP SWAP1 POP PUSH1 0x0 PUSH1 0xC PUSH1 0x0 CALLER PUSH20 0xFFFFFFFFFFFFFFFFFFFFFFFFFFFFFFFFFFFFFFFF AND PUSH20 0xFFFFFFFFFFFFFFFFFFFFFFFFFFFFFFFFFFFFFFFF AND DUP2 MSTORE PUSH1 0x20 ADD SWAP1 DUP2 MSTORE PUSH1 0x20 ADD PUSH1 0x0 KECCAK256 PUSH1 0x0 SWAP1 SLOAD SWAP1 PUSH2 0x100 EXP SWAP1 DIV PUSH20 0xFFFFFFFFFFFFFFFFFFFFFFFFFFFFFFFFFFFFFFFF AND SWAP1 POP PUSH1 0x0 PUSH1 0xB PUSH1 0x0 DUP4 PUSH20 0xFFFFFFFFFFFFFFFFFFFFFFFFFFFFFFFFFFFFFFFF AND PUSH20 0xFFFFFFFFFFFFFFFFFFFFFFFFFFFFFFFFFFFFFFFF AND DUP2 MSTORE PUSH1 0x20 ADD SWAP1 DUP2 MSTORE PUSH1 0x20 ADD PUSH1 0x0 KECCAK256 PUSH1 0x40 MLOAD DUP1 PUSH1 0x60 ADD PUSH1 0x40 MSTORE SWAP1 DUP2 PUSH1 0x0 DUP3 ADD DUP1 SLOAD PUSH2 0x19B4 SWAP1 PUSH2 0x490E JUMP JUMPDEST DUP1 PUSH1 0x1F ADD PUSH1 0x20 DUP1 SWAP2 DIV MUL PUSH1 0x20 ADD PUSH1 0x40 MLOAD SWAP1 DUP2 ADD PUSH1 0x40 MSTORE DUP1 SWAP3 SWAP2 SWAP1 DUP2 DUP2 MSTORE PUSH1 0x20 ADD DUP3 DUP1 SLOAD PUSH2 0x19E0 SWAP1 PUSH2 0x490E JUMP JUMPDEST DUP1 ISZERO PUSH2 0x1A2D JUMPI DUP1 PUSH1 0x1F LT PUSH2 0x1A02 JUMPI PUSH2 0x100 DUP1 DUP4 SLOAD DIV MUL DUP4 MSTORE SWAP2 PUSH1 0x20 ADD SWAP2 PUSH2 0x1A2D JUMP JUMPDEST DUP3 ADD SWAP2 SWAP1 PUSH1 0x0 MSTORE PUSH1 0x20 PUSH1 0x0 KECCAK256 SWAP1 JUMPDEST DUP2 SLOAD DUP2 MSTORE SWAP1 PUSH1 0x1 ADD SWAP1 PUSH1 0x20 ADD DUP1 DUP4 GT PUSH2 0x1A10 JUMPI DUP3 SWAP1 SUB PUSH1 0x1F AND DUP3 ADD SWAP2 JUMPDEST POP POP POP POP POP DUP2 MSTORE PUSH1 0x20 ADD PUSH1 0x1 DUP3 ADD DUP1 SLOAD PUSH2 0x1A46 SWAP1 PUSH2 0x490E JUMP JUMPDEST DUP1 PUSH1 0x1F ADD PUSH1 0x20 DUP1 SWAP2 DIV MUL PUSH1 0x20 ADD PUSH1 0x40 MLOAD SWAP1 DUP2 ADD PUSH1 0x40 MSTORE DUP1 SWAP3 SWAP2 SWAP1 DUP2 DUP2 MSTORE PUSH1 0x20 ADD DUP3 DUP1 SLOAD PUSH2 0x1A72 SWAP1 PUSH2 0x490E JUMP JUMPDEST DUP1 ISZERO PUSH2 0x1ABF JUMPI DUP1 PUSH1 0x1F LT PUSH2 0x1A94 JUMPI PUSH2 0x100 DUP1 DUP4 SLOAD DIV MUL DUP4 MSTORE SWAP2 PUSH1 0x20 ADD SWAP2 PUSH2 0x1ABF JUMP JUMPDEST DUP3 ADD SWAP2 SWAP1 PUSH1 0x0 MSTORE PUSH1 0x20 PUSH1 0x0 KECCAK256 SWAP1 JUMPDEST DUP2 SLOAD DUP2 MSTORE SWAP1 PUSH1 0x1 ADD SWAP1 PUSH1 0x20 ADD DUP1 DUP4 GT PUSH2 0x1AA2 JUMPI DUP3 SWAP1 SUB PUSH1 0x1F AND DUP3 ADD SWAP2 JUMPDEST POP POP POP POP POP DUP2 MSTORE PUSH1 0x20 ADD PUSH1 0x2 DUP3 ADD SLOAD DUP2 MSTORE POP POP SWAP1 POP DUP3 PUSH1 0x20 ADD MLOAD SWAP9 POP DUP3 PUSH1 0x40 ADD MLOAD SWAP8 POP DUP1 PUSH1 0x20 ADD MLOAD SWAP7 POP DUP1 PUSH1 0x0 ADD MLOAD SWAP6 POP DUP3 PUSH1 0x60 ADD MLOAD SWAP5 POP POP POP POP POP SWAP1 SWAP2 SWAP3 SWAP4 SWAP5 JUMP JUMPDEST PUSH1 0x3 PUSH1 0x2 PUSH1 0x0 CALLER PUSH20 0xFFFFFFFFFFFFFFFFFFFFFFFFFFFFFFFFFFFFFFFF AND PUSH20 0xFFFFFFFFFFFFFFFFFFFFFFFFFFFFFFFFFFFFFFFF AND DUP2 MSTORE PUSH1 0x20 ADD SWAP1 DUP2 MSTORE PUSH1 0x20 ADD PUSH1 0x0 KECCAK256 PUSH1 0x0 ADD SLOAD DUP2 PUSH1 0x5 DUP2 GT ISZERO PUSH2 0x1B5A JUMPI PUSH2 0x1B59 PUSH2 0x4971 JUMP JUMPDEST JUMPDEST EQ PUSH2 0x1B9A JUMPI PUSH1 0x40 MLOAD PUSH32 0x8C379A000000000000000000000000000000000000000000000000000000000 DUP2 MSTORE PUSH1 0x4 ADD PUSH2 0x1B91 SWAP1 PUSH2 0x46C8 JUMP JUMPDEST PUSH1 0x40 MLOAD DUP1 SWAP2 SUB SWAP1 REVERT JUMPDEST PUSH1 0x0 PUSH1 0x40 MLOAD DUP1 PUSH1 0x60 ADD PUSH1 0x40 MSTORE DUP1 DUP7 DUP2 MSTORE PUSH1 0x20 ADD DUP6 DUP2 MSTORE PUSH1 0x20 ADD PUSH1 0x0 DUP2 MSTORE POP SWAP1 POP DUP1 PUSH1 0xB PUSH1 0x0 DUP9 PUSH20 0xFFFFFFFFFFFFFFFFFFFFFFFFFFFFFFFFFFFFFFFF AND PUSH20 0xFFFFFFFFFFFFFFFFFFFFFFFFFFFFFFFFFFFFFFFF AND DUP2 MSTORE PUSH1 0x20 ADD SWAP1 DUP2 MSTORE PUSH1 0x20 ADD PUSH1 0x0 KECCAK256 PUSH1 0x0 DUP3 ADD MLOAD DUP2 PUSH1 0x0 ADD SWAP1 DUP1 MLOAD SWAP1 PUSH1 0x20 ADD SWAP1 PUSH2 0x1C16 SWAP3 SWAP2 SWAP1 PUSH2 0x39B6 JUMP JUMPDEST POP PUSH1 0x20 DUP3 ADD MLOAD DUP2 PUSH1 0x1 ADD SWAP1 DUP1 MLOAD SWAP1 PUSH1 0x20 ADD SWAP1 PUSH2 0x1C33 SWAP3 SWAP2 SWAP1 PUSH2 0x39B6 JUMP JUMPDEST POP PUSH1 0x40 DUP3 ADD MLOAD DUP2 PUSH1 0x2 ADD SSTORE SWAP1 POP POP PUSH1 0x0 PUSH1 0x2 PUSH1 0x5 DUP2 GT ISZERO PUSH2 0x1C57 JUMPI PUSH2 0x1C56 PUSH2 0x4971 JUMP JUMPDEST JUMPDEST SWAP1 POP PUSH2 0x1C74 PUSH1 0x40 MLOAD DUP1 PUSH1 0x20 ADD PUSH1 0x40 MSTORE DUP1 PUSH1 0x0 DUP2 MSTORE POP DUP6 DUP4 DUP11 PUSH2 0x365A JUMP JUMPDEST POP POP POP POP POP POP POP JUMP JUMPDEST PUSH2 0x1D60 PUSH1 0x2 PUSH1 0x0 CALLER PUSH20 0xFFFFFFFFFFFFFFFFFFFFFFFFFFFFFFFFFFFFFFFF AND PUSH20 0xFFFFFFFFFFFFFFFFFFFFFFFFFFFFFFFFFFFFFFFF AND DUP2 MSTORE PUSH1 0x20 ADD SWAP1 DUP2 MSTORE PUSH1 0x20 ADD PUSH1 0x0 KECCAK256 PUSH1 0x1 ADD DUP1 SLOAD PUSH2 0x1CCD SWAP1 PUSH2 0x490E JUMP JUMPDEST DUP1 PUSH1 0x1F ADD PUSH1 0x20 DUP1 SWAP2 DIV MUL PUSH1 0x20 ADD PUSH1 0x40 MLOAD SWAP1 DUP2 ADD PUSH1 0x40 MSTORE DUP1 SWAP3 SWAP2 SWAP1 DUP2 DUP2 MSTORE PUSH1 0x20 ADD DUP3 DUP1 SLOAD PUSH2 0x1CF9 SWAP1 PUSH2 0x490E JUMP JUMPDEST DUP1 ISZERO PUSH2 0x1D46 JUMPI DUP1 PUSH1 0x1F LT PUSH2 0x1D1B JUMPI PUSH2 0x100 DUP1 DUP4 SLOAD DIV MUL DUP4 MSTORE SWAP2 PUSH1 0x20 ADD SWAP2 PUSH2 0x1D46 JUMP JUMPDEST DUP3 ADD SWAP2 SWAP1 PUSH1 0x0 MSTORE PUSH1 0x20 PUSH1 0x0 KECCAK256 SWAP1 JUMPDEST DUP2 SLOAD DUP2 MSTORE SWAP1 PUSH1 0x1 ADD SWAP1 PUSH1 0x20 ADD DUP1 DUP4 GT PUSH2 0x1D29 JUMPI DUP3 SWAP1 SUB PUSH1 0x1F AND DUP3 ADD SWAP2 JUMPDEST POP POP POP POP POP PUSH1 0x40 MLOAD DUP1 PUSH1 0x20 ADD PUSH1 0x40 MSTORE DUP1 PUSH1 0x0 DUP2 MSTORE POP PUSH2 0x395D JUMP JUMPDEST ISZERO PUSH2 0x1DA0 JUMPI PUSH1 0x40 MLOAD PUSH32 0x8C379A000000000000000000000000000000000000000000000000000000000 DUP2 MSTORE PUSH1 0x4 ADD PUSH2 0x1D97 SWAP1 PUSH2 0x46E8 JUMP JUMPDEST PUSH1 0x40 MLOAD DUP1 SWAP2 SUB SWAP1 REVERT JUMPDEST PUSH1 0x0 ISZERO ISZERO PUSH1 0x11 DUP3 PUSH1 0x40 MLOAD PUSH2 0x1DB4 SWAP2 SWAP1 PUSH2 0x4443 JUMP JUMPDEST SWAP1 DUP2 MSTORE PUSH1 0x20 ADD PUSH1 0x40 MLOAD DUP1 SWAP2 SUB SWAP1 KECCAK256 PUSH1 0x0 CALLER PUSH20 0xFFFFFFFFFFFFFFFFFFFFFFFFFFFFFFFFFFFFFFFF AND PUSH20 0xFFFFFFFFFFFFFFFFFFFFFFFFFFFFFFFFFFFFFFFF AND DUP2 MSTORE PUSH1 0x20 ADD SWAP1 DUP2 MSTORE PUSH1 0x20 ADD PUSH1 0x0 KECCAK256 PUSH1 0x0 SWAP1 SLOAD SWAP1 PUSH2 0x100 EXP SWAP1 DIV PUSH1 0xFF AND ISZERO ISZERO EQ PUSH2 0x1E4F JUMPI PUSH1 0x40 MLOAD PUSH32 0x8C379A000000000000000000000000000000000000000000000000000000000 DUP2 MSTORE PUSH1 0x4 ADD PUSH2 0x1E46 SWAP1 PUSH2 0x4668 JUMP JUMPDEST PUSH1 0x40 MLOAD DUP1 SWAP2 SUB SWAP1 REVERT JUMPDEST PUSH1 0xF DUP2 PUSH1 0x40 MLOAD PUSH2 0x1E5F SWAP2 SWAP1 PUSH2 0x4443 JUMP JUMPDEST SWAP1 DUP2 MSTORE PUSH1 0x20 ADD PUSH1 0x40 MLOAD DUP1 SWAP2 SUB SWAP1 KECCAK256 PUSH1 0x3 ADD CALLER SWAP1 DUP1 PUSH1 0x1 DUP2 SLOAD ADD DUP1 DUP3 SSTORE DUP1 SWAP2 POP POP PUSH1 0x1 SWAP1 SUB SWAP1 PUSH1 0x0 MSTORE PUSH1 0x20 PUSH1 0x0 KECCAK256 ADD PUSH1 0x0 SWAP1 SWAP2 SWAP1 SWAP2 SWAP1 SWAP2 PUSH2 0x100 EXP DUP2 SLOAD DUP2 PUSH20 0xFFFFFFFFFFFFFFFFFFFFFFFFFFFFFFFFFFFFFFFF MUL NOT AND SWAP1 DUP4 PUSH20 0xFFFFFFFFFFFFFFFFFFFFFFFFFFFFFFFFFFFFFFFF AND MUL OR SWAP1 SSTORE POP PUSH1 0x1 PUSH1 0x11 DUP3 PUSH1 0x40 MLOAD PUSH2 0x1EE3 SWAP2 SWAP1 PUSH2 0x4443 JUMP JUMPDEST SWAP1 DUP2 MSTORE PUSH1 0x20 ADD PUSH1 0x40 MLOAD DUP1 SWAP2 SUB SWAP1 KECCAK256 PUSH1 0x0 CALLER PUSH20 0xFFFFFFFFFFFFFFFFFFFFFFFFFFFFFFFFFFFFFFFF AND PUSH20 0xFFFFFFFFFFFFFFFFFFFFFFFFFFFFFFFFFFFFFFFF AND DUP2 MSTORE PUSH1 0x20 ADD SWAP1 DUP2 MSTORE PUSH1 0x20 ADD PUSH1 0x0 KECCAK256 PUSH1 0x0 PUSH2 0x100 EXP DUP2 SLOAD DUP2 PUSH1 0xFF MUL NOT AND SWAP1 DUP4 ISZERO ISZERO MUL OR SWAP1 SSTORE POP POP JUMP JUMPDEST PUSH1 0x5 PUSH1 0x0 SWAP1 SLOAD SWAP1 PUSH2 0x100 EXP SWAP1 DIV PUSH20 0xFFFFFFFFFFFFFFFFFFFFFFFFFFFFFFFFFFFFFFFF AND PUSH20 0xFFFFFFFFFFFFFFFFFFFFFFFFFFFFFFFFFFFFFFFF AND CALLER PUSH20 0xFFFFFFFFFFFFFFFFFFFFFFFFFFFFFFFFFFFFFFFF AND EQ PUSH2 0x1FD8 JUMPI PUSH1 0x40 MLOAD PUSH32 0x8C379A000000000000000000000000000000000000000000000000000000000 DUP2 MSTORE PUSH1 0x4 ADD PUSH2 0x1FCF SWAP1 PUSH2 0x4708 JUMP JUMPDEST PUSH1 0x40 MLOAD DUP1 SWAP2 SUB SWAP1 REVERT JUMPDEST PUSH1 0x0 PUSH1 0x4 PUSH1 0x5 DUP2 GT ISZERO PUSH2 0x1FEE JUMPI PUSH2 0x1FED PUSH2 0x4971 JUMP JUMPDEST JUMPDEST SWAP1 POP PUSH2 0x200B PUSH1 0x40 MLOAD DUP1 PUSH1 0x20 ADD PUSH1 0x40 MSTORE DUP1 PUSH1 0x0 DUP2 MSTORE POP DUP5 DUP4 DUP6 PUSH2 0x365A JUMP JUMPDEST DUP2 PUSH1 0x4 PUSH1 0x0 PUSH2 0x100 EXP DUP2 SLOAD DUP2 PUSH20 0xFFFFFFFFFFFFFFFFFFFFFFFFFFFFFFFFFFFFFFFF MUL NOT AND SWAP1 DUP4 PUSH20 0xFFFFFFFFFFFFFFFFFFFFFFFFFFFFFFFFFFFFFFFF AND MUL OR SWAP1 SSTORE POP POP POP POP JUMP JUMPDEST PUSH1 0x5 PUSH1 0x2 PUSH1 0x0 CALLER PUSH20 0xFFFFFFFFFFFFFFFFFFFFFFFFFFFFFFFFFFFFFFFF AND PUSH20 0xFFFFFFFFFFFFFFFFFFFFFFFFFFFFFFFFFFFFFFFF AND DUP2 MSTORE PUSH1 0x20 ADD SWAP1 DUP2 MSTORE PUSH1 0x20 ADD PUSH1 0x0 KECCAK256 PUSH1 0x0 ADD SLOAD DUP2 PUSH1 0x5 DUP2 GT ISZERO PUSH2 0x20A9 JUMPI PUSH2 0x20A8 PUSH2 0x4971 JUMP JUMPDEST JUMPDEST EQ PUSH2 0x20E9 JUMPI PUSH1 0x40 MLOAD PUSH32 0x8C379A000000000000000000000000000000000000000000000000000000000 DUP2 MSTORE PUSH1 0x4 ADD PUSH2 0x20E0 SWAP1 PUSH2 0x46C8 JUMP JUMPDEST PUSH1 0x40 MLOAD DUP1 SWAP2 SUB SWAP1 REVERT JUMPDEST PUSH9 0x3635C9ADC5DEA00000 CALLER PUSH20 0xFFFFFFFFFFFFFFFFFFFFFFFFFFFFFFFFFFFFFFFF AND BALANCE LT ISZERO PUSH2 0x214C JUMPI PUSH1 0x40 MLOAD PUSH32 0x8C379A000000000000000000000000000000000000000000000000000000000 DUP2 MSTORE PUSH1 0x4 ADD PUSH2 0x2143 SWAP1 PUSH2 0x46A8 JUMP JUMPDEST PUSH1 0x40 MLOAD DUP1 SWAP2 SUB SWAP1 REVERT JUMPDEST DUP2 PUSH20 0xFFFFFFFFFFFFFFFFFFFFFFFFFFFFFFFFFFFFFFFF AND PUSH2 0x8FC PUSH9 0x3635C9ADC5DEA00000 SWAP1 DUP2 ISZERO MUL SWAP1 PUSH1 0x40 MLOAD PUSH1 0x0 PUSH1 0x40 MLOAD DUP1 DUP4 SUB DUP2 DUP6 DUP9 DUP9 CALL SWAP4 POP POP POP POP ISZERO DUP1 ISZERO PUSH2 0x219B JUMPI RETURNDATASIZE PUSH1 0x0 DUP1 RETURNDATACOPY RETURNDATASIZE PUSH1 0x0 REVERT JUMPDEST POP POP POP JUMP JUMPDEST PUSH1 0x0 PUSH1 0x1 PUSH1 0x5 DUP2 GT ISZERO PUSH2 0x21B6 JUMPI PUSH2 0x21B5 PUSH2 0x4971 JUMP JUMPDEST JUMPDEST SWAP1 POP PUSH2 0x21C4 DUP6 DUP6 DUP4 DUP7 PUSH2 0x365A JUMP JUMPDEST PUSH1 0x8 DUP4 SWAP1 DUP1 PUSH1 0x1 DUP2 SLOAD ADD DUP1 DUP3 SSTORE DUP1 SWAP2 POP POP PUSH1 0x1 SWAP1 SUB SWAP1 PUSH1 0x0 MSTORE PUSH1 0x20 PUSH1 0x0 KECCAK256 ADD PUSH1 0x0 SWAP1 SWAP2 SWAP1 SWAP2 SWAP1 SWAP2 PUSH2 0x100 EXP DUP2 SLOAD DUP2 PUSH20 0xFFFFFFFFFFFFFFFFFFFFFFFFFFFFFFFFFFFFFFFF MUL NOT AND SWAP1 DUP4 PUSH20 0xFFFFFFFFFFFFFFFFFFFFFFFFFFFFFFFFFFFFFFFF AND MUL OR SWAP1 SSTORE POP PUSH1 0xD PUSH1 0x0 DUP4 PUSH20 0xFFFFFFFFFFFFFFFFFFFFFFFFFFFFFFFFFFFFFFFF AND PUSH20 0xFFFFFFFFFFFFFFFFFFFFFFFFFFFFFFFFFFFFFFFF AND DUP2 MSTORE PUSH1 0x20 ADD SWAP1 DUP2 MSTORE PUSH1 0x20 ADD PUSH1 0x0 KECCAK256 DUP4 SWAP1 DUP1 PUSH1 0x1 DUP2 SLOAD ADD DUP1 DUP3 SSTORE DUP1 SWAP2 POP POP PUSH1 0x1 SWAP1 SUB SWAP1 PUSH1 0x0 MSTORE PUSH1 0x20 PUSH1 0x0 KECCAK256 ADD PUSH1 0x0 SWAP1 SWAP2 SWAP1 SWAP2 SWAP1 SWAP2 PUSH2 0x100 EXP DUP2 SLOAD DUP2 PUSH20 0xFFFFFFFFFFFFFFFFFFFFFFFFFFFFFFFFFFFFFFFF MUL NOT AND SWAP1 DUP4 PUSH20 0xFFFFFFFFFFFFFFFFFFFFFFFFFFFFFFFFFFFFFFFF AND MUL OR SWAP1 SSTORE POP POP POP POP POP POP JUMP JUMPDEST PUSH1 0x60 DUP1 PUSH1 0x0 PUSH1 0x60 PUSH2 0x23B8 PUSH1 0x2 PUSH1 0x0 CALLER PUSH20 0xFFFFFFFFFFFFFFFFFFFFFFFFFFFFFFFFFFFFFFFF AND PUSH20 0xFFFFFFFFFFFFFFFFFFFFFFFFFFFFFFFFFFFFFFFF AND DUP2 MSTORE PUSH1 0x20 ADD SWAP1 DUP2 MSTORE PUSH1 0x20 ADD PUSH1 0x0 KECCAK256 PUSH1 0x1 ADD DUP1 SLOAD PUSH2 0x2325 SWAP1 PUSH2 0x490E JUMP JUMPDEST DUP1 PUSH1 0x1F ADD PUSH1 0x20 DUP1 SWAP2 DIV MUL PUSH1 0x20 ADD PUSH1 0x40 MLOAD SWAP1 DUP2 ADD PUSH1 0x40 MSTORE DUP1 SWAP3 SWAP2 SWAP1 DUP2 DUP2 MSTORE PUSH1 0x20 ADD DUP3 DUP1 SLOAD PUSH2 0x2351 SWAP1 PUSH2 0x490E JUMP JUMPDEST DUP1 ISZERO PUSH2 0x239E JUMPI DUP1 PUSH1 0x1F LT PUSH2 0x2373 JUMPI PUSH2 0x100 DUP1 DUP4 SLOAD DIV MUL DUP4 MSTORE SWAP2 PUSH1 0x20 ADD SWAP2 PUSH2 0x239E JUMP JUMPDEST DUP3 ADD SWAP2 SWAP1 PUSH1 0x0 MSTORE PUSH1 0x20 PUSH1 0x0 KECCAK256 SWAP1 JUMPDEST DUP2 SLOAD DUP2 MSTORE SWAP1 PUSH1 0x1 ADD SWAP1 PUSH1 0x20 ADD DUP1 DUP4 GT PUSH2 0x2381 JUMPI DUP3 SWAP1 SUB PUSH1 0x1F AND DUP3 ADD SWAP2 JUMPDEST POP POP POP POP POP PUSH1 0x40 MLOAD DUP1 PUSH1 0x20 ADD PUSH1 0x40 MSTORE DUP1 PUSH1 0x0 DUP2 MSTORE POP PUSH2 0x395D JUMP JUMPDEST ISZERO PUSH2 0x23F8 JUMPI PUSH1 0x40 MLOAD PUSH32 0x8C379A000000000000000000000000000000000000000000000000000000000 DUP2 MSTORE PUSH1 0x4 ADD PUSH2 0x23EF SWAP1 PUSH2 0x46E8 JUMP JUMPDEST PUSH1 0x40 MLOAD DUP1 SWAP2 SUB SWAP1 REVERT JUMPDEST PUSH1 0x0 PUSH1 0x2 PUSH1 0x0 CALLER PUSH20 0xFFFFFFFFFFFFFFFFFFFFFFFFFFFFFFFFFFFFFFFF AND PUSH20 0xFFFFFFFFFFFFFFFFFFFFFFFFFFFFFFFFFFFFFFFF AND DUP2 MSTORE PUSH1 0x20 ADD SWAP1 DUP2 MSTORE PUSH1 0x20 ADD PUSH1 0x0 KECCAK256 PUSH1 0x40 MLOAD DUP1 PUSH1 0x80 ADD PUSH1 0x40 MSTORE SWAP1 DUP2 PUSH1 0x0 DUP3 ADD SLOAD DUP2 MSTORE PUSH1 0x20 ADD PUSH1 0x1 DUP3 ADD DUP1 SLOAD PUSH2 0x245E SWAP1 PUSH2 0x490E JUMP JUMPDEST DUP1 PUSH1 0x1F ADD PUSH1 0x20 DUP1 SWAP2 DIV MUL PUSH1 0x20 ADD PUSH1 0x40 MLOAD SWAP1 DUP2 ADD PUSH1 0x40 MSTORE DUP1 SWAP3 SWAP2 SWAP1 DUP2 DUP2 MSTORE PUSH1 0x20 ADD DUP3 DUP1 SLOAD PUSH2 0x248A SWAP1 PUSH2 0x490E JUMP JUMPDEST DUP1 ISZERO PUSH2 0x24D7 JUMPI DUP1 PUSH1 0x1F LT PUSH2 0x24AC JUMPI PUSH2 0x100 DUP1 DUP4 SLOAD DIV MUL DUP4 MSTORE SWAP2 PUSH1 0x20 ADD SWAP2 PUSH2 0x24D7 JUMP JUMPDEST DUP3 ADD SWAP2 SWAP1 PUSH1 0x0 MSTORE PUSH1 0x20 PUSH1 0x0 KECCAK256 SWAP1 JUMPDEST DUP2 SLOAD DUP2 MSTORE SWAP1 PUSH1 0x1 ADD SWAP1 PUSH1 0x20 ADD DUP1 DUP4 GT PUSH2 0x24BA JUMPI DUP3 SWAP1 SUB PUSH1 0x1F AND DUP3 ADD SWAP2 JUMPDEST POP POP POP POP POP DUP2 MSTORE PUSH1 0x20 ADD PUSH1 0x2 DUP3 ADD DUP1 SLOAD PUSH2 0x24F0 SWAP1 PUSH2 0x490E JUMP JUMPDEST DUP1 PUSH1 0x1F ADD PUSH1 0x20 DUP1 SWAP2 DIV MUL PUSH1 0x20 ADD PUSH1 0x40 MLOAD SWAP1 DUP2 ADD PUSH1 0x40 MSTORE DUP1 SWAP3 SWAP2 SWAP1 DUP2 DUP2 MSTORE PUSH1 0x20 ADD DUP3 DUP1 SLOAD PUSH2 0x251C SWAP1 PUSH2 0x490E JUMP JUMPDEST DUP1 ISZERO PUSH2 0x2569 JUMPI DUP1 PUSH1 0x1F LT PUSH2 0x253E JUMPI PUSH2 0x100 DUP1 DUP4 SLOAD DIV MUL DUP4 MSTORE SWAP2 PUSH1 0x20 ADD SWAP2 PUSH2 0x2569 JUMP JUMPDEST DUP3 ADD SWAP2 SWAP1 PUSH1 0x0 MSTORE PUSH1 0x20 PUSH1 0x0 KECCAK256 SWAP1 JUMPDEST DUP2 SLOAD DUP2 MSTORE SWAP1 PUSH1 0x1 ADD SWAP1 PUSH1 0x20 ADD DUP1 DUP4 GT PUSH2 0x254C JUMPI DUP3 SWAP1 SUB PUSH1 0x1F AND DUP3 ADD SWAP2 JUMPDEST POP POP POP POP POP DUP2 MSTORE PUSH1 0x20 ADD PUSH1 0x3 DUP3 ADD DUP1 SLOAD DUP1 PUSH1 0x20 MUL PUSH1 0x20 ADD PUSH1 0x40 MLOAD SWAP1 DUP2 ADD PUSH1 0x40 MSTORE DUP1 SWAP3 SWAP2 SWAP1 DUP2 DUP2 MSTORE PUSH1 0x20 ADD PUSH1 0x0 SWAP1 JUMPDEST DUP3 DUP3 LT ISZERO PUSH2 0x2643 JUMPI DUP4 DUP3 SWAP1 PUSH1 0x0 MSTORE PUSH1 0x20 PUSH1 0x0 KECCAK256 ADD DUP1 SLOAD PUSH2 0x25B6 SWAP1 PUSH2 0x490E JUMP JUMPDEST DUP1 PUSH1 0x1F ADD PUSH1 0x20 DUP1 SWAP2 DIV MUL PUSH1 0x20 ADD PUSH1 0x40 MLOAD SWAP1 DUP2 ADD PUSH1 0x40 MSTORE DUP1 SWAP3 SWAP2 SWAP1 DUP2 DUP2 MSTORE PUSH1 0x20 ADD DUP3 DUP1 SLOAD PUSH2 0x25E2 SWAP1 PUSH2 0x490E JUMP JUMPDEST DUP1 ISZERO PUSH2 0x262F JUMPI DUP1 PUSH1 0x1F LT PUSH2 0x2604 JUMPI PUSH2 0x100 DUP1 DUP4 SLOAD DIV MUL DUP4 MSTORE SWAP2 PUSH1 0x20 ADD SWAP2 PUSH2 0x262F JUMP JUMPDEST DUP3 ADD SWAP2 SWAP1 PUSH1 0x0 MSTORE PUSH1 0x20 PUSH1 0x0 KECCAK256 SWAP1 JUMPDEST DUP2 SLOAD DUP2 MSTORE SWAP1 PUSH1 0x1 ADD SWAP1 PUSH1 0x20 ADD DUP1 DUP4 GT PUSH2 0x2612 JUMPI DUP3 SWAP1 SUB PUSH1 0x1F AND DUP3 ADD SWAP2 JUMPDEST POP POP POP POP POP DUP2 MSTORE PUSH1 0x20 ADD SWAP1 PUSH1 0x1 ADD SWAP1 PUSH2 0x2597 JUMP JUMPDEST POP POP POP POP DUP2 MSTORE POP POP SWAP1 POP DUP1 PUSH1 0x20 ADD MLOAD SWAP5 POP DUP1 PUSH1 0x40 ADD MLOAD SWAP4 POP CALLER PUSH20 0xFFFFFFFFFFFFFFFFFFFFFFFFFFFFFFFFFFFFFFFF AND BALANCE SWAP3 POP DUP1 PUSH1 0x60 ADD MLOAD SWAP2 POP POP SWAP1 SWAP2 SWAP3 SWAP4 JUMP JUMPDEST PUSH1 0x0 DUP1 PUSH1 0x5 DUP2 GT ISZERO PUSH2 0x2698 JUMPI PUSH2 0x2697 PUSH2 0x4971 JUMP JUMPDEST JUMPDEST SWAP1 POP PUSH2 0x26A6 DUP5 DUP5 DUP4 DUP6 PUSH2 0x365A JUMP JUMPDEST POP POP POP POP JUMP JUMPDEST PUSH1 0x3 PUSH1 0x2 PUSH1 0x0 CALLER PUSH20 0xFFFFFFFFFFFFFFFFFFFFFFFFFFFFFFFFFFFFFFFF AND PUSH20 0xFFFFFFFFFFFFFFFFFFFFFFFFFFFFFFFFFFFFFFFF AND DUP2 MSTORE PUSH1 0x20 ADD SWAP1 DUP2 MSTORE PUSH1 0x20 ADD PUSH1 0x0 KECCAK256 PUSH1 0x0 ADD SLOAD DUP2 PUSH1 0x5 DUP2 GT ISZERO PUSH2 0x2704 JUMPI PUSH2 0x2703 PUSH2 0x4971 JUMP JUMPDEST JUMPDEST EQ PUSH2 0x2744 JUMPI PUSH1 0x40 MLOAD PUSH32 0x8C379A000000000000000000000000000000000000000000000000000000000 DUP2 MSTORE PUSH1 0x4 ADD PUSH2 0x273B SWAP1 PUSH2 0x46C8 JUMP JUMPDEST PUSH1 0x40 MLOAD DUP1 SWAP2 SUB SWAP1 REVERT JUMPDEST PUSH1 0x0 PUSH1 0x3 PUSH1 0x5 DUP2 GT ISZERO PUSH2 0x275A JUMPI PUSH2 0x2759 PUSH2 0x4971 JUMP JUMPDEST JUMPDEST SWAP1 POP PUSH2 0x2768 DUP5 DUP5 DUP4 DUP9 PUSH2 0x365A JUMP JUMPDEST PUSH1 0x6 DUP4 SWAP1 DUP1 PUSH1 0x1 DUP2 SLOAD ADD DUP1 DUP3 SSTORE DUP1 SWAP2 POP POP PUSH1 0x1 SWAP1 SUB SWAP1 PUSH1 0x0 MSTORE PUSH1 0x20 PUSH1 0x0 KECCAK256 ADD PUSH1 0x0 SWAP1 SWAP2 SWAP1 SWAP2 SWAP1 SWAP2 POP SWAP1 DUP1 MLOAD SWAP1 PUSH1 0x20 ADD SWAP1 PUSH2 0x27A3 SWAP3 SWAP2 SWAP1 PUSH2 0x39B6 JUMP JUMPDEST POP POP POP POP POP POP JUMP JUMPDEST PUSH1 0x0 PUSH1 0x2 PUSH1 0x0 CALLER PUSH20 0xFFFFFFFFFFFFFFFFFFFFFFFFFFFFFFFFFFFFFFFF AND PUSH20 0xFFFFFFFFFFFFFFFFFFFFFFFFFFFFFFFFFFFFFFFF AND DUP2 MSTORE PUSH1 0x20 ADD SWAP1 DUP2 MSTORE PUSH1 0x20 ADD PUSH1 0x0 KECCAK256 PUSH1 0x0 ADD SLOAD DUP2 PUSH1 0x5 DUP2 GT ISZERO PUSH2 0x2803 JUMPI PUSH2 0x2802 PUSH2 0x4971 JUMP JUMPDEST JUMPDEST EQ PUSH2 0x2843 JUMPI PUSH1 0x40 MLOAD PUSH32 0x8C379A000000000000000000000000000000000000000000000000000000000 DUP2 MSTORE PUSH1 0x4 ADD PUSH2 0x283A SWAP1 PUSH2 0x46C8 JUMP JUMPDEST PUSH1 0x40 MLOAD DUP1 SWAP2 SUB SWAP1 REVERT JUMPDEST PUSH1 0x0 PUSH1 0x40 MLOAD DUP1 PUSH1 0x80 ADD PUSH1 0x40 MSTORE DUP1 CALLER PUSH20 0xFFFFFFFFFFFFFFFFFFFFFFFFFFFFFFFFFFFFFFFF AND DUP2 MSTORE PUSH1 0x20 ADD PUSH1 0x0 PUSH1 0x5 DUP2 GT ISZERO PUSH2 0x2880 JUMPI PUSH2 0x287F PUSH2 0x4971 JUMP JUMPDEST JUMPDEST DUP2 MSTORE PUSH1 0x20 ADD PUSH1 0x1 PUSH1 0x5 DUP2 GT ISZERO PUSH2 0x2899 JUMPI PUSH2 0x2898 PUSH2 0x4971 JUMP JUMPDEST JUMPDEST DUP2 MSTORE PUSH1 0x20 ADD PUSH1 0x0 ISZERO ISZERO DUP2 MSTORE POP SWAP1 POP DUP1 PUSH1 0x10 DUP5 PUSH1 0x40 MLOAD PUSH2 0x28B8 SWAP2 SWAP1 PUSH2 0x4443 JUMP JUMPDEST SWAP1 DUP2 MSTORE PUSH1 0x20 ADD PUSH1 0x40 MLOAD DUP1 SWAP2 SUB SWAP1 KECCAK256 PUSH1 0x0 DUP3 ADD MLOAD DUP2 PUSH1 0x0 ADD PUSH1 0x0 PUSH2 0x100 EXP DUP2 SLOAD DUP2 PUSH20 0xFFFFFFFFFFFFFFFFFFFFFFFFFFFFFFFFFFFFFFFF MUL NOT AND SWAP1 DUP4 PUSH20 0xFFFFFFFFFFFFFFFFFFFFFFFFFFFFFFFFFFFFFFFF AND MUL OR SWAP1 SSTORE POP PUSH1 0x20 DUP3 ADD MLOAD DUP2 PUSH1 0x1 ADD SSTORE PUSH1 0x40 DUP3 ADD MLOAD DUP2 PUSH1 0x2 ADD SSTORE PUSH1 0x60 DUP3 ADD MLOAD DUP2 PUSH1 0x3 ADD PUSH1 0x0 PUSH2 0x100 EXP DUP2 SLOAD DUP2 PUSH1 0xFF MUL NOT AND SWAP1 DUP4 ISZERO ISZERO MUL OR SWAP1 SSTORE POP SWAP1 POP POP PUSH1 0xA DUP4 SWAP1 DUP1 PUSH1 0x1 DUP2 SLOAD ADD DUP1 DUP3 SSTORE DUP1 SWAP2 POP POP PUSH1 0x1 SWAP1 SUB SWAP1 PUSH1 0x0 MSTORE PUSH1 0x20 PUSH1 0x0 KECCAK256 ADD PUSH1 0x0 SWAP1 SWAP2 SWAP1 SWAP2 SWAP1 SWAP2 POP SWAP1 DUP1 MLOAD SWAP1 PUSH1 0x20 ADD SWAP1 PUSH2 0x297F SWAP3 SWAP2 SWAP1 PUSH2 0x39B6 JUMP JUMPDEST POP POP POP POP JUMP JUMPDEST PUSH1 0x1 PUSH1 0x2 PUSH1 0x0 CALLER PUSH20 0xFFFFFFFFFFFFFFFFFFFFFFFFFFFFFFFFFFFFFFFF AND PUSH20 0xFFFFFFFFFFFFFFFFFFFFFFFFFFFFFFFFFFFFFFFF AND DUP2 MSTORE PUSH1 0x20 ADD SWAP1 DUP2 MSTORE PUSH1 0x20 ADD PUSH1 0x0 KECCAK256 PUSH1 0x0 ADD SLOAD DUP2 PUSH1 0x5 DUP2 GT ISZERO PUSH2 0x29DD JUMPI PUSH2 0x29DC PUSH2 0x4971 JUMP JUMPDEST JUMPDEST EQ PUSH2 0x2A1D JUMPI PUSH1 0x40 MLOAD PUSH32 0x8C379A000000000000000000000000000000000000000000000000000000000 DUP2 MSTORE PUSH1 0x4 ADD PUSH2 0x2A14 SWAP1 PUSH2 0x46C8 JUMP JUMPDEST PUSH1 0x40 MLOAD DUP1 SWAP2 SUB SWAP1 REVERT JUMPDEST PUSH1 0x0 PUSH1 0x40 MLOAD DUP1 PUSH1 0x80 ADD PUSH1 0x40 MSTORE DUP1 CALLER PUSH20 0xFFFFFFFFFFFFFFFFFFFFFFFFFFFFFFFFFFFFFFFF AND DUP2 MSTORE PUSH1 0x20 ADD PUSH1 0x1 PUSH1 0x5 DUP2 GT ISZERO PUSH2 0x2A5A JUMPI PUSH2 0x2A59 PUSH2 0x4971 JUMP JUMPDEST JUMPDEST DUP2 MSTORE PUSH1 0x20 ADD PUSH1 0x0 PUSH1 0x5 DUP2 GT ISZERO PUSH2 0x2A73 JUMPI PUSH2 0x2A72 PUSH2 0x4971 JUMP JUMPDEST JUMPDEST DUP2 MSTORE PUSH1 0x20 ADD PUSH1 0x0 ISZERO ISZERO DUP2 MSTORE POP SWAP1 POP DUP1 PUSH1 0x10 DUP5 PUSH1 0x40 MLOAD PUSH2 0x2A92 SWAP2 SWAP1 PUSH2 0x4443 JUMP JUMPDEST SWAP1 DUP2 MSTORE PUSH1 0x20 ADD PUSH1 0x40 MLOAD DUP1 SWAP2 SUB SWAP1 KECCAK256 PUSH1 0x0 DUP3 ADD MLOAD DUP2 PUSH1 0x0 ADD PUSH1 0x0 PUSH2 0x100 EXP DUP2 SLOAD DUP2 PUSH20 0xFFFFFFFFFFFFFFFFFFFFFFFFFFFFFFFFFFFFFFFF MUL NOT AND SWAP1 DUP4 PUSH20 0xFFFFFFFFFFFFFFFFFFFFFFFFFFFFFFFFFFFFFFFF AND MUL OR SWAP1 SSTORE POP PUSH1 0x20 DUP3 ADD MLOAD DUP2 PUSH1 0x1 ADD SSTORE PUSH1 0x40 DUP3 ADD MLOAD DUP2 PUSH1 0x2 ADD SSTORE PUSH1 0x60 DUP3 ADD MLOAD DUP2 PUSH1 0x3 ADD PUSH1 0x0 PUSH2 0x100 EXP DUP2 SLOAD DUP2 PUSH1 0xFF MUL NOT AND SWAP1 DUP4 ISZERO ISZERO MUL OR SWAP1 SSTORE POP SWAP1 POP POP PUSH1 0xA DUP4 SWAP1 DUP1 PUSH1 0x1 DUP2 SLOAD ADD DUP1 DUP3 SSTORE DUP1 SWAP2 POP POP PUSH1 0x1 SWAP1 SUB SWAP1 PUSH1 0x0 MSTORE PUSH1 0x20 PUSH1 0x0 KECCAK256 ADD PUSH1 0x0 SWAP1 SWAP2 SWAP1 SWAP2 SWAP1 SWAP2 POP SWAP1 DUP1 MLOAD SWAP1 PUSH1 0x20 ADD SWAP1 PUSH2 0x2B59 SWAP3 SWAP2 SWAP1 PUSH2 0x39B6 JUMP JUMPDEST POP POP POP POP JUMP JUMPDEST PUSH2 0x2C42 PUSH1 0x2 PUSH1 0x0 CALLER PUSH20 0xFFFFFFFFFFFFFFFFFFFFFFFFFFFFFFFFFFFFFFFF AND PUSH20 0xFFFFFFFFFFFFFFFFFFFFFFFFFFFFFFFFFFFFFFFF AND DUP2 MSTORE PUSH1 0x20 ADD SWAP1 DUP2 MSTORE PUSH1 0x20 ADD PUSH1 0x0 KECCAK256 PUSH1 0x1 ADD DUP1 SLOAD PUSH2 0x2BAF SWAP1 PUSH2 0x490E JUMP JUMPDEST DUP1 PUSH1 0x1F ADD PUSH1 0x20 DUP1 SWAP2 DIV MUL PUSH1 0x20 ADD PUSH1 0x40 MLOAD SWAP1 DUP2 ADD PUSH1 0x40 MSTORE DUP1 SWAP3 SWAP2 SWAP1 DUP2 DUP2 MSTORE PUSH1 0x20 ADD DUP3 DUP1 SLOAD PUSH2 0x2BDB SWAP1 PUSH2 0x490E JUMP JUMPDEST DUP1 ISZERO PUSH2 0x2C28 JUMPI DUP1 PUSH1 0x1F LT PUSH2 0x2BFD JUMPI PUSH2 0x100 DUP1 DUP4 SLOAD DIV MUL DUP4 MSTORE SWAP2 PUSH1 0x20 ADD SWAP2 PUSH2 0x2C28 JUMP JUMPDEST DUP3 ADD SWAP2 SWAP1 PUSH1 0x0 MSTORE PUSH1 0x20 PUSH1 0x0 KECCAK256 SWAP1 JUMPDEST DUP2 SLOAD DUP2 MSTORE SWAP1 PUSH1 0x1 ADD SWAP1 PUSH1 0x20 ADD DUP1 DUP4 GT PUSH2 0x2C0B JUMPI DUP3 SWAP1 SUB PUSH1 0x1F AND DUP3 ADD SWAP2 JUMPDEST POP POP POP POP POP PUSH1 0x40 MLOAD DUP1 PUSH1 0x20 ADD PUSH1 0x40 MSTORE DUP1 PUSH1 0x0 DUP2 MSTORE POP PUSH2 0x395D JUMP JUMPDEST ISZERO PUSH2 0x2C82 JUMPI PUSH1 0x40 MLOAD PUSH32 0x8C379A000000000000000000000000000000000000000000000000000000000 DUP2 MSTORE PUSH1 0x4 ADD PUSH2 0x2C79 SWAP1 PUSH2 0x46E8 JUMP JUMPDEST PUSH1 0x40 MLOAD DUP1 SWAP2 SUB SWAP1 REVERT JUMPDEST PUSH1 0x0 ISZERO ISZERO PUSH1 0x11 DUP3 PUSH1 0x40 MLOAD PUSH2 0x2C96 SWAP2 SWAP1 PUSH2 0x4443 JUMP JUMPDEST SWAP1 DUP2 MSTORE PUSH1 0x20 ADD PUSH1 0x40 MLOAD DUP1 SWAP2 SUB SWAP1 KECCAK256 PUSH1 0x0 CALLER PUSH20 0xFFFFFFFFFFFFFFFFFFFFFFFFFFFFFFFFFFFFFFFF AND PUSH20 0xFFFFFFFFFFFFFFFFFFFFFFFFFFFFFFFFFFFFFFFF AND DUP2 MSTORE PUSH1 0x20 ADD SWAP1 DUP2 MSTORE PUSH1 0x20 ADD PUSH1 0x0 KECCAK256 PUSH1 0x0 SWAP1 SLOAD SWAP1 PUSH2 0x100 EXP SWAP1 DIV PUSH1 0xFF AND ISZERO ISZERO EQ PUSH2 0x2D31 JUMPI PUSH1 0x40 MLOAD PUSH32 0x8C379A000000000000000000000000000000000000000000000000000000000 DUP2 MSTORE PUSH1 0x4 ADD PUSH2 0x2D28 SWAP1 PUSH2 0x4668 JUMP JUMPDEST PUSH1 0x40 MLOAD DUP1 SWAP2 SUB SWAP1 REVERT JUMPDEST PUSH1 0xF DUP2 PUSH1 0x40 MLOAD PUSH2 0x2D41 SWAP2 SWAP1 PUSH2 0x4443 JUMP JUMPDEST SWAP1 DUP2 MSTORE PUSH1 0x20 ADD PUSH1 0x40 MLOAD DUP1 SWAP2 SUB SWAP1 KECCAK256 PUSH1 0x4 ADD CALLER SWAP1 DUP1 PUSH1 0x1 DUP2 SLOAD ADD DUP1 DUP3 SSTORE DUP1 SWAP2 POP POP PUSH1 0x1 SWAP1 SUB SWAP1 PUSH1 0x0 MSTORE PUSH1 0x20 PUSH1 0x0 KECCAK256 ADD PUSH1 0x0 SWAP1 SWAP2 SWAP1 SWAP2 SWAP1 SWAP2 PUSH2 0x100 EXP DUP2 SLOAD DUP2 PUSH20 0xFFFFFFFFFFFFFFFFFFFFFFFFFFFFFFFFFFFFFFFF MUL NOT AND SWAP1 DUP4 PUSH20 0xFFFFFFFFFFFFFFFFFFFFFFFFFFFFFFFFFFFFFFFF AND MUL OR SWAP1 SSTORE POP PUSH1 0x1 PUSH1 0x11 DUP3 PUSH1 0x40 MLOAD PUSH2 0x2DC5 SWAP2 SWAP1 PUSH2 0x4443 JUMP JUMPDEST SWAP1 DUP2 MSTORE PUSH1 0x20 ADD PUSH1 0x40 MLOAD DUP1 SWAP2 SUB SWAP1 KECCAK256 PUSH1 0x0 CALLER PUSH20 0xFFFFFFFFFFFFFFFFFFFFFFFFFFFFFFFFFFFFFFFF AND PUSH20 0xFFFFFFFFFFFFFFFFFFFFFFFFFFFFFFFFFFFFFFFF AND DUP2 MSTORE PUSH1 0x20 ADD SWAP1 DUP2 MSTORE PUSH1 0x20 ADD PUSH1 0x0 KECCAK256 PUSH1 0x0 PUSH2 0x100 EXP DUP2 SLOAD DUP2 PUSH1 0xFF MUL NOT AND SWAP1 DUP4 ISZERO ISZERO MUL OR SWAP1 SSTORE POP POP JUMP JUMPDEST PUSH1 0x60 DUP1 PUSH1 0x60 DUP1 PUSH1 0x3 PUSH1 0x2 PUSH1 0x0 CALLER PUSH20 0xFFFFFFFFFFFFFFFFFFFFFFFFFFFFFFFFFFFFFFFF AND PUSH20 0xFFFFFFFFFFFFFFFFFFFFFFFFFFFFFFFFFFFFFFFF AND DUP2 MSTORE PUSH1 0x20 ADD SWAP1 DUP2 MSTORE PUSH1 0x20 ADD PUSH1 0x0 KECCAK256 PUSH1 0x0 ADD SLOAD DUP2 PUSH1 0x5 DUP2 GT ISZERO PUSH2 0x2E88 JUMPI PUSH2 0x2E87 PUSH2 0x4971 JUMP JUMPDEST JUMPDEST EQ PUSH2 0x2EC8 JUMPI PUSH1 0x40 MLOAD PUSH32 0x8C379A000000000000000000000000000000000000000000000000000000000 DUP2 MSTORE PUSH1 0x4 ADD PUSH2 0x2EBF SWAP1 PUSH2 0x46C8 JUMP JUMPDEST PUSH1 0x40 MLOAD DUP1 SWAP2 SUB SWAP1 REVERT JUMPDEST PUSH1 0x0 PUSH1 0x2 PUSH1 0x0 CALLER PUSH20 0xFFFFFFFFFFFFFFFFFFFFFFFFFFFFFFFFFFFFFFFF AND PUSH20 0xFFFFFFFFFFFFFFFFFFFFFFFFFFFFFFFFFFFFFFFF AND DUP2 MSTORE PUSH1 0x20 ADD SWAP1 DUP2 MSTORE PUSH1 0x20 ADD PUSH1 0x0 KECCAK256 PUSH1 0x40 MLOAD DUP1 PUSH1 0x80 ADD PUSH1 0x40 MSTORE SWAP1 DUP2 PUSH1 0x0 DUP3 ADD SLOAD DUP2 MSTORE PUSH1 0x20 ADD PUSH1 0x1 DUP3 ADD DUP1 SLOAD PUSH2 0x2F2E SWAP1 PUSH2 0x490E JUMP JUMPDEST DUP1 PUSH1 0x1F ADD PUSH1 0x20 DUP1 SWAP2 DIV MUL PUSH1 0x20 ADD PUSH1 0x40 MLOAD SWAP1 DUP2 ADD PUSH1 0x40 MSTORE DUP1 SWAP3 SWAP2 SWAP1 DUP2 DUP2 MSTORE PUSH1 0x20 ADD DUP3 DUP1 SLOAD PUSH2 0x2F5A SWAP1 PUSH2 0x490E JUMP JUMPDEST DUP1 ISZERO PUSH2 0x2FA7 JUMPI DUP1 PUSH1 0x1F LT PUSH2 0x2F7C JUMPI PUSH2 0x100 DUP1 DUP4 SLOAD DIV MUL DUP4 MSTORE SWAP2 PUSH1 0x20 ADD SWAP2 PUSH2 0x2FA7 JUMP JUMPDEST DUP3 ADD SWAP2 SWAP1 PUSH1 0x0 MSTORE PUSH1 0x20 PUSH1 0x0 KECCAK256 SWAP1 JUMPDEST DUP2 SLOAD DUP2 MSTORE SWAP1 PUSH1 0x1 ADD SWAP1 PUSH1 0x20 ADD DUP1 DUP4 GT PUSH2 0x2F8A JUMPI DUP3 SWAP1 SUB PUSH1 0x1F AND DUP3 ADD SWAP2 JUMPDEST POP POP POP POP POP DUP2 MSTORE PUSH1 0x20 ADD PUSH1 0x2 DUP3 ADD DUP1 SLOAD PUSH2 0x2FC0 SWAP1 PUSH2 0x490E JUMP JUMPDEST DUP1 PUSH1 0x1F ADD PUSH1 0x20 DUP1 SWAP2 DIV MUL PUSH1 0x20 ADD PUSH1 0x40 MLOAD SWAP1 DUP2 ADD PUSH1 0x40 MSTORE DUP1 SWAP3 SWAP2 SWAP1 DUP2 DUP2 MSTORE PUSH1 0x20 ADD DUP3 DUP1 SLOAD PUSH2 0x2FEC SWAP1 PUSH2 0x490E JUMP JUMPDEST DUP1 ISZERO PUSH2 0x3039 JUMPI DUP1 PUSH1 0x1F LT PUSH2 0x300E JUMPI PUSH2 0x100 DUP1 DUP4 SLOAD DIV MUL DUP4 MSTORE SWAP2 PUSH1 0x20 ADD SWAP2 PUSH2 0x3039 JUMP JUMPDEST DUP3 ADD SWAP2 SWAP1 PUSH1 0x0 MSTORE PUSH1 0x20 PUSH1 0x0 KECCAK256 SWAP1 JUMPDEST DUP2 SLOAD DUP2 MSTORE SWAP1 PUSH1 0x1 ADD SWAP1 PUSH1 0x20 ADD DUP1 DUP4 GT PUSH2 0x301C JUMPI DUP3 SWAP1 SUB PUSH1 0x1F AND DUP3 ADD SWAP2 JUMPDEST POP POP POP POP POP DUP2 MSTORE PUSH1 0x20 ADD PUSH1 0x3 DUP3 ADD DUP1 SLOAD DUP1 PUSH1 0x20 MUL PUSH1 0x20 ADD PUSH1 0x40 MLOAD SWAP1 DUP2 ADD PUSH1 0x40 MSTORE DUP1 SWAP3 SWAP2 SWAP1 DUP2 DUP2 MSTORE PUSH1 0x20 ADD PUSH1 0x0 SWAP1 JUMPDEST DUP3 DUP3 LT ISZERO PUSH2 0x3113 JUMPI DUP4 DUP3 SWAP1 PUSH1 0x0 MSTORE PUSH1 0x20 PUSH1 0x0 KECCAK256 ADD DUP1 SLOAD PUSH2 0x3086 SWAP1 PUSH2 0x490E JUMP JUMPDEST DUP1 PUSH1 0x1F ADD PUSH1 0x20 DUP1 SWAP2 DIV MUL PUSH1 0x20 ADD PUSH1 0x40 MLOAD SWAP1 DUP2 ADD PUSH1 0x40 MSTORE DUP1 SWAP3 SWAP2 SWAP1 DUP2 DUP2 MSTORE PUSH1 0x20 ADD DUP3 DUP1 SLOAD PUSH2 0x30B2 SWAP1 PUSH2 0x490E JUMP JUMPDEST DUP1 ISZERO PUSH2 0x30FF JUMPI DUP1 PUSH1 0x1F LT PUSH2 0x30D4 JUMPI PUSH2 0x100 DUP1 DUP4 SLOAD DIV MUL DUP4 MSTORE SWAP2 PUSH1 0x20 ADD SWAP2 PUSH2 0x30FF JUMP JUMPDEST DUP3 ADD SWAP2 SWAP1 PUSH1 0x0 MSTORE PUSH1 0x20 PUSH1 0x0 KECCAK256 SWAP1 JUMPDEST DUP2 SLOAD DUP2 MSTORE SWAP1 PUSH1 0x1 ADD SWAP1 PUSH1 0x20 ADD DUP1 DUP4 GT PUSH2 0x30E2 JUMPI DUP3 SWAP1 SUB PUSH1 0x1F AND DUP3 ADD SWAP2 JUMPDEST POP POP POP POP POP DUP2 MSTORE PUSH1 0x20 ADD SWAP1 PUSH1 0x1 ADD SWAP1 PUSH2 0x3067 JUMP JUMPDEST POP POP POP POP DUP2 MSTORE POP POP SWAP1 POP DUP1 PUSH1 0x20 ADD MLOAD SWAP6 POP PUSH1 0xA DUP1 SLOAD DUP1 PUSH1 0x20 MUL PUSH1 0x20 ADD PUSH1 0x40 MLOAD SWAP1 DUP2 ADD PUSH1 0x40 MSTORE DUP1 SWAP3 SWAP2 SWAP1 DUP2 DUP2 MSTORE PUSH1 0x20 ADD PUSH1 0x0 SWAP1 JUMPDEST DUP3 DUP3 LT ISZERO PUSH2 0x31F2 JUMPI DUP4 DUP3 SWAP1 PUSH1 0x0 MSTORE PUSH1 0x20 PUSH1 0x0 KECCAK256 ADD DUP1 SLOAD PUSH2 0x3165 SWAP1 PUSH2 0x490E JUMP JUMPDEST DUP1 PUSH1 0x1F ADD PUSH1 0x20 DUP1 SWAP2 DIV MUL PUSH1 0x20 ADD PUSH1 0x40 MLOAD SWAP1 DUP2 ADD PUSH1 0x40 MSTORE DUP1 SWAP3 SWAP2 SWAP1 DUP2 DUP2 MSTORE PUSH1 0x20 ADD DUP3 DUP1 SLOAD PUSH2 0x3191 SWAP1 PUSH2 0x490E JUMP JUMPDEST DUP1 ISZERO PUSH2 0x31DE JUMPI DUP1 PUSH1 0x1F LT PUSH2 0x31B3 JUMPI PUSH2 0x100 DUP1 DUP4 SLOAD DIV MUL DUP4 MSTORE SWAP2 PUSH1 0x20 ADD SWAP2 PUSH2 0x31DE JUMP JUMPDEST DUP3 ADD SWAP2 SWAP1 PUSH1 0x0 MSTORE PUSH1 0x20 PUSH1 0x0 KECCAK256 SWAP1 JUMPDEST DUP2 SLOAD DUP2 MSTORE SWAP1 PUSH1 0x1 ADD SWAP1 PUSH1 0x20 ADD DUP1 DUP4 GT PUSH2 0x31C1 JUMPI DUP3 SWAP1 SUB PUSH1 0x1F AND DUP3 ADD SWAP2 JUMPDEST POP POP POP POP POP DUP2 MSTORE PUSH1 0x20 ADD SWAP1 PUSH1 0x1 ADD SWAP1 PUSH2 0x3146 JUMP JUMPDEST POP POP POP POP SWAP5 POP PUSH1 0x6 DUP1 SLOAD DUP1 PUSH1 0x20 MUL PUSH1 0x20 ADD PUSH1 0x40 MLOAD SWAP1 DUP2 ADD PUSH1 0x40 MSTORE DUP1 SWAP3 SWAP2 SWAP1 DUP2 DUP2 MSTORE PUSH1 0x20 ADD PUSH1 0x0 SWAP1 JUMPDEST DUP3 DUP3 LT ISZERO PUSH2 0x32C6 JUMPI DUP4 DUP3 SWAP1 PUSH1 0x0 MSTORE PUSH1 0x20 PUSH1 0x0 KECCAK256 ADD DUP1 SLOAD PUSH2 0x3239 SWAP1 PUSH2 0x490E JUMP JUMPDEST DUP1 PUSH1 0x1F ADD PUSH1 0x20 DUP1 SWAP2 DIV MUL PUSH1 0x20 ADD PUSH1 0x40 MLOAD SWAP1 DUP2 ADD PUSH1 0x40 MSTORE DUP1 SWAP3 SWAP2 SWAP1 DUP2 DUP2 MSTORE PUSH1 0x20 ADD DUP3 DUP1 SLOAD PUSH2 0x3265 SWAP1 PUSH2 0x490E JUMP JUMPDEST DUP1 ISZERO PUSH2 0x32B2 JUMPI DUP1 PUSH1 0x1F LT PUSH2 0x3287 JUMPI PUSH2 0x100 DUP1 DUP4 SLOAD DIV MUL DUP4 MSTORE SWAP2 PUSH1 0x20 ADD SWAP2 PUSH2 0x32B2 JUMP JUMPDEST DUP3 ADD SWAP2 SWAP1 PUSH1 0x0 MSTORE PUSH1 0x20 PUSH1 0x0 KECCAK256 SWAP1 JUMPDEST DUP2 SLOAD DUP2 MSTORE SWAP1 PUSH1 0x1 ADD SWAP1 PUSH1 0x20 ADD DUP1 DUP4 GT PUSH2 0x3295 JUMPI DUP3 SWAP1 SUB PUSH1 0x1F AND DUP3 ADD SWAP2 JUMPDEST POP POP POP POP POP DUP2 MSTORE PUSH1 0x20 ADD SWAP1 PUSH1 0x1 ADD SWAP1 PUSH2 0x321A JUMP JUMPDEST POP POP POP POP SWAP4 POP PUSH1 0x8 DUP1 SLOAD DUP1 PUSH1 0x20 MUL PUSH1 0x20 ADD PUSH1 0x40 MLOAD SWAP1 DUP2 ADD PUSH1 0x40 MSTORE DUP1 SWAP3 SWAP2 SWAP1 DUP2 DUP2 MSTORE PUSH1 0x20 ADD DUP3 DUP1 SLOAD DUP1 ISZERO PUSH2 0x334E JUMPI PUSH1 0x20 MUL DUP3 ADD SWAP2 SWAP1 PUSH1 0x0 MSTORE PUSH1 0x20 PUSH1 0x0 KECCAK256 SWAP1 JUMPDEST DUP2 PUSH1 0x0 SWAP1 SLOAD SWAP1 PUSH2 0x100 EXP SWAP1 DIV PUSH20 0xFFFFFFFFFFFFFFFFFFFFFFFFFFFFFFFFFFFFFFFF AND PUSH20 0xFFFFFFFFFFFFFFFFFFFFFFFFFFFFFFFFFFFFFFFF AND DUP2 MSTORE PUSH1 0x20 ADD SWAP1 PUSH1 0x1 ADD SWAP1 DUP1 DUP4 GT PUSH2 0x3304 JUMPI JUMPDEST POP POP POP POP POP SWAP3 POP POP POP SWAP1 SWAP2 SWAP3 SWAP4 JUMP JUMPDEST PUSH1 0x0 PUSH1 0x60 DUP1 PUSH1 0x0 PUSH1 0x10 DUP6 PUSH1 0x40 MLOAD PUSH2 0x3374 SWAP2 SWAP1 PUSH2 0x4443 JUMP JUMPDEST SWAP1 DUP2 MSTORE PUSH1 0x20 ADD PUSH1 0x40 MLOAD DUP1 SWAP2 SUB SWAP1 KECCAK256 PUSH1 0x40 MLOAD DUP1 PUSH1 0x80 ADD PUSH1 0x40 MSTORE SWAP1 DUP2 PUSH1 0x0 DUP3 ADD PUSH1 0x0 SWAP1 SLOAD SWAP1 PUSH2 0x100 EXP SWAP1 DIV PUSH20 0xFFFFFFFFFFFFFFFFFFFFFFFFFFFFFFFFFFFFFFFF AND PUSH20 0xFFFFFFFFFFFFFFFFFFFFFFFFFFFFFFFFFFFFFFFF AND PUSH20 0xFFFFFFFFFFFFFFFFFFFFFFFFFFFFFFFFFFFFFFFF AND DUP2 MSTORE PUSH1 0x20 ADD PUSH1 0x1 DUP3 ADD SLOAD DUP2 MSTORE PUSH1 0x20 ADD PUSH1 0x2 DUP3 ADD SLOAD DUP2 MSTORE PUSH1 0x20 ADD PUSH1 0x3 DUP3 ADD PUSH1 0x0 SWAP1 SLOAD SWAP1 PUSH2 0x100 EXP SWAP1 DIV PUSH1 0xFF AND ISZERO ISZERO ISZERO ISZERO DUP2 MSTORE POP POP SWAP1 POP DUP1 PUSH1 0x0 ADD MLOAD SWAP4 POP PUSH1 0x0 DUP1 DUP3 PUSH1 0x20 ADD MLOAD DUP2 MSTORE PUSH1 0x20 ADD SWAP1 DUP2 MSTORE PUSH1 0x20 ADD PUSH1 0x0 KECCAK256 DUP1 SLOAD PUSH2 0x343C SWAP1 PUSH2 0x490E JUMP JUMPDEST DUP1 PUSH1 0x1F ADD PUSH1 0x20 DUP1 SWAP2 DIV MUL PUSH1 0x20 ADD PUSH1 0x40 MLOAD SWAP1 DUP2 ADD PUSH1 0x40 MSTORE DUP1 SWAP3 SWAP2 SWAP1 DUP2 DUP2 MSTORE PUSH1 0x20 ADD DUP3 DUP1 SLOAD PUSH2 0x3468 SWAP1 PUSH2 0x490E JUMP JUMPDEST DUP1 ISZERO PUSH2 0x34B5 JUMPI DUP1 PUSH1 0x1F LT PUSH2 0x348A JUMPI PUSH2 0x100 DUP1 DUP4 SLOAD DIV MUL DUP4 MSTORE SWAP2 PUSH1 0x20 ADD SWAP2 PUSH2 0x34B5 JUMP JUMPDEST DUP3 ADD SWAP2 SWAP1 PUSH1 0x0 MSTORE PUSH1 0x20 PUSH1 0x0 KECCAK256 SWAP1 JUMPDEST DUP2 SLOAD DUP2 MSTORE SWAP1 PUSH1 0x1 ADD SWAP1 PUSH1 0x20 ADD DUP1 DUP4 GT PUSH2 0x3498 JUMPI DUP3 SWAP1 SUB PUSH1 0x1F AND DUP3 ADD SWAP2 JUMPDEST POP POP POP POP POP SWAP3 POP PUSH1 0x0 DUP1 DUP3 PUSH1 0x40 ADD MLOAD DUP2 MSTORE PUSH1 0x20 ADD SWAP1 DUP2 MSTORE PUSH1 0x20 ADD PUSH1 0x0 KECCAK256 DUP1 SLOAD PUSH2 0x34DD SWAP1 PUSH2 0x490E JUMP JUMPDEST DUP1 PUSH1 0x1F ADD PUSH1 0x20 DUP1 SWAP2 DIV MUL PUSH1 0x20 ADD PUSH1 0x40 MLOAD SWAP1 DUP2 ADD PUSH1 0x40 MSTORE DUP1 SWAP3 SWAP2 SWAP1 DUP2 DUP2 MSTORE PUSH1 0x20 ADD DUP3 DUP1 SLOAD PUSH2 0x3509 SWAP1 PUSH2 0x490E JUMP JUMPDEST DUP1 ISZERO PUSH2 0x3556 JUMPI DUP1 PUSH1 0x1F LT PUSH2 0x352B JUMPI PUSH2 0x100 DUP1 DUP4 SLOAD DIV MUL DUP4 MSTORE SWAP2 PUSH1 0x20 ADD SWAP2 PUSH2 0x3556 JUMP JUMPDEST DUP3 ADD SWAP2 SWAP1 PUSH1 0x0 MSTORE PUSH1 0x20 PUSH1 0x0 KECCAK256 SWAP1 JUMPDEST DUP2 SLOAD DUP2 MSTORE SWAP1 PUSH1 0x1 ADD SWAP1 PUSH1 0x20 ADD DUP1 DUP4 GT PUSH2 0x3539 JUMPI DUP3 SWAP1 SUB PUSH1 0x1F AND DUP3 ADD SWAP2 JUMPDEST POP POP POP POP POP SWAP2 POP POP SWAP2 SWAP4 SWAP1 SWAP3 POP JUMP JUMPDEST PUSH1 0x5 PUSH1 0x0 SWAP1 SLOAD SWAP1 PUSH2 0x100 EXP SWAP1 DIV PUSH20 0xFFFFFFFFFFFFFFFFFFFFFFFFFFFFFFFFFFFFFFFF AND PUSH20 0xFFFFFFFFFFFFFFFFFFFFFFFFFFFFFFFFFFFFFFFF AND CALLER PUSH20 0xFFFFFFFFFFFFFFFFFFFFFFFFFFFFFFFFFFFFFFFF AND EQ PUSH2 0x35F5 JUMPI PUSH1 0x40 MLOAD PUSH32 0x8C379A000000000000000000000000000000000000000000000000000000000 DUP2 MSTORE PUSH1 0x4 ADD PUSH2 0x35EC SWAP1 PUSH2 0x4708 JUMP JUMPDEST PUSH1 0x40 MLOAD DUP1 SWAP2 SUB SWAP1 REVERT JUMPDEST PUSH1 0x0 PUSH1 0x3 PUSH1 0x5 DUP2 GT ISZERO PUSH2 0x360B JUMPI PUSH2 0x360A PUSH2 0x4971 JUMP JUMPDEST JUMPDEST SWAP1 POP PUSH2 0x3619 DUP4 DUP4 DUP4 CALLER PUSH2 0x365A JUMP JUMPDEST PUSH1 0x6 DUP3 SWAP1 DUP1 PUSH1 0x1 DUP2 SLOAD ADD DUP1 DUP3 SSTORE DUP1 SWAP2 POP POP PUSH1 0x1 SWAP1 SUB SWAP1 PUSH1 0x0 MSTORE PUSH1 0x20 PUSH1 0x0 KECCAK256 ADD PUSH1 0x0 SWAP1 SWAP2 SWAP1 SWAP2 SWAP1 SWAP2 POP SWAP1 DUP1 MLOAD SWAP1 PUSH1 0x20 ADD SWAP1 PUSH2 0x3654 SWAP3 SWAP2 SWAP1 PUSH2 0x39B6 JUMP JUMPDEST POP POP POP POP JUMP JUMPDEST DUP1 DUP4 PUSH2 0x373F PUSH1 0x2 PUSH1 0x0 DUP5 PUSH20 0xFFFFFFFFFFFFFFFFFFFFFFFFFFFFFFFFFFFFFFFF AND PUSH20 0xFFFFFFFFFFFFFFFFFFFFFFFFFFFFFFFFFFFFFFFF AND DUP2 MSTORE PUSH1 0x20 ADD SWAP1 DUP2 MSTORE PUSH1 0x20 ADD PUSH1 0x0 KECCAK256 PUSH1 0x2 ADD DUP1 SLOAD PUSH2 0x36AC SWAP1 PUSH2 0x490E JUMP JUMPDEST DUP1 PUSH1 0x1F ADD PUSH1 0x20 DUP1 SWAP2 DIV MUL PUSH1 0x20 ADD PUSH1 0x40 MLOAD SWAP1 DUP2 ADD PUSH1 0x40 MSTORE DUP1 SWAP3 SWAP2 SWAP1 DUP2 DUP2 MSTORE PUSH1 0x20 ADD DUP3 DUP1 SLOAD PUSH2 0x36D8 SWAP1 PUSH2 0x490E JUMP JUMPDEST DUP1 ISZERO PUSH2 0x3725 JUMPI DUP1 PUSH1 0x1F LT PUSH2 0x36FA JUMPI PUSH2 0x100 DUP1 DUP4 SLOAD DIV MUL DUP4 MSTORE SWAP2 PUSH1 0x20 ADD SWAP2 PUSH2 0x3725 JUMP JUMPDEST DUP3 ADD SWAP2 SWAP1 PUSH1 0x0 MSTORE PUSH1 0x20 PUSH1 0x0 KECCAK256 SWAP1 JUMPDEST DUP2 SLOAD DUP2 MSTORE SWAP1 PUSH1 0x1 ADD SWAP1 PUSH1 0x20 ADD DUP1 DUP4 GT PUSH2 0x3708 JUMPI DUP3 SWAP1 SUB PUSH1 0x1F AND DUP3 ADD SWAP2 JUMPDEST POP POP POP POP POP PUSH1 0x40 MLOAD DUP1 PUSH1 0x20 ADD PUSH1 0x40 MSTORE DUP1 PUSH1 0x0 DUP2 MSTORE POP PUSH2 0x395D JUMP JUMPDEST PUSH2 0x377E JUMPI PUSH1 0x40 MLOAD PUSH32 0x8C379A000000000000000000000000000000000000000000000000000000000 DUP2 MSTORE PUSH1 0x4 ADD PUSH2 0x3775 SWAP1 PUSH2 0x4728 JUMP JUMPDEST PUSH1 0x40 MLOAD DUP1 SWAP2 SUB SWAP1 REVERT JUMPDEST PUSH1 0x0 PUSH20 0xFFFFFFFFFFFFFFFFFFFFFFFFFFFFFFFFFFFFFFFF AND PUSH1 0x1 DUP3 PUSH1 0x40 MLOAD PUSH2 0x37A6 SWAP2 SWAP1 PUSH2 0x4443 JUMP JUMPDEST SWAP1 DUP2 MSTORE PUSH1 0x20 ADD PUSH1 0x40 MLOAD DUP1 SWAP2 SUB SWAP1 KECCAK256 PUSH1 0x0 SWAP1 SLOAD SWAP1 PUSH2 0x100 EXP SWAP1 DIV PUSH20 0xFFFFFFFFFFFFFFFFFFFFFFFFFFFFFFFFFFFFFFFF AND PUSH20 0xFFFFFFFFFFFFFFFFFFFFFFFFFFFFFFFFFFFFFFFF AND EQ PUSH2 0x382B JUMPI PUSH1 0x40 MLOAD PUSH32 0x8C379A000000000000000000000000000000000000000000000000000000000 DUP2 MSTORE PUSH1 0x4 ADD PUSH2 0x3822 SWAP1 PUSH2 0x4688 JUMP JUMPDEST PUSH1 0x40 MLOAD DUP1 SWAP2 SUB SWAP1 REVERT JUMPDEST PUSH1 0x60 PUSH1 0x0 PUSH1 0x40 MLOAD DUP1 PUSH1 0x80 ADD PUSH1 0x40 MSTORE DUP1 DUP8 DUP2 MSTORE PUSH1 0x20 ADD DUP9 DUP2 MSTORE PUSH1 0x20 ADD DUP10 DUP2 MSTORE PUSH1 0x20 ADD DUP4 DUP2 MSTORE POP SWAP1 POP DUP5 PUSH1 0x1 DUP9 PUSH1 0x40 MLOAD PUSH2 0x3863 SWAP2 SWAP1 PUSH2 0x4443 JUMP JUMPDEST SWAP1 DUP2 MSTORE PUSH1 0x20 ADD PUSH1 0x40 MLOAD DUP1 SWAP2 SUB SWAP1 KECCAK256 PUSH1 0x0 PUSH2 0x100 EXP DUP2 SLOAD DUP2 PUSH20 0xFFFFFFFFFFFFFFFFFFFFFFFFFFFFFFFFFFFFFFFF MUL NOT AND SWAP1 DUP4 PUSH20 0xFFFFFFFFFFFFFFFFFFFFFFFFFFFFFFFFFFFFFFFF AND MUL OR SWAP1 SSTORE POP DUP1 PUSH1 0x2 PUSH1 0x0 DUP8 PUSH20 0xFFFFFFFFFFFFFFFFFFFFFFFFFFFFFFFFFFFFFFFF AND PUSH20 0xFFFFFFFFFFFFFFFFFFFFFFFFFFFFFFFFFFFFFFFF AND DUP2 MSTORE PUSH1 0x20 ADD SWAP1 DUP2 MSTORE PUSH1 0x20 ADD PUSH1 0x0 KECCAK256 PUSH1 0x0 DUP3 ADD MLOAD DUP2 PUSH1 0x0 ADD SSTORE PUSH1 0x20 DUP3 ADD MLOAD DUP2 PUSH1 0x1 ADD SWAP1 DUP1 MLOAD SWAP1 PUSH1 0x20 ADD SWAP1 PUSH2 0x3915 SWAP3 SWAP2 SWAP1 PUSH2 0x39B6 JUMP JUMPDEST POP PUSH1 0x40 DUP3 ADD MLOAD DUP2 PUSH1 0x2 ADD SWAP1 DUP1 MLOAD SWAP1 PUSH1 0x20 ADD SWAP1 PUSH2 0x3932 SWAP3 SWAP2 SWAP1 PUSH2 0x39B6 JUMP JUMPDEST POP PUSH1 0x60 DUP3 ADD MLOAD DUP2 PUSH1 0x3 ADD SWAP1 DUP1 MLOAD SWAP1 PUSH1 0x20 ADD SWAP1 PUSH2 0x394F SWAP3 SWAP2 SWAP1 PUSH2 0x3AC6 JUMP JUMPDEST POP SWAP1 POP POP POP POP POP POP POP POP POP POP JUMP JUMPDEST PUSH1 0x0 DUP2 PUSH1 0x40 MLOAD PUSH1 0x20 ADD PUSH2 0x3970 SWAP2 SWAP1 PUSH2 0x4443 JUMP JUMPDEST PUSH1 0x40 MLOAD PUSH1 0x20 DUP2 DUP4 SUB SUB DUP2 MSTORE SWAP1 PUSH1 0x40 MSTORE DUP1 MLOAD SWAP1 PUSH1 0x20 ADD KECCAK256 DUP4 PUSH1 0x40 MLOAD PUSH1 0x20 ADD PUSH2 0x3997 SWAP2 SWAP1 PUSH2 0x4443 JUMP JUMPDEST PUSH1 0x40 MLOAD PUSH1 0x20 DUP2 DUP4 SUB SUB DUP2 MSTORE SWAP1 PUSH1 0x40 MSTORE DUP1 MLOAD SWAP1 PUSH1 0x20 ADD KECCAK256 EQ SWAP1 POP SWAP3 SWAP2 POP POP JUMP JUMPDEST DUP3 DUP1 SLOAD PUSH2 0x39C2 SWAP1 PUSH2 0x490E JUMP JUMPDEST SWAP1 PUSH1 0x0 MSTORE PUSH1 0x20 PUSH1 0x0 KECCAK256 SWAP1 PUSH1 0x1F ADD PUSH1 0x20 SWAP1 DIV DUP2 ADD SWAP3 DUP3 PUSH2 0x39E4 JUMPI PUSH1 0x0 DUP6 SSTORE PUSH2 0x3A2B JUMP JUMPDEST DUP3 PUSH1 0x1F LT PUSH2 0x39FD JUMPI DUP1 MLOAD PUSH1 0xFF NOT AND DUP4 DUP1 ADD OR DUP6 SSTORE PUSH2 0x3A2B JUMP JUMPDEST DUP3 DUP1 ADD PUSH1 0x1 ADD DUP6 SSTORE DUP3 ISZERO PUSH2 0x3A2B JUMPI SWAP2 DUP3 ADD JUMPDEST DUP3 DUP2 GT ISZERO PUSH2 0x3A2A JUMPI DUP3 MLOAD DUP3 SSTORE SWAP2 PUSH1 0x20 ADD SWAP2 SWAP1 PUSH1 0x1 ADD SWAP1 PUSH2 0x3A0F JUMP JUMPDEST JUMPDEST POP SWAP1 POP PUSH2 0x3A38 SWAP2 SWAP1 PUSH2 0x3B26 JUMP JUMPDEST POP SWAP1 JUMP JUMPDEST DUP3 DUP1 SLOAD DUP3 DUP3 SSTORE SWAP1 PUSH1 0x0 MSTORE PUSH1 0x20 PUSH1 0x0 KECCAK256 SWAP1 DUP2 ADD SWAP3 DUP3 ISZERO PUSH2 0x3AB5 JUMPI SWAP2 PUSH1 0x20 MUL DUP3 ADD JUMPDEST DUP3 DUP2 GT ISZERO PUSH2 0x3AB4 JUMPI DUP3 MLOAD DUP3 PUSH1 0x0 PUSH2 0x100 EXP DUP2 SLOAD DUP2 PUSH20 0xFFFFFFFFFFFFFFFFFFFFFFFFFFFFFFFFFFFFFFFF MUL NOT AND SWAP1 DUP4 PUSH20 0xFFFFFFFFFFFFFFFFFFFFFFFFFFFFFFFFFFFFFFFF AND MUL OR SWAP1 SSTORE POP SWAP2 PUSH1 0x20 ADD SWAP2 SWAP1 PUSH1 0x1 ADD SWAP1 PUSH2 0x3A5C JUMP JUMPDEST JUMPDEST POP SWAP1 POP PUSH2 0x3AC2 SWAP2 SWAP1 PUSH2 0x3B26 JUMP JUMPDEST POP SWAP1 JUMP JUMPDEST DUP3 DUP1 SLOAD DUP3 DUP3 SSTORE SWAP1 PUSH1 0x0 MSTORE PUSH1 0x20 PUSH1 0x0 KECCAK256 SWAP1 DUP2 ADD SWAP3 DUP3 ISZERO PUSH2 0x3B15 JUMPI SWAP2 PUSH1 0x20 MUL DUP3 ADD JUMPDEST DUP3 DUP2 GT ISZERO PUSH2 0x3B14 JUMPI DUP3 MLOAD DUP3 SWAP1 DUP1 MLOAD SWAP1 PUSH1 0x20 ADD SWAP1 PUSH2 0x3B04 SWAP3 SWAP2 SWAP1 PUSH2 0x39B6 JUMP JUMPDEST POP SWAP2 PUSH1 0x20 ADD SWAP2 SWAP1 PUSH1 0x1 ADD SWAP1 PUSH2 0x3AE6 JUMP JUMPDEST JUMPDEST POP SWAP1 POP PUSH2 0x3B22 SWAP2 SWAP1 PUSH2 0x3B43 JUMP JUMPDEST POP SWAP1 JUMP JUMPDEST JUMPDEST DUP1 DUP3 GT ISZERO PUSH2 0x3B3F JUMPI PUSH1 0x0 DUP2 PUSH1 0x0 SWAP1 SSTORE POP PUSH1 0x1 ADD PUSH2 0x3B27 JUMP JUMPDEST POP SWAP1 JUMP JUMPDEST JUMPDEST DUP1 DUP3 GT ISZERO PUSH2 0x3B63 JUMPI PUSH1 0x0 DUP2 DUP2 PUSH2 0x3B5A SWAP2 SWAP1 PUSH2 0x3B67 JUMP JUMPDEST POP PUSH1 0x1 ADD PUSH2 0x3B44 JUMP JUMPDEST POP SWAP1 JUMP JUMPDEST POP DUP1 SLOAD PUSH2 0x3B73 SWAP1 PUSH2 0x490E JUMP JUMPDEST PUSH1 0x0 DUP3 SSTORE DUP1 PUSH1 0x1F LT PUSH2 0x3B85 JUMPI POP PUSH2 0x3BA4 JUMP JUMPDEST PUSH1 0x1F ADD PUSH1 0x20 SWAP1 DIV SWAP1 PUSH1 0x0 MSTORE PUSH1 0x20 PUSH1 0x0 KECCAK256 SWAP1 DUP2 ADD SWAP1 PUSH2 0x3BA3 SWAP2 SWAP1 PUSH2 0x3B26 JUMP JUMPDEST JUMPDEST POP JUMP JUMPDEST PUSH1 0x0 PUSH2 0x3BBA PUSH2 0x3BB5 DUP5 PUSH2 0x478D JUMP JUMPDEST PUSH2 0x4768 JUMP JUMPDEST SWAP1 POP DUP3 DUP2 MSTORE PUSH1 0x20 DUP2 ADD DUP5 DUP5 DUP5 ADD GT ISZERO PUSH2 0x3BD6 JUMPI PUSH2 0x3BD5 PUSH2 0x4A03 JUMP JUMPDEST JUMPDEST PUSH2 0x3BE1 DUP5 DUP3 DUP6 PUSH2 0x48CC JUMP JUMPDEST POP SWAP4 SWAP3 POP POP POP JUMP JUMPDEST PUSH1 0x0 DUP2 CALLDATALOAD SWAP1 POP PUSH2 0x3BF8 DUP2 PUSH2 0x4B91 JUMP JUMPDEST SWAP3 SWAP2 POP POP JUMP JUMPDEST PUSH1 0x0 DUP2 CALLDATALOAD SWAP1 POP PUSH2 0x3C0D DUP2 PUSH2 0x4BA8 JUMP JUMPDEST SWAP3 SWAP2 POP POP JUMP JUMPDEST PUSH1 0x0 DUP2 CALLDATALOAD SWAP1 POP PUSH2 0x3C22 DUP2 PUSH2 0x4BBF JUMP JUMPDEST SWAP3 SWAP2 POP POP JUMP JUMPDEST PUSH1 0x0 DUP2 CALLDATALOAD SWAP1 POP PUSH2 0x3C37 DUP2 PUSH2 0x4BD6 JUMP JUMPDEST SWAP3 SWAP2 POP POP JUMP JUMPDEST PUSH1 0x0 DUP3 PUSH1 0x1F DUP4 ADD SLT PUSH2 0x3C52 JUMPI PUSH2 0x3C51 PUSH2 0x49FE JUMP JUMPDEST JUMPDEST DUP2 CALLDATALOAD PUSH2 0x3C62 DUP5 DUP3 PUSH1 0x20 DUP7 ADD PUSH2 0x3BA7 JUMP JUMPDEST SWAP2 POP POP SWAP3 SWAP2 POP POP JUMP JUMPDEST PUSH1 0x0 PUSH1 0x20 DUP3 DUP5 SUB SLT ISZERO PUSH2 0x3C81 JUMPI PUSH2 0x3C80 PUSH2 0x4A0D JUMP JUMPDEST JUMPDEST PUSH1 0x0 PUSH2 0x3C8F DUP5 DUP3 DUP6 ADD PUSH2 0x3BE9 JUMP JUMPDEST SWAP2 POP POP SWAP3 SWAP2 POP POP JUMP JUMPDEST PUSH1 0x0 PUSH1 0x20 DUP3 DUP5 SUB SLT ISZERO PUSH2 0x3CAE JUMPI PUSH2 0x3CAD PUSH2 0x4A0D JUMP JUMPDEST JUMPDEST PUSH1 0x0 PUSH2 0x3CBC DUP5 DUP3 DUP6 ADD PUSH2 0x3BFE JUMP JUMPDEST SWAP2 POP POP SWAP3 SWAP2 POP POP JUMP JUMPDEST PUSH1 0x0 DUP1 PUSH1 0x0 PUSH1 0x60 DUP5 DUP7 SUB SLT ISZERO PUSH2 0x3CDE JUMPI PUSH2 0x3CDD PUSH2 0x4A0D JUMP JUMPDEST JUMPDEST PUSH1 0x0 PUSH2 0x3CEC DUP7 DUP3 DUP8 ADD PUSH2 0x3BE9 JUMP JUMPDEST SWAP4 POP POP PUSH1 0x20 DUP5 ADD CALLDATALOAD PUSH8 0xFFFFFFFFFFFFFFFF DUP2 GT ISZERO PUSH2 0x3D0D JUMPI PUSH2 0x3D0C PUSH2 0x4A08 JUMP JUMPDEST JUMPDEST PUSH2 0x3D19 DUP7 DUP3 DUP8 ADD PUSH2 0x3C3D JUMP JUMPDEST SWAP3 POP POP PUSH1 0x40 DUP5 ADD CALLDATALOAD PUSH8 0xFFFFFFFFFFFFFFFF DUP2 GT ISZERO PUSH2 0x3D3A JUMPI PUSH2 0x3D39 PUSH2 0x4A08 JUMP JUMPDEST JUMPDEST PUSH2 0x3D46 DUP7 DUP3 DUP8 ADD PUSH2 0x3C3D JUMP JUMPDEST SWAP2 POP POP SWAP3 POP SWAP3 POP SWAP3 JUMP JUMPDEST PUSH1 0x0 DUP1 PUSH1 0x0 DUP1 PUSH1 0x80 DUP6 DUP8 SUB SLT ISZERO PUSH2 0x3D6A JUMPI PUSH2 0x3D69 PUSH2 0x4A0D JUMP JUMPDEST JUMPDEST PUSH1 0x0 PUSH2 0x3D78 DUP8 DUP3 DUP9 ADD PUSH2 0x3BE9 JUMP JUMPDEST SWAP5 POP POP PUSH1 0x20 DUP6 ADD CALLDATALOAD PUSH8 0xFFFFFFFFFFFFFFFF DUP2 GT ISZERO PUSH2 0x3D99 JUMPI PUSH2 0x3D98 PUSH2 0x4A08 JUMP JUMPDEST JUMPDEST PUSH2 0x3DA5 DUP8 DUP3 DUP9 ADD PUSH2 0x3C3D JUMP JUMPDEST SWAP4 POP POP PUSH1 0x40 DUP6 ADD CALLDATALOAD PUSH8 0xFFFFFFFFFFFFFFFF DUP2 GT ISZERO PUSH2 0x3DC6 JUMPI PUSH2 0x3DC5 PUSH2 0x4A08 JUMP JUMPDEST JUMPDEST PUSH2 0x3DD2 DUP8 DUP3 DUP9 ADD PUSH2 0x3C3D JUMP JUMPDEST SWAP3 POP POP PUSH1 0x60 PUSH2 0x3DE3 DUP8 DUP3 DUP9 ADD PUSH2 0x3C28 JUMP JUMPDEST SWAP2 POP POP SWAP3 SWAP6 SWAP2 SWAP5 POP SWAP3 POP JUMP JUMPDEST PUSH1 0x0 DUP1 PUSH1 0x0 DUP1 PUSH1 0x80 DUP6 DUP8 SUB SLT ISZERO PUSH2 0x3E09 JUMPI PUSH2 0x3E08 PUSH2 0x4A0D JUMP JUMPDEST JUMPDEST PUSH1 0x0 PUSH2 0x3E17 DUP8 DUP3 DUP9 ADD PUSH2 0x3BE9 JUMP JUMPDEST SWAP5 POP POP PUSH1 0x20 DUP6 ADD CALLDATALOAD PUSH8 0xFFFFFFFFFFFFFFFF DUP2 GT ISZERO PUSH2 0x3E38 JUMPI PUSH2 0x3E37 PUSH2 0x4A08 JUMP JUMPDEST JUMPDEST PUSH2 0x3E44 DUP8 DUP3 DUP9 ADD PUSH2 0x3C3D JUMP JUMPDEST SWAP4 POP POP PUSH1 0x40 DUP6 ADD CALLDATALOAD PUSH8 0xFFFFFFFFFFFFFFFF DUP2 GT ISZERO PUSH2 0x3E65 JUMPI PUSH2 0x3E64 PUSH2 0x4A08 JUMP JUMPDEST JUMPDEST PUSH2 0x3E71 DUP8 DUP3 DUP9 ADD PUSH2 0x3C3D JUMP JUMPDEST SWAP3 POP POP PUSH1 0x60 DUP6 ADD CALLDATALOAD PUSH8 0xFFFFFFFFFFFFFFFF DUP2 GT ISZERO PUSH2 0x3E92 JUMPI PUSH2 0x3E91 PUSH2 0x4A08 JUMP JUMPDEST JUMPDEST PUSH2 0x3E9E DUP8 DUP3 DUP9 ADD PUSH2 0x3C3D JUMP JUMPDEST SWAP2 POP POP SWAP3 SWAP6 SWAP2 SWAP5 POP SWAP3 POP JUMP JUMPDEST PUSH1 0x0 PUSH1 0x20 DUP3 DUP5 SUB SLT ISZERO PUSH2 0x3EC0 JUMPI PUSH2 0x3EBF PUSH2 0x4A0D JUMP JUMPDEST JUMPDEST PUSH1 0x0 DUP3 ADD CALLDATALOAD PUSH8 0xFFFFFFFFFFFFFFFF DUP2 GT ISZERO PUSH2 0x3EDE JUMPI PUSH2 0x3EDD PUSH2 0x4A08 JUMP JUMPDEST JUMPDEST PUSH2 0x3EEA DUP5 DUP3 DUP6 ADD PUSH2 0x3C3D JUMP JUMPDEST SWAP2 POP POP SWAP3 SWAP2 POP POP JUMP JUMPDEST PUSH1 0x0 DUP1 PUSH1 0x40 DUP4 DUP6 SUB SLT ISZERO PUSH2 0x3F0A JUMPI PUSH2 0x3F09 PUSH2 0x4A0D JUMP JUMPDEST JUMPDEST PUSH1 0x0 DUP4 ADD CALLDATALOAD PUSH8 0xFFFFFFFFFFFFFFFF DUP2 GT ISZERO PUSH2 0x3F28 JUMPI PUSH2 0x3F27 PUSH2 0x4A08 JUMP JUMPDEST JUMPDEST PUSH2 0x3F34 DUP6 DUP3 DUP7 ADD PUSH2 0x3C3D JUMP JUMPDEST SWAP3 POP POP PUSH1 0x20 PUSH2 0x3F45 DUP6 DUP3 DUP7 ADD PUSH2 0x3BE9 JUMP JUMPDEST SWAP2 POP POP SWAP3 POP SWAP3 SWAP1 POP JUMP JUMPDEST PUSH1 0x0 DUP1 PUSH1 0x40 DUP4 DUP6 SUB SLT ISZERO PUSH2 0x3F66 JUMPI PUSH2 0x3F65 PUSH2 0x4A0D JUMP JUMPDEST JUMPDEST PUSH1 0x0 DUP4 ADD CALLDATALOAD PUSH8 0xFFFFFFFFFFFFFFFF DUP2 GT ISZERO PUSH2 0x3F84 JUMPI PUSH2 0x3F83 PUSH2 0x4A08 JUMP JUMPDEST JUMPDEST PUSH2 0x3F90 DUP6 DUP3 DUP7 ADD PUSH2 0x3C3D JUMP JUMPDEST SWAP3 POP POP PUSH1 0x20 PUSH2 0x3FA1 DUP6 DUP3 DUP7 ADD PUSH2 0x3C13 JUMP JUMPDEST SWAP2 POP POP SWAP3 POP SWAP3 SWAP1 POP JUMP JUMPDEST PUSH1 0x0 DUP1 PUSH1 0x40 DUP4 DUP6 SUB SLT ISZERO PUSH2 0x3FC2 JUMPI PUSH2 0x3FC1 PUSH2 0x4A0D JUMP JUMPDEST JUMPDEST PUSH1 0x0 DUP4 ADD CALLDATALOAD PUSH8 0xFFFFFFFFFFFFFFFF DUP2 GT ISZERO PUSH2 0x3FE0 JUMPI PUSH2 0x3FDF PUSH2 0x4A08 JUMP JUMPDEST JUMPDEST PUSH2 0x3FEC DUP6 DUP3 DUP7 ADD PUSH2 0x3C3D JUMP JUMPDEST SWAP3 POP POP PUSH1 0x20 DUP4 ADD CALLDATALOAD PUSH8 0xFFFFFFFFFFFFFFFF DUP2 GT ISZERO PUSH2 0x400D JUMPI PUSH2 0x400C PUSH2 0x4A08 JUMP JUMPDEST JUMPDEST PUSH2 0x4019 DUP6 DUP3 DUP7 ADD PUSH2 0x3C3D JUMP JUMPDEST SWAP2 POP POP SWAP3 POP SWAP3 SWAP1 POP JUMP JUMPDEST PUSH1 0x0 DUP1 PUSH1 0x0 PUSH1 0x60 DUP5 DUP7 SUB SLT ISZERO PUSH2 0x403C JUMPI PUSH2 0x403B PUSH2 0x4A0D JUMP JUMPDEST JUMPDEST PUSH1 0x0 DUP5 ADD CALLDATALOAD PUSH8 0xFFFFFFFFFFFFFFFF DUP2 GT ISZERO PUSH2 0x405A JUMPI PUSH2 0x4059 PUSH2 0x4A08 JUMP JUMPDEST JUMPDEST PUSH2 0x4066 DUP7 DUP3 DUP8 ADD PUSH2 0x3C3D JUMP JUMPDEST SWAP4 POP POP PUSH1 0x20 DUP5 ADD CALLDATALOAD PUSH8 0xFFFFFFFFFFFFFFFF DUP2 GT ISZERO PUSH2 0x4087 JUMPI PUSH2 0x4086 PUSH2 0x4A08 JUMP JUMPDEST JUMPDEST PUSH2 0x4093 DUP7 DUP3 DUP8 ADD PUSH2 0x3C3D JUMP JUMPDEST SWAP3 POP POP PUSH1 0x40 PUSH2 0x40A4 DUP7 DUP3 DUP8 ADD PUSH2 0x3BE9 JUMP JUMPDEST SWAP2 POP POP SWAP3 POP SWAP3 POP SWAP3 JUMP JUMPDEST PUSH1 0x0 DUP1 PUSH1 0x0 DUP1 PUSH1 0x80 DUP6 DUP8 SUB SLT ISZERO PUSH2 0x40C8 JUMPI PUSH2 0x40C7 PUSH2 0x4A0D JUMP JUMPDEST JUMPDEST PUSH1 0x0 DUP6 ADD CALLDATALOAD PUSH8 0xFFFFFFFFFFFFFFFF DUP2 GT ISZERO PUSH2 0x40E6 JUMPI PUSH2 0x40E5 PUSH2 0x4A08 JUMP JUMPDEST JUMPDEST PUSH2 0x40F2 DUP8 DUP3 DUP9 ADD PUSH2 0x3C3D JUMP JUMPDEST SWAP5 POP POP PUSH1 0x20 DUP6 ADD CALLDATALOAD PUSH8 0xFFFFFFFFFFFFFFFF DUP2 GT ISZERO PUSH2 0x4113 JUMPI PUSH2 0x4112 PUSH2 0x4A08 JUMP JUMPDEST JUMPDEST PUSH2 0x411F DUP8 DUP3 DUP9 ADD PUSH2 0x3C3D JUMP JUMPDEST SWAP4 POP POP PUSH1 0x40 PUSH2 0x4130 DUP8 DUP3 DUP9 ADD PUSH2 0x3BE9 JUMP JUMPDEST SWAP3 POP POP PUSH1 0x60 PUSH2 0x4141 DUP8 DUP3 DUP9 ADD PUSH2 0x3BE9 JUMP JUMPDEST SWAP2 POP POP SWAP3 SWAP6 SWAP2 SWAP5 POP SWAP3 POP JUMP JUMPDEST PUSH1 0x0 PUSH2 0x4159 DUP4 DUP4 PUSH2 0x4179 JUMP JUMPDEST PUSH1 0x20 DUP4 ADD SWAP1 POP SWAP3 SWAP2 POP POP JUMP JUMPDEST PUSH1 0x0 PUSH2 0x4171 DUP4 DUP4 PUSH2 0x4279 JUMP JUMPDEST SWAP1 POP SWAP3 SWAP2 POP POP JUMP JUMPDEST PUSH2 0x4182 DUP2 PUSH2 0x4868 JUMP JUMPDEST DUP3 MSTORE POP POP JUMP JUMPDEST PUSH2 0x4191 DUP2 PUSH2 0x4868 JUMP JUMPDEST DUP3 MSTORE POP POP JUMP JUMPDEST PUSH1 0x0 PUSH2 0x41A2 DUP3 PUSH2 0x47DE JUMP JUMPDEST PUSH2 0x41AC DUP2 DUP6 PUSH2 0x4819 JUMP JUMPDEST SWAP4 POP PUSH2 0x41B7 DUP4 PUSH2 0x47BE JUMP JUMPDEST DUP1 PUSH1 0x0 JUMPDEST DUP4 DUP2 LT ISZERO PUSH2 0x41E8 JUMPI DUP2 MLOAD PUSH2 0x41CF DUP9 DUP3 PUSH2 0x414D JUMP JUMPDEST SWAP8 POP PUSH2 0x41DA DUP4 PUSH2 0x47FF JUMP JUMPDEST SWAP3 POP POP PUSH1 0x1 DUP2 ADD SWAP1 POP PUSH2 0x41BB JUMP JUMPDEST POP DUP6 SWAP4 POP POP POP POP SWAP3 SWAP2 POP POP JUMP JUMPDEST PUSH1 0x0 PUSH2 0x4200 DUP3 PUSH2 0x47E9 JUMP JUMPDEST PUSH2 0x420A DUP2 DUP6 PUSH2 0x482A JUMP JUMPDEST SWAP4 POP DUP4 PUSH1 0x20 DUP3 MUL DUP6 ADD PUSH2 0x421C DUP6 PUSH2 0x47CE JUMP JUMPDEST DUP1 PUSH1 0x0 JUMPDEST DUP6 DUP2 LT ISZERO PUSH2 0x4258 JUMPI DUP5 DUP5 SUB DUP10 MSTORE DUP2 MLOAD PUSH2 0x4239 DUP6 DUP3 PUSH2 0x4165 JUMP JUMPDEST SWAP5 POP PUSH2 0x4244 DUP4 PUSH2 0x480C JUMP JUMPDEST SWAP3 POP PUSH1 0x20 DUP11 ADD SWAP10 POP POP PUSH1 0x1 DUP2 ADD SWAP1 POP PUSH2 0x4220 JUMP JUMPDEST POP DUP3 SWAP8 POP DUP8 SWAP6 POP POP POP POP POP POP SWAP3 SWAP2 POP POP JUMP JUMPDEST PUSH2 0x4273 DUP2 PUSH2 0x4898 JUMP JUMPDEST DUP3 MSTORE POP POP JUMP JUMPDEST PUSH1 0x0 PUSH2 0x4284 DUP3 PUSH2 0x47F4 JUMP JUMPDEST PUSH2 0x428E DUP2 DUP6 PUSH2 0x483B JUMP JUMPDEST SWAP4 POP PUSH2 0x429E DUP2 DUP6 PUSH1 0x20 DUP7 ADD PUSH2 0x48DB JUMP JUMPDEST PUSH2 0x42A7 DUP2 PUSH2 0x4A12 JUMP JUMPDEST DUP5 ADD SWAP2 POP POP SWAP3 SWAP2 POP POP JUMP JUMPDEST PUSH1 0x0 PUSH2 0x42BD DUP3 PUSH2 0x47F4 JUMP JUMPDEST PUSH2 0x42C7 DUP2 DUP6 PUSH2 0x484C JUMP JUMPDEST SWAP4 POP PUSH2 0x42D7 DUP2 DUP6 PUSH1 0x20 DUP7 ADD PUSH2 0x48DB JUMP JUMPDEST PUSH2 0x42E0 DUP2 PUSH2 0x4A12 JUMP JUMPDEST DUP5 ADD SWAP2 POP POP SWAP3 SWAP2 POP POP JUMP JUMPDEST PUSH1 0x0 PUSH2 0x42F6 DUP3 PUSH2 0x47F4 JUMP JUMPDEST PUSH2 0x4300 DUP2 DUP6 PUSH2 0x485D JUMP JUMPDEST SWAP4 POP PUSH2 0x4310 DUP2 DUP6 PUSH1 0x20 DUP7 ADD PUSH2 0x48DB JUMP JUMPDEST DUP1 DUP5 ADD SWAP2 POP POP SWAP3 SWAP2 POP POP JUMP JUMPDEST PUSH1 0x0 PUSH2 0x4329 PUSH1 0x1B DUP4 PUSH2 0x484C JUMP JUMPDEST SWAP2 POP PUSH2 0x4334 DUP3 PUSH2 0x4A23 JUMP JUMPDEST PUSH1 0x20 DUP3 ADD SWAP1 POP SWAP2 SWAP1 POP JUMP JUMPDEST PUSH1 0x0 PUSH2 0x434C PUSH1 0x22 DUP4 PUSH2 0x484C JUMP JUMPDEST SWAP2 POP PUSH2 0x4357 DUP3 PUSH2 0x4A4C JUMP JUMPDEST PUSH1 0x40 DUP3 ADD SWAP1 POP SWAP2 SWAP1 POP JUMP JUMPDEST PUSH1 0x0 PUSH2 0x436F PUSH1 0xB DUP4 PUSH2 0x484C JUMP JUMPDEST SWAP2 POP PUSH2 0x437A DUP3 PUSH2 0x4A9B JUMP JUMPDEST PUSH1 0x20 DUP3 ADD SWAP1 POP SWAP2 SWAP1 POP JUMP JUMPDEST PUSH1 0x0 PUSH2 0x4392 PUSH1 0x9 DUP4 PUSH2 0x484C JUMP JUMPDEST SWAP2 POP PUSH2 0x439D DUP3 PUSH2 0x4AC4 JUMP JUMPDEST PUSH1 0x20 DUP3 ADD SWAP1 POP SWAP2 SWAP1 POP JUMP JUMPDEST PUSH1 0x0 PUSH2 0x43B5 PUSH1 0xC DUP4 PUSH2 0x484C JUMP JUMPDEST SWAP2 POP PUSH2 0x43C0 DUP3 PUSH2 0x4AED JUMP JUMPDEST PUSH1 0x20 DUP3 ADD SWAP1 POP SWAP2 SWAP1 POP JUMP JUMPDEST PUSH1 0x0 PUSH2 0x43D8 PUSH1 0xD DUP4 PUSH2 0x484C JUMP JUMPDEST SWAP2 POP PUSH2 0x43E3 DUP3 PUSH2 0x4B16 JUMP JUMPDEST PUSH1 0x20 DUP3 ADD SWAP1 POP SWAP2 SWAP1 POP JUMP JUMPDEST PUSH1 0x0 PUSH2 0x43FB PUSH1 0x16 DUP4 PUSH2 0x484C JUMP JUMPDEST SWAP2 POP PUSH2 0x4406 DUP3 PUSH2 0x4B3F JUMP JUMPDEST PUSH1 0x20 DUP3 ADD SWAP1 POP SWAP2 SWAP1 POP JUMP JUMPDEST PUSH1 0x0 PUSH2 0x441E PUSH1 0xB DUP4 PUSH2 0x484C JUMP JUMPDEST SWAP2 POP PUSH2 0x4429 DUP3 PUSH2 0x4B68 JUMP JUMPDEST PUSH1 0x20 DUP3 ADD SWAP1 POP SWAP2 SWAP1 POP JUMP JUMPDEST PUSH2 0x443D DUP2 PUSH2 0x48C2 JUMP JUMPDEST DUP3 MSTORE POP POP JUMP JUMPDEST PUSH1 0x0 PUSH2 0x444F DUP3 DUP5 PUSH2 0x42EB JUMP JUMPDEST SWAP2 POP DUP2 SWAP1 POP SWAP3 SWAP2 POP POP JUMP JUMPDEST PUSH1 0x0 PUSH1 0xC0 DUP3 ADD SWAP1 POP PUSH2 0x446F PUSH1 0x0 DUP4 ADD DUP10 PUSH2 0x4188 JUMP JUMPDEST PUSH2 0x447C PUSH1 0x20 DUP4 ADD DUP9 PUSH2 0x4188 JUMP JUMPDEST DUP2 DUP2 SUB PUSH1 0x40 DUP4 ADD MSTORE PUSH2 0x448E DUP2 DUP8 PUSH2 0x42B2 JUMP JUMPDEST SWAP1 POP PUSH2 0x449D PUSH1 0x60 DUP4 ADD DUP7 PUSH2 0x4434 JUMP JUMPDEST PUSH2 0x44AA PUSH1 0x80 DUP4 ADD DUP6 PUSH2 0x4434 JUMP JUMPDEST PUSH2 0x44B7 PUSH1 0xA0 DUP4 ADD DUP5 PUSH2 0x426A JUMP JUMPDEST SWAP8 SWAP7 POP POP POP POP POP POP POP JUMP JUMPDEST PUSH1 0x0 PUSH1 0x40 DUP3 ADD SWAP1 POP PUSH2 0x44D7 PUSH1 0x0 DUP4 ADD DUP6 PUSH2 0x4188 JUMP JUMPDEST DUP2 DUP2 SUB PUSH1 0x20 DUP4 ADD MSTORE PUSH2 0x44E9 DUP2 DUP5 PUSH2 0x42B2 JUMP JUMPDEST SWAP1 POP SWAP4 SWAP3 POP POP POP JUMP JUMPDEST PUSH1 0x0 PUSH1 0x60 DUP3 ADD SWAP1 POP PUSH2 0x4507 PUSH1 0x0 DUP4 ADD DUP7 PUSH2 0x4188 JUMP JUMPDEST DUP2 DUP2 SUB PUSH1 0x20 DUP4 ADD MSTORE PUSH2 0x4519 DUP2 DUP6 PUSH2 0x42B2 JUMP JUMPDEST SWAP1 POP DUP2 DUP2 SUB PUSH1 0x40 DUP4 ADD MSTORE PUSH2 0x452D DUP2 DUP5 PUSH2 0x42B2 JUMP JUMPDEST SWAP1 POP SWAP5 SWAP4 POP POP POP POP JUMP JUMPDEST PUSH1 0x0 PUSH1 0x80 DUP3 ADD SWAP1 POP DUP2 DUP2 SUB PUSH1 0x0 DUP4 ADD MSTORE PUSH2 0x4551 DUP2 DUP8 PUSH2 0x42B2 JUMP JUMPDEST SWAP1 POP DUP2 DUP2 SUB PUSH1 0x20 DUP4 ADD MSTORE PUSH2 0x4565 DUP2 DUP7 PUSH2 0x41F5 JUMP JUMPDEST SWAP1 POP DUP2 DUP2 SUB PUSH1 0x40 DUP4 ADD MSTORE PUSH2 0x4579 DUP2 DUP6 PUSH2 0x41F5 JUMP JUMPDEST SWAP1 POP DUP2 DUP2 SUB PUSH1 0x60 DUP4 ADD MSTORE PUSH2 0x458D DUP2 DUP5 PUSH2 0x4197 JUMP JUMPDEST SWAP1 POP SWAP6 SWAP5 POP POP POP POP POP JUMP JUMPDEST PUSH1 0x0 PUSH1 0xA0 DUP3 ADD SWAP1 POP DUP2 DUP2 SUB PUSH1 0x0 DUP4 ADD MSTORE PUSH2 0x45B2 DUP2 DUP9 PUSH2 0x42B2 JUMP JUMPDEST SWAP1 POP DUP2 DUP2 SUB PUSH1 0x20 DUP4 ADD MSTORE PUSH2 0x45C6 DUP2 DUP8 PUSH2 0x42B2 JUMP JUMPDEST SWAP1 POP DUP2 DUP2 SUB PUSH1 0x40 DUP4 ADD MSTORE PUSH2 0x45DA DUP2 DUP7 PUSH2 0x42B2 JUMP JUMPDEST SWAP1 POP DUP2 DUP2 SUB PUSH1 0x60 DUP4 ADD MSTORE PUSH2 0x45EE DUP2 DUP6 PUSH2 0x42B2 JUMP JUMPDEST SWAP1 POP DUP2 DUP2 SUB PUSH1 0x80 DUP4 ADD MSTORE PUSH2 0x4602 DUP2 DUP5 PUSH2 0x41F5 JUMP JUMPDEST SWAP1 POP SWAP7 SWAP6 POP POP POP POP POP POP JUMP JUMPDEST PUSH1 0x0 PUSH1 0x80 DUP3 ADD SWAP1 POP DUP2 DUP2 SUB PUSH1 0x0 DUP4 ADD MSTORE PUSH2 0x4628 DUP2 DUP8 PUSH2 0x42B2 JUMP JUMPDEST SWAP1 POP DUP2 DUP2 SUB PUSH1 0x20 DUP4 ADD MSTORE PUSH2 0x463C DUP2 DUP7 PUSH2 0x42B2 JUMP JUMPDEST SWAP1 POP PUSH2 0x464B PUSH1 0x40 DUP4 ADD DUP6 PUSH2 0x4434 JUMP JUMPDEST DUP2 DUP2 SUB PUSH1 0x60 DUP4 ADD MSTORE PUSH2 0x465D DUP2 DUP5 PUSH2 0x41F5 JUMP JUMPDEST SWAP1 POP SWAP6 SWAP5 POP POP POP POP POP JUMP JUMPDEST PUSH1 0x0 PUSH1 0x20 DUP3 ADD SWAP1 POP DUP2 DUP2 SUB PUSH1 0x0 DUP4 ADD MSTORE PUSH2 0x4681 DUP2 PUSH2 0x431C JUMP JUMPDEST SWAP1 POP SWAP2 SWAP1 POP JUMP JUMPDEST PUSH1 0x0 PUSH1 0x20 DUP3 ADD SWAP1 POP DUP2 DUP2 SUB PUSH1 0x0 DUP4 ADD MSTORE PUSH2 0x46A1 DUP2 PUSH2 0x433F JUMP JUMPDEST SWAP1 POP SWAP2 SWAP1 POP JUMP JUMPDEST PUSH1 0x0 PUSH1 0x20 DUP3 ADD SWAP1 POP DUP2 DUP2 SUB PUSH1 0x0 DUP4 ADD MSTORE PUSH2 0x46C1 DUP2 PUSH2 0x4362 JUMP JUMPDEST SWAP1 POP SWAP2 SWAP1 POP JUMP JUMPDEST PUSH1 0x0 PUSH1 0x20 DUP3 ADD SWAP1 POP DUP2 DUP2 SUB PUSH1 0x0 DUP4 ADD MSTORE PUSH2 0x46E1 DUP2 PUSH2 0x4385 JUMP JUMPDEST SWAP1 POP SWAP2 SWAP1 POP JUMP JUMPDEST PUSH1 0x0 PUSH1 0x20 DUP3 ADD SWAP1 POP DUP2 DUP2 SUB PUSH1 0x0 DUP4 ADD MSTORE PUSH2 0x4701 DUP2 PUSH2 0x43A8 JUMP JUMPDEST SWAP1 POP SWAP2 SWAP1 POP JUMP JUMPDEST PUSH1 0x0 PUSH1 0x20 DUP3 ADD SWAP1 POP DUP2 DUP2 SUB PUSH1 0x0 DUP4 ADD MSTORE PUSH2 0x4721 DUP2 PUSH2 0x43CB JUMP JUMPDEST SWAP1 POP SWAP2 SWAP1 POP JUMP JUMPDEST PUSH1 0x0 PUSH1 0x20 DUP3 ADD SWAP1 POP DUP2 DUP2 SUB PUSH1 0x0 DUP4 ADD MSTORE PUSH2 0x4741 DUP2 PUSH2 0x43EE JUMP JUMPDEST SWAP1 POP SWAP2 SWAP1 POP JUMP JUMPDEST PUSH1 0x0 PUSH1 0x20 DUP3 ADD SWAP1 POP DUP2 DUP2 SUB PUSH1 0x0 DUP4 ADD MSTORE PUSH2 0x4761 DUP2 PUSH2 0x4411 JUMP JUMPDEST SWAP1 POP SWAP2 SWAP1 POP JUMP JUMPDEST PUSH1 0x0 PUSH2 0x4772 PUSH2 0x4783 JUMP JUMPDEST SWAP1 POP PUSH2 0x477E DUP3 DUP3 PUSH2 0x4940 JUMP JUMPDEST SWAP2 SWAP1 POP JUMP JUMPDEST PUSH1 0x0 PUSH1 0x40 MLOAD SWAP1 POP SWAP1 JUMP JUMPDEST PUSH1 0x0 PUSH8 0xFFFFFFFFFFFFFFFF DUP3 GT ISZERO PUSH2 0x47A8 JUMPI PUSH2 0x47A7 PUSH2 0x49CF JUMP JUMPDEST JUMPDEST PUSH2 0x47B1 DUP3 PUSH2 0x4A12 JUMP JUMPDEST SWAP1 POP PUSH1 0x20 DUP2 ADD SWAP1 POP SWAP2 SWAP1 POP JUMP JUMPDEST PUSH1 0x0 DUP2 SWAP1 POP PUSH1 0x20 DUP3 ADD SWAP1 POP SWAP2 SWAP1 POP JUMP JUMPDEST PUSH1 0x0 DUP2 SWAP1 POP PUSH1 0x20 DUP3 ADD SWAP1 POP SWAP2 SWAP1 POP JUMP JUMPDEST PUSH1 0x0 DUP2 MLOAD SWAP1 POP SWAP2 SWAP1 POP JUMP JUMPDEST PUSH1 0x0 DUP2 MLOAD SWAP1 POP SWAP2 SWAP1 POP JUMP JUMPDEST PUSH1 0x0 DUP2 MLOAD SWAP1 POP SWAP2 SWAP1 POP JUMP JUMPDEST PUSH1 0x0 PUSH1 0x20 DUP3 ADD SWAP1 POP SWAP2 SWAP1 POP JUMP JUMPDEST PUSH1 0x0 PUSH1 0x20 DUP3 ADD SWAP1 POP SWAP2 SWAP1 POP JUMP JUMPDEST PUSH1 0x0 DUP3 DUP3 MSTORE PUSH1 0x20 DUP3 ADD SWAP1 POP SWAP3 SWAP2 POP POP JUMP JUMPDEST PUSH1 0x0 DUP3 DUP3 MSTORE PUSH1 0x20 DUP3 ADD SWAP1 POP SWAP3 SWAP2 POP POP JUMP JUMPDEST PUSH1 0x0 DUP3 DUP3 MSTORE PUSH1 0x20 DUP3 ADD SWAP1 POP SWAP3 SWAP2 POP POP JUMP JUMPDEST PUSH1 0x0 DUP3 DUP3 MSTORE PUSH1 0x20 DUP3 ADD SWAP1 POP SWAP3 SWAP2 POP POP JUMP JUMPDEST PUSH1 0x0 DUP2 SWAP1 POP SWAP3 SWAP2 POP POP JUMP JUMPDEST PUSH1 0x0 PUSH2 0x4873 DUP3 PUSH2 0x48A2 JUMP JUMPDEST SWAP1 POP SWAP2 SWAP1 POP JUMP JUMPDEST PUSH1 0x0 PUSH2 0x4885 DUP3 PUSH2 0x48A2 JUMP JUMPDEST SWAP1 POP SWAP2 SWAP1 POP JUMP JUMPDEST PUSH1 0x0 DUP2 ISZERO ISZERO SWAP1 POP SWAP2 SWAP1 POP JUMP JUMPDEST PUSH1 0x0 DUP2 SWAP1 POP SWAP2 SWAP1 POP JUMP JUMPDEST PUSH1 0x0 PUSH20 0xFFFFFFFFFFFFFFFFFFFFFFFFFFFFFFFFFFFFFFFF DUP3 AND SWAP1 POP SWAP2 SWAP1 POP JUMP JUMPDEST PUSH1 0x0 DUP2 SWAP1 POP SWAP2 SWAP1 POP JUMP JUMPDEST DUP3 DUP2 DUP4 CALLDATACOPY PUSH1 0x0 DUP4 DUP4 ADD MSTORE POP POP POP JUMP JUMPDEST PUSH1 0x0 JUMPDEST DUP4 DUP2 LT ISZERO PUSH2 0x48F9 JUMPI DUP1 DUP3 ADD MLOAD DUP2 DUP5 ADD MSTORE PUSH1 0x20 DUP2 ADD SWAP1 POP PUSH2 0x48DE JUMP JUMPDEST DUP4 DUP2 GT ISZERO PUSH2 0x4908 JUMPI PUSH1 0x0 DUP5 DUP5 ADD MSTORE JUMPDEST POP POP POP POP JUMP JUMPDEST PUSH1 0x0 PUSH1 0x2 DUP3 DIV SWAP1 POP PUSH1 0x1 DUP3 AND DUP1 PUSH2 0x4926 JUMPI PUSH1 0x7F DUP3 AND SWAP2 POP JUMPDEST PUSH1 0x20 DUP3 LT DUP2 EQ ISZERO PUSH2 0x493A JUMPI PUSH2 0x4939 PUSH2 0x49A0 JUMP JUMPDEST JUMPDEST POP SWAP2 SWAP1 POP JUMP JUMPDEST PUSH2 0x4949 DUP3 PUSH2 0x4A12 JUMP JUMPDEST DUP2 ADD DUP2 DUP2 LT PUSH8 0xFFFFFFFFFFFFFFFF DUP3 GT OR ISZERO PUSH2 0x4968 JUMPI PUSH2 0x4967 PUSH2 0x49CF JUMP JUMPDEST JUMPDEST DUP1 PUSH1 0x40 MSTORE POP POP POP JUMP JUMPDEST PUSH32 0x4E487B7100000000000000000000000000000000000000000000000000000000 PUSH1 0x0 MSTORE PUSH1 0x21 PUSH1 0x4 MSTORE PUSH1 0x24 PUSH1 0x0 REVERT JUMPDEST PUSH32 0x4E487B7100000000000000000000000000000000000000000000000000000000 PUSH1 0x0 MSTORE PUSH1 0x22 PUSH1 0x4 MSTORE PUSH1 0x24 PUSH1 0x0 REVERT JUMPDEST PUSH32 0x4E487B7100000000000000000000000000000000000000000000000000000000 PUSH1 0x0 MSTORE PUSH1 0x41 PUSH1 0x4 MSTORE PUSH1 0x24 PUSH1 0x0 REVERT JUMPDEST PUSH1 0x0 DUP1 REVERT JUMPDEST PUSH1 0x0 DUP1 REVERT JUMPDEST PUSH1 0x0 DUP1 REVERT JUMPDEST PUSH1 0x0 DUP1 REVERT JUMPDEST PUSH1 0x0 PUSH1 0x1F NOT PUSH1 0x1F DUP4 ADD AND SWAP1 POP SWAP2 SWAP1 POP JUMP JUMPDEST PUSH32 0x596F7520616C726561647920636865636B207468697320636173650000000000 PUSH1 0x0 DUP3 ADD MSTORE POP JUMP JUMPDEST PUSH32 0x596F7572206C6F67696E20616C726561647920657869737420696E2073797374 PUSH1 0x0 DUP3 ADD MSTORE PUSH32 0x656D000000000000000000000000000000000000000000000000000000000000 PUSH1 0x20 DUP3 ADD MSTORE POP JUMP JUMPDEST PUSH32 0x4C6F772062616C616E6365000000000000000000000000000000000000000000 PUSH1 0x0 DUP3 ADD MSTORE POP JUMP JUMPDEST PUSH32 0x466F7262696464656E0000000000000000000000000000000000000000000000 PUSH1 0x0 DUP3 ADD MSTORE POP JUMP JUMPDEST PUSH32 0x596F75206E6F7420757365720000000000000000000000000000000000000000 PUSH1 0x0 DUP3 ADD MSTORE POP JUMP JUMPDEST PUSH32 0x596F75206E6F742061646D696E00000000000000000000000000000000000000 PUSH1 0x0 DUP3 ADD MSTORE POP JUMP JUMPDEST PUSH32 0x596F7520616C7265616479207265676973746572656400000000000000000000 PUSH1 0x0 DUP3 ADD MSTORE POP JUMP JUMPDEST PUSH32 0x57726F6E67204C6F67696E000000000000000000000000000000000000000000 PUSH1 0x0 DUP3 ADD MSTORE POP JUMP JUMPDEST PUSH2 0x4B9A DUP2 PUSH2 0x4868 JUMP JUMPDEST DUP2 EQ PUSH2 0x4BA5 JUMPI PUSH1 0x0 DUP1 REVERT JUMPDEST POP JUMP JUMPDEST PUSH2 0x4BB1 DUP2 PUSH2 0x487A JUMP JUMPDEST DUP2 EQ PUSH2 0x4BBC JUMPI PUSH1 0x0 DUP1 REVERT JUMPDEST POP JUMP JUMPDEST PUSH2 0x4BC8 DUP2 PUSH2 0x488C JUMP JUMPDEST DUP2 EQ PUSH2 0x4BD3 JUMPI PUSH1 0x0 DUP1 REVERT JUMPDEST POP JUMP JUMPDEST PUSH2 0x4BDF DUP2 PUSH2 0x4898 JUMP JUMPDEST DUP2 EQ PUSH2 0x4BEA JUMPI PUSH1 0x0 DUP1 REVERT JUMPDEST POP JUMP INVALID LOG2 PUSH5 0x6970667358 0x22 SLT KECCAK256 CODESIZE 0x4B REVERT PUSH5 0xEC4E9245CE 0xE4 RETURN 0x2F PUSH15 0x13B2EF57D52668173097701F31BD3E PUSH3 0x47B7F2 PUSH5 0x736F6C6343 STOP ADDMOD SMOD STOP CALLER "
				},
				"gasEstimates": {
					"creation": {
						"codeDepositCost": "3898200",
						"executionCost": "infinite",
						"totalCost": "infinite"
					},
					"external": {
						"checkRequest(string,bool)": "infinite",
						"createReview(address,string,string,int256)": "infinite",
						"disLikeReview(string)": "infinite",
						"doShopDebt(address)": "infinite",
						"downRequestToByer(string)": "infinite",
						"getAdminInfo()": "infinite",
						"getBuyerInfo()": "infinite",
						"getRequestById(string)": "infinite",
						"getReviewById(string)": "infinite",
						"getSellerInfo()": "infinite",
						"getSellerInfoByAddr(address)": "infinite",
						"likeReview(string)": "infinite",
						"login(string)": "infinite",
						"regAdmin(address,string,string)": "infinite",
						"registerAdmin(string,string)": "infinite",
						"registerBank(string,address)": "infinite",
						"registerBuyer(string,string,address)": "infinite",
						"registerProvider(string,address)": "infinite",
						"registerSeller(string,string,address,address)": "infinite",
						"registerShop(address,string,string,string)": "infinite",
						"requestToSeller(string)": "infinite"
					}
				},
				"methodIdentifiers": {
					"checkRequest(string,bool)": "2059b7ad",
					"createReview(address,string,string,int256)": "2d6abf59",
					"disLikeReview(string)": "bce62a74",
					"doShopDebt(address)": "83db0f6d",
					"downRequestToByer(string)": "b038316c",
					"getAdminInfo()": "c3d5fd39",
					"getBuyerInfo()": "99b958ee",
					"getRequestById(string)": "dffc8b06",
					"getReviewById(string)": "2f0185c4",
					"getSellerInfo()": "54504c12",
					"getSellerInfoByAddr(address)": "08e74858",
					"likeReview(string)": "7b3c7488",
					"login(string)": "3a7d280c",
					"regAdmin(address,string,string)": "a59d105f",
					"registerAdmin(string,string)": "f8f98b79",
					"registerBank(string,address)": "2156a781",
					"registerBuyer(string,string,address)": "9d344d10",
					"registerProvider(string,address)": "7ccb2bd8",
					"registerSeller(string,string,address,address)": "8403f848",
					"registerShop(address,string,string,string)": "7558b2f8",
					"requestToSeller(string)": "ac6fa7c3"
				}
			},
			"storageLayout": {
				"storage": [
					{
						"astId": 37,
						"contract": "contracts/Shops.sol:ShopsSystem",
						"label": "userStatus",
						"offset": 0,
						"slot": "0",
						"type": "t_mapping(t_uint256,t_string_storage)"
					},
					{
						"astId": 41,
						"contract": "contracts/Shops.sol:ShopsSystem",
						"label": "userLogins",
						"offset": 0,
						"slot": "1",
						"type": "t_mapping(t_string_memory_ptr,t_address)"
					},
					{
						"astId": 46,
						"contract": "contracts/Shops.sol:ShopsSystem",
						"label": "users",
						"offset": 0,
						"slot": "2",
						"type": "t_mapping(t_address,t_struct(User)33_storage)"
					},
					{
						"astId": 336,
						"contract": "contracts/Shops.sol:ShopsSystem",
						"label": "likeCountCheck",
						"offset": 0,
						"slot": "3",
						"type": "t_mapping(t_address,t_bool)"
					},
					{
						"astId": 338,
						"contract": "contracts/Shops.sol:ShopsSystem",
						"label": "provider",
						"offset": 0,
						"slot": "4",
						"type": "t_address"
					},
					{
						"astId": 340,
						"contract": "contracts/Shops.sol:ShopsSystem",
						"label": "admin",
						"offset": 0,
						"slot": "5",
						"type": "t_address"
					},
					{
						"astId": 343,
						"contract": "contracts/Shops.sol:ShopsSystem",
						"label": "admins",
						"offset": 0,
						"slot": "6",
						"type": "t_array(t_string_storage)dyn_storage"
					},
					{
						"astId": 345,
						"contract": "contracts/Shops.sol:ShopsSystem",
						"label": "bank",
						"offset": 0,
						"slot": "7",
						"type": "t_address_payable"
					},
					{
						"astId": 348,
						"contract": "contracts/Shops.sol:ShopsSystem",
						"label": "sellers",
						"offset": 0,
						"slot": "8",
						"type": "t_array(t_address)dyn_storage"
					},
					{
						"astId": 351,
						"contract": "contracts/Shops.sol:ShopsSystem",
						"label": "shopsAddresses",
						"offset": 0,
						"slot": "9",
						"type": "t_array(t_address)dyn_storage"
					},
					{
						"astId": 354,
						"contract": "contracts/Shops.sol:ShopsSystem",
						"label": "requests",
						"offset": 0,
						"slot": "10",
						"type": "t_array(t_string_storage)dyn_storage"
					},
					{
						"astId": 359,
						"contract": "contracts/Shops.sol:ShopsSystem",
						"label": "ShopsList",
						"offset": 0,
						"slot": "11",
						"type": "t_mapping(t_address,t_struct(Shop)321_storage)"
					},
					{
						"astId": 363,
						"contract": "contracts/Shops.sol:ShopsSystem",
						"label": "salesmanShop",
						"offset": 0,
						"slot": "12",
						"type": "t_mapping(t_address,t_address)"
					},
					{
						"astId": 368,
						"contract": "contracts/Shops.sol:ShopsSystem",
						"label": "salesmen",
						"offset": 0,
						"slot": "13",
						"type": "t_mapping(t_address,t_array(t_address)dyn_storage)"
					},
					{
						"astId": 373,
						"contract": "contracts/Shops.sol:ShopsSystem",
						"label": "shopReviews",
						"offset": 0,
						"slot": "14",
						"type": "t_mapping(t_address,t_array(t_string_storage)dyn_storage)"
					},
					{
						"astId": 378,
						"contract": "contracts/Shops.sol:ShopsSystem",
						"label": "reviewId",
						"offset": 0,
						"slot": "15",
						"type": "t_mapping(t_string_memory_ptr,t_struct(Review)23_storage)"
					},
					{
						"astId": 383,
						"contract": "contracts/Shops.sol:ShopsSystem",
						"label": "requestId",
						"offset": 0,
						"slot": "16",
						"type": "t_mapping(t_string_memory_ptr,t_struct(Request)330_storage)"
					},
					{
						"astId": 389,
						"contract": "contracts/Shops.sol:ShopsSystem",
						"label": "reviewCom",
						"offset": 0,
						"slot": "17",
						"type": "t_mapping(t_string_memory_ptr,t_mapping(t_address,t_bool))"
					}
				],
				"types": {
					"t_address": {
						"encoding": "inplace",
						"label": "address",
						"numberOfBytes": "20"
					},
					"t_address_payable": {
						"encoding": "inplace",
						"label": "address payable",
						"numberOfBytes": "20"
					},
					"t_array(t_address)dyn_storage": {
						"base": "t_address",
						"encoding": "dynamic_array",
						"label": "address[]",
						"numberOfBytes": "32"
					},
					"t_array(t_string_storage)dyn_storage": {
						"base": "t_string_storage",
						"encoding": "dynamic_array",
						"label": "string[]",
						"numberOfBytes": "32"
					},
					"t_bool": {
						"encoding": "inplace",
						"label": "bool",
						"numberOfBytes": "1"
					},
					"t_int256": {
						"encoding": "inplace",
						"label": "int256",
						"numberOfBytes": "32"
					},
					"t_mapping(t_address,t_address)": {
						"encoding": "mapping",
						"key": "t_address",
						"label": "mapping(address => address)",
						"numberOfBytes": "32",
						"value": "t_address"
					},
					"t_mapping(t_address,t_array(t_address)dyn_storage)": {
						"encoding": "mapping",
						"key": "t_address",
						"label": "mapping(address => address[])",
						"numberOfBytes": "32",
						"value": "t_array(t_address)dyn_storage"
					},
					"t_mapping(t_address,t_array(t_string_storage)dyn_storage)": {
						"encoding": "mapping",
						"key": "t_address",
						"label": "mapping(address => string[])",
						"numberOfBytes": "32",
						"value": "t_array(t_string_storage)dyn_storage"
					},
					"t_mapping(t_address,t_bool)": {
						"encoding": "mapping",
						"key": "t_address",
						"label": "mapping(address => bool)",
						"numberOfBytes": "32",
						"value": "t_bool"
					},
					"t_mapping(t_address,t_struct(Shop)321_storage)": {
						"encoding": "mapping",
						"key": "t_address",
						"label": "mapping(address => struct Shop)",
						"numberOfBytes": "32",
						"value": "t_struct(Shop)321_storage"
					},
					"t_mapping(t_address,t_struct(User)33_storage)": {
						"encoding": "mapping",
						"key": "t_address",
						"label": "mapping(address => struct User)",
						"numberOfBytes": "32",
						"value": "t_struct(User)33_storage"
					},
					"t_mapping(t_string_memory_ptr,t_address)": {
						"encoding": "mapping",
						"key": "t_string_memory_ptr",
						"label": "mapping(string => address)",
						"numberOfBytes": "32",
						"value": "t_address"
					},
					"t_mapping(t_string_memory_ptr,t_mapping(t_address,t_bool))": {
						"encoding": "mapping",
						"key": "t_string_memory_ptr",
						"label": "mapping(string => mapping(address => bool))",
						"numberOfBytes": "32",
						"value": "t_mapping(t_address,t_bool)"
					},
					"t_mapping(t_string_memory_ptr,t_struct(Request)330_storage)": {
						"encoding": "mapping",
						"key": "t_string_memory_ptr",
						"label": "mapping(string => struct Request)",
						"numberOfBytes": "32",
						"value": "t_struct(Request)330_storage"
					},
					"t_mapping(t_string_memory_ptr,t_struct(Review)23_storage)": {
						"encoding": "mapping",
						"key": "t_string_memory_ptr",
						"label": "mapping(string => struct Review)",
						"numberOfBytes": "32",
						"value": "t_struct(Review)23_storage"
					},
					"t_mapping(t_uint256,t_string_storage)": {
						"encoding": "mapping",
						"key": "t_uint256",
						"label": "mapping(uint256 => string)",
						"numberOfBytes": "32",
						"value": "t_string_storage"
					},
					"t_string_memory_ptr": {
						"encoding": "bytes",
						"label": "string",
						"numberOfBytes": "32"
					},
					"t_string_storage": {
						"encoding": "bytes",
						"label": "string",
						"numberOfBytes": "32"
					},
					"t_struct(Request)330_storage": {
						"encoding": "inplace",
						"label": "struct Request",
						"members": [
							{
								"astId": 323,
								"contract": "contracts/Shops.sol:ShopsSystem",
								"label": "userAddr",
								"offset": 0,
								"slot": "0",
								"type": "t_address"
							},
							{
								"astId": 325,
								"contract": "contracts/Shops.sol:ShopsSystem",
								"label": "currentRole",
								"offset": 0,
								"slot": "1",
								"type": "t_uint256"
							},
							{
								"astId": 327,
								"contract": "contracts/Shops.sol:ShopsSystem",
								"label": "desiredRole",
								"offset": 0,
								"slot": "2",
								"type": "t_uint256"
							},
							{
								"astId": 329,
								"contract": "contracts/Shops.sol:ShopsSystem",
								"label": "checked",
								"offset": 0,
								"slot": "3",
								"type": "t_bool"
							}
						],
						"numberOfBytes": "128"
					},
					"t_struct(Review)23_storage": {
						"encoding": "inplace",
						"label": "struct Review",
						"members": [
							{
								"astId": 10,
								"contract": "contracts/Shops.sol:ShopsSystem",
								"label": "autorAddress",
								"offset": 0,
								"slot": "0",
								"type": "t_address"
							},
							{
								"astId": 12,
								"contract": "contracts/Shops.sol:ShopsSystem",
								"label": "shopAddr",
								"offset": 0,
								"slot": "1",
								"type": "t_address"
							},
							{
								"astId": 14,
								"contract": "contracts/Shops.sol:ShopsSystem",
								"label": "message",
								"offset": 0,
								"slot": "2",
								"type": "t_string_storage"
							},
							{
								"astId": 17,
								"contract": "contracts/Shops.sol:ShopsSystem",
								"label": "likeCount",
								"offset": 0,
								"slot": "3",
								"type": "t_array(t_address)dyn_storage"
							},
							{
								"astId": 20,
								"contract": "contracts/Shops.sol:ShopsSystem",
								"label": "disLikeCount",
								"offset": 0,
								"slot": "4",
								"type": "t_array(t_address)dyn_storage"
							},
							{
								"astId": 22,
								"contract": "contracts/Shops.sol:ShopsSystem",
								"label": "grade",
								"offset": 0,
								"slot": "5",
								"type": "t_int256"
							}
						],
						"numberOfBytes": "192"
					},
					"t_struct(Shop)321_storage": {
						"encoding": "inplace",
						"label": "struct Shop",
						"members": [
							{
								"astId": 316,
								"contract": "contracts/Shops.sol:ShopsSystem",
								"label": "number",
								"offset": 0,
								"slot": "0",
								"type": "t_string_storage"
							},
							{
								"astId": 318,
								"contract": "contracts/Shops.sol:ShopsSystem",
								"label": "city",
								"offset": 0,
								"slot": "1",
								"type": "t_string_storage"
							},
							{
								"astId": 320,
								"contract": "contracts/Shops.sol:ShopsSystem",
								"label": "debt",
								"offset": 0,
								"slot": "2",
								"type": "t_int256"
							}
						],
						"numberOfBytes": "96"
					},
					"t_struct(User)33_storage": {
						"encoding": "inplace",
						"label": "struct User",
						"members": [
							{
								"astId": 25,
								"contract": "contracts/Shops.sol:ShopsSystem",
								"label": "status",
								"offset": 0,
								"slot": "0",
								"type": "t_uint256"
							},
							{
								"astId": 27,
								"contract": "contracts/Shops.sol:ShopsSystem",
								"label": "userLogin",
								"offset": 0,
								"slot": "1",
								"type": "t_string_storage"
							},
							{
								"astId": 29,
								"contract": "contracts/Shops.sol:ShopsSystem",
								"label": "fio",
								"offset": 0,
								"slot": "2",
								"type": "t_string_storage"
							},
							{
								"astId": 32,
								"contract": "contracts/Shops.sol:ShopsSystem",
								"label": "reviews",
								"offset": 0,
								"slot": "3",
								"type": "t_array(t_string_storage)dyn_storage"
							}
						],
						"numberOfBytes": "128"
					},
					"t_uint256": {
						"encoding": "inplace",
						"label": "uint256",
						"numberOfBytes": "32"
					}
				}
			},
			"userdoc": {
				"kind": "user",
				"methods": {},
				"version": 1
			}
		}
	}
}