{
	"contracts/Colhoz.sol": {
		"Colhoz": {
			"abi": [
				{
					"inputs": [
						{
							"components": [
								{
									"internalType": "address",
									"name": "userAddr",
									"type": "address"
								},
								{
									"internalType": "string",
									"name": "login",
									"type": "string"
								},
								{
									"internalType": "string",
									"name": "password",
									"type": "string"
								},
								{
									"internalType": "string",
									"name": "fio",
									"type": "string"
								},
								{
									"internalType": "string",
									"name": "status",
									"type": "string"
								}
							],
							"internalType": "struct User",
							"name": "admin",
							"type": "tuple"
						}
					],
					"name": "add_admin",
					"outputs": [],
					"stateMutability": "nonpayable",
					"type": "function"
				},
				{
					"inputs": [
						{
							"internalType": "address",
							"name": "userAddr",
							"type": "address"
						},
						{
							"internalType": "string",
							"name": "login",
							"type": "string"
						},
						{
							"internalType": "string",
							"name": "password",
							"type": "string"
						},
						{
							"internalType": "string",
							"name": "fio",
							"type": "string"
						},
						{
							"internalType": "string",
							"name": "status",
							"type": "string"
						}
					],
					"name": "add_buyer",
					"outputs": [],
					"stateMutability": "nonpayable",
					"type": "function"
				},
				{
					"inputs": [],
					"name": "bank",
					"outputs": [
						{
							"internalType": "address",
							"name": "",
							"type": "address"
						}
					],
					"stateMutability": "view",
					"type": "function"
				},
				{
					"inputs": [
						{
							"internalType": "uint256",
							"name": "index",
							"type": "uint256"
						}
					],
					"name": "delete_admin",
					"outputs": [],
					"stateMutability": "nonpayable",
					"type": "function"
				},
				{
					"inputs": [],
					"name": "get_buyers",
					"outputs": [
						{
							"components": [
								{
									"internalType": "address",
									"name": "userAddr",
									"type": "address"
								},
								{
									"internalType": "string",
									"name": "login",
									"type": "string"
								},
								{
									"internalType": "string",
									"name": "password",
									"type": "string"
								},
								{
									"internalType": "string",
									"name": "fio",
									"type": "string"
								},
								{
									"internalType": "string",
									"name": "status",
									"type": "string"
								}
							],
							"internalType": "struct User[]",
							"name": "",
							"type": "tuple[]"
						}
					],
					"stateMutability": "view",
					"type": "function"
				},
				{
					"inputs": [],
					"name": "provider",
					"outputs": [
						{
							"internalType": "address",
							"name": "",
							"type": "address"
						}
					],
					"stateMutability": "view",
					"type": "function"
				},
				{
					"inputs": [
						{
							"internalType": "uint256",
							"name": "index",
							"type": "uint256"
						}
					],
					"name": "remove_buyer",
					"outputs": [],
					"stateMutability": "nonpayable",
					"type": "function"
				},
				{
					"inputs": [
						{
							"internalType": "address",
							"name": "_bank",
							"type": "address"
						}
					],
					"name": "set_bank",
					"outputs": [],
					"stateMutability": "nonpayable",
					"type": "function"
				},
				{
					"inputs": [
						{
							"internalType": "address",
							"name": "_provider",
							"type": "address"
						}
					],
					"name": "set_provider",
					"outputs": [],
					"stateMutability": "nonpayable",
					"type": "function"
				},
				{
					"inputs": [
						{
							"internalType": "uint256",
							"name": "index",
							"type": "uint256"
						},
						{
							"components": [
								{
									"internalType": "address",
									"name": "userAddr",
									"type": "address"
								},
								{
									"internalType": "string",
									"name": "login",
									"type": "string"
								},
								{
									"internalType": "string",
									"name": "password",
									"type": "string"
								},
								{
									"internalType": "string",
									"name": "fio",
									"type": "string"
								},
								{
									"internalType": "string",
									"name": "status",
									"type": "string"
								}
							],
							"internalType": "struct User",
							"name": "user",
							"type": "tuple"
						}
					],
					"name": "update_buyer",
					"outputs": [],
					"stateMutability": "nonpayable",
					"type": "function"
				}
			],
			"devdoc": {
				"kind": "dev",
				"methods": {},
				"version": 1
			},
			"evm": {
				"assembly": "    /* \"contracts/Colhoz.sol\":612:2135  contract Colhoz{... */\n  mstore(0x40, 0x80)\n  callvalue\n  dup1\n  iszero\n  tag_1\n  jumpi\n  0x00\n  dup1\n  revert\ntag_1:\n  pop\n  dataSize(sub_0)\n  dup1\n  dataOffset(sub_0)\n  0x00\n  codecopy\n  0x00\n  return\nstop\n\nsub_0: assembly {\n        /* \"contracts/Colhoz.sol\":612:2135  contract Colhoz{... */\n      mstore(0x40, 0x80)\n      callvalue\n      dup1\n      iszero\n      tag_1\n      jumpi\n      0x00\n      dup1\n      revert\n    tag_1:\n      pop\n      jumpi(tag_2, lt(calldatasize, 0x04))\n      shr(0xe0, calldataload(0x00))\n      dup1\n      0xb29f04fe\n      gt\n      tag_13\n      jumpi\n      dup1\n      0xb29f04fe\n      eq\n      tag_8\n      jumpi\n      dup1\n      0xb5c64e2a\n      eq\n      tag_9\n      jumpi\n      dup1\n      0xb78842ee\n      eq\n      tag_10\n      jumpi\n      dup1\n      0xdacf64e2\n      eq\n      tag_11\n      jumpi\n      dup1\n      0xf73c5683\n      eq\n      tag_12\n      jumpi\n      jump(tag_2)\n    tag_13:\n      dup1\n      0x085d4883\n      eq\n      tag_3\n      jumpi\n      dup1\n      0x1fbecde7\n      eq\n      tag_4\n      jumpi\n      dup1\n      0x76cdb03b\n      eq\n      tag_5\n      jumpi\n      dup1\n      0x827b0348\n      eq\n      tag_6\n      jumpi\n      dup1\n      0x98168b94\n      eq\n      tag_7\n      jumpi\n    tag_2:\n      0x00\n      dup1\n      revert\n        /* \"contracts/Colhoz.sol\":634:657  address public provider */\n    tag_3:\n      tag_14\n      tag_15\n      jump\t// in\n    tag_14:\n      mload(0x40)\n      tag_16\n      swap2\n      swap1\n      tag_17\n      jump\t// in\n    tag_16:\n      mload(0x40)\n      dup1\n      swap2\n      sub\n      swap1\n      return\n        /* \"contracts/Colhoz.sol\":1088:1367  function add_buyer(... */\n    tag_4:\n      tag_18\n      0x04\n      dup1\n      calldatasize\n      sub\n      dup2\n      add\n      swap1\n      tag_19\n      swap2\n      swap1\n      tag_20\n      jump\t// in\n    tag_19:\n      tag_21\n      jump\t// in\n    tag_18:\n      stop\n        /* \"contracts/Colhoz.sol\":663:682  address public bank */\n    tag_5:\n      tag_22\n      tag_23\n      jump\t// in\n    tag_22:\n      mload(0x40)\n      tag_24\n      swap2\n      swap1\n      tag_17\n      jump\t// in\n    tag_24:\n      mload(0x40)\n      dup1\n      swap2\n      sub\n      swap1\n      return\n        /* \"contracts/Colhoz.sol\":996:1082  function get_buyers() public view returns(User[] memory){... */\n    tag_6:\n      tag_25\n      tag_26\n      jump\t// in\n    tag_25:\n      mload(0x40)\n      tag_27\n      swap2\n      swap1\n      tag_28\n      jump\t// in\n    tag_27:\n      mload(0x40)\n      dup1\n      swap2\n      sub\n      swap1\n      return\n        /* \"contracts/Colhoz.sol\":1457:1552  function update_buyer(uint index,User memory user) public {... */\n    tag_7:\n      tag_29\n      0x04\n      dup1\n      calldatasize\n      sub\n      dup2\n      add\n      swap1\n      tag_30\n      swap2\n      swap1\n      tag_31\n      jump\t// in\n    tag_30:\n      tag_32\n      jump\t// in\n    tag_29:\n      stop\n        /* \"contracts/Colhoz.sol\":825:910  function set_provider(address _provider) public {... */\n    tag_8:\n      tag_33\n      0x04\n      dup1\n      calldatasize\n      sub\n      dup2\n      add\n      swap1\n      tag_34\n      swap2\n      swap1\n      tag_35\n      jump\t// in\n    tag_34:\n      tag_36\n      jump\t// in\n    tag_33:\n      stop\n        /* \"contracts/Colhoz.sol\":1644:1722  function delete_admin(uint index) public {... */\n    tag_9:\n      tag_37\n      0x04\n      dup1\n      calldatasize\n      sub\n      dup2\n      add\n      swap1\n      tag_38\n      swap2\n      swap1\n      tag_39\n      jump\t// in\n    tag_38:\n      tag_40\n      jump\t// in\n    tag_37:\n      stop\n        /* \"contracts/Colhoz.sol\":1373:1451  function remove_buyer(uint index) public {... */\n    tag_10:\n      tag_41\n      0x04\n      dup1\n      calldatasize\n      sub\n      dup2\n      add\n      swap1\n      tag_42\n      swap2\n      swap1\n      tag_39\n      jump\t// in\n    tag_42:\n      tag_43\n      jump\t// in\n    tag_41:\n      stop\n        /* \"contracts/Colhoz.sol\":920:989  function set_bank(address _bank) public {... */\n    tag_11:\n      tag_44\n      0x04\n      dup1\n      calldatasize\n      sub\n      dup2\n      add\n      swap1\n      tag_45\n      swap2\n      swap1\n      tag_35\n      jump\t// in\n    tag_45:\n      tag_46\n      jump\t// in\n    tag_44:\n      stop\n        /* \"contracts/Colhoz.sol\":1558:1638  function add_admin(User memory admin) public {... */\n    tag_12:\n      tag_47\n      0x04\n      dup1\n      calldatasize\n      sub\n      dup2\n      add\n      swap1\n      tag_48\n      swap2\n      swap1\n      tag_49\n      jump\t// in\n    tag_48:\n      tag_50\n      jump\t// in\n    tag_47:\n      stop\n        /* \"contracts/Colhoz.sol\":634:657  address public provider */\n    tag_15:\n      0x00\n      dup1\n      sload\n      swap1\n      0x0100\n      exp\n      swap1\n      div\n      0xffffffffffffffffffffffffffffffffffffffff\n      and\n      dup2\n      jump\t// out\n        /* \"contracts/Colhoz.sol\":1088:1367  function add_buyer(... */\n    tag_21:\n        /* \"contracts/Colhoz.sol\":1274:1290  User memory user */\n      0x00\n        /* \"contracts/Colhoz.sol\":1293:1333  User(userAddr,login,password,fio,status) */\n      mload(0x40)\n      dup1\n      0xa0\n      add\n      0x40\n      mstore\n      dup1\n        /* \"contracts/Colhoz.sol\":1298:1306  userAddr */\n      dup8\n        /* \"contracts/Colhoz.sol\":1293:1333  User(userAddr,login,password,fio,status) */\n      0xffffffffffffffffffffffffffffffffffffffff\n      and\n      dup2\n      mstore\n      0x20\n      add\n        /* \"contracts/Colhoz.sol\":1307:1312  login */\n      dup7\n        /* \"contracts/Colhoz.sol\":1293:1333  User(userAddr,login,password,fio,status) */\n      dup2\n      mstore\n      0x20\n      add\n        /* \"contracts/Colhoz.sol\":1313:1321  password */\n      dup6\n        /* \"contracts/Colhoz.sol\":1293:1333  User(userAddr,login,password,fio,status) */\n      dup2\n      mstore\n      0x20\n      add\n        /* \"contracts/Colhoz.sol\":1322:1325  fio */\n      dup5\n        /* \"contracts/Colhoz.sol\":1293:1333  User(userAddr,login,password,fio,status) */\n      dup2\n      mstore\n      0x20\n      add\n        /* \"contracts/Colhoz.sol\":1326:1332  status */\n      dup4\n        /* \"contracts/Colhoz.sol\":1293:1333  User(userAddr,login,password,fio,status) */\n      dup2\n      mstore\n      pop\n        /* \"contracts/Colhoz.sol\":1274:1333  User memory user = User(userAddr,login,password,fio,status) */\n      swap1\n      pop\n        /* \"contracts/Colhoz.sol\":1343:1349  buyers */\n      0x02\n        /* \"contracts/Colhoz.sol\":1355:1359  user */\n      dup2\n        /* \"contracts/Colhoz.sol\":1343:1360  buyers.push(user) */\n      swap1\n      dup1\n      0x01\n      dup2\n      sload\n      add\n      dup1\n      dup3\n      sstore\n      dup1\n      swap2\n      pop\n      pop\n      0x01\n      swap1\n      sub\n      swap1\n      0x00\n      mstore\n      keccak256(0x00, 0x20)\n      swap1\n      0x05\n      mul\n      add\n      0x00\n      swap1\n      swap2\n      swap1\n      swap2\n      swap1\n      swap2\n      pop\n      0x00\n      dup3\n      add\n      mload\n      dup2\n      0x00\n      add\n      exp(0x0100, 0x00)\n      dup2\n      sload\n      dup2\n      0xffffffffffffffffffffffffffffffffffffffff\n      mul\n      not\n      and\n      swap1\n      dup4\n      0xffffffffffffffffffffffffffffffffffffffff\n      and\n      mul\n      or\n      swap1\n      sstore\n      pop\n      0x20\n      dup3\n      add\n      mload\n      dup2\n      0x01\n      add\n      swap1\n      dup2\n      tag_53\n      swap2\n      swap1\n      tag_54\n      jump\t// in\n    tag_53:\n      pop\n      0x40\n      dup3\n      add\n      mload\n      dup2\n      0x02\n      add\n      swap1\n      dup2\n      tag_55\n      swap2\n      swap1\n      tag_54\n      jump\t// in\n    tag_55:\n      pop\n      0x60\n      dup3\n      add\n      mload\n      dup2\n      0x03\n      add\n      swap1\n      dup2\n      tag_56\n      swap2\n      swap1\n      tag_54\n      jump\t// in\n    tag_56:\n      pop\n      0x80\n      dup3\n      add\n      mload\n      dup2\n      0x04\n      add\n      swap1\n      dup2\n      tag_57\n      swap2\n      swap1\n      tag_54\n      jump\t// in\n    tag_57:\n      pop\n      pop\n      pop\n        /* \"contracts/Colhoz.sol\":1264:1367  {... */\n      pop\n        /* \"contracts/Colhoz.sol\":1088:1367  function add_buyer(... */\n      pop\n      pop\n      pop\n      pop\n      pop\n      jump\t// out\n        /* \"contracts/Colhoz.sol\":663:682  address public bank */\n    tag_23:\n      0x01\n      0x00\n      swap1\n      sload\n      swap1\n      0x0100\n      exp\n      swap1\n      div\n      0xffffffffffffffffffffffffffffffffffffffff\n      and\n      dup2\n      jump\t// out\n        /* \"contracts/Colhoz.sol\":996:1082  function get_buyers() public view returns(User[] memory){... */\n    tag_26:\n        /* \"contracts/Colhoz.sol\":1038:1051  User[] memory */\n      0x60\n        /* \"contracts/Colhoz.sol\":1069:1075  buyers */\n      0x02\n        /* \"contracts/Colhoz.sol\":1062:1075  return buyers */\n      dup1\n      sload\n      dup1\n      0x20\n      mul\n      0x20\n      add\n      mload(0x40)\n      swap1\n      dup2\n      add\n      0x40\n      mstore\n      dup1\n      swap3\n      swap2\n      swap1\n      dup2\n      dup2\n      mstore\n      0x20\n      add\n      0x00\n      swap1\n    tag_59:\n      dup3\n      dup3\n      lt\n      iszero\n      tag_60\n      jumpi\n      dup4\n      dup3\n      swap1\n      0x00\n      mstore\n      keccak256(0x00, 0x20)\n      swap1\n      0x05\n      mul\n      add\n      mload(0x40)\n      dup1\n      0xa0\n      add\n      0x40\n      mstore\n      swap1\n      dup2\n      0x00\n      dup3\n      add\n      0x00\n      swap1\n      sload\n      swap1\n      0x0100\n      exp\n      swap1\n      div\n      0xffffffffffffffffffffffffffffffffffffffff\n      and\n      0xffffffffffffffffffffffffffffffffffffffff\n      and\n      0xffffffffffffffffffffffffffffffffffffffff\n      and\n      dup2\n      mstore\n      0x20\n      add\n      0x01\n      dup3\n      add\n      dup1\n      sload\n      tag_62\n      swap1\n      tag_63\n      jump\t// in\n    tag_62:\n      dup1\n      0x1f\n      add\n      0x20\n      dup1\n      swap2\n      div\n      mul\n      0x20\n      add\n      mload(0x40)\n      swap1\n      dup2\n      add\n      0x40\n      mstore\n      dup1\n      swap3\n      swap2\n      swap1\n      dup2\n      dup2\n      mstore\n      0x20\n      add\n      dup3\n      dup1\n      sload\n      tag_64\n      swap1\n      tag_63\n      jump\t// in\n    tag_64:\n      dup1\n      iszero\n      tag_65\n      jumpi\n      dup1\n      0x1f\n      lt\n      tag_66\n      jumpi\n      0x0100\n      dup1\n      dup4\n      sload\n      div\n      mul\n      dup4\n      mstore\n      swap2\n      0x20\n      add\n      swap2\n      jump(tag_65)\n    tag_66:\n      dup3\n      add\n      swap2\n      swap1\n      0x00\n      mstore\n      keccak256(0x00, 0x20)\n      swap1\n    tag_67:\n      dup2\n      sload\n      dup2\n      mstore\n      swap1\n      0x01\n      add\n      swap1\n      0x20\n      add\n      dup1\n      dup4\n      gt\n      tag_67\n      jumpi\n      dup3\n      swap1\n      sub\n      0x1f\n      and\n      dup3\n      add\n      swap2\n    tag_65:\n      pop\n      pop\n      pop\n      pop\n      pop\n      dup2\n      mstore\n      0x20\n      add\n      0x02\n      dup3\n      add\n      dup1\n      sload\n      tag_68\n      swap1\n      tag_63\n      jump\t// in\n    tag_68:\n      dup1\n      0x1f\n      add\n      0x20\n      dup1\n      swap2\n      div\n      mul\n      0x20\n      add\n      mload(0x40)\n      swap1\n      dup2\n      add\n      0x40\n      mstore\n      dup1\n      swap3\n      swap2\n      swap1\n      dup2\n      dup2\n      mstore\n      0x20\n      add\n      dup3\n      dup1\n      sload\n      tag_69\n      swap1\n      tag_63\n      jump\t// in\n    tag_69:\n      dup1\n      iszero\n      tag_70\n      jumpi\n      dup1\n      0x1f\n      lt\n      tag_71\n      jumpi\n      0x0100\n      dup1\n      dup4\n      sload\n      div\n      mul\n      dup4\n      mstore\n      swap2\n      0x20\n      add\n      swap2\n      jump(tag_70)\n    tag_71:\n      dup3\n      add\n      swap2\n      swap1\n      0x00\n      mstore\n      keccak256(0x00, 0x20)\n      swap1\n    tag_72:\n      dup2\n      sload\n      dup2\n      mstore\n      swap1\n      0x01\n      add\n      swap1\n      0x20\n      add\n      dup1\n      dup4\n      gt\n      tag_72\n      jumpi\n      dup3\n      swap1\n      sub\n      0x1f\n      and\n      dup3\n      add\n      swap2\n    tag_70:\n      pop\n      pop\n      pop\n      pop\n      pop\n      dup2\n      mstore\n      0x20\n      add\n      0x03\n      dup3\n      add\n      dup1\n      sload\n      tag_73\n      swap1\n      tag_63\n      jump\t// in\n    tag_73:\n      dup1\n      0x1f\n      add\n      0x20\n      dup1\n      swap2\n      div\n      mul\n      0x20\n      add\n      mload(0x40)\n      swap1\n      dup2\n      add\n      0x40\n      mstore\n      dup1\n      swap3\n      swap2\n      swap1\n      dup2\n      dup2\n      mstore\n      0x20\n      add\n      dup3\n      dup1\n      sload\n      tag_74\n      swap1\n      tag_63\n      jump\t// in\n    tag_74:\n      dup1\n      iszero\n      tag_75\n      jumpi\n      dup1\n      0x1f\n      lt\n      tag_76\n      jumpi\n      0x0100\n      dup1\n      dup4\n      sload\n      div\n      mul\n      dup4\n      mstore\n      swap2\n      0x20\n      add\n      swap2\n      jump(tag_75)\n    tag_76:\n      dup3\n      add\n      swap2\n      swap1\n      0x00\n      mstore\n      keccak256(0x00, 0x20)\n      swap1\n    tag_77:\n      dup2\n      sload\n      dup2\n      mstore\n      swap1\n      0x01\n      add\n      swap1\n      0x20\n      add\n      dup1\n      dup4\n      gt\n      tag_77\n      jumpi\n      dup3\n      swap1\n      sub\n      0x1f\n      and\n      dup3\n      add\n      swap2\n    tag_75:\n      pop\n      pop\n      pop\n      pop\n      pop\n      dup2\n      mstore\n      0x20\n      add\n      0x04\n      dup3\n      add\n      dup1\n      sload\n      tag_78\n      swap1\n      tag_63\n      jump\t// in\n    tag_78:\n      dup1\n      0x1f\n      add\n      0x20\n      dup1\n      swap2\n      div\n      mul\n      0x20\n      add\n      mload(0x40)\n      swap1\n      dup2\n      add\n      0x40\n      mstore\n      dup1\n      swap3\n      swap2\n      swap1\n      dup2\n      dup2\n      mstore\n      0x20\n      add\n      dup3\n      dup1\n      sload\n      tag_79\n      swap1\n      tag_63\n      jump\t// in\n    tag_79:\n      dup1\n      iszero\n      tag_80\n      jumpi\n      dup1\n      0x1f\n      lt\n      tag_81\n      jumpi\n      0x0100\n      dup1\n      dup4\n      sload\n      div\n      mul\n      dup4\n      mstore\n      swap2\n      0x20\n      add\n      swap2\n      jump(tag_80)\n    tag_81:\n      dup3\n      add\n      swap2\n      swap1\n      0x00\n      mstore\n      keccak256(0x00, 0x20)\n      swap1\n    tag_82:\n      dup2\n      sload\n      dup2\n      mstore\n      swap1\n      0x01\n      add\n      swap1\n      0x20\n      add\n      dup1\n      dup4\n      gt\n      tag_82\n      jumpi\n      dup3\n      swap1\n      sub\n      0x1f\n      and\n      dup3\n      add\n      swap2\n    tag_80:\n      pop\n      pop\n      pop\n      pop\n      pop\n      dup2\n      mstore\n      pop\n      pop\n      dup2\n      mstore\n      0x20\n      add\n      swap1\n      0x01\n      add\n      swap1\n      jump(tag_59)\n    tag_60:\n      pop\n      pop\n      pop\n      pop\n      swap1\n      pop\n        /* \"contracts/Colhoz.sol\":996:1082  function get_buyers() public view returns(User[] memory){... */\n      swap1\n      jump\t// out\n        /* \"contracts/Colhoz.sol\":1457:1552  function update_buyer(uint index,User memory user) public {... */\n    tag_32:\n        /* \"contracts/Colhoz.sol\":1541:1545  user */\n      dup1\n        /* \"contracts/Colhoz.sol\":1525:1531  buyers */\n      0x02\n        /* \"contracts/Colhoz.sol\":1532:1537  index */\n      dup4\n        /* \"contracts/Colhoz.sol\":1525:1538  buyers[index] */\n      dup2\n      sload\n      dup2\n      lt\n      tag_84\n      jumpi\n      tag_85\n      tag_86\n      jump\t// in\n    tag_85:\n    tag_84:\n      swap1\n      0x00\n      mstore\n      keccak256(0x00, 0x20)\n      swap1\n      0x05\n      mul\n      add\n        /* \"contracts/Colhoz.sol\":1525:1545  buyers[index] = user */\n      0x00\n      dup3\n      add\n      mload\n      dup2\n      0x00\n      add\n      exp(0x0100, 0x00)\n      dup2\n      sload\n      dup2\n      0xffffffffffffffffffffffffffffffffffffffff\n      mul\n      not\n      and\n      swap1\n      dup4\n      0xffffffffffffffffffffffffffffffffffffffff\n      and\n      mul\n      or\n      swap1\n      sstore\n      pop\n      0x20\n      dup3\n      add\n      mload\n      dup2\n      0x01\n      add\n      swap1\n      dup2\n      tag_88\n      swap2\n      swap1\n      tag_54\n      jump\t// in\n    tag_88:\n      pop\n      0x40\n      dup3\n      add\n      mload\n      dup2\n      0x02\n      add\n      swap1\n      dup2\n      tag_89\n      swap2\n      swap1\n      tag_54\n      jump\t// in\n    tag_89:\n      pop\n      0x60\n      dup3\n      add\n      mload\n      dup2\n      0x03\n      add\n      swap1\n      dup2\n      tag_90\n      swap2\n      swap1\n      tag_54\n      jump\t// in\n    tag_90:\n      pop\n      0x80\n      dup3\n      add\n      mload\n      dup2\n      0x04\n      add\n      swap1\n      dup2\n      tag_91\n      swap2\n      swap1\n      tag_54\n      jump\t// in\n    tag_91:\n      pop\n      swap1\n      pop\n      pop\n        /* \"contracts/Colhoz.sol\":1457:1552  function update_buyer(uint index,User memory user) public {... */\n      pop\n      pop\n      jump\t// out\n        /* \"contracts/Colhoz.sol\":825:910  function set_provider(address _provider) public {... */\n    tag_36:\n        /* \"contracts/Colhoz.sol\":894:903  _provider */\n      dup1\n        /* \"contracts/Colhoz.sol\":883:891  provider */\n      0x00\n      dup1\n        /* \"contracts/Colhoz.sol\":883:903  provider = _provider */\n      0x0100\n      exp\n      dup2\n      sload\n      dup2\n      0xffffffffffffffffffffffffffffffffffffffff\n      mul\n      not\n      and\n      swap1\n      dup4\n      0xffffffffffffffffffffffffffffffffffffffff\n      and\n      mul\n      or\n      swap1\n      sstore\n      pop\n        /* \"contracts/Colhoz.sol\":825:910  function set_provider(address _provider) public {... */\n      pop\n      jump\t// out\n        /* \"contracts/Colhoz.sol\":1644:1722  function delete_admin(uint index) public {... */\n    tag_40:\n        /* \"contracts/Colhoz.sol\":1702:1708  admins */\n      0x03\n        /* \"contracts/Colhoz.sol\":1709:1714  index */\n      dup2\n        /* \"contracts/Colhoz.sol\":1702:1715  admins[index] */\n      dup2\n      sload\n      dup2\n      lt\n      tag_94\n      jumpi\n      tag_95\n      tag_86\n      jump\t// in\n    tag_95:\n    tag_94:\n      swap1\n      0x00\n      mstore\n      keccak256(0x00, 0x20)\n      swap1\n      0x05\n      mul\n      add\n      0x00\n        /* \"contracts/Colhoz.sol\":1695:1715  delete admins[index] */\n      dup1\n      dup3\n      add\n      exp(0x0100, 0x00)\n      dup2\n      sload\n      swap1\n      0xffffffffffffffffffffffffffffffffffffffff\n      mul\n      not\n      and\n      swap1\n      sstore\n      0x01\n      dup3\n      add\n      0x00\n      tag_97\n      swap2\n      swap1\n      tag_98\n      jump\t// in\n    tag_97:\n      0x02\n      dup3\n      add\n      0x00\n      tag_99\n      swap2\n      swap1\n      tag_98\n      jump\t// in\n    tag_99:\n      0x03\n      dup3\n      add\n      0x00\n      tag_100\n      swap2\n      swap1\n      tag_98\n      jump\t// in\n    tag_100:\n      0x04\n      dup3\n      add\n      0x00\n      tag_101\n      swap2\n      swap1\n      tag_98\n      jump\t// in\n    tag_101:\n      pop\n      pop\n        /* \"contracts/Colhoz.sol\":1644:1722  function delete_admin(uint index) public {... */\n      pop\n      jump\t// out\n        /* \"contracts/Colhoz.sol\":1373:1451  function remove_buyer(uint index) public {... */\n    tag_43:\n        /* \"contracts/Colhoz.sol\":1431:1437  buyers */\n      0x02\n        /* \"contracts/Colhoz.sol\":1438:1443  index */\n      dup2\n        /* \"contracts/Colhoz.sol\":1431:1444  buyers[index] */\n      dup2\n      sload\n      dup2\n      lt\n      tag_103\n      jumpi\n      tag_104\n      tag_86\n      jump\t// in\n    tag_104:\n    tag_103:\n      swap1\n      0x00\n      mstore\n      keccak256(0x00, 0x20)\n      swap1\n      0x05\n      mul\n      add\n      0x00\n        /* \"contracts/Colhoz.sol\":1424:1444  delete buyers[index] */\n      dup1\n      dup3\n      add\n      exp(0x0100, 0x00)\n      dup2\n      sload\n      swap1\n      0xffffffffffffffffffffffffffffffffffffffff\n      mul\n      not\n      and\n      swap1\n      sstore\n      0x01\n      dup3\n      add\n      0x00\n      tag_106\n      swap2\n      swap1\n      tag_98\n      jump\t// in\n    tag_106:\n      0x02\n      dup3\n      add\n      0x00\n      tag_107\n      swap2\n      swap1\n      tag_98\n      jump\t// in\n    tag_107:\n      0x03\n      dup3\n      add\n      0x00\n      tag_108\n      swap2\n      swap1\n      tag_98\n      jump\t// in\n    tag_108:\n      0x04\n      dup3\n      add\n      0x00\n      tag_109\n      swap2\n      swap1\n      tag_98\n      jump\t// in\n    tag_109:\n      pop\n      pop\n        /* \"contracts/Colhoz.sol\":1373:1451  function remove_buyer(uint index) public {... */\n      pop\n      jump\t// out\n        /* \"contracts/Colhoz.sol\":920:989  function set_bank(address _bank) public {... */\n    tag_46:\n        /* \"contracts/Colhoz.sol\":977:982  _bank */\n      dup1\n        /* \"contracts/Colhoz.sol\":970:974  bank */\n      0x01\n      0x00\n        /* \"contracts/Colhoz.sol\":970:982  bank = _bank */\n      0x0100\n      exp\n      dup2\n      sload\n      dup2\n      0xffffffffffffffffffffffffffffffffffffffff\n      mul\n      not\n      and\n      swap1\n      dup4\n      0xffffffffffffffffffffffffffffffffffffffff\n      and\n      mul\n      or\n      swap1\n      sstore\n      pop\n        /* \"contracts/Colhoz.sol\":920:989  function set_bank(address _bank) public {... */\n      pop\n      jump\t// out\n        /* \"contracts/Colhoz.sol\":1558:1638  function add_admin(User memory admin) public {... */\n    tag_50:\n        /* \"contracts/Colhoz.sol\":1613:1619  admins */\n      0x03\n        /* \"contracts/Colhoz.sol\":1625:1630  admin */\n      dup2\n        /* \"contracts/Colhoz.sol\":1613:1631  admins.push(admin) */\n      swap1\n      dup1\n      0x01\n      dup2\n      sload\n      add\n      dup1\n      dup3\n      sstore\n      dup1\n      swap2\n      pop\n      pop\n      0x01\n      swap1\n      sub\n      swap1\n      0x00\n      mstore\n      keccak256(0x00, 0x20)\n      swap1\n      0x05\n      mul\n      add\n      0x00\n      swap1\n      swap2\n      swap1\n      swap2\n      swap1\n      swap2\n      pop\n      0x00\n      dup3\n      add\n      mload\n      dup2\n      0x00\n      add\n      exp(0x0100, 0x00)\n      dup2\n      sload\n      dup2\n      0xffffffffffffffffffffffffffffffffffffffff\n      mul\n      not\n      and\n      swap1\n      dup4\n      0xffffffffffffffffffffffffffffffffffffffff\n      and\n      mul\n      or\n      swap1\n      sstore\n      pop\n      0x20\n      dup3\n      add\n      mload\n      dup2\n      0x01\n      add\n      swap1\n      dup2\n      tag_113\n      swap2\n      swap1\n      tag_54\n      jump\t// in\n    tag_113:\n      pop\n      0x40\n      dup3\n      add\n      mload\n      dup2\n      0x02\n      add\n      swap1\n      dup2\n      tag_114\n      swap2\n      swap1\n      tag_54\n      jump\t// in\n    tag_114:\n      pop\n      0x60\n      dup3\n      add\n      mload\n      dup2\n      0x03\n      add\n      swap1\n      dup2\n      tag_115\n      swap2\n      swap1\n      tag_54\n      jump\t// in\n    tag_115:\n      pop\n      0x80\n      dup3\n      add\n      mload\n      dup2\n      0x04\n      add\n      swap1\n      dup2\n      tag_116\n      swap2\n      swap1\n      tag_54\n      jump\t// in\n    tag_116:\n      pop\n      pop\n      pop\n        /* \"contracts/Colhoz.sol\":1558:1638  function add_admin(User memory admin) public {... */\n      pop\n      jump\t// out\n    tag_98:\n      pop\n      dup1\n      sload\n      tag_117\n      swap1\n      tag_63\n      jump\t// in\n    tag_117:\n      0x00\n      dup3\n      sstore\n      dup1\n      0x1f\n      lt\n      tag_119\n      jumpi\n      pop\n      jump(tag_118)\n    tag_119:\n      0x1f\n      add\n      0x20\n      swap1\n      div\n      swap1\n      0x00\n      mstore\n      keccak256(0x00, 0x20)\n      swap1\n      dup2\n      add\n      swap1\n      tag_120\n      swap2\n      swap1\n      tag_121\n      jump\t// in\n    tag_120:\n    tag_118:\n      pop\n      jump\t// out\n    tag_121:\n    tag_122:\n      dup1\n      dup3\n      gt\n      iszero\n      tag_123\n      jumpi\n      0x00\n      dup2\n      0x00\n      swap1\n      sstore\n      pop\n      0x01\n      add\n      jump(tag_122)\n    tag_123:\n      pop\n      swap1\n      jump\t// out\n        /* \"#utility.yul\":7:133   */\n    tag_124:\n        /* \"#utility.yul\":44:51   */\n      0x00\n        /* \"#utility.yul\":84:126   */\n      0xffffffffffffffffffffffffffffffffffffffff\n        /* \"#utility.yul\":77:82   */\n      dup3\n        /* \"#utility.yul\":73:127   */\n      and\n        /* \"#utility.yul\":62:127   */\n      swap1\n      pop\n        /* \"#utility.yul\":7:133   */\n      swap2\n      swap1\n      pop\n      jump\t// out\n        /* \"#utility.yul\":139:235   */\n    tag_125:\n        /* \"#utility.yul\":176:183   */\n      0x00\n        /* \"#utility.yul\":205:229   */\n      tag_179\n        /* \"#utility.yul\":223:228   */\n      dup3\n        /* \"#utility.yul\":205:229   */\n      tag_124\n      jump\t// in\n    tag_179:\n        /* \"#utility.yul\":194:229   */\n      swap1\n      pop\n        /* \"#utility.yul\":139:235   */\n      swap2\n      swap1\n      pop\n      jump\t// out\n        /* \"#utility.yul\":241:359   */\n    tag_126:\n        /* \"#utility.yul\":328:352   */\n      tag_181\n        /* \"#utility.yul\":346:351   */\n      dup2\n        /* \"#utility.yul\":328:352   */\n      tag_125\n      jump\t// in\n    tag_181:\n        /* \"#utility.yul\":323:326   */\n      dup3\n        /* \"#utility.yul\":316:353   */\n      mstore\n        /* \"#utility.yul\":241:359   */\n      pop\n      pop\n      jump\t// out\n        /* \"#utility.yul\":365:587   */\n    tag_17:\n        /* \"#utility.yul\":458:462   */\n      0x00\n        /* \"#utility.yul\":496:498   */\n      0x20\n        /* \"#utility.yul\":485:494   */\n      dup3\n        /* \"#utility.yul\":481:499   */\n      add\n        /* \"#utility.yul\":473:499   */\n      swap1\n      pop\n        /* \"#utility.yul\":509:580   */\n      tag_183\n        /* \"#utility.yul\":577:578   */\n      0x00\n        /* \"#utility.yul\":566:575   */\n      dup4\n        /* \"#utility.yul\":562:579   */\n      add\n        /* \"#utility.yul\":553:559   */\n      dup5\n        /* \"#utility.yul\":509:580   */\n      tag_126\n      jump\t// in\n    tag_183:\n        /* \"#utility.yul\":365:587   */\n      swap3\n      swap2\n      pop\n      pop\n      jump\t// out\n        /* \"#utility.yul\":593:668   */\n    tag_127:\n        /* \"#utility.yul\":626:632   */\n      0x00\n        /* \"#utility.yul\":659:661   */\n      0x40\n        /* \"#utility.yul\":653:662   */\n      mload\n        /* \"#utility.yul\":643:662   */\n      swap1\n      pop\n        /* \"#utility.yul\":593:668   */\n      swap1\n      jump\t// out\n        /* \"#utility.yul\":674:791   */\n    tag_128:\n        /* \"#utility.yul\":783:784   */\n      0x00\n        /* \"#utility.yul\":780:781   */\n      dup1\n        /* \"#utility.yul\":773:785   */\n      revert\n        /* \"#utility.yul\":797:914   */\n    tag_129:\n        /* \"#utility.yul\":906:907   */\n      0x00\n        /* \"#utility.yul\":903:904   */\n      dup1\n        /* \"#utility.yul\":896:908   */\n      revert\n        /* \"#utility.yul\":920:1042   */\n    tag_130:\n        /* \"#utility.yul\":993:1017   */\n      tag_188\n        /* \"#utility.yul\":1011:1016   */\n      dup2\n        /* \"#utility.yul\":993:1017   */\n      tag_125\n      jump\t// in\n    tag_188:\n        /* \"#utility.yul\":986:991   */\n      dup2\n        /* \"#utility.yul\":983:1018   */\n      eq\n        /* \"#utility.yul\":973:1036   */\n      tag_189\n      jumpi\n        /* \"#utility.yul\":1032:1033   */\n      0x00\n        /* \"#utility.yul\":1029:1030   */\n      dup1\n        /* \"#utility.yul\":1022:1034   */\n      revert\n        /* \"#utility.yul\":973:1036   */\n    tag_189:\n        /* \"#utility.yul\":920:1042   */\n      pop\n      jump\t// out\n        /* \"#utility.yul\":1048:1187   */\n    tag_131:\n        /* \"#utility.yul\":1094:1099   */\n      0x00\n        /* \"#utility.yul\":1132:1138   */\n      dup2\n        /* \"#utility.yul\":1119:1139   */\n      calldataload\n        /* \"#utility.yul\":1110:1139   */\n      swap1\n      pop\n        /* \"#utility.yul\":1148:1181   */\n      tag_191\n        /* \"#utility.yul\":1175:1180   */\n      dup2\n        /* \"#utility.yul\":1148:1181   */\n      tag_130\n      jump\t// in\n    tag_191:\n        /* \"#utility.yul\":1048:1187   */\n      swap3\n      swap2\n      pop\n      pop\n      jump\t// out\n        /* \"#utility.yul\":1193:1310   */\n    tag_132:\n        /* \"#utility.yul\":1302:1303   */\n      0x00\n        /* \"#utility.yul\":1299:1300   */\n      dup1\n        /* \"#utility.yul\":1292:1304   */\n      revert\n        /* \"#utility.yul\":1316:1433   */\n    tag_133:\n        /* \"#utility.yul\":1425:1426   */\n      0x00\n        /* \"#utility.yul\":1422:1423   */\n      dup1\n        /* \"#utility.yul\":1415:1427   */\n      revert\n        /* \"#utility.yul\":1439:1541   */\n    tag_134:\n        /* \"#utility.yul\":1480:1486   */\n      0x00\n        /* \"#utility.yul\":1531:1533   */\n      0x1f\n        /* \"#utility.yul\":1527:1534   */\n      not\n        /* \"#utility.yul\":1522:1524   */\n      0x1f\n        /* \"#utility.yul\":1515:1520   */\n      dup4\n        /* \"#utility.yul\":1511:1525   */\n      add\n        /* \"#utility.yul\":1507:1535   */\n      and\n        /* \"#utility.yul\":1497:1535   */\n      swap1\n      pop\n        /* \"#utility.yul\":1439:1541   */\n      swap2\n      swap1\n      pop\n      jump\t// out\n        /* \"#utility.yul\":1547:1727   */\n    tag_135:\n        /* \"#utility.yul\":1595:1672   */\n      0x4e487b7100000000000000000000000000000000000000000000000000000000\n        /* \"#utility.yul\":1592:1593   */\n      0x00\n        /* \"#utility.yul\":1585:1673   */\n      mstore\n        /* \"#utility.yul\":1692:1696   */\n      0x41\n        /* \"#utility.yul\":1689:1690   */\n      0x04\n        /* \"#utility.yul\":1682:1697   */\n      mstore\n        /* \"#utility.yul\":1716:1720   */\n      0x24\n        /* \"#utility.yul\":1713:1714   */\n      0x00\n        /* \"#utility.yul\":1706:1721   */\n      revert\n        /* \"#utility.yul\":1733:2014   */\n    tag_136:\n        /* \"#utility.yul\":1816:1843   */\n      tag_197\n        /* \"#utility.yul\":1838:1842   */\n      dup3\n        /* \"#utility.yul\":1816:1843   */\n      tag_134\n      jump\t// in\n    tag_197:\n        /* \"#utility.yul\":1808:1814   */\n      dup2\n        /* \"#utility.yul\":1804:1844   */\n      add\n        /* \"#utility.yul\":1946:1952   */\n      dup2\n        /* \"#utility.yul\":1934:1944   */\n      dup2\n        /* \"#utility.yul\":1931:1953   */\n      lt\n        /* \"#utility.yul\":1910:1928   */\n      0xffffffffffffffff\n        /* \"#utility.yul\":1898:1908   */\n      dup3\n        /* \"#utility.yul\":1895:1929   */\n      gt\n        /* \"#utility.yul\":1892:1954   */\n      or\n        /* \"#utility.yul\":1889:1977   */\n      iszero\n      tag_198\n      jumpi\n        /* \"#utility.yul\":1957:1975   */\n      tag_199\n      tag_135\n      jump\t// in\n    tag_199:\n        /* \"#utility.yul\":1889:1977   */\n    tag_198:\n        /* \"#utility.yul\":1997:2007   */\n      dup1\n        /* \"#utility.yul\":1993:1995   */\n      0x40\n        /* \"#utility.yul\":1986:2008   */\n      mstore\n        /* \"#utility.yul\":1776:2014   */\n      pop\n        /* \"#utility.yul\":1733:2014   */\n      pop\n      pop\n      jump\t// out\n        /* \"#utility.yul\":2020:2149   */\n    tag_137:\n        /* \"#utility.yul\":2054:2060   */\n      0x00\n        /* \"#utility.yul\":2081:2101   */\n      tag_201\n      tag_127\n      jump\t// in\n    tag_201:\n        /* \"#utility.yul\":2071:2101   */\n      swap1\n      pop\n        /* \"#utility.yul\":2110:2143   */\n      tag_202\n        /* \"#utility.yul\":2138:2142   */\n      dup3\n        /* \"#utility.yul\":2130:2136   */\n      dup3\n        /* \"#utility.yul\":2110:2143   */\n      tag_136\n      jump\t// in\n    tag_202:\n        /* \"#utility.yul\":2020:2149   */\n      swap2\n      swap1\n      pop\n      jump\t// out\n        /* \"#utility.yul\":2155:2463   */\n    tag_138:\n        /* \"#utility.yul\":2217:2221   */\n      0x00\n        /* \"#utility.yul\":2307:2325   */\n      0xffffffffffffffff\n        /* \"#utility.yul\":2299:2305   */\n      dup3\n        /* \"#utility.yul\":2296:2326   */\n      gt\n        /* \"#utility.yul\":2293:2349   */\n      iszero\n      tag_204\n      jumpi\n        /* \"#utility.yul\":2329:2347   */\n      tag_205\n      tag_135\n      jump\t// in\n    tag_205:\n        /* \"#utility.yul\":2293:2349   */\n    tag_204:\n        /* \"#utility.yul\":2367:2396   */\n      tag_206\n        /* \"#utility.yul\":2389:2395   */\n      dup3\n        /* \"#utility.yul\":2367:2396   */\n      tag_134\n      jump\t// in\n    tag_206:\n        /* \"#utility.yul\":2359:2396   */\n      swap1\n      pop\n        /* \"#utility.yul\":2451:2455   */\n      0x20\n        /* \"#utility.yul\":2445:2449   */\n      dup2\n        /* \"#utility.yul\":2441:2456   */\n      add\n        /* \"#utility.yul\":2433:2456   */\n      swap1\n      pop\n        /* \"#utility.yul\":2155:2463   */\n      swap2\n      swap1\n      pop\n      jump\t// out\n        /* \"#utility.yul\":2469:2615   */\n    tag_139:\n        /* \"#utility.yul\":2566:2572   */\n      dup3\n        /* \"#utility.yul\":2561:2564   */\n      dup2\n        /* \"#utility.yul\":2556:2559   */\n      dup4\n        /* \"#utility.yul\":2543:2573   */\n      calldatacopy\n        /* \"#utility.yul\":2607:2608   */\n      0x00\n        /* \"#utility.yul\":2598:2604   */\n      dup4\n        /* \"#utility.yul\":2593:2596   */\n      dup4\n        /* \"#utility.yul\":2589:2605   */\n      add\n        /* \"#utility.yul\":2582:2609   */\n      mstore\n        /* \"#utility.yul\":2469:2615   */\n      pop\n      pop\n      pop\n      jump\t// out\n        /* \"#utility.yul\":2621:3046   */\n    tag_140:\n        /* \"#utility.yul\":2699:2704   */\n      0x00\n        /* \"#utility.yul\":2724:2790   */\n      tag_209\n        /* \"#utility.yul\":2740:2789   */\n      tag_210\n        /* \"#utility.yul\":2782:2788   */\n      dup5\n        /* \"#utility.yul\":2740:2789   */\n      tag_138\n      jump\t// in\n    tag_210:\n        /* \"#utility.yul\":2724:2790   */\n      tag_137\n      jump\t// in\n    tag_209:\n        /* \"#utility.yul\":2715:2790   */\n      swap1\n      pop\n        /* \"#utility.yul\":2813:2819   */\n      dup3\n        /* \"#utility.yul\":2806:2811   */\n      dup2\n        /* \"#utility.yul\":2799:2820   */\n      mstore\n        /* \"#utility.yul\":2851:2855   */\n      0x20\n        /* \"#utility.yul\":2844:2849   */\n      dup2\n        /* \"#utility.yul\":2840:2856   */\n      add\n        /* \"#utility.yul\":2889:2892   */\n      dup5\n        /* \"#utility.yul\":2880:2886   */\n      dup5\n        /* \"#utility.yul\":2875:2878   */\n      dup5\n        /* \"#utility.yul\":2871:2887   */\n      add\n        /* \"#utility.yul\":2868:2893   */\n      gt\n        /* \"#utility.yul\":2865:2977   */\n      iszero\n      tag_211\n      jumpi\n        /* \"#utility.yul\":2896:2975   */\n      tag_212\n      tag_133\n      jump\t// in\n    tag_212:\n        /* \"#utility.yul\":2865:2977   */\n    tag_211:\n        /* \"#utility.yul\":2986:3040   */\n      tag_213\n        /* \"#utility.yul\":3033:3039   */\n      dup5\n        /* \"#utility.yul\":3028:3031   */\n      dup3\n        /* \"#utility.yul\":3023:3026   */\n      dup6\n        /* \"#utility.yul\":2986:3040   */\n      tag_139\n      jump\t// in\n    tag_213:\n        /* \"#utility.yul\":2705:3046   */\n      pop\n        /* \"#utility.yul\":2621:3046   */\n      swap4\n      swap3\n      pop\n      pop\n      pop\n      jump\t// out\n        /* \"#utility.yul\":3066:3406   */\n    tag_141:\n        /* \"#utility.yul\":3122:3127   */\n      0x00\n        /* \"#utility.yul\":3171:3174   */\n      dup3\n        /* \"#utility.yul\":3164:3168   */\n      0x1f\n        /* \"#utility.yul\":3156:3162   */\n      dup4\n        /* \"#utility.yul\":3152:3169   */\n      add\n        /* \"#utility.yul\":3148:3175   */\n      slt\n        /* \"#utility.yul\":3138:3260   */\n      tag_215\n      jumpi\n        /* \"#utility.yul\":3179:3258   */\n      tag_216\n      tag_132\n      jump\t// in\n    tag_216:\n        /* \"#utility.yul\":3138:3260   */\n    tag_215:\n        /* \"#utility.yul\":3296:3302   */\n      dup2\n        /* \"#utility.yul\":3283:3303   */\n      calldataload\n        /* \"#utility.yul\":3321:3400   */\n      tag_217\n        /* \"#utility.yul\":3396:3399   */\n      dup5\n        /* \"#utility.yul\":3388:3394   */\n      dup3\n        /* \"#utility.yul\":3381:3385   */\n      0x20\n        /* \"#utility.yul\":3373:3379   */\n      dup7\n        /* \"#utility.yul\":3369:3386   */\n      add\n        /* \"#utility.yul\":3321:3400   */\n      tag_140\n      jump\t// in\n    tag_217:\n        /* \"#utility.yul\":3312:3400   */\n      swap2\n      pop\n        /* \"#utility.yul\":3128:3406   */\n      pop\n        /* \"#utility.yul\":3066:3406   */\n      swap3\n      swap2\n      pop\n      pop\n      jump\t// out\n        /* \"#utility.yul\":3412:5043   */\n    tag_20:\n        /* \"#utility.yul\":3547:3553   */\n      0x00\n        /* \"#utility.yul\":3555:3561   */\n      dup1\n        /* \"#utility.yul\":3563:3569   */\n      0x00\n        /* \"#utility.yul\":3571:3577   */\n      dup1\n        /* \"#utility.yul\":3579:3585   */\n      0x00\n        /* \"#utility.yul\":3628:3631   */\n      0xa0\n        /* \"#utility.yul\":3616:3625   */\n      dup7\n        /* \"#utility.yul\":3607:3614   */\n      dup9\n        /* \"#utility.yul\":3603:3626   */\n      sub\n        /* \"#utility.yul\":3599:3632   */\n      slt\n        /* \"#utility.yul\":3596:3716   */\n      iszero\n      tag_219\n      jumpi\n        /* \"#utility.yul\":3635:3714   */\n      tag_220\n      tag_128\n      jump\t// in\n    tag_220:\n        /* \"#utility.yul\":3596:3716   */\n    tag_219:\n        /* \"#utility.yul\":3755:3756   */\n      0x00\n        /* \"#utility.yul\":3780:3833   */\n      tag_221\n        /* \"#utility.yul\":3825:3832   */\n      dup9\n        /* \"#utility.yul\":3816:3822   */\n      dup3\n        /* \"#utility.yul\":3805:3814   */\n      dup10\n        /* \"#utility.yul\":3801:3823   */\n      add\n        /* \"#utility.yul\":3780:3833   */\n      tag_131\n      jump\t// in\n    tag_221:\n        /* \"#utility.yul\":3770:3833   */\n      swap6\n      pop\n        /* \"#utility.yul\":3726:3843   */\n      pop\n        /* \"#utility.yul\":3910:3912   */\n      0x20\n        /* \"#utility.yul\":3899:3908   */\n      dup7\n        /* \"#utility.yul\":3895:3913   */\n      add\n        /* \"#utility.yul\":3882:3914   */\n      calldataload\n        /* \"#utility.yul\":3941:3959   */\n      0xffffffffffffffff\n        /* \"#utility.yul\":3933:3939   */\n      dup2\n        /* \"#utility.yul\":3930:3960   */\n      gt\n        /* \"#utility.yul\":3927:4044   */\n      iszero\n      tag_222\n      jumpi\n        /* \"#utility.yul\":3963:4042   */\n      tag_223\n      tag_129\n      jump\t// in\n    tag_223:\n        /* \"#utility.yul\":3927:4044   */\n    tag_222:\n        /* \"#utility.yul\":4068:4131   */\n      tag_224\n        /* \"#utility.yul\":4123:4130   */\n      dup9\n        /* \"#utility.yul\":4114:4120   */\n      dup3\n        /* \"#utility.yul\":4103:4112   */\n      dup10\n        /* \"#utility.yul\":4099:4121   */\n      add\n        /* \"#utility.yul\":4068:4131   */\n      tag_141\n      jump\t// in\n    tag_224:\n        /* \"#utility.yul\":4058:4131   */\n      swap5\n      pop\n        /* \"#utility.yul\":3853:4141   */\n      pop\n        /* \"#utility.yul\":4208:4210   */\n      0x40\n        /* \"#utility.yul\":4197:4206   */\n      dup7\n        /* \"#utility.yul\":4193:4211   */\n      add\n        /* \"#utility.yul\":4180:4212   */\n      calldataload\n        /* \"#utility.yul\":4239:4257   */\n      0xffffffffffffffff\n        /* \"#utility.yul\":4231:4237   */\n      dup2\n        /* \"#utility.yul\":4228:4258   */\n      gt\n        /* \"#utility.yul\":4225:4342   */\n      iszero\n      tag_225\n      jumpi\n        /* \"#utility.yul\":4261:4340   */\n      tag_226\n      tag_129\n      jump\t// in\n    tag_226:\n        /* \"#utility.yul\":4225:4342   */\n    tag_225:\n        /* \"#utility.yul\":4366:4429   */\n      tag_227\n        /* \"#utility.yul\":4421:4428   */\n      dup9\n        /* \"#utility.yul\":4412:4418   */\n      dup3\n        /* \"#utility.yul\":4401:4410   */\n      dup10\n        /* \"#utility.yul\":4397:4419   */\n      add\n        /* \"#utility.yul\":4366:4429   */\n      tag_141\n      jump\t// in\n    tag_227:\n        /* \"#utility.yul\":4356:4429   */\n      swap4\n      pop\n        /* \"#utility.yul\":4151:4439   */\n      pop\n        /* \"#utility.yul\":4506:4508   */\n      0x60\n        /* \"#utility.yul\":4495:4504   */\n      dup7\n        /* \"#utility.yul\":4491:4509   */\n      add\n        /* \"#utility.yul\":4478:4510   */\n      calldataload\n        /* \"#utility.yul\":4537:4555   */\n      0xffffffffffffffff\n        /* \"#utility.yul\":4529:4535   */\n      dup2\n        /* \"#utility.yul\":4526:4556   */\n      gt\n        /* \"#utility.yul\":4523:4640   */\n      iszero\n      tag_228\n      jumpi\n        /* \"#utility.yul\":4559:4638   */\n      tag_229\n      tag_129\n      jump\t// in\n    tag_229:\n        /* \"#utility.yul\":4523:4640   */\n    tag_228:\n        /* \"#utility.yul\":4664:4727   */\n      tag_230\n        /* \"#utility.yul\":4719:4726   */\n      dup9\n        /* \"#utility.yul\":4710:4716   */\n      dup3\n        /* \"#utility.yul\":4699:4708   */\n      dup10\n        /* \"#utility.yul\":4695:4717   */\n      add\n        /* \"#utility.yul\":4664:4727   */\n      tag_141\n      jump\t// in\n    tag_230:\n        /* \"#utility.yul\":4654:4727   */\n      swap3\n      pop\n        /* \"#utility.yul\":4449:4737   */\n      pop\n        /* \"#utility.yul\":4804:4807   */\n      0x80\n        /* \"#utility.yul\":4793:4802   */\n      dup7\n        /* \"#utility.yul\":4789:4808   */\n      add\n        /* \"#utility.yul\":4776:4809   */\n      calldataload\n        /* \"#utility.yul\":4836:4854   */\n      0xffffffffffffffff\n        /* \"#utility.yul\":4828:4834   */\n      dup2\n        /* \"#utility.yul\":4825:4855   */\n      gt\n        /* \"#utility.yul\":4822:4939   */\n      iszero\n      tag_231\n      jumpi\n        /* \"#utility.yul\":4858:4937   */\n      tag_232\n      tag_129\n      jump\t// in\n    tag_232:\n        /* \"#utility.yul\":4822:4939   */\n    tag_231:\n        /* \"#utility.yul\":4963:5026   */\n      tag_233\n        /* \"#utility.yul\":5018:5025   */\n      dup9\n        /* \"#utility.yul\":5009:5015   */\n      dup3\n        /* \"#utility.yul\":4998:5007   */\n      dup10\n        /* \"#utility.yul\":4994:5016   */\n      add\n        /* \"#utility.yul\":4963:5026   */\n      tag_141\n      jump\t// in\n    tag_233:\n        /* \"#utility.yul\":4953:5026   */\n      swap2\n      pop\n        /* \"#utility.yul\":4747:5036   */\n      pop\n        /* \"#utility.yul\":3412:5043   */\n      swap3\n      swap6\n      pop\n      swap3\n      swap6\n      swap1\n      swap4\n      pop\n      jump\t// out\n        /* \"#utility.yul\":5049:5183   */\n    tag_142:\n        /* \"#utility.yul\":5136:5142   */\n      0x00\n        /* \"#utility.yul\":5170:5175   */\n      dup2\n        /* \"#utility.yul\":5164:5176   */\n      mload\n        /* \"#utility.yul\":5154:5176   */\n      swap1\n      pop\n        /* \"#utility.yul\":5049:5183   */\n      swap2\n      swap1\n      pop\n      jump\t// out\n        /* \"#utility.yul\":5189:5393   */\n    tag_143:\n        /* \"#utility.yul\":5308:5319   */\n      0x00\n        /* \"#utility.yul\":5342:5348   */\n      dup3\n        /* \"#utility.yul\":5337:5340   */\n      dup3\n        /* \"#utility.yul\":5330:5349   */\n      mstore\n        /* \"#utility.yul\":5382:5386   */\n      0x20\n        /* \"#utility.yul\":5377:5380   */\n      dup3\n        /* \"#utility.yul\":5373:5387   */\n      add\n        /* \"#utility.yul\":5358:5387   */\n      swap1\n      pop\n        /* \"#utility.yul\":5189:5393   */\n      swap3\n      swap2\n      pop\n      pop\n      jump\t// out\n        /* \"#utility.yul\":5399:5551   */\n    tag_144:\n        /* \"#utility.yul\":5486:5490   */\n      0x00\n        /* \"#utility.yul\":5509:5512   */\n      dup2\n        /* \"#utility.yul\":5501:5512   */\n      swap1\n      pop\n        /* \"#utility.yul\":5539:5543   */\n      0x20\n        /* \"#utility.yul\":5534:5537   */\n      dup3\n        /* \"#utility.yul\":5530:5544   */\n      add\n        /* \"#utility.yul\":5522:5544   */\n      swap1\n      pop\n        /* \"#utility.yul\":5399:5551   */\n      swap2\n      swap1\n      pop\n      jump\t// out\n        /* \"#utility.yul\":5557:5665   */\n    tag_145:\n        /* \"#utility.yul\":5634:5658   */\n      tag_238\n        /* \"#utility.yul\":5652:5657   */\n      dup2\n        /* \"#utility.yul\":5634:5658   */\n      tag_125\n      jump\t// in\n    tag_238:\n        /* \"#utility.yul\":5629:5632   */\n      dup3\n        /* \"#utility.yul\":5622:5659   */\n      mstore\n        /* \"#utility.yul\":5557:5665   */\n      pop\n      pop\n      jump\t// out\n        /* \"#utility.yul\":5671:5770   */\n    tag_146:\n        /* \"#utility.yul\":5723:5729   */\n      0x00\n        /* \"#utility.yul\":5757:5762   */\n      dup2\n        /* \"#utility.yul\":5751:5763   */\n      mload\n        /* \"#utility.yul\":5741:5763   */\n      swap1\n      pop\n        /* \"#utility.yul\":5671:5770   */\n      swap2\n      swap1\n      pop\n      jump\t// out\n        /* \"#utility.yul\":5776:5935   */\n    tag_147:\n        /* \"#utility.yul\":5850:5861   */\n      0x00\n        /* \"#utility.yul\":5884:5890   */\n      dup3\n        /* \"#utility.yul\":5879:5882   */\n      dup3\n        /* \"#utility.yul\":5872:5891   */\n      mstore\n        /* \"#utility.yul\":5924:5928   */\n      0x20\n        /* \"#utility.yul\":5919:5922   */\n      dup3\n        /* \"#utility.yul\":5915:5929   */\n      add\n        /* \"#utility.yul\":5900:5929   */\n      swap1\n      pop\n        /* \"#utility.yul\":5776:5935   */\n      swap3\n      swap2\n      pop\n      pop\n      jump\t// out\n        /* \"#utility.yul\":5941:6187   */\n    tag_148:\n        /* \"#utility.yul\":6022:6023   */\n      0x00\n        /* \"#utility.yul\":6032:6145   */\n    tag_242:\n        /* \"#utility.yul\":6046:6052   */\n      dup4\n        /* \"#utility.yul\":6043:6044   */\n      dup2\n        /* \"#utility.yul\":6040:6053   */\n      lt\n        /* \"#utility.yul\":6032:6145   */\n      iszero\n      tag_244\n      jumpi\n        /* \"#utility.yul\":6131:6132   */\n      dup1\n        /* \"#utility.yul\":6126:6129   */\n      dup3\n        /* \"#utility.yul\":6122:6133   */\n      add\n        /* \"#utility.yul\":6116:6134   */\n      mload\n        /* \"#utility.yul\":6112:6113   */\n      dup2\n        /* \"#utility.yul\":6107:6110   */\n      dup5\n        /* \"#utility.yul\":6103:6114   */\n      add\n        /* \"#utility.yul\":6096:6135   */\n      mstore\n        /* \"#utility.yul\":6068:6070   */\n      0x20\n        /* \"#utility.yul\":6065:6066   */\n      dup2\n        /* \"#utility.yul\":6061:6071   */\n      add\n        /* \"#utility.yul\":6056:6071   */\n      swap1\n      pop\n        /* \"#utility.yul\":6032:6145   */\n      jump(tag_242)\n    tag_244:\n        /* \"#utility.yul\":6179:6180   */\n      0x00\n        /* \"#utility.yul\":6170:6176   */\n      dup5\n        /* \"#utility.yul\":6165:6168   */\n      dup5\n        /* \"#utility.yul\":6161:6177   */\n      add\n        /* \"#utility.yul\":6154:6181   */\n      mstore\n        /* \"#utility.yul\":6003:6187   */\n      pop\n        /* \"#utility.yul\":5941:6187   */\n      pop\n      pop\n      pop\n      jump\t// out\n        /* \"#utility.yul\":6193:6550   */\n    tag_149:\n        /* \"#utility.yul\":6271:6274   */\n      0x00\n        /* \"#utility.yul\":6299:6338   */\n      tag_246\n        /* \"#utility.yul\":6332:6337   */\n      dup3\n        /* \"#utility.yul\":6299:6338   */\n      tag_146\n      jump\t// in\n    tag_246:\n        /* \"#utility.yul\":6354:6415   */\n      tag_247\n        /* \"#utility.yul\":6408:6414   */\n      dup2\n        /* \"#utility.yul\":6403:6406   */\n      dup6\n        /* \"#utility.yul\":6354:6415   */\n      tag_147\n      jump\t// in\n    tag_247:\n        /* \"#utility.yul\":6347:6415   */\n      swap4\n      pop\n        /* \"#utility.yul\":6424:6489   */\n      tag_248\n        /* \"#utility.yul\":6482:6488   */\n      dup2\n        /* \"#utility.yul\":6477:6480   */\n      dup6\n        /* \"#utility.yul\":6470:6474   */\n      0x20\n        /* \"#utility.yul\":6463:6468   */\n      dup7\n        /* \"#utility.yul\":6459:6475   */\n      add\n        /* \"#utility.yul\":6424:6489   */\n      tag_148\n      jump\t// in\n    tag_248:\n        /* \"#utility.yul\":6514:6543   */\n      tag_249\n        /* \"#utility.yul\":6536:6542   */\n      dup2\n        /* \"#utility.yul\":6514:6543   */\n      tag_134\n      jump\t// in\n    tag_249:\n        /* \"#utility.yul\":6509:6512   */\n      dup5\n        /* \"#utility.yul\":6505:6544   */\n      add\n        /* \"#utility.yul\":6498:6544   */\n      swap2\n      pop\n        /* \"#utility.yul\":6275:6550   */\n      pop\n        /* \"#utility.yul\":6193:6550   */\n      swap3\n      swap2\n      pop\n      pop\n      jump\t// out\n        /* \"#utility.yul\":6590:7921   */\n    tag_150:\n        /* \"#utility.yul\":6689:6692   */\n      0x00\n        /* \"#utility.yul\":6725:6729   */\n      0xa0\n        /* \"#utility.yul\":6720:6723   */\n      dup4\n        /* \"#utility.yul\":6716:6730   */\n      add\n        /* \"#utility.yul\":6816:6820   */\n      0x00\n        /* \"#utility.yul\":6809:6814   */\n      dup4\n        /* \"#utility.yul\":6805:6821   */\n      add\n        /* \"#utility.yul\":6799:6822   */\n      mload\n        /* \"#utility.yul\":6835:6898   */\n      tag_251\n        /* \"#utility.yul\":6892:6896   */\n      0x00\n        /* \"#utility.yul\":6887:6890   */\n      dup7\n        /* \"#utility.yul\":6883:6897   */\n      add\n        /* \"#utility.yul\":6869:6881   */\n      dup3\n        /* \"#utility.yul\":6835:6898   */\n      tag_145\n      jump\t// in\n    tag_251:\n        /* \"#utility.yul\":6740:6908   */\n      pop\n        /* \"#utility.yul\":6991:6995   */\n      0x20\n        /* \"#utility.yul\":6984:6989   */\n      dup4\n        /* \"#utility.yul\":6980:6996   */\n      add\n        /* \"#utility.yul\":6974:6997   */\n      mload\n        /* \"#utility.yul\":7044:7047   */\n      dup5\n        /* \"#utility.yul\":7038:7042   */\n      dup3\n        /* \"#utility.yul\":7034:7048   */\n      sub\n        /* \"#utility.yul\":7027:7031   */\n      0x20\n        /* \"#utility.yul\":7022:7025   */\n      dup7\n        /* \"#utility.yul\":7018:7032   */\n      add\n        /* \"#utility.yul\":7011:7049   */\n      mstore\n        /* \"#utility.yul\":7070:7143   */\n      tag_252\n        /* \"#utility.yul\":7138:7142   */\n      dup3\n        /* \"#utility.yul\":7124:7136   */\n      dup3\n        /* \"#utility.yul\":7070:7143   */\n      tag_149\n      jump\t// in\n    tag_252:\n        /* \"#utility.yul\":7062:7143   */\n      swap2\n      pop\n        /* \"#utility.yul\":6918:7154   */\n      pop\n        /* \"#utility.yul\":7240:7244   */\n      0x40\n        /* \"#utility.yul\":7233:7238   */\n      dup4\n        /* \"#utility.yul\":7229:7245   */\n      add\n        /* \"#utility.yul\":7223:7246   */\n      mload\n        /* \"#utility.yul\":7293:7296   */\n      dup5\n        /* \"#utility.yul\":7287:7291   */\n      dup3\n        /* \"#utility.yul\":7283:7297   */\n      sub\n        /* \"#utility.yul\":7276:7280   */\n      0x40\n        /* \"#utility.yul\":7271:7274   */\n      dup7\n        /* \"#utility.yul\":7267:7281   */\n      add\n        /* \"#utility.yul\":7260:7298   */\n      mstore\n        /* \"#utility.yul\":7319:7392   */\n      tag_253\n        /* \"#utility.yul\":7387:7391   */\n      dup3\n        /* \"#utility.yul\":7373:7385   */\n      dup3\n        /* \"#utility.yul\":7319:7392   */\n      tag_149\n      jump\t// in\n    tag_253:\n        /* \"#utility.yul\":7311:7392   */\n      swap2\n      pop\n        /* \"#utility.yul\":7164:7403   */\n      pop\n        /* \"#utility.yul\":7484:7488   */\n      0x60\n        /* \"#utility.yul\":7477:7482   */\n      dup4\n        /* \"#utility.yul\":7473:7489   */\n      add\n        /* \"#utility.yul\":7467:7490   */\n      mload\n        /* \"#utility.yul\":7537:7540   */\n      dup5\n        /* \"#utility.yul\":7531:7535   */\n      dup3\n        /* \"#utility.yul\":7527:7541   */\n      sub\n        /* \"#utility.yul\":7520:7524   */\n      0x60\n        /* \"#utility.yul\":7515:7518   */\n      dup7\n        /* \"#utility.yul\":7511:7525   */\n      add\n        /* \"#utility.yul\":7504:7542   */\n      mstore\n        /* \"#utility.yul\":7563:7636   */\n      tag_254\n        /* \"#utility.yul\":7631:7635   */\n      dup3\n        /* \"#utility.yul\":7617:7629   */\n      dup3\n        /* \"#utility.yul\":7563:7636   */\n      tag_149\n      jump\t// in\n    tag_254:\n        /* \"#utility.yul\":7555:7636   */\n      swap2\n      pop\n        /* \"#utility.yul\":7413:7647   */\n      pop\n        /* \"#utility.yul\":7731:7735   */\n      0x80\n        /* \"#utility.yul\":7724:7729   */\n      dup4\n        /* \"#utility.yul\":7720:7736   */\n      add\n        /* \"#utility.yul\":7714:7737   */\n      mload\n        /* \"#utility.yul\":7784:7787   */\n      dup5\n        /* \"#utility.yul\":7778:7782   */\n      dup3\n        /* \"#utility.yul\":7774:7788   */\n      sub\n        /* \"#utility.yul\":7767:7771   */\n      0x80\n        /* \"#utility.yul\":7762:7765   */\n      dup7\n        /* \"#utility.yul\":7758:7772   */\n      add\n        /* \"#utility.yul\":7751:7789   */\n      mstore\n        /* \"#utility.yul\":7810:7883   */\n      tag_255\n        /* \"#utility.yul\":7878:7882   */\n      dup3\n        /* \"#utility.yul\":7864:7876   */\n      dup3\n        /* \"#utility.yul\":7810:7883   */\n      tag_149\n      jump\t// in\n    tag_255:\n        /* \"#utility.yul\":7802:7883   */\n      swap2\n      pop\n        /* \"#utility.yul\":7657:7894   */\n      pop\n        /* \"#utility.yul\":7911:7915   */\n      dup1\n        /* \"#utility.yul\":7904:7915   */\n      swap2\n      pop\n        /* \"#utility.yul\":6694:7921   */\n      pop\n        /* \"#utility.yul\":6590:7921   */\n      swap3\n      swap2\n      pop\n      pop\n      jump\t// out\n        /* \"#utility.yul\":7927:8163   */\n    tag_151:\n        /* \"#utility.yul\":8036:8046   */\n      0x00\n        /* \"#utility.yul\":8071:8157   */\n      tag_257\n        /* \"#utility.yul\":8153:8156   */\n      dup4\n        /* \"#utility.yul\":8145:8151   */\n      dup4\n        /* \"#utility.yul\":8071:8157   */\n      tag_150\n      jump\t// in\n    tag_257:\n        /* \"#utility.yul\":8057:8157   */\n      swap1\n      pop\n        /* \"#utility.yul\":7927:8163   */\n      swap3\n      swap2\n      pop\n      pop\n      jump\t// out\n        /* \"#utility.yul\":8169:8302   */\n    tag_152:\n        /* \"#utility.yul\":8259:8263   */\n      0x00\n        /* \"#utility.yul\":8291:8295   */\n      0x20\n        /* \"#utility.yul\":8286:8289   */\n      dup3\n        /* \"#utility.yul\":8282:8296   */\n      add\n        /* \"#utility.yul\":8274:8296   */\n      swap1\n      pop\n        /* \"#utility.yul\":8169:8302   */\n      swap2\n      swap1\n      pop\n      jump\t// out\n        /* \"#utility.yul\":8346:9417   */\n    tag_153:\n        /* \"#utility.yul\":8505:8508   */\n      0x00\n        /* \"#utility.yul\":8534:8608   */\n      tag_260\n        /* \"#utility.yul\":8602:8607   */\n      dup3\n        /* \"#utility.yul\":8534:8608   */\n      tag_142\n      jump\t// in\n    tag_260:\n        /* \"#utility.yul\":8624:8730   */\n      tag_261\n        /* \"#utility.yul\":8723:8729   */\n      dup2\n        /* \"#utility.yul\":8718:8721   */\n      dup6\n        /* \"#utility.yul\":8624:8730   */\n      tag_143\n      jump\t// in\n    tag_261:\n        /* \"#utility.yul\":8617:8730   */\n      swap4\n      pop\n        /* \"#utility.yul\":8756:8759   */\n      dup4\n        /* \"#utility.yul\":8801:8805   */\n      0x20\n        /* \"#utility.yul\":8793:8799   */\n      dup3\n        /* \"#utility.yul\":8789:8806   */\n      mul\n        /* \"#utility.yul\":8784:8787   */\n      dup6\n        /* \"#utility.yul\":8780:8807   */\n      add\n        /* \"#utility.yul\":8831:8907   */\n      tag_262\n        /* \"#utility.yul\":8901:8906   */\n      dup6\n        /* \"#utility.yul\":8831:8907   */\n      tag_144\n      jump\t// in\n    tag_262:\n        /* \"#utility.yul\":8930:8937   */\n      dup1\n        /* \"#utility.yul\":8961:8962   */\n      0x00\n        /* \"#utility.yul\":8946:9372   */\n    tag_263:\n        /* \"#utility.yul\":8971:8977   */\n      dup6\n        /* \"#utility.yul\":8968:8969   */\n      dup2\n        /* \"#utility.yul\":8965:8978   */\n      lt\n        /* \"#utility.yul\":8946:9372   */\n      iszero\n      tag_265\n      jumpi\n        /* \"#utility.yul\":9042:9051   */\n      dup5\n        /* \"#utility.yul\":9036:9040   */\n      dup5\n        /* \"#utility.yul\":9032:9052   */\n      sub\n        /* \"#utility.yul\":9027:9030   */\n      dup10\n        /* \"#utility.yul\":9020:9053   */\n      mstore\n        /* \"#utility.yul\":9093:9099   */\n      dup2\n        /* \"#utility.yul\":9087:9100   */\n      mload\n        /* \"#utility.yul\":9121:9225   */\n      tag_266\n        /* \"#utility.yul\":9220:9224   */\n      dup6\n        /* \"#utility.yul\":9205:9218   */\n      dup3\n        /* \"#utility.yul\":9121:9225   */\n      tag_151\n      jump\t// in\n    tag_266:\n        /* \"#utility.yul\":9113:9225   */\n      swap5\n      pop\n        /* \"#utility.yul\":9248:9328   */\n      tag_267\n        /* \"#utility.yul\":9321:9327   */\n      dup4\n        /* \"#utility.yul\":9248:9328   */\n      tag_152\n      jump\t// in\n    tag_267:\n        /* \"#utility.yul\":9238:9328   */\n      swap3\n      pop\n        /* \"#utility.yul\":9357:9361   */\n      0x20\n        /* \"#utility.yul\":9352:9355   */\n      dup11\n        /* \"#utility.yul\":9348:9362   */\n      add\n        /* \"#utility.yul\":9341:9362   */\n      swap10\n      pop\n        /* \"#utility.yul\":9006:9372   */\n      pop\n        /* \"#utility.yul\":8993:8994   */\n      0x01\n        /* \"#utility.yul\":8990:8991   */\n      dup2\n        /* \"#utility.yul\":8986:8995   */\n      add\n        /* \"#utility.yul\":8981:8995   */\n      swap1\n      pop\n        /* \"#utility.yul\":8946:9372   */\n      jump(tag_263)\n    tag_265:\n        /* \"#utility.yul\":8950:8964   */\n      pop\n        /* \"#utility.yul\":9388:9392   */\n      dup3\n        /* \"#utility.yul\":9381:9392   */\n      swap8\n      pop\n        /* \"#utility.yul\":9408:9411   */\n      dup8\n        /* \"#utility.yul\":9401:9411   */\n      swap6\n      pop\n        /* \"#utility.yul\":8510:9417   */\n      pop\n      pop\n      pop\n      pop\n      pop\n        /* \"#utility.yul\":8346:9417   */\n      swap3\n      swap2\n      pop\n      pop\n      jump\t// out\n        /* \"#utility.yul\":9423:9876   */\n    tag_28:\n        /* \"#utility.yul\":9606:9610   */\n      0x00\n        /* \"#utility.yul\":9644:9646   */\n      0x20\n        /* \"#utility.yul\":9633:9642   */\n      dup3\n        /* \"#utility.yul\":9629:9647   */\n      add\n        /* \"#utility.yul\":9621:9647   */\n      swap1\n      pop\n        /* \"#utility.yul\":9693:9702   */\n      dup2\n        /* \"#utility.yul\":9687:9691   */\n      dup2\n        /* \"#utility.yul\":9683:9703   */\n      sub\n        /* \"#utility.yul\":9679:9680   */\n      0x00\n        /* \"#utility.yul\":9668:9677   */\n      dup4\n        /* \"#utility.yul\":9664:9681   */\n      add\n        /* \"#utility.yul\":9657:9704   */\n      mstore\n        /* \"#utility.yul\":9721:9869   */\n      tag_269\n        /* \"#utility.yul\":9864:9868   */\n      dup2\n        /* \"#utility.yul\":9855:9861   */\n      dup5\n        /* \"#utility.yul\":9721:9869   */\n      tag_153\n      jump\t// in\n    tag_269:\n        /* \"#utility.yul\":9713:9869   */\n      swap1\n      pop\n        /* \"#utility.yul\":9423:9876   */\n      swap3\n      swap2\n      pop\n      pop\n      jump\t// out\n        /* \"#utility.yul\":9882:9959   */\n    tag_154:\n        /* \"#utility.yul\":9919:9926   */\n      0x00\n        /* \"#utility.yul\":9948:9953   */\n      dup2\n        /* \"#utility.yul\":9937:9953   */\n      swap1\n      pop\n        /* \"#utility.yul\":9882:9959   */\n      swap2\n      swap1\n      pop\n      jump\t// out\n        /* \"#utility.yul\":9965:10087   */\n    tag_155:\n        /* \"#utility.yul\":10038:10062   */\n      tag_272\n        /* \"#utility.yul\":10056:10061   */\n      dup2\n        /* \"#utility.yul\":10038:10062   */\n      tag_154\n      jump\t// in\n    tag_272:\n        /* \"#utility.yul\":10031:10036   */\n      dup2\n        /* \"#utility.yul\":10028:10063   */\n      eq\n        /* \"#utility.yul\":10018:10081   */\n      tag_273\n      jumpi\n        /* \"#utility.yul\":10077:10078   */\n      0x00\n        /* \"#utility.yul\":10074:10075   */\n      dup1\n        /* \"#utility.yul\":10067:10079   */\n      revert\n        /* \"#utility.yul\":10018:10081   */\n    tag_273:\n        /* \"#utility.yul\":9965:10087   */\n      pop\n      jump\t// out\n        /* \"#utility.yul\":10093:10232   */\n    tag_156:\n        /* \"#utility.yul\":10139:10144   */\n      0x00\n        /* \"#utility.yul\":10177:10183   */\n      dup2\n        /* \"#utility.yul\":10164:10184   */\n      calldataload\n        /* \"#utility.yul\":10155:10184   */\n      swap1\n      pop\n        /* \"#utility.yul\":10193:10226   */\n      tag_275\n        /* \"#utility.yul\":10220:10225   */\n      dup2\n        /* \"#utility.yul\":10193:10226   */\n      tag_155\n      jump\t// in\n    tag_275:\n        /* \"#utility.yul\":10093:10232   */\n      swap3\n      swap2\n      pop\n      pop\n      jump\t// out\n        /* \"#utility.yul\":10238:10355   */\n    tag_157:\n        /* \"#utility.yul\":10347:10348   */\n      0x00\n        /* \"#utility.yul\":10344:10345   */\n      dup1\n        /* \"#utility.yul\":10337:10349   */\n      revert\n        /* \"#utility.yul\":10361:10478   */\n    tag_158:\n        /* \"#utility.yul\":10470:10471   */\n      0x00\n        /* \"#utility.yul\":10467:10468   */\n      dup1\n        /* \"#utility.yul\":10460:10472   */\n      revert\n        /* \"#utility.yul\":10503:12246   */\n    tag_159:\n        /* \"#utility.yul\":10572:10577   */\n      0x00\n        /* \"#utility.yul\":10616:10620   */\n      0xa0\n        /* \"#utility.yul\":10604:10613   */\n      dup3\n        /* \"#utility.yul\":10599:10602   */\n      dup5\n        /* \"#utility.yul\":10595:10614   */\n      sub\n        /* \"#utility.yul\":10591:10621   */\n      slt\n        /* \"#utility.yul\":10588:10705   */\n      iszero\n      tag_279\n      jumpi\n        /* \"#utility.yul\":10624:10703   */\n      tag_280\n      tag_157\n      jump\t// in\n    tag_280:\n        /* \"#utility.yul\":10588:10705   */\n    tag_279:\n        /* \"#utility.yul\":10723:10744   */\n      tag_281\n        /* \"#utility.yul\":10739:10743   */\n      0xa0\n        /* \"#utility.yul\":10723:10744   */\n      tag_137\n      jump\t// in\n    tag_281:\n        /* \"#utility.yul\":10714:10744   */\n      swap1\n      pop\n        /* \"#utility.yul\":10807:10808   */\n      0x00\n        /* \"#utility.yul\":10847:10896   */\n      tag_282\n        /* \"#utility.yul\":10892:10895   */\n      dup5\n        /* \"#utility.yul\":10883:10889   */\n      dup3\n        /* \"#utility.yul\":10872:10881   */\n      dup6\n        /* \"#utility.yul\":10868:10890   */\n      add\n        /* \"#utility.yul\":10847:10896   */\n      tag_131\n      jump\t// in\n    tag_282:\n        /* \"#utility.yul\":10840:10844   */\n      0x00\n        /* \"#utility.yul\":10833:10838   */\n      dup4\n        /* \"#utility.yul\":10829:10845   */\n      add\n        /* \"#utility.yul\":10822:10897   */\n      mstore\n        /* \"#utility.yul\":10754:10908   */\n      pop\n        /* \"#utility.yul\":10996:10998   */\n      0x20\n        /* \"#utility.yul\":10985:10994   */\n      dup3\n        /* \"#utility.yul\":10981:10999   */\n      add\n        /* \"#utility.yul\":10968:11000   */\n      calldataload\n        /* \"#utility.yul\":11027:11045   */\n      0xffffffffffffffff\n        /* \"#utility.yul\":11019:11025   */\n      dup2\n        /* \"#utility.yul\":11016:11046   */\n      gt\n        /* \"#utility.yul\":11013:11130   */\n      iszero\n      tag_283\n      jumpi\n        /* \"#utility.yul\":11049:11128   */\n      tag_284\n      tag_158\n      jump\t// in\n    tag_284:\n        /* \"#utility.yul\":11013:11130   */\n    tag_283:\n        /* \"#utility.yul\":11169:11228   */\n      tag_285\n        /* \"#utility.yul\":11224:11227   */\n      dup5\n        /* \"#utility.yul\":11215:11221   */\n      dup3\n        /* \"#utility.yul\":11204:11213   */\n      dup6\n        /* \"#utility.yul\":11200:11222   */\n      add\n        /* \"#utility.yul\":11169:11228   */\n      tag_141\n      jump\t// in\n    tag_285:\n        /* \"#utility.yul\":11162:11166   */\n      0x20\n        /* \"#utility.yul\":11155:11160   */\n      dup4\n        /* \"#utility.yul\":11151:11167   */\n      add\n        /* \"#utility.yul\":11144:11229   */\n      mstore\n        /* \"#utility.yul\":10918:11240   */\n      pop\n        /* \"#utility.yul\":11331:11333   */\n      0x40\n        /* \"#utility.yul\":11320:11329   */\n      dup3\n        /* \"#utility.yul\":11316:11334   */\n      add\n        /* \"#utility.yul\":11303:11335   */\n      calldataload\n        /* \"#utility.yul\":11362:11380   */\n      0xffffffffffffffff\n        /* \"#utility.yul\":11354:11360   */\n      dup2\n        /* \"#utility.yul\":11351:11381   */\n      gt\n        /* \"#utility.yul\":11348:11465   */\n      iszero\n      tag_286\n      jumpi\n        /* \"#utility.yul\":11384:11463   */\n      tag_287\n      tag_158\n      jump\t// in\n    tag_287:\n        /* \"#utility.yul\":11348:11465   */\n    tag_286:\n        /* \"#utility.yul\":11504:11563   */\n      tag_288\n        /* \"#utility.yul\":11559:11562   */\n      dup5\n        /* \"#utility.yul\":11550:11556   */\n      dup3\n        /* \"#utility.yul\":11539:11548   */\n      dup6\n        /* \"#utility.yul\":11535:11557   */\n      add\n        /* \"#utility.yul\":11504:11563   */\n      tag_141\n      jump\t// in\n    tag_288:\n        /* \"#utility.yul\":11497:11501   */\n      0x40\n        /* \"#utility.yul\":11490:11495   */\n      dup4\n        /* \"#utility.yul\":11486:11502   */\n      add\n        /* \"#utility.yul\":11479:11564   */\n      mstore\n        /* \"#utility.yul\":11250:11575   */\n      pop\n        /* \"#utility.yul\":11661:11663   */\n      0x60\n        /* \"#utility.yul\":11650:11659   */\n      dup3\n        /* \"#utility.yul\":11646:11664   */\n      add\n        /* \"#utility.yul\":11633:11665   */\n      calldataload\n        /* \"#utility.yul\":11692:11710   */\n      0xffffffffffffffff\n        /* \"#utility.yul\":11684:11690   */\n      dup2\n        /* \"#utility.yul\":11681:11711   */\n      gt\n        /* \"#utility.yul\":11678:11795   */\n      iszero\n      tag_289\n      jumpi\n        /* \"#utility.yul\":11714:11793   */\n      tag_290\n      tag_158\n      jump\t// in\n    tag_290:\n        /* \"#utility.yul\":11678:11795   */\n    tag_289:\n        /* \"#utility.yul\":11834:11893   */\n      tag_291\n        /* \"#utility.yul\":11889:11892   */\n      dup5\n        /* \"#utility.yul\":11880:11886   */\n      dup3\n        /* \"#utility.yul\":11869:11878   */\n      dup6\n        /* \"#utility.yul\":11865:11887   */\n      add\n        /* \"#utility.yul\":11834:11893   */\n      tag_141\n      jump\t// in\n    tag_291:\n        /* \"#utility.yul\":11827:11831   */\n      0x60\n        /* \"#utility.yul\":11820:11825   */\n      dup4\n        /* \"#utility.yul\":11816:11832   */\n      add\n        /* \"#utility.yul\":11809:11894   */\n      mstore\n        /* \"#utility.yul\":11585:11905   */\n      pop\n        /* \"#utility.yul\":11994:11997   */\n      0x80\n        /* \"#utility.yul\":11983:11992   */\n      dup3\n        /* \"#utility.yul\":11979:11998   */\n      add\n        /* \"#utility.yul\":11966:11999   */\n      calldataload\n        /* \"#utility.yul\":12026:12044   */\n      0xffffffffffffffff\n        /* \"#utility.yul\":12018:12024   */\n      dup2\n        /* \"#utility.yul\":12015:12045   */\n      gt\n        /* \"#utility.yul\":12012:12129   */\n      iszero\n      tag_292\n      jumpi\n        /* \"#utility.yul\":12048:12127   */\n      tag_293\n      tag_158\n      jump\t// in\n    tag_293:\n        /* \"#utility.yul\":12012:12129   */\n    tag_292:\n        /* \"#utility.yul\":12168:12227   */\n      tag_294\n        /* \"#utility.yul\":12223:12226   */\n      dup5\n        /* \"#utility.yul\":12214:12220   */\n      dup3\n        /* \"#utility.yul\":12203:12212   */\n      dup6\n        /* \"#utility.yul\":12199:12221   */\n      add\n        /* \"#utility.yul\":12168:12227   */\n      tag_141\n      jump\t// in\n    tag_294:\n        /* \"#utility.yul\":12161:12165   */\n      0x80\n        /* \"#utility.yul\":12154:12159   */\n      dup4\n        /* \"#utility.yul\":12150:12166   */\n      add\n        /* \"#utility.yul\":12143:12228   */\n      mstore\n        /* \"#utility.yul\":11915:12239   */\n      pop\n        /* \"#utility.yul\":10503:12246   */\n      swap3\n      swap2\n      pop\n      pop\n      jump\t// out\n        /* \"#utility.yul\":12252:12926   */\n    tag_31:\n        /* \"#utility.yul\":12340:12346   */\n      0x00\n        /* \"#utility.yul\":12348:12354   */\n      dup1\n        /* \"#utility.yul\":12397:12399   */\n      0x40\n        /* \"#utility.yul\":12385:12394   */\n      dup4\n        /* \"#utility.yul\":12376:12383   */\n      dup6\n        /* \"#utility.yul\":12372:12395   */\n      sub\n        /* \"#utility.yul\":12368:12400   */\n      slt\n        /* \"#utility.yul\":12365:12484   */\n      iszero\n      tag_296\n      jumpi\n        /* \"#utility.yul\":12403:12482   */\n      tag_297\n      tag_128\n      jump\t// in\n    tag_297:\n        /* \"#utility.yul\":12365:12484   */\n    tag_296:\n        /* \"#utility.yul\":12523:12524   */\n      0x00\n        /* \"#utility.yul\":12548:12601   */\n      tag_298\n        /* \"#utility.yul\":12593:12600   */\n      dup6\n        /* \"#utility.yul\":12584:12590   */\n      dup3\n        /* \"#utility.yul\":12573:12582   */\n      dup7\n        /* \"#utility.yul\":12569:12591   */\n      add\n        /* \"#utility.yul\":12548:12601   */\n      tag_156\n      jump\t// in\n    tag_298:\n        /* \"#utility.yul\":12538:12601   */\n      swap3\n      pop\n        /* \"#utility.yul\":12494:12611   */\n      pop\n        /* \"#utility.yul\":12678:12680   */\n      0x20\n        /* \"#utility.yul\":12667:12676   */\n      dup4\n        /* \"#utility.yul\":12663:12681   */\n      add\n        /* \"#utility.yul\":12650:12682   */\n      calldataload\n        /* \"#utility.yul\":12709:12727   */\n      0xffffffffffffffff\n        /* \"#utility.yul\":12701:12707   */\n      dup2\n        /* \"#utility.yul\":12698:12728   */\n      gt\n        /* \"#utility.yul\":12695:12812   */\n      iszero\n      tag_299\n      jumpi\n        /* \"#utility.yul\":12731:12810   */\n      tag_300\n      tag_129\n      jump\t// in\n    tag_300:\n        /* \"#utility.yul\":12695:12812   */\n    tag_299:\n        /* \"#utility.yul\":12836:12909   */\n      tag_301\n        /* \"#utility.yul\":12901:12908   */\n      dup6\n        /* \"#utility.yul\":12892:12898   */\n      dup3\n        /* \"#utility.yul\":12881:12890   */\n      dup7\n        /* \"#utility.yul\":12877:12899   */\n      add\n        /* \"#utility.yul\":12836:12909   */\n      tag_159\n      jump\t// in\n    tag_301:\n        /* \"#utility.yul\":12826:12909   */\n      swap2\n      pop\n        /* \"#utility.yul\":12621:12919   */\n      pop\n        /* \"#utility.yul\":12252:12926   */\n      swap3\n      pop\n      swap3\n      swap1\n      pop\n      jump\t// out\n        /* \"#utility.yul\":12932:13261   */\n    tag_35:\n        /* \"#utility.yul\":12991:12997   */\n      0x00\n        /* \"#utility.yul\":13040:13042   */\n      0x20\n        /* \"#utility.yul\":13028:13037   */\n      dup3\n        /* \"#utility.yul\":13019:13026   */\n      dup5\n        /* \"#utility.yul\":13015:13038   */\n      sub\n        /* \"#utility.yul\":13011:13043   */\n      slt\n        /* \"#utility.yul\":13008:13127   */\n      iszero\n      tag_303\n      jumpi\n        /* \"#utility.yul\":13046:13125   */\n      tag_304\n      tag_128\n      jump\t// in\n    tag_304:\n        /* \"#utility.yul\":13008:13127   */\n    tag_303:\n        /* \"#utility.yul\":13166:13167   */\n      0x00\n        /* \"#utility.yul\":13191:13244   */\n      tag_305\n        /* \"#utility.yul\":13236:13243   */\n      dup5\n        /* \"#utility.yul\":13227:13233   */\n      dup3\n        /* \"#utility.yul\":13216:13225   */\n      dup6\n        /* \"#utility.yul\":13212:13234   */\n      add\n        /* \"#utility.yul\":13191:13244   */\n      tag_131\n      jump\t// in\n    tag_305:\n        /* \"#utility.yul\":13181:13244   */\n      swap2\n      pop\n        /* \"#utility.yul\":13137:13254   */\n      pop\n        /* \"#utility.yul\":12932:13261   */\n      swap3\n      swap2\n      pop\n      pop\n      jump\t// out\n        /* \"#utility.yul\":13267:13596   */\n    tag_39:\n        /* \"#utility.yul\":13326:13332   */\n      0x00\n        /* \"#utility.yul\":13375:13377   */\n      0x20\n        /* \"#utility.yul\":13363:13372   */\n      dup3\n        /* \"#utility.yul\":13354:13361   */\n      dup5\n        /* \"#utility.yul\":13350:13373   */\n      sub\n        /* \"#utility.yul\":13346:13378   */\n      slt\n        /* \"#utility.yul\":13343:13462   */\n      iszero\n      tag_307\n      jumpi\n        /* \"#utility.yul\":13381:13460   */\n      tag_308\n      tag_128\n      jump\t// in\n    tag_308:\n        /* \"#utility.yul\":13343:13462   */\n    tag_307:\n        /* \"#utility.yul\":13501:13502   */\n      0x00\n        /* \"#utility.yul\":13526:13579   */\n      tag_309\n        /* \"#utility.yul\":13571:13578   */\n      dup5\n        /* \"#utility.yul\":13562:13568   */\n      dup3\n        /* \"#utility.yul\":13551:13560   */\n      dup6\n        /* \"#utility.yul\":13547:13569   */\n      add\n        /* \"#utility.yul\":13526:13579   */\n      tag_156\n      jump\t// in\n    tag_309:\n        /* \"#utility.yul\":13516:13579   */\n      swap2\n      pop\n        /* \"#utility.yul\":13472:13589   */\n      pop\n        /* \"#utility.yul\":13267:13596   */\n      swap3\n      swap2\n      pop\n      pop\n      jump\t// out\n        /* \"#utility.yul\":13602:14131   */\n    tag_49:\n        /* \"#utility.yul\":13681:13687   */\n      0x00\n        /* \"#utility.yul\":13730:13732   */\n      0x20\n        /* \"#utility.yul\":13718:13727   */\n      dup3\n        /* \"#utility.yul\":13709:13716   */\n      dup5\n        /* \"#utility.yul\":13705:13728   */\n      sub\n        /* \"#utility.yul\":13701:13733   */\n      slt\n        /* \"#utility.yul\":13698:13817   */\n      iszero\n      tag_311\n      jumpi\n        /* \"#utility.yul\":13736:13815   */\n      tag_312\n      tag_128\n      jump\t// in\n    tag_312:\n        /* \"#utility.yul\":13698:13817   */\n    tag_311:\n        /* \"#utility.yul\":13884:13885   */\n      0x00\n        /* \"#utility.yul\":13873:13882   */\n      dup3\n        /* \"#utility.yul\":13869:13886   */\n      add\n        /* \"#utility.yul\":13856:13887   */\n      calldataload\n        /* \"#utility.yul\":13914:13932   */\n      0xffffffffffffffff\n        /* \"#utility.yul\":13906:13912   */\n      dup2\n        /* \"#utility.yul\":13903:13933   */\n      gt\n        /* \"#utility.yul\":13900:14017   */\n      iszero\n      tag_313\n      jumpi\n        /* \"#utility.yul\":13936:14015   */\n      tag_314\n      tag_129\n      jump\t// in\n    tag_314:\n        /* \"#utility.yul\":13900:14017   */\n    tag_313:\n        /* \"#utility.yul\":14041:14114   */\n      tag_315\n        /* \"#utility.yul\":14106:14113   */\n      dup5\n        /* \"#utility.yul\":14097:14103   */\n      dup3\n        /* \"#utility.yul\":14086:14095   */\n      dup6\n        /* \"#utility.yul\":14082:14104   */\n      add\n        /* \"#utility.yul\":14041:14114   */\n      tag_159\n      jump\t// in\n    tag_315:\n        /* \"#utility.yul\":14031:14114   */\n      swap2\n      pop\n        /* \"#utility.yul\":13827:14124   */\n      pop\n        /* \"#utility.yul\":13602:14131   */\n      swap3\n      swap2\n      pop\n      pop\n      jump\t// out\n        /* \"#utility.yul\":14137:14317   */\n    tag_160:\n        /* \"#utility.yul\":14185:14262   */\n      0x4e487b7100000000000000000000000000000000000000000000000000000000\n        /* \"#utility.yul\":14182:14183   */\n      0x00\n        /* \"#utility.yul\":14175:14263   */\n      mstore\n        /* \"#utility.yul\":14282:14286   */\n      0x22\n        /* \"#utility.yul\":14279:14280   */\n      0x04\n        /* \"#utility.yul\":14272:14287   */\n      mstore\n        /* \"#utility.yul\":14306:14310   */\n      0x24\n        /* \"#utility.yul\":14303:14304   */\n      0x00\n        /* \"#utility.yul\":14296:14311   */\n      revert\n        /* \"#utility.yul\":14323:14643   */\n    tag_63:\n        /* \"#utility.yul\":14367:14373   */\n      0x00\n        /* \"#utility.yul\":14404:14405   */\n      0x02\n        /* \"#utility.yul\":14398:14402   */\n      dup3\n        /* \"#utility.yul\":14394:14406   */\n      div\n        /* \"#utility.yul\":14384:14406   */\n      swap1\n      pop\n        /* \"#utility.yul\":14451:14452   */\n      0x01\n        /* \"#utility.yul\":14445:14449   */\n      dup3\n        /* \"#utility.yul\":14441:14453   */\n      and\n        /* \"#utility.yul\":14472:14490   */\n      dup1\n        /* \"#utility.yul\":14462:14543   */\n      tag_318\n      jumpi\n        /* \"#utility.yul\":14528:14532   */\n      0x7f\n        /* \"#utility.yul\":14520:14526   */\n      dup3\n        /* \"#utility.yul\":14516:14533   */\n      and\n        /* \"#utility.yul\":14506:14533   */\n      swap2\n      pop\n        /* \"#utility.yul\":14462:14543   */\n    tag_318:\n        /* \"#utility.yul\":14590:14592   */\n      0x20\n        /* \"#utility.yul\":14582:14588   */\n      dup3\n        /* \"#utility.yul\":14579:14593   */\n      lt\n        /* \"#utility.yul\":14559:14577   */\n      dup2\n        /* \"#utility.yul\":14556:14594   */\n      sub\n        /* \"#utility.yul\":14553:14637   */\n      tag_319\n      jumpi\n        /* \"#utility.yul\":14609:14627   */\n      tag_320\n      tag_160\n      jump\t// in\n    tag_320:\n        /* \"#utility.yul\":14553:14637   */\n    tag_319:\n        /* \"#utility.yul\":14374:14643   */\n      pop\n        /* \"#utility.yul\":14323:14643   */\n      swap2\n      swap1\n      pop\n      jump\t// out\n        /* \"#utility.yul\":14649:14790   */\n    tag_161:\n        /* \"#utility.yul\":14698:14702   */\n      0x00\n        /* \"#utility.yul\":14721:14724   */\n      dup2\n        /* \"#utility.yul\":14713:14724   */\n      swap1\n      pop\n        /* \"#utility.yul\":14744:14747   */\n      dup2\n        /* \"#utility.yul\":14741:14742   */\n      0x00\n        /* \"#utility.yul\":14734:14748   */\n      mstore\n        /* \"#utility.yul\":14778:14782   */\n      0x20\n        /* \"#utility.yul\":14775:14776   */\n      0x00\n        /* \"#utility.yul\":14765:14783   */\n      keccak256\n        /* \"#utility.yul\":14757:14783   */\n      swap1\n      pop\n        /* \"#utility.yul\":14649:14790   */\n      swap2\n      swap1\n      pop\n      jump\t// out\n        /* \"#utility.yul\":14796:14889   */\n    tag_162:\n        /* \"#utility.yul\":14833:14839   */\n      0x00\n        /* \"#utility.yul\":14880:14882   */\n      0x20\n        /* \"#utility.yul\":14875:14877   */\n      0x1f\n        /* \"#utility.yul\":14868:14873   */\n      dup4\n        /* \"#utility.yul\":14864:14878   */\n      add\n        /* \"#utility.yul\":14860:14883   */\n      div\n        /* \"#utility.yul\":14850:14883   */\n      swap1\n      pop\n        /* \"#utility.yul\":14796:14889   */\n      swap2\n      swap1\n      pop\n      jump\t// out\n        /* \"#utility.yul\":14895:15002   */\n    tag_163:\n        /* \"#utility.yul\":14939:14947   */\n      0x00\n        /* \"#utility.yul\":14989:14994   */\n      dup3\n        /* \"#utility.yul\":14983:14987   */\n      dup3\n        /* \"#utility.yul\":14979:14995   */\n      shl\n        /* \"#utility.yul\":14958:14995   */\n      swap1\n      pop\n        /* \"#utility.yul\":14895:15002   */\n      swap3\n      swap2\n      pop\n      pop\n      jump\t// out\n        /* \"#utility.yul\":15008:15401   */\n    tag_164:\n        /* \"#utility.yul\":15077:15083   */\n      0x00\n        /* \"#utility.yul\":15127:15128   */\n      0x08\n        /* \"#utility.yul\":15115:15125   */\n      dup4\n        /* \"#utility.yul\":15111:15129   */\n      mul\n        /* \"#utility.yul\":15150:15247   */\n      tag_325\n        /* \"#utility.yul\":15180:15246   */\n      0xffffffffffffffffffffffffffffffffffffffffffffffffffffffffffffffff\n        /* \"#utility.yul\":15169:15178   */\n      dup3\n        /* \"#utility.yul\":15150:15247   */\n      tag_163\n      jump\t// in\n    tag_325:\n        /* \"#utility.yul\":15268:15307   */\n      tag_326\n        /* \"#utility.yul\":15298:15306   */\n      dup7\n        /* \"#utility.yul\":15287:15296   */\n      dup4\n        /* \"#utility.yul\":15268:15307   */\n      tag_163\n      jump\t// in\n    tag_326:\n        /* \"#utility.yul\":15256:15307   */\n      swap6\n      pop\n        /* \"#utility.yul\":15340:15344   */\n      dup1\n        /* \"#utility.yul\":15336:15345   */\n      not\n        /* \"#utility.yul\":15329:15334   */\n      dup5\n        /* \"#utility.yul\":15325:15346   */\n      and\n        /* \"#utility.yul\":15316:15346   */\n      swap4\n      pop\n        /* \"#utility.yul\":15389:15393   */\n      dup1\n        /* \"#utility.yul\":15379:15387   */\n      dup7\n        /* \"#utility.yul\":15375:15394   */\n      and\n        /* \"#utility.yul\":15368:15373   */\n      dup5\n        /* \"#utility.yul\":15365:15395   */\n      or\n        /* \"#utility.yul\":15355:15395   */\n      swap3\n      pop\n        /* \"#utility.yul\":15084:15401   */\n      pop\n      pop\n        /* \"#utility.yul\":15008:15401   */\n      swap4\n      swap3\n      pop\n      pop\n      pop\n      jump\t// out\n        /* \"#utility.yul\":15407:15467   */\n    tag_165:\n        /* \"#utility.yul\":15435:15438   */\n      0x00\n        /* \"#utility.yul\":15456:15461   */\n      dup2\n        /* \"#utility.yul\":15449:15461   */\n      swap1\n      pop\n        /* \"#utility.yul\":15407:15467   */\n      swap2\n      swap1\n      pop\n      jump\t// out\n        /* \"#utility.yul\":15473:15615   */\n    tag_166:\n        /* \"#utility.yul\":15523:15532   */\n      0x00\n        /* \"#utility.yul\":15556:15609   */\n      tag_329\n        /* \"#utility.yul\":15574:15608   */\n      tag_330\n        /* \"#utility.yul\":15583:15607   */\n      tag_331\n        /* \"#utility.yul\":15601:15606   */\n      dup5\n        /* \"#utility.yul\":15583:15607   */\n      tag_154\n      jump\t// in\n    tag_331:\n        /* \"#utility.yul\":15574:15608   */\n      tag_165\n      jump\t// in\n    tag_330:\n        /* \"#utility.yul\":15556:15609   */\n      tag_154\n      jump\t// in\n    tag_329:\n        /* \"#utility.yul\":15543:15609   */\n      swap1\n      pop\n        /* \"#utility.yul\":15473:15615   */\n      swap2\n      swap1\n      pop\n      jump\t// out\n        /* \"#utility.yul\":15621:15696   */\n    tag_167:\n        /* \"#utility.yul\":15664:15667   */\n      0x00\n        /* \"#utility.yul\":15685:15690   */\n      dup2\n        /* \"#utility.yul\":15678:15690   */\n      swap1\n      pop\n        /* \"#utility.yul\":15621:15696   */\n      swap2\n      swap1\n      pop\n      jump\t// out\n        /* \"#utility.yul\":15702:15971   */\n    tag_168:\n        /* \"#utility.yul\":15812:15851   */\n      tag_334\n        /* \"#utility.yul\":15843:15850   */\n      dup4\n        /* \"#utility.yul\":15812:15851   */\n      tag_166\n      jump\t// in\n    tag_334:\n        /* \"#utility.yul\":15873:15964   */\n      tag_335\n        /* \"#utility.yul\":15922:15963   */\n      tag_336\n        /* \"#utility.yul\":15946:15962   */\n      dup3\n        /* \"#utility.yul\":15922:15963   */\n      tag_167\n      jump\t// in\n    tag_336:\n        /* \"#utility.yul\":15914:15920   */\n      dup5\n        /* \"#utility.yul\":15907:15911   */\n      dup5\n        /* \"#utility.yul\":15901:15912   */\n      sload\n        /* \"#utility.yul\":15873:15964   */\n      tag_164\n      jump\t// in\n    tag_335:\n        /* \"#utility.yul\":15867:15871   */\n      dup3\n        /* \"#utility.yul\":15860:15965   */\n      sstore\n        /* \"#utility.yul\":15778:15971   */\n      pop\n        /* \"#utility.yul\":15702:15971   */\n      pop\n      pop\n      pop\n      jump\t// out\n        /* \"#utility.yul\":15977:16050   */\n    tag_169:\n        /* \"#utility.yul\":16022:16025   */\n      0x00\n        /* \"#utility.yul\":15977:16050   */\n      swap1\n      jump\t// out\n        /* \"#utility.yul\":16056:16245   */\n    tag_170:\n        /* \"#utility.yul\":16133:16165   */\n      tag_339\n      tag_169\n      jump\t// in\n    tag_339:\n        /* \"#utility.yul\":16174:16239   */\n      tag_340\n        /* \"#utility.yul\":16232:16238   */\n      dup2\n        /* \"#utility.yul\":16224:16230   */\n      dup5\n        /* \"#utility.yul\":16218:16222   */\n      dup5\n        /* \"#utility.yul\":16174:16239   */\n      tag_168\n      jump\t// in\n    tag_340:\n        /* \"#utility.yul\":16109:16245   */\n      pop\n        /* \"#utility.yul\":16056:16245   */\n      pop\n      pop\n      jump\t// out\n        /* \"#utility.yul\":16251:16437   */\n    tag_171:\n        /* \"#utility.yul\":16311:16431   */\n    tag_342:\n        /* \"#utility.yul\":16328:16331   */\n      dup2\n        /* \"#utility.yul\":16321:16326   */\n      dup2\n        /* \"#utility.yul\":16318:16332   */\n      lt\n        /* \"#utility.yul\":16311:16431   */\n      iszero\n      tag_344\n      jumpi\n        /* \"#utility.yul\":16382:16421   */\n      tag_345\n        /* \"#utility.yul\":16419:16420   */\n      0x00\n        /* \"#utility.yul\":16412:16417   */\n      dup3\n        /* \"#utility.yul\":16382:16421   */\n      tag_170\n      jump\t// in\n    tag_345:\n        /* \"#utility.yul\":16355:16356   */\n      0x01\n        /* \"#utility.yul\":16348:16353   */\n      dup2\n        /* \"#utility.yul\":16344:16357   */\n      add\n        /* \"#utility.yul\":16335:16357   */\n      swap1\n      pop\n        /* \"#utility.yul\":16311:16431   */\n      jump(tag_342)\n    tag_344:\n        /* \"#utility.yul\":16251:16437   */\n      pop\n      pop\n      jump\t// out\n        /* \"#utility.yul\":16443:16986   */\n    tag_172:\n        /* \"#utility.yul\":16544:16546   */\n      0x1f\n        /* \"#utility.yul\":16539:16542   */\n      dup3\n        /* \"#utility.yul\":16536:16547   */\n      gt\n        /* \"#utility.yul\":16533:16979   */\n      iszero\n      tag_347\n      jumpi\n        /* \"#utility.yul\":16578:16616   */\n      tag_348\n        /* \"#utility.yul\":16610:16615   */\n      dup2\n        /* \"#utility.yul\":16578:16616   */\n      tag_161\n      jump\t// in\n    tag_348:\n        /* \"#utility.yul\":16662:16691   */\n      tag_349\n        /* \"#utility.yul\":16680:16690   */\n      dup5\n        /* \"#utility.yul\":16662:16691   */\n      tag_162\n      jump\t// in\n    tag_349:\n        /* \"#utility.yul\":16652:16660   */\n      dup2\n        /* \"#utility.yul\":16648:16692   */\n      add\n        /* \"#utility.yul\":16845:16847   */\n      0x20\n        /* \"#utility.yul\":16833:16843   */\n      dup6\n        /* \"#utility.yul\":16830:16848   */\n      lt\n        /* \"#utility.yul\":16827:16876   */\n      iszero\n      tag_350\n      jumpi\n        /* \"#utility.yul\":16866:16874   */\n      dup2\n        /* \"#utility.yul\":16851:16874   */\n      swap1\n      pop\n        /* \"#utility.yul\":16827:16876   */\n    tag_350:\n        /* \"#utility.yul\":16889:16969   */\n      tag_351\n        /* \"#utility.yul\":16945:16967   */\n      tag_352\n        /* \"#utility.yul\":16963:16966   */\n      dup6\n        /* \"#utility.yul\":16945:16967   */\n      tag_162\n      jump\t// in\n    tag_352:\n        /* \"#utility.yul\":16935:16943   */\n      dup4\n        /* \"#utility.yul\":16931:16968   */\n      add\n        /* \"#utility.yul\":16918:16929   */\n      dup3\n        /* \"#utility.yul\":16889:16969   */\n      tag_171\n      jump\t// in\n    tag_351:\n        /* \"#utility.yul\":16548:16979   */\n      pop\n      pop\n        /* \"#utility.yul\":16533:16979   */\n    tag_347:\n        /* \"#utility.yul\":16443:16986   */\n      pop\n      pop\n      pop\n      jump\t// out\n        /* \"#utility.yul\":16992:17109   */\n    tag_173:\n        /* \"#utility.yul\":17046:17054   */\n      0x00\n        /* \"#utility.yul\":17096:17101   */\n      dup3\n        /* \"#utility.yul\":17090:17094   */\n      dup3\n        /* \"#utility.yul\":17086:17102   */\n      shr\n        /* \"#utility.yul\":17065:17102   */\n      swap1\n      pop\n        /* \"#utility.yul\":16992:17109   */\n      swap3\n      swap2\n      pop\n      pop\n      jump\t// out\n        /* \"#utility.yul\":17115:17284   */\n    tag_174:\n        /* \"#utility.yul\":17159:17165   */\n      0x00\n        /* \"#utility.yul\":17192:17243   */\n      tag_355\n        /* \"#utility.yul\":17240:17241   */\n      0x00\n        /* \"#utility.yul\":17236:17242   */\n      not\n        /* \"#utility.yul\":17228:17233   */\n      dup5\n        /* \"#utility.yul\":17225:17226   */\n      0x08\n        /* \"#utility.yul\":17221:17234   */\n      mul\n        /* \"#utility.yul\":17192:17243   */\n      tag_173\n      jump\t// in\n    tag_355:\n        /* \"#utility.yul\":17188:17244   */\n      not\n        /* \"#utility.yul\":17273:17277   */\n      dup1\n        /* \"#utility.yul\":17267:17271   */\n      dup4\n        /* \"#utility.yul\":17263:17278   */\n      and\n        /* \"#utility.yul\":17253:17278   */\n      swap2\n      pop\n        /* \"#utility.yul\":17166:17284   */\n      pop\n        /* \"#utility.yul\":17115:17284   */\n      swap3\n      swap2\n      pop\n      pop\n      jump\t// out\n        /* \"#utility.yul\":17289:17584   */\n    tag_175:\n        /* \"#utility.yul\":17365:17369   */\n      0x00\n        /* \"#utility.yul\":17511:17540   */\n      tag_357\n        /* \"#utility.yul\":17536:17539   */\n      dup4\n        /* \"#utility.yul\":17530:17534   */\n      dup4\n        /* \"#utility.yul\":17511:17540   */\n      tag_174\n      jump\t// in\n    tag_357:\n        /* \"#utility.yul\":17503:17540   */\n      swap2\n      pop\n        /* \"#utility.yul\":17573:17576   */\n      dup3\n        /* \"#utility.yul\":17570:17571   */\n      0x02\n        /* \"#utility.yul\":17566:17577   */\n      mul\n        /* \"#utility.yul\":17560:17564   */\n      dup3\n        /* \"#utility.yul\":17557:17578   */\n      or\n        /* \"#utility.yul\":17549:17578   */\n      swap1\n      pop\n        /* \"#utility.yul\":17289:17584   */\n      swap3\n      swap2\n      pop\n      pop\n      jump\t// out\n        /* \"#utility.yul\":17589:18984   */\n    tag_54:\n        /* \"#utility.yul\":17706:17743   */\n      tag_359\n        /* \"#utility.yul\":17739:17742   */\n      dup3\n        /* \"#utility.yul\":17706:17743   */\n      tag_146\n      jump\t// in\n    tag_359:\n        /* \"#utility.yul\":17808:17826   */\n      0xffffffffffffffff\n        /* \"#utility.yul\":17800:17806   */\n      dup2\n        /* \"#utility.yul\":17797:17827   */\n      gt\n        /* \"#utility.yul\":17794:17850   */\n      iszero\n      tag_360\n      jumpi\n        /* \"#utility.yul\":17830:17848   */\n      tag_361\n      tag_135\n      jump\t// in\n    tag_361:\n        /* \"#utility.yul\":17794:17850   */\n    tag_360:\n        /* \"#utility.yul\":17874:17912   */\n      tag_362\n        /* \"#utility.yul\":17906:17910   */\n      dup3\n        /* \"#utility.yul\":17900:17911   */\n      sload\n        /* \"#utility.yul\":17874:17912   */\n      tag_63\n      jump\t// in\n    tag_362:\n        /* \"#utility.yul\":17959:18026   */\n      tag_363\n        /* \"#utility.yul\":18019:18025   */\n      dup3\n        /* \"#utility.yul\":18011:18017   */\n      dup3\n        /* \"#utility.yul\":18005:18009   */\n      dup6\n        /* \"#utility.yul\":17959:18026   */\n      tag_172\n      jump\t// in\n    tag_363:\n        /* \"#utility.yul\":18053:18054   */\n      0x00\n        /* \"#utility.yul\":18077:18081   */\n      0x20\n        /* \"#utility.yul\":18064:18081   */\n      swap1\n      pop\n        /* \"#utility.yul\":18109:18111   */\n      0x1f\n        /* \"#utility.yul\":18101:18107   */\n      dup4\n        /* \"#utility.yul\":18098:18112   */\n      gt\n        /* \"#utility.yul\":18126:18127   */\n      0x01\n        /* \"#utility.yul\":18121:18739   */\n      dup2\n      eq\n      tag_365\n      jumpi\n        /* \"#utility.yul\":18783:18784   */\n      0x00\n        /* \"#utility.yul\":18800:18806   */\n      dup5\n        /* \"#utility.yul\":18797:18874   */\n      iszero\n      tag_366\n      jumpi\n        /* \"#utility.yul\":18849:18858   */\n      dup3\n        /* \"#utility.yul\":18844:18847   */\n      dup8\n        /* \"#utility.yul\":18840:18859   */\n      add\n        /* \"#utility.yul\":18834:18860   */\n      mload\n        /* \"#utility.yul\":18825:18860   */\n      swap1\n      pop\n        /* \"#utility.yul\":18797:18874   */\n    tag_366:\n        /* \"#utility.yul\":18900:18967   */\n      tag_367\n        /* \"#utility.yul\":18960:18966   */\n      dup6\n        /* \"#utility.yul\":18953:18958   */\n      dup3\n        /* \"#utility.yul\":18900:18967   */\n      tag_175\n      jump\t// in\n    tag_367:\n        /* \"#utility.yul\":18894:18898   */\n      dup7\n        /* \"#utility.yul\":18887:18968   */\n      sstore\n        /* \"#utility.yul\":18756:18978   */\n      pop\n        /* \"#utility.yul\":18091:18978   */\n      jump(tag_364)\n        /* \"#utility.yul\":18121:18739   */\n    tag_365:\n        /* \"#utility.yul\":18173:18177   */\n      0x1f\n        /* \"#utility.yul\":18169:18178   */\n      not\n        /* \"#utility.yul\":18161:18167   */\n      dup5\n        /* \"#utility.yul\":18157:18179   */\n      and\n        /* \"#utility.yul\":18207:18244   */\n      tag_368\n        /* \"#utility.yul\":18239:18243   */\n      dup7\n        /* \"#utility.yul\":18207:18244   */\n      tag_161\n      jump\t// in\n    tag_368:\n        /* \"#utility.yul\":18266:18267   */\n      0x00\n        /* \"#utility.yul\":18280:18488   */\n    tag_369:\n        /* \"#utility.yul\":18294:18301   */\n      dup3\n        /* \"#utility.yul\":18291:18292   */\n      dup2\n        /* \"#utility.yul\":18288:18302   */\n      lt\n        /* \"#utility.yul\":18280:18488   */\n      iszero\n      tag_371\n      jumpi\n        /* \"#utility.yul\":18373:18382   */\n      dup5\n        /* \"#utility.yul\":18368:18371   */\n      dup10\n        /* \"#utility.yul\":18364:18383   */\n      add\n        /* \"#utility.yul\":18358:18384   */\n      mload\n        /* \"#utility.yul\":18350:18356   */\n      dup3\n        /* \"#utility.yul\":18343:18385   */\n      sstore\n        /* \"#utility.yul\":18424:18425   */\n      0x01\n        /* \"#utility.yul\":18416:18422   */\n      dup3\n        /* \"#utility.yul\":18412:18426   */\n      add\n        /* \"#utility.yul\":18402:18426   */\n      swap2\n      pop\n        /* \"#utility.yul\":18471:18473   */\n      0x20\n        /* \"#utility.yul\":18460:18469   */\n      dup6\n        /* \"#utility.yul\":18456:18474   */\n      add\n        /* \"#utility.yul\":18443:18474   */\n      swap5\n      pop\n        /* \"#utility.yul\":18317:18321   */\n      0x20\n        /* \"#utility.yul\":18314:18315   */\n      dup2\n        /* \"#utility.yul\":18310:18322   */\n      add\n        /* \"#utility.yul\":18305:18322   */\n      swap1\n      pop\n        /* \"#utility.yul\":18280:18488   */\n      jump(tag_369)\n    tag_371:\n        /* \"#utility.yul\":18516:18522   */\n      dup7\n        /* \"#utility.yul\":18507:18514   */\n      dup4\n        /* \"#utility.yul\":18504:18523   */\n      lt\n        /* \"#utility.yul\":18501:18680   */\n      iszero\n      tag_372\n      jumpi\n        /* \"#utility.yul\":18574:18583   */\n      dup5\n        /* \"#utility.yul\":18569:18572   */\n      dup10\n        /* \"#utility.yul\":18565:18584   */\n      add\n        /* \"#utility.yul\":18559:18585   */\n      mload\n        /* \"#utility.yul\":18617:18665   */\n      tag_373\n        /* \"#utility.yul\":18659:18663   */\n      0x1f\n        /* \"#utility.yul\":18651:18657   */\n      dup10\n        /* \"#utility.yul\":18647:18664   */\n      and\n        /* \"#utility.yul\":18636:18645   */\n      dup3\n        /* \"#utility.yul\":18617:18665   */\n      tag_174\n      jump\t// in\n    tag_373:\n        /* \"#utility.yul\":18609:18615   */\n      dup4\n        /* \"#utility.yul\":18602:18666   */\n      sstore\n        /* \"#utility.yul\":18524:18680   */\n      pop\n        /* \"#utility.yul\":18501:18680   */\n    tag_372:\n        /* \"#utility.yul\":18726:18727   */\n      0x01\n        /* \"#utility.yul\":18722:18723   */\n      0x02\n        /* \"#utility.yul\":18714:18720   */\n      dup9\n        /* \"#utility.yul\":18710:18724   */\n      mul\n        /* \"#utility.yul\":18706:18728   */\n      add\n        /* \"#utility.yul\":18700:18704   */\n      dup9\n        /* \"#utility.yul\":18693:18729   */\n      sstore\n        /* \"#utility.yul\":18128:18739   */\n      pop\n      pop\n      pop\n        /* \"#utility.yul\":18091:18978   */\n    tag_364:\n      pop\n        /* \"#utility.yul\":17681:18984   */\n      pop\n      pop\n      pop\n        /* \"#utility.yul\":17589:18984   */\n      pop\n      pop\n      jump\t// out\n        /* \"#utility.yul\":18990:19170   */\n    tag_86:\n        /* \"#utility.yul\":19038:19115   */\n      0x4e487b7100000000000000000000000000000000000000000000000000000000\n        /* \"#utility.yul\":19035:19036   */\n      0x00\n        /* \"#utility.yul\":19028:19116   */\n      mstore\n        /* \"#utility.yul\":19135:19139   */\n      0x32\n        /* \"#utility.yul\":19132:19133   */\n      0x04\n        /* \"#utility.yul\":19125:19140   */\n      mstore\n        /* \"#utility.yul\":19159:19163   */\n      0x24\n        /* \"#utility.yul\":19156:19157   */\n      0x00\n        /* \"#utility.yul\":19149:19164   */\n      revert\n\n    auxdata: 0xa2646970667358221220e74e3dfafe671f9eac4d1f46ea9c7c7420f891ed634597e708dd15ecf3d87a2f64736f6c63430008110033\n}\n",
				"bytecode": {
					"linkReferences": {},
					"object": "608060405234801561001057600080fd5b50611401806100206000396000f3fe608060405234801561001057600080fd5b506004361061009e5760003560e01c8063b29f04fe11610066578063b29f04fe14610135578063b5c64e2a14610151578063b78842ee1461016d578063dacf64e214610189578063f73c5683146101a55761009e565b8063085d4883146100a35780631fbecde7146100c157806376cdb03b146100dd578063827b0348146100fb57806398168b9414610119575b600080fd5b6100ab6101c1565b6040516100b891906109fa565b60405180910390f35b6100db60048036038101906100d69190610b9b565b6101e5565b005b6100e56102fb565b6040516100f291906109fa565b60405180910390f35b610103610321565b6040516101109190610e61565b60405180910390f35b610133600480360381019061012e9190610fbf565b61061e565b005b61014f600480360381019061014a919061101b565b6106e7565b005b61016b60048036038101906101669190611048565b61072a565b005b61018760048036038101906101829190611048565b6107b9565b005b6101a3600480360381019061019e919061101b565b610848565b005b6101bf60048036038101906101ba9190611075565b61088c565b005b60008054906101000a900473ffffffffffffffffffffffffffffffffffffffff1681565b60006040518060a001604052808773ffffffffffffffffffffffffffffffffffffffff168152602001868152602001858152602001848152602001838152509050600281908060018154018082558091505060019003906000526020600020906005020160009091909190915060008201518160000160006101000a81548173ffffffffffffffffffffffffffffffffffffffff021916908373ffffffffffffffffffffffffffffffffffffffff16021790555060208201518160010190816102ae91906112ca565b5060408201518160020190816102c491906112ca565b5060608201518160030190816102da91906112ca565b5060808201518160040190816102f091906112ca565b505050505050505050565b600160009054906101000a900473ffffffffffffffffffffffffffffffffffffffff1681565b60606002805480602002602001604051908101604052809291908181526020016000905b8282101561061557838290600052602060002090600502016040518060a00160405290816000820160009054906101000a900473ffffffffffffffffffffffffffffffffffffffff1673ffffffffffffffffffffffffffffffffffffffff1673ffffffffffffffffffffffffffffffffffffffff1681526020016001820180546103ce906110ed565b80601f01602080910402602001604051908101604052809291908181526020018280546103fa906110ed565b80156104475780601f1061041c57610100808354040283529160200191610447565b820191906000526020600020905b81548152906001019060200180831161042a57829003601f168201915b50505050508152602001600282018054610460906110ed565b80601f016020809104026020016040519081016040528092919081815260200182805461048c906110ed565b80156104d95780601f106104ae576101008083540402835291602001916104d9565b820191906000526020600020905b8154815290600101906020018083116104bc57829003601f168201915b505050505081526020016003820180546104f2906110ed565b80601f016020809104026020016040519081016040528092919081815260200182805461051e906110ed565b801561056b5780601f106105405761010080835404028352916020019161056b565b820191906000526020600020905b81548152906001019060200180831161054e57829003601f168201915b50505050508152602001600482018054610584906110ed565b80601f01602080910402602001604051908101604052809291908181526020018280546105b0906110ed565b80156105fd5780601f106105d2576101008083540402835291602001916105fd565b820191906000526020600020905b8154815290600101906020018083116105e057829003601f168201915b50505050508152505081526020019060010190610345565b50505050905090565b80600283815481106106335761063261139c565b5b906000526020600020906005020160008201518160000160006101000a81548173ffffffffffffffffffffffffffffffffffffffff021916908373ffffffffffffffffffffffffffffffffffffffff160217905550602082015181600101908161069d91906112ca565b5060408201518160020190816106b391906112ca565b5060608201518160030190816106c991906112ca565b5060808201518160040190816106df91906112ca565b509050505050565b806000806101000a81548173ffffffffffffffffffffffffffffffffffffffff021916908373ffffffffffffffffffffffffffffffffffffffff16021790555050565b6003818154811061073e5761073d61139c565b5b9060005260206000209060050201600080820160006101000a81549073ffffffffffffffffffffffffffffffffffffffff0219169055600182016000610784919061095c565b600282016000610794919061095c565b6003820160006107a4919061095c565b6004820160006107b4919061095c565b505050565b600281815481106107cd576107cc61139c565b5b9060005260206000209060050201600080820160006101000a81549073ffffffffffffffffffffffffffffffffffffffff0219169055600182016000610813919061095c565b600282016000610823919061095c565b600382016000610833919061095c565b600482016000610843919061095c565b505050565b80600160006101000a81548173ffffffffffffffffffffffffffffffffffffffff021916908373ffffffffffffffffffffffffffffffffffffffff16021790555050565b600381908060018154018082558091505060019003906000526020600020906005020160009091909190915060008201518160000160006101000a81548173ffffffffffffffffffffffffffffffffffffffff021916908373ffffffffffffffffffffffffffffffffffffffff160217905550602082015181600101908161091491906112ca565b50604082015181600201908161092a91906112ca565b50606082015181600301908161094091906112ca565b50608082015181600401908161095691906112ca565b50505050565b508054610968906110ed565b6000825580601f1061097a5750610999565b601f016020900490600052602060002090810190610998919061099c565b5b50565b5b808211156109b557600081600090555060010161099d565b5090565b600073ffffffffffffffffffffffffffffffffffffffff82169050919050565b60006109e4826109b9565b9050919050565b6109f4816109d9565b82525050565b6000602082019050610a0f60008301846109eb565b92915050565b6000604051905090565b600080fd5b600080fd5b610a32816109d9565b8114610a3d57600080fd5b50565b600081359050610a4f81610a29565b92915050565b600080fd5b600080fd5b6000601f19601f8301169050919050565b7f4e487b7100000000000000000000000000000000000000000000000000000000600052604160045260246000fd5b610aa882610a5f565b810181811067ffffffffffffffff82111715610ac757610ac6610a70565b5b80604052505050565b6000610ada610a15565b9050610ae68282610a9f565b919050565b600067ffffffffffffffff821115610b0657610b05610a70565b5b610b0f82610a5f565b9050602081019050919050565b82818337600083830152505050565b6000610b3e610b3984610aeb565b610ad0565b905082815260208101848484011115610b5a57610b59610a5a565b5b610b65848285610b1c565b509392505050565b600082601f830112610b8257610b81610a55565b5b8135610b92848260208601610b2b565b91505092915050565b600080600080600060a08688031215610bb757610bb6610a1f565b5b6000610bc588828901610a40565b955050602086013567ffffffffffffffff811115610be657610be5610a24565b5b610bf288828901610b6d565b945050604086013567ffffffffffffffff811115610c1357610c12610a24565b5b610c1f88828901610b6d565b935050606086013567ffffffffffffffff811115610c4057610c3f610a24565b5b610c4c88828901610b6d565b925050608086013567ffffffffffffffff811115610c6d57610c6c610a24565b5b610c7988828901610b6d565b9150509295509295909350565b600081519050919050565b600082825260208201905092915050565b6000819050602082019050919050565b610cbb816109d9565b82525050565b600081519050919050565b600082825260208201905092915050565b60005b83811015610cfb578082015181840152602081019050610ce0565b60008484015250505050565b6000610d1282610cc1565b610d1c8185610ccc565b9350610d2c818560208601610cdd565b610d3581610a5f565b840191505092915050565b600060a083016000830151610d586000860182610cb2565b5060208301518482036020860152610d708282610d07565b91505060408301518482036040860152610d8a8282610d07565b91505060608301518482036060860152610da48282610d07565b91505060808301518482036080860152610dbe8282610d07565b9150508091505092915050565b6000610dd78383610d40565b905092915050565b6000602082019050919050565b6000610df782610c86565b610e018185610c91565b935083602082028501610e1385610ca2565b8060005b85811015610e4f5784840389528151610e308582610dcb565b9450610e3b83610ddf565b925060208a01995050600181019050610e17565b50829750879550505050505092915050565b60006020820190508181036000830152610e7b8184610dec565b905092915050565b6000819050919050565b610e9681610e83565b8114610ea157600080fd5b50565b600081359050610eb381610e8d565b92915050565b600080fd5b600080fd5b600060a08284031215610ed957610ed8610eb9565b5b610ee360a0610ad0565b90506000610ef384828501610a40565b600083015250602082013567ffffffffffffffff811115610f1757610f16610ebe565b5b610f2384828501610b6d565b602083015250604082013567ffffffffffffffff811115610f4757610f46610ebe565b5b610f5384828501610b6d565b604083015250606082013567ffffffffffffffff811115610f7757610f76610ebe565b5b610f8384828501610b6d565b606083015250608082013567ffffffffffffffff811115610fa757610fa6610ebe565b5b610fb384828501610b6d565b60808301525092915050565b60008060408385031215610fd657610fd5610a1f565b5b6000610fe485828601610ea4565b925050602083013567ffffffffffffffff81111561100557611004610a24565b5b61101185828601610ec3565b9150509250929050565b60006020828403121561103157611030610a1f565b5b600061103f84828501610a40565b91505092915050565b60006020828403121561105e5761105d610a1f565b5b600061106c84828501610ea4565b91505092915050565b60006020828403121561108b5761108a610a1f565b5b600082013567ffffffffffffffff8111156110a9576110a8610a24565b5b6110b584828501610ec3565b91505092915050565b7f4e487b7100000000000000000000000000000000000000000000000000000000600052602260045260246000fd5b6000600282049050600182168061110557607f821691505b602082108103611118576111176110be565b5b50919050565b60008190508160005260206000209050919050565b60006020601f8301049050919050565b600082821b905092915050565b6000600883026111807fffffffffffffffffffffffffffffffffffffffffffffffffffffffffffffffff82611143565b61118a8683611143565b95508019841693508086168417925050509392505050565b6000819050919050565b60006111c76111c26111bd84610e83565b6111a2565b610e83565b9050919050565b6000819050919050565b6111e1836111ac565b6111f56111ed826111ce565b848454611150565b825550505050565b600090565b61120a6111fd565b6112158184846111d8565b505050565b5b818110156112395761122e600082611202565b60018101905061121b565b5050565b601f82111561127e5761124f8161111e565b61125884611133565b81016020851015611267578190505b61127b61127385611133565b83018261121a565b50505b505050565b600082821c905092915050565b60006112a160001984600802611283565b1980831691505092915050565b60006112ba8383611290565b9150826002028217905092915050565b6112d382610cc1565b67ffffffffffffffff8111156112ec576112eb610a70565b5b6112f682546110ed565b61130182828561123d565b600060209050601f8311600181146113345760008415611322578287015190505b61132c85826112ae565b865550611394565b601f1984166113428661111e565b60005b8281101561136a57848901518255600182019150602085019450602081019050611345565b868310156113875784890151611383601f891682611290565b8355505b6001600288020188555050505b505050505050565b7f4e487b7100000000000000000000000000000000000000000000000000000000600052603260045260246000fdfea2646970667358221220e74e3dfafe671f9eac4d1f46ea9c7c7420f891ed634597e708dd15ecf3d87a2f64736f6c63430008110033",
					"opcodes": "PUSH1 0x80 PUSH1 0x40 MSTORE CALLVALUE DUP1 ISZERO PUSH2 0x10 JUMPI PUSH1 0x0 DUP1 REVERT JUMPDEST POP PUSH2 0x1401 DUP1 PUSH2 0x20 PUSH1 0x0 CODECOPY PUSH1 0x0 RETURN INVALID PUSH1 0x80 PUSH1 0x40 MSTORE CALLVALUE DUP1 ISZERO PUSH2 0x10 JUMPI PUSH1 0x0 DUP1 REVERT JUMPDEST POP PUSH1 0x4 CALLDATASIZE LT PUSH2 0x9E JUMPI PUSH1 0x0 CALLDATALOAD PUSH1 0xE0 SHR DUP1 PUSH4 0xB29F04FE GT PUSH2 0x66 JUMPI DUP1 PUSH4 0xB29F04FE EQ PUSH2 0x135 JUMPI DUP1 PUSH4 0xB5C64E2A EQ PUSH2 0x151 JUMPI DUP1 PUSH4 0xB78842EE EQ PUSH2 0x16D JUMPI DUP1 PUSH4 0xDACF64E2 EQ PUSH2 0x189 JUMPI DUP1 PUSH4 0xF73C5683 EQ PUSH2 0x1A5 JUMPI PUSH2 0x9E JUMP JUMPDEST DUP1 PUSH4 0x85D4883 EQ PUSH2 0xA3 JUMPI DUP1 PUSH4 0x1FBECDE7 EQ PUSH2 0xC1 JUMPI DUP1 PUSH4 0x76CDB03B EQ PUSH2 0xDD JUMPI DUP1 PUSH4 0x827B0348 EQ PUSH2 0xFB JUMPI DUP1 PUSH4 0x98168B94 EQ PUSH2 0x119 JUMPI JUMPDEST PUSH1 0x0 DUP1 REVERT JUMPDEST PUSH2 0xAB PUSH2 0x1C1 JUMP JUMPDEST PUSH1 0x40 MLOAD PUSH2 0xB8 SWAP2 SWAP1 PUSH2 0x9FA JUMP JUMPDEST PUSH1 0x40 MLOAD DUP1 SWAP2 SUB SWAP1 RETURN JUMPDEST PUSH2 0xDB PUSH1 0x4 DUP1 CALLDATASIZE SUB DUP2 ADD SWAP1 PUSH2 0xD6 SWAP2 SWAP1 PUSH2 0xB9B JUMP JUMPDEST PUSH2 0x1E5 JUMP JUMPDEST STOP JUMPDEST PUSH2 0xE5 PUSH2 0x2FB JUMP JUMPDEST PUSH1 0x40 MLOAD PUSH2 0xF2 SWAP2 SWAP1 PUSH2 0x9FA JUMP JUMPDEST PUSH1 0x40 MLOAD DUP1 SWAP2 SUB SWAP1 RETURN JUMPDEST PUSH2 0x103 PUSH2 0x321 JUMP JUMPDEST PUSH1 0x40 MLOAD PUSH2 0x110 SWAP2 SWAP1 PUSH2 0xE61 JUMP JUMPDEST PUSH1 0x40 MLOAD DUP1 SWAP2 SUB SWAP1 RETURN JUMPDEST PUSH2 0x133 PUSH1 0x4 DUP1 CALLDATASIZE SUB DUP2 ADD SWAP1 PUSH2 0x12E SWAP2 SWAP1 PUSH2 0xFBF JUMP JUMPDEST PUSH2 0x61E JUMP JUMPDEST STOP JUMPDEST PUSH2 0x14F PUSH1 0x4 DUP1 CALLDATASIZE SUB DUP2 ADD SWAP1 PUSH2 0x14A SWAP2 SWAP1 PUSH2 0x101B JUMP JUMPDEST PUSH2 0x6E7 JUMP JUMPDEST STOP JUMPDEST PUSH2 0x16B PUSH1 0x4 DUP1 CALLDATASIZE SUB DUP2 ADD SWAP1 PUSH2 0x166 SWAP2 SWAP1 PUSH2 0x1048 JUMP JUMPDEST PUSH2 0x72A JUMP JUMPDEST STOP JUMPDEST PUSH2 0x187 PUSH1 0x4 DUP1 CALLDATASIZE SUB DUP2 ADD SWAP1 PUSH2 0x182 SWAP2 SWAP1 PUSH2 0x1048 JUMP JUMPDEST PUSH2 0x7B9 JUMP JUMPDEST STOP JUMPDEST PUSH2 0x1A3 PUSH1 0x4 DUP1 CALLDATASIZE SUB DUP2 ADD SWAP1 PUSH2 0x19E SWAP2 SWAP1 PUSH2 0x101B JUMP JUMPDEST PUSH2 0x848 JUMP JUMPDEST STOP JUMPDEST PUSH2 0x1BF PUSH1 0x4 DUP1 CALLDATASIZE SUB DUP2 ADD SWAP1 PUSH2 0x1BA SWAP2 SWAP1 PUSH2 0x1075 JUMP JUMPDEST PUSH2 0x88C JUMP JUMPDEST STOP JUMPDEST PUSH1 0x0 DUP1 SLOAD SWAP1 PUSH2 0x100 EXP SWAP1 DIV PUSH20 0xFFFFFFFFFFFFFFFFFFFFFFFFFFFFFFFFFFFFFFFF AND DUP2 JUMP JUMPDEST PUSH1 0x0 PUSH1 0x40 MLOAD DUP1 PUSH1 0xA0 ADD PUSH1 0x40 MSTORE DUP1 DUP8 PUSH20 0xFFFFFFFFFFFFFFFFFFFFFFFFFFFFFFFFFFFFFFFF AND DUP2 MSTORE PUSH1 0x20 ADD DUP7 DUP2 MSTORE PUSH1 0x20 ADD DUP6 DUP2 MSTORE PUSH1 0x20 ADD DUP5 DUP2 MSTORE PUSH1 0x20 ADD DUP4 DUP2 MSTORE POP SWAP1 POP PUSH1 0x2 DUP2 SWAP1 DUP1 PUSH1 0x1 DUP2 SLOAD ADD DUP1 DUP3 SSTORE DUP1 SWAP2 POP POP PUSH1 0x1 SWAP1 SUB SWAP1 PUSH1 0x0 MSTORE PUSH1 0x20 PUSH1 0x0 KECCAK256 SWAP1 PUSH1 0x5 MUL ADD PUSH1 0x0 SWAP1 SWAP2 SWAP1 SWAP2 SWAP1 SWAP2 POP PUSH1 0x0 DUP3 ADD MLOAD DUP2 PUSH1 0x0 ADD PUSH1 0x0 PUSH2 0x100 EXP DUP2 SLOAD DUP2 PUSH20 0xFFFFFFFFFFFFFFFFFFFFFFFFFFFFFFFFFFFFFFFF MUL NOT AND SWAP1 DUP4 PUSH20 0xFFFFFFFFFFFFFFFFFFFFFFFFFFFFFFFFFFFFFFFF AND MUL OR SWAP1 SSTORE POP PUSH1 0x20 DUP3 ADD MLOAD DUP2 PUSH1 0x1 ADD SWAP1 DUP2 PUSH2 0x2AE SWAP2 SWAP1 PUSH2 0x12CA JUMP JUMPDEST POP PUSH1 0x40 DUP3 ADD MLOAD DUP2 PUSH1 0x2 ADD SWAP1 DUP2 PUSH2 0x2C4 SWAP2 SWAP1 PUSH2 0x12CA JUMP JUMPDEST POP PUSH1 0x60 DUP3 ADD MLOAD DUP2 PUSH1 0x3 ADD SWAP1 DUP2 PUSH2 0x2DA SWAP2 SWAP1 PUSH2 0x12CA JUMP JUMPDEST POP PUSH1 0x80 DUP3 ADD MLOAD DUP2 PUSH1 0x4 ADD SWAP1 DUP2 PUSH2 0x2F0 SWAP2 SWAP1 PUSH2 0x12CA JUMP JUMPDEST POP POP POP POP POP POP POP POP POP JUMP JUMPDEST PUSH1 0x1 PUSH1 0x0 SWAP1 SLOAD SWAP1 PUSH2 0x100 EXP SWAP1 DIV PUSH20 0xFFFFFFFFFFFFFFFFFFFFFFFFFFFFFFFFFFFFFFFF AND DUP2 JUMP JUMPDEST PUSH1 0x60 PUSH1 0x2 DUP1 SLOAD DUP1 PUSH1 0x20 MUL PUSH1 0x20 ADD PUSH1 0x40 MLOAD SWAP1 DUP2 ADD PUSH1 0x40 MSTORE DUP1 SWAP3 SWAP2 SWAP1 DUP2 DUP2 MSTORE PUSH1 0x20 ADD PUSH1 0x0 SWAP1 JUMPDEST DUP3 DUP3 LT ISZERO PUSH2 0x615 JUMPI DUP4 DUP3 SWAP1 PUSH1 0x0 MSTORE PUSH1 0x20 PUSH1 0x0 KECCAK256 SWAP1 PUSH1 0x5 MUL ADD PUSH1 0x40 MLOAD DUP1 PUSH1 0xA0 ADD PUSH1 0x40 MSTORE SWAP1 DUP2 PUSH1 0x0 DUP3 ADD PUSH1 0x0 SWAP1 SLOAD SWAP1 PUSH2 0x100 EXP SWAP1 DIV PUSH20 0xFFFFFFFFFFFFFFFFFFFFFFFFFFFFFFFFFFFFFFFF AND PUSH20 0xFFFFFFFFFFFFFFFFFFFFFFFFFFFFFFFFFFFFFFFF AND PUSH20 0xFFFFFFFFFFFFFFFFFFFFFFFFFFFFFFFFFFFFFFFF AND DUP2 MSTORE PUSH1 0x20 ADD PUSH1 0x1 DUP3 ADD DUP1 SLOAD PUSH2 0x3CE SWAP1 PUSH2 0x10ED JUMP JUMPDEST DUP1 PUSH1 0x1F ADD PUSH1 0x20 DUP1 SWAP2 DIV MUL PUSH1 0x20 ADD PUSH1 0x40 MLOAD SWAP1 DUP2 ADD PUSH1 0x40 MSTORE DUP1 SWAP3 SWAP2 SWAP1 DUP2 DUP2 MSTORE PUSH1 0x20 ADD DUP3 DUP1 SLOAD PUSH2 0x3FA SWAP1 PUSH2 0x10ED JUMP JUMPDEST DUP1 ISZERO PUSH2 0x447 JUMPI DUP1 PUSH1 0x1F LT PUSH2 0x41C JUMPI PUSH2 0x100 DUP1 DUP4 SLOAD DIV MUL DUP4 MSTORE SWAP2 PUSH1 0x20 ADD SWAP2 PUSH2 0x447 JUMP JUMPDEST DUP3 ADD SWAP2 SWAP1 PUSH1 0x0 MSTORE PUSH1 0x20 PUSH1 0x0 KECCAK256 SWAP1 JUMPDEST DUP2 SLOAD DUP2 MSTORE SWAP1 PUSH1 0x1 ADD SWAP1 PUSH1 0x20 ADD DUP1 DUP4 GT PUSH2 0x42A JUMPI DUP3 SWAP1 SUB PUSH1 0x1F AND DUP3 ADD SWAP2 JUMPDEST POP POP POP POP POP DUP2 MSTORE PUSH1 0x20 ADD PUSH1 0x2 DUP3 ADD DUP1 SLOAD PUSH2 0x460 SWAP1 PUSH2 0x10ED JUMP JUMPDEST DUP1 PUSH1 0x1F ADD PUSH1 0x20 DUP1 SWAP2 DIV MUL PUSH1 0x20 ADD PUSH1 0x40 MLOAD SWAP1 DUP2 ADD PUSH1 0x40 MSTORE DUP1 SWAP3 SWAP2 SWAP1 DUP2 DUP2 MSTORE PUSH1 0x20 ADD DUP3 DUP1 SLOAD PUSH2 0x48C SWAP1 PUSH2 0x10ED JUMP JUMPDEST DUP1 ISZERO PUSH2 0x4D9 JUMPI DUP1 PUSH1 0x1F LT PUSH2 0x4AE JUMPI PUSH2 0x100 DUP1 DUP4 SLOAD DIV MUL DUP4 MSTORE SWAP2 PUSH1 0x20 ADD SWAP2 PUSH2 0x4D9 JUMP JUMPDEST DUP3 ADD SWAP2 SWAP1 PUSH1 0x0 MSTORE PUSH1 0x20 PUSH1 0x0 KECCAK256 SWAP1 JUMPDEST DUP2 SLOAD DUP2 MSTORE SWAP1 PUSH1 0x1 ADD SWAP1 PUSH1 0x20 ADD DUP1 DUP4 GT PUSH2 0x4BC JUMPI DUP3 SWAP1 SUB PUSH1 0x1F AND DUP3 ADD SWAP2 JUMPDEST POP POP POP POP POP DUP2 MSTORE PUSH1 0x20 ADD PUSH1 0x3 DUP3 ADD DUP1 SLOAD PUSH2 0x4F2 SWAP1 PUSH2 0x10ED JUMP JUMPDEST DUP1 PUSH1 0x1F ADD PUSH1 0x20 DUP1 SWAP2 DIV MUL PUSH1 0x20 ADD PUSH1 0x40 MLOAD SWAP1 DUP2 ADD PUSH1 0x40 MSTORE DUP1 SWAP3 SWAP2 SWAP1 DUP2 DUP2 MSTORE PUSH1 0x20 ADD DUP3 DUP1 SLOAD PUSH2 0x51E SWAP1 PUSH2 0x10ED JUMP JUMPDEST DUP1 ISZERO PUSH2 0x56B JUMPI DUP1 PUSH1 0x1F LT PUSH2 0x540 JUMPI PUSH2 0x100 DUP1 DUP4 SLOAD DIV MUL DUP4 MSTORE SWAP2 PUSH1 0x20 ADD SWAP2 PUSH2 0x56B JUMP JUMPDEST DUP3 ADD SWAP2 SWAP1 PUSH1 0x0 MSTORE PUSH1 0x20 PUSH1 0x0 KECCAK256 SWAP1 JUMPDEST DUP2 SLOAD DUP2 MSTORE SWAP1 PUSH1 0x1 ADD SWAP1 PUSH1 0x20 ADD DUP1 DUP4 GT PUSH2 0x54E JUMPI DUP3 SWAP1 SUB PUSH1 0x1F AND DUP3 ADD SWAP2 JUMPDEST POP POP POP POP POP DUP2 MSTORE PUSH1 0x20 ADD PUSH1 0x4 DUP3 ADD DUP1 SLOAD PUSH2 0x584 SWAP1 PUSH2 0x10ED JUMP JUMPDEST DUP1 PUSH1 0x1F ADD PUSH1 0x20 DUP1 SWAP2 DIV MUL PUSH1 0x20 ADD PUSH1 0x40 MLOAD SWAP1 DUP2 ADD PUSH1 0x40 MSTORE DUP1 SWAP3 SWAP2 SWAP1 DUP2 DUP2 MSTORE PUSH1 0x20 ADD DUP3 DUP1 SLOAD PUSH2 0x5B0 SWAP1 PUSH2 0x10ED JUMP JUMPDEST DUP1 ISZERO PUSH2 0x5FD JUMPI DUP1 PUSH1 0x1F LT PUSH2 0x5D2 JUMPI PUSH2 0x100 DUP1 DUP4 SLOAD DIV MUL DUP4 MSTORE SWAP2 PUSH1 0x20 ADD SWAP2 PUSH2 0x5FD JUMP JUMPDEST DUP3 ADD SWAP2 SWAP1 PUSH1 0x0 MSTORE PUSH1 0x20 PUSH1 0x0 KECCAK256 SWAP1 JUMPDEST DUP2 SLOAD DUP2 MSTORE SWAP1 PUSH1 0x1 ADD SWAP1 PUSH1 0x20 ADD DUP1 DUP4 GT PUSH2 0x5E0 JUMPI DUP3 SWAP1 SUB PUSH1 0x1F AND DUP3 ADD SWAP2 JUMPDEST POP POP POP POP POP DUP2 MSTORE POP POP DUP2 MSTORE PUSH1 0x20 ADD SWAP1 PUSH1 0x1 ADD SWAP1 PUSH2 0x345 JUMP JUMPDEST POP POP POP POP SWAP1 POP SWAP1 JUMP JUMPDEST DUP1 PUSH1 0x2 DUP4 DUP2 SLOAD DUP2 LT PUSH2 0x633 JUMPI PUSH2 0x632 PUSH2 0x139C JUMP JUMPDEST JUMPDEST SWAP1 PUSH1 0x0 MSTORE PUSH1 0x20 PUSH1 0x0 KECCAK256 SWAP1 PUSH1 0x5 MUL ADD PUSH1 0x0 DUP3 ADD MLOAD DUP2 PUSH1 0x0 ADD PUSH1 0x0 PUSH2 0x100 EXP DUP2 SLOAD DUP2 PUSH20 0xFFFFFFFFFFFFFFFFFFFFFFFFFFFFFFFFFFFFFFFF MUL NOT AND SWAP1 DUP4 PUSH20 0xFFFFFFFFFFFFFFFFFFFFFFFFFFFFFFFFFFFFFFFF AND MUL OR SWAP1 SSTORE POP PUSH1 0x20 DUP3 ADD MLOAD DUP2 PUSH1 0x1 ADD SWAP1 DUP2 PUSH2 0x69D SWAP2 SWAP1 PUSH2 0x12CA JUMP JUMPDEST POP PUSH1 0x40 DUP3 ADD MLOAD DUP2 PUSH1 0x2 ADD SWAP1 DUP2 PUSH2 0x6B3 SWAP2 SWAP1 PUSH2 0x12CA JUMP JUMPDEST POP PUSH1 0x60 DUP3 ADD MLOAD DUP2 PUSH1 0x3 ADD SWAP1 DUP2 PUSH2 0x6C9 SWAP2 SWAP1 PUSH2 0x12CA JUMP JUMPDEST POP PUSH1 0x80 DUP3 ADD MLOAD DUP2 PUSH1 0x4 ADD SWAP1 DUP2 PUSH2 0x6DF SWAP2 SWAP1 PUSH2 0x12CA JUMP JUMPDEST POP SWAP1 POP POP POP POP JUMP JUMPDEST DUP1 PUSH1 0x0 DUP1 PUSH2 0x100 EXP DUP2 SLOAD DUP2 PUSH20 0xFFFFFFFFFFFFFFFFFFFFFFFFFFFFFFFFFFFFFFFF MUL NOT AND SWAP1 DUP4 PUSH20 0xFFFFFFFFFFFFFFFFFFFFFFFFFFFFFFFFFFFFFFFF AND MUL OR SWAP1 SSTORE POP POP JUMP JUMPDEST PUSH1 0x3 DUP2 DUP2 SLOAD DUP2 LT PUSH2 0x73E JUMPI PUSH2 0x73D PUSH2 0x139C JUMP JUMPDEST JUMPDEST SWAP1 PUSH1 0x0 MSTORE PUSH1 0x20 PUSH1 0x0 KECCAK256 SWAP1 PUSH1 0x5 MUL ADD PUSH1 0x0 DUP1 DUP3 ADD PUSH1 0x0 PUSH2 0x100 EXP DUP2 SLOAD SWAP1 PUSH20 0xFFFFFFFFFFFFFFFFFFFFFFFFFFFFFFFFFFFFFFFF MUL NOT AND SWAP1 SSTORE PUSH1 0x1 DUP3 ADD PUSH1 0x0 PUSH2 0x784 SWAP2 SWAP1 PUSH2 0x95C JUMP JUMPDEST PUSH1 0x2 DUP3 ADD PUSH1 0x0 PUSH2 0x794 SWAP2 SWAP1 PUSH2 0x95C JUMP JUMPDEST PUSH1 0x3 DUP3 ADD PUSH1 0x0 PUSH2 0x7A4 SWAP2 SWAP1 PUSH2 0x95C JUMP JUMPDEST PUSH1 0x4 DUP3 ADD PUSH1 0x0 PUSH2 0x7B4 SWAP2 SWAP1 PUSH2 0x95C JUMP JUMPDEST POP POP POP JUMP JUMPDEST PUSH1 0x2 DUP2 DUP2 SLOAD DUP2 LT PUSH2 0x7CD JUMPI PUSH2 0x7CC PUSH2 0x139C JUMP JUMPDEST JUMPDEST SWAP1 PUSH1 0x0 MSTORE PUSH1 0x20 PUSH1 0x0 KECCAK256 SWAP1 PUSH1 0x5 MUL ADD PUSH1 0x0 DUP1 DUP3 ADD PUSH1 0x0 PUSH2 0x100 EXP DUP2 SLOAD SWAP1 PUSH20 0xFFFFFFFFFFFFFFFFFFFFFFFFFFFFFFFFFFFFFFFF MUL NOT AND SWAP1 SSTORE PUSH1 0x1 DUP3 ADD PUSH1 0x0 PUSH2 0x813 SWAP2 SWAP1 PUSH2 0x95C JUMP JUMPDEST PUSH1 0x2 DUP3 ADD PUSH1 0x0 PUSH2 0x823 SWAP2 SWAP1 PUSH2 0x95C JUMP JUMPDEST PUSH1 0x3 DUP3 ADD PUSH1 0x0 PUSH2 0x833 SWAP2 SWAP1 PUSH2 0x95C JUMP JUMPDEST PUSH1 0x4 DUP3 ADD PUSH1 0x0 PUSH2 0x843 SWAP2 SWAP1 PUSH2 0x95C JUMP JUMPDEST POP POP POP JUMP JUMPDEST DUP1 PUSH1 0x1 PUSH1 0x0 PUSH2 0x100 EXP DUP2 SLOAD DUP2 PUSH20 0xFFFFFFFFFFFFFFFFFFFFFFFFFFFFFFFFFFFFFFFF MUL NOT AND SWAP1 DUP4 PUSH20 0xFFFFFFFFFFFFFFFFFFFFFFFFFFFFFFFFFFFFFFFF AND MUL OR SWAP1 SSTORE POP POP JUMP JUMPDEST PUSH1 0x3 DUP2 SWAP1 DUP1 PUSH1 0x1 DUP2 SLOAD ADD DUP1 DUP3 SSTORE DUP1 SWAP2 POP POP PUSH1 0x1 SWAP1 SUB SWAP1 PUSH1 0x0 MSTORE PUSH1 0x20 PUSH1 0x0 KECCAK256 SWAP1 PUSH1 0x5 MUL ADD PUSH1 0x0 SWAP1 SWAP2 SWAP1 SWAP2 SWAP1 SWAP2 POP PUSH1 0x0 DUP3 ADD MLOAD DUP2 PUSH1 0x0 ADD PUSH1 0x0 PUSH2 0x100 EXP DUP2 SLOAD DUP2 PUSH20 0xFFFFFFFFFFFFFFFFFFFFFFFFFFFFFFFFFFFFFFFF MUL NOT AND SWAP1 DUP4 PUSH20 0xFFFFFFFFFFFFFFFFFFFFFFFFFFFFFFFFFFFFFFFF AND MUL OR SWAP1 SSTORE POP PUSH1 0x20 DUP3 ADD MLOAD DUP2 PUSH1 0x1 ADD SWAP1 DUP2 PUSH2 0x914 SWAP2 SWAP1 PUSH2 0x12CA JUMP JUMPDEST POP PUSH1 0x40 DUP3 ADD MLOAD DUP2 PUSH1 0x2 ADD SWAP1 DUP2 PUSH2 0x92A SWAP2 SWAP1 PUSH2 0x12CA JUMP JUMPDEST POP PUSH1 0x60 DUP3 ADD MLOAD DUP2 PUSH1 0x3 ADD SWAP1 DUP2 PUSH2 0x940 SWAP2 SWAP1 PUSH2 0x12CA JUMP JUMPDEST POP PUSH1 0x80 DUP3 ADD MLOAD DUP2 PUSH1 0x4 ADD SWAP1 DUP2 PUSH2 0x956 SWAP2 SWAP1 PUSH2 0x12CA JUMP JUMPDEST POP POP POP POP JUMP JUMPDEST POP DUP1 SLOAD PUSH2 0x968 SWAP1 PUSH2 0x10ED JUMP JUMPDEST PUSH1 0x0 DUP3 SSTORE DUP1 PUSH1 0x1F LT PUSH2 0x97A JUMPI POP PUSH2 0x999 JUMP JUMPDEST PUSH1 0x1F ADD PUSH1 0x20 SWAP1 DIV SWAP1 PUSH1 0x0 MSTORE PUSH1 0x20 PUSH1 0x0 KECCAK256 SWAP1 DUP2 ADD SWAP1 PUSH2 0x998 SWAP2 SWAP1 PUSH2 0x99C JUMP JUMPDEST JUMPDEST POP JUMP JUMPDEST JUMPDEST DUP1 DUP3 GT ISZERO PUSH2 0x9B5 JUMPI PUSH1 0x0 DUP2 PUSH1 0x0 SWAP1 SSTORE POP PUSH1 0x1 ADD PUSH2 0x99D JUMP JUMPDEST POP SWAP1 JUMP JUMPDEST PUSH1 0x0 PUSH20 0xFFFFFFFFFFFFFFFFFFFFFFFFFFFFFFFFFFFFFFFF DUP3 AND SWAP1 POP SWAP2 SWAP1 POP JUMP JUMPDEST PUSH1 0x0 PUSH2 0x9E4 DUP3 PUSH2 0x9B9 JUMP JUMPDEST SWAP1 POP SWAP2 SWAP1 POP JUMP JUMPDEST PUSH2 0x9F4 DUP2 PUSH2 0x9D9 JUMP JUMPDEST DUP3 MSTORE POP POP JUMP JUMPDEST PUSH1 0x0 PUSH1 0x20 DUP3 ADD SWAP1 POP PUSH2 0xA0F PUSH1 0x0 DUP4 ADD DUP5 PUSH2 0x9EB JUMP JUMPDEST SWAP3 SWAP2 POP POP JUMP JUMPDEST PUSH1 0x0 PUSH1 0x40 MLOAD SWAP1 POP SWAP1 JUMP JUMPDEST PUSH1 0x0 DUP1 REVERT JUMPDEST PUSH1 0x0 DUP1 REVERT JUMPDEST PUSH2 0xA32 DUP2 PUSH2 0x9D9 JUMP JUMPDEST DUP2 EQ PUSH2 0xA3D JUMPI PUSH1 0x0 DUP1 REVERT JUMPDEST POP JUMP JUMPDEST PUSH1 0x0 DUP2 CALLDATALOAD SWAP1 POP PUSH2 0xA4F DUP2 PUSH2 0xA29 JUMP JUMPDEST SWAP3 SWAP2 POP POP JUMP JUMPDEST PUSH1 0x0 DUP1 REVERT JUMPDEST PUSH1 0x0 DUP1 REVERT JUMPDEST PUSH1 0x0 PUSH1 0x1F NOT PUSH1 0x1F DUP4 ADD AND SWAP1 POP SWAP2 SWAP1 POP JUMP JUMPDEST PUSH32 0x4E487B7100000000000000000000000000000000000000000000000000000000 PUSH1 0x0 MSTORE PUSH1 0x41 PUSH1 0x4 MSTORE PUSH1 0x24 PUSH1 0x0 REVERT JUMPDEST PUSH2 0xAA8 DUP3 PUSH2 0xA5F JUMP JUMPDEST DUP2 ADD DUP2 DUP2 LT PUSH8 0xFFFFFFFFFFFFFFFF DUP3 GT OR ISZERO PUSH2 0xAC7 JUMPI PUSH2 0xAC6 PUSH2 0xA70 JUMP JUMPDEST JUMPDEST DUP1 PUSH1 0x40 MSTORE POP POP POP JUMP JUMPDEST PUSH1 0x0 PUSH2 0xADA PUSH2 0xA15 JUMP JUMPDEST SWAP1 POP PUSH2 0xAE6 DUP3 DUP3 PUSH2 0xA9F JUMP JUMPDEST SWAP2 SWAP1 POP JUMP JUMPDEST PUSH1 0x0 PUSH8 0xFFFFFFFFFFFFFFFF DUP3 GT ISZERO PUSH2 0xB06 JUMPI PUSH2 0xB05 PUSH2 0xA70 JUMP JUMPDEST JUMPDEST PUSH2 0xB0F DUP3 PUSH2 0xA5F JUMP JUMPDEST SWAP1 POP PUSH1 0x20 DUP2 ADD SWAP1 POP SWAP2 SWAP1 POP JUMP JUMPDEST DUP3 DUP2 DUP4 CALLDATACOPY PUSH1 0x0 DUP4 DUP4 ADD MSTORE POP POP POP JUMP JUMPDEST PUSH1 0x0 PUSH2 0xB3E PUSH2 0xB39 DUP5 PUSH2 0xAEB JUMP JUMPDEST PUSH2 0xAD0 JUMP JUMPDEST SWAP1 POP DUP3 DUP2 MSTORE PUSH1 0x20 DUP2 ADD DUP5 DUP5 DUP5 ADD GT ISZERO PUSH2 0xB5A JUMPI PUSH2 0xB59 PUSH2 0xA5A JUMP JUMPDEST JUMPDEST PUSH2 0xB65 DUP5 DUP3 DUP6 PUSH2 0xB1C JUMP JUMPDEST POP SWAP4 SWAP3 POP POP POP JUMP JUMPDEST PUSH1 0x0 DUP3 PUSH1 0x1F DUP4 ADD SLT PUSH2 0xB82 JUMPI PUSH2 0xB81 PUSH2 0xA55 JUMP JUMPDEST JUMPDEST DUP2 CALLDATALOAD PUSH2 0xB92 DUP5 DUP3 PUSH1 0x20 DUP7 ADD PUSH2 0xB2B JUMP JUMPDEST SWAP2 POP POP SWAP3 SWAP2 POP POP JUMP JUMPDEST PUSH1 0x0 DUP1 PUSH1 0x0 DUP1 PUSH1 0x0 PUSH1 0xA0 DUP7 DUP9 SUB SLT ISZERO PUSH2 0xBB7 JUMPI PUSH2 0xBB6 PUSH2 0xA1F JUMP JUMPDEST JUMPDEST PUSH1 0x0 PUSH2 0xBC5 DUP9 DUP3 DUP10 ADD PUSH2 0xA40 JUMP JUMPDEST SWAP6 POP POP PUSH1 0x20 DUP7 ADD CALLDATALOAD PUSH8 0xFFFFFFFFFFFFFFFF DUP2 GT ISZERO PUSH2 0xBE6 JUMPI PUSH2 0xBE5 PUSH2 0xA24 JUMP JUMPDEST JUMPDEST PUSH2 0xBF2 DUP9 DUP3 DUP10 ADD PUSH2 0xB6D JUMP JUMPDEST SWAP5 POP POP PUSH1 0x40 DUP7 ADD CALLDATALOAD PUSH8 0xFFFFFFFFFFFFFFFF DUP2 GT ISZERO PUSH2 0xC13 JUMPI PUSH2 0xC12 PUSH2 0xA24 JUMP JUMPDEST JUMPDEST PUSH2 0xC1F DUP9 DUP3 DUP10 ADD PUSH2 0xB6D JUMP JUMPDEST SWAP4 POP POP PUSH1 0x60 DUP7 ADD CALLDATALOAD PUSH8 0xFFFFFFFFFFFFFFFF DUP2 GT ISZERO PUSH2 0xC40 JUMPI PUSH2 0xC3F PUSH2 0xA24 JUMP JUMPDEST JUMPDEST PUSH2 0xC4C DUP9 DUP3 DUP10 ADD PUSH2 0xB6D JUMP JUMPDEST SWAP3 POP POP PUSH1 0x80 DUP7 ADD CALLDATALOAD PUSH8 0xFFFFFFFFFFFFFFFF DUP2 GT ISZERO PUSH2 0xC6D JUMPI PUSH2 0xC6C PUSH2 0xA24 JUMP JUMPDEST JUMPDEST PUSH2 0xC79 DUP9 DUP3 DUP10 ADD PUSH2 0xB6D JUMP JUMPDEST SWAP2 POP POP SWAP3 SWAP6 POP SWAP3 SWAP6 SWAP1 SWAP4 POP JUMP JUMPDEST PUSH1 0x0 DUP2 MLOAD SWAP1 POP SWAP2 SWAP1 POP JUMP JUMPDEST PUSH1 0x0 DUP3 DUP3 MSTORE PUSH1 0x20 DUP3 ADD SWAP1 POP SWAP3 SWAP2 POP POP JUMP JUMPDEST PUSH1 0x0 DUP2 SWAP1 POP PUSH1 0x20 DUP3 ADD SWAP1 POP SWAP2 SWAP1 POP JUMP JUMPDEST PUSH2 0xCBB DUP2 PUSH2 0x9D9 JUMP JUMPDEST DUP3 MSTORE POP POP JUMP JUMPDEST PUSH1 0x0 DUP2 MLOAD SWAP1 POP SWAP2 SWAP1 POP JUMP JUMPDEST PUSH1 0x0 DUP3 DUP3 MSTORE PUSH1 0x20 DUP3 ADD SWAP1 POP SWAP3 SWAP2 POP POP JUMP JUMPDEST PUSH1 0x0 JUMPDEST DUP4 DUP2 LT ISZERO PUSH2 0xCFB JUMPI DUP1 DUP3 ADD MLOAD DUP2 DUP5 ADD MSTORE PUSH1 0x20 DUP2 ADD SWAP1 POP PUSH2 0xCE0 JUMP JUMPDEST PUSH1 0x0 DUP5 DUP5 ADD MSTORE POP POP POP POP JUMP JUMPDEST PUSH1 0x0 PUSH2 0xD12 DUP3 PUSH2 0xCC1 JUMP JUMPDEST PUSH2 0xD1C DUP2 DUP6 PUSH2 0xCCC JUMP JUMPDEST SWAP4 POP PUSH2 0xD2C DUP2 DUP6 PUSH1 0x20 DUP7 ADD PUSH2 0xCDD JUMP JUMPDEST PUSH2 0xD35 DUP2 PUSH2 0xA5F JUMP JUMPDEST DUP5 ADD SWAP2 POP POP SWAP3 SWAP2 POP POP JUMP JUMPDEST PUSH1 0x0 PUSH1 0xA0 DUP4 ADD PUSH1 0x0 DUP4 ADD MLOAD PUSH2 0xD58 PUSH1 0x0 DUP7 ADD DUP3 PUSH2 0xCB2 JUMP JUMPDEST POP PUSH1 0x20 DUP4 ADD MLOAD DUP5 DUP3 SUB PUSH1 0x20 DUP7 ADD MSTORE PUSH2 0xD70 DUP3 DUP3 PUSH2 0xD07 JUMP JUMPDEST SWAP2 POP POP PUSH1 0x40 DUP4 ADD MLOAD DUP5 DUP3 SUB PUSH1 0x40 DUP7 ADD MSTORE PUSH2 0xD8A DUP3 DUP3 PUSH2 0xD07 JUMP JUMPDEST SWAP2 POP POP PUSH1 0x60 DUP4 ADD MLOAD DUP5 DUP3 SUB PUSH1 0x60 DUP7 ADD MSTORE PUSH2 0xDA4 DUP3 DUP3 PUSH2 0xD07 JUMP JUMPDEST SWAP2 POP POP PUSH1 0x80 DUP4 ADD MLOAD DUP5 DUP3 SUB PUSH1 0x80 DUP7 ADD MSTORE PUSH2 0xDBE DUP3 DUP3 PUSH2 0xD07 JUMP JUMPDEST SWAP2 POP POP DUP1 SWAP2 POP POP SWAP3 SWAP2 POP POP JUMP JUMPDEST PUSH1 0x0 PUSH2 0xDD7 DUP4 DUP4 PUSH2 0xD40 JUMP JUMPDEST SWAP1 POP SWAP3 SWAP2 POP POP JUMP JUMPDEST PUSH1 0x0 PUSH1 0x20 DUP3 ADD SWAP1 POP SWAP2 SWAP1 POP JUMP JUMPDEST PUSH1 0x0 PUSH2 0xDF7 DUP3 PUSH2 0xC86 JUMP JUMPDEST PUSH2 0xE01 DUP2 DUP6 PUSH2 0xC91 JUMP JUMPDEST SWAP4 POP DUP4 PUSH1 0x20 DUP3 MUL DUP6 ADD PUSH2 0xE13 DUP6 PUSH2 0xCA2 JUMP JUMPDEST DUP1 PUSH1 0x0 JUMPDEST DUP6 DUP2 LT ISZERO PUSH2 0xE4F JUMPI DUP5 DUP5 SUB DUP10 MSTORE DUP2 MLOAD PUSH2 0xE30 DUP6 DUP3 PUSH2 0xDCB JUMP JUMPDEST SWAP5 POP PUSH2 0xE3B DUP4 PUSH2 0xDDF JUMP JUMPDEST SWAP3 POP PUSH1 0x20 DUP11 ADD SWAP10 POP POP PUSH1 0x1 DUP2 ADD SWAP1 POP PUSH2 0xE17 JUMP JUMPDEST POP DUP3 SWAP8 POP DUP8 SWAP6 POP POP POP POP POP POP SWAP3 SWAP2 POP POP JUMP JUMPDEST PUSH1 0x0 PUSH1 0x20 DUP3 ADD SWAP1 POP DUP2 DUP2 SUB PUSH1 0x0 DUP4 ADD MSTORE PUSH2 0xE7B DUP2 DUP5 PUSH2 0xDEC JUMP JUMPDEST SWAP1 POP SWAP3 SWAP2 POP POP JUMP JUMPDEST PUSH1 0x0 DUP2 SWAP1 POP SWAP2 SWAP1 POP JUMP JUMPDEST PUSH2 0xE96 DUP2 PUSH2 0xE83 JUMP JUMPDEST DUP2 EQ PUSH2 0xEA1 JUMPI PUSH1 0x0 DUP1 REVERT JUMPDEST POP JUMP JUMPDEST PUSH1 0x0 DUP2 CALLDATALOAD SWAP1 POP PUSH2 0xEB3 DUP2 PUSH2 0xE8D JUMP JUMPDEST SWAP3 SWAP2 POP POP JUMP JUMPDEST PUSH1 0x0 DUP1 REVERT JUMPDEST PUSH1 0x0 DUP1 REVERT JUMPDEST PUSH1 0x0 PUSH1 0xA0 DUP3 DUP5 SUB SLT ISZERO PUSH2 0xED9 JUMPI PUSH2 0xED8 PUSH2 0xEB9 JUMP JUMPDEST JUMPDEST PUSH2 0xEE3 PUSH1 0xA0 PUSH2 0xAD0 JUMP JUMPDEST SWAP1 POP PUSH1 0x0 PUSH2 0xEF3 DUP5 DUP3 DUP6 ADD PUSH2 0xA40 JUMP JUMPDEST PUSH1 0x0 DUP4 ADD MSTORE POP PUSH1 0x20 DUP3 ADD CALLDATALOAD PUSH8 0xFFFFFFFFFFFFFFFF DUP2 GT ISZERO PUSH2 0xF17 JUMPI PUSH2 0xF16 PUSH2 0xEBE JUMP JUMPDEST JUMPDEST PUSH2 0xF23 DUP5 DUP3 DUP6 ADD PUSH2 0xB6D JUMP JUMPDEST PUSH1 0x20 DUP4 ADD MSTORE POP PUSH1 0x40 DUP3 ADD CALLDATALOAD PUSH8 0xFFFFFFFFFFFFFFFF DUP2 GT ISZERO PUSH2 0xF47 JUMPI PUSH2 0xF46 PUSH2 0xEBE JUMP JUMPDEST JUMPDEST PUSH2 0xF53 DUP5 DUP3 DUP6 ADD PUSH2 0xB6D JUMP JUMPDEST PUSH1 0x40 DUP4 ADD MSTORE POP PUSH1 0x60 DUP3 ADD CALLDATALOAD PUSH8 0xFFFFFFFFFFFFFFFF DUP2 GT ISZERO PUSH2 0xF77 JUMPI PUSH2 0xF76 PUSH2 0xEBE JUMP JUMPDEST JUMPDEST PUSH2 0xF83 DUP5 DUP3 DUP6 ADD PUSH2 0xB6D JUMP JUMPDEST PUSH1 0x60 DUP4 ADD MSTORE POP PUSH1 0x80 DUP3 ADD CALLDATALOAD PUSH8 0xFFFFFFFFFFFFFFFF DUP2 GT ISZERO PUSH2 0xFA7 JUMPI PUSH2 0xFA6 PUSH2 0xEBE JUMP JUMPDEST JUMPDEST PUSH2 0xFB3 DUP5 DUP3 DUP6 ADD PUSH2 0xB6D JUMP JUMPDEST PUSH1 0x80 DUP4 ADD MSTORE POP SWAP3 SWAP2 POP POP JUMP JUMPDEST PUSH1 0x0 DUP1 PUSH1 0x40 DUP4 DUP6 SUB SLT ISZERO PUSH2 0xFD6 JUMPI PUSH2 0xFD5 PUSH2 0xA1F JUMP JUMPDEST JUMPDEST PUSH1 0x0 PUSH2 0xFE4 DUP6 DUP3 DUP7 ADD PUSH2 0xEA4 JUMP JUMPDEST SWAP3 POP POP PUSH1 0x20 DUP4 ADD CALLDATALOAD PUSH8 0xFFFFFFFFFFFFFFFF DUP2 GT ISZERO PUSH2 0x1005 JUMPI PUSH2 0x1004 PUSH2 0xA24 JUMP JUMPDEST JUMPDEST PUSH2 0x1011 DUP6 DUP3 DUP7 ADD PUSH2 0xEC3 JUMP JUMPDEST SWAP2 POP POP SWAP3 POP SWAP3 SWAP1 POP JUMP JUMPDEST PUSH1 0x0 PUSH1 0x20 DUP3 DUP5 SUB SLT ISZERO PUSH2 0x1031 JUMPI PUSH2 0x1030 PUSH2 0xA1F JUMP JUMPDEST JUMPDEST PUSH1 0x0 PUSH2 0x103F DUP5 DUP3 DUP6 ADD PUSH2 0xA40 JUMP JUMPDEST SWAP2 POP POP SWAP3 SWAP2 POP POP JUMP JUMPDEST PUSH1 0x0 PUSH1 0x20 DUP3 DUP5 SUB SLT ISZERO PUSH2 0x105E JUMPI PUSH2 0x105D PUSH2 0xA1F JUMP JUMPDEST JUMPDEST PUSH1 0x0 PUSH2 0x106C DUP5 DUP3 DUP6 ADD PUSH2 0xEA4 JUMP JUMPDEST SWAP2 POP POP SWAP3 SWAP2 POP POP JUMP JUMPDEST PUSH1 0x0 PUSH1 0x20 DUP3 DUP5 SUB SLT ISZERO PUSH2 0x108B JUMPI PUSH2 0x108A PUSH2 0xA1F JUMP JUMPDEST JUMPDEST PUSH1 0x0 DUP3 ADD CALLDATALOAD PUSH8 0xFFFFFFFFFFFFFFFF DUP2 GT ISZERO PUSH2 0x10A9 JUMPI PUSH2 0x10A8 PUSH2 0xA24 JUMP JUMPDEST JUMPDEST PUSH2 0x10B5 DUP5 DUP3 DUP6 ADD PUSH2 0xEC3 JUMP JUMPDEST SWAP2 POP POP SWAP3 SWAP2 POP POP JUMP JUMPDEST PUSH32 0x4E487B7100000000000000000000000000000000000000000000000000000000 PUSH1 0x0 MSTORE PUSH1 0x22 PUSH1 0x4 MSTORE PUSH1 0x24 PUSH1 0x0 REVERT JUMPDEST PUSH1 0x0 PUSH1 0x2 DUP3 DIV SWAP1 POP PUSH1 0x1 DUP3 AND DUP1 PUSH2 0x1105 JUMPI PUSH1 0x7F DUP3 AND SWAP2 POP JUMPDEST PUSH1 0x20 DUP3 LT DUP2 SUB PUSH2 0x1118 JUMPI PUSH2 0x1117 PUSH2 0x10BE JUMP JUMPDEST JUMPDEST POP SWAP2 SWAP1 POP JUMP JUMPDEST PUSH1 0x0 DUP2 SWAP1 POP DUP2 PUSH1 0x0 MSTORE PUSH1 0x20 PUSH1 0x0 KECCAK256 SWAP1 POP SWAP2 SWAP1 POP JUMP JUMPDEST PUSH1 0x0 PUSH1 0x20 PUSH1 0x1F DUP4 ADD DIV SWAP1 POP SWAP2 SWAP1 POP JUMP JUMPDEST PUSH1 0x0 DUP3 DUP3 SHL SWAP1 POP SWAP3 SWAP2 POP POP JUMP JUMPDEST PUSH1 0x0 PUSH1 0x8 DUP4 MUL PUSH2 0x1180 PUSH32 0xFFFFFFFFFFFFFFFFFFFFFFFFFFFFFFFFFFFFFFFFFFFFFFFFFFFFFFFFFFFFFFFF DUP3 PUSH2 0x1143 JUMP JUMPDEST PUSH2 0x118A DUP7 DUP4 PUSH2 0x1143 JUMP JUMPDEST SWAP6 POP DUP1 NOT DUP5 AND SWAP4 POP DUP1 DUP7 AND DUP5 OR SWAP3 POP POP POP SWAP4 SWAP3 POP POP POP JUMP JUMPDEST PUSH1 0x0 DUP2 SWAP1 POP SWAP2 SWAP1 POP JUMP JUMPDEST PUSH1 0x0 PUSH2 0x11C7 PUSH2 0x11C2 PUSH2 0x11BD DUP5 PUSH2 0xE83 JUMP JUMPDEST PUSH2 0x11A2 JUMP JUMPDEST PUSH2 0xE83 JUMP JUMPDEST SWAP1 POP SWAP2 SWAP1 POP JUMP JUMPDEST PUSH1 0x0 DUP2 SWAP1 POP SWAP2 SWAP1 POP JUMP JUMPDEST PUSH2 0x11E1 DUP4 PUSH2 0x11AC JUMP JUMPDEST PUSH2 0x11F5 PUSH2 0x11ED DUP3 PUSH2 0x11CE JUMP JUMPDEST DUP5 DUP5 SLOAD PUSH2 0x1150 JUMP JUMPDEST DUP3 SSTORE POP POP POP POP JUMP JUMPDEST PUSH1 0x0 SWAP1 JUMP JUMPDEST PUSH2 0x120A PUSH2 0x11FD JUMP JUMPDEST PUSH2 0x1215 DUP2 DUP5 DUP5 PUSH2 0x11D8 JUMP JUMPDEST POP POP POP JUMP JUMPDEST JUMPDEST DUP2 DUP2 LT ISZERO PUSH2 0x1239 JUMPI PUSH2 0x122E PUSH1 0x0 DUP3 PUSH2 0x1202 JUMP JUMPDEST PUSH1 0x1 DUP2 ADD SWAP1 POP PUSH2 0x121B JUMP JUMPDEST POP POP JUMP JUMPDEST PUSH1 0x1F DUP3 GT ISZERO PUSH2 0x127E JUMPI PUSH2 0x124F DUP2 PUSH2 0x111E JUMP JUMPDEST PUSH2 0x1258 DUP5 PUSH2 0x1133 JUMP JUMPDEST DUP2 ADD PUSH1 0x20 DUP6 LT ISZERO PUSH2 0x1267 JUMPI DUP2 SWAP1 POP JUMPDEST PUSH2 0x127B PUSH2 0x1273 DUP6 PUSH2 0x1133 JUMP JUMPDEST DUP4 ADD DUP3 PUSH2 0x121A JUMP JUMPDEST POP POP JUMPDEST POP POP POP JUMP JUMPDEST PUSH1 0x0 DUP3 DUP3 SHR SWAP1 POP SWAP3 SWAP2 POP POP JUMP JUMPDEST PUSH1 0x0 PUSH2 0x12A1 PUSH1 0x0 NOT DUP5 PUSH1 0x8 MUL PUSH2 0x1283 JUMP JUMPDEST NOT DUP1 DUP4 AND SWAP2 POP POP SWAP3 SWAP2 POP POP JUMP JUMPDEST PUSH1 0x0 PUSH2 0x12BA DUP4 DUP4 PUSH2 0x1290 JUMP JUMPDEST SWAP2 POP DUP3 PUSH1 0x2 MUL DUP3 OR SWAP1 POP SWAP3 SWAP2 POP POP JUMP JUMPDEST PUSH2 0x12D3 DUP3 PUSH2 0xCC1 JUMP JUMPDEST PUSH8 0xFFFFFFFFFFFFFFFF DUP2 GT ISZERO PUSH2 0x12EC JUMPI PUSH2 0x12EB PUSH2 0xA70 JUMP JUMPDEST JUMPDEST PUSH2 0x12F6 DUP3 SLOAD PUSH2 0x10ED JUMP JUMPDEST PUSH2 0x1301 DUP3 DUP3 DUP6 PUSH2 0x123D JUMP JUMPDEST PUSH1 0x0 PUSH1 0x20 SWAP1 POP PUSH1 0x1F DUP4 GT PUSH1 0x1 DUP2 EQ PUSH2 0x1334 JUMPI PUSH1 0x0 DUP5 ISZERO PUSH2 0x1322 JUMPI DUP3 DUP8 ADD MLOAD SWAP1 POP JUMPDEST PUSH2 0x132C DUP6 DUP3 PUSH2 0x12AE JUMP JUMPDEST DUP7 SSTORE POP PUSH2 0x1394 JUMP JUMPDEST PUSH1 0x1F NOT DUP5 AND PUSH2 0x1342 DUP7 PUSH2 0x111E JUMP JUMPDEST PUSH1 0x0 JUMPDEST DUP3 DUP2 LT ISZERO PUSH2 0x136A JUMPI DUP5 DUP10 ADD MLOAD DUP3 SSTORE PUSH1 0x1 DUP3 ADD SWAP2 POP PUSH1 0x20 DUP6 ADD SWAP5 POP PUSH1 0x20 DUP2 ADD SWAP1 POP PUSH2 0x1345 JUMP JUMPDEST DUP7 DUP4 LT ISZERO PUSH2 0x1387 JUMPI DUP5 DUP10 ADD MLOAD PUSH2 0x1383 PUSH1 0x1F DUP10 AND DUP3 PUSH2 0x1290 JUMP JUMPDEST DUP4 SSTORE POP JUMPDEST PUSH1 0x1 PUSH1 0x2 DUP9 MUL ADD DUP9 SSTORE POP POP POP JUMPDEST POP POP POP POP POP POP JUMP JUMPDEST PUSH32 0x4E487B7100000000000000000000000000000000000000000000000000000000 PUSH1 0x0 MSTORE PUSH1 0x32 PUSH1 0x4 MSTORE PUSH1 0x24 PUSH1 0x0 REVERT INVALID LOG2 PUSH5 0x6970667358 0x22 SLT KECCAK256 0xE7 0x4E RETURNDATASIZE STATICCALL INVALID PUSH8 0x1F9EAC4D1F46EA9C PUSH29 0x7420F891ED634597E708DD15ECF3D87A2F64736F6C6343000811003300 "
				},
				"gasEstimates": {
					"creation": {
						"codeDepositCost": "1024200",
						"executionCost": "1067",
						"totalCost": "1025267"
					},
					"external": {
						"add_admin((address,string,string,string,string))": "infinite",
						"add_buyer(address,string,string,string,string)": "infinite",
						"bank()": "2559",
						"delete_admin(uint256)": "infinite",
						"get_buyers()": "infinite",
						"provider()": "2512",
						"remove_buyer(uint256)": "infinite",
						"set_bank(address)": "24788",
						"set_provider(address)": "24722",
						"update_buyer(uint256,(address,string,string,string,string))": "infinite"
					}
				},
				"methodIdentifiers": {
					"add_admin((address,string,string,string,string))": "f73c5683",
					"add_buyer(address,string,string,string,string)": "1fbecde7",
					"bank()": "76cdb03b",
					"delete_admin(uint256)": "b5c64e2a",
					"get_buyers()": "827b0348",
					"provider()": "085d4883",
					"remove_buyer(uint256)": "b78842ee",
					"set_bank(address)": "dacf64e2",
					"set_provider(address)": "b29f04fe",
					"update_buyer(uint256,(address,string,string,string,string))": "98168b94"
				}
			},
			"storageLayout": {
				"storage": [
					{
						"astId": 56,
						"contract": "contracts/Colhoz.sol:Colhoz",
						"label": "provider",
						"offset": 0,
						"slot": "0",
						"type": "t_address"
					},
					{
						"astId": 58,
						"contract": "contracts/Colhoz.sol:Colhoz",
						"label": "bank",
						"offset": 0,
						"slot": "1",
						"type": "t_address"
					},
					{
						"astId": 62,
						"contract": "contracts/Colhoz.sol:Colhoz",
						"label": "buyers",
						"offset": 0,
						"slot": "2",
						"type": "t_array(t_struct(User)12_storage)dyn_storage"
					},
					{
						"astId": 66,
						"contract": "contracts/Colhoz.sol:Colhoz",
						"label": "admins",
						"offset": 0,
						"slot": "3",
						"type": "t_array(t_struct(User)12_storage)dyn_storage"
					},
					{
						"astId": 70,
						"contract": "contracts/Colhoz.sol:Colhoz",
						"label": "sellers",
						"offset": 0,
						"slot": "4",
						"type": "t_array(t_struct(Seller)25_storage)dyn_storage"
					},
					{
						"astId": 74,
						"contract": "contracts/Colhoz.sol:Colhoz",
						"label": "shops",
						"offset": 0,
						"slot": "5",
						"type": "t_array(t_struct(Shop)34_storage)dyn_storage"
					},
					{
						"astId": 78,
						"contract": "contracts/Colhoz.sol:Colhoz",
						"label": "reviews",
						"offset": 0,
						"slot": "6",
						"type": "t_array(t_struct(Review)47_storage)dyn_storage"
					},
					{
						"astId": 82,
						"contract": "contracts/Colhoz.sol:Colhoz",
						"label": "requests",
						"offset": 0,
						"slot": "7",
						"type": "t_array(t_struct(Request)54_storage)dyn_storage"
					}
				],
				"types": {
					"t_address": {
						"encoding": "inplace",
						"label": "address",
						"numberOfBytes": "20"
					},
					"t_array(t_address)dyn_storage": {
						"base": "t_address",
						"encoding": "dynamic_array",
						"label": "address[]",
						"numberOfBytes": "32"
					},
					"t_array(t_struct(Request)54_storage)dyn_storage": {
						"base": "t_struct(Request)54_storage",
						"encoding": "dynamic_array",
						"label": "struct Request[]",
						"numberOfBytes": "32"
					},
					"t_array(t_struct(Review)47_storage)dyn_storage": {
						"base": "t_struct(Review)47_storage",
						"encoding": "dynamic_array",
						"label": "struct Review[]",
						"numberOfBytes": "32"
					},
					"t_array(t_struct(Seller)25_storage)dyn_storage": {
						"base": "t_struct(Seller)25_storage",
						"encoding": "dynamic_array",
						"label": "struct Seller[]",
						"numberOfBytes": "32"
					},
					"t_array(t_struct(Shop)34_storage)dyn_storage": {
						"base": "t_struct(Shop)34_storage",
						"encoding": "dynamic_array",
						"label": "struct Shop[]",
						"numberOfBytes": "32"
					},
					"t_array(t_struct(User)12_storage)dyn_storage": {
						"base": "t_struct(User)12_storage",
						"encoding": "dynamic_array",
						"label": "struct User[]",
						"numberOfBytes": "32"
					},
					"t_string_storage": {
						"encoding": "bytes",
						"label": "string",
						"numberOfBytes": "32"
					},
					"t_struct(Request)54_storage": {
						"encoding": "inplace",
						"label": "struct Request",
						"members": [
							{
								"astId": 49,
								"contract": "contracts/Colhoz.sol:Colhoz",
								"label": "autor",
								"offset": 0,
								"slot": "0",
								"type": "t_address"
							},
							{
								"astId": 51,
								"contract": "contracts/Colhoz.sol:Colhoz",
								"label": "currentRole",
								"offset": 0,
								"slot": "1",
								"type": "t_string_storage"
							},
							{
								"astId": 53,
								"contract": "contracts/Colhoz.sol:Colhoz",
								"label": "desiredRole",
								"offset": 0,
								"slot": "2",
								"type": "t_string_storage"
							}
						],
						"numberOfBytes": "96"
					},
					"t_struct(Review)47_storage": {
						"encoding": "inplace",
						"label": "struct Review",
						"members": [
							{
								"astId": 36,
								"contract": "contracts/Colhoz.sol:Colhoz",
								"label": "autor",
								"offset": 0,
								"slot": "0",
								"type": "t_address"
							},
							{
								"astId": 38,
								"contract": "contracts/Colhoz.sol:Colhoz",
								"label": "message",
								"offset": 0,
								"slot": "1",
								"type": "t_string_storage"
							},
							{
								"astId": 40,
								"contract": "contracts/Colhoz.sol:Colhoz",
								"label": "shopId",
								"offset": 0,
								"slot": "2",
								"type": "t_string_storage"
							},
							{
								"astId": 43,
								"contract": "contracts/Colhoz.sol:Colhoz",
								"label": "likes",
								"offset": 0,
								"slot": "3",
								"type": "t_array(t_address)dyn_storage"
							},
							{
								"astId": 46,
								"contract": "contracts/Colhoz.sol:Colhoz",
								"label": "dislikes",
								"offset": 0,
								"slot": "4",
								"type": "t_array(t_address)dyn_storage"
							}
						],
						"numberOfBytes": "160"
					},
					"t_struct(Seller)25_storage": {
						"encoding": "inplace",
						"label": "struct Seller",
						"members": [
							{
								"astId": 14,
								"contract": "contracts/Colhoz.sol:Colhoz",
								"label": "userAddr",
								"offset": 0,
								"slot": "0",
								"type": "t_address"
							},
							{
								"astId": 16,
								"contract": "contracts/Colhoz.sol:Colhoz",
								"label": "login",
								"offset": 0,
								"slot": "1",
								"type": "t_string_storage"
							},
							{
								"astId": 18,
								"contract": "contracts/Colhoz.sol:Colhoz",
								"label": "password",
								"offset": 0,
								"slot": "2",
								"type": "t_string_storage"
							},
							{
								"astId": 20,
								"contract": "contracts/Colhoz.sol:Colhoz",
								"label": "fio",
								"offset": 0,
								"slot": "3",
								"type": "t_string_storage"
							},
							{
								"astId": 22,
								"contract": "contracts/Colhoz.sol:Colhoz",
								"label": "status",
								"offset": 0,
								"slot": "4",
								"type": "t_string_storage"
							},
							{
								"astId": 24,
								"contract": "contracts/Colhoz.sol:Colhoz",
								"label": "shopId",
								"offset": 0,
								"slot": "5",
								"type": "t_string_storage"
							}
						],
						"numberOfBytes": "192"
					},
					"t_struct(Shop)34_storage": {
						"encoding": "inplace",
						"label": "struct Shop",
						"members": [
							{
								"astId": 27,
								"contract": "contracts/Colhoz.sol:Colhoz",
								"label": "shopId",
								"offset": 0,
								"slot": "0",
								"type": "t_string_storage"
							},
							{
								"astId": 29,
								"contract": "contracts/Colhoz.sol:Colhoz",
								"label": "shopAddr",
								"offset": 0,
								"slot": "1",
								"type": "t_address"
							},
							{
								"astId": 31,
								"contract": "contracts/Colhoz.sol:Colhoz",
								"label": "number",
								"offset": 0,
								"slot": "2",
								"type": "t_string_storage"
							},
							{
								"astId": 33,
								"contract": "contracts/Colhoz.sol:Colhoz",
								"label": "city",
								"offset": 0,
								"slot": "3",
								"type": "t_string_storage"
							}
						],
						"numberOfBytes": "128"
					},
					"t_struct(User)12_storage": {
						"encoding": "inplace",
						"label": "struct User",
						"members": [
							{
								"astId": 3,
								"contract": "contracts/Colhoz.sol:Colhoz",
								"label": "userAddr",
								"offset": 0,
								"slot": "0",
								"type": "t_address"
							},
							{
								"astId": 5,
								"contract": "contracts/Colhoz.sol:Colhoz",
								"label": "login",
								"offset": 0,
								"slot": "1",
								"type": "t_string_storage"
							},
							{
								"astId": 7,
								"contract": "contracts/Colhoz.sol:Colhoz",
								"label": "password",
								"offset": 0,
								"slot": "2",
								"type": "t_string_storage"
							},
							{
								"astId": 9,
								"contract": "contracts/Colhoz.sol:Colhoz",
								"label": "fio",
								"offset": 0,
								"slot": "3",
								"type": "t_string_storage"
							},
							{
								"astId": 11,
								"contract": "contracts/Colhoz.sol:Colhoz",
								"label": "status",
								"offset": 0,
								"slot": "4",
								"type": "t_string_storage"
							}
						],
						"numberOfBytes": "160"
					}
				}
			},
			"userdoc": {
				"kind": "user",
				"methods": {},
				"version": 1
			}
		}
	}
}