{
	"contracts/Shops.sol": {
		"ShopsSystem": {
			"abi": [
				{
					"inputs": [],
					"stateMutability": "nonpayable",
					"type": "constructor"
				},
				{
					"inputs": [
						{
							"internalType": "address",
							"name": "shopAddr",
							"type": "address"
						},
						{
							"internalType": "string",
							"name": "userMessage",
							"type": "string"
						},
						{
							"internalType": "string",
							"name": "id",
							"type": "string"
						},
						{
							"internalType": "int256",
							"name": "likeCount",
							"type": "int256"
						},
						{
							"internalType": "int256",
							"name": "dizlikeCount",
							"type": "int256"
						},
						{
							"internalType": "int256",
							"name": "grade",
							"type": "int256"
						}
					],
					"name": "createReview",
					"outputs": [],
					"stateMutability": "nonpayable",
					"type": "function"
				},
				{
					"inputs": [
						{
							"internalType": "address payable",
							"name": "shopAddr",
							"type": "address"
						}
					],
					"name": "doShopDebt",
					"outputs": [],
					"stateMutability": "nonpayable",
					"type": "function"
				},
				{
					"inputs": [],
					"name": "getAdminInfo",
					"outputs": [
						{
							"internalType": "string",
							"name": "login",
							"type": "string"
						},
						{
							"components": [
								{
									"internalType": "address",
									"name": "userAddr",
									"type": "address"
								},
								{
									"internalType": "string",
									"name": "currentRole",
									"type": "string"
								},
								{
									"internalType": "string",
									"name": "desiredRole",
									"type": "string"
								},
								{
									"internalType": "bool",
									"name": "checked",
									"type": "bool"
								}
							],
							"internalType": "struct Request[]",
							"name": "userRequests",
							"type": "tuple[]"
						},
						{
							"internalType": "string[]",
							"name": "adminList",
							"type": "string[]"
						},
						{
							"internalType": "address[]",
							"name": "sellersAddr",
							"type": "address[]"
						}
					],
					"stateMutability": "view",
					"type": "function"
				},
				{
					"inputs": [],
					"name": "getBuyerInfo",
					"outputs": [
						{
							"internalType": "string",
							"name": "userLogin",
							"type": "string"
						},
						{
							"internalType": "string",
							"name": "fio",
							"type": "string"
						},
						{
							"internalType": "uint256",
							"name": "balance",
							"type": "uint256"
						},
						{
							"internalType": "string[]",
							"name": "reviews",
							"type": "string[]"
						}
					],
					"stateMutability": "view",
					"type": "function"
				},
				{
					"inputs": [],
					"name": "getSellerInfo",
					"outputs": [
						{
							"internalType": "string",
							"name": "sellerLogin",
							"type": "string"
						},
						{
							"internalType": "string",
							"name": "fio",
							"type": "string"
						},
						{
							"internalType": "string",
							"name": "city",
							"type": "string"
						},
						{
							"internalType": "string",
							"name": "shopNumber",
							"type": "string"
						},
						{
							"internalType": "string[]",
							"name": "reviews",
							"type": "string[]"
						}
					],
					"stateMutability": "view",
					"type": "function"
				},
				{
					"inputs": [
						{
							"internalType": "address",
							"name": "sellerAddr",
							"type": "address"
						}
					],
					"name": "getSellerInfoByAddr",
					"outputs": [
						{
							"internalType": "string",
							"name": "sellerLogin",
							"type": "string"
						},
						{
							"internalType": "string",
							"name": "fio",
							"type": "string"
						},
						{
							"internalType": "string",
							"name": "city",
							"type": "string"
						},
						{
							"internalType": "string",
							"name": "shopNumber",
							"type": "string"
						},
						{
							"internalType": "string[]",
							"name": "reviews",
							"type": "string[]"
						}
					],
					"stateMutability": "view",
					"type": "function"
				},
				{
					"inputs": [
						{
							"internalType": "string",
							"name": "reviewId",
							"type": "string"
						}
					],
					"name": "likeReview",
					"outputs": [],
					"stateMutability": "nonpayable",
					"type": "function"
				},
				{
					"inputs": [
						{
							"internalType": "string",
							"name": "userLogin",
							"type": "string"
						}
					],
					"name": "login",
					"outputs": [
						{
							"internalType": "address",
							"name": "userAddress",
							"type": "address"
						},
						{
							"internalType": "string",
							"name": "status",
							"type": "string"
						}
					],
					"stateMutability": "view",
					"type": "function"
				},
				{
					"inputs": [
						{
							"internalType": "address",
							"name": "adminAddr",
							"type": "address"
						},
						{
							"internalType": "string",
							"name": "fio",
							"type": "string"
						},
						{
							"internalType": "string",
							"name": "userLogin",
							"type": "string"
						}
					],
					"name": "regAdmin",
					"outputs": [],
					"stateMutability": "nonpayable",
					"type": "function"
				},
				{
					"inputs": [
						{
							"internalType": "string",
							"name": "fio",
							"type": "string"
						},
						{
							"internalType": "string",
							"name": "userLogin",
							"type": "string"
						}
					],
					"name": "registerAdmin",
					"outputs": [],
					"stateMutability": "nonpayable",
					"type": "function"
				},
				{
					"inputs": [
						{
							"internalType": "string",
							"name": "bankLogin",
							"type": "string"
						},
						{
							"internalType": "address",
							"name": "bankAddr",
							"type": "address"
						}
					],
					"name": "registerBank",
					"outputs": [],
					"stateMutability": "nonpayable",
					"type": "function"
				},
				{
					"inputs": [
						{
							"internalType": "string",
							"name": "fio",
							"type": "string"
						},
						{
							"internalType": "string",
							"name": "userLogin",
							"type": "string"
						},
						{
							"internalType": "address",
							"name": "userAddr",
							"type": "address"
						}
					],
					"name": "registerBuyer",
					"outputs": [],
					"stateMutability": "nonpayable",
					"type": "function"
				},
				{
					"inputs": [
						{
							"internalType": "string",
							"name": "providerLogin",
							"type": "string"
						},
						{
							"internalType": "address",
							"name": "providerAddr",
							"type": "address"
						}
					],
					"name": "registerProvider",
					"outputs": [],
					"stateMutability": "nonpayable",
					"type": "function"
				},
				{
					"inputs": [
						{
							"internalType": "string",
							"name": "fio",
							"type": "string"
						},
						{
							"internalType": "string",
							"name": "userLogin",
							"type": "string"
						},
						{
							"internalType": "address",
							"name": "userAddress",
							"type": "address"
						},
						{
							"internalType": "string",
							"name": "shopAddr",
							"type": "string"
						}
					],
					"name": "registerSeller",
					"outputs": [],
					"stateMutability": "nonpayable",
					"type": "function"
				},
				{
					"inputs": [
						{
							"internalType": "address",
							"name": "shopAddr",
							"type": "address"
						},
						{
							"internalType": "string",
							"name": "number",
							"type": "string"
						},
						{
							"internalType": "string",
							"name": "city",
							"type": "string"
						},
						{
							"internalType": "string",
							"name": "shopLogin",
							"type": "string"
						}
					],
					"name": "registerShop",
					"outputs": [],
					"stateMutability": "nonpayable",
					"type": "function"
				}
			],
			"devdoc": {
				"kind": "dev",
				"methods": {},
				"version": 1
			},
			"evm": {
				"assembly": "    /* \"contracts/Shops.sol\":269:6465  contract ShopsSystem is AuthService{... */\n  mstore(0x40, 0x80)\n    /* \"contracts/Shops.sol\":854:902  constructor(){... */\n  callvalue\n  dup1\n  iszero\n  tag_1\n  jumpi\n  0x00\n  dup1\n  revert\ntag_1:\n  pop\n    /* \"contracts/AuthService.sol\":564:587  userStatus[0] = \"buyer\" */\n  mload(0x40)\n  dup1\n  0x40\n  add\n  0x40\n  mstore\n  dup1\n  0x05\n  dup2\n  mstore\n  0x20\n  add\n  0x6275796572000000000000000000000000000000000000000000000000000000\n  dup2\n  mstore\n  pop\n    /* \"contracts/AuthService.sol\":564:574  userStatus */\n  0x00\n    /* \"contracts/AuthService.sol\":564:577  userStatus[0] */\n  dup1\n    /* \"contracts/AuthService.sol\":575:576  0 */\n  dup1\n    /* \"contracts/AuthService.sol\":564:577  userStatus[0] */\n  dup2\n  mstore\n  0x20\n  add\n  swap1\n  dup2\n  mstore\n  0x20\n  add\n  0x00\n  keccak256\n    /* \"contracts/AuthService.sol\":564:587  userStatus[0] = \"buyer\" */\n  swap1\n  dup1\n  mload\n  swap1\n  0x20\n  add\n  swap1\n  tag_5\n  swap3\n  swap2\n  swap1\n  tag_6\n  jump\t// in\ntag_5:\n  pop\n    /* \"contracts/AuthService.sol\":597:621  userStatus[1] = \"seller\" */\n  mload(0x40)\n  dup1\n  0x40\n  add\n  0x40\n  mstore\n  dup1\n  0x06\n  dup2\n  mstore\n  0x20\n  add\n  0x73656c6c65720000000000000000000000000000000000000000000000000000\n  dup2\n  mstore\n  pop\n    /* \"contracts/AuthService.sol\":597:607  userStatus */\n  0x00\n    /* \"contracts/AuthService.sol\":597:610  userStatus[1] */\n  dup1\n    /* \"contracts/AuthService.sol\":608:609  1 */\n  0x01\n    /* \"contracts/AuthService.sol\":597:610  userStatus[1] */\n  dup2\n  mstore\n  0x20\n  add\n  swap1\n  dup2\n  mstore\n  0x20\n  add\n  0x00\n  keccak256\n    /* \"contracts/AuthService.sol\":597:621  userStatus[1] = \"seller\" */\n  swap1\n  dup1\n  mload\n  swap1\n  0x20\n  add\n  swap1\n  tag_7\n  swap3\n  swap2\n  swap1\n  tag_6\n  jump\t// in\ntag_7:\n  pop\n    /* \"contracts/AuthService.sol\":631:653  userStatus[2] = \"shop\" */\n  mload(0x40)\n  dup1\n  0x40\n  add\n  0x40\n  mstore\n  dup1\n  0x04\n  dup2\n  mstore\n  0x20\n  add\n  0x73686f7000000000000000000000000000000000000000000000000000000000\n  dup2\n  mstore\n  pop\n    /* \"contracts/AuthService.sol\":631:641  userStatus */\n  0x00\n    /* \"contracts/AuthService.sol\":631:644  userStatus[2] */\n  dup1\n    /* \"contracts/AuthService.sol\":642:643  2 */\n  0x02\n    /* \"contracts/AuthService.sol\":631:644  userStatus[2] */\n  dup2\n  mstore\n  0x20\n  add\n  swap1\n  dup2\n  mstore\n  0x20\n  add\n  0x00\n  keccak256\n    /* \"contracts/AuthService.sol\":631:653  userStatus[2] = \"shop\" */\n  swap1\n  dup1\n  mload\n  swap1\n  0x20\n  add\n  swap1\n  tag_8\n  swap3\n  swap2\n  swap1\n  tag_6\n  jump\t// in\ntag_8:\n  pop\n    /* \"contracts/AuthService.sol\":663:686  userStatus[3] = \"admin\" */\n  mload(0x40)\n  dup1\n  0x40\n  add\n  0x40\n  mstore\n  dup1\n  0x05\n  dup2\n  mstore\n  0x20\n  add\n  0x61646d696e000000000000000000000000000000000000000000000000000000\n  dup2\n  mstore\n  pop\n    /* \"contracts/AuthService.sol\":663:673  userStatus */\n  0x00\n    /* \"contracts/AuthService.sol\":663:676  userStatus[3] */\n  dup1\n    /* \"contracts/AuthService.sol\":674:675  3 */\n  0x03\n    /* \"contracts/AuthService.sol\":663:676  userStatus[3] */\n  dup2\n  mstore\n  0x20\n  add\n  swap1\n  dup2\n  mstore\n  0x20\n  add\n  0x00\n  keccak256\n    /* \"contracts/AuthService.sol\":663:686  userStatus[3] = \"admin\" */\n  swap1\n  dup1\n  mload\n  swap1\n  0x20\n  add\n  swap1\n  tag_9\n  swap3\n  swap2\n  swap1\n  tag_6\n  jump\t// in\ntag_9:\n  pop\n    /* \"contracts/AuthService.sol\":696:722  userStatus[4] = \"provider\" */\n  mload(0x40)\n  dup1\n  0x40\n  add\n  0x40\n  mstore\n  dup1\n  0x08\n  dup2\n  mstore\n  0x20\n  add\n  0x70726f7669646572000000000000000000000000000000000000000000000000\n  dup2\n  mstore\n  pop\n    /* \"contracts/AuthService.sol\":696:706  userStatus */\n  0x00\n    /* \"contracts/AuthService.sol\":696:709  userStatus[4] */\n  dup1\n    /* \"contracts/AuthService.sol\":707:708  4 */\n  0x04\n    /* \"contracts/AuthService.sol\":696:709  userStatus[4] */\n  dup2\n  mstore\n  0x20\n  add\n  swap1\n  dup2\n  mstore\n  0x20\n  add\n  0x00\n  keccak256\n    /* \"contracts/AuthService.sol\":696:722  userStatus[4] = \"provider\" */\n  swap1\n  dup1\n  mload\n  swap1\n  0x20\n  add\n  swap1\n  tag_10\n  swap3\n  swap2\n  swap1\n  tag_6\n  jump\t// in\ntag_10:\n  pop\n    /* \"contracts/AuthService.sol\":732:754  userStatus[5] = \"bank\" */\n  mload(0x40)\n  dup1\n  0x40\n  add\n  0x40\n  mstore\n  dup1\n  0x04\n  dup2\n  mstore\n  0x20\n  add\n  0x62616e6b00000000000000000000000000000000000000000000000000000000\n  dup2\n  mstore\n  pop\n    /* \"contracts/AuthService.sol\":732:742  userStatus */\n  0x00\n    /* \"contracts/AuthService.sol\":732:745  userStatus[5] */\n  dup1\n    /* \"contracts/AuthService.sol\":743:744  5 */\n  0x05\n    /* \"contracts/AuthService.sol\":732:745  userStatus[5] */\n  dup2\n  mstore\n  0x20\n  add\n  swap1\n  dup2\n  mstore\n  0x20\n  add\n  0x00\n  keccak256\n    /* \"contracts/AuthService.sol\":732:754  userStatus[5] = \"bank\" */\n  swap1\n  dup1\n  mload\n  swap1\n  0x20\n  add\n  swap1\n  tag_11\n  swap3\n  swap2\n  swap1\n  tag_6\n  jump\t// in\ntag_11:\n  pop\n    /* \"contracts/Shops.sol\":885:895  msg.sender */\n  caller\n    /* \"contracts/Shops.sol\":877:882  admin */\n  0x04\n  0x00\n    /* \"contracts/Shops.sol\":877:895  admin = msg.sender */\n  0x0100\n  exp\n  dup2\n  sload\n  dup2\n  0xffffffffffffffffffffffffffffffffffffffff\n  mul\n  not\n  and\n  swap1\n  dup4\n  0xffffffffffffffffffffffffffffffffffffffff\n  and\n  mul\n  or\n  swap1\n  sstore\n  pop\n    /* \"contracts/Shops.sol\":269:6465  contract ShopsSystem is AuthService{... */\n  jump(tag_13)\ntag_6:\n  dup3\n  dup1\n  sload\n  tag_14\n  swap1\n  tag_15\n  jump\t// in\ntag_14:\n  swap1\n  0x00\n  mstore\n  keccak256(0x00, 0x20)\n  swap1\n  0x1f\n  add\n  0x20\n  swap1\n  div\n  dup2\n  add\n  swap3\n  dup3\n  tag_17\n  jumpi\n  0x00\n  dup6\n  sstore\n  jump(tag_16)\ntag_17:\n  dup3\n  0x1f\n  lt\n  tag_18\n  jumpi\n  dup1\n  mload\n  not(0xff)\n  and\n  dup4\n  dup1\n  add\n  or\n  dup6\n  sstore\n  jump(tag_16)\ntag_18:\n  dup3\n  dup1\n  add\n  0x01\n  add\n  dup6\n  sstore\n  dup3\n  iszero\n  tag_16\n  jumpi\n  swap2\n  dup3\n  add\ntag_19:\n  dup3\n  dup2\n  gt\n  iszero\n  tag_20\n  jumpi\n  dup3\n  mload\n  dup3\n  sstore\n  swap2\n  0x20\n  add\n  swap2\n  swap1\n  0x01\n  add\n  swap1\n  jump(tag_19)\ntag_20:\ntag_16:\n  pop\n  swap1\n  pop\n  tag_21\n  swap2\n  swap1\n  tag_22\n  jump\t// in\ntag_21:\n  pop\n  swap1\n  jump\t// out\ntag_22:\ntag_23:\n  dup1\n  dup3\n  gt\n  iszero\n  tag_24\n  jumpi\n  0x00\n  dup2\n  0x00\n  swap1\n  sstore\n  pop\n  0x01\n  add\n  jump(tag_23)\ntag_24:\n  pop\n  swap1\n  jump\t// out\n    /* \"#utility.yul\":7:327   */\ntag_15:\n    /* \"#utility.yul\":51:57   */\n  0x00\n    /* \"#utility.yul\":88:89   */\n  0x02\n    /* \"#utility.yul\":82:86   */\n  dup3\n    /* \"#utility.yul\":78:90   */\n  div\n    /* \"#utility.yul\":68:90   */\n  swap1\n  pop\n    /* \"#utility.yul\":135:136   */\n  0x01\n    /* \"#utility.yul\":129:133   */\n  dup3\n    /* \"#utility.yul\":125:137   */\n  and\n    /* \"#utility.yul\":156:174   */\n  dup1\n    /* \"#utility.yul\":146:227   */\n  tag_27\n  jumpi\n    /* \"#utility.yul\":212:216   */\n  0x7f\n    /* \"#utility.yul\":204:210   */\n  dup3\n    /* \"#utility.yul\":200:217   */\n  and\n    /* \"#utility.yul\":190:217   */\n  swap2\n  pop\n    /* \"#utility.yul\":146:227   */\ntag_27:\n    /* \"#utility.yul\":274:276   */\n  0x20\n    /* \"#utility.yul\":266:272   */\n  dup3\n    /* \"#utility.yul\":263:277   */\n  lt\n    /* \"#utility.yul\":243:261   */\n  dup2\n    /* \"#utility.yul\":240:278   */\n  eq\n    /* \"#utility.yul\":237:321   */\n  iszero\n  tag_28\n  jumpi\n    /* \"#utility.yul\":293:311   */\n  tag_29\n  tag_30\n  jump\t// in\ntag_29:\n    /* \"#utility.yul\":237:321   */\ntag_28:\n    /* \"#utility.yul\":58:327   */\n  pop\n    /* \"#utility.yul\":7:327   */\n  swap2\n  swap1\n  pop\n  jump\t// out\n    /* \"#utility.yul\":333:513   */\ntag_30:\n    /* \"#utility.yul\":381:458   */\n  0x4e487b7100000000000000000000000000000000000000000000000000000000\n    /* \"#utility.yul\":378:379   */\n  0x00\n    /* \"#utility.yul\":371:459   */\n  mstore\n    /* \"#utility.yul\":478:482   */\n  0x22\n    /* \"#utility.yul\":475:476   */\n  0x04\n    /* \"#utility.yul\":468:483   */\n  mstore\n    /* \"#utility.yul\":502:506   */\n  0x24\n    /* \"#utility.yul\":499:500   */\n  0x00\n    /* \"#utility.yul\":492:507   */\n  revert\n    /* \"contracts/Shops.sol\":269:6465  contract ShopsSystem is AuthService{... */\ntag_13:\n  dataSize(sub_0)\n  dup1\n  dataOffset(sub_0)\n  0x00\n  codecopy\n  0x00\n  return\nstop\n\nsub_0: assembly {\n        /* \"contracts/Shops.sol\":269:6465  contract ShopsSystem is AuthService{... */\n      mstore(0x40, 0x80)\n      callvalue\n      dup1\n      iszero\n      tag_1\n      jumpi\n      0x00\n      dup1\n      revert\n    tag_1:\n      pop\n      jumpi(tag_2, lt(calldatasize, 0x04))\n      shr(0xe0, calldataload(0x00))\n      dup1\n      0x7ccb2bd8\n      gt\n      tag_18\n      jumpi\n      dup1\n      0x9d344d10\n      gt\n      tag_19\n      jumpi\n      dup1\n      0x9d344d10\n      eq\n      tag_14\n      jumpi\n      dup1\n      0xa59d105f\n      eq\n      tag_15\n      jumpi\n      dup1\n      0xc3d5fd39\n      eq\n      tag_16\n      jumpi\n      dup1\n      0xf8f98b79\n      eq\n      tag_17\n      jumpi\n      jump(tag_2)\n    tag_19:\n      dup1\n      0x7ccb2bd8\n      eq\n      tag_10\n      jumpi\n      dup1\n      0x824ef9a7\n      eq\n      tag_11\n      jumpi\n      dup1\n      0x83db0f6d\n      eq\n      tag_12\n      jumpi\n      dup1\n      0x99b958ee\n      eq\n      tag_13\n      jumpi\n      jump(tag_2)\n    tag_18:\n      dup1\n      0x3a7d280c\n      gt\n      tag_20\n      jumpi\n      dup1\n      0x3a7d280c\n      eq\n      tag_6\n      jumpi\n      dup1\n      0x54504c12\n      eq\n      tag_7\n      jumpi\n      dup1\n      0x7558b2f8\n      eq\n      tag_8\n      jumpi\n      dup1\n      0x7b3c7488\n      eq\n      tag_9\n      jumpi\n      jump(tag_2)\n    tag_20:\n      dup1\n      0x08e74858\n      eq\n      tag_3\n      jumpi\n      dup1\n      0x2156a781\n      eq\n      tag_4\n      jumpi\n      dup1\n      0x3a708737\n      eq\n      tag_5\n      jumpi\n    tag_2:\n      0x00\n      dup1\n      revert\n        /* \"contracts/Shops.sol\":5297:5910  function getSellerInfoByAddr(address sellerAddr) public view isUserStatus(UserRoles.admin)returns(... */\n    tag_3:\n      tag_21\n      0x04\n      dup1\n      calldatasize\n      sub\n      dup2\n      add\n      swap1\n      tag_22\n      swap2\n      swap1\n      tag_23\n      jump\t// in\n    tag_22:\n      tag_24\n      jump\t// in\n    tag_21:\n      mload(0x40)\n      tag_25\n      swap6\n      swap5\n      swap4\n      swap3\n      swap2\n      swap1\n      tag_26\n      jump\t// in\n    tag_25:\n      mload(0x40)\n      dup1\n      swap2\n      sub\n      swap1\n      return\n        /* \"contracts/Shops.sol\":2521:2708  function registerBank(string memory bankLogin,address bankAddr) public isAdmin {... */\n    tag_4:\n      tag_27\n      0x04\n      dup1\n      calldatasize\n      sub\n      dup2\n      add\n      swap1\n      tag_28\n      swap2\n      swap1\n      tag_29\n      jump\t// in\n    tag_28:\n      tag_30\n      jump\t// in\n    tag_27:\n      stop\n        /* \"contracts/Shops.sol\":5916:6333  function createReview(... */\n    tag_5:\n      tag_31\n      0x04\n      dup1\n      calldatasize\n      sub\n      dup2\n      add\n      swap1\n      tag_32\n      swap2\n      swap1\n      tag_33\n      jump\t// in\n    tag_32:\n      tag_34\n      jump\t// in\n    tag_31:\n      stop\n        /* \"contracts/AuthService.sol\":2244:2544  function login(string memory userLogin) public view isRegistered(userLogin) returns(address userAddress,string memory status){... */\n    tag_6:\n      tag_35\n      0x04\n      dup1\n      calldatasize\n      sub\n      dup2\n      add\n      swap1\n      tag_36\n      swap2\n      swap1\n      tag_37\n      jump\t// in\n    tag_36:\n      tag_38\n      jump\t// in\n    tag_35:\n      mload(0x40)\n      tag_39\n      swap3\n      swap2\n      swap1\n      tag_40\n      jump\t// in\n    tag_39:\n      mload(0x40)\n      dup1\n      swap2\n      sub\n      swap1\n      return\n        /* \"contracts/Shops.sol\":3677:4268  function getSellerInfo() public view isUserStatus(UserRoles.seller) returns(... */\n    tag_7:\n      tag_41\n      tag_42\n      jump\t// in\n    tag_41:\n      mload(0x40)\n      tag_43\n      swap6\n      swap5\n      swap4\n      swap3\n      swap2\n      swap1\n      tag_26\n      jump\t// in\n    tag_43:\n      mload(0x40)\n      dup1\n      swap2\n      sub\n      swap1\n      return\n        /* \"contracts/Shops.sol\":1751:2102  function registerShop(address shopAddr,string memory number,string memory city,string memory shopLogin) public isUserStatus(UserRoles.admin){... */\n    tag_8:\n      tag_44\n      0x04\n      dup1\n      calldatasize\n      sub\n      dup2\n      add\n      swap1\n      tag_45\n      swap2\n      swap1\n      tag_46\n      jump\t// in\n    tag_45:\n      tag_47\n      jump\t// in\n    tag_44:\n      stop\n        /* \"contracts/Shops.sol\":6339:6405  function likeReview(string memory reviewId) public isUser {... */\n    tag_9:\n      tag_48\n      0x04\n      dup1\n      calldatasize\n      sub\n      dup2\n      add\n      swap1\n      tag_49\n      swap2\n      swap1\n      tag_37\n      jump\t// in\n    tag_49:\n      tag_50\n      jump\t// in\n    tag_48:\n      stop\n        /* \"contracts/Shops.sol\":2202:2446  function registerProvider(string memory providerLogin,address providerAddr) public isAdmin {... */\n    tag_10:\n      tag_51\n      0x04\n      dup1\n      calldatasize\n      sub\n      dup2\n      add\n      swap1\n      tag_52\n      swap2\n      swap1\n      tag_29\n      jump\t// in\n    tag_52:\n      tag_53\n      jump\t// in\n    tag_51:\n      stop\n        /* \"contracts/Shops.sol\":2771:3037  function registerSeller(string memory fio,string memory userLogin,address userAddress,string memory shopAddr) public {... */\n    tag_11:\n      tag_54\n      0x04\n      dup1\n      calldatasize\n      sub\n      dup2\n      add\n      swap1\n      tag_55\n      swap2\n      swap1\n      tag_56\n      jump\t// in\n    tag_55:\n      tag_57\n      jump\t// in\n    tag_54:\n      stop\n        /* \"contracts/Shops.sol\":3398:3601  function doShopDebt(address payable shopAddr) public isUserStatus(UserRoles.bank) {... */\n    tag_12:\n      tag_58\n      0x04\n      dup1\n      calldatasize\n      sub\n      dup2\n      add\n      swap1\n      tag_59\n      swap2\n      swap1\n      tag_60\n      jump\t// in\n    tag_59:\n      tag_61\n      jump\t// in\n    tag_58:\n      stop\n        /* \"contracts/Shops.sol\":4367:4731  function getBuyerInfo() public view isUser returns(... */\n    tag_13:\n      tag_62\n      tag_63\n      jump\t// in\n    tag_62:\n      mload(0x40)\n      tag_64\n      swap5\n      swap4\n      swap3\n      swap2\n      swap1\n      tag_65\n      jump\t// in\n    tag_64:\n      mload(0x40)\n      dup1\n      swap2\n      sub\n      swap1\n      return\n        /* \"contracts/Shops.sol\":3104:3303  function registerBuyer(string memory fio,string memory userLogin,address userAddr) public{... */\n    tag_14:\n      tag_66\n      0x04\n      dup1\n      calldatasize\n      sub\n      dup2\n      add\n      swap1\n      tag_67\n      swap2\n      swap1\n      tag_68\n      jump\t// in\n    tag_67:\n      tag_69\n      jump\t// in\n    tag_66:\n      stop\n        /* \"contracts/Shops.sol\":1432:1690  function regAdmin(address adminAddr,string memory fio,string memory userLogin) public isUserStatus(UserRoles.admin){... */\n    tag_15:\n      tag_70\n      0x04\n      dup1\n      calldatasize\n      sub\n      dup2\n      add\n      swap1\n      tag_71\n      swap2\n      swap1\n      tag_72\n      jump\t// in\n    tag_71:\n      tag_73\n      jump\t// in\n    tag_70:\n      stop\n        /* \"contracts/Shops.sol\":4801:5200  function getAdminInfo() public view isUserStatus(UserRoles.admin) returns(... */\n    tag_16:\n      tag_74\n      tag_75\n      jump\t// in\n    tag_74:\n      mload(0x40)\n      tag_76\n      swap5\n      swap4\n      swap3\n      swap2\n      swap1\n      tag_77\n      jump\t// in\n    tag_76:\n      mload(0x40)\n      dup1\n      swap2\n      sub\n      swap1\n      return\n        /* \"contracts/Shops.sol\":1116:1341  function registerAdmin(string memory fio,string memory userLogin) isAdmin public {... */\n    tag_17:\n      tag_78\n      0x04\n      dup1\n      calldatasize\n      sub\n      dup2\n      add\n      swap1\n      tag_79\n      swap2\n      swap1\n      tag_80\n      jump\t// in\n    tag_79:\n      tag_81\n      jump\t// in\n    tag_78:\n      stop\n        /* \"contracts/Shops.sol\":5297:5910  function getSellerInfoByAddr(address sellerAddr) public view isUserStatus(UserRoles.admin)returns(... */\n    tag_24:\n        /* \"contracts/Shops.sol\":5404:5429  string memory sellerLogin */\n      0x60\n        /* \"contracts/Shops.sol\":5439:5456  string memory fio */\n      dup1\n        /* \"contracts/Shops.sol\":5466:5484  string memory city */\n      0x60\n        /* \"contracts/Shops.sol\":5494:5518  string memory shopNumber */\n      dup1\n        /* \"contracts/Shops.sol\":5528:5551  string[] memory reviews */\n      0x60\n        /* \"contracts/Shops.sol\":5371:5386  UserRoles.admin */\n      0x03\n        /* \"contracts/AuthService.sol\":1605:1610  users */\n      0x02\n        /* \"contracts/AuthService.sol\":1605:1622  users[msg.sender] */\n      0x00\n        /* \"contracts/AuthService.sol\":1611:1621  msg.sender */\n      caller\n        /* \"contracts/AuthService.sol\":1605:1622  users[msg.sender] */\n      0xffffffffffffffffffffffffffffffffffffffff\n      and\n      0xffffffffffffffffffffffffffffffffffffffff\n      and\n      dup2\n      mstore\n      0x20\n      add\n      swap1\n      dup2\n      mstore\n      0x20\n      add\n      0x00\n      keccak256\n        /* \"contracts/AuthService.sol\":1605:1629  users[msg.sender].status */\n      0x00\n      add\n      sload\n        /* \"contracts/AuthService.sol\":1594:1600  status */\n      dup2\n        /* \"contracts/AuthService.sol\":1589:1601  uint(status) */\n      0x05\n      dup2\n      gt\n      iszero\n      tag_83\n      jumpi\n      tag_84\n      tag_85\n      jump\t// in\n    tag_84:\n    tag_83:\n        /* \"contracts/AuthService.sol\":1589:1629  uint(status) == users[msg.sender].status */\n      eq\n        /* \"contracts/AuthService.sol\":1581:1642  require(uint(status) == users[msg.sender].status,\"Forbidden\") */\n      tag_86\n      jumpi\n      mload(0x40)\n      0x08c379a000000000000000000000000000000000000000000000000000000000\n      dup2\n      mstore\n      0x04\n      add\n      tag_87\n      swap1\n      tag_88\n      jump\t// in\n    tag_87:\n      mload(0x40)\n      dup1\n      swap2\n      sub\n      swap1\n      revert\n    tag_86:\n        /* \"contracts/Shops.sol\":5567:5587  User memory sellUser */\n      0x00\n        /* \"contracts/Shops.sol\":5590:5595  users */\n      0x02\n        /* \"contracts/Shops.sol\":5590:5607  users[sellerAddr] */\n      0x00\n        /* \"contracts/Shops.sol\":5596:5606  sellerAddr */\n      dup10\n        /* \"contracts/Shops.sol\":5590:5607  users[sellerAddr] */\n      0xffffffffffffffffffffffffffffffffffffffff\n      and\n      0xffffffffffffffffffffffffffffffffffffffff\n      and\n      dup2\n      mstore\n      0x20\n      add\n      swap1\n      dup2\n      mstore\n      0x20\n      add\n      0x00\n      keccak256\n        /* \"contracts/Shops.sol\":5567:5607  User memory sellUser = users[sellerAddr] */\n      mload(0x40)\n      dup1\n      0x80\n      add\n      0x40\n      mstore\n      swap1\n      dup2\n      0x00\n      dup3\n      add\n      sload\n      dup2\n      mstore\n      0x20\n      add\n      0x01\n      dup3\n      add\n      dup1\n      sload\n      tag_90\n      swap1\n      tag_91\n      jump\t// in\n    tag_90:\n      dup1\n      0x1f\n      add\n      0x20\n      dup1\n      swap2\n      div\n      mul\n      0x20\n      add\n      mload(0x40)\n      swap1\n      dup2\n      add\n      0x40\n      mstore\n      dup1\n      swap3\n      swap2\n      swap1\n      dup2\n      dup2\n      mstore\n      0x20\n      add\n      dup3\n      dup1\n      sload\n      tag_92\n      swap1\n      tag_91\n      jump\t// in\n    tag_92:\n      dup1\n      iszero\n      tag_93\n      jumpi\n      dup1\n      0x1f\n      lt\n      tag_94\n      jumpi\n      0x0100\n      dup1\n      dup4\n      sload\n      div\n      mul\n      dup4\n      mstore\n      swap2\n      0x20\n      add\n      swap2\n      jump(tag_93)\n    tag_94:\n      dup3\n      add\n      swap2\n      swap1\n      0x00\n      mstore\n      keccak256(0x00, 0x20)\n      swap1\n    tag_95:\n      dup2\n      sload\n      dup2\n      mstore\n      swap1\n      0x01\n      add\n      swap1\n      0x20\n      add\n      dup1\n      dup4\n      gt\n      tag_95\n      jumpi\n      dup3\n      swap1\n      sub\n      0x1f\n      and\n      dup3\n      add\n      swap2\n    tag_93:\n      pop\n      pop\n      pop\n      pop\n      pop\n      dup2\n      mstore\n      0x20\n      add\n      0x02\n      dup3\n      add\n      dup1\n      sload\n      tag_96\n      swap1\n      tag_91\n      jump\t// in\n    tag_96:\n      dup1\n      0x1f\n      add\n      0x20\n      dup1\n      swap2\n      div\n      mul\n      0x20\n      add\n      mload(0x40)\n      swap1\n      dup2\n      add\n      0x40\n      mstore\n      dup1\n      swap3\n      swap2\n      swap1\n      dup2\n      dup2\n      mstore\n      0x20\n      add\n      dup3\n      dup1\n      sload\n      tag_97\n      swap1\n      tag_91\n      jump\t// in\n    tag_97:\n      dup1\n      iszero\n      tag_98\n      jumpi\n      dup1\n      0x1f\n      lt\n      tag_99\n      jumpi\n      0x0100\n      dup1\n      dup4\n      sload\n      div\n      mul\n      dup4\n      mstore\n      swap2\n      0x20\n      add\n      swap2\n      jump(tag_98)\n    tag_99:\n      dup3\n      add\n      swap2\n      swap1\n      0x00\n      mstore\n      keccak256(0x00, 0x20)\n      swap1\n    tag_100:\n      dup2\n      sload\n      dup2\n      mstore\n      swap1\n      0x01\n      add\n      swap1\n      0x20\n      add\n      dup1\n      dup4\n      gt\n      tag_100\n      jumpi\n      dup3\n      swap1\n      sub\n      0x1f\n      and\n      dup3\n      add\n      swap2\n    tag_98:\n      pop\n      pop\n      pop\n      pop\n      pop\n      dup2\n      mstore\n      0x20\n      add\n      0x03\n      dup3\n      add\n      dup1\n      sload\n      dup1\n      0x20\n      mul\n      0x20\n      add\n      mload(0x40)\n      swap1\n      dup2\n      add\n      0x40\n      mstore\n      dup1\n      swap3\n      swap2\n      swap1\n      dup2\n      dup2\n      mstore\n      0x20\n      add\n      0x00\n      swap1\n    tag_101:\n      dup3\n      dup3\n      lt\n      iszero\n      tag_102\n      jumpi\n      dup4\n      dup3\n      swap1\n      0x00\n      mstore\n      keccak256(0x00, 0x20)\n      add\n      dup1\n      sload\n      tag_104\n      swap1\n      tag_91\n      jump\t// in\n    tag_104:\n      dup1\n      0x1f\n      add\n      0x20\n      dup1\n      swap2\n      div\n      mul\n      0x20\n      add\n      mload(0x40)\n      swap1\n      dup2\n      add\n      0x40\n      mstore\n      dup1\n      swap3\n      swap2\n      swap1\n      dup2\n      dup2\n      mstore\n      0x20\n      add\n      dup3\n      dup1\n      sload\n      tag_105\n      swap1\n      tag_91\n      jump\t// in\n    tag_105:\n      dup1\n      iszero\n      tag_106\n      jumpi\n      dup1\n      0x1f\n      lt\n      tag_107\n      jumpi\n      0x0100\n      dup1\n      dup4\n      sload\n      div\n      mul\n      dup4\n      mstore\n      swap2\n      0x20\n      add\n      swap2\n      jump(tag_106)\n    tag_107:\n      dup3\n      add\n      swap2\n      swap1\n      0x00\n      mstore\n      keccak256(0x00, 0x20)\n      swap1\n    tag_108:\n      dup2\n      sload\n      dup2\n      mstore\n      swap1\n      0x01\n      add\n      swap1\n      0x20\n      add\n      dup1\n      dup4\n      gt\n      tag_108\n      jumpi\n      dup3\n      swap1\n      sub\n      0x1f\n      and\n      dup3\n      add\n      swap2\n    tag_106:\n      pop\n      pop\n      pop\n      pop\n      pop\n      dup2\n      mstore\n      0x20\n      add\n      swap1\n      0x01\n      add\n      swap1\n      jump(tag_101)\n    tag_102:\n      pop\n      pop\n      pop\n      pop\n      dup2\n      mstore\n      pop\n      pop\n      swap1\n      pop\n        /* \"contracts/Shops.sol\":5617:5637  address sellShopAddr */\n      0x00\n        /* \"contracts/Shops.sol\":5640:5652  salesmanShop */\n      0x0b\n        /* \"contracts/Shops.sol\":5640:5664  salesmanShop[sellerAddr] */\n      0x00\n        /* \"contracts/Shops.sol\":5653:5663  sellerAddr */\n      dup11\n        /* \"contracts/Shops.sol\":5640:5664  salesmanShop[sellerAddr] */\n      0xffffffffffffffffffffffffffffffffffffffff\n      and\n      0xffffffffffffffffffffffffffffffffffffffff\n      and\n      dup2\n      mstore\n      0x20\n      add\n      swap1\n      dup2\n      mstore\n      0x20\n      add\n      0x00\n      keccak256\n      0x00\n      swap1\n      sload\n      swap1\n      0x0100\n      exp\n      swap1\n      div\n      0xffffffffffffffffffffffffffffffffffffffff\n      and\n        /* \"contracts/Shops.sol\":5617:5664  address sellShopAddr = salesmanShop[sellerAddr] */\n      swap1\n      pop\n        /* \"contracts/Shops.sol\":5674:5694  Shop memory sellShop */\n      0x00\n        /* \"contracts/Shops.sol\":5697:5706  ShopsList */\n      0x0a\n        /* \"contracts/Shops.sol\":5697:5720  ShopsList[sellShopAddr] */\n      0x00\n        /* \"contracts/Shops.sol\":5707:5719  sellShopAddr */\n      dup4\n        /* \"contracts/Shops.sol\":5697:5720  ShopsList[sellShopAddr] */\n      0xffffffffffffffffffffffffffffffffffffffff\n      and\n      0xffffffffffffffffffffffffffffffffffffffff\n      and\n      dup2\n      mstore\n      0x20\n      add\n      swap1\n      dup2\n      mstore\n      0x20\n      add\n      0x00\n      keccak256\n        /* \"contracts/Shops.sol\":5674:5720  Shop memory sellShop = ShopsList[sellShopAddr] */\n      mload(0x40)\n      dup1\n      0x60\n      add\n      0x40\n      mstore\n      swap1\n      dup2\n      0x00\n      dup3\n      add\n      dup1\n      sload\n      tag_109\n      swap1\n      tag_91\n      jump\t// in\n    tag_109:\n      dup1\n      0x1f\n      add\n      0x20\n      dup1\n      swap2\n      div\n      mul\n      0x20\n      add\n      mload(0x40)\n      swap1\n      dup2\n      add\n      0x40\n      mstore\n      dup1\n      swap3\n      swap2\n      swap1\n      dup2\n      dup2\n      mstore\n      0x20\n      add\n      dup3\n      dup1\n      sload\n      tag_110\n      swap1\n      tag_91\n      jump\t// in\n    tag_110:\n      dup1\n      iszero\n      tag_111\n      jumpi\n      dup1\n      0x1f\n      lt\n      tag_112\n      jumpi\n      0x0100\n      dup1\n      dup4\n      sload\n      div\n      mul\n      dup4\n      mstore\n      swap2\n      0x20\n      add\n      swap2\n      jump(tag_111)\n    tag_112:\n      dup3\n      add\n      swap2\n      swap1\n      0x00\n      mstore\n      keccak256(0x00, 0x20)\n      swap1\n    tag_113:\n      dup2\n      sload\n      dup2\n      mstore\n      swap1\n      0x01\n      add\n      swap1\n      0x20\n      add\n      dup1\n      dup4\n      gt\n      tag_113\n      jumpi\n      dup3\n      swap1\n      sub\n      0x1f\n      and\n      dup3\n      add\n      swap2\n    tag_111:\n      pop\n      pop\n      pop\n      pop\n      pop\n      dup2\n      mstore\n      0x20\n      add\n      0x01\n      dup3\n      add\n      dup1\n      sload\n      tag_114\n      swap1\n      tag_91\n      jump\t// in\n    tag_114:\n      dup1\n      0x1f\n      add\n      0x20\n      dup1\n      swap2\n      div\n      mul\n      0x20\n      add\n      mload(0x40)\n      swap1\n      dup2\n      add\n      0x40\n      mstore\n      dup1\n      swap3\n      swap2\n      swap1\n      dup2\n      dup2\n      mstore\n      0x20\n      add\n      dup3\n      dup1\n      sload\n      tag_115\n      swap1\n      tag_91\n      jump\t// in\n    tag_115:\n      dup1\n      iszero\n      tag_116\n      jumpi\n      dup1\n      0x1f\n      lt\n      tag_117\n      jumpi\n      0x0100\n      dup1\n      dup4\n      sload\n      div\n      mul\n      dup4\n      mstore\n      swap2\n      0x20\n      add\n      swap2\n      jump(tag_116)\n    tag_117:\n      dup3\n      add\n      swap2\n      swap1\n      0x00\n      mstore\n      keccak256(0x00, 0x20)\n      swap1\n    tag_118:\n      dup2\n      sload\n      dup2\n      mstore\n      swap1\n      0x01\n      add\n      swap1\n      0x20\n      add\n      dup1\n      dup4\n      gt\n      tag_118\n      jumpi\n      dup3\n      swap1\n      sub\n      0x1f\n      and\n      dup3\n      add\n      swap2\n    tag_116:\n      pop\n      pop\n      pop\n      pop\n      pop\n      dup2\n      mstore\n      0x20\n      add\n      0x02\n      dup3\n      add\n      sload\n      dup2\n      mstore\n      pop\n      pop\n      swap1\n      pop\n        /* \"contracts/Shops.sol\":5753:5761  sellUser */\n      dup3\n        /* \"contracts/Shops.sol\":5753:5771  sellUser.userLogin */\n      0x20\n      add\n      mload\n        /* \"contracts/Shops.sol\":5739:5771  sellerLogin = sellUser.userLogin */\n      swap9\n      pop\n        /* \"contracts/Shops.sol\":5787:5795  sellUser */\n      dup3\n        /* \"contracts/Shops.sol\":5787:5799  sellUser.fio */\n      0x40\n      add\n      mload\n        /* \"contracts/Shops.sol\":5781:5799  fio = sellUser.fio */\n      swap8\n      pop\n        /* \"contracts/Shops.sol\":5816:5824  sellShop */\n      dup1\n        /* \"contracts/Shops.sol\":5816:5829  sellShop.city */\n      0x20\n      add\n      mload\n        /* \"contracts/Shops.sol\":5809:5829  city = sellShop.city */\n      swap7\n      pop\n        /* \"contracts/Shops.sol\":5852:5860  sellShop */\n      dup1\n        /* \"contracts/Shops.sol\":5852:5867  sellShop.number */\n      0x00\n      add\n      mload\n        /* \"contracts/Shops.sol\":5839:5867  shopNumber = sellShop.number */\n      swap6\n      pop\n        /* \"contracts/Shops.sol\":5887:5895  sellUser */\n      dup3\n        /* \"contracts/Shops.sol\":5887:5903  sellUser.reviews */\n      0x60\n      add\n      mload\n        /* \"contracts/Shops.sol\":5877:5903  reviews = sellUser.reviews */\n      swap5\n      pop\n        /* \"contracts/Shops.sol\":5557:5910  {... */\n      pop\n      pop\n      pop\n        /* \"contracts/Shops.sol\":5297:5910  function getSellerInfoByAddr(address sellerAddr) public view isUserStatus(UserRoles.admin)returns(... */\n      pop\n      swap2\n      swap4\n      swap6\n      swap1\n      swap3\n      swap5\n      pop\n      jump\t// out\n        /* \"contracts/Shops.sol\":2521:2708  function registerBank(string memory bankLogin,address bankAddr) public isAdmin {... */\n    tag_30:\n        /* \"contracts/Shops.sol\":958:963  admin */\n      0x04\n      0x00\n      swap1\n      sload\n      swap1\n      0x0100\n      exp\n      swap1\n      div\n      0xffffffffffffffffffffffffffffffffffffffff\n      and\n        /* \"contracts/Shops.sol\":944:963  msg.sender == admin */\n      0xffffffffffffffffffffffffffffffffffffffff\n      and\n        /* \"contracts/Shops.sol\":944:954  msg.sender */\n      caller\n        /* \"contracts/Shops.sol\":944:963  msg.sender == admin */\n      0xffffffffffffffffffffffffffffffffffffffff\n      and\n      eq\n        /* \"contracts/Shops.sol\":936:980  require(msg.sender == admin,\"You not admin\") */\n      tag_120\n      jumpi\n      mload(0x40)\n      0x08c379a000000000000000000000000000000000000000000000000000000000\n      dup2\n      mstore\n      0x04\n      add\n      tag_121\n      swap1\n      tag_122\n      jump\t// in\n    tag_121:\n      mload(0x40)\n      dup1\n      swap2\n      sub\n      swap1\n      revert\n    tag_120:\n        /* \"contracts/Shops.sol\":2610:2621  uint status */\n      0x00\n        /* \"contracts/Shops.sol\":2629:2643  UserRoles.bank */\n      0x05\n        /* \"contracts/Shops.sol\":2624:2644  uint(UserRoles.bank) */\n      dup1\n      dup2\n      gt\n      iszero\n      tag_124\n      jumpi\n      tag_125\n      tag_85\n      jump\t// in\n    tag_125:\n    tag_124:\n        /* \"contracts/Shops.sol\":2610:2644  uint status = uint(UserRoles.bank) */\n      swap1\n      pop\n        /* \"contracts/Shops.sol\":2654:2701  registerFromAdmin(\"\",bankLogin,status,bankAddr) */\n      tag_126\n      mload(0x40)\n      dup1\n      0x20\n      add\n      0x40\n      mstore\n      dup1\n      0x00\n      dup2\n      mstore\n      pop\n        /* \"contracts/Shops.sol\":2675:2684  bankLogin */\n      dup5\n        /* \"contracts/Shops.sol\":2685:2691  status */\n      dup4\n        /* \"contracts/Shops.sol\":2692:2700  bankAddr */\n      dup6\n        /* \"contracts/Shops.sol\":2654:2671  registerFromAdmin */\n      tag_127\n        /* \"contracts/Shops.sol\":2654:2701  registerFromAdmin(\"\",bankLogin,status,bankAddr) */\n      jump\t// in\n    tag_126:\n        /* \"contracts/Shops.sol\":2600:2708  {... */\n      pop\n        /* \"contracts/Shops.sol\":2521:2708  function registerBank(string memory bankLogin,address bankAddr) public isAdmin {... */\n      pop\n      pop\n      jump\t// out\n        /* \"contracts/Shops.sol\":5916:6333  function createReview(... */\n    tag_34:\n        /* \"contracts/AuthService.sol\":1453:1492  compare(users[msg.sender].userLogin,\"\") */\n      tag_129\n        /* \"contracts/AuthService.sol\":1461:1466  users */\n      0x02\n        /* \"contracts/AuthService.sol\":1461:1478  users[msg.sender] */\n      0x00\n        /* \"contracts/AuthService.sol\":1467:1477  msg.sender */\n      caller\n        /* \"contracts/AuthService.sol\":1461:1478  users[msg.sender] */\n      0xffffffffffffffffffffffffffffffffffffffff\n      and\n      0xffffffffffffffffffffffffffffffffffffffff\n      and\n      dup2\n      mstore\n      0x20\n      add\n      swap1\n      dup2\n      mstore\n      0x20\n      add\n      0x00\n      keccak256\n        /* \"contracts/AuthService.sol\":1461:1488  users[msg.sender].userLogin */\n      0x01\n      add\n        /* \"contracts/AuthService.sol\":1453:1492  compare(users[msg.sender].userLogin,\"\") */\n      dup1\n      sload\n      tag_130\n      swap1\n      tag_91\n      jump\t// in\n    tag_130:\n      dup1\n      0x1f\n      add\n      0x20\n      dup1\n      swap2\n      div\n      mul\n      0x20\n      add\n      mload(0x40)\n      swap1\n      dup2\n      add\n      0x40\n      mstore\n      dup1\n      swap3\n      swap2\n      swap1\n      dup2\n      dup2\n      mstore\n      0x20\n      add\n      dup3\n      dup1\n      sload\n      tag_131\n      swap1\n      tag_91\n      jump\t// in\n    tag_131:\n      dup1\n      iszero\n      tag_132\n      jumpi\n      dup1\n      0x1f\n      lt\n      tag_133\n      jumpi\n      0x0100\n      dup1\n      dup4\n      sload\n      div\n      mul\n      dup4\n      mstore\n      swap2\n      0x20\n      add\n      swap2\n      jump(tag_132)\n    tag_133:\n      dup3\n      add\n      swap2\n      swap1\n      0x00\n      mstore\n      keccak256(0x00, 0x20)\n      swap1\n    tag_134:\n      dup2\n      sload\n      dup2\n      mstore\n      swap1\n      0x01\n      add\n      swap1\n      0x20\n      add\n      dup1\n      dup4\n      gt\n      tag_134\n      jumpi\n      dup3\n      swap1\n      sub\n      0x1f\n      and\n      dup3\n      add\n      swap2\n    tag_132:\n      pop\n      pop\n      pop\n      pop\n      pop\n      mload(0x40)\n      dup1\n      0x20\n      add\n      0x40\n      mstore\n      dup1\n      0x00\n      dup2\n      mstore\n      pop\n        /* \"contracts/AuthService.sol\":1453:1460  compare */\n      tag_135\n        /* \"contracts/AuthService.sol\":1453:1492  compare(users[msg.sender].userLogin,\"\") */\n      jump\t// in\n    tag_129:\n        /* \"contracts/AuthService.sol\":1452:1492  !compare(users[msg.sender].userLogin,\"\") */\n      iszero\n        /* \"contracts/AuthService.sol\":1444:1508  require(!compare(users[msg.sender].userLogin,\"\"),\"You not user\") */\n      tag_136\n      jumpi\n      mload(0x40)\n      0x08c379a000000000000000000000000000000000000000000000000000000000\n      dup2\n      mstore\n      0x04\n      add\n      tag_137\n      swap1\n      tag_138\n      jump\t// in\n    tag_137:\n      mload(0x40)\n      dup1\n      swap2\n      sub\n      swap1\n      revert\n    tag_136:\n        /* \"contracts/Shops.sol\":6123:6147  Review memory userReview */\n      0x00\n        /* \"contracts/Shops.sol\":6150:6199  Review(msg.sender,shopAddr,userMessage,0,0,grade) */\n      mload(0x40)\n      dup1\n      0xc0\n      add\n      0x40\n      mstore\n      dup1\n        /* \"contracts/Shops.sol\":6157:6167  msg.sender */\n      caller\n        /* \"contracts/Shops.sol\":6150:6199  Review(msg.sender,shopAddr,userMessage,0,0,grade) */\n      0xffffffffffffffffffffffffffffffffffffffff\n      and\n      dup2\n      mstore\n      0x20\n      add\n        /* \"contracts/Shops.sol\":6168:6176  shopAddr */\n      dup9\n        /* \"contracts/Shops.sol\":6150:6199  Review(msg.sender,shopAddr,userMessage,0,0,grade) */\n      0xffffffffffffffffffffffffffffffffffffffff\n      and\n      dup2\n      mstore\n      0x20\n      add\n        /* \"contracts/Shops.sol\":6177:6188  userMessage */\n      dup8\n        /* \"contracts/Shops.sol\":6150:6199  Review(msg.sender,shopAddr,userMessage,0,0,grade) */\n      dup2\n      mstore\n      0x20\n      add\n        /* \"contracts/Shops.sol\":6189:6190  0 */\n      0x00\n        /* \"contracts/Shops.sol\":6150:6199  Review(msg.sender,shopAddr,userMessage,0,0,grade) */\n      dup2\n      mstore\n      0x20\n      add\n        /* \"contracts/Shops.sol\":6191:6192  0 */\n      0x00\n        /* \"contracts/Shops.sol\":6150:6199  Review(msg.sender,shopAddr,userMessage,0,0,grade) */\n      dup2\n      mstore\n      0x20\n      add\n        /* \"contracts/Shops.sol\":6193:6198  grade */\n      dup4\n        /* \"contracts/Shops.sol\":6150:6199  Review(msg.sender,shopAddr,userMessage,0,0,grade) */\n      dup2\n      mstore\n      pop\n        /* \"contracts/Shops.sol\":6123:6199  Review memory userReview = Review(msg.sender,shopAddr,userMessage,0,0,grade) */\n      swap1\n      pop\n        /* \"contracts/Shops.sol\":6209:6227  string[] memory ls */\n      0x00\n        /* \"contracts/Shops.sol\":6230:6241  shopReviews */\n      0x0d\n        /* \"contracts/Shops.sol\":6230:6251  shopReviews[shopAddr] */\n      0x00\n        /* \"contracts/Shops.sol\":6242:6250  shopAddr */\n      dup10\n        /* \"contracts/Shops.sol\":6230:6251  shopReviews[shopAddr] */\n      0xffffffffffffffffffffffffffffffffffffffff\n      and\n      0xffffffffffffffffffffffffffffffffffffffff\n      and\n      dup2\n      mstore\n      0x20\n      add\n      swap1\n      dup2\n      mstore\n      0x20\n      add\n      0x00\n      keccak256\n        /* \"contracts/Shops.sol\":6209:6251  string[] memory ls = shopReviews[shopAddr] */\n      dup1\n      sload\n      dup1\n      0x20\n      mul\n      0x20\n      add\n      mload(0x40)\n      swap1\n      dup2\n      add\n      0x40\n      mstore\n      dup1\n      swap3\n      swap2\n      swap1\n      dup2\n      dup2\n      mstore\n      0x20\n      add\n      0x00\n      swap1\n    tag_140:\n      dup3\n      dup3\n      lt\n      iszero\n      tag_141\n      jumpi\n      dup4\n      dup3\n      swap1\n      0x00\n      mstore\n      keccak256(0x00, 0x20)\n      add\n      dup1\n      sload\n      tag_143\n      swap1\n      tag_91\n      jump\t// in\n    tag_143:\n      dup1\n      0x1f\n      add\n      0x20\n      dup1\n      swap2\n      div\n      mul\n      0x20\n      add\n      mload(0x40)\n      swap1\n      dup2\n      add\n      0x40\n      mstore\n      dup1\n      swap3\n      swap2\n      swap1\n      dup2\n      dup2\n      mstore\n      0x20\n      add\n      dup3\n      dup1\n      sload\n      tag_144\n      swap1\n      tag_91\n      jump\t// in\n    tag_144:\n      dup1\n      iszero\n      tag_145\n      jumpi\n      dup1\n      0x1f\n      lt\n      tag_146\n      jumpi\n      0x0100\n      dup1\n      dup4\n      sload\n      div\n      mul\n      dup4\n      mstore\n      swap2\n      0x20\n      add\n      swap2\n      jump(tag_145)\n    tag_146:\n      dup3\n      add\n      swap2\n      swap1\n      0x00\n      mstore\n      keccak256(0x00, 0x20)\n      swap1\n    tag_147:\n      dup2\n      sload\n      dup2\n      mstore\n      swap1\n      0x01\n      add\n      swap1\n      0x20\n      add\n      dup1\n      dup4\n      gt\n      tag_147\n      jumpi\n      dup3\n      swap1\n      sub\n      0x1f\n      and\n      dup3\n      add\n      swap2\n    tag_145:\n      pop\n      pop\n      pop\n      pop\n      pop\n      dup2\n      mstore\n      0x20\n      add\n      swap1\n      0x01\n      add\n      swap1\n      jump(tag_140)\n    tag_141:\n      pop\n      pop\n      pop\n      pop\n      swap1\n      pop\n        /* \"contracts/Shops.sol\":6261:6272  shopReviews */\n      0x0d\n        /* \"contracts/Shops.sol\":6261:6282  shopReviews[shopAddr] */\n      0x00\n        /* \"contracts/Shops.sol\":6273:6281  shopAddr */\n      dup10\n        /* \"contracts/Shops.sol\":6261:6282  shopReviews[shopAddr] */\n      0xffffffffffffffffffffffffffffffffffffffff\n      and\n      0xffffffffffffffffffffffffffffffffffffffff\n      and\n      dup2\n      mstore\n      0x20\n      add\n      swap1\n      dup2\n      mstore\n      0x20\n      add\n      0x00\n      keccak256\n        /* \"contracts/Shops.sol\":6288:6290  id */\n      dup7\n        /* \"contracts/Shops.sol\":6261:6291  shopReviews[shopAddr].push(id) */\n      swap1\n      dup1\n      0x01\n      dup2\n      sload\n      add\n      dup1\n      dup3\n      sstore\n      dup1\n      swap2\n      pop\n      pop\n      0x01\n      swap1\n      sub\n      swap1\n      0x00\n      mstore\n      keccak256(0x00, 0x20)\n      add\n      0x00\n      swap1\n      swap2\n      swap1\n      swap2\n      swap1\n      swap2\n      pop\n      swap1\n      dup1\n      mload\n      swap1\n      0x20\n      add\n      swap1\n      tag_149\n      swap3\n      swap2\n      swap1\n      tag_150\n      jump\t// in\n    tag_149:\n      pop\n        /* \"contracts/Shops.sol\":6316:6326  userReview */\n      dup2\n        /* \"contracts/Shops.sol\":6301:6309  reviewId */\n      0x0e\n        /* \"contracts/Shops.sol\":6310:6312  id */\n      dup8\n        /* \"contracts/Shops.sol\":6301:6313  reviewId[id] */\n      mload(0x40)\n      tag_151\n      swap2\n      swap1\n      tag_152\n      jump\t// in\n    tag_151:\n      swap1\n      dup2\n      mstore\n      0x20\n      add\n      mload(0x40)\n      dup1\n      swap2\n      sub\n      swap1\n      keccak256\n        /* \"contracts/Shops.sol\":6301:6326  reviewId[id] = userReview */\n      0x00\n      dup3\n      add\n      mload\n      dup2\n      0x00\n      add\n      exp(0x0100, 0x00)\n      dup2\n      sload\n      dup2\n      0xffffffffffffffffffffffffffffffffffffffff\n      mul\n      not\n      and\n      swap1\n      dup4\n      0xffffffffffffffffffffffffffffffffffffffff\n      and\n      mul\n      or\n      swap1\n      sstore\n      pop\n      0x20\n      dup3\n      add\n      mload\n      dup2\n      0x01\n      add\n      exp(0x0100, 0x00)\n      dup2\n      sload\n      dup2\n      0xffffffffffffffffffffffffffffffffffffffff\n      mul\n      not\n      and\n      swap1\n      dup4\n      0xffffffffffffffffffffffffffffffffffffffff\n      and\n      mul\n      or\n      swap1\n      sstore\n      pop\n      0x40\n      dup3\n      add\n      mload\n      dup2\n      0x02\n      add\n      swap1\n      dup1\n      mload\n      swap1\n      0x20\n      add\n      swap1\n      tag_153\n      swap3\n      swap2\n      swap1\n      tag_150\n      jump\t// in\n    tag_153:\n      pop\n      0x60\n      dup3\n      add\n      mload\n      dup2\n      0x03\n      add\n      sstore\n      0x80\n      dup3\n      add\n      mload\n      dup2\n      0x04\n      add\n      sstore\n      0xa0\n      dup3\n      add\n      mload\n      dup2\n      0x05\n      add\n      sstore\n      swap1\n      pop\n      pop\n        /* \"contracts/Shops.sol\":6113:6333  {... */\n      pop\n      pop\n        /* \"contracts/Shops.sol\":5916:6333  function createReview(... */\n      pop\n      pop\n      pop\n      pop\n      pop\n      pop\n      jump\t// out\n        /* \"contracts/AuthService.sol\":2244:2544  function login(string memory userLogin) public view isRegistered(userLogin) returns(address userAddress,string memory status){... */\n    tag_38:\n        /* \"contracts/AuthService.sol\":2328:2347  address userAddress */\n      0x00\n        /* \"contracts/AuthService.sol\":2348:2368  string memory status */\n      0x60\n        /* \"contracts/AuthService.sol\":2309:2318  userLogin */\n      dup3\n        /* \"contracts/AuthService.sol\":1376:1377  0 */\n      0x00\n        /* \"contracts/AuthService.sol\":1343:1378  userLogins[userLogin] != address(0) */\n      0xffffffffffffffffffffffffffffffffffffffff\n      and\n        /* \"contracts/AuthService.sol\":1343:1353  userLogins */\n      0x01\n        /* \"contracts/AuthService.sol\":1354:1363  userLogin */\n      dup3\n        /* \"contracts/AuthService.sol\":1343:1364  userLogins[userLogin] */\n      mload(0x40)\n      tag_155\n      swap2\n      swap1\n      tag_152\n      jump\t// in\n    tag_155:\n      swap1\n      dup2\n      mstore\n      0x20\n      add\n      mload(0x40)\n      dup1\n      swap2\n      sub\n      swap1\n      keccak256\n      0x00\n      swap1\n      sload\n      swap1\n      0x0100\n      exp\n      swap1\n      div\n      0xffffffffffffffffffffffffffffffffffffffff\n      and\n        /* \"contracts/AuthService.sol\":1343:1378  userLogins[userLogin] != address(0) */\n      0xffffffffffffffffffffffffffffffffffffffff\n      and\n      eq\n      iszero\n        /* \"contracts/AuthService.sol\":1335:1393  require(userLogins[userLogin] != address(0),\"Wrong Login\") */\n      tag_156\n      jumpi\n      mload(0x40)\n      0x08c379a000000000000000000000000000000000000000000000000000000000\n      dup2\n      mstore\n      0x04\n      add\n      tag_157\n      swap1\n      tag_158\n      jump\t// in\n    tag_157:\n      mload(0x40)\n      dup1\n      swap2\n      sub\n      swap1\n      revert\n    tag_156:\n        /* \"contracts/AuthService.sol\":2379:2395  address userAddr */\n      0x00\n        /* \"contracts/AuthService.sol\":2398:2408  userLogins */\n      0x01\n        /* \"contracts/AuthService.sol\":2409:2418  userLogin */\n      dup6\n        /* \"contracts/AuthService.sol\":2398:2419  userLogins[userLogin] */\n      mload(0x40)\n      tag_160\n      swap2\n      swap1\n      tag_152\n      jump\t// in\n    tag_160:\n      swap1\n      dup2\n      mstore\n      0x20\n      add\n      mload(0x40)\n      dup1\n      swap2\n      sub\n      swap1\n      keccak256\n      0x00\n      swap1\n      sload\n      swap1\n      0x0100\n      exp\n      swap1\n      div\n      0xffffffffffffffffffffffffffffffffffffffff\n      and\n        /* \"contracts/AuthService.sol\":2379:2419  address userAddr = userLogins[userLogin] */\n      swap1\n      pop\n        /* \"contracts/AuthService.sol\":2429:2445  User memory user */\n      0x00\n        /* \"contracts/AuthService.sol\":2448:2453  users */\n      0x02\n        /* \"contracts/AuthService.sol\":2448:2463  users[userAddr] */\n      0x00\n        /* \"contracts/AuthService.sol\":2454:2462  userAddr */\n      dup4\n        /* \"contracts/AuthService.sol\":2448:2463  users[userAddr] */\n      0xffffffffffffffffffffffffffffffffffffffff\n      and\n      0xffffffffffffffffffffffffffffffffffffffff\n      and\n      dup2\n      mstore\n      0x20\n      add\n      swap1\n      dup2\n      mstore\n      0x20\n      add\n      0x00\n      keccak256\n        /* \"contracts/AuthService.sol\":2429:2463  User memory user = users[userAddr] */\n      mload(0x40)\n      dup1\n      0x80\n      add\n      0x40\n      mstore\n      swap1\n      dup2\n      0x00\n      dup3\n      add\n      sload\n      dup2\n      mstore\n      0x20\n      add\n      0x01\n      dup3\n      add\n      dup1\n      sload\n      tag_161\n      swap1\n      tag_91\n      jump\t// in\n    tag_161:\n      dup1\n      0x1f\n      add\n      0x20\n      dup1\n      swap2\n      div\n      mul\n      0x20\n      add\n      mload(0x40)\n      swap1\n      dup2\n      add\n      0x40\n      mstore\n      dup1\n      swap3\n      swap2\n      swap1\n      dup2\n      dup2\n      mstore\n      0x20\n      add\n      dup3\n      dup1\n      sload\n      tag_162\n      swap1\n      tag_91\n      jump\t// in\n    tag_162:\n      dup1\n      iszero\n      tag_163\n      jumpi\n      dup1\n      0x1f\n      lt\n      tag_164\n      jumpi\n      0x0100\n      dup1\n      dup4\n      sload\n      div\n      mul\n      dup4\n      mstore\n      swap2\n      0x20\n      add\n      swap2\n      jump(tag_163)\n    tag_164:\n      dup3\n      add\n      swap2\n      swap1\n      0x00\n      mstore\n      keccak256(0x00, 0x20)\n      swap1\n    tag_165:\n      dup2\n      sload\n      dup2\n      mstore\n      swap1\n      0x01\n      add\n      swap1\n      0x20\n      add\n      dup1\n      dup4\n      gt\n      tag_165\n      jumpi\n      dup3\n      swap1\n      sub\n      0x1f\n      and\n      dup3\n      add\n      swap2\n    tag_163:\n      pop\n      pop\n      pop\n      pop\n      pop\n      dup2\n      mstore\n      0x20\n      add\n      0x02\n      dup3\n      add\n      dup1\n      sload\n      tag_166\n      swap1\n      tag_91\n      jump\t// in\n    tag_166:\n      dup1\n      0x1f\n      add\n      0x20\n      dup1\n      swap2\n      div\n      mul\n      0x20\n      add\n      mload(0x40)\n      swap1\n      dup2\n      add\n      0x40\n      mstore\n      dup1\n      swap3\n      swap2\n      swap1\n      dup2\n      dup2\n      mstore\n      0x20\n      add\n      dup3\n      dup1\n      sload\n      tag_167\n      swap1\n      tag_91\n      jump\t// in\n    tag_167:\n      dup1\n      iszero\n      tag_168\n      jumpi\n      dup1\n      0x1f\n      lt\n      tag_169\n      jumpi\n      0x0100\n      dup1\n      dup4\n      sload\n      div\n      mul\n      dup4\n      mstore\n      swap2\n      0x20\n      add\n      swap2\n      jump(tag_168)\n    tag_169:\n      dup3\n      add\n      swap2\n      swap1\n      0x00\n      mstore\n      keccak256(0x00, 0x20)\n      swap1\n    tag_170:\n      dup2\n      sload\n      dup2\n      mstore\n      swap1\n      0x01\n      add\n      swap1\n      0x20\n      add\n      dup1\n      dup4\n      gt\n      tag_170\n      jumpi\n      dup3\n      swap1\n      sub\n      0x1f\n      and\n      dup3\n      add\n      swap2\n    tag_168:\n      pop\n      pop\n      pop\n      pop\n      pop\n      dup2\n      mstore\n      0x20\n      add\n      0x03\n      dup3\n      add\n      dup1\n      sload\n      dup1\n      0x20\n      mul\n      0x20\n      add\n      mload(0x40)\n      swap1\n      dup2\n      add\n      0x40\n      mstore\n      dup1\n      swap3\n      swap2\n      swap1\n      dup2\n      dup2\n      mstore\n      0x20\n      add\n      0x00\n      swap1\n    tag_171:\n      dup3\n      dup3\n      lt\n      iszero\n      tag_172\n      jumpi\n      dup4\n      dup3\n      swap1\n      0x00\n      mstore\n      keccak256(0x00, 0x20)\n      add\n      dup1\n      sload\n      tag_174\n      swap1\n      tag_91\n      jump\t// in\n    tag_174:\n      dup1\n      0x1f\n      add\n      0x20\n      dup1\n      swap2\n      div\n      mul\n      0x20\n      add\n      mload(0x40)\n      swap1\n      dup2\n      add\n      0x40\n      mstore\n      dup1\n      swap3\n      swap2\n      swap1\n      dup2\n      dup2\n      mstore\n      0x20\n      add\n      dup3\n      dup1\n      sload\n      tag_175\n      swap1\n      tag_91\n      jump\t// in\n    tag_175:\n      dup1\n      iszero\n      tag_176\n      jumpi\n      dup1\n      0x1f\n      lt\n      tag_177\n      jumpi\n      0x0100\n      dup1\n      dup4\n      sload\n      div\n      mul\n      dup4\n      mstore\n      swap2\n      0x20\n      add\n      swap2\n      jump(tag_176)\n    tag_177:\n      dup3\n      add\n      swap2\n      swap1\n      0x00\n      mstore\n      keccak256(0x00, 0x20)\n      swap1\n    tag_178:\n      dup2\n      sload\n      dup2\n      mstore\n      swap1\n      0x01\n      add\n      swap1\n      0x20\n      add\n      dup1\n      dup4\n      gt\n      tag_178\n      jumpi\n      dup3\n      swap1\n      sub\n      0x1f\n      and\n      dup3\n      add\n      swap2\n    tag_176:\n      pop\n      pop\n      pop\n      pop\n      pop\n      dup2\n      mstore\n      0x20\n      add\n      swap1\n      0x01\n      add\n      swap1\n      jump(tag_171)\n    tag_172:\n      pop\n      pop\n      pop\n      pop\n      dup2\n      mstore\n      pop\n      pop\n      swap1\n      pop\n        /* \"contracts/AuthService.sol\":2487:2495  userAddr */\n      dup2\n        /* \"contracts/AuthService.sol\":2473:2495  userAddress = userAddr */\n      swap5\n      pop\n        /* \"contracts/AuthService.sol\":2514:2524  userStatus */\n      0x00\n        /* \"contracts/AuthService.sol\":2514:2537  userStatus[user.status] */\n      dup1\n        /* \"contracts/AuthService.sol\":2525:2529  user */\n      dup3\n        /* \"contracts/AuthService.sol\":2525:2536  user.status */\n      0x00\n      add\n      mload\n        /* \"contracts/AuthService.sol\":2514:2537  userStatus[user.status] */\n      dup2\n      mstore\n      0x20\n      add\n      swap1\n      dup2\n      mstore\n      0x20\n      add\n      0x00\n      keccak256\n        /* \"contracts/AuthService.sol\":2505:2537  status = userStatus[user.status] */\n      dup1\n      sload\n      tag_179\n      swap1\n      tag_91\n      jump\t// in\n    tag_179:\n      dup1\n      0x1f\n      add\n      0x20\n      dup1\n      swap2\n      div\n      mul\n      0x20\n      add\n      mload(0x40)\n      swap1\n      dup2\n      add\n      0x40\n      mstore\n      dup1\n      swap3\n      swap2\n      swap1\n      dup2\n      dup2\n      mstore\n      0x20\n      add\n      dup3\n      dup1\n      sload\n      tag_180\n      swap1\n      tag_91\n      jump\t// in\n    tag_180:\n      dup1\n      iszero\n      tag_181\n      jumpi\n      dup1\n      0x1f\n      lt\n      tag_182\n      jumpi\n      0x0100\n      dup1\n      dup4\n      sload\n      div\n      mul\n      dup4\n      mstore\n      swap2\n      0x20\n      add\n      swap2\n      jump(tag_181)\n    tag_182:\n      dup3\n      add\n      swap2\n      swap1\n      0x00\n      mstore\n      keccak256(0x00, 0x20)\n      swap1\n    tag_183:\n      dup2\n      sload\n      dup2\n      mstore\n      swap1\n      0x01\n      add\n      swap1\n      0x20\n      add\n      dup1\n      dup4\n      gt\n      tag_183\n      jumpi\n      dup3\n      swap1\n      sub\n      0x1f\n      and\n      dup3\n      add\n      swap2\n    tag_181:\n      pop\n      pop\n      pop\n      pop\n      pop\n      swap4\n      pop\n        /* \"contracts/AuthService.sol\":2369:2544  {... */\n      pop\n      pop\n        /* \"contracts/AuthService.sol\":2244:2544  function login(string memory userLogin) public view isRegistered(userLogin) returns(address userAddress,string memory status){... */\n      pop\n      swap2\n      pop\n      swap2\n      jump\t// out\n        /* \"contracts/Shops.sol\":3677:4268  function getSellerInfo() public view isUserStatus(UserRoles.seller) returns(... */\n    tag_42:\n        /* \"contracts/Shops.sol\":3762:3787  string memory sellerLogin */\n      0x60\n        /* \"contracts/Shops.sol\":3797:3814  string memory fio */\n      dup1\n        /* \"contracts/Shops.sol\":3824:3842  string memory city */\n      0x60\n        /* \"contracts/Shops.sol\":3852:3876  string memory shopNumber */\n      dup1\n        /* \"contracts/Shops.sol\":3886:3909  string[] memory reviews */\n      0x60\n        /* \"contracts/Shops.sol\":3727:3743  UserRoles.seller */\n      0x01\n        /* \"contracts/AuthService.sol\":1605:1610  users */\n      0x02\n        /* \"contracts/AuthService.sol\":1605:1622  users[msg.sender] */\n      0x00\n        /* \"contracts/AuthService.sol\":1611:1621  msg.sender */\n      caller\n        /* \"contracts/AuthService.sol\":1605:1622  users[msg.sender] */\n      0xffffffffffffffffffffffffffffffffffffffff\n      and\n      0xffffffffffffffffffffffffffffffffffffffff\n      and\n      dup2\n      mstore\n      0x20\n      add\n      swap1\n      dup2\n      mstore\n      0x20\n      add\n      0x00\n      keccak256\n        /* \"contracts/AuthService.sol\":1605:1629  users[msg.sender].status */\n      0x00\n      add\n      sload\n        /* \"contracts/AuthService.sol\":1594:1600  status */\n      dup2\n        /* \"contracts/AuthService.sol\":1589:1601  uint(status) */\n      0x05\n      dup2\n      gt\n      iszero\n      tag_185\n      jumpi\n      tag_186\n      tag_85\n      jump\t// in\n    tag_186:\n    tag_185:\n        /* \"contracts/AuthService.sol\":1589:1629  uint(status) == users[msg.sender].status */\n      eq\n        /* \"contracts/AuthService.sol\":1581:1642  require(uint(status) == users[msg.sender].status,\"Forbidden\") */\n      tag_187\n      jumpi\n      mload(0x40)\n      0x08c379a000000000000000000000000000000000000000000000000000000000\n      dup2\n      mstore\n      0x04\n      add\n      tag_188\n      swap1\n      tag_88\n      jump\t// in\n    tag_188:\n      mload(0x40)\n      dup1\n      swap2\n      sub\n      swap1\n      revert\n    tag_187:\n        /* \"contracts/Shops.sol\":3925:3945  User memory sellUser */\n      0x00\n        /* \"contracts/Shops.sol\":3948:3953  users */\n      0x02\n        /* \"contracts/Shops.sol\":3948:3965  users[msg.sender] */\n      0x00\n        /* \"contracts/Shops.sol\":3954:3964  msg.sender */\n      caller\n        /* \"contracts/Shops.sol\":3948:3965  users[msg.sender] */\n      0xffffffffffffffffffffffffffffffffffffffff\n      and\n      0xffffffffffffffffffffffffffffffffffffffff\n      and\n      dup2\n      mstore\n      0x20\n      add\n      swap1\n      dup2\n      mstore\n      0x20\n      add\n      0x00\n      keccak256\n        /* \"contracts/Shops.sol\":3925:3965  User memory sellUser = users[msg.sender] */\n      mload(0x40)\n      dup1\n      0x80\n      add\n      0x40\n      mstore\n      swap1\n      dup2\n      0x00\n      dup3\n      add\n      sload\n      dup2\n      mstore\n      0x20\n      add\n      0x01\n      dup3\n      add\n      dup1\n      sload\n      tag_190\n      swap1\n      tag_91\n      jump\t// in\n    tag_190:\n      dup1\n      0x1f\n      add\n      0x20\n      dup1\n      swap2\n      div\n      mul\n      0x20\n      add\n      mload(0x40)\n      swap1\n      dup2\n      add\n      0x40\n      mstore\n      dup1\n      swap3\n      swap2\n      swap1\n      dup2\n      dup2\n      mstore\n      0x20\n      add\n      dup3\n      dup1\n      sload\n      tag_191\n      swap1\n      tag_91\n      jump\t// in\n    tag_191:\n      dup1\n      iszero\n      tag_192\n      jumpi\n      dup1\n      0x1f\n      lt\n      tag_193\n      jumpi\n      0x0100\n      dup1\n      dup4\n      sload\n      div\n      mul\n      dup4\n      mstore\n      swap2\n      0x20\n      add\n      swap2\n      jump(tag_192)\n    tag_193:\n      dup3\n      add\n      swap2\n      swap1\n      0x00\n      mstore\n      keccak256(0x00, 0x20)\n      swap1\n    tag_194:\n      dup2\n      sload\n      dup2\n      mstore\n      swap1\n      0x01\n      add\n      swap1\n      0x20\n      add\n      dup1\n      dup4\n      gt\n      tag_194\n      jumpi\n      dup3\n      swap1\n      sub\n      0x1f\n      and\n      dup3\n      add\n      swap2\n    tag_192:\n      pop\n      pop\n      pop\n      pop\n      pop\n      dup2\n      mstore\n      0x20\n      add\n      0x02\n      dup3\n      add\n      dup1\n      sload\n      tag_195\n      swap1\n      tag_91\n      jump\t// in\n    tag_195:\n      dup1\n      0x1f\n      add\n      0x20\n      dup1\n      swap2\n      div\n      mul\n      0x20\n      add\n      mload(0x40)\n      swap1\n      dup2\n      add\n      0x40\n      mstore\n      dup1\n      swap3\n      swap2\n      swap1\n      dup2\n      dup2\n      mstore\n      0x20\n      add\n      dup3\n      dup1\n      sload\n      tag_196\n      swap1\n      tag_91\n      jump\t// in\n    tag_196:\n      dup1\n      iszero\n      tag_197\n      jumpi\n      dup1\n      0x1f\n      lt\n      tag_198\n      jumpi\n      0x0100\n      dup1\n      dup4\n      sload\n      div\n      mul\n      dup4\n      mstore\n      swap2\n      0x20\n      add\n      swap2\n      jump(tag_197)\n    tag_198:\n      dup3\n      add\n      swap2\n      swap1\n      0x00\n      mstore\n      keccak256(0x00, 0x20)\n      swap1\n    tag_199:\n      dup2\n      sload\n      dup2\n      mstore\n      swap1\n      0x01\n      add\n      swap1\n      0x20\n      add\n      dup1\n      dup4\n      gt\n      tag_199\n      jumpi\n      dup3\n      swap1\n      sub\n      0x1f\n      and\n      dup3\n      add\n      swap2\n    tag_197:\n      pop\n      pop\n      pop\n      pop\n      pop\n      dup2\n      mstore\n      0x20\n      add\n      0x03\n      dup3\n      add\n      dup1\n      sload\n      dup1\n      0x20\n      mul\n      0x20\n      add\n      mload(0x40)\n      swap1\n      dup2\n      add\n      0x40\n      mstore\n      dup1\n      swap3\n      swap2\n      swap1\n      dup2\n      dup2\n      mstore\n      0x20\n      add\n      0x00\n      swap1\n    tag_200:\n      dup3\n      dup3\n      lt\n      iszero\n      tag_201\n      jumpi\n      dup4\n      dup3\n      swap1\n      0x00\n      mstore\n      keccak256(0x00, 0x20)\n      add\n      dup1\n      sload\n      tag_203\n      swap1\n      tag_91\n      jump\t// in\n    tag_203:\n      dup1\n      0x1f\n      add\n      0x20\n      dup1\n      swap2\n      div\n      mul\n      0x20\n      add\n      mload(0x40)\n      swap1\n      dup2\n      add\n      0x40\n      mstore\n      dup1\n      swap3\n      swap2\n      swap1\n      dup2\n      dup2\n      mstore\n      0x20\n      add\n      dup3\n      dup1\n      sload\n      tag_204\n      swap1\n      tag_91\n      jump\t// in\n    tag_204:\n      dup1\n      iszero\n      tag_205\n      jumpi\n      dup1\n      0x1f\n      lt\n      tag_206\n      jumpi\n      0x0100\n      dup1\n      dup4\n      sload\n      div\n      mul\n      dup4\n      mstore\n      swap2\n      0x20\n      add\n      swap2\n      jump(tag_205)\n    tag_206:\n      dup3\n      add\n      swap2\n      swap1\n      0x00\n      mstore\n      keccak256(0x00, 0x20)\n      swap1\n    tag_207:\n      dup2\n      sload\n      dup2\n      mstore\n      swap1\n      0x01\n      add\n      swap1\n      0x20\n      add\n      dup1\n      dup4\n      gt\n      tag_207\n      jumpi\n      dup3\n      swap1\n      sub\n      0x1f\n      and\n      dup3\n      add\n      swap2\n    tag_205:\n      pop\n      pop\n      pop\n      pop\n      pop\n      dup2\n      mstore\n      0x20\n      add\n      swap1\n      0x01\n      add\n      swap1\n      jump(tag_200)\n    tag_201:\n      pop\n      pop\n      pop\n      pop\n      dup2\n      mstore\n      pop\n      pop\n      swap1\n      pop\n        /* \"contracts/Shops.sol\":3975:3995  address sellShopAddr */\n      0x00\n        /* \"contracts/Shops.sol\":3998:4010  salesmanShop */\n      0x0b\n        /* \"contracts/Shops.sol\":3998:4022  salesmanShop[msg.sender] */\n      0x00\n        /* \"contracts/Shops.sol\":4011:4021  msg.sender */\n      caller\n        /* \"contracts/Shops.sol\":3998:4022  salesmanShop[msg.sender] */\n      0xffffffffffffffffffffffffffffffffffffffff\n      and\n      0xffffffffffffffffffffffffffffffffffffffff\n      and\n      dup2\n      mstore\n      0x20\n      add\n      swap1\n      dup2\n      mstore\n      0x20\n      add\n      0x00\n      keccak256\n      0x00\n      swap1\n      sload\n      swap1\n      0x0100\n      exp\n      swap1\n      div\n      0xffffffffffffffffffffffffffffffffffffffff\n      and\n        /* \"contracts/Shops.sol\":3975:4022  address sellShopAddr = salesmanShop[msg.sender] */\n      swap1\n      pop\n        /* \"contracts/Shops.sol\":4032:4052  Shop memory sellShop */\n      0x00\n        /* \"contracts/Shops.sol\":4055:4064  ShopsList */\n      0x0a\n        /* \"contracts/Shops.sol\":4055:4078  ShopsList[sellShopAddr] */\n      0x00\n        /* \"contracts/Shops.sol\":4065:4077  sellShopAddr */\n      dup4\n        /* \"contracts/Shops.sol\":4055:4078  ShopsList[sellShopAddr] */\n      0xffffffffffffffffffffffffffffffffffffffff\n      and\n      0xffffffffffffffffffffffffffffffffffffffff\n      and\n      dup2\n      mstore\n      0x20\n      add\n      swap1\n      dup2\n      mstore\n      0x20\n      add\n      0x00\n      keccak256\n        /* \"contracts/Shops.sol\":4032:4078  Shop memory sellShop = ShopsList[sellShopAddr] */\n      mload(0x40)\n      dup1\n      0x60\n      add\n      0x40\n      mstore\n      swap1\n      dup2\n      0x00\n      dup3\n      add\n      dup1\n      sload\n      tag_208\n      swap1\n      tag_91\n      jump\t// in\n    tag_208:\n      dup1\n      0x1f\n      add\n      0x20\n      dup1\n      swap2\n      div\n      mul\n      0x20\n      add\n      mload(0x40)\n      swap1\n      dup2\n      add\n      0x40\n      mstore\n      dup1\n      swap3\n      swap2\n      swap1\n      dup2\n      dup2\n      mstore\n      0x20\n      add\n      dup3\n      dup1\n      sload\n      tag_209\n      swap1\n      tag_91\n      jump\t// in\n    tag_209:\n      dup1\n      iszero\n      tag_210\n      jumpi\n      dup1\n      0x1f\n      lt\n      tag_211\n      jumpi\n      0x0100\n      dup1\n      dup4\n      sload\n      div\n      mul\n      dup4\n      mstore\n      swap2\n      0x20\n      add\n      swap2\n      jump(tag_210)\n    tag_211:\n      dup3\n      add\n      swap2\n      swap1\n      0x00\n      mstore\n      keccak256(0x00, 0x20)\n      swap1\n    tag_212:\n      dup2\n      sload\n      dup2\n      mstore\n      swap1\n      0x01\n      add\n      swap1\n      0x20\n      add\n      dup1\n      dup4\n      gt\n      tag_212\n      jumpi\n      dup3\n      swap1\n      sub\n      0x1f\n      and\n      dup3\n      add\n      swap2\n    tag_210:\n      pop\n      pop\n      pop\n      pop\n      pop\n      dup2\n      mstore\n      0x20\n      add\n      0x01\n      dup3\n      add\n      dup1\n      sload\n      tag_213\n      swap1\n      tag_91\n      jump\t// in\n    tag_213:\n      dup1\n      0x1f\n      add\n      0x20\n      dup1\n      swap2\n      div\n      mul\n      0x20\n      add\n      mload(0x40)\n      swap1\n      dup2\n      add\n      0x40\n      mstore\n      dup1\n      swap3\n      swap2\n      swap1\n      dup2\n      dup2\n      mstore\n      0x20\n      add\n      dup3\n      dup1\n      sload\n      tag_214\n      swap1\n      tag_91\n      jump\t// in\n    tag_214:\n      dup1\n      iszero\n      tag_215\n      jumpi\n      dup1\n      0x1f\n      lt\n      tag_216\n      jumpi\n      0x0100\n      dup1\n      dup4\n      sload\n      div\n      mul\n      dup4\n      mstore\n      swap2\n      0x20\n      add\n      swap2\n      jump(tag_215)\n    tag_216:\n      dup3\n      add\n      swap2\n      swap1\n      0x00\n      mstore\n      keccak256(0x00, 0x20)\n      swap1\n    tag_217:\n      dup2\n      sload\n      dup2\n      mstore\n      swap1\n      0x01\n      add\n      swap1\n      0x20\n      add\n      dup1\n      dup4\n      gt\n      tag_217\n      jumpi\n      dup3\n      swap1\n      sub\n      0x1f\n      and\n      dup3\n      add\n      swap2\n    tag_215:\n      pop\n      pop\n      pop\n      pop\n      pop\n      dup2\n      mstore\n      0x20\n      add\n      0x02\n      dup3\n      add\n      sload\n      dup2\n      mstore\n      pop\n      pop\n      swap1\n      pop\n        /* \"contracts/Shops.sol\":4111:4119  sellUser */\n      dup3\n        /* \"contracts/Shops.sol\":4111:4129  sellUser.userLogin */\n      0x20\n      add\n      mload\n        /* \"contracts/Shops.sol\":4097:4129  sellerLogin = sellUser.userLogin */\n      swap9\n      pop\n        /* \"contracts/Shops.sol\":4145:4153  sellUser */\n      dup3\n        /* \"contracts/Shops.sol\":4145:4157  sellUser.fio */\n      0x40\n      add\n      mload\n        /* \"contracts/Shops.sol\":4139:4157  fio = sellUser.fio */\n      swap8\n      pop\n        /* \"contracts/Shops.sol\":4174:4182  sellShop */\n      dup1\n        /* \"contracts/Shops.sol\":4174:4187  sellShop.city */\n      0x20\n      add\n      mload\n        /* \"contracts/Shops.sol\":4167:4187  city = sellShop.city */\n      swap7\n      pop\n        /* \"contracts/Shops.sol\":4210:4218  sellShop */\n      dup1\n        /* \"contracts/Shops.sol\":4210:4225  sellShop.number */\n      0x00\n      add\n      mload\n        /* \"contracts/Shops.sol\":4197:4225  shopNumber = sellShop.number */\n      swap6\n      pop\n        /* \"contracts/Shops.sol\":4245:4253  sellUser */\n      dup3\n        /* \"contracts/Shops.sol\":4245:4261  sellUser.reviews */\n      0x60\n      add\n      mload\n        /* \"contracts/Shops.sol\":4235:4261  reviews = sellUser.reviews */\n      swap5\n      pop\n        /* \"contracts/Shops.sol\":3915:4268  {... */\n      pop\n      pop\n      pop\n        /* \"contracts/Shops.sol\":3677:4268  function getSellerInfo() public view isUserStatus(UserRoles.seller) returns(... */\n      pop\n      swap1\n      swap2\n      swap3\n      swap4\n      swap5\n      jump\t// out\n        /* \"contracts/Shops.sol\":1751:2102  function registerShop(address shopAddr,string memory number,string memory city,string memory shopLogin) public isUserStatus(UserRoles.admin){... */\n    tag_47:\n        /* \"contracts/Shops.sol\":1875:1890  UserRoles.admin */\n      0x03\n        /* \"contracts/AuthService.sol\":1605:1610  users */\n      0x02\n        /* \"contracts/AuthService.sol\":1605:1622  users[msg.sender] */\n      0x00\n        /* \"contracts/AuthService.sol\":1611:1621  msg.sender */\n      caller\n        /* \"contracts/AuthService.sol\":1605:1622  users[msg.sender] */\n      0xffffffffffffffffffffffffffffffffffffffff\n      and\n      0xffffffffffffffffffffffffffffffffffffffff\n      and\n      dup2\n      mstore\n      0x20\n      add\n      swap1\n      dup2\n      mstore\n      0x20\n      add\n      0x00\n      keccak256\n        /* \"contracts/AuthService.sol\":1605:1629  users[msg.sender].status */\n      0x00\n      add\n      sload\n        /* \"contracts/AuthService.sol\":1594:1600  status */\n      dup2\n        /* \"contracts/AuthService.sol\":1589:1601  uint(status) */\n      0x05\n      dup2\n      gt\n      iszero\n      tag_219\n      jumpi\n      tag_220\n      tag_85\n      jump\t// in\n    tag_220:\n    tag_219:\n        /* \"contracts/AuthService.sol\":1589:1629  uint(status) == users[msg.sender].status */\n      eq\n        /* \"contracts/AuthService.sol\":1581:1642  require(uint(status) == users[msg.sender].status,\"Forbidden\") */\n      tag_221\n      jumpi\n      mload(0x40)\n      0x08c379a000000000000000000000000000000000000000000000000000000000\n      dup2\n      mstore\n      0x04\n      add\n      tag_222\n      swap1\n      tag_88\n      jump\t// in\n    tag_222:\n      mload(0x40)\n      dup1\n      swap2\n      sub\n      swap1\n      revert\n    tag_221:\n        /* \"contracts/Shops.sol\":1901:1917  Shop memory shop */\n      0x00\n        /* \"contracts/Shops.sol\":1920:1958  Shop({number:number,city:city,debt:0}) */\n      mload(0x40)\n      dup1\n      0x60\n      add\n      0x40\n      mstore\n      dup1\n        /* \"contracts/Shops.sol\":1933:1939  number */\n      dup7\n        /* \"contracts/Shops.sol\":1920:1958  Shop({number:number,city:city,debt:0}) */\n      dup2\n      mstore\n      0x20\n      add\n        /* \"contracts/Shops.sol\":1945:1949  city */\n      dup6\n        /* \"contracts/Shops.sol\":1920:1958  Shop({number:number,city:city,debt:0}) */\n      dup2\n      mstore\n      0x20\n      add\n        /* \"contracts/Shops.sol\":1955:1956  0 */\n      0x00\n        /* \"contracts/Shops.sol\":1920:1958  Shop({number:number,city:city,debt:0}) */\n      dup2\n      mstore\n      pop\n        /* \"contracts/Shops.sol\":1901:1958  Shop memory shop = Shop({number:number,city:city,debt:0}) */\n      swap1\n      pop\n        /* \"contracts/Shops.sol\":1990:1994  shop */\n      dup1\n        /* \"contracts/Shops.sol\":1968:1977  ShopsList */\n      0x0a\n        /* \"contracts/Shops.sol\":1968:1987  ShopsList[shopAddr] */\n      0x00\n        /* \"contracts/Shops.sol\":1978:1986  shopAddr */\n      dup9\n        /* \"contracts/Shops.sol\":1968:1987  ShopsList[shopAddr] */\n      0xffffffffffffffffffffffffffffffffffffffff\n      and\n      0xffffffffffffffffffffffffffffffffffffffff\n      and\n      dup2\n      mstore\n      0x20\n      add\n      swap1\n      dup2\n      mstore\n      0x20\n      add\n      0x00\n      keccak256\n        /* \"contracts/Shops.sol\":1968:1994  ShopsList[shopAddr] = shop */\n      0x00\n      dup3\n      add\n      mload\n      dup2\n      0x00\n      add\n      swap1\n      dup1\n      mload\n      swap1\n      0x20\n      add\n      swap1\n      tag_224\n      swap3\n      swap2\n      swap1\n      tag_150\n      jump\t// in\n    tag_224:\n      pop\n      0x20\n      dup3\n      add\n      mload\n      dup2\n      0x01\n      add\n      swap1\n      dup1\n      mload\n      swap1\n      0x20\n      add\n      swap1\n      tag_225\n      swap3\n      swap2\n      swap1\n      tag_150\n      jump\t// in\n    tag_225:\n      pop\n      0x40\n      dup3\n      add\n      mload\n      dup2\n      0x02\n      add\n      sstore\n      swap1\n      pop\n      pop\n        /* \"contracts/Shops.sol\":2004:2015  uint status */\n      0x00\n        /* \"contracts/Shops.sol\":2023:2037  UserRoles.shop */\n      0x02\n        /* \"contracts/Shops.sol\":2018:2038  uint(UserRoles.shop) */\n      0x05\n      dup2\n      gt\n      iszero\n      tag_226\n      jumpi\n      tag_227\n      tag_85\n      jump\t// in\n    tag_227:\n    tag_226:\n        /* \"contracts/Shops.sol\":2004:2038  uint status = uint(UserRoles.shop) */\n      swap1\n      pop\n        /* \"contracts/Shops.sol\":2048:2095  registerFromAdmin(\"\",shopLogin,status,shopAddr) */\n      tag_228\n      mload(0x40)\n      dup1\n      0x20\n      add\n      0x40\n      mstore\n      dup1\n      0x00\n      dup2\n      mstore\n      pop\n        /* \"contracts/Shops.sol\":2069:2078  shopLogin */\n      dup6\n        /* \"contracts/Shops.sol\":2079:2085  status */\n      dup4\n        /* \"contracts/Shops.sol\":2086:2094  shopAddr */\n      dup11\n        /* \"contracts/Shops.sol\":2048:2065  registerFromAdmin */\n      tag_127\n        /* \"contracts/Shops.sol\":2048:2095  registerFromAdmin(\"\",shopLogin,status,shopAddr) */\n      jump\t// in\n    tag_228:\n        /* \"contracts/Shops.sol\":1891:2102  {... */\n      pop\n      pop\n        /* \"contracts/Shops.sol\":1751:2102  function registerShop(address shopAddr,string memory number,string memory city,string memory shopLogin) public isUserStatus(UserRoles.admin){... */\n      pop\n      pop\n      pop\n      pop\n      pop\n      jump\t// out\n        /* \"contracts/Shops.sol\":6339:6405  function likeReview(string memory reviewId) public isUser {... */\n    tag_50:\n        /* \"contracts/AuthService.sol\":1453:1492  compare(users[msg.sender].userLogin,\"\") */\n      tag_230\n        /* \"contracts/AuthService.sol\":1461:1466  users */\n      0x02\n        /* \"contracts/AuthService.sol\":1461:1478  users[msg.sender] */\n      0x00\n        /* \"contracts/AuthService.sol\":1467:1477  msg.sender */\n      caller\n        /* \"contracts/AuthService.sol\":1461:1478  users[msg.sender] */\n      0xffffffffffffffffffffffffffffffffffffffff\n      and\n      0xffffffffffffffffffffffffffffffffffffffff\n      and\n      dup2\n      mstore\n      0x20\n      add\n      swap1\n      dup2\n      mstore\n      0x20\n      add\n      0x00\n      keccak256\n        /* \"contracts/AuthService.sol\":1461:1488  users[msg.sender].userLogin */\n      0x01\n      add\n        /* \"contracts/AuthService.sol\":1453:1492  compare(users[msg.sender].userLogin,\"\") */\n      dup1\n      sload\n      tag_231\n      swap1\n      tag_91\n      jump\t// in\n    tag_231:\n      dup1\n      0x1f\n      add\n      0x20\n      dup1\n      swap2\n      div\n      mul\n      0x20\n      add\n      mload(0x40)\n      swap1\n      dup2\n      add\n      0x40\n      mstore\n      dup1\n      swap3\n      swap2\n      swap1\n      dup2\n      dup2\n      mstore\n      0x20\n      add\n      dup3\n      dup1\n      sload\n      tag_232\n      swap1\n      tag_91\n      jump\t// in\n    tag_232:\n      dup1\n      iszero\n      tag_233\n      jumpi\n      dup1\n      0x1f\n      lt\n      tag_234\n      jumpi\n      0x0100\n      dup1\n      dup4\n      sload\n      div\n      mul\n      dup4\n      mstore\n      swap2\n      0x20\n      add\n      swap2\n      jump(tag_233)\n    tag_234:\n      dup3\n      add\n      swap2\n      swap1\n      0x00\n      mstore\n      keccak256(0x00, 0x20)\n      swap1\n    tag_235:\n      dup2\n      sload\n      dup2\n      mstore\n      swap1\n      0x01\n      add\n      swap1\n      0x20\n      add\n      dup1\n      dup4\n      gt\n      tag_235\n      jumpi\n      dup3\n      swap1\n      sub\n      0x1f\n      and\n      dup3\n      add\n      swap2\n    tag_233:\n      pop\n      pop\n      pop\n      pop\n      pop\n      mload(0x40)\n      dup1\n      0x20\n      add\n      0x40\n      mstore\n      dup1\n      0x00\n      dup2\n      mstore\n      pop\n        /* \"contracts/AuthService.sol\":1453:1460  compare */\n      tag_135\n        /* \"contracts/AuthService.sol\":1453:1492  compare(users[msg.sender].userLogin,\"\") */\n      jump\t// in\n    tag_230:\n        /* \"contracts/AuthService.sol\":1452:1492  !compare(users[msg.sender].userLogin,\"\") */\n      iszero\n        /* \"contracts/AuthService.sol\":1444:1508  require(!compare(users[msg.sender].userLogin,\"\"),\"You not user\") */\n      tag_236\n      jumpi\n      mload(0x40)\n      0x08c379a000000000000000000000000000000000000000000000000000000000\n      dup2\n      mstore\n      0x04\n      add\n      tag_237\n      swap1\n      tag_138\n      jump\t// in\n    tag_237:\n      mload(0x40)\n      dup1\n      swap2\n      sub\n      swap1\n      revert\n    tag_236:\n        /* \"contracts/Shops.sol\":6339:6405  function likeReview(string memory reviewId) public isUser {... */\n      pop\n      jump\t// out\n        /* \"contracts/Shops.sol\":2202:2446  function registerProvider(string memory providerLogin,address providerAddr) public isAdmin {... */\n    tag_53:\n        /* \"contracts/Shops.sol\":958:963  admin */\n      0x04\n      0x00\n      swap1\n      sload\n      swap1\n      0x0100\n      exp\n      swap1\n      div\n      0xffffffffffffffffffffffffffffffffffffffff\n      and\n        /* \"contracts/Shops.sol\":944:963  msg.sender == admin */\n      0xffffffffffffffffffffffffffffffffffffffff\n      and\n        /* \"contracts/Shops.sol\":944:954  msg.sender */\n      caller\n        /* \"contracts/Shops.sol\":944:963  msg.sender == admin */\n      0xffffffffffffffffffffffffffffffffffffffff\n      and\n      eq\n        /* \"contracts/Shops.sol\":936:980  require(msg.sender == admin,\"You not admin\") */\n      tag_240\n      jumpi\n      mload(0x40)\n      0x08c379a000000000000000000000000000000000000000000000000000000000\n      dup2\n      mstore\n      0x04\n      add\n      tag_241\n      swap1\n      tag_122\n      jump\t// in\n    tag_241:\n      mload(0x40)\n      dup1\n      swap2\n      sub\n      swap1\n      revert\n    tag_240:\n        /* \"contracts/Shops.sol\":2303:2314  uint status */\n      0x00\n        /* \"contracts/Shops.sol\":2322:2340  UserRoles.provider */\n      0x04\n        /* \"contracts/Shops.sol\":2317:2341  uint(UserRoles.provider) */\n      0x05\n      dup2\n      gt\n      iszero\n      tag_243\n      jumpi\n      tag_244\n      tag_85\n      jump\t// in\n    tag_244:\n    tag_243:\n        /* \"contracts/Shops.sol\":2303:2341  uint status = uint(UserRoles.provider) */\n      swap1\n      pop\n        /* \"contracts/Shops.sol\":2351:2406  registerFromAdmin(\"\",providerLogin,status,providerAddr) */\n      tag_245\n      mload(0x40)\n      dup1\n      0x20\n      add\n      0x40\n      mstore\n      dup1\n      0x00\n      dup2\n      mstore\n      pop\n        /* \"contracts/Shops.sol\":2372:2385  providerLogin */\n      dup5\n        /* \"contracts/Shops.sol\":2386:2392  status */\n      dup4\n        /* \"contracts/Shops.sol\":2393:2405  providerAddr */\n      dup6\n        /* \"contracts/Shops.sol\":2351:2368  registerFromAdmin */\n      tag_127\n        /* \"contracts/Shops.sol\":2351:2406  registerFromAdmin(\"\",providerLogin,status,providerAddr) */\n      jump\t// in\n    tag_245:\n        /* \"contracts/Shops.sol\":2427:2439  providerAddr */\n      dup2\n        /* \"contracts/Shops.sol\":2416:2424  provider */\n      0x03\n      0x00\n        /* \"contracts/Shops.sol\":2416:2439  provider = providerAddr */\n      0x0100\n      exp\n      dup2\n      sload\n      dup2\n      0xffffffffffffffffffffffffffffffffffffffff\n      mul\n      not\n      and\n      swap1\n      dup4\n      0xffffffffffffffffffffffffffffffffffffffff\n      and\n      mul\n      or\n      swap1\n      sstore\n      pop\n        /* \"contracts/Shops.sol\":2293:2446  {... */\n      pop\n        /* \"contracts/Shops.sol\":2202:2446  function registerProvider(string memory providerLogin,address providerAddr) public isAdmin {... */\n      pop\n      pop\n      jump\t// out\n        /* \"contracts/Shops.sol\":2771:3037  function registerSeller(string memory fio,string memory userLogin,address userAddress,string memory shopAddr) public {... */\n    tag_57:\n        /* \"contracts/Shops.sol\":2898:2909  uint status */\n      0x00\n        /* \"contracts/Shops.sol\":2917:2933  UserRoles.seller */\n      0x01\n        /* \"contracts/Shops.sol\":2912:2934  uint(UserRoles.seller) */\n      0x05\n      dup2\n      gt\n      iszero\n      tag_247\n      jumpi\n      tag_248\n      tag_85\n      jump\t// in\n    tag_248:\n    tag_247:\n        /* \"contracts/Shops.sol\":2898:2934  uint status = uint(UserRoles.seller) */\n      swap1\n      pop\n        /* \"contracts/Shops.sol\":2944:2995  registerFromAdmin(fio,userLogin,status,userAddress) */\n      tag_249\n        /* \"contracts/Shops.sol\":2962:2965  fio */\n      dup6\n        /* \"contracts/Shops.sol\":2966:2975  userLogin */\n      dup6\n        /* \"contracts/Shops.sol\":2976:2982  status */\n      dup4\n        /* \"contracts/Shops.sol\":2983:2994  userAddress */\n      dup7\n        /* \"contracts/Shops.sol\":2944:2961  registerFromAdmin */\n      tag_127\n        /* \"contracts/Shops.sol\":2944:2995  registerFromAdmin(fio,userLogin,status,userAddress) */\n      jump\t// in\n    tag_249:\n        /* \"contracts/Shops.sol\":3005:3012  sellers */\n      0x07\n        /* \"contracts/Shops.sol\":3018:3029  userAddress */\n      dup4\n        /* \"contracts/Shops.sol\":3005:3030  sellers.push(userAddress) */\n      swap1\n      dup1\n      0x01\n      dup2\n      sload\n      add\n      dup1\n      dup3\n      sstore\n      dup1\n      swap2\n      pop\n      pop\n      0x01\n      swap1\n      sub\n      swap1\n      0x00\n      mstore\n      keccak256(0x00, 0x20)\n      add\n      0x00\n      swap1\n      swap2\n      swap1\n      swap2\n      swap1\n      swap2\n      0x0100\n      exp\n      dup2\n      sload\n      dup2\n      0xffffffffffffffffffffffffffffffffffffffff\n      mul\n      not\n      and\n      swap1\n      dup4\n      0xffffffffffffffffffffffffffffffffffffffff\n      and\n      mul\n      or\n      swap1\n      sstore\n      pop\n        /* \"contracts/Shops.sol\":2888:3037  {... */\n      pop\n        /* \"contracts/Shops.sol\":2771:3037  function registerSeller(string memory fio,string memory userLogin,address userAddress,string memory shopAddr) public {... */\n      pop\n      pop\n      pop\n      pop\n      jump\t// out\n        /* \"contracts/Shops.sol\":3398:3601  function doShopDebt(address payable shopAddr) public isUserStatus(UserRoles.bank) {... */\n    tag_61:\n        /* \"contracts/Shops.sol\":3464:3478  UserRoles.bank */\n      0x05\n        /* \"contracts/AuthService.sol\":1605:1610  users */\n      0x02\n        /* \"contracts/AuthService.sol\":1605:1622  users[msg.sender] */\n      0x00\n        /* \"contracts/AuthService.sol\":1611:1621  msg.sender */\n      caller\n        /* \"contracts/AuthService.sol\":1605:1622  users[msg.sender] */\n      0xffffffffffffffffffffffffffffffffffffffff\n      and\n      0xffffffffffffffffffffffffffffffffffffffff\n      and\n      dup2\n      mstore\n      0x20\n      add\n      swap1\n      dup2\n      mstore\n      0x20\n      add\n      0x00\n      keccak256\n        /* \"contracts/AuthService.sol\":1605:1629  users[msg.sender].status */\n      0x00\n      add\n      sload\n        /* \"contracts/AuthService.sol\":1594:1600  status */\n      dup2\n        /* \"contracts/AuthService.sol\":1589:1601  uint(status) */\n      0x05\n      dup2\n      gt\n      iszero\n      tag_252\n      jumpi\n      tag_253\n      tag_85\n      jump\t// in\n    tag_253:\n    tag_252:\n        /* \"contracts/AuthService.sol\":1589:1629  uint(status) == users[msg.sender].status */\n      eq\n        /* \"contracts/AuthService.sol\":1581:1642  require(uint(status) == users[msg.sender].status,\"Forbidden\") */\n      tag_254\n      jumpi\n      mload(0x40)\n      0x08c379a000000000000000000000000000000000000000000000000000000000\n      dup2\n      mstore\n      0x04\n      add\n      tag_255\n      swap1\n      tag_88\n      jump\t// in\n    tag_255:\n      mload(0x40)\n      dup1\n      swap2\n      sub\n      swap1\n      revert\n    tag_254:\n        /* \"contracts/Shops.sol\":3529:3539  1000 ether */\n      0x3635c9adc5dea00000\n        /* \"contracts/Shops.sol\":3506:3516  msg.sender */\n      caller\n        /* \"contracts/Shops.sol\":3498:3525  payable(msg.sender).balance */\n      0xffffffffffffffffffffffffffffffffffffffff\n      and\n      balance\n        /* \"contracts/Shops.sol\":3498:3539  payable(msg.sender).balance >= 1000 ether */\n      lt\n      iszero\n        /* \"contracts/Shops.sol\":3490:3554  require(payable(msg.sender).balance >= 1000 ether,\"Low balance\") */\n      tag_257\n      jumpi\n      mload(0x40)\n      0x08c379a000000000000000000000000000000000000000000000000000000000\n      dup2\n      mstore\n      0x04\n      add\n      tag_258\n      swap1\n      tag_259\n      jump\t// in\n    tag_258:\n      mload(0x40)\n      dup1\n      swap2\n      sub\n      swap1\n      revert\n    tag_257:\n        /* \"contracts/Shops.sol\":3564:3572  shopAddr */\n      dup2\n        /* \"contracts/Shops.sol\":3564:3581  shopAddr.transfer */\n      0xffffffffffffffffffffffffffffffffffffffff\n      and\n        /* \"contracts/Shops.sol\":3564:3593  shopAddr.transfer(1000 ether) */\n      0x08fc\n        /* \"contracts/Shops.sol\":3582:3592  1000 ether */\n      0x3635c9adc5dea00000\n        /* \"contracts/Shops.sol\":3564:3593  shopAddr.transfer(1000 ether) */\n      swap1\n      dup2\n      iszero\n      mul\n      swap1\n      mload(0x40)\n      0x00\n      mload(0x40)\n      dup1\n      dup4\n      sub\n      dup2\n      dup6\n      dup9\n      dup9\n      call\n      swap4\n      pop\n      pop\n      pop\n      pop\n      iszero\n      dup1\n      iszero\n      tag_261\n      jumpi\n      returndatasize\n      0x00\n      dup1\n      returndatacopy\n      revert(0x00, returndatasize)\n    tag_261:\n      pop\n        /* \"contracts/Shops.sol\":3398:3601  function doShopDebt(address payable shopAddr) public isUserStatus(UserRoles.bank) {... */\n      pop\n      pop\n      jump\t// out\n        /* \"contracts/Shops.sol\":4367:4731  function getBuyerInfo() public view isUser returns(... */\n    tag_63:\n        /* \"contracts/Shops.sol\":4427:4450  string memory userLogin */\n      0x60\n        /* \"contracts/Shops.sol\":4460:4477  string memory fio */\n      dup1\n        /* \"contracts/Shops.sol\":4487:4499  uint balance */\n      0x00\n        /* \"contracts/Shops.sol\":4509:4532  string[] memory reviews */\n      0x60\n        /* \"contracts/AuthService.sol\":1453:1492  compare(users[msg.sender].userLogin,\"\") */\n      tag_263\n        /* \"contracts/AuthService.sol\":1461:1466  users */\n      0x02\n        /* \"contracts/AuthService.sol\":1461:1478  users[msg.sender] */\n      0x00\n        /* \"contracts/AuthService.sol\":1467:1477  msg.sender */\n      caller\n        /* \"contracts/AuthService.sol\":1461:1478  users[msg.sender] */\n      0xffffffffffffffffffffffffffffffffffffffff\n      and\n      0xffffffffffffffffffffffffffffffffffffffff\n      and\n      dup2\n      mstore\n      0x20\n      add\n      swap1\n      dup2\n      mstore\n      0x20\n      add\n      0x00\n      keccak256\n        /* \"contracts/AuthService.sol\":1461:1488  users[msg.sender].userLogin */\n      0x01\n      add\n        /* \"contracts/AuthService.sol\":1453:1492  compare(users[msg.sender].userLogin,\"\") */\n      dup1\n      sload\n      tag_264\n      swap1\n      tag_91\n      jump\t// in\n    tag_264:\n      dup1\n      0x1f\n      add\n      0x20\n      dup1\n      swap2\n      div\n      mul\n      0x20\n      add\n      mload(0x40)\n      swap1\n      dup2\n      add\n      0x40\n      mstore\n      dup1\n      swap3\n      swap2\n      swap1\n      dup2\n      dup2\n      mstore\n      0x20\n      add\n      dup3\n      dup1\n      sload\n      tag_265\n      swap1\n      tag_91\n      jump\t// in\n    tag_265:\n      dup1\n      iszero\n      tag_266\n      jumpi\n      dup1\n      0x1f\n      lt\n      tag_267\n      jumpi\n      0x0100\n      dup1\n      dup4\n      sload\n      div\n      mul\n      dup4\n      mstore\n      swap2\n      0x20\n      add\n      swap2\n      jump(tag_266)\n    tag_267:\n      dup3\n      add\n      swap2\n      swap1\n      0x00\n      mstore\n      keccak256(0x00, 0x20)\n      swap1\n    tag_268:\n      dup2\n      sload\n      dup2\n      mstore\n      swap1\n      0x01\n      add\n      swap1\n      0x20\n      add\n      dup1\n      dup4\n      gt\n      tag_268\n      jumpi\n      dup3\n      swap1\n      sub\n      0x1f\n      and\n      dup3\n      add\n      swap2\n    tag_266:\n      pop\n      pop\n      pop\n      pop\n      pop\n      mload(0x40)\n      dup1\n      0x20\n      add\n      0x40\n      mstore\n      dup1\n      0x00\n      dup2\n      mstore\n      pop\n        /* \"contracts/AuthService.sol\":1453:1460  compare */\n      tag_135\n        /* \"contracts/AuthService.sol\":1453:1492  compare(users[msg.sender].userLogin,\"\") */\n      jump\t// in\n    tag_263:\n        /* \"contracts/AuthService.sol\":1452:1492  !compare(users[msg.sender].userLogin,\"\") */\n      iszero\n        /* \"contracts/AuthService.sol\":1444:1508  require(!compare(users[msg.sender].userLogin,\"\"),\"You not user\") */\n      tag_269\n      jumpi\n      mload(0x40)\n      0x08c379a000000000000000000000000000000000000000000000000000000000\n      dup2\n      mstore\n      0x04\n      add\n      tag_270\n      swap1\n      tag_138\n      jump\t// in\n    tag_270:\n      mload(0x40)\n      dup1\n      swap2\n      sub\n      swap1\n      revert\n    tag_269:\n        /* \"contracts/Shops.sol\":4548:4564  User memory user */\n      0x00\n        /* \"contracts/Shops.sol\":4567:4572  users */\n      0x02\n        /* \"contracts/Shops.sol\":4567:4584  users[msg.sender] */\n      0x00\n        /* \"contracts/Shops.sol\":4573:4583  msg.sender */\n      caller\n        /* \"contracts/Shops.sol\":4567:4584  users[msg.sender] */\n      0xffffffffffffffffffffffffffffffffffffffff\n      and\n      0xffffffffffffffffffffffffffffffffffffffff\n      and\n      dup2\n      mstore\n      0x20\n      add\n      swap1\n      dup2\n      mstore\n      0x20\n      add\n      0x00\n      keccak256\n        /* \"contracts/Shops.sol\":4548:4584  User memory user = users[msg.sender] */\n      mload(0x40)\n      dup1\n      0x80\n      add\n      0x40\n      mstore\n      swap1\n      dup2\n      0x00\n      dup3\n      add\n      sload\n      dup2\n      mstore\n      0x20\n      add\n      0x01\n      dup3\n      add\n      dup1\n      sload\n      tag_272\n      swap1\n      tag_91\n      jump\t// in\n    tag_272:\n      dup1\n      0x1f\n      add\n      0x20\n      dup1\n      swap2\n      div\n      mul\n      0x20\n      add\n      mload(0x40)\n      swap1\n      dup2\n      add\n      0x40\n      mstore\n      dup1\n      swap3\n      swap2\n      swap1\n      dup2\n      dup2\n      mstore\n      0x20\n      add\n      dup3\n      dup1\n      sload\n      tag_273\n      swap1\n      tag_91\n      jump\t// in\n    tag_273:\n      dup1\n      iszero\n      tag_274\n      jumpi\n      dup1\n      0x1f\n      lt\n      tag_275\n      jumpi\n      0x0100\n      dup1\n      dup4\n      sload\n      div\n      mul\n      dup4\n      mstore\n      swap2\n      0x20\n      add\n      swap2\n      jump(tag_274)\n    tag_275:\n      dup3\n      add\n      swap2\n      swap1\n      0x00\n      mstore\n      keccak256(0x00, 0x20)\n      swap1\n    tag_276:\n      dup2\n      sload\n      dup2\n      mstore\n      swap1\n      0x01\n      add\n      swap1\n      0x20\n      add\n      dup1\n      dup4\n      gt\n      tag_276\n      jumpi\n      dup3\n      swap1\n      sub\n      0x1f\n      and\n      dup3\n      add\n      swap2\n    tag_274:\n      pop\n      pop\n      pop\n      pop\n      pop\n      dup2\n      mstore\n      0x20\n      add\n      0x02\n      dup3\n      add\n      dup1\n      sload\n      tag_277\n      swap1\n      tag_91\n      jump\t// in\n    tag_277:\n      dup1\n      0x1f\n      add\n      0x20\n      dup1\n      swap2\n      div\n      mul\n      0x20\n      add\n      mload(0x40)\n      swap1\n      dup2\n      add\n      0x40\n      mstore\n      dup1\n      swap3\n      swap2\n      swap1\n      dup2\n      dup2\n      mstore\n      0x20\n      add\n      dup3\n      dup1\n      sload\n      tag_278\n      swap1\n      tag_91\n      jump\t// in\n    tag_278:\n      dup1\n      iszero\n      tag_279\n      jumpi\n      dup1\n      0x1f\n      lt\n      tag_280\n      jumpi\n      0x0100\n      dup1\n      dup4\n      sload\n      div\n      mul\n      dup4\n      mstore\n      swap2\n      0x20\n      add\n      swap2\n      jump(tag_279)\n    tag_280:\n      dup3\n      add\n      swap2\n      swap1\n      0x00\n      mstore\n      keccak256(0x00, 0x20)\n      swap1\n    tag_281:\n      dup2\n      sload\n      dup2\n      mstore\n      swap1\n      0x01\n      add\n      swap1\n      0x20\n      add\n      dup1\n      dup4\n      gt\n      tag_281\n      jumpi\n      dup3\n      swap1\n      sub\n      0x1f\n      and\n      dup3\n      add\n      swap2\n    tag_279:\n      pop\n      pop\n      pop\n      pop\n      pop\n      dup2\n      mstore\n      0x20\n      add\n      0x03\n      dup3\n      add\n      dup1\n      sload\n      dup1\n      0x20\n      mul\n      0x20\n      add\n      mload(0x40)\n      swap1\n      dup2\n      add\n      0x40\n      mstore\n      dup1\n      swap3\n      swap2\n      swap1\n      dup2\n      dup2\n      mstore\n      0x20\n      add\n      0x00\n      swap1\n    tag_282:\n      dup3\n      dup3\n      lt\n      iszero\n      tag_283\n      jumpi\n      dup4\n      dup3\n      swap1\n      0x00\n      mstore\n      keccak256(0x00, 0x20)\n      add\n      dup1\n      sload\n      tag_285\n      swap1\n      tag_91\n      jump\t// in\n    tag_285:\n      dup1\n      0x1f\n      add\n      0x20\n      dup1\n      swap2\n      div\n      mul\n      0x20\n      add\n      mload(0x40)\n      swap1\n      dup2\n      add\n      0x40\n      mstore\n      dup1\n      swap3\n      swap2\n      swap1\n      dup2\n      dup2\n      mstore\n      0x20\n      add\n      dup3\n      dup1\n      sload\n      tag_286\n      swap1\n      tag_91\n      jump\t// in\n    tag_286:\n      dup1\n      iszero\n      tag_287\n      jumpi\n      dup1\n      0x1f\n      lt\n      tag_288\n      jumpi\n      0x0100\n      dup1\n      dup4\n      sload\n      div\n      mul\n      dup4\n      mstore\n      swap2\n      0x20\n      add\n      swap2\n      jump(tag_287)\n    tag_288:\n      dup3\n      add\n      swap2\n      swap1\n      0x00\n      mstore\n      keccak256(0x00, 0x20)\n      swap1\n    tag_289:\n      dup2\n      sload\n      dup2\n      mstore\n      swap1\n      0x01\n      add\n      swap1\n      0x20\n      add\n      dup1\n      dup4\n      gt\n      tag_289\n      jumpi\n      dup3\n      swap1\n      sub\n      0x1f\n      and\n      dup3\n      add\n      swap2\n    tag_287:\n      pop\n      pop\n      pop\n      pop\n      pop\n      dup2\n      mstore\n      0x20\n      add\n      swap1\n      0x01\n      add\n      swap1\n      jump(tag_282)\n    tag_283:\n      pop\n      pop\n      pop\n      pop\n      dup2\n      mstore\n      pop\n      pop\n      swap1\n      pop\n        /* \"contracts/Shops.sol\":4607:4611  user */\n      dup1\n        /* \"contracts/Shops.sol\":4607:4621  user.userLogin */\n      0x20\n      add\n      mload\n        /* \"contracts/Shops.sol\":4595:4621  userLogin = user.userLogin */\n      swap5\n      pop\n        /* \"contracts/Shops.sol\":4637:4641  user */\n      dup1\n        /* \"contracts/Shops.sol\":4637:4645  user.fio */\n      0x40\n      add\n      mload\n        /* \"contracts/Shops.sol\":4631:4645  fio = user.fio */\n      swap4\n      pop\n        /* \"contracts/Shops.sol\":4673:4683  msg.sender */\n      caller\n        /* \"contracts/Shops.sol\":4665:4692  payable(msg.sender).balance */\n      0xffffffffffffffffffffffffffffffffffffffff\n      and\n      balance\n        /* \"contracts/Shops.sol\":4655:4692  balance = payable(msg.sender).balance */\n      swap3\n      pop\n        /* \"contracts/Shops.sol\":4712:4716  user */\n      dup1\n        /* \"contracts/Shops.sol\":4712:4724  user.reviews */\n      0x60\n      add\n      mload\n        /* \"contracts/Shops.sol\":4702:4724  reviews = user.reviews */\n      swap2\n      pop\n        /* \"contracts/Shops.sol\":4538:4731  {... */\n      pop\n        /* \"contracts/Shops.sol\":4367:4731  function getBuyerInfo() public view isUser returns(... */\n      swap1\n      swap2\n      swap3\n      swap4\n      jump\t// out\n        /* \"contracts/Shops.sol\":3104:3303  function registerBuyer(string memory fio,string memory userLogin,address userAddr) public{... */\n    tag_69:\n        /* \"contracts/Shops.sol\":3203:3214  uint status */\n      0x00\n        /* \"contracts/Shops.sol\":3222:3237  UserRoles.buyer */\n      dup1\n        /* \"contracts/Shops.sol\":3217:3238  uint(UserRoles.buyer) */\n      0x05\n      dup2\n      gt\n      iszero\n      tag_291\n      jumpi\n      tag_292\n      tag_85\n      jump\t// in\n    tag_292:\n    tag_291:\n        /* \"contracts/Shops.sol\":3203:3238  uint status = uint(UserRoles.buyer) */\n      swap1\n      pop\n        /* \"contracts/Shops.sol\":3248:3296  registerFromAdmin(fio,userLogin,status,userAddr) */\n      tag_293\n        /* \"contracts/Shops.sol\":3266:3269  fio */\n      dup5\n        /* \"contracts/Shops.sol\":3270:3279  userLogin */\n      dup5\n        /* \"contracts/Shops.sol\":3280:3286  status */\n      dup4\n        /* \"contracts/Shops.sol\":3287:3295  userAddr */\n      dup6\n        /* \"contracts/Shops.sol\":3248:3265  registerFromAdmin */\n      tag_127\n        /* \"contracts/Shops.sol\":3248:3296  registerFromAdmin(fio,userLogin,status,userAddr) */\n      jump\t// in\n    tag_293:\n        /* \"contracts/Shops.sol\":3193:3303  {... */\n      pop\n        /* \"contracts/Shops.sol\":3104:3303  function registerBuyer(string memory fio,string memory userLogin,address userAddr) public{... */\n      pop\n      pop\n      pop\n      jump\t// out\n        /* \"contracts/Shops.sol\":1432:1690  function regAdmin(address adminAddr,string memory fio,string memory userLogin) public isUserStatus(UserRoles.admin){... */\n    tag_73:\n        /* \"contracts/Shops.sol\":1531:1546  UserRoles.admin */\n      0x03\n        /* \"contracts/AuthService.sol\":1605:1610  users */\n      0x02\n        /* \"contracts/AuthService.sol\":1605:1622  users[msg.sender] */\n      0x00\n        /* \"contracts/AuthService.sol\":1611:1621  msg.sender */\n      caller\n        /* \"contracts/AuthService.sol\":1605:1622  users[msg.sender] */\n      0xffffffffffffffffffffffffffffffffffffffff\n      and\n      0xffffffffffffffffffffffffffffffffffffffff\n      and\n      dup2\n      mstore\n      0x20\n      add\n      swap1\n      dup2\n      mstore\n      0x20\n      add\n      0x00\n      keccak256\n        /* \"contracts/AuthService.sol\":1605:1629  users[msg.sender].status */\n      0x00\n      add\n      sload\n        /* \"contracts/AuthService.sol\":1594:1600  status */\n      dup2\n        /* \"contracts/AuthService.sol\":1589:1601  uint(status) */\n      0x05\n      dup2\n      gt\n      iszero\n      tag_295\n      jumpi\n      tag_296\n      tag_85\n      jump\t// in\n    tag_296:\n    tag_295:\n        /* \"contracts/AuthService.sol\":1589:1629  uint(status) == users[msg.sender].status */\n      eq\n        /* \"contracts/AuthService.sol\":1581:1642  require(uint(status) == users[msg.sender].status,\"Forbidden\") */\n      tag_297\n      jumpi\n      mload(0x40)\n      0x08c379a000000000000000000000000000000000000000000000000000000000\n      dup2\n      mstore\n      0x04\n      add\n      tag_298\n      swap1\n      tag_88\n      jump\t// in\n    tag_298:\n      mload(0x40)\n      dup1\n      swap2\n      sub\n      swap1\n      revert\n    tag_297:\n        /* \"contracts/Shops.sol\":1557:1568  uint status */\n      0x00\n        /* \"contracts/Shops.sol\":1576:1591  UserRoles.admin */\n      0x03\n        /* \"contracts/Shops.sol\":1571:1592  uint(UserRoles.admin) */\n      0x05\n      dup2\n      gt\n      iszero\n      tag_300\n      jumpi\n      tag_301\n      tag_85\n      jump\t// in\n    tag_301:\n    tag_300:\n        /* \"contracts/Shops.sol\":1557:1592  uint status = uint(UserRoles.admin) */\n      swap1\n      pop\n        /* \"contracts/Shops.sol\":1602:1651  registerFromAdmin(fio,userLogin,status,adminAddr) */\n      tag_302\n        /* \"contracts/Shops.sol\":1620:1623  fio */\n      dup5\n        /* \"contracts/Shops.sol\":1624:1633  userLogin */\n      dup5\n        /* \"contracts/Shops.sol\":1634:1640  status */\n      dup4\n        /* \"contracts/Shops.sol\":1641:1650  adminAddr */\n      dup9\n        /* \"contracts/Shops.sol\":1602:1619  registerFromAdmin */\n      tag_127\n        /* \"contracts/Shops.sol\":1602:1651  registerFromAdmin(fio,userLogin,status,adminAddr) */\n      jump\t// in\n    tag_302:\n        /* \"contracts/Shops.sol\":1661:1667  admins */\n      0x05\n        /* \"contracts/Shops.sol\":1673:1682  userLogin */\n      dup4\n        /* \"contracts/Shops.sol\":1661:1683  admins.push(userLogin) */\n      swap1\n      dup1\n      0x01\n      dup2\n      sload\n      add\n      dup1\n      dup3\n      sstore\n      dup1\n      swap2\n      pop\n      pop\n      0x01\n      swap1\n      sub\n      swap1\n      0x00\n      mstore\n      keccak256(0x00, 0x20)\n      add\n      0x00\n      swap1\n      swap2\n      swap1\n      swap2\n      swap1\n      swap2\n      pop\n      swap1\n      dup1\n      mload\n      swap1\n      0x20\n      add\n      swap1\n      tag_304\n      swap3\n      swap2\n      swap1\n      tag_150\n      jump\t// in\n    tag_304:\n      pop\n        /* \"contracts/Shops.sol\":1547:1690  {... */\n      pop\n        /* \"contracts/Shops.sol\":1432:1690  function regAdmin(address adminAddr,string memory fio,string memory userLogin) public isUserStatus(UserRoles.admin){... */\n      pop\n      pop\n      pop\n      pop\n      jump\t// out\n        /* \"contracts/Shops.sol\":4801:5200  function getAdminInfo() public view isUserStatus(UserRoles.admin) returns(... */\n    tag_75:\n        /* \"contracts/Shops.sol\":4884:4903  string memory login */\n      0x60\n        /* \"contracts/Shops.sol\":4913:4942  Request[] memory userRequests */\n      dup1\n        /* \"contracts/Shops.sol\":4952:4977  string[] memory adminList */\n      0x60\n        /* \"contracts/Shops.sol\":4987:5015  address[] memory sellersAddr */\n      dup1\n        /* \"contracts/Shops.sol\":4850:4865  UserRoles.admin */\n      0x03\n        /* \"contracts/AuthService.sol\":1605:1610  users */\n      0x02\n        /* \"contracts/AuthService.sol\":1605:1622  users[msg.sender] */\n      0x00\n        /* \"contracts/AuthService.sol\":1611:1621  msg.sender */\n      caller\n        /* \"contracts/AuthService.sol\":1605:1622  users[msg.sender] */\n      0xffffffffffffffffffffffffffffffffffffffff\n      and\n      0xffffffffffffffffffffffffffffffffffffffff\n      and\n      dup2\n      mstore\n      0x20\n      add\n      swap1\n      dup2\n      mstore\n      0x20\n      add\n      0x00\n      keccak256\n        /* \"contracts/AuthService.sol\":1605:1629  users[msg.sender].status */\n      0x00\n      add\n      sload\n        /* \"contracts/AuthService.sol\":1594:1600  status */\n      dup2\n        /* \"contracts/AuthService.sol\":1589:1601  uint(status) */\n      0x05\n      dup2\n      gt\n      iszero\n      tag_306\n      jumpi\n      tag_307\n      tag_85\n      jump\t// in\n    tag_307:\n    tag_306:\n        /* \"contracts/AuthService.sol\":1589:1629  uint(status) == users[msg.sender].status */\n      eq\n        /* \"contracts/AuthService.sol\":1581:1642  require(uint(status) == users[msg.sender].status,\"Forbidden\") */\n      tag_308\n      jumpi\n      mload(0x40)\n      0x08c379a000000000000000000000000000000000000000000000000000000000\n      dup2\n      mstore\n      0x04\n      add\n      tag_309\n      swap1\n      tag_88\n      jump\t// in\n    tag_309:\n      mload(0x40)\n      dup1\n      swap2\n      sub\n      swap1\n      revert\n    tag_308:\n        /* \"contracts/Shops.sol\":5032:5048  User memory user */\n      0x00\n        /* \"contracts/Shops.sol\":5051:5056  users */\n      0x02\n        /* \"contracts/Shops.sol\":5051:5068  users[msg.sender] */\n      0x00\n        /* \"contracts/Shops.sol\":5057:5067  msg.sender */\n      caller\n        /* \"contracts/Shops.sol\":5051:5068  users[msg.sender] */\n      0xffffffffffffffffffffffffffffffffffffffff\n      and\n      0xffffffffffffffffffffffffffffffffffffffff\n      and\n      dup2\n      mstore\n      0x20\n      add\n      swap1\n      dup2\n      mstore\n      0x20\n      add\n      0x00\n      keccak256\n        /* \"contracts/Shops.sol\":5032:5068  User memory user = users[msg.sender] */\n      mload(0x40)\n      dup1\n      0x80\n      add\n      0x40\n      mstore\n      swap1\n      dup2\n      0x00\n      dup3\n      add\n      sload\n      dup2\n      mstore\n      0x20\n      add\n      0x01\n      dup3\n      add\n      dup1\n      sload\n      tag_311\n      swap1\n      tag_91\n      jump\t// in\n    tag_311:\n      dup1\n      0x1f\n      add\n      0x20\n      dup1\n      swap2\n      div\n      mul\n      0x20\n      add\n      mload(0x40)\n      swap1\n      dup2\n      add\n      0x40\n      mstore\n      dup1\n      swap3\n      swap2\n      swap1\n      dup2\n      dup2\n      mstore\n      0x20\n      add\n      dup3\n      dup1\n      sload\n      tag_312\n      swap1\n      tag_91\n      jump\t// in\n    tag_312:\n      dup1\n      iszero\n      tag_313\n      jumpi\n      dup1\n      0x1f\n      lt\n      tag_314\n      jumpi\n      0x0100\n      dup1\n      dup4\n      sload\n      div\n      mul\n      dup4\n      mstore\n      swap2\n      0x20\n      add\n      swap2\n      jump(tag_313)\n    tag_314:\n      dup3\n      add\n      swap2\n      swap1\n      0x00\n      mstore\n      keccak256(0x00, 0x20)\n      swap1\n    tag_315:\n      dup2\n      sload\n      dup2\n      mstore\n      swap1\n      0x01\n      add\n      swap1\n      0x20\n      add\n      dup1\n      dup4\n      gt\n      tag_315\n      jumpi\n      dup3\n      swap1\n      sub\n      0x1f\n      and\n      dup3\n      add\n      swap2\n    tag_313:\n      pop\n      pop\n      pop\n      pop\n      pop\n      dup2\n      mstore\n      0x20\n      add\n      0x02\n      dup3\n      add\n      dup1\n      sload\n      tag_316\n      swap1\n      tag_91\n      jump\t// in\n    tag_316:\n      dup1\n      0x1f\n      add\n      0x20\n      dup1\n      swap2\n      div\n      mul\n      0x20\n      add\n      mload(0x40)\n      swap1\n      dup2\n      add\n      0x40\n      mstore\n      dup1\n      swap3\n      swap2\n      swap1\n      dup2\n      dup2\n      mstore\n      0x20\n      add\n      dup3\n      dup1\n      sload\n      tag_317\n      swap1\n      tag_91\n      jump\t// in\n    tag_317:\n      dup1\n      iszero\n      tag_318\n      jumpi\n      dup1\n      0x1f\n      lt\n      tag_319\n      jumpi\n      0x0100\n      dup1\n      dup4\n      sload\n      div\n      mul\n      dup4\n      mstore\n      swap2\n      0x20\n      add\n      swap2\n      jump(tag_318)\n    tag_319:\n      dup3\n      add\n      swap2\n      swap1\n      0x00\n      mstore\n      keccak256(0x00, 0x20)\n      swap1\n    tag_320:\n      dup2\n      sload\n      dup2\n      mstore\n      swap1\n      0x01\n      add\n      swap1\n      0x20\n      add\n      dup1\n      dup4\n      gt\n      tag_320\n      jumpi\n      dup3\n      swap1\n      sub\n      0x1f\n      and\n      dup3\n      add\n      swap2\n    tag_318:\n      pop\n      pop\n      pop\n      pop\n      pop\n      dup2\n      mstore\n      0x20\n      add\n      0x03\n      dup3\n      add\n      dup1\n      sload\n      dup1\n      0x20\n      mul\n      0x20\n      add\n      mload(0x40)\n      swap1\n      dup2\n      add\n      0x40\n      mstore\n      dup1\n      swap3\n      swap2\n      swap1\n      dup2\n      dup2\n      mstore\n      0x20\n      add\n      0x00\n      swap1\n    tag_321:\n      dup3\n      dup3\n      lt\n      iszero\n      tag_322\n      jumpi\n      dup4\n      dup3\n      swap1\n      0x00\n      mstore\n      keccak256(0x00, 0x20)\n      add\n      dup1\n      sload\n      tag_324\n      swap1\n      tag_91\n      jump\t// in\n    tag_324:\n      dup1\n      0x1f\n      add\n      0x20\n      dup1\n      swap2\n      div\n      mul\n      0x20\n      add\n      mload(0x40)\n      swap1\n      dup2\n      add\n      0x40\n      mstore\n      dup1\n      swap3\n      swap2\n      swap1\n      dup2\n      dup2\n      mstore\n      0x20\n      add\n      dup3\n      dup1\n      sload\n      tag_325\n      swap1\n      tag_91\n      jump\t// in\n    tag_325:\n      dup1\n      iszero\n      tag_326\n      jumpi\n      dup1\n      0x1f\n      lt\n      tag_327\n      jumpi\n      0x0100\n      dup1\n      dup4\n      sload\n      div\n      mul\n      dup4\n      mstore\n      swap2\n      0x20\n      add\n      swap2\n      jump(tag_326)\n    tag_327:\n      dup3\n      add\n      swap2\n      swap1\n      0x00\n      mstore\n      keccak256(0x00, 0x20)\n      swap1\n    tag_328:\n      dup2\n      sload\n      dup2\n      mstore\n      swap1\n      0x01\n      add\n      swap1\n      0x20\n      add\n      dup1\n      dup4\n      gt\n      tag_328\n      jumpi\n      dup3\n      swap1\n      sub\n      0x1f\n      and\n      dup3\n      add\n      swap2\n    tag_326:\n      pop\n      pop\n      pop\n      pop\n      pop\n      dup2\n      mstore\n      0x20\n      add\n      swap1\n      0x01\n      add\n      swap1\n      jump(tag_321)\n    tag_322:\n      pop\n      pop\n      pop\n      pop\n      dup2\n      mstore\n      pop\n      pop\n      swap1\n      pop\n        /* \"contracts/Shops.sol\":5087:5091  user */\n      dup1\n        /* \"contracts/Shops.sol\":5087:5101  user.userLogin */\n      0x20\n      add\n      mload\n        /* \"contracts/Shops.sol\":5079:5101  login = user.userLogin */\n      swap6\n      pop\n        /* \"contracts/Shops.sol\":5126:5134  requests */\n      0x09\n        /* \"contracts/Shops.sol\":5111:5134  userRequests = requests */\n      dup1\n      sload\n      dup1\n      0x20\n      mul\n      0x20\n      add\n      mload(0x40)\n      swap1\n      dup2\n      add\n      0x40\n      mstore\n      dup1\n      swap3\n      swap2\n      swap1\n      dup2\n      dup2\n      mstore\n      0x20\n      add\n      0x00\n      swap1\n    tag_329:\n      dup3\n      dup3\n      lt\n      iszero\n      tag_330\n      jumpi\n      dup4\n      dup3\n      swap1\n      0x00\n      mstore\n      keccak256(0x00, 0x20)\n      swap1\n      0x04\n      mul\n      add\n      mload(0x40)\n      dup1\n      0x80\n      add\n      0x40\n      mstore\n      swap1\n      dup2\n      0x00\n      dup3\n      add\n      0x00\n      swap1\n      sload\n      swap1\n      0x0100\n      exp\n      swap1\n      div\n      0xffffffffffffffffffffffffffffffffffffffff\n      and\n      0xffffffffffffffffffffffffffffffffffffffff\n      and\n      0xffffffffffffffffffffffffffffffffffffffff\n      and\n      dup2\n      mstore\n      0x20\n      add\n      0x01\n      dup3\n      add\n      dup1\n      sload\n      tag_332\n      swap1\n      tag_91\n      jump\t// in\n    tag_332:\n      dup1\n      0x1f\n      add\n      0x20\n      dup1\n      swap2\n      div\n      mul\n      0x20\n      add\n      mload(0x40)\n      swap1\n      dup2\n      add\n      0x40\n      mstore\n      dup1\n      swap3\n      swap2\n      swap1\n      dup2\n      dup2\n      mstore\n      0x20\n      add\n      dup3\n      dup1\n      sload\n      tag_333\n      swap1\n      tag_91\n      jump\t// in\n    tag_333:\n      dup1\n      iszero\n      tag_334\n      jumpi\n      dup1\n      0x1f\n      lt\n      tag_335\n      jumpi\n      0x0100\n      dup1\n      dup4\n      sload\n      div\n      mul\n      dup4\n      mstore\n      swap2\n      0x20\n      add\n      swap2\n      jump(tag_334)\n    tag_335:\n      dup3\n      add\n      swap2\n      swap1\n      0x00\n      mstore\n      keccak256(0x00, 0x20)\n      swap1\n    tag_336:\n      dup2\n      sload\n      dup2\n      mstore\n      swap1\n      0x01\n      add\n      swap1\n      0x20\n      add\n      dup1\n      dup4\n      gt\n      tag_336\n      jumpi\n      dup3\n      swap1\n      sub\n      0x1f\n      and\n      dup3\n      add\n      swap2\n    tag_334:\n      pop\n      pop\n      pop\n      pop\n      pop\n      dup2\n      mstore\n      0x20\n      add\n      0x02\n      dup3\n      add\n      dup1\n      sload\n      tag_337\n      swap1\n      tag_91\n      jump\t// in\n    tag_337:\n      dup1\n      0x1f\n      add\n      0x20\n      dup1\n      swap2\n      div\n      mul\n      0x20\n      add\n      mload(0x40)\n      swap1\n      dup2\n      add\n      0x40\n      mstore\n      dup1\n      swap3\n      swap2\n      swap1\n      dup2\n      dup2\n      mstore\n      0x20\n      add\n      dup3\n      dup1\n      sload\n      tag_338\n      swap1\n      tag_91\n      jump\t// in\n    tag_338:\n      dup1\n      iszero\n      tag_339\n      jumpi\n      dup1\n      0x1f\n      lt\n      tag_340\n      jumpi\n      0x0100\n      dup1\n      dup4\n      sload\n      div\n      mul\n      dup4\n      mstore\n      swap2\n      0x20\n      add\n      swap2\n      jump(tag_339)\n    tag_340:\n      dup3\n      add\n      swap2\n      swap1\n      0x00\n      mstore\n      keccak256(0x00, 0x20)\n      swap1\n    tag_341:\n      dup2\n      sload\n      dup2\n      mstore\n      swap1\n      0x01\n      add\n      swap1\n      0x20\n      add\n      dup1\n      dup4\n      gt\n      tag_341\n      jumpi\n      dup3\n      swap1\n      sub\n      0x1f\n      and\n      dup3\n      add\n      swap2\n    tag_339:\n      pop\n      pop\n      pop\n      pop\n      pop\n      dup2\n      mstore\n      0x20\n      add\n      0x03\n      dup3\n      add\n      0x00\n      swap1\n      sload\n      swap1\n      0x0100\n      exp\n      swap1\n      div\n      0xff\n      and\n      iszero\n      iszero\n      iszero\n      iszero\n      dup2\n      mstore\n      pop\n      pop\n      dup2\n      mstore\n      0x20\n      add\n      swap1\n      0x01\n      add\n      swap1\n      jump(tag_329)\n    tag_330:\n      pop\n      pop\n      pop\n      pop\n      swap5\n      pop\n        /* \"contracts/Shops.sol\":5156:5162  admins */\n      0x05\n        /* \"contracts/Shops.sol\":5144:5162  adminList = admins */\n      dup1\n      sload\n      dup1\n      0x20\n      mul\n      0x20\n      add\n      mload(0x40)\n      swap1\n      dup2\n      add\n      0x40\n      mstore\n      dup1\n      swap3\n      swap2\n      swap1\n      dup2\n      dup2\n      mstore\n      0x20\n      add\n      0x00\n      swap1\n    tag_342:\n      dup3\n      dup3\n      lt\n      iszero\n      tag_343\n      jumpi\n      dup4\n      dup3\n      swap1\n      0x00\n      mstore\n      keccak256(0x00, 0x20)\n      add\n      dup1\n      sload\n      tag_345\n      swap1\n      tag_91\n      jump\t// in\n    tag_345:\n      dup1\n      0x1f\n      add\n      0x20\n      dup1\n      swap2\n      div\n      mul\n      0x20\n      add\n      mload(0x40)\n      swap1\n      dup2\n      add\n      0x40\n      mstore\n      dup1\n      swap3\n      swap2\n      swap1\n      dup2\n      dup2\n      mstore\n      0x20\n      add\n      dup3\n      dup1\n      sload\n      tag_346\n      swap1\n      tag_91\n      jump\t// in\n    tag_346:\n      dup1\n      iszero\n      tag_347\n      jumpi\n      dup1\n      0x1f\n      lt\n      tag_348\n      jumpi\n      0x0100\n      dup1\n      dup4\n      sload\n      div\n      mul\n      dup4\n      mstore\n      swap2\n      0x20\n      add\n      swap2\n      jump(tag_347)\n    tag_348:\n      dup3\n      add\n      swap2\n      swap1\n      0x00\n      mstore\n      keccak256(0x00, 0x20)\n      swap1\n    tag_349:\n      dup2\n      sload\n      dup2\n      mstore\n      swap1\n      0x01\n      add\n      swap1\n      0x20\n      add\n      dup1\n      dup4\n      gt\n      tag_349\n      jumpi\n      dup3\n      swap1\n      sub\n      0x1f\n      and\n      dup3\n      add\n      swap2\n    tag_347:\n      pop\n      pop\n      pop\n      pop\n      pop\n      dup2\n      mstore\n      0x20\n      add\n      swap1\n      0x01\n      add\n      swap1\n      jump(tag_342)\n    tag_343:\n      pop\n      pop\n      pop\n      pop\n      swap4\n      pop\n        /* \"contracts/Shops.sol\":5186:5193  sellers */\n      0x07\n        /* \"contracts/Shops.sol\":5172:5193  sellersAddr = sellers */\n      dup1\n      sload\n      dup1\n      0x20\n      mul\n      0x20\n      add\n      mload(0x40)\n      swap1\n      dup2\n      add\n      0x40\n      mstore\n      dup1\n      swap3\n      swap2\n      swap1\n      dup2\n      dup2\n      mstore\n      0x20\n      add\n      dup3\n      dup1\n      sload\n      dup1\n      iszero\n      tag_350\n      jumpi\n      0x20\n      mul\n      dup3\n      add\n      swap2\n      swap1\n      0x00\n      mstore\n      keccak256(0x00, 0x20)\n      swap1\n    tag_351:\n      dup2\n      0x00\n      swap1\n      sload\n      swap1\n      0x0100\n      exp\n      swap1\n      div\n      0xffffffffffffffffffffffffffffffffffffffff\n      and\n      0xffffffffffffffffffffffffffffffffffffffff\n      and\n      dup2\n      mstore\n      0x20\n      add\n      swap1\n      0x01\n      add\n      swap1\n      dup1\n      dup4\n      gt\n      tag_351\n      jumpi\n    tag_350:\n      pop\n      pop\n      pop\n      pop\n      pop\n      swap3\n      pop\n        /* \"contracts/Shops.sol\":5022:5200  {... */\n      pop\n        /* \"contracts/Shops.sol\":4801:5200  function getAdminInfo() public view isUserStatus(UserRoles.admin) returns(... */\n      pop\n      swap1\n      swap2\n      swap3\n      swap4\n      jump\t// out\n        /* \"contracts/Shops.sol\":1116:1341  function registerAdmin(string memory fio,string memory userLogin) isAdmin public {... */\n    tag_81:\n        /* \"contracts/Shops.sol\":958:963  admin */\n      0x04\n      0x00\n      swap1\n      sload\n      swap1\n      0x0100\n      exp\n      swap1\n      div\n      0xffffffffffffffffffffffffffffffffffffffff\n      and\n        /* \"contracts/Shops.sol\":944:963  msg.sender == admin */\n      0xffffffffffffffffffffffffffffffffffffffff\n      and\n        /* \"contracts/Shops.sol\":944:954  msg.sender */\n      caller\n        /* \"contracts/Shops.sol\":944:963  msg.sender == admin */\n      0xffffffffffffffffffffffffffffffffffffffff\n      and\n      eq\n        /* \"contracts/Shops.sol\":936:980  require(msg.sender == admin,\"You not admin\") */\n      tag_353\n      jumpi\n      mload(0x40)\n      0x08c379a000000000000000000000000000000000000000000000000000000000\n      dup2\n      mstore\n      0x04\n      add\n      tag_354\n      swap1\n      tag_122\n      jump\t// in\n    tag_354:\n      mload(0x40)\n      dup1\n      swap2\n      sub\n      swap1\n      revert\n    tag_353:\n        /* \"contracts/Shops.sol\":1207:1218  uint status */\n      0x00\n        /* \"contracts/Shops.sol\":1226:1241  UserRoles.admin */\n      0x03\n        /* \"contracts/Shops.sol\":1221:1242  uint(UserRoles.admin) */\n      0x05\n      dup2\n      gt\n      iszero\n      tag_356\n      jumpi\n      tag_357\n      tag_85\n      jump\t// in\n    tag_357:\n    tag_356:\n        /* \"contracts/Shops.sol\":1207:1242  uint status = uint(UserRoles.admin) */\n      swap1\n      pop\n        /* \"contracts/Shops.sol\":1252:1302  registerFromAdmin(fio,userLogin,status,msg.sender) */\n      tag_358\n        /* \"contracts/Shops.sol\":1270:1273  fio */\n      dup4\n        /* \"contracts/Shops.sol\":1274:1283  userLogin */\n      dup4\n        /* \"contracts/Shops.sol\":1284:1290  status */\n      dup4\n        /* \"contracts/Shops.sol\":1291:1301  msg.sender */\n      caller\n        /* \"contracts/Shops.sol\":1252:1269  registerFromAdmin */\n      tag_127\n        /* \"contracts/Shops.sol\":1252:1302  registerFromAdmin(fio,userLogin,status,msg.sender) */\n      jump\t// in\n    tag_358:\n        /* \"contracts/Shops.sol\":1312:1318  admins */\n      0x05\n        /* \"contracts/Shops.sol\":1324:1333  userLogin */\n      dup3\n        /* \"contracts/Shops.sol\":1312:1334  admins.push(userLogin) */\n      swap1\n      dup1\n      0x01\n      dup2\n      sload\n      add\n      dup1\n      dup3\n      sstore\n      dup1\n      swap2\n      pop\n      pop\n      0x01\n      swap1\n      sub\n      swap1\n      0x00\n      mstore\n      keccak256(0x00, 0x20)\n      add\n      0x00\n      swap1\n      swap2\n      swap1\n      swap2\n      swap1\n      swap2\n      pop\n      swap1\n      dup1\n      mload\n      swap1\n      0x20\n      add\n      swap1\n      tag_360\n      swap3\n      swap2\n      swap1\n      tag_150\n      jump\t// in\n    tag_360:\n      pop\n        /* \"contracts/Shops.sol\":1197:1341  {... */\n      pop\n        /* \"contracts/Shops.sol\":1116:1341  function registerAdmin(string memory fio,string memory userLogin) isAdmin public {... */\n      pop\n      pop\n      jump\t// out\n        /* \"contracts/AuthService.sol\":1863:2238  function registerFromAdmin(string memory fio,string memory userLogin,uint status,address userAddress) internal isNotRegistered(userAddress,userLogin){... */\n    tag_127:\n        /* \"contracts/AuthService.sol\":1990:2001  userAddress */\n      dup1\n        /* \"contracts/AuthService.sol\":2002:2011  userLogin */\n      dup4\n        /* \"contracts/AuthService.sol\":1027:1061  compare(users[userAddress].fio,\"\") */\n      tag_362\n        /* \"contracts/AuthService.sol\":1035:1040  users */\n      0x02\n        /* \"contracts/AuthService.sol\":1035:1053  users[userAddress] */\n      0x00\n        /* \"contracts/AuthService.sol\":1041:1052  userAddress */\n      dup5\n        /* \"contracts/AuthService.sol\":1035:1053  users[userAddress] */\n      0xffffffffffffffffffffffffffffffffffffffff\n      and\n      0xffffffffffffffffffffffffffffffffffffffff\n      and\n      dup2\n      mstore\n      0x20\n      add\n      swap1\n      dup2\n      mstore\n      0x20\n      add\n      0x00\n      keccak256\n        /* \"contracts/AuthService.sol\":1035:1057  users[userAddress].fio */\n      0x02\n      add\n        /* \"contracts/AuthService.sol\":1027:1061  compare(users[userAddress].fio,\"\") */\n      dup1\n      sload\n      tag_363\n      swap1\n      tag_91\n      jump\t// in\n    tag_363:\n      dup1\n      0x1f\n      add\n      0x20\n      dup1\n      swap2\n      div\n      mul\n      0x20\n      add\n      mload(0x40)\n      swap1\n      dup2\n      add\n      0x40\n      mstore\n      dup1\n      swap3\n      swap2\n      swap1\n      dup2\n      dup2\n      mstore\n      0x20\n      add\n      dup3\n      dup1\n      sload\n      tag_364\n      swap1\n      tag_91\n      jump\t// in\n    tag_364:\n      dup1\n      iszero\n      tag_365\n      jumpi\n      dup1\n      0x1f\n      lt\n      tag_366\n      jumpi\n      0x0100\n      dup1\n      dup4\n      sload\n      div\n      mul\n      dup4\n      mstore\n      swap2\n      0x20\n      add\n      swap2\n      jump(tag_365)\n    tag_366:\n      dup3\n      add\n      swap2\n      swap1\n      0x00\n      mstore\n      keccak256(0x00, 0x20)\n      swap1\n    tag_367:\n      dup2\n      sload\n      dup2\n      mstore\n      swap1\n      0x01\n      add\n      swap1\n      0x20\n      add\n      dup1\n      dup4\n      gt\n      tag_367\n      jumpi\n      dup3\n      swap1\n      sub\n      0x1f\n      and\n      dup3\n      add\n      swap2\n    tag_365:\n      pop\n      pop\n      pop\n      pop\n      pop\n      mload(0x40)\n      dup1\n      0x20\n      add\n      0x40\n      mstore\n      dup1\n      0x00\n      dup2\n      mstore\n      pop\n        /* \"contracts/AuthService.sol\":1027:1034  compare */\n      tag_135\n        /* \"contracts/AuthService.sol\":1027:1061  compare(users[userAddress].fio,\"\") */\n      jump\t// in\n    tag_362:\n        /* \"contracts/AuthService.sol\":1026:1061  !compare(users[userAddress].fio,\"\") */\n      iszero\n        /* \"contracts/AuthService.sol\":1018:1087  require(!compare(users[userAddress].fio,\"\"),\"You already registered\") */\n      tag_368\n      jumpi\n      mload(0x40)\n      0x08c379a000000000000000000000000000000000000000000000000000000000\n      dup2\n      mstore\n      0x04\n      add\n      tag_369\n      swap1\n      tag_370\n      jump\t// in\n    tag_369:\n      mload(0x40)\n      dup1\n      swap2\n      sub\n      swap1\n      revert\n    tag_368:\n        /* \"contracts/AuthService.sol\":1138:1139  0 */\n      0x00\n        /* \"contracts/AuthService.sol\":1105:1140  userLogins[userLogin] == address(0) */\n      0xffffffffffffffffffffffffffffffffffffffff\n      and\n        /* \"contracts/AuthService.sol\":1105:1115  userLogins */\n      0x01\n        /* \"contracts/AuthService.sol\":1116:1125  userLogin */\n      dup3\n        /* \"contracts/AuthService.sol\":1105:1126  userLogins[userLogin] */\n      mload(0x40)\n      tag_371\n      swap2\n      swap1\n      tag_152\n      jump\t// in\n    tag_371:\n      swap1\n      dup2\n      mstore\n      0x20\n      add\n      mload(0x40)\n      dup1\n      swap2\n      sub\n      swap1\n      keccak256\n      0x00\n      swap1\n      sload\n      swap1\n      0x0100\n      exp\n      swap1\n      div\n      0xffffffffffffffffffffffffffffffffffffffff\n      and\n        /* \"contracts/AuthService.sol\":1105:1140  userLogins[userLogin] == address(0) */\n      0xffffffffffffffffffffffffffffffffffffffff\n      and\n      eq\n        /* \"contracts/AuthService.sol\":1097:1178  require(userLogins[userLogin] == address(0),\"Your login already exist in system\") */\n      tag_372\n      jumpi\n      mload(0x40)\n      0x08c379a000000000000000000000000000000000000000000000000000000000\n      dup2\n      mstore\n      0x04\n      add\n      tag_373\n      swap1\n      tag_374\n      jump\t// in\n    tag_373:\n      mload(0x40)\n      dup1\n      swap2\n      sub\n      swap1\n      revert\n    tag_372:\n        /* \"contracts/AuthService.sol\":2022:2048  string[] memory reviewList */\n      0x60\n        /* \"contracts/AuthService.sol\":2058:2077  User memory newUser */\n      0x00\n        /* \"contracts/AuthService.sol\":2080:2148  User({fio:fio,userLogin:userLogin,status:status,reviews:reviewList}) */\n      mload(0x40)\n      dup1\n      0x80\n      add\n      0x40\n      mstore\n      dup1\n        /* \"contracts/AuthService.sol\":2121:2127  status */\n      dup8\n        /* \"contracts/AuthService.sol\":2080:2148  User({fio:fio,userLogin:userLogin,status:status,reviews:reviewList}) */\n      dup2\n      mstore\n      0x20\n      add\n        /* \"contracts/AuthService.sol\":2104:2113  userLogin */\n      dup9\n        /* \"contracts/AuthService.sol\":2080:2148  User({fio:fio,userLogin:userLogin,status:status,reviews:reviewList}) */\n      dup2\n      mstore\n      0x20\n      add\n        /* \"contracts/AuthService.sol\":2090:2093  fio */\n      dup10\n        /* \"contracts/AuthService.sol\":2080:2148  User({fio:fio,userLogin:userLogin,status:status,reviews:reviewList}) */\n      dup2\n      mstore\n      0x20\n      add\n        /* \"contracts/AuthService.sol\":2136:2146  reviewList */\n      dup4\n        /* \"contracts/AuthService.sol\":2080:2148  User({fio:fio,userLogin:userLogin,status:status,reviews:reviewList}) */\n      dup2\n      mstore\n      pop\n        /* \"contracts/AuthService.sol\":2058:2148  User memory newUser = User({fio:fio,userLogin:userLogin,status:status,reviews:reviewList}) */\n      swap1\n      pop\n        /* \"contracts/AuthService.sol\":2182:2193  userAddress */\n      dup5\n        /* \"contracts/AuthService.sol\":2158:2168  userLogins */\n      0x01\n        /* \"contracts/AuthService.sol\":2169:2178  userLogin */\n      dup9\n        /* \"contracts/AuthService.sol\":2158:2179  userLogins[userLogin] */\n      mload(0x40)\n      tag_376\n      swap2\n      swap1\n      tag_152\n      jump\t// in\n    tag_376:\n      swap1\n      dup2\n      mstore\n      0x20\n      add\n      mload(0x40)\n      dup1\n      swap2\n      sub\n      swap1\n      keccak256\n      0x00\n        /* \"contracts/AuthService.sol\":2158:2193  userLogins[userLogin] = userAddress */\n      0x0100\n      exp\n      dup2\n      sload\n      dup2\n      0xffffffffffffffffffffffffffffffffffffffff\n      mul\n      not\n      and\n      swap1\n      dup4\n      0xffffffffffffffffffffffffffffffffffffffff\n      and\n      mul\n      or\n      swap1\n      sstore\n      pop\n        /* \"contracts/AuthService.sol\":2224:2231  newUser */\n      dup1\n        /* \"contracts/AuthService.sol\":2203:2208  users */\n      0x02\n        /* \"contracts/AuthService.sol\":2203:2221  users[userAddress] */\n      0x00\n        /* \"contracts/AuthService.sol\":2209:2220  userAddress */\n      dup8\n        /* \"contracts/AuthService.sol\":2203:2221  users[userAddress] */\n      0xffffffffffffffffffffffffffffffffffffffff\n      and\n      0xffffffffffffffffffffffffffffffffffffffff\n      and\n      dup2\n      mstore\n      0x20\n      add\n      swap1\n      dup2\n      mstore\n      0x20\n      add\n      0x00\n      keccak256\n        /* \"contracts/AuthService.sol\":2203:2231  users[userAddress] = newUser */\n      0x00\n      dup3\n      add\n      mload\n      dup2\n      0x00\n      add\n      sstore\n      0x20\n      dup3\n      add\n      mload\n      dup2\n      0x01\n      add\n      swap1\n      dup1\n      mload\n      swap1\n      0x20\n      add\n      swap1\n      tag_377\n      swap3\n      swap2\n      swap1\n      tag_150\n      jump\t// in\n    tag_377:\n      pop\n      0x40\n      dup3\n      add\n      mload\n      dup2\n      0x02\n      add\n      swap1\n      dup1\n      mload\n      swap1\n      0x20\n      add\n      swap1\n      tag_378\n      swap3\n      swap2\n      swap1\n      tag_150\n      jump\t// in\n    tag_378:\n      pop\n      0x60\n      dup3\n      add\n      mload\n      dup2\n      0x03\n      add\n      swap1\n      dup1\n      mload\n      swap1\n      0x20\n      add\n      swap1\n      tag_379\n      swap3\n      swap2\n      swap1\n      tag_380\n      jump\t// in\n    tag_379:\n      pop\n      swap1\n      pop\n      pop\n        /* \"contracts/AuthService.sol\":2012:2238  {... */\n      pop\n      pop\n        /* \"contracts/AuthService.sol\":1863:2238  function registerFromAdmin(string memory fio,string memory userLogin,uint status,address userAddress) internal isNotRegistered(userAddress,userLogin){... */\n      pop\n      pop\n      pop\n      pop\n      pop\n      pop\n      jump\t// out\n        /* \"contracts/AuthService.sol\":767:933  function compare(string memory a,string memory b) internal pure returns (bool){... */\n    tag_135:\n        /* \"contracts/AuthService.sol\":840:844  bool */\n      0x00\n        /* \"contracts/AuthService.sol\":923:924  b */\n      dup2\n        /* \"contracts/AuthService.sol\":906:925  abi.encodePacked(b) */\n      add(0x20, mload(0x40))\n      tag_382\n      swap2\n      swap1\n      tag_152\n      jump\t// in\n    tag_382:\n      mload(0x40)\n      0x20\n      dup2\n      dup4\n      sub\n      sub\n      dup2\n      mstore\n      swap1\n      0x40\n      mstore\n        /* \"contracts/AuthService.sol\":896:926  keccak256(abi.encodePacked(b)) */\n      dup1\n      mload\n      swap1\n      0x20\n      add\n      keccak256\n        /* \"contracts/AuthService.sol\":889:890  a */\n      dup4\n        /* \"contracts/AuthService.sol\":872:891  abi.encodePacked(a) */\n      add(0x20, mload(0x40))\n      tag_383\n      swap2\n      swap1\n      tag_152\n      jump\t// in\n    tag_383:\n      mload(0x40)\n      0x20\n      dup2\n      dup4\n      sub\n      sub\n      dup2\n      mstore\n      swap1\n      0x40\n      mstore\n        /* \"contracts/AuthService.sol\":862:892  keccak256(abi.encodePacked(a)) */\n      dup1\n      mload\n      swap1\n      0x20\n      add\n      keccak256\n        /* \"contracts/AuthService.sol\":862:926  keccak256(abi.encodePacked(a)) == keccak256(abi.encodePacked(b)) */\n      eq\n        /* \"contracts/AuthService.sol\":855:926  return keccak256(abi.encodePacked(a)) == keccak256(abi.encodePacked(b)) */\n      swap1\n      pop\n        /* \"contracts/AuthService.sol\":767:933  function compare(string memory a,string memory b) internal pure returns (bool){... */\n      swap3\n      swap2\n      pop\n      pop\n      jump\t// out\n    tag_150:\n      dup3\n      dup1\n      sload\n      tag_384\n      swap1\n      tag_91\n      jump\t// in\n    tag_384:\n      swap1\n      0x00\n      mstore\n      keccak256(0x00, 0x20)\n      swap1\n      0x1f\n      add\n      0x20\n      swap1\n      div\n      dup2\n      add\n      swap3\n      dup3\n      tag_386\n      jumpi\n      0x00\n      dup6\n      sstore\n      jump(tag_385)\n    tag_386:\n      dup3\n      0x1f\n      lt\n      tag_387\n      jumpi\n      dup1\n      mload\n      not(0xff)\n      and\n      dup4\n      dup1\n      add\n      or\n      dup6\n      sstore\n      jump(tag_385)\n    tag_387:\n      dup3\n      dup1\n      add\n      0x01\n      add\n      dup6\n      sstore\n      dup3\n      iszero\n      tag_385\n      jumpi\n      swap2\n      dup3\n      add\n    tag_388:\n      dup3\n      dup2\n      gt\n      iszero\n      tag_389\n      jumpi\n      dup3\n      mload\n      dup3\n      sstore\n      swap2\n      0x20\n      add\n      swap2\n      swap1\n      0x01\n      add\n      swap1\n      jump(tag_388)\n    tag_389:\n    tag_385:\n      pop\n      swap1\n      pop\n      tag_390\n      swap2\n      swap1\n      tag_391\n      jump\t// in\n    tag_390:\n      pop\n      swap1\n      jump\t// out\n    tag_380:\n      dup3\n      dup1\n      sload\n      dup3\n      dup3\n      sstore\n      swap1\n      0x00\n      mstore\n      keccak256(0x00, 0x20)\n      swap1\n      dup2\n      add\n      swap3\n      dup3\n      iszero\n      tag_392\n      jumpi\n      swap2\n      0x20\n      mul\n      dup3\n      add\n    tag_393:\n      dup3\n      dup2\n      gt\n      iszero\n      tag_394\n      jumpi\n      dup3\n      mload\n      dup3\n      swap1\n      dup1\n      mload\n      swap1\n      0x20\n      add\n      swap1\n      tag_395\n      swap3\n      swap2\n      swap1\n      tag_150\n      jump\t// in\n    tag_395:\n      pop\n      swap2\n      0x20\n      add\n      swap2\n      swap1\n      0x01\n      add\n      swap1\n      jump(tag_393)\n    tag_394:\n    tag_392:\n      pop\n      swap1\n      pop\n      tag_396\n      swap2\n      swap1\n      tag_397\n      jump\t// in\n    tag_396:\n      pop\n      swap1\n      jump\t// out\n    tag_391:\n    tag_398:\n      dup1\n      dup3\n      gt\n      iszero\n      tag_399\n      jumpi\n      0x00\n      dup2\n      0x00\n      swap1\n      sstore\n      pop\n      0x01\n      add\n      jump(tag_398)\n    tag_399:\n      pop\n      swap1\n      jump\t// out\n    tag_397:\n    tag_400:\n      dup1\n      dup3\n      gt\n      iszero\n      tag_401\n      jumpi\n      0x00\n      dup2\n      dup2\n      tag_402\n      swap2\n      swap1\n      tag_403\n      jump\t// in\n    tag_402:\n      pop\n      0x01\n      add\n      jump(tag_400)\n    tag_401:\n      pop\n      swap1\n      jump\t// out\n    tag_403:\n      pop\n      dup1\n      sload\n      tag_404\n      swap1\n      tag_91\n      jump\t// in\n    tag_404:\n      0x00\n      dup3\n      sstore\n      dup1\n      0x1f\n      lt\n      tag_406\n      jumpi\n      pop\n      jump(tag_405)\n    tag_406:\n      0x1f\n      add\n      0x20\n      swap1\n      div\n      swap1\n      0x00\n      mstore\n      keccak256(0x00, 0x20)\n      swap1\n      dup2\n      add\n      swap1\n      tag_407\n      swap2\n      swap1\n      tag_391\n      jump\t// in\n    tag_407:\n    tag_405:\n      pop\n      jump\t// out\n        /* \"#utility.yul\":7:419   */\n    tag_409:\n        /* \"#utility.yul\":85:90   */\n      0x00\n        /* \"#utility.yul\":110:176   */\n      tag_411\n        /* \"#utility.yul\":126:175   */\n      tag_412\n        /* \"#utility.yul\":168:174   */\n      dup5\n        /* \"#utility.yul\":126:175   */\n      tag_413\n      jump\t// in\n    tag_412:\n        /* \"#utility.yul\":110:176   */\n      tag_414\n      jump\t// in\n    tag_411:\n        /* \"#utility.yul\":101:176   */\n      swap1\n      pop\n        /* \"#utility.yul\":199:205   */\n      dup3\n        /* \"#utility.yul\":192:197   */\n      dup2\n        /* \"#utility.yul\":185:206   */\n      mstore\n        /* \"#utility.yul\":237:241   */\n      0x20\n        /* \"#utility.yul\":230:235   */\n      dup2\n        /* \"#utility.yul\":226:242   */\n      add\n        /* \"#utility.yul\":275:278   */\n      dup5\n        /* \"#utility.yul\":266:272   */\n      dup5\n        /* \"#utility.yul\":261:264   */\n      dup5\n        /* \"#utility.yul\":257:273   */\n      add\n        /* \"#utility.yul\":254:279   */\n      gt\n        /* \"#utility.yul\":251:363   */\n      iszero\n      tag_415\n      jumpi\n        /* \"#utility.yul\":282:361   */\n      tag_416\n      tag_417\n      jump\t// in\n    tag_416:\n        /* \"#utility.yul\":251:363   */\n    tag_415:\n        /* \"#utility.yul\":372:413   */\n      tag_418\n        /* \"#utility.yul\":406:412   */\n      dup5\n        /* \"#utility.yul\":401:404   */\n      dup3\n        /* \"#utility.yul\":396:399   */\n      dup6\n        /* \"#utility.yul\":372:413   */\n      tag_419\n      jump\t// in\n    tag_418:\n        /* \"#utility.yul\":91:419   */\n      pop\n        /* \"#utility.yul\":7:419   */\n      swap4\n      swap3\n      pop\n      pop\n      pop\n      jump\t// out\n        /* \"#utility.yul\":425:564   */\n    tag_420:\n        /* \"#utility.yul\":471:476   */\n      0x00\n        /* \"#utility.yul\":509:515   */\n      dup2\n        /* \"#utility.yul\":496:516   */\n      calldataload\n        /* \"#utility.yul\":487:516   */\n      swap1\n      pop\n        /* \"#utility.yul\":525:558   */\n      tag_422\n        /* \"#utility.yul\":552:557   */\n      dup2\n        /* \"#utility.yul\":525:558   */\n      tag_423\n      jump\t// in\n    tag_422:\n        /* \"#utility.yul\":425:564   */\n      swap3\n      swap2\n      pop\n      pop\n      jump\t// out\n        /* \"#utility.yul\":570:725   */\n    tag_424:\n        /* \"#utility.yul\":624:629   */\n      0x00\n        /* \"#utility.yul\":662:668   */\n      dup2\n        /* \"#utility.yul\":649:669   */\n      calldataload\n        /* \"#utility.yul\":640:669   */\n      swap1\n      pop\n        /* \"#utility.yul\":678:719   */\n      tag_426\n        /* \"#utility.yul\":713:718   */\n      dup2\n        /* \"#utility.yul\":678:719   */\n      tag_427\n      jump\t// in\n    tag_426:\n        /* \"#utility.yul\":570:725   */\n      swap3\n      swap2\n      pop\n      pop\n      jump\t// out\n        /* \"#utility.yul\":731:868   */\n    tag_428:\n        /* \"#utility.yul\":776:781   */\n      0x00\n        /* \"#utility.yul\":814:820   */\n      dup2\n        /* \"#utility.yul\":801:821   */\n      calldataload\n        /* \"#utility.yul\":792:821   */\n      swap1\n      pop\n        /* \"#utility.yul\":830:862   */\n      tag_430\n        /* \"#utility.yul\":856:861   */\n      dup2\n        /* \"#utility.yul\":830:862   */\n      tag_431\n      jump\t// in\n    tag_430:\n        /* \"#utility.yul\":731:868   */\n      swap3\n      swap2\n      pop\n      pop\n      jump\t// out\n        /* \"#utility.yul\":888:1228   */\n    tag_432:\n        /* \"#utility.yul\":944:949   */\n      0x00\n        /* \"#utility.yul\":993:996   */\n      dup3\n        /* \"#utility.yul\":986:990   */\n      0x1f\n        /* \"#utility.yul\":978:984   */\n      dup4\n        /* \"#utility.yul\":974:991   */\n      add\n        /* \"#utility.yul\":970:997   */\n      slt\n        /* \"#utility.yul\":960:1082   */\n      tag_434\n      jumpi\n        /* \"#utility.yul\":1001:1080   */\n      tag_435\n      tag_436\n      jump\t// in\n    tag_435:\n        /* \"#utility.yul\":960:1082   */\n    tag_434:\n        /* \"#utility.yul\":1118:1124   */\n      dup2\n        /* \"#utility.yul\":1105:1125   */\n      calldataload\n        /* \"#utility.yul\":1143:1222   */\n      tag_437\n        /* \"#utility.yul\":1218:1221   */\n      dup5\n        /* \"#utility.yul\":1210:1216   */\n      dup3\n        /* \"#utility.yul\":1203:1207   */\n      0x20\n        /* \"#utility.yul\":1195:1201   */\n      dup7\n        /* \"#utility.yul\":1191:1208   */\n      add\n        /* \"#utility.yul\":1143:1222   */\n      tag_409\n      jump\t// in\n    tag_437:\n        /* \"#utility.yul\":1134:1222   */\n      swap2\n      pop\n        /* \"#utility.yul\":950:1228   */\n      pop\n        /* \"#utility.yul\":888:1228   */\n      swap3\n      swap2\n      pop\n      pop\n      jump\t// out\n        /* \"#utility.yul\":1234:1563   */\n    tag_23:\n        /* \"#utility.yul\":1293:1299   */\n      0x00\n        /* \"#utility.yul\":1342:1344   */\n      0x20\n        /* \"#utility.yul\":1330:1339   */\n      dup3\n        /* \"#utility.yul\":1321:1328   */\n      dup5\n        /* \"#utility.yul\":1317:1340   */\n      sub\n        /* \"#utility.yul\":1313:1345   */\n      slt\n        /* \"#utility.yul\":1310:1429   */\n      iszero\n      tag_439\n      jumpi\n        /* \"#utility.yul\":1348:1427   */\n      tag_440\n      tag_441\n      jump\t// in\n    tag_440:\n        /* \"#utility.yul\":1310:1429   */\n    tag_439:\n        /* \"#utility.yul\":1468:1469   */\n      0x00\n        /* \"#utility.yul\":1493:1546   */\n      tag_442\n        /* \"#utility.yul\":1538:1545   */\n      dup5\n        /* \"#utility.yul\":1529:1535   */\n      dup3\n        /* \"#utility.yul\":1518:1527   */\n      dup6\n        /* \"#utility.yul\":1514:1536   */\n      add\n        /* \"#utility.yul\":1493:1546   */\n      tag_420\n      jump\t// in\n    tag_442:\n        /* \"#utility.yul\":1483:1546   */\n      swap2\n      pop\n        /* \"#utility.yul\":1439:1556   */\n      pop\n        /* \"#utility.yul\":1234:1563   */\n      swap3\n      swap2\n      pop\n      pop\n      jump\t// out\n        /* \"#utility.yul\":1569:1914   */\n    tag_60:\n        /* \"#utility.yul\":1636:1642   */\n      0x00\n        /* \"#utility.yul\":1685:1687   */\n      0x20\n        /* \"#utility.yul\":1673:1682   */\n      dup3\n        /* \"#utility.yul\":1664:1671   */\n      dup5\n        /* \"#utility.yul\":1660:1683   */\n      sub\n        /* \"#utility.yul\":1656:1688   */\n      slt\n        /* \"#utility.yul\":1653:1772   */\n      iszero\n      tag_444\n      jumpi\n        /* \"#utility.yul\":1691:1770   */\n      tag_445\n      tag_441\n      jump\t// in\n    tag_445:\n        /* \"#utility.yul\":1653:1772   */\n    tag_444:\n        /* \"#utility.yul\":1811:1812   */\n      0x00\n        /* \"#utility.yul\":1836:1897   */\n      tag_446\n        /* \"#utility.yul\":1889:1896   */\n      dup5\n        /* \"#utility.yul\":1880:1886   */\n      dup3\n        /* \"#utility.yul\":1869:1878   */\n      dup6\n        /* \"#utility.yul\":1865:1887   */\n      add\n        /* \"#utility.yul\":1836:1897   */\n      tag_424\n      jump\t// in\n    tag_446:\n        /* \"#utility.yul\":1826:1897   */\n      swap2\n      pop\n        /* \"#utility.yul\":1782:1907   */\n      pop\n        /* \"#utility.yul\":1569:1914   */\n      swap3\n      swap2\n      pop\n      pop\n      jump\t// out\n        /* \"#utility.yul\":1920:2899   */\n    tag_72:\n        /* \"#utility.yul\":2017:2023   */\n      0x00\n        /* \"#utility.yul\":2025:2031   */\n      dup1\n        /* \"#utility.yul\":2033:2039   */\n      0x00\n        /* \"#utility.yul\":2082:2084   */\n      0x60\n        /* \"#utility.yul\":2070:2079   */\n      dup5\n        /* \"#utility.yul\":2061:2068   */\n      dup7\n        /* \"#utility.yul\":2057:2080   */\n      sub\n        /* \"#utility.yul\":2053:2085   */\n      slt\n        /* \"#utility.yul\":2050:2169   */\n      iszero\n      tag_448\n      jumpi\n        /* \"#utility.yul\":2088:2167   */\n      tag_449\n      tag_441\n      jump\t// in\n    tag_449:\n        /* \"#utility.yul\":2050:2169   */\n    tag_448:\n        /* \"#utility.yul\":2208:2209   */\n      0x00\n        /* \"#utility.yul\":2233:2286   */\n      tag_450\n        /* \"#utility.yul\":2278:2285   */\n      dup7\n        /* \"#utility.yul\":2269:2275   */\n      dup3\n        /* \"#utility.yul\":2258:2267   */\n      dup8\n        /* \"#utility.yul\":2254:2276   */\n      add\n        /* \"#utility.yul\":2233:2286   */\n      tag_420\n      jump\t// in\n    tag_450:\n        /* \"#utility.yul\":2223:2286   */\n      swap4\n      pop\n        /* \"#utility.yul\":2179:2296   */\n      pop\n        /* \"#utility.yul\":2363:2365   */\n      0x20\n        /* \"#utility.yul\":2352:2361   */\n      dup5\n        /* \"#utility.yul\":2348:2366   */\n      add\n        /* \"#utility.yul\":2335:2367   */\n      calldataload\n        /* \"#utility.yul\":2394:2412   */\n      0xffffffffffffffff\n        /* \"#utility.yul\":2386:2392   */\n      dup2\n        /* \"#utility.yul\":2383:2413   */\n      gt\n        /* \"#utility.yul\":2380:2497   */\n      iszero\n      tag_451\n      jumpi\n        /* \"#utility.yul\":2416:2495   */\n      tag_452\n      tag_453\n      jump\t// in\n    tag_452:\n        /* \"#utility.yul\":2380:2497   */\n    tag_451:\n        /* \"#utility.yul\":2521:2584   */\n      tag_454\n        /* \"#utility.yul\":2576:2583   */\n      dup7\n        /* \"#utility.yul\":2567:2573   */\n      dup3\n        /* \"#utility.yul\":2556:2565   */\n      dup8\n        /* \"#utility.yul\":2552:2574   */\n      add\n        /* \"#utility.yul\":2521:2584   */\n      tag_432\n      jump\t// in\n    tag_454:\n        /* \"#utility.yul\":2511:2584   */\n      swap3\n      pop\n        /* \"#utility.yul\":2306:2594   */\n      pop\n        /* \"#utility.yul\":2661:2663   */\n      0x40\n        /* \"#utility.yul\":2650:2659   */\n      dup5\n        /* \"#utility.yul\":2646:2664   */\n      add\n        /* \"#utility.yul\":2633:2665   */\n      calldataload\n        /* \"#utility.yul\":2692:2710   */\n      0xffffffffffffffff\n        /* \"#utility.yul\":2684:2690   */\n      dup2\n        /* \"#utility.yul\":2681:2711   */\n      gt\n        /* \"#utility.yul\":2678:2795   */\n      iszero\n      tag_455\n      jumpi\n        /* \"#utility.yul\":2714:2793   */\n      tag_456\n      tag_453\n      jump\t// in\n    tag_456:\n        /* \"#utility.yul\":2678:2795   */\n    tag_455:\n        /* \"#utility.yul\":2819:2882   */\n      tag_457\n        /* \"#utility.yul\":2874:2881   */\n      dup7\n        /* \"#utility.yul\":2865:2871   */\n      dup3\n        /* \"#utility.yul\":2854:2863   */\n      dup8\n        /* \"#utility.yul\":2850:2872   */\n      add\n        /* \"#utility.yul\":2819:2882   */\n      tag_432\n      jump\t// in\n    tag_457:\n        /* \"#utility.yul\":2809:2882   */\n      swap2\n      pop\n        /* \"#utility.yul\":2604:2892   */\n      pop\n        /* \"#utility.yul\":1920:2899   */\n      swap3\n      pop\n      swap3\n      pop\n      swap3\n      jump\t// out\n        /* \"#utility.yul\":2905:4316   */\n    tag_33:\n        /* \"#utility.yul\":3026:3032   */\n      0x00\n        /* \"#utility.yul\":3034:3040   */\n      dup1\n        /* \"#utility.yul\":3042:3048   */\n      0x00\n        /* \"#utility.yul\":3050:3056   */\n      dup1\n        /* \"#utility.yul\":3058:3064   */\n      0x00\n        /* \"#utility.yul\":3066:3072   */\n      dup1\n        /* \"#utility.yul\":3115:3118   */\n      0xc0\n        /* \"#utility.yul\":3103:3112   */\n      dup8\n        /* \"#utility.yul\":3094:3101   */\n      dup10\n        /* \"#utility.yul\":3090:3113   */\n      sub\n        /* \"#utility.yul\":3086:3119   */\n      slt\n        /* \"#utility.yul\":3083:3203   */\n      iszero\n      tag_459\n      jumpi\n        /* \"#utility.yul\":3122:3201   */\n      tag_460\n      tag_441\n      jump\t// in\n    tag_460:\n        /* \"#utility.yul\":3083:3203   */\n    tag_459:\n        /* \"#utility.yul\":3242:3243   */\n      0x00\n        /* \"#utility.yul\":3267:3320   */\n      tag_461\n        /* \"#utility.yul\":3312:3319   */\n      dup10\n        /* \"#utility.yul\":3303:3309   */\n      dup3\n        /* \"#utility.yul\":3292:3301   */\n      dup11\n        /* \"#utility.yul\":3288:3310   */\n      add\n        /* \"#utility.yul\":3267:3320   */\n      tag_420\n      jump\t// in\n    tag_461:\n        /* \"#utility.yul\":3257:3320   */\n      swap7\n      pop\n        /* \"#utility.yul\":3213:3330   */\n      pop\n        /* \"#utility.yul\":3397:3399   */\n      0x20\n        /* \"#utility.yul\":3386:3395   */\n      dup8\n        /* \"#utility.yul\":3382:3400   */\n      add\n        /* \"#utility.yul\":3369:3401   */\n      calldataload\n        /* \"#utility.yul\":3428:3446   */\n      0xffffffffffffffff\n        /* \"#utility.yul\":3420:3426   */\n      dup2\n        /* \"#utility.yul\":3417:3447   */\n      gt\n        /* \"#utility.yul\":3414:3531   */\n      iszero\n      tag_462\n      jumpi\n        /* \"#utility.yul\":3450:3529   */\n      tag_463\n      tag_453\n      jump\t// in\n    tag_463:\n        /* \"#utility.yul\":3414:3531   */\n    tag_462:\n        /* \"#utility.yul\":3555:3618   */\n      tag_464\n        /* \"#utility.yul\":3610:3617   */\n      dup10\n        /* \"#utility.yul\":3601:3607   */\n      dup3\n        /* \"#utility.yul\":3590:3599   */\n      dup11\n        /* \"#utility.yul\":3586:3608   */\n      add\n        /* \"#utility.yul\":3555:3618   */\n      tag_432\n      jump\t// in\n    tag_464:\n        /* \"#utility.yul\":3545:3618   */\n      swap6\n      pop\n        /* \"#utility.yul\":3340:3628   */\n      pop\n        /* \"#utility.yul\":3695:3697   */\n      0x40\n        /* \"#utility.yul\":3684:3693   */\n      dup8\n        /* \"#utility.yul\":3680:3698   */\n      add\n        /* \"#utility.yul\":3667:3699   */\n      calldataload\n        /* \"#utility.yul\":3726:3744   */\n      0xffffffffffffffff\n        /* \"#utility.yul\":3718:3724   */\n      dup2\n        /* \"#utility.yul\":3715:3745   */\n      gt\n        /* \"#utility.yul\":3712:3829   */\n      iszero\n      tag_465\n      jumpi\n        /* \"#utility.yul\":3748:3827   */\n      tag_466\n      tag_453\n      jump\t// in\n    tag_466:\n        /* \"#utility.yul\":3712:3829   */\n    tag_465:\n        /* \"#utility.yul\":3853:3916   */\n      tag_467\n        /* \"#utility.yul\":3908:3915   */\n      dup10\n        /* \"#utility.yul\":3899:3905   */\n      dup3\n        /* \"#utility.yul\":3888:3897   */\n      dup11\n        /* \"#utility.yul\":3884:3906   */\n      add\n        /* \"#utility.yul\":3853:3916   */\n      tag_432\n      jump\t// in\n    tag_467:\n        /* \"#utility.yul\":3843:3916   */\n      swap5\n      pop\n        /* \"#utility.yul\":3638:3926   */\n      pop\n        /* \"#utility.yul\":3965:3967   */\n      0x60\n        /* \"#utility.yul\":3991:4043   */\n      tag_468\n        /* \"#utility.yul\":4035:4042   */\n      dup10\n        /* \"#utility.yul\":4026:4032   */\n      dup3\n        /* \"#utility.yul\":4015:4024   */\n      dup11\n        /* \"#utility.yul\":4011:4033   */\n      add\n        /* \"#utility.yul\":3991:4043   */\n      tag_428\n      jump\t// in\n    tag_468:\n        /* \"#utility.yul\":3981:4043   */\n      swap4\n      pop\n        /* \"#utility.yul\":3936:4053   */\n      pop\n        /* \"#utility.yul\":4092:4095   */\n      0x80\n        /* \"#utility.yul\":4119:4171   */\n      tag_469\n        /* \"#utility.yul\":4163:4170   */\n      dup10\n        /* \"#utility.yul\":4154:4160   */\n      dup3\n        /* \"#utility.yul\":4143:4152   */\n      dup11\n        /* \"#utility.yul\":4139:4161   */\n      add\n        /* \"#utility.yul\":4119:4171   */\n      tag_428\n      jump\t// in\n    tag_469:\n        /* \"#utility.yul\":4109:4171   */\n      swap3\n      pop\n        /* \"#utility.yul\":4063:4181   */\n      pop\n        /* \"#utility.yul\":4220:4223   */\n      0xa0\n        /* \"#utility.yul\":4247:4299   */\n      tag_470\n        /* \"#utility.yul\":4291:4298   */\n      dup10\n        /* \"#utility.yul\":4282:4288   */\n      dup3\n        /* \"#utility.yul\":4271:4280   */\n      dup11\n        /* \"#utility.yul\":4267:4289   */\n      add\n        /* \"#utility.yul\":4247:4299   */\n      tag_428\n      jump\t// in\n    tag_470:\n        /* \"#utility.yul\":4237:4299   */\n      swap2\n      pop\n        /* \"#utility.yul\":4191:4309   */\n      pop\n        /* \"#utility.yul\":2905:4316   */\n      swap3\n      swap6\n      pop\n      swap3\n      swap6\n      pop\n      swap3\n      swap6\n      jump\t// out\n        /* \"#utility.yul\":4322:5627   */\n    tag_46:\n        /* \"#utility.yul\":4438:4444   */\n      0x00\n        /* \"#utility.yul\":4446:4452   */\n      dup1\n        /* \"#utility.yul\":4454:4460   */\n      0x00\n        /* \"#utility.yul\":4462:4468   */\n      dup1\n        /* \"#utility.yul\":4511:4514   */\n      0x80\n        /* \"#utility.yul\":4499:4508   */\n      dup6\n        /* \"#utility.yul\":4490:4497   */\n      dup8\n        /* \"#utility.yul\":4486:4509   */\n      sub\n        /* \"#utility.yul\":4482:4515   */\n      slt\n        /* \"#utility.yul\":4479:4599   */\n      iszero\n      tag_472\n      jumpi\n        /* \"#utility.yul\":4518:4597   */\n      tag_473\n      tag_441\n      jump\t// in\n    tag_473:\n        /* \"#utility.yul\":4479:4599   */\n    tag_472:\n        /* \"#utility.yul\":4638:4639   */\n      0x00\n        /* \"#utility.yul\":4663:4716   */\n      tag_474\n        /* \"#utility.yul\":4708:4715   */\n      dup8\n        /* \"#utility.yul\":4699:4705   */\n      dup3\n        /* \"#utility.yul\":4688:4697   */\n      dup9\n        /* \"#utility.yul\":4684:4706   */\n      add\n        /* \"#utility.yul\":4663:4716   */\n      tag_420\n      jump\t// in\n    tag_474:\n        /* \"#utility.yul\":4653:4716   */\n      swap5\n      pop\n        /* \"#utility.yul\":4609:4726   */\n      pop\n        /* \"#utility.yul\":4793:4795   */\n      0x20\n        /* \"#utility.yul\":4782:4791   */\n      dup6\n        /* \"#utility.yul\":4778:4796   */\n      add\n        /* \"#utility.yul\":4765:4797   */\n      calldataload\n        /* \"#utility.yul\":4824:4842   */\n      0xffffffffffffffff\n        /* \"#utility.yul\":4816:4822   */\n      dup2\n        /* \"#utility.yul\":4813:4843   */\n      gt\n        /* \"#utility.yul\":4810:4927   */\n      iszero\n      tag_475\n      jumpi\n        /* \"#utility.yul\":4846:4925   */\n      tag_476\n      tag_453\n      jump\t// in\n    tag_476:\n        /* \"#utility.yul\":4810:4927   */\n    tag_475:\n        /* \"#utility.yul\":4951:5014   */\n      tag_477\n        /* \"#utility.yul\":5006:5013   */\n      dup8\n        /* \"#utility.yul\":4997:5003   */\n      dup3\n        /* \"#utility.yul\":4986:4995   */\n      dup9\n        /* \"#utility.yul\":4982:5004   */\n      add\n        /* \"#utility.yul\":4951:5014   */\n      tag_432\n      jump\t// in\n    tag_477:\n        /* \"#utility.yul\":4941:5014   */\n      swap4\n      pop\n        /* \"#utility.yul\":4736:5024   */\n      pop\n        /* \"#utility.yul\":5091:5093   */\n      0x40\n        /* \"#utility.yul\":5080:5089   */\n      dup6\n        /* \"#utility.yul\":5076:5094   */\n      add\n        /* \"#utility.yul\":5063:5095   */\n      calldataload\n        /* \"#utility.yul\":5122:5140   */\n      0xffffffffffffffff\n        /* \"#utility.yul\":5114:5120   */\n      dup2\n        /* \"#utility.yul\":5111:5141   */\n      gt\n        /* \"#utility.yul\":5108:5225   */\n      iszero\n      tag_478\n      jumpi\n        /* \"#utility.yul\":5144:5223   */\n      tag_479\n      tag_453\n      jump\t// in\n    tag_479:\n        /* \"#utility.yul\":5108:5225   */\n    tag_478:\n        /* \"#utility.yul\":5249:5312   */\n      tag_480\n        /* \"#utility.yul\":5304:5311   */\n      dup8\n        /* \"#utility.yul\":5295:5301   */\n      dup3\n        /* \"#utility.yul\":5284:5293   */\n      dup9\n        /* \"#utility.yul\":5280:5302   */\n      add\n        /* \"#utility.yul\":5249:5312   */\n      tag_432\n      jump\t// in\n    tag_480:\n        /* \"#utility.yul\":5239:5312   */\n      swap3\n      pop\n        /* \"#utility.yul\":5034:5322   */\n      pop\n        /* \"#utility.yul\":5389:5391   */\n      0x60\n        /* \"#utility.yul\":5378:5387   */\n      dup6\n        /* \"#utility.yul\":5374:5392   */\n      add\n        /* \"#utility.yul\":5361:5393   */\n      calldataload\n        /* \"#utility.yul\":5420:5438   */\n      0xffffffffffffffff\n        /* \"#utility.yul\":5412:5418   */\n      dup2\n        /* \"#utility.yul\":5409:5439   */\n      gt\n        /* \"#utility.yul\":5406:5523   */\n      iszero\n      tag_481\n      jumpi\n        /* \"#utility.yul\":5442:5521   */\n      tag_482\n      tag_453\n      jump\t// in\n    tag_482:\n        /* \"#utility.yul\":5406:5523   */\n    tag_481:\n        /* \"#utility.yul\":5547:5610   */\n      tag_483\n        /* \"#utility.yul\":5602:5609   */\n      dup8\n        /* \"#utility.yul\":5593:5599   */\n      dup3\n        /* \"#utility.yul\":5582:5591   */\n      dup9\n        /* \"#utility.yul\":5578:5600   */\n      add\n        /* \"#utility.yul\":5547:5610   */\n      tag_432\n      jump\t// in\n    tag_483:\n        /* \"#utility.yul\":5537:5610   */\n      swap2\n      pop\n        /* \"#utility.yul\":5332:5620   */\n      pop\n        /* \"#utility.yul\":4322:5627   */\n      swap3\n      swap6\n      swap2\n      swap5\n      pop\n      swap3\n      pop\n      jump\t// out\n        /* \"#utility.yul\":5633:6142   */\n    tag_37:\n        /* \"#utility.yul\":5702:5708   */\n      0x00\n        /* \"#utility.yul\":5751:5753   */\n      0x20\n        /* \"#utility.yul\":5739:5748   */\n      dup3\n        /* \"#utility.yul\":5730:5737   */\n      dup5\n        /* \"#utility.yul\":5726:5749   */\n      sub\n        /* \"#utility.yul\":5722:5754   */\n      slt\n        /* \"#utility.yul\":5719:5838   */\n      iszero\n      tag_485\n      jumpi\n        /* \"#utility.yul\":5757:5836   */\n      tag_486\n      tag_441\n      jump\t// in\n    tag_486:\n        /* \"#utility.yul\":5719:5838   */\n    tag_485:\n        /* \"#utility.yul\":5905:5906   */\n      0x00\n        /* \"#utility.yul\":5894:5903   */\n      dup3\n        /* \"#utility.yul\":5890:5907   */\n      add\n        /* \"#utility.yul\":5877:5908   */\n      calldataload\n        /* \"#utility.yul\":5935:5953   */\n      0xffffffffffffffff\n        /* \"#utility.yul\":5927:5933   */\n      dup2\n        /* \"#utility.yul\":5924:5954   */\n      gt\n        /* \"#utility.yul\":5921:6038   */\n      iszero\n      tag_487\n      jumpi\n        /* \"#utility.yul\":5957:6036   */\n      tag_488\n      tag_453\n      jump\t// in\n    tag_488:\n        /* \"#utility.yul\":5921:6038   */\n    tag_487:\n        /* \"#utility.yul\":6062:6125   */\n      tag_489\n        /* \"#utility.yul\":6117:6124   */\n      dup5\n        /* \"#utility.yul\":6108:6114   */\n      dup3\n        /* \"#utility.yul\":6097:6106   */\n      dup6\n        /* \"#utility.yul\":6093:6115   */\n      add\n        /* \"#utility.yul\":6062:6125   */\n      tag_432\n      jump\t// in\n    tag_489:\n        /* \"#utility.yul\":6052:6125   */\n      swap2\n      pop\n        /* \"#utility.yul\":5848:6135   */\n      pop\n        /* \"#utility.yul\":5633:6142   */\n      swap3\n      swap2\n      pop\n      pop\n      jump\t// out\n        /* \"#utility.yul\":6148:6802   */\n    tag_29:\n        /* \"#utility.yul\":6226:6232   */\n      0x00\n        /* \"#utility.yul\":6234:6240   */\n      dup1\n        /* \"#utility.yul\":6283:6285   */\n      0x40\n        /* \"#utility.yul\":6271:6280   */\n      dup4\n        /* \"#utility.yul\":6262:6269   */\n      dup6\n        /* \"#utility.yul\":6258:6281   */\n      sub\n        /* \"#utility.yul\":6254:6286   */\n      slt\n        /* \"#utility.yul\":6251:6370   */\n      iszero\n      tag_491\n      jumpi\n        /* \"#utility.yul\":6289:6368   */\n      tag_492\n      tag_441\n      jump\t// in\n    tag_492:\n        /* \"#utility.yul\":6251:6370   */\n    tag_491:\n        /* \"#utility.yul\":6437:6438   */\n      0x00\n        /* \"#utility.yul\":6426:6435   */\n      dup4\n        /* \"#utility.yul\":6422:6439   */\n      add\n        /* \"#utility.yul\":6409:6440   */\n      calldataload\n        /* \"#utility.yul\":6467:6485   */\n      0xffffffffffffffff\n        /* \"#utility.yul\":6459:6465   */\n      dup2\n        /* \"#utility.yul\":6456:6486   */\n      gt\n        /* \"#utility.yul\":6453:6570   */\n      iszero\n      tag_493\n      jumpi\n        /* \"#utility.yul\":6489:6568   */\n      tag_494\n      tag_453\n      jump\t// in\n    tag_494:\n        /* \"#utility.yul\":6453:6570   */\n    tag_493:\n        /* \"#utility.yul\":6594:6657   */\n      tag_495\n        /* \"#utility.yul\":6649:6656   */\n      dup6\n        /* \"#utility.yul\":6640:6646   */\n      dup3\n        /* \"#utility.yul\":6629:6638   */\n      dup7\n        /* \"#utility.yul\":6625:6647   */\n      add\n        /* \"#utility.yul\":6594:6657   */\n      tag_432\n      jump\t// in\n    tag_495:\n        /* \"#utility.yul\":6584:6657   */\n      swap3\n      pop\n        /* \"#utility.yul\":6380:6667   */\n      pop\n        /* \"#utility.yul\":6706:6708   */\n      0x20\n        /* \"#utility.yul\":6732:6785   */\n      tag_496\n        /* \"#utility.yul\":6777:6784   */\n      dup6\n        /* \"#utility.yul\":6768:6774   */\n      dup3\n        /* \"#utility.yul\":6757:6766   */\n      dup7\n        /* \"#utility.yul\":6753:6775   */\n      add\n        /* \"#utility.yul\":6732:6785   */\n      tag_420\n      jump\t// in\n    tag_496:\n        /* \"#utility.yul\":6722:6785   */\n      swap2\n      pop\n        /* \"#utility.yul\":6677:6795   */\n      pop\n        /* \"#utility.yul\":6148:6802   */\n      swap3\n      pop\n      swap3\n      swap1\n      pop\n      jump\t// out\n        /* \"#utility.yul\":6808:7642   */\n    tag_80:\n        /* \"#utility.yul\":6896:6902   */\n      0x00\n        /* \"#utility.yul\":6904:6910   */\n      dup1\n        /* \"#utility.yul\":6953:6955   */\n      0x40\n        /* \"#utility.yul\":6941:6950   */\n      dup4\n        /* \"#utility.yul\":6932:6939   */\n      dup6\n        /* \"#utility.yul\":6928:6951   */\n      sub\n        /* \"#utility.yul\":6924:6956   */\n      slt\n        /* \"#utility.yul\":6921:7040   */\n      iszero\n      tag_498\n      jumpi\n        /* \"#utility.yul\":6959:7038   */\n      tag_499\n      tag_441\n      jump\t// in\n    tag_499:\n        /* \"#utility.yul\":6921:7040   */\n    tag_498:\n        /* \"#utility.yul\":7107:7108   */\n      0x00\n        /* \"#utility.yul\":7096:7105   */\n      dup4\n        /* \"#utility.yul\":7092:7109   */\n      add\n        /* \"#utility.yul\":7079:7110   */\n      calldataload\n        /* \"#utility.yul\":7137:7155   */\n      0xffffffffffffffff\n        /* \"#utility.yul\":7129:7135   */\n      dup2\n        /* \"#utility.yul\":7126:7156   */\n      gt\n        /* \"#utility.yul\":7123:7240   */\n      iszero\n      tag_500\n      jumpi\n        /* \"#utility.yul\":7159:7238   */\n      tag_501\n      tag_453\n      jump\t// in\n    tag_501:\n        /* \"#utility.yul\":7123:7240   */\n    tag_500:\n        /* \"#utility.yul\":7264:7327   */\n      tag_502\n        /* \"#utility.yul\":7319:7326   */\n      dup6\n        /* \"#utility.yul\":7310:7316   */\n      dup3\n        /* \"#utility.yul\":7299:7308   */\n      dup7\n        /* \"#utility.yul\":7295:7317   */\n      add\n        /* \"#utility.yul\":7264:7327   */\n      tag_432\n      jump\t// in\n    tag_502:\n        /* \"#utility.yul\":7254:7327   */\n      swap3\n      pop\n        /* \"#utility.yul\":7050:7337   */\n      pop\n        /* \"#utility.yul\":7404:7406   */\n      0x20\n        /* \"#utility.yul\":7393:7402   */\n      dup4\n        /* \"#utility.yul\":7389:7407   */\n      add\n        /* \"#utility.yul\":7376:7408   */\n      calldataload\n        /* \"#utility.yul\":7435:7453   */\n      0xffffffffffffffff\n        /* \"#utility.yul\":7427:7433   */\n      dup2\n        /* \"#utility.yul\":7424:7454   */\n      gt\n        /* \"#utility.yul\":7421:7538   */\n      iszero\n      tag_503\n      jumpi\n        /* \"#utility.yul\":7457:7536   */\n      tag_504\n      tag_453\n      jump\t// in\n    tag_504:\n        /* \"#utility.yul\":7421:7538   */\n    tag_503:\n        /* \"#utility.yul\":7562:7625   */\n      tag_505\n        /* \"#utility.yul\":7617:7624   */\n      dup6\n        /* \"#utility.yul\":7608:7614   */\n      dup3\n        /* \"#utility.yul\":7597:7606   */\n      dup7\n        /* \"#utility.yul\":7593:7615   */\n      add\n        /* \"#utility.yul\":7562:7625   */\n      tag_432\n      jump\t// in\n    tag_505:\n        /* \"#utility.yul\":7552:7625   */\n      swap2\n      pop\n        /* \"#utility.yul\":7347:7635   */\n      pop\n        /* \"#utility.yul\":6808:7642   */\n      swap3\n      pop\n      swap3\n      swap1\n      pop\n      jump\t// out\n        /* \"#utility.yul\":7648:8627   */\n    tag_68:\n        /* \"#utility.yul\":7745:7751   */\n      0x00\n        /* \"#utility.yul\":7753:7759   */\n      dup1\n        /* \"#utility.yul\":7761:7767   */\n      0x00\n        /* \"#utility.yul\":7810:7812   */\n      0x60\n        /* \"#utility.yul\":7798:7807   */\n      dup5\n        /* \"#utility.yul\":7789:7796   */\n      dup7\n        /* \"#utility.yul\":7785:7808   */\n      sub\n        /* \"#utility.yul\":7781:7813   */\n      slt\n        /* \"#utility.yul\":7778:7897   */\n      iszero\n      tag_507\n      jumpi\n        /* \"#utility.yul\":7816:7895   */\n      tag_508\n      tag_441\n      jump\t// in\n    tag_508:\n        /* \"#utility.yul\":7778:7897   */\n    tag_507:\n        /* \"#utility.yul\":7964:7965   */\n      0x00\n        /* \"#utility.yul\":7953:7962   */\n      dup5\n        /* \"#utility.yul\":7949:7966   */\n      add\n        /* \"#utility.yul\":7936:7967   */\n      calldataload\n        /* \"#utility.yul\":7994:8012   */\n      0xffffffffffffffff\n        /* \"#utility.yul\":7986:7992   */\n      dup2\n        /* \"#utility.yul\":7983:8013   */\n      gt\n        /* \"#utility.yul\":7980:8097   */\n      iszero\n      tag_509\n      jumpi\n        /* \"#utility.yul\":8016:8095   */\n      tag_510\n      tag_453\n      jump\t// in\n    tag_510:\n        /* \"#utility.yul\":7980:8097   */\n    tag_509:\n        /* \"#utility.yul\":8121:8184   */\n      tag_511\n        /* \"#utility.yul\":8176:8183   */\n      dup7\n        /* \"#utility.yul\":8167:8173   */\n      dup3\n        /* \"#utility.yul\":8156:8165   */\n      dup8\n        /* \"#utility.yul\":8152:8174   */\n      add\n        /* \"#utility.yul\":8121:8184   */\n      tag_432\n      jump\t// in\n    tag_511:\n        /* \"#utility.yul\":8111:8184   */\n      swap4\n      pop\n        /* \"#utility.yul\":7907:8194   */\n      pop\n        /* \"#utility.yul\":8261:8263   */\n      0x20\n        /* \"#utility.yul\":8250:8259   */\n      dup5\n        /* \"#utility.yul\":8246:8264   */\n      add\n        /* \"#utility.yul\":8233:8265   */\n      calldataload\n        /* \"#utility.yul\":8292:8310   */\n      0xffffffffffffffff\n        /* \"#utility.yul\":8284:8290   */\n      dup2\n        /* \"#utility.yul\":8281:8311   */\n      gt\n        /* \"#utility.yul\":8278:8395   */\n      iszero\n      tag_512\n      jumpi\n        /* \"#utility.yul\":8314:8393   */\n      tag_513\n      tag_453\n      jump\t// in\n    tag_513:\n        /* \"#utility.yul\":8278:8395   */\n    tag_512:\n        /* \"#utility.yul\":8419:8482   */\n      tag_514\n        /* \"#utility.yul\":8474:8481   */\n      dup7\n        /* \"#utility.yul\":8465:8471   */\n      dup3\n        /* \"#utility.yul\":8454:8463   */\n      dup8\n        /* \"#utility.yul\":8450:8472   */\n      add\n        /* \"#utility.yul\":8419:8482   */\n      tag_432\n      jump\t// in\n    tag_514:\n        /* \"#utility.yul\":8409:8482   */\n      swap3\n      pop\n        /* \"#utility.yul\":8204:8492   */\n      pop\n        /* \"#utility.yul\":8531:8533   */\n      0x40\n        /* \"#utility.yul\":8557:8610   */\n      tag_515\n        /* \"#utility.yul\":8602:8609   */\n      dup7\n        /* \"#utility.yul\":8593:8599   */\n      dup3\n        /* \"#utility.yul\":8582:8591   */\n      dup8\n        /* \"#utility.yul\":8578:8600   */\n      add\n        /* \"#utility.yul\":8557:8610   */\n      tag_420\n      jump\t// in\n    tag_515:\n        /* \"#utility.yul\":8547:8610   */\n      swap2\n      pop\n        /* \"#utility.yul\":8502:8620   */\n      pop\n        /* \"#utility.yul\":7648:8627   */\n      swap3\n      pop\n      swap3\n      pop\n      swap3\n      jump\t// out\n        /* \"#utility.yul\":8633:9938   */\n    tag_56:\n        /* \"#utility.yul\":8749:8755   */\n      0x00\n        /* \"#utility.yul\":8757:8763   */\n      dup1\n        /* \"#utility.yul\":8765:8771   */\n      0x00\n        /* \"#utility.yul\":8773:8779   */\n      dup1\n        /* \"#utility.yul\":8822:8825   */\n      0x80\n        /* \"#utility.yul\":8810:8819   */\n      dup6\n        /* \"#utility.yul\":8801:8808   */\n      dup8\n        /* \"#utility.yul\":8797:8820   */\n      sub\n        /* \"#utility.yul\":8793:8826   */\n      slt\n        /* \"#utility.yul\":8790:8910   */\n      iszero\n      tag_517\n      jumpi\n        /* \"#utility.yul\":8829:8908   */\n      tag_518\n      tag_441\n      jump\t// in\n    tag_518:\n        /* \"#utility.yul\":8790:8910   */\n    tag_517:\n        /* \"#utility.yul\":8977:8978   */\n      0x00\n        /* \"#utility.yul\":8966:8975   */\n      dup6\n        /* \"#utility.yul\":8962:8979   */\n      add\n        /* \"#utility.yul\":8949:8980   */\n      calldataload\n        /* \"#utility.yul\":9007:9025   */\n      0xffffffffffffffff\n        /* \"#utility.yul\":8999:9005   */\n      dup2\n        /* \"#utility.yul\":8996:9026   */\n      gt\n        /* \"#utility.yul\":8993:9110   */\n      iszero\n      tag_519\n      jumpi\n        /* \"#utility.yul\":9029:9108   */\n      tag_520\n      tag_453\n      jump\t// in\n    tag_520:\n        /* \"#utility.yul\":8993:9110   */\n    tag_519:\n        /* \"#utility.yul\":9134:9197   */\n      tag_521\n        /* \"#utility.yul\":9189:9196   */\n      dup8\n        /* \"#utility.yul\":9180:9186   */\n      dup3\n        /* \"#utility.yul\":9169:9178   */\n      dup9\n        /* \"#utility.yul\":9165:9187   */\n      add\n        /* \"#utility.yul\":9134:9197   */\n      tag_432\n      jump\t// in\n    tag_521:\n        /* \"#utility.yul\":9124:9197   */\n      swap5\n      pop\n        /* \"#utility.yul\":8920:9207   */\n      pop\n        /* \"#utility.yul\":9274:9276   */\n      0x20\n        /* \"#utility.yul\":9263:9272   */\n      dup6\n        /* \"#utility.yul\":9259:9277   */\n      add\n        /* \"#utility.yul\":9246:9278   */\n      calldataload\n        /* \"#utility.yul\":9305:9323   */\n      0xffffffffffffffff\n        /* \"#utility.yul\":9297:9303   */\n      dup2\n        /* \"#utility.yul\":9294:9324   */\n      gt\n        /* \"#utility.yul\":9291:9408   */\n      iszero\n      tag_522\n      jumpi\n        /* \"#utility.yul\":9327:9406   */\n      tag_523\n      tag_453\n      jump\t// in\n    tag_523:\n        /* \"#utility.yul\":9291:9408   */\n    tag_522:\n        /* \"#utility.yul\":9432:9495   */\n      tag_524\n        /* \"#utility.yul\":9487:9494   */\n      dup8\n        /* \"#utility.yul\":9478:9484   */\n      dup3\n        /* \"#utility.yul\":9467:9476   */\n      dup9\n        /* \"#utility.yul\":9463:9485   */\n      add\n        /* \"#utility.yul\":9432:9495   */\n      tag_432\n      jump\t// in\n    tag_524:\n        /* \"#utility.yul\":9422:9495   */\n      swap4\n      pop\n        /* \"#utility.yul\":9217:9505   */\n      pop\n        /* \"#utility.yul\":9544:9546   */\n      0x40\n        /* \"#utility.yul\":9570:9623   */\n      tag_525\n        /* \"#utility.yul\":9615:9622   */\n      dup8\n        /* \"#utility.yul\":9606:9612   */\n      dup3\n        /* \"#utility.yul\":9595:9604   */\n      dup9\n        /* \"#utility.yul\":9591:9613   */\n      add\n        /* \"#utility.yul\":9570:9623   */\n      tag_420\n      jump\t// in\n    tag_525:\n        /* \"#utility.yul\":9560:9623   */\n      swap3\n      pop\n        /* \"#utility.yul\":9515:9633   */\n      pop\n        /* \"#utility.yul\":9700:9702   */\n      0x60\n        /* \"#utility.yul\":9689:9698   */\n      dup6\n        /* \"#utility.yul\":9685:9703   */\n      add\n        /* \"#utility.yul\":9672:9704   */\n      calldataload\n        /* \"#utility.yul\":9731:9749   */\n      0xffffffffffffffff\n        /* \"#utility.yul\":9723:9729   */\n      dup2\n        /* \"#utility.yul\":9720:9750   */\n      gt\n        /* \"#utility.yul\":9717:9834   */\n      iszero\n      tag_526\n      jumpi\n        /* \"#utility.yul\":9753:9832   */\n      tag_527\n      tag_453\n      jump\t// in\n    tag_527:\n        /* \"#utility.yul\":9717:9834   */\n    tag_526:\n        /* \"#utility.yul\":9858:9921   */\n      tag_528\n        /* \"#utility.yul\":9913:9920   */\n      dup8\n        /* \"#utility.yul\":9904:9910   */\n      dup3\n        /* \"#utility.yul\":9893:9902   */\n      dup9\n        /* \"#utility.yul\":9889:9911   */\n      add\n        /* \"#utility.yul\":9858:9921   */\n      tag_432\n      jump\t// in\n    tag_528:\n        /* \"#utility.yul\":9848:9921   */\n      swap2\n      pop\n        /* \"#utility.yul\":9643:9931   */\n      pop\n        /* \"#utility.yul\":8633:9938   */\n      swap3\n      swap6\n      swap2\n      swap5\n      pop\n      swap3\n      pop\n      jump\t// out\n        /* \"#utility.yul\":9944:10123   */\n    tag_529:\n        /* \"#utility.yul\":10013:10023   */\n      0x00\n        /* \"#utility.yul\":10034:10080   */\n      tag_531\n        /* \"#utility.yul\":10076:10079   */\n      dup4\n        /* \"#utility.yul\":10068:10074   */\n      dup4\n        /* \"#utility.yul\":10034:10080   */\n      tag_532\n      jump\t// in\n    tag_531:\n        /* \"#utility.yul\":10112:10116   */\n      0x20\n        /* \"#utility.yul\":10107:10110   */\n      dup4\n        /* \"#utility.yul\":10103:10117   */\n      add\n        /* \"#utility.yul\":10089:10117   */\n      swap1\n      pop\n        /* \"#utility.yul\":9944:10123   */\n      swap3\n      swap2\n      pop\n      pop\n      jump\t// out\n        /* \"#utility.yul\":10129:10325   */\n    tag_533:\n        /* \"#utility.yul\":10218:10228   */\n      0x00\n        /* \"#utility.yul\":10253:10319   */\n      tag_535\n        /* \"#utility.yul\":10315:10318   */\n      dup4\n        /* \"#utility.yul\":10307:10313   */\n      dup4\n        /* \"#utility.yul\":10253:10319   */\n      tag_536\n      jump\t// in\n    tag_535:\n        /* \"#utility.yul\":10239:10319   */\n      swap1\n      pop\n        /* \"#utility.yul\":10129:10325   */\n      swap3\n      swap2\n      pop\n      pop\n      jump\t// out\n        /* \"#utility.yul\":10331:10583   */\n    tag_537:\n        /* \"#utility.yul\":10448:10458   */\n      0x00\n        /* \"#utility.yul\":10483:10577   */\n      tag_539\n        /* \"#utility.yul\":10573:10576   */\n      dup4\n        /* \"#utility.yul\":10565:10571   */\n      dup4\n        /* \"#utility.yul\":10483:10577   */\n      tag_540\n      jump\t// in\n    tag_539:\n        /* \"#utility.yul\":10469:10577   */\n      swap1\n      pop\n        /* \"#utility.yul\":10331:10583   */\n      swap3\n      swap2\n      pop\n      pop\n      jump\t// out\n        /* \"#utility.yul\":10589:10697   */\n    tag_532:\n        /* \"#utility.yul\":10666:10690   */\n      tag_542\n        /* \"#utility.yul\":10684:10689   */\n      dup2\n        /* \"#utility.yul\":10666:10690   */\n      tag_543\n      jump\t// in\n    tag_542:\n        /* \"#utility.yul\":10661:10664   */\n      dup3\n        /* \"#utility.yul\":10654:10691   */\n      mstore\n        /* \"#utility.yul\":10589:10697   */\n      pop\n      pop\n      jump\t// out\n        /* \"#utility.yul\":10703:10821   */\n    tag_544:\n        /* \"#utility.yul\":10790:10814   */\n      tag_546\n        /* \"#utility.yul\":10808:10813   */\n      dup2\n        /* \"#utility.yul\":10790:10814   */\n      tag_543\n      jump\t// in\n    tag_546:\n        /* \"#utility.yul\":10785:10788   */\n      dup3\n        /* \"#utility.yul\":10778:10815   */\n      mstore\n        /* \"#utility.yul\":10703:10821   */\n      pop\n      pop\n      jump\t// out\n        /* \"#utility.yul\":10857:11589   */\n    tag_547:\n        /* \"#utility.yul\":10976:10979   */\n      0x00\n        /* \"#utility.yul\":11005:11059   */\n      tag_549\n        /* \"#utility.yul\":11053:11058   */\n      dup3\n        /* \"#utility.yul\":11005:11059   */\n      tag_550\n      jump\t// in\n    tag_549:\n        /* \"#utility.yul\":11075:11161   */\n      tag_551\n        /* \"#utility.yul\":11154:11160   */\n      dup2\n        /* \"#utility.yul\":11149:11152   */\n      dup6\n        /* \"#utility.yul\":11075:11161   */\n      tag_552\n      jump\t// in\n    tag_551:\n        /* \"#utility.yul\":11068:11161   */\n      swap4\n      pop\n        /* \"#utility.yul\":11185:11241   */\n      tag_553\n        /* \"#utility.yul\":11235:11240   */\n      dup4\n        /* \"#utility.yul\":11185:11241   */\n      tag_554\n      jump\t// in\n    tag_553:\n        /* \"#utility.yul\":11264:11271   */\n      dup1\n        /* \"#utility.yul\":11295:11296   */\n      0x00\n        /* \"#utility.yul\":11280:11564   */\n    tag_555:\n        /* \"#utility.yul\":11305:11311   */\n      dup4\n        /* \"#utility.yul\":11302:11303   */\n      dup2\n        /* \"#utility.yul\":11299:11312   */\n      lt\n        /* \"#utility.yul\":11280:11564   */\n      iszero\n      tag_557\n      jumpi\n        /* \"#utility.yul\":11381:11387   */\n      dup2\n        /* \"#utility.yul\":11375:11388   */\n      mload\n        /* \"#utility.yul\":11408:11471   */\n      tag_558\n        /* \"#utility.yul\":11467:11470   */\n      dup9\n        /* \"#utility.yul\":11452:11465   */\n      dup3\n        /* \"#utility.yul\":11408:11471   */\n      tag_529\n      jump\t// in\n    tag_558:\n        /* \"#utility.yul\":11401:11471   */\n      swap8\n      pop\n        /* \"#utility.yul\":11494:11554   */\n      tag_559\n        /* \"#utility.yul\":11547:11553   */\n      dup4\n        /* \"#utility.yul\":11494:11554   */\n      tag_560\n      jump\t// in\n    tag_559:\n        /* \"#utility.yul\":11484:11554   */\n      swap3\n      pop\n        /* \"#utility.yul\":11340:11564   */\n      pop\n        /* \"#utility.yul\":11327:11328   */\n      0x01\n        /* \"#utility.yul\":11324:11325   */\n      dup2\n        /* \"#utility.yul\":11320:11329   */\n      add\n        /* \"#utility.yul\":11315:11329   */\n      swap1\n      pop\n        /* \"#utility.yul\":11280:11564   */\n      jump(tag_555)\n    tag_557:\n        /* \"#utility.yul\":11284:11298   */\n      pop\n        /* \"#utility.yul\":11580:11583   */\n      dup6\n        /* \"#utility.yul\":11573:11583   */\n      swap4\n      pop\n        /* \"#utility.yul\":10981:11589   */\n      pop\n      pop\n      pop\n        /* \"#utility.yul\":10857:11589   */\n      swap3\n      swap2\n      pop\n      pop\n      jump\t// out\n        /* \"#utility.yul\":11623:12614   */\n    tag_561:\n        /* \"#utility.yul\":11762:11765   */\n      0x00\n        /* \"#utility.yul\":11791:11855   */\n      tag_563\n        /* \"#utility.yul\":11849:11854   */\n      dup3\n        /* \"#utility.yul\":11791:11855   */\n      tag_564\n      jump\t// in\n    tag_563:\n        /* \"#utility.yul\":11871:11967   */\n      tag_565\n        /* \"#utility.yul\":11960:11966   */\n      dup2\n        /* \"#utility.yul\":11955:11958   */\n      dup6\n        /* \"#utility.yul\":11871:11967   */\n      tag_566\n      jump\t// in\n    tag_565:\n        /* \"#utility.yul\":11864:11967   */\n      swap4\n      pop\n        /* \"#utility.yul\":11993:11996   */\n      dup4\n        /* \"#utility.yul\":12038:12042   */\n      0x20\n        /* \"#utility.yul\":12030:12036   */\n      dup3\n        /* \"#utility.yul\":12026:12043   */\n      mul\n        /* \"#utility.yul\":12021:12024   */\n      dup6\n        /* \"#utility.yul\":12017:12044   */\n      add\n        /* \"#utility.yul\":12068:12134   */\n      tag_567\n        /* \"#utility.yul\":12128:12133   */\n      dup6\n        /* \"#utility.yul\":12068:12134   */\n      tag_568\n      jump\t// in\n    tag_567:\n        /* \"#utility.yul\":12157:12164   */\n      dup1\n        /* \"#utility.yul\":12188:12189   */\n      0x00\n        /* \"#utility.yul\":12173:12569   */\n    tag_569:\n        /* \"#utility.yul\":12198:12204   */\n      dup6\n        /* \"#utility.yul\":12195:12196   */\n      dup2\n        /* \"#utility.yul\":12192:12205   */\n      lt\n        /* \"#utility.yul\":12173:12569   */\n      iszero\n      tag_571\n      jumpi\n        /* \"#utility.yul\":12269:12278   */\n      dup5\n        /* \"#utility.yul\":12263:12267   */\n      dup5\n        /* \"#utility.yul\":12259:12279   */\n      sub\n        /* \"#utility.yul\":12254:12257   */\n      dup10\n        /* \"#utility.yul\":12247:12280   */\n      mstore\n        /* \"#utility.yul\":12320:12326   */\n      dup2\n        /* \"#utility.yul\":12314:12327   */\n      mload\n        /* \"#utility.yul\":12348:12432   */\n      tag_572\n        /* \"#utility.yul\":12427:12431   */\n      dup6\n        /* \"#utility.yul\":12412:12425   */\n      dup3\n        /* \"#utility.yul\":12348:12432   */\n      tag_533\n      jump\t// in\n    tag_572:\n        /* \"#utility.yul\":12340:12432   */\n      swap5\n      pop\n        /* \"#utility.yul\":12455:12525   */\n      tag_573\n        /* \"#utility.yul\":12518:12524   */\n      dup4\n        /* \"#utility.yul\":12455:12525   */\n      tag_574\n      jump\t// in\n    tag_573:\n        /* \"#utility.yul\":12445:12525   */\n      swap3\n      pop\n        /* \"#utility.yul\":12554:12558   */\n      0x20\n        /* \"#utility.yul\":12549:12552   */\n      dup11\n        /* \"#utility.yul\":12545:12559   */\n      add\n        /* \"#utility.yul\":12538:12559   */\n      swap10\n      pop\n        /* \"#utility.yul\":12233:12569   */\n      pop\n        /* \"#utility.yul\":12220:12221   */\n      0x01\n        /* \"#utility.yul\":12217:12218   */\n      dup2\n        /* \"#utility.yul\":12213:12222   */\n      add\n        /* \"#utility.yul\":12208:12222   */\n      swap1\n      pop\n        /* \"#utility.yul\":12173:12569   */\n      jump(tag_569)\n    tag_571:\n        /* \"#utility.yul\":12177:12191   */\n      pop\n        /* \"#utility.yul\":12585:12589   */\n      dup3\n        /* \"#utility.yul\":12578:12589   */\n      swap8\n      pop\n        /* \"#utility.yul\":12605:12608   */\n      dup8\n        /* \"#utility.yul\":12598:12608   */\n      swap6\n      pop\n        /* \"#utility.yul\":11767:12614   */\n      pop\n      pop\n      pop\n      pop\n      pop\n        /* \"#utility.yul\":11623:12614   */\n      swap3\n      swap2\n      pop\n      pop\n      jump\t// out\n        /* \"#utility.yul\":12664:13767   */\n    tag_575:\n        /* \"#utility.yul\":12831:12834   */\n      0x00\n        /* \"#utility.yul\":12860:12938   */\n      tag_577\n        /* \"#utility.yul\":12932:12937   */\n      dup3\n        /* \"#utility.yul\":12860:12938   */\n      tag_578\n      jump\t// in\n    tag_577:\n        /* \"#utility.yul\":12954:13064   */\n      tag_579\n        /* \"#utility.yul\":13057:13063   */\n      dup2\n        /* \"#utility.yul\":13052:13055   */\n      dup6\n        /* \"#utility.yul\":12954:13064   */\n      tag_580\n      jump\t// in\n    tag_579:\n        /* \"#utility.yul\":12947:13064   */\n      swap4\n      pop\n        /* \"#utility.yul\":13090:13093   */\n      dup4\n        /* \"#utility.yul\":13135:13139   */\n      0x20\n        /* \"#utility.yul\":13127:13133   */\n      dup3\n        /* \"#utility.yul\":13123:13140   */\n      mul\n        /* \"#utility.yul\":13118:13121   */\n      dup6\n        /* \"#utility.yul\":13114:13141   */\n      add\n        /* \"#utility.yul\":13165:13245   */\n      tag_581\n        /* \"#utility.yul\":13239:13244   */\n      dup6\n        /* \"#utility.yul\":13165:13245   */\n      tag_582\n      jump\t// in\n    tag_581:\n        /* \"#utility.yul\":13268:13275   */\n      dup1\n        /* \"#utility.yul\":13299:13300   */\n      0x00\n        /* \"#utility.yul\":13284:13722   */\n    tag_583:\n        /* \"#utility.yul\":13309:13315   */\n      dup6\n        /* \"#utility.yul\":13306:13307   */\n      dup2\n        /* \"#utility.yul\":13303:13316   */\n      lt\n        /* \"#utility.yul\":13284:13722   */\n      iszero\n      tag_585\n      jumpi\n        /* \"#utility.yul\":13380:13389   */\n      dup5\n        /* \"#utility.yul\":13374:13378   */\n      dup5\n        /* \"#utility.yul\":13370:13390   */\n      sub\n        /* \"#utility.yul\":13365:13368   */\n      dup10\n        /* \"#utility.yul\":13358:13391   */\n      mstore\n        /* \"#utility.yul\":13431:13437   */\n      dup2\n        /* \"#utility.yul\":13425:13438   */\n      mload\n        /* \"#utility.yul\":13459:13571   */\n      tag_586\n        /* \"#utility.yul\":13566:13570   */\n      dup6\n        /* \"#utility.yul\":13551:13564   */\n      dup3\n        /* \"#utility.yul\":13459:13571   */\n      tag_537\n      jump\t// in\n    tag_586:\n        /* \"#utility.yul\":13451:13571   */\n      swap5\n      pop\n        /* \"#utility.yul\":13594:13678   */\n      tag_587\n        /* \"#utility.yul\":13671:13677   */\n      dup4\n        /* \"#utility.yul\":13594:13678   */\n      tag_588\n      jump\t// in\n    tag_587:\n        /* \"#utility.yul\":13584:13678   */\n      swap3\n      pop\n        /* \"#utility.yul\":13707:13711   */\n      0x20\n        /* \"#utility.yul\":13702:13705   */\n      dup11\n        /* \"#utility.yul\":13698:13712   */\n      add\n        /* \"#utility.yul\":13691:13712   */\n      swap10\n      pop\n        /* \"#utility.yul\":13344:13722   */\n      pop\n        /* \"#utility.yul\":13331:13332   */\n      0x01\n        /* \"#utility.yul\":13328:13329   */\n      dup2\n        /* \"#utility.yul\":13324:13333   */\n      add\n        /* \"#utility.yul\":13319:13333   */\n      swap1\n      pop\n        /* \"#utility.yul\":13284:13722   */\n      jump(tag_583)\n    tag_585:\n        /* \"#utility.yul\":13288:13302   */\n      pop\n        /* \"#utility.yul\":13738:13742   */\n      dup3\n        /* \"#utility.yul\":13731:13742   */\n      swap8\n      pop\n        /* \"#utility.yul\":13758:13761   */\n      dup8\n        /* \"#utility.yul\":13751:13761   */\n      swap6\n      pop\n        /* \"#utility.yul\":12836:13767   */\n      pop\n      pop\n      pop\n      pop\n      pop\n        /* \"#utility.yul\":12664:13767   */\n      swap3\n      swap2\n      pop\n      pop\n      jump\t// out\n        /* \"#utility.yul\":13773:13872   */\n    tag_589:\n        /* \"#utility.yul\":13844:13865   */\n      tag_591\n        /* \"#utility.yul\":13859:13864   */\n      dup2\n        /* \"#utility.yul\":13844:13865   */\n      tag_592\n      jump\t// in\n    tag_591:\n        /* \"#utility.yul\":13839:13842   */\n      dup3\n        /* \"#utility.yul\":13832:13866   */\n      mstore\n        /* \"#utility.yul\":13773:13872   */\n      pop\n      pop\n      jump\t// out\n        /* \"#utility.yul\":13878:14222   */\n    tag_536:\n        /* \"#utility.yul\":13956:13959   */\n      0x00\n        /* \"#utility.yul\":13984:14023   */\n      tag_594\n        /* \"#utility.yul\":14017:14022   */\n      dup3\n        /* \"#utility.yul\":13984:14023   */\n      tag_595\n      jump\t// in\n    tag_594:\n        /* \"#utility.yul\":14039:14100   */\n      tag_596\n        /* \"#utility.yul\":14093:14099   */\n      dup2\n        /* \"#utility.yul\":14088:14091   */\n      dup6\n        /* \"#utility.yul\":14039:14100   */\n      tag_597\n      jump\t// in\n    tag_596:\n        /* \"#utility.yul\":14032:14100   */\n      swap4\n      pop\n        /* \"#utility.yul\":14109:14161   */\n      tag_598\n        /* \"#utility.yul\":14154:14160   */\n      dup2\n        /* \"#utility.yul\":14149:14152   */\n      dup6\n        /* \"#utility.yul\":14142:14146   */\n      0x20\n        /* \"#utility.yul\":14135:14140   */\n      dup7\n        /* \"#utility.yul\":14131:14147   */\n      add\n        /* \"#utility.yul\":14109:14161   */\n      tag_599\n      jump\t// in\n    tag_598:\n        /* \"#utility.yul\":14186:14215   */\n      tag_600\n        /* \"#utility.yul\":14208:14214   */\n      dup2\n        /* \"#utility.yul\":14186:14215   */\n      tag_601\n      jump\t// in\n    tag_600:\n        /* \"#utility.yul\":14181:14184   */\n      dup5\n        /* \"#utility.yul\":14177:14216   */\n      add\n        /* \"#utility.yul\":14170:14216   */\n      swap2\n      pop\n        /* \"#utility.yul\":13960:14222   */\n      pop\n        /* \"#utility.yul\":13878:14222   */\n      swap3\n      swap2\n      pop\n      pop\n      jump\t// out\n        /* \"#utility.yul\":14228:14592   */\n    tag_602:\n        /* \"#utility.yul\":14316:14319   */\n      0x00\n        /* \"#utility.yul\":14344:14383   */\n      tag_604\n        /* \"#utility.yul\":14377:14382   */\n      dup3\n        /* \"#utility.yul\":14344:14383   */\n      tag_595\n      jump\t// in\n    tag_604:\n        /* \"#utility.yul\":14399:14470   */\n      tag_605\n        /* \"#utility.yul\":14463:14469   */\n      dup2\n        /* \"#utility.yul\":14458:14461   */\n      dup6\n        /* \"#utility.yul\":14399:14470   */\n      tag_606\n      jump\t// in\n    tag_605:\n        /* \"#utility.yul\":14392:14470   */\n      swap4\n      pop\n        /* \"#utility.yul\":14479:14531   */\n      tag_607\n        /* \"#utility.yul\":14524:14530   */\n      dup2\n        /* \"#utility.yul\":14519:14522   */\n      dup6\n        /* \"#utility.yul\":14512:14516   */\n      0x20\n        /* \"#utility.yul\":14505:14510   */\n      dup7\n        /* \"#utility.yul\":14501:14517   */\n      add\n        /* \"#utility.yul\":14479:14531   */\n      tag_599\n      jump\t// in\n    tag_607:\n        /* \"#utility.yul\":14556:14585   */\n      tag_608\n        /* \"#utility.yul\":14578:14584   */\n      dup2\n        /* \"#utility.yul\":14556:14585   */\n      tag_601\n      jump\t// in\n    tag_608:\n        /* \"#utility.yul\":14551:14554   */\n      dup5\n        /* \"#utility.yul\":14547:14586   */\n      add\n        /* \"#utility.yul\":14540:14586   */\n      swap2\n      pop\n        /* \"#utility.yul\":14320:14592   */\n      pop\n        /* \"#utility.yul\":14228:14592   */\n      swap3\n      swap2\n      pop\n      pop\n      jump\t// out\n        /* \"#utility.yul\":14598:14975   */\n    tag_609:\n        /* \"#utility.yul\":14704:14707   */\n      0x00\n        /* \"#utility.yul\":14732:14771   */\n      tag_611\n        /* \"#utility.yul\":14765:14770   */\n      dup3\n        /* \"#utility.yul\":14732:14771   */\n      tag_595\n      jump\t// in\n    tag_611:\n        /* \"#utility.yul\":14787:14876   */\n      tag_612\n        /* \"#utility.yul\":14869:14875   */\n      dup2\n        /* \"#utility.yul\":14864:14867   */\n      dup6\n        /* \"#utility.yul\":14787:14876   */\n      tag_613\n      jump\t// in\n    tag_612:\n        /* \"#utility.yul\":14780:14876   */\n      swap4\n      pop\n        /* \"#utility.yul\":14885:14937   */\n      tag_614\n        /* \"#utility.yul\":14930:14936   */\n      dup2\n        /* \"#utility.yul\":14925:14928   */\n      dup6\n        /* \"#utility.yul\":14918:14922   */\n      0x20\n        /* \"#utility.yul\":14911:14916   */\n      dup7\n        /* \"#utility.yul\":14907:14923   */\n      add\n        /* \"#utility.yul\":14885:14937   */\n      tag_599\n      jump\t// in\n    tag_614:\n        /* \"#utility.yul\":14962:14968   */\n      dup1\n        /* \"#utility.yul\":14957:14960   */\n      dup5\n        /* \"#utility.yul\":14953:14969   */\n      add\n        /* \"#utility.yul\":14946:14969   */\n      swap2\n      pop\n        /* \"#utility.yul\":14708:14975   */\n      pop\n        /* \"#utility.yul\":14598:14975   */\n      swap3\n      swap2\n      pop\n      pop\n      jump\t// out\n        /* \"#utility.yul\":14981:15347   */\n    tag_615:\n        /* \"#utility.yul\":15123:15126   */\n      0x00\n        /* \"#utility.yul\":15144:15211   */\n      tag_617\n        /* \"#utility.yul\":15208:15210   */\n      0x22\n        /* \"#utility.yul\":15203:15206   */\n      dup4\n        /* \"#utility.yul\":15144:15211   */\n      tag_606\n      jump\t// in\n    tag_617:\n        /* \"#utility.yul\":15137:15211   */\n      swap2\n      pop\n        /* \"#utility.yul\":15220:15313   */\n      tag_618\n        /* \"#utility.yul\":15309:15312   */\n      dup3\n        /* \"#utility.yul\":15220:15313   */\n      tag_619\n      jump\t// in\n    tag_618:\n        /* \"#utility.yul\":15338:15340   */\n      0x40\n        /* \"#utility.yul\":15333:15336   */\n      dup3\n        /* \"#utility.yul\":15329:15341   */\n      add\n        /* \"#utility.yul\":15322:15341   */\n      swap1\n      pop\n        /* \"#utility.yul\":14981:15347   */\n      swap2\n      swap1\n      pop\n      jump\t// out\n        /* \"#utility.yul\":15353:15719   */\n    tag_620:\n        /* \"#utility.yul\":15495:15498   */\n      0x00\n        /* \"#utility.yul\":15516:15583   */\n      tag_622\n        /* \"#utility.yul\":15580:15582   */\n      0x0b\n        /* \"#utility.yul\":15575:15578   */\n      dup4\n        /* \"#utility.yul\":15516:15583   */\n      tag_606\n      jump\t// in\n    tag_622:\n        /* \"#utility.yul\":15509:15583   */\n      swap2\n      pop\n        /* \"#utility.yul\":15592:15685   */\n      tag_623\n        /* \"#utility.yul\":15681:15684   */\n      dup3\n        /* \"#utility.yul\":15592:15685   */\n      tag_624\n      jump\t// in\n    tag_623:\n        /* \"#utility.yul\":15710:15712   */\n      0x20\n        /* \"#utility.yul\":15705:15708   */\n      dup3\n        /* \"#utility.yul\":15701:15713   */\n      add\n        /* \"#utility.yul\":15694:15713   */\n      swap1\n      pop\n        /* \"#utility.yul\":15353:15719   */\n      swap2\n      swap1\n      pop\n      jump\t// out\n        /* \"#utility.yul\":15725:16090   */\n    tag_625:\n        /* \"#utility.yul\":15867:15870   */\n      0x00\n        /* \"#utility.yul\":15888:15954   */\n      tag_627\n        /* \"#utility.yul\":15952:15953   */\n      0x09\n        /* \"#utility.yul\":15947:15950   */\n      dup4\n        /* \"#utility.yul\":15888:15954   */\n      tag_606\n      jump\t// in\n    tag_627:\n        /* \"#utility.yul\":15881:15954   */\n      swap2\n      pop\n        /* \"#utility.yul\":15963:16056   */\n      tag_628\n        /* \"#utility.yul\":16052:16055   */\n      dup3\n        /* \"#utility.yul\":15963:16056   */\n      tag_629\n      jump\t// in\n    tag_628:\n        /* \"#utility.yul\":16081:16083   */\n      0x20\n        /* \"#utility.yul\":16076:16079   */\n      dup3\n        /* \"#utility.yul\":16072:16084   */\n      add\n        /* \"#utility.yul\":16065:16084   */\n      swap1\n      pop\n        /* \"#utility.yul\":15725:16090   */\n      swap2\n      swap1\n      pop\n      jump\t// out\n        /* \"#utility.yul\":16096:16462   */\n    tag_630:\n        /* \"#utility.yul\":16238:16241   */\n      0x00\n        /* \"#utility.yul\":16259:16326   */\n      tag_632\n        /* \"#utility.yul\":16323:16325   */\n      0x0c\n        /* \"#utility.yul\":16318:16321   */\n      dup4\n        /* \"#utility.yul\":16259:16326   */\n      tag_606\n      jump\t// in\n    tag_632:\n        /* \"#utility.yul\":16252:16326   */\n      swap2\n      pop\n        /* \"#utility.yul\":16335:16428   */\n      tag_633\n        /* \"#utility.yul\":16424:16427   */\n      dup3\n        /* \"#utility.yul\":16335:16428   */\n      tag_634\n      jump\t// in\n    tag_633:\n        /* \"#utility.yul\":16453:16455   */\n      0x20\n        /* \"#utility.yul\":16448:16451   */\n      dup3\n        /* \"#utility.yul\":16444:16456   */\n      add\n        /* \"#utility.yul\":16437:16456   */\n      swap1\n      pop\n        /* \"#utility.yul\":16096:16462   */\n      swap2\n      swap1\n      pop\n      jump\t// out\n        /* \"#utility.yul\":16468:16834   */\n    tag_635:\n        /* \"#utility.yul\":16610:16613   */\n      0x00\n        /* \"#utility.yul\":16631:16698   */\n      tag_637\n        /* \"#utility.yul\":16695:16697   */\n      0x0d\n        /* \"#utility.yul\":16690:16693   */\n      dup4\n        /* \"#utility.yul\":16631:16698   */\n      tag_606\n      jump\t// in\n    tag_637:\n        /* \"#utility.yul\":16624:16698   */\n      swap2\n      pop\n        /* \"#utility.yul\":16707:16800   */\n      tag_638\n        /* \"#utility.yul\":16796:16799   */\n      dup3\n        /* \"#utility.yul\":16707:16800   */\n      tag_639\n      jump\t// in\n    tag_638:\n        /* \"#utility.yul\":16825:16827   */\n      0x20\n        /* \"#utility.yul\":16820:16823   */\n      dup3\n        /* \"#utility.yul\":16816:16828   */\n      add\n        /* \"#utility.yul\":16809:16828   */\n      swap1\n      pop\n        /* \"#utility.yul\":16468:16834   */\n      swap2\n      swap1\n      pop\n      jump\t// out\n        /* \"#utility.yul\":16840:17206   */\n    tag_640:\n        /* \"#utility.yul\":16982:16985   */\n      0x00\n        /* \"#utility.yul\":17003:17070   */\n      tag_642\n        /* \"#utility.yul\":17067:17069   */\n      0x16\n        /* \"#utility.yul\":17062:17065   */\n      dup4\n        /* \"#utility.yul\":17003:17070   */\n      tag_606\n      jump\t// in\n    tag_642:\n        /* \"#utility.yul\":16996:17070   */\n      swap2\n      pop\n        /* \"#utility.yul\":17079:17172   */\n      tag_643\n        /* \"#utility.yul\":17168:17171   */\n      dup3\n        /* \"#utility.yul\":17079:17172   */\n      tag_644\n      jump\t// in\n    tag_643:\n        /* \"#utility.yul\":17197:17199   */\n      0x20\n        /* \"#utility.yul\":17192:17195   */\n      dup3\n        /* \"#utility.yul\":17188:17200   */\n      add\n        /* \"#utility.yul\":17181:17200   */\n      swap1\n      pop\n        /* \"#utility.yul\":16840:17206   */\n      swap2\n      swap1\n      pop\n      jump\t// out\n        /* \"#utility.yul\":17212:17578   */\n    tag_645:\n        /* \"#utility.yul\":17354:17357   */\n      0x00\n        /* \"#utility.yul\":17375:17442   */\n      tag_647\n        /* \"#utility.yul\":17439:17441   */\n      0x0b\n        /* \"#utility.yul\":17434:17437   */\n      dup4\n        /* \"#utility.yul\":17375:17442   */\n      tag_606\n      jump\t// in\n    tag_647:\n        /* \"#utility.yul\":17368:17442   */\n      swap2\n      pop\n        /* \"#utility.yul\":17451:17544   */\n      tag_648\n        /* \"#utility.yul\":17540:17543   */\n      dup3\n        /* \"#utility.yul\":17451:17544   */\n      tag_649\n      jump\t// in\n    tag_648:\n        /* \"#utility.yul\":17569:17571   */\n      0x20\n        /* \"#utility.yul\":17564:17567   */\n      dup3\n        /* \"#utility.yul\":17560:17572   */\n      add\n        /* \"#utility.yul\":17553:17572   */\n      swap1\n      pop\n        /* \"#utility.yul\":17212:17578   */\n      swap2\n      swap1\n      pop\n      jump\t// out\n        /* \"#utility.yul\":17624:18652   */\n    tag_540:\n        /* \"#utility.yul\":17731:17734   */\n      0x00\n        /* \"#utility.yul\":17767:17771   */\n      0x80\n        /* \"#utility.yul\":17762:17765   */\n      dup4\n        /* \"#utility.yul\":17758:17772   */\n      add\n        /* \"#utility.yul\":17858:17862   */\n      0x00\n        /* \"#utility.yul\":17851:17856   */\n      dup4\n        /* \"#utility.yul\":17847:17863   */\n      add\n        /* \"#utility.yul\":17841:17864   */\n      mload\n        /* \"#utility.yul\":17877:17940   */\n      tag_651\n        /* \"#utility.yul\":17934:17938   */\n      0x00\n        /* \"#utility.yul\":17929:17932   */\n      dup7\n        /* \"#utility.yul\":17925:17939   */\n      add\n        /* \"#utility.yul\":17911:17923   */\n      dup3\n        /* \"#utility.yul\":17877:17940   */\n      tag_532\n      jump\t// in\n    tag_651:\n        /* \"#utility.yul\":17782:17950   */\n      pop\n        /* \"#utility.yul\":18039:18043   */\n      0x20\n        /* \"#utility.yul\":18032:18037   */\n      dup4\n        /* \"#utility.yul\":18028:18044   */\n      add\n        /* \"#utility.yul\":18022:18045   */\n      mload\n        /* \"#utility.yul\":18092:18095   */\n      dup5\n        /* \"#utility.yul\":18086:18090   */\n      dup3\n        /* \"#utility.yul\":18082:18096   */\n      sub\n        /* \"#utility.yul\":18075:18079   */\n      0x20\n        /* \"#utility.yul\":18070:18073   */\n      dup7\n        /* \"#utility.yul\":18066:18080   */\n      add\n        /* \"#utility.yul\":18059:18097   */\n      mstore\n        /* \"#utility.yul\":18118:18191   */\n      tag_652\n        /* \"#utility.yul\":18186:18190   */\n      dup3\n        /* \"#utility.yul\":18172:18184   */\n      dup3\n        /* \"#utility.yul\":18118:18191   */\n      tag_536\n      jump\t// in\n    tag_652:\n        /* \"#utility.yul\":18110:18191   */\n      swap2\n      pop\n        /* \"#utility.yul\":17960:18202   */\n      pop\n        /* \"#utility.yul\":18291:18295   */\n      0x40\n        /* \"#utility.yul\":18284:18289   */\n      dup4\n        /* \"#utility.yul\":18280:18296   */\n      add\n        /* \"#utility.yul\":18274:18297   */\n      mload\n        /* \"#utility.yul\":18344:18347   */\n      dup5\n        /* \"#utility.yul\":18338:18342   */\n      dup3\n        /* \"#utility.yul\":18334:18348   */\n      sub\n        /* \"#utility.yul\":18327:18331   */\n      0x40\n        /* \"#utility.yul\":18322:18325   */\n      dup7\n        /* \"#utility.yul\":18318:18332   */\n      add\n        /* \"#utility.yul\":18311:18349   */\n      mstore\n        /* \"#utility.yul\":18370:18443   */\n      tag_653\n        /* \"#utility.yul\":18438:18442   */\n      dup3\n        /* \"#utility.yul\":18424:18436   */\n      dup3\n        /* \"#utility.yul\":18370:18443   */\n      tag_536\n      jump\t// in\n    tag_653:\n        /* \"#utility.yul\":18362:18443   */\n      swap2\n      pop\n        /* \"#utility.yul\":18212:18454   */\n      pop\n        /* \"#utility.yul\":18539:18543   */\n      0x60\n        /* \"#utility.yul\":18532:18537   */\n      dup4\n        /* \"#utility.yul\":18528:18544   */\n      add\n        /* \"#utility.yul\":18522:18545   */\n      mload\n        /* \"#utility.yul\":18558:18615   */\n      tag_654\n        /* \"#utility.yul\":18609:18613   */\n      0x60\n        /* \"#utility.yul\":18604:18607   */\n      dup7\n        /* \"#utility.yul\":18600:18614   */\n      add\n        /* \"#utility.yul\":18586:18598   */\n      dup3\n        /* \"#utility.yul\":18558:18615   */\n      tag_589\n      jump\t// in\n    tag_654:\n        /* \"#utility.yul\":18464:18625   */\n      pop\n        /* \"#utility.yul\":18642:18646   */\n      dup1\n        /* \"#utility.yul\":18635:18646   */\n      swap2\n      pop\n        /* \"#utility.yul\":17736:18652   */\n      pop\n        /* \"#utility.yul\":17624:18652   */\n      swap3\n      swap2\n      pop\n      pop\n      jump\t// out\n        /* \"#utility.yul\":18658:18776   */\n    tag_655:\n        /* \"#utility.yul\":18745:18769   */\n      tag_657\n        /* \"#utility.yul\":18763:18768   */\n      dup2\n        /* \"#utility.yul\":18745:18769   */\n      tag_658\n      jump\t// in\n    tag_657:\n        /* \"#utility.yul\":18740:18743   */\n      dup3\n        /* \"#utility.yul\":18733:18770   */\n      mstore\n        /* \"#utility.yul\":18658:18776   */\n      pop\n      pop\n      jump\t// out\n        /* \"#utility.yul\":18782:19057   */\n    tag_152:\n        /* \"#utility.yul\":18914:18917   */\n      0x00\n        /* \"#utility.yul\":18936:19031   */\n      tag_660\n        /* \"#utility.yul\":19027:19030   */\n      dup3\n        /* \"#utility.yul\":19018:19024   */\n      dup5\n        /* \"#utility.yul\":18936:19031   */\n      tag_609\n      jump\t// in\n    tag_660:\n        /* \"#utility.yul\":18929:19031   */\n      swap2\n      pop\n        /* \"#utility.yul\":19048:19051   */\n      dup2\n        /* \"#utility.yul\":19041:19051   */\n      swap1\n      pop\n        /* \"#utility.yul\":18782:19057   */\n      swap3\n      swap2\n      pop\n      pop\n      jump\t// out\n        /* \"#utility.yul\":19063:19486   */\n    tag_40:\n        /* \"#utility.yul\":19204:19208   */\n      0x00\n        /* \"#utility.yul\":19242:19244   */\n      0x40\n        /* \"#utility.yul\":19231:19240   */\n      dup3\n        /* \"#utility.yul\":19227:19245   */\n      add\n        /* \"#utility.yul\":19219:19245   */\n      swap1\n      pop\n        /* \"#utility.yul\":19255:19326   */\n      tag_662\n        /* \"#utility.yul\":19323:19324   */\n      0x00\n        /* \"#utility.yul\":19312:19321   */\n      dup4\n        /* \"#utility.yul\":19308:19325   */\n      add\n        /* \"#utility.yul\":19299:19305   */\n      dup6\n        /* \"#utility.yul\":19255:19326   */\n      tag_544\n      jump\t// in\n    tag_662:\n        /* \"#utility.yul\":19373:19382   */\n      dup2\n        /* \"#utility.yul\":19367:19371   */\n      dup2\n        /* \"#utility.yul\":19363:19383   */\n      sub\n        /* \"#utility.yul\":19358:19360   */\n      0x20\n        /* \"#utility.yul\":19347:19356   */\n      dup4\n        /* \"#utility.yul\":19343:19361   */\n      add\n        /* \"#utility.yul\":19336:19384   */\n      mstore\n        /* \"#utility.yul\":19401:19479   */\n      tag_663\n        /* \"#utility.yul\":19474:19478   */\n      dup2\n        /* \"#utility.yul\":19465:19471   */\n      dup5\n        /* \"#utility.yul\":19401:19479   */\n      tag_602\n      jump\t// in\n    tag_663:\n        /* \"#utility.yul\":19393:19479   */\n      swap1\n      pop\n        /* \"#utility.yul\":19063:19486   */\n      swap4\n      swap3\n      pop\n      pop\n      pop\n      jump\t// out\n        /* \"#utility.yul\":19492:20725   */\n    tag_77:\n        /* \"#utility.yul\":19907:19911   */\n      0x00\n        /* \"#utility.yul\":19945:19948   */\n      0x80\n        /* \"#utility.yul\":19934:19943   */\n      dup3\n        /* \"#utility.yul\":19930:19949   */\n      add\n        /* \"#utility.yul\":19922:19949   */\n      swap1\n      pop\n        /* \"#utility.yul\":19995:20004   */\n      dup2\n        /* \"#utility.yul\":19989:19993   */\n      dup2\n        /* \"#utility.yul\":19985:20005   */\n      sub\n        /* \"#utility.yul\":19981:19982   */\n      0x00\n        /* \"#utility.yul\":19970:19979   */\n      dup4\n        /* \"#utility.yul\":19966:19983   */\n      add\n        /* \"#utility.yul\":19959:20006   */\n      mstore\n        /* \"#utility.yul\":20023:20101   */\n      tag_665\n        /* \"#utility.yul\":20096:20100   */\n      dup2\n        /* \"#utility.yul\":20087:20093   */\n      dup8\n        /* \"#utility.yul\":20023:20101   */\n      tag_602\n      jump\t// in\n    tag_665:\n        /* \"#utility.yul\":20015:20101   */\n      swap1\n      pop\n        /* \"#utility.yul\":20148:20157   */\n      dup2\n        /* \"#utility.yul\":20142:20146   */\n      dup2\n        /* \"#utility.yul\":20138:20158   */\n      sub\n        /* \"#utility.yul\":20133:20135   */\n      0x20\n        /* \"#utility.yul\":20122:20131   */\n      dup4\n        /* \"#utility.yul\":20118:20136   */\n      add\n        /* \"#utility.yul\":20111:20159   */\n      mstore\n        /* \"#utility.yul\":20176:20332   */\n      tag_666\n        /* \"#utility.yul\":20327:20331   */\n      dup2\n        /* \"#utility.yul\":20318:20324   */\n      dup7\n        /* \"#utility.yul\":20176:20332   */\n      tag_575\n      jump\t// in\n    tag_666:\n        /* \"#utility.yul\":20168:20332   */\n      swap1\n      pop\n        /* \"#utility.yul\":20379:20388   */\n      dup2\n        /* \"#utility.yul\":20373:20377   */\n      dup2\n        /* \"#utility.yul\":20369:20389   */\n      sub\n        /* \"#utility.yul\":20364:20366   */\n      0x40\n        /* \"#utility.yul\":20353:20362   */\n      dup4\n        /* \"#utility.yul\":20349:20367   */\n      add\n        /* \"#utility.yul\":20342:20390   */\n      mstore\n        /* \"#utility.yul\":20407:20535   */\n      tag_667\n        /* \"#utility.yul\":20530:20534   */\n      dup2\n        /* \"#utility.yul\":20521:20527   */\n      dup6\n        /* \"#utility.yul\":20407:20535   */\n      tag_561\n      jump\t// in\n    tag_667:\n        /* \"#utility.yul\":20399:20535   */\n      swap1\n      pop\n        /* \"#utility.yul\":20582:20591   */\n      dup2\n        /* \"#utility.yul\":20576:20580   */\n      dup2\n        /* \"#utility.yul\":20572:20592   */\n      sub\n        /* \"#utility.yul\":20567:20569   */\n      0x60\n        /* \"#utility.yul\":20556:20565   */\n      dup4\n        /* \"#utility.yul\":20552:20570   */\n      add\n        /* \"#utility.yul\":20545:20593   */\n      mstore\n        /* \"#utility.yul\":20610:20718   */\n      tag_668\n        /* \"#utility.yul\":20713:20717   */\n      dup2\n        /* \"#utility.yul\":20704:20710   */\n      dup5\n        /* \"#utility.yul\":20610:20718   */\n      tag_547\n      jump\t// in\n    tag_668:\n        /* \"#utility.yul\":20602:20718   */\n      swap1\n      pop\n        /* \"#utility.yul\":19492:20725   */\n      swap6\n      swap5\n      pop\n      pop\n      pop\n      pop\n      pop\n      jump\t// out\n        /* \"#utility.yul\":20731:21950   */\n    tag_26:\n        /* \"#utility.yul\":21086:21090   */\n      0x00\n        /* \"#utility.yul\":21124:21127   */\n      0xa0\n        /* \"#utility.yul\":21113:21122   */\n      dup3\n        /* \"#utility.yul\":21109:21128   */\n      add\n        /* \"#utility.yul\":21101:21128   */\n      swap1\n      pop\n        /* \"#utility.yul\":21174:21183   */\n      dup2\n        /* \"#utility.yul\":21168:21172   */\n      dup2\n        /* \"#utility.yul\":21164:21184   */\n      sub\n        /* \"#utility.yul\":21160:21161   */\n      0x00\n        /* \"#utility.yul\":21149:21158   */\n      dup4\n        /* \"#utility.yul\":21145:21162   */\n      add\n        /* \"#utility.yul\":21138:21185   */\n      mstore\n        /* \"#utility.yul\":21202:21280   */\n      tag_670\n        /* \"#utility.yul\":21275:21279   */\n      dup2\n        /* \"#utility.yul\":21266:21272   */\n      dup9\n        /* \"#utility.yul\":21202:21280   */\n      tag_602\n      jump\t// in\n    tag_670:\n        /* \"#utility.yul\":21194:21280   */\n      swap1\n      pop\n        /* \"#utility.yul\":21327:21336   */\n      dup2\n        /* \"#utility.yul\":21321:21325   */\n      dup2\n        /* \"#utility.yul\":21317:21337   */\n      sub\n        /* \"#utility.yul\":21312:21314   */\n      0x20\n        /* \"#utility.yul\":21301:21310   */\n      dup4\n        /* \"#utility.yul\":21297:21315   */\n      add\n        /* \"#utility.yul\":21290:21338   */\n      mstore\n        /* \"#utility.yul\":21355:21433   */\n      tag_671\n        /* \"#utility.yul\":21428:21432   */\n      dup2\n        /* \"#utility.yul\":21419:21425   */\n      dup8\n        /* \"#utility.yul\":21355:21433   */\n      tag_602\n      jump\t// in\n    tag_671:\n        /* \"#utility.yul\":21347:21433   */\n      swap1\n      pop\n        /* \"#utility.yul\":21480:21489   */\n      dup2\n        /* \"#utility.yul\":21474:21478   */\n      dup2\n        /* \"#utility.yul\":21470:21490   */\n      sub\n        /* \"#utility.yul\":21465:21467   */\n      0x40\n        /* \"#utility.yul\":21454:21463   */\n      dup4\n        /* \"#utility.yul\":21450:21468   */\n      add\n        /* \"#utility.yul\":21443:21491   */\n      mstore\n        /* \"#utility.yul\":21508:21586   */\n      tag_672\n        /* \"#utility.yul\":21581:21585   */\n      dup2\n        /* \"#utility.yul\":21572:21578   */\n      dup7\n        /* \"#utility.yul\":21508:21586   */\n      tag_602\n      jump\t// in\n    tag_672:\n        /* \"#utility.yul\":21500:21586   */\n      swap1\n      pop\n        /* \"#utility.yul\":21633:21642   */\n      dup2\n        /* \"#utility.yul\":21627:21631   */\n      dup2\n        /* \"#utility.yul\":21623:21643   */\n      sub\n        /* \"#utility.yul\":21618:21620   */\n      0x60\n        /* \"#utility.yul\":21607:21616   */\n      dup4\n        /* \"#utility.yul\":21603:21621   */\n      add\n        /* \"#utility.yul\":21596:21644   */\n      mstore\n        /* \"#utility.yul\":21661:21739   */\n      tag_673\n        /* \"#utility.yul\":21734:21738   */\n      dup2\n        /* \"#utility.yul\":21725:21731   */\n      dup6\n        /* \"#utility.yul\":21661:21739   */\n      tag_602\n      jump\t// in\n    tag_673:\n        /* \"#utility.yul\":21653:21739   */\n      swap1\n      pop\n        /* \"#utility.yul\":21787:21796   */\n      dup2\n        /* \"#utility.yul\":21781:21785   */\n      dup2\n        /* \"#utility.yul\":21777:21797   */\n      sub\n        /* \"#utility.yul\":21771:21774   */\n      0x80\n        /* \"#utility.yul\":21760:21769   */\n      dup4\n        /* \"#utility.yul\":21756:21775   */\n      add\n        /* \"#utility.yul\":21749:21798   */\n      mstore\n        /* \"#utility.yul\":21815:21943   */\n      tag_674\n        /* \"#utility.yul\":21938:21942   */\n      dup2\n        /* \"#utility.yul\":21929:21935   */\n      dup5\n        /* \"#utility.yul\":21815:21943   */\n      tag_561\n      jump\t// in\n    tag_674:\n        /* \"#utility.yul\":21807:21943   */\n      swap1\n      pop\n        /* \"#utility.yul\":20731:21950   */\n      swap7\n      swap6\n      pop\n      pop\n      pop\n      pop\n      pop\n      pop\n      jump\t// out\n        /* \"#utility.yul\":21956:22882   */\n    tag_65:\n        /* \"#utility.yul\":22243:22247   */\n      0x00\n        /* \"#utility.yul\":22281:22284   */\n      0x80\n        /* \"#utility.yul\":22270:22279   */\n      dup3\n        /* \"#utility.yul\":22266:22285   */\n      add\n        /* \"#utility.yul\":22258:22285   */\n      swap1\n      pop\n        /* \"#utility.yul\":22331:22340   */\n      dup2\n        /* \"#utility.yul\":22325:22329   */\n      dup2\n        /* \"#utility.yul\":22321:22341   */\n      sub\n        /* \"#utility.yul\":22317:22318   */\n      0x00\n        /* \"#utility.yul\":22306:22315   */\n      dup4\n        /* \"#utility.yul\":22302:22319   */\n      add\n        /* \"#utility.yul\":22295:22342   */\n      mstore\n        /* \"#utility.yul\":22359:22437   */\n      tag_676\n        /* \"#utility.yul\":22432:22436   */\n      dup2\n        /* \"#utility.yul\":22423:22429   */\n      dup8\n        /* \"#utility.yul\":22359:22437   */\n      tag_602\n      jump\t// in\n    tag_676:\n        /* \"#utility.yul\":22351:22437   */\n      swap1\n      pop\n        /* \"#utility.yul\":22484:22493   */\n      dup2\n        /* \"#utility.yul\":22478:22482   */\n      dup2\n        /* \"#utility.yul\":22474:22494   */\n      sub\n        /* \"#utility.yul\":22469:22471   */\n      0x20\n        /* \"#utility.yul\":22458:22467   */\n      dup4\n        /* \"#utility.yul\":22454:22472   */\n      add\n        /* \"#utility.yul\":22447:22495   */\n      mstore\n        /* \"#utility.yul\":22512:22590   */\n      tag_677\n        /* \"#utility.yul\":22585:22589   */\n      dup2\n        /* \"#utility.yul\":22576:22582   */\n      dup7\n        /* \"#utility.yul\":22512:22590   */\n      tag_602\n      jump\t// in\n    tag_677:\n        /* \"#utility.yul\":22504:22590   */\n      swap1\n      pop\n        /* \"#utility.yul\":22600:22672   */\n      tag_678\n        /* \"#utility.yul\":22668:22670   */\n      0x40\n        /* \"#utility.yul\":22657:22666   */\n      dup4\n        /* \"#utility.yul\":22653:22671   */\n      add\n        /* \"#utility.yul\":22644:22650   */\n      dup6\n        /* \"#utility.yul\":22600:22672   */\n      tag_655\n      jump\t// in\n    tag_678:\n        /* \"#utility.yul\":22719:22728   */\n      dup2\n        /* \"#utility.yul\":22713:22717   */\n      dup2\n        /* \"#utility.yul\":22709:22729   */\n      sub\n        /* \"#utility.yul\":22704:22706   */\n      0x60\n        /* \"#utility.yul\":22693:22702   */\n      dup4\n        /* \"#utility.yul\":22689:22707   */\n      add\n        /* \"#utility.yul\":22682:22730   */\n      mstore\n        /* \"#utility.yul\":22747:22875   */\n      tag_679\n        /* \"#utility.yul\":22870:22874   */\n      dup2\n        /* \"#utility.yul\":22861:22867   */\n      dup5\n        /* \"#utility.yul\":22747:22875   */\n      tag_561\n      jump\t// in\n    tag_679:\n        /* \"#utility.yul\":22739:22875   */\n      swap1\n      pop\n        /* \"#utility.yul\":21956:22882   */\n      swap6\n      swap5\n      pop\n      pop\n      pop\n      pop\n      pop\n      jump\t// out\n        /* \"#utility.yul\":22888:23307   */\n    tag_374:\n        /* \"#utility.yul\":23054:23058   */\n      0x00\n        /* \"#utility.yul\":23092:23094   */\n      0x20\n        /* \"#utility.yul\":23081:23090   */\n      dup3\n        /* \"#utility.yul\":23077:23095   */\n      add\n        /* \"#utility.yul\":23069:23095   */\n      swap1\n      pop\n        /* \"#utility.yul\":23141:23150   */\n      dup2\n        /* \"#utility.yul\":23135:23139   */\n      dup2\n        /* \"#utility.yul\":23131:23151   */\n      sub\n        /* \"#utility.yul\":23127:23128   */\n      0x00\n        /* \"#utility.yul\":23116:23125   */\n      dup4\n        /* \"#utility.yul\":23112:23129   */\n      add\n        /* \"#utility.yul\":23105:23152   */\n      mstore\n        /* \"#utility.yul\":23169:23300   */\n      tag_681\n        /* \"#utility.yul\":23295:23299   */\n      dup2\n        /* \"#utility.yul\":23169:23300   */\n      tag_615\n      jump\t// in\n    tag_681:\n        /* \"#utility.yul\":23161:23300   */\n      swap1\n      pop\n        /* \"#utility.yul\":22888:23307   */\n      swap2\n      swap1\n      pop\n      jump\t// out\n        /* \"#utility.yul\":23313:23732   */\n    tag_259:\n        /* \"#utility.yul\":23479:23483   */\n      0x00\n        /* \"#utility.yul\":23517:23519   */\n      0x20\n        /* \"#utility.yul\":23506:23515   */\n      dup3\n        /* \"#utility.yul\":23502:23520   */\n      add\n        /* \"#utility.yul\":23494:23520   */\n      swap1\n      pop\n        /* \"#utility.yul\":23566:23575   */\n      dup2\n        /* \"#utility.yul\":23560:23564   */\n      dup2\n        /* \"#utility.yul\":23556:23576   */\n      sub\n        /* \"#utility.yul\":23552:23553   */\n      0x00\n        /* \"#utility.yul\":23541:23550   */\n      dup4\n        /* \"#utility.yul\":23537:23554   */\n      add\n        /* \"#utility.yul\":23530:23577   */\n      mstore\n        /* \"#utility.yul\":23594:23725   */\n      tag_683\n        /* \"#utility.yul\":23720:23724   */\n      dup2\n        /* \"#utility.yul\":23594:23725   */\n      tag_620\n      jump\t// in\n    tag_683:\n        /* \"#utility.yul\":23586:23725   */\n      swap1\n      pop\n        /* \"#utility.yul\":23313:23732   */\n      swap2\n      swap1\n      pop\n      jump\t// out\n        /* \"#utility.yul\":23738:24157   */\n    tag_88:\n        /* \"#utility.yul\":23904:23908   */\n      0x00\n        /* \"#utility.yul\":23942:23944   */\n      0x20\n        /* \"#utility.yul\":23931:23940   */\n      dup3\n        /* \"#utility.yul\":23927:23945   */\n      add\n        /* \"#utility.yul\":23919:23945   */\n      swap1\n      pop\n        /* \"#utility.yul\":23991:24000   */\n      dup2\n        /* \"#utility.yul\":23985:23989   */\n      dup2\n        /* \"#utility.yul\":23981:24001   */\n      sub\n        /* \"#utility.yul\":23977:23978   */\n      0x00\n        /* \"#utility.yul\":23966:23975   */\n      dup4\n        /* \"#utility.yul\":23962:23979   */\n      add\n        /* \"#utility.yul\":23955:24002   */\n      mstore\n        /* \"#utility.yul\":24019:24150   */\n      tag_685\n        /* \"#utility.yul\":24145:24149   */\n      dup2\n        /* \"#utility.yul\":24019:24150   */\n      tag_625\n      jump\t// in\n    tag_685:\n        /* \"#utility.yul\":24011:24150   */\n      swap1\n      pop\n        /* \"#utility.yul\":23738:24157   */\n      swap2\n      swap1\n      pop\n      jump\t// out\n        /* \"#utility.yul\":24163:24582   */\n    tag_138:\n        /* \"#utility.yul\":24329:24333   */\n      0x00\n        /* \"#utility.yul\":24367:24369   */\n      0x20\n        /* \"#utility.yul\":24356:24365   */\n      dup3\n        /* \"#utility.yul\":24352:24370   */\n      add\n        /* \"#utility.yul\":24344:24370   */\n      swap1\n      pop\n        /* \"#utility.yul\":24416:24425   */\n      dup2\n        /* \"#utility.yul\":24410:24414   */\n      dup2\n        /* \"#utility.yul\":24406:24426   */\n      sub\n        /* \"#utility.yul\":24402:24403   */\n      0x00\n        /* \"#utility.yul\":24391:24400   */\n      dup4\n        /* \"#utility.yul\":24387:24404   */\n      add\n        /* \"#utility.yul\":24380:24427   */\n      mstore\n        /* \"#utility.yul\":24444:24575   */\n      tag_687\n        /* \"#utility.yul\":24570:24574   */\n      dup2\n        /* \"#utility.yul\":24444:24575   */\n      tag_630\n      jump\t// in\n    tag_687:\n        /* \"#utility.yul\":24436:24575   */\n      swap1\n      pop\n        /* \"#utility.yul\":24163:24582   */\n      swap2\n      swap1\n      pop\n      jump\t// out\n        /* \"#utility.yul\":24588:25007   */\n    tag_122:\n        /* \"#utility.yul\":24754:24758   */\n      0x00\n        /* \"#utility.yul\":24792:24794   */\n      0x20\n        /* \"#utility.yul\":24781:24790   */\n      dup3\n        /* \"#utility.yul\":24777:24795   */\n      add\n        /* \"#utility.yul\":24769:24795   */\n      swap1\n      pop\n        /* \"#utility.yul\":24841:24850   */\n      dup2\n        /* \"#utility.yul\":24835:24839   */\n      dup2\n        /* \"#utility.yul\":24831:24851   */\n      sub\n        /* \"#utility.yul\":24827:24828   */\n      0x00\n        /* \"#utility.yul\":24816:24825   */\n      dup4\n        /* \"#utility.yul\":24812:24829   */\n      add\n        /* \"#utility.yul\":24805:24852   */\n      mstore\n        /* \"#utility.yul\":24869:25000   */\n      tag_689\n        /* \"#utility.yul\":24995:24999   */\n      dup2\n        /* \"#utility.yul\":24869:25000   */\n      tag_635\n      jump\t// in\n    tag_689:\n        /* \"#utility.yul\":24861:25000   */\n      swap1\n      pop\n        /* \"#utility.yul\":24588:25007   */\n      swap2\n      swap1\n      pop\n      jump\t// out\n        /* \"#utility.yul\":25013:25432   */\n    tag_370:\n        /* \"#utility.yul\":25179:25183   */\n      0x00\n        /* \"#utility.yul\":25217:25219   */\n      0x20\n        /* \"#utility.yul\":25206:25215   */\n      dup3\n        /* \"#utility.yul\":25202:25220   */\n      add\n        /* \"#utility.yul\":25194:25220   */\n      swap1\n      pop\n        /* \"#utility.yul\":25266:25275   */\n      dup2\n        /* \"#utility.yul\":25260:25264   */\n      dup2\n        /* \"#utility.yul\":25256:25276   */\n      sub\n        /* \"#utility.yul\":25252:25253   */\n      0x00\n        /* \"#utility.yul\":25241:25250   */\n      dup4\n        /* \"#utility.yul\":25237:25254   */\n      add\n        /* \"#utility.yul\":25230:25277   */\n      mstore\n        /* \"#utility.yul\":25294:25425   */\n      tag_691\n        /* \"#utility.yul\":25420:25424   */\n      dup2\n        /* \"#utility.yul\":25294:25425   */\n      tag_640\n      jump\t// in\n    tag_691:\n        /* \"#utility.yul\":25286:25425   */\n      swap1\n      pop\n        /* \"#utility.yul\":25013:25432   */\n      swap2\n      swap1\n      pop\n      jump\t// out\n        /* \"#utility.yul\":25438:25857   */\n    tag_158:\n        /* \"#utility.yul\":25604:25608   */\n      0x00\n        /* \"#utility.yul\":25642:25644   */\n      0x20\n        /* \"#utility.yul\":25631:25640   */\n      dup3\n        /* \"#utility.yul\":25627:25645   */\n      add\n        /* \"#utility.yul\":25619:25645   */\n      swap1\n      pop\n        /* \"#utility.yul\":25691:25700   */\n      dup2\n        /* \"#utility.yul\":25685:25689   */\n      dup2\n        /* \"#utility.yul\":25681:25701   */\n      sub\n        /* \"#utility.yul\":25677:25678   */\n      0x00\n        /* \"#utility.yul\":25666:25675   */\n      dup4\n        /* \"#utility.yul\":25662:25679   */\n      add\n        /* \"#utility.yul\":25655:25702   */\n      mstore\n        /* \"#utility.yul\":25719:25850   */\n      tag_693\n        /* \"#utility.yul\":25845:25849   */\n      dup2\n        /* \"#utility.yul\":25719:25850   */\n      tag_645\n      jump\t// in\n    tag_693:\n        /* \"#utility.yul\":25711:25850   */\n      swap1\n      pop\n        /* \"#utility.yul\":25438:25857   */\n      swap2\n      swap1\n      pop\n      jump\t// out\n        /* \"#utility.yul\":25863:25992   */\n    tag_414:\n        /* \"#utility.yul\":25897:25903   */\n      0x00\n        /* \"#utility.yul\":25924:25944   */\n      tag_695\n      tag_696\n      jump\t// in\n    tag_695:\n        /* \"#utility.yul\":25914:25944   */\n      swap1\n      pop\n        /* \"#utility.yul\":25953:25986   */\n      tag_697\n        /* \"#utility.yul\":25981:25985   */\n      dup3\n        /* \"#utility.yul\":25973:25979   */\n      dup3\n        /* \"#utility.yul\":25953:25986   */\n      tag_698\n      jump\t// in\n    tag_697:\n        /* \"#utility.yul\":25863:25992   */\n      swap2\n      swap1\n      pop\n      jump\t// out\n        /* \"#utility.yul\":25998:26073   */\n    tag_696:\n        /* \"#utility.yul\":26031:26037   */\n      0x00\n        /* \"#utility.yul\":26064:26066   */\n      0x40\n        /* \"#utility.yul\":26058:26067   */\n      mload\n        /* \"#utility.yul\":26048:26067   */\n      swap1\n      pop\n        /* \"#utility.yul\":25998:26073   */\n      swap1\n      jump\t// out\n        /* \"#utility.yul\":26079:26387   */\n    tag_413:\n        /* \"#utility.yul\":26141:26145   */\n      0x00\n        /* \"#utility.yul\":26231:26249   */\n      0xffffffffffffffff\n        /* \"#utility.yul\":26223:26229   */\n      dup3\n        /* \"#utility.yul\":26220:26250   */\n      gt\n        /* \"#utility.yul\":26217:26273   */\n      iszero\n      tag_701\n      jumpi\n        /* \"#utility.yul\":26253:26271   */\n      tag_702\n      tag_703\n      jump\t// in\n    tag_702:\n        /* \"#utility.yul\":26217:26273   */\n    tag_701:\n        /* \"#utility.yul\":26291:26320   */\n      tag_704\n        /* \"#utility.yul\":26313:26319   */\n      dup3\n        /* \"#utility.yul\":26291:26320   */\n      tag_601\n      jump\t// in\n    tag_704:\n        /* \"#utility.yul\":26283:26320   */\n      swap1\n      pop\n        /* \"#utility.yul\":26375:26379   */\n      0x20\n        /* \"#utility.yul\":26369:26373   */\n      dup2\n        /* \"#utility.yul\":26365:26380   */\n      add\n        /* \"#utility.yul\":26357:26380   */\n      swap1\n      pop\n        /* \"#utility.yul\":26079:26387   */\n      swap2\n      swap1\n      pop\n      jump\t// out\n        /* \"#utility.yul\":26393:26525   */\n    tag_554:\n        /* \"#utility.yul\":26460:26464   */\n      0x00\n        /* \"#utility.yul\":26483:26486   */\n      dup2\n        /* \"#utility.yul\":26475:26486   */\n      swap1\n      pop\n        /* \"#utility.yul\":26513:26517   */\n      0x20\n        /* \"#utility.yul\":26508:26511   */\n      dup3\n        /* \"#utility.yul\":26504:26518   */\n      add\n        /* \"#utility.yul\":26496:26518   */\n      swap1\n      pop\n        /* \"#utility.yul\":26393:26525   */\n      swap2\n      swap1\n      pop\n      jump\t// out\n        /* \"#utility.yul\":26531:26673   */\n    tag_568:\n        /* \"#utility.yul\":26608:26612   */\n      0x00\n        /* \"#utility.yul\":26631:26634   */\n      dup2\n        /* \"#utility.yul\":26623:26634   */\n      swap1\n      pop\n        /* \"#utility.yul\":26661:26665   */\n      0x20\n        /* \"#utility.yul\":26656:26659   */\n      dup3\n        /* \"#utility.yul\":26652:26666   */\n      add\n        /* \"#utility.yul\":26644:26666   */\n      swap1\n      pop\n        /* \"#utility.yul\":26531:26673   */\n      swap2\n      swap1\n      pop\n      jump\t// out\n        /* \"#utility.yul\":26679:26835   */\n    tag_582:\n        /* \"#utility.yul\":26770:26774   */\n      0x00\n        /* \"#utility.yul\":26793:26796   */\n      dup2\n        /* \"#utility.yul\":26785:26796   */\n      swap1\n      pop\n        /* \"#utility.yul\":26823:26827   */\n      0x20\n        /* \"#utility.yul\":26818:26821   */\n      dup3\n        /* \"#utility.yul\":26814:26828   */\n      add\n        /* \"#utility.yul\":26806:26828   */\n      swap1\n      pop\n        /* \"#utility.yul\":26679:26835   */\n      swap2\n      swap1\n      pop\n      jump\t// out\n        /* \"#utility.yul\":26841:26955   */\n    tag_550:\n        /* \"#utility.yul\":26908:26914   */\n      0x00\n        /* \"#utility.yul\":26942:26947   */\n      dup2\n        /* \"#utility.yul\":26936:26948   */\n      mload\n        /* \"#utility.yul\":26926:26948   */\n      swap1\n      pop\n        /* \"#utility.yul\":26841:26955   */\n      swap2\n      swap1\n      pop\n      jump\t// out\n        /* \"#utility.yul\":26961:27085   */\n    tag_564:\n        /* \"#utility.yul\":27038:27044   */\n      0x00\n        /* \"#utility.yul\":27072:27077   */\n      dup2\n        /* \"#utility.yul\":27066:27078   */\n      mload\n        /* \"#utility.yul\":27056:27078   */\n      swap1\n      pop\n        /* \"#utility.yul\":26961:27085   */\n      swap2\n      swap1\n      pop\n      jump\t// out\n        /* \"#utility.yul\":27091:27229   */\n    tag_578:\n        /* \"#utility.yul\":27182:27188   */\n      0x00\n        /* \"#utility.yul\":27216:27221   */\n      dup2\n        /* \"#utility.yul\":27210:27222   */\n      mload\n        /* \"#utility.yul\":27200:27222   */\n      swap1\n      pop\n        /* \"#utility.yul\":27091:27229   */\n      swap2\n      swap1\n      pop\n      jump\t// out\n        /* \"#utility.yul\":27235:27334   */\n    tag_595:\n        /* \"#utility.yul\":27287:27293   */\n      0x00\n        /* \"#utility.yul\":27321:27326   */\n      dup2\n        /* \"#utility.yul\":27315:27327   */\n      mload\n        /* \"#utility.yul\":27305:27327   */\n      swap1\n      pop\n        /* \"#utility.yul\":27235:27334   */\n      swap2\n      swap1\n      pop\n      jump\t// out\n        /* \"#utility.yul\":27340:27453   */\n    tag_560:\n        /* \"#utility.yul\":27410:27414   */\n      0x00\n        /* \"#utility.yul\":27442:27446   */\n      0x20\n        /* \"#utility.yul\":27437:27440   */\n      dup3\n        /* \"#utility.yul\":27433:27447   */\n      add\n        /* \"#utility.yul\":27425:27447   */\n      swap1\n      pop\n        /* \"#utility.yul\":27340:27453   */\n      swap2\n      swap1\n      pop\n      jump\t// out\n        /* \"#utility.yul\":27459:27582   */\n    tag_574:\n        /* \"#utility.yul\":27539:27543   */\n      0x00\n        /* \"#utility.yul\":27571:27575   */\n      0x20\n        /* \"#utility.yul\":27566:27569   */\n      dup3\n        /* \"#utility.yul\":27562:27576   */\n      add\n        /* \"#utility.yul\":27554:27576   */\n      swap1\n      pop\n        /* \"#utility.yul\":27459:27582   */\n      swap2\n      swap1\n      pop\n      jump\t// out\n        /* \"#utility.yul\":27588:27725   */\n    tag_588:\n        /* \"#utility.yul\":27682:27686   */\n      0x00\n        /* \"#utility.yul\":27714:27718   */\n      0x20\n        /* \"#utility.yul\":27709:27712   */\n      dup3\n        /* \"#utility.yul\":27705:27719   */\n      add\n        /* \"#utility.yul\":27697:27719   */\n      swap1\n      pop\n        /* \"#utility.yul\":27588:27725   */\n      swap2\n      swap1\n      pop\n      jump\t// out\n        /* \"#utility.yul\":27731:27915   */\n    tag_552:\n        /* \"#utility.yul\":27830:27841   */\n      0x00\n        /* \"#utility.yul\":27864:27870   */\n      dup3\n        /* \"#utility.yul\":27859:27862   */\n      dup3\n        /* \"#utility.yul\":27852:27871   */\n      mstore\n        /* \"#utility.yul\":27904:27908   */\n      0x20\n        /* \"#utility.yul\":27899:27902   */\n      dup3\n        /* \"#utility.yul\":27895:27909   */\n      add\n        /* \"#utility.yul\":27880:27909   */\n      swap1\n      pop\n        /* \"#utility.yul\":27731:27915   */\n      swap3\n      swap2\n      pop\n      pop\n      jump\t// out\n        /* \"#utility.yul\":27921:28115   */\n    tag_566:\n        /* \"#utility.yul\":28030:28041   */\n      0x00\n        /* \"#utility.yul\":28064:28070   */\n      dup3\n        /* \"#utility.yul\":28059:28062   */\n      dup3\n        /* \"#utility.yul\":28052:28071   */\n      mstore\n        /* \"#utility.yul\":28104:28108   */\n      0x20\n        /* \"#utility.yul\":28099:28102   */\n      dup3\n        /* \"#utility.yul\":28095:28109   */\n      add\n        /* \"#utility.yul\":28080:28109   */\n      swap1\n      pop\n        /* \"#utility.yul\":27921:28115   */\n      swap3\n      swap2\n      pop\n      pop\n      jump\t// out\n        /* \"#utility.yul\":28121:28329   */\n    tag_580:\n        /* \"#utility.yul\":28244:28255   */\n      0x00\n        /* \"#utility.yul\":28278:28284   */\n      dup3\n        /* \"#utility.yul\":28273:28276   */\n      dup3\n        /* \"#utility.yul\":28266:28285   */\n      mstore\n        /* \"#utility.yul\":28318:28322   */\n      0x20\n        /* \"#utility.yul\":28313:28316   */\n      dup3\n        /* \"#utility.yul\":28309:28323   */\n      add\n        /* \"#utility.yul\":28294:28323   */\n      swap1\n      pop\n        /* \"#utility.yul\":28121:28329   */\n      swap3\n      swap2\n      pop\n      pop\n      jump\t// out\n        /* \"#utility.yul\":28335:28494   */\n    tag_597:\n        /* \"#utility.yul\":28409:28420   */\n      0x00\n        /* \"#utility.yul\":28443:28449   */\n      dup3\n        /* \"#utility.yul\":28438:28441   */\n      dup3\n        /* \"#utility.yul\":28431:28450   */\n      mstore\n        /* \"#utility.yul\":28483:28487   */\n      0x20\n        /* \"#utility.yul\":28478:28481   */\n      dup3\n        /* \"#utility.yul\":28474:28488   */\n      add\n        /* \"#utility.yul\":28459:28488   */\n      swap1\n      pop\n        /* \"#utility.yul\":28335:28494   */\n      swap3\n      swap2\n      pop\n      pop\n      jump\t// out\n        /* \"#utility.yul\":28500:28669   */\n    tag_606:\n        /* \"#utility.yul\":28584:28595   */\n      0x00\n        /* \"#utility.yul\":28618:28624   */\n      dup3\n        /* \"#utility.yul\":28613:28616   */\n      dup3\n        /* \"#utility.yul\":28606:28625   */\n      mstore\n        /* \"#utility.yul\":28658:28662   */\n      0x20\n        /* \"#utility.yul\":28653:28656   */\n      dup3\n        /* \"#utility.yul\":28649:28663   */\n      add\n        /* \"#utility.yul\":28634:28663   */\n      swap1\n      pop\n        /* \"#utility.yul\":28500:28669   */\n      swap3\n      swap2\n      pop\n      pop\n      jump\t// out\n        /* \"#utility.yul\":28675:28823   */\n    tag_613:\n        /* \"#utility.yul\":28777:28788   */\n      0x00\n        /* \"#utility.yul\":28814:28817   */\n      dup2\n        /* \"#utility.yul\":28799:28817   */\n      swap1\n      pop\n        /* \"#utility.yul\":28675:28823   */\n      swap3\n      swap2\n      pop\n      pop\n      jump\t// out\n        /* \"#utility.yul\":28829:28925   */\n    tag_543:\n        /* \"#utility.yul\":28866:28873   */\n      0x00\n        /* \"#utility.yul\":28895:28919   */\n      tag_722\n        /* \"#utility.yul\":28913:28918   */\n      dup3\n        /* \"#utility.yul\":28895:28919   */\n      tag_723\n      jump\t// in\n    tag_722:\n        /* \"#utility.yul\":28884:28919   */\n      swap1\n      pop\n        /* \"#utility.yul\":28829:28925   */\n      swap2\n      swap1\n      pop\n      jump\t// out\n        /* \"#utility.yul\":28931:29035   */\n    tag_724:\n        /* \"#utility.yul\":28976:28983   */\n      0x00\n        /* \"#utility.yul\":29005:29029   */\n      tag_726\n        /* \"#utility.yul\":29023:29028   */\n      dup3\n        /* \"#utility.yul\":29005:29029   */\n      tag_723\n      jump\t// in\n    tag_726:\n        /* \"#utility.yul\":28994:29029   */\n      swap1\n      pop\n        /* \"#utility.yul\":28931:29035   */\n      swap2\n      swap1\n      pop\n      jump\t// out\n        /* \"#utility.yul\":29041:29131   */\n    tag_592:\n        /* \"#utility.yul\":29075:29082   */\n      0x00\n        /* \"#utility.yul\":29118:29123   */\n      dup2\n        /* \"#utility.yul\":29111:29124   */\n      iszero\n        /* \"#utility.yul\":29104:29125   */\n      iszero\n        /* \"#utility.yul\":29093:29125   */\n      swap1\n      pop\n        /* \"#utility.yul\":29041:29131   */\n      swap2\n      swap1\n      pop\n      jump\t// out\n        /* \"#utility.yul\":29137:29213   */\n    tag_728:\n        /* \"#utility.yul\":29173:29180   */\n      0x00\n        /* \"#utility.yul\":29202:29207   */\n      dup2\n        /* \"#utility.yul\":29191:29207   */\n      swap1\n      pop\n        /* \"#utility.yul\":29137:29213   */\n      swap2\n      swap1\n      pop\n      jump\t// out\n        /* \"#utility.yul\":29219:29345   */\n    tag_723:\n        /* \"#utility.yul\":29256:29263   */\n      0x00\n        /* \"#utility.yul\":29296:29338   */\n      0xffffffffffffffffffffffffffffffffffffffff\n        /* \"#utility.yul\":29289:29294   */\n      dup3\n        /* \"#utility.yul\":29285:29339   */\n      and\n        /* \"#utility.yul\":29274:29339   */\n      swap1\n      pop\n        /* \"#utility.yul\":29219:29345   */\n      swap2\n      swap1\n      pop\n      jump\t// out\n        /* \"#utility.yul\":29351:29428   */\n    tag_658:\n        /* \"#utility.yul\":29388:29395   */\n      0x00\n        /* \"#utility.yul\":29417:29422   */\n      dup2\n        /* \"#utility.yul\":29406:29422   */\n      swap1\n      pop\n        /* \"#utility.yul\":29351:29428   */\n      swap2\n      swap1\n      pop\n      jump\t// out\n        /* \"#utility.yul\":29434:29588   */\n    tag_419:\n        /* \"#utility.yul\":29518:29524   */\n      dup3\n        /* \"#utility.yul\":29513:29516   */\n      dup2\n        /* \"#utility.yul\":29508:29511   */\n      dup4\n        /* \"#utility.yul\":29495:29525   */\n      calldatacopy\n        /* \"#utility.yul\":29580:29581   */\n      0x00\n        /* \"#utility.yul\":29571:29577   */\n      dup4\n        /* \"#utility.yul\":29566:29569   */\n      dup4\n        /* \"#utility.yul\":29562:29578   */\n      add\n        /* \"#utility.yul\":29555:29582   */\n      mstore\n        /* \"#utility.yul\":29434:29588   */\n      pop\n      pop\n      pop\n      jump\t// out\n        /* \"#utility.yul\":29594:29901   */\n    tag_599:\n        /* \"#utility.yul\":29662:29663   */\n      0x00\n        /* \"#utility.yul\":29672:29785   */\n    tag_734:\n        /* \"#utility.yul\":29686:29692   */\n      dup4\n        /* \"#utility.yul\":29683:29684   */\n      dup2\n        /* \"#utility.yul\":29680:29693   */\n      lt\n        /* \"#utility.yul\":29672:29785   */\n      iszero\n      tag_736\n      jumpi\n        /* \"#utility.yul\":29771:29772   */\n      dup1\n        /* \"#utility.yul\":29766:29769   */\n      dup3\n        /* \"#utility.yul\":29762:29773   */\n      add\n        /* \"#utility.yul\":29756:29774   */\n      mload\n        /* \"#utility.yul\":29752:29753   */\n      dup2\n        /* \"#utility.yul\":29747:29750   */\n      dup5\n        /* \"#utility.yul\":29743:29754   */\n      add\n        /* \"#utility.yul\":29736:29775   */\n      mstore\n        /* \"#utility.yul\":29708:29710   */\n      0x20\n        /* \"#utility.yul\":29705:29706   */\n      dup2\n        /* \"#utility.yul\":29701:29711   */\n      add\n        /* \"#utility.yul\":29696:29711   */\n      swap1\n      pop\n        /* \"#utility.yul\":29672:29785   */\n      jump(tag_734)\n    tag_736:\n        /* \"#utility.yul\":29803:29809   */\n      dup4\n        /* \"#utility.yul\":29800:29801   */\n      dup2\n        /* \"#utility.yul\":29797:29810   */\n      gt\n        /* \"#utility.yul\":29794:29895   */\n      iszero\n      tag_737\n      jumpi\n        /* \"#utility.yul\":29883:29884   */\n      0x00\n        /* \"#utility.yul\":29874:29880   */\n      dup5\n        /* \"#utility.yul\":29869:29872   */\n      dup5\n        /* \"#utility.yul\":29865:29881   */\n      add\n        /* \"#utility.yul\":29858:29885   */\n      mstore\n        /* \"#utility.yul\":29794:29895   */\n    tag_737:\n        /* \"#utility.yul\":29643:29901   */\n      pop\n        /* \"#utility.yul\":29594:29901   */\n      pop\n      pop\n      pop\n      jump\t// out\n        /* \"#utility.yul\":29907:30227   */\n    tag_91:\n        /* \"#utility.yul\":29951:29957   */\n      0x00\n        /* \"#utility.yul\":29988:29989   */\n      0x02\n        /* \"#utility.yul\":29982:29986   */\n      dup3\n        /* \"#utility.yul\":29978:29990   */\n      div\n        /* \"#utility.yul\":29968:29990   */\n      swap1\n      pop\n        /* \"#utility.yul\":30035:30036   */\n      0x01\n        /* \"#utility.yul\":30029:30033   */\n      dup3\n        /* \"#utility.yul\":30025:30037   */\n      and\n        /* \"#utility.yul\":30056:30074   */\n      dup1\n        /* \"#utility.yul\":30046:30127   */\n      tag_739\n      jumpi\n        /* \"#utility.yul\":30112:30116   */\n      0x7f\n        /* \"#utility.yul\":30104:30110   */\n      dup3\n        /* \"#utility.yul\":30100:30117   */\n      and\n        /* \"#utility.yul\":30090:30117   */\n      swap2\n      pop\n        /* \"#utility.yul\":30046:30127   */\n    tag_739:\n        /* \"#utility.yul\":30174:30176   */\n      0x20\n        /* \"#utility.yul\":30166:30172   */\n      dup3\n        /* \"#utility.yul\":30163:30177   */\n      lt\n        /* \"#utility.yul\":30143:30161   */\n      dup2\n        /* \"#utility.yul\":30140:30178   */\n      eq\n        /* \"#utility.yul\":30137:30221   */\n      iszero\n      tag_740\n      jumpi\n        /* \"#utility.yul\":30193:30211   */\n      tag_741\n      tag_742\n      jump\t// in\n    tag_741:\n        /* \"#utility.yul\":30137:30221   */\n    tag_740:\n        /* \"#utility.yul\":29958:30227   */\n      pop\n        /* \"#utility.yul\":29907:30227   */\n      swap2\n      swap1\n      pop\n      jump\t// out\n        /* \"#utility.yul\":30233:30514   */\n    tag_698:\n        /* \"#utility.yul\":30316:30343   */\n      tag_744\n        /* \"#utility.yul\":30338:30342   */\n      dup3\n        /* \"#utility.yul\":30316:30343   */\n      tag_601\n      jump\t// in\n    tag_744:\n        /* \"#utility.yul\":30308:30314   */\n      dup2\n        /* \"#utility.yul\":30304:30344   */\n      add\n        /* \"#utility.yul\":30446:30452   */\n      dup2\n        /* \"#utility.yul\":30434:30444   */\n      dup2\n        /* \"#utility.yul\":30431:30453   */\n      lt\n        /* \"#utility.yul\":30410:30428   */\n      0xffffffffffffffff\n        /* \"#utility.yul\":30398:30408   */\n      dup3\n        /* \"#utility.yul\":30395:30429   */\n      gt\n        /* \"#utility.yul\":30392:30454   */\n      or\n        /* \"#utility.yul\":30389:30477   */\n      iszero\n      tag_745\n      jumpi\n        /* \"#utility.yul\":30457:30475   */\n      tag_746\n      tag_703\n      jump\t// in\n    tag_746:\n        /* \"#utility.yul\":30389:30477   */\n    tag_745:\n        /* \"#utility.yul\":30497:30507   */\n      dup1\n        /* \"#utility.yul\":30493:30495   */\n      0x40\n        /* \"#utility.yul\":30486:30508   */\n      mstore\n        /* \"#utility.yul\":30276:30514   */\n      pop\n        /* \"#utility.yul\":30233:30514   */\n      pop\n      pop\n      jump\t// out\n        /* \"#utility.yul\":30520:30700   */\n    tag_85:\n        /* \"#utility.yul\":30568:30645   */\n      0x4e487b7100000000000000000000000000000000000000000000000000000000\n        /* \"#utility.yul\":30565:30566   */\n      0x00\n        /* \"#utility.yul\":30558:30646   */\n      mstore\n        /* \"#utility.yul\":30665:30669   */\n      0x21\n        /* \"#utility.yul\":30662:30663   */\n      0x04\n        /* \"#utility.yul\":30655:30670   */\n      mstore\n        /* \"#utility.yul\":30689:30693   */\n      0x24\n        /* \"#utility.yul\":30686:30687   */\n      0x00\n        /* \"#utility.yul\":30679:30694   */\n      revert\n        /* \"#utility.yul\":30706:30886   */\n    tag_742:\n        /* \"#utility.yul\":30754:30831   */\n      0x4e487b7100000000000000000000000000000000000000000000000000000000\n        /* \"#utility.yul\":30751:30752   */\n      0x00\n        /* \"#utility.yul\":30744:30832   */\n      mstore\n        /* \"#utility.yul\":30851:30855   */\n      0x22\n        /* \"#utility.yul\":30848:30849   */\n      0x04\n        /* \"#utility.yul\":30841:30856   */\n      mstore\n        /* \"#utility.yul\":30875:30879   */\n      0x24\n        /* \"#utility.yul\":30872:30873   */\n      0x00\n        /* \"#utility.yul\":30865:30880   */\n      revert\n        /* \"#utility.yul\":30892:31072   */\n    tag_703:\n        /* \"#utility.yul\":30940:31017   */\n      0x4e487b7100000000000000000000000000000000000000000000000000000000\n        /* \"#utility.yul\":30937:30938   */\n      0x00\n        /* \"#utility.yul\":30930:31018   */\n      mstore\n        /* \"#utility.yul\":31037:31041   */\n      0x41\n        /* \"#utility.yul\":31034:31035   */\n      0x04\n        /* \"#utility.yul\":31027:31042   */\n      mstore\n        /* \"#utility.yul\":31061:31065   */\n      0x24\n        /* \"#utility.yul\":31058:31059   */\n      0x00\n        /* \"#utility.yul\":31051:31066   */\n      revert\n        /* \"#utility.yul\":31078:31195   */\n    tag_436:\n        /* \"#utility.yul\":31187:31188   */\n      0x00\n        /* \"#utility.yul\":31184:31185   */\n      dup1\n        /* \"#utility.yul\":31177:31189   */\n      revert\n        /* \"#utility.yul\":31201:31318   */\n    tag_417:\n        /* \"#utility.yul\":31310:31311   */\n      0x00\n        /* \"#utility.yul\":31307:31308   */\n      dup1\n        /* \"#utility.yul\":31300:31312   */\n      revert\n        /* \"#utility.yul\":31324:31441   */\n    tag_453:\n        /* \"#utility.yul\":31433:31434   */\n      0x00\n        /* \"#utility.yul\":31430:31431   */\n      dup1\n        /* \"#utility.yul\":31423:31435   */\n      revert\n        /* \"#utility.yul\":31447:31564   */\n    tag_441:\n        /* \"#utility.yul\":31556:31557   */\n      0x00\n        /* \"#utility.yul\":31553:31554   */\n      dup1\n        /* \"#utility.yul\":31546:31558   */\n      revert\n        /* \"#utility.yul\":31570:31672   */\n    tag_601:\n        /* \"#utility.yul\":31611:31617   */\n      0x00\n        /* \"#utility.yul\":31662:31664   */\n      0x1f\n        /* \"#utility.yul\":31658:31665   */\n      not\n        /* \"#utility.yul\":31653:31655   */\n      0x1f\n        /* \"#utility.yul\":31646:31651   */\n      dup4\n        /* \"#utility.yul\":31642:31656   */\n      add\n        /* \"#utility.yul\":31638:31666   */\n      and\n        /* \"#utility.yul\":31628:31666   */\n      swap1\n      pop\n        /* \"#utility.yul\":31570:31672   */\n      swap2\n      swap1\n      pop\n      jump\t// out\n        /* \"#utility.yul\":31678:31899   */\n    tag_619:\n        /* \"#utility.yul\":31818:31852   */\n      0x596f7572206c6f67696e20616c726561647920657869737420696e2073797374\n        /* \"#utility.yul\":31814:31815   */\n      0x00\n        /* \"#utility.yul\":31806:31812   */\n      dup3\n        /* \"#utility.yul\":31802:31816   */\n      add\n        /* \"#utility.yul\":31795:31853   */\n      mstore\n        /* \"#utility.yul\":31887:31891   */\n      0x656d000000000000000000000000000000000000000000000000000000000000\n        /* \"#utility.yul\":31882:31884   */\n      0x20\n        /* \"#utility.yul\":31874:31880   */\n      dup3\n        /* \"#utility.yul\":31870:31885   */\n      add\n        /* \"#utility.yul\":31863:31892   */\n      mstore\n        /* \"#utility.yul\":31678:31899   */\n      pop\n      jump\t// out\n        /* \"#utility.yul\":31905:32066   */\n    tag_624:\n        /* \"#utility.yul\":32045:32058   */\n      0x4c6f772062616c616e6365000000000000000000000000000000000000000000\n        /* \"#utility.yul\":32041:32042   */\n      0x00\n        /* \"#utility.yul\":32033:32039   */\n      dup3\n        /* \"#utility.yul\":32029:32043   */\n      add\n        /* \"#utility.yul\":32022:32059   */\n      mstore\n        /* \"#utility.yul\":31905:32066   */\n      pop\n      jump\t// out\n        /* \"#utility.yul\":32072:32231   */\n    tag_629:\n        /* \"#utility.yul\":32212:32223   */\n      0x466f7262696464656e0000000000000000000000000000000000000000000000\n        /* \"#utility.yul\":32208:32209   */\n      0x00\n        /* \"#utility.yul\":32200:32206   */\n      dup3\n        /* \"#utility.yul\":32196:32210   */\n      add\n        /* \"#utility.yul\":32189:32224   */\n      mstore\n        /* \"#utility.yul\":32072:32231   */\n      pop\n      jump\t// out\n        /* \"#utility.yul\":32237:32399   */\n    tag_634:\n        /* \"#utility.yul\":32377:32391   */\n      0x596f75206e6f7420757365720000000000000000000000000000000000000000\n        /* \"#utility.yul\":32373:32374   */\n      0x00\n        /* \"#utility.yul\":32365:32371   */\n      dup3\n        /* \"#utility.yul\":32361:32375   */\n      add\n        /* \"#utility.yul\":32354:32392   */\n      mstore\n        /* \"#utility.yul\":32237:32399   */\n      pop\n      jump\t// out\n        /* \"#utility.yul\":32405:32568   */\n    tag_639:\n        /* \"#utility.yul\":32545:32560   */\n      0x596f75206e6f742061646d696e00000000000000000000000000000000000000\n        /* \"#utility.yul\":32541:32542   */\n      0x00\n        /* \"#utility.yul\":32533:32539   */\n      dup3\n        /* \"#utility.yul\":32529:32543   */\n      add\n        /* \"#utility.yul\":32522:32561   */\n      mstore\n        /* \"#utility.yul\":32405:32568   */\n      pop\n      jump\t// out\n        /* \"#utility.yul\":32574:32746   */\n    tag_644:\n        /* \"#utility.yul\":32714:32738   */\n      0x596f7520616c7265616479207265676973746572656400000000000000000000\n        /* \"#utility.yul\":32710:32711   */\n      0x00\n        /* \"#utility.yul\":32702:32708   */\n      dup3\n        /* \"#utility.yul\":32698:32712   */\n      add\n        /* \"#utility.yul\":32691:32739   */\n      mstore\n        /* \"#utility.yul\":32574:32746   */\n      pop\n      jump\t// out\n        /* \"#utility.yul\":32752:32913   */\n    tag_649:\n        /* \"#utility.yul\":32892:32905   */\n      0x57726f6e67204c6f67696e000000000000000000000000000000000000000000\n        /* \"#utility.yul\":32888:32889   */\n      0x00\n        /* \"#utility.yul\":32880:32886   */\n      dup3\n        /* \"#utility.yul\":32876:32890   */\n      add\n        /* \"#utility.yul\":32869:32906   */\n      mstore\n        /* \"#utility.yul\":32752:32913   */\n      pop\n      jump\t// out\n        /* \"#utility.yul\":32919:33041   */\n    tag_423:\n        /* \"#utility.yul\":32992:33016   */\n      tag_763\n        /* \"#utility.yul\":33010:33015   */\n      dup2\n        /* \"#utility.yul\":32992:33016   */\n      tag_543\n      jump\t// in\n    tag_763:\n        /* \"#utility.yul\":32985:32990   */\n      dup2\n        /* \"#utility.yul\":32982:33017   */\n      eq\n        /* \"#utility.yul\":32972:33035   */\n      tag_764\n      jumpi\n        /* \"#utility.yul\":33031:33032   */\n      0x00\n        /* \"#utility.yul\":33028:33029   */\n      dup1\n        /* \"#utility.yul\":33021:33033   */\n      revert\n        /* \"#utility.yul\":32972:33035   */\n    tag_764:\n        /* \"#utility.yul\":32919:33041   */\n      pop\n      jump\t// out\n        /* \"#utility.yul\":33047:33185   */\n    tag_427:\n        /* \"#utility.yul\":33128:33160   */\n      tag_766\n        /* \"#utility.yul\":33154:33159   */\n      dup2\n        /* \"#utility.yul\":33128:33160   */\n      tag_724\n      jump\t// in\n    tag_766:\n        /* \"#utility.yul\":33121:33126   */\n      dup2\n        /* \"#utility.yul\":33118:33161   */\n      eq\n        /* \"#utility.yul\":33108:33179   */\n      tag_767\n      jumpi\n        /* \"#utility.yul\":33175:33176   */\n      0x00\n        /* \"#utility.yul\":33172:33173   */\n      dup1\n        /* \"#utility.yul\":33165:33177   */\n      revert\n        /* \"#utility.yul\":33108:33179   */\n    tag_767:\n        /* \"#utility.yul\":33047:33185   */\n      pop\n      jump\t// out\n        /* \"#utility.yul\":33191:33311   */\n    tag_431:\n        /* \"#utility.yul\":33263:33286   */\n      tag_769\n        /* \"#utility.yul\":33280:33285   */\n      dup2\n        /* \"#utility.yul\":33263:33286   */\n      tag_728\n      jump\t// in\n    tag_769:\n        /* \"#utility.yul\":33256:33261   */\n      dup2\n        /* \"#utility.yul\":33253:33287   */\n      eq\n        /* \"#utility.yul\":33243:33305   */\n      tag_770\n      jumpi\n        /* \"#utility.yul\":33301:33302   */\n      0x00\n        /* \"#utility.yul\":33298:33299   */\n      dup1\n        /* \"#utility.yul\":33291:33303   */\n      revert\n        /* \"#utility.yul\":33243:33305   */\n    tag_770:\n        /* \"#utility.yul\":33191:33311   */\n      pop\n      jump\t// out\n\n    auxdata: 0xa2646970667358221220e54e6f6fc1962e32139690646a679fd66c55bf1fdfa64def0e2a33cf988c5cdb64736f6c63430008070033\n}\n",
				"bytecode": {
					"linkReferences": {},
					"object": "60806040523480156200001157600080fd5b506040518060400160405280600581526020017f627579657200000000000000000000000000000000000000000000000000000081525060008080815260200190815260200160002090805190602001906200006f92919062000292565b506040518060400160405280600681526020017f73656c6c65720000000000000000000000000000000000000000000000000000815250600080600181526020019081526020016000209080519060200190620000ce92919062000292565b506040518060400160405280600481526020017f73686f70000000000000000000000000000000000000000000000000000000008152506000806002815260200190815260200160002090805190602001906200012d92919062000292565b506040518060400160405280600581526020017f61646d696e0000000000000000000000000000000000000000000000000000008152506000806003815260200190815260200160002090805190602001906200018c92919062000292565b506040518060400160405280600881526020017f70726f7669646572000000000000000000000000000000000000000000000000815250600080600481526020019081526020016000209080519060200190620001eb92919062000292565b506040518060400160405280600481526020017f62616e6b000000000000000000000000000000000000000000000000000000008152506000806005815260200190815260200160002090805190602001906200024a92919062000292565b5033600460006101000a81548173ffffffffffffffffffffffffffffffffffffffff021916908373ffffffffffffffffffffffffffffffffffffffff160217905550620003a7565b828054620002a09062000342565b90600052602060002090601f016020900481019282620002c4576000855562000310565b82601f10620002df57805160ff191683800117855562000310565b8280016001018555821562000310579182015b828111156200030f578251825591602001919060010190620002f2565b5b5090506200031f919062000323565b5090565b5b808211156200033e57600081600090555060010162000324565b5090565b600060028204905060018216806200035b57607f821691505b6020821081141562000372576200037162000378565b5b50919050565b7f4e487b7100000000000000000000000000000000000000000000000000000000600052602260045260246000fd5b613c5880620003b76000396000f3fe608060405234801561001057600080fd5b50600436106100f55760003560e01c80637ccb2bd8116100975780639d344d10116100665780639d344d1014610266578063a59d105f14610282578063c3d5fd391461029e578063f8f98b79146102bf576100f5565b80637ccb2bd8146101f1578063824ef9a71461020d57806383db0f6d1461022957806399b958ee14610245576100f5565b80633a7d280c116100d35780633a7d280c1461016657806354504c12146101975780637558b2f8146101b95780637b3c7488146101d5576100f5565b806308e74858146100fa5780632156a7811461012e5780633a7087371461014a575b600080fd5b610114600480360381019061010f9190612cbe565b6102db565b6040516101259594939291906135f4565b60405180910390f35b61014860048036038101906101439190612f6c565b6107e0565b005b610164600480360381019061015f9190612da3565b6108a7565b005b610180600480360381019061017b9190612f23565b610caa565b60405161018e929190613563565b60405180910390f35b61019f6110a1565b6040516101b09594939291906135f4565b60405180910390f35b6101d360048036038101906101ce9190612e68565b6115a4565b005b6101ef60048036038101906101ea9190612f23565b61171f565b005b61020b60048036038101906102069190612f6c565b611845565b005b610227600480360381019061022291906130cb565b61194e565b005b610243600480360381019061023e9190612ceb565b6119dc565b005b61024d611b2b565b60405161025d949392919061366a565b60405180910390f35b610280600480360381019061027b9190613040565b611ee0565b005b61029c60048036038101906102979190612d18565b611f09565b005b6102a6612008565b6040516102b69493929190613593565b60405180910390f35b6102d960048036038101906102d49190612fc8565b612656565b005b60608060608060606003600260003373ffffffffffffffffffffffffffffffffffffffff1673ffffffffffffffffffffffffffffffffffffffff1681526020019081526020016000206000015481600581111561033b5761033a6139e6565b5b1461037b576040517f08c379a000000000000000000000000000000000000000000000000000000000815260040161037290613704565b60405180910390fd5b6000600260008973ffffffffffffffffffffffffffffffffffffffff1673ffffffffffffffffffffffffffffffffffffffff168152602001908152602001600020604051806080016040529081600082015481526020016001820180546103e190613983565b80601f016020809104026020016040519081016040528092919081815260200182805461040d90613983565b801561045a5780601f1061042f5761010080835404028352916020019161045a565b820191906000526020600020905b81548152906001019060200180831161043d57829003601f168201915b5050505050815260200160028201805461047390613983565b80601f016020809104026020016040519081016040528092919081815260200182805461049f90613983565b80156104ec5780601f106104c1576101008083540402835291602001916104ec565b820191906000526020600020905b8154815290600101906020018083116104cf57829003601f168201915b5050505050815260200160038201805480602002602001604051908101604052809291908181526020016000905b828210156105c657838290600052602060002001805461053990613983565b80601f016020809104026020016040519081016040528092919081815260200182805461056590613983565b80156105b25780601f10610587576101008083540402835291602001916105b2565b820191906000526020600020905b81548152906001019060200180831161059557829003601f168201915b50505050508152602001906001019061051a565b505050508152505090506000600b60008a73ffffffffffffffffffffffffffffffffffffffff1673ffffffffffffffffffffffffffffffffffffffff16815260200190815260200160002060009054906101000a900473ffffffffffffffffffffffffffffffffffffffff1690506000600a60008373ffffffffffffffffffffffffffffffffffffffff1673ffffffffffffffffffffffffffffffffffffffff16815260200190815260200160002060405180606001604052908160008201805461069090613983565b80601f01602080910402602001604051908101604052809291908181526020018280546106bc90613983565b80156107095780601f106106de57610100808354040283529160200191610709565b820191906000526020600020905b8154815290600101906020018083116106ec57829003601f168201915b5050505050815260200160018201805461072290613983565b80601f016020809104026020016040519081016040528092919081815260200182805461074e90613983565b801561079b5780601f106107705761010080835404028352916020019161079b565b820191906000526020600020905b81548152906001019060200180831161077e57829003601f168201915b50505050508152602001600282015481525050905082602001519850826040015197508060200151965080600001519550826060015194505050505091939590929450565b600460009054906101000a900473ffffffffffffffffffffffffffffffffffffffff1673ffffffffffffffffffffffffffffffffffffffff163373ffffffffffffffffffffffffffffffffffffffff1614610870576040517f08c379a000000000000000000000000000000000000000000000000000000000815260040161086790613744565b60405180910390fd5b6000600580811115610885576108846139e6565b5b90506108a26040518060200160405280600081525084838561274b565b505050565b61098a600260003373ffffffffffffffffffffffffffffffffffffffff1673ffffffffffffffffffffffffffffffffffffffff16815260200190815260200160002060010180546108f790613983565b80601f016020809104026020016040519081016040528092919081815260200182805461092390613983565b80156109705780601f1061094557610100808354040283529160200191610970565b820191906000526020600020905b81548152906001019060200180831161095357829003601f168201915b505050505060405180602001604052806000815250612a4f565b156109ca576040517f08c379a00000000000000000000000000000000000000000000000000000000081526004016109c190613724565b60405180910390fd5b60006040518060c001604052803373ffffffffffffffffffffffffffffffffffffffff1681526020018873ffffffffffffffffffffffffffffffffffffffff16815260200187815260200160008152602001600081526020018381525090506000600d60008973ffffffffffffffffffffffffffffffffffffffff1673ffffffffffffffffffffffffffffffffffffffff168152602001908152602001600020805480602002602001604051908101604052809291908181526020016000905b82821015610b36578382906000526020600020018054610aa990613983565b80601f0160208091040260200160405190810160405280929190818152602001828054610ad590613983565b8015610b225780601f10610af757610100808354040283529160200191610b22565b820191906000526020600020905b815481529060010190602001808311610b0557829003601f168201915b505050505081526020019060010190610a8a565b505050509050600d60008973ffffffffffffffffffffffffffffffffffffffff1673ffffffffffffffffffffffffffffffffffffffff16815260200190815260200160002086908060018154018082558091505060019003906000526020600020016000909190919091509080519060200190610bb4929190612aa8565b5081600e87604051610bc6919061354c565b908152602001604051809103902060008201518160000160006101000a81548173ffffffffffffffffffffffffffffffffffffffff021916908373ffffffffffffffffffffffffffffffffffffffff16021790555060208201518160010160006101000a81548173ffffffffffffffffffffffffffffffffffffffff021916908373ffffffffffffffffffffffffffffffffffffffff1602179055506040820151816002019080519060200190610c7e929190612aa8565b50606082015181600301556080820151816004015560a082015181600501559050505050505050505050565b6000606082600073ffffffffffffffffffffffffffffffffffffffff16600182604051610cd7919061354c565b908152602001604051809103902060009054906101000a900473ffffffffffffffffffffffffffffffffffffffff1673ffffffffffffffffffffffffffffffffffffffff161415610d5d576040517f08c379a0000000000000000000000000000000000000000000000000000000008152600401610d5490613784565b60405180910390fd5b6000600185604051610d6f919061354c565b908152602001604051809103902060009054906101000a900473ffffffffffffffffffffffffffffffffffffffff1690506000600260008373ffffffffffffffffffffffffffffffffffffffff1673ffffffffffffffffffffffffffffffffffffffff16815260200190815260200160002060405180608001604052908160008201548152602001600182018054610e0690613983565b80601f0160208091040260200160405190810160405280929190818152602001828054610e3290613983565b8015610e7f5780601f10610e5457610100808354040283529160200191610e7f565b820191906000526020600020905b815481529060010190602001808311610e6257829003601f168201915b50505050508152602001600282018054610e9890613983565b80601f0160208091040260200160405190810160405280929190818152602001828054610ec490613983565b8015610f115780601f10610ee657610100808354040283529160200191610f11565b820191906000526020600020905b815481529060010190602001808311610ef457829003601f168201915b5050505050815260200160038201805480602002602001604051908101604052809291908181526020016000905b82821015610feb578382906000526020600020018054610f5e90613983565b80601f0160208091040260200160405190810160405280929190818152602001828054610f8a90613983565b8015610fd75780601f10610fac57610100808354040283529160200191610fd7565b820191906000526020600020905b815481529060010190602001808311610fba57829003601f168201915b505050505081526020019060010190610f3f565b5050505081525050905081945060008082600001518152602001908152602001600020805461101990613983565b80601f016020809104026020016040519081016040528092919081815260200182805461104590613983565b80156110925780601f1061106757610100808354040283529160200191611092565b820191906000526020600020905b81548152906001019060200180831161107557829003601f168201915b50505050509350505050915091565b60608060608060606001600260003373ffffffffffffffffffffffffffffffffffffffff1673ffffffffffffffffffffffffffffffffffffffff16815260200190815260200160002060000154816005811115611101576111006139e6565b5b14611141576040517f08c379a000000000000000000000000000000000000000000000000000000000815260040161113890613704565b60405180910390fd5b6000600260003373ffffffffffffffffffffffffffffffffffffffff1673ffffffffffffffffffffffffffffffffffffffff168152602001908152602001600020604051806080016040529081600082015481526020016001820180546111a790613983565b80601f01602080910402602001604051908101604052809291908181526020018280546111d390613983565b80156112205780601f106111f557610100808354040283529160200191611220565b820191906000526020600020905b81548152906001019060200180831161120357829003601f168201915b5050505050815260200160028201805461123990613983565b80601f016020809104026020016040519081016040528092919081815260200182805461126590613983565b80156112b25780601f10611287576101008083540402835291602001916112b2565b820191906000526020600020905b81548152906001019060200180831161129557829003601f168201915b5050505050815260200160038201805480602002602001604051908101604052809291908181526020016000905b8282101561138c5783829060005260206000200180546112ff90613983565b80601f016020809104026020016040519081016040528092919081815260200182805461132b90613983565b80156113785780601f1061134d57610100808354040283529160200191611378565b820191906000526020600020905b81548152906001019060200180831161135b57829003601f168201915b5050505050815260200190600101906112e0565b505050508152505090506000600b60003373ffffffffffffffffffffffffffffffffffffffff1673ffffffffffffffffffffffffffffffffffffffff16815260200190815260200160002060009054906101000a900473ffffffffffffffffffffffffffffffffffffffff1690506000600a60008373ffffffffffffffffffffffffffffffffffffffff1673ffffffffffffffffffffffffffffffffffffffff16815260200190815260200160002060405180606001604052908160008201805461145690613983565b80601f016020809104026020016040519081016040528092919081815260200182805461148290613983565b80156114cf5780601f106114a4576101008083540402835291602001916114cf565b820191906000526020600020905b8154815290600101906020018083116114b257829003601f168201915b505050505081526020016001820180546114e890613983565b80601f016020809104026020016040519081016040528092919081815260200182805461151490613983565b80156115615780601f1061153657610100808354040283529160200191611561565b820191906000526020600020905b81548152906001019060200180831161154457829003601f168201915b5050505050815260200160028201548152505090508260200151985082604001519750806020015196508060000151955082606001519450505050509091929394565b6003600260003373ffffffffffffffffffffffffffffffffffffffff1673ffffffffffffffffffffffffffffffffffffffff168152602001908152602001600020600001548160058111156115fc576115fb6139e6565b5b1461163c576040517f08c379a000000000000000000000000000000000000000000000000000000000815260040161163390613704565b60405180910390fd5b600060405180606001604052808681526020018581526020016000815250905080600a60008873ffffffffffffffffffffffffffffffffffffffff1673ffffffffffffffffffffffffffffffffffffffff16815260200190815260200160002060008201518160000190805190602001906116b8929190612aa8565b5060208201518160010190805190602001906116d5929190612aa8565b50604082015181600201559050506000600260058111156116f9576116f86139e6565b5b90506117166040518060200160405280600081525085838a61274b565b50505050505050565b611802600260003373ffffffffffffffffffffffffffffffffffffffff1673ffffffffffffffffffffffffffffffffffffffff168152602001908152602001600020600101805461176f90613983565b80601f016020809104026020016040519081016040528092919081815260200182805461179b90613983565b80156117e85780601f106117bd576101008083540402835291602001916117e8565b820191906000526020600020905b8154815290600101906020018083116117cb57829003601f168201915b505050505060405180602001604052806000815250612a4f565b15611842576040517f08c379a000000000000000000000000000000000000000000000000000000000815260040161183990613724565b60405180910390fd5b50565b600460009054906101000a900473ffffffffffffffffffffffffffffffffffffffff1673ffffffffffffffffffffffffffffffffffffffff163373ffffffffffffffffffffffffffffffffffffffff16146118d5576040517f08c379a00000000000000000000000000000000000000000000000000000000081526004016118cc90613744565b60405180910390fd5b6000600460058111156118eb576118ea6139e6565b5b90506119086040518060200160405280600081525084838561274b565b81600360006101000a81548173ffffffffffffffffffffffffffffffffffffffff021916908373ffffffffffffffffffffffffffffffffffffffff160217905550505050565b600060016005811115611964576119636139e6565b5b90506119728585838661274b565b6007839080600181540180825580915050600190039060005260206000200160009091909190916101000a81548173ffffffffffffffffffffffffffffffffffffffff021916908373ffffffffffffffffffffffffffffffffffffffff1602179055505050505050565b6005600260003373ffffffffffffffffffffffffffffffffffffffff1673ffffffffffffffffffffffffffffffffffffffff16815260200190815260200160002060000154816005811115611a3457611a336139e6565b5b14611a74576040517f08c379a0000000000000000000000000000000000000000000000000000000008152600401611a6b90613704565b60405180910390fd5b683635c9adc5dea000003373ffffffffffffffffffffffffffffffffffffffff16311015611ad7576040517f08c379a0000000000000000000000000000000000000000000000000000000008152600401611ace906136e4565b60405180910390fd5b8173ffffffffffffffffffffffffffffffffffffffff166108fc683635c9adc5dea000009081150290604051600060405180830381858888f19350505050158015611b26573d6000803e3d6000fd5b505050565b60608060006060611c15600260003373ffffffffffffffffffffffffffffffffffffffff1673ffffffffffffffffffffffffffffffffffffffff1681526020019081526020016000206001018054611b8290613983565b80601f0160208091040260200160405190810160405280929190818152602001828054611bae90613983565b8015611bfb5780601f10611bd057610100808354040283529160200191611bfb565b820191906000526020600020905b815481529060010190602001808311611bde57829003601f168201915b505050505060405180602001604052806000815250612a4f565b15611c55576040517f08c379a0000000000000000000000000000000000000000000000000000000008152600401611c4c90613724565b60405180910390fd5b6000600260003373ffffffffffffffffffffffffffffffffffffffff1673ffffffffffffffffffffffffffffffffffffffff16815260200190815260200160002060405180608001604052908160008201548152602001600182018054611cbb90613983565b80601f0160208091040260200160405190810160405280929190818152602001828054611ce790613983565b8015611d345780601f10611d0957610100808354040283529160200191611d34565b820191906000526020600020905b815481529060010190602001808311611d1757829003601f168201915b50505050508152602001600282018054611d4d90613983565b80601f0160208091040260200160405190810160405280929190818152602001828054611d7990613983565b8015611dc65780601f10611d9b57610100808354040283529160200191611dc6565b820191906000526020600020905b815481529060010190602001808311611da957829003601f168201915b5050505050815260200160038201805480602002602001604051908101604052809291908181526020016000905b82821015611ea0578382906000526020600020018054611e1390613983565b80601f0160208091040260200160405190810160405280929190818152602001828054611e3f90613983565b8015611e8c5780601f10611e6157610100808354040283529160200191611e8c565b820191906000526020600020905b815481529060010190602001808311611e6f57829003601f168201915b505050505081526020019060010190611df4565b5050505081525050905080602001519450806040015193503373ffffffffffffffffffffffffffffffffffffffff16319250806060015191505090919293565b6000806005811115611ef557611ef46139e6565b5b9050611f038484838561274b565b50505050565b6003600260003373ffffffffffffffffffffffffffffffffffffffff1673ffffffffffffffffffffffffffffffffffffffff16815260200190815260200160002060000154816005811115611f6157611f606139e6565b5b14611fa1576040517f08c379a0000000000000000000000000000000000000000000000000000000008152600401611f9890613704565b60405180910390fd5b600060036005811115611fb757611fb66139e6565b5b9050611fc58484838861274b565b600583908060018154018082558091505060019003906000526020600020016000909190919091509080519060200190612000929190612aa8565b505050505050565b6060806060806003600260003373ffffffffffffffffffffffffffffffffffffffff1673ffffffffffffffffffffffffffffffffffffffff16815260200190815260200160002060000154816005811115612066576120656139e6565b5b146120a6576040517f08c379a000000000000000000000000000000000000000000000000000000000815260040161209d90613704565b60405180910390fd5b6000600260003373ffffffffffffffffffffffffffffffffffffffff1673ffffffffffffffffffffffffffffffffffffffff1681526020019081526020016000206040518060800160405290816000820154815260200160018201805461210c90613983565b80601f016020809104026020016040519081016040528092919081815260200182805461213890613983565b80156121855780601f1061215a57610100808354040283529160200191612185565b820191906000526020600020905b81548152906001019060200180831161216857829003601f168201915b5050505050815260200160028201805461219e90613983565b80601f01602080910402602001604051908101604052809291908181526020018280546121ca90613983565b80156122175780601f106121ec57610100808354040283529160200191612217565b820191906000526020600020905b8154815290600101906020018083116121fa57829003601f168201915b5050505050815260200160038201805480602002602001604051908101604052809291908181526020016000905b828210156122f157838290600052602060002001805461226490613983565b80601f016020809104026020016040519081016040528092919081815260200182805461229090613983565b80156122dd5780601f106122b2576101008083540402835291602001916122dd565b820191906000526020600020905b8154815290600101906020018083116122c057829003601f168201915b505050505081526020019060010190612245565b50505050815250509050806020015195506009805480602002602001604051908101604052809291908181526020016000905b828210156124eb57838290600052602060002090600402016040518060800160405290816000820160009054906101000a900473ffffffffffffffffffffffffffffffffffffffff1673ffffffffffffffffffffffffffffffffffffffff1673ffffffffffffffffffffffffffffffffffffffff1681526020016001820180546123ad90613983565b80601f01602080910402602001604051908101604052809291908181526020018280546123d990613983565b80156124265780601f106123fb57610100808354040283529160200191612426565b820191906000526020600020905b81548152906001019060200180831161240957829003601f168201915b5050505050815260200160028201805461243f90613983565b80601f016020809104026020016040519081016040528092919081815260200182805461246b90613983565b80156124b85780601f1061248d576101008083540402835291602001916124b8565b820191906000526020600020905b81548152906001019060200180831161249b57829003601f168201915b505050505081526020016003820160009054906101000a900460ff16151515158152505081526020019060010190612324565b5050505094506005805480602002602001604051908101604052809291908181526020016000905b828210156125bf57838290600052602060002001805461253290613983565b80601f016020809104026020016040519081016040528092919081815260200182805461255e90613983565b80156125ab5780601f10612580576101008083540402835291602001916125ab565b820191906000526020600020905b81548152906001019060200180831161258e57829003601f168201915b505050505081526020019060010190612513565b505050509350600780548060200260200160405190810160405280929190818152602001828054801561264757602002820191906000526020600020905b8160009054906101000a900473ffffffffffffffffffffffffffffffffffffffff1673ffffffffffffffffffffffffffffffffffffffff16815260200190600101908083116125fd575b50505050509250505090919293565b600460009054906101000a900473ffffffffffffffffffffffffffffffffffffffff1673ffffffffffffffffffffffffffffffffffffffff163373ffffffffffffffffffffffffffffffffffffffff16146126e6576040517f08c379a00000000000000000000000000000000000000000000000000000000081526004016126dd90613744565b60405180910390fd5b6000600360058111156126fc576126fb6139e6565b5b905061270a8383833361274b565b600582908060018154018082558091505060019003906000526020600020016000909190919091509080519060200190612745929190612aa8565b50505050565b8083612830600260008473ffffffffffffffffffffffffffffffffffffffff1673ffffffffffffffffffffffffffffffffffffffff168152602001908152602001600020600201805461279d90613983565b80601f01602080910402602001604051908101604052809291908181526020018280546127c990613983565b80156128165780601f106127eb57610100808354040283529160200191612816565b820191906000526020600020905b8154815290600101906020018083116127f957829003601f168201915b505050505060405180602001604052806000815250612a4f565b15612870576040517f08c379a000000000000000000000000000000000000000000000000000000000815260040161286790613764565b60405180910390fd5b600073ffffffffffffffffffffffffffffffffffffffff16600182604051612898919061354c565b908152602001604051809103902060009054906101000a900473ffffffffffffffffffffffffffffffffffffffff1673ffffffffffffffffffffffffffffffffffffffff161461291d576040517f08c379a0000000000000000000000000000000000000000000000000000000008152600401612914906136c4565b60405180910390fd5b60606000604051806080016040528087815260200188815260200189815260200183815250905084600188604051612955919061354c565b908152602001604051809103902060006101000a81548173ffffffffffffffffffffffffffffffffffffffff021916908373ffffffffffffffffffffffffffffffffffffffff16021790555080600260008773ffffffffffffffffffffffffffffffffffffffff1673ffffffffffffffffffffffffffffffffffffffff168152602001908152602001600020600082015181600001556020820151816001019080519060200190612a07929190612aa8565b506040820151816002019080519060200190612a24929190612aa8565b506060820151816003019080519060200190612a41929190612b2e565b509050505050505050505050565b600081604051602001612a62919061354c565b6040516020818303038152906040528051906020012083604051602001612a89919061354c565b6040516020818303038152906040528051906020012014905092915050565b828054612ab490613983565b90600052602060002090601f016020900481019282612ad65760008555612b1d565b82601f10612aef57805160ff1916838001178555612b1d565b82800160010185558215612b1d579182015b82811115612b1c578251825591602001919060010190612b01565b5b509050612b2a9190612b8e565b5090565b828054828255906000526020600020908101928215612b7d579160200282015b82811115612b7c578251829080519060200190612b6c929190612aa8565b5091602001919060010190612b4e565b5b509050612b8a9190612bab565b5090565b5b80821115612ba7576000816000905550600101612b8f565b5090565b5b80821115612bcb5760008181612bc29190612bcf565b50600101612bac565b5090565b508054612bdb90613983565b6000825580601f10612bed5750612c0c565b601f016020900490600052602060002090810190612c0b9190612b8e565b5b50565b6000612c22612c1d846137c9565b6137a4565b905082815260208101848484011115612c3e57612c3d613a78565b5b612c49848285613941565b509392505050565b600081359050612c6081613bdd565b92915050565b600081359050612c7581613bf4565b92915050565b600081359050612c8a81613c0b565b92915050565b600082601f830112612ca557612ca4613a73565b5b8135612cb5848260208601612c0f565b91505092915050565b600060208284031215612cd457612cd3613a82565b5b6000612ce284828501612c51565b91505092915050565b600060208284031215612d0157612d00613a82565b5b6000612d0f84828501612c66565b91505092915050565b600080600060608486031215612d3157612d30613a82565b5b6000612d3f86828701612c51565b935050602084013567ffffffffffffffff811115612d6057612d5f613a7d565b5b612d6c86828701612c90565b925050604084013567ffffffffffffffff811115612d8d57612d8c613a7d565b5b612d9986828701612c90565b9150509250925092565b60008060008060008060c08789031215612dc057612dbf613a82565b5b6000612dce89828a01612c51565b965050602087013567ffffffffffffffff811115612def57612dee613a7d565b5b612dfb89828a01612c90565b955050604087013567ffffffffffffffff811115612e1c57612e1b613a7d565b5b612e2889828a01612c90565b9450506060612e3989828a01612c7b565b9350506080612e4a89828a01612c7b565b92505060a0612e5b89828a01612c7b565b9150509295509295509295565b60008060008060808587031215612e8257612e81613a82565b5b6000612e9087828801612c51565b945050602085013567ffffffffffffffff811115612eb157612eb0613a7d565b5b612ebd87828801612c90565b935050604085013567ffffffffffffffff811115612ede57612edd613a7d565b5b612eea87828801612c90565b925050606085013567ffffffffffffffff811115612f0b57612f0a613a7d565b5b612f1787828801612c90565b91505092959194509250565b600060208284031215612f3957612f38613a82565b5b600082013567ffffffffffffffff811115612f5757612f56613a7d565b5b612f6384828501612c90565b91505092915050565b60008060408385031215612f8357612f82613a82565b5b600083013567ffffffffffffffff811115612fa157612fa0613a7d565b5b612fad85828601612c90565b9250506020612fbe85828601612c51565b9150509250929050565b60008060408385031215612fdf57612fde613a82565b5b600083013567ffffffffffffffff811115612ffd57612ffc613a7d565b5b61300985828601612c90565b925050602083013567ffffffffffffffff81111561302a57613029613a7d565b5b61303685828601612c90565b9150509250929050565b60008060006060848603121561305957613058613a82565b5b600084013567ffffffffffffffff81111561307757613076613a7d565b5b61308386828701612c90565b935050602084013567ffffffffffffffff8111156130a4576130a3613a7d565b5b6130b086828701612c90565b92505060406130c186828701612c51565b9150509250925092565b600080600080608085870312156130e5576130e4613a82565b5b600085013567ffffffffffffffff81111561310357613102613a7d565b5b61310f87828801612c90565b945050602085013567ffffffffffffffff8111156131305761312f613a7d565b5b61313c87828801612c90565b935050604061314d87828801612c51565b925050606085013567ffffffffffffffff81111561316e5761316d613a7d565b5b61317a87828801612c90565b91505092959194509250565b600061319283836131c6565b60208301905092915050565b60006131aa838361333b565b905092915050565b60006131be83836134d3565b905092915050565b6131cf816138dd565b82525050565b6131de816138dd565b82525050565b60006131ef8261382a565b6131f9818561387d565b9350613204836137fa565b8060005b8381101561323557815161321c8882613186565b975061322783613856565b925050600181019050613208565b5085935050505092915050565b600061324d82613835565b613257818561388e565b9350836020820285016132698561380a565b8060005b858110156132a55784840389528151613286858261319e565b945061329183613863565b925060208a0199505060018101905061326d565b50829750879550505050505092915050565b60006132c282613840565b6132cc818561389f565b9350836020820285016132de8561381a565b8060005b8581101561331a57848403895281516132fb85826131b2565b945061330683613870565b925060208a019950506001810190506132e2565b50829750879550505050505092915050565b61333581613901565b82525050565b60006133468261384b565b61335081856138b0565b9350613360818560208601613950565b61336981613a87565b840191505092915050565b600061337f8261384b565b61338981856138c1565b9350613399818560208601613950565b6133a281613a87565b840191505092915050565b60006133b88261384b565b6133c281856138d2565b93506133d2818560208601613950565b80840191505092915050565b60006133eb6022836138c1565b91506133f682613a98565b604082019050919050565b600061340e600b836138c1565b915061341982613ae7565b602082019050919050565b60006134316009836138c1565b915061343c82613b10565b602082019050919050565b6000613454600c836138c1565b915061345f82613b39565b602082019050919050565b6000613477600d836138c1565b915061348282613b62565b602082019050919050565b600061349a6016836138c1565b91506134a582613b8b565b602082019050919050565b60006134bd600b836138c1565b91506134c882613bb4565b602082019050919050565b60006080830160008301516134eb60008601826131c6565b5060208301518482036020860152613503828261333b565b9150506040830151848203604086015261351d828261333b565b9150506060830151613532606086018261332c565b508091505092915050565b61354681613937565b82525050565b600061355882846133ad565b915081905092915050565b600060408201905061357860008301856131d5565b818103602083015261358a8184613374565b90509392505050565b600060808201905081810360008301526135ad8187613374565b905081810360208301526135c181866132b7565b905081810360408301526135d58185613242565b905081810360608301526135e981846131e4565b905095945050505050565b600060a082019050818103600083015261360e8188613374565b905081810360208301526136228187613374565b905081810360408301526136368186613374565b9050818103606083015261364a8185613374565b9050818103608083015261365e8184613242565b90509695505050505050565b600060808201905081810360008301526136848187613374565b905081810360208301526136988186613374565b90506136a7604083018561353d565b81810360608301526136b98184613242565b905095945050505050565b600060208201905081810360008301526136dd816133de565b9050919050565b600060208201905081810360008301526136fd81613401565b9050919050565b6000602082019050818103600083015261371d81613424565b9050919050565b6000602082019050818103600083015261373d81613447565b9050919050565b6000602082019050818103600083015261375d8161346a565b9050919050565b6000602082019050818103600083015261377d8161348d565b9050919050565b6000602082019050818103600083015261379d816134b0565b9050919050565b60006137ae6137bf565b90506137ba82826139b5565b919050565b6000604051905090565b600067ffffffffffffffff8211156137e4576137e3613a44565b5b6137ed82613a87565b9050602081019050919050565b6000819050602082019050919050565b6000819050602082019050919050565b6000819050602082019050919050565b600081519050919050565b600081519050919050565b600081519050919050565b600081519050919050565b6000602082019050919050565b6000602082019050919050565b6000602082019050919050565b600082825260208201905092915050565b600082825260208201905092915050565b600082825260208201905092915050565b600082825260208201905092915050565b600082825260208201905092915050565b600081905092915050565b60006138e882613917565b9050919050565b60006138fa82613917565b9050919050565b60008115159050919050565b6000819050919050565b600073ffffffffffffffffffffffffffffffffffffffff82169050919050565b6000819050919050565b82818337600083830152505050565b60005b8381101561396e578082015181840152602081019050613953565b8381111561397d576000848401525b50505050565b6000600282049050600182168061399b57607f821691505b602082108114156139af576139ae613a15565b5b50919050565b6139be82613a87565b810181811067ffffffffffffffff821117156139dd576139dc613a44565b5b80604052505050565b7f4e487b7100000000000000000000000000000000000000000000000000000000600052602160045260246000fd5b7f4e487b7100000000000000000000000000000000000000000000000000000000600052602260045260246000fd5b7f4e487b7100000000000000000000000000000000000000000000000000000000600052604160045260246000fd5b600080fd5b600080fd5b600080fd5b600080fd5b6000601f19601f8301169050919050565b7f596f7572206c6f67696e20616c726561647920657869737420696e207379737460008201527f656d000000000000000000000000000000000000000000000000000000000000602082015250565b7f4c6f772062616c616e6365000000000000000000000000000000000000000000600082015250565b7f466f7262696464656e0000000000000000000000000000000000000000000000600082015250565b7f596f75206e6f7420757365720000000000000000000000000000000000000000600082015250565b7f596f75206e6f742061646d696e00000000000000000000000000000000000000600082015250565b7f596f7520616c7265616479207265676973746572656400000000000000000000600082015250565b7f57726f6e67204c6f67696e000000000000000000000000000000000000000000600082015250565b613be6816138dd565b8114613bf157600080fd5b50565b613bfd816138ef565b8114613c0857600080fd5b50565b613c148161390d565b8114613c1f57600080fd5b5056fea2646970667358221220e54e6f6fc1962e32139690646a679fd66c55bf1fdfa64def0e2a33cf988c5cdb64736f6c63430008070033",
					"opcodes": "PUSH1 0x80 PUSH1 0x40 MSTORE CALLVALUE DUP1 ISZERO PUSH3 0x11 JUMPI PUSH1 0x0 DUP1 REVERT JUMPDEST POP PUSH1 0x40 MLOAD DUP1 PUSH1 0x40 ADD PUSH1 0x40 MSTORE DUP1 PUSH1 0x5 DUP2 MSTORE PUSH1 0x20 ADD PUSH32 0x6275796572000000000000000000000000000000000000000000000000000000 DUP2 MSTORE POP PUSH1 0x0 DUP1 DUP1 DUP2 MSTORE PUSH1 0x20 ADD SWAP1 DUP2 MSTORE PUSH1 0x20 ADD PUSH1 0x0 KECCAK256 SWAP1 DUP1 MLOAD SWAP1 PUSH1 0x20 ADD SWAP1 PUSH3 0x6F SWAP3 SWAP2 SWAP1 PUSH3 0x292 JUMP JUMPDEST POP PUSH1 0x40 MLOAD DUP1 PUSH1 0x40 ADD PUSH1 0x40 MSTORE DUP1 PUSH1 0x6 DUP2 MSTORE PUSH1 0x20 ADD PUSH32 0x73656C6C65720000000000000000000000000000000000000000000000000000 DUP2 MSTORE POP PUSH1 0x0 DUP1 PUSH1 0x1 DUP2 MSTORE PUSH1 0x20 ADD SWAP1 DUP2 MSTORE PUSH1 0x20 ADD PUSH1 0x0 KECCAK256 SWAP1 DUP1 MLOAD SWAP1 PUSH1 0x20 ADD SWAP1 PUSH3 0xCE SWAP3 SWAP2 SWAP1 PUSH3 0x292 JUMP JUMPDEST POP PUSH1 0x40 MLOAD DUP1 PUSH1 0x40 ADD PUSH1 0x40 MSTORE DUP1 PUSH1 0x4 DUP2 MSTORE PUSH1 0x20 ADD PUSH32 0x73686F7000000000000000000000000000000000000000000000000000000000 DUP2 MSTORE POP PUSH1 0x0 DUP1 PUSH1 0x2 DUP2 MSTORE PUSH1 0x20 ADD SWAP1 DUP2 MSTORE PUSH1 0x20 ADD PUSH1 0x0 KECCAK256 SWAP1 DUP1 MLOAD SWAP1 PUSH1 0x20 ADD SWAP1 PUSH3 0x12D SWAP3 SWAP2 SWAP1 PUSH3 0x292 JUMP JUMPDEST POP PUSH1 0x40 MLOAD DUP1 PUSH1 0x40 ADD PUSH1 0x40 MSTORE DUP1 PUSH1 0x5 DUP2 MSTORE PUSH1 0x20 ADD PUSH32 0x61646D696E000000000000000000000000000000000000000000000000000000 DUP2 MSTORE POP PUSH1 0x0 DUP1 PUSH1 0x3 DUP2 MSTORE PUSH1 0x20 ADD SWAP1 DUP2 MSTORE PUSH1 0x20 ADD PUSH1 0x0 KECCAK256 SWAP1 DUP1 MLOAD SWAP1 PUSH1 0x20 ADD SWAP1 PUSH3 0x18C SWAP3 SWAP2 SWAP1 PUSH3 0x292 JUMP JUMPDEST POP PUSH1 0x40 MLOAD DUP1 PUSH1 0x40 ADD PUSH1 0x40 MSTORE DUP1 PUSH1 0x8 DUP2 MSTORE PUSH1 0x20 ADD PUSH32 0x70726F7669646572000000000000000000000000000000000000000000000000 DUP2 MSTORE POP PUSH1 0x0 DUP1 PUSH1 0x4 DUP2 MSTORE PUSH1 0x20 ADD SWAP1 DUP2 MSTORE PUSH1 0x20 ADD PUSH1 0x0 KECCAK256 SWAP1 DUP1 MLOAD SWAP1 PUSH1 0x20 ADD SWAP1 PUSH3 0x1EB SWAP3 SWAP2 SWAP1 PUSH3 0x292 JUMP JUMPDEST POP PUSH1 0x40 MLOAD DUP1 PUSH1 0x40 ADD PUSH1 0x40 MSTORE DUP1 PUSH1 0x4 DUP2 MSTORE PUSH1 0x20 ADD PUSH32 0x62616E6B00000000000000000000000000000000000000000000000000000000 DUP2 MSTORE POP PUSH1 0x0 DUP1 PUSH1 0x5 DUP2 MSTORE PUSH1 0x20 ADD SWAP1 DUP2 MSTORE PUSH1 0x20 ADD PUSH1 0x0 KECCAK256 SWAP1 DUP1 MLOAD SWAP1 PUSH1 0x20 ADD SWAP1 PUSH3 0x24A SWAP3 SWAP2 SWAP1 PUSH3 0x292 JUMP JUMPDEST POP CALLER PUSH1 0x4 PUSH1 0x0 PUSH2 0x100 EXP DUP2 SLOAD DUP2 PUSH20 0xFFFFFFFFFFFFFFFFFFFFFFFFFFFFFFFFFFFFFFFF MUL NOT AND SWAP1 DUP4 PUSH20 0xFFFFFFFFFFFFFFFFFFFFFFFFFFFFFFFFFFFFFFFF AND MUL OR SWAP1 SSTORE POP PUSH3 0x3A7 JUMP JUMPDEST DUP3 DUP1 SLOAD PUSH3 0x2A0 SWAP1 PUSH3 0x342 JUMP JUMPDEST SWAP1 PUSH1 0x0 MSTORE PUSH1 0x20 PUSH1 0x0 KECCAK256 SWAP1 PUSH1 0x1F ADD PUSH1 0x20 SWAP1 DIV DUP2 ADD SWAP3 DUP3 PUSH3 0x2C4 JUMPI PUSH1 0x0 DUP6 SSTORE PUSH3 0x310 JUMP JUMPDEST DUP3 PUSH1 0x1F LT PUSH3 0x2DF JUMPI DUP1 MLOAD PUSH1 0xFF NOT AND DUP4 DUP1 ADD OR DUP6 SSTORE PUSH3 0x310 JUMP JUMPDEST DUP3 DUP1 ADD PUSH1 0x1 ADD DUP6 SSTORE DUP3 ISZERO PUSH3 0x310 JUMPI SWAP2 DUP3 ADD JUMPDEST DUP3 DUP2 GT ISZERO PUSH3 0x30F JUMPI DUP3 MLOAD DUP3 SSTORE SWAP2 PUSH1 0x20 ADD SWAP2 SWAP1 PUSH1 0x1 ADD SWAP1 PUSH3 0x2F2 JUMP JUMPDEST JUMPDEST POP SWAP1 POP PUSH3 0x31F SWAP2 SWAP1 PUSH3 0x323 JUMP JUMPDEST POP SWAP1 JUMP JUMPDEST JUMPDEST DUP1 DUP3 GT ISZERO PUSH3 0x33E JUMPI PUSH1 0x0 DUP2 PUSH1 0x0 SWAP1 SSTORE POP PUSH1 0x1 ADD PUSH3 0x324 JUMP JUMPDEST POP SWAP1 JUMP JUMPDEST PUSH1 0x0 PUSH1 0x2 DUP3 DIV SWAP1 POP PUSH1 0x1 DUP3 AND DUP1 PUSH3 0x35B JUMPI PUSH1 0x7F DUP3 AND SWAP2 POP JUMPDEST PUSH1 0x20 DUP3 LT DUP2 EQ ISZERO PUSH3 0x372 JUMPI PUSH3 0x371 PUSH3 0x378 JUMP JUMPDEST JUMPDEST POP SWAP2 SWAP1 POP JUMP JUMPDEST PUSH32 0x4E487B7100000000000000000000000000000000000000000000000000000000 PUSH1 0x0 MSTORE PUSH1 0x22 PUSH1 0x4 MSTORE PUSH1 0x24 PUSH1 0x0 REVERT JUMPDEST PUSH2 0x3C58 DUP1 PUSH3 0x3B7 PUSH1 0x0 CODECOPY PUSH1 0x0 RETURN INVALID PUSH1 0x80 PUSH1 0x40 MSTORE CALLVALUE DUP1 ISZERO PUSH2 0x10 JUMPI PUSH1 0x0 DUP1 REVERT JUMPDEST POP PUSH1 0x4 CALLDATASIZE LT PUSH2 0xF5 JUMPI PUSH1 0x0 CALLDATALOAD PUSH1 0xE0 SHR DUP1 PUSH4 0x7CCB2BD8 GT PUSH2 0x97 JUMPI DUP1 PUSH4 0x9D344D10 GT PUSH2 0x66 JUMPI DUP1 PUSH4 0x9D344D10 EQ PUSH2 0x266 JUMPI DUP1 PUSH4 0xA59D105F EQ PUSH2 0x282 JUMPI DUP1 PUSH4 0xC3D5FD39 EQ PUSH2 0x29E JUMPI DUP1 PUSH4 0xF8F98B79 EQ PUSH2 0x2BF JUMPI PUSH2 0xF5 JUMP JUMPDEST DUP1 PUSH4 0x7CCB2BD8 EQ PUSH2 0x1F1 JUMPI DUP1 PUSH4 0x824EF9A7 EQ PUSH2 0x20D JUMPI DUP1 PUSH4 0x83DB0F6D EQ PUSH2 0x229 JUMPI DUP1 PUSH4 0x99B958EE EQ PUSH2 0x245 JUMPI PUSH2 0xF5 JUMP JUMPDEST DUP1 PUSH4 0x3A7D280C GT PUSH2 0xD3 JUMPI DUP1 PUSH4 0x3A7D280C EQ PUSH2 0x166 JUMPI DUP1 PUSH4 0x54504C12 EQ PUSH2 0x197 JUMPI DUP1 PUSH4 0x7558B2F8 EQ PUSH2 0x1B9 JUMPI DUP1 PUSH4 0x7B3C7488 EQ PUSH2 0x1D5 JUMPI PUSH2 0xF5 JUMP JUMPDEST DUP1 PUSH4 0x8E74858 EQ PUSH2 0xFA JUMPI DUP1 PUSH4 0x2156A781 EQ PUSH2 0x12E JUMPI DUP1 PUSH4 0x3A708737 EQ PUSH2 0x14A JUMPI JUMPDEST PUSH1 0x0 DUP1 REVERT JUMPDEST PUSH2 0x114 PUSH1 0x4 DUP1 CALLDATASIZE SUB DUP2 ADD SWAP1 PUSH2 0x10F SWAP2 SWAP1 PUSH2 0x2CBE JUMP JUMPDEST PUSH2 0x2DB JUMP JUMPDEST PUSH1 0x40 MLOAD PUSH2 0x125 SWAP6 SWAP5 SWAP4 SWAP3 SWAP2 SWAP1 PUSH2 0x35F4 JUMP JUMPDEST PUSH1 0x40 MLOAD DUP1 SWAP2 SUB SWAP1 RETURN JUMPDEST PUSH2 0x148 PUSH1 0x4 DUP1 CALLDATASIZE SUB DUP2 ADD SWAP1 PUSH2 0x143 SWAP2 SWAP1 PUSH2 0x2F6C JUMP JUMPDEST PUSH2 0x7E0 JUMP JUMPDEST STOP JUMPDEST PUSH2 0x164 PUSH1 0x4 DUP1 CALLDATASIZE SUB DUP2 ADD SWAP1 PUSH2 0x15F SWAP2 SWAP1 PUSH2 0x2DA3 JUMP JUMPDEST PUSH2 0x8A7 JUMP JUMPDEST STOP JUMPDEST PUSH2 0x180 PUSH1 0x4 DUP1 CALLDATASIZE SUB DUP2 ADD SWAP1 PUSH2 0x17B SWAP2 SWAP1 PUSH2 0x2F23 JUMP JUMPDEST PUSH2 0xCAA JUMP JUMPDEST PUSH1 0x40 MLOAD PUSH2 0x18E SWAP3 SWAP2 SWAP1 PUSH2 0x3563 JUMP JUMPDEST PUSH1 0x40 MLOAD DUP1 SWAP2 SUB SWAP1 RETURN JUMPDEST PUSH2 0x19F PUSH2 0x10A1 JUMP JUMPDEST PUSH1 0x40 MLOAD PUSH2 0x1B0 SWAP6 SWAP5 SWAP4 SWAP3 SWAP2 SWAP1 PUSH2 0x35F4 JUMP JUMPDEST PUSH1 0x40 MLOAD DUP1 SWAP2 SUB SWAP1 RETURN JUMPDEST PUSH2 0x1D3 PUSH1 0x4 DUP1 CALLDATASIZE SUB DUP2 ADD SWAP1 PUSH2 0x1CE SWAP2 SWAP1 PUSH2 0x2E68 JUMP JUMPDEST PUSH2 0x15A4 JUMP JUMPDEST STOP JUMPDEST PUSH2 0x1EF PUSH1 0x4 DUP1 CALLDATASIZE SUB DUP2 ADD SWAP1 PUSH2 0x1EA SWAP2 SWAP1 PUSH2 0x2F23 JUMP JUMPDEST PUSH2 0x171F JUMP JUMPDEST STOP JUMPDEST PUSH2 0x20B PUSH1 0x4 DUP1 CALLDATASIZE SUB DUP2 ADD SWAP1 PUSH2 0x206 SWAP2 SWAP1 PUSH2 0x2F6C JUMP JUMPDEST PUSH2 0x1845 JUMP JUMPDEST STOP JUMPDEST PUSH2 0x227 PUSH1 0x4 DUP1 CALLDATASIZE SUB DUP2 ADD SWAP1 PUSH2 0x222 SWAP2 SWAP1 PUSH2 0x30CB JUMP JUMPDEST PUSH2 0x194E JUMP JUMPDEST STOP JUMPDEST PUSH2 0x243 PUSH1 0x4 DUP1 CALLDATASIZE SUB DUP2 ADD SWAP1 PUSH2 0x23E SWAP2 SWAP1 PUSH2 0x2CEB JUMP JUMPDEST PUSH2 0x19DC JUMP JUMPDEST STOP JUMPDEST PUSH2 0x24D PUSH2 0x1B2B JUMP JUMPDEST PUSH1 0x40 MLOAD PUSH2 0x25D SWAP5 SWAP4 SWAP3 SWAP2 SWAP1 PUSH2 0x366A JUMP JUMPDEST PUSH1 0x40 MLOAD DUP1 SWAP2 SUB SWAP1 RETURN JUMPDEST PUSH2 0x280 PUSH1 0x4 DUP1 CALLDATASIZE SUB DUP2 ADD SWAP1 PUSH2 0x27B SWAP2 SWAP1 PUSH2 0x3040 JUMP JUMPDEST PUSH2 0x1EE0 JUMP JUMPDEST STOP JUMPDEST PUSH2 0x29C PUSH1 0x4 DUP1 CALLDATASIZE SUB DUP2 ADD SWAP1 PUSH2 0x297 SWAP2 SWAP1 PUSH2 0x2D18 JUMP JUMPDEST PUSH2 0x1F09 JUMP JUMPDEST STOP JUMPDEST PUSH2 0x2A6 PUSH2 0x2008 JUMP JUMPDEST PUSH1 0x40 MLOAD PUSH2 0x2B6 SWAP5 SWAP4 SWAP3 SWAP2 SWAP1 PUSH2 0x3593 JUMP JUMPDEST PUSH1 0x40 MLOAD DUP1 SWAP2 SUB SWAP1 RETURN JUMPDEST PUSH2 0x2D9 PUSH1 0x4 DUP1 CALLDATASIZE SUB DUP2 ADD SWAP1 PUSH2 0x2D4 SWAP2 SWAP1 PUSH2 0x2FC8 JUMP JUMPDEST PUSH2 0x2656 JUMP JUMPDEST STOP JUMPDEST PUSH1 0x60 DUP1 PUSH1 0x60 DUP1 PUSH1 0x60 PUSH1 0x3 PUSH1 0x2 PUSH1 0x0 CALLER PUSH20 0xFFFFFFFFFFFFFFFFFFFFFFFFFFFFFFFFFFFFFFFF AND PUSH20 0xFFFFFFFFFFFFFFFFFFFFFFFFFFFFFFFFFFFFFFFF AND DUP2 MSTORE PUSH1 0x20 ADD SWAP1 DUP2 MSTORE PUSH1 0x20 ADD PUSH1 0x0 KECCAK256 PUSH1 0x0 ADD SLOAD DUP2 PUSH1 0x5 DUP2 GT ISZERO PUSH2 0x33B JUMPI PUSH2 0x33A PUSH2 0x39E6 JUMP JUMPDEST JUMPDEST EQ PUSH2 0x37B JUMPI PUSH1 0x40 MLOAD PUSH32 0x8C379A000000000000000000000000000000000000000000000000000000000 DUP2 MSTORE PUSH1 0x4 ADD PUSH2 0x372 SWAP1 PUSH2 0x3704 JUMP JUMPDEST PUSH1 0x40 MLOAD DUP1 SWAP2 SUB SWAP1 REVERT JUMPDEST PUSH1 0x0 PUSH1 0x2 PUSH1 0x0 DUP10 PUSH20 0xFFFFFFFFFFFFFFFFFFFFFFFFFFFFFFFFFFFFFFFF AND PUSH20 0xFFFFFFFFFFFFFFFFFFFFFFFFFFFFFFFFFFFFFFFF AND DUP2 MSTORE PUSH1 0x20 ADD SWAP1 DUP2 MSTORE PUSH1 0x20 ADD PUSH1 0x0 KECCAK256 PUSH1 0x40 MLOAD DUP1 PUSH1 0x80 ADD PUSH1 0x40 MSTORE SWAP1 DUP2 PUSH1 0x0 DUP3 ADD SLOAD DUP2 MSTORE PUSH1 0x20 ADD PUSH1 0x1 DUP3 ADD DUP1 SLOAD PUSH2 0x3E1 SWAP1 PUSH2 0x3983 JUMP JUMPDEST DUP1 PUSH1 0x1F ADD PUSH1 0x20 DUP1 SWAP2 DIV MUL PUSH1 0x20 ADD PUSH1 0x40 MLOAD SWAP1 DUP2 ADD PUSH1 0x40 MSTORE DUP1 SWAP3 SWAP2 SWAP1 DUP2 DUP2 MSTORE PUSH1 0x20 ADD DUP3 DUP1 SLOAD PUSH2 0x40D SWAP1 PUSH2 0x3983 JUMP JUMPDEST DUP1 ISZERO PUSH2 0x45A JUMPI DUP1 PUSH1 0x1F LT PUSH2 0x42F JUMPI PUSH2 0x100 DUP1 DUP4 SLOAD DIV MUL DUP4 MSTORE SWAP2 PUSH1 0x20 ADD SWAP2 PUSH2 0x45A JUMP JUMPDEST DUP3 ADD SWAP2 SWAP1 PUSH1 0x0 MSTORE PUSH1 0x20 PUSH1 0x0 KECCAK256 SWAP1 JUMPDEST DUP2 SLOAD DUP2 MSTORE SWAP1 PUSH1 0x1 ADD SWAP1 PUSH1 0x20 ADD DUP1 DUP4 GT PUSH2 0x43D JUMPI DUP3 SWAP1 SUB PUSH1 0x1F AND DUP3 ADD SWAP2 JUMPDEST POP POP POP POP POP DUP2 MSTORE PUSH1 0x20 ADD PUSH1 0x2 DUP3 ADD DUP1 SLOAD PUSH2 0x473 SWAP1 PUSH2 0x3983 JUMP JUMPDEST DUP1 PUSH1 0x1F ADD PUSH1 0x20 DUP1 SWAP2 DIV MUL PUSH1 0x20 ADD PUSH1 0x40 MLOAD SWAP1 DUP2 ADD PUSH1 0x40 MSTORE DUP1 SWAP3 SWAP2 SWAP1 DUP2 DUP2 MSTORE PUSH1 0x20 ADD DUP3 DUP1 SLOAD PUSH2 0x49F SWAP1 PUSH2 0x3983 JUMP JUMPDEST DUP1 ISZERO PUSH2 0x4EC JUMPI DUP1 PUSH1 0x1F LT PUSH2 0x4C1 JUMPI PUSH2 0x100 DUP1 DUP4 SLOAD DIV MUL DUP4 MSTORE SWAP2 PUSH1 0x20 ADD SWAP2 PUSH2 0x4EC JUMP JUMPDEST DUP3 ADD SWAP2 SWAP1 PUSH1 0x0 MSTORE PUSH1 0x20 PUSH1 0x0 KECCAK256 SWAP1 JUMPDEST DUP2 SLOAD DUP2 MSTORE SWAP1 PUSH1 0x1 ADD SWAP1 PUSH1 0x20 ADD DUP1 DUP4 GT PUSH2 0x4CF JUMPI DUP3 SWAP1 SUB PUSH1 0x1F AND DUP3 ADD SWAP2 JUMPDEST POP POP POP POP POP DUP2 MSTORE PUSH1 0x20 ADD PUSH1 0x3 DUP3 ADD DUP1 SLOAD DUP1 PUSH1 0x20 MUL PUSH1 0x20 ADD PUSH1 0x40 MLOAD SWAP1 DUP2 ADD PUSH1 0x40 MSTORE DUP1 SWAP3 SWAP2 SWAP1 DUP2 DUP2 MSTORE PUSH1 0x20 ADD PUSH1 0x0 SWAP1 JUMPDEST DUP3 DUP3 LT ISZERO PUSH2 0x5C6 JUMPI DUP4 DUP3 SWAP1 PUSH1 0x0 MSTORE PUSH1 0x20 PUSH1 0x0 KECCAK256 ADD DUP1 SLOAD PUSH2 0x539 SWAP1 PUSH2 0x3983 JUMP JUMPDEST DUP1 PUSH1 0x1F ADD PUSH1 0x20 DUP1 SWAP2 DIV MUL PUSH1 0x20 ADD PUSH1 0x40 MLOAD SWAP1 DUP2 ADD PUSH1 0x40 MSTORE DUP1 SWAP3 SWAP2 SWAP1 DUP2 DUP2 MSTORE PUSH1 0x20 ADD DUP3 DUP1 SLOAD PUSH2 0x565 SWAP1 PUSH2 0x3983 JUMP JUMPDEST DUP1 ISZERO PUSH2 0x5B2 JUMPI DUP1 PUSH1 0x1F LT PUSH2 0x587 JUMPI PUSH2 0x100 DUP1 DUP4 SLOAD DIV MUL DUP4 MSTORE SWAP2 PUSH1 0x20 ADD SWAP2 PUSH2 0x5B2 JUMP JUMPDEST DUP3 ADD SWAP2 SWAP1 PUSH1 0x0 MSTORE PUSH1 0x20 PUSH1 0x0 KECCAK256 SWAP1 JUMPDEST DUP2 SLOAD DUP2 MSTORE SWAP1 PUSH1 0x1 ADD SWAP1 PUSH1 0x20 ADD DUP1 DUP4 GT PUSH2 0x595 JUMPI DUP3 SWAP1 SUB PUSH1 0x1F AND DUP3 ADD SWAP2 JUMPDEST POP POP POP POP POP DUP2 MSTORE PUSH1 0x20 ADD SWAP1 PUSH1 0x1 ADD SWAP1 PUSH2 0x51A JUMP JUMPDEST POP POP POP POP DUP2 MSTORE POP POP SWAP1 POP PUSH1 0x0 PUSH1 0xB PUSH1 0x0 DUP11 PUSH20 0xFFFFFFFFFFFFFFFFFFFFFFFFFFFFFFFFFFFFFFFF AND PUSH20 0xFFFFFFFFFFFFFFFFFFFFFFFFFFFFFFFFFFFFFFFF AND DUP2 MSTORE PUSH1 0x20 ADD SWAP1 DUP2 MSTORE PUSH1 0x20 ADD PUSH1 0x0 KECCAK256 PUSH1 0x0 SWAP1 SLOAD SWAP1 PUSH2 0x100 EXP SWAP1 DIV PUSH20 0xFFFFFFFFFFFFFFFFFFFFFFFFFFFFFFFFFFFFFFFF AND SWAP1 POP PUSH1 0x0 PUSH1 0xA PUSH1 0x0 DUP4 PUSH20 0xFFFFFFFFFFFFFFFFFFFFFFFFFFFFFFFFFFFFFFFF AND PUSH20 0xFFFFFFFFFFFFFFFFFFFFFFFFFFFFFFFFFFFFFFFF AND DUP2 MSTORE PUSH1 0x20 ADD SWAP1 DUP2 MSTORE PUSH1 0x20 ADD PUSH1 0x0 KECCAK256 PUSH1 0x40 MLOAD DUP1 PUSH1 0x60 ADD PUSH1 0x40 MSTORE SWAP1 DUP2 PUSH1 0x0 DUP3 ADD DUP1 SLOAD PUSH2 0x690 SWAP1 PUSH2 0x3983 JUMP JUMPDEST DUP1 PUSH1 0x1F ADD PUSH1 0x20 DUP1 SWAP2 DIV MUL PUSH1 0x20 ADD PUSH1 0x40 MLOAD SWAP1 DUP2 ADD PUSH1 0x40 MSTORE DUP1 SWAP3 SWAP2 SWAP1 DUP2 DUP2 MSTORE PUSH1 0x20 ADD DUP3 DUP1 SLOAD PUSH2 0x6BC SWAP1 PUSH2 0x3983 JUMP JUMPDEST DUP1 ISZERO PUSH2 0x709 JUMPI DUP1 PUSH1 0x1F LT PUSH2 0x6DE JUMPI PUSH2 0x100 DUP1 DUP4 SLOAD DIV MUL DUP4 MSTORE SWAP2 PUSH1 0x20 ADD SWAP2 PUSH2 0x709 JUMP JUMPDEST DUP3 ADD SWAP2 SWAP1 PUSH1 0x0 MSTORE PUSH1 0x20 PUSH1 0x0 KECCAK256 SWAP1 JUMPDEST DUP2 SLOAD DUP2 MSTORE SWAP1 PUSH1 0x1 ADD SWAP1 PUSH1 0x20 ADD DUP1 DUP4 GT PUSH2 0x6EC JUMPI DUP3 SWAP1 SUB PUSH1 0x1F AND DUP3 ADD SWAP2 JUMPDEST POP POP POP POP POP DUP2 MSTORE PUSH1 0x20 ADD PUSH1 0x1 DUP3 ADD DUP1 SLOAD PUSH2 0x722 SWAP1 PUSH2 0x3983 JUMP JUMPDEST DUP1 PUSH1 0x1F ADD PUSH1 0x20 DUP1 SWAP2 DIV MUL PUSH1 0x20 ADD PUSH1 0x40 MLOAD SWAP1 DUP2 ADD PUSH1 0x40 MSTORE DUP1 SWAP3 SWAP2 SWAP1 DUP2 DUP2 MSTORE PUSH1 0x20 ADD DUP3 DUP1 SLOAD PUSH2 0x74E SWAP1 PUSH2 0x3983 JUMP JUMPDEST DUP1 ISZERO PUSH2 0x79B JUMPI DUP1 PUSH1 0x1F LT PUSH2 0x770 JUMPI PUSH2 0x100 DUP1 DUP4 SLOAD DIV MUL DUP4 MSTORE SWAP2 PUSH1 0x20 ADD SWAP2 PUSH2 0x79B JUMP JUMPDEST DUP3 ADD SWAP2 SWAP1 PUSH1 0x0 MSTORE PUSH1 0x20 PUSH1 0x0 KECCAK256 SWAP1 JUMPDEST DUP2 SLOAD DUP2 MSTORE SWAP1 PUSH1 0x1 ADD SWAP1 PUSH1 0x20 ADD DUP1 DUP4 GT PUSH2 0x77E JUMPI DUP3 SWAP1 SUB PUSH1 0x1F AND DUP3 ADD SWAP2 JUMPDEST POP POP POP POP POP DUP2 MSTORE PUSH1 0x20 ADD PUSH1 0x2 DUP3 ADD SLOAD DUP2 MSTORE POP POP SWAP1 POP DUP3 PUSH1 0x20 ADD MLOAD SWAP9 POP DUP3 PUSH1 0x40 ADD MLOAD SWAP8 POP DUP1 PUSH1 0x20 ADD MLOAD SWAP7 POP DUP1 PUSH1 0x0 ADD MLOAD SWAP6 POP DUP3 PUSH1 0x60 ADD MLOAD SWAP5 POP POP POP POP POP SWAP2 SWAP4 SWAP6 SWAP1 SWAP3 SWAP5 POP JUMP JUMPDEST PUSH1 0x4 PUSH1 0x0 SWAP1 SLOAD SWAP1 PUSH2 0x100 EXP SWAP1 DIV PUSH20 0xFFFFFFFFFFFFFFFFFFFFFFFFFFFFFFFFFFFFFFFF AND PUSH20 0xFFFFFFFFFFFFFFFFFFFFFFFFFFFFFFFFFFFFFFFF AND CALLER PUSH20 0xFFFFFFFFFFFFFFFFFFFFFFFFFFFFFFFFFFFFFFFF AND EQ PUSH2 0x870 JUMPI PUSH1 0x40 MLOAD PUSH32 0x8C379A000000000000000000000000000000000000000000000000000000000 DUP2 MSTORE PUSH1 0x4 ADD PUSH2 0x867 SWAP1 PUSH2 0x3744 JUMP JUMPDEST PUSH1 0x40 MLOAD DUP1 SWAP2 SUB SWAP1 REVERT JUMPDEST PUSH1 0x0 PUSH1 0x5 DUP1 DUP2 GT ISZERO PUSH2 0x885 JUMPI PUSH2 0x884 PUSH2 0x39E6 JUMP JUMPDEST JUMPDEST SWAP1 POP PUSH2 0x8A2 PUSH1 0x40 MLOAD DUP1 PUSH1 0x20 ADD PUSH1 0x40 MSTORE DUP1 PUSH1 0x0 DUP2 MSTORE POP DUP5 DUP4 DUP6 PUSH2 0x274B JUMP JUMPDEST POP POP POP JUMP JUMPDEST PUSH2 0x98A PUSH1 0x2 PUSH1 0x0 CALLER PUSH20 0xFFFFFFFFFFFFFFFFFFFFFFFFFFFFFFFFFFFFFFFF AND PUSH20 0xFFFFFFFFFFFFFFFFFFFFFFFFFFFFFFFFFFFFFFFF AND DUP2 MSTORE PUSH1 0x20 ADD SWAP1 DUP2 MSTORE PUSH1 0x20 ADD PUSH1 0x0 KECCAK256 PUSH1 0x1 ADD DUP1 SLOAD PUSH2 0x8F7 SWAP1 PUSH2 0x3983 JUMP JUMPDEST DUP1 PUSH1 0x1F ADD PUSH1 0x20 DUP1 SWAP2 DIV MUL PUSH1 0x20 ADD PUSH1 0x40 MLOAD SWAP1 DUP2 ADD PUSH1 0x40 MSTORE DUP1 SWAP3 SWAP2 SWAP1 DUP2 DUP2 MSTORE PUSH1 0x20 ADD DUP3 DUP1 SLOAD PUSH2 0x923 SWAP1 PUSH2 0x3983 JUMP JUMPDEST DUP1 ISZERO PUSH2 0x970 JUMPI DUP1 PUSH1 0x1F LT PUSH2 0x945 JUMPI PUSH2 0x100 DUP1 DUP4 SLOAD DIV MUL DUP4 MSTORE SWAP2 PUSH1 0x20 ADD SWAP2 PUSH2 0x970 JUMP JUMPDEST DUP3 ADD SWAP2 SWAP1 PUSH1 0x0 MSTORE PUSH1 0x20 PUSH1 0x0 KECCAK256 SWAP1 JUMPDEST DUP2 SLOAD DUP2 MSTORE SWAP1 PUSH1 0x1 ADD SWAP1 PUSH1 0x20 ADD DUP1 DUP4 GT PUSH2 0x953 JUMPI DUP3 SWAP1 SUB PUSH1 0x1F AND DUP3 ADD SWAP2 JUMPDEST POP POP POP POP POP PUSH1 0x40 MLOAD DUP1 PUSH1 0x20 ADD PUSH1 0x40 MSTORE DUP1 PUSH1 0x0 DUP2 MSTORE POP PUSH2 0x2A4F JUMP JUMPDEST ISZERO PUSH2 0x9CA JUMPI PUSH1 0x40 MLOAD PUSH32 0x8C379A000000000000000000000000000000000000000000000000000000000 DUP2 MSTORE PUSH1 0x4 ADD PUSH2 0x9C1 SWAP1 PUSH2 0x3724 JUMP JUMPDEST PUSH1 0x40 MLOAD DUP1 SWAP2 SUB SWAP1 REVERT JUMPDEST PUSH1 0x0 PUSH1 0x40 MLOAD DUP1 PUSH1 0xC0 ADD PUSH1 0x40 MSTORE DUP1 CALLER PUSH20 0xFFFFFFFFFFFFFFFFFFFFFFFFFFFFFFFFFFFFFFFF AND DUP2 MSTORE PUSH1 0x20 ADD DUP9 PUSH20 0xFFFFFFFFFFFFFFFFFFFFFFFFFFFFFFFFFFFFFFFF AND DUP2 MSTORE PUSH1 0x20 ADD DUP8 DUP2 MSTORE PUSH1 0x20 ADD PUSH1 0x0 DUP2 MSTORE PUSH1 0x20 ADD PUSH1 0x0 DUP2 MSTORE PUSH1 0x20 ADD DUP4 DUP2 MSTORE POP SWAP1 POP PUSH1 0x0 PUSH1 0xD PUSH1 0x0 DUP10 PUSH20 0xFFFFFFFFFFFFFFFFFFFFFFFFFFFFFFFFFFFFFFFF AND PUSH20 0xFFFFFFFFFFFFFFFFFFFFFFFFFFFFFFFFFFFFFFFF AND DUP2 MSTORE PUSH1 0x20 ADD SWAP1 DUP2 MSTORE PUSH1 0x20 ADD PUSH1 0x0 KECCAK256 DUP1 SLOAD DUP1 PUSH1 0x20 MUL PUSH1 0x20 ADD PUSH1 0x40 MLOAD SWAP1 DUP2 ADD PUSH1 0x40 MSTORE DUP1 SWAP3 SWAP2 SWAP1 DUP2 DUP2 MSTORE PUSH1 0x20 ADD PUSH1 0x0 SWAP1 JUMPDEST DUP3 DUP3 LT ISZERO PUSH2 0xB36 JUMPI DUP4 DUP3 SWAP1 PUSH1 0x0 MSTORE PUSH1 0x20 PUSH1 0x0 KECCAK256 ADD DUP1 SLOAD PUSH2 0xAA9 SWAP1 PUSH2 0x3983 JUMP JUMPDEST DUP1 PUSH1 0x1F ADD PUSH1 0x20 DUP1 SWAP2 DIV MUL PUSH1 0x20 ADD PUSH1 0x40 MLOAD SWAP1 DUP2 ADD PUSH1 0x40 MSTORE DUP1 SWAP3 SWAP2 SWAP1 DUP2 DUP2 MSTORE PUSH1 0x20 ADD DUP3 DUP1 SLOAD PUSH2 0xAD5 SWAP1 PUSH2 0x3983 JUMP JUMPDEST DUP1 ISZERO PUSH2 0xB22 JUMPI DUP1 PUSH1 0x1F LT PUSH2 0xAF7 JUMPI PUSH2 0x100 DUP1 DUP4 SLOAD DIV MUL DUP4 MSTORE SWAP2 PUSH1 0x20 ADD SWAP2 PUSH2 0xB22 JUMP JUMPDEST DUP3 ADD SWAP2 SWAP1 PUSH1 0x0 MSTORE PUSH1 0x20 PUSH1 0x0 KECCAK256 SWAP1 JUMPDEST DUP2 SLOAD DUP2 MSTORE SWAP1 PUSH1 0x1 ADD SWAP1 PUSH1 0x20 ADD DUP1 DUP4 GT PUSH2 0xB05 JUMPI DUP3 SWAP1 SUB PUSH1 0x1F AND DUP3 ADD SWAP2 JUMPDEST POP POP POP POP POP DUP2 MSTORE PUSH1 0x20 ADD SWAP1 PUSH1 0x1 ADD SWAP1 PUSH2 0xA8A JUMP JUMPDEST POP POP POP POP SWAP1 POP PUSH1 0xD PUSH1 0x0 DUP10 PUSH20 0xFFFFFFFFFFFFFFFFFFFFFFFFFFFFFFFFFFFFFFFF AND PUSH20 0xFFFFFFFFFFFFFFFFFFFFFFFFFFFFFFFFFFFFFFFF AND DUP2 MSTORE PUSH1 0x20 ADD SWAP1 DUP2 MSTORE PUSH1 0x20 ADD PUSH1 0x0 KECCAK256 DUP7 SWAP1 DUP1 PUSH1 0x1 DUP2 SLOAD ADD DUP1 DUP3 SSTORE DUP1 SWAP2 POP POP PUSH1 0x1 SWAP1 SUB SWAP1 PUSH1 0x0 MSTORE PUSH1 0x20 PUSH1 0x0 KECCAK256 ADD PUSH1 0x0 SWAP1 SWAP2 SWAP1 SWAP2 SWAP1 SWAP2 POP SWAP1 DUP1 MLOAD SWAP1 PUSH1 0x20 ADD SWAP1 PUSH2 0xBB4 SWAP3 SWAP2 SWAP1 PUSH2 0x2AA8 JUMP JUMPDEST POP DUP2 PUSH1 0xE DUP8 PUSH1 0x40 MLOAD PUSH2 0xBC6 SWAP2 SWAP1 PUSH2 0x354C JUMP JUMPDEST SWAP1 DUP2 MSTORE PUSH1 0x20 ADD PUSH1 0x40 MLOAD DUP1 SWAP2 SUB SWAP1 KECCAK256 PUSH1 0x0 DUP3 ADD MLOAD DUP2 PUSH1 0x0 ADD PUSH1 0x0 PUSH2 0x100 EXP DUP2 SLOAD DUP2 PUSH20 0xFFFFFFFFFFFFFFFFFFFFFFFFFFFFFFFFFFFFFFFF MUL NOT AND SWAP1 DUP4 PUSH20 0xFFFFFFFFFFFFFFFFFFFFFFFFFFFFFFFFFFFFFFFF AND MUL OR SWAP1 SSTORE POP PUSH1 0x20 DUP3 ADD MLOAD DUP2 PUSH1 0x1 ADD PUSH1 0x0 PUSH2 0x100 EXP DUP2 SLOAD DUP2 PUSH20 0xFFFFFFFFFFFFFFFFFFFFFFFFFFFFFFFFFFFFFFFF MUL NOT AND SWAP1 DUP4 PUSH20 0xFFFFFFFFFFFFFFFFFFFFFFFFFFFFFFFFFFFFFFFF AND MUL OR SWAP1 SSTORE POP PUSH1 0x40 DUP3 ADD MLOAD DUP2 PUSH1 0x2 ADD SWAP1 DUP1 MLOAD SWAP1 PUSH1 0x20 ADD SWAP1 PUSH2 0xC7E SWAP3 SWAP2 SWAP1 PUSH2 0x2AA8 JUMP JUMPDEST POP PUSH1 0x60 DUP3 ADD MLOAD DUP2 PUSH1 0x3 ADD SSTORE PUSH1 0x80 DUP3 ADD MLOAD DUP2 PUSH1 0x4 ADD SSTORE PUSH1 0xA0 DUP3 ADD MLOAD DUP2 PUSH1 0x5 ADD SSTORE SWAP1 POP POP POP POP POP POP POP POP POP POP JUMP JUMPDEST PUSH1 0x0 PUSH1 0x60 DUP3 PUSH1 0x0 PUSH20 0xFFFFFFFFFFFFFFFFFFFFFFFFFFFFFFFFFFFFFFFF AND PUSH1 0x1 DUP3 PUSH1 0x40 MLOAD PUSH2 0xCD7 SWAP2 SWAP1 PUSH2 0x354C JUMP JUMPDEST SWAP1 DUP2 MSTORE PUSH1 0x20 ADD PUSH1 0x40 MLOAD DUP1 SWAP2 SUB SWAP1 KECCAK256 PUSH1 0x0 SWAP1 SLOAD SWAP1 PUSH2 0x100 EXP SWAP1 DIV PUSH20 0xFFFFFFFFFFFFFFFFFFFFFFFFFFFFFFFFFFFFFFFF AND PUSH20 0xFFFFFFFFFFFFFFFFFFFFFFFFFFFFFFFFFFFFFFFF AND EQ ISZERO PUSH2 0xD5D JUMPI PUSH1 0x40 MLOAD PUSH32 0x8C379A000000000000000000000000000000000000000000000000000000000 DUP2 MSTORE PUSH1 0x4 ADD PUSH2 0xD54 SWAP1 PUSH2 0x3784 JUMP JUMPDEST PUSH1 0x40 MLOAD DUP1 SWAP2 SUB SWAP1 REVERT JUMPDEST PUSH1 0x0 PUSH1 0x1 DUP6 PUSH1 0x40 MLOAD PUSH2 0xD6F SWAP2 SWAP1 PUSH2 0x354C JUMP JUMPDEST SWAP1 DUP2 MSTORE PUSH1 0x20 ADD PUSH1 0x40 MLOAD DUP1 SWAP2 SUB SWAP1 KECCAK256 PUSH1 0x0 SWAP1 SLOAD SWAP1 PUSH2 0x100 EXP SWAP1 DIV PUSH20 0xFFFFFFFFFFFFFFFFFFFFFFFFFFFFFFFFFFFFFFFF AND SWAP1 POP PUSH1 0x0 PUSH1 0x2 PUSH1 0x0 DUP4 PUSH20 0xFFFFFFFFFFFFFFFFFFFFFFFFFFFFFFFFFFFFFFFF AND PUSH20 0xFFFFFFFFFFFFFFFFFFFFFFFFFFFFFFFFFFFFFFFF AND DUP2 MSTORE PUSH1 0x20 ADD SWAP1 DUP2 MSTORE PUSH1 0x20 ADD PUSH1 0x0 KECCAK256 PUSH1 0x40 MLOAD DUP1 PUSH1 0x80 ADD PUSH1 0x40 MSTORE SWAP1 DUP2 PUSH1 0x0 DUP3 ADD SLOAD DUP2 MSTORE PUSH1 0x20 ADD PUSH1 0x1 DUP3 ADD DUP1 SLOAD PUSH2 0xE06 SWAP1 PUSH2 0x3983 JUMP JUMPDEST DUP1 PUSH1 0x1F ADD PUSH1 0x20 DUP1 SWAP2 DIV MUL PUSH1 0x20 ADD PUSH1 0x40 MLOAD SWAP1 DUP2 ADD PUSH1 0x40 MSTORE DUP1 SWAP3 SWAP2 SWAP1 DUP2 DUP2 MSTORE PUSH1 0x20 ADD DUP3 DUP1 SLOAD PUSH2 0xE32 SWAP1 PUSH2 0x3983 JUMP JUMPDEST DUP1 ISZERO PUSH2 0xE7F JUMPI DUP1 PUSH1 0x1F LT PUSH2 0xE54 JUMPI PUSH2 0x100 DUP1 DUP4 SLOAD DIV MUL DUP4 MSTORE SWAP2 PUSH1 0x20 ADD SWAP2 PUSH2 0xE7F JUMP JUMPDEST DUP3 ADD SWAP2 SWAP1 PUSH1 0x0 MSTORE PUSH1 0x20 PUSH1 0x0 KECCAK256 SWAP1 JUMPDEST DUP2 SLOAD DUP2 MSTORE SWAP1 PUSH1 0x1 ADD SWAP1 PUSH1 0x20 ADD DUP1 DUP4 GT PUSH2 0xE62 JUMPI DUP3 SWAP1 SUB PUSH1 0x1F AND DUP3 ADD SWAP2 JUMPDEST POP POP POP POP POP DUP2 MSTORE PUSH1 0x20 ADD PUSH1 0x2 DUP3 ADD DUP1 SLOAD PUSH2 0xE98 SWAP1 PUSH2 0x3983 JUMP JUMPDEST DUP1 PUSH1 0x1F ADD PUSH1 0x20 DUP1 SWAP2 DIV MUL PUSH1 0x20 ADD PUSH1 0x40 MLOAD SWAP1 DUP2 ADD PUSH1 0x40 MSTORE DUP1 SWAP3 SWAP2 SWAP1 DUP2 DUP2 MSTORE PUSH1 0x20 ADD DUP3 DUP1 SLOAD PUSH2 0xEC4 SWAP1 PUSH2 0x3983 JUMP JUMPDEST DUP1 ISZERO PUSH2 0xF11 JUMPI DUP1 PUSH1 0x1F LT PUSH2 0xEE6 JUMPI PUSH2 0x100 DUP1 DUP4 SLOAD DIV MUL DUP4 MSTORE SWAP2 PUSH1 0x20 ADD SWAP2 PUSH2 0xF11 JUMP JUMPDEST DUP3 ADD SWAP2 SWAP1 PUSH1 0x0 MSTORE PUSH1 0x20 PUSH1 0x0 KECCAK256 SWAP1 JUMPDEST DUP2 SLOAD DUP2 MSTORE SWAP1 PUSH1 0x1 ADD SWAP1 PUSH1 0x20 ADD DUP1 DUP4 GT PUSH2 0xEF4 JUMPI DUP3 SWAP1 SUB PUSH1 0x1F AND DUP3 ADD SWAP2 JUMPDEST POP POP POP POP POP DUP2 MSTORE PUSH1 0x20 ADD PUSH1 0x3 DUP3 ADD DUP1 SLOAD DUP1 PUSH1 0x20 MUL PUSH1 0x20 ADD PUSH1 0x40 MLOAD SWAP1 DUP2 ADD PUSH1 0x40 MSTORE DUP1 SWAP3 SWAP2 SWAP1 DUP2 DUP2 MSTORE PUSH1 0x20 ADD PUSH1 0x0 SWAP1 JUMPDEST DUP3 DUP3 LT ISZERO PUSH2 0xFEB JUMPI DUP4 DUP3 SWAP1 PUSH1 0x0 MSTORE PUSH1 0x20 PUSH1 0x0 KECCAK256 ADD DUP1 SLOAD PUSH2 0xF5E SWAP1 PUSH2 0x3983 JUMP JUMPDEST DUP1 PUSH1 0x1F ADD PUSH1 0x20 DUP1 SWAP2 DIV MUL PUSH1 0x20 ADD PUSH1 0x40 MLOAD SWAP1 DUP2 ADD PUSH1 0x40 MSTORE DUP1 SWAP3 SWAP2 SWAP1 DUP2 DUP2 MSTORE PUSH1 0x20 ADD DUP3 DUP1 SLOAD PUSH2 0xF8A SWAP1 PUSH2 0x3983 JUMP JUMPDEST DUP1 ISZERO PUSH2 0xFD7 JUMPI DUP1 PUSH1 0x1F LT PUSH2 0xFAC JUMPI PUSH2 0x100 DUP1 DUP4 SLOAD DIV MUL DUP4 MSTORE SWAP2 PUSH1 0x20 ADD SWAP2 PUSH2 0xFD7 JUMP JUMPDEST DUP3 ADD SWAP2 SWAP1 PUSH1 0x0 MSTORE PUSH1 0x20 PUSH1 0x0 KECCAK256 SWAP1 JUMPDEST DUP2 SLOAD DUP2 MSTORE SWAP1 PUSH1 0x1 ADD SWAP1 PUSH1 0x20 ADD DUP1 DUP4 GT PUSH2 0xFBA JUMPI DUP3 SWAP1 SUB PUSH1 0x1F AND DUP3 ADD SWAP2 JUMPDEST POP POP POP POP POP DUP2 MSTORE PUSH1 0x20 ADD SWAP1 PUSH1 0x1 ADD SWAP1 PUSH2 0xF3F JUMP JUMPDEST POP POP POP POP DUP2 MSTORE POP POP SWAP1 POP DUP2 SWAP5 POP PUSH1 0x0 DUP1 DUP3 PUSH1 0x0 ADD MLOAD DUP2 MSTORE PUSH1 0x20 ADD SWAP1 DUP2 MSTORE PUSH1 0x20 ADD PUSH1 0x0 KECCAK256 DUP1 SLOAD PUSH2 0x1019 SWAP1 PUSH2 0x3983 JUMP JUMPDEST DUP1 PUSH1 0x1F ADD PUSH1 0x20 DUP1 SWAP2 DIV MUL PUSH1 0x20 ADD PUSH1 0x40 MLOAD SWAP1 DUP2 ADD PUSH1 0x40 MSTORE DUP1 SWAP3 SWAP2 SWAP1 DUP2 DUP2 MSTORE PUSH1 0x20 ADD DUP3 DUP1 SLOAD PUSH2 0x1045 SWAP1 PUSH2 0x3983 JUMP JUMPDEST DUP1 ISZERO PUSH2 0x1092 JUMPI DUP1 PUSH1 0x1F LT PUSH2 0x1067 JUMPI PUSH2 0x100 DUP1 DUP4 SLOAD DIV MUL DUP4 MSTORE SWAP2 PUSH1 0x20 ADD SWAP2 PUSH2 0x1092 JUMP JUMPDEST DUP3 ADD SWAP2 SWAP1 PUSH1 0x0 MSTORE PUSH1 0x20 PUSH1 0x0 KECCAK256 SWAP1 JUMPDEST DUP2 SLOAD DUP2 MSTORE SWAP1 PUSH1 0x1 ADD SWAP1 PUSH1 0x20 ADD DUP1 DUP4 GT PUSH2 0x1075 JUMPI DUP3 SWAP1 SUB PUSH1 0x1F AND DUP3 ADD SWAP2 JUMPDEST POP POP POP POP POP SWAP4 POP POP POP POP SWAP2 POP SWAP2 JUMP JUMPDEST PUSH1 0x60 DUP1 PUSH1 0x60 DUP1 PUSH1 0x60 PUSH1 0x1 PUSH1 0x2 PUSH1 0x0 CALLER PUSH20 0xFFFFFFFFFFFFFFFFFFFFFFFFFFFFFFFFFFFFFFFF AND PUSH20 0xFFFFFFFFFFFFFFFFFFFFFFFFFFFFFFFFFFFFFFFF AND DUP2 MSTORE PUSH1 0x20 ADD SWAP1 DUP2 MSTORE PUSH1 0x20 ADD PUSH1 0x0 KECCAK256 PUSH1 0x0 ADD SLOAD DUP2 PUSH1 0x5 DUP2 GT ISZERO PUSH2 0x1101 JUMPI PUSH2 0x1100 PUSH2 0x39E6 JUMP JUMPDEST JUMPDEST EQ PUSH2 0x1141 JUMPI PUSH1 0x40 MLOAD PUSH32 0x8C379A000000000000000000000000000000000000000000000000000000000 DUP2 MSTORE PUSH1 0x4 ADD PUSH2 0x1138 SWAP1 PUSH2 0x3704 JUMP JUMPDEST PUSH1 0x40 MLOAD DUP1 SWAP2 SUB SWAP1 REVERT JUMPDEST PUSH1 0x0 PUSH1 0x2 PUSH1 0x0 CALLER PUSH20 0xFFFFFFFFFFFFFFFFFFFFFFFFFFFFFFFFFFFFFFFF AND PUSH20 0xFFFFFFFFFFFFFFFFFFFFFFFFFFFFFFFFFFFFFFFF AND DUP2 MSTORE PUSH1 0x20 ADD SWAP1 DUP2 MSTORE PUSH1 0x20 ADD PUSH1 0x0 KECCAK256 PUSH1 0x40 MLOAD DUP1 PUSH1 0x80 ADD PUSH1 0x40 MSTORE SWAP1 DUP2 PUSH1 0x0 DUP3 ADD SLOAD DUP2 MSTORE PUSH1 0x20 ADD PUSH1 0x1 DUP3 ADD DUP1 SLOAD PUSH2 0x11A7 SWAP1 PUSH2 0x3983 JUMP JUMPDEST DUP1 PUSH1 0x1F ADD PUSH1 0x20 DUP1 SWAP2 DIV MUL PUSH1 0x20 ADD PUSH1 0x40 MLOAD SWAP1 DUP2 ADD PUSH1 0x40 MSTORE DUP1 SWAP3 SWAP2 SWAP1 DUP2 DUP2 MSTORE PUSH1 0x20 ADD DUP3 DUP1 SLOAD PUSH2 0x11D3 SWAP1 PUSH2 0x3983 JUMP JUMPDEST DUP1 ISZERO PUSH2 0x1220 JUMPI DUP1 PUSH1 0x1F LT PUSH2 0x11F5 JUMPI PUSH2 0x100 DUP1 DUP4 SLOAD DIV MUL DUP4 MSTORE SWAP2 PUSH1 0x20 ADD SWAP2 PUSH2 0x1220 JUMP JUMPDEST DUP3 ADD SWAP2 SWAP1 PUSH1 0x0 MSTORE PUSH1 0x20 PUSH1 0x0 KECCAK256 SWAP1 JUMPDEST DUP2 SLOAD DUP2 MSTORE SWAP1 PUSH1 0x1 ADD SWAP1 PUSH1 0x20 ADD DUP1 DUP4 GT PUSH2 0x1203 JUMPI DUP3 SWAP1 SUB PUSH1 0x1F AND DUP3 ADD SWAP2 JUMPDEST POP POP POP POP POP DUP2 MSTORE PUSH1 0x20 ADD PUSH1 0x2 DUP3 ADD DUP1 SLOAD PUSH2 0x1239 SWAP1 PUSH2 0x3983 JUMP JUMPDEST DUP1 PUSH1 0x1F ADD PUSH1 0x20 DUP1 SWAP2 DIV MUL PUSH1 0x20 ADD PUSH1 0x40 MLOAD SWAP1 DUP2 ADD PUSH1 0x40 MSTORE DUP1 SWAP3 SWAP2 SWAP1 DUP2 DUP2 MSTORE PUSH1 0x20 ADD DUP3 DUP1 SLOAD PUSH2 0x1265 SWAP1 PUSH2 0x3983 JUMP JUMPDEST DUP1 ISZERO PUSH2 0x12B2 JUMPI DUP1 PUSH1 0x1F LT PUSH2 0x1287 JUMPI PUSH2 0x100 DUP1 DUP4 SLOAD DIV MUL DUP4 MSTORE SWAP2 PUSH1 0x20 ADD SWAP2 PUSH2 0x12B2 JUMP JUMPDEST DUP3 ADD SWAP2 SWAP1 PUSH1 0x0 MSTORE PUSH1 0x20 PUSH1 0x0 KECCAK256 SWAP1 JUMPDEST DUP2 SLOAD DUP2 MSTORE SWAP1 PUSH1 0x1 ADD SWAP1 PUSH1 0x20 ADD DUP1 DUP4 GT PUSH2 0x1295 JUMPI DUP3 SWAP1 SUB PUSH1 0x1F AND DUP3 ADD SWAP2 JUMPDEST POP POP POP POP POP DUP2 MSTORE PUSH1 0x20 ADD PUSH1 0x3 DUP3 ADD DUP1 SLOAD DUP1 PUSH1 0x20 MUL PUSH1 0x20 ADD PUSH1 0x40 MLOAD SWAP1 DUP2 ADD PUSH1 0x40 MSTORE DUP1 SWAP3 SWAP2 SWAP1 DUP2 DUP2 MSTORE PUSH1 0x20 ADD PUSH1 0x0 SWAP1 JUMPDEST DUP3 DUP3 LT ISZERO PUSH2 0x138C JUMPI DUP4 DUP3 SWAP1 PUSH1 0x0 MSTORE PUSH1 0x20 PUSH1 0x0 KECCAK256 ADD DUP1 SLOAD PUSH2 0x12FF SWAP1 PUSH2 0x3983 JUMP JUMPDEST DUP1 PUSH1 0x1F ADD PUSH1 0x20 DUP1 SWAP2 DIV MUL PUSH1 0x20 ADD PUSH1 0x40 MLOAD SWAP1 DUP2 ADD PUSH1 0x40 MSTORE DUP1 SWAP3 SWAP2 SWAP1 DUP2 DUP2 MSTORE PUSH1 0x20 ADD DUP3 DUP1 SLOAD PUSH2 0x132B SWAP1 PUSH2 0x3983 JUMP JUMPDEST DUP1 ISZERO PUSH2 0x1378 JUMPI DUP1 PUSH1 0x1F LT PUSH2 0x134D JUMPI PUSH2 0x100 DUP1 DUP4 SLOAD DIV MUL DUP4 MSTORE SWAP2 PUSH1 0x20 ADD SWAP2 PUSH2 0x1378 JUMP JUMPDEST DUP3 ADD SWAP2 SWAP1 PUSH1 0x0 MSTORE PUSH1 0x20 PUSH1 0x0 KECCAK256 SWAP1 JUMPDEST DUP2 SLOAD DUP2 MSTORE SWAP1 PUSH1 0x1 ADD SWAP1 PUSH1 0x20 ADD DUP1 DUP4 GT PUSH2 0x135B JUMPI DUP3 SWAP1 SUB PUSH1 0x1F AND DUP3 ADD SWAP2 JUMPDEST POP POP POP POP POP DUP2 MSTORE PUSH1 0x20 ADD SWAP1 PUSH1 0x1 ADD SWAP1 PUSH2 0x12E0 JUMP JUMPDEST POP POP POP POP DUP2 MSTORE POP POP SWAP1 POP PUSH1 0x0 PUSH1 0xB PUSH1 0x0 CALLER PUSH20 0xFFFFFFFFFFFFFFFFFFFFFFFFFFFFFFFFFFFFFFFF AND PUSH20 0xFFFFFFFFFFFFFFFFFFFFFFFFFFFFFFFFFFFFFFFF AND DUP2 MSTORE PUSH1 0x20 ADD SWAP1 DUP2 MSTORE PUSH1 0x20 ADD PUSH1 0x0 KECCAK256 PUSH1 0x0 SWAP1 SLOAD SWAP1 PUSH2 0x100 EXP SWAP1 DIV PUSH20 0xFFFFFFFFFFFFFFFFFFFFFFFFFFFFFFFFFFFFFFFF AND SWAP1 POP PUSH1 0x0 PUSH1 0xA PUSH1 0x0 DUP4 PUSH20 0xFFFFFFFFFFFFFFFFFFFFFFFFFFFFFFFFFFFFFFFF AND PUSH20 0xFFFFFFFFFFFFFFFFFFFFFFFFFFFFFFFFFFFFFFFF AND DUP2 MSTORE PUSH1 0x20 ADD SWAP1 DUP2 MSTORE PUSH1 0x20 ADD PUSH1 0x0 KECCAK256 PUSH1 0x40 MLOAD DUP1 PUSH1 0x60 ADD PUSH1 0x40 MSTORE SWAP1 DUP2 PUSH1 0x0 DUP3 ADD DUP1 SLOAD PUSH2 0x1456 SWAP1 PUSH2 0x3983 JUMP JUMPDEST DUP1 PUSH1 0x1F ADD PUSH1 0x20 DUP1 SWAP2 DIV MUL PUSH1 0x20 ADD PUSH1 0x40 MLOAD SWAP1 DUP2 ADD PUSH1 0x40 MSTORE DUP1 SWAP3 SWAP2 SWAP1 DUP2 DUP2 MSTORE PUSH1 0x20 ADD DUP3 DUP1 SLOAD PUSH2 0x1482 SWAP1 PUSH2 0x3983 JUMP JUMPDEST DUP1 ISZERO PUSH2 0x14CF JUMPI DUP1 PUSH1 0x1F LT PUSH2 0x14A4 JUMPI PUSH2 0x100 DUP1 DUP4 SLOAD DIV MUL DUP4 MSTORE SWAP2 PUSH1 0x20 ADD SWAP2 PUSH2 0x14CF JUMP JUMPDEST DUP3 ADD SWAP2 SWAP1 PUSH1 0x0 MSTORE PUSH1 0x20 PUSH1 0x0 KECCAK256 SWAP1 JUMPDEST DUP2 SLOAD DUP2 MSTORE SWAP1 PUSH1 0x1 ADD SWAP1 PUSH1 0x20 ADD DUP1 DUP4 GT PUSH2 0x14B2 JUMPI DUP3 SWAP1 SUB PUSH1 0x1F AND DUP3 ADD SWAP2 JUMPDEST POP POP POP POP POP DUP2 MSTORE PUSH1 0x20 ADD PUSH1 0x1 DUP3 ADD DUP1 SLOAD PUSH2 0x14E8 SWAP1 PUSH2 0x3983 JUMP JUMPDEST DUP1 PUSH1 0x1F ADD PUSH1 0x20 DUP1 SWAP2 DIV MUL PUSH1 0x20 ADD PUSH1 0x40 MLOAD SWAP1 DUP2 ADD PUSH1 0x40 MSTORE DUP1 SWAP3 SWAP2 SWAP1 DUP2 DUP2 MSTORE PUSH1 0x20 ADD DUP3 DUP1 SLOAD PUSH2 0x1514 SWAP1 PUSH2 0x3983 JUMP JUMPDEST DUP1 ISZERO PUSH2 0x1561 JUMPI DUP1 PUSH1 0x1F LT PUSH2 0x1536 JUMPI PUSH2 0x100 DUP1 DUP4 SLOAD DIV MUL DUP4 MSTORE SWAP2 PUSH1 0x20 ADD SWAP2 PUSH2 0x1561 JUMP JUMPDEST DUP3 ADD SWAP2 SWAP1 PUSH1 0x0 MSTORE PUSH1 0x20 PUSH1 0x0 KECCAK256 SWAP1 JUMPDEST DUP2 SLOAD DUP2 MSTORE SWAP1 PUSH1 0x1 ADD SWAP1 PUSH1 0x20 ADD DUP1 DUP4 GT PUSH2 0x1544 JUMPI DUP3 SWAP1 SUB PUSH1 0x1F AND DUP3 ADD SWAP2 JUMPDEST POP POP POP POP POP DUP2 MSTORE PUSH1 0x20 ADD PUSH1 0x2 DUP3 ADD SLOAD DUP2 MSTORE POP POP SWAP1 POP DUP3 PUSH1 0x20 ADD MLOAD SWAP9 POP DUP3 PUSH1 0x40 ADD MLOAD SWAP8 POP DUP1 PUSH1 0x20 ADD MLOAD SWAP7 POP DUP1 PUSH1 0x0 ADD MLOAD SWAP6 POP DUP3 PUSH1 0x60 ADD MLOAD SWAP5 POP POP POP POP POP SWAP1 SWAP2 SWAP3 SWAP4 SWAP5 JUMP JUMPDEST PUSH1 0x3 PUSH1 0x2 PUSH1 0x0 CALLER PUSH20 0xFFFFFFFFFFFFFFFFFFFFFFFFFFFFFFFFFFFFFFFF AND PUSH20 0xFFFFFFFFFFFFFFFFFFFFFFFFFFFFFFFFFFFFFFFF AND DUP2 MSTORE PUSH1 0x20 ADD SWAP1 DUP2 MSTORE PUSH1 0x20 ADD PUSH1 0x0 KECCAK256 PUSH1 0x0 ADD SLOAD DUP2 PUSH1 0x5 DUP2 GT ISZERO PUSH2 0x15FC JUMPI PUSH2 0x15FB PUSH2 0x39E6 JUMP JUMPDEST JUMPDEST EQ PUSH2 0x163C JUMPI PUSH1 0x40 MLOAD PUSH32 0x8C379A000000000000000000000000000000000000000000000000000000000 DUP2 MSTORE PUSH1 0x4 ADD PUSH2 0x1633 SWAP1 PUSH2 0x3704 JUMP JUMPDEST PUSH1 0x40 MLOAD DUP1 SWAP2 SUB SWAP1 REVERT JUMPDEST PUSH1 0x0 PUSH1 0x40 MLOAD DUP1 PUSH1 0x60 ADD PUSH1 0x40 MSTORE DUP1 DUP7 DUP2 MSTORE PUSH1 0x20 ADD DUP6 DUP2 MSTORE PUSH1 0x20 ADD PUSH1 0x0 DUP2 MSTORE POP SWAP1 POP DUP1 PUSH1 0xA PUSH1 0x0 DUP9 PUSH20 0xFFFFFFFFFFFFFFFFFFFFFFFFFFFFFFFFFFFFFFFF AND PUSH20 0xFFFFFFFFFFFFFFFFFFFFFFFFFFFFFFFFFFFFFFFF AND DUP2 MSTORE PUSH1 0x20 ADD SWAP1 DUP2 MSTORE PUSH1 0x20 ADD PUSH1 0x0 KECCAK256 PUSH1 0x0 DUP3 ADD MLOAD DUP2 PUSH1 0x0 ADD SWAP1 DUP1 MLOAD SWAP1 PUSH1 0x20 ADD SWAP1 PUSH2 0x16B8 SWAP3 SWAP2 SWAP1 PUSH2 0x2AA8 JUMP JUMPDEST POP PUSH1 0x20 DUP3 ADD MLOAD DUP2 PUSH1 0x1 ADD SWAP1 DUP1 MLOAD SWAP1 PUSH1 0x20 ADD SWAP1 PUSH2 0x16D5 SWAP3 SWAP2 SWAP1 PUSH2 0x2AA8 JUMP JUMPDEST POP PUSH1 0x40 DUP3 ADD MLOAD DUP2 PUSH1 0x2 ADD SSTORE SWAP1 POP POP PUSH1 0x0 PUSH1 0x2 PUSH1 0x5 DUP2 GT ISZERO PUSH2 0x16F9 JUMPI PUSH2 0x16F8 PUSH2 0x39E6 JUMP JUMPDEST JUMPDEST SWAP1 POP PUSH2 0x1716 PUSH1 0x40 MLOAD DUP1 PUSH1 0x20 ADD PUSH1 0x40 MSTORE DUP1 PUSH1 0x0 DUP2 MSTORE POP DUP6 DUP4 DUP11 PUSH2 0x274B JUMP JUMPDEST POP POP POP POP POP POP POP JUMP JUMPDEST PUSH2 0x1802 PUSH1 0x2 PUSH1 0x0 CALLER PUSH20 0xFFFFFFFFFFFFFFFFFFFFFFFFFFFFFFFFFFFFFFFF AND PUSH20 0xFFFFFFFFFFFFFFFFFFFFFFFFFFFFFFFFFFFFFFFF AND DUP2 MSTORE PUSH1 0x20 ADD SWAP1 DUP2 MSTORE PUSH1 0x20 ADD PUSH1 0x0 KECCAK256 PUSH1 0x1 ADD DUP1 SLOAD PUSH2 0x176F SWAP1 PUSH2 0x3983 JUMP JUMPDEST DUP1 PUSH1 0x1F ADD PUSH1 0x20 DUP1 SWAP2 DIV MUL PUSH1 0x20 ADD PUSH1 0x40 MLOAD SWAP1 DUP2 ADD PUSH1 0x40 MSTORE DUP1 SWAP3 SWAP2 SWAP1 DUP2 DUP2 MSTORE PUSH1 0x20 ADD DUP3 DUP1 SLOAD PUSH2 0x179B SWAP1 PUSH2 0x3983 JUMP JUMPDEST DUP1 ISZERO PUSH2 0x17E8 JUMPI DUP1 PUSH1 0x1F LT PUSH2 0x17BD JUMPI PUSH2 0x100 DUP1 DUP4 SLOAD DIV MUL DUP4 MSTORE SWAP2 PUSH1 0x20 ADD SWAP2 PUSH2 0x17E8 JUMP JUMPDEST DUP3 ADD SWAP2 SWAP1 PUSH1 0x0 MSTORE PUSH1 0x20 PUSH1 0x0 KECCAK256 SWAP1 JUMPDEST DUP2 SLOAD DUP2 MSTORE SWAP1 PUSH1 0x1 ADD SWAP1 PUSH1 0x20 ADD DUP1 DUP4 GT PUSH2 0x17CB JUMPI DUP3 SWAP1 SUB PUSH1 0x1F AND DUP3 ADD SWAP2 JUMPDEST POP POP POP POP POP PUSH1 0x40 MLOAD DUP1 PUSH1 0x20 ADD PUSH1 0x40 MSTORE DUP1 PUSH1 0x0 DUP2 MSTORE POP PUSH2 0x2A4F JUMP JUMPDEST ISZERO PUSH2 0x1842 JUMPI PUSH1 0x40 MLOAD PUSH32 0x8C379A000000000000000000000000000000000000000000000000000000000 DUP2 MSTORE PUSH1 0x4 ADD PUSH2 0x1839 SWAP1 PUSH2 0x3724 JUMP JUMPDEST PUSH1 0x40 MLOAD DUP1 SWAP2 SUB SWAP1 REVERT JUMPDEST POP JUMP JUMPDEST PUSH1 0x4 PUSH1 0x0 SWAP1 SLOAD SWAP1 PUSH2 0x100 EXP SWAP1 DIV PUSH20 0xFFFFFFFFFFFFFFFFFFFFFFFFFFFFFFFFFFFFFFFF AND PUSH20 0xFFFFFFFFFFFFFFFFFFFFFFFFFFFFFFFFFFFFFFFF AND CALLER PUSH20 0xFFFFFFFFFFFFFFFFFFFFFFFFFFFFFFFFFFFFFFFF AND EQ PUSH2 0x18D5 JUMPI PUSH1 0x40 MLOAD PUSH32 0x8C379A000000000000000000000000000000000000000000000000000000000 DUP2 MSTORE PUSH1 0x4 ADD PUSH2 0x18CC SWAP1 PUSH2 0x3744 JUMP JUMPDEST PUSH1 0x40 MLOAD DUP1 SWAP2 SUB SWAP1 REVERT JUMPDEST PUSH1 0x0 PUSH1 0x4 PUSH1 0x5 DUP2 GT ISZERO PUSH2 0x18EB JUMPI PUSH2 0x18EA PUSH2 0x39E6 JUMP JUMPDEST JUMPDEST SWAP1 POP PUSH2 0x1908 PUSH1 0x40 MLOAD DUP1 PUSH1 0x20 ADD PUSH1 0x40 MSTORE DUP1 PUSH1 0x0 DUP2 MSTORE POP DUP5 DUP4 DUP6 PUSH2 0x274B JUMP JUMPDEST DUP2 PUSH1 0x3 PUSH1 0x0 PUSH2 0x100 EXP DUP2 SLOAD DUP2 PUSH20 0xFFFFFFFFFFFFFFFFFFFFFFFFFFFFFFFFFFFFFFFF MUL NOT AND SWAP1 DUP4 PUSH20 0xFFFFFFFFFFFFFFFFFFFFFFFFFFFFFFFFFFFFFFFF AND MUL OR SWAP1 SSTORE POP POP POP POP JUMP JUMPDEST PUSH1 0x0 PUSH1 0x1 PUSH1 0x5 DUP2 GT ISZERO PUSH2 0x1964 JUMPI PUSH2 0x1963 PUSH2 0x39E6 JUMP JUMPDEST JUMPDEST SWAP1 POP PUSH2 0x1972 DUP6 DUP6 DUP4 DUP7 PUSH2 0x274B JUMP JUMPDEST PUSH1 0x7 DUP4 SWAP1 DUP1 PUSH1 0x1 DUP2 SLOAD ADD DUP1 DUP3 SSTORE DUP1 SWAP2 POP POP PUSH1 0x1 SWAP1 SUB SWAP1 PUSH1 0x0 MSTORE PUSH1 0x20 PUSH1 0x0 KECCAK256 ADD PUSH1 0x0 SWAP1 SWAP2 SWAP1 SWAP2 SWAP1 SWAP2 PUSH2 0x100 EXP DUP2 SLOAD DUP2 PUSH20 0xFFFFFFFFFFFFFFFFFFFFFFFFFFFFFFFFFFFFFFFF MUL NOT AND SWAP1 DUP4 PUSH20 0xFFFFFFFFFFFFFFFFFFFFFFFFFFFFFFFFFFFFFFFF AND MUL OR SWAP1 SSTORE POP POP POP POP POP POP JUMP JUMPDEST PUSH1 0x5 PUSH1 0x2 PUSH1 0x0 CALLER PUSH20 0xFFFFFFFFFFFFFFFFFFFFFFFFFFFFFFFFFFFFFFFF AND PUSH20 0xFFFFFFFFFFFFFFFFFFFFFFFFFFFFFFFFFFFFFFFF AND DUP2 MSTORE PUSH1 0x20 ADD SWAP1 DUP2 MSTORE PUSH1 0x20 ADD PUSH1 0x0 KECCAK256 PUSH1 0x0 ADD SLOAD DUP2 PUSH1 0x5 DUP2 GT ISZERO PUSH2 0x1A34 JUMPI PUSH2 0x1A33 PUSH2 0x39E6 JUMP JUMPDEST JUMPDEST EQ PUSH2 0x1A74 JUMPI PUSH1 0x40 MLOAD PUSH32 0x8C379A000000000000000000000000000000000000000000000000000000000 DUP2 MSTORE PUSH1 0x4 ADD PUSH2 0x1A6B SWAP1 PUSH2 0x3704 JUMP JUMPDEST PUSH1 0x40 MLOAD DUP1 SWAP2 SUB SWAP1 REVERT JUMPDEST PUSH9 0x3635C9ADC5DEA00000 CALLER PUSH20 0xFFFFFFFFFFFFFFFFFFFFFFFFFFFFFFFFFFFFFFFF AND BALANCE LT ISZERO PUSH2 0x1AD7 JUMPI PUSH1 0x40 MLOAD PUSH32 0x8C379A000000000000000000000000000000000000000000000000000000000 DUP2 MSTORE PUSH1 0x4 ADD PUSH2 0x1ACE SWAP1 PUSH2 0x36E4 JUMP JUMPDEST PUSH1 0x40 MLOAD DUP1 SWAP2 SUB SWAP1 REVERT JUMPDEST DUP2 PUSH20 0xFFFFFFFFFFFFFFFFFFFFFFFFFFFFFFFFFFFFFFFF AND PUSH2 0x8FC PUSH9 0x3635C9ADC5DEA00000 SWAP1 DUP2 ISZERO MUL SWAP1 PUSH1 0x40 MLOAD PUSH1 0x0 PUSH1 0x40 MLOAD DUP1 DUP4 SUB DUP2 DUP6 DUP9 DUP9 CALL SWAP4 POP POP POP POP ISZERO DUP1 ISZERO PUSH2 0x1B26 JUMPI RETURNDATASIZE PUSH1 0x0 DUP1 RETURNDATACOPY RETURNDATASIZE PUSH1 0x0 REVERT JUMPDEST POP POP POP JUMP JUMPDEST PUSH1 0x60 DUP1 PUSH1 0x0 PUSH1 0x60 PUSH2 0x1C15 PUSH1 0x2 PUSH1 0x0 CALLER PUSH20 0xFFFFFFFFFFFFFFFFFFFFFFFFFFFFFFFFFFFFFFFF AND PUSH20 0xFFFFFFFFFFFFFFFFFFFFFFFFFFFFFFFFFFFFFFFF AND DUP2 MSTORE PUSH1 0x20 ADD SWAP1 DUP2 MSTORE PUSH1 0x20 ADD PUSH1 0x0 KECCAK256 PUSH1 0x1 ADD DUP1 SLOAD PUSH2 0x1B82 SWAP1 PUSH2 0x3983 JUMP JUMPDEST DUP1 PUSH1 0x1F ADD PUSH1 0x20 DUP1 SWAP2 DIV MUL PUSH1 0x20 ADD PUSH1 0x40 MLOAD SWAP1 DUP2 ADD PUSH1 0x40 MSTORE DUP1 SWAP3 SWAP2 SWAP1 DUP2 DUP2 MSTORE PUSH1 0x20 ADD DUP3 DUP1 SLOAD PUSH2 0x1BAE SWAP1 PUSH2 0x3983 JUMP JUMPDEST DUP1 ISZERO PUSH2 0x1BFB JUMPI DUP1 PUSH1 0x1F LT PUSH2 0x1BD0 JUMPI PUSH2 0x100 DUP1 DUP4 SLOAD DIV MUL DUP4 MSTORE SWAP2 PUSH1 0x20 ADD SWAP2 PUSH2 0x1BFB JUMP JUMPDEST DUP3 ADD SWAP2 SWAP1 PUSH1 0x0 MSTORE PUSH1 0x20 PUSH1 0x0 KECCAK256 SWAP1 JUMPDEST DUP2 SLOAD DUP2 MSTORE SWAP1 PUSH1 0x1 ADD SWAP1 PUSH1 0x20 ADD DUP1 DUP4 GT PUSH2 0x1BDE JUMPI DUP3 SWAP1 SUB PUSH1 0x1F AND DUP3 ADD SWAP2 JUMPDEST POP POP POP POP POP PUSH1 0x40 MLOAD DUP1 PUSH1 0x20 ADD PUSH1 0x40 MSTORE DUP1 PUSH1 0x0 DUP2 MSTORE POP PUSH2 0x2A4F JUMP JUMPDEST ISZERO PUSH2 0x1C55 JUMPI PUSH1 0x40 MLOAD PUSH32 0x8C379A000000000000000000000000000000000000000000000000000000000 DUP2 MSTORE PUSH1 0x4 ADD PUSH2 0x1C4C SWAP1 PUSH2 0x3724 JUMP JUMPDEST PUSH1 0x40 MLOAD DUP1 SWAP2 SUB SWAP1 REVERT JUMPDEST PUSH1 0x0 PUSH1 0x2 PUSH1 0x0 CALLER PUSH20 0xFFFFFFFFFFFFFFFFFFFFFFFFFFFFFFFFFFFFFFFF AND PUSH20 0xFFFFFFFFFFFFFFFFFFFFFFFFFFFFFFFFFFFFFFFF AND DUP2 MSTORE PUSH1 0x20 ADD SWAP1 DUP2 MSTORE PUSH1 0x20 ADD PUSH1 0x0 KECCAK256 PUSH1 0x40 MLOAD DUP1 PUSH1 0x80 ADD PUSH1 0x40 MSTORE SWAP1 DUP2 PUSH1 0x0 DUP3 ADD SLOAD DUP2 MSTORE PUSH1 0x20 ADD PUSH1 0x1 DUP3 ADD DUP1 SLOAD PUSH2 0x1CBB SWAP1 PUSH2 0x3983 JUMP JUMPDEST DUP1 PUSH1 0x1F ADD PUSH1 0x20 DUP1 SWAP2 DIV MUL PUSH1 0x20 ADD PUSH1 0x40 MLOAD SWAP1 DUP2 ADD PUSH1 0x40 MSTORE DUP1 SWAP3 SWAP2 SWAP1 DUP2 DUP2 MSTORE PUSH1 0x20 ADD DUP3 DUP1 SLOAD PUSH2 0x1CE7 SWAP1 PUSH2 0x3983 JUMP JUMPDEST DUP1 ISZERO PUSH2 0x1D34 JUMPI DUP1 PUSH1 0x1F LT PUSH2 0x1D09 JUMPI PUSH2 0x100 DUP1 DUP4 SLOAD DIV MUL DUP4 MSTORE SWAP2 PUSH1 0x20 ADD SWAP2 PUSH2 0x1D34 JUMP JUMPDEST DUP3 ADD SWAP2 SWAP1 PUSH1 0x0 MSTORE PUSH1 0x20 PUSH1 0x0 KECCAK256 SWAP1 JUMPDEST DUP2 SLOAD DUP2 MSTORE SWAP1 PUSH1 0x1 ADD SWAP1 PUSH1 0x20 ADD DUP1 DUP4 GT PUSH2 0x1D17 JUMPI DUP3 SWAP1 SUB PUSH1 0x1F AND DUP3 ADD SWAP2 JUMPDEST POP POP POP POP POP DUP2 MSTORE PUSH1 0x20 ADD PUSH1 0x2 DUP3 ADD DUP1 SLOAD PUSH2 0x1D4D SWAP1 PUSH2 0x3983 JUMP JUMPDEST DUP1 PUSH1 0x1F ADD PUSH1 0x20 DUP1 SWAP2 DIV MUL PUSH1 0x20 ADD PUSH1 0x40 MLOAD SWAP1 DUP2 ADD PUSH1 0x40 MSTORE DUP1 SWAP3 SWAP2 SWAP1 DUP2 DUP2 MSTORE PUSH1 0x20 ADD DUP3 DUP1 SLOAD PUSH2 0x1D79 SWAP1 PUSH2 0x3983 JUMP JUMPDEST DUP1 ISZERO PUSH2 0x1DC6 JUMPI DUP1 PUSH1 0x1F LT PUSH2 0x1D9B JUMPI PUSH2 0x100 DUP1 DUP4 SLOAD DIV MUL DUP4 MSTORE SWAP2 PUSH1 0x20 ADD SWAP2 PUSH2 0x1DC6 JUMP JUMPDEST DUP3 ADD SWAP2 SWAP1 PUSH1 0x0 MSTORE PUSH1 0x20 PUSH1 0x0 KECCAK256 SWAP1 JUMPDEST DUP2 SLOAD DUP2 MSTORE SWAP1 PUSH1 0x1 ADD SWAP1 PUSH1 0x20 ADD DUP1 DUP4 GT PUSH2 0x1DA9 JUMPI DUP3 SWAP1 SUB PUSH1 0x1F AND DUP3 ADD SWAP2 JUMPDEST POP POP POP POP POP DUP2 MSTORE PUSH1 0x20 ADD PUSH1 0x3 DUP3 ADD DUP1 SLOAD DUP1 PUSH1 0x20 MUL PUSH1 0x20 ADD PUSH1 0x40 MLOAD SWAP1 DUP2 ADD PUSH1 0x40 MSTORE DUP1 SWAP3 SWAP2 SWAP1 DUP2 DUP2 MSTORE PUSH1 0x20 ADD PUSH1 0x0 SWAP1 JUMPDEST DUP3 DUP3 LT ISZERO PUSH2 0x1EA0 JUMPI DUP4 DUP3 SWAP1 PUSH1 0x0 MSTORE PUSH1 0x20 PUSH1 0x0 KECCAK256 ADD DUP1 SLOAD PUSH2 0x1E13 SWAP1 PUSH2 0x3983 JUMP JUMPDEST DUP1 PUSH1 0x1F ADD PUSH1 0x20 DUP1 SWAP2 DIV MUL PUSH1 0x20 ADD PUSH1 0x40 MLOAD SWAP1 DUP2 ADD PUSH1 0x40 MSTORE DUP1 SWAP3 SWAP2 SWAP1 DUP2 DUP2 MSTORE PUSH1 0x20 ADD DUP3 DUP1 SLOAD PUSH2 0x1E3F SWAP1 PUSH2 0x3983 JUMP JUMPDEST DUP1 ISZERO PUSH2 0x1E8C JUMPI DUP1 PUSH1 0x1F LT PUSH2 0x1E61 JUMPI PUSH2 0x100 DUP1 DUP4 SLOAD DIV MUL DUP4 MSTORE SWAP2 PUSH1 0x20 ADD SWAP2 PUSH2 0x1E8C JUMP JUMPDEST DUP3 ADD SWAP2 SWAP1 PUSH1 0x0 MSTORE PUSH1 0x20 PUSH1 0x0 KECCAK256 SWAP1 JUMPDEST DUP2 SLOAD DUP2 MSTORE SWAP1 PUSH1 0x1 ADD SWAP1 PUSH1 0x20 ADD DUP1 DUP4 GT PUSH2 0x1E6F JUMPI DUP3 SWAP1 SUB PUSH1 0x1F AND DUP3 ADD SWAP2 JUMPDEST POP POP POP POP POP DUP2 MSTORE PUSH1 0x20 ADD SWAP1 PUSH1 0x1 ADD SWAP1 PUSH2 0x1DF4 JUMP JUMPDEST POP POP POP POP DUP2 MSTORE POP POP SWAP1 POP DUP1 PUSH1 0x20 ADD MLOAD SWAP5 POP DUP1 PUSH1 0x40 ADD MLOAD SWAP4 POP CALLER PUSH20 0xFFFFFFFFFFFFFFFFFFFFFFFFFFFFFFFFFFFFFFFF AND BALANCE SWAP3 POP DUP1 PUSH1 0x60 ADD MLOAD SWAP2 POP POP SWAP1 SWAP2 SWAP3 SWAP4 JUMP JUMPDEST PUSH1 0x0 DUP1 PUSH1 0x5 DUP2 GT ISZERO PUSH2 0x1EF5 JUMPI PUSH2 0x1EF4 PUSH2 0x39E6 JUMP JUMPDEST JUMPDEST SWAP1 POP PUSH2 0x1F03 DUP5 DUP5 DUP4 DUP6 PUSH2 0x274B JUMP JUMPDEST POP POP POP POP JUMP JUMPDEST PUSH1 0x3 PUSH1 0x2 PUSH1 0x0 CALLER PUSH20 0xFFFFFFFFFFFFFFFFFFFFFFFFFFFFFFFFFFFFFFFF AND PUSH20 0xFFFFFFFFFFFFFFFFFFFFFFFFFFFFFFFFFFFFFFFF AND DUP2 MSTORE PUSH1 0x20 ADD SWAP1 DUP2 MSTORE PUSH1 0x20 ADD PUSH1 0x0 KECCAK256 PUSH1 0x0 ADD SLOAD DUP2 PUSH1 0x5 DUP2 GT ISZERO PUSH2 0x1F61 JUMPI PUSH2 0x1F60 PUSH2 0x39E6 JUMP JUMPDEST JUMPDEST EQ PUSH2 0x1FA1 JUMPI PUSH1 0x40 MLOAD PUSH32 0x8C379A000000000000000000000000000000000000000000000000000000000 DUP2 MSTORE PUSH1 0x4 ADD PUSH2 0x1F98 SWAP1 PUSH2 0x3704 JUMP JUMPDEST PUSH1 0x40 MLOAD DUP1 SWAP2 SUB SWAP1 REVERT JUMPDEST PUSH1 0x0 PUSH1 0x3 PUSH1 0x5 DUP2 GT ISZERO PUSH2 0x1FB7 JUMPI PUSH2 0x1FB6 PUSH2 0x39E6 JUMP JUMPDEST JUMPDEST SWAP1 POP PUSH2 0x1FC5 DUP5 DUP5 DUP4 DUP9 PUSH2 0x274B JUMP JUMPDEST PUSH1 0x5 DUP4 SWAP1 DUP1 PUSH1 0x1 DUP2 SLOAD ADD DUP1 DUP3 SSTORE DUP1 SWAP2 POP POP PUSH1 0x1 SWAP1 SUB SWAP1 PUSH1 0x0 MSTORE PUSH1 0x20 PUSH1 0x0 KECCAK256 ADD PUSH1 0x0 SWAP1 SWAP2 SWAP1 SWAP2 SWAP1 SWAP2 POP SWAP1 DUP1 MLOAD SWAP1 PUSH1 0x20 ADD SWAP1 PUSH2 0x2000 SWAP3 SWAP2 SWAP1 PUSH2 0x2AA8 JUMP JUMPDEST POP POP POP POP POP POP JUMP JUMPDEST PUSH1 0x60 DUP1 PUSH1 0x60 DUP1 PUSH1 0x3 PUSH1 0x2 PUSH1 0x0 CALLER PUSH20 0xFFFFFFFFFFFFFFFFFFFFFFFFFFFFFFFFFFFFFFFF AND PUSH20 0xFFFFFFFFFFFFFFFFFFFFFFFFFFFFFFFFFFFFFFFF AND DUP2 MSTORE PUSH1 0x20 ADD SWAP1 DUP2 MSTORE PUSH1 0x20 ADD PUSH1 0x0 KECCAK256 PUSH1 0x0 ADD SLOAD DUP2 PUSH1 0x5 DUP2 GT ISZERO PUSH2 0x2066 JUMPI PUSH2 0x2065 PUSH2 0x39E6 JUMP JUMPDEST JUMPDEST EQ PUSH2 0x20A6 JUMPI PUSH1 0x40 MLOAD PUSH32 0x8C379A000000000000000000000000000000000000000000000000000000000 DUP2 MSTORE PUSH1 0x4 ADD PUSH2 0x209D SWAP1 PUSH2 0x3704 JUMP JUMPDEST PUSH1 0x40 MLOAD DUP1 SWAP2 SUB SWAP1 REVERT JUMPDEST PUSH1 0x0 PUSH1 0x2 PUSH1 0x0 CALLER PUSH20 0xFFFFFFFFFFFFFFFFFFFFFFFFFFFFFFFFFFFFFFFF AND PUSH20 0xFFFFFFFFFFFFFFFFFFFFFFFFFFFFFFFFFFFFFFFF AND DUP2 MSTORE PUSH1 0x20 ADD SWAP1 DUP2 MSTORE PUSH1 0x20 ADD PUSH1 0x0 KECCAK256 PUSH1 0x40 MLOAD DUP1 PUSH1 0x80 ADD PUSH1 0x40 MSTORE SWAP1 DUP2 PUSH1 0x0 DUP3 ADD SLOAD DUP2 MSTORE PUSH1 0x20 ADD PUSH1 0x1 DUP3 ADD DUP1 SLOAD PUSH2 0x210C SWAP1 PUSH2 0x3983 JUMP JUMPDEST DUP1 PUSH1 0x1F ADD PUSH1 0x20 DUP1 SWAP2 DIV MUL PUSH1 0x20 ADD PUSH1 0x40 MLOAD SWAP1 DUP2 ADD PUSH1 0x40 MSTORE DUP1 SWAP3 SWAP2 SWAP1 DUP2 DUP2 MSTORE PUSH1 0x20 ADD DUP3 DUP1 SLOAD PUSH2 0x2138 SWAP1 PUSH2 0x3983 JUMP JUMPDEST DUP1 ISZERO PUSH2 0x2185 JUMPI DUP1 PUSH1 0x1F LT PUSH2 0x215A JUMPI PUSH2 0x100 DUP1 DUP4 SLOAD DIV MUL DUP4 MSTORE SWAP2 PUSH1 0x20 ADD SWAP2 PUSH2 0x2185 JUMP JUMPDEST DUP3 ADD SWAP2 SWAP1 PUSH1 0x0 MSTORE PUSH1 0x20 PUSH1 0x0 KECCAK256 SWAP1 JUMPDEST DUP2 SLOAD DUP2 MSTORE SWAP1 PUSH1 0x1 ADD SWAP1 PUSH1 0x20 ADD DUP1 DUP4 GT PUSH2 0x2168 JUMPI DUP3 SWAP1 SUB PUSH1 0x1F AND DUP3 ADD SWAP2 JUMPDEST POP POP POP POP POP DUP2 MSTORE PUSH1 0x20 ADD PUSH1 0x2 DUP3 ADD DUP1 SLOAD PUSH2 0x219E SWAP1 PUSH2 0x3983 JUMP JUMPDEST DUP1 PUSH1 0x1F ADD PUSH1 0x20 DUP1 SWAP2 DIV MUL PUSH1 0x20 ADD PUSH1 0x40 MLOAD SWAP1 DUP2 ADD PUSH1 0x40 MSTORE DUP1 SWAP3 SWAP2 SWAP1 DUP2 DUP2 MSTORE PUSH1 0x20 ADD DUP3 DUP1 SLOAD PUSH2 0x21CA SWAP1 PUSH2 0x3983 JUMP JUMPDEST DUP1 ISZERO PUSH2 0x2217 JUMPI DUP1 PUSH1 0x1F LT PUSH2 0x21EC JUMPI PUSH2 0x100 DUP1 DUP4 SLOAD DIV MUL DUP4 MSTORE SWAP2 PUSH1 0x20 ADD SWAP2 PUSH2 0x2217 JUMP JUMPDEST DUP3 ADD SWAP2 SWAP1 PUSH1 0x0 MSTORE PUSH1 0x20 PUSH1 0x0 KECCAK256 SWAP1 JUMPDEST DUP2 SLOAD DUP2 MSTORE SWAP1 PUSH1 0x1 ADD SWAP1 PUSH1 0x20 ADD DUP1 DUP4 GT PUSH2 0x21FA JUMPI DUP3 SWAP1 SUB PUSH1 0x1F AND DUP3 ADD SWAP2 JUMPDEST POP POP POP POP POP DUP2 MSTORE PUSH1 0x20 ADD PUSH1 0x3 DUP3 ADD DUP1 SLOAD DUP1 PUSH1 0x20 MUL PUSH1 0x20 ADD PUSH1 0x40 MLOAD SWAP1 DUP2 ADD PUSH1 0x40 MSTORE DUP1 SWAP3 SWAP2 SWAP1 DUP2 DUP2 MSTORE PUSH1 0x20 ADD PUSH1 0x0 SWAP1 JUMPDEST DUP3 DUP3 LT ISZERO PUSH2 0x22F1 JUMPI DUP4 DUP3 SWAP1 PUSH1 0x0 MSTORE PUSH1 0x20 PUSH1 0x0 KECCAK256 ADD DUP1 SLOAD PUSH2 0x2264 SWAP1 PUSH2 0x3983 JUMP JUMPDEST DUP1 PUSH1 0x1F ADD PUSH1 0x20 DUP1 SWAP2 DIV MUL PUSH1 0x20 ADD PUSH1 0x40 MLOAD SWAP1 DUP2 ADD PUSH1 0x40 MSTORE DUP1 SWAP3 SWAP2 SWAP1 DUP2 DUP2 MSTORE PUSH1 0x20 ADD DUP3 DUP1 SLOAD PUSH2 0x2290 SWAP1 PUSH2 0x3983 JUMP JUMPDEST DUP1 ISZERO PUSH2 0x22DD JUMPI DUP1 PUSH1 0x1F LT PUSH2 0x22B2 JUMPI PUSH2 0x100 DUP1 DUP4 SLOAD DIV MUL DUP4 MSTORE SWAP2 PUSH1 0x20 ADD SWAP2 PUSH2 0x22DD JUMP JUMPDEST DUP3 ADD SWAP2 SWAP1 PUSH1 0x0 MSTORE PUSH1 0x20 PUSH1 0x0 KECCAK256 SWAP1 JUMPDEST DUP2 SLOAD DUP2 MSTORE SWAP1 PUSH1 0x1 ADD SWAP1 PUSH1 0x20 ADD DUP1 DUP4 GT PUSH2 0x22C0 JUMPI DUP3 SWAP1 SUB PUSH1 0x1F AND DUP3 ADD SWAP2 JUMPDEST POP POP POP POP POP DUP2 MSTORE PUSH1 0x20 ADD SWAP1 PUSH1 0x1 ADD SWAP1 PUSH2 0x2245 JUMP JUMPDEST POP POP POP POP DUP2 MSTORE POP POP SWAP1 POP DUP1 PUSH1 0x20 ADD MLOAD SWAP6 POP PUSH1 0x9 DUP1 SLOAD DUP1 PUSH1 0x20 MUL PUSH1 0x20 ADD PUSH1 0x40 MLOAD SWAP1 DUP2 ADD PUSH1 0x40 MSTORE DUP1 SWAP3 SWAP2 SWAP1 DUP2 DUP2 MSTORE PUSH1 0x20 ADD PUSH1 0x0 SWAP1 JUMPDEST DUP3 DUP3 LT ISZERO PUSH2 0x24EB JUMPI DUP4 DUP3 SWAP1 PUSH1 0x0 MSTORE PUSH1 0x20 PUSH1 0x0 KECCAK256 SWAP1 PUSH1 0x4 MUL ADD PUSH1 0x40 MLOAD DUP1 PUSH1 0x80 ADD PUSH1 0x40 MSTORE SWAP1 DUP2 PUSH1 0x0 DUP3 ADD PUSH1 0x0 SWAP1 SLOAD SWAP1 PUSH2 0x100 EXP SWAP1 DIV PUSH20 0xFFFFFFFFFFFFFFFFFFFFFFFFFFFFFFFFFFFFFFFF AND PUSH20 0xFFFFFFFFFFFFFFFFFFFFFFFFFFFFFFFFFFFFFFFF AND PUSH20 0xFFFFFFFFFFFFFFFFFFFFFFFFFFFFFFFFFFFFFFFF AND DUP2 MSTORE PUSH1 0x20 ADD PUSH1 0x1 DUP3 ADD DUP1 SLOAD PUSH2 0x23AD SWAP1 PUSH2 0x3983 JUMP JUMPDEST DUP1 PUSH1 0x1F ADD PUSH1 0x20 DUP1 SWAP2 DIV MUL PUSH1 0x20 ADD PUSH1 0x40 MLOAD SWAP1 DUP2 ADD PUSH1 0x40 MSTORE DUP1 SWAP3 SWAP2 SWAP1 DUP2 DUP2 MSTORE PUSH1 0x20 ADD DUP3 DUP1 SLOAD PUSH2 0x23D9 SWAP1 PUSH2 0x3983 JUMP JUMPDEST DUP1 ISZERO PUSH2 0x2426 JUMPI DUP1 PUSH1 0x1F LT PUSH2 0x23FB JUMPI PUSH2 0x100 DUP1 DUP4 SLOAD DIV MUL DUP4 MSTORE SWAP2 PUSH1 0x20 ADD SWAP2 PUSH2 0x2426 JUMP JUMPDEST DUP3 ADD SWAP2 SWAP1 PUSH1 0x0 MSTORE PUSH1 0x20 PUSH1 0x0 KECCAK256 SWAP1 JUMPDEST DUP2 SLOAD DUP2 MSTORE SWAP1 PUSH1 0x1 ADD SWAP1 PUSH1 0x20 ADD DUP1 DUP4 GT PUSH2 0x2409 JUMPI DUP3 SWAP1 SUB PUSH1 0x1F AND DUP3 ADD SWAP2 JUMPDEST POP POP POP POP POP DUP2 MSTORE PUSH1 0x20 ADD PUSH1 0x2 DUP3 ADD DUP1 SLOAD PUSH2 0x243F SWAP1 PUSH2 0x3983 JUMP JUMPDEST DUP1 PUSH1 0x1F ADD PUSH1 0x20 DUP1 SWAP2 DIV MUL PUSH1 0x20 ADD PUSH1 0x40 MLOAD SWAP1 DUP2 ADD PUSH1 0x40 MSTORE DUP1 SWAP3 SWAP2 SWAP1 DUP2 DUP2 MSTORE PUSH1 0x20 ADD DUP3 DUP1 SLOAD PUSH2 0x246B SWAP1 PUSH2 0x3983 JUMP JUMPDEST DUP1 ISZERO PUSH2 0x24B8 JUMPI DUP1 PUSH1 0x1F LT PUSH2 0x248D JUMPI PUSH2 0x100 DUP1 DUP4 SLOAD DIV MUL DUP4 MSTORE SWAP2 PUSH1 0x20 ADD SWAP2 PUSH2 0x24B8 JUMP JUMPDEST DUP3 ADD SWAP2 SWAP1 PUSH1 0x0 MSTORE PUSH1 0x20 PUSH1 0x0 KECCAK256 SWAP1 JUMPDEST DUP2 SLOAD DUP2 MSTORE SWAP1 PUSH1 0x1 ADD SWAP1 PUSH1 0x20 ADD DUP1 DUP4 GT PUSH2 0x249B JUMPI DUP3 SWAP1 SUB PUSH1 0x1F AND DUP3 ADD SWAP2 JUMPDEST POP POP POP POP POP DUP2 MSTORE PUSH1 0x20 ADD PUSH1 0x3 DUP3 ADD PUSH1 0x0 SWAP1 SLOAD SWAP1 PUSH2 0x100 EXP SWAP1 DIV PUSH1 0xFF AND ISZERO ISZERO ISZERO ISZERO DUP2 MSTORE POP POP DUP2 MSTORE PUSH1 0x20 ADD SWAP1 PUSH1 0x1 ADD SWAP1 PUSH2 0x2324 JUMP JUMPDEST POP POP POP POP SWAP5 POP PUSH1 0x5 DUP1 SLOAD DUP1 PUSH1 0x20 MUL PUSH1 0x20 ADD PUSH1 0x40 MLOAD SWAP1 DUP2 ADD PUSH1 0x40 MSTORE DUP1 SWAP3 SWAP2 SWAP1 DUP2 DUP2 MSTORE PUSH1 0x20 ADD PUSH1 0x0 SWAP1 JUMPDEST DUP3 DUP3 LT ISZERO PUSH2 0x25BF JUMPI DUP4 DUP3 SWAP1 PUSH1 0x0 MSTORE PUSH1 0x20 PUSH1 0x0 KECCAK256 ADD DUP1 SLOAD PUSH2 0x2532 SWAP1 PUSH2 0x3983 JUMP JUMPDEST DUP1 PUSH1 0x1F ADD PUSH1 0x20 DUP1 SWAP2 DIV MUL PUSH1 0x20 ADD PUSH1 0x40 MLOAD SWAP1 DUP2 ADD PUSH1 0x40 MSTORE DUP1 SWAP3 SWAP2 SWAP1 DUP2 DUP2 MSTORE PUSH1 0x20 ADD DUP3 DUP1 SLOAD PUSH2 0x255E SWAP1 PUSH2 0x3983 JUMP JUMPDEST DUP1 ISZERO PUSH2 0x25AB JUMPI DUP1 PUSH1 0x1F LT PUSH2 0x2580 JUMPI PUSH2 0x100 DUP1 DUP4 SLOAD DIV MUL DUP4 MSTORE SWAP2 PUSH1 0x20 ADD SWAP2 PUSH2 0x25AB JUMP JUMPDEST DUP3 ADD SWAP2 SWAP1 PUSH1 0x0 MSTORE PUSH1 0x20 PUSH1 0x0 KECCAK256 SWAP1 JUMPDEST DUP2 SLOAD DUP2 MSTORE SWAP1 PUSH1 0x1 ADD SWAP1 PUSH1 0x20 ADD DUP1 DUP4 GT PUSH2 0x258E JUMPI DUP3 SWAP1 SUB PUSH1 0x1F AND DUP3 ADD SWAP2 JUMPDEST POP POP POP POP POP DUP2 MSTORE PUSH1 0x20 ADD SWAP1 PUSH1 0x1 ADD SWAP1 PUSH2 0x2513 JUMP JUMPDEST POP POP POP POP SWAP4 POP PUSH1 0x7 DUP1 SLOAD DUP1 PUSH1 0x20 MUL PUSH1 0x20 ADD PUSH1 0x40 MLOAD SWAP1 DUP2 ADD PUSH1 0x40 MSTORE DUP1 SWAP3 SWAP2 SWAP1 DUP2 DUP2 MSTORE PUSH1 0x20 ADD DUP3 DUP1 SLOAD DUP1 ISZERO PUSH2 0x2647 JUMPI PUSH1 0x20 MUL DUP3 ADD SWAP2 SWAP1 PUSH1 0x0 MSTORE PUSH1 0x20 PUSH1 0x0 KECCAK256 SWAP1 JUMPDEST DUP2 PUSH1 0x0 SWAP1 SLOAD SWAP1 PUSH2 0x100 EXP SWAP1 DIV PUSH20 0xFFFFFFFFFFFFFFFFFFFFFFFFFFFFFFFFFFFFFFFF AND PUSH20 0xFFFFFFFFFFFFFFFFFFFFFFFFFFFFFFFFFFFFFFFF AND DUP2 MSTORE PUSH1 0x20 ADD SWAP1 PUSH1 0x1 ADD SWAP1 DUP1 DUP4 GT PUSH2 0x25FD JUMPI JUMPDEST POP POP POP POP POP SWAP3 POP POP POP SWAP1 SWAP2 SWAP3 SWAP4 JUMP JUMPDEST PUSH1 0x4 PUSH1 0x0 SWAP1 SLOAD SWAP1 PUSH2 0x100 EXP SWAP1 DIV PUSH20 0xFFFFFFFFFFFFFFFFFFFFFFFFFFFFFFFFFFFFFFFF AND PUSH20 0xFFFFFFFFFFFFFFFFFFFFFFFFFFFFFFFFFFFFFFFF AND CALLER PUSH20 0xFFFFFFFFFFFFFFFFFFFFFFFFFFFFFFFFFFFFFFFF AND EQ PUSH2 0x26E6 JUMPI PUSH1 0x40 MLOAD PUSH32 0x8C379A000000000000000000000000000000000000000000000000000000000 DUP2 MSTORE PUSH1 0x4 ADD PUSH2 0x26DD SWAP1 PUSH2 0x3744 JUMP JUMPDEST PUSH1 0x40 MLOAD DUP1 SWAP2 SUB SWAP1 REVERT JUMPDEST PUSH1 0x0 PUSH1 0x3 PUSH1 0x5 DUP2 GT ISZERO PUSH2 0x26FC JUMPI PUSH2 0x26FB PUSH2 0x39E6 JUMP JUMPDEST JUMPDEST SWAP1 POP PUSH2 0x270A DUP4 DUP4 DUP4 CALLER PUSH2 0x274B JUMP JUMPDEST PUSH1 0x5 DUP3 SWAP1 DUP1 PUSH1 0x1 DUP2 SLOAD ADD DUP1 DUP3 SSTORE DUP1 SWAP2 POP POP PUSH1 0x1 SWAP1 SUB SWAP1 PUSH1 0x0 MSTORE PUSH1 0x20 PUSH1 0x0 KECCAK256 ADD PUSH1 0x0 SWAP1 SWAP2 SWAP1 SWAP2 SWAP1 SWAP2 POP SWAP1 DUP1 MLOAD SWAP1 PUSH1 0x20 ADD SWAP1 PUSH2 0x2745 SWAP3 SWAP2 SWAP1 PUSH2 0x2AA8 JUMP JUMPDEST POP POP POP POP JUMP JUMPDEST DUP1 DUP4 PUSH2 0x2830 PUSH1 0x2 PUSH1 0x0 DUP5 PUSH20 0xFFFFFFFFFFFFFFFFFFFFFFFFFFFFFFFFFFFFFFFF AND PUSH20 0xFFFFFFFFFFFFFFFFFFFFFFFFFFFFFFFFFFFFFFFF AND DUP2 MSTORE PUSH1 0x20 ADD SWAP1 DUP2 MSTORE PUSH1 0x20 ADD PUSH1 0x0 KECCAK256 PUSH1 0x2 ADD DUP1 SLOAD PUSH2 0x279D SWAP1 PUSH2 0x3983 JUMP JUMPDEST DUP1 PUSH1 0x1F ADD PUSH1 0x20 DUP1 SWAP2 DIV MUL PUSH1 0x20 ADD PUSH1 0x40 MLOAD SWAP1 DUP2 ADD PUSH1 0x40 MSTORE DUP1 SWAP3 SWAP2 SWAP1 DUP2 DUP2 MSTORE PUSH1 0x20 ADD DUP3 DUP1 SLOAD PUSH2 0x27C9 SWAP1 PUSH2 0x3983 JUMP JUMPDEST DUP1 ISZERO PUSH2 0x2816 JUMPI DUP1 PUSH1 0x1F LT PUSH2 0x27EB JUMPI PUSH2 0x100 DUP1 DUP4 SLOAD DIV MUL DUP4 MSTORE SWAP2 PUSH1 0x20 ADD SWAP2 PUSH2 0x2816 JUMP JUMPDEST DUP3 ADD SWAP2 SWAP1 PUSH1 0x0 MSTORE PUSH1 0x20 PUSH1 0x0 KECCAK256 SWAP1 JUMPDEST DUP2 SLOAD DUP2 MSTORE SWAP1 PUSH1 0x1 ADD SWAP1 PUSH1 0x20 ADD DUP1 DUP4 GT PUSH2 0x27F9 JUMPI DUP3 SWAP1 SUB PUSH1 0x1F AND DUP3 ADD SWAP2 JUMPDEST POP POP POP POP POP PUSH1 0x40 MLOAD DUP1 PUSH1 0x20 ADD PUSH1 0x40 MSTORE DUP1 PUSH1 0x0 DUP2 MSTORE POP PUSH2 0x2A4F JUMP JUMPDEST ISZERO PUSH2 0x2870 JUMPI PUSH1 0x40 MLOAD PUSH32 0x8C379A000000000000000000000000000000000000000000000000000000000 DUP2 MSTORE PUSH1 0x4 ADD PUSH2 0x2867 SWAP1 PUSH2 0x3764 JUMP JUMPDEST PUSH1 0x40 MLOAD DUP1 SWAP2 SUB SWAP1 REVERT JUMPDEST PUSH1 0x0 PUSH20 0xFFFFFFFFFFFFFFFFFFFFFFFFFFFFFFFFFFFFFFFF AND PUSH1 0x1 DUP3 PUSH1 0x40 MLOAD PUSH2 0x2898 SWAP2 SWAP1 PUSH2 0x354C JUMP JUMPDEST SWAP1 DUP2 MSTORE PUSH1 0x20 ADD PUSH1 0x40 MLOAD DUP1 SWAP2 SUB SWAP1 KECCAK256 PUSH1 0x0 SWAP1 SLOAD SWAP1 PUSH2 0x100 EXP SWAP1 DIV PUSH20 0xFFFFFFFFFFFFFFFFFFFFFFFFFFFFFFFFFFFFFFFF AND PUSH20 0xFFFFFFFFFFFFFFFFFFFFFFFFFFFFFFFFFFFFFFFF AND EQ PUSH2 0x291D JUMPI PUSH1 0x40 MLOAD PUSH32 0x8C379A000000000000000000000000000000000000000000000000000000000 DUP2 MSTORE PUSH1 0x4 ADD PUSH2 0x2914 SWAP1 PUSH2 0x36C4 JUMP JUMPDEST PUSH1 0x40 MLOAD DUP1 SWAP2 SUB SWAP1 REVERT JUMPDEST PUSH1 0x60 PUSH1 0x0 PUSH1 0x40 MLOAD DUP1 PUSH1 0x80 ADD PUSH1 0x40 MSTORE DUP1 DUP8 DUP2 MSTORE PUSH1 0x20 ADD DUP9 DUP2 MSTORE PUSH1 0x20 ADD DUP10 DUP2 MSTORE PUSH1 0x20 ADD DUP4 DUP2 MSTORE POP SWAP1 POP DUP5 PUSH1 0x1 DUP9 PUSH1 0x40 MLOAD PUSH2 0x2955 SWAP2 SWAP1 PUSH2 0x354C JUMP JUMPDEST SWAP1 DUP2 MSTORE PUSH1 0x20 ADD PUSH1 0x40 MLOAD DUP1 SWAP2 SUB SWAP1 KECCAK256 PUSH1 0x0 PUSH2 0x100 EXP DUP2 SLOAD DUP2 PUSH20 0xFFFFFFFFFFFFFFFFFFFFFFFFFFFFFFFFFFFFFFFF MUL NOT AND SWAP1 DUP4 PUSH20 0xFFFFFFFFFFFFFFFFFFFFFFFFFFFFFFFFFFFFFFFF AND MUL OR SWAP1 SSTORE POP DUP1 PUSH1 0x2 PUSH1 0x0 DUP8 PUSH20 0xFFFFFFFFFFFFFFFFFFFFFFFFFFFFFFFFFFFFFFFF AND PUSH20 0xFFFFFFFFFFFFFFFFFFFFFFFFFFFFFFFFFFFFFFFF AND DUP2 MSTORE PUSH1 0x20 ADD SWAP1 DUP2 MSTORE PUSH1 0x20 ADD PUSH1 0x0 KECCAK256 PUSH1 0x0 DUP3 ADD MLOAD DUP2 PUSH1 0x0 ADD SSTORE PUSH1 0x20 DUP3 ADD MLOAD DUP2 PUSH1 0x1 ADD SWAP1 DUP1 MLOAD SWAP1 PUSH1 0x20 ADD SWAP1 PUSH2 0x2A07 SWAP3 SWAP2 SWAP1 PUSH2 0x2AA8 JUMP JUMPDEST POP PUSH1 0x40 DUP3 ADD MLOAD DUP2 PUSH1 0x2 ADD SWAP1 DUP1 MLOAD SWAP1 PUSH1 0x20 ADD SWAP1 PUSH2 0x2A24 SWAP3 SWAP2 SWAP1 PUSH2 0x2AA8 JUMP JUMPDEST POP PUSH1 0x60 DUP3 ADD MLOAD DUP2 PUSH1 0x3 ADD SWAP1 DUP1 MLOAD SWAP1 PUSH1 0x20 ADD SWAP1 PUSH2 0x2A41 SWAP3 SWAP2 SWAP1 PUSH2 0x2B2E JUMP JUMPDEST POP SWAP1 POP POP POP POP POP POP POP POP POP POP JUMP JUMPDEST PUSH1 0x0 DUP2 PUSH1 0x40 MLOAD PUSH1 0x20 ADD PUSH2 0x2A62 SWAP2 SWAP1 PUSH2 0x354C JUMP JUMPDEST PUSH1 0x40 MLOAD PUSH1 0x20 DUP2 DUP4 SUB SUB DUP2 MSTORE SWAP1 PUSH1 0x40 MSTORE DUP1 MLOAD SWAP1 PUSH1 0x20 ADD KECCAK256 DUP4 PUSH1 0x40 MLOAD PUSH1 0x20 ADD PUSH2 0x2A89 SWAP2 SWAP1 PUSH2 0x354C JUMP JUMPDEST PUSH1 0x40 MLOAD PUSH1 0x20 DUP2 DUP4 SUB SUB DUP2 MSTORE SWAP1 PUSH1 0x40 MSTORE DUP1 MLOAD SWAP1 PUSH1 0x20 ADD KECCAK256 EQ SWAP1 POP SWAP3 SWAP2 POP POP JUMP JUMPDEST DUP3 DUP1 SLOAD PUSH2 0x2AB4 SWAP1 PUSH2 0x3983 JUMP JUMPDEST SWAP1 PUSH1 0x0 MSTORE PUSH1 0x20 PUSH1 0x0 KECCAK256 SWAP1 PUSH1 0x1F ADD PUSH1 0x20 SWAP1 DIV DUP2 ADD SWAP3 DUP3 PUSH2 0x2AD6 JUMPI PUSH1 0x0 DUP6 SSTORE PUSH2 0x2B1D JUMP JUMPDEST DUP3 PUSH1 0x1F LT PUSH2 0x2AEF JUMPI DUP1 MLOAD PUSH1 0xFF NOT AND DUP4 DUP1 ADD OR DUP6 SSTORE PUSH2 0x2B1D JUMP JUMPDEST DUP3 DUP1 ADD PUSH1 0x1 ADD DUP6 SSTORE DUP3 ISZERO PUSH2 0x2B1D JUMPI SWAP2 DUP3 ADD JUMPDEST DUP3 DUP2 GT ISZERO PUSH2 0x2B1C JUMPI DUP3 MLOAD DUP3 SSTORE SWAP2 PUSH1 0x20 ADD SWAP2 SWAP1 PUSH1 0x1 ADD SWAP1 PUSH2 0x2B01 JUMP JUMPDEST JUMPDEST POP SWAP1 POP PUSH2 0x2B2A SWAP2 SWAP1 PUSH2 0x2B8E JUMP JUMPDEST POP SWAP1 JUMP JUMPDEST DUP3 DUP1 SLOAD DUP3 DUP3 SSTORE SWAP1 PUSH1 0x0 MSTORE PUSH1 0x20 PUSH1 0x0 KECCAK256 SWAP1 DUP2 ADD SWAP3 DUP3 ISZERO PUSH2 0x2B7D JUMPI SWAP2 PUSH1 0x20 MUL DUP3 ADD JUMPDEST DUP3 DUP2 GT ISZERO PUSH2 0x2B7C JUMPI DUP3 MLOAD DUP3 SWAP1 DUP1 MLOAD SWAP1 PUSH1 0x20 ADD SWAP1 PUSH2 0x2B6C SWAP3 SWAP2 SWAP1 PUSH2 0x2AA8 JUMP JUMPDEST POP SWAP2 PUSH1 0x20 ADD SWAP2 SWAP1 PUSH1 0x1 ADD SWAP1 PUSH2 0x2B4E JUMP JUMPDEST JUMPDEST POP SWAP1 POP PUSH2 0x2B8A SWAP2 SWAP1 PUSH2 0x2BAB JUMP JUMPDEST POP SWAP1 JUMP JUMPDEST JUMPDEST DUP1 DUP3 GT ISZERO PUSH2 0x2BA7 JUMPI PUSH1 0x0 DUP2 PUSH1 0x0 SWAP1 SSTORE POP PUSH1 0x1 ADD PUSH2 0x2B8F JUMP JUMPDEST POP SWAP1 JUMP JUMPDEST JUMPDEST DUP1 DUP3 GT ISZERO PUSH2 0x2BCB JUMPI PUSH1 0x0 DUP2 DUP2 PUSH2 0x2BC2 SWAP2 SWAP1 PUSH2 0x2BCF JUMP JUMPDEST POP PUSH1 0x1 ADD PUSH2 0x2BAC JUMP JUMPDEST POP SWAP1 JUMP JUMPDEST POP DUP1 SLOAD PUSH2 0x2BDB SWAP1 PUSH2 0x3983 JUMP JUMPDEST PUSH1 0x0 DUP3 SSTORE DUP1 PUSH1 0x1F LT PUSH2 0x2BED JUMPI POP PUSH2 0x2C0C JUMP JUMPDEST PUSH1 0x1F ADD PUSH1 0x20 SWAP1 DIV SWAP1 PUSH1 0x0 MSTORE PUSH1 0x20 PUSH1 0x0 KECCAK256 SWAP1 DUP2 ADD SWAP1 PUSH2 0x2C0B SWAP2 SWAP1 PUSH2 0x2B8E JUMP JUMPDEST JUMPDEST POP JUMP JUMPDEST PUSH1 0x0 PUSH2 0x2C22 PUSH2 0x2C1D DUP5 PUSH2 0x37C9 JUMP JUMPDEST PUSH2 0x37A4 JUMP JUMPDEST SWAP1 POP DUP3 DUP2 MSTORE PUSH1 0x20 DUP2 ADD DUP5 DUP5 DUP5 ADD GT ISZERO PUSH2 0x2C3E JUMPI PUSH2 0x2C3D PUSH2 0x3A78 JUMP JUMPDEST JUMPDEST PUSH2 0x2C49 DUP5 DUP3 DUP6 PUSH2 0x3941 JUMP JUMPDEST POP SWAP4 SWAP3 POP POP POP JUMP JUMPDEST PUSH1 0x0 DUP2 CALLDATALOAD SWAP1 POP PUSH2 0x2C60 DUP2 PUSH2 0x3BDD JUMP JUMPDEST SWAP3 SWAP2 POP POP JUMP JUMPDEST PUSH1 0x0 DUP2 CALLDATALOAD SWAP1 POP PUSH2 0x2C75 DUP2 PUSH2 0x3BF4 JUMP JUMPDEST SWAP3 SWAP2 POP POP JUMP JUMPDEST PUSH1 0x0 DUP2 CALLDATALOAD SWAP1 POP PUSH2 0x2C8A DUP2 PUSH2 0x3C0B JUMP JUMPDEST SWAP3 SWAP2 POP POP JUMP JUMPDEST PUSH1 0x0 DUP3 PUSH1 0x1F DUP4 ADD SLT PUSH2 0x2CA5 JUMPI PUSH2 0x2CA4 PUSH2 0x3A73 JUMP JUMPDEST JUMPDEST DUP2 CALLDATALOAD PUSH2 0x2CB5 DUP5 DUP3 PUSH1 0x20 DUP7 ADD PUSH2 0x2C0F JUMP JUMPDEST SWAP2 POP POP SWAP3 SWAP2 POP POP JUMP JUMPDEST PUSH1 0x0 PUSH1 0x20 DUP3 DUP5 SUB SLT ISZERO PUSH2 0x2CD4 JUMPI PUSH2 0x2CD3 PUSH2 0x3A82 JUMP JUMPDEST JUMPDEST PUSH1 0x0 PUSH2 0x2CE2 DUP5 DUP3 DUP6 ADD PUSH2 0x2C51 JUMP JUMPDEST SWAP2 POP POP SWAP3 SWAP2 POP POP JUMP JUMPDEST PUSH1 0x0 PUSH1 0x20 DUP3 DUP5 SUB SLT ISZERO PUSH2 0x2D01 JUMPI PUSH2 0x2D00 PUSH2 0x3A82 JUMP JUMPDEST JUMPDEST PUSH1 0x0 PUSH2 0x2D0F DUP5 DUP3 DUP6 ADD PUSH2 0x2C66 JUMP JUMPDEST SWAP2 POP POP SWAP3 SWAP2 POP POP JUMP JUMPDEST PUSH1 0x0 DUP1 PUSH1 0x0 PUSH1 0x60 DUP5 DUP7 SUB SLT ISZERO PUSH2 0x2D31 JUMPI PUSH2 0x2D30 PUSH2 0x3A82 JUMP JUMPDEST JUMPDEST PUSH1 0x0 PUSH2 0x2D3F DUP7 DUP3 DUP8 ADD PUSH2 0x2C51 JUMP JUMPDEST SWAP4 POP POP PUSH1 0x20 DUP5 ADD CALLDATALOAD PUSH8 0xFFFFFFFFFFFFFFFF DUP2 GT ISZERO PUSH2 0x2D60 JUMPI PUSH2 0x2D5F PUSH2 0x3A7D JUMP JUMPDEST JUMPDEST PUSH2 0x2D6C DUP7 DUP3 DUP8 ADD PUSH2 0x2C90 JUMP JUMPDEST SWAP3 POP POP PUSH1 0x40 DUP5 ADD CALLDATALOAD PUSH8 0xFFFFFFFFFFFFFFFF DUP2 GT ISZERO PUSH2 0x2D8D JUMPI PUSH2 0x2D8C PUSH2 0x3A7D JUMP JUMPDEST JUMPDEST PUSH2 0x2D99 DUP7 DUP3 DUP8 ADD PUSH2 0x2C90 JUMP JUMPDEST SWAP2 POP POP SWAP3 POP SWAP3 POP SWAP3 JUMP JUMPDEST PUSH1 0x0 DUP1 PUSH1 0x0 DUP1 PUSH1 0x0 DUP1 PUSH1 0xC0 DUP8 DUP10 SUB SLT ISZERO PUSH2 0x2DC0 JUMPI PUSH2 0x2DBF PUSH2 0x3A82 JUMP JUMPDEST JUMPDEST PUSH1 0x0 PUSH2 0x2DCE DUP10 DUP3 DUP11 ADD PUSH2 0x2C51 JUMP JUMPDEST SWAP7 POP POP PUSH1 0x20 DUP8 ADD CALLDATALOAD PUSH8 0xFFFFFFFFFFFFFFFF DUP2 GT ISZERO PUSH2 0x2DEF JUMPI PUSH2 0x2DEE PUSH2 0x3A7D JUMP JUMPDEST JUMPDEST PUSH2 0x2DFB DUP10 DUP3 DUP11 ADD PUSH2 0x2C90 JUMP JUMPDEST SWAP6 POP POP PUSH1 0x40 DUP8 ADD CALLDATALOAD PUSH8 0xFFFFFFFFFFFFFFFF DUP2 GT ISZERO PUSH2 0x2E1C JUMPI PUSH2 0x2E1B PUSH2 0x3A7D JUMP JUMPDEST JUMPDEST PUSH2 0x2E28 DUP10 DUP3 DUP11 ADD PUSH2 0x2C90 JUMP JUMPDEST SWAP5 POP POP PUSH1 0x60 PUSH2 0x2E39 DUP10 DUP3 DUP11 ADD PUSH2 0x2C7B JUMP JUMPDEST SWAP4 POP POP PUSH1 0x80 PUSH2 0x2E4A DUP10 DUP3 DUP11 ADD PUSH2 0x2C7B JUMP JUMPDEST SWAP3 POP POP PUSH1 0xA0 PUSH2 0x2E5B DUP10 DUP3 DUP11 ADD PUSH2 0x2C7B JUMP JUMPDEST SWAP2 POP POP SWAP3 SWAP6 POP SWAP3 SWAP6 POP SWAP3 SWAP6 JUMP JUMPDEST PUSH1 0x0 DUP1 PUSH1 0x0 DUP1 PUSH1 0x80 DUP6 DUP8 SUB SLT ISZERO PUSH2 0x2E82 JUMPI PUSH2 0x2E81 PUSH2 0x3A82 JUMP JUMPDEST JUMPDEST PUSH1 0x0 PUSH2 0x2E90 DUP8 DUP3 DUP9 ADD PUSH2 0x2C51 JUMP JUMPDEST SWAP5 POP POP PUSH1 0x20 DUP6 ADD CALLDATALOAD PUSH8 0xFFFFFFFFFFFFFFFF DUP2 GT ISZERO PUSH2 0x2EB1 JUMPI PUSH2 0x2EB0 PUSH2 0x3A7D JUMP JUMPDEST JUMPDEST PUSH2 0x2EBD DUP8 DUP3 DUP9 ADD PUSH2 0x2C90 JUMP JUMPDEST SWAP4 POP POP PUSH1 0x40 DUP6 ADD CALLDATALOAD PUSH8 0xFFFFFFFFFFFFFFFF DUP2 GT ISZERO PUSH2 0x2EDE JUMPI PUSH2 0x2EDD PUSH2 0x3A7D JUMP JUMPDEST JUMPDEST PUSH2 0x2EEA DUP8 DUP3 DUP9 ADD PUSH2 0x2C90 JUMP JUMPDEST SWAP3 POP POP PUSH1 0x60 DUP6 ADD CALLDATALOAD PUSH8 0xFFFFFFFFFFFFFFFF DUP2 GT ISZERO PUSH2 0x2F0B JUMPI PUSH2 0x2F0A PUSH2 0x3A7D JUMP JUMPDEST JUMPDEST PUSH2 0x2F17 DUP8 DUP3 DUP9 ADD PUSH2 0x2C90 JUMP JUMPDEST SWAP2 POP POP SWAP3 SWAP6 SWAP2 SWAP5 POP SWAP3 POP JUMP JUMPDEST PUSH1 0x0 PUSH1 0x20 DUP3 DUP5 SUB SLT ISZERO PUSH2 0x2F39 JUMPI PUSH2 0x2F38 PUSH2 0x3A82 JUMP JUMPDEST JUMPDEST PUSH1 0x0 DUP3 ADD CALLDATALOAD PUSH8 0xFFFFFFFFFFFFFFFF DUP2 GT ISZERO PUSH2 0x2F57 JUMPI PUSH2 0x2F56 PUSH2 0x3A7D JUMP JUMPDEST JUMPDEST PUSH2 0x2F63 DUP5 DUP3 DUP6 ADD PUSH2 0x2C90 JUMP JUMPDEST SWAP2 POP POP SWAP3 SWAP2 POP POP JUMP JUMPDEST PUSH1 0x0 DUP1 PUSH1 0x40 DUP4 DUP6 SUB SLT ISZERO PUSH2 0x2F83 JUMPI PUSH2 0x2F82 PUSH2 0x3A82 JUMP JUMPDEST JUMPDEST PUSH1 0x0 DUP4 ADD CALLDATALOAD PUSH8 0xFFFFFFFFFFFFFFFF DUP2 GT ISZERO PUSH2 0x2FA1 JUMPI PUSH2 0x2FA0 PUSH2 0x3A7D JUMP JUMPDEST JUMPDEST PUSH2 0x2FAD DUP6 DUP3 DUP7 ADD PUSH2 0x2C90 JUMP JUMPDEST SWAP3 POP POP PUSH1 0x20 PUSH2 0x2FBE DUP6 DUP3 DUP7 ADD PUSH2 0x2C51 JUMP JUMPDEST SWAP2 POP POP SWAP3 POP SWAP3 SWAP1 POP JUMP JUMPDEST PUSH1 0x0 DUP1 PUSH1 0x40 DUP4 DUP6 SUB SLT ISZERO PUSH2 0x2FDF JUMPI PUSH2 0x2FDE PUSH2 0x3A82 JUMP JUMPDEST JUMPDEST PUSH1 0x0 DUP4 ADD CALLDATALOAD PUSH8 0xFFFFFFFFFFFFFFFF DUP2 GT ISZERO PUSH2 0x2FFD JUMPI PUSH2 0x2FFC PUSH2 0x3A7D JUMP JUMPDEST JUMPDEST PUSH2 0x3009 DUP6 DUP3 DUP7 ADD PUSH2 0x2C90 JUMP JUMPDEST SWAP3 POP POP PUSH1 0x20 DUP4 ADD CALLDATALOAD PUSH8 0xFFFFFFFFFFFFFFFF DUP2 GT ISZERO PUSH2 0x302A JUMPI PUSH2 0x3029 PUSH2 0x3A7D JUMP JUMPDEST JUMPDEST PUSH2 0x3036 DUP6 DUP3 DUP7 ADD PUSH2 0x2C90 JUMP JUMPDEST SWAP2 POP POP SWAP3 POP SWAP3 SWAP1 POP JUMP JUMPDEST PUSH1 0x0 DUP1 PUSH1 0x0 PUSH1 0x60 DUP5 DUP7 SUB SLT ISZERO PUSH2 0x3059 JUMPI PUSH2 0x3058 PUSH2 0x3A82 JUMP JUMPDEST JUMPDEST PUSH1 0x0 DUP5 ADD CALLDATALOAD PUSH8 0xFFFFFFFFFFFFFFFF DUP2 GT ISZERO PUSH2 0x3077 JUMPI PUSH2 0x3076 PUSH2 0x3A7D JUMP JUMPDEST JUMPDEST PUSH2 0x3083 DUP7 DUP3 DUP8 ADD PUSH2 0x2C90 JUMP JUMPDEST SWAP4 POP POP PUSH1 0x20 DUP5 ADD CALLDATALOAD PUSH8 0xFFFFFFFFFFFFFFFF DUP2 GT ISZERO PUSH2 0x30A4 JUMPI PUSH2 0x30A3 PUSH2 0x3A7D JUMP JUMPDEST JUMPDEST PUSH2 0x30B0 DUP7 DUP3 DUP8 ADD PUSH2 0x2C90 JUMP JUMPDEST SWAP3 POP POP PUSH1 0x40 PUSH2 0x30C1 DUP7 DUP3 DUP8 ADD PUSH2 0x2C51 JUMP JUMPDEST SWAP2 POP POP SWAP3 POP SWAP3 POP SWAP3 JUMP JUMPDEST PUSH1 0x0 DUP1 PUSH1 0x0 DUP1 PUSH1 0x80 DUP6 DUP8 SUB SLT ISZERO PUSH2 0x30E5 JUMPI PUSH2 0x30E4 PUSH2 0x3A82 JUMP JUMPDEST JUMPDEST PUSH1 0x0 DUP6 ADD CALLDATALOAD PUSH8 0xFFFFFFFFFFFFFFFF DUP2 GT ISZERO PUSH2 0x3103 JUMPI PUSH2 0x3102 PUSH2 0x3A7D JUMP JUMPDEST JUMPDEST PUSH2 0x310F DUP8 DUP3 DUP9 ADD PUSH2 0x2C90 JUMP JUMPDEST SWAP5 POP POP PUSH1 0x20 DUP6 ADD CALLDATALOAD PUSH8 0xFFFFFFFFFFFFFFFF DUP2 GT ISZERO PUSH2 0x3130 JUMPI PUSH2 0x312F PUSH2 0x3A7D JUMP JUMPDEST JUMPDEST PUSH2 0x313C DUP8 DUP3 DUP9 ADD PUSH2 0x2C90 JUMP JUMPDEST SWAP4 POP POP PUSH1 0x40 PUSH2 0x314D DUP8 DUP3 DUP9 ADD PUSH2 0x2C51 JUMP JUMPDEST SWAP3 POP POP PUSH1 0x60 DUP6 ADD CALLDATALOAD PUSH8 0xFFFFFFFFFFFFFFFF DUP2 GT ISZERO PUSH2 0x316E JUMPI PUSH2 0x316D PUSH2 0x3A7D JUMP JUMPDEST JUMPDEST PUSH2 0x317A DUP8 DUP3 DUP9 ADD PUSH2 0x2C90 JUMP JUMPDEST SWAP2 POP POP SWAP3 SWAP6 SWAP2 SWAP5 POP SWAP3 POP JUMP JUMPDEST PUSH1 0x0 PUSH2 0x3192 DUP4 DUP4 PUSH2 0x31C6 JUMP JUMPDEST PUSH1 0x20 DUP4 ADD SWAP1 POP SWAP3 SWAP2 POP POP JUMP JUMPDEST PUSH1 0x0 PUSH2 0x31AA DUP4 DUP4 PUSH2 0x333B JUMP JUMPDEST SWAP1 POP SWAP3 SWAP2 POP POP JUMP JUMPDEST PUSH1 0x0 PUSH2 0x31BE DUP4 DUP4 PUSH2 0x34D3 JUMP JUMPDEST SWAP1 POP SWAP3 SWAP2 POP POP JUMP JUMPDEST PUSH2 0x31CF DUP2 PUSH2 0x38DD JUMP JUMPDEST DUP3 MSTORE POP POP JUMP JUMPDEST PUSH2 0x31DE DUP2 PUSH2 0x38DD JUMP JUMPDEST DUP3 MSTORE POP POP JUMP JUMPDEST PUSH1 0x0 PUSH2 0x31EF DUP3 PUSH2 0x382A JUMP JUMPDEST PUSH2 0x31F9 DUP2 DUP6 PUSH2 0x387D JUMP JUMPDEST SWAP4 POP PUSH2 0x3204 DUP4 PUSH2 0x37FA JUMP JUMPDEST DUP1 PUSH1 0x0 JUMPDEST DUP4 DUP2 LT ISZERO PUSH2 0x3235 JUMPI DUP2 MLOAD PUSH2 0x321C DUP9 DUP3 PUSH2 0x3186 JUMP JUMPDEST SWAP8 POP PUSH2 0x3227 DUP4 PUSH2 0x3856 JUMP JUMPDEST SWAP3 POP POP PUSH1 0x1 DUP2 ADD SWAP1 POP PUSH2 0x3208 JUMP JUMPDEST POP DUP6 SWAP4 POP POP POP POP SWAP3 SWAP2 POP POP JUMP JUMPDEST PUSH1 0x0 PUSH2 0x324D DUP3 PUSH2 0x3835 JUMP JUMPDEST PUSH2 0x3257 DUP2 DUP6 PUSH2 0x388E JUMP JUMPDEST SWAP4 POP DUP4 PUSH1 0x20 DUP3 MUL DUP6 ADD PUSH2 0x3269 DUP6 PUSH2 0x380A JUMP JUMPDEST DUP1 PUSH1 0x0 JUMPDEST DUP6 DUP2 LT ISZERO PUSH2 0x32A5 JUMPI DUP5 DUP5 SUB DUP10 MSTORE DUP2 MLOAD PUSH2 0x3286 DUP6 DUP3 PUSH2 0x319E JUMP JUMPDEST SWAP5 POP PUSH2 0x3291 DUP4 PUSH2 0x3863 JUMP JUMPDEST SWAP3 POP PUSH1 0x20 DUP11 ADD SWAP10 POP POP PUSH1 0x1 DUP2 ADD SWAP1 POP PUSH2 0x326D JUMP JUMPDEST POP DUP3 SWAP8 POP DUP8 SWAP6 POP POP POP POP POP POP SWAP3 SWAP2 POP POP JUMP JUMPDEST PUSH1 0x0 PUSH2 0x32C2 DUP3 PUSH2 0x3840 JUMP JUMPDEST PUSH2 0x32CC DUP2 DUP6 PUSH2 0x389F JUMP JUMPDEST SWAP4 POP DUP4 PUSH1 0x20 DUP3 MUL DUP6 ADD PUSH2 0x32DE DUP6 PUSH2 0x381A JUMP JUMPDEST DUP1 PUSH1 0x0 JUMPDEST DUP6 DUP2 LT ISZERO PUSH2 0x331A JUMPI DUP5 DUP5 SUB DUP10 MSTORE DUP2 MLOAD PUSH2 0x32FB DUP6 DUP3 PUSH2 0x31B2 JUMP JUMPDEST SWAP5 POP PUSH2 0x3306 DUP4 PUSH2 0x3870 JUMP JUMPDEST SWAP3 POP PUSH1 0x20 DUP11 ADD SWAP10 POP POP PUSH1 0x1 DUP2 ADD SWAP1 POP PUSH2 0x32E2 JUMP JUMPDEST POP DUP3 SWAP8 POP DUP8 SWAP6 POP POP POP POP POP POP SWAP3 SWAP2 POP POP JUMP JUMPDEST PUSH2 0x3335 DUP2 PUSH2 0x3901 JUMP JUMPDEST DUP3 MSTORE POP POP JUMP JUMPDEST PUSH1 0x0 PUSH2 0x3346 DUP3 PUSH2 0x384B JUMP JUMPDEST PUSH2 0x3350 DUP2 DUP6 PUSH2 0x38B0 JUMP JUMPDEST SWAP4 POP PUSH2 0x3360 DUP2 DUP6 PUSH1 0x20 DUP7 ADD PUSH2 0x3950 JUMP JUMPDEST PUSH2 0x3369 DUP2 PUSH2 0x3A87 JUMP JUMPDEST DUP5 ADD SWAP2 POP POP SWAP3 SWAP2 POP POP JUMP JUMPDEST PUSH1 0x0 PUSH2 0x337F DUP3 PUSH2 0x384B JUMP JUMPDEST PUSH2 0x3389 DUP2 DUP6 PUSH2 0x38C1 JUMP JUMPDEST SWAP4 POP PUSH2 0x3399 DUP2 DUP6 PUSH1 0x20 DUP7 ADD PUSH2 0x3950 JUMP JUMPDEST PUSH2 0x33A2 DUP2 PUSH2 0x3A87 JUMP JUMPDEST DUP5 ADD SWAP2 POP POP SWAP3 SWAP2 POP POP JUMP JUMPDEST PUSH1 0x0 PUSH2 0x33B8 DUP3 PUSH2 0x384B JUMP JUMPDEST PUSH2 0x33C2 DUP2 DUP6 PUSH2 0x38D2 JUMP JUMPDEST SWAP4 POP PUSH2 0x33D2 DUP2 DUP6 PUSH1 0x20 DUP7 ADD PUSH2 0x3950 JUMP JUMPDEST DUP1 DUP5 ADD SWAP2 POP POP SWAP3 SWAP2 POP POP JUMP JUMPDEST PUSH1 0x0 PUSH2 0x33EB PUSH1 0x22 DUP4 PUSH2 0x38C1 JUMP JUMPDEST SWAP2 POP PUSH2 0x33F6 DUP3 PUSH2 0x3A98 JUMP JUMPDEST PUSH1 0x40 DUP3 ADD SWAP1 POP SWAP2 SWAP1 POP JUMP JUMPDEST PUSH1 0x0 PUSH2 0x340E PUSH1 0xB DUP4 PUSH2 0x38C1 JUMP JUMPDEST SWAP2 POP PUSH2 0x3419 DUP3 PUSH2 0x3AE7 JUMP JUMPDEST PUSH1 0x20 DUP3 ADD SWAP1 POP SWAP2 SWAP1 POP JUMP JUMPDEST PUSH1 0x0 PUSH2 0x3431 PUSH1 0x9 DUP4 PUSH2 0x38C1 JUMP JUMPDEST SWAP2 POP PUSH2 0x343C DUP3 PUSH2 0x3B10 JUMP JUMPDEST PUSH1 0x20 DUP3 ADD SWAP1 POP SWAP2 SWAP1 POP JUMP JUMPDEST PUSH1 0x0 PUSH2 0x3454 PUSH1 0xC DUP4 PUSH2 0x38C1 JUMP JUMPDEST SWAP2 POP PUSH2 0x345F DUP3 PUSH2 0x3B39 JUMP JUMPDEST PUSH1 0x20 DUP3 ADD SWAP1 POP SWAP2 SWAP1 POP JUMP JUMPDEST PUSH1 0x0 PUSH2 0x3477 PUSH1 0xD DUP4 PUSH2 0x38C1 JUMP JUMPDEST SWAP2 POP PUSH2 0x3482 DUP3 PUSH2 0x3B62 JUMP JUMPDEST PUSH1 0x20 DUP3 ADD SWAP1 POP SWAP2 SWAP1 POP JUMP JUMPDEST PUSH1 0x0 PUSH2 0x349A PUSH1 0x16 DUP4 PUSH2 0x38C1 JUMP JUMPDEST SWAP2 POP PUSH2 0x34A5 DUP3 PUSH2 0x3B8B JUMP JUMPDEST PUSH1 0x20 DUP3 ADD SWAP1 POP SWAP2 SWAP1 POP JUMP JUMPDEST PUSH1 0x0 PUSH2 0x34BD PUSH1 0xB DUP4 PUSH2 0x38C1 JUMP JUMPDEST SWAP2 POP PUSH2 0x34C8 DUP3 PUSH2 0x3BB4 JUMP JUMPDEST PUSH1 0x20 DUP3 ADD SWAP1 POP SWAP2 SWAP1 POP JUMP JUMPDEST PUSH1 0x0 PUSH1 0x80 DUP4 ADD PUSH1 0x0 DUP4 ADD MLOAD PUSH2 0x34EB PUSH1 0x0 DUP7 ADD DUP3 PUSH2 0x31C6 JUMP JUMPDEST POP PUSH1 0x20 DUP4 ADD MLOAD DUP5 DUP3 SUB PUSH1 0x20 DUP7 ADD MSTORE PUSH2 0x3503 DUP3 DUP3 PUSH2 0x333B JUMP JUMPDEST SWAP2 POP POP PUSH1 0x40 DUP4 ADD MLOAD DUP5 DUP3 SUB PUSH1 0x40 DUP7 ADD MSTORE PUSH2 0x351D DUP3 DUP3 PUSH2 0x333B JUMP JUMPDEST SWAP2 POP POP PUSH1 0x60 DUP4 ADD MLOAD PUSH2 0x3532 PUSH1 0x60 DUP7 ADD DUP3 PUSH2 0x332C JUMP JUMPDEST POP DUP1 SWAP2 POP POP SWAP3 SWAP2 POP POP JUMP JUMPDEST PUSH2 0x3546 DUP2 PUSH2 0x3937 JUMP JUMPDEST DUP3 MSTORE POP POP JUMP JUMPDEST PUSH1 0x0 PUSH2 0x3558 DUP3 DUP5 PUSH2 0x33AD JUMP JUMPDEST SWAP2 POP DUP2 SWAP1 POP SWAP3 SWAP2 POP POP JUMP JUMPDEST PUSH1 0x0 PUSH1 0x40 DUP3 ADD SWAP1 POP PUSH2 0x3578 PUSH1 0x0 DUP4 ADD DUP6 PUSH2 0x31D5 JUMP JUMPDEST DUP2 DUP2 SUB PUSH1 0x20 DUP4 ADD MSTORE PUSH2 0x358A DUP2 DUP5 PUSH2 0x3374 JUMP JUMPDEST SWAP1 POP SWAP4 SWAP3 POP POP POP JUMP JUMPDEST PUSH1 0x0 PUSH1 0x80 DUP3 ADD SWAP1 POP DUP2 DUP2 SUB PUSH1 0x0 DUP4 ADD MSTORE PUSH2 0x35AD DUP2 DUP8 PUSH2 0x3374 JUMP JUMPDEST SWAP1 POP DUP2 DUP2 SUB PUSH1 0x20 DUP4 ADD MSTORE PUSH2 0x35C1 DUP2 DUP7 PUSH2 0x32B7 JUMP JUMPDEST SWAP1 POP DUP2 DUP2 SUB PUSH1 0x40 DUP4 ADD MSTORE PUSH2 0x35D5 DUP2 DUP6 PUSH2 0x3242 JUMP JUMPDEST SWAP1 POP DUP2 DUP2 SUB PUSH1 0x60 DUP4 ADD MSTORE PUSH2 0x35E9 DUP2 DUP5 PUSH2 0x31E4 JUMP JUMPDEST SWAP1 POP SWAP6 SWAP5 POP POP POP POP POP JUMP JUMPDEST PUSH1 0x0 PUSH1 0xA0 DUP3 ADD SWAP1 POP DUP2 DUP2 SUB PUSH1 0x0 DUP4 ADD MSTORE PUSH2 0x360E DUP2 DUP9 PUSH2 0x3374 JUMP JUMPDEST SWAP1 POP DUP2 DUP2 SUB PUSH1 0x20 DUP4 ADD MSTORE PUSH2 0x3622 DUP2 DUP8 PUSH2 0x3374 JUMP JUMPDEST SWAP1 POP DUP2 DUP2 SUB PUSH1 0x40 DUP4 ADD MSTORE PUSH2 0x3636 DUP2 DUP7 PUSH2 0x3374 JUMP JUMPDEST SWAP1 POP DUP2 DUP2 SUB PUSH1 0x60 DUP4 ADD MSTORE PUSH2 0x364A DUP2 DUP6 PUSH2 0x3374 JUMP JUMPDEST SWAP1 POP DUP2 DUP2 SUB PUSH1 0x80 DUP4 ADD MSTORE PUSH2 0x365E DUP2 DUP5 PUSH2 0x3242 JUMP JUMPDEST SWAP1 POP SWAP7 SWAP6 POP POP POP POP POP POP JUMP JUMPDEST PUSH1 0x0 PUSH1 0x80 DUP3 ADD SWAP1 POP DUP2 DUP2 SUB PUSH1 0x0 DUP4 ADD MSTORE PUSH2 0x3684 DUP2 DUP8 PUSH2 0x3374 JUMP JUMPDEST SWAP1 POP DUP2 DUP2 SUB PUSH1 0x20 DUP4 ADD MSTORE PUSH2 0x3698 DUP2 DUP7 PUSH2 0x3374 JUMP JUMPDEST SWAP1 POP PUSH2 0x36A7 PUSH1 0x40 DUP4 ADD DUP6 PUSH2 0x353D JUMP JUMPDEST DUP2 DUP2 SUB PUSH1 0x60 DUP4 ADD MSTORE PUSH2 0x36B9 DUP2 DUP5 PUSH2 0x3242 JUMP JUMPDEST SWAP1 POP SWAP6 SWAP5 POP POP POP POP POP JUMP JUMPDEST PUSH1 0x0 PUSH1 0x20 DUP3 ADD SWAP1 POP DUP2 DUP2 SUB PUSH1 0x0 DUP4 ADD MSTORE PUSH2 0x36DD DUP2 PUSH2 0x33DE JUMP JUMPDEST SWAP1 POP SWAP2 SWAP1 POP JUMP JUMPDEST PUSH1 0x0 PUSH1 0x20 DUP3 ADD SWAP1 POP DUP2 DUP2 SUB PUSH1 0x0 DUP4 ADD MSTORE PUSH2 0x36FD DUP2 PUSH2 0x3401 JUMP JUMPDEST SWAP1 POP SWAP2 SWAP1 POP JUMP JUMPDEST PUSH1 0x0 PUSH1 0x20 DUP3 ADD SWAP1 POP DUP2 DUP2 SUB PUSH1 0x0 DUP4 ADD MSTORE PUSH2 0x371D DUP2 PUSH2 0x3424 JUMP JUMPDEST SWAP1 POP SWAP2 SWAP1 POP JUMP JUMPDEST PUSH1 0x0 PUSH1 0x20 DUP3 ADD SWAP1 POP DUP2 DUP2 SUB PUSH1 0x0 DUP4 ADD MSTORE PUSH2 0x373D DUP2 PUSH2 0x3447 JUMP JUMPDEST SWAP1 POP SWAP2 SWAP1 POP JUMP JUMPDEST PUSH1 0x0 PUSH1 0x20 DUP3 ADD SWAP1 POP DUP2 DUP2 SUB PUSH1 0x0 DUP4 ADD MSTORE PUSH2 0x375D DUP2 PUSH2 0x346A JUMP JUMPDEST SWAP1 POP SWAP2 SWAP1 POP JUMP JUMPDEST PUSH1 0x0 PUSH1 0x20 DUP3 ADD SWAP1 POP DUP2 DUP2 SUB PUSH1 0x0 DUP4 ADD MSTORE PUSH2 0x377D DUP2 PUSH2 0x348D JUMP JUMPDEST SWAP1 POP SWAP2 SWAP1 POP JUMP JUMPDEST PUSH1 0x0 PUSH1 0x20 DUP3 ADD SWAP1 POP DUP2 DUP2 SUB PUSH1 0x0 DUP4 ADD MSTORE PUSH2 0x379D DUP2 PUSH2 0x34B0 JUMP JUMPDEST SWAP1 POP SWAP2 SWAP1 POP JUMP JUMPDEST PUSH1 0x0 PUSH2 0x37AE PUSH2 0x37BF JUMP JUMPDEST SWAP1 POP PUSH2 0x37BA DUP3 DUP3 PUSH2 0x39B5 JUMP JUMPDEST SWAP2 SWAP1 POP JUMP JUMPDEST PUSH1 0x0 PUSH1 0x40 MLOAD SWAP1 POP SWAP1 JUMP JUMPDEST PUSH1 0x0 PUSH8 0xFFFFFFFFFFFFFFFF DUP3 GT ISZERO PUSH2 0x37E4 JUMPI PUSH2 0x37E3 PUSH2 0x3A44 JUMP JUMPDEST JUMPDEST PUSH2 0x37ED DUP3 PUSH2 0x3A87 JUMP JUMPDEST SWAP1 POP PUSH1 0x20 DUP2 ADD SWAP1 POP SWAP2 SWAP1 POP JUMP JUMPDEST PUSH1 0x0 DUP2 SWAP1 POP PUSH1 0x20 DUP3 ADD SWAP1 POP SWAP2 SWAP1 POP JUMP JUMPDEST PUSH1 0x0 DUP2 SWAP1 POP PUSH1 0x20 DUP3 ADD SWAP1 POP SWAP2 SWAP1 POP JUMP JUMPDEST PUSH1 0x0 DUP2 SWAP1 POP PUSH1 0x20 DUP3 ADD SWAP1 POP SWAP2 SWAP1 POP JUMP JUMPDEST PUSH1 0x0 DUP2 MLOAD SWAP1 POP SWAP2 SWAP1 POP JUMP JUMPDEST PUSH1 0x0 DUP2 MLOAD SWAP1 POP SWAP2 SWAP1 POP JUMP JUMPDEST PUSH1 0x0 DUP2 MLOAD SWAP1 POP SWAP2 SWAP1 POP JUMP JUMPDEST PUSH1 0x0 DUP2 MLOAD SWAP1 POP SWAP2 SWAP1 POP JUMP JUMPDEST PUSH1 0x0 PUSH1 0x20 DUP3 ADD SWAP1 POP SWAP2 SWAP1 POP JUMP JUMPDEST PUSH1 0x0 PUSH1 0x20 DUP3 ADD SWAP1 POP SWAP2 SWAP1 POP JUMP JUMPDEST PUSH1 0x0 PUSH1 0x20 DUP3 ADD SWAP1 POP SWAP2 SWAP1 POP JUMP JUMPDEST PUSH1 0x0 DUP3 DUP3 MSTORE PUSH1 0x20 DUP3 ADD SWAP1 POP SWAP3 SWAP2 POP POP JUMP JUMPDEST PUSH1 0x0 DUP3 DUP3 MSTORE PUSH1 0x20 DUP3 ADD SWAP1 POP SWAP3 SWAP2 POP POP JUMP JUMPDEST PUSH1 0x0 DUP3 DUP3 MSTORE PUSH1 0x20 DUP3 ADD SWAP1 POP SWAP3 SWAP2 POP POP JUMP JUMPDEST PUSH1 0x0 DUP3 DUP3 MSTORE PUSH1 0x20 DUP3 ADD SWAP1 POP SWAP3 SWAP2 POP POP JUMP JUMPDEST PUSH1 0x0 DUP3 DUP3 MSTORE PUSH1 0x20 DUP3 ADD SWAP1 POP SWAP3 SWAP2 POP POP JUMP JUMPDEST PUSH1 0x0 DUP2 SWAP1 POP SWAP3 SWAP2 POP POP JUMP JUMPDEST PUSH1 0x0 PUSH2 0x38E8 DUP3 PUSH2 0x3917 JUMP JUMPDEST SWAP1 POP SWAP2 SWAP1 POP JUMP JUMPDEST PUSH1 0x0 PUSH2 0x38FA DUP3 PUSH2 0x3917 JUMP JUMPDEST SWAP1 POP SWAP2 SWAP1 POP JUMP JUMPDEST PUSH1 0x0 DUP2 ISZERO ISZERO SWAP1 POP SWAP2 SWAP1 POP JUMP JUMPDEST PUSH1 0x0 DUP2 SWAP1 POP SWAP2 SWAP1 POP JUMP JUMPDEST PUSH1 0x0 PUSH20 0xFFFFFFFFFFFFFFFFFFFFFFFFFFFFFFFFFFFFFFFF DUP3 AND SWAP1 POP SWAP2 SWAP1 POP JUMP JUMPDEST PUSH1 0x0 DUP2 SWAP1 POP SWAP2 SWAP1 POP JUMP JUMPDEST DUP3 DUP2 DUP4 CALLDATACOPY PUSH1 0x0 DUP4 DUP4 ADD MSTORE POP POP POP JUMP JUMPDEST PUSH1 0x0 JUMPDEST DUP4 DUP2 LT ISZERO PUSH2 0x396E JUMPI DUP1 DUP3 ADD MLOAD DUP2 DUP5 ADD MSTORE PUSH1 0x20 DUP2 ADD SWAP1 POP PUSH2 0x3953 JUMP JUMPDEST DUP4 DUP2 GT ISZERO PUSH2 0x397D JUMPI PUSH1 0x0 DUP5 DUP5 ADD MSTORE JUMPDEST POP POP POP POP JUMP JUMPDEST PUSH1 0x0 PUSH1 0x2 DUP3 DIV SWAP1 POP PUSH1 0x1 DUP3 AND DUP1 PUSH2 0x399B JUMPI PUSH1 0x7F DUP3 AND SWAP2 POP JUMPDEST PUSH1 0x20 DUP3 LT DUP2 EQ ISZERO PUSH2 0x39AF JUMPI PUSH2 0x39AE PUSH2 0x3A15 JUMP JUMPDEST JUMPDEST POP SWAP2 SWAP1 POP JUMP JUMPDEST PUSH2 0x39BE DUP3 PUSH2 0x3A87 JUMP JUMPDEST DUP2 ADD DUP2 DUP2 LT PUSH8 0xFFFFFFFFFFFFFFFF DUP3 GT OR ISZERO PUSH2 0x39DD JUMPI PUSH2 0x39DC PUSH2 0x3A44 JUMP JUMPDEST JUMPDEST DUP1 PUSH1 0x40 MSTORE POP POP POP JUMP JUMPDEST PUSH32 0x4E487B7100000000000000000000000000000000000000000000000000000000 PUSH1 0x0 MSTORE PUSH1 0x21 PUSH1 0x4 MSTORE PUSH1 0x24 PUSH1 0x0 REVERT JUMPDEST PUSH32 0x4E487B7100000000000000000000000000000000000000000000000000000000 PUSH1 0x0 MSTORE PUSH1 0x22 PUSH1 0x4 MSTORE PUSH1 0x24 PUSH1 0x0 REVERT JUMPDEST PUSH32 0x4E487B7100000000000000000000000000000000000000000000000000000000 PUSH1 0x0 MSTORE PUSH1 0x41 PUSH1 0x4 MSTORE PUSH1 0x24 PUSH1 0x0 REVERT JUMPDEST PUSH1 0x0 DUP1 REVERT JUMPDEST PUSH1 0x0 DUP1 REVERT JUMPDEST PUSH1 0x0 DUP1 REVERT JUMPDEST PUSH1 0x0 DUP1 REVERT JUMPDEST PUSH1 0x0 PUSH1 0x1F NOT PUSH1 0x1F DUP4 ADD AND SWAP1 POP SWAP2 SWAP1 POP JUMP JUMPDEST PUSH32 0x596F7572206C6F67696E20616C726561647920657869737420696E2073797374 PUSH1 0x0 DUP3 ADD MSTORE PUSH32 0x656D000000000000000000000000000000000000000000000000000000000000 PUSH1 0x20 DUP3 ADD MSTORE POP JUMP JUMPDEST PUSH32 0x4C6F772062616C616E6365000000000000000000000000000000000000000000 PUSH1 0x0 DUP3 ADD MSTORE POP JUMP JUMPDEST PUSH32 0x466F7262696464656E0000000000000000000000000000000000000000000000 PUSH1 0x0 DUP3 ADD MSTORE POP JUMP JUMPDEST PUSH32 0x596F75206E6F7420757365720000000000000000000000000000000000000000 PUSH1 0x0 DUP3 ADD MSTORE POP JUMP JUMPDEST PUSH32 0x596F75206E6F742061646D696E00000000000000000000000000000000000000 PUSH1 0x0 DUP3 ADD MSTORE POP JUMP JUMPDEST PUSH32 0x596F7520616C7265616479207265676973746572656400000000000000000000 PUSH1 0x0 DUP3 ADD MSTORE POP JUMP JUMPDEST PUSH32 0x57726F6E67204C6F67696E000000000000000000000000000000000000000000 PUSH1 0x0 DUP3 ADD MSTORE POP JUMP JUMPDEST PUSH2 0x3BE6 DUP2 PUSH2 0x38DD JUMP JUMPDEST DUP2 EQ PUSH2 0x3BF1 JUMPI PUSH1 0x0 DUP1 REVERT JUMPDEST POP JUMP JUMPDEST PUSH2 0x3BFD DUP2 PUSH2 0x38EF JUMP JUMPDEST DUP2 EQ PUSH2 0x3C08 JUMPI PUSH1 0x0 DUP1 REVERT JUMPDEST POP JUMP JUMPDEST PUSH2 0x3C14 DUP2 PUSH2 0x390D JUMP JUMPDEST DUP2 EQ PUSH2 0x3C1F JUMPI PUSH1 0x0 DUP1 REVERT JUMPDEST POP JUMP INVALID LOG2 PUSH5 0x6970667358 0x22 SLT KECCAK256 0xE5 0x4E PUSH16 0x6FC1962E32139690646A679FD66C55BF 0x1F 0xDF 0xA6 0x4D 0xEF 0xE 0x2A CALLER 0xCF SWAP9 DUP13 0x5C 0xDB PUSH5 0x736F6C6343 STOP ADDMOD SMOD STOP CALLER "
				},
				"gasEstimates": {
					"creation": {
						"codeDepositCost": "3089600",
						"executionCost": "infinite",
						"totalCost": "infinite"
					},
					"external": {
						"createReview(address,string,string,int256,int256,int256)": "infinite",
						"doShopDebt(address)": "infinite",
						"getAdminInfo()": "infinite",
						"getBuyerInfo()": "infinite",
						"getSellerInfo()": "infinite",
						"getSellerInfoByAddr(address)": "infinite",
						"likeReview(string)": "infinite",
						"login(string)": "infinite",
						"regAdmin(address,string,string)": "infinite",
						"registerAdmin(string,string)": "infinite",
						"registerBank(string,address)": "infinite",
						"registerBuyer(string,string,address)": "infinite",
						"registerProvider(string,address)": "infinite",
						"registerSeller(string,string,address,string)": "infinite",
						"registerShop(address,string,string,string)": "infinite"
					}
				},
				"methodIdentifiers": {
					"createReview(address,string,string,int256,int256,int256)": "3a708737",
					"doShopDebt(address)": "83db0f6d",
					"getAdminInfo()": "c3d5fd39",
					"getBuyerInfo()": "99b958ee",
					"getSellerInfo()": "54504c12",
					"getSellerInfoByAddr(address)": "08e74858",
					"likeReview(string)": "7b3c7488",
					"login(string)": "3a7d280c",
					"regAdmin(address,string,string)": "a59d105f",
					"registerAdmin(string,string)": "f8f98b79",
					"registerBank(string,address)": "2156a781",
					"registerBuyer(string,string,address)": "9d344d10",
					"registerProvider(string,address)": "7ccb2bd8",
					"registerSeller(string,string,address,string)": "824ef9a7",
					"registerShop(address,string,string,string)": "7558b2f8"
				}
			},
			"storageLayout": {
				"storage": [
					{
						"astId": 35,
						"contract": "contracts/Shops.sol:ShopsSystem",
						"label": "userStatus",
						"offset": 0,
						"slot": "0",
						"type": "t_mapping(t_uint256,t_string_storage)"
					},
					{
						"astId": 39,
						"contract": "contracts/Shops.sol:ShopsSystem",
						"label": "userLogins",
						"offset": 0,
						"slot": "1",
						"type": "t_mapping(t_string_memory_ptr,t_address)"
					},
					{
						"astId": 44,
						"contract": "contracts/Shops.sol:ShopsSystem",
						"label": "users",
						"offset": 0,
						"slot": "2",
						"type": "t_mapping(t_address,t_struct(User)31_storage)"
					},
					{
						"astId": 333,
						"contract": "contracts/Shops.sol:ShopsSystem",
						"label": "provider",
						"offset": 0,
						"slot": "3",
						"type": "t_address"
					},
					{
						"astId": 335,
						"contract": "contracts/Shops.sol:ShopsSystem",
						"label": "admin",
						"offset": 0,
						"slot": "4",
						"type": "t_address"
					},
					{
						"astId": 338,
						"contract": "contracts/Shops.sol:ShopsSystem",
						"label": "admins",
						"offset": 0,
						"slot": "5",
						"type": "t_array(t_string_storage)dyn_storage"
					},
					{
						"astId": 340,
						"contract": "contracts/Shops.sol:ShopsSystem",
						"label": "bank",
						"offset": 0,
						"slot": "6",
						"type": "t_address_payable"
					},
					{
						"astId": 343,
						"contract": "contracts/Shops.sol:ShopsSystem",
						"label": "sellers",
						"offset": 0,
						"slot": "7",
						"type": "t_array(t_address)dyn_storage"
					},
					{
						"astId": 346,
						"contract": "contracts/Shops.sol:ShopsSystem",
						"label": "shopsAddresses",
						"offset": 0,
						"slot": "8",
						"type": "t_array(t_address)dyn_storage"
					},
					{
						"astId": 350,
						"contract": "contracts/Shops.sol:ShopsSystem",
						"label": "requests",
						"offset": 0,
						"slot": "9",
						"type": "t_array(t_struct(Request)329_storage)dyn_storage"
					},
					{
						"astId": 355,
						"contract": "contracts/Shops.sol:ShopsSystem",
						"label": "ShopsList",
						"offset": 0,
						"slot": "10",
						"type": "t_mapping(t_address,t_struct(Shop)320_storage)"
					},
					{
						"astId": 359,
						"contract": "contracts/Shops.sol:ShopsSystem",
						"label": "salesmanShop",
						"offset": 0,
						"slot": "11",
						"type": "t_mapping(t_address,t_address)"
					},
					{
						"astId": 364,
						"contract": "contracts/Shops.sol:ShopsSystem",
						"label": "salesmen",
						"offset": 0,
						"slot": "12",
						"type": "t_mapping(t_address,t_array(t_address)dyn_storage)"
					},
					{
						"astId": 369,
						"contract": "contracts/Shops.sol:ShopsSystem",
						"label": "shopReviews",
						"offset": 0,
						"slot": "13",
						"type": "t_mapping(t_address,t_array(t_string_storage)dyn_storage)"
					},
					{
						"astId": 374,
						"contract": "contracts/Shops.sol:ShopsSystem",
						"label": "reviewId",
						"offset": 0,
						"slot": "14",
						"type": "t_mapping(t_string_memory_ptr,t_struct(Review)21_storage)"
					}
				],
				"types": {
					"t_address": {
						"encoding": "inplace",
						"label": "address",
						"numberOfBytes": "20"
					},
					"t_address_payable": {
						"encoding": "inplace",
						"label": "address payable",
						"numberOfBytes": "20"
					},
					"t_array(t_address)dyn_storage": {
						"base": "t_address",
						"encoding": "dynamic_array",
						"label": "address[]",
						"numberOfBytes": "32"
					},
					"t_array(t_string_storage)dyn_storage": {
						"base": "t_string_storage",
						"encoding": "dynamic_array",
						"label": "string[]",
						"numberOfBytes": "32"
					},
					"t_array(t_struct(Request)329_storage)dyn_storage": {
						"base": "t_struct(Request)329_storage",
						"encoding": "dynamic_array",
						"label": "struct Request[]",
						"numberOfBytes": "32"
					},
					"t_bool": {
						"encoding": "inplace",
						"label": "bool",
						"numberOfBytes": "1"
					},
					"t_int256": {
						"encoding": "inplace",
						"label": "int256",
						"numberOfBytes": "32"
					},
					"t_mapping(t_address,t_address)": {
						"encoding": "mapping",
						"key": "t_address",
						"label": "mapping(address => address)",
						"numberOfBytes": "32",
						"value": "t_address"
					},
					"t_mapping(t_address,t_array(t_address)dyn_storage)": {
						"encoding": "mapping",
						"key": "t_address",
						"label": "mapping(address => address[])",
						"numberOfBytes": "32",
						"value": "t_array(t_address)dyn_storage"
					},
					"t_mapping(t_address,t_array(t_string_storage)dyn_storage)": {
						"encoding": "mapping",
						"key": "t_address",
						"label": "mapping(address => string[])",
						"numberOfBytes": "32",
						"value": "t_array(t_string_storage)dyn_storage"
					},
					"t_mapping(t_address,t_struct(Shop)320_storage)": {
						"encoding": "mapping",
						"key": "t_address",
						"label": "mapping(address => struct Shop)",
						"numberOfBytes": "32",
						"value": "t_struct(Shop)320_storage"
					},
					"t_mapping(t_address,t_struct(User)31_storage)": {
						"encoding": "mapping",
						"key": "t_address",
						"label": "mapping(address => struct User)",
						"numberOfBytes": "32",
						"value": "t_struct(User)31_storage"
					},
					"t_mapping(t_string_memory_ptr,t_address)": {
						"encoding": "mapping",
						"key": "t_string_memory_ptr",
						"label": "mapping(string => address)",
						"numberOfBytes": "32",
						"value": "t_address"
					},
					"t_mapping(t_string_memory_ptr,t_struct(Review)21_storage)": {
						"encoding": "mapping",
						"key": "t_string_memory_ptr",
						"label": "mapping(string => struct Review)",
						"numberOfBytes": "32",
						"value": "t_struct(Review)21_storage"
					},
					"t_mapping(t_uint256,t_string_storage)": {
						"encoding": "mapping",
						"key": "t_uint256",
						"label": "mapping(uint256 => string)",
						"numberOfBytes": "32",
						"value": "t_string_storage"
					},
					"t_string_memory_ptr": {
						"encoding": "bytes",
						"label": "string",
						"numberOfBytes": "32"
					},
					"t_string_storage": {
						"encoding": "bytes",
						"label": "string",
						"numberOfBytes": "32"
					},
					"t_struct(Request)329_storage": {
						"encoding": "inplace",
						"label": "struct Request",
						"members": [
							{
								"astId": 322,
								"contract": "contracts/Shops.sol:ShopsSystem",
								"label": "userAddr",
								"offset": 0,
								"slot": "0",
								"type": "t_address"
							},
							{
								"astId": 324,
								"contract": "contracts/Shops.sol:ShopsSystem",
								"label": "currentRole",
								"offset": 0,
								"slot": "1",
								"type": "t_string_storage"
							},
							{
								"astId": 326,
								"contract": "contracts/Shops.sol:ShopsSystem",
								"label": "desiredRole",
								"offset": 0,
								"slot": "2",
								"type": "t_string_storage"
							},
							{
								"astId": 328,
								"contract": "contracts/Shops.sol:ShopsSystem",
								"label": "checked",
								"offset": 0,
								"slot": "3",
								"type": "t_bool"
							}
						],
						"numberOfBytes": "128"
					},
					"t_struct(Review)21_storage": {
						"encoding": "inplace",
						"label": "struct Review",
						"members": [
							{
								"astId": 10,
								"contract": "contracts/Shops.sol:ShopsSystem",
								"label": "autorAddress",
								"offset": 0,
								"slot": "0",
								"type": "t_address"
							},
							{
								"astId": 12,
								"contract": "contracts/Shops.sol:ShopsSystem",
								"label": "shopAddr",
								"offset": 0,
								"slot": "1",
								"type": "t_address"
							},
							{
								"astId": 14,
								"contract": "contracts/Shops.sol:ShopsSystem",
								"label": "message",
								"offset": 0,
								"slot": "2",
								"type": "t_string_storage"
							},
							{
								"astId": 16,
								"contract": "contracts/Shops.sol:ShopsSystem",
								"label": "likeCount",
								"offset": 0,
								"slot": "3",
								"type": "t_int256"
							},
							{
								"astId": 18,
								"contract": "contracts/Shops.sol:ShopsSystem",
								"label": "dizlikeCount",
								"offset": 0,
								"slot": "4",
								"type": "t_int256"
							},
							{
								"astId": 20,
								"contract": "contracts/Shops.sol:ShopsSystem",
								"label": "grade",
								"offset": 0,
								"slot": "5",
								"type": "t_int256"
							}
						],
						"numberOfBytes": "192"
					},
					"t_struct(Shop)320_storage": {
						"encoding": "inplace",
						"label": "struct Shop",
						"members": [
							{
								"astId": 315,
								"contract": "contracts/Shops.sol:ShopsSystem",
								"label": "number",
								"offset": 0,
								"slot": "0",
								"type": "t_string_storage"
							},
							{
								"astId": 317,
								"contract": "contracts/Shops.sol:ShopsSystem",
								"label": "city",
								"offset": 0,
								"slot": "1",
								"type": "t_string_storage"
							},
							{
								"astId": 319,
								"contract": "contracts/Shops.sol:ShopsSystem",
								"label": "debt",
								"offset": 0,
								"slot": "2",
								"type": "t_int256"
							}
						],
						"numberOfBytes": "96"
					},
					"t_struct(User)31_storage": {
						"encoding": "inplace",
						"label": "struct User",
						"members": [
							{
								"astId": 23,
								"contract": "contracts/Shops.sol:ShopsSystem",
								"label": "status",
								"offset": 0,
								"slot": "0",
								"type": "t_uint256"
							},
							{
								"astId": 25,
								"contract": "contracts/Shops.sol:ShopsSystem",
								"label": "userLogin",
								"offset": 0,
								"slot": "1",
								"type": "t_string_storage"
							},
							{
								"astId": 27,
								"contract": "contracts/Shops.sol:ShopsSystem",
								"label": "fio",
								"offset": 0,
								"slot": "2",
								"type": "t_string_storage"
							},
							{
								"astId": 30,
								"contract": "contracts/Shops.sol:ShopsSystem",
								"label": "reviews",
								"offset": 0,
								"slot": "3",
								"type": "t_array(t_string_storage)dyn_storage"
							}
						],
						"numberOfBytes": "128"
					},
					"t_uint256": {
						"encoding": "inplace",
						"label": "uint256",
						"numberOfBytes": "32"
					}
				}
			},
			"userdoc": {
				"kind": "user",
				"methods": {},
				"version": 1
			}
		}
	}
}