{
	"contracts/Colhoz.sol": {
		"Colhoz": {
			"abi": [
				{
					"inputs": [
						{
							"components": [
								{
									"internalType": "address",
									"name": "userAddr",
									"type": "address"
								},
								{
									"internalType": "string",
									"name": "login",
									"type": "string"
								},
								{
									"internalType": "string",
									"name": "password",
									"type": "string"
								},
								{
									"internalType": "string",
									"name": "fio",
									"type": "string"
								},
								{
									"internalType": "string",
									"name": "status",
									"type": "string"
								}
							],
							"internalType": "struct User",
							"name": "admin",
							"type": "tuple"
						}
					],
					"name": "add_admin",
					"outputs": [],
					"stateMutability": "nonpayable",
					"type": "function"
				},
				{
					"inputs": [
						{
							"components": [
								{
									"internalType": "address",
									"name": "userAddr",
									"type": "address"
								},
								{
									"internalType": "string",
									"name": "login",
									"type": "string"
								},
								{
									"internalType": "string",
									"name": "password",
									"type": "string"
								},
								{
									"internalType": "string",
									"name": "fio",
									"type": "string"
								},
								{
									"internalType": "string",
									"name": "status",
									"type": "string"
								}
							],
							"internalType": "struct User",
							"name": "user",
							"type": "tuple"
						}
					],
					"name": "add_buyer",
					"outputs": [],
					"stateMutability": "nonpayable",
					"type": "function"
				},
				{
					"inputs": [],
					"name": "bank",
					"outputs": [
						{
							"internalType": "address",
							"name": "",
							"type": "address"
						}
					],
					"stateMutability": "view",
					"type": "function"
				},
				{
					"inputs": [
						{
							"internalType": "uint256",
							"name": "index",
							"type": "uint256"
						}
					],
					"name": "delete_admin",
					"outputs": [],
					"stateMutability": "nonpayable",
					"type": "function"
				},
				{
					"inputs": [],
					"name": "get_buyers",
					"outputs": [
						{
							"components": [
								{
									"internalType": "address",
									"name": "userAddr",
									"type": "address"
								},
								{
									"internalType": "string",
									"name": "login",
									"type": "string"
								},
								{
									"internalType": "string",
									"name": "password",
									"type": "string"
								},
								{
									"internalType": "string",
									"name": "fio",
									"type": "string"
								},
								{
									"internalType": "string",
									"name": "status",
									"type": "string"
								}
							],
							"internalType": "struct User[]",
							"name": "",
							"type": "tuple[]"
						}
					],
					"stateMutability": "view",
					"type": "function"
				},
				{
					"inputs": [],
					"name": "provider",
					"outputs": [
						{
							"internalType": "address",
							"name": "",
							"type": "address"
						}
					],
					"stateMutability": "view",
					"type": "function"
				},
				{
					"inputs": [
						{
							"internalType": "uint256",
							"name": "index",
							"type": "uint256"
						}
					],
					"name": "remove_buyer",
					"outputs": [],
					"stateMutability": "nonpayable",
					"type": "function"
				},
				{
					"inputs": [
						{
							"internalType": "address",
							"name": "_bank",
							"type": "address"
						}
					],
					"name": "set_bank",
					"outputs": [],
					"stateMutability": "nonpayable",
					"type": "function"
				},
				{
					"inputs": [
						{
							"internalType": "address",
							"name": "_provider",
							"type": "address"
						}
					],
					"name": "set_provider",
					"outputs": [],
					"stateMutability": "nonpayable",
					"type": "function"
				},
				{
					"inputs": [
						{
							"internalType": "uint256",
							"name": "index",
							"type": "uint256"
						},
						{
							"components": [
								{
									"internalType": "address",
									"name": "userAddr",
									"type": "address"
								},
								{
									"internalType": "string",
									"name": "login",
									"type": "string"
								},
								{
									"internalType": "string",
									"name": "password",
									"type": "string"
								},
								{
									"internalType": "string",
									"name": "fio",
									"type": "string"
								},
								{
									"internalType": "string",
									"name": "status",
									"type": "string"
								}
							],
							"internalType": "struct User",
							"name": "user",
							"type": "tuple"
						}
					],
					"name": "update_buyer",
					"outputs": [],
					"stateMutability": "nonpayable",
					"type": "function"
				}
			],
			"devdoc": {
				"kind": "dev",
				"methods": {},
				"version": 1
			},
			"evm": {
				"assembly": "    /* \"contracts/Colhoz.sol\":612:1934  contract Colhoz{... */\n  mstore(0x40, 0x80)\n  callvalue\n  dup1\n  iszero\n  tag_1\n  jumpi\n  0x00\n  dup1\n  revert\ntag_1:\n  pop\n  dataSize(sub_0)\n  dup1\n  dataOffset(sub_0)\n  0x00\n  codecopy\n  0x00\n  return\nstop\n\nsub_0: assembly {\n        /* \"contracts/Colhoz.sol\":612:1934  contract Colhoz{... */\n      mstore(0x40, 0x80)\n      callvalue\n      dup1\n      iszero\n      tag_1\n      jumpi\n      0x00\n      dup1\n      revert\n    tag_1:\n      pop\n      jumpi(tag_2, lt(calldatasize, 0x04))\n      shr(0xe0, calldataload(0x00))\n      dup1\n      0xb29f04fe\n      gt\n      tag_13\n      jumpi\n      dup1\n      0xb29f04fe\n      eq\n      tag_8\n      jumpi\n      dup1\n      0xb5c64e2a\n      eq\n      tag_9\n      jumpi\n      dup1\n      0xb78842ee\n      eq\n      tag_10\n      jumpi\n      dup1\n      0xdacf64e2\n      eq\n      tag_11\n      jumpi\n      dup1\n      0xf73c5683\n      eq\n      tag_12\n      jumpi\n      jump(tag_2)\n    tag_13:\n      dup1\n      0x085d4883\n      eq\n      tag_3\n      jumpi\n      dup1\n      0x76cdb03b\n      eq\n      tag_4\n      jumpi\n      dup1\n      0x827b0348\n      eq\n      tag_5\n      jumpi\n      dup1\n      0x856c799d\n      eq\n      tag_6\n      jumpi\n      dup1\n      0x98168b94\n      eq\n      tag_7\n      jumpi\n    tag_2:\n      0x00\n      dup1\n      revert\n        /* \"contracts/Colhoz.sol\":634:657  address public provider */\n    tag_3:\n      tag_14\n      tag_15\n      jump\t// in\n    tag_14:\n      mload(0x40)\n      tag_16\n      swap2\n      swap1\n      tag_17\n      jump\t// in\n    tag_16:\n      mload(0x40)\n      dup1\n      swap2\n      sub\n      swap1\n      return\n        /* \"contracts/Colhoz.sol\":663:682  address public bank */\n    tag_4:\n      tag_18\n      tag_19\n      jump\t// in\n    tag_18:\n      mload(0x40)\n      tag_20\n      swap2\n      swap1\n      tag_17\n      jump\t// in\n    tag_20:\n      mload(0x40)\n      dup1\n      swap2\n      sub\n      swap1\n      return\n        /* \"contracts/Colhoz.sol\":996:1082  function get_buyers() public view returns(User[] memory){... */\n    tag_5:\n      tag_21\n      tag_22\n      jump\t// in\n    tag_21:\n      mload(0x40)\n      tag_23\n      swap2\n      swap1\n      tag_24\n      jump\t// in\n    tag_23:\n      mload(0x40)\n      dup1\n      swap2\n      sub\n      swap1\n      return\n        /* \"contracts/Colhoz.sol\":1088:1166  function add_buyer(User memory user) public {... */\n    tag_6:\n      tag_25\n      0x04\n      dup1\n      calldatasize\n      sub\n      dup2\n      add\n      swap1\n      tag_26\n      swap2\n      swap1\n      tag_27\n      jump\t// in\n    tag_26:\n      tag_28\n      jump\t// in\n    tag_25:\n      stop\n        /* \"contracts/Colhoz.sol\":1256:1351  function update_buyer(uint index,User memory user) public {... */\n    tag_7:\n      tag_29\n      0x04\n      dup1\n      calldatasize\n      sub\n      dup2\n      add\n      swap1\n      tag_30\n      swap2\n      swap1\n      tag_31\n      jump\t// in\n    tag_30:\n      tag_32\n      jump\t// in\n    tag_29:\n      stop\n        /* \"contracts/Colhoz.sol\":825:910  function set_provider(address _provider) public {... */\n    tag_8:\n      tag_33\n      0x04\n      dup1\n      calldatasize\n      sub\n      dup2\n      add\n      swap1\n      tag_34\n      swap2\n      swap1\n      tag_35\n      jump\t// in\n    tag_34:\n      tag_36\n      jump\t// in\n    tag_33:\n      stop\n        /* \"contracts/Colhoz.sol\":1443:1521  function delete_admin(uint index) public {... */\n    tag_9:\n      tag_37\n      0x04\n      dup1\n      calldatasize\n      sub\n      dup2\n      add\n      swap1\n      tag_38\n      swap2\n      swap1\n      tag_39\n      jump\t// in\n    tag_38:\n      tag_40\n      jump\t// in\n    tag_37:\n      stop\n        /* \"contracts/Colhoz.sol\":1172:1250  function remove_buyer(uint index) public {... */\n    tag_10:\n      tag_41\n      0x04\n      dup1\n      calldatasize\n      sub\n      dup2\n      add\n      swap1\n      tag_42\n      swap2\n      swap1\n      tag_39\n      jump\t// in\n    tag_42:\n      tag_43\n      jump\t// in\n    tag_41:\n      stop\n        /* \"contracts/Colhoz.sol\":920:989  function set_bank(address _bank) public {... */\n    tag_11:\n      tag_44\n      0x04\n      dup1\n      calldatasize\n      sub\n      dup2\n      add\n      swap1\n      tag_45\n      swap2\n      swap1\n      tag_35\n      jump\t// in\n    tag_45:\n      tag_46\n      jump\t// in\n    tag_44:\n      stop\n        /* \"contracts/Colhoz.sol\":1357:1437  function add_admin(User memory admin) public {... */\n    tag_12:\n      tag_47\n      0x04\n      dup1\n      calldatasize\n      sub\n      dup2\n      add\n      swap1\n      tag_48\n      swap2\n      swap1\n      tag_27\n      jump\t// in\n    tag_48:\n      tag_49\n      jump\t// in\n    tag_47:\n      stop\n        /* \"contracts/Colhoz.sol\":634:657  address public provider */\n    tag_15:\n      0x00\n      dup1\n      sload\n      swap1\n      0x0100\n      exp\n      swap1\n      div\n      0xffffffffffffffffffffffffffffffffffffffff\n      and\n      dup2\n      jump\t// out\n        /* \"contracts/Colhoz.sol\":663:682  address public bank */\n    tag_19:\n      0x01\n      0x00\n      swap1\n      sload\n      swap1\n      0x0100\n      exp\n      swap1\n      div\n      0xffffffffffffffffffffffffffffffffffffffff\n      and\n      dup2\n      jump\t// out\n        /* \"contracts/Colhoz.sol\":996:1082  function get_buyers() public view returns(User[] memory){... */\n    tag_22:\n        /* \"contracts/Colhoz.sol\":1038:1051  User[] memory */\n      0x60\n        /* \"contracts/Colhoz.sol\":1069:1075  buyers */\n      0x02\n        /* \"contracts/Colhoz.sol\":1062:1075  return buyers */\n      dup1\n      sload\n      dup1\n      0x20\n      mul\n      0x20\n      add\n      mload(0x40)\n      swap1\n      dup2\n      add\n      0x40\n      mstore\n      dup1\n      swap3\n      swap2\n      swap1\n      dup2\n      dup2\n      mstore\n      0x20\n      add\n      0x00\n      swap1\n    tag_51:\n      dup3\n      dup3\n      lt\n      iszero\n      tag_52\n      jumpi\n      dup4\n      dup3\n      swap1\n      0x00\n      mstore\n      keccak256(0x00, 0x20)\n      swap1\n      0x05\n      mul\n      add\n      mload(0x40)\n      dup1\n      0xa0\n      add\n      0x40\n      mstore\n      swap1\n      dup2\n      0x00\n      dup3\n      add\n      0x00\n      swap1\n      sload\n      swap1\n      0x0100\n      exp\n      swap1\n      div\n      0xffffffffffffffffffffffffffffffffffffffff\n      and\n      0xffffffffffffffffffffffffffffffffffffffff\n      and\n      0xffffffffffffffffffffffffffffffffffffffff\n      and\n      dup2\n      mstore\n      0x20\n      add\n      0x01\n      dup3\n      add\n      dup1\n      sload\n      tag_54\n      swap1\n      tag_55\n      jump\t// in\n    tag_54:\n      dup1\n      0x1f\n      add\n      0x20\n      dup1\n      swap2\n      div\n      mul\n      0x20\n      add\n      mload(0x40)\n      swap1\n      dup2\n      add\n      0x40\n      mstore\n      dup1\n      swap3\n      swap2\n      swap1\n      dup2\n      dup2\n      mstore\n      0x20\n      add\n      dup3\n      dup1\n      sload\n      tag_56\n      swap1\n      tag_55\n      jump\t// in\n    tag_56:\n      dup1\n      iszero\n      tag_57\n      jumpi\n      dup1\n      0x1f\n      lt\n      tag_58\n      jumpi\n      0x0100\n      dup1\n      dup4\n      sload\n      div\n      mul\n      dup4\n      mstore\n      swap2\n      0x20\n      add\n      swap2\n      jump(tag_57)\n    tag_58:\n      dup3\n      add\n      swap2\n      swap1\n      0x00\n      mstore\n      keccak256(0x00, 0x20)\n      swap1\n    tag_59:\n      dup2\n      sload\n      dup2\n      mstore\n      swap1\n      0x01\n      add\n      swap1\n      0x20\n      add\n      dup1\n      dup4\n      gt\n      tag_59\n      jumpi\n      dup3\n      swap1\n      sub\n      0x1f\n      and\n      dup3\n      add\n      swap2\n    tag_57:\n      pop\n      pop\n      pop\n      pop\n      pop\n      dup2\n      mstore\n      0x20\n      add\n      0x02\n      dup3\n      add\n      dup1\n      sload\n      tag_60\n      swap1\n      tag_55\n      jump\t// in\n    tag_60:\n      dup1\n      0x1f\n      add\n      0x20\n      dup1\n      swap2\n      div\n      mul\n      0x20\n      add\n      mload(0x40)\n      swap1\n      dup2\n      add\n      0x40\n      mstore\n      dup1\n      swap3\n      swap2\n      swap1\n      dup2\n      dup2\n      mstore\n      0x20\n      add\n      dup3\n      dup1\n      sload\n      tag_61\n      swap1\n      tag_55\n      jump\t// in\n    tag_61:\n      dup1\n      iszero\n      tag_62\n      jumpi\n      dup1\n      0x1f\n      lt\n      tag_63\n      jumpi\n      0x0100\n      dup1\n      dup4\n      sload\n      div\n      mul\n      dup4\n      mstore\n      swap2\n      0x20\n      add\n      swap2\n      jump(tag_62)\n    tag_63:\n      dup3\n      add\n      swap2\n      swap1\n      0x00\n      mstore\n      keccak256(0x00, 0x20)\n      swap1\n    tag_64:\n      dup2\n      sload\n      dup2\n      mstore\n      swap1\n      0x01\n      add\n      swap1\n      0x20\n      add\n      dup1\n      dup4\n      gt\n      tag_64\n      jumpi\n      dup3\n      swap1\n      sub\n      0x1f\n      and\n      dup3\n      add\n      swap2\n    tag_62:\n      pop\n      pop\n      pop\n      pop\n      pop\n      dup2\n      mstore\n      0x20\n      add\n      0x03\n      dup3\n      add\n      dup1\n      sload\n      tag_65\n      swap1\n      tag_55\n      jump\t// in\n    tag_65:\n      dup1\n      0x1f\n      add\n      0x20\n      dup1\n      swap2\n      div\n      mul\n      0x20\n      add\n      mload(0x40)\n      swap1\n      dup2\n      add\n      0x40\n      mstore\n      dup1\n      swap3\n      swap2\n      swap1\n      dup2\n      dup2\n      mstore\n      0x20\n      add\n      dup3\n      dup1\n      sload\n      tag_66\n      swap1\n      tag_55\n      jump\t// in\n    tag_66:\n      dup1\n      iszero\n      tag_67\n      jumpi\n      dup1\n      0x1f\n      lt\n      tag_68\n      jumpi\n      0x0100\n      dup1\n      dup4\n      sload\n      div\n      mul\n      dup4\n      mstore\n      swap2\n      0x20\n      add\n      swap2\n      jump(tag_67)\n    tag_68:\n      dup3\n      add\n      swap2\n      swap1\n      0x00\n      mstore\n      keccak256(0x00, 0x20)\n      swap1\n    tag_69:\n      dup2\n      sload\n      dup2\n      mstore\n      swap1\n      0x01\n      add\n      swap1\n      0x20\n      add\n      dup1\n      dup4\n      gt\n      tag_69\n      jumpi\n      dup3\n      swap1\n      sub\n      0x1f\n      and\n      dup3\n      add\n      swap2\n    tag_67:\n      pop\n      pop\n      pop\n      pop\n      pop\n      dup2\n      mstore\n      0x20\n      add\n      0x04\n      dup3\n      add\n      dup1\n      sload\n      tag_70\n      swap1\n      tag_55\n      jump\t// in\n    tag_70:\n      dup1\n      0x1f\n      add\n      0x20\n      dup1\n      swap2\n      div\n      mul\n      0x20\n      add\n      mload(0x40)\n      swap1\n      dup2\n      add\n      0x40\n      mstore\n      dup1\n      swap3\n      swap2\n      swap1\n      dup2\n      dup2\n      mstore\n      0x20\n      add\n      dup3\n      dup1\n      sload\n      tag_71\n      swap1\n      tag_55\n      jump\t// in\n    tag_71:\n      dup1\n      iszero\n      tag_72\n      jumpi\n      dup1\n      0x1f\n      lt\n      tag_73\n      jumpi\n      0x0100\n      dup1\n      dup4\n      sload\n      div\n      mul\n      dup4\n      mstore\n      swap2\n      0x20\n      add\n      swap2\n      jump(tag_72)\n    tag_73:\n      dup3\n      add\n      swap2\n      swap1\n      0x00\n      mstore\n      keccak256(0x00, 0x20)\n      swap1\n    tag_74:\n      dup2\n      sload\n      dup2\n      mstore\n      swap1\n      0x01\n      add\n      swap1\n      0x20\n      add\n      dup1\n      dup4\n      gt\n      tag_74\n      jumpi\n      dup3\n      swap1\n      sub\n      0x1f\n      and\n      dup3\n      add\n      swap2\n    tag_72:\n      pop\n      pop\n      pop\n      pop\n      pop\n      dup2\n      mstore\n      pop\n      pop\n      dup2\n      mstore\n      0x20\n      add\n      swap1\n      0x01\n      add\n      swap1\n      jump(tag_51)\n    tag_52:\n      pop\n      pop\n      pop\n      pop\n      swap1\n      pop\n        /* \"contracts/Colhoz.sol\":996:1082  function get_buyers() public view returns(User[] memory){... */\n      swap1\n      jump\t// out\n        /* \"contracts/Colhoz.sol\":1088:1166  function add_buyer(User memory user) public {... */\n    tag_28:\n        /* \"contracts/Colhoz.sol\":1142:1148  buyers */\n      0x02\n        /* \"contracts/Colhoz.sol\":1154:1158  user */\n      dup2\n        /* \"contracts/Colhoz.sol\":1142:1159  buyers.push(user) */\n      swap1\n      dup1\n      0x01\n      dup2\n      sload\n      add\n      dup1\n      dup3\n      sstore\n      dup1\n      swap2\n      pop\n      pop\n      0x01\n      swap1\n      sub\n      swap1\n      0x00\n      mstore\n      keccak256(0x00, 0x20)\n      swap1\n      0x05\n      mul\n      add\n      0x00\n      swap1\n      swap2\n      swap1\n      swap2\n      swap1\n      swap2\n      pop\n      0x00\n      dup3\n      add\n      mload\n      dup2\n      0x00\n      add\n      exp(0x0100, 0x00)\n      dup2\n      sload\n      dup2\n      0xffffffffffffffffffffffffffffffffffffffff\n      mul\n      not\n      and\n      swap1\n      dup4\n      0xffffffffffffffffffffffffffffffffffffffff\n      and\n      mul\n      or\n      swap1\n      sstore\n      pop\n      0x20\n      dup3\n      add\n      mload\n      dup2\n      0x01\n      add\n      swap1\n      dup2\n      tag_77\n      swap2\n      swap1\n      tag_78\n      jump\t// in\n    tag_77:\n      pop\n      0x40\n      dup3\n      add\n      mload\n      dup2\n      0x02\n      add\n      swap1\n      dup2\n      tag_79\n      swap2\n      swap1\n      tag_78\n      jump\t// in\n    tag_79:\n      pop\n      0x60\n      dup3\n      add\n      mload\n      dup2\n      0x03\n      add\n      swap1\n      dup2\n      tag_80\n      swap2\n      swap1\n      tag_78\n      jump\t// in\n    tag_80:\n      pop\n      0x80\n      dup3\n      add\n      mload\n      dup2\n      0x04\n      add\n      swap1\n      dup2\n      tag_81\n      swap2\n      swap1\n      tag_78\n      jump\t// in\n    tag_81:\n      pop\n      pop\n      pop\n        /* \"contracts/Colhoz.sol\":1088:1166  function add_buyer(User memory user) public {... */\n      pop\n      jump\t// out\n        /* \"contracts/Colhoz.sol\":1256:1351  function update_buyer(uint index,User memory user) public {... */\n    tag_32:\n        /* \"contracts/Colhoz.sol\":1340:1344  user */\n      dup1\n        /* \"contracts/Colhoz.sol\":1324:1330  buyers */\n      0x02\n        /* \"contracts/Colhoz.sol\":1331:1336  index */\n      dup4\n        /* \"contracts/Colhoz.sol\":1324:1337  buyers[index] */\n      dup2\n      sload\n      dup2\n      lt\n      tag_83\n      jumpi\n      tag_84\n      tag_85\n      jump\t// in\n    tag_84:\n    tag_83:\n      swap1\n      0x00\n      mstore\n      keccak256(0x00, 0x20)\n      swap1\n      0x05\n      mul\n      add\n        /* \"contracts/Colhoz.sol\":1324:1344  buyers[index] = user */\n      0x00\n      dup3\n      add\n      mload\n      dup2\n      0x00\n      add\n      exp(0x0100, 0x00)\n      dup2\n      sload\n      dup2\n      0xffffffffffffffffffffffffffffffffffffffff\n      mul\n      not\n      and\n      swap1\n      dup4\n      0xffffffffffffffffffffffffffffffffffffffff\n      and\n      mul\n      or\n      swap1\n      sstore\n      pop\n      0x20\n      dup3\n      add\n      mload\n      dup2\n      0x01\n      add\n      swap1\n      dup2\n      tag_87\n      swap2\n      swap1\n      tag_78\n      jump\t// in\n    tag_87:\n      pop\n      0x40\n      dup3\n      add\n      mload\n      dup2\n      0x02\n      add\n      swap1\n      dup2\n      tag_88\n      swap2\n      swap1\n      tag_78\n      jump\t// in\n    tag_88:\n      pop\n      0x60\n      dup3\n      add\n      mload\n      dup2\n      0x03\n      add\n      swap1\n      dup2\n      tag_89\n      swap2\n      swap1\n      tag_78\n      jump\t// in\n    tag_89:\n      pop\n      0x80\n      dup3\n      add\n      mload\n      dup2\n      0x04\n      add\n      swap1\n      dup2\n      tag_90\n      swap2\n      swap1\n      tag_78\n      jump\t// in\n    tag_90:\n      pop\n      swap1\n      pop\n      pop\n        /* \"contracts/Colhoz.sol\":1256:1351  function update_buyer(uint index,User memory user) public {... */\n      pop\n      pop\n      jump\t// out\n        /* \"contracts/Colhoz.sol\":825:910  function set_provider(address _provider) public {... */\n    tag_36:\n        /* \"contracts/Colhoz.sol\":894:903  _provider */\n      dup1\n        /* \"contracts/Colhoz.sol\":883:891  provider */\n      0x00\n      dup1\n        /* \"contracts/Colhoz.sol\":883:903  provider = _provider */\n      0x0100\n      exp\n      dup2\n      sload\n      dup2\n      0xffffffffffffffffffffffffffffffffffffffff\n      mul\n      not\n      and\n      swap1\n      dup4\n      0xffffffffffffffffffffffffffffffffffffffff\n      and\n      mul\n      or\n      swap1\n      sstore\n      pop\n        /* \"contracts/Colhoz.sol\":825:910  function set_provider(address _provider) public {... */\n      pop\n      jump\t// out\n        /* \"contracts/Colhoz.sol\":1443:1521  function delete_admin(uint index) public {... */\n    tag_40:\n        /* \"contracts/Colhoz.sol\":1501:1507  admins */\n      0x03\n        /* \"contracts/Colhoz.sol\":1508:1513  index */\n      dup2\n        /* \"contracts/Colhoz.sol\":1501:1514  admins[index] */\n      dup2\n      sload\n      dup2\n      lt\n      tag_93\n      jumpi\n      tag_94\n      tag_85\n      jump\t// in\n    tag_94:\n    tag_93:\n      swap1\n      0x00\n      mstore\n      keccak256(0x00, 0x20)\n      swap1\n      0x05\n      mul\n      add\n      0x00\n        /* \"contracts/Colhoz.sol\":1494:1514  delete admins[index] */\n      dup1\n      dup3\n      add\n      exp(0x0100, 0x00)\n      dup2\n      sload\n      swap1\n      0xffffffffffffffffffffffffffffffffffffffff\n      mul\n      not\n      and\n      swap1\n      sstore\n      0x01\n      dup3\n      add\n      0x00\n      tag_96\n      swap2\n      swap1\n      tag_97\n      jump\t// in\n    tag_96:\n      0x02\n      dup3\n      add\n      0x00\n      tag_98\n      swap2\n      swap1\n      tag_97\n      jump\t// in\n    tag_98:\n      0x03\n      dup3\n      add\n      0x00\n      tag_99\n      swap2\n      swap1\n      tag_97\n      jump\t// in\n    tag_99:\n      0x04\n      dup3\n      add\n      0x00\n      tag_100\n      swap2\n      swap1\n      tag_97\n      jump\t// in\n    tag_100:\n      pop\n      pop\n        /* \"contracts/Colhoz.sol\":1443:1521  function delete_admin(uint index) public {... */\n      pop\n      jump\t// out\n        /* \"contracts/Colhoz.sol\":1172:1250  function remove_buyer(uint index) public {... */\n    tag_43:\n        /* \"contracts/Colhoz.sol\":1230:1236  buyers */\n      0x02\n        /* \"contracts/Colhoz.sol\":1237:1242  index */\n      dup2\n        /* \"contracts/Colhoz.sol\":1230:1243  buyers[index] */\n      dup2\n      sload\n      dup2\n      lt\n      tag_102\n      jumpi\n      tag_103\n      tag_85\n      jump\t// in\n    tag_103:\n    tag_102:\n      swap1\n      0x00\n      mstore\n      keccak256(0x00, 0x20)\n      swap1\n      0x05\n      mul\n      add\n      0x00\n        /* \"contracts/Colhoz.sol\":1223:1243  delete buyers[index] */\n      dup1\n      dup3\n      add\n      exp(0x0100, 0x00)\n      dup2\n      sload\n      swap1\n      0xffffffffffffffffffffffffffffffffffffffff\n      mul\n      not\n      and\n      swap1\n      sstore\n      0x01\n      dup3\n      add\n      0x00\n      tag_105\n      swap2\n      swap1\n      tag_97\n      jump\t// in\n    tag_105:\n      0x02\n      dup3\n      add\n      0x00\n      tag_106\n      swap2\n      swap1\n      tag_97\n      jump\t// in\n    tag_106:\n      0x03\n      dup3\n      add\n      0x00\n      tag_107\n      swap2\n      swap1\n      tag_97\n      jump\t// in\n    tag_107:\n      0x04\n      dup3\n      add\n      0x00\n      tag_108\n      swap2\n      swap1\n      tag_97\n      jump\t// in\n    tag_108:\n      pop\n      pop\n        /* \"contracts/Colhoz.sol\":1172:1250  function remove_buyer(uint index) public {... */\n      pop\n      jump\t// out\n        /* \"contracts/Colhoz.sol\":920:989  function set_bank(address _bank) public {... */\n    tag_46:\n        /* \"contracts/Colhoz.sol\":977:982  _bank */\n      dup1\n        /* \"contracts/Colhoz.sol\":970:974  bank */\n      0x01\n      0x00\n        /* \"contracts/Colhoz.sol\":970:982  bank = _bank */\n      0x0100\n      exp\n      dup2\n      sload\n      dup2\n      0xffffffffffffffffffffffffffffffffffffffff\n      mul\n      not\n      and\n      swap1\n      dup4\n      0xffffffffffffffffffffffffffffffffffffffff\n      and\n      mul\n      or\n      swap1\n      sstore\n      pop\n        /* \"contracts/Colhoz.sol\":920:989  function set_bank(address _bank) public {... */\n      pop\n      jump\t// out\n        /* \"contracts/Colhoz.sol\":1357:1437  function add_admin(User memory admin) public {... */\n    tag_49:\n        /* \"contracts/Colhoz.sol\":1412:1418  admins */\n      0x03\n        /* \"contracts/Colhoz.sol\":1424:1429  admin */\n      dup2\n        /* \"contracts/Colhoz.sol\":1412:1430  admins.push(admin) */\n      swap1\n      dup1\n      0x01\n      dup2\n      sload\n      add\n      dup1\n      dup3\n      sstore\n      dup1\n      swap2\n      pop\n      pop\n      0x01\n      swap1\n      sub\n      swap1\n      0x00\n      mstore\n      keccak256(0x00, 0x20)\n      swap1\n      0x05\n      mul\n      add\n      0x00\n      swap1\n      swap2\n      swap1\n      swap2\n      swap1\n      swap2\n      pop\n      0x00\n      dup3\n      add\n      mload\n      dup2\n      0x00\n      add\n      exp(0x0100, 0x00)\n      dup2\n      sload\n      dup2\n      0xffffffffffffffffffffffffffffffffffffffff\n      mul\n      not\n      and\n      swap1\n      dup4\n      0xffffffffffffffffffffffffffffffffffffffff\n      and\n      mul\n      or\n      swap1\n      sstore\n      pop\n      0x20\n      dup3\n      add\n      mload\n      dup2\n      0x01\n      add\n      swap1\n      dup2\n      tag_112\n      swap2\n      swap1\n      tag_78\n      jump\t// in\n    tag_112:\n      pop\n      0x40\n      dup3\n      add\n      mload\n      dup2\n      0x02\n      add\n      swap1\n      dup2\n      tag_113\n      swap2\n      swap1\n      tag_78\n      jump\t// in\n    tag_113:\n      pop\n      0x60\n      dup3\n      add\n      mload\n      dup2\n      0x03\n      add\n      swap1\n      dup2\n      tag_114\n      swap2\n      swap1\n      tag_78\n      jump\t// in\n    tag_114:\n      pop\n      0x80\n      dup3\n      add\n      mload\n      dup2\n      0x04\n      add\n      swap1\n      dup2\n      tag_115\n      swap2\n      swap1\n      tag_78\n      jump\t// in\n    tag_115:\n      pop\n      pop\n      pop\n        /* \"contracts/Colhoz.sol\":1357:1437  function add_admin(User memory admin) public {... */\n      pop\n      jump\t// out\n    tag_97:\n      pop\n      dup1\n      sload\n      tag_116\n      swap1\n      tag_55\n      jump\t// in\n    tag_116:\n      0x00\n      dup3\n      sstore\n      dup1\n      0x1f\n      lt\n      tag_118\n      jumpi\n      pop\n      jump(tag_117)\n    tag_118:\n      0x1f\n      add\n      0x20\n      swap1\n      div\n      swap1\n      0x00\n      mstore\n      keccak256(0x00, 0x20)\n      swap1\n      dup2\n      add\n      swap1\n      tag_119\n      swap2\n      swap1\n      tag_120\n      jump\t// in\n    tag_119:\n    tag_117:\n      pop\n      jump\t// out\n    tag_120:\n    tag_121:\n      dup1\n      dup3\n      gt\n      iszero\n      tag_122\n      jumpi\n      0x00\n      dup2\n      0x00\n      swap1\n      sstore\n      pop\n      0x01\n      add\n      jump(tag_121)\n    tag_122:\n      pop\n      swap1\n      jump\t// out\n        /* \"#utility.yul\":7:133   */\n    tag_123:\n        /* \"#utility.yul\":44:51   */\n      0x00\n        /* \"#utility.yul\":84:126   */\n      0xffffffffffffffffffffffffffffffffffffffff\n        /* \"#utility.yul\":77:82   */\n      dup3\n        /* \"#utility.yul\":73:127   */\n      and\n        /* \"#utility.yul\":62:127   */\n      swap1\n      pop\n        /* \"#utility.yul\":7:133   */\n      swap2\n      swap1\n      pop\n      jump\t// out\n        /* \"#utility.yul\":139:235   */\n    tag_124:\n        /* \"#utility.yul\":176:183   */\n      0x00\n        /* \"#utility.yul\":205:229   */\n      tag_178\n        /* \"#utility.yul\":223:228   */\n      dup3\n        /* \"#utility.yul\":205:229   */\n      tag_123\n      jump\t// in\n    tag_178:\n        /* \"#utility.yul\":194:229   */\n      swap1\n      pop\n        /* \"#utility.yul\":139:235   */\n      swap2\n      swap1\n      pop\n      jump\t// out\n        /* \"#utility.yul\":241:359   */\n    tag_125:\n        /* \"#utility.yul\":328:352   */\n      tag_180\n        /* \"#utility.yul\":346:351   */\n      dup2\n        /* \"#utility.yul\":328:352   */\n      tag_124\n      jump\t// in\n    tag_180:\n        /* \"#utility.yul\":323:326   */\n      dup3\n        /* \"#utility.yul\":316:353   */\n      mstore\n        /* \"#utility.yul\":241:359   */\n      pop\n      pop\n      jump\t// out\n        /* \"#utility.yul\":365:587   */\n    tag_17:\n        /* \"#utility.yul\":458:462   */\n      0x00\n        /* \"#utility.yul\":496:498   */\n      0x20\n        /* \"#utility.yul\":485:494   */\n      dup3\n        /* \"#utility.yul\":481:499   */\n      add\n        /* \"#utility.yul\":473:499   */\n      swap1\n      pop\n        /* \"#utility.yul\":509:580   */\n      tag_182\n        /* \"#utility.yul\":577:578   */\n      0x00\n        /* \"#utility.yul\":566:575   */\n      dup4\n        /* \"#utility.yul\":562:579   */\n      add\n        /* \"#utility.yul\":553:559   */\n      dup5\n        /* \"#utility.yul\":509:580   */\n      tag_125\n      jump\t// in\n    tag_182:\n        /* \"#utility.yul\":365:587   */\n      swap3\n      swap2\n      pop\n      pop\n      jump\t// out\n        /* \"#utility.yul\":593:727   */\n    tag_126:\n        /* \"#utility.yul\":680:686   */\n      0x00\n        /* \"#utility.yul\":714:719   */\n      dup2\n        /* \"#utility.yul\":708:720   */\n      mload\n        /* \"#utility.yul\":698:720   */\n      swap1\n      pop\n        /* \"#utility.yul\":593:727   */\n      swap2\n      swap1\n      pop\n      jump\t// out\n        /* \"#utility.yul\":733:937   */\n    tag_127:\n        /* \"#utility.yul\":852:863   */\n      0x00\n        /* \"#utility.yul\":886:892   */\n      dup3\n        /* \"#utility.yul\":881:884   */\n      dup3\n        /* \"#utility.yul\":874:893   */\n      mstore\n        /* \"#utility.yul\":926:930   */\n      0x20\n        /* \"#utility.yul\":921:924   */\n      dup3\n        /* \"#utility.yul\":917:931   */\n      add\n        /* \"#utility.yul\":902:931   */\n      swap1\n      pop\n        /* \"#utility.yul\":733:937   */\n      swap3\n      swap2\n      pop\n      pop\n      jump\t// out\n        /* \"#utility.yul\":943:1095   */\n    tag_128:\n        /* \"#utility.yul\":1030:1034   */\n      0x00\n        /* \"#utility.yul\":1053:1056   */\n      dup2\n        /* \"#utility.yul\":1045:1056   */\n      swap1\n      pop\n        /* \"#utility.yul\":1083:1087   */\n      0x20\n        /* \"#utility.yul\":1078:1081   */\n      dup3\n        /* \"#utility.yul\":1074:1088   */\n      add\n        /* \"#utility.yul\":1066:1088   */\n      swap1\n      pop\n        /* \"#utility.yul\":943:1095   */\n      swap2\n      swap1\n      pop\n      jump\t// out\n        /* \"#utility.yul\":1101:1209   */\n    tag_129:\n        /* \"#utility.yul\":1178:1202   */\n      tag_187\n        /* \"#utility.yul\":1196:1201   */\n      dup2\n        /* \"#utility.yul\":1178:1202   */\n      tag_124\n      jump\t// in\n    tag_187:\n        /* \"#utility.yul\":1173:1176   */\n      dup3\n        /* \"#utility.yul\":1166:1203   */\n      mstore\n        /* \"#utility.yul\":1101:1209   */\n      pop\n      pop\n      jump\t// out\n        /* \"#utility.yul\":1215:1314   */\n    tag_130:\n        /* \"#utility.yul\":1267:1273   */\n      0x00\n        /* \"#utility.yul\":1301:1306   */\n      dup2\n        /* \"#utility.yul\":1295:1307   */\n      mload\n        /* \"#utility.yul\":1285:1307   */\n      swap1\n      pop\n        /* \"#utility.yul\":1215:1314   */\n      swap2\n      swap1\n      pop\n      jump\t// out\n        /* \"#utility.yul\":1320:1479   */\n    tag_131:\n        /* \"#utility.yul\":1394:1405   */\n      0x00\n        /* \"#utility.yul\":1428:1434   */\n      dup3\n        /* \"#utility.yul\":1423:1426   */\n      dup3\n        /* \"#utility.yul\":1416:1435   */\n      mstore\n        /* \"#utility.yul\":1468:1472   */\n      0x20\n        /* \"#utility.yul\":1463:1466   */\n      dup3\n        /* \"#utility.yul\":1459:1473   */\n      add\n        /* \"#utility.yul\":1444:1473   */\n      swap1\n      pop\n        /* \"#utility.yul\":1320:1479   */\n      swap3\n      swap2\n      pop\n      pop\n      jump\t// out\n        /* \"#utility.yul\":1485:1731   */\n    tag_132:\n        /* \"#utility.yul\":1566:1567   */\n      0x00\n        /* \"#utility.yul\":1576:1689   */\n    tag_191:\n        /* \"#utility.yul\":1590:1596   */\n      dup4\n        /* \"#utility.yul\":1587:1588   */\n      dup2\n        /* \"#utility.yul\":1584:1597   */\n      lt\n        /* \"#utility.yul\":1576:1689   */\n      iszero\n      tag_193\n      jumpi\n        /* \"#utility.yul\":1675:1676   */\n      dup1\n        /* \"#utility.yul\":1670:1673   */\n      dup3\n        /* \"#utility.yul\":1666:1677   */\n      add\n        /* \"#utility.yul\":1660:1678   */\n      mload\n        /* \"#utility.yul\":1656:1657   */\n      dup2\n        /* \"#utility.yul\":1651:1654   */\n      dup5\n        /* \"#utility.yul\":1647:1658   */\n      add\n        /* \"#utility.yul\":1640:1679   */\n      mstore\n        /* \"#utility.yul\":1612:1614   */\n      0x20\n        /* \"#utility.yul\":1609:1610   */\n      dup2\n        /* \"#utility.yul\":1605:1615   */\n      add\n        /* \"#utility.yul\":1600:1615   */\n      swap1\n      pop\n        /* \"#utility.yul\":1576:1689   */\n      jump(tag_191)\n    tag_193:\n        /* \"#utility.yul\":1723:1724   */\n      0x00\n        /* \"#utility.yul\":1714:1720   */\n      dup5\n        /* \"#utility.yul\":1709:1712   */\n      dup5\n        /* \"#utility.yul\":1705:1721   */\n      add\n        /* \"#utility.yul\":1698:1725   */\n      mstore\n        /* \"#utility.yul\":1547:1731   */\n      pop\n        /* \"#utility.yul\":1485:1731   */\n      pop\n      pop\n      pop\n      jump\t// out\n        /* \"#utility.yul\":1737:1839   */\n    tag_133:\n        /* \"#utility.yul\":1778:1784   */\n      0x00\n        /* \"#utility.yul\":1829:1831   */\n      0x1f\n        /* \"#utility.yul\":1825:1832   */\n      not\n        /* \"#utility.yul\":1820:1822   */\n      0x1f\n        /* \"#utility.yul\":1813:1818   */\n      dup4\n        /* \"#utility.yul\":1809:1823   */\n      add\n        /* \"#utility.yul\":1805:1833   */\n      and\n        /* \"#utility.yul\":1795:1833   */\n      swap1\n      pop\n        /* \"#utility.yul\":1737:1839   */\n      swap2\n      swap1\n      pop\n      jump\t// out\n        /* \"#utility.yul\":1845:2202   */\n    tag_134:\n        /* \"#utility.yul\":1923:1926   */\n      0x00\n        /* \"#utility.yul\":1951:1990   */\n      tag_196\n        /* \"#utility.yul\":1984:1989   */\n      dup3\n        /* \"#utility.yul\":1951:1990   */\n      tag_130\n      jump\t// in\n    tag_196:\n        /* \"#utility.yul\":2006:2067   */\n      tag_197\n        /* \"#utility.yul\":2060:2066   */\n      dup2\n        /* \"#utility.yul\":2055:2058   */\n      dup6\n        /* \"#utility.yul\":2006:2067   */\n      tag_131\n      jump\t// in\n    tag_197:\n        /* \"#utility.yul\":1999:2067   */\n      swap4\n      pop\n        /* \"#utility.yul\":2076:2141   */\n      tag_198\n        /* \"#utility.yul\":2134:2140   */\n      dup2\n        /* \"#utility.yul\":2129:2132   */\n      dup6\n        /* \"#utility.yul\":2122:2126   */\n      0x20\n        /* \"#utility.yul\":2115:2120   */\n      dup7\n        /* \"#utility.yul\":2111:2127   */\n      add\n        /* \"#utility.yul\":2076:2141   */\n      tag_132\n      jump\t// in\n    tag_198:\n        /* \"#utility.yul\":2166:2195   */\n      tag_199\n        /* \"#utility.yul\":2188:2194   */\n      dup2\n        /* \"#utility.yul\":2166:2195   */\n      tag_133\n      jump\t// in\n    tag_199:\n        /* \"#utility.yul\":2161:2164   */\n      dup5\n        /* \"#utility.yul\":2157:2196   */\n      add\n        /* \"#utility.yul\":2150:2196   */\n      swap2\n      pop\n        /* \"#utility.yul\":1927:2202   */\n      pop\n        /* \"#utility.yul\":1845:2202   */\n      swap3\n      swap2\n      pop\n      pop\n      jump\t// out\n        /* \"#utility.yul\":2242:3573   */\n    tag_135:\n        /* \"#utility.yul\":2341:2344   */\n      0x00\n        /* \"#utility.yul\":2377:2381   */\n      0xa0\n        /* \"#utility.yul\":2372:2375   */\n      dup4\n        /* \"#utility.yul\":2368:2382   */\n      add\n        /* \"#utility.yul\":2468:2472   */\n      0x00\n        /* \"#utility.yul\":2461:2466   */\n      dup4\n        /* \"#utility.yul\":2457:2473   */\n      add\n        /* \"#utility.yul\":2451:2474   */\n      mload\n        /* \"#utility.yul\":2487:2550   */\n      tag_201\n        /* \"#utility.yul\":2544:2548   */\n      0x00\n        /* \"#utility.yul\":2539:2542   */\n      dup7\n        /* \"#utility.yul\":2535:2549   */\n      add\n        /* \"#utility.yul\":2521:2533   */\n      dup3\n        /* \"#utility.yul\":2487:2550   */\n      tag_129\n      jump\t// in\n    tag_201:\n        /* \"#utility.yul\":2392:2560   */\n      pop\n        /* \"#utility.yul\":2643:2647   */\n      0x20\n        /* \"#utility.yul\":2636:2641   */\n      dup4\n        /* \"#utility.yul\":2632:2648   */\n      add\n        /* \"#utility.yul\":2626:2649   */\n      mload\n        /* \"#utility.yul\":2696:2699   */\n      dup5\n        /* \"#utility.yul\":2690:2694   */\n      dup3\n        /* \"#utility.yul\":2686:2700   */\n      sub\n        /* \"#utility.yul\":2679:2683   */\n      0x20\n        /* \"#utility.yul\":2674:2677   */\n      dup7\n        /* \"#utility.yul\":2670:2684   */\n      add\n        /* \"#utility.yul\":2663:2701   */\n      mstore\n        /* \"#utility.yul\":2722:2795   */\n      tag_202\n        /* \"#utility.yul\":2790:2794   */\n      dup3\n        /* \"#utility.yul\":2776:2788   */\n      dup3\n        /* \"#utility.yul\":2722:2795   */\n      tag_134\n      jump\t// in\n    tag_202:\n        /* \"#utility.yul\":2714:2795   */\n      swap2\n      pop\n        /* \"#utility.yul\":2570:2806   */\n      pop\n        /* \"#utility.yul\":2892:2896   */\n      0x40\n        /* \"#utility.yul\":2885:2890   */\n      dup4\n        /* \"#utility.yul\":2881:2897   */\n      add\n        /* \"#utility.yul\":2875:2898   */\n      mload\n        /* \"#utility.yul\":2945:2948   */\n      dup5\n        /* \"#utility.yul\":2939:2943   */\n      dup3\n        /* \"#utility.yul\":2935:2949   */\n      sub\n        /* \"#utility.yul\":2928:2932   */\n      0x40\n        /* \"#utility.yul\":2923:2926   */\n      dup7\n        /* \"#utility.yul\":2919:2933   */\n      add\n        /* \"#utility.yul\":2912:2950   */\n      mstore\n        /* \"#utility.yul\":2971:3044   */\n      tag_203\n        /* \"#utility.yul\":3039:3043   */\n      dup3\n        /* \"#utility.yul\":3025:3037   */\n      dup3\n        /* \"#utility.yul\":2971:3044   */\n      tag_134\n      jump\t// in\n    tag_203:\n        /* \"#utility.yul\":2963:3044   */\n      swap2\n      pop\n        /* \"#utility.yul\":2816:3055   */\n      pop\n        /* \"#utility.yul\":3136:3140   */\n      0x60\n        /* \"#utility.yul\":3129:3134   */\n      dup4\n        /* \"#utility.yul\":3125:3141   */\n      add\n        /* \"#utility.yul\":3119:3142   */\n      mload\n        /* \"#utility.yul\":3189:3192   */\n      dup5\n        /* \"#utility.yul\":3183:3187   */\n      dup3\n        /* \"#utility.yul\":3179:3193   */\n      sub\n        /* \"#utility.yul\":3172:3176   */\n      0x60\n        /* \"#utility.yul\":3167:3170   */\n      dup7\n        /* \"#utility.yul\":3163:3177   */\n      add\n        /* \"#utility.yul\":3156:3194   */\n      mstore\n        /* \"#utility.yul\":3215:3288   */\n      tag_204\n        /* \"#utility.yul\":3283:3287   */\n      dup3\n        /* \"#utility.yul\":3269:3281   */\n      dup3\n        /* \"#utility.yul\":3215:3288   */\n      tag_134\n      jump\t// in\n    tag_204:\n        /* \"#utility.yul\":3207:3288   */\n      swap2\n      pop\n        /* \"#utility.yul\":3065:3299   */\n      pop\n        /* \"#utility.yul\":3383:3387   */\n      0x80\n        /* \"#utility.yul\":3376:3381   */\n      dup4\n        /* \"#utility.yul\":3372:3388   */\n      add\n        /* \"#utility.yul\":3366:3389   */\n      mload\n        /* \"#utility.yul\":3436:3439   */\n      dup5\n        /* \"#utility.yul\":3430:3434   */\n      dup3\n        /* \"#utility.yul\":3426:3440   */\n      sub\n        /* \"#utility.yul\":3419:3423   */\n      0x80\n        /* \"#utility.yul\":3414:3417   */\n      dup7\n        /* \"#utility.yul\":3410:3424   */\n      add\n        /* \"#utility.yul\":3403:3441   */\n      mstore\n        /* \"#utility.yul\":3462:3535   */\n      tag_205\n        /* \"#utility.yul\":3530:3534   */\n      dup3\n        /* \"#utility.yul\":3516:3528   */\n      dup3\n        /* \"#utility.yul\":3462:3535   */\n      tag_134\n      jump\t// in\n    tag_205:\n        /* \"#utility.yul\":3454:3535   */\n      swap2\n      pop\n        /* \"#utility.yul\":3309:3546   */\n      pop\n        /* \"#utility.yul\":3563:3567   */\n      dup1\n        /* \"#utility.yul\":3556:3567   */\n      swap2\n      pop\n        /* \"#utility.yul\":2346:3573   */\n      pop\n        /* \"#utility.yul\":2242:3573   */\n      swap3\n      swap2\n      pop\n      pop\n      jump\t// out\n        /* \"#utility.yul\":3579:3815   */\n    tag_136:\n        /* \"#utility.yul\":3688:3698   */\n      0x00\n        /* \"#utility.yul\":3723:3809   */\n      tag_207\n        /* \"#utility.yul\":3805:3808   */\n      dup4\n        /* \"#utility.yul\":3797:3803   */\n      dup4\n        /* \"#utility.yul\":3723:3809   */\n      tag_135\n      jump\t// in\n    tag_207:\n        /* \"#utility.yul\":3709:3809   */\n      swap1\n      pop\n        /* \"#utility.yul\":3579:3815   */\n      swap3\n      swap2\n      pop\n      pop\n      jump\t// out\n        /* \"#utility.yul\":3821:3954   */\n    tag_137:\n        /* \"#utility.yul\":3911:3915   */\n      0x00\n        /* \"#utility.yul\":3943:3947   */\n      0x20\n        /* \"#utility.yul\":3938:3941   */\n      dup3\n        /* \"#utility.yul\":3934:3948   */\n      add\n        /* \"#utility.yul\":3926:3948   */\n      swap1\n      pop\n        /* \"#utility.yul\":3821:3954   */\n      swap2\n      swap1\n      pop\n      jump\t// out\n        /* \"#utility.yul\":3998:5069   */\n    tag_138:\n        /* \"#utility.yul\":4157:4160   */\n      0x00\n        /* \"#utility.yul\":4186:4260   */\n      tag_210\n        /* \"#utility.yul\":4254:4259   */\n      dup3\n        /* \"#utility.yul\":4186:4260   */\n      tag_126\n      jump\t// in\n    tag_210:\n        /* \"#utility.yul\":4276:4382   */\n      tag_211\n        /* \"#utility.yul\":4375:4381   */\n      dup2\n        /* \"#utility.yul\":4370:4373   */\n      dup6\n        /* \"#utility.yul\":4276:4382   */\n      tag_127\n      jump\t// in\n    tag_211:\n        /* \"#utility.yul\":4269:4382   */\n      swap4\n      pop\n        /* \"#utility.yul\":4408:4411   */\n      dup4\n        /* \"#utility.yul\":4453:4457   */\n      0x20\n        /* \"#utility.yul\":4445:4451   */\n      dup3\n        /* \"#utility.yul\":4441:4458   */\n      mul\n        /* \"#utility.yul\":4436:4439   */\n      dup6\n        /* \"#utility.yul\":4432:4459   */\n      add\n        /* \"#utility.yul\":4483:4559   */\n      tag_212\n        /* \"#utility.yul\":4553:4558   */\n      dup6\n        /* \"#utility.yul\":4483:4559   */\n      tag_128\n      jump\t// in\n    tag_212:\n        /* \"#utility.yul\":4582:4589   */\n      dup1\n        /* \"#utility.yul\":4613:4614   */\n      0x00\n        /* \"#utility.yul\":4598:5024   */\n    tag_213:\n        /* \"#utility.yul\":4623:4629   */\n      dup6\n        /* \"#utility.yul\":4620:4621   */\n      dup2\n        /* \"#utility.yul\":4617:4630   */\n      lt\n        /* \"#utility.yul\":4598:5024   */\n      iszero\n      tag_215\n      jumpi\n        /* \"#utility.yul\":4694:4703   */\n      dup5\n        /* \"#utility.yul\":4688:4692   */\n      dup5\n        /* \"#utility.yul\":4684:4704   */\n      sub\n        /* \"#utility.yul\":4679:4682   */\n      dup10\n        /* \"#utility.yul\":4672:4705   */\n      mstore\n        /* \"#utility.yul\":4745:4751   */\n      dup2\n        /* \"#utility.yul\":4739:4752   */\n      mload\n        /* \"#utility.yul\":4773:4877   */\n      tag_216\n        /* \"#utility.yul\":4872:4876   */\n      dup6\n        /* \"#utility.yul\":4857:4870   */\n      dup3\n        /* \"#utility.yul\":4773:4877   */\n      tag_136\n      jump\t// in\n    tag_216:\n        /* \"#utility.yul\":4765:4877   */\n      swap5\n      pop\n        /* \"#utility.yul\":4900:4980   */\n      tag_217\n        /* \"#utility.yul\":4973:4979   */\n      dup4\n        /* \"#utility.yul\":4900:4980   */\n      tag_137\n      jump\t// in\n    tag_217:\n        /* \"#utility.yul\":4890:4980   */\n      swap3\n      pop\n        /* \"#utility.yul\":5009:5013   */\n      0x20\n        /* \"#utility.yul\":5004:5007   */\n      dup11\n        /* \"#utility.yul\":5000:5014   */\n      add\n        /* \"#utility.yul\":4993:5014   */\n      swap10\n      pop\n        /* \"#utility.yul\":4658:5024   */\n      pop\n        /* \"#utility.yul\":4645:4646   */\n      0x01\n        /* \"#utility.yul\":4642:4643   */\n      dup2\n        /* \"#utility.yul\":4638:4647   */\n      add\n        /* \"#utility.yul\":4633:4647   */\n      swap1\n      pop\n        /* \"#utility.yul\":4598:5024   */\n      jump(tag_213)\n    tag_215:\n        /* \"#utility.yul\":4602:4616   */\n      pop\n        /* \"#utility.yul\":5040:5044   */\n      dup3\n        /* \"#utility.yul\":5033:5044   */\n      swap8\n      pop\n        /* \"#utility.yul\":5060:5063   */\n      dup8\n        /* \"#utility.yul\":5053:5063   */\n      swap6\n      pop\n        /* \"#utility.yul\":4162:5069   */\n      pop\n      pop\n      pop\n      pop\n      pop\n        /* \"#utility.yul\":3998:5069   */\n      swap3\n      swap2\n      pop\n      pop\n      jump\t// out\n        /* \"#utility.yul\":5075:5528   */\n    tag_24:\n        /* \"#utility.yul\":5258:5262   */\n      0x00\n        /* \"#utility.yul\":5296:5298   */\n      0x20\n        /* \"#utility.yul\":5285:5294   */\n      dup3\n        /* \"#utility.yul\":5281:5299   */\n      add\n        /* \"#utility.yul\":5273:5299   */\n      swap1\n      pop\n        /* \"#utility.yul\":5345:5354   */\n      dup2\n        /* \"#utility.yul\":5339:5343   */\n      dup2\n        /* \"#utility.yul\":5335:5355   */\n      sub\n        /* \"#utility.yul\":5331:5332   */\n      0x00\n        /* \"#utility.yul\":5320:5329   */\n      dup4\n        /* \"#utility.yul\":5316:5333   */\n      add\n        /* \"#utility.yul\":5309:5356   */\n      mstore\n        /* \"#utility.yul\":5373:5521   */\n      tag_219\n        /* \"#utility.yul\":5516:5520   */\n      dup2\n        /* \"#utility.yul\":5507:5513   */\n      dup5\n        /* \"#utility.yul\":5373:5521   */\n      tag_138\n      jump\t// in\n    tag_219:\n        /* \"#utility.yul\":5365:5521   */\n      swap1\n      pop\n        /* \"#utility.yul\":5075:5528   */\n      swap3\n      swap2\n      pop\n      pop\n      jump\t// out\n        /* \"#utility.yul\":5534:5609   */\n    tag_139:\n        /* \"#utility.yul\":5567:5573   */\n      0x00\n        /* \"#utility.yul\":5600:5602   */\n      0x40\n        /* \"#utility.yul\":5594:5603   */\n      mload\n        /* \"#utility.yul\":5584:5603   */\n      swap1\n      pop\n        /* \"#utility.yul\":5534:5609   */\n      swap1\n      jump\t// out\n        /* \"#utility.yul\":5615:5732   */\n    tag_140:\n        /* \"#utility.yul\":5724:5725   */\n      0x00\n        /* \"#utility.yul\":5721:5722   */\n      dup1\n        /* \"#utility.yul\":5714:5726   */\n      revert\n        /* \"#utility.yul\":5738:5855   */\n    tag_141:\n        /* \"#utility.yul\":5847:5848   */\n      0x00\n        /* \"#utility.yul\":5844:5845   */\n      dup1\n        /* \"#utility.yul\":5837:5849   */\n      revert\n        /* \"#utility.yul\":5861:5978   */\n    tag_142:\n        /* \"#utility.yul\":5970:5971   */\n      0x00\n        /* \"#utility.yul\":5967:5968   */\n      dup1\n        /* \"#utility.yul\":5960:5972   */\n      revert\n        /* \"#utility.yul\":5984:6164   */\n    tag_143:\n        /* \"#utility.yul\":6032:6109   */\n      0x4e487b7100000000000000000000000000000000000000000000000000000000\n        /* \"#utility.yul\":6029:6030   */\n      0x00\n        /* \"#utility.yul\":6022:6110   */\n      mstore\n        /* \"#utility.yul\":6129:6133   */\n      0x41\n        /* \"#utility.yul\":6126:6127   */\n      0x04\n        /* \"#utility.yul\":6119:6134   */\n      mstore\n        /* \"#utility.yul\":6153:6157   */\n      0x24\n        /* \"#utility.yul\":6150:6151   */\n      0x00\n        /* \"#utility.yul\":6143:6158   */\n      revert\n        /* \"#utility.yul\":6170:6451   */\n    tag_144:\n        /* \"#utility.yul\":6253:6280   */\n      tag_226\n        /* \"#utility.yul\":6275:6279   */\n      dup3\n        /* \"#utility.yul\":6253:6280   */\n      tag_133\n      jump\t// in\n    tag_226:\n        /* \"#utility.yul\":6245:6251   */\n      dup2\n        /* \"#utility.yul\":6241:6281   */\n      add\n        /* \"#utility.yul\":6383:6389   */\n      dup2\n        /* \"#utility.yul\":6371:6381   */\n      dup2\n        /* \"#utility.yul\":6368:6390   */\n      lt\n        /* \"#utility.yul\":6347:6365   */\n      0xffffffffffffffff\n        /* \"#utility.yul\":6335:6345   */\n      dup3\n        /* \"#utility.yul\":6332:6366   */\n      gt\n        /* \"#utility.yul\":6329:6391   */\n      or\n        /* \"#utility.yul\":6326:6414   */\n      iszero\n      tag_227\n      jumpi\n        /* \"#utility.yul\":6394:6412   */\n      tag_228\n      tag_143\n      jump\t// in\n    tag_228:\n        /* \"#utility.yul\":6326:6414   */\n    tag_227:\n        /* \"#utility.yul\":6434:6444   */\n      dup1\n        /* \"#utility.yul\":6430:6432   */\n      0x40\n        /* \"#utility.yul\":6423:6445   */\n      mstore\n        /* \"#utility.yul\":6213:6451   */\n      pop\n        /* \"#utility.yul\":6170:6451   */\n      pop\n      pop\n      jump\t// out\n        /* \"#utility.yul\":6457:6586   */\n    tag_145:\n        /* \"#utility.yul\":6491:6497   */\n      0x00\n        /* \"#utility.yul\":6518:6538   */\n      tag_230\n      tag_139\n      jump\t// in\n    tag_230:\n        /* \"#utility.yul\":6508:6538   */\n      swap1\n      pop\n        /* \"#utility.yul\":6547:6580   */\n      tag_231\n        /* \"#utility.yul\":6575:6579   */\n      dup3\n        /* \"#utility.yul\":6567:6573   */\n      dup3\n        /* \"#utility.yul\":6547:6580   */\n      tag_144\n      jump\t// in\n    tag_231:\n        /* \"#utility.yul\":6457:6586   */\n      swap2\n      swap1\n      pop\n      jump\t// out\n        /* \"#utility.yul\":6592:6709   */\n    tag_146:\n        /* \"#utility.yul\":6701:6702   */\n      0x00\n        /* \"#utility.yul\":6698:6699   */\n      dup1\n        /* \"#utility.yul\":6691:6703   */\n      revert\n        /* \"#utility.yul\":6715:6837   */\n    tag_147:\n        /* \"#utility.yul\":6788:6812   */\n      tag_234\n        /* \"#utility.yul\":6806:6811   */\n      dup2\n        /* \"#utility.yul\":6788:6812   */\n      tag_124\n      jump\t// in\n    tag_234:\n        /* \"#utility.yul\":6781:6786   */\n      dup2\n        /* \"#utility.yul\":6778:6813   */\n      eq\n        /* \"#utility.yul\":6768:6831   */\n      tag_235\n      jumpi\n        /* \"#utility.yul\":6827:6828   */\n      0x00\n        /* \"#utility.yul\":6824:6825   */\n      dup1\n        /* \"#utility.yul\":6817:6829   */\n      revert\n        /* \"#utility.yul\":6768:6831   */\n    tag_235:\n        /* \"#utility.yul\":6715:6837   */\n      pop\n      jump\t// out\n        /* \"#utility.yul\":6843:6982   */\n    tag_148:\n        /* \"#utility.yul\":6889:6894   */\n      0x00\n        /* \"#utility.yul\":6927:6933   */\n      dup2\n        /* \"#utility.yul\":6914:6934   */\n      calldataload\n        /* \"#utility.yul\":6905:6934   */\n      swap1\n      pop\n        /* \"#utility.yul\":6943:6976   */\n      tag_237\n        /* \"#utility.yul\":6970:6975   */\n      dup2\n        /* \"#utility.yul\":6943:6976   */\n      tag_147\n      jump\t// in\n    tag_237:\n        /* \"#utility.yul\":6843:6982   */\n      swap3\n      swap2\n      pop\n      pop\n      jump\t// out\n        /* \"#utility.yul\":6988:7105   */\n    tag_149:\n        /* \"#utility.yul\":7097:7098   */\n      0x00\n        /* \"#utility.yul\":7094:7095   */\n      dup1\n        /* \"#utility.yul\":7087:7099   */\n      revert\n        /* \"#utility.yul\":7111:7228   */\n    tag_150:\n        /* \"#utility.yul\":7220:7221   */\n      0x00\n        /* \"#utility.yul\":7217:7218   */\n      dup1\n        /* \"#utility.yul\":7210:7222   */\n      revert\n        /* \"#utility.yul\":7234:7542   */\n    tag_151:\n        /* \"#utility.yul\":7296:7300   */\n      0x00\n        /* \"#utility.yul\":7386:7404   */\n      0xffffffffffffffff\n        /* \"#utility.yul\":7378:7384   */\n      dup3\n        /* \"#utility.yul\":7375:7405   */\n      gt\n        /* \"#utility.yul\":7372:7428   */\n      iszero\n      tag_241\n      jumpi\n        /* \"#utility.yul\":7408:7426   */\n      tag_242\n      tag_143\n      jump\t// in\n    tag_242:\n        /* \"#utility.yul\":7372:7428   */\n    tag_241:\n        /* \"#utility.yul\":7446:7475   */\n      tag_243\n        /* \"#utility.yul\":7468:7474   */\n      dup3\n        /* \"#utility.yul\":7446:7475   */\n      tag_133\n      jump\t// in\n    tag_243:\n        /* \"#utility.yul\":7438:7475   */\n      swap1\n      pop\n        /* \"#utility.yul\":7530:7534   */\n      0x20\n        /* \"#utility.yul\":7524:7528   */\n      dup2\n        /* \"#utility.yul\":7520:7535   */\n      add\n        /* \"#utility.yul\":7512:7535   */\n      swap1\n      pop\n        /* \"#utility.yul\":7234:7542   */\n      swap2\n      swap1\n      pop\n      jump\t// out\n        /* \"#utility.yul\":7548:7694   */\n    tag_152:\n        /* \"#utility.yul\":7645:7651   */\n      dup3\n        /* \"#utility.yul\":7640:7643   */\n      dup2\n        /* \"#utility.yul\":7635:7638   */\n      dup4\n        /* \"#utility.yul\":7622:7652   */\n      calldatacopy\n        /* \"#utility.yul\":7686:7687   */\n      0x00\n        /* \"#utility.yul\":7677:7683   */\n      dup4\n        /* \"#utility.yul\":7672:7675   */\n      dup4\n        /* \"#utility.yul\":7668:7684   */\n      add\n        /* \"#utility.yul\":7661:7688   */\n      mstore\n        /* \"#utility.yul\":7548:7694   */\n      pop\n      pop\n      pop\n      jump\t// out\n        /* \"#utility.yul\":7700:8125   */\n    tag_153:\n        /* \"#utility.yul\":7778:7783   */\n      0x00\n        /* \"#utility.yul\":7803:7869   */\n      tag_246\n        /* \"#utility.yul\":7819:7868   */\n      tag_247\n        /* \"#utility.yul\":7861:7867   */\n      dup5\n        /* \"#utility.yul\":7819:7868   */\n      tag_151\n      jump\t// in\n    tag_247:\n        /* \"#utility.yul\":7803:7869   */\n      tag_145\n      jump\t// in\n    tag_246:\n        /* \"#utility.yul\":7794:7869   */\n      swap1\n      pop\n        /* \"#utility.yul\":7892:7898   */\n      dup3\n        /* \"#utility.yul\":7885:7890   */\n      dup2\n        /* \"#utility.yul\":7878:7899   */\n      mstore\n        /* \"#utility.yul\":7930:7934   */\n      0x20\n        /* \"#utility.yul\":7923:7928   */\n      dup2\n        /* \"#utility.yul\":7919:7935   */\n      add\n        /* \"#utility.yul\":7968:7971   */\n      dup5\n        /* \"#utility.yul\":7959:7965   */\n      dup5\n        /* \"#utility.yul\":7954:7957   */\n      dup5\n        /* \"#utility.yul\":7950:7966   */\n      add\n        /* \"#utility.yul\":7947:7972   */\n      gt\n        /* \"#utility.yul\":7944:8056   */\n      iszero\n      tag_248\n      jumpi\n        /* \"#utility.yul\":7975:8054   */\n      tag_249\n      tag_150\n      jump\t// in\n    tag_249:\n        /* \"#utility.yul\":7944:8056   */\n    tag_248:\n        /* \"#utility.yul\":8065:8119   */\n      tag_250\n        /* \"#utility.yul\":8112:8118   */\n      dup5\n        /* \"#utility.yul\":8107:8110   */\n      dup3\n        /* \"#utility.yul\":8102:8105   */\n      dup6\n        /* \"#utility.yul\":8065:8119   */\n      tag_152\n      jump\t// in\n    tag_250:\n        /* \"#utility.yul\":7784:8125   */\n      pop\n        /* \"#utility.yul\":7700:8125   */\n      swap4\n      swap3\n      pop\n      pop\n      pop\n      jump\t// out\n        /* \"#utility.yul\":8145:8485   */\n    tag_154:\n        /* \"#utility.yul\":8201:8206   */\n      0x00\n        /* \"#utility.yul\":8250:8253   */\n      dup3\n        /* \"#utility.yul\":8243:8247   */\n      0x1f\n        /* \"#utility.yul\":8235:8241   */\n      dup4\n        /* \"#utility.yul\":8231:8248   */\n      add\n        /* \"#utility.yul\":8227:8254   */\n      slt\n        /* \"#utility.yul\":8217:8339   */\n      tag_252\n      jumpi\n        /* \"#utility.yul\":8258:8337   */\n      tag_253\n      tag_149\n      jump\t// in\n    tag_253:\n        /* \"#utility.yul\":8217:8339   */\n    tag_252:\n        /* \"#utility.yul\":8375:8381   */\n      dup2\n        /* \"#utility.yul\":8362:8382   */\n      calldataload\n        /* \"#utility.yul\":8400:8479   */\n      tag_254\n        /* \"#utility.yul\":8475:8478   */\n      dup5\n        /* \"#utility.yul\":8467:8473   */\n      dup3\n        /* \"#utility.yul\":8460:8464   */\n      0x20\n        /* \"#utility.yul\":8452:8458   */\n      dup7\n        /* \"#utility.yul\":8448:8465   */\n      add\n        /* \"#utility.yul\":8400:8479   */\n      tag_153\n      jump\t// in\n    tag_254:\n        /* \"#utility.yul\":8391:8479   */\n      swap2\n      pop\n        /* \"#utility.yul\":8207:8485   */\n      pop\n        /* \"#utility.yul\":8145:8485   */\n      swap3\n      swap2\n      pop\n      pop\n      jump\t// out\n        /* \"#utility.yul\":8510:10253   */\n    tag_155:\n        /* \"#utility.yul\":8579:8584   */\n      0x00\n        /* \"#utility.yul\":8623:8627   */\n      0xa0\n        /* \"#utility.yul\":8611:8620   */\n      dup3\n        /* \"#utility.yul\":8606:8609   */\n      dup5\n        /* \"#utility.yul\":8602:8621   */\n      sub\n        /* \"#utility.yul\":8598:8628   */\n      slt\n        /* \"#utility.yul\":8595:8712   */\n      iszero\n      tag_256\n      jumpi\n        /* \"#utility.yul\":8631:8710   */\n      tag_257\n      tag_142\n      jump\t// in\n    tag_257:\n        /* \"#utility.yul\":8595:8712   */\n    tag_256:\n        /* \"#utility.yul\":8730:8751   */\n      tag_258\n        /* \"#utility.yul\":8746:8750   */\n      0xa0\n        /* \"#utility.yul\":8730:8751   */\n      tag_145\n      jump\t// in\n    tag_258:\n        /* \"#utility.yul\":8721:8751   */\n      swap1\n      pop\n        /* \"#utility.yul\":8814:8815   */\n      0x00\n        /* \"#utility.yul\":8854:8903   */\n      tag_259\n        /* \"#utility.yul\":8899:8902   */\n      dup5\n        /* \"#utility.yul\":8890:8896   */\n      dup3\n        /* \"#utility.yul\":8879:8888   */\n      dup6\n        /* \"#utility.yul\":8875:8897   */\n      add\n        /* \"#utility.yul\":8854:8903   */\n      tag_148\n      jump\t// in\n    tag_259:\n        /* \"#utility.yul\":8847:8851   */\n      0x00\n        /* \"#utility.yul\":8840:8845   */\n      dup4\n        /* \"#utility.yul\":8836:8852   */\n      add\n        /* \"#utility.yul\":8829:8904   */\n      mstore\n        /* \"#utility.yul\":8761:8915   */\n      pop\n        /* \"#utility.yul\":9003:9005   */\n      0x20\n        /* \"#utility.yul\":8992:9001   */\n      dup3\n        /* \"#utility.yul\":8988:9006   */\n      add\n        /* \"#utility.yul\":8975:9007   */\n      calldataload\n        /* \"#utility.yul\":9034:9052   */\n      0xffffffffffffffff\n        /* \"#utility.yul\":9026:9032   */\n      dup2\n        /* \"#utility.yul\":9023:9053   */\n      gt\n        /* \"#utility.yul\":9020:9137   */\n      iszero\n      tag_260\n      jumpi\n        /* \"#utility.yul\":9056:9135   */\n      tag_261\n      tag_146\n      jump\t// in\n    tag_261:\n        /* \"#utility.yul\":9020:9137   */\n    tag_260:\n        /* \"#utility.yul\":9176:9235   */\n      tag_262\n        /* \"#utility.yul\":9231:9234   */\n      dup5\n        /* \"#utility.yul\":9222:9228   */\n      dup3\n        /* \"#utility.yul\":9211:9220   */\n      dup6\n        /* \"#utility.yul\":9207:9229   */\n      add\n        /* \"#utility.yul\":9176:9235   */\n      tag_154\n      jump\t// in\n    tag_262:\n        /* \"#utility.yul\":9169:9173   */\n      0x20\n        /* \"#utility.yul\":9162:9167   */\n      dup4\n        /* \"#utility.yul\":9158:9174   */\n      add\n        /* \"#utility.yul\":9151:9236   */\n      mstore\n        /* \"#utility.yul\":8925:9247   */\n      pop\n        /* \"#utility.yul\":9338:9340   */\n      0x40\n        /* \"#utility.yul\":9327:9336   */\n      dup3\n        /* \"#utility.yul\":9323:9341   */\n      add\n        /* \"#utility.yul\":9310:9342   */\n      calldataload\n        /* \"#utility.yul\":9369:9387   */\n      0xffffffffffffffff\n        /* \"#utility.yul\":9361:9367   */\n      dup2\n        /* \"#utility.yul\":9358:9388   */\n      gt\n        /* \"#utility.yul\":9355:9472   */\n      iszero\n      tag_263\n      jumpi\n        /* \"#utility.yul\":9391:9470   */\n      tag_264\n      tag_146\n      jump\t// in\n    tag_264:\n        /* \"#utility.yul\":9355:9472   */\n    tag_263:\n        /* \"#utility.yul\":9511:9570   */\n      tag_265\n        /* \"#utility.yul\":9566:9569   */\n      dup5\n        /* \"#utility.yul\":9557:9563   */\n      dup3\n        /* \"#utility.yul\":9546:9555   */\n      dup6\n        /* \"#utility.yul\":9542:9564   */\n      add\n        /* \"#utility.yul\":9511:9570   */\n      tag_154\n      jump\t// in\n    tag_265:\n        /* \"#utility.yul\":9504:9508   */\n      0x40\n        /* \"#utility.yul\":9497:9502   */\n      dup4\n        /* \"#utility.yul\":9493:9509   */\n      add\n        /* \"#utility.yul\":9486:9571   */\n      mstore\n        /* \"#utility.yul\":9257:9582   */\n      pop\n        /* \"#utility.yul\":9668:9670   */\n      0x60\n        /* \"#utility.yul\":9657:9666   */\n      dup3\n        /* \"#utility.yul\":9653:9671   */\n      add\n        /* \"#utility.yul\":9640:9672   */\n      calldataload\n        /* \"#utility.yul\":9699:9717   */\n      0xffffffffffffffff\n        /* \"#utility.yul\":9691:9697   */\n      dup2\n        /* \"#utility.yul\":9688:9718   */\n      gt\n        /* \"#utility.yul\":9685:9802   */\n      iszero\n      tag_266\n      jumpi\n        /* \"#utility.yul\":9721:9800   */\n      tag_267\n      tag_146\n      jump\t// in\n    tag_267:\n        /* \"#utility.yul\":9685:9802   */\n    tag_266:\n        /* \"#utility.yul\":9841:9900   */\n      tag_268\n        /* \"#utility.yul\":9896:9899   */\n      dup5\n        /* \"#utility.yul\":9887:9893   */\n      dup3\n        /* \"#utility.yul\":9876:9885   */\n      dup6\n        /* \"#utility.yul\":9872:9894   */\n      add\n        /* \"#utility.yul\":9841:9900   */\n      tag_154\n      jump\t// in\n    tag_268:\n        /* \"#utility.yul\":9834:9838   */\n      0x60\n        /* \"#utility.yul\":9827:9832   */\n      dup4\n        /* \"#utility.yul\":9823:9839   */\n      add\n        /* \"#utility.yul\":9816:9901   */\n      mstore\n        /* \"#utility.yul\":9592:9912   */\n      pop\n        /* \"#utility.yul\":10001:10004   */\n      0x80\n        /* \"#utility.yul\":9990:9999   */\n      dup3\n        /* \"#utility.yul\":9986:10005   */\n      add\n        /* \"#utility.yul\":9973:10006   */\n      calldataload\n        /* \"#utility.yul\":10033:10051   */\n      0xffffffffffffffff\n        /* \"#utility.yul\":10025:10031   */\n      dup2\n        /* \"#utility.yul\":10022:10052   */\n      gt\n        /* \"#utility.yul\":10019:10136   */\n      iszero\n      tag_269\n      jumpi\n        /* \"#utility.yul\":10055:10134   */\n      tag_270\n      tag_146\n      jump\t// in\n    tag_270:\n        /* \"#utility.yul\":10019:10136   */\n    tag_269:\n        /* \"#utility.yul\":10175:10234   */\n      tag_271\n        /* \"#utility.yul\":10230:10233   */\n      dup5\n        /* \"#utility.yul\":10221:10227   */\n      dup3\n        /* \"#utility.yul\":10210:10219   */\n      dup6\n        /* \"#utility.yul\":10206:10228   */\n      add\n        /* \"#utility.yul\":10175:10234   */\n      tag_154\n      jump\t// in\n    tag_271:\n        /* \"#utility.yul\":10168:10172   */\n      0x80\n        /* \"#utility.yul\":10161:10166   */\n      dup4\n        /* \"#utility.yul\":10157:10173   */\n      add\n        /* \"#utility.yul\":10150:10235   */\n      mstore\n        /* \"#utility.yul\":9922:10246   */\n      pop\n        /* \"#utility.yul\":8510:10253   */\n      swap3\n      swap2\n      pop\n      pop\n      jump\t// out\n        /* \"#utility.yul\":10259:10788   */\n    tag_27:\n        /* \"#utility.yul\":10338:10344   */\n      0x00\n        /* \"#utility.yul\":10387:10389   */\n      0x20\n        /* \"#utility.yul\":10375:10384   */\n      dup3\n        /* \"#utility.yul\":10366:10373   */\n      dup5\n        /* \"#utility.yul\":10362:10385   */\n      sub\n        /* \"#utility.yul\":10358:10390   */\n      slt\n        /* \"#utility.yul\":10355:10474   */\n      iszero\n      tag_273\n      jumpi\n        /* \"#utility.yul\":10393:10472   */\n      tag_274\n      tag_140\n      jump\t// in\n    tag_274:\n        /* \"#utility.yul\":10355:10474   */\n    tag_273:\n        /* \"#utility.yul\":10541:10542   */\n      0x00\n        /* \"#utility.yul\":10530:10539   */\n      dup3\n        /* \"#utility.yul\":10526:10543   */\n      add\n        /* \"#utility.yul\":10513:10544   */\n      calldataload\n        /* \"#utility.yul\":10571:10589   */\n      0xffffffffffffffff\n        /* \"#utility.yul\":10563:10569   */\n      dup2\n        /* \"#utility.yul\":10560:10590   */\n      gt\n        /* \"#utility.yul\":10557:10674   */\n      iszero\n      tag_275\n      jumpi\n        /* \"#utility.yul\":10593:10672   */\n      tag_276\n      tag_141\n      jump\t// in\n    tag_276:\n        /* \"#utility.yul\":10557:10674   */\n    tag_275:\n        /* \"#utility.yul\":10698:10771   */\n      tag_277\n        /* \"#utility.yul\":10763:10770   */\n      dup5\n        /* \"#utility.yul\":10754:10760   */\n      dup3\n        /* \"#utility.yul\":10743:10752   */\n      dup6\n        /* \"#utility.yul\":10739:10761   */\n      add\n        /* \"#utility.yul\":10698:10771   */\n      tag_155\n      jump\t// in\n    tag_277:\n        /* \"#utility.yul\":10688:10771   */\n      swap2\n      pop\n        /* \"#utility.yul\":10484:10781   */\n      pop\n        /* \"#utility.yul\":10259:10788   */\n      swap3\n      swap2\n      pop\n      pop\n      jump\t// out\n        /* \"#utility.yul\":10794:10871   */\n    tag_156:\n        /* \"#utility.yul\":10831:10838   */\n      0x00\n        /* \"#utility.yul\":10860:10865   */\n      dup2\n        /* \"#utility.yul\":10849:10865   */\n      swap1\n      pop\n        /* \"#utility.yul\":10794:10871   */\n      swap2\n      swap1\n      pop\n      jump\t// out\n        /* \"#utility.yul\":10877:10999   */\n    tag_157:\n        /* \"#utility.yul\":10950:10974   */\n      tag_280\n        /* \"#utility.yul\":10968:10973   */\n      dup2\n        /* \"#utility.yul\":10950:10974   */\n      tag_156\n      jump\t// in\n    tag_280:\n        /* \"#utility.yul\":10943:10948   */\n      dup2\n        /* \"#utility.yul\":10940:10975   */\n      eq\n        /* \"#utility.yul\":10930:10993   */\n      tag_281\n      jumpi\n        /* \"#utility.yul\":10989:10990   */\n      0x00\n        /* \"#utility.yul\":10986:10987   */\n      dup1\n        /* \"#utility.yul\":10979:10991   */\n      revert\n        /* \"#utility.yul\":10930:10993   */\n    tag_281:\n        /* \"#utility.yul\":10877:10999   */\n      pop\n      jump\t// out\n        /* \"#utility.yul\":11005:11144   */\n    tag_158:\n        /* \"#utility.yul\":11051:11056   */\n      0x00\n        /* \"#utility.yul\":11089:11095   */\n      dup2\n        /* \"#utility.yul\":11076:11096   */\n      calldataload\n        /* \"#utility.yul\":11067:11096   */\n      swap1\n      pop\n        /* \"#utility.yul\":11105:11138   */\n      tag_283\n        /* \"#utility.yul\":11132:11137   */\n      dup2\n        /* \"#utility.yul\":11105:11138   */\n      tag_157\n      jump\t// in\n    tag_283:\n        /* \"#utility.yul\":11005:11144   */\n      swap3\n      swap2\n      pop\n      pop\n      jump\t// out\n        /* \"#utility.yul\":11150:11824   */\n    tag_31:\n        /* \"#utility.yul\":11238:11244   */\n      0x00\n        /* \"#utility.yul\":11246:11252   */\n      dup1\n        /* \"#utility.yul\":11295:11297   */\n      0x40\n        /* \"#utility.yul\":11283:11292   */\n      dup4\n        /* \"#utility.yul\":11274:11281   */\n      dup6\n        /* \"#utility.yul\":11270:11293   */\n      sub\n        /* \"#utility.yul\":11266:11298   */\n      slt\n        /* \"#utility.yul\":11263:11382   */\n      iszero\n      tag_285\n      jumpi\n        /* \"#utility.yul\":11301:11380   */\n      tag_286\n      tag_140\n      jump\t// in\n    tag_286:\n        /* \"#utility.yul\":11263:11382   */\n    tag_285:\n        /* \"#utility.yul\":11421:11422   */\n      0x00\n        /* \"#utility.yul\":11446:11499   */\n      tag_287\n        /* \"#utility.yul\":11491:11498   */\n      dup6\n        /* \"#utility.yul\":11482:11488   */\n      dup3\n        /* \"#utility.yul\":11471:11480   */\n      dup7\n        /* \"#utility.yul\":11467:11489   */\n      add\n        /* \"#utility.yul\":11446:11499   */\n      tag_158\n      jump\t// in\n    tag_287:\n        /* \"#utility.yul\":11436:11499   */\n      swap3\n      pop\n        /* \"#utility.yul\":11392:11509   */\n      pop\n        /* \"#utility.yul\":11576:11578   */\n      0x20\n        /* \"#utility.yul\":11565:11574   */\n      dup4\n        /* \"#utility.yul\":11561:11579   */\n      add\n        /* \"#utility.yul\":11548:11580   */\n      calldataload\n        /* \"#utility.yul\":11607:11625   */\n      0xffffffffffffffff\n        /* \"#utility.yul\":11599:11605   */\n      dup2\n        /* \"#utility.yul\":11596:11626   */\n      gt\n        /* \"#utility.yul\":11593:11710   */\n      iszero\n      tag_288\n      jumpi\n        /* \"#utility.yul\":11629:11708   */\n      tag_289\n      tag_141\n      jump\t// in\n    tag_289:\n        /* \"#utility.yul\":11593:11710   */\n    tag_288:\n        /* \"#utility.yul\":11734:11807   */\n      tag_290\n        /* \"#utility.yul\":11799:11806   */\n      dup6\n        /* \"#utility.yul\":11790:11796   */\n      dup3\n        /* \"#utility.yul\":11779:11788   */\n      dup7\n        /* \"#utility.yul\":11775:11797   */\n      add\n        /* \"#utility.yul\":11734:11807   */\n      tag_155\n      jump\t// in\n    tag_290:\n        /* \"#utility.yul\":11724:11807   */\n      swap2\n      pop\n        /* \"#utility.yul\":11519:11817   */\n      pop\n        /* \"#utility.yul\":11150:11824   */\n      swap3\n      pop\n      swap3\n      swap1\n      pop\n      jump\t// out\n        /* \"#utility.yul\":11830:12159   */\n    tag_35:\n        /* \"#utility.yul\":11889:11895   */\n      0x00\n        /* \"#utility.yul\":11938:11940   */\n      0x20\n        /* \"#utility.yul\":11926:11935   */\n      dup3\n        /* \"#utility.yul\":11917:11924   */\n      dup5\n        /* \"#utility.yul\":11913:11936   */\n      sub\n        /* \"#utility.yul\":11909:11941   */\n      slt\n        /* \"#utility.yul\":11906:12025   */\n      iszero\n      tag_292\n      jumpi\n        /* \"#utility.yul\":11944:12023   */\n      tag_293\n      tag_140\n      jump\t// in\n    tag_293:\n        /* \"#utility.yul\":11906:12025   */\n    tag_292:\n        /* \"#utility.yul\":12064:12065   */\n      0x00\n        /* \"#utility.yul\":12089:12142   */\n      tag_294\n        /* \"#utility.yul\":12134:12141   */\n      dup5\n        /* \"#utility.yul\":12125:12131   */\n      dup3\n        /* \"#utility.yul\":12114:12123   */\n      dup6\n        /* \"#utility.yul\":12110:12132   */\n      add\n        /* \"#utility.yul\":12089:12142   */\n      tag_148\n      jump\t// in\n    tag_294:\n        /* \"#utility.yul\":12079:12142   */\n      swap2\n      pop\n        /* \"#utility.yul\":12035:12152   */\n      pop\n        /* \"#utility.yul\":11830:12159   */\n      swap3\n      swap2\n      pop\n      pop\n      jump\t// out\n        /* \"#utility.yul\":12165:12494   */\n    tag_39:\n        /* \"#utility.yul\":12224:12230   */\n      0x00\n        /* \"#utility.yul\":12273:12275   */\n      0x20\n        /* \"#utility.yul\":12261:12270   */\n      dup3\n        /* \"#utility.yul\":12252:12259   */\n      dup5\n        /* \"#utility.yul\":12248:12271   */\n      sub\n        /* \"#utility.yul\":12244:12276   */\n      slt\n        /* \"#utility.yul\":12241:12360   */\n      iszero\n      tag_296\n      jumpi\n        /* \"#utility.yul\":12279:12358   */\n      tag_297\n      tag_140\n      jump\t// in\n    tag_297:\n        /* \"#utility.yul\":12241:12360   */\n    tag_296:\n        /* \"#utility.yul\":12399:12400   */\n      0x00\n        /* \"#utility.yul\":12424:12477   */\n      tag_298\n        /* \"#utility.yul\":12469:12476   */\n      dup5\n        /* \"#utility.yul\":12460:12466   */\n      dup3\n        /* \"#utility.yul\":12449:12458   */\n      dup6\n        /* \"#utility.yul\":12445:12467   */\n      add\n        /* \"#utility.yul\":12424:12477   */\n      tag_158\n      jump\t// in\n    tag_298:\n        /* \"#utility.yul\":12414:12477   */\n      swap2\n      pop\n        /* \"#utility.yul\":12370:12487   */\n      pop\n        /* \"#utility.yul\":12165:12494   */\n      swap3\n      swap2\n      pop\n      pop\n      jump\t// out\n        /* \"#utility.yul\":12500:12680   */\n    tag_159:\n        /* \"#utility.yul\":12548:12625   */\n      0x4e487b7100000000000000000000000000000000000000000000000000000000\n        /* \"#utility.yul\":12545:12546   */\n      0x00\n        /* \"#utility.yul\":12538:12626   */\n      mstore\n        /* \"#utility.yul\":12645:12649   */\n      0x22\n        /* \"#utility.yul\":12642:12643   */\n      0x04\n        /* \"#utility.yul\":12635:12650   */\n      mstore\n        /* \"#utility.yul\":12669:12673   */\n      0x24\n        /* \"#utility.yul\":12666:12667   */\n      0x00\n        /* \"#utility.yul\":12659:12674   */\n      revert\n        /* \"#utility.yul\":12686:13006   */\n    tag_55:\n        /* \"#utility.yul\":12730:12736   */\n      0x00\n        /* \"#utility.yul\":12767:12768   */\n      0x02\n        /* \"#utility.yul\":12761:12765   */\n      dup3\n        /* \"#utility.yul\":12757:12769   */\n      div\n        /* \"#utility.yul\":12747:12769   */\n      swap1\n      pop\n        /* \"#utility.yul\":12814:12815   */\n      0x01\n        /* \"#utility.yul\":12808:12812   */\n      dup3\n        /* \"#utility.yul\":12804:12816   */\n      and\n        /* \"#utility.yul\":12835:12853   */\n      dup1\n        /* \"#utility.yul\":12825:12906   */\n      tag_301\n      jumpi\n        /* \"#utility.yul\":12891:12895   */\n      0x7f\n        /* \"#utility.yul\":12883:12889   */\n      dup3\n        /* \"#utility.yul\":12879:12896   */\n      and\n        /* \"#utility.yul\":12869:12896   */\n      swap2\n      pop\n        /* \"#utility.yul\":12825:12906   */\n    tag_301:\n        /* \"#utility.yul\":12953:12955   */\n      0x20\n        /* \"#utility.yul\":12945:12951   */\n      dup3\n        /* \"#utility.yul\":12942:12956   */\n      lt\n        /* \"#utility.yul\":12922:12940   */\n      dup2\n        /* \"#utility.yul\":12919:12957   */\n      sub\n        /* \"#utility.yul\":12916:13000   */\n      tag_302\n      jumpi\n        /* \"#utility.yul\":12972:12990   */\n      tag_303\n      tag_159\n      jump\t// in\n    tag_303:\n        /* \"#utility.yul\":12916:13000   */\n    tag_302:\n        /* \"#utility.yul\":12737:13006   */\n      pop\n        /* \"#utility.yul\":12686:13006   */\n      swap2\n      swap1\n      pop\n      jump\t// out\n        /* \"#utility.yul\":13012:13153   */\n    tag_160:\n        /* \"#utility.yul\":13061:13065   */\n      0x00\n        /* \"#utility.yul\":13084:13087   */\n      dup2\n        /* \"#utility.yul\":13076:13087   */\n      swap1\n      pop\n        /* \"#utility.yul\":13107:13110   */\n      dup2\n        /* \"#utility.yul\":13104:13105   */\n      0x00\n        /* \"#utility.yul\":13097:13111   */\n      mstore\n        /* \"#utility.yul\":13141:13145   */\n      0x20\n        /* \"#utility.yul\":13138:13139   */\n      0x00\n        /* \"#utility.yul\":13128:13146   */\n      keccak256\n        /* \"#utility.yul\":13120:13146   */\n      swap1\n      pop\n        /* \"#utility.yul\":13012:13153   */\n      swap2\n      swap1\n      pop\n      jump\t// out\n        /* \"#utility.yul\":13159:13252   */\n    tag_161:\n        /* \"#utility.yul\":13196:13202   */\n      0x00\n        /* \"#utility.yul\":13243:13245   */\n      0x20\n        /* \"#utility.yul\":13238:13240   */\n      0x1f\n        /* \"#utility.yul\":13231:13236   */\n      dup4\n        /* \"#utility.yul\":13227:13241   */\n      add\n        /* \"#utility.yul\":13223:13246   */\n      div\n        /* \"#utility.yul\":13213:13246   */\n      swap1\n      pop\n        /* \"#utility.yul\":13159:13252   */\n      swap2\n      swap1\n      pop\n      jump\t// out\n        /* \"#utility.yul\":13258:13365   */\n    tag_162:\n        /* \"#utility.yul\":13302:13310   */\n      0x00\n        /* \"#utility.yul\":13352:13357   */\n      dup3\n        /* \"#utility.yul\":13346:13350   */\n      dup3\n        /* \"#utility.yul\":13342:13358   */\n      shl\n        /* \"#utility.yul\":13321:13358   */\n      swap1\n      pop\n        /* \"#utility.yul\":13258:13365   */\n      swap3\n      swap2\n      pop\n      pop\n      jump\t// out\n        /* \"#utility.yul\":13371:13764   */\n    tag_163:\n        /* \"#utility.yul\":13440:13446   */\n      0x00\n        /* \"#utility.yul\":13490:13491   */\n      0x08\n        /* \"#utility.yul\":13478:13488   */\n      dup4\n        /* \"#utility.yul\":13474:13492   */\n      mul\n        /* \"#utility.yul\":13513:13610   */\n      tag_308\n        /* \"#utility.yul\":13543:13609   */\n      0xffffffffffffffffffffffffffffffffffffffffffffffffffffffffffffffff\n        /* \"#utility.yul\":13532:13541   */\n      dup3\n        /* \"#utility.yul\":13513:13610   */\n      tag_162\n      jump\t// in\n    tag_308:\n        /* \"#utility.yul\":13631:13670   */\n      tag_309\n        /* \"#utility.yul\":13661:13669   */\n      dup7\n        /* \"#utility.yul\":13650:13659   */\n      dup4\n        /* \"#utility.yul\":13631:13670   */\n      tag_162\n      jump\t// in\n    tag_309:\n        /* \"#utility.yul\":13619:13670   */\n      swap6\n      pop\n        /* \"#utility.yul\":13703:13707   */\n      dup1\n        /* \"#utility.yul\":13699:13708   */\n      not\n        /* \"#utility.yul\":13692:13697   */\n      dup5\n        /* \"#utility.yul\":13688:13709   */\n      and\n        /* \"#utility.yul\":13679:13709   */\n      swap4\n      pop\n        /* \"#utility.yul\":13752:13756   */\n      dup1\n        /* \"#utility.yul\":13742:13750   */\n      dup7\n        /* \"#utility.yul\":13738:13757   */\n      and\n        /* \"#utility.yul\":13731:13736   */\n      dup5\n        /* \"#utility.yul\":13728:13758   */\n      or\n        /* \"#utility.yul\":13718:13758   */\n      swap3\n      pop\n        /* \"#utility.yul\":13447:13764   */\n      pop\n      pop\n        /* \"#utility.yul\":13371:13764   */\n      swap4\n      swap3\n      pop\n      pop\n      pop\n      jump\t// out\n        /* \"#utility.yul\":13770:13830   */\n    tag_164:\n        /* \"#utility.yul\":13798:13801   */\n      0x00\n        /* \"#utility.yul\":13819:13824   */\n      dup2\n        /* \"#utility.yul\":13812:13824   */\n      swap1\n      pop\n        /* \"#utility.yul\":13770:13830   */\n      swap2\n      swap1\n      pop\n      jump\t// out\n        /* \"#utility.yul\":13836:13978   */\n    tag_165:\n        /* \"#utility.yul\":13886:13895   */\n      0x00\n        /* \"#utility.yul\":13919:13972   */\n      tag_312\n        /* \"#utility.yul\":13937:13971   */\n      tag_313\n        /* \"#utility.yul\":13946:13970   */\n      tag_314\n        /* \"#utility.yul\":13964:13969   */\n      dup5\n        /* \"#utility.yul\":13946:13970   */\n      tag_156\n      jump\t// in\n    tag_314:\n        /* \"#utility.yul\":13937:13971   */\n      tag_164\n      jump\t// in\n    tag_313:\n        /* \"#utility.yul\":13919:13972   */\n      tag_156\n      jump\t// in\n    tag_312:\n        /* \"#utility.yul\":13906:13972   */\n      swap1\n      pop\n        /* \"#utility.yul\":13836:13978   */\n      swap2\n      swap1\n      pop\n      jump\t// out\n        /* \"#utility.yul\":13984:14059   */\n    tag_166:\n        /* \"#utility.yul\":14027:14030   */\n      0x00\n        /* \"#utility.yul\":14048:14053   */\n      dup2\n        /* \"#utility.yul\":14041:14053   */\n      swap1\n      pop\n        /* \"#utility.yul\":13984:14059   */\n      swap2\n      swap1\n      pop\n      jump\t// out\n        /* \"#utility.yul\":14065:14334   */\n    tag_167:\n        /* \"#utility.yul\":14175:14214   */\n      tag_317\n        /* \"#utility.yul\":14206:14213   */\n      dup4\n        /* \"#utility.yul\":14175:14214   */\n      tag_165\n      jump\t// in\n    tag_317:\n        /* \"#utility.yul\":14236:14327   */\n      tag_318\n        /* \"#utility.yul\":14285:14326   */\n      tag_319\n        /* \"#utility.yul\":14309:14325   */\n      dup3\n        /* \"#utility.yul\":14285:14326   */\n      tag_166\n      jump\t// in\n    tag_319:\n        /* \"#utility.yul\":14277:14283   */\n      dup5\n        /* \"#utility.yul\":14270:14274   */\n      dup5\n        /* \"#utility.yul\":14264:14275   */\n      sload\n        /* \"#utility.yul\":14236:14327   */\n      tag_163\n      jump\t// in\n    tag_318:\n        /* \"#utility.yul\":14230:14234   */\n      dup3\n        /* \"#utility.yul\":14223:14328   */\n      sstore\n        /* \"#utility.yul\":14141:14334   */\n      pop\n        /* \"#utility.yul\":14065:14334   */\n      pop\n      pop\n      pop\n      jump\t// out\n        /* \"#utility.yul\":14340:14413   */\n    tag_168:\n        /* \"#utility.yul\":14385:14388   */\n      0x00\n        /* \"#utility.yul\":14340:14413   */\n      swap1\n      jump\t// out\n        /* \"#utility.yul\":14419:14608   */\n    tag_169:\n        /* \"#utility.yul\":14496:14528   */\n      tag_322\n      tag_168\n      jump\t// in\n    tag_322:\n        /* \"#utility.yul\":14537:14602   */\n      tag_323\n        /* \"#utility.yul\":14595:14601   */\n      dup2\n        /* \"#utility.yul\":14587:14593   */\n      dup5\n        /* \"#utility.yul\":14581:14585   */\n      dup5\n        /* \"#utility.yul\":14537:14602   */\n      tag_167\n      jump\t// in\n    tag_323:\n        /* \"#utility.yul\":14472:14608   */\n      pop\n        /* \"#utility.yul\":14419:14608   */\n      pop\n      pop\n      jump\t// out\n        /* \"#utility.yul\":14614:14800   */\n    tag_170:\n        /* \"#utility.yul\":14674:14794   */\n    tag_325:\n        /* \"#utility.yul\":14691:14694   */\n      dup2\n        /* \"#utility.yul\":14684:14689   */\n      dup2\n        /* \"#utility.yul\":14681:14695   */\n      lt\n        /* \"#utility.yul\":14674:14794   */\n      iszero\n      tag_327\n      jumpi\n        /* \"#utility.yul\":14745:14784   */\n      tag_328\n        /* \"#utility.yul\":14782:14783   */\n      0x00\n        /* \"#utility.yul\":14775:14780   */\n      dup3\n        /* \"#utility.yul\":14745:14784   */\n      tag_169\n      jump\t// in\n    tag_328:\n        /* \"#utility.yul\":14718:14719   */\n      0x01\n        /* \"#utility.yul\":14711:14716   */\n      dup2\n        /* \"#utility.yul\":14707:14720   */\n      add\n        /* \"#utility.yul\":14698:14720   */\n      swap1\n      pop\n        /* \"#utility.yul\":14674:14794   */\n      jump(tag_325)\n    tag_327:\n        /* \"#utility.yul\":14614:14800   */\n      pop\n      pop\n      jump\t// out\n        /* \"#utility.yul\":14806:15349   */\n    tag_171:\n        /* \"#utility.yul\":14907:14909   */\n      0x1f\n        /* \"#utility.yul\":14902:14905   */\n      dup3\n        /* \"#utility.yul\":14899:14910   */\n      gt\n        /* \"#utility.yul\":14896:15342   */\n      iszero\n      tag_330\n      jumpi\n        /* \"#utility.yul\":14941:14979   */\n      tag_331\n        /* \"#utility.yul\":14973:14978   */\n      dup2\n        /* \"#utility.yul\":14941:14979   */\n      tag_160\n      jump\t// in\n    tag_331:\n        /* \"#utility.yul\":15025:15054   */\n      tag_332\n        /* \"#utility.yul\":15043:15053   */\n      dup5\n        /* \"#utility.yul\":15025:15054   */\n      tag_161\n      jump\t// in\n    tag_332:\n        /* \"#utility.yul\":15015:15023   */\n      dup2\n        /* \"#utility.yul\":15011:15055   */\n      add\n        /* \"#utility.yul\":15208:15210   */\n      0x20\n        /* \"#utility.yul\":15196:15206   */\n      dup6\n        /* \"#utility.yul\":15193:15211   */\n      lt\n        /* \"#utility.yul\":15190:15239   */\n      iszero\n      tag_333\n      jumpi\n        /* \"#utility.yul\":15229:15237   */\n      dup2\n        /* \"#utility.yul\":15214:15237   */\n      swap1\n      pop\n        /* \"#utility.yul\":15190:15239   */\n    tag_333:\n        /* \"#utility.yul\":15252:15332   */\n      tag_334\n        /* \"#utility.yul\":15308:15330   */\n      tag_335\n        /* \"#utility.yul\":15326:15329   */\n      dup6\n        /* \"#utility.yul\":15308:15330   */\n      tag_161\n      jump\t// in\n    tag_335:\n        /* \"#utility.yul\":15298:15306   */\n      dup4\n        /* \"#utility.yul\":15294:15331   */\n      add\n        /* \"#utility.yul\":15281:15292   */\n      dup3\n        /* \"#utility.yul\":15252:15332   */\n      tag_170\n      jump\t// in\n    tag_334:\n        /* \"#utility.yul\":14911:15342   */\n      pop\n      pop\n        /* \"#utility.yul\":14896:15342   */\n    tag_330:\n        /* \"#utility.yul\":14806:15349   */\n      pop\n      pop\n      pop\n      jump\t// out\n        /* \"#utility.yul\":15355:15472   */\n    tag_172:\n        /* \"#utility.yul\":15409:15417   */\n      0x00\n        /* \"#utility.yul\":15459:15464   */\n      dup3\n        /* \"#utility.yul\":15453:15457   */\n      dup3\n        /* \"#utility.yul\":15449:15465   */\n      shr\n        /* \"#utility.yul\":15428:15465   */\n      swap1\n      pop\n        /* \"#utility.yul\":15355:15472   */\n      swap3\n      swap2\n      pop\n      pop\n      jump\t// out\n        /* \"#utility.yul\":15478:15647   */\n    tag_173:\n        /* \"#utility.yul\":15522:15528   */\n      0x00\n        /* \"#utility.yul\":15555:15606   */\n      tag_338\n        /* \"#utility.yul\":15603:15604   */\n      0x00\n        /* \"#utility.yul\":15599:15605   */\n      not\n        /* \"#utility.yul\":15591:15596   */\n      dup5\n        /* \"#utility.yul\":15588:15589   */\n      0x08\n        /* \"#utility.yul\":15584:15597   */\n      mul\n        /* \"#utility.yul\":15555:15606   */\n      tag_172\n      jump\t// in\n    tag_338:\n        /* \"#utility.yul\":15551:15607   */\n      not\n        /* \"#utility.yul\":15636:15640   */\n      dup1\n        /* \"#utility.yul\":15630:15634   */\n      dup4\n        /* \"#utility.yul\":15626:15641   */\n      and\n        /* \"#utility.yul\":15616:15641   */\n      swap2\n      pop\n        /* \"#utility.yul\":15529:15647   */\n      pop\n        /* \"#utility.yul\":15478:15647   */\n      swap3\n      swap2\n      pop\n      pop\n      jump\t// out\n        /* \"#utility.yul\":15652:15947   */\n    tag_174:\n        /* \"#utility.yul\":15728:15732   */\n      0x00\n        /* \"#utility.yul\":15874:15903   */\n      tag_340\n        /* \"#utility.yul\":15899:15902   */\n      dup4\n        /* \"#utility.yul\":15893:15897   */\n      dup4\n        /* \"#utility.yul\":15874:15903   */\n      tag_173\n      jump\t// in\n    tag_340:\n        /* \"#utility.yul\":15866:15903   */\n      swap2\n      pop\n        /* \"#utility.yul\":15936:15939   */\n      dup3\n        /* \"#utility.yul\":15933:15934   */\n      0x02\n        /* \"#utility.yul\":15929:15940   */\n      mul\n        /* \"#utility.yul\":15923:15927   */\n      dup3\n        /* \"#utility.yul\":15920:15941   */\n      or\n        /* \"#utility.yul\":15912:15941   */\n      swap1\n      pop\n        /* \"#utility.yul\":15652:15947   */\n      swap3\n      swap2\n      pop\n      pop\n      jump\t// out\n        /* \"#utility.yul\":15952:17347   */\n    tag_78:\n        /* \"#utility.yul\":16069:16106   */\n      tag_342\n        /* \"#utility.yul\":16102:16105   */\n      dup3\n        /* \"#utility.yul\":16069:16106   */\n      tag_130\n      jump\t// in\n    tag_342:\n        /* \"#utility.yul\":16171:16189   */\n      0xffffffffffffffff\n        /* \"#utility.yul\":16163:16169   */\n      dup2\n        /* \"#utility.yul\":16160:16190   */\n      gt\n        /* \"#utility.yul\":16157:16213   */\n      iszero\n      tag_343\n      jumpi\n        /* \"#utility.yul\":16193:16211   */\n      tag_344\n      tag_143\n      jump\t// in\n    tag_344:\n        /* \"#utility.yul\":16157:16213   */\n    tag_343:\n        /* \"#utility.yul\":16237:16275   */\n      tag_345\n        /* \"#utility.yul\":16269:16273   */\n      dup3\n        /* \"#utility.yul\":16263:16274   */\n      sload\n        /* \"#utility.yul\":16237:16275   */\n      tag_55\n      jump\t// in\n    tag_345:\n        /* \"#utility.yul\":16322:16389   */\n      tag_346\n        /* \"#utility.yul\":16382:16388   */\n      dup3\n        /* \"#utility.yul\":16374:16380   */\n      dup3\n        /* \"#utility.yul\":16368:16372   */\n      dup6\n        /* \"#utility.yul\":16322:16389   */\n      tag_171\n      jump\t// in\n    tag_346:\n        /* \"#utility.yul\":16416:16417   */\n      0x00\n        /* \"#utility.yul\":16440:16444   */\n      0x20\n        /* \"#utility.yul\":16427:16444   */\n      swap1\n      pop\n        /* \"#utility.yul\":16472:16474   */\n      0x1f\n        /* \"#utility.yul\":16464:16470   */\n      dup4\n        /* \"#utility.yul\":16461:16475   */\n      gt\n        /* \"#utility.yul\":16489:16490   */\n      0x01\n        /* \"#utility.yul\":16484:17102   */\n      dup2\n      eq\n      tag_348\n      jumpi\n        /* \"#utility.yul\":17146:17147   */\n      0x00\n        /* \"#utility.yul\":17163:17169   */\n      dup5\n        /* \"#utility.yul\":17160:17237   */\n      iszero\n      tag_349\n      jumpi\n        /* \"#utility.yul\":17212:17221   */\n      dup3\n        /* \"#utility.yul\":17207:17210   */\n      dup8\n        /* \"#utility.yul\":17203:17222   */\n      add\n        /* \"#utility.yul\":17197:17223   */\n      mload\n        /* \"#utility.yul\":17188:17223   */\n      swap1\n      pop\n        /* \"#utility.yul\":17160:17237   */\n    tag_349:\n        /* \"#utility.yul\":17263:17330   */\n      tag_350\n        /* \"#utility.yul\":17323:17329   */\n      dup6\n        /* \"#utility.yul\":17316:17321   */\n      dup3\n        /* \"#utility.yul\":17263:17330   */\n      tag_174\n      jump\t// in\n    tag_350:\n        /* \"#utility.yul\":17257:17261   */\n      dup7\n        /* \"#utility.yul\":17250:17331   */\n      sstore\n        /* \"#utility.yul\":17119:17341   */\n      pop\n        /* \"#utility.yul\":16454:17341   */\n      jump(tag_347)\n        /* \"#utility.yul\":16484:17102   */\n    tag_348:\n        /* \"#utility.yul\":16536:16540   */\n      0x1f\n        /* \"#utility.yul\":16532:16541   */\n      not\n        /* \"#utility.yul\":16524:16530   */\n      dup5\n        /* \"#utility.yul\":16520:16542   */\n      and\n        /* \"#utility.yul\":16570:16607   */\n      tag_351\n        /* \"#utility.yul\":16602:16606   */\n      dup7\n        /* \"#utility.yul\":16570:16607   */\n      tag_160\n      jump\t// in\n    tag_351:\n        /* \"#utility.yul\":16629:16630   */\n      0x00\n        /* \"#utility.yul\":16643:16851   */\n    tag_352:\n        /* \"#utility.yul\":16657:16664   */\n      dup3\n        /* \"#utility.yul\":16654:16655   */\n      dup2\n        /* \"#utility.yul\":16651:16665   */\n      lt\n        /* \"#utility.yul\":16643:16851   */\n      iszero\n      tag_354\n      jumpi\n        /* \"#utility.yul\":16736:16745   */\n      dup5\n        /* \"#utility.yul\":16731:16734   */\n      dup10\n        /* \"#utility.yul\":16727:16746   */\n      add\n        /* \"#utility.yul\":16721:16747   */\n      mload\n        /* \"#utility.yul\":16713:16719   */\n      dup3\n        /* \"#utility.yul\":16706:16748   */\n      sstore\n        /* \"#utility.yul\":16787:16788   */\n      0x01\n        /* \"#utility.yul\":16779:16785   */\n      dup3\n        /* \"#utility.yul\":16775:16789   */\n      add\n        /* \"#utility.yul\":16765:16789   */\n      swap2\n      pop\n        /* \"#utility.yul\":16834:16836   */\n      0x20\n        /* \"#utility.yul\":16823:16832   */\n      dup6\n        /* \"#utility.yul\":16819:16837   */\n      add\n        /* \"#utility.yul\":16806:16837   */\n      swap5\n      pop\n        /* \"#utility.yul\":16680:16684   */\n      0x20\n        /* \"#utility.yul\":16677:16678   */\n      dup2\n        /* \"#utility.yul\":16673:16685   */\n      add\n        /* \"#utility.yul\":16668:16685   */\n      swap1\n      pop\n        /* \"#utility.yul\":16643:16851   */\n      jump(tag_352)\n    tag_354:\n        /* \"#utility.yul\":16879:16885   */\n      dup7\n        /* \"#utility.yul\":16870:16877   */\n      dup4\n        /* \"#utility.yul\":16867:16886   */\n      lt\n        /* \"#utility.yul\":16864:17043   */\n      iszero\n      tag_355\n      jumpi\n        /* \"#utility.yul\":16937:16946   */\n      dup5\n        /* \"#utility.yul\":16932:16935   */\n      dup10\n        /* \"#utility.yul\":16928:16947   */\n      add\n        /* \"#utility.yul\":16922:16948   */\n      mload\n        /* \"#utility.yul\":16980:17028   */\n      tag_356\n        /* \"#utility.yul\":17022:17026   */\n      0x1f\n        /* \"#utility.yul\":17014:17020   */\n      dup10\n        /* \"#utility.yul\":17010:17027   */\n      and\n        /* \"#utility.yul\":16999:17008   */\n      dup3\n        /* \"#utility.yul\":16980:17028   */\n      tag_173\n      jump\t// in\n    tag_356:\n        /* \"#utility.yul\":16972:16978   */\n      dup4\n        /* \"#utility.yul\":16965:17029   */\n      sstore\n        /* \"#utility.yul\":16887:17043   */\n      pop\n        /* \"#utility.yul\":16864:17043   */\n    tag_355:\n        /* \"#utility.yul\":17089:17090   */\n      0x01\n        /* \"#utility.yul\":17085:17086   */\n      0x02\n        /* \"#utility.yul\":17077:17083   */\n      dup9\n        /* \"#utility.yul\":17073:17087   */\n      mul\n        /* \"#utility.yul\":17069:17091   */\n      add\n        /* \"#utility.yul\":17063:17067   */\n      dup9\n        /* \"#utility.yul\":17056:17092   */\n      sstore\n        /* \"#utility.yul\":16491:17102   */\n      pop\n      pop\n      pop\n        /* \"#utility.yul\":16454:17341   */\n    tag_347:\n      pop\n        /* \"#utility.yul\":16044:17347   */\n      pop\n      pop\n      pop\n        /* \"#utility.yul\":15952:17347   */\n      pop\n      pop\n      jump\t// out\n        /* \"#utility.yul\":17353:17533   */\n    tag_85:\n        /* \"#utility.yul\":17401:17478   */\n      0x4e487b7100000000000000000000000000000000000000000000000000000000\n        /* \"#utility.yul\":17398:17399   */\n      0x00\n        /* \"#utility.yul\":17391:17479   */\n      mstore\n        /* \"#utility.yul\":17498:17502   */\n      0x32\n        /* \"#utility.yul\":17495:17496   */\n      0x04\n        /* \"#utility.yul\":17488:17503   */\n      mstore\n        /* \"#utility.yul\":17522:17526   */\n      0x24\n        /* \"#utility.yul\":17519:17520   */\n      0x00\n        /* \"#utility.yul\":17512:17527   */\n      revert\n\n    auxdata: 0xa2646970667358221220f3809c5b6b1bd434c9c258930bdec3422d524f03faa1fedbdd84684e769e913d64736f6c63430008110033\n}\n",
				"bytecode": {
					"linkReferences": {},
					"object": "608060405234801561001057600080fd5b506112d0806100206000396000f3fe608060405234801561001057600080fd5b506004361061009e5760003560e01c8063b29f04fe11610066578063b29f04fe14610135578063b5c64e2a14610151578063b78842ee1461016d578063dacf64e214610189578063f73c5683146101a55761009e565b8063085d4883146100a357806376cdb03b146100c1578063827b0348146100df578063856c799d146100fd57806398168b9414610119575b600080fd5b6100ab6101c1565b6040516100b891906109b4565b60405180910390f35b6100c96101e5565b6040516100d691906109b4565b60405180910390f35b6100e761020b565b6040516100f49190610bbb565b60405180910390f35b61011760048036038101906101129190610e58565b610508565b005b610133600480360381019061012e9190610ed7565b6105d8565b005b61014f600480360381019061014a9190610f33565b6106a1565b005b61016b60048036038101906101669190610f60565b6106e4565b005b61018760048036038101906101829190610f60565b610773565b005b6101a3600480360381019061019e9190610f33565b610802565b005b6101bf60048036038101906101ba9190610e58565b610846565b005b60008054906101000a900473ffffffffffffffffffffffffffffffffffffffff1681565b600160009054906101000a900473ffffffffffffffffffffffffffffffffffffffff1681565b60606002805480602002602001604051908101604052809291908181526020016000905b828210156104ff57838290600052602060002090600502016040518060a00160405290816000820160009054906101000a900473ffffffffffffffffffffffffffffffffffffffff1673ffffffffffffffffffffffffffffffffffffffff1673ffffffffffffffffffffffffffffffffffffffff1681526020016001820180546102b890610fbc565b80601f01602080910402602001604051908101604052809291908181526020018280546102e490610fbc565b80156103315780601f1061030657610100808354040283529160200191610331565b820191906000526020600020905b81548152906001019060200180831161031457829003601f168201915b5050505050815260200160028201805461034a90610fbc565b80601f016020809104026020016040519081016040528092919081815260200182805461037690610fbc565b80156103c35780601f10610398576101008083540402835291602001916103c3565b820191906000526020600020905b8154815290600101906020018083116103a657829003601f168201915b505050505081526020016003820180546103dc90610fbc565b80601f016020809104026020016040519081016040528092919081815260200182805461040890610fbc565b80156104555780601f1061042a57610100808354040283529160200191610455565b820191906000526020600020905b81548152906001019060200180831161043857829003601f168201915b5050505050815260200160048201805461046e90610fbc565b80601f016020809104026020016040519081016040528092919081815260200182805461049a90610fbc565b80156104e75780601f106104bc576101008083540402835291602001916104e7565b820191906000526020600020905b8154815290600101906020018083116104ca57829003601f168201915b5050505050815250508152602001906001019061022f565b50505050905090565b600281908060018154018082558091505060019003906000526020600020906005020160009091909190915060008201518160000160006101000a81548173ffffffffffffffffffffffffffffffffffffffff021916908373ffffffffffffffffffffffffffffffffffffffff16021790555060208201518160010190816105909190611199565b5060408201518160020190816105a69190611199565b5060608201518160030190816105bc9190611199565b5060808201518160040190816105d29190611199565b50505050565b80600283815481106105ed576105ec61126b565b5b906000526020600020906005020160008201518160000160006101000a81548173ffffffffffffffffffffffffffffffffffffffff021916908373ffffffffffffffffffffffffffffffffffffffff16021790555060208201518160010190816106579190611199565b50604082015181600201908161066d9190611199565b5060608201518160030190816106839190611199565b5060808201518160040190816106999190611199565b509050505050565b806000806101000a81548173ffffffffffffffffffffffffffffffffffffffff021916908373ffffffffffffffffffffffffffffffffffffffff16021790555050565b600381815481106106f8576106f761126b565b5b9060005260206000209060050201600080820160006101000a81549073ffffffffffffffffffffffffffffffffffffffff021916905560018201600061073e9190610916565b60028201600061074e9190610916565b60038201600061075e9190610916565b60048201600061076e9190610916565b505050565b600281815481106107875761078661126b565b5b9060005260206000209060050201600080820160006101000a81549073ffffffffffffffffffffffffffffffffffffffff02191690556001820160006107cd9190610916565b6002820160006107dd9190610916565b6003820160006107ed9190610916565b6004820160006107fd9190610916565b505050565b80600160006101000a81548173ffffffffffffffffffffffffffffffffffffffff021916908373ffffffffffffffffffffffffffffffffffffffff16021790555050565b600381908060018154018082558091505060019003906000526020600020906005020160009091909190915060008201518160000160006101000a81548173ffffffffffffffffffffffffffffffffffffffff021916908373ffffffffffffffffffffffffffffffffffffffff16021790555060208201518160010190816108ce9190611199565b5060408201518160020190816108e49190611199565b5060608201518160030190816108fa9190611199565b5060808201518160040190816109109190611199565b50505050565b50805461092290610fbc565b6000825580601f106109345750610953565b601f0160209004906000526020600020908101906109529190610956565b5b50565b5b8082111561096f576000816000905550600101610957565b5090565b600073ffffffffffffffffffffffffffffffffffffffff82169050919050565b600061099e82610973565b9050919050565b6109ae81610993565b82525050565b60006020820190506109c960008301846109a5565b92915050565b600081519050919050565b600082825260208201905092915050565b6000819050602082019050919050565b610a0481610993565b82525050565b600081519050919050565b600082825260208201905092915050565b60005b83811015610a44578082015181840152602081019050610a29565b60008484015250505050565b6000601f19601f8301169050919050565b6000610a6c82610a0a565b610a768185610a15565b9350610a86818560208601610a26565b610a8f81610a50565b840191505092915050565b600060a083016000830151610ab260008601826109fb565b5060208301518482036020860152610aca8282610a61565b91505060408301518482036040860152610ae48282610a61565b91505060608301518482036060860152610afe8282610a61565b91505060808301518482036080860152610b188282610a61565b9150508091505092915050565b6000610b318383610a9a565b905092915050565b6000602082019050919050565b6000610b51826109cf565b610b5b81856109da565b935083602082028501610b6d856109eb565b8060005b85811015610ba95784840389528151610b8a8582610b25565b9450610b9583610b39565b925060208a01995050600181019050610b71565b50829750879550505050505092915050565b60006020820190508181036000830152610bd58184610b46565b905092915050565b6000604051905090565b600080fd5b600080fd5b600080fd5b7f4e487b7100000000000000000000000000000000000000000000000000000000600052604160045260246000fd5b610c2e82610a50565b810181811067ffffffffffffffff82111715610c4d57610c4c610bf6565b5b80604052505050565b6000610c60610bdd565b9050610c6c8282610c25565b919050565b600080fd5b610c7f81610993565b8114610c8a57600080fd5b50565b600081359050610c9c81610c76565b92915050565b600080fd5b600080fd5b600067ffffffffffffffff821115610cc757610cc6610bf6565b5b610cd082610a50565b9050602081019050919050565b82818337600083830152505050565b6000610cff610cfa84610cac565b610c56565b905082815260208101848484011115610d1b57610d1a610ca7565b5b610d26848285610cdd565b509392505050565b600082601f830112610d4357610d42610ca2565b5b8135610d53848260208601610cec565b91505092915050565b600060a08284031215610d7257610d71610bf1565b5b610d7c60a0610c56565b90506000610d8c84828501610c8d565b600083015250602082013567ffffffffffffffff811115610db057610daf610c71565b5b610dbc84828501610d2e565b602083015250604082013567ffffffffffffffff811115610de057610ddf610c71565b5b610dec84828501610d2e565b604083015250606082013567ffffffffffffffff811115610e1057610e0f610c71565b5b610e1c84828501610d2e565b606083015250608082013567ffffffffffffffff811115610e4057610e3f610c71565b5b610e4c84828501610d2e565b60808301525092915050565b600060208284031215610e6e57610e6d610be7565b5b600082013567ffffffffffffffff811115610e8c57610e8b610bec565b5b610e9884828501610d5c565b91505092915050565b6000819050919050565b610eb481610ea1565b8114610ebf57600080fd5b50565b600081359050610ed181610eab565b92915050565b60008060408385031215610eee57610eed610be7565b5b6000610efc85828601610ec2565b925050602083013567ffffffffffffffff811115610f1d57610f1c610bec565b5b610f2985828601610d5c565b9150509250929050565b600060208284031215610f4957610f48610be7565b5b6000610f5784828501610c8d565b91505092915050565b600060208284031215610f7657610f75610be7565b5b6000610f8484828501610ec2565b91505092915050565b7f4e487b7100000000000000000000000000000000000000000000000000000000600052602260045260246000fd5b60006002820490506001821680610fd457607f821691505b602082108103610fe757610fe6610f8d565b5b50919050565b60008190508160005260206000209050919050565b60006020601f8301049050919050565b600082821b905092915050565b60006008830261104f7fffffffffffffffffffffffffffffffffffffffffffffffffffffffffffffffff82611012565b6110598683611012565b95508019841693508086168417925050509392505050565b6000819050919050565b600061109661109161108c84610ea1565b611071565b610ea1565b9050919050565b6000819050919050565b6110b08361107b565b6110c46110bc8261109d565b84845461101f565b825550505050565b600090565b6110d96110cc565b6110e48184846110a7565b505050565b5b81811015611108576110fd6000826110d1565b6001810190506110ea565b5050565b601f82111561114d5761111e81610fed565b61112784611002565b81016020851015611136578190505b61114a61114285611002565b8301826110e9565b50505b505050565b600082821c905092915050565b600061117060001984600802611152565b1980831691505092915050565b6000611189838361115f565b9150826002028217905092915050565b6111a282610a0a565b67ffffffffffffffff8111156111bb576111ba610bf6565b5b6111c58254610fbc565b6111d082828561110c565b600060209050601f83116001811461120357600084156111f1578287015190505b6111fb858261117d565b865550611263565b601f19841661121186610fed565b60005b8281101561123957848901518255600182019150602085019450602081019050611214565b868310156112565784890151611252601f89168261115f565b8355505b6001600288020188555050505b505050505050565b7f4e487b7100000000000000000000000000000000000000000000000000000000600052603260045260246000fdfea2646970667358221220f3809c5b6b1bd434c9c258930bdec3422d524f03faa1fedbdd84684e769e913d64736f6c63430008110033",
					"opcodes": "PUSH1 0x80 PUSH1 0x40 MSTORE CALLVALUE DUP1 ISZERO PUSH2 0x10 JUMPI PUSH1 0x0 DUP1 REVERT JUMPDEST POP PUSH2 0x12D0 DUP1 PUSH2 0x20 PUSH1 0x0 CODECOPY PUSH1 0x0 RETURN INVALID PUSH1 0x80 PUSH1 0x40 MSTORE CALLVALUE DUP1 ISZERO PUSH2 0x10 JUMPI PUSH1 0x0 DUP1 REVERT JUMPDEST POP PUSH1 0x4 CALLDATASIZE LT PUSH2 0x9E JUMPI PUSH1 0x0 CALLDATALOAD PUSH1 0xE0 SHR DUP1 PUSH4 0xB29F04FE GT PUSH2 0x66 JUMPI DUP1 PUSH4 0xB29F04FE EQ PUSH2 0x135 JUMPI DUP1 PUSH4 0xB5C64E2A EQ PUSH2 0x151 JUMPI DUP1 PUSH4 0xB78842EE EQ PUSH2 0x16D JUMPI DUP1 PUSH4 0xDACF64E2 EQ PUSH2 0x189 JUMPI DUP1 PUSH4 0xF73C5683 EQ PUSH2 0x1A5 JUMPI PUSH2 0x9E JUMP JUMPDEST DUP1 PUSH4 0x85D4883 EQ PUSH2 0xA3 JUMPI DUP1 PUSH4 0x76CDB03B EQ PUSH2 0xC1 JUMPI DUP1 PUSH4 0x827B0348 EQ PUSH2 0xDF JUMPI DUP1 PUSH4 0x856C799D EQ PUSH2 0xFD JUMPI DUP1 PUSH4 0x98168B94 EQ PUSH2 0x119 JUMPI JUMPDEST PUSH1 0x0 DUP1 REVERT JUMPDEST PUSH2 0xAB PUSH2 0x1C1 JUMP JUMPDEST PUSH1 0x40 MLOAD PUSH2 0xB8 SWAP2 SWAP1 PUSH2 0x9B4 JUMP JUMPDEST PUSH1 0x40 MLOAD DUP1 SWAP2 SUB SWAP1 RETURN JUMPDEST PUSH2 0xC9 PUSH2 0x1E5 JUMP JUMPDEST PUSH1 0x40 MLOAD PUSH2 0xD6 SWAP2 SWAP1 PUSH2 0x9B4 JUMP JUMPDEST PUSH1 0x40 MLOAD DUP1 SWAP2 SUB SWAP1 RETURN JUMPDEST PUSH2 0xE7 PUSH2 0x20B JUMP JUMPDEST PUSH1 0x40 MLOAD PUSH2 0xF4 SWAP2 SWAP1 PUSH2 0xBBB JUMP JUMPDEST PUSH1 0x40 MLOAD DUP1 SWAP2 SUB SWAP1 RETURN JUMPDEST PUSH2 0x117 PUSH1 0x4 DUP1 CALLDATASIZE SUB DUP2 ADD SWAP1 PUSH2 0x112 SWAP2 SWAP1 PUSH2 0xE58 JUMP JUMPDEST PUSH2 0x508 JUMP JUMPDEST STOP JUMPDEST PUSH2 0x133 PUSH1 0x4 DUP1 CALLDATASIZE SUB DUP2 ADD SWAP1 PUSH2 0x12E SWAP2 SWAP1 PUSH2 0xED7 JUMP JUMPDEST PUSH2 0x5D8 JUMP JUMPDEST STOP JUMPDEST PUSH2 0x14F PUSH1 0x4 DUP1 CALLDATASIZE SUB DUP2 ADD SWAP1 PUSH2 0x14A SWAP2 SWAP1 PUSH2 0xF33 JUMP JUMPDEST PUSH2 0x6A1 JUMP JUMPDEST STOP JUMPDEST PUSH2 0x16B PUSH1 0x4 DUP1 CALLDATASIZE SUB DUP2 ADD SWAP1 PUSH2 0x166 SWAP2 SWAP1 PUSH2 0xF60 JUMP JUMPDEST PUSH2 0x6E4 JUMP JUMPDEST STOP JUMPDEST PUSH2 0x187 PUSH1 0x4 DUP1 CALLDATASIZE SUB DUP2 ADD SWAP1 PUSH2 0x182 SWAP2 SWAP1 PUSH2 0xF60 JUMP JUMPDEST PUSH2 0x773 JUMP JUMPDEST STOP JUMPDEST PUSH2 0x1A3 PUSH1 0x4 DUP1 CALLDATASIZE SUB DUP2 ADD SWAP1 PUSH2 0x19E SWAP2 SWAP1 PUSH2 0xF33 JUMP JUMPDEST PUSH2 0x802 JUMP JUMPDEST STOP JUMPDEST PUSH2 0x1BF PUSH1 0x4 DUP1 CALLDATASIZE SUB DUP2 ADD SWAP1 PUSH2 0x1BA SWAP2 SWAP1 PUSH2 0xE58 JUMP JUMPDEST PUSH2 0x846 JUMP JUMPDEST STOP JUMPDEST PUSH1 0x0 DUP1 SLOAD SWAP1 PUSH2 0x100 EXP SWAP1 DIV PUSH20 0xFFFFFFFFFFFFFFFFFFFFFFFFFFFFFFFFFFFFFFFF AND DUP2 JUMP JUMPDEST PUSH1 0x1 PUSH1 0x0 SWAP1 SLOAD SWAP1 PUSH2 0x100 EXP SWAP1 DIV PUSH20 0xFFFFFFFFFFFFFFFFFFFFFFFFFFFFFFFFFFFFFFFF AND DUP2 JUMP JUMPDEST PUSH1 0x60 PUSH1 0x2 DUP1 SLOAD DUP1 PUSH1 0x20 MUL PUSH1 0x20 ADD PUSH1 0x40 MLOAD SWAP1 DUP2 ADD PUSH1 0x40 MSTORE DUP1 SWAP3 SWAP2 SWAP1 DUP2 DUP2 MSTORE PUSH1 0x20 ADD PUSH1 0x0 SWAP1 JUMPDEST DUP3 DUP3 LT ISZERO PUSH2 0x4FF JUMPI DUP4 DUP3 SWAP1 PUSH1 0x0 MSTORE PUSH1 0x20 PUSH1 0x0 KECCAK256 SWAP1 PUSH1 0x5 MUL ADD PUSH1 0x40 MLOAD DUP1 PUSH1 0xA0 ADD PUSH1 0x40 MSTORE SWAP1 DUP2 PUSH1 0x0 DUP3 ADD PUSH1 0x0 SWAP1 SLOAD SWAP1 PUSH2 0x100 EXP SWAP1 DIV PUSH20 0xFFFFFFFFFFFFFFFFFFFFFFFFFFFFFFFFFFFFFFFF AND PUSH20 0xFFFFFFFFFFFFFFFFFFFFFFFFFFFFFFFFFFFFFFFF AND PUSH20 0xFFFFFFFFFFFFFFFFFFFFFFFFFFFFFFFFFFFFFFFF AND DUP2 MSTORE PUSH1 0x20 ADD PUSH1 0x1 DUP3 ADD DUP1 SLOAD PUSH2 0x2B8 SWAP1 PUSH2 0xFBC JUMP JUMPDEST DUP1 PUSH1 0x1F ADD PUSH1 0x20 DUP1 SWAP2 DIV MUL PUSH1 0x20 ADD PUSH1 0x40 MLOAD SWAP1 DUP2 ADD PUSH1 0x40 MSTORE DUP1 SWAP3 SWAP2 SWAP1 DUP2 DUP2 MSTORE PUSH1 0x20 ADD DUP3 DUP1 SLOAD PUSH2 0x2E4 SWAP1 PUSH2 0xFBC JUMP JUMPDEST DUP1 ISZERO PUSH2 0x331 JUMPI DUP1 PUSH1 0x1F LT PUSH2 0x306 JUMPI PUSH2 0x100 DUP1 DUP4 SLOAD DIV MUL DUP4 MSTORE SWAP2 PUSH1 0x20 ADD SWAP2 PUSH2 0x331 JUMP JUMPDEST DUP3 ADD SWAP2 SWAP1 PUSH1 0x0 MSTORE PUSH1 0x20 PUSH1 0x0 KECCAK256 SWAP1 JUMPDEST DUP2 SLOAD DUP2 MSTORE SWAP1 PUSH1 0x1 ADD SWAP1 PUSH1 0x20 ADD DUP1 DUP4 GT PUSH2 0x314 JUMPI DUP3 SWAP1 SUB PUSH1 0x1F AND DUP3 ADD SWAP2 JUMPDEST POP POP POP POP POP DUP2 MSTORE PUSH1 0x20 ADD PUSH1 0x2 DUP3 ADD DUP1 SLOAD PUSH2 0x34A SWAP1 PUSH2 0xFBC JUMP JUMPDEST DUP1 PUSH1 0x1F ADD PUSH1 0x20 DUP1 SWAP2 DIV MUL PUSH1 0x20 ADD PUSH1 0x40 MLOAD SWAP1 DUP2 ADD PUSH1 0x40 MSTORE DUP1 SWAP3 SWAP2 SWAP1 DUP2 DUP2 MSTORE PUSH1 0x20 ADD DUP3 DUP1 SLOAD PUSH2 0x376 SWAP1 PUSH2 0xFBC JUMP JUMPDEST DUP1 ISZERO PUSH2 0x3C3 JUMPI DUP1 PUSH1 0x1F LT PUSH2 0x398 JUMPI PUSH2 0x100 DUP1 DUP4 SLOAD DIV MUL DUP4 MSTORE SWAP2 PUSH1 0x20 ADD SWAP2 PUSH2 0x3C3 JUMP JUMPDEST DUP3 ADD SWAP2 SWAP1 PUSH1 0x0 MSTORE PUSH1 0x20 PUSH1 0x0 KECCAK256 SWAP1 JUMPDEST DUP2 SLOAD DUP2 MSTORE SWAP1 PUSH1 0x1 ADD SWAP1 PUSH1 0x20 ADD DUP1 DUP4 GT PUSH2 0x3A6 JUMPI DUP3 SWAP1 SUB PUSH1 0x1F AND DUP3 ADD SWAP2 JUMPDEST POP POP POP POP POP DUP2 MSTORE PUSH1 0x20 ADD PUSH1 0x3 DUP3 ADD DUP1 SLOAD PUSH2 0x3DC SWAP1 PUSH2 0xFBC JUMP JUMPDEST DUP1 PUSH1 0x1F ADD PUSH1 0x20 DUP1 SWAP2 DIV MUL PUSH1 0x20 ADD PUSH1 0x40 MLOAD SWAP1 DUP2 ADD PUSH1 0x40 MSTORE DUP1 SWAP3 SWAP2 SWAP1 DUP2 DUP2 MSTORE PUSH1 0x20 ADD DUP3 DUP1 SLOAD PUSH2 0x408 SWAP1 PUSH2 0xFBC JUMP JUMPDEST DUP1 ISZERO PUSH2 0x455 JUMPI DUP1 PUSH1 0x1F LT PUSH2 0x42A JUMPI PUSH2 0x100 DUP1 DUP4 SLOAD DIV MUL DUP4 MSTORE SWAP2 PUSH1 0x20 ADD SWAP2 PUSH2 0x455 JUMP JUMPDEST DUP3 ADD SWAP2 SWAP1 PUSH1 0x0 MSTORE PUSH1 0x20 PUSH1 0x0 KECCAK256 SWAP1 JUMPDEST DUP2 SLOAD DUP2 MSTORE SWAP1 PUSH1 0x1 ADD SWAP1 PUSH1 0x20 ADD DUP1 DUP4 GT PUSH2 0x438 JUMPI DUP3 SWAP1 SUB PUSH1 0x1F AND DUP3 ADD SWAP2 JUMPDEST POP POP POP POP POP DUP2 MSTORE PUSH1 0x20 ADD PUSH1 0x4 DUP3 ADD DUP1 SLOAD PUSH2 0x46E SWAP1 PUSH2 0xFBC JUMP JUMPDEST DUP1 PUSH1 0x1F ADD PUSH1 0x20 DUP1 SWAP2 DIV MUL PUSH1 0x20 ADD PUSH1 0x40 MLOAD SWAP1 DUP2 ADD PUSH1 0x40 MSTORE DUP1 SWAP3 SWAP2 SWAP1 DUP2 DUP2 MSTORE PUSH1 0x20 ADD DUP3 DUP1 SLOAD PUSH2 0x49A SWAP1 PUSH2 0xFBC JUMP JUMPDEST DUP1 ISZERO PUSH2 0x4E7 JUMPI DUP1 PUSH1 0x1F LT PUSH2 0x4BC JUMPI PUSH2 0x100 DUP1 DUP4 SLOAD DIV MUL DUP4 MSTORE SWAP2 PUSH1 0x20 ADD SWAP2 PUSH2 0x4E7 JUMP JUMPDEST DUP3 ADD SWAP2 SWAP1 PUSH1 0x0 MSTORE PUSH1 0x20 PUSH1 0x0 KECCAK256 SWAP1 JUMPDEST DUP2 SLOAD DUP2 MSTORE SWAP1 PUSH1 0x1 ADD SWAP1 PUSH1 0x20 ADD DUP1 DUP4 GT PUSH2 0x4CA JUMPI DUP3 SWAP1 SUB PUSH1 0x1F AND DUP3 ADD SWAP2 JUMPDEST POP POP POP POP POP DUP2 MSTORE POP POP DUP2 MSTORE PUSH1 0x20 ADD SWAP1 PUSH1 0x1 ADD SWAP1 PUSH2 0x22F JUMP JUMPDEST POP POP POP POP SWAP1 POP SWAP1 JUMP JUMPDEST PUSH1 0x2 DUP2 SWAP1 DUP1 PUSH1 0x1 DUP2 SLOAD ADD DUP1 DUP3 SSTORE DUP1 SWAP2 POP POP PUSH1 0x1 SWAP1 SUB SWAP1 PUSH1 0x0 MSTORE PUSH1 0x20 PUSH1 0x0 KECCAK256 SWAP1 PUSH1 0x5 MUL ADD PUSH1 0x0 SWAP1 SWAP2 SWAP1 SWAP2 SWAP1 SWAP2 POP PUSH1 0x0 DUP3 ADD MLOAD DUP2 PUSH1 0x0 ADD PUSH1 0x0 PUSH2 0x100 EXP DUP2 SLOAD DUP2 PUSH20 0xFFFFFFFFFFFFFFFFFFFFFFFFFFFFFFFFFFFFFFFF MUL NOT AND SWAP1 DUP4 PUSH20 0xFFFFFFFFFFFFFFFFFFFFFFFFFFFFFFFFFFFFFFFF AND MUL OR SWAP1 SSTORE POP PUSH1 0x20 DUP3 ADD MLOAD DUP2 PUSH1 0x1 ADD SWAP1 DUP2 PUSH2 0x590 SWAP2 SWAP1 PUSH2 0x1199 JUMP JUMPDEST POP PUSH1 0x40 DUP3 ADD MLOAD DUP2 PUSH1 0x2 ADD SWAP1 DUP2 PUSH2 0x5A6 SWAP2 SWAP1 PUSH2 0x1199 JUMP JUMPDEST POP PUSH1 0x60 DUP3 ADD MLOAD DUP2 PUSH1 0x3 ADD SWAP1 DUP2 PUSH2 0x5BC SWAP2 SWAP1 PUSH2 0x1199 JUMP JUMPDEST POP PUSH1 0x80 DUP3 ADD MLOAD DUP2 PUSH1 0x4 ADD SWAP1 DUP2 PUSH2 0x5D2 SWAP2 SWAP1 PUSH2 0x1199 JUMP JUMPDEST POP POP POP POP JUMP JUMPDEST DUP1 PUSH1 0x2 DUP4 DUP2 SLOAD DUP2 LT PUSH2 0x5ED JUMPI PUSH2 0x5EC PUSH2 0x126B JUMP JUMPDEST JUMPDEST SWAP1 PUSH1 0x0 MSTORE PUSH1 0x20 PUSH1 0x0 KECCAK256 SWAP1 PUSH1 0x5 MUL ADD PUSH1 0x0 DUP3 ADD MLOAD DUP2 PUSH1 0x0 ADD PUSH1 0x0 PUSH2 0x100 EXP DUP2 SLOAD DUP2 PUSH20 0xFFFFFFFFFFFFFFFFFFFFFFFFFFFFFFFFFFFFFFFF MUL NOT AND SWAP1 DUP4 PUSH20 0xFFFFFFFFFFFFFFFFFFFFFFFFFFFFFFFFFFFFFFFF AND MUL OR SWAP1 SSTORE POP PUSH1 0x20 DUP3 ADD MLOAD DUP2 PUSH1 0x1 ADD SWAP1 DUP2 PUSH2 0x657 SWAP2 SWAP1 PUSH2 0x1199 JUMP JUMPDEST POP PUSH1 0x40 DUP3 ADD MLOAD DUP2 PUSH1 0x2 ADD SWAP1 DUP2 PUSH2 0x66D SWAP2 SWAP1 PUSH2 0x1199 JUMP JUMPDEST POP PUSH1 0x60 DUP3 ADD MLOAD DUP2 PUSH1 0x3 ADD SWAP1 DUP2 PUSH2 0x683 SWAP2 SWAP1 PUSH2 0x1199 JUMP JUMPDEST POP PUSH1 0x80 DUP3 ADD MLOAD DUP2 PUSH1 0x4 ADD SWAP1 DUP2 PUSH2 0x699 SWAP2 SWAP1 PUSH2 0x1199 JUMP JUMPDEST POP SWAP1 POP POP POP POP JUMP JUMPDEST DUP1 PUSH1 0x0 DUP1 PUSH2 0x100 EXP DUP2 SLOAD DUP2 PUSH20 0xFFFFFFFFFFFFFFFFFFFFFFFFFFFFFFFFFFFFFFFF MUL NOT AND SWAP1 DUP4 PUSH20 0xFFFFFFFFFFFFFFFFFFFFFFFFFFFFFFFFFFFFFFFF AND MUL OR SWAP1 SSTORE POP POP JUMP JUMPDEST PUSH1 0x3 DUP2 DUP2 SLOAD DUP2 LT PUSH2 0x6F8 JUMPI PUSH2 0x6F7 PUSH2 0x126B JUMP JUMPDEST JUMPDEST SWAP1 PUSH1 0x0 MSTORE PUSH1 0x20 PUSH1 0x0 KECCAK256 SWAP1 PUSH1 0x5 MUL ADD PUSH1 0x0 DUP1 DUP3 ADD PUSH1 0x0 PUSH2 0x100 EXP DUP2 SLOAD SWAP1 PUSH20 0xFFFFFFFFFFFFFFFFFFFFFFFFFFFFFFFFFFFFFFFF MUL NOT AND SWAP1 SSTORE PUSH1 0x1 DUP3 ADD PUSH1 0x0 PUSH2 0x73E SWAP2 SWAP1 PUSH2 0x916 JUMP JUMPDEST PUSH1 0x2 DUP3 ADD PUSH1 0x0 PUSH2 0x74E SWAP2 SWAP1 PUSH2 0x916 JUMP JUMPDEST PUSH1 0x3 DUP3 ADD PUSH1 0x0 PUSH2 0x75E SWAP2 SWAP1 PUSH2 0x916 JUMP JUMPDEST PUSH1 0x4 DUP3 ADD PUSH1 0x0 PUSH2 0x76E SWAP2 SWAP1 PUSH2 0x916 JUMP JUMPDEST POP POP POP JUMP JUMPDEST PUSH1 0x2 DUP2 DUP2 SLOAD DUP2 LT PUSH2 0x787 JUMPI PUSH2 0x786 PUSH2 0x126B JUMP JUMPDEST JUMPDEST SWAP1 PUSH1 0x0 MSTORE PUSH1 0x20 PUSH1 0x0 KECCAK256 SWAP1 PUSH1 0x5 MUL ADD PUSH1 0x0 DUP1 DUP3 ADD PUSH1 0x0 PUSH2 0x100 EXP DUP2 SLOAD SWAP1 PUSH20 0xFFFFFFFFFFFFFFFFFFFFFFFFFFFFFFFFFFFFFFFF MUL NOT AND SWAP1 SSTORE PUSH1 0x1 DUP3 ADD PUSH1 0x0 PUSH2 0x7CD SWAP2 SWAP1 PUSH2 0x916 JUMP JUMPDEST PUSH1 0x2 DUP3 ADD PUSH1 0x0 PUSH2 0x7DD SWAP2 SWAP1 PUSH2 0x916 JUMP JUMPDEST PUSH1 0x3 DUP3 ADD PUSH1 0x0 PUSH2 0x7ED SWAP2 SWAP1 PUSH2 0x916 JUMP JUMPDEST PUSH1 0x4 DUP3 ADD PUSH1 0x0 PUSH2 0x7FD SWAP2 SWAP1 PUSH2 0x916 JUMP JUMPDEST POP POP POP JUMP JUMPDEST DUP1 PUSH1 0x1 PUSH1 0x0 PUSH2 0x100 EXP DUP2 SLOAD DUP2 PUSH20 0xFFFFFFFFFFFFFFFFFFFFFFFFFFFFFFFFFFFFFFFF MUL NOT AND SWAP1 DUP4 PUSH20 0xFFFFFFFFFFFFFFFFFFFFFFFFFFFFFFFFFFFFFFFF AND MUL OR SWAP1 SSTORE POP POP JUMP JUMPDEST PUSH1 0x3 DUP2 SWAP1 DUP1 PUSH1 0x1 DUP2 SLOAD ADD DUP1 DUP3 SSTORE DUP1 SWAP2 POP POP PUSH1 0x1 SWAP1 SUB SWAP1 PUSH1 0x0 MSTORE PUSH1 0x20 PUSH1 0x0 KECCAK256 SWAP1 PUSH1 0x5 MUL ADD PUSH1 0x0 SWAP1 SWAP2 SWAP1 SWAP2 SWAP1 SWAP2 POP PUSH1 0x0 DUP3 ADD MLOAD DUP2 PUSH1 0x0 ADD PUSH1 0x0 PUSH2 0x100 EXP DUP2 SLOAD DUP2 PUSH20 0xFFFFFFFFFFFFFFFFFFFFFFFFFFFFFFFFFFFFFFFF MUL NOT AND SWAP1 DUP4 PUSH20 0xFFFFFFFFFFFFFFFFFFFFFFFFFFFFFFFFFFFFFFFF AND MUL OR SWAP1 SSTORE POP PUSH1 0x20 DUP3 ADD MLOAD DUP2 PUSH1 0x1 ADD SWAP1 DUP2 PUSH2 0x8CE SWAP2 SWAP1 PUSH2 0x1199 JUMP JUMPDEST POP PUSH1 0x40 DUP3 ADD MLOAD DUP2 PUSH1 0x2 ADD SWAP1 DUP2 PUSH2 0x8E4 SWAP2 SWAP1 PUSH2 0x1199 JUMP JUMPDEST POP PUSH1 0x60 DUP3 ADD MLOAD DUP2 PUSH1 0x3 ADD SWAP1 DUP2 PUSH2 0x8FA SWAP2 SWAP1 PUSH2 0x1199 JUMP JUMPDEST POP PUSH1 0x80 DUP3 ADD MLOAD DUP2 PUSH1 0x4 ADD SWAP1 DUP2 PUSH2 0x910 SWAP2 SWAP1 PUSH2 0x1199 JUMP JUMPDEST POP POP POP POP JUMP JUMPDEST POP DUP1 SLOAD PUSH2 0x922 SWAP1 PUSH2 0xFBC JUMP JUMPDEST PUSH1 0x0 DUP3 SSTORE DUP1 PUSH1 0x1F LT PUSH2 0x934 JUMPI POP PUSH2 0x953 JUMP JUMPDEST PUSH1 0x1F ADD PUSH1 0x20 SWAP1 DIV SWAP1 PUSH1 0x0 MSTORE PUSH1 0x20 PUSH1 0x0 KECCAK256 SWAP1 DUP2 ADD SWAP1 PUSH2 0x952 SWAP2 SWAP1 PUSH2 0x956 JUMP JUMPDEST JUMPDEST POP JUMP JUMPDEST JUMPDEST DUP1 DUP3 GT ISZERO PUSH2 0x96F JUMPI PUSH1 0x0 DUP2 PUSH1 0x0 SWAP1 SSTORE POP PUSH1 0x1 ADD PUSH2 0x957 JUMP JUMPDEST POP SWAP1 JUMP JUMPDEST PUSH1 0x0 PUSH20 0xFFFFFFFFFFFFFFFFFFFFFFFFFFFFFFFFFFFFFFFF DUP3 AND SWAP1 POP SWAP2 SWAP1 POP JUMP JUMPDEST PUSH1 0x0 PUSH2 0x99E DUP3 PUSH2 0x973 JUMP JUMPDEST SWAP1 POP SWAP2 SWAP1 POP JUMP JUMPDEST PUSH2 0x9AE DUP2 PUSH2 0x993 JUMP JUMPDEST DUP3 MSTORE POP POP JUMP JUMPDEST PUSH1 0x0 PUSH1 0x20 DUP3 ADD SWAP1 POP PUSH2 0x9C9 PUSH1 0x0 DUP4 ADD DUP5 PUSH2 0x9A5 JUMP JUMPDEST SWAP3 SWAP2 POP POP JUMP JUMPDEST PUSH1 0x0 DUP2 MLOAD SWAP1 POP SWAP2 SWAP1 POP JUMP JUMPDEST PUSH1 0x0 DUP3 DUP3 MSTORE PUSH1 0x20 DUP3 ADD SWAP1 POP SWAP3 SWAP2 POP POP JUMP JUMPDEST PUSH1 0x0 DUP2 SWAP1 POP PUSH1 0x20 DUP3 ADD SWAP1 POP SWAP2 SWAP1 POP JUMP JUMPDEST PUSH2 0xA04 DUP2 PUSH2 0x993 JUMP JUMPDEST DUP3 MSTORE POP POP JUMP JUMPDEST PUSH1 0x0 DUP2 MLOAD SWAP1 POP SWAP2 SWAP1 POP JUMP JUMPDEST PUSH1 0x0 DUP3 DUP3 MSTORE PUSH1 0x20 DUP3 ADD SWAP1 POP SWAP3 SWAP2 POP POP JUMP JUMPDEST PUSH1 0x0 JUMPDEST DUP4 DUP2 LT ISZERO PUSH2 0xA44 JUMPI DUP1 DUP3 ADD MLOAD DUP2 DUP5 ADD MSTORE PUSH1 0x20 DUP2 ADD SWAP1 POP PUSH2 0xA29 JUMP JUMPDEST PUSH1 0x0 DUP5 DUP5 ADD MSTORE POP POP POP POP JUMP JUMPDEST PUSH1 0x0 PUSH1 0x1F NOT PUSH1 0x1F DUP4 ADD AND SWAP1 POP SWAP2 SWAP1 POP JUMP JUMPDEST PUSH1 0x0 PUSH2 0xA6C DUP3 PUSH2 0xA0A JUMP JUMPDEST PUSH2 0xA76 DUP2 DUP6 PUSH2 0xA15 JUMP JUMPDEST SWAP4 POP PUSH2 0xA86 DUP2 DUP6 PUSH1 0x20 DUP7 ADD PUSH2 0xA26 JUMP JUMPDEST PUSH2 0xA8F DUP2 PUSH2 0xA50 JUMP JUMPDEST DUP5 ADD SWAP2 POP POP SWAP3 SWAP2 POP POP JUMP JUMPDEST PUSH1 0x0 PUSH1 0xA0 DUP4 ADD PUSH1 0x0 DUP4 ADD MLOAD PUSH2 0xAB2 PUSH1 0x0 DUP7 ADD DUP3 PUSH2 0x9FB JUMP JUMPDEST POP PUSH1 0x20 DUP4 ADD MLOAD DUP5 DUP3 SUB PUSH1 0x20 DUP7 ADD MSTORE PUSH2 0xACA DUP3 DUP3 PUSH2 0xA61 JUMP JUMPDEST SWAP2 POP POP PUSH1 0x40 DUP4 ADD MLOAD DUP5 DUP3 SUB PUSH1 0x40 DUP7 ADD MSTORE PUSH2 0xAE4 DUP3 DUP3 PUSH2 0xA61 JUMP JUMPDEST SWAP2 POP POP PUSH1 0x60 DUP4 ADD MLOAD DUP5 DUP3 SUB PUSH1 0x60 DUP7 ADD MSTORE PUSH2 0xAFE DUP3 DUP3 PUSH2 0xA61 JUMP JUMPDEST SWAP2 POP POP PUSH1 0x80 DUP4 ADD MLOAD DUP5 DUP3 SUB PUSH1 0x80 DUP7 ADD MSTORE PUSH2 0xB18 DUP3 DUP3 PUSH2 0xA61 JUMP JUMPDEST SWAP2 POP POP DUP1 SWAP2 POP POP SWAP3 SWAP2 POP POP JUMP JUMPDEST PUSH1 0x0 PUSH2 0xB31 DUP4 DUP4 PUSH2 0xA9A JUMP JUMPDEST SWAP1 POP SWAP3 SWAP2 POP POP JUMP JUMPDEST PUSH1 0x0 PUSH1 0x20 DUP3 ADD SWAP1 POP SWAP2 SWAP1 POP JUMP JUMPDEST PUSH1 0x0 PUSH2 0xB51 DUP3 PUSH2 0x9CF JUMP JUMPDEST PUSH2 0xB5B DUP2 DUP6 PUSH2 0x9DA JUMP JUMPDEST SWAP4 POP DUP4 PUSH1 0x20 DUP3 MUL DUP6 ADD PUSH2 0xB6D DUP6 PUSH2 0x9EB JUMP JUMPDEST DUP1 PUSH1 0x0 JUMPDEST DUP6 DUP2 LT ISZERO PUSH2 0xBA9 JUMPI DUP5 DUP5 SUB DUP10 MSTORE DUP2 MLOAD PUSH2 0xB8A DUP6 DUP3 PUSH2 0xB25 JUMP JUMPDEST SWAP5 POP PUSH2 0xB95 DUP4 PUSH2 0xB39 JUMP JUMPDEST SWAP3 POP PUSH1 0x20 DUP11 ADD SWAP10 POP POP PUSH1 0x1 DUP2 ADD SWAP1 POP PUSH2 0xB71 JUMP JUMPDEST POP DUP3 SWAP8 POP DUP8 SWAP6 POP POP POP POP POP POP SWAP3 SWAP2 POP POP JUMP JUMPDEST PUSH1 0x0 PUSH1 0x20 DUP3 ADD SWAP1 POP DUP2 DUP2 SUB PUSH1 0x0 DUP4 ADD MSTORE PUSH2 0xBD5 DUP2 DUP5 PUSH2 0xB46 JUMP JUMPDEST SWAP1 POP SWAP3 SWAP2 POP POP JUMP JUMPDEST PUSH1 0x0 PUSH1 0x40 MLOAD SWAP1 POP SWAP1 JUMP JUMPDEST PUSH1 0x0 DUP1 REVERT JUMPDEST PUSH1 0x0 DUP1 REVERT JUMPDEST PUSH1 0x0 DUP1 REVERT JUMPDEST PUSH32 0x4E487B7100000000000000000000000000000000000000000000000000000000 PUSH1 0x0 MSTORE PUSH1 0x41 PUSH1 0x4 MSTORE PUSH1 0x24 PUSH1 0x0 REVERT JUMPDEST PUSH2 0xC2E DUP3 PUSH2 0xA50 JUMP JUMPDEST DUP2 ADD DUP2 DUP2 LT PUSH8 0xFFFFFFFFFFFFFFFF DUP3 GT OR ISZERO PUSH2 0xC4D JUMPI PUSH2 0xC4C PUSH2 0xBF6 JUMP JUMPDEST JUMPDEST DUP1 PUSH1 0x40 MSTORE POP POP POP JUMP JUMPDEST PUSH1 0x0 PUSH2 0xC60 PUSH2 0xBDD JUMP JUMPDEST SWAP1 POP PUSH2 0xC6C DUP3 DUP3 PUSH2 0xC25 JUMP JUMPDEST SWAP2 SWAP1 POP JUMP JUMPDEST PUSH1 0x0 DUP1 REVERT JUMPDEST PUSH2 0xC7F DUP2 PUSH2 0x993 JUMP JUMPDEST DUP2 EQ PUSH2 0xC8A JUMPI PUSH1 0x0 DUP1 REVERT JUMPDEST POP JUMP JUMPDEST PUSH1 0x0 DUP2 CALLDATALOAD SWAP1 POP PUSH2 0xC9C DUP2 PUSH2 0xC76 JUMP JUMPDEST SWAP3 SWAP2 POP POP JUMP JUMPDEST PUSH1 0x0 DUP1 REVERT JUMPDEST PUSH1 0x0 DUP1 REVERT JUMPDEST PUSH1 0x0 PUSH8 0xFFFFFFFFFFFFFFFF DUP3 GT ISZERO PUSH2 0xCC7 JUMPI PUSH2 0xCC6 PUSH2 0xBF6 JUMP JUMPDEST JUMPDEST PUSH2 0xCD0 DUP3 PUSH2 0xA50 JUMP JUMPDEST SWAP1 POP PUSH1 0x20 DUP2 ADD SWAP1 POP SWAP2 SWAP1 POP JUMP JUMPDEST DUP3 DUP2 DUP4 CALLDATACOPY PUSH1 0x0 DUP4 DUP4 ADD MSTORE POP POP POP JUMP JUMPDEST PUSH1 0x0 PUSH2 0xCFF PUSH2 0xCFA DUP5 PUSH2 0xCAC JUMP JUMPDEST PUSH2 0xC56 JUMP JUMPDEST SWAP1 POP DUP3 DUP2 MSTORE PUSH1 0x20 DUP2 ADD DUP5 DUP5 DUP5 ADD GT ISZERO PUSH2 0xD1B JUMPI PUSH2 0xD1A PUSH2 0xCA7 JUMP JUMPDEST JUMPDEST PUSH2 0xD26 DUP5 DUP3 DUP6 PUSH2 0xCDD JUMP JUMPDEST POP SWAP4 SWAP3 POP POP POP JUMP JUMPDEST PUSH1 0x0 DUP3 PUSH1 0x1F DUP4 ADD SLT PUSH2 0xD43 JUMPI PUSH2 0xD42 PUSH2 0xCA2 JUMP JUMPDEST JUMPDEST DUP2 CALLDATALOAD PUSH2 0xD53 DUP5 DUP3 PUSH1 0x20 DUP7 ADD PUSH2 0xCEC JUMP JUMPDEST SWAP2 POP POP SWAP3 SWAP2 POP POP JUMP JUMPDEST PUSH1 0x0 PUSH1 0xA0 DUP3 DUP5 SUB SLT ISZERO PUSH2 0xD72 JUMPI PUSH2 0xD71 PUSH2 0xBF1 JUMP JUMPDEST JUMPDEST PUSH2 0xD7C PUSH1 0xA0 PUSH2 0xC56 JUMP JUMPDEST SWAP1 POP PUSH1 0x0 PUSH2 0xD8C DUP5 DUP3 DUP6 ADD PUSH2 0xC8D JUMP JUMPDEST PUSH1 0x0 DUP4 ADD MSTORE POP PUSH1 0x20 DUP3 ADD CALLDATALOAD PUSH8 0xFFFFFFFFFFFFFFFF DUP2 GT ISZERO PUSH2 0xDB0 JUMPI PUSH2 0xDAF PUSH2 0xC71 JUMP JUMPDEST JUMPDEST PUSH2 0xDBC DUP5 DUP3 DUP6 ADD PUSH2 0xD2E JUMP JUMPDEST PUSH1 0x20 DUP4 ADD MSTORE POP PUSH1 0x40 DUP3 ADD CALLDATALOAD PUSH8 0xFFFFFFFFFFFFFFFF DUP2 GT ISZERO PUSH2 0xDE0 JUMPI PUSH2 0xDDF PUSH2 0xC71 JUMP JUMPDEST JUMPDEST PUSH2 0xDEC DUP5 DUP3 DUP6 ADD PUSH2 0xD2E JUMP JUMPDEST PUSH1 0x40 DUP4 ADD MSTORE POP PUSH1 0x60 DUP3 ADD CALLDATALOAD PUSH8 0xFFFFFFFFFFFFFFFF DUP2 GT ISZERO PUSH2 0xE10 JUMPI PUSH2 0xE0F PUSH2 0xC71 JUMP JUMPDEST JUMPDEST PUSH2 0xE1C DUP5 DUP3 DUP6 ADD PUSH2 0xD2E JUMP JUMPDEST PUSH1 0x60 DUP4 ADD MSTORE POP PUSH1 0x80 DUP3 ADD CALLDATALOAD PUSH8 0xFFFFFFFFFFFFFFFF DUP2 GT ISZERO PUSH2 0xE40 JUMPI PUSH2 0xE3F PUSH2 0xC71 JUMP JUMPDEST JUMPDEST PUSH2 0xE4C DUP5 DUP3 DUP6 ADD PUSH2 0xD2E JUMP JUMPDEST PUSH1 0x80 DUP4 ADD MSTORE POP SWAP3 SWAP2 POP POP JUMP JUMPDEST PUSH1 0x0 PUSH1 0x20 DUP3 DUP5 SUB SLT ISZERO PUSH2 0xE6E JUMPI PUSH2 0xE6D PUSH2 0xBE7 JUMP JUMPDEST JUMPDEST PUSH1 0x0 DUP3 ADD CALLDATALOAD PUSH8 0xFFFFFFFFFFFFFFFF DUP2 GT ISZERO PUSH2 0xE8C JUMPI PUSH2 0xE8B PUSH2 0xBEC JUMP JUMPDEST JUMPDEST PUSH2 0xE98 DUP5 DUP3 DUP6 ADD PUSH2 0xD5C JUMP JUMPDEST SWAP2 POP POP SWAP3 SWAP2 POP POP JUMP JUMPDEST PUSH1 0x0 DUP2 SWAP1 POP SWAP2 SWAP1 POP JUMP JUMPDEST PUSH2 0xEB4 DUP2 PUSH2 0xEA1 JUMP JUMPDEST DUP2 EQ PUSH2 0xEBF JUMPI PUSH1 0x0 DUP1 REVERT JUMPDEST POP JUMP JUMPDEST PUSH1 0x0 DUP2 CALLDATALOAD SWAP1 POP PUSH2 0xED1 DUP2 PUSH2 0xEAB JUMP JUMPDEST SWAP3 SWAP2 POP POP JUMP JUMPDEST PUSH1 0x0 DUP1 PUSH1 0x40 DUP4 DUP6 SUB SLT ISZERO PUSH2 0xEEE JUMPI PUSH2 0xEED PUSH2 0xBE7 JUMP JUMPDEST JUMPDEST PUSH1 0x0 PUSH2 0xEFC DUP6 DUP3 DUP7 ADD PUSH2 0xEC2 JUMP JUMPDEST SWAP3 POP POP PUSH1 0x20 DUP4 ADD CALLDATALOAD PUSH8 0xFFFFFFFFFFFFFFFF DUP2 GT ISZERO PUSH2 0xF1D JUMPI PUSH2 0xF1C PUSH2 0xBEC JUMP JUMPDEST JUMPDEST PUSH2 0xF29 DUP6 DUP3 DUP7 ADD PUSH2 0xD5C JUMP JUMPDEST SWAP2 POP POP SWAP3 POP SWAP3 SWAP1 POP JUMP JUMPDEST PUSH1 0x0 PUSH1 0x20 DUP3 DUP5 SUB SLT ISZERO PUSH2 0xF49 JUMPI PUSH2 0xF48 PUSH2 0xBE7 JUMP JUMPDEST JUMPDEST PUSH1 0x0 PUSH2 0xF57 DUP5 DUP3 DUP6 ADD PUSH2 0xC8D JUMP JUMPDEST SWAP2 POP POP SWAP3 SWAP2 POP POP JUMP JUMPDEST PUSH1 0x0 PUSH1 0x20 DUP3 DUP5 SUB SLT ISZERO PUSH2 0xF76 JUMPI PUSH2 0xF75 PUSH2 0xBE7 JUMP JUMPDEST JUMPDEST PUSH1 0x0 PUSH2 0xF84 DUP5 DUP3 DUP6 ADD PUSH2 0xEC2 JUMP JUMPDEST SWAP2 POP POP SWAP3 SWAP2 POP POP JUMP JUMPDEST PUSH32 0x4E487B7100000000000000000000000000000000000000000000000000000000 PUSH1 0x0 MSTORE PUSH1 0x22 PUSH1 0x4 MSTORE PUSH1 0x24 PUSH1 0x0 REVERT JUMPDEST PUSH1 0x0 PUSH1 0x2 DUP3 DIV SWAP1 POP PUSH1 0x1 DUP3 AND DUP1 PUSH2 0xFD4 JUMPI PUSH1 0x7F DUP3 AND SWAP2 POP JUMPDEST PUSH1 0x20 DUP3 LT DUP2 SUB PUSH2 0xFE7 JUMPI PUSH2 0xFE6 PUSH2 0xF8D JUMP JUMPDEST JUMPDEST POP SWAP2 SWAP1 POP JUMP JUMPDEST PUSH1 0x0 DUP2 SWAP1 POP DUP2 PUSH1 0x0 MSTORE PUSH1 0x20 PUSH1 0x0 KECCAK256 SWAP1 POP SWAP2 SWAP1 POP JUMP JUMPDEST PUSH1 0x0 PUSH1 0x20 PUSH1 0x1F DUP4 ADD DIV SWAP1 POP SWAP2 SWAP1 POP JUMP JUMPDEST PUSH1 0x0 DUP3 DUP3 SHL SWAP1 POP SWAP3 SWAP2 POP POP JUMP JUMPDEST PUSH1 0x0 PUSH1 0x8 DUP4 MUL PUSH2 0x104F PUSH32 0xFFFFFFFFFFFFFFFFFFFFFFFFFFFFFFFFFFFFFFFFFFFFFFFFFFFFFFFFFFFFFFFF DUP3 PUSH2 0x1012 JUMP JUMPDEST PUSH2 0x1059 DUP7 DUP4 PUSH2 0x1012 JUMP JUMPDEST SWAP6 POP DUP1 NOT DUP5 AND SWAP4 POP DUP1 DUP7 AND DUP5 OR SWAP3 POP POP POP SWAP4 SWAP3 POP POP POP JUMP JUMPDEST PUSH1 0x0 DUP2 SWAP1 POP SWAP2 SWAP1 POP JUMP JUMPDEST PUSH1 0x0 PUSH2 0x1096 PUSH2 0x1091 PUSH2 0x108C DUP5 PUSH2 0xEA1 JUMP JUMPDEST PUSH2 0x1071 JUMP JUMPDEST PUSH2 0xEA1 JUMP JUMPDEST SWAP1 POP SWAP2 SWAP1 POP JUMP JUMPDEST PUSH1 0x0 DUP2 SWAP1 POP SWAP2 SWAP1 POP JUMP JUMPDEST PUSH2 0x10B0 DUP4 PUSH2 0x107B JUMP JUMPDEST PUSH2 0x10C4 PUSH2 0x10BC DUP3 PUSH2 0x109D JUMP JUMPDEST DUP5 DUP5 SLOAD PUSH2 0x101F JUMP JUMPDEST DUP3 SSTORE POP POP POP POP JUMP JUMPDEST PUSH1 0x0 SWAP1 JUMP JUMPDEST PUSH2 0x10D9 PUSH2 0x10CC JUMP JUMPDEST PUSH2 0x10E4 DUP2 DUP5 DUP5 PUSH2 0x10A7 JUMP JUMPDEST POP POP POP JUMP JUMPDEST JUMPDEST DUP2 DUP2 LT ISZERO PUSH2 0x1108 JUMPI PUSH2 0x10FD PUSH1 0x0 DUP3 PUSH2 0x10D1 JUMP JUMPDEST PUSH1 0x1 DUP2 ADD SWAP1 POP PUSH2 0x10EA JUMP JUMPDEST POP POP JUMP JUMPDEST PUSH1 0x1F DUP3 GT ISZERO PUSH2 0x114D JUMPI PUSH2 0x111E DUP2 PUSH2 0xFED JUMP JUMPDEST PUSH2 0x1127 DUP5 PUSH2 0x1002 JUMP JUMPDEST DUP2 ADD PUSH1 0x20 DUP6 LT ISZERO PUSH2 0x1136 JUMPI DUP2 SWAP1 POP JUMPDEST PUSH2 0x114A PUSH2 0x1142 DUP6 PUSH2 0x1002 JUMP JUMPDEST DUP4 ADD DUP3 PUSH2 0x10E9 JUMP JUMPDEST POP POP JUMPDEST POP POP POP JUMP JUMPDEST PUSH1 0x0 DUP3 DUP3 SHR SWAP1 POP SWAP3 SWAP2 POP POP JUMP JUMPDEST PUSH1 0x0 PUSH2 0x1170 PUSH1 0x0 NOT DUP5 PUSH1 0x8 MUL PUSH2 0x1152 JUMP JUMPDEST NOT DUP1 DUP4 AND SWAP2 POP POP SWAP3 SWAP2 POP POP JUMP JUMPDEST PUSH1 0x0 PUSH2 0x1189 DUP4 DUP4 PUSH2 0x115F JUMP JUMPDEST SWAP2 POP DUP3 PUSH1 0x2 MUL DUP3 OR SWAP1 POP SWAP3 SWAP2 POP POP JUMP JUMPDEST PUSH2 0x11A2 DUP3 PUSH2 0xA0A JUMP JUMPDEST PUSH8 0xFFFFFFFFFFFFFFFF DUP2 GT ISZERO PUSH2 0x11BB JUMPI PUSH2 0x11BA PUSH2 0xBF6 JUMP JUMPDEST JUMPDEST PUSH2 0x11C5 DUP3 SLOAD PUSH2 0xFBC JUMP JUMPDEST PUSH2 0x11D0 DUP3 DUP3 DUP6 PUSH2 0x110C JUMP JUMPDEST PUSH1 0x0 PUSH1 0x20 SWAP1 POP PUSH1 0x1F DUP4 GT PUSH1 0x1 DUP2 EQ PUSH2 0x1203 JUMPI PUSH1 0x0 DUP5 ISZERO PUSH2 0x11F1 JUMPI DUP3 DUP8 ADD MLOAD SWAP1 POP JUMPDEST PUSH2 0x11FB DUP6 DUP3 PUSH2 0x117D JUMP JUMPDEST DUP7 SSTORE POP PUSH2 0x1263 JUMP JUMPDEST PUSH1 0x1F NOT DUP5 AND PUSH2 0x1211 DUP7 PUSH2 0xFED JUMP JUMPDEST PUSH1 0x0 JUMPDEST DUP3 DUP2 LT ISZERO PUSH2 0x1239 JUMPI DUP5 DUP10 ADD MLOAD DUP3 SSTORE PUSH1 0x1 DUP3 ADD SWAP2 POP PUSH1 0x20 DUP6 ADD SWAP5 POP PUSH1 0x20 DUP2 ADD SWAP1 POP PUSH2 0x1214 JUMP JUMPDEST DUP7 DUP4 LT ISZERO PUSH2 0x1256 JUMPI DUP5 DUP10 ADD MLOAD PUSH2 0x1252 PUSH1 0x1F DUP10 AND DUP3 PUSH2 0x115F JUMP JUMPDEST DUP4 SSTORE POP JUMPDEST PUSH1 0x1 PUSH1 0x2 DUP9 MUL ADD DUP9 SSTORE POP POP POP JUMPDEST POP POP POP POP POP POP JUMP JUMPDEST PUSH32 0x4E487B7100000000000000000000000000000000000000000000000000000000 PUSH1 0x0 MSTORE PUSH1 0x32 PUSH1 0x4 MSTORE PUSH1 0x24 PUSH1 0x0 REVERT INVALID LOG2 PUSH5 0x6970667358 0x22 SLT KECCAK256 RETURN DUP1 SWAP13 JUMPDEST PUSH12 0x1BD434C9C258930BDEC3422D MSTORE 0x4F SUB STATICCALL LOG1 INVALID 0xDB 0xDD DUP5 PUSH9 0x4E769E913D64736F6C PUSH4 0x43000811 STOP CALLER "
				},
				"gasEstimates": {
					"creation": {
						"codeDepositCost": "963200",
						"executionCost": "1001",
						"totalCost": "964201"
					},
					"external": {
						"add_admin((address,string,string,string,string))": "infinite",
						"add_buyer((address,string,string,string,string))": "infinite",
						"bank()": "2537",
						"delete_admin(uint256)": "infinite",
						"get_buyers()": "infinite",
						"provider()": "2512",
						"remove_buyer(uint256)": "infinite",
						"set_bank(address)": "24788",
						"set_provider(address)": "24722",
						"update_buyer(uint256,(address,string,string,string,string))": "infinite"
					}
				},
				"methodIdentifiers": {
					"add_admin((address,string,string,string,string))": "f73c5683",
					"add_buyer((address,string,string,string,string))": "856c799d",
					"bank()": "76cdb03b",
					"delete_admin(uint256)": "b5c64e2a",
					"get_buyers()": "827b0348",
					"provider()": "085d4883",
					"remove_buyer(uint256)": "b78842ee",
					"set_bank(address)": "dacf64e2",
					"set_provider(address)": "b29f04fe",
					"update_buyer(uint256,(address,string,string,string,string))": "98168b94"
				}
			},
			"storageLayout": {
				"storage": [
					{
						"astId": 56,
						"contract": "contracts/Colhoz.sol:Colhoz",
						"label": "provider",
						"offset": 0,
						"slot": "0",
						"type": "t_address"
					},
					{
						"astId": 58,
						"contract": "contracts/Colhoz.sol:Colhoz",
						"label": "bank",
						"offset": 0,
						"slot": "1",
						"type": "t_address"
					},
					{
						"astId": 62,
						"contract": "contracts/Colhoz.sol:Colhoz",
						"label": "buyers",
						"offset": 0,
						"slot": "2",
						"type": "t_array(t_struct(User)12_storage)dyn_storage"
					},
					{
						"astId": 66,
						"contract": "contracts/Colhoz.sol:Colhoz",
						"label": "admins",
						"offset": 0,
						"slot": "3",
						"type": "t_array(t_struct(User)12_storage)dyn_storage"
					},
					{
						"astId": 70,
						"contract": "contracts/Colhoz.sol:Colhoz",
						"label": "sellers",
						"offset": 0,
						"slot": "4",
						"type": "t_array(t_struct(Seller)25_storage)dyn_storage"
					},
					{
						"astId": 74,
						"contract": "contracts/Colhoz.sol:Colhoz",
						"label": "shops",
						"offset": 0,
						"slot": "5",
						"type": "t_array(t_struct(Shop)34_storage)dyn_storage"
					},
					{
						"astId": 78,
						"contract": "contracts/Colhoz.sol:Colhoz",
						"label": "reviews",
						"offset": 0,
						"slot": "6",
						"type": "t_array(t_struct(Review)47_storage)dyn_storage"
					},
					{
						"astId": 82,
						"contract": "contracts/Colhoz.sol:Colhoz",
						"label": "requests",
						"offset": 0,
						"slot": "7",
						"type": "t_array(t_struct(Request)54_storage)dyn_storage"
					}
				],
				"types": {
					"t_address": {
						"encoding": "inplace",
						"label": "address",
						"numberOfBytes": "20"
					},
					"t_array(t_address)dyn_storage": {
						"base": "t_address",
						"encoding": "dynamic_array",
						"label": "address[]",
						"numberOfBytes": "32"
					},
					"t_array(t_struct(Request)54_storage)dyn_storage": {
						"base": "t_struct(Request)54_storage",
						"encoding": "dynamic_array",
						"label": "struct Request[]",
						"numberOfBytes": "32"
					},
					"t_array(t_struct(Review)47_storage)dyn_storage": {
						"base": "t_struct(Review)47_storage",
						"encoding": "dynamic_array",
						"label": "struct Review[]",
						"numberOfBytes": "32"
					},
					"t_array(t_struct(Seller)25_storage)dyn_storage": {
						"base": "t_struct(Seller)25_storage",
						"encoding": "dynamic_array",
						"label": "struct Seller[]",
						"numberOfBytes": "32"
					},
					"t_array(t_struct(Shop)34_storage)dyn_storage": {
						"base": "t_struct(Shop)34_storage",
						"encoding": "dynamic_array",
						"label": "struct Shop[]",
						"numberOfBytes": "32"
					},
					"t_array(t_struct(User)12_storage)dyn_storage": {
						"base": "t_struct(User)12_storage",
						"encoding": "dynamic_array",
						"label": "struct User[]",
						"numberOfBytes": "32"
					},
					"t_string_storage": {
						"encoding": "bytes",
						"label": "string",
						"numberOfBytes": "32"
					},
					"t_struct(Request)54_storage": {
						"encoding": "inplace",
						"label": "struct Request",
						"members": [
							{
								"astId": 49,
								"contract": "contracts/Colhoz.sol:Colhoz",
								"label": "autor",
								"offset": 0,
								"slot": "0",
								"type": "t_address"
							},
							{
								"astId": 51,
								"contract": "contracts/Colhoz.sol:Colhoz",
								"label": "currentRole",
								"offset": 0,
								"slot": "1",
								"type": "t_string_storage"
							},
							{
								"astId": 53,
								"contract": "contracts/Colhoz.sol:Colhoz",
								"label": "desiredRole",
								"offset": 0,
								"slot": "2",
								"type": "t_string_storage"
							}
						],
						"numberOfBytes": "96"
					},
					"t_struct(Review)47_storage": {
						"encoding": "inplace",
						"label": "struct Review",
						"members": [
							{
								"astId": 36,
								"contract": "contracts/Colhoz.sol:Colhoz",
								"label": "autor",
								"offset": 0,
								"slot": "0",
								"type": "t_address"
							},
							{
								"astId": 38,
								"contract": "contracts/Colhoz.sol:Colhoz",
								"label": "message",
								"offset": 0,
								"slot": "1",
								"type": "t_string_storage"
							},
							{
								"astId": 40,
								"contract": "contracts/Colhoz.sol:Colhoz",
								"label": "shopId",
								"offset": 0,
								"slot": "2",
								"type": "t_string_storage"
							},
							{
								"astId": 43,
								"contract": "contracts/Colhoz.sol:Colhoz",
								"label": "likes",
								"offset": 0,
								"slot": "3",
								"type": "t_array(t_address)dyn_storage"
							},
							{
								"astId": 46,
								"contract": "contracts/Colhoz.sol:Colhoz",
								"label": "dislikes",
								"offset": 0,
								"slot": "4",
								"type": "t_array(t_address)dyn_storage"
							}
						],
						"numberOfBytes": "160"
					},
					"t_struct(Seller)25_storage": {
						"encoding": "inplace",
						"label": "struct Seller",
						"members": [
							{
								"astId": 14,
								"contract": "contracts/Colhoz.sol:Colhoz",
								"label": "userAddr",
								"offset": 0,
								"slot": "0",
								"type": "t_address"
							},
							{
								"astId": 16,
								"contract": "contracts/Colhoz.sol:Colhoz",
								"label": "login",
								"offset": 0,
								"slot": "1",
								"type": "t_string_storage"
							},
							{
								"astId": 18,
								"contract": "contracts/Colhoz.sol:Colhoz",
								"label": "password",
								"offset": 0,
								"slot": "2",
								"type": "t_string_storage"
							},
							{
								"astId": 20,
								"contract": "contracts/Colhoz.sol:Colhoz",
								"label": "fio",
								"offset": 0,
								"slot": "3",
								"type": "t_string_storage"
							},
							{
								"astId": 22,
								"contract": "contracts/Colhoz.sol:Colhoz",
								"label": "status",
								"offset": 0,
								"slot": "4",
								"type": "t_string_storage"
							},
							{
								"astId": 24,
								"contract": "contracts/Colhoz.sol:Colhoz",
								"label": "shopId",
								"offset": 0,
								"slot": "5",
								"type": "t_string_storage"
							}
						],
						"numberOfBytes": "192"
					},
					"t_struct(Shop)34_storage": {
						"encoding": "inplace",
						"label": "struct Shop",
						"members": [
							{
								"astId": 27,
								"contract": "contracts/Colhoz.sol:Colhoz",
								"label": "shopId",
								"offset": 0,
								"slot": "0",
								"type": "t_string_storage"
							},
							{
								"astId": 29,
								"contract": "contracts/Colhoz.sol:Colhoz",
								"label": "shopAddr",
								"offset": 0,
								"slot": "1",
								"type": "t_address"
							},
							{
								"astId": 31,
								"contract": "contracts/Colhoz.sol:Colhoz",
								"label": "number",
								"offset": 0,
								"slot": "2",
								"type": "t_string_storage"
							},
							{
								"astId": 33,
								"contract": "contracts/Colhoz.sol:Colhoz",
								"label": "city",
								"offset": 0,
								"slot": "3",
								"type": "t_string_storage"
							}
						],
						"numberOfBytes": "128"
					},
					"t_struct(User)12_storage": {
						"encoding": "inplace",
						"label": "struct User",
						"members": [
							{
								"astId": 3,
								"contract": "contracts/Colhoz.sol:Colhoz",
								"label": "userAddr",
								"offset": 0,
								"slot": "0",
								"type": "t_address"
							},
							{
								"astId": 5,
								"contract": "contracts/Colhoz.sol:Colhoz",
								"label": "login",
								"offset": 0,
								"slot": "1",
								"type": "t_string_storage"
							},
							{
								"astId": 7,
								"contract": "contracts/Colhoz.sol:Colhoz",
								"label": "password",
								"offset": 0,
								"slot": "2",
								"type": "t_string_storage"
							},
							{
								"astId": 9,
								"contract": "contracts/Colhoz.sol:Colhoz",
								"label": "fio",
								"offset": 0,
								"slot": "3",
								"type": "t_string_storage"
							},
							{
								"astId": 11,
								"contract": "contracts/Colhoz.sol:Colhoz",
								"label": "status",
								"offset": 0,
								"slot": "4",
								"type": "t_string_storage"
							}
						],
						"numberOfBytes": "160"
					}
				}
			},
			"userdoc": {
				"kind": "user",
				"methods": {},
				"version": 1
			}
		}
	}
}