{
	"contracts/Colhoz.sol": {
		"Colhoz": {
			"abi": [
				{
					"inputs": [
						{
							"internalType": "address",
							"name": "userAddr",
							"type": "address"
						},
						{
							"internalType": "string",
							"name": "login",
							"type": "string"
						},
						{
							"internalType": "string",
							"name": "password",
							"type": "string"
						},
						{
							"internalType": "string",
							"name": "fio",
							"type": "string"
						},
						{
							"internalType": "string",
							"name": "status",
							"type": "string"
						}
					],
					"name": "add_buyer",
					"outputs": [],
					"stateMutability": "nonpayable",
					"type": "function"
				},
				{
					"inputs": [],
					"name": "bank",
					"outputs": [
						{
							"internalType": "address",
							"name": "",
							"type": "address"
						}
					],
					"stateMutability": "view",
					"type": "function"
				},
				{
					"inputs": [],
					"name": "get_buyers",
					"outputs": [
						{
							"components": [
								{
									"internalType": "address",
									"name": "userAddr",
									"type": "address"
								},
								{
									"internalType": "string",
									"name": "login",
									"type": "string"
								},
								{
									"internalType": "string",
									"name": "password",
									"type": "string"
								},
								{
									"internalType": "string",
									"name": "fio",
									"type": "string"
								},
								{
									"internalType": "string",
									"name": "status",
									"type": "string"
								}
							],
							"internalType": "struct User[]",
							"name": "",
							"type": "tuple[]"
						}
					],
					"stateMutability": "view",
					"type": "function"
				},
				{
					"inputs": [],
					"name": "provider",
					"outputs": [
						{
							"internalType": "address",
							"name": "",
							"type": "address"
						}
					],
					"stateMutability": "view",
					"type": "function"
				},
				{
					"inputs": [
						{
							"internalType": "uint256",
							"name": "index",
							"type": "uint256"
						}
					],
					"name": "remove_buyer",
					"outputs": [],
					"stateMutability": "nonpayable",
					"type": "function"
				},
				{
					"inputs": [
						{
							"internalType": "address",
							"name": "_bank",
							"type": "address"
						}
					],
					"name": "set_bank",
					"outputs": [],
					"stateMutability": "nonpayable",
					"type": "function"
				},
				{
					"inputs": [
						{
							"internalType": "address",
							"name": "_provider",
							"type": "address"
						}
					],
					"name": "set_provider",
					"outputs": [],
					"stateMutability": "nonpayable",
					"type": "function"
				},
				{
					"inputs": [
						{
							"internalType": "uint256",
							"name": "index",
							"type": "uint256"
						},
						{
							"components": [
								{
									"internalType": "address",
									"name": "userAddr",
									"type": "address"
								},
								{
									"internalType": "string",
									"name": "login",
									"type": "string"
								},
								{
									"internalType": "string",
									"name": "password",
									"type": "string"
								},
								{
									"internalType": "string",
									"name": "fio",
									"type": "string"
								},
								{
									"internalType": "string",
									"name": "status",
									"type": "string"
								}
							],
							"internalType": "struct User",
							"name": "user",
							"type": "tuple"
						}
					],
					"name": "update_buyer",
					"outputs": [],
					"stateMutability": "nonpayable",
					"type": "function"
				}
			],
			"devdoc": {
				"kind": "dev",
				"methods": {},
				"version": 1
			},
			"evm": {
				"assembly": "    /* \"contracts/Colhoz.sol\":612:2153  contract Colhoz{... */\n  mstore(0x40, 0x80)\n  callvalue\n  dup1\n  iszero\n  tag_1\n  jumpi\n  0x00\n  dup1\n  revert\ntag_1:\n  pop\n  dataSize(sub_0)\n  dup1\n  dataOffset(sub_0)\n  0x00\n  codecopy\n  0x00\n  return\nstop\n\nsub_0: assembly {\n        /* \"contracts/Colhoz.sol\":612:2153  contract Colhoz{... */\n      mstore(0x40, 0x80)\n      callvalue\n      dup1\n      iszero\n      tag_1\n      jumpi\n      0x00\n      dup1\n      revert\n    tag_1:\n      pop\n      jumpi(tag_2, lt(calldatasize, 0x04))\n      shr(0xe0, calldataload(0x00))\n      dup1\n      0x98168b94\n      gt\n      tag_11\n      jumpi\n      dup1\n      0x98168b94\n      eq\n      tag_7\n      jumpi\n      dup1\n      0xb29f04fe\n      eq\n      tag_8\n      jumpi\n      dup1\n      0xb78842ee\n      eq\n      tag_9\n      jumpi\n      dup1\n      0xdacf64e2\n      eq\n      tag_10\n      jumpi\n      jump(tag_2)\n    tag_11:\n      dup1\n      0x085d4883\n      eq\n      tag_3\n      jumpi\n      dup1\n      0x1fbecde7\n      eq\n      tag_4\n      jumpi\n      dup1\n      0x76cdb03b\n      eq\n      tag_5\n      jumpi\n      dup1\n      0x827b0348\n      eq\n      tag_6\n      jumpi\n    tag_2:\n      0x00\n      dup1\n      revert\n        /* \"contracts/Colhoz.sol\":634:657  address public provider */\n    tag_3:\n      tag_12\n      tag_13\n      jump\t// in\n    tag_12:\n      mload(0x40)\n      tag_14\n      swap2\n      swap1\n      tag_15\n      jump\t// in\n    tag_14:\n      mload(0x40)\n      dup1\n      swap2\n      sub\n      swap1\n      return\n        /* \"contracts/Colhoz.sol\":1088:1367  function add_buyer(... */\n    tag_4:\n      tag_16\n      0x04\n      dup1\n      calldatasize\n      sub\n      dup2\n      add\n      swap1\n      tag_17\n      swap2\n      swap1\n      tag_18\n      jump\t// in\n    tag_17:\n      tag_19\n      jump\t// in\n    tag_16:\n      stop\n        /* \"contracts/Colhoz.sol\":663:682  address public bank */\n    tag_5:\n      tag_20\n      tag_21\n      jump\t// in\n    tag_20:\n      mload(0x40)\n      tag_22\n      swap2\n      swap1\n      tag_15\n      jump\t// in\n    tag_22:\n      mload(0x40)\n      dup1\n      swap2\n      sub\n      swap1\n      return\n        /* \"contracts/Colhoz.sol\":996:1082  function get_buyers() public view returns(User[] memory){... */\n    tag_6:\n      tag_23\n      tag_24\n      jump\t// in\n    tag_23:\n      mload(0x40)\n      tag_25\n      swap2\n      swap1\n      tag_26\n      jump\t// in\n    tag_25:\n      mload(0x40)\n      dup1\n      swap2\n      sub\n      swap1\n      return\n        /* \"contracts/Colhoz.sol\":1457:1552  function update_buyer(uint index,User memory user) public {... */\n    tag_7:\n      tag_27\n      0x04\n      dup1\n      calldatasize\n      sub\n      dup2\n      add\n      swap1\n      tag_28\n      swap2\n      swap1\n      tag_29\n      jump\t// in\n    tag_28:\n      tag_30\n      jump\t// in\n    tag_27:\n      stop\n        /* \"contracts/Colhoz.sol\":825:910  function set_provider(address _provider) public {... */\n    tag_8:\n      tag_31\n      0x04\n      dup1\n      calldatasize\n      sub\n      dup2\n      add\n      swap1\n      tag_32\n      swap2\n      swap1\n      tag_33\n      jump\t// in\n    tag_32:\n      tag_34\n      jump\t// in\n    tag_31:\n      stop\n        /* \"contracts/Colhoz.sol\":1373:1451  function remove_buyer(uint index) public {... */\n    tag_9:\n      tag_35\n      0x04\n      dup1\n      calldatasize\n      sub\n      dup2\n      add\n      swap1\n      tag_36\n      swap2\n      swap1\n      tag_37\n      jump\t// in\n    tag_36:\n      tag_38\n      jump\t// in\n    tag_35:\n      stop\n        /* \"contracts/Colhoz.sol\":920:989  function set_bank(address _bank) public {... */\n    tag_10:\n      tag_39\n      0x04\n      dup1\n      calldatasize\n      sub\n      dup2\n      add\n      swap1\n      tag_40\n      swap2\n      swap1\n      tag_33\n      jump\t// in\n    tag_40:\n      tag_41\n      jump\t// in\n    tag_39:\n      stop\n        /* \"contracts/Colhoz.sol\":634:657  address public provider */\n    tag_13:\n      0x00\n      dup1\n      sload\n      swap1\n      0x0100\n      exp\n      swap1\n      div\n      0xffffffffffffffffffffffffffffffffffffffff\n      and\n      dup2\n      jump\t// out\n        /* \"contracts/Colhoz.sol\":1088:1367  function add_buyer(... */\n    tag_19:\n        /* \"contracts/Colhoz.sol\":1274:1290  User memory user */\n      0x00\n        /* \"contracts/Colhoz.sol\":1293:1333  User(userAddr,login,password,fio,status) */\n      mload(0x40)\n      dup1\n      0xa0\n      add\n      0x40\n      mstore\n      dup1\n        /* \"contracts/Colhoz.sol\":1298:1306  userAddr */\n      dup8\n        /* \"contracts/Colhoz.sol\":1293:1333  User(userAddr,login,password,fio,status) */\n      0xffffffffffffffffffffffffffffffffffffffff\n      and\n      dup2\n      mstore\n      0x20\n      add\n        /* \"contracts/Colhoz.sol\":1307:1312  login */\n      dup7\n        /* \"contracts/Colhoz.sol\":1293:1333  User(userAddr,login,password,fio,status) */\n      dup2\n      mstore\n      0x20\n      add\n        /* \"contracts/Colhoz.sol\":1313:1321  password */\n      dup6\n        /* \"contracts/Colhoz.sol\":1293:1333  User(userAddr,login,password,fio,status) */\n      dup2\n      mstore\n      0x20\n      add\n        /* \"contracts/Colhoz.sol\":1322:1325  fio */\n      dup5\n        /* \"contracts/Colhoz.sol\":1293:1333  User(userAddr,login,password,fio,status) */\n      dup2\n      mstore\n      0x20\n      add\n        /* \"contracts/Colhoz.sol\":1326:1332  status */\n      dup4\n        /* \"contracts/Colhoz.sol\":1293:1333  User(userAddr,login,password,fio,status) */\n      dup2\n      mstore\n      pop\n        /* \"contracts/Colhoz.sol\":1274:1333  User memory user = User(userAddr,login,password,fio,status) */\n      swap1\n      pop\n        /* \"contracts/Colhoz.sol\":1343:1349  buyers */\n      0x02\n        /* \"contracts/Colhoz.sol\":1355:1359  user */\n      dup2\n        /* \"contracts/Colhoz.sol\":1343:1360  buyers.push(user) */\n      swap1\n      dup1\n      0x01\n      dup2\n      sload\n      add\n      dup1\n      dup3\n      sstore\n      dup1\n      swap2\n      pop\n      pop\n      0x01\n      swap1\n      sub\n      swap1\n      0x00\n      mstore\n      keccak256(0x00, 0x20)\n      swap1\n      0x05\n      mul\n      add\n      0x00\n      swap1\n      swap2\n      swap1\n      swap2\n      swap1\n      swap2\n      pop\n      0x00\n      dup3\n      add\n      mload\n      dup2\n      0x00\n      add\n      exp(0x0100, 0x00)\n      dup2\n      sload\n      dup2\n      0xffffffffffffffffffffffffffffffffffffffff\n      mul\n      not\n      and\n      swap1\n      dup4\n      0xffffffffffffffffffffffffffffffffffffffff\n      and\n      mul\n      or\n      swap1\n      sstore\n      pop\n      0x20\n      dup3\n      add\n      mload\n      dup2\n      0x01\n      add\n      swap1\n      dup2\n      tag_44\n      swap2\n      swap1\n      tag_45\n      jump\t// in\n    tag_44:\n      pop\n      0x40\n      dup3\n      add\n      mload\n      dup2\n      0x02\n      add\n      swap1\n      dup2\n      tag_46\n      swap2\n      swap1\n      tag_45\n      jump\t// in\n    tag_46:\n      pop\n      0x60\n      dup3\n      add\n      mload\n      dup2\n      0x03\n      add\n      swap1\n      dup2\n      tag_47\n      swap2\n      swap1\n      tag_45\n      jump\t// in\n    tag_47:\n      pop\n      0x80\n      dup3\n      add\n      mload\n      dup2\n      0x04\n      add\n      swap1\n      dup2\n      tag_48\n      swap2\n      swap1\n      tag_45\n      jump\t// in\n    tag_48:\n      pop\n      pop\n      pop\n        /* \"contracts/Colhoz.sol\":1264:1367  {... */\n      pop\n        /* \"contracts/Colhoz.sol\":1088:1367  function add_buyer(... */\n      pop\n      pop\n      pop\n      pop\n      pop\n      jump\t// out\n        /* \"contracts/Colhoz.sol\":663:682  address public bank */\n    tag_21:\n      0x01\n      0x00\n      swap1\n      sload\n      swap1\n      0x0100\n      exp\n      swap1\n      div\n      0xffffffffffffffffffffffffffffffffffffffff\n      and\n      dup2\n      jump\t// out\n        /* \"contracts/Colhoz.sol\":996:1082  function get_buyers() public view returns(User[] memory){... */\n    tag_24:\n        /* \"contracts/Colhoz.sol\":1038:1051  User[] memory */\n      0x60\n        /* \"contracts/Colhoz.sol\":1069:1075  buyers */\n      0x02\n        /* \"contracts/Colhoz.sol\":1062:1075  return buyers */\n      dup1\n      sload\n      dup1\n      0x20\n      mul\n      0x20\n      add\n      mload(0x40)\n      swap1\n      dup2\n      add\n      0x40\n      mstore\n      dup1\n      swap3\n      swap2\n      swap1\n      dup2\n      dup2\n      mstore\n      0x20\n      add\n      0x00\n      swap1\n    tag_50:\n      dup3\n      dup3\n      lt\n      iszero\n      tag_51\n      jumpi\n      dup4\n      dup3\n      swap1\n      0x00\n      mstore\n      keccak256(0x00, 0x20)\n      swap1\n      0x05\n      mul\n      add\n      mload(0x40)\n      dup1\n      0xa0\n      add\n      0x40\n      mstore\n      swap1\n      dup2\n      0x00\n      dup3\n      add\n      0x00\n      swap1\n      sload\n      swap1\n      0x0100\n      exp\n      swap1\n      div\n      0xffffffffffffffffffffffffffffffffffffffff\n      and\n      0xffffffffffffffffffffffffffffffffffffffff\n      and\n      0xffffffffffffffffffffffffffffffffffffffff\n      and\n      dup2\n      mstore\n      0x20\n      add\n      0x01\n      dup3\n      add\n      dup1\n      sload\n      tag_53\n      swap1\n      tag_54\n      jump\t// in\n    tag_53:\n      dup1\n      0x1f\n      add\n      0x20\n      dup1\n      swap2\n      div\n      mul\n      0x20\n      add\n      mload(0x40)\n      swap1\n      dup2\n      add\n      0x40\n      mstore\n      dup1\n      swap3\n      swap2\n      swap1\n      dup2\n      dup2\n      mstore\n      0x20\n      add\n      dup3\n      dup1\n      sload\n      tag_55\n      swap1\n      tag_54\n      jump\t// in\n    tag_55:\n      dup1\n      iszero\n      tag_56\n      jumpi\n      dup1\n      0x1f\n      lt\n      tag_57\n      jumpi\n      0x0100\n      dup1\n      dup4\n      sload\n      div\n      mul\n      dup4\n      mstore\n      swap2\n      0x20\n      add\n      swap2\n      jump(tag_56)\n    tag_57:\n      dup3\n      add\n      swap2\n      swap1\n      0x00\n      mstore\n      keccak256(0x00, 0x20)\n      swap1\n    tag_58:\n      dup2\n      sload\n      dup2\n      mstore\n      swap1\n      0x01\n      add\n      swap1\n      0x20\n      add\n      dup1\n      dup4\n      gt\n      tag_58\n      jumpi\n      dup3\n      swap1\n      sub\n      0x1f\n      and\n      dup3\n      add\n      swap2\n    tag_56:\n      pop\n      pop\n      pop\n      pop\n      pop\n      dup2\n      mstore\n      0x20\n      add\n      0x02\n      dup3\n      add\n      dup1\n      sload\n      tag_59\n      swap1\n      tag_54\n      jump\t// in\n    tag_59:\n      dup1\n      0x1f\n      add\n      0x20\n      dup1\n      swap2\n      div\n      mul\n      0x20\n      add\n      mload(0x40)\n      swap1\n      dup2\n      add\n      0x40\n      mstore\n      dup1\n      swap3\n      swap2\n      swap1\n      dup2\n      dup2\n      mstore\n      0x20\n      add\n      dup3\n      dup1\n      sload\n      tag_60\n      swap1\n      tag_54\n      jump\t// in\n    tag_60:\n      dup1\n      iszero\n      tag_61\n      jumpi\n      dup1\n      0x1f\n      lt\n      tag_62\n      jumpi\n      0x0100\n      dup1\n      dup4\n      sload\n      div\n      mul\n      dup4\n      mstore\n      swap2\n      0x20\n      add\n      swap2\n      jump(tag_61)\n    tag_62:\n      dup3\n      add\n      swap2\n      swap1\n      0x00\n      mstore\n      keccak256(0x00, 0x20)\n      swap1\n    tag_63:\n      dup2\n      sload\n      dup2\n      mstore\n      swap1\n      0x01\n      add\n      swap1\n      0x20\n      add\n      dup1\n      dup4\n      gt\n      tag_63\n      jumpi\n      dup3\n      swap1\n      sub\n      0x1f\n      and\n      dup3\n      add\n      swap2\n    tag_61:\n      pop\n      pop\n      pop\n      pop\n      pop\n      dup2\n      mstore\n      0x20\n      add\n      0x03\n      dup3\n      add\n      dup1\n      sload\n      tag_64\n      swap1\n      tag_54\n      jump\t// in\n    tag_64:\n      dup1\n      0x1f\n      add\n      0x20\n      dup1\n      swap2\n      div\n      mul\n      0x20\n      add\n      mload(0x40)\n      swap1\n      dup2\n      add\n      0x40\n      mstore\n      dup1\n      swap3\n      swap2\n      swap1\n      dup2\n      dup2\n      mstore\n      0x20\n      add\n      dup3\n      dup1\n      sload\n      tag_65\n      swap1\n      tag_54\n      jump\t// in\n    tag_65:\n      dup1\n      iszero\n      tag_66\n      jumpi\n      dup1\n      0x1f\n      lt\n      tag_67\n      jumpi\n      0x0100\n      dup1\n      dup4\n      sload\n      div\n      mul\n      dup4\n      mstore\n      swap2\n      0x20\n      add\n      swap2\n      jump(tag_66)\n    tag_67:\n      dup3\n      add\n      swap2\n      swap1\n      0x00\n      mstore\n      keccak256(0x00, 0x20)\n      swap1\n    tag_68:\n      dup2\n      sload\n      dup2\n      mstore\n      swap1\n      0x01\n      add\n      swap1\n      0x20\n      add\n      dup1\n      dup4\n      gt\n      tag_68\n      jumpi\n      dup3\n      swap1\n      sub\n      0x1f\n      and\n      dup3\n      add\n      swap2\n    tag_66:\n      pop\n      pop\n      pop\n      pop\n      pop\n      dup2\n      mstore\n      0x20\n      add\n      0x04\n      dup3\n      add\n      dup1\n      sload\n      tag_69\n      swap1\n      tag_54\n      jump\t// in\n    tag_69:\n      dup1\n      0x1f\n      add\n      0x20\n      dup1\n      swap2\n      div\n      mul\n      0x20\n      add\n      mload(0x40)\n      swap1\n      dup2\n      add\n      0x40\n      mstore\n      dup1\n      swap3\n      swap2\n      swap1\n      dup2\n      dup2\n      mstore\n      0x20\n      add\n      dup3\n      dup1\n      sload\n      tag_70\n      swap1\n      tag_54\n      jump\t// in\n    tag_70:\n      dup1\n      iszero\n      tag_71\n      jumpi\n      dup1\n      0x1f\n      lt\n      tag_72\n      jumpi\n      0x0100\n      dup1\n      dup4\n      sload\n      div\n      mul\n      dup4\n      mstore\n      swap2\n      0x20\n      add\n      swap2\n      jump(tag_71)\n    tag_72:\n      dup3\n      add\n      swap2\n      swap1\n      0x00\n      mstore\n      keccak256(0x00, 0x20)\n      swap1\n    tag_73:\n      dup2\n      sload\n      dup2\n      mstore\n      swap1\n      0x01\n      add\n      swap1\n      0x20\n      add\n      dup1\n      dup4\n      gt\n      tag_73\n      jumpi\n      dup3\n      swap1\n      sub\n      0x1f\n      and\n      dup3\n      add\n      swap2\n    tag_71:\n      pop\n      pop\n      pop\n      pop\n      pop\n      dup2\n      mstore\n      pop\n      pop\n      dup2\n      mstore\n      0x20\n      add\n      swap1\n      0x01\n      add\n      swap1\n      jump(tag_50)\n    tag_51:\n      pop\n      pop\n      pop\n      pop\n      swap1\n      pop\n        /* \"contracts/Colhoz.sol\":996:1082  function get_buyers() public view returns(User[] memory){... */\n      swap1\n      jump\t// out\n        /* \"contracts/Colhoz.sol\":1457:1552  function update_buyer(uint index,User memory user) public {... */\n    tag_30:\n        /* \"contracts/Colhoz.sol\":1541:1545  user */\n      dup1\n        /* \"contracts/Colhoz.sol\":1525:1531  buyers */\n      0x02\n        /* \"contracts/Colhoz.sol\":1532:1537  index */\n      dup4\n        /* \"contracts/Colhoz.sol\":1525:1538  buyers[index] */\n      dup2\n      sload\n      dup2\n      lt\n      tag_75\n      jumpi\n      tag_76\n      tag_77\n      jump\t// in\n    tag_76:\n    tag_75:\n      swap1\n      0x00\n      mstore\n      keccak256(0x00, 0x20)\n      swap1\n      0x05\n      mul\n      add\n        /* \"contracts/Colhoz.sol\":1525:1545  buyers[index] = user */\n      0x00\n      dup3\n      add\n      mload\n      dup2\n      0x00\n      add\n      exp(0x0100, 0x00)\n      dup2\n      sload\n      dup2\n      0xffffffffffffffffffffffffffffffffffffffff\n      mul\n      not\n      and\n      swap1\n      dup4\n      0xffffffffffffffffffffffffffffffffffffffff\n      and\n      mul\n      or\n      swap1\n      sstore\n      pop\n      0x20\n      dup3\n      add\n      mload\n      dup2\n      0x01\n      add\n      swap1\n      dup2\n      tag_79\n      swap2\n      swap1\n      tag_45\n      jump\t// in\n    tag_79:\n      pop\n      0x40\n      dup3\n      add\n      mload\n      dup2\n      0x02\n      add\n      swap1\n      dup2\n      tag_80\n      swap2\n      swap1\n      tag_45\n      jump\t// in\n    tag_80:\n      pop\n      0x60\n      dup3\n      add\n      mload\n      dup2\n      0x03\n      add\n      swap1\n      dup2\n      tag_81\n      swap2\n      swap1\n      tag_45\n      jump\t// in\n    tag_81:\n      pop\n      0x80\n      dup3\n      add\n      mload\n      dup2\n      0x04\n      add\n      swap1\n      dup2\n      tag_82\n      swap2\n      swap1\n      tag_45\n      jump\t// in\n    tag_82:\n      pop\n      swap1\n      pop\n      pop\n        /* \"contracts/Colhoz.sol\":1457:1552  function update_buyer(uint index,User memory user) public {... */\n      pop\n      pop\n      jump\t// out\n        /* \"contracts/Colhoz.sol\":825:910  function set_provider(address _provider) public {... */\n    tag_34:\n        /* \"contracts/Colhoz.sol\":894:903  _provider */\n      dup1\n        /* \"contracts/Colhoz.sol\":883:891  provider */\n      0x00\n      dup1\n        /* \"contracts/Colhoz.sol\":883:903  provider = _provider */\n      0x0100\n      exp\n      dup2\n      sload\n      dup2\n      0xffffffffffffffffffffffffffffffffffffffff\n      mul\n      not\n      and\n      swap1\n      dup4\n      0xffffffffffffffffffffffffffffffffffffffff\n      and\n      mul\n      or\n      swap1\n      sstore\n      pop\n        /* \"contracts/Colhoz.sol\":825:910  function set_provider(address _provider) public {... */\n      pop\n      jump\t// out\n        /* \"contracts/Colhoz.sol\":1373:1451  function remove_buyer(uint index) public {... */\n    tag_38:\n        /* \"contracts/Colhoz.sol\":1431:1437  buyers */\n      0x02\n        /* \"contracts/Colhoz.sol\":1438:1443  index */\n      dup2\n        /* \"contracts/Colhoz.sol\":1431:1444  buyers[index] */\n      dup2\n      sload\n      dup2\n      lt\n      tag_85\n      jumpi\n      tag_86\n      tag_77\n      jump\t// in\n    tag_86:\n    tag_85:\n      swap1\n      0x00\n      mstore\n      keccak256(0x00, 0x20)\n      swap1\n      0x05\n      mul\n      add\n      0x00\n        /* \"contracts/Colhoz.sol\":1424:1444  delete buyers[index] */\n      dup1\n      dup3\n      add\n      exp(0x0100, 0x00)\n      dup2\n      sload\n      swap1\n      0xffffffffffffffffffffffffffffffffffffffff\n      mul\n      not\n      and\n      swap1\n      sstore\n      0x01\n      dup3\n      add\n      0x00\n      tag_88\n      swap2\n      swap1\n      tag_89\n      jump\t// in\n    tag_88:\n      0x02\n      dup3\n      add\n      0x00\n      tag_90\n      swap2\n      swap1\n      tag_89\n      jump\t// in\n    tag_90:\n      0x03\n      dup3\n      add\n      0x00\n      tag_91\n      swap2\n      swap1\n      tag_89\n      jump\t// in\n    tag_91:\n      0x04\n      dup3\n      add\n      0x00\n      tag_92\n      swap2\n      swap1\n      tag_89\n      jump\t// in\n    tag_92:\n      pop\n      pop\n        /* \"contracts/Colhoz.sol\":1373:1451  function remove_buyer(uint index) public {... */\n      pop\n      jump\t// out\n        /* \"contracts/Colhoz.sol\":920:989  function set_bank(address _bank) public {... */\n    tag_41:\n        /* \"contracts/Colhoz.sol\":977:982  _bank */\n      dup1\n        /* \"contracts/Colhoz.sol\":970:974  bank */\n      0x01\n      0x00\n        /* \"contracts/Colhoz.sol\":970:982  bank = _bank */\n      0x0100\n      exp\n      dup2\n      sload\n      dup2\n      0xffffffffffffffffffffffffffffffffffffffff\n      mul\n      not\n      and\n      swap1\n      dup4\n      0xffffffffffffffffffffffffffffffffffffffff\n      and\n      mul\n      or\n      swap1\n      sstore\n      pop\n        /* \"contracts/Colhoz.sol\":920:989  function set_bank(address _bank) public {... */\n      pop\n      jump\t// out\n    tag_89:\n      pop\n      dup1\n      sload\n      tag_94\n      swap1\n      tag_54\n      jump\t// in\n    tag_94:\n      0x00\n      dup3\n      sstore\n      dup1\n      0x1f\n      lt\n      tag_96\n      jumpi\n      pop\n      jump(tag_95)\n    tag_96:\n      0x1f\n      add\n      0x20\n      swap1\n      div\n      swap1\n      0x00\n      mstore\n      keccak256(0x00, 0x20)\n      swap1\n      dup2\n      add\n      swap1\n      tag_97\n      swap2\n      swap1\n      tag_98\n      jump\t// in\n    tag_97:\n    tag_95:\n      pop\n      jump\t// out\n    tag_98:\n    tag_99:\n      dup1\n      dup3\n      gt\n      iszero\n      tag_100\n      jumpi\n      0x00\n      dup2\n      0x00\n      swap1\n      sstore\n      pop\n      0x01\n      add\n      jump(tag_99)\n    tag_100:\n      pop\n      swap1\n      jump\t// out\n        /* \"#utility.yul\":7:133   */\n    tag_101:\n        /* \"#utility.yul\":44:51   */\n      0x00\n        /* \"#utility.yul\":84:126   */\n      0xffffffffffffffffffffffffffffffffffffffff\n        /* \"#utility.yul\":77:82   */\n      dup3\n        /* \"#utility.yul\":73:127   */\n      and\n        /* \"#utility.yul\":62:127   */\n      swap1\n      pop\n        /* \"#utility.yul\":7:133   */\n      swap2\n      swap1\n      pop\n      jump\t// out\n        /* \"#utility.yul\":139:235   */\n    tag_102:\n        /* \"#utility.yul\":176:183   */\n      0x00\n        /* \"#utility.yul\":205:229   */\n      tag_156\n        /* \"#utility.yul\":223:228   */\n      dup3\n        /* \"#utility.yul\":205:229   */\n      tag_101\n      jump\t// in\n    tag_156:\n        /* \"#utility.yul\":194:229   */\n      swap1\n      pop\n        /* \"#utility.yul\":139:235   */\n      swap2\n      swap1\n      pop\n      jump\t// out\n        /* \"#utility.yul\":241:359   */\n    tag_103:\n        /* \"#utility.yul\":328:352   */\n      tag_158\n        /* \"#utility.yul\":346:351   */\n      dup2\n        /* \"#utility.yul\":328:352   */\n      tag_102\n      jump\t// in\n    tag_158:\n        /* \"#utility.yul\":323:326   */\n      dup3\n        /* \"#utility.yul\":316:353   */\n      mstore\n        /* \"#utility.yul\":241:359   */\n      pop\n      pop\n      jump\t// out\n        /* \"#utility.yul\":365:587   */\n    tag_15:\n        /* \"#utility.yul\":458:462   */\n      0x00\n        /* \"#utility.yul\":496:498   */\n      0x20\n        /* \"#utility.yul\":485:494   */\n      dup3\n        /* \"#utility.yul\":481:499   */\n      add\n        /* \"#utility.yul\":473:499   */\n      swap1\n      pop\n        /* \"#utility.yul\":509:580   */\n      tag_160\n        /* \"#utility.yul\":577:578   */\n      0x00\n        /* \"#utility.yul\":566:575   */\n      dup4\n        /* \"#utility.yul\":562:579   */\n      add\n        /* \"#utility.yul\":553:559   */\n      dup5\n        /* \"#utility.yul\":509:580   */\n      tag_103\n      jump\t// in\n    tag_160:\n        /* \"#utility.yul\":365:587   */\n      swap3\n      swap2\n      pop\n      pop\n      jump\t// out\n        /* \"#utility.yul\":593:668   */\n    tag_104:\n        /* \"#utility.yul\":626:632   */\n      0x00\n        /* \"#utility.yul\":659:661   */\n      0x40\n        /* \"#utility.yul\":653:662   */\n      mload\n        /* \"#utility.yul\":643:662   */\n      swap1\n      pop\n        /* \"#utility.yul\":593:668   */\n      swap1\n      jump\t// out\n        /* \"#utility.yul\":674:791   */\n    tag_105:\n        /* \"#utility.yul\":783:784   */\n      0x00\n        /* \"#utility.yul\":780:781   */\n      dup1\n        /* \"#utility.yul\":773:785   */\n      revert\n        /* \"#utility.yul\":797:914   */\n    tag_106:\n        /* \"#utility.yul\":906:907   */\n      0x00\n        /* \"#utility.yul\":903:904   */\n      dup1\n        /* \"#utility.yul\":896:908   */\n      revert\n        /* \"#utility.yul\":920:1042   */\n    tag_107:\n        /* \"#utility.yul\":993:1017   */\n      tag_165\n        /* \"#utility.yul\":1011:1016   */\n      dup2\n        /* \"#utility.yul\":993:1017   */\n      tag_102\n      jump\t// in\n    tag_165:\n        /* \"#utility.yul\":986:991   */\n      dup2\n        /* \"#utility.yul\":983:1018   */\n      eq\n        /* \"#utility.yul\":973:1036   */\n      tag_166\n      jumpi\n        /* \"#utility.yul\":1032:1033   */\n      0x00\n        /* \"#utility.yul\":1029:1030   */\n      dup1\n        /* \"#utility.yul\":1022:1034   */\n      revert\n        /* \"#utility.yul\":973:1036   */\n    tag_166:\n        /* \"#utility.yul\":920:1042   */\n      pop\n      jump\t// out\n        /* \"#utility.yul\":1048:1187   */\n    tag_108:\n        /* \"#utility.yul\":1094:1099   */\n      0x00\n        /* \"#utility.yul\":1132:1138   */\n      dup2\n        /* \"#utility.yul\":1119:1139   */\n      calldataload\n        /* \"#utility.yul\":1110:1139   */\n      swap1\n      pop\n        /* \"#utility.yul\":1148:1181   */\n      tag_168\n        /* \"#utility.yul\":1175:1180   */\n      dup2\n        /* \"#utility.yul\":1148:1181   */\n      tag_107\n      jump\t// in\n    tag_168:\n        /* \"#utility.yul\":1048:1187   */\n      swap3\n      swap2\n      pop\n      pop\n      jump\t// out\n        /* \"#utility.yul\":1193:1310   */\n    tag_109:\n        /* \"#utility.yul\":1302:1303   */\n      0x00\n        /* \"#utility.yul\":1299:1300   */\n      dup1\n        /* \"#utility.yul\":1292:1304   */\n      revert\n        /* \"#utility.yul\":1316:1433   */\n    tag_110:\n        /* \"#utility.yul\":1425:1426   */\n      0x00\n        /* \"#utility.yul\":1422:1423   */\n      dup1\n        /* \"#utility.yul\":1415:1427   */\n      revert\n        /* \"#utility.yul\":1439:1541   */\n    tag_111:\n        /* \"#utility.yul\":1480:1486   */\n      0x00\n        /* \"#utility.yul\":1531:1533   */\n      0x1f\n        /* \"#utility.yul\":1527:1534   */\n      not\n        /* \"#utility.yul\":1522:1524   */\n      0x1f\n        /* \"#utility.yul\":1515:1520   */\n      dup4\n        /* \"#utility.yul\":1511:1525   */\n      add\n        /* \"#utility.yul\":1507:1535   */\n      and\n        /* \"#utility.yul\":1497:1535   */\n      swap1\n      pop\n        /* \"#utility.yul\":1439:1541   */\n      swap2\n      swap1\n      pop\n      jump\t// out\n        /* \"#utility.yul\":1547:1727   */\n    tag_112:\n        /* \"#utility.yul\":1595:1672   */\n      0x4e487b7100000000000000000000000000000000000000000000000000000000\n        /* \"#utility.yul\":1592:1593   */\n      0x00\n        /* \"#utility.yul\":1585:1673   */\n      mstore\n        /* \"#utility.yul\":1692:1696   */\n      0x41\n        /* \"#utility.yul\":1689:1690   */\n      0x04\n        /* \"#utility.yul\":1682:1697   */\n      mstore\n        /* \"#utility.yul\":1716:1720   */\n      0x24\n        /* \"#utility.yul\":1713:1714   */\n      0x00\n        /* \"#utility.yul\":1706:1721   */\n      revert\n        /* \"#utility.yul\":1733:2014   */\n    tag_113:\n        /* \"#utility.yul\":1816:1843   */\n      tag_174\n        /* \"#utility.yul\":1838:1842   */\n      dup3\n        /* \"#utility.yul\":1816:1843   */\n      tag_111\n      jump\t// in\n    tag_174:\n        /* \"#utility.yul\":1808:1814   */\n      dup2\n        /* \"#utility.yul\":1804:1844   */\n      add\n        /* \"#utility.yul\":1946:1952   */\n      dup2\n        /* \"#utility.yul\":1934:1944   */\n      dup2\n        /* \"#utility.yul\":1931:1953   */\n      lt\n        /* \"#utility.yul\":1910:1928   */\n      0xffffffffffffffff\n        /* \"#utility.yul\":1898:1908   */\n      dup3\n        /* \"#utility.yul\":1895:1929   */\n      gt\n        /* \"#utility.yul\":1892:1954   */\n      or\n        /* \"#utility.yul\":1889:1977   */\n      iszero\n      tag_175\n      jumpi\n        /* \"#utility.yul\":1957:1975   */\n      tag_176\n      tag_112\n      jump\t// in\n    tag_176:\n        /* \"#utility.yul\":1889:1977   */\n    tag_175:\n        /* \"#utility.yul\":1997:2007   */\n      dup1\n        /* \"#utility.yul\":1993:1995   */\n      0x40\n        /* \"#utility.yul\":1986:2008   */\n      mstore\n        /* \"#utility.yul\":1776:2014   */\n      pop\n        /* \"#utility.yul\":1733:2014   */\n      pop\n      pop\n      jump\t// out\n        /* \"#utility.yul\":2020:2149   */\n    tag_114:\n        /* \"#utility.yul\":2054:2060   */\n      0x00\n        /* \"#utility.yul\":2081:2101   */\n      tag_178\n      tag_104\n      jump\t// in\n    tag_178:\n        /* \"#utility.yul\":2071:2101   */\n      swap1\n      pop\n        /* \"#utility.yul\":2110:2143   */\n      tag_179\n        /* \"#utility.yul\":2138:2142   */\n      dup3\n        /* \"#utility.yul\":2130:2136   */\n      dup3\n        /* \"#utility.yul\":2110:2143   */\n      tag_113\n      jump\t// in\n    tag_179:\n        /* \"#utility.yul\":2020:2149   */\n      swap2\n      swap1\n      pop\n      jump\t// out\n        /* \"#utility.yul\":2155:2463   */\n    tag_115:\n        /* \"#utility.yul\":2217:2221   */\n      0x00\n        /* \"#utility.yul\":2307:2325   */\n      0xffffffffffffffff\n        /* \"#utility.yul\":2299:2305   */\n      dup3\n        /* \"#utility.yul\":2296:2326   */\n      gt\n        /* \"#utility.yul\":2293:2349   */\n      iszero\n      tag_181\n      jumpi\n        /* \"#utility.yul\":2329:2347   */\n      tag_182\n      tag_112\n      jump\t// in\n    tag_182:\n        /* \"#utility.yul\":2293:2349   */\n    tag_181:\n        /* \"#utility.yul\":2367:2396   */\n      tag_183\n        /* \"#utility.yul\":2389:2395   */\n      dup3\n        /* \"#utility.yul\":2367:2396   */\n      tag_111\n      jump\t// in\n    tag_183:\n        /* \"#utility.yul\":2359:2396   */\n      swap1\n      pop\n        /* \"#utility.yul\":2451:2455   */\n      0x20\n        /* \"#utility.yul\":2445:2449   */\n      dup2\n        /* \"#utility.yul\":2441:2456   */\n      add\n        /* \"#utility.yul\":2433:2456   */\n      swap1\n      pop\n        /* \"#utility.yul\":2155:2463   */\n      swap2\n      swap1\n      pop\n      jump\t// out\n        /* \"#utility.yul\":2469:2615   */\n    tag_116:\n        /* \"#utility.yul\":2566:2572   */\n      dup3\n        /* \"#utility.yul\":2561:2564   */\n      dup2\n        /* \"#utility.yul\":2556:2559   */\n      dup4\n        /* \"#utility.yul\":2543:2573   */\n      calldatacopy\n        /* \"#utility.yul\":2607:2608   */\n      0x00\n        /* \"#utility.yul\":2598:2604   */\n      dup4\n        /* \"#utility.yul\":2593:2596   */\n      dup4\n        /* \"#utility.yul\":2589:2605   */\n      add\n        /* \"#utility.yul\":2582:2609   */\n      mstore\n        /* \"#utility.yul\":2469:2615   */\n      pop\n      pop\n      pop\n      jump\t// out\n        /* \"#utility.yul\":2621:3046   */\n    tag_117:\n        /* \"#utility.yul\":2699:2704   */\n      0x00\n        /* \"#utility.yul\":2724:2790   */\n      tag_186\n        /* \"#utility.yul\":2740:2789   */\n      tag_187\n        /* \"#utility.yul\":2782:2788   */\n      dup5\n        /* \"#utility.yul\":2740:2789   */\n      tag_115\n      jump\t// in\n    tag_187:\n        /* \"#utility.yul\":2724:2790   */\n      tag_114\n      jump\t// in\n    tag_186:\n        /* \"#utility.yul\":2715:2790   */\n      swap1\n      pop\n        /* \"#utility.yul\":2813:2819   */\n      dup3\n        /* \"#utility.yul\":2806:2811   */\n      dup2\n        /* \"#utility.yul\":2799:2820   */\n      mstore\n        /* \"#utility.yul\":2851:2855   */\n      0x20\n        /* \"#utility.yul\":2844:2849   */\n      dup2\n        /* \"#utility.yul\":2840:2856   */\n      add\n        /* \"#utility.yul\":2889:2892   */\n      dup5\n        /* \"#utility.yul\":2880:2886   */\n      dup5\n        /* \"#utility.yul\":2875:2878   */\n      dup5\n        /* \"#utility.yul\":2871:2887   */\n      add\n        /* \"#utility.yul\":2868:2893   */\n      gt\n        /* \"#utility.yul\":2865:2977   */\n      iszero\n      tag_188\n      jumpi\n        /* \"#utility.yul\":2896:2975   */\n      tag_189\n      tag_110\n      jump\t// in\n    tag_189:\n        /* \"#utility.yul\":2865:2977   */\n    tag_188:\n        /* \"#utility.yul\":2986:3040   */\n      tag_190\n        /* \"#utility.yul\":3033:3039   */\n      dup5\n        /* \"#utility.yul\":3028:3031   */\n      dup3\n        /* \"#utility.yul\":3023:3026   */\n      dup6\n        /* \"#utility.yul\":2986:3040   */\n      tag_116\n      jump\t// in\n    tag_190:\n        /* \"#utility.yul\":2705:3046   */\n      pop\n        /* \"#utility.yul\":2621:3046   */\n      swap4\n      swap3\n      pop\n      pop\n      pop\n      jump\t// out\n        /* \"#utility.yul\":3066:3406   */\n    tag_118:\n        /* \"#utility.yul\":3122:3127   */\n      0x00\n        /* \"#utility.yul\":3171:3174   */\n      dup3\n        /* \"#utility.yul\":3164:3168   */\n      0x1f\n        /* \"#utility.yul\":3156:3162   */\n      dup4\n        /* \"#utility.yul\":3152:3169   */\n      add\n        /* \"#utility.yul\":3148:3175   */\n      slt\n        /* \"#utility.yul\":3138:3260   */\n      tag_192\n      jumpi\n        /* \"#utility.yul\":3179:3258   */\n      tag_193\n      tag_109\n      jump\t// in\n    tag_193:\n        /* \"#utility.yul\":3138:3260   */\n    tag_192:\n        /* \"#utility.yul\":3296:3302   */\n      dup2\n        /* \"#utility.yul\":3283:3303   */\n      calldataload\n        /* \"#utility.yul\":3321:3400   */\n      tag_194\n        /* \"#utility.yul\":3396:3399   */\n      dup5\n        /* \"#utility.yul\":3388:3394   */\n      dup3\n        /* \"#utility.yul\":3381:3385   */\n      0x20\n        /* \"#utility.yul\":3373:3379   */\n      dup7\n        /* \"#utility.yul\":3369:3386   */\n      add\n        /* \"#utility.yul\":3321:3400   */\n      tag_117\n      jump\t// in\n    tag_194:\n        /* \"#utility.yul\":3312:3400   */\n      swap2\n      pop\n        /* \"#utility.yul\":3128:3406   */\n      pop\n        /* \"#utility.yul\":3066:3406   */\n      swap3\n      swap2\n      pop\n      pop\n      jump\t// out\n        /* \"#utility.yul\":3412:5043   */\n    tag_18:\n        /* \"#utility.yul\":3547:3553   */\n      0x00\n        /* \"#utility.yul\":3555:3561   */\n      dup1\n        /* \"#utility.yul\":3563:3569   */\n      0x00\n        /* \"#utility.yul\":3571:3577   */\n      dup1\n        /* \"#utility.yul\":3579:3585   */\n      0x00\n        /* \"#utility.yul\":3628:3631   */\n      0xa0\n        /* \"#utility.yul\":3616:3625   */\n      dup7\n        /* \"#utility.yul\":3607:3614   */\n      dup9\n        /* \"#utility.yul\":3603:3626   */\n      sub\n        /* \"#utility.yul\":3599:3632   */\n      slt\n        /* \"#utility.yul\":3596:3716   */\n      iszero\n      tag_196\n      jumpi\n        /* \"#utility.yul\":3635:3714   */\n      tag_197\n      tag_105\n      jump\t// in\n    tag_197:\n        /* \"#utility.yul\":3596:3716   */\n    tag_196:\n        /* \"#utility.yul\":3755:3756   */\n      0x00\n        /* \"#utility.yul\":3780:3833   */\n      tag_198\n        /* \"#utility.yul\":3825:3832   */\n      dup9\n        /* \"#utility.yul\":3816:3822   */\n      dup3\n        /* \"#utility.yul\":3805:3814   */\n      dup10\n        /* \"#utility.yul\":3801:3823   */\n      add\n        /* \"#utility.yul\":3780:3833   */\n      tag_108\n      jump\t// in\n    tag_198:\n        /* \"#utility.yul\":3770:3833   */\n      swap6\n      pop\n        /* \"#utility.yul\":3726:3843   */\n      pop\n        /* \"#utility.yul\":3910:3912   */\n      0x20\n        /* \"#utility.yul\":3899:3908   */\n      dup7\n        /* \"#utility.yul\":3895:3913   */\n      add\n        /* \"#utility.yul\":3882:3914   */\n      calldataload\n        /* \"#utility.yul\":3941:3959   */\n      0xffffffffffffffff\n        /* \"#utility.yul\":3933:3939   */\n      dup2\n        /* \"#utility.yul\":3930:3960   */\n      gt\n        /* \"#utility.yul\":3927:4044   */\n      iszero\n      tag_199\n      jumpi\n        /* \"#utility.yul\":3963:4042   */\n      tag_200\n      tag_106\n      jump\t// in\n    tag_200:\n        /* \"#utility.yul\":3927:4044   */\n    tag_199:\n        /* \"#utility.yul\":4068:4131   */\n      tag_201\n        /* \"#utility.yul\":4123:4130   */\n      dup9\n        /* \"#utility.yul\":4114:4120   */\n      dup3\n        /* \"#utility.yul\":4103:4112   */\n      dup10\n        /* \"#utility.yul\":4099:4121   */\n      add\n        /* \"#utility.yul\":4068:4131   */\n      tag_118\n      jump\t// in\n    tag_201:\n        /* \"#utility.yul\":4058:4131   */\n      swap5\n      pop\n        /* \"#utility.yul\":3853:4141   */\n      pop\n        /* \"#utility.yul\":4208:4210   */\n      0x40\n        /* \"#utility.yul\":4197:4206   */\n      dup7\n        /* \"#utility.yul\":4193:4211   */\n      add\n        /* \"#utility.yul\":4180:4212   */\n      calldataload\n        /* \"#utility.yul\":4239:4257   */\n      0xffffffffffffffff\n        /* \"#utility.yul\":4231:4237   */\n      dup2\n        /* \"#utility.yul\":4228:4258   */\n      gt\n        /* \"#utility.yul\":4225:4342   */\n      iszero\n      tag_202\n      jumpi\n        /* \"#utility.yul\":4261:4340   */\n      tag_203\n      tag_106\n      jump\t// in\n    tag_203:\n        /* \"#utility.yul\":4225:4342   */\n    tag_202:\n        /* \"#utility.yul\":4366:4429   */\n      tag_204\n        /* \"#utility.yul\":4421:4428   */\n      dup9\n        /* \"#utility.yul\":4412:4418   */\n      dup3\n        /* \"#utility.yul\":4401:4410   */\n      dup10\n        /* \"#utility.yul\":4397:4419   */\n      add\n        /* \"#utility.yul\":4366:4429   */\n      tag_118\n      jump\t// in\n    tag_204:\n        /* \"#utility.yul\":4356:4429   */\n      swap4\n      pop\n        /* \"#utility.yul\":4151:4439   */\n      pop\n        /* \"#utility.yul\":4506:4508   */\n      0x60\n        /* \"#utility.yul\":4495:4504   */\n      dup7\n        /* \"#utility.yul\":4491:4509   */\n      add\n        /* \"#utility.yul\":4478:4510   */\n      calldataload\n        /* \"#utility.yul\":4537:4555   */\n      0xffffffffffffffff\n        /* \"#utility.yul\":4529:4535   */\n      dup2\n        /* \"#utility.yul\":4526:4556   */\n      gt\n        /* \"#utility.yul\":4523:4640   */\n      iszero\n      tag_205\n      jumpi\n        /* \"#utility.yul\":4559:4638   */\n      tag_206\n      tag_106\n      jump\t// in\n    tag_206:\n        /* \"#utility.yul\":4523:4640   */\n    tag_205:\n        /* \"#utility.yul\":4664:4727   */\n      tag_207\n        /* \"#utility.yul\":4719:4726   */\n      dup9\n        /* \"#utility.yul\":4710:4716   */\n      dup3\n        /* \"#utility.yul\":4699:4708   */\n      dup10\n        /* \"#utility.yul\":4695:4717   */\n      add\n        /* \"#utility.yul\":4664:4727   */\n      tag_118\n      jump\t// in\n    tag_207:\n        /* \"#utility.yul\":4654:4727   */\n      swap3\n      pop\n        /* \"#utility.yul\":4449:4737   */\n      pop\n        /* \"#utility.yul\":4804:4807   */\n      0x80\n        /* \"#utility.yul\":4793:4802   */\n      dup7\n        /* \"#utility.yul\":4789:4808   */\n      add\n        /* \"#utility.yul\":4776:4809   */\n      calldataload\n        /* \"#utility.yul\":4836:4854   */\n      0xffffffffffffffff\n        /* \"#utility.yul\":4828:4834   */\n      dup2\n        /* \"#utility.yul\":4825:4855   */\n      gt\n        /* \"#utility.yul\":4822:4939   */\n      iszero\n      tag_208\n      jumpi\n        /* \"#utility.yul\":4858:4937   */\n      tag_209\n      tag_106\n      jump\t// in\n    tag_209:\n        /* \"#utility.yul\":4822:4939   */\n    tag_208:\n        /* \"#utility.yul\":4963:5026   */\n      tag_210\n        /* \"#utility.yul\":5018:5025   */\n      dup9\n        /* \"#utility.yul\":5009:5015   */\n      dup3\n        /* \"#utility.yul\":4998:5007   */\n      dup10\n        /* \"#utility.yul\":4994:5016   */\n      add\n        /* \"#utility.yul\":4963:5026   */\n      tag_118\n      jump\t// in\n    tag_210:\n        /* \"#utility.yul\":4953:5026   */\n      swap2\n      pop\n        /* \"#utility.yul\":4747:5036   */\n      pop\n        /* \"#utility.yul\":3412:5043   */\n      swap3\n      swap6\n      pop\n      swap3\n      swap6\n      swap1\n      swap4\n      pop\n      jump\t// out\n        /* \"#utility.yul\":5049:5183   */\n    tag_119:\n        /* \"#utility.yul\":5136:5142   */\n      0x00\n        /* \"#utility.yul\":5170:5175   */\n      dup2\n        /* \"#utility.yul\":5164:5176   */\n      mload\n        /* \"#utility.yul\":5154:5176   */\n      swap1\n      pop\n        /* \"#utility.yul\":5049:5183   */\n      swap2\n      swap1\n      pop\n      jump\t// out\n        /* \"#utility.yul\":5189:5393   */\n    tag_120:\n        /* \"#utility.yul\":5308:5319   */\n      0x00\n        /* \"#utility.yul\":5342:5348   */\n      dup3\n        /* \"#utility.yul\":5337:5340   */\n      dup3\n        /* \"#utility.yul\":5330:5349   */\n      mstore\n        /* \"#utility.yul\":5382:5386   */\n      0x20\n        /* \"#utility.yul\":5377:5380   */\n      dup3\n        /* \"#utility.yul\":5373:5387   */\n      add\n        /* \"#utility.yul\":5358:5387   */\n      swap1\n      pop\n        /* \"#utility.yul\":5189:5393   */\n      swap3\n      swap2\n      pop\n      pop\n      jump\t// out\n        /* \"#utility.yul\":5399:5551   */\n    tag_121:\n        /* \"#utility.yul\":5486:5490   */\n      0x00\n        /* \"#utility.yul\":5509:5512   */\n      dup2\n        /* \"#utility.yul\":5501:5512   */\n      swap1\n      pop\n        /* \"#utility.yul\":5539:5543   */\n      0x20\n        /* \"#utility.yul\":5534:5537   */\n      dup3\n        /* \"#utility.yul\":5530:5544   */\n      add\n        /* \"#utility.yul\":5522:5544   */\n      swap1\n      pop\n        /* \"#utility.yul\":5399:5551   */\n      swap2\n      swap1\n      pop\n      jump\t// out\n        /* \"#utility.yul\":5557:5665   */\n    tag_122:\n        /* \"#utility.yul\":5634:5658   */\n      tag_215\n        /* \"#utility.yul\":5652:5657   */\n      dup2\n        /* \"#utility.yul\":5634:5658   */\n      tag_102\n      jump\t// in\n    tag_215:\n        /* \"#utility.yul\":5629:5632   */\n      dup3\n        /* \"#utility.yul\":5622:5659   */\n      mstore\n        /* \"#utility.yul\":5557:5665   */\n      pop\n      pop\n      jump\t// out\n        /* \"#utility.yul\":5671:5770   */\n    tag_123:\n        /* \"#utility.yul\":5723:5729   */\n      0x00\n        /* \"#utility.yul\":5757:5762   */\n      dup2\n        /* \"#utility.yul\":5751:5763   */\n      mload\n        /* \"#utility.yul\":5741:5763   */\n      swap1\n      pop\n        /* \"#utility.yul\":5671:5770   */\n      swap2\n      swap1\n      pop\n      jump\t// out\n        /* \"#utility.yul\":5776:5935   */\n    tag_124:\n        /* \"#utility.yul\":5850:5861   */\n      0x00\n        /* \"#utility.yul\":5884:5890   */\n      dup3\n        /* \"#utility.yul\":5879:5882   */\n      dup3\n        /* \"#utility.yul\":5872:5891   */\n      mstore\n        /* \"#utility.yul\":5924:5928   */\n      0x20\n        /* \"#utility.yul\":5919:5922   */\n      dup3\n        /* \"#utility.yul\":5915:5929   */\n      add\n        /* \"#utility.yul\":5900:5929   */\n      swap1\n      pop\n        /* \"#utility.yul\":5776:5935   */\n      swap3\n      swap2\n      pop\n      pop\n      jump\t// out\n        /* \"#utility.yul\":5941:6187   */\n    tag_125:\n        /* \"#utility.yul\":6022:6023   */\n      0x00\n        /* \"#utility.yul\":6032:6145   */\n    tag_219:\n        /* \"#utility.yul\":6046:6052   */\n      dup4\n        /* \"#utility.yul\":6043:6044   */\n      dup2\n        /* \"#utility.yul\":6040:6053   */\n      lt\n        /* \"#utility.yul\":6032:6145   */\n      iszero\n      tag_221\n      jumpi\n        /* \"#utility.yul\":6131:6132   */\n      dup1\n        /* \"#utility.yul\":6126:6129   */\n      dup3\n        /* \"#utility.yul\":6122:6133   */\n      add\n        /* \"#utility.yul\":6116:6134   */\n      mload\n        /* \"#utility.yul\":6112:6113   */\n      dup2\n        /* \"#utility.yul\":6107:6110   */\n      dup5\n        /* \"#utility.yul\":6103:6114   */\n      add\n        /* \"#utility.yul\":6096:6135   */\n      mstore\n        /* \"#utility.yul\":6068:6070   */\n      0x20\n        /* \"#utility.yul\":6065:6066   */\n      dup2\n        /* \"#utility.yul\":6061:6071   */\n      add\n        /* \"#utility.yul\":6056:6071   */\n      swap1\n      pop\n        /* \"#utility.yul\":6032:6145   */\n      jump(tag_219)\n    tag_221:\n        /* \"#utility.yul\":6179:6180   */\n      0x00\n        /* \"#utility.yul\":6170:6176   */\n      dup5\n        /* \"#utility.yul\":6165:6168   */\n      dup5\n        /* \"#utility.yul\":6161:6177   */\n      add\n        /* \"#utility.yul\":6154:6181   */\n      mstore\n        /* \"#utility.yul\":6003:6187   */\n      pop\n        /* \"#utility.yul\":5941:6187   */\n      pop\n      pop\n      pop\n      jump\t// out\n        /* \"#utility.yul\":6193:6550   */\n    tag_126:\n        /* \"#utility.yul\":6271:6274   */\n      0x00\n        /* \"#utility.yul\":6299:6338   */\n      tag_223\n        /* \"#utility.yul\":6332:6337   */\n      dup3\n        /* \"#utility.yul\":6299:6338   */\n      tag_123\n      jump\t// in\n    tag_223:\n        /* \"#utility.yul\":6354:6415   */\n      tag_224\n        /* \"#utility.yul\":6408:6414   */\n      dup2\n        /* \"#utility.yul\":6403:6406   */\n      dup6\n        /* \"#utility.yul\":6354:6415   */\n      tag_124\n      jump\t// in\n    tag_224:\n        /* \"#utility.yul\":6347:6415   */\n      swap4\n      pop\n        /* \"#utility.yul\":6424:6489   */\n      tag_225\n        /* \"#utility.yul\":6482:6488   */\n      dup2\n        /* \"#utility.yul\":6477:6480   */\n      dup6\n        /* \"#utility.yul\":6470:6474   */\n      0x20\n        /* \"#utility.yul\":6463:6468   */\n      dup7\n        /* \"#utility.yul\":6459:6475   */\n      add\n        /* \"#utility.yul\":6424:6489   */\n      tag_125\n      jump\t// in\n    tag_225:\n        /* \"#utility.yul\":6514:6543   */\n      tag_226\n        /* \"#utility.yul\":6536:6542   */\n      dup2\n        /* \"#utility.yul\":6514:6543   */\n      tag_111\n      jump\t// in\n    tag_226:\n        /* \"#utility.yul\":6509:6512   */\n      dup5\n        /* \"#utility.yul\":6505:6544   */\n      add\n        /* \"#utility.yul\":6498:6544   */\n      swap2\n      pop\n        /* \"#utility.yul\":6275:6550   */\n      pop\n        /* \"#utility.yul\":6193:6550   */\n      swap3\n      swap2\n      pop\n      pop\n      jump\t// out\n        /* \"#utility.yul\":6590:7921   */\n    tag_127:\n        /* \"#utility.yul\":6689:6692   */\n      0x00\n        /* \"#utility.yul\":6725:6729   */\n      0xa0\n        /* \"#utility.yul\":6720:6723   */\n      dup4\n        /* \"#utility.yul\":6716:6730   */\n      add\n        /* \"#utility.yul\":6816:6820   */\n      0x00\n        /* \"#utility.yul\":6809:6814   */\n      dup4\n        /* \"#utility.yul\":6805:6821   */\n      add\n        /* \"#utility.yul\":6799:6822   */\n      mload\n        /* \"#utility.yul\":6835:6898   */\n      tag_228\n        /* \"#utility.yul\":6892:6896   */\n      0x00\n        /* \"#utility.yul\":6887:6890   */\n      dup7\n        /* \"#utility.yul\":6883:6897   */\n      add\n        /* \"#utility.yul\":6869:6881   */\n      dup3\n        /* \"#utility.yul\":6835:6898   */\n      tag_122\n      jump\t// in\n    tag_228:\n        /* \"#utility.yul\":6740:6908   */\n      pop\n        /* \"#utility.yul\":6991:6995   */\n      0x20\n        /* \"#utility.yul\":6984:6989   */\n      dup4\n        /* \"#utility.yul\":6980:6996   */\n      add\n        /* \"#utility.yul\":6974:6997   */\n      mload\n        /* \"#utility.yul\":7044:7047   */\n      dup5\n        /* \"#utility.yul\":7038:7042   */\n      dup3\n        /* \"#utility.yul\":7034:7048   */\n      sub\n        /* \"#utility.yul\":7027:7031   */\n      0x20\n        /* \"#utility.yul\":7022:7025   */\n      dup7\n        /* \"#utility.yul\":7018:7032   */\n      add\n        /* \"#utility.yul\":7011:7049   */\n      mstore\n        /* \"#utility.yul\":7070:7143   */\n      tag_229\n        /* \"#utility.yul\":7138:7142   */\n      dup3\n        /* \"#utility.yul\":7124:7136   */\n      dup3\n        /* \"#utility.yul\":7070:7143   */\n      tag_126\n      jump\t// in\n    tag_229:\n        /* \"#utility.yul\":7062:7143   */\n      swap2\n      pop\n        /* \"#utility.yul\":6918:7154   */\n      pop\n        /* \"#utility.yul\":7240:7244   */\n      0x40\n        /* \"#utility.yul\":7233:7238   */\n      dup4\n        /* \"#utility.yul\":7229:7245   */\n      add\n        /* \"#utility.yul\":7223:7246   */\n      mload\n        /* \"#utility.yul\":7293:7296   */\n      dup5\n        /* \"#utility.yul\":7287:7291   */\n      dup3\n        /* \"#utility.yul\":7283:7297   */\n      sub\n        /* \"#utility.yul\":7276:7280   */\n      0x40\n        /* \"#utility.yul\":7271:7274   */\n      dup7\n        /* \"#utility.yul\":7267:7281   */\n      add\n        /* \"#utility.yul\":7260:7298   */\n      mstore\n        /* \"#utility.yul\":7319:7392   */\n      tag_230\n        /* \"#utility.yul\":7387:7391   */\n      dup3\n        /* \"#utility.yul\":7373:7385   */\n      dup3\n        /* \"#utility.yul\":7319:7392   */\n      tag_126\n      jump\t// in\n    tag_230:\n        /* \"#utility.yul\":7311:7392   */\n      swap2\n      pop\n        /* \"#utility.yul\":7164:7403   */\n      pop\n        /* \"#utility.yul\":7484:7488   */\n      0x60\n        /* \"#utility.yul\":7477:7482   */\n      dup4\n        /* \"#utility.yul\":7473:7489   */\n      add\n        /* \"#utility.yul\":7467:7490   */\n      mload\n        /* \"#utility.yul\":7537:7540   */\n      dup5\n        /* \"#utility.yul\":7531:7535   */\n      dup3\n        /* \"#utility.yul\":7527:7541   */\n      sub\n        /* \"#utility.yul\":7520:7524   */\n      0x60\n        /* \"#utility.yul\":7515:7518   */\n      dup7\n        /* \"#utility.yul\":7511:7525   */\n      add\n        /* \"#utility.yul\":7504:7542   */\n      mstore\n        /* \"#utility.yul\":7563:7636   */\n      tag_231\n        /* \"#utility.yul\":7631:7635   */\n      dup3\n        /* \"#utility.yul\":7617:7629   */\n      dup3\n        /* \"#utility.yul\":7563:7636   */\n      tag_126\n      jump\t// in\n    tag_231:\n        /* \"#utility.yul\":7555:7636   */\n      swap2\n      pop\n        /* \"#utility.yul\":7413:7647   */\n      pop\n        /* \"#utility.yul\":7731:7735   */\n      0x80\n        /* \"#utility.yul\":7724:7729   */\n      dup4\n        /* \"#utility.yul\":7720:7736   */\n      add\n        /* \"#utility.yul\":7714:7737   */\n      mload\n        /* \"#utility.yul\":7784:7787   */\n      dup5\n        /* \"#utility.yul\":7778:7782   */\n      dup3\n        /* \"#utility.yul\":7774:7788   */\n      sub\n        /* \"#utility.yul\":7767:7771   */\n      0x80\n        /* \"#utility.yul\":7762:7765   */\n      dup7\n        /* \"#utility.yul\":7758:7772   */\n      add\n        /* \"#utility.yul\":7751:7789   */\n      mstore\n        /* \"#utility.yul\":7810:7883   */\n      tag_232\n        /* \"#utility.yul\":7878:7882   */\n      dup3\n        /* \"#utility.yul\":7864:7876   */\n      dup3\n        /* \"#utility.yul\":7810:7883   */\n      tag_126\n      jump\t// in\n    tag_232:\n        /* \"#utility.yul\":7802:7883   */\n      swap2\n      pop\n        /* \"#utility.yul\":7657:7894   */\n      pop\n        /* \"#utility.yul\":7911:7915   */\n      dup1\n        /* \"#utility.yul\":7904:7915   */\n      swap2\n      pop\n        /* \"#utility.yul\":6694:7921   */\n      pop\n        /* \"#utility.yul\":6590:7921   */\n      swap3\n      swap2\n      pop\n      pop\n      jump\t// out\n        /* \"#utility.yul\":7927:8163   */\n    tag_128:\n        /* \"#utility.yul\":8036:8046   */\n      0x00\n        /* \"#utility.yul\":8071:8157   */\n      tag_234\n        /* \"#utility.yul\":8153:8156   */\n      dup4\n        /* \"#utility.yul\":8145:8151   */\n      dup4\n        /* \"#utility.yul\":8071:8157   */\n      tag_127\n      jump\t// in\n    tag_234:\n        /* \"#utility.yul\":8057:8157   */\n      swap1\n      pop\n        /* \"#utility.yul\":7927:8163   */\n      swap3\n      swap2\n      pop\n      pop\n      jump\t// out\n        /* \"#utility.yul\":8169:8302   */\n    tag_129:\n        /* \"#utility.yul\":8259:8263   */\n      0x00\n        /* \"#utility.yul\":8291:8295   */\n      0x20\n        /* \"#utility.yul\":8286:8289   */\n      dup3\n        /* \"#utility.yul\":8282:8296   */\n      add\n        /* \"#utility.yul\":8274:8296   */\n      swap1\n      pop\n        /* \"#utility.yul\":8169:8302   */\n      swap2\n      swap1\n      pop\n      jump\t// out\n        /* \"#utility.yul\":8346:9417   */\n    tag_130:\n        /* \"#utility.yul\":8505:8508   */\n      0x00\n        /* \"#utility.yul\":8534:8608   */\n      tag_237\n        /* \"#utility.yul\":8602:8607   */\n      dup3\n        /* \"#utility.yul\":8534:8608   */\n      tag_119\n      jump\t// in\n    tag_237:\n        /* \"#utility.yul\":8624:8730   */\n      tag_238\n        /* \"#utility.yul\":8723:8729   */\n      dup2\n        /* \"#utility.yul\":8718:8721   */\n      dup6\n        /* \"#utility.yul\":8624:8730   */\n      tag_120\n      jump\t// in\n    tag_238:\n        /* \"#utility.yul\":8617:8730   */\n      swap4\n      pop\n        /* \"#utility.yul\":8756:8759   */\n      dup4\n        /* \"#utility.yul\":8801:8805   */\n      0x20\n        /* \"#utility.yul\":8793:8799   */\n      dup3\n        /* \"#utility.yul\":8789:8806   */\n      mul\n        /* \"#utility.yul\":8784:8787   */\n      dup6\n        /* \"#utility.yul\":8780:8807   */\n      add\n        /* \"#utility.yul\":8831:8907   */\n      tag_239\n        /* \"#utility.yul\":8901:8906   */\n      dup6\n        /* \"#utility.yul\":8831:8907   */\n      tag_121\n      jump\t// in\n    tag_239:\n        /* \"#utility.yul\":8930:8937   */\n      dup1\n        /* \"#utility.yul\":8961:8962   */\n      0x00\n        /* \"#utility.yul\":8946:9372   */\n    tag_240:\n        /* \"#utility.yul\":8971:8977   */\n      dup6\n        /* \"#utility.yul\":8968:8969   */\n      dup2\n        /* \"#utility.yul\":8965:8978   */\n      lt\n        /* \"#utility.yul\":8946:9372   */\n      iszero\n      tag_242\n      jumpi\n        /* \"#utility.yul\":9042:9051   */\n      dup5\n        /* \"#utility.yul\":9036:9040   */\n      dup5\n        /* \"#utility.yul\":9032:9052   */\n      sub\n        /* \"#utility.yul\":9027:9030   */\n      dup10\n        /* \"#utility.yul\":9020:9053   */\n      mstore\n        /* \"#utility.yul\":9093:9099   */\n      dup2\n        /* \"#utility.yul\":9087:9100   */\n      mload\n        /* \"#utility.yul\":9121:9225   */\n      tag_243\n        /* \"#utility.yul\":9220:9224   */\n      dup6\n        /* \"#utility.yul\":9205:9218   */\n      dup3\n        /* \"#utility.yul\":9121:9225   */\n      tag_128\n      jump\t// in\n    tag_243:\n        /* \"#utility.yul\":9113:9225   */\n      swap5\n      pop\n        /* \"#utility.yul\":9248:9328   */\n      tag_244\n        /* \"#utility.yul\":9321:9327   */\n      dup4\n        /* \"#utility.yul\":9248:9328   */\n      tag_129\n      jump\t// in\n    tag_244:\n        /* \"#utility.yul\":9238:9328   */\n      swap3\n      pop\n        /* \"#utility.yul\":9357:9361   */\n      0x20\n        /* \"#utility.yul\":9352:9355   */\n      dup11\n        /* \"#utility.yul\":9348:9362   */\n      add\n        /* \"#utility.yul\":9341:9362   */\n      swap10\n      pop\n        /* \"#utility.yul\":9006:9372   */\n      pop\n        /* \"#utility.yul\":8993:8994   */\n      0x01\n        /* \"#utility.yul\":8990:8991   */\n      dup2\n        /* \"#utility.yul\":8986:8995   */\n      add\n        /* \"#utility.yul\":8981:8995   */\n      swap1\n      pop\n        /* \"#utility.yul\":8946:9372   */\n      jump(tag_240)\n    tag_242:\n        /* \"#utility.yul\":8950:8964   */\n      pop\n        /* \"#utility.yul\":9388:9392   */\n      dup3\n        /* \"#utility.yul\":9381:9392   */\n      swap8\n      pop\n        /* \"#utility.yul\":9408:9411   */\n      dup8\n        /* \"#utility.yul\":9401:9411   */\n      swap6\n      pop\n        /* \"#utility.yul\":8510:9417   */\n      pop\n      pop\n      pop\n      pop\n      pop\n        /* \"#utility.yul\":8346:9417   */\n      swap3\n      swap2\n      pop\n      pop\n      jump\t// out\n        /* \"#utility.yul\":9423:9876   */\n    tag_26:\n        /* \"#utility.yul\":9606:9610   */\n      0x00\n        /* \"#utility.yul\":9644:9646   */\n      0x20\n        /* \"#utility.yul\":9633:9642   */\n      dup3\n        /* \"#utility.yul\":9629:9647   */\n      add\n        /* \"#utility.yul\":9621:9647   */\n      swap1\n      pop\n        /* \"#utility.yul\":9693:9702   */\n      dup2\n        /* \"#utility.yul\":9687:9691   */\n      dup2\n        /* \"#utility.yul\":9683:9703   */\n      sub\n        /* \"#utility.yul\":9679:9680   */\n      0x00\n        /* \"#utility.yul\":9668:9677   */\n      dup4\n        /* \"#utility.yul\":9664:9681   */\n      add\n        /* \"#utility.yul\":9657:9704   */\n      mstore\n        /* \"#utility.yul\":9721:9869   */\n      tag_246\n        /* \"#utility.yul\":9864:9868   */\n      dup2\n        /* \"#utility.yul\":9855:9861   */\n      dup5\n        /* \"#utility.yul\":9721:9869   */\n      tag_130\n      jump\t// in\n    tag_246:\n        /* \"#utility.yul\":9713:9869   */\n      swap1\n      pop\n        /* \"#utility.yul\":9423:9876   */\n      swap3\n      swap2\n      pop\n      pop\n      jump\t// out\n        /* \"#utility.yul\":9882:9959   */\n    tag_131:\n        /* \"#utility.yul\":9919:9926   */\n      0x00\n        /* \"#utility.yul\":9948:9953   */\n      dup2\n        /* \"#utility.yul\":9937:9953   */\n      swap1\n      pop\n        /* \"#utility.yul\":9882:9959   */\n      swap2\n      swap1\n      pop\n      jump\t// out\n        /* \"#utility.yul\":9965:10087   */\n    tag_132:\n        /* \"#utility.yul\":10038:10062   */\n      tag_249\n        /* \"#utility.yul\":10056:10061   */\n      dup2\n        /* \"#utility.yul\":10038:10062   */\n      tag_131\n      jump\t// in\n    tag_249:\n        /* \"#utility.yul\":10031:10036   */\n      dup2\n        /* \"#utility.yul\":10028:10063   */\n      eq\n        /* \"#utility.yul\":10018:10081   */\n      tag_250\n      jumpi\n        /* \"#utility.yul\":10077:10078   */\n      0x00\n        /* \"#utility.yul\":10074:10075   */\n      dup1\n        /* \"#utility.yul\":10067:10079   */\n      revert\n        /* \"#utility.yul\":10018:10081   */\n    tag_250:\n        /* \"#utility.yul\":9965:10087   */\n      pop\n      jump\t// out\n        /* \"#utility.yul\":10093:10232   */\n    tag_133:\n        /* \"#utility.yul\":10139:10144   */\n      0x00\n        /* \"#utility.yul\":10177:10183   */\n      dup2\n        /* \"#utility.yul\":10164:10184   */\n      calldataload\n        /* \"#utility.yul\":10155:10184   */\n      swap1\n      pop\n        /* \"#utility.yul\":10193:10226   */\n      tag_252\n        /* \"#utility.yul\":10220:10225   */\n      dup2\n        /* \"#utility.yul\":10193:10226   */\n      tag_132\n      jump\t// in\n    tag_252:\n        /* \"#utility.yul\":10093:10232   */\n      swap3\n      swap2\n      pop\n      pop\n      jump\t// out\n        /* \"#utility.yul\":10238:10355   */\n    tag_134:\n        /* \"#utility.yul\":10347:10348   */\n      0x00\n        /* \"#utility.yul\":10344:10345   */\n      dup1\n        /* \"#utility.yul\":10337:10349   */\n      revert\n        /* \"#utility.yul\":10361:10478   */\n    tag_135:\n        /* \"#utility.yul\":10470:10471   */\n      0x00\n        /* \"#utility.yul\":10467:10468   */\n      dup1\n        /* \"#utility.yul\":10460:10472   */\n      revert\n        /* \"#utility.yul\":10503:12246   */\n    tag_136:\n        /* \"#utility.yul\":10572:10577   */\n      0x00\n        /* \"#utility.yul\":10616:10620   */\n      0xa0\n        /* \"#utility.yul\":10604:10613   */\n      dup3\n        /* \"#utility.yul\":10599:10602   */\n      dup5\n        /* \"#utility.yul\":10595:10614   */\n      sub\n        /* \"#utility.yul\":10591:10621   */\n      slt\n        /* \"#utility.yul\":10588:10705   */\n      iszero\n      tag_256\n      jumpi\n        /* \"#utility.yul\":10624:10703   */\n      tag_257\n      tag_134\n      jump\t// in\n    tag_257:\n        /* \"#utility.yul\":10588:10705   */\n    tag_256:\n        /* \"#utility.yul\":10723:10744   */\n      tag_258\n        /* \"#utility.yul\":10739:10743   */\n      0xa0\n        /* \"#utility.yul\":10723:10744   */\n      tag_114\n      jump\t// in\n    tag_258:\n        /* \"#utility.yul\":10714:10744   */\n      swap1\n      pop\n        /* \"#utility.yul\":10807:10808   */\n      0x00\n        /* \"#utility.yul\":10847:10896   */\n      tag_259\n        /* \"#utility.yul\":10892:10895   */\n      dup5\n        /* \"#utility.yul\":10883:10889   */\n      dup3\n        /* \"#utility.yul\":10872:10881   */\n      dup6\n        /* \"#utility.yul\":10868:10890   */\n      add\n        /* \"#utility.yul\":10847:10896   */\n      tag_108\n      jump\t// in\n    tag_259:\n        /* \"#utility.yul\":10840:10844   */\n      0x00\n        /* \"#utility.yul\":10833:10838   */\n      dup4\n        /* \"#utility.yul\":10829:10845   */\n      add\n        /* \"#utility.yul\":10822:10897   */\n      mstore\n        /* \"#utility.yul\":10754:10908   */\n      pop\n        /* \"#utility.yul\":10996:10998   */\n      0x20\n        /* \"#utility.yul\":10985:10994   */\n      dup3\n        /* \"#utility.yul\":10981:10999   */\n      add\n        /* \"#utility.yul\":10968:11000   */\n      calldataload\n        /* \"#utility.yul\":11027:11045   */\n      0xffffffffffffffff\n        /* \"#utility.yul\":11019:11025   */\n      dup2\n        /* \"#utility.yul\":11016:11046   */\n      gt\n        /* \"#utility.yul\":11013:11130   */\n      iszero\n      tag_260\n      jumpi\n        /* \"#utility.yul\":11049:11128   */\n      tag_261\n      tag_135\n      jump\t// in\n    tag_261:\n        /* \"#utility.yul\":11013:11130   */\n    tag_260:\n        /* \"#utility.yul\":11169:11228   */\n      tag_262\n        /* \"#utility.yul\":11224:11227   */\n      dup5\n        /* \"#utility.yul\":11215:11221   */\n      dup3\n        /* \"#utility.yul\":11204:11213   */\n      dup6\n        /* \"#utility.yul\":11200:11222   */\n      add\n        /* \"#utility.yul\":11169:11228   */\n      tag_118\n      jump\t// in\n    tag_262:\n        /* \"#utility.yul\":11162:11166   */\n      0x20\n        /* \"#utility.yul\":11155:11160   */\n      dup4\n        /* \"#utility.yul\":11151:11167   */\n      add\n        /* \"#utility.yul\":11144:11229   */\n      mstore\n        /* \"#utility.yul\":10918:11240   */\n      pop\n        /* \"#utility.yul\":11331:11333   */\n      0x40\n        /* \"#utility.yul\":11320:11329   */\n      dup3\n        /* \"#utility.yul\":11316:11334   */\n      add\n        /* \"#utility.yul\":11303:11335   */\n      calldataload\n        /* \"#utility.yul\":11362:11380   */\n      0xffffffffffffffff\n        /* \"#utility.yul\":11354:11360   */\n      dup2\n        /* \"#utility.yul\":11351:11381   */\n      gt\n        /* \"#utility.yul\":11348:11465   */\n      iszero\n      tag_263\n      jumpi\n        /* \"#utility.yul\":11384:11463   */\n      tag_264\n      tag_135\n      jump\t// in\n    tag_264:\n        /* \"#utility.yul\":11348:11465   */\n    tag_263:\n        /* \"#utility.yul\":11504:11563   */\n      tag_265\n        /* \"#utility.yul\":11559:11562   */\n      dup5\n        /* \"#utility.yul\":11550:11556   */\n      dup3\n        /* \"#utility.yul\":11539:11548   */\n      dup6\n        /* \"#utility.yul\":11535:11557   */\n      add\n        /* \"#utility.yul\":11504:11563   */\n      tag_118\n      jump\t// in\n    tag_265:\n        /* \"#utility.yul\":11497:11501   */\n      0x40\n        /* \"#utility.yul\":11490:11495   */\n      dup4\n        /* \"#utility.yul\":11486:11502   */\n      add\n        /* \"#utility.yul\":11479:11564   */\n      mstore\n        /* \"#utility.yul\":11250:11575   */\n      pop\n        /* \"#utility.yul\":11661:11663   */\n      0x60\n        /* \"#utility.yul\":11650:11659   */\n      dup3\n        /* \"#utility.yul\":11646:11664   */\n      add\n        /* \"#utility.yul\":11633:11665   */\n      calldataload\n        /* \"#utility.yul\":11692:11710   */\n      0xffffffffffffffff\n        /* \"#utility.yul\":11684:11690   */\n      dup2\n        /* \"#utility.yul\":11681:11711   */\n      gt\n        /* \"#utility.yul\":11678:11795   */\n      iszero\n      tag_266\n      jumpi\n        /* \"#utility.yul\":11714:11793   */\n      tag_267\n      tag_135\n      jump\t// in\n    tag_267:\n        /* \"#utility.yul\":11678:11795   */\n    tag_266:\n        /* \"#utility.yul\":11834:11893   */\n      tag_268\n        /* \"#utility.yul\":11889:11892   */\n      dup5\n        /* \"#utility.yul\":11880:11886   */\n      dup3\n        /* \"#utility.yul\":11869:11878   */\n      dup6\n        /* \"#utility.yul\":11865:11887   */\n      add\n        /* \"#utility.yul\":11834:11893   */\n      tag_118\n      jump\t// in\n    tag_268:\n        /* \"#utility.yul\":11827:11831   */\n      0x60\n        /* \"#utility.yul\":11820:11825   */\n      dup4\n        /* \"#utility.yul\":11816:11832   */\n      add\n        /* \"#utility.yul\":11809:11894   */\n      mstore\n        /* \"#utility.yul\":11585:11905   */\n      pop\n        /* \"#utility.yul\":11994:11997   */\n      0x80\n        /* \"#utility.yul\":11983:11992   */\n      dup3\n        /* \"#utility.yul\":11979:11998   */\n      add\n        /* \"#utility.yul\":11966:11999   */\n      calldataload\n        /* \"#utility.yul\":12026:12044   */\n      0xffffffffffffffff\n        /* \"#utility.yul\":12018:12024   */\n      dup2\n        /* \"#utility.yul\":12015:12045   */\n      gt\n        /* \"#utility.yul\":12012:12129   */\n      iszero\n      tag_269\n      jumpi\n        /* \"#utility.yul\":12048:12127   */\n      tag_270\n      tag_135\n      jump\t// in\n    tag_270:\n        /* \"#utility.yul\":12012:12129   */\n    tag_269:\n        /* \"#utility.yul\":12168:12227   */\n      tag_271\n        /* \"#utility.yul\":12223:12226   */\n      dup5\n        /* \"#utility.yul\":12214:12220   */\n      dup3\n        /* \"#utility.yul\":12203:12212   */\n      dup6\n        /* \"#utility.yul\":12199:12221   */\n      add\n        /* \"#utility.yul\":12168:12227   */\n      tag_118\n      jump\t// in\n    tag_271:\n        /* \"#utility.yul\":12161:12165   */\n      0x80\n        /* \"#utility.yul\":12154:12159   */\n      dup4\n        /* \"#utility.yul\":12150:12166   */\n      add\n        /* \"#utility.yul\":12143:12228   */\n      mstore\n        /* \"#utility.yul\":11915:12239   */\n      pop\n        /* \"#utility.yul\":10503:12246   */\n      swap3\n      swap2\n      pop\n      pop\n      jump\t// out\n        /* \"#utility.yul\":12252:12926   */\n    tag_29:\n        /* \"#utility.yul\":12340:12346   */\n      0x00\n        /* \"#utility.yul\":12348:12354   */\n      dup1\n        /* \"#utility.yul\":12397:12399   */\n      0x40\n        /* \"#utility.yul\":12385:12394   */\n      dup4\n        /* \"#utility.yul\":12376:12383   */\n      dup6\n        /* \"#utility.yul\":12372:12395   */\n      sub\n        /* \"#utility.yul\":12368:12400   */\n      slt\n        /* \"#utility.yul\":12365:12484   */\n      iszero\n      tag_273\n      jumpi\n        /* \"#utility.yul\":12403:12482   */\n      tag_274\n      tag_105\n      jump\t// in\n    tag_274:\n        /* \"#utility.yul\":12365:12484   */\n    tag_273:\n        /* \"#utility.yul\":12523:12524   */\n      0x00\n        /* \"#utility.yul\":12548:12601   */\n      tag_275\n        /* \"#utility.yul\":12593:12600   */\n      dup6\n        /* \"#utility.yul\":12584:12590   */\n      dup3\n        /* \"#utility.yul\":12573:12582   */\n      dup7\n        /* \"#utility.yul\":12569:12591   */\n      add\n        /* \"#utility.yul\":12548:12601   */\n      tag_133\n      jump\t// in\n    tag_275:\n        /* \"#utility.yul\":12538:12601   */\n      swap3\n      pop\n        /* \"#utility.yul\":12494:12611   */\n      pop\n        /* \"#utility.yul\":12678:12680   */\n      0x20\n        /* \"#utility.yul\":12667:12676   */\n      dup4\n        /* \"#utility.yul\":12663:12681   */\n      add\n        /* \"#utility.yul\":12650:12682   */\n      calldataload\n        /* \"#utility.yul\":12709:12727   */\n      0xffffffffffffffff\n        /* \"#utility.yul\":12701:12707   */\n      dup2\n        /* \"#utility.yul\":12698:12728   */\n      gt\n        /* \"#utility.yul\":12695:12812   */\n      iszero\n      tag_276\n      jumpi\n        /* \"#utility.yul\":12731:12810   */\n      tag_277\n      tag_106\n      jump\t// in\n    tag_277:\n        /* \"#utility.yul\":12695:12812   */\n    tag_276:\n        /* \"#utility.yul\":12836:12909   */\n      tag_278\n        /* \"#utility.yul\":12901:12908   */\n      dup6\n        /* \"#utility.yul\":12892:12898   */\n      dup3\n        /* \"#utility.yul\":12881:12890   */\n      dup7\n        /* \"#utility.yul\":12877:12899   */\n      add\n        /* \"#utility.yul\":12836:12909   */\n      tag_136\n      jump\t// in\n    tag_278:\n        /* \"#utility.yul\":12826:12909   */\n      swap2\n      pop\n        /* \"#utility.yul\":12621:12919   */\n      pop\n        /* \"#utility.yul\":12252:12926   */\n      swap3\n      pop\n      swap3\n      swap1\n      pop\n      jump\t// out\n        /* \"#utility.yul\":12932:13261   */\n    tag_33:\n        /* \"#utility.yul\":12991:12997   */\n      0x00\n        /* \"#utility.yul\":13040:13042   */\n      0x20\n        /* \"#utility.yul\":13028:13037   */\n      dup3\n        /* \"#utility.yul\":13019:13026   */\n      dup5\n        /* \"#utility.yul\":13015:13038   */\n      sub\n        /* \"#utility.yul\":13011:13043   */\n      slt\n        /* \"#utility.yul\":13008:13127   */\n      iszero\n      tag_280\n      jumpi\n        /* \"#utility.yul\":13046:13125   */\n      tag_281\n      tag_105\n      jump\t// in\n    tag_281:\n        /* \"#utility.yul\":13008:13127   */\n    tag_280:\n        /* \"#utility.yul\":13166:13167   */\n      0x00\n        /* \"#utility.yul\":13191:13244   */\n      tag_282\n        /* \"#utility.yul\":13236:13243   */\n      dup5\n        /* \"#utility.yul\":13227:13233   */\n      dup3\n        /* \"#utility.yul\":13216:13225   */\n      dup6\n        /* \"#utility.yul\":13212:13234   */\n      add\n        /* \"#utility.yul\":13191:13244   */\n      tag_108\n      jump\t// in\n    tag_282:\n        /* \"#utility.yul\":13181:13244   */\n      swap2\n      pop\n        /* \"#utility.yul\":13137:13254   */\n      pop\n        /* \"#utility.yul\":12932:13261   */\n      swap3\n      swap2\n      pop\n      pop\n      jump\t// out\n        /* \"#utility.yul\":13267:13596   */\n    tag_37:\n        /* \"#utility.yul\":13326:13332   */\n      0x00\n        /* \"#utility.yul\":13375:13377   */\n      0x20\n        /* \"#utility.yul\":13363:13372   */\n      dup3\n        /* \"#utility.yul\":13354:13361   */\n      dup5\n        /* \"#utility.yul\":13350:13373   */\n      sub\n        /* \"#utility.yul\":13346:13378   */\n      slt\n        /* \"#utility.yul\":13343:13462   */\n      iszero\n      tag_284\n      jumpi\n        /* \"#utility.yul\":13381:13460   */\n      tag_285\n      tag_105\n      jump\t// in\n    tag_285:\n        /* \"#utility.yul\":13343:13462   */\n    tag_284:\n        /* \"#utility.yul\":13501:13502   */\n      0x00\n        /* \"#utility.yul\":13526:13579   */\n      tag_286\n        /* \"#utility.yul\":13571:13578   */\n      dup5\n        /* \"#utility.yul\":13562:13568   */\n      dup3\n        /* \"#utility.yul\":13551:13560   */\n      dup6\n        /* \"#utility.yul\":13547:13569   */\n      add\n        /* \"#utility.yul\":13526:13579   */\n      tag_133\n      jump\t// in\n    tag_286:\n        /* \"#utility.yul\":13516:13579   */\n      swap2\n      pop\n        /* \"#utility.yul\":13472:13589   */\n      pop\n        /* \"#utility.yul\":13267:13596   */\n      swap3\n      swap2\n      pop\n      pop\n      jump\t// out\n        /* \"#utility.yul\":13602:13782   */\n    tag_137:\n        /* \"#utility.yul\":13650:13727   */\n      0x4e487b7100000000000000000000000000000000000000000000000000000000\n        /* \"#utility.yul\":13647:13648   */\n      0x00\n        /* \"#utility.yul\":13640:13728   */\n      mstore\n        /* \"#utility.yul\":13747:13751   */\n      0x22\n        /* \"#utility.yul\":13744:13745   */\n      0x04\n        /* \"#utility.yul\":13737:13752   */\n      mstore\n        /* \"#utility.yul\":13771:13775   */\n      0x24\n        /* \"#utility.yul\":13768:13769   */\n      0x00\n        /* \"#utility.yul\":13761:13776   */\n      revert\n        /* \"#utility.yul\":13788:14108   */\n    tag_54:\n        /* \"#utility.yul\":13832:13838   */\n      0x00\n        /* \"#utility.yul\":13869:13870   */\n      0x02\n        /* \"#utility.yul\":13863:13867   */\n      dup3\n        /* \"#utility.yul\":13859:13871   */\n      div\n        /* \"#utility.yul\":13849:13871   */\n      swap1\n      pop\n        /* \"#utility.yul\":13916:13917   */\n      0x01\n        /* \"#utility.yul\":13910:13914   */\n      dup3\n        /* \"#utility.yul\":13906:13918   */\n      and\n        /* \"#utility.yul\":13937:13955   */\n      dup1\n        /* \"#utility.yul\":13927:14008   */\n      tag_289\n      jumpi\n        /* \"#utility.yul\":13993:13997   */\n      0x7f\n        /* \"#utility.yul\":13985:13991   */\n      dup3\n        /* \"#utility.yul\":13981:13998   */\n      and\n        /* \"#utility.yul\":13971:13998   */\n      swap2\n      pop\n        /* \"#utility.yul\":13927:14008   */\n    tag_289:\n        /* \"#utility.yul\":14055:14057   */\n      0x20\n        /* \"#utility.yul\":14047:14053   */\n      dup3\n        /* \"#utility.yul\":14044:14058   */\n      lt\n        /* \"#utility.yul\":14024:14042   */\n      dup2\n        /* \"#utility.yul\":14021:14059   */\n      sub\n        /* \"#utility.yul\":14018:14102   */\n      tag_290\n      jumpi\n        /* \"#utility.yul\":14074:14092   */\n      tag_291\n      tag_137\n      jump\t// in\n    tag_291:\n        /* \"#utility.yul\":14018:14102   */\n    tag_290:\n        /* \"#utility.yul\":13839:14108   */\n      pop\n        /* \"#utility.yul\":13788:14108   */\n      swap2\n      swap1\n      pop\n      jump\t// out\n        /* \"#utility.yul\":14114:14255   */\n    tag_138:\n        /* \"#utility.yul\":14163:14167   */\n      0x00\n        /* \"#utility.yul\":14186:14189   */\n      dup2\n        /* \"#utility.yul\":14178:14189   */\n      swap1\n      pop\n        /* \"#utility.yul\":14209:14212   */\n      dup2\n        /* \"#utility.yul\":14206:14207   */\n      0x00\n        /* \"#utility.yul\":14199:14213   */\n      mstore\n        /* \"#utility.yul\":14243:14247   */\n      0x20\n        /* \"#utility.yul\":14240:14241   */\n      0x00\n        /* \"#utility.yul\":14230:14248   */\n      keccak256\n        /* \"#utility.yul\":14222:14248   */\n      swap1\n      pop\n        /* \"#utility.yul\":14114:14255   */\n      swap2\n      swap1\n      pop\n      jump\t// out\n        /* \"#utility.yul\":14261:14354   */\n    tag_139:\n        /* \"#utility.yul\":14298:14304   */\n      0x00\n        /* \"#utility.yul\":14345:14347   */\n      0x20\n        /* \"#utility.yul\":14340:14342   */\n      0x1f\n        /* \"#utility.yul\":14333:14338   */\n      dup4\n        /* \"#utility.yul\":14329:14343   */\n      add\n        /* \"#utility.yul\":14325:14348   */\n      div\n        /* \"#utility.yul\":14315:14348   */\n      swap1\n      pop\n        /* \"#utility.yul\":14261:14354   */\n      swap2\n      swap1\n      pop\n      jump\t// out\n        /* \"#utility.yul\":14360:14467   */\n    tag_140:\n        /* \"#utility.yul\":14404:14412   */\n      0x00\n        /* \"#utility.yul\":14454:14459   */\n      dup3\n        /* \"#utility.yul\":14448:14452   */\n      dup3\n        /* \"#utility.yul\":14444:14460   */\n      shl\n        /* \"#utility.yul\":14423:14460   */\n      swap1\n      pop\n        /* \"#utility.yul\":14360:14467   */\n      swap3\n      swap2\n      pop\n      pop\n      jump\t// out\n        /* \"#utility.yul\":14473:14866   */\n    tag_141:\n        /* \"#utility.yul\":14542:14548   */\n      0x00\n        /* \"#utility.yul\":14592:14593   */\n      0x08\n        /* \"#utility.yul\":14580:14590   */\n      dup4\n        /* \"#utility.yul\":14576:14594   */\n      mul\n        /* \"#utility.yul\":14615:14712   */\n      tag_296\n        /* \"#utility.yul\":14645:14711   */\n      0xffffffffffffffffffffffffffffffffffffffffffffffffffffffffffffffff\n        /* \"#utility.yul\":14634:14643   */\n      dup3\n        /* \"#utility.yul\":14615:14712   */\n      tag_140\n      jump\t// in\n    tag_296:\n        /* \"#utility.yul\":14733:14772   */\n      tag_297\n        /* \"#utility.yul\":14763:14771   */\n      dup7\n        /* \"#utility.yul\":14752:14761   */\n      dup4\n        /* \"#utility.yul\":14733:14772   */\n      tag_140\n      jump\t// in\n    tag_297:\n        /* \"#utility.yul\":14721:14772   */\n      swap6\n      pop\n        /* \"#utility.yul\":14805:14809   */\n      dup1\n        /* \"#utility.yul\":14801:14810   */\n      not\n        /* \"#utility.yul\":14794:14799   */\n      dup5\n        /* \"#utility.yul\":14790:14811   */\n      and\n        /* \"#utility.yul\":14781:14811   */\n      swap4\n      pop\n        /* \"#utility.yul\":14854:14858   */\n      dup1\n        /* \"#utility.yul\":14844:14852   */\n      dup7\n        /* \"#utility.yul\":14840:14859   */\n      and\n        /* \"#utility.yul\":14833:14838   */\n      dup5\n        /* \"#utility.yul\":14830:14860   */\n      or\n        /* \"#utility.yul\":14820:14860   */\n      swap3\n      pop\n        /* \"#utility.yul\":14549:14866   */\n      pop\n      pop\n        /* \"#utility.yul\":14473:14866   */\n      swap4\n      swap3\n      pop\n      pop\n      pop\n      jump\t// out\n        /* \"#utility.yul\":14872:14932   */\n    tag_142:\n        /* \"#utility.yul\":14900:14903   */\n      0x00\n        /* \"#utility.yul\":14921:14926   */\n      dup2\n        /* \"#utility.yul\":14914:14926   */\n      swap1\n      pop\n        /* \"#utility.yul\":14872:14932   */\n      swap2\n      swap1\n      pop\n      jump\t// out\n        /* \"#utility.yul\":14938:15080   */\n    tag_143:\n        /* \"#utility.yul\":14988:14997   */\n      0x00\n        /* \"#utility.yul\":15021:15074   */\n      tag_300\n        /* \"#utility.yul\":15039:15073   */\n      tag_301\n        /* \"#utility.yul\":15048:15072   */\n      tag_302\n        /* \"#utility.yul\":15066:15071   */\n      dup5\n        /* \"#utility.yul\":15048:15072   */\n      tag_131\n      jump\t// in\n    tag_302:\n        /* \"#utility.yul\":15039:15073   */\n      tag_142\n      jump\t// in\n    tag_301:\n        /* \"#utility.yul\":15021:15074   */\n      tag_131\n      jump\t// in\n    tag_300:\n        /* \"#utility.yul\":15008:15074   */\n      swap1\n      pop\n        /* \"#utility.yul\":14938:15080   */\n      swap2\n      swap1\n      pop\n      jump\t// out\n        /* \"#utility.yul\":15086:15161   */\n    tag_144:\n        /* \"#utility.yul\":15129:15132   */\n      0x00\n        /* \"#utility.yul\":15150:15155   */\n      dup2\n        /* \"#utility.yul\":15143:15155   */\n      swap1\n      pop\n        /* \"#utility.yul\":15086:15161   */\n      swap2\n      swap1\n      pop\n      jump\t// out\n        /* \"#utility.yul\":15167:15436   */\n    tag_145:\n        /* \"#utility.yul\":15277:15316   */\n      tag_305\n        /* \"#utility.yul\":15308:15315   */\n      dup4\n        /* \"#utility.yul\":15277:15316   */\n      tag_143\n      jump\t// in\n    tag_305:\n        /* \"#utility.yul\":15338:15429   */\n      tag_306\n        /* \"#utility.yul\":15387:15428   */\n      tag_307\n        /* \"#utility.yul\":15411:15427   */\n      dup3\n        /* \"#utility.yul\":15387:15428   */\n      tag_144\n      jump\t// in\n    tag_307:\n        /* \"#utility.yul\":15379:15385   */\n      dup5\n        /* \"#utility.yul\":15372:15376   */\n      dup5\n        /* \"#utility.yul\":15366:15377   */\n      sload\n        /* \"#utility.yul\":15338:15429   */\n      tag_141\n      jump\t// in\n    tag_306:\n        /* \"#utility.yul\":15332:15336   */\n      dup3\n        /* \"#utility.yul\":15325:15430   */\n      sstore\n        /* \"#utility.yul\":15243:15436   */\n      pop\n        /* \"#utility.yul\":15167:15436   */\n      pop\n      pop\n      pop\n      jump\t// out\n        /* \"#utility.yul\":15442:15515   */\n    tag_146:\n        /* \"#utility.yul\":15487:15490   */\n      0x00\n        /* \"#utility.yul\":15442:15515   */\n      swap1\n      jump\t// out\n        /* \"#utility.yul\":15521:15710   */\n    tag_147:\n        /* \"#utility.yul\":15598:15630   */\n      tag_310\n      tag_146\n      jump\t// in\n    tag_310:\n        /* \"#utility.yul\":15639:15704   */\n      tag_311\n        /* \"#utility.yul\":15697:15703   */\n      dup2\n        /* \"#utility.yul\":15689:15695   */\n      dup5\n        /* \"#utility.yul\":15683:15687   */\n      dup5\n        /* \"#utility.yul\":15639:15704   */\n      tag_145\n      jump\t// in\n    tag_311:\n        /* \"#utility.yul\":15574:15710   */\n      pop\n        /* \"#utility.yul\":15521:15710   */\n      pop\n      pop\n      jump\t// out\n        /* \"#utility.yul\":15716:15902   */\n    tag_148:\n        /* \"#utility.yul\":15776:15896   */\n    tag_313:\n        /* \"#utility.yul\":15793:15796   */\n      dup2\n        /* \"#utility.yul\":15786:15791   */\n      dup2\n        /* \"#utility.yul\":15783:15797   */\n      lt\n        /* \"#utility.yul\":15776:15896   */\n      iszero\n      tag_315\n      jumpi\n        /* \"#utility.yul\":15847:15886   */\n      tag_316\n        /* \"#utility.yul\":15884:15885   */\n      0x00\n        /* \"#utility.yul\":15877:15882   */\n      dup3\n        /* \"#utility.yul\":15847:15886   */\n      tag_147\n      jump\t// in\n    tag_316:\n        /* \"#utility.yul\":15820:15821   */\n      0x01\n        /* \"#utility.yul\":15813:15818   */\n      dup2\n        /* \"#utility.yul\":15809:15822   */\n      add\n        /* \"#utility.yul\":15800:15822   */\n      swap1\n      pop\n        /* \"#utility.yul\":15776:15896   */\n      jump(tag_313)\n    tag_315:\n        /* \"#utility.yul\":15716:15902   */\n      pop\n      pop\n      jump\t// out\n        /* \"#utility.yul\":15908:16451   */\n    tag_149:\n        /* \"#utility.yul\":16009:16011   */\n      0x1f\n        /* \"#utility.yul\":16004:16007   */\n      dup3\n        /* \"#utility.yul\":16001:16012   */\n      gt\n        /* \"#utility.yul\":15998:16444   */\n      iszero\n      tag_318\n      jumpi\n        /* \"#utility.yul\":16043:16081   */\n      tag_319\n        /* \"#utility.yul\":16075:16080   */\n      dup2\n        /* \"#utility.yul\":16043:16081   */\n      tag_138\n      jump\t// in\n    tag_319:\n        /* \"#utility.yul\":16127:16156   */\n      tag_320\n        /* \"#utility.yul\":16145:16155   */\n      dup5\n        /* \"#utility.yul\":16127:16156   */\n      tag_139\n      jump\t// in\n    tag_320:\n        /* \"#utility.yul\":16117:16125   */\n      dup2\n        /* \"#utility.yul\":16113:16157   */\n      add\n        /* \"#utility.yul\":16310:16312   */\n      0x20\n        /* \"#utility.yul\":16298:16308   */\n      dup6\n        /* \"#utility.yul\":16295:16313   */\n      lt\n        /* \"#utility.yul\":16292:16341   */\n      iszero\n      tag_321\n      jumpi\n        /* \"#utility.yul\":16331:16339   */\n      dup2\n        /* \"#utility.yul\":16316:16339   */\n      swap1\n      pop\n        /* \"#utility.yul\":16292:16341   */\n    tag_321:\n        /* \"#utility.yul\":16354:16434   */\n      tag_322\n        /* \"#utility.yul\":16410:16432   */\n      tag_323\n        /* \"#utility.yul\":16428:16431   */\n      dup6\n        /* \"#utility.yul\":16410:16432   */\n      tag_139\n      jump\t// in\n    tag_323:\n        /* \"#utility.yul\":16400:16408   */\n      dup4\n        /* \"#utility.yul\":16396:16433   */\n      add\n        /* \"#utility.yul\":16383:16394   */\n      dup3\n        /* \"#utility.yul\":16354:16434   */\n      tag_148\n      jump\t// in\n    tag_322:\n        /* \"#utility.yul\":16013:16444   */\n      pop\n      pop\n        /* \"#utility.yul\":15998:16444   */\n    tag_318:\n        /* \"#utility.yul\":15908:16451   */\n      pop\n      pop\n      pop\n      jump\t// out\n        /* \"#utility.yul\":16457:16574   */\n    tag_150:\n        /* \"#utility.yul\":16511:16519   */\n      0x00\n        /* \"#utility.yul\":16561:16566   */\n      dup3\n        /* \"#utility.yul\":16555:16559   */\n      dup3\n        /* \"#utility.yul\":16551:16567   */\n      shr\n        /* \"#utility.yul\":16530:16567   */\n      swap1\n      pop\n        /* \"#utility.yul\":16457:16574   */\n      swap3\n      swap2\n      pop\n      pop\n      jump\t// out\n        /* \"#utility.yul\":16580:16749   */\n    tag_151:\n        /* \"#utility.yul\":16624:16630   */\n      0x00\n        /* \"#utility.yul\":16657:16708   */\n      tag_326\n        /* \"#utility.yul\":16705:16706   */\n      0x00\n        /* \"#utility.yul\":16701:16707   */\n      not\n        /* \"#utility.yul\":16693:16698   */\n      dup5\n        /* \"#utility.yul\":16690:16691   */\n      0x08\n        /* \"#utility.yul\":16686:16699   */\n      mul\n        /* \"#utility.yul\":16657:16708   */\n      tag_150\n      jump\t// in\n    tag_326:\n        /* \"#utility.yul\":16653:16709   */\n      not\n        /* \"#utility.yul\":16738:16742   */\n      dup1\n        /* \"#utility.yul\":16732:16736   */\n      dup4\n        /* \"#utility.yul\":16728:16743   */\n      and\n        /* \"#utility.yul\":16718:16743   */\n      swap2\n      pop\n        /* \"#utility.yul\":16631:16749   */\n      pop\n        /* \"#utility.yul\":16580:16749   */\n      swap3\n      swap2\n      pop\n      pop\n      jump\t// out\n        /* \"#utility.yul\":16754:17049   */\n    tag_152:\n        /* \"#utility.yul\":16830:16834   */\n      0x00\n        /* \"#utility.yul\":16976:17005   */\n      tag_328\n        /* \"#utility.yul\":17001:17004   */\n      dup4\n        /* \"#utility.yul\":16995:16999   */\n      dup4\n        /* \"#utility.yul\":16976:17005   */\n      tag_151\n      jump\t// in\n    tag_328:\n        /* \"#utility.yul\":16968:17005   */\n      swap2\n      pop\n        /* \"#utility.yul\":17038:17041   */\n      dup3\n        /* \"#utility.yul\":17035:17036   */\n      0x02\n        /* \"#utility.yul\":17031:17042   */\n      mul\n        /* \"#utility.yul\":17025:17029   */\n      dup3\n        /* \"#utility.yul\":17022:17043   */\n      or\n        /* \"#utility.yul\":17014:17043   */\n      swap1\n      pop\n        /* \"#utility.yul\":16754:17049   */\n      swap3\n      swap2\n      pop\n      pop\n      jump\t// out\n        /* \"#utility.yul\":17054:18449   */\n    tag_45:\n        /* \"#utility.yul\":17171:17208   */\n      tag_330\n        /* \"#utility.yul\":17204:17207   */\n      dup3\n        /* \"#utility.yul\":17171:17208   */\n      tag_123\n      jump\t// in\n    tag_330:\n        /* \"#utility.yul\":17273:17291   */\n      0xffffffffffffffff\n        /* \"#utility.yul\":17265:17271   */\n      dup2\n        /* \"#utility.yul\":17262:17292   */\n      gt\n        /* \"#utility.yul\":17259:17315   */\n      iszero\n      tag_331\n      jumpi\n        /* \"#utility.yul\":17295:17313   */\n      tag_332\n      tag_112\n      jump\t// in\n    tag_332:\n        /* \"#utility.yul\":17259:17315   */\n    tag_331:\n        /* \"#utility.yul\":17339:17377   */\n      tag_333\n        /* \"#utility.yul\":17371:17375   */\n      dup3\n        /* \"#utility.yul\":17365:17376   */\n      sload\n        /* \"#utility.yul\":17339:17377   */\n      tag_54\n      jump\t// in\n    tag_333:\n        /* \"#utility.yul\":17424:17491   */\n      tag_334\n        /* \"#utility.yul\":17484:17490   */\n      dup3\n        /* \"#utility.yul\":17476:17482   */\n      dup3\n        /* \"#utility.yul\":17470:17474   */\n      dup6\n        /* \"#utility.yul\":17424:17491   */\n      tag_149\n      jump\t// in\n    tag_334:\n        /* \"#utility.yul\":17518:17519   */\n      0x00\n        /* \"#utility.yul\":17542:17546   */\n      0x20\n        /* \"#utility.yul\":17529:17546   */\n      swap1\n      pop\n        /* \"#utility.yul\":17574:17576   */\n      0x1f\n        /* \"#utility.yul\":17566:17572   */\n      dup4\n        /* \"#utility.yul\":17563:17577   */\n      gt\n        /* \"#utility.yul\":17591:17592   */\n      0x01\n        /* \"#utility.yul\":17586:18204   */\n      dup2\n      eq\n      tag_336\n      jumpi\n        /* \"#utility.yul\":18248:18249   */\n      0x00\n        /* \"#utility.yul\":18265:18271   */\n      dup5\n        /* \"#utility.yul\":18262:18339   */\n      iszero\n      tag_337\n      jumpi\n        /* \"#utility.yul\":18314:18323   */\n      dup3\n        /* \"#utility.yul\":18309:18312   */\n      dup8\n        /* \"#utility.yul\":18305:18324   */\n      add\n        /* \"#utility.yul\":18299:18325   */\n      mload\n        /* \"#utility.yul\":18290:18325   */\n      swap1\n      pop\n        /* \"#utility.yul\":18262:18339   */\n    tag_337:\n        /* \"#utility.yul\":18365:18432   */\n      tag_338\n        /* \"#utility.yul\":18425:18431   */\n      dup6\n        /* \"#utility.yul\":18418:18423   */\n      dup3\n        /* \"#utility.yul\":18365:18432   */\n      tag_152\n      jump\t// in\n    tag_338:\n        /* \"#utility.yul\":18359:18363   */\n      dup7\n        /* \"#utility.yul\":18352:18433   */\n      sstore\n        /* \"#utility.yul\":18221:18443   */\n      pop\n        /* \"#utility.yul\":17556:18443   */\n      jump(tag_335)\n        /* \"#utility.yul\":17586:18204   */\n    tag_336:\n        /* \"#utility.yul\":17638:17642   */\n      0x1f\n        /* \"#utility.yul\":17634:17643   */\n      not\n        /* \"#utility.yul\":17626:17632   */\n      dup5\n        /* \"#utility.yul\":17622:17644   */\n      and\n        /* \"#utility.yul\":17672:17709   */\n      tag_339\n        /* \"#utility.yul\":17704:17708   */\n      dup7\n        /* \"#utility.yul\":17672:17709   */\n      tag_138\n      jump\t// in\n    tag_339:\n        /* \"#utility.yul\":17731:17732   */\n      0x00\n        /* \"#utility.yul\":17745:17953   */\n    tag_340:\n        /* \"#utility.yul\":17759:17766   */\n      dup3\n        /* \"#utility.yul\":17756:17757   */\n      dup2\n        /* \"#utility.yul\":17753:17767   */\n      lt\n        /* \"#utility.yul\":17745:17953   */\n      iszero\n      tag_342\n      jumpi\n        /* \"#utility.yul\":17838:17847   */\n      dup5\n        /* \"#utility.yul\":17833:17836   */\n      dup10\n        /* \"#utility.yul\":17829:17848   */\n      add\n        /* \"#utility.yul\":17823:17849   */\n      mload\n        /* \"#utility.yul\":17815:17821   */\n      dup3\n        /* \"#utility.yul\":17808:17850   */\n      sstore\n        /* \"#utility.yul\":17889:17890   */\n      0x01\n        /* \"#utility.yul\":17881:17887   */\n      dup3\n        /* \"#utility.yul\":17877:17891   */\n      add\n        /* \"#utility.yul\":17867:17891   */\n      swap2\n      pop\n        /* \"#utility.yul\":17936:17938   */\n      0x20\n        /* \"#utility.yul\":17925:17934   */\n      dup6\n        /* \"#utility.yul\":17921:17939   */\n      add\n        /* \"#utility.yul\":17908:17939   */\n      swap5\n      pop\n        /* \"#utility.yul\":17782:17786   */\n      0x20\n        /* \"#utility.yul\":17779:17780   */\n      dup2\n        /* \"#utility.yul\":17775:17787   */\n      add\n        /* \"#utility.yul\":17770:17787   */\n      swap1\n      pop\n        /* \"#utility.yul\":17745:17953   */\n      jump(tag_340)\n    tag_342:\n        /* \"#utility.yul\":17981:17987   */\n      dup7\n        /* \"#utility.yul\":17972:17979   */\n      dup4\n        /* \"#utility.yul\":17969:17988   */\n      lt\n        /* \"#utility.yul\":17966:18145   */\n      iszero\n      tag_343\n      jumpi\n        /* \"#utility.yul\":18039:18048   */\n      dup5\n        /* \"#utility.yul\":18034:18037   */\n      dup10\n        /* \"#utility.yul\":18030:18049   */\n      add\n        /* \"#utility.yul\":18024:18050   */\n      mload\n        /* \"#utility.yul\":18082:18130   */\n      tag_344\n        /* \"#utility.yul\":18124:18128   */\n      0x1f\n        /* \"#utility.yul\":18116:18122   */\n      dup10\n        /* \"#utility.yul\":18112:18129   */\n      and\n        /* \"#utility.yul\":18101:18110   */\n      dup3\n        /* \"#utility.yul\":18082:18130   */\n      tag_151\n      jump\t// in\n    tag_344:\n        /* \"#utility.yul\":18074:18080   */\n      dup4\n        /* \"#utility.yul\":18067:18131   */\n      sstore\n        /* \"#utility.yul\":17989:18145   */\n      pop\n        /* \"#utility.yul\":17966:18145   */\n    tag_343:\n        /* \"#utility.yul\":18191:18192   */\n      0x01\n        /* \"#utility.yul\":18187:18188   */\n      0x02\n        /* \"#utility.yul\":18179:18185   */\n      dup9\n        /* \"#utility.yul\":18175:18189   */\n      mul\n        /* \"#utility.yul\":18171:18193   */\n      add\n        /* \"#utility.yul\":18165:18169   */\n      dup9\n        /* \"#utility.yul\":18158:18194   */\n      sstore\n        /* \"#utility.yul\":17593:18204   */\n      pop\n      pop\n      pop\n        /* \"#utility.yul\":17556:18443   */\n    tag_335:\n      pop\n        /* \"#utility.yul\":17146:18449   */\n      pop\n      pop\n      pop\n        /* \"#utility.yul\":17054:18449   */\n      pop\n      pop\n      jump\t// out\n        /* \"#utility.yul\":18455:18635   */\n    tag_77:\n        /* \"#utility.yul\":18503:18580   */\n      0x4e487b7100000000000000000000000000000000000000000000000000000000\n        /* \"#utility.yul\":18500:18501   */\n      0x00\n        /* \"#utility.yul\":18493:18581   */\n      mstore\n        /* \"#utility.yul\":18600:18604   */\n      0x32\n        /* \"#utility.yul\":18597:18598   */\n      0x04\n        /* \"#utility.yul\":18590:18605   */\n      mstore\n        /* \"#utility.yul\":18624:18628   */\n      0x24\n        /* \"#utility.yul\":18621:18622   */\n      0x00\n        /* \"#utility.yul\":18614:18629   */\n      revert\n\n    auxdata: 0xa2646970667358221220b273dfd31881b4dbf6100e28f65e0bceb75940896aab718c176accfb589dc9b564736f6c63430008110033\n}\n",
				"bytecode": {
					"linkReferences": {},
					"object": "608060405234801561001057600080fd5b5061120b806100206000396000f3fe608060405234801561001057600080fd5b50600436106100885760003560e01c806398168b941161005b57806398168b9414610103578063b29f04fe1461011f578063b78842ee1461013b578063dacf64e21461015757610088565b8063085d48831461008d5780631fbecde7146100ab57806376cdb03b146100c7578063827b0348146100e5575b600080fd5b610095610173565b6040516100a2919061084d565b60405180910390f35b6100c560048036038101906100c091906109ee565b610197565b005b6100cf6102ad565b6040516100dc919061084d565b60405180910390f35b6100ed6102d3565b6040516100fa9190610cb4565b60405180910390f35b61011d60048036038101906101189190610e12565b6105d0565b005b61013960048036038101906101349190610e6e565b610699565b005b61015560048036038101906101509190610e9b565b6106dc565b005b610171600480360381019061016c9190610e6e565b61076b565b005b60008054906101000a900473ffffffffffffffffffffffffffffffffffffffff1681565b60006040518060a001604052808773ffffffffffffffffffffffffffffffffffffffff168152602001868152602001858152602001848152602001838152509050600281908060018154018082558091505060019003906000526020600020906005020160009091909190915060008201518160000160006101000a81548173ffffffffffffffffffffffffffffffffffffffff021916908373ffffffffffffffffffffffffffffffffffffffff160217905550602082015181600101908161026091906110d4565b50604082015181600201908161027691906110d4565b50606082015181600301908161028c91906110d4565b5060808201518160040190816102a291906110d4565b505050505050505050565b600160009054906101000a900473ffffffffffffffffffffffffffffffffffffffff1681565b60606002805480602002602001604051908101604052809291908181526020016000905b828210156105c757838290600052602060002090600502016040518060a00160405290816000820160009054906101000a900473ffffffffffffffffffffffffffffffffffffffff1673ffffffffffffffffffffffffffffffffffffffff1673ffffffffffffffffffffffffffffffffffffffff16815260200160018201805461038090610ef7565b80601f01602080910402602001604051908101604052809291908181526020018280546103ac90610ef7565b80156103f95780601f106103ce576101008083540402835291602001916103f9565b820191906000526020600020905b8154815290600101906020018083116103dc57829003601f168201915b5050505050815260200160028201805461041290610ef7565b80601f016020809104026020016040519081016040528092919081815260200182805461043e90610ef7565b801561048b5780601f106104605761010080835404028352916020019161048b565b820191906000526020600020905b81548152906001019060200180831161046e57829003601f168201915b505050505081526020016003820180546104a490610ef7565b80601f01602080910402602001604051908101604052809291908181526020018280546104d090610ef7565b801561051d5780601f106104f25761010080835404028352916020019161051d565b820191906000526020600020905b81548152906001019060200180831161050057829003601f168201915b5050505050815260200160048201805461053690610ef7565b80601f016020809104026020016040519081016040528092919081815260200182805461056290610ef7565b80156105af5780601f10610584576101008083540402835291602001916105af565b820191906000526020600020905b81548152906001019060200180831161059257829003601f168201915b505050505081525050815260200190600101906102f7565b50505050905090565b80600283815481106105e5576105e46111a6565b5b906000526020600020906005020160008201518160000160006101000a81548173ffffffffffffffffffffffffffffffffffffffff021916908373ffffffffffffffffffffffffffffffffffffffff160217905550602082015181600101908161064f91906110d4565b50604082015181600201908161066591906110d4565b50606082015181600301908161067b91906110d4565b50608082015181600401908161069191906110d4565b509050505050565b806000806101000a81548173ffffffffffffffffffffffffffffffffffffffff021916908373ffffffffffffffffffffffffffffffffffffffff16021790555050565b600281815481106106f0576106ef6111a6565b5b9060005260206000209060050201600080820160006101000a81549073ffffffffffffffffffffffffffffffffffffffff021916905560018201600061073691906107af565b60028201600061074691906107af565b60038201600061075691906107af565b60048201600061076691906107af565b505050565b80600160006101000a81548173ffffffffffffffffffffffffffffffffffffffff021916908373ffffffffffffffffffffffffffffffffffffffff16021790555050565b5080546107bb90610ef7565b6000825580601f106107cd57506107ec565b601f0160209004906000526020600020908101906107eb91906107ef565b5b50565b5b808211156108085760008160009055506001016107f0565b5090565b600073ffffffffffffffffffffffffffffffffffffffff82169050919050565b60006108378261080c565b9050919050565b6108478161082c565b82525050565b6000602082019050610862600083018461083e565b92915050565b6000604051905090565b600080fd5b600080fd5b6108858161082c565b811461089057600080fd5b50565b6000813590506108a28161087c565b92915050565b600080fd5b600080fd5b6000601f19601f8301169050919050565b7f4e487b7100000000000000000000000000000000000000000000000000000000600052604160045260246000fd5b6108fb826108b2565b810181811067ffffffffffffffff8211171561091a576109196108c3565b5b80604052505050565b600061092d610868565b905061093982826108f2565b919050565b600067ffffffffffffffff821115610959576109586108c3565b5b610962826108b2565b9050602081019050919050565b82818337600083830152505050565b600061099161098c8461093e565b610923565b9050828152602081018484840111156109ad576109ac6108ad565b5b6109b884828561096f565b509392505050565b600082601f8301126109d5576109d46108a8565b5b81356109e584826020860161097e565b91505092915050565b600080600080600060a08688031215610a0a57610a09610872565b5b6000610a1888828901610893565b955050602086013567ffffffffffffffff811115610a3957610a38610877565b5b610a45888289016109c0565b945050604086013567ffffffffffffffff811115610a6657610a65610877565b5b610a72888289016109c0565b935050606086013567ffffffffffffffff811115610a9357610a92610877565b5b610a9f888289016109c0565b925050608086013567ffffffffffffffff811115610ac057610abf610877565b5b610acc888289016109c0565b9150509295509295909350565b600081519050919050565b600082825260208201905092915050565b6000819050602082019050919050565b610b0e8161082c565b82525050565b600081519050919050565b600082825260208201905092915050565b60005b83811015610b4e578082015181840152602081019050610b33565b60008484015250505050565b6000610b6582610b14565b610b6f8185610b1f565b9350610b7f818560208601610b30565b610b88816108b2565b840191505092915050565b600060a083016000830151610bab6000860182610b05565b5060208301518482036020860152610bc38282610b5a565b91505060408301518482036040860152610bdd8282610b5a565b91505060608301518482036060860152610bf78282610b5a565b91505060808301518482036080860152610c118282610b5a565b9150508091505092915050565b6000610c2a8383610b93565b905092915050565b6000602082019050919050565b6000610c4a82610ad9565b610c548185610ae4565b935083602082028501610c6685610af5565b8060005b85811015610ca25784840389528151610c838582610c1e565b9450610c8e83610c32565b925060208a01995050600181019050610c6a565b50829750879550505050505092915050565b60006020820190508181036000830152610cce8184610c3f565b905092915050565b6000819050919050565b610ce981610cd6565b8114610cf457600080fd5b50565b600081359050610d0681610ce0565b92915050565b600080fd5b600080fd5b600060a08284031215610d2c57610d2b610d0c565b5b610d3660a0610923565b90506000610d4684828501610893565b600083015250602082013567ffffffffffffffff811115610d6a57610d69610d11565b5b610d76848285016109c0565b602083015250604082013567ffffffffffffffff811115610d9a57610d99610d11565b5b610da6848285016109c0565b604083015250606082013567ffffffffffffffff811115610dca57610dc9610d11565b5b610dd6848285016109c0565b606083015250608082013567ffffffffffffffff811115610dfa57610df9610d11565b5b610e06848285016109c0565b60808301525092915050565b60008060408385031215610e2957610e28610872565b5b6000610e3785828601610cf7565b925050602083013567ffffffffffffffff811115610e5857610e57610877565b5b610e6485828601610d16565b9150509250929050565b600060208284031215610e8457610e83610872565b5b6000610e9284828501610893565b91505092915050565b600060208284031215610eb157610eb0610872565b5b6000610ebf84828501610cf7565b91505092915050565b7f4e487b7100000000000000000000000000000000000000000000000000000000600052602260045260246000fd5b60006002820490506001821680610f0f57607f821691505b602082108103610f2257610f21610ec8565b5b50919050565b60008190508160005260206000209050919050565b60006020601f8301049050919050565b600082821b905092915050565b600060088302610f8a7fffffffffffffffffffffffffffffffffffffffffffffffffffffffffffffffff82610f4d565b610f948683610f4d565b95508019841693508086168417925050509392505050565b6000819050919050565b6000610fd1610fcc610fc784610cd6565b610fac565b610cd6565b9050919050565b6000819050919050565b610feb83610fb6565b610fff610ff782610fd8565b848454610f5a565b825550505050565b600090565b611014611007565b61101f818484610fe2565b505050565b5b818110156110435761103860008261100c565b600181019050611025565b5050565b601f8211156110885761105981610f28565b61106284610f3d565b81016020851015611071578190505b61108561107d85610f3d565b830182611024565b50505b505050565b600082821c905092915050565b60006110ab6000198460080261108d565b1980831691505092915050565b60006110c4838361109a565b9150826002028217905092915050565b6110dd82610b14565b67ffffffffffffffff8111156110f6576110f56108c3565b5b6111008254610ef7565b61110b828285611047565b600060209050601f83116001811461113e576000841561112c578287015190505b61113685826110b8565b86555061119e565b601f19841661114c86610f28565b60005b828110156111745784890151825560018201915060208501945060208101905061114f565b86831015611191578489015161118d601f89168261109a565b8355505b6001600288020188555050505b505050505050565b7f4e487b7100000000000000000000000000000000000000000000000000000000600052603260045260246000fdfea2646970667358221220b273dfd31881b4dbf6100e28f65e0bceb75940896aab718c176accfb589dc9b564736f6c63430008110033",
					"opcodes": "PUSH1 0x80 PUSH1 0x40 MSTORE CALLVALUE DUP1 ISZERO PUSH2 0x10 JUMPI PUSH1 0x0 DUP1 REVERT JUMPDEST POP PUSH2 0x120B DUP1 PUSH2 0x20 PUSH1 0x0 CODECOPY PUSH1 0x0 RETURN INVALID PUSH1 0x80 PUSH1 0x40 MSTORE CALLVALUE DUP1 ISZERO PUSH2 0x10 JUMPI PUSH1 0x0 DUP1 REVERT JUMPDEST POP PUSH1 0x4 CALLDATASIZE LT PUSH2 0x88 JUMPI PUSH1 0x0 CALLDATALOAD PUSH1 0xE0 SHR DUP1 PUSH4 0x98168B94 GT PUSH2 0x5B JUMPI DUP1 PUSH4 0x98168B94 EQ PUSH2 0x103 JUMPI DUP1 PUSH4 0xB29F04FE EQ PUSH2 0x11F JUMPI DUP1 PUSH4 0xB78842EE EQ PUSH2 0x13B JUMPI DUP1 PUSH4 0xDACF64E2 EQ PUSH2 0x157 JUMPI PUSH2 0x88 JUMP JUMPDEST DUP1 PUSH4 0x85D4883 EQ PUSH2 0x8D JUMPI DUP1 PUSH4 0x1FBECDE7 EQ PUSH2 0xAB JUMPI DUP1 PUSH4 0x76CDB03B EQ PUSH2 0xC7 JUMPI DUP1 PUSH4 0x827B0348 EQ PUSH2 0xE5 JUMPI JUMPDEST PUSH1 0x0 DUP1 REVERT JUMPDEST PUSH2 0x95 PUSH2 0x173 JUMP JUMPDEST PUSH1 0x40 MLOAD PUSH2 0xA2 SWAP2 SWAP1 PUSH2 0x84D JUMP JUMPDEST PUSH1 0x40 MLOAD DUP1 SWAP2 SUB SWAP1 RETURN JUMPDEST PUSH2 0xC5 PUSH1 0x4 DUP1 CALLDATASIZE SUB DUP2 ADD SWAP1 PUSH2 0xC0 SWAP2 SWAP1 PUSH2 0x9EE JUMP JUMPDEST PUSH2 0x197 JUMP JUMPDEST STOP JUMPDEST PUSH2 0xCF PUSH2 0x2AD JUMP JUMPDEST PUSH1 0x40 MLOAD PUSH2 0xDC SWAP2 SWAP1 PUSH2 0x84D JUMP JUMPDEST PUSH1 0x40 MLOAD DUP1 SWAP2 SUB SWAP1 RETURN JUMPDEST PUSH2 0xED PUSH2 0x2D3 JUMP JUMPDEST PUSH1 0x40 MLOAD PUSH2 0xFA SWAP2 SWAP1 PUSH2 0xCB4 JUMP JUMPDEST PUSH1 0x40 MLOAD DUP1 SWAP2 SUB SWAP1 RETURN JUMPDEST PUSH2 0x11D PUSH1 0x4 DUP1 CALLDATASIZE SUB DUP2 ADD SWAP1 PUSH2 0x118 SWAP2 SWAP1 PUSH2 0xE12 JUMP JUMPDEST PUSH2 0x5D0 JUMP JUMPDEST STOP JUMPDEST PUSH2 0x139 PUSH1 0x4 DUP1 CALLDATASIZE SUB DUP2 ADD SWAP1 PUSH2 0x134 SWAP2 SWAP1 PUSH2 0xE6E JUMP JUMPDEST PUSH2 0x699 JUMP JUMPDEST STOP JUMPDEST PUSH2 0x155 PUSH1 0x4 DUP1 CALLDATASIZE SUB DUP2 ADD SWAP1 PUSH2 0x150 SWAP2 SWAP1 PUSH2 0xE9B JUMP JUMPDEST PUSH2 0x6DC JUMP JUMPDEST STOP JUMPDEST PUSH2 0x171 PUSH1 0x4 DUP1 CALLDATASIZE SUB DUP2 ADD SWAP1 PUSH2 0x16C SWAP2 SWAP1 PUSH2 0xE6E JUMP JUMPDEST PUSH2 0x76B JUMP JUMPDEST STOP JUMPDEST PUSH1 0x0 DUP1 SLOAD SWAP1 PUSH2 0x100 EXP SWAP1 DIV PUSH20 0xFFFFFFFFFFFFFFFFFFFFFFFFFFFFFFFFFFFFFFFF AND DUP2 JUMP JUMPDEST PUSH1 0x0 PUSH1 0x40 MLOAD DUP1 PUSH1 0xA0 ADD PUSH1 0x40 MSTORE DUP1 DUP8 PUSH20 0xFFFFFFFFFFFFFFFFFFFFFFFFFFFFFFFFFFFFFFFF AND DUP2 MSTORE PUSH1 0x20 ADD DUP7 DUP2 MSTORE PUSH1 0x20 ADD DUP6 DUP2 MSTORE PUSH1 0x20 ADD DUP5 DUP2 MSTORE PUSH1 0x20 ADD DUP4 DUP2 MSTORE POP SWAP1 POP PUSH1 0x2 DUP2 SWAP1 DUP1 PUSH1 0x1 DUP2 SLOAD ADD DUP1 DUP3 SSTORE DUP1 SWAP2 POP POP PUSH1 0x1 SWAP1 SUB SWAP1 PUSH1 0x0 MSTORE PUSH1 0x20 PUSH1 0x0 KECCAK256 SWAP1 PUSH1 0x5 MUL ADD PUSH1 0x0 SWAP1 SWAP2 SWAP1 SWAP2 SWAP1 SWAP2 POP PUSH1 0x0 DUP3 ADD MLOAD DUP2 PUSH1 0x0 ADD PUSH1 0x0 PUSH2 0x100 EXP DUP2 SLOAD DUP2 PUSH20 0xFFFFFFFFFFFFFFFFFFFFFFFFFFFFFFFFFFFFFFFF MUL NOT AND SWAP1 DUP4 PUSH20 0xFFFFFFFFFFFFFFFFFFFFFFFFFFFFFFFFFFFFFFFF AND MUL OR SWAP1 SSTORE POP PUSH1 0x20 DUP3 ADD MLOAD DUP2 PUSH1 0x1 ADD SWAP1 DUP2 PUSH2 0x260 SWAP2 SWAP1 PUSH2 0x10D4 JUMP JUMPDEST POP PUSH1 0x40 DUP3 ADD MLOAD DUP2 PUSH1 0x2 ADD SWAP1 DUP2 PUSH2 0x276 SWAP2 SWAP1 PUSH2 0x10D4 JUMP JUMPDEST POP PUSH1 0x60 DUP3 ADD MLOAD DUP2 PUSH1 0x3 ADD SWAP1 DUP2 PUSH2 0x28C SWAP2 SWAP1 PUSH2 0x10D4 JUMP JUMPDEST POP PUSH1 0x80 DUP3 ADD MLOAD DUP2 PUSH1 0x4 ADD SWAP1 DUP2 PUSH2 0x2A2 SWAP2 SWAP1 PUSH2 0x10D4 JUMP JUMPDEST POP POP POP POP POP POP POP POP POP JUMP JUMPDEST PUSH1 0x1 PUSH1 0x0 SWAP1 SLOAD SWAP1 PUSH2 0x100 EXP SWAP1 DIV PUSH20 0xFFFFFFFFFFFFFFFFFFFFFFFFFFFFFFFFFFFFFFFF AND DUP2 JUMP JUMPDEST PUSH1 0x60 PUSH1 0x2 DUP1 SLOAD DUP1 PUSH1 0x20 MUL PUSH1 0x20 ADD PUSH1 0x40 MLOAD SWAP1 DUP2 ADD PUSH1 0x40 MSTORE DUP1 SWAP3 SWAP2 SWAP1 DUP2 DUP2 MSTORE PUSH1 0x20 ADD PUSH1 0x0 SWAP1 JUMPDEST DUP3 DUP3 LT ISZERO PUSH2 0x5C7 JUMPI DUP4 DUP3 SWAP1 PUSH1 0x0 MSTORE PUSH1 0x20 PUSH1 0x0 KECCAK256 SWAP1 PUSH1 0x5 MUL ADD PUSH1 0x40 MLOAD DUP1 PUSH1 0xA0 ADD PUSH1 0x40 MSTORE SWAP1 DUP2 PUSH1 0x0 DUP3 ADD PUSH1 0x0 SWAP1 SLOAD SWAP1 PUSH2 0x100 EXP SWAP1 DIV PUSH20 0xFFFFFFFFFFFFFFFFFFFFFFFFFFFFFFFFFFFFFFFF AND PUSH20 0xFFFFFFFFFFFFFFFFFFFFFFFFFFFFFFFFFFFFFFFF AND PUSH20 0xFFFFFFFFFFFFFFFFFFFFFFFFFFFFFFFFFFFFFFFF AND DUP2 MSTORE PUSH1 0x20 ADD PUSH1 0x1 DUP3 ADD DUP1 SLOAD PUSH2 0x380 SWAP1 PUSH2 0xEF7 JUMP JUMPDEST DUP1 PUSH1 0x1F ADD PUSH1 0x20 DUP1 SWAP2 DIV MUL PUSH1 0x20 ADD PUSH1 0x40 MLOAD SWAP1 DUP2 ADD PUSH1 0x40 MSTORE DUP1 SWAP3 SWAP2 SWAP1 DUP2 DUP2 MSTORE PUSH1 0x20 ADD DUP3 DUP1 SLOAD PUSH2 0x3AC SWAP1 PUSH2 0xEF7 JUMP JUMPDEST DUP1 ISZERO PUSH2 0x3F9 JUMPI DUP1 PUSH1 0x1F LT PUSH2 0x3CE JUMPI PUSH2 0x100 DUP1 DUP4 SLOAD DIV MUL DUP4 MSTORE SWAP2 PUSH1 0x20 ADD SWAP2 PUSH2 0x3F9 JUMP JUMPDEST DUP3 ADD SWAP2 SWAP1 PUSH1 0x0 MSTORE PUSH1 0x20 PUSH1 0x0 KECCAK256 SWAP1 JUMPDEST DUP2 SLOAD DUP2 MSTORE SWAP1 PUSH1 0x1 ADD SWAP1 PUSH1 0x20 ADD DUP1 DUP4 GT PUSH2 0x3DC JUMPI DUP3 SWAP1 SUB PUSH1 0x1F AND DUP3 ADD SWAP2 JUMPDEST POP POP POP POP POP DUP2 MSTORE PUSH1 0x20 ADD PUSH1 0x2 DUP3 ADD DUP1 SLOAD PUSH2 0x412 SWAP1 PUSH2 0xEF7 JUMP JUMPDEST DUP1 PUSH1 0x1F ADD PUSH1 0x20 DUP1 SWAP2 DIV MUL PUSH1 0x20 ADD PUSH1 0x40 MLOAD SWAP1 DUP2 ADD PUSH1 0x40 MSTORE DUP1 SWAP3 SWAP2 SWAP1 DUP2 DUP2 MSTORE PUSH1 0x20 ADD DUP3 DUP1 SLOAD PUSH2 0x43E SWAP1 PUSH2 0xEF7 JUMP JUMPDEST DUP1 ISZERO PUSH2 0x48B JUMPI DUP1 PUSH1 0x1F LT PUSH2 0x460 JUMPI PUSH2 0x100 DUP1 DUP4 SLOAD DIV MUL DUP4 MSTORE SWAP2 PUSH1 0x20 ADD SWAP2 PUSH2 0x48B JUMP JUMPDEST DUP3 ADD SWAP2 SWAP1 PUSH1 0x0 MSTORE PUSH1 0x20 PUSH1 0x0 KECCAK256 SWAP1 JUMPDEST DUP2 SLOAD DUP2 MSTORE SWAP1 PUSH1 0x1 ADD SWAP1 PUSH1 0x20 ADD DUP1 DUP4 GT PUSH2 0x46E JUMPI DUP3 SWAP1 SUB PUSH1 0x1F AND DUP3 ADD SWAP2 JUMPDEST POP POP POP POP POP DUP2 MSTORE PUSH1 0x20 ADD PUSH1 0x3 DUP3 ADD DUP1 SLOAD PUSH2 0x4A4 SWAP1 PUSH2 0xEF7 JUMP JUMPDEST DUP1 PUSH1 0x1F ADD PUSH1 0x20 DUP1 SWAP2 DIV MUL PUSH1 0x20 ADD PUSH1 0x40 MLOAD SWAP1 DUP2 ADD PUSH1 0x40 MSTORE DUP1 SWAP3 SWAP2 SWAP1 DUP2 DUP2 MSTORE PUSH1 0x20 ADD DUP3 DUP1 SLOAD PUSH2 0x4D0 SWAP1 PUSH2 0xEF7 JUMP JUMPDEST DUP1 ISZERO PUSH2 0x51D JUMPI DUP1 PUSH1 0x1F LT PUSH2 0x4F2 JUMPI PUSH2 0x100 DUP1 DUP4 SLOAD DIV MUL DUP4 MSTORE SWAP2 PUSH1 0x20 ADD SWAP2 PUSH2 0x51D JUMP JUMPDEST DUP3 ADD SWAP2 SWAP1 PUSH1 0x0 MSTORE PUSH1 0x20 PUSH1 0x0 KECCAK256 SWAP1 JUMPDEST DUP2 SLOAD DUP2 MSTORE SWAP1 PUSH1 0x1 ADD SWAP1 PUSH1 0x20 ADD DUP1 DUP4 GT PUSH2 0x500 JUMPI DUP3 SWAP1 SUB PUSH1 0x1F AND DUP3 ADD SWAP2 JUMPDEST POP POP POP POP POP DUP2 MSTORE PUSH1 0x20 ADD PUSH1 0x4 DUP3 ADD DUP1 SLOAD PUSH2 0x536 SWAP1 PUSH2 0xEF7 JUMP JUMPDEST DUP1 PUSH1 0x1F ADD PUSH1 0x20 DUP1 SWAP2 DIV MUL PUSH1 0x20 ADD PUSH1 0x40 MLOAD SWAP1 DUP2 ADD PUSH1 0x40 MSTORE DUP1 SWAP3 SWAP2 SWAP1 DUP2 DUP2 MSTORE PUSH1 0x20 ADD DUP3 DUP1 SLOAD PUSH2 0x562 SWAP1 PUSH2 0xEF7 JUMP JUMPDEST DUP1 ISZERO PUSH2 0x5AF JUMPI DUP1 PUSH1 0x1F LT PUSH2 0x584 JUMPI PUSH2 0x100 DUP1 DUP4 SLOAD DIV MUL DUP4 MSTORE SWAP2 PUSH1 0x20 ADD SWAP2 PUSH2 0x5AF JUMP JUMPDEST DUP3 ADD SWAP2 SWAP1 PUSH1 0x0 MSTORE PUSH1 0x20 PUSH1 0x0 KECCAK256 SWAP1 JUMPDEST DUP2 SLOAD DUP2 MSTORE SWAP1 PUSH1 0x1 ADD SWAP1 PUSH1 0x20 ADD DUP1 DUP4 GT PUSH2 0x592 JUMPI DUP3 SWAP1 SUB PUSH1 0x1F AND DUP3 ADD SWAP2 JUMPDEST POP POP POP POP POP DUP2 MSTORE POP POP DUP2 MSTORE PUSH1 0x20 ADD SWAP1 PUSH1 0x1 ADD SWAP1 PUSH2 0x2F7 JUMP JUMPDEST POP POP POP POP SWAP1 POP SWAP1 JUMP JUMPDEST DUP1 PUSH1 0x2 DUP4 DUP2 SLOAD DUP2 LT PUSH2 0x5E5 JUMPI PUSH2 0x5E4 PUSH2 0x11A6 JUMP JUMPDEST JUMPDEST SWAP1 PUSH1 0x0 MSTORE PUSH1 0x20 PUSH1 0x0 KECCAK256 SWAP1 PUSH1 0x5 MUL ADD PUSH1 0x0 DUP3 ADD MLOAD DUP2 PUSH1 0x0 ADD PUSH1 0x0 PUSH2 0x100 EXP DUP2 SLOAD DUP2 PUSH20 0xFFFFFFFFFFFFFFFFFFFFFFFFFFFFFFFFFFFFFFFF MUL NOT AND SWAP1 DUP4 PUSH20 0xFFFFFFFFFFFFFFFFFFFFFFFFFFFFFFFFFFFFFFFF AND MUL OR SWAP1 SSTORE POP PUSH1 0x20 DUP3 ADD MLOAD DUP2 PUSH1 0x1 ADD SWAP1 DUP2 PUSH2 0x64F SWAP2 SWAP1 PUSH2 0x10D4 JUMP JUMPDEST POP PUSH1 0x40 DUP3 ADD MLOAD DUP2 PUSH1 0x2 ADD SWAP1 DUP2 PUSH2 0x665 SWAP2 SWAP1 PUSH2 0x10D4 JUMP JUMPDEST POP PUSH1 0x60 DUP3 ADD MLOAD DUP2 PUSH1 0x3 ADD SWAP1 DUP2 PUSH2 0x67B SWAP2 SWAP1 PUSH2 0x10D4 JUMP JUMPDEST POP PUSH1 0x80 DUP3 ADD MLOAD DUP2 PUSH1 0x4 ADD SWAP1 DUP2 PUSH2 0x691 SWAP2 SWAP1 PUSH2 0x10D4 JUMP JUMPDEST POP SWAP1 POP POP POP POP JUMP JUMPDEST DUP1 PUSH1 0x0 DUP1 PUSH2 0x100 EXP DUP2 SLOAD DUP2 PUSH20 0xFFFFFFFFFFFFFFFFFFFFFFFFFFFFFFFFFFFFFFFF MUL NOT AND SWAP1 DUP4 PUSH20 0xFFFFFFFFFFFFFFFFFFFFFFFFFFFFFFFFFFFFFFFF AND MUL OR SWAP1 SSTORE POP POP JUMP JUMPDEST PUSH1 0x2 DUP2 DUP2 SLOAD DUP2 LT PUSH2 0x6F0 JUMPI PUSH2 0x6EF PUSH2 0x11A6 JUMP JUMPDEST JUMPDEST SWAP1 PUSH1 0x0 MSTORE PUSH1 0x20 PUSH1 0x0 KECCAK256 SWAP1 PUSH1 0x5 MUL ADD PUSH1 0x0 DUP1 DUP3 ADD PUSH1 0x0 PUSH2 0x100 EXP DUP2 SLOAD SWAP1 PUSH20 0xFFFFFFFFFFFFFFFFFFFFFFFFFFFFFFFFFFFFFFFF MUL NOT AND SWAP1 SSTORE PUSH1 0x1 DUP3 ADD PUSH1 0x0 PUSH2 0x736 SWAP2 SWAP1 PUSH2 0x7AF JUMP JUMPDEST PUSH1 0x2 DUP3 ADD PUSH1 0x0 PUSH2 0x746 SWAP2 SWAP1 PUSH2 0x7AF JUMP JUMPDEST PUSH1 0x3 DUP3 ADD PUSH1 0x0 PUSH2 0x756 SWAP2 SWAP1 PUSH2 0x7AF JUMP JUMPDEST PUSH1 0x4 DUP3 ADD PUSH1 0x0 PUSH2 0x766 SWAP2 SWAP1 PUSH2 0x7AF JUMP JUMPDEST POP POP POP JUMP JUMPDEST DUP1 PUSH1 0x1 PUSH1 0x0 PUSH2 0x100 EXP DUP2 SLOAD DUP2 PUSH20 0xFFFFFFFFFFFFFFFFFFFFFFFFFFFFFFFFFFFFFFFF MUL NOT AND SWAP1 DUP4 PUSH20 0xFFFFFFFFFFFFFFFFFFFFFFFFFFFFFFFFFFFFFFFF AND MUL OR SWAP1 SSTORE POP POP JUMP JUMPDEST POP DUP1 SLOAD PUSH2 0x7BB SWAP1 PUSH2 0xEF7 JUMP JUMPDEST PUSH1 0x0 DUP3 SSTORE DUP1 PUSH1 0x1F LT PUSH2 0x7CD JUMPI POP PUSH2 0x7EC JUMP JUMPDEST PUSH1 0x1F ADD PUSH1 0x20 SWAP1 DIV SWAP1 PUSH1 0x0 MSTORE PUSH1 0x20 PUSH1 0x0 KECCAK256 SWAP1 DUP2 ADD SWAP1 PUSH2 0x7EB SWAP2 SWAP1 PUSH2 0x7EF JUMP JUMPDEST JUMPDEST POP JUMP JUMPDEST JUMPDEST DUP1 DUP3 GT ISZERO PUSH2 0x808 JUMPI PUSH1 0x0 DUP2 PUSH1 0x0 SWAP1 SSTORE POP PUSH1 0x1 ADD PUSH2 0x7F0 JUMP JUMPDEST POP SWAP1 JUMP JUMPDEST PUSH1 0x0 PUSH20 0xFFFFFFFFFFFFFFFFFFFFFFFFFFFFFFFFFFFFFFFF DUP3 AND SWAP1 POP SWAP2 SWAP1 POP JUMP JUMPDEST PUSH1 0x0 PUSH2 0x837 DUP3 PUSH2 0x80C JUMP JUMPDEST SWAP1 POP SWAP2 SWAP1 POP JUMP JUMPDEST PUSH2 0x847 DUP2 PUSH2 0x82C JUMP JUMPDEST DUP3 MSTORE POP POP JUMP JUMPDEST PUSH1 0x0 PUSH1 0x20 DUP3 ADD SWAP1 POP PUSH2 0x862 PUSH1 0x0 DUP4 ADD DUP5 PUSH2 0x83E JUMP JUMPDEST SWAP3 SWAP2 POP POP JUMP JUMPDEST PUSH1 0x0 PUSH1 0x40 MLOAD SWAP1 POP SWAP1 JUMP JUMPDEST PUSH1 0x0 DUP1 REVERT JUMPDEST PUSH1 0x0 DUP1 REVERT JUMPDEST PUSH2 0x885 DUP2 PUSH2 0x82C JUMP JUMPDEST DUP2 EQ PUSH2 0x890 JUMPI PUSH1 0x0 DUP1 REVERT JUMPDEST POP JUMP JUMPDEST PUSH1 0x0 DUP2 CALLDATALOAD SWAP1 POP PUSH2 0x8A2 DUP2 PUSH2 0x87C JUMP JUMPDEST SWAP3 SWAP2 POP POP JUMP JUMPDEST PUSH1 0x0 DUP1 REVERT JUMPDEST PUSH1 0x0 DUP1 REVERT JUMPDEST PUSH1 0x0 PUSH1 0x1F NOT PUSH1 0x1F DUP4 ADD AND SWAP1 POP SWAP2 SWAP1 POP JUMP JUMPDEST PUSH32 0x4E487B7100000000000000000000000000000000000000000000000000000000 PUSH1 0x0 MSTORE PUSH1 0x41 PUSH1 0x4 MSTORE PUSH1 0x24 PUSH1 0x0 REVERT JUMPDEST PUSH2 0x8FB DUP3 PUSH2 0x8B2 JUMP JUMPDEST DUP2 ADD DUP2 DUP2 LT PUSH8 0xFFFFFFFFFFFFFFFF DUP3 GT OR ISZERO PUSH2 0x91A JUMPI PUSH2 0x919 PUSH2 0x8C3 JUMP JUMPDEST JUMPDEST DUP1 PUSH1 0x40 MSTORE POP POP POP JUMP JUMPDEST PUSH1 0x0 PUSH2 0x92D PUSH2 0x868 JUMP JUMPDEST SWAP1 POP PUSH2 0x939 DUP3 DUP3 PUSH2 0x8F2 JUMP JUMPDEST SWAP2 SWAP1 POP JUMP JUMPDEST PUSH1 0x0 PUSH8 0xFFFFFFFFFFFFFFFF DUP3 GT ISZERO PUSH2 0x959 JUMPI PUSH2 0x958 PUSH2 0x8C3 JUMP JUMPDEST JUMPDEST PUSH2 0x962 DUP3 PUSH2 0x8B2 JUMP JUMPDEST SWAP1 POP PUSH1 0x20 DUP2 ADD SWAP1 POP SWAP2 SWAP1 POP JUMP JUMPDEST DUP3 DUP2 DUP4 CALLDATACOPY PUSH1 0x0 DUP4 DUP4 ADD MSTORE POP POP POP JUMP JUMPDEST PUSH1 0x0 PUSH2 0x991 PUSH2 0x98C DUP5 PUSH2 0x93E JUMP JUMPDEST PUSH2 0x923 JUMP JUMPDEST SWAP1 POP DUP3 DUP2 MSTORE PUSH1 0x20 DUP2 ADD DUP5 DUP5 DUP5 ADD GT ISZERO PUSH2 0x9AD JUMPI PUSH2 0x9AC PUSH2 0x8AD JUMP JUMPDEST JUMPDEST PUSH2 0x9B8 DUP5 DUP3 DUP6 PUSH2 0x96F JUMP JUMPDEST POP SWAP4 SWAP3 POP POP POP JUMP JUMPDEST PUSH1 0x0 DUP3 PUSH1 0x1F DUP4 ADD SLT PUSH2 0x9D5 JUMPI PUSH2 0x9D4 PUSH2 0x8A8 JUMP JUMPDEST JUMPDEST DUP2 CALLDATALOAD PUSH2 0x9E5 DUP5 DUP3 PUSH1 0x20 DUP7 ADD PUSH2 0x97E JUMP JUMPDEST SWAP2 POP POP SWAP3 SWAP2 POP POP JUMP JUMPDEST PUSH1 0x0 DUP1 PUSH1 0x0 DUP1 PUSH1 0x0 PUSH1 0xA0 DUP7 DUP9 SUB SLT ISZERO PUSH2 0xA0A JUMPI PUSH2 0xA09 PUSH2 0x872 JUMP JUMPDEST JUMPDEST PUSH1 0x0 PUSH2 0xA18 DUP9 DUP3 DUP10 ADD PUSH2 0x893 JUMP JUMPDEST SWAP6 POP POP PUSH1 0x20 DUP7 ADD CALLDATALOAD PUSH8 0xFFFFFFFFFFFFFFFF DUP2 GT ISZERO PUSH2 0xA39 JUMPI PUSH2 0xA38 PUSH2 0x877 JUMP JUMPDEST JUMPDEST PUSH2 0xA45 DUP9 DUP3 DUP10 ADD PUSH2 0x9C0 JUMP JUMPDEST SWAP5 POP POP PUSH1 0x40 DUP7 ADD CALLDATALOAD PUSH8 0xFFFFFFFFFFFFFFFF DUP2 GT ISZERO PUSH2 0xA66 JUMPI PUSH2 0xA65 PUSH2 0x877 JUMP JUMPDEST JUMPDEST PUSH2 0xA72 DUP9 DUP3 DUP10 ADD PUSH2 0x9C0 JUMP JUMPDEST SWAP4 POP POP PUSH1 0x60 DUP7 ADD CALLDATALOAD PUSH8 0xFFFFFFFFFFFFFFFF DUP2 GT ISZERO PUSH2 0xA93 JUMPI PUSH2 0xA92 PUSH2 0x877 JUMP JUMPDEST JUMPDEST PUSH2 0xA9F DUP9 DUP3 DUP10 ADD PUSH2 0x9C0 JUMP JUMPDEST SWAP3 POP POP PUSH1 0x80 DUP7 ADD CALLDATALOAD PUSH8 0xFFFFFFFFFFFFFFFF DUP2 GT ISZERO PUSH2 0xAC0 JUMPI PUSH2 0xABF PUSH2 0x877 JUMP JUMPDEST JUMPDEST PUSH2 0xACC DUP9 DUP3 DUP10 ADD PUSH2 0x9C0 JUMP JUMPDEST SWAP2 POP POP SWAP3 SWAP6 POP SWAP3 SWAP6 SWAP1 SWAP4 POP JUMP JUMPDEST PUSH1 0x0 DUP2 MLOAD SWAP1 POP SWAP2 SWAP1 POP JUMP JUMPDEST PUSH1 0x0 DUP3 DUP3 MSTORE PUSH1 0x20 DUP3 ADD SWAP1 POP SWAP3 SWAP2 POP POP JUMP JUMPDEST PUSH1 0x0 DUP2 SWAP1 POP PUSH1 0x20 DUP3 ADD SWAP1 POP SWAP2 SWAP1 POP JUMP JUMPDEST PUSH2 0xB0E DUP2 PUSH2 0x82C JUMP JUMPDEST DUP3 MSTORE POP POP JUMP JUMPDEST PUSH1 0x0 DUP2 MLOAD SWAP1 POP SWAP2 SWAP1 POP JUMP JUMPDEST PUSH1 0x0 DUP3 DUP3 MSTORE PUSH1 0x20 DUP3 ADD SWAP1 POP SWAP3 SWAP2 POP POP JUMP JUMPDEST PUSH1 0x0 JUMPDEST DUP4 DUP2 LT ISZERO PUSH2 0xB4E JUMPI DUP1 DUP3 ADD MLOAD DUP2 DUP5 ADD MSTORE PUSH1 0x20 DUP2 ADD SWAP1 POP PUSH2 0xB33 JUMP JUMPDEST PUSH1 0x0 DUP5 DUP5 ADD MSTORE POP POP POP POP JUMP JUMPDEST PUSH1 0x0 PUSH2 0xB65 DUP3 PUSH2 0xB14 JUMP JUMPDEST PUSH2 0xB6F DUP2 DUP6 PUSH2 0xB1F JUMP JUMPDEST SWAP4 POP PUSH2 0xB7F DUP2 DUP6 PUSH1 0x20 DUP7 ADD PUSH2 0xB30 JUMP JUMPDEST PUSH2 0xB88 DUP2 PUSH2 0x8B2 JUMP JUMPDEST DUP5 ADD SWAP2 POP POP SWAP3 SWAP2 POP POP JUMP JUMPDEST PUSH1 0x0 PUSH1 0xA0 DUP4 ADD PUSH1 0x0 DUP4 ADD MLOAD PUSH2 0xBAB PUSH1 0x0 DUP7 ADD DUP3 PUSH2 0xB05 JUMP JUMPDEST POP PUSH1 0x20 DUP4 ADD MLOAD DUP5 DUP3 SUB PUSH1 0x20 DUP7 ADD MSTORE PUSH2 0xBC3 DUP3 DUP3 PUSH2 0xB5A JUMP JUMPDEST SWAP2 POP POP PUSH1 0x40 DUP4 ADD MLOAD DUP5 DUP3 SUB PUSH1 0x40 DUP7 ADD MSTORE PUSH2 0xBDD DUP3 DUP3 PUSH2 0xB5A JUMP JUMPDEST SWAP2 POP POP PUSH1 0x60 DUP4 ADD MLOAD DUP5 DUP3 SUB PUSH1 0x60 DUP7 ADD MSTORE PUSH2 0xBF7 DUP3 DUP3 PUSH2 0xB5A JUMP JUMPDEST SWAP2 POP POP PUSH1 0x80 DUP4 ADD MLOAD DUP5 DUP3 SUB PUSH1 0x80 DUP7 ADD MSTORE PUSH2 0xC11 DUP3 DUP3 PUSH2 0xB5A JUMP JUMPDEST SWAP2 POP POP DUP1 SWAP2 POP POP SWAP3 SWAP2 POP POP JUMP JUMPDEST PUSH1 0x0 PUSH2 0xC2A DUP4 DUP4 PUSH2 0xB93 JUMP JUMPDEST SWAP1 POP SWAP3 SWAP2 POP POP JUMP JUMPDEST PUSH1 0x0 PUSH1 0x20 DUP3 ADD SWAP1 POP SWAP2 SWAP1 POP JUMP JUMPDEST PUSH1 0x0 PUSH2 0xC4A DUP3 PUSH2 0xAD9 JUMP JUMPDEST PUSH2 0xC54 DUP2 DUP6 PUSH2 0xAE4 JUMP JUMPDEST SWAP4 POP DUP4 PUSH1 0x20 DUP3 MUL DUP6 ADD PUSH2 0xC66 DUP6 PUSH2 0xAF5 JUMP JUMPDEST DUP1 PUSH1 0x0 JUMPDEST DUP6 DUP2 LT ISZERO PUSH2 0xCA2 JUMPI DUP5 DUP5 SUB DUP10 MSTORE DUP2 MLOAD PUSH2 0xC83 DUP6 DUP3 PUSH2 0xC1E JUMP JUMPDEST SWAP5 POP PUSH2 0xC8E DUP4 PUSH2 0xC32 JUMP JUMPDEST SWAP3 POP PUSH1 0x20 DUP11 ADD SWAP10 POP POP PUSH1 0x1 DUP2 ADD SWAP1 POP PUSH2 0xC6A JUMP JUMPDEST POP DUP3 SWAP8 POP DUP8 SWAP6 POP POP POP POP POP POP SWAP3 SWAP2 POP POP JUMP JUMPDEST PUSH1 0x0 PUSH1 0x20 DUP3 ADD SWAP1 POP DUP2 DUP2 SUB PUSH1 0x0 DUP4 ADD MSTORE PUSH2 0xCCE DUP2 DUP5 PUSH2 0xC3F JUMP JUMPDEST SWAP1 POP SWAP3 SWAP2 POP POP JUMP JUMPDEST PUSH1 0x0 DUP2 SWAP1 POP SWAP2 SWAP1 POP JUMP JUMPDEST PUSH2 0xCE9 DUP2 PUSH2 0xCD6 JUMP JUMPDEST DUP2 EQ PUSH2 0xCF4 JUMPI PUSH1 0x0 DUP1 REVERT JUMPDEST POP JUMP JUMPDEST PUSH1 0x0 DUP2 CALLDATALOAD SWAP1 POP PUSH2 0xD06 DUP2 PUSH2 0xCE0 JUMP JUMPDEST SWAP3 SWAP2 POP POP JUMP JUMPDEST PUSH1 0x0 DUP1 REVERT JUMPDEST PUSH1 0x0 DUP1 REVERT JUMPDEST PUSH1 0x0 PUSH1 0xA0 DUP3 DUP5 SUB SLT ISZERO PUSH2 0xD2C JUMPI PUSH2 0xD2B PUSH2 0xD0C JUMP JUMPDEST JUMPDEST PUSH2 0xD36 PUSH1 0xA0 PUSH2 0x923 JUMP JUMPDEST SWAP1 POP PUSH1 0x0 PUSH2 0xD46 DUP5 DUP3 DUP6 ADD PUSH2 0x893 JUMP JUMPDEST PUSH1 0x0 DUP4 ADD MSTORE POP PUSH1 0x20 DUP3 ADD CALLDATALOAD PUSH8 0xFFFFFFFFFFFFFFFF DUP2 GT ISZERO PUSH2 0xD6A JUMPI PUSH2 0xD69 PUSH2 0xD11 JUMP JUMPDEST JUMPDEST PUSH2 0xD76 DUP5 DUP3 DUP6 ADD PUSH2 0x9C0 JUMP JUMPDEST PUSH1 0x20 DUP4 ADD MSTORE POP PUSH1 0x40 DUP3 ADD CALLDATALOAD PUSH8 0xFFFFFFFFFFFFFFFF DUP2 GT ISZERO PUSH2 0xD9A JUMPI PUSH2 0xD99 PUSH2 0xD11 JUMP JUMPDEST JUMPDEST PUSH2 0xDA6 DUP5 DUP3 DUP6 ADD PUSH2 0x9C0 JUMP JUMPDEST PUSH1 0x40 DUP4 ADD MSTORE POP PUSH1 0x60 DUP3 ADD CALLDATALOAD PUSH8 0xFFFFFFFFFFFFFFFF DUP2 GT ISZERO PUSH2 0xDCA JUMPI PUSH2 0xDC9 PUSH2 0xD11 JUMP JUMPDEST JUMPDEST PUSH2 0xDD6 DUP5 DUP3 DUP6 ADD PUSH2 0x9C0 JUMP JUMPDEST PUSH1 0x60 DUP4 ADD MSTORE POP PUSH1 0x80 DUP3 ADD CALLDATALOAD PUSH8 0xFFFFFFFFFFFFFFFF DUP2 GT ISZERO PUSH2 0xDFA JUMPI PUSH2 0xDF9 PUSH2 0xD11 JUMP JUMPDEST JUMPDEST PUSH2 0xE06 DUP5 DUP3 DUP6 ADD PUSH2 0x9C0 JUMP JUMPDEST PUSH1 0x80 DUP4 ADD MSTORE POP SWAP3 SWAP2 POP POP JUMP JUMPDEST PUSH1 0x0 DUP1 PUSH1 0x40 DUP4 DUP6 SUB SLT ISZERO PUSH2 0xE29 JUMPI PUSH2 0xE28 PUSH2 0x872 JUMP JUMPDEST JUMPDEST PUSH1 0x0 PUSH2 0xE37 DUP6 DUP3 DUP7 ADD PUSH2 0xCF7 JUMP JUMPDEST SWAP3 POP POP PUSH1 0x20 DUP4 ADD CALLDATALOAD PUSH8 0xFFFFFFFFFFFFFFFF DUP2 GT ISZERO PUSH2 0xE58 JUMPI PUSH2 0xE57 PUSH2 0x877 JUMP JUMPDEST JUMPDEST PUSH2 0xE64 DUP6 DUP3 DUP7 ADD PUSH2 0xD16 JUMP JUMPDEST SWAP2 POP POP SWAP3 POP SWAP3 SWAP1 POP JUMP JUMPDEST PUSH1 0x0 PUSH1 0x20 DUP3 DUP5 SUB SLT ISZERO PUSH2 0xE84 JUMPI PUSH2 0xE83 PUSH2 0x872 JUMP JUMPDEST JUMPDEST PUSH1 0x0 PUSH2 0xE92 DUP5 DUP3 DUP6 ADD PUSH2 0x893 JUMP JUMPDEST SWAP2 POP POP SWAP3 SWAP2 POP POP JUMP JUMPDEST PUSH1 0x0 PUSH1 0x20 DUP3 DUP5 SUB SLT ISZERO PUSH2 0xEB1 JUMPI PUSH2 0xEB0 PUSH2 0x872 JUMP JUMPDEST JUMPDEST PUSH1 0x0 PUSH2 0xEBF DUP5 DUP3 DUP6 ADD PUSH2 0xCF7 JUMP JUMPDEST SWAP2 POP POP SWAP3 SWAP2 POP POP JUMP JUMPDEST PUSH32 0x4E487B7100000000000000000000000000000000000000000000000000000000 PUSH1 0x0 MSTORE PUSH1 0x22 PUSH1 0x4 MSTORE PUSH1 0x24 PUSH1 0x0 REVERT JUMPDEST PUSH1 0x0 PUSH1 0x2 DUP3 DIV SWAP1 POP PUSH1 0x1 DUP3 AND DUP1 PUSH2 0xF0F JUMPI PUSH1 0x7F DUP3 AND SWAP2 POP JUMPDEST PUSH1 0x20 DUP3 LT DUP2 SUB PUSH2 0xF22 JUMPI PUSH2 0xF21 PUSH2 0xEC8 JUMP JUMPDEST JUMPDEST POP SWAP2 SWAP1 POP JUMP JUMPDEST PUSH1 0x0 DUP2 SWAP1 POP DUP2 PUSH1 0x0 MSTORE PUSH1 0x20 PUSH1 0x0 KECCAK256 SWAP1 POP SWAP2 SWAP1 POP JUMP JUMPDEST PUSH1 0x0 PUSH1 0x20 PUSH1 0x1F DUP4 ADD DIV SWAP1 POP SWAP2 SWAP1 POP JUMP JUMPDEST PUSH1 0x0 DUP3 DUP3 SHL SWAP1 POP SWAP3 SWAP2 POP POP JUMP JUMPDEST PUSH1 0x0 PUSH1 0x8 DUP4 MUL PUSH2 0xF8A PUSH32 0xFFFFFFFFFFFFFFFFFFFFFFFFFFFFFFFFFFFFFFFFFFFFFFFFFFFFFFFFFFFFFFFF DUP3 PUSH2 0xF4D JUMP JUMPDEST PUSH2 0xF94 DUP7 DUP4 PUSH2 0xF4D JUMP JUMPDEST SWAP6 POP DUP1 NOT DUP5 AND SWAP4 POP DUP1 DUP7 AND DUP5 OR SWAP3 POP POP POP SWAP4 SWAP3 POP POP POP JUMP JUMPDEST PUSH1 0x0 DUP2 SWAP1 POP SWAP2 SWAP1 POP JUMP JUMPDEST PUSH1 0x0 PUSH2 0xFD1 PUSH2 0xFCC PUSH2 0xFC7 DUP5 PUSH2 0xCD6 JUMP JUMPDEST PUSH2 0xFAC JUMP JUMPDEST PUSH2 0xCD6 JUMP JUMPDEST SWAP1 POP SWAP2 SWAP1 POP JUMP JUMPDEST PUSH1 0x0 DUP2 SWAP1 POP SWAP2 SWAP1 POP JUMP JUMPDEST PUSH2 0xFEB DUP4 PUSH2 0xFB6 JUMP JUMPDEST PUSH2 0xFFF PUSH2 0xFF7 DUP3 PUSH2 0xFD8 JUMP JUMPDEST DUP5 DUP5 SLOAD PUSH2 0xF5A JUMP JUMPDEST DUP3 SSTORE POP POP POP POP JUMP JUMPDEST PUSH1 0x0 SWAP1 JUMP JUMPDEST PUSH2 0x1014 PUSH2 0x1007 JUMP JUMPDEST PUSH2 0x101F DUP2 DUP5 DUP5 PUSH2 0xFE2 JUMP JUMPDEST POP POP POP JUMP JUMPDEST JUMPDEST DUP2 DUP2 LT ISZERO PUSH2 0x1043 JUMPI PUSH2 0x1038 PUSH1 0x0 DUP3 PUSH2 0x100C JUMP JUMPDEST PUSH1 0x1 DUP2 ADD SWAP1 POP PUSH2 0x1025 JUMP JUMPDEST POP POP JUMP JUMPDEST PUSH1 0x1F DUP3 GT ISZERO PUSH2 0x1088 JUMPI PUSH2 0x1059 DUP2 PUSH2 0xF28 JUMP JUMPDEST PUSH2 0x1062 DUP5 PUSH2 0xF3D JUMP JUMPDEST DUP2 ADD PUSH1 0x20 DUP6 LT ISZERO PUSH2 0x1071 JUMPI DUP2 SWAP1 POP JUMPDEST PUSH2 0x1085 PUSH2 0x107D DUP6 PUSH2 0xF3D JUMP JUMPDEST DUP4 ADD DUP3 PUSH2 0x1024 JUMP JUMPDEST POP POP JUMPDEST POP POP POP JUMP JUMPDEST PUSH1 0x0 DUP3 DUP3 SHR SWAP1 POP SWAP3 SWAP2 POP POP JUMP JUMPDEST PUSH1 0x0 PUSH2 0x10AB PUSH1 0x0 NOT DUP5 PUSH1 0x8 MUL PUSH2 0x108D JUMP JUMPDEST NOT DUP1 DUP4 AND SWAP2 POP POP SWAP3 SWAP2 POP POP JUMP JUMPDEST PUSH1 0x0 PUSH2 0x10C4 DUP4 DUP4 PUSH2 0x109A JUMP JUMPDEST SWAP2 POP DUP3 PUSH1 0x2 MUL DUP3 OR SWAP1 POP SWAP3 SWAP2 POP POP JUMP JUMPDEST PUSH2 0x10DD DUP3 PUSH2 0xB14 JUMP JUMPDEST PUSH8 0xFFFFFFFFFFFFFFFF DUP2 GT ISZERO PUSH2 0x10F6 JUMPI PUSH2 0x10F5 PUSH2 0x8C3 JUMP JUMPDEST JUMPDEST PUSH2 0x1100 DUP3 SLOAD PUSH2 0xEF7 JUMP JUMPDEST PUSH2 0x110B DUP3 DUP3 DUP6 PUSH2 0x1047 JUMP JUMPDEST PUSH1 0x0 PUSH1 0x20 SWAP1 POP PUSH1 0x1F DUP4 GT PUSH1 0x1 DUP2 EQ PUSH2 0x113E JUMPI PUSH1 0x0 DUP5 ISZERO PUSH2 0x112C JUMPI DUP3 DUP8 ADD MLOAD SWAP1 POP JUMPDEST PUSH2 0x1136 DUP6 DUP3 PUSH2 0x10B8 JUMP JUMPDEST DUP7 SSTORE POP PUSH2 0x119E JUMP JUMPDEST PUSH1 0x1F NOT DUP5 AND PUSH2 0x114C DUP7 PUSH2 0xF28 JUMP JUMPDEST PUSH1 0x0 JUMPDEST DUP3 DUP2 LT ISZERO PUSH2 0x1174 JUMPI DUP5 DUP10 ADD MLOAD DUP3 SSTORE PUSH1 0x1 DUP3 ADD SWAP2 POP PUSH1 0x20 DUP6 ADD SWAP5 POP PUSH1 0x20 DUP2 ADD SWAP1 POP PUSH2 0x114F JUMP JUMPDEST DUP7 DUP4 LT ISZERO PUSH2 0x1191 JUMPI DUP5 DUP10 ADD MLOAD PUSH2 0x118D PUSH1 0x1F DUP10 AND DUP3 PUSH2 0x109A JUMP JUMPDEST DUP4 SSTORE POP JUMPDEST PUSH1 0x1 PUSH1 0x2 DUP9 MUL ADD DUP9 SSTORE POP POP POP JUMPDEST POP POP POP POP POP POP JUMP JUMPDEST PUSH32 0x4E487B7100000000000000000000000000000000000000000000000000000000 PUSH1 0x0 MSTORE PUSH1 0x32 PUSH1 0x4 MSTORE PUSH1 0x24 PUSH1 0x0 REVERT INVALID LOG2 PUSH5 0x6970667358 0x22 SLT KECCAK256 0xB2 PUSH20 0xDFD31881B4DBF6100E28F65E0BCEB75940896AAB PUSH18 0x8C176ACCFB589DC9B564736F6C6343000811 STOP CALLER "
				},
				"gasEstimates": {
					"creation": {
						"codeDepositCost": "923800",
						"executionCost": "962",
						"totalCost": "924762"
					},
					"external": {
						"add_buyer(address,string,string,string,string)": "infinite",
						"bank()": "2559",
						"get_buyers()": "infinite",
						"provider()": "2512",
						"remove_buyer(uint256)": "infinite",
						"set_bank(address)": "24788",
						"set_provider(address)": "24744",
						"update_buyer(uint256,(address,string,string,string,string))": "infinite"
					}
				},
				"methodIdentifiers": {
					"add_buyer(address,string,string,string,string)": "1fbecde7",
					"bank()": "76cdb03b",
					"get_buyers()": "827b0348",
					"provider()": "085d4883",
					"remove_buyer(uint256)": "b78842ee",
					"set_bank(address)": "dacf64e2",
					"set_provider(address)": "b29f04fe",
					"update_buyer(uint256,(address,string,string,string,string))": "98168b94"
				}
			},
			"storageLayout": {
				"storage": [
					{
						"astId": 56,
						"contract": "contracts/Colhoz.sol:Colhoz",
						"label": "provider",
						"offset": 0,
						"slot": "0",
						"type": "t_address"
					},
					{
						"astId": 58,
						"contract": "contracts/Colhoz.sol:Colhoz",
						"label": "bank",
						"offset": 0,
						"slot": "1",
						"type": "t_address"
					},
					{
						"astId": 62,
						"contract": "contracts/Colhoz.sol:Colhoz",
						"label": "buyers",
						"offset": 0,
						"slot": "2",
						"type": "t_array(t_struct(User)12_storage)dyn_storage"
					},
					{
						"astId": 66,
						"contract": "contracts/Colhoz.sol:Colhoz",
						"label": "admins",
						"offset": 0,
						"slot": "3",
						"type": "t_array(t_struct(User)12_storage)dyn_storage"
					},
					{
						"astId": 70,
						"contract": "contracts/Colhoz.sol:Colhoz",
						"label": "sellers",
						"offset": 0,
						"slot": "4",
						"type": "t_array(t_struct(Seller)25_storage)dyn_storage"
					},
					{
						"astId": 74,
						"contract": "contracts/Colhoz.sol:Colhoz",
						"label": "shops",
						"offset": 0,
						"slot": "5",
						"type": "t_array(t_struct(Shop)34_storage)dyn_storage"
					},
					{
						"astId": 78,
						"contract": "contracts/Colhoz.sol:Colhoz",
						"label": "reviews",
						"offset": 0,
						"slot": "6",
						"type": "t_array(t_struct(Review)47_storage)dyn_storage"
					},
					{
						"astId": 82,
						"contract": "contracts/Colhoz.sol:Colhoz",
						"label": "requests",
						"offset": 0,
						"slot": "7",
						"type": "t_array(t_struct(Request)54_storage)dyn_storage"
					}
				],
				"types": {
					"t_address": {
						"encoding": "inplace",
						"label": "address",
						"numberOfBytes": "20"
					},
					"t_array(t_address)dyn_storage": {
						"base": "t_address",
						"encoding": "dynamic_array",
						"label": "address[]",
						"numberOfBytes": "32"
					},
					"t_array(t_struct(Request)54_storage)dyn_storage": {
						"base": "t_struct(Request)54_storage",
						"encoding": "dynamic_array",
						"label": "struct Request[]",
						"numberOfBytes": "32"
					},
					"t_array(t_struct(Review)47_storage)dyn_storage": {
						"base": "t_struct(Review)47_storage",
						"encoding": "dynamic_array",
						"label": "struct Review[]",
						"numberOfBytes": "32"
					},
					"t_array(t_struct(Seller)25_storage)dyn_storage": {
						"base": "t_struct(Seller)25_storage",
						"encoding": "dynamic_array",
						"label": "struct Seller[]",
						"numberOfBytes": "32"
					},
					"t_array(t_struct(Shop)34_storage)dyn_storage": {
						"base": "t_struct(Shop)34_storage",
						"encoding": "dynamic_array",
						"label": "struct Shop[]",
						"numberOfBytes": "32"
					},
					"t_array(t_struct(User)12_storage)dyn_storage": {
						"base": "t_struct(User)12_storage",
						"encoding": "dynamic_array",
						"label": "struct User[]",
						"numberOfBytes": "32"
					},
					"t_string_storage": {
						"encoding": "bytes",
						"label": "string",
						"numberOfBytes": "32"
					},
					"t_struct(Request)54_storage": {
						"encoding": "inplace",
						"label": "struct Request",
						"members": [
							{
								"astId": 49,
								"contract": "contracts/Colhoz.sol:Colhoz",
								"label": "autor",
								"offset": 0,
								"slot": "0",
								"type": "t_address"
							},
							{
								"astId": 51,
								"contract": "contracts/Colhoz.sol:Colhoz",
								"label": "currentRole",
								"offset": 0,
								"slot": "1",
								"type": "t_string_storage"
							},
							{
								"astId": 53,
								"contract": "contracts/Colhoz.sol:Colhoz",
								"label": "desiredRole",
								"offset": 0,
								"slot": "2",
								"type": "t_string_storage"
							}
						],
						"numberOfBytes": "96"
					},
					"t_struct(Review)47_storage": {
						"encoding": "inplace",
						"label": "struct Review",
						"members": [
							{
								"astId": 36,
								"contract": "contracts/Colhoz.sol:Colhoz",
								"label": "autor",
								"offset": 0,
								"slot": "0",
								"type": "t_address"
							},
							{
								"astId": 38,
								"contract": "contracts/Colhoz.sol:Colhoz",
								"label": "message",
								"offset": 0,
								"slot": "1",
								"type": "t_string_storage"
							},
							{
								"astId": 40,
								"contract": "contracts/Colhoz.sol:Colhoz",
								"label": "shopId",
								"offset": 0,
								"slot": "2",
								"type": "t_string_storage"
							},
							{
								"astId": 43,
								"contract": "contracts/Colhoz.sol:Colhoz",
								"label": "likes",
								"offset": 0,
								"slot": "3",
								"type": "t_array(t_address)dyn_storage"
							},
							{
								"astId": 46,
								"contract": "contracts/Colhoz.sol:Colhoz",
								"label": "dislikes",
								"offset": 0,
								"slot": "4",
								"type": "t_array(t_address)dyn_storage"
							}
						],
						"numberOfBytes": "160"
					},
					"t_struct(Seller)25_storage": {
						"encoding": "inplace",
						"label": "struct Seller",
						"members": [
							{
								"astId": 14,
								"contract": "contracts/Colhoz.sol:Colhoz",
								"label": "userAddr",
								"offset": 0,
								"slot": "0",
								"type": "t_address"
							},
							{
								"astId": 16,
								"contract": "contracts/Colhoz.sol:Colhoz",
								"label": "login",
								"offset": 0,
								"slot": "1",
								"type": "t_string_storage"
							},
							{
								"astId": 18,
								"contract": "contracts/Colhoz.sol:Colhoz",
								"label": "password",
								"offset": 0,
								"slot": "2",
								"type": "t_string_storage"
							},
							{
								"astId": 20,
								"contract": "contracts/Colhoz.sol:Colhoz",
								"label": "fio",
								"offset": 0,
								"slot": "3",
								"type": "t_string_storage"
							},
							{
								"astId": 22,
								"contract": "contracts/Colhoz.sol:Colhoz",
								"label": "status",
								"offset": 0,
								"slot": "4",
								"type": "t_string_storage"
							},
							{
								"astId": 24,
								"contract": "contracts/Colhoz.sol:Colhoz",
								"label": "shopId",
								"offset": 0,
								"slot": "5",
								"type": "t_string_storage"
							}
						],
						"numberOfBytes": "192"
					},
					"t_struct(Shop)34_storage": {
						"encoding": "inplace",
						"label": "struct Shop",
						"members": [
							{
								"astId": 27,
								"contract": "contracts/Colhoz.sol:Colhoz",
								"label": "shopId",
								"offset": 0,
								"slot": "0",
								"type": "t_string_storage"
							},
							{
								"astId": 29,
								"contract": "contracts/Colhoz.sol:Colhoz",
								"label": "shopAddr",
								"offset": 0,
								"slot": "1",
								"type": "t_address"
							},
							{
								"astId": 31,
								"contract": "contracts/Colhoz.sol:Colhoz",
								"label": "number",
								"offset": 0,
								"slot": "2",
								"type": "t_string_storage"
							},
							{
								"astId": 33,
								"contract": "contracts/Colhoz.sol:Colhoz",
								"label": "city",
								"offset": 0,
								"slot": "3",
								"type": "t_string_storage"
							}
						],
						"numberOfBytes": "128"
					},
					"t_struct(User)12_storage": {
						"encoding": "inplace",
						"label": "struct User",
						"members": [
							{
								"astId": 3,
								"contract": "contracts/Colhoz.sol:Colhoz",
								"label": "userAddr",
								"offset": 0,
								"slot": "0",
								"type": "t_address"
							},
							{
								"astId": 5,
								"contract": "contracts/Colhoz.sol:Colhoz",
								"label": "login",
								"offset": 0,
								"slot": "1",
								"type": "t_string_storage"
							},
							{
								"astId": 7,
								"contract": "contracts/Colhoz.sol:Colhoz",
								"label": "password",
								"offset": 0,
								"slot": "2",
								"type": "t_string_storage"
							},
							{
								"astId": 9,
								"contract": "contracts/Colhoz.sol:Colhoz",
								"label": "fio",
								"offset": 0,
								"slot": "3",
								"type": "t_string_storage"
							},
							{
								"astId": 11,
								"contract": "contracts/Colhoz.sol:Colhoz",
								"label": "status",
								"offset": 0,
								"slot": "4",
								"type": "t_string_storage"
							}
						],
						"numberOfBytes": "160"
					}
				}
			},
			"userdoc": {
				"kind": "user",
				"methods": {},
				"version": 1
			}
		}
	}
}